{
    "balance_change": {
        "balanceChanges": [
            {
                "account": "0x9d665c03f6e2888dd518846986df1b2f56418c61",
                "assets": [
                    {
                        "address": "0x5150d2869ce26095f4493bce916d9c0292d5d0fe",
                        "amount": "0.08778612970417243",
                        "iconUrl": "",
                        "isERC1155": false,
                        "isERC721": false,
                        "sign": false,
                        "value": ""
                    }
                ]
            },
            {
                "account": "0x50948a9fd7244e309a66082c1d05b1069496792d",
                "assets": [
                    {
                        "address": "0x5150d2869ce26095f4493bce916d9c0292d5d0fe",
                        "amount": "0.08778612970417243",
                        "iconUrl": "",
                        "isERC1155": false,
                        "isERC721": false,
                        "sign": true,
                        "value": ""
                    }
                ]
            }
        ]
    },
    "profile": {
        "basic_info": {
            "baseFee": "",
            "blockNumber": 7016241,
            "callData": "0xa9059cbb00000000000000000000000050948a9fd7244e309a66082c1d05b1069496792d0000000000000000000000000000000000000000000000000137e10515393b8e",
            "debugEnable": true,
            "errorInfo": "",
            "eventCount": 1,
            "feeRecipient": "0x5a0b54d5dc17e0aadc383d2db43b0a0d3e029c4c",
            "formatValue": "0",
            "gasLimit": 37574,
            "gasPrice": "3.9",
            "gasUsed": 37574,
            "intTxnCount": 0,
            "internalRevert": false,
            "internalRevertMessage": "",
            "isContractCreation": false,
            "isFlashloan": false,
            "maxFee": "",
            "nonce": 89,
            "overwritedBlockNumber": -1,
            "priorityFee": "",
            "receiver": "0x5150d2869ce26095f4493bce916d9c0292d5d0fe",
            "revertMessage": "",
            "sender": "0x9d665c03f6e2888dd518846986df1b2f56418c61",
            "simulationEnable": true,
            "sourceTxnHash": "0x0041407090c293128aaa0fb4c622670fc7020df9823fea5f5b180b8bf1b1494e",
            "status": true,
            "timestamp": "2019-01-05T20:07:50Z",
            "transactionFee": "0.0001465386",
            "txnHash": "0x0041407090c293128aaa0fb4c622670fc7020df9823fea5f5b180b8bf1b1494e",
            "txnIndex": 135,
            "type": 0,
            "value": "0"
        },
        "fund_flow": [
            {
                "amount": "0.08778612970417243",
                "from": "0x9d665c03f6e2888dd518846986df1b2f56418c61",
                "id": 1,
                "isERC1155": false,
                "isERC721": false,
                "isReverted": false,
                "order": 1,
                "to": "0x50948a9fd7244e309a66082c1d05b1069496792d",
                "token": "0x5150d2869ce26095f4493bce916d9c0292d5d0fe"
            }
        ],
        "token_infos": [
            {
                "address": "0x5150d2869ce26095f4493bce916d9c0292d5d0fe",
                "decimals": 18
            },
            {
                "address": "0xc02aaa39b223fe8d0a0e5c4f27ead9083c756cc2",
                "decimals": 18
            },
            {
                "address": "0xeeeeeeeeeeeeeeeeeeeeeeeeeeeeeeeeeeeeeeee",
                "decimals": 18
            }
        ]
    },
    "address_label": {
        "labels": [
            {
                "address": "0xeeeeeeeeeeeeeeeeeeeeeeeeeeeeeeeeeeeeeeee",
                "label": "Ether"
            },
            {
                "address": "0x5150d2869ce26095f4493bce916d9c0292d5d0fe",
                "label": "M-DTAETH"
            },
            {
                "address": "0x0000000000000000000000000000000000000001",
                "label": "Precompiled"
            },
            {
                "address": "0x0000000000000000000000000000000000000002",
                "label": "Precompiled"
            },
            {
                "address": "0x0000000000000000000000000000000000000003",
                "label": "Precompiled"
            },
            {
                "address": "0x0000000000000000000000000000000000000004",
                "label": "Precompiled"
            }
        ]
    },
    "trace": {
        "accountLabels": null,
        "dataMap": {
            "-1": {
                "invocation": {
                    "address": "0x9d665c03f6e2888dd518846986df1b2f56418c61",
                    "callData": "",
                    "decodedMethod": null,
                    "errorInfo": "",
                    "fromAddress": "",
                    "gasUsed": 0,
                    "id": -1,
                    "methodDecoded": false,
                    "operation": "",
                    "output": "",
                    "revert": false,
                    "revertMessage": "",
                    "selector": "",
                    "status": false,
                    "value": ""
                },
                "nodeType": 0
            },
            "0": {
                "invocation": {
                    "address": "0x5150d2869ce26095f4493bce916d9c0292d5d0fe",
                    "callData": "0x00000000000000000000000050948a9fd7244e309a66082c1d05b1069496792d0000000000000000000000000000000000000000000000000137e10515393b8e",
                    "decodedMethod": {
                        "callParams": [
                            {
                                "name": "_to",
                                "type": "address",
                                "value": "0x50948a9fd7244e309a66082c1d05b1069496792d"
                            },
                            {
                                "decimalAvailable": true,
                                "name": "_value",
                                "type": "uint256",
                                "value": "87,786,129,704,172,430"
                            }
                        ],
                        "constructorArguments": "",
                        "name": "transfer",
                        "returnParams": [
                            {
                                "name": "",
                                "type": "bool",
                                "value": true
                            }
                        ],
                        "signature": "transfer(address,uint256)"
                    },
                    "errorInfo": "",
                    "fromAddress": "0x9d665c03f6e2888dd518846986df1b2f56418c61",
                    "gasUsed": 37574,
                    "id": 0,
                    "methodDecoded": true,
                    "operation": "CALL",
                    "output": "0x0000000000000000000000000000000000000000000000000000000000000001",
                    "revert": false,
                    "revertMessage": "",
                    "selector": "0xa9059cbb",
                    "status": true,
                    "value": "0"
                },
                "nodeType": 0
            },
            "1": {
                "event": {
                    "contract": "0x5150d2869ce26095f4493bce916d9c0292d5d0fe",
                    "decodedLog": {
                        "name": "Transfer",
                        "params": [
                            {
                                "name": "from",
                                "type": "address",
                                "value": "0x9d665c03f6e2888dd518846986df1b2f56418c61"
                            },
                            {
                                "name": "to",
                                "type": "address",
                                "value": "0x50948a9fd7244e309a66082c1d05b1069496792d"
                            },
                            {
                                "decimalAvailable": true,
                                "name": "value",
                                "type": "uint256",
                                "value": "87,786,129,704,172,430"
                            }
                        ],
                        "signature": "Transfer(address,address,uint256)"
                    },
                    "id": 1,
                    "logData": "0x0000000000000000000000000000000000000000000000000137e10515393b8e",
                    "logDecoded": true,
                    "operation": "EVENT",
                    "revert": false,
                    "status": true,
                    "topics": [
                        "0xddf252ad1be2c89b69c2b068fc378daa952ba7f163c4a11628f55a4df523b3ef",
                        "0x0000000000000000000000009d665c03f6e2888dd518846986df1b2f56418c61",
                        "0x00000000000000000000000050948a9fd7244e309a66082c1d05b1069496792d"
                    ]
                },
                "nodeType": 1
            }
        },
        "gasFlame": [
            {
                "children": [
                    {
                        "children": [
                            {
                                "children": [],
                                "depth": 0,
                                "name": "Initial Gas",
                                "value": 23320
                            },
                            {
                                "children": [],
                                "depth": 0,
                                "name": "Executed Gas",
                                "value": 14254
                            }
                        ],
                        "depth": -1,
                        "name": "Actual Gas Used",
                        "value": 37574
                    },
                    {
                        "children": [],
                        "depth": -1,
                        "name": "Refunded Gas",
                        "value": 0
                    }
                ],
                "depth": -2,
                "name": "Total Gas",
                "value": 37574
            }
        ],
        "isConfirmed": true,
        "mainTrace": [
            {
                "children": [
                    {
                        "children": [
                            {
                                "children": [],
                                "depth": 1,
                                "id": 1,
                                "order": 1
                            }
                        ],
                        "depth": 0,
                        "id": 0,
                        "order": 0
                    }
                ],
                "depth": -1,
                "id": -1,
                "order": -1
            }
        ],
        "mainTraceNodeCount": 2,
        "parentIdMap": {
            "0": -1,
            "1": 0
        },
        "tidyTrace": [
            {
                "children": [
                    {
                        "children": [
                            {
                                "children": [],
                                "depth": 1,
                                "id": 1,
                                "order": 1
                            }
                        ],
                        "depth": 0,
                        "id": 0,
                        "order": 0
                    }
                ],
                "depth": -1,
                "id": -1,
                "order": -1
            }
        ],
        "tidyTraceNodeCount": 2
    },
    "state_change": {
        "stateChanges": [
            {
                "address": "0x5150d2869ce26095f4493bce916d9c0292d5d0fe",
                "erc": "ERC-20",
                "slots": [
                    {
                        "current": "0x00000000000000000000000000000000000000000000000000f1c5b6501adb75",
                        "key": "0x8c0a66464dfdb55d7131ddb9fcd77e86781326b350f809e1113c8e717dbd9798",
                        "prev": "0x0000000000000000000000000000000000000000000000000229a6bb65541703"
                    },
                    {
                        "current": "0x00000000000000000000000000000000000000000000000002659337c59f0c66",
                        "key": "0x42ef45599ff06308163f7203d98aff1ca3cffb98cd7d473526d89f0b5306a19b",
                        "prev": "0x000000000000000000000000000000000000000000000000012db232b065d0d8"
                    }
                ],
                "storageVariables": [
                    {
                        "name": "balances",
                        "type": "mapping(address => uint256)",
                        "value": {
                            "pairs": [
                                {
                                    "key": "0x50948a9fd7244e309a66082c1d05b1069496792d",
                                    "value": {
                                        "current": "172706028471651430",
                                        "prev": "84919898767479000",
                                        "typeTag": 1
                                    }
                                },
                                {
                                    "key": "0x9d665c03f6e2888dd518846986df1b2f56418c61",
                                    "value": {
                                        "current": "68052856205925237",
                                        "prev": "155838985910097667",
                                        "typeTag": 1
                                    }
                                }
                            ],
                            "typeTag": 4
                        }
                    }
                ]
            }
        ]
    }
}