{
    "balance_change": {
        "balanceChanges": [
            {
                "account": "0x519f7709577c94999e4c7cfacb539cacb9edb7b8",
                "assets": [
                    {
                        "address": "0x4ca0654f4fc1025cf1a17b7459c20ac0479522ad",
                        "amount": "5.396908926871803249",
                        "iconUrl": "",
                        "isERC1155": false,
                        "isERC721": false,
                        "sign": true,
                        "value": "368.6526269"
                    }
                ]
            },
            {
                "account": "0x31eafefada2c68c6476b344bd7c9e8b4260879aa",
                "assets": [
                    {
                        "address": "0x4ca0654f4fc1025cf1a17b7459c20ac0479522ad",
                        "amount": "4.497386060696875099",
                        "iconUrl": "",
                        "isERC1155": false,
                        "isERC721": false,
                        "sign": false,
                        "value": "310.8459002"
                    }
                ]
            },
            {
                "account": "0x0000000000000000000000000000000000000000",
                "assets": [
                    {
                        "address": "0x4ca0654f4fc1025cf1a17b7459c20ac0479522ad",
                        "amount": "0.946866174920977",
                        "iconUrl": "",
                        "isERC1155": false,
                        "isERC721": false,
                        "sign": false,
                        "value": "65.8785957"
                    }
                ]
            },
            {
                "account": "0x5033be5366210a98cf5a1435b78acbfb5d361288",
                "assets": [
                    {
                        "address": "0x4ca0654f4fc1025cf1a17b7459c20ac0479522ad",
                        "amount": "0.04734330874604885",
                        "iconUrl": "",
                        "isERC1155": false,
                        "isERC721": false,
                        "sign": true,
                        "value": "3.29000438"
                    }
                ]
            }
        ]
    },
    "profile": {
        "basic_info": {
            "baseFee": "",
            "blockNumber": 12242454,
            "callData": "0xe2bbb15800000000000000000000000000000000000000000000000000000000000000070000000000000000000000000000000000000000000000000000000000000000",
            "debugEnable": true,
            "errorInfo": "",
            "eventCount": 4,
            "feeRecipient": "0x2f731c3e8cd264371ffdb635d07c14a6303df52a",
            "formatValue": "0",
            "gasLimit": 179839,
            "gasPrice": "80.001",
            "gasUsed": 119893,
            "intTxnCount": 7,
            "internalRevert": false,
            "internalRevertMessage": "",
            "isContractCreation": false,
            "isFlashloan": false,
            "maxFee": "",
            "nonce": 368,
            "overwritedBlockNumber": -1,
            "priorityFee": "",
            "receiver": "0x31eafefada2c68c6476b344bd7c9e8b4260879aa",
            "revertMessage": "",
            "sender": "0x519f7709577c94999e4c7cfacb539cacb9edb7b8",
            "simulationEnable": true,
            "sourceTxnHash": "0x007847be6130a30c921cf301bb4ac7dc2fef3cedb9ead50ad1693e5ff2ba81c1",
            "status": true,
            "timestamp": "2021-04-15T04:16:27Z",
            "transactionFee": "0.009591559893",
            "txnHash": "0x007847be6130a30c921cf301bb4ac7dc2fef3cedb9ead50ad1693e5ff2ba81c1",
            "txnIndex": 125,
            "type": 0,
            "value": "0"
        },
        "fund_flow": [
            {
                "amount": "0.04734330874604885",
                "from": "0x0000000000000000000000000000000000000000",
                "id": 1,
                "isERC1155": false,
                "isERC721": false,
                "isReverted": false,
                "order": 1,
                "to": "0x5033be5366210a98cf5a1435b78acbfb5d361288",
                "token": "0x4ca0654f4fc1025cf1a17b7459c20ac0479522ad"
            },
            {
                "amount": "0.89952286617492815",
                "from": "0x0000000000000000000000000000000000000000",
                "id": 2,
                "isERC1155": false,
                "isERC721": false,
                "isReverted": false,
                "order": 2,
                "to": "0x31eafefada2c68c6476b344bd7c9e8b4260879aa",
                "token": "0x4ca0654f4fc1025cf1a17b7459c20ac0479522ad"
            },
            {
                "amount": "5.396908926871803249",
                "from": "0x31eafefada2c68c6476b344bd7c9e8b4260879aa",
                "id": 3,
                "isERC1155": false,
                "isERC721": false,
                "isReverted": false,
                "order": 3,
                "to": "0x519f7709577c94999e4c7cfacb539cacb9edb7b8",
                "token": "0x4ca0654f4fc1025cf1a17b7459c20ac0479522ad"
            }
        ],
        "token_infos": [
            {
                "address": "0x4ca0654f4fc1025cf1a17b7459c20ac0479522ad",
                "decimals": 18
            },
            {
                "address": "0xc02aaa39b223fe8d0a0e5c4f27ead9083c756cc2",
                "decimals": 18
            },
            {
                "address": "0xeeeeeeeeeeeeeeeeeeeeeeeeeeeeeeeeeeeeeeee",
                "decimals": 18
            }
        ]
    },
    "address_label": {
        "labels": [
            {
                "address": "0x0000000000000000000000000000000000000001",
                "label": "Precompiled"
            },
            {
                "address": "0x0000000000000000000000000000000000000002",
                "label": "Precompiled"
            },
            {
                "address": "0x0000000000000000000000000000000000000003",
                "label": "Precompiled"
            },
            {
                "address": "0x0000000000000000000000000000000000000004",
                "label": "Precompiled"
            },
            {
                "address": "0xeeeeeeeeeeeeeeeeeeeeeeeeeeeeeeeeeeeeeeee",
                "label": "Ether"
            },
            {
                "address": "0xa743ace7dbb47115521bf8e159408771173f1098",
                "label": "RigelSwap LP Token (RLP)"
            },
            {
                "address": "0x4ca0654f4fc1025cf1a17b7459c20ac0479522ad",
                "label": "Rigel Finance: RIGEL Token"
            },
            {
                "address": "0x31eafefada2c68c6476b344bd7c9e8b4260879aa",
                "label": "BigBang"
            }
        ]
    },
    "trace": {
        "accountLabels": null,
        "dataMap": {
            "-1": {
                "invocation": {
                    "address": "0x519f7709577c94999e4c7cfacb539cacb9edb7b8",
                    "callData": "",
                    "decodedMethod": null,
                    "errorInfo": "",
                    "fromAddress": "",
                    "gasUsed": 0,
                    "id": -1,
                    "methodDecoded": false,
                    "operation": "",
                    "output": "",
                    "revert": false,
                    "revertMessage": "",
                    "selector": "",
                    "status": false,
                    "value": ""
                },
                "nodeType": 0
            },
            "0": {
                "invocation": {
                    "address": "0x31eafefada2c68c6476b344bd7c9e8b4260879aa",
                    "callData": "0x00000000000000000000000000000000000000000000000000000000000000070000000000000000000000000000000000000000000000000000000000000000",
                    "decodedMethod": {
                        "callParams": [
                            {
                                "name": "_pid",
                                "type": "uint256",
                                "value": "7"
                            },
                            {
                                "name": "_amount",
                                "type": "uint256",
                                "value": "0"
                            }
                        ],
                        "constructorArguments": "",
                        "name": "deposit",
                        "returnParams": [],
                        "signature": "deposit(uint256,uint256)"
                    },
                    "errorInfo": "",
                    "fromAddress": "0x519f7709577c94999e4c7cfacb539cacb9edb7b8",
                    "gasUsed": 119893,
                    "id": 0,
                    "methodDecoded": true,
                    "operation": "CALL",
                    "output": "",
                    "revert": false,
                    "revertMessage": "",
                    "selector": "0xe2bbb158",
                    "status": true,
                    "value": "0"
                },
                "nodeType": 0
            },
            "1": {
                "invocation": {
                    "address": "0xa743ace7dbb47115521bf8e159408771173f1098",
                    "callData": "0x00000000000000000000000031eafefada2c68c6476b344bd7c9e8b4260879aa",
                    "decodedMethod": {
                        "callParams": [
                            {
                                "name": "",
                                "type": "address",
                                "value": "0x31eafefada2c68c6476b344bd7c9e8b4260879aa"
                            }
                        ],
                        "constructorArguments": "",
                        "name": "balanceOf",
                        "returnParams": [
                            {
                                "decimalAvailable": true,
                                "name": "",
                                "type": "uint256",
                                "value": "26,339,880,563,631,055,436"
                            }
                        ],
                        "signature": "balanceOf(address)"
                    },
                    "errorInfo": "",
                    "fromAddress": "0x31eafefada2c68c6476b344bd7c9e8b4260879aa",
                    "gasUsed": 1237,
                    "id": 1,
                    "methodDecoded": true,
                    "operation": "STATICCALL",
                    "output": "0x0000000000000000000000000000000000000000000000016d8a0dd16571e24c",
                    "revert": false,
                    "revertMessage": "",
                    "selector": "0x70a08231",
                    "status": true,
                    "value": "0"
                },
                "nodeType": 0
            },
            "10": {
                "event": {
                    "contract": "0x4ca0654f4fc1025cf1a17b7459c20ac0479522ad",
                    "decodedLog": {
                        "name": "Transfer",
                        "params": [
                            {
                                "name": "from",
                                "type": "address",
                                "value": "0x31eafefada2c68c6476b344bd7c9e8b4260879aa"
                            },
                            {
                                "name": "to",
                                "type": "address",
                                "value": "0x519f7709577c94999e4c7cfacb539cacb9edb7b8"
                            },
                            {
                                "decimalAvailable": true,
                                "name": "value",
                                "type": "uint256",
                                "value": "5,396,908,926,871,803,249"
                            }
                        ],
                        "signature": "Transfer(address,address,uint256)"
                    },
                    "id": 10,
                    "logData": "0x0000000000000000000000000000000000000000000000004ae5ac132f541571",
                    "logDecoded": true,
                    "operation": "EVENT",
                    "revert": false,
                    "status": true,
                    "topics": [
                        "0xddf252ad1be2c89b69c2b068fc378daa952ba7f163c4a11628f55a4df523b3ef",
                        "0x00000000000000000000000031eafefada2c68c6476b344bd7c9e8b4260879aa",
                        "0x000000000000000000000000519f7709577c94999e4c7cfacb539cacb9edb7b8"
                    ]
                },
                "nodeType": 1
            },
            "11": {
                "event": {
                    "contract": "0x31eafefada2c68c6476b344bd7c9e8b4260879aa",
                    "decodedLog": {
                        "name": "Deposit",
                        "params": [
                            {
                                "name": "user",
                                "type": "address",
                                "value": "0x519f7709577c94999e4c7cfacb539cacb9edb7b8"
                            },
                            {
                                "name": "pid",
                                "type": "uint256",
                                "value": "7"
                            },
                            {
                                "name": "amount",
                                "type": "uint256",
                                "value": "0"
                            }
                        ],
                        "signature": "Deposit(address,uint256,uint256)"
                    },
                    "id": 11,
                    "logData": "0x0000000000000000000000000000000000000000000000000000000000000000",
                    "logDecoded": true,
                    "operation": "EVENT",
                    "revert": false,
                    "status": true,
                    "topics": [
                        "0x90890809c654f11d6e72a28fa60149770a0d11ec6c92319d6ceb2bb0a4ea1a15",
                        "0x000000000000000000000000519f7709577c94999e4c7cfacb539cacb9edb7b8",
                        "0x0000000000000000000000000000000000000000000000000000000000000007"
                    ]
                },
                "nodeType": 1
            },
            "2": {
                "invocation": {
                    "address": "0x4ca0654f4fc1025cf1a17b7459c20ac0479522ad",
                    "callData": "0x",
                    "decodedMethod": {
                        "callParams": [],
                        "constructorArguments": "",
                        "name": "maxSupply",
                        "returnParams": [
                            {
                                "name": "",
                                "type": "uint256",
                                "value": "30,000,000,000,000,000,000,000"
                            }
                        ],
                        "signature": "maxSupply()"
                    },
                    "errorInfo": "",
                    "fromAddress": "0x31eafefada2c68c6476b344bd7c9e8b4260879aa",
                    "gasUsed": 1109,
                    "id": 2,
                    "methodDecoded": true,
                    "operation": "STATICCALL",
                    "output": "0x00000000000000000000000000000000000000000000065a4da25d3016c00000",
                    "revert": false,
                    "revertMessage": "",
                    "selector": "0xd5abeb01",
                    "status": true,
                    "value": "0"
                },
                "nodeType": 0
            },
            "3": {
                "invocation": {
                    "address": "0x4ca0654f4fc1025cf1a17b7459c20ac0479522ad",
                    "callData": "0x",
                    "decodedMethod": {
                        "callParams": [],
                        "constructorArguments": "",
                        "name": "totalSupply",
                        "returnParams": [
                            {
                                "name": "",
                                "type": "uint256",
                                "value": "9,676,611,584,561,170,074,973"
                            }
                        ],
                        "signature": "totalSupply()"
                    },
                    "errorInfo": "",
                    "fromAddress": "0x31eafefada2c68c6476b344bd7c9e8b4260879aa",
                    "gasUsed": 1089,
                    "id": 3,
                    "methodDecoded": true,
                    "operation": "STATICCALL",
                    "output": "0x00000000000000000000000000000000000000000000020c91f65745de57cd5d",
                    "revert": false,
                    "revertMessage": "",
                    "selector": "0x18160ddd",
                    "status": true,
                    "value": "0"
                },
                "nodeType": 0
            },
            "4": {
                "invocation": {
                    "address": "0x4ca0654f4fc1025cf1a17b7459c20ac0479522ad",
                    "callData": "0x0000000000000000000000005033be5366210a98cf5a1435b78acbfb5d36128800000000000000000000000000000000000000000000000000a8327d0c4cc552",
                    "decodedMethod": {
                        "callParams": [
                            {
                                "name": "_to",
                                "type": "address",
                                "value": "0x5033be5366210a98cf5a1435b78acbfb5d361288"
                            },
                            {
                                "name": "_amount",
                                "type": "uint256",
                                "value": "47,343,308,746,048,850"
                            }
                        ],
                        "constructorArguments": "",
                        "name": "mint",
                        "returnParams": [],
                        "signature": "mint(address,uint256)"
                    },
                    "errorInfo": "",
                    "fromAddress": "0x31eafefada2c68c6476b344bd7c9e8b4260879aa",
                    "gasUsed": 17825,
                    "id": 4,
                    "methodDecoded": true,
                    "operation": "CALL",
                    "output": "",
                    "revert": false,
                    "revertMessage": "",
                    "selector": "0x40c10f19",
                    "status": true,
                    "value": "0"
                },
                "nodeType": 0
            },
            "5": {
                "event": {
                    "contract": "0x4ca0654f4fc1025cf1a17b7459c20ac0479522ad",
                    "decodedLog": {
                        "name": "Transfer",
                        "params": [
                            {
                                "name": "from",
                                "type": "address",
                                "value": "0x0000000000000000000000000000000000000000"
                            },
                            {
                                "name": "to",
                                "type": "address",
                                "value": "0x5033be5366210a98cf5a1435b78acbfb5d361288"
                            },
                            {
                                "decimalAvailable": true,
                                "name": "value",
                                "type": "uint256",
                                "value": "47,343,308,746,048,850"
                            }
                        ],
                        "signature": "Transfer(address,address,uint256)"
                    },
                    "id": 5,
                    "logData": "0x00000000000000000000000000000000000000000000000000a8327d0c4cc552",
                    "logDecoded": true,
                    "operation": "EVENT",
                    "revert": false,
                    "status": true,
                    "topics": [
                        "0xddf252ad1be2c89b69c2b068fc378daa952ba7f163c4a11628f55a4df523b3ef",
                        "0x0000000000000000000000000000000000000000000000000000000000000000",
                        "0x0000000000000000000000005033be5366210a98cf5a1435b78acbfb5d361288"
                    ]
                },
                "nodeType": 1
            },
            "6": {
                "invocation": {
                    "address": "0x4ca0654f4fc1025cf1a17b7459c20ac0479522ad",
                    "callData": "0x00000000000000000000000031eafefada2c68c6476b344bd7c9e8b4260879aa0000000000000000000000000000000000000000000000000c7bbf47e9b2a516",
                    "decodedMethod": {
                        "callParams": [
                            {
                                "name": "_to",
                                "type": "address",
                                "value": "0x31eafefada2c68c6476b344bd7c9e8b4260879aa"
                            },
                            {
                                "name": "_amount",
                                "type": "uint256",
                                "value": "899,522,866,174,928,150"
                            }
                        ],
                        "constructorArguments": "",
                        "name": "mint",
                        "returnParams": [],
                        "signature": "mint(address,uint256)"
                    },
                    "errorInfo": "",
                    "fromAddress": "0x31eafefada2c68c6476b344bd7c9e8b4260879aa",
                    "gasUsed": 13625,
                    "id": 6,
                    "methodDecoded": true,
                    "operation": "CALL",
                    "output": "",
                    "revert": false,
                    "revertMessage": "",
                    "selector": "0x40c10f19",
                    "status": true,
                    "value": "0"
                },
                "nodeType": 0
            },
            "7": {
                "event": {
                    "contract": "0x4ca0654f4fc1025cf1a17b7459c20ac0479522ad",
                    "decodedLog": {
                        "name": "Transfer",
                        "params": [
                            {
                                "name": "from",
                                "type": "address",
                                "value": "0x0000000000000000000000000000000000000000"
                            },
                            {
                                "name": "to",
                                "type": "address",
                                "value": "0x31eafefada2c68c6476b344bd7c9e8b4260879aa"
                            },
                            {
                                "decimalAvailable": true,
                                "name": "value",
                                "type": "uint256",
                                "value": "899,522,866,174,928,150"
                            }
                        ],
                        "signature": "Transfer(address,address,uint256)"
                    },
                    "id": 7,
                    "logData": "0x0000000000000000000000000000000000000000000000000c7bbf47e9b2a516",
                    "logDecoded": true,
                    "operation": "EVENT",
                    "revert": false,
                    "status": true,
                    "topics": [
                        "0xddf252ad1be2c89b69c2b068fc378daa952ba7f163c4a11628f55a4df523b3ef",
                        "0x0000000000000000000000000000000000000000000000000000000000000000",
                        "0x00000000000000000000000031eafefada2c68c6476b344bd7c9e8b4260879aa"
                    ]
                },
                "nodeType": 1
            },
            "8": {
                "invocation": {
                    "address": "0x4ca0654f4fc1025cf1a17b7459c20ac0479522ad",
                    "callData": "0x00000000000000000000000031eafefada2c68c6476b344bd7c9e8b4260879aa",
                    "decodedMethod": {
                        "callParams": [
                            {
                                "name": "account",
                                "type": "address",
                                "value": "0x31eafefada2c68c6476b344bd7c9e8b4260879aa"
                            }
                        ],
                        "constructorArguments": "",
                        "name": "balanceOf",
                        "returnParams": [
                            {
                                "decimalAvailable": true,
                                "name": "",
                                "type": "uint256",
                                "value": "90,838,912,125,012,886,928"
                            }
                        ],
                        "signature": "balanceOf(address)"
                    },
                    "errorInfo": "",
                    "fromAddress": "0x31eafefada2c68c6476b344bd7c9e8b4260879aa",
                    "gasUsed": 1256,
                    "id": 8,
                    "methodDecoded": true,
                    "operation": "STATICCALL",
                    "output": "0x000000000000000000000000000000000000000000000004eca4a54ae2514590",
                    "revert": false,
                    "revertMessage": "",
                    "selector": "0x70a08231",
                    "status": true,
                    "value": "0"
                },
                "nodeType": 0
            },
            "9": {
                "invocation": {
                    "address": "0x4ca0654f4fc1025cf1a17b7459c20ac0479522ad",
                    "callData": "0x000000000000000000000000519f7709577c94999e4c7cfacb539cacb9edb7b80000000000000000000000000000000000000000000000004ae5ac132f541571",
                    "decodedMethod": {
                        "callParams": [
                            {
                                "name": "recipient",
                                "type": "address",
                                "value": "0x519f7709577c94999e4c7cfacb539cacb9edb7b8"
                            },
                            {
                                "decimalAvailable": true,
                                "name": "amount",
                                "type": "uint256",
                                "value": "5,396,908,926,871,803,249"
                            }
                        ],
                        "constructorArguments": "",
                        "name": "transfer",
                        "returnParams": [
                            {
                                "name": "",
                                "type": "bool",
                                "value": true
                            }
                        ],
                        "signature": "transfer(address,uint256)"
                    },
                    "errorInfo": "",
                    "fromAddress": "0x31eafefada2c68c6476b344bd7c9e8b4260879aa",
                    "gasUsed": 10325,
                    "id": 9,
                    "methodDecoded": true,
                    "operation": "CALL",
                    "output": "0x0000000000000000000000000000000000000000000000000000000000000001",
                    "revert": false,
                    "revertMessage": "",
                    "selector": "0xa9059cbb",
                    "status": true,
                    "value": "0"
                },
                "nodeType": 0
            }
        },
        "gasFlame": [
            {
                "children": [
                    {
                        "children": [
                            {
                                "children": [],
                                "depth": 0,
                                "name": "Initial Gas",
                                "value": 21332
                            },
                            {
                                "children": [
                                    {
                                        "children": [],
                                        "depth": 1,
                                        "name": "balanceOf",
                                        "value": 1237
                                    },
                                    {
                                        "children": [],
                                        "depth": 1,
                                        "name": "maxSupply",
                                        "value": 1109
                                    },
                                    {
                                        "children": [],
                                        "depth": 1,
                                        "name": "totalSupply",
                                        "value": 1089
                                    },
                                    {
                                        "children": [],
                                        "depth": 1,
                                        "name": "mint",
                                        "value": 17825
                                    },
                                    {
                                        "children": [],
                                        "depth": 1,
                                        "name": "mint",
                                        "value": 13625
                                    },
                                    {
                                        "children": [],
                                        "depth": 1,
                                        "name": "balanceOf",
                                        "value": 1256
                                    },
                                    {
                                        "children": [],
                                        "depth": 1,
                                        "name": "transfer",
                                        "value": 10325
                                    }
                                ],
                                "depth": 0,
                                "name": "Executed Gas",
                                "value": 98561
                            }
                        ],
                        "depth": -1,
                        "name": "Actual Gas Used",
                        "value": 119893
                    },
                    {
                        "children": [],
                        "depth": -1,
                        "name": "Refunded Gas",
                        "value": 0
                    }
                ],
                "depth": -2,
                "name": "Total Gas",
                "value": 119893
            }
        ],
        "isConfirmed": true,
        "mainTrace": [
            {
                "children": [
                    {
                        "children": [
                            {
                                "children": [],
                                "depth": 1,
                                "id": 1,
                                "order": 1
                            },
                            {
                                "children": [],
                                "depth": 1,
                                "id": 2,
                                "order": 2
                            },
                            {
                                "children": [],
                                "depth": 1,
                                "id": 3,
                                "order": 3
                            },
                            {
                                "children": [
                                    {
                                        "children": [],
                                        "depth": 2,
                                        "id": 5,
                                        "order": 5
                                    }
                                ],
                                "depth": 1,
                                "id": 4,
                                "order": 4
                            },
                            {
                                "children": [
                                    {
                                        "children": [],
                                        "depth": 2,
                                        "id": 7,
                                        "order": 7
                                    }
                                ],
                                "depth": 1,
                                "id": 6,
                                "order": 6
                            },
                            {
                                "children": [],
                                "depth": 1,
                                "id": 8,
                                "order": 8
                            },
                            {
                                "children": [
                                    {
                                        "children": [],
                                        "depth": 2,
                                        "id": 10,
                                        "order": 10
                                    }
                                ],
                                "depth": 1,
                                "id": 9,
                                "order": 9
                            },
                            {
                                "children": [],
                                "depth": 1,
                                "id": 11,
                                "order": 11
                            }
                        ],
                        "depth": 0,
                        "id": 0,
                        "order": 0
                    }
                ],
                "depth": -1,
                "id": -1,
                "order": -1
            }
        ],
        "mainTraceNodeCount": 12,
        "parentIdMap": {
            "0": -1,
            "1": 0,
            "10": 9,
            "11": 0,
            "2": 0,
            "3": 0,
            "4": 0,
            "5": 4,
            "6": 0,
            "7": 6,
            "8": 0,
            "9": 0
        },
        "tidyTrace": [
            {
                "children": [
                    {
                        "children": [
                            {
                                "children": [
                                    {
                                        "children": [],
                                        "depth": 2,
                                        "id": 5,
                                        "order": 5
                                    }
                                ],
                                "depth": 1,
                                "id": 4,
                                "order": 4
                            },
                            {
                                "children": [
                                    {
                                        "children": [],
                                        "depth": 2,
                                        "id": 7,
                                        "order": 7
                                    }
                                ],
                                "depth": 1,
                                "id": 6,
                                "order": 6
                            },
                            {
                                "children": [
                                    {
                                        "children": [],
                                        "depth": 2,
                                        "id": 10,
                                        "order": 10
                                    }
                                ],
                                "depth": 1,
                                "id": 9,
                                "order": 9
                            },
                            {
                                "children": [],
                                "depth": 1,
                                "id": 11,
                                "order": 11
                            }
                        ],
                        "depth": 0,
                        "id": 0,
                        "order": 0
                    }
                ],
                "depth": -1,
                "id": -1,
                "order": -1
            }
        ],
        "tidyTraceNodeCount": 8
    },
    "state_change": {
        "stateChanges": [
            {
                "address": "0x31eafefada2c68c6476b344bd7c9e8b4260879aa",
                "erc": "",
                "slots": [
                    {
                        "current": "0x000000000000000000000000000000000000000000000000000005d2d4f6164e",
                        "key": "0xf652222313e28459528d920b65115c16c04f3efc82aaedc97be59f3f377c0d5e",
                        "prev": "0x000000000000000000000000000000000000000000000000000005ca764b0d4c"
                    },
                    {
                        "current": "0x0000000000000000000000000000000000000000000000000000000000bace16",
                        "key": "0xf652222313e28459528d920b65115c16c04f3efc82aaedc97be59f3f377c0d5d",
                        "prev": "0x0000000000000000000000000000000000000000000000000000000000babe8e"
                    },
                    {
                        "current": "0x0000000000000000000000000000000000000000000000073a428f8773db541b",
                        "key": "0x48df53cd841d7fdc99ba19b9eeaa0cee1ed132c0b265c420421f952f9199ba5c",
                        "prev": "0x000000000000000000000000000000000000000000000006ef5ce37444873eaa"
                    }
                ],
                "storageVariables": [
                    {
                        "name": "poolInfo",
                        "type": "struct BigBang.PoolInfo[]",
                        "value": {
                            "elemType": "struct BigBang.PoolInfo",
                            "elems": [
                                {
                                    "index": 7,
                                    "value": {
                                        "fields": [
                                            {
                                                "name": "lastRewardBlock",
                                                "type": "uint256",
                                                "value": {
                                                    "current": "12242454",
                                                    "prev": "12238478",
                                                    "typeTag": 1
                                                }
                                            },
                                            {
                                                "name": "accRigelPerShare",
                                                "type": "uint256",
                                                "value": {
                                                    "current": "6403074168398",
                                                    "prev": "6367126162764",
                                                    "typeTag": 1
                                                }
                                            }
                                        ],
                                        "typeTag": 3
                                    }
                                }
                            ],
                            "typeTag": 2
                        }
                    },
                    {
                        "name": "userInfo",
                        "type": "mapping(uint256 => mapping(address => struct BigBang.UserInfo))",
                        "value": {
                            "pairs": [
                                {
                                    "key": "7",
                                    "value": {
                                        "pairs": [
                                            {
                                                "key": "0x519f7709577c94999e4c7cfacb539cacb9edb7b8",
                                                "value": {
                                                    "fields": [
                                                        {
                                                            "name": "rewardDebt",
                                                            "type": "uint256",
                                                            "value": {
                                                                "current": "133325284130556695579",
                                                                "prev": "127928375203684892330",
                                                                "typeTag": 1
                                                            }
                                                        }
                                                    ],
                                                    "typeTag": 3
                                                }
                                            }
                                        ],
                                        "typeTag": 4
                                    }
                                }
                            ],
                            "typeTag": 4
                        }
                    }
                ]
            },
            {
                "address": "0x4ca0654f4fc1025cf1a17b7459c20ac0479522ad",
                "erc": "ERC-20",
                "slots": [
                    {
                        "current": "0x00000000000000000000000000000000000000000000020c9f1a490ad45737c5",
                        "key": "0x0000000000000000000000000000000000000000000000000000000000000002",
                        "prev": "0x00000000000000000000000000000000000000000000020c91f65745de57cd5d"
                    },
                    {
                        "current": "0x00000000000000000000000000000000000000000000001afde58de21bde9cb4",
                        "key": "0x388286cf40f0560c2e2c78e4fc161c9db523175a3317aa13608d0a1b65e25efc",
                        "prev": "0x00000000000000000000000000000000000000000000001afd3d5b650f91d762"
                    },
                    {
                        "current": "0x000000000000000000000000000000000000000000000004a1bef937b2fd301f",
                        "key": "0xe3a0a23bc64e710c8a343e9c9cee53d8f2cf0d8159a8787ff1ebbdf28bb02c2f",
                        "prev": "0x000000000000000000000000000000000000000000000004e028e602f89ea07a"
                    },
                    {
                        "current": "0x0000000000000000000000000000000000000000000000015e12bd404797b32f",
                        "key": "0x310a4b55df5150e5179461145a53d4bba7bd10b12370eccedc8a8968a5051a74",
                        "prev": "0x000000000000000000000000000000000000000000000001132d112d18439dbe"
                    }
                ],
                "storageVariables": [
                    {
                        "name": "_totalSupply",
                        "type": "uint256",
                        "value": {
                            "current": "9677558450736091051973",
                            "prev": "9676611584561170074973",
                            "typeTag": 1
                        }
                    },
                    {
                        "name": "_balances",
                        "type": "mapping(address => uint256)",
                        "value": {
                            "pairs": [
                                {
                                    "key": "0x31eafefada2c68c6476b344bd7c9e8b4260879aa",
                                    "value": {
                                        "current": "85442003198141083679",
                                        "prev": "89939389258837958778",
                                        "typeTag": 1
                                    }
                                },
                                {
                                    "key": "0x5033be5366210a98cf5a1435b78acbfb5d361288",
                                    "value": {
                                        "current": "497910530979980549300",
                                        "prev": "497863187671234500450",
                                        "typeTag": 1
                                    }
                                },
                                {
                                    "key": "0x519f7709577c94999e4c7cfacb539cacb9edb7b8",
                                    "value": {
                                        "current": "25225432546632250159",
                                        "prev": "19828523619760446910",
                                        "typeTag": 1
                                    }
                                }
                            ],
                            "typeTag": 4
                        }
                    }
                ]
            }
        ]
    }
}