{
    "balance_change": {
        "balanceChanges": [
            {
                "account": "0x8b43935b8d47c46728db59464c09a7da53877504",
                "assets": [
                    {
                        "address": "0x5357f0ce55419568e711062e042af23ac31d7f01",
                        "amount": "50,000,000",
                        "iconUrl": "",
                        "isERC1155": false,
                        "isERC721": false,
                        "sign": true,
                        "value": ""
                    }
                ]
            },
            {
                "account": "0x5357f0ce55419568e711062e042af23ac31d7f01",
                "assets": [
                    {
                        "address": "0x5357f0ce55419568e711062e042af23ac31d7f01",
                        "amount": "50,000,000",
                        "iconUrl": "",
                        "isERC1155": false,
                        "isERC721": false,
                        "sign": false,
                        "value": ""
                    }
                ]
            }
        ]
    },
    "profile": {
        "basic_info": {
            "baseFee": "",
            "blockNumber": 8727889,
            "callData": "0x069f5bdd0000000000000000000000000000000000000000000000000000000000000000",
            "debugEnable": true,
            "errorInfo": "",
            "eventCount": 1,
            "feeRecipient": "0xea674fdde714fd979de3edf0f56aa9716b898ec8",
            "formatValue": "0",
            "gasLimit": 46555,
            "gasPrice": "1.2",
            "gasUsed": 41555,
            "intTxnCount": 0,
            "internalRevert": false,
            "internalRevertMessage": "",
            "isContractCreation": false,
            "isFlashloan": false,
            "maxFee": "",
            "nonce": 1735,
            "overwritedBlockNumber": -1,
            "priorityFee": "",
            "receiver": "0x5357f0ce55419568e711062e042af23ac31d7f01",
            "revertMessage": "",
            "sender": "0x8b43935b8d47c46728db59464c09a7da53877504",
            "simulationEnable": true,
            "sourceTxnHash": "0x0014b02eb4c1e0b1cb0800002b0fa3a88ef2d13f15a2868347877244be7ae8c5",
            "status": true,
            "timestamp": "2019-10-12T16:49:38Z",
            "transactionFee": "0.000049866",
            "txnHash": "0x0014b02eb4c1e0b1cb0800002b0fa3a88ef2d13f15a2868347877244be7ae8c5",
            "txnIndex": 77,
            "type": 0,
            "value": "0"
        },
        "fund_flow": [
            {
                "amount": "50,000,000",
                "from": "0x5357f0ce55419568e711062e042af23ac31d7f01",
                "id": 1,
                "isERC1155": false,
                "isERC721": false,
                "isReverted": false,
                "order": 1,
                "to": "0x8b43935b8d47c46728db59464c09a7da53877504",
                "token": "0x5357f0ce55419568e711062e042af23ac31d7f01"
            }
        ],
        "token_infos": [
            {
                "address": "0x5357f0ce55419568e711062e042af23ac31d7f01",
                "decimals": 6
            },
            {
                "address": "0xc02aaa39b223fe8d0a0e5c4f27ead9083c756cc2",
                "decimals": 18
            },
            {
                "address": "0xeeeeeeeeeeeeeeeeeeeeeeeeeeeeeeeeeeeeeeee",
                "decimals": 18
            }
        ]
    },
    "address_label": {
        "labels": [
            {
                "address": "0x0000000000000000000000000000000000000004",
                "label": "Precompiled"
            },
            {
                "address": "0xeeeeeeeeeeeeeeeeeeeeeeeeeeeeeeeeeeeeeeee",
                "label": "Ether"
            },
            {
                "address": "0x0000000000000000000000000000000000000000",
                "label": "Null Address"
            },
            {
                "address": "0x5357f0ce55419568e711062e042af23ac31d7f01",
                "label": "SDT"
            },
            {
                "address": "0x0000000000000000000000000000000000000001",
                "label": "Precompiled"
            },
            {
                "address": "0x0000000000000000000000000000000000000002",
                "label": "Precompiled"
            },
            {
                "address": "0x0000000000000000000000000000000000000003",
                "label": "Precompiled"
            }
        ]
    },
    "trace": {
        "accountLabels": null,
        "dataMap": {
            "-1": {
                "invocation": {
                    "address": "0x8b43935b8d47c46728db59464c09a7da53877504",
                    "callData": "",
                    "decodedMethod": null,
                    "errorInfo": "",
                    "fromAddress": "",
                    "gasUsed": 0,
                    "id": -1,
                    "methodDecoded": false,
                    "operation": "",
                    "output": "",
                    "revert": false,
                    "revertMessage": "",
                    "selector": "",
                    "status": false,
                    "value": ""
                },
                "nodeType": 0
            },
            "0": {
                "invocation": {
                    "address": "0x5357f0ce55419568e711062e042af23ac31d7f01",
                    "callData": "0x0000000000000000000000000000000000000000000000000000000000000000",
                    "decodedMethod": {
                        "callParams": [
                            {
                                "name": "_refer",
                                "type": "address",
                                "value": "0x0000000000000000000000000000000000000000"
                            }
                        ],
                        "constructorArguments": "",
                        "name": "getAirdrop",
                        "returnParams": [
                            {
                                "name": "success",
                                "type": "bool",
                                "value": true
                            }
                        ],
                        "signature": "getAirdrop(address)"
                    },
                    "errorInfo": "",
                    "fromAddress": "0x8b43935b8d47c46728db59464c09a7da53877504",
                    "gasUsed": 41555,
                    "id": 0,
                    "methodDecoded": true,
                    "operation": "CALL",
                    "output": "0x0000000000000000000000000000000000000000000000000000000000000001",
                    "revert": false,
                    "revertMessage": "",
                    "selector": "0x069f5bdd",
                    "status": true,
                    "value": "0"
                },
                "nodeType": 0
            },
            "1": {
                "event": {
                    "contract": "0x5357f0ce55419568e711062e042af23ac31d7f01",
                    "decodedLog": {
                        "name": "Transfer",
                        "params": [
                            {
                                "name": "from",
                                "type": "address",
                                "value": "0x5357f0ce55419568e711062e042af23ac31d7f01"
                            },
                            {
                                "name": "to",
                                "type": "address",
                                "value": "0x8b43935b8d47c46728db59464c09a7da53877504"
                            },
                            {
                                "decimalAvailable": true,
                                "name": "tokens",
                                "type": "uint256",
                                "value": "50,000,000,000,000"
                            }
                        ],
                        "signature": "Transfer(address,address,uint256)"
                    },
                    "id": 1,
                    "logData": "0x00000000000000000000000000000000000000000000000000002d79883d2000",
                    "logDecoded": true,
                    "operation": "EVENT",
                    "revert": false,
                    "status": true,
                    "topics": [
                        "0xddf252ad1be2c89b69c2b068fc378daa952ba7f163c4a11628f55a4df523b3ef",
                        "0x0000000000000000000000005357f0ce55419568e711062e042af23ac31d7f01",
                        "0x0000000000000000000000008b43935b8d47c46728db59464c09a7da53877504"
                    ]
                },
                "nodeType": 1
            }
        },
        "gasFlame": [
            {
                "children": [
                    {
                        "children": [
                            {
                                "children": [],
                                "depth": 0,
                                "name": "Initial Gas",
                                "value": 21400
                            },
                            {
                                "children": [],
                                "depth": 0,
                                "name": "Executed Gas",
                                "value": 20155
                            }
                        ],
                        "depth": -1,
                        "name": "Actual Gas Used",
                        "value": 41555
                    },
                    {
                        "children": [],
                        "depth": -1,
                        "name": "Refunded Gas",
                        "value": 0
                    }
                ],
                "depth": -2,
                "name": "Total Gas",
                "value": 41555
            }
        ],
        "isConfirmed": true,
        "mainTrace": [
            {
                "children": [
                    {
                        "children": [
                            {
                                "children": [],
                                "depth": 1,
                                "id": 1,
                                "order": 1
                            }
                        ],
                        "depth": 0,
                        "id": 0,
                        "order": 0
                    }
                ],
                "depth": -1,
                "id": -1,
                "order": -1
            }
        ],
        "mainTraceNodeCount": 2,
        "parentIdMap": {
            "0": -1,
            "1": 0
        },
        "tidyTrace": [
            {
                "children": [
                    {
                        "children": [
                            {
                                "children": [],
                                "depth": 1,
                                "id": 1,
                                "order": 1
                            }
                        ],
                        "depth": 0,
                        "id": 0,
                        "order": 0
                    }
                ],
                "depth": -1,
                "id": -1,
                "order": -1
            }
        ],
        "tidyTraceNodeCount": 2
    },
    "state_change": {
        "stateChanges": [
            {
                "address": "0x5357f0ce55419568e711062e042af23ac31d7f01",
                "erc": "ERC-20",
                "slots": [
                    {
                        "current": "0x0000000000000000000000000000000000000000000000000000000000000fa2",
                        "key": "0x000000000000000000000000000000000000000000000000000000000000000b",
                        "prev": "0x0000000000000000000000000000000000000000000000000000000000000fa1"
                    },
                    {
                        "current": "0x000000000000000000000000000000000000000000c9f2c97784b3f8389f8000",
                        "key": "0xb44717f696368e1c1d40445066c8c700900d6fd4ea11edc91930f870cb900555",
                        "prev": "0x000000000000000000000000000000000000000000c9f2c97784e171c0dca000"
                    },
                    {
                        "current": "0x0000000000000000000000000000000000000000000000000133aa3dbd8c8000",
                        "key": "0x416ee51aaec06cc2a06e26c02648b274d2bb1423d421a5593a17b7fe85f26df2",
                        "prev": "0x00000000000000000000000000000000000000000000000001337cc4354f6000"
                    }
                ],
                "storageVariables": [
                    {
                        "name": "balances",
                        "type": "mapping(address => uint256)",
                        "value": {
                            "pairs": [
                                {
                                    "key": "0x5357f0ce55419568e711062e042af23ac31d7f01",
                                    "value": {
                                        "current": "244140618839160000000000000",
                                        "prev": "244140618839210000000000000",
                                        "typeTag": 1
                                    }
                                },
                                {
                                    "key": "0x8b43935b8d47c46728db59464c09a7da53877504",
                                    "value": {
                                        "current": "86600000000000000",
                                        "prev": "86550000000000000",
                                        "typeTag": 1
                                    }
                                }
                            ],
                            "typeTag": 4
                        }
                    },
                    {
                        "name": "aTot",
                        "type": "uint256",
                        "value": {
                            "current": "4002",
                            "prev": "4001",
                            "typeTag": 1
                        }
                    }
                ]
            }
        ]
    }
}