{
    "balance_change": {
        "balanceChanges": [
            {
                "account": "0x0f6b70ed910bcb34be324d6fc9ec0f988eea8c3a",
                "assets": [
                    {
                        "address": "0x85c6e78e3fbfc7a980cb5172c5ce7704b24af610",
                        "amount": "5,987,353.940810564384105428",
                        "iconUrl": "",
                        "isERC1155": false,
                        "isERC721": false,
                        "sign": false,
                        "value": "1484.562685"
                    }
                ]
            },
            {
                "account": "0x2107231773054ba3b619ff528eb7f6e0ad133dfa",
                "assets": [
                    {
                        "address": "0x85c6e78e3fbfc7a980cb5172c5ce7704b24af610",
                        "amount": "5,987,353.940810564384105428",
                        "iconUrl": "",
                        "isERC1155": false,
                        "isERC721": false,
                        "sign": true,
                        "value": "1484.562685"
                    }
                ]
            }
        ]
    },
    "profile": {
        "basic_info": {
            "baseFee": "13.979069135",
            "blockNumber": 17518408,
            "callData": "0xa9059cbb0000000000000000000000002107231773054ba3b619ff528eb7f6e0ad133dfa00000000000000000000000000000000000000000004f3df1b8556788bd0a3d4",
            "debugEnable": true,
            "errorInfo": "",
            "eventCount": 1,
            "feeRecipient": "0x388c818ca8b9251b393131c08a736a67ccb19297",
            "formatValue": "0",
            "gasLimit": 67443,
            "gasPrice": "14.079069135",
            "gasUsed": 35246,
            "intTxnCount": 1,
            "internalRevert": false,
            "internalRevertMessage": "",
            "isContractCreation": false,
            "isFlashloan": false,
            "maxFee": "19.674418141",
            "nonce": 216,
            "overwritedBlockNumber": -1,
            "priorityFee": "0.1",
            "receiver": "0x85c6e78e3fbfc7a980cb5172c5ce7704b24af610",
            "revertMessage": "",
            "sender": "0x0f6b70ed910bcb34be324d6fc9ec0f988eea8c3a",
            "simulationEnable": true,
            "sourceTxnHash": "0x003eccf62926fabe5c43c087054ca607558115774e729fde9da38accff404ad4",
            "status": true,
            "timestamp": "2023-06-20T04:02:59Z",
            "transactionFee": "0.00049623087073221",
            "txnHash": "0x003eccf62926fabe5c43c087054ca607558115774e729fde9da38accff404ad4",
            "txnIndex": 115,
            "type": 2,
            "value": "0"
        },
        "fund_flow": [
            {
                "amount": "5,987,353.940810564384105428",
                "from": "0x0f6b70ed910bcb34be324d6fc9ec0f988eea8c3a",
                "id": 1,
                "isERC1155": false,
                "isERC721": false,
                "isReverted": false,
                "order": 1,
                "to": "0x2107231773054ba3b619ff528eb7f6e0ad133dfa",
                "token": "0x85c6e78e3fbfc7a980cb5172c5ce7704b24af610"
            }
        ],
        "token_infos": [
            {
                "address": "0x85c6e78e3fbfc7a980cb5172c5ce7704b24af610",
                "decimals": 18
            },
            {
                "address": "0xc02aaa39b223fe8d0a0e5c4f27ead9083c756cc2",
                "decimals": 18
            },
            {
                "address": "0xeeeeeeeeeeeeeeeeeeeeeeeeeeeeeeeeeeeeeeee",
                "decimals": 18
            }
        ]
    },
    "address_label": {
        "labels": [
            {
                "address": "0x0000000000000000000000000000000000000003",
                "label": "Precompiled"
            },
            {
                "address": "0x0000000000000000000000000000000000000004",
                "label": "Precompiled"
            },
            {
                "address": "0xeeeeeeeeeeeeeeeeeeeeeeeeeeeeeeeeeeeeeeee",
                "label": "Ether"
            },
            {
                "address": "0x85c6e78e3fbfc7a980cb5172c5ce7704b24af610",
                "label": "ROBO PEPE (ROBOPEPE)"
            },
            {
                "address": "0x388c818ca8b9251b393131c08a736a67ccb19297",
                "label": "LidoExecutionLayerRewardsVault"
            },
            {
                "address": "0x0000000000000000000000000000000000000001",
                "label": "Precompiled"
            },
            {
                "address": "0x0000000000000000000000000000000000000002",
                "label": "Precompiled"
            }
        ]
    },
    "trace": {
        "accountLabels": null,
        "dataMap": {
            "-1": {
                "invocation": {
                    "address": "0x0f6b70ed910bcb34be324d6fc9ec0f988eea8c3a",
                    "callData": "",
                    "decodedMethod": null,
                    "errorInfo": "",
                    "fromAddress": "",
                    "gasUsed": 0,
                    "id": -1,
                    "methodDecoded": false,
                    "operation": "",
                    "output": "",
                    "revert": false,
                    "revertMessage": "",
                    "selector": "",
                    "status": false,
                    "value": ""
                },
                "nodeType": 0
            },
            "0": {
                "invocation": {
                    "address": "0x85c6e78e3fbfc7a980cb5172c5ce7704b24af610",
                    "callData": "0x0000000000000000000000002107231773054ba3b619ff528eb7f6e0ad133dfa00000000000000000000000000000000000000000004f3df1b8556788bd0a3d4",
                    "decodedMethod": {
                        "callParams": [
                            {
                                "name": "recipient",
                                "type": "address",
                                "value": "0x2107231773054ba3b619ff528eb7f6e0ad133dfa"
                            },
                            {
                                "decimalAvailable": true,
                                "name": "amount",
                                "type": "uint256",
                                "value": "5,987,353,940,810,564,384,105,428"
                            }
                        ],
                        "constructorArguments": "",
                        "name": "transfer",
                        "returnParams": [
                            {
                                "name": "",
                                "type": "bool",
                                "value": true
                            }
                        ],
                        "signature": "transfer(address,uint256)"
                    },
                    "errorInfo": "",
                    "fromAddress": "0x0f6b70ed910bcb34be324d6fc9ec0f988eea8c3a",
                    "gasUsed": 35246,
                    "id": 0,
                    "methodDecoded": true,
                    "operation": "CALL",
                    "output": "0x0000000000000000000000000000000000000000000000000000000000000001",
                    "revert": false,
                    "revertMessage": "",
                    "selector": "0xa9059cbb",
                    "status": true,
                    "value": "0"
                },
                "nodeType": 0
            },
            "1": {
                "invocation": {
                    "address": "0x85c6e78e3fbfc7a980cb5172c5ce7704b24af610",
                    "callData": "0x0000000000000000000000000f6b70ed910bcb34be324d6fc9ec0f988eea8c3a",
                    "decodedMethod": {
                        "callParams": [
                            {
                                "name": "account",
                                "type": "address",
                                "value": "0x0f6b70ed910bcb34be324d6fc9ec0f988eea8c3a"
                            }
                        ],
                        "constructorArguments": "",
                        "name": "balanceOf",
                        "returnParams": [
                            {
                                "decimalAvailable": true,
                                "name": "",
                                "type": "uint256",
                                "value": "5,987,353,940,810,564,384,105,428"
                            }
                        ],
                        "signature": "balanceOf(address)"
                    },
                    "errorInfo": "",
                    "fromAddress": "0x85c6e78e3fbfc7a980cb5172c5ce7704b24af610",
                    "gasUsed": 2582,
                    "id": 1,
                    "methodDecoded": true,
                    "operation": "STATICCALL",
                    "output": "0x00000000000000000000000000000000000000000004f3df1b8556788bd0a3d4",
                    "revert": false,
                    "revertMessage": "",
                    "selector": "0x70a08231",
                    "status": true,
                    "value": "0"
                },
                "nodeType": 0
            },
            "2": {
                "event": {
                    "contract": "0x85c6e78e3fbfc7a980cb5172c5ce7704b24af610",
                    "decodedLog": {
                        "name": "Transfer",
                        "params": [
                            {
                                "name": "from",
                                "type": "address",
                                "value": "0x0f6b70ed910bcb34be324d6fc9ec0f988eea8c3a"
                            },
                            {
                                "name": "to",
                                "type": "address",
                                "value": "0x2107231773054ba3b619ff528eb7f6e0ad133dfa"
                            },
                            {
                                "decimalAvailable": true,
                                "name": "value",
                                "type": "uint256",
                                "value": "5,987,353,940,810,564,384,105,428"
                            }
                        ],
                        "signature": "Transfer(address,address,uint256)"
                    },
                    "id": 2,
                    "logData": "0x00000000000000000000000000000000000000000004f3df1b8556788bd0a3d4",
                    "logDecoded": true,
                    "operation": "EVENT",
                    "revert": false,
                    "status": true,
                    "topics": [
                        "0xddf252ad1be2c89b69c2b068fc378daa952ba7f163c4a11628f55a4df523b3ef",
                        "0x0000000000000000000000000f6b70ed910bcb34be324d6fc9ec0f988eea8c3a",
                        "0x0000000000000000000000002107231773054ba3b619ff528eb7f6e0ad133dfa"
                    ]
                },
                "nodeType": 1
            }
        },
        "gasFlame": [
            {
                "children": [
                    {
                        "children": [
                            {
                                "children": [],
                                "depth": 0,
                                "name": "Initial Gas",
                                "value": 21692
                            },
                            {
                                "children": [
                                    {
                                        "children": [],
                                        "depth": 1,
                                        "name": "balanceOf",
                                        "value": 2582
                                    }
                                ],
                                "depth": 0,
                                "name": "Executed Gas",
                                "value": 21154
                            }
                        ],
                        "depth": -1,
                        "name": "Actual Gas Used",
                        "value": 35246
                    },
                    {
                        "children": [],
                        "depth": -1,
                        "name": "Refunded Gas",
                        "value": 7600
                    }
                ],
                "depth": -2,
                "name": "Total Gas",
                "value": 42846
            }
        ],
        "isConfirmed": true,
        "mainTrace": [
            {
                "children": [
                    {
                        "children": [
                            {
                                "children": [],
                                "depth": 1,
                                "id": 1,
                                "order": 1
                            },
                            {
                                "children": [],
                                "depth": 1,
                                "id": 2,
                                "order": 2
                            }
                        ],
                        "depth": 0,
                        "id": 0,
                        "order": 0
                    }
                ],
                "depth": -1,
                "id": -1,
                "order": -1
            }
        ],
        "mainTraceNodeCount": 3,
        "parentIdMap": {
            "0": -1,
            "1": 0,
            "2": 0
        },
        "tidyTrace": [
            {
                "children": [
                    {
                        "children": [
                            {
                                "children": [],
                                "depth": 1,
                                "id": 2,
                                "order": 2
                            }
                        ],
                        "depth": 0,
                        "id": 0,
                        "order": 0
                    }
                ],
                "depth": -1,
                "id": -1,
                "order": -1
            }
        ],
        "tidyTraceNodeCount": 2
    },
    "state_change": {
        "stateChanges": [
            {
                "address": "0x85c6e78e3fbfc7a980cb5172c5ce7704b24af610",
                "erc": "ERC-20",
                "slots": [
                    {
                        "current": "0x0000000000000000000000000000000000000000000000000000000000000000",
                        "key": "0x0d6441f08a1357082d56b73c7e95d8ea831ba66b417dc28caa7005aa7011bb5f",
                        "prev": "0x00000000000000000000000000000000000000000004f3df1b8556788bd0a3d4"
                    },
                    {
                        "current": "0x00000000000000000000000000000000000000000007fdce967d17276539ac14",
                        "key": "0x14a5fe98f3b85e210f472d7d1dc8ec73beb0d8e05b28dd0433694c3e746d971d",
                        "prev": "0x0000000000000000000000000000000000000000000309ef7af7c0aed9690840"
                    }
                ],
                "storageVariables": [
                    {
                        "name": "_balances",
                        "type": "mapping(address => uint256)",
                        "value": {
                            "pairs": [
                                {
                                    "key": "0x0f6b70ed910bcb34be324d6fc9ec0f988eea8c3a",
                                    "value": {
                                        "current": "0",
                                        "prev": "5987353940810564384105428",
                                        "typeTag": 1
                                    }
                                },
                                {
                                    "key": "0x2107231773054ba3b619ff528eb7f6e0ad133dfa",
                                    "value": {
                                        "current": "9661050330596544377105428",
                                        "prev": "3673696389785979993000000",
                                        "typeTag": 1
                                    }
                                }
                            ],
                            "typeTag": 4
                        }
                    }
                ]
            }
        ]
    }
}