{
    "balance_change": {
        "balanceChanges": [
            {
                "account": "0xd4f5bf184bebfd53ac276ec6e091d051d0ed459e",
                "assets": [
                    {
                        "address": "0xeeeeeeeeeeeeeeeeeeeeeeeeeeeeeeeeeeeeeeee",
                        "amount": "0.05",
                        "iconUrl": "https://assets.blocksec.com/image/1663669189317-3.png",
                        "isERC1155": false,
                        "isERC721": false,
                        "sign": false,
                        "value": "19.47"
                    }
                ]
            },
            {
                "account": "0x55c55324dfe684b78aa82f039b0428f7a48a762c",
                "assets": [
                    {
                        "address": "0xeeeeeeeeeeeeeeeeeeeeeeeeeeeeeeeeeeeeeeee",
                        "amount": "0.05",
                        "iconUrl": "https://assets.blocksec.com/image/1663669189317-3.png",
                        "isERC1155": false,
                        "isERC721": false,
                        "sign": true,
                        "value": "19.47"
                    }
                ]
            }
        ]
    },
    "profile": {
        "basic_info": {
            "baseFee": "",
            "blockNumber": 10798941,
            "callData": "0x3912521500000000000000000000000055c55324dfe684b78aa82f039b0428f7a48a762c00000000000000000000000000000000000000000000000000b1a2bc2ec5000000000000000000000000000000000000000000000000000000000000000000c0000000000000000000000000000000000000000000000000000000005f5c3e96000000000000000000000000000000000000000000000000000000000006ac9100000000000000000000000000000000000000000000000000000000000000e000000000000000000000000000000000000000000000000000000000000000000000000000000000000000000000000000000000000000000000000000000041d0a32804e487238672c2f1970b17ddf2e933f00f9454e6836979b744753bd64f1651628e61f16e44af24dce26339d10189807a11dda0f31d45a8b6ba137b2d4f1b00000000000000000000000000000000000000000000000000000000000000",
            "debugEnable": true,
            "errorInfo": "",
            "eventCount": 1,
            "feeRecipient": "0x5a0b54d5dc17e0aadc383d2db43b0a0d3e029c4c",
            "formatValue": "0",
            "gasLimit": 150000,
            "gasPrice": "136.5",
            "gasUsed": 94399,
            "intTxnCount": 3,
            "internalRevert": false,
            "internalRevertMessage": "",
            "isContractCreation": false,
            "isFlashloan": false,
            "maxFee": "",
            "nonce": 425053,
            "overwritedBlockNumber": -1,
            "priorityFee": "",
            "receiver": "0xd4f5bf184bebfd53ac276ec6e091d051d0ed459e",
            "revertMessage": "",
            "sender": "0x824ada524ad4dd041036160f352a6f38411edf0b",
            "simulationEnable": true,
            "sourceTxnHash": "0x00920c70105e9ede2f3bf20e8318d452fa34454f04b6f737bd8b0784a737217d",
            "status": true,
            "timestamp": "2020-09-05T03:23:38Z",
            "transactionFee": "0.0128854635",
            "txnHash": "0x00920c70105e9ede2f3bf20e8318d452fa34454f04b6f737bd8b0784a737217d",
            "txnIndex": 111,
            "type": 0,
            "value": "0"
        },
        "fund_flow": [
            {
                "amount": "0.05",
                "from": "0xd4f5bf184bebfd53ac276ec6e091d051d0ed459e",
                "id": 1,
                "isERC1155": false,
                "isERC721": false,
                "isReverted": false,
                "order": 1,
                "to": "0x55c55324dfe684b78aa82f039b0428f7a48a762c",
                "token": "0xeeeeeeeeeeeeeeeeeeeeeeeeeeeeeeeeeeeeeeee"
            }
        ],
        "token_infos": [
            {
                "address": "0xc02aaa39b223fe8d0a0e5c4f27ead9083c756cc2",
                "decimals": 18
            },
            {
                "address": "0xeeeeeeeeeeeeeeeeeeeeeeeeeeeeeeeeeeeeeeee",
                "decimals": 18
            }
        ]
    },
    "address_label": {
        "labels": [
            {
                "address": "0x0000000000000000000000000000000000000004",
                "label": "Precompiled"
            },
            {
                "address": "0xeeeeeeeeeeeeeeeeeeeeeeeeeeeeeeeeeeeeeeee",
                "label": "Ether"
            },
            {
                "address": "0x5b9e8728e316bbeb692d22daaab74f6cbf2c4691",
                "label": "WalletSimple"
            },
            {
                "address": "0x0000000000000000000000000000000000000001",
                "label": "Precompiled"
            },
            {
                "address": "0x0000000000000000000000000000000000000002",
                "label": "Precompiled"
            },
            {
                "address": "0x0000000000000000000000000000000000000003",
                "label": "Precompiled"
            }
        ]
    },
    "trace": {
        "accountLabels": null,
        "dataMap": {
            "-1": {
                "invocation": {
                    "address": "0x824ada524ad4dd041036160f352a6f38411edf0b",
                    "callData": "",
                    "decodedMethod": null,
                    "errorInfo": "",
                    "fromAddress": "",
                    "gasUsed": 0,
                    "id": -1,
                    "methodDecoded": false,
                    "operation": "",
                    "output": "",
                    "revert": false,
                    "revertMessage": "",
                    "selector": "",
                    "status": false,
                    "value": ""
                },
                "nodeType": 0
            },
            "0": {
                "invocation": {
                    "address": "0xd4f5bf184bebfd53ac276ec6e091d051d0ed459e",
                    "callData": "0x00000000000000000000000055c55324dfe684b78aa82f039b0428f7a48a762c00000000000000000000000000000000000000000000000000b1a2bc2ec5000000000000000000000000000000000000000000000000000000000000000000c0000000000000000000000000000000000000000000000000000000005f5c3e96000000000000000000000000000000000000000000000000000000000006ac9100000000000000000000000000000000000000000000000000000000000000e000000000000000000000000000000000000000000000000000000000000000000000000000000000000000000000000000000000000000000000000000000041d0a32804e487238672c2f1970b17ddf2e933f00f9454e6836979b744753bd64f1651628e61f16e44af24dce26339d10189807a11dda0f31d45a8b6ba137b2d4f1b00000000000000000000000000000000000000000000000000000000000000",
                    "decodedMethod": {
                        "callParams": [
                            {
                                "name": "toAddress",
                                "type": "address",
                                "value": "0x55c55324dfe684b78aa82f039b0428f7a48a762c"
                            },
                            {
                                "name": "value",
                                "type": "uint256",
                                "value": "50,000,000,000,000,000"
                            },
                            {
                                "name": "data",
                                "type": "bytes",
                                "value": "0x"
                            },
                            {
                                "name": "expireTime",
                                "type": "uint256",
                                "value": "1,599,880,854"
                            },
                            {
                                "name": "sequenceId",
                                "type": "uint256",
                                "value": "437,393"
                            },
                            {
                                "name": "signature",
                                "type": "bytes",
                                "value": "0xd0a32804e487238672c2f1970b17ddf2e933f00f9454e6836979b744753bd64f1651628e61f16e44af24dce26339d10189807a11dda0f31d45a8b6ba137b2d4f1b"
                            }
                        ],
                        "constructorArguments": "",
                        "name": "sendMultiSig",
                        "returnParams": [],
                        "signature": "sendMultiSig(address,uint256,bytes,uint256,uint256,bytes)"
                    },
                    "errorInfo": "",
                    "fromAddress": "0x824ada524ad4dd041036160f352a6f38411edf0b",
                    "gasUsed": 94399,
                    "id": 0,
                    "methodDecoded": true,
                    "operation": "CALL",
                    "output": "0x3912521500000000000000000000000055c55324dfe684b78aa82f039b0428f7",
                    "revert": false,
                    "revertMessage": "",
                    "selector": "0x39125215",
                    "status": true,
                    "value": "0"
                },
                "nodeType": 0
            },
            "1": {
                "invocation": {
                    "address": "0x5b9e8728e316bbeb692d22daaab74f6cbf2c4691",
                    "callData": "0x00000000000000000000000055c55324dfe684b78aa82f039b0428f7a48a762c00000000000000000000000000000000000000000000000000b1a2bc2ec5000000000000000000000000000000000000000000000000000000000000000000c0000000000000000000000000000000000000000000000000000000005f5c3e96000000000000000000000000000000000000000000000000000000000006ac9100000000000000000000000000000000000000000000000000000000000000e000000000000000000000000000000000000000000000000000000000000000000000000000000000000000000000000000000000000000000000000000000041d0a32804e487238672c2f1970b17ddf2e933f00f9454e6836979b744753bd64f1651628e61f16e44af24dce26339d10189807a11dda0f31d45a8b6ba137b2d4f1b00000000000000000000000000000000000000000000000000000000000000",
                    "decodedMethod": {
                        "callParams": [
                            {
                                "name": "toAddress",
                                "type": "address",
                                "value": "0x55c55324dfe684b78aa82f039b0428f7a48a762c"
                            },
                            {
                                "name": "value",
                                "type": "uint256",
                                "value": "50,000,000,000,000,000"
                            },
                            {
                                "name": "data",
                                "type": "bytes",
                                "value": "0x"
                            },
                            {
                                "name": "expireTime",
                                "type": "uint256",
                                "value": "1,599,880,854"
                            },
                            {
                                "name": "sequenceId",
                                "type": "uint256",
                                "value": "437,393"
                            },
                            {
                                "name": "signature",
                                "type": "bytes",
                                "value": "0xd0a32804e487238672c2f1970b17ddf2e933f00f9454e6836979b744753bd64f1651628e61f16e44af24dce26339d10189807a11dda0f31d45a8b6ba137b2d4f1b"
                            }
                        ],
                        "constructorArguments": "",
                        "name": "sendMultiSig",
                        "returnParams": [],
                        "signature": "sendMultiSig(address,uint256,bytes,uint256,uint256,bytes)"
                    },
                    "errorInfo": "",
                    "fromAddress": "0xd4f5bf184bebfd53ac276ec6e091d051d0ed459e",
                    "gasUsed": 69896,
                    "id": 1,
                    "methodDecoded": true,
                    "operation": "DELEGATECALL",
                    "output": "",
                    "revert": false,
                    "revertMessage": "",
                    "selector": "0x39125215",
                    "status": true,
                    "value": "0"
                },
                "nodeType": 0
            },
            "2": {
                "invocation": {
                    "address": "0x0000000000000000000000000000000000000001",
                    "callData": "0x47c4cb682c1f183477fbe10404727139b9b98f2d074a95a5f88a4d2a000000000000000000000000000000000000000000000000000000000000001bd0a32804e487238672c2f1970b17ddf2e933f00f9454e6836979b744753bd64f1651628e61f16e44af24dce26339d10189807a11dda0f31d45a8b6ba137b2d4f",
                    "decodedMethod": {
                        "callParams": [
                            {
                                "name": "hash",
                                "type": "bytes32",
                                "value": "0xa92ebd4147c4cb682c1f183477fbe10404727139b9b98f2d074a95a5f88a4d2a"
                            },
                            {
                                "name": "v",
                                "type": "uint256",
                                "value": "27"
                            },
                            {
                                "name": "r",
                                "type": "bytes32",
                                "value": "0xd0a32804e487238672c2f1970b17ddf2e933f00f9454e6836979b744753bd64f"
                            },
                            {
                                "name": "s",
                                "type": "bytes32",
                                "value": "0x1651628e61f16e44af24dce26339d10189807a11dda0f31d45a8b6ba137b2d4f"
                            }
                        ],
                        "constructorArguments": "",
                        "name": "ecrecover",
                        "returnParams": [
                            {
                                "name": "",
                                "type": "address",
                                "value": "0x174ade6643efa0f1b05d8671bb554c3f86ac4ffa"
                            }
                        ],
                        "signature": "ecrecover(bytes32,uint256,bytes32,bytes32)"
                    },
                    "errorInfo": "",
                    "fromAddress": "0xd4f5bf184bebfd53ac276ec6e091d051d0ed459e",
                    "gasUsed": 3000,
                    "id": 2,
                    "methodDecoded": true,
                    "operation": "CALL",
                    "output": "0x000000000000000000000000174ade6643efa0f1b05d8671bb554c3f86ac4ffa",
                    "revert": false,
                    "revertMessage": "",
                    "selector": "0xa92ebd41",
                    "status": true,
                    "value": "0"
                },
                "nodeType": 0
            },
            "3": {
                "invocation": {
                    "address": "0x55c55324dfe684b78aa82f039b0428f7a48a762c",
                    "callData": "0x",
                    "decodedMethod": null,
                    "errorInfo": "",
                    "fromAddress": "0xd4f5bf184bebfd53ac276ec6e091d051d0ed459e",
                    "gasUsed": 0,
                    "id": 3,
                    "methodDecoded": false,
                    "operation": "CALL",
                    "output": "",
                    "revert": false,
                    "revertMessage": "",
                    "selector": "fallback",
                    "status": true,
                    "value": "0.05"
                },
                "nodeType": 0
            },
            "4": {
                "event": {
                    "contract": "0xd4f5bf184bebfd53ac276ec6e091d051d0ed459e",
                    "decodedLog": {
                        "name": "Transacted",
                        "params": [
                            {
                                "name": "msgSender",
                                "type": "address",
                                "value": "0x824ada524ad4dd041036160f352a6f38411edf0b"
                            },
                            {
                                "name": "otherSigner",
                                "type": "address",
                                "value": "0x174ade6643efa0f1b05d8671bb554c3f86ac4ffa"
                            },
                            {
                                "name": "operation",
                                "type": "bytes32",
                                "value": "0xa92ebd4147c4cb682c1f183477fbe10404727139b9b98f2d074a95a5f88a4d2a"
                            },
                            {
                                "name": "toAddress",
                                "type": "address",
                                "value": "0x55c55324dfe684b78aa82f039b0428f7a48a762c"
                            },
                            {
                                "name": "value",
                                "type": "uint256",
                                "value": "50,000,000,000,000,000"
                            },
                            {
                                "name": "data",
                                "type": "bytes",
                                "value": "0x"
                            }
                        ],
                        "signature": "Transacted(address,address,bytes32,address,uint256,bytes)"
                    },
                    "id": 4,
                    "logData": "0x000000000000000000000000824ada524ad4dd041036160f352a6f38411edf0b000000000000000000000000174ade6643efa0f1b05d8671bb554c3f86ac4ffaa92ebd4147c4cb682c1f183477fbe10404727139b9b98f2d074a95a5f88a4d2a00000000000000000000000055c55324dfe684b78aa82f039b0428f7a48a762c00000000000000000000000000000000000000000000000000b1a2bc2ec5000000000000000000000000000000000000000000000000000000000000000000c00000000000000000000000000000000000000000000000000000000000000000",
                    "logDecoded": true,
                    "operation": "EVENT",
                    "revert": false,
                    "status": true,
                    "topics": [
                        "0x59bed9ab5d78073465dd642a9e3e76dfdb7d53bcae9d09df7d0b8f5234d5a806"
                    ]
                },
                "nodeType": 1
            }
        },
        "gasFlame": [
            {
                "children": [
                    {
                        "children": [
                            {
                                "children": [],
                                "depth": 0,
                                "name": "Initial Gas",
                                "value": 23672
                            },
                            {
                                "children": [
                                    {
                                        "children": [
                                            {
                                                "children": [],
                                                "depth": 2,
                                                "name": "ecrecover",
                                                "value": 3000
                                            },
                                            {
                                                "children": [],
                                                "depth": 2,
                                                "name": "fallback",
                                                "value": 0
                                            }
                                        ],
                                        "depth": 1,
                                        "name": "sendMultiSig",
                                        "value": 69896
                                    }
                                ],
                                "depth": 0,
                                "name": "Executed Gas",
                                "value": 70727
                            }
                        ],
                        "depth": -1,
                        "name": "Actual Gas Used",
                        "value": 94399
                    },
                    {
                        "children": [],
                        "depth": -1,
                        "name": "Refunded Gas",
                        "value": 0
                    }
                ],
                "depth": -2,
                "name": "Total Gas",
                "value": 94399
            }
        ],
        "isConfirmed": true,
        "mainTrace": [
            {
                "children": [
                    {
                        "children": [
                            {
                                "children": [
                                    {
                                        "children": [],
                                        "depth": 2,
                                        "id": 2,
                                        "order": 2
                                    },
                                    {
                                        "children": [],
                                        "depth": 2,
                                        "id": 3,
                                        "order": 3
                                    },
                                    {
                                        "children": [],
                                        "depth": 2,
                                        "id": 4,
                                        "order": 4
                                    }
                                ],
                                "depth": 1,
                                "id": 1,
                                "order": 1
                            }
                        ],
                        "depth": 0,
                        "id": 0,
                        "order": 0
                    }
                ],
                "depth": -1,
                "id": -1,
                "order": -1
            }
        ],
        "mainTraceNodeCount": 5,
        "parentIdMap": {
            "0": -1,
            "1": 0,
            "2": 1,
            "3": 1,
            "4": 1
        },
        "tidyTrace": [
            {
                "children": [
                    {
                        "children": [
                            {
                                "children": [
                                    {
                                        "children": [],
                                        "depth": 2,
                                        "id": 2,
                                        "order": 2
                                    },
                                    {
                                        "children": [],
                                        "depth": 2,
                                        "id": 3,
                                        "order": 3
                                    },
                                    {
                                        "children": [],
                                        "depth": 2,
                                        "id": 4,
                                        "order": 4
                                    }
                                ],
                                "depth": 1,
                                "id": 1,
                                "order": 1
                            }
                        ],
                        "depth": 0,
                        "id": 0,
                        "order": 0
                    }
                ],
                "depth": -1,
                "id": -1,
                "order": -1
            }
        ],
        "tidyTraceNodeCount": 5
    },
    "state_change": {
        "stateChanges": [
            {
                "address": "0xd4f5bf184bebfd53ac276ec6e091d051d0ed459e",
                "erc": "",
                "slots": [
                    {
                        "current": "0x000000000000000000000000000000000000000000000000000000000006ac91",
                        "key": "0x0000000000000000000000000000000000000000000000000000000000000007",
                        "prev": "0x000000000000000000000000000000000000000000000000000000000006ac87"
                    }
                ],
                "storageVariables": []
            }
        ]
    }
}