{
    "balance_change": {
        "balanceChanges": [
            {
                "account": "0xc6bd3edd07e294cb66b8318356d688b3516ea950",
                "assets": [
                    {
                        "address": "0x2ab05b915c30093679165bcdba9c26d8cd8bee99",
                        "amount": "143.7679578",
                        "iconUrl": "",
                        "isERC1155": false,
                        "isERC721": false,
                        "sign": false,
                        "value": ""
                    }
                ]
            },
            {
                "account": "0x7b359d0e50b0febc9048b36fdadf4f475f562e39",
                "assets": [
                    {
                        "address": "0x2ab05b915c30093679165bcdba9c26d8cd8bee99",
                        "amount": "143.7679578",
                        "iconUrl": "",
                        "isERC1155": false,
                        "isERC721": false,
                        "sign": true,
                        "value": ""
                    }
                ]
            }
        ]
    },
    "profile": {
        "basic_info": {
            "baseFee": "",
            "blockNumber": 9529981,
            "callData": "0xa9059cbb0000000000000000000000007b359d0e50b0febc9048b36fdadf4f475f562e39000000000000000000000000000000000000000000000007cb2e63e760599000",
            "debugEnable": true,
            "errorInfo": "",
            "eventCount": 1,
            "feeRecipient": "0x04668ec2f57cc15c381b461b9fedab5d451c8f7f",
            "formatValue": "0",
            "gasLimit": 200000,
            "gasPrice": "18",
            "gasUsed": 55501,
            "intTxnCount": 0,
            "internalRevert": false,
            "internalRevertMessage": "",
            "isContractCreation": false,
            "isFlashloan": false,
            "maxFee": "",
            "nonce": 203376,
            "overwritedBlockNumber": -1,
            "priorityFee": "",
            "receiver": "0x2ab05b915c30093679165bcdba9c26d8cd8bee99",
            "revertMessage": "",
            "sender": "0xc6bd3edd07e294cb66b8318356d688b3516ea950",
            "simulationEnable": true,
            "sourceTxnHash": "0x01f76ce9078ee64123e96dd34816962854a2756b01f5d1bcb4b4ba36e991f6fc",
            "status": true,
            "timestamp": "2020-02-22T00:57:40Z",
            "transactionFee": "0.000999018",
            "txnHash": "0x01f76ce9078ee64123e96dd34816962854a2756b01f5d1bcb4b4ba36e991f6fc",
            "txnIndex": 1,
            "type": 0,
            "value": "0"
        },
        "fund_flow": [
            {
                "amount": "143.7679578",
                "from": "0xc6bd3edd07e294cb66b8318356d688b3516ea950",
                "id": 1,
                "isERC1155": false,
                "isERC721": false,
                "isReverted": false,
                "order": 1,
                "to": "0x7b359d0e50b0febc9048b36fdadf4f475f562e39",
                "token": "0x2ab05b915c30093679165bcdba9c26d8cd8bee99"
            }
        ],
        "token_infos": [
            {
                "address": "0x2ab05b915c30093679165bcdba9c26d8cd8bee99",
                "decimals": 18
            },
            {
                "address": "0xc02aaa39b223fe8d0a0e5c4f27ead9083c756cc2",
                "decimals": 18
            },
            {
                "address": "0xeeeeeeeeeeeeeeeeeeeeeeeeeeeeeeeeeeeeeeee",
                "decimals": 18
            }
        ]
    },
    "address_label": {
        "labels": [
            {
                "address": "0xeeeeeeeeeeeeeeeeeeeeeeeeeeeeeeeeeeeeeeee",
                "label": "Ether"
            },
            {
                "address": "0x2ab05b915c30093679165bcdba9c26d8cd8bee99",
                "label": "Bitcherry: BCHC Token"
            },
            {
                "address": "0x0000000000000000000000000000000000000001",
                "label": "Precompiled"
            },
            {
                "address": "0x0000000000000000000000000000000000000002",
                "label": "Precompiled"
            },
            {
                "address": "0x0000000000000000000000000000000000000003",
                "label": "Precompiled"
            },
            {
                "address": "0x0000000000000000000000000000000000000004",
                "label": "Precompiled"
            }
        ]
    },
    "trace": {
        "accountLabels": null,
        "dataMap": {
            "-1": {
                "invocation": {
                    "address": "0xc6bd3edd07e294cb66b8318356d688b3516ea950",
                    "callData": "",
                    "decodedMethod": null,
                    "errorInfo": "",
                    "fromAddress": "",
                    "gasUsed": 0,
                    "id": -1,
                    "methodDecoded": false,
                    "operation": "",
                    "output": "",
                    "revert": false,
                    "revertMessage": "",
                    "selector": "",
                    "status": false,
                    "value": ""
                },
                "nodeType": 0
            },
            "0": {
                "invocation": {
                    "address": "0x2ab05b915c30093679165bcdba9c26d8cd8bee99",
                    "callData": "0x0000000000000000000000007b359d0e50b0febc9048b36fdadf4f475f562e39000000000000000000000000000000000000000000000007cb2e63e760599000",
                    "decodedMethod": {
                        "callParams": [
                            {
                                "name": "_to",
                                "type": "address",
                                "value": "0x7b359d0e50b0febc9048b36fdadf4f475f562e39"
                            },
                            {
                                "decimalAvailable": true,
                                "name": "_value",
                                "type": "uint256",
                                "value": "143,767,957,800,000,000,000"
                            }
                        ],
                        "constructorArguments": "",
                        "name": "transfer",
                        "returnParams": [],
                        "signature": "transfer(address,uint256)"
                    },
                    "errorInfo": "",
                    "fromAddress": "0xc6bd3edd07e294cb66b8318356d688b3516ea950",
                    "gasUsed": 55501,
                    "id": 0,
                    "methodDecoded": true,
                    "operation": "CALL",
                    "output": "",
                    "revert": false,
                    "revertMessage": "",
                    "selector": "0xa9059cbb",
                    "status": true,
                    "value": "0"
                },
                "nodeType": 0
            },
            "1": {
                "event": {
                    "contract": "0x2ab05b915c30093679165bcdba9c26d8cd8bee99",
                    "decodedLog": {
                        "name": "Transfer",
                        "params": [
                            {
                                "name": "from",
                                "type": "address",
                                "value": "0xc6bd3edd07e294cb66b8318356d688b3516ea950"
                            },
                            {
                                "name": "to",
                                "type": "address",
                                "value": "0x7b359d0e50b0febc9048b36fdadf4f475f562e39"
                            },
                            {
                                "decimalAvailable": true,
                                "name": "value",
                                "type": "uint256",
                                "value": "143,767,957,800,000,000,000"
                            }
                        ],
                        "signature": "Transfer(address,address,uint256)"
                    },
                    "id": 1,
                    "logData": "0x000000000000000000000000000000000000000000000007cb2e63e760599000",
                    "logDecoded": true,
                    "operation": "EVENT",
                    "revert": false,
                    "status": true,
                    "topics": [
                        "0xddf252ad1be2c89b69c2b068fc378daa952ba7f163c4a11628f55a4df523b3ef",
                        "0x000000000000000000000000c6bd3edd07e294cb66b8318356d688b3516ea950",
                        "0x0000000000000000000000007b359d0e50b0febc9048b36fdadf4f475f562e39"
                    ]
                },
                "nodeType": 1
            }
        },
        "gasFlame": [
            {
                "children": [
                    {
                        "children": [
                            {
                                "children": [],
                                "depth": 0,
                                "name": "Initial Gas",
                                "value": 21656
                            },
                            {
                                "children": [],
                                "depth": 0,
                                "name": "Executed Gas",
                                "value": 33845
                            }
                        ],
                        "depth": -1,
                        "name": "Actual Gas Used",
                        "value": 55501
                    },
                    {
                        "children": [],
                        "depth": -1,
                        "name": "Refunded Gas",
                        "value": 0
                    }
                ],
                "depth": -2,
                "name": "Total Gas",
                "value": 55501
            }
        ],
        "isConfirmed": true,
        "mainTrace": [
            {
                "children": [
                    {
                        "children": [
                            {
                                "children": [],
                                "depth": 1,
                                "id": 1,
                                "order": 1
                            }
                        ],
                        "depth": 0,
                        "id": 0,
                        "order": 0
                    }
                ],
                "depth": -1,
                "id": -1,
                "order": -1
            }
        ],
        "mainTraceNodeCount": 2,
        "parentIdMap": {
            "0": -1,
            "1": 0
        },
        "tidyTrace": [
            {
                "children": [
                    {
                        "children": [
                            {
                                "children": [],
                                "depth": 1,
                                "id": 1,
                                "order": 1
                            }
                        ],
                        "depth": 0,
                        "id": 0,
                        "order": 0
                    }
                ],
                "depth": -1,
                "id": -1,
                "order": -1
            }
        ],
        "tidyTraceNodeCount": 2
    },
    "state_change": {
        "stateChanges": [
            {
                "address": "0x2ab05b915c30093679165bcdba9c26d8cd8bee99",
                "erc": "",
                "slots": [
                    {
                        "current": "0x00000000000000000000000000000000000000000150945b83fd710481350c00",
                        "key": "0x275e1fe8d8286ea87a7552bd9820264f2feaa1a81d8c85c650592d2838aa4677",
                        "prev": "0x0000000000000000000000000000000000000000015094634f2bd4ebe18e9c00"
                    },
                    {
                        "current": "0x000000000000000000000000000000000000000000000007cb2e63e760599000",
                        "key": "0x24f4b2ee23492ea3a94411dba78157d6a78f805022b0c3cbe1c00b33ca6ea920",
                        "prev": "0x0000000000000000000000000000000000000000000000000000000000000000"
                    }
                ],
                "storageVariables": [
                    {
                        "name": "balanceOf",
                        "type": "mapping(address => uint256)",
                        "value": {
                            "pairs": [
                                {
                                    "key": "0x7b359d0e50b0febc9048b36fdadf4f475f562e39",
                                    "value": {
                                        "current": "143767957800000000000",
                                        "prev": "0",
                                        "typeTag": 1
                                    }
                                },
                                {
                                    "key": "0xc6bd3edd07e294cb66b8318356d688b3516ea950",
                                    "value": {
                                        "current": "406899673794573070000000000",
                                        "prev": "406899817562530870000000000",
                                        "typeTag": 1
                                    }
                                }
                            ],
                            "typeTag": 4
                        }
                    }
                ]
            }
        ]
    }
}