{
    "balance_change": {
        "balanceChanges": [
            {
                "account": "0x98e5c43728355c5d500ce90ad9609bd1d29be62f",
                "assets": [
                    {
                        "address": "0x0f51bb10119727a7e5ea3538074fb341f56b09ad",
                        "amount": "232",
                        "iconUrl": "",
                        "isERC1155": false,
                        "isERC721": false,
                        "sign": false,
                        "value": "202.235565"
                    }
                ]
            },
            {
                "account": "0xd07e86f68c7b9f9b215a3ca3e79e74bf94d6a847",
                "assets": [
                    {
                        "address": "0x0f51bb10119727a7e5ea3538074fb341f56b09ad",
                        "amount": "232",
                        "iconUrl": "",
                        "isERC1155": false,
                        "isERC721": false,
                        "sign": true,
                        "value": "202.235565"
                    }
                ]
            }
        ]
    },
    "profile": {
        "basic_info": {
            "baseFee": "11.831308422",
            "blockNumber": 16281837,
            "callData": "0x52a438b800000000000000000000000000000000000000000000000c93a592cfb2a00000000000000000000000000000000000000000000000000000000000000000016c",
            "debugEnable": true,
            "errorInfo": "",
            "eventCount": 3,
            "feeRecipient": "0xdafea492d9c6733ae3d56b7ed1adb60692c98bc5",
            "formatValue": "0",
            "gasLimit": 155378,
            "gasPrice": "13.331308422",
            "gasUsed": 124302,
            "intTxnCount": 1,
            "internalRevert": false,
            "internalRevertMessage": "",
            "isContractCreation": false,
            "isFlashloan": false,
            "maxFee": "16.466679464",
            "nonce": 45,
            "overwritedBlockNumber": -1,
            "priorityFee": "1.5",
            "receiver": "0xd07e86f68c7b9f9b215a3ca3e79e74bf94d6a847",
            "revertMessage": "",
            "sender": "0x98e5c43728355c5d500ce90ad9609bd1d29be62f",
            "simulationEnable": true,
            "sourceTxnHash": "0x013a634fc583ff91bc6d528dc86c46f82d4d33cc7226cd08105c52a59dd2a2f3",
            "status": true,
            "timestamp": "2022-12-28T07:44:59Z",
            "transactionFee": "0.001657108299471444",
            "txnHash": "0x013a634fc583ff91bc6d528dc86c46f82d4d33cc7226cd08105c52a59dd2a2f3",
            "txnIndex": 53,
            "type": 2,
            "value": "0"
        },
        "fund_flow": [
            {
                "amount": "232",
                "from": "0x98e5c43728355c5d500ce90ad9609bd1d29be62f",
                "id": 1,
                "isERC1155": false,
                "isERC721": false,
                "isReverted": false,
                "order": 1,
                "to": "0xd07e86f68c7b9f9b215a3ca3e79e74bf94d6a847",
                "token": "0x0f51bb10119727a7e5ea3538074fb341f56b09ad"
            }
        ],
        "token_infos": [
            {
                "address": "0x0f51bb10119727a7e5ea3538074fb341f56b09ad",
                "decimals": 18
            },
            {
                "address": "0xc02aaa39b223fe8d0a0e5c4f27ead9083c756cc2",
                "decimals": 18
            },
            {
                "address": "0xeeeeeeeeeeeeeeeeeeeeeeeeeeeeeeeeeeeeeeee",
                "decimals": 18
            }
        ]
    },
    "address_label": {
        "labels": [
            {
                "address": "0xeeeeeeeeeeeeeeeeeeeeeeeeeeeeeeeeeeeeeeee",
                "label": "Ether"
            },
            {
                "address": "0x0f51bb10119727a7e5ea3538074fb341f56b09ad",
                "label": "DAO Maker: DAO Token"
            },
            {
                "address": "0xd07e86f68c7b9f9b215a3ca3e79e74bf94d6a847",
                "label": "DAO Maker: Staking"
            },
            {
                "address": "0x0000000000000000000000000000000000000001",
                "label": "Precompiled"
            },
            {
                "address": "0x0000000000000000000000000000000000000002",
                "label": "Precompiled"
            },
            {
                "address": "0x0000000000000000000000000000000000000003",
                "label": "Precompiled"
            },
            {
                "address": "0x0000000000000000000000000000000000000004",
                "label": "Precompiled"
            }
        ]
    },
    "trace": {
        "accountLabels": null,
        "dataMap": {
            "-1": {
                "invocation": {
                    "address": "0x98e5c43728355c5d500ce90ad9609bd1d29be62f",
                    "callData": "",
                    "decodedMethod": null,
                    "errorInfo": "",
                    "fromAddress": "",
                    "gasUsed": 0,
                    "id": -1,
                    "methodDecoded": false,
                    "operation": "",
                    "output": "",
                    "revert": false,
                    "revertMessage": "",
                    "selector": "",
                    "status": false,
                    "value": ""
                },
                "nodeType": 0
            },
            "0": {
                "invocation": {
                    "address": "0xd07e86f68c7b9f9b215a3ca3e79e74bf94d6a847",
                    "callData": "0x00000000000000000000000000000000000000000000000c93a592cfb2a00000000000000000000000000000000000000000000000000000000000000000016c",
                    "decodedMethod": {
                        "callParams": [
                            {
                                "name": "newStakedAmount",
                                "type": "uint256",
                                "value": "232,000,000,000,000,000,000"
                            },
                            {
                                "name": "newStakedDays",
                                "type": "uint256",
                                "value": "364"
                            }
                        ],
                        "constructorArguments": "",
                        "name": "stakeStart",
                        "returnParams": [],
                        "signature": "stakeStart(uint256,uint256)"
                    },
                    "errorInfo": "",
                    "fromAddress": "0x98e5c43728355c5d500ce90ad9609bd1d29be62f",
                    "gasUsed": 124302,
                    "id": 0,
                    "methodDecoded": true,
                    "operation": "CALL",
                    "output": "",
                    "revert": false,
                    "revertMessage": "",
                    "selector": "0x52a438b8",
                    "status": true,
                    "value": "0"
                },
                "nodeType": 0
            },
            "1": {
                "event": {
                    "contract": "0xd07e86f68c7b9f9b215a3ca3e79e74bf94d6a847",
                    "decodedLog": {
                        "name": "StakeStart",
                        "params": [
                            {
                                "name": "stakerAddr",
                                "type": "address",
                                "value": "0x98e5c43728355c5d500ce90ad9609bd1d29be62f"
                            },
                            {
                                "name": "stakeId",
                                "type": "uint40",
                                "value": "18,251"
                            },
                            {
                                "name": "timestamp",
                                "type": "uint40",
                                "value": "1,672,213,499"
                            },
                            {
                                "name": "stakedAmount",
                                "type": "uint128",
                                "value": "232,000,000,000,000,000,000"
                            },
                            {
                                "name": "stakeShares",
                                "type": "uint128",
                                "value": "1,487,206,532,215,534,015,894"
                            },
                            {
                                "name": "stakedDays",
                                "type": "uint16",
                                "value": "364"
                            }
                        ],
                        "signature": "StakeStart(address,uint40,uint40,uint128,uint128,uint16)"
                    },
                    "id": 1,
                    "logData": "0x0000000000000000000000000000000000000000000000000000000063abf3fb00000000000000000000000000000000000000000000000c93a592cfb2a000000000000000000000000000000000000000000000000000509f22fd7dfb705596000000000000000000000000000000000000000000000000000000000000016c",
                    "logDecoded": true,
                    "operation": "EVENT",
                    "revert": false,
                    "status": true,
                    "topics": [
                        "0xdc5a18c7d77c61a390e121362aef97759e74c60c7af28d64ab9b0317a06fe9d3",
                        "0x00000000000000000000000098e5c43728355c5d500ce90ad9609bd1d29be62f",
                        "0x000000000000000000000000000000000000000000000000000000000000474b"
                    ]
                },
                "nodeType": 1
            },
            "2": {
                "invocation": {
                    "address": "0x0f51bb10119727a7e5ea3538074fb341f56b09ad",
                    "callData": "0x00000000000000000000000098e5c43728355c5d500ce90ad9609bd1d29be62f000000000000000000000000d07e86f68c7b9f9b215a3ca3e79e74bf94d6a84700000000000000000000000000000000000000000000000c93a592cfb2a00000",
                    "decodedMethod": {
                        "callParams": [
                            {
                                "name": "sender",
                                "type": "address",
                                "value": "0x98e5c43728355c5d500ce90ad9609bd1d29be62f"
                            },
                            {
                                "name": "recipient",
                                "type": "address",
                                "value": "0xd07e86f68c7b9f9b215a3ca3e79e74bf94d6a847"
                            },
                            {
                                "decimalAvailable": true,
                                "name": "amount",
                                "type": "uint256",
                                "value": "232,000,000,000,000,000,000"
                            }
                        ],
                        "constructorArguments": "",
                        "name": "transferFrom",
                        "returnParams": [
                            {
                                "name": "",
                                "type": "bool",
                                "value": true
                            }
                        ],
                        "signature": "transferFrom(address,address,uint256)"
                    },
                    "errorInfo": "",
                    "fromAddress": "0xd07e86f68c7b9f9b215a3ca3e79e74bf94d6a847",
                    "gasUsed": 20764,
                    "id": 2,
                    "methodDecoded": true,
                    "operation": "CALL",
                    "output": "0x0000000000000000000000000000000000000000000000000000000000000001",
                    "revert": false,
                    "revertMessage": "",
                    "selector": "0x23b872dd",
                    "status": true,
                    "value": "0"
                },
                "nodeType": 0
            },
            "3": {
                "event": {
                    "contract": "0x0f51bb10119727a7e5ea3538074fb341f56b09ad",
                    "decodedLog": {
                        "name": "Transfer",
                        "params": [
                            {
                                "name": "from",
                                "type": "address",
                                "value": "0x98e5c43728355c5d500ce90ad9609bd1d29be62f"
                            },
                            {
                                "name": "to",
                                "type": "address",
                                "value": "0xd07e86f68c7b9f9b215a3ca3e79e74bf94d6a847"
                            },
                            {
                                "decimalAvailable": true,
                                "name": "value",
                                "type": "uint256",
                                "value": "232,000,000,000,000,000,000"
                            }
                        ],
                        "signature": "Transfer(address,address,uint256)"
                    },
                    "id": 3,
                    "logData": "0x00000000000000000000000000000000000000000000000c93a592cfb2a00000",
                    "logDecoded": true,
                    "operation": "EVENT",
                    "revert": false,
                    "status": true,
                    "topics": [
                        "0xddf252ad1be2c89b69c2b068fc378daa952ba7f163c4a11628f55a4df523b3ef",
                        "0x00000000000000000000000098e5c43728355c5d500ce90ad9609bd1d29be62f",
                        "0x000000000000000000000000d07e86f68c7b9f9b215a3ca3e79e74bf94d6a847"
                    ]
                },
                "nodeType": 1
            },
            "4": {
                "event": {
                    "contract": "0x0f51bb10119727a7e5ea3538074fb341f56b09ad",
                    "decodedLog": {
                        "name": "Approval",
                        "params": [
                            {
                                "name": "owner",
                                "type": "address",
                                "value": "0x98e5c43728355c5d500ce90ad9609bd1d29be62f"
                            },
                            {
                                "name": "spender",
                                "type": "address",
                                "value": "0xd07e86f68c7b9f9b215a3ca3e79e74bf94d6a847"
                            },
                            {
                                "decimalAvailable": true,
                                "name": "value",
                                "type": "uint256",
                                "value": "999,999,999,999,307,000,000,000,000,000,000"
                            }
                        ],
                        "signature": "Approval(address,address,uint256)"
                    },
                    "id": 4,
                    "logData": "0x000000000000000000000000000000000000314dc6448d6da772c6b5de4c0000",
                    "logDecoded": true,
                    "operation": "EVENT",
                    "revert": false,
                    "status": true,
                    "topics": [
                        "0x8c5be1e5ebec7d5bd14f71427d1e84f3dd0314c0f7b2291e5b200ac8c7c3b925",
                        "0x00000000000000000000000098e5c43728355c5d500ce90ad9609bd1d29be62f",
                        "0x000000000000000000000000d07e86f68c7b9f9b215a3ca3e79e74bf94d6a847"
                    ]
                },
                "nodeType": 1
            }
        },
        "gasFlame": [
            {
                "children": [
                    {
                        "children": [
                            {
                                "children": [],
                                "depth": 0,
                                "name": "Initial Gas",
                                "value": 21428
                            },
                            {
                                "children": [
                                    {
                                        "children": [],
                                        "depth": 1,
                                        "name": "transferFrom",
                                        "value": 20764
                                    }
                                ],
                                "depth": 0,
                                "name": "Executed Gas",
                                "value": 102874
                            }
                        ],
                        "depth": -1,
                        "name": "Actual Gas Used",
                        "value": 124302
                    },
                    {
                        "children": [],
                        "depth": -1,
                        "name": "Refunded Gas",
                        "value": 0
                    }
                ],
                "depth": -2,
                "name": "Total Gas",
                "value": 124302
            }
        ],
        "isConfirmed": true,
        "mainTrace": [
            {
                "children": [
                    {
                        "children": [
                            {
                                "children": [],
                                "depth": 1,
                                "id": 1,
                                "order": 1
                            },
                            {
                                "children": [
                                    {
                                        "children": [],
                                        "depth": 2,
                                        "id": 3,
                                        "order": 3
                                    },
                                    {
                                        "children": [],
                                        "depth": 2,
                                        "id": 4,
                                        "order": 4
                                    }
                                ],
                                "depth": 1,
                                "id": 2,
                                "order": 2
                            }
                        ],
                        "depth": 0,
                        "id": 0,
                        "order": 0
                    }
                ],
                "depth": -1,
                "id": -1,
                "order": -1
            }
        ],
        "mainTraceNodeCount": 5,
        "parentIdMap": {
            "0": -1,
            "1": 0,
            "2": 0,
            "3": 2,
            "4": 2
        },
        "tidyTrace": [
            {
                "children": [
                    {
                        "children": [
                            {
                                "children": [],
                                "depth": 1,
                                "id": 1,
                                "order": 1
                            },
                            {
                                "children": [
                                    {
                                        "children": [],
                                        "depth": 2,
                                        "id": 3,
                                        "order": 3
                                    },
                                    {
                                        "children": [],
                                        "depth": 2,
                                        "id": 4,
                                        "order": 4
                                    }
                                ],
                                "depth": 1,
                                "id": 2,
                                "order": 2
                            }
                        ],
                        "depth": 0,
                        "id": 0,
                        "order": 0
                    }
                ],
                "depth": -1,
                "id": -1,
                "order": -1
            }
        ],
        "tidyTraceNodeCount": 5
    },
    "state_change": {
        "stateChanges": [
            {
                "address": "0x0f51bb10119727a7e5ea3538074fb341f56b09ad",
                "erc": "ERC-20",
                "slots": [
                    {
                        "current": "0x00000000000000000000000000000000000000000037499cdbd8bd09c1d8e00a",
                        "key": "0xb8367ed48032cac29677964536b68a1b3648b7cdef3d431f05b92b237cc06942",
                        "prev": "0x00000000000000000000000000000000000000000037499048332a3a0f38e00a"
                    },
                    {
                        "current": "0x000000000000000000000000000000000000314dc6448d6da772c6b5de4c0000",
                        "key": "0x1bb73ef90f661aadd3bccd380f2773d06e471db05ad2de8f7e525e3bbc7d4fcb",
                        "prev": "0x000000000000000000000000000000000000314dc6448d7a3b18598590ec0000"
                    },
                    {
                        "current": "0x000000000000000000000000000000000000000000000000072ac46ceb777944",
                        "key": "0x73e0d795dd67bd76910bca8fa178fed7c5592108da01743cf31598c8d0d91d23",
                        "prev": "0x00000000000000000000000000000000000000000000000c9ad0573c9e177944"
                    }
                ],
                "storageVariables": [
                    {
                        "name": "_allowances",
                        "type": "mapping(address => mapping(address => uint256))",
                        "value": {
                            "pairs": [
                                {
                                    "key": "0x98e5c43728355c5d500ce90ad9609bd1d29be62f",
                                    "value": {
                                        "pairs": [
                                            {
                                                "key": "0xd07e86f68c7b9f9b215a3ca3e79e74bf94d6a847",
                                                "value": {
                                                    "current": "999999999999307000000000000000000",
                                                    "prev": "999999999999539000000000000000000",
                                                    "typeTag": 1
                                                }
                                            }
                                        ],
                                        "typeTag": 4
                                    }
                                }
                            ],
                            "typeTag": 4
                        }
                    },
                    {
                        "name": "_balances",
                        "type": "mapping(address => uint256)",
                        "value": {
                            "pairs": [
                                {
                                    "key": "0x98e5c43728355c5d500ce90ad9609bd1d29be62f",
                                    "value": {
                                        "current": "516441079373330756",
                                        "prev": "232516441079373330756",
                                        "typeTag": 1
                                    }
                                },
                                {
                                    "key": "0xd07e86f68c7b9f9b215a3ca3e79e74bf94d6a847",
                                    "value": {
                                        "current": "66838546365749126279782410",
                                        "prev": "66838314365749126279782410",
                                        "typeTag": 1
                                    }
                                }
                            ],
                            "typeTag": 4
                        }
                    }
                ]
            },
            {
                "address": "0xd07e86f68c7b9f9b215a3ca3e79e74bf94d6a847",
                "erc": "",
                "slots": [
                    {
                        "current": "0x00000000000000509f22fd7dfb705596000000000000000c93a592cfb2a00000",
                        "key": "0xac10be8076bae10cc0aaea872a25413d5e91f6f357d8fd2cf07e89479f2e9a49",
                        "prev": "0x0000000000000000000000000000000000000000000000000000000000000000"
                    },
                    {
                        "current": "0x0000000000000000000000000000000000000000000000016c0193000000474b",
                        "key": "0xac10be8076bae10cc0aaea872a25413d5e91f6f357d8fd2cf07e89479f2e9a4a",
                        "prev": "0x0000000000000000000000000000000000000000000000000000000000000000"
                    },
                    {
                        "current": "0x0000000000002c8af3bd8b077502f90100000000000002a092f011f4d4680000",
                        "key": "0xe46e267abbabb33661793554ccf86551c21a107b4a95f30d4b92d143da8cdf07",
                        "prev": "0x0000000000002c3a549a8d897992a36b00000000000002a092f011f4d4680000"
                    },
                    {
                        "current": "0x00000000000038670acd90c2c41277f000000000002b776206d0fe0031ecdea0",
                        "key": "0x0000000000000000000000000000000000000000000000000000000000000002",
                        "prev": "0x00000000000038166baa9344c8a2225a00000000002b7755732b6b307f4cdea0"
                    },
                    {
                        "current": "0x00000000000000000000000000000000000000000192000001ad9a000000474b",
                        "key": "0x0000000000000000000000000000000000000000000000000000000000000004",
                        "prev": "0x00000000000000000000000000000000000000000192000001ad9a000000474a"
                    },
                    {
                        "current": "0x0000000000000000000000000000000000000000000000000000000000000002",
                        "key": "0x07506e02d2b43590dee29bba3383d4186f24dc82661402067a694974bc7de347",
                        "prev": "0x0000000000000000000000000000000000000000000000000000000000000001"
                    }
                ],
                "storageVariables": [
                    {
                        "name": "stakeLists",
                        "type": "mapping(address => struct GlobalsAndUtility.StakeStore[])",
                        "value": {
                            "pairs": [
                                {
                                    "key": "0x98e5c43728355c5d500ce90ad9609bd1d29be62f",
                                    "value": {
                                        "elemType": "struct GlobalsAndUtility.StakeStore",
                                        "elems": [
                                            {
                                                "index": 1,
                                                "value": {
                                                    "fields": [
                                                        {
                                                            "name": "stakedAmount",
                                                            "type": "uint128",
                                                            "value": {
                                                                "current": "232000000000000000000",
                                                                "prev": "0",
                                                                "typeTag": 1
                                                            }
                                                        },
                                                        {
                                                            "name": "stakeShares",
                                                            "type": "uint128",
                                                            "value": {
                                                                "current": "1487206532215534015894",
                                                                "prev": "0",
                                                                "typeTag": 1
                                                            }
                                                        },
                                                        {
                                                            "name": "stakeId",
                                                            "type": "uint40",
                                                            "value": {
                                                                "current": "18251",
                                                                "prev": "0",
                                                                "typeTag": 1
                                                            }
                                                        },
                                                        {
                                                            "name": "lockedDay",
                                                            "type": "uint16",
                                                            "value": {
                                                                "current": "403",
                                                                "prev": "0",
                                                                "typeTag": 1
                                                            }
                                                        },
                                                        {
                                                            "name": "stakedDays",
                                                            "type": "uint16",
                                                            "value": {
                                                                "current": "364",
                                                                "prev": "0",
                                                                "typeTag": 1
                                                            }
                                                        },
                                                        {
                                                            "name": "unlockedDay",
                                                            "type": "uint16",
                                                            "value": {
                                                                "current": "0",
                                                                "prev": "0",
                                                                "typeTag": 1
                                                            }
                                                        }
                                                    ],
                                                    "typeTag": 3
                                                }
                                            }
                                        ],
                                        "typeTag": 2
                                    }
                                }
                            ],
                            "typeTag": 4
                        }
                    },
                    {
                        "name": "dailyData",
                        "type": "mapping(uint256 => struct GlobalsAndUtility.DailyDataStore)",
                        "value": {
                            "pairs": [
                                {
                                    "key": "767",
                                    "value": {
                                        "fields": [
                                            {
                                                "name": "dayPayoutTotal",
                                                "type": "uint128",
                                                "value": {
                                                    "current": "12406800000000000000000",
                                                    "prev": "12406800000000000000000",
                                                    "typeTag": 1
                                                }
                                            },
                                            {
                                                "name": "sharesToBeRemoved",
                                                "type": "uint128",
                                                "value": {
                                                    "current": "210347339275422266489089",
                                                    "prev": "208860132743206732473195",
                                                    "typeTag": 1
                                                }
                                            }
                                        ],
                                        "typeTag": 3
                                    }
                                }
                            ],
                            "typeTag": 4
                        }
                    },
                    {
                        "name": "globals",
                        "type": "struct GlobalsAndUtility.GlobalsStore",
                        "value": {
                            "fields": [
                                {
                                    "name": "lockedStakeTotal",
                                    "type": "uint128",
                                    "value": {
                                        "current": "52547580126981402003300000",
                                        "prev": "52547348126981402003300000",
                                        "typeTag": 1
                                    }
                                },
                                {
                                    "name": "nextStakeSharesTotal",
                                    "type": "uint128",
                                    "value": {
                                        "current": "266353316117769008347120",
                                        "prev": "264866109585553474331226",
                                        "typeTag": 1
                                    }
                                },
                                {
                                    "name": "latestStakeId",
                                    "type": "uint40",
                                    "value": {
                                        "current": "18251",
                                        "prev": "18250",
                                        "typeTag": 1
                                    }
                                },
                                {
                                    "name": "shareRate",
                                    "type": "uint40",
                                    "value": {
                                        "current": "109978",
                                        "prev": "109978",
                                        "typeTag": 1
                                    }
                                },
                                {
                                    "name": "dailyDataCount",
                                    "type": "uint16",
                                    "value": {
                                        "current": "402",
                                        "prev": "402",
                                        "typeTag": 1
                                    }
                                }
                            ],
                            "typeTag": 3
                        }
                    }
                ]
            }
        ]
    }
}