{
    "balance_change": {
        "balanceChanges": [
            {
                "account": "0xba4f009730cf90253579a62a6a6f1dda8c31a233",
                "assets": [
                    {
                        "address": "0x420692f3f9d82341809fc2d0f3fb4a7664201f8f",
                        "amount": "1,021,948,075.889147352",
                        "iconUrl": "",
                        "isERC1155": false,
                        "isERC721": false,
                        "sign": false,
                        "value": "458.4933334"
                    },
                    {
                        "address": "0xeeeeeeeeeeeeeeeeeeeeeeeeeeeeeeeeeeeeeeee",
                        "amount": "0.174710759634082205",
                        "iconUrl": "https://assets.blocksec.com/image/1663669189317-3.png",
                        "isERC1155": false,
                        "isERC721": false,
                        "sign": true,
                        "value": "451.59217923224440083"
                    }
                ]
            },
            {
                "account": "0x3a10dc1a145da500d5fba38b9ec49c8ff11a981f",
                "assets": [
                    {
                        "address": "0xeeeeeeeeeeeeeeeeeeeeeeeeeeeeeeeeeeeeeeee",
                        "amount": "0.001764755147819012",
                        "iconUrl": "https://assets.blocksec.com/image/1663669189317-3.png",
                        "isERC1155": false,
                        "isERC721": false,
                        "sign": true,
                        "value": "4.5615371653197368047"
                    }
                ]
            },
            {
                "account": "0xc02aaa39b223fe8d0a0e5c4f27ead9083c756cc2",
                "assets": [
                    {
                        "address": "0xeeeeeeeeeeeeeeeeeeeeeeeeeeeeeeeeeeeeeeee",
                        "amount": "0.176475514781901217",
                        "iconUrl": "https://assets.blocksec.com/image/1663669189317-3.png",
                        "isERC1155": false,
                        "isERC721": false,
                        "sign": false,
                        "value": "456.15371653197368043"
                    },
                    {
                        "address": "0xc02aaa39b223fe8d0a0e5c4f27ead9083c756cc2",
                        "amount": "0.176475514781901217",
                        "iconUrl": "https://assets.blocksec.com/icon/f1cb2d02c471d545bbc7722daf3277fd852d98e63d118771af7047bd8256c516.png",
                        "isERC1155": false,
                        "isERC721": false,
                        "sign": true,
                        "value": "456.15371653197368043"
                    }
                ]
            },
            {
                "account": "0xf8ac6fd64251292ef220374cf9913b42b44cd2de",
                "assets": [
                    {
                        "address": "0x420692f3f9d82341809fc2d0f3fb4a7664201f8f",
                        "amount": "1,021,948,075.889147352",
                        "iconUrl": "",
                        "isERC1155": false,
                        "isERC721": false,
                        "sign": true,
                        "value": "458.4933334"
                    },
                    {
                        "address": "0xc02aaa39b223fe8d0a0e5c4f27ead9083c756cc2",
                        "amount": "0.176475514781901217",
                        "iconUrl": "https://assets.blocksec.com/icon/f1cb2d02c471d545bbc7722daf3277fd852d98e63d118771af7047bd8256c516.png",
                        "isERC1155": false,
                        "isERC721": false,
                        "sign": false,
                        "value": "456.15371653197368043"
                    }
                ]
            }
        ]
    },
    "profile": {
        "basic_info": {
            "baseFee": "8.485495316",
            "blockNumber": 20491846,
            "callData": "0x3a571299000000000000000000000000000000000000000000000000000000000000008000000000000000000000000000000000000000000000000000000000000001000000000000000000000000007a250d5630b4cf539739df2c5dacb4c659f2488d000000000000000000000000000000000000000000000000000000000000000000000000000000000000000000000000000000000000000000000000000000030000000000000000000000000000000000000000000000000e2eb05c4a443dd8000000000000000000000000000000000000000000000000000000000000000000000000000000000000000000000000000000000000000000000000000000000000000000000000000000000000000000000000000000000000000000000002000000000000000000000000420692f3f9d82341809fc2d0f3fb4a7664201f8f000000000000000000000000c02aaa39b223fe8d0a0e5c4f27ead9083c756cc2",
            "debugEnable": true,
            "errorInfo": "",
            "eventCount": 9,
            "feeRecipient": "0x95222290dd7278aa3ddd389cc1e1d165cc4bafe5",
            "formatValue": "0",
            "gasLimit": 329305,
            "gasPrice": "13.485495316",
            "gasUsed": 164966,
            "intTxnCount": 14,
            "internalRevert": false,
            "internalRevertMessage": "",
            "isContractCreation": false,
            "isFlashloan": false,
            "maxFee": "13.485495316",
            "nonce": 2,
            "overwritedBlockNumber": -1,
            "priorityFee": "5",
            "receiver": "0x3a10dc1a145da500d5fba38b9ec49c8ff11a981f",
            "revertMessage": "",
            "sender": "0xba4f009730cf90253579a62a6a6f1dda8c31a233",
            "simulationEnable": true,
            "sourceTxnHash": "0x01f24626580fcf2769de3088735da0ea01380b37f6c025a6ad6dc523fcdb5597",
            "status": true,
            "timestamp": "2024-08-09T15:09:47Z",
            "transactionFee": "0.002224648220299256",
            "txnHash": "0x01f24626580fcf2769de3088735da0ea01380b37f6c025a6ad6dc523fcdb5597",
            "txnIndex": 13,
            "type": 2,
            "value": "0"
        },
        "fund_flow": [
            {
                "amount": "1,021,948,075.889147352",
                "from": "0xba4f009730cf90253579a62a6a6f1dda8c31a233",
                "id": 1,
                "isERC1155": false,
                "isERC721": false,
                "isReverted": false,
                "order": 1,
                "to": "0xf8ac6fd64251292ef220374cf9913b42b44cd2de",
                "token": "0x420692f3f9d82341809fc2d0f3fb4a7664201f8f"
            },
            {
                "amount": "0.176475514781901217",
                "from": "0xf8ac6fd64251292ef220374cf9913b42b44cd2de",
                "id": 2,
                "isERC1155": false,
                "isERC721": false,
                "isReverted": false,
                "order": 2,
                "to": "0x3a10dc1a145da500d5fba38b9ec49c8ff11a981f",
                "token": "0xc02aaa39b223fe8d0a0e5c4f27ead9083c756cc2"
            },
            {
                "amount": "0.176475514781901217",
                "from": "0xc02aaa39b223fe8d0a0e5c4f27ead9083c756cc2",
                "id": 3,
                "isERC1155": false,
                "isERC721": false,
                "isReverted": false,
                "order": 3,
                "to": "0x3a10dc1a145da500d5fba38b9ec49c8ff11a981f",
                "token": "0xeeeeeeeeeeeeeeeeeeeeeeeeeeeeeeeeeeeeeeee"
            },
            {
                "amount": "0.176475514781901217",
                "from": "0x3a10dc1a145da500d5fba38b9ec49c8ff11a981f",
                "id": 4,
                "isERC1155": false,
                "isERC721": false,
                "isReverted": false,
                "order": 4,
                "to": "0xc02aaa39b223fe8d0a0e5c4f27ead9083c756cc2",
                "token": "0xc02aaa39b223fe8d0a0e5c4f27ead9083c756cc2"
            },
            {
                "amount": "0.174710759634082205",
                "from": "0x3a10dc1a145da500d5fba38b9ec49c8ff11a981f",
                "id": 5,
                "isERC1155": false,
                "isERC721": false,
                "isReverted": false,
                "order": 5,
                "to": "0xba4f009730cf90253579a62a6a6f1dda8c31a233",
                "token": "0xeeeeeeeeeeeeeeeeeeeeeeeeeeeeeeeeeeeeeeee"
            }
        ],
        "token_infos": [
            {
                "address": "0x420692f3f9d82341809fc2d0f3fb4a7664201f8f",
                "decimals": 9
            },
            {
                "address": "0xc02aaa39b223fe8d0a0e5c4f27ead9083c756cc2",
                "decimals": 18
            },
            {
                "address": "0xeeeeeeeeeeeeeeeeeeeeeeeeeeeeeeeeeeeeeeee",
                "decimals": 18
            }
        ]
    },
    "address_label": {
        "labels": [
            {
                "address": "0x0000000000000000000000000000000000000001",
                "label": "Precompiled"
            },
            {
                "address": "0x0000000000000000000000000000000000000002",
                "label": "Precompiled"
            },
            {
                "address": "0x0000000000000000000000000000000000000004",
                "label": "Precompiled"
            },
            {
                "address": "0xeeeeeeeeeeeeeeeeeeeeeeeeeeeeeeeeeeeeeeee",
                "label": "Ether"
            },
            {
                "address": "0x7a250d5630b4cf539739df2c5dacb4c659f2488d",
                "label": "Uniswap V2: Router 2"
            },
            {
                "address": "0xc02aaa39b223fe8d0a0e5c4f27ead9083c756cc2",
                "label": "Wrapped Ether (WETH)"
            },
            {
                "address": "0x420692f3f9d82341809fc2d0f3fb4a7664201f8f",
                "label": "MASARU"
            },
            {
                "address": "0x0000000000000000000000000000000000000000",
                "label": "Null Address"
            },
            {
                "address": "0xf8ac6fd64251292ef220374cf9913b42b44cd2de",
                "label": "UNI-V2"
            },
            {
                "address": "0x0000000000000000000000000000000000000003",
                "label": "Precompiled"
            }
        ]
    },
    "trace": {
        "accountLabels": null,
        "dataMap": {
            "-1": {
                "invocation": {
                    "address": "0xba4f009730cf90253579a62a6a6f1dda8c31a233",
                    "callData": "",
                    "decodedMethod": null,
                    "errorInfo": "",
                    "fromAddress": "",
                    "gasUsed": 0,
                    "id": -1,
                    "methodDecoded": false,
                    "operation": "",
                    "output": "",
                    "revert": false,
                    "revertMessage": "",
                    "selector": "",
                    "status": false,
                    "value": ""
                },
                "nodeType": 0
            },
            "0": {
                "invocation": {
                    "address": "0x3a10dc1a145da500d5fba38b9ec49c8ff11a981f",
                    "callData": "0x000000000000000000000000000000000000000000000000000000000000008000000000000000000000000000000000000000000000000000000000000001000000000000000000000000007a250d5630b4cf539739df2c5dacb4c659f2488d000000000000000000000000000000000000000000000000000000000000000000000000000000000000000000000000000000000000000000000000000000030000000000000000000000000000000000000000000000000e2eb05c4a443dd8000000000000000000000000000000000000000000000000000000000000000000000000000000000000000000000000000000000000000000000000000000000000000000000000000000000000000000000000000000000000000000000002000000000000000000000000420692f3f9d82341809fc2d0f3fb4a7664201f8f000000000000000000000000c02aaa39b223fe8d0a0e5c4f27ead9083c756cc2",
                    "decodedMethod": {
                        "callParams": [
                            {
                                "name": "a",
                                "type": "uint256[]",
                                "value": [
                                    "1,021,948,075,889,147,352",
                                    "0",
                                    "0"
                                ]
                            },
                            {
                                "name": "b",
                                "type": "address[]",
                                "value": [
                                    "0x420692f3f9d82341809fc2d0f3fb4a7664201f8f",
                                    "0xc02aaa39b223fe8d0a0e5c4f27ead9083c756cc2"
                                ]
                            },
                            {
                                "name": "c",
                                "type": "address",
                                "value": "0x7a250d5630b4cf539739df2c5dacb4c659f2488d"
                            },
                            {
                                "name": "d",
                                "type": "address",
                                "value": "0x0000000000000000000000000000000000000000"
                            }
                        ],
                        "constructorArguments": "",
                        "name": "SigmaSell",
                        "returnParams": [],
                        "signature": "SigmaSell(uint256[],address[],address,address)"
                    },
                    "errorInfo": "",
                    "fromAddress": "0xba4f009730cf90253579a62a6a6f1dda8c31a233",
                    "gasUsed": 164966,
                    "id": 0,
                    "methodDecoded": true,
                    "operation": "CALL",
                    "output": "0x000000000000000000000000000000000000000000000000026cb2829e6d999d",
                    "revert": false,
                    "revertMessage": "",
                    "selector": "0x3a571299",
                    "status": true,
                    "value": "0"
                },
                "nodeType": 0
            },
            "1": {
                "invocation": {
                    "address": "0xb8f86926487c91bf0fd52179cfbfe1bcd4c06bab",
                    "callData": "0x000000000000000000000000000000000000000000000000000000000000008000000000000000000000000000000000000000000000000000000000000001000000000000000000000000007a250d5630b4cf539739df2c5dacb4c659f2488d000000000000000000000000000000000000000000000000000000000000000000000000000000000000000000000000000000000000000000000000000000030000000000000000000000000000000000000000000000000e2eb05c4a443dd8000000000000000000000000000000000000000000000000000000000000000000000000000000000000000000000000000000000000000000000000000000000000000000000000000000000000000000000000000000000000000000000002000000000000000000000000420692f3f9d82341809fc2d0f3fb4a7664201f8f000000000000000000000000c02aaa39b223fe8d0a0e5c4f27ead9083c756cc2",
                    "decodedMethod": {
                        "callParams": [
                            {
                                "name": "a",
                                "type": "uint256[]",
                                "value": [
                                    "1,021,948,075,889,147,352",
                                    "0",
                                    "0"
                                ]
                            },
                            {
                                "name": "b",
                                "type": "address[]",
                                "value": [
                                    "0x420692f3f9d82341809fc2d0f3fb4a7664201f8f",
                                    "0xc02aaa39b223fe8d0a0e5c4f27ead9083c756cc2"
                                ]
                            },
                            {
                                "name": "c",
                                "type": "address",
                                "value": "0x7a250d5630b4cf539739df2c5dacb4c659f2488d"
                            },
                            {
                                "name": "d",
                                "type": "address",
                                "value": "0x0000000000000000000000000000000000000000"
                            }
                        ],
                        "constructorArguments": "",
                        "name": "SigmaSell",
                        "returnParams": [],
                        "signature": "SigmaSell(uint256[],address[],address,address)"
                    },
                    "errorInfo": "",
                    "fromAddress": "0x3a10dc1a145da500d5fba38b9ec49c8ff11a981f",
                    "gasUsed": 161942,
                    "id": 1,
                    "methodDecoded": true,
                    "operation": "DELEGATECALL",
                    "output": "0x000000000000000000000000000000000000000000000000026cb2829e6d999d",
                    "revert": false,
                    "revertMessage": "",
                    "selector": "0x3a571299",
                    "status": true,
                    "value": "0"
                },
                "nodeType": 0
            },
            "10": {
                "event": {
                    "contract": "0xc02aaa39b223fe8d0a0e5c4f27ead9083c756cc2",
                    "decodedLog": {
                        "name": "Transfer",
                        "params": [
                            {
                                "name": "src",
                                "type": "address",
                                "value": "0xf8ac6fd64251292ef220374cf9913b42b44cd2de"
                            },
                            {
                                "name": "dst",
                                "type": "address",
                                "value": "0x3a10dc1a145da500d5fba38b9ec49c8ff11a981f"
                            },
                            {
                                "decimalAvailable": true,
                                "name": "wad",
                                "type": "uint256",
                                "value": "176,475,514,781,901,217"
                            }
                        ],
                        "signature": "Transfer(address,address,uint256)"
                    },
                    "id": 10,
                    "logData": "0x0000000000000000000000000000000000000000000000000272f78bb22121a1",
                    "logDecoded": true,
                    "operation": "EVENT",
                    "revert": false,
                    "status": true,
                    "topics": [
                        "0xddf252ad1be2c89b69c2b068fc378daa952ba7f163c4a11628f55a4df523b3ef",
                        "0x000000000000000000000000f8ac6fd64251292ef220374cf9913b42b44cd2de",
                        "0x0000000000000000000000003a10dc1a145da500d5fba38b9ec49c8ff11a981f"
                    ]
                },
                "nodeType": 1
            },
            "11": {
                "invocation": {
                    "address": "0x420692f3f9d82341809fc2d0f3fb4a7664201f8f",
                    "callData": "0x000000000000000000000000f8ac6fd64251292ef220374cf9913b42b44cd2de",
                    "decodedMethod": {
                        "callParams": [
                            {
                                "name": "account",
                                "type": "address",
                                "value": "0xf8ac6fd64251292ef220374cf9913b42b44cd2de"
                            }
                        ],
                        "constructorArguments": "",
                        "name": "balanceOf",
                        "returnParams": [
                            {
                                "decimalAvailable": true,
                                "name": "",
                                "type": "uint256",
                                "value": "49,126,061,190,949,032,019"
                            }
                        ],
                        "signature": "balanceOf(address)"
                    },
                    "errorInfo": "",
                    "fromAddress": "0xf8ac6fd64251292ef220374cf9913b42b44cd2de",
                    "gasUsed": 642,
                    "id": 11,
                    "methodDecoded": true,
                    "operation": "STATICCALL",
                    "output": "0x000000000000000000000000000000000000000000000002a9c2d45f449ed053",
                    "revert": false,
                    "revertMessage": "",
                    "selector": "0x70a08231",
                    "status": true,
                    "value": "0"
                },
                "nodeType": 0
            },
            "12": {
                "invocation": {
                    "address": "0xc02aaa39b223fe8d0a0e5c4f27ead9083c756cc2",
                    "callData": "0x000000000000000000000000f8ac6fd64251292ef220374cf9913b42b44cd2de",
                    "decodedMethod": {
                        "callParams": [
                            {
                                "name": "",
                                "type": "address",
                                "value": "0xf8ac6fd64251292ef220374cf9913b42b44cd2de"
                            }
                        ],
                        "constructorArguments": "",
                        "name": "balanceOf",
                        "returnParams": [
                            {
                                "decimalAvailable": true,
                                "name": "",
                                "type": "uint256",
                                "value": "8,331,873,754,696,612,994"
                            }
                        ],
                        "signature": "balanceOf(address)"
                    },
                    "errorInfo": "",
                    "fromAddress": "0xf8ac6fd64251292ef220374cf9913b42b44cd2de",
                    "gasUsed": 534,
                    "id": 12,
                    "methodDecoded": true,
                    "operation": "STATICCALL",
                    "output": "0x00000000000000000000000000000000000000000000000073a0c30926177c82",
                    "revert": false,
                    "revertMessage": "",
                    "selector": "0x70a08231",
                    "status": true,
                    "value": "0"
                },
                "nodeType": 0
            },
            "13": {
                "event": {
                    "contract": "0xf8ac6fd64251292ef220374cf9913b42b44cd2de",
                    "decodedLog": {
                        "name": "Sync",
                        "params": [
                            {
                                "name": "reserve0",
                                "type": "uint112",
                                "value": "49,126,061,190,949,032,019"
                            },
                            {
                                "name": "reserve1",
                                "type": "uint112",
                                "value": "8,331,873,754,696,612,994"
                            }
                        ],
                        "signature": "Sync(uint112,uint112)"
                    },
                    "id": 13,
                    "logData": "0x000000000000000000000000000000000000000000000002a9c2d45f449ed05300000000000000000000000000000000000000000000000073a0c30926177c82",
                    "logDecoded": true,
                    "operation": "EVENT",
                    "revert": false,
                    "status": true,
                    "topics": [
                        "0x1c411e9a96e071241c2f21f7726b17ae89e3cab4c78be50e062b03a9fffbbad1"
                    ]
                },
                "nodeType": 1
            },
            "14": {
                "event": {
                    "contract": "0xf8ac6fd64251292ef220374cf9913b42b44cd2de",
                    "decodedLog": {
                        "name": "Swap",
                        "params": [
                            {
                                "name": "sender",
                                "type": "address",
                                "value": "0x3a10dc1a145da500d5fba38b9ec49c8ff11a981f"
                            },
                            {
                                "name": "to",
                                "type": "address",
                                "value": "0x3a10dc1a145da500d5fba38b9ec49c8ff11a981f"
                            },
                            {
                                "name": "amount0In",
                                "type": "uint256",
                                "value": "1,021,948,075,889,147,352"
                            },
                            {
                                "name": "amount1In",
                                "type": "uint256",
                                "value": "0"
                            },
                            {
                                "name": "amount0Out",
                                "type": "uint256",
                                "value": "0"
                            },
                            {
                                "name": "amount1Out",
                                "type": "uint256",
                                "value": "176,475,514,781,901,217"
                            }
                        ],
                        "signature": "Swap(address,uint256,uint256,uint256,uint256,address)"
                    },
                    "id": 14,
                    "logData": "0x0000000000000000000000000000000000000000000000000e2eb05c4a443dd8000000000000000000000000000000000000000000000000000000000000000000000000000000000000000000000000000000000000000000000000000000000000000000000000000000000000000000000000000000000272f78bb22121a1",
                    "logDecoded": true,
                    "operation": "EVENT",
                    "revert": false,
                    "status": true,
                    "topics": [
                        "0xd78ad95fa46c994b6551d0da85fc275fe613ce37657fb8d5e3d130840159d822",
                        "0x0000000000000000000000003a10dc1a145da500d5fba38b9ec49c8ff11a981f",
                        "0x0000000000000000000000003a10dc1a145da500d5fba38b9ec49c8ff11a981f"
                    ]
                },
                "nodeType": 1
            },
            "15": {
                "invocation": {
                    "address": "0xc02aaa39b223fe8d0a0e5c4f27ead9083c756cc2",
                    "callData": "0x0000000000000000000000003a10dc1a145da500d5fba38b9ec49c8ff11a981f",
                    "decodedMethod": {
                        "callParams": [
                            {
                                "name": "",
                                "type": "address",
                                "value": "0x3a10dc1a145da500d5fba38b9ec49c8ff11a981f"
                            }
                        ],
                        "constructorArguments": "",
                        "name": "balanceOf",
                        "returnParams": [
                            {
                                "decimalAvailable": true,
                                "name": "",
                                "type": "uint256",
                                "value": "176,475,514,781,901,217"
                            }
                        ],
                        "signature": "balanceOf(address)"
                    },
                    "errorInfo": "",
                    "fromAddress": "0x3a10dc1a145da500d5fba38b9ec49c8ff11a981f",
                    "gasUsed": 534,
                    "id": 15,
                    "methodDecoded": true,
                    "operation": "STATICCALL",
                    "output": "0x0000000000000000000000000000000000000000000000000272f78bb22121a1",
                    "revert": false,
                    "revertMessage": "",
                    "selector": "0x70a08231",
                    "status": true,
                    "value": "0"
                },
                "nodeType": 0
            },
            "16": {
                "invocation": {
                    "address": "0xc02aaa39b223fe8d0a0e5c4f27ead9083c756cc2",
                    "callData": "0x0000000000000000000000000000000000000000000000000272f78bb22121a1",
                    "decodedMethod": {
                        "callParams": [
                            {
                                "name": "wad",
                                "type": "uint256",
                                "value": "176,475,514,781,901,217"
                            }
                        ],
                        "constructorArguments": "",
                        "name": "withdraw",
                        "returnParams": [],
                        "signature": "withdraw(uint256)"
                    },
                    "errorInfo": "",
                    "fromAddress": "0x3a10dc1a145da500d5fba38b9ec49c8ff11a981f",
                    "gasUsed": 9827,
                    "id": 16,
                    "methodDecoded": true,
                    "operation": "CALL",
                    "output": "",
                    "revert": false,
                    "revertMessage": "",
                    "selector": "0x2e1a7d4d",
                    "status": true,
                    "value": "0"
                },
                "nodeType": 0
            },
            "17": {
                "invocation": {
                    "address": "0x3a10dc1a145da500d5fba38b9ec49c8ff11a981f",
                    "callData": "0x",
                    "decodedMethod": null,
                    "errorInfo": "",
                    "fromAddress": "0xc02aaa39b223fe8d0a0e5c4f27ead9083c756cc2",
                    "gasUsed": 687,
                    "id": 17,
                    "methodDecoded": false,
                    "operation": "CALL",
                    "output": "",
                    "revert": false,
                    "revertMessage": "",
                    "selector": "fallback",
                    "status": true,
                    "value": "0.176475514781901217"
                },
                "nodeType": 0
            },
            "18": {
                "invocation": {
                    "address": "0xb8f86926487c91bf0fd52179cfbfe1bcd4c06bab",
                    "callData": "0x",
                    "decodedMethod": null,
                    "errorInfo": "",
                    "fromAddress": "0x3a10dc1a145da500d5fba38b9ec49c8ff11a981f",
                    "gasUsed": 55,
                    "id": 18,
                    "methodDecoded": false,
                    "operation": "DELEGATECALL",
                    "output": "",
                    "revert": false,
                    "revertMessage": "",
                    "selector": "fallback",
                    "status": true,
                    "value": "0.176475514781901217"
                },
                "nodeType": 0
            },
            "19": {
                "event": {
                    "contract": "0xc02aaa39b223fe8d0a0e5c4f27ead9083c756cc2",
                    "decodedLog": {
                        "name": "Withdrawal",
                        "params": [
                            {
                                "name": "src",
                                "type": "address",
                                "value": "0x3a10dc1a145da500d5fba38b9ec49c8ff11a981f"
                            },
                            {
                                "name": "wad",
                                "type": "uint256",
                                "value": "176,475,514,781,901,217"
                            }
                        ],
                        "signature": "Withdrawal(address,uint256)"
                    },
                    "id": 19,
                    "logData": "0x0000000000000000000000000000000000000000000000000272f78bb22121a1",
                    "logDecoded": true,
                    "operation": "EVENT",
                    "revert": false,
                    "status": true,
                    "topics": [
                        "0x7fcf532c15f0a6db0bd6d0e038bea71d30d808c7d98cb3bf7268a95bf5081b65",
                        "0x0000000000000000000000003a10dc1a145da500d5fba38b9ec49c8ff11a981f"
                    ]
                },
                "nodeType": 1
            },
            "2": {
                "invocation": {
                    "address": "0xc02aaa39b223fe8d0a0e5c4f27ead9083c756cc2",
                    "callData": "0x0000000000000000000000003a10dc1a145da500d5fba38b9ec49c8ff11a981f",
                    "decodedMethod": {
                        "callParams": [
                            {
                                "name": "",
                                "type": "address",
                                "value": "0x3a10dc1a145da500d5fba38b9ec49c8ff11a981f"
                            }
                        ],
                        "constructorArguments": "",
                        "name": "balanceOf",
                        "returnParams": [
                            {
                                "decimalAvailable": true,
                                "name": "",
                                "type": "uint256",
                                "value": "0"
                            }
                        ],
                        "signature": "balanceOf(address)"
                    },
                    "errorInfo": "",
                    "fromAddress": "0x3a10dc1a145da500d5fba38b9ec49c8ff11a981f",
                    "gasUsed": 2534,
                    "id": 2,
                    "methodDecoded": true,
                    "operation": "STATICCALL",
                    "output": "0x0000000000000000000000000000000000000000000000000000000000000000",
                    "revert": false,
                    "revertMessage": "",
                    "selector": "0x70a08231",
                    "status": true,
                    "value": "0"
                },
                "nodeType": 0
            },
            "20": {
                "invocation": {
                    "address": "0xba4f009730cf90253579a62a6a6f1dda8c31a233",
                    "callData": "0x",
                    "decodedMethod": null,
                    "errorInfo": "",
                    "fromAddress": "0x3a10dc1a145da500d5fba38b9ec49c8ff11a981f",
                    "gasUsed": 0,
                    "id": 20,
                    "methodDecoded": false,
                    "operation": "CALL",
                    "output": "",
                    "revert": false,
                    "revertMessage": "",
                    "selector": "fallback",
                    "status": true,
                    "value": "0.174710759634082205"
                },
                "nodeType": 0
            },
            "21": {
                "event": {
                    "contract": "0x3a10dc1a145da500d5fba38b9ec49c8ff11a981f",
                    "decodedLog": null,
                    "id": 21,
                    "logData": "0x00000000000000000000000000000000000000000000000000000000000000000000000000000000000000000000000000000000000000000000000000000000",
                    "logDecoded": false,
                    "operation": "EVENT",
                    "revert": false,
                    "status": true,
                    "topics": [
                        "0x24c07d9526daec95fb72ea7cecc4cfc860c60f857757a60e897a08c0cf534e08"
                    ]
                },
                "nodeType": 1
            },
            "22": {
                "event": {
                    "contract": "0x3a10dc1a145da500d5fba38b9ec49c8ff11a981f",
                    "decodedLog": null,
                    "id": 22,
                    "logData": "0x000000000000000000000000ba4f009730cf90253579a62a6a6f1dda8c31a233000000000000000000000000000000000000000000000000026cb2829e6d999d",
                    "logDecoded": false,
                    "operation": "EVENT",
                    "revert": false,
                    "status": true,
                    "topics": [
                        "0xbb9b838bf8ee8d0eb7d0a37afd5cdd707661780ede55ba2c8384368ca0c9db16"
                    ]
                },
                "nodeType": 1
            },
            "23": {
                "event": {
                    "contract": "0x3a10dc1a145da500d5fba38b9ec49c8ff11a981f",
                    "decodedLog": null,
                    "id": 23,
                    "logData": "0x000000000000000000000000ba4f009730cf90253579a62a6a6f1dda8c31a2330000000000000000000000000000000000000000000000000006450913b38804",
                    "logDecoded": false,
                    "operation": "EVENT",
                    "revert": false,
                    "status": true,
                    "topics": [
                        "0x3310ea14266209db2516cc8eae3e55230d2376e02becfb8094363ad465b7794c"
                    ]
                },
                "nodeType": 1
            },
            "3": {
                "invocation": {
                    "address": "0x420692f3f9d82341809fc2d0f3fb4a7664201f8f",
                    "callData": "0x000000000000000000000000ba4f009730cf90253579a62a6a6f1dda8c31a233000000000000000000000000f8ac6fd64251292ef220374cf9913b42b44cd2de0000000000000000000000000000000000000000000000000e2eb05c4a443dd8",
                    "decodedMethod": {
                        "callParams": [
                            {
                                "name": "sender",
                                "type": "address",
                                "value": "0xba4f009730cf90253579a62a6a6f1dda8c31a233"
                            },
                            {
                                "name": "recipient",
                                "type": "address",
                                "value": "0xf8ac6fd64251292ef220374cf9913b42b44cd2de"
                            },
                            {
                                "decimalAvailable": true,
                                "name": "amount",
                                "type": "uint256",
                                "value": "1,021,948,075,889,147,352"
                            }
                        ],
                        "constructorArguments": "",
                        "name": "transferFrom",
                        "returnParams": [
                            {
                                "name": "",
                                "type": "bool",
                                "value": true
                            }
                        ],
                        "signature": "transferFrom(address,address,uint256)"
                    },
                    "errorInfo": "",
                    "fromAddress": "0x3a10dc1a145da500d5fba38b9ec49c8ff11a981f",
                    "gasUsed": 40285,
                    "id": 3,
                    "methodDecoded": true,
                    "operation": "CALL",
                    "output": "0x0000000000000000000000000000000000000000000000000000000000000001",
                    "revert": false,
                    "revertMessage": "",
                    "selector": "0x23b872dd",
                    "status": true,
                    "value": "0"
                },
                "nodeType": 0
            },
            "4": {
                "event": {
                    "contract": "0x420692f3f9d82341809fc2d0f3fb4a7664201f8f",
                    "decodedLog": {
                        "name": "Transfer",
                        "params": [
                            {
                                "name": "from",
                                "type": "address",
                                "value": "0xba4f009730cf90253579a62a6a6f1dda8c31a233"
                            },
                            {
                                "name": "to",
                                "type": "address",
                                "value": "0xf8ac6fd64251292ef220374cf9913b42b44cd2de"
                            },
                            {
                                "decimalAvailable": true,
                                "name": "value",
                                "type": "uint256",
                                "value": "1,021,948,075,889,147,352"
                            }
                        ],
                        "signature": "Transfer(address,address,uint256)"
                    },
                    "id": 4,
                    "logData": "0x0000000000000000000000000000000000000000000000000e2eb05c4a443dd8",
                    "logDecoded": true,
                    "operation": "EVENT",
                    "revert": false,
                    "status": true,
                    "topics": [
                        "0xddf252ad1be2c89b69c2b068fc378daa952ba7f163c4a11628f55a4df523b3ef",
                        "0x000000000000000000000000ba4f009730cf90253579a62a6a6f1dda8c31a233",
                        "0x000000000000000000000000f8ac6fd64251292ef220374cf9913b42b44cd2de"
                    ]
                },
                "nodeType": 1
            },
            "5": {
                "event": {
                    "contract": "0x420692f3f9d82341809fc2d0f3fb4a7664201f8f",
                    "decodedLog": {
                        "name": "Approval",
                        "params": [
                            {
                                "name": "owner",
                                "type": "address",
                                "value": "0xba4f009730cf90253579a62a6a6f1dda8c31a233"
                            },
                            {
                                "name": "spender",
                                "type": "address",
                                "value": "0x3a10dc1a145da500d5fba38b9ec49c8ff11a981f"
                            },
                            {
                                "decimalAvailable": true,
                                "name": "value",
                                "type": "uint256",
                                "value": "115,792,089,237,316,195,423,570,985,008,687,907,853,269,984,665,640,564,039,456,562,059,837,240,492,583"
                            }
                        ],
                        "signature": "Approval(address,address,uint256)"
                    },
                    "id": 5,
                    "logData": "0xfffffffffffffffffffffffffffffffffffffffffffffffff1d14fa3b5bbc227",
                    "logDecoded": true,
                    "operation": "EVENT",
                    "revert": false,
                    "status": true,
                    "topics": [
                        "0x8c5be1e5ebec7d5bd14f71427d1e84f3dd0314c0f7b2291e5b200ac8c7c3b925",
                        "0x000000000000000000000000ba4f009730cf90253579a62a6a6f1dda8c31a233",
                        "0x0000000000000000000000003a10dc1a145da500d5fba38b9ec49c8ff11a981f"
                    ]
                },
                "nodeType": 1
            },
            "6": {
                "invocation": {
                    "address": "0xf8ac6fd64251292ef220374cf9913b42b44cd2de",
                    "callData": "0x",
                    "decodedMethod": {
                        "callParams": [],
                        "constructorArguments": "",
                        "name": "getReserves",
                        "returnParams": [
                            {
                                "name": "_reserve0",
                                "type": "uint112",
                                "value": "48,104,113,115,059,884,667"
                            },
                            {
                                "name": "_reserve1",
                                "type": "uint112",
                                "value": "8,508,349,269,478,514,211"
                            },
                            {
                                "name": "_blockTimestampLast",
                                "type": "uint32",
                                "value": "1,723,216,151"
                            }
                        ],
                        "signature": "getReserves()"
                    },
                    "errorInfo": "",
                    "fromAddress": "0x3a10dc1a145da500d5fba38b9ec49c8ff11a981f",
                    "gasUsed": 2504,
                    "id": 6,
                    "methodDecoded": true,
                    "operation": "STATICCALL",
                    "output": "0x0000000000000000000000000000000000000000000000029b942402fa5a927b0000000000000000000000000000000000000000000000007613ba94d8389e230000000000000000000000000000000000000000000000000000000066b63117",
                    "revert": false,
                    "revertMessage": "",
                    "selector": "0x0902f1ac",
                    "status": true,
                    "value": "0"
                },
                "nodeType": 0
            },
            "7": {
                "invocation": {
                    "address": "0x420692f3f9d82341809fc2d0f3fb4a7664201f8f",
                    "callData": "0x000000000000000000000000f8ac6fd64251292ef220374cf9913b42b44cd2de",
                    "decodedMethod": {
                        "callParams": [
                            {
                                "name": "account",
                                "type": "address",
                                "value": "0xf8ac6fd64251292ef220374cf9913b42b44cd2de"
                            }
                        ],
                        "constructorArguments": "",
                        "name": "balanceOf",
                        "returnParams": [
                            {
                                "decimalAvailable": true,
                                "name": "",
                                "type": "uint256",
                                "value": "49,126,061,190,949,032,019"
                            }
                        ],
                        "signature": "balanceOf(address)"
                    },
                    "errorInfo": "",
                    "fromAddress": "0x3a10dc1a145da500d5fba38b9ec49c8ff11a981f",
                    "gasUsed": 642,
                    "id": 7,
                    "methodDecoded": true,
                    "operation": "STATICCALL",
                    "output": "0x000000000000000000000000000000000000000000000002a9c2d45f449ed053",
                    "revert": false,
                    "revertMessage": "",
                    "selector": "0x70a08231",
                    "status": true,
                    "value": "0"
                },
                "nodeType": 0
            },
            "8": {
                "invocation": {
                    "address": "0xf8ac6fd64251292ef220374cf9913b42b44cd2de",
                    "callData": "0x00000000000000000000000000000000000000000000000000000000000000000000000000000000000000000000000000000000000000000272f78bb22121a10000000000000000000000003a10dc1a145da500d5fba38b9ec49c8ff11a981f00000000000000000000000000000000000000000000000000000000000000800000000000000000000000000000000000000000000000000000000000000000",
                    "decodedMethod": {
                        "callParams": [
                            {
                                "name": "amount0Out",
                                "type": "uint256",
                                "value": "0"
                            },
                            {
                                "name": "amount1Out",
                                "type": "uint256",
                                "value": "176,475,514,781,901,217"
                            },
                            {
                                "name": "to",
                                "type": "address",
                                "value": "0x3a10dc1a145da500d5fba38b9ec49c8ff11a981f"
                            },
                            {
                                "name": "data",
                                "type": "bytes",
                                "value": "0x"
                            }
                        ],
                        "constructorArguments": "",
                        "name": "swap",
                        "returnParams": [],
                        "signature": "swap(uint256,uint256,address,bytes)"
                    },
                    "errorInfo": "",
                    "fromAddress": "0x3a10dc1a145da500d5fba38b9ec49c8ff11a981f",
                    "gasUsed": 60461,
                    "id": 8,
                    "methodDecoded": true,
                    "operation": "CALL",
                    "output": "",
                    "revert": false,
                    "revertMessage": "",
                    "selector": "0x022c0d9f",
                    "status": true,
                    "value": "0"
                },
                "nodeType": 0
            },
            "9": {
                "invocation": {
                    "address": "0xc02aaa39b223fe8d0a0e5c4f27ead9083c756cc2",
                    "callData": "0x0000000000000000000000003a10dc1a145da500d5fba38b9ec49c8ff11a981f0000000000000000000000000000000000000000000000000272f78bb22121a1",
                    "decodedMethod": {
                        "callParams": [
                            {
                                "name": "dst",
                                "type": "address",
                                "value": "0x3a10dc1a145da500d5fba38b9ec49c8ff11a981f"
                            },
                            {
                                "decimalAvailable": true,
                                "name": "wad",
                                "type": "uint256",
                                "value": "176,475,514,781,901,217"
                            }
                        ],
                        "constructorArguments": "",
                        "name": "transfer",
                        "returnParams": [
                            {
                                "name": "",
                                "type": "bool",
                                "value": true
                            }
                        ],
                        "signature": "transfer(address,uint256)"
                    },
                    "errorInfo": "",
                    "fromAddress": "0xf8ac6fd64251292ef220374cf9913b42b44cd2de",
                    "gasUsed": 27962,
                    "id": 9,
                    "methodDecoded": true,
                    "operation": "CALL",
                    "output": "0x0000000000000000000000000000000000000000000000000000000000000001",
                    "revert": false,
                    "revertMessage": "",
                    "selector": "0xa9059cbb",
                    "status": true,
                    "value": "0"
                },
                "nodeType": 0
            }
        },
        "gasFlame": [
            {
                "children": [
                    {
                        "children": [
                            {
                                "children": [],
                                "depth": 0,
                                "name": "Initial Gas",
                                "value": 23336
                            },
                            {
                                "children": [
                                    {
                                        "children": [
                                            {
                                                "children": [],
                                                "depth": 2,
                                                "name": "balanceOf",
                                                "value": 2534
                                            },
                                            {
                                                "children": [],
                                                "depth": 2,
                                                "name": "transferFrom",
                                                "value": 40285
                                            },
                                            {
                                                "children": [],
                                                "depth": 2,
                                                "name": "getReserves",
                                                "value": 2504
                                            },
                                            {
                                                "children": [],
                                                "depth": 2,
                                                "name": "balanceOf",
                                                "value": 642
                                            },
                                            {
                                                "children": [
                                                    {
                                                        "children": [],
                                                        "depth": 3,
                                                        "name": "transfer",
                                                        "value": 27962
                                                    },
                                                    {
                                                        "children": [],
                                                        "depth": 3,
                                                        "name": "balanceOf",
                                                        "value": 642
                                                    },
                                                    {
                                                        "children": [],
                                                        "depth": 3,
                                                        "name": "balanceOf",
                                                        "value": 534
                                                    }
                                                ],
                                                "depth": 2,
                                                "name": "swap",
                                                "value": 60461
                                            },
                                            {
                                                "children": [],
                                                "depth": 2,
                                                "name": "balanceOf",
                                                "value": 534
                                            },
                                            {
                                                "children": [
                                                    {
                                                        "children": [
                                                            {
                                                                "children": [],
                                                                "depth": 4,
                                                                "name": "fallback",
                                                                "value": 55
                                                            }
                                                        ],
                                                        "depth": 3,
                                                        "name": "fallback",
                                                        "value": 687
                                                    }
                                                ],
                                                "depth": 2,
                                                "name": "withdraw",
                                                "value": 9827
                                            },
                                            {
                                                "children": [],
                                                "depth": 2,
                                                "name": "fallback",
                                                "value": 0
                                            }
                                        ],
                                        "depth": 1,
                                        "name": "SigmaSell",
                                        "value": 161942
                                    }
                                ],
                                "depth": 0,
                                "name": "Executed Gas",
                                "value": 169130
                            }
                        ],
                        "depth": -1,
                        "name": "Actual Gas Used",
                        "value": 164966
                    },
                    {
                        "children": [],
                        "depth": -1,
                        "name": "Refunded Gas",
                        "value": 27500
                    }
                ],
                "depth": -2,
                "name": "Total Gas",
                "value": 192466
            }
        ],
        "isConfirmed": true,
        "mainTrace": [
            {
                "children": [
                    {
                        "children": [
                            {
                                "children": [
                                    {
                                        "children": [],
                                        "depth": 2,
                                        "id": 2,
                                        "order": 2
                                    },
                                    {
                                        "children": [
                                            {
                                                "children": [],
                                                "depth": 3,
                                                "id": 4,
                                                "order": 4
                                            },
                                            {
                                                "children": [],
                                                "depth": 3,
                                                "id": 5,
                                                "order": 5
                                            }
                                        ],
                                        "depth": 2,
                                        "id": 3,
                                        "order": 3
                                    },
                                    {
                                        "children": [],
                                        "depth": 2,
                                        "id": 6,
                                        "order": 6
                                    },
                                    {
                                        "children": [],
                                        "depth": 2,
                                        "id": 7,
                                        "order": 7
                                    },
                                    {
                                        "children": [
                                            {
                                                "children": [
                                                    {
                                                        "children": [],
                                                        "depth": 4,
                                                        "id": 10,
                                                        "order": 10
                                                    }
                                                ],
                                                "depth": 3,
                                                "id": 9,
                                                "order": 9
                                            },
                                            {
                                                "children": [],
                                                "depth": 3,
                                                "id": 11,
                                                "order": 11
                                            },
                                            {
                                                "children": [],
                                                "depth": 3,
                                                "id": 12,
                                                "order": 12
                                            },
                                            {
                                                "children": [],
                                                "depth": 3,
                                                "id": 13,
                                                "order": 13
                                            },
                                            {
                                                "children": [],
                                                "depth": 3,
                                                "id": 14,
                                                "order": 14
                                            }
                                        ],
                                        "depth": 2,
                                        "id": 8,
                                        "order": 8
                                    },
                                    {
                                        "children": [],
                                        "depth": 2,
                                        "id": 15,
                                        "order": 15
                                    },
                                    {
                                        "children": [
                                            {
                                                "children": [
                                                    {
                                                        "children": [],
                                                        "depth": 4,
                                                        "id": 18,
                                                        "order": 18
                                                    }
                                                ],
                                                "depth": 3,
                                                "id": 17,
                                                "order": 17
                                            },
                                            {
                                                "children": [],
                                                "depth": 3,
                                                "id": 19,
                                                "order": 19
                                            }
                                        ],
                                        "depth": 2,
                                        "id": 16,
                                        "order": 16
                                    },
                                    {
                                        "children": [],
                                        "depth": 2,
                                        "id": 20,
                                        "order": 20
                                    },
                                    {
                                        "children": [],
                                        "depth": 2,
                                        "id": 21,
                                        "order": 21
                                    },
                                    {
                                        "children": [],
                                        "depth": 2,
                                        "id": 22,
                                        "order": 22
                                    },
                                    {
                                        "children": [],
                                        "depth": 2,
                                        "id": 23,
                                        "order": 23
                                    }
                                ],
                                "depth": 1,
                                "id": 1,
                                "order": 1
                            }
                        ],
                        "depth": 0,
                        "id": 0,
                        "order": 0
                    }
                ],
                "depth": -1,
                "id": -1,
                "order": -1
            }
        ],
        "mainTraceNodeCount": 24,
        "parentIdMap": {
            "0": -1,
            "1": 0,
            "10": 9,
            "11": 8,
            "12": 8,
            "13": 8,
            "14": 8,
            "15": 1,
            "16": 1,
            "17": 16,
            "18": 17,
            "19": 16,
            "2": 1,
            "20": 1,
            "21": 1,
            "22": 1,
            "23": 1,
            "3": 1,
            "4": 3,
            "5": 3,
            "6": 1,
            "7": 1,
            "8": 1,
            "9": 8
        },
        "tidyTrace": [
            {
                "children": [
                    {
                        "children": [
                            {
                                "children": [
                                    {
                                        "children": [
                                            {
                                                "children": [],
                                                "depth": 3,
                                                "id": 4,
                                                "order": 4
                                            },
                                            {
                                                "children": [],
                                                "depth": 3,
                                                "id": 5,
                                                "order": 5
                                            }
                                        ],
                                        "depth": 2,
                                        "id": 3,
                                        "order": 3
                                    },
                                    {
                                        "children": [
                                            {
                                                "children": [
                                                    {
                                                        "children": [],
                                                        "depth": 4,
                                                        "id": 10,
                                                        "order": 10
                                                    }
                                                ],
                                                "depth": 3,
                                                "id": 9,
                                                "order": 9
                                            },
                                            {
                                                "children": [],
                                                "depth": 3,
                                                "id": 13,
                                                "order": 13
                                            },
                                            {
                                                "children": [],
                                                "depth": 3,
                                                "id": 14,
                                                "order": 14
                                            }
                                        ],
                                        "depth": 2,
                                        "id": 8,
                                        "order": 8
                                    },
                                    {
                                        "children": [
                                            {
                                                "children": [
                                                    {
                                                        "children": [],
                                                        "depth": 4,
                                                        "id": 18,
                                                        "order": 18
                                                    }
                                                ],
                                                "depth": 3,
                                                "id": 17,
                                                "order": 17
                                            },
                                            {
                                                "children": [],
                                                "depth": 3,
                                                "id": 19,
                                                "order": 19
                                            }
                                        ],
                                        "depth": 2,
                                        "id": 16,
                                        "order": 16
                                    },
                                    {
                                        "children": [],
                                        "depth": 2,
                                        "id": 20,
                                        "order": 20
                                    },
                                    {
                                        "children": [],
                                        "depth": 2,
                                        "id": 21,
                                        "order": 21
                                    },
                                    {
                                        "children": [],
                                        "depth": 2,
                                        "id": 22,
                                        "order": 22
                                    },
                                    {
                                        "children": [],
                                        "depth": 2,
                                        "id": 23,
                                        "order": 23
                                    }
                                ],
                                "depth": 1,
                                "id": 1,
                                "order": 1
                            }
                        ],
                        "depth": 0,
                        "id": 0,
                        "order": 0
                    }
                ],
                "depth": -1,
                "id": -1,
                "order": -1
            }
        ],
        "tidyTraceNodeCount": 18
    },
    "state_change": {
        "stateChanges": [
            {
                "address": "0x420692f3f9d82341809fc2d0f3fb4a7664201f8f",
                "erc": "ERC-20",
                "slots": [
                    {
                        "current": "0x0000000000000000000000000000000000000000000000000000000000000000",
                        "key": "0x2f052e2fe07da72e0914973c467857a3f256eafa40436ae095207d34729e9d15",
                        "prev": "0x0000000000000000000000000000000000000000000000000e2eb05c4a443dd8"
                    },
                    {
                        "current": "0x000000000000000000000000000000000000000000000002a9c2d45f449ed053",
                        "key": "0x4a4cf6135fa87ddaf580764a1ce66fd18220c2ae80f86062758dc51c64861780",
                        "prev": "0x0000000000000000000000000000000000000000000000029b942402fa5a927b"
                    },
                    {
                        "current": "0xfffffffffffffffffffffffffffffffffffffffffffffffff1d14fa3b5bbc227",
                        "key": "0xf10c3b5b64c4021e2794f9eae9c79940c9d28fd007100017d79b9018bcbf2aaa",
                        "prev": "0xffffffffffffffffffffffffffffffffffffffffffffffffffffffffffffffff"
                    }
                ],
                "storageVariables": [
                    {
                        "name": "_balances",
                        "type": "mapping(address => uint256)",
                        "value": {
                            "pairs": [
                                {
                                    "key": "0xba4f009730cf90253579a62a6a6f1dda8c31a233",
                                    "value": {
                                        "current": "0",
                                        "prev": "1021948075889147352",
                                        "typeTag": 1
                                    }
                                },
                                {
                                    "key": "0xf8ac6fd64251292ef220374cf9913b42b44cd2de",
                                    "value": {
                                        "current": "49126061190949032019",
                                        "prev": "48104113115059884667",
                                        "typeTag": 1
                                    }
                                }
                            ],
                            "typeTag": 4
                        }
                    },
                    {
                        "name": "_allowances",
                        "type": "mapping(address => mapping(address => uint256))",
                        "value": {
                            "pairs": [
                                {
                                    "key": "0xba4f009730cf90253579a62a6a6f1dda8c31a233",
                                    "value": {
                                        "pairs": [
                                            {
                                                "key": "0x3a10dc1a145da500d5fba38b9ec49c8ff11a981f",
                                                "value": {
                                                    "current": "115792089237316195423570985008687907853269984665640564039456562059837240492583",
                                                    "prev": "115792089237316195423570985008687907853269984665640564039457584007913129639935",
                                                    "typeTag": 1
                                                }
                                            }
                                        ],
                                        "typeTag": 4
                                    }
                                }
                            ],
                            "typeTag": 4
                        }
                    }
                ]
            },
            {
                "address": "0xc02aaa39b223fe8d0a0e5c4f27ead9083c756cc2",
                "erc": "ERC-20",
                "slots": [
                    {
                        "current": "0x00000000000000000000000000000000000000000000000073a0c30926177c82",
                        "key": "0xd82178587b13ea072c90880741e74e95ddd7e60dfc8879e1db487bf8fdbe9641",
                        "prev": "0x0000000000000000000000000000000000000000000000007613ba94d8389e23"
                    }
                ],
                "storageVariables": [
                    {
                        "name": "balanceOf",
                        "type": "mapping(address => uint256)",
                        "value": {
                            "pairs": [
                                {
                                    "key": "0xf8ac6fd64251292ef220374cf9913b42b44cd2de",
                                    "value": {
                                        "current": "8331873754696612994",
                                        "prev": "8508349269478514211",
                                        "typeTag": 1
                                    }
                                }
                            ],
                            "typeTag": 4
                        }
                    }
                ]
            },
            {
                "address": "0xf8ac6fd64251292ef220374cf9913b42b44cd2de",
                "erc": "ERC-20",
                "slots": [
                    {
                        "current": "0x00000000000000000000000000000000340562f7dca2af72473cf16d5f038ecc",
                        "key": "0x000000000000000000000000000000000000000000000000000000000000000a",
                        "prev": "0x000000000000000000000000000000003339d9f8d4cb6e51d382fd1e9c3e4804"
                    },
                    {
                        "current": "0x66b6313b00000000000073a0c30926177c82000000000002a9c2d45f449ed053",
                        "key": "0x0000000000000000000000000000000000000000000000000000000000000008",
                        "prev": "0x66b631170000000000007613ba94d8389e230000000000029b942402fa5a927b"
                    },
                    {
                        "current": "0x0000000000000000000000000000000001bdf4b3c2708bf20b90fe0221b5b11c",
                        "key": "0x0000000000000000000000000000000000000000000000000000000000000009",
                        "prev": "0x0000000000000000000000000000000001b796a280f1106f9da33111633f2918"
                    }
                ],
                "storageVariables": [
                    {
                        "name": "price1CumulativeLast",
                        "type": "uint256",
                        "value": {
                            "current": "69147824578888975081803606816104615628",
                            "prev": "68091009703292245636205450437945346052",
                            "typeTag": 1
                        }
                    },
                    {
                        "name": "reserve0",
                        "type": "uint112",
                        "value": {
                            "current": "49126061190949032019",
                            "prev": "48104113115059884667",
                            "typeTag": 1
                        }
                    },
                    {
                        "name": "reserve1",
                        "type": "uint112",
                        "value": {
                            "current": "8331873754696612994",
                            "prev": "8508349269478514211",
                            "typeTag": 1
                        }
                    },
                    {
                        "name": "blockTimestampLast",
                        "type": "uint32",
                        "value": {
                            "current": "1723216187",
                            "prev": "1723216151",
                            "typeTag": 1
                        }
                    },
                    {
                        "name": "price0CumulativeLast",
                        "type": "uint256",
                        "value": {
                            "current": "2315535252008531826620354974927139100",
                            "prev": "2282473557205174386781759290208102680",
                            "typeTag": 1
                        }
                    }
                ]
            }
        ]
    }
}