{
    "balance_change": {
        "balanceChanges": [
            {
                "account": "0x51c0a4dda1223af0279cef1f5c09ee45869dd321",
                "assets": [
                    {
                        "address": "0x115e29615d1c10c8ddf826e4faec64ef6c1e3357",
                        "amount": "3.2967033",
                        "iconUrl": "",
                        "isERC1155": false,
                        "isERC721": false,
                        "sign": false,
                        "value": ""
                    }
                ]
            },
            {
                "account": "0x0fdeb6f2055b38192cba98f2583b690898e33475",
                "assets": [
                    {
                        "address": "0x115e29615d1c10c8ddf826e4faec64ef6c1e3357",
                        "amount": "3.2967033",
                        "iconUrl": "",
                        "isERC1155": false,
                        "isERC721": false,
                        "sign": true,
                        "value": ""
                    }
                ]
            }
        ]
    },
    "profile": {
        "basic_info": {
            "baseFee": "",
            "blockNumber": 9868962,
            "callData": "0xa9059cbb0000000000000000000000000fdeb6f2055b38192cba98f2583b690898e334750000000000000000000000000000000000000000000000000000000013a65eba",
            "debugEnable": true,
            "errorInfo": "",
            "eventCount": 1,
            "feeRecipient": "0x84a0d77c693adabe0ebc48f88b3ffff010577051",
            "formatValue": "0",
            "gasLimit": 80000,
            "gasPrice": "15",
            "gasUsed": 51273,
            "intTxnCount": 0,
            "internalRevert": false,
            "internalRevertMessage": "",
            "isContractCreation": false,
            "isFlashloan": false,
            "maxFee": "",
            "nonce": 10607,
            "overwritedBlockNumber": -1,
            "priorityFee": "",
            "receiver": "0x115e29615d1c10c8ddf826e4faec64ef6c1e3357",
            "revertMessage": "",
            "sender": "0x51c0a4dda1223af0279cef1f5c09ee45869dd321",
            "simulationEnable": true,
            "sourceTxnHash": "0x01f5d1496ee3b1a6ce4c7237d8e8a0c810edcefeb7f13285d87b381d82b9d574",
            "status": true,
            "timestamp": "2020-04-14T06:44:34Z",
            "transactionFee": "0.000769095",
            "txnHash": "0x01f5d1496ee3b1a6ce4c7237d8e8a0c810edcefeb7f13285d87b381d82b9d574",
            "txnIndex": 23,
            "type": 0,
            "value": "0"
        },
        "fund_flow": [
            {
                "amount": "3.2967033",
                "from": "0x51c0a4dda1223af0279cef1f5c09ee45869dd321",
                "id": 1,
                "isERC1155": false,
                "isERC721": false,
                "isReverted": false,
                "order": 1,
                "to": "0x0fdeb6f2055b38192cba98f2583b690898e33475",
                "token": "0x115e29615d1c10c8ddf826e4faec64ef6c1e3357"
            }
        ],
        "token_infos": [
            {
                "address": "0x115e29615d1c10c8ddf826e4faec64ef6c1e3357",
                "decimals": 8
            },
            {
                "address": "0xc02aaa39b223fe8d0a0e5c4f27ead9083c756cc2",
                "decimals": 18
            },
            {
                "address": "0xeeeeeeeeeeeeeeeeeeeeeeeeeeeeeeeeeeeeeeee",
                "decimals": 18
            }
        ]
    },
    "address_label": {
        "labels": [
            {
                "address": "0x0000000000000000000000000000000000000001",
                "label": "Precompiled"
            },
            {
                "address": "0x0000000000000000000000000000000000000002",
                "label": "Precompiled"
            },
            {
                "address": "0x0000000000000000000000000000000000000003",
                "label": "Precompiled"
            },
            {
                "address": "0x0000000000000000000000000000000000000004",
                "label": "Precompiled"
            },
            {
                "address": "0xeeeeeeeeeeeeeeeeeeeeeeeeeeeeeeeeeeeeeeee",
                "label": "Ether"
            },
            {
                "address": "0x115e29615d1c10c8ddf826e4faec64ef6c1e3357",
                "label": "CPTL Coin: CPTL Token"
            }
        ]
    },
    "trace": {
        "accountLabels": null,
        "dataMap": {
            "-1": {
                "invocation": {
                    "address": "0x51c0a4dda1223af0279cef1f5c09ee45869dd321",
                    "callData": "",
                    "decodedMethod": null,
                    "errorInfo": "",
                    "fromAddress": "",
                    "gasUsed": 0,
                    "id": -1,
                    "methodDecoded": false,
                    "operation": "",
                    "output": "",
                    "revert": false,
                    "revertMessage": "",
                    "selector": "",
                    "status": false,
                    "value": ""
                },
                "nodeType": 0
            },
            "0": {
                "invocation": {
                    "address": "0x115e29615d1c10c8ddf826e4faec64ef6c1e3357",
                    "callData": "0x0000000000000000000000000fdeb6f2055b38192cba98f2583b690898e334750000000000000000000000000000000000000000000000000000000013a65eba",
                    "decodedMethod": {
                        "callParams": [
                            {
                                "name": "to",
                                "type": "address",
                                "value": "0x0fdeb6f2055b38192cba98f2583b690898e33475"
                            },
                            {
                                "decimalAvailable": true,
                                "name": "tokens",
                                "type": "uint256",
                                "value": "329,670,330"
                            }
                        ],
                        "constructorArguments": "",
                        "name": "transfer",
                        "returnParams": [
                            {
                                "name": "success",
                                "type": "bool",
                                "value": true
                            }
                        ],
                        "signature": "transfer(address,uint256)"
                    },
                    "errorInfo": "",
                    "fromAddress": "0x51c0a4dda1223af0279cef1f5c09ee45869dd321",
                    "gasUsed": 51273,
                    "id": 0,
                    "methodDecoded": true,
                    "operation": "CALL",
                    "output": "0x0000000000000000000000000000000000000000000000000000000000000001",
                    "revert": false,
                    "revertMessage": "",
                    "selector": "0xa9059cbb",
                    "status": true,
                    "value": "0"
                },
                "nodeType": 0
            },
            "1": {
                "event": {
                    "contract": "0x115e29615d1c10c8ddf826e4faec64ef6c1e3357",
                    "decodedLog": {
                        "name": "Transfer",
                        "params": [
                            {
                                "name": "from",
                                "type": "address",
                                "value": "0x51c0a4dda1223af0279cef1f5c09ee45869dd321"
                            },
                            {
                                "name": "to",
                                "type": "address",
                                "value": "0x0fdeb6f2055b38192cba98f2583b690898e33475"
                            },
                            {
                                "decimalAvailable": true,
                                "name": "tokens",
                                "type": "uint256",
                                "value": "329,670,330"
                            }
                        ],
                        "signature": "Transfer(address,address,uint256)"
                    },
                    "id": 1,
                    "logData": "0x0000000000000000000000000000000000000000000000000000000013a65eba",
                    "logDecoded": true,
                    "operation": "EVENT",
                    "revert": false,
                    "status": true,
                    "topics": [
                        "0xddf252ad1be2c89b69c2b068fc378daa952ba7f163c4a11628f55a4df523b3ef",
                        "0x00000000000000000000000051c0a4dda1223af0279cef1f5c09ee45869dd321",
                        "0x0000000000000000000000000fdeb6f2055b38192cba98f2583b690898e33475"
                    ]
                },
                "nodeType": 1
            }
        },
        "gasFlame": [
            {
                "children": [
                    {
                        "children": [
                            {
                                "children": [],
                                "depth": 0,
                                "name": "Initial Gas",
                                "value": 21608
                            },
                            {
                                "children": [],
                                "depth": 0,
                                "name": "Executed Gas",
                                "value": 29665
                            }
                        ],
                        "depth": -1,
                        "name": "Actual Gas Used",
                        "value": 51273
                    },
                    {
                        "children": [],
                        "depth": -1,
                        "name": "Refunded Gas",
                        "value": 0
                    }
                ],
                "depth": -2,
                "name": "Total Gas",
                "value": 51273
            }
        ],
        "isConfirmed": true,
        "mainTrace": [
            {
                "children": [
                    {
                        "children": [
                            {
                                "children": [],
                                "depth": 1,
                                "id": 1,
                                "order": 1
                            }
                        ],
                        "depth": 0,
                        "id": 0,
                        "order": 0
                    }
                ],
                "depth": -1,
                "id": -1,
                "order": -1
            }
        ],
        "mainTraceNodeCount": 2,
        "parentIdMap": {
            "0": -1,
            "1": 0
        },
        "tidyTrace": [
            {
                "children": [
                    {
                        "children": [
                            {
                                "children": [],
                                "depth": 1,
                                "id": 1,
                                "order": 1
                            }
                        ],
                        "depth": 0,
                        "id": 0,
                        "order": 0
                    }
                ],
                "depth": -1,
                "id": -1,
                "order": -1
            }
        ],
        "tidyTraceNodeCount": 2
    },
    "state_change": {
        "stateChanges": [
            {
                "address": "0x115e29615d1c10c8ddf826e4faec64ef6c1e3357",
                "erc": "ERC-20",
                "slots": [
                    {
                        "current": "0x000000000000000000000000000000000000000000000000000000c4ad8cc7ca",
                        "key": "0xa44c1cfddb019618cf37e515f68a71f80e17a4e6db46b25d17e0d3b7cfc3c625",
                        "prev": "0x000000000000000000000000000000000000000000000000000000c4c1332684"
                    },
                    {
                        "current": "0x0000000000000000000000000000000000000000000000000000000013a65eba",
                        "key": "0x7e91daff76223830a925830ad8b7310ea2da5f2aed7a607ebb4640958e1130e0",
                        "prev": "0x0000000000000000000000000000000000000000000000000000000000000000"
                    }
                ],
                "storageVariables": [
                    {
                        "name": "balances",
                        "type": "mapping(address => uint256)",
                        "value": {
                            "pairs": [
                                {
                                    "key": "0x0fdeb6f2055b38192cba98f2583b690898e33475",
                                    "value": {
                                        "current": "329670330",
                                        "prev": "0",
                                        "typeTag": 1
                                    }
                                },
                                {
                                    "key": "0x51c0a4dda1223af0279cef1f5c09ee45869dd321",
                                    "value": {
                                        "current": "844725274570",
                                        "prev": "845054944900",
                                        "typeTag": 1
                                    }
                                }
                            ],
                            "typeTag": 4
                        }
                    }
                ]
            }
        ]
    }
}