{
    "balance_change": {
        "balanceChanges": [
            {
                "account": "0xd667a1f68bffc35b0909c5362f8502838943aa1f",
                "assets": [
                    {
                        "address": "0xafeeb2c497bc785baca88edca7f9e5cbac9bdf96",
                        "amount": "1",
                        "iconUrl": "",
                        "isERC1155": false,
                        "isERC721": true,
                        "sign": true,
                        "tokenID": "271",
                        "value": ""
                    },
                    {
                        "address": "0xafeeb2c497bc785baca88edca7f9e5cbac9bdf96",
                        "amount": "1",
                        "iconUrl": "",
                        "isERC1155": false,
                        "isERC721": true,
                        "sign": true,
                        "tokenID": "272",
                        "value": ""
                    },
                    {
                        "address": "0xeeeeeeeeeeeeeeeeeeeeeeeeeeeeeeeeeeeeeeee",
                        "amount": "0.0804",
                        "iconUrl": "https://assets.blocksec.com/image/1663669189317-3.png",
                        "isERC1155": false,
                        "isERC721": false,
                        "sign": false,
                        "value": "200.91081412919999838"
                    }
                ]
            },
            {
                "account": "0xafeeb2c497bc785baca88edca7f9e5cbac9bdf96",
                "assets": [
                    {
                        "address": "0xeeeeeeeeeeeeeeeeeeeeeeeeeeeeeeeeeeeeeeee",
                        "amount": "0.0804",
                        "iconUrl": "https://assets.blocksec.com/image/1663669189317-3.png",
                        "isERC1155": false,
                        "isERC721": false,
                        "sign": true,
                        "value": "200.91081412919999838"
                    }
                ]
            },
            {
                "account": "0x0000000000000000000000000000000000000000",
                "assets": [
                    {
                        "address": "0xafeeb2c497bc785baca88edca7f9e5cbac9bdf96",
                        "amount": "1",
                        "iconUrl": "",
                        "isERC1155": false,
                        "isERC721": true,
                        "sign": false,
                        "tokenID": "271",
                        "value": ""
                    },
                    {
                        "address": "0xafeeb2c497bc785baca88edca7f9e5cbac9bdf96",
                        "amount": "1",
                        "iconUrl": "",
                        "isERC1155": false,
                        "isERC721": true,
                        "sign": false,
                        "tokenID": "272",
                        "value": ""
                    }
                ]
            }
        ]
    },
    "profile": {
        "basic_info": {
            "baseFee": "58.19129038",
            "blockNumber": 19193166,
            "callData": "0xa0712d680000000000000000000000000000000000000000000000001be4f459be890000",
            "debugEnable": true,
            "errorInfo": "",
            "eventCount": 3,
            "feeRecipient": "0x1f9090aae28b8a3dceadf281b0f12828e676c326",
            "formatValue": "0.0804",
            "gasLimit": 289155,
            "gasPrice": "58.29129038",
            "gasUsed": 190094,
            "intTxnCount": 0,
            "internalRevert": false,
            "internalRevertMessage": "",
            "isContractCreation": false,
            "isFlashloan": false,
            "maxFee": "66",
            "nonce": 116,
            "overwritedBlockNumber": -1,
            "priorityFee": "0.1",
            "receiver": "0xafeeb2c497bc785baca88edca7f9e5cbac9bdf96",
            "revertMessage": "",
            "sender": "0xd667a1f68bffc35b0909c5362f8502838943aa1f",
            "simulationEnable": true,
            "sourceTxnHash": "0x015d047b0652e38b7cf9b6309b0208e7e5c2d1647e656b85e26652d2c2c2839a",
            "status": true,
            "timestamp": "2024-02-09T21:12:11Z",
            "transactionFee": "0.01108082455349572",
            "txnHash": "0x015d047b0652e38b7cf9b6309b0208e7e5c2d1647e656b85e26652d2c2c2839a",
            "txnIndex": 140,
            "type": 2,
            "value": "80400000000000000"
        },
        "fund_flow": [
            {
                "amount": "0.0804",
                "from": "0xd667a1f68bffc35b0909c5362f8502838943aa1f",
                "id": 1,
                "isERC1155": false,
                "isERC721": false,
                "isReverted": false,
                "order": 1,
                "to": "0xafeeb2c497bc785baca88edca7f9e5cbac9bdf96",
                "token": "0xeeeeeeeeeeeeeeeeeeeeeeeeeeeeeeeeeeeeeeee"
            },
            {
                "amount": "1",
                "from": "0x0000000000000000000000000000000000000000",
                "id": 2,
                "isERC1155": false,
                "isERC721": true,
                "isReverted": false,
                "order": 2,
                "to": "0xd667a1f68bffc35b0909c5362f8502838943aa1f",
                "token": "0xafeeb2c497bc785baca88edca7f9e5cbac9bdf96",
                "tokenID": "271"
            },
            {
                "amount": "1",
                "from": "0x0000000000000000000000000000000000000000",
                "id": 3,
                "isERC1155": false,
                "isERC721": true,
                "isReverted": false,
                "order": 3,
                "to": "0xd667a1f68bffc35b0909c5362f8502838943aa1f",
                "token": "0xafeeb2c497bc785baca88edca7f9e5cbac9bdf96",
                "tokenID": "272"
            }
        ],
        "token_infos": [
            {
                "address": "0xc02aaa39b223fe8d0a0e5c4f27ead9083c756cc2",
                "decimals": 18
            },
            {
                "address": "0xeeeeeeeeeeeeeeeeeeeeeeeeeeeeeeeeeeeeeeee",
                "decimals": 18
            }
        ]
    },
    "address_label": {
        "labels": [
            {
                "address": "0xeeeeeeeeeeeeeeeeeeeeeeeeeeeeeeeeeeeeeeee",
                "label": "Ether"
            },
            {
                "address": "0xafeeb2c497bc785baca88edca7f9e5cbac9bdf96",
                "label": "CardsProject"
            },
            {
                "address": "0x0000000000000000000000000000000000000001",
                "label": "Precompiled"
            },
            {
                "address": "0x0000000000000000000000000000000000000002",
                "label": "Precompiled"
            },
            {
                "address": "0x0000000000000000000000000000000000000003",
                "label": "Precompiled"
            },
            {
                "address": "0x0000000000000000000000000000000000000004",
                "label": "Precompiled"
            }
        ]
    },
    "trace": {
        "accountLabels": null,
        "dataMap": {
            "-1": {
                "invocation": {
                    "address": "0xd667a1f68bffc35b0909c5362f8502838943aa1f",
                    "callData": "",
                    "decodedMethod": null,
                    "errorInfo": "",
                    "fromAddress": "",
                    "gasUsed": 0,
                    "id": -1,
                    "methodDecoded": false,
                    "operation": "",
                    "output": "",
                    "revert": false,
                    "revertMessage": "",
                    "selector": "",
                    "status": false,
                    "value": ""
                },
                "nodeType": 0
            },
            "0": {
                "invocation": {
                    "address": "0xafeeb2c497bc785baca88edca7f9e5cbac9bdf96",
                    "callData": "0x0000000000000000000000000000000000000000000000001be4f459be890000",
                    "decodedMethod": {
                        "callParams": [
                            {
                                "name": "quantity",
                                "type": "uint256",
                                "value": "2,010,000,000,000,000,000"
                            }
                        ],
                        "constructorArguments": "",
                        "name": "mint",
                        "returnParams": [],
                        "signature": "mint(uint256)"
                    },
                    "errorInfo": "",
                    "fromAddress": "0xd667a1f68bffc35b0909c5362f8502838943aa1f",
                    "gasUsed": 190094,
                    "id": 0,
                    "methodDecoded": true,
                    "operation": "CALL",
                    "output": "",
                    "revert": false,
                    "revertMessage": "",
                    "selector": "0xa0712d68",
                    "status": true,
                    "value": "0.0804"
                },
                "nodeType": 0
            },
            "1": {
                "event": {
                    "contract": "0xafeeb2c497bc785baca88edca7f9e5cbac9bdf96",
                    "decodedLog": {
                        "name": "Transfer",
                        "params": [
                            {
                                "name": "from",
                                "type": "address",
                                "value": "0x0000000000000000000000000000000000000000"
                            },
                            {
                                "name": "to",
                                "type": "address",
                                "value": "0xd667a1f68bffc35b0909c5362f8502838943aa1f"
                            },
                            {
                                "decimalAvailable": true,
                                "name": "id",
                                "type": "uint256",
                                "value": "271"
                            }
                        ],
                        "signature": "Transfer(address,address,uint256)"
                    },
                    "id": 1,
                    "logData": "0x",
                    "logDecoded": true,
                    "operation": "EVENT",
                    "revert": false,
                    "status": true,
                    "topics": [
                        "0xddf252ad1be2c89b69c2b068fc378daa952ba7f163c4a11628f55a4df523b3ef",
                        "0x0000000000000000000000000000000000000000000000000000000000000000",
                        "0x000000000000000000000000d667a1f68bffc35b0909c5362f8502838943aa1f",
                        "0x000000000000000000000000000000000000000000000000000000000000010f"
                    ]
                },
                "nodeType": 1
            },
            "2": {
                "event": {
                    "contract": "0xafeeb2c497bc785baca88edca7f9e5cbac9bdf96",
                    "decodedLog": {
                        "name": "Transfer",
                        "params": [
                            {
                                "name": "from",
                                "type": "address",
                                "value": "0x0000000000000000000000000000000000000000"
                            },
                            {
                                "name": "to",
                                "type": "address",
                                "value": "0xd667a1f68bffc35b0909c5362f8502838943aa1f"
                            },
                            {
                                "decimalAvailable": true,
                                "name": "id",
                                "type": "uint256",
                                "value": "272"
                            }
                        ],
                        "signature": "Transfer(address,address,uint256)"
                    },
                    "id": 2,
                    "logData": "0x",
                    "logDecoded": true,
                    "operation": "EVENT",
                    "revert": false,
                    "status": true,
                    "topics": [
                        "0xddf252ad1be2c89b69c2b068fc378daa952ba7f163c4a11628f55a4df523b3ef",
                        "0x0000000000000000000000000000000000000000000000000000000000000000",
                        "0x000000000000000000000000d667a1f68bffc35b0909c5362f8502838943aa1f",
                        "0x0000000000000000000000000000000000000000000000000000000000000110"
                    ]
                },
                "nodeType": 1
            },
            "3": {
                "event": {
                    "contract": "0xafeeb2c497bc785baca88edca7f9e5cbac9bdf96",
                    "decodedLog": {
                        "name": "ERC20Transfer",
                        "params": [
                            {
                                "name": "from",
                                "type": "address",
                                "value": "0xafeeb2c497bc785baca88edca7f9e5cbac9bdf96"
                            },
                            {
                                "name": "to",
                                "type": "address",
                                "value": "0xd667a1f68bffc35b0909c5362f8502838943aa1f"
                            },
                            {
                                "name": "amount",
                                "type": "uint256",
                                "value": "2,010,000,000,000,000,000"
                            }
                        ],
                        "signature": "ERC20Transfer(address,address,uint256)"
                    },
                    "id": 3,
                    "logData": "0x0000000000000000000000000000000000000000000000001be4f459be890000",
                    "logDecoded": true,
                    "operation": "EVENT",
                    "revert": false,
                    "status": true,
                    "topics": [
                        "0xe59fdd36d0d223c0c7d996db7ad796880f45e1936cb0bb7ac102e7082e031487",
                        "0x000000000000000000000000afeeb2c497bc785baca88edca7f9e5cbac9bdf96",
                        "0x000000000000000000000000d667a1f68bffc35b0909c5362f8502838943aa1f"
                    ]
                },
                "nodeType": 1
            }
        },
        "gasFlame": [
            {
                "children": [
                    {
                        "children": [
                            {
                                "children": [],
                                "depth": 0,
                                "name": "Initial Gas",
                                "value": 21264
                            },
                            {
                                "children": [],
                                "depth": 0,
                                "name": "Executed Gas",
                                "value": 168830
                            }
                        ],
                        "depth": -1,
                        "name": "Actual Gas Used",
                        "value": 190094
                    },
                    {
                        "children": [],
                        "depth": -1,
                        "name": "Refunded Gas",
                        "value": 0
                    }
                ],
                "depth": -2,
                "name": "Total Gas",
                "value": 190094
            }
        ],
        "isConfirmed": true,
        "mainTrace": [
            {
                "children": [
                    {
                        "children": [
                            {
                                "children": [],
                                "depth": 1,
                                "id": 1,
                                "order": 1
                            },
                            {
                                "children": [],
                                "depth": 1,
                                "id": 2,
                                "order": 2
                            },
                            {
                                "children": [],
                                "depth": 1,
                                "id": 3,
                                "order": 3
                            }
                        ],
                        "depth": 0,
                        "id": 0,
                        "order": 0
                    }
                ],
                "depth": -1,
                "id": -1,
                "order": -1
            }
        ],
        "mainTraceNodeCount": 4,
        "parentIdMap": {
            "0": -1,
            "1": 0,
            "2": 0,
            "3": 0
        },
        "tidyTrace": [
            {
                "children": [
                    {
                        "children": [
                            {
                                "children": [],
                                "depth": 1,
                                "id": 1,
                                "order": 1
                            },
                            {
                                "children": [],
                                "depth": 1,
                                "id": 2,
                                "order": 2
                            },
                            {
                                "children": [],
                                "depth": 1,
                                "id": 3,
                                "order": 3
                            }
                        ],
                        "depth": 0,
                        "id": 0,
                        "order": 0
                    }
                ],
                "depth": -1,
                "id": -1,
                "order": -1
            }
        ],
        "tidyTraceNodeCount": 4
    },
    "state_change": {
        "stateChanges": [
            {
                "address": "0xafeeb2c497bc785baca88edca7f9e5cbac9bdf96",
                "erc": "ERC-20",
                "slots": [
                    {
                        "current": "0x0000000000000000000000000000000000000000000000000000000000000004",
                        "key": "0x2e603b97e932fd80f0d3e389e7633c86ed2d87c26c467d42d4411db2eb63e943",
                        "prev": "0x0000000000000000000000000000000000000000000000000000000000000002"
                    },
                    {
                        "current": "0x000000000000000000000000d667a1f68bffc35b0909c5362f8502838943aa1f",
                        "key": "0x12cf28f2d90b10c72c27ccd5d5dbc86ae6af403dd893e522de7cfbee413b5bd9",
                        "prev": "0x0000000000000000000000000000000000000000000000000000000000000000"
                    },
                    {
                        "current": "0x0000000000000000000000000000000000000000000000000000000000000003",
                        "key": "0x55be78c5022939ddcc963ad774cde3c55cfc78e7e10805515c33ace5ef2c2c9a",
                        "prev": "0x0000000000000000000000000000000000000000000000000000000000000000"
                    },
                    {
                        "current": "0x00000000000000000000000000000000000000000000020ef636e2ded62258af",
                        "key": "0xe41b15a74c11b7f36e791c1e17e93056c670d872ae4605ff76173dcb1af429d1",
                        "prev": "0x00000000000000000000000000000000000000000000020f121bd73894ab58af"
                    },
                    {
                        "current": "0x0000000000000000000000000000000000000000000000000000000000000110",
                        "key": "0x0000000000000000000000000000000000000000000000000000000000000003",
                        "prev": "0x000000000000000000000000000000000000000000000000000000000000010e"
                    },
                    {
                        "current": "0x000000000000000000000000000000000000000000000000000000000000010f",
                        "key": "0xfe07cd56862aee2a2680d86176017e2a29bc6754b1ce23849d95e2db4cc25813",
                        "prev": "0x0000000000000000000000000000000000000000000000000000000000000000"
                    },
                    {
                        "current": "0x000000000000000000000000d667a1f68bffc35b0909c5362f8502838943aa1f",
                        "key": "0x1eb468c7285ad9fa487788c76d1550e94ff1063c2d70a2632eaba174184ffa57",
                        "prev": "0x0000000000000000000000000000000000000000000000000000000000000000"
                    },
                    {
                        "current": "0x0000000000000000000000000000000000000000000000000000000000000110",
                        "key": "0xfe07cd56862aee2a2680d86176017e2a29bc6754b1ce23849d95e2db4cc25814",
                        "prev": "0x0000000000000000000000000000000000000000000000000000000000000000"
                    },
                    {
                        "current": "0x000000000000000000000000000000000000000000000000404110781e0f0000",
                        "key": "0x3043f7b7b3fa36d54937c6ec4df14e6ab35a124db317148bdfd3abb21b59ecd5",
                        "prev": "0x000000000000000000000000000000000000000000000000245c1c1e5f860000"
                    },
                    {
                        "current": "0x0000000000000000000000000000000000000000000000000000000000000002",
                        "key": "0xac3f493e829f3c278e2f5174162b268cea3e84052afc54849e981ba11bcbb578",
                        "prev": "0x0000000000000000000000000000000000000000000000000000000000000000"
                    }
                ],
                "storageVariables": [
                    {
                        "name": "_ownerOf",
                        "type": "mapping(uint256 => address)",
                        "value": {
                            "pairs": [
                                {
                                    "key": "271",
                                    "value": {
                                        "current": "0xd667a1f68bffc35b0909c5362f8502838943aa1f",
                                        "prev": "0x0000000000000000000000000000000000000000",
                                        "typeTag": 1
                                    }
                                },
                                {
                                    "key": "272",
                                    "value": {
                                        "current": "0xd667a1f68bffc35b0909c5362f8502838943aa1f",
                                        "prev": "0x0000000000000000000000000000000000000000",
                                        "typeTag": 1
                                    }
                                }
                            ],
                            "typeTag": 4
                        }
                    },
                    {
                        "name": "_owned",
                        "type": "mapping(address => uint256[])",
                        "value": {
                            "pairs": [
                                {
                                    "key": "0xd667a1f68bffc35b0909c5362f8502838943aa1f",
                                    "value": {
                                        "elemType": "uint256",
                                        "elems": [
                                            {
                                                "index": 2,
                                                "value": {
                                                    "current": "271",
                                                    "prev": "0",
                                                    "typeTag": 1
                                                }
                                            },
                                            {
                                                "index": 3,
                                                "value": {
                                                    "current": "272",
                                                    "prev": "0",
                                                    "typeTag": 1
                                                }
                                            }
                                        ],
                                        "typeTag": 2
                                    }
                                }
                            ],
                            "typeTag": 4
                        }
                    },
                    {
                        "name": "balanceOf",
                        "type": "mapping(address => uint256)",
                        "value": {
                            "pairs": [
                                {
                                    "key": "0xafeeb2c497bc785baca88edca7f9e5cbac9bdf96",
                                    "value": {
                                        "current": "9720728999999999989935",
                                        "prev": "9722738999999999989935",
                                        "typeTag": 1
                                    }
                                },
                                {
                                    "key": "0xd667a1f68bffc35b0909c5362f8502838943aa1f",
                                    "value": {
                                        "current": "4630000000000000000",
                                        "prev": "2620000000000000000",
                                        "typeTag": 1
                                    }
                                }
                            ],
                            "typeTag": 4
                        }
                    },
                    {
                        "name": "minted",
                        "type": "uint256",
                        "value": {
                            "current": "272",
                            "prev": "270",
                            "typeTag": 1
                        }
                    },
                    {
                        "name": "_ownedIndex",
                        "type": "mapping(uint256 => uint256)",
                        "value": {
                            "pairs": [
                                {
                                    "key": "271",
                                    "value": {
                                        "current": "2",
                                        "prev": "0",
                                        "typeTag": 1
                                    }
                                },
                                {
                                    "key": "272",
                                    "value": {
                                        "current": "3",
                                        "prev": "0",
                                        "typeTag": 1
                                    }
                                }
                            ],
                            "typeTag": 4
                        }
                    }
                ]
            }
        ]
    }
}