{
    "balance_change": {
        "balanceChanges": [
            {
                "account": "0xed6d8cfa1d59352cb2a96f7b4e4e2d3b3a5f3cba",
                "assets": [
                    {
                        "address": "0xeeeeeeeeeeeeeeeeeeeeeeeeeeeeeeeeeeeeeeee",
                        "amount": "0.2",
                        "iconUrl": "https://assets.blocksec.com/image/1663669189317-3.png",
                        "isERC1155": false,
                        "isERC721": false,
                        "sign": true,
                        "value": "518.5720000000000255"
                    }
                ]
            },
            {
                "account": "0xe87753eb91d6a61ea342bb9044a97764366cc7b2",
                "assets": [
                    {
                        "address": "0xeeeeeeeeeeeeeeeeeeeeeeeeeeeeeeeeeeeeeeee",
                        "amount": "0.2",
                        "iconUrl": "https://assets.blocksec.com/image/1663669189317-3.png",
                        "isERC1155": false,
                        "isERC721": false,
                        "sign": false,
                        "value": "518.5720000000000255"
                    }
                ]
            }
        ]
    },
    "profile": {
        "basic_info": {
            "baseFee": "17.709205594",
            "blockNumber": 18989451,
            "callData": "0x25d3752b000000000000000000000000ed6d8cfa1d59352cb2a96f7b4e4e2d3b3a5f3cba00000000000000000000000000000000000000000000000002c68af0bb140000dbccd69df9081623282ab08bf514b5622829c10bd58158a9157f90b17adf9a4f0000000000000000000000000000000000000000000000000000000000000080000000000000000000000000000000000000000000000000000000000000004142c49660185d169a3459c5514d7ea5375ca389a0fe1a252ff3b1072e879ffd791f4e7506db3dfe5c66238188a6caa1826be9e2b9ef779f21c4e23d3ce8baa7541b00000000000000000000000000000000000000000000000000000000000000",
            "debugEnable": true,
            "errorInfo": "",
            "eventCount": 1,
            "feeRecipient": "0x1f9090aae28b8a3dceadf281b0f12828e676c326",
            "formatValue": "0",
            "gasLimit": 204637,
            "gasPrice": "17.719205594",
            "gasUsed": 97903,
            "intTxnCount": 3,
            "internalRevert": false,
            "internalRevertMessage": "",
            "isContractCreation": false,
            "isFlashloan": false,
            "maxFee": "20.56",
            "nonce": 1,
            "overwritedBlockNumber": -1,
            "priorityFee": "0.01",
            "receiver": "0xe87753eb91d6a61ea342bb9044a97764366cc7b2",
            "revertMessage": "",
            "sender": "0xed6d8cfa1d59352cb2a96f7b4e4e2d3b3a5f3cba",
            "simulationEnable": true,
            "sourceTxnHash": "0x0109cb5e48d694428160433f08f2601c1ece6e7fd2e423193a2909d9174d0761",
            "status": true,
            "timestamp": "2024-01-12T07:53:23Z",
            "transactionFee": "0.001734763385269382",
            "txnHash": "0x0109cb5e48d694428160433f08f2601c1ece6e7fd2e423193a2909d9174d0761",
            "txnIndex": 238,
            "type": 2,
            "value": "0"
        },
        "fund_flow": [
            {
                "amount": "0.2",
                "from": "0xe87753eb91d6a61ea342bb9044a97764366cc7b2",
                "id": 1,
                "isERC1155": false,
                "isERC721": false,
                "isReverted": false,
                "order": 1,
                "to": "0xed6d8cfa1d59352cb2a96f7b4e4e2d3b3a5f3cba",
                "token": "0xeeeeeeeeeeeeeeeeeeeeeeeeeeeeeeeeeeeeeeee"
            }
        ],
        "token_infos": [
            {
                "address": "0xc02aaa39b223fe8d0a0e5c4f27ead9083c756cc2",
                "decimals": 18
            },
            {
                "address": "0xeeeeeeeeeeeeeeeeeeeeeeeeeeeeeeeeeeeeeeee",
                "decimals": 18
            }
        ]
    },
    "address_label": {
        "labels": [
            {
                "address": "0x289656792b971ee0e81d467316f0849d8f74ba44",
                "label": "TinfunReserve"
            },
            {
                "address": "0xe87753eb91d6a61ea342bb9044a97764366cc7b2",
                "label": "TransparentUpgradeableProxy"
            },
            {
                "address": "0x0000000000000000000000000000000000000001",
                "label": "Precompiled"
            },
            {
                "address": "0x0000000000000000000000000000000000000002",
                "label": "Precompiled"
            },
            {
                "address": "0x0000000000000000000000000000000000000003",
                "label": "Precompiled"
            },
            {
                "address": "0x0000000000000000000000000000000000000004",
                "label": "Precompiled"
            },
            {
                "address": "0xeeeeeeeeeeeeeeeeeeeeeeeeeeeeeeeeeeeeeeee",
                "label": "Ether"
            }
        ]
    },
    "trace": {
        "accountLabels": null,
        "dataMap": {
            "-1": {
                "invocation": {
                    "address": "0xed6d8cfa1d59352cb2a96f7b4e4e2d3b3a5f3cba",
                    "callData": "",
                    "decodedMethod": null,
                    "errorInfo": "",
                    "fromAddress": "",
                    "gasUsed": 0,
                    "id": -1,
                    "methodDecoded": false,
                    "operation": "",
                    "output": "",
                    "revert": false,
                    "revertMessage": "",
                    "selector": "",
                    "status": false,
                    "value": ""
                },
                "nodeType": 0
            },
            "0": {
                "invocation": {
                    "address": "0xe87753eb91d6a61ea342bb9044a97764366cc7b2",
                    "callData": "0x000000000000000000000000ed6d8cfa1d59352cb2a96f7b4e4e2d3b3a5f3cba00000000000000000000000000000000000000000000000002c68af0bb140000dbccd69df9081623282ab08bf514b5622829c10bd58158a9157f90b17adf9a4f0000000000000000000000000000000000000000000000000000000000000080000000000000000000000000000000000000000000000000000000000000004142c49660185d169a3459c5514d7ea5375ca389a0fe1a252ff3b1072e879ffd791f4e7506db3dfe5c66238188a6caa1826be9e2b9ef779f21c4e23d3ce8baa7541b00000000000000000000000000000000000000000000000000000000000000",
                    "decodedMethod": {
                        "callParams": [
                            {
                                "name": "_guest",
                                "type": "address",
                                "value": "0xed6d8cfa1d59352cb2a96f7b4e4e2d3b3a5f3cba"
                            },
                            {
                                "name": "_refundAmount",
                                "type": "uint256",
                                "value": "200,000,000,000,000,000"
                            },
                            {
                                "name": "_nonce",
                                "type": "bytes32",
                                "value": "0xdbccd69df9081623282ab08bf514b5622829c10bd58158a9157f90b17adf9a4f"
                            },
                            {
                                "name": "_signature",
                                "type": "bytes",
                                "value": "0x42c49660185d169a3459c5514d7ea5375ca389a0fe1a252ff3b1072e879ffd791f4e7506db3dfe5c66238188a6caa1826be9e2b9ef779f21c4e23d3ce8baa7541b"
                            }
                        ],
                        "constructorArguments": "",
                        "name": "refund",
                        "returnParams": [],
                        "signature": "refund(address,uint256,bytes32,bytes)"
                    },
                    "errorInfo": "",
                    "fromAddress": "0xed6d8cfa1d59352cb2a96f7b4e4e2d3b3a5f3cba",
                    "gasUsed": 97903,
                    "id": 0,
                    "methodDecoded": true,
                    "operation": "CALL",
                    "output": "",
                    "revert": false,
                    "revertMessage": "",
                    "selector": "0x25d3752b",
                    "status": true,
                    "value": "0"
                },
                "nodeType": 0
            },
            "1": {
                "invocation": {
                    "address": "0x289656792b971ee0e81d467316f0849d8f74ba44",
                    "callData": "0x000000000000000000000000ed6d8cfa1d59352cb2a96f7b4e4e2d3b3a5f3cba00000000000000000000000000000000000000000000000002c68af0bb140000dbccd69df9081623282ab08bf514b5622829c10bd58158a9157f90b17adf9a4f0000000000000000000000000000000000000000000000000000000000000080000000000000000000000000000000000000000000000000000000000000004142c49660185d169a3459c5514d7ea5375ca389a0fe1a252ff3b1072e879ffd791f4e7506db3dfe5c66238188a6caa1826be9e2b9ef779f21c4e23d3ce8baa7541b00000000000000000000000000000000000000000000000000000000000000",
                    "decodedMethod": {
                        "callParams": [
                            {
                                "name": "_guest",
                                "type": "address",
                                "value": "0xed6d8cfa1d59352cb2a96f7b4e4e2d3b3a5f3cba"
                            },
                            {
                                "name": "_refundAmount",
                                "type": "uint256",
                                "value": "200,000,000,000,000,000"
                            },
                            {
                                "name": "_nonce",
                                "type": "bytes32",
                                "value": "0xdbccd69df9081623282ab08bf514b5622829c10bd58158a9157f90b17adf9a4f"
                            },
                            {
                                "name": "_signature",
                                "type": "bytes",
                                "value": "0x42c49660185d169a3459c5514d7ea5375ca389a0fe1a252ff3b1072e879ffd791f4e7506db3dfe5c66238188a6caa1826be9e2b9ef779f21c4e23d3ce8baa7541b"
                            }
                        ],
                        "constructorArguments": "",
                        "name": "refund",
                        "returnParams": [],
                        "signature": "refund(address,uint256,bytes32,bytes)"
                    },
                    "errorInfo": "",
                    "fromAddress": "0xe87753eb91d6a61ea342bb9044a97764366cc7b2",
                    "gasUsed": 69919,
                    "id": 1,
                    "methodDecoded": true,
                    "operation": "DELEGATECALL",
                    "output": "",
                    "revert": false,
                    "revertMessage": "",
                    "selector": "0x25d3752b",
                    "status": true,
                    "value": "0"
                },
                "nodeType": 0
            },
            "2": {
                "invocation": {
                    "address": "0x0000000000000000000000000000000000000001",
                    "callData": "0xe4d333f22633a202274d9772c3d0d8d276e1ec515187d122e7b51e48000000000000000000000000000000000000000000000000000000000000001b42c49660185d169a3459c5514d7ea5375ca389a0fe1a252ff3b1072e879ffd791f4e7506db3dfe5c66238188a6caa1826be9e2b9ef779f21c4e23d3ce8baa754",
                    "decodedMethod": {
                        "callParams": [
                            {
                                "name": "hash",
                                "type": "bytes32",
                                "value": "0xeaae5cf4e4d333f22633a202274d9772c3d0d8d276e1ec515187d122e7b51e48"
                            },
                            {
                                "name": "v",
                                "type": "uint256",
                                "value": "27"
                            },
                            {
                                "name": "r",
                                "type": "bytes32",
                                "value": "0x42c49660185d169a3459c5514d7ea5375ca389a0fe1a252ff3b1072e879ffd79"
                            },
                            {
                                "name": "s",
                                "type": "bytes32",
                                "value": "0x1f4e7506db3dfe5c66238188a6caa1826be9e2b9ef779f21c4e23d3ce8baa754"
                            }
                        ],
                        "constructorArguments": "",
                        "name": "ecrecover",
                        "returnParams": [
                            {
                                "name": "",
                                "type": "address",
                                "value": "0x678cc9bcaeac6cf4173f4dcc15642436117c3ebb"
                            }
                        ],
                        "signature": "ecrecover(bytes32,uint256,bytes32,bytes32)"
                    },
                    "errorInfo": "",
                    "fromAddress": "0xe87753eb91d6a61ea342bb9044a97764366cc7b2",
                    "gasUsed": 3000,
                    "id": 2,
                    "methodDecoded": true,
                    "operation": "STATICCALL",
                    "output": "0x000000000000000000000000678cc9bcaeac6cf4173f4dcc15642436117c3ebb",
                    "revert": false,
                    "revertMessage": "",
                    "selector": "0xeaae5cf4",
                    "status": true,
                    "value": "0"
                },
                "nodeType": 0
            },
            "3": {
                "invocation": {
                    "address": "0xed6d8cfa1d59352cb2a96f7b4e4e2d3b3a5f3cba",
                    "callData": "0x",
                    "decodedMethod": null,
                    "errorInfo": "",
                    "fromAddress": "0xe87753eb91d6a61ea342bb9044a97764366cc7b2",
                    "gasUsed": 0,
                    "id": 3,
                    "methodDecoded": false,
                    "operation": "CALL",
                    "output": "",
                    "revert": false,
                    "revertMessage": "",
                    "selector": "fallback",
                    "status": true,
                    "value": "0.2"
                },
                "nodeType": 0
            },
            "4": {
                "event": {
                    "contract": "0xe87753eb91d6a61ea342bb9044a97764366cc7b2",
                    "decodedLog": {
                        "name": "Refunded",
                        "params": [
                            {
                                "name": "beneficiary",
                                "type": "address",
                                "value": "0xed6d8cfa1d59352cb2a96f7b4e4e2d3b3a5f3cba"
                            },
                            {
                                "name": "weiAmount",
                                "type": "uint256",
                                "value": "200,000,000,000,000,000"
                            }
                        ],
                        "signature": "Refunded(address,uint256)"
                    },
                    "id": 4,
                    "logData": "0x00000000000000000000000000000000000000000000000002c68af0bb140000",
                    "logDecoded": true,
                    "operation": "EVENT",
                    "revert": false,
                    "status": true,
                    "topics": [
                        "0xd7dee2702d63ad89917b6a4da9981c90c4d24f8c2bdfd64c604ecae57d8d0651",
                        "0x000000000000000000000000ed6d8cfa1d59352cb2a96f7b4e4e2d3b3a5f3cba"
                    ]
                },
                "nodeType": 1
            }
        },
        "gasFlame": [
            {
                "children": [
                    {
                        "children": [
                            {
                                "children": [],
                                "depth": 0,
                                "name": "Initial Gas",
                                "value": 23588
                            },
                            {
                                "children": [
                                    {
                                        "children": [
                                            {
                                                "children": [],
                                                "depth": 2,
                                                "name": "ecrecover",
                                                "value": 3000
                                            },
                                            {
                                                "children": [],
                                                "depth": 2,
                                                "name": "fallback",
                                                "value": 0
                                            }
                                        ],
                                        "depth": 1,
                                        "name": "refund",
                                        "value": 69919
                                    }
                                ],
                                "depth": 0,
                                "name": "Executed Gas",
                                "value": 77115
                            }
                        ],
                        "depth": -1,
                        "name": "Actual Gas Used",
                        "value": 97903
                    },
                    {
                        "children": [],
                        "depth": -1,
                        "name": "Refunded Gas",
                        "value": 2800
                    }
                ],
                "depth": -2,
                "name": "Total Gas",
                "value": 100703
            }
        ],
        "isConfirmed": true,
        "mainTrace": [
            {
                "children": [
                    {
                        "children": [
                            {
                                "children": [
                                    {
                                        "children": [],
                                        "depth": 2,
                                        "id": 2,
                                        "order": 2
                                    },
                                    {
                                        "children": [],
                                        "depth": 2,
                                        "id": 3,
                                        "order": 3
                                    },
                                    {
                                        "children": [],
                                        "depth": 2,
                                        "id": 4,
                                        "order": 4
                                    }
                                ],
                                "depth": 1,
                                "id": 1,
                                "order": 1
                            }
                        ],
                        "depth": 0,
                        "id": 0,
                        "order": 0
                    }
                ],
                "depth": -1,
                "id": -1,
                "order": -1
            }
        ],
        "mainTraceNodeCount": 5,
        "parentIdMap": {
            "0": -1,
            "1": 0,
            "2": 1,
            "3": 1,
            "4": 1
        },
        "tidyTrace": [
            {
                "children": [
                    {
                        "children": [
                            {
                                "children": [
                                    {
                                        "children": [],
                                        "depth": 2,
                                        "id": 3,
                                        "order": 3
                                    },
                                    {
                                        "children": [],
                                        "depth": 2,
                                        "id": 4,
                                        "order": 4
                                    }
                                ],
                                "depth": 1,
                                "id": 1,
                                "order": 1
                            }
                        ],
                        "depth": 0,
                        "id": 0,
                        "order": 0
                    }
                ],
                "depth": -1,
                "id": -1,
                "order": -1
            }
        ],
        "tidyTraceNodeCount": 4
    },
    "state_change": {
        "stateChanges": [
            {
                "address": "0xe87753eb91d6a61ea342bb9044a97764366cc7b2",
                "erc": "",
                "slots": [
                    {
                        "current": "0x0000000000000000000000000000000000000000000000000000000000000001",
                        "key": "0xcb219edc6e99735afb464325ad1b3701595b1746a07ae0ba733ffedf946ccbcb",
                        "prev": "0x0000000000000000000000000000000000000000000000000000000000000000"
                    },
                    {
                        "current": "0x0000000000000000000000000000000000000000000000000000000000000001",
                        "key": "0x0d4a0ddbdc8d187b79b97597463969ed351c133e31ca061ac82c5753912ab881",
                        "prev": "0x0000000000000000000000000000000000000000000000000000000000000000"
                    }
                ],
                "storageVariables": [
                    {
                        "name": "nonceUsed",
                        "type": "mapping(bytes32 => bool)",
                        "value": {
                            "pairs": [
                                {
                                    "key": "0xdbccd69df9081623282ab08bf514b5622829c10bd58158a9157f90b17adf9a4f",
                                    "value": {
                                        "current": "true",
                                        "prev": "false",
                                        "typeTag": 1
                                    }
                                }
                            ],
                            "typeTag": 4
                        }
                    },
                    {
                        "name": "refundStatus",
                        "type": "mapping(address => bool)",
                        "value": {
                            "pairs": [
                                {
                                    "key": "0xed6d8cfa1d59352cb2a96f7b4e4e2d3b3a5f3cba",
                                    "value": {
                                        "current": "true",
                                        "prev": "false",
                                        "typeTag": 1
                                    }
                                }
                            ],
                            "typeTag": 4
                        }
                    }
                ]
            }
        ]
    }
}