{
    "balance_change": {
        "balanceChanges": [
            {
                "account": "0xa5f20baa410ce14ddfca5149e6f65eaa3e93b6ec",
                "assets": [
                    {
                        "address": "0xfad45e47083e4607302aa43c65fb3106f1cd7607",
                        "amount": "17,605,248.824724621",
                        "iconUrl": "https://assets.blocksec.com/icon/91ab1aa614d12fe7157c4995111756a92cdb46a08762d0ff469270f8688e7c22.png",
                        "isERC1155": false,
                        "isERC721": false,
                        "sign": true,
                        "value": "6289.564365"
                    },
                    {
                        "address": "0xeeeeeeeeeeeeeeeeeeeeeeeeeeeeeeeeeeeeeeee",
                        "amount": "1.95",
                        "iconUrl": "https://assets.blocksec.com/image/1663669189317-3.png",
                        "isERC1155": false,
                        "isERC721": false,
                        "sign": false,
                        "value": ""
                    }
                ]
            },
            {
                "account": "0x11ededebf63bef0ea2d2d071bdf88f71543ec6fb",
                "assets": [
                    {
                        "address": "0xeeeeeeeeeeeeeeeeeeeeeeeeeeeeeeeeeeeeeeee",
                        "amount": "0.0170625",
                        "iconUrl": "https://assets.blocksec.com/image/1663669189317-3.png",
                        "isERC1155": false,
                        "isERC721": false,
                        "sign": true,
                        "value": ""
                    }
                ]
            },
            {
                "account": "0x74de5d4fcbf63e00296fd95d33236b9794016631",
                "assets": [
                    {
                        "address": "0xfad45e47083e4607302aa43c65fb3106f1cd7607",
                        "amount": "359,284.078984973",
                        "iconUrl": "https://assets.blocksec.com/icon/91ab1aa614d12fe7157c4995111756a92cdb46a08762d0ff469270f8688e7c22.png",
                        "isERC1155": false,
                        "isERC721": false,
                        "sign": true,
                        "value": "127.9546372"
                    }
                ]
            },
            {
                "account": "0x7fd1de95fc975fbbd8be260525758549ec477960",
                "assets": [
                    {
                        "address": "0xc02aaa39b223fe8d0a0e5c4f27ead9083c756cc2",
                        "amount": "1.9329375",
                        "iconUrl": "https://assets.blocksec.com/icon/f1cb2d02c471d545bbc7722daf3277fd852d98e63d118771af7047bd8256c516.png",
                        "isERC1155": false,
                        "isERC721": false,
                        "sign": true,
                        "value": "6629.790303"
                    },
                    {
                        "address": "0xfad45e47083e4607302aa43c65fb3106f1cd7607",
                        "amount": "17,964,532.903709594",
                        "iconUrl": "https://assets.blocksec.com/icon/91ab1aa614d12fe7157c4995111756a92cdb46a08762d0ff469270f8688e7c22.png",
                        "isERC1155": false,
                        "isERC721": false,
                        "sign": false,
                        "value": "6377.562273"
                    }
                ]
            },
            {
                "account": "0xc02aaa39b223fe8d0a0e5c4f27ead9083c756cc2",
                "assets": [
                    {
                        "address": "0xc02aaa39b223fe8d0a0e5c4f27ead9083c756cc2",
                        "amount": "1.9329375",
                        "iconUrl": "https://assets.blocksec.com/icon/f1cb2d02c471d545bbc7722daf3277fd852d98e63d118771af7047bd8256c516.png",
                        "isERC1155": false,
                        "isERC721": false,
                        "sign": false,
                        "value": "6629.790303"
                    },
                    {
                        "address": "0xeeeeeeeeeeeeeeeeeeeeeeeeeeeeeeeeeeeeeeee",
                        "amount": "1.9329375",
                        "iconUrl": "https://assets.blocksec.com/image/1663669189317-3.png",
                        "isERC1155": false,
                        "isERC721": false,
                        "sign": true,
                        "value": ""
                    }
                ]
            }
        ]
    },
    "profile": {
        "basic_info": {
            "baseFee": "",
            "blockNumber": 12376906,
            "callData": "0x5f575529000000000000000000000000000000000000000000000000000000000000008000000000000000000000000000000000000000000000000000000000000000000000000000000000000000000000000000000000000000001b0fcaab2003000000000000000000000000000000000000000000000000000000000000000000c00000000000000000000000000000000000000000000000000000000000000002307800000000000000000000000000000000000000000000000000000000000000000000000000000000000000000000000000000000000000000000000002400000000000000000000000000000000000000000000000000000000000000000000000000000000000000000fad45e47083e4607302aa43c65fb3106f1cd76070000000000000000000000000000000000000000000000001ad32c6a44881800000000000000000000000000000000000000000000000000003f84a46192cdff0000000000000000000000000000000000000000000000000000000000000100000000000000000000000000000000000000000000000000003c9e40db7ae80000000000000000000000000011ededebf63bef0ea2d2d071bdf88f71543ec6fb0000000000000000000000000000000000000000000000000000000000000128d9627aa400000000000000000000000000000000000000000000000000000000000000800000000000000000000000000000000000000000000000001ad32c6a44881800000000000000000000000000000000000000000000000000003f84a46192cdff00000000000000000000000000000000000000000000000000000000000000000000000000000000000000000000000000000000000000000000000000000002000000000000000000000000eeeeeeeeeeeeeeeeeeeeeeeeeeeeeeeeeeeeeeee000000000000000000000000fad45e47083e4607302aa43c65fb3106f1cd7607869584cd00000000000000000000000011ededebf63bef0ea2d2d071bdf88f71543ec6fb00000000000000000000000000000000000000000000004d2ff7eb216093199c0000000000000000000000000000000000000000000000006d",
            "debugEnable": true,
            "errorInfo": "",
            "eventCount": 7,
            "feeRecipient": "0xea674fdde714fd979de3edf0f56aa9716b898ec8",
            "formatValue": "1.95",
            "gasLimit": 325060,
            "gasPrice": "76",
            "gasUsed": 264311,
            "intTxnCount": 14,
            "internalRevert": false,
            "internalRevertMessage": "",
            "isContractCreation": false,
            "isFlashloan": false,
            "maxFee": "",
            "nonce": 1,
            "overwritedBlockNumber": -1,
            "priorityFee": "",
            "receiver": "0x881d40237659c251811cec9c364ef91dc08d300c",
            "revertMessage": "",
            "sender": "0xa5f20baa410ce14ddfca5149e6f65eaa3e93b6ec",
            "simulationEnable": true,
            "sourceTxnHash": "0x01e87e97436004ec36a7337e7bb12e5a3959ea8d3ff68a2818ba50324998fc69",
            "status": true,
            "timestamp": "2021-05-05T22:18:17Z",
            "transactionFee": "0.020087636",
            "txnHash": "0x01e87e97436004ec36a7337e7bb12e5a3959ea8d3ff68a2818ba50324998fc69",
            "txnIndex": 69,
            "type": 0,
            "value": "1950000000000000000"
        },
        "fund_flow": [
            {
                "amount": "1.95",
                "from": "0xa5f20baa410ce14ddfca5149e6f65eaa3e93b6ec",
                "id": 1,
                "isERC1155": false,
                "isERC721": false,
                "isReverted": false,
                "order": 1,
                "to": "0x881d40237659c251811cec9c364ef91dc08d300c",
                "token": "0xeeeeeeeeeeeeeeeeeeeeeeeeeeeeeeeeeeeeeeee"
            },
            {
                "amount": "1.95",
                "from": "0x881d40237659c251811cec9c364ef91dc08d300c",
                "id": 2,
                "isERC1155": false,
                "isERC721": false,
                "isReverted": false,
                "order": 2,
                "to": "0x74de5d4fcbf63e00296fd95d33236b9794016631",
                "token": "0xeeeeeeeeeeeeeeeeeeeeeeeeeeeeeeeeeeeeeeee"
            },
            {
                "amount": "0.0170625",
                "from": "0x74de5d4fcbf63e00296fd95d33236b9794016631",
                "id": 3,
                "isERC1155": false,
                "isERC721": false,
                "isReverted": false,
                "order": 3,
                "to": "0x11ededebf63bef0ea2d2d071bdf88f71543ec6fb",
                "token": "0xeeeeeeeeeeeeeeeeeeeeeeeeeeeeeeeeeeeeeeee"
            },
            {
                "amount": "1.9329375",
                "from": "0x74de5d4fcbf63e00296fd95d33236b9794016631",
                "id": 4,
                "isERC1155": false,
                "isERC721": false,
                "isReverted": false,
                "order": 4,
                "to": "0xdef1c0ded9bec7f1a1670819833240f027b25eff",
                "token": "0xeeeeeeeeeeeeeeeeeeeeeeeeeeeeeeeeeeeeeeee"
            },
            {
                "amount": "1.9329375",
                "from": "0xdef1c0ded9bec7f1a1670819833240f027b25eff",
                "id": 5,
                "isERC1155": false,
                "isERC721": false,
                "isReverted": false,
                "order": 5,
                "to": "0xc02aaa39b223fe8d0a0e5c4f27ead9083c756cc2",
                "token": "0xeeeeeeeeeeeeeeeeeeeeeeeeeeeeeeeeeeeeeeee"
            },
            {
                "amount": "1.9329375",
                "from": "0xc02aaa39b223fe8d0a0e5c4f27ead9083c756cc2",
                "id": 6,
                "isERC1155": false,
                "isERC721": false,
                "isReverted": false,
                "order": 6,
                "to": "0xdef1c0ded9bec7f1a1670819833240f027b25eff",
                "token": "0xc02aaa39b223fe8d0a0e5c4f27ead9083c756cc2"
            },
            {
                "amount": "1.9329375",
                "from": "0xdef1c0ded9bec7f1a1670819833240f027b25eff",
                "id": 7,
                "isERC1155": false,
                "isERC721": false,
                "isReverted": false,
                "order": 7,
                "to": "0x7fd1de95fc975fbbd8be260525758549ec477960",
                "token": "0xc02aaa39b223fe8d0a0e5c4f27ead9083c756cc2"
            },
            {
                "amount": "17,964,532.903709594",
                "from": "0x7fd1de95fc975fbbd8be260525758549ec477960",
                "id": 8,
                "isERC1155": false,
                "isERC721": false,
                "isReverted": false,
                "order": 8,
                "to": "0x74de5d4fcbf63e00296fd95d33236b9794016631",
                "token": "0xfad45e47083e4607302aa43c65fb3106f1cd7607"
            },
            {
                "amount": "17,605,248.824724621",
                "from": "0x74de5d4fcbf63e00296fd95d33236b9794016631",
                "id": 9,
                "isERC1155": false,
                "isERC721": false,
                "isReverted": false,
                "order": 9,
                "to": "0xa5f20baa410ce14ddfca5149e6f65eaa3e93b6ec",
                "token": "0xfad45e47083e4607302aa43c65fb3106f1cd7607"
            }
        ],
        "token_infos": [
            {
                "address": "0xfad45e47083e4607302aa43c65fb3106f1cd7607",
                "decimals": 9
            },
            {
                "address": "0xeeeeeeeeeeeeeeeeeeeeeeeeeeeeeeeeeeeeeeee",
                "decimals": 18
            },
            {
                "address": "0xc02aaa39b223fe8d0a0e5c4f27ead9083c756cc2",
                "decimals": 18
            }
        ]
    },
    "address_label": {
        "labels": [
            {
                "address": "0x11ededebf63bef0ea2d2d071bdf88f71543ec6fb",
                "label": "Metamask: Fees"
            },
            {
                "address": "0xfad45e47083e4607302aa43c65fb3106f1cd7607",
                "label": "Hoge Finance: HOGE Token"
            },
            {
                "address": "0x0000000000000000000000000000000000000000",
                "label": "Null Address"
            },
            {
                "address": "0xdef1c0ded9bec7f1a1670819833240f027b25eff",
                "label": "0x: Exchange Proxy"
            },
            {
                "address": "0x0000000000000000000000000000000000000001",
                "label": "Precompiled"
            },
            {
                "address": "0x0000000000000000000000000000000000000004",
                "label": "Precompiled"
            },
            {
                "address": "0xeeeeeeeeeeeeeeeeeeeeeeeeeeeeeeeeeeeeeeee",
                "label": "Ether"
            },
            {
                "address": "0x881d40237659c251811cec9c364ef91dc08d300c",
                "label": "Metamask: Swap Router"
            },
            {
                "address": "0x0000000000000000000000000000000000000003",
                "label": "Precompiled"
            },
            {
                "address": "0x7fd1de95fc975fbbd8be260525758549ec477960",
                "label": "Uniswap V2: HOGE"
            },
            {
                "address": "0x74de5d4fcbf63e00296fd95d33236b9794016631",
                "label": "MetaMask: Swaps Spender"
            },
            {
                "address": "0xc02aaa39b223fe8d0a0e5c4f27ead9083c756cc2",
                "label": "Wrapped Ether (WETH)"
            },
            {
                "address": "0xf9b30557afcf76ea82c04015d80057fa2147dfa9",
                "label": "UniswapFeature"
            },
            {
                "address": "0x0000000000000000000000000000000000000002",
                "label": "Precompiled"
            }
        ]
    },
    "trace": {
        "accountLabels": null,
        "dataMap": {
            "-1": {
                "invocation": {
                    "address": "0xa5f20baa410ce14ddfca5149e6f65eaa3e93b6ec",
                    "callData": "",
                    "decodedMethod": null,
                    "errorInfo": "",
                    "fromAddress": "",
                    "gasUsed": 0,
                    "id": -1,
                    "methodDecoded": false,
                    "operation": "",
                    "output": "",
                    "revert": false,
                    "revertMessage": "",
                    "selector": "",
                    "status": false,
                    "value": ""
                },
                "nodeType": 0
            },
            "0": {
                "invocation": {
                    "address": "0x881d40237659c251811cec9c364ef91dc08d300c",
                    "callData": "0x000000000000000000000000000000000000000000000000000000000000008000000000000000000000000000000000000000000000000000000000000000000000000000000000000000000000000000000000000000001b0fcaab2003000000000000000000000000000000000000000000000000000000000000000000c00000000000000000000000000000000000000000000000000000000000000002307800000000000000000000000000000000000000000000000000000000000000000000000000000000000000000000000000000000000000000000000002400000000000000000000000000000000000000000000000000000000000000000000000000000000000000000fad45e47083e4607302aa43c65fb3106f1cd76070000000000000000000000000000000000000000000000001ad32c6a44881800000000000000000000000000000000000000000000000000003f84a46192cdff0000000000000000000000000000000000000000000000000000000000000100000000000000000000000000000000000000000000000000003c9e40db7ae80000000000000000000000000011ededebf63bef0ea2d2d071bdf88f71543ec6fb0000000000000000000000000000000000000000000000000000000000000128d9627aa400000000000000000000000000000000000000000000000000000000000000800000000000000000000000000000000000000000000000001ad32c6a44881800000000000000000000000000000000000000000000000000003f84a46192cdff00000000000000000000000000000000000000000000000000000000000000000000000000000000000000000000000000000000000000000000000000000002000000000000000000000000eeeeeeeeeeeeeeeeeeeeeeeeeeeeeeeeeeeeeeee000000000000000000000000fad45e47083e4607302aa43c65fb3106f1cd7607869584cd00000000000000000000000011ededebf63bef0ea2d2d071bdf88f71543ec6fb00000000000000000000000000000000000000000000004d2ff7eb216093199c0000000000000000000000000000000000000000000000006d",
                    "decodedMethod": {
                        "callParams": [
                            {
                                "name": "aggregatorId",
                                "type": "string",
                                "value": "0x"
                            },
                            {
                                "name": "tokenFrom",
                                "type": "address",
                                "value": "0x0000000000000000000000000000000000000000"
                            },
                            {
                                "name": "amount",
                                "type": "uint256",
                                "value": "1,950,000,000,000,000,000"
                            },
                            {
                                "name": "data",
                                "type": "bytes",
                                "value": "0x0000000000000000000000000000000000000000000000000000000000000000000000000000000000000000fad45e47083e4607302aa43c65fb3106f1cd76070000000000000000000000000000000000000000000000001ad32c6a44881800000000000000000000000000000000000000000000000000003f84a46192cdff0000000000000000000000000000000000000000000000000000000000000100000000000000000000000000000000000000000000000000003c9e40db7ae80000000000000000000000000011ededebf63bef0ea2d2d071bdf88f71543ec6fb0000000000000000000000000000000000000000000000000000000000000128d9627aa400000000000000000000000000000000000000000000000000000000000000800000000000000000000000000000000000000000000000001ad32c6a44881800000000000000000000000000000000000000000000000000003f84a46192cdff00000000000000000000000000000000000000000000000000000000000000000000000000000000000000000000000000000000000000000000000000000002000000000000000000000000eeeeeeeeeeeeeeeeeeeeeeeeeeeeeeeeeeeeeeee000000000000000000000000fad45e47083e4607302aa43c65fb3106f1cd7607869584cd00000000000000000000000011ededebf63bef0ea2d2d071bdf88f71543ec6fb00000000000000000000000000000000000000000000004d2ff7eb216093199c000000000000000000000000000000000000000000000000"
                            }
                        ],
                        "constructorArguments": "",
                        "name": "swap",
                        "returnParams": [],
                        "signature": "swap(string,address,uint256,bytes)"
                    },
                    "errorInfo": "",
                    "fromAddress": "0xa5f20baa410ce14ddfca5149e6f65eaa3e93b6ec",
                    "gasUsed": 264311,
                    "id": 0,
                    "methodDecoded": true,
                    "operation": "CALL",
                    "output": "",
                    "revert": false,
                    "revertMessage": "",
                    "selector": "0x5f575529",
                    "status": true,
                    "value": "1.95"
                },
                "nodeType": 0
            },
            "1": {
                "invocation": {
                    "address": "0x74de5d4fcbf63e00296fd95d33236b9794016631",
                    "callData": "0x000000000000000000000000727fc6c510f5c5dcba136471b2451baff0be407800000000000000000000000000000000000000000000000000000000000000400000000000000000000000000000000000000000000000000000000000000264242fb09f000000000000000000000000a5f20baa410ce14ddfca5149e6f65eaa3e93b6ec0000000000000000000000000000000000000000000000000000000000000000000000000000000000000000fad45e47083e4607302aa43c65fb3106f1cd76070000000000000000000000000000000000000000000000001ad32c6a44881800000000000000000000000000000000000000000000000000003f84a46192cdff0000000000000000000000000000000000000000000000000000000000000100000000000000000000000000000000000000000000000000003c9e40db7ae80000000000000000000000000011ededebf63bef0ea2d2d071bdf88f71543ec6fb0000000000000000000000000000000000000000000000000000000000000128d9627aa400000000000000000000000000000000000000000000000000000000000000800000000000000000000000000000000000000000000000001ad32c6a44881800000000000000000000000000000000000000000000000000003f84a46192cdff00000000000000000000000000000000000000000000000000000000000000000000000000000000000000000000000000000000000000000000000000000002000000000000000000000000eeeeeeeeeeeeeeeeeeeeeeeeeeeeeeeeeeeeeeee000000000000000000000000fad45e47083e4607302aa43c65fb3106f1cd7607869584cd00000000000000000000000011ededebf63bef0ea2d2d071bdf88f71543ec6fb00000000000000000000000000000000000000000000004d2ff7eb216093199c00000000000000000000000000000000000000000000000000000000000000000000000000000000000000000000000000000000",
                    "decodedMethod": {
                        "callParams": [
                            {
                                "name": "adapter",
                                "type": "address",
                                "value": "0x727fc6c510f5c5dcba136471b2451baff0be4078"
                            },
                            {
                                "name": "data",
                                "type": "bytes",
                                "value": "0x242fb09f000000000000000000000000a5f20baa410ce14ddfca5149e6f65eaa3e93b6ec0000000000000000000000000000000000000000000000000000000000000000000000000000000000000000fad45e47083e4607302aa43c65fb3106f1cd76070000000000000000000000000000000000000000000000001ad32c6a44881800000000000000000000000000000000000000000000000000003f84a46192cdff0000000000000000000000000000000000000000000000000000000000000100000000000000000000000000000000000000000000000000003c9e40db7ae80000000000000000000000000011ededebf63bef0ea2d2d071bdf88f71543ec6fb0000000000000000000000000000000000000000000000000000000000000128d9627aa400000000000000000000000000000000000000000000000000000000000000800000000000000000000000000000000000000000000000001ad32c6a44881800000000000000000000000000000000000000000000000000003f84a46192cdff00000000000000000000000000000000000000000000000000000000000000000000000000000000000000000000000000000000000000000000000000000002000000000000000000000000eeeeeeeeeeeeeeeeeeeeeeeeeeeeeeeeeeeeeeee000000000000000000000000fad45e47083e4607302aa43c65fb3106f1cd7607869584cd00000000000000000000000011ededebf63bef0ea2d2d071bdf88f71543ec6fb00000000000000000000000000000000000000000000004d2ff7eb216093199c000000000000000000000000000000000000000000000000"
                            }
                        ],
                        "constructorArguments": "",
                        "name": "swap",
                        "returnParams": [],
                        "signature": "swap(address,bytes)"
                    },
                    "errorInfo": "",
                    "fromAddress": "0x881d40237659c251811cec9c364ef91dc08d300c",
                    "gasUsed": 237568,
                    "id": 1,
                    "methodDecoded": true,
                    "operation": "CALL",
                    "output": "",
                    "revert": false,
                    "revertMessage": "",
                    "selector": "0xe3547335",
                    "status": true,
                    "value": "1.95"
                },
                "nodeType": 0
            },
            "10": {
                "invocation": {
                    "address": "0x7fd1de95fc975fbbd8be260525758549ec477960",
                    "callData": "0x",
                    "decodedMethod": {
                        "callParams": [],
                        "constructorArguments": "",
                        "name": "getReserves",
                        "returnParams": [
                            {
                                "name": "_reserve0",
                                "type": "uint112",
                                "value": "600,034,831,225,428,157,487"
                            },
                            {
                                "name": "_reserve1",
                                "type": "uint112",
                                "value": "5,725,928,737,085,112,777"
                            },
                            {
                                "name": "_blockTimestampLast",
                                "type": "uint32",
                                "value": "1,620,253,080"
                            }
                        ],
                        "signature": "getReserves()"
                    },
                    "errorInfo": "",
                    "fromAddress": "0xdef1c0ded9bec7f1a1670819833240f027b25eff",
                    "gasUsed": 2504,
                    "id": 10,
                    "methodDecoded": true,
                    "operation": "STATICCALL",
                    "output": "0x0000000000000000000000000000000000000000000000208727f3e0f51ca42f0000000000000000000000000000000000000000000000004f7695d95f28c1c90000000000000000000000000000000000000000000000000000000060931998",
                    "revert": false,
                    "revertMessage": "",
                    "selector": "0x0902f1ac",
                    "status": true,
                    "value": "0"
                },
                "nodeType": 0
            },
            "11": {
                "invocation": {
                    "address": "0x7fd1de95fc975fbbd8be260525758549ec477960",
                    "callData": "0x000000000000000000000000000000000000000000000000000000000000000000000000000000000000000000000000000000000000000000412016db24f1b600000000000000000000000074de5d4fcbf63e00296fd95d33236b979401663100000000000000000000000000000000000000000000000000000000000000800000000000000000000000000000000000000000000000000000000000000000",
                    "decodedMethod": {
                        "callParams": [
                            {
                                "name": "amount0Out",
                                "type": "uint256",
                                "value": "0"
                            },
                            {
                                "name": "amount1Out",
                                "type": "uint256",
                                "value": "18,331,156,024,193,462"
                            },
                            {
                                "name": "to",
                                "type": "address",
                                "value": "0x74de5d4fcbf63e00296fd95d33236b9794016631"
                            },
                            {
                                "name": "data",
                                "type": "bytes",
                                "value": "0x"
                            }
                        ],
                        "constructorArguments": "",
                        "name": "swap",
                        "returnParams": [],
                        "signature": "swap(uint256,uint256,address,bytes)"
                    },
                    "errorInfo": "",
                    "fromAddress": "0xdef1c0ded9bec7f1a1670819833240f027b25eff",
                    "gasUsed": 115497,
                    "id": 11,
                    "methodDecoded": true,
                    "operation": "CALL",
                    "output": "",
                    "revert": false,
                    "revertMessage": "",
                    "selector": "0x022c0d9f",
                    "status": true,
                    "value": "0"
                },
                "nodeType": 0
            },
            "12": {
                "invocation": {
                    "address": "0xfad45e47083e4607302aa43c65fb3106f1cd7607",
                    "callData": "0x00000000000000000000000074de5d4fcbf63e00296fd95d33236b979401663100000000000000000000000000000000000000000000000000412016db24f1b6",
                    "decodedMethod": {
                        "callParams": [
                            {
                                "name": "recipient",
                                "type": "address",
                                "value": "0x74de5d4fcbf63e00296fd95d33236b9794016631"
                            },
                            {
                                "decimalAvailable": true,
                                "name": "amount",
                                "type": "uint256",
                                "value": "18,331,156,024,193,462"
                            }
                        ],
                        "constructorArguments": "",
                        "name": "transfer",
                        "returnParams": [
                            {
                                "name": "",
                                "type": "bool",
                                "value": true
                            }
                        ],
                        "signature": "transfer(address,uint256)"
                    },
                    "errorInfo": "",
                    "fromAddress": "0x7fd1de95fc975fbbd8be260525758549ec477960",
                    "gasUsed": 68161,
                    "id": 12,
                    "methodDecoded": true,
                    "operation": "CALL",
                    "output": "0x0000000000000000000000000000000000000000000000000000000000000001",
                    "revert": false,
                    "revertMessage": "",
                    "selector": "0xa9059cbb",
                    "status": true,
                    "value": "0"
                },
                "nodeType": 0
            },
            "13": {
                "event": {
                    "contract": "0xfad45e47083e4607302aa43c65fb3106f1cd7607",
                    "decodedLog": {
                        "name": "Transfer",
                        "params": [
                            {
                                "name": "from",
                                "type": "address",
                                "value": "0x7fd1de95fc975fbbd8be260525758549ec477960"
                            },
                            {
                                "name": "to",
                                "type": "address",
                                "value": "0x74de5d4fcbf63e00296fd95d33236b9794016631"
                            },
                            {
                                "decimalAvailable": true,
                                "name": "value",
                                "type": "uint256",
                                "value": "17,964,532,903,709,594"
                            }
                        ],
                        "signature": "Transfer(address,address,uint256)"
                    },
                    "id": 13,
                    "logData": "0x000000000000000000000000000000000000000000000000003fd2a5c2480b9a",
                    "logDecoded": true,
                    "operation": "EVENT",
                    "revert": false,
                    "status": true,
                    "topics": [
                        "0xddf252ad1be2c89b69c2b068fc378daa952ba7f163c4a11628f55a4df523b3ef",
                        "0x0000000000000000000000007fd1de95fc975fbbd8be260525758549ec477960",
                        "0x00000000000000000000000074de5d4fcbf63e00296fd95d33236b9794016631"
                    ]
                },
                "nodeType": 1
            },
            "14": {
                "invocation": {
                    "address": "0xc02aaa39b223fe8d0a0e5c4f27ead9083c756cc2",
                    "callData": "0x0000000000000000000000007fd1de95fc975fbbd8be260525758549ec477960",
                    "decodedMethod": {
                        "callParams": [
                            {
                                "name": "",
                                "type": "address",
                                "value": "0x7fd1de95fc975fbbd8be260525758549ec477960"
                            }
                        ],
                        "constructorArguments": "",
                        "name": "balanceOf",
                        "returnParams": [
                            {
                                "decimalAvailable": true,
                                "name": "",
                                "type": "uint256",
                                "value": "601,967,768,725,428,157,487"
                            }
                        ],
                        "signature": "balanceOf(address)"
                    },
                    "errorInfo": "",
                    "fromAddress": "0x7fd1de95fc975fbbd8be260525758549ec477960",
                    "gasUsed": 534,
                    "id": 14,
                    "methodDecoded": true,
                    "operation": "STATICCALL",
                    "output": "0x000000000000000000000000000000000000000000000020a1fb204b39a4bc2f",
                    "revert": false,
                    "revertMessage": "",
                    "selector": "0x70a08231",
                    "status": true,
                    "value": "0"
                },
                "nodeType": 0
            },
            "15": {
                "invocation": {
                    "address": "0xfad45e47083e4607302aa43c65fb3106f1cd7607",
                    "callData": "0x0000000000000000000000007fd1de95fc975fbbd8be260525758549ec477960",
                    "decodedMethod": {
                        "callParams": [
                            {
                                "name": "account",
                                "type": "address",
                                "value": "0x7fd1de95fc975fbbd8be260525758549ec477960"
                            }
                        ],
                        "constructorArguments": "",
                        "name": "balanceOf",
                        "returnParams": [
                            {
                                "decimalAvailable": true,
                                "name": "",
                                "type": "uint256",
                                "value": "5,707,599,821,894,453,245"
                            }
                        ],
                        "signature": "balanceOf(address)"
                    },
                    "errorInfo": "",
                    "fromAddress": "0x7fd1de95fc975fbbd8be260525758549ec477960",
                    "gasUsed": 12971,
                    "id": 15,
                    "methodDecoded": true,
                    "operation": "STATICCALL",
                    "output": "0x0000000000000000000000000000000000000000000000004f3577cc401a07fd",
                    "revert": false,
                    "revertMessage": "",
                    "selector": "0x70a08231",
                    "status": true,
                    "value": "0"
                },
                "nodeType": 0
            },
            "16": {
                "event": {
                    "contract": "0x7fd1de95fc975fbbd8be260525758549ec477960",
                    "decodedLog": {
                        "name": "Sync",
                        "params": [
                            {
                                "name": "reserve0",
                                "type": "uint112",
                                "value": "601,967,768,725,428,157,487"
                            },
                            {
                                "name": "reserve1",
                                "type": "uint112",
                                "value": "5,707,599,821,894,453,245"
                            }
                        ],
                        "signature": "Sync(uint112,uint112)"
                    },
                    "id": 16,
                    "logData": "0x000000000000000000000000000000000000000000000020a1fb204b39a4bc2f0000000000000000000000000000000000000000000000004f3577cc401a07fd",
                    "logDecoded": true,
                    "operation": "EVENT",
                    "revert": false,
                    "status": true,
                    "topics": [
                        "0x1c411e9a96e071241c2f21f7726b17ae89e3cab4c78be50e062b03a9fffbbad1"
                    ]
                },
                "nodeType": 1
            },
            "17": {
                "event": {
                    "contract": "0x7fd1de95fc975fbbd8be260525758549ec477960",
                    "decodedLog": {
                        "name": "Swap",
                        "params": [
                            {
                                "name": "sender",
                                "type": "address",
                                "value": "0xdef1c0ded9bec7f1a1670819833240f027b25eff"
                            },
                            {
                                "name": "to",
                                "type": "address",
                                "value": "0x74de5d4fcbf63e00296fd95d33236b9794016631"
                            },
                            {
                                "name": "amount0In",
                                "type": "uint256",
                                "value": "1,932,937,500,000,000,000"
                            },
                            {
                                "name": "amount1In",
                                "type": "uint256",
                                "value": "2,240,833,533,930"
                            },
                            {
                                "name": "amount0Out",
                                "type": "uint256",
                                "value": "0"
                            },
                            {
                                "name": "amount1Out",
                                "type": "uint256",
                                "value": "18,331,156,024,193,462"
                            }
                        ],
                        "signature": "Swap(address,uint256,uint256,uint256,uint256,address)"
                    },
                    "id": 17,
                    "logData": "0x0000000000000000000000000000000000000000000000001ad32c6a4488180000000000000000000000000000000000000000000000000000000209bc1637ea000000000000000000000000000000000000000000000000000000000000000000000000000000000000000000000000000000000000000000412016db24f1b6",
                    "logDecoded": true,
                    "operation": "EVENT",
                    "revert": false,
                    "status": true,
                    "topics": [
                        "0xd78ad95fa46c994b6551d0da85fc275fe613ce37657fb8d5e3d130840159d822",
                        "0x000000000000000000000000def1c0ded9bec7f1a1670819833240f027b25eff",
                        "0x00000000000000000000000074de5d4fcbf63e00296fd95d33236b9794016631"
                    ]
                },
                "nodeType": 1
            },
            "18": {
                "invocation": {
                    "address": "0xfad45e47083e4607302aa43c65fb3106f1cd7607",
                    "callData": "0x00000000000000000000000074de5d4fcbf63e00296fd95d33236b9794016631",
                    "decodedMethod": {
                        "callParams": [
                            {
                                "name": "account",
                                "type": "address",
                                "value": "0x74de5d4fcbf63e00296fd95d33236b9794016631"
                            }
                        ],
                        "constructorArguments": "",
                        "name": "balanceOf",
                        "returnParams": [
                            {
                                "decimalAvailable": true,
                                "name": "",
                                "type": "uint256",
                                "value": "17,964,539,617,065,939"
                            }
                        ],
                        "signature": "balanceOf(address)"
                    },
                    "errorInfo": "",
                    "fromAddress": "0x74de5d4fcbf63e00296fd95d33236b9794016631",
                    "gasUsed": 12971,
                    "id": 18,
                    "methodDecoded": true,
                    "operation": "STATICCALL",
                    "output": "0x000000000000000000000000000000000000000000000000003fd2a7526dbbd3",
                    "revert": false,
                    "revertMessage": "",
                    "selector": "0x70a08231",
                    "status": true,
                    "value": "0"
                },
                "nodeType": 0
            },
            "19": {
                "invocation": {
                    "address": "0xfad45e47083e4607302aa43c65fb3106f1cd7607",
                    "callData": "0x000000000000000000000000a5f20baa410ce14ddfca5149e6f65eaa3e93b6ec000000000000000000000000000000000000000000000000003fd2a7526dbbd3",
                    "decodedMethod": {
                        "callParams": [
                            {
                                "name": "recipient",
                                "type": "address",
                                "value": "0xa5f20baa410ce14ddfca5149e6f65eaa3e93b6ec"
                            },
                            {
                                "decimalAvailable": true,
                                "name": "amount",
                                "type": "uint256",
                                "value": "17,964,539,617,065,939"
                            }
                        ],
                        "constructorArguments": "",
                        "name": "transfer",
                        "returnParams": [
                            {
                                "name": "",
                                "type": "bool",
                                "value": true
                            }
                        ],
                        "signature": "transfer(address,uint256)"
                    },
                    "errorInfo": "",
                    "fromAddress": "0x74de5d4fcbf63e00296fd95d33236b9794016631",
                    "gasUsed": 25761,
                    "id": 19,
                    "methodDecoded": true,
                    "operation": "CALL",
                    "output": "0x0000000000000000000000000000000000000000000000000000000000000001",
                    "revert": false,
                    "revertMessage": "",
                    "selector": "0xa9059cbb",
                    "status": true,
                    "value": "0"
                },
                "nodeType": 0
            },
            "2": {
                "invocation": {
                    "address": "0x727fc6c510f5c5dcba136471b2451baff0be4078",
                    "callData": "0x000000000000000000000000a5f20baa410ce14ddfca5149e6f65eaa3e93b6ec0000000000000000000000000000000000000000000000000000000000000000000000000000000000000000fad45e47083e4607302aa43c65fb3106f1cd76070000000000000000000000000000000000000000000000001ad32c6a44881800000000000000000000000000000000000000000000000000003f84a46192cdff0000000000000000000000000000000000000000000000000000000000000100000000000000000000000000000000000000000000000000003c9e40db7ae80000000000000000000000000011ededebf63bef0ea2d2d071bdf88f71543ec6fb0000000000000000000000000000000000000000000000000000000000000128d9627aa400000000000000000000000000000000000000000000000000000000000000800000000000000000000000000000000000000000000000001ad32c6a44881800000000000000000000000000000000000000000000000000003f84a46192cdff00000000000000000000000000000000000000000000000000000000000000000000000000000000000000000000000000000000000000000000000000000002000000000000000000000000eeeeeeeeeeeeeeeeeeeeeeeeeeeeeeeeeeeeeeee000000000000000000000000fad45e47083e4607302aa43c65fb3106f1cd7607869584cd00000000000000000000000011ededebf63bef0ea2d2d071bdf88f71543ec6fb00000000000000000000000000000000000000000000004d2ff7eb216093199c000000000000000000000000000000000000000000000000",
                    "decodedMethod": null,
                    "errorInfo": "",
                    "fromAddress": "0x74de5d4fcbf63e00296fd95d33236b9794016631",
                    "gasUsed": 232267,
                    "id": 2,
                    "methodDecoded": false,
                    "operation": "DELEGATECALL",
                    "output": "",
                    "revert": false,
                    "revertMessage": "",
                    "selector": "0x242fb09f",
                    "status": true,
                    "value": "1.95"
                },
                "nodeType": 0
            },
            "20": {
                "event": {
                    "contract": "0xfad45e47083e4607302aa43c65fb3106f1cd7607",
                    "decodedLog": {
                        "name": "Transfer",
                        "params": [
                            {
                                "name": "from",
                                "type": "address",
                                "value": "0x74de5d4fcbf63e00296fd95d33236b9794016631"
                            },
                            {
                                "name": "to",
                                "type": "address",
                                "value": "0xa5f20baa410ce14ddfca5149e6f65eaa3e93b6ec"
                            },
                            {
                                "decimalAvailable": true,
                                "name": "value",
                                "type": "uint256",
                                "value": "17,605,248,824,724,621"
                            }
                        ],
                        "signature": "Transfer(address,address,uint256)"
                    },
                    "id": 20,
                    "logData": "0x000000000000000000000000000000000000000000000000003e8be16a614c8d",
                    "logDecoded": true,
                    "operation": "EVENT",
                    "revert": false,
                    "status": true,
                    "topics": [
                        "0xddf252ad1be2c89b69c2b068fc378daa952ba7f163c4a11628f55a4df523b3ef",
                        "0x00000000000000000000000074de5d4fcbf63e00296fd95d33236b9794016631",
                        "0x000000000000000000000000a5f20baa410ce14ddfca5149e6f65eaa3e93b6ec"
                    ]
                },
                "nodeType": 1
            },
            "21": {
                "event": {
                    "contract": "0x881d40237659c251811cec9c364ef91dc08d300c",
                    "decodedLog": {
                        "name": "Swap",
                        "params": [
                            {
                                "name": "aggregatorId",
                                "type": "string",
                                "value": "0x39bef1777deb3dfb14f64b9f81ced092c501fee72f90e93d03bb95ee89df9837"
                            },
                            {
                                "name": "sender",
                                "type": "address",
                                "value": "0xa5f20baa410ce14ddfca5149e6f65eaa3e93b6ec"
                            }
                        ],
                        "signature": "Swap(string,address)"
                    },
                    "id": 21,
                    "logData": "0x",
                    "logDecoded": true,
                    "operation": "EVENT",
                    "revert": false,
                    "status": true,
                    "topics": [
                        "0xbeee1e6e7fe307ddcf84b0a16137a4430ad5e2480fc4f4a8e250ab56ccd7630d",
                        "0x39bef1777deb3dfb14f64b9f81ced092c501fee72f90e93d03bb95ee89df9837",
                        "0x000000000000000000000000a5f20baa410ce14ddfca5149e6f65eaa3e93b6ec"
                    ]
                },
                "nodeType": 1
            },
            "3": {
                "invocation": {
                    "address": "0x11ededebf63bef0ea2d2d071bdf88f71543ec6fb",
                    "callData": "0x",
                    "decodedMethod": null,
                    "errorInfo": "",
                    "fromAddress": "0x74de5d4fcbf63e00296fd95d33236b9794016631",
                    "gasUsed": 0,
                    "id": 3,
                    "methodDecoded": false,
                    "operation": "CALL",
                    "output": "",
                    "revert": false,
                    "revertMessage": "",
                    "selector": "fallback",
                    "status": true,
                    "value": "0.0170625"
                },
                "nodeType": 0
            },
            "4": {
                "invocation": {
                    "address": "0xdef1c0ded9bec7f1a1670819833240f027b25eff",
                    "callData": "0x00000000000000000000000000000000000000000000000000000000000000800000000000000000000000000000000000000000000000001ad32c6a44881800000000000000000000000000000000000000000000000000003f84a46192cdff00000000000000000000000000000000000000000000000000000000000000000000000000000000000000000000000000000000000000000000000000000002000000000000000000000000eeeeeeeeeeeeeeeeeeeeeeeeeeeeeeeeeeeeeeee000000000000000000000000fad45e47083e4607302aa43c65fb3106f1cd7607869584cd00000000000000000000000011ededebf63bef0ea2d2d071bdf88f71543ec6fb00000000000000000000000000000000000000000000004d2ff7eb216093199c",
                    "decodedMethod": {
                        "callParams": [
                            {
                                "name": "tokens",
                                "type": "address[]",
                                "value": [
                                    "0xeeeeeeeeeeeeeeeeeeeeeeeeeeeeeeeeeeeeeeee",
                                    "0xfad45e47083e4607302aa43c65fb3106f1cd7607"
                                ]
                            },
                            {
                                "name": "sellAmount",
                                "type": "uint256",
                                "value": "1,932,937,500,000,000,000"
                            },
                            {
                                "name": "minBuyAmount",
                                "type": "uint256",
                                "value": "17,878,765,079,285,247"
                            },
                            {
                                "name": "isSushi",
                                "type": "bool",
                                "value": false
                            }
                        ],
                        "constructorArguments": "",
                        "name": "sellToUniswap",
                        "returnParams": [
                            {
                                "name": "buyAmount",
                                "type": "uint256",
                                "value": "18,331,156,024,193,462"
                            }
                        ],
                        "signature": "sellToUniswap(address[],uint256,uint256,bool)"
                    },
                    "errorInfo": "",
                    "fromAddress": "0x74de5d4fcbf63e00296fd95d33236b9794016631",
                    "gasUsed": 170434,
                    "id": 4,
                    "methodDecoded": true,
                    "operation": "CALL",
                    "output": "0x00000000000000000000000000000000000000000000000000412016db24f1b6",
                    "revert": false,
                    "revertMessage": "",
                    "selector": "0xd9627aa4",
                    "status": true,
                    "value": "1.9329375"
                },
                "nodeType": 0
            },
            "5": {
                "invocation": {
                    "address": "0xf9b30557afcf76ea82c04015d80057fa2147dfa9",
                    "callData": "0x00000000000000000000000000000000000000000000000000000000000000800000000000000000000000000000000000000000000000001ad32c6a44881800000000000000000000000000000000000000000000000000003f84a46192cdff00000000000000000000000000000000000000000000000000000000000000000000000000000000000000000000000000000000000000000000000000000002000000000000000000000000eeeeeeeeeeeeeeeeeeeeeeeeeeeeeeeeeeeeeeee000000000000000000000000fad45e47083e4607302aa43c65fb3106f1cd7607869584cd00000000000000000000000011ededebf63bef0ea2d2d071bdf88f71543ec6fb00000000000000000000000000000000000000000000004d2ff7eb216093199c",
                    "decodedMethod": {
                        "callParams": [
                            {
                                "name": "tokens",
                                "type": "address[]",
                                "value": [
                                    "0xeeeeeeeeeeeeeeeeeeeeeeeeeeeeeeeeeeeeeeee",
                                    "0xfad45e47083e4607302aa43c65fb3106f1cd7607"
                                ]
                            },
                            {
                                "name": "sellAmount",
                                "type": "uint256",
                                "value": "1,932,937,500,000,000,000"
                            },
                            {
                                "name": "minBuyAmount",
                                "type": "uint256",
                                "value": "17,878,765,079,285,247"
                            },
                            {
                                "name": "isSushi",
                                "type": "bool",
                                "value": false
                            }
                        ],
                        "constructorArguments": "",
                        "name": "sellToUniswap",
                        "returnParams": [
                            {
                                "name": "buyAmount",
                                "type": "uint256",
                                "value": "18,331,156,024,193,462"
                            }
                        ],
                        "signature": "sellToUniswap(address[],uint256,uint256,bool)"
                    },
                    "errorInfo": "",
                    "fromAddress": "0xdef1c0ded9bec7f1a1670819833240f027b25eff",
                    "gasUsed": 164680,
                    "id": 5,
                    "methodDecoded": true,
                    "operation": "DELEGATECALL",
                    "output": "0x00000000000000000000000000000000000000000000000000412016db24f1b6",
                    "revert": false,
                    "revertMessage": "",
                    "selector": "0xd9627aa4",
                    "status": true,
                    "value": "1.9329375"
                },
                "nodeType": 0
            },
            "6": {
                "invocation": {
                    "address": "0xc02aaa39b223fe8d0a0e5c4f27ead9083c756cc2",
                    "callData": "0x",
                    "decodedMethod": {
                        "callParams": [],
                        "constructorArguments": "",
                        "name": "deposit",
                        "returnParams": [],
                        "signature": "deposit()"
                    },
                    "errorInfo": "",
                    "fromAddress": "0xdef1c0ded9bec7f1a1670819833240f027b25eff",
                    "gasUsed": 23974,
                    "id": 6,
                    "methodDecoded": true,
                    "operation": "CALL",
                    "output": "",
                    "revert": false,
                    "revertMessage": "",
                    "selector": "0xd0e30db0",
                    "status": true,
                    "value": "1.9329375"
                },
                "nodeType": 0
            },
            "7": {
                "event": {
                    "contract": "0xc02aaa39b223fe8d0a0e5c4f27ead9083c756cc2",
                    "decodedLog": {
                        "name": "Deposit",
                        "params": [
                            {
                                "name": "dst",
                                "type": "address",
                                "value": "0xdef1c0ded9bec7f1a1670819833240f027b25eff"
                            },
                            {
                                "name": "wad",
                                "type": "uint256",
                                "value": "1,932,937,500,000,000,000"
                            }
                        ],
                        "signature": "Deposit(address,uint256)"
                    },
                    "id": 7,
                    "logData": "0x0000000000000000000000000000000000000000000000001ad32c6a44881800",
                    "logDecoded": true,
                    "operation": "EVENT",
                    "revert": false,
                    "status": true,
                    "topics": [
                        "0xe1fffcc4923d04b559f4d29a8bfc6cda04eb5b0d3c460751c2402c5c5cc9109c",
                        "0x000000000000000000000000def1c0ded9bec7f1a1670819833240f027b25eff"
                    ]
                },
                "nodeType": 1
            },
            "8": {
                "invocation": {
                    "address": "0xc02aaa39b223fe8d0a0e5c4f27ead9083c756cc2",
                    "callData": "0x0000000000000000000000007fd1de95fc975fbbd8be260525758549ec4779600000000000000000000000000000000000000000000000001ad32c6a44881800",
                    "decodedMethod": {
                        "callParams": [
                            {
                                "name": "dst",
                                "type": "address",
                                "value": "0x7fd1de95fc975fbbd8be260525758549ec477960"
                            },
                            {
                                "decimalAvailable": true,
                                "name": "wad",
                                "type": "uint256",
                                "value": "1,932,937,500,000,000,000"
                            }
                        ],
                        "constructorArguments": "",
                        "name": "transfer",
                        "returnParams": [
                            {
                                "name": "",
                                "type": "bool",
                                "value": true
                            }
                        ],
                        "signature": "transfer(address,uint256)"
                    },
                    "errorInfo": "",
                    "fromAddress": "0xdef1c0ded9bec7f1a1670819833240f027b25eff",
                    "gasUsed": 8062,
                    "id": 8,
                    "methodDecoded": true,
                    "operation": "CALL",
                    "output": "0x0000000000000000000000000000000000000000000000000000000000000001",
                    "revert": false,
                    "revertMessage": "",
                    "selector": "0xa9059cbb",
                    "status": true,
                    "value": "0"
                },
                "nodeType": 0
            },
            "9": {
                "event": {
                    "contract": "0xc02aaa39b223fe8d0a0e5c4f27ead9083c756cc2",
                    "decodedLog": {
                        "name": "Transfer",
                        "params": [
                            {
                                "name": "src",
                                "type": "address",
                                "value": "0xdef1c0ded9bec7f1a1670819833240f027b25eff"
                            },
                            {
                                "name": "dst",
                                "type": "address",
                                "value": "0x7fd1de95fc975fbbd8be260525758549ec477960"
                            },
                            {
                                "decimalAvailable": true,
                                "name": "wad",
                                "type": "uint256",
                                "value": "1,932,937,500,000,000,000"
                            }
                        ],
                        "signature": "Transfer(address,address,uint256)"
                    },
                    "id": 9,
                    "logData": "0x0000000000000000000000000000000000000000000000001ad32c6a44881800",
                    "logDecoded": true,
                    "operation": "EVENT",
                    "revert": false,
                    "status": true,
                    "topics": [
                        "0xddf252ad1be2c89b69c2b068fc378daa952ba7f163c4a11628f55a4df523b3ef",
                        "0x000000000000000000000000def1c0ded9bec7f1a1670819833240f027b25eff",
                        "0x0000000000000000000000007fd1de95fc975fbbd8be260525758549ec477960"
                    ]
                },
                "nodeType": 1
            }
        },
        "gasFlame": [
            {
                "children": [
                    {
                        "children": [
                            {
                                "children": [],
                                "depth": 0,
                                "name": "Initial Gas",
                                "value": 26308
                            },
                            {
                                "children": [
                                    {
                                        "children": [
                                            {
                                                "children": [
                                                    {
                                                        "children": [],
                                                        "depth": 3,
                                                        "name": "fallback",
                                                        "value": 0
                                                    },
                                                    {
                                                        "children": [
                                                            {
                                                                "children": [
                                                                    {
                                                                        "children": [],
                                                                        "depth": 5,
                                                                        "name": "deposit",
                                                                        "value": 23974
                                                                    },
                                                                    {
                                                                        "children": [],
                                                                        "depth": 5,
                                                                        "name": "transfer",
                                                                        "value": 8062
                                                                    },
                                                                    {
                                                                        "children": [],
                                                                        "depth": 5,
                                                                        "name": "getReserves",
                                                                        "value": 2504
                                                                    },
                                                                    {
                                                                        "children": [
                                                                            {
                                                                                "children": [],
                                                                                "depth": 6,
                                                                                "name": "transfer",
                                                                                "value": 68161
                                                                            },
                                                                            {
                                                                                "children": [],
                                                                                "depth": 6,
                                                                                "name": "balanceOf",
                                                                                "value": 534
                                                                            },
                                                                            {
                                                                                "children": [],
                                                                                "depth": 6,
                                                                                "name": "balanceOf",
                                                                                "value": 12971
                                                                            }
                                                                        ],
                                                                        "depth": 5,
                                                                        "name": "swap",
                                                                        "value": 115497
                                                                    }
                                                                ],
                                                                "depth": 4,
                                                                "name": "sellToUniswap",
                                                                "value": 164680
                                                            }
                                                        ],
                                                        "depth": 3,
                                                        "name": "sellToUniswap",
                                                        "value": 170434
                                                    },
                                                    {
                                                        "children": [],
                                                        "depth": 3,
                                                        "name": "balanceOf",
                                                        "value": 12971
                                                    },
                                                    {
                                                        "children": [],
                                                        "depth": 3,
                                                        "name": "transfer",
                                                        "value": 25761
                                                    }
                                                ],
                                                "depth": 2,
                                                "name": "0x242fb09f",
                                                "value": 232267
                                            }
                                        ],
                                        "depth": 1,
                                        "name": "swap",
                                        "value": 237568
                                    }
                                ],
                                "depth": 0,
                                "name": "Executed Gas",
                                "value": 263503
                            }
                        ],
                        "depth": -1,
                        "name": "Actual Gas Used",
                        "value": 264311
                    },
                    {
                        "children": [],
                        "depth": -1,
                        "name": "Refunded Gas",
                        "value": 25500
                    }
                ],
                "depth": -2,
                "name": "Total Gas",
                "value": 289811
            }
        ],
        "isConfirmed": true,
        "mainTrace": [
            {
                "children": [
                    {
                        "children": [
                            {
                                "children": [
                                    {
                                        "children": [
                                            {
                                                "children": [],
                                                "depth": 3,
                                                "id": 3,
                                                "order": 3
                                            },
                                            {
                                                "children": [
                                                    {
                                                        "children": [
                                                            {
                                                                "children": [
                                                                    {
                                                                        "children": [],
                                                                        "depth": 6,
                                                                        "id": 7,
                                                                        "order": 7
                                                                    }
                                                                ],
                                                                "depth": 5,
                                                                "id": 6,
                                                                "order": 6
                                                            },
                                                            {
                                                                "children": [
                                                                    {
                                                                        "children": [],
                                                                        "depth": 6,
                                                                        "id": 9,
                                                                        "order": 9
                                                                    }
                                                                ],
                                                                "depth": 5,
                                                                "id": 8,
                                                                "order": 8
                                                            },
                                                            {
                                                                "children": [],
                                                                "depth": 5,
                                                                "id": 10,
                                                                "order": 10
                                                            },
                                                            {
                                                                "children": [
                                                                    {
                                                                        "children": [
                                                                            {
                                                                                "children": [],
                                                                                "depth": 7,
                                                                                "id": 13,
                                                                                "order": 13
                                                                            }
                                                                        ],
                                                                        "depth": 6,
                                                                        "id": 12,
                                                                        "order": 12
                                                                    },
                                                                    {
                                                                        "children": [],
                                                                        "depth": 6,
                                                                        "id": 14,
                                                                        "order": 14
                                                                    },
                                                                    {
                                                                        "children": [],
                                                                        "depth": 6,
                                                                        "id": 15,
                                                                        "order": 15
                                                                    },
                                                                    {
                                                                        "children": [],
                                                                        "depth": 6,
                                                                        "id": 16,
                                                                        "order": 16
                                                                    },
                                                                    {
                                                                        "children": [],
                                                                        "depth": 6,
                                                                        "id": 17,
                                                                        "order": 17
                                                                    }
                                                                ],
                                                                "depth": 5,
                                                                "id": 11,
                                                                "order": 11
                                                            }
                                                        ],
                                                        "depth": 4,
                                                        "id": 5,
                                                        "order": 5
                                                    }
                                                ],
                                                "depth": 3,
                                                "id": 4,
                                                "order": 4
                                            },
                                            {
                                                "children": [],
                                                "depth": 3,
                                                "id": 18,
                                                "order": 18
                                            },
                                            {
                                                "children": [
                                                    {
                                                        "children": [],
                                                        "depth": 4,
                                                        "id": 20,
                                                        "order": 20
                                                    }
                                                ],
                                                "depth": 3,
                                                "id": 19,
                                                "order": 19
                                            }
                                        ],
                                        "depth": 2,
                                        "id": 2,
                                        "order": 2
                                    }
                                ],
                                "depth": 1,
                                "id": 1,
                                "order": 1
                            },
                            {
                                "children": [],
                                "depth": 1,
                                "id": 21,
                                "order": 21
                            }
                        ],
                        "depth": 0,
                        "id": 0,
                        "order": 0
                    }
                ],
                "depth": -1,
                "id": -1,
                "order": -1
            }
        ],
        "mainTraceNodeCount": 22,
        "parentIdMap": {
            "0": -1,
            "1": 0,
            "10": 5,
            "11": 5,
            "12": 11,
            "13": 12,
            "14": 11,
            "15": 11,
            "16": 11,
            "17": 11,
            "18": 2,
            "19": 2,
            "2": 1,
            "20": 19,
            "21": 0,
            "3": 2,
            "4": 2,
            "5": 4,
            "6": 5,
            "7": 6,
            "8": 5,
            "9": 8
        },
        "tidyTrace": [
            {
                "children": [
                    {
                        "children": [
                            {
                                "children": [
                                    {
                                        "children": [
                                            {
                                                "children": [],
                                                "depth": 3,
                                                "id": 3,
                                                "order": 3
                                            },
                                            {
                                                "children": [
                                                    {
                                                        "children": [
                                                            {
                                                                "children": [
                                                                    {
                                                                        "children": [],
                                                                        "depth": 6,
                                                                        "id": 7,
                                                                        "order": 7
                                                                    }
                                                                ],
                                                                "depth": 5,
                                                                "id": 6,
                                                                "order": 6
                                                            },
                                                            {
                                                                "children": [
                                                                    {
                                                                        "children": [],
                                                                        "depth": 6,
                                                                        "id": 9,
                                                                        "order": 9
                                                                    }
                                                                ],
                                                                "depth": 5,
                                                                "id": 8,
                                                                "order": 8
                                                            },
                                                            {
                                                                "children": [
                                                                    {
                                                                        "children": [
                                                                            {
                                                                                "children": [],
                                                                                "depth": 7,
                                                                                "id": 13,
                                                                                "order": 13
                                                                            }
                                                                        ],
                                                                        "depth": 6,
                                                                        "id": 12,
                                                                        "order": 12
                                                                    },
                                                                    {
                                                                        "children": [],
                                                                        "depth": 6,
                                                                        "id": 16,
                                                                        "order": 16
                                                                    },
                                                                    {
                                                                        "children": [],
                                                                        "depth": 6,
                                                                        "id": 17,
                                                                        "order": 17
                                                                    }
                                                                ],
                                                                "depth": 5,
                                                                "id": 11,
                                                                "order": 11
                                                            }
                                                        ],
                                                        "depth": 4,
                                                        "id": 5,
                                                        "order": 5
                                                    }
                                                ],
                                                "depth": 3,
                                                "id": 4,
                                                "order": 4
                                            },
                                            {
                                                "children": [
                                                    {
                                                        "children": [],
                                                        "depth": 4,
                                                        "id": 20,
                                                        "order": 20
                                                    }
                                                ],
                                                "depth": 3,
                                                "id": 19,
                                                "order": 19
                                            }
                                        ],
                                        "depth": 2,
                                        "id": 2,
                                        "order": 2
                                    }
                                ],
                                "depth": 1,
                                "id": 1,
                                "order": 1
                            },
                            {
                                "children": [],
                                "depth": 1,
                                "id": 21,
                                "order": 21
                            }
                        ],
                        "depth": 0,
                        "id": 0,
                        "order": 0
                    }
                ],
                "depth": -1,
                "id": -1,
                "order": -1
            }
        ],
        "tidyTraceNodeCount": 18
    },
    "state_change": {
        "stateChanges": [
            {
                "address": "0x7fd1de95fc975fbbd8be260525758549ec477960",
                "erc": "ERC-20",
                "slots": [
                    {
                        "current": "0x609319a90000000000004f3577cc401a07fd000000000020a1fb204b39a4bc2f",
                        "key": "0x0000000000000000000000000000000000000000000000000000000000000008",
                        "prev": "0x609319980000000000004f7695d95f28c1c90000000000208727f3e0f51ca42f"
                    },
                    {
                        "current": "0x0000000000000000000000000000002eea9c8a165e75fd990d264d1cfafaa1ce",
                        "key": "0x0000000000000000000000000000000000000000000000000000000000000009",
                        "prev": "0x0000000000000000000000000000002eea9c608ec6bc5cafe4f001f8c14225b9"
                    },
                    {
                        "current": "0x000000000000000000000000000027da6826bbe2eecf5426263a8d428f954ff9",
                        "key": "0x000000000000000000000000000000000000000000000000000000000000000a",
                        "prev": "0x000000000000000000000000000027da61314296c612e2484b024efcafd0e2ff"
                    }
                ],
                "storageVariables": [
                    {
                        "name": "reserve0",
                        "type": "uint112",
                        "value": {
                            "current": "601967768725428157487",
                            "prev": "600034831225428157487",
                            "typeTag": 1
                        }
                    },
                    {
                        "name": "reserve1",
                        "type": "uint112",
                        "value": {
                            "current": "5707599821894453245",
                            "prev": "5725928737085112777",
                            "typeTag": 1
                        }
                    },
                    {
                        "name": "blockTimestampLast",
                        "type": "uint32",
                        "value": {
                            "current": "1620253097",
                            "prev": "1620253080",
                            "typeTag": 1
                        }
                    },
                    {
                        "name": "price0CumulativeLast",
                        "type": "uint256",
                        "value": {
                            "current": "15964841028431550178755228370102784795086",
                            "prev": "15964840186109997841971777387015507682745",
                            "typeTag": 1
                        }
                    },
                    {
                        "name": "price1CumulativeLast",
                        "type": "uint256",
                        "value": {
                            "current": "3471699148157046528516030390546191812481017",
                            "prev": "3471689898216135968378920885975746339726079",
                            "typeTag": 1
                        }
                    }
                ]
            },
            {
                "address": "0xc02aaa39b223fe8d0a0e5c4f27ead9083c756cc2",
                "erc": "ERC-20",
                "slots": [
                    {
                        "current": "0x000000000000000000000000000000000000000000000020a1fb204b39a4bc2f",
                        "key": "0xf2f3dffbf4517b5712e48794a3cf761be6fd7bc2d072f079583fbad14c522751",
                        "prev": "0x0000000000000000000000000000000000000000000000208727f3e0f51ca42f"
                    }
                ],
                "storageVariables": [
                    {
                        "name": "balanceOf",
                        "type": "mapping(address => uint256)",
                        "value": {
                            "pairs": [
                                {
                                    "key": "0x7fd1de95fc975fbbd8be260525758549ec477960",
                                    "value": {
                                        "current": "601967768725428157487",
                                        "prev": "600034831225428157487",
                                        "typeTag": 1
                                    }
                                }
                            ],
                            "typeTag": 4
                        }
                    }
                ]
            },
            {
                "address": "0xfad45e47083e4607302aa43c65fb3106f1cd7607",
                "erc": "ERC-20",
                "slots": [
                    {
                        "current": "0x01377ef9c3cff0039346fff86c465bca659626349c191e7f0ebc15339b7c3936",
                        "key": "0x944b5ec3a5adf5642c7fb46b0fa1e74825877934f78f6f25234cbfe521dea4f0",
                        "prev": "0x01387f164998f56a69c7c1436e1261e27bd1239317d470b48ce1f792e99bd37e"
                    },
                    {
                        "current": "0x00000000000000000237ebbd7c378fc50bf4414aea8953386d0bb1df80b49c5e",
                        "key": "0x049537bc20c90e514dc52ceb895df65f3bc0ffe038f33b1bc61acd40cd4e9ab5",
                        "prev": "0x000000000000000002102864c88adcc967d91916354b932251dc4ea98d97c8df"
                    },
                    {
                        "current": "0xd5350c43a60469d4ff6047bdc7198f609880ed0951b7f9934af95b08580b1254",
                        "key": "0x0000000000000000000000000000000000000000000000000000000000000006",
                        "prev": "0xd535166800ebe9bd158666534471f7b06d41edfe78519ce3b407ea51d3b3d3f6"
                    },
                    {
                        "current": "0x000000000000000000000000000000000000000000000009e8cd3c5da4885452",
                        "key": "0x0000000000000000000000000000000000000000000000000000000000000007",
                        "prev": "0x000000000000000000000000000000000000000000000009e8caa826a39efef0"
                    },
                    {
                        "current": "0x00011d6312e5820c951aa901adcf6ec83e2a8b480f39e0e7a8ebd52b796cf335",
                        "key": "0x164bfb49797fc67e5a1259feaca087d9f63c8a4be35f18e233372e9dc058dc8a",
                        "prev": "0x0000276ae803fc8dd4e7c9a4dd0883fba0cbb7136f55f218af03e54b9a12ee0e"
                    }
                ],
                "storageVariables": [
                    {
                        "name": "_tFeeTotal",
                        "type": "uint256",
                        "value": {
                            "current": "182795827223300953170",
                            "prev": "182795101309388127984",
                            "typeTag": 1
                        }
                    },
                    {
                        "name": "_rOwned",
                        "type": "mapping(address => uint256)",
                        "value": {
                            "pairs": [
                                {
                                    "key": "0x74de5d4fcbf63e00296fd95d33236b9794016631",
                                    "value": {
                                        "current": "54396011600900139754764160047661095603031180669305003102",
                                        "prev": "50587465920399224101863268004086736391272480267788863711",
                                        "typeTag": 1
                                    }
                                },
                                {
                                    "key": "0x7fd1de95fc975fbbd8be260525758549ec477960",
                                    "value": {
                                        "current": "550365790833930681830112306663448576963536801385702620569816265761905981750",
                                        "prev": "552133406866445822515301609422323917057994642892020423899206766021096231806",
                                        "typeTag": 1
                                    }
                                },
                                {
                                    "key": "0xa5f20baa410ce14ddfca5149e6f65eaa3e93b6ec",
                                    "value": {
                                        "current": "1969668733590725460424384845935209641405484653062140312571901996472005429",
                                        "prev": "272050295963184157710086666993115665955546812959562522402987766480825870",
                                        "typeTag": 1
                                    }
                                }
                            ],
                            "typeTag": 4
                        }
                    },
                    {
                        "name": "_rTotal",
                        "type": "uint256",
                        "value": {
                            "current": "96436364287425239265884109263253645700114399417565647365105869853284392178260",
                            "prev": "96436434285020126865262775722153078030580506429188288231433332738912075109366",
                            "typeTag": 1
                        }
                    }
                ]
            }
        ]
    }
}