{
    "balance_change": {
        "balanceChanges": [
            {
                "account": "0x945dddeae78e0535686fb84737386fb55a6497f0",
                "assets": [
                    {
                        "address": "0xf7920b0768ecb20a123fac32311d07d193381d6f",
                        "amount": "0.009876",
                        "iconUrl": "",
                        "isERC1155": false,
                        "isERC721": false,
                        "sign": false,
                        "value": ""
                    }
                ]
            },
            {
                "account": "0x71040391b2471df35a65884b0a6eb4cd093ec249",
                "assets": [
                    {
                        "address": "0xf7920b0768ecb20a123fac32311d07d193381d6f",
                        "amount": "0.009876",
                        "iconUrl": "",
                        "isERC1155": false,
                        "isERC721": false,
                        "sign": true,
                        "value": ""
                    }
                ]
            }
        ]
    },
    "profile": {
        "basic_info": {
            "baseFee": "",
            "blockNumber": 5337370,
            "callData": "0xa9059cbb00000000000000000000000071040391b2471df35a65884b0a6eb4cd093ec2490000000000000000000000000000000000000000000000000023162b6fcd4000",
            "debugEnable": true,
            "errorInfo": "",
            "eventCount": 1,
            "feeRecipient": "0xea674fdde714fd979de3edf0f56aa9716b898ec8",
            "formatValue": "0",
            "gasLimit": 210000,
            "gasPrice": "5",
            "gasUsed": 72972,
            "intTxnCount": 0,
            "internalRevert": false,
            "internalRevertMessage": "",
            "isContractCreation": false,
            "isFlashloan": false,
            "maxFee": "",
            "nonce": 454,
            "overwritedBlockNumber": -1,
            "priorityFee": "",
            "receiver": "0xf7920b0768ecb20a123fac32311d07d193381d6f",
            "revertMessage": "",
            "sender": "0x945dddeae78e0535686fb84737386fb55a6497f0",
            "simulationEnable": true,
            "sourceTxnHash": "0x0189a3cbc7bc454b7675b7398eab4d4da6c2d3e90ae8f25de7a4598e8ebcbd62",
            "status": true,
            "timestamp": "2018-03-28T13:48:11Z",
            "transactionFee": "0.00036486",
            "txnHash": "0x0189a3cbc7bc454b7675b7398eab4d4da6c2d3e90ae8f25de7a4598e8ebcbd62",
            "txnIndex": 34,
            "type": 0,
            "value": "0"
        },
        "fund_flow": [
            {
                "amount": "0.009876",
                "from": "0x945dddeae78e0535686fb84737386fb55a6497f0",
                "id": 1,
                "isERC1155": false,
                "isERC721": false,
                "isReverted": false,
                "order": 1,
                "to": "0x71040391b2471df35a65884b0a6eb4cd093ec249",
                "token": "0xf7920b0768ecb20a123fac32311d07d193381d6f"
            }
        ],
        "token_infos": [
            {
                "address": "0xc02aaa39b223fe8d0a0e5c4f27ead9083c756cc2",
                "decimals": 18
            },
            {
                "address": "0xf7920b0768ecb20a123fac32311d07d193381d6f",
                "decimals": 18
            },
            {
                "address": "0xeeeeeeeeeeeeeeeeeeeeeeeeeeeeeeeeeeeeeeee",
                "decimals": 18
            }
        ]
    },
    "address_label": {
        "labels": [
            {
                "address": "0xeeeeeeeeeeeeeeeeeeeeeeeeeeeeeeeeeeeeeeee",
                "label": "Ether"
            },
            {
                "address": "0xf7920b0768ecb20a123fac32311d07d193381d6f",
                "label": "Time New Bank Token"
            },
            {
                "address": "0x0000000000000000000000000000000000000001",
                "label": "Precompiled"
            },
            {
                "address": "0x0000000000000000000000000000000000000002",
                "label": "Precompiled"
            },
            {
                "address": "0x0000000000000000000000000000000000000003",
                "label": "Precompiled"
            },
            {
                "address": "0x0000000000000000000000000000000000000004",
                "label": "Precompiled"
            }
        ]
    },
    "trace": {
        "accountLabels": null,
        "dataMap": {
            "-1": {
                "invocation": {
                    "address": "0x945dddeae78e0535686fb84737386fb55a6497f0",
                    "callData": "",
                    "decodedMethod": null,
                    "errorInfo": "",
                    "fromAddress": "",
                    "gasUsed": 0,
                    "id": -1,
                    "methodDecoded": false,
                    "operation": "",
                    "output": "",
                    "revert": false,
                    "revertMessage": "",
                    "selector": "",
                    "status": false,
                    "value": ""
                },
                "nodeType": 0
            },
            "0": {
                "invocation": {
                    "address": "0xf7920b0768ecb20a123fac32311d07d193381d6f",
                    "callData": "0x00000000000000000000000071040391b2471df35a65884b0a6eb4cd093ec2490000000000000000000000000000000000000000000000000023162b6fcd4000",
                    "decodedMethod": {
                        "callParams": [
                            {
                                "name": "_to",
                                "type": "address",
                                "value": "0x71040391b2471df35a65884b0a6eb4cd093ec249"
                            },
                            {
                                "decimalAvailable": true,
                                "name": "_amount",
                                "type": "uint256",
                                "value": "9,876,000,000,000,000"
                            }
                        ],
                        "constructorArguments": "",
                        "name": "transfer",
                        "returnParams": [
                            {
                                "name": "success",
                                "type": "bool",
                                "value": true
                            }
                        ],
                        "signature": "transfer(address,uint256)"
                    },
                    "errorInfo": "",
                    "fromAddress": "0x945dddeae78e0535686fb84737386fb55a6497f0",
                    "gasUsed": 72972,
                    "id": 0,
                    "methodDecoded": true,
                    "operation": "CALL",
                    "output": "0x0000000000000000000000000000000000000000000000000000000000000001",
                    "revert": false,
                    "revertMessage": "",
                    "selector": "0xa9059cbb",
                    "status": true,
                    "value": "0"
                },
                "nodeType": 0
            },
            "1": {
                "event": {
                    "contract": "0xf7920b0768ecb20a123fac32311d07d193381d6f",
                    "decodedLog": {
                        "name": "Transfer",
                        "params": [
                            {
                                "name": "_from",
                                "type": "address",
                                "value": "0x945dddeae78e0535686fb84737386fb55a6497f0"
                            },
                            {
                                "name": "_to",
                                "type": "address",
                                "value": "0x71040391b2471df35a65884b0a6eb4cd093ec249"
                            },
                            {
                                "decimalAvailable": true,
                                "name": "_amount",
                                "type": "uint256",
                                "value": "9,876,000,000,000,000"
                            }
                        ],
                        "signature": "Transfer(address,address,uint256)"
                    },
                    "id": 1,
                    "logData": "0x0000000000000000000000000000000000000000000000000023162b6fcd4000",
                    "logDecoded": true,
                    "operation": "EVENT",
                    "revert": false,
                    "status": true,
                    "topics": [
                        "0xddf252ad1be2c89b69c2b068fc378daa952ba7f163c4a11628f55a4df523b3ef",
                        "0x000000000000000000000000945dddeae78e0535686fb84737386fb55a6497f0",
                        "0x00000000000000000000000071040391b2471df35a65884b0a6eb4cd093ec249"
                    ]
                },
                "nodeType": 1
            }
        },
        "gasFlame": [
            {
                "children": [
                    {
                        "children": [
                            {
                                "children": [],
                                "depth": 0,
                                "name": "Initial Gas",
                                "value": 23192
                            },
                            {
                                "children": [],
                                "depth": 0,
                                "name": "Executed Gas",
                                "value": 49780
                            }
                        ],
                        "depth": -1,
                        "name": "Actual Gas Used",
                        "value": 72972
                    },
                    {
                        "children": [],
                        "depth": -1,
                        "name": "Refunded Gas",
                        "value": 0
                    }
                ],
                "depth": -2,
                "name": "Total Gas",
                "value": 72972
            }
        ],
        "isConfirmed": true,
        "mainTrace": [
            {
                "children": [
                    {
                        "children": [
                            {
                                "children": [],
                                "depth": 1,
                                "id": 1,
                                "order": 1
                            }
                        ],
                        "depth": 0,
                        "id": 0,
                        "order": 0
                    }
                ],
                "depth": -1,
                "id": -1,
                "order": -1
            }
        ],
        "mainTraceNodeCount": 2,
        "parentIdMap": {
            "0": -1,
            "1": 0
        },
        "tidyTrace": [
            {
                "children": [
                    {
                        "children": [
                            {
                                "children": [],
                                "depth": 1,
                                "id": 1,
                                "order": 1
                            }
                        ],
                        "depth": 0,
                        "id": 0,
                        "order": 0
                    }
                ],
                "depth": -1,
                "id": -1,
                "order": -1
            }
        ],
        "tidyTraceNodeCount": 2
    },
    "state_change": {
        "stateChanges": [
            {
                "address": "0xf7920b0768ecb20a123fac32311d07d193381d6f",
                "erc": "ERC-20",
                "slots": [
                    {
                        "current": "0x000000000000000000000000000000000000000000000000000000000000001d",
                        "key": "0x083af007ba1e4881ba05a304e7103396d5bc079b6d4f0602891494455570e428",
                        "prev": "0x000000000000000000000000000000000000000000000000000000000000001c"
                    },
                    {
                        "current": "0x00000000000000d9356e677551aa40000000000000000000000000000051711a",
                        "key": "0x4355a31708c1e74f7128488c4e3b5e91f215840dbbea999f514945c429231e43",
                        "prev": "0x0000000000000000000000000000000000000000000000000000000000000000"
                    },
                    {
                        "current": "0x000000000000000071470eb04cedd0000000000000000000000000000051711a",
                        "key": "0x897e01738dedf9f5014176e639f419bd37826627c2096b21e2fb9df5ffdcdf4f",
                        "prev": "0x0000000000000000716a24dbbcbb10000000000000000000000000000051711a"
                    }
                ],
                "storageVariables": [
                    {
                        "name": "balances",
                        "type": "mapping(address => struct TNBToken.Checkpoint[])",
                        "value": {
                            "pairs": [
                                {
                                    "key": "0x71040391b2471df35a65884b0a6eb4cd093ec249",
                                    "value": {
                                        "elemType": "struct TNBToken.Checkpoint",
                                        "elems": [
                                            {
                                                "index": 28,
                                                "value": {
                                                    "fields": [
                                                        {
                                                            "name": "fromBlock",
                                                            "type": "uint128",
                                                            "value": {
                                                                "current": "5337370",
                                                                "prev": "0",
                                                                "typeTag": 1
                                                            }
                                                        },
                                                        {
                                                            "name": "value",
                                                            "type": "uint128",
                                                            "value": {
                                                                "current": "4006793592480000000000",
                                                                "prev": "0",
                                                                "typeTag": 1
                                                            }
                                                        }
                                                    ],
                                                    "typeTag": 3
                                                }
                                            }
                                        ],
                                        "typeTag": 2
                                    }
                                },
                                {
                                    "key": "0x945dddeae78e0535686fb84737386fb55a6497f0",
                                    "value": {
                                        "elemType": "struct TNBToken.Checkpoint",
                                        "elems": [
                                            {
                                                "index": 162,
                                                "value": {
                                                    "fields": [
                                                        {
                                                            "name": "fromBlock",
                                                            "type": "uint128",
                                                            "value": {
                                                                "current": "5337370",
                                                                "prev": "5337370",
                                                                "typeTag": 1
                                                            }
                                                        },
                                                        {
                                                            "name": "value",
                                                            "type": "uint128",
                                                            "value": {
                                                                "current": "8162509000000000000",
                                                                "prev": "8172385000000000000",
                                                                "typeTag": 1
                                                            }
                                                        }
                                                    ],
                                                    "typeTag": 3
                                                }
                                            }
                                        ],
                                        "typeTag": 2
                                    }
                                }
                            ],
                            "typeTag": 4
                        }
                    }
                ]
            }
        ]
    }
}