{
    "balance_change": {
        "balanceChanges": [
            {
                "account": "0x38ab92f6a7956d8483ccf7ca78ce1bc2d9c4b0ce",
                "assets": [
                    {
                        "address": "0xeeeeeeeeeeeeeeeeeeeeeeeeeeeeeeeeeeeeeeee",
                        "amount": "0.0079",
                        "iconUrl": "https://assets.blocksec.com/image/1663669189317-3.png",
                        "isERC1155": false,
                        "isERC721": false,
                        "sign": false,
                        "value": ""
                    },
                    {
                        "address": "0x30d30cce06227b9bb8e148041f7f9b3bc03e2a13",
                        "amount": "0.276472509257880955",
                        "iconUrl": "",
                        "isERC1155": false,
                        "isERC721": false,
                        "sign": true,
                        "value": ""
                    }
                ]
            },
            {
                "account": "0x8cb7b7fc51f1c0b425a5844626215f605fe147ce",
                "assets": [
                    {
                        "address": "0x30d30cce06227b9bb8e148041f7f9b3bc03e2a13",
                        "amount": "0.276472509257880955",
                        "iconUrl": "",
                        "isERC1155": false,
                        "isERC721": false,
                        "sign": false,
                        "value": ""
                    },
                    {
                        "address": "0xeeeeeeeeeeeeeeeeeeeeeeeeeeeeeeeeeeeeeeee",
                        "amount": "0.0079",
                        "iconUrl": "https://assets.blocksec.com/image/1663669189317-3.png",
                        "isERC1155": false,
                        "isERC721": false,
                        "sign": true,
                        "value": ""
                    }
                ]
            }
        ]
    },
    "profile": {
        "basic_info": {
            "baseFee": "",
            "blockNumber": 6857868,
            "callData": "0xd96a094a000000000000000000000000000000000000000000000000001aa9c1fb0a1000",
            "debugEnable": true,
            "errorInfo": "",
            "eventCount": 2,
            "feeRecipient": "0x5a0b54d5dc17e0aadc383d2db43b0a0d3e029c4c",
            "formatValue": "0.0079",
            "gasLimit": 75320,
            "gasPrice": "15",
            "gasUsed": 62573,
            "intTxnCount": 5,
            "internalRevert": false,
            "internalRevertMessage": "",
            "isContractCreation": false,
            "isFlashloan": false,
            "maxFee": "",
            "nonce": 73,
            "overwritedBlockNumber": -1,
            "priorityFee": "",
            "receiver": "0x8cb7b7fc51f1c0b425a5844626215f605fe147ce",
            "revertMessage": "",
            "sender": "0x38ab92f6a7956d8483ccf7ca78ce1bc2d9c4b0ce",
            "simulationEnable": true,
            "sourceTxnHash": "0x02a18d2889f8b799d1b85218e6156239ac5bc9f16a4f465a964c640856435fd1",
            "status": true,
            "timestamp": "2018-12-10T00:53:36Z",
            "transactionFee": "0.000938595",
            "txnHash": "0x02a18d2889f8b799d1b85218e6156239ac5bc9f16a4f465a964c640856435fd1",
            "txnIndex": 9,
            "type": 0,
            "value": "7900000000000000"
        },
        "fund_flow": [
            {
                "amount": "0.0079",
                "from": "0x38ab92f6a7956d8483ccf7ca78ce1bc2d9c4b0ce",
                "id": 1,
                "isERC1155": false,
                "isERC721": false,
                "isReverted": false,
                "order": 1,
                "to": "0x8cb7b7fc51f1c0b425a5844626215f605fe147ce",
                "token": "0xeeeeeeeeeeeeeeeeeeeeeeeeeeeeeeeeeeeeeeee"
            },
            {
                "amount": "0.276472509257880955",
                "from": "0x8cb7b7fc51f1c0b425a5844626215f605fe147ce",
                "id": 2,
                "isERC1155": false,
                "isERC721": false,
                "isReverted": false,
                "order": 2,
                "to": "0x38ab92f6a7956d8483ccf7ca78ce1bc2d9c4b0ce",
                "token": "0x30d30cce06227b9bb8e148041f7f9b3bc03e2a13"
            }
        ],
        "token_infos": [
            {
                "address": "0x30d30cce06227b9bb8e148041f7f9b3bc03e2a13",
                "decimals": 18
            },
            {
                "address": "0xc02aaa39b223fe8d0a0e5c4f27ead9083c756cc2",
                "decimals": 18
            },
            {
                "address": "0xeeeeeeeeeeeeeeeeeeeeeeeeeeeeeeeeeeeeeeee",
                "decimals": 18
            }
        ]
    },
    "address_label": {
        "labels": [
            {
                "address": "0x0000000000000000000000000000000000000003",
                "label": "Precompiled"
            },
            {
                "address": "0x0000000000000000000000000000000000000004",
                "label": "Precompiled"
            },
            {
                "address": "0xeeeeeeeeeeeeeeeeeeeeeeeeeeeeeeeeeeeeeeee",
                "label": "Ether"
            },
            {
                "address": "0x30d30cce06227b9bb8e148041f7f9b3bc03e2a13",
                "label": "Trakcoin (TRKC)"
            },
            {
                "address": "0x3ae6abeb18dfa61f85faff25aef28c8cd6ddbe6b",
                "label": "YeekFormula"
            },
            {
                "address": "0x8cb7b7fc51f1c0b425a5844626215f605fe147ce",
                "label": "ExchangerV4"
            },
            {
                "address": "0x0000000000000000000000000000000000000001",
                "label": "Precompiled"
            },
            {
                "address": "0x0000000000000000000000000000000000000002",
                "label": "Precompiled"
            }
        ]
    },
    "trace": {
        "accountLabels": null,
        "dataMap": {
            "-1": {
                "invocation": {
                    "address": "0x38ab92f6a7956d8483ccf7ca78ce1bc2d9c4b0ce",
                    "callData": "",
                    "decodedMethod": null,
                    "errorInfo": "",
                    "fromAddress": "",
                    "gasUsed": 0,
                    "id": -1,
                    "methodDecoded": false,
                    "operation": "",
                    "output": "",
                    "revert": false,
                    "revertMessage": "",
                    "selector": "",
                    "status": false,
                    "value": ""
                },
                "nodeType": 0
            },
            "0": {
                "invocation": {
                    "address": "0x8cb7b7fc51f1c0b425a5844626215f605fe147ce",
                    "callData": "0x000000000000000000000000000000000000000000000000001aa9c1fb0a1000",
                    "decodedMethod": {
                        "callParams": [
                            {
                                "name": "minPurchaseReturn",
                                "type": "uint256",
                                "value": "7,505,000,000,000,000"
                            }
                        ],
                        "constructorArguments": "",
                        "name": "buy",
                        "returnParams": [],
                        "signature": "buy(uint256)"
                    },
                    "errorInfo": "",
                    "fromAddress": "0x38ab92f6a7956d8483ccf7ca78ce1bc2d9c4b0ce",
                    "gasUsed": 62573,
                    "id": 0,
                    "methodDecoded": true,
                    "operation": "CALL",
                    "output": "",
                    "revert": false,
                    "revertMessage": "",
                    "selector": "0xd96a094a",
                    "status": true,
                    "value": "0.0079"
                },
                "nodeType": 0
            },
            "1": {
                "invocation": {
                    "address": "0x30d30cce06227b9bb8e148041f7f9b3bc03e2a13",
                    "callData": "0x0000000000000000000000008cb7b7fc51f1c0b425a5844626215f605fe147ce",
                    "decodedMethod": {
                        "callParams": [
                            {
                                "name": "",
                                "type": "address",
                                "value": "0x8cb7b7fc51f1c0b425a5844626215f605fe147ce"
                            }
                        ],
                        "constructorArguments": "",
                        "name": "balanceOf",
                        "returnParams": [
                            {
                                "decimalAvailable": true,
                                "name": "",
                                "type": "uint256",
                                "value": "783,421,843,085,709,606,742,932"
                            }
                        ],
                        "signature": "balanceOf(address)"
                    },
                    "errorInfo": "",
                    "fromAddress": "0x8cb7b7fc51f1c0b425a5844626215f605fe147ce",
                    "gasUsed": 664,
                    "id": 1,
                    "methodDecoded": true,
                    "operation": "CALL",
                    "output": "0x00000000000000000000000000000000000000000000a5e5621a33a29f256b94",
                    "revert": false,
                    "revertMessage": "",
                    "selector": "0x70a08231",
                    "status": true,
                    "value": "0"
                },
                "nodeType": 0
            },
            "2": {
                "invocation": {
                    "address": "0x30d30cce06227b9bb8e148041f7f9b3bc03e2a13",
                    "callData": "0x",
                    "decodedMethod": {
                        "callParams": [],
                        "constructorArguments": "",
                        "name": "totalSupply",
                        "returnParams": [
                            {
                                "name": "",
                                "type": "uint256",
                                "value": "500,000,000,000,000,000,000,000,000"
                            }
                        ],
                        "signature": "totalSupply()"
                    },
                    "errorInfo": "",
                    "fromAddress": "0x8cb7b7fc51f1c0b425a5844626215f605fe147ce",
                    "gasUsed": 438,
                    "id": 2,
                    "methodDecoded": true,
                    "operation": "CALL",
                    "output": "0x0000000000000000000000000000000000000000019d971e4fe8401e74000000",
                    "revert": false,
                    "revertMessage": "",
                    "selector": "0x18160ddd",
                    "status": true,
                    "value": "0"
                },
                "nodeType": 0
            },
            "3": {
                "invocation": {
                    "address": "0x3ae6abeb18dfa61f85faff25aef28c8cd6ddbe6b",
                    "callData": "0x0000000000000000000000000000000000000000019cf138edce0c7bd4da946c0000000000000000000000000000000000000000000003016d4a41b90eb5458f00000000000000000000000000000000000000000000000000000000000003e8000000000000000000000000000000000000000000000000001c110215b9c000",
                    "decodedMethod": {
                        "callParams": [
                            {
                                "name": "_supply",
                                "type": "uint256",
                                "value": "499,216,578,156,914,290,393,257,068"
                            },
                            {
                                "name": "_connectorBalance",
                                "type": "uint256",
                                "value": "14,193,421,371,844,127,442,319"
                            },
                            {
                                "name": "_connectorWeight",
                                "type": "uint32",
                                "value": "1,000"
                            },
                            {
                                "name": "_depositAmount",
                                "type": "uint256",
                                "value": "7,900,000,000,000,000"
                            }
                        ],
                        "constructorArguments": "",
                        "name": "calculatePurchaseReturn",
                        "returnParams": [
                            {
                                "name": "",
                                "type": "uint256",
                                "value": "277,861,818,349,629,100"
                            }
                        ],
                        "signature": "calculatePurchaseReturn(uint256,uint256,uint32,uint256)"
                    },
                    "errorInfo": "",
                    "fromAddress": "0x8cb7b7fc51f1c0b425a5844626215f605fe147ce",
                    "gasUsed": 4170,
                    "id": 3,
                    "methodDecoded": true,
                    "operation": "CALL",
                    "output": "0x00000000000000000000000000000000000000000000000003db29da035faeac",
                    "revert": false,
                    "revertMessage": "",
                    "selector": "0x29a00e7c",
                    "status": true,
                    "value": "0"
                },
                "nodeType": 0
            },
            "4": {
                "invocation": {
                    "address": "0x30d30cce06227b9bb8e148041f7f9b3bc03e2a13",
                    "callData": "0x0000000000000000000000008cb7b7fc51f1c0b425a5844626215f605fe147ce",
                    "decodedMethod": {
                        "callParams": [
                            {
                                "name": "",
                                "type": "address",
                                "value": "0x8cb7b7fc51f1c0b425a5844626215f605fe147ce"
                            }
                        ],
                        "constructorArguments": "",
                        "name": "balanceOf",
                        "returnParams": [
                            {
                                "decimalAvailable": true,
                                "name": "",
                                "type": "uint256",
                                "value": "783,421,843,085,709,606,742,932"
                            }
                        ],
                        "signature": "balanceOf(address)"
                    },
                    "errorInfo": "",
                    "fromAddress": "0x8cb7b7fc51f1c0b425a5844626215f605fe147ce",
                    "gasUsed": 664,
                    "id": 4,
                    "methodDecoded": true,
                    "operation": "CALL",
                    "output": "0x00000000000000000000000000000000000000000000a5e5621a33a29f256b94",
                    "revert": false,
                    "revertMessage": "",
                    "selector": "0x70a08231",
                    "status": true,
                    "value": "0"
                },
                "nodeType": 0
            },
            "5": {
                "event": {
                    "contract": "0x8cb7b7fc51f1c0b425a5844626215f605fe147ce",
                    "decodedLog": {
                        "name": "Buy",
                        "params": [
                            {
                                "name": "purchaser",
                                "type": "address",
                                "value": "0x38ab92f6a7956d8483ccf7ca78ce1bc2d9c4b0ce"
                            },
                            {
                                "name": "amountInWei",
                                "type": "uint256",
                                "value": "7,900,000,000,000,000"
                            },
                            {
                                "name": "amountInToken",
                                "type": "uint256",
                                "value": "276,472,509,257,880,955"
                            }
                        ],
                        "signature": "Buy(address,uint256,uint256)"
                    },
                    "id": 5,
                    "logData": "0x000000000000000000000000000000000000000000000000001c110215b9c00000000000000000000000000000000000000000000000000003d63a48487a157b",
                    "logDecoded": true,
                    "operation": "EVENT",
                    "revert": false,
                    "status": true,
                    "topics": [
                        "0x1cbc5ab135991bd2b6a4b034a04aa2aa086dac1371cb9b16b8b5e2ed6b036bed",
                        "0x00000000000000000000000038ab92f6a7956d8483ccf7ca78ce1bc2d9c4b0ce"
                    ]
                },
                "nodeType": 1
            },
            "6": {
                "invocation": {
                    "address": "0x30d30cce06227b9bb8e148041f7f9b3bc03e2a13",
                    "callData": "0x00000000000000000000000038ab92f6a7956d8483ccf7ca78ce1bc2d9c4b0ce00000000000000000000000000000000000000000000000003d63a48487a157b",
                    "decodedMethod": {
                        "callParams": [
                            {
                                "name": "_to",
                                "type": "address",
                                "value": "0x38ab92f6a7956d8483ccf7ca78ce1bc2d9c4b0ce"
                            },
                            {
                                "decimalAvailable": true,
                                "name": "_value",
                                "type": "uint256",
                                "value": "276,472,509,257,880,955"
                            }
                        ],
                        "constructorArguments": "",
                        "name": "transfer",
                        "returnParams": [],
                        "signature": "transfer(address,uint256)"
                    },
                    "errorInfo": "",
                    "fromAddress": "0x8cb7b7fc51f1c0b425a5844626215f605fe147ce",
                    "gasUsed": 15132,
                    "id": 6,
                    "methodDecoded": true,
                    "operation": "CALL",
                    "output": "",
                    "revert": false,
                    "revertMessage": "",
                    "selector": "0xa9059cbb",
                    "status": true,
                    "value": "0"
                },
                "nodeType": 0
            },
            "7": {
                "event": {
                    "contract": "0x30d30cce06227b9bb8e148041f7f9b3bc03e2a13",
                    "decodedLog": {
                        "name": "Transfer",
                        "params": [
                            {
                                "name": "from",
                                "type": "address",
                                "value": "0x8cb7b7fc51f1c0b425a5844626215f605fe147ce"
                            },
                            {
                                "name": "to",
                                "type": "address",
                                "value": "0x38ab92f6a7956d8483ccf7ca78ce1bc2d9c4b0ce"
                            },
                            {
                                "decimalAvailable": true,
                                "name": "value",
                                "type": "uint256",
                                "value": "276,472,509,257,880,955"
                            }
                        ],
                        "signature": "Transfer(address,address,uint256)"
                    },
                    "id": 7,
                    "logData": "0x00000000000000000000000000000000000000000000000003d63a48487a157b",
                    "logDecoded": true,
                    "operation": "EVENT",
                    "revert": false,
                    "status": true,
                    "topics": [
                        "0xddf252ad1be2c89b69c2b068fc378daa952ba7f163c4a11628f55a4df523b3ef",
                        "0x0000000000000000000000008cb7b7fc51f1c0b425a5844626215f605fe147ce",
                        "0x00000000000000000000000038ab92f6a7956d8483ccf7ca78ce1bc2d9c4b0ce"
                    ]
                },
                "nodeType": 1
            }
        },
        "gasFlame": [
            {
                "children": [
                    {
                        "children": [
                            {
                                "children": [],
                                "depth": 0,
                                "name": "Initial Gas",
                                "value": 21784
                            },
                            {
                                "children": [
                                    {
                                        "children": [],
                                        "depth": 1,
                                        "name": "balanceOf",
                                        "value": 664
                                    },
                                    {
                                        "children": [],
                                        "depth": 1,
                                        "name": "totalSupply",
                                        "value": 438
                                    },
                                    {
                                        "children": [],
                                        "depth": 1,
                                        "name": "calculatePurchaseReturn",
                                        "value": 4170
                                    },
                                    {
                                        "children": [],
                                        "depth": 1,
                                        "name": "balanceOf",
                                        "value": 664
                                    },
                                    {
                                        "children": [],
                                        "depth": 1,
                                        "name": "transfer",
                                        "value": 15132
                                    }
                                ],
                                "depth": 0,
                                "name": "Executed Gas",
                                "value": 40789
                            }
                        ],
                        "depth": -1,
                        "name": "Actual Gas Used",
                        "value": 62573
                    },
                    {
                        "children": [],
                        "depth": -1,
                        "name": "Refunded Gas",
                        "value": 0
                    }
                ],
                "depth": -2,
                "name": "Total Gas",
                "value": 62573
            }
        ],
        "isConfirmed": true,
        "mainTrace": [
            {
                "children": [
                    {
                        "children": [
                            {
                                "children": [],
                                "depth": 1,
                                "id": 1,
                                "order": 1
                            },
                            {
                                "children": [],
                                "depth": 1,
                                "id": 2,
                                "order": 2
                            },
                            {
                                "children": [],
                                "depth": 1,
                                "id": 3,
                                "order": 3
                            },
                            {
                                "children": [],
                                "depth": 1,
                                "id": 4,
                                "order": 4
                            },
                            {
                                "children": [],
                                "depth": 1,
                                "id": 5,
                                "order": 5
                            },
                            {
                                "children": [
                                    {
                                        "children": [],
                                        "depth": 2,
                                        "id": 7,
                                        "order": 7
                                    }
                                ],
                                "depth": 1,
                                "id": 6,
                                "order": 6
                            }
                        ],
                        "depth": 0,
                        "id": 0,
                        "order": 0
                    }
                ],
                "depth": -1,
                "id": -1,
                "order": -1
            }
        ],
        "mainTraceNodeCount": 8,
        "parentIdMap": {
            "0": -1,
            "1": 0,
            "2": 0,
            "3": 0,
            "4": 0,
            "5": 0,
            "6": 0,
            "7": 6
        },
        "tidyTrace": [
            {
                "children": [
                    {
                        "children": [
                            {
                                "children": [],
                                "depth": 1,
                                "id": 1,
                                "order": 1
                            },
                            {
                                "children": [],
                                "depth": 1,
                                "id": 2,
                                "order": 2
                            },
                            {
                                "children": [],
                                "depth": 1,
                                "id": 3,
                                "order": 3
                            },
                            {
                                "children": [],
                                "depth": 1,
                                "id": 4,
                                "order": 4
                            },
                            {
                                "children": [],
                                "depth": 1,
                                "id": 5,
                                "order": 5
                            },
                            {
                                "children": [
                                    {
                                        "children": [],
                                        "depth": 2,
                                        "id": 7,
                                        "order": 7
                                    }
                                ],
                                "depth": 1,
                                "id": 6,
                                "order": 6
                            }
                        ],
                        "depth": 0,
                        "id": 0,
                        "order": 0
                    }
                ],
                "depth": -1,
                "id": -1,
                "order": -1
            }
        ],
        "tidyTraceNodeCount": 8
    },
    "state_change": {
        "stateChanges": [
            {
                "address": "0x30d30cce06227b9bb8e148041f7f9b3bc03e2a13",
                "erc": "",
                "slots": [
                    {
                        "current": "0x000000000000000000000000000000000000000000000001c1f8920a0626b249",
                        "key": "0x3ac205a4329d8e1af2d0bfc93c3f53be16ab0175bee3db83252d32222f71bd60",
                        "prev": "0x000000000000000000000000000000000000000000000001be2257c1bdac9cce"
                    },
                    {
                        "current": "0x00000000000000000000000000000000000000000000a5e55e43f95a56ab5619",
                        "key": "0x1255f9d04aa43b808a0743800a14ae5cbf4ab51a3ddf3775b32bceb03e7d8552",
                        "prev": "0x00000000000000000000000000000000000000000000a5e5621a33a29f256b94"
                    }
                ],
                "storageVariables": [
                    {
                        "name": "balanceOf",
                        "type": "mapping(address => uint256)",
                        "value": {
                            "pairs": [
                                {
                                    "key": "0x38ab92f6a7956d8483ccf7ca78ce1bc2d9c4b0ce",
                                    "value": {
                                        "current": "32423826089004413513",
                                        "prev": "32147353579746532558",
                                        "typeTag": 1
                                    }
                                },
                                {
                                    "key": "0x8cb7b7fc51f1c0b425a5844626215f605fe147ce",
                                    "value": {
                                        "current": "783421566613200348861977",
                                        "prev": "783421843085709606742932",
                                        "typeTag": 1
                                    }
                                }
                            ],
                            "typeTag": 4
                        }
                    }
                ]
            },
            {
                "address": "0x8cb7b7fc51f1c0b425a5844626215f605fe147ce",
                "erc": "",
                "slots": [
                    {
                        "current": "0x0000000000000000000000000000000000000000000000000f5045277ac9de02",
                        "key": "0x0000000000000000000000000000000000000000000000000000000000000005",
                        "prev": "0x0000000000000000000000000000000000000000000000000f50213aab51e602"
                    }
                ],
                "storageVariables": [
                    {
                        "name": "collectedFees",
                        "type": "uint256",
                        "value": {
                            "current": "1103457944571862530",
                            "prev": "1103418444571862530",
                            "typeTag": 1
                        }
                    }
                ]
            }
        ]
    }
}