{
    "balance_change": {
        "balanceChanges": [
            {
                "account": "0xa52e014b3f5cc48287c2d483a3e026c32cc76e6d",
                "assets": [
                    {
                        "address": "0xeeeeeeeeeeeeeeeeeeeeeeeeeeeeeeeeeeeeeeee",
                        "amount": "0.219999999999999999",
                        "iconUrl": "https://assets.blocksec.com/image/1663669189317-3.png",
                        "isERC1155": false,
                        "isERC721": false,
                        "sign": false,
                        "value": ""
                    }
                ]
            },
            {
                "account": "0x840b83e869ba8b125362ea8d1bb11db40062af02",
                "assets": [
                    {
                        "address": "0xeeeeeeeeeeeeeeeeeeeeeeeeeeeeeeeeeeeeeeee",
                        "amount": "0.219999999999999999",
                        "iconUrl": "https://assets.blocksec.com/image/1663669189317-3.png",
                        "isERC1155": false,
                        "isERC721": false,
                        "sign": true,
                        "value": ""
                    }
                ]
            }
        ]
    },
    "profile": {
        "basic_info": {
            "baseFee": "",
            "blockNumber": 8683803,
            "callData": "0x38bbfa506bd306d42c044c810671ee446c9ee4583cc94bbdb1b6cfb9e500c0fd35c305f4000000000000000000000000000000000000000000000000000000000000006000000000000000000000000000000000000000000000000000000000000000a0000000000000000000000000000000000000000000000000000000000000000e5b3331333934382c205b31365d5d00000000000000000000000000000000000000000000000000000000000000000000000000000000000000000000000000221220e70e539208c8d5342393cf668ebbaf4c6632bad9ae9db30ebc1b844b8ef52ea3000000000000000000000000000000000000000000000000000000000000",
            "debugEnable": true,
            "errorInfo": "",
            "eventCount": 1,
            "feeRecipient": "0x5a0b54d5dc17e0aadc383d2db43b0a0d3e029c4c",
            "formatValue": "0",
            "gasLimit": 235000,
            "gasPrice": "10",
            "gasUsed": 155761,
            "intTxnCount": 3,
            "internalRevert": false,
            "internalRevertMessage": "",
            "isContractCreation": false,
            "isFlashloan": false,
            "maxFee": "",
            "nonce": 10024,
            "overwritedBlockNumber": -1,
            "priorityFee": "",
            "receiver": "0xa52e014b3f5cc48287c2d483a3e026c32cc76e6d",
            "revertMessage": "",
            "sender": "0x00004242f7b5c47ae90eaf0f1c2dddf630774c80",
            "simulationEnable": true,
            "sourceTxnHash": "0x02989eb9fa7c3e8d228e904db4a0388982ca1d85835a7ada2c261529a363fdc1",
            "status": true,
            "timestamp": "2019-10-05T18:52:35Z",
            "transactionFee": "0.00155761",
            "txnHash": "0x02989eb9fa7c3e8d228e904db4a0388982ca1d85835a7ada2c261529a363fdc1",
            "txnIndex": 15,
            "type": 0,
            "value": "0"
        },
        "fund_flow": [
            {
                "amount": "0.219999999999999999",
                "from": "0xa52e014b3f5cc48287c2d483a3e026c32cc76e6d",
                "id": 1,
                "isERC1155": false,
                "isERC721": false,
                "isReverted": false,
                "order": 1,
                "to": "0x840b83e869ba8b125362ea8d1bb11db40062af02",
                "token": "0xeeeeeeeeeeeeeeeeeeeeeeeeeeeeeeeeeeeeeeee"
            }
        ],
        "token_infos": [
            {
                "address": "0xc02aaa39b223fe8d0a0e5c4f27ead9083c756cc2",
                "decimals": 18
            },
            {
                "address": "0xeeeeeeeeeeeeeeeeeeeeeeeeeeeeeeeeeeeeeeee",
                "decimals": 18
            }
        ]
    },
    "address_label": {
        "labels": [
            {
                "address": "0x0000000000000000000000000000000000000002",
                "label": "Precompiled"
            },
            {
                "address": "0x0000000000000000000000000000000000000003",
                "label": "Precompiled"
            },
            {
                "address": "0x0000000000000000000000000000000000000004",
                "label": "Precompiled"
            },
            {
                "address": "0xeeeeeeeeeeeeeeeeeeeeeeeeeeeeeeeeeeeeeeee",
                "label": "Ether"
            },
            {
                "address": "0xa52e014b3f5cc48287c2d483a3e026c32cc76e6d",
                "label": "Etheroll: Contract"
            },
            {
                "address": "0x1d3b2638a7cc9f2cb3d298a3da7a90b67e5506ed",
                "label": "OraclizeAddrResolver"
            },
            {
                "address": "0x3dbdc81a6edc94c720b0b88fb65dbd7e395fdcf6",
                "label": "Oraclize"
            },
            {
                "address": "0x0000000000000000000000000000000000000001",
                "label": "Precompiled"
            }
        ]
    },
    "trace": {
        "accountLabels": null,
        "dataMap": {
            "-1": {
                "invocation": {
                    "address": "0x00004242f7b5c47ae90eaf0f1c2dddf630774c80",
                    "callData": "",
                    "decodedMethod": null,
                    "errorInfo": "",
                    "fromAddress": "",
                    "gasUsed": 0,
                    "id": -1,
                    "methodDecoded": false,
                    "operation": "",
                    "output": "",
                    "revert": false,
                    "revertMessage": "",
                    "selector": "",
                    "status": false,
                    "value": ""
                },
                "nodeType": 0
            },
            "0": {
                "invocation": {
                    "address": "0xa52e014b3f5cc48287c2d483a3e026c32cc76e6d",
                    "callData": "0x6bd306d42c044c810671ee446c9ee4583cc94bbdb1b6cfb9e500c0fd35c305f4000000000000000000000000000000000000000000000000000000000000006000000000000000000000000000000000000000000000000000000000000000a0000000000000000000000000000000000000000000000000000000000000000e5b3331333934382c205b31365d5d00000000000000000000000000000000000000000000000000000000000000000000000000000000000000000000000000221220e70e539208c8d5342393cf668ebbaf4c6632bad9ae9db30ebc1b844b8ef52ea3000000000000000000000000000000000000000000000000000000000000",
                    "decodedMethod": {
                        "callParams": [
                            {
                                "name": "myid",
                                "type": "bytes32",
                                "value": "0x6bd306d42c044c810671ee446c9ee4583cc94bbdb1b6cfb9e500c0fd35c305f4"
                            },
                            {
                                "name": "result",
                                "type": "string",
                                "value": "[313948, [16]]"
                            },
                            {
                                "name": "proof",
                                "type": "bytes",
                                "value": "0x1220e70e539208c8d5342393cf668ebbaf4c6632bad9ae9db30ebc1b844b8ef52ea3"
                            }
                        ],
                        "constructorArguments": "",
                        "name": "__callback",
                        "returnParams": [],
                        "signature": "__callback(bytes32,string,bytes)"
                    },
                    "errorInfo": "",
                    "fromAddress": "0x00004242f7b5c47ae90eaf0f1c2dddf630774c80",
                    "gasUsed": 155761,
                    "id": 0,
                    "methodDecoded": true,
                    "operation": "CALL",
                    "output": "",
                    "revert": false,
                    "revertMessage": "",
                    "selector": "0x38bbfa50",
                    "status": true,
                    "value": "0"
                },
                "nodeType": 0
            },
            "1": {
                "invocation": {
                    "address": "0x1d3b2638a7cc9f2cb3d298a3da7a90b67e5506ed",
                    "callData": "0x",
                    "decodedMethod": {
                        "callParams": [],
                        "constructorArguments": "",
                        "name": "getAddress",
                        "returnParams": [
                            {
                                "name": "oaddr",
                                "type": "address",
                                "value": "0x3dbdc81a6edc94c720b0b88fb65dbd7e395fdcf6"
                            }
                        ],
                        "signature": "getAddress()"
                    },
                    "errorInfo": "",
                    "fromAddress": "0xa52e014b3f5cc48287c2d483a3e026c32cc76e6d",
                    "gasUsed": 418,
                    "id": 1,
                    "methodDecoded": true,
                    "operation": "CALL",
                    "output": "0x0000000000000000000000003dbdc81a6edc94c720b0b88fb65dbd7e395fdcf6",
                    "revert": false,
                    "revertMessage": "",
                    "selector": "0x38cc4831",
                    "status": true,
                    "value": "0"
                },
                "nodeType": 0
            },
            "2": {
                "invocation": {
                    "address": "0x3dbdc81a6edc94c720b0b88fb65dbd7e395fdcf6",
                    "callData": "0x",
                    "decodedMethod": {
                        "callParams": [],
                        "constructorArguments": "",
                        "name": "cbAddress",
                        "returnParams": [
                            {
                                "name": "_cbAddress",
                                "type": "address",
                                "value": "0x00004242f7b5c47ae90eaf0f1c2dddf630774c80"
                            }
                        ],
                        "signature": "cbAddress()"
                    },
                    "errorInfo": "",
                    "fromAddress": "0xa52e014b3f5cc48287c2d483a3e026c32cc76e6d",
                    "gasUsed": 1444,
                    "id": 2,
                    "methodDecoded": true,
                    "operation": "CALL",
                    "output": "0x00000000000000000000000000004242f7b5c47ae90eaf0f1c2dddf630774c80",
                    "revert": false,
                    "revertMessage": "",
                    "selector": "0xc281d19e",
                    "status": true,
                    "value": "0"
                },
                "nodeType": 0
            },
            "3": {
                "event": {
                    "contract": "0xa52e014b3f5cc48287c2d483a3e026c32cc76e6d",
                    "decodedLog": {
                        "name": "LogResult",
                        "params": [
                            {
                                "name": "ResultSerialNumber",
                                "type": "uint256",
                                "value": "313,948"
                            },
                            {
                                "name": "BetID",
                                "type": "bytes32",
                                "value": "0x6bd306d42c044c810671ee446c9ee4583cc94bbdb1b6cfb9e500c0fd35c305f4"
                            },
                            {
                                "name": "PlayerAddress",
                                "type": "address",
                                "value": "0x840b83e869ba8b125362ea8d1bb11db40062af02"
                            },
                            {
                                "name": "PlayerNumber",
                                "type": "uint256",
                                "value": "91"
                            },
                            {
                                "name": "DiceResult",
                                "type": "uint256",
                                "value": "16"
                            },
                            {
                                "name": "Value",
                                "type": "uint256",
                                "value": "219,999,999,999,999,999"
                            },
                            {
                                "name": "Status",
                                "type": "int256",
                                "value": "1"
                            },
                            {
                                "name": "Proof",
                                "type": "bytes",
                                "value": "0x1220e70e539208c8d5342393cf668ebbaf4c6632bad9ae9db30ebc1b844b8ef52ea3"
                            }
                        ],
                        "signature": "LogResult(uint256,bytes32,address,uint256,uint256,uint256,int256,bytes)"
                    },
                    "id": 3,
                    "logData": "0x000000000000000000000000000000000000000000000000000000000000005b0000000000000000000000000000000000000000000000000000000000000010000000000000000000000000000000000000000000000000030d98d59a95ffff000000000000000000000000000000000000000000000000000000000000000100000000000000000000000000000000000000000000000000000000000000a000000000000000000000000000000000000000000000000000000000000000221220e70e539208c8d5342393cf668ebbaf4c6632bad9ae9db30ebc1b844b8ef52ea3000000000000000000000000000000000000000000000000000000000000",
                    "logDecoded": true,
                    "operation": "EVENT",
                    "revert": false,
                    "status": true,
                    "topics": [
                        "0x8dd0b145385d04711e29558ceab40b456976a2b9a7d648cc1bcd416161bf97b9",
                        "0x000000000000000000000000000000000000000000000000000000000004ca5c",
                        "0x6bd306d42c044c810671ee446c9ee4583cc94bbdb1b6cfb9e500c0fd35c305f4",
                        "0x000000000000000000000000840b83e869ba8b125362ea8d1bb11db40062af02"
                    ]
                },
                "nodeType": 1
            },
            "4": {
                "invocation": {
                    "address": "0x840b83e869ba8b125362ea8d1bb11db40062af02",
                    "callData": "0x",
                    "decodedMethod": null,
                    "errorInfo": "",
                    "fromAddress": "0xa52e014b3f5cc48287c2d483a3e026c32cc76e6d",
                    "gasUsed": 0,
                    "id": 4,
                    "methodDecoded": false,
                    "operation": "CALL",
                    "output": "",
                    "revert": false,
                    "revertMessage": "",
                    "selector": "fallback",
                    "status": true,
                    "value": "0.219999999999999999"
                },
                "nodeType": 0
            }
        },
        "gasFlame": [
            {
                "children": [
                    {
                        "children": [
                            {
                                "children": [],
                                "depth": 0,
                                "name": "Initial Gas",
                                "value": 27608
                            },
                            {
                                "children": [
                                    {
                                        "children": [],
                                        "depth": 1,
                                        "name": "getAddress",
                                        "value": 418
                                    },
                                    {
                                        "children": [],
                                        "depth": 1,
                                        "name": "cbAddress",
                                        "value": 1444
                                    },
                                    {
                                        "children": [],
                                        "depth": 1,
                                        "name": "fallback",
                                        "value": 0
                                    }
                                ],
                                "depth": 0,
                                "name": "Executed Gas",
                                "value": 173153
                            }
                        ],
                        "depth": -1,
                        "name": "Actual Gas Used",
                        "value": 155761
                    },
                    {
                        "children": [],
                        "depth": -1,
                        "name": "Refunded Gas",
                        "value": 45000
                    }
                ],
                "depth": -2,
                "name": "Total Gas",
                "value": 200761
            }
        ],
        "isConfirmed": true,
        "mainTrace": [
            {
                "children": [
                    {
                        "children": [
                            {
                                "children": [],
                                "depth": 1,
                                "id": 1,
                                "order": 1
                            },
                            {
                                "children": [],
                                "depth": 1,
                                "id": 2,
                                "order": 2
                            },
                            {
                                "children": [],
                                "depth": 1,
                                "id": 3,
                                "order": 3
                            },
                            {
                                "children": [],
                                "depth": 1,
                                "id": 4,
                                "order": 4
                            }
                        ],
                        "depth": 0,
                        "id": 0,
                        "order": 0
                    }
                ],
                "depth": -1,
                "id": -1,
                "order": -1
            }
        ],
        "mainTraceNodeCount": 5,
        "parentIdMap": {
            "0": -1,
            "1": 0,
            "2": 0,
            "3": 0,
            "4": 0
        },
        "tidyTrace": [
            {
                "children": [
                    {
                        "children": [
                            {
                                "children": [],
                                "depth": 1,
                                "id": 1,
                                "order": 1
                            },
                            {
                                "children": [],
                                "depth": 1,
                                "id": 2,
                                "order": 2
                            },
                            {
                                "children": [],
                                "depth": 1,
                                "id": 3,
                                "order": 3
                            },
                            {
                                "children": [],
                                "depth": 1,
                                "id": 4,
                                "order": 4
                            }
                        ],
                        "depth": 0,
                        "id": 0,
                        "order": 0
                    }
                ],
                "depth": -1,
                "id": -1,
                "order": -1
            }
        ],
        "tidyTraceNodeCount": 5
    },
    "state_change": {
        "stateChanges": [
            {
                "address": "0xa52e014b3f5cc48287c2d483a3e026c32cc76e6d",
                "erc": "",
                "slots": [
                    {
                        "current": "0x0000000000000000000000000000000000000000000000000000000000000010",
                        "key": "0x989a58d4c1509e7a5a30e81b5aae161396e4c88f13501d25ba093ab6e39d353a",
                        "prev": "0x0000000000000000000000000000000000000000000000000000000000000000"
                    },
                    {
                        "current": "0x0000000000000000000000000000000000000000000000000000000000000000",
                        "key": "0x8f8702e6a28b955366041c3356ce31eaa186eff7d42cfb5632849ea3e61fb930",
                        "prev": "0x00000000000000000000000000000000000000000000000002c68af0bb140000"
                    },
                    {
                        "current": "0x000000000000000000000000000000000000000000000004775a1a1e7727327b",
                        "key": "0x000000000000000000000000000000000000000000000000000000000000000d",
                        "prev": "0x00000000000000000000000000000000000000000000000477a1280356a9327a"
                    },
                    {
                        "current": "0x00000000000000000000000000000000000000000000000002c68af0bb140000",
                        "key": "0x706162bac9267e1df143397b92b1fa45b0e9c04ee5110077af72768ca7fd0d6a",
                        "prev": "0x0000000000000000000000000000000000000000000000000000000000000000"
                    },
                    {
                        "current": "0x0000000000000000000000000000000000000000000000000000000000000000",
                        "key": "0x088964b3ba14bdeb28593e2d0dff43b04507ec6a3f411f925c17b779ffa843ad",
                        "prev": "0x000000000000000000000000840b83e869ba8b125362ea8d1bb11db40062af02"
                    },
                    {
                        "current": "0x0000000000000000000000000000000000000000000000000000000000000000",
                        "key": "0x8886cff8612c1b1a87c546452a9ddc1aedd646fabc2831c77c4592704cdfa5ed",
                        "prev": "0x00000000000000000000000000000000000000000000000000470de4df81ffff"
                    },
                    {
                        "current": "0x00000000000000000000000000000000000000000000000000000000000a4990",
                        "key": "0x000000000000000000000000000000000000000000000000000000000000000c",
                        "prev": "0x00000000000000000000000000000000000000000000000000000000000a498f"
                    },
                    {
                        "current": "0x00000000000000000000000000000000000000000000a0246b586e3fc7193bd3",
                        "key": "0x000000000000000000000000000000000000000000000000000000000000000f",
                        "prev": "0x00000000000000000000000000000000000000000000a0246891e34f0c053bd3"
                    },
                    {
                        "current": "0x000000000000000000000000000000000000000000000000030d98d59a95ffff",
                        "key": "0x7094e839ddd4aafdb99f821a42bcc9ce513167cd4e43244e4b83cf7773ef45a0",
                        "prev": "0x0000000000000000000000000000000000000000000000000000000000000000"
                    },
                    {
                        "current": "0x0000000000000000000000000000000000000000000001204f5604b3bf28899e",
                        "key": "0x0000000000000000000000000000000000000000000000000000000000000007",
                        "prev": "0x0000000000000000000000000000000000000000000001204f9d12989eaa899d"
                    },
                    {
                        "current": "0x000000000000000000000000000000000000000000004148c0e9153c22084091",
                        "key": "0x000000000000000000000000000000000000000000000000000000000000000e",
                        "prev": "0x000000000000000000000000000000000000000000004148c0a2075742864092"
                    },
                    {
                        "current": "0x000000000000000000000000840b83e869ba8b125362ea8d1bb11db40062af02",
                        "key": "0x126788aca0fe8eecd199140eeea29aa4ac6f3c5889f1497f2cba8824f69b8c28",
                        "prev": "0x0000000000000000000000000000000000000000000000000000000000000000"
                    },
                    {
                        "current": "0x000000000000000000000000000000000000000000000002e212c7ba1e12534b",
                        "key": "0x0000000000000000000000000000000000000000000000000000000000000009",
                        "prev": "0x000000000000000000000000000000000000000000000002e2137da03f06d34b"
                    }
                ],
                "storageVariables": [
                    {
                        "name": "totalWeiWon",
                        "type": "uint256",
                        "value": {
                            "current": "308295887624906895540369",
                            "prev": "308295867624906895540370",
                            "typeTag": 1
                        }
                    },
                    {
                        "name": "maxProfit",
                        "type": "uint256",
                        "value": {
                            "current": "53183790551753970507",
                            "prev": "53183990551753970507",
                            "typeTag": 1
                        }
                    },
                    {
                        "name": "contractBalance",
                        "type": "uint256",
                        "value": {
                            "current": "5318379055175397050782",
                            "prev": "5318399055175397050781",
                            "typeTag": 1
                        }
                    },
                    {
                        "name": "playerProfit",
                        "type": "mapping(bytes32 => uint256)",
                        "value": {
                            "pairs": [
                                {
                                    "key": "0x6bd306d42c044c810671ee446c9ee4583cc94bbdb1b6cfb9e500c0fd35c305f4",
                                    "value": {
                                        "current": "0",
                                        "prev": "19999999999999999",
                                        "typeTag": 1
                                    }
                                }
                            ],
                            "typeTag": 4
                        }
                    },
                    {
                        "name": "playerTempReward",
                        "type": "mapping(bytes32 => uint256)",
                        "value": {
                            "pairs": [
                                {
                                    "key": "0x6bd306d42c044c810671ee446c9ee4583cc94bbdb1b6cfb9e500c0fd35c305f4",
                                    "value": {
                                        "current": "219999999999999999",
                                        "prev": "0",
                                        "typeTag": 1
                                    }
                                }
                            ],
                            "typeTag": 4
                        }
                    },
                    {
                        "name": "playerTempBetValue",
                        "type": "mapping(bytes32 => uint256)",
                        "value": {
                            "pairs": [
                                {
                                    "key": "0x6bd306d42c044c810671ee446c9ee4583cc94bbdb1b6cfb9e500c0fd35c305f4",
                                    "value": {
                                        "current": "200000000000000000",
                                        "prev": "0",
                                        "typeTag": 1
                                    }
                                }
                            ],
                            "typeTag": 4
                        }
                    },
                    {
                        "name": "playerBetValue",
                        "type": "mapping(bytes32 => uint256)",
                        "value": {
                            "pairs": [
                                {
                                    "key": "0x6bd306d42c044c810671ee446c9ee4583cc94bbdb1b6cfb9e500c0fd35c305f4",
                                    "value": {
                                        "current": "0",
                                        "prev": "200000000000000000",
                                        "typeTag": 1
                                    }
                                }
                            ],
                            "typeTag": 4
                        }
                    },
                    {
                        "name": "playerDieResult",
                        "type": "mapping(bytes32 => uint256)",
                        "value": {
                            "pairs": [
                                {
                                    "key": "0x6bd306d42c044c810671ee446c9ee4583cc94bbdb1b6cfb9e500c0fd35c305f4",
                                    "value": {
                                        "current": "16",
                                        "prev": "0",
                                        "typeTag": 1
                                    }
                                }
                            ],
                            "typeTag": 4
                        }
                    },
                    {
                        "name": "playerAddress",
                        "type": "mapping(bytes32 => address)",
                        "value": {
                            "pairs": [
                                {
                                    "key": "0x6bd306d42c044c810671ee446c9ee4583cc94bbdb1b6cfb9e500c0fd35c305f4",
                                    "value": {
                                        "current": "0x0000000000000000000000000000000000000000",
                                        "prev": "0x840b83e869ba8b125362ea8d1bb11db40062af02",
                                        "typeTag": 1
                                    }
                                }
                            ],
                            "typeTag": 4
                        }
                    },
                    {
                        "name": "totalBets",
                        "type": "uint256",
                        "value": {
                            "current": "674192",
                            "prev": "674191",
                            "typeTag": 1
                        }
                    },
                    {
                        "name": "playerTempAddress",
                        "type": "mapping(bytes32 => address)",
                        "value": {
                            "pairs": [
                                {
                                    "key": "0x6bd306d42c044c810671ee446c9ee4583cc94bbdb1b6cfb9e500c0fd35c305f4",
                                    "value": {
                                        "current": "0x840b83e869ba8b125362ea8d1bb11db40062af02",
                                        "prev": "0x0000000000000000000000000000000000000000",
                                        "typeTag": 1
                                    }
                                }
                            ],
                            "typeTag": 4
                        }
                    },
                    {
                        "name": "totalWeiWagered",
                        "type": "uint256",
                        "value": {
                            "current": "756250455099376989191123",
                            "prev": "756250255099376989191123",
                            "typeTag": 1
                        }
                    },
                    {
                        "name": "maxPendingPayouts",
                        "type": "uint256",
                        "value": {
                            "current": "82387191451405988475",
                            "prev": "82407191451405988474",
                            "typeTag": 1
                        }
                    }
                ]
            }
        ]
    }
}