{
    "balance_change": {
        "balanceChanges": []
    },
    "profile": {
        "basic_info": {
            "baseFee": "17.894813528",
            "blockNumber": 15201618,
            "callData": "0xfd9f1e10000000000000000000000000000000000000000000000000000000000000002000000000000000000000000000000000000000000000000000000000000000010000000000000000000000000000000000000000000000000000000000000020000000000000000000000000d3207414f8f0dc6436098660a95763f441abe83d000000000000000000000000004c00500000ad104d7dbd00e3ae0a5c00560c000000000000000000000000000000000000000000000000000000000000000160000000000000000000000000000000000000000000000000000000000000022000000000000000000000000000000000000000000000000000000000000000020000000000000000000000000000000000000000000000000000000062dc60400000000000000000000000000000000000000000000000000000000062e049e7000000000000000000000000000000000000000000000000000000000000000000000000000000000000000000000000000000000000000000cc91f1f5e543350000007b02230091a7ed01230072f7006a004d60a8d4e71d599b8104250f0000000000000000000000000000000000000000000000000000000000000000000000000000000000000000000000000000000000000000000000000000000000010000000000000000000000000000000000000000000000000000000000000001000000000000000000000000c02aaa39b223fe8d0a0e5c4f27ead9083c756cc2000000000000000000000000000000000000000000000000000000000000000000000000000000000000000000000000000000000000000011e7002a5041000000000000000000000000000000000000000000000000000011e7002a50410000000000000000000000000000000000000000000000000000000000000000000300000000000000000000000000000000000000000000000000000000000000020000000000000000000000003903d4ffaaa700b62578a66e7a67ba4cb67787f9000000000000000000000000000000000000000000000000000000000000041f00000000000000000000000000000000000000000000000000000000000000010000000000000000000000000000000000000000000000000000000000000001000000000000000000000000d3207414f8f0dc6436098660a95763f441abe83d0000000000000000000000000000000000000000000000000000000000000002000000000000000000000000da60730e1feaa7d8321f62ffb069edd869e57d02000000000000000000000000000000000000000000000000000000000000041f00000000000000000000000000000000000000000000000000000000000000010000000000000000000000000000000000000000000000000000000000000001000000000000000000000000d3207414f8f0dc6436098660a95763f441abe83d0000000000000000000000000000000000000000000000000000000000000001000000000000000000000000c02aaa39b223fe8d0a0e5c4f27ead9083c756cc20000000000000000000000000000000000000000000000000000000000000000000000000000000000000000000000000000000000000000007293344201a000000000000000000000000000000000000000000000000000007293344201a0000000000000000000000000008de9c5a032463c561423387a9648c5c7bcc5bc90",
            "debugEnable": true,
            "errorInfo": "",
            "eventCount": 1,
            "feeRecipient": "0xea674fdde714fd979de3edf0f56aa9716b898ec8",
            "formatValue": "0",
            "gasLimit": 61375,
            "gasPrice": "20.394813528",
            "gasUsed": 61375,
            "intTxnCount": 0,
            "internalRevert": false,
            "internalRevertMessage": "",
            "isContractCreation": false,
            "isFlashloan": false,
            "maxFee": "30.785526718",
            "nonce": 120,
            "overwritedBlockNumber": -1,
            "priorityFee": "2.5",
            "receiver": "0x00000000006c3852cbef3e08e8df289169ede581",
            "revertMessage": "",
            "sender": "0xd3207414f8f0dc6436098660a95763f441abe83d",
            "simulationEnable": true,
            "sourceTxnHash": "0x02812556d49af336fd35ab217accf86e054eda562b7ba1bd07ce50faa826a732",
            "status": true,
            "timestamp": "2022-07-23T22:22:51Z",
            "transactionFee": "0.001251731680281",
            "txnHash": "0x02812556d49af336fd35ab217accf86e054eda562b7ba1bd07ce50faa826a732",
            "txnIndex": 170,
            "type": 2,
            "value": "0"
        },
        "fund_flow": [],
        "token_infos": [
            {
                "address": "0xc02aaa39b223fe8d0a0e5c4f27ead9083c756cc2",
                "decimals": 18
            },
            {
                "address": "0xeeeeeeeeeeeeeeeeeeeeeeeeeeeeeeeeeeeeeeee",
                "decimals": 18
            }
        ]
    },
    "address_label": {
        "labels": [
            {
                "address": "0xeeeeeeeeeeeeeeeeeeeeeeeeeeeeeeeeeeeeeeee",
                "label": "Ether"
            },
            {
                "address": "0xc02aaa39b223fe8d0a0e5c4f27ead9083c756cc2",
                "label": "Wrapped Ether (WETH)"
            },
            {
                "address": "0x3903d4ffaaa700b62578a66e7a67ba4cb67787f9",
                "label": "Quirkies: QRKS Token"
            },
            {
                "address": "0x004c00500000ad104d7dbd00e3ae0a5c00560c00",
                "label": "OpenSea: Pausable Zone"
            },
            {
                "address": "0x0000000000000000000000000000000000000002",
                "label": "Precompiled"
            },
            {
                "address": "0x0000000000000000000000000000000000000003",
                "label": "Precompiled"
            },
            {
                "address": "0x0000000000000000000000000000000000000004",
                "label": "Precompiled"
            },
            {
                "address": "0x8de9c5a032463c561423387a9648c5c7bcc5bc90",
                "label": "OpenSea: Fees"
            },
            {
                "address": "0xda60730e1feaa7d8321f62ffb069edd869e57d02",
                "label": "Quirklings: QRKL Token"
            },
            {
                "address": "0x00000000006c3852cbef3e08e8df289169ede581",
                "label": "Seaport 1.1"
            },
            {
                "address": "0x0000000000000000000000000000000000000001",
                "label": "Precompiled"
            }
        ]
    },
    "trace": {
        "accountLabels": null,
        "dataMap": {
            "-1": {
                "invocation": {
                    "address": "0xd3207414f8f0dc6436098660a95763f441abe83d",
                    "callData": "",
                    "decodedMethod": null,
                    "errorInfo": "",
                    "fromAddress": "",
                    "gasUsed": 0,
                    "id": -1,
                    "methodDecoded": false,
                    "operation": "",
                    "output": "",
                    "revert": false,
                    "revertMessage": "",
                    "selector": "",
                    "status": false,
                    "value": ""
                },
                "nodeType": 0
            },
            "0": {
                "invocation": {
                    "address": "0x00000000006c3852cbef3e08e8df289169ede581",
                    "callData": "0x000000000000000000000000000000000000000000000000000000000000002000000000000000000000000000000000000000000000000000000000000000010000000000000000000000000000000000000000000000000000000000000020000000000000000000000000d3207414f8f0dc6436098660a95763f441abe83d000000000000000000000000004c00500000ad104d7dbd00e3ae0a5c00560c000000000000000000000000000000000000000000000000000000000000000160000000000000000000000000000000000000000000000000000000000000022000000000000000000000000000000000000000000000000000000000000000020000000000000000000000000000000000000000000000000000000062dc60400000000000000000000000000000000000000000000000000000000062e049e7000000000000000000000000000000000000000000000000000000000000000000000000000000000000000000000000000000000000000000cc91f1f5e543350000007b02230091a7ed01230072f7006a004d60a8d4e71d599b8104250f0000000000000000000000000000000000000000000000000000000000000000000000000000000000000000000000000000000000000000000000000000000000010000000000000000000000000000000000000000000000000000000000000001000000000000000000000000c02aaa39b223fe8d0a0e5c4f27ead9083c756cc2000000000000000000000000000000000000000000000000000000000000000000000000000000000000000000000000000000000000000011e7002a5041000000000000000000000000000000000000000000000000000011e7002a50410000000000000000000000000000000000000000000000000000000000000000000300000000000000000000000000000000000000000000000000000000000000020000000000000000000000003903d4ffaaa700b62578a66e7a67ba4cb67787f9000000000000000000000000000000000000000000000000000000000000041f00000000000000000000000000000000000000000000000000000000000000010000000000000000000000000000000000000000000000000000000000000001000000000000000000000000d3207414f8f0dc6436098660a95763f441abe83d0000000000000000000000000000000000000000000000000000000000000002000000000000000000000000da60730e1feaa7d8321f62ffb069edd869e57d02000000000000000000000000000000000000000000000000000000000000041f00000000000000000000000000000000000000000000000000000000000000010000000000000000000000000000000000000000000000000000000000000001000000000000000000000000d3207414f8f0dc6436098660a95763f441abe83d0000000000000000000000000000000000000000000000000000000000000001000000000000000000000000c02aaa39b223fe8d0a0e5c4f27ead9083c756cc20000000000000000000000000000000000000000000000000000000000000000000000000000000000000000000000000000000000000000007293344201a000000000000000000000000000000000000000000000000000007293344201a0000000000000000000000000008de9c5a032463c561423387a9648c5c7bcc5bc90",
                    "decodedMethod": {
                        "callParams": [
                            {
                                "name": "orders",
                                "type": "(address,address,(uint8,address,uint256,uint256,uint256)[],(uint8,address,uint256,uint256,uint256,address)[],uint8,uint256,uint256,bytes32,uint256,bytes32,uint256)[]",
                                "value": [
                                    [
                                        {
                                            "name": "offerer",
                                            "type": "address",
                                            "value": "0xd3207414f8f0dc6436098660a95763f441abe83d"
                                        },
                                        {
                                            "name": "zone",
                                            "type": "address",
                                            "value": "0x004c00500000ad104d7dbd00e3ae0a5c00560c00"
                                        },
                                        {
                                            "name": "offer",
                                            "type": "(uint8,address,uint256,uint256,uint256)[]",
                                            "value": [
                                                [
                                                    {
                                                        "name": "itemType",
                                                        "type": "uint8",
                                                        "value": "1"
                                                    },
                                                    {
                                                        "name": "token",
                                                        "type": "address",
                                                        "value": "0xc02aaa39b223fe8d0a0e5c4f27ead9083c756cc2"
                                                    },
                                                    {
                                                        "name": "identifierOrCriteria",
                                                        "type": "uint256",
                                                        "value": "0"
                                                    },
                                                    {
                                                        "name": "startAmount",
                                                        "type": "uint256",
                                                        "value": "1,290,000,000,000,000,000"
                                                    },
                                                    {
                                                        "name": "endAmount",
                                                        "type": "uint256",
                                                        "value": "1,290,000,000,000,000,000"
                                                    }
                                                ]
                                            ]
                                        },
                                        {
                                            "name": "consideration",
                                            "type": "(uint8,address,uint256,uint256,uint256,address)[]",
                                            "value": [
                                                [
                                                    {
                                                        "name": "itemType",
                                                        "type": "uint8",
                                                        "value": "2"
                                                    },
                                                    {
                                                        "name": "token",
                                                        "type": "address",
                                                        "value": "0x3903d4ffaaa700b62578a66e7a67ba4cb67787f9"
                                                    },
                                                    {
                                                        "name": "identifierOrCriteria",
                                                        "type": "uint256",
                                                        "value": "1,055"
                                                    },
                                                    {
                                                        "name": "startAmount",
                                                        "type": "uint256",
                                                        "value": "1"
                                                    },
                                                    {
                                                        "name": "endAmount",
                                                        "type": "uint256",
                                                        "value": "1"
                                                    },
                                                    {
                                                        "name": "recipient",
                                                        "type": "address",
                                                        "value": "0xd3207414f8f0dc6436098660a95763f441abe83d"
                                                    }
                                                ],
                                                [
                                                    {
                                                        "name": "itemType",
                                                        "type": "uint8",
                                                        "value": "2"
                                                    },
                                                    {
                                                        "name": "token",
                                                        "type": "address",
                                                        "value": "0xda60730e1feaa7d8321f62ffb069edd869e57d02"
                                                    },
                                                    {
                                                        "name": "identifierOrCriteria",
                                                        "type": "uint256",
                                                        "value": "1,055"
                                                    },
                                                    {
                                                        "name": "startAmount",
                                                        "type": "uint256",
                                                        "value": "1"
                                                    },
                                                    {
                                                        "name": "endAmount",
                                                        "type": "uint256",
                                                        "value": "1"
                                                    },
                                                    {
                                                        "name": "recipient",
                                                        "type": "address",
                                                        "value": "0xd3207414f8f0dc6436098660a95763f441abe83d"
                                                    }
                                                ],
                                                [
                                                    {
                                                        "name": "itemType",
                                                        "type": "uint8",
                                                        "value": "1"
                                                    },
                                                    {
                                                        "name": "token",
                                                        "type": "address",
                                                        "value": "0xc02aaa39b223fe8d0a0e5c4f27ead9083c756cc2"
                                                    },
                                                    {
                                                        "name": "identifierOrCriteria",
                                                        "type": "uint256",
                                                        "value": "0"
                                                    },
                                                    {
                                                        "name": "startAmount",
                                                        "type": "uint256",
                                                        "value": "32,250,000,000,000,000"
                                                    },
                                                    {
                                                        "name": "endAmount",
                                                        "type": "uint256",
                                                        "value": "32,250,000,000,000,000"
                                                    },
                                                    {
                                                        "name": "recipient",
                                                        "type": "address",
                                                        "value": "0x8de9c5a032463c561423387a9648c5c7bcc5bc90"
                                                    }
                                                ]
                                            ]
                                        },
                                        {
                                            "name": "orderType",
                                            "type": "uint8",
                                            "value": "2"
                                        },
                                        {
                                            "name": "startTime",
                                            "type": "uint256",
                                            "value": "1,658,609,728"
                                        },
                                        {
                                            "name": "endTime",
                                            "type": "uint256",
                                            "value": "1,658,866,151"
                                        },
                                        {
                                            "name": "zoneHash",
                                            "type": "bytes32",
                                            "value": "0x0000000000000000000000000000000000000000000000000000000000000000"
                                        },
                                        {
                                            "name": "salt",
                                            "type": "uint256",
                                            "value": "57,581,363,647,562,549"
                                        },
                                        {
                                            "name": "conduitKey",
                                            "type": "bytes32",
                                            "value": "0x0000007b02230091a7ed01230072f7006a004d60a8d4e71d599b8104250f0000"
                                        },
                                        {
                                            "name": "counter",
                                            "type": "uint256",
                                            "value": "0"
                                        }
                                    ]
                                ]
                            }
                        ],
                        "constructorArguments": "",
                        "name": "cancel",
                        "returnParams": [
                            {
                                "name": "cancelled",
                                "type": "bool",
                                "value": true
                            }
                        ],
                        "signature": "cancel((address,address,(uint8,address,uint256,uint256,uint256)[],(uint8,address,uint256,uint256,uint256,address)[],uint8,uint256,uint256,bytes32,uint256,bytes32,uint256)[])"
                    },
                    "errorInfo": "",
                    "fromAddress": "0xd3207414f8f0dc6436098660a95763f441abe83d",
                    "gasUsed": 61375,
                    "id": 0,
                    "methodDecoded": true,
                    "operation": "CALL",
                    "output": "0x0000000000000000000000000000000000000000000000000000000000000001",
                    "revert": false,
                    "revertMessage": "",
                    "selector": "0xfd9f1e10",
                    "status": true,
                    "value": "0"
                },
                "nodeType": 0
            },
            "1": {
                "event": {
                    "contract": "0x00000000006c3852cbef3e08e8df289169ede581",
                    "decodedLog": {
                        "name": "OrderCancelled",
                        "params": [
                            {
                                "name": "offerer",
                                "type": "address",
                                "value": "0xd3207414f8f0dc6436098660a95763f441abe83d"
                            },
                            {
                                "name": "zone",
                                "type": "address",
                                "value": "0x004c00500000ad104d7dbd00e3ae0a5c00560c00"
                            },
                            {
                                "name": "orderHash",
                                "type": "bytes32",
                                "value": "0x536422eee1e9f5c6d43236544cfbec1b8fcc4f546a05ddebfe4413c073dcd815"
                            }
                        ],
                        "signature": "OrderCancelled(bytes32,address,address)"
                    },
                    "id": 1,
                    "logData": "0x536422eee1e9f5c6d43236544cfbec1b8fcc4f546a05ddebfe4413c073dcd815",
                    "logDecoded": true,
                    "operation": "EVENT",
                    "revert": false,
                    "status": true,
                    "topics": [
                        "0x6bacc01dbe442496068f7d234edd811f1a5f833243e0aec824f86ab861f3c90d",
                        "0x000000000000000000000000d3207414f8f0dc6436098660a95763f441abe83d",
                        "0x000000000000000000000000004c00500000ad104d7dbd00e3ae0a5c00560c00"
                    ]
                },
                "nodeType": 1
            }
        },
        "gasFlame": [
            {
                "children": [
                    {
                        "children": [
                            {
                                "children": [],
                                "depth": 0,
                                "name": "Initial Gas",
                                "value": 29104
                            },
                            {
                                "children": [],
                                "depth": 0,
                                "name": "Executed Gas",
                                "value": 32271
                            }
                        ],
                        "depth": -1,
                        "name": "Actual Gas Used",
                        "value": 61375
                    },
                    {
                        "children": [],
                        "depth": -1,
                        "name": "Refunded Gas",
                        "value": 0
                    }
                ],
                "depth": -2,
                "name": "Total Gas",
                "value": 61375
            }
        ],
        "isConfirmed": true,
        "mainTrace": [
            {
                "children": [
                    {
                        "children": [
                            {
                                "children": [],
                                "depth": 1,
                                "id": 1,
                                "order": 1
                            }
                        ],
                        "depth": 0,
                        "id": 0,
                        "order": 0
                    }
                ],
                "depth": -1,
                "id": -1,
                "order": -1
            }
        ],
        "mainTraceNodeCount": 2,
        "parentIdMap": {
            "0": -1,
            "1": 0
        },
        "tidyTrace": [
            {
                "children": [
                    {
                        "children": [
                            {
                                "children": [],
                                "depth": 1,
                                "id": 1,
                                "order": 1
                            }
                        ],
                        "depth": 0,
                        "id": 0,
                        "order": 0
                    }
                ],
                "depth": -1,
                "id": -1,
                "order": -1
            }
        ],
        "tidyTraceNodeCount": 2
    },
    "state_change": {
        "stateChanges": [
            {
                "address": "0x00000000006c3852cbef3e08e8df289169ede581",
                "erc": "",
                "slots": [
                    {
                        "current": "0x0000000000000000000000000000000000000000000000000000000000000100",
                        "key": "0x6d2695594b087cdc1562e8983fa5b3d9c0d694bcf3741cac40b5f5e640cce9c3",
                        "prev": "0x0000000000000000000000000000000000000000000000000000000000000000"
                    }
                ],
                "storageVariables": [
                    {
                        "name": "_orderStatus",
                        "type": "mapping(bytes32 => struct OrderStatus)",
                        "value": {
                            "pairs": [
                                {
                                    "key": "0x536422eee1e9f5c6d43236544cfbec1b8fcc4f546a05ddebfe4413c073dcd815",
                                    "value": {
                                        "fields": [
                                            {
                                                "name": "isValidated",
                                                "type": "bool",
                                                "value": {
                                                    "current": "false",
                                                    "prev": "false",
                                                    "typeTag": 1
                                                }
                                            },
                                            {
                                                "name": "isCancelled",
                                                "type": "bool",
                                                "value": {
                                                    "current": "true",
                                                    "prev": "false",
                                                    "typeTag": 1
                                                }
                                            },
                                            {
                                                "name": "numerator",
                                                "type": "uint120",
                                                "value": {
                                                    "current": "0",
                                                    "prev": "0",
                                                    "typeTag": 1
                                                }
                                            },
                                            {
                                                "name": "denominator",
                                                "type": "uint120",
                                                "value": {
                                                    "current": "0",
                                                    "prev": "0",
                                                    "typeTag": 1
                                                }
                                            }
                                        ],
                                        "typeTag": 3
                                    }
                                }
                            ],
                            "typeTag": 4
                        }
                    }
                ]
            }
        ]
    }
}