{
    "balance_change": {
        "balanceChanges": [
            {
                "account": "0x7c08975bef6c1a72f31805f3b844c6f36ce1f21a",
                "assets": [
                    {
                        "address": "0xeeeeeeeeeeeeeeeeeeeeeeeeeeeeeeeeeeeeeeee",
                        "amount": "0.299",
                        "iconUrl": "https://assets.blocksec.com/image/1663669189317-3.png",
                        "isERC1155": false,
                        "isERC721": false,
                        "sign": false,
                        "value": "411.60638999999997006"
                    }
                ]
            },
            {
                "account": "0xcf2d61ec65537e441bbd0ab7a7e7d48c693ea3f3",
                "assets": [
                    {
                        "address": "0xeeeeeeeeeeeeeeeeeeeeeeeeeeeeeeeeeeeeeeee",
                        "amount": "0.299",
                        "iconUrl": "https://assets.blocksec.com/image/1663669189317-3.png",
                        "isERC1155": false,
                        "isERC721": false,
                        "sign": true,
                        "value": "411.60638999999997006"
                    }
                ]
            }
        ]
    },
    "profile": {
        "basic_info": {
            "baseFee": "10.570297994",
            "blockNumber": 15689312,
            "callData": "0xabd3f53400000000000000000000000000000000000000000000000000000000000000010000000000000000000000000000000000000000000000000000000000000000",
            "debugEnable": true,
            "errorInfo": "",
            "eventCount": 0,
            "feeRecipient": "0xc436eb8aed128275c8f224de2f1dd202c0ab5830",
            "formatValue": "0.2991",
            "gasLimit": 225282,
            "gasPrice": "10.955514738",
            "gasUsed": 225282,
            "intTxnCount": 6,
            "internalRevert": false,
            "internalRevertMessage": "",
            "isContractCreation": false,
            "isFlashloan": false,
            "maxFee": "10.955514738",
            "nonce": 0,
            "overwritedBlockNumber": -1,
            "priorityFee": "10.955514738",
            "receiver": "0xcf2d61ec65537e441bbd0ab7a7e7d48c693ea3f3",
            "revertMessage": "",
            "sender": "0x7c08975bef6c1a72f31805f3b844c6f36ce1f21a",
            "simulationEnable": true,
            "sourceTxnHash": "0x03d4f7cc6abaf4c10f3c69c9ba4f044082f80f8afdd0547da256ed9960f02139",
            "status": true,
            "timestamp": "2022-10-06T13:19:11Z",
            "transactionFee": "0.002468080271206116",
            "txnHash": "0x03d4f7cc6abaf4c10f3c69c9ba4f044082f80f8afdd0547da256ed9960f02139",
            "txnIndex": 99,
            "type": 2,
            "value": "299100000000000000"
        },
        "fund_flow": [
            {
                "amount": "0.2991",
                "from": "0x7c08975bef6c1a72f31805f3b844c6f36ce1f21a",
                "id": 1,
                "isERC1155": false,
                "isERC721": false,
                "isReverted": false,
                "order": 1,
                "to": "0xcf2d61ec65537e441bbd0ab7a7e7d48c693ea3f3",
                "token": "0xeeeeeeeeeeeeeeeeeeeeeeeeeeeeeeeeeeeeeeee"
            },
            {
                "amount": "0.0001",
                "from": "0xcf2d61ec65537e441bbd0ab7a7e7d48c693ea3f3",
                "id": 2,
                "isERC1155": false,
                "isERC721": false,
                "isReverted": false,
                "order": 2,
                "to": "0x7c08975bef6c1a72f31805f3b844c6f36ce1f21a",
                "token": "0xeeeeeeeeeeeeeeeeeeeeeeeeeeeeeeeeeeeeeeee"
            }
        ],
        "token_infos": [
            {
                "address": "0xc02aaa39b223fe8d0a0e5c4f27ead9083c756cc2",
                "decimals": 18
            },
            {
                "address": "0xeeeeeeeeeeeeeeeeeeeeeeeeeeeeeeeeeeeeeeee",
                "decimals": 18
            }
        ]
    },
    "address_label": {
        "labels": [
            {
                "address": "0xeeeeeeeeeeeeeeeeeeeeeeeeeeeeeeeeeeeeeeee",
                "label": "Ether"
            },
            {
                "address": "0x0000000000000000000000000000000000000001",
                "label": "Precompiled"
            },
            {
                "address": "0x0000000000000000000000000000000000000002",
                "label": "Precompiled"
            },
            {
                "address": "0x0000000000000000000000000000000000000003",
                "label": "Precompiled"
            },
            {
                "address": "0x0000000000000000000000000000000000000004",
                "label": "Precompiled"
            }
        ]
    },
    "trace": {
        "accountLabels": null,
        "dataMap": {
            "-1": {
                "invocation": {
                    "address": "0x7c08975bef6c1a72f31805f3b844c6f36ce1f21a",
                    "callData": "",
                    "decodedMethod": null,
                    "errorInfo": "",
                    "fromAddress": "",
                    "gasUsed": 0,
                    "id": -1,
                    "methodDecoded": false,
                    "operation": "",
                    "output": "",
                    "revert": false,
                    "revertMessage": "",
                    "selector": "",
                    "status": false,
                    "value": ""
                },
                "nodeType": 0
            },
            "0": {
                "invocation": {
                    "address": "0xcf2d61ec65537e441bbd0ab7a7e7d48c693ea3f3",
                    "callData": "0x00000000000000000000000000000000000000000000000000000000000000010000000000000000000000000000000000000000000000000000000000000000",
                    "decodedMethod": null,
                    "errorInfo": "",
                    "fromAddress": "0x7c08975bef6c1a72f31805f3b844c6f36ce1f21a",
                    "gasUsed": 225282,
                    "id": 0,
                    "methodDecoded": false,
                    "operation": "CALL",
                    "output": "",
                    "revert": false,
                    "revertMessage": "",
                    "selector": "0xabd3f534",
                    "status": true,
                    "value": "0.2991"
                },
                "nodeType": 0
            },
            "1": {
                "invocation": {
                    "address": "0xa881bb2eda60298bc3c5fe3679c002cfb599286b",
                    "callData": "0x0000000000000000000000007c08975bef6c1a72f31805f3b844c6f36ce1f21a",
                    "decodedMethod": {
                        "callParams": [
                            {
                                "name": "_address",
                                "type": "address",
                                "value": "0x7c08975bef6c1a72f31805f3b844c6f36ce1f21a"
                            }
                        ],
                        "constructorArguments": "",
                        "name": "canMint",
                        "returnParams": [
                            {
                                "name": "",
                                "type": "uint256",
                                "value": "0"
                            }
                        ],
                        "signature": "canMint(address)"
                    },
                    "errorInfo": "",
                    "fromAddress": "0xcf2d61ec65537e441bbd0ab7a7e7d48c693ea3f3",
                    "gasUsed": 2563,
                    "id": 1,
                    "methodDecoded": true,
                    "operation": "STATICCALL",
                    "output": "0x0000000000000000000000000000000000000000000000000000000000000000",
                    "revert": false,
                    "revertMessage": "",
                    "selector": "0xc2ba4744",
                    "status": true,
                    "value": "0"
                },
                "nodeType": 0
            },
            "2": {
                "invocation": {
                    "address": "0xa881bb2eda60298bc3c5fe3679c002cfb599286b",
                    "callData": "0x0000000000000000000000007c08975bef6c1a72f31805f3b844c6f36ce1f21a",
                    "decodedMethod": {
                        "callParams": [
                            {
                                "name": "_address",
                                "type": "address",
                                "value": "0x7c08975bef6c1a72f31805f3b844c6f36ce1f21a"
                            }
                        ],
                        "constructorArguments": "",
                        "name": "canMint",
                        "returnParams": [
                            {
                                "name": "",
                                "type": "uint256",
                                "value": "0"
                            }
                        ],
                        "signature": "canMint(address)"
                    },
                    "errorInfo": "",
                    "fromAddress": "0xcf2d61ec65537e441bbd0ab7a7e7d48c693ea3f3",
                    "gasUsed": 563,
                    "id": 2,
                    "methodDecoded": true,
                    "operation": "STATICCALL",
                    "output": "0x0000000000000000000000000000000000000000000000000000000000000000",
                    "revert": false,
                    "revertMessage": "",
                    "selector": "0xc2ba4744",
                    "status": true,
                    "value": "0"
                },
                "nodeType": 0
            },
            "3": {
                "invocation": {
                    "address": "0x7c08975bef6c1a72f31805f3b844c6f36ce1f21a",
                    "callData": "0x",
                    "decodedMethod": null,
                    "errorInfo": "",
                    "fromAddress": "0xcf2d61ec65537e441bbd0ab7a7e7d48c693ea3f3",
                    "gasUsed": 0,
                    "id": 3,
                    "methodDecoded": false,
                    "operation": "CALL",
                    "output": "",
                    "revert": false,
                    "revertMessage": "",
                    "selector": "fallback",
                    "status": true,
                    "value": "0.0001"
                },
                "nodeType": 0
            },
            "4": {
                "invocation": {
                    "address": "0xa881bb2eda60298bc3c5fe3679c002cfb599286b",
                    "callData": "0x0000000000000000000000007c08975bef6c1a72f31805f3b844c6f36ce1f21a000000000000000000000000000000000000000000000a91159c927818300000",
                    "decodedMethod": null,
                    "errorInfo": "",
                    "fromAddress": "0xcf2d61ec65537e441bbd0ab7a7e7d48c693ea3f3",
                    "gasUsed": 30007,
                    "id": 4,
                    "methodDecoded": false,
                    "operation": "CALL",
                    "output": "",
                    "revert": false,
                    "revertMessage": "",
                    "selector": "0x34d8df4a",
                    "status": true,
                    "value": "0"
                },
                "nodeType": 0
            },
            "5": {
                "invocation": {
                    "address": "0xa881bb2eda60298bc3c5fe3679c002cfb599286b",
                    "callData": "0x00000000000000000000000090c84817406462c8c5977d9790c7b8ec2cce716e00000000000000000000000000000000000000000000021d045283b19e700000",
                    "decodedMethod": null,
                    "errorInfo": "",
                    "fromAddress": "0xcf2d61ec65537e441bbd0ab7a7e7d48c693ea3f3",
                    "gasUsed": 6107,
                    "id": 5,
                    "methodDecoded": false,
                    "operation": "CALL",
                    "output": "",
                    "revert": false,
                    "revertMessage": "",
                    "selector": "0x34d8df4a",
                    "status": true,
                    "value": "0"
                },
                "nodeType": 0
            },
            "6": {
                "invocation": {
                    "address": "0xa881bb2eda60298bc3c5fe3679c002cfb599286b",
                    "callData": "0x0000000000000000000000007c08975bef6c1a72f31805f3b844c6f36ce1f21a0000000000000000000000000000000000000000000000000000000000000001",
                    "decodedMethod": null,
                    "errorInfo": "",
                    "fromAddress": "0xcf2d61ec65537e441bbd0ab7a7e7d48c693ea3f3",
                    "gasUsed": 48297,
                    "id": 6,
                    "methodDecoded": false,
                    "operation": "CALL",
                    "output": "",
                    "revert": false,
                    "revertMessage": "",
                    "selector": "0x184ea7fd",
                    "status": true,
                    "value": "0"
                },
                "nodeType": 0
            }
        },
        "gasFlame": [
            {
                "children": [
                    {
                        "children": [
                            {
                                "children": [],
                                "depth": 0,
                                "name": "Initial Gas",
                                "value": 21332
                            },
                            {
                                "children": [
                                    {
                                        "children": [],
                                        "depth": 1,
                                        "name": "canMint",
                                        "value": 2563
                                    },
                                    {
                                        "children": [],
                                        "depth": 1,
                                        "name": "canMint",
                                        "value": 563
                                    },
                                    {
                                        "children": [],
                                        "depth": 1,
                                        "name": "fallback",
                                        "value": 0
                                    },
                                    {
                                        "children": [],
                                        "depth": 1,
                                        "name": "0x34d8df4a",
                                        "value": 30007
                                    },
                                    {
                                        "children": [],
                                        "depth": 1,
                                        "name": "0x34d8df4a",
                                        "value": 6107
                                    },
                                    {
                                        "children": [],
                                        "depth": 1,
                                        "name": "0x184ea7fd",
                                        "value": 48297
                                    }
                                ],
                                "depth": 0,
                                "name": "Executed Gas",
                                "value": 203950
                            }
                        ],
                        "depth": -1,
                        "name": "Actual Gas Used",
                        "value": 225282
                    },
                    {
                        "children": [],
                        "depth": -1,
                        "name": "Refunded Gas",
                        "value": 0
                    }
                ],
                "depth": -2,
                "name": "Total Gas",
                "value": 225282
            }
        ],
        "isConfirmed": true,
        "mainTrace": [
            {
                "children": [
                    {
                        "children": [
                            {
                                "children": [],
                                "depth": 1,
                                "id": 1,
                                "order": 1
                            },
                            {
                                "children": [],
                                "depth": 1,
                                "id": 2,
                                "order": 2
                            },
                            {
                                "children": [],
                                "depth": 1,
                                "id": 3,
                                "order": 3
                            },
                            {
                                "children": [],
                                "depth": 1,
                                "id": 4,
                                "order": 4
                            },
                            {
                                "children": [],
                                "depth": 1,
                                "id": 5,
                                "order": 5
                            },
                            {
                                "children": [],
                                "depth": 1,
                                "id": 6,
                                "order": 6
                            }
                        ],
                        "depth": 0,
                        "id": 0,
                        "order": 0
                    }
                ],
                "depth": -1,
                "id": -1,
                "order": -1
            }
        ],
        "mainTraceNodeCount": 7,
        "parentIdMap": {
            "0": -1,
            "1": 0,
            "2": 0,
            "3": 0,
            "4": 0,
            "5": 0,
            "6": 0
        },
        "tidyTrace": [
            {
                "children": [
                    {
                        "children": [
                            {
                                "children": [],
                                "depth": 1,
                                "id": 3,
                                "order": 3
                            },
                            {
                                "children": [],
                                "depth": 1,
                                "id": 4,
                                "order": 4
                            },
                            {
                                "children": [],
                                "depth": 1,
                                "id": 5,
                                "order": 5
                            },
                            {
                                "children": [],
                                "depth": 1,
                                "id": 6,
                                "order": 6
                            }
                        ],
                        "depth": 0,
                        "id": 0,
                        "order": 0
                    }
                ],
                "depth": -1,
                "id": -1,
                "order": -1
            }
        ],
        "tidyTraceNodeCount": 5
    },
    "state_change": {
        "stateChanges": [
            {
                "address": "0xa881bb2eda60298bc3c5fe3679c002cfb599286b",
                "erc": "",
                "slots": [
                    {
                        "current": "0x0000000000000000000000000000000000000000000000000000000000000001",
                        "key": "0xc07cf4fc11a7503a331e63aa3312bba4d29aa937a116b33d122beb9b6ed8e920",
                        "prev": "0x0000000000000000000000000000000000000000000000000000000000000000"
                    },
                    {
                        "current": "0x00000000000000000000000000000000000000000000000000000000000000e7",
                        "key": "0x0000000000000000000000000000000000000000000000000000000000000004",
                        "prev": "0x00000000000000000000000000000000000000000000000000000000000000e6"
                    },
                    {
                        "current": "0x0000000000000000000000000000000000000000000000000000000000000001",
                        "key": "0xda9648350dcc7e3c59855f1d6fe22af3bde31e802feff795005460553de360ba",
                        "prev": "0x0000000000000000000000000000000000000000000000000000000000000000"
                    },
                    {
                        "current": "0x000000000000000000000000000000000000000000000a91159c927818300000",
                        "key": "0x57d12d77f7c8e4a51be244ea5f7619191ca344ee0ca16939b562f57daf8c41fb",
                        "prev": "0x0000000000000000000000000000000000000000000000000000000000000000"
                    },
                    {
                        "current": "0x0000000000000000000000000000000000000000000b711966bcffa3ca600000",
                        "key": "0x0000000000000000000000000000000000000000000000000000000000000005",
                        "prev": "0x0000000000000000000000000000000000000000000b646b4ccde97a13c00000"
                    },
                    {
                        "current": "0x00000000000000000000000000000000000000000001f2bffc1167be0f400000",
                        "key": "0x4cf20ac2a5d46ddfa6b64efec583165f59eb35fc3842bc9c8abf082761b93477",
                        "prev": "0x00000000000000000000000000000000000000000001f0a2f7bee40c70d00000"
                    }
                ],
                "storageVariables": []
            },
            {
                "address": "0xcf2d61ec65537e441bbd0ab7a7e7d48c693ea3f3",
                "erc": "",
                "slots": [
                    {
                        "current": "0x00000000000000000000000000000000000000000000000000000000000000b2",
                        "key": "0x531d2e2f3435bcd1c66cb7307e152d7dd404cc260d68ad376dcb24ffbbcdaa44",
                        "prev": "0x00000000000000000000000000000000000000000000000000000000000000b1"
                    },
                    {
                        "current": "0x00000000000000000000000000000000000000000000000000000000000000b2",
                        "key": "0x531d2e2f3435bcd1c66cb7307e152d7dd404cc260d68ad376dcb24ffbbcdaa45",
                        "prev": "0x00000000000000000000000000000000000000000000000000000000000000b1"
                    },
                    {
                        "current": "0x00000000000000000000000000000000000000000000000000000000000000b2",
                        "key": "0x0000000000000000000000000000000000000000000000000000000000000009",
                        "prev": "0x00000000000000000000000000000000000000000000000000000000000000b1"
                    },
                    {
                        "current": "0x00000000000000000000000000000000000000000000000000000000000000b2",
                        "key": "0x2c3c0d5ddeb69a667f6bf8ef7e24545bb1373568e6e878212ce6f2a403926f9e",
                        "prev": "0x0000000000000000000000000000000000000000000000000000000000000000"
                    },
                    {
                        "current": "0x0000000000000000000000007c08975bef6c1a72f31805f3b844c6f36ce1f21a",
                        "key": "0x94effe2f7797a52807978613646e3cacc09a50191edfe59969ea5061a488daa1",
                        "prev": "0x0000000000000000000000000000000000000000000000000000000000000000"
                    },
                    {
                        "current": "0x00000000000000000000000000000000000000000000000000000000000000b1",
                        "key": "0x2c3c0d5ddeb69a667f6bf8ef7e24545bb1373568e6e878212ce6f2a403926fa4",
                        "prev": "0x0000000000000000000000000000000000000000000000000000000000000000"
                    },
                    {
                        "current": "0x00000000000000000000000000000000000000000000000000000000000000b2",
                        "key": "0x809ef6acf777fbb9095a4db685812e79d60974aab20dc33a921c1e523fc58bfc",
                        "prev": "0x00000000000000000000000000000000000000000000000000000000000000b1"
                    }
                ],
                "storageVariables": []
            }
        ]
    }
}