{
    "balance_change": {
        "balanceChanges": [
            {
                "account": "0x4f728c79202dde237b876554bbac712353aad897",
                "assets": [
                    {
                        "address": "0xa0b86991c6218b36c1d19d4a2e9eb0ce3606eb48",
                        "amount": "100",
                        "iconUrl": "https://assets.blocksec.com/icon/0347a86cc07dbd03fdc5db01a4e5ac7e1217f90e0b6e4bb0f75cbcca09160989.png",
                        "isERC1155": false,
                        "isERC721": false,
                        "sign": false,
                        "value": "100"
                    },
                    {
                        "address": "0xd7a9d9c0f0767fc25edb74055a6550bb837fe3f3",
                        "amount": "29,676,208.013961440683928262",
                        "iconUrl": "",
                        "isERC1155": false,
                        "isERC721": false,
                        "sign": true,
                        "value": "90.29138172"
                    }
                ]
            },
            {
                "account": "0x397ff1542f962076d0bfe58ea045ffa2d347aca0",
                "assets": [
                    {
                        "address": "0xa0b86991c6218b36c1d19d4a2e9eb0ce3606eb48",
                        "amount": "100",
                        "iconUrl": "https://assets.blocksec.com/icon/0347a86cc07dbd03fdc5db01a4e5ac7e1217f90e0b6e4bb0f75cbcca09160989.png",
                        "isERC1155": false,
                        "isERC721": false,
                        "sign": true,
                        "value": "100"
                    },
                    {
                        "address": "0xc02aaa39b223fe8d0a0e5c4f27ead9083c756cc2",
                        "amount": "0.059681917916306857",
                        "iconUrl": "https://assets.blocksec.com/icon/f1cb2d02c471d545bbc7722daf3277fd852d98e63d118771af7047bd8256c516.png",
                        "isERC1155": false,
                        "isERC721": false,
                        "sign": false,
                        "value": "99.33279372851039348"
                    }
                ]
            },
            {
                "account": "0xa7655af0ebf41fb967580cda1ea9a2497e9bfee5",
                "assets": [
                    {
                        "address": "0xc02aaa39b223fe8d0a0e5c4f27ead9083c756cc2",
                        "amount": "0.059681917916306857",
                        "iconUrl": "https://assets.blocksec.com/icon/f1cb2d02c471d545bbc7722daf3277fd852d98e63d118771af7047bd8256c516.png",
                        "isERC1155": false,
                        "isERC721": false,
                        "sign": true,
                        "value": "99.33279372851039348"
                    },
                    {
                        "address": "0xd7a9d9c0f0767fc25edb74055a6550bb837fe3f3",
                        "amount": "31,570,434.05740578796162581",
                        "iconUrl": "",
                        "isERC1155": false,
                        "isERC721": false,
                        "sign": false,
                        "value": "95.13278642"
                    }
                ]
            },
            {
                "account": "0xd7a9d9c0f0767fc25edb74055a6550bb837fe3f3",
                "assets": [
                    {
                        "address": "0xd7a9d9c0f0767fc25edb74055a6550bb837fe3f3",
                        "amount": "1,894,226.043444347277697548",
                        "iconUrl": "",
                        "isERC1155": false,
                        "isERC721": false,
                        "sign": true,
                        "value": "5.79203948"
                    }
                ]
            }
        ]
    },
    "profile": {
        "basic_info": {
            "baseFee": "54.64158999",
            "blockNumber": 16549335,
            "callData": "0x9e53aa580000000000000000000000000000000000000000000000000000000005f5e10000000000000000000000000000000000000000000013ca37e74ca01bff23aaed00000000000000000000000000000000000000000000000000000000000000a000000000000000000000000000000000000000000000000000000000000001200000000000000000000000004f728c79202dde237b876554bbac712353aad8970000000000000000000000000000000000000000000000000000000000000003000000000000000000000000a0b86991c6218b36c1d19d4a2e9eb0ce3606eb48000000000000000000000000c02aaa39b223fe8d0a0e5c4f27ead9083c756cc2000000000000000000000000d7a9d9c0f0767fc25edb74055a6550bb837fe3f30000000000000000000000000000000000000000000000000000000000000002000000000000000000000000d6a249f29d412bcc2d94856ca0ca669385d7e1b50000000000000000000000001a75f7db182ce7fca969f029e1ef573f7aee9cb5",
            "debugEnable": true,
            "errorInfo": "",
            "eventCount": 9,
            "feeRecipient": "0xaab27b150451726ec7738aa1d0a94505c8729bd1",
            "formatValue": "0",
            "gasLimit": 290935,
            "gasPrice": "55.64158999",
            "gasUsed": 256505,
            "intTxnCount": 22,
            "internalRevert": false,
            "internalRevertMessage": "",
            "isContractCreation": false,
            "isFlashloan": false,
            "maxFee": "71.025523138",
            "nonce": 25,
            "overwritedBlockNumber": -1,
            "priorityFee": "1",
            "receiver": "0x8967ba97f39334c9e6f8e34b8a3d7556306af568",
            "revertMessage": "",
            "sender": "0x4f728c79202dde237b876554bbac712353aad897",
            "simulationEnable": true,
            "sourceTxnHash": "0x03d6bdb1502a2fc6b914e1e4575ccb8c4fde763629a40d22d3ca33b3b77768fa",
            "status": true,
            "timestamp": "2023-02-03T16:05:11Z",
            "transactionFee": "0.01427234604038495",
            "txnHash": "0x03d6bdb1502a2fc6b914e1e4575ccb8c4fde763629a40d22d3ca33b3b77768fa",
            "txnIndex": 74,
            "type": 2,
            "value": "0"
        },
        "fund_flow": [
            {
                "amount": "100",
                "from": "0x4f728c79202dde237b876554bbac712353aad897",
                "id": 1,
                "isERC1155": false,
                "isERC721": false,
                "isReverted": false,
                "order": 1,
                "to": "0x397ff1542f962076d0bfe58ea045ffa2d347aca0",
                "token": "0xa0b86991c6218b36c1d19d4a2e9eb0ce3606eb48"
            },
            {
                "amount": "0.059681917916306857",
                "from": "0x397ff1542f962076d0bfe58ea045ffa2d347aca0",
                "id": 2,
                "isERC1155": false,
                "isERC721": false,
                "isReverted": false,
                "order": 2,
                "to": "0xa7655af0ebf41fb967580cda1ea9a2497e9bfee5",
                "token": "0xc02aaa39b223fe8d0a0e5c4f27ead9083c756cc2"
            },
            {
                "amount": "1,894,226.043444347277697548",
                "from": "0xa7655af0ebf41fb967580cda1ea9a2497e9bfee5",
                "id": 3,
                "isERC1155": false,
                "isERC721": false,
                "isReverted": false,
                "order": 3,
                "to": "0xd7a9d9c0f0767fc25edb74055a6550bb837fe3f3",
                "token": "0xd7a9d9c0f0767fc25edb74055a6550bb837fe3f3"
            },
            {
                "amount": "29,676,208.013961440683928262",
                "from": "0xa7655af0ebf41fb967580cda1ea9a2497e9bfee5",
                "id": 4,
                "isERC1155": false,
                "isERC721": false,
                "isReverted": false,
                "order": 4,
                "to": "0x4f728c79202dde237b876554bbac712353aad897",
                "token": "0xd7a9d9c0f0767fc25edb74055a6550bb837fe3f3"
            }
        ],
        "token_infos": [
            {
                "address": "0xeeeeeeeeeeeeeeeeeeeeeeeeeeeeeeeeeeeeeeee",
                "decimals": 18
            },
            {
                "address": "0xa0b86991c6218b36c1d19d4a2e9eb0ce3606eb48",
                "decimals": 6
            },
            {
                "address": "0xc02aaa39b223fe8d0a0e5c4f27ead9083c756cc2",
                "decimals": 18
            },
            {
                "address": "0xd7a9d9c0f0767fc25edb74055a6550bb837fe3f3",
                "decimals": 18
            }
        ]
    },
    "address_label": {
        "labels": [
            {
                "address": "0x397ff1542f962076d0bfe58ea045ffa2d347aca0",
                "label": "SushiSwap: USDC"
            },
            {
                "address": "0xc02aaa39b223fe8d0a0e5c4f27ead9083c756cc2",
                "label": "Wrapped Ether (WETH)"
            },
            {
                "address": "0x1a75f7db182ce7fca969f029e1ef573f7aee9cb5",
                "label": "Uniswap V2"
            },
            {
                "address": "0xd7a9d9c0f0767fc25edb74055a6550bb837fe3f3",
                "label": "CSHOT"
            },
            {
                "address": "0x0000000000000000000000000000000000000002",
                "label": "Precompiled"
            },
            {
                "address": "0xeeeeeeeeeeeeeeeeeeeeeeeeeeeeeeeeeeeeeeee",
                "label": "Ether"
            },
            {
                "address": "0xa7655af0ebf41fb967580cda1ea9a2497e9bfee5",
                "label": "Uniswap V2: CSHOT 2"
            },
            {
                "address": "0x0000000000000000000000000000000000000001",
                "label": "Precompiled"
            },
            {
                "address": "0x0000000000000000000000000000000000000003",
                "label": "Precompiled"
            },
            {
                "address": "0x0000000000000000000000000000000000000004",
                "label": "Precompiled"
            },
            {
                "address": "0xa2327a938febf5fec13bacfb16ae10ecbc4cbdcf",
                "label": "FiatTokenV2_1"
            },
            {
                "address": "0xa0b86991c6218b36c1d19d4a2e9eb0ce3606eb48",
                "label": "Circle: USDC Token"
            }
        ]
    },
    "trace": {
        "accountLabels": null,
        "dataMap": {
            "-1": {
                "invocation": {
                    "address": "0x4f728c79202dde237b876554bbac712353aad897",
                    "callData": "",
                    "decodedMethod": null,
                    "errorInfo": "",
                    "fromAddress": "",
                    "gasUsed": 0,
                    "id": -1,
                    "methodDecoded": false,
                    "operation": "",
                    "output": "",
                    "revert": false,
                    "revertMessage": "",
                    "selector": "",
                    "status": false,
                    "value": ""
                },
                "nodeType": 0
            },
            "0": {
                "invocation": {
                    "address": "0x8967ba97f39334c9e6f8e34b8a3d7556306af568",
                    "callData": "0x0000000000000000000000000000000000000000000000000000000005f5e10000000000000000000000000000000000000000000013ca37e74ca01bff23aaed00000000000000000000000000000000000000000000000000000000000000a000000000000000000000000000000000000000000000000000000000000001200000000000000000000000004f728c79202dde237b876554bbac712353aad8970000000000000000000000000000000000000000000000000000000000000003000000000000000000000000a0b86991c6218b36c1d19d4a2e9eb0ce3606eb48000000000000000000000000c02aaa39b223fe8d0a0e5c4f27ead9083c756cc2000000000000000000000000d7a9d9c0f0767fc25edb74055a6550bb837fe3f30000000000000000000000000000000000000000000000000000000000000002000000000000000000000000d6a249f29d412bcc2d94856ca0ca669385d7e1b50000000000000000000000001a75f7db182ce7fca969f029e1ef573f7aee9cb5",
                    "decodedMethod": null,
                    "errorInfo": "",
                    "fromAddress": "0x4f728c79202dde237b876554bbac712353aad897",
                    "gasUsed": 256505,
                    "id": 0,
                    "methodDecoded": false,
                    "operation": "CALL",
                    "output": "",
                    "revert": false,
                    "revertMessage": "",
                    "selector": "0x9e53aa58",
                    "status": true,
                    "value": "0"
                },
                "nodeType": 0
            },
            "1": {
                "invocation": {
                    "address": "0xd6a249f29d412bcc2d94856ca0ca669385d7e1b5",
                    "callData": "0x000000000000000000000000a0b86991c6218b36c1d19d4a2e9eb0ce3606eb48000000000000000000000000c02aaa39b223fe8d0a0e5c4f27ead9083c756cc2",
                    "decodedMethod": null,
                    "errorInfo": "",
                    "fromAddress": "0x8967ba97f39334c9e6f8e34b8a3d7556306af568",
                    "gasUsed": 3323,
                    "id": 1,
                    "methodDecoded": false,
                    "operation": "STATICCALL",
                    "output": "0x000000000000000000000000397ff1542f962076d0bfe58ea045ffa2d347aca0",
                    "revert": false,
                    "revertMessage": "",
                    "selector": "0xe98a5b85",
                    "status": true,
                    "value": "0"
                },
                "nodeType": 0
            },
            "10": {
                "invocation": {
                    "address": "0xa2327a938febf5fec13bacfb16ae10ecbc4cbdcf",
                    "callData": "0x000000000000000000000000397ff1542f962076d0bfe58ea045ffa2d347aca0",
                    "decodedMethod": {
                        "callParams": [
                            {
                                "name": "account",
                                "type": "address",
                                "value": "0x397ff1542f962076d0bfe58ea045ffa2d347aca0"
                            }
                        ],
                        "constructorArguments": "",
                        "name": "balanceOf",
                        "returnParams": [
                            {
                                "decimalAvailable": true,
                                "name": "",
                                "type": "uint256",
                                "value": "22,434,517,626,949"
                            }
                        ],
                        "signature": "balanceOf(address)"
                    },
                    "errorInfo": "",
                    "fromAddress": "0xa0b86991c6218b36c1d19d4a2e9eb0ce3606eb48",
                    "gasUsed": 529,
                    "id": 10,
                    "methodDecoded": true,
                    "operation": "DELEGATECALL",
                    "output": "0x0000000000000000000000000000000000000000000000000000146771743045",
                    "revert": false,
                    "revertMessage": "",
                    "selector": "0x70a08231",
                    "status": true,
                    "value": "0"
                },
                "nodeType": 0
            },
            "11": {
                "invocation": {
                    "address": "0x397ff1542f962076d0bfe58ea045ffa2d347aca0",
                    "callData": "0x000000000000000000000000000000000000000000000000000000000000000000000000000000000000000000000000000000000000000000d408635cea5da9000000000000000000000000a7655af0ebf41fb967580cda1ea9a2497e9bfee500000000000000000000000000000000000000000000000000000000000000800000000000000000000000000000000000000000000000000000000000000000",
                    "decodedMethod": {
                        "callParams": [
                            {
                                "name": "amount0Out",
                                "type": "uint256",
                                "value": "0"
                            },
                            {
                                "name": "amount1Out",
                                "type": "uint256",
                                "value": "59,681,917,916,306,857"
                            },
                            {
                                "name": "to",
                                "type": "address",
                                "value": "0xa7655af0ebf41fb967580cda1ea9a2497e9bfee5"
                            },
                            {
                                "name": "data",
                                "type": "bytes",
                                "value": "0x"
                            }
                        ],
                        "constructorArguments": "",
                        "name": "swap",
                        "returnParams": [],
                        "signature": "swap(uint256,uint256,address,bytes)"
                    },
                    "errorInfo": "",
                    "fromAddress": "0xd6a249f29d412bcc2d94856ca0ca669385d7e1b5",
                    "gasUsed": 48907,
                    "id": 11,
                    "methodDecoded": true,
                    "operation": "CALL",
                    "output": "",
                    "revert": false,
                    "revertMessage": "",
                    "selector": "0x022c0d9f",
                    "status": true,
                    "value": "0"
                },
                "nodeType": 0
            },
            "12": {
                "invocation": {
                    "address": "0xc02aaa39b223fe8d0a0e5c4f27ead9083c756cc2",
                    "callData": "0x000000000000000000000000a7655af0ebf41fb967580cda1ea9a2497e9bfee500000000000000000000000000000000000000000000000000d408635cea5da9",
                    "decodedMethod": {
                        "callParams": [
                            {
                                "name": "dst",
                                "type": "address",
                                "value": "0xa7655af0ebf41fb967580cda1ea9a2497e9bfee5"
                            },
                            {
                                "decimalAvailable": true,
                                "name": "wad",
                                "type": "uint256",
                                "value": "59,681,917,916,306,857"
                            }
                        ],
                        "constructorArguments": "",
                        "name": "transfer",
                        "returnParams": [
                            {
                                "name": "",
                                "type": "bool",
                                "value": true
                            }
                        ],
                        "signature": "transfer(address,uint256)"
                    },
                    "errorInfo": "",
                    "fromAddress": "0x397ff1542f962076d0bfe58ea045ffa2d347aca0",
                    "gasUsed": 12862,
                    "id": 12,
                    "methodDecoded": true,
                    "operation": "CALL",
                    "output": "0x0000000000000000000000000000000000000000000000000000000000000001",
                    "revert": false,
                    "revertMessage": "",
                    "selector": "0xa9059cbb",
                    "status": true,
                    "value": "0"
                },
                "nodeType": 0
            },
            "13": {
                "event": {
                    "contract": "0xc02aaa39b223fe8d0a0e5c4f27ead9083c756cc2",
                    "decodedLog": {
                        "name": "Transfer",
                        "params": [
                            {
                                "name": "src",
                                "type": "address",
                                "value": "0x397ff1542f962076d0bfe58ea045ffa2d347aca0"
                            },
                            {
                                "name": "dst",
                                "type": "address",
                                "value": "0xa7655af0ebf41fb967580cda1ea9a2497e9bfee5"
                            },
                            {
                                "decimalAvailable": true,
                                "name": "wad",
                                "type": "uint256",
                                "value": "59,681,917,916,306,857"
                            }
                        ],
                        "signature": "Transfer(address,address,uint256)"
                    },
                    "id": 13,
                    "logData": "0x00000000000000000000000000000000000000000000000000d408635cea5da9",
                    "logDecoded": true,
                    "operation": "EVENT",
                    "revert": false,
                    "status": true,
                    "topics": [
                        "0xddf252ad1be2c89b69c2b068fc378daa952ba7f163c4a11628f55a4df523b3ef",
                        "0x000000000000000000000000397ff1542f962076d0bfe58ea045ffa2d347aca0",
                        "0x000000000000000000000000a7655af0ebf41fb967580cda1ea9a2497e9bfee5"
                    ]
                },
                "nodeType": 1
            },
            "14": {
                "invocation": {
                    "address": "0xa0b86991c6218b36c1d19d4a2e9eb0ce3606eb48",
                    "callData": "0x000000000000000000000000397ff1542f962076d0bfe58ea045ffa2d347aca0",
                    "decodedMethod": {
                        "callParams": [
                            {
                                "name": "account",
                                "type": "address",
                                "value": "0x397ff1542f962076d0bfe58ea045ffa2d347aca0"
                            }
                        ],
                        "constructorArguments": "",
                        "name": "balanceOf",
                        "returnParams": [
                            {
                                "decimalAvailable": true,
                                "name": "",
                                "type": "uint256",
                                "value": "22,434,517,626,949"
                            }
                        ],
                        "signature": "balanceOf(address)"
                    },
                    "errorInfo": "",
                    "fromAddress": "0x397ff1542f962076d0bfe58ea045ffa2d347aca0",
                    "gasUsed": 1315,
                    "id": 14,
                    "methodDecoded": true,
                    "operation": "STATICCALL",
                    "output": "0x0000000000000000000000000000000000000000000000000000146771743045",
                    "revert": false,
                    "revertMessage": "",
                    "selector": "0x70a08231",
                    "status": true,
                    "value": "0"
                },
                "nodeType": 0
            },
            "15": {
                "invocation": {
                    "address": "0xa2327a938febf5fec13bacfb16ae10ecbc4cbdcf",
                    "callData": "0x000000000000000000000000397ff1542f962076d0bfe58ea045ffa2d347aca0",
                    "decodedMethod": {
                        "callParams": [
                            {
                                "name": "account",
                                "type": "address",
                                "value": "0x397ff1542f962076d0bfe58ea045ffa2d347aca0"
                            }
                        ],
                        "constructorArguments": "",
                        "name": "balanceOf",
                        "returnParams": [
                            {
                                "decimalAvailable": true,
                                "name": "",
                                "type": "uint256",
                                "value": "22,434,517,626,949"
                            }
                        ],
                        "signature": "balanceOf(address)"
                    },
                    "errorInfo": "",
                    "fromAddress": "0xa0b86991c6218b36c1d19d4a2e9eb0ce3606eb48",
                    "gasUsed": 529,
                    "id": 15,
                    "methodDecoded": true,
                    "operation": "DELEGATECALL",
                    "output": "0x0000000000000000000000000000000000000000000000000000146771743045",
                    "revert": false,
                    "revertMessage": "",
                    "selector": "0x70a08231",
                    "status": true,
                    "value": "0"
                },
                "nodeType": 0
            },
            "16": {
                "invocation": {
                    "address": "0xc02aaa39b223fe8d0a0e5c4f27ead9083c756cc2",
                    "callData": "0x000000000000000000000000397ff1542f962076d0bfe58ea045ffa2d347aca0",
                    "decodedMethod": {
                        "callParams": [
                            {
                                "name": "",
                                "type": "address",
                                "value": "0x397ff1542f962076d0bfe58ea045ffa2d347aca0"
                            }
                        ],
                        "constructorArguments": "",
                        "name": "balanceOf",
                        "returnParams": [
                            {
                                "decimalAvailable": true,
                                "name": "",
                                "type": "uint256",
                                "value": "13,429,579,451,471,593,653,809"
                            }
                        ],
                        "signature": "balanceOf(address)"
                    },
                    "errorInfo": "",
                    "fromAddress": "0x397ff1542f962076d0bfe58ea045ffa2d347aca0",
                    "gasUsed": 534,
                    "id": 16,
                    "methodDecoded": true,
                    "operation": "STATICCALL",
                    "output": "0x0000000000000000000000000000000000000000000002d804da9e26e99ec631",
                    "revert": false,
                    "revertMessage": "",
                    "selector": "0x70a08231",
                    "status": true,
                    "value": "0"
                },
                "nodeType": 0
            },
            "17": {
                "event": {
                    "contract": "0x397ff1542f962076d0bfe58ea045ffa2d347aca0",
                    "decodedLog": {
                        "name": "Sync",
                        "params": [
                            {
                                "name": "reserve0",
                                "type": "uint112",
                                "value": "22,434,517,626,949"
                            },
                            {
                                "name": "reserve1",
                                "type": "uint112",
                                "value": "13,429,579,451,471,593,653,809"
                            }
                        ],
                        "signature": "Sync(uint112,uint112)"
                    },
                    "id": 17,
                    "logData": "0x00000000000000000000000000000000000000000000000000001467717430450000000000000000000000000000000000000000000002d804da9e26e99ec631",
                    "logDecoded": true,
                    "operation": "EVENT",
                    "revert": false,
                    "status": true,
                    "topics": [
                        "0x1c411e9a96e071241c2f21f7726b17ae89e3cab4c78be50e062b03a9fffbbad1"
                    ]
                },
                "nodeType": 1
            },
            "18": {
                "event": {
                    "contract": "0x397ff1542f962076d0bfe58ea045ffa2d347aca0",
                    "decodedLog": {
                        "name": "Swap",
                        "params": [
                            {
                                "name": "sender",
                                "type": "address",
                                "value": "0xd6a249f29d412bcc2d94856ca0ca669385d7e1b5"
                            },
                            {
                                "name": "to",
                                "type": "address",
                                "value": "0xa7655af0ebf41fb967580cda1ea9a2497e9bfee5"
                            },
                            {
                                "name": "amount0In",
                                "type": "uint256",
                                "value": "100,000,000"
                            },
                            {
                                "name": "amount1In",
                                "type": "uint256",
                                "value": "0"
                            },
                            {
                                "name": "amount0Out",
                                "type": "uint256",
                                "value": "0"
                            },
                            {
                                "name": "amount1Out",
                                "type": "uint256",
                                "value": "59,681,917,916,306,857"
                            }
                        ],
                        "signature": "Swap(address,uint256,uint256,uint256,uint256,address)"
                    },
                    "id": 18,
                    "logData": "0x0000000000000000000000000000000000000000000000000000000005f5e1000000000000000000000000000000000000000000000000000000000000000000000000000000000000000000000000000000000000000000000000000000000000000000000000000000000000000000000000000000000000d408635cea5da9",
                    "logDecoded": true,
                    "operation": "EVENT",
                    "revert": false,
                    "status": true,
                    "topics": [
                        "0xd78ad95fa46c994b6551d0da85fc275fe613ce37657fb8d5e3d130840159d822",
                        "0x000000000000000000000000d6a249f29d412bcc2d94856ca0ca669385d7e1b5",
                        "0x000000000000000000000000a7655af0ebf41fb967580cda1ea9a2497e9bfee5"
                    ]
                },
                "nodeType": 1
            },
            "19": {
                "invocation": {
                    "address": "0x1a75f7db182ce7fca969f029e1ef573f7aee9cb5",
                    "callData": "0x000000000000000000000000c02aaa39b223fe8d0a0e5c4f27ead9083c756cc2000000000000000000000000d7a9d9c0f0767fc25edb74055a6550bb837fe3f30000000000000000000000004f728c79202dde237b876554bbac712353aad897",
                    "decodedMethod": {
                        "callParams": [
                            {
                                "name": "token1",
                                "type": "address",
                                "value": "0xc02aaa39b223fe8d0a0e5c4f27ead9083c756cc2"
                            },
                            {
                                "name": "token2",
                                "type": "address",
                                "value": "0xd7a9d9c0f0767fc25edb74055a6550bb837fe3f3"
                            },
                            {
                                "name": "reseller",
                                "type": "address",
                                "value": "0x4f728c79202dde237b876554bbac712353aad897"
                            }
                        ],
                        "constructorArguments": "",
                        "name": "swap",
                        "returnParams": [],
                        "signature": "swap(address,address,address)"
                    },
                    "errorInfo": "",
                    "fromAddress": "0x8967ba97f39334c9e6f8e34b8a3d7556306af568",
                    "gasUsed": 111810,
                    "id": 19,
                    "methodDecoded": true,
                    "operation": "CALL",
                    "output": "",
                    "revert": false,
                    "revertMessage": "",
                    "selector": "0x93316212",
                    "status": true,
                    "value": "0"
                },
                "nodeType": 0
            },
            "2": {
                "invocation": {
                    "address": "0xa0b86991c6218b36c1d19d4a2e9eb0ce3606eb48",
                    "callData": "0x0000000000000000000000004f728c79202dde237b876554bbac712353aad897000000000000000000000000397ff1542f962076d0bfe58ea045ffa2d347aca00000000000000000000000000000000000000000000000000000000005f5e100",
                    "decodedMethod": {
                        "callParams": [
                            {
                                "name": "from",
                                "type": "address",
                                "value": "0x4f728c79202dde237b876554bbac712353aad897"
                            },
                            {
                                "name": "to",
                                "type": "address",
                                "value": "0x397ff1542f962076d0bfe58ea045ffa2d347aca0"
                            },
                            {
                                "decimalAvailable": true,
                                "name": "value",
                                "type": "uint256",
                                "value": "100,000,000"
                            }
                        ],
                        "constructorArguments": "",
                        "name": "transferFrom",
                        "returnParams": [
                            {
                                "name": "",
                                "type": "bool",
                                "value": true
                            }
                        ],
                        "signature": "transferFrom(address,address,uint256)"
                    },
                    "errorInfo": "",
                    "fromAddress": "0x8967ba97f39334c9e6f8e34b8a3d7556306af568",
                    "gasUsed": 34892,
                    "id": 2,
                    "methodDecoded": true,
                    "operation": "CALL",
                    "output": "0x0000000000000000000000000000000000000000000000000000000000000001",
                    "revert": false,
                    "revertMessage": "",
                    "selector": "0x23b872dd",
                    "status": true,
                    "value": "0"
                },
                "nodeType": 0
            },
            "20": {
                "invocation": {
                    "address": "0xa7655af0ebf41fb967580cda1ea9a2497e9bfee5",
                    "callData": "0x",
                    "decodedMethod": {
                        "callParams": [],
                        "constructorArguments": "",
                        "name": "getReserves",
                        "returnParams": [
                            {
                                "name": "_reserve0",
                                "type": "uint112",
                                "value": "11,729,799,064,218,006,341"
                            },
                            {
                                "name": "_reserve1",
                                "type": "uint112",
                                "value": "6,255,048,972,233,493,492,384,084,695"
                            },
                            {
                                "name": "_blockTimestampLast",
                                "type": "uint32",
                                "value": "1,675,440,311"
                            }
                        ],
                        "signature": "getReserves()"
                    },
                    "errorInfo": "",
                    "fromAddress": "0x1a75f7db182ce7fca969f029e1ef573f7aee9cb5",
                    "gasUsed": 2504,
                    "id": 20,
                    "methodDecoded": true,
                    "operation": "STATICCALL",
                    "output": "0x000000000000000000000000000000000000000000000000a2c89e1a0d6c7345000000000000000000000000000000000000000014360e243c24f2723b9b32d70000000000000000000000000000000000000000000000000000000063dd30b7",
                    "revert": false,
                    "revertMessage": "",
                    "selector": "0x0902f1ac",
                    "status": true,
                    "value": "0"
                },
                "nodeType": 0
            },
            "21": {
                "invocation": {
                    "address": "0xc02aaa39b223fe8d0a0e5c4f27ead9083c756cc2",
                    "callData": "0x000000000000000000000000a7655af0ebf41fb967580cda1ea9a2497e9bfee5",
                    "decodedMethod": {
                        "callParams": [
                            {
                                "name": "",
                                "type": "address",
                                "value": "0xa7655af0ebf41fb967580cda1ea9a2497e9bfee5"
                            }
                        ],
                        "constructorArguments": "",
                        "name": "balanceOf",
                        "returnParams": [
                            {
                                "decimalAvailable": true,
                                "name": "",
                                "type": "uint256",
                                "value": "11,789,480,982,134,313,198"
                            }
                        ],
                        "signature": "balanceOf(address)"
                    },
                    "errorInfo": "",
                    "fromAddress": "0x1a75f7db182ce7fca969f029e1ef573f7aee9cb5",
                    "gasUsed": 534,
                    "id": 21,
                    "methodDecoded": true,
                    "operation": "STATICCALL",
                    "output": "0x000000000000000000000000000000000000000000000000a39ca67d6a56d0ee",
                    "revert": false,
                    "revertMessage": "",
                    "selector": "0x70a08231",
                    "status": true,
                    "value": "0"
                },
                "nodeType": 0
            },
            "22": {
                "invocation": {
                    "address": "0xa7655af0ebf41fb967580cda1ea9a2497e9bfee5",
                    "callData": "0x00000000000000000000000000000000000000000000000000000000000000000000000000000000000000000000000000000000001a1d4ca8d96a2c86490cd20000000000000000000000004f728c79202dde237b876554bbac712353aad89700000000000000000000000000000000000000000000000000000000000000800000000000000000000000000000000000000000000000000000000000000000",
                    "decodedMethod": {
                        "callParams": [
                            {
                                "name": "amount0Out",
                                "type": "uint256",
                                "value": "0"
                            },
                            {
                                "name": "amount1Out",
                                "type": "uint256",
                                "value": "31,570,434,057,405,787,961,625,810"
                            },
                            {
                                "name": "to",
                                "type": "address",
                                "value": "0x4f728c79202dde237b876554bbac712353aad897"
                            },
                            {
                                "name": "data",
                                "type": "bytes",
                                "value": "0x"
                            }
                        ],
                        "constructorArguments": "",
                        "name": "swap",
                        "returnParams": [],
                        "signature": "swap(uint256,uint256,address,bytes)"
                    },
                    "errorInfo": "",
                    "fromAddress": "0x1a75f7db182ce7fca969f029e1ef573f7aee9cb5",
                    "gasUsed": 100443,
                    "id": 22,
                    "methodDecoded": true,
                    "operation": "CALL",
                    "output": "",
                    "revert": false,
                    "revertMessage": "",
                    "selector": "0x022c0d9f",
                    "status": true,
                    "value": "0"
                },
                "nodeType": 0
            },
            "23": {
                "invocation": {
                    "address": "0xd7a9d9c0f0767fc25edb74055a6550bb837fe3f3",
                    "callData": "0x0000000000000000000000004f728c79202dde237b876554bbac712353aad8970000000000000000000000000000000000000000001a1d4ca8d96a2c86490cd2",
                    "decodedMethod": {
                        "callParams": [
                            {
                                "name": "recipient",
                                "type": "address",
                                "value": "0x4f728c79202dde237b876554bbac712353aad897"
                            },
                            {
                                "decimalAvailable": true,
                                "name": "amount",
                                "type": "uint256",
                                "value": "31,570,434,057,405,787,961,625,810"
                            }
                        ],
                        "constructorArguments": "",
                        "name": "transfer",
                        "returnParams": [
                            {
                                "name": "",
                                "type": "bool",
                                "value": true
                            }
                        ],
                        "signature": "transfer(address,uint256)"
                    },
                    "errorInfo": "",
                    "fromAddress": "0xa7655af0ebf41fb967580cda1ea9a2497e9bfee5",
                    "gasUsed": 78378,
                    "id": 23,
                    "methodDecoded": true,
                    "operation": "CALL",
                    "output": "0x0000000000000000000000000000000000000000000000000000000000000001",
                    "revert": false,
                    "revertMessage": "",
                    "selector": "0xa9059cbb",
                    "status": true,
                    "value": "0"
                },
                "nodeType": 0
            },
            "24": {
                "event": {
                    "contract": "0xd7a9d9c0f0767fc25edb74055a6550bb837fe3f3",
                    "decodedLog": {
                        "name": "Transfer",
                        "params": [
                            {
                                "name": "from",
                                "type": "address",
                                "value": "0xa7655af0ebf41fb967580cda1ea9a2497e9bfee5"
                            },
                            {
                                "name": "to",
                                "type": "address",
                                "value": "0xd7a9d9c0f0767fc25edb74055a6550bb837fe3f3"
                            },
                            {
                                "decimalAvailable": true,
                                "name": "value",
                                "type": "uint256",
                                "value": "1,894,226,043,444,347,277,697,548"
                            }
                        ],
                        "signature": "Transfer(address,address,uint256)"
                    },
                    "id": 24,
                    "logData": "0x00000000000000000000000000000000000000000001911e331748ee3104620c",
                    "logDecoded": true,
                    "operation": "EVENT",
                    "revert": false,
                    "status": true,
                    "topics": [
                        "0xddf252ad1be2c89b69c2b068fc378daa952ba7f163c4a11628f55a4df523b3ef",
                        "0x000000000000000000000000a7655af0ebf41fb967580cda1ea9a2497e9bfee5",
                        "0x000000000000000000000000d7a9d9c0f0767fc25edb74055a6550bb837fe3f3"
                    ]
                },
                "nodeType": 1
            },
            "25": {
                "event": {
                    "contract": "0xd7a9d9c0f0767fc25edb74055a6550bb837fe3f3",
                    "decodedLog": {
                        "name": "Transfer",
                        "params": [
                            {
                                "name": "from",
                                "type": "address",
                                "value": "0xa7655af0ebf41fb967580cda1ea9a2497e9bfee5"
                            },
                            {
                                "name": "to",
                                "type": "address",
                                "value": "0x4f728c79202dde237b876554bbac712353aad897"
                            },
                            {
                                "decimalAvailable": true,
                                "name": "value",
                                "type": "uint256",
                                "value": "29,676,208,013,961,440,683,928,262"
                            }
                        ],
                        "signature": "Transfer(address,address,uint256)"
                    },
                    "id": 25,
                    "logData": "0x000000000000000000000000000000000000000000188c2e75c2213e5544aac6",
                    "logDecoded": true,
                    "operation": "EVENT",
                    "revert": false,
                    "status": true,
                    "topics": [
                        "0xddf252ad1be2c89b69c2b068fc378daa952ba7f163c4a11628f55a4df523b3ef",
                        "0x000000000000000000000000a7655af0ebf41fb967580cda1ea9a2497e9bfee5",
                        "0x0000000000000000000000004f728c79202dde237b876554bbac712353aad897"
                    ]
                },
                "nodeType": 1
            },
            "26": {
                "invocation": {
                    "address": "0xc02aaa39b223fe8d0a0e5c4f27ead9083c756cc2",
                    "callData": "0x000000000000000000000000a7655af0ebf41fb967580cda1ea9a2497e9bfee5",
                    "decodedMethod": {
                        "callParams": [
                            {
                                "name": "",
                                "type": "address",
                                "value": "0xa7655af0ebf41fb967580cda1ea9a2497e9bfee5"
                            }
                        ],
                        "constructorArguments": "",
                        "name": "balanceOf",
                        "returnParams": [
                            {
                                "decimalAvailable": true,
                                "name": "",
                                "type": "uint256",
                                "value": "11,789,480,982,134,313,198"
                            }
                        ],
                        "signature": "balanceOf(address)"
                    },
                    "errorInfo": "",
                    "fromAddress": "0xa7655af0ebf41fb967580cda1ea9a2497e9bfee5",
                    "gasUsed": 534,
                    "id": 26,
                    "methodDecoded": true,
                    "operation": "STATICCALL",
                    "output": "0x000000000000000000000000000000000000000000000000a39ca67d6a56d0ee",
                    "revert": false,
                    "revertMessage": "",
                    "selector": "0x70a08231",
                    "status": true,
                    "value": "0"
                },
                "nodeType": 0
            },
            "27": {
                "invocation": {
                    "address": "0xd7a9d9c0f0767fc25edb74055a6550bb837fe3f3",
                    "callData": "0x000000000000000000000000a7655af0ebf41fb967580cda1ea9a2497e9bfee5",
                    "decodedMethod": {
                        "callParams": [
                            {
                                "name": "account",
                                "type": "address",
                                "value": "0xa7655af0ebf41fb967580cda1ea9a2497e9bfee5"
                            }
                        ],
                        "constructorArguments": "",
                        "name": "balanceOf",
                        "returnParams": [
                            {
                                "decimalAvailable": true,
                                "name": "",
                                "type": "uint256",
                                "value": "6,223,478,538,176,087,704,422,458,885"
                            }
                        ],
                        "signature": "balanceOf(address)"
                    },
                    "errorInfo": "",
                    "fromAddress": "0xa7655af0ebf41fb967580cda1ea9a2497e9bfee5",
                    "gasUsed": 624,
                    "id": 27,
                    "methodDecoded": true,
                    "operation": "STATICCALL",
                    "output": "0x0000000000000000000000000000000000000000141bf0d7934b8845b5522605",
                    "revert": false,
                    "revertMessage": "",
                    "selector": "0x70a08231",
                    "status": true,
                    "value": "0"
                },
                "nodeType": 0
            },
            "28": {
                "event": {
                    "contract": "0xa7655af0ebf41fb967580cda1ea9a2497e9bfee5",
                    "decodedLog": {
                        "name": "Sync",
                        "params": [
                            {
                                "name": "reserve0",
                                "type": "uint112",
                                "value": "11,789,480,982,134,313,198"
                            },
                            {
                                "name": "reserve1",
                                "type": "uint112",
                                "value": "6,223,478,538,176,087,704,422,458,885"
                            }
                        ],
                        "signature": "Sync(uint112,uint112)"
                    },
                    "id": 28,
                    "logData": "0x000000000000000000000000000000000000000000000000a39ca67d6a56d0ee0000000000000000000000000000000000000000141bf0d7934b8845b5522605",
                    "logDecoded": true,
                    "operation": "EVENT",
                    "revert": false,
                    "status": true,
                    "topics": [
                        "0x1c411e9a96e071241c2f21f7726b17ae89e3cab4c78be50e062b03a9fffbbad1"
                    ]
                },
                "nodeType": 1
            },
            "29": {
                "event": {
                    "contract": "0xa7655af0ebf41fb967580cda1ea9a2497e9bfee5",
                    "decodedLog": {
                        "name": "Swap",
                        "params": [
                            {
                                "name": "sender",
                                "type": "address",
                                "value": "0x1a75f7db182ce7fca969f029e1ef573f7aee9cb5"
                            },
                            {
                                "name": "to",
                                "type": "address",
                                "value": "0x4f728c79202dde237b876554bbac712353aad897"
                            },
                            {
                                "name": "amount0In",
                                "type": "uint256",
                                "value": "59,681,917,916,306,857"
                            },
                            {
                                "name": "amount1In",
                                "type": "uint256",
                                "value": "0"
                            },
                            {
                                "name": "amount0Out",
                                "type": "uint256",
                                "value": "0"
                            },
                            {
                                "name": "amount1Out",
                                "type": "uint256",
                                "value": "31,570,434,057,405,787,961,625,810"
                            }
                        ],
                        "signature": "Swap(address,uint256,uint256,uint256,uint256,address)"
                    },
                    "id": 29,
                    "logData": "0x00000000000000000000000000000000000000000000000000d408635cea5da9000000000000000000000000000000000000000000000000000000000000000000000000000000000000000000000000000000000000000000000000000000000000000000000000000000000000000000000000001a1d4ca8d96a2c86490cd2",
                    "logDecoded": true,
                    "operation": "EVENT",
                    "revert": false,
                    "status": true,
                    "topics": [
                        "0xd78ad95fa46c994b6551d0da85fc275fe613ce37657fb8d5e3d130840159d822",
                        "0x0000000000000000000000001a75f7db182ce7fca969f029e1ef573f7aee9cb5",
                        "0x0000000000000000000000004f728c79202dde237b876554bbac712353aad897"
                    ]
                },
                "nodeType": 1
            },
            "3": {
                "invocation": {
                    "address": "0xa2327a938febf5fec13bacfb16ae10ecbc4cbdcf",
                    "callData": "0x0000000000000000000000004f728c79202dde237b876554bbac712353aad897000000000000000000000000397ff1542f962076d0bfe58ea045ffa2d347aca00000000000000000000000000000000000000000000000000000000005f5e100",
                    "decodedMethod": {
                        "callParams": [
                            {
                                "name": "from",
                                "type": "address",
                                "value": "0x4f728c79202dde237b876554bbac712353aad897"
                            },
                            {
                                "name": "to",
                                "type": "address",
                                "value": "0x397ff1542f962076d0bfe58ea045ffa2d347aca0"
                            },
                            {
                                "decimalAvailable": true,
                                "name": "value",
                                "type": "uint256",
                                "value": "100,000,000"
                            }
                        ],
                        "constructorArguments": "",
                        "name": "transferFrom",
                        "returnParams": [
                            {
                                "name": "",
                                "type": "bool",
                                "value": true
                            }
                        ],
                        "signature": "transferFrom(address,address,uint256)"
                    },
                    "errorInfo": "",
                    "fromAddress": "0xa0b86991c6218b36c1d19d4a2e9eb0ce3606eb48",
                    "gasUsed": 27597,
                    "id": 3,
                    "methodDecoded": true,
                    "operation": "DELEGATECALL",
                    "output": "0x0000000000000000000000000000000000000000000000000000000000000001",
                    "revert": false,
                    "revertMessage": "",
                    "selector": "0x23b872dd",
                    "status": true,
                    "value": "0"
                },
                "nodeType": 0
            },
            "30": {
                "invocation": {
                    "address": "0xd7a9d9c0f0767fc25edb74055a6550bb837fe3f3",
                    "callData": "0x0000000000000000000000004f728c79202dde237b876554bbac712353aad897",
                    "decodedMethod": {
                        "callParams": [
                            {
                                "name": "account",
                                "type": "address",
                                "value": "0x4f728c79202dde237b876554bbac712353aad897"
                            }
                        ],
                        "constructorArguments": "",
                        "name": "balanceOf",
                        "returnParams": [
                            {
                                "decimalAvailable": true,
                                "name": "",
                                "type": "uint256",
                                "value": "29,676,208,013,961,440,683,928,262"
                            }
                        ],
                        "signature": "balanceOf(address)"
                    },
                    "errorInfo": "",
                    "fromAddress": "0x8967ba97f39334c9e6f8e34b8a3d7556306af568",
                    "gasUsed": 624,
                    "id": 30,
                    "methodDecoded": true,
                    "operation": "STATICCALL",
                    "output": "0x000000000000000000000000000000000000000000188c2e75c2213e5544aac6",
                    "revert": false,
                    "revertMessage": "",
                    "selector": "0x70a08231",
                    "status": true,
                    "value": "0"
                },
                "nodeType": 0
            },
            "31": {
                "event": {
                    "contract": "0x8967ba97f39334c9e6f8e34b8a3d7556306af568",
                    "decodedLog": null,
                    "id": 31,
                    "logData": "0x0000000000000000000000000000000000000000000000000000000005f5e10000000000000000000000000000000000000000000013ca37e74ca01bff23aaed000000000000000000000000000000000000000000188c2e75c2213e5544aac6",
                    "logDecoded": false,
                    "operation": "EVENT",
                    "revert": false,
                    "status": true,
                    "topics": [
                        "0x75579d79b5f47d9948c4ef1a2ca6debf5b1305937f0eff4fc71cd7fb3053428e"
                    ]
                },
                "nodeType": 1
            },
            "4": {
                "event": {
                    "contract": "0xa0b86991c6218b36c1d19d4a2e9eb0ce3606eb48",
                    "decodedLog": {
                        "name": "Transfer",
                        "params": [
                            {
                                "name": "from",
                                "type": "address",
                                "value": "0x4f728c79202dde237b876554bbac712353aad897"
                            },
                            {
                                "name": "to",
                                "type": "address",
                                "value": "0x397ff1542f962076d0bfe58ea045ffa2d347aca0"
                            },
                            {
                                "decimalAvailable": true,
                                "name": "value",
                                "type": "uint256",
                                "value": "100,000,000"
                            }
                        ],
                        "signature": "Transfer(address,address,uint256)"
                    },
                    "id": 4,
                    "logData": "0x0000000000000000000000000000000000000000000000000000000005f5e100",
                    "logDecoded": true,
                    "operation": "EVENT",
                    "revert": false,
                    "status": true,
                    "topics": [
                        "0xddf252ad1be2c89b69c2b068fc378daa952ba7f163c4a11628f55a4df523b3ef",
                        "0x0000000000000000000000004f728c79202dde237b876554bbac712353aad897",
                        "0x000000000000000000000000397ff1542f962076d0bfe58ea045ffa2d347aca0"
                    ]
                },
                "nodeType": 1
            },
            "5": {
                "invocation": {
                    "address": "0xd7a9d9c0f0767fc25edb74055a6550bb837fe3f3",
                    "callData": "0x0000000000000000000000004f728c79202dde237b876554bbac712353aad897",
                    "decodedMethod": {
                        "callParams": [
                            {
                                "name": "account",
                                "type": "address",
                                "value": "0x4f728c79202dde237b876554bbac712353aad897"
                            }
                        ],
                        "constructorArguments": "",
                        "name": "balanceOf",
                        "returnParams": [
                            {
                                "decimalAvailable": true,
                                "name": "",
                                "type": "uint256",
                                "value": "0"
                            }
                        ],
                        "signature": "balanceOf(address)"
                    },
                    "errorInfo": "",
                    "fromAddress": "0x8967ba97f39334c9e6f8e34b8a3d7556306af568",
                    "gasUsed": 2624,
                    "id": 5,
                    "methodDecoded": true,
                    "operation": "STATICCALL",
                    "output": "0x0000000000000000000000000000000000000000000000000000000000000000",
                    "revert": false,
                    "revertMessage": "",
                    "selector": "0x70a08231",
                    "status": true,
                    "value": "0"
                },
                "nodeType": 0
            },
            "6": {
                "invocation": {
                    "address": "0x1a75f7db182ce7fca969f029e1ef573f7aee9cb5",
                    "callData": "0x000000000000000000000000c02aaa39b223fe8d0a0e5c4f27ead9083c756cc2000000000000000000000000d7a9d9c0f0767fc25edb74055a6550bb837fe3f3",
                    "decodedMethod": null,
                    "errorInfo": "",
                    "fromAddress": "0x8967ba97f39334c9e6f8e34b8a3d7556306af568",
                    "gasUsed": 3323,
                    "id": 6,
                    "methodDecoded": false,
                    "operation": "STATICCALL",
                    "output": "0x000000000000000000000000a7655af0ebf41fb967580cda1ea9a2497e9bfee5",
                    "revert": false,
                    "revertMessage": "",
                    "selector": "0xe98a5b85",
                    "status": true,
                    "value": "0"
                },
                "nodeType": 0
            },
            "7": {
                "invocation": {
                    "address": "0xd6a249f29d412bcc2d94856ca0ca669385d7e1b5",
                    "callData": "0x000000000000000000000000a0b86991c6218b36c1d19d4a2e9eb0ce3606eb48000000000000000000000000c02aaa39b223fe8d0a0e5c4f27ead9083c756cc2000000000000000000000000a7655af0ebf41fb967580cda1ea9a2497e9bfee5",
                    "decodedMethod": {
                        "callParams": [
                            {
                                "name": "token1",
                                "type": "address",
                                "value": "0xa0b86991c6218b36c1d19d4a2e9eb0ce3606eb48"
                            },
                            {
                                "name": "token2",
                                "type": "address",
                                "value": "0xc02aaa39b223fe8d0a0e5c4f27ead9083c756cc2"
                            },
                            {
                                "name": "reseller",
                                "type": "address",
                                "value": "0xa7655af0ebf41fb967580cda1ea9a2497e9bfee5"
                            }
                        ],
                        "constructorArguments": "",
                        "name": "swap",
                        "returnParams": [],
                        "signature": "swap(address,address,address)"
                    },
                    "errorInfo": "",
                    "fromAddress": "0x8967ba97f39334c9e6f8e34b8a3d7556306af568",
                    "gasUsed": 61068,
                    "id": 7,
                    "methodDecoded": true,
                    "operation": "CALL",
                    "output": "",
                    "revert": false,
                    "revertMessage": "",
                    "selector": "0x93316212",
                    "status": true,
                    "value": "0"
                },
                "nodeType": 0
            },
            "8": {
                "invocation": {
                    "address": "0x397ff1542f962076d0bfe58ea045ffa2d347aca0",
                    "callData": "0x",
                    "decodedMethod": {
                        "callParams": [],
                        "constructorArguments": "",
                        "name": "getReserves",
                        "returnParams": [
                            {
                                "name": "_reserve0",
                                "type": "uint112",
                                "value": "22,434,417,626,949"
                            },
                            {
                                "name": "_reserve1",
                                "type": "uint112",
                                "value": "13,429,639,133,389,509,960,666"
                            },
                            {
                                "name": "_blockTimestampLast",
                                "type": "uint32",
                                "value": "1,675,440,251"
                            }
                        ],
                        "signature": "getReserves()"
                    },
                    "errorInfo": "",
                    "fromAddress": "0xd6a249f29d412bcc2d94856ca0ca669385d7e1b5",
                    "gasUsed": 2517,
                    "id": 8,
                    "methodDecoded": true,
                    "operation": "STATICCALL",
                    "output": "0x000000000000000000000000000000000000000000000000000014676b7e4f450000000000000000000000000000000000000000000002d805aea68a468923da0000000000000000000000000000000000000000000000000000000063dd307b",
                    "revert": false,
                    "revertMessage": "",
                    "selector": "0x0902f1ac",
                    "status": true,
                    "value": "0"
                },
                "nodeType": 0
            },
            "9": {
                "invocation": {
                    "address": "0xa0b86991c6218b36c1d19d4a2e9eb0ce3606eb48",
                    "callData": "0x000000000000000000000000397ff1542f962076d0bfe58ea045ffa2d347aca0",
                    "decodedMethod": {
                        "callParams": [
                            {
                                "name": "account",
                                "type": "address",
                                "value": "0x397ff1542f962076d0bfe58ea045ffa2d347aca0"
                            }
                        ],
                        "constructorArguments": "",
                        "name": "balanceOf",
                        "returnParams": [
                            {
                                "decimalAvailable": true,
                                "name": "",
                                "type": "uint256",
                                "value": "22,434,517,626,949"
                            }
                        ],
                        "signature": "balanceOf(address)"
                    },
                    "errorInfo": "",
                    "fromAddress": "0xd6a249f29d412bcc2d94856ca0ca669385d7e1b5",
                    "gasUsed": 1315,
                    "id": 9,
                    "methodDecoded": true,
                    "operation": "STATICCALL",
                    "output": "0x0000000000000000000000000000000000000000000000000000146771743045",
                    "revert": false,
                    "revertMessage": "",
                    "selector": "0x70a08231",
                    "status": true,
                    "value": "0"
                },
                "nodeType": 0
            }
        },
        "gasFlame": [
            {
                "children": [
                    {
                        "children": [
                            {
                                "children": [],
                                "depth": 0,
                                "name": "Initial Gas",
                                "value": 24268
                            },
                            {
                                "children": [
                                    {
                                        "children": [],
                                        "depth": 1,
                                        "name": "0xe98a5b85",
                                        "value": 3323
                                    },
                                    {
                                        "children": [
                                            {
                                                "children": [],
                                                "depth": 2,
                                                "name": "transferFrom",
                                                "value": 27597
                                            }
                                        ],
                                        "depth": 1,
                                        "name": "transferFrom",
                                        "value": 34892
                                    },
                                    {
                                        "children": [],
                                        "depth": 1,
                                        "name": "balanceOf",
                                        "value": 2624
                                    },
                                    {
                                        "children": [],
                                        "depth": 1,
                                        "name": "0xe98a5b85",
                                        "value": 3323
                                    },
                                    {
                                        "children": [
                                            {
                                                "children": [],
                                                "depth": 2,
                                                "name": "getReserves",
                                                "value": 2517
                                            },
                                            {
                                                "children": [
                                                    {
                                                        "children": [],
                                                        "depth": 3,
                                                        "name": "balanceOf",
                                                        "value": 529
                                                    }
                                                ],
                                                "depth": 2,
                                                "name": "balanceOf",
                                                "value": 1315
                                            },
                                            {
                                                "children": [
                                                    {
                                                        "children": [],
                                                        "depth": 3,
                                                        "name": "transfer",
                                                        "value": 12862
                                                    },
                                                    {
                                                        "children": [
                                                            {
                                                                "children": [],
                                                                "depth": 4,
                                                                "name": "balanceOf",
                                                                "value": 529
                                                            }
                                                        ],
                                                        "depth": 3,
                                                        "name": "balanceOf",
                                                        "value": 1315
                                                    },
                                                    {
                                                        "children": [],
                                                        "depth": 3,
                                                        "name": "balanceOf",
                                                        "value": 534
                                                    }
                                                ],
                                                "depth": 2,
                                                "name": "swap",
                                                "value": 48907
                                            }
                                        ],
                                        "depth": 1,
                                        "name": "swap",
                                        "value": 61068
                                    },
                                    {
                                        "children": [
                                            {
                                                "children": [],
                                                "depth": 2,
                                                "name": "getReserves",
                                                "value": 2504
                                            },
                                            {
                                                "children": [],
                                                "depth": 2,
                                                "name": "balanceOf",
                                                "value": 534
                                            },
                                            {
                                                "children": [
                                                    {
                                                        "children": [],
                                                        "depth": 3,
                                                        "name": "transfer",
                                                        "value": 78378
                                                    },
                                                    {
                                                        "children": [],
                                                        "depth": 3,
                                                        "name": "balanceOf",
                                                        "value": 534
                                                    },
                                                    {
                                                        "children": [],
                                                        "depth": 3,
                                                        "name": "balanceOf",
                                                        "value": 624
                                                    }
                                                ],
                                                "depth": 2,
                                                "name": "swap",
                                                "value": 100443
                                            }
                                        ],
                                        "depth": 1,
                                        "name": "swap",
                                        "value": 111810
                                    },
                                    {
                                        "children": [],
                                        "depth": 1,
                                        "name": "balanceOf",
                                        "value": 624
                                    }
                                ],
                                "depth": 0,
                                "name": "Executed Gas",
                                "value": 237837
                            }
                        ],
                        "depth": -1,
                        "name": "Actual Gas Used",
                        "value": 256505
                    },
                    {
                        "children": [],
                        "depth": -1,
                        "name": "Refunded Gas",
                        "value": 5600
                    }
                ],
                "depth": -2,
                "name": "Total Gas",
                "value": 262105
            }
        ],
        "isConfirmed": true,
        "mainTrace": [
            {
                "children": [
                    {
                        "children": [
                            {
                                "children": [],
                                "depth": 1,
                                "id": 1,
                                "order": 1
                            },
                            {
                                "children": [
                                    {
                                        "children": [
                                            {
                                                "children": [],
                                                "depth": 3,
                                                "id": 4,
                                                "order": 4
                                            }
                                        ],
                                        "depth": 2,
                                        "id": 3,
                                        "order": 3
                                    }
                                ],
                                "depth": 1,
                                "id": 2,
                                "order": 2
                            },
                            {
                                "children": [],
                                "depth": 1,
                                "id": 5,
                                "order": 5
                            },
                            {
                                "children": [],
                                "depth": 1,
                                "id": 6,
                                "order": 6
                            },
                            {
                                "children": [
                                    {
                                        "children": [],
                                        "depth": 2,
                                        "id": 8,
                                        "order": 8
                                    },
                                    {
                                        "children": [
                                            {
                                                "children": [],
                                                "depth": 3,
                                                "id": 10,
                                                "order": 10
                                            }
                                        ],
                                        "depth": 2,
                                        "id": 9,
                                        "order": 9
                                    },
                                    {
                                        "children": [
                                            {
                                                "children": [
                                                    {
                                                        "children": [],
                                                        "depth": 4,
                                                        "id": 13,
                                                        "order": 13
                                                    }
                                                ],
                                                "depth": 3,
                                                "id": 12,
                                                "order": 12
                                            },
                                            {
                                                "children": [
                                                    {
                                                        "children": [],
                                                        "depth": 4,
                                                        "id": 15,
                                                        "order": 15
                                                    }
                                                ],
                                                "depth": 3,
                                                "id": 14,
                                                "order": 14
                                            },
                                            {
                                                "children": [],
                                                "depth": 3,
                                                "id": 16,
                                                "order": 16
                                            },
                                            {
                                                "children": [],
                                                "depth": 3,
                                                "id": 17,
                                                "order": 17
                                            },
                                            {
                                                "children": [],
                                                "depth": 3,
                                                "id": 18,
                                                "order": 18
                                            }
                                        ],
                                        "depth": 2,
                                        "id": 11,
                                        "order": 11
                                    }
                                ],
                                "depth": 1,
                                "id": 7,
                                "order": 7
                            },
                            {
                                "children": [
                                    {
                                        "children": [],
                                        "depth": 2,
                                        "id": 20,
                                        "order": 20
                                    },
                                    {
                                        "children": [],
                                        "depth": 2,
                                        "id": 21,
                                        "order": 21
                                    },
                                    {
                                        "children": [
                                            {
                                                "children": [
                                                    {
                                                        "children": [],
                                                        "depth": 4,
                                                        "id": 24,
                                                        "order": 24
                                                    },
                                                    {
                                                        "children": [],
                                                        "depth": 4,
                                                        "id": 25,
                                                        "order": 25
                                                    }
                                                ],
                                                "depth": 3,
                                                "id": 23,
                                                "order": 23
                                            },
                                            {
                                                "children": [],
                                                "depth": 3,
                                                "id": 26,
                                                "order": 26
                                            },
                                            {
                                                "children": [],
                                                "depth": 3,
                                                "id": 27,
                                                "order": 27
                                            },
                                            {
                                                "children": [],
                                                "depth": 3,
                                                "id": 28,
                                                "order": 28
                                            },
                                            {
                                                "children": [],
                                                "depth": 3,
                                                "id": 29,
                                                "order": 29
                                            }
                                        ],
                                        "depth": 2,
                                        "id": 22,
                                        "order": 22
                                    }
                                ],
                                "depth": 1,
                                "id": 19,
                                "order": 19
                            },
                            {
                                "children": [],
                                "depth": 1,
                                "id": 30,
                                "order": 30
                            },
                            {
                                "children": [],
                                "depth": 1,
                                "id": 31,
                                "order": 31
                            }
                        ],
                        "depth": 0,
                        "id": 0,
                        "order": 0
                    }
                ],
                "depth": -1,
                "id": -1,
                "order": -1
            }
        ],
        "mainTraceNodeCount": 32,
        "parentIdMap": {
            "0": -1,
            "1": 0,
            "10": 9,
            "11": 7,
            "12": 11,
            "13": 12,
            "14": 11,
            "15": 14,
            "16": 11,
            "17": 11,
            "18": 11,
            "19": 0,
            "2": 0,
            "20": 19,
            "21": 19,
            "22": 19,
            "23": 22,
            "24": 23,
            "25": 23,
            "26": 22,
            "27": 22,
            "28": 22,
            "29": 22,
            "3": 2,
            "30": 0,
            "31": 0,
            "4": 3,
            "5": 0,
            "6": 0,
            "7": 0,
            "8": 7,
            "9": 7
        },
        "tidyTrace": [
            {
                "children": [
                    {
                        "children": [
                            {
                                "children": [
                                    {
                                        "children": [
                                            {
                                                "children": [],
                                                "depth": 3,
                                                "id": 4,
                                                "order": 4
                                            }
                                        ],
                                        "depth": 2,
                                        "id": 3,
                                        "order": 3
                                    }
                                ],
                                "depth": 1,
                                "id": 2,
                                "order": 2
                            },
                            {
                                "children": [
                                    {
                                        "children": [
                                            {
                                                "children": [
                                                    {
                                                        "children": [],
                                                        "depth": 4,
                                                        "id": 13,
                                                        "order": 13
                                                    }
                                                ],
                                                "depth": 3,
                                                "id": 12,
                                                "order": 12
                                            },
                                            {
                                                "children": [],
                                                "depth": 3,
                                                "id": 17,
                                                "order": 17
                                            },
                                            {
                                                "children": [],
                                                "depth": 3,
                                                "id": 18,
                                                "order": 18
                                            }
                                        ],
                                        "depth": 2,
                                        "id": 11,
                                        "order": 11
                                    }
                                ],
                                "depth": 1,
                                "id": 7,
                                "order": 7
                            },
                            {
                                "children": [
                                    {
                                        "children": [
                                            {
                                                "children": [
                                                    {
                                                        "children": [],
                                                        "depth": 4,
                                                        "id": 24,
                                                        "order": 24
                                                    },
                                                    {
                                                        "children": [],
                                                        "depth": 4,
                                                        "id": 25,
                                                        "order": 25
                                                    }
                                                ],
                                                "depth": 3,
                                                "id": 23,
                                                "order": 23
                                            },
                                            {
                                                "children": [],
                                                "depth": 3,
                                                "id": 28,
                                                "order": 28
                                            },
                                            {
                                                "children": [],
                                                "depth": 3,
                                                "id": 29,
                                                "order": 29
                                            }
                                        ],
                                        "depth": 2,
                                        "id": 22,
                                        "order": 22
                                    }
                                ],
                                "depth": 1,
                                "id": 19,
                                "order": 19
                            },
                            {
                                "children": [],
                                "depth": 1,
                                "id": 31,
                                "order": 31
                            }
                        ],
                        "depth": 0,
                        "id": 0,
                        "order": 0
                    }
                ],
                "depth": -1,
                "id": -1,
                "order": -1
            }
        ],
        "tidyTraceNodeCount": 18
    },
    "state_change": {
        "stateChanges": [
            {
                "address": "0x397ff1542f962076d0bfe58ea045ffa2d347aca0",
                "erc": "ERC-20",
                "slots": [
                    {
                        "current": "0x0000000000000000000000c5ee0d409f47b027b6977e86e2dbfc48d7970a6b1c",
                        "key": "0x0000000000000000000000000000000000000000000000000000000000000009",
                        "prev": "0x0000000000000000000000c5ee04e3cc6be0faee54b6b2f66461c64b9e6079b0"
                    },
                    {
                        "current": "0x00000000000000000000000000000000000028b4178bdde8d49e0c1e69544640",
                        "key": "0x000000000000000000000000000000000000000000000000000000000000000a",
                        "prev": "0x00000000000000000000000000000000000028b415dd60d98b652c6819fbaf88"
                    },
                    {
                        "current": "0x63dd30b70000000002d804da9e26e99ec6310000000000000000146771743045",
                        "key": "0x0000000000000000000000000000000000000000000000000000000000000008",
                        "prev": "0x63dd307b0000000002d805aea68a468923da000000000000000014676b7e4f45"
                    }
                ],
                "storageVariables": [
                    {
                        "name": "reserve0",
                        "type": "uint112",
                        "value": {
                            "current": "22434517626949",
                            "prev": "22434417626949",
                            "typeTag": 1
                        }
                    },
                    {
                        "name": "reserve1",
                        "type": "uint112",
                        "value": {
                            "current": "13429579451471593653809",
                            "prev": "13429639133389509960666",
                            "typeTag": 1
                        }
                    },
                    {
                        "name": "blockTimestampLast",
                        "type": "uint32",
                        "value": {
                            "current": "1675440311",
                            "prev": "1675440251",
                            "typeTag": 1
                        }
                    },
                    {
                        "name": "price0CumulativeLast",
                        "type": "uint256",
                        "value": {
                            "current": "289274857896718015401507457801735616097821330664220",
                            "prev": "289274671404674647736363620762602917468916844362160",
                            "typeTag": 1
                        }
                    },
                    {
                        "name": "price1CumulativeLast",
                        "type": "uint256",
                        "value": {
                            "current": "825564740642487173130363241514560",
                            "prev": "825564220213806951107069250088840",
                            "typeTag": 1
                        }
                    }
                ]
            },
            {
                "address": "0xa0b86991c6218b36c1d19d4a2e9eb0ce3606eb48",
                "erc": "ERC-20",
                "slots": [
                    {
                        "current": "0xfffffffffffffffffffffffffffffffffffffffffffffffffffffffffa0a1eff",
                        "key": "0x8ec20016dbb532ee32a436c245c9a20a6dfbeba89af568a440f154f26e06f6fa",
                        "prev": "0xffffffffffffffffffffffffffffffffffffffffffffffffffffffffffffffff"
                    },
                    {
                        "current": "0x000000000000000000000000000000000000000000000000000000001ac2a29e",
                        "key": "0xc4069b9ab849d65374478e33fd9979b24c138a422e9a0e4f1d398566aabd1ca0",
                        "prev": "0x0000000000000000000000000000000000000000000000000000000020b8839e"
                    },
                    {
                        "current": "0x0000000000000000000000000000000000000000000000000000146771743045",
                        "key": "0xcd1718b39694c8b71b5b7030a9f4416a979d5bffcde56263723356d0f75e4776",
                        "prev": "0x000000000000000000000000000000000000000000000000000014676b7e4f45"
                    }
                ],
                "storageVariables": [
                    {
                        "name": "balances",
                        "type": "mapping(address => uint256)",
                        "value": {
                            "pairs": [
                                {
                                    "key": "0x397ff1542f962076d0bfe58ea045ffa2d347aca0",
                                    "value": {
                                        "current": "22434517626949",
                                        "prev": "22434417626949",
                                        "typeTag": 1
                                    }
                                },
                                {
                                    "key": "0x4f728c79202dde237b876554bbac712353aad897",
                                    "value": {
                                        "current": "448963230",
                                        "prev": "548963230",
                                        "typeTag": 1
                                    }
                                }
                            ],
                            "typeTag": 4
                        }
                    },
                    {
                        "name": "allowed",
                        "type": "mapping(address => mapping(address => uint256))",
                        "value": {
                            "pairs": [
                                {
                                    "key": "0x4f728c79202dde237b876554bbac712353aad897",
                                    "value": {
                                        "pairs": [
                                            {
                                                "key": "0x8967ba97f39334c9e6f8e34b8a3d7556306af568",
                                                "value": {
                                                    "current": "115792089237316195423570985008687907853269984665640564039457584007913029639935",
                                                    "prev": "115792089237316195423570985008687907853269984665640564039457584007913129639935",
                                                    "typeTag": 1
                                                }
                                            }
                                        ],
                                        "typeTag": 4
                                    }
                                }
                            ],
                            "typeTag": 4
                        }
                    }
                ]
            },
            {
                "address": "0xa7655af0ebf41fb967580cda1ea9a2497e9bfee5",
                "erc": "ERC-20",
                "slots": [
                    {
                        "current": "0x63dd30b70000141bf0d7934b8845b5522605000000000000a39ca67d6a56d0ee",
                        "key": "0x0000000000000000000000000000000000000000000000000000000000000008",
                        "prev": "0x63dd30b7000014360e243c24f2723b9b32d7000000000000a2c89e1a0d6c7345"
                    }
                ],
                "storageVariables": [
                    {
                        "name": "reserve0",
                        "type": "uint112",
                        "value": {
                            "current": "11789480982134313198",
                            "prev": "11729799064218006341",
                            "typeTag": 1
                        }
                    },
                    {
                        "name": "reserve1",
                        "type": "uint112",
                        "value": {
                            "current": "6223478538176087704422458885",
                            "prev": "6255048972233493492384084695",
                            "typeTag": 1
                        }
                    },
                    {
                        "name": "blockTimestampLast",
                        "type": "uint32",
                        "value": {
                            "current": "1675440311",
                            "prev": "1675440311",
                            "typeTag": 1
                        }
                    }
                ]
            },
            {
                "address": "0xc02aaa39b223fe8d0a0e5c4f27ead9083c756cc2",
                "erc": "ERC-20",
                "slots": [
                    {
                        "current": "0x0000000000000000000000000000000000000000000002d804da9e26e99ec631",
                        "key": "0xb440be4deffff278a0a54bece4d5bba517a3236073012092c2f7526f6434fd2c",
                        "prev": "0x0000000000000000000000000000000000000000000002d805aea68a468923da"
                    },
                    {
                        "current": "0x000000000000000000000000000000000000000000000000a39ca67d6a56d0ee",
                        "key": "0x3c0a707d98768c8702963d419fa42a250541de43b65b48c5002e31bbcb86644f",
                        "prev": "0x000000000000000000000000000000000000000000000000a2c89e1a0d6c7345"
                    }
                ],
                "storageVariables": [
                    {
                        "name": "balanceOf",
                        "type": "mapping(address => uint256)",
                        "value": {
                            "pairs": [
                                {
                                    "key": "0x397ff1542f962076d0bfe58ea045ffa2d347aca0",
                                    "value": {
                                        "current": "13429579451471593653809",
                                        "prev": "13429639133389509960666",
                                        "typeTag": 1
                                    }
                                },
                                {
                                    "key": "0xa7655af0ebf41fb967580cda1ea9a2497e9bfee5",
                                    "value": {
                                        "current": "11789480982134313198",
                                        "prev": "11729799064218006341",
                                        "typeTag": 1
                                    }
                                }
                            ],
                            "typeTag": 4
                        }
                    }
                ]
            },
            {
                "address": "0xd7a9d9c0f0767fc25edb74055a6550bb837fe3f3",
                "erc": "ERC-20",
                "slots": [
                    {
                        "current": "0x000000000000000000000000000000000000000000188c2e75c2213e5544aac6",
                        "key": "0x74c8918d971767bcfa212a8a23a7fe0af43c27648e6f42b966e23254bc9929bd",
                        "prev": "0x0000000000000000000000000000000000000000000000000000000000000000"
                    },
                    {
                        "current": "0x0000000000000000000000000000000000000000000127ec5ef380d8083b5c65",
                        "key": "0x0000000000000000000000000000000000000000000000000000000000000018",
                        "prev": "0x00000000000000000000000000000000000000000000e512011a4a05aabaa163"
                    },
                    {
                        "current": "0x00000000000000000000000000000000000000000018d99f947ea1ea410ccdf8",
                        "key": "0x0000000000000000000000000000000000000000000000000000000000000017",
                        "prev": "0x000000000000000000000000000000000000000000178b5bbf408fce6d8926ee"
                    },
                    {
                        "current": "0x0000000000000000000000000000000000000000141bf0d7934b8845b5522605",
                        "key": "0xa463ba47342562c7d33cc50da53439176ad33a68cb073676cf6cbd759bea4126",
                        "prev": "0x000000000000000000000000000000000000000014360e243c24f2723b9b32d7"
                    },
                    {
                        "current": "0x0000000000000000000000000000000000000000001a018bf37222c249482a5e",
                        "key": "0x36c3ad131899e975e2463ef5d116b3bb5adbb11d72b86c02e2120d0f81fc458f",
                        "prev": "0x00000000000000000000000000000000000000000018706dc05ad9d41843c852"
                    }
                ],
                "storageVariables": [
                    {
                        "name": "tokensForLiquidity",
                        "type": "uint256",
                        "value": {
                            "current": "1397458386001865037536357",
                            "prev": "1081754045427807157920099",
                            "typeTag": 1
                        }
                    },
                    {
                        "name": "tokensForMarketing",
                        "type": "uint256",
                        "value": {
                            "current": "30041916930009325187681784",
                            "prev": "28463395227139035789600494",
                            "typeTag": 1
                        }
                    },
                    {
                        "name": "_balances",
                        "type": "mapping(address => uint256)",
                        "value": {
                            "pairs": [
                                {
                                    "key": "0x4f728c79202dde237b876554bbac712353aad897",
                                    "value": {
                                        "current": "29676208013961440683928262",
                                        "prev": "0",
                                        "typeTag": 1
                                    }
                                },
                                {
                                    "key": "0xa7655af0ebf41fb967580cda1ea9a2497e9bfee5",
                                    "value": {
                                        "current": "6223478538176087704422458885",
                                        "prev": "6255048972233493492384084695",
                                        "typeTag": 1
                                    }
                                },
                                {
                                    "key": "0xd7a9d9c0f0767fc25edb74055a6550bb837fe3f3",
                                    "value": {
                                        "current": "31439375316011190225218142",
                                        "prev": "29545149272566842947520594",
                                        "typeTag": 1
                                    }
                                }
                            ],
                            "typeTag": 4
                        }
                    }
                ]
            }
        ]
    }
}