{
    "balance_change": {
        "balanceChanges": [
            {
                "account": "0x517b24bff09475d3db6be2cada7cd95bc787e59f",
                "assets": [
                    {
                        "address": "0xd405f9908dec587a5ed77ea06760ea868f5de7c3",
                        "amount": "800",
                        "iconUrl": "",
                        "isERC1155": false,
                        "isERC721": false,
                        "sign": false,
                        "value": "0.10976887"
                    },
                    {
                        "address": "0x2bbb25f387481f6c002e2c761ab237166e2dfd94",
                        "amount": "1",
                        "iconUrl": "",
                        "isERC1155": false,
                        "isERC721": true,
                        "sign": true,
                        "tokenID": "1",
                        "value": ""
                    }
                ]
            },
            {
                "account": "0x2bbb25f387481f6c002e2c761ab237166e2dfd94",
                "assets": [
                    {
                        "address": "0xd405f9908dec587a5ed77ea06760ea868f5de7c3",
                        "amount": "800",
                        "iconUrl": "",
                        "isERC1155": false,
                        "isERC721": false,
                        "sign": true,
                        "value": "0.10976887"
                    }
                ]
            },
            {
                "account": "0x0000000000000000000000000000000000000000",
                "assets": [
                    {
                        "address": "0x2bbb25f387481f6c002e2c761ab237166e2dfd94",
                        "amount": "1",
                        "iconUrl": "",
                        "isERC1155": false,
                        "isERC721": true,
                        "sign": false,
                        "tokenID": "1",
                        "value": ""
                    }
                ]
            }
        ]
    },
    "profile": {
        "basic_info": {
            "baseFee": "12.264476134",
            "blockNumber": 16235265,
            "callData": "0xa0712d680000000000000000000000000000000000000000000000000000000000000001",
            "debugEnable": true,
            "errorInfo": "",
            "eventCount": 3,
            "feeRecipient": "0xbaf6dc2e647aeb6f510f9e318856a1bcd66c5e19",
            "formatValue": "0",
            "gasLimit": 300000,
            "gasPrice": "13.764476134",
            "gasUsed": 164917,
            "intTxnCount": 3,
            "internalRevert": false,
            "internalRevertMessage": "",
            "isContractCreation": false,
            "isFlashloan": false,
            "maxFee": "18.62700038",
            "nonce": 169,
            "overwritedBlockNumber": -1,
            "priorityFee": "1.5",
            "receiver": "0x2bbb25f387481f6c002e2c761ab237166e2dfd94",
            "revertMessage": "",
            "sender": "0x517b24bff09475d3db6be2cada7cd95bc787e59f",
            "simulationEnable": true,
            "sourceTxnHash": "0x03d89861b3870bab3003634c11ce1b1d525772bd34bea8ba60229af15d7b2818",
            "status": true,
            "timestamp": "2022-12-21T19:48:11Z",
            "transactionFee": "0.002269996110590878",
            "txnHash": "0x03d89861b3870bab3003634c11ce1b1d525772bd34bea8ba60229af15d7b2818",
            "txnIndex": 126,
            "type": 2,
            "value": "0"
        },
        "fund_flow": [
            {
                "amount": "800",
                "from": "0x517b24bff09475d3db6be2cada7cd95bc787e59f",
                "id": 1,
                "isERC1155": false,
                "isERC721": false,
                "isReverted": false,
                "order": 1,
                "to": "0x2bbb25f387481f6c002e2c761ab237166e2dfd94",
                "token": "0xd405f9908dec587a5ed77ea06760ea868f5de7c3"
            },
            {
                "amount": "1",
                "from": "0x0000000000000000000000000000000000000000",
                "id": 2,
                "isERC1155": false,
                "isERC721": true,
                "isReverted": false,
                "order": 2,
                "to": "0x517b24bff09475d3db6be2cada7cd95bc787e59f",
                "token": "0x2bbb25f387481f6c002e2c761ab237166e2dfd94",
                "tokenID": "1"
            }
        ],
        "token_infos": [
            {
                "address": "0xeeeeeeeeeeeeeeeeeeeeeeeeeeeeeeeeeeeeeeee",
                "decimals": 18
            },
            {
                "address": "0xc02aaa39b223fe8d0a0e5c4f27ead9083c756cc2",
                "decimals": 18
            },
            {
                "address": "0xd405f9908dec587a5ed77ea06760ea868f5de7c3",
                "decimals": 18
            }
        ]
    },
    "address_label": {
        "labels": [
            {
                "address": "0x0000000000000000000000000000000000000003",
                "label": "Precompiled"
            },
            {
                "address": "0x0000000000000000000000000000000000000004",
                "label": "Precompiled"
            },
            {
                "address": "0xeeeeeeeeeeeeeeeeeeeeeeeeeeeeeeeeeeeeeeee",
                "label": "Ether"
            },
            {
                "address": "0x582b874af6a8d0ec283febe1988fb4a67c06e050",
                "label": "KaijuKongz: Kai Token"
            },
            {
                "address": "0x2bbb25f387481f6c002e2c761ab237166e2dfd94",
                "label": "JuniorKongz (JUNIOR)"
            },
            {
                "address": "0xd405f9908dec587a5ed77ea06760ea868f5de7c3",
                "label": "Human (HUMAN)"
            },
            {
                "address": "0x0000000000000000000000000000000000000001",
                "label": "Precompiled"
            },
            {
                "address": "0x0000000000000000000000000000000000000002",
                "label": "Precompiled"
            }
        ]
    },
    "trace": {
        "accountLabels": null,
        "dataMap": {
            "-1": {
                "invocation": {
                    "address": "0x517b24bff09475d3db6be2cada7cd95bc787e59f",
                    "callData": "",
                    "decodedMethod": null,
                    "errorInfo": "",
                    "fromAddress": "",
                    "gasUsed": 0,
                    "id": -1,
                    "methodDecoded": false,
                    "operation": "",
                    "output": "",
                    "revert": false,
                    "revertMessage": "",
                    "selector": "",
                    "status": false,
                    "value": ""
                },
                "nodeType": 0
            },
            "0": {
                "invocation": {
                    "address": "0x2bbb25f387481f6c002e2c761ab237166e2dfd94",
                    "callData": "0x0000000000000000000000000000000000000000000000000000000000000001",
                    "decodedMethod": {
                        "callParams": [
                            {
                                "name": "_mintAmount",
                                "type": "uint256",
                                "value": "1"
                            }
                        ],
                        "constructorArguments": "",
                        "name": "mint",
                        "returnParams": [],
                        "signature": "mint(uint256)"
                    },
                    "errorInfo": "",
                    "fromAddress": "0x517b24bff09475d3db6be2cada7cd95bc787e59f",
                    "gasUsed": 164917,
                    "id": 0,
                    "methodDecoded": true,
                    "operation": "CALL",
                    "output": "",
                    "revert": false,
                    "revertMessage": "",
                    "selector": "0xa0712d68",
                    "status": true,
                    "value": "0"
                },
                "nodeType": 0
            },
            "1": {
                "invocation": {
                    "address": "0xd9d6fa0410ca86497314e7831b55c7826cbc77e6",
                    "callData": "0x000000000000000000000000517b24bff09475d3db6be2cada7cd95bc787e59f",
                    "decodedMethod": {
                        "callParams": [
                            {
                                "name": "_user",
                                "type": "address",
                                "value": "0x517b24bff09475d3db6be2cada7cd95bc787e59f"
                            }
                        ],
                        "constructorArguments": "",
                        "name": "getStakedLands",
                        "returnParams": [
                            {
                                "name": "",
                                "type": "(address,uint256,uint256)[]",
                                "value": [
                                    [
                                        {
                                            "name": "staker",
                                            "type": "address",
                                            "value": "0x517b24bff09475d3db6be2cada7cd95bc787e59f"
                                        },
                                        {
                                            "name": "tokenId",
                                            "type": "uint256",
                                            "value": "991"
                                        },
                                        {
                                            "name": "timeOfLastStake",
                                            "type": "uint256",
                                            "value": "1,664,300,327"
                                        }
                                    ],
                                    [
                                        {
                                            "name": "staker",
                                            "type": "address",
                                            "value": "0x517b24bff09475d3db6be2cada7cd95bc787e59f"
                                        },
                                        {
                                            "name": "tokenId",
                                            "type": "uint256",
                                            "value": "0"
                                        },
                                        {
                                            "name": "timeOfLastStake",
                                            "type": "uint256",
                                            "value": "1,671,650,387"
                                        }
                                    ]
                                ]
                            }
                        ],
                        "signature": "getStakedLands(address)"
                    },
                    "errorInfo": "",
                    "fromAddress": "0x2bbb25f387481f6c002e2c761ab237166e2dfd94",
                    "gasUsed": 20791,
                    "id": 1,
                    "methodDecoded": true,
                    "operation": "STATICCALL",
                    "output": "0x00000000000000000000000000000000000000000000000000000000000000200000000000000000000000000000000000000000000000000000000000000002000000000000000000000000517b24bff09475d3db6be2cada7cd95bc787e59f00000000000000000000000000000000000000000000000000000000000003df0000000000000000000000000000000000000000000000000000000063333527000000000000000000000000517b24bff09475d3db6be2cada7cd95bc787e59f00000000000000000000000000000000000000000000000000000000000000000000000000000000000000000000000000000000000000000000000063a35c53",
                    "revert": false,
                    "revertMessage": "",
                    "selector": "0x5fa46aab",
                    "status": true,
                    "value": "0"
                },
                "nodeType": 0
            },
            "2": {
                "invocation": {
                    "address": "0x582b874af6a8d0ec283febe1988fb4a67c06e050",
                    "callData": "0x000000000000000000000000517b24bff09475d3db6be2cada7cd95bc787e59f",
                    "decodedMethod": {
                        "callParams": [
                            {
                                "name": "owner",
                                "type": "address",
                                "value": "0x517b24bff09475d3db6be2cada7cd95bc787e59f"
                            }
                        ],
                        "constructorArguments": "",
                        "name": "balanceOf",
                        "returnParams": [
                            {
                                "decimalAvailable": true,
                                "name": "",
                                "type": "uint256",
                                "value": "3"
                            }
                        ],
                        "signature": "balanceOf(address)"
                    },
                    "errorInfo": "",
                    "fromAddress": "0x2bbb25f387481f6c002e2c761ab237166e2dfd94",
                    "gasUsed": 2675,
                    "id": 2,
                    "methodDecoded": true,
                    "operation": "STATICCALL",
                    "output": "0x0000000000000000000000000000000000000000000000000000000000000003",
                    "revert": false,
                    "revertMessage": "",
                    "selector": "0x70a08231",
                    "status": true,
                    "value": "0"
                },
                "nodeType": 0
            },
            "3": {
                "invocation": {
                    "address": "0xd405f9908dec587a5ed77ea06760ea868f5de7c3",
                    "callData": "0x000000000000000000000000517b24bff09475d3db6be2cada7cd95bc787e59f0000000000000000000000002bbb25f387481f6c002e2c761ab237166e2dfd9400000000000000000000000000000000000000000000002b5e3af16b18800000",
                    "decodedMethod": {
                        "callParams": [
                            {
                                "name": "from",
                                "type": "address",
                                "value": "0x517b24bff09475d3db6be2cada7cd95bc787e59f"
                            },
                            {
                                "name": "to",
                                "type": "address",
                                "value": "0x2bbb25f387481f6c002e2c761ab237166e2dfd94"
                            },
                            {
                                "decimalAvailable": true,
                                "name": "amount",
                                "type": "uint256",
                                "value": "800,000,000,000,000,000,000"
                            }
                        ],
                        "constructorArguments": "",
                        "name": "transferFrom",
                        "returnParams": [
                            {
                                "name": "",
                                "type": "bool",
                                "value": true
                            }
                        ],
                        "signature": "transferFrom(address,address,uint256)"
                    },
                    "errorInfo": "",
                    "fromAddress": "0x2bbb25f387481f6c002e2c761ab237166e2dfd94",
                    "gasUsed": 21412,
                    "id": 3,
                    "methodDecoded": true,
                    "operation": "CALL",
                    "output": "0x0000000000000000000000000000000000000000000000000000000000000001",
                    "revert": false,
                    "revertMessage": "",
                    "selector": "0x23b872dd",
                    "status": true,
                    "value": "0"
                },
                "nodeType": 0
            },
            "4": {
                "event": {
                    "contract": "0xd405f9908dec587a5ed77ea06760ea868f5de7c3",
                    "decodedLog": {
                        "name": "Approval",
                        "params": [
                            {
                                "name": "owner",
                                "type": "address",
                                "value": "0x517b24bff09475d3db6be2cada7cd95bc787e59f"
                            },
                            {
                                "name": "spender",
                                "type": "address",
                                "value": "0x2bbb25f387481f6c002e2c761ab237166e2dfd94"
                            },
                            {
                                "decimalAvailable": true,
                                "name": "value",
                                "type": "uint256",
                                "value": "0"
                            }
                        ],
                        "signature": "Approval(address,address,uint256)"
                    },
                    "id": 4,
                    "logData": "0x0000000000000000000000000000000000000000000000000000000000000000",
                    "logDecoded": true,
                    "operation": "EVENT",
                    "revert": false,
                    "status": true,
                    "topics": [
                        "0x8c5be1e5ebec7d5bd14f71427d1e84f3dd0314c0f7b2291e5b200ac8c7c3b925",
                        "0x000000000000000000000000517b24bff09475d3db6be2cada7cd95bc787e59f",
                        "0x0000000000000000000000002bbb25f387481f6c002e2c761ab237166e2dfd94"
                    ]
                },
                "nodeType": 1
            },
            "5": {
                "event": {
                    "contract": "0xd405f9908dec587a5ed77ea06760ea868f5de7c3",
                    "decodedLog": {
                        "name": "Transfer",
                        "params": [
                            {
                                "name": "from",
                                "type": "address",
                                "value": "0x517b24bff09475d3db6be2cada7cd95bc787e59f"
                            },
                            {
                                "name": "to",
                                "type": "address",
                                "value": "0x2bbb25f387481f6c002e2c761ab237166e2dfd94"
                            },
                            {
                                "decimalAvailable": true,
                                "name": "value",
                                "type": "uint256",
                                "value": "800,000,000,000,000,000,000"
                            }
                        ],
                        "signature": "Transfer(address,address,uint256)"
                    },
                    "id": 5,
                    "logData": "0x00000000000000000000000000000000000000000000002b5e3af16b18800000",
                    "logDecoded": true,
                    "operation": "EVENT",
                    "revert": false,
                    "status": true,
                    "topics": [
                        "0xddf252ad1be2c89b69c2b068fc378daa952ba7f163c4a11628f55a4df523b3ef",
                        "0x000000000000000000000000517b24bff09475d3db6be2cada7cd95bc787e59f",
                        "0x0000000000000000000000002bbb25f387481f6c002e2c761ab237166e2dfd94"
                    ]
                },
                "nodeType": 1
            },
            "6": {
                "event": {
                    "contract": "0x2bbb25f387481f6c002e2c761ab237166e2dfd94",
                    "decodedLog": {
                        "name": "Transfer",
                        "params": [
                            {
                                "name": "from",
                                "type": "address",
                                "value": "0x0000000000000000000000000000000000000000"
                            },
                            {
                                "name": "to",
                                "type": "address",
                                "value": "0x517b24bff09475d3db6be2cada7cd95bc787e59f"
                            },
                            {
                                "decimalAvailable": true,
                                "name": "tokenId",
                                "type": "uint256",
                                "value": "1"
                            }
                        ],
                        "signature": "Transfer(address,address,uint256)"
                    },
                    "id": 6,
                    "logData": "0x",
                    "logDecoded": true,
                    "operation": "EVENT",
                    "revert": false,
                    "status": true,
                    "topics": [
                        "0xddf252ad1be2c89b69c2b068fc378daa952ba7f163c4a11628f55a4df523b3ef",
                        "0x0000000000000000000000000000000000000000000000000000000000000000",
                        "0x000000000000000000000000517b24bff09475d3db6be2cada7cd95bc787e59f",
                        "0x0000000000000000000000000000000000000000000000000000000000000001"
                    ]
                },
                "nodeType": 1
            }
        },
        "gasFlame": [
            {
                "children": [
                    {
                        "children": [
                            {
                                "children": [],
                                "depth": 0,
                                "name": "Initial Gas",
                                "value": 21204
                            },
                            {
                                "children": [
                                    {
                                        "children": [],
                                        "depth": 1,
                                        "name": "getStakedLands",
                                        "value": 20791
                                    },
                                    {
                                        "children": [],
                                        "depth": 1,
                                        "name": "balanceOf",
                                        "value": 2675
                                    },
                                    {
                                        "children": [],
                                        "depth": 1,
                                        "name": "transferFrom",
                                        "value": 21412
                                    }
                                ],
                                "depth": 0,
                                "name": "Executed Gas",
                                "value": 148513
                            }
                        ],
                        "depth": -1,
                        "name": "Actual Gas Used",
                        "value": 164917
                    },
                    {
                        "children": [],
                        "depth": -1,
                        "name": "Refunded Gas",
                        "value": 4800
                    }
                ],
                "depth": -2,
                "name": "Total Gas",
                "value": 169717
            }
        ],
        "isConfirmed": true,
        "mainTrace": [
            {
                "children": [
                    {
                        "children": [
                            {
                                "children": [],
                                "depth": 1,
                                "id": 1,
                                "order": 1
                            },
                            {
                                "children": [],
                                "depth": 1,
                                "id": 2,
                                "order": 2
                            },
                            {
                                "children": [
                                    {
                                        "children": [],
                                        "depth": 2,
                                        "id": 4,
                                        "order": 4
                                    },
                                    {
                                        "children": [],
                                        "depth": 2,
                                        "id": 5,
                                        "order": 5
                                    }
                                ],
                                "depth": 1,
                                "id": 3,
                                "order": 3
                            },
                            {
                                "children": [],
                                "depth": 1,
                                "id": 6,
                                "order": 6
                            }
                        ],
                        "depth": 0,
                        "id": 0,
                        "order": 0
                    }
                ],
                "depth": -1,
                "id": -1,
                "order": -1
            }
        ],
        "mainTraceNodeCount": 7,
        "parentIdMap": {
            "0": -1,
            "1": 0,
            "2": 0,
            "3": 0,
            "4": 3,
            "5": 3,
            "6": 0
        },
        "tidyTrace": [
            {
                "children": [
                    {
                        "children": [
                            {
                                "children": [
                                    {
                                        "children": [],
                                        "depth": 2,
                                        "id": 4,
                                        "order": 4
                                    },
                                    {
                                        "children": [],
                                        "depth": 2,
                                        "id": 5,
                                        "order": 5
                                    }
                                ],
                                "depth": 1,
                                "id": 3,
                                "order": 3
                            },
                            {
                                "children": [],
                                "depth": 1,
                                "id": 6,
                                "order": 6
                            }
                        ],
                        "depth": 0,
                        "id": 0,
                        "order": 0
                    }
                ],
                "depth": -1,
                "id": -1,
                "order": -1
            }
        ],
        "tidyTraceNodeCount": 5
    },
    "state_change": {
        "stateChanges": [
            {
                "address": "0x2bbb25f387481f6c002e2c761ab237166e2dfd94",
                "erc": "",
                "slots": [
                    {
                        "current": "0x0000000000000000000000000000000000000000000000000000000000000001",
                        "key": "0x755818644af1459066ce2fd5b51df44c8e2b22c83af6bccae19a285d5fd0ae6b",
                        "prev": "0x0000000000000000000000000000000000000000000000000000000000000000"
                    },
                    {
                        "current": "0x0000000000000000000000000000000000000000000000010000000000000001",
                        "key": "0xedb2fe8385ba1e3164ac1562747bd477a45faeda42180ea1db82a07101e54c35",
                        "prev": "0x0000000000000000000000000000000000000000000000000000000000000000"
                    },
                    {
                        "current": "0x000000020000000063a362fb517b24bff09475d3db6be2cada7cd95bc787e59f",
                        "key": "0xabd6e7cb50984ff9c2f3e18a2660c3353dadf4e3291deeb275dae2cd1e44fe05",
                        "prev": "0x0000000000000000000000000000000000000000000000000000000000000000"
                    },
                    {
                        "current": "0x0000000000000000000000000000000000000000000000000000000000000002",
                        "key": "0x0000000000000000000000000000000000000000000000000000000000000000",
                        "prev": "0x0000000000000000000000000000000000000000000000000000000000000001"
                    }
                ],
                "storageVariables": []
            },
            {
                "address": "0xd405f9908dec587a5ed77ea06760ea868f5de7c3",
                "erc": "ERC-20",
                "slots": [
                    {
                        "current": "0x0000000000000000000000000000000000000000000000000000000000000000",
                        "key": "0xbcc0674e5b476b7be0d403e1040e304fa6d8356953ec4969cc2e7a83d59b3a99",
                        "prev": "0x00000000000000000000000000000000000000000000002b5e3af16b18800000"
                    },
                    {
                        "current": "0x0000000000000000000000000000000000000000000001908a622e57b26e7a11",
                        "key": "0x02d338a688fd3367f41b4f67f1e7adf53cdadaf41652d3167ff552a91f84ed15",
                        "prev": "0x0000000000000000000000000000000000000000000001bbe89d1fc2caee7a11"
                    },
                    {
                        "current": "0x000000000000000000000000000000000000000000000056bc75e2d631000000",
                        "key": "0xb5a9811312940f85405341110d97e67f3a8a1fa3f0a343a2d33a629095264e15",
                        "prev": "0x00000000000000000000000000000000000000000000002b5e3af16b18800000"
                    }
                ],
                "storageVariables": [
                    {
                        "name": "_balances",
                        "type": "mapping(address => uint256)",
                        "value": {
                            "pairs": [
                                {
                                    "key": "0x2bbb25f387481f6c002e2c761ab237166e2dfd94",
                                    "value": {
                                        "current": "1600000000000000000000",
                                        "prev": "800000000000000000000",
                                        "typeTag": 1
                                    }
                                },
                                {
                                    "key": "0x517b24bff09475d3db6be2cada7cd95bc787e59f",
                                    "value": {
                                        "current": "7388669212962962962961",
                                        "prev": "8188669212962962962961",
                                        "typeTag": 1
                                    }
                                }
                            ],
                            "typeTag": 4
                        }
                    },
                    {
                        "name": "_allowances",
                        "type": "mapping(address => mapping(address => uint256))",
                        "value": {
                            "pairs": [
                                {
                                    "key": "0x517b24bff09475d3db6be2cada7cd95bc787e59f",
                                    "value": {
                                        "pairs": [
                                            {
                                                "key": "0x2bbb25f387481f6c002e2c761ab237166e2dfd94",
                                                "value": {
                                                    "current": "0",
                                                    "prev": "800000000000000000000",
                                                    "typeTag": 1
                                                }
                                            }
                                        ],
                                        "typeTag": 4
                                    }
                                }
                            ],
                            "typeTag": 4
                        }
                    }
                ]
            }
        ]
    }
}