{
    "balance_change": {
        "balanceChanges": [
            {
                "account": "0xa1bfc2bb2e3ca408327ae906f75f274e9513847e",
                "assets": [
                    {
                        "address": "0x63faa59b3baf83f48b671957007aa6cee0e53680",
                        "amount": "4,020.499999999999999998",
                        "iconUrl": "",
                        "isERC1155": false,
                        "isERC721": false,
                        "sign": true,
                        "value": ""
                    }
                ]
            },
            {
                "account": "0x0000000000000000000000000000000000000000",
                "assets": [
                    {
                        "address": "0x63faa59b3baf83f48b671957007aa6cee0e53680",
                        "amount": "4,020.499999999999999998",
                        "iconUrl": "",
                        "isERC1155": false,
                        "isERC721": false,
                        "sign": false,
                        "value": ""
                    }
                ]
            }
        ]
    },
    "profile": {
        "basic_info": {
            "baseFee": "83.866361141",
            "blockNumber": 14105899,
            "callData": "0xdfeef91b0000000000000000000000000000000000000000000000000000000000000060000000000000000000000000000000000000000000000000000000000000000000000000000000000000000000000000000000000000000000000000000000000000000000000000000000000000000000000000000000000000000000000008000000000000000000000000000000000000000000000000000000000000306a000000000000000000000000000000000000000000000000000000000000306b000000000000000000000000000000000000000000000000000000000000306c00000000000000000000000000000000000000000000000000000000000030b800000000000000000000000000000000000000000000000000000000000030b900000000000000000000000000000000000000000000000000000000000030ba00000000000000000000000000000000000000000000000000000000000030bb00000000000000000000000000000000000000000000000000000000000030bc",
            "debugEnable": true,
            "errorInfo": "",
            "eventCount": 9,
            "feeRecipient": "0x829bd824b016326a401d083b33d092293333a830",
            "formatValue": "0",
            "gasLimit": 461577,
            "gasPrice": "84.866361141",
            "gasUsed": 298437,
            "intTxnCount": 42,
            "internalRevert": false,
            "internalRevertMessage": "",
            "isContractCreation": false,
            "isFlashloan": false,
            "maxFee": "85.533029121",
            "nonce": 198,
            "overwritedBlockNumber": -1,
            "priorityFee": "1",
            "receiver": "0xdf71efbe6b66cf9d68cc875b91124f7d666526cf",
            "revertMessage": "",
            "sender": "0xa1bfc2bb2e3ca408327ae906f75f274e9513847e",
            "simulationEnable": true,
            "sourceTxnHash": "0x03a91302b398b84ad642bd72e4e0cb8bab679330a752b0e57e6e1d70b8a23dc9",
            "status": true,
            "timestamp": "2022-01-30T07:53:02Z",
            "transactionFee": "0.025327262219836617",
            "txnHash": "0x03a91302b398b84ad642bd72e4e0cb8bab679330a752b0e57e6e1d70b8a23dc9",
            "txnIndex": 99,
            "type": 2,
            "value": "0"
        },
        "fund_flow": [
            {
                "amount": "4,020.499999999999999998",
                "from": "0x0000000000000000000000000000000000000000",
                "id": 1,
                "isERC1155": false,
                "isERC721": false,
                "isReverted": false,
                "order": 1,
                "to": "0xa1bfc2bb2e3ca408327ae906f75f274e9513847e",
                "token": "0x63faa59b3baf83f48b671957007aa6cee0e53680"
            }
        ],
        "token_infos": [
            {
                "address": "0x63faa59b3baf83f48b671957007aa6cee0e53680",
                "decimals": 18
            },
            {
                "address": "0xc02aaa39b223fe8d0a0e5c4f27ead9083c756cc2",
                "decimals": 18
            },
            {
                "address": "0xeeeeeeeeeeeeeeeeeeeeeeeeeeeeeeeeeeeeeeee",
                "decimals": 18
            }
        ]
    },
    "address_label": {
        "labels": [
            {
                "address": "0x63faa59b3baf83f48b671957007aa6cee0e53680",
                "label": "gHEAD (GHEAD)"
            },
            {
                "address": "0x4848e202198338dd378d86d27209059570bf65e3",
                "label": "MintContract"
            },
            {
                "address": "0xdf71efbe6b66cf9d68cc875b91124f7d666526cf",
                "label": "0xdf71_TransparentUpgradeableProxy"
            },
            {
                "address": "0xcaca4e4c9f62760738d04bec350f7d83aea38e5d",
                "label": "Head Game: HG Token"
            },
            {
                "address": "0x0000000000000000000000000000000000000002",
                "label": "Precompiled"
            },
            {
                "address": "0x78cb1769052fd44a10b3c297137c590681975806",
                "label": "stakingContract"
            },
            {
                "address": "0xd9adfb845ce1c690f53a6d6390fc20dae0953ed1",
                "label": "0xd9ad_TransparentUpgradeableProxy"
            },
            {
                "address": "0xeeeeeeeeeeeeeeeeeeeeeeeeeeeeeeeeeeeeeeee",
                "label": "Ether"
            },
            {
                "address": "0xfc01a9c57f793f9ce4a1f4bd678ddeab14c3e130",
                "label": "Head DAO: Staking"
            },
            {
                "address": "0x4f07bbb336c6af9d6cbda883c9be4d2a0234c010",
                "label": "paymentContract"
            },
            {
                "address": "0x0000000000000000000000000000000000000001",
                "label": "Precompiled"
            },
            {
                "address": "0x0000000000000000000000000000000000000003",
                "label": "Precompiled"
            },
            {
                "address": "0x0000000000000000000000000000000000000004",
                "label": "Precompiled"
            }
        ]
    },
    "trace": {
        "accountLabels": null,
        "dataMap": {
            "-1": {
                "invocation": {
                    "address": "0xa1bfc2bb2e3ca408327ae906f75f274e9513847e",
                    "callData": "",
                    "decodedMethod": null,
                    "errorInfo": "",
                    "fromAddress": "",
                    "gasUsed": 0,
                    "id": -1,
                    "methodDecoded": false,
                    "operation": "",
                    "output": "",
                    "revert": false,
                    "revertMessage": "",
                    "selector": "",
                    "status": false,
                    "value": ""
                },
                "nodeType": 0
            },
            "0": {
                "invocation": {
                    "address": "0xdf71efbe6b66cf9d68cc875b91124f7d666526cf",
                    "callData": "0x0000000000000000000000000000000000000000000000000000000000000060000000000000000000000000000000000000000000000000000000000000000000000000000000000000000000000000000000000000000000000000000000000000000000000000000000000000000000000000000000000000000000000008000000000000000000000000000000000000000000000000000000000000306a000000000000000000000000000000000000000000000000000000000000306b000000000000000000000000000000000000000000000000000000000000306c00000000000000000000000000000000000000000000000000000000000030b800000000000000000000000000000000000000000000000000000000000030b900000000000000000000000000000000000000000000000000000000000030ba00000000000000000000000000000000000000000000000000000000000030bb00000000000000000000000000000000000000000000000000000000000030bc",
                    "decodedMethod": {
                        "callParams": [
                            {
                                "name": "tokenIds",
                                "type": "uint16[]",
                                "value": [
                                    "12,394",
                                    "12,395",
                                    "12,396",
                                    "12,472",
                                    "12,473",
                                    "12,474",
                                    "12,475",
                                    "12,476"
                                ]
                            },
                            {
                                "name": "unstake",
                                "type": "bool",
                                "value": false
                            },
                            {
                                "name": "payKings",
                                "type": "bool",
                                "value": false
                            }
                        ],
                        "constructorArguments": "",
                        "name": "claimFromStaking",
                        "returnParams": [],
                        "signature": "claimFromStaking(uint16[],bool,bool)"
                    },
                    "errorInfo": "",
                    "fromAddress": "0xa1bfc2bb2e3ca408327ae906f75f274e9513847e",
                    "gasUsed": 298437,
                    "id": 0,
                    "methodDecoded": true,
                    "operation": "CALL",
                    "output": "",
                    "revert": false,
                    "revertMessage": "",
                    "selector": "0xdfeef91b",
                    "status": true,
                    "value": "0"
                },
                "nodeType": 0
            },
            "1": {
                "invocation": {
                    "address": "0x78cb1769052fd44a10b3c297137c590681975806",
                    "callData": "0x0000000000000000000000000000000000000000000000000000000000000060000000000000000000000000000000000000000000000000000000000000000000000000000000000000000000000000000000000000000000000000000000000000000000000000000000000000000000000000000000000000000000000008000000000000000000000000000000000000000000000000000000000000306a000000000000000000000000000000000000000000000000000000000000306b000000000000000000000000000000000000000000000000000000000000306c00000000000000000000000000000000000000000000000000000000000030b800000000000000000000000000000000000000000000000000000000000030b900000000000000000000000000000000000000000000000000000000000030ba00000000000000000000000000000000000000000000000000000000000030bb00000000000000000000000000000000000000000000000000000000000030bc",
                    "decodedMethod": {
                        "callParams": [
                            {
                                "name": "tokenIds",
                                "type": "uint16[]",
                                "value": [
                                    "12,394",
                                    "12,395",
                                    "12,396",
                                    "12,472",
                                    "12,473",
                                    "12,474",
                                    "12,475",
                                    "12,476"
                                ]
                            },
                            {
                                "name": "unstake",
                                "type": "bool",
                                "value": false
                            },
                            {
                                "name": "payKings",
                                "type": "bool",
                                "value": false
                            }
                        ],
                        "constructorArguments": "",
                        "name": "claimFromStaking",
                        "returnParams": [],
                        "signature": "claimFromStaking(uint16[],bool,bool)"
                    },
                    "errorInfo": "",
                    "fromAddress": "0xdf71efbe6b66cf9d68cc875b91124f7d666526cf",
                    "gasUsed": 271030,
                    "id": 1,
                    "methodDecoded": true,
                    "operation": "DELEGATECALL",
                    "output": "",
                    "revert": false,
                    "revertMessage": "",
                    "selector": "0xdfeef91b",
                    "status": true,
                    "value": "0"
                },
                "nodeType": 0
            },
            "10": {
                "invocation": {
                    "address": "0xd9adfb845ce1c690f53a6d6390fc20dae0953ed1",
                    "callData": "0x000000000000000000000000000000000000000000000000000000000000306b",
                    "decodedMethod": {
                        "callParams": [
                            {
                                "name": "tokenId",
                                "type": "uint256",
                                "value": "12,395"
                            }
                        ],
                        "constructorArguments": "",
                        "name": "get_seed",
                        "returnParams": [
                            {
                                "name": "",
                                "type": "uint256",
                                "value": "103,816,037,813,058,753,992,546,179,603,884,200,138,266,129,285,830,138,843,109,643,308,743,371,866,929"
                            }
                        ],
                        "signature": "get_seed(uint256)"
                    },
                    "errorInfo": "",
                    "fromAddress": "0xcaca4e4c9f62760738d04bec350f7d83aea38e5d",
                    "gasUsed": 3964,
                    "id": 10,
                    "methodDecoded": true,
                    "operation": "STATICCALL",
                    "output": "0xe585cb8bf642a59f5f3d0e2387f4c31558d61639c0cb375b38a205fb62094331",
                    "revert": false,
                    "revertMessage": "",
                    "selector": "0x96416bb2",
                    "status": true,
                    "value": "0"
                },
                "nodeType": 0
            },
            "11": {
                "invocation": {
                    "address": "0x4f07bbb336c6af9d6cbda883c9be4d2a0234c010",
                    "callData": "0x000000000000000000000000000000000000000000000000000000000000306b",
                    "decodedMethod": {
                        "callParams": [
                            {
                                "name": "tokenId",
                                "type": "uint256",
                                "value": "12,395"
                            }
                        ],
                        "constructorArguments": "",
                        "name": "get_seed",
                        "returnParams": [
                            {
                                "name": "",
                                "type": "uint256",
                                "value": "103,816,037,813,058,753,992,546,179,603,884,200,138,266,129,285,830,138,843,109,643,308,743,371,866,929"
                            }
                        ],
                        "signature": "get_seed(uint256)"
                    },
                    "errorInfo": "",
                    "fromAddress": "0xd9adfb845ce1c690f53a6d6390fc20dae0953ed1",
                    "gasUsed": 3133,
                    "id": 11,
                    "methodDecoded": true,
                    "operation": "DELEGATECALL",
                    "output": "0xe585cb8bf642a59f5f3d0e2387f4c31558d61639c0cb375b38a205fb62094331",
                    "revert": false,
                    "revertMessage": "",
                    "selector": "0x96416bb2",
                    "status": true,
                    "value": "0"
                },
                "nodeType": 0
            },
            "12": {
                "invocation": {
                    "address": "0xfc01a9c57f793f9ce4a1f4bd678ddeab14c3e130",
                    "callData": "0x000000000000000000000000a1bfc2bb2e3ca408327ae906f75f274e9513847e",
                    "decodedMethod": {
                        "callParams": [
                            {
                                "name": "account",
                                "type": "address",
                                "value": "0xa1bfc2bb2e3ca408327ae906f75f274e9513847e"
                            }
                        ],
                        "constructorArguments": "",
                        "name": "depositsOf",
                        "returnParams": [
                            {
                                "name": "",
                                "type": "uint256[]",
                                "value": [
                                    "1,357",
                                    "447",
                                    "1,051"
                                ]
                            }
                        ],
                        "signature": "depositsOf(address)"
                    },
                    "errorInfo": "",
                    "fromAddress": "0xdf71efbe6b66cf9d68cc875b91124f7d666526cf",
                    "gasUsed": 3610,
                    "id": 12,
                    "methodDecoded": true,
                    "operation": "STATICCALL",
                    "output": "0x00000000000000000000000000000000000000000000000000000000000000200000000000000000000000000000000000000000000000000000000000000003000000000000000000000000000000000000000000000000000000000000054d00000000000000000000000000000000000000000000000000000000000001bf000000000000000000000000000000000000000000000000000000000000041b",
                    "revert": false,
                    "revertMessage": "",
                    "selector": "0xe3a9db1a",
                    "status": true,
                    "value": "0"
                },
                "nodeType": 0
            },
            "13": {
                "event": {
                    "contract": "0xdf71efbe6b66cf9d68cc875b91124f7d666526cf",
                    "decodedLog": {
                        "name": "HeadClaimed",
                        "params": [
                            {
                                "name": "tokenId",
                                "type": "uint256",
                                "value": "12,395"
                            },
                            {
                                "name": "earned",
                                "type": "uint256",
                                "value": "670,083,333,333,333,333,333"
                            },
                            {
                                "name": "unstaked",
                                "type": "bool",
                                "value": false
                            }
                        ],
                        "signature": "HeadClaimed(uint256,uint256,bool)"
                    },
                    "id": 13,
                    "logData": "0x000000000000000000000000000000000000000000000000000000000000306b00000000000000000000000000000000000000000000002453463969bb0055550000000000000000000000000000000000000000000000000000000000000000",
                    "logDecoded": true,
                    "operation": "EVENT",
                    "revert": false,
                    "status": true,
                    "topics": [
                        "0xb07a7c84badacf6c35c1af1e5b1b7fe78b3598af4e9479f13c7c9dfa7c7e5333"
                    ]
                },
                "nodeType": 1
            },
            "14": {
                "invocation": {
                    "address": "0xcaca4e4c9f62760738d04bec350f7d83aea38e5d",
                    "callData": "0x000000000000000000000000000000000000000000000000000000000000306c",
                    "decodedMethod": {
                        "callParams": [
                            {
                                "name": "tokenId",
                                "type": "uint256",
                                "value": "12,396"
                            }
                        ],
                        "constructorArguments": "",
                        "name": "getTokenTraits",
                        "returnParams": [
                            {
                                "name": "",
                                "type": "bool",
                                "value": true
                            }
                        ],
                        "signature": "getTokenTraits(uint256)"
                    },
                    "errorInfo": "",
                    "fromAddress": "0xdf71efbe6b66cf9d68cc875b91124f7d666526cf",
                    "gasUsed": 6193,
                    "id": 14,
                    "methodDecoded": true,
                    "operation": "STATICCALL",
                    "output": "0x0000000000000000000000000000000000000000000000000000000000000001",
                    "revert": false,
                    "revertMessage": "",
                    "selector": "0x94e56847",
                    "status": true,
                    "value": "0"
                },
                "nodeType": 0
            },
            "15": {
                "invocation": {
                    "address": "0x4848e202198338dd378d86d27209059570bf65e3",
                    "callData": "0x000000000000000000000000000000000000000000000000000000000000306c",
                    "decodedMethod": {
                        "callParams": [
                            {
                                "name": "tokenId",
                                "type": "uint256",
                                "value": "12,396"
                            }
                        ],
                        "constructorArguments": "",
                        "name": "getTokenTraits",
                        "returnParams": [
                            {
                                "name": "",
                                "type": "bool",
                                "value": true
                            }
                        ],
                        "signature": "getTokenTraits(uint256)"
                    },
                    "errorInfo": "",
                    "fromAddress": "0xcaca4e4c9f62760738d04bec350f7d83aea38e5d",
                    "gasUsed": 5362,
                    "id": 15,
                    "methodDecoded": true,
                    "operation": "DELEGATECALL",
                    "output": "0x0000000000000000000000000000000000000000000000000000000000000001",
                    "revert": false,
                    "revertMessage": "",
                    "selector": "0x94e56847",
                    "status": true,
                    "value": "0"
                },
                "nodeType": 0
            },
            "16": {
                "invocation": {
                    "address": "0xd9adfb845ce1c690f53a6d6390fc20dae0953ed1",
                    "callData": "0x000000000000000000000000000000000000000000000000000000000000306c",
                    "decodedMethod": {
                        "callParams": [
                            {
                                "name": "tokenId",
                                "type": "uint256",
                                "value": "12,396"
                            }
                        ],
                        "constructorArguments": "",
                        "name": "get_seed",
                        "returnParams": [
                            {
                                "name": "",
                                "type": "uint256",
                                "value": "103,816,037,813,058,753,992,546,179,603,884,200,138,266,129,285,830,138,843,109,643,308,743,371,866,929"
                            }
                        ],
                        "signature": "get_seed(uint256)"
                    },
                    "errorInfo": "",
                    "fromAddress": "0xcaca4e4c9f62760738d04bec350f7d83aea38e5d",
                    "gasUsed": 3964,
                    "id": 16,
                    "methodDecoded": true,
                    "operation": "STATICCALL",
                    "output": "0xe585cb8bf642a59f5f3d0e2387f4c31558d61639c0cb375b38a205fb62094331",
                    "revert": false,
                    "revertMessage": "",
                    "selector": "0x96416bb2",
                    "status": true,
                    "value": "0"
                },
                "nodeType": 0
            },
            "17": {
                "invocation": {
                    "address": "0x4f07bbb336c6af9d6cbda883c9be4d2a0234c010",
                    "callData": "0x000000000000000000000000000000000000000000000000000000000000306c",
                    "decodedMethod": {
                        "callParams": [
                            {
                                "name": "tokenId",
                                "type": "uint256",
                                "value": "12,396"
                            }
                        ],
                        "constructorArguments": "",
                        "name": "get_seed",
                        "returnParams": [
                            {
                                "name": "",
                                "type": "uint256",
                                "value": "103,816,037,813,058,753,992,546,179,603,884,200,138,266,129,285,830,138,843,109,643,308,743,371,866,929"
                            }
                        ],
                        "signature": "get_seed(uint256)"
                    },
                    "errorInfo": "",
                    "fromAddress": "0xd9adfb845ce1c690f53a6d6390fc20dae0953ed1",
                    "gasUsed": 3133,
                    "id": 17,
                    "methodDecoded": true,
                    "operation": "DELEGATECALL",
                    "output": "0xe585cb8bf642a59f5f3d0e2387f4c31558d61639c0cb375b38a205fb62094331",
                    "revert": false,
                    "revertMessage": "",
                    "selector": "0x96416bb2",
                    "status": true,
                    "value": "0"
                },
                "nodeType": 0
            },
            "18": {
                "invocation": {
                    "address": "0xfc01a9c57f793f9ce4a1f4bd678ddeab14c3e130",
                    "callData": "0x000000000000000000000000a1bfc2bb2e3ca408327ae906f75f274e9513847e",
                    "decodedMethod": {
                        "callParams": [
                            {
                                "name": "account",
                                "type": "address",
                                "value": "0xa1bfc2bb2e3ca408327ae906f75f274e9513847e"
                            }
                        ],
                        "constructorArguments": "",
                        "name": "depositsOf",
                        "returnParams": [
                            {
                                "name": "",
                                "type": "uint256[]",
                                "value": [
                                    "1,357",
                                    "447",
                                    "1,051"
                                ]
                            }
                        ],
                        "signature": "depositsOf(address)"
                    },
                    "errorInfo": "",
                    "fromAddress": "0xdf71efbe6b66cf9d68cc875b91124f7d666526cf",
                    "gasUsed": 3610,
                    "id": 18,
                    "methodDecoded": true,
                    "operation": "STATICCALL",
                    "output": "0x00000000000000000000000000000000000000000000000000000000000000200000000000000000000000000000000000000000000000000000000000000003000000000000000000000000000000000000000000000000000000000000054d00000000000000000000000000000000000000000000000000000000000001bf000000000000000000000000000000000000000000000000000000000000041b",
                    "revert": false,
                    "revertMessage": "",
                    "selector": "0xe3a9db1a",
                    "status": true,
                    "value": "0"
                },
                "nodeType": 0
            },
            "19": {
                "event": {
                    "contract": "0xdf71efbe6b66cf9d68cc875b91124f7d666526cf",
                    "decodedLog": {
                        "name": "HeadClaimed",
                        "params": [
                            {
                                "name": "tokenId",
                                "type": "uint256",
                                "value": "12,396"
                            },
                            {
                                "name": "earned",
                                "type": "uint256",
                                "value": "670,083,333,333,333,333,333"
                            },
                            {
                                "name": "unstaked",
                                "type": "bool",
                                "value": false
                            }
                        ],
                        "signature": "HeadClaimed(uint256,uint256,bool)"
                    },
                    "id": 19,
                    "logData": "0x000000000000000000000000000000000000000000000000000000000000306c00000000000000000000000000000000000000000000002453463969bb0055550000000000000000000000000000000000000000000000000000000000000000",
                    "logDecoded": true,
                    "operation": "EVENT",
                    "revert": false,
                    "status": true,
                    "topics": [
                        "0xb07a7c84badacf6c35c1af1e5b1b7fe78b3598af4e9479f13c7c9dfa7c7e5333"
                    ]
                },
                "nodeType": 1
            },
            "2": {
                "invocation": {
                    "address": "0xcaca4e4c9f62760738d04bec350f7d83aea38e5d",
                    "callData": "0x000000000000000000000000000000000000000000000000000000000000306a",
                    "decodedMethod": {
                        "callParams": [
                            {
                                "name": "tokenId",
                                "type": "uint256",
                                "value": "12,394"
                            }
                        ],
                        "constructorArguments": "",
                        "name": "getTokenTraits",
                        "returnParams": [
                            {
                                "name": "",
                                "type": "bool",
                                "value": true
                            }
                        ],
                        "signature": "getTokenTraits(uint256)"
                    },
                    "errorInfo": "",
                    "fromAddress": "0xdf71efbe6b66cf9d68cc875b91124f7d666526cf",
                    "gasUsed": 29693,
                    "id": 2,
                    "methodDecoded": true,
                    "operation": "STATICCALL",
                    "output": "0x0000000000000000000000000000000000000000000000000000000000000001",
                    "revert": false,
                    "revertMessage": "",
                    "selector": "0x94e56847",
                    "status": true,
                    "value": "0"
                },
                "nodeType": 0
            },
            "20": {
                "invocation": {
                    "address": "0xcaca4e4c9f62760738d04bec350f7d83aea38e5d",
                    "callData": "0x00000000000000000000000000000000000000000000000000000000000030b8",
                    "decodedMethod": {
                        "callParams": [
                            {
                                "name": "tokenId",
                                "type": "uint256",
                                "value": "12,472"
                            }
                        ],
                        "constructorArguments": "",
                        "name": "getTokenTraits",
                        "returnParams": [
                            {
                                "name": "",
                                "type": "bool",
                                "value": true
                            }
                        ],
                        "signature": "getTokenTraits(uint256)"
                    },
                    "errorInfo": "",
                    "fromAddress": "0xdf71efbe6b66cf9d68cc875b91124f7d666526cf",
                    "gasUsed": 8193,
                    "id": 20,
                    "methodDecoded": true,
                    "operation": "STATICCALL",
                    "output": "0x0000000000000000000000000000000000000000000000000000000000000001",
                    "revert": false,
                    "revertMessage": "",
                    "selector": "0x94e56847",
                    "status": true,
                    "value": "0"
                },
                "nodeType": 0
            },
            "21": {
                "invocation": {
                    "address": "0x4848e202198338dd378d86d27209059570bf65e3",
                    "callData": "0x00000000000000000000000000000000000000000000000000000000000030b8",
                    "decodedMethod": {
                        "callParams": [
                            {
                                "name": "tokenId",
                                "type": "uint256",
                                "value": "12,472"
                            }
                        ],
                        "constructorArguments": "",
                        "name": "getTokenTraits",
                        "returnParams": [
                            {
                                "name": "",
                                "type": "bool",
                                "value": true
                            }
                        ],
                        "signature": "getTokenTraits(uint256)"
                    },
                    "errorInfo": "",
                    "fromAddress": "0xcaca4e4c9f62760738d04bec350f7d83aea38e5d",
                    "gasUsed": 7362,
                    "id": 21,
                    "methodDecoded": true,
                    "operation": "DELEGATECALL",
                    "output": "0x0000000000000000000000000000000000000000000000000000000000000001",
                    "revert": false,
                    "revertMessage": "",
                    "selector": "0x94e56847",
                    "status": true,
                    "value": "0"
                },
                "nodeType": 0
            },
            "22": {
                "invocation": {
                    "address": "0xd9adfb845ce1c690f53a6d6390fc20dae0953ed1",
                    "callData": "0x00000000000000000000000000000000000000000000000000000000000030b8",
                    "decodedMethod": {
                        "callParams": [
                            {
                                "name": "tokenId",
                                "type": "uint256",
                                "value": "12,472"
                            }
                        ],
                        "constructorArguments": "",
                        "name": "get_seed",
                        "returnParams": [
                            {
                                "name": "",
                                "type": "uint256",
                                "value": "51,127,367,344,316,666,119,304,947,107,779,426,617,498,486,279,019,522,600,653,212,262,168,929,026,242"
                            }
                        ],
                        "signature": "get_seed(uint256)"
                    },
                    "errorInfo": "",
                    "fromAddress": "0xcaca4e4c9f62760738d04bec350f7d83aea38e5d",
                    "gasUsed": 5964,
                    "id": 22,
                    "methodDecoded": true,
                    "operation": "STATICCALL",
                    "output": "0x7109107e384e60140a386f669e31cd12a2a8a3efd6ccd15cbd2b1b4c6d58c0c2",
                    "revert": false,
                    "revertMessage": "",
                    "selector": "0x96416bb2",
                    "status": true,
                    "value": "0"
                },
                "nodeType": 0
            },
            "23": {
                "invocation": {
                    "address": "0x4f07bbb336c6af9d6cbda883c9be4d2a0234c010",
                    "callData": "0x00000000000000000000000000000000000000000000000000000000000030b8",
                    "decodedMethod": {
                        "callParams": [
                            {
                                "name": "tokenId",
                                "type": "uint256",
                                "value": "12,472"
                            }
                        ],
                        "constructorArguments": "",
                        "name": "get_seed",
                        "returnParams": [
                            {
                                "name": "",
                                "type": "uint256",
                                "value": "51,127,367,344,316,666,119,304,947,107,779,426,617,498,486,279,019,522,600,653,212,262,168,929,026,242"
                            }
                        ],
                        "signature": "get_seed(uint256)"
                    },
                    "errorInfo": "",
                    "fromAddress": "0xd9adfb845ce1c690f53a6d6390fc20dae0953ed1",
                    "gasUsed": 5133,
                    "id": 23,
                    "methodDecoded": true,
                    "operation": "DELEGATECALL",
                    "output": "0x7109107e384e60140a386f669e31cd12a2a8a3efd6ccd15cbd2b1b4c6d58c0c2",
                    "revert": false,
                    "revertMessage": "",
                    "selector": "0x96416bb2",
                    "status": true,
                    "value": "0"
                },
                "nodeType": 0
            },
            "24": {
                "invocation": {
                    "address": "0xfc01a9c57f793f9ce4a1f4bd678ddeab14c3e130",
                    "callData": "0x000000000000000000000000a1bfc2bb2e3ca408327ae906f75f274e9513847e",
                    "decodedMethod": {
                        "callParams": [
                            {
                                "name": "account",
                                "type": "address",
                                "value": "0xa1bfc2bb2e3ca408327ae906f75f274e9513847e"
                            }
                        ],
                        "constructorArguments": "",
                        "name": "depositsOf",
                        "returnParams": [
                            {
                                "name": "",
                                "type": "uint256[]",
                                "value": [
                                    "1,357",
                                    "447",
                                    "1,051"
                                ]
                            }
                        ],
                        "signature": "depositsOf(address)"
                    },
                    "errorInfo": "",
                    "fromAddress": "0xdf71efbe6b66cf9d68cc875b91124f7d666526cf",
                    "gasUsed": 3610,
                    "id": 24,
                    "methodDecoded": true,
                    "operation": "STATICCALL",
                    "output": "0x00000000000000000000000000000000000000000000000000000000000000200000000000000000000000000000000000000000000000000000000000000003000000000000000000000000000000000000000000000000000000000000054d00000000000000000000000000000000000000000000000000000000000001bf000000000000000000000000000000000000000000000000000000000000041b",
                    "revert": false,
                    "revertMessage": "",
                    "selector": "0xe3a9db1a",
                    "status": true,
                    "value": "0"
                },
                "nodeType": 0
            },
            "25": {
                "event": {
                    "contract": "0xdf71efbe6b66cf9d68cc875b91124f7d666526cf",
                    "decodedLog": {
                        "name": "HeadClaimed",
                        "params": [
                            {
                                "name": "tokenId",
                                "type": "uint256",
                                "value": "12,472"
                            },
                            {
                                "name": "earned",
                                "type": "uint256",
                                "value": "670,083,333,333,333,333,333"
                            },
                            {
                                "name": "unstaked",
                                "type": "bool",
                                "value": false
                            }
                        ],
                        "signature": "HeadClaimed(uint256,uint256,bool)"
                    },
                    "id": 25,
                    "logData": "0x00000000000000000000000000000000000000000000000000000000000030b800000000000000000000000000000000000000000000002453463969bb0055550000000000000000000000000000000000000000000000000000000000000000",
                    "logDecoded": true,
                    "operation": "EVENT",
                    "revert": false,
                    "status": true,
                    "topics": [
                        "0xb07a7c84badacf6c35c1af1e5b1b7fe78b3598af4e9479f13c7c9dfa7c7e5333"
                    ]
                },
                "nodeType": 1
            },
            "26": {
                "invocation": {
                    "address": "0xcaca4e4c9f62760738d04bec350f7d83aea38e5d",
                    "callData": "0x00000000000000000000000000000000000000000000000000000000000030b9",
                    "decodedMethod": {
                        "callParams": [
                            {
                                "name": "tokenId",
                                "type": "uint256",
                                "value": "12,473"
                            }
                        ],
                        "constructorArguments": "",
                        "name": "getTokenTraits",
                        "returnParams": [
                            {
                                "name": "",
                                "type": "bool",
                                "value": true
                            }
                        ],
                        "signature": "getTokenTraits(uint256)"
                    },
                    "errorInfo": "",
                    "fromAddress": "0xdf71efbe6b66cf9d68cc875b91124f7d666526cf",
                    "gasUsed": 6193,
                    "id": 26,
                    "methodDecoded": true,
                    "operation": "STATICCALL",
                    "output": "0x0000000000000000000000000000000000000000000000000000000000000001",
                    "revert": false,
                    "revertMessage": "",
                    "selector": "0x94e56847",
                    "status": true,
                    "value": "0"
                },
                "nodeType": 0
            },
            "27": {
                "invocation": {
                    "address": "0x4848e202198338dd378d86d27209059570bf65e3",
                    "callData": "0x00000000000000000000000000000000000000000000000000000000000030b9",
                    "decodedMethod": {
                        "callParams": [
                            {
                                "name": "tokenId",
                                "type": "uint256",
                                "value": "12,473"
                            }
                        ],
                        "constructorArguments": "",
                        "name": "getTokenTraits",
                        "returnParams": [
                            {
                                "name": "",
                                "type": "bool",
                                "value": true
                            }
                        ],
                        "signature": "getTokenTraits(uint256)"
                    },
                    "errorInfo": "",
                    "fromAddress": "0xcaca4e4c9f62760738d04bec350f7d83aea38e5d",
                    "gasUsed": 5362,
                    "id": 27,
                    "methodDecoded": true,
                    "operation": "DELEGATECALL",
                    "output": "0x0000000000000000000000000000000000000000000000000000000000000001",
                    "revert": false,
                    "revertMessage": "",
                    "selector": "0x94e56847",
                    "status": true,
                    "value": "0"
                },
                "nodeType": 0
            },
            "28": {
                "invocation": {
                    "address": "0xd9adfb845ce1c690f53a6d6390fc20dae0953ed1",
                    "callData": "0x00000000000000000000000000000000000000000000000000000000000030b9",
                    "decodedMethod": {
                        "callParams": [
                            {
                                "name": "tokenId",
                                "type": "uint256",
                                "value": "12,473"
                            }
                        ],
                        "constructorArguments": "",
                        "name": "get_seed",
                        "returnParams": [
                            {
                                "name": "",
                                "type": "uint256",
                                "value": "51,127,367,344,316,666,119,304,947,107,779,426,617,498,486,279,019,522,600,653,212,262,168,929,026,242"
                            }
                        ],
                        "signature": "get_seed(uint256)"
                    },
                    "errorInfo": "",
                    "fromAddress": "0xcaca4e4c9f62760738d04bec350f7d83aea38e5d",
                    "gasUsed": 3964,
                    "id": 28,
                    "methodDecoded": true,
                    "operation": "STATICCALL",
                    "output": "0x7109107e384e60140a386f669e31cd12a2a8a3efd6ccd15cbd2b1b4c6d58c0c2",
                    "revert": false,
                    "revertMessage": "",
                    "selector": "0x96416bb2",
                    "status": true,
                    "value": "0"
                },
                "nodeType": 0
            },
            "29": {
                "invocation": {
                    "address": "0x4f07bbb336c6af9d6cbda883c9be4d2a0234c010",
                    "callData": "0x00000000000000000000000000000000000000000000000000000000000030b9",
                    "decodedMethod": {
                        "callParams": [
                            {
                                "name": "tokenId",
                                "type": "uint256",
                                "value": "12,473"
                            }
                        ],
                        "constructorArguments": "",
                        "name": "get_seed",
                        "returnParams": [
                            {
                                "name": "",
                                "type": "uint256",
                                "value": "51,127,367,344,316,666,119,304,947,107,779,426,617,498,486,279,019,522,600,653,212,262,168,929,026,242"
                            }
                        ],
                        "signature": "get_seed(uint256)"
                    },
                    "errorInfo": "",
                    "fromAddress": "0xd9adfb845ce1c690f53a6d6390fc20dae0953ed1",
                    "gasUsed": 3133,
                    "id": 29,
                    "methodDecoded": true,
                    "operation": "DELEGATECALL",
                    "output": "0x7109107e384e60140a386f669e31cd12a2a8a3efd6ccd15cbd2b1b4c6d58c0c2",
                    "revert": false,
                    "revertMessage": "",
                    "selector": "0x96416bb2",
                    "status": true,
                    "value": "0"
                },
                "nodeType": 0
            },
            "3": {
                "invocation": {
                    "address": "0x4848e202198338dd378d86d27209059570bf65e3",
                    "callData": "0x000000000000000000000000000000000000000000000000000000000000306a",
                    "decodedMethod": {
                        "callParams": [
                            {
                                "name": "tokenId",
                                "type": "uint256",
                                "value": "12,394"
                            }
                        ],
                        "constructorArguments": "",
                        "name": "getTokenTraits",
                        "returnParams": [
                            {
                                "name": "",
                                "type": "bool",
                                "value": true
                            }
                        ],
                        "signature": "getTokenTraits(uint256)"
                    },
                    "errorInfo": "",
                    "fromAddress": "0xcaca4e4c9f62760738d04bec350f7d83aea38e5d",
                    "gasUsed": 22362,
                    "id": 3,
                    "methodDecoded": true,
                    "operation": "DELEGATECALL",
                    "output": "0x0000000000000000000000000000000000000000000000000000000000000001",
                    "revert": false,
                    "revertMessage": "",
                    "selector": "0x94e56847",
                    "status": true,
                    "value": "0"
                },
                "nodeType": 0
            },
            "30": {
                "invocation": {
                    "address": "0xfc01a9c57f793f9ce4a1f4bd678ddeab14c3e130",
                    "callData": "0x000000000000000000000000a1bfc2bb2e3ca408327ae906f75f274e9513847e",
                    "decodedMethod": {
                        "callParams": [
                            {
                                "name": "account",
                                "type": "address",
                                "value": "0xa1bfc2bb2e3ca408327ae906f75f274e9513847e"
                            }
                        ],
                        "constructorArguments": "",
                        "name": "depositsOf",
                        "returnParams": [
                            {
                                "name": "",
                                "type": "uint256[]",
                                "value": [
                                    "1,357",
                                    "447",
                                    "1,051"
                                ]
                            }
                        ],
                        "signature": "depositsOf(address)"
                    },
                    "errorInfo": "",
                    "fromAddress": "0xdf71efbe6b66cf9d68cc875b91124f7d666526cf",
                    "gasUsed": 3610,
                    "id": 30,
                    "methodDecoded": true,
                    "operation": "STATICCALL",
                    "output": "0x00000000000000000000000000000000000000000000000000000000000000200000000000000000000000000000000000000000000000000000000000000003000000000000000000000000000000000000000000000000000000000000054d00000000000000000000000000000000000000000000000000000000000001bf000000000000000000000000000000000000000000000000000000000000041b",
                    "revert": false,
                    "revertMessage": "",
                    "selector": "0xe3a9db1a",
                    "status": true,
                    "value": "0"
                },
                "nodeType": 0
            },
            "31": {
                "event": {
                    "contract": "0xdf71efbe6b66cf9d68cc875b91124f7d666526cf",
                    "decodedLog": {
                        "name": "HeadClaimed",
                        "params": [
                            {
                                "name": "tokenId",
                                "type": "uint256",
                                "value": "12,473"
                            },
                            {
                                "name": "earned",
                                "type": "uint256",
                                "value": "670,083,333,333,333,333,333"
                            },
                            {
                                "name": "unstaked",
                                "type": "bool",
                                "value": false
                            }
                        ],
                        "signature": "HeadClaimed(uint256,uint256,bool)"
                    },
                    "id": 31,
                    "logData": "0x00000000000000000000000000000000000000000000000000000000000030b900000000000000000000000000000000000000000000002453463969bb0055550000000000000000000000000000000000000000000000000000000000000000",
                    "logDecoded": true,
                    "operation": "EVENT",
                    "revert": false,
                    "status": true,
                    "topics": [
                        "0xb07a7c84badacf6c35c1af1e5b1b7fe78b3598af4e9479f13c7c9dfa7c7e5333"
                    ]
                },
                "nodeType": 1
            },
            "32": {
                "invocation": {
                    "address": "0xcaca4e4c9f62760738d04bec350f7d83aea38e5d",
                    "callData": "0x00000000000000000000000000000000000000000000000000000000000030ba",
                    "decodedMethod": {
                        "callParams": [
                            {
                                "name": "tokenId",
                                "type": "uint256",
                                "value": "12,474"
                            }
                        ],
                        "constructorArguments": "",
                        "name": "getTokenTraits",
                        "returnParams": [
                            {
                                "name": "",
                                "type": "bool",
                                "value": true
                            }
                        ],
                        "signature": "getTokenTraits(uint256)"
                    },
                    "errorInfo": "",
                    "fromAddress": "0xdf71efbe6b66cf9d68cc875b91124f7d666526cf",
                    "gasUsed": 6193,
                    "id": 32,
                    "methodDecoded": true,
                    "operation": "STATICCALL",
                    "output": "0x0000000000000000000000000000000000000000000000000000000000000001",
                    "revert": false,
                    "revertMessage": "",
                    "selector": "0x94e56847",
                    "status": true,
                    "value": "0"
                },
                "nodeType": 0
            },
            "33": {
                "invocation": {
                    "address": "0x4848e202198338dd378d86d27209059570bf65e3",
                    "callData": "0x00000000000000000000000000000000000000000000000000000000000030ba",
                    "decodedMethod": {
                        "callParams": [
                            {
                                "name": "tokenId",
                                "type": "uint256",
                                "value": "12,474"
                            }
                        ],
                        "constructorArguments": "",
                        "name": "getTokenTraits",
                        "returnParams": [
                            {
                                "name": "",
                                "type": "bool",
                                "value": true
                            }
                        ],
                        "signature": "getTokenTraits(uint256)"
                    },
                    "errorInfo": "",
                    "fromAddress": "0xcaca4e4c9f62760738d04bec350f7d83aea38e5d",
                    "gasUsed": 5362,
                    "id": 33,
                    "methodDecoded": true,
                    "operation": "DELEGATECALL",
                    "output": "0x0000000000000000000000000000000000000000000000000000000000000001",
                    "revert": false,
                    "revertMessage": "",
                    "selector": "0x94e56847",
                    "status": true,
                    "value": "0"
                },
                "nodeType": 0
            },
            "34": {
                "invocation": {
                    "address": "0xd9adfb845ce1c690f53a6d6390fc20dae0953ed1",
                    "callData": "0x00000000000000000000000000000000000000000000000000000000000030ba",
                    "decodedMethod": {
                        "callParams": [
                            {
                                "name": "tokenId",
                                "type": "uint256",
                                "value": "12,474"
                            }
                        ],
                        "constructorArguments": "",
                        "name": "get_seed",
                        "returnParams": [
                            {
                                "name": "",
                                "type": "uint256",
                                "value": "51,127,367,344,316,666,119,304,947,107,779,426,617,498,486,279,019,522,600,653,212,262,168,929,026,242"
                            }
                        ],
                        "signature": "get_seed(uint256)"
                    },
                    "errorInfo": "",
                    "fromAddress": "0xcaca4e4c9f62760738d04bec350f7d83aea38e5d",
                    "gasUsed": 3964,
                    "id": 34,
                    "methodDecoded": true,
                    "operation": "STATICCALL",
                    "output": "0x7109107e384e60140a386f669e31cd12a2a8a3efd6ccd15cbd2b1b4c6d58c0c2",
                    "revert": false,
                    "revertMessage": "",
                    "selector": "0x96416bb2",
                    "status": true,
                    "value": "0"
                },
                "nodeType": 0
            },
            "35": {
                "invocation": {
                    "address": "0x4f07bbb336c6af9d6cbda883c9be4d2a0234c010",
                    "callData": "0x00000000000000000000000000000000000000000000000000000000000030ba",
                    "decodedMethod": {
                        "callParams": [
                            {
                                "name": "tokenId",
                                "type": "uint256",
                                "value": "12,474"
                            }
                        ],
                        "constructorArguments": "",
                        "name": "get_seed",
                        "returnParams": [
                            {
                                "name": "",
                                "type": "uint256",
                                "value": "51,127,367,344,316,666,119,304,947,107,779,426,617,498,486,279,019,522,600,653,212,262,168,929,026,242"
                            }
                        ],
                        "signature": "get_seed(uint256)"
                    },
                    "errorInfo": "",
                    "fromAddress": "0xd9adfb845ce1c690f53a6d6390fc20dae0953ed1",
                    "gasUsed": 3133,
                    "id": 35,
                    "methodDecoded": true,
                    "operation": "DELEGATECALL",
                    "output": "0x7109107e384e60140a386f669e31cd12a2a8a3efd6ccd15cbd2b1b4c6d58c0c2",
                    "revert": false,
                    "revertMessage": "",
                    "selector": "0x96416bb2",
                    "status": true,
                    "value": "0"
                },
                "nodeType": 0
            },
            "36": {
                "invocation": {
                    "address": "0xfc01a9c57f793f9ce4a1f4bd678ddeab14c3e130",
                    "callData": "0x000000000000000000000000a1bfc2bb2e3ca408327ae906f75f274e9513847e",
                    "decodedMethod": {
                        "callParams": [
                            {
                                "name": "account",
                                "type": "address",
                                "value": "0xa1bfc2bb2e3ca408327ae906f75f274e9513847e"
                            }
                        ],
                        "constructorArguments": "",
                        "name": "depositsOf",
                        "returnParams": [
                            {
                                "name": "",
                                "type": "uint256[]",
                                "value": [
                                    "1,357",
                                    "447",
                                    "1,051"
                                ]
                            }
                        ],
                        "signature": "depositsOf(address)"
                    },
                    "errorInfo": "",
                    "fromAddress": "0xdf71efbe6b66cf9d68cc875b91124f7d666526cf",
                    "gasUsed": 3610,
                    "id": 36,
                    "methodDecoded": true,
                    "operation": "STATICCALL",
                    "output": "0x00000000000000000000000000000000000000000000000000000000000000200000000000000000000000000000000000000000000000000000000000000003000000000000000000000000000000000000000000000000000000000000054d00000000000000000000000000000000000000000000000000000000000001bf000000000000000000000000000000000000000000000000000000000000041b",
                    "revert": false,
                    "revertMessage": "",
                    "selector": "0xe3a9db1a",
                    "status": true,
                    "value": "0"
                },
                "nodeType": 0
            },
            "37": {
                "event": {
                    "contract": "0xdf71efbe6b66cf9d68cc875b91124f7d666526cf",
                    "decodedLog": {
                        "name": "HeadClaimed",
                        "params": [
                            {
                                "name": "tokenId",
                                "type": "uint256",
                                "value": "12,474"
                            },
                            {
                                "name": "earned",
                                "type": "uint256",
                                "value": "670,083,333,333,333,333,333"
                            },
                            {
                                "name": "unstaked",
                                "type": "bool",
                                "value": false
                            }
                        ],
                        "signature": "HeadClaimed(uint256,uint256,bool)"
                    },
                    "id": 37,
                    "logData": "0x00000000000000000000000000000000000000000000000000000000000030ba00000000000000000000000000000000000000000000002453463969bb0055550000000000000000000000000000000000000000000000000000000000000000",
                    "logDecoded": true,
                    "operation": "EVENT",
                    "revert": false,
                    "status": true,
                    "topics": [
                        "0xb07a7c84badacf6c35c1af1e5b1b7fe78b3598af4e9479f13c7c9dfa7c7e5333"
                    ]
                },
                "nodeType": 1
            },
            "38": {
                "invocation": {
                    "address": "0xcaca4e4c9f62760738d04bec350f7d83aea38e5d",
                    "callData": "0x00000000000000000000000000000000000000000000000000000000000030bb",
                    "decodedMethod": {
                        "callParams": [
                            {
                                "name": "tokenId",
                                "type": "uint256",
                                "value": "12,475"
                            }
                        ],
                        "constructorArguments": "",
                        "name": "getTokenTraits",
                        "returnParams": [
                            {
                                "name": "",
                                "type": "bool",
                                "value": true
                            }
                        ],
                        "signature": "getTokenTraits(uint256)"
                    },
                    "errorInfo": "",
                    "fromAddress": "0xdf71efbe6b66cf9d68cc875b91124f7d666526cf",
                    "gasUsed": 6193,
                    "id": 38,
                    "methodDecoded": true,
                    "operation": "STATICCALL",
                    "output": "0x0000000000000000000000000000000000000000000000000000000000000001",
                    "revert": false,
                    "revertMessage": "",
                    "selector": "0x94e56847",
                    "status": true,
                    "value": "0"
                },
                "nodeType": 0
            },
            "39": {
                "invocation": {
                    "address": "0x4848e202198338dd378d86d27209059570bf65e3",
                    "callData": "0x00000000000000000000000000000000000000000000000000000000000030bb",
                    "decodedMethod": {
                        "callParams": [
                            {
                                "name": "tokenId",
                                "type": "uint256",
                                "value": "12,475"
                            }
                        ],
                        "constructorArguments": "",
                        "name": "getTokenTraits",
                        "returnParams": [
                            {
                                "name": "",
                                "type": "bool",
                                "value": true
                            }
                        ],
                        "signature": "getTokenTraits(uint256)"
                    },
                    "errorInfo": "",
                    "fromAddress": "0xcaca4e4c9f62760738d04bec350f7d83aea38e5d",
                    "gasUsed": 5362,
                    "id": 39,
                    "methodDecoded": true,
                    "operation": "DELEGATECALL",
                    "output": "0x0000000000000000000000000000000000000000000000000000000000000001",
                    "revert": false,
                    "revertMessage": "",
                    "selector": "0x94e56847",
                    "status": true,
                    "value": "0"
                },
                "nodeType": 0
            },
            "4": {
                "invocation": {
                    "address": "0xd9adfb845ce1c690f53a6d6390fc20dae0953ed1",
                    "callData": "0x000000000000000000000000000000000000000000000000000000000000306a",
                    "decodedMethod": {
                        "callParams": [
                            {
                                "name": "tokenId",
                                "type": "uint256",
                                "value": "12,394"
                            }
                        ],
                        "constructorArguments": "",
                        "name": "get_seed",
                        "returnParams": [
                            {
                                "name": "",
                                "type": "uint256",
                                "value": "103,816,037,813,058,753,992,546,179,603,884,200,138,266,129,285,830,138,843,109,643,308,743,371,866,929"
                            }
                        ],
                        "signature": "get_seed(uint256)"
                    },
                    "errorInfo": "",
                    "fromAddress": "0xcaca4e4c9f62760738d04bec350f7d83aea38e5d",
                    "gasUsed": 14464,
                    "id": 4,
                    "methodDecoded": true,
                    "operation": "STATICCALL",
                    "output": "0xe585cb8bf642a59f5f3d0e2387f4c31558d61639c0cb375b38a205fb62094331",
                    "revert": false,
                    "revertMessage": "",
                    "selector": "0x96416bb2",
                    "status": true,
                    "value": "0"
                },
                "nodeType": 0
            },
            "40": {
                "invocation": {
                    "address": "0xd9adfb845ce1c690f53a6d6390fc20dae0953ed1",
                    "callData": "0x00000000000000000000000000000000000000000000000000000000000030bb",
                    "decodedMethod": {
                        "callParams": [
                            {
                                "name": "tokenId",
                                "type": "uint256",
                                "value": "12,475"
                            }
                        ],
                        "constructorArguments": "",
                        "name": "get_seed",
                        "returnParams": [
                            {
                                "name": "",
                                "type": "uint256",
                                "value": "51,127,367,344,316,666,119,304,947,107,779,426,617,498,486,279,019,522,600,653,212,262,168,929,026,242"
                            }
                        ],
                        "signature": "get_seed(uint256)"
                    },
                    "errorInfo": "",
                    "fromAddress": "0xcaca4e4c9f62760738d04bec350f7d83aea38e5d",
                    "gasUsed": 3964,
                    "id": 40,
                    "methodDecoded": true,
                    "operation": "STATICCALL",
                    "output": "0x7109107e384e60140a386f669e31cd12a2a8a3efd6ccd15cbd2b1b4c6d58c0c2",
                    "revert": false,
                    "revertMessage": "",
                    "selector": "0x96416bb2",
                    "status": true,
                    "value": "0"
                },
                "nodeType": 0
            },
            "41": {
                "invocation": {
                    "address": "0x4f07bbb336c6af9d6cbda883c9be4d2a0234c010",
                    "callData": "0x00000000000000000000000000000000000000000000000000000000000030bb",
                    "decodedMethod": {
                        "callParams": [
                            {
                                "name": "tokenId",
                                "type": "uint256",
                                "value": "12,475"
                            }
                        ],
                        "constructorArguments": "",
                        "name": "get_seed",
                        "returnParams": [
                            {
                                "name": "",
                                "type": "uint256",
                                "value": "51,127,367,344,316,666,119,304,947,107,779,426,617,498,486,279,019,522,600,653,212,262,168,929,026,242"
                            }
                        ],
                        "signature": "get_seed(uint256)"
                    },
                    "errorInfo": "",
                    "fromAddress": "0xd9adfb845ce1c690f53a6d6390fc20dae0953ed1",
                    "gasUsed": 3133,
                    "id": 41,
                    "methodDecoded": true,
                    "operation": "DELEGATECALL",
                    "output": "0x7109107e384e60140a386f669e31cd12a2a8a3efd6ccd15cbd2b1b4c6d58c0c2",
                    "revert": false,
                    "revertMessage": "",
                    "selector": "0x96416bb2",
                    "status": true,
                    "value": "0"
                },
                "nodeType": 0
            },
            "42": {
                "invocation": {
                    "address": "0xfc01a9c57f793f9ce4a1f4bd678ddeab14c3e130",
                    "callData": "0x000000000000000000000000a1bfc2bb2e3ca408327ae906f75f274e9513847e",
                    "decodedMethod": {
                        "callParams": [
                            {
                                "name": "account",
                                "type": "address",
                                "value": "0xa1bfc2bb2e3ca408327ae906f75f274e9513847e"
                            }
                        ],
                        "constructorArguments": "",
                        "name": "depositsOf",
                        "returnParams": [
                            {
                                "name": "",
                                "type": "uint256[]",
                                "value": [
                                    "1,357",
                                    "447",
                                    "1,051"
                                ]
                            }
                        ],
                        "signature": "depositsOf(address)"
                    },
                    "errorInfo": "",
                    "fromAddress": "0xdf71efbe6b66cf9d68cc875b91124f7d666526cf",
                    "gasUsed": 3610,
                    "id": 42,
                    "methodDecoded": true,
                    "operation": "STATICCALL",
                    "output": "0x00000000000000000000000000000000000000000000000000000000000000200000000000000000000000000000000000000000000000000000000000000003000000000000000000000000000000000000000000000000000000000000054d00000000000000000000000000000000000000000000000000000000000001bf000000000000000000000000000000000000000000000000000000000000041b",
                    "revert": false,
                    "revertMessage": "",
                    "selector": "0xe3a9db1a",
                    "status": true,
                    "value": "0"
                },
                "nodeType": 0
            },
            "43": {
                "event": {
                    "contract": "0xdf71efbe6b66cf9d68cc875b91124f7d666526cf",
                    "decodedLog": {
                        "name": "HeadClaimed",
                        "params": [
                            {
                                "name": "tokenId",
                                "type": "uint256",
                                "value": "12,475"
                            },
                            {
                                "name": "earned",
                                "type": "uint256",
                                "value": "670,083,333,333,333,333,333"
                            },
                            {
                                "name": "unstaked",
                                "type": "bool",
                                "value": false
                            }
                        ],
                        "signature": "HeadClaimed(uint256,uint256,bool)"
                    },
                    "id": 43,
                    "logData": "0x00000000000000000000000000000000000000000000000000000000000030bb00000000000000000000000000000000000000000000002453463969bb0055550000000000000000000000000000000000000000000000000000000000000000",
                    "logDecoded": true,
                    "operation": "EVENT",
                    "revert": false,
                    "status": true,
                    "topics": [
                        "0xb07a7c84badacf6c35c1af1e5b1b7fe78b3598af4e9479f13c7c9dfa7c7e5333"
                    ]
                },
                "nodeType": 1
            },
            "44": {
                "invocation": {
                    "address": "0xcaca4e4c9f62760738d04bec350f7d83aea38e5d",
                    "callData": "0x00000000000000000000000000000000000000000000000000000000000030bc",
                    "decodedMethod": {
                        "callParams": [
                            {
                                "name": "tokenId",
                                "type": "uint256",
                                "value": "12,476"
                            }
                        ],
                        "constructorArguments": "",
                        "name": "getTokenTraits",
                        "returnParams": [
                            {
                                "name": "",
                                "type": "bool",
                                "value": true
                            }
                        ],
                        "signature": "getTokenTraits(uint256)"
                    },
                    "errorInfo": "",
                    "fromAddress": "0xdf71efbe6b66cf9d68cc875b91124f7d666526cf",
                    "gasUsed": 6193,
                    "id": 44,
                    "methodDecoded": true,
                    "operation": "STATICCALL",
                    "output": "0x0000000000000000000000000000000000000000000000000000000000000001",
                    "revert": false,
                    "revertMessage": "",
                    "selector": "0x94e56847",
                    "status": true,
                    "value": "0"
                },
                "nodeType": 0
            },
            "45": {
                "invocation": {
                    "address": "0x4848e202198338dd378d86d27209059570bf65e3",
                    "callData": "0x00000000000000000000000000000000000000000000000000000000000030bc",
                    "decodedMethod": {
                        "callParams": [
                            {
                                "name": "tokenId",
                                "type": "uint256",
                                "value": "12,476"
                            }
                        ],
                        "constructorArguments": "",
                        "name": "getTokenTraits",
                        "returnParams": [
                            {
                                "name": "",
                                "type": "bool",
                                "value": true
                            }
                        ],
                        "signature": "getTokenTraits(uint256)"
                    },
                    "errorInfo": "",
                    "fromAddress": "0xcaca4e4c9f62760738d04bec350f7d83aea38e5d",
                    "gasUsed": 5362,
                    "id": 45,
                    "methodDecoded": true,
                    "operation": "DELEGATECALL",
                    "output": "0x0000000000000000000000000000000000000000000000000000000000000001",
                    "revert": false,
                    "revertMessage": "",
                    "selector": "0x94e56847",
                    "status": true,
                    "value": "0"
                },
                "nodeType": 0
            },
            "46": {
                "invocation": {
                    "address": "0xd9adfb845ce1c690f53a6d6390fc20dae0953ed1",
                    "callData": "0x00000000000000000000000000000000000000000000000000000000000030bc",
                    "decodedMethod": {
                        "callParams": [
                            {
                                "name": "tokenId",
                                "type": "uint256",
                                "value": "12,476"
                            }
                        ],
                        "constructorArguments": "",
                        "name": "get_seed",
                        "returnParams": [
                            {
                                "name": "",
                                "type": "uint256",
                                "value": "51,127,367,344,316,666,119,304,947,107,779,426,617,498,486,279,019,522,600,653,212,262,168,929,026,242"
                            }
                        ],
                        "signature": "get_seed(uint256)"
                    },
                    "errorInfo": "",
                    "fromAddress": "0xcaca4e4c9f62760738d04bec350f7d83aea38e5d",
                    "gasUsed": 3964,
                    "id": 46,
                    "methodDecoded": true,
                    "operation": "STATICCALL",
                    "output": "0x7109107e384e60140a386f669e31cd12a2a8a3efd6ccd15cbd2b1b4c6d58c0c2",
                    "revert": false,
                    "revertMessage": "",
                    "selector": "0x96416bb2",
                    "status": true,
                    "value": "0"
                },
                "nodeType": 0
            },
            "47": {
                "invocation": {
                    "address": "0x4f07bbb336c6af9d6cbda883c9be4d2a0234c010",
                    "callData": "0x00000000000000000000000000000000000000000000000000000000000030bc",
                    "decodedMethod": {
                        "callParams": [
                            {
                                "name": "tokenId",
                                "type": "uint256",
                                "value": "12,476"
                            }
                        ],
                        "constructorArguments": "",
                        "name": "get_seed",
                        "returnParams": [
                            {
                                "name": "",
                                "type": "uint256",
                                "value": "51,127,367,344,316,666,119,304,947,107,779,426,617,498,486,279,019,522,600,653,212,262,168,929,026,242"
                            }
                        ],
                        "signature": "get_seed(uint256)"
                    },
                    "errorInfo": "",
                    "fromAddress": "0xd9adfb845ce1c690f53a6d6390fc20dae0953ed1",
                    "gasUsed": 3133,
                    "id": 47,
                    "methodDecoded": true,
                    "operation": "DELEGATECALL",
                    "output": "0x7109107e384e60140a386f669e31cd12a2a8a3efd6ccd15cbd2b1b4c6d58c0c2",
                    "revert": false,
                    "revertMessage": "",
                    "selector": "0x96416bb2",
                    "status": true,
                    "value": "0"
                },
                "nodeType": 0
            },
            "48": {
                "invocation": {
                    "address": "0xfc01a9c57f793f9ce4a1f4bd678ddeab14c3e130",
                    "callData": "0x000000000000000000000000a1bfc2bb2e3ca408327ae906f75f274e9513847e",
                    "decodedMethod": {
                        "callParams": [
                            {
                                "name": "account",
                                "type": "address",
                                "value": "0xa1bfc2bb2e3ca408327ae906f75f274e9513847e"
                            }
                        ],
                        "constructorArguments": "",
                        "name": "depositsOf",
                        "returnParams": [
                            {
                                "name": "",
                                "type": "uint256[]",
                                "value": [
                                    "1,357",
                                    "447",
                                    "1,051"
                                ]
                            }
                        ],
                        "signature": "depositsOf(address)"
                    },
                    "errorInfo": "",
                    "fromAddress": "0xdf71efbe6b66cf9d68cc875b91124f7d666526cf",
                    "gasUsed": 3610,
                    "id": 48,
                    "methodDecoded": true,
                    "operation": "STATICCALL",
                    "output": "0x00000000000000000000000000000000000000000000000000000000000000200000000000000000000000000000000000000000000000000000000000000003000000000000000000000000000000000000000000000000000000000000054d00000000000000000000000000000000000000000000000000000000000001bf000000000000000000000000000000000000000000000000000000000000041b",
                    "revert": false,
                    "revertMessage": "",
                    "selector": "0xe3a9db1a",
                    "status": true,
                    "value": "0"
                },
                "nodeType": 0
            },
            "49": {
                "event": {
                    "contract": "0xdf71efbe6b66cf9d68cc875b91124f7d666526cf",
                    "decodedLog": {
                        "name": "HeadClaimed",
                        "params": [
                            {
                                "name": "tokenId",
                                "type": "uint256",
                                "value": "12,476"
                            },
                            {
                                "name": "earned",
                                "type": "uint256",
                                "value": "670,083,333,333,333,333,333"
                            },
                            {
                                "name": "unstaked",
                                "type": "bool",
                                "value": false
                            }
                        ],
                        "signature": "HeadClaimed(uint256,uint256,bool)"
                    },
                    "id": 49,
                    "logData": "0x00000000000000000000000000000000000000000000000000000000000030bc00000000000000000000000000000000000000000000002453463969bb0055550000000000000000000000000000000000000000000000000000000000000000",
                    "logDecoded": true,
                    "operation": "EVENT",
                    "revert": false,
                    "status": true,
                    "topics": [
                        "0xb07a7c84badacf6c35c1af1e5b1b7fe78b3598af4e9479f13c7c9dfa7c7e5333"
                    ]
                },
                "nodeType": 1
            },
            "5": {
                "invocation": {
                    "address": "0x4f07bbb336c6af9d6cbda883c9be4d2a0234c010",
                    "callData": "0x000000000000000000000000000000000000000000000000000000000000306a",
                    "decodedMethod": {
                        "callParams": [
                            {
                                "name": "tokenId",
                                "type": "uint256",
                                "value": "12,394"
                            }
                        ],
                        "constructorArguments": "",
                        "name": "get_seed",
                        "returnParams": [
                            {
                                "name": "",
                                "type": "uint256",
                                "value": "103,816,037,813,058,753,992,546,179,603,884,200,138,266,129,285,830,138,843,109,643,308,743,371,866,929"
                            }
                        ],
                        "signature": "get_seed(uint256)"
                    },
                    "errorInfo": "",
                    "fromAddress": "0xd9adfb845ce1c690f53a6d6390fc20dae0953ed1",
                    "gasUsed": 7133,
                    "id": 5,
                    "methodDecoded": true,
                    "operation": "DELEGATECALL",
                    "output": "0xe585cb8bf642a59f5f3d0e2387f4c31558d61639c0cb375b38a205fb62094331",
                    "revert": false,
                    "revertMessage": "",
                    "selector": "0x96416bb2",
                    "status": true,
                    "value": "0"
                },
                "nodeType": 0
            },
            "50": {
                "invocation": {
                    "address": "0x63faa59b3baf83f48b671957007aa6cee0e53680",
                    "callData": "0x000000000000000000000000a1bfc2bb2e3ca408327ae906f75f274e9513847e0000000000000000000000000000000000000000000000d9f3a5587a6201fffe",
                    "decodedMethod": {
                        "callParams": [
                            {
                                "name": "to",
                                "type": "address",
                                "value": "0xa1bfc2bb2e3ca408327ae906f75f274e9513847e"
                            },
                            {
                                "name": "amount",
                                "type": "uint256",
                                "value": "4,020,499,999,999,999,999,998"
                            }
                        ],
                        "constructorArguments": "",
                        "name": "mint",
                        "returnParams": [],
                        "signature": "mint(address,uint256)"
                    },
                    "errorInfo": "",
                    "fromAddress": "0xdf71efbe6b66cf9d68cc875b91124f7d666526cf",
                    "gasUsed": 14774,
                    "id": 50,
                    "methodDecoded": true,
                    "operation": "CALL",
                    "output": "",
                    "revert": false,
                    "revertMessage": "",
                    "selector": "0x40c10f19",
                    "status": true,
                    "value": "0"
                },
                "nodeType": 0
            },
            "51": {
                "event": {
                    "contract": "0x63faa59b3baf83f48b671957007aa6cee0e53680",
                    "decodedLog": {
                        "name": "Transfer",
                        "params": [
                            {
                                "name": "from",
                                "type": "address",
                                "value": "0x0000000000000000000000000000000000000000"
                            },
                            {
                                "name": "to",
                                "type": "address",
                                "value": "0xa1bfc2bb2e3ca408327ae906f75f274e9513847e"
                            },
                            {
                                "decimalAvailable": true,
                                "name": "value",
                                "type": "uint256",
                                "value": "4,020,499,999,999,999,999,998"
                            }
                        ],
                        "signature": "Transfer(address,address,uint256)"
                    },
                    "id": 51,
                    "logData": "0x0000000000000000000000000000000000000000000000d9f3a5587a6201fffe",
                    "logDecoded": true,
                    "operation": "EVENT",
                    "revert": false,
                    "status": true,
                    "topics": [
                        "0xddf252ad1be2c89b69c2b068fc378daa952ba7f163c4a11628f55a4df523b3ef",
                        "0x0000000000000000000000000000000000000000000000000000000000000000",
                        "0x000000000000000000000000a1bfc2bb2e3ca408327ae906f75f274e9513847e"
                    ]
                },
                "nodeType": 1
            },
            "6": {
                "invocation": {
                    "address": "0xfc01a9c57f793f9ce4a1f4bd678ddeab14c3e130",
                    "callData": "0x000000000000000000000000a1bfc2bb2e3ca408327ae906f75f274e9513847e",
                    "decodedMethod": {
                        "callParams": [
                            {
                                "name": "account",
                                "type": "address",
                                "value": "0xa1bfc2bb2e3ca408327ae906f75f274e9513847e"
                            }
                        ],
                        "constructorArguments": "",
                        "name": "depositsOf",
                        "returnParams": [
                            {
                                "name": "",
                                "type": "uint256[]",
                                "value": [
                                    "1,357",
                                    "447",
                                    "1,051"
                                ]
                            }
                        ],
                        "signature": "depositsOf(address)"
                    },
                    "errorInfo": "",
                    "fromAddress": "0xdf71efbe6b66cf9d68cc875b91124f7d666526cf",
                    "gasUsed": 11610,
                    "id": 6,
                    "methodDecoded": true,
                    "operation": "STATICCALL",
                    "output": "0x00000000000000000000000000000000000000000000000000000000000000200000000000000000000000000000000000000000000000000000000000000003000000000000000000000000000000000000000000000000000000000000054d00000000000000000000000000000000000000000000000000000000000001bf000000000000000000000000000000000000000000000000000000000000041b",
                    "revert": false,
                    "revertMessage": "",
                    "selector": "0xe3a9db1a",
                    "status": true,
                    "value": "0"
                },
                "nodeType": 0
            },
            "7": {
                "event": {
                    "contract": "0xdf71efbe6b66cf9d68cc875b91124f7d666526cf",
                    "decodedLog": {
                        "name": "HeadClaimed",
                        "params": [
                            {
                                "name": "tokenId",
                                "type": "uint256",
                                "value": "12,394"
                            },
                            {
                                "name": "earned",
                                "type": "uint256",
                                "value": "670,083,333,333,333,333,333"
                            },
                            {
                                "name": "unstaked",
                                "type": "bool",
                                "value": false
                            }
                        ],
                        "signature": "HeadClaimed(uint256,uint256,bool)"
                    },
                    "id": 7,
                    "logData": "0x000000000000000000000000000000000000000000000000000000000000306a00000000000000000000000000000000000000000000002453463969bb0055550000000000000000000000000000000000000000000000000000000000000000",
                    "logDecoded": true,
                    "operation": "EVENT",
                    "revert": false,
                    "status": true,
                    "topics": [
                        "0xb07a7c84badacf6c35c1af1e5b1b7fe78b3598af4e9479f13c7c9dfa7c7e5333"
                    ]
                },
                "nodeType": 1
            },
            "8": {
                "invocation": {
                    "address": "0xcaca4e4c9f62760738d04bec350f7d83aea38e5d",
                    "callData": "0x000000000000000000000000000000000000000000000000000000000000306b",
                    "decodedMethod": {
                        "callParams": [
                            {
                                "name": "tokenId",
                                "type": "uint256",
                                "value": "12,395"
                            }
                        ],
                        "constructorArguments": "",
                        "name": "getTokenTraits",
                        "returnParams": [
                            {
                                "name": "",
                                "type": "bool",
                                "value": true
                            }
                        ],
                        "signature": "getTokenTraits(uint256)"
                    },
                    "errorInfo": "",
                    "fromAddress": "0xdf71efbe6b66cf9d68cc875b91124f7d666526cf",
                    "gasUsed": 6193,
                    "id": 8,
                    "methodDecoded": true,
                    "operation": "STATICCALL",
                    "output": "0x0000000000000000000000000000000000000000000000000000000000000001",
                    "revert": false,
                    "revertMessage": "",
                    "selector": "0x94e56847",
                    "status": true,
                    "value": "0"
                },
                "nodeType": 0
            },
            "9": {
                "invocation": {
                    "address": "0x4848e202198338dd378d86d27209059570bf65e3",
                    "callData": "0x000000000000000000000000000000000000000000000000000000000000306b",
                    "decodedMethod": {
                        "callParams": [
                            {
                                "name": "tokenId",
                                "type": "uint256",
                                "value": "12,395"
                            }
                        ],
                        "constructorArguments": "",
                        "name": "getTokenTraits",
                        "returnParams": [
                            {
                                "name": "",
                                "type": "bool",
                                "value": true
                            }
                        ],
                        "signature": "getTokenTraits(uint256)"
                    },
                    "errorInfo": "",
                    "fromAddress": "0xcaca4e4c9f62760738d04bec350f7d83aea38e5d",
                    "gasUsed": 5362,
                    "id": 9,
                    "methodDecoded": true,
                    "operation": "DELEGATECALL",
                    "output": "0x0000000000000000000000000000000000000000000000000000000000000001",
                    "revert": false,
                    "revertMessage": "",
                    "selector": "0x94e56847",
                    "status": true,
                    "value": "0"
                },
                "nodeType": 0
            }
        },
        "gasFlame": [
            {
                "children": [
                    {
                        "children": [
                            {
                                "children": [],
                                "depth": 0,
                                "name": "Initial Gas",
                                "value": 22816
                            },
                            {
                                "children": [
                                    {
                                        "children": [
                                            {
                                                "children": [
                                                    {
                                                        "children": [
                                                            {
                                                                "children": [
                                                                    {
                                                                        "children": [],
                                                                        "depth": 5,
                                                                        "name": "get_seed",
                                                                        "value": 7133
                                                                    }
                                                                ],
                                                                "depth": 4,
                                                                "name": "get_seed",
                                                                "value": 14464
                                                            }
                                                        ],
                                                        "depth": 3,
                                                        "name": "getTokenTraits",
                                                        "value": 22362
                                                    }
                                                ],
                                                "depth": 2,
                                                "name": "getTokenTraits",
                                                "value": 29693
                                            },
                                            {
                                                "children": [],
                                                "depth": 2,
                                                "name": "depositsOf",
                                                "value": 11610
                                            },
                                            {
                                                "children": [
                                                    {
                                                        "children": [
                                                            {
                                                                "children": [
                                                                    {
                                                                        "children": [],
                                                                        "depth": 5,
                                                                        "name": "get_seed",
                                                                        "value": 3133
                                                                    }
                                                                ],
                                                                "depth": 4,
                                                                "name": "get_seed",
                                                                "value": 3964
                                                            }
                                                        ],
                                                        "depth": 3,
                                                        "name": "getTokenTraits",
                                                        "value": 5362
                                                    }
                                                ],
                                                "depth": 2,
                                                "name": "getTokenTraits",
                                                "value": 6193
                                            },
                                            {
                                                "children": [],
                                                "depth": 2,
                                                "name": "depositsOf",
                                                "value": 3610
                                            },
                                            {
                                                "children": [
                                                    {
                                                        "children": [
                                                            {
                                                                "children": [
                                                                    {
                                                                        "children": [],
                                                                        "depth": 5,
                                                                        "name": "get_seed",
                                                                        "value": 3133
                                                                    }
                                                                ],
                                                                "depth": 4,
                                                                "name": "get_seed",
                                                                "value": 3964
                                                            }
                                                        ],
                                                        "depth": 3,
                                                        "name": "getTokenTraits",
                                                        "value": 5362
                                                    }
                                                ],
                                                "depth": 2,
                                                "name": "getTokenTraits",
                                                "value": 6193
                                            },
                                            {
                                                "children": [],
                                                "depth": 2,
                                                "name": "depositsOf",
                                                "value": 3610
                                            },
                                            {
                                                "children": [
                                                    {
                                                        "children": [
                                                            {
                                                                "children": [
                                                                    {
                                                                        "children": [],
                                                                        "depth": 5,
                                                                        "name": "get_seed",
                                                                        "value": 5133
                                                                    }
                                                                ],
                                                                "depth": 4,
                                                                "name": "get_seed",
                                                                "value": 5964
                                                            }
                                                        ],
                                                        "depth": 3,
                                                        "name": "getTokenTraits",
                                                        "value": 7362
                                                    }
                                                ],
                                                "depth": 2,
                                                "name": "getTokenTraits",
                                                "value": 8193
                                            },
                                            {
                                                "children": [],
                                                "depth": 2,
                                                "name": "depositsOf",
                                                "value": 3610
                                            },
                                            {
                                                "children": [
                                                    {
                                                        "children": [
                                                            {
                                                                "children": [
                                                                    {
                                                                        "children": [],
                                                                        "depth": 5,
                                                                        "name": "get_seed",
                                                                        "value": 3133
                                                                    }
                                                                ],
                                                                "depth": 4,
                                                                "name": "get_seed",
                                                                "value": 3964
                                                            }
                                                        ],
                                                        "depth": 3,
                                                        "name": "getTokenTraits",
                                                        "value": 5362
                                                    }
                                                ],
                                                "depth": 2,
                                                "name": "getTokenTraits",
                                                "value": 6193
                                            },
                                            {
                                                "children": [],
                                                "depth": 2,
                                                "name": "depositsOf",
                                                "value": 3610
                                            },
                                            {
                                                "children": [
                                                    {
                                                        "children": [
                                                            {
                                                                "children": [
                                                                    {
                                                                        "children": [],
                                                                        "depth": 5,
                                                                        "name": "get_seed",
                                                                        "value": 3133
                                                                    }
                                                                ],
                                                                "depth": 4,
                                                                "name": "get_seed",
                                                                "value": 3964
                                                            }
                                                        ],
                                                        "depth": 3,
                                                        "name": "getTokenTraits",
                                                        "value": 5362
                                                    }
                                                ],
                                                "depth": 2,
                                                "name": "getTokenTraits",
                                                "value": 6193
                                            },
                                            {
                                                "children": [],
                                                "depth": 2,
                                                "name": "depositsOf",
                                                "value": 3610
                                            },
                                            {
                                                "children": [
                                                    {
                                                        "children": [
                                                            {
                                                                "children": [
                                                                    {
                                                                        "children": [],
                                                                        "depth": 5,
                                                                        "name": "get_seed",
                                                                        "value": 3133
                                                                    }
                                                                ],
                                                                "depth": 4,
                                                                "name": "get_seed",
                                                                "value": 3964
                                                            }
                                                        ],
                                                        "depth": 3,
                                                        "name": "getTokenTraits",
                                                        "value": 5362
                                                    }
                                                ],
                                                "depth": 2,
                                                "name": "getTokenTraits",
                                                "value": 6193
                                            },
                                            {
                                                "children": [],
                                                "depth": 2,
                                                "name": "depositsOf",
                                                "value": 3610
                                            },
                                            {
                                                "children": [
                                                    {
                                                        "children": [
                                                            {
                                                                "children": [
                                                                    {
                                                                        "children": [],
                                                                        "depth": 5,
                                                                        "name": "get_seed",
                                                                        "value": 3133
                                                                    }
                                                                ],
                                                                "depth": 4,
                                                                "name": "get_seed",
                                                                "value": 3964
                                                            }
                                                        ],
                                                        "depth": 3,
                                                        "name": "getTokenTraits",
                                                        "value": 5362
                                                    }
                                                ],
                                                "depth": 2,
                                                "name": "getTokenTraits",
                                                "value": 6193
                                            },
                                            {
                                                "children": [],
                                                "depth": 2,
                                                "name": "depositsOf",
                                                "value": 3610
                                            },
                                            {
                                                "children": [],
                                                "depth": 2,
                                                "name": "mint",
                                                "value": 14774
                                            }
                                        ],
                                        "depth": 1,
                                        "name": "claimFromStaking",
                                        "value": 271030
                                    }
                                ],
                                "depth": 0,
                                "name": "Executed Gas",
                                "value": 278421
                            }
                        ],
                        "depth": -1,
                        "name": "Actual Gas Used",
                        "value": 298437
                    },
                    {
                        "children": [],
                        "depth": -1,
                        "name": "Refunded Gas",
                        "value": 2800
                    }
                ],
                "depth": -2,
                "name": "Total Gas",
                "value": 301237
            }
        ],
        "isConfirmed": true,
        "mainTrace": [
            {
                "children": [
                    {
                        "children": [
                            {
                                "children": [
                                    {
                                        "children": [
                                            {
                                                "children": [
                                                    {
                                                        "children": [
                                                            {
                                                                "children": [],
                                                                "depth": 5,
                                                                "id": 5,
                                                                "order": 5
                                                            }
                                                        ],
                                                        "depth": 4,
                                                        "id": 4,
                                                        "order": 4
                                                    }
                                                ],
                                                "depth": 3,
                                                "id": 3,
                                                "order": 3
                                            }
                                        ],
                                        "depth": 2,
                                        "id": 2,
                                        "order": 2
                                    },
                                    {
                                        "children": [],
                                        "depth": 2,
                                        "id": 6,
                                        "order": 6
                                    },
                                    {
                                        "children": [],
                                        "depth": 2,
                                        "id": 7,
                                        "order": 7
                                    },
                                    {
                                        "children": [
                                            {
                                                "children": [
                                                    {
                                                        "children": [
                                                            {
                                                                "children": [],
                                                                "depth": 5,
                                                                "id": 11,
                                                                "order": 11
                                                            }
                                                        ],
                                                        "depth": 4,
                                                        "id": 10,
                                                        "order": 10
                                                    }
                                                ],
                                                "depth": 3,
                                                "id": 9,
                                                "order": 9
                                            }
                                        ],
                                        "depth": 2,
                                        "id": 8,
                                        "order": 8
                                    },
                                    {
                                        "children": [],
                                        "depth": 2,
                                        "id": 12,
                                        "order": 12
                                    },
                                    {
                                        "children": [],
                                        "depth": 2,
                                        "id": 13,
                                        "order": 13
                                    },
                                    {
                                        "children": [
                                            {
                                                "children": [
                                                    {
                                                        "children": [
                                                            {
                                                                "children": [],
                                                                "depth": 5,
                                                                "id": 17,
                                                                "order": 17
                                                            }
                                                        ],
                                                        "depth": 4,
                                                        "id": 16,
                                                        "order": 16
                                                    }
                                                ],
                                                "depth": 3,
                                                "id": 15,
                                                "order": 15
                                            }
                                        ],
                                        "depth": 2,
                                        "id": 14,
                                        "order": 14
                                    },
                                    {
                                        "children": [],
                                        "depth": 2,
                                        "id": 18,
                                        "order": 18
                                    },
                                    {
                                        "children": [],
                                        "depth": 2,
                                        "id": 19,
                                        "order": 19
                                    },
                                    {
                                        "children": [
                                            {
                                                "children": [
                                                    {
                                                        "children": [
                                                            {
                                                                "children": [],
                                                                "depth": 5,
                                                                "id": 23,
                                                                "order": 23
                                                            }
                                                        ],
                                                        "depth": 4,
                                                        "id": 22,
                                                        "order": 22
                                                    }
                                                ],
                                                "depth": 3,
                                                "id": 21,
                                                "order": 21
                                            }
                                        ],
                                        "depth": 2,
                                        "id": 20,
                                        "order": 20
                                    },
                                    {
                                        "children": [],
                                        "depth": 2,
                                        "id": 24,
                                        "order": 24
                                    },
                                    {
                                        "children": [],
                                        "depth": 2,
                                        "id": 25,
                                        "order": 25
                                    },
                                    {
                                        "children": [
                                            {
                                                "children": [
                                                    {
                                                        "children": [
                                                            {
                                                                "children": [],
                                                                "depth": 5,
                                                                "id": 29,
                                                                "order": 29
                                                            }
                                                        ],
                                                        "depth": 4,
                                                        "id": 28,
                                                        "order": 28
                                                    }
                                                ],
                                                "depth": 3,
                                                "id": 27,
                                                "order": 27
                                            }
                                        ],
                                        "depth": 2,
                                        "id": 26,
                                        "order": 26
                                    },
                                    {
                                        "children": [],
                                        "depth": 2,
                                        "id": 30,
                                        "order": 30
                                    },
                                    {
                                        "children": [],
                                        "depth": 2,
                                        "id": 31,
                                        "order": 31
                                    },
                                    {
                                        "children": [
                                            {
                                                "children": [
                                                    {
                                                        "children": [
                                                            {
                                                                "children": [],
                                                                "depth": 5,
                                                                "id": 35,
                                                                "order": 35
                                                            }
                                                        ],
                                                        "depth": 4,
                                                        "id": 34,
                                                        "order": 34
                                                    }
                                                ],
                                                "depth": 3,
                                                "id": 33,
                                                "order": 33
                                            }
                                        ],
                                        "depth": 2,
                                        "id": 32,
                                        "order": 32
                                    },
                                    {
                                        "children": [],
                                        "depth": 2,
                                        "id": 36,
                                        "order": 36
                                    },
                                    {
                                        "children": [],
                                        "depth": 2,
                                        "id": 37,
                                        "order": 37
                                    },
                                    {
                                        "children": [
                                            {
                                                "children": [
                                                    {
                                                        "children": [
                                                            {
                                                                "children": [],
                                                                "depth": 5,
                                                                "id": 41,
                                                                "order": 41
                                                            }
                                                        ],
                                                        "depth": 4,
                                                        "id": 40,
                                                        "order": 40
                                                    }
                                                ],
                                                "depth": 3,
                                                "id": 39,
                                                "order": 39
                                            }
                                        ],
                                        "depth": 2,
                                        "id": 38,
                                        "order": 38
                                    },
                                    {
                                        "children": [],
                                        "depth": 2,
                                        "id": 42,
                                        "order": 42
                                    },
                                    {
                                        "children": [],
                                        "depth": 2,
                                        "id": 43,
                                        "order": 43
                                    },
                                    {
                                        "children": [
                                            {
                                                "children": [
                                                    {
                                                        "children": [
                                                            {
                                                                "children": [],
                                                                "depth": 5,
                                                                "id": 47,
                                                                "order": 47
                                                            }
                                                        ],
                                                        "depth": 4,
                                                        "id": 46,
                                                        "order": 46
                                                    }
                                                ],
                                                "depth": 3,
                                                "id": 45,
                                                "order": 45
                                            }
                                        ],
                                        "depth": 2,
                                        "id": 44,
                                        "order": 44
                                    },
                                    {
                                        "children": [],
                                        "depth": 2,
                                        "id": 48,
                                        "order": 48
                                    },
                                    {
                                        "children": [],
                                        "depth": 2,
                                        "id": 49,
                                        "order": 49
                                    },
                                    {
                                        "children": [
                                            {
                                                "children": [],
                                                "depth": 3,
                                                "id": 51,
                                                "order": 51
                                            }
                                        ],
                                        "depth": 2,
                                        "id": 50,
                                        "order": 50
                                    }
                                ],
                                "depth": 1,
                                "id": 1,
                                "order": 1
                            }
                        ],
                        "depth": 0,
                        "id": 0,
                        "order": 0
                    }
                ],
                "depth": -1,
                "id": -1,
                "order": -1
            }
        ],
        "mainTraceNodeCount": 52,
        "parentIdMap": {
            "0": -1,
            "1": 0,
            "10": 9,
            "11": 10,
            "12": 1,
            "13": 1,
            "14": 1,
            "15": 14,
            "16": 15,
            "17": 16,
            "18": 1,
            "19": 1,
            "2": 1,
            "20": 1,
            "21": 20,
            "22": 21,
            "23": 22,
            "24": 1,
            "25": 1,
            "26": 1,
            "27": 26,
            "28": 27,
            "29": 28,
            "3": 2,
            "30": 1,
            "31": 1,
            "32": 1,
            "33": 32,
            "34": 33,
            "35": 34,
            "36": 1,
            "37": 1,
            "38": 1,
            "39": 38,
            "4": 3,
            "40": 39,
            "41": 40,
            "42": 1,
            "43": 1,
            "44": 1,
            "45": 44,
            "46": 45,
            "47": 46,
            "48": 1,
            "49": 1,
            "5": 4,
            "50": 1,
            "51": 50,
            "6": 1,
            "7": 1,
            "8": 1,
            "9": 8
        },
        "tidyTrace": [
            {
                "children": [
                    {
                        "children": [
                            {
                                "children": [
                                    {
                                        "children": [],
                                        "depth": 2,
                                        "id": 7,
                                        "order": 7
                                    },
                                    {
                                        "children": [],
                                        "depth": 2,
                                        "id": 13,
                                        "order": 13
                                    },
                                    {
                                        "children": [],
                                        "depth": 2,
                                        "id": 19,
                                        "order": 19
                                    },
                                    {
                                        "children": [],
                                        "depth": 2,
                                        "id": 25,
                                        "order": 25
                                    },
                                    {
                                        "children": [],
                                        "depth": 2,
                                        "id": 31,
                                        "order": 31
                                    },
                                    {
                                        "children": [],
                                        "depth": 2,
                                        "id": 37,
                                        "order": 37
                                    },
                                    {
                                        "children": [],
                                        "depth": 2,
                                        "id": 43,
                                        "order": 43
                                    },
                                    {
                                        "children": [],
                                        "depth": 2,
                                        "id": 49,
                                        "order": 49
                                    },
                                    {
                                        "children": [
                                            {
                                                "children": [],
                                                "depth": 3,
                                                "id": 51,
                                                "order": 51
                                            }
                                        ],
                                        "depth": 2,
                                        "id": 50,
                                        "order": 50
                                    }
                                ],
                                "depth": 1,
                                "id": 1,
                                "order": 1
                            }
                        ],
                        "depth": 0,
                        "id": 0,
                        "order": 0
                    }
                ],
                "depth": -1,
                "id": -1,
                "order": -1
            }
        ],
        "tidyTraceNodeCount": 12
    },
    "state_change": {
        "stateChanges": [
            {
                "address": "0x63faa59b3baf83f48b671957007aa6cee0e53680",
                "erc": "ERC-20",
                "slots": [
                    {
                        "current": "0x0000000000000000000000000000000000000000000091a59214b258df234414",
                        "key": "0x0000000000000000000000000000000000000000000000000000000000000002",
                        "prev": "0x0000000000000000000000000000000000000000000090cb9e6f59de7d214416"
                    },
                    {
                        "current": "0x0000000000000000000000000000000000000000000000dd49df197515a31004",
                        "key": "0x927a20a42bdd3eff63aef6e38f8c5e60732b0043617eb0638588c00fa5e00615",
                        "prev": "0x0000000000000000000000000000000000000000000000035639c0fab3a11006"
                    }
                ],
                "storageVariables": [
                    {
                        "name": "_balances",
                        "type": "mapping(address => uint256)",
                        "value": {
                            "pairs": [
                                {
                                    "key": "0xa1bfc2bb2e3ca408327ae906f75f274e9513847e",
                                    "value": {
                                        "current": "4082053441565050998788",
                                        "prev": "61553441565050998790",
                                        "typeTag": 1
                                    }
                                }
                            ],
                            "typeTag": 4
                        }
                    },
                    {
                        "name": "_totalSupply",
                        "type": "uint256",
                        "value": {
                            "current": "687797379022584474190868",
                            "prev": "683776879022584474190870",
                            "typeTag": 1
                        }
                    }
                ]
            },
            {
                "address": "0xdf71efbe6b66cf9d68cc875b91124f7d666526cf",
                "erc": "",
                "slots": [
                    {
                        "current": "0xa1bfc2bb2e3ca408327ae906f75f274e9513847e00000000000061f643de30bc",
                        "key": "0x1efa7650f5a13bdd1a48e9171464f99a0b0943795990874214d7aeea5466fb4a",
                        "prev": "0xa1bfc2bb2e3ca408327ae906f75f274e9513847e00000000000061f1118e30bc"
                    },
                    {
                        "current": "0x0000000000000000000000000000000000000000000000036051ea6e44f191c7",
                        "key": "0x00000000000000000000000000000000000000000000000000000000000000d5",
                        "prev": "0x0000000000000000000000000000000000000000000000035e8fcf1ef75e22c7"
                    },
                    {
                        "current": "0x00000000000000000000000000000000000000000006d67199353bea7b407045",
                        "key": "0x00000000000000000000000000000000000000000000000000000000000000d6",
                        "prev": "0x00000000000000000000000000000000000000000006d60a5cb21f3a24baf045"
                    },
                    {
                        "current": "0x0000000000000000000000000000000000000000000000000000000061f643de",
                        "key": "0x00000000000000000000000000000000000000000000000000000000000000d8",
                        "prev": "0x0000000000000000000000000000000000000000000000000000000061f64370"
                    },
                    {
                        "current": "0xa1bfc2bb2e3ca408327ae906f75f274e9513847e00000000000061f643de30b9",
                        "key": "0x9ef94921f4f223b0f04eae103ee68a5cf6fdd6d9e7cd1f4bef4df93fabb3caf8",
                        "prev": "0xa1bfc2bb2e3ca408327ae906f75f274e9513847e00000000000061f1118e30b9"
                    },
                    {
                        "current": "0xa1bfc2bb2e3ca408327ae906f75f274e9513847e00000000000061f643de30ba",
                        "key": "0x3201405aa2a7735f4fc8b74be6d82c771d74db761d82f1118ccfadbd47db5ec1",
                        "prev": "0xa1bfc2bb2e3ca408327ae906f75f274e9513847e00000000000061f1118e30ba"
                    },
                    {
                        "current": "0xa1bfc2bb2e3ca408327ae906f75f274e9513847e00000000000061f643de30b8",
                        "key": "0x93066a385b06e587a185eb92d4c2bffc6a32f313af71113db5219f63677ddeb9",
                        "prev": "0xa1bfc2bb2e3ca408327ae906f75f274e9513847e00000000000061f1118e30b8"
                    },
                    {
                        "current": "0xa1bfc2bb2e3ca408327ae906f75f274e9513847e00000000000061f643de30bb",
                        "key": "0x8c1ea025fe06c622ff5344b1cc0992d0d0161085fd2e91d2b6ef0d7c5489af5a",
                        "prev": "0xa1bfc2bb2e3ca408327ae906f75f274e9513847e00000000000061f1118e30bb"
                    },
                    {
                        "current": "0xa1bfc2bb2e3ca408327ae906f75f274e9513847e00000000000061f643de306a",
                        "key": "0xdc82a096bacd533663e7a19a1db8db8a4e26c7da78589a2330d27eda1a878692",
                        "prev": "0xa1bfc2bb2e3ca408327ae906f75f274e9513847e00000000000061f1118e306a"
                    },
                    {
                        "current": "0xa1bfc2bb2e3ca408327ae906f75f274e9513847e00000000000061f643de306b",
                        "key": "0xea9b9f72f33e092e4f1326503475c825794258689ddbcc37898892baa6ccb342",
                        "prev": "0xa1bfc2bb2e3ca408327ae906f75f274e9513847e00000000000061f1118e306b"
                    },
                    {
                        "current": "0xa1bfc2bb2e3ca408327ae906f75f274e9513847e00000000000061f643de306c",
                        "key": "0x7e29beeb7043d5be510ff1a98950ac9ff9edf6bc1720bad8f173fe8181d33840",
                        "prev": "0xa1bfc2bb2e3ca408327ae906f75f274e9513847e00000000000061f1118e306c"
                    }
                ],
                "storageVariables": [
                    {
                        "name": "stakedTokens",
                        "type": "mapping(uint256 => struct stakingContract.Stake)",
                        "value": {
                            "pairs": [
                                {
                                    "key": "12394",
                                    "value": {
                                        "fields": [
                                            {
                                                "name": "tokenId",
                                                "type": "uint16",
                                                "value": {
                                                    "current": "12394",
                                                    "prev": "12394",
                                                    "typeTag": 1
                                                }
                                            },
                                            {
                                                "name": "value",
                                                "type": "uint80",
                                                "value": {
                                                    "current": "1643529182",
                                                    "prev": "1643188622",
                                                    "typeTag": 1
                                                }
                                            },
                                            {
                                                "name": "owner",
                                                "type": "address",
                                                "value": {
                                                    "current": "0xa1bfc2bb2e3ca408327ae906f75f274e9513847e",
                                                    "prev": "0xa1bfc2bb2e3ca408327ae906f75f274e9513847e",
                                                    "typeTag": 1
                                                }
                                            }
                                        ],
                                        "typeTag": 3
                                    }
                                },
                                {
                                    "key": "12395",
                                    "value": {
                                        "fields": [
                                            {
                                                "name": "tokenId",
                                                "type": "uint16",
                                                "value": {
                                                    "current": "12395",
                                                    "prev": "12395",
                                                    "typeTag": 1
                                                }
                                            },
                                            {
                                                "name": "value",
                                                "type": "uint80",
                                                "value": {
                                                    "current": "1643529182",
                                                    "prev": "1643188622",
                                                    "typeTag": 1
                                                }
                                            },
                                            {
                                                "name": "owner",
                                                "type": "address",
                                                "value": {
                                                    "current": "0xa1bfc2bb2e3ca408327ae906f75f274e9513847e",
                                                    "prev": "0xa1bfc2bb2e3ca408327ae906f75f274e9513847e",
                                                    "typeTag": 1
                                                }
                                            }
                                        ],
                                        "typeTag": 3
                                    }
                                },
                                {
                                    "key": "12396",
                                    "value": {
                                        "fields": [
                                            {
                                                "name": "tokenId",
                                                "type": "uint16",
                                                "value": {
                                                    "current": "12396",
                                                    "prev": "12396",
                                                    "typeTag": 1
                                                }
                                            },
                                            {
                                                "name": "value",
                                                "type": "uint80",
                                                "value": {
                                                    "current": "1643529182",
                                                    "prev": "1643188622",
                                                    "typeTag": 1
                                                }
                                            },
                                            {
                                                "name": "owner",
                                                "type": "address",
                                                "value": {
                                                    "current": "0xa1bfc2bb2e3ca408327ae906f75f274e9513847e",
                                                    "prev": "0xa1bfc2bb2e3ca408327ae906f75f274e9513847e",
                                                    "typeTag": 1
                                                }
                                            }
                                        ],
                                        "typeTag": 3
                                    }
                                },
                                {
                                    "key": "12472",
                                    "value": {
                                        "fields": [
                                            {
                                                "name": "tokenId",
                                                "type": "uint16",
                                                "value": {
                                                    "current": "12472",
                                                    "prev": "12472",
                                                    "typeTag": 1
                                                }
                                            },
                                            {
                                                "name": "value",
                                                "type": "uint80",
                                                "value": {
                                                    "current": "1643529182",
                                                    "prev": "1643188622",
                                                    "typeTag": 1
                                                }
                                            },
                                            {
                                                "name": "owner",
                                                "type": "address",
                                                "value": {
                                                    "current": "0xa1bfc2bb2e3ca408327ae906f75f274e9513847e",
                                                    "prev": "0xa1bfc2bb2e3ca408327ae906f75f274e9513847e",
                                                    "typeTag": 1
                                                }
                                            }
                                        ],
                                        "typeTag": 3
                                    }
                                },
                                {
                                    "key": "12473",
                                    "value": {
                                        "fields": [
                                            {
                                                "name": "tokenId",
                                                "type": "uint16",
                                                "value": {
                                                    "current": "12473",
                                                    "prev": "12473",
                                                    "typeTag": 1
                                                }
                                            },
                                            {
                                                "name": "value",
                                                "type": "uint80",
                                                "value": {
                                                    "current": "1643529182",
                                                    "prev": "1643188622",
                                                    "typeTag": 1
                                                }
                                            },
                                            {
                                                "name": "owner",
                                                "type": "address",
                                                "value": {
                                                    "current": "0xa1bfc2bb2e3ca408327ae906f75f274e9513847e",
                                                    "prev": "0xa1bfc2bb2e3ca408327ae906f75f274e9513847e",
                                                    "typeTag": 1
                                                }
                                            }
                                        ],
                                        "typeTag": 3
                                    }
                                },
                                {
                                    "key": "12474",
                                    "value": {
                                        "fields": [
                                            {
                                                "name": "tokenId",
                                                "type": "uint16",
                                                "value": {
                                                    "current": "12474",
                                                    "prev": "12474",
                                                    "typeTag": 1
                                                }
                                            },
                                            {
                                                "name": "value",
                                                "type": "uint80",
                                                "value": {
                                                    "current": "1643529182",
                                                    "prev": "1643188622",
                                                    "typeTag": 1
                                                }
                                            },
                                            {
                                                "name": "owner",
                                                "type": "address",
                                                "value": {
                                                    "current": "0xa1bfc2bb2e3ca408327ae906f75f274e9513847e",
                                                    "prev": "0xa1bfc2bb2e3ca408327ae906f75f274e9513847e",
                                                    "typeTag": 1
                                                }
                                            }
                                        ],
                                        "typeTag": 3
                                    }
                                },
                                {
                                    "key": "12475",
                                    "value": {
                                        "fields": [
                                            {
                                                "name": "tokenId",
                                                "type": "uint16",
                                                "value": {
                                                    "current": "12475",
                                                    "prev": "12475",
                                                    "typeTag": 1
                                                }
                                            },
                                            {
                                                "name": "value",
                                                "type": "uint80",
                                                "value": {
                                                    "current": "1643529182",
                                                    "prev": "1643188622",
                                                    "typeTag": 1
                                                }
                                            },
                                            {
                                                "name": "owner",
                                                "type": "address",
                                                "value": {
                                                    "current": "0xa1bfc2bb2e3ca408327ae906f75f274e9513847e",
                                                    "prev": "0xa1bfc2bb2e3ca408327ae906f75f274e9513847e",
                                                    "typeTag": 1
                                                }
                                            }
                                        ],
                                        "typeTag": 3
                                    }
                                },
                                {
                                    "key": "12476",
                                    "value": {
                                        "fields": [
                                            {
                                                "name": "tokenId",
                                                "type": "uint16",
                                                "value": {
                                                    "current": "12476",
                                                    "prev": "12476",
                                                    "typeTag": 1
                                                }
                                            },
                                            {
                                                "name": "value",
                                                "type": "uint80",
                                                "value": {
                                                    "current": "1643529182",
                                                    "prev": "1643188622",
                                                    "typeTag": 1
                                                }
                                            },
                                            {
                                                "name": "owner",
                                                "type": "address",
                                                "value": {
                                                    "current": "0xa1bfc2bb2e3ca408327ae906f75f274e9513847e",
                                                    "prev": "0xa1bfc2bb2e3ca408327ae906f75f274e9513847e",
                                                    "typeTag": 1
                                                }
                                            }
                                        ],
                                        "typeTag": 3
                                    }
                                }
                            ],
                            "typeTag": 4
                        }
                    },
                    {
                        "name": "_totalHeadEarned",
                        "type": "uint256",
                        "value": {
                            "current": "8266236866898148148146245",
                            "prev": "8264332491898148148146245",
                            "typeTag": 1
                        }
                    },
                    {
                        "name": "_lastClaimTimestamp",
                        "type": "uint256",
                        "value": {
                            "current": "1643529182",
                            "prev": "1643529072",
                            "typeTag": 1
                        }
                    },
                    {
                        "name": "_HeadPerAlpha",
                        "type": "uint256",
                        "value": {
                            "current": "62280818481207284167",
                            "prev": "62154124714269614791",
                            "typeTag": 1
                        }
                    }
                ]
            }
        ]
    }
}