{
    "balance_change": {
        "balanceChanges": [
            {
                "account": "0x62f5a67524771b8cd2081c0880bcf49ca938ca7f",
                "assets": [
                    {
                        "address": "0xb98d4c97425d9908e66e53a6fdf673acca0be986",
                        "amount": "114.35981298",
                        "iconUrl": "https://assets.blocksec.com/icon/566a4af5e78ce7c5a8b76cafb53d4c619a16b3a35a722a5ff9eb696759c45d17.png",
                        "isERC1155": false,
                        "isERC721": false,
                        "sign": false,
                        "value": ""
                    }
                ]
            },
            {
                "account": "0x689c56aef474df92d44a1b70850f808488f9769c",
                "assets": [
                    {
                        "address": "0xb98d4c97425d9908e66e53a6fdf673acca0be986",
                        "amount": "114.35981298",
                        "iconUrl": "https://assets.blocksec.com/icon/566a4af5e78ce7c5a8b76cafb53d4c619a16b3a35a722a5ff9eb696759c45d17.png",
                        "isERC1155": false,
                        "isERC721": false,
                        "sign": true,
                        "value": ""
                    }
                ]
            }
        ]
    },
    "profile": {
        "basic_info": {
            "baseFee": "",
            "blockNumber": 6717936,
            "callData": "0xa9059cbb000000000000000000000000689c56aef474df92d44a1b70850f808488f9769c000000000000000000000000000000000000000000000006330fac0045018800",
            "debugEnable": true,
            "errorInfo": "",
            "eventCount": 1,
            "feeRecipient": "0x914d0e134b92986a55e49cc23ddf39ec6d971dcd",
            "formatValue": "0",
            "gasLimit": 200000,
            "gasPrice": "3",
            "gasUsed": 22373,
            "intTxnCount": 0,
            "internalRevert": false,
            "internalRevertMessage": "",
            "isContractCreation": false,
            "isFlashloan": false,
            "maxFee": "",
            "nonce": 5,
            "overwritedBlockNumber": -1,
            "priorityFee": "",
            "receiver": "0xb98d4c97425d9908e66e53a6fdf673acca0be986",
            "revertMessage": "",
            "sender": "0x62f5a67524771b8cd2081c0880bcf49ca938ca7f",
            "simulationEnable": true,
            "sourceTxnHash": "0x0360851892bd49379e97d729054692931cb91bbf298b67239e61d676fc99d638",
            "status": true,
            "timestamp": "2018-11-16T23:22:38Z",
            "transactionFee": "0.000067119",
            "txnHash": "0x0360851892bd49379e97d729054692931cb91bbf298b67239e61d676fc99d638",
            "txnIndex": 43,
            "type": 0,
            "value": "0"
        },
        "fund_flow": [
            {
                "amount": "114.35981298",
                "from": "0x62f5a67524771b8cd2081c0880bcf49ca938ca7f",
                "id": 1,
                "isERC1155": false,
                "isERC721": false,
                "isReverted": false,
                "order": 1,
                "to": "0x689c56aef474df92d44a1b70850f808488f9769c",
                "token": "0xb98d4c97425d9908e66e53a6fdf673acca0be986"
            }
        ],
        "token_infos": [
            {
                "address": "0xeeeeeeeeeeeeeeeeeeeeeeeeeeeeeeeeeeeeeeee",
                "decimals": 18
            },
            {
                "address": "0xb98d4c97425d9908e66e53a6fdf673acca0be986",
                "decimals": 18
            },
            {
                "address": "0xc02aaa39b223fe8d0a0e5c4f27ead9083c756cc2",
                "decimals": 18
            }
        ]
    },
    "address_label": {
        "labels": [
            {
                "address": "0xeeeeeeeeeeeeeeeeeeeeeeeeeeeeeeeeeeeeeeee",
                "label": "Ether"
            },
            {
                "address": "0x62f5a67524771b8cd2081c0880bcf49ca938ca7f",
                "label": "KUCOIN"
            },
            {
                "address": "0x689c56aef474df92d44a1b70850f808488f9769c",
                "label": "KuCoin 2"
            },
            {
                "address": "0xb98d4c97425d9908e66e53a6fdf673acca0be986",
                "label": "ArcBlock: ABT Token"
            },
            {
                "address": "0x0000000000000000000000000000000000000001",
                "label": "Precompiled"
            },
            {
                "address": "0x0000000000000000000000000000000000000002",
                "label": "Precompiled"
            },
            {
                "address": "0x0000000000000000000000000000000000000003",
                "label": "Precompiled"
            },
            {
                "address": "0x0000000000000000000000000000000000000004",
                "label": "Precompiled"
            }
        ]
    },
    "trace": {
        "accountLabels": null,
        "dataMap": {
            "-1": {
                "invocation": {
                    "address": "0x62f5a67524771b8cd2081c0880bcf49ca938ca7f",
                    "callData": "",
                    "decodedMethod": null,
                    "errorInfo": "",
                    "fromAddress": "",
                    "gasUsed": 0,
                    "id": -1,
                    "methodDecoded": false,
                    "operation": "",
                    "output": "",
                    "revert": false,
                    "revertMessage": "",
                    "selector": "",
                    "status": false,
                    "value": ""
                },
                "nodeType": 0
            },
            "0": {
                "invocation": {
                    "address": "0xb98d4c97425d9908e66e53a6fdf673acca0be986",
                    "callData": "0x000000000000000000000000689c56aef474df92d44a1b70850f808488f9769c000000000000000000000000000000000000000000000006330fac0045018800",
                    "decodedMethod": {
                        "callParams": [
                            {
                                "name": "_to",
                                "type": "address",
                                "value": "0x689c56aef474df92d44a1b70850f808488f9769c"
                            },
                            {
                                "decimalAvailable": true,
                                "name": "_value",
                                "type": "uint256",
                                "value": "114,359,812,980,000,000,000"
                            }
                        ],
                        "constructorArguments": "",
                        "name": "transfer",
                        "returnParams": [
                            {
                                "name": "",
                                "type": "bool",
                                "value": true
                            }
                        ],
                        "signature": "transfer(address,uint256)"
                    },
                    "errorInfo": "",
                    "fromAddress": "0x62f5a67524771b8cd2081c0880bcf49ca938ca7f",
                    "gasUsed": 22373,
                    "id": 0,
                    "methodDecoded": true,
                    "operation": "CALL",
                    "output": "0x0000000000000000000000000000000000000000000000000000000000000001",
                    "revert": false,
                    "revertMessage": "",
                    "selector": "0xa9059cbb",
                    "status": true,
                    "value": "0"
                },
                "nodeType": 0
            },
            "1": {
                "event": {
                    "contract": "0xb98d4c97425d9908e66e53a6fdf673acca0be986",
                    "decodedLog": {
                        "name": "Transfer",
                        "params": [
                            {
                                "name": "from",
                                "type": "address",
                                "value": "0x62f5a67524771b8cd2081c0880bcf49ca938ca7f"
                            },
                            {
                                "name": "to",
                                "type": "address",
                                "value": "0x689c56aef474df92d44a1b70850f808488f9769c"
                            },
                            {
                                "decimalAvailable": true,
                                "name": "value",
                                "type": "uint256",
                                "value": "114,359,812,980,000,000,000"
                            }
                        ],
                        "signature": "Transfer(address,address,uint256)"
                    },
                    "id": 1,
                    "logData": "0x000000000000000000000000000000000000000000000006330fac0045018800",
                    "logDecoded": true,
                    "operation": "EVENT",
                    "revert": false,
                    "status": true,
                    "topics": [
                        "0xddf252ad1be2c89b69c2b068fc378daa952ba7f163c4a11628f55a4df523b3ef",
                        "0x00000000000000000000000062f5a67524771b8cd2081c0880bcf49ca938ca7f",
                        "0x000000000000000000000000689c56aef474df92d44a1b70850f808488f9769c"
                    ]
                },
                "nodeType": 1
            }
        },
        "gasFlame": [
            {
                "children": [
                    {
                        "children": [
                            {
                                "children": [],
                                "depth": 0,
                                "name": "Initial Gas",
                                "value": 23256
                            },
                            {
                                "children": [],
                                "depth": 0,
                                "name": "Executed Gas",
                                "value": 14117
                            }
                        ],
                        "depth": -1,
                        "name": "Actual Gas Used",
                        "value": 22373
                    },
                    {
                        "children": [],
                        "depth": -1,
                        "name": "Refunded Gas",
                        "value": 15000
                    }
                ],
                "depth": -2,
                "name": "Total Gas",
                "value": 37373
            }
        ],
        "isConfirmed": true,
        "mainTrace": [
            {
                "children": [
                    {
                        "children": [
                            {
                                "children": [],
                                "depth": 1,
                                "id": 1,
                                "order": 1
                            }
                        ],
                        "depth": 0,
                        "id": 0,
                        "order": 0
                    }
                ],
                "depth": -1,
                "id": -1,
                "order": -1
            }
        ],
        "mainTraceNodeCount": 2,
        "parentIdMap": {
            "0": -1,
            "1": 0
        },
        "tidyTrace": [
            {
                "children": [
                    {
                        "children": [
                            {
                                "children": [],
                                "depth": 1,
                                "id": 1,
                                "order": 1
                            }
                        ],
                        "depth": 0,
                        "id": 0,
                        "order": 0
                    }
                ],
                "depth": -1,
                "id": -1,
                "order": -1
            }
        ],
        "tidyTraceNodeCount": 2
    },
    "state_change": {
        "stateChanges": [
            {
                "address": "0xb98d4c97425d9908e66e53a6fdf673acca0be986",
                "erc": "ERC-20",
                "slots": [
                    {
                        "current": "0x0000000000000000000000000000000000000000000000000000000000000000",
                        "key": "0x2b55bbfad3aa2dce75d327ecc10fd1a87bca47ec856bf1558ac5839b40f135ea",
                        "prev": "0x000000000000000000000000000000000000000000000006330fac0045018800"
                    },
                    {
                        "current": "0x000000000000000000000000000000000000000000006403b5d1475dde43cf93",
                        "key": "0x62dc4eddbaa737545df9c6957500778be4ad7b4c958db2e60510c5323782ab51",
                        "prev": "0x0000000000000000000000000000000000000000000063fd82c19b5d99424793"
                    }
                ],
                "storageVariables": [
                    {
                        "name": "balances",
                        "type": "mapping(address => uint256)",
                        "value": {
                            "pairs": [
                                {
                                    "key": "0x62f5a67524771b8cd2081c0880bcf49ca938ca7f",
                                    "value": {
                                        "current": "0",
                                        "prev": "114359812980000000000",
                                        "typeTag": 1
                                    }
                                },
                                {
                                    "key": "0x689c56aef474df92d44a1b70850f808488f9769c",
                                    "value": {
                                        "current": "472305089850445134024595",
                                        "prev": "472190730037465134024595",
                                        "typeTag": 1
                                    }
                                }
                            ],
                            "typeTag": 4
                        }
                    }
                ]
            }
        ]
    }
}