{
    "balance_change": {
        "balanceChanges": [
            {
                "account": "0xd475fd4722a7d9a22a2d033e685429aaa6f953b0",
                "assets": [
                    {
                        "address": "0xeeeeeeeeeeeeeeeeeeeeeeeeeeeeeeeeeeeeeeee",
                        "amount": "0.00069",
                        "iconUrl": "https://assets.blocksec.com/image/1663669189317-3.png",
                        "isERC1155": false,
                        "isERC721": false,
                        "sign": false,
                        "value": "1.1579856000000000063"
                    },
                    {
                        "address": "0x84162fe2e695fedbf4d3bca1c3458fb616e44735",
                        "amount": "1",
                        "iconUrl": "",
                        "isERC1155": true,
                        "isERC721": false,
                        "sign": true,
                        "tokenID": "0",
                        "value": ""
                    }
                ]
            },
            {
                "account": "0x0000000000000000000000000000000000000000",
                "assets": [
                    {
                        "address": "0x84162fe2e695fedbf4d3bca1c3458fb616e44735",
                        "amount": "1",
                        "iconUrl": "",
                        "isERC1155": true,
                        "isERC721": false,
                        "sign": false,
                        "tokenID": "0",
                        "value": ""
                    }
                ]
            },
            {
                "account": "0x138c3d30a724de380739aad9ec94e59e613a9008",
                "assets": [
                    {
                        "address": "0xeeeeeeeeeeeeeeeeeeeeeeeeeeeeeeeeeeeeeeee",
                        "amount": "0.00069",
                        "iconUrl": "https://assets.blocksec.com/image/1663669189317-3.png",
                        "isERC1155": false,
                        "isERC721": false,
                        "sign": true,
                        "value": "1.1579856000000000063"
                    }
                ]
            }
        ]
    },
    "profile": {
        "basic_info": {
            "baseFee": "21.043762861",
            "blockNumber": 16823049,
            "callData": "0x98a6e993000000000000000000000000000000000000000000000000000000000000004000000000000000000000000000000000000000000000000000000000000001e0000000000000000000000000d475fd4722a7d9a22a2d033e685429aaa6f953b00000000000000000000000000000000000000000000000000000000000000000000000000000000000000000000000000000000000000000000000000000000000000000000000000000000000000000000000000000000000000000000000000000000000000000000000000000000000000000000000000000000000000000000000000000000000000000000000000000000000000000000000000000018000000000000000000000000000000000000000000000000000000000000000010000000000000000000000000000000000000000000000000002738d24e52000000000000000000000000000eeeeeeeeeeeeeeeeeeeeeeeeeeeeeeeeeeeeeeee00000000000000000000000000000000000000000000000000000000000000000000000000000000000000000000000000000000000000000000000076db9d7fbc238c4f5f6ea5eb1acaf42b01d7070923eef2661391da43444b0cff1c6ab11c000000000000000000000000000000000000000000000000000000000000000000000000000000000000000000000000000000000000000000000000000000415f60a7b8ef8ddc4f31bf308dce5569106c1d32473be342757158a95c4cfd1e1c6532f95e4fbf849f1cc11dd2488171b294bcc61f0e74aed92d87c345b9b2ad971c00000000000000000000000000000000000000000000000000000000000000",
            "debugEnable": true,
            "errorInfo": "",
            "eventCount": 3,
            "feeRecipient": "0x199d5ed7f45f4ee35960cf22eade2076e95b253f",
            "formatValue": "0.00069",
            "gasLimit": 157678,
            "gasPrice": "23.210219922",
            "gasUsed": 150703,
            "intTxnCount": 4,
            "internalRevert": false,
            "internalRevertMessage": "",
            "isContractCreation": false,
            "isFlashloan": false,
            "maxFee": "35.833542939",
            "nonce": 4,
            "overwritedBlockNumber": -1,
            "priorityFee": "2.166457061",
            "receiver": "0x84162fe2e695fedbf4d3bca1c3458fb616e44735",
            "revertMessage": "",
            "sender": "0xd475fd4722a7d9a22a2d033e685429aaa6f953b0",
            "simulationEnable": true,
            "sourceTxnHash": "0x03a3f87b2f5249bd8c32d3e43308430261ecfb24c864ca95adaeec2b80f5938e",
            "status": true,
            "timestamp": "2023-03-14T01:53:11Z",
            "transactionFee": "0.003497849772905166",
            "txnHash": "0x03a3f87b2f5249bd8c32d3e43308430261ecfb24c864ca95adaeec2b80f5938e",
            "txnIndex": 31,
            "type": 2,
            "value": "690000000000000"
        },
        "fund_flow": [
            {
                "amount": "0.00069",
                "from": "0xd475fd4722a7d9a22a2d033e685429aaa6f953b0",
                "id": 1,
                "isERC1155": false,
                "isERC721": false,
                "isReverted": false,
                "order": 1,
                "to": "0x84162fe2e695fedbf4d3bca1c3458fb616e44735",
                "token": "0xeeeeeeeeeeeeeeeeeeeeeeeeeeeeeeeeeeeeeeee"
            },
            {
                "amount": "1",
                "from": "0x0000000000000000000000000000000000000000",
                "id": 2,
                "isERC1155": true,
                "isERC721": false,
                "isReverted": false,
                "order": 2,
                "to": "0xd475fd4722a7d9a22a2d033e685429aaa6f953b0",
                "token": "0x84162fe2e695fedbf4d3bca1c3458fb616e44735",
                "tokenID": "0"
            },
            {
                "amount": "0.00069",
                "from": "0x84162fe2e695fedbf4d3bca1c3458fb616e44735",
                "id": 3,
                "isERC1155": false,
                "isERC721": false,
                "isReverted": false,
                "order": 3,
                "to": "0x138c3d30a724de380739aad9ec94e59e613a9008",
                "token": "0xeeeeeeeeeeeeeeeeeeeeeeeeeeeeeeeeeeeeeeee"
            }
        ],
        "token_infos": [
            {
                "address": "0xc02aaa39b223fe8d0a0e5c4f27ead9083c756cc2",
                "decimals": 18
            },
            {
                "address": "0xeeeeeeeeeeeeeeeeeeeeeeeeeeeeeeeeeeeeeeee",
                "decimals": 18
            }
        ]
    },
    "address_label": {
        "labels": [
            {
                "address": "0xeeeeeeeeeeeeeeeeeeeeeeeeeeeeeeeeeeeeeeee",
                "label": "Ether"
            },
            {
                "address": "0x138c3d30a724de380739aad9ec94e59e613a9008",
                "label": "Mirror: Treasury"
            },
            {
                "address": "0x0000000000000000000000000000000000000000",
                "label": "Null Address"
            },
            {
                "address": "0xab1a1c03be678b5d55cec01322f7dac5a2bc7afc",
                "label": "TokenERC1155"
            },
            {
                "address": "0x0000000000000000000000000000000000000002",
                "label": "Precompiled"
            },
            {
                "address": "0x0000000000000000000000000000000000000003",
                "label": "Precompiled"
            },
            {
                "address": "0x0000000000000000000000000000000000000004",
                "label": "Precompiled"
            },
            {
                "address": "0x84162fe2e695fedbf4d3bca1c3458fb616e44735",
                "label": "Mirror Community NFTs (M-NFTS)"
            },
            {
                "address": "0x1171b858777120a59a6cc8148edda8982f187cd8",
                "label": "TributaryRegistry"
            },
            {
                "address": "0x0000000000000000000000000000000000000001",
                "label": "Precompiled"
            }
        ]
    },
    "trace": {
        "accountLabels": null,
        "dataMap": {
            "-1": {
                "invocation": {
                    "address": "0xd475fd4722a7d9a22a2d033e685429aaa6f953b0",
                    "callData": "",
                    "decodedMethod": null,
                    "errorInfo": "",
                    "fromAddress": "",
                    "gasUsed": 0,
                    "id": -1,
                    "methodDecoded": false,
                    "operation": "",
                    "output": "",
                    "revert": false,
                    "revertMessage": "",
                    "selector": "",
                    "status": false,
                    "value": ""
                },
                "nodeType": 0
            },
            "0": {
                "invocation": {
                    "address": "0x84162fe2e695fedbf4d3bca1c3458fb616e44735",
                    "callData": "0x000000000000000000000000000000000000000000000000000000000000004000000000000000000000000000000000000000000000000000000000000001e0000000000000000000000000d475fd4722a7d9a22a2d033e685429aaa6f953b00000000000000000000000000000000000000000000000000000000000000000000000000000000000000000000000000000000000000000000000000000000000000000000000000000000000000000000000000000000000000000000000000000000000000000000000000000000000000000000000000000000000000000000000000000000000000000000000000000000000000000000000000000018000000000000000000000000000000000000000000000000000000000000000010000000000000000000000000000000000000000000000000002738d24e52000000000000000000000000000eeeeeeeeeeeeeeeeeeeeeeeeeeeeeeeeeeeeeeee00000000000000000000000000000000000000000000000000000000000000000000000000000000000000000000000000000000000000000000000076db9d7fbc238c4f5f6ea5eb1acaf42b01d7070923eef2661391da43444b0cff1c6ab11c000000000000000000000000000000000000000000000000000000000000000000000000000000000000000000000000000000000000000000000000000000415f60a7b8ef8ddc4f31bf308dce5569106c1d32473be342757158a95c4cfd1e1c6532f95e4fbf849f1cc11dd2488171b294bcc61f0e74aed92d87c345b9b2ad971c00000000000000000000000000000000000000000000000000000000000000",
                    "decodedMethod": {
                        "callParams": [
                            {
                                "name": "_req",
                                "type": "(address,address,uint256,address,uint256,string,uint256,uint256,address,uint128,uint128,bytes32)",
                                "value": [
                                    {
                                        "name": "to",
                                        "type": "address",
                                        "value": "0xd475fd4722a7d9a22a2d033e685429aaa6f953b0"
                                    },
                                    {
                                        "name": "royaltyRecipient",
                                        "type": "address",
                                        "value": "0x0000000000000000000000000000000000000000"
                                    },
                                    {
                                        "name": "royaltyBps",
                                        "type": "uint256",
                                        "value": "0"
                                    },
                                    {
                                        "name": "primarySaleRecipient",
                                        "type": "address",
                                        "value": "0x0000000000000000000000000000000000000000"
                                    },
                                    {
                                        "name": "tokenId",
                                        "type": "uint256",
                                        "value": "0"
                                    },
                                    {
                                        "name": "uri",
                                        "type": "string",
                                        "value": ""
                                    },
                                    {
                                        "name": "quantity",
                                        "type": "uint256",
                                        "value": "1"
                                    },
                                    {
                                        "name": "pricePerToken",
                                        "type": "uint256",
                                        "value": "690,000,000,000,000"
                                    },
                                    {
                                        "name": "currency",
                                        "type": "address",
                                        "value": "0xeeeeeeeeeeeeeeeeeeeeeeeeeeeeeeeeeeeeeeee"
                                    },
                                    {
                                        "name": "validityStartTimestamp",
                                        "type": "uint128",
                                        "value": "0"
                                    },
                                    {
                                        "name": "validityEndTimestamp",
                                        "type": "uint128",
                                        "value": "1,994,104,191"
                                    },
                                    {
                                        "name": "uid",
                                        "type": "bytes32",
                                        "value": "0xbc238c4f5f6ea5eb1acaf42b01d7070923eef2661391da43444b0cff1c6ab11c"
                                    }
                                ]
                            },
                            {
                                "name": "_signature",
                                "type": "bytes",
                                "value": "0x5f60a7b8ef8ddc4f31bf308dce5569106c1d32473be342757158a95c4cfd1e1c6532f95e4fbf849f1cc11dd2488171b294bcc61f0e74aed92d87c345b9b2ad971c"
                            }
                        ],
                        "constructorArguments": "",
                        "name": "mintWithSignature",
                        "returnParams": [],
                        "signature": "mintWithSignature((address,address,uint256,address,uint256,string,uint256,uint256,address,uint128,uint128,bytes32),bytes)"
                    },
                    "errorInfo": "",
                    "fromAddress": "0xd475fd4722a7d9a22a2d033e685429aaa6f953b0",
                    "gasUsed": 150703,
                    "id": 0,
                    "methodDecoded": true,
                    "operation": "CALL",
                    "output": "",
                    "revert": false,
                    "revertMessage": "",
                    "selector": "0x98a6e993",
                    "status": true,
                    "value": "0.00069"
                },
                "nodeType": 0
            },
            "1": {
                "invocation": {
                    "address": "0xab1a1c03be678b5d55cec01322f7dac5a2bc7afc",
                    "callData": "0x000000000000000000000000000000000000000000000000000000000000004000000000000000000000000000000000000000000000000000000000000001e0000000000000000000000000d475fd4722a7d9a22a2d033e685429aaa6f953b00000000000000000000000000000000000000000000000000000000000000000000000000000000000000000000000000000000000000000000000000000000000000000000000000000000000000000000000000000000000000000000000000000000000000000000000000000000000000000000000000000000000000000000000000000000000000000000000000000000000000000000000000000018000000000000000000000000000000000000000000000000000000000000000010000000000000000000000000000000000000000000000000002738d24e52000000000000000000000000000eeeeeeeeeeeeeeeeeeeeeeeeeeeeeeeeeeeeeeee00000000000000000000000000000000000000000000000000000000000000000000000000000000000000000000000000000000000000000000000076db9d7fbc238c4f5f6ea5eb1acaf42b01d7070923eef2661391da43444b0cff1c6ab11c000000000000000000000000000000000000000000000000000000000000000000000000000000000000000000000000000000000000000000000000000000415f60a7b8ef8ddc4f31bf308dce5569106c1d32473be342757158a95c4cfd1e1c6532f95e4fbf849f1cc11dd2488171b294bcc61f0e74aed92d87c345b9b2ad971c00000000000000000000000000000000000000000000000000000000000000",
                    "decodedMethod": {
                        "callParams": [
                            {
                                "name": "_req",
                                "type": "(address,address,uint256,address,uint256,string,uint256,uint256,address,uint128,uint128,bytes32)",
                                "value": [
                                    {
                                        "name": "to",
                                        "type": "address",
                                        "value": "0xd475fd4722a7d9a22a2d033e685429aaa6f953b0"
                                    },
                                    {
                                        "name": "royaltyRecipient",
                                        "type": "address",
                                        "value": "0x0000000000000000000000000000000000000000"
                                    },
                                    {
                                        "name": "royaltyBps",
                                        "type": "uint256",
                                        "value": "0"
                                    },
                                    {
                                        "name": "primarySaleRecipient",
                                        "type": "address",
                                        "value": "0x0000000000000000000000000000000000000000"
                                    },
                                    {
                                        "name": "tokenId",
                                        "type": "uint256",
                                        "value": "0"
                                    },
                                    {
                                        "name": "uri",
                                        "type": "string",
                                        "value": ""
                                    },
                                    {
                                        "name": "quantity",
                                        "type": "uint256",
                                        "value": "1"
                                    },
                                    {
                                        "name": "pricePerToken",
                                        "type": "uint256",
                                        "value": "690,000,000,000,000"
                                    },
                                    {
                                        "name": "currency",
                                        "type": "address",
                                        "value": "0xeeeeeeeeeeeeeeeeeeeeeeeeeeeeeeeeeeeeeeee"
                                    },
                                    {
                                        "name": "validityStartTimestamp",
                                        "type": "uint128",
                                        "value": "0"
                                    },
                                    {
                                        "name": "validityEndTimestamp",
                                        "type": "uint128",
                                        "value": "1,994,104,191"
                                    },
                                    {
                                        "name": "uid",
                                        "type": "bytes32",
                                        "value": "0xbc238c4f5f6ea5eb1acaf42b01d7070923eef2661391da43444b0cff1c6ab11c"
                                    }
                                ]
                            },
                            {
                                "name": "_signature",
                                "type": "bytes",
                                "value": "0x5f60a7b8ef8ddc4f31bf308dce5569106c1d32473be342757158a95c4cfd1e1c6532f95e4fbf849f1cc11dd2488171b294bcc61f0e74aed92d87c345b9b2ad971c"
                            }
                        ],
                        "constructorArguments": "",
                        "name": "mintWithSignature",
                        "returnParams": [],
                        "signature": "mintWithSignature((address,address,uint256,address,uint256,string,uint256,uint256,address,uint128,uint128,bytes32),bytes)"
                    },
                    "errorInfo": "",
                    "fromAddress": "0x84162fe2e695fedbf4d3bca1c3458fb616e44735",
                    "gasUsed": 125382,
                    "id": 1,
                    "methodDecoded": true,
                    "operation": "DELEGATECALL",
                    "output": "",
                    "revert": false,
                    "revertMessage": "",
                    "selector": "0x98a6e993",
                    "status": true,
                    "value": "0.00069"
                },
                "nodeType": 0
            },
            "2": {
                "invocation": {
                    "address": "0x0000000000000000000000000000000000000001",
                    "callData": "0x4258e2e1f7b28a1381c84bdfad130c9bbe1cc9634e17634b6cff71cd000000000000000000000000000000000000000000000000000000000000001c5f60a7b8ef8ddc4f31bf308dce5569106c1d32473be342757158a95c4cfd1e1c6532f95e4fbf849f1cc11dd2488171b294bcc61f0e74aed92d87c345b9b2ad97",
                    "decodedMethod": {
                        "callParams": [
                            {
                                "name": "hash",
                                "type": "bytes32",
                                "value": "0x6da395794258e2e1f7b28a1381c84bdfad130c9bbe1cc9634e17634b6cff71cd"
                            },
                            {
                                "name": "v",
                                "type": "uint256",
                                "value": "28"
                            },
                            {
                                "name": "r",
                                "type": "bytes32",
                                "value": "0x5f60a7b8ef8ddc4f31bf308dce5569106c1d32473be342757158a95c4cfd1e1c"
                            },
                            {
                                "name": "s",
                                "type": "bytes32",
                                "value": "0x6532f95e4fbf849f1cc11dd2488171b294bcc61f0e74aed92d87c345b9b2ad97"
                            }
                        ],
                        "constructorArguments": "",
                        "name": "ecrecover",
                        "returnParams": [
                            {
                                "name": "",
                                "type": "address",
                                "value": "0x5be12d4b22eaa4354b3d6f636df047ab7a2a0af8"
                            }
                        ],
                        "signature": "ecrecover(bytes32,uint256,bytes32,bytes32)"
                    },
                    "errorInfo": "",
                    "fromAddress": "0x84162fe2e695fedbf4d3bca1c3458fb616e44735",
                    "gasUsed": 3000,
                    "id": 2,
                    "methodDecoded": true,
                    "operation": "STATICCALL",
                    "output": "0x0000000000000000000000005be12d4b22eaa4354b3d6f636df047ab7a2a0af8",
                    "revert": false,
                    "revertMessage": "",
                    "selector": "0x6da39579",
                    "status": true,
                    "value": "0"
                },
                "nodeType": 0
            },
            "3": {
                "event": {
                    "contract": "0x84162fe2e695fedbf4d3bca1c3458fb616e44735",
                    "decodedLog": {
                        "name": "TransferSingle",
                        "params": [
                            {
                                "name": "operator",
                                "type": "address",
                                "value": "0xd475fd4722a7d9a22a2d033e685429aaa6f953b0"
                            },
                            {
                                "name": "from",
                                "type": "address",
                                "value": "0x0000000000000000000000000000000000000000"
                            },
                            {
                                "name": "to",
                                "type": "address",
                                "value": "0xd475fd4722a7d9a22a2d033e685429aaa6f953b0"
                            },
                            {
                                "name": "id",
                                "type": "uint256",
                                "value": "0"
                            },
                            {
                                "name": "value",
                                "type": "uint256",
                                "value": "1"
                            }
                        ],
                        "signature": "TransferSingle(address,address,address,uint256,uint256)"
                    },
                    "id": 3,
                    "logData": "0x00000000000000000000000000000000000000000000000000000000000000000000000000000000000000000000000000000000000000000000000000000001",
                    "logDecoded": true,
                    "operation": "EVENT",
                    "revert": false,
                    "status": true,
                    "topics": [
                        "0xc3d58168c5ae7397731d063d5bbf3d657854427343f4c083240f7aacaa2d0f62",
                        "0x000000000000000000000000d475fd4722a7d9a22a2d033e685429aaa6f953b0",
                        "0x0000000000000000000000000000000000000000000000000000000000000000",
                        "0x000000000000000000000000d475fd4722a7d9a22a2d033e685429aaa6f953b0"
                    ]
                },
                "nodeType": 1
            },
            "4": {
                "event": {
                    "contract": "0x84162fe2e695fedbf4d3bca1c3458fb616e44735",
                    "decodedLog": {
                        "name": "TokensMinted",
                        "params": [
                            {
                                "name": "mintedTo",
                                "type": "address",
                                "value": "0xd475fd4722a7d9a22a2d033e685429aaa6f953b0"
                            },
                            {
                                "name": "tokenIdMinted",
                                "type": "uint256",
                                "value": "0"
                            },
                            {
                                "name": "uri",
                                "type": "string",
                                "value": "ipfs://Qme5hLRqEBnQ77FJxwKRjaq6ApVwDbAqr9au21CCWMrttx"
                            },
                            {
                                "name": "quantityMinted",
                                "type": "uint256",
                                "value": "1"
                            }
                        ],
                        "signature": "TokensMinted(address,uint256,string,uint256)"
                    },
                    "id": 4,
                    "logData": "0x000000000000000000000000000000000000000000000000000000000000004000000000000000000000000000000000000000000000000000000000000000010000000000000000000000000000000000000000000000000000000000000035697066733a2f2f516d6535684c527145426e513737464a78774b526a61713641705677446241717239617532314343574d727474780000000000000000000000",
                    "logDecoded": true,
                    "operation": "EVENT",
                    "revert": false,
                    "status": true,
                    "topics": [
                        "0x04133ee4cb027e1c5fce5e3481289278a93bd16a65a3b65b428a6d239e706bfb",
                        "0x000000000000000000000000d475fd4722a7d9a22a2d033e685429aaa6f953b0",
                        "0x0000000000000000000000000000000000000000000000000000000000000000"
                    ]
                },
                "nodeType": 1
            },
            "5": {
                "invocation": {
                    "address": "0x138c3d30a724de380739aad9ec94e59e613a9008",
                    "callData": "0x",
                    "decodedMethod": null,
                    "errorInfo": "",
                    "fromAddress": "0x84162fe2e695fedbf4d3bca1c3458fb616e44735",
                    "gasUsed": 7934,
                    "id": 5,
                    "methodDecoded": false,
                    "operation": "CALL",
                    "output": "",
                    "revert": false,
                    "revertMessage": "",
                    "selector": "fallback",
                    "status": true,
                    "value": "0.00069"
                },
                "nodeType": 0
            },
            "6": {
                "invocation": {
                    "address": "0x1171b858777120a59a6cc8148edda8982f187cd8",
                    "callData": "0x00000000000000000000000084162fe2e695fedbf4d3bca1c3458fb616e44735",
                    "decodedMethod": {
                        "callParams": [
                            {
                                "name": "",
                                "type": "address",
                                "value": "0x84162fe2e695fedbf4d3bca1c3458fb616e44735"
                            }
                        ],
                        "constructorArguments": "",
                        "name": "producerToTributary",
                        "returnParams": [
                            {
                                "name": "",
                                "type": "address",
                                "value": "0x0000000000000000000000000000000000000000"
                            }
                        ],
                        "signature": "producerToTributary(address)"
                    },
                    "errorInfo": "",
                    "fromAddress": "0x138c3d30a724de380739aad9ec94e59e613a9008",
                    "gasUsed": 2570,
                    "id": 6,
                    "methodDecoded": true,
                    "operation": "CALL",
                    "output": "0x0000000000000000000000000000000000000000000000000000000000000000",
                    "revert": false,
                    "revertMessage": "",
                    "selector": "0xa5751856",
                    "status": true,
                    "value": "0"
                },
                "nodeType": 0
            },
            "7": {
                "event": {
                    "contract": "0x84162fe2e695fedbf4d3bca1c3458fb616e44735",
                    "decodedLog": {
                        "name": "TokensMintedWithSignature",
                        "params": [
                            {
                                "name": "signer",
                                "type": "address",
                                "value": "0x5be12d4b22eaa4354b3d6f636df047ab7a2a0af8"
                            },
                            {
                                "name": "mintedTo",
                                "type": "address",
                                "value": "0xd475fd4722a7d9a22a2d033e685429aaa6f953b0"
                            },
                            {
                                "name": "tokenIdMinted",
                                "type": "uint256",
                                "value": "0"
                            },
                            {
                                "name": "mintRequest",
                                "type": "(address,address,uint256,address,uint256,string,uint256,uint256,address,uint128,uint128,bytes32)",
                                "value": [
                                    {
                                        "name": "to",
                                        "type": "address",
                                        "value": "0xd475fd4722a7d9a22a2d033e685429aaa6f953b0"
                                    },
                                    {
                                        "name": "royaltyRecipient",
                                        "type": "address",
                                        "value": "0x0000000000000000000000000000000000000000"
                                    },
                                    {
                                        "name": "royaltyBps",
                                        "type": "uint256",
                                        "value": "0"
                                    },
                                    {
                                        "name": "primarySaleRecipient",
                                        "type": "address",
                                        "value": "0x0000000000000000000000000000000000000000"
                                    },
                                    {
                                        "name": "tokenId",
                                        "type": "uint256",
                                        "value": "0"
                                    },
                                    {
                                        "name": "uri",
                                        "type": "string",
                                        "value": ""
                                    },
                                    {
                                        "name": "quantity",
                                        "type": "uint256",
                                        "value": "1"
                                    },
                                    {
                                        "name": "pricePerToken",
                                        "type": "uint256",
                                        "value": "690,000,000,000,000"
                                    },
                                    {
                                        "name": "currency",
                                        "type": "address",
                                        "value": "0xeeeeeeeeeeeeeeeeeeeeeeeeeeeeeeeeeeeeeeee"
                                    },
                                    {
                                        "name": "validityStartTimestamp",
                                        "type": "uint128",
                                        "value": "0"
                                    },
                                    {
                                        "name": "validityEndTimestamp",
                                        "type": "uint128",
                                        "value": "1,994,104,191"
                                    },
                                    {
                                        "name": "uid",
                                        "type": "bytes32",
                                        "value": "0xbc238c4f5f6ea5eb1acaf42b01d7070923eef2661391da43444b0cff1c6ab11c"
                                    }
                                ]
                            }
                        ],
                        "signature": "TokensMintedWithSignature(address,address,uint256,(address,address,uint256,address,uint256,string,uint256,uint256,address,uint128,uint128,bytes32))"
                    },
                    "id": 7,
                    "logData": "0x0000000000000000000000000000000000000000000000000000000000000020000000000000000000000000d475fd4722a7d9a22a2d033e685429aaa6f953b00000000000000000000000000000000000000000000000000000000000000000000000000000000000000000000000000000000000000000000000000000000000000000000000000000000000000000000000000000000000000000000000000000000000000000000000000000000000000000000000000000000000000000000000000000000000000000000000000000000000000000000000000000018000000000000000000000000000000000000000000000000000000000000000010000000000000000000000000000000000000000000000000002738d24e52000000000000000000000000000eeeeeeeeeeeeeeeeeeeeeeeeeeeeeeeeeeeeeeee00000000000000000000000000000000000000000000000000000000000000000000000000000000000000000000000000000000000000000000000076db9d7fbc238c4f5f6ea5eb1acaf42b01d7070923eef2661391da43444b0cff1c6ab11c0000000000000000000000000000000000000000000000000000000000000000",
                    "logDecoded": true,
                    "operation": "EVENT",
                    "revert": false,
                    "status": true,
                    "topics": [
                        "0x0b35afaf155daeef41cc46df86f058df2855c57d30ab134647a6b587e7cc8c39",
                        "0x0000000000000000000000005be12d4b22eaa4354b3d6f636df047ab7a2a0af8",
                        "0x000000000000000000000000d475fd4722a7d9a22a2d033e685429aaa6f953b0",
                        "0x0000000000000000000000000000000000000000000000000000000000000000"
                    ]
                },
                "nodeType": 1
            }
        },
        "gasFlame": [
            {
                "children": [
                    {
                        "children": [
                            {
                                "children": [],
                                "depth": 0,
                                "name": "Initial Gas",
                                "value": 25344
                            },
                            {
                                "children": [
                                    {
                                        "children": [
                                            {
                                                "children": [],
                                                "depth": 2,
                                                "name": "ecrecover",
                                                "value": 3000
                                            },
                                            {
                                                "children": [
                                                    {
                                                        "children": [],
                                                        "depth": 3,
                                                        "name": "producerToTributary",
                                                        "value": 2570
                                                    }
                                                ],
                                                "depth": 2,
                                                "name": "fallback",
                                                "value": 7934
                                            }
                                        ],
                                        "depth": 1,
                                        "name": "mintWithSignature",
                                        "value": 125382
                                    }
                                ],
                                "depth": 0,
                                "name": "Executed Gas",
                                "value": 128159
                            }
                        ],
                        "depth": -1,
                        "name": "Actual Gas Used",
                        "value": 150703
                    },
                    {
                        "children": [],
                        "depth": -1,
                        "name": "Refunded Gas",
                        "value": 2800
                    }
                ],
                "depth": -2,
                "name": "Total Gas",
                "value": 153503
            }
        ],
        "isConfirmed": true,
        "mainTrace": [
            {
                "children": [
                    {
                        "children": [
                            {
                                "children": [
                                    {
                                        "children": [],
                                        "depth": 2,
                                        "id": 2,
                                        "order": 2
                                    },
                                    {
                                        "children": [],
                                        "depth": 2,
                                        "id": 3,
                                        "order": 3
                                    },
                                    {
                                        "children": [],
                                        "depth": 2,
                                        "id": 4,
                                        "order": 4
                                    },
                                    {
                                        "children": [
                                            {
                                                "children": [],
                                                "depth": 3,
                                                "id": 6,
                                                "order": 6
                                            }
                                        ],
                                        "depth": 2,
                                        "id": 5,
                                        "order": 5
                                    },
                                    {
                                        "children": [],
                                        "depth": 2,
                                        "id": 7,
                                        "order": 7
                                    }
                                ],
                                "depth": 1,
                                "id": 1,
                                "order": 1
                            }
                        ],
                        "depth": 0,
                        "id": 0,
                        "order": 0
                    }
                ],
                "depth": -1,
                "id": -1,
                "order": -1
            }
        ],
        "mainTraceNodeCount": 8,
        "parentIdMap": {
            "0": -1,
            "1": 0,
            "2": 1,
            "3": 1,
            "4": 1,
            "5": 1,
            "6": 5,
            "7": 1
        },
        "tidyTrace": [
            {
                "children": [
                    {
                        "children": [
                            {
                                "children": [
                                    {
                                        "children": [],
                                        "depth": 2,
                                        "id": 3,
                                        "order": 3
                                    },
                                    {
                                        "children": [],
                                        "depth": 2,
                                        "id": 4,
                                        "order": 4
                                    },
                                    {
                                        "children": [
                                            {
                                                "children": [],
                                                "depth": 3,
                                                "id": 6,
                                                "order": 6
                                            }
                                        ],
                                        "depth": 2,
                                        "id": 5,
                                        "order": 5
                                    },
                                    {
                                        "children": [],
                                        "depth": 2,
                                        "id": 7,
                                        "order": 7
                                    }
                                ],
                                "depth": 1,
                                "id": 1,
                                "order": 1
                            }
                        ],
                        "depth": 0,
                        "id": 0,
                        "order": 0
                    }
                ],
                "depth": -1,
                "id": -1,
                "order": -1
            }
        ],
        "tidyTraceNodeCount": 7
    },
    "state_change": {
        "stateChanges": [
            {
                "address": "0x84162fe2e695fedbf4d3bca1c3458fb616e44735",
                "erc": "ERC-1155",
                "slots": [
                    {
                        "current": "0x0000000000000000000000000000000000000000000000000000000000000001",
                        "key": "0x29013e01cac672e72d03b783d9651f662b50adb700d0d02a99283d179a6561f1",
                        "prev": "0x0000000000000000000000000000000000000000000000000000000000000000"
                    },
                    {
                        "current": "0x000000000000000000000000000000000000000000000000000000000000d5ed",
                        "key": "0xe33998ff62f234a925b803b2d837cb316cde2dfcbc8c8f1f21fa7ed385b74c30",
                        "prev": "0x000000000000000000000000000000000000000000000000000000000000d5ec"
                    },
                    {
                        "current": "0x0000000000000000000000000000000000000000000000000000000000000001",
                        "key": "0x78f28b00407a10f0bccdf9d5246489b1f5ef8cdb5460be4d4f80e1900ecbd7ef",
                        "prev": "0x0000000000000000000000000000000000000000000000000000000000000000"
                    }
                ],
                "storageVariables": [
                    {
                        "name": "minted",
                        "type": "mapping(bytes32 => bool)",
                        "value": {
                            "pairs": [
                                {
                                    "key": "0xbc238c4f5f6ea5eb1acaf42b01d7070923eef2661391da43444b0cff1c6ab11c",
                                    "value": {
                                        "current": "true",
                                        "prev": "false",
                                        "typeTag": 1
                                    }
                                }
                            ],
                            "typeTag": 4
                        }
                    },
                    {
                        "name": "totalSupply",
                        "type": "mapping(uint256 => uint256)",
                        "value": {
                            "pairs": [
                                {
                                    "key": "0",
                                    "value": {
                                        "current": "54765",
                                        "prev": "54764",
                                        "typeTag": 1
                                    }
                                }
                            ],
                            "typeTag": 4
                        }
                    },
                    {
                        "name": "_balances",
                        "type": "mapping(uint256 => mapping(address => uint256))",
                        "value": {
                            "pairs": [
                                {
                                    "key": "0",
                                    "value": {
                                        "pairs": [
                                            {
                                                "key": "0xd475fd4722a7d9a22a2d033e685429aaa6f953b0",
                                                "value": {
                                                    "current": "1",
                                                    "prev": "0",
                                                    "typeTag": 1
                                                }
                                            }
                                        ],
                                        "typeTag": 4
                                    }
                                }
                            ],
                            "typeTag": 4
                        }
                    }
                ]
            }
        ]
    }
}