{
    "balance_change": {
        "balanceChanges": [
            {
                "account": "0x0ed70f92b87ceced51a9e472fcd8d93a54a11835",
                "assets": [
                    {
                        "address": "0xeeeeeeeeeeeeeeeeeeeeeeeeeeeeeeeeeeeeeeee",
                        "amount": "0.006142245370370371",
                        "iconUrl": "https://assets.blocksec.com/image/1663669189317-3.png",
                        "isERC1155": false,
                        "isERC721": false,
                        "sign": false,
                        "value": ""
                    },
                    {
                        "address": "0xf5b0a3efb8e8e4c201e2a935f110eaaf3ffecb8d",
                        "amount": "35,879",
                        "iconUrl": "",
                        "isERC1155": false,
                        "isERC721": false,
                        "sign": true,
                        "value": ""
                    }
                ]
            },
            {
                "account": "0xf4985070ce32b6b1994329df787d1acc9a2dd9e2",
                "assets": [
                    {
                        "address": "0xeeeeeeeeeeeeeeeeeeeeeeeeeeeeeeeeeeeeeeee",
                        "amount": "0.00026104542824074",
                        "iconUrl": "https://assets.blocksec.com/image/1663669189317-3.png",
                        "isERC1155": false,
                        "isERC721": false,
                        "sign": true,
                        "value": ""
                    },
                    {
                        "address": "0xf5b0a3efb8e8e4c201e2a935f110eaaf3ffecb8d",
                        "amount": "35,879",
                        "iconUrl": "",
                        "isERC1155": false,
                        "isERC721": false,
                        "sign": false,
                        "value": ""
                    }
                ]
            },
            {
                "account": "0x83ea8db47d76ea5b43ff8fcec40fae8e1699fe5f",
                "assets": [
                    {
                        "address": "0xeeeeeeeeeeeeeeeeeeeeeeeeeeeeeeeeeeeeeeee",
                        "amount": "0.005881199942129631",
                        "iconUrl": "https://assets.blocksec.com/image/1663669189317-3.png",
                        "isERC1155": false,
                        "isERC721": false,
                        "sign": true,
                        "value": ""
                    }
                ]
            }
        ]
    },
    "profile": {
        "basic_info": {
            "baseFee": "",
            "blockNumber": 8188873,
            "callData": "0x59d667a5000000000000000000000000f5b0a3efb8e8e4c201e2a935f110eaaf3ffecb8d0000000000000000000000000000000000000000000000000000000000008c27",
            "debugEnable": true,
            "errorInfo": "",
            "eventCount": 3,
            "feeRecipient": "0xea674fdde714fd979de3edf0f56aa9716b898ec8",
            "formatValue": "0.006179282407407407",
            "gasLimit": 235655,
            "gasPrice": "1",
            "gasUsed": 93762,
            "intTxnCount": 5,
            "internalRevert": false,
            "internalRevertMessage": "",
            "isContractCreation": false,
            "isFlashloan": false,
            "maxFee": "",
            "nonce": 117,
            "overwritedBlockNumber": -1,
            "priorityFee": "",
            "receiver": "0xf4985070ce32b6b1994329df787d1acc9a2dd9e2",
            "revertMessage": "",
            "sender": "0x0ed70f92b87ceced51a9e472fcd8d93a54a11835",
            "simulationEnable": true,
            "sourceTxnHash": "0x034ce41c98081663451f687324834f8b00d3fda7da55705cf6d98c7755c5cbe7",
            "status": true,
            "timestamp": "2019-07-20T17:15:46Z",
            "transactionFee": "0.000093762",
            "txnHash": "0x034ce41c98081663451f687324834f8b00d3fda7da55705cf6d98c7755c5cbe7",
            "txnIndex": 127,
            "type": 0,
            "value": "6179282407407407"
        },
        "fund_flow": [
            {
                "amount": "0.006179282407407407",
                "from": "0x0ed70f92b87ceced51a9e472fcd8d93a54a11835",
                "id": 1,
                "isERC1155": false,
                "isERC721": false,
                "isReverted": false,
                "order": 1,
                "to": "0xf4985070ce32b6b1994329df787d1acc9a2dd9e2",
                "token": "0xeeeeeeeeeeeeeeeeeeeeeeeeeeeeeeeeeeeeeeee"
            },
            {
                "amount": "0.005881199942129631",
                "from": "0xf4985070ce32b6b1994329df787d1acc9a2dd9e2",
                "id": 2,
                "isERC1155": false,
                "isERC721": false,
                "isReverted": false,
                "order": 2,
                "to": "0x83ea8db47d76ea5b43ff8fcec40fae8e1699fe5f",
                "token": "0xeeeeeeeeeeeeeeeeeeeeeeeeeeeeeeeeeeeeeeee"
            },
            {
                "amount": "0.000037037037037036",
                "from": "0xf4985070ce32b6b1994329df787d1acc9a2dd9e2",
                "id": 3,
                "isERC1155": false,
                "isERC721": false,
                "isReverted": false,
                "order": 3,
                "to": "0x0ed70f92b87ceced51a9e472fcd8d93a54a11835",
                "token": "0xeeeeeeeeeeeeeeeeeeeeeeeeeeeeeeeeeeeeeeee"
            },
            {
                "amount": "35,879",
                "from": "0xf4985070ce32b6b1994329df787d1acc9a2dd9e2",
                "id": 4,
                "isERC1155": false,
                "isERC721": false,
                "isReverted": false,
                "order": 4,
                "to": "0x0ed70f92b87ceced51a9e472fcd8d93a54a11835",
                "token": "0xf5b0a3efb8e8e4c201e2a935f110eaaf3ffecb8d"
            }
        ],
        "token_infos": [
            {
                "address": "0xc02aaa39b223fe8d0a0e5c4f27ead9083c756cc2",
                "decimals": 18
            },
            {
                "address": "0xf5b0a3efb8e8e4c201e2a935f110eaaf3ffecb8d",
                "decimals": -1
            },
            {
                "address": "0xeeeeeeeeeeeeeeeeeeeeeeeeeeeeeeeeeeeeeeee",
                "decimals": 18
            }
        ]
    },
    "address_label": {
        "labels": [
            {
                "address": "0xeeeeeeeeeeeeeeeeeeeeeeeeeeeeeeeeeeeeeeee",
                "label": "Ether"
            },
            {
                "address": "0xf4985070ce32b6b1994329df787d1acc9a2dd9e2",
                "label": "Axie Infinity: Axie Clock Auction"
            },
            {
                "address": "0xf5b0a3efb8e8e4c201e2a935f110eaaf3ffecb8d",
                "label": "Axie Infinity: AXIE Token"
            },
            {
                "address": "0x0000000000000000000000000000000000000001",
                "label": "Precompiled"
            },
            {
                "address": "0x0000000000000000000000000000000000000002",
                "label": "Precompiled"
            },
            {
                "address": "0x0000000000000000000000000000000000000003",
                "label": "Precompiled"
            },
            {
                "address": "0x0000000000000000000000000000000000000004",
                "label": "Precompiled"
            }
        ]
    },
    "trace": {
        "accountLabels": null,
        "dataMap": {
            "-1": {
                "invocation": {
                    "address": "0x0ed70f92b87ceced51a9e472fcd8d93a54a11835",
                    "callData": "",
                    "decodedMethod": null,
                    "errorInfo": "",
                    "fromAddress": "",
                    "gasUsed": 0,
                    "id": -1,
                    "methodDecoded": false,
                    "operation": "",
                    "output": "",
                    "revert": false,
                    "revertMessage": "",
                    "selector": "",
                    "status": false,
                    "value": ""
                },
                "nodeType": 0
            },
            "0": {
                "invocation": {
                    "address": "0xf4985070ce32b6b1994329df787d1acc9a2dd9e2",
                    "callData": "0x000000000000000000000000f5b0a3efb8e8e4c201e2a935f110eaaf3ffecb8d0000000000000000000000000000000000000000000000000000000000008c27",
                    "decodedMethod": {
                        "callParams": [
                            {
                                "name": "_nftAddress",
                                "type": "address",
                                "value": "0xf5b0a3efb8e8e4c201e2a935f110eaaf3ffecb8d"
                            },
                            {
                                "name": "_tokenId",
                                "type": "uint256",
                                "value": "35,879"
                            }
                        ],
                        "constructorArguments": "",
                        "name": "bid",
                        "returnParams": [],
                        "signature": "bid(address,uint256)"
                    },
                    "errorInfo": "",
                    "fromAddress": "0x0ed70f92b87ceced51a9e472fcd8d93a54a11835",
                    "gasUsed": 93762,
                    "id": 0,
                    "methodDecoded": true,
                    "operation": "CALL",
                    "output": "",
                    "revert": false,
                    "revertMessage": "",
                    "selector": "0x59d667a5",
                    "status": true,
                    "value": "0.006179282407407407"
                },
                "nodeType": 0
            },
            "1": {
                "invocation": {
                    "address": "0x83ea8db47d76ea5b43ff8fcec40fae8e1699fe5f",
                    "callData": "0x",
                    "decodedMethod": null,
                    "errorInfo": "",
                    "fromAddress": "0xf4985070ce32b6b1994329df787d1acc9a2dd9e2",
                    "gasUsed": 0,
                    "id": 1,
                    "methodDecoded": false,
                    "operation": "CALL",
                    "output": "",
                    "revert": false,
                    "revertMessage": "",
                    "selector": "fallback",
                    "status": true,
                    "value": "0.005881199942129631"
                },
                "nodeType": 0
            },
            "2": {
                "invocation": {
                    "address": "0x0ed70f92b87ceced51a9e472fcd8d93a54a11835",
                    "callData": "0x",
                    "decodedMethod": null,
                    "errorInfo": "",
                    "fromAddress": "0xf4985070ce32b6b1994329df787d1acc9a2dd9e2",
                    "gasUsed": 0,
                    "id": 2,
                    "methodDecoded": false,
                    "operation": "CALL",
                    "output": "",
                    "revert": false,
                    "revertMessage": "",
                    "selector": "fallback",
                    "status": true,
                    "value": "0.000037037037037036"
                },
                "nodeType": 0
            },
            "3": {
                "event": {
                    "contract": "0xf4985070ce32b6b1994329df787d1acc9a2dd9e2",
                    "decodedLog": {
                        "name": "AuctionSuccessful",
                        "params": [
                            {
                                "name": "_nftAddress",
                                "type": "address",
                                "value": "0xf5b0a3efb8e8e4c201e2a935f110eaaf3ffecb8d"
                            },
                            {
                                "name": "_tokenId",
                                "type": "uint256",
                                "value": "35,879"
                            },
                            {
                                "name": "_totalPrice",
                                "type": "uint256",
                                "value": "6,142,245,370,370,371"
                            },
                            {
                                "name": "_winner",
                                "type": "address",
                                "value": "0x0ed70f92b87ceced51a9e472fcd8d93a54a11835"
                            }
                        ],
                        "signature": "AuctionSuccessful(address,uint256,uint256,address)"
                    },
                    "id": 3,
                    "logData": "0x0000000000000000000000000000000000000000000000000015d256f16c99430000000000000000000000000ed70f92b87ceced51a9e472fcd8d93a54a11835",
                    "logDecoded": true,
                    "operation": "EVENT",
                    "revert": false,
                    "status": true,
                    "topics": [
                        "0x6c00bb44a64da29b6a73920d50ff280237d277bda3e1f3cdf4e24392e6839efe",
                        "0x000000000000000000000000f5b0a3efb8e8e4c201e2a935f110eaaf3ffecb8d",
                        "0x0000000000000000000000000000000000000000000000000000000000008c27"
                    ]
                },
                "nodeType": 1
            },
            "4": {
                "invocation": {
                    "address": "0xf5b0a3efb8e8e4c201e2a935f110eaaf3ffecb8d",
                    "callData": "0x000000000000000000000000f4985070ce32b6b1994329df787d1acc9a2dd9e20000000000000000000000000ed70f92b87ceced51a9e472fcd8d93a54a118350000000000000000000000000000000000000000000000000000000000008c27",
                    "decodedMethod": {
                        "callParams": [
                            {
                                "name": "_from",
                                "type": "address",
                                "value": "0xf4985070ce32b6b1994329df787d1acc9a2dd9e2"
                            },
                            {
                                "name": "_to",
                                "type": "address",
                                "value": "0x0ed70f92b87ceced51a9e472fcd8d93a54a11835"
                            },
                            {
                                "decimalAvailable": true,
                                "name": "_tokenId",
                                "type": "uint256",
                                "value": "35,879"
                            }
                        ],
                        "constructorArguments": "",
                        "name": "transferFrom",
                        "returnParams": [],
                        "signature": "transferFrom(address,address,uint256)"
                    },
                    "errorInfo": "",
                    "fromAddress": "0xf4985070ce32b6b1994329df787d1acc9a2dd9e2",
                    "gasUsed": 122790,
                    "id": 4,
                    "methodDecoded": true,
                    "operation": "CALL",
                    "output": "",
                    "revert": false,
                    "revertMessage": "",
                    "selector": "0x23b872dd",
                    "status": true,
                    "value": "0"
                },
                "nodeType": 0
            },
            "5": {
                "invocation": {
                    "address": "0xe8bd438d0383cf4d19641eaa4793eddc6cebeaf1",
                    "callData": "0x000000000000000000000000f4985070ce32b6b1994329df787d1acc9a2dd9e20000000000000000000000000ed70f92b87ceced51a9e472fcd8d93a54a118350000000000000000000000000000000000000000000000000000000000008c27",
                    "decodedMethod": {
                        "callParams": [
                            {
                                "name": "",
                                "type": "address",
                                "value": "0xf4985070ce32b6b1994329df787d1acc9a2dd9e2"
                            },
                            {
                                "name": "",
                                "type": "address",
                                "value": "0x0ed70f92b87ceced51a9e472fcd8d93a54a11835"
                            },
                            {
                                "name": "",
                                "type": "uint256",
                                "value": "35,879"
                            }
                        ],
                        "constructorArguments": "",
                        "name": "isTransferAllowed",
                        "returnParams": [
                            {
                                "name": "",
                                "type": "bool",
                                "value": true
                            }
                        ],
                        "signature": "isTransferAllowed(address,address,uint256)"
                    },
                    "errorInfo": "",
                    "fromAddress": "0xf5b0a3efb8e8e4c201e2a935f110eaaf3ffecb8d",
                    "gasUsed": 3558,
                    "id": 5,
                    "methodDecoded": true,
                    "operation": "CALL",
                    "output": "0x0000000000000000000000000000000000000000000000000000000000000001",
                    "revert": false,
                    "revertMessage": "",
                    "selector": "0xf7ebc39a",
                    "status": true,
                    "value": "0"
                },
                "nodeType": 0
            },
            "6": {
                "invocation": {
                    "address": "0xf5b0a3efb8e8e4c201e2a935f110eaaf3ffecb8d",
                    "callData": "0x",
                    "decodedMethod": {
                        "callParams": [],
                        "constructorArguments": "",
                        "name": "paused",
                        "returnParams": [
                            {
                                "name": "",
                                "type": "bool",
                                "value": false
                            }
                        ],
                        "signature": "paused()"
                    },
                    "errorInfo": "",
                    "fromAddress": "0xe8bd438d0383cf4d19641eaa4793eddc6cebeaf1",
                    "gasUsed": 1028,
                    "id": 6,
                    "methodDecoded": true,
                    "operation": "CALL",
                    "output": "0x0000000000000000000000000000000000000000000000000000000000000000",
                    "revert": false,
                    "revertMessage": "",
                    "selector": "0x5c975abb",
                    "status": true,
                    "value": "0"
                },
                "nodeType": 0
            },
            "7": {
                "event": {
                    "contract": "0xf5b0a3efb8e8e4c201e2a935f110eaaf3ffecb8d",
                    "decodedLog": {
                        "name": "Approval",
                        "params": [
                            {
                                "name": "_owner",
                                "type": "address",
                                "value": "0xf4985070ce32b6b1994329df787d1acc9a2dd9e2"
                            },
                            {
                                "name": "_approved",
                                "type": "address",
                                "value": "0x0000000000000000000000000000000000000000"
                            },
                            {
                                "decimalAvailable": true,
                                "name": "_tokenId",
                                "type": "uint256",
                                "value": "35,879"
                            }
                        ],
                        "signature": "Approval(address,address,uint256)"
                    },
                    "id": 7,
                    "logData": "0x0000000000000000000000000000000000000000000000000000000000008c27",
                    "logDecoded": true,
                    "operation": "EVENT",
                    "revert": false,
                    "status": true,
                    "topics": [
                        "0x8c5be1e5ebec7d5bd14f71427d1e84f3dd0314c0f7b2291e5b200ac8c7c3b925",
                        "0x000000000000000000000000f4985070ce32b6b1994329df787d1acc9a2dd9e2",
                        "0x0000000000000000000000000000000000000000000000000000000000000000"
                    ]
                },
                "nodeType": 1
            },
            "8": {
                "event": {
                    "contract": "0xf5b0a3efb8e8e4c201e2a935f110eaaf3ffecb8d",
                    "decodedLog": {
                        "name": "Transfer",
                        "params": [
                            {
                                "name": "_from",
                                "type": "address",
                                "value": "0xf4985070ce32b6b1994329df787d1acc9a2dd9e2"
                            },
                            {
                                "name": "_to",
                                "type": "address",
                                "value": "0x0ed70f92b87ceced51a9e472fcd8d93a54a11835"
                            },
                            {
                                "decimalAvailable": true,
                                "name": "_tokenId",
                                "type": "uint256",
                                "value": "35,879"
                            }
                        ],
                        "signature": "Transfer(address,address,uint256)"
                    },
                    "id": 8,
                    "logData": "0x0000000000000000000000000000000000000000000000000000000000008c27",
                    "logDecoded": true,
                    "operation": "EVENT",
                    "revert": false,
                    "status": true,
                    "topics": [
                        "0xddf252ad1be2c89b69c2b068fc378daa952ba7f163c4a11628f55a4df523b3ef",
                        "0x000000000000000000000000f4985070ce32b6b1994329df787d1acc9a2dd9e2",
                        "0x0000000000000000000000000ed70f92b87ceced51a9e472fcd8d93a54a11835"
                    ]
                },
                "nodeType": 1
            }
        },
        "gasFlame": [
            {
                "children": [
                    {
                        "children": [
                            {
                                "children": [],
                                "depth": 0,
                                "name": "Initial Gas",
                                "value": 22936
                            },
                            {
                                "children": [
                                    {
                                        "children": [],
                                        "depth": 1,
                                        "name": "fallback",
                                        "value": 0
                                    },
                                    {
                                        "children": [],
                                        "depth": 1,
                                        "name": "fallback",
                                        "value": 0
                                    },
                                    {
                                        "children": [
                                            {
                                                "children": [
                                                    {
                                                        "children": [],
                                                        "depth": 3,
                                                        "name": "paused",
                                                        "value": 1028
                                                    }
                                                ],
                                                "depth": 2,
                                                "name": "isTransferAllowed",
                                                "value": 3558
                                            }
                                        ],
                                        "depth": 1,
                                        "name": "transferFrom",
                                        "value": 122790
                                    }
                                ],
                                "depth": 0,
                                "name": "Executed Gas",
                                "value": 160826
                            }
                        ],
                        "depth": -1,
                        "name": "Actual Gas Used",
                        "value": 93762
                    },
                    {
                        "children": [],
                        "depth": -1,
                        "name": "Refunded Gas",
                        "value": 90000
                    }
                ],
                "depth": -2,
                "name": "Total Gas",
                "value": 183762
            }
        ],
        "isConfirmed": true,
        "mainTrace": [
            {
                "children": [
                    {
                        "children": [
                            {
                                "children": [],
                                "depth": 1,
                                "id": 1,
                                "order": 1
                            },
                            {
                                "children": [],
                                "depth": 1,
                                "id": 2,
                                "order": 2
                            },
                            {
                                "children": [],
                                "depth": 1,
                                "id": 3,
                                "order": 3
                            },
                            {
                                "children": [
                                    {
                                        "children": [
                                            {
                                                "children": [],
                                                "depth": 3,
                                                "id": 6,
                                                "order": 6
                                            }
                                        ],
                                        "depth": 2,
                                        "id": 5,
                                        "order": 5
                                    },
                                    {
                                        "children": [],
                                        "depth": 2,
                                        "id": 7,
                                        "order": 7
                                    },
                                    {
                                        "children": [],
                                        "depth": 2,
                                        "id": 8,
                                        "order": 8
                                    }
                                ],
                                "depth": 1,
                                "id": 4,
                                "order": 4
                            }
                        ],
                        "depth": 0,
                        "id": 0,
                        "order": 0
                    }
                ],
                "depth": -1,
                "id": -1,
                "order": -1
            }
        ],
        "mainTraceNodeCount": 9,
        "parentIdMap": {
            "0": -1,
            "1": 0,
            "2": 0,
            "3": 0,
            "4": 0,
            "5": 4,
            "6": 5,
            "7": 4,
            "8": 4
        },
        "tidyTrace": [
            {
                "children": [
                    {
                        "children": [
                            {
                                "children": [],
                                "depth": 1,
                                "id": 1,
                                "order": 1
                            },
                            {
                                "children": [],
                                "depth": 1,
                                "id": 2,
                                "order": 2
                            },
                            {
                                "children": [],
                                "depth": 1,
                                "id": 3,
                                "order": 3
                            },
                            {
                                "children": [
                                    {
                                        "children": [
                                            {
                                                "children": [],
                                                "depth": 3,
                                                "id": 6,
                                                "order": 6
                                            }
                                        ],
                                        "depth": 2,
                                        "id": 5,
                                        "order": 5
                                    },
                                    {
                                        "children": [],
                                        "depth": 2,
                                        "id": 7,
                                        "order": 7
                                    },
                                    {
                                        "children": [],
                                        "depth": 2,
                                        "id": 8,
                                        "order": 8
                                    }
                                ],
                                "depth": 1,
                                "id": 4,
                                "order": 4
                            }
                        ],
                        "depth": 0,
                        "id": 0,
                        "order": 0
                    }
                ],
                "depth": -1,
                "id": -1,
                "order": -1
            }
        ],
        "tidyTraceNodeCount": 9
    },
    "state_change": {
        "stateChanges": [
            {
                "address": "0xf4985070ce32b6b1994329df787d1acc9a2dd9e2",
                "erc": "",
                "slots": [
                    {
                        "current": "0x0000000000000000000000000000000000000000000000000000000000000000",
                        "key": "0x0dbe8808692e26e869392141663e71545d0a78944c396834f4f555d043b06b64",
                        "prev": "0x00000000000000000000000083ea8db47d76ea5b43ff8fcec40fae8e1699fe5f"
                    },
                    {
                        "current": "0x0000000000000000000000000000000000000000000000000000000000000000",
                        "key": "0x0dbe8808692e26e869392141663e71545d0a78944c396834f4f555d043b06b65",
                        "prev": "0x00000000000000000011c37937e080000000000000000000002386f26fc10000"
                    },
                    {
                        "current": "0x0000000000000000000000000000000000000000000000000000000000000000",
                        "key": "0x0dbe8808692e26e869392141663e71545d0a78944c396834f4f555d043b06b66",
                        "prev": "0x00000000000000000000000000000000000000005d3247dc0000000000015180"
                    }
                ],
                "storageVariables": [
                    {
                        "name": "auctions",
                        "type": "mapping(address => mapping(uint256 => struct AxieClockAuction.Auction))",
                        "value": {
                            "pairs": [
                                {
                                    "key": "0xf5b0a3efb8e8e4c201e2a935f110eaaf3ffecb8d",
                                    "value": {
                                        "pairs": [
                                            {
                                                "key": "35879",
                                                "value": {
                                                    "fields": [
                                                        {
                                                            "name": "seller",
                                                            "type": "address",
                                                            "value": {
                                                                "current": "0x0000000000000000000000000000000000000000",
                                                                "prev": "0x83ea8db47d76ea5b43ff8fcec40fae8e1699fe5f",
                                                                "typeTag": 1
                                                            }
                                                        },
                                                        {
                                                            "name": "startingPrice",
                                                            "type": "uint128",
                                                            "value": {
                                                                "current": "0",
                                                                "prev": "10000000000000000",
                                                                "typeTag": 1
                                                            }
                                                        },
                                                        {
                                                            "name": "endingPrice",
                                                            "type": "uint128",
                                                            "value": {
                                                                "current": "0",
                                                                "prev": "5000000000000000",
                                                                "typeTag": 1
                                                            }
                                                        },
                                                        {
                                                            "name": "duration",
                                                            "type": "uint64",
                                                            "value": {
                                                                "current": "0",
                                                                "prev": "86400",
                                                                "typeTag": 1
                                                            }
                                                        },
                                                        {
                                                            "name": "startedAt",
                                                            "type": "uint64",
                                                            "value": {
                                                                "current": "0",
                                                                "prev": "1563576284",
                                                                "typeTag": 1
                                                            }
                                                        }
                                                    ],
                                                    "typeTag": 3
                                                }
                                            }
                                        ],
                                        "typeTag": 4
                                    }
                                }
                            ],
                            "typeTag": 4
                        }
                    }
                ]
            },
            {
                "address": "0xf5b0a3efb8e8e4c201e2a935f110eaaf3ffecb8d",
                "erc": "ERC-721",
                "slots": [
                    {
                        "current": "0x0000000000000000000000000000000000000000000000000000000000000199",
                        "key": "0x744953d1d0f0d5e18c84dea15eef2d02d621f0e88df0c82efa39096181980855",
                        "prev": "0x0000000000000000000000000000000000000000000000000000000000000198"
                    },
                    {
                        "current": "0x0000000000000000000000000000000000000000000000000000000000008c27",
                        "key": "0x6b9989156bece4aee5fcd79efc38076d47e32fba929b7c9e1529b96f6984aa9c",
                        "prev": "0x0000000000000000000000000000000000000000000000000000000000000000"
                    },
                    {
                        "current": "0x0000000000000000000000000ed70f92b87ceced51a9e472fcd8d93a54a11835",
                        "key": "0x9fdd8b2b239ea7577566ef44542bfb6f05c37b965b3f604fe6fe79601669c0a7",
                        "prev": "0x000000000000000000000000f4985070ce32b6b1994329df787d1acc9a2dd9e2"
                    },
                    {
                        "current": "0x0000000000000000000000000000000000000000000000000000000000011e65",
                        "key": "0xf977cc87cb9530b700142d22309e54b5022847fb0e1975303101c38e16b0d3cf",
                        "prev": "0x0000000000000000000000000000000000000000000000000000000000008c27"
                    },
                    {
                        "current": "0x0000000000000000000000000000000000000000000000000000000000001130",
                        "key": "0xf0223b964136cfdeefdf64f4fec2bfc832d2e0b783c472dec37db829a9a9f41b",
                        "prev": "0x00000000000000000000000000000000000000000000000000000000000014ca"
                    },
                    {
                        "current": "0x0000000000000000000000000000000000000000000000000000000000000000",
                        "key": "0xf977cc87cb9530b700142d22309e54b5022847fb0e1975303101c38e16b0d769",
                        "prev": "0x0000000000000000000000000000000000000000000000000000000000011e65"
                    },
                    {
                        "current": "0x00000000000000000000000000000000000000000000000000000000000014ca",
                        "key": "0xda6130b50a42de694f5ea1ae82c75586f0831f0f41b8349336a692d06cf359d7",
                        "prev": "0x00000000000000000000000000000000000000000000000000000000000014cb"
                    },
                    {
                        "current": "0x0000000000000000000000000000000000000000000000000000000000000198",
                        "key": "0x00239682501b84c68eca0a78b83237a89bed6ec23f12451876061c92e2b99f7e",
                        "prev": "0x0000000000000000000000000000000000000000000000000000000000001130"
                    }
                ],
                "storageVariables": [
                    {
                        "name": "_ownedTokens",
                        "type": "mapping(address => uint256[])",
                        "value": {
                            "pairs": [
                                {
                                    "key": "0x0ed70f92b87ceced51a9e472fcd8d93a54a11835",
                                    "value": {
                                        "elemType": "uint256",
                                        "elems": [
                                            {
                                                "index": 408,
                                                "value": {
                                                    "current": "35879",
                                                    "prev": "0",
                                                    "typeTag": 1
                                                }
                                            }
                                        ],
                                        "typeTag": 2
                                    }
                                },
                                {
                                    "key": "0xf4985070ce32b6b1994329df787d1acc9a2dd9e2",
                                    "value": {
                                        "elemType": "uint256",
                                        "elems": [
                                            {
                                                "index": 4400,
                                                "value": {
                                                    "current": "73317",
                                                    "prev": "35879",
                                                    "typeTag": 1
                                                }
                                            }
                                        ],
                                        "typeTag": 2
                                    }
                                }
                            ],
                            "typeTag": 4
                        }
                    },
                    {
                        "name": "_ownedTokenIndex",
                        "type": "mapping(uint256 => uint256)",
                        "value": {
                            "pairs": [
                                {
                                    "key": "35879",
                                    "value": {
                                        "current": "408",
                                        "prev": "4400",
                                        "typeTag": 1
                                    }
                                },
                                {
                                    "key": "73317",
                                    "value": {
                                        "current": "4400",
                                        "prev": "5322",
                                        "typeTag": 1
                                    }
                                }
                            ],
                            "typeTag": 4
                        }
                    },
                    {
                        "name": "_tokenOwner",
                        "type": "mapping(uint256 => address)",
                        "value": {
                            "pairs": [
                                {
                                    "key": "35879",
                                    "value": {
                                        "current": "0x0ed70f92b87ceced51a9e472fcd8d93a54a11835",
                                        "prev": "0xf4985070ce32b6b1994329df787d1acc9a2dd9e2",
                                        "typeTag": 1
                                    }
                                }
                            ],
                            "typeTag": 4
                        }
                    }
                ]
            }
        ]
    }
}