{
    "balance_change": {
        "balanceChanges": [
            {
                "account": "0x7508d0e1fff03b2f8c88cda035ed5c8f2dec5485",
                "assets": [
                    {
                        "address": "0x06a6a7af298129e3a2ab396c9c06f91d3c54aba8",
                        "amount": "342,824",
                        "iconUrl": "",
                        "isERC1155": false,
                        "isERC721": false,
                        "sign": false,
                        "value": ""
                    }
                ]
            },
            {
                "account": "0xe907b807df4b56cf4bfb16f288d4f2044dbd2d87",
                "assets": [
                    {
                        "address": "0x06a6a7af298129e3a2ab396c9c06f91d3c54aba8",
                        "amount": "342,824",
                        "iconUrl": "",
                        "isERC1155": false,
                        "isERC721": false,
                        "sign": true,
                        "value": ""
                    }
                ]
            }
        ]
    },
    "profile": {
        "basic_info": {
            "baseFee": "",
            "blockNumber": 9449974,
            "callData": "0x3d7d3f5a0000000000000000000000000000000000000000000000000000000000053b2800000000000000000000000000000000000000000000000000071afd498d000000000000000000000000000000000000000000000000000000038d7ea4c68000000000000000000000000000000000000000000000000000000000000003f480",
            "debugEnable": true,
            "errorInfo": "",
            "eventCount": 4,
            "feeRecipient": "0xea674fdde714fd979de3edf0f56aa9716b898ec8",
            "formatValue": "0",
            "gasLimit": 431641,
            "gasPrice": "1",
            "gasUsed": 252699,
            "intTxnCount": 6,
            "internalRevert": false,
            "internalRevertMessage": "",
            "isContractCreation": false,
            "isFlashloan": false,
            "maxFee": "",
            "nonce": 63,
            "overwritedBlockNumber": -1,
            "priorityFee": "",
            "receiver": "0x06a6a7af298129e3a2ab396c9c06f91d3c54aba8",
            "revertMessage": "",
            "sender": "0x7508d0e1fff03b2f8c88cda035ed5c8f2dec5485",
            "simulationEnable": true,
            "sourceTxnHash": "0x03943c58eb4e2d2f92ba3240ec0136ea60807e917e70bd3ef3c7e9f3c03e1c4b",
            "status": true,
            "timestamp": "2020-02-09T17:35:57Z",
            "transactionFee": "0.000252699",
            "txnHash": "0x03943c58eb4e2d2f92ba3240ec0136ea60807e917e70bd3ef3c7e9f3c03e1c4b",
            "txnIndex": 46,
            "type": 0,
            "value": "0"
        },
        "fund_flow": [
            {
                "amount": "342,824",
                "from": "0x7508d0e1fff03b2f8c88cda035ed5c8f2dec5485",
                "id": 1,
                "isERC1155": false,
                "isERC721": false,
                "isReverted": false,
                "order": 1,
                "to": "0xe907b807df4b56cf4bfb16f288d4f2044dbd2d87",
                "token": "0x06a6a7af298129e3a2ab396c9c06f91d3c54aba8"
            }
        ],
        "token_infos": [
            {
                "address": "0x06a6a7af298129e3a2ab396c9c06f91d3c54aba8",
                "decimals": -1
            },
            {
                "address": "0xc02aaa39b223fe8d0a0e5c4f27ead9083c756cc2",
                "decimals": 18
            },
            {
                "address": "0xeeeeeeeeeeeeeeeeeeeeeeeeeeeeeeeeeeeeeeee",
                "decimals": 18
            }
        ]
    },
    "address_label": {
        "labels": [
            {
                "address": "0x0000000000000000000000000000000000000001",
                "label": "Precompiled"
            },
            {
                "address": "0x0000000000000000000000000000000000000002",
                "label": "Precompiled"
            },
            {
                "address": "0x0000000000000000000000000000000000000003",
                "label": "Precompiled"
            },
            {
                "address": "0x0000000000000000000000000000000000000004",
                "label": "Precompiled"
            },
            {
                "address": "0xeeeeeeeeeeeeeeeeeeeeeeeeeeeeeeeeeeeeeeee",
                "label": "Ether"
            },
            {
                "address": "0x06a6a7af298129e3a2ab396c9c06f91d3c54aba8",
                "label": "0xUniverse: PLANET Token"
            }
        ]
    },
    "trace": {
        "accountLabels": null,
        "dataMap": {
            "-1": {
                "invocation": {
                    "address": "0x7508d0e1fff03b2f8c88cda035ed5c8f2dec5485",
                    "callData": "",
                    "decodedMethod": null,
                    "errorInfo": "",
                    "fromAddress": "",
                    "gasUsed": 0,
                    "id": -1,
                    "methodDecoded": false,
                    "operation": "",
                    "output": "",
                    "revert": false,
                    "revertMessage": "",
                    "selector": "",
                    "status": false,
                    "value": ""
                },
                "nodeType": 0
            },
            "0": {
                "invocation": {
                    "address": "0x06a6a7af298129e3a2ab396c9c06f91d3c54aba8",
                    "callData": "0x0000000000000000000000000000000000000000000000000000000000053b2800000000000000000000000000000000000000000000000000071afd498d000000000000000000000000000000000000000000000000000000038d7ea4c68000000000000000000000000000000000000000000000000000000000000003f480",
                    "decodedMethod": {
                        "callParams": [
                            {
                                "name": "_planetId",
                                "type": "uint256",
                                "value": "342,824"
                            },
                            {
                                "name": "_startingPrice",
                                "type": "uint256",
                                "value": "2,000,000,000,000,000"
                            },
                            {
                                "name": "_endingPrice",
                                "type": "uint256",
                                "value": "1,000,000,000,000,000"
                            },
                            {
                                "name": "_duration",
                                "type": "uint256",
                                "value": "259,200"
                            }
                        ],
                        "constructorArguments": "",
                        "name": "createSaleAuction",
                        "returnParams": [],
                        "signature": "createSaleAuction(uint256,uint256,uint256,uint256)"
                    },
                    "errorInfo": "",
                    "fromAddress": "0x7508d0e1fff03b2f8c88cda035ed5c8f2dec5485",
                    "gasUsed": 252699,
                    "id": 0,
                    "methodDecoded": true,
                    "operation": "CALL",
                    "output": "",
                    "revert": false,
                    "revertMessage": "",
                    "selector": "0x3d7d3f5a",
                    "status": true,
                    "value": "0"
                },
                "nodeType": 0
            },
            "1": {
                "invocation": {
                    "address": "0xfc30a1a7a650d10b20500bc10b06ff8f4b650ad2",
                    "callData": "0x",
                    "decodedMethod": null,
                    "errorInfo": "",
                    "fromAddress": "0x06a6a7af298129e3a2ab396c9c06f91d3c54aba8",
                    "gasUsed": 1095,
                    "id": 1,
                    "methodDecoded": false,
                    "operation": "CALL",
                    "output": "0x0000000000000000000000000000000000000000000000000000000000000001",
                    "revert": false,
                    "revertMessage": "",
                    "selector": "0x55909f87",
                    "status": true,
                    "value": "0"
                },
                "nodeType": 0
            },
            "10": {
                "event": {
                    "contract": "0xe907b807df4b56cf4bfb16f288d4f2044dbd2d87",
                    "decodedLog": {
                        "name": "AuctionCreated",
                        "params": [
                            {
                                "name": "tokenId",
                                "type": "uint256",
                                "value": "342,824"
                            },
                            {
                                "name": "startingPrice",
                                "type": "uint256",
                                "value": "2,000,000,000,000,000"
                            },
                            {
                                "name": "endingPrice",
                                "type": "uint256",
                                "value": "1,000,000,000,000,000"
                            },
                            {
                                "name": "duration",
                                "type": "uint256",
                                "value": "259,200"
                            }
                        ],
                        "signature": "AuctionCreated(uint256,uint256,uint256,uint256)"
                    },
                    "id": 10,
                    "logData": "0x0000000000000000000000000000000000000000000000000000000000053b2800000000000000000000000000000000000000000000000000071afd498d000000000000000000000000000000000000000000000000000000038d7ea4c68000000000000000000000000000000000000000000000000000000000000003f480",
                    "logDecoded": true,
                    "operation": "EVENT",
                    "revert": false,
                    "status": true,
                    "topics": [
                        "0xa9c8dfcda5664a5a124c713e386da27de87432d5b668e79458501eb296389ba7"
                    ]
                },
                "nodeType": 1
            },
            "2": {
                "invocation": {
                    "address": "0xe907b807df4b56cf4bfb16f288d4f2044dbd2d87",
                    "callData": "0x0000000000000000000000007508d0e1fff03b2f8c88cda035ed5c8f2dec54850000000000000000000000000000000000000000000000000000000000053b28",
                    "decodedMethod": null,
                    "errorInfo": "",
                    "fromAddress": "0x06a6a7af298129e3a2ab396c9c06f91d3c54aba8",
                    "gasUsed": 35800,
                    "id": 2,
                    "methodDecoded": false,
                    "operation": "CALL",
                    "output": "",
                    "revert": false,
                    "revertMessage": "",
                    "selector": "0x0b7edea3",
                    "status": true,
                    "value": "0"
                },
                "nodeType": 0
            },
            "3": {
                "invocation": {
                    "address": "0x64c26a512c4ca432cbcea5baa59febbc8a514f2d",
                    "callData": "0x0000000000000000000000007508d0e1fff03b2f8c88cda035ed5c8f2dec54850000000000000000000000000000000000000000000000000000000000053b28",
                    "decodedMethod": null,
                    "errorInfo": "",
                    "fromAddress": "0xe907b807df4b56cf4bfb16f288d4f2044dbd2d87",
                    "gasUsed": 33021,
                    "id": 3,
                    "methodDecoded": false,
                    "operation": "DELEGATECALL",
                    "output": "",
                    "revert": false,
                    "revertMessage": "",
                    "selector": "0x0b7edea3",
                    "status": true,
                    "value": "0"
                },
                "nodeType": 0
            },
            "4": {
                "event": {
                    "contract": "0x06a6a7af298129e3a2ab396c9c06f91d3c54aba8",
                    "decodedLog": {
                        "name": "Approval",
                        "params": [
                            {
                                "name": "_owner",
                                "type": "address",
                                "value": "0x7508d0e1fff03b2f8c88cda035ed5c8f2dec5485"
                            },
                            {
                                "name": "_approved",
                                "type": "address",
                                "value": "0xe907b807df4b56cf4bfb16f288d4f2044dbd2d87"
                            },
                            {
                                "decimalAvailable": true,
                                "name": "_tokenId",
                                "type": "uint256",
                                "value": "342,824"
                            }
                        ],
                        "signature": "Approval(address,address,uint256)"
                    },
                    "id": 4,
                    "logData": "0x0000000000000000000000000000000000000000000000000000000000053b28",
                    "logDecoded": true,
                    "operation": "EVENT",
                    "revert": false,
                    "status": true,
                    "topics": [
                        "0x8c5be1e5ebec7d5bd14f71427d1e84f3dd0314c0f7b2291e5b200ac8c7c3b925",
                        "0x0000000000000000000000007508d0e1fff03b2f8c88cda035ed5c8f2dec5485",
                        "0x000000000000000000000000e907b807df4b56cf4bfb16f288d4f2044dbd2d87"
                    ]
                },
                "nodeType": 1
            },
            "5": {
                "invocation": {
                    "address": "0xe907b807df4b56cf4bfb16f288d4f2044dbd2d87",
                    "callData": "0x0000000000000000000000000000000000000000000000000000000000053b2800000000000000000000000000000000000000000000000000071afd498d000000000000000000000000000000000000000000000000000000038d7ea4c68000000000000000000000000000000000000000000000000000000000000003f4800000000000000000000000007508d0e1fff03b2f8c88cda035ed5c8f2dec5485",
                    "decodedMethod": {
                        "callParams": [
                            {
                                "name": "_tokenId",
                                "type": "uint256",
                                "value": "342,824"
                            },
                            {
                                "name": "_startingPrice",
                                "type": "uint256",
                                "value": "2,000,000,000,000,000"
                            },
                            {
                                "name": "_endingPrice",
                                "type": "uint256",
                                "value": "1,000,000,000,000,000"
                            },
                            {
                                "name": "_duration",
                                "type": "uint256",
                                "value": "259,200"
                            },
                            {
                                "name": "_seller",
                                "type": "address",
                                "value": "0x7508d0e1fff03b2f8c88cda035ed5c8f2dec5485"
                            }
                        ],
                        "constructorArguments": "",
                        "name": "createAuction",
                        "returnParams": [],
                        "signature": "createAuction(uint256,uint256,uint256,uint256,address)"
                    },
                    "errorInfo": "",
                    "fromAddress": "0x06a6a7af298129e3a2ab396c9c06f91d3c54aba8",
                    "gasUsed": 191848,
                    "id": 5,
                    "methodDecoded": true,
                    "operation": "CALL",
                    "output": "",
                    "revert": false,
                    "revertMessage": "",
                    "selector": "0x27ebe40a",
                    "status": true,
                    "value": "0"
                },
                "nodeType": 0
            },
            "6": {
                "invocation": {
                    "address": "0x64c26a512c4ca432cbcea5baa59febbc8a514f2d",
                    "callData": "0x0000000000000000000000000000000000000000000000000000000000053b2800000000000000000000000000000000000000000000000000071afd498d000000000000000000000000000000000000000000000000000000038d7ea4c68000000000000000000000000000000000000000000000000000000000000003f4800000000000000000000000007508d0e1fff03b2f8c88cda035ed5c8f2dec5485",
                    "decodedMethod": {
                        "callParams": [
                            {
                                "name": "_tokenId",
                                "type": "uint256",
                                "value": "342,824"
                            },
                            {
                                "name": "_startingPrice",
                                "type": "uint256",
                                "value": "2,000,000,000,000,000"
                            },
                            {
                                "name": "_endingPrice",
                                "type": "uint256",
                                "value": "1,000,000,000,000,000"
                            },
                            {
                                "name": "_duration",
                                "type": "uint256",
                                "value": "259,200"
                            },
                            {
                                "name": "_seller",
                                "type": "address",
                                "value": "0x7508d0e1fff03b2f8c88cda035ed5c8f2dec5485"
                            }
                        ],
                        "constructorArguments": "",
                        "name": "createAuction",
                        "returnParams": [],
                        "signature": "createAuction(uint256,uint256,uint256,uint256,address)"
                    },
                    "errorInfo": "",
                    "fromAddress": "0xe907b807df4b56cf4bfb16f288d4f2044dbd2d87",
                    "gasUsed": 189051,
                    "id": 6,
                    "methodDecoded": true,
                    "operation": "DELEGATECALL",
                    "output": "",
                    "revert": false,
                    "revertMessage": "",
                    "selector": "0x27ebe40a",
                    "status": true,
                    "value": "0"
                },
                "nodeType": 0
            },
            "7": {
                "invocation": {
                    "address": "0x06a6a7af298129e3a2ab396c9c06f91d3c54aba8",
                    "callData": "0x0000000000000000000000007508d0e1fff03b2f8c88cda035ed5c8f2dec5485000000000000000000000000e907b807df4b56cf4bfb16f288d4f2044dbd2d870000000000000000000000000000000000000000000000000000000000053b28",
                    "decodedMethod": {
                        "callParams": [
                            {
                                "name": "_from",
                                "type": "address",
                                "value": "0x7508d0e1fff03b2f8c88cda035ed5c8f2dec5485"
                            },
                            {
                                "name": "_to",
                                "type": "address",
                                "value": "0xe907b807df4b56cf4bfb16f288d4f2044dbd2d87"
                            },
                            {
                                "decimalAvailable": true,
                                "name": "_tokenId",
                                "type": "uint256",
                                "value": "342,824"
                            }
                        ],
                        "constructorArguments": "",
                        "name": "transferFrom",
                        "returnParams": [],
                        "signature": "transferFrom(address,address,uint256)"
                    },
                    "errorInfo": "",
                    "fromAddress": "0xe907b807df4b56cf4bfb16f288d4f2044dbd2d87",
                    "gasUsed": 93992,
                    "id": 7,
                    "methodDecoded": true,
                    "operation": "CALL",
                    "output": "",
                    "revert": false,
                    "revertMessage": "",
                    "selector": "0x23b872dd",
                    "status": true,
                    "value": "0"
                },
                "nodeType": 0
            },
            "8": {
                "event": {
                    "contract": "0x06a6a7af298129e3a2ab396c9c06f91d3c54aba8",
                    "decodedLog": {
                        "name": "Approval",
                        "params": [
                            {
                                "name": "_owner",
                                "type": "address",
                                "value": "0x7508d0e1fff03b2f8c88cda035ed5c8f2dec5485"
                            },
                            {
                                "name": "_approved",
                                "type": "address",
                                "value": "0x0000000000000000000000000000000000000000"
                            },
                            {
                                "decimalAvailable": true,
                                "name": "_tokenId",
                                "type": "uint256",
                                "value": "342,824"
                            }
                        ],
                        "signature": "Approval(address,address,uint256)"
                    },
                    "id": 8,
                    "logData": "0x0000000000000000000000000000000000000000000000000000000000053b28",
                    "logDecoded": true,
                    "operation": "EVENT",
                    "revert": false,
                    "status": true,
                    "topics": [
                        "0x8c5be1e5ebec7d5bd14f71427d1e84f3dd0314c0f7b2291e5b200ac8c7c3b925",
                        "0x0000000000000000000000007508d0e1fff03b2f8c88cda035ed5c8f2dec5485",
                        "0x0000000000000000000000000000000000000000000000000000000000000000"
                    ]
                },
                "nodeType": 1
            },
            "9": {
                "event": {
                    "contract": "0x06a6a7af298129e3a2ab396c9c06f91d3c54aba8",
                    "decodedLog": {
                        "name": "Transfer",
                        "params": [
                            {
                                "name": "_from",
                                "type": "address",
                                "value": "0x7508d0e1fff03b2f8c88cda035ed5c8f2dec5485"
                            },
                            {
                                "name": "_to",
                                "type": "address",
                                "value": "0xe907b807df4b56cf4bfb16f288d4f2044dbd2d87"
                            },
                            {
                                "decimalAvailable": true,
                                "name": "_tokenId",
                                "type": "uint256",
                                "value": "342,824"
                            }
                        ],
                        "signature": "Transfer(address,address,uint256)"
                    },
                    "id": 9,
                    "logData": "0x0000000000000000000000000000000000000000000000000000000000053b28",
                    "logDecoded": true,
                    "operation": "EVENT",
                    "revert": false,
                    "status": true,
                    "topics": [
                        "0xddf252ad1be2c89b69c2b068fc378daa952ba7f163c4a11628f55a4df523b3ef",
                        "0x0000000000000000000000007508d0e1fff03b2f8c88cda035ed5c8f2dec5485",
                        "0x000000000000000000000000e907b807df4b56cf4bfb16f288d4f2044dbd2d87"
                    ]
                },
                "nodeType": 1
            }
        },
        "gasFlame": [
            {
                "children": [
                    {
                        "children": [
                            {
                                "children": [],
                                "depth": 0,
                                "name": "Initial Gas",
                                "value": 21780
                            },
                            {
                                "children": [
                                    {
                                        "children": [],
                                        "depth": 1,
                                        "name": "0x55909f87",
                                        "value": 1095
                                    },
                                    {
                                        "children": [
                                            {
                                                "children": [],
                                                "depth": 2,
                                                "name": "0x0b7edea3",
                                                "value": 33021
                                            }
                                        ],
                                        "depth": 1,
                                        "name": "0x0b7edea3",
                                        "value": 35800
                                    },
                                    {
                                        "children": [
                                            {
                                                "children": [
                                                    {
                                                        "children": [],
                                                        "depth": 3,
                                                        "name": "transferFrom",
                                                        "value": 93992
                                                    }
                                                ],
                                                "depth": 2,
                                                "name": "createAuction",
                                                "value": 189051
                                            }
                                        ],
                                        "depth": 1,
                                        "name": "createAuction",
                                        "value": 191848
                                    }
                                ],
                                "depth": 0,
                                "name": "Executed Gas",
                                "value": 265119
                            }
                        ],
                        "depth": -1,
                        "name": "Actual Gas Used",
                        "value": 252699
                    },
                    {
                        "children": [],
                        "depth": -1,
                        "name": "Refunded Gas",
                        "value": 34200
                    }
                ],
                "depth": -2,
                "name": "Total Gas",
                "value": 286899
            }
        ],
        "isConfirmed": true,
        "mainTrace": [
            {
                "children": [
                    {
                        "children": [
                            {
                                "children": [],
                                "depth": 1,
                                "id": 1,
                                "order": 1
                            },
                            {
                                "children": [
                                    {
                                        "children": [],
                                        "depth": 2,
                                        "id": 3,
                                        "order": 3
                                    }
                                ],
                                "depth": 1,
                                "id": 2,
                                "order": 2
                            },
                            {
                                "children": [],
                                "depth": 1,
                                "id": 4,
                                "order": 4
                            },
                            {
                                "children": [
                                    {
                                        "children": [
                                            {
                                                "children": [
                                                    {
                                                        "children": [],
                                                        "depth": 4,
                                                        "id": 8,
                                                        "order": 8
                                                    },
                                                    {
                                                        "children": [],
                                                        "depth": 4,
                                                        "id": 9,
                                                        "order": 9
                                                    }
                                                ],
                                                "depth": 3,
                                                "id": 7,
                                                "order": 7
                                            },
                                            {
                                                "children": [],
                                                "depth": 3,
                                                "id": 10,
                                                "order": 10
                                            }
                                        ],
                                        "depth": 2,
                                        "id": 6,
                                        "order": 6
                                    }
                                ],
                                "depth": 1,
                                "id": 5,
                                "order": 5
                            }
                        ],
                        "depth": 0,
                        "id": 0,
                        "order": 0
                    }
                ],
                "depth": -1,
                "id": -1,
                "order": -1
            }
        ],
        "mainTraceNodeCount": 11,
        "parentIdMap": {
            "0": -1,
            "1": 0,
            "10": 6,
            "2": 0,
            "3": 2,
            "4": 0,
            "5": 0,
            "6": 5,
            "7": 6,
            "8": 7,
            "9": 7
        },
        "tidyTrace": [
            {
                "children": [
                    {
                        "children": [
                            {
                                "children": [],
                                "depth": 1,
                                "id": 1,
                                "order": 1
                            },
                            {
                                "children": [
                                    {
                                        "children": [],
                                        "depth": 2,
                                        "id": 3,
                                        "order": 3
                                    }
                                ],
                                "depth": 1,
                                "id": 2,
                                "order": 2
                            },
                            {
                                "children": [],
                                "depth": 1,
                                "id": 4,
                                "order": 4
                            },
                            {
                                "children": [
                                    {
                                        "children": [
                                            {
                                                "children": [
                                                    {
                                                        "children": [],
                                                        "depth": 4,
                                                        "id": 8,
                                                        "order": 8
                                                    },
                                                    {
                                                        "children": [],
                                                        "depth": 4,
                                                        "id": 9,
                                                        "order": 9
                                                    }
                                                ],
                                                "depth": 3,
                                                "id": 7,
                                                "order": 7
                                            },
                                            {
                                                "children": [],
                                                "depth": 3,
                                                "id": 10,
                                                "order": 10
                                            }
                                        ],
                                        "depth": 2,
                                        "id": 6,
                                        "order": 6
                                    }
                                ],
                                "depth": 1,
                                "id": 5,
                                "order": 5
                            }
                        ],
                        "depth": 0,
                        "id": 0,
                        "order": 0
                    }
                ],
                "depth": -1,
                "id": -1,
                "order": -1
            }
        ],
        "tidyTraceNodeCount": 11
    },
    "state_change": {
        "stateChanges": [
            {
                "address": "0x06a6a7af298129e3a2ab396c9c06f91d3c54aba8",
                "erc": "ERC-721",
                "slots": [
                    {
                        "current": "0x000000000000000000000000000000000000000000000000000000000000132c",
                        "key": "0x1232516d97d39462d834cbd8308c7380f6354299edd67daeee3eaac3ccab7062",
                        "prev": "0x000000000000000000000000000000000000000000000000000000000000132b"
                    },
                    {
                        "current": "0x000000000000000000000000000000000000000000000000000000000000132b",
                        "key": "0x693bfccd019949e214421145bd1817c660d1dd5b4911458831ee3d02a87bb594",
                        "prev": "0x0000000000000000000000000000000000000000000000000000000000000006"
                    },
                    {
                        "current": "0x0000000000000000000000000000000000000000000000000000000000000008",
                        "key": "0xc7e9d5b29eb4d96138888f164ad30201a7f1991b35ffb3d6f3a10e73a79dbac3",
                        "prev": "0x0000000000000000000000000000000000000000000000000000000000000009"
                    },
                    {
                        "current": "0x000000000000000000000000000000000000000000000000000000000000132c",
                        "key": "0x1d7f66492308d57f0cb1eaf5d999173673d138092accce13e7de6296f89a5f2e",
                        "prev": "0x000000000000000000000000000000000000000000000000000000000000132b"
                    },
                    {
                        "current": "0x0000000000000000000000000000000000000000000000000000000000000008",
                        "key": "0x9f5a3660337f28a436138473a794bb333a900aa29dcf4e1eda9821c91e820b23",
                        "prev": "0x0000000000000000000000000000000000000000000000000000000000000009"
                    },
                    {
                        "current": "0x000000000000000000000000e907b807df4b56cf4bfb16f288d4f2044dbd2d87",
                        "key": "0x3b7ae4bb3dfa59962c3beca6ddbcec17e314eb48a7838ea0b80aa02b3c2dcf57",
                        "prev": "0x0000000000000000000000007508d0e1fff03b2f8c88cda035ed5c8f2dec5485"
                    },
                    {
                        "current": "0x000000000000000000000000000000000000000000000000000000000000d43f",
                        "key": "0x5c0de690fc5dffe77b2e74a2276b0b2950f4bf30b181aa78b5eb01607cae7243",
                        "prev": "0x0000000000000000000000000000000000000000000000000000000000053b28"
                    },
                    {
                        "current": "0x0000000000000000000000000000000000000000000000000000000000000000",
                        "key": "0x5c0de690fc5dffe77b2e74a2276b0b2950f4bf30b181aa78b5eb01607cae7245",
                        "prev": "0x000000000000000000000000000000000000000000000000000000000000d43f"
                    },
                    {
                        "current": "0x0000000000000000000000000000000000000000000000000000000000053b28",
                        "key": "0xa688aa6f0bf6647409fbbb4a4d18ee91b198c8ee0f43637045f8a3add30d9de7",
                        "prev": "0x0000000000000000000000000000000000000000000000000000000000000000"
                    },
                    {
                        "current": "0x0000000000000000000000000000000000000000000000000000000000000006",
                        "key": "0x777599e2eda56d2537c8465f14b39981189f79a3cd83453ecaa5f5b6acdc8599",
                        "prev": "0x0000000000000000000000000000000000000000000000000000000000000008"
                    }
                ],
                "storageVariables": [
                    {
                        "name": "ownedTokensIndex",
                        "type": "mapping(uint256 => uint256)",
                        "value": {
                            "pairs": [
                                {
                                    "key": "342824",
                                    "value": {
                                        "current": "4907",
                                        "prev": "6",
                                        "typeTag": 1
                                    }
                                },
                                {
                                    "key": "54335",
                                    "value": {
                                        "current": "6",
                                        "prev": "8",
                                        "typeTag": 1
                                    }
                                }
                            ],
                            "typeTag": 4
                        }
                    },
                    {
                        "name": "tokenOwner",
                        "type": "mapping(uint256 => address)",
                        "value": {
                            "pairs": [
                                {
                                    "key": "342824",
                                    "value": {
                                        "current": "0xe907b807df4b56cf4bfb16f288d4f2044dbd2d87",
                                        "prev": "0x7508d0e1fff03b2f8c88cda035ed5c8f2dec5485",
                                        "typeTag": 1
                                    }
                                }
                            ],
                            "typeTag": 4
                        }
                    },
                    {
                        "name": "ownedTokensCount",
                        "type": "mapping(address => uint256)",
                        "value": {
                            "pairs": [
                                {
                                    "key": "0x7508d0e1fff03b2f8c88cda035ed5c8f2dec5485",
                                    "value": {
                                        "current": "8",
                                        "prev": "9",
                                        "typeTag": 1
                                    }
                                },
                                {
                                    "key": "0xe907b807df4b56cf4bfb16f288d4f2044dbd2d87",
                                    "value": {
                                        "current": "4908",
                                        "prev": "4907",
                                        "typeTag": 1
                                    }
                                }
                            ],
                            "typeTag": 4
                        }
                    },
                    {
                        "name": "ownedTokens",
                        "type": "mapping(address => uint256[])",
                        "value": {
                            "pairs": [
                                {
                                    "key": "0x7508d0e1fff03b2f8c88cda035ed5c8f2dec5485",
                                    "value": {
                                        "elemType": "uint256",
                                        "elems": [
                                            {
                                                "index": 6,
                                                "value": {
                                                    "current": "54335",
                                                    "prev": "342824",
                                                    "typeTag": 1
                                                }
                                            }
                                        ],
                                        "typeTag": 2
                                    }
                                },
                                {
                                    "key": "0xe907b807df4b56cf4bfb16f288d4f2044dbd2d87",
                                    "value": {
                                        "elemType": "uint256",
                                        "elems": [
                                            {
                                                "index": 4907,
                                                "value": {
                                                    "current": "342824",
                                                    "prev": "0",
                                                    "typeTag": 1
                                                }
                                            }
                                        ],
                                        "typeTag": 2
                                    }
                                }
                            ],
                            "typeTag": 4
                        }
                    }
                ]
            },
            {
                "address": "0xe907b807df4b56cf4bfb16f288d4f2044dbd2d87",
                "erc": "",
                "slots": [
                    {
                        "current": "0x000000000000000000000000000000000000000000000000000000000000000d",
                        "key": "0x5645e6466e3eb0ecfc660b912cb8a3136889cbc6b13ddcad518feeadce349ca7",
                        "prev": "0x000000000000000000000000000000000000000000000000000000000000000c"
                    },
                    {
                        "current": "0x0000000000000000000000000000000000000000000000000000000000053b28",
                        "key": "0xe4c00bc0e2a639c62c3b4cd8f6112660282181a7ec6647867f4f5768b23e3ea6",
                        "prev": "0x0000000000000000000000000000000000000000000000000000000000000000"
                    },
                    {
                        "current": "0x0000000000000000000000007508d0e1fff03b2f8c88cda035ed5c8f2dec5485",
                        "key": "0x744ac5dc9bfcfc45ab6f0c060d5a2bdb9217ece94c2e3a1756b14a060ab41523",
                        "prev": "0x0000000000000000000000000000000000000000000000000000000000000000"
                    },
                    {
                        "current": "0x000000000000000000038d7ea4c68000000000000000000000071afd498d0000",
                        "key": "0x744ac5dc9bfcfc45ab6f0c060d5a2bdb9217ece94c2e3a1756b14a060ab41524",
                        "prev": "0x0000000000000000000000000000000000000000000000000000000000000000"
                    },
                    {
                        "current": "0x00000000000000000000000000000000000000005e4042fd000000000003f480",
                        "key": "0x744ac5dc9bfcfc45ab6f0c060d5a2bdb9217ece94c2e3a1756b14a060ab41525",
                        "prev": "0x0000000000000000000000000000000000000000000000000000000000000000"
                    }
                ],
                "storageVariables": []
            }
        ]
    }
}