{
    "balance_change": {
        "balanceChanges": [
            {
                "account": "0x509217593100cb61ee1078af760e8aa00cbda7c4",
                "assets": [
                    {
                        "address": "0x4c11249814f11b9346808179cf06e71ac328c1b5",
                        "amount": "7.1189",
                        "iconUrl": "https://assets.blocksec.com/icon/719a47c2ff6e70032a96bf571af9d79fdf4a69c95f88f7d896153ce528bbbfe2.png",
                        "isERC1155": false,
                        "isERC721": false,
                        "sign": false,
                        "value": "116.7129093"
                    },
                    {
                        "address": "0x8dcff4f1653f45cf418b0b3a5080a0fdcac577c8",
                        "amount": "7.1189",
                        "iconUrl": "",
                        "isERC1155": false,
                        "isERC721": false,
                        "sign": true,
                        "value": ""
                    }
                ]
            },
            {
                "account": "0x8dcff4f1653f45cf418b0b3a5080a0fdcac577c8",
                "assets": [
                    {
                        "address": "0x4c11249814f11b9346808179cf06e71ac328c1b5",
                        "amount": "7.1189",
                        "iconUrl": "https://assets.blocksec.com/icon/719a47c2ff6e70032a96bf571af9d79fdf4a69c95f88f7d896153ce528bbbfe2.png",
                        "isERC1155": false,
                        "isERC721": false,
                        "sign": true,
                        "value": "116.7129093"
                    }
                ]
            },
            {
                "account": "0x0000000000000000000000000000000000000000",
                "assets": [
                    {
                        "address": "0x8dcff4f1653f45cf418b0b3a5080a0fdcac577c8",
                        "amount": "7.1189",
                        "iconUrl": "",
                        "isERC1155": false,
                        "isERC721": false,
                        "sign": false,
                        "value": ""
                    }
                ]
            }
        ]
    },
    "profile": {
        "basic_info": {
            "baseFee": "",
            "blockNumber": 11206742,
            "callData": "0xb6b55f2500000000000000000000000000000000000000000000000062cb69d51b874000",
            "debugEnable": true,
            "errorInfo": "",
            "eventCount": 2,
            "feeRecipient": "0xea674fdde714fd979de3edf0f56aa9716b898ec8",
            "formatValue": "0",
            "gasLimit": 120754,
            "gasPrice": "32",
            "gasUsed": 80503,
            "intTxnCount": 6,
            "internalRevert": false,
            "internalRevertMessage": "",
            "isContractCreation": false,
            "isFlashloan": false,
            "maxFee": "",
            "nonce": 630,
            "overwritedBlockNumber": -1,
            "priorityFee": "",
            "receiver": "0x8dcff4f1653f45cf418b0b3a5080a0fdcac577c8",
            "revertMessage": "",
            "sender": "0x509217593100cb61ee1078af760e8aa00cbda7c4",
            "simulationEnable": true,
            "sourceTxnHash": "0x03938fcc896ce4f339862a60901b7a2ad45d69f6f0414b6a24814c127f93dab1",
            "status": true,
            "timestamp": "2020-11-06T23:24:23Z",
            "transactionFee": "0.002576096",
            "txnHash": "0x03938fcc896ce4f339862a60901b7a2ad45d69f6f0414b6a24814c127f93dab1",
            "txnIndex": 61,
            "type": 0,
            "value": "0"
        },
        "fund_flow": [
            {
                "amount": "7.1189",
                "from": "0x509217593100cb61ee1078af760e8aa00cbda7c4",
                "id": 1,
                "isERC1155": false,
                "isERC721": false,
                "isReverted": false,
                "order": 1,
                "to": "0x8dcff4f1653f45cf418b0b3a5080a0fdcac577c8",
                "token": "0x4c11249814f11b9346808179cf06e71ac328c1b5"
            },
            {
                "amount": "7.1189",
                "from": "0x0000000000000000000000000000000000000000",
                "id": 2,
                "isERC1155": false,
                "isERC721": false,
                "isReverted": false,
                "order": 2,
                "to": "0x509217593100cb61ee1078af760e8aa00cbda7c4",
                "token": "0x8dcff4f1653f45cf418b0b3a5080a0fdcac577c8"
            }
        ],
        "token_infos": [
            {
                "address": "0xeeeeeeeeeeeeeeeeeeeeeeeeeeeeeeeeeeeeeeee",
                "decimals": 18
            },
            {
                "address": "0x4c11249814f11b9346808179cf06e71ac328c1b5",
                "decimals": 18
            },
            {
                "address": "0x8dcff4f1653f45cf418b0b3a5080a0fdcac577c8",
                "decimals": 18
            },
            {
                "address": "0xc02aaa39b223fe8d0a0e5c4f27ead9083c756cc2",
                "decimals": 18
            }
        ]
    },
    "address_label": {
        "labels": [
            {
                "address": "0x0000000000000000000000000000000000000003",
                "label": "Precompiled"
            },
            {
                "address": "0x0000000000000000000000000000000000000004",
                "label": "Precompiled"
            },
            {
                "address": "0xeeeeeeeeeeeeeeeeeeeeeeeeeeeeeeeeeeeeeeee",
                "label": "Ether"
            },
            {
                "address": "0x4c11249814f11b9346808179cf06e71ac328c1b5",
                "label": "OraiChain: ORAI Token"
            },
            {
                "address": "0x8dcff4f1653f45cf418b0b3a5080a0fdcac577c8",
                "label": "yAI.Finance: aiORAI Token"
            },
            {
                "address": "0x35e05ea793eb20fe9b75c55bc0c51d8a7017100d",
                "label": "Controller"
            },
            {
                "address": "0x0000000000000000000000000000000000000001",
                "label": "Precompiled"
            },
            {
                "address": "0x0000000000000000000000000000000000000002",
                "label": "Precompiled"
            }
        ]
    },
    "trace": {
        "accountLabels": null,
        "dataMap": {
            "-1": {
                "invocation": {
                    "address": "0x509217593100cb61ee1078af760e8aa00cbda7c4",
                    "callData": "",
                    "decodedMethod": null,
                    "errorInfo": "",
                    "fromAddress": "",
                    "gasUsed": 0,
                    "id": -1,
                    "methodDecoded": false,
                    "operation": "",
                    "output": "",
                    "revert": false,
                    "revertMessage": "",
                    "selector": "",
                    "status": false,
                    "value": ""
                },
                "nodeType": 0
            },
            "0": {
                "invocation": {
                    "address": "0x8dcff4f1653f45cf418b0b3a5080a0fdcac577c8",
                    "callData": "0x00000000000000000000000000000000000000000000000062cb69d51b874000",
                    "decodedMethod": {
                        "callParams": [
                            {
                                "name": "_amount",
                                "type": "uint256",
                                "value": "7,118,900,000,000,000,000"
                            }
                        ],
                        "constructorArguments": "",
                        "name": "deposit",
                        "returnParams": [],
                        "signature": "deposit(uint256)"
                    },
                    "errorInfo": "",
                    "fromAddress": "0x509217593100cb61ee1078af760e8aa00cbda7c4",
                    "gasUsed": 80503,
                    "id": 0,
                    "methodDecoded": true,
                    "operation": "CALL",
                    "output": "",
                    "revert": false,
                    "revertMessage": "",
                    "selector": "0xb6b55f25",
                    "status": true,
                    "value": "0"
                },
                "nodeType": 0
            },
            "1": {
                "invocation": {
                    "address": "0x35e05ea793eb20fe9b75c55bc0c51d8a7017100d",
                    "callData": "0x0000000000000000000000004c11249814f11b9346808179cf06e71ac328c1b5",
                    "decodedMethod": {
                        "callParams": [
                            {
                                "name": "_token",
                                "type": "address",
                                "value": "0x4c11249814f11b9346808179cf06e71ac328c1b5"
                            }
                        ],
                        "constructorArguments": "",
                        "name": "balanceOf",
                        "returnParams": [
                            {
                                "decimalAvailable": true,
                                "name": "",
                                "type": "uint256",
                                "value": "0"
                            }
                        ],
                        "signature": "balanceOf(address)"
                    },
                    "errorInfo": "",
                    "fromAddress": "0x8dcff4f1653f45cf418b0b3a5080a0fdcac577c8",
                    "gasUsed": 3208,
                    "id": 1,
                    "methodDecoded": true,
                    "operation": "STATICCALL",
                    "output": "0x0000000000000000000000000000000000000000000000000000000000000000",
                    "revert": false,
                    "revertMessage": "",
                    "selector": "0x70a08231",
                    "status": true,
                    "value": "0"
                },
                "nodeType": 0
            },
            "2": {
                "invocation": {
                    "address": "0xaf9136559026fa9a8e216c34c94c86fc42cd6373",
                    "callData": "0x",
                    "decodedMethod": {
                        "callParams": [],
                        "constructorArguments": "",
                        "name": "balanceOf",
                        "returnParams": [
                            {
                                "name": "",
                                "type": "uint256",
                                "value": "0"
                            }
                        ],
                        "signature": "balanceOf()"
                    },
                    "errorInfo": "",
                    "fromAddress": "0x35e05ea793eb20fe9b75c55bc0c51d8a7017100d",
                    "gasUsed": 280,
                    "id": 2,
                    "methodDecoded": true,
                    "operation": "STATICCALL",
                    "output": "0x0000000000000000000000000000000000000000000000000000000000000000",
                    "revert": false,
                    "revertMessage": "",
                    "selector": "0x722713f7",
                    "status": true,
                    "value": "0"
                },
                "nodeType": 0
            },
            "3": {
                "invocation": {
                    "address": "0x4c11249814f11b9346808179cf06e71ac328c1b5",
                    "callData": "0x0000000000000000000000008dcff4f1653f45cf418b0b3a5080a0fdcac577c8",
                    "decodedMethod": {
                        "callParams": [
                            {
                                "name": "_owner",
                                "type": "address",
                                "value": "0x8dcff4f1653f45cf418b0b3a5080a0fdcac577c8"
                            }
                        ],
                        "constructorArguments": "",
                        "name": "balanceOf",
                        "returnParams": [
                            {
                                "decimalAvailable": true,
                                "name": "balance",
                                "type": "uint256",
                                "value": "128,407,464,500,000,000,000,000"
                            }
                        ],
                        "signature": "balanceOf(address)"
                    },
                    "errorInfo": "",
                    "fromAddress": "0x8dcff4f1653f45cf418b0b3a5080a0fdcac577c8",
                    "gasUsed": 1281,
                    "id": 3,
                    "methodDecoded": true,
                    "operation": "STATICCALL",
                    "output": "0x000000000000000000000000000000000000000000001b30fb8b96d86a274000",
                    "revert": false,
                    "revertMessage": "",
                    "selector": "0x70a08231",
                    "status": true,
                    "value": "0"
                },
                "nodeType": 0
            },
            "4": {
                "invocation": {
                    "address": "0x4c11249814f11b9346808179cf06e71ac328c1b5",
                    "callData": "0x0000000000000000000000008dcff4f1653f45cf418b0b3a5080a0fdcac577c8",
                    "decodedMethod": {
                        "callParams": [
                            {
                                "name": "_owner",
                                "type": "address",
                                "value": "0x8dcff4f1653f45cf418b0b3a5080a0fdcac577c8"
                            }
                        ],
                        "constructorArguments": "",
                        "name": "balanceOf",
                        "returnParams": [
                            {
                                "decimalAvailable": true,
                                "name": "balance",
                                "type": "uint256",
                                "value": "128,407,464,500,000,000,000,000"
                            }
                        ],
                        "signature": "balanceOf(address)"
                    },
                    "errorInfo": "",
                    "fromAddress": "0x8dcff4f1653f45cf418b0b3a5080a0fdcac577c8",
                    "gasUsed": 1281,
                    "id": 4,
                    "methodDecoded": true,
                    "operation": "STATICCALL",
                    "output": "0x000000000000000000000000000000000000000000001b30fb8b96d86a274000",
                    "revert": false,
                    "revertMessage": "",
                    "selector": "0x70a08231",
                    "status": true,
                    "value": "0"
                },
                "nodeType": 0
            },
            "5": {
                "invocation": {
                    "address": "0x4c11249814f11b9346808179cf06e71ac328c1b5",
                    "callData": "0x000000000000000000000000509217593100cb61ee1078af760e8aa00cbda7c40000000000000000000000008dcff4f1653f45cf418b0b3a5080a0fdcac577c800000000000000000000000000000000000000000000000062cb69d51b874000",
                    "decodedMethod": {
                        "callParams": [
                            {
                                "name": "_from",
                                "type": "address",
                                "value": "0x509217593100cb61ee1078af760e8aa00cbda7c4"
                            },
                            {
                                "name": "_to",
                                "type": "address",
                                "value": "0x8dcff4f1653f45cf418b0b3a5080a0fdcac577c8"
                            },
                            {
                                "decimalAvailable": true,
                                "name": "_value",
                                "type": "uint256",
                                "value": "7,118,900,000,000,000,000"
                            }
                        ],
                        "constructorArguments": "",
                        "name": "transferFrom",
                        "returnParams": [
                            {
                                "name": "",
                                "type": "bool",
                                "value": true
                            }
                        ],
                        "signature": "transferFrom(address,address,uint256)"
                    },
                    "errorInfo": "",
                    "fromAddress": "0x8dcff4f1653f45cf418b0b3a5080a0fdcac577c8",
                    "gasUsed": 20843,
                    "id": 5,
                    "methodDecoded": true,
                    "operation": "CALL",
                    "output": "0x0000000000000000000000000000000000000000000000000000000000000001",
                    "revert": false,
                    "revertMessage": "",
                    "selector": "0x23b872dd",
                    "status": true,
                    "value": "0"
                },
                "nodeType": 0
            },
            "6": {
                "event": {
                    "contract": "0x4c11249814f11b9346808179cf06e71ac328c1b5",
                    "decodedLog": {
                        "name": "Transfer",
                        "params": [
                            {
                                "name": "from",
                                "type": "address",
                                "value": "0x509217593100cb61ee1078af760e8aa00cbda7c4"
                            },
                            {
                                "name": "to",
                                "type": "address",
                                "value": "0x8dcff4f1653f45cf418b0b3a5080a0fdcac577c8"
                            },
                            {
                                "decimalAvailable": true,
                                "name": "value",
                                "type": "uint256",
                                "value": "7,118,900,000,000,000,000"
                            }
                        ],
                        "signature": "Transfer(address,address,uint256)"
                    },
                    "id": 6,
                    "logData": "0x00000000000000000000000000000000000000000000000062cb69d51b874000",
                    "logDecoded": true,
                    "operation": "EVENT",
                    "revert": false,
                    "status": true,
                    "topics": [
                        "0xddf252ad1be2c89b69c2b068fc378daa952ba7f163c4a11628f55a4df523b3ef",
                        "0x000000000000000000000000509217593100cb61ee1078af760e8aa00cbda7c4",
                        "0x0000000000000000000000008dcff4f1653f45cf418b0b3a5080a0fdcac577c8"
                    ]
                },
                "nodeType": 1
            },
            "7": {
                "invocation": {
                    "address": "0x4c11249814f11b9346808179cf06e71ac328c1b5",
                    "callData": "0x0000000000000000000000008dcff4f1653f45cf418b0b3a5080a0fdcac577c8",
                    "decodedMethod": {
                        "callParams": [
                            {
                                "name": "_owner",
                                "type": "address",
                                "value": "0x8dcff4f1653f45cf418b0b3a5080a0fdcac577c8"
                            }
                        ],
                        "constructorArguments": "",
                        "name": "balanceOf",
                        "returnParams": [
                            {
                                "decimalAvailable": true,
                                "name": "balance",
                                "type": "uint256",
                                "value": "128,414,583,400,000,000,000,000"
                            }
                        ],
                        "signature": "balanceOf(address)"
                    },
                    "errorInfo": "",
                    "fromAddress": "0x8dcff4f1653f45cf418b0b3a5080a0fdcac577c8",
                    "gasUsed": 1281,
                    "id": 7,
                    "methodDecoded": true,
                    "operation": "STATICCALL",
                    "output": "0x000000000000000000000000000000000000000000001b315e5700ad85ae8000",
                    "revert": false,
                    "revertMessage": "",
                    "selector": "0x70a08231",
                    "status": true,
                    "value": "0"
                },
                "nodeType": 0
            },
            "8": {
                "event": {
                    "contract": "0x8dcff4f1653f45cf418b0b3a5080a0fdcac577c8",
                    "decodedLog": {
                        "name": "Transfer",
                        "params": [
                            {
                                "name": "from",
                                "type": "address",
                                "value": "0x0000000000000000000000000000000000000000"
                            },
                            {
                                "name": "to",
                                "type": "address",
                                "value": "0x509217593100cb61ee1078af760e8aa00cbda7c4"
                            },
                            {
                                "decimalAvailable": true,
                                "name": "value",
                                "type": "uint256",
                                "value": "7,118,900,000,000,000,000"
                            }
                        ],
                        "signature": "Transfer(address,address,uint256)"
                    },
                    "id": 8,
                    "logData": "0x00000000000000000000000000000000000000000000000062cb69d51b874000",
                    "logDecoded": true,
                    "operation": "EVENT",
                    "revert": false,
                    "status": true,
                    "topics": [
                        "0xddf252ad1be2c89b69c2b068fc378daa952ba7f163c4a11628f55a4df523b3ef",
                        "0x0000000000000000000000000000000000000000000000000000000000000000",
                        "0x000000000000000000000000509217593100cb61ee1078af760e8aa00cbda7c4"
                    ]
                },
                "nodeType": 1
            }
        },
        "gasFlame": [
            {
                "children": [
                    {
                        "children": [
                            {
                                "children": [],
                                "depth": 0,
                                "name": "Initial Gas",
                                "value": 21276
                            },
                            {
                                "children": [
                                    {
                                        "children": [
                                            {
                                                "children": [],
                                                "depth": 2,
                                                "name": "balanceOf",
                                                "value": 280
                                            }
                                        ],
                                        "depth": 1,
                                        "name": "balanceOf",
                                        "value": 3208
                                    },
                                    {
                                        "children": [],
                                        "depth": 1,
                                        "name": "balanceOf",
                                        "value": 1281
                                    },
                                    {
                                        "children": [],
                                        "depth": 1,
                                        "name": "balanceOf",
                                        "value": 1281
                                    },
                                    {
                                        "children": [],
                                        "depth": 1,
                                        "name": "transferFrom",
                                        "value": 20843
                                    },
                                    {
                                        "children": [],
                                        "depth": 1,
                                        "name": "balanceOf",
                                        "value": 1281
                                    }
                                ],
                                "depth": 0,
                                "name": "Executed Gas",
                                "value": 59227
                            }
                        ],
                        "depth": -1,
                        "name": "Actual Gas Used",
                        "value": 80503
                    },
                    {
                        "children": [],
                        "depth": -1,
                        "name": "Refunded Gas",
                        "value": 0
                    }
                ],
                "depth": -2,
                "name": "Total Gas",
                "value": 80503
            }
        ],
        "isConfirmed": true,
        "mainTrace": [
            {
                "children": [
                    {
                        "children": [
                            {
                                "children": [
                                    {
                                        "children": [],
                                        "depth": 2,
                                        "id": 2,
                                        "order": 2
                                    }
                                ],
                                "depth": 1,
                                "id": 1,
                                "order": 1
                            },
                            {
                                "children": [],
                                "depth": 1,
                                "id": 3,
                                "order": 3
                            },
                            {
                                "children": [],
                                "depth": 1,
                                "id": 4,
                                "order": 4
                            },
                            {
                                "children": [
                                    {
                                        "children": [],
                                        "depth": 2,
                                        "id": 6,
                                        "order": 6
                                    }
                                ],
                                "depth": 1,
                                "id": 5,
                                "order": 5
                            },
                            {
                                "children": [],
                                "depth": 1,
                                "id": 7,
                                "order": 7
                            },
                            {
                                "children": [],
                                "depth": 1,
                                "id": 8,
                                "order": 8
                            }
                        ],
                        "depth": 0,
                        "id": 0,
                        "order": 0
                    }
                ],
                "depth": -1,
                "id": -1,
                "order": -1
            }
        ],
        "mainTraceNodeCount": 9,
        "parentIdMap": {
            "0": -1,
            "1": 0,
            "2": 1,
            "3": 0,
            "4": 0,
            "5": 0,
            "6": 5,
            "7": 0,
            "8": 0
        },
        "tidyTrace": [
            {
                "children": [
                    {
                        "children": [
                            {
                                "children": [
                                    {
                                        "children": [],
                                        "depth": 2,
                                        "id": 6,
                                        "order": 6
                                    }
                                ],
                                "depth": 1,
                                "id": 5,
                                "order": 5
                            },
                            {
                                "children": [],
                                "depth": 1,
                                "id": 8,
                                "order": 8
                            }
                        ],
                        "depth": 0,
                        "id": 0,
                        "order": 0
                    }
                ],
                "depth": -1,
                "id": -1,
                "order": -1
            }
        ],
        "tidyTraceNodeCount": 4
    },
    "state_change": {
        "stateChanges": [
            {
                "address": "0x4c11249814f11b9346808179cf06e71ac328c1b5",
                "erc": "",
                "slots": [
                    {
                        "current": "0x000000000000000000000000000000000000000c9f2c9cbeee0f075bed010000",
                        "key": "0xa926ac1c307bbd51ad7ebb5a120cc5c4c6700c533dd1e844bb661120e998865c",
                        "prev": "0x000000000000000000000000000000000000000c9f2c9cbf50da713108884000"
                    },
                    {
                        "current": "0x000000000000000000000000000000000000000000000000000043577ecb99d9",
                        "key": "0x8b643199102c60ed3f18cd58680d7177d90c48a475550e92ce05ef5aaef0a718",
                        "prev": "0x00000000000000000000000000000000000000000000000062cbad2c9a52d9d9"
                    },
                    {
                        "current": "0x000000000000000000000000000000000000000000001b315e5700ad85ae8000",
                        "key": "0x6c9e3eaac5f5b6ee64e06e3e8bd36c29e84e29a6ac8baeb96a4ca53e825d86bc",
                        "prev": "0x000000000000000000000000000000000000000000001b30fb8b96d86a274000"
                    }
                ],
                "storageVariables": [
                    {
                        "name": "allowed",
                        "type": "mapping(address => mapping(address => uint256))",
                        "value": {
                            "pairs": [
                                {
                                    "key": "0x509217593100cb61ee1078af760e8aa00cbda7c4",
                                    "value": {
                                        "pairs": [
                                            {
                                                "key": "0x8dcff4f1653f45cf418b0b3a5080a0fdcac577c8",
                                                "value": {
                                                    "current": "999999999680035600000000000000",
                                                    "prev": "999999999687154500000000000000",
                                                    "typeTag": 1
                                                }
                                            }
                                        ],
                                        "typeTag": 4
                                    }
                                }
                            ],
                            "typeTag": 4
                        }
                    },
                    {
                        "name": "balances",
                        "type": "mapping(address => uint256)",
                        "value": {
                            "pairs": [
                                {
                                    "key": "0x509217593100cb61ee1078af760e8aa00cbda7c4",
                                    "value": {
                                        "current": "74043068488153",
                                        "prev": "7118974043068488153",
                                        "typeTag": 1
                                    }
                                },
                                {
                                    "key": "0x8dcff4f1653f45cf418b0b3a5080a0fdcac577c8",
                                    "value": {
                                        "current": "128414583400000000000000",
                                        "prev": "128407464500000000000000",
                                        "typeTag": 1
                                    }
                                }
                            ],
                            "typeTag": 4
                        }
                    }
                ]
            },
            {
                "address": "0x8dcff4f1653f45cf418b0b3a5080a0fdcac577c8",
                "erc": "ERC-20",
                "slots": [
                    {
                        "current": "0x000000000000000000000000000000000000000000001b315e5700ad85ae8000",
                        "key": "0x0000000000000000000000000000000000000000000000000000000000000002",
                        "prev": "0x000000000000000000000000000000000000000000001b30fb8b96d86a274000"
                    },
                    {
                        "current": "0x0000000000000000000000000000000000000000000000028de7f5e743274000",
                        "key": "0x02e4f05900d64c9798d664de1a8e27e82d1b8970dc1e0aa7a9ec7e600a220f65",
                        "prev": "0x0000000000000000000000000000000000000000000000022b1c8c1227a00000"
                    }
                ],
                "storageVariables": [
                    {
                        "name": "_totalSupply",
                        "type": "uint256",
                        "value": {
                            "current": "128414583400000000000000",
                            "prev": "128407464500000000000000",
                            "typeTag": 1
                        }
                    },
                    {
                        "name": "_balances",
                        "type": "mapping(address => uint256)",
                        "value": {
                            "pairs": [
                                {
                                    "key": "0x509217593100cb61ee1078af760e8aa00cbda7c4",
                                    "value": {
                                        "current": "47118900000000000000",
                                        "prev": "40000000000000000000",
                                        "typeTag": 1
                                    }
                                }
                            ],
                            "typeTag": 4
                        }
                    }
                ]
            }
        ]
    }
}