{
    "balance_change": {
        "balanceChanges": [
            {
                "account": "0x54f38f4e33e47bd13e7a0f46ed7afad61a40bfc1",
                "assets": [
                    {
                        "address": "0xeeeeeeeeeeeeeeeeeeeeeeeeeeeeeeeeeeeeeeee",
                        "amount": "0.4",
                        "iconUrl": "https://assets.blocksec.com/image/1663669189317-3.png",
                        "isERC1155": false,
                        "isERC721": false,
                        "sign": false,
                        "value": "1286.452361"
                    },
                    {
                        "address": "0x99b9791d1580bf504a1709d310923a46237c8f2c",
                        "amount": "1",
                        "iconUrl": "",
                        "isERC1155": false,
                        "isERC721": true,
                        "sign": true,
                        "tokenID": "1856",
                        "value": ""
                    },
                    {
                        "address": "0x99b9791d1580bf504a1709d310923a46237c8f2c",
                        "amount": "1",
                        "iconUrl": "",
                        "isERC1155": false,
                        "isERC721": true,
                        "sign": true,
                        "tokenID": "1857",
                        "value": ""
                    }
                ]
            },
            {
                "account": "0x99b9791d1580bf504a1709d310923a46237c8f2c",
                "assets": [
                    {
                        "address": "0xeeeeeeeeeeeeeeeeeeeeeeeeeeeeeeeeeeeeeeee",
                        "amount": "0.4",
                        "iconUrl": "https://assets.blocksec.com/image/1663669189317-3.png",
                        "isERC1155": false,
                        "isERC721": false,
                        "sign": true,
                        "value": "1286.452361"
                    }
                ]
            },
            {
                "account": "0x0000000000000000000000000000000000000000",
                "assets": [
                    {
                        "address": "0x99b9791d1580bf504a1709d310923a46237c8f2c",
                        "amount": "1",
                        "iconUrl": "",
                        "isERC1155": false,
                        "isERC721": true,
                        "sign": false,
                        "tokenID": "1856",
                        "value": ""
                    },
                    {
                        "address": "0x99b9791d1580bf504a1709d310923a46237c8f2c",
                        "amount": "1",
                        "iconUrl": "",
                        "isERC1155": false,
                        "isERC721": true,
                        "sign": false,
                        "tokenID": "1857",
                        "value": ""
                    }
                ]
            }
        ]
    },
    "profile": {
        "basic_info": {
            "baseFee": "63.647278344",
            "blockNumber": 13098278,
            "callData": "0x6e829d8f0000000000000000000000000000000000000000000000000000000000000002",
            "debugEnable": true,
            "errorInfo": "",
            "eventCount": 2,
            "feeRecipient": "0x829bd824b016326a401d083b33d092293333a830",
            "formatValue": "0.4",
            "gasLimit": 409635,
            "gasPrice": "64.972678344",
            "gasUsed": 268102,
            "intTxnCount": 0,
            "internalRevert": false,
            "internalRevertMessage": "",
            "isContractCreation": false,
            "isFlashloan": false,
            "maxFee": "79.709858828",
            "nonce": 1558,
            "overwritedBlockNumber": -1,
            "priorityFee": "1.3254",
            "receiver": "0x99b9791d1580bf504a1709d310923a46237c8f2c",
            "revertMessage": "",
            "sender": "0x54f38f4e33e47bd13e7a0f46ed7afad61a40bfc1",
            "simulationEnable": true,
            "sourceTxnHash": "0x03c0eeebc69c04757983133aaef3ac2243c360eea717f434f460472206f613e4",
            "status": true,
            "timestamp": "2021-08-26T02:26:23Z",
            "transactionFee": "0.017419305009383088",
            "txnHash": "0x03c0eeebc69c04757983133aaef3ac2243c360eea717f434f460472206f613e4",
            "txnIndex": 308,
            "type": 2,
            "value": "400000000000000000"
        },
        "fund_flow": [
            {
                "amount": "0.4",
                "from": "0x54f38f4e33e47bd13e7a0f46ed7afad61a40bfc1",
                "id": 1,
                "isERC1155": false,
                "isERC721": false,
                "isReverted": false,
                "order": 1,
                "to": "0x99b9791d1580bf504a1709d310923a46237c8f2c",
                "token": "0xeeeeeeeeeeeeeeeeeeeeeeeeeeeeeeeeeeeeeeee"
            },
            {
                "amount": "1",
                "from": "0x0000000000000000000000000000000000000000",
                "id": 2,
                "isERC1155": false,
                "isERC721": true,
                "isReverted": false,
                "order": 2,
                "to": "0x54f38f4e33e47bd13e7a0f46ed7afad61a40bfc1",
                "token": "0x99b9791d1580bf504a1709d310923a46237c8f2c",
                "tokenID": "1856"
            },
            {
                "amount": "1",
                "from": "0x0000000000000000000000000000000000000000",
                "id": 3,
                "isERC1155": false,
                "isERC721": true,
                "isReverted": false,
                "order": 3,
                "to": "0x54f38f4e33e47bd13e7a0f46ed7afad61a40bfc1",
                "token": "0x99b9791d1580bf504a1709d310923a46237c8f2c",
                "tokenID": "1857"
            }
        ],
        "token_infos": [
            {
                "address": "0xc02aaa39b223fe8d0a0e5c4f27ead9083c756cc2",
                "decimals": 18
            },
            {
                "address": "0xeeeeeeeeeeeeeeeeeeeeeeeeeeeeeeeeeeeeeeee",
                "decimals": 18
            }
        ]
    },
    "address_label": {
        "labels": [
            {
                "address": "0xeeeeeeeeeeeeeeeeeeeeeeeeeeeeeeeeeeeeeeee",
                "label": "Ether"
            },
            {
                "address": "0x99b9791d1580bf504a1709d310923a46237c8f2c",
                "label": "Million Dollar Rat: MDRAT Token"
            },
            {
                "address": "0x0000000000000000000000000000000000000001",
                "label": "Precompiled"
            },
            {
                "address": "0x0000000000000000000000000000000000000002",
                "label": "Precompiled"
            },
            {
                "address": "0x0000000000000000000000000000000000000003",
                "label": "Precompiled"
            },
            {
                "address": "0x0000000000000000000000000000000000000004",
                "label": "Precompiled"
            }
        ]
    },
    "trace": {
        "accountLabels": null,
        "dataMap": {
            "-1": {
                "invocation": {
                    "address": "0x54f38f4e33e47bd13e7a0f46ed7afad61a40bfc1",
                    "callData": "",
                    "decodedMethod": null,
                    "errorInfo": "",
                    "fromAddress": "",
                    "gasUsed": 0,
                    "id": -1,
                    "methodDecoded": false,
                    "operation": "",
                    "output": "",
                    "revert": false,
                    "revertMessage": "",
                    "selector": "",
                    "status": false,
                    "value": ""
                },
                "nodeType": 0
            },
            "0": {
                "invocation": {
                    "address": "0x99b9791d1580bf504a1709d310923a46237c8f2c",
                    "callData": "0x0000000000000000000000000000000000000000000000000000000000000002",
                    "decodedMethod": {
                        "callParams": [
                            {
                                "name": "numberOfRats",
                                "type": "uint256",
                                "value": "2"
                            }
                        ],
                        "constructorArguments": "",
                        "name": "mintRats",
                        "returnParams": [],
                        "signature": "mintRats(uint256)"
                    },
                    "errorInfo": "",
                    "fromAddress": "0x54f38f4e33e47bd13e7a0f46ed7afad61a40bfc1",
                    "gasUsed": 268102,
                    "id": 0,
                    "methodDecoded": true,
                    "operation": "CALL",
                    "output": "",
                    "revert": false,
                    "revertMessage": "",
                    "selector": "0x6e829d8f",
                    "status": true,
                    "value": "0.4"
                },
                "nodeType": 0
            },
            "1": {
                "event": {
                    "contract": "0x99b9791d1580bf504a1709d310923a46237c8f2c",
                    "decodedLog": {
                        "name": "Transfer",
                        "params": [
                            {
                                "name": "from",
                                "type": "address",
                                "value": "0x0000000000000000000000000000000000000000"
                            },
                            {
                                "name": "to",
                                "type": "address",
                                "value": "0x54f38f4e33e47bd13e7a0f46ed7afad61a40bfc1"
                            },
                            {
                                "decimalAvailable": true,
                                "name": "tokenId",
                                "type": "uint256",
                                "value": "1,856"
                            }
                        ],
                        "signature": "Transfer(address,address,uint256)"
                    },
                    "id": 1,
                    "logData": "0x",
                    "logDecoded": true,
                    "operation": "EVENT",
                    "revert": false,
                    "status": true,
                    "topics": [
                        "0xddf252ad1be2c89b69c2b068fc378daa952ba7f163c4a11628f55a4df523b3ef",
                        "0x0000000000000000000000000000000000000000000000000000000000000000",
                        "0x00000000000000000000000054f38f4e33e47bd13e7a0f46ed7afad61a40bfc1",
                        "0x0000000000000000000000000000000000000000000000000000000000000740"
                    ]
                },
                "nodeType": 1
            },
            "2": {
                "event": {
                    "contract": "0x99b9791d1580bf504a1709d310923a46237c8f2c",
                    "decodedLog": {
                        "name": "Transfer",
                        "params": [
                            {
                                "name": "from",
                                "type": "address",
                                "value": "0x0000000000000000000000000000000000000000"
                            },
                            {
                                "name": "to",
                                "type": "address",
                                "value": "0x54f38f4e33e47bd13e7a0f46ed7afad61a40bfc1"
                            },
                            {
                                "decimalAvailable": true,
                                "name": "tokenId",
                                "type": "uint256",
                                "value": "1,857"
                            }
                        ],
                        "signature": "Transfer(address,address,uint256)"
                    },
                    "id": 2,
                    "logData": "0x",
                    "logDecoded": true,
                    "operation": "EVENT",
                    "revert": false,
                    "status": true,
                    "topics": [
                        "0xddf252ad1be2c89b69c2b068fc378daa952ba7f163c4a11628f55a4df523b3ef",
                        "0x0000000000000000000000000000000000000000000000000000000000000000",
                        "0x00000000000000000000000054f38f4e33e47bd13e7a0f46ed7afad61a40bfc1",
                        "0x0000000000000000000000000000000000000000000000000000000000000741"
                    ]
                },
                "nodeType": 1
            }
        },
        "gasFlame": [
            {
                "children": [
                    {
                        "children": [
                            {
                                "children": [],
                                "depth": 0,
                                "name": "Initial Gas",
                                "value": 21204
                            },
                            {
                                "children": [],
                                "depth": 0,
                                "name": "Executed Gas",
                                "value": 249698
                            }
                        ],
                        "depth": -1,
                        "name": "Actual Gas Used",
                        "value": 268102
                    },
                    {
                        "children": [],
                        "depth": -1,
                        "name": "Refunded Gas",
                        "value": 2800
                    }
                ],
                "depth": -2,
                "name": "Total Gas",
                "value": 270902
            }
        ],
        "isConfirmed": true,
        "mainTrace": [
            {
                "children": [
                    {
                        "children": [
                            {
                                "children": [],
                                "depth": 1,
                                "id": 1,
                                "order": 1
                            },
                            {
                                "children": [],
                                "depth": 1,
                                "id": 2,
                                "order": 2
                            }
                        ],
                        "depth": 0,
                        "id": 0,
                        "order": 0
                    }
                ],
                "depth": -1,
                "id": -1,
                "order": -1
            }
        ],
        "mainTraceNodeCount": 3,
        "parentIdMap": {
            "0": -1,
            "1": 0,
            "2": 0
        },
        "tidyTrace": [
            {
                "children": [
                    {
                        "children": [
                            {
                                "children": [],
                                "depth": 1,
                                "id": 1,
                                "order": 1
                            },
                            {
                                "children": [],
                                "depth": 1,
                                "id": 2,
                                "order": 2
                            }
                        ],
                        "depth": 0,
                        "id": 0,
                        "order": 0
                    }
                ],
                "depth": -1,
                "id": -1,
                "order": -1
            }
        ],
        "tidyTraceNodeCount": 3
    },
    "state_change": {
        "stateChanges": [
            {
                "address": "0x99b9791d1580bf504a1709d310923a46237c8f2c",
                "erc": "ERC-721",
                "slots": [
                    {
                        "current": "0x00000000000000000000000054f38f4e33e47bd13e7a0f46ed7afad61a40bfc1",
                        "key": "0x775cf418bb3d306d9fefdfaebcf5e289600ad4da49a9feb33a707a9d9fdabbb6",
                        "prev": "0x0000000000000000000000000000000000000000000000000000000000000000"
                    },
                    {
                        "current": "0x0000000000000000000000000000000000000000000000000000000000000742",
                        "key": "0x0000000000000000000000000000000000000000000000000000000000000008",
                        "prev": "0x0000000000000000000000000000000000000000000000000000000000000740"
                    },
                    {
                        "current": "0x0000000000000000000000000000000000000000000000000000000000000741",
                        "key": "0xf16351a22bbc481c0e26465e60510cce3dd96e0e4cf6bb517757402544ecc746",
                        "prev": "0x0000000000000000000000000000000000000000000000000000000000000000"
                    },
                    {
                        "current": "0x0000000000000000000000000000000000000000000000000000000000000740",
                        "key": "0xf3f7a9fe364faab93b216da50a3214154f22a0a2b415b23a84c8169e8b637623",
                        "prev": "0x0000000000000000000000000000000000000000000000000000000000000000"
                    },
                    {
                        "current": "0x0000000000000000000000000000000000000000000000000000000000000741",
                        "key": "0xf3f7a9fe364faab93b216da50a3214154f22a0a2b415b23a84c8169e8b637624",
                        "prev": "0x0000000000000000000000000000000000000000000000000000000000000000"
                    },
                    {
                        "current": "0x0000000000000000000000000000000000000000000000000000000000000741",
                        "key": "0x3736556743a6b01b0ab5745a3b1c8f9f098098a4f114a40a8b9887f7564a73f3",
                        "prev": "0x0000000000000000000000000000000000000000000000000000000000000000"
                    },
                    {
                        "current": "0x00000000000000000000000054f38f4e33e47bd13e7a0f46ed7afad61a40bfc1",
                        "key": "0x4b328e98d2a94e66ca2b2dc70761622eb52c805155d3536b2f240478dee6c0a9",
                        "prev": "0x0000000000000000000000000000000000000000000000000000000000000000"
                    },
                    {
                        "current": "0x0000000000000000000000000000000000000000000000000000000000000740",
                        "key": "0xdb0db35a4876dddf0909d59257291705f84410805e5c71c2c24e715b2510ce2f",
                        "prev": "0x0000000000000000000000000000000000000000000000000000000000000000"
                    },
                    {
                        "current": "0x0000000000000000000000000000000000000000000000000000000000000003",
                        "key": "0xce05528fa7c54508288d563dec8f8839d7b2a789d17c3c8f1b4b8ad9fd24c054",
                        "prev": "0x0000000000000000000000000000000000000000000000000000000000000001"
                    },
                    {
                        "current": "0x0000000000000000000000000000000000000000000000000000000000000001",
                        "key": "0xb8327ed37706ed67dd0f25c28b31cada590a4080a6df2c1bdba955e9f01b3739",
                        "prev": "0x0000000000000000000000000000000000000000000000000000000000000000"
                    },
                    {
                        "current": "0x0000000000000000000000000000000000000000000000000000000000000740",
                        "key": "0x993fe4a15478a5f13973cb648e88c84903c28c038d24ea2a88df375b426538a8",
                        "prev": "0x0000000000000000000000000000000000000000000000000000000000000000"
                    },
                    {
                        "current": "0x0000000000000000000000000000000000000000000000000000000000000002",
                        "key": "0x3fc9f06be1c1eb452a1358a4c5cfbe137071dea4e95e95f20e8004120251a17b",
                        "prev": "0x0000000000000000000000000000000000000000000000000000000000000000"
                    }
                ],
                "storageVariables": [
                    {
                        "name": "_allTokensIndex",
                        "type": "mapping(uint256 => uint256)",
                        "value": {
                            "pairs": [
                                {
                                    "key": "1856",
                                    "value": {
                                        "current": "1856",
                                        "prev": "0",
                                        "typeTag": 1
                                    }
                                },
                                {
                                    "key": "1857",
                                    "value": {
                                        "current": "1857",
                                        "prev": "0",
                                        "typeTag": 1
                                    }
                                }
                            ],
                            "typeTag": 4
                        }
                    },
                    {
                        "name": "_allTokens",
                        "type": "uint256[]",
                        "value": {
                            "elemType": "uint256",
                            "elems": [
                                {
                                    "index": 1856,
                                    "value": {
                                        "current": "1856",
                                        "prev": "0",
                                        "typeTag": 1
                                    }
                                },
                                {
                                    "index": 1857,
                                    "value": {
                                        "current": "1857",
                                        "prev": "0",
                                        "typeTag": 1
                                    }
                                }
                            ],
                            "typeTag": 2
                        }
                    },
                    {
                        "name": "_ownedTokens",
                        "type": "mapping(address => mapping(uint256 => uint256))",
                        "value": {
                            "pairs": [
                                {
                                    "key": "0x54f38f4e33e47bd13e7a0f46ed7afad61a40bfc1",
                                    "value": {
                                        "pairs": [
                                            {
                                                "key": "1",
                                                "value": {
                                                    "current": "1856",
                                                    "prev": "0",
                                                    "typeTag": 1
                                                }
                                            },
                                            {
                                                "key": "2",
                                                "value": {
                                                    "current": "1857",
                                                    "prev": "0",
                                                    "typeTag": 1
                                                }
                                            }
                                        ],
                                        "typeTag": 4
                                    }
                                }
                            ],
                            "typeTag": 4
                        }
                    },
                    {
                        "name": "_balances",
                        "type": "mapping(address => uint256)",
                        "value": {
                            "pairs": [
                                {
                                    "key": "0x54f38f4e33e47bd13e7a0f46ed7afad61a40bfc1",
                                    "value": {
                                        "current": "3",
                                        "prev": "1",
                                        "typeTag": 1
                                    }
                                }
                            ],
                            "typeTag": 4
                        }
                    },
                    {
                        "name": "_ownedTokensIndex",
                        "type": "mapping(uint256 => uint256)",
                        "value": {
                            "pairs": [
                                {
                                    "key": "1856",
                                    "value": {
                                        "current": "1",
                                        "prev": "0",
                                        "typeTag": 1
                                    }
                                },
                                {
                                    "key": "1857",
                                    "value": {
                                        "current": "2",
                                        "prev": "0",
                                        "typeTag": 1
                                    }
                                }
                            ],
                            "typeTag": 4
                        }
                    },
                    {
                        "name": "_owners",
                        "type": "mapping(uint256 => address)",
                        "value": {
                            "pairs": [
                                {
                                    "key": "1856",
                                    "value": {
                                        "current": "0x54f38f4e33e47bd13e7a0f46ed7afad61a40bfc1",
                                        "prev": "0x0000000000000000000000000000000000000000",
                                        "typeTag": 1
                                    }
                                },
                                {
                                    "key": "1857",
                                    "value": {
                                        "current": "0x54f38f4e33e47bd13e7a0f46ed7afad61a40bfc1",
                                        "prev": "0x0000000000000000000000000000000000000000",
                                        "typeTag": 1
                                    }
                                }
                            ],
                            "typeTag": 4
                        }
                    }
                ]
            }
        ]
    }
}