{
    "balance_change": {
        "balanceChanges": [
            {
                "account": "0x5cd52418c54462efb83193fbe63631264558b58c",
                "assets": [
                    {
                        "address": "0x0f5d2fb29fb7d3cfee444a200298f468908cc942",
                        "amount": "7,137.99783024",
                        "iconUrl": "https://assets.blocksec.com/icon/54d64db7c4b21ad51c32e15fe06a87bf31831382d6c6aa49b4adb5dfaa42993c.png",
                        "isERC1155": false,
                        "isERC721": false,
                        "sign": false,
                        "value": "2269.529726"
                    }
                ]
            },
            {
                "account": "0x15c65a114049b77c0accef7fd6ee0db71b89882c",
                "assets": [
                    {
                        "address": "0x0f5d2fb29fb7d3cfee444a200298f468908cc942",
                        "amount": "7,137.99783024",
                        "iconUrl": "https://assets.blocksec.com/icon/54d64db7c4b21ad51c32e15fe06a87bf31831382d6c6aa49b4adb5dfaa42993c.png",
                        "isERC1155": false,
                        "isERC721": false,
                        "sign": true,
                        "value": "2269.529726"
                    }
                ]
            }
        ]
    },
    "profile": {
        "basic_info": {
            "baseFee": "",
            "blockNumber": 11966703,
            "callData": "0xa9059cbb00000000000000000000000015c65a114049b77c0accef7fd6ee0db71b89882c000000000000000000000000000000000000000000000182f39e87deb43bc000",
            "debugEnable": true,
            "errorInfo": "",
            "eventCount": 1,
            "feeRecipient": "0xb3b7874f13387d44a3398d298b075b7a3505d8d4",
            "formatValue": "0",
            "gasLimit": 250000,
            "gasPrice": "154",
            "gasUsed": 52461,
            "intTxnCount": 0,
            "internalRevert": false,
            "internalRevertMessage": "",
            "isContractCreation": false,
            "isFlashloan": false,
            "maxFee": "",
            "nonce": 0,
            "overwritedBlockNumber": -1,
            "priorityFee": "",
            "receiver": "0x0f5d2fb29fb7d3cfee444a200298f468908cc942",
            "revertMessage": "",
            "sender": "0x5cd52418c54462efb83193fbe63631264558b58c",
            "simulationEnable": true,
            "sourceTxnHash": "0x038e0a716536d73ae7bc7f4927222ed4d20332571ec310baf593068f915cee04",
            "status": true,
            "timestamp": "2021-03-03T17:34:17Z",
            "transactionFee": "0.008078994",
            "txnHash": "0x038e0a716536d73ae7bc7f4927222ed4d20332571ec310baf593068f915cee04",
            "txnIndex": 71,
            "type": 0,
            "value": "0"
        },
        "fund_flow": [
            {
                "amount": "7,137.99783024",
                "from": "0x5cd52418c54462efb83193fbe63631264558b58c",
                "id": 1,
                "isERC1155": false,
                "isERC721": false,
                "isReverted": false,
                "order": 1,
                "to": "0x15c65a114049b77c0accef7fd6ee0db71b89882c",
                "token": "0x0f5d2fb29fb7d3cfee444a200298f468908cc942"
            }
        ],
        "token_infos": [
            {
                "address": "0x0f5d2fb29fb7d3cfee444a200298f468908cc942",
                "decimals": 18
            },
            {
                "address": "0xc02aaa39b223fe8d0a0e5c4f27ead9083c756cc2",
                "decimals": 18
            },
            {
                "address": "0xeeeeeeeeeeeeeeeeeeeeeeeeeeeeeeeeeeeeeeee",
                "decimals": 18
            }
        ]
    },
    "address_label": {
        "labels": [
            {
                "address": "0x0000000000000000000000000000000000000002",
                "label": "Precompiled"
            },
            {
                "address": "0x0000000000000000000000000000000000000003",
                "label": "Precompiled"
            },
            {
                "address": "0x0000000000000000000000000000000000000004",
                "label": "Precompiled"
            },
            {
                "address": "0xeeeeeeeeeeeeeeeeeeeeeeeeeeeeeeeeeeeeeeee",
                "label": "Ether"
            },
            {
                "address": "0x0f5d2fb29fb7d3cfee444a200298f468908cc942",
                "label": "Decentraland: MANA Token"
            },
            {
                "address": "0x0000000000000000000000000000000000000001",
                "label": "Precompiled"
            }
        ]
    },
    "trace": {
        "accountLabels": null,
        "dataMap": {
            "-1": {
                "invocation": {
                    "address": "0x5cd52418c54462efb83193fbe63631264558b58c",
                    "callData": "",
                    "decodedMethod": null,
                    "errorInfo": "",
                    "fromAddress": "",
                    "gasUsed": 0,
                    "id": -1,
                    "methodDecoded": false,
                    "operation": "",
                    "output": "",
                    "revert": false,
                    "revertMessage": "",
                    "selector": "",
                    "status": false,
                    "value": ""
                },
                "nodeType": 0
            },
            "0": {
                "invocation": {
                    "address": "0x0f5d2fb29fb7d3cfee444a200298f468908cc942",
                    "callData": "0x00000000000000000000000015c65a114049b77c0accef7fd6ee0db71b89882c000000000000000000000000000000000000000000000182f39e87deb43bc000",
                    "decodedMethod": {
                        "callParams": [
                            {
                                "name": "_to",
                                "type": "address",
                                "value": "0x15c65a114049b77c0accef7fd6ee0db71b89882c"
                            },
                            {
                                "decimalAvailable": true,
                                "name": "_value",
                                "type": "uint256",
                                "value": "7,137,997,830,240,000,000,000"
                            }
                        ],
                        "constructorArguments": "",
                        "name": "transfer",
                        "returnParams": [
                            {
                                "name": "",
                                "type": "bool",
                                "value": true
                            }
                        ],
                        "signature": "transfer(address,uint256)"
                    },
                    "errorInfo": "",
                    "fromAddress": "0x5cd52418c54462efb83193fbe63631264558b58c",
                    "gasUsed": 52461,
                    "id": 0,
                    "methodDecoded": true,
                    "operation": "CALL",
                    "output": "0x0000000000000000000000000000000000000000000000000000000000000001",
                    "revert": false,
                    "revertMessage": "",
                    "selector": "0xa9059cbb",
                    "status": true,
                    "value": "0"
                },
                "nodeType": 0
            },
            "1": {
                "event": {
                    "contract": "0x0f5d2fb29fb7d3cfee444a200298f468908cc942",
                    "decodedLog": {
                        "name": "Transfer",
                        "params": [
                            {
                                "name": "from",
                                "type": "address",
                                "value": "0x5cd52418c54462efb83193fbe63631264558b58c"
                            },
                            {
                                "name": "to",
                                "type": "address",
                                "value": "0x15c65a114049b77c0accef7fd6ee0db71b89882c"
                            },
                            {
                                "decimalAvailable": true,
                                "name": "value",
                                "type": "uint256",
                                "value": "7,137,997,830,240,000,000,000"
                            }
                        ],
                        "signature": "Transfer(address,address,uint256)"
                    },
                    "id": 1,
                    "logData": "0x000000000000000000000000000000000000000000000182f39e87deb43bc000",
                    "logDecoded": true,
                    "operation": "EVENT",
                    "revert": false,
                    "status": true,
                    "topics": [
                        "0xddf252ad1be2c89b69c2b068fc378daa952ba7f163c4a11628f55a4df523b3ef",
                        "0x0000000000000000000000005cd52418c54462efb83193fbe63631264558b58c",
                        "0x00000000000000000000000015c65a114049b77c0accef7fd6ee0db71b89882c"
                    ]
                },
                "nodeType": 1
            }
        },
        "gasFlame": [
            {
                "children": [
                    {
                        "children": [
                            {
                                "children": [],
                                "depth": 0,
                                "name": "Initial Gas",
                                "value": 21668
                            },
                            {
                                "children": [],
                                "depth": 0,
                                "name": "Executed Gas",
                                "value": 30793
                            }
                        ],
                        "depth": -1,
                        "name": "Actual Gas Used",
                        "value": 52461
                    },
                    {
                        "children": [],
                        "depth": -1,
                        "name": "Refunded Gas",
                        "value": 0
                    }
                ],
                "depth": -2,
                "name": "Total Gas",
                "value": 52461
            }
        ],
        "isConfirmed": true,
        "mainTrace": [
            {
                "children": [
                    {
                        "children": [
                            {
                                "children": [],
                                "depth": 1,
                                "id": 1,
                                "order": 1
                            }
                        ],
                        "depth": 0,
                        "id": 0,
                        "order": 0
                    }
                ],
                "depth": -1,
                "id": -1,
                "order": -1
            }
        ],
        "mainTraceNodeCount": 2,
        "parentIdMap": {
            "0": -1,
            "1": 0
        },
        "tidyTrace": [
            {
                "children": [
                    {
                        "children": [
                            {
                                "children": [],
                                "depth": 1,
                                "id": 1,
                                "order": 1
                            }
                        ],
                        "depth": 0,
                        "id": 0,
                        "order": 0
                    }
                ],
                "depth": -1,
                "id": -1,
                "order": -1
            }
        ],
        "tidyTraceNodeCount": 2
    },
    "state_change": {
        "stateChanges": [
            {
                "address": "0x0f5d2fb29fb7d3cfee444a200298f468908cc942",
                "erc": "ERC-20",
                "slots": [
                    {
                        "current": "0x0000000000000000000000000000000000000000000000838f645acf6e72abc2",
                        "key": "0xc0e2022ab2d7b36b90e6ce2b4ddf0eba68d65c7a326e2ec838b4e2f35f27bee5",
                        "prev": "0x0000000000000000000000000000000000000000000002068302e2ae22ae6bc2"
                    },
                    {
                        "current": "0x000000000000000000000000000000000000000000000182f39e87deb43bc000",
                        "key": "0xf067d919a9c4ee96640f92399afb32a27c8d85eeb039d7f2d6c81bbeb0482ff8",
                        "prev": "0x0000000000000000000000000000000000000000000000000000000000000000"
                    }
                ],
                "storageVariables": []
            }
        ]
    }
}