{
    "balance_change": {
        "balanceChanges": [
            {
                "account": "0x722bd8c51522b55e0e0bea909b1e80f250a860ef",
                "assets": [
                    {
                        "address": "0xeeeeeeeeeeeeeeeeeeeeeeeeeeeeeeeeeeeeeeee",
                        "amount": "0.01",
                        "iconUrl": "https://assets.blocksec.com/image/1663669189317-3.png",
                        "isERC1155": false,
                        "isERC721": false,
                        "sign": false,
                        "value": "25.88603037"
                    }
                ]
            },
            {
                "account": "0x8d0cd328dd41c3934a2be66578b63cffeb3e555d",
                "assets": [
                    {
                        "address": "0xeeeeeeeeeeeeeeeeeeeeeeeeeeeeeeeeeeeeeeee",
                        "amount": "0.01",
                        "iconUrl": "https://assets.blocksec.com/image/1663669189317-3.png",
                        "isERC1155": false,
                        "isERC721": false,
                        "sign": true,
                        "value": "25.88603037"
                    }
                ]
            }
        ]
    },
    "profile": {
        "basic_info": {
            "baseFee": "43.272559441",
            "blockNumber": 14366357,
            "callData": "0x86c1e32b000000000000000000000000000000000000000000000000000000000000000200000000000000000000000000000000000000000000000000000000000e6d77",
            "debugEnable": true,
            "errorInfo": "",
            "eventCount": 1,
            "feeRecipient": "0x03e75d7dd38cce2e20ffee35ec914c57780a8e29",
            "formatValue": "0.01",
            "gasLimit": 279888,
            "gasPrice": "44.272559441",
            "gasUsed": 186592,
            "intTxnCount": 27,
            "internalRevert": false,
            "internalRevertMessage": "",
            "isContractCreation": false,
            "isFlashloan": false,
            "maxFee": "96.997321284",
            "nonce": 282,
            "overwritedBlockNumber": -1,
            "priorityFee": "1",
            "receiver": "0x8d0cd328dd41c3934a2be66578b63cffeb3e555d",
            "revertMessage": "",
            "sender": "0x722bd8c51522b55e0e0bea909b1e80f250a860ef",
            "simulationEnable": true,
            "sourceTxnHash": "0x042b81fb318cadf0cb93377ce0f608790545a970900617e95c6b6dedb443d55c",
            "status": true,
            "timestamp": "2022-03-11T15:32:17Z",
            "transactionFee": "0.008260905411215072",
            "txnHash": "0x042b81fb318cadf0cb93377ce0f608790545a970900617e95c6b6dedb443d55c",
            "txnIndex": 134,
            "type": 2,
            "value": "10000000000000000"
        },
        "fund_flow": [
            {
                "amount": "0.01",
                "from": "0x722bd8c51522b55e0e0bea909b1e80f250a860ef",
                "id": 1,
                "isERC1155": false,
                "isERC721": false,
                "isReverted": false,
                "order": 1,
                "to": "0x8d0cd328dd41c3934a2be66578b63cffeb3e555d",
                "token": "0xeeeeeeeeeeeeeeeeeeeeeeeeeeeeeeeeeeeeeeee"
            }
        ],
        "token_infos": [
            {
                "address": "0xc02aaa39b223fe8d0a0e5c4f27ead9083c756cc2",
                "decimals": 18
            },
            {
                "address": "0xeeeeeeeeeeeeeeeeeeeeeeeeeeeeeeeeeeeeeeee",
                "decimals": 18
            }
        ]
    },
    "address_label": {
        "labels": [
            {
                "address": "0x8d0cd328dd41c3934a2be66578b63cffeb3e555d",
                "label": "Dungeon2"
            },
            {
                "address": "0x0000000000000000000000000000000000000001",
                "label": "Precompiled"
            },
            {
                "address": "0x0000000000000000000000000000000000000002",
                "label": "Precompiled"
            },
            {
                "address": "0x0000000000000000000000000000000000000003",
                "label": "Precompiled"
            },
            {
                "address": "0x0000000000000000000000000000000000000004",
                "label": "Precompiled"
            },
            {
                "address": "0xeeeeeeeeeeeeeeeeeeeeeeeeeeeeeeeeeeeeeeee",
                "label": "Ether"
            },
            {
                "address": "0x1dfe7ca09e99d10835bf73044a23b73fc20623df",
                "label": "More Loot: MLOOT Token"
            },
            {
                "address": "0x04190ef3d7c91c881d335725b6bb5d45236b22ae",
                "label": "LootClassification"
            }
        ]
    },
    "trace": {
        "accountLabels": null,
        "dataMap": {
            "-1": {
                "invocation": {
                    "address": "0x722bd8c51522b55e0e0bea909b1e80f250a860ef",
                    "callData": "",
                    "decodedMethod": null,
                    "errorInfo": "",
                    "fromAddress": "",
                    "gasUsed": 0,
                    "id": -1,
                    "methodDecoded": false,
                    "operation": "",
                    "output": "",
                    "revert": false,
                    "revertMessage": "",
                    "selector": "",
                    "status": false,
                    "value": ""
                },
                "nodeType": 0
            },
            "0": {
                "invocation": {
                    "address": "0x8d0cd328dd41c3934a2be66578b63cffeb3e555d",
                    "callData": "0x000000000000000000000000000000000000000000000000000000000000000200000000000000000000000000000000000000000000000000000000000e6d77",
                    "decodedMethod": {
                        "callParams": [
                            {
                                "name": "dungeonId",
                                "type": "uint256",
                                "value": "2"
                            },
                            {
                                "name": "raidTokenId",
                                "type": "uint256",
                                "value": "945,527"
                            }
                        ],
                        "constructorArguments": "",
                        "name": "raidDungeon",
                        "returnParams": [],
                        "signature": "raidDungeon(uint256,uint256)"
                    },
                    "errorInfo": "",
                    "fromAddress": "0x722bd8c51522b55e0e0bea909b1e80f250a860ef",
                    "gasUsed": 186592,
                    "id": 0,
                    "methodDecoded": true,
                    "operation": "CALL",
                    "output": "",
                    "revert": false,
                    "revertMessage": "",
                    "selector": "0x86c1e32b",
                    "status": true,
                    "value": "0.01"
                },
                "nodeType": 0
            },
            "1": {
                "invocation": {
                    "address": "0x1dfe7ca09e99d10835bf73044a23b73fc20623df",
                    "callData": "0x00000000000000000000000000000000000000000000000000000000000e6d77",
                    "decodedMethod": {
                        "callParams": [
                            {
                                "name": "tokenId",
                                "type": "uint256",
                                "value": "945,527"
                            }
                        ],
                        "constructorArguments": "",
                        "name": "ownerOf",
                        "returnParams": [
                            {
                                "name": "",
                                "type": "address",
                                "value": "0x722bd8c51522b55e0e0bea909b1e80f250a860ef"
                            }
                        ],
                        "signature": "ownerOf(uint256)"
                    },
                    "errorInfo": "",
                    "fromAddress": "0x8d0cd328dd41c3934a2be66578b63cffeb3e555d",
                    "gasUsed": 2983,
                    "id": 1,
                    "methodDecoded": true,
                    "operation": "STATICCALL",
                    "output": "0x000000000000000000000000722bd8c51522b55e0e0bea909b1e80f250a860ef",
                    "revert": false,
                    "revertMessage": "",
                    "selector": "0x6352211e",
                    "status": true,
                    "value": "0"
                },
                "nodeType": 0
            },
            "10": {
                "invocation": {
                    "address": "0x04190ef3d7c91c881d335725b6bb5d45236b22ae",
                    "callData": "0x00000000000000000000000000000000000000000000000000000000000000010000000000000000000000000000000000000000000000000000000000000000",
                    "decodedMethod": {
                        "callParams": [
                            {
                                "name": "lootType",
                                "type": "uint8",
                                "value": "1"
                            },
                            {
                                "name": "index",
                                "type": "uint256",
                                "value": "0"
                            }
                        ],
                        "constructorArguments": "",
                        "name": "getRank",
                        "returnParams": [
                            {
                                "name": "",
                                "type": "uint256",
                                "value": "1"
                            }
                        ],
                        "signature": "getRank(uint8,uint256)"
                    },
                    "errorInfo": "",
                    "fromAddress": "0x8d0cd328dd41c3934a2be66578b63cffeb3e555d",
                    "gasUsed": 709,
                    "id": 10,
                    "methodDecoded": true,
                    "operation": "STATICCALL",
                    "output": "0x0000000000000000000000000000000000000000000000000000000000000001",
                    "revert": false,
                    "revertMessage": "",
                    "selector": "0xf63db297",
                    "status": true,
                    "value": "0"
                },
                "nodeType": 0
            },
            "11": {
                "invocation": {
                    "address": "0x04190ef3d7c91c881d335725b6bb5d45236b22ae",
                    "callData": "0x00000000000000000000000000000000000000000000000000000000000000010000000000000000000000000000000000000000000000000000000000000004",
                    "decodedMethod": {
                        "callParams": [
                            {
                                "name": "lootType",
                                "type": "uint8",
                                "value": "1"
                            },
                            {
                                "name": "index",
                                "type": "uint256",
                                "value": "4"
                            }
                        ],
                        "constructorArguments": "",
                        "name": "getRank",
                        "returnParams": [
                            {
                                "name": "",
                                "type": "uint256",
                                "value": "5"
                            }
                        ],
                        "signature": "getRank(uint8,uint256)"
                    },
                    "errorInfo": "",
                    "fromAddress": "0x8d0cd328dd41c3934a2be66578b63cffeb3e555d",
                    "gasUsed": 709,
                    "id": 11,
                    "methodDecoded": true,
                    "operation": "STATICCALL",
                    "output": "0x0000000000000000000000000000000000000000000000000000000000000005",
                    "revert": false,
                    "revertMessage": "",
                    "selector": "0xf63db297",
                    "status": true,
                    "value": "0"
                },
                "nodeType": 0
            },
            "12": {
                "invocation": {
                    "address": "0x04190ef3d7c91c881d335725b6bb5d45236b22ae",
                    "callData": "0x00000000000000000000000000000000000000000000000000000000000e6d77",
                    "decodedMethod": {
                        "callParams": [
                            {
                                "name": "tokenId",
                                "type": "uint256",
                                "value": "945,527"
                            }
                        ],
                        "constructorArguments": "",
                        "name": "headComponents",
                        "returnParams": [
                            {
                                "name": "",
                                "type": "uint256[6]",
                                "value": [
                                    "3",
                                    "5",
                                    "0",
                                    "0",
                                    "0",
                                    "18"
                                ]
                            }
                        ],
                        "signature": "headComponents(uint256)"
                    },
                    "errorInfo": "",
                    "fromAddress": "0x8d0cd328dd41c3934a2be66578b63cffeb3e555d",
                    "gasUsed": 6368,
                    "id": 12,
                    "methodDecoded": true,
                    "operation": "STATICCALL",
                    "output": "0x000000000000000000000000000000000000000000000000000000000000000300000000000000000000000000000000000000000000000000000000000000050000000000000000000000000000000000000000000000000000000000000000000000000000000000000000000000000000000000000000000000000000000000000000000000000000000000000000000000000000000000000000000000000000000000000000000000000000000000000000000000000000000000000012",
                    "revert": false,
                    "revertMessage": "",
                    "selector": "0x441870d0",
                    "status": true,
                    "value": "0"
                },
                "nodeType": 0
            },
            "13": {
                "invocation": {
                    "address": "0x04190ef3d7c91c881d335725b6bb5d45236b22ae",
                    "callData": "0x00000000000000000000000000000000000000000000000000000000000000020000000000000000000000000000000000000000000000000000000000000000",
                    "decodedMethod": {
                        "callParams": [
                            {
                                "name": "lootType",
                                "type": "uint8",
                                "value": "2"
                            },
                            {
                                "name": "index",
                                "type": "uint256",
                                "value": "0"
                            }
                        ],
                        "constructorArguments": "",
                        "name": "getClass",
                        "returnParams": [
                            {
                                "name": "",
                                "type": "uint8",
                                "value": "0"
                            }
                        ],
                        "signature": "getClass(uint8,uint256)"
                    },
                    "errorInfo": "",
                    "fromAddress": "0x8d0cd328dd41c3934a2be66578b63cffeb3e555d",
                    "gasUsed": 1018,
                    "id": 13,
                    "methodDecoded": true,
                    "operation": "STATICCALL",
                    "output": "0x0000000000000000000000000000000000000000000000000000000000000000",
                    "revert": false,
                    "revertMessage": "",
                    "selector": "0x5c7e6b0e",
                    "status": true,
                    "value": "0"
                },
                "nodeType": 0
            },
            "14": {
                "invocation": {
                    "address": "0x04190ef3d7c91c881d335725b6bb5d45236b22ae",
                    "callData": "0x00000000000000000000000000000000000000000000000000000000000000020000000000000000000000000000000000000000000000000000000000000003",
                    "decodedMethod": {
                        "callParams": [
                            {
                                "name": "lootType",
                                "type": "uint8",
                                "value": "2"
                            },
                            {
                                "name": "index",
                                "type": "uint256",
                                "value": "3"
                            }
                        ],
                        "constructorArguments": "",
                        "name": "getClass",
                        "returnParams": [
                            {
                                "name": "",
                                "type": "uint8",
                                "value": "0"
                            }
                        ],
                        "signature": "getClass(uint8,uint256)"
                    },
                    "errorInfo": "",
                    "fromAddress": "0x8d0cd328dd41c3934a2be66578b63cffeb3e555d",
                    "gasUsed": 1018,
                    "id": 14,
                    "methodDecoded": true,
                    "operation": "STATICCALL",
                    "output": "0x0000000000000000000000000000000000000000000000000000000000000000",
                    "revert": false,
                    "revertMessage": "",
                    "selector": "0x5c7e6b0e",
                    "status": true,
                    "value": "0"
                },
                "nodeType": 0
            },
            "15": {
                "invocation": {
                    "address": "0x04190ef3d7c91c881d335725b6bb5d45236b22ae",
                    "callData": "0x00000000000000000000000000000000000000000000000000000000000000020000000000000000000000000000000000000000000000000000000000000000",
                    "decodedMethod": {
                        "callParams": [
                            {
                                "name": "lootType",
                                "type": "uint8",
                                "value": "2"
                            },
                            {
                                "name": "index",
                                "type": "uint256",
                                "value": "0"
                            }
                        ],
                        "constructorArguments": "",
                        "name": "getRank",
                        "returnParams": [
                            {
                                "name": "",
                                "type": "uint256",
                                "value": "1"
                            }
                        ],
                        "signature": "getRank(uint8,uint256)"
                    },
                    "errorInfo": "",
                    "fromAddress": "0x8d0cd328dd41c3934a2be66578b63cffeb3e555d",
                    "gasUsed": 812,
                    "id": 15,
                    "methodDecoded": true,
                    "operation": "STATICCALL",
                    "output": "0x0000000000000000000000000000000000000000000000000000000000000001",
                    "revert": false,
                    "revertMessage": "",
                    "selector": "0xf63db297",
                    "status": true,
                    "value": "0"
                },
                "nodeType": 0
            },
            "16": {
                "invocation": {
                    "address": "0x04190ef3d7c91c881d335725b6bb5d45236b22ae",
                    "callData": "0x00000000000000000000000000000000000000000000000000000000000000020000000000000000000000000000000000000000000000000000000000000003",
                    "decodedMethod": {
                        "callParams": [
                            {
                                "name": "lootType",
                                "type": "uint8",
                                "value": "2"
                            },
                            {
                                "name": "index",
                                "type": "uint256",
                                "value": "3"
                            }
                        ],
                        "constructorArguments": "",
                        "name": "getRank",
                        "returnParams": [
                            {
                                "name": "",
                                "type": "uint256",
                                "value": "4"
                            }
                        ],
                        "signature": "getRank(uint8,uint256)"
                    },
                    "errorInfo": "",
                    "fromAddress": "0x8d0cd328dd41c3934a2be66578b63cffeb3e555d",
                    "gasUsed": 812,
                    "id": 16,
                    "methodDecoded": true,
                    "operation": "STATICCALL",
                    "output": "0x0000000000000000000000000000000000000000000000000000000000000004",
                    "revert": false,
                    "revertMessage": "",
                    "selector": "0xf63db297",
                    "status": true,
                    "value": "0"
                },
                "nodeType": 0
            },
            "17": {
                "invocation": {
                    "address": "0x04190ef3d7c91c881d335725b6bb5d45236b22ae",
                    "callData": "0x00000000000000000000000000000000000000000000000000000000000e6d77",
                    "decodedMethod": {
                        "callParams": [
                            {
                                "name": "tokenId",
                                "type": "uint256",
                                "value": "945,527"
                            }
                        ],
                        "constructorArguments": "",
                        "name": "waistComponents",
                        "returnParams": [
                            {
                                "name": "",
                                "type": "uint256[6]",
                                "value": [
                                    "1",
                                    "0",
                                    "0",
                                    "0",
                                    "0",
                                    "10"
                                ]
                            }
                        ],
                        "signature": "waistComponents(uint256)"
                    },
                    "errorInfo": "",
                    "fromAddress": "0x8d0cd328dd41c3934a2be66578b63cffeb3e555d",
                    "gasUsed": 6249,
                    "id": 17,
                    "methodDecoded": true,
                    "operation": "STATICCALL",
                    "output": "0x00000000000000000000000000000000000000000000000000000000000000010000000000000000000000000000000000000000000000000000000000000000000000000000000000000000000000000000000000000000000000000000000000000000000000000000000000000000000000000000000000000000000000000000000000000000000000000000000000000000000000000000000000000000000000000000000000000000000000000000000000000000000000000000000a",
                    "revert": false,
                    "revertMessage": "",
                    "selector": "0x261de77c",
                    "status": true,
                    "value": "0"
                },
                "nodeType": 0
            },
            "18": {
                "invocation": {
                    "address": "0x04190ef3d7c91c881d335725b6bb5d45236b22ae",
                    "callData": "0x00000000000000000000000000000000000000000000000000000000000e6d77",
                    "decodedMethod": {
                        "callParams": [
                            {
                                "name": "tokenId",
                                "type": "uint256",
                                "value": "945,527"
                            }
                        ],
                        "constructorArguments": "",
                        "name": "footComponents",
                        "returnParams": [
                            {
                                "name": "",
                                "type": "uint256[6]",
                                "value": [
                                    "3",
                                    "0",
                                    "0",
                                    "0",
                                    "0",
                                    "9"
                                ]
                            }
                        ],
                        "signature": "footComponents(uint256)"
                    },
                    "errorInfo": "",
                    "fromAddress": "0x8d0cd328dd41c3934a2be66578b63cffeb3e555d",
                    "gasUsed": 6270,
                    "id": 18,
                    "methodDecoded": true,
                    "operation": "STATICCALL",
                    "output": "0x000000000000000000000000000000000000000000000000000000000000000300000000000000000000000000000000000000000000000000000000000000000000000000000000000000000000000000000000000000000000000000000000000000000000000000000000000000000000000000000000000000000000000000000000000000000000000000000000000000000000000000000000000000000000000000000000000000000000000000000000000000000000000000000009",
                    "revert": false,
                    "revertMessage": "",
                    "selector": "0xe0398c1a",
                    "status": true,
                    "value": "0"
                },
                "nodeType": 0
            },
            "19": {
                "invocation": {
                    "address": "0x04190ef3d7c91c881d335725b6bb5d45236b22ae",
                    "callData": "0x00000000000000000000000000000000000000000000000000000000000000040000000000000000000000000000000000000000000000000000000000000002",
                    "decodedMethod": {
                        "callParams": [
                            {
                                "name": "lootType",
                                "type": "uint8",
                                "value": "4"
                            },
                            {
                                "name": "index",
                                "type": "uint256",
                                "value": "2"
                            }
                        ],
                        "constructorArguments": "",
                        "name": "getClass",
                        "returnParams": [
                            {
                                "name": "",
                                "type": "uint8",
                                "value": "0"
                            }
                        ],
                        "signature": "getClass(uint8,uint256)"
                    },
                    "errorInfo": "",
                    "fromAddress": "0x8d0cd328dd41c3934a2be66578b63cffeb3e555d",
                    "gasUsed": 1092,
                    "id": 19,
                    "methodDecoded": true,
                    "operation": "STATICCALL",
                    "output": "0x0000000000000000000000000000000000000000000000000000000000000000",
                    "revert": false,
                    "revertMessage": "",
                    "selector": "0x5c7e6b0e",
                    "status": true,
                    "value": "0"
                },
                "nodeType": 0
            },
            "2": {
                "invocation": {
                    "address": "0x04190ef3d7c91c881d335725b6bb5d45236b22ae",
                    "callData": "0x00000000000000000000000000000000000000000000000000000000000e6d77",
                    "decodedMethod": {
                        "callParams": [
                            {
                                "name": "tokenId",
                                "type": "uint256",
                                "value": "945,527"
                            }
                        ],
                        "constructorArguments": "",
                        "name": "weaponComponents",
                        "returnParams": [
                            {
                                "name": "",
                                "type": "uint256[6]",
                                "value": [
                                    "14",
                                    "7",
                                    "0",
                                    "0",
                                    "0",
                                    "17"
                                ]
                            }
                        ],
                        "signature": "weaponComponents(uint256)"
                    },
                    "errorInfo": "",
                    "fromAddress": "0x8d0cd328dd41c3934a2be66578b63cffeb3e555d",
                    "gasUsed": 6412,
                    "id": 2,
                    "methodDecoded": true,
                    "operation": "STATICCALL",
                    "output": "0x000000000000000000000000000000000000000000000000000000000000000e00000000000000000000000000000000000000000000000000000000000000070000000000000000000000000000000000000000000000000000000000000000000000000000000000000000000000000000000000000000000000000000000000000000000000000000000000000000000000000000000000000000000000000000000000000000000000000000000000000000000000000000000000000011",
                    "revert": false,
                    "revertMessage": "",
                    "selector": "0x4c865a79",
                    "status": true,
                    "value": "0"
                },
                "nodeType": 0
            },
            "20": {
                "invocation": {
                    "address": "0x04190ef3d7c91c881d335725b6bb5d45236b22ae",
                    "callData": "0x00000000000000000000000000000000000000000000000000000000000000040000000000000000000000000000000000000000000000000000000000000003",
                    "decodedMethod": {
                        "callParams": [
                            {
                                "name": "lootType",
                                "type": "uint8",
                                "value": "4"
                            },
                            {
                                "name": "index",
                                "type": "uint256",
                                "value": "3"
                            }
                        ],
                        "constructorArguments": "",
                        "name": "getClass",
                        "returnParams": [
                            {
                                "name": "",
                                "type": "uint8",
                                "value": "0"
                            }
                        ],
                        "signature": "getClass(uint8,uint256)"
                    },
                    "errorInfo": "",
                    "fromAddress": "0x8d0cd328dd41c3934a2be66578b63cffeb3e555d",
                    "gasUsed": 1092,
                    "id": 20,
                    "methodDecoded": true,
                    "operation": "STATICCALL",
                    "output": "0x0000000000000000000000000000000000000000000000000000000000000000",
                    "revert": false,
                    "revertMessage": "",
                    "selector": "0x5c7e6b0e",
                    "status": true,
                    "value": "0"
                },
                "nodeType": 0
            },
            "21": {
                "invocation": {
                    "address": "0x04190ef3d7c91c881d335725b6bb5d45236b22ae",
                    "callData": "0x00000000000000000000000000000000000000000000000000000000000000040000000000000000000000000000000000000000000000000000000000000002",
                    "decodedMethod": {
                        "callParams": [
                            {
                                "name": "lootType",
                                "type": "uint8",
                                "value": "4"
                            },
                            {
                                "name": "index",
                                "type": "uint256",
                                "value": "2"
                            }
                        ],
                        "constructorArguments": "",
                        "name": "getRank",
                        "returnParams": [
                            {
                                "name": "",
                                "type": "uint256",
                                "value": "3"
                            }
                        ],
                        "signature": "getRank(uint8,uint256)"
                    },
                    "errorInfo": "",
                    "fromAddress": "0x8d0cd328dd41c3934a2be66578b63cffeb3e555d",
                    "gasUsed": 886,
                    "id": 21,
                    "methodDecoded": true,
                    "operation": "STATICCALL",
                    "output": "0x0000000000000000000000000000000000000000000000000000000000000003",
                    "revert": false,
                    "revertMessage": "",
                    "selector": "0xf63db297",
                    "status": true,
                    "value": "0"
                },
                "nodeType": 0
            },
            "22": {
                "invocation": {
                    "address": "0x04190ef3d7c91c881d335725b6bb5d45236b22ae",
                    "callData": "0x00000000000000000000000000000000000000000000000000000000000000040000000000000000000000000000000000000000000000000000000000000003",
                    "decodedMethod": {
                        "callParams": [
                            {
                                "name": "lootType",
                                "type": "uint8",
                                "value": "4"
                            },
                            {
                                "name": "index",
                                "type": "uint256",
                                "value": "3"
                            }
                        ],
                        "constructorArguments": "",
                        "name": "getRank",
                        "returnParams": [
                            {
                                "name": "",
                                "type": "uint256",
                                "value": "4"
                            }
                        ],
                        "signature": "getRank(uint8,uint256)"
                    },
                    "errorInfo": "",
                    "fromAddress": "0x8d0cd328dd41c3934a2be66578b63cffeb3e555d",
                    "gasUsed": 886,
                    "id": 22,
                    "methodDecoded": true,
                    "operation": "STATICCALL",
                    "output": "0x0000000000000000000000000000000000000000000000000000000000000004",
                    "revert": false,
                    "revertMessage": "",
                    "selector": "0xf63db297",
                    "status": true,
                    "value": "0"
                },
                "nodeType": 0
            },
            "23": {
                "invocation": {
                    "address": "0x04190ef3d7c91c881d335725b6bb5d45236b22ae",
                    "callData": "0x00000000000000000000000000000000000000000000000000000000000e6d77",
                    "decodedMethod": {
                        "callParams": [
                            {
                                "name": "tokenId",
                                "type": "uint256",
                                "value": "945,527"
                            }
                        ],
                        "constructorArguments": "",
                        "name": "handComponents",
                        "returnParams": [
                            {
                                "name": "",
                                "type": "uint256[6]",
                                "value": [
                                    "0",
                                    "0",
                                    "0",
                                    "0",
                                    "0",
                                    "0"
                                ]
                            }
                        ],
                        "signature": "handComponents(uint256)"
                    },
                    "errorInfo": "",
                    "fromAddress": "0x8d0cd328dd41c3934a2be66578b63cffeb3e555d",
                    "gasUsed": 6227,
                    "id": 23,
                    "methodDecoded": true,
                    "operation": "STATICCALL",
                    "output": "0x000000000000000000000000000000000000000000000000000000000000000000000000000000000000000000000000000000000000000000000000000000000000000000000000000000000000000000000000000000000000000000000000000000000000000000000000000000000000000000000000000000000000000000000000000000000000000000000000000000000000000000000000000000000000000000000000000000000000000000000000000000000000000000000000",
                    "revert": false,
                    "revertMessage": "",
                    "selector": "0x196f659e",
                    "status": true,
                    "value": "0"
                },
                "nodeType": 0
            },
            "24": {
                "invocation": {
                    "address": "0x04190ef3d7c91c881d335725b6bb5d45236b22ae",
                    "callData": "0x00000000000000000000000000000000000000000000000000000000000000050000000000000000000000000000000000000000000000000000000000000002",
                    "decodedMethod": {
                        "callParams": [
                            {
                                "name": "lootType",
                                "type": "uint8",
                                "value": "5"
                            },
                            {
                                "name": "index",
                                "type": "uint256",
                                "value": "2"
                            }
                        ],
                        "constructorArguments": "",
                        "name": "getClass",
                        "returnParams": [
                            {
                                "name": "",
                                "type": "uint8",
                                "value": "0"
                            }
                        ],
                        "signature": "getClass(uint8,uint256)"
                    },
                    "errorInfo": "",
                    "fromAddress": "0x8d0cd328dd41c3934a2be66578b63cffeb3e555d",
                    "gasUsed": 1129,
                    "id": 24,
                    "methodDecoded": true,
                    "operation": "STATICCALL",
                    "output": "0x0000000000000000000000000000000000000000000000000000000000000000",
                    "revert": false,
                    "revertMessage": "",
                    "selector": "0x5c7e6b0e",
                    "status": true,
                    "value": "0"
                },
                "nodeType": 0
            },
            "25": {
                "invocation": {
                    "address": "0x04190ef3d7c91c881d335725b6bb5d45236b22ae",
                    "callData": "0x00000000000000000000000000000000000000000000000000000000000000050000000000000000000000000000000000000000000000000000000000000000",
                    "decodedMethod": {
                        "callParams": [
                            {
                                "name": "lootType",
                                "type": "uint8",
                                "value": "5"
                            },
                            {
                                "name": "index",
                                "type": "uint256",
                                "value": "0"
                            }
                        ],
                        "constructorArguments": "",
                        "name": "getClass",
                        "returnParams": [
                            {
                                "name": "",
                                "type": "uint8",
                                "value": "0"
                            }
                        ],
                        "signature": "getClass(uint8,uint256)"
                    },
                    "errorInfo": "",
                    "fromAddress": "0x8d0cd328dd41c3934a2be66578b63cffeb3e555d",
                    "gasUsed": 1129,
                    "id": 25,
                    "methodDecoded": true,
                    "operation": "STATICCALL",
                    "output": "0x0000000000000000000000000000000000000000000000000000000000000000",
                    "revert": false,
                    "revertMessage": "",
                    "selector": "0x5c7e6b0e",
                    "status": true,
                    "value": "0"
                },
                "nodeType": 0
            },
            "26": {
                "invocation": {
                    "address": "0x04190ef3d7c91c881d335725b6bb5d45236b22ae",
                    "callData": "0x00000000000000000000000000000000000000000000000000000000000000050000000000000000000000000000000000000000000000000000000000000002",
                    "decodedMethod": {
                        "callParams": [
                            {
                                "name": "lootType",
                                "type": "uint8",
                                "value": "5"
                            },
                            {
                                "name": "index",
                                "type": "uint256",
                                "value": "2"
                            }
                        ],
                        "constructorArguments": "",
                        "name": "getRank",
                        "returnParams": [
                            {
                                "name": "",
                                "type": "uint256",
                                "value": "3"
                            }
                        ],
                        "signature": "getRank(uint8,uint256)"
                    },
                    "errorInfo": "",
                    "fromAddress": "0x8d0cd328dd41c3934a2be66578b63cffeb3e555d",
                    "gasUsed": 923,
                    "id": 26,
                    "methodDecoded": true,
                    "operation": "STATICCALL",
                    "output": "0x0000000000000000000000000000000000000000000000000000000000000003",
                    "revert": false,
                    "revertMessage": "",
                    "selector": "0xf63db297",
                    "status": true,
                    "value": "0"
                },
                "nodeType": 0
            },
            "27": {
                "invocation": {
                    "address": "0x04190ef3d7c91c881d335725b6bb5d45236b22ae",
                    "callData": "0x00000000000000000000000000000000000000000000000000000000000000050000000000000000000000000000000000000000000000000000000000000000",
                    "decodedMethod": {
                        "callParams": [
                            {
                                "name": "lootType",
                                "type": "uint8",
                                "value": "5"
                            },
                            {
                                "name": "index",
                                "type": "uint256",
                                "value": "0"
                            }
                        ],
                        "constructorArguments": "",
                        "name": "getRank",
                        "returnParams": [
                            {
                                "name": "",
                                "type": "uint256",
                                "value": "1"
                            }
                        ],
                        "signature": "getRank(uint8,uint256)"
                    },
                    "errorInfo": "",
                    "fromAddress": "0x8d0cd328dd41c3934a2be66578b63cffeb3e555d",
                    "gasUsed": 923,
                    "id": 27,
                    "methodDecoded": true,
                    "operation": "STATICCALL",
                    "output": "0x0000000000000000000000000000000000000000000000000000000000000001",
                    "revert": false,
                    "revertMessage": "",
                    "selector": "0xf63db297",
                    "status": true,
                    "value": "0"
                },
                "nodeType": 0
            },
            "28": {
                "event": {
                    "contract": "0x8d0cd328dd41c3934a2be66578b63cffeb3e555d",
                    "decodedLog": {
                        "name": "Raid",
                        "params": [
                            {
                                "name": "dungeonId",
                                "type": "uint256",
                                "value": "2"
                            },
                            {
                                "name": "raidTokenId",
                                "type": "uint256",
                                "value": "945,527"
                            },
                            {
                                "name": "damage",
                                "type": "uint256[8]",
                                "value": [
                                    "1",
                                    "0",
                                    "0",
                                    "2",
                                    "0",
                                    "1",
                                    "0",
                                    "0"
                                ]
                            }
                        ],
                        "signature": "Raid(uint256,uint256,uint256[8])"
                    },
                    "id": 28,
                    "logData": "0x00000000000000000000000000000000000000000000000000000000000e6d7700000000000000000000000000000000000000000000000000000000000000010000000000000000000000000000000000000000000000000000000000000000000000000000000000000000000000000000000000000000000000000000000000000000000000000000000000000000000000000000000000000000000000020000000000000000000000000000000000000000000000000000000000000000000000000000000000000000000000000000000000000000000000000000000100000000000000000000000000000000000000000000000000000000000000000000000000000000000000000000000000000000000000000000000000000000",
                    "logDecoded": true,
                    "operation": "EVENT",
                    "revert": false,
                    "status": true,
                    "topics": [
                        "0x3f015a4f0c7cd9549187c19ff1cb102555de6af20e28262616a6a8bef1dd3204",
                        "0x0000000000000000000000000000000000000000000000000000000000000002"
                    ]
                },
                "nodeType": 1
            },
            "3": {
                "invocation": {
                    "address": "0x04190ef3d7c91c881d335725b6bb5d45236b22ae",
                    "callData": "0x0000000000000000000000000000000000000000000000000000000000000000000000000000000000000000000000000000000000000000000000000000000d",
                    "decodedMethod": {
                        "callParams": [
                            {
                                "name": "lootType",
                                "type": "uint8",
                                "value": "0"
                            },
                            {
                                "name": "index",
                                "type": "uint256",
                                "value": "13"
                            }
                        ],
                        "constructorArguments": "",
                        "name": "getClass",
                        "returnParams": [
                            {
                                "name": "",
                                "type": "uint8",
                                "value": "2"
                            }
                        ],
                        "signature": "getClass(uint8,uint256)"
                    },
                    "errorInfo": "",
                    "fromAddress": "0x8d0cd328dd41c3934a2be66578b63cffeb3e555d",
                    "gasUsed": 1101,
                    "id": 3,
                    "methodDecoded": true,
                    "operation": "STATICCALL",
                    "output": "0x0000000000000000000000000000000000000000000000000000000000000002",
                    "revert": false,
                    "revertMessage": "",
                    "selector": "0x5c7e6b0e",
                    "status": true,
                    "value": "0"
                },
                "nodeType": 0
            },
            "4": {
                "invocation": {
                    "address": "0x04190ef3d7c91c881d335725b6bb5d45236b22ae",
                    "callData": "0x0000000000000000000000000000000000000000000000000000000000000000000000000000000000000000000000000000000000000000000000000000000e",
                    "decodedMethod": {
                        "callParams": [
                            {
                                "name": "lootType",
                                "type": "uint8",
                                "value": "0"
                            },
                            {
                                "name": "index",
                                "type": "uint256",
                                "value": "14"
                            }
                        ],
                        "constructorArguments": "",
                        "name": "getClass",
                        "returnParams": [
                            {
                                "name": "",
                                "type": "uint8",
                                "value": "2"
                            }
                        ],
                        "signature": "getClass(uint8,uint256)"
                    },
                    "errorInfo": "",
                    "fromAddress": "0x8d0cd328dd41c3934a2be66578b63cffeb3e555d",
                    "gasUsed": 1139,
                    "id": 4,
                    "methodDecoded": true,
                    "operation": "STATICCALL",
                    "output": "0x0000000000000000000000000000000000000000000000000000000000000002",
                    "revert": false,
                    "revertMessage": "",
                    "selector": "0x5c7e6b0e",
                    "status": true,
                    "value": "0"
                },
                "nodeType": 0
            },
            "5": {
                "invocation": {
                    "address": "0x04190ef3d7c91c881d335725b6bb5d45236b22ae",
                    "callData": "0x0000000000000000000000000000000000000000000000000000000000000000000000000000000000000000000000000000000000000000000000000000000d",
                    "decodedMethod": {
                        "callParams": [
                            {
                                "name": "lootType",
                                "type": "uint8",
                                "value": "0"
                            },
                            {
                                "name": "index",
                                "type": "uint256",
                                "value": "13"
                            }
                        ],
                        "constructorArguments": "",
                        "name": "getRank",
                        "returnParams": [
                            {
                                "name": "",
                                "type": "uint256",
                                "value": "4"
                            }
                        ],
                        "signature": "getRank(uint8,uint256)"
                    },
                    "errorInfo": "",
                    "fromAddress": "0x8d0cd328dd41c3934a2be66578b63cffeb3e555d",
                    "gasUsed": 700,
                    "id": 5,
                    "methodDecoded": true,
                    "operation": "STATICCALL",
                    "output": "0x0000000000000000000000000000000000000000000000000000000000000004",
                    "revert": false,
                    "revertMessage": "",
                    "selector": "0xf63db297",
                    "status": true,
                    "value": "0"
                },
                "nodeType": 0
            },
            "6": {
                "invocation": {
                    "address": "0x04190ef3d7c91c881d335725b6bb5d45236b22ae",
                    "callData": "0x0000000000000000000000000000000000000000000000000000000000000000000000000000000000000000000000000000000000000000000000000000000e",
                    "decodedMethod": {
                        "callParams": [
                            {
                                "name": "lootType",
                                "type": "uint8",
                                "value": "0"
                            },
                            {
                                "name": "index",
                                "type": "uint256",
                                "value": "14"
                            }
                        ],
                        "constructorArguments": "",
                        "name": "getRank",
                        "returnParams": [
                            {
                                "name": "",
                                "type": "uint256",
                                "value": "1"
                            }
                        ],
                        "signature": "getRank(uint8,uint256)"
                    },
                    "errorInfo": "",
                    "fromAddress": "0x8d0cd328dd41c3934a2be66578b63cffeb3e555d",
                    "gasUsed": 701,
                    "id": 6,
                    "methodDecoded": true,
                    "operation": "STATICCALL",
                    "output": "0x0000000000000000000000000000000000000000000000000000000000000001",
                    "revert": false,
                    "revertMessage": "",
                    "selector": "0xf63db297",
                    "status": true,
                    "value": "0"
                },
                "nodeType": 0
            },
            "7": {
                "invocation": {
                    "address": "0x04190ef3d7c91c881d335725b6bb5d45236b22ae",
                    "callData": "0x00000000000000000000000000000000000000000000000000000000000e6d77",
                    "decodedMethod": {
                        "callParams": [
                            {
                                "name": "tokenId",
                                "type": "uint256",
                                "value": "945,527"
                            }
                        ],
                        "constructorArguments": "",
                        "name": "chestComponents",
                        "returnParams": [
                            {
                                "name": "",
                                "type": "uint256[6]",
                                "value": [
                                    "4",
                                    "0",
                                    "0",
                                    "0",
                                    "0",
                                    "4"
                                ]
                            }
                        ],
                        "signature": "chestComponents(uint256)"
                    },
                    "errorInfo": "",
                    "fromAddress": "0x8d0cd328dd41c3934a2be66578b63cffeb3e555d",
                    "gasUsed": 6280,
                    "id": 7,
                    "methodDecoded": true,
                    "operation": "STATICCALL",
                    "output": "0x000000000000000000000000000000000000000000000000000000000000000400000000000000000000000000000000000000000000000000000000000000000000000000000000000000000000000000000000000000000000000000000000000000000000000000000000000000000000000000000000000000000000000000000000000000000000000000000000000000000000000000000000000000000000000000000000000000000000000000000000000000000000000000000004",
                    "revert": false,
                    "revertMessage": "",
                    "selector": "0xfbe0fbd5",
                    "status": true,
                    "value": "0"
                },
                "nodeType": 0
            },
            "8": {
                "invocation": {
                    "address": "0x04190ef3d7c91c881d335725b6bb5d45236b22ae",
                    "callData": "0x00000000000000000000000000000000000000000000000000000000000000010000000000000000000000000000000000000000000000000000000000000000",
                    "decodedMethod": {
                        "callParams": [
                            {
                                "name": "lootType",
                                "type": "uint8",
                                "value": "1"
                            },
                            {
                                "name": "index",
                                "type": "uint256",
                                "value": "0"
                            }
                        ],
                        "constructorArguments": "",
                        "name": "getClass",
                        "returnParams": [
                            {
                                "name": "",
                                "type": "uint8",
                                "value": "2"
                            }
                        ],
                        "signature": "getClass(uint8,uint256)"
                    },
                    "errorInfo": "",
                    "fromAddress": "0x8d0cd328dd41c3934a2be66578b63cffeb3e555d",
                    "gasUsed": 1181,
                    "id": 8,
                    "methodDecoded": true,
                    "operation": "STATICCALL",
                    "output": "0x0000000000000000000000000000000000000000000000000000000000000002",
                    "revert": false,
                    "revertMessage": "",
                    "selector": "0x5c7e6b0e",
                    "status": true,
                    "value": "0"
                },
                "nodeType": 0
            },
            "9": {
                "invocation": {
                    "address": "0x04190ef3d7c91c881d335725b6bb5d45236b22ae",
                    "callData": "0x00000000000000000000000000000000000000000000000000000000000000010000000000000000000000000000000000000000000000000000000000000004",
                    "decodedMethod": {
                        "callParams": [
                            {
                                "name": "lootType",
                                "type": "uint8",
                                "value": "1"
                            },
                            {
                                "name": "index",
                                "type": "uint256",
                                "value": "4"
                            }
                        ],
                        "constructorArguments": "",
                        "name": "getClass",
                        "returnParams": [
                            {
                                "name": "",
                                "type": "uint8",
                                "value": "2"
                            }
                        ],
                        "signature": "getClass(uint8,uint256)"
                    },
                    "errorInfo": "",
                    "fromAddress": "0x8d0cd328dd41c3934a2be66578b63cffeb3e555d",
                    "gasUsed": 1181,
                    "id": 9,
                    "methodDecoded": true,
                    "operation": "STATICCALL",
                    "output": "0x0000000000000000000000000000000000000000000000000000000000000002",
                    "revert": false,
                    "revertMessage": "",
                    "selector": "0x5c7e6b0e",
                    "status": true,
                    "value": "0"
                },
                "nodeType": 0
            }
        },
        "gasFlame": [
            {
                "children": [
                    {
                        "children": [
                            {
                                "children": [],
                                "depth": 0,
                                "name": "Initial Gas",
                                "value": 21368
                            },
                            {
                                "children": [
                                    {
                                        "children": [],
                                        "depth": 1,
                                        "name": "ownerOf",
                                        "value": 2983
                                    },
                                    {
                                        "children": [],
                                        "depth": 1,
                                        "name": "weaponComponents",
                                        "value": 6412
                                    },
                                    {
                                        "children": [],
                                        "depth": 1,
                                        "name": "getClass",
                                        "value": 1101
                                    },
                                    {
                                        "children": [],
                                        "depth": 1,
                                        "name": "getClass",
                                        "value": 1139
                                    },
                                    {
                                        "children": [],
                                        "depth": 1,
                                        "name": "getRank",
                                        "value": 700
                                    },
                                    {
                                        "children": [],
                                        "depth": 1,
                                        "name": "getRank",
                                        "value": 701
                                    },
                                    {
                                        "children": [],
                                        "depth": 1,
                                        "name": "chestComponents",
                                        "value": 6280
                                    },
                                    {
                                        "children": [],
                                        "depth": 1,
                                        "name": "getClass",
                                        "value": 1181
                                    },
                                    {
                                        "children": [],
                                        "depth": 1,
                                        "name": "getClass",
                                        "value": 1181
                                    },
                                    {
                                        "children": [],
                                        "depth": 1,
                                        "name": "getRank",
                                        "value": 709
                                    },
                                    {
                                        "children": [],
                                        "depth": 1,
                                        "name": "getRank",
                                        "value": 709
                                    },
                                    {
                                        "children": [],
                                        "depth": 1,
                                        "name": "headComponents",
                                        "value": 6368
                                    },
                                    {
                                        "children": [],
                                        "depth": 1,
                                        "name": "getClass",
                                        "value": 1018
                                    },
                                    {
                                        "children": [],
                                        "depth": 1,
                                        "name": "getClass",
                                        "value": 1018
                                    },
                                    {
                                        "children": [],
                                        "depth": 1,
                                        "name": "getRank",
                                        "value": 812
                                    },
                                    {
                                        "children": [],
                                        "depth": 1,
                                        "name": "getRank",
                                        "value": 812
                                    },
                                    {
                                        "children": [],
                                        "depth": 1,
                                        "name": "waistComponents",
                                        "value": 6249
                                    },
                                    {
                                        "children": [],
                                        "depth": 1,
                                        "name": "footComponents",
                                        "value": 6270
                                    },
                                    {
                                        "children": [],
                                        "depth": 1,
                                        "name": "getClass",
                                        "value": 1092
                                    },
                                    {
                                        "children": [],
                                        "depth": 1,
                                        "name": "getClass",
                                        "value": 1092
                                    },
                                    {
                                        "children": [],
                                        "depth": 1,
                                        "name": "getRank",
                                        "value": 886
                                    },
                                    {
                                        "children": [],
                                        "depth": 1,
                                        "name": "getRank",
                                        "value": 886
                                    },
                                    {
                                        "children": [],
                                        "depth": 1,
                                        "name": "handComponents",
                                        "value": 6227
                                    },
                                    {
                                        "children": [],
                                        "depth": 1,
                                        "name": "getClass",
                                        "value": 1129
                                    },
                                    {
                                        "children": [],
                                        "depth": 1,
                                        "name": "getClass",
                                        "value": 1129
                                    },
                                    {
                                        "children": [],
                                        "depth": 1,
                                        "name": "getRank",
                                        "value": 923
                                    },
                                    {
                                        "children": [],
                                        "depth": 1,
                                        "name": "getRank",
                                        "value": 923
                                    }
                                ],
                                "depth": 0,
                                "name": "Executed Gas",
                                "value": 165224
                            }
                        ],
                        "depth": -1,
                        "name": "Actual Gas Used",
                        "value": 186592
                    },
                    {
                        "children": [],
                        "depth": -1,
                        "name": "Refunded Gas",
                        "value": 0
                    }
                ],
                "depth": -2,
                "name": "Total Gas",
                "value": 186592
            }
        ],
        "isConfirmed": true,
        "mainTrace": [
            {
                "children": [
                    {
                        "children": [
                            {
                                "children": [],
                                "depth": 1,
                                "id": 1,
                                "order": 1
                            },
                            {
                                "children": [],
                                "depth": 1,
                                "id": 2,
                                "order": 2
                            },
                            {
                                "children": [],
                                "depth": 1,
                                "id": 3,
                                "order": 3
                            },
                            {
                                "children": [],
                                "depth": 1,
                                "id": 4,
                                "order": 4
                            },
                            {
                                "children": [],
                                "depth": 1,
                                "id": 5,
                                "order": 5
                            },
                            {
                                "children": [],
                                "depth": 1,
                                "id": 6,
                                "order": 6
                            },
                            {
                                "children": [],
                                "depth": 1,
                                "id": 7,
                                "order": 7
                            },
                            {
                                "children": [],
                                "depth": 1,
                                "id": 8,
                                "order": 8
                            },
                            {
                                "children": [],
                                "depth": 1,
                                "id": 9,
                                "order": 9
                            },
                            {
                                "children": [],
                                "depth": 1,
                                "id": 10,
                                "order": 10
                            },
                            {
                                "children": [],
                                "depth": 1,
                                "id": 11,
                                "order": 11
                            },
                            {
                                "children": [],
                                "depth": 1,
                                "id": 12,
                                "order": 12
                            },
                            {
                                "children": [],
                                "depth": 1,
                                "id": 13,
                                "order": 13
                            },
                            {
                                "children": [],
                                "depth": 1,
                                "id": 14,
                                "order": 14
                            },
                            {
                                "children": [],
                                "depth": 1,
                                "id": 15,
                                "order": 15
                            },
                            {
                                "children": [],
                                "depth": 1,
                                "id": 16,
                                "order": 16
                            },
                            {
                                "children": [],
                                "depth": 1,
                                "id": 17,
                                "order": 17
                            },
                            {
                                "children": [],
                                "depth": 1,
                                "id": 18,
                                "order": 18
                            },
                            {
                                "children": [],
                                "depth": 1,
                                "id": 19,
                                "order": 19
                            },
                            {
                                "children": [],
                                "depth": 1,
                                "id": 20,
                                "order": 20
                            },
                            {
                                "children": [],
                                "depth": 1,
                                "id": 21,
                                "order": 21
                            },
                            {
                                "children": [],
                                "depth": 1,
                                "id": 22,
                                "order": 22
                            },
                            {
                                "children": [],
                                "depth": 1,
                                "id": 23,
                                "order": 23
                            },
                            {
                                "children": [],
                                "depth": 1,
                                "id": 24,
                                "order": 24
                            },
                            {
                                "children": [],
                                "depth": 1,
                                "id": 25,
                                "order": 25
                            },
                            {
                                "children": [],
                                "depth": 1,
                                "id": 26,
                                "order": 26
                            },
                            {
                                "children": [],
                                "depth": 1,
                                "id": 27,
                                "order": 27
                            },
                            {
                                "children": [],
                                "depth": 1,
                                "id": 28,
                                "order": 28
                            }
                        ],
                        "depth": 0,
                        "id": 0,
                        "order": 0
                    }
                ],
                "depth": -1,
                "id": -1,
                "order": -1
            }
        ],
        "mainTraceNodeCount": 29,
        "parentIdMap": {
            "0": -1,
            "1": 0,
            "10": 0,
            "11": 0,
            "12": 0,
            "13": 0,
            "14": 0,
            "15": 0,
            "16": 0,
            "17": 0,
            "18": 0,
            "19": 0,
            "2": 0,
            "20": 0,
            "21": 0,
            "22": 0,
            "23": 0,
            "24": 0,
            "25": 0,
            "26": 0,
            "27": 0,
            "28": 0,
            "3": 0,
            "4": 0,
            "5": 0,
            "6": 0,
            "7": 0,
            "8": 0,
            "9": 0
        },
        "tidyTrace": [
            {
                "children": [
                    {
                        "children": [
                            {
                                "children": [],
                                "depth": 1,
                                "id": 28,
                                "order": 28
                            }
                        ],
                        "depth": 0,
                        "id": 0,
                        "order": 0
                    }
                ],
                "depth": -1,
                "id": -1,
                "order": -1
            }
        ],
        "tidyTraceNodeCount": 2
    },
    "state_change": {
        "stateChanges": [
            {
                "address": "0x8d0cd328dd41c3934a2be66578b63cffeb3e555d",
                "erc": "",
                "slots": [
                    {
                        "current": "0x00000000000000000000000000000000000000000001240000392a0a21334510",
                        "key": "0xb10e2d527612073b26eecdfd717e6a320cf44b4afac2b0732d9fcbe2b7fa0cf8",
                        "prev": "0x000000000000000000000000000000000000000000012300003a2a0c21334610"
                    },
                    {
                        "current": "0x0000000000000000000000000000000000000000000000000000000101230201",
                        "key": "0xc8a3c47c902cf537af59a8c0638a2a883fbdfdb66d19fce776cc6341b36bd678",
                        "prev": "0x0000000000000000000000000000000000000000000000000000000000000000"
                    }
                ],
                "storageVariables": [
                    {
                        "name": "_dungeons",
                        "type": "uint256[]",
                        "value": {
                            "elemType": "uint256",
                            "elems": [
                                {
                                    "index": 2,
                                    "value": {
                                        "current": "1378931029088233069954320",
                                        "prev": "1374208662886846991386128",
                                        "typeTag": 1
                                    }
                                }
                            ],
                            "typeTag": 2
                        }
                    },
                    {
                        "name": "_raids",
                        "type": "mapping(uint256 => uint256)",
                        "value": {
                            "pairs": [
                                {
                                    "key": "945527",
                                    "value": {
                                        "current": "4314038785",
                                        "prev": "0",
                                        "typeTag": 1
                                    }
                                }
                            ],
                            "typeTag": 4
                        }
                    }
                ]
            }
        ]
    }
}