{
    "balance_change": {
        "balanceChanges": []
    },
    "profile": {
        "basic_info": {
            "baseFee": "",
            "blockNumber": 4131145,
            "callData": "0x47872b42f9b8711422702c4f3e34bc710fc1e8f92fe3200b9bc6b7498c12354de62995f9000000000000000000000000000000000000000000000000002386f26fc100004b62ecb07c8c1748e39c205b596ed7fbd1970cc047dc08c94f27023b9deef1a5",
            "debugEnable": true,
            "errorInfo": "",
            "eventCount": 1,
            "feeRecipient": "0x52bc44d5378309ee2abf1539bf71de1b7d7be3b5",
            "formatValue": "0",
            "gasLimit": 1000000,
            "gasPrice": "2",
            "gasUsed": 81116,
            "intTxnCount": 4,
            "internalRevert": false,
            "internalRevertMessage": "",
            "isContractCreation": false,
            "isFlashloan": false,
            "maxFee": "",
            "nonce": 15876,
            "overwritedBlockNumber": -1,
            "priorityFee": "",
            "receiver": "0x6090a6e47849629b7245dfa1ca21d94cd15878ef",
            "revertMessage": "",
            "sender": "0x00ab424d2019bc0f4c648232c6e7d181a34034b8",
            "simulationEnable": true,
            "sourceTxnHash": "0x04a79111c4435612704cb40a58030b0e14e50fab6eafdcac8344f28ed74909f9",
            "status": true,
            "timestamp": "2017-08-08T06:54:47Z",
            "transactionFee": "0.000162232",
            "txnHash": "0x04a79111c4435612704cb40a58030b0e14e50fab6eafdcac8344f28ed74909f9",
            "txnIndex": 107,
            "type": 0,
            "value": "0"
        },
        "fund_flow": [],
        "token_infos": [
            {
                "address": "0xc02aaa39b223fe8d0a0e5c4f27ead9083c756cc2",
                "decimals": 18
            },
            {
                "address": "0xeeeeeeeeeeeeeeeeeeeeeeeeeeeeeeeeeeeeeeee",
                "decimals": 18
            }
        ]
    },
    "address_label": {
        "labels": [
            {
                "address": "0x0000000000000000000000000000000000000004",
                "label": "Precompiled"
            },
            {
                "address": "0xeeeeeeeeeeeeeeeeeeeeeeeeeeeeeeeeeeeeeeee",
                "label": "Ether"
            },
            {
                "address": "0x6090a6e47849629b7245dfa1ca21d94cd15878ef",
                "label": "ENS: Old Registrar"
            },
            {
                "address": "0x48924de3974f37fd3c66d611f83fe3f59f5534ce",
                "label": "Deed"
            },
            {
                "address": "0x0000000000000000000000000000000000000001",
                "label": "Precompiled"
            },
            {
                "address": "0x0000000000000000000000000000000000000002",
                "label": "Precompiled"
            },
            {
                "address": "0x0000000000000000000000000000000000000003",
                "label": "Precompiled"
            }
        ]
    },
    "trace": {
        "accountLabels": null,
        "dataMap": {
            "-1": {
                "invocation": {
                    "address": "0x00ab424d2019bc0f4c648232c6e7d181a34034b8",
                    "callData": "",
                    "decodedMethod": null,
                    "errorInfo": "",
                    "fromAddress": "",
                    "gasUsed": 0,
                    "id": -1,
                    "methodDecoded": false,
                    "operation": "",
                    "output": "",
                    "revert": false,
                    "revertMessage": "",
                    "selector": "",
                    "status": false,
                    "value": ""
                },
                "nodeType": 0
            },
            "0": {
                "invocation": {
                    "address": "0x6090a6e47849629b7245dfa1ca21d94cd15878ef",
                    "callData": "0xf9b8711422702c4f3e34bc710fc1e8f92fe3200b9bc6b7498c12354de62995f9000000000000000000000000000000000000000000000000002386f26fc100004b62ecb07c8c1748e39c205b596ed7fbd1970cc047dc08c94f27023b9deef1a5",
                    "decodedMethod": {
                        "callParams": [
                            {
                                "name": "_hash",
                                "type": "bytes32",
                                "value": "0xf9b8711422702c4f3e34bc710fc1e8f92fe3200b9bc6b7498c12354de62995f9"
                            },
                            {
                                "name": "_value",
                                "type": "uint256",
                                "value": "10,000,000,000,000,000"
                            },
                            {
                                "name": "_salt",
                                "type": "bytes32",
                                "value": "0x4b62ecb07c8c1748e39c205b596ed7fbd1970cc047dc08c94f27023b9deef1a5"
                            }
                        ],
                        "constructorArguments": "",
                        "name": "unsealBid",
                        "returnParams": [],
                        "signature": "unsealBid(bytes32,uint256,bytes32)"
                    },
                    "errorInfo": "",
                    "fromAddress": "0x00ab424d2019bc0f4c648232c6e7d181a34034b8",
                    "gasUsed": 81116,
                    "id": 0,
                    "methodDecoded": true,
                    "operation": "CALL",
                    "output": "",
                    "revert": false,
                    "revertMessage": "",
                    "selector": "0x47872b42",
                    "status": true,
                    "value": "0"
                },
                "nodeType": 0
            },
            "1": {
                "invocation": {
                    "address": "0x48924de3974f37fd3c66d611f83fe3f59f5534ce",
                    "callData": "0x",
                    "decodedMethod": {
                        "callParams": [],
                        "constructorArguments": "",
                        "name": "value",
                        "returnParams": [
                            {
                                "name": "",
                                "type": "uint256",
                                "value": "10,000,000,000,000,000"
                            }
                        ],
                        "signature": "value()"
                    },
                    "errorInfo": "",
                    "fromAddress": "0x6090a6e47849629b7245dfa1ca21d94cd15878ef",
                    "gasUsed": 524,
                    "id": 1,
                    "methodDecoded": true,
                    "operation": "CALL",
                    "output": "0x000000000000000000000000000000000000000000000000002386f26fc10000",
                    "revert": false,
                    "revertMessage": "",
                    "selector": "0x3fa4f245",
                    "status": true,
                    "value": "0"
                },
                "nodeType": 0
            },
            "2": {
                "invocation": {
                    "address": "0x48924de3974f37fd3c66d611f83fe3f59f5534ce",
                    "callData": "0x000000000000000000000000000000000000000000000000002386f26fc100000000000000000000000000000000000000000000000000000000000000000001",
                    "decodedMethod": {
                        "callParams": [
                            {
                                "name": "newValue",
                                "type": "uint256",
                                "value": "10,000,000,000,000,000"
                            },
                            {
                                "name": "throwOnFailure",
                                "type": "bool",
                                "value": true
                            }
                        ],
                        "constructorArguments": "",
                        "name": "setBalance",
                        "returnParams": [],
                        "signature": "setBalance(uint256,bool)"
                    },
                    "errorInfo": "",
                    "fromAddress": "0x6090a6e47849629b7245dfa1ca21d94cd15878ef",
                    "gasUsed": 7633,
                    "id": 2,
                    "methodDecoded": true,
                    "operation": "CALL",
                    "output": "",
                    "revert": false,
                    "revertMessage": "",
                    "selector": "0xb0c80972",
                    "status": true,
                    "value": "0"
                },
                "nodeType": 0
            },
            "3": {
                "invocation": {
                    "address": "0x00ab424d2019bc0f4c648232c6e7d181a34034b8",
                    "callData": "0x",
                    "decodedMethod": null,
                    "errorInfo": "",
                    "fromAddress": "0x48924de3974f37fd3c66d611f83fe3f59f5534ce",
                    "gasUsed": 0,
                    "id": 3,
                    "methodDecoded": false,
                    "operation": "CALL",
                    "output": "",
                    "revert": false,
                    "revertMessage": "",
                    "selector": "fallback",
                    "status": true,
                    "value": "0"
                },
                "nodeType": 0
            },
            "4": {
                "invocation": {
                    "address": "0x48924de3974f37fd3c66d611f83fe3f59f5534ce",
                    "callData": "0x",
                    "decodedMethod": {
                        "callParams": [],
                        "constructorArguments": "",
                        "name": "creationDate",
                        "returnParams": [
                            {
                                "name": "",
                                "type": "uint256",
                                "value": "1,501,791,014"
                            }
                        ],
                        "signature": "creationDate()"
                    },
                    "errorInfo": "",
                    "fromAddress": "0x6090a6e47849629b7245dfa1ca21d94cd15878ef",
                    "gasUsed": 436,
                    "id": 4,
                    "methodDecoded": true,
                    "operation": "CALL",
                    "output": "0x0000000000000000000000000000000000000000000000000000000059838326",
                    "revert": false,
                    "revertMessage": "",
                    "selector": "0x05b34410",
                    "status": true,
                    "value": "0"
                },
                "nodeType": 0
            },
            "5": {
                "event": {
                    "contract": "0x6090a6e47849629b7245dfa1ca21d94cd15878ef",
                    "decodedLog": {
                        "name": "BidRevealed",
                        "params": [
                            {
                                "name": "hash",
                                "type": "bytes32",
                                "value": "0xf9b8711422702c4f3e34bc710fc1e8f92fe3200b9bc6b7498c12354de62995f9"
                            },
                            {
                                "name": "owner",
                                "type": "address",
                                "value": "0x00ab424d2019bc0f4c648232c6e7d181a34034b8"
                            },
                            {
                                "name": "value",
                                "type": "uint256",
                                "value": "10,000,000,000,000,000"
                            },
                            {
                                "name": "status",
                                "type": "uint8",
                                "value": "2"
                            }
                        ],
                        "signature": "BidRevealed(bytes32,address,uint256,uint8)"
                    },
                    "id": 5,
                    "logData": "0x000000000000000000000000000000000000000000000000002386f26fc100000000000000000000000000000000000000000000000000000000000000000002",
                    "logDecoded": true,
                    "operation": "EVENT",
                    "revert": false,
                    "status": true,
                    "topics": [
                        "0x7b6c4b278d165a6b33958f8ea5dfb00c8c9d4d0acf1985bef5d10786898bc3e7",
                        "0xf9b8711422702c4f3e34bc710fc1e8f92fe3200b9bc6b7498c12354de62995f9",
                        "0x00000000000000000000000000ab424d2019bc0f4c648232c6e7d181a34034b8"
                    ]
                },
                "nodeType": 1
            }
        },
        "gasFlame": [
            {
                "children": [
                    {
                        "children": [
                            {
                                "children": [],
                                "depth": 0,
                                "name": "Initial Gas",
                                "value": 26072
                            },
                            {
                                "children": [
                                    {
                                        "children": [],
                                        "depth": 1,
                                        "name": "value",
                                        "value": 524
                                    },
                                    {
                                        "children": [
                                            {
                                                "children": [],
                                                "depth": 2,
                                                "name": "fallback",
                                                "value": 0
                                            }
                                        ],
                                        "depth": 1,
                                        "name": "setBalance",
                                        "value": 7633
                                    },
                                    {
                                        "children": [],
                                        "depth": 1,
                                        "name": "creationDate",
                                        "value": 436
                                    }
                                ],
                                "depth": 0,
                                "name": "Executed Gas",
                                "value": 70044
                            }
                        ],
                        "depth": -1,
                        "name": "Actual Gas Used",
                        "value": 81116
                    },
                    {
                        "children": [],
                        "depth": -1,
                        "name": "Refunded Gas",
                        "value": 15000
                    }
                ],
                "depth": -2,
                "name": "Total Gas",
                "value": 96116
            }
        ],
        "isConfirmed": true,
        "mainTrace": [
            {
                "children": [
                    {
                        "children": [
                            {
                                "children": [],
                                "depth": 1,
                                "id": 1,
                                "order": 1
                            },
                            {
                                "children": [
                                    {
                                        "children": [],
                                        "depth": 2,
                                        "id": 3,
                                        "order": 3
                                    }
                                ],
                                "depth": 1,
                                "id": 2,
                                "order": 2
                            },
                            {
                                "children": [],
                                "depth": 1,
                                "id": 4,
                                "order": 4
                            },
                            {
                                "children": [],
                                "depth": 1,
                                "id": 5,
                                "order": 5
                            }
                        ],
                        "depth": 0,
                        "id": 0,
                        "order": 0
                    }
                ],
                "depth": -1,
                "id": -1,
                "order": -1
            }
        ],
        "mainTraceNodeCount": 6,
        "parentIdMap": {
            "0": -1,
            "1": 0,
            "2": 0,
            "3": 2,
            "4": 0,
            "5": 0
        },
        "tidyTrace": [
            {
                "children": [
                    {
                        "children": [
                            {
                                "children": [],
                                "depth": 1,
                                "id": 1,
                                "order": 1
                            },
                            {
                                "children": [
                                    {
                                        "children": [],
                                        "depth": 2,
                                        "id": 3,
                                        "order": 3
                                    }
                                ],
                                "depth": 1,
                                "id": 2,
                                "order": 2
                            },
                            {
                                "children": [],
                                "depth": 1,
                                "id": 4,
                                "order": 4
                            },
                            {
                                "children": [],
                                "depth": 1,
                                "id": 5,
                                "order": 5
                            }
                        ],
                        "depth": 0,
                        "id": 0,
                        "order": 0
                    }
                ],
                "depth": -1,
                "id": -1,
                "order": -1
            }
        ],
        "tidyTraceNodeCount": 6
    },
    "state_change": {
        "stateChanges": [
            {
                "address": "0x6090a6e47849629b7245dfa1ca21d94cd15878ef",
                "erc": "",
                "slots": [
                    {
                        "current": "0x0000000000000000000000000000000000000000000000000000000000000000",
                        "key": "0x513903ce28e48b22a75ce28a8ee34169482fb53d64ec523e99adefa6a1ed0408",
                        "prev": "0x00000000000000000000000048924de3974f37fd3c66d611f83fe3f59f5534ce"
                    },
                    {
                        "current": "0x000000000000000000000000000000000000000000000000002386f26fc10000",
                        "key": "0x2830e9a4025c805d604c527d28069fb4ca7f109ed6ded4a5eaf748e8665f3129",
                        "prev": "0x0000000000000000000000000000000000000000000000000000000000000000"
                    },
                    {
                        "current": "0x00000000000000000000000048924de3974f37fd3c66d611f83fe3f59f5534ce",
                        "key": "0x2830e9a4025c805d604c527d28069fb4ca7f109ed6ded4a5eaf748e8665f3126",
                        "prev": "0x0000000000000000000000000000000000000000000000000000000000000000"
                    }
                ],
                "storageVariables": []
            }
        ]
    }
}