{
    "balance_change": {
        "balanceChanges": [
            {
                "account": "0x00acd53ca07fac06ef6cb4aec2a066e870f3777b",
                "assets": [
                    {
                        "address": "0xeeeeeeeeeeeeeeeeeeeeeeeeeeeeeeeeeeeeeeee",
                        "amount": "169.020516201499789517",
                        "iconUrl": "https://assets.blocksec.com/image/1663669189317-3.png",
                        "isERC1155": false,
                        "isERC721": false,
                        "sign": true,
                        "value": ""
                    },
                    {
                        "address": "0xd76b5c2a23ef78368d8e34288b5b65d616b746ae",
                        "amount": "169.020516201499789517",
                        "iconUrl": "",
                        "isERC1155": false,
                        "isERC721": false,
                        "sign": false,
                        "value": ""
                    }
                ]
            },
            {
                "account": "0xd76b5c2a23ef78368d8e34288b5b65d616b746ae",
                "assets": [
                    {
                        "address": "0xeeeeeeeeeeeeeeeeeeeeeeeeeeeeeeeeeeeeeeee",
                        "amount": "169.020516201499789517",
                        "iconUrl": "https://assets.blocksec.com/image/1663669189317-3.png",
                        "isERC1155": false,
                        "isERC721": false,
                        "sign": false,
                        "value": ""
                    },
                    {
                        "address": "0xd76b5c2a23ef78368d8e34288b5b65d616b746ae",
                        "amount": "169.020516201499789517",
                        "iconUrl": "",
                        "isERC1155": false,
                        "isERC721": false,
                        "sign": true,
                        "value": ""
                    }
                ]
            }
        ]
    },
    "profile": {
        "basic_info": {
            "baseFee": "",
            "blockNumber": 3925499,
            "callData": "0x2e1a7d4d00000000000000000000000000000000000000000000000929a17ff9e78d08cd",
            "debugEnable": true,
            "errorInfo": "",
            "eventCount": 2,
            "feeRecipient": "0x829bd824b016326a401d083b33d092293333a830",
            "formatValue": "0",
            "gasLimit": 3000000,
            "gasPrice": "46.540000007",
            "gasUsed": 28671,
            "intTxnCount": 1,
            "internalRevert": false,
            "internalRevertMessage": "",
            "isContractCreation": false,
            "isFlashloan": false,
            "maxFee": "",
            "nonce": 31,
            "overwritedBlockNumber": -1,
            "priorityFee": "",
            "receiver": "0xd76b5c2a23ef78368d8e34288b5b65d616b746ae",
            "revertMessage": "",
            "sender": "0x00acd53ca07fac06ef6cb4aec2a066e870f3777b",
            "simulationEnable": true,
            "sourceTxnHash": "0x04c241061f7d5b04988a109bcbeedaba577b369fea26eb239457af6d8913cdab",
            "status": true,
            "timestamp": "2017-06-25T01:10:19Z",
            "transactionFee": "0.001334348340200697",
            "txnHash": "0x04c241061f7d5b04988a109bcbeedaba577b369fea26eb239457af6d8913cdab",
            "txnIndex": 15,
            "type": 0,
            "value": "0"
        },
        "fund_flow": [
            {
                "amount": "169.020516201499789517",
                "from": "0xd76b5c2a23ef78368d8e34288b5b65d616b746ae",
                "id": 1,
                "isERC1155": false,
                "isERC721": false,
                "isReverted": false,
                "order": 1,
                "to": "0x00acd53ca07fac06ef6cb4aec2a066e870f3777b",
                "token": "0xeeeeeeeeeeeeeeeeeeeeeeeeeeeeeeeeeeeeeeee"
            },
            {
                "amount": "169.020516201499789517",
                "from": "0x00acd53ca07fac06ef6cb4aec2a066e870f3777b",
                "id": 2,
                "isERC1155": false,
                "isERC721": false,
                "isReverted": false,
                "order": 2,
                "to": "0xd76b5c2a23ef78368d8e34288b5b65d616b746ae",
                "token": "0xd76b5c2a23ef78368d8e34288b5b65d616b746ae"
            }
        ],
        "token_infos": [
            {
                "address": "0xc02aaa39b223fe8d0a0e5c4f27ead9083c756cc2",
                "decimals": 18
            },
            {
                "address": "0xd76b5c2a23ef78368d8e34288b5b65d616b746ae",
                "decimals": 18
            },
            {
                "address": "0xeeeeeeeeeeeeeeeeeeeeeeeeeeeeeeeeeeeeeeee",
                "decimals": 18
            }
        ]
    },
    "address_label": {
        "labels": [
            {
                "address": "0xeeeeeeeeeeeeeeeeeeeeeeeeeeeeeeeeeeeeeeee",
                "label": "Ether"
            },
            {
                "address": "0xd76b5c2a23ef78368d8e34288b5b65d616b746ae",
                "label": "Bancor: Old ETH Token"
            },
            {
                "address": "0x0000000000000000000000000000000000000001",
                "label": "Precompiled"
            },
            {
                "address": "0x0000000000000000000000000000000000000002",
                "label": "Precompiled"
            },
            {
                "address": "0x0000000000000000000000000000000000000003",
                "label": "Precompiled"
            },
            {
                "address": "0x0000000000000000000000000000000000000004",
                "label": "Precompiled"
            }
        ]
    },
    "trace": {
        "accountLabels": null,
        "dataMap": {
            "-1": {
                "invocation": {
                    "address": "0x00acd53ca07fac06ef6cb4aec2a066e870f3777b",
                    "callData": "",
                    "decodedMethod": null,
                    "errorInfo": "",
                    "fromAddress": "",
                    "gasUsed": 0,
                    "id": -1,
                    "methodDecoded": false,
                    "operation": "",
                    "output": "",
                    "revert": false,
                    "revertMessage": "",
                    "selector": "",
                    "status": false,
                    "value": ""
                },
                "nodeType": 0
            },
            "0": {
                "invocation": {
                    "address": "0xd76b5c2a23ef78368d8e34288b5b65d616b746ae",
                    "callData": "0x00000000000000000000000000000000000000000000000929a17ff9e78d08cd",
                    "decodedMethod": {
                        "callParams": [
                            {
                                "name": "_amount",
                                "type": "uint256",
                                "value": "169,020,516,201,499,789,517"
                            }
                        ],
                        "constructorArguments": "",
                        "name": "withdraw",
                        "returnParams": [],
                        "signature": "withdraw(uint256)"
                    },
                    "errorInfo": "",
                    "fromAddress": "0x00acd53ca07fac06ef6cb4aec2a066e870f3777b",
                    "gasUsed": 28671,
                    "id": 0,
                    "methodDecoded": true,
                    "operation": "CALL",
                    "output": "",
                    "revert": false,
                    "revertMessage": "",
                    "selector": "0x2e1a7d4d",
                    "status": true,
                    "value": "0"
                },
                "nodeType": 0
            },
            "1": {
                "invocation": {
                    "address": "0x00acd53ca07fac06ef6cb4aec2a066e870f3777b",
                    "callData": "0x",
                    "decodedMethod": null,
                    "errorInfo": "",
                    "fromAddress": "0xd76b5c2a23ef78368d8e34288b5b65d616b746ae",
                    "gasUsed": 0,
                    "id": 1,
                    "methodDecoded": false,
                    "operation": "CALL",
                    "output": "",
                    "revert": false,
                    "revertMessage": "",
                    "selector": "fallback",
                    "status": true,
                    "value": "169.020516201499789517"
                },
                "nodeType": 0
            },
            "2": {
                "event": {
                    "contract": "0xd76b5c2a23ef78368d8e34288b5b65d616b746ae",
                    "decodedLog": {
                        "name": "Transfer",
                        "params": [
                            {
                                "name": "_from",
                                "type": "address",
                                "value": "0x00acd53ca07fac06ef6cb4aec2a066e870f3777b"
                            },
                            {
                                "name": "_to",
                                "type": "address",
                                "value": "0xd76b5c2a23ef78368d8e34288b5b65d616b746ae"
                            },
                            {
                                "decimalAvailable": true,
                                "name": "_value",
                                "type": "uint256",
                                "value": "169,020,516,201,499,789,517"
                            }
                        ],
                        "signature": "Transfer(address,address,uint256)"
                    },
                    "id": 2,
                    "logData": "0x00000000000000000000000000000000000000000000000929a17ff9e78d08cd",
                    "logDecoded": true,
                    "operation": "EVENT",
                    "revert": false,
                    "status": true,
                    "topics": [
                        "0xddf252ad1be2c89b69c2b068fc378daa952ba7f163c4a11628f55a4df523b3ef",
                        "0x00000000000000000000000000acd53ca07fac06ef6cb4aec2a066e870f3777b",
                        "0x000000000000000000000000d76b5c2a23ef78368d8e34288b5b65d616b746ae"
                    ]
                },
                "nodeType": 1
            },
            "3": {
                "event": {
                    "contract": "0xd76b5c2a23ef78368d8e34288b5b65d616b746ae",
                    "decodedLog": {
                        "name": "Destruction",
                        "params": [
                            {
                                "name": "_amount",
                                "type": "uint256",
                                "value": "169,020,516,201,499,789,517"
                            }
                        ],
                        "signature": "Destruction(uint256)"
                    },
                    "id": 3,
                    "logData": "0x00000000000000000000000000000000000000000000000929a17ff9e78d08cd",
                    "logDecoded": true,
                    "operation": "EVENT",
                    "revert": false,
                    "status": true,
                    "topics": [
                        "0x9a1b418bc061a5d80270261562e6986a35d995f8051145f277be16103abd3453"
                    ]
                },
                "nodeType": 1
            }
        },
        "gasFlame": [
            {
                "children": [
                    {
                        "children": [
                            {
                                "children": [],
                                "depth": 0,
                                "name": "Initial Gas",
                                "value": 21976
                            },
                            {
                                "children": [
                                    {
                                        "children": [],
                                        "depth": 1,
                                        "name": "fallback",
                                        "value": 0
                                    }
                                ],
                                "depth": 0,
                                "name": "Executed Gas",
                                "value": 21695
                            }
                        ],
                        "depth": -1,
                        "name": "Actual Gas Used",
                        "value": 28671
                    },
                    {
                        "children": [],
                        "depth": -1,
                        "name": "Refunded Gas",
                        "value": 15000
                    }
                ],
                "depth": -2,
                "name": "Total Gas",
                "value": 43671
            }
        ],
        "isConfirmed": true,
        "mainTrace": [
            {
                "children": [
                    {
                        "children": [
                            {
                                "children": [],
                                "depth": 1,
                                "id": 1,
                                "order": 1
                            },
                            {
                                "children": [],
                                "depth": 1,
                                "id": 2,
                                "order": 2
                            },
                            {
                                "children": [],
                                "depth": 1,
                                "id": 3,
                                "order": 3
                            }
                        ],
                        "depth": 0,
                        "id": 0,
                        "order": 0
                    }
                ],
                "depth": -1,
                "id": -1,
                "order": -1
            }
        ],
        "mainTraceNodeCount": 4,
        "parentIdMap": {
            "0": -1,
            "1": 0,
            "2": 0,
            "3": 0
        },
        "tidyTrace": [
            {
                "children": [
                    {
                        "children": [
                            {
                                "children": [],
                                "depth": 1,
                                "id": 1,
                                "order": 1
                            },
                            {
                                "children": [],
                                "depth": 1,
                                "id": 2,
                                "order": 2
                            },
                            {
                                "children": [],
                                "depth": 1,
                                "id": 3,
                                "order": 3
                            }
                        ],
                        "depth": 0,
                        "id": 0,
                        "order": 0
                    }
                ],
                "depth": -1,
                "id": -1,
                "order": -1
            }
        ],
        "tidyTraceNodeCount": 4
    },
    "state_change": {
        "stateChanges": [
            {
                "address": "0xd76b5c2a23ef78368d8e34288b5b65d616b746ae",
                "erc": "ERC-20",
                "slots": [
                    {
                        "current": "0x0000000000000000000000000000000000000000000000000000000000000000",
                        "key": "0x80effec9f7accfb060c3d9639fa039c21ce0ffc9a8213166062ed7b06ea1c66a",
                        "prev": "0x00000000000000000000000000000000000000000000000929a17ff9e78d08cd"
                    },
                    {
                        "current": "0x000000000000000000000000000000000000000000000284be69242516940ea9",
                        "key": "0x0000000000000000000000000000000000000000000000000000000000000004",
                        "prev": "0x00000000000000000000000000000000000000000000028de80aa41efe211776"
                    }
                ],
                "storageVariables": []
            }
        ]
    }
}