{
    "balance_change": {
        "balanceChanges": [
            {
                "account": "0xcdf6cd26e8ef77da866bee2961a4040414c4d4b9",
                "assets": [
                    {
                        "address": "0x48e0cd27224a965fa1d2cf516890208399ef56f0",
                        "amount": "1",
                        "iconUrl": "",
                        "isERC1155": false,
                        "isERC721": true,
                        "sign": true,
                        "tokenID": "65",
                        "value": ""
                    },
                    {
                        "address": "0x48e0cd27224a965fa1d2cf516890208399ef56f0",
                        "amount": "1",
                        "iconUrl": "",
                        "isERC1155": false,
                        "isERC721": true,
                        "sign": true,
                        "tokenID": "66",
                        "value": ""
                    }
                ]
            },
            {
                "account": "0x0000000000000000000000000000000000000000",
                "assets": [
                    {
                        "address": "0x48e0cd27224a965fa1d2cf516890208399ef56f0",
                        "amount": "1",
                        "iconUrl": "",
                        "isERC1155": false,
                        "isERC721": true,
                        "sign": false,
                        "tokenID": "65",
                        "value": ""
                    },
                    {
                        "address": "0x48e0cd27224a965fa1d2cf516890208399ef56f0",
                        "amount": "1",
                        "iconUrl": "",
                        "isERC1155": false,
                        "isERC721": true,
                        "sign": false,
                        "tokenID": "66",
                        "value": ""
                    }
                ]
            }
        ]
    },
    "profile": {
        "basic_info": {
            "baseFee": "9.871702011",
            "blockNumber": 16067511,
            "callData": "0x2db115440000000000000000000000000000000000000000000000000000000000000002",
            "debugEnable": true,
            "errorInfo": "",
            "eventCount": 2,
            "feeRecipient": "0x24d6c74d811cfde65995ed26fd08af445f8aab06",
            "formatValue": "0",
            "gasLimit": 75144,
            "gasPrice": "11.871702011",
            "gasUsed": 75144,
            "intTxnCount": 0,
            "internalRevert": false,
            "internalRevertMessage": "",
            "isContractCreation": false,
            "isFlashloan": false,
            "maxFee": "17.214556817",
            "nonce": 5,
            "overwritedBlockNumber": -1,
            "priorityFee": "2",
            "receiver": "0x48e0cd27224a965fa1d2cf516890208399ef56f0",
            "revertMessage": "",
            "sender": "0xcdf6cd26e8ef77da866bee2961a4040414c4d4b9",
            "simulationEnable": true,
            "sourceTxnHash": "0x04ad8c3580fda13c45afe12938746b360f153fba35541e9ef35a68e755b8876f",
            "status": true,
            "timestamp": "2022-11-28T09:12:47Z",
            "transactionFee": "0.000892087175914584",
            "txnHash": "0x04ad8c3580fda13c45afe12938746b360f153fba35541e9ef35a68e755b8876f",
            "txnIndex": 10,
            "type": 2,
            "value": "0"
        },
        "fund_flow": [
            {
                "amount": "1",
                "from": "0x0000000000000000000000000000000000000000",
                "id": 1,
                "isERC1155": false,
                "isERC721": true,
                "isReverted": false,
                "order": 1,
                "to": "0xcdf6cd26e8ef77da866bee2961a4040414c4d4b9",
                "token": "0x48e0cd27224a965fa1d2cf516890208399ef56f0",
                "tokenID": "65"
            },
            {
                "amount": "1",
                "from": "0x0000000000000000000000000000000000000000",
                "id": 2,
                "isERC1155": false,
                "isERC721": true,
                "isReverted": false,
                "order": 2,
                "to": "0xcdf6cd26e8ef77da866bee2961a4040414c4d4b9",
                "token": "0x48e0cd27224a965fa1d2cf516890208399ef56f0",
                "tokenID": "66"
            }
        ],
        "token_infos": [
            {
                "address": "0xc02aaa39b223fe8d0a0e5c4f27ead9083c756cc2",
                "decimals": 18
            },
            {
                "address": "0xeeeeeeeeeeeeeeeeeeeeeeeeeeeeeeeeeeeeeeee",
                "decimals": 18
            }
        ]
    },
    "address_label": {
        "labels": [
            {
                "address": "0xeeeeeeeeeeeeeeeeeeeeeeeeeeeeeeeeeeeeeeee",
                "label": "Ether"
            },
            {
                "address": "0x48e0cd27224a965fa1d2cf516890208399ef56f0",
                "label": "ChillCamelClub"
            },
            {
                "address": "0x0000000000000000000000000000000000000001",
                "label": "Precompiled"
            },
            {
                "address": "0x0000000000000000000000000000000000000002",
                "label": "Precompiled"
            },
            {
                "address": "0x0000000000000000000000000000000000000003",
                "label": "Precompiled"
            },
            {
                "address": "0x0000000000000000000000000000000000000004",
                "label": "Precompiled"
            }
        ]
    },
    "trace": {
        "accountLabels": null,
        "dataMap": {
            "-1": {
                "invocation": {
                    "address": "0xcdf6cd26e8ef77da866bee2961a4040414c4d4b9",
                    "callData": "",
                    "decodedMethod": null,
                    "errorInfo": "",
                    "fromAddress": "",
                    "gasUsed": 0,
                    "id": -1,
                    "methodDecoded": false,
                    "operation": "",
                    "output": "",
                    "revert": false,
                    "revertMessage": "",
                    "selector": "",
                    "status": false,
                    "value": ""
                },
                "nodeType": 0
            },
            "0": {
                "invocation": {
                    "address": "0x48e0cd27224a965fa1d2cf516890208399ef56f0",
                    "callData": "0x0000000000000000000000000000000000000000000000000000000000000002",
                    "decodedMethod": {
                        "callParams": [
                            {
                                "name": "qty",
                                "type": "uint256",
                                "value": "2"
                            }
                        ],
                        "constructorArguments": "",
                        "name": "publicMint",
                        "returnParams": [],
                        "signature": "publicMint(uint256)"
                    },
                    "errorInfo": "",
                    "fromAddress": "0xcdf6cd26e8ef77da866bee2961a4040414c4d4b9",
                    "gasUsed": 75144,
                    "id": 0,
                    "methodDecoded": true,
                    "operation": "CALL",
                    "output": "",
                    "revert": false,
                    "revertMessage": "",
                    "selector": "0x2db11544",
                    "status": true,
                    "value": "0"
                },
                "nodeType": 0
            },
            "1": {
                "event": {
                    "contract": "0x48e0cd27224a965fa1d2cf516890208399ef56f0",
                    "decodedLog": {
                        "name": "Transfer",
                        "params": [
                            {
                                "name": "from",
                                "type": "address",
                                "value": "0x0000000000000000000000000000000000000000"
                            },
                            {
                                "name": "to",
                                "type": "address",
                                "value": "0xcdf6cd26e8ef77da866bee2961a4040414c4d4b9"
                            },
                            {
                                "decimalAvailable": true,
                                "name": "tokenId",
                                "type": "uint256",
                                "value": "65"
                            }
                        ],
                        "signature": "Transfer(address,address,uint256)"
                    },
                    "id": 1,
                    "logData": "0x",
                    "logDecoded": true,
                    "operation": "EVENT",
                    "revert": false,
                    "status": true,
                    "topics": [
                        "0xddf252ad1be2c89b69c2b068fc378daa952ba7f163c4a11628f55a4df523b3ef",
                        "0x0000000000000000000000000000000000000000000000000000000000000000",
                        "0x000000000000000000000000cdf6cd26e8ef77da866bee2961a4040414c4d4b9",
                        "0x0000000000000000000000000000000000000000000000000000000000000041"
                    ]
                },
                "nodeType": 1
            },
            "2": {
                "event": {
                    "contract": "0x48e0cd27224a965fa1d2cf516890208399ef56f0",
                    "decodedLog": {
                        "name": "Transfer",
                        "params": [
                            {
                                "name": "from",
                                "type": "address",
                                "value": "0x0000000000000000000000000000000000000000"
                            },
                            {
                                "name": "to",
                                "type": "address",
                                "value": "0xcdf6cd26e8ef77da866bee2961a4040414c4d4b9"
                            },
                            {
                                "decimalAvailable": true,
                                "name": "tokenId",
                                "type": "uint256",
                                "value": "66"
                            }
                        ],
                        "signature": "Transfer(address,address,uint256)"
                    },
                    "id": 2,
                    "logData": "0x",
                    "logDecoded": true,
                    "operation": "EVENT",
                    "revert": false,
                    "status": true,
                    "topics": [
                        "0xddf252ad1be2c89b69c2b068fc378daa952ba7f163c4a11628f55a4df523b3ef",
                        "0x0000000000000000000000000000000000000000000000000000000000000000",
                        "0x000000000000000000000000cdf6cd26e8ef77da866bee2961a4040414c4d4b9",
                        "0x0000000000000000000000000000000000000000000000000000000000000042"
                    ]
                },
                "nodeType": 1
            }
        },
        "gasFlame": [
            {
                "children": [
                    {
                        "children": [
                            {
                                "children": [],
                                "depth": 0,
                                "name": "Initial Gas",
                                "value": 21204
                            },
                            {
                                "children": [],
                                "depth": 0,
                                "name": "Executed Gas",
                                "value": 53940
                            }
                        ],
                        "depth": -1,
                        "name": "Actual Gas Used",
                        "value": 75144
                    },
                    {
                        "children": [],
                        "depth": -1,
                        "name": "Refunded Gas",
                        "value": 0
                    }
                ],
                "depth": -2,
                "name": "Total Gas",
                "value": 75144
            }
        ],
        "isConfirmed": true,
        "mainTrace": [
            {
                "children": [
                    {
                        "children": [
                            {
                                "children": [],
                                "depth": 1,
                                "id": 1,
                                "order": 1
                            },
                            {
                                "children": [],
                                "depth": 1,
                                "id": 2,
                                "order": 2
                            }
                        ],
                        "depth": 0,
                        "id": 0,
                        "order": 0
                    }
                ],
                "depth": -1,
                "id": -1,
                "order": -1
            }
        ],
        "mainTraceNodeCount": 3,
        "parentIdMap": {
            "0": -1,
            "1": 0,
            "2": 0
        },
        "tidyTrace": [
            {
                "children": [
                    {
                        "children": [
                            {
                                "children": [],
                                "depth": 1,
                                "id": 1,
                                "order": 1
                            },
                            {
                                "children": [],
                                "depth": 1,
                                "id": 2,
                                "order": 2
                            }
                        ],
                        "depth": 0,
                        "id": 0,
                        "order": 0
                    }
                ],
                "depth": -1,
                "id": -1,
                "order": -1
            }
        ],
        "tidyTraceNodeCount": 3
    },
    "state_change": {
        "stateChanges": [
            {
                "address": "0x48e0cd27224a965fa1d2cf516890208399ef56f0",
                "erc": "ERC-721",
                "slots": [
                    {
                        "current": "0x0000000000000000000000000000000000000000000000060000000000000006",
                        "key": "0xfa342b300bb91f0c570a67930f0613b25342603d8a81a2ee9ea4d4863034a9a1",
                        "prev": "0x0000000000000000000000000000000000000000000000040000000000000004"
                    },
                    {
                        "current": "0x000000000000000063847b8fcdf6cd26e8ef77da866bee2961a4040414c4d4b9",
                        "key": "0xc428ee1ad537b92c49dfe1388414ba8cd624f9af6ebb2d8439967137c4233dc3",
                        "prev": "0x0000000000000000000000000000000000000000000000000000000000000000"
                    },
                    {
                        "current": "0x0000000000000000000000000000000000000000000000000000000000000043",
                        "key": "0x0000000000000000000000000000000000000000000000000000000000000000",
                        "prev": "0x0000000000000000000000000000000000000000000000000000000000000041"
                    },
                    {
                        "current": "0x0000000000000000000000000000000000000000000000000000000000000006",
                        "key": "0xe3b903b4918135f43aed3db5bd2d7ae22cadd1c808df2fedcdd6b866ad0607a5",
                        "prev": "0x0000000000000000000000000000000000000000000000000000000000000004"
                    }
                ],
                "storageVariables": [
                    {
                        "name": "_packedAddressData",
                        "type": "mapping(address => uint256)",
                        "value": {
                            "pairs": [
                                {
                                    "key": "0xcdf6cd26e8ef77da866bee2961a4040414c4d4b9",
                                    "value": {
                                        "current": "110680464442257309702",
                                        "prev": "73786976294838206468",
                                        "typeTag": 1
                                    }
                                }
                            ],
                            "typeTag": 4
                        }
                    },
                    {
                        "name": "_packedOwnerships",
                        "type": "mapping(uint256 => uint256)",
                        "value": {
                            "pairs": [
                                {
                                    "key": "65",
                                    "value": {
                                        "current": "2440162254877848911107979629233233937557064973651468932281",
                                        "prev": "0",
                                        "typeTag": 1
                                    }
                                }
                            ],
                            "typeTag": 4
                        }
                    },
                    {
                        "name": "_currentIndex",
                        "type": "uint256",
                        "value": {
                            "current": "67",
                            "prev": "65",
                            "typeTag": 1
                        }
                    },
                    {
                        "name": "walletPublic",
                        "type": "mapping(address => uint256)",
                        "value": {
                            "pairs": [
                                {
                                    "key": "0xcdf6cd26e8ef77da866bee2961a4040414c4d4b9",
                                    "value": {
                                        "current": "6",
                                        "prev": "4",
                                        "typeTag": 1
                                    }
                                }
                            ],
                            "typeTag": 4
                        }
                    }
                ]
            }
        ]
    }
}