{
    "balance_change": {
        "balanceChanges": [
            {
                "account": "0x0681e844593a051e2882ec897ecd5444efe19ff2",
                "assets": [
                    {
                        "address": "0xc02aaa39b223fe8d0a0e5c4f27ead9083c756cc2",
                        "amount": "0.000729425885396291",
                        "iconUrl": "https://assets.blocksec.com/icon/f1cb2d02c471d545bbc7722daf3277fd852d98e63d118771af7047bd8256c516.png",
                        "isERC1155": false,
                        "isERC721": false,
                        "sign": true,
                        "value": ""
                    }
                ]
            },
            {
                "account": "0xf6a61a7e5f2d8bfc23c7bdaa55b5477922a27cbb",
                "assets": [
                    {
                        "address": "0xc02aaa39b223fe8d0a0e5c4f27ead9083c756cc2",
                        "amount": "0.000729425885396291",
                        "iconUrl": "https://assets.blocksec.com/icon/f1cb2d02c471d545bbc7722daf3277fd852d98e63d118771af7047bd8256c516.png",
                        "isERC1155": false,
                        "isERC721": false,
                        "sign": false,
                        "value": ""
                    }
                ]
            }
        ]
    },
    "profile": {
        "basic_info": {
            "baseFee": "",
            "blockNumber": 7678643,
            "callData": "0x3c28d861000000000000000000000000000000000000000000000000000000000000008000000000000000000000000000000000000000000000000000000000000002c000000000000000000000000000000000000000000000000000000000000004800000000000000000000000000000000000000000000000000000000000000500000000000000000000000000f6a61a7e5f2d8bfc23c7bdaa55b5477922a27cbb0000000000000000000000000681e844593a051e2882ec897ecd5444efe19ff20000000000000000000000008124071f810d533ff63de61d0c98db99eeb99d640000000000000000000000000000000000000000000000000000000000000000000000000000000000000000000000000000000000000000002e71636c37fe0000000000000000000000000000000000000000000000005fa06aeded6d10000000000000000000000000000000000000000000000000000000000000000000000000000000000000000000000000000000000000000000000000000000000000000000000000000000000000000000000000000000000000000000005cca53274acf7e5a5415623a378a5ed0084b855ee5209e370cab5dfe517087892d55b605000000000000000000000000000000000000000000000000000000000000018000000000000000000000000000000000000000000000000000000000000001e00000000000000000000000000000000000000000000000000000000000000024f47261b0000000000000000000000000c02aaa39b223fe8d0a0e5c4f27ead9083c756cc2000000000000000000000000000000000000000000000000000000000000000000000000000000000000000000000000000000000000000000000024f47261b0000000000000000000000000503f9794d6a6bb0df8fbb19a2b3e2aeab35339ad00000000000000000000000000000000000000000000000000000000000000000000000000000000f6a61a7e5f2d8bfc23c7bdaa55b5477922a27cbb0000000000000000000000000681e844593a051e2882ec897ecd5444efe19ff20000000000000000000000008124071f810d533ff63de61d0c98db99eeb99d6400000000000000000000000000000000000000000000000000000000000000000000000000000000000000000000000000000000000000607c0fcc27a7ccd000000000000000000000000000000000000000000000000000002c3eb3954a200000000000000000000000000000000000000000000000000000000000000000000000000000000000000000000000000000000000000000000000000000000000000000000000000000000000000000000000000000000000000000005cca5327a5a06bd000986756531fb82a1cac2872b48ce7a973f014bed2c2cbb07dc1b721000000000000000000000000000000000000000000000000000000000000018000000000000000000000000000000000000000000000000000000000000001a00000000000000000000000000000000000000000000000000000000000000000000000000000000000000000000000000000000000000000000000000000000000000000000000000000000000000000000000000000000000000000000000421c19169ae6fa7a8afc7ee8d2ce89133f50368876981c7d860cd542fc40473a4c390224c567eaa6f8900e8e51190447bdddfdb2501a2a033c378cde8cc5a8bb549b0300000000000000000000000000000000000000000000000000000000000000000000000000000000000000000000000000000000000000000000000000421b2f33a3b3576d2644dfdb0670c2c557c87edc2be84ab6faa811b556caba27f47c12c203a6bbf9fd16a58b4cca843bae141c3acb2363f8d85864b2d8314e98362503000000000000000000000000000000000000000000000000000000000000",
            "debugEnable": true,
            "errorInfo": "",
            "eventCount": 3,
            "feeRecipient": "0x5a0b54d5dc17e0aadc383d2db43b0a0d3e029c4c",
            "formatValue": "0",
            "gasLimit": 800000,
            "gasPrice": "6",
            "gasUsed": 170989,
            "intTxnCount": 4,
            "internalRevert": false,
            "internalRevertMessage": "",
            "isContractCreation": false,
            "isFlashloan": false,
            "maxFee": "",
            "nonce": 52647,
            "overwritedBlockNumber": -1,
            "priorityFee": "",
            "receiver": "0x4f833a24e1f95d70f028921e27040ca56e09ab0b",
            "revertMessage": "",
            "sender": "0x0681e844593a051e2882ec897ecd5444efe19ff2",
            "simulationEnable": true,
            "sourceTxnHash": "0x04c4bbc308e0a89da779768e16b37b074ea7f947c020b0196990f939b7e3e941",
            "status": true,
            "timestamp": "2019-05-02T01:17:16Z",
            "transactionFee": "0.001025934",
            "txnHash": "0x04c4bbc308e0a89da779768e16b37b074ea7f947c020b0196990f939b7e3e941",
            "txnIndex": 6,
            "type": 0,
            "value": "0"
        },
        "fund_flow": [
            {
                "amount": "0.000729425885396291",
                "from": "0xf6a61a7e5f2d8bfc23c7bdaa55b5477922a27cbb",
                "id": 1,
                "isERC1155": false,
                "isERC721": false,
                "isReverted": false,
                "order": 1,
                "to": "0x0681e844593a051e2882ec897ecd5444efe19ff2",
                "token": "0xc02aaa39b223fe8d0a0e5c4f27ead9083c756cc2"
            }
        ],
        "token_infos": [
            {
                "address": "0xc02aaa39b223fe8d0a0e5c4f27ead9083c756cc2",
                "decimals": 18
            },
            {
                "address": "0xeeeeeeeeeeeeeeeeeeeeeeeeeeeeeeeeeeeeeeee",
                "decimals": 18
            }
        ]
    },
    "address_label": {
        "labels": [
            {
                "address": "0x0000000000000000000000000000000000000003",
                "label": "Precompiled"
            },
            {
                "address": "0x0000000000000000000000000000000000000004",
                "label": "Precompiled"
            },
            {
                "address": "0xeeeeeeeeeeeeeeeeeeeeeeeeeeeeeeeeeeeeeeee",
                "label": "Ether"
            },
            {
                "address": "0x0000000000000000000000000000000000000000",
                "label": "Null Address"
            },
            {
                "address": "0x4f833a24e1f95d70f028921e27040ca56e09ab0b",
                "label": "0x: Old Exchange v2.0"
            },
            {
                "address": "0x2240dab907db71e64d3e0dba4800c83b5c502d4e",
                "label": "0x: Old ERC20 Proxy"
            },
            {
                "address": "0x0000000000000000000000000000000000000001",
                "label": "Precompiled"
            },
            {
                "address": "0x0000000000000000000000000000000000000002",
                "label": "Precompiled"
            },
            {
                "address": "0xc02aaa39b223fe8d0a0e5c4f27ead9083c756cc2",
                "label": "Wrapped Ether (WETH)"
            },
            {
                "address": "0x0681e844593a051e2882ec897ecd5444efe19ff2",
                "label": "Star Bit Ex"
            }
        ]
    },
    "trace": {
        "accountLabels": null,
        "dataMap": {
            "-1": {
                "invocation": {
                    "address": "0x0681e844593a051e2882ec897ecd5444efe19ff2",
                    "callData": "",
                    "decodedMethod": null,
                    "errorInfo": "",
                    "fromAddress": "",
                    "gasUsed": 0,
                    "id": -1,
                    "methodDecoded": false,
                    "operation": "",
                    "output": "",
                    "revert": false,
                    "revertMessage": "",
                    "selector": "",
                    "status": false,
                    "value": ""
                },
                "nodeType": 0
            },
            "0": {
                "invocation": {
                    "address": "0x4f833a24e1f95d70f028921e27040ca56e09ab0b",
                    "callData": "0x000000000000000000000000000000000000000000000000000000000000008000000000000000000000000000000000000000000000000000000000000002c000000000000000000000000000000000000000000000000000000000000004800000000000000000000000000000000000000000000000000000000000000500000000000000000000000000f6a61a7e5f2d8bfc23c7bdaa55b5477922a27cbb0000000000000000000000000681e844593a051e2882ec897ecd5444efe19ff20000000000000000000000008124071f810d533ff63de61d0c98db99eeb99d640000000000000000000000000000000000000000000000000000000000000000000000000000000000000000000000000000000000000000002e71636c37fe0000000000000000000000000000000000000000000000005fa06aeded6d10000000000000000000000000000000000000000000000000000000000000000000000000000000000000000000000000000000000000000000000000000000000000000000000000000000000000000000000000000000000000000000005cca53274acf7e5a5415623a378a5ed0084b855ee5209e370cab5dfe517087892d55b605000000000000000000000000000000000000000000000000000000000000018000000000000000000000000000000000000000000000000000000000000001e00000000000000000000000000000000000000000000000000000000000000024f47261b0000000000000000000000000c02aaa39b223fe8d0a0e5c4f27ead9083c756cc2000000000000000000000000000000000000000000000000000000000000000000000000000000000000000000000000000000000000000000000024f47261b0000000000000000000000000503f9794d6a6bb0df8fbb19a2b3e2aeab35339ad00000000000000000000000000000000000000000000000000000000000000000000000000000000f6a61a7e5f2d8bfc23c7bdaa55b5477922a27cbb0000000000000000000000000681e844593a051e2882ec897ecd5444efe19ff20000000000000000000000008124071f810d533ff63de61d0c98db99eeb99d6400000000000000000000000000000000000000000000000000000000000000000000000000000000000000000000000000000000000000607c0fcc27a7ccd000000000000000000000000000000000000000000000000000002c3eb3954a200000000000000000000000000000000000000000000000000000000000000000000000000000000000000000000000000000000000000000000000000000000000000000000000000000000000000000000000000000000000000000005cca5327a5a06bd000986756531fb82a1cac2872b48ce7a973f014bed2c2cbb07dc1b721000000000000000000000000000000000000000000000000000000000000018000000000000000000000000000000000000000000000000000000000000001a00000000000000000000000000000000000000000000000000000000000000000000000000000000000000000000000000000000000000000000000000000000000000000000000000000000000000000000000000000000000000000000000421c19169ae6fa7a8afc7ee8d2ce89133f50368876981c7d860cd542fc40473a4c390224c567eaa6f8900e8e51190447bdddfdb2501a2a033c378cde8cc5a8bb549b0300000000000000000000000000000000000000000000000000000000000000000000000000000000000000000000000000000000000000000000000000421b2f33a3b3576d2644dfdb0670c2c557c87edc2be84ab6faa811b556caba27f47c12c203a6bbf9fd16a58b4cca843bae141c3acb2363f8d85864b2d8314e98362503000000000000000000000000000000000000000000000000000000000000",
                    "decodedMethod": {
                        "callParams": [
                            {
                                "name": "leftOrder",
                                "type": "(address,address,address,address,uint256,uint256,uint256,uint256,uint256,uint256,bytes,bytes)",
                                "value": [
                                    {
                                        "name": "makerAddress",
                                        "type": "address",
                                        "value": "0xf6a61a7e5f2d8bfc23c7bdaa55b5477922a27cbb"
                                    },
                                    {
                                        "name": "takerAddress",
                                        "type": "address",
                                        "value": "0x0681e844593a051e2882ec897ecd5444efe19ff2"
                                    },
                                    {
                                        "name": "feeRecipientAddress",
                                        "type": "address",
                                        "value": "0x8124071f810d533ff63de61d0c98db99eeb99d64"
                                    },
                                    {
                                        "name": "senderAddress",
                                        "type": "address",
                                        "value": "0x0000000000000000000000000000000000000000"
                                    },
                                    {
                                        "name": "makerAssetAmount",
                                        "type": "uint256",
                                        "value": "13,072,520,760,000,000"
                                    },
                                    {
                                        "name": "takerAssetAmount",
                                        "type": "uint256",
                                        "value": "1,764,000,000,000,000,000,000"
                                    },
                                    {
                                        "name": "makerFee",
                                        "type": "uint256",
                                        "value": "0"
                                    },
                                    {
                                        "name": "takerFee",
                                        "type": "uint256",
                                        "value": "0"
                                    },
                                    {
                                        "name": "expirationTimeSeconds",
                                        "type": "uint256",
                                        "value": "1,556,763,431"
                                    },
                                    {
                                        "name": "salt",
                                        "type": "uint256",
                                        "value": "33,837,760,192,860,763,194,891,356,107,435,600,444,699,423,229,023,126,090,390,381,646,089,066,755,589"
                                    },
                                    {
                                        "name": "makerAssetData",
                                        "type": "bytes",
                                        "value": "0xf47261b0000000000000000000000000c02aaa39b223fe8d0a0e5c4f27ead9083c756cc2"
                                    },
                                    {
                                        "name": "takerAssetData",
                                        "type": "bytes",
                                        "value": "0xf47261b0000000000000000000000000503f9794d6a6bb0df8fbb19a2b3e2aeab35339ad"
                                    }
                                ]
                            },
                            {
                                "name": "rightOrder",
                                "type": "(address,address,address,address,uint256,uint256,uint256,uint256,uint256,uint256,bytes,bytes)",
                                "value": [
                                    {
                                        "name": "makerAddress",
                                        "type": "address",
                                        "value": "0xf6a61a7e5f2d8bfc23c7bdaa55b5477922a27cbb"
                                    },
                                    {
                                        "name": "takerAddress",
                                        "type": "address",
                                        "value": "0x0681e844593a051e2882ec897ecd5444efe19ff2"
                                    },
                                    {
                                        "name": "feeRecipientAddress",
                                        "type": "address",
                                        "value": "0x8124071f810d533ff63de61d0c98db99eeb99d64"
                                    },
                                    {
                                        "name": "senderAddress",
                                        "type": "address",
                                        "value": "0x0000000000000000000000000000000000000000"
                                    },
                                    {
                                        "name": "makerAssetAmount",
                                        "type": "uint256",
                                        "value": "1,779,827,019,332,161,687,552"
                                    },
                                    {
                                        "name": "takerAssetAmount",
                                        "type": "uint256",
                                        "value": "12,453,840,000,000,000"
                                    },
                                    {
                                        "name": "makerFee",
                                        "type": "uint256",
                                        "value": "0"
                                    },
                                    {
                                        "name": "takerFee",
                                        "type": "uint256",
                                        "value": "0"
                                    },
                                    {
                                        "name": "expirationTimeSeconds",
                                        "type": "uint256",
                                        "value": "1,556,763,431"
                                    },
                                    {
                                        "name": "salt",
                                        "type": "uint256",
                                        "value": "74,915,059,641,194,204,161,655,852,782,471,174,813,395,260,780,574,120,570,162,481,838,328,748,554,017"
                                    },
                                    {
                                        "name": "makerAssetData",
                                        "type": "bytes",
                                        "value": "0x"
                                    },
                                    {
                                        "name": "takerAssetData",
                                        "type": "bytes",
                                        "value": "0x"
                                    }
                                ]
                            },
                            {
                                "name": "leftSignature",
                                "type": "bytes",
                                "value": "0x1c19169ae6fa7a8afc7ee8d2ce89133f50368876981c7d860cd542fc40473a4c390224c567eaa6f8900e8e51190447bdddfdb2501a2a033c378cde8cc5a8bb549b03"
                            },
                            {
                                "name": "rightSignature",
                                "type": "bytes",
                                "value": "0x1b2f33a3b3576d2644dfdb0670c2c557c87edc2be84ab6faa811b556caba27f47c12c203a6bbf9fd16a58b4cca843bae141c3acb2363f8d85864b2d8314e98362503"
                            }
                        ],
                        "constructorArguments": "",
                        "name": "matchOrders",
                        "returnParams": [
                            {
                                "name": "matchedFillResults",
                                "type": "((uint256,uint256,uint256,uint256),(uint256,uint256,uint256,uint256),uint256)",
                                "value": [
                                    {
                                        "name": "left",
                                        "type": "(uint256,uint256,uint256,uint256)",
                                        "value": [
                                            {
                                                "name": "makerAssetFilledAmount",
                                                "type": "uint256",
                                                "value": "13,072,520,760,000,000"
                                            },
                                            {
                                                "name": "takerAssetFilledAmount",
                                                "type": "uint256",
                                                "value": "1,764,000,000,000,000,000,000"
                                            },
                                            {
                                                "name": "makerFeePaid",
                                                "type": "uint256",
                                                "value": "0"
                                            },
                                            {
                                                "name": "takerFeePaid",
                                                "type": "uint256",
                                                "value": "0"
                                            }
                                        ]
                                    },
                                    {
                                        "name": "right",
                                        "type": "(uint256,uint256,uint256,uint256)",
                                        "value": [
                                            {
                                                "name": "makerAssetFilledAmount",
                                                "type": "uint256",
                                                "value": "1,764,000,000,000,000,000,000"
                                            },
                                            {
                                                "name": "takerAssetFilledAmount",
                                                "type": "uint256",
                                                "value": "12,343,094,874,603,709"
                                            },
                                            {
                                                "name": "makerFeePaid",
                                                "type": "uint256",
                                                "value": "0"
                                            },
                                            {
                                                "name": "takerFeePaid",
                                                "type": "uint256",
                                                "value": "0"
                                            }
                                        ]
                                    },
                                    {
                                        "name": "leftMakerAssetSpreadAmount",
                                        "type": "uint256",
                                        "value": "729,425,885,396,291"
                                    }
                                ]
                            }
                        ],
                        "signature": "matchOrders((address,address,address,address,uint256,uint256,uint256,uint256,uint256,uint256,bytes,bytes),(address,address,address,address,uint256,uint256,uint256,uint256,uint256,uint256,bytes,bytes),bytes,bytes)"
                    },
                    "errorInfo": "",
                    "fromAddress": "0x0681e844593a051e2882ec897ecd5444efe19ff2",
                    "gasUsed": 170989,
                    "id": 0,
                    "methodDecoded": true,
                    "operation": "CALL",
                    "output": "0x000000000000000000000000000000000000000000000000002e71636c37fe0000000000000000000000000000000000000000000000005fa06aeded6d1000000000000000000000000000000000000000000000000000000000000000000000000000000000000000000000000000000000000000000000000000000000000000000000000000000000000000000000000000000000005fa06aeded6d100000000000000000000000000000000000000000000000000000002bd9fab96e00bd0000000000000000000000000000000000000000000000000000000000000000000000000000000000000000000000000000000000000000000000000000000000000000000000000000000000000000000000000000000000029768b2c9fd43",
                    "revert": false,
                    "revertMessage": "",
                    "selector": "0x3c28d861",
                    "status": true,
                    "value": "0"
                },
                "nodeType": 0
            },
            "1": {
                "invocation": {
                    "address": "0x0000000000000000000000000000000000000001",
                    "callData": "0xca4a9cc1c55434a5558b05274040e8fb6f365ae66e4948cffe45529b000000000000000000000000000000000000000000000000000000000000001c19169ae6fa7a8afc7ee8d2ce89133f50368876981c7d860cd542fc40473a4c390224c567eaa6f8900e8e51190447bdddfdb2501a2a033c378cde8cc5a8bb549b",
                    "decodedMethod": {
                        "callParams": [
                            {
                                "name": "hash",
                                "type": "bytes32",
                                "value": "0x23fa16a6ca4a9cc1c55434a5558b05274040e8fb6f365ae66e4948cffe45529b"
                            },
                            {
                                "name": "v",
                                "type": "uint256",
                                "value": "28"
                            },
                            {
                                "name": "r",
                                "type": "bytes32",
                                "value": "0x19169ae6fa7a8afc7ee8d2ce89133f50368876981c7d860cd542fc40473a4c39"
                            },
                            {
                                "name": "s",
                                "type": "bytes32",
                                "value": "0x0224c567eaa6f8900e8e51190447bdddfdb2501a2a033c378cde8cc5a8bb549b"
                            }
                        ],
                        "constructorArguments": "",
                        "name": "ecrecover",
                        "returnParams": [
                            {
                                "name": "",
                                "type": "address",
                                "value": "0xf6a61a7e5f2d8bfc23c7bdaa55b5477922a27cbb"
                            }
                        ],
                        "signature": "ecrecover(bytes32,uint256,bytes32,bytes32)"
                    },
                    "errorInfo": "",
                    "fromAddress": "0x4f833a24e1f95d70f028921e27040ca56e09ab0b",
                    "gasUsed": 3000,
                    "id": 1,
                    "methodDecoded": true,
                    "operation": "CALL",
                    "output": "0x000000000000000000000000f6a61a7e5f2d8bfc23c7bdaa55b5477922a27cbb",
                    "revert": false,
                    "revertMessage": "",
                    "selector": "0x23fa16a6",
                    "status": true,
                    "value": "0"
                },
                "nodeType": 0
            },
            "2": {
                "invocation": {
                    "address": "0x0000000000000000000000000000000000000001",
                    "callData": "0x264f8657f11a67a37d2268b81007c284a9d5948b0dfdec81fe5fd7a2000000000000000000000000000000000000000000000000000000000000001b2f33a3b3576d2644dfdb0670c2c557c87edc2be84ab6faa811b556caba27f47c12c203a6bbf9fd16a58b4cca843bae141c3acb2363f8d85864b2d8314e983625",
                    "decodedMethod": {
                        "callParams": [
                            {
                                "name": "hash",
                                "type": "bytes32",
                                "value": "0x89318118264f8657f11a67a37d2268b81007c284a9d5948b0dfdec81fe5fd7a2"
                            },
                            {
                                "name": "v",
                                "type": "uint256",
                                "value": "27"
                            },
                            {
                                "name": "r",
                                "type": "bytes32",
                                "value": "0x2f33a3b3576d2644dfdb0670c2c557c87edc2be84ab6faa811b556caba27f47c"
                            },
                            {
                                "name": "s",
                                "type": "bytes32",
                                "value": "0x12c203a6bbf9fd16a58b4cca843bae141c3acb2363f8d85864b2d8314e983625"
                            }
                        ],
                        "constructorArguments": "",
                        "name": "ecrecover",
                        "returnParams": [
                            {
                                "name": "",
                                "type": "address",
                                "value": "0xf6a61a7e5f2d8bfc23c7bdaa55b5477922a27cbb"
                            }
                        ],
                        "signature": "ecrecover(bytes32,uint256,bytes32,bytes32)"
                    },
                    "errorInfo": "",
                    "fromAddress": "0x4f833a24e1f95d70f028921e27040ca56e09ab0b",
                    "gasUsed": 3000,
                    "id": 2,
                    "methodDecoded": true,
                    "operation": "CALL",
                    "output": "0x000000000000000000000000f6a61a7e5f2d8bfc23c7bdaa55b5477922a27cbb",
                    "revert": false,
                    "revertMessage": "",
                    "selector": "0x89318118",
                    "status": true,
                    "value": "0"
                },
                "nodeType": 0
            },
            "3": {
                "event": {
                    "contract": "0x4f833a24e1f95d70f028921e27040ca56e09ab0b",
                    "decodedLog": {
                        "name": "Fill",
                        "params": [
                            {
                                "name": "makerAddress",
                                "type": "address",
                                "value": "0xf6a61a7e5f2d8bfc23c7bdaa55b5477922a27cbb"
                            },
                            {
                                "name": "feeRecipientAddress",
                                "type": "address",
                                "value": "0x8124071f810d533ff63de61d0c98db99eeb99d64"
                            },
                            {
                                "name": "orderHash",
                                "type": "bytes32",
                                "value": "0x4185650717bcf3129e5801f081b9672b4db70014572c9d3c10617cb139197fe4"
                            },
                            {
                                "name": "takerAddress",
                                "type": "address",
                                "value": "0x0681e844593a051e2882ec897ecd5444efe19ff2"
                            },
                            {
                                "name": "senderAddress",
                                "type": "address",
                                "value": "0x0681e844593a051e2882ec897ecd5444efe19ff2"
                            },
                            {
                                "name": "makerAssetFilledAmount",
                                "type": "uint256",
                                "value": "13,072,520,760,000,000"
                            },
                            {
                                "name": "takerAssetFilledAmount",
                                "type": "uint256",
                                "value": "1,764,000,000,000,000,000,000"
                            },
                            {
                                "name": "makerFeePaid",
                                "type": "uint256",
                                "value": "0"
                            },
                            {
                                "name": "takerFeePaid",
                                "type": "uint256",
                                "value": "0"
                            },
                            {
                                "name": "makerAssetData",
                                "type": "bytes",
                                "value": "0xf47261b0000000000000000000000000c02aaa39b223fe8d0a0e5c4f27ead9083c756cc2"
                            },
                            {
                                "name": "takerAssetData",
                                "type": "bytes",
                                "value": "0xf47261b0000000000000000000000000503f9794d6a6bb0df8fbb19a2b3e2aeab35339ad"
                            }
                        ],
                        "signature": "Fill(address,address,address,address,uint256,uint256,uint256,uint256,bytes32,bytes,bytes)"
                    },
                    "id": 3,
                    "logData": "0x0000000000000000000000000681e844593a051e2882ec897ecd5444efe19ff20000000000000000000000000681e844593a051e2882ec897ecd5444efe19ff2000000000000000000000000000000000000000000000000002e71636c37fe0000000000000000000000000000000000000000000000005fa06aeded6d10000000000000000000000000000000000000000000000000000000000000000000000000000000000000000000000000000000000000000000000000000000000000000000000000000000000000000000000000000000000000000000000000010000000000000000000000000000000000000000000000000000000000000001600000000000000000000000000000000000000000000000000000000000000024f47261b0000000000000000000000000c02aaa39b223fe8d0a0e5c4f27ead9083c756cc2000000000000000000000000000000000000000000000000000000000000000000000000000000000000000000000000000000000000000000000024f47261b0000000000000000000000000503f9794d6a6bb0df8fbb19a2b3e2aeab35339ad00000000000000000000000000000000000000000000000000000000",
                    "logDecoded": true,
                    "operation": "EVENT",
                    "revert": false,
                    "status": true,
                    "topics": [
                        "0x0bcc4c97732e47d9946f229edb95f5b6323f601300e4690de719993f3c371129",
                        "0x000000000000000000000000f6a61a7e5f2d8bfc23c7bdaa55b5477922a27cbb",
                        "0x0000000000000000000000008124071f810d533ff63de61d0c98db99eeb99d64",
                        "0x4185650717bcf3129e5801f081b9672b4db70014572c9d3c10617cb139197fe4"
                    ]
                },
                "nodeType": 1
            },
            "4": {
                "event": {
                    "contract": "0x4f833a24e1f95d70f028921e27040ca56e09ab0b",
                    "decodedLog": {
                        "name": "Fill",
                        "params": [
                            {
                                "name": "makerAddress",
                                "type": "address",
                                "value": "0xf6a61a7e5f2d8bfc23c7bdaa55b5477922a27cbb"
                            },
                            {
                                "name": "feeRecipientAddress",
                                "type": "address",
                                "value": "0x8124071f810d533ff63de61d0c98db99eeb99d64"
                            },
                            {
                                "name": "orderHash",
                                "type": "bytes32",
                                "value": "0x7303b8957854b0dbd3321b8f7c268cceac54e656248d26d99237ef067955fcfd"
                            },
                            {
                                "name": "takerAddress",
                                "type": "address",
                                "value": "0x0681e844593a051e2882ec897ecd5444efe19ff2"
                            },
                            {
                                "name": "senderAddress",
                                "type": "address",
                                "value": "0x0681e844593a051e2882ec897ecd5444efe19ff2"
                            },
                            {
                                "name": "makerAssetFilledAmount",
                                "type": "uint256",
                                "value": "1,764,000,000,000,000,000,000"
                            },
                            {
                                "name": "takerAssetFilledAmount",
                                "type": "uint256",
                                "value": "12,343,094,874,603,709"
                            },
                            {
                                "name": "makerFeePaid",
                                "type": "uint256",
                                "value": "0"
                            },
                            {
                                "name": "takerFeePaid",
                                "type": "uint256",
                                "value": "0"
                            },
                            {
                                "name": "makerAssetData",
                                "type": "bytes",
                                "value": "0xf47261b0000000000000000000000000503f9794d6a6bb0df8fbb19a2b3e2aeab35339ad"
                            },
                            {
                                "name": "takerAssetData",
                                "type": "bytes",
                                "value": "0xf47261b0000000000000000000000000c02aaa39b223fe8d0a0e5c4f27ead9083c756cc2"
                            }
                        ],
                        "signature": "Fill(address,address,address,address,uint256,uint256,uint256,uint256,bytes32,bytes,bytes)"
                    },
                    "id": 4,
                    "logData": "0x0000000000000000000000000681e844593a051e2882ec897ecd5444efe19ff20000000000000000000000000681e844593a051e2882ec897ecd5444efe19ff200000000000000000000000000000000000000000000005fa06aeded6d100000000000000000000000000000000000000000000000000000002bd9fab96e00bd00000000000000000000000000000000000000000000000000000000000000000000000000000000000000000000000000000000000000000000000000000000000000000000000000000000000000000000000000000000000000000000010000000000000000000000000000000000000000000000000000000000000001600000000000000000000000000000000000000000000000000000000000000024f47261b0000000000000000000000000503f9794d6a6bb0df8fbb19a2b3e2aeab35339ad000000000000000000000000000000000000000000000000000000000000000000000000000000000000000000000000000000000000000000000024f47261b0000000000000000000000000c02aaa39b223fe8d0a0e5c4f27ead9083c756cc200000000000000000000000000000000000000000000000000000000",
                    "logDecoded": true,
                    "operation": "EVENT",
                    "revert": false,
                    "status": true,
                    "topics": [
                        "0x0bcc4c97732e47d9946f229edb95f5b6323f601300e4690de719993f3c371129",
                        "0x000000000000000000000000f6a61a7e5f2d8bfc23c7bdaa55b5477922a27cbb",
                        "0x0000000000000000000000008124071f810d533ff63de61d0c98db99eeb99d64",
                        "0x7303b8957854b0dbd3321b8f7c268cceac54e656248d26d99237ef067955fcfd"
                    ]
                },
                "nodeType": 1
            },
            "5": {
                "invocation": {
                    "address": "0x2240dab907db71e64d3e0dba4800c83b5c502d4e",
                    "callData": "0x0000000000000000000000000000000000000000000000000000000000000080000000000000000000000000f6a61a7e5f2d8bfc23c7bdaa55b5477922a27cbb0000000000000000000000000681e844593a051e2882ec897ecd5444efe19ff200000000000000000000000000000000000000000000000000029768b2c9fd430000000000000000000000000000000000000000000000000000000000000024f47261b0000000000000000000000000c02aaa39b223fe8d0a0e5c4f27ead9083c756cc200000000000000000000000000000000000000000000000000000000",
                    "decodedMethod": {
                        "callParams": [
                            {
                                "name": "assetData",
                                "type": "bytes",
                                "value": "0xf47261b0000000000000000000000000c02aaa39b223fe8d0a0e5c4f27ead9083c756cc2"
                            },
                            {
                                "name": "from",
                                "type": "address",
                                "value": "0xf6a61a7e5f2d8bfc23c7bdaa55b5477922a27cbb"
                            },
                            {
                                "name": "to",
                                "type": "address",
                                "value": "0x0681e844593a051e2882ec897ecd5444efe19ff2"
                            },
                            {
                                "name": "amount",
                                "type": "uint256",
                                "value": "729,425,885,396,291"
                            }
                        ],
                        "constructorArguments": "",
                        "name": "transferFrom",
                        "returnParams": [],
                        "signature": "transferFrom(bytes,address,address,uint256)"
                    },
                    "errorInfo": "",
                    "fromAddress": "0x4f833a24e1f95d70f028921e27040ca56e09ab0b",
                    "gasUsed": 15079,
                    "id": 5,
                    "methodDecoded": true,
                    "operation": "CALL",
                    "output": "",
                    "revert": false,
                    "revertMessage": "",
                    "selector": "0xa85e59e4",
                    "status": true,
                    "value": "0"
                },
                "nodeType": 0
            },
            "6": {
                "invocation": {
                    "address": "0xc02aaa39b223fe8d0a0e5c4f27ead9083c756cc2",
                    "callData": "0x000000000000000000000000f6a61a7e5f2d8bfc23c7bdaa55b5477922a27cbb0000000000000000000000000681e844593a051e2882ec897ecd5444efe19ff200000000000000000000000000000000000000000000000000029768b2c9fd43",
                    "decodedMethod": {
                        "callParams": [
                            {
                                "name": "src",
                                "type": "address",
                                "value": "0xf6a61a7e5f2d8bfc23c7bdaa55b5477922a27cbb"
                            },
                            {
                                "name": "dst",
                                "type": "address",
                                "value": "0x0681e844593a051e2882ec897ecd5444efe19ff2"
                            },
                            {
                                "decimalAvailable": true,
                                "name": "wad",
                                "type": "uint256",
                                "value": "729,425,885,396,291"
                            }
                        ],
                        "constructorArguments": "",
                        "name": "transferFrom",
                        "returnParams": [
                            {
                                "name": "",
                                "type": "bool",
                                "value": true
                            }
                        ],
                        "signature": "transferFrom(address,address,uint256)"
                    },
                    "errorInfo": "",
                    "fromAddress": "0x2240dab907db71e64d3e0dba4800c83b5c502d4e",
                    "gasUsed": 13625,
                    "id": 6,
                    "methodDecoded": true,
                    "operation": "CALL",
                    "output": "0x0000000000000000000000000000000000000000000000000000000000000001",
                    "revert": false,
                    "revertMessage": "",
                    "selector": "0x23b872dd",
                    "status": true,
                    "value": "0"
                },
                "nodeType": 0
            },
            "7": {
                "event": {
                    "contract": "0xc02aaa39b223fe8d0a0e5c4f27ead9083c756cc2",
                    "decodedLog": {
                        "name": "Transfer",
                        "params": [
                            {
                                "name": "src",
                                "type": "address",
                                "value": "0xf6a61a7e5f2d8bfc23c7bdaa55b5477922a27cbb"
                            },
                            {
                                "name": "dst",
                                "type": "address",
                                "value": "0x0681e844593a051e2882ec897ecd5444efe19ff2"
                            },
                            {
                                "decimalAvailable": true,
                                "name": "wad",
                                "type": "uint256",
                                "value": "729,425,885,396,291"
                            }
                        ],
                        "signature": "Transfer(address,address,uint256)"
                    },
                    "id": 7,
                    "logData": "0x00000000000000000000000000000000000000000000000000029768b2c9fd43",
                    "logDecoded": true,
                    "operation": "EVENT",
                    "revert": false,
                    "status": true,
                    "topics": [
                        "0xddf252ad1be2c89b69c2b068fc378daa952ba7f163c4a11628f55a4df523b3ef",
                        "0x000000000000000000000000f6a61a7e5f2d8bfc23c7bdaa55b5477922a27cbb",
                        "0x0000000000000000000000000681e844593a051e2882ec897ecd5444efe19ff2"
                    ]
                },
                "nodeType": 1
            }
        },
        "gasFlame": [
            {
                "children": [
                    {
                        "children": [
                            {
                                "children": [],
                                "depth": 0,
                                "name": "Initial Gas",
                                "value": 53528
                            },
                            {
                                "children": [
                                    {
                                        "children": [],
                                        "depth": 1,
                                        "name": "ecrecover",
                                        "value": 3000
                                    },
                                    {
                                        "children": [],
                                        "depth": 1,
                                        "name": "ecrecover",
                                        "value": 3000
                                    },
                                    {
                                        "children": [
                                            {
                                                "children": [],
                                                "depth": 2,
                                                "name": "transferFrom",
                                                "value": 13625
                                            }
                                        ],
                                        "depth": 1,
                                        "name": "transferFrom",
                                        "value": 15079
                                    }
                                ],
                                "depth": 0,
                                "name": "Executed Gas",
                                "value": 132461
                            }
                        ],
                        "depth": -1,
                        "name": "Actual Gas Used",
                        "value": 170989
                    },
                    {
                        "children": [],
                        "depth": -1,
                        "name": "Refunded Gas",
                        "value": 15000
                    }
                ],
                "depth": -2,
                "name": "Total Gas",
                "value": 185989
            }
        ],
        "isConfirmed": true,
        "mainTrace": [
            {
                "children": [
                    {
                        "children": [
                            {
                                "children": [],
                                "depth": 1,
                                "id": 1,
                                "order": 1
                            },
                            {
                                "children": [],
                                "depth": 1,
                                "id": 2,
                                "order": 2
                            },
                            {
                                "children": [],
                                "depth": 1,
                                "id": 3,
                                "order": 3
                            },
                            {
                                "children": [],
                                "depth": 1,
                                "id": 4,
                                "order": 4
                            },
                            {
                                "children": [
                                    {
                                        "children": [
                                            {
                                                "children": [],
                                                "depth": 3,
                                                "id": 7,
                                                "order": 7
                                            }
                                        ],
                                        "depth": 2,
                                        "id": 6,
                                        "order": 6
                                    }
                                ],
                                "depth": 1,
                                "id": 5,
                                "order": 5
                            }
                        ],
                        "depth": 0,
                        "id": 0,
                        "order": 0
                    }
                ],
                "depth": -1,
                "id": -1,
                "order": -1
            }
        ],
        "mainTraceNodeCount": 8,
        "parentIdMap": {
            "0": -1,
            "1": 0,
            "2": 0,
            "3": 0,
            "4": 0,
            "5": 0,
            "6": 5,
            "7": 6
        },
        "tidyTrace": [
            {
                "children": [
                    {
                        "children": [
                            {
                                "children": [],
                                "depth": 1,
                                "id": 1,
                                "order": 1
                            },
                            {
                                "children": [],
                                "depth": 1,
                                "id": 2,
                                "order": 2
                            },
                            {
                                "children": [],
                                "depth": 1,
                                "id": 3,
                                "order": 3
                            },
                            {
                                "children": [],
                                "depth": 1,
                                "id": 4,
                                "order": 4
                            },
                            {
                                "children": [
                                    {
                                        "children": [
                                            {
                                                "children": [],
                                                "depth": 3,
                                                "id": 7,
                                                "order": 7
                                            }
                                        ],
                                        "depth": 2,
                                        "id": 6,
                                        "order": 6
                                    }
                                ],
                                "depth": 1,
                                "id": 5,
                                "order": 5
                            }
                        ],
                        "depth": 0,
                        "id": 0,
                        "order": 0
                    }
                ],
                "depth": -1,
                "id": -1,
                "order": -1
            }
        ],
        "tidyTraceNodeCount": 8
    },
    "state_change": {
        "stateChanges": [
            {
                "address": "0x4f833a24e1f95d70f028921e27040ca56e09ab0b",
                "erc": "",
                "slots": [
                    {
                        "current": "0x00000000000000000000000000000000000000000000005fa06aeded6d100000",
                        "key": "0x1790ea737cb360a27ba47bb64752e9da0835f2c1c4b81a2dfe8f1e3c6c0c646e",
                        "prev": "0x0000000000000000000000000000000000000000000000000000000000000000"
                    },
                    {
                        "current": "0x000000000000000000000000000000000000000000000000002bd9fab96e00bd",
                        "key": "0x43cff31627eebf56547899e4532fce23f635cca5cdba4c7e4938786bf19dce15",
                        "prev": "0x0000000000000000000000000000000000000000000000000000000000000000"
                    }
                ],
                "storageVariables": [
                    {
                        "name": "filled",
                        "type": "mapping(bytes32 => uint256)",
                        "value": {
                            "pairs": [
                                {
                                    "key": "0x4185650717bcf3129e5801f081b9672b4db70014572c9d3c10617cb139197fe4",
                                    "value": {
                                        "current": "1764000000000000000000",
                                        "prev": "0",
                                        "typeTag": 1
                                    }
                                },
                                {
                                    "key": "0x7303b8957854b0dbd3321b8f7c268cceac54e656248d26d99237ef067955fcfd",
                                    "value": {
                                        "current": "12343094874603709",
                                        "prev": "0",
                                        "typeTag": 1
                                    }
                                }
                            ],
                            "typeTag": 4
                        }
                    }
                ]
            },
            {
                "address": "0xc02aaa39b223fe8d0a0e5c4f27ead9083c756cc2",
                "erc": "ERC-20",
                "slots": [
                    {
                        "current": "0x0000000000000000000000000000000000000000000000000b120661bda1d753",
                        "key": "0xa53b24973dad78fe0e84c1f45e767c47de639fa60a0e19363a74952df8630a72",
                        "prev": "0x0000000000000000000000000000000000000000000000000b149dca706bd496"
                    },
                    {
                        "current": "0x000000000000000000000000000000000000000000000000086de5144842af9c",
                        "key": "0x925c05c30c9623fc8419a2ebdb5f8951c883a99b015f8e24b8c44bd827c08011",
                        "prev": "0x000000000000000000000000000000000000000000000000086b4dab9578b259"
                    }
                ],
                "storageVariables": [
                    {
                        "name": "balanceOf",
                        "type": "mapping(address => uint256)",
                        "value": {
                            "pairs": [
                                {
                                    "key": "0x0681e844593a051e2882ec897ecd5444efe19ff2",
                                    "value": {
                                        "current": "607393400039321500",
                                        "prev": "606663974153925209",
                                        "typeTag": 1
                                    }
                                },
                                {
                                    "key": "0xf6a61a7e5f2d8bfc23c7bdaa55b5477922a27cbb",
                                    "value": {
                                        "current": "797707100861093715",
                                        "prev": "798436526746490006",
                                        "typeTag": 1
                                    }
                                }
                            ],
                            "typeTag": 4
                        }
                    }
                ]
            }
        ]
    }
}