{
    "balance_change": {
        "balanceChanges": [
            {
                "account": "0xbc68dee71fd19c6eb4028f98f3c3ab62aad6fef3",
                "assets": [
                    {
                        "address": "0x8798249c2e607446efb7ad49ec89dd1865ff4272",
                        "amount": "346.77443144033120991",
                        "iconUrl": "https://assets.blocksec.com/icon/8556e79525cd2e9ec9d5d5368095381a251abd7ebc090c75e9374ab2b8056c2e.png",
                        "isERC1155": false,
                        "isERC721": false,
                        "sign": false,
                        "value": "3321.326551"
                    },
                    {
                        "address": "0x6b175474e89094c44da98b954eedeac495271d0f",
                        "amount": "3,330.835017150175016728",
                        "iconUrl": "https://assets.blocksec.com/icon/39aead569b9c011cb6f69734d9abbc9ab6a80049fe93bbd12bb473a3e0e859a3.png",
                        "isERC1155": false,
                        "isERC721": false,
                        "sign": true,
                        "value": "3334.165852"
                    }
                ]
            },
            {
                "account": "0x36e2fcccc59e5747ff63a03ea2e5c0c2c14911e7",
                "assets": [
                    {
                        "address": "0xc02aaa39b223fe8d0a0e5c4f27ead9083c756cc2",
                        "amount": "1.399184270857184373",
                        "iconUrl": "https://assets.blocksec.com/icon/f1cb2d02c471d545bbc7722daf3277fd852d98e63d118771af7047bd8256c516.png",
                        "isERC1155": false,
                        "isERC721": false,
                        "sign": false,
                        "value": "3321.326551"
                    },
                    {
                        "address": "0x8798249c2e607446efb7ad49ec89dd1865ff4272",
                        "amount": "346.77443144033120991",
                        "iconUrl": "https://assets.blocksec.com/icon/8556e79525cd2e9ec9d5d5368095381a251abd7ebc090c75e9374ab2b8056c2e.png",
                        "isERC1155": false,
                        "isERC721": false,
                        "sign": true,
                        "value": "3321.326551"
                    }
                ]
            },
            {
                "account": "0xc3d03e4f041fd4cd388c549ee2a29a9e5075882f",
                "assets": [
                    {
                        "address": "0xc02aaa39b223fe8d0a0e5c4f27ead9083c756cc2",
                        "amount": "1.399184270857184373",
                        "iconUrl": "https://assets.blocksec.com/icon/f1cb2d02c471d545bbc7722daf3277fd852d98e63d118771af7047bd8256c516.png",
                        "isERC1155": false,
                        "isERC721": false,
                        "sign": true,
                        "value": "3321.326551"
                    },
                    {
                        "address": "0x6b175474e89094c44da98b954eedeac495271d0f",
                        "amount": "3,330.835017150175016728",
                        "iconUrl": "https://assets.blocksec.com/icon/39aead569b9c011cb6f69734d9abbc9ab6a80049fe93bbd12bb473a3e0e859a3.png",
                        "isERC1155": false,
                        "isERC721": false,
                        "sign": false,
                        "value": "3334.165852"
                    }
                ]
            }
        ]
    },
    "profile": {
        "basic_info": {
            "baseFee": "",
            "blockNumber": 12923593,
            "callData": "0x38ed1739000000000000000000000000000000000000000000000012cc76441af4fdfcb60000000000000000000000000000000000000000000000b235a975bd59ea412800000000000000000000000000000000000000000000000000000000000000a0000000000000000000000000bc68dee71fd19c6eb4028f98f3c3ab62aad6fef30000000000000000000000000000000000000000000000000000000061033dc200000000000000000000000000000000000000000000000000000000000000030000000000000000000000008798249c2e607446efb7ad49ec89dd1865ff4272000000000000000000000000c02aaa39b223fe8d0a0e5c4f27ead9083c756cc20000000000000000000000006b175474e89094c44da98b954eedeac495271d0f",
            "debugEnable": true,
            "errorInfo": "",
            "eventCount": 8,
            "feeRecipient": "0xc8f595e2084db484f8a80109101d58625223b7c9",
            "formatValue": "0",
            "gasLimit": 202868,
            "gasPrice": "42",
            "gasUsed": 146006,
            "intTxnCount": 11,
            "internalRevert": false,
            "internalRevertMessage": "",
            "isContractCreation": false,
            "isFlashloan": false,
            "maxFee": "",
            "nonce": 565,
            "overwritedBlockNumber": -1,
            "priorityFee": "",
            "receiver": "0xd9e1ce17f2641f24ae83637ab66a2cca9c378b9f",
            "revertMessage": "",
            "sender": "0xbc68dee71fd19c6eb4028f98f3c3ab62aad6fef3",
            "simulationEnable": true,
            "sourceTxnHash": "0x04e648c77f66e0b4704b1b90bd6b065e14aa3adb0fdc5ce0e5640bb6d897dcc7",
            "status": true,
            "timestamp": "2021-07-29T23:20:29Z",
            "transactionFee": "0.006132252",
            "txnHash": "0x04e648c77f66e0b4704b1b90bd6b065e14aa3adb0fdc5ce0e5640bb6d897dcc7",
            "txnIndex": 93,
            "type": 0,
            "value": "0"
        },
        "fund_flow": [
            {
                "amount": "346.77443144033120991",
                "from": "0xbc68dee71fd19c6eb4028f98f3c3ab62aad6fef3",
                "id": 1,
                "isERC1155": false,
                "isERC721": false,
                "isReverted": false,
                "order": 1,
                "to": "0x36e2fcccc59e5747ff63a03ea2e5c0c2c14911e7",
                "token": "0x8798249c2e607446efb7ad49ec89dd1865ff4272"
            },
            {
                "amount": "1.399184270857184373",
                "from": "0x36e2fcccc59e5747ff63a03ea2e5c0c2c14911e7",
                "id": 2,
                "isERC1155": false,
                "isERC721": false,
                "isReverted": false,
                "order": 2,
                "to": "0xc3d03e4f041fd4cd388c549ee2a29a9e5075882f",
                "token": "0xc02aaa39b223fe8d0a0e5c4f27ead9083c756cc2"
            },
            {
                "amount": "3,330.835017150175016728",
                "from": "0xc3d03e4f041fd4cd388c549ee2a29a9e5075882f",
                "id": 3,
                "isERC1155": false,
                "isERC721": false,
                "isReverted": false,
                "order": 3,
                "to": "0xbc68dee71fd19c6eb4028f98f3c3ab62aad6fef3",
                "token": "0x6b175474e89094c44da98b954eedeac495271d0f"
            }
        ],
        "token_infos": [
            {
                "address": "0x6b175474e89094c44da98b954eedeac495271d0f",
                "decimals": 18
            },
            {
                "address": "0x8798249c2e607446efb7ad49ec89dd1865ff4272",
                "decimals": 18
            },
            {
                "address": "0xc02aaa39b223fe8d0a0e5c4f27ead9083c756cc2",
                "decimals": 18
            },
            {
                "address": "0xeeeeeeeeeeeeeeeeeeeeeeeeeeeeeeeeeeeeeeee",
                "decimals": 18
            }
        ]
    },
    "address_label": {
        "labels": [
            {
                "address": "0x0000000000000000000000000000000000000003",
                "label": "Precompiled"
            },
            {
                "address": "0x36e2fcccc59e5747ff63a03ea2e5c0c2c14911e7",
                "label": "SushiSwap: SushiBar"
            },
            {
                "address": "0xc3d03e4f041fd4cd388c549ee2a29a9e5075882f",
                "label": "SushiSwap: DAI"
            },
            {
                "address": "0x6b175474e89094c44da98b954eedeac495271d0f",
                "label": "Sky: Dai Stablecoin"
            },
            {
                "address": "0xc02aaa39b223fe8d0a0e5c4f27ead9083c756cc2",
                "label": "Wrapped Ether (WETH)"
            },
            {
                "address": "0x8798249c2e607446efb7ad49ec89dd1865ff4272",
                "label": "SushiSwap: xSUSHI Token"
            },
            {
                "address": "0x0000000000000000000000000000000000000001",
                "label": "Precompiled"
            },
            {
                "address": "0x0000000000000000000000000000000000000002",
                "label": "Precompiled"
            },
            {
                "address": "0x0000000000000000000000000000000000000004",
                "label": "Precompiled"
            },
            {
                "address": "0xeeeeeeeeeeeeeeeeeeeeeeeeeeeeeeeeeeeeeeee",
                "label": "Ether"
            },
            {
                "address": "0xd9e1ce17f2641f24ae83637ab66a2cca9c378b9f",
                "label": "SushiSwap: Router"
            }
        ]
    },
    "trace": {
        "accountLabels": null,
        "dataMap": {
            "-1": {
                "invocation": {
                    "address": "0xbc68dee71fd19c6eb4028f98f3c3ab62aad6fef3",
                    "callData": "",
                    "decodedMethod": null,
                    "errorInfo": "",
                    "fromAddress": "",
                    "gasUsed": 0,
                    "id": -1,
                    "methodDecoded": false,
                    "operation": "",
                    "output": "",
                    "revert": false,
                    "revertMessage": "",
                    "selector": "",
                    "status": false,
                    "value": ""
                },
                "nodeType": 0
            },
            "0": {
                "invocation": {
                    "address": "0xd9e1ce17f2641f24ae83637ab66a2cca9c378b9f",
                    "callData": "0x000000000000000000000000000000000000000000000012cc76441af4fdfcb60000000000000000000000000000000000000000000000b235a975bd59ea412800000000000000000000000000000000000000000000000000000000000000a0000000000000000000000000bc68dee71fd19c6eb4028f98f3c3ab62aad6fef30000000000000000000000000000000000000000000000000000000061033dc200000000000000000000000000000000000000000000000000000000000000030000000000000000000000008798249c2e607446efb7ad49ec89dd1865ff4272000000000000000000000000c02aaa39b223fe8d0a0e5c4f27ead9083c756cc20000000000000000000000006b175474e89094c44da98b954eedeac495271d0f",
                    "decodedMethod": {
                        "callParams": [
                            {
                                "name": "amountIn",
                                "type": "uint256",
                                "value": "346,774,431,440,331,209,910"
                            },
                            {
                                "name": "amountOutMin",
                                "type": "uint256",
                                "value": "3,287,387,196,331,492,262,184"
                            },
                            {
                                "name": "path",
                                "type": "address[]",
                                "value": [
                                    "0x8798249c2e607446efb7ad49ec89dd1865ff4272",
                                    "0xc02aaa39b223fe8d0a0e5c4f27ead9083c756cc2",
                                    "0x6b175474e89094c44da98b954eedeac495271d0f"
                                ]
                            },
                            {
                                "name": "to",
                                "type": "address",
                                "value": "0xbc68dee71fd19c6eb4028f98f3c3ab62aad6fef3"
                            },
                            {
                                "name": "deadline",
                                "type": "uint256",
                                "value": "1,627,602,370"
                            }
                        ],
                        "constructorArguments": "",
                        "name": "swapExactTokensForTokens",
                        "returnParams": [
                            {
                                "name": "amounts",
                                "type": "uint256[]",
                                "value": [
                                    "346,774,431,440,331,209,910",
                                    "1,399,184,270,857,184,373",
                                    "3,330,835,017,150,175,016,728"
                                ]
                            }
                        ],
                        "signature": "swapExactTokensForTokens(uint256,uint256,address[],address,uint256)"
                    },
                    "errorInfo": "",
                    "fromAddress": "0xbc68dee71fd19c6eb4028f98f3c3ab62aad6fef3",
                    "gasUsed": 146006,
                    "id": 0,
                    "methodDecoded": true,
                    "operation": "CALL",
                    "output": "0x00000000000000000000000000000000000000000000000000000000000000200000000000000000000000000000000000000000000000000000000000000003000000000000000000000000000000000000000000000012cc76441af4fdfcb6000000000000000000000000000000000000000000000000136ae6ae5fc1a4750000000000000000000000000000000000000000000000b4909f2093ec527718",
                    "revert": false,
                    "revertMessage": "",
                    "selector": "0x38ed1739",
                    "status": true,
                    "value": "0"
                },
                "nodeType": 0
            },
            "1": {
                "invocation": {
                    "address": "0x36e2fcccc59e5747ff63a03ea2e5c0c2c14911e7",
                    "callData": "0x",
                    "decodedMethod": {
                        "callParams": [],
                        "constructorArguments": "",
                        "name": "getReserves",
                        "returnParams": [
                            {
                                "name": "_reserve0",
                                "type": "uint112",
                                "value": "1,694,954,797,054,070,846,100,121"
                            },
                            {
                                "name": "_reserve1",
                                "type": "uint112",
                                "value": "6,860,873,086,251,143,621,445"
                            },
                            {
                                "name": "_blockTimestampLast",
                                "type": "uint32",
                                "value": "1,627,600,189"
                            }
                        ],
                        "signature": "getReserves()"
                    },
                    "errorInfo": "",
                    "fromAddress": "0xd9e1ce17f2641f24ae83637ab66a2cca9c378b9f",
                    "gasUsed": 2517,
                    "id": 1,
                    "methodDecoded": true,
                    "operation": "STATICCALL",
                    "output": "0x0000000000000000000000000000000000000000000166ebaf04714948f79299000000000000000000000000000000000000000000000173edbda97b5d616b45000000000000000000000000000000000000000000000000000000006103353d",
                    "revert": false,
                    "revertMessage": "",
                    "selector": "0x0902f1ac",
                    "status": true,
                    "value": "0"
                },
                "nodeType": 0
            },
            "10": {
                "invocation": {
                    "address": "0xc02aaa39b223fe8d0a0e5c4f27ead9083c756cc2",
                    "callData": "0x00000000000000000000000036e2fcccc59e5747ff63a03ea2e5c0c2c14911e7",
                    "decodedMethod": {
                        "callParams": [
                            {
                                "name": "",
                                "type": "address",
                                "value": "0x36e2fcccc59e5747ff63a03ea2e5c0c2c14911e7"
                            }
                        ],
                        "constructorArguments": "",
                        "name": "balanceOf",
                        "returnParams": [
                            {
                                "decimalAvailable": true,
                                "name": "",
                                "type": "uint256",
                                "value": "6,859,473,901,980,286,437,072"
                            }
                        ],
                        "signature": "balanceOf(address)"
                    },
                    "errorInfo": "",
                    "fromAddress": "0x36e2fcccc59e5747ff63a03ea2e5c0c2c14911e7",
                    "gasUsed": 534,
                    "id": 10,
                    "methodDecoded": true,
                    "operation": "STATICCALL",
                    "output": "0x000000000000000000000000000000000000000000000173da52c2ccfd9fc6d0",
                    "revert": false,
                    "revertMessage": "",
                    "selector": "0x70a08231",
                    "status": true,
                    "value": "0"
                },
                "nodeType": 0
            },
            "11": {
                "event": {
                    "contract": "0x36e2fcccc59e5747ff63a03ea2e5c0c2c14911e7",
                    "decodedLog": {
                        "name": "Sync",
                        "params": [
                            {
                                "name": "reserve0",
                                "type": "uint112",
                                "value": "1,695,301,571,485,511,177,310,031"
                            },
                            {
                                "name": "reserve1",
                                "type": "uint112",
                                "value": "6,859,473,901,980,286,437,072"
                            }
                        ],
                        "signature": "Sync(uint112,uint112)"
                    },
                    "id": 11,
                    "logData": "0x0000000000000000000000000000000000000000000166fe7b7ab5643df58f4f000000000000000000000000000000000000000000000173da52c2ccfd9fc6d0",
                    "logDecoded": true,
                    "operation": "EVENT",
                    "revert": false,
                    "status": true,
                    "topics": [
                        "0x1c411e9a96e071241c2f21f7726b17ae89e3cab4c78be50e062b03a9fffbbad1"
                    ]
                },
                "nodeType": 1
            },
            "12": {
                "event": {
                    "contract": "0x36e2fcccc59e5747ff63a03ea2e5c0c2c14911e7",
                    "decodedLog": {
                        "name": "Swap",
                        "params": [
                            {
                                "name": "sender",
                                "type": "address",
                                "value": "0xd9e1ce17f2641f24ae83637ab66a2cca9c378b9f"
                            },
                            {
                                "name": "to",
                                "type": "address",
                                "value": "0xc3d03e4f041fd4cd388c549ee2a29a9e5075882f"
                            },
                            {
                                "name": "amount0In",
                                "type": "uint256",
                                "value": "346,774,431,440,331,209,910"
                            },
                            {
                                "name": "amount1In",
                                "type": "uint256",
                                "value": "0"
                            },
                            {
                                "name": "amount0Out",
                                "type": "uint256",
                                "value": "0"
                            },
                            {
                                "name": "amount1Out",
                                "type": "uint256",
                                "value": "1,399,184,270,857,184,373"
                            }
                        ],
                        "signature": "Swap(address,uint256,uint256,uint256,uint256,address)"
                    },
                    "id": 12,
                    "logData": "0x000000000000000000000000000000000000000000000012cc76441af4fdfcb600000000000000000000000000000000000000000000000000000000000000000000000000000000000000000000000000000000000000000000000000000000000000000000000000000000000000000000000000000000136ae6ae5fc1a475",
                    "logDecoded": true,
                    "operation": "EVENT",
                    "revert": false,
                    "status": true,
                    "topics": [
                        "0xd78ad95fa46c994b6551d0da85fc275fe613ce37657fb8d5e3d130840159d822",
                        "0x000000000000000000000000d9e1ce17f2641f24ae83637ab66a2cca9c378b9f",
                        "0x000000000000000000000000c3d03e4f041fd4cd388c549ee2a29a9e5075882f"
                    ]
                },
                "nodeType": 1
            },
            "13": {
                "invocation": {
                    "address": "0xc3d03e4f041fd4cd388c549ee2a29a9e5075882f",
                    "callData": "0x0000000000000000000000000000000000000000000000b4909f2093ec5277180000000000000000000000000000000000000000000000000000000000000000000000000000000000000000bc68dee71fd19c6eb4028f98f3c3ab62aad6fef300000000000000000000000000000000000000000000000000000000000000800000000000000000000000000000000000000000000000000000000000000000",
                    "decodedMethod": {
                        "callParams": [
                            {
                                "name": "amount0Out",
                                "type": "uint256",
                                "value": "3,330,835,017,150,175,016,728"
                            },
                            {
                                "name": "amount1Out",
                                "type": "uint256",
                                "value": "0"
                            },
                            {
                                "name": "to",
                                "type": "address",
                                "value": "0xbc68dee71fd19c6eb4028f98f3c3ab62aad6fef3"
                            },
                            {
                                "name": "data",
                                "type": "bytes",
                                "value": "0x"
                            }
                        ],
                        "constructorArguments": "",
                        "name": "swap",
                        "returnParams": [],
                        "signature": "swap(uint256,uint256,address,bytes)"
                    },
                    "errorInfo": "",
                    "fromAddress": "0xd9e1ce17f2641f24ae83637ab66a2cca9c378b9f",
                    "gasUsed": 48406,
                    "id": 13,
                    "methodDecoded": true,
                    "operation": "CALL",
                    "output": "",
                    "revert": false,
                    "revertMessage": "",
                    "selector": "0x022c0d9f",
                    "status": true,
                    "value": "0"
                },
                "nodeType": 0
            },
            "14": {
                "invocation": {
                    "address": "0x6b175474e89094c44da98b954eedeac495271d0f",
                    "callData": "0x000000000000000000000000bc68dee71fd19c6eb4028f98f3c3ab62aad6fef30000000000000000000000000000000000000000000000b4909f2093ec527718",
                    "decodedMethod": {
                        "callParams": [
                            {
                                "name": "dst",
                                "type": "address",
                                "value": "0xbc68dee71fd19c6eb4028f98f3c3ab62aad6fef3"
                            },
                            {
                                "decimalAvailable": true,
                                "name": "wad",
                                "type": "uint256",
                                "value": "3,330,835,017,150,175,016,728"
                            }
                        ],
                        "constructorArguments": "",
                        "name": "transfer",
                        "returnParams": [
                            {
                                "name": "",
                                "type": "bool",
                                "value": true
                            }
                        ],
                        "signature": "transfer(address,uint256)"
                    },
                    "errorInfo": "",
                    "fromAddress": "0xc3d03e4f041fd4cd388c549ee2a29a9e5075882f",
                    "gasUsed": 13074,
                    "id": 14,
                    "methodDecoded": true,
                    "operation": "CALL",
                    "output": "0x0000000000000000000000000000000000000000000000000000000000000001",
                    "revert": false,
                    "revertMessage": "",
                    "selector": "0xa9059cbb",
                    "status": true,
                    "value": "0"
                },
                "nodeType": 0
            },
            "15": {
                "event": {
                    "contract": "0x6b175474e89094c44da98b954eedeac495271d0f",
                    "decodedLog": {
                        "name": "Transfer",
                        "params": [
                            {
                                "name": "src",
                                "type": "address",
                                "value": "0xc3d03e4f041fd4cd388c549ee2a29a9e5075882f"
                            },
                            {
                                "name": "dst",
                                "type": "address",
                                "value": "0xbc68dee71fd19c6eb4028f98f3c3ab62aad6fef3"
                            },
                            {
                                "decimalAvailable": true,
                                "name": "wad",
                                "type": "uint256",
                                "value": "3,330,835,017,150,175,016,728"
                            }
                        ],
                        "signature": "Transfer(address,address,uint256)"
                    },
                    "id": 15,
                    "logData": "0x0000000000000000000000000000000000000000000000b4909f2093ec527718",
                    "logDecoded": true,
                    "operation": "EVENT",
                    "revert": false,
                    "status": true,
                    "topics": [
                        "0xddf252ad1be2c89b69c2b068fc378daa952ba7f163c4a11628f55a4df523b3ef",
                        "0x000000000000000000000000c3d03e4f041fd4cd388c549ee2a29a9e5075882f",
                        "0x000000000000000000000000bc68dee71fd19c6eb4028f98f3c3ab62aad6fef3"
                    ]
                },
                "nodeType": 1
            },
            "16": {
                "invocation": {
                    "address": "0x6b175474e89094c44da98b954eedeac495271d0f",
                    "callData": "0x000000000000000000000000c3d03e4f041fd4cd388c549ee2a29a9e5075882f",
                    "decodedMethod": {
                        "callParams": [
                            {
                                "name": "",
                                "type": "address",
                                "value": "0xc3d03e4f041fd4cd388c549ee2a29a9e5075882f"
                            }
                        ],
                        "constructorArguments": "",
                        "name": "balanceOf",
                        "returnParams": [
                            {
                                "decimalAvailable": true,
                                "name": "",
                                "type": "uint256",
                                "value": "122,195,766,634,298,625,962,293,774"
                            }
                        ],
                        "signature": "balanceOf(address)"
                    },
                    "errorInfo": "",
                    "fromAddress": "0xc3d03e4f041fd4cd388c549ee2a29a9e5075882f",
                    "gasUsed": 602,
                    "id": 16,
                    "methodDecoded": true,
                    "operation": "STATICCALL",
                    "output": "0x0000000000000000000000000000000000000000006513f5c85d2fc385183a0e",
                    "revert": false,
                    "revertMessage": "",
                    "selector": "0x70a08231",
                    "status": true,
                    "value": "0"
                },
                "nodeType": 0
            },
            "17": {
                "invocation": {
                    "address": "0xc02aaa39b223fe8d0a0e5c4f27ead9083c756cc2",
                    "callData": "0x000000000000000000000000c3d03e4f041fd4cd388c549ee2a29a9e5075882f",
                    "decodedMethod": {
                        "callParams": [
                            {
                                "name": "",
                                "type": "address",
                                "value": "0xc3d03e4f041fd4cd388c549ee2a29a9e5075882f"
                            }
                        ],
                        "constructorArguments": "",
                        "name": "balanceOf",
                        "returnParams": [
                            {
                                "decimalAvailable": true,
                                "name": "",
                                "type": "uint256",
                                "value": "51,178,197,368,039,971,698,507"
                            }
                        ],
                        "signature": "balanceOf(address)"
                    },
                    "errorInfo": "",
                    "fromAddress": "0xc3d03e4f041fd4cd388c549ee2a29a9e5075882f",
                    "gasUsed": 534,
                    "id": 17,
                    "methodDecoded": true,
                    "operation": "STATICCALL",
                    "output": "0x000000000000000000000000000000000000000000000ad66029d88585ef374b",
                    "revert": false,
                    "revertMessage": "",
                    "selector": "0x70a08231",
                    "status": true,
                    "value": "0"
                },
                "nodeType": 0
            },
            "18": {
                "event": {
                    "contract": "0xc3d03e4f041fd4cd388c549ee2a29a9e5075882f",
                    "decodedLog": {
                        "name": "Sync",
                        "params": [
                            {
                                "name": "reserve0",
                                "type": "uint112",
                                "value": "122,195,766,634,298,625,962,293,774"
                            },
                            {
                                "name": "reserve1",
                                "type": "uint112",
                                "value": "51,178,197,368,039,971,698,507"
                            }
                        ],
                        "signature": "Sync(uint112,uint112)"
                    },
                    "id": 18,
                    "logData": "0x0000000000000000000000000000000000000000006513f5c85d2fc385183a0e000000000000000000000000000000000000000000000ad66029d88585ef374b",
                    "logDecoded": true,
                    "operation": "EVENT",
                    "revert": false,
                    "status": true,
                    "topics": [
                        "0x1c411e9a96e071241c2f21f7726b17ae89e3cab4c78be50e062b03a9fffbbad1"
                    ]
                },
                "nodeType": 1
            },
            "19": {
                "event": {
                    "contract": "0xc3d03e4f041fd4cd388c549ee2a29a9e5075882f",
                    "decodedLog": {
                        "name": "Swap",
                        "params": [
                            {
                                "name": "sender",
                                "type": "address",
                                "value": "0xd9e1ce17f2641f24ae83637ab66a2cca9c378b9f"
                            },
                            {
                                "name": "to",
                                "type": "address",
                                "value": "0xbc68dee71fd19c6eb4028f98f3c3ab62aad6fef3"
                            },
                            {
                                "name": "amount0In",
                                "type": "uint256",
                                "value": "0"
                            },
                            {
                                "name": "amount1In",
                                "type": "uint256",
                                "value": "1,399,184,270,857,184,373"
                            },
                            {
                                "name": "amount0Out",
                                "type": "uint256",
                                "value": "3,330,835,017,150,175,016,728"
                            },
                            {
                                "name": "amount1Out",
                                "type": "uint256",
                                "value": "0"
                            }
                        ],
                        "signature": "Swap(address,uint256,uint256,uint256,uint256,address)"
                    },
                    "id": 19,
                    "logData": "0x0000000000000000000000000000000000000000000000000000000000000000000000000000000000000000000000000000000000000000136ae6ae5fc1a4750000000000000000000000000000000000000000000000b4909f2093ec5277180000000000000000000000000000000000000000000000000000000000000000",
                    "logDecoded": true,
                    "operation": "EVENT",
                    "revert": false,
                    "status": true,
                    "topics": [
                        "0xd78ad95fa46c994b6551d0da85fc275fe613ce37657fb8d5e3d130840159d822",
                        "0x000000000000000000000000d9e1ce17f2641f24ae83637ab66a2cca9c378b9f",
                        "0x000000000000000000000000bc68dee71fd19c6eb4028f98f3c3ab62aad6fef3"
                    ]
                },
                "nodeType": 1
            },
            "2": {
                "invocation": {
                    "address": "0xc3d03e4f041fd4cd388c549ee2a29a9e5075882f",
                    "callData": "0x",
                    "decodedMethod": {
                        "callParams": [],
                        "constructorArguments": "",
                        "name": "getReserves",
                        "returnParams": [
                            {
                                "name": "_reserve0",
                                "type": "uint112",
                                "value": "122,199,097,469,315,776,137,310,502"
                            },
                            {
                                "name": "_reserve1",
                                "type": "uint112",
                                "value": "51,176,798,183,769,114,514,134"
                            },
                            {
                                "name": "_blockTimestampLast",
                                "type": "uint32",
                                "value": "1,627,600,751"
                            }
                        ],
                        "signature": "getReserves()"
                    },
                    "errorInfo": "",
                    "fromAddress": "0xd9e1ce17f2641f24ae83637ab66a2cca9c378b9f",
                    "gasUsed": 2517,
                    "id": 2,
                    "methodDecoded": true,
                    "operation": "STATICCALL",
                    "output": "0x0000000000000000000000000000000000000000006514aa58fc5057716ab126000000000000000000000000000000000000000000000ad64cbef1d7262d92d6000000000000000000000000000000000000000000000000000000006103376f",
                    "revert": false,
                    "revertMessage": "",
                    "selector": "0x0902f1ac",
                    "status": true,
                    "value": "0"
                },
                "nodeType": 0
            },
            "3": {
                "invocation": {
                    "address": "0x8798249c2e607446efb7ad49ec89dd1865ff4272",
                    "callData": "0x000000000000000000000000bc68dee71fd19c6eb4028f98f3c3ab62aad6fef300000000000000000000000036e2fcccc59e5747ff63a03ea2e5c0c2c14911e7000000000000000000000000000000000000000000000012cc76441af4fdfcb6",
                    "decodedMethod": {
                        "callParams": [
                            {
                                "name": "sender",
                                "type": "address",
                                "value": "0xbc68dee71fd19c6eb4028f98f3c3ab62aad6fef3"
                            },
                            {
                                "name": "recipient",
                                "type": "address",
                                "value": "0x36e2fcccc59e5747ff63a03ea2e5c0c2c14911e7"
                            },
                            {
                                "decimalAvailable": true,
                                "name": "amount",
                                "type": "uint256",
                                "value": "346,774,431,440,331,209,910"
                            }
                        ],
                        "constructorArguments": "",
                        "name": "transferFrom",
                        "returnParams": [
                            {
                                "name": "",
                                "type": "bool",
                                "value": true
                            }
                        ],
                        "signature": "transferFrom(address,address,uint256)"
                    },
                    "errorInfo": "",
                    "fromAddress": "0xd9e1ce17f2641f24ae83637ab66a2cca9c378b9f",
                    "gasUsed": 20413,
                    "id": 3,
                    "methodDecoded": true,
                    "operation": "CALL",
                    "output": "0x0000000000000000000000000000000000000000000000000000000000000001",
                    "revert": false,
                    "revertMessage": "",
                    "selector": "0x23b872dd",
                    "status": true,
                    "value": "0"
                },
                "nodeType": 0
            },
            "4": {
                "event": {
                    "contract": "0x8798249c2e607446efb7ad49ec89dd1865ff4272",
                    "decodedLog": {
                        "name": "Transfer",
                        "params": [
                            {
                                "name": "from",
                                "type": "address",
                                "value": "0xbc68dee71fd19c6eb4028f98f3c3ab62aad6fef3"
                            },
                            {
                                "name": "to",
                                "type": "address",
                                "value": "0x36e2fcccc59e5747ff63a03ea2e5c0c2c14911e7"
                            },
                            {
                                "decimalAvailable": true,
                                "name": "value",
                                "type": "uint256",
                                "value": "346,774,431,440,331,209,910"
                            }
                        ],
                        "signature": "Transfer(address,address,uint256)"
                    },
                    "id": 4,
                    "logData": "0x000000000000000000000000000000000000000000000012cc76441af4fdfcb6",
                    "logDecoded": true,
                    "operation": "EVENT",
                    "revert": false,
                    "status": true,
                    "topics": [
                        "0xddf252ad1be2c89b69c2b068fc378daa952ba7f163c4a11628f55a4df523b3ef",
                        "0x000000000000000000000000bc68dee71fd19c6eb4028f98f3c3ab62aad6fef3",
                        "0x00000000000000000000000036e2fcccc59e5747ff63a03ea2e5c0c2c14911e7"
                    ]
                },
                "nodeType": 1
            },
            "5": {
                "event": {
                    "contract": "0x8798249c2e607446efb7ad49ec89dd1865ff4272",
                    "decodedLog": {
                        "name": "Approval",
                        "params": [
                            {
                                "name": "owner",
                                "type": "address",
                                "value": "0xbc68dee71fd19c6eb4028f98f3c3ab62aad6fef3"
                            },
                            {
                                "name": "spender",
                                "type": "address",
                                "value": "0xd9e1ce17f2641f24ae83637ab66a2cca9c378b9f"
                            },
                            {
                                "decimalAvailable": true,
                                "name": "value",
                                "type": "uint256",
                                "value": "115,792,089,237,316,195,423,570,985,008,687,907,853,269,984,665,640,564,038,785,784,112,816,253,146,902"
                            }
                        ],
                        "signature": "Approval(address,address,uint256)"
                    },
                    "id": 5,
                    "logData": "0xffffffffffffffffffffffffffffffffffffffffffffffdb94e752c1fdfd9716",
                    "logDecoded": true,
                    "operation": "EVENT",
                    "revert": false,
                    "status": true,
                    "topics": [
                        "0x8c5be1e5ebec7d5bd14f71427d1e84f3dd0314c0f7b2291e5b200ac8c7c3b925",
                        "0x000000000000000000000000bc68dee71fd19c6eb4028f98f3c3ab62aad6fef3",
                        "0x000000000000000000000000d9e1ce17f2641f24ae83637ab66a2cca9c378b9f"
                    ]
                },
                "nodeType": 1
            },
            "6": {
                "invocation": {
                    "address": "0x36e2fcccc59e5747ff63a03ea2e5c0c2c14911e7",
                    "callData": "0x0000000000000000000000000000000000000000000000000000000000000000000000000000000000000000000000000000000000000000136ae6ae5fc1a475000000000000000000000000c3d03e4f041fd4cd388c549ee2a29a9e5075882f00000000000000000000000000000000000000000000000000000000000000800000000000000000000000000000000000000000000000000000000000000000",
                    "decodedMethod": {
                        "callParams": [
                            {
                                "name": "amount0Out",
                                "type": "uint256",
                                "value": "0"
                            },
                            {
                                "name": "amount1Out",
                                "type": "uint256",
                                "value": "1,399,184,270,857,184,373"
                            },
                            {
                                "name": "to",
                                "type": "address",
                                "value": "0xc3d03e4f041fd4cd388c549ee2a29a9e5075882f"
                            },
                            {
                                "name": "data",
                                "type": "bytes",
                                "value": "0x"
                            }
                        ],
                        "constructorArguments": "",
                        "name": "swap",
                        "returnParams": [],
                        "signature": "swap(uint256,uint256,address,bytes)"
                    },
                    "errorInfo": "",
                    "fromAddress": "0xd9e1ce17f2641f24ae83637ab66a2cca9c378b9f",
                    "gasUsed": 48082,
                    "id": 6,
                    "methodDecoded": true,
                    "operation": "CALL",
                    "output": "",
                    "revert": false,
                    "revertMessage": "",
                    "selector": "0x022c0d9f",
                    "status": true,
                    "value": "0"
                },
                "nodeType": 0
            },
            "7": {
                "invocation": {
                    "address": "0xc02aaa39b223fe8d0a0e5c4f27ead9083c756cc2",
                    "callData": "0x000000000000000000000000c3d03e4f041fd4cd388c549ee2a29a9e5075882f000000000000000000000000000000000000000000000000136ae6ae5fc1a475",
                    "decodedMethod": {
                        "callParams": [
                            {
                                "name": "dst",
                                "type": "address",
                                "value": "0xc3d03e4f041fd4cd388c549ee2a29a9e5075882f"
                            },
                            {
                                "decimalAvailable": true,
                                "name": "wad",
                                "type": "uint256",
                                "value": "1,399,184,270,857,184,373"
                            }
                        ],
                        "constructorArguments": "",
                        "name": "transfer",
                        "returnParams": [
                            {
                                "name": "",
                                "type": "bool",
                                "value": true
                            }
                        ],
                        "signature": "transfer(address,uint256)"
                    },
                    "errorInfo": "",
                    "fromAddress": "0x36e2fcccc59e5747ff63a03ea2e5c0c2c14911e7",
                    "gasUsed": 12862,
                    "id": 7,
                    "methodDecoded": true,
                    "operation": "CALL",
                    "output": "0x0000000000000000000000000000000000000000000000000000000000000001",
                    "revert": false,
                    "revertMessage": "",
                    "selector": "0xa9059cbb",
                    "status": true,
                    "value": "0"
                },
                "nodeType": 0
            },
            "8": {
                "event": {
                    "contract": "0xc02aaa39b223fe8d0a0e5c4f27ead9083c756cc2",
                    "decodedLog": {
                        "name": "Transfer",
                        "params": [
                            {
                                "name": "src",
                                "type": "address",
                                "value": "0x36e2fcccc59e5747ff63a03ea2e5c0c2c14911e7"
                            },
                            {
                                "name": "dst",
                                "type": "address",
                                "value": "0xc3d03e4f041fd4cd388c549ee2a29a9e5075882f"
                            },
                            {
                                "decimalAvailable": true,
                                "name": "wad",
                                "type": "uint256",
                                "value": "1,399,184,270,857,184,373"
                            }
                        ],
                        "signature": "Transfer(address,address,uint256)"
                    },
                    "id": 8,
                    "logData": "0x000000000000000000000000000000000000000000000000136ae6ae5fc1a475",
                    "logDecoded": true,
                    "operation": "EVENT",
                    "revert": false,
                    "status": true,
                    "topics": [
                        "0xddf252ad1be2c89b69c2b068fc378daa952ba7f163c4a11628f55a4df523b3ef",
                        "0x00000000000000000000000036e2fcccc59e5747ff63a03ea2e5c0c2c14911e7",
                        "0x000000000000000000000000c3d03e4f041fd4cd388c549ee2a29a9e5075882f"
                    ]
                },
                "nodeType": 1
            },
            "9": {
                "invocation": {
                    "address": "0x8798249c2e607446efb7ad49ec89dd1865ff4272",
                    "callData": "0x00000000000000000000000036e2fcccc59e5747ff63a03ea2e5c0c2c14911e7",
                    "decodedMethod": {
                        "callParams": [
                            {
                                "name": "account",
                                "type": "address",
                                "value": "0x36e2fcccc59e5747ff63a03ea2e5c0c2c14911e7"
                            }
                        ],
                        "constructorArguments": "",
                        "name": "balanceOf",
                        "returnParams": [
                            {
                                "decimalAvailable": true,
                                "name": "",
                                "type": "uint256",
                                "value": "1,695,301,571,485,511,177,310,031"
                            }
                        ],
                        "signature": "balanceOf(address)"
                    },
                    "errorInfo": "",
                    "fromAddress": "0x36e2fcccc59e5747ff63a03ea2e5c0c2c14911e7",
                    "gasUsed": 490,
                    "id": 9,
                    "methodDecoded": true,
                    "operation": "STATICCALL",
                    "output": "0x0000000000000000000000000000000000000000000166fe7b7ab5643df58f4f",
                    "revert": false,
                    "revertMessage": "",
                    "selector": "0x70a08231",
                    "status": true,
                    "value": "0"
                },
                "nodeType": 0
            }
        },
        "gasFlame": [
            {
                "children": [
                    {
                        "children": [
                            {
                                "children": [],
                                "depth": 0,
                                "name": "Initial Gas",
                                "value": 23464
                            },
                            {
                                "children": [
                                    {
                                        "children": [],
                                        "depth": 1,
                                        "name": "getReserves",
                                        "value": 2517
                                    },
                                    {
                                        "children": [],
                                        "depth": 1,
                                        "name": "getReserves",
                                        "value": 2517
                                    },
                                    {
                                        "children": [],
                                        "depth": 1,
                                        "name": "transferFrom",
                                        "value": 20413
                                    },
                                    {
                                        "children": [
                                            {
                                                "children": [],
                                                "depth": 2,
                                                "name": "transfer",
                                                "value": 12862
                                            },
                                            {
                                                "children": [],
                                                "depth": 2,
                                                "name": "balanceOf",
                                                "value": 490
                                            },
                                            {
                                                "children": [],
                                                "depth": 2,
                                                "name": "balanceOf",
                                                "value": 534
                                            }
                                        ],
                                        "depth": 1,
                                        "name": "swap",
                                        "value": 48082
                                    },
                                    {
                                        "children": [
                                            {
                                                "children": [],
                                                "depth": 2,
                                                "name": "transfer",
                                                "value": 13074
                                            },
                                            {
                                                "children": [],
                                                "depth": 2,
                                                "name": "balanceOf",
                                                "value": 602
                                            },
                                            {
                                                "children": [],
                                                "depth": 2,
                                                "name": "balanceOf",
                                                "value": 534
                                            }
                                        ],
                                        "depth": 1,
                                        "name": "swap",
                                        "value": 48406
                                    }
                                ],
                                "depth": 0,
                                "name": "Executed Gas",
                                "value": 143142
                            }
                        ],
                        "depth": -1,
                        "name": "Actual Gas Used",
                        "value": 146006
                    },
                    {
                        "children": [],
                        "depth": -1,
                        "name": "Refunded Gas",
                        "value": 20600
                    }
                ],
                "depth": -2,
                "name": "Total Gas",
                "value": 166606
            }
        ],
        "isConfirmed": true,
        "mainTrace": [
            {
                "children": [
                    {
                        "children": [
                            {
                                "children": [],
                                "depth": 1,
                                "id": 1,
                                "order": 1
                            },
                            {
                                "children": [],
                                "depth": 1,
                                "id": 2,
                                "order": 2
                            },
                            {
                                "children": [
                                    {
                                        "children": [],
                                        "depth": 2,
                                        "id": 4,
                                        "order": 4
                                    },
                                    {
                                        "children": [],
                                        "depth": 2,
                                        "id": 5,
                                        "order": 5
                                    }
                                ],
                                "depth": 1,
                                "id": 3,
                                "order": 3
                            },
                            {
                                "children": [
                                    {
                                        "children": [
                                            {
                                                "children": [],
                                                "depth": 3,
                                                "id": 8,
                                                "order": 8
                                            }
                                        ],
                                        "depth": 2,
                                        "id": 7,
                                        "order": 7
                                    },
                                    {
                                        "children": [],
                                        "depth": 2,
                                        "id": 9,
                                        "order": 9
                                    },
                                    {
                                        "children": [],
                                        "depth": 2,
                                        "id": 10,
                                        "order": 10
                                    },
                                    {
                                        "children": [],
                                        "depth": 2,
                                        "id": 11,
                                        "order": 11
                                    },
                                    {
                                        "children": [],
                                        "depth": 2,
                                        "id": 12,
                                        "order": 12
                                    }
                                ],
                                "depth": 1,
                                "id": 6,
                                "order": 6
                            },
                            {
                                "children": [
                                    {
                                        "children": [
                                            {
                                                "children": [],
                                                "depth": 3,
                                                "id": 15,
                                                "order": 15
                                            }
                                        ],
                                        "depth": 2,
                                        "id": 14,
                                        "order": 14
                                    },
                                    {
                                        "children": [],
                                        "depth": 2,
                                        "id": 16,
                                        "order": 16
                                    },
                                    {
                                        "children": [],
                                        "depth": 2,
                                        "id": 17,
                                        "order": 17
                                    },
                                    {
                                        "children": [],
                                        "depth": 2,
                                        "id": 18,
                                        "order": 18
                                    },
                                    {
                                        "children": [],
                                        "depth": 2,
                                        "id": 19,
                                        "order": 19
                                    }
                                ],
                                "depth": 1,
                                "id": 13,
                                "order": 13
                            }
                        ],
                        "depth": 0,
                        "id": 0,
                        "order": 0
                    }
                ],
                "depth": -1,
                "id": -1,
                "order": -1
            }
        ],
        "mainTraceNodeCount": 20,
        "parentIdMap": {
            "0": -1,
            "1": 0,
            "10": 6,
            "11": 6,
            "12": 6,
            "13": 0,
            "14": 13,
            "15": 14,
            "16": 13,
            "17": 13,
            "18": 13,
            "19": 13,
            "2": 0,
            "3": 0,
            "4": 3,
            "5": 3,
            "6": 0,
            "7": 6,
            "8": 7,
            "9": 6
        },
        "tidyTrace": [
            {
                "children": [
                    {
                        "children": [
                            {
                                "children": [
                                    {
                                        "children": [],
                                        "depth": 2,
                                        "id": 4,
                                        "order": 4
                                    },
                                    {
                                        "children": [],
                                        "depth": 2,
                                        "id": 5,
                                        "order": 5
                                    }
                                ],
                                "depth": 1,
                                "id": 3,
                                "order": 3
                            },
                            {
                                "children": [
                                    {
                                        "children": [
                                            {
                                                "children": [],
                                                "depth": 3,
                                                "id": 8,
                                                "order": 8
                                            }
                                        ],
                                        "depth": 2,
                                        "id": 7,
                                        "order": 7
                                    },
                                    {
                                        "children": [],
                                        "depth": 2,
                                        "id": 11,
                                        "order": 11
                                    },
                                    {
                                        "children": [],
                                        "depth": 2,
                                        "id": 12,
                                        "order": 12
                                    }
                                ],
                                "depth": 1,
                                "id": 6,
                                "order": 6
                            },
                            {
                                "children": [
                                    {
                                        "children": [
                                            {
                                                "children": [],
                                                "depth": 3,
                                                "id": 15,
                                                "order": 15
                                            }
                                        ],
                                        "depth": 2,
                                        "id": 14,
                                        "order": 14
                                    },
                                    {
                                        "children": [],
                                        "depth": 2,
                                        "id": 18,
                                        "order": 18
                                    },
                                    {
                                        "children": [],
                                        "depth": 2,
                                        "id": 19,
                                        "order": 19
                                    }
                                ],
                                "depth": 1,
                                "id": 13,
                                "order": 13
                            }
                        ],
                        "depth": 0,
                        "id": 0,
                        "order": 0
                    }
                ],
                "depth": -1,
                "id": -1,
                "order": -1
            }
        ],
        "tidyTraceNodeCount": 14
    },
    "state_change": {
        "stateChanges": [
            {
                "address": "0x36e2fcccc59e5747ff63a03ea2e5c0c2c14911e7",
                "erc": "ERC-20",
                "slots": [
                    {
                        "current": "0x610337bd000000000173da52c2ccfd9fc6d00000000166fe7b7ab5643df58f4f",
                        "key": "0x0000000000000000000000000000000000000000000000000000000000000008",
                        "prev": "0x6103353d000000000173edbda97b5d616b450000000166ebaf04714948f79299"
                    },
                    {
                        "current": "0x000000000000000000000000000000024e15c3563b081fec544f292822e3fa70",
                        "key": "0x0000000000000000000000000000000000000000000000000000000000000009",
                        "prev": "0x000000000000000000000000000000024e132c245362a0b985095024659168f0"
                    },
                    {
                        "current": "0x00000000000000000000000000018259e2653d1be0e0ad2c39274f0d8de8a399",
                        "key": "0x000000000000000000000000000000000000000000000000000000000000000a",
                        "prev": "0x0000000000000000000000000001825778c777d2ab0cd681e4619e9f8ae01c99"
                    }
                ],
                "storageVariables": [
                    {
                        "name": "price0CumulativeLast",
                        "type": "uint256",
                        "value": {
                            "current": "784357517648893722434794974864419846768",
                            "prev": "784344066457455427471568120584164436208",
                            "typeTag": 1
                        }
                    },
                    {
                        "name": "price1CumulativeLast",
                        "type": "uint256",
                        "value": {
                            "current": "33655928431503884574319938074585920793256857",
                            "prev": "33655107478638443484672901423895377803746457",
                            "typeTag": 1
                        }
                    },
                    {
                        "name": "reserve0",
                        "type": "uint112",
                        "value": {
                            "current": "1695301571485511177310031",
                            "prev": "1694954797054070846100121",
                            "typeTag": 1
                        }
                    },
                    {
                        "name": "reserve1",
                        "type": "uint112",
                        "value": {
                            "current": "6859473901980286437072",
                            "prev": "6860873086251143621445",
                            "typeTag": 1
                        }
                    },
                    {
                        "name": "blockTimestampLast",
                        "type": "uint32",
                        "value": {
                            "current": "1627600829",
                            "prev": "1627600189",
                            "typeTag": 1
                        }
                    }
                ]
            },
            {
                "address": "0x6b175474e89094c44da98b954eedeac495271d0f",
                "erc": "ERC-20",
                "slots": [
                    {
                        "current": "0x0000000000000000000000000000000000000000006513f5c85d2fc385183a0e",
                        "key": "0x10933ad3d107402095038bcbfc2bd3b46296d4d1c93c9845f3b25d11c61e15ce",
                        "prev": "0x0000000000000000000000000000000000000000006514aa58fc5057716ab126"
                    },
                    {
                        "current": "0x0000000000000000000000000000000000000000000000b4da35598d6409fa76",
                        "key": "0x44f4d5ee99f93e02b4c97a55a8732dcee415a74091ab0dc0641f1a20128a4182",
                        "prev": "0x000000000000000000000000000000000000000000000000499638f977b7835e"
                    }
                ],
                "storageVariables": [
                    {
                        "name": "balanceOf",
                        "type": "mapping(address => uint256)",
                        "value": {
                            "pairs": [
                                {
                                    "key": "0xbc68dee71fd19c6eb4028f98f3c3ab62aad6fef3",
                                    "value": {
                                        "current": "3336137505405556882038",
                                        "prev": "5302488255381865310",
                                        "typeTag": 1
                                    }
                                },
                                {
                                    "key": "0xc3d03e4f041fd4cd388c549ee2a29a9e5075882f",
                                    "value": {
                                        "current": "122195766634298625962293774",
                                        "prev": "122199097469315776137310502",
                                        "typeTag": 1
                                    }
                                }
                            ],
                            "typeTag": 4
                        }
                    }
                ]
            },
            {
                "address": "0x8798249c2e607446efb7ad49ec89dd1865ff4272",
                "erc": "ERC-20",
                "slots": [
                    {
                        "current": "0x0000000000000000000000000000000000000000000000000000000000000000",
                        "key": "0xc889add6d85f3132fcf291cef6792f9f864c76306d74e7ff4e21c5bcfae6e006",
                        "prev": "0x000000000000000000000000000000000000000000000012cc76441af4fdfcb6"
                    },
                    {
                        "current": "0x0000000000000000000000000000000000000000000166fe7b7ab5643df58f4f",
                        "key": "0x83cef273285dc689a828b24143ff70fff6f9e4f54e620c063786797ee641a577",
                        "prev": "0x0000000000000000000000000000000000000000000166ebaf04714948f79299"
                    },
                    {
                        "current": "0xffffffffffffffffffffffffffffffffffffffffffffffdb94e752c1fdfd9716",
                        "key": "0x31d7513c7c72a2a1e62f454112a96bea99654171248794790f1fe6ebc35f7d5e",
                        "prev": "0xffffffffffffffffffffffffffffffffffffffffffffffee615d96dcf2fb93cc"
                    }
                ],
                "storageVariables": [
                    {
                        "name": "_balances",
                        "type": "mapping(address => uint256)",
                        "value": {
                            "pairs": [
                                {
                                    "key": "0x36e2fcccc59e5747ff63a03ea2e5c0c2c14911e7",
                                    "value": {
                                        "current": "1695301571485511177310031",
                                        "prev": "1694954797054070846100121",
                                        "typeTag": 1
                                    }
                                },
                                {
                                    "key": "0xbc68dee71fd19c6eb4028f98f3c3ab62aad6fef3",
                                    "value": {
                                        "current": "0",
                                        "prev": "346774431440331209910",
                                        "typeTag": 1
                                    }
                                }
                            ],
                            "typeTag": 4
                        }
                    },
                    {
                        "name": "_allowances",
                        "type": "mapping(address => mapping(address => uint256))",
                        "value": {
                            "pairs": [
                                {
                                    "key": "0xbc68dee71fd19c6eb4028f98f3c3ab62aad6fef3",
                                    "value": {
                                        "pairs": [
                                            {
                                                "key": "0xd9e1ce17f2641f24ae83637ab66a2cca9c378b9f",
                                                "value": {
                                                    "current": "115792089237316195423570985008687907853269984665640564038785784112816253146902",
                                                    "prev": "115792089237316195423570985008687907853269984665640564039132558544256584356812",
                                                    "typeTag": 1
                                                }
                                            }
                                        ],
                                        "typeTag": 4
                                    }
                                }
                            ],
                            "typeTag": 4
                        }
                    }
                ]
            },
            {
                "address": "0xc02aaa39b223fe8d0a0e5c4f27ead9083c756cc2",
                "erc": "ERC-20",
                "slots": [
                    {
                        "current": "0x000000000000000000000000000000000000000000000173da52c2ccfd9fc6d0",
                        "key": "0xe74eef0a77feef61a512352c6d67d19c6777a09854d041c6c84bf82fe1b30d93",
                        "prev": "0x000000000000000000000000000000000000000000000173edbda97b5d616b45"
                    },
                    {
                        "current": "0x000000000000000000000000000000000000000000000ad66029d88585ef374b",
                        "key": "0xa06e44591f7f0cf45a5722b083b94076cf3a4b4b5fccd5c6ccc59cf234400ce5",
                        "prev": "0x000000000000000000000000000000000000000000000ad64cbef1d7262d92d6"
                    }
                ],
                "storageVariables": [
                    {
                        "name": "balanceOf",
                        "type": "mapping(address => uint256)",
                        "value": {
                            "pairs": [
                                {
                                    "key": "0x36e2fcccc59e5747ff63a03ea2e5c0c2c14911e7",
                                    "value": {
                                        "current": "6859473901980286437072",
                                        "prev": "6860873086251143621445",
                                        "typeTag": 1
                                    }
                                },
                                {
                                    "key": "0xc3d03e4f041fd4cd388c549ee2a29a9e5075882f",
                                    "value": {
                                        "current": "51178197368039971698507",
                                        "prev": "51176798183769114514134",
                                        "typeTag": 1
                                    }
                                }
                            ],
                            "typeTag": 4
                        }
                    }
                ]
            },
            {
                "address": "0xc3d03e4f041fd4cd388c549ee2a29a9e5075882f",
                "erc": "ERC-20",
                "slots": [
                    {
                        "current": "0x0000000000000000000000000009c9793cbd66d48d95111c09f482ebc45020d2",
                        "key": "0x000000000000000000000000000000000000000000000000000000000000000a",
                        "prev": "0x0000000000000000000000000009c97665365076ba35b68384debc8bd8f31bfa"
                    },
                    {
                        "current": "0x610337bd000000000ad66029d88585ef374b0000006513f5c85d2fc385183a0e",
                        "key": "0x0000000000000000000000000000000000000000000000000000000000000008",
                        "prev": "0x6103376f000000000ad64cbef1d7262d92d60000006514aa58fc5057716ab126"
                    },
                    {
                        "current": "0x000000000000000000000000000000007cd02c0033663ea0619d1374438a6cd9",
                        "key": "0x0000000000000000000000000000000000000000000000000000000000000009",
                        "prev": "0x000000000000000000000000000000007cd023a3621e8d4c5577312805561fbf"
                    }
                ],
                "storageVariables": [
                    {
                        "name": "reserve0",
                        "type": "uint112",
                        "value": {
                            "current": "122195766634298625962293774",
                            "prev": "122199097469315776137310502",
                            "typeTag": 1
                        }
                    },
                    {
                        "name": "reserve1",
                        "type": "uint112",
                        "value": {
                            "current": "51178197368039971698507",
                            "prev": "51176798183769114514134",
                            "typeTag": 1
                        }
                    },
                    {
                        "name": "blockTimestampLast",
                        "type": "uint32",
                        "value": {
                            "current": "1627600829",
                            "prev": "1627600751",
                            "typeTag": 1
                        }
                    },
                    {
                        "name": "price0CumulativeLast",
                        "type": "uint256",
                        "value": {
                            "current": "165905161665834714740029152365705325785",
                            "prev": "165904992052797896019223619508280631231",
                            "typeTag": 1
                        }
                    },
                    {
                        "name": "price1CumulativeLast",
                        "type": "uint256",
                        "value": {
                            "current": "218257531162566350729529356413462911430697170",
                            "prev": "218256564112399692546481010515844202784562170",
                            "typeTag": 1
                        }
                    }
                ]
            }
        ]
    }
}