{
    "balance_change": {
        "balanceChanges": [
            {
                "account": "0xaba5b9230896b6ae684e43f75c88c23541c6bee7",
                "assets": [
                    {
                        "address": "0xba7435a4b4c747e0101780073eeda872a69bdcd4",
                        "amount": "1,683",
                        "iconUrl": "",
                        "isERC1155": false,
                        "isERC721": false,
                        "sign": false,
                        "value": ""
                    }
                ]
            },
            {
                "account": "0xffecffe94c3e87987454f2392676ccdb98b926f8",
                "assets": [
                    {
                        "address": "0xba7435a4b4c747e0101780073eeda872a69bdcd4",
                        "amount": "1,683",
                        "iconUrl": "",
                        "isERC1155": false,
                        "isERC721": false,
                        "sign": true,
                        "value": ""
                    }
                ]
            }
        ]
    },
    "profile": {
        "basic_info": {
            "baseFee": "",
            "blockNumber": 7160850,
            "callData": "0xa9059cbb000000000000000000000000ffecffe94c3e87987454f2392676ccdb98b926f800000000000000000000000000000000000000000000005b3c511f15766c0000",
            "debugEnable": true,
            "errorInfo": "",
            "eventCount": 1,
            "feeRecipient": "0xeea5b82b61424df8020f5fedd81767f2d0d25bfb",
            "formatValue": "0",
            "gasLimit": 210000,
            "gasPrice": "0",
            "gasUsed": 114035,
            "intTxnCount": 0,
            "internalRevert": false,
            "internalRevertMessage": "",
            "isContractCreation": false,
            "isFlashloan": false,
            "maxFee": "",
            "nonce": 0,
            "overwritedBlockNumber": -1,
            "priorityFee": "",
            "receiver": "0xba7435a4b4c747e0101780073eeda872a69bdcd4",
            "revertMessage": "",
            "sender": "0xaba5b9230896b6ae684e43f75c88c23541c6bee7",
            "simulationEnable": true,
            "sourceTxnHash": "0x0585ace75a184ef806f3d5058cf214256a3394d38a6b3b598eee50af66fe6adb",
            "status": true,
            "timestamp": "2019-02-01T23:18:36Z",
            "transactionFee": "0",
            "txnHash": "0x0585ace75a184ef806f3d5058cf214256a3394d38a6b3b598eee50af66fe6adb",
            "txnIndex": 22,
            "type": 0,
            "value": "0"
        },
        "fund_flow": [
            {
                "amount": "1,683",
                "from": "0xaba5b9230896b6ae684e43f75c88c23541c6bee7",
                "id": 1,
                "isERC1155": false,
                "isERC721": false,
                "isReverted": false,
                "order": 1,
                "to": "0xffecffe94c3e87987454f2392676ccdb98b926f8",
                "token": "0xba7435a4b4c747e0101780073eeda872a69bdcd4"
            }
        ],
        "token_infos": [
            {
                "address": "0xeeeeeeeeeeeeeeeeeeeeeeeeeeeeeeeeeeeeeeee",
                "decimals": 18
            },
            {
                "address": "0xba7435a4b4c747e0101780073eeda872a69bdcd4",
                "decimals": 18
            },
            {
                "address": "0xc02aaa39b223fe8d0a0e5c4f27ead9083c756cc2",
                "decimals": 18
            }
        ]
    },
    "address_label": {
        "labels": [
            {
                "address": "0xeeeeeeeeeeeeeeeeeeeeeeeeeeeeeeeeeeeeeeee",
                "label": "Ether"
            },
            {
                "address": "0xba7435a4b4c747e0101780073eeda872a69bdcd4",
                "label": "Fake_Phishing391767"
            },
            {
                "address": "0x0000000000000000000000000000000000000001",
                "label": "Precompiled"
            },
            {
                "address": "0x0000000000000000000000000000000000000002",
                "label": "Precompiled"
            },
            {
                "address": "0x0000000000000000000000000000000000000003",
                "label": "Precompiled"
            },
            {
                "address": "0x0000000000000000000000000000000000000004",
                "label": "Precompiled"
            }
        ]
    },
    "trace": {
        "accountLabels": null,
        "dataMap": {
            "-1": {
                "invocation": {
                    "address": "0xaba5b9230896b6ae684e43f75c88c23541c6bee7",
                    "callData": "",
                    "decodedMethod": null,
                    "errorInfo": "",
                    "fromAddress": "",
                    "gasUsed": 0,
                    "id": -1,
                    "methodDecoded": false,
                    "operation": "",
                    "output": "",
                    "revert": false,
                    "revertMessage": "",
                    "selector": "",
                    "status": false,
                    "value": ""
                },
                "nodeType": 0
            },
            "0": {
                "invocation": {
                    "address": "0xba7435a4b4c747e0101780073eeda872a69bdcd4",
                    "callData": "0x000000000000000000000000ffecffe94c3e87987454f2392676ccdb98b926f800000000000000000000000000000000000000000000005b3c511f15766c0000",
                    "decodedMethod": {
                        "callParams": [
                            {
                                "name": "recipient",
                                "type": "address",
                                "value": "0xffecffe94c3e87987454f2392676ccdb98b926f8"
                            },
                            {
                                "decimalAvailable": true,
                                "name": "amount",
                                "type": "uint256",
                                "value": "1,683,000,000,000,000,000,000"
                            }
                        ],
                        "constructorArguments": "",
                        "name": "transfer",
                        "returnParams": [
                            {
                                "name": "",
                                "type": "bool",
                                "value": true
                            }
                        ],
                        "signature": "transfer(address,uint256)"
                    },
                    "errorInfo": "",
                    "fromAddress": "0xaba5b9230896b6ae684e43f75c88c23541c6bee7",
                    "gasUsed": 114035,
                    "id": 0,
                    "methodDecoded": true,
                    "operation": "CALL",
                    "output": "0x0000000000000000000000000000000000000000000000000000000000000001",
                    "revert": false,
                    "revertMessage": "",
                    "selector": "0xa9059cbb",
                    "status": true,
                    "value": "0"
                },
                "nodeType": 0
            },
            "1": {
                "event": {
                    "contract": "0xba7435a4b4c747e0101780073eeda872a69bdcd4",
                    "decodedLog": {
                        "name": "Transfer",
                        "params": [
                            {
                                "name": "from",
                                "type": "address",
                                "value": "0xaba5b9230896b6ae684e43f75c88c23541c6bee7"
                            },
                            {
                                "name": "to",
                                "type": "address",
                                "value": "0xffecffe94c3e87987454f2392676ccdb98b926f8"
                            },
                            {
                                "decimalAvailable": true,
                                "name": "value",
                                "type": "uint256",
                                "value": "1,683,000,000,000,000,000,000"
                            }
                        ],
                        "signature": "Transfer(address,address,uint256)"
                    },
                    "id": 1,
                    "logData": "0x00000000000000000000000000000000000000000000005b3c511f15766c0000",
                    "logDecoded": true,
                    "operation": "EVENT",
                    "revert": false,
                    "status": true,
                    "topics": [
                        "0xddf252ad1be2c89b69c2b068fc378daa952ba7f163c4a11628f55a4df523b3ef",
                        "0x000000000000000000000000aba5b9230896b6ae684e43f75c88c23541c6bee7",
                        "0x000000000000000000000000ffecffe94c3e87987454f2392676ccdb98b926f8"
                    ]
                },
                "nodeType": 1
            }
        },
        "gasFlame": [
            {
                "children": [
                    {
                        "children": [
                            {
                                "children": [],
                                "depth": 0,
                                "name": "Initial Gas",
                                "value": 23256
                            },
                            {
                                "children": [],
                                "depth": 0,
                                "name": "Executed Gas",
                                "value": 90779
                            }
                        ],
                        "depth": -1,
                        "name": "Actual Gas Used",
                        "value": 114035
                    },
                    {
                        "children": [],
                        "depth": -1,
                        "name": "Refunded Gas",
                        "value": 0
                    }
                ],
                "depth": -2,
                "name": "Total Gas",
                "value": 114035
            }
        ],
        "isConfirmed": true,
        "mainTrace": [
            {
                "children": [
                    {
                        "children": [
                            {
                                "children": [],
                                "depth": 1,
                                "id": 1,
                                "order": 1
                            }
                        ],
                        "depth": 0,
                        "id": 0,
                        "order": 0
                    }
                ],
                "depth": -1,
                "id": -1,
                "order": -1
            }
        ],
        "mainTraceNodeCount": 2,
        "parentIdMap": {
            "0": -1,
            "1": 0
        },
        "tidyTrace": [
            {
                "children": [
                    {
                        "children": [
                            {
                                "children": [],
                                "depth": 1,
                                "id": 1,
                                "order": 1
                            }
                        ],
                        "depth": 0,
                        "id": 0,
                        "order": 0
                    }
                ],
                "depth": -1,
                "id": -1,
                "order": -1
            }
        ],
        "tidyTraceNodeCount": 2
    },
    "state_change": {
        "stateChanges": [
            {
                "address": "0xba7435a4b4c747e0101780073eeda872a69bdcd4",
                "erc": "",
                "slots": [
                    {
                        "current": "0x0000000000000000000000000000000000000000000000541549dc9a0a354681",
                        "key": "0xabc215e729779f0ef43c9027db5fad06472b085a3f9339a0de4cd3a9854d747c",
                        "prev": "0x0000000000000000000000000000000000000000000000000000000000000000"
                    },
                    {
                        "current": "0x000000000000000000000000000000000000000000000057a8cc81e494715a93",
                        "key": "0x0000000000000000000000000000000000000000000000000000000000000005",
                        "prev": "0x000000000000000000000000000000000000000000000057a8ce79caec2febee"
                    },
                    {
                        "current": "0x0000000000000000000000000000000000000000ec09235e164cd142f8b0b2d2",
                        "key": "0x0000000000000000000000000000000000000000000000000000000000000004",
                        "prev": "0x0000000000000000000000000000000000000000ec09216981f9bad6980dfdac"
                    },
                    {
                        "current": "0x0000000000000000000000000000000000000000000000000000000000000001",
                        "key": "0xa04479fd1d16c2c9c827e74d037b717b578aac9d2ba4e1caa043a71df1739179",
                        "prev": "0x0000000000000000000000000000000000000000000000000000000000000000"
                    },
                    {
                        "current": "0x000000000000000000000000000000000000000000db81a17caa8e6b6939c0eb",
                        "key": "0x7749c878c30975a1f588ea55338c5e336f338e2376a1c84dd8c8a82e534a9eb6",
                        "prev": "0x000000000000000000000000000000000000000000db8000fd9f5cb2bb0dc0eb"
                    }
                ],
                "storageVariables": []
            }
        ]
    }
}