{
    "balance_change": {
        "balanceChanges": []
    },
    "profile": {
        "basic_info": {
            "baseFee": "10.965885272",
            "blockNumber": 15896465,
            "callData": "0xa7f5c104000000000000000000000000180555d4d45e67520adc7c0c51b512c7a50877f2000000000000000000000000000000000000000000000000000000000000008000000000000000000000000000000000000000000000000000000000000002600000000000000000000000000000000000000000000000000000000000000620000000000000000000000000720207f72c487cf50f33a8d170e4d31f70998f97000000000000000000000000eeeeeeeeeeeeeeeeeeeeeeeeeeeeeeeeeeeeeeee0000000000000000000000000000000000000000000000000000000000000120000000000000000000000000000000000000000000000000000000000000014000000000000000000000000051db67236a209b0070e4b2585a0f2e017488ee1a000000000000000000000000000000000000000000002aa45119a65a439333ae00000000000000000000000000000000000000000000000001adfc0c6a7972970000000000000000000000000000000000000000000000000000000000000020000000000000000000000000000000000000000000000000000000000000016000000000000000000000000000000000000000000000000000000000000000000000000000000000000000000000000000000000000000000000000000000000000000000000000000000000000000000000000000000000000000000000006000000000000000000000000096c195f6643a3d797cb90cb6ba0ae2776d51b5f30000000000000000000000000000000000000000000000000000000000000001000000000000000000000000000000000000000000000000000000000000001e00000000000000000000000000000000000000000000000000000000000003a0000000000000000000000000000000000000000000000000000000000000002000000000000000000000000000000000000000000000000000000000000000a000000000000000000000000000000000000000000000000000000000000000e000000000000000000000000000000000000000000000000000000000000001200000000000000000000000000000000000000000000000000000000063650110000000000000000000000000000000000000000000000000000000000000030000000000000000000000000000000000000000000000000000000000000000010000000000000000000000008198f65f8c75beaa7030f194bdf7850f72082afa0000000000000000000000000000000000000000000000000000000000000001000000000000000000000000000000000000000000002aa45119a65a439333ae0000000000000000000000000000000000000000000000000000000000000001000000000000000000000000000000000000000000000000000000000000002000000000000000000000000000000000000000000000000000000000000001800000000000000000000000000000000000000000000000000000000000000020000000000000000000000000000000000000000000000000000000000000000100000000000000000000000000000000000000000000000000000000000000200000000000000000000000000000000000000000000000000000000000000040000000000000000000000000000000000000000000000000000000000000000100000000000000000000000000000000000000000000000000000000000000c00000000000000000000000008198f65f8c75beaa7030f194bdf7850f72082afa000000000000000000000000720207f72c487cf50f33a8d170e4d31f70998f97000000000000000000000000c02aaa39b223fe8d0a0e5c4f27ead9083c756cc2000000000000000000000000180555d4d45e67520adc7c0c51b512c7a50877f200000000000000000000000000000000000000000000000000000000000000000000000000000000000000000000000000000000000000000000000000000000000000000000000000000000000000000000000000000000000000000000006000000000000000000000000096c195f6643a3d797cb90cb6ba0ae2776d51b5f30000000000000000000000000000000000000000000000000000000000000001000000000000000000000000000000000000000000000000000000000000001e000000000000000000000000000000000000000000000000000000000000014c7b22536f75726365223a22646578746f6f6c73222c22416d6f756e74496e555344223a223230332e3631333237353436313630383438222c22416d6f756e744f7574555344223a223230302e35313330393236393838393135222c22526566657272616c223a22222c22466c616773223a322c22496e74656772697479496e666f223a7b224b65794944223a2231222c225369676e6174757265223a22617234786c564e2b566a397251586c6b76694c5a6e3944333048596b6f32645067456f4d547442692f6d556c7632544b735848736c362b5575776e2b6e2f3254592f4964575174416574757252347069485a39683056794a6c6e42586b544c6c71713141473245626555454a636c5047552f77536b4437444b3361686a2f65586631736b364f735535644a38524e525263586d4b46744230623730757562484d6532417a696a64327a426b3d227d7d0000000000000000000000000000000000000000",
            "debugEnable": true,
            "errorInfo": "execution reverted",
            "eventCount": 7,
            "feeRecipient": "0xdafea492d9c6733ae3d56b7ed1adb60692c98bc5",
            "formatValue": "0",
            "gasLimit": 684180,
            "gasPrice": "11",
            "gasUsed": 613013,
            "intTxnCount": 24,
            "internalRevert": true,
            "internalRevertMessage": "",
            "isContractCreation": false,
            "isFlashloan": false,
            "maxFee": "11",
            "nonce": 95,
            "overwritedBlockNumber": -1,
            "priorityFee": "11",
            "receiver": "0x617dee16b86534a5d792a4d7a62fb491b544111e",
            "revertMessage": "Return amount is not enough",
            "sender": "0x51db67236a209b0070e4b2585a0f2e017488ee1a",
            "simulationEnable": true,
            "sourceTxnHash": "0x0588d908251aef25775177c016c30a343ace09c79e9dfc5da43a99b2bf3fca77",
            "status": false,
            "timestamp": "2022-11-04T11:50:59Z",
            "transactionFee": "0.006743143",
            "txnHash": "0x0588d908251aef25775177c016c30a343ace09c79e9dfc5da43a99b2bf3fca77",
            "txnIndex": 152,
            "type": 2,
            "value": "0"
        },
        "fund_flow": [],
        "token_infos": [
            {
                "address": "0xeeeeeeeeeeeeeeeeeeeeeeeeeeeeeeeeeeeeeeee",
                "decimals": 18
            },
            {
                "address": "0x720207f72c487cf50f33a8d170e4d31f70998f97",
                "decimals": 18
            },
            {
                "address": "0xc02aaa39b223fe8d0a0e5c4f27ead9083c756cc2",
                "decimals": 18
            }
        ]
    },
    "address_label": {
        "labels": [
            {
                "address": "0x8198f65f8c75beaa7030f194bdf7850f72082afa",
                "label": "Uniswap V2: AVATAR-WETH"
            },
            {
                "address": "0xa9249f4d7e84b206d010bc90211a11fda57785b4",
                "label": "FireBirdFormula"
            },
            {
                "address": "0x617dee16b86534a5d792a4d7a62fb491b544111e",
                "label": "KyberSwap: Meta Aggregation Router"
            },
            {
                "address": "0x720207f72c487cf50f33a8d170e4d31f70998f97",
                "label": "Avatar 2.0 (AVATAR)"
            },
            {
                "address": "0x0000000000000000000000000000000000000002",
                "label": "Precompiled"
            },
            {
                "address": "0x0000000000000000000000000000000000000004",
                "label": "Precompiled"
            },
            {
                "address": "0xeeeeeeeeeeeeeeeeeeeeeeeeeeeeeeeeeeeeeeee",
                "label": "Ether"
            },
            {
                "address": "0xc02aaa39b223fe8d0a0e5c4f27ead9083c756cc2",
                "label": "Wrapped Ether (WETH)"
            },
            {
                "address": "0x0000000000000000000000000000000000000001",
                "label": "Precompiled"
            },
            {
                "address": "0x0000000000000000000000000000000000000003",
                "label": "Precompiled"
            }
        ]
    },
    "trace": {
        "accountLabels": null,
        "dataMap": {
            "-1": {
                "invocation": {
                    "address": "0x51db67236a209b0070e4b2585a0f2e017488ee1a",
                    "callData": "",
                    "decodedMethod": null,
                    "errorInfo": "",
                    "fromAddress": "",
                    "gasUsed": 0,
                    "id": -1,
                    "methodDecoded": false,
                    "operation": "",
                    "output": "",
                    "revert": false,
                    "revertMessage": "",
                    "selector": "",
                    "status": false,
                    "value": ""
                },
                "nodeType": 0
            },
            "0": {
                "invocation": {
                    "address": "0x617dee16b86534a5d792a4d7a62fb491b544111e",
                    "callData": "0x000000000000000000000000180555d4d45e67520adc7c0c51b512c7a50877f2000000000000000000000000000000000000000000000000000000000000008000000000000000000000000000000000000000000000000000000000000002600000000000000000000000000000000000000000000000000000000000000620000000000000000000000000720207f72c487cf50f33a8d170e4d31f70998f97000000000000000000000000eeeeeeeeeeeeeeeeeeeeeeeeeeeeeeeeeeeeeeee0000000000000000000000000000000000000000000000000000000000000120000000000000000000000000000000000000000000000000000000000000014000000000000000000000000051db67236a209b0070e4b2585a0f2e017488ee1a000000000000000000000000000000000000000000002aa45119a65a439333ae00000000000000000000000000000000000000000000000001adfc0c6a7972970000000000000000000000000000000000000000000000000000000000000020000000000000000000000000000000000000000000000000000000000000016000000000000000000000000000000000000000000000000000000000000000000000000000000000000000000000000000000000000000000000000000000000000000000000000000000000000000000000000000000000000000000000006000000000000000000000000096c195f6643a3d797cb90cb6ba0ae2776d51b5f30000000000000000000000000000000000000000000000000000000000000001000000000000000000000000000000000000000000000000000000000000001e00000000000000000000000000000000000000000000000000000000000003a0000000000000000000000000000000000000000000000000000000000000002000000000000000000000000000000000000000000000000000000000000000a000000000000000000000000000000000000000000000000000000000000000e000000000000000000000000000000000000000000000000000000000000001200000000000000000000000000000000000000000000000000000000063650110000000000000000000000000000000000000000000000000000000000000030000000000000000000000000000000000000000000000000000000000000000010000000000000000000000008198f65f8c75beaa7030f194bdf7850f72082afa0000000000000000000000000000000000000000000000000000000000000001000000000000000000000000000000000000000000002aa45119a65a439333ae0000000000000000000000000000000000000000000000000000000000000001000000000000000000000000000000000000000000000000000000000000002000000000000000000000000000000000000000000000000000000000000001800000000000000000000000000000000000000000000000000000000000000020000000000000000000000000000000000000000000000000000000000000000100000000000000000000000000000000000000000000000000000000000000200000000000000000000000000000000000000000000000000000000000000040000000000000000000000000000000000000000000000000000000000000000100000000000000000000000000000000000000000000000000000000000000c00000000000000000000000008198f65f8c75beaa7030f194bdf7850f72082afa000000000000000000000000720207f72c487cf50f33a8d170e4d31f70998f97000000000000000000000000c02aaa39b223fe8d0a0e5c4f27ead9083c756cc2000000000000000000000000180555d4d45e67520adc7c0c51b512c7a50877f200000000000000000000000000000000000000000000000000000000000000000000000000000000000000000000000000000000000000000000000000000000000000000000000000000000000000000000000000000000000000000000006000000000000000000000000096c195f6643a3d797cb90cb6ba0ae2776d51b5f30000000000000000000000000000000000000000000000000000000000000001000000000000000000000000000000000000000000000000000000000000001e000000000000000000000000000000000000000000000000000000000000014c7b22536f75726365223a22646578746f6f6c73222c22416d6f756e74496e555344223a223230332e3631333237353436313630383438222c22416d6f756e744f7574555344223a223230302e35313330393236393838393135222c22526566657272616c223a22222c22466c616773223a322c22496e74656772697479496e666f223a7b224b65794944223a2231222c225369676e6174757265223a22617234786c564e2b566a397251586c6b76694c5a6e3944333048596b6f32645067456f4d547442692f6d556c7632544b735848736c362b5575776e2b6e2f3254592f4964575174416574757252347069485a39683056794a6c6e42586b544c6c71713141473245626555454a636c5047552f77536b4437444b3361686a2f65586631736b364f735535644a38524e525263586d4b46744230623730757562484d6532417a696a64327a426b3d227d7d0000000000000000000000000000000000000000",
                    "decodedMethod": {
                        "callParams": [
                            {
                                "name": "caller",
                                "type": "address",
                                "value": "0x180555d4d45e67520adc7c0c51b512c7a50877f2"
                            },
                            {
                                "name": "desc",
                                "type": "(address,address,address[],uint256[],address,uint256,uint256,uint256,bytes)",
                                "value": [
                                    {
                                        "name": "srcToken",
                                        "type": "address",
                                        "value": "0x720207f72c487cf50f33a8d170e4d31f70998f97"
                                    },
                                    {
                                        "name": "dstToken",
                                        "type": "address",
                                        "value": "0xeeeeeeeeeeeeeeeeeeeeeeeeeeeeeeeeeeeeeeee"
                                    },
                                    {
                                        "name": "srcReceivers",
                                        "type": "address[]",
                                        "value": []
                                    },
                                    {
                                        "name": "srcAmounts",
                                        "type": "uint256[]",
                                        "value": []
                                    },
                                    {
                                        "name": "dstReceiver",
                                        "type": "address",
                                        "value": "0x51db67236a209b0070e4b2585a0f2e017488ee1a"
                                    },
                                    {
                                        "name": "amount",
                                        "type": "uint256",
                                        "value": "201,370,502,193,511,566,357,422"
                                    },
                                    {
                                        "name": "minReturnAmount",
                                        "type": "uint256",
                                        "value": "121,029,895,265,022,615"
                                    },
                                    {
                                        "name": "flags",
                                        "type": "uint256",
                                        "value": "32"
                                    },
                                    {
                                        "name": "permit",
                                        "type": "bytes",
                                        "value": "0x00000000000000000000000096c195f6643a3d797cb90cb6ba0ae2776d51b5f30000000000000000000000000000000000000000000000000000000000000001000000000000000000000000000000000000000000000000000000000000001e"
                                    }
                                ]
                            },
                            {
                                "name": "executorData",
                                "type": "bytes",
                                "value": "0x000000000000000000000000000000000000000000000000000000000000002000000000000000000000000000000000000000000000000000000000000000a000000000000000000000000000000000000000000000000000000000000000e000000000000000000000000000000000000000000000000000000000000001200000000000000000000000000000000000000000000000000000000063650110000000000000000000000000000000000000000000000000000000000000030000000000000000000000000000000000000000000000000000000000000000010000000000000000000000008198f65f8c75beaa7030f194bdf7850f72082afa0000000000000000000000000000000000000000000000000000000000000001000000000000000000000000000000000000000000002aa45119a65a439333ae0000000000000000000000000000000000000000000000000000000000000001000000000000000000000000000000000000000000000000000000000000002000000000000000000000000000000000000000000000000000000000000001800000000000000000000000000000000000000000000000000000000000000020000000000000000000000000000000000000000000000000000000000000000100000000000000000000000000000000000000000000000000000000000000200000000000000000000000000000000000000000000000000000000000000040000000000000000000000000000000000000000000000000000000000000000100000000000000000000000000000000000000000000000000000000000000c00000000000000000000000008198f65f8c75beaa7030f194bdf7850f72082afa000000000000000000000000720207f72c487cf50f33a8d170e4d31f70998f97000000000000000000000000c02aaa39b223fe8d0a0e5c4f27ead9083c756cc2000000000000000000000000180555d4d45e67520adc7c0c51b512c7a50877f200000000000000000000000000000000000000000000000000000000000000000000000000000000000000000000000000000000000000000000000000000000000000000000000000000000000000000000000000000000000000000000006000000000000000000000000096c195f6643a3d797cb90cb6ba0ae2776d51b5f30000000000000000000000000000000000000000000000000000000000000001000000000000000000000000000000000000000000000000000000000000001e"
                            },
                            {
                                "name": "clientData",
                                "type": "bytes",
                                "value": "0x7b22536f75726365223a22646578746f6f6c73222c22416d6f756e74496e555344223a223230332e3631333237353436313630383438222c22416d6f756e744f7574555344223a223230302e35313330393236393838393135222c22526566657272616c223a22222c22466c616773223a322c22496e74656772697479496e666f223a7b224b65794944223a2231222c225369676e6174757265223a22617234786c564e2b566a397251586c6b76694c5a6e3944333048596b6f32645067456f4d547442692f6d556c7632544b735848736c362b5575776e2b6e2f3254592f4964575174416574757252347069485a39683056794a6c6e42586b544c6c71713141473245626555454a636c5047552f77536b4437444b3361686a2f65586631736b364f735535644a38524e525263586d4b46744230623730757562484d6532417a696a64327a426b3d227d7d"
                            }
                        ],
                        "constructorArguments": "",
                        "name": "swapSimpleMode",
                        "returnParams": [],
                        "signature": "swapSimpleMode(address,(address,address,address[],uint256[],address,uint256,uint256,uint256,bytes),bytes,bytes)"
                    },
                    "errorInfo": "execution reverted",
                    "fromAddress": "0x51db67236a209b0070e4b2585a0f2e017488ee1a",
                    "gasUsed": 613013,
                    "id": 0,
                    "methodDecoded": true,
                    "operation": "CALL",
                    "output": "0x08c379a00000000000000000000000000000000000000000000000000000000000000020000000000000000000000000000000000000000000000000000000000000001b52657475726e20616d6f756e74206973206e6f7420656e6f7567680000000000",
                    "revert": true,
                    "revertMessage": "Return amount is not enough",
                    "selector": "0xa7f5c104",
                    "status": false,
                    "value": "0"
                },
                "nodeType": 0
            },
            "1": {
                "invocation": {
                    "address": "0x720207f72c487cf50f33a8d170e4d31f70998f97",
                    "callData": "0x00000000000000000000000051db67236a209b0070e4b2585a0f2e017488ee1a0000000000000000000000008198f65f8c75beaa7030f194bdf7850f72082afa000000000000000000000000000000000000000000002aa45119a65a439333ae",
                    "decodedMethod": {
                        "callParams": [
                            {
                                "name": "sender",
                                "type": "address",
                                "value": "0x51db67236a209b0070e4b2585a0f2e017488ee1a"
                            },
                            {
                                "name": "recipient",
                                "type": "address",
                                "value": "0x8198f65f8c75beaa7030f194bdf7850f72082afa"
                            },
                            {
                                "decimalAvailable": true,
                                "name": "amount",
                                "type": "uint256",
                                "value": "201,370,502,193,511,566,357,422"
                            }
                        ],
                        "constructorArguments": "",
                        "name": "transferFrom",
                        "returnParams": [
                            {
                                "name": "",
                                "type": "bool",
                                "value": true
                            }
                        ],
                        "signature": "transferFrom(address,address,uint256)"
                    },
                    "errorInfo": "",
                    "fromAddress": "0x617dee16b86534a5d792a4d7a62fb491b544111e",
                    "gasUsed": 433288,
                    "id": 1,
                    "methodDecoded": true,
                    "operation": "CALL",
                    "output": "0x0000000000000000000000000000000000000000000000000000000000000001",
                    "revert": true,
                    "revertMessage": "",
                    "selector": "0x23b872dd",
                    "status": true,
                    "value": "0"
                },
                "nodeType": 0
            },
            "10": {
                "invocation": {
                    "address": "0x8198f65f8c75beaa7030f194bdf7850f72082afa",
                    "callData": "0x",
                    "decodedMethod": {
                        "callParams": [],
                        "constructorArguments": "",
                        "name": "token1",
                        "returnParams": [
                            {
                                "name": "",
                                "type": "address",
                                "value": "0xc02aaa39b223fe8d0a0e5c4f27ead9083c756cc2"
                            }
                        ],
                        "signature": "token1()"
                    },
                    "errorInfo": "",
                    "fromAddress": "0xa9249f4d7e84b206d010bc90211a11fda57785b4",
                    "gasUsed": 2357,
                    "id": 10,
                    "methodDecoded": true,
                    "operation": "STATICCALL",
                    "output": "0x000000000000000000000000c02aaa39b223fe8d0a0e5c4f27ead9083c756cc2",
                    "revert": true,
                    "revertMessage": "",
                    "selector": "0xd21220a7",
                    "status": true,
                    "value": "0"
                },
                "nodeType": 0
            },
            "11": {
                "invocation": {
                    "address": "0x720207f72c487cf50f33a8d170e4d31f70998f97",
                    "callData": "0x0000000000000000000000008198f65f8c75beaa7030f194bdf7850f72082afa",
                    "decodedMethod": {
                        "callParams": [
                            {
                                "name": "account",
                                "type": "address",
                                "value": "0x8198f65f8c75beaa7030f194bdf7850f72082afa"
                            }
                        ],
                        "constructorArguments": "",
                        "name": "balanceOf",
                        "returnParams": [
                            {
                                "decimalAvailable": true,
                                "name": "",
                                "type": "uint256",
                                "value": "21,759,413,314,403,432,816,446,377"
                            }
                        ],
                        "signature": "balanceOf(address)"
                    },
                    "errorInfo": "",
                    "fromAddress": "0x180555d4d45e67520adc7c0c51b512c7a50877f2",
                    "gasUsed": 630,
                    "id": 11,
                    "methodDecoded": true,
                    "operation": "STATICCALL",
                    "output": "0x00000000000000000000000000000000000000000011ffbc28ccc13beee40ba9",
                    "revert": true,
                    "revertMessage": "",
                    "selector": "0x70a08231",
                    "status": true,
                    "value": "0"
                },
                "nodeType": 0
            },
            "12": {
                "invocation": {
                    "address": "0xa9249f4d7e84b206d010bc90211a11fda57785b4",
                    "callData": "0x0000000000000000000000000000000000000000000028efaa0424d1888d505600000000000000000000000000000000000000000011d6cc7ec89c6a6656bb53000000000000000000000000000000000000000000000000bcb972d3875f6ef100000000000000000000000000000000000000000000000000000000000000320000000000000000000000000000000000000000000000000000000000000032000000000000000000000000000000000000000000000000000000000000001e",
                    "decodedMethod": {
                        "callParams": [
                            {
                                "name": "amountIn",
                                "type": "uint256",
                                "value": "193,315,682,105,771,103,703,126"
                            },
                            {
                                "name": "reserveIn",
                                "type": "uint256",
                                "value": "21,566,097,632,297,661,712,743,251"
                            },
                            {
                                "name": "reserveOut",
                                "type": "uint256",
                                "value": "13,599,026,802,656,767,729"
                            },
                            {
                                "name": "tokenWeightIn",
                                "type": "uint32",
                                "value": "50"
                            },
                            {
                                "name": "tokenWeightOut",
                                "type": "uint32",
                                "value": "50"
                            },
                            {
                                "name": "swapFee",
                                "type": "uint32",
                                "value": "30"
                            }
                        ],
                        "constructorArguments": "",
                        "name": "getAmountOut",
                        "returnParams": [
                            {
                                "name": "amountOut",
                                "type": "uint256",
                                "value": "120,457,672,645,048,684"
                            }
                        ],
                        "signature": "getAmountOut(uint256,uint256,uint256,uint32,uint32,uint32)"
                    },
                    "errorInfo": "",
                    "fromAddress": "0x180555d4d45e67520adc7c0c51b512c7a50877f2",
                    "gasUsed": 1070,
                    "id": 12,
                    "methodDecoded": true,
                    "operation": "STATICCALL",
                    "output": "0x00000000000000000000000000000000000000000000000001abf39d747a796c",
                    "revert": true,
                    "revertMessage": "",
                    "selector": "0x671a11b5",
                    "status": true,
                    "value": "0"
                },
                "nodeType": 0
            },
            "13": {
                "invocation": {
                    "address": "0xc02aaa39b223fe8d0a0e5c4f27ead9083c756cc2",
                    "callData": "0x000000000000000000000000180555d4d45e67520adc7c0c51b512c7a50877f2",
                    "decodedMethod": {
                        "callParams": [
                            {
                                "name": "",
                                "type": "address",
                                "value": "0x180555d4d45e67520adc7c0c51b512c7a50877f2"
                            }
                        ],
                        "constructorArguments": "",
                        "name": "balanceOf",
                        "returnParams": [
                            {
                                "decimalAvailable": true,
                                "name": "",
                                "type": "uint256",
                                "value": "0"
                            }
                        ],
                        "signature": "balanceOf(address)"
                    },
                    "errorInfo": "",
                    "fromAddress": "0x180555d4d45e67520adc7c0c51b512c7a50877f2",
                    "gasUsed": 2534,
                    "id": 13,
                    "methodDecoded": true,
                    "operation": "STATICCALL",
                    "output": "0x0000000000000000000000000000000000000000000000000000000000000000",
                    "revert": true,
                    "revertMessage": "",
                    "selector": "0x70a08231",
                    "status": true,
                    "value": "0"
                },
                "nodeType": 0
            },
            "14": {
                "invocation": {
                    "address": "0x8198f65f8c75beaa7030f194bdf7850f72082afa",
                    "callData": "0x",
                    "decodedMethod": {
                        "callParams": [],
                        "constructorArguments": "",
                        "name": "token0",
                        "returnParams": [
                            {
                                "name": "",
                                "type": "address",
                                "value": "0x720207f72c487cf50f33a8d170e4d31f70998f97"
                            }
                        ],
                        "signature": "token0()"
                    },
                    "errorInfo": "",
                    "fromAddress": "0x180555d4d45e67520adc7c0c51b512c7a50877f2",
                    "gasUsed": 381,
                    "id": 14,
                    "methodDecoded": true,
                    "operation": "STATICCALL",
                    "output": "0x000000000000000000000000720207f72c487cf50f33a8d170e4d31f70998f97",
                    "revert": true,
                    "revertMessage": "",
                    "selector": "0x0dfe1681",
                    "status": true,
                    "value": "0"
                },
                "nodeType": 0
            },
            "15": {
                "invocation": {
                    "address": "0x8198f65f8c75beaa7030f194bdf7850f72082afa",
                    "callData": "0x000000000000000000000000000000000000000000000000000000000000000000000000000000000000000000000000000000000000000001abf39d747a796c000000000000000000000000180555d4d45e67520adc7c0c51b512c7a50877f200000000000000000000000000000000000000000000000000000000000000800000000000000000000000000000000000000000000000000000000000000000",
                    "decodedMethod": {
                        "callParams": [
                            {
                                "name": "amount0Out",
                                "type": "uint256",
                                "value": "0"
                            },
                            {
                                "name": "amount1Out",
                                "type": "uint256",
                                "value": "120,457,672,645,048,684"
                            },
                            {
                                "name": "to",
                                "type": "address",
                                "value": "0x180555d4d45e67520adc7c0c51b512c7a50877f2"
                            },
                            {
                                "name": "data",
                                "type": "bytes",
                                "value": "0x"
                            }
                        ],
                        "constructorArguments": "",
                        "name": "swap",
                        "returnParams": [],
                        "signature": "swap(uint256,uint256,address,bytes)"
                    },
                    "errorInfo": "",
                    "fromAddress": "0x180555d4d45e67520adc7c0c51b512c7a50877f2",
                    "gasUsed": 56449,
                    "id": 15,
                    "methodDecoded": true,
                    "operation": "CALL",
                    "output": "",
                    "revert": true,
                    "revertMessage": "",
                    "selector": "0x022c0d9f",
                    "status": true,
                    "value": "0"
                },
                "nodeType": 0
            },
            "16": {
                "invocation": {
                    "address": "0xc02aaa39b223fe8d0a0e5c4f27ead9083c756cc2",
                    "callData": "0x000000000000000000000000180555d4d45e67520adc7c0c51b512c7a50877f200000000000000000000000000000000000000000000000001abf39d747a796c",
                    "decodedMethod": {
                        "callParams": [
                            {
                                "name": "dst",
                                "type": "address",
                                "value": "0x180555d4d45e67520adc7c0c51b512c7a50877f2"
                            },
                            {
                                "decimalAvailable": true,
                                "name": "wad",
                                "type": "uint256",
                                "value": "120,457,672,645,048,684"
                            }
                        ],
                        "constructorArguments": "",
                        "name": "transfer",
                        "returnParams": [
                            {
                                "name": "",
                                "type": "bool",
                                "value": true
                            }
                        ],
                        "signature": "transfer(address,uint256)"
                    },
                    "errorInfo": "",
                    "fromAddress": "0x8198f65f8c75beaa7030f194bdf7850f72082afa",
                    "gasUsed": 27962,
                    "id": 16,
                    "methodDecoded": true,
                    "operation": "CALL",
                    "output": "0x0000000000000000000000000000000000000000000000000000000000000001",
                    "revert": true,
                    "revertMessage": "",
                    "selector": "0xa9059cbb",
                    "status": true,
                    "value": "0"
                },
                "nodeType": 0
            },
            "17": {
                "event": {
                    "contract": "0xc02aaa39b223fe8d0a0e5c4f27ead9083c756cc2",
                    "decodedLog": {
                        "name": "Transfer",
                        "params": [
                            {
                                "name": "src",
                                "type": "address",
                                "value": "0x8198f65f8c75beaa7030f194bdf7850f72082afa"
                            },
                            {
                                "name": "dst",
                                "type": "address",
                                "value": "0x180555d4d45e67520adc7c0c51b512c7a50877f2"
                            },
                            {
                                "decimalAvailable": true,
                                "name": "wad",
                                "type": "uint256",
                                "value": "120,457,672,645,048,684"
                            }
                        ],
                        "signature": "Transfer(address,address,uint256)"
                    },
                    "id": 17,
                    "logData": "0x00000000000000000000000000000000000000000000000001abf39d747a796c",
                    "logDecoded": true,
                    "operation": "EVENT",
                    "revert": true,
                    "status": false,
                    "topics": [
                        "0xddf252ad1be2c89b69c2b068fc378daa952ba7f163c4a11628f55a4df523b3ef",
                        "0x0000000000000000000000008198f65f8c75beaa7030f194bdf7850f72082afa",
                        "0x000000000000000000000000180555d4d45e67520adc7c0c51b512c7a50877f2"
                    ]
                },
                "nodeType": 1
            },
            "18": {
                "invocation": {
                    "address": "0x720207f72c487cf50f33a8d170e4d31f70998f97",
                    "callData": "0x0000000000000000000000008198f65f8c75beaa7030f194bdf7850f72082afa",
                    "decodedMethod": {
                        "callParams": [
                            {
                                "name": "account",
                                "type": "address",
                                "value": "0x8198f65f8c75beaa7030f194bdf7850f72082afa"
                            }
                        ],
                        "constructorArguments": "",
                        "name": "balanceOf",
                        "returnParams": [
                            {
                                "decimalAvailable": true,
                                "name": "",
                                "type": "uint256",
                                "value": "21,759,413,314,403,432,816,446,377"
                            }
                        ],
                        "signature": "balanceOf(address)"
                    },
                    "errorInfo": "",
                    "fromAddress": "0x8198f65f8c75beaa7030f194bdf7850f72082afa",
                    "gasUsed": 630,
                    "id": 18,
                    "methodDecoded": true,
                    "operation": "STATICCALL",
                    "output": "0x00000000000000000000000000000000000000000011ffbc28ccc13beee40ba9",
                    "revert": true,
                    "revertMessage": "",
                    "selector": "0x70a08231",
                    "status": true,
                    "value": "0"
                },
                "nodeType": 0
            },
            "19": {
                "invocation": {
                    "address": "0xc02aaa39b223fe8d0a0e5c4f27ead9083c756cc2",
                    "callData": "0x0000000000000000000000008198f65f8c75beaa7030f194bdf7850f72082afa",
                    "decodedMethod": {
                        "callParams": [
                            {
                                "name": "",
                                "type": "address",
                                "value": "0x8198f65f8c75beaa7030f194bdf7850f72082afa"
                            }
                        ],
                        "constructorArguments": "",
                        "name": "balanceOf",
                        "returnParams": [
                            {
                                "decimalAvailable": true,
                                "name": "",
                                "type": "uint256",
                                "value": "13,478,569,130,011,719,045"
                            }
                        ],
                        "signature": "balanceOf(address)"
                    },
                    "errorInfo": "",
                    "fromAddress": "0x8198f65f8c75beaa7030f194bdf7850f72082afa",
                    "gasUsed": 534,
                    "id": 19,
                    "methodDecoded": true,
                    "operation": "STATICCALL",
                    "output": "0x000000000000000000000000000000000000000000000000bb0d7f3612e4f585",
                    "revert": true,
                    "revertMessage": "",
                    "selector": "0x70a08231",
                    "status": true,
                    "value": "0"
                },
                "nodeType": 0
            },
            "2": {
                "event": {
                    "contract": "0x720207f72c487cf50f33a8d170e4d31f70998f97",
                    "decodedLog": {
                        "name": "Transfer",
                        "params": [
                            {
                                "name": "from",
                                "type": "address",
                                "value": "0x51db67236a209b0070e4b2585a0f2e017488ee1a"
                            },
                            {
                                "name": "to",
                                "type": "address",
                                "value": "0x720207f72c487cf50f33a8d170e4d31f70998f97"
                            },
                            {
                                "decimalAvailable": true,
                                "name": "value",
                                "type": "uint256",
                                "value": "8,054,820,087,740,462,654,296"
                            }
                        ],
                        "signature": "Transfer(address,address,uint256)"
                    },
                    "id": 2,
                    "logData": "0x0000000000000000000000000000000000000000000001b4a7158188bb05e358",
                    "logDecoded": true,
                    "operation": "EVENT",
                    "revert": true,
                    "status": false,
                    "topics": [
                        "0xddf252ad1be2c89b69c2b068fc378daa952ba7f163c4a11628f55a4df523b3ef",
                        "0x00000000000000000000000051db67236a209b0070e4b2585a0f2e017488ee1a",
                        "0x000000000000000000000000720207f72c487cf50f33a8d170e4d31f70998f97"
                    ]
                },
                "nodeType": 1
            },
            "20": {
                "event": {
                    "contract": "0x8198f65f8c75beaa7030f194bdf7850f72082afa",
                    "decodedLog": {
                        "name": "Sync",
                        "params": [
                            {
                                "name": "reserve0",
                                "type": "uint112",
                                "value": "21,759,413,314,403,432,816,446,377"
                            },
                            {
                                "name": "reserve1",
                                "type": "uint112",
                                "value": "13,478,569,130,011,719,045"
                            }
                        ],
                        "signature": "Sync(uint112,uint112)"
                    },
                    "id": 20,
                    "logData": "0x00000000000000000000000000000000000000000011ffbc28ccc13beee40ba9000000000000000000000000000000000000000000000000bb0d7f3612e4f585",
                    "logDecoded": true,
                    "operation": "EVENT",
                    "revert": true,
                    "status": false,
                    "topics": [
                        "0x1c411e9a96e071241c2f21f7726b17ae89e3cab4c78be50e062b03a9fffbbad1"
                    ]
                },
                "nodeType": 1
            },
            "21": {
                "event": {
                    "contract": "0x8198f65f8c75beaa7030f194bdf7850f72082afa",
                    "decodedLog": {
                        "name": "Swap",
                        "params": [
                            {
                                "name": "sender",
                                "type": "address",
                                "value": "0x180555d4d45e67520adc7c0c51b512c7a50877f2"
                            },
                            {
                                "name": "to",
                                "type": "address",
                                "value": "0x180555d4d45e67520adc7c0c51b512c7a50877f2"
                            },
                            {
                                "name": "amount0In",
                                "type": "uint256",
                                "value": "193,315,682,105,771,103,703,126"
                            },
                            {
                                "name": "amount1In",
                                "type": "uint256",
                                "value": "0"
                            },
                            {
                                "name": "amount0Out",
                                "type": "uint256",
                                "value": "0"
                            },
                            {
                                "name": "amount1Out",
                                "type": "uint256",
                                "value": "120,457,672,645,048,684"
                            }
                        ],
                        "signature": "Swap(address,uint256,uint256,uint256,uint256,address)"
                    },
                    "id": 21,
                    "logData": "0x0000000000000000000000000000000000000000000028efaa0424d1888d50560000000000000000000000000000000000000000000000000000000000000000000000000000000000000000000000000000000000000000000000000000000000000000000000000000000000000000000000000000000001abf39d747a796c",
                    "logDecoded": true,
                    "operation": "EVENT",
                    "revert": true,
                    "status": false,
                    "topics": [
                        "0xd78ad95fa46c994b6551d0da85fc275fe613ce37657fb8d5e3d130840159d822",
                        "0x000000000000000000000000180555d4d45e67520adc7c0c51b512c7a50877f2",
                        "0x000000000000000000000000180555d4d45e67520adc7c0c51b512c7a50877f2"
                    ]
                },
                "nodeType": 1
            },
            "22": {
                "event": {
                    "contract": "0x180555d4d45e67520adc7c0c51b512c7a50877f2",
                    "decodedLog": {
                        "name": "Exchange",
                        "params": [
                            {
                                "name": "pair",
                                "type": "address",
                                "value": "0x8198f65f8c75beaa7030f194bdf7850f72082afa"
                            },
                            {
                                "name": "amountOut",
                                "type": "uint256",
                                "value": "120,457,672,645,048,684"
                            },
                            {
                                "name": "output",
                                "type": "address",
                                "value": "0xc02aaa39b223fe8d0a0e5c4f27ead9083c756cc2"
                            }
                        ],
                        "signature": "Exchange(address,uint256,address)"
                    },
                    "id": 22,
                    "logData": "0x0000000000000000000000008198f65f8c75beaa7030f194bdf7850f72082afa00000000000000000000000000000000000000000000000001abf39d747a796c000000000000000000000000c02aaa39b223fe8d0a0e5c4f27ead9083c756cc2",
                    "logDecoded": true,
                    "operation": "EVENT",
                    "revert": true,
                    "status": false,
                    "topics": [
                        "0xddac40937f35385a34f721af292e5a83fc5b840f722bff57c2fc71adba708c48"
                    ]
                },
                "nodeType": 1
            },
            "23": {
                "invocation": {
                    "address": "0xc02aaa39b223fe8d0a0e5c4f27ead9083c756cc2",
                    "callData": "0x000000000000000000000000180555d4d45e67520adc7c0c51b512c7a50877f2",
                    "decodedMethod": {
                        "callParams": [
                            {
                                "name": "",
                                "type": "address",
                                "value": "0x180555d4d45e67520adc7c0c51b512c7a50877f2"
                            }
                        ],
                        "constructorArguments": "",
                        "name": "balanceOf",
                        "returnParams": [
                            {
                                "decimalAvailable": true,
                                "name": "",
                                "type": "uint256",
                                "value": "120,457,672,645,048,684"
                            }
                        ],
                        "signature": "balanceOf(address)"
                    },
                    "errorInfo": "",
                    "fromAddress": "0x180555d4d45e67520adc7c0c51b512c7a50877f2",
                    "gasUsed": 534,
                    "id": 23,
                    "methodDecoded": true,
                    "operation": "STATICCALL",
                    "output": "0x00000000000000000000000000000000000000000000000001abf39d747a796c",
                    "revert": true,
                    "revertMessage": "",
                    "selector": "0x70a08231",
                    "status": true,
                    "value": "0"
                },
                "nodeType": 0
            },
            "24": {
                "invocation": {
                    "address": "0x180555d4d45e67520adc7c0c51b512c7a50877f2",
                    "callData": "0x000000000000000000000000720207f72c487cf50f33a8d170e4d31f70998f97000000000000000000000000eeeeeeeeeeeeeeeeeeeeeeeeeeeeeeeeeeeeeeee00000000000000000000000051db67236a209b0070e4b2585a0f2e017488ee1a0000000000000000000000000000000000000000000000000000000000000080000000000000000000000000000000000000000000000000000000000000006000000000000000000000000096c195f6643a3d797cb90cb6ba0ae2776d51b5f30000000000000000000000000000000000000000000000000000000000000001000000000000000000000000000000000000000000000000000000000000001e",
                    "decodedMethod": null,
                    "errorInfo": "",
                    "fromAddress": "0x617dee16b86534a5d792a4d7a62fb491b544111e",
                    "gasUsed": 32912,
                    "id": 24,
                    "methodDecoded": false,
                    "operation": "CALL",
                    "output": "",
                    "revert": true,
                    "revertMessage": "",
                    "selector": "0x774b6b7e",
                    "status": true,
                    "value": "0"
                },
                "nodeType": 0
            },
            "25": {
                "invocation": {
                    "address": "0xc02aaa39b223fe8d0a0e5c4f27ead9083c756cc2",
                    "callData": "0x000000000000000000000000180555d4d45e67520adc7c0c51b512c7a50877f2",
                    "decodedMethod": {
                        "callParams": [
                            {
                                "name": "",
                                "type": "address",
                                "value": "0x180555d4d45e67520adc7c0c51b512c7a50877f2"
                            }
                        ],
                        "constructorArguments": "",
                        "name": "balanceOf",
                        "returnParams": [
                            {
                                "decimalAvailable": true,
                                "name": "",
                                "type": "uint256",
                                "value": "120,457,672,645,048,684"
                            }
                        ],
                        "signature": "balanceOf(address)"
                    },
                    "errorInfo": "",
                    "fromAddress": "0x180555d4d45e67520adc7c0c51b512c7a50877f2",
                    "gasUsed": 534,
                    "id": 25,
                    "methodDecoded": true,
                    "operation": "STATICCALL",
                    "output": "0x00000000000000000000000000000000000000000000000001abf39d747a796c",
                    "revert": true,
                    "revertMessage": "",
                    "selector": "0x70a08231",
                    "status": true,
                    "value": "0"
                },
                "nodeType": 0
            },
            "26": {
                "invocation": {
                    "address": "0xc02aaa39b223fe8d0a0e5c4f27ead9083c756cc2",
                    "callData": "0x00000000000000000000000000000000000000000000000001abf39d747a796c",
                    "decodedMethod": {
                        "callParams": [
                            {
                                "name": "wad",
                                "type": "uint256",
                                "value": "120,457,672,645,048,684"
                            }
                        ],
                        "constructorArguments": "",
                        "name": "withdraw",
                        "returnParams": [],
                        "signature": "withdraw(uint256)"
                    },
                    "errorInfo": "",
                    "fromAddress": "0x180555d4d45e67520adc7c0c51b512c7a50877f2",
                    "gasUsed": 9195,
                    "id": 26,
                    "methodDecoded": true,
                    "operation": "CALL",
                    "output": "",
                    "revert": true,
                    "revertMessage": "",
                    "selector": "0x2e1a7d4d",
                    "status": true,
                    "value": "0"
                },
                "nodeType": 0
            },
            "27": {
                "invocation": {
                    "address": "0x180555d4d45e67520adc7c0c51b512c7a50877f2",
                    "callData": "0x",
                    "decodedMethod": null,
                    "errorInfo": "",
                    "fromAddress": "0xc02aaa39b223fe8d0a0e5c4f27ead9083c756cc2",
                    "gasUsed": 55,
                    "id": 27,
                    "methodDecoded": false,
                    "operation": "CALL",
                    "output": "",
                    "revert": true,
                    "revertMessage": "",
                    "selector": "fallback",
                    "status": true,
                    "value": "0.120457672645048684"
                },
                "nodeType": 0
            },
            "28": {
                "event": {
                    "contract": "0xc02aaa39b223fe8d0a0e5c4f27ead9083c756cc2",
                    "decodedLog": {
                        "name": "Withdrawal",
                        "params": [
                            {
                                "name": "src",
                                "type": "address",
                                "value": "0x180555d4d45e67520adc7c0c51b512c7a50877f2"
                            },
                            {
                                "name": "wad",
                                "type": "uint256",
                                "value": "120,457,672,645,048,684"
                            }
                        ],
                        "signature": "Withdrawal(address,uint256)"
                    },
                    "id": 28,
                    "logData": "0x00000000000000000000000000000000000000000000000001abf39d747a796c",
                    "logDecoded": true,
                    "operation": "EVENT",
                    "revert": true,
                    "status": false,
                    "topics": [
                        "0x7fcf532c15f0a6db0bd6d0e038bea71d30d808c7d98cb3bf7268a95bf5081b65",
                        "0x000000000000000000000000180555d4d45e67520adc7c0c51b512c7a50877f2"
                    ]
                },
                "nodeType": 1
            },
            "29": {
                "invocation": {
                    "address": "0x96c195f6643a3d797cb90cb6ba0ae2776d51b5f3",
                    "callData": "0x",
                    "decodedMethod": null,
                    "errorInfo": "",
                    "fromAddress": "0x180555d4d45e67520adc7c0c51b512c7a50877f2",
                    "gasUsed": 0,
                    "id": 29,
                    "methodDecoded": false,
                    "operation": "CALL",
                    "output": "",
                    "revert": true,
                    "revertMessage": "",
                    "selector": "fallback",
                    "status": true,
                    "value": "0.000361373017935146"
                },
                "nodeType": 0
            },
            "3": {
                "invocation": {
                    "address": "0x00c8ef3d93cf84ecdc2c1b1eb432c36e665802a8",
                    "callData": "0x00000000000000000000000051db67236a209b0070e4b2585a0f2e017488ee1a0000000000000000000000000000000000000000000000000000000000000000",
                    "decodedMethod": {
                        "callParams": [
                            {
                                "name": "shareholder",
                                "type": "address",
                                "value": "0x51db67236a209b0070e4b2585a0f2e017488ee1a"
                            },
                            {
                                "name": "amount",
                                "type": "uint256",
                                "value": "0"
                            }
                        ],
                        "constructorArguments": "",
                        "name": "setShare",
                        "returnParams": [],
                        "signature": "setShare(address,uint256)"
                    },
                    "errorInfo": "",
                    "fromAddress": "0x720207f72c487cf50f33a8d170e4d31f70998f97",
                    "gasUsed": 45940,
                    "id": 3,
                    "methodDecoded": true,
                    "operation": "CALL",
                    "output": "",
                    "revert": true,
                    "revertMessage": "",
                    "selector": "0x14b6ca96",
                    "status": true,
                    "value": "0"
                },
                "nodeType": 0
            },
            "30": {
                "invocation": {
                    "address": "0x51db67236a209b0070e4b2585a0f2e017488ee1a",
                    "callData": "0x",
                    "decodedMethod": null,
                    "errorInfo": "",
                    "fromAddress": "0x180555d4d45e67520adc7c0c51b512c7a50877f2",
                    "gasUsed": 0,
                    "id": 30,
                    "methodDecoded": false,
                    "operation": "CALL",
                    "output": "",
                    "revert": true,
                    "revertMessage": "",
                    "selector": "fallback",
                    "status": true,
                    "value": "0.120096299627113538"
                },
                "nodeType": 0
            },
            "31": {
                "invocation": {
                    "address": "0x720207f72c487cf50f33a8d170e4d31f70998f97",
                    "callData": "0x000000000000000000000000180555d4d45e67520adc7c0c51b512c7a50877f2",
                    "decodedMethod": {
                        "callParams": [
                            {
                                "name": "account",
                                "type": "address",
                                "value": "0x180555d4d45e67520adc7c0c51b512c7a50877f2"
                            }
                        ],
                        "constructorArguments": "",
                        "name": "balanceOf",
                        "returnParams": [
                            {
                                "decimalAvailable": true,
                                "name": "",
                                "type": "uint256",
                                "value": "0"
                            }
                        ],
                        "signature": "balanceOf(address)"
                    },
                    "errorInfo": "",
                    "fromAddress": "0x180555d4d45e67520adc7c0c51b512c7a50877f2",
                    "gasUsed": 2630,
                    "id": 31,
                    "methodDecoded": true,
                    "operation": "STATICCALL",
                    "output": "0x0000000000000000000000000000000000000000000000000000000000000000",
                    "revert": true,
                    "revertMessage": "",
                    "selector": "0x70a08231",
                    "status": true,
                    "value": "0"
                },
                "nodeType": 0
            },
            "4": {
                "invocation": {
                    "address": "0x00c8ef3d93cf84ecdc2c1b1eb432c36e665802a8",
                    "callData": "0x00000000000000000000000000000000000000000000000000000000000493e0",
                    "decodedMethod": {
                        "callParams": [
                            {
                                "name": "gas",
                                "type": "uint256",
                                "value": "300,000"
                            }
                        ],
                        "constructorArguments": "",
                        "name": "process",
                        "returnParams": [],
                        "signature": "process(uint256)"
                    },
                    "errorInfo": "",
                    "fromAddress": "0x720207f72c487cf50f33a8d170e4d31f70998f97",
                    "gasUsed": 319159,
                    "id": 4,
                    "methodDecoded": true,
                    "operation": "CALL",
                    "output": "",
                    "revert": true,
                    "revertMessage": "",
                    "selector": "0xffb2c479",
                    "status": true,
                    "value": "0"
                },
                "nodeType": 0
            },
            "5": {
                "event": {
                    "contract": "0x720207f72c487cf50f33a8d170e4d31f70998f97",
                    "decodedLog": {
                        "name": "Transfer",
                        "params": [
                            {
                                "name": "from",
                                "type": "address",
                                "value": "0x51db67236a209b0070e4b2585a0f2e017488ee1a"
                            },
                            {
                                "name": "to",
                                "type": "address",
                                "value": "0x8198f65f8c75beaa7030f194bdf7850f72082afa"
                            },
                            {
                                "decimalAvailable": true,
                                "name": "value",
                                "type": "uint256",
                                "value": "193,315,682,105,771,103,703,126"
                            }
                        ],
                        "signature": "Transfer(address,address,uint256)"
                    },
                    "id": 5,
                    "logData": "0x0000000000000000000000000000000000000000000028efaa0424d1888d5056",
                    "logDecoded": true,
                    "operation": "EVENT",
                    "revert": true,
                    "status": false,
                    "topics": [
                        "0xddf252ad1be2c89b69c2b068fc378daa952ba7f163c4a11628f55a4df523b3ef",
                        "0x00000000000000000000000051db67236a209b0070e4b2585a0f2e017488ee1a",
                        "0x0000000000000000000000008198f65f8c75beaa7030f194bdf7850f72082afa"
                    ]
                },
                "nodeType": 1
            },
            "6": {
                "invocation": {
                    "address": "0x180555d4d45e67520adc7c0c51b512c7a50877f2",
                    "callData": "0x000000000000000000000000000000000000000000000000000000000000002000000000000000000000000000000000000000000000000000000000000001800000000000000000000000000000000000000000000000000000000000000020000000000000000000000000000000000000000000000000000000000000000100000000000000000000000000000000000000000000000000000000000000200000000000000000000000000000000000000000000000000000000000000040000000000000000000000000000000000000000000000000000000000000000100000000000000000000000000000000000000000000000000000000000000c00000000000000000000000008198f65f8c75beaa7030f194bdf7850f72082afa000000000000000000000000720207f72c487cf50f33a8d170e4d31f70998f97000000000000000000000000c02aaa39b223fe8d0a0e5c4f27ead9083c756cc2000000000000000000000000180555d4d45e67520adc7c0c51b512c7a50877f200000000000000000000000000000000000000000000000000000000000000000000000000000000000000000000000000000000000000000000000000000000",
                    "decodedMethod": null,
                    "errorInfo": "",
                    "fromAddress": "0x617dee16b86534a5d792a4d7a62fb491b544111e",
                    "gasUsed": 92808,
                    "id": 6,
                    "methodDecoded": false,
                    "operation": "CALL",
                    "output": "",
                    "revert": true,
                    "revertMessage": "",
                    "selector": "0x8b674f5d",
                    "status": true,
                    "value": "0"
                },
                "nodeType": 0
            },
            "7": {
                "invocation": {
                    "address": "0xa9249f4d7e84b206d010bc90211a11fda57785b4",
                    "callData": "0x00000000000000000000000059a16ece7143459801c3b3f24dc8a0cdfb9565710000000000000000000000008198f65f8c75beaa7030f194bdf7850f72082afa000000000000000000000000720207f72c487cf50f33a8d170e4d31f70998f970000000000000000000000000000000000000000000000000000000000000001",
                    "decodedMethod": {
                        "callParams": [
                            {
                                "name": "factory",
                                "type": "address",
                                "value": "0x59a16ece7143459801c3b3f24dc8a0cdfb956571"
                            },
                            {
                                "name": "pair",
                                "type": "address",
                                "value": "0x8198f65f8c75beaa7030f194bdf7850f72082afa"
                            },
                            {
                                "name": "tokenA",
                                "type": "address",
                                "value": "0x720207f72c487cf50f33a8d170e4d31f70998f97"
                            },
                            {
                                "name": "dexId",
                                "type": "uint8",
                                "value": "1"
                            }
                        ],
                        "constructorArguments": "",
                        "name": "getFactoryReserveAndWeights",
                        "returnParams": [
                            {
                                "name": "tokenB",
                                "type": "address",
                                "value": "0xc02aaa39b223fe8d0a0e5c4f27ead9083c756cc2"
                            },
                            {
                                "name": "reserveA",
                                "type": "uint256",
                                "value": "21,566,097,632,297,661,712,743,251"
                            },
                            {
                                "name": "reserveB",
                                "type": "uint256",
                                "value": "13,599,026,802,656,767,729"
                            },
                            {
                                "name": "tokenWeightA",
                                "type": "uint32",
                                "value": "50"
                            },
                            {
                                "name": "tokenWeightB",
                                "type": "uint32",
                                "value": "50"
                            },
                            {
                                "name": "swapFee",
                                "type": "uint32",
                                "value": "30"
                            }
                        ],
                        "signature": "getFactoryReserveAndWeights(address,address,address,uint8)"
                    },
                    "errorInfo": "",
                    "fromAddress": "0x180555d4d45e67520adc7c0c51b512c7a50877f2",
                    "gasUsed": 16073,
                    "id": 7,
                    "methodDecoded": true,
                    "operation": "STATICCALL",
                    "output": "0x000000000000000000000000c02aaa39b223fe8d0a0e5c4f27ead9083c756cc200000000000000000000000000000000000000000011d6cc7ec89c6a6656bb53000000000000000000000000000000000000000000000000bcb972d3875f6ef100000000000000000000000000000000000000000000000000000000000000320000000000000000000000000000000000000000000000000000000000000032000000000000000000000000000000000000000000000000000000000000001e",
                    "revert": true,
                    "revertMessage": "",
                    "selector": "0xeb22d54f",
                    "status": true,
                    "value": "0"
                },
                "nodeType": 0
            },
            "8": {
                "invocation": {
                    "address": "0x8198f65f8c75beaa7030f194bdf7850f72082afa",
                    "callData": "0x",
                    "decodedMethod": {
                        "callParams": [],
                        "constructorArguments": "",
                        "name": "getReserves",
                        "returnParams": [
                            {
                                "name": "_reserve0",
                                "type": "uint112",
                                "value": "21,566,097,632,297,661,712,743,251"
                            },
                            {
                                "name": "_reserve1",
                                "type": "uint112",
                                "value": "13,599,026,802,656,767,729"
                            },
                            {
                                "name": "_blockTimestampLast",
                                "type": "uint32",
                                "value": "1,667,562,611"
                            }
                        ],
                        "signature": "getReserves()"
                    },
                    "errorInfo": "",
                    "fromAddress": "0xa9249f4d7e84b206d010bc90211a11fda57785b4",
                    "gasUsed": 2504,
                    "id": 8,
                    "methodDecoded": true,
                    "operation": "STATICCALL",
                    "output": "0x00000000000000000000000000000000000000000011d6cc7ec89c6a6656bb53000000000000000000000000000000000000000000000000bcb972d3875f6ef1000000000000000000000000000000000000000000000000000000006364fc73",
                    "revert": true,
                    "revertMessage": "",
                    "selector": "0x0902f1ac",
                    "status": true,
                    "value": "0"
                },
                "nodeType": 0
            },
            "9": {
                "invocation": {
                    "address": "0x8198f65f8c75beaa7030f194bdf7850f72082afa",
                    "callData": "0x",
                    "decodedMethod": {
                        "callParams": [],
                        "constructorArguments": "",
                        "name": "token0",
                        "returnParams": [
                            {
                                "name": "",
                                "type": "address",
                                "value": "0x720207f72c487cf50f33a8d170e4d31f70998f97"
                            }
                        ],
                        "signature": "token0()"
                    },
                    "errorInfo": "",
                    "fromAddress": "0xa9249f4d7e84b206d010bc90211a11fda57785b4",
                    "gasUsed": 2381,
                    "id": 9,
                    "methodDecoded": true,
                    "operation": "STATICCALL",
                    "output": "0x000000000000000000000000720207f72c487cf50f33a8d170e4d31f70998f97",
                    "revert": true,
                    "revertMessage": "",
                    "selector": "0x0dfe1681",
                    "status": true,
                    "value": "0"
                },
                "nodeType": 0
            }
        },
        "gasFlame": [
            {
                "children": [
                    {
                        "children": [
                            {
                                "children": [],
                                "depth": 0,
                                "name": "Initial Gas",
                                "value": 36348
                            },
                            {
                                "children": [
                                    {
                                        "children": [
                                            {
                                                "children": [],
                                                "depth": 2,
                                                "name": "setShare",
                                                "value": 45940
                                            },
                                            {
                                                "children": [],
                                                "depth": 2,
                                                "name": "process",
                                                "value": 319159
                                            }
                                        ],
                                        "depth": 1,
                                        "name": "transferFrom",
                                        "value": 433288
                                    },
                                    {
                                        "children": [
                                            {
                                                "children": [
                                                    {
                                                        "children": [],
                                                        "depth": 3,
                                                        "name": "getReserves",
                                                        "value": 2504
                                                    },
                                                    {
                                                        "children": [],
                                                        "depth": 3,
                                                        "name": "token0",
                                                        "value": 2381
                                                    },
                                                    {
                                                        "children": [],
                                                        "depth": 3,
                                                        "name": "token1",
                                                        "value": 2357
                                                    }
                                                ],
                                                "depth": 2,
                                                "name": "getFactoryReserveAndWeights",
                                                "value": 16073
                                            },
                                            {
                                                "children": [],
                                                "depth": 2,
                                                "name": "balanceOf",
                                                "value": 630
                                            },
                                            {
                                                "children": [],
                                                "depth": 2,
                                                "name": "getAmountOut",
                                                "value": 1070
                                            },
                                            {
                                                "children": [],
                                                "depth": 2,
                                                "name": "balanceOf",
                                                "value": 2534
                                            },
                                            {
                                                "children": [],
                                                "depth": 2,
                                                "name": "token0",
                                                "value": 381
                                            },
                                            {
                                                "children": [
                                                    {
                                                        "children": [],
                                                        "depth": 3,
                                                        "name": "transfer",
                                                        "value": 27962
                                                    },
                                                    {
                                                        "children": [],
                                                        "depth": 3,
                                                        "name": "balanceOf",
                                                        "value": 630
                                                    },
                                                    {
                                                        "children": [],
                                                        "depth": 3,
                                                        "name": "balanceOf",
                                                        "value": 534
                                                    }
                                                ],
                                                "depth": 2,
                                                "name": "swap",
                                                "value": 56449
                                            },
                                            {
                                                "children": [],
                                                "depth": 2,
                                                "name": "balanceOf",
                                                "value": 534
                                            }
                                        ],
                                        "depth": 1,
                                        "name": "0x8b674f5d",
                                        "value": 92808
                                    },
                                    {
                                        "children": [
                                            {
                                                "children": [],
                                                "depth": 2,
                                                "name": "balanceOf",
                                                "value": 534
                                            },
                                            {
                                                "children": [
                                                    {
                                                        "children": [],
                                                        "depth": 3,
                                                        "name": "fallback",
                                                        "value": 55
                                                    }
                                                ],
                                                "depth": 2,
                                                "name": "withdraw",
                                                "value": 9195
                                            },
                                            {
                                                "children": [],
                                                "depth": 2,
                                                "name": "fallback",
                                                "value": 0
                                            },
                                            {
                                                "children": [],
                                                "depth": 2,
                                                "name": "fallback",
                                                "value": 0
                                            },
                                            {
                                                "children": [],
                                                "depth": 2,
                                                "name": "balanceOf",
                                                "value": 2630
                                            }
                                        ],
                                        "depth": 1,
                                        "name": "0x774b6b7e",
                                        "value": 32912
                                    }
                                ],
                                "depth": 0,
                                "name": "Executed Gas",
                                "value": 576665
                            }
                        ],
                        "depth": -1,
                        "name": "Actual Gas Used",
                        "value": 613013
                    },
                    {
                        "children": [],
                        "depth": -1,
                        "name": "Refunded Gas",
                        "value": 0
                    }
                ],
                "depth": -2,
                "name": "Total Gas",
                "value": 613013
            }
        ],
        "isConfirmed": true,
        "mainTrace": [
            {
                "children": [
                    {
                        "children": [
                            {
                                "children": [
                                    {
                                        "children": [],
                                        "depth": 2,
                                        "id": 2,
                                        "order": 2
                                    },
                                    {
                                        "children": [],
                                        "depth": 2,
                                        "id": 3,
                                        "order": 3
                                    },
                                    {
                                        "children": [],
                                        "depth": 2,
                                        "id": 4,
                                        "order": 4
                                    },
                                    {
                                        "children": [],
                                        "depth": 2,
                                        "id": 5,
                                        "order": 5
                                    }
                                ],
                                "depth": 1,
                                "id": 1,
                                "order": 1
                            },
                            {
                                "children": [
                                    {
                                        "children": [
                                            {
                                                "children": [],
                                                "depth": 3,
                                                "id": 8,
                                                "order": 8
                                            },
                                            {
                                                "children": [],
                                                "depth": 3,
                                                "id": 9,
                                                "order": 9
                                            },
                                            {
                                                "children": [],
                                                "depth": 3,
                                                "id": 10,
                                                "order": 10
                                            }
                                        ],
                                        "depth": 2,
                                        "id": 7,
                                        "order": 7
                                    },
                                    {
                                        "children": [],
                                        "depth": 2,
                                        "id": 11,
                                        "order": 11
                                    },
                                    {
                                        "children": [],
                                        "depth": 2,
                                        "id": 12,
                                        "order": 12
                                    },
                                    {
                                        "children": [],
                                        "depth": 2,
                                        "id": 13,
                                        "order": 13
                                    },
                                    {
                                        "children": [],
                                        "depth": 2,
                                        "id": 14,
                                        "order": 14
                                    },
                                    {
                                        "children": [
                                            {
                                                "children": [
                                                    {
                                                        "children": [],
                                                        "depth": 4,
                                                        "id": 17,
                                                        "order": 17
                                                    }
                                                ],
                                                "depth": 3,
                                                "id": 16,
                                                "order": 16
                                            },
                                            {
                                                "children": [],
                                                "depth": 3,
                                                "id": 18,
                                                "order": 18
                                            },
                                            {
                                                "children": [],
                                                "depth": 3,
                                                "id": 19,
                                                "order": 19
                                            },
                                            {
                                                "children": [],
                                                "depth": 3,
                                                "id": 20,
                                                "order": 20
                                            },
                                            {
                                                "children": [],
                                                "depth": 3,
                                                "id": 21,
                                                "order": 21
                                            }
                                        ],
                                        "depth": 2,
                                        "id": 15,
                                        "order": 15
                                    },
                                    {
                                        "children": [],
                                        "depth": 2,
                                        "id": 22,
                                        "order": 22
                                    },
                                    {
                                        "children": [],
                                        "depth": 2,
                                        "id": 23,
                                        "order": 23
                                    }
                                ],
                                "depth": 1,
                                "id": 6,
                                "order": 6
                            },
                            {
                                "children": [
                                    {
                                        "children": [],
                                        "depth": 2,
                                        "id": 25,
                                        "order": 25
                                    },
                                    {
                                        "children": [
                                            {
                                                "children": [],
                                                "depth": 3,
                                                "id": 27,
                                                "order": 27
                                            },
                                            {
                                                "children": [],
                                                "depth": 3,
                                                "id": 28,
                                                "order": 28
                                            }
                                        ],
                                        "depth": 2,
                                        "id": 26,
                                        "order": 26
                                    },
                                    {
                                        "children": [],
                                        "depth": 2,
                                        "id": 29,
                                        "order": 29
                                    },
                                    {
                                        "children": [],
                                        "depth": 2,
                                        "id": 30,
                                        "order": 30
                                    },
                                    {
                                        "children": [],
                                        "depth": 2,
                                        "id": 31,
                                        "order": 31
                                    }
                                ],
                                "depth": 1,
                                "id": 24,
                                "order": 24
                            }
                        ],
                        "depth": 0,
                        "id": 0,
                        "order": 0
                    }
                ],
                "depth": -1,
                "id": -1,
                "order": -1
            }
        ],
        "mainTraceNodeCount": 32,
        "parentIdMap": {
            "0": -1,
            "1": 0,
            "10": 7,
            "11": 6,
            "12": 6,
            "13": 6,
            "14": 6,
            "15": 6,
            "16": 15,
            "17": 16,
            "18": 15,
            "19": 15,
            "2": 1,
            "20": 15,
            "21": 15,
            "22": 6,
            "23": 6,
            "24": 0,
            "25": 24,
            "26": 24,
            "27": 26,
            "28": 26,
            "29": 24,
            "3": 1,
            "30": 24,
            "31": 24,
            "4": 1,
            "5": 1,
            "6": 0,
            "7": 6,
            "8": 7,
            "9": 7
        },
        "tidyTrace": [
            {
                "children": [
                    {
                        "children": [
                            {
                                "children": [
                                    {
                                        "children": [],
                                        "depth": 2,
                                        "id": 2,
                                        "order": 2
                                    },
                                    {
                                        "children": [],
                                        "depth": 2,
                                        "id": 3,
                                        "order": 3
                                    },
                                    {
                                        "children": [],
                                        "depth": 2,
                                        "id": 4,
                                        "order": 4
                                    },
                                    {
                                        "children": [],
                                        "depth": 2,
                                        "id": 5,
                                        "order": 5
                                    }
                                ],
                                "depth": 1,
                                "id": 1,
                                "order": 1
                            },
                            {
                                "children": [
                                    {
                                        "children": [
                                            {
                                                "children": [
                                                    {
                                                        "children": [],
                                                        "depth": 4,
                                                        "id": 17,
                                                        "order": 17
                                                    }
                                                ],
                                                "depth": 3,
                                                "id": 16,
                                                "order": 16
                                            },
                                            {
                                                "children": [],
                                                "depth": 3,
                                                "id": 20,
                                                "order": 20
                                            },
                                            {
                                                "children": [],
                                                "depth": 3,
                                                "id": 21,
                                                "order": 21
                                            }
                                        ],
                                        "depth": 2,
                                        "id": 15,
                                        "order": 15
                                    },
                                    {
                                        "children": [],
                                        "depth": 2,
                                        "id": 22,
                                        "order": 22
                                    }
                                ],
                                "depth": 1,
                                "id": 6,
                                "order": 6
                            },
                            {
                                "children": [
                                    {
                                        "children": [
                                            {
                                                "children": [],
                                                "depth": 3,
                                                "id": 27,
                                                "order": 27
                                            },
                                            {
                                                "children": [],
                                                "depth": 3,
                                                "id": 28,
                                                "order": 28
                                            }
                                        ],
                                        "depth": 2,
                                        "id": 26,
                                        "order": 26
                                    },
                                    {
                                        "children": [],
                                        "depth": 2,
                                        "id": 29,
                                        "order": 29
                                    },
                                    {
                                        "children": [],
                                        "depth": 2,
                                        "id": 30,
                                        "order": 30
                                    }
                                ],
                                "depth": 1,
                                "id": 24,
                                "order": 24
                            }
                        ],
                        "depth": 0,
                        "id": 0,
                        "order": 0
                    }
                ],
                "depth": -1,
                "id": -1,
                "order": -1
            }
        ],
        "tidyTraceNodeCount": 19
    },
    "state_change": {
        "stateChanges": []
    }
}