{
    "balance_change": {
        "balanceChanges": [
            {
                "account": "0xcd5f8fa45e0ca0937f86006b9ee8fe1eedee5fc4",
                "assets": [
                    {
                        "address": "0xdac17f958d2ee523a2206206994597c13d831ec7",
                        "amount": "66,971",
                        "iconUrl": "https://assets.blocksec.com/icon/fcea71f3193ce895be44bfdf941f7e4c9381dd587f273c2d1a27f1263d84e4ea.png",
                        "isERC1155": false,
                        "isERC721": false,
                        "sign": false,
                        "value": ""
                    },
                    {
                        "address": "0xa0b86991c6218b36c1d19d4a2e9eb0ce3606eb48",
                        "amount": "66,875.45948",
                        "iconUrl": "https://assets.blocksec.com/icon/0347a86cc07dbd03fdc5db01a4e5ac7e1217f90e0b6e4bb0f75cbcca09160989.png",
                        "isERC1155": false,
                        "isERC721": false,
                        "sign": true,
                        "value": ""
                    }
                ]
            },
            {
                "account": "0xa5407eae9ba41422680e2e00537571bcc53efbfd",
                "assets": [
                    {
                        "address": "0xdac17f958d2ee523a2206206994597c13d831ec7",
                        "amount": "66,971",
                        "iconUrl": "https://assets.blocksec.com/icon/fcea71f3193ce895be44bfdf941f7e4c9381dd587f273c2d1a27f1263d84e4ea.png",
                        "isERC1155": false,
                        "isERC721": false,
                        "sign": true,
                        "value": ""
                    },
                    {
                        "address": "0xa0b86991c6218b36c1d19d4a2e9eb0ce3606eb48",
                        "amount": "66,875.45948",
                        "iconUrl": "https://assets.blocksec.com/icon/0347a86cc07dbd03fdc5db01a4e5ac7e1217f90e0b6e4bb0f75cbcca09160989.png",
                        "isERC1155": false,
                        "isERC721": false,
                        "sign": false,
                        "value": ""
                    }
                ]
            }
        ]
    },
    "profile": {
        "basic_info": {
            "baseFee": "",
            "blockNumber": 10644520,
            "callData": "0x3df02124000000000000000000000000000000000000000000000000000000000000000200000000000000000000000000000000000000000000000000000000000000010000000000000000000000000000000000000000000000000000000f97c85cc00000000000000000000000000000000000000000000000000000000f7e3257ee",
            "debugEnable": true,
            "errorInfo": "",
            "eventCount": 3,
            "feeRecipient": "0x5a0b54d5dc17e0aadc383d2db43b0a0d3e029c4c",
            "formatValue": "0",
            "gasLimit": 300000,
            "gasPrice": "204",
            "gasUsed": 122512,
            "intTxnCount": 3,
            "internalRevert": false,
            "internalRevertMessage": "",
            "isContractCreation": false,
            "isFlashloan": false,
            "maxFee": "",
            "nonce": 6745,
            "overwritedBlockNumber": -1,
            "priorityFee": "",
            "receiver": "0xa5407eae9ba41422680e2e00537571bcc53efbfd",
            "revertMessage": "",
            "sender": "0xcd5f8fa45e0ca0937f86006b9ee8fe1eedee5fc4",
            "simulationEnable": true,
            "sourceTxnHash": "0x054cfac59cb3870b183fd85b10870865caebe63e59b0ff76203b348dcb6455cf",
            "status": true,
            "timestamp": "2020-08-12T10:15:59Z",
            "transactionFee": "0.024992448",
            "txnHash": "0x054cfac59cb3870b183fd85b10870865caebe63e59b0ff76203b348dcb6455cf",
            "txnIndex": 245,
            "type": 0,
            "value": "0"
        },
        "fund_flow": [
            {
                "amount": "66,971",
                "from": "0xcd5f8fa45e0ca0937f86006b9ee8fe1eedee5fc4",
                "id": 1,
                "isERC1155": false,
                "isERC721": false,
                "isReverted": false,
                "order": 1,
                "to": "0xa5407eae9ba41422680e2e00537571bcc53efbfd",
                "token": "0xdac17f958d2ee523a2206206994597c13d831ec7"
            },
            {
                "amount": "66,875.45948",
                "from": "0xa5407eae9ba41422680e2e00537571bcc53efbfd",
                "id": 2,
                "isERC1155": false,
                "isERC721": false,
                "isReverted": false,
                "order": 2,
                "to": "0xcd5f8fa45e0ca0937f86006b9ee8fe1eedee5fc4",
                "token": "0xa0b86991c6218b36c1d19d4a2e9eb0ce3606eb48"
            }
        ],
        "token_infos": [
            {
                "address": "0xa0b86991c6218b36c1d19d4a2e9eb0ce3606eb48",
                "decimals": 6
            },
            {
                "address": "0xc02aaa39b223fe8d0a0e5c4f27ead9083c756cc2",
                "decimals": 18
            },
            {
                "address": "0xdac17f958d2ee523a2206206994597c13d831ec7",
                "decimals": 6
            },
            {
                "address": "0xeeeeeeeeeeeeeeeeeeeeeeeeeeeeeeeeeeeeeeee",
                "decimals": 18
            }
        ]
    },
    "address_label": {
        "labels": [
            {
                "address": "0xa0b86991c6218b36c1d19d4a2e9eb0ce3606eb48",
                "label": "Circle: USDC Token"
            },
            {
                "address": "0x0000000000000000000000000000000000000002",
                "label": "Precompiled"
            },
            {
                "address": "0xdac17f958d2ee523a2206206994597c13d831ec7",
                "label": "Tether: USDT Stablecoin"
            },
            {
                "address": "0xa5407eae9ba41422680e2e00537571bcc53efbfd",
                "label": "Curve.fi: sUSD v2 Swap"
            },
            {
                "address": "0x0882477e7895bdc5cea7cb1552ed914ab157fe56",
                "label": "FiatTokenV1"
            },
            {
                "address": "0x0000000000000000000000000000000000000004",
                "label": "Precompiled"
            },
            {
                "address": "0xeeeeeeeeeeeeeeeeeeeeeeeeeeeeeeeeeeeeeeee",
                "label": "Ether"
            },
            {
                "address": "0x0000000000000000000000000000000000000001",
                "label": "Precompiled"
            },
            {
                "address": "0x0000000000000000000000000000000000000003",
                "label": "Precompiled"
            }
        ]
    },
    "trace": {
        "accountLabels": null,
        "dataMap": {
            "-1": {
                "invocation": {
                    "address": "0xcd5f8fa45e0ca0937f86006b9ee8fe1eedee5fc4",
                    "callData": "",
                    "decodedMethod": null,
                    "errorInfo": "",
                    "fromAddress": "",
                    "gasUsed": 0,
                    "id": -1,
                    "methodDecoded": false,
                    "operation": "",
                    "output": "",
                    "revert": false,
                    "revertMessage": "",
                    "selector": "",
                    "status": false,
                    "value": ""
                },
                "nodeType": 0
            },
            "0": {
                "invocation": {
                    "address": "0xa5407eae9ba41422680e2e00537571bcc53efbfd",
                    "callData": "0x000000000000000000000000000000000000000000000000000000000000000200000000000000000000000000000000000000000000000000000000000000010000000000000000000000000000000000000000000000000000000f97c85cc00000000000000000000000000000000000000000000000000000000f7e3257ee",
                    "decodedMethod": {
                        "callParams": [
                            {
                                "name": "i",
                                "type": "int128",
                                "value": "2"
                            },
                            {
                                "name": "j",
                                "type": "int128",
                                "value": "1"
                            },
                            {
                                "name": "",
                                "type": "uint256",
                                "value": "66,971,000,000"
                            },
                            {
                                "name": "",
                                "type": "uint256",
                                "value": "66,541,737,966"
                            }
                        ],
                        "constructorArguments": "",
                        "name": "exchange",
                        "returnParams": [],
                        "signature": "exchange(int128,int128,uint256,uint256)"
                    },
                    "errorInfo": "",
                    "fromAddress": "0xcd5f8fa45e0ca0937f86006b9ee8fe1eedee5fc4",
                    "gasUsed": 122512,
                    "id": 0,
                    "methodDecoded": true,
                    "operation": "CALL",
                    "output": "",
                    "revert": false,
                    "revertMessage": "",
                    "selector": "0x3df02124",
                    "status": true,
                    "value": "0"
                },
                "nodeType": 0
            },
            "1": {
                "invocation": {
                    "address": "0xdac17f958d2ee523a2206206994597c13d831ec7",
                    "callData": "0x000000000000000000000000cd5f8fa45e0ca0937f86006b9ee8fe1eedee5fc4000000000000000000000000a5407eae9ba41422680e2e00537571bcc53efbfd0000000000000000000000000000000000000000000000000000000f97c85cc0",
                    "decodedMethod": {
                        "callParams": [
                            {
                                "name": "_from",
                                "type": "address",
                                "value": "0xcd5f8fa45e0ca0937f86006b9ee8fe1eedee5fc4"
                            },
                            {
                                "name": "_to",
                                "type": "address",
                                "value": "0xa5407eae9ba41422680e2e00537571bcc53efbfd"
                            },
                            {
                                "decimalAvailable": true,
                                "name": "_value",
                                "type": "uint256",
                                "value": "66,971,000,000"
                            }
                        ],
                        "constructorArguments": "",
                        "name": "transferFrom",
                        "returnParams": [],
                        "signature": "transferFrom(address,address,uint256)"
                    },
                    "errorInfo": "",
                    "fromAddress": "0xa5407eae9ba41422680e2e00537571bcc53efbfd",
                    "gasUsed": 20330,
                    "id": 1,
                    "methodDecoded": true,
                    "operation": "CALL",
                    "output": "",
                    "revert": false,
                    "revertMessage": "",
                    "selector": "0x23b872dd",
                    "status": true,
                    "value": "0"
                },
                "nodeType": 0
            },
            "2": {
                "event": {
                    "contract": "0xdac17f958d2ee523a2206206994597c13d831ec7",
                    "decodedLog": {
                        "name": "Transfer",
                        "params": [
                            {
                                "name": "from",
                                "type": "address",
                                "value": "0xcd5f8fa45e0ca0937f86006b9ee8fe1eedee5fc4"
                            },
                            {
                                "name": "to",
                                "type": "address",
                                "value": "0xa5407eae9ba41422680e2e00537571bcc53efbfd"
                            },
                            {
                                "decimalAvailable": true,
                                "name": "value",
                                "type": "uint256",
                                "value": "66,971,000,000"
                            }
                        ],
                        "signature": "Transfer(address,address,uint256)"
                    },
                    "id": 2,
                    "logData": "0x0000000000000000000000000000000000000000000000000000000f97c85cc0",
                    "logDecoded": true,
                    "operation": "EVENT",
                    "revert": false,
                    "status": true,
                    "topics": [
                        "0xddf252ad1be2c89b69c2b068fc378daa952ba7f163c4a11628f55a4df523b3ef",
                        "0x000000000000000000000000cd5f8fa45e0ca0937f86006b9ee8fe1eedee5fc4",
                        "0x000000000000000000000000a5407eae9ba41422680e2e00537571bcc53efbfd"
                    ]
                },
                "nodeType": 1
            },
            "3": {
                "invocation": {
                    "address": "0xa0b86991c6218b36c1d19d4a2e9eb0ce3606eb48",
                    "callData": "0x000000000000000000000000cd5f8fa45e0ca0937f86006b9ee8fe1eedee5fc40000000000000000000000000000000000000000000000000000000f92168798",
                    "decodedMethod": {
                        "callParams": [
                            {
                                "name": "_to",
                                "type": "address",
                                "value": "0xcd5f8fa45e0ca0937f86006b9ee8fe1eedee5fc4"
                            },
                            {
                                "decimalAvailable": true,
                                "name": "_value",
                                "type": "uint256",
                                "value": "66,875,459,480"
                            }
                        ],
                        "constructorArguments": "",
                        "name": "transfer",
                        "returnParams": [
                            {
                                "name": "",
                                "type": "bool",
                                "value": true
                            }
                        ],
                        "signature": "transfer(address,uint256)"
                    },
                    "errorInfo": "",
                    "fromAddress": "0xa5407eae9ba41422680e2e00537571bcc53efbfd",
                    "gasUsed": 21405,
                    "id": 3,
                    "methodDecoded": true,
                    "operation": "CALL",
                    "output": "0x0000000000000000000000000000000000000000000000000000000000000001",
                    "revert": false,
                    "revertMessage": "",
                    "selector": "0xa9059cbb",
                    "status": true,
                    "value": "0"
                },
                "nodeType": 0
            },
            "4": {
                "invocation": {
                    "address": "0x0882477e7895bdc5cea7cb1552ed914ab157fe56",
                    "callData": "0x000000000000000000000000cd5f8fa45e0ca0937f86006b9ee8fe1eedee5fc40000000000000000000000000000000000000000000000000000000f92168798",
                    "decodedMethod": {
                        "callParams": [
                            {
                                "name": "_to",
                                "type": "address",
                                "value": "0xcd5f8fa45e0ca0937f86006b9ee8fe1eedee5fc4"
                            },
                            {
                                "decimalAvailable": true,
                                "name": "_value",
                                "type": "uint256",
                                "value": "66,875,459,480"
                            }
                        ],
                        "constructorArguments": "",
                        "name": "transfer",
                        "returnParams": [
                            {
                                "name": "",
                                "type": "bool",
                                "value": true
                            }
                        ],
                        "signature": "transfer(address,uint256)"
                    },
                    "errorInfo": "",
                    "fromAddress": "0xa0b86991c6218b36c1d19d4a2e9eb0ce3606eb48",
                    "gasUsed": 18616,
                    "id": 4,
                    "methodDecoded": true,
                    "operation": "DELEGATECALL",
                    "output": "0x0000000000000000000000000000000000000000000000000000000000000001",
                    "revert": false,
                    "revertMessage": "",
                    "selector": "0xa9059cbb",
                    "status": true,
                    "value": "0"
                },
                "nodeType": 0
            },
            "5": {
                "event": {
                    "contract": "0xa0b86991c6218b36c1d19d4a2e9eb0ce3606eb48",
                    "decodedLog": {
                        "name": "Transfer",
                        "params": [
                            {
                                "name": "from",
                                "type": "address",
                                "value": "0xa5407eae9ba41422680e2e00537571bcc53efbfd"
                            },
                            {
                                "name": "to",
                                "type": "address",
                                "value": "0xcd5f8fa45e0ca0937f86006b9ee8fe1eedee5fc4"
                            },
                            {
                                "decimalAvailable": true,
                                "name": "value",
                                "type": "uint256",
                                "value": "66,875,459,480"
                            }
                        ],
                        "signature": "Transfer(address,address,uint256)"
                    },
                    "id": 5,
                    "logData": "0x0000000000000000000000000000000000000000000000000000000f92168798",
                    "logDecoded": true,
                    "operation": "EVENT",
                    "revert": false,
                    "status": true,
                    "topics": [
                        "0xddf252ad1be2c89b69c2b068fc378daa952ba7f163c4a11628f55a4df523b3ef",
                        "0x000000000000000000000000a5407eae9ba41422680e2e00537571bcc53efbfd",
                        "0x000000000000000000000000cd5f8fa45e0ca0937f86006b9ee8fe1eedee5fc4"
                    ]
                },
                "nodeType": 1
            },
            "6": {
                "event": {
                    "contract": "0xa5407eae9ba41422680e2e00537571bcc53efbfd",
                    "decodedLog": {
                        "name": "TokenExchange",
                        "params": [
                            {
                                "name": "buyer",
                                "type": "address",
                                "value": "0xcd5f8fa45e0ca0937f86006b9ee8fe1eedee5fc4"
                            },
                            {
                                "name": "sold_id",
                                "type": "int128",
                                "value": "2"
                            },
                            {
                                "name": "tokens_sold",
                                "type": "uint256",
                                "value": "66,971,000,000"
                            },
                            {
                                "name": "bought_id",
                                "type": "int128",
                                "value": "1"
                            },
                            {
                                "name": "tokens_bought",
                                "type": "uint256",
                                "value": "66,875,459,480"
                            }
                        ],
                        "signature": "TokenExchange(address,int128,uint256,int128,uint256)"
                    },
                    "id": 6,
                    "logData": "0x00000000000000000000000000000000000000000000000000000000000000020000000000000000000000000000000000000000000000000000000f97c85cc000000000000000000000000000000000000000000000000000000000000000010000000000000000000000000000000000000000000000000000000f92168798",
                    "logDecoded": true,
                    "operation": "EVENT",
                    "revert": false,
                    "status": true,
                    "topics": [
                        "0x8b3e96f2b889fa771c53c981b40daf005f63f637f1869f707052d15a3dd97140",
                        "0x000000000000000000000000cd5f8fa45e0ca0937f86006b9ee8fe1eedee5fc4"
                    ]
                },
                "nodeType": 1
            }
        },
        "gasFlame": [
            {
                "children": [
                    {
                        "children": [
                            {
                                "children": [],
                                "depth": 0,
                                "name": "Initial Gas",
                                "value": 21720
                            },
                            {
                                "children": [
                                    {
                                        "children": [],
                                        "depth": 1,
                                        "name": "transferFrom",
                                        "value": 20330
                                    },
                                    {
                                        "children": [
                                            {
                                                "children": [],
                                                "depth": 2,
                                                "name": "transfer",
                                                "value": 18616
                                            }
                                        ],
                                        "depth": 1,
                                        "name": "transfer",
                                        "value": 21405
                                    }
                                ],
                                "depth": 0,
                                "name": "Executed Gas",
                                "value": 119992
                            }
                        ],
                        "depth": -1,
                        "name": "Actual Gas Used",
                        "value": 122512
                    },
                    {
                        "children": [],
                        "depth": -1,
                        "name": "Refunded Gas",
                        "value": 19200
                    }
                ],
                "depth": -2,
                "name": "Total Gas",
                "value": 141712
            }
        ],
        "isConfirmed": true,
        "mainTrace": [
            {
                "children": [
                    {
                        "children": [
                            {
                                "children": [
                                    {
                                        "children": [],
                                        "depth": 2,
                                        "id": 2,
                                        "order": 2
                                    }
                                ],
                                "depth": 1,
                                "id": 1,
                                "order": 1
                            },
                            {
                                "children": [
                                    {
                                        "children": [
                                            {
                                                "children": [],
                                                "depth": 3,
                                                "id": 5,
                                                "order": 5
                                            }
                                        ],
                                        "depth": 2,
                                        "id": 4,
                                        "order": 4
                                    }
                                ],
                                "depth": 1,
                                "id": 3,
                                "order": 3
                            },
                            {
                                "children": [],
                                "depth": 1,
                                "id": 6,
                                "order": 6
                            }
                        ],
                        "depth": 0,
                        "id": 0,
                        "order": 0
                    }
                ],
                "depth": -1,
                "id": -1,
                "order": -1
            }
        ],
        "mainTraceNodeCount": 7,
        "parentIdMap": {
            "0": -1,
            "1": 0,
            "2": 1,
            "3": 0,
            "4": 3,
            "5": 4,
            "6": 0
        },
        "tidyTrace": [
            {
                "children": [
                    {
                        "children": [
                            {
                                "children": [
                                    {
                                        "children": [],
                                        "depth": 2,
                                        "id": 2,
                                        "order": 2
                                    }
                                ],
                                "depth": 1,
                                "id": 1,
                                "order": 1
                            },
                            {
                                "children": [
                                    {
                                        "children": [
                                            {
                                                "children": [],
                                                "depth": 3,
                                                "id": 5,
                                                "order": 5
                                            }
                                        ],
                                        "depth": 2,
                                        "id": 4,
                                        "order": 4
                                    }
                                ],
                                "depth": 1,
                                "id": 3,
                                "order": 3
                            },
                            {
                                "children": [],
                                "depth": 1,
                                "id": 6,
                                "order": 6
                            }
                        ],
                        "depth": 0,
                        "id": 0,
                        "order": 0
                    }
                ],
                "depth": -1,
                "id": -1,
                "order": -1
            }
        ],
        "tidyTraceNodeCount": 7
    },
    "state_change": {
        "stateChanges": [
            {
                "address": "0xa0b86991c6218b36c1d19d4a2e9eb0ce3606eb48",
                "erc": "ERC-20",
                "slots": [
                    {
                        "current": "0x00000000000000000000000000000000000000000000000000000dc6e4d1f17a",
                        "key": "0x3fa409fc86e037a876fb6e0b02105e3b66756e049c5002f5133866aabca03f8e",
                        "prev": "0x00000000000000000000000000000000000000000000000000000dd676e87912"
                    },
                    {
                        "current": "0x0000000000000000000000000000000000000000000000000000000f930418b4",
                        "key": "0x3ba6497f10c3d1edcb50e63d3eb9adb11f7ff0a069180906720a8a7620db6ad9",
                        "prev": "0x0000000000000000000000000000000000000000000000000000000000ed911c"
                    }
                ],
                "storageVariables": [
                    {
                        "name": "balances",
                        "type": "mapping(address => uint256)",
                        "value": {
                            "pairs": [
                                {
                                    "key": "0xa5407eae9ba41422680e2e00537571bcc53efbfd",
                                    "value": {
                                        "current": "15147893649786",
                                        "prev": "15214769109266",
                                        "typeTag": 1
                                    }
                                },
                                {
                                    "key": "0xcd5f8fa45e0ca0937f86006b9ee8fe1eedee5fc4",
                                    "value": {
                                        "current": "66891028660",
                                        "prev": "15569180",
                                        "typeTag": 1
                                    }
                                }
                            ],
                            "typeTag": 4
                        }
                    }
                ]
            },
            {
                "address": "0xa5407eae9ba41422680e2e00537571bcc53efbfd",
                "erc": "",
                "slots": [
                    {
                        "current": "0x00000000000000000000000000000000000000000000000000000dc6e4c27ba2",
                        "key": "0x405787fa12a823e0f2b7631cc41b3ba8828b3321ca811111fa75cd3aa3bb5acf",
                        "prev": "0x00000000000000000000000000000000000000000000000000000dd676d9033b"
                    },
                    {
                        "current": "0x00000000000000000000000000000000000000000000000000000f46486519dd",
                        "key": "0x405787fa12a823e0f2b7631cc41b3ba8828b3321ca811111fa75cd3aa3bb5ad0",
                        "prev": "0x00000000000000000000000000000000000000000000000000000f36b09cbd1d"
                    }
                ],
                "storageVariables": []
            },
            {
                "address": "0xdac17f958d2ee523a2206206994597c13d831ec7",
                "erc": "ERC-20",
                "slots": [
                    {
                        "current": "0x0000000000000000000000000000000000000000000000000000000580e3ec91",
                        "key": "0x0ba7d41e5cd0558a31028e1036f73d497cf074fc33743246ac97e31c1789c077",
                        "prev": "0x0000000000000000000000000000000000000000000000000000001518ac4951"
                    },
                    {
                        "current": "0x00000000000000000000000000000000000000000000000000000f4648653da3",
                        "key": "0xbc54c08ac387badf49368c31d70e2fc9b48a8d3e6119a61677a33e48f985e726",
                        "prev": "0x00000000000000000000000000000000000000000000000000000f36b09ce0e3"
                    }
                ],
                "storageVariables": [
                    {
                        "name": "balances",
                        "type": "mapping(address => uint256)",
                        "value": {
                            "pairs": [
                                {
                                    "key": "0xa5407eae9ba41422680e2e00537571bcc53efbfd",
                                    "value": {
                                        "current": "16794536721827",
                                        "prev": "16727565721827",
                                        "typeTag": 1
                                    }
                                },
                                {
                                    "key": "0xcd5f8fa45e0ca0937f86006b9ee8fe1eedee5fc4",
                                    "value": {
                                        "current": "23637257361",
                                        "prev": "90608257361",
                                        "typeTag": 1
                                    }
                                }
                            ],
                            "typeTag": 4
                        }
                    }
                ]
            }
        ]
    }
}