{
    "balance_change": {
        "balanceChanges": [
            {
                "account": "0x1a0b5f2eade71626d051c29ef425d9c49dc87aea",
                "assets": [
                    {
                        "address": "0xa0b86991c6218b36c1d19d4a2e9eb0ce3606eb48",
                        "amount": "82,236.57",
                        "iconUrl": "https://assets.blocksec.com/icon/0347a86cc07dbd03fdc5db01a4e5ac7e1217f90e0b6e4bb0f75cbcca09160989.png",
                        "isERC1155": false,
                        "isERC721": false,
                        "sign": true,
                        "value": "82211.89902900000272"
                    }
                ]
            },
            {
                "account": "0x3ee18b2214aff97000d974cf647e7c347e8fa585",
                "assets": [
                    {
                        "address": "0xa0b86991c6218b36c1d19d4a2e9eb0ce3606eb48",
                        "amount": "82,236.57",
                        "iconUrl": "https://assets.blocksec.com/icon/0347a86cc07dbd03fdc5db01a4e5ac7e1217f90e0b6e4bb0f75cbcca09160989.png",
                        "isERC1155": false,
                        "isERC721": false,
                        "sign": false,
                        "value": "82211.89902900000272"
                    }
                ]
            }
        ]
    },
    "profile": {
        "basic_info": {
            "baseFee": "3.903635655",
            "blockNumber": 20316420,
            "callData": "0xc68785190000000000000000000000000000000000000000000000000000000000000020000000000000000000000000000000000000000000000000000000000000041801000000040d01da190837d187c12c3498bc081b04ddf2e8a0ea7c87bbec7fd5109127d47400ed252c81ff637ed907bfe440fa1885ee5afd820d3d9d3bbe3ad61b1e887f0cbeb90002e4f87a31570cae4132fb413a76f693919c30346a91763cc1feed5ec5f321b0184d3f97257bf08a3d6e8af403f03e5015456ae023071152366196d4eead2d7912000368ab79e61b19a98fd24a676ba416e67915e3559d0a1854902669ad5e3a15eaf9355a2195433245b3a0d2dbe03436c8f09ee6427b4ebb076b7662e88f1e035d76010471c5b389ec9902d315247b374a5dafe03ec5bf453b93f948f1c7525f4e1ebf8172b7272f54bb563cff5c2f4c1eaf58e1fdc92c07ab3973a7571b0e7f0d9ddec4000678c1bd923bf60778a295ab716cb99d9ef2ecada5e28c1981baa39f6cf1f97bda2d16bf88eb83d7216790626ad69c29147024fec6a3e08860ffab454701c7eb9201072f2c4345bef0e1626df0d73694941b719503f9751d7798be3c0c650f58b0ce4c2688424407f8ae03267060717d18825b36fd2ff7ddcbae0176f1eea6945790620008313a874b465daf753a7439d184e8b43b69938f428d9a575297d5ac0d1acfba4d71e339a674acadaf974b193d92a043aabf07d770d8e7ea3a184ba19273e30e240009d308713028e32e9e87412379136ea9520836855a3288d18b6f237aa63ad91a7a305e1435e3a0ce5559527ce796ec05f74e38cef5f8f8adee3a53091566d7ed7f010aa535d0c776eb055d37d88c5b417d70bd25b2960c8348b50ccab34b33b448b6ca2c135ab0a7eb46a83d0c16ef80b274aab900645592ce3938e910520cd4bc5d2e000c35f9eaef5c50e3c963cc7d90e537fa847851bdd8f4749d9ddda686745ef7f011410d3a01750f973f7fec60720fef406200d7142d47b3afebd485627379604e24000e1c92829f77e54a12265b13a03401fd9814531bc30943cc3b53f698b7661d48a620f0a3f938600db9b74dc5821fe7c150d45a99ab38ed7d1160f7f09088ea6edc010f070ceb1a2bb69a86d21310e41f7ecb2121fe0e24d657ee5dac7b08dcabdee2510fd66a4d8381477b5d6d90b1e7397667de7e9773e5869bf755dfc0a68cf893a60112bafe14f01a1b907a5ae266367874fa16871962d5e2721469bced722317ceada90cea873861e93c0956d034d994a9b3a988b606ea7588c83a32834807fce79ffc01669558b1000154d40015ccceeb29348f71bdd22ffef43a2a19c1f5b5e17c5cca5411529120182672ade5000000000002281700010000000000000000000000000000000000000000000000000000001325ae7990000000000000000000000000a0b86991c6218b36c1d19d4a2e9eb0ce3606eb4800020000000000000000000000001a0b5f2eade71626d051c29ef425d9c49dc87aea000200000000000000000000000000000000000000000000000000000000000000000000000000000000",
            "debugEnable": true,
            "errorInfo": "",
            "eventCount": 2,
            "feeRecipient": "0x95222290dd7278aa3ddd389cc1e1d165cc4bafe5",
            "formatValue": "0",
            "gasLimit": 272325,
            "gasPrice": "4.816308655",
            "gasUsed": 265770,
            "intTxnCount": 20,
            "internalRevert": false,
            "internalRevertMessage": "",
            "isContractCreation": false,
            "isFlashloan": false,
            "maxFee": "5.923899851",
            "nonce": 195,
            "overwritedBlockNumber": -1,
            "priorityFee": "0.912673",
            "receiver": "0x3ee18b2214aff97000d974cf647e7c347e8fa585",
            "revertMessage": "",
            "sender": "0x1a0b5f2eade71626d051c29ef425d9c49dc87aea",
            "simulationEnable": true,
            "sourceTxnHash": "0x05ae68f29c44dd3772ced9a1e1eb98e53908514ea20434eb3f6fa71d894b2913",
            "status": true,
            "timestamp": "2024-07-16T03:35:47Z",
            "transactionFee": "0.00128003035123935",
            "txnHash": "0x05ae68f29c44dd3772ced9a1e1eb98e53908514ea20434eb3f6fa71d894b2913",
            "txnIndex": 21,
            "type": 2,
            "value": "0"
        },
        "fund_flow": [
            {
                "amount": "82,236.57",
                "from": "0x3ee18b2214aff97000d974cf647e7c347e8fa585",
                "id": 1,
                "isERC1155": false,
                "isERC721": false,
                "isReverted": false,
                "order": 1,
                "to": "0x1a0b5f2eade71626d051c29ef425d9c49dc87aea",
                "token": "0xa0b86991c6218b36c1d19d4a2e9eb0ce3606eb48"
            }
        ],
        "token_infos": [
            {
                "address": "0xa0b86991c6218b36c1d19d4a2e9eb0ce3606eb48",
                "decimals": 6
            },
            {
                "address": "0xc02aaa39b223fe8d0a0e5c4f27ead9083c756cc2",
                "decimals": 18
            },
            {
                "address": "0xeeeeeeeeeeeeeeeeeeeeeeeeeeeeeeeeeeeeeeee",
                "decimals": 18
            }
        ]
    },
    "address_label": {
        "labels": [
            {
                "address": "0x381752f5458282d317d12c30d2bd4d6e1fd8841e",
                "label": "BridgeImplementation"
            },
            {
                "address": "0x0000000000000000000000000000000000000001",
                "label": "Precompiled"
            },
            {
                "address": "0x0000000000000000000000000000000000000004",
                "label": "Precompiled"
            },
            {
                "address": "0x0000000000000000000000000000000000000003",
                "label": "Precompiled"
            },
            {
                "address": "0xeeeeeeeeeeeeeeeeeeeeeeeeeeeeeeeeeeeeeeee",
                "label": "Ether"
            },
            {
                "address": "0x3c3d457f1522d3540ab3325aa5f1864e34cba9d0",
                "label": "Implementation"
            },
            {
                "address": "0x98f3c9e6e3face36baad05fe09d375ef1464288b",
                "label": "Wormhole: Ethereum Core Bridge"
            },
            {
                "address": "0x3ee18b2214aff97000d974cf647e7c347e8fa585",
                "label": "Wormhole: Portal Token Bridge"
            },
            {
                "address": "0xa0b86991c6218b36c1d19d4a2e9eb0ce3606eb48",
                "label": "Circle: USDC Token"
            },
            {
                "address": "0x43506849d7c04f9138d1a2050bbf3a0c054402dd",
                "label": "FiatTokenV2_2"
            },
            {
                "address": "0x0000000000000000000000000000000000000002",
                "label": "Precompiled"
            }
        ]
    },
    "trace": {
        "accountLabels": null,
        "dataMap": {
            "-1": {
                "invocation": {
                    "address": "0x1a0b5f2eade71626d051c29ef425d9c49dc87aea",
                    "callData": "",
                    "decodedMethod": null,
                    "errorInfo": "",
                    "fromAddress": "",
                    "gasUsed": 0,
                    "id": -1,
                    "methodDecoded": false,
                    "operation": "",
                    "output": "",
                    "revert": false,
                    "revertMessage": "",
                    "selector": "",
                    "status": false,
                    "value": ""
                },
                "nodeType": 0
            },
            "0": {
                "invocation": {
                    "address": "0x3ee18b2214aff97000d974cf647e7c347e8fa585",
                    "callData": "0x0000000000000000000000000000000000000000000000000000000000000020000000000000000000000000000000000000000000000000000000000000041801000000040d01da190837d187c12c3498bc081b04ddf2e8a0ea7c87bbec7fd5109127d47400ed252c81ff637ed907bfe440fa1885ee5afd820d3d9d3bbe3ad61b1e887f0cbeb90002e4f87a31570cae4132fb413a76f693919c30346a91763cc1feed5ec5f321b0184d3f97257bf08a3d6e8af403f03e5015456ae023071152366196d4eead2d7912000368ab79e61b19a98fd24a676ba416e67915e3559d0a1854902669ad5e3a15eaf9355a2195433245b3a0d2dbe03436c8f09ee6427b4ebb076b7662e88f1e035d76010471c5b389ec9902d315247b374a5dafe03ec5bf453b93f948f1c7525f4e1ebf8172b7272f54bb563cff5c2f4c1eaf58e1fdc92c07ab3973a7571b0e7f0d9ddec4000678c1bd923bf60778a295ab716cb99d9ef2ecada5e28c1981baa39f6cf1f97bda2d16bf88eb83d7216790626ad69c29147024fec6a3e08860ffab454701c7eb9201072f2c4345bef0e1626df0d73694941b719503f9751d7798be3c0c650f58b0ce4c2688424407f8ae03267060717d18825b36fd2ff7ddcbae0176f1eea6945790620008313a874b465daf753a7439d184e8b43b69938f428d9a575297d5ac0d1acfba4d71e339a674acadaf974b193d92a043aabf07d770d8e7ea3a184ba19273e30e240009d308713028e32e9e87412379136ea9520836855a3288d18b6f237aa63ad91a7a305e1435e3a0ce5559527ce796ec05f74e38cef5f8f8adee3a53091566d7ed7f010aa535d0c776eb055d37d88c5b417d70bd25b2960c8348b50ccab34b33b448b6ca2c135ab0a7eb46a83d0c16ef80b274aab900645592ce3938e910520cd4bc5d2e000c35f9eaef5c50e3c963cc7d90e537fa847851bdd8f4749d9ddda686745ef7f011410d3a01750f973f7fec60720fef406200d7142d47b3afebd485627379604e24000e1c92829f77e54a12265b13a03401fd9814531bc30943cc3b53f698b7661d48a620f0a3f938600db9b74dc5821fe7c150d45a99ab38ed7d1160f7f09088ea6edc010f070ceb1a2bb69a86d21310e41f7ecb2121fe0e24d657ee5dac7b08dcabdee2510fd66a4d8381477b5d6d90b1e7397667de7e9773e5869bf755dfc0a68cf893a60112bafe14f01a1b907a5ae266367874fa16871962d5e2721469bced722317ceada90cea873861e93c0956d034d994a9b3a988b606ea7588c83a32834807fce79ffc01669558b1000154d40015ccceeb29348f71bdd22ffef43a2a19c1f5b5e17c5cca5411529120182672ade5000000000002281700010000000000000000000000000000000000000000000000000000001325ae7990000000000000000000000000a0b86991c6218b36c1d19d4a2e9eb0ce3606eb4800020000000000000000000000001a0b5f2eade71626d051c29ef425d9c49dc87aea000200000000000000000000000000000000000000000000000000000000000000000000000000000000",
                    "decodedMethod": {
                        "callParams": [
                            {
                                "name": "encodedVm",
                                "type": "bytes",
                                "value": "0x01000000040d01da190837d187c12c3498bc081b04ddf2e8a0ea7c87bbec7fd5109127d47400ed252c81ff637ed907bfe440fa1885ee5afd820d3d9d3bbe3ad61b1e887f0cbeb90002e4f87a31570cae4132fb413a76f693919c30346a91763cc1feed5ec5f321b0184d3f97257bf08a3d6e8af403f03e5015456ae023071152366196d4eead2d7912000368ab79e61b19a98fd24a676ba416e67915e3559d0a1854902669ad5e3a15eaf9355a2195433245b3a0d2dbe03436c8f09ee6427b4ebb076b7662e88f1e035d76010471c5b389ec9902d315247b374a5dafe03ec5bf453b93f948f1c7525f4e1ebf8172b7272f54bb563cff5c2f4c1eaf58e1fdc92c07ab3973a7571b0e7f0d9ddec4000678c1bd923bf60778a295ab716cb99d9ef2ecada5e28c1981baa39f6cf1f97bda2d16bf88eb83d7216790626ad69c29147024fec6a3e08860ffab454701c7eb9201072f2c4345bef0e1626df0d73694941b719503f9751d7798be3c0c650f58b0ce4c2688424407f8ae03267060717d18825b36fd2ff7ddcbae0176f1eea6945790620008313a874b465daf753a7439d184e8b43b69938f428d9a575297d5ac0d1acfba4d71e339a674acadaf974b193d92a043aabf07d770d8e7ea3a184ba19273e30e240009d308713028e32e9e87412379136ea9520836855a3288d18b6f237aa63ad91a7a305e1435e3a0ce5559527ce796ec05f74e38cef5f8f8adee3a53091566d7ed7f010aa535d0c776eb055d37d88c5b417d70bd25b2960c8348b50ccab34b33b448b6ca2c135ab0a7eb46a83d0c16ef80b274aab900645592ce3938e910520cd4bc5d2e000c35f9eaef5c50e3c963cc7d90e537fa847851bdd8f4749d9ddda686745ef7f011410d3a01750f973f7fec60720fef406200d7142d47b3afebd485627379604e24000e1c92829f77e54a12265b13a03401fd9814531bc30943cc3b53f698b7661d48a620f0a3f938600db9b74dc5821fe7c150d45a99ab38ed7d1160f7f09088ea6edc010f070ceb1a2bb69a86d21310e41f7ecb2121fe0e24d657ee5dac7b08dcabdee2510fd66a4d8381477b5d6d90b1e7397667de7e9773e5869bf755dfc0a68cf893a60112bafe14f01a1b907a5ae266367874fa16871962d5e2721469bced722317ceada90cea873861e93c0956d034d994a9b3a988b606ea7588c83a32834807fce79ffc01669558b1000154d40015ccceeb29348f71bdd22ffef43a2a19c1f5b5e17c5cca5411529120182672ade5000000000002281700010000000000000000000000000000000000000000000000000000001325ae7990000000000000000000000000a0b86991c6218b36c1d19d4a2e9eb0ce3606eb4800020000000000000000000000001a0b5f2eade71626d051c29ef425d9c49dc87aea00020000000000000000000000000000000000000000000000000000000000000000"
                            }
                        ],
                        "constructorArguments": "",
                        "name": "completeTransfer",
                        "returnParams": [],
                        "signature": "completeTransfer(bytes)"
                    },
                    "errorInfo": "",
                    "fromAddress": "0x1a0b5f2eade71626d051c29ef425d9c49dc87aea",
                    "gasUsed": 265770,
                    "id": 0,
                    "methodDecoded": true,
                    "operation": "CALL",
                    "output": "",
                    "revert": false,
                    "revertMessage": "",
                    "selector": "0xc6878519",
                    "status": true,
                    "value": "0"
                },
                "nodeType": 0
            },
            "1": {
                "invocation": {
                    "address": "0x381752f5458282d317d12c30d2bd4d6e1fd8841e",
                    "callData": "0x0000000000000000000000000000000000000000000000000000000000000020000000000000000000000000000000000000000000000000000000000000041801000000040d01da190837d187c12c3498bc081b04ddf2e8a0ea7c87bbec7fd5109127d47400ed252c81ff637ed907bfe440fa1885ee5afd820d3d9d3bbe3ad61b1e887f0cbeb90002e4f87a31570cae4132fb413a76f693919c30346a91763cc1feed5ec5f321b0184d3f97257bf08a3d6e8af403f03e5015456ae023071152366196d4eead2d7912000368ab79e61b19a98fd24a676ba416e67915e3559d0a1854902669ad5e3a15eaf9355a2195433245b3a0d2dbe03436c8f09ee6427b4ebb076b7662e88f1e035d76010471c5b389ec9902d315247b374a5dafe03ec5bf453b93f948f1c7525f4e1ebf8172b7272f54bb563cff5c2f4c1eaf58e1fdc92c07ab3973a7571b0e7f0d9ddec4000678c1bd923bf60778a295ab716cb99d9ef2ecada5e28c1981baa39f6cf1f97bda2d16bf88eb83d7216790626ad69c29147024fec6a3e08860ffab454701c7eb9201072f2c4345bef0e1626df0d73694941b719503f9751d7798be3c0c650f58b0ce4c2688424407f8ae03267060717d18825b36fd2ff7ddcbae0176f1eea6945790620008313a874b465daf753a7439d184e8b43b69938f428d9a575297d5ac0d1acfba4d71e339a674acadaf974b193d92a043aabf07d770d8e7ea3a184ba19273e30e240009d308713028e32e9e87412379136ea9520836855a3288d18b6f237aa63ad91a7a305e1435e3a0ce5559527ce796ec05f74e38cef5f8f8adee3a53091566d7ed7f010aa535d0c776eb055d37d88c5b417d70bd25b2960c8348b50ccab34b33b448b6ca2c135ab0a7eb46a83d0c16ef80b274aab900645592ce3938e910520cd4bc5d2e000c35f9eaef5c50e3c963cc7d90e537fa847851bdd8f4749d9ddda686745ef7f011410d3a01750f973f7fec60720fef406200d7142d47b3afebd485627379604e24000e1c92829f77e54a12265b13a03401fd9814531bc30943cc3b53f698b7661d48a620f0a3f938600db9b74dc5821fe7c150d45a99ab38ed7d1160f7f09088ea6edc010f070ceb1a2bb69a86d21310e41f7ecb2121fe0e24d657ee5dac7b08dcabdee2510fd66a4d8381477b5d6d90b1e7397667de7e9773e5869bf755dfc0a68cf893a60112bafe14f01a1b907a5ae266367874fa16871962d5e2721469bced722317ceada90cea873861e93c0956d034d994a9b3a988b606ea7588c83a32834807fce79ffc01669558b1000154d40015ccceeb29348f71bdd22ffef43a2a19c1f5b5e17c5cca5411529120182672ade5000000000002281700010000000000000000000000000000000000000000000000000000001325ae7990000000000000000000000000a0b86991c6218b36c1d19d4a2e9eb0ce3606eb4800020000000000000000000000001a0b5f2eade71626d051c29ef425d9c49dc87aea000200000000000000000000000000000000000000000000000000000000000000000000000000000000",
                    "decodedMethod": {
                        "callParams": [
                            {
                                "name": "encodedVm",
                                "type": "bytes",
                                "value": "0x01000000040d01da190837d187c12c3498bc081b04ddf2e8a0ea7c87bbec7fd5109127d47400ed252c81ff637ed907bfe440fa1885ee5afd820d3d9d3bbe3ad61b1e887f0cbeb90002e4f87a31570cae4132fb413a76f693919c30346a91763cc1feed5ec5f321b0184d3f97257bf08a3d6e8af403f03e5015456ae023071152366196d4eead2d7912000368ab79e61b19a98fd24a676ba416e67915e3559d0a1854902669ad5e3a15eaf9355a2195433245b3a0d2dbe03436c8f09ee6427b4ebb076b7662e88f1e035d76010471c5b389ec9902d315247b374a5dafe03ec5bf453b93f948f1c7525f4e1ebf8172b7272f54bb563cff5c2f4c1eaf58e1fdc92c07ab3973a7571b0e7f0d9ddec4000678c1bd923bf60778a295ab716cb99d9ef2ecada5e28c1981baa39f6cf1f97bda2d16bf88eb83d7216790626ad69c29147024fec6a3e08860ffab454701c7eb9201072f2c4345bef0e1626df0d73694941b719503f9751d7798be3c0c650f58b0ce4c2688424407f8ae03267060717d18825b36fd2ff7ddcbae0176f1eea6945790620008313a874b465daf753a7439d184e8b43b69938f428d9a575297d5ac0d1acfba4d71e339a674acadaf974b193d92a043aabf07d770d8e7ea3a184ba19273e30e240009d308713028e32e9e87412379136ea9520836855a3288d18b6f237aa63ad91a7a305e1435e3a0ce5559527ce796ec05f74e38cef5f8f8adee3a53091566d7ed7f010aa535d0c776eb055d37d88c5b417d70bd25b2960c8348b50ccab34b33b448b6ca2c135ab0a7eb46a83d0c16ef80b274aab900645592ce3938e910520cd4bc5d2e000c35f9eaef5c50e3c963cc7d90e537fa847851bdd8f4749d9ddda686745ef7f011410d3a01750f973f7fec60720fef406200d7142d47b3afebd485627379604e24000e1c92829f77e54a12265b13a03401fd9814531bc30943cc3b53f698b7661d48a620f0a3f938600db9b74dc5821fe7c150d45a99ab38ed7d1160f7f09088ea6edc010f070ceb1a2bb69a86d21310e41f7ecb2121fe0e24d657ee5dac7b08dcabdee2510fd66a4d8381477b5d6d90b1e7397667de7e9773e5869bf755dfc0a68cf893a60112bafe14f01a1b907a5ae266367874fa16871962d5e2721469bced722317ceada90cea873861e93c0956d034d994a9b3a988b606ea7588c83a32834807fce79ffc01669558b1000154d40015ccceeb29348f71bdd22ffef43a2a19c1f5b5e17c5cca5411529120182672ade5000000000002281700010000000000000000000000000000000000000000000000000000001325ae7990000000000000000000000000a0b86991c6218b36c1d19d4a2e9eb0ce3606eb4800020000000000000000000000001a0b5f2eade71626d051c29ef425d9c49dc87aea00020000000000000000000000000000000000000000000000000000000000000000"
                            }
                        ],
                        "constructorArguments": "",
                        "name": "completeTransfer",
                        "returnParams": [],
                        "signature": "completeTransfer(bytes)"
                    },
                    "errorInfo": "",
                    "fromAddress": "0x3ee18b2214aff97000d974cf647e7c347e8fa585",
                    "gasUsed": 223788,
                    "id": 1,
                    "methodDecoded": true,
                    "operation": "DELEGATECALL",
                    "output": "",
                    "revert": false,
                    "revertMessage": "",
                    "selector": "0xc6878519",
                    "status": true,
                    "value": "0"
                },
                "nodeType": 0
            },
            "10": {
                "invocation": {
                    "address": "0x0000000000000000000000000000000000000001",
                    "callData": "0xc0e6b690d70676fa5cf635006b08152ddf135f4161b078ba1ee70811000000000000000000000000000000000000000000000000000000000000001b313a874b465daf753a7439d184e8b43b69938f428d9a575297d5ac0d1acfba4d71e339a674acadaf974b193d92a043aabf07d770d8e7ea3a184ba19273e30e24",
                    "decodedMethod": {
                        "callParams": [
                            {
                                "name": "hash",
                                "type": "bytes32",
                                "value": "0x6d68fa59c0e6b690d70676fa5cf635006b08152ddf135f4161b078ba1ee70811"
                            },
                            {
                                "name": "v",
                                "type": "uint256",
                                "value": "27"
                            },
                            {
                                "name": "r",
                                "type": "bytes32",
                                "value": "0x313a874b465daf753a7439d184e8b43b69938f428d9a575297d5ac0d1acfba4d"
                            },
                            {
                                "name": "s",
                                "type": "bytes32",
                                "value": "0x71e339a674acadaf974b193d92a043aabf07d770d8e7ea3a184ba19273e30e24"
                            }
                        ],
                        "constructorArguments": "",
                        "name": "ecrecover",
                        "returnParams": [
                            {
                                "name": "",
                                "type": "address",
                                "value": "0x74a3bf913953d695260d88bc1aa25a4eee363ef0"
                            }
                        ],
                        "signature": "ecrecover(bytes32,uint256,bytes32,bytes32)"
                    },
                    "errorInfo": "",
                    "fromAddress": "0x98f3c9e6e3face36baad05fe09d375ef1464288b",
                    "gasUsed": 3000,
                    "id": 10,
                    "methodDecoded": true,
                    "operation": "STATICCALL",
                    "output": "0x00000000000000000000000074a3bf913953d695260d88bc1aa25a4eee363ef0",
                    "revert": false,
                    "revertMessage": "",
                    "selector": "0x6d68fa59",
                    "status": true,
                    "value": "0"
                },
                "nodeType": 0
            },
            "11": {
                "invocation": {
                    "address": "0x0000000000000000000000000000000000000001",
                    "callData": "0xc0e6b690d70676fa5cf635006b08152ddf135f4161b078ba1ee70811000000000000000000000000000000000000000000000000000000000000001cd308713028e32e9e87412379136ea9520836855a3288d18b6f237aa63ad91a7a305e1435e3a0ce5559527ce796ec05f74e38cef5f8f8adee3a53091566d7ed7f",
                    "decodedMethod": {
                        "callParams": [
                            {
                                "name": "hash",
                                "type": "bytes32",
                                "value": "0x6d68fa59c0e6b690d70676fa5cf635006b08152ddf135f4161b078ba1ee70811"
                            },
                            {
                                "name": "v",
                                "type": "uint256",
                                "value": "28"
                            },
                            {
                                "name": "r",
                                "type": "bytes32",
                                "value": "0xd308713028e32e9e87412379136ea9520836855a3288d18b6f237aa63ad91a7a"
                            },
                            {
                                "name": "s",
                                "type": "bytes32",
                                "value": "0x305e1435e3a0ce5559527ce796ec05f74e38cef5f8f8adee3a53091566d7ed7f"
                            }
                        ],
                        "constructorArguments": "",
                        "name": "ecrecover",
                        "returnParams": [
                            {
                                "name": "",
                                "type": "address",
                                "value": "0x000ac0076727b35fbea2dac28fee5ccb0fea768e"
                            }
                        ],
                        "signature": "ecrecover(bytes32,uint256,bytes32,bytes32)"
                    },
                    "errorInfo": "",
                    "fromAddress": "0x98f3c9e6e3face36baad05fe09d375ef1464288b",
                    "gasUsed": 3000,
                    "id": 11,
                    "methodDecoded": true,
                    "operation": "STATICCALL",
                    "output": "0x000000000000000000000000000ac0076727b35fbea2dac28fee5ccb0fea768e",
                    "revert": false,
                    "revertMessage": "",
                    "selector": "0x6d68fa59",
                    "status": true,
                    "value": "0"
                },
                "nodeType": 0
            },
            "12": {
                "invocation": {
                    "address": "0x0000000000000000000000000000000000000001",
                    "callData": "0xc0e6b690d70676fa5cf635006b08152ddf135f4161b078ba1ee70811000000000000000000000000000000000000000000000000000000000000001ba535d0c776eb055d37d88c5b417d70bd25b2960c8348b50ccab34b33b448b6ca2c135ab0a7eb46a83d0c16ef80b274aab900645592ce3938e910520cd4bc5d2e",
                    "decodedMethod": {
                        "callParams": [
                            {
                                "name": "hash",
                                "type": "bytes32",
                                "value": "0x6d68fa59c0e6b690d70676fa5cf635006b08152ddf135f4161b078ba1ee70811"
                            },
                            {
                                "name": "v",
                                "type": "uint256",
                                "value": "27"
                            },
                            {
                                "name": "r",
                                "type": "bytes32",
                                "value": "0xa535d0c776eb055d37d88c5b417d70bd25b2960c8348b50ccab34b33b448b6ca"
                            },
                            {
                                "name": "s",
                                "type": "bytes32",
                                "value": "0x2c135ab0a7eb46a83d0c16ef80b274aab900645592ce3938e910520cd4bc5d2e"
                            }
                        ],
                        "constructorArguments": "",
                        "name": "ecrecover",
                        "returnParams": [
                            {
                                "name": "",
                                "type": "address",
                                "value": "0xaf45ced136b9d9e24903464ae889f5c8a723fc14"
                            }
                        ],
                        "signature": "ecrecover(bytes32,uint256,bytes32,bytes32)"
                    },
                    "errorInfo": "",
                    "fromAddress": "0x98f3c9e6e3face36baad05fe09d375ef1464288b",
                    "gasUsed": 3000,
                    "id": 12,
                    "methodDecoded": true,
                    "operation": "STATICCALL",
                    "output": "0x000000000000000000000000af45ced136b9d9e24903464ae889f5c8a723fc14",
                    "revert": false,
                    "revertMessage": "",
                    "selector": "0x6d68fa59",
                    "status": true,
                    "value": "0"
                },
                "nodeType": 0
            },
            "13": {
                "invocation": {
                    "address": "0x0000000000000000000000000000000000000001",
                    "callData": "0xc0e6b690d70676fa5cf635006b08152ddf135f4161b078ba1ee70811000000000000000000000000000000000000000000000000000000000000001b35f9eaef5c50e3c963cc7d90e537fa847851bdd8f4749d9ddda686745ef7f011410d3a01750f973f7fec60720fef406200d7142d47b3afebd485627379604e24",
                    "decodedMethod": {
                        "callParams": [
                            {
                                "name": "hash",
                                "type": "bytes32",
                                "value": "0x6d68fa59c0e6b690d70676fa5cf635006b08152ddf135f4161b078ba1ee70811"
                            },
                            {
                                "name": "v",
                                "type": "uint256",
                                "value": "27"
                            },
                            {
                                "name": "r",
                                "type": "bytes32",
                                "value": "0x35f9eaef5c50e3c963cc7d90e537fa847851bdd8f4749d9ddda686745ef7f011"
                            },
                            {
                                "name": "s",
                                "type": "bytes32",
                                "value": "0x410d3a01750f973f7fec60720fef406200d7142d47b3afebd485627379604e24"
                            }
                        ],
                        "constructorArguments": "",
                        "name": "ecrecover",
                        "returnParams": [
                            {
                                "name": "",
                                "type": "address",
                                "value": "0xd2cc37a4dc036a8d232b48f62cdd4731412f4890"
                            }
                        ],
                        "signature": "ecrecover(bytes32,uint256,bytes32,bytes32)"
                    },
                    "errorInfo": "",
                    "fromAddress": "0x98f3c9e6e3face36baad05fe09d375ef1464288b",
                    "gasUsed": 3000,
                    "id": 13,
                    "methodDecoded": true,
                    "operation": "STATICCALL",
                    "output": "0x000000000000000000000000d2cc37a4dc036a8d232b48f62cdd4731412f4890",
                    "revert": false,
                    "revertMessage": "",
                    "selector": "0x6d68fa59",
                    "status": true,
                    "value": "0"
                },
                "nodeType": 0
            },
            "14": {
                "invocation": {
                    "address": "0x0000000000000000000000000000000000000001",
                    "callData": "0xc0e6b690d70676fa5cf635006b08152ddf135f4161b078ba1ee70811000000000000000000000000000000000000000000000000000000000000001c1c92829f77e54a12265b13a03401fd9814531bc30943cc3b53f698b7661d48a620f0a3f938600db9b74dc5821fe7c150d45a99ab38ed7d1160f7f09088ea6edc",
                    "decodedMethod": {
                        "callParams": [
                            {
                                "name": "hash",
                                "type": "bytes32",
                                "value": "0x6d68fa59c0e6b690d70676fa5cf635006b08152ddf135f4161b078ba1ee70811"
                            },
                            {
                                "name": "v",
                                "type": "uint256",
                                "value": "28"
                            },
                            {
                                "name": "r",
                                "type": "bytes32",
                                "value": "0x1c92829f77e54a12265b13a03401fd9814531bc30943cc3b53f698b7661d48a6"
                            },
                            {
                                "name": "s",
                                "type": "bytes32",
                                "value": "0x20f0a3f938600db9b74dc5821fe7c150d45a99ab38ed7d1160f7f09088ea6edc"
                            }
                        ],
                        "constructorArguments": "",
                        "name": "ecrecover",
                        "returnParams": [
                            {
                                "name": "",
                                "type": "address",
                                "value": "0x71aa1be1d36cafe3867910f99c09e347899c19c3"
                            }
                        ],
                        "signature": "ecrecover(bytes32,uint256,bytes32,bytes32)"
                    },
                    "errorInfo": "",
                    "fromAddress": "0x98f3c9e6e3face36baad05fe09d375ef1464288b",
                    "gasUsed": 3000,
                    "id": 14,
                    "methodDecoded": true,
                    "operation": "STATICCALL",
                    "output": "0x00000000000000000000000071aa1be1d36cafe3867910f99c09e347899c19c3",
                    "revert": false,
                    "revertMessage": "",
                    "selector": "0x6d68fa59",
                    "status": true,
                    "value": "0"
                },
                "nodeType": 0
            },
            "15": {
                "invocation": {
                    "address": "0x0000000000000000000000000000000000000001",
                    "callData": "0xc0e6b690d70676fa5cf635006b08152ddf135f4161b078ba1ee70811000000000000000000000000000000000000000000000000000000000000001c070ceb1a2bb69a86d21310e41f7ecb2121fe0e24d657ee5dac7b08dcabdee2510fd66a4d8381477b5d6d90b1e7397667de7e9773e5869bf755dfc0a68cf893a6",
                    "decodedMethod": {
                        "callParams": [
                            {
                                "name": "hash",
                                "type": "bytes32",
                                "value": "0x6d68fa59c0e6b690d70676fa5cf635006b08152ddf135f4161b078ba1ee70811"
                            },
                            {
                                "name": "v",
                                "type": "uint256",
                                "value": "28"
                            },
                            {
                                "name": "r",
                                "type": "bytes32",
                                "value": "0x070ceb1a2bb69a86d21310e41f7ecb2121fe0e24d657ee5dac7b08dcabdee251"
                            },
                            {
                                "name": "s",
                                "type": "bytes32",
                                "value": "0x0fd66a4d8381477b5d6d90b1e7397667de7e9773e5869bf755dfc0a68cf893a6"
                            }
                        ],
                        "constructorArguments": "",
                        "name": "ecrecover",
                        "returnParams": [
                            {
                                "name": "",
                                "type": "address",
                                "value": "0x8192b6e7387ccd768277c17dab1b7a5027c0b3cf"
                            }
                        ],
                        "signature": "ecrecover(bytes32,uint256,bytes32,bytes32)"
                    },
                    "errorInfo": "",
                    "fromAddress": "0x98f3c9e6e3face36baad05fe09d375ef1464288b",
                    "gasUsed": 3000,
                    "id": 15,
                    "methodDecoded": true,
                    "operation": "STATICCALL",
                    "output": "0x0000000000000000000000008192b6e7387ccd768277c17dab1b7a5027c0b3cf",
                    "revert": false,
                    "revertMessage": "",
                    "selector": "0x6d68fa59",
                    "status": true,
                    "value": "0"
                },
                "nodeType": 0
            },
            "16": {
                "invocation": {
                    "address": "0x0000000000000000000000000000000000000001",
                    "callData": "0xc0e6b690d70676fa5cf635006b08152ddf135f4161b078ba1ee70811000000000000000000000000000000000000000000000000000000000000001cbafe14f01a1b907a5ae266367874fa16871962d5e2721469bced722317ceada90cea873861e93c0956d034d994a9b3a988b606ea7588c83a32834807fce79ffc",
                    "decodedMethod": {
                        "callParams": [
                            {
                                "name": "hash",
                                "type": "bytes32",
                                "value": "0x6d68fa59c0e6b690d70676fa5cf635006b08152ddf135f4161b078ba1ee70811"
                            },
                            {
                                "name": "v",
                                "type": "uint256",
                                "value": "28"
                            },
                            {
                                "name": "r",
                                "type": "bytes32",
                                "value": "0xbafe14f01a1b907a5ae266367874fa16871962d5e2721469bced722317ceada9"
                            },
                            {
                                "name": "s",
                                "type": "bytes32",
                                "value": "0x0cea873861e93c0956d034d994a9b3a988b606ea7588c83a32834807fce79ffc"
                            }
                        ],
                        "constructorArguments": "",
                        "name": "ecrecover",
                        "returnParams": [
                            {
                                "name": "",
                                "type": "address",
                                "value": "0x6fbebc898f403e4773e95feb15e80c9a99c8348d"
                            }
                        ],
                        "signature": "ecrecover(bytes32,uint256,bytes32,bytes32)"
                    },
                    "errorInfo": "",
                    "fromAddress": "0x98f3c9e6e3face36baad05fe09d375ef1464288b",
                    "gasUsed": 3000,
                    "id": 16,
                    "methodDecoded": true,
                    "operation": "STATICCALL",
                    "output": "0x0000000000000000000000006fbebc898f403e4773e95feb15e80c9a99c8348d",
                    "revert": false,
                    "revertMessage": "",
                    "selector": "0x6d68fa59",
                    "status": true,
                    "value": "0"
                },
                "nodeType": 0
            },
            "17": {
                "event": {
                    "contract": "0x3ee18b2214aff97000d974cf647e7c347e8fa585",
                    "decodedLog": {
                        "name": "TransferRedeemed",
                        "params": [
                            {
                                "name": "emitterChainId",
                                "type": "uint16",
                                "value": "21"
                            },
                            {
                                "name": "emitterAddress",
                                "type": "bytes32",
                                "value": "0xccceeb29348f71bdd22ffef43a2a19c1f5b5e17c5cca5411529120182672ade5"
                            },
                            {
                                "name": "sequence",
                                "type": "uint64",
                                "value": "141,335"
                            }
                        ],
                        "signature": "TransferRedeemed(uint16,bytes32,uint64)"
                    },
                    "id": 17,
                    "logData": "0x",
                    "logDecoded": true,
                    "operation": "EVENT",
                    "revert": false,
                    "status": true,
                    "topics": [
                        "0xcaf280c8cfeba144da67230d9b009c8f868a75bac9a528fa0474be1ba317c169",
                        "0x0000000000000000000000000000000000000000000000000000000000000015",
                        "0xccceeb29348f71bdd22ffef43a2a19c1f5b5e17c5cca5411529120182672ade5",
                        "0x0000000000000000000000000000000000000000000000000000000000022817"
                    ]
                },
                "nodeType": 1
            },
            "18": {
                "invocation": {
                    "address": "0xa0b86991c6218b36c1d19d4a2e9eb0ce3606eb48",
                    "callData": "0x",
                    "decodedMethod": {
                        "callParams": [],
                        "constructorArguments": "",
                        "name": "decimals",
                        "returnParams": [
                            {
                                "name": "",
                                "type": "uint8",
                                "value": "6"
                            }
                        ],
                        "signature": "decimals()"
                    },
                    "errorInfo": "",
                    "fromAddress": "0x3ee18b2214aff97000d974cf647e7c347e8fa585",
                    "gasUsed": 9664,
                    "id": 18,
                    "methodDecoded": true,
                    "operation": "STATICCALL",
                    "output": "0x0000000000000000000000000000000000000000000000000000000000000006",
                    "revert": false,
                    "revertMessage": "",
                    "selector": "0x313ce567",
                    "status": true,
                    "value": "0"
                },
                "nodeType": 0
            },
            "19": {
                "invocation": {
                    "address": "0x43506849d7c04f9138d1a2050bbf3a0c054402dd",
                    "callData": "0x",
                    "decodedMethod": {
                        "callParams": [],
                        "constructorArguments": "",
                        "name": "decimals",
                        "returnParams": [
                            {
                                "name": "",
                                "type": "uint8",
                                "value": "6"
                            }
                        ],
                        "signature": "decimals()"
                    },
                    "errorInfo": "",
                    "fromAddress": "0xa0b86991c6218b36c1d19d4a2e9eb0ce3606eb48",
                    "gasUsed": 2381,
                    "id": 19,
                    "methodDecoded": true,
                    "operation": "DELEGATECALL",
                    "output": "0x0000000000000000000000000000000000000000000000000000000000000006",
                    "revert": false,
                    "revertMessage": "",
                    "selector": "0x313ce567",
                    "status": true,
                    "value": "0"
                },
                "nodeType": 0
            },
            "2": {
                "invocation": {
                    "address": "0x98f3c9e6e3face36baad05fe09d375ef1464288b",
                    "callData": "0x0000000000000000000000000000000000000000000000000000000000000020000000000000000000000000000000000000000000000000000000000000041801000000040d01da190837d187c12c3498bc081b04ddf2e8a0ea7c87bbec7fd5109127d47400ed252c81ff637ed907bfe440fa1885ee5afd820d3d9d3bbe3ad61b1e887f0cbeb90002e4f87a31570cae4132fb413a76f693919c30346a91763cc1feed5ec5f321b0184d3f97257bf08a3d6e8af403f03e5015456ae023071152366196d4eead2d7912000368ab79e61b19a98fd24a676ba416e67915e3559d0a1854902669ad5e3a15eaf9355a2195433245b3a0d2dbe03436c8f09ee6427b4ebb076b7662e88f1e035d76010471c5b389ec9902d315247b374a5dafe03ec5bf453b93f948f1c7525f4e1ebf8172b7272f54bb563cff5c2f4c1eaf58e1fdc92c07ab3973a7571b0e7f0d9ddec4000678c1bd923bf60778a295ab716cb99d9ef2ecada5e28c1981baa39f6cf1f97bda2d16bf88eb83d7216790626ad69c29147024fec6a3e08860ffab454701c7eb9201072f2c4345bef0e1626df0d73694941b719503f9751d7798be3c0c650f58b0ce4c2688424407f8ae03267060717d18825b36fd2ff7ddcbae0176f1eea6945790620008313a874b465daf753a7439d184e8b43b69938f428d9a575297d5ac0d1acfba4d71e339a674acadaf974b193d92a043aabf07d770d8e7ea3a184ba19273e30e240009d308713028e32e9e87412379136ea9520836855a3288d18b6f237aa63ad91a7a305e1435e3a0ce5559527ce796ec05f74e38cef5f8f8adee3a53091566d7ed7f010aa535d0c776eb055d37d88c5b417d70bd25b2960c8348b50ccab34b33b448b6ca2c135ab0a7eb46a83d0c16ef80b274aab900645592ce3938e910520cd4bc5d2e000c35f9eaef5c50e3c963cc7d90e537fa847851bdd8f4749d9ddda686745ef7f011410d3a01750f973f7fec60720fef406200d7142d47b3afebd485627379604e24000e1c92829f77e54a12265b13a03401fd9814531bc30943cc3b53f698b7661d48a620f0a3f938600db9b74dc5821fe7c150d45a99ab38ed7d1160f7f09088ea6edc010f070ceb1a2bb69a86d21310e41f7ecb2121fe0e24d657ee5dac7b08dcabdee2510fd66a4d8381477b5d6d90b1e7397667de7e9773e5869bf755dfc0a68cf893a60112bafe14f01a1b907a5ae266367874fa16871962d5e2721469bced722317ceada90cea873861e93c0956d034d994a9b3a988b606ea7588c83a32834807fce79ffc01669558b1000154d40015ccceeb29348f71bdd22ffef43a2a19c1f5b5e17c5cca5411529120182672ade5000000000002281700010000000000000000000000000000000000000000000000000000001325ae7990000000000000000000000000a0b86991c6218b36c1d19d4a2e9eb0ce3606eb4800020000000000000000000000001a0b5f2eade71626d051c29ef425d9c49dc87aea000200000000000000000000000000000000000000000000000000000000000000000000000000000000",
                    "decodedMethod": {
                        "callParams": [
                            {
                                "name": "encodedVM",
                                "type": "bytes",
                                "value": "0x01000000040d01da190837d187c12c3498bc081b04ddf2e8a0ea7c87bbec7fd5109127d47400ed252c81ff637ed907bfe440fa1885ee5afd820d3d9d3bbe3ad61b1e887f0cbeb90002e4f87a31570cae4132fb413a76f693919c30346a91763cc1feed5ec5f321b0184d3f97257bf08a3d6e8af403f03e5015456ae023071152366196d4eead2d7912000368ab79e61b19a98fd24a676ba416e67915e3559d0a1854902669ad5e3a15eaf9355a2195433245b3a0d2dbe03436c8f09ee6427b4ebb076b7662e88f1e035d76010471c5b389ec9902d315247b374a5dafe03ec5bf453b93f948f1c7525f4e1ebf8172b7272f54bb563cff5c2f4c1eaf58e1fdc92c07ab3973a7571b0e7f0d9ddec4000678c1bd923bf60778a295ab716cb99d9ef2ecada5e28c1981baa39f6cf1f97bda2d16bf88eb83d7216790626ad69c29147024fec6a3e08860ffab454701c7eb9201072f2c4345bef0e1626df0d73694941b719503f9751d7798be3c0c650f58b0ce4c2688424407f8ae03267060717d18825b36fd2ff7ddcbae0176f1eea6945790620008313a874b465daf753a7439d184e8b43b69938f428d9a575297d5ac0d1acfba4d71e339a674acadaf974b193d92a043aabf07d770d8e7ea3a184ba19273e30e240009d308713028e32e9e87412379136ea9520836855a3288d18b6f237aa63ad91a7a305e1435e3a0ce5559527ce796ec05f74e38cef5f8f8adee3a53091566d7ed7f010aa535d0c776eb055d37d88c5b417d70bd25b2960c8348b50ccab34b33b448b6ca2c135ab0a7eb46a83d0c16ef80b274aab900645592ce3938e910520cd4bc5d2e000c35f9eaef5c50e3c963cc7d90e537fa847851bdd8f4749d9ddda686745ef7f011410d3a01750f973f7fec60720fef406200d7142d47b3afebd485627379604e24000e1c92829f77e54a12265b13a03401fd9814531bc30943cc3b53f698b7661d48a620f0a3f938600db9b74dc5821fe7c150d45a99ab38ed7d1160f7f09088ea6edc010f070ceb1a2bb69a86d21310e41f7ecb2121fe0e24d657ee5dac7b08dcabdee2510fd66a4d8381477b5d6d90b1e7397667de7e9773e5869bf755dfc0a68cf893a60112bafe14f01a1b907a5ae266367874fa16871962d5e2721469bced722317ceada90cea873861e93c0956d034d994a9b3a988b606ea7588c83a32834807fce79ffc01669558b1000154d40015ccceeb29348f71bdd22ffef43a2a19c1f5b5e17c5cca5411529120182672ade5000000000002281700010000000000000000000000000000000000000000000000000000001325ae7990000000000000000000000000a0b86991c6218b36c1d19d4a2e9eb0ce3606eb4800020000000000000000000000001a0b5f2eade71626d051c29ef425d9c49dc87aea00020000000000000000000000000000000000000000000000000000000000000000"
                            }
                        ],
                        "constructorArguments": "",
                        "name": "parseAndVerifyVM",
                        "returnParams": [
                            {
                                "name": "vm",
                                "type": "(uint8,uint32,uint32,uint16,bytes32,uint64,uint8,bytes,uint32,(bytes32,bytes32,uint8,uint8)[],bytes32)",
                                "value": [
                                    {
                                        "name": "version",
                                        "type": "uint8",
                                        "value": "1"
                                    },
                                    {
                                        "name": "timestamp",
                                        "type": "uint32",
                                        "value": "1,721,063,601"
                                    },
                                    {
                                        "name": "nonce",
                                        "type": "uint32",
                                        "value": "87,252"
                                    },
                                    {
                                        "name": "emitterChainId",
                                        "type": "uint16",
                                        "value": "21"
                                    },
                                    {
                                        "name": "emitterAddress",
                                        "type": "bytes32",
                                        "value": "0xccceeb29348f71bdd22ffef43a2a19c1f5b5e17c5cca5411529120182672ade5"
                                    },
                                    {
                                        "name": "sequence",
                                        "type": "uint64",
                                        "value": "141,335"
                                    },
                                    {
                                        "name": "consistencyLevel",
                                        "type": "uint8",
                                        "value": "0"
                                    },
                                    {
                                        "name": "payload",
                                        "type": "bytes",
                                        "value": "0x010000000000000000000000000000000000000000000000000000001325ae7990000000000000000000000000a0b86991c6218b36c1d19d4a2e9eb0ce3606eb4800020000000000000000000000001a0b5f2eade71626d051c29ef425d9c49dc87aea00020000000000000000000000000000000000000000000000000000000000000000"
                                    },
                                    {
                                        "name": "guardianSetIndex",
                                        "type": "uint32",
                                        "value": "4"
                                    },
                                    {
                                        "name": "signatures",
                                        "type": "(bytes32,bytes32,uint8,uint8)[]",
                                        "value": [
                                            [
                                                {
                                                    "name": "r",
                                                    "type": "bytes32",
                                                    "value": "0xda190837d187c12c3498bc081b04ddf2e8a0ea7c87bbec7fd5109127d47400ed"
                                                },
                                                {
                                                    "name": "s",
                                                    "type": "bytes32",
                                                    "value": "0x252c81ff637ed907bfe440fa1885ee5afd820d3d9d3bbe3ad61b1e887f0cbeb9"
                                                },
                                                {
                                                    "name": "v",
                                                    "type": "uint8",
                                                    "value": "27"
                                                },
                                                {
                                                    "name": "guardianIndex",
                                                    "type": "uint8",
                                                    "value": "1"
                                                }
                                            ],
                                            [
                                                {
                                                    "name": "r",
                                                    "type": "bytes32",
                                                    "value": "0xe4f87a31570cae4132fb413a76f693919c30346a91763cc1feed5ec5f321b018"
                                                },
                                                {
                                                    "name": "s",
                                                    "type": "bytes32",
                                                    "value": "0x4d3f97257bf08a3d6e8af403f03e5015456ae023071152366196d4eead2d7912"
                                                },
                                                {
                                                    "name": "v",
                                                    "type": "uint8",
                                                    "value": "27"
                                                },
                                                {
                                                    "name": "guardianIndex",
                                                    "type": "uint8",
                                                    "value": "2"
                                                }
                                            ],
                                            [
                                                {
                                                    "name": "r",
                                                    "type": "bytes32",
                                                    "value": "0x68ab79e61b19a98fd24a676ba416e67915e3559d0a1854902669ad5e3a15eaf9"
                                                },
                                                {
                                                    "name": "s",
                                                    "type": "bytes32",
                                                    "value": "0x355a2195433245b3a0d2dbe03436c8f09ee6427b4ebb076b7662e88f1e035d76"
                                                },
                                                {
                                                    "name": "v",
                                                    "type": "uint8",
                                                    "value": "28"
                                                },
                                                {
                                                    "name": "guardianIndex",
                                                    "type": "uint8",
                                                    "value": "3"
                                                }
                                            ],
                                            [
                                                {
                                                    "name": "r",
                                                    "type": "bytes32",
                                                    "value": "0x71c5b389ec9902d315247b374a5dafe03ec5bf453b93f948f1c7525f4e1ebf81"
                                                },
                                                {
                                                    "name": "s",
                                                    "type": "bytes32",
                                                    "value": "0x72b7272f54bb563cff5c2f4c1eaf58e1fdc92c07ab3973a7571b0e7f0d9ddec4"
                                                },
                                                {
                                                    "name": "v",
                                                    "type": "uint8",
                                                    "value": "27"
                                                },
                                                {
                                                    "name": "guardianIndex",
                                                    "type": "uint8",
                                                    "value": "4"
                                                }
                                            ],
                                            [
                                                {
                                                    "name": "r",
                                                    "type": "bytes32",
                                                    "value": "0x78c1bd923bf60778a295ab716cb99d9ef2ecada5e28c1981baa39f6cf1f97bda"
                                                },
                                                {
                                                    "name": "s",
                                                    "type": "bytes32",
                                                    "value": "0x2d16bf88eb83d7216790626ad69c29147024fec6a3e08860ffab454701c7eb92"
                                                },
                                                {
                                                    "name": "v",
                                                    "type": "uint8",
                                                    "value": "28"
                                                },
                                                {
                                                    "name": "guardianIndex",
                                                    "type": "uint8",
                                                    "value": "6"
                                                }
                                            ],
                                            [
                                                {
                                                    "name": "r",
                                                    "type": "bytes32",
                                                    "value": "0x2f2c4345bef0e1626df0d73694941b719503f9751d7798be3c0c650f58b0ce4c"
                                                },
                                                {
                                                    "name": "s",
                                                    "type": "bytes32",
                                                    "value": "0x2688424407f8ae03267060717d18825b36fd2ff7ddcbae0176f1eea694579062"
                                                },
                                                {
                                                    "name": "v",
                                                    "type": "uint8",
                                                    "value": "27"
                                                },
                                                {
                                                    "name": "guardianIndex",
                                                    "type": "uint8",
                                                    "value": "7"
                                                }
                                            ],
                                            [
                                                {
                                                    "name": "r",
                                                    "type": "bytes32",
                                                    "value": "0x313a874b465daf753a7439d184e8b43b69938f428d9a575297d5ac0d1acfba4d"
                                                },
                                                {
                                                    "name": "s",
                                                    "type": "bytes32",
                                                    "value": "0x71e339a674acadaf974b193d92a043aabf07d770d8e7ea3a184ba19273e30e24"
                                                },
                                                {
                                                    "name": "v",
                                                    "type": "uint8",
                                                    "value": "27"
                                                },
                                                {
                                                    "name": "guardianIndex",
                                                    "type": "uint8",
                                                    "value": "8"
                                                }
                                            ],
                                            [
                                                {
                                                    "name": "r",
                                                    "type": "bytes32",
                                                    "value": "0xd308713028e32e9e87412379136ea9520836855a3288d18b6f237aa63ad91a7a"
                                                },
                                                {
                                                    "name": "s",
                                                    "type": "bytes32",
                                                    "value": "0x305e1435e3a0ce5559527ce796ec05f74e38cef5f8f8adee3a53091566d7ed7f"
                                                },
                                                {
                                                    "name": "v",
                                                    "type": "uint8",
                                                    "value": "28"
                                                },
                                                {
                                                    "name": "guardianIndex",
                                                    "type": "uint8",
                                                    "value": "9"
                                                }
                                            ],
                                            [
                                                {
                                                    "name": "r",
                                                    "type": "bytes32",
                                                    "value": "0xa535d0c776eb055d37d88c5b417d70bd25b2960c8348b50ccab34b33b448b6ca"
                                                },
                                                {
                                                    "name": "s",
                                                    "type": "bytes32",
                                                    "value": "0x2c135ab0a7eb46a83d0c16ef80b274aab900645592ce3938e910520cd4bc5d2e"
                                                },
                                                {
                                                    "name": "v",
                                                    "type": "uint8",
                                                    "value": "27"
                                                },
                                                {
                                                    "name": "guardianIndex",
                                                    "type": "uint8",
                                                    "value": "10"
                                                }
                                            ],
                                            [
                                                {
                                                    "name": "r",
                                                    "type": "bytes32",
                                                    "value": "0x35f9eaef5c50e3c963cc7d90e537fa847851bdd8f4749d9ddda686745ef7f011"
                                                },
                                                {
                                                    "name": "s",
                                                    "type": "bytes32",
                                                    "value": "0x410d3a01750f973f7fec60720fef406200d7142d47b3afebd485627379604e24"
                                                },
                                                {
                                                    "name": "v",
                                                    "type": "uint8",
                                                    "value": "27"
                                                },
                                                {
                                                    "name": "guardianIndex",
                                                    "type": "uint8",
                                                    "value": "12"
                                                }
                                            ],
                                            [
                                                {
                                                    "name": "r",
                                                    "type": "bytes32",
                                                    "value": "0x1c92829f77e54a12265b13a03401fd9814531bc30943cc3b53f698b7661d48a6"
                                                },
                                                {
                                                    "name": "s",
                                                    "type": "bytes32",
                                                    "value": "0x20f0a3f938600db9b74dc5821fe7c150d45a99ab38ed7d1160f7f09088ea6edc"
                                                },
                                                {
                                                    "name": "v",
                                                    "type": "uint8",
                                                    "value": "28"
                                                },
                                                {
                                                    "name": "guardianIndex",
                                                    "type": "uint8",
                                                    "value": "14"
                                                }
                                            ],
                                            [
                                                {
                                                    "name": "r",
                                                    "type": "bytes32",
                                                    "value": "0x070ceb1a2bb69a86d21310e41f7ecb2121fe0e24d657ee5dac7b08dcabdee251"
                                                },
                                                {
                                                    "name": "s",
                                                    "type": "bytes32",
                                                    "value": "0x0fd66a4d8381477b5d6d90b1e7397667de7e9773e5869bf755dfc0a68cf893a6"
                                                },
                                                {
                                                    "name": "v",
                                                    "type": "uint8",
                                                    "value": "28"
                                                },
                                                {
                                                    "name": "guardianIndex",
                                                    "type": "uint8",
                                                    "value": "15"
                                                }
                                            ],
                                            [
                                                {
                                                    "name": "r",
                                                    "type": "bytes32",
                                                    "value": "0xbafe14f01a1b907a5ae266367874fa16871962d5e2721469bced722317ceada9"
                                                },
                                                {
                                                    "name": "s",
                                                    "type": "bytes32",
                                                    "value": "0x0cea873861e93c0956d034d994a9b3a988b606ea7588c83a32834807fce79ffc"
                                                },
                                                {
                                                    "name": "v",
                                                    "type": "uint8",
                                                    "value": "28"
                                                },
                                                {
                                                    "name": "guardianIndex",
                                                    "type": "uint8",
                                                    "value": "18"
                                                }
                                            ]
                                        ]
                                    },
                                    {
                                        "name": "hash",
                                        "type": "bytes32",
                                        "value": "0x6d68fa59c0e6b690d70676fa5cf635006b08152ddf135f4161b078ba1ee70811"
                                    }
                                ]
                            },
                            {
                                "name": "valid",
                                "type": "bool",
                                "value": true
                            },
                            {
                                "name": "reason",
                                "type": "string",
                                "value": ""
                            }
                        ],
                        "signature": "parseAndVerifyVM(bytes)"
                    },
                    "errorInfo": "",
                    "fromAddress": "0x3ee18b2214aff97000d974cf647e7c347e8fa585",
                    "gasUsed": 134689,
                    "id": 2,
                    "methodDecoded": true,
                    "operation": "STATICCALL",
                    "output": "0x000000000000000000000000000000000000000000000000000000000000006000000000000000000000000000000000000000000000000000000000000000010000000000000000000000000000000000000000000000000000000000000920000000000000000000000000000000000000000000000000000000000000000100000000000000000000000000000000000000000000000000000000669558b100000000000000000000000000000000000000000000000000000000000154d40000000000000000000000000000000000000000000000000000000000000015ccceeb29348f71bdd22ffef43a2a19c1f5b5e17c5cca5411529120182672ade5000000000000000000000000000000000000000000000000000000000002281700000000000000000000000000000000000000000000000000000000000000000000000000000000000000000000000000000000000000000000000000000160000000000000000000000000000000000000000000000000000000000000000400000000000000000000000000000000000000000000000000000000000002206d68fa59c0e6b690d70676fa5cf635006b08152ddf135f4161b078ba1ee708110000000000000000000000000000000000000000000000000000000000000085010000000000000000000000000000000000000000000000000000001325ae7990000000000000000000000000a0b86991c6218b36c1d19d4a2e9eb0ce3606eb4800020000000000000000000000001a0b5f2eade71626d051c29ef425d9c49dc87aea00020000000000000000000000000000000000000000000000000000000000000000000000000000000000000000000000000000000000000000000000000000000000000000000000000000000000000000000000000000000000000dda190837d187c12c3498bc081b04ddf2e8a0ea7c87bbec7fd5109127d47400ed252c81ff637ed907bfe440fa1885ee5afd820d3d9d3bbe3ad61b1e887f0cbeb9000000000000000000000000000000000000000000000000000000000000001b0000000000000000000000000000000000000000000000000000000000000001e4f87a31570cae4132fb413a76f693919c30346a91763cc1feed5ec5f321b0184d3f97257bf08a3d6e8af403f03e5015456ae023071152366196d4eead2d7912000000000000000000000000000000000000000000000000000000000000001b000000000000000000000000000000000000000000000000000000000000000268ab79e61b19a98fd24a676ba416e67915e3559d0a1854902669ad5e3a15eaf9355a2195433245b3a0d2dbe03436c8f09ee6427b4ebb076b7662e88f1e035d76000000000000000000000000000000000000000000000000000000000000001c000000000000000000000000000000000000000000000000000000000000000371c5b389ec9902d315247b374a5dafe03ec5bf453b93f948f1c7525f4e1ebf8172b7272f54bb563cff5c2f4c1eaf58e1fdc92c07ab3973a7571b0e7f0d9ddec4000000000000000000000000000000000000000000000000000000000000001b000000000000000000000000000000000000000000000000000000000000000478c1bd923bf60778a295ab716cb99d9ef2ecada5e28c1981baa39f6cf1f97bda2d16bf88eb83d7216790626ad69c29147024fec6a3e08860ffab454701c7eb92000000000000000000000000000000000000000000000000000000000000001c00000000000000000000000000000000000000000000000000000000000000062f2c4345bef0e1626df0d73694941b719503f9751d7798be3c0c650f58b0ce4c2688424407f8ae03267060717d18825b36fd2ff7ddcbae0176f1eea694579062000000000000000000000000000000000000000000000000000000000000001b0000000000000000000000000000000000000000000000000000000000000007313a874b465daf753a7439d184e8b43b69938f428d9a575297d5ac0d1acfba4d71e339a674acadaf974b193d92a043aabf07d770d8e7ea3a184ba19273e30e24000000000000000000000000000000000000000000000000000000000000001b0000000000000000000000000000000000000000000000000000000000000008d308713028e32e9e87412379136ea9520836855a3288d18b6f237aa63ad91a7a305e1435e3a0ce5559527ce796ec05f74e38cef5f8f8adee3a53091566d7ed7f000000000000000000000000000000000000000000000000000000000000001c0000000000000000000000000000000000000000000000000000000000000009a535d0c776eb055d37d88c5b417d70bd25b2960c8348b50ccab34b33b448b6ca2c135ab0a7eb46a83d0c16ef80b274aab900645592ce3938e910520cd4bc5d2e000000000000000000000000000000000000000000000000000000000000001b000000000000000000000000000000000000000000000000000000000000000a35f9eaef5c50e3c963cc7d90e537fa847851bdd8f4749d9ddda686745ef7f011410d3a01750f973f7fec60720fef406200d7142d47b3afebd485627379604e24000000000000000000000000000000000000000000000000000000000000001b000000000000000000000000000000000000000000000000000000000000000c1c92829f77e54a12265b13a03401fd9814531bc30943cc3b53f698b7661d48a620f0a3f938600db9b74dc5821fe7c150d45a99ab38ed7d1160f7f09088ea6edc000000000000000000000000000000000000000000000000000000000000001c000000000000000000000000000000000000000000000000000000000000000e070ceb1a2bb69a86d21310e41f7ecb2121fe0e24d657ee5dac7b08dcabdee2510fd66a4d8381477b5d6d90b1e7397667de7e9773e5869bf755dfc0a68cf893a6000000000000000000000000000000000000000000000000000000000000001c000000000000000000000000000000000000000000000000000000000000000fbafe14f01a1b907a5ae266367874fa16871962d5e2721469bced722317ceada90cea873861e93c0956d034d994a9b3a988b606ea7588c83a32834807fce79ffc000000000000000000000000000000000000000000000000000000000000001c00000000000000000000000000000000000000000000000000000000000000120000000000000000000000000000000000000000000000000000000000000000",
                    "revert": false,
                    "revertMessage": "",
                    "selector": "0xc0fd8bde",
                    "status": true,
                    "value": "0"
                },
                "nodeType": 0
            },
            "20": {
                "invocation": {
                    "address": "0xa0b86991c6218b36c1d19d4a2e9eb0ce3606eb48",
                    "callData": "0x0000000000000000000000001a0b5f2eade71626d051c29ef425d9c49dc87aea0000000000000000000000000000000000000000000000000000001325ae7990",
                    "decodedMethod": {
                        "callParams": [
                            {
                                "name": "to",
                                "type": "address",
                                "value": "0x1a0b5f2eade71626d051c29ef425d9c49dc87aea"
                            },
                            {
                                "decimalAvailable": true,
                                "name": "value",
                                "type": "uint256",
                                "value": "82,236,570,000"
                            }
                        ],
                        "constructorArguments": "",
                        "name": "transfer",
                        "returnParams": [
                            {
                                "name": "",
                                "type": "bool",
                                "value": true
                            }
                        ],
                        "signature": "transfer(address,uint256)"
                    },
                    "errorInfo": "",
                    "fromAddress": "0x3ee18b2214aff97000d974cf647e7c347e8fa585",
                    "gasUsed": 17052,
                    "id": 20,
                    "methodDecoded": true,
                    "operation": "CALL",
                    "output": "0x0000000000000000000000000000000000000000000000000000000000000001",
                    "revert": false,
                    "revertMessage": "",
                    "selector": "0xa9059cbb",
                    "status": true,
                    "value": "0"
                },
                "nodeType": 0
            },
            "21": {
                "invocation": {
                    "address": "0x43506849d7c04f9138d1a2050bbf3a0c054402dd",
                    "callData": "0x0000000000000000000000001a0b5f2eade71626d051c29ef425d9c49dc87aea0000000000000000000000000000000000000000000000000000001325ae7990",
                    "decodedMethod": {
                        "callParams": [
                            {
                                "name": "to",
                                "type": "address",
                                "value": "0x1a0b5f2eade71626d051c29ef425d9c49dc87aea"
                            },
                            {
                                "decimalAvailable": true,
                                "name": "value",
                                "type": "uint256",
                                "value": "82,236,570,000"
                            }
                        ],
                        "constructorArguments": "",
                        "name": "transfer",
                        "returnParams": [
                            {
                                "name": "",
                                "type": "bool",
                                "value": true
                            }
                        ],
                        "signature": "transfer(address,uint256)"
                    },
                    "errorInfo": "",
                    "fromAddress": "0xa0b86991c6218b36c1d19d4a2e9eb0ce3606eb48",
                    "gasUsed": 16263,
                    "id": 21,
                    "methodDecoded": true,
                    "operation": "DELEGATECALL",
                    "output": "0x0000000000000000000000000000000000000000000000000000000000000001",
                    "revert": false,
                    "revertMessage": "",
                    "selector": "0xa9059cbb",
                    "status": true,
                    "value": "0"
                },
                "nodeType": 0
            },
            "22": {
                "event": {
                    "contract": "0xa0b86991c6218b36c1d19d4a2e9eb0ce3606eb48",
                    "decodedLog": {
                        "name": "Transfer",
                        "params": [
                            {
                                "name": "from",
                                "type": "address",
                                "value": "0x3ee18b2214aff97000d974cf647e7c347e8fa585"
                            },
                            {
                                "name": "to",
                                "type": "address",
                                "value": "0x1a0b5f2eade71626d051c29ef425d9c49dc87aea"
                            },
                            {
                                "decimalAvailable": true,
                                "name": "value",
                                "type": "uint256",
                                "value": "82,236,570,000"
                            }
                        ],
                        "signature": "Transfer(address,address,uint256)"
                    },
                    "id": 22,
                    "logData": "0x0000000000000000000000000000000000000000000000000000001325ae7990",
                    "logDecoded": true,
                    "operation": "EVENT",
                    "revert": false,
                    "status": true,
                    "topics": [
                        "0xddf252ad1be2c89b69c2b068fc378daa952ba7f163c4a11628f55a4df523b3ef",
                        "0x0000000000000000000000003ee18b2214aff97000d974cf647e7c347e8fa585",
                        "0x0000000000000000000000001a0b5f2eade71626d051c29ef425d9c49dc87aea"
                    ]
                },
                "nodeType": 1
            },
            "3": {
                "invocation": {
                    "address": "0x3c3d457f1522d3540ab3325aa5f1864e34cba9d0",
                    "callData": "0x0000000000000000000000000000000000000000000000000000000000000020000000000000000000000000000000000000000000000000000000000000041801000000040d01da190837d187c12c3498bc081b04ddf2e8a0ea7c87bbec7fd5109127d47400ed252c81ff637ed907bfe440fa1885ee5afd820d3d9d3bbe3ad61b1e887f0cbeb90002e4f87a31570cae4132fb413a76f693919c30346a91763cc1feed5ec5f321b0184d3f97257bf08a3d6e8af403f03e5015456ae023071152366196d4eead2d7912000368ab79e61b19a98fd24a676ba416e67915e3559d0a1854902669ad5e3a15eaf9355a2195433245b3a0d2dbe03436c8f09ee6427b4ebb076b7662e88f1e035d76010471c5b389ec9902d315247b374a5dafe03ec5bf453b93f948f1c7525f4e1ebf8172b7272f54bb563cff5c2f4c1eaf58e1fdc92c07ab3973a7571b0e7f0d9ddec4000678c1bd923bf60778a295ab716cb99d9ef2ecada5e28c1981baa39f6cf1f97bda2d16bf88eb83d7216790626ad69c29147024fec6a3e08860ffab454701c7eb9201072f2c4345bef0e1626df0d73694941b719503f9751d7798be3c0c650f58b0ce4c2688424407f8ae03267060717d18825b36fd2ff7ddcbae0176f1eea6945790620008313a874b465daf753a7439d184e8b43b69938f428d9a575297d5ac0d1acfba4d71e339a674acadaf974b193d92a043aabf07d770d8e7ea3a184ba19273e30e240009d308713028e32e9e87412379136ea9520836855a3288d18b6f237aa63ad91a7a305e1435e3a0ce5559527ce796ec05f74e38cef5f8f8adee3a53091566d7ed7f010aa535d0c776eb055d37d88c5b417d70bd25b2960c8348b50ccab34b33b448b6ca2c135ab0a7eb46a83d0c16ef80b274aab900645592ce3938e910520cd4bc5d2e000c35f9eaef5c50e3c963cc7d90e537fa847851bdd8f4749d9ddda686745ef7f011410d3a01750f973f7fec60720fef406200d7142d47b3afebd485627379604e24000e1c92829f77e54a12265b13a03401fd9814531bc30943cc3b53f698b7661d48a620f0a3f938600db9b74dc5821fe7c150d45a99ab38ed7d1160f7f09088ea6edc010f070ceb1a2bb69a86d21310e41f7ecb2121fe0e24d657ee5dac7b08dcabdee2510fd66a4d8381477b5d6d90b1e7397667de7e9773e5869bf755dfc0a68cf893a60112bafe14f01a1b907a5ae266367874fa16871962d5e2721469bced722317ceada90cea873861e93c0956d034d994a9b3a988b606ea7588c83a32834807fce79ffc01669558b1000154d40015ccceeb29348f71bdd22ffef43a2a19c1f5b5e17c5cca5411529120182672ade5000000000002281700010000000000000000000000000000000000000000000000000000001325ae7990000000000000000000000000a0b86991c6218b36c1d19d4a2e9eb0ce3606eb4800020000000000000000000000001a0b5f2eade71626d051c29ef425d9c49dc87aea000200000000000000000000000000000000000000000000000000000000000000000000000000000000",
                    "decodedMethod": {
                        "callParams": [
                            {
                                "name": "encodedVM",
                                "type": "bytes",
                                "value": "0x01000000040d01da190837d187c12c3498bc081b04ddf2e8a0ea7c87bbec7fd5109127d47400ed252c81ff637ed907bfe440fa1885ee5afd820d3d9d3bbe3ad61b1e887f0cbeb90002e4f87a31570cae4132fb413a76f693919c30346a91763cc1feed5ec5f321b0184d3f97257bf08a3d6e8af403f03e5015456ae023071152366196d4eead2d7912000368ab79e61b19a98fd24a676ba416e67915e3559d0a1854902669ad5e3a15eaf9355a2195433245b3a0d2dbe03436c8f09ee6427b4ebb076b7662e88f1e035d76010471c5b389ec9902d315247b374a5dafe03ec5bf453b93f948f1c7525f4e1ebf8172b7272f54bb563cff5c2f4c1eaf58e1fdc92c07ab3973a7571b0e7f0d9ddec4000678c1bd923bf60778a295ab716cb99d9ef2ecada5e28c1981baa39f6cf1f97bda2d16bf88eb83d7216790626ad69c29147024fec6a3e08860ffab454701c7eb9201072f2c4345bef0e1626df0d73694941b719503f9751d7798be3c0c650f58b0ce4c2688424407f8ae03267060717d18825b36fd2ff7ddcbae0176f1eea6945790620008313a874b465daf753a7439d184e8b43b69938f428d9a575297d5ac0d1acfba4d71e339a674acadaf974b193d92a043aabf07d770d8e7ea3a184ba19273e30e240009d308713028e32e9e87412379136ea9520836855a3288d18b6f237aa63ad91a7a305e1435e3a0ce5559527ce796ec05f74e38cef5f8f8adee3a53091566d7ed7f010aa535d0c776eb055d37d88c5b417d70bd25b2960c8348b50ccab34b33b448b6ca2c135ab0a7eb46a83d0c16ef80b274aab900645592ce3938e910520cd4bc5d2e000c35f9eaef5c50e3c963cc7d90e537fa847851bdd8f4749d9ddda686745ef7f011410d3a01750f973f7fec60720fef406200d7142d47b3afebd485627379604e24000e1c92829f77e54a12265b13a03401fd9814531bc30943cc3b53f698b7661d48a620f0a3f938600db9b74dc5821fe7c150d45a99ab38ed7d1160f7f09088ea6edc010f070ceb1a2bb69a86d21310e41f7ecb2121fe0e24d657ee5dac7b08dcabdee2510fd66a4d8381477b5d6d90b1e7397667de7e9773e5869bf755dfc0a68cf893a60112bafe14f01a1b907a5ae266367874fa16871962d5e2721469bced722317ceada90cea873861e93c0956d034d994a9b3a988b606ea7588c83a32834807fce79ffc01669558b1000154d40015ccceeb29348f71bdd22ffef43a2a19c1f5b5e17c5cca5411529120182672ade5000000000002281700010000000000000000000000000000000000000000000000000000001325ae7990000000000000000000000000a0b86991c6218b36c1d19d4a2e9eb0ce3606eb4800020000000000000000000000001a0b5f2eade71626d051c29ef425d9c49dc87aea00020000000000000000000000000000000000000000000000000000000000000000"
                            }
                        ],
                        "constructorArguments": "",
                        "name": "parseAndVerifyVM",
                        "returnParams": [
                            {
                                "name": "vm",
                                "type": "(uint8,uint32,uint32,uint16,bytes32,uint64,uint8,bytes,uint32,(bytes32,bytes32,uint8,uint8)[],bytes32)",
                                "value": [
                                    {
                                        "name": "version",
                                        "type": "uint8",
                                        "value": "1"
                                    },
                                    {
                                        "name": "timestamp",
                                        "type": "uint32",
                                        "value": "1,721,063,601"
                                    },
                                    {
                                        "name": "nonce",
                                        "type": "uint32",
                                        "value": "87,252"
                                    },
                                    {
                                        "name": "emitterChainId",
                                        "type": "uint16",
                                        "value": "21"
                                    },
                                    {
                                        "name": "emitterAddress",
                                        "type": "bytes32",
                                        "value": "0xccceeb29348f71bdd22ffef43a2a19c1f5b5e17c5cca5411529120182672ade5"
                                    },
                                    {
                                        "name": "sequence",
                                        "type": "uint64",
                                        "value": "141,335"
                                    },
                                    {
                                        "name": "consistencyLevel",
                                        "type": "uint8",
                                        "value": "0"
                                    },
                                    {
                                        "name": "payload",
                                        "type": "bytes",
                                        "value": "0x010000000000000000000000000000000000000000000000000000001325ae7990000000000000000000000000a0b86991c6218b36c1d19d4a2e9eb0ce3606eb4800020000000000000000000000001a0b5f2eade71626d051c29ef425d9c49dc87aea00020000000000000000000000000000000000000000000000000000000000000000"
                                    },
                                    {
                                        "name": "guardianSetIndex",
                                        "type": "uint32",
                                        "value": "4"
                                    },
                                    {
                                        "name": "signatures",
                                        "type": "(bytes32,bytes32,uint8,uint8)[]",
                                        "value": [
                                            [
                                                {
                                                    "name": "r",
                                                    "type": "bytes32",
                                                    "value": "0xda190837d187c12c3498bc081b04ddf2e8a0ea7c87bbec7fd5109127d47400ed"
                                                },
                                                {
                                                    "name": "s",
                                                    "type": "bytes32",
                                                    "value": "0x252c81ff637ed907bfe440fa1885ee5afd820d3d9d3bbe3ad61b1e887f0cbeb9"
                                                },
                                                {
                                                    "name": "v",
                                                    "type": "uint8",
                                                    "value": "27"
                                                },
                                                {
                                                    "name": "guardianIndex",
                                                    "type": "uint8",
                                                    "value": "1"
                                                }
                                            ],
                                            [
                                                {
                                                    "name": "r",
                                                    "type": "bytes32",
                                                    "value": "0xe4f87a31570cae4132fb413a76f693919c30346a91763cc1feed5ec5f321b018"
                                                },
                                                {
                                                    "name": "s",
                                                    "type": "bytes32",
                                                    "value": "0x4d3f97257bf08a3d6e8af403f03e5015456ae023071152366196d4eead2d7912"
                                                },
                                                {
                                                    "name": "v",
                                                    "type": "uint8",
                                                    "value": "27"
                                                },
                                                {
                                                    "name": "guardianIndex",
                                                    "type": "uint8",
                                                    "value": "2"
                                                }
                                            ],
                                            [
                                                {
                                                    "name": "r",
                                                    "type": "bytes32",
                                                    "value": "0x68ab79e61b19a98fd24a676ba416e67915e3559d0a1854902669ad5e3a15eaf9"
                                                },
                                                {
                                                    "name": "s",
                                                    "type": "bytes32",
                                                    "value": "0x355a2195433245b3a0d2dbe03436c8f09ee6427b4ebb076b7662e88f1e035d76"
                                                },
                                                {
                                                    "name": "v",
                                                    "type": "uint8",
                                                    "value": "28"
                                                },
                                                {
                                                    "name": "guardianIndex",
                                                    "type": "uint8",
                                                    "value": "3"
                                                }
                                            ],
                                            [
                                                {
                                                    "name": "r",
                                                    "type": "bytes32",
                                                    "value": "0x71c5b389ec9902d315247b374a5dafe03ec5bf453b93f948f1c7525f4e1ebf81"
                                                },
                                                {
                                                    "name": "s",
                                                    "type": "bytes32",
                                                    "value": "0x72b7272f54bb563cff5c2f4c1eaf58e1fdc92c07ab3973a7571b0e7f0d9ddec4"
                                                },
                                                {
                                                    "name": "v",
                                                    "type": "uint8",
                                                    "value": "27"
                                                },
                                                {
                                                    "name": "guardianIndex",
                                                    "type": "uint8",
                                                    "value": "4"
                                                }
                                            ],
                                            [
                                                {
                                                    "name": "r",
                                                    "type": "bytes32",
                                                    "value": "0x78c1bd923bf60778a295ab716cb99d9ef2ecada5e28c1981baa39f6cf1f97bda"
                                                },
                                                {
                                                    "name": "s",
                                                    "type": "bytes32",
                                                    "value": "0x2d16bf88eb83d7216790626ad69c29147024fec6a3e08860ffab454701c7eb92"
                                                },
                                                {
                                                    "name": "v",
                                                    "type": "uint8",
                                                    "value": "28"
                                                },
                                                {
                                                    "name": "guardianIndex",
                                                    "type": "uint8",
                                                    "value": "6"
                                                }
                                            ],
                                            [
                                                {
                                                    "name": "r",
                                                    "type": "bytes32",
                                                    "value": "0x2f2c4345bef0e1626df0d73694941b719503f9751d7798be3c0c650f58b0ce4c"
                                                },
                                                {
                                                    "name": "s",
                                                    "type": "bytes32",
                                                    "value": "0x2688424407f8ae03267060717d18825b36fd2ff7ddcbae0176f1eea694579062"
                                                },
                                                {
                                                    "name": "v",
                                                    "type": "uint8",
                                                    "value": "27"
                                                },
                                                {
                                                    "name": "guardianIndex",
                                                    "type": "uint8",
                                                    "value": "7"
                                                }
                                            ],
                                            [
                                                {
                                                    "name": "r",
                                                    "type": "bytes32",
                                                    "value": "0x313a874b465daf753a7439d184e8b43b69938f428d9a575297d5ac0d1acfba4d"
                                                },
                                                {
                                                    "name": "s",
                                                    "type": "bytes32",
                                                    "value": "0x71e339a674acadaf974b193d92a043aabf07d770d8e7ea3a184ba19273e30e24"
                                                },
                                                {
                                                    "name": "v",
                                                    "type": "uint8",
                                                    "value": "27"
                                                },
                                                {
                                                    "name": "guardianIndex",
                                                    "type": "uint8",
                                                    "value": "8"
                                                }
                                            ],
                                            [
                                                {
                                                    "name": "r",
                                                    "type": "bytes32",
                                                    "value": "0xd308713028e32e9e87412379136ea9520836855a3288d18b6f237aa63ad91a7a"
                                                },
                                                {
                                                    "name": "s",
                                                    "type": "bytes32",
                                                    "value": "0x305e1435e3a0ce5559527ce796ec05f74e38cef5f8f8adee3a53091566d7ed7f"
                                                },
                                                {
                                                    "name": "v",
                                                    "type": "uint8",
                                                    "value": "28"
                                                },
                                                {
                                                    "name": "guardianIndex",
                                                    "type": "uint8",
                                                    "value": "9"
                                                }
                                            ],
                                            [
                                                {
                                                    "name": "r",
                                                    "type": "bytes32",
                                                    "value": "0xa535d0c776eb055d37d88c5b417d70bd25b2960c8348b50ccab34b33b448b6ca"
                                                },
                                                {
                                                    "name": "s",
                                                    "type": "bytes32",
                                                    "value": "0x2c135ab0a7eb46a83d0c16ef80b274aab900645592ce3938e910520cd4bc5d2e"
                                                },
                                                {
                                                    "name": "v",
                                                    "type": "uint8",
                                                    "value": "27"
                                                },
                                                {
                                                    "name": "guardianIndex",
                                                    "type": "uint8",
                                                    "value": "10"
                                                }
                                            ],
                                            [
                                                {
                                                    "name": "r",
                                                    "type": "bytes32",
                                                    "value": "0x35f9eaef5c50e3c963cc7d90e537fa847851bdd8f4749d9ddda686745ef7f011"
                                                },
                                                {
                                                    "name": "s",
                                                    "type": "bytes32",
                                                    "value": "0x410d3a01750f973f7fec60720fef406200d7142d47b3afebd485627379604e24"
                                                },
                                                {
                                                    "name": "v",
                                                    "type": "uint8",
                                                    "value": "27"
                                                },
                                                {
                                                    "name": "guardianIndex",
                                                    "type": "uint8",
                                                    "value": "12"
                                                }
                                            ],
                                            [
                                                {
                                                    "name": "r",
                                                    "type": "bytes32",
                                                    "value": "0x1c92829f77e54a12265b13a03401fd9814531bc30943cc3b53f698b7661d48a6"
                                                },
                                                {
                                                    "name": "s",
                                                    "type": "bytes32",
                                                    "value": "0x20f0a3f938600db9b74dc5821fe7c150d45a99ab38ed7d1160f7f09088ea6edc"
                                                },
                                                {
                                                    "name": "v",
                                                    "type": "uint8",
                                                    "value": "28"
                                                },
                                                {
                                                    "name": "guardianIndex",
                                                    "type": "uint8",
                                                    "value": "14"
                                                }
                                            ],
                                            [
                                                {
                                                    "name": "r",
                                                    "type": "bytes32",
                                                    "value": "0x070ceb1a2bb69a86d21310e41f7ecb2121fe0e24d657ee5dac7b08dcabdee251"
                                                },
                                                {
                                                    "name": "s",
                                                    "type": "bytes32",
                                                    "value": "0x0fd66a4d8381477b5d6d90b1e7397667de7e9773e5869bf755dfc0a68cf893a6"
                                                },
                                                {
                                                    "name": "v",
                                                    "type": "uint8",
                                                    "value": "28"
                                                },
                                                {
                                                    "name": "guardianIndex",
                                                    "type": "uint8",
                                                    "value": "15"
                                                }
                                            ],
                                            [
                                                {
                                                    "name": "r",
                                                    "type": "bytes32",
                                                    "value": "0xbafe14f01a1b907a5ae266367874fa16871962d5e2721469bced722317ceada9"
                                                },
                                                {
                                                    "name": "s",
                                                    "type": "bytes32",
                                                    "value": "0x0cea873861e93c0956d034d994a9b3a988b606ea7588c83a32834807fce79ffc"
                                                },
                                                {
                                                    "name": "v",
                                                    "type": "uint8",
                                                    "value": "28"
                                                },
                                                {
                                                    "name": "guardianIndex",
                                                    "type": "uint8",
                                                    "value": "18"
                                                }
                                            ]
                                        ]
                                    },
                                    {
                                        "name": "hash",
                                        "type": "bytes32",
                                        "value": "0x6d68fa59c0e6b690d70676fa5cf635006b08152ddf135f4161b078ba1ee70811"
                                    }
                                ]
                            },
                            {
                                "name": "valid",
                                "type": "bool",
                                "value": true
                            },
                            {
                                "name": "reason",
                                "type": "string",
                                "value": ""
                            }
                        ],
                        "signature": "parseAndVerifyVM(bytes)"
                    },
                    "errorInfo": "",
                    "fromAddress": "0x98f3c9e6e3face36baad05fe09d375ef1464288b",
                    "gasUsed": 129247,
                    "id": 3,
                    "methodDecoded": true,
                    "operation": "DELEGATECALL",
                    "output": "0x000000000000000000000000000000000000000000000000000000000000006000000000000000000000000000000000000000000000000000000000000000010000000000000000000000000000000000000000000000000000000000000920000000000000000000000000000000000000000000000000000000000000000100000000000000000000000000000000000000000000000000000000669558b100000000000000000000000000000000000000000000000000000000000154d40000000000000000000000000000000000000000000000000000000000000015ccceeb29348f71bdd22ffef43a2a19c1f5b5e17c5cca5411529120182672ade5000000000000000000000000000000000000000000000000000000000002281700000000000000000000000000000000000000000000000000000000000000000000000000000000000000000000000000000000000000000000000000000160000000000000000000000000000000000000000000000000000000000000000400000000000000000000000000000000000000000000000000000000000002206d68fa59c0e6b690d70676fa5cf635006b08152ddf135f4161b078ba1ee708110000000000000000000000000000000000000000000000000000000000000085010000000000000000000000000000000000000000000000000000001325ae7990000000000000000000000000a0b86991c6218b36c1d19d4a2e9eb0ce3606eb4800020000000000000000000000001a0b5f2eade71626d051c29ef425d9c49dc87aea00020000000000000000000000000000000000000000000000000000000000000000000000000000000000000000000000000000000000000000000000000000000000000000000000000000000000000000000000000000000000000dda190837d187c12c3498bc081b04ddf2e8a0ea7c87bbec7fd5109127d47400ed252c81ff637ed907bfe440fa1885ee5afd820d3d9d3bbe3ad61b1e887f0cbeb9000000000000000000000000000000000000000000000000000000000000001b0000000000000000000000000000000000000000000000000000000000000001e4f87a31570cae4132fb413a76f693919c30346a91763cc1feed5ec5f321b0184d3f97257bf08a3d6e8af403f03e5015456ae023071152366196d4eead2d7912000000000000000000000000000000000000000000000000000000000000001b000000000000000000000000000000000000000000000000000000000000000268ab79e61b19a98fd24a676ba416e67915e3559d0a1854902669ad5e3a15eaf9355a2195433245b3a0d2dbe03436c8f09ee6427b4ebb076b7662e88f1e035d76000000000000000000000000000000000000000000000000000000000000001c000000000000000000000000000000000000000000000000000000000000000371c5b389ec9902d315247b374a5dafe03ec5bf453b93f948f1c7525f4e1ebf8172b7272f54bb563cff5c2f4c1eaf58e1fdc92c07ab3973a7571b0e7f0d9ddec4000000000000000000000000000000000000000000000000000000000000001b000000000000000000000000000000000000000000000000000000000000000478c1bd923bf60778a295ab716cb99d9ef2ecada5e28c1981baa39f6cf1f97bda2d16bf88eb83d7216790626ad69c29147024fec6a3e08860ffab454701c7eb92000000000000000000000000000000000000000000000000000000000000001c00000000000000000000000000000000000000000000000000000000000000062f2c4345bef0e1626df0d73694941b719503f9751d7798be3c0c650f58b0ce4c2688424407f8ae03267060717d18825b36fd2ff7ddcbae0176f1eea694579062000000000000000000000000000000000000000000000000000000000000001b0000000000000000000000000000000000000000000000000000000000000007313a874b465daf753a7439d184e8b43b69938f428d9a575297d5ac0d1acfba4d71e339a674acadaf974b193d92a043aabf07d770d8e7ea3a184ba19273e30e24000000000000000000000000000000000000000000000000000000000000001b0000000000000000000000000000000000000000000000000000000000000008d308713028e32e9e87412379136ea9520836855a3288d18b6f237aa63ad91a7a305e1435e3a0ce5559527ce796ec05f74e38cef5f8f8adee3a53091566d7ed7f000000000000000000000000000000000000000000000000000000000000001c0000000000000000000000000000000000000000000000000000000000000009a535d0c776eb055d37d88c5b417d70bd25b2960c8348b50ccab34b33b448b6ca2c135ab0a7eb46a83d0c16ef80b274aab900645592ce3938e910520cd4bc5d2e000000000000000000000000000000000000000000000000000000000000001b000000000000000000000000000000000000000000000000000000000000000a35f9eaef5c50e3c963cc7d90e537fa847851bdd8f4749d9ddda686745ef7f011410d3a01750f973f7fec60720fef406200d7142d47b3afebd485627379604e24000000000000000000000000000000000000000000000000000000000000001b000000000000000000000000000000000000000000000000000000000000000c1c92829f77e54a12265b13a03401fd9814531bc30943cc3b53f698b7661d48a620f0a3f938600db9b74dc5821fe7c150d45a99ab38ed7d1160f7f09088ea6edc000000000000000000000000000000000000000000000000000000000000001c000000000000000000000000000000000000000000000000000000000000000e070ceb1a2bb69a86d21310e41f7ecb2121fe0e24d657ee5dac7b08dcabdee2510fd66a4d8381477b5d6d90b1e7397667de7e9773e5869bf755dfc0a68cf893a6000000000000000000000000000000000000000000000000000000000000001c000000000000000000000000000000000000000000000000000000000000000fbafe14f01a1b907a5ae266367874fa16871962d5e2721469bced722317ceada90cea873861e93c0956d034d994a9b3a988b606ea7588c83a32834807fce79ffc000000000000000000000000000000000000000000000000000000000000001c00000000000000000000000000000000000000000000000000000000000000120000000000000000000000000000000000000000000000000000000000000000",
                    "revert": false,
                    "revertMessage": "",
                    "selector": "0xc0fd8bde",
                    "status": true,
                    "value": "0"
                },
                "nodeType": 0
            },
            "4": {
                "invocation": {
                    "address": "0x0000000000000000000000000000000000000001",
                    "callData": "0xc0e6b690d70676fa5cf635006b08152ddf135f4161b078ba1ee70811000000000000000000000000000000000000000000000000000000000000001bda190837d187c12c3498bc081b04ddf2e8a0ea7c87bbec7fd5109127d47400ed252c81ff637ed907bfe440fa1885ee5afd820d3d9d3bbe3ad61b1e887f0cbeb9",
                    "decodedMethod": {
                        "callParams": [
                            {
                                "name": "hash",
                                "type": "bytes32",
                                "value": "0x6d68fa59c0e6b690d70676fa5cf635006b08152ddf135f4161b078ba1ee70811"
                            },
                            {
                                "name": "v",
                                "type": "uint256",
                                "value": "27"
                            },
                            {
                                "name": "r",
                                "type": "bytes32",
                                "value": "0xda190837d187c12c3498bc081b04ddf2e8a0ea7c87bbec7fd5109127d47400ed"
                            },
                            {
                                "name": "s",
                                "type": "bytes32",
                                "value": "0x252c81ff637ed907bfe440fa1885ee5afd820d3d9d3bbe3ad61b1e887f0cbeb9"
                            }
                        ],
                        "constructorArguments": "",
                        "name": "ecrecover",
                        "returnParams": [
                            {
                                "name": "",
                                "type": "address",
                                "value": "0xff6cb952589bde862c25ef4392132fb9d4a42157"
                            }
                        ],
                        "signature": "ecrecover(bytes32,uint256,bytes32,bytes32)"
                    },
                    "errorInfo": "",
                    "fromAddress": "0x98f3c9e6e3face36baad05fe09d375ef1464288b",
                    "gasUsed": 3000,
                    "id": 4,
                    "methodDecoded": true,
                    "operation": "STATICCALL",
                    "output": "0x000000000000000000000000ff6cb952589bde862c25ef4392132fb9d4a42157",
                    "revert": false,
                    "revertMessage": "",
                    "selector": "0x6d68fa59",
                    "status": true,
                    "value": "0"
                },
                "nodeType": 0
            },
            "5": {
                "invocation": {
                    "address": "0x0000000000000000000000000000000000000001",
                    "callData": "0xc0e6b690d70676fa5cf635006b08152ddf135f4161b078ba1ee70811000000000000000000000000000000000000000000000000000000000000001be4f87a31570cae4132fb413a76f693919c30346a91763cc1feed5ec5f321b0184d3f97257bf08a3d6e8af403f03e5015456ae023071152366196d4eead2d7912",
                    "decodedMethod": {
                        "callParams": [
                            {
                                "name": "hash",
                                "type": "bytes32",
                                "value": "0x6d68fa59c0e6b690d70676fa5cf635006b08152ddf135f4161b078ba1ee70811"
                            },
                            {
                                "name": "v",
                                "type": "uint256",
                                "value": "27"
                            },
                            {
                                "name": "r",
                                "type": "bytes32",
                                "value": "0xe4f87a31570cae4132fb413a76f693919c30346a91763cc1feed5ec5f321b018"
                            },
                            {
                                "name": "s",
                                "type": "bytes32",
                                "value": "0x4d3f97257bf08a3d6e8af403f03e5015456ae023071152366196d4eead2d7912"
                            }
                        ],
                        "constructorArguments": "",
                        "name": "ecrecover",
                        "returnParams": [
                            {
                                "name": "",
                                "type": "address",
                                "value": "0x114de8460193bdf3a2fcf81f86a09765f4762fd1"
                            }
                        ],
                        "signature": "ecrecover(bytes32,uint256,bytes32,bytes32)"
                    },
                    "errorInfo": "",
                    "fromAddress": "0x98f3c9e6e3face36baad05fe09d375ef1464288b",
                    "gasUsed": 3000,
                    "id": 5,
                    "methodDecoded": true,
                    "operation": "STATICCALL",
                    "output": "0x000000000000000000000000114de8460193bdf3a2fcf81f86a09765f4762fd1",
                    "revert": false,
                    "revertMessage": "",
                    "selector": "0x6d68fa59",
                    "status": true,
                    "value": "0"
                },
                "nodeType": 0
            },
            "6": {
                "invocation": {
                    "address": "0x0000000000000000000000000000000000000001",
                    "callData": "0xc0e6b690d70676fa5cf635006b08152ddf135f4161b078ba1ee70811000000000000000000000000000000000000000000000000000000000000001c68ab79e61b19a98fd24a676ba416e67915e3559d0a1854902669ad5e3a15eaf9355a2195433245b3a0d2dbe03436c8f09ee6427b4ebb076b7662e88f1e035d76",
                    "decodedMethod": {
                        "callParams": [
                            {
                                "name": "hash",
                                "type": "bytes32",
                                "value": "0x6d68fa59c0e6b690d70676fa5cf635006b08152ddf135f4161b078ba1ee70811"
                            },
                            {
                                "name": "v",
                                "type": "uint256",
                                "value": "28"
                            },
                            {
                                "name": "r",
                                "type": "bytes32",
                                "value": "0x68ab79e61b19a98fd24a676ba416e67915e3559d0a1854902669ad5e3a15eaf9"
                            },
                            {
                                "name": "s",
                                "type": "bytes32",
                                "value": "0x355a2195433245b3a0d2dbe03436c8f09ee6427b4ebb076b7662e88f1e035d76"
                            }
                        ],
                        "constructorArguments": "",
                        "name": "ecrecover",
                        "returnParams": [
                            {
                                "name": "",
                                "type": "address",
                                "value": "0x107a0086b32d7a0977926a205131d8731d39cbeb"
                            }
                        ],
                        "signature": "ecrecover(bytes32,uint256,bytes32,bytes32)"
                    },
                    "errorInfo": "",
                    "fromAddress": "0x98f3c9e6e3face36baad05fe09d375ef1464288b",
                    "gasUsed": 3000,
                    "id": 6,
                    "methodDecoded": true,
                    "operation": "STATICCALL",
                    "output": "0x000000000000000000000000107a0086b32d7a0977926a205131d8731d39cbeb",
                    "revert": false,
                    "revertMessage": "",
                    "selector": "0x6d68fa59",
                    "status": true,
                    "value": "0"
                },
                "nodeType": 0
            },
            "7": {
                "invocation": {
                    "address": "0x0000000000000000000000000000000000000001",
                    "callData": "0xc0e6b690d70676fa5cf635006b08152ddf135f4161b078ba1ee70811000000000000000000000000000000000000000000000000000000000000001b71c5b389ec9902d315247b374a5dafe03ec5bf453b93f948f1c7525f4e1ebf8172b7272f54bb563cff5c2f4c1eaf58e1fdc92c07ab3973a7571b0e7f0d9ddec4",
                    "decodedMethod": {
                        "callParams": [
                            {
                                "name": "hash",
                                "type": "bytes32",
                                "value": "0x6d68fa59c0e6b690d70676fa5cf635006b08152ddf135f4161b078ba1ee70811"
                            },
                            {
                                "name": "v",
                                "type": "uint256",
                                "value": "27"
                            },
                            {
                                "name": "r",
                                "type": "bytes32",
                                "value": "0x71c5b389ec9902d315247b374a5dafe03ec5bf453b93f948f1c7525f4e1ebf81"
                            },
                            {
                                "name": "s",
                                "type": "bytes32",
                                "value": "0x72b7272f54bb563cff5c2f4c1eaf58e1fdc92c07ab3973a7571b0e7f0d9ddec4"
                            }
                        ],
                        "constructorArguments": "",
                        "name": "ecrecover",
                        "returnParams": [
                            {
                                "name": "",
                                "type": "address",
                                "value": "0x8c82b2fd82faed2711d59af0f2499d16e726f6b2"
                            }
                        ],
                        "signature": "ecrecover(bytes32,uint256,bytes32,bytes32)"
                    },
                    "errorInfo": "",
                    "fromAddress": "0x98f3c9e6e3face36baad05fe09d375ef1464288b",
                    "gasUsed": 3000,
                    "id": 7,
                    "methodDecoded": true,
                    "operation": "STATICCALL",
                    "output": "0x0000000000000000000000008c82b2fd82faed2711d59af0f2499d16e726f6b2",
                    "revert": false,
                    "revertMessage": "",
                    "selector": "0x6d68fa59",
                    "status": true,
                    "value": "0"
                },
                "nodeType": 0
            },
            "8": {
                "invocation": {
                    "address": "0x0000000000000000000000000000000000000001",
                    "callData": "0xc0e6b690d70676fa5cf635006b08152ddf135f4161b078ba1ee70811000000000000000000000000000000000000000000000000000000000000001c78c1bd923bf60778a295ab716cb99d9ef2ecada5e28c1981baa39f6cf1f97bda2d16bf88eb83d7216790626ad69c29147024fec6a3e08860ffab454701c7eb92",
                    "decodedMethod": {
                        "callParams": [
                            {
                                "name": "hash",
                                "type": "bytes32",
                                "value": "0x6d68fa59c0e6b690d70676fa5cf635006b08152ddf135f4161b078ba1ee70811"
                            },
                            {
                                "name": "v",
                                "type": "uint256",
                                "value": "28"
                            },
                            {
                                "name": "r",
                                "type": "bytes32",
                                "value": "0x78c1bd923bf60778a295ab716cb99d9ef2ecada5e28c1981baa39f6cf1f97bda"
                            },
                            {
                                "name": "s",
                                "type": "bytes32",
                                "value": "0x2d16bf88eb83d7216790626ad69c29147024fec6a3e08860ffab454701c7eb92"
                            }
                        ],
                        "constructorArguments": "",
                        "name": "ecrecover",
                        "returnParams": [
                            {
                                "name": "",
                                "type": "address",
                                "value": "0x54ce5b4d348fb74b958e8966e2ec3dbd4958a7cd"
                            }
                        ],
                        "signature": "ecrecover(bytes32,uint256,bytes32,bytes32)"
                    },
                    "errorInfo": "",
                    "fromAddress": "0x98f3c9e6e3face36baad05fe09d375ef1464288b",
                    "gasUsed": 3000,
                    "id": 8,
                    "methodDecoded": true,
                    "operation": "STATICCALL",
                    "output": "0x00000000000000000000000054ce5b4d348fb74b958e8966e2ec3dbd4958a7cd",
                    "revert": false,
                    "revertMessage": "",
                    "selector": "0x6d68fa59",
                    "status": true,
                    "value": "0"
                },
                "nodeType": 0
            },
            "9": {
                "invocation": {
                    "address": "0x0000000000000000000000000000000000000001",
                    "callData": "0xc0e6b690d70676fa5cf635006b08152ddf135f4161b078ba1ee70811000000000000000000000000000000000000000000000000000000000000001b2f2c4345bef0e1626df0d73694941b719503f9751d7798be3c0c650f58b0ce4c2688424407f8ae03267060717d18825b36fd2ff7ddcbae0176f1eea694579062",
                    "decodedMethod": {
                        "callParams": [
                            {
                                "name": "hash",
                                "type": "bytes32",
                                "value": "0x6d68fa59c0e6b690d70676fa5cf635006b08152ddf135f4161b078ba1ee70811"
                            },
                            {
                                "name": "v",
                                "type": "uint256",
                                "value": "27"
                            },
                            {
                                "name": "r",
                                "type": "bytes32",
                                "value": "0x2f2c4345bef0e1626df0d73694941b719503f9751d7798be3c0c650f58b0ce4c"
                            },
                            {
                                "name": "s",
                                "type": "bytes32",
                                "value": "0x2688424407f8ae03267060717d18825b36fd2ff7ddcbae0176f1eea694579062"
                            }
                        ],
                        "constructorArguments": "",
                        "name": "ecrecover",
                        "returnParams": [
                            {
                                "name": "",
                                "type": "address",
                                "value": "0x15e7caf07c4e3dc8e7c469f92c8cd88fb8005a20"
                            }
                        ],
                        "signature": "ecrecover(bytes32,uint256,bytes32,bytes32)"
                    },
                    "errorInfo": "",
                    "fromAddress": "0x98f3c9e6e3face36baad05fe09d375ef1464288b",
                    "gasUsed": 3000,
                    "id": 9,
                    "methodDecoded": true,
                    "operation": "STATICCALL",
                    "output": "0x00000000000000000000000015e7caf07c4e3dc8e7c469f92c8cd88fb8005a20",
                    "revert": false,
                    "revertMessage": "",
                    "selector": "0x6d68fa59",
                    "status": true,
                    "value": "0"
                },
                "nodeType": 0
            }
        },
        "gasFlame": [
            {
                "children": [
                    {
                        "children": [
                            {
                                "children": [],
                                "depth": 0,
                                "name": "Initial Gas",
                                "value": 36884
                            },
                            {
                                "children": [
                                    {
                                        "children": [
                                            {
                                                "children": [
                                                    {
                                                        "children": [
                                                            {
                                                                "children": [],
                                                                "depth": 4,
                                                                "name": "ecrecover",
                                                                "value": 3000
                                                            },
                                                            {
                                                                "children": [],
                                                                "depth": 4,
                                                                "name": "ecrecover",
                                                                "value": 3000
                                                            },
                                                            {
                                                                "children": [],
                                                                "depth": 4,
                                                                "name": "ecrecover",
                                                                "value": 3000
                                                            },
                                                            {
                                                                "children": [],
                                                                "depth": 4,
                                                                "name": "ecrecover",
                                                                "value": 3000
                                                            },
                                                            {
                                                                "children": [],
                                                                "depth": 4,
                                                                "name": "ecrecover",
                                                                "value": 3000
                                                            },
                                                            {
                                                                "children": [],
                                                                "depth": 4,
                                                                "name": "ecrecover",
                                                                "value": 3000
                                                            },
                                                            {
                                                                "children": [],
                                                                "depth": 4,
                                                                "name": "ecrecover",
                                                                "value": 3000
                                                            },
                                                            {
                                                                "children": [],
                                                                "depth": 4,
                                                                "name": "ecrecover",
                                                                "value": 3000
                                                            },
                                                            {
                                                                "children": [],
                                                                "depth": 4,
                                                                "name": "ecrecover",
                                                                "value": 3000
                                                            },
                                                            {
                                                                "children": [],
                                                                "depth": 4,
                                                                "name": "ecrecover",
                                                                "value": 3000
                                                            },
                                                            {
                                                                "children": [],
                                                                "depth": 4,
                                                                "name": "ecrecover",
                                                                "value": 3000
                                                            },
                                                            {
                                                                "children": [],
                                                                "depth": 4,
                                                                "name": "ecrecover",
                                                                "value": 3000
                                                            },
                                                            {
                                                                "children": [],
                                                                "depth": 4,
                                                                "name": "ecrecover",
                                                                "value": 3000
                                                            }
                                                        ],
                                                        "depth": 3,
                                                        "name": "parseAndVerifyVM",
                                                        "value": 129247
                                                    }
                                                ],
                                                "depth": 2,
                                                "name": "parseAndVerifyVM",
                                                "value": 134689
                                            },
                                            {
                                                "children": [
                                                    {
                                                        "children": [],
                                                        "depth": 3,
                                                        "name": "decimals",
                                                        "value": 2381
                                                    }
                                                ],
                                                "depth": 2,
                                                "name": "decimals",
                                                "value": 9664
                                            },
                                            {
                                                "children": [
                                                    {
                                                        "children": [],
                                                        "depth": 3,
                                                        "name": "transfer",
                                                        "value": 16263
                                                    }
                                                ],
                                                "depth": 2,
                                                "name": "transfer",
                                                "value": 17052
                                            }
                                        ],
                                        "depth": 1,
                                        "name": "completeTransfer",
                                        "value": 223788
                                    }
                                ],
                                "depth": 0,
                                "name": "Executed Gas",
                                "value": 228886
                            }
                        ],
                        "depth": -1,
                        "name": "Actual Gas Used",
                        "value": 265770
                    },
                    {
                        "children": [],
                        "depth": -1,
                        "name": "Refunded Gas",
                        "value": 0
                    }
                ],
                "depth": -2,
                "name": "Total Gas",
                "value": 265770
            }
        ],
        "isConfirmed": true,
        "mainTrace": [
            {
                "children": [
                    {
                        "children": [
                            {
                                "children": [
                                    {
                                        "children": [
                                            {
                                                "children": [
                                                    {
                                                        "children": [],
                                                        "depth": 4,
                                                        "id": 4,
                                                        "order": 4
                                                    },
                                                    {
                                                        "children": [],
                                                        "depth": 4,
                                                        "id": 5,
                                                        "order": 5
                                                    },
                                                    {
                                                        "children": [],
                                                        "depth": 4,
                                                        "id": 6,
                                                        "order": 6
                                                    },
                                                    {
                                                        "children": [],
                                                        "depth": 4,
                                                        "id": 7,
                                                        "order": 7
                                                    },
                                                    {
                                                        "children": [],
                                                        "depth": 4,
                                                        "id": 8,
                                                        "order": 8
                                                    },
                                                    {
                                                        "children": [],
                                                        "depth": 4,
                                                        "id": 9,
                                                        "order": 9
                                                    },
                                                    {
                                                        "children": [],
                                                        "depth": 4,
                                                        "id": 10,
                                                        "order": 10
                                                    },
                                                    {
                                                        "children": [],
                                                        "depth": 4,
                                                        "id": 11,
                                                        "order": 11
                                                    },
                                                    {
                                                        "children": [],
                                                        "depth": 4,
                                                        "id": 12,
                                                        "order": 12
                                                    },
                                                    {
                                                        "children": [],
                                                        "depth": 4,
                                                        "id": 13,
                                                        "order": 13
                                                    },
                                                    {
                                                        "children": [],
                                                        "depth": 4,
                                                        "id": 14,
                                                        "order": 14
                                                    },
                                                    {
                                                        "children": [],
                                                        "depth": 4,
                                                        "id": 15,
                                                        "order": 15
                                                    },
                                                    {
                                                        "children": [],
                                                        "depth": 4,
                                                        "id": 16,
                                                        "order": 16
                                                    }
                                                ],
                                                "depth": 3,
                                                "id": 3,
                                                "order": 3
                                            }
                                        ],
                                        "depth": 2,
                                        "id": 2,
                                        "order": 2
                                    },
                                    {
                                        "children": [],
                                        "depth": 2,
                                        "id": 17,
                                        "order": 17
                                    },
                                    {
                                        "children": [
                                            {
                                                "children": [],
                                                "depth": 3,
                                                "id": 19,
                                                "order": 19
                                            }
                                        ],
                                        "depth": 2,
                                        "id": 18,
                                        "order": 18
                                    },
                                    {
                                        "children": [
                                            {
                                                "children": [
                                                    {
                                                        "children": [],
                                                        "depth": 4,
                                                        "id": 22,
                                                        "order": 22
                                                    }
                                                ],
                                                "depth": 3,
                                                "id": 21,
                                                "order": 21
                                            }
                                        ],
                                        "depth": 2,
                                        "id": 20,
                                        "order": 20
                                    }
                                ],
                                "depth": 1,
                                "id": 1,
                                "order": 1
                            }
                        ],
                        "depth": 0,
                        "id": 0,
                        "order": 0
                    }
                ],
                "depth": -1,
                "id": -1,
                "order": -1
            }
        ],
        "mainTraceNodeCount": 23,
        "parentIdMap": {
            "0": -1,
            "1": 0,
            "10": 3,
            "11": 3,
            "12": 3,
            "13": 3,
            "14": 3,
            "15": 3,
            "16": 3,
            "17": 1,
            "18": 1,
            "19": 18,
            "2": 1,
            "20": 1,
            "21": 20,
            "22": 21,
            "3": 2,
            "4": 3,
            "5": 3,
            "6": 3,
            "7": 3,
            "8": 3,
            "9": 3
        },
        "tidyTrace": [
            {
                "children": [
                    {
                        "children": [
                            {
                                "children": [
                                    {
                                        "children": [],
                                        "depth": 2,
                                        "id": 17,
                                        "order": 17
                                    },
                                    {
                                        "children": [
                                            {
                                                "children": [
                                                    {
                                                        "children": [],
                                                        "depth": 4,
                                                        "id": 22,
                                                        "order": 22
                                                    }
                                                ],
                                                "depth": 3,
                                                "id": 21,
                                                "order": 21
                                            }
                                        ],
                                        "depth": 2,
                                        "id": 20,
                                        "order": 20
                                    }
                                ],
                                "depth": 1,
                                "id": 1,
                                "order": 1
                            }
                        ],
                        "depth": 0,
                        "id": 0,
                        "order": 0
                    }
                ],
                "depth": -1,
                "id": -1,
                "order": -1
            }
        ],
        "tidyTraceNodeCount": 6
    },
    "state_change": {
        "stateChanges": [
            {
                "address": "0x3ee18b2214aff97000d974cf647e7c347e8fa585",
                "erc": "",
                "slots": [
                    {
                        "current": "0x0000000000000000000000000000000000000000000000000000000000000001",
                        "key": "0xdb0ef582b9b1028ebf2dd1ea00bfcec6195ced85f5e861e3232964000c688641",
                        "prev": "0x0000000000000000000000000000000000000000000000000000000000000000"
                    },
                    {
                        "current": "0x0000000000000000000000000000000000000000000000000000ab31b2a1dd4f",
                        "key": "0x49f94b4a8474e5f2d79309e607b8ef752c9cd6053f7950596c1f47950b798b59",
                        "prev": "0x0000000000000000000000000000000000000000000000000000ab44d85056df"
                    }
                ],
                "storageVariables": [
                    {
                        "name": "_state",
                        "type": "struct BridgeStorage.State",
                        "value": {
                            "fields": [
                                {
                                    "name": "completedTransfers",
                                    "type": "mapping(bytes32 => bool)",
                                    "value": {
                                        "pairs": [
                                            {
                                                "key": "0x6d68fa59c0e6b690d70676fa5cf635006b08152ddf135f4161b078ba1ee70811",
                                                "value": {
                                                    "current": "true",
                                                    "prev": "false",
                                                    "typeTag": 1
                                                }
                                            }
                                        ],
                                        "typeTag": 4
                                    }
                                },
                                {
                                    "name": "outstandingBridged",
                                    "type": "mapping(address => uint256)",
                                    "value": {
                                        "pairs": [
                                            {
                                                "key": "0xa0b86991c6218b36c1d19d4a2e9eb0ce3606eb48",
                                                "value": {
                                                    "current": "188229938699599",
                                                    "prev": "188312175269599",
                                                    "typeTag": 1
                                                }
                                            }
                                        ],
                                        "typeTag": 4
                                    }
                                }
                            ],
                            "typeTag": 3
                        }
                    }
                ]
            },
            {
                "address": "0xa0b86991c6218b36c1d19d4a2e9eb0ce3606eb48",
                "erc": "ERC-20",
                "slots": [
                    {
                        "current": "0x0000000000000000000000000000000000000000000000000000ab31eebd971f",
                        "key": "0x1fa55eace8dbeeb33c3c527324ce7119884d92e53fe5901c08fb48fe4712a7ae",
                        "prev": "0x0000000000000000000000000000000000000000000000000000ab45146c10af"
                    },
                    {
                        "current": "0x0000000000000000000000000000000000000000000000000000001326472fe1",
                        "key": "0xc151bd39450959d7452dccbdea503e33e3ab552d18b6f86930102f3e6b0ecbdd",
                        "prev": "0x000000000000000000000000000000000000000000000000000000000098b651"
                    }
                ],
                "storageVariables": [
                    {
                        "name": "balanceAndBlacklistStates",
                        "type": "mapping(address => uint256)",
                        "value": {
                            "pairs": [
                                {
                                    "key": "0x1a0b5f2eade71626d051c29ef425d9c49dc87aea",
                                    "value": {
                                        "current": "82246578145",
                                        "prev": "10008145",
                                        "typeTag": 1
                                    }
                                },
                                {
                                    "key": "0x3ee18b2214aff97000d974cf647e7c347e8fa585",
                                    "value": {
                                        "current": "188230947149599",
                                        "prev": "188313183719599",
                                        "typeTag": 1
                                    }
                                }
                            ],
                            "typeTag": 4
                        }
                    }
                ]
            }
        ]
    }
}