{
    "balance_change": {
        "balanceChanges": [
            {
                "account": "0x60a44383423828e3231da723f3c3a87709e1ef1a",
                "assets": [
                    {
                        "address": "0x02b3c88b805f1c6982e38ea1d40a1d83f159c3d4",
                        "amount": "1,580",
                        "iconUrl": "",
                        "isERC1155": false,
                        "isERC721": false,
                        "sign": false,
                        "value": ""
                    }
                ]
            },
            {
                "account": "0x998a9e55175ed9e0c5bced8a289874e85df3a076",
                "assets": [
                    {
                        "address": "0x02b3c88b805f1c6982e38ea1d40a1d83f159c3d4",
                        "amount": "1,580",
                        "iconUrl": "",
                        "isERC1155": false,
                        "isERC721": false,
                        "sign": true,
                        "value": ""
                    }
                ]
            }
        ]
    },
    "profile": {
        "basic_info": {
            "baseFee": "",
            "blockNumber": 7769507,
            "callData": "0xa9059cbb000000000000000000000000998a9e55175ed9e0c5bced8a289874e85df3a07600000000000000000000000000000000000000000000000000000024c988ac00",
            "debugEnable": true,
            "errorInfo": "",
            "eventCount": 2,
            "feeRecipient": "0xea674fdde714fd979de3edf0f56aa9716b898ec8",
            "formatValue": "0",
            "gasLimit": 60000,
            "gasPrice": "18",
            "gasUsed": 38032,
            "intTxnCount": 0,
            "internalRevert": false,
            "internalRevertMessage": "",
            "isContractCreation": false,
            "isFlashloan": false,
            "maxFee": "",
            "nonce": 113,
            "overwritedBlockNumber": -1,
            "priorityFee": "",
            "receiver": "0x02b3c88b805f1c6982e38ea1d40a1d83f159c3d4",
            "revertMessage": "",
            "sender": "0x60a44383423828e3231da723f3c3a87709e1ef1a",
            "simulationEnable": true,
            "sourceTxnHash": "0x05b6b9b2d4a3d67ab90a7f6cf75e2b9b0adb99f7bbbf48c3691ae8b67f6e45db",
            "status": true,
            "timestamp": "2019-05-16T05:36:55Z",
            "transactionFee": "0.000684576",
            "txnHash": "0x05b6b9b2d4a3d67ab90a7f6cf75e2b9b0adb99f7bbbf48c3691ae8b67f6e45db",
            "txnIndex": 109,
            "type": 0,
            "value": "0"
        },
        "fund_flow": [
            {
                "amount": "1,580",
                "from": "0x60a44383423828e3231da723f3c3a87709e1ef1a",
                "id": 1,
                "isERC1155": false,
                "isERC721": false,
                "isReverted": false,
                "order": 1,
                "to": "0x998a9e55175ed9e0c5bced8a289874e85df3a076",
                "token": "0x02b3c88b805f1c6982e38ea1d40a1d83f159c3d4"
            }
        ],
        "token_infos": [
            {
                "address": "0x02b3c88b805f1c6982e38ea1d40a1d83f159c3d4",
                "decimals": 8
            },
            {
                "address": "0xc02aaa39b223fe8d0a0e5c4f27ead9083c756cc2",
                "decimals": 18
            },
            {
                "address": "0xeeeeeeeeeeeeeeeeeeeeeeeeeeeeeeeeeeeeeeee",
                "decimals": 18
            }
        ]
    },
    "address_label": {
        "labels": [
            {
                "address": "0x0000000000000000000000000000000000000003",
                "label": "Precompiled"
            },
            {
                "address": "0x0000000000000000000000000000000000000004",
                "label": "Precompiled"
            },
            {
                "address": "0xeeeeeeeeeeeeeeeeeeeeeeeeeeeeeeeeeeeeeeee",
                "label": "Ether"
            },
            {
                "address": "0x02b3c88b805f1c6982e38ea1d40a1d83f159c3d4",
                "label": "Yun Planet (YUN)"
            },
            {
                "address": "0x0000000000000000000000000000000000000001",
                "label": "Precompiled"
            },
            {
                "address": "0x0000000000000000000000000000000000000002",
                "label": "Precompiled"
            }
        ]
    },
    "trace": {
        "accountLabels": null,
        "dataMap": {
            "-1": {
                "invocation": {
                    "address": "0x60a44383423828e3231da723f3c3a87709e1ef1a",
                    "callData": "",
                    "decodedMethod": null,
                    "errorInfo": "",
                    "fromAddress": "",
                    "gasUsed": 0,
                    "id": -1,
                    "methodDecoded": false,
                    "operation": "",
                    "output": "",
                    "revert": false,
                    "revertMessage": "",
                    "selector": "",
                    "status": false,
                    "value": ""
                },
                "nodeType": 0
            },
            "0": {
                "invocation": {
                    "address": "0x02b3c88b805f1c6982e38ea1d40a1d83f159c3d4",
                    "callData": "0x000000000000000000000000998a9e55175ed9e0c5bced8a289874e85df3a07600000000000000000000000000000000000000000000000000000024c988ac00",
                    "decodedMethod": {
                        "callParams": [
                            {
                                "name": "_to",
                                "type": "address",
                                "value": "0x998a9e55175ed9e0c5bced8a289874e85df3a076"
                            },
                            {
                                "decimalAvailable": true,
                                "name": "_value",
                                "type": "uint256",
                                "value": "158,000,000,000"
                            }
                        ],
                        "constructorArguments": "",
                        "name": "transfer",
                        "returnParams": [],
                        "signature": "transfer(address,uint256)"
                    },
                    "errorInfo": "",
                    "fromAddress": "0x60a44383423828e3231da723f3c3a87709e1ef1a",
                    "gasUsed": 38032,
                    "id": 0,
                    "methodDecoded": true,
                    "operation": "CALL",
                    "output": "",
                    "revert": false,
                    "revertMessage": "",
                    "selector": "0xa9059cbb",
                    "status": true,
                    "value": "0"
                },
                "nodeType": 0
            },
            "1": {
                "event": {
                    "contract": "0x02b3c88b805f1c6982e38ea1d40a1d83f159c3d4",
                    "decodedLog": {
                        "name": "Transfer",
                        "params": [
                            {
                                "name": "from",
                                "type": "address",
                                "value": "0x60a44383423828e3231da723f3c3a87709e1ef1a"
                            },
                            {
                                "name": "to",
                                "type": "address",
                                "value": "0x998a9e55175ed9e0c5bced8a289874e85df3a076"
                            },
                            {
                                "decimalAvailable": true,
                                "name": "value",
                                "type": "uint256",
                                "value": "158,000,000,000"
                            }
                        ],
                        "signature": "Transfer(address,address,uint256)"
                    },
                    "id": 1,
                    "logData": "0x00000000000000000000000000000000000000000000000000000024c988ac00",
                    "logDecoded": true,
                    "operation": "EVENT",
                    "revert": false,
                    "status": true,
                    "topics": [
                        "0xddf252ad1be2c89b69c2b068fc378daa952ba7f163c4a11628f55a4df523b3ef",
                        "0x00000000000000000000000060a44383423828e3231da723f3c3a87709e1ef1a",
                        "0x000000000000000000000000998a9e55175ed9e0c5bced8a289874e85df3a076"
                    ]
                },
                "nodeType": 1
            },
            "2": {
                "event": {
                    "contract": "0x02b3c88b805f1c6982e38ea1d40a1d83f159c3d4",
                    "decodedLog": {
                        "name": "mylog",
                        "params": [
                            {
                                "name": "code",
                                "type": "uint256",
                                "value": "0"
                            }
                        ],
                        "signature": "mylog(uint256)"
                    },
                    "id": 2,
                    "logData": "0x0000000000000000000000000000000000000000000000000000000000000000",
                    "logDecoded": true,
                    "operation": "EVENT",
                    "revert": false,
                    "status": true,
                    "topics": [
                        "0x67631d1bdda6fede513a18dab2d7282eb1233c8a01cd01f9580aa9543dd82b32"
                    ]
                },
                "nodeType": 1
            }
        },
        "gasFlame": [
            {
                "children": [
                    {
                        "children": [
                            {
                                "children": [],
                                "depth": 0,
                                "name": "Initial Gas",
                                "value": 23064
                            },
                            {
                                "children": [],
                                "depth": 0,
                                "name": "Executed Gas",
                                "value": 14968
                            }
                        ],
                        "depth": -1,
                        "name": "Actual Gas Used",
                        "value": 38032
                    },
                    {
                        "children": [],
                        "depth": -1,
                        "name": "Refunded Gas",
                        "value": 0
                    }
                ],
                "depth": -2,
                "name": "Total Gas",
                "value": 38032
            }
        ],
        "isConfirmed": true,
        "mainTrace": [
            {
                "children": [
                    {
                        "children": [
                            {
                                "children": [],
                                "depth": 1,
                                "id": 1,
                                "order": 1
                            },
                            {
                                "children": [],
                                "depth": 1,
                                "id": 2,
                                "order": 2
                            }
                        ],
                        "depth": 0,
                        "id": 0,
                        "order": 0
                    }
                ],
                "depth": -1,
                "id": -1,
                "order": -1
            }
        ],
        "mainTraceNodeCount": 3,
        "parentIdMap": {
            "0": -1,
            "1": 0,
            "2": 0
        },
        "tidyTrace": [
            {
                "children": [
                    {
                        "children": [
                            {
                                "children": [],
                                "depth": 1,
                                "id": 1,
                                "order": 1
                            },
                            {
                                "children": [],
                                "depth": 1,
                                "id": 2,
                                "order": 2
                            }
                        ],
                        "depth": 0,
                        "id": 0,
                        "order": 0
                    }
                ],
                "depth": -1,
                "id": -1,
                "order": -1
            }
        ],
        "tidyTraceNodeCount": 3
    },
    "state_change": {
        "stateChanges": [
            {
                "address": "0x02b3c88b805f1c6982e38ea1d40a1d83f159c3d4",
                "erc": "",
                "slots": [
                    {
                        "current": "0x00000000000000000000000000000000000000000000000000000025d5c13900",
                        "key": "0xfdce52aae916d60854992db76c9192f27bea64b3e56fd2d935d0b653d207ac14",
                        "prev": "0x000000000000000000000000000000000000000000000000000000010c388d00"
                    },
                    {
                        "current": "0x0000000000000000000000000000000000000000000000000000000002165ce0",
                        "key": "0x2ece96c93f37aedeff2ccd3814cedc9537779b2e3dc5495d332b60d32c0c3b77",
                        "prev": "0x00000000000000000000000000000000000000000000000000000024cb9f08e0"
                    }
                ],
                "storageVariables": [
                    {
                        "name": "balanceOf",
                        "type": "mapping(address => uint256)",
                        "value": {
                            "pairs": [
                                {
                                    "key": "0x60a44383423828e3231da723f3c3a87709e1ef1a",
                                    "value": {
                                        "current": "35020000",
                                        "prev": "158035020000",
                                        "typeTag": 1
                                    }
                                },
                                {
                                    "key": "0x998a9e55175ed9e0c5bced8a289874e85df3a076",
                                    "value": {
                                        "current": "162500000000",
                                        "prev": "4500000000",
                                        "typeTag": 1
                                    }
                                }
                            ],
                            "typeTag": 4
                        }
                    }
                ]
            }
        ]
    }
}