{
    "balance_change": {
        "balanceChanges": [
            {
                "account": "0x096add1a0a3788e8d4e7ef4d0910bc6ca623052f",
                "assets": [
                    {
                        "address": "0x480de54f42b17d459314f9d76caa1a531b43c240",
                        "amount": "1",
                        "iconUrl": "",
                        "isERC1155": false,
                        "isERC721": true,
                        "sign": true,
                        "tokenID": "859",
                        "value": ""
                    }
                ]
            },
            {
                "account": "0x1bb45f390ca8e67b43fc32a644c9275bd011b514",
                "assets": [
                    {
                        "address": "0x480de54f42b17d459314f9d76caa1a531b43c240",
                        "amount": "1",
                        "iconUrl": "",
                        "isERC1155": false,
                        "isERC721": true,
                        "sign": false,
                        "tokenID": "859",
                        "value": ""
                    }
                ]
            }
        ]
    },
    "profile": {
        "basic_info": {
            "baseFee": "12.183432285",
            "blockNumber": 16360100,
            "callData": "0x23b872dd0000000000000000000000001bb45f390ca8e67b43fc32a644c9275bd011b514000000000000000000000000096add1a0a3788e8d4e7ef4d0910bc6ca623052f000000000000000000000000000000000000000000000000000000000000035b",
            "debugEnable": true,
            "errorInfo": "",
            "eventCount": 2,
            "feeRecipient": "0x95222290dd7278aa3ddd389cc1e1d165cc4bafe5",
            "formatValue": "0",
            "gasLimit": 141012,
            "gasPrice": "13.683432285",
            "gasUsed": 84408,
            "intTxnCount": 0,
            "internalRevert": false,
            "internalRevertMessage": "",
            "isContractCreation": false,
            "isFlashloan": false,
            "maxFee": "20.612800681",
            "nonce": 47,
            "overwritedBlockNumber": -1,
            "priorityFee": "1.5",
            "receiver": "0x480de54f42b17d459314f9d76caa1a531b43c240",
            "revertMessage": "",
            "sender": "0x1bb45f390ca8e67b43fc32a644c9275bd011b514",
            "simulationEnable": true,
            "sourceTxnHash": "0x05583216cc5f08a0aebc71511f6412035493a1457fb39e66eaaed834ac3bd2c1",
            "status": true,
            "timestamp": "2023-01-08T05:52:11Z",
            "transactionFee": "0.00115499115231228",
            "txnHash": "0x05583216cc5f08a0aebc71511f6412035493a1457fb39e66eaaed834ac3bd2c1",
            "txnIndex": 17,
            "type": 2,
            "value": "0"
        },
        "fund_flow": [
            {
                "amount": "1",
                "from": "0x1bb45f390ca8e67b43fc32a644c9275bd011b514",
                "id": 1,
                "isERC1155": false,
                "isERC721": true,
                "isReverted": false,
                "order": 1,
                "to": "0x096add1a0a3788e8d4e7ef4d0910bc6ca623052f",
                "token": "0x480de54f42b17d459314f9d76caa1a531b43c240",
                "tokenID": "859"
            }
        ],
        "token_infos": [
            {
                "address": "0xc02aaa39b223fe8d0a0e5c4f27ead9083c756cc2",
                "decimals": 18
            },
            {
                "address": "0xeeeeeeeeeeeeeeeeeeeeeeeeeeeeeeeeeeeeeeee",
                "decimals": 18
            }
        ]
    },
    "address_label": {
        "labels": [
            {
                "address": "0x480de54f42b17d459314f9d76caa1a531b43c240",
                "label": "Dogface Army 2nd Battalion (DF 2)"
            },
            {
                "address": "0x0000000000000000000000000000000000000001",
                "label": "Precompiled"
            },
            {
                "address": "0x0000000000000000000000000000000000000002",
                "label": "Precompiled"
            },
            {
                "address": "0x0000000000000000000000000000000000000003",
                "label": "Precompiled"
            },
            {
                "address": "0x0000000000000000000000000000000000000004",
                "label": "Precompiled"
            },
            {
                "address": "0xeeeeeeeeeeeeeeeeeeeeeeeeeeeeeeeeeeeeeeee",
                "label": "Ether"
            }
        ]
    },
    "trace": {
        "accountLabels": null,
        "dataMap": {
            "-1": {
                "invocation": {
                    "address": "0x1bb45f390ca8e67b43fc32a644c9275bd011b514",
                    "callData": "",
                    "decodedMethod": null,
                    "errorInfo": "",
                    "fromAddress": "",
                    "gasUsed": 0,
                    "id": -1,
                    "methodDecoded": false,
                    "operation": "",
                    "output": "",
                    "revert": false,
                    "revertMessage": "",
                    "selector": "",
                    "status": false,
                    "value": ""
                },
                "nodeType": 0
            },
            "0": {
                "invocation": {
                    "address": "0x480de54f42b17d459314f9d76caa1a531b43c240",
                    "callData": "0x0000000000000000000000001bb45f390ca8e67b43fc32a644c9275bd011b514000000000000000000000000096add1a0a3788e8d4e7ef4d0910bc6ca623052f000000000000000000000000000000000000000000000000000000000000035b",
                    "decodedMethod": {
                        "callParams": [
                            {
                                "name": "from",
                                "type": "address",
                                "value": "0x1bb45f390ca8e67b43fc32a644c9275bd011b514"
                            },
                            {
                                "name": "to",
                                "type": "address",
                                "value": "0x096add1a0a3788e8d4e7ef4d0910bc6ca623052f"
                            },
                            {
                                "decimalAvailable": true,
                                "name": "tokenId",
                                "type": "uint256",
                                "value": "859"
                            }
                        ],
                        "constructorArguments": "",
                        "name": "transferFrom",
                        "returnParams": [],
                        "signature": "transferFrom(address,address,uint256)"
                    },
                    "errorInfo": "",
                    "fromAddress": "0x1bb45f390ca8e67b43fc32a644c9275bd011b514",
                    "gasUsed": 84408,
                    "id": 0,
                    "methodDecoded": true,
                    "operation": "CALL",
                    "output": "",
                    "revert": false,
                    "revertMessage": "",
                    "selector": "0x23b872dd",
                    "status": true,
                    "value": "0"
                },
                "nodeType": 0
            },
            "1": {
                "event": {
                    "contract": "0x480de54f42b17d459314f9d76caa1a531b43c240",
                    "decodedLog": {
                        "name": "Approval",
                        "params": [
                            {
                                "name": "owner",
                                "type": "address",
                                "value": "0x1bb45f390ca8e67b43fc32a644c9275bd011b514"
                            },
                            {
                                "name": "approved",
                                "type": "address",
                                "value": "0x0000000000000000000000000000000000000000"
                            },
                            {
                                "decimalAvailable": true,
                                "name": "tokenId",
                                "type": "uint256",
                                "value": "859"
                            }
                        ],
                        "signature": "Approval(address,address,uint256)"
                    },
                    "id": 1,
                    "logData": "0x",
                    "logDecoded": true,
                    "operation": "EVENT",
                    "revert": false,
                    "status": true,
                    "topics": [
                        "0x8c5be1e5ebec7d5bd14f71427d1e84f3dd0314c0f7b2291e5b200ac8c7c3b925",
                        "0x0000000000000000000000001bb45f390ca8e67b43fc32a644c9275bd011b514",
                        "0x0000000000000000000000000000000000000000000000000000000000000000",
                        "0x000000000000000000000000000000000000000000000000000000000000035b"
                    ]
                },
                "nodeType": 1
            },
            "2": {
                "event": {
                    "contract": "0x480de54f42b17d459314f9d76caa1a531b43c240",
                    "decodedLog": {
                        "name": "Transfer",
                        "params": [
                            {
                                "name": "from",
                                "type": "address",
                                "value": "0x1bb45f390ca8e67b43fc32a644c9275bd011b514"
                            },
                            {
                                "name": "to",
                                "type": "address",
                                "value": "0x096add1a0a3788e8d4e7ef4d0910bc6ca623052f"
                            },
                            {
                                "decimalAvailable": true,
                                "name": "tokenId",
                                "type": "uint256",
                                "value": "859"
                            }
                        ],
                        "signature": "Transfer(address,address,uint256)"
                    },
                    "id": 2,
                    "logData": "0x",
                    "logDecoded": true,
                    "operation": "EVENT",
                    "revert": false,
                    "status": true,
                    "topics": [
                        "0xddf252ad1be2c89b69c2b068fc378daa952ba7f163c4a11628f55a4df523b3ef",
                        "0x0000000000000000000000001bb45f390ca8e67b43fc32a644c9275bd011b514",
                        "0x000000000000000000000000096add1a0a3788e8d4e7ef4d0910bc6ca623052f",
                        "0x000000000000000000000000000000000000000000000000000000000000035b"
                    ]
                },
                "nodeType": 1
            }
        },
        "gasFlame": [
            {
                "children": [
                    {
                        "children": [
                            {
                                "children": [],
                                "depth": 0,
                                "name": "Initial Gas",
                                "value": 21952
                            },
                            {
                                "children": [],
                                "depth": 0,
                                "name": "Executed Gas",
                                "value": 72056
                            }
                        ],
                        "depth": -1,
                        "name": "Actual Gas Used",
                        "value": 84408
                    },
                    {
                        "children": [],
                        "depth": -1,
                        "name": "Refunded Gas",
                        "value": 9600
                    }
                ],
                "depth": -2,
                "name": "Total Gas",
                "value": 94008
            }
        ],
        "isConfirmed": true,
        "mainTrace": [
            {
                "children": [
                    {
                        "children": [
                            {
                                "children": [],
                                "depth": 1,
                                "id": 1,
                                "order": 1
                            },
                            {
                                "children": [],
                                "depth": 1,
                                "id": 2,
                                "order": 2
                            }
                        ],
                        "depth": 0,
                        "id": 0,
                        "order": 0
                    }
                ],
                "depth": -1,
                "id": -1,
                "order": -1
            }
        ],
        "mainTraceNodeCount": 3,
        "parentIdMap": {
            "0": -1,
            "1": 0,
            "2": 0
        },
        "tidyTrace": [
            {
                "children": [
                    {
                        "children": [
                            {
                                "children": [],
                                "depth": 1,
                                "id": 1,
                                "order": 1
                            },
                            {
                                "children": [],
                                "depth": 1,
                                "id": 2,
                                "order": 2
                            }
                        ],
                        "depth": 0,
                        "id": 0,
                        "order": 0
                    }
                ],
                "depth": -1,
                "id": -1,
                "order": -1
            }
        ],
        "tidyTraceNodeCount": 3
    },
    "state_change": {
        "stateChanges": [
            {
                "address": "0x480de54f42b17d459314f9d76caa1a531b43c240",
                "erc": "ERC-721",
                "slots": [
                    {
                        "current": "0x0000000000000000000000000000000000000000000000000000000000000000",
                        "key": "0xda781f74dfe5792d90b9a9c6253766c3486ab888a55c13131073b95307c4f306",
                        "prev": "0x000000000000000000000000000000000000000000000000000000000000035b"
                    },
                    {
                        "current": "0x0000000000000000000000000000000000000000000000000000000000000000",
                        "key": "0xc2825656f6e61875a554735baced1d03246eb8b1bd8253454fe1ffb96cf0ec03",
                        "prev": "0x0000000000000000000000000000000000000000000000000000000000000001"
                    },
                    {
                        "current": "0x0000000000000000000000000000000000000000000000000000000000000001",
                        "key": "0x4ecac4c390f735835960b7419aa45809ad3e8692c12053afca6129a7210dadb2",
                        "prev": "0x0000000000000000000000000000000000000000000000000000000000000000"
                    },
                    {
                        "current": "0x000000000000000000000000000000000000000000000000000000000000035b",
                        "key": "0xea4c7d4dbe8b9bf12e3c72d8d77bc8de3722b35e009c63ffd945c79df22c49b8",
                        "prev": "0x0000000000000000000000000000000000000000000000000000000000000000"
                    },
                    {
                        "current": "0x000000000000000000000000096add1a0a3788e8d4e7ef4d0910bc6ca623052f",
                        "key": "0xc2575a0e9e593c00f959f8c92f12db2869c3395a3b0502d05e2516446f71fbb6",
                        "prev": "0x0000000000000000000000001bb45f390ca8e67b43fc32a644c9275bd011b514"
                    }
                ],
                "storageVariables": [
                    {
                        "name": "_balances",
                        "type": "mapping(address => uint256[])",
                        "value": {
                            "pairs": [
                                {
                                    "key": "0x096add1a0a3788e8d4e7ef4d0910bc6ca623052f",
                                    "value": {
                                        "elemType": "uint256",
                                        "elems": [
                                            {
                                                "index": 0,
                                                "value": {
                                                    "current": "859",
                                                    "prev": "0",
                                                    "typeTag": 1
                                                }
                                            }
                                        ],
                                        "typeTag": 2
                                    }
                                }
                            ],
                            "typeTag": 4
                        }
                    },
                    {
                        "name": "_owners",
                        "type": "address[]",
                        "value": {
                            "elemType": "address",
                            "elems": [
                                {
                                    "index": 859,
                                    "value": {
                                        "current": "0x096add1a0a3788e8d4e7ef4d0910bc6ca623052f",
                                        "prev": "0x1bb45f390ca8e67b43fc32a644c9275bd011b514",
                                        "typeTag": 1
                                    }
                                }
                            ],
                            "typeTag": 2
                        }
                    }
                ]
            }
        ]
    }
}