{
    "balance_change": {
        "balanceChanges": []
    },
    "profile": {
        "basic_info": {
            "baseFee": "",
            "blockNumber": 4318902,
            "callData": "0x0a19b14a00000000000000000000000000000000000000000000000000000000000000000000000000000000000000000000000000000000000000001a171a0a11bc0000000000000000000000000000514910771af9ca656af840dff83e8264ecf986ca00000000000000000000000000000000000000000000006c6b935b8bbd4000000000000000000000000000000000000000000000000000000000000000420dbf000000000000000000000000000000000000000000000000000000002ec04cac0000000000000000000000008da00fd9a2234f13d1b9ae83f86dcc060bcffed3000000000000000000000000000000000000000000000000000000000000001c7b11bef0b6136d4a99e38f044ad34e0bf40c957c95dda5c61e7fad89f88402b66bd67d0b0ea1263718a6baf5a3b7d61406f96ccb8d7789b3f340852254cc40580000000000000000000000000000000000000000000000001a171a0a11bc0000",
            "debugEnable": true,
            "errorInfo": "invalid jump destination",
            "eventCount": 0,
            "feeRecipient": "0x829bd824b016326a401d083b33d092293333a830",
            "formatValue": "0",
            "gasLimit": 250000,
            "gasPrice": "60",
            "gasUsed": 250000,
            "intTxnCount": 2,
            "internalRevert": true,
            "internalRevertMessage": "",
            "isContractCreation": false,
            "isFlashloan": false,
            "maxFee": "",
            "nonce": 178,
            "overwritedBlockNumber": -1,
            "priorityFee": "",
            "receiver": "0x8d12a197cb00d4747a1fe03395095ce2a5cc6819",
            "revertMessage": "",
            "sender": "0xd3a58c6f9721b89667add9cbf3b009bae925cc14",
            "simulationEnable": true,
            "sourceTxnHash": "0x05408ccd4e41e4e1d90b071149e455ab919d86811443f9fd33d80d98195bbe31",
            "status": false,
            "timestamp": "2017-09-28T11:33:41Z",
            "transactionFee": "0.015",
            "txnHash": "0x05408ccd4e41e4e1d90b071149e455ab919d86811443f9fd33d80d98195bbe31",
            "txnIndex": 10,
            "type": 0,
            "value": "0"
        },
        "fund_flow": [],
        "token_infos": [
            {
                "address": "0xc02aaa39b223fe8d0a0e5c4f27ead9083c756cc2",
                "decimals": 18
            },
            {
                "address": "0xeeeeeeeeeeeeeeeeeeeeeeeeeeeeeeeeeeeeeeee",
                "decimals": 18
            }
        ]
    },
    "address_label": {
        "labels": [
            {
                "address": "0x0000000000000000000000000000000000000000",
                "label": "Null Address"
            },
            {
                "address": "0x0000000000000000000000000000000000000001",
                "label": "Precompiled"
            },
            {
                "address": "0x0000000000000000000000000000000000000003",
                "label": "Precompiled"
            },
            {
                "address": "0x0000000000000000000000000000000000000004",
                "label": "Precompiled"
            },
            {
                "address": "0xeeeeeeeeeeeeeeeeeeeeeeeeeeeeeeeeeeeeeeee",
                "label": "Ether"
            },
            {
                "address": "0x514910771af9ca656af840dff83e8264ecf986ca",
                "label": "Chainlink: LINK Token"
            },
            {
                "address": "0x8d12a197cb00d4747a1fe03395095ce2a5cc6819",
                "label": "EtherDelta"
            },
            {
                "address": "0x0000000000000000000000000000000000000002",
                "label": "Precompiled"
            }
        ]
    },
    "trace": {
        "accountLabels": null,
        "dataMap": {
            "-1": {
                "invocation": {
                    "address": "0xd3a58c6f9721b89667add9cbf3b009bae925cc14",
                    "callData": "",
                    "decodedMethod": null,
                    "errorInfo": "",
                    "fromAddress": "",
                    "gasUsed": 0,
                    "id": -1,
                    "methodDecoded": false,
                    "operation": "",
                    "output": "",
                    "revert": false,
                    "revertMessage": "",
                    "selector": "",
                    "status": false,
                    "value": ""
                },
                "nodeType": 0
            },
            "0": {
                "invocation": {
                    "address": "0x8d12a197cb00d4747a1fe03395095ce2a5cc6819",
                    "callData": "0x00000000000000000000000000000000000000000000000000000000000000000000000000000000000000000000000000000000000000001a171a0a11bc0000000000000000000000000000514910771af9ca656af840dff83e8264ecf986ca00000000000000000000000000000000000000000000006c6b935b8bbd4000000000000000000000000000000000000000000000000000000000000000420dbf000000000000000000000000000000000000000000000000000000002ec04cac0000000000000000000000008da00fd9a2234f13d1b9ae83f86dcc060bcffed3000000000000000000000000000000000000000000000000000000000000001c7b11bef0b6136d4a99e38f044ad34e0bf40c957c95dda5c61e7fad89f88402b66bd67d0b0ea1263718a6baf5a3b7d61406f96ccb8d7789b3f340852254cc40580000000000000000000000000000000000000000000000001a171a0a11bc0000",
                    "decodedMethod": {
                        "callParams": [
                            {
                                "name": "tokenGet",
                                "type": "address",
                                "value": "0x0000000000000000000000000000000000000000"
                            },
                            {
                                "name": "amountGet",
                                "type": "uint256",
                                "value": "1,880,000,000,000,000,000"
                            },
                            {
                                "name": "tokenGive",
                                "type": "address",
                                "value": "0x514910771af9ca656af840dff83e8264ecf986ca"
                            },
                            {
                                "name": "amountGive",
                                "type": "uint256",
                                "value": "2,000,000,000,000,000,000,000"
                            },
                            {
                                "name": "expires",
                                "type": "uint256",
                                "value": "4,328,895"
                            },
                            {
                                "name": "nonce",
                                "type": "uint256",
                                "value": "784,354,476"
                            },
                            {
                                "name": "user",
                                "type": "address",
                                "value": "0x8da00fd9a2234f13d1b9ae83f86dcc060bcffed3"
                            },
                            {
                                "name": "v",
                                "type": "uint8",
                                "value": "28"
                            },
                            {
                                "name": "r",
                                "type": "bytes32",
                                "value": "0x7b11bef0b6136d4a99e38f044ad34e0bf40c957c95dda5c61e7fad89f88402b6"
                            },
                            {
                                "name": "s",
                                "type": "bytes32",
                                "value": "0x6bd67d0b0ea1263718a6baf5a3b7d61406f96ccb8d7789b3f340852254cc4058"
                            },
                            {
                                "name": "amount",
                                "type": "uint256",
                                "value": "1,880,000,000,000,000,000"
                            }
                        ],
                        "constructorArguments": "",
                        "name": "trade",
                        "returnParams": [],
                        "signature": "trade(address,uint256,address,uint256,uint256,uint256,address,uint8,bytes32,bytes32,uint256)"
                    },
                    "errorInfo": "invalid jump destination",
                    "fromAddress": "0xd3a58c6f9721b89667add9cbf3b009bae925cc14",
                    "gasUsed": 250000,
                    "id": 0,
                    "methodDecoded": true,
                    "operation": "CALL",
                    "output": "",
                    "revert": true,
                    "revertMessage": "",
                    "selector": "0x0a19b14a",
                    "status": false,
                    "value": "0"
                },
                "nodeType": 0
            },
            "1": {
                "invocation": {
                    "address": "0x0000000000000000000000000000000000000002",
                    "callData": "0xcb00d4747a1fe03395095ce2a5cc681900000000000000000000000000000000000000000000000000000000000000000000000000000000000000001a171a0a11bc0000514910771af9ca656af840dff83e8264ecf986ca00000000000000000000000000000000000000000000006c6b935b8bbd4000000000000000000000000000000000000000000000000000000000000000420dbf000000000000000000000000000000000000000000000000000000002ec04cac",
                    "decodedMethod": {
                        "callParams": [
                            {
                                "name": "data",
                                "type": "bytes",
                                "value": "0x8d12a197cb00d4747a1fe03395095ce2a5cc681900000000000000000000000000000000000000000000000000000000000000000000000000000000000000001a171a0a11bc0000514910771af9ca656af840dff83e8264ecf986ca00000000000000000000000000000000000000000000006c6b935b8bbd4000000000000000000000000000000000000000000000000000000000000000420dbf000000000000000000000000000000000000000000000000000000002ec04cac"
                            }
                        ],
                        "constructorArguments": "",
                        "name": "sha256hash",
                        "returnParams": [
                            {
                                "name": "hash",
                                "type": "bytes32",
                                "value": "0x8b1bf7e2e3a3bc12b569c17c90b064b5bf0d8bf1be733c7e2180de0be1841082"
                            }
                        ],
                        "signature": "sha256hash(bytes)"
                    },
                    "errorInfo": "",
                    "fromAddress": "0x8d12a197cb00d4747a1fe03395095ce2a5cc6819",
                    "gasUsed": 132,
                    "id": 1,
                    "methodDecoded": true,
                    "operation": "CALL",
                    "output": "0x8b1bf7e2e3a3bc12b569c17c90b064b5bf0d8bf1be733c7e2180de0be1841082",
                    "revert": true,
                    "revertMessage": "",
                    "selector": "0x8d12a197",
                    "status": true,
                    "value": "0"
                },
                "nodeType": 0
            },
            "2": {
                "invocation": {
                    "address": "0x0000000000000000000000000000000000000001",
                    "callData": "0x6888df46454831cee29d205024871a82cc66dd266047b7bfc32ab5ea000000000000000000000000000000000000000000000000000000000000001c7b11bef0b6136d4a99e38f044ad34e0bf40c957c95dda5c61e7fad89f88402b66bd67d0b0ea1263718a6baf5a3b7d61406f96ccb8d7789b3f340852254cc4058",
                    "decodedMethod": {
                        "callParams": [
                            {
                                "name": "hash",
                                "type": "bytes32",
                                "value": "0x5bce90666888df46454831cee29d205024871a82cc66dd266047b7bfc32ab5ea"
                            },
                            {
                                "name": "v",
                                "type": "uint256",
                                "value": "28"
                            },
                            {
                                "name": "r",
                                "type": "bytes32",
                                "value": "0x7b11bef0b6136d4a99e38f044ad34e0bf40c957c95dda5c61e7fad89f88402b6"
                            },
                            {
                                "name": "s",
                                "type": "bytes32",
                                "value": "0x6bd67d0b0ea1263718a6baf5a3b7d61406f96ccb8d7789b3f340852254cc4058"
                            }
                        ],
                        "constructorArguments": "",
                        "name": "ecrecover",
                        "returnParams": [
                            {
                                "name": "",
                                "type": "address",
                                "value": "0x8da00fd9a2234f13d1b9ae83f86dcc060bcffed3"
                            }
                        ],
                        "signature": "ecrecover(bytes32,uint256,bytes32,bytes32)"
                    },
                    "errorInfo": "",
                    "fromAddress": "0x8d12a197cb00d4747a1fe03395095ce2a5cc6819",
                    "gasUsed": 3000,
                    "id": 2,
                    "methodDecoded": true,
                    "operation": "CALL",
                    "output": "0x0000000000000000000000008da00fd9a2234f13d1b9ae83f86dcc060bcffed3",
                    "revert": true,
                    "revertMessage": "",
                    "selector": "0x5bce9066",
                    "status": true,
                    "value": "0"
                },
                "nodeType": 0
            }
        },
        "gasFlame": [
            {
                "children": [
                    {
                        "children": [
                            {
                                "children": [],
                                "depth": 0,
                                "name": "Initial Gas",
                                "value": 31064
                            },
                            {
                                "children": [
                                    {
                                        "children": [],
                                        "depth": 1,
                                        "name": "sha256hash",
                                        "value": 132
                                    },
                                    {
                                        "children": [],
                                        "depth": 1,
                                        "name": "ecrecover",
                                        "value": 3000
                                    }
                                ],
                                "depth": 0,
                                "name": "Executed Gas",
                                "value": 218936
                            }
                        ],
                        "depth": -1,
                        "name": "Actual Gas Used",
                        "value": 250000
                    },
                    {
                        "children": [],
                        "depth": -1,
                        "name": "Refunded Gas",
                        "value": 0
                    }
                ],
                "depth": -2,
                "name": "Total Gas",
                "value": 250000
            }
        ],
        "isConfirmed": true,
        "mainTrace": [
            {
                "children": [
                    {
                        "children": [
                            {
                                "children": [],
                                "depth": 1,
                                "id": 1,
                                "order": 1
                            },
                            {
                                "children": [],
                                "depth": 1,
                                "id": 2,
                                "order": 2
                            }
                        ],
                        "depth": 0,
                        "id": 0,
                        "order": 0
                    }
                ],
                "depth": -1,
                "id": -1,
                "order": -1
            }
        ],
        "mainTraceNodeCount": 3,
        "parentIdMap": {
            "0": -1,
            "1": 0,
            "2": 0
        },
        "tidyTrace": [
            {
                "children": [
                    {
                        "children": [
                            {
                                "children": [],
                                "depth": 1,
                                "id": 1,
                                "order": 1
                            },
                            {
                                "children": [],
                                "depth": 1,
                                "id": 2,
                                "order": 2
                            }
                        ],
                        "depth": 0,
                        "id": 0,
                        "order": 0
                    }
                ],
                "depth": -1,
                "id": -1,
                "order": -1
            }
        ],
        "tidyTraceNodeCount": 3
    },
    "state_change": {
        "stateChanges": []
    }
}