{
    "balance_change": {
        "balanceChanges": [
            {
                "account": "0x1b70d7cea0a25a1cfedc1d34413933255009a437",
                "assets": [
                    {
                        "address": "0x2dff88a56767223a5529ea5960da7a3f5f766406",
                        "amount": "4,760.753",
                        "iconUrl": "",
                        "isERC1155": false,
                        "isERC721": false,
                        "sign": false,
                        "value": "1309.6831503000000533"
                    }
                ]
            },
            {
                "account": "0x75e89d5979e4f6fba9f97c104c2f0afb3f1dcb88",
                "assets": [
                    {
                        "address": "0x2dff88a56767223a5529ea5960da7a3f5f766406",
                        "amount": "4,760.753",
                        "iconUrl": "",
                        "isERC1155": false,
                        "isERC721": false,
                        "sign": true,
                        "value": "1309.6831503000000533"
                    }
                ]
            }
        ]
    },
    "profile": {
        "basic_info": {
            "baseFee": "19.842256226",
            "blockNumber": 17580321,
            "callData": "0xa9059cbb00000000000000000000000075e89d5979e4f6fba9f97c104c2f0afb3f1dcb8800000000000000000000000000000000000000000000010214b84df3173e8000",
            "debugEnable": true,
            "errorInfo": "",
            "eventCount": 1,
            "feeRecipient": "0xdefe33795803f2353c69fd8cdb432f9d5cee6762",
            "formatValue": "0",
            "gasLimit": 54748,
            "gasPrice": "27",
            "gasUsed": 31699,
            "intTxnCount": 0,
            "internalRevert": false,
            "internalRevertMessage": "",
            "isContractCreation": false,
            "isFlashloan": false,
            "maxFee": "",
            "nonce": 0,
            "overwritedBlockNumber": -1,
            "priorityFee": "",
            "receiver": "0x2dff88a56767223a5529ea5960da7a3f5f766406",
            "revertMessage": "",
            "sender": "0x1b70d7cea0a25a1cfedc1d34413933255009a437",
            "simulationEnable": true,
            "sourceTxnHash": "0x05e4e8fa8522ca9fae3b5a414fa70b021dcba59eb6ce76e9f95fc665dbcf333b",
            "status": true,
            "timestamp": "2023-06-28T20:53:11Z",
            "transactionFee": "0.000855873",
            "txnHash": "0x05e4e8fa8522ca9fae3b5a414fa70b021dcba59eb6ce76e9f95fc665dbcf333b",
            "txnIndex": 43,
            "type": 0,
            "value": "0"
        },
        "fund_flow": [
            {
                "amount": "4,760.753",
                "from": "0x1b70d7cea0a25a1cfedc1d34413933255009a437",
                "id": 1,
                "isERC1155": false,
                "isERC721": false,
                "isReverted": false,
                "order": 1,
                "to": "0x75e89d5979e4f6fba9f97c104c2f0afb3f1dcb88",
                "token": "0x2dff88a56767223a5529ea5960da7a3f5f766406"
            }
        ],
        "token_infos": [
            {
                "address": "0xeeeeeeeeeeeeeeeeeeeeeeeeeeeeeeeeeeeeeeee",
                "decimals": 18
            },
            {
                "address": "0x2dff88a56767223a5529ea5960da7a3f5f766406",
                "decimals": 18
            },
            {
                "address": "0xc02aaa39b223fe8d0a0e5c4f27ead9083c756cc2",
                "decimals": 18
            }
        ]
    },
    "address_label": {
        "labels": [
            {
                "address": "0x0000000000000000000000000000000000000002",
                "label": "Precompiled"
            },
            {
                "address": "0x0000000000000000000000000000000000000003",
                "label": "Precompiled"
            },
            {
                "address": "0x0000000000000000000000000000000000000004",
                "label": "Precompiled"
            },
            {
                "address": "0xeeeeeeeeeeeeeeeeeeeeeeeeeeeeeeeeeeeeeeee",
                "label": "Ether"
            },
            {
                "address": "0x1b70d7cea0a25a1cfedc1d34413933255009a437",
                "label": "MEXC"
            },
            {
                "address": "0x2dff88a56767223a5529ea5960da7a3f5f766406",
                "label": "SPACE ID: ID Token"
            },
            {
                "address": "0x75e89d5979e4f6fba9f97c104c2f0afb3f1dcb88",
                "label": "MEXC 1"
            },
            {
                "address": "0x0000000000000000000000000000000000000001",
                "label": "Precompiled"
            }
        ]
    },
    "trace": {
        "accountLabels": null,
        "dataMap": {
            "-1": {
                "invocation": {
                    "address": "0x1b70d7cea0a25a1cfedc1d34413933255009a437",
                    "callData": "",
                    "decodedMethod": null,
                    "errorInfo": "",
                    "fromAddress": "",
                    "gasUsed": 0,
                    "id": -1,
                    "methodDecoded": false,
                    "operation": "",
                    "output": "",
                    "revert": false,
                    "revertMessage": "",
                    "selector": "",
                    "status": false,
                    "value": ""
                },
                "nodeType": 0
            },
            "0": {
                "invocation": {
                    "address": "0x2dff88a56767223a5529ea5960da7a3f5f766406",
                    "callData": "0x00000000000000000000000075e89d5979e4f6fba9f97c104c2f0afb3f1dcb8800000000000000000000000000000000000000000000010214b84df3173e8000",
                    "decodedMethod": {
                        "callParams": [
                            {
                                "name": "to",
                                "type": "address",
                                "value": "0x75e89d5979e4f6fba9f97c104c2f0afb3f1dcb88"
                            },
                            {
                                "decimalAvailable": true,
                                "name": "amount",
                                "type": "uint256",
                                "value": "4,760,753,000,000,000,000,000"
                            }
                        ],
                        "constructorArguments": "",
                        "name": "transfer",
                        "returnParams": [
                            {
                                "name": "",
                                "type": "bool",
                                "value": true
                            }
                        ],
                        "signature": "transfer(address,uint256)"
                    },
                    "errorInfo": "",
                    "fromAddress": "0x1b70d7cea0a25a1cfedc1d34413933255009a437",
                    "gasUsed": 31699,
                    "id": 0,
                    "methodDecoded": true,
                    "operation": "CALL",
                    "output": "0x0000000000000000000000000000000000000000000000000000000000000001",
                    "revert": false,
                    "revertMessage": "",
                    "selector": "0xa9059cbb",
                    "status": true,
                    "value": "0"
                },
                "nodeType": 0
            },
            "1": {
                "event": {
                    "contract": "0x2dff88a56767223a5529ea5960da7a3f5f766406",
                    "decodedLog": {
                        "name": "Transfer",
                        "params": [
                            {
                                "name": "from",
                                "type": "address",
                                "value": "0x1b70d7cea0a25a1cfedc1d34413933255009a437"
                            },
                            {
                                "name": "to",
                                "type": "address",
                                "value": "0x75e89d5979e4f6fba9f97c104c2f0afb3f1dcb88"
                            },
                            {
                                "decimalAvailable": true,
                                "name": "value",
                                "type": "uint256",
                                "value": "4,760,753,000,000,000,000,000"
                            }
                        ],
                        "signature": "Transfer(address,address,uint256)"
                    },
                    "id": 1,
                    "logData": "0x00000000000000000000000000000000000000000000010214b84df3173e8000",
                    "logDecoded": true,
                    "operation": "EVENT",
                    "revert": false,
                    "status": true,
                    "topics": [
                        "0xddf252ad1be2c89b69c2b068fc378daa952ba7f163c4a11628f55a4df523b3ef",
                        "0x0000000000000000000000001b70d7cea0a25a1cfedc1d34413933255009a437",
                        "0x00000000000000000000000075e89d5979e4f6fba9f97c104c2f0afb3f1dcb88"
                    ]
                },
                "nodeType": 1
            }
        },
        "gasFlame": [
            {
                "children": [
                    {
                        "children": [
                            {
                                "children": [],
                                "depth": 0,
                                "name": "Initial Gas",
                                "value": 21668
                            },
                            {
                                "children": [],
                                "depth": 0,
                                "name": "Executed Gas",
                                "value": 14831
                            }
                        ],
                        "depth": -1,
                        "name": "Actual Gas Used",
                        "value": 31699
                    },
                    {
                        "children": [],
                        "depth": -1,
                        "name": "Refunded Gas",
                        "value": 4800
                    }
                ],
                "depth": -2,
                "name": "Total Gas",
                "value": 36499
            }
        ],
        "isConfirmed": true,
        "mainTrace": [
            {
                "children": [
                    {
                        "children": [
                            {
                                "children": [],
                                "depth": 1,
                                "id": 1,
                                "order": 1
                            }
                        ],
                        "depth": 0,
                        "id": 0,
                        "order": 0
                    }
                ],
                "depth": -1,
                "id": -1,
                "order": -1
            }
        ],
        "mainTraceNodeCount": 2,
        "parentIdMap": {
            "0": -1,
            "1": 0
        },
        "tidyTrace": [
            {
                "children": [
                    {
                        "children": [
                            {
                                "children": [],
                                "depth": 1,
                                "id": 1,
                                "order": 1
                            }
                        ],
                        "depth": 0,
                        "id": 0,
                        "order": 0
                    }
                ],
                "depth": -1,
                "id": -1,
                "order": -1
            }
        ],
        "tidyTraceNodeCount": 2
    },
    "state_change": {
        "stateChanges": [
            {
                "address": "0x2dff88a56767223a5529ea5960da7a3f5f766406",
                "erc": "ERC-20",
                "slots": [
                    {
                        "current": "0x0000000000000000000000000000000000000000000000000000000000000000",
                        "key": "0x4effabdd672587f0259ddb1b1fad86381eb00cd7ed6de85bd56a4b7591f1f485",
                        "prev": "0x00000000000000000000000000000000000000000000010214b84df3173e8000"
                    },
                    {
                        "current": "0x0000000000000000000000000000000000000000000048f86c30cf5cdcc9e837",
                        "key": "0x0c1c0c914f45c000744875af89164f0c3fa7a95c88dac7dd52278df3ccdd7017",
                        "prev": "0x0000000000000000000000000000000000000000000047f657788169c58b6837"
                    }
                ],
                "storageVariables": [
                    {
                        "name": "_balances",
                        "type": "mapping(address => uint256)",
                        "value": {
                            "pairs": [
                                {
                                    "key": "0x1b70d7cea0a25a1cfedc1d34413933255009a437",
                                    "value": {
                                        "current": "0",
                                        "prev": "4760753000000000000000",
                                        "typeTag": 1
                                    }
                                },
                                {
                                    "key": "0x75e89d5979e4f6fba9f97c104c2f0afb3f1dcb88",
                                    "value": {
                                        "current": "344592975255847150676023",
                                        "prev": "339832222255847150676023",
                                        "typeTag": 1
                                    }
                                }
                            ],
                            "typeTag": 4
                        }
                    }
                ]
            }
        ]
    }
}