{
    "balance_change": {
        "balanceChanges": [
            {
                "account": "0x00d77e4093cb99c78fa852c1c8ef8037490a322a",
                "assets": [
                    {
                        "address": "0xe678f77756f3b98b7d82749cf78198ed0ca21538",
                        "amount": "0.547",
                        "iconUrl": "",
                        "isERC1155": false,
                        "isERC721": false,
                        "sign": true,
                        "value": ""
                    }
                ]
            },
            {
                "account": "0x00dd051adf2575c1cb114ccd7df81ac9fab9322a",
                "assets": [
                    {
                        "address": "0xe678f77756f3b98b7d82749cf78198ed0ca21538",
                        "amount": "0.547",
                        "iconUrl": "",
                        "isERC1155": false,
                        "isERC721": false,
                        "sign": true,
                        "value": ""
                    }
                ]
            },
            {
                "account": "0x19e3653d56d740d317052733078bf28862742005",
                "assets": [
                    {
                        "address": "0xe678f77756f3b98b7d82749cf78198ed0ca21538",
                        "amount": "0.52",
                        "iconUrl": "",
                        "isERC1155": false,
                        "isERC721": false,
                        "sign": true,
                        "value": ""
                    }
                ]
            },
            {
                "account": "0x4620062f15f0bfee08273b235fb2986606ecce8a",
                "assets": [
                    {
                        "address": "0xe678f77756f3b98b7d82749cf78198ed0ca21538",
                        "amount": "0.547",
                        "iconUrl": "",
                        "isERC1155": false,
                        "isERC721": false,
                        "sign": false,
                        "value": ""
                    }
                ]
            },
            {
                "account": "0x4625baef54941f1317e0631ac716516846dace8a",
                "assets": [
                    {
                        "address": "0xe678f77756f3b98b7d82749cf78198ed0ca21538",
                        "amount": "0.547",
                        "iconUrl": "",
                        "isERC1155": false,
                        "isERC721": false,
                        "sign": false,
                        "value": ""
                    }
                ]
            },
            {
                "account": "0x6305c26e3ba737a0a41103c397292084c12dac41",
                "assets": [
                    {
                        "address": "0xe180eb9a6e93482bcac20499f4ff0b39acdc12a2",
                        "amount": "4,500",
                        "iconUrl": "",
                        "isERC1155": false,
                        "isERC721": false,
                        "sign": true,
                        "value": ""
                    }
                ]
            },
            {
                "account": "0x68611e764d53cfa2768fad146bcb423dc2713732",
                "assets": [
                    {
                        "address": "0xe180eb9a6e93482bcac20499f4ff0b39acdc12a2",
                        "amount": "199,896.75",
                        "iconUrl": "",
                        "isERC1155": false,
                        "isERC721": false,
                        "sign": false,
                        "value": ""
                    }
                ]
            },
            {
                "account": "0x6865a4a3378d19e2a99e84d7d2ddf3bb114e3732",
                "assets": [
                    {
                        "address": "0xe180eb9a6e93482bcac20499f4ff0b39acdc12a2",
                        "amount": "199,896.75",
                        "iconUrl": "",
                        "isERC1155": false,
                        "isERC721": false,
                        "sign": false,
                        "value": ""
                    }
                ]
            },
            {
                "account": "0x6b03c89be6c1647fb5eaf20eaa03b4101e021539",
                "assets": [
                    {
                        "address": "0xe180eb9a6e93482bcac20499f4ff0b39acdc12a2",
                        "amount": "29,994.330775",
                        "iconUrl": "",
                        "isERC1155": false,
                        "isERC721": false,
                        "sign": true,
                        "value": ""
                    }
                ]
            },
            {
                "account": "0x7ce6b7677c246fe475cd9e3551c646fd27b6ff12",
                "assets": [
                    {
                        "address": "0xe180eb9a6e93482bcac20499f4ff0b39acdc12a2",
                        "amount": "4,500",
                        "iconUrl": "",
                        "isERC1155": false,
                        "isERC721": false,
                        "sign": false,
                        "value": ""
                    }
                ]
            },
            {
                "account": "0x8fca4ade3a517133ff23ca55cdaea29c78c990b8",
                "assets": [
                    {
                        "address": "0xe180eb9a6e93482bcac20499f4ff0b39acdc12a2",
                        "amount": "29,994.330775",
                        "iconUrl": "",
                        "isERC1155": false,
                        "isERC721": false,
                        "sign": false,
                        "value": ""
                    }
                ]
            },
            {
                "account": "0xb78d0f05204567813343bc1a21ed5ead304d9ea4",
                "assets": [
                    {
                        "address": "0xe678f77756f3b98b7d82749cf78198ed0ca21538",
                        "amount": "0.52",
                        "iconUrl": "",
                        "isERC1155": false,
                        "isERC721": false,
                        "sign": false,
                        "value": ""
                    }
                ]
            },
            {
                "account": "0xe30c375139b6f8b6f76ca837290fabba4683fe16",
                "assets": [
                    {
                        "address": "0xe180eb9a6e93482bcac20499f4ff0b39acdc12a2",
                        "amount": "199,896.75",
                        "iconUrl": "",
                        "isERC1155": false,
                        "isERC721": false,
                        "sign": true,
                        "value": ""
                    }
                ]
            },
            {
                "account": "0xe30c375cf73fe2ca98a0ac43409ffa7a4683fe16",
                "assets": [
                    {
                        "address": "0xe180eb9a6e93482bcac20499f4ff0b39acdc12a2",
                        "amount": "199,896.75",
                        "iconUrl": "",
                        "isERC1155": false,
                        "isERC721": false,
                        "sign": true,
                        "value": ""
                    }
                ]
            }
        ]
    },
    "profile": {
        "basic_info": {
            "baseFee": "19.009951749",
            "blockNumber": 19089722,
            "callData": "0x12514bba0000000000000000000000000000000000000000000000000000000000000020000000000000000000000000000000000000000000000000000000000000002c000000000000000000000000e678f77756f3b98b7d82749cf78198ed0ca21538000000000000000000000000e678f77756f3b98b7d82749cf78198ed0ca21538000000000000000000000000e678f77756f3b98b7d82749cf78198ed0ca21538000000000000000000000000e180eb9a6e93482bcac20499f4ff0b39acdc12a2000000000000000000000000dac17f958d2ee523a2206206994597c13d831ec7000000000000000000000000e180eb9a6e93482bcac20499f4ff0b39acdc12a2000000000000000000000000dac17f958d2ee523a2206206994597c13d831ec7000000000000000000000000e180eb9a6e93482bcac20499f4ff0b39acdc12a2000000000000000000000000dac17f958d2ee523a2206206994597c13d831ec7000000000000000000000000e180eb9a6e93482bcac20499f4ff0b39acdc12a2000000000000000000000000dac17f958d2ee523a2206206994597c13d831ec70000000000000000000000004620062f15f0bfee08273b235fb2986606ecce8a000000000000000000000000b78d0f05204567813343bc1a21ed5ead304d9ea40000000000000000000000004625baef54941f1317e0631ac716516846dace8a00000000000000000000000068611e764d53cfa2768fad146bcb423dc271373200000000000000000000000068611e764d53cfa2768fad146bcb423dc27137320000000000000000000000008fca4ade3a517133ff23ca55cdaea29c78c990b80000000000000000000000008fca4ade3a517133ff23ca55cdaea29c78c990b80000000000000000000000007ce6b7677c246fe475cd9e3551c646fd27b6ff120000000000000000000000007ce6b7677c246fe475cd9e3551c646fd27b6ff120000000000000000000000006865a4a3378d19e2a99e84d7d2ddf3bb114e37320000000000000000000000006865a4a3378d19e2a99e84d7d2ddf3bb114e373200000000000000000000000000dd051adf2575c1cb114ccd7df81ac9fab9322a00000000000000000000000019e3653d56d740d317052733078bf2886274200500000000000000000000000000d77e4093cb99c78fa852c1c8ef8037490a322a000000000000000000000000e30c375139b6f8b6f76ca837290fabba4683fe16000000000000000000000000e30c375139b6f8b6f76ca837290fabba4683fe160000000000000000000000006b03c89be6c1647fb5eaf20eaa03b4101e0215390000000000000000000000006b03c89be6c1647fb5eaf20eaa03b4101e0215390000000000000000000000006305c26e3ba737a0a41103c397292084c12dac410000000000000000000000006305c26e3ba737a0a41103c397292084c12dac41000000000000000000000000e30c375cf73fe2ca98a0ac43409ffa7a4683fe16000000000000000000000000e30c375cf73fe2ca98a0ac43409ffa7a4683fe160000000000000000000000000000000000000000000000000001f17e5cb130000000000000000000000000000000000000000000000000000001d8efef4880000000000000000000000000000000000000000000000000000001f17e5cb1300000000000000000000000000000000000000000000000000ad61feb06d110e0000000000000000000000000000000000000000000000000000000000000000000000000000000000000000000000000000000000000000001a04144ec4f71260000000000000000000000000000000000000000000000000000000000000000000000000000000000000000000000000000000000000000003e73362871420000000000000000000000000000000000000000000000000000000000000000000000000000000000000000000000000000000000000000000ad61feb06d110e0000000000000000000000000000000000000000000000000000000000000000000",
            "debugEnable": true,
            "errorInfo": "",
            "eventCount": 10,
            "feeRecipient": "0x0aa8ebb6ad5a8e499e550ae2c461197624c6e667",
            "formatValue": "0",
            "gasLimit": 18500000,
            "gasPrice": "22.009951749",
            "gasUsed": 115093,
            "intTxnCount": 11,
            "internalRevert": false,
            "internalRevertMessage": "",
            "isContractCreation": false,
            "isFlashloan": false,
            "maxFee": "200",
            "nonce": 247,
            "overwritedBlockNumber": -1,
            "priorityFee": "3",
            "receiver": "0x6df2aab0e5f7d28d6ad3c014309730c290e89a38",
            "revertMessage": "",
            "sender": "0x5daaa9b9993e636af01f85f30129675754e920e6",
            "simulationEnable": true,
            "sourceTxnHash": "0x0537bdc1a6c67e08417f91a0c1f1c17ab5e5b2e5a36c7b664ba12c7a064dace9",
            "status": true,
            "timestamp": "2024-01-26T08:55:11Z",
            "transactionFee": "0.002533191376647657",
            "txnHash": "0x0537bdc1a6c67e08417f91a0c1f1c17ab5e5b2e5a36c7b664ba12c7a064dace9",
            "txnIndex": 42,
            "type": 2,
            "value": "0"
        },
        "fund_flow": [
            {
                "amount": "0.547",
                "from": "0x4620062f15f0bfee08273b235fb2986606ecce8a",
                "id": 1,
                "isERC1155": false,
                "isERC721": false,
                "isReverted": false,
                "order": 1,
                "to": "0x00dd051adf2575c1cb114ccd7df81ac9fab9322a",
                "token": "0xe678f77756f3b98b7d82749cf78198ed0ca21538"
            },
            {
                "amount": "0.52",
                "from": "0xb78d0f05204567813343bc1a21ed5ead304d9ea4",
                "id": 2,
                "isERC1155": false,
                "isERC721": false,
                "isReverted": false,
                "order": 2,
                "to": "0x19e3653d56d740d317052733078bf28862742005",
                "token": "0xe678f77756f3b98b7d82749cf78198ed0ca21538"
            },
            {
                "amount": "0.547",
                "from": "0x4625baef54941f1317e0631ac716516846dace8a",
                "id": 3,
                "isERC1155": false,
                "isERC721": false,
                "isReverted": false,
                "order": 3,
                "to": "0x00d77e4093cb99c78fa852c1c8ef8037490a322a",
                "token": "0xe678f77756f3b98b7d82749cf78198ed0ca21538"
            },
            {
                "amount": "199,896.75",
                "from": "0x68611e764d53cfa2768fad146bcb423dc2713732",
                "id": 4,
                "isERC1155": false,
                "isERC721": false,
                "isReverted": false,
                "order": 4,
                "to": "0xe30c375139b6f8b6f76ca837290fabba4683fe16",
                "token": "0xe180eb9a6e93482bcac20499f4ff0b39acdc12a2"
            },
            {
                "amount": "0",
                "from": "0x68611e764d53cfa2768fad146bcb423dc2713732",
                "id": 5,
                "isERC1155": false,
                "isERC721": false,
                "isReverted": false,
                "order": 5,
                "to": "0xe30c375139b6f8b6f76ca837290fabba4683fe16",
                "token": "0xdac17f958d2ee523a2206206994597c13d831ec7"
            },
            {
                "amount": "29,994.330775",
                "from": "0x8fca4ade3a517133ff23ca55cdaea29c78c990b8",
                "id": 6,
                "isERC1155": false,
                "isERC721": false,
                "isReverted": false,
                "order": 6,
                "to": "0x6b03c89be6c1647fb5eaf20eaa03b4101e021539",
                "token": "0xe180eb9a6e93482bcac20499f4ff0b39acdc12a2"
            },
            {
                "amount": "0",
                "from": "0x8fca4ade3a517133ff23ca55cdaea29c78c990b8",
                "id": 7,
                "isERC1155": false,
                "isERC721": false,
                "isReverted": false,
                "order": 7,
                "to": "0x6b03c89be6c1647fb5eaf20eaa03b4101e021539",
                "token": "0xdac17f958d2ee523a2206206994597c13d831ec7"
            },
            {
                "amount": "4,500",
                "from": "0x7ce6b7677c246fe475cd9e3551c646fd27b6ff12",
                "id": 8,
                "isERC1155": false,
                "isERC721": false,
                "isReverted": false,
                "order": 8,
                "to": "0x6305c26e3ba737a0a41103c397292084c12dac41",
                "token": "0xe180eb9a6e93482bcac20499f4ff0b39acdc12a2"
            },
            {
                "amount": "0",
                "from": "0x7ce6b7677c246fe475cd9e3551c646fd27b6ff12",
                "id": 9,
                "isERC1155": false,
                "isERC721": false,
                "isReverted": false,
                "order": 9,
                "to": "0x6305c26e3ba737a0a41103c397292084c12dac41",
                "token": "0xdac17f958d2ee523a2206206994597c13d831ec7"
            },
            {
                "amount": "199,896.75",
                "from": "0x6865a4a3378d19e2a99e84d7d2ddf3bb114e3732",
                "id": 10,
                "isERC1155": false,
                "isERC721": false,
                "isReverted": false,
                "order": 10,
                "to": "0xe30c375cf73fe2ca98a0ac43409ffa7a4683fe16",
                "token": "0xe180eb9a6e93482bcac20499f4ff0b39acdc12a2"
            }
        ],
        "token_infos": [
            {
                "address": "0xe180eb9a6e93482bcac20499f4ff0b39acdc12a2",
                "decimals": 15
            },
            {
                "address": "0xe678f77756f3b98b7d82749cf78198ed0ca21538",
                "decimals": 15
            },
            {
                "address": "0xeeeeeeeeeeeeeeeeeeeeeeeeeeeeeeeeeeeeeeee",
                "decimals": 18
            },
            {
                "address": "0xc02aaa39b223fe8d0a0e5c4f27ead9083c756cc2",
                "decimals": 18
            },
            {
                "address": "0xdac17f958d2ee523a2206206994597c13d831ec7",
                "decimals": 6
            }
        ]
    },
    "address_label": {
        "labels": [
            {
                "address": "0x6df2aab0e5f7d28d6ad3c014309730c290e89a38",
                "label": "Fake_Phishing324515"
            },
            {
                "address": "0x5daaa9b9993e636af01f85f30129675754e920e6",
                "label": "Fake_Phishing_5daa_20e6"
            },
            {
                "address": "0xdac17f958d2ee523a2206206994597c13d831ec7",
                "label": "Tether: USDT Stablecoin"
            },
            {
                "address": "0xe180eb9a6e93482bcac20499f4ff0b39acdc12a2",
                "label": "Fake_Phishing291062"
            },
            {
                "address": "0x0000000000000000000000000000000000000004",
                "label": "Precompiled"
            },
            {
                "address": "0xeeeeeeeeeeeeeeeeeeeeeeeeeeeeeeeeeeeeeeee",
                "label": "Ether"
            },
            {
                "address": "0x0000000000000000000000000000000000000001",
                "label": "Precompiled"
            },
            {
                "address": "0x0000000000000000000000000000000000000002",
                "label": "Precompiled"
            },
            {
                "address": "0x0000000000000000000000000000000000000003",
                "label": "Precompiled"
            },
            {
                "address": "0xe678f77756f3b98b7d82749cf78198ed0ca21538",
                "label": "Fake_Phishing291066"
            }
        ]
    },
    "trace": {
        "accountLabels": null,
        "dataMap": {
            "-1": {
                "invocation": {
                    "address": "0x5daaa9b9993e636af01f85f30129675754e920e6",
                    "callData": "",
                    "decodedMethod": null,
                    "errorInfo": "",
                    "fromAddress": "",
                    "gasUsed": 0,
                    "id": -1,
                    "methodDecoded": false,
                    "operation": "",
                    "output": "",
                    "revert": false,
                    "revertMessage": "",
                    "selector": "",
                    "status": false,
                    "value": ""
                },
                "nodeType": 0
            },
            "0": {
                "invocation": {
                    "address": "0x6df2aab0e5f7d28d6ad3c014309730c290e89a38",
                    "callData": "0x0000000000000000000000000000000000000000000000000000000000000020000000000000000000000000000000000000000000000000000000000000002c000000000000000000000000e678f77756f3b98b7d82749cf78198ed0ca21538000000000000000000000000e678f77756f3b98b7d82749cf78198ed0ca21538000000000000000000000000e678f77756f3b98b7d82749cf78198ed0ca21538000000000000000000000000e180eb9a6e93482bcac20499f4ff0b39acdc12a2000000000000000000000000dac17f958d2ee523a2206206994597c13d831ec7000000000000000000000000e180eb9a6e93482bcac20499f4ff0b39acdc12a2000000000000000000000000dac17f958d2ee523a2206206994597c13d831ec7000000000000000000000000e180eb9a6e93482bcac20499f4ff0b39acdc12a2000000000000000000000000dac17f958d2ee523a2206206994597c13d831ec7000000000000000000000000e180eb9a6e93482bcac20499f4ff0b39acdc12a2000000000000000000000000dac17f958d2ee523a2206206994597c13d831ec70000000000000000000000004620062f15f0bfee08273b235fb2986606ecce8a000000000000000000000000b78d0f05204567813343bc1a21ed5ead304d9ea40000000000000000000000004625baef54941f1317e0631ac716516846dace8a00000000000000000000000068611e764d53cfa2768fad146bcb423dc271373200000000000000000000000068611e764d53cfa2768fad146bcb423dc27137320000000000000000000000008fca4ade3a517133ff23ca55cdaea29c78c990b80000000000000000000000008fca4ade3a517133ff23ca55cdaea29c78c990b80000000000000000000000007ce6b7677c246fe475cd9e3551c646fd27b6ff120000000000000000000000007ce6b7677c246fe475cd9e3551c646fd27b6ff120000000000000000000000006865a4a3378d19e2a99e84d7d2ddf3bb114e37320000000000000000000000006865a4a3378d19e2a99e84d7d2ddf3bb114e373200000000000000000000000000dd051adf2575c1cb114ccd7df81ac9fab9322a00000000000000000000000019e3653d56d740d317052733078bf2886274200500000000000000000000000000d77e4093cb99c78fa852c1c8ef8037490a322a000000000000000000000000e30c375139b6f8b6f76ca837290fabba4683fe16000000000000000000000000e30c375139b6f8b6f76ca837290fabba4683fe160000000000000000000000006b03c89be6c1647fb5eaf20eaa03b4101e0215390000000000000000000000006b03c89be6c1647fb5eaf20eaa03b4101e0215390000000000000000000000006305c26e3ba737a0a41103c397292084c12dac410000000000000000000000006305c26e3ba737a0a41103c397292084c12dac41000000000000000000000000e30c375cf73fe2ca98a0ac43409ffa7a4683fe16000000000000000000000000e30c375cf73fe2ca98a0ac43409ffa7a4683fe160000000000000000000000000000000000000000000000000001f17e5cb130000000000000000000000000000000000000000000000000000001d8efef4880000000000000000000000000000000000000000000000000000001f17e5cb1300000000000000000000000000000000000000000000000000ad61feb06d110e0000000000000000000000000000000000000000000000000000000000000000000000000000000000000000000000000000000000000000001a04144ec4f71260000000000000000000000000000000000000000000000000000000000000000000000000000000000000000000000000000000000000000003e73362871420000000000000000000000000000000000000000000000000000000000000000000000000000000000000000000000000000000000000000000ad61feb06d110e0000000000000000000000000000000000000000000000000000000000000000000",
                    "decodedMethod": {
                        "callParams": [
                            {
                                "name": "amount",
                                "type": "uint256",
                                "value": "32"
                            }
                        ],
                        "constructorArguments": "",
                        "name": "transfer",
                        "returnParams": [],
                        "signature": "transfer(uint256)"
                    },
                    "errorInfo": "",
                    "fromAddress": "0x5daaa9b9993e636af01f85f30129675754e920e6",
                    "gasUsed": 115093,
                    "id": 0,
                    "methodDecoded": true,
                    "operation": "CALL",
                    "output": "",
                    "revert": false,
                    "revertMessage": "",
                    "selector": "0x12514bba",
                    "status": true,
                    "value": "0"
                },
                "nodeType": 0
            },
            "1": {
                "invocation": {
                    "address": "0x000000000000000000000000000000000000002c",
                    "callData": "0x000000000000000000000000dac17f958d2ee523a2206206994597c13d831ec70000000000000000000000006865a4a3378d19e2a99e84d7d2ddf3bb114e3732000000000000000000000000e30c375cf73fe2ca98a0ac43409ffa7a4683fe16",
                    "decodedMethod": {
                        "callParams": [
                            {
                                "name": "from",
                                "type": "address",
                                "value": "0xdac17f958d2ee523a2206206994597c13d831ec7"
                            },
                            {
                                "name": "to",
                                "type": "address",
                                "value": "0x6865a4a3378d19e2a99e84d7d2ddf3bb114e3732"
                            },
                            {
                                "decimalAvailable": true,
                                "name": "tokenId",
                                "type": "uint256",
                                "value": "1,296,213,336,729,748,972,555,383,422,842,706,071,899,789,852,182"
                            }
                        ],
                        "constructorArguments": "",
                        "name": "transferFrom",
                        "returnParams": [],
                        "signature": "transferFrom(address,address,uint256)"
                    },
                    "errorInfo": "",
                    "fromAddress": "0x6df2aab0e5f7d28d6ad3c014309730c290e89a38",
                    "gasUsed": 0,
                    "id": 1,
                    "methodDecoded": true,
                    "operation": "CALL",
                    "output": "",
                    "revert": false,
                    "revertMessage": "",
                    "selector": "0x23b872dd",
                    "status": true,
                    "value": "0"
                },
                "nodeType": 0
            },
            "10": {
                "invocation": {
                    "address": "0xdac17f958d2ee523a2206206994597c13d831ec7",
                    "callData": "0x00000000000000000000000068611e764d53cfa2768fad146bcb423dc2713732000000000000000000000000e30c375139b6f8b6f76ca837290fabba4683fe160000000000000000000000000000000000000000000000000000000000000000",
                    "decodedMethod": {
                        "callParams": [
                            {
                                "name": "_from",
                                "type": "address",
                                "value": "0x68611e764d53cfa2768fad146bcb423dc2713732"
                            },
                            {
                                "name": "_to",
                                "type": "address",
                                "value": "0xe30c375139b6f8b6f76ca837290fabba4683fe16"
                            },
                            {
                                "decimalAvailable": true,
                                "name": "_value",
                                "type": "uint256",
                                "value": "0"
                            }
                        ],
                        "constructorArguments": "",
                        "name": "transferFrom",
                        "returnParams": [],
                        "signature": "transferFrom(address,address,uint256)"
                    },
                    "errorInfo": "",
                    "fromAddress": "0x6df2aab0e5f7d28d6ad3c014309730c290e89a38",
                    "gasUsed": 21258,
                    "id": 10,
                    "methodDecoded": true,
                    "operation": "CALL",
                    "output": "",
                    "revert": false,
                    "revertMessage": "",
                    "selector": "0x23b872dd",
                    "status": true,
                    "value": "0"
                },
                "nodeType": 0
            },
            "11": {
                "event": {
                    "contract": "0xdac17f958d2ee523a2206206994597c13d831ec7",
                    "decodedLog": {
                        "name": "Transfer",
                        "params": [
                            {
                                "name": "from",
                                "type": "address",
                                "value": "0x68611e764d53cfa2768fad146bcb423dc2713732"
                            },
                            {
                                "name": "to",
                                "type": "address",
                                "value": "0xe30c375139b6f8b6f76ca837290fabba4683fe16"
                            },
                            {
                                "decimalAvailable": true,
                                "name": "value",
                                "type": "uint256",
                                "value": "0"
                            }
                        ],
                        "signature": "Transfer(address,address,uint256)"
                    },
                    "id": 11,
                    "logData": "0x0000000000000000000000000000000000000000000000000000000000000000",
                    "logDecoded": true,
                    "operation": "EVENT",
                    "revert": false,
                    "status": true,
                    "topics": [
                        "0xddf252ad1be2c89b69c2b068fc378daa952ba7f163c4a11628f55a4df523b3ef",
                        "0x00000000000000000000000068611e764d53cfa2768fad146bcb423dc2713732",
                        "0x000000000000000000000000e30c375139b6f8b6f76ca837290fabba4683fe16"
                    ]
                },
                "nodeType": 1
            },
            "12": {
                "invocation": {
                    "address": "0xe180eb9a6e93482bcac20499f4ff0b39acdc12a2",
                    "callData": "0x0000000000000000000000008fca4ade3a517133ff23ca55cdaea29c78c990b80000000000000000000000006b03c89be6c1647fb5eaf20eaa03b4101e021539000000000000000000000000000000000000000000000001a04144ec4f712600",
                    "decodedMethod": {
                        "callParams": [
                            {
                                "name": "sender",
                                "type": "address",
                                "value": "0x8fca4ade3a517133ff23ca55cdaea29c78c990b8"
                            },
                            {
                                "name": "recipient",
                                "type": "address",
                                "value": "0x6b03c89be6c1647fb5eaf20eaa03b4101e021539"
                            },
                            {
                                "decimalAvailable": true,
                                "name": "amount",
                                "type": "uint256",
                                "value": "29,994,330,775,000,000,000"
                            }
                        ],
                        "constructorArguments": "",
                        "name": "transferFrom",
                        "returnParams": [
                            {
                                "name": "",
                                "type": "bool",
                                "value": true
                            }
                        ],
                        "signature": "transferFrom(address,address,uint256)"
                    },
                    "errorInfo": "",
                    "fromAddress": "0x6df2aab0e5f7d28d6ad3c014309730c290e89a38",
                    "gasUsed": 2428,
                    "id": 12,
                    "methodDecoded": true,
                    "operation": "CALL",
                    "output": "0x0000000000000000000000000000000000000000000000000000000000000001",
                    "revert": false,
                    "revertMessage": "",
                    "selector": "0x23b872dd",
                    "status": true,
                    "value": "0"
                },
                "nodeType": 0
            },
            "13": {
                "event": {
                    "contract": "0xe180eb9a6e93482bcac20499f4ff0b39acdc12a2",
                    "decodedLog": {
                        "name": "Transfer",
                        "params": [
                            {
                                "name": "from",
                                "type": "address",
                                "value": "0x8fca4ade3a517133ff23ca55cdaea29c78c990b8"
                            },
                            {
                                "name": "to",
                                "type": "address",
                                "value": "0x6b03c89be6c1647fb5eaf20eaa03b4101e021539"
                            },
                            {
                                "decimalAvailable": true,
                                "name": "value",
                                "type": "uint256",
                                "value": "29,994,330,775,000,000,000"
                            }
                        ],
                        "signature": "Transfer(address,address,uint256)"
                    },
                    "id": 13,
                    "logData": "0x000000000000000000000000000000000000000000000001a04144ec4f712600",
                    "logDecoded": true,
                    "operation": "EVENT",
                    "revert": false,
                    "status": true,
                    "topics": [
                        "0xddf252ad1be2c89b69c2b068fc378daa952ba7f163c4a11628f55a4df523b3ef",
                        "0x0000000000000000000000008fca4ade3a517133ff23ca55cdaea29c78c990b8",
                        "0x0000000000000000000000006b03c89be6c1647fb5eaf20eaa03b4101e021539"
                    ]
                },
                "nodeType": 1
            },
            "14": {
                "invocation": {
                    "address": "0xdac17f958d2ee523a2206206994597c13d831ec7",
                    "callData": "0x0000000000000000000000008fca4ade3a517133ff23ca55cdaea29c78c990b80000000000000000000000006b03c89be6c1647fb5eaf20eaa03b4101e0215390000000000000000000000000000000000000000000000000000000000000000",
                    "decodedMethod": {
                        "callParams": [
                            {
                                "name": "_from",
                                "type": "address",
                                "value": "0x8fca4ade3a517133ff23ca55cdaea29c78c990b8"
                            },
                            {
                                "name": "_to",
                                "type": "address",
                                "value": "0x6b03c89be6c1647fb5eaf20eaa03b4101e021539"
                            },
                            {
                                "decimalAvailable": true,
                                "name": "_value",
                                "type": "uint256",
                                "value": "0"
                            }
                        ],
                        "constructorArguments": "",
                        "name": "transferFrom",
                        "returnParams": [],
                        "signature": "transferFrom(address,address,uint256)"
                    },
                    "errorInfo": "",
                    "fromAddress": "0x6df2aab0e5f7d28d6ad3c014309730c290e89a38",
                    "gasUsed": 13258,
                    "id": 14,
                    "methodDecoded": true,
                    "operation": "CALL",
                    "output": "",
                    "revert": false,
                    "revertMessage": "",
                    "selector": "0x23b872dd",
                    "status": true,
                    "value": "0"
                },
                "nodeType": 0
            },
            "15": {
                "event": {
                    "contract": "0xdac17f958d2ee523a2206206994597c13d831ec7",
                    "decodedLog": {
                        "name": "Transfer",
                        "params": [
                            {
                                "name": "from",
                                "type": "address",
                                "value": "0x8fca4ade3a517133ff23ca55cdaea29c78c990b8"
                            },
                            {
                                "name": "to",
                                "type": "address",
                                "value": "0x6b03c89be6c1647fb5eaf20eaa03b4101e021539"
                            },
                            {
                                "decimalAvailable": true,
                                "name": "value",
                                "type": "uint256",
                                "value": "0"
                            }
                        ],
                        "signature": "Transfer(address,address,uint256)"
                    },
                    "id": 15,
                    "logData": "0x0000000000000000000000000000000000000000000000000000000000000000",
                    "logDecoded": true,
                    "operation": "EVENT",
                    "revert": false,
                    "status": true,
                    "topics": [
                        "0xddf252ad1be2c89b69c2b068fc378daa952ba7f163c4a11628f55a4df523b3ef",
                        "0x0000000000000000000000008fca4ade3a517133ff23ca55cdaea29c78c990b8",
                        "0x0000000000000000000000006b03c89be6c1647fb5eaf20eaa03b4101e021539"
                    ]
                },
                "nodeType": 1
            },
            "16": {
                "invocation": {
                    "address": "0xe180eb9a6e93482bcac20499f4ff0b39acdc12a2",
                    "callData": "0x0000000000000000000000007ce6b7677c246fe475cd9e3551c646fd27b6ff120000000000000000000000006305c26e3ba737a0a41103c397292084c12dac410000000000000000000000000000000000000000000000003e73362871420000",
                    "decodedMethod": {
                        "callParams": [
                            {
                                "name": "sender",
                                "type": "address",
                                "value": "0x7ce6b7677c246fe475cd9e3551c646fd27b6ff12"
                            },
                            {
                                "name": "recipient",
                                "type": "address",
                                "value": "0x6305c26e3ba737a0a41103c397292084c12dac41"
                            },
                            {
                                "decimalAvailable": true,
                                "name": "amount",
                                "type": "uint256",
                                "value": "4,500,000,000,000,000,000"
                            }
                        ],
                        "constructorArguments": "",
                        "name": "transferFrom",
                        "returnParams": [
                            {
                                "name": "",
                                "type": "bool",
                                "value": true
                            }
                        ],
                        "signature": "transferFrom(address,address,uint256)"
                    },
                    "errorInfo": "",
                    "fromAddress": "0x6df2aab0e5f7d28d6ad3c014309730c290e89a38",
                    "gasUsed": 2428,
                    "id": 16,
                    "methodDecoded": true,
                    "operation": "CALL",
                    "output": "0x0000000000000000000000000000000000000000000000000000000000000001",
                    "revert": false,
                    "revertMessage": "",
                    "selector": "0x23b872dd",
                    "status": true,
                    "value": "0"
                },
                "nodeType": 0
            },
            "17": {
                "event": {
                    "contract": "0xe180eb9a6e93482bcac20499f4ff0b39acdc12a2",
                    "decodedLog": {
                        "name": "Transfer",
                        "params": [
                            {
                                "name": "from",
                                "type": "address",
                                "value": "0x7ce6b7677c246fe475cd9e3551c646fd27b6ff12"
                            },
                            {
                                "name": "to",
                                "type": "address",
                                "value": "0x6305c26e3ba737a0a41103c397292084c12dac41"
                            },
                            {
                                "decimalAvailable": true,
                                "name": "value",
                                "type": "uint256",
                                "value": "4,500,000,000,000,000,000"
                            }
                        ],
                        "signature": "Transfer(address,address,uint256)"
                    },
                    "id": 17,
                    "logData": "0x0000000000000000000000000000000000000000000000003e73362871420000",
                    "logDecoded": true,
                    "operation": "EVENT",
                    "revert": false,
                    "status": true,
                    "topics": [
                        "0xddf252ad1be2c89b69c2b068fc378daa952ba7f163c4a11628f55a4df523b3ef",
                        "0x0000000000000000000000007ce6b7677c246fe475cd9e3551c646fd27b6ff12",
                        "0x0000000000000000000000006305c26e3ba737a0a41103c397292084c12dac41"
                    ]
                },
                "nodeType": 1
            },
            "18": {
                "invocation": {
                    "address": "0xdac17f958d2ee523a2206206994597c13d831ec7",
                    "callData": "0x0000000000000000000000007ce6b7677c246fe475cd9e3551c646fd27b6ff120000000000000000000000006305c26e3ba737a0a41103c397292084c12dac410000000000000000000000000000000000000000000000000000000000000000",
                    "decodedMethod": {
                        "callParams": [
                            {
                                "name": "_from",
                                "type": "address",
                                "value": "0x7ce6b7677c246fe475cd9e3551c646fd27b6ff12"
                            },
                            {
                                "name": "_to",
                                "type": "address",
                                "value": "0x6305c26e3ba737a0a41103c397292084c12dac41"
                            },
                            {
                                "decimalAvailable": true,
                                "name": "_value",
                                "type": "uint256",
                                "value": "0"
                            }
                        ],
                        "constructorArguments": "",
                        "name": "transferFrom",
                        "returnParams": [],
                        "signature": "transferFrom(address,address,uint256)"
                    },
                    "errorInfo": "",
                    "fromAddress": "0x6df2aab0e5f7d28d6ad3c014309730c290e89a38",
                    "gasUsed": 13258,
                    "id": 18,
                    "methodDecoded": true,
                    "operation": "CALL",
                    "output": "",
                    "revert": false,
                    "revertMessage": "",
                    "selector": "0x23b872dd",
                    "status": true,
                    "value": "0"
                },
                "nodeType": 0
            },
            "19": {
                "event": {
                    "contract": "0xdac17f958d2ee523a2206206994597c13d831ec7",
                    "decodedLog": {
                        "name": "Transfer",
                        "params": [
                            {
                                "name": "from",
                                "type": "address",
                                "value": "0x7ce6b7677c246fe475cd9e3551c646fd27b6ff12"
                            },
                            {
                                "name": "to",
                                "type": "address",
                                "value": "0x6305c26e3ba737a0a41103c397292084c12dac41"
                            },
                            {
                                "decimalAvailable": true,
                                "name": "value",
                                "type": "uint256",
                                "value": "0"
                            }
                        ],
                        "signature": "Transfer(address,address,uint256)"
                    },
                    "id": 19,
                    "logData": "0x0000000000000000000000000000000000000000000000000000000000000000",
                    "logDecoded": true,
                    "operation": "EVENT",
                    "revert": false,
                    "status": true,
                    "topics": [
                        "0xddf252ad1be2c89b69c2b068fc378daa952ba7f163c4a11628f55a4df523b3ef",
                        "0x0000000000000000000000007ce6b7677c246fe475cd9e3551c646fd27b6ff12",
                        "0x0000000000000000000000006305c26e3ba737a0a41103c397292084c12dac41"
                    ]
                },
                "nodeType": 1
            },
            "2": {
                "invocation": {
                    "address": "0xe678f77756f3b98b7d82749cf78198ed0ca21538",
                    "callData": "0x0000000000000000000000004620062f15f0bfee08273b235fb2986606ecce8a00000000000000000000000000dd051adf2575c1cb114ccd7df81ac9fab9322a0000000000000000000000000000000000000000000000000001f17e5cb13000",
                    "decodedMethod": {
                        "callParams": [
                            {
                                "name": "sender",
                                "type": "address",
                                "value": "0x4620062f15f0bfee08273b235fb2986606ecce8a"
                            },
                            {
                                "name": "recipient",
                                "type": "address",
                                "value": "0x00dd051adf2575c1cb114ccd7df81ac9fab9322a"
                            },
                            {
                                "decimalAvailable": true,
                                "name": "amount",
                                "type": "uint256",
                                "value": "547,000,000,000,000"
                            }
                        ],
                        "constructorArguments": "",
                        "name": "transferFrom",
                        "returnParams": [
                            {
                                "name": "",
                                "type": "bool",
                                "value": true
                            }
                        ],
                        "signature": "transferFrom(address,address,uint256)"
                    },
                    "errorInfo": "",
                    "fromAddress": "0x6df2aab0e5f7d28d6ad3c014309730c290e89a38",
                    "gasUsed": 2428,
                    "id": 2,
                    "methodDecoded": true,
                    "operation": "CALL",
                    "output": "0x0000000000000000000000000000000000000000000000000000000000000001",
                    "revert": false,
                    "revertMessage": "",
                    "selector": "0x23b872dd",
                    "status": true,
                    "value": "0"
                },
                "nodeType": 0
            },
            "20": {
                "invocation": {
                    "address": "0xe180eb9a6e93482bcac20499f4ff0b39acdc12a2",
                    "callData": "0x0000000000000000000000006865a4a3378d19e2a99e84d7d2ddf3bb114e3732000000000000000000000000e30c375cf73fe2ca98a0ac43409ffa7a4683fe1600000000000000000000000000000000000000000000000ad61feb06d110e000",
                    "decodedMethod": {
                        "callParams": [
                            {
                                "name": "sender",
                                "type": "address",
                                "value": "0x6865a4a3378d19e2a99e84d7d2ddf3bb114e3732"
                            },
                            {
                                "name": "recipient",
                                "type": "address",
                                "value": "0xe30c375cf73fe2ca98a0ac43409ffa7a4683fe16"
                            },
                            {
                                "decimalAvailable": true,
                                "name": "amount",
                                "type": "uint256",
                                "value": "199,896,750,000,000,000,000"
                            }
                        ],
                        "constructorArguments": "",
                        "name": "transferFrom",
                        "returnParams": [
                            {
                                "name": "",
                                "type": "bool",
                                "value": true
                            }
                        ],
                        "signature": "transferFrom(address,address,uint256)"
                    },
                    "errorInfo": "",
                    "fromAddress": "0x6df2aab0e5f7d28d6ad3c014309730c290e89a38",
                    "gasUsed": 2428,
                    "id": 20,
                    "methodDecoded": true,
                    "operation": "CALL",
                    "output": "0x0000000000000000000000000000000000000000000000000000000000000001",
                    "revert": false,
                    "revertMessage": "",
                    "selector": "0x23b872dd",
                    "status": true,
                    "value": "0"
                },
                "nodeType": 0
            },
            "21": {
                "event": {
                    "contract": "0xe180eb9a6e93482bcac20499f4ff0b39acdc12a2",
                    "decodedLog": {
                        "name": "Transfer",
                        "params": [
                            {
                                "name": "from",
                                "type": "address",
                                "value": "0x6865a4a3378d19e2a99e84d7d2ddf3bb114e3732"
                            },
                            {
                                "name": "to",
                                "type": "address",
                                "value": "0xe30c375cf73fe2ca98a0ac43409ffa7a4683fe16"
                            },
                            {
                                "decimalAvailable": true,
                                "name": "value",
                                "type": "uint256",
                                "value": "199,896,750,000,000,000,000"
                            }
                        ],
                        "signature": "Transfer(address,address,uint256)"
                    },
                    "id": 21,
                    "logData": "0x00000000000000000000000000000000000000000000000ad61feb06d110e000",
                    "logDecoded": true,
                    "operation": "EVENT",
                    "revert": false,
                    "status": true,
                    "topics": [
                        "0xddf252ad1be2c89b69c2b068fc378daa952ba7f163c4a11628f55a4df523b3ef",
                        "0x0000000000000000000000006865a4a3378d19e2a99e84d7d2ddf3bb114e3732",
                        "0x000000000000000000000000e30c375cf73fe2ca98a0ac43409ffa7a4683fe16"
                    ]
                },
                "nodeType": 1
            },
            "3": {
                "event": {
                    "contract": "0xe678f77756f3b98b7d82749cf78198ed0ca21538",
                    "decodedLog": {
                        "name": "Transfer",
                        "params": [
                            {
                                "name": "from",
                                "type": "address",
                                "value": "0x4620062f15f0bfee08273b235fb2986606ecce8a"
                            },
                            {
                                "name": "to",
                                "type": "address",
                                "value": "0x00dd051adf2575c1cb114ccd7df81ac9fab9322a"
                            },
                            {
                                "decimalAvailable": true,
                                "name": "value",
                                "type": "uint256",
                                "value": "547,000,000,000,000"
                            }
                        ],
                        "signature": "Transfer(address,address,uint256)"
                    },
                    "id": 3,
                    "logData": "0x0000000000000000000000000000000000000000000000000001f17e5cb13000",
                    "logDecoded": true,
                    "operation": "EVENT",
                    "revert": false,
                    "status": true,
                    "topics": [
                        "0xddf252ad1be2c89b69c2b068fc378daa952ba7f163c4a11628f55a4df523b3ef",
                        "0x0000000000000000000000004620062f15f0bfee08273b235fb2986606ecce8a",
                        "0x00000000000000000000000000dd051adf2575c1cb114ccd7df81ac9fab9322a"
                    ]
                },
                "nodeType": 1
            },
            "4": {
                "invocation": {
                    "address": "0xe678f77756f3b98b7d82749cf78198ed0ca21538",
                    "callData": "0x000000000000000000000000b78d0f05204567813343bc1a21ed5ead304d9ea400000000000000000000000019e3653d56d740d317052733078bf288627420050000000000000000000000000000000000000000000000000001d8efef488000",
                    "decodedMethod": {
                        "callParams": [
                            {
                                "name": "sender",
                                "type": "address",
                                "value": "0xb78d0f05204567813343bc1a21ed5ead304d9ea4"
                            },
                            {
                                "name": "recipient",
                                "type": "address",
                                "value": "0x19e3653d56d740d317052733078bf28862742005"
                            },
                            {
                                "decimalAvailable": true,
                                "name": "amount",
                                "type": "uint256",
                                "value": "520,000,000,000,000"
                            }
                        ],
                        "constructorArguments": "",
                        "name": "transferFrom",
                        "returnParams": [
                            {
                                "name": "",
                                "type": "bool",
                                "value": true
                            }
                        ],
                        "signature": "transferFrom(address,address,uint256)"
                    },
                    "errorInfo": "",
                    "fromAddress": "0x6df2aab0e5f7d28d6ad3c014309730c290e89a38",
                    "gasUsed": 2428,
                    "id": 4,
                    "methodDecoded": true,
                    "operation": "CALL",
                    "output": "0x0000000000000000000000000000000000000000000000000000000000000001",
                    "revert": false,
                    "revertMessage": "",
                    "selector": "0x23b872dd",
                    "status": true,
                    "value": "0"
                },
                "nodeType": 0
            },
            "5": {
                "event": {
                    "contract": "0xe678f77756f3b98b7d82749cf78198ed0ca21538",
                    "decodedLog": {
                        "name": "Transfer",
                        "params": [
                            {
                                "name": "from",
                                "type": "address",
                                "value": "0xb78d0f05204567813343bc1a21ed5ead304d9ea4"
                            },
                            {
                                "name": "to",
                                "type": "address",
                                "value": "0x19e3653d56d740d317052733078bf28862742005"
                            },
                            {
                                "decimalAvailable": true,
                                "name": "value",
                                "type": "uint256",
                                "value": "520,000,000,000,000"
                            }
                        ],
                        "signature": "Transfer(address,address,uint256)"
                    },
                    "id": 5,
                    "logData": "0x0000000000000000000000000000000000000000000000000001d8efef488000",
                    "logDecoded": true,
                    "operation": "EVENT",
                    "revert": false,
                    "status": true,
                    "topics": [
                        "0xddf252ad1be2c89b69c2b068fc378daa952ba7f163c4a11628f55a4df523b3ef",
                        "0x000000000000000000000000b78d0f05204567813343bc1a21ed5ead304d9ea4",
                        "0x00000000000000000000000019e3653d56d740d317052733078bf28862742005"
                    ]
                },
                "nodeType": 1
            },
            "6": {
                "invocation": {
                    "address": "0xe678f77756f3b98b7d82749cf78198ed0ca21538",
                    "callData": "0x0000000000000000000000004625baef54941f1317e0631ac716516846dace8a00000000000000000000000000d77e4093cb99c78fa852c1c8ef8037490a322a0000000000000000000000000000000000000000000000000001f17e5cb13000",
                    "decodedMethod": {
                        "callParams": [
                            {
                                "name": "sender",
                                "type": "address",
                                "value": "0x4625baef54941f1317e0631ac716516846dace8a"
                            },
                            {
                                "name": "recipient",
                                "type": "address",
                                "value": "0x00d77e4093cb99c78fa852c1c8ef8037490a322a"
                            },
                            {
                                "decimalAvailable": true,
                                "name": "amount",
                                "type": "uint256",
                                "value": "547,000,000,000,000"
                            }
                        ],
                        "constructorArguments": "",
                        "name": "transferFrom",
                        "returnParams": [
                            {
                                "name": "",
                                "type": "bool",
                                "value": true
                            }
                        ],
                        "signature": "transferFrom(address,address,uint256)"
                    },
                    "errorInfo": "",
                    "fromAddress": "0x6df2aab0e5f7d28d6ad3c014309730c290e89a38",
                    "gasUsed": 2428,
                    "id": 6,
                    "methodDecoded": true,
                    "operation": "CALL",
                    "output": "0x0000000000000000000000000000000000000000000000000000000000000001",
                    "revert": false,
                    "revertMessage": "",
                    "selector": "0x23b872dd",
                    "status": true,
                    "value": "0"
                },
                "nodeType": 0
            },
            "7": {
                "event": {
                    "contract": "0xe678f77756f3b98b7d82749cf78198ed0ca21538",
                    "decodedLog": {
                        "name": "Transfer",
                        "params": [
                            {
                                "name": "from",
                                "type": "address",
                                "value": "0x4625baef54941f1317e0631ac716516846dace8a"
                            },
                            {
                                "name": "to",
                                "type": "address",
                                "value": "0x00d77e4093cb99c78fa852c1c8ef8037490a322a"
                            },
                            {
                                "decimalAvailable": true,
                                "name": "value",
                                "type": "uint256",
                                "value": "547,000,000,000,000"
                            }
                        ],
                        "signature": "Transfer(address,address,uint256)"
                    },
                    "id": 7,
                    "logData": "0x0000000000000000000000000000000000000000000000000001f17e5cb13000",
                    "logDecoded": true,
                    "operation": "EVENT",
                    "revert": false,
                    "status": true,
                    "topics": [
                        "0xddf252ad1be2c89b69c2b068fc378daa952ba7f163c4a11628f55a4df523b3ef",
                        "0x0000000000000000000000004625baef54941f1317e0631ac716516846dace8a",
                        "0x00000000000000000000000000d77e4093cb99c78fa852c1c8ef8037490a322a"
                    ]
                },
                "nodeType": 1
            },
            "8": {
                "invocation": {
                    "address": "0xe180eb9a6e93482bcac20499f4ff0b39acdc12a2",
                    "callData": "0x00000000000000000000000068611e764d53cfa2768fad146bcb423dc2713732000000000000000000000000e30c375139b6f8b6f76ca837290fabba4683fe1600000000000000000000000000000000000000000000000ad61feb06d110e000",
                    "decodedMethod": {
                        "callParams": [
                            {
                                "name": "sender",
                                "type": "address",
                                "value": "0x68611e764d53cfa2768fad146bcb423dc2713732"
                            },
                            {
                                "name": "recipient",
                                "type": "address",
                                "value": "0xe30c375139b6f8b6f76ca837290fabba4683fe16"
                            },
                            {
                                "decimalAvailable": true,
                                "name": "amount",
                                "type": "uint256",
                                "value": "199,896,750,000,000,000,000"
                            }
                        ],
                        "constructorArguments": "",
                        "name": "transferFrom",
                        "returnParams": [
                            {
                                "name": "",
                                "type": "bool",
                                "value": true
                            }
                        ],
                        "signature": "transferFrom(address,address,uint256)"
                    },
                    "errorInfo": "",
                    "fromAddress": "0x6df2aab0e5f7d28d6ad3c014309730c290e89a38",
                    "gasUsed": 2428,
                    "id": 8,
                    "methodDecoded": true,
                    "operation": "CALL",
                    "output": "0x0000000000000000000000000000000000000000000000000000000000000001",
                    "revert": false,
                    "revertMessage": "",
                    "selector": "0x23b872dd",
                    "status": true,
                    "value": "0"
                },
                "nodeType": 0
            },
            "9": {
                "event": {
                    "contract": "0xe180eb9a6e93482bcac20499f4ff0b39acdc12a2",
                    "decodedLog": {
                        "name": "Transfer",
                        "params": [
                            {
                                "name": "from",
                                "type": "address",
                                "value": "0x68611e764d53cfa2768fad146bcb423dc2713732"
                            },
                            {
                                "name": "to",
                                "type": "address",
                                "value": "0xe30c375139b6f8b6f76ca837290fabba4683fe16"
                            },
                            {
                                "decimalAvailable": true,
                                "name": "value",
                                "type": "uint256",
                                "value": "199,896,750,000,000,000,000"
                            }
                        ],
                        "signature": "Transfer(address,address,uint256)"
                    },
                    "id": 9,
                    "logData": "0x00000000000000000000000000000000000000000000000ad61feb06d110e000",
                    "logDecoded": true,
                    "operation": "EVENT",
                    "revert": false,
                    "status": true,
                    "topics": [
                        "0xddf252ad1be2c89b69c2b068fc378daa952ba7f163c4a11628f55a4df523b3ef",
                        "0x00000000000000000000000068611e764d53cfa2768fad146bcb423dc2713732",
                        "0x000000000000000000000000e30c375139b6f8b6f76ca837290fabba4683fe16"
                    ]
                },
                "nodeType": 1
            }
        },
        "gasFlame": [
            {
                "children": [
                    {
                        "children": [
                            {
                                "children": [],
                                "depth": 0,
                                "name": "Initial Gas",
                                "value": 35448
                            },
                            {
                                "children": [
                                    {
                                        "children": [],
                                        "depth": 1,
                                        "name": "transferFrom",
                                        "value": 0
                                    },
                                    {
                                        "children": [],
                                        "depth": 1,
                                        "name": "transferFrom",
                                        "value": 2428
                                    },
                                    {
                                        "children": [],
                                        "depth": 1,
                                        "name": "transferFrom",
                                        "value": 2428
                                    },
                                    {
                                        "children": [],
                                        "depth": 1,
                                        "name": "transferFrom",
                                        "value": 2428
                                    },
                                    {
                                        "children": [],
                                        "depth": 1,
                                        "name": "transferFrom",
                                        "value": 2428
                                    },
                                    {
                                        "children": [],
                                        "depth": 1,
                                        "name": "transferFrom",
                                        "value": 21258
                                    },
                                    {
                                        "children": [],
                                        "depth": 1,
                                        "name": "transferFrom",
                                        "value": 2428
                                    },
                                    {
                                        "children": [],
                                        "depth": 1,
                                        "name": "transferFrom",
                                        "value": 13258
                                    },
                                    {
                                        "children": [],
                                        "depth": 1,
                                        "name": "transferFrom",
                                        "value": 2428
                                    },
                                    {
                                        "children": [],
                                        "depth": 1,
                                        "name": "transferFrom",
                                        "value": 13258
                                    },
                                    {
                                        "children": [],
                                        "depth": 1,
                                        "name": "transferFrom",
                                        "value": 2428
                                    }
                                ],
                                "depth": 0,
                                "name": "Executed Gas",
                                "value": 79645
                            }
                        ],
                        "depth": -1,
                        "name": "Actual Gas Used",
                        "value": 115093
                    },
                    {
                        "children": [],
                        "depth": -1,
                        "name": "Refunded Gas",
                        "value": 0
                    }
                ],
                "depth": -2,
                "name": "Total Gas",
                "value": 115093
            }
        ],
        "isConfirmed": true,
        "mainTrace": [
            {
                "children": [
                    {
                        "children": [
                            {
                                "children": [],
                                "depth": 1,
                                "id": 1,
                                "order": 1
                            },
                            {
                                "children": [
                                    {
                                        "children": [],
                                        "depth": 2,
                                        "id": 3,
                                        "order": 3
                                    }
                                ],
                                "depth": 1,
                                "id": 2,
                                "order": 2
                            },
                            {
                                "children": [
                                    {
                                        "children": [],
                                        "depth": 2,
                                        "id": 5,
                                        "order": 5
                                    }
                                ],
                                "depth": 1,
                                "id": 4,
                                "order": 4
                            },
                            {
                                "children": [
                                    {
                                        "children": [],
                                        "depth": 2,
                                        "id": 7,
                                        "order": 7
                                    }
                                ],
                                "depth": 1,
                                "id": 6,
                                "order": 6
                            },
                            {
                                "children": [
                                    {
                                        "children": [],
                                        "depth": 2,
                                        "id": 9,
                                        "order": 9
                                    }
                                ],
                                "depth": 1,
                                "id": 8,
                                "order": 8
                            },
                            {
                                "children": [
                                    {
                                        "children": [],
                                        "depth": 2,
                                        "id": 11,
                                        "order": 11
                                    }
                                ],
                                "depth": 1,
                                "id": 10,
                                "order": 10
                            },
                            {
                                "children": [
                                    {
                                        "children": [],
                                        "depth": 2,
                                        "id": 13,
                                        "order": 13
                                    }
                                ],
                                "depth": 1,
                                "id": 12,
                                "order": 12
                            },
                            {
                                "children": [
                                    {
                                        "children": [],
                                        "depth": 2,
                                        "id": 15,
                                        "order": 15
                                    }
                                ],
                                "depth": 1,
                                "id": 14,
                                "order": 14
                            },
                            {
                                "children": [
                                    {
                                        "children": [],
                                        "depth": 2,
                                        "id": 17,
                                        "order": 17
                                    }
                                ],
                                "depth": 1,
                                "id": 16,
                                "order": 16
                            },
                            {
                                "children": [
                                    {
                                        "children": [],
                                        "depth": 2,
                                        "id": 19,
                                        "order": 19
                                    }
                                ],
                                "depth": 1,
                                "id": 18,
                                "order": 18
                            },
                            {
                                "children": [
                                    {
                                        "children": [],
                                        "depth": 2,
                                        "id": 21,
                                        "order": 21
                                    }
                                ],
                                "depth": 1,
                                "id": 20,
                                "order": 20
                            }
                        ],
                        "depth": 0,
                        "id": 0,
                        "order": 0
                    }
                ],
                "depth": -1,
                "id": -1,
                "order": -1
            }
        ],
        "mainTraceNodeCount": 22,
        "parentIdMap": {
            "0": -1,
            "1": 0,
            "10": 0,
            "11": 10,
            "12": 0,
            "13": 12,
            "14": 0,
            "15": 14,
            "16": 0,
            "17": 16,
            "18": 0,
            "19": 18,
            "2": 0,
            "20": 0,
            "21": 20,
            "3": 2,
            "4": 0,
            "5": 4,
            "6": 0,
            "7": 6,
            "8": 0,
            "9": 8
        },
        "tidyTrace": [
            {
                "children": [
                    {
                        "children": [
                            {
                                "children": [],
                                "depth": 1,
                                "id": 1,
                                "order": 1
                            },
                            {
                                "children": [
                                    {
                                        "children": [],
                                        "depth": 2,
                                        "id": 3,
                                        "order": 3
                                    }
                                ],
                                "depth": 1,
                                "id": 2,
                                "order": 2
                            },
                            {
                                "children": [
                                    {
                                        "children": [],
                                        "depth": 2,
                                        "id": 5,
                                        "order": 5
                                    }
                                ],
                                "depth": 1,
                                "id": 4,
                                "order": 4
                            },
                            {
                                "children": [
                                    {
                                        "children": [],
                                        "depth": 2,
                                        "id": 7,
                                        "order": 7
                                    }
                                ],
                                "depth": 1,
                                "id": 6,
                                "order": 6
                            },
                            {
                                "children": [
                                    {
                                        "children": [],
                                        "depth": 2,
                                        "id": 9,
                                        "order": 9
                                    }
                                ],
                                "depth": 1,
                                "id": 8,
                                "order": 8
                            },
                            {
                                "children": [
                                    {
                                        "children": [],
                                        "depth": 2,
                                        "id": 11,
                                        "order": 11
                                    }
                                ],
                                "depth": 1,
                                "id": 10,
                                "order": 10
                            },
                            {
                                "children": [
                                    {
                                        "children": [],
                                        "depth": 2,
                                        "id": 13,
                                        "order": 13
                                    }
                                ],
                                "depth": 1,
                                "id": 12,
                                "order": 12
                            },
                            {
                                "children": [
                                    {
                                        "children": [],
                                        "depth": 2,
                                        "id": 15,
                                        "order": 15
                                    }
                                ],
                                "depth": 1,
                                "id": 14,
                                "order": 14
                            },
                            {
                                "children": [
                                    {
                                        "children": [],
                                        "depth": 2,
                                        "id": 17,
                                        "order": 17
                                    }
                                ],
                                "depth": 1,
                                "id": 16,
                                "order": 16
                            },
                            {
                                "children": [
                                    {
                                        "children": [],
                                        "depth": 2,
                                        "id": 19,
                                        "order": 19
                                    }
                                ],
                                "depth": 1,
                                "id": 18,
                                "order": 18
                            },
                            {
                                "children": [
                                    {
                                        "children": [],
                                        "depth": 2,
                                        "id": 21,
                                        "order": 21
                                    }
                                ],
                                "depth": 1,
                                "id": 20,
                                "order": 20
                            }
                        ],
                        "depth": 0,
                        "id": 0,
                        "order": 0
                    }
                ],
                "depth": -1,
                "id": -1,
                "order": -1
            }
        ],
        "tidyTraceNodeCount": 22
    },
    "state_change": {
        "stateChanges": []
    }
}