{
    "balance_change": {
        "balanceChanges": [
            {
                "account": "0xa1bb27c2a7c1a7b7ec6f16610e73d325f2a39705",
                "assets": [
                    {
                        "address": "0x5af2be193a6abca9c8817001f45744777db30756",
                        "amount": "1,357.437",
                        "iconUrl": "",
                        "isERC1155": false,
                        "isERC721": false,
                        "sign": false,
                        "value": ""
                    }
                ]
            },
            {
                "account": "0x1f9e5c59452fad401a0953ebec1a745730c31d4e",
                "assets": [
                    {
                        "address": "0x5af2be193a6abca9c8817001f45744777db30756",
                        "amount": "1,357.437",
                        "iconUrl": "",
                        "isERC1155": false,
                        "isERC721": false,
                        "sign": true,
                        "value": ""
                    }
                ]
            }
        ]
    },
    "profile": {
        "basic_info": {
            "baseFee": "",
            "blockNumber": 8113912,
            "callData": "0xa9059cbb0000000000000000000000001f9e5c59452fad401a0953ebec1a745730c31d4e0000000000000000000000000000000000000000000000000000001f9af47c20",
            "debugEnable": true,
            "errorInfo": "",
            "eventCount": 1,
            "feeRecipient": "0xea674fdde714fd979de3edf0f56aa9716b898ec8",
            "formatValue": "0",
            "gasLimit": 52400,
            "gasPrice": "10.9",
            "gasUsed": 37400,
            "intTxnCount": 0,
            "internalRevert": false,
            "internalRevertMessage": "",
            "isContractCreation": false,
            "isFlashloan": false,
            "maxFee": "",
            "nonce": 3,
            "overwritedBlockNumber": -1,
            "priorityFee": "",
            "receiver": "0x5af2be193a6abca9c8817001f45744777db30756",
            "revertMessage": "",
            "sender": "0xa1bb27c2a7c1a7b7ec6f16610e73d325f2a39705",
            "simulationEnable": true,
            "sourceTxnHash": "0x06b213ab5fa247aaf47d41417a08d743a5895624ceeecafb6d9eed81dd590557",
            "status": true,
            "timestamp": "2019-07-09T00:45:03Z",
            "transactionFee": "0.00040766",
            "txnHash": "0x06b213ab5fa247aaf47d41417a08d743a5895624ceeecafb6d9eed81dd590557",
            "txnIndex": 127,
            "type": 0,
            "value": "0"
        },
        "fund_flow": [
            {
                "amount": "1,357.437",
                "from": "0xa1bb27c2a7c1a7b7ec6f16610e73d325f2a39705",
                "id": 1,
                "isERC1155": false,
                "isERC721": false,
                "isReverted": false,
                "order": 1,
                "to": "0x1f9e5c59452fad401a0953ebec1a745730c31d4e",
                "token": "0x5af2be193a6abca9c8817001f45744777db30756"
            }
        ],
        "token_infos": [
            {
                "address": "0xeeeeeeeeeeeeeeeeeeeeeeeeeeeeeeeeeeeeeeee",
                "decimals": 18
            },
            {
                "address": "0x5af2be193a6abca9c8817001f45744777db30756",
                "decimals": 8
            },
            {
                "address": "0xc02aaa39b223fe8d0a0e5c4f27ead9083c756cc2",
                "decimals": 18
            }
        ]
    },
    "address_label": {
        "labels": [
            {
                "address": "0x0000000000000000000000000000000000000001",
                "label": "Precompiled"
            },
            {
                "address": "0x0000000000000000000000000000000000000002",
                "label": "Precompiled"
            },
            {
                "address": "0x0000000000000000000000000000000000000003",
                "label": "Precompiled"
            },
            {
                "address": "0x0000000000000000000000000000000000000004",
                "label": "Precompiled"
            },
            {
                "address": "0xeeeeeeeeeeeeeeeeeeeeeeeeeeeeeeeeeeeeeeee",
                "label": "Ether"
            },
            {
                "address": "0x1f9e5c59452fad401a0953ebec1a745730c31d4e",
                "label": "BINANCE"
            },
            {
                "address": "0x5af2be193a6abca9c8817001f45744777db30756",
                "label": "Voyager: Old VGX Token"
            }
        ]
    },
    "trace": {
        "accountLabels": null,
        "dataMap": {
            "-1": {
                "invocation": {
                    "address": "0xa1bb27c2a7c1a7b7ec6f16610e73d325f2a39705",
                    "callData": "",
                    "decodedMethod": null,
                    "errorInfo": "",
                    "fromAddress": "",
                    "gasUsed": 0,
                    "id": -1,
                    "methodDecoded": false,
                    "operation": "",
                    "output": "",
                    "revert": false,
                    "revertMessage": "",
                    "selector": "",
                    "status": false,
                    "value": ""
                },
                "nodeType": 0
            },
            "0": {
                "invocation": {
                    "address": "0x5af2be193a6abca9c8817001f45744777db30756",
                    "callData": "0x0000000000000000000000001f9e5c59452fad401a0953ebec1a745730c31d4e0000000000000000000000000000000000000000000000000000001f9af47c20",
                    "decodedMethod": {
                        "callParams": [
                            {
                                "name": "_to",
                                "type": "address",
                                "value": "0x1f9e5c59452fad401a0953ebec1a745730c31d4e"
                            },
                            {
                                "decimalAvailable": true,
                                "name": "_value",
                                "type": "uint256",
                                "value": "135,743,700,000"
                            }
                        ],
                        "constructorArguments": "",
                        "name": "transfer",
                        "returnParams": [
                            {
                                "name": "success",
                                "type": "bool",
                                "value": true
                            }
                        ],
                        "signature": "transfer(address,uint256)"
                    },
                    "errorInfo": "",
                    "fromAddress": "0xa1bb27c2a7c1a7b7ec6f16610e73d325f2a39705",
                    "gasUsed": 37400,
                    "id": 0,
                    "methodDecoded": true,
                    "operation": "CALL",
                    "output": "0x0000000000000000000000000000000000000000000000000000000000000001",
                    "revert": false,
                    "revertMessage": "",
                    "selector": "0xa9059cbb",
                    "status": true,
                    "value": "0"
                },
                "nodeType": 0
            },
            "1": {
                "event": {
                    "contract": "0x5af2be193a6abca9c8817001f45744777db30756",
                    "decodedLog": {
                        "name": "Transfer",
                        "params": [
                            {
                                "name": "from",
                                "type": "address",
                                "value": "0xa1bb27c2a7c1a7b7ec6f16610e73d325f2a39705"
                            },
                            {
                                "name": "to",
                                "type": "address",
                                "value": "0x1f9e5c59452fad401a0953ebec1a745730c31d4e"
                            },
                            {
                                "decimalAvailable": true,
                                "name": "value",
                                "type": "uint256",
                                "value": "135,743,700,000"
                            }
                        ],
                        "signature": "Transfer(address,address,uint256)"
                    },
                    "id": 1,
                    "logData": "0x0000000000000000000000000000000000000000000000000000001f9af47c20",
                    "logDecoded": true,
                    "operation": "EVENT",
                    "revert": false,
                    "status": true,
                    "topics": [
                        "0xddf252ad1be2c89b69c2b068fc378daa952ba7f163c4a11628f55a4df523b3ef",
                        "0x000000000000000000000000a1bb27c2a7c1a7b7ec6f16610e73d325f2a39705",
                        "0x0000000000000000000000001f9e5c59452fad401a0953ebec1a745730c31d4e"
                    ]
                },
                "nodeType": 1
            }
        },
        "gasFlame": [
            {
                "children": [
                    {
                        "children": [
                            {
                                "children": [],
                                "depth": 0,
                                "name": "Initial Gas",
                                "value": 23128
                            },
                            {
                                "children": [],
                                "depth": 0,
                                "name": "Executed Gas",
                                "value": 29272
                            }
                        ],
                        "depth": -1,
                        "name": "Actual Gas Used",
                        "value": 37400
                    },
                    {
                        "children": [],
                        "depth": -1,
                        "name": "Refunded Gas",
                        "value": 15000
                    }
                ],
                "depth": -2,
                "name": "Total Gas",
                "value": 52400
            }
        ],
        "isConfirmed": true,
        "mainTrace": [
            {
                "children": [
                    {
                        "children": [
                            {
                                "children": [],
                                "depth": 1,
                                "id": 1,
                                "order": 1
                            }
                        ],
                        "depth": 0,
                        "id": 0,
                        "order": 0
                    }
                ],
                "depth": -1,
                "id": -1,
                "order": -1
            }
        ],
        "mainTraceNodeCount": 2,
        "parentIdMap": {
            "0": -1,
            "1": 0
        },
        "tidyTrace": [
            {
                "children": [
                    {
                        "children": [
                            {
                                "children": [],
                                "depth": 1,
                                "id": 1,
                                "order": 1
                            }
                        ],
                        "depth": 0,
                        "id": 0,
                        "order": 0
                    }
                ],
                "depth": -1,
                "id": -1,
                "order": -1
            }
        ],
        "tidyTraceNodeCount": 2
    },
    "state_change": {
        "stateChanges": [
            {
                "address": "0x5af2be193a6abca9c8817001f45744777db30756",
                "erc": "ERC-20",
                "slots": [
                    {
                        "current": "0x0000000000000000000000000000000000000000000000000000001f9af47c20",
                        "key": "0xe6729313c198d0d5751e4f9fd61daae62b2550340490005187c15d6975ddf31f",
                        "prev": "0x0000000000000000000000000000000000000000000000000000000000000000"
                    },
                    {
                        "current": "0x0000000000000000000000000000000000000000000000000000000000000000",
                        "key": "0x8989de177acc92a6fde661286b45a0dc33ce3b62ae8ae0b8e4bd5ab03f8b5d15",
                        "prev": "0x0000000000000000000000000000000000000000000000000000001f9af47c20"
                    }
                ],
                "storageVariables": []
            }
        ]
    }
}