{
    "balance_change": {
        "balanceChanges": [
            {
                "account": "0x0efebc7317f3a694d8a4266cf6e6ea87064b7e88",
                "assets": [
                    {
                        "address": "0xbf2179859fc6d5bee9bf9158632dc51678a4100e",
                        "amount": "38,683.50503548",
                        "iconUrl": "https://assets.blocksec.com/icon/e06cfc226becfcbb2c2d25dc6e028dc10b89f10fe9f1a23070d5cb6aa75abf54.png",
                        "isERC1155": false,
                        "isERC721": false,
                        "sign": false,
                        "value": "3595.551525"
                    }
                ]
            },
            {
                "account": "0x823e8875cb1f380e47da297d07c9c2d02d7aea02",
                "assets": [
                    {
                        "address": "0xbf2179859fc6d5bee9bf9158632dc51678a4100e",
                        "amount": "38,683.50503548",
                        "iconUrl": "https://assets.blocksec.com/icon/e06cfc226becfcbb2c2d25dc6e028dc10b89f10fe9f1a23070d5cb6aa75abf54.png",
                        "isERC1155": false,
                        "isERC721": false,
                        "sign": true,
                        "value": "3595.551525"
                    }
                ]
            }
        ]
    },
    "profile": {
        "basic_info": {
            "baseFee": "",
            "blockNumber": 11471553,
            "callData": "0x3ef13367000000000000000000000000bf2179859fc6d5bee9bf9158632dc51678a4100e",
            "debugEnable": true,
            "errorInfo": "",
            "eventCount": 2,
            "feeRecipient": "0xea674fdde714fd979de3edf0f56aa9716b898ec8",
            "formatValue": "0",
            "gasLimit": 200000,
            "gasPrice": "80",
            "gasUsed": 32184,
            "intTxnCount": 3,
            "internalRevert": false,
            "internalRevertMessage": "",
            "isContractCreation": false,
            "isFlashloan": false,
            "maxFee": "",
            "nonce": 8574,
            "overwritedBlockNumber": -1,
            "priorityFee": "",
            "receiver": "0x0efebc7317f3a694d8a4266cf6e6ea87064b7e88",
            "revertMessage": "",
            "sender": "0xe647eaf027fa7b3b96eba2048e42f5a9cd8a1943",
            "simulationEnable": true,
            "sourceTxnHash": "0x06b5b236533fd61c5fb69aecb6b9cac5f6348da1711ef7ef45fffa2076094f3d",
            "status": true,
            "timestamp": "2020-12-17T15:38:06Z",
            "transactionFee": "0.00257472",
            "txnHash": "0x06b5b236533fd61c5fb69aecb6b9cac5f6348da1711ef7ef45fffa2076094f3d",
            "txnIndex": 193,
            "type": 0,
            "value": "0"
        },
        "fund_flow": [
            {
                "amount": "38,683.50503548",
                "from": "0x0efebc7317f3a694d8a4266cf6e6ea87064b7e88",
                "id": 1,
                "isERC1155": false,
                "isERC721": false,
                "isReverted": false,
                "order": 1,
                "to": "0x823e8875cb1f380e47da297d07c9c2d02d7aea02",
                "token": "0xbf2179859fc6d5bee9bf9158632dc51678a4100e"
            }
        ],
        "token_infos": [
            {
                "address": "0xbf2179859fc6d5bee9bf9158632dc51678a4100e",
                "decimals": 18
            },
            {
                "address": "0xc02aaa39b223fe8d0a0e5c4f27ead9083c756cc2",
                "decimals": 18
            },
            {
                "address": "0xeeeeeeeeeeeeeeeeeeeeeeeeeeeeeeeeeeeeeeee",
                "decimals": 18
            }
        ]
    },
    "address_label": {
        "labels": [
            {
                "address": "0x0000000000000000000000000000000000000004",
                "label": "Precompiled"
            },
            {
                "address": "0xeeeeeeeeeeeeeeeeeeeeeeeeeeeeeeeeeeeeeeee",
                "label": "Ether"
            },
            {
                "address": "0xbf2179859fc6d5bee9bf9158632dc51678a4100e",
                "label": "Aelf: ELF Token"
            },
            {
                "address": "0x0000000000000000000000000000000000000001",
                "label": "Precompiled"
            },
            {
                "address": "0x0000000000000000000000000000000000000002",
                "label": "Precompiled"
            },
            {
                "address": "0x0000000000000000000000000000000000000003",
                "label": "Precompiled"
            }
        ]
    },
    "trace": {
        "accountLabels": null,
        "dataMap": {
            "-1": {
                "invocation": {
                    "address": "0xe647eaf027fa7b3b96eba2048e42f5a9cd8a1943",
                    "callData": "",
                    "decodedMethod": null,
                    "errorInfo": "",
                    "fromAddress": "",
                    "gasUsed": 0,
                    "id": -1,
                    "methodDecoded": false,
                    "operation": "",
                    "output": "",
                    "revert": false,
                    "revertMessage": "",
                    "selector": "",
                    "status": false,
                    "value": ""
                },
                "nodeType": 0
            },
            "0": {
                "invocation": {
                    "address": "0x0efebc7317f3a694d8a4266cf6e6ea87064b7e88",
                    "callData": "0x000000000000000000000000bf2179859fc6d5bee9bf9158632dc51678a4100e",
                    "decodedMethod": {
                        "callParams": [
                            {
                                "name": "tokenContractAddress",
                                "type": "address",
                                "value": "0xbf2179859fc6d5bee9bf9158632dc51678a4100e"
                            }
                        ],
                        "constructorArguments": "",
                        "name": "flushTokens",
                        "returnParams": [],
                        "signature": "flushTokens(address)"
                    },
                    "errorInfo": "",
                    "fromAddress": "0xe647eaf027fa7b3b96eba2048e42f5a9cd8a1943",
                    "gasUsed": 32184,
                    "id": 0,
                    "methodDecoded": true,
                    "operation": "CALL",
                    "output": "",
                    "revert": false,
                    "revertMessage": "",
                    "selector": "0x3ef13367",
                    "status": true,
                    "value": "0"
                },
                "nodeType": 0
            },
            "1": {
                "invocation": {
                    "address": "0x7afb99f7f15a9fb7551d8ff50e66544a05a8a3c1",
                    "callData": "0x000000000000000000000000bf2179859fc6d5bee9bf9158632dc51678a4100e",
                    "decodedMethod": {
                        "callParams": [
                            {
                                "name": "tokenContractAddress",
                                "type": "address",
                                "value": "0xbf2179859fc6d5bee9bf9158632dc51678a4100e"
                            }
                        ],
                        "constructorArguments": "",
                        "name": "flushTokens",
                        "returnParams": [],
                        "signature": "flushTokens(address)"
                    },
                    "errorInfo": "",
                    "fromAddress": "0x0efebc7317f3a694d8a4266cf6e6ea87064b7e88",
                    "gasUsed": 24929,
                    "id": 1,
                    "methodDecoded": true,
                    "operation": "DELEGATECALL",
                    "output": "",
                    "revert": false,
                    "revertMessage": "",
                    "selector": "0x3ef13367",
                    "status": true,
                    "value": "0"
                },
                "nodeType": 0
            },
            "2": {
                "invocation": {
                    "address": "0xbf2179859fc6d5bee9bf9158632dc51678a4100e",
                    "callData": "0x0000000000000000000000000efebc7317f3a694d8a4266cf6e6ea87064b7e88",
                    "decodedMethod": {
                        "callParams": [
                            {
                                "name": "_owner",
                                "type": "address",
                                "value": "0x0efebc7317f3a694d8a4266cf6e6ea87064b7e88"
                            }
                        ],
                        "constructorArguments": "",
                        "name": "balanceOf",
                        "returnParams": [
                            {
                                "decimalAvailable": true,
                                "name": "balance",
                                "type": "uint256",
                                "value": "38,683,505,035,480,000,000,000"
                            }
                        ],
                        "signature": "balanceOf(address)"
                    },
                    "errorInfo": "",
                    "fromAddress": "0x0efebc7317f3a694d8a4266cf6e6ea87064b7e88",
                    "gasUsed": 1525,
                    "id": 2,
                    "methodDecoded": true,
                    "operation": "STATICCALL",
                    "output": "0x00000000000000000000000000000000000000000000083109797bc683ea7000",
                    "revert": false,
                    "revertMessage": "",
                    "selector": "0x70a08231",
                    "status": true,
                    "value": "0"
                },
                "nodeType": 0
            },
            "3": {
                "invocation": {
                    "address": "0xbf2179859fc6d5bee9bf9158632dc51678a4100e",
                    "callData": "0x000000000000000000000000823e8875cb1f380e47da297d07c9c2d02d7aea0200000000000000000000000000000000000000000000083109797bc683ea7000",
                    "decodedMethod": {
                        "callParams": [
                            {
                                "name": "_to",
                                "type": "address",
                                "value": "0x823e8875cb1f380e47da297d07c9c2d02d7aea02"
                            },
                            {
                                "decimalAvailable": true,
                                "name": "_value",
                                "type": "uint256",
                                "value": "38,683,505,035,480,000,000,000"
                            }
                        ],
                        "constructorArguments": "",
                        "name": "transfer",
                        "returnParams": [
                            {
                                "name": "",
                                "type": "bool",
                                "value": true
                            }
                        ],
                        "signature": "transfer(address,uint256)"
                    },
                    "errorInfo": "",
                    "fromAddress": "0x0efebc7317f3a694d8a4266cf6e6ea87064b7e88",
                    "gasUsed": 16720,
                    "id": 3,
                    "methodDecoded": true,
                    "operation": "CALL",
                    "output": "0x0000000000000000000000000000000000000000000000000000000000000001",
                    "revert": false,
                    "revertMessage": "",
                    "selector": "0xa9059cbb",
                    "status": true,
                    "value": "0"
                },
                "nodeType": 0
            },
            "4": {
                "event": {
                    "contract": "0xbf2179859fc6d5bee9bf9158632dc51678a4100e",
                    "decodedLog": {
                        "name": "Transfer",
                        "params": [
                            {
                                "name": "from",
                                "type": "address",
                                "value": "0x0efebc7317f3a694d8a4266cf6e6ea87064b7e88"
                            },
                            {
                                "name": "to",
                                "type": "address",
                                "value": "0x823e8875cb1f380e47da297d07c9c2d02d7aea02"
                            },
                            {
                                "decimalAvailable": true,
                                "name": "value",
                                "type": "uint256",
                                "value": "38,683,505,035,480,000,000,000"
                            }
                        ],
                        "signature": "Transfer(address,address,uint256)"
                    },
                    "id": 4,
                    "logData": "0x00000000000000000000000000000000000000000000083109797bc683ea7000",
                    "logDecoded": true,
                    "operation": "EVENT",
                    "revert": false,
                    "status": true,
                    "topics": [
                        "0xddf252ad1be2c89b69c2b068fc378daa952ba7f163c4a11628f55a4df523b3ef",
                        "0x0000000000000000000000000efebc7317f3a694d8a4266cf6e6ea87064b7e88",
                        "0x000000000000000000000000823e8875cb1f380e47da297d07c9c2d02d7aea02"
                    ]
                },
                "nodeType": 1
            },
            "5": {
                "event": {
                    "contract": "0x0efebc7317f3a694d8a4266cf6e6ea87064b7e88",
                    "decodedLog": null,
                    "id": 5,
                    "logData": "0x000000000000000000000000823e8875cb1f380e47da297d07c9c2d02d7aea0200000000000000000000000000000000000000000000083109797bc683ea7000",
                    "logDecoded": false,
                    "operation": "EVENT",
                    "revert": false,
                    "status": true,
                    "topics": [
                        "0x19edbdde7715c4ce8a0a9e85fa9fcfa9867c1f5330ebf18b31ba53cb1815d5bd"
                    ]
                },
                "nodeType": 1
            }
        },
        "gasFlame": [
            {
                "children": [
                    {
                        "children": [
                            {
                                "children": [],
                                "depth": 0,
                                "name": "Initial Gas",
                                "value": 21432
                            },
                            {
                                "children": [
                                    {
                                        "children": [
                                            {
                                                "children": [],
                                                "depth": 2,
                                                "name": "balanceOf",
                                                "value": 1525
                                            },
                                            {
                                                "children": [],
                                                "depth": 2,
                                                "name": "transfer",
                                                "value": 16720
                                            }
                                        ],
                                        "depth": 1,
                                        "name": "flushTokens",
                                        "value": 24929
                                    }
                                ],
                                "depth": 0,
                                "name": "Executed Gas",
                                "value": 25752
                            }
                        ],
                        "depth": -1,
                        "name": "Actual Gas Used",
                        "value": 32184
                    },
                    {
                        "children": [],
                        "depth": -1,
                        "name": "Refunded Gas",
                        "value": 15000
                    }
                ],
                "depth": -2,
                "name": "Total Gas",
                "value": 47184
            }
        ],
        "isConfirmed": true,
        "mainTrace": [
            {
                "children": [
                    {
                        "children": [
                            {
                                "children": [
                                    {
                                        "children": [],
                                        "depth": 2,
                                        "id": 2,
                                        "order": 2
                                    },
                                    {
                                        "children": [
                                            {
                                                "children": [],
                                                "depth": 3,
                                                "id": 4,
                                                "order": 4
                                            }
                                        ],
                                        "depth": 2,
                                        "id": 3,
                                        "order": 3
                                    },
                                    {
                                        "children": [],
                                        "depth": 2,
                                        "id": 5,
                                        "order": 5
                                    }
                                ],
                                "depth": 1,
                                "id": 1,
                                "order": 1
                            }
                        ],
                        "depth": 0,
                        "id": 0,
                        "order": 0
                    }
                ],
                "depth": -1,
                "id": -1,
                "order": -1
            }
        ],
        "mainTraceNodeCount": 6,
        "parentIdMap": {
            "0": -1,
            "1": 0,
            "2": 1,
            "3": 1,
            "4": 3,
            "5": 1
        },
        "tidyTrace": [
            {
                "children": [
                    {
                        "children": [
                            {
                                "children": [
                                    {
                                        "children": [
                                            {
                                                "children": [],
                                                "depth": 3,
                                                "id": 4,
                                                "order": 4
                                            }
                                        ],
                                        "depth": 2,
                                        "id": 3,
                                        "order": 3
                                    },
                                    {
                                        "children": [],
                                        "depth": 2,
                                        "id": 5,
                                        "order": 5
                                    }
                                ],
                                "depth": 1,
                                "id": 1,
                                "order": 1
                            }
                        ],
                        "depth": 0,
                        "id": 0,
                        "order": 0
                    }
                ],
                "depth": -1,
                "id": -1,
                "order": -1
            }
        ],
        "tidyTraceNodeCount": 5
    },
    "state_change": {
        "stateChanges": [
            {
                "address": "0xbf2179859fc6d5bee9bf9158632dc51678a4100e",
                "erc": "ERC-20",
                "slots": [
                    {
                        "current": "0x0000000000000000000000000000000000000000000015d929d308295268b671",
                        "key": "0x215f081061b802823ae4c770eabbf75f4e04141a10ae92bf3d6837abe5f27599",
                        "prev": "0x000000000000000000000000000000000000000000000da820598c62ce7e4671"
                    },
                    {
                        "current": "0x0000000000000000000000000000000000000000000000000000000000000000",
                        "key": "0x7038e9a7dbcbb31ac01a30e525d0306d3fd0b476ba6f5f9a042d065579f0c3f7",
                        "prev": "0x00000000000000000000000000000000000000000000083109797bc683ea7000"
                    }
                ],
                "storageVariables": [
                    {
                        "name": "balances",
                        "type": "mapping(address => uint256)",
                        "value": {
                            "pairs": [
                                {
                                    "key": "0x0efebc7317f3a694d8a4266cf6e6ea87064b7e88",
                                    "value": {
                                        "current": "0",
                                        "prev": "38683505035480000000000",
                                        "typeTag": 1
                                    }
                                },
                                {
                                    "key": "0x823e8875cb1f380e47da297d07c9c2d02d7aea02",
                                    "value": {
                                        "current": "103175653365806732457585",
                                        "prev": "64492148330326732457585",
                                        "typeTag": 1
                                    }
                                }
                            ],
                            "typeTag": 4
                        }
                    }
                ]
            }
        ]
    }
}