{
    "balance_change": {
        "balanceChanges": [
            {
                "account": "0x936b040c187896f635f9b456bf4b4b5599ea50e6",
                "assets": [
                    {
                        "address": "0x582a079e8083eb38735f6fa8ed5d93e3c5e873fc",
                        "amount": "2,500,000,000,000,000,000,000",
                        "iconUrl": "",
                        "isERC1155": false,
                        "isERC721": false,
                        "sign": false,
                        "value": ""
                    }
                ]
            },
            {
                "account": "0xfbbf0ad630ea79ffe1fc3a8a2761341dc0aa9c47",
                "assets": [
                    {
                        "address": "0x582a079e8083eb38735f6fa8ed5d93e3c5e873fc",
                        "amount": "2,500,000,000,000,000,000,000",
                        "iconUrl": "",
                        "isERC1155": false,
                        "isERC721": false,
                        "sign": true,
                        "value": ""
                    }
                ]
            }
        ]
    },
    "profile": {
        "basic_info": {
            "baseFee": "",
            "blockNumber": 8165811,
            "callData": "0xa9059cbb000000000000000000000000fbbf0ad630ea79ffe1fc3a8a2761341dc0aa9c470000000000000000000000000000000000000000000000878678326eac900000",
            "debugEnable": true,
            "errorInfo": "",
            "eventCount": 1,
            "feeRecipient": "0x5a0b54d5dc17e0aadc383d2db43b0a0d3e029c4c",
            "formatValue": "0",
            "gasLimit": 52145,
            "gasPrice": "41",
            "gasUsed": 52145,
            "intTxnCount": 0,
            "internalRevert": false,
            "internalRevertMessage": "",
            "isContractCreation": false,
            "isFlashloan": false,
            "maxFee": "",
            "nonce": 1285,
            "overwritedBlockNumber": -1,
            "priorityFee": "",
            "receiver": "0x582a079e8083eb38735f6fa8ed5d93e3c5e873fc",
            "revertMessage": "",
            "sender": "0x936b040c187896f635f9b456bf4b4b5599ea50e6",
            "simulationEnable": true,
            "sourceTxnHash": "0x0620f8a4367dbfeae599f90f6098346f329d1ec39d52af383d7c0916785094bb",
            "status": true,
            "timestamp": "2019-07-17T03:08:34Z",
            "transactionFee": "0.002137945",
            "txnHash": "0x0620f8a4367dbfeae599f90f6098346f329d1ec39d52af383d7c0916785094bb",
            "txnIndex": 20,
            "type": 0,
            "value": "0"
        },
        "fund_flow": [
            {
                "amount": "2,500,000,000,000,000,000,000",
                "from": "0x936b040c187896f635f9b456bf4b4b5599ea50e6",
                "id": 1,
                "isERC1155": false,
                "isERC721": false,
                "isReverted": false,
                "order": 1,
                "to": "0xfbbf0ad630ea79ffe1fc3a8a2761341dc0aa9c47",
                "token": "0x582a079e8083eb38735f6fa8ed5d93e3c5e873fc"
            }
        ],
        "token_infos": [
            {
                "address": "0xc02aaa39b223fe8d0a0e5c4f27ead9083c756cc2",
                "decimals": 18
            },
            {
                "address": "0xeeeeeeeeeeeeeeeeeeeeeeeeeeeeeeeeeeeeeeee",
                "decimals": 18
            }
        ]
    },
    "address_label": {
        "labels": [
            {
                "address": "0xeeeeeeeeeeeeeeeeeeeeeeeeeeeeeeeeeeeeeeee",
                "label": "Ether"
            },
            {
                "address": "0x582a079e8083eb38735f6fa8ed5d93e3c5e873fc",
                "label": "Winbowhanbit"
            },
            {
                "address": "0x0000000000000000000000000000000000000001",
                "label": "Precompiled"
            },
            {
                "address": "0x0000000000000000000000000000000000000002",
                "label": "Precompiled"
            },
            {
                "address": "0x0000000000000000000000000000000000000003",
                "label": "Precompiled"
            },
            {
                "address": "0x0000000000000000000000000000000000000004",
                "label": "Precompiled"
            }
        ]
    },
    "trace": {
        "accountLabels": null,
        "dataMap": {
            "-1": {
                "invocation": {
                    "address": "0x936b040c187896f635f9b456bf4b4b5599ea50e6",
                    "callData": "",
                    "decodedMethod": null,
                    "errorInfo": "",
                    "fromAddress": "",
                    "gasUsed": 0,
                    "id": -1,
                    "methodDecoded": false,
                    "operation": "",
                    "output": "",
                    "revert": false,
                    "revertMessage": "",
                    "selector": "",
                    "status": false,
                    "value": ""
                },
                "nodeType": 0
            },
            "0": {
                "invocation": {
                    "address": "0x582a079e8083eb38735f6fa8ed5d93e3c5e873fc",
                    "callData": "0x000000000000000000000000fbbf0ad630ea79ffe1fc3a8a2761341dc0aa9c470000000000000000000000000000000000000000000000878678326eac900000",
                    "decodedMethod": {
                        "callParams": [
                            {
                                "name": "to",
                                "type": "address",
                                "value": "0xfbbf0ad630ea79ffe1fc3a8a2761341dc0aa9c47"
                            },
                            {
                                "decimalAvailable": true,
                                "name": "value",
                                "type": "uint256",
                                "value": "2,500,000,000,000,000,000,000"
                            }
                        ],
                        "constructorArguments": "",
                        "name": "transfer",
                        "returnParams": [
                            {
                                "name": "",
                                "type": "bool",
                                "value": true
                            }
                        ],
                        "signature": "transfer(address,uint256)"
                    },
                    "errorInfo": "",
                    "fromAddress": "0x936b040c187896f635f9b456bf4b4b5599ea50e6",
                    "gasUsed": 52145,
                    "id": 0,
                    "methodDecoded": true,
                    "operation": "CALL",
                    "output": "0x0000000000000000000000000000000000000000000000000000000000000001",
                    "revert": false,
                    "revertMessage": "",
                    "selector": "0xa9059cbb",
                    "status": true,
                    "value": "0"
                },
                "nodeType": 0
            },
            "1": {
                "event": {
                    "contract": "0x582a079e8083eb38735f6fa8ed5d93e3c5e873fc",
                    "decodedLog": {
                        "name": "Transfer",
                        "params": [
                            {
                                "name": "from",
                                "type": "address",
                                "value": "0x936b040c187896f635f9b456bf4b4b5599ea50e6"
                            },
                            {
                                "name": "to",
                                "type": "address",
                                "value": "0xfbbf0ad630ea79ffe1fc3a8a2761341dc0aa9c47"
                            },
                            {
                                "decimalAvailable": true,
                                "name": "value",
                                "type": "uint256",
                                "value": "2,500,000,000,000,000,000,000"
                            }
                        ],
                        "signature": "Transfer(address,address,uint256)"
                    },
                    "id": 1,
                    "logData": "0x0000000000000000000000000000000000000000000000878678326eac900000",
                    "logDecoded": true,
                    "operation": "EVENT",
                    "revert": false,
                    "status": true,
                    "topics": [
                        "0xddf252ad1be2c89b69c2b068fc378daa952ba7f163c4a11628f55a4df523b3ef",
                        "0x000000000000000000000000936b040c187896f635f9b456bf4b4b5599ea50e6",
                        "0x000000000000000000000000fbbf0ad630ea79ffe1fc3a8a2761341dc0aa9c47"
                    ]
                },
                "nodeType": 1
            }
        },
        "gasFlame": [
            {
                "children": [
                    {
                        "children": [
                            {
                                "children": [],
                                "depth": 0,
                                "name": "Initial Gas",
                                "value": 23256
                            },
                            {
                                "children": [],
                                "depth": 0,
                                "name": "Executed Gas",
                                "value": 28889
                            }
                        ],
                        "depth": -1,
                        "name": "Actual Gas Used",
                        "value": 52145
                    },
                    {
                        "children": [],
                        "depth": -1,
                        "name": "Refunded Gas",
                        "value": 0
                    }
                ],
                "depth": -2,
                "name": "Total Gas",
                "value": 52145
            }
        ],
        "isConfirmed": true,
        "mainTrace": [
            {
                "children": [
                    {
                        "children": [
                            {
                                "children": [],
                                "depth": 1,
                                "id": 1,
                                "order": 1
                            }
                        ],
                        "depth": 0,
                        "id": 0,
                        "order": 0
                    }
                ],
                "depth": -1,
                "id": -1,
                "order": -1
            }
        ],
        "mainTraceNodeCount": 2,
        "parentIdMap": {
            "0": -1,
            "1": 0
        },
        "tidyTrace": [
            {
                "children": [
                    {
                        "children": [
                            {
                                "children": [],
                                "depth": 1,
                                "id": 1,
                                "order": 1
                            }
                        ],
                        "depth": 0,
                        "id": 0,
                        "order": 0
                    }
                ],
                "depth": -1,
                "id": -1,
                "order": -1
            }
        ],
        "tidyTraceNodeCount": 2
    },
    "state_change": {
        "stateChanges": [
            {
                "address": "0x582a079e8083eb38735f6fa8ed5d93e3c5e873fc",
                "erc": "ERC-20",
                "slots": [
                    {
                        "current": "0x00000000000000000000000000000000000000000339f395d2e92bd806500000",
                        "key": "0x05bb8828299c87e1db41f2e08434396713c34334ee329e5890dd0e7d80db3f31",
                        "prev": "0x00000000000000000000000000000000000000000339f41d59615e46b2e00000"
                    },
                    {
                        "current": "0x0000000000000000000000000000000000000000000000878678326eac900000",
                        "key": "0xd107a0e9e542484d2ecb6cea619d0667d3caa872adf7d4b295ded22c096637d9",
                        "prev": "0x0000000000000000000000000000000000000000000000000000000000000000"
                    }
                ],
                "storageVariables": [
                    {
                        "name": "_balances",
                        "type": "mapping(address => uint256)",
                        "value": {
                            "pairs": [
                                {
                                    "key": "0x936b040c187896f635f9b456bf4b4b5599ea50e6",
                                    "value": {
                                        "current": "998514100000000000000000000",
                                        "prev": "998516600000000000000000000",
                                        "typeTag": 1
                                    }
                                },
                                {
                                    "key": "0xfbbf0ad630ea79ffe1fc3a8a2761341dc0aa9c47",
                                    "value": {
                                        "current": "2500000000000000000000",
                                        "prev": "0",
                                        "typeTag": 1
                                    }
                                }
                            ],
                            "typeTag": 4
                        }
                    }
                ]
            }
        ]
    }
}