{
    "balance_change": {
        "balanceChanges": [
            {
                "account": "0x6f874cddd919542b187a2ecee17d54eb568a5f72",
                "assets": [
                    {
                        "address": "0xeeeeeeeeeeeeeeeeeeeeeeeeeeeeeeeeeeeeeeee",
                        "amount": "0.0002",
                        "iconUrl": "https://assets.blocksec.com/image/1663669189317-3.png",
                        "isERC1155": false,
                        "isERC721": false,
                        "sign": false,
                        "value": "0.63848746000000001"
                    },
                    {
                        "address": "0x1c1c14a6b5074905ce5d367b0a7e098b58ebfd47",
                        "amount": "3,283,620.52212755",
                        "iconUrl": "",
                        "isERC1155": false,
                        "isERC721": false,
                        "sign": true,
                        "value": "0.00770323"
                    }
                ]
            },
            {
                "account": "0xa67cf7357e47d5396bb1d31978f0ff81e1b0d4ec",
                "assets": [
                    {
                        "address": "0xc02aaa39b223fe8d0a0e5c4f27ead9083c756cc2",
                        "amount": "0.0002",
                        "iconUrl": "https://assets.blocksec.com/icon/f1cb2d02c471d545bbc7722daf3277fd852d98e63d118771af7047bd8256c516.png",
                        "isERC1155": false,
                        "isERC721": false,
                        "sign": true,
                        "value": "0.63848746000000001"
                    },
                    {
                        "address": "0x1c1c14a6b5074905ce5d367b0a7e098b58ebfd47",
                        "amount": "3,283,620.52212755",
                        "iconUrl": "",
                        "isERC1155": false,
                        "isERC721": false,
                        "sign": false,
                        "value": "0.00770323"
                    }
                ]
            },
            {
                "account": "0xc02aaa39b223fe8d0a0e5c4f27ead9083c756cc2",
                "assets": [
                    {
                        "address": "0xeeeeeeeeeeeeeeeeeeeeeeeeeeeeeeeeeeeeeeee",
                        "amount": "0.0002",
                        "iconUrl": "https://assets.blocksec.com/image/1663669189317-3.png",
                        "isERC1155": false,
                        "isERC721": false,
                        "sign": true,
                        "value": "0.63848746000000001"
                    },
                    {
                        "address": "0xc02aaa39b223fe8d0a0e5c4f27ead9083c756cc2",
                        "amount": "0.0002",
                        "iconUrl": "https://assets.blocksec.com/icon/f1cb2d02c471d545bbc7722daf3277fd852d98e63d118771af7047bd8256c516.png",
                        "isERC1155": false,
                        "isERC721": false,
                        "sign": false,
                        "value": "0.63848746000000001"
                    }
                ]
            }
        ]
    },
    "profile": {
        "basic_info": {
            "baseFee": "2.096201271",
            "blockNumber": 20302712,
            "callData": "0x2646478b000000000000000000000000eeeeeeeeeeeeeeeeeeeeeeeeeeeeeeeeeeeeeeee0000000000000000000000000000000000000000000000000000b5e620f480000000000000000000000000001c1c14a6b5074905ce5d367b0a7e098b58ebfd4700000000000000000000000000000000000000000000000000012a584b938d9e0000000000000000000000006f874cddd919542b187a2ecee17d54eb568a5f7200000000000000000000000000000000000000000000000000000000000000c000000000000000000000000000000000000000000000000000000000000000700301ffff0201a67cf7357e47d5396bb1d31978f0ff81e1b0d4ecc02aaa39b223fe8d0a0e5c4f27ead9083c756cc204c02aaa39b223fe8d0a0e5c4f27ead9083c756cc200a67cf7357e47d5396bb1d31978f0ff81e1b0d4ec006f874cddd919542b187a2ecee17d54eb568a5f72000bb800000000000000000000000000000000",
            "debugEnable": true,
            "errorInfo": "",
            "eventCount": 6,
            "feeRecipient": "0xdf99a0839818b3f120ebac9b73f82b617dc6a555",
            "formatValue": "0.0002",
            "gasLimit": 186603,
            "gasPrice": "2.802432372",
            "gasUsed": 113318,
            "intTxnCount": 10,
            "internalRevert": false,
            "internalRevertMessage": "",
            "isContractCreation": false,
            "isFlashloan": false,
            "maxFee": "3.527629741",
            "nonce": 2482,
            "overwritedBlockNumber": -1,
            "priorityFee": "0.706231101",
            "receiver": "0xe43ca1dee3f0fc1e2df73a0745674545f11a59f5",
            "revertMessage": "",
            "sender": "0x6f874cddd919542b187a2ecee17d54eb568a5f72",
            "simulationEnable": true,
            "sourceTxnHash": "0x06b5b927e86758072b9ce97b41b5d7e702863db42afc7b053725ac14bf99a4cc",
            "status": true,
            "timestamp": "2024-07-14T05:40:23Z",
            "transactionFee": "0.000317566031530296",
            "txnHash": "0x06b5b927e86758072b9ce97b41b5d7e702863db42afc7b053725ac14bf99a4cc",
            "txnIndex": 50,
            "type": 2,
            "value": "200000000000000"
        },
        "fund_flow": [
            {
                "amount": "0.0002",
                "from": "0x6f874cddd919542b187a2ecee17d54eb568a5f72",
                "id": 1,
                "isERC1155": false,
                "isERC721": false,
                "isReverted": false,
                "order": 1,
                "to": "0xe43ca1dee3f0fc1e2df73a0745674545f11a59f5",
                "token": "0xeeeeeeeeeeeeeeeeeeeeeeeeeeeeeeeeeeeeeeee"
            },
            {
                "amount": "0.0002",
                "from": "0xe43ca1dee3f0fc1e2df73a0745674545f11a59f5",
                "id": 2,
                "isERC1155": false,
                "isERC721": false,
                "isReverted": false,
                "order": 2,
                "to": "0xc02aaa39b223fe8d0a0e5c4f27ead9083c756cc2",
                "token": "0xeeeeeeeeeeeeeeeeeeeeeeeeeeeeeeeeeeeeeeee"
            },
            {
                "amount": "0.0002",
                "from": "0xc02aaa39b223fe8d0a0e5c4f27ead9083c756cc2",
                "id": 3,
                "isERC1155": false,
                "isERC721": false,
                "isReverted": false,
                "order": 3,
                "to": "0xe43ca1dee3f0fc1e2df73a0745674545f11a59f5",
                "token": "0xc02aaa39b223fe8d0a0e5c4f27ead9083c756cc2"
            },
            {
                "amount": "0.0002",
                "from": "0xe43ca1dee3f0fc1e2df73a0745674545f11a59f5",
                "id": 4,
                "isERC1155": false,
                "isERC721": false,
                "isReverted": false,
                "order": 4,
                "to": "0xa67cf7357e47d5396bb1d31978f0ff81e1b0d4ec",
                "token": "0xc02aaa39b223fe8d0a0e5c4f27ead9083c756cc2"
            },
            {
                "amount": "3,283,620.52212755",
                "from": "0xa67cf7357e47d5396bb1d31978f0ff81e1b0d4ec",
                "id": 5,
                "isERC1155": false,
                "isERC721": false,
                "isReverted": false,
                "order": 5,
                "to": "0x6f874cddd919542b187a2ecee17d54eb568a5f72",
                "token": "0x1c1c14a6b5074905ce5d367b0a7e098b58ebfd47"
            }
        ],
        "token_infos": [
            {
                "address": "0x1c1c14a6b5074905ce5d367b0a7e098b58ebfd47",
                "decimals": 8
            },
            {
                "address": "0xc02aaa39b223fe8d0a0e5c4f27ead9083c756cc2",
                "decimals": 18
            },
            {
                "address": "0xeeeeeeeeeeeeeeeeeeeeeeeeeeeeeeeeeeeeeeee",
                "decimals": 18
            }
        ]
    },
    "address_label": {
        "labels": [
            {
                "address": "0x1c1c14a6b5074905ce5d367b0a7e098b58ebfd47",
                "label": "Fidex Token"
            },
            {
                "address": "0xe43ca1dee3f0fc1e2df73a0745674545f11a59f5",
                "label": "RouteProcessor4"
            },
            {
                "address": "0x0000000000000000000000000000000000000001",
                "label": "Precompiled"
            },
            {
                "address": "0x0000000000000000000000000000000000000002",
                "label": "Precompiled"
            },
            {
                "address": "0x0000000000000000000000000000000000000004",
                "label": "Precompiled"
            },
            {
                "address": "0xeeeeeeeeeeeeeeeeeeeeeeeeeeeeeeeeeeeeeeee",
                "label": "Ether"
            },
            {
                "address": "0xc02aaa39b223fe8d0a0e5c4f27ead9083c756cc2",
                "label": "Wrapped Ether (WETH)"
            },
            {
                "address": "0xa67cf7357e47d5396bb1d31978f0ff81e1b0d4ec",
                "label": "SushiSwap: FEX"
            },
            {
                "address": "0x0000000000000000000000000000000000000003",
                "label": "Precompiled"
            }
        ]
    },
    "trace": {
        "accountLabels": null,
        "dataMap": {
            "-1": {
                "invocation": {
                    "address": "0x6f874cddd919542b187a2ecee17d54eb568a5f72",
                    "callData": "",
                    "decodedMethod": null,
                    "errorInfo": "",
                    "fromAddress": "",
                    "gasUsed": 0,
                    "id": -1,
                    "methodDecoded": false,
                    "operation": "",
                    "output": "",
                    "revert": false,
                    "revertMessage": "",
                    "selector": "",
                    "status": false,
                    "value": ""
                },
                "nodeType": 0
            },
            "0": {
                "invocation": {
                    "address": "0xe43ca1dee3f0fc1e2df73a0745674545f11a59f5",
                    "callData": "0x000000000000000000000000eeeeeeeeeeeeeeeeeeeeeeeeeeeeeeeeeeeeeeee0000000000000000000000000000000000000000000000000000b5e620f480000000000000000000000000001c1c14a6b5074905ce5d367b0a7e098b58ebfd4700000000000000000000000000000000000000000000000000012a584b938d9e0000000000000000000000006f874cddd919542b187a2ecee17d54eb568a5f7200000000000000000000000000000000000000000000000000000000000000c000000000000000000000000000000000000000000000000000000000000000700301ffff0201a67cf7357e47d5396bb1d31978f0ff81e1b0d4ecc02aaa39b223fe8d0a0e5c4f27ead9083c756cc204c02aaa39b223fe8d0a0e5c4f27ead9083c756cc200a67cf7357e47d5396bb1d31978f0ff81e1b0d4ec006f874cddd919542b187a2ecee17d54eb568a5f72000bb800000000000000000000000000000000",
                    "decodedMethod": {
                        "callParams": [
                            {
                                "name": "tokenIn",
                                "type": "address",
                                "value": "0xeeeeeeeeeeeeeeeeeeeeeeeeeeeeeeeeeeeeeeee"
                            },
                            {
                                "name": "amountIn",
                                "type": "uint256",
                                "value": "200,000,000,000,000"
                            },
                            {
                                "name": "tokenOut",
                                "type": "address",
                                "value": "0x1c1c14a6b5074905ce5d367b0a7e098b58ebfd47"
                            },
                            {
                                "name": "amountOutMin",
                                "type": "uint256",
                                "value": "328,033,690,160,542"
                            },
                            {
                                "name": "to",
                                "type": "address",
                                "value": "0x6f874cddd919542b187a2ecee17d54eb568a5f72"
                            },
                            {
                                "name": "route",
                                "type": "bytes",
                                "value": "0x0301ffff0201a67cf7357e47d5396bb1d31978f0ff81e1b0d4ecc02aaa39b223fe8d0a0e5c4f27ead9083c756cc204c02aaa39b223fe8d0a0e5c4f27ead9083c756cc200a67cf7357e47d5396bb1d31978f0ff81e1b0d4ec006f874cddd919542b187a2ecee17d54eb568a5f72000bb8"
                            }
                        ],
                        "constructorArguments": "",
                        "name": "processRoute",
                        "returnParams": [
                            {
                                "name": "amountOut",
                                "type": "uint256",
                                "value": "328,362,052,212,755"
                            }
                        ],
                        "signature": "processRoute(address,uint256,address,uint256,address,bytes)"
                    },
                    "errorInfo": "",
                    "fromAddress": "0x6f874cddd919542b187a2ecee17d54eb568a5f72",
                    "gasUsed": 113318,
                    "id": 0,
                    "methodDecoded": true,
                    "operation": "CALL",
                    "output": "0x00000000000000000000000000000000000000000000000000012aa4bf7ad813",
                    "revert": false,
                    "revertMessage": "",
                    "selector": "0x2646478b",
                    "status": true,
                    "value": "0.0002"
                },
                "nodeType": 0
            },
            "1": {
                "invocation": {
                    "address": "0x1c1c14a6b5074905ce5d367b0a7e098b58ebfd47",
                    "callData": "0x0000000000000000000000006f874cddd919542b187a2ecee17d54eb568a5f72",
                    "decodedMethod": {
                        "callParams": [
                            {
                                "name": "_owner",
                                "type": "address",
                                "value": "0x6f874cddd919542b187a2ecee17d54eb568a5f72"
                            }
                        ],
                        "constructorArguments": "",
                        "name": "balanceOf",
                        "returnParams": [
                            {
                                "decimalAvailable": true,
                                "name": "",
                                "type": "uint256",
                                "value": "511,018,134,221,218"
                            }
                        ],
                        "signature": "balanceOf(address)"
                    },
                    "errorInfo": "",
                    "fromAddress": "0xe43ca1dee3f0fc1e2df73a0745674545f11a59f5",
                    "gasUsed": 2704,
                    "id": 1,
                    "methodDecoded": true,
                    "operation": "STATICCALL",
                    "output": "0x0000000000000000000000000000000000000000000000000001d0c4ae5d31a2",
                    "revert": false,
                    "revertMessage": "",
                    "selector": "0x70a08231",
                    "status": true,
                    "value": "0"
                },
                "nodeType": 0
            },
            "10": {
                "event": {
                    "contract": "0x1c1c14a6b5074905ce5d367b0a7e098b58ebfd47",
                    "decodedLog": {
                        "name": "Transfer",
                        "params": [
                            {
                                "name": "_from",
                                "type": "address",
                                "value": "0xa67cf7357e47d5396bb1d31978f0ff81e1b0d4ec"
                            },
                            {
                                "name": "_to",
                                "type": "address",
                                "value": "0x6f874cddd919542b187a2ecee17d54eb568a5f72"
                            },
                            {
                                "decimalAvailable": true,
                                "name": "_value",
                                "type": "uint256",
                                "value": "328,362,052,212,755"
                            }
                        ],
                        "signature": "Transfer(address,address,uint256)"
                    },
                    "id": 10,
                    "logData": "0x00000000000000000000000000000000000000000000000000012aa4bf7ad813",
                    "logDecoded": true,
                    "operation": "EVENT",
                    "revert": false,
                    "status": true,
                    "topics": [
                        "0xddf252ad1be2c89b69c2b068fc378daa952ba7f163c4a11628f55a4df523b3ef",
                        "0x000000000000000000000000a67cf7357e47d5396bb1d31978f0ff81e1b0d4ec",
                        "0x0000000000000000000000006f874cddd919542b187a2ecee17d54eb568a5f72"
                    ]
                },
                "nodeType": 1
            },
            "11": {
                "invocation": {
                    "address": "0x1c1c14a6b5074905ce5d367b0a7e098b58ebfd47",
                    "callData": "0x000000000000000000000000a67cf7357e47d5396bb1d31978f0ff81e1b0d4ec",
                    "decodedMethod": {
                        "callParams": [
                            {
                                "name": "_owner",
                                "type": "address",
                                "value": "0xa67cf7357e47d5396bb1d31978f0ff81e1b0d4ec"
                            }
                        ],
                        "constructorArguments": "",
                        "name": "balanceOf",
                        "returnParams": [
                            {
                                "decimalAvailable": true,
                                "name": "",
                                "type": "uint256",
                                "value": "8,023,079,470,977"
                            }
                        ],
                        "signature": "balanceOf(address)"
                    },
                    "errorInfo": "",
                    "fromAddress": "0xa67cf7357e47d5396bb1d31978f0ff81e1b0d4ec",
                    "gasUsed": 704,
                    "id": 11,
                    "methodDecoded": true,
                    "operation": "STATICCALL",
                    "output": "0x0000000000000000000000000000000000000000000000000000074c04cd4781",
                    "revert": false,
                    "revertMessage": "",
                    "selector": "0x70a08231",
                    "status": true,
                    "value": "0"
                },
                "nodeType": 0
            },
            "12": {
                "invocation": {
                    "address": "0xc02aaa39b223fe8d0a0e5c4f27ead9083c756cc2",
                    "callData": "0x000000000000000000000000a67cf7357e47d5396bb1d31978f0ff81e1b0d4ec",
                    "decodedMethod": {
                        "callParams": [
                            {
                                "name": "",
                                "type": "address",
                                "value": "0xa67cf7357e47d5396bb1d31978f0ff81e1b0d4ec"
                            }
                        ],
                        "constructorArguments": "",
                        "name": "balanceOf",
                        "returnParams": [
                            {
                                "decimalAvailable": true,
                                "name": "",
                                "type": "uint256",
                                "value": "204,872,067,389,432"
                            }
                        ],
                        "signature": "balanceOf(address)"
                    },
                    "errorInfo": "",
                    "fromAddress": "0xa67cf7357e47d5396bb1d31978f0ff81e1b0d4ec",
                    "gasUsed": 534,
                    "id": 12,
                    "methodDecoded": true,
                    "operation": "STATICCALL",
                    "output": "0x0000000000000000000000000000000000000000000000000000ba547ecd17f8",
                    "revert": false,
                    "revertMessage": "",
                    "selector": "0x70a08231",
                    "status": true,
                    "value": "0"
                },
                "nodeType": 0
            },
            "13": {
                "event": {
                    "contract": "0xa67cf7357e47d5396bb1d31978f0ff81e1b0d4ec",
                    "decodedLog": {
                        "name": "Sync",
                        "params": [
                            {
                                "name": "reserve0",
                                "type": "uint112",
                                "value": "8,023,079,470,977"
                            },
                            {
                                "name": "reserve1",
                                "type": "uint112",
                                "value": "204,872,067,389,432"
                            }
                        ],
                        "signature": "Sync(uint112,uint112)"
                    },
                    "id": 13,
                    "logData": "0x0000000000000000000000000000000000000000000000000000074c04cd47810000000000000000000000000000000000000000000000000000ba547ecd17f8",
                    "logDecoded": true,
                    "operation": "EVENT",
                    "revert": false,
                    "status": true,
                    "topics": [
                        "0x1c411e9a96e071241c2f21f7726b17ae89e3cab4c78be50e062b03a9fffbbad1"
                    ]
                },
                "nodeType": 1
            },
            "14": {
                "event": {
                    "contract": "0xa67cf7357e47d5396bb1d31978f0ff81e1b0d4ec",
                    "decodedLog": {
                        "name": "Swap",
                        "params": [
                            {
                                "name": "sender",
                                "type": "address",
                                "value": "0xe43ca1dee3f0fc1e2df73a0745674545f11a59f5"
                            },
                            {
                                "name": "to",
                                "type": "address",
                                "value": "0x6f874cddd919542b187a2ecee17d54eb568a5f72"
                            },
                            {
                                "name": "amount0In",
                                "type": "uint256",
                                "value": "0"
                            },
                            {
                                "name": "amount1In",
                                "type": "uint256",
                                "value": "200,000,000,000,000"
                            },
                            {
                                "name": "amount0Out",
                                "type": "uint256",
                                "value": "328,362,052,212,755"
                            },
                            {
                                "name": "amount1Out",
                                "type": "uint256",
                                "value": "0"
                            }
                        ],
                        "signature": "Swap(address,uint256,uint256,uint256,uint256,address)"
                    },
                    "id": 14,
                    "logData": "0x00000000000000000000000000000000000000000000000000000000000000000000000000000000000000000000000000000000000000000000b5e620f4800000000000000000000000000000000000000000000000000000012aa4bf7ad8130000000000000000000000000000000000000000000000000000000000000000",
                    "logDecoded": true,
                    "operation": "EVENT",
                    "revert": false,
                    "status": true,
                    "topics": [
                        "0xd78ad95fa46c994b6551d0da85fc275fe613ce37657fb8d5e3d130840159d822",
                        "0x000000000000000000000000e43ca1dee3f0fc1e2df73a0745674545f11a59f5",
                        "0x0000000000000000000000006f874cddd919542b187a2ecee17d54eb568a5f72"
                    ]
                },
                "nodeType": 1
            },
            "15": {
                "invocation": {
                    "address": "0x1c1c14a6b5074905ce5d367b0a7e098b58ebfd47",
                    "callData": "0x0000000000000000000000006f874cddd919542b187a2ecee17d54eb568a5f72",
                    "decodedMethod": {
                        "callParams": [
                            {
                                "name": "_owner",
                                "type": "address",
                                "value": "0x6f874cddd919542b187a2ecee17d54eb568a5f72"
                            }
                        ],
                        "constructorArguments": "",
                        "name": "balanceOf",
                        "returnParams": [
                            {
                                "decimalAvailable": true,
                                "name": "",
                                "type": "uint256",
                                "value": "839,380,186,433,973"
                            }
                        ],
                        "signature": "balanceOf(address)"
                    },
                    "errorInfo": "",
                    "fromAddress": "0xe43ca1dee3f0fc1e2df73a0745674545f11a59f5",
                    "gasUsed": 704,
                    "id": 15,
                    "methodDecoded": true,
                    "operation": "STATICCALL",
                    "output": "0x0000000000000000000000000000000000000000000000000002fb696dd809b5",
                    "revert": false,
                    "revertMessage": "",
                    "selector": "0x70a08231",
                    "status": true,
                    "value": "0"
                },
                "nodeType": 0
            },
            "16": {
                "event": {
                    "contract": "0xe43ca1dee3f0fc1e2df73a0745674545f11a59f5",
                    "decodedLog": {
                        "name": "Route",
                        "params": [
                            {
                                "name": "from",
                                "type": "address",
                                "value": "0x6f874cddd919542b187a2ecee17d54eb568a5f72"
                            },
                            {
                                "name": "tokenIn",
                                "type": "address",
                                "value": "0xeeeeeeeeeeeeeeeeeeeeeeeeeeeeeeeeeeeeeeee"
                            },
                            {
                                "name": "tokenOut",
                                "type": "address",
                                "value": "0x1c1c14a6b5074905ce5d367b0a7e098b58ebfd47"
                            },
                            {
                                "name": "to",
                                "type": "address",
                                "value": "0x6f874cddd919542b187a2ecee17d54eb568a5f72"
                            },
                            {
                                "name": "amountIn",
                                "type": "uint256",
                                "value": "200,000,000,000,000"
                            },
                            {
                                "name": "amountOutMin",
                                "type": "uint256",
                                "value": "328,033,690,160,542"
                            },
                            {
                                "name": "amountOut",
                                "type": "uint256",
                                "value": "328,362,052,212,755"
                            }
                        ],
                        "signature": "Route(address,address,address,address,uint256,uint256,uint256)"
                    },
                    "id": 16,
                    "logData": "0x0000000000000000000000006f874cddd919542b187a2ecee17d54eb568a5f720000000000000000000000000000000000000000000000000000b5e620f4800000000000000000000000000000000000000000000000000000012a584b938d9e00000000000000000000000000000000000000000000000000012aa4bf7ad813",
                    "logDecoded": true,
                    "operation": "EVENT",
                    "revert": false,
                    "status": true,
                    "topics": [
                        "0x2db5ddd0b42bdbca0d69ea16f234a870a485854ae0d91f16643d6f317d8b8994",
                        "0x0000000000000000000000006f874cddd919542b187a2ecee17d54eb568a5f72",
                        "0x000000000000000000000000eeeeeeeeeeeeeeeeeeeeeeeeeeeeeeeeeeeeeeee",
                        "0x0000000000000000000000001c1c14a6b5074905ce5d367b0a7e098b58ebfd47"
                    ]
                },
                "nodeType": 1
            },
            "2": {
                "invocation": {
                    "address": "0xc02aaa39b223fe8d0a0e5c4f27ead9083c756cc2",
                    "callData": "0x",
                    "decodedMethod": {
                        "callParams": [],
                        "constructorArguments": "",
                        "name": "deposit",
                        "returnParams": [],
                        "signature": "deposit()"
                    },
                    "errorInfo": "",
                    "fromAddress": "0xe43ca1dee3f0fc1e2df73a0745674545f11a59f5",
                    "gasUsed": 6874,
                    "id": 2,
                    "methodDecoded": true,
                    "operation": "CALL",
                    "output": "",
                    "revert": false,
                    "revertMessage": "",
                    "selector": "0xd0e30db0",
                    "status": true,
                    "value": "0.0002"
                },
                "nodeType": 0
            },
            "3": {
                "event": {
                    "contract": "0xc02aaa39b223fe8d0a0e5c4f27ead9083c756cc2",
                    "decodedLog": {
                        "name": "Deposit",
                        "params": [
                            {
                                "name": "dst",
                                "type": "address",
                                "value": "0xe43ca1dee3f0fc1e2df73a0745674545f11a59f5"
                            },
                            {
                                "name": "wad",
                                "type": "uint256",
                                "value": "200,000,000,000,000"
                            }
                        ],
                        "signature": "Deposit(address,uint256)"
                    },
                    "id": 3,
                    "logData": "0x0000000000000000000000000000000000000000000000000000b5e620f48000",
                    "logDecoded": true,
                    "operation": "EVENT",
                    "revert": false,
                    "status": true,
                    "topics": [
                        "0xe1fffcc4923d04b559f4d29a8bfc6cda04eb5b0d3c460751c2402c5c5cc9109c",
                        "0x000000000000000000000000e43ca1dee3f0fc1e2df73a0745674545f11a59f5"
                    ]
                },
                "nodeType": 1
            },
            "4": {
                "invocation": {
                    "address": "0xc02aaa39b223fe8d0a0e5c4f27ead9083c756cc2",
                    "callData": "0x000000000000000000000000a67cf7357e47d5396bb1d31978f0ff81e1b0d4ec0000000000000000000000000000000000000000000000000000b5e620f48000",
                    "decodedMethod": {
                        "callParams": [
                            {
                                "name": "dst",
                                "type": "address",
                                "value": "0xa67cf7357e47d5396bb1d31978f0ff81e1b0d4ec"
                            },
                            {
                                "decimalAvailable": true,
                                "name": "wad",
                                "type": "uint256",
                                "value": "200,000,000,000,000"
                            }
                        ],
                        "constructorArguments": "",
                        "name": "transfer",
                        "returnParams": [
                            {
                                "name": "",
                                "type": "bool",
                                "value": true
                            }
                        ],
                        "signature": "transfer(address,uint256)"
                    },
                    "errorInfo": "",
                    "fromAddress": "0xe43ca1dee3f0fc1e2df73a0745674545f11a59f5",
                    "gasUsed": 8062,
                    "id": 4,
                    "methodDecoded": true,
                    "operation": "CALL",
                    "output": "0x0000000000000000000000000000000000000000000000000000000000000001",
                    "revert": false,
                    "revertMessage": "",
                    "selector": "0xa9059cbb",
                    "status": true,
                    "value": "0"
                },
                "nodeType": 0
            },
            "5": {
                "event": {
                    "contract": "0xc02aaa39b223fe8d0a0e5c4f27ead9083c756cc2",
                    "decodedLog": {
                        "name": "Transfer",
                        "params": [
                            {
                                "name": "src",
                                "type": "address",
                                "value": "0xe43ca1dee3f0fc1e2df73a0745674545f11a59f5"
                            },
                            {
                                "name": "dst",
                                "type": "address",
                                "value": "0xa67cf7357e47d5396bb1d31978f0ff81e1b0d4ec"
                            },
                            {
                                "decimalAvailable": true,
                                "name": "wad",
                                "type": "uint256",
                                "value": "200,000,000,000,000"
                            }
                        ],
                        "signature": "Transfer(address,address,uint256)"
                    },
                    "id": 5,
                    "logData": "0x0000000000000000000000000000000000000000000000000000b5e620f48000",
                    "logDecoded": true,
                    "operation": "EVENT",
                    "revert": false,
                    "status": true,
                    "topics": [
                        "0xddf252ad1be2c89b69c2b068fc378daa952ba7f163c4a11628f55a4df523b3ef",
                        "0x000000000000000000000000e43ca1dee3f0fc1e2df73a0745674545f11a59f5",
                        "0x000000000000000000000000a67cf7357e47d5396bb1d31978f0ff81e1b0d4ec"
                    ]
                },
                "nodeType": 1
            },
            "6": {
                "invocation": {
                    "address": "0xa67cf7357e47d5396bb1d31978f0ff81e1b0d4ec",
                    "callData": "0x",
                    "decodedMethod": {
                        "callParams": [],
                        "constructorArguments": "",
                        "name": "getReserves",
                        "returnParams": [
                            {
                                "name": "_reserve0",
                                "type": "uint112",
                                "value": "336,385,131,683,732"
                            },
                            {
                                "name": "_reserve1",
                                "type": "uint112",
                                "value": "4,872,067,389,432"
                            },
                            {
                                "name": "_blockTimestampLast",
                                "type": "uint32",
                                "value": "1,720,935,515"
                            }
                        ],
                        "signature": "getReserves()"
                    },
                    "errorInfo": "",
                    "fromAddress": "0xe43ca1dee3f0fc1e2df73a0745674545f11a59f5",
                    "gasUsed": 2517,
                    "id": 6,
                    "methodDecoded": true,
                    "operation": "STATICCALL",
                    "output": "0x000000000000000000000000000000000000000000000000000131f0c4481f940000000000000000000000000000000000000000000000000000046e5dd897f8000000000000000000000000000000000000000000000000000000006693645b",
                    "revert": false,
                    "revertMessage": "",
                    "selector": "0x0902f1ac",
                    "status": true,
                    "value": "0"
                },
                "nodeType": 0
            },
            "7": {
                "invocation": {
                    "address": "0xc02aaa39b223fe8d0a0e5c4f27ead9083c756cc2",
                    "callData": "0x000000000000000000000000a67cf7357e47d5396bb1d31978f0ff81e1b0d4ec",
                    "decodedMethod": {
                        "callParams": [
                            {
                                "name": "",
                                "type": "address",
                                "value": "0xa67cf7357e47d5396bb1d31978f0ff81e1b0d4ec"
                            }
                        ],
                        "constructorArguments": "",
                        "name": "balanceOf",
                        "returnParams": [
                            {
                                "decimalAvailable": true,
                                "name": "",
                                "type": "uint256",
                                "value": "204,872,067,389,432"
                            }
                        ],
                        "signature": "balanceOf(address)"
                    },
                    "errorInfo": "",
                    "fromAddress": "0xe43ca1dee3f0fc1e2df73a0745674545f11a59f5",
                    "gasUsed": 534,
                    "id": 7,
                    "methodDecoded": true,
                    "operation": "STATICCALL",
                    "output": "0x0000000000000000000000000000000000000000000000000000ba547ecd17f8",
                    "revert": false,
                    "revertMessage": "",
                    "selector": "0x70a08231",
                    "status": true,
                    "value": "0"
                },
                "nodeType": 0
            },
            "8": {
                "invocation": {
                    "address": "0xa67cf7357e47d5396bb1d31978f0ff81e1b0d4ec",
                    "callData": "0x00000000000000000000000000000000000000000000000000012aa4bf7ad81300000000000000000000000000000000000000000000000000000000000000000000000000000000000000006f874cddd919542b187a2ecee17d54eb568a5f7200000000000000000000000000000000000000000000000000000000000000800000000000000000000000000000000000000000000000000000000000000000",
                    "decodedMethod": {
                        "callParams": [
                            {
                                "name": "amount0Out",
                                "type": "uint256",
                                "value": "328,362,052,212,755"
                            },
                            {
                                "name": "amount1Out",
                                "type": "uint256",
                                "value": "0"
                            },
                            {
                                "name": "to",
                                "type": "address",
                                "value": "0x6f874cddd919542b187a2ecee17d54eb568a5f72"
                            },
                            {
                                "name": "data",
                                "type": "bytes",
                                "value": "0x"
                            }
                        ],
                        "constructorArguments": "",
                        "name": "swap",
                        "returnParams": [],
                        "signature": "swap(uint256,uint256,address,bytes)"
                    },
                    "errorInfo": "",
                    "fromAddress": "0xe43ca1dee3f0fc1e2df73a0745674545f11a59f5",
                    "gasUsed": 44350,
                    "id": 8,
                    "methodDecoded": true,
                    "operation": "CALL",
                    "output": "",
                    "revert": false,
                    "revertMessage": "",
                    "selector": "0x022c0d9f",
                    "status": true,
                    "value": "0"
                },
                "nodeType": 0
            },
            "9": {
                "invocation": {
                    "address": "0x1c1c14a6b5074905ce5d367b0a7e098b58ebfd47",
                    "callData": "0x0000000000000000000000006f874cddd919542b187a2ecee17d54eb568a5f7200000000000000000000000000000000000000000000000000012aa4bf7ad813",
                    "decodedMethod": {
                        "callParams": [
                            {
                                "name": "_to",
                                "type": "address",
                                "value": "0x6f874cddd919542b187a2ecee17d54eb568a5f72"
                            },
                            {
                                "decimalAvailable": true,
                                "name": "_amount",
                                "type": "uint256",
                                "value": "328,362,052,212,755"
                            }
                        ],
                        "constructorArguments": "",
                        "name": "transfer",
                        "returnParams": [
                            {
                                "name": "success",
                                "type": "bool",
                                "value": true
                            }
                        ],
                        "signature": "transfer(address,uint256)"
                    },
                    "errorInfo": "",
                    "fromAddress": "0xa67cf7357e47d5396bb1d31978f0ff81e1b0d4ec",
                    "gasUsed": 11416,
                    "id": 9,
                    "methodDecoded": true,
                    "operation": "CALL",
                    "output": "0x0000000000000000000000000000000000000000000000000000000000000001",
                    "revert": false,
                    "revertMessage": "",
                    "selector": "0xa9059cbb",
                    "status": true,
                    "value": "0"
                },
                "nodeType": 0
            }
        },
        "gasFlame": [
            {
                "children": [
                    {
                        "children": [
                            {
                                "children": [],
                                "depth": 0,
                                "name": "Initial Gas",
                                "value": 24668
                            },
                            {
                                "children": [
                                    {
                                        "children": [],
                                        "depth": 1,
                                        "name": "balanceOf",
                                        "value": 2704
                                    },
                                    {
                                        "children": [],
                                        "depth": 1,
                                        "name": "deposit",
                                        "value": 6874
                                    },
                                    {
                                        "children": [],
                                        "depth": 1,
                                        "name": "transfer",
                                        "value": 8062
                                    },
                                    {
                                        "children": [],
                                        "depth": 1,
                                        "name": "getReserves",
                                        "value": 2517
                                    },
                                    {
                                        "children": [],
                                        "depth": 1,
                                        "name": "balanceOf",
                                        "value": 534
                                    },
                                    {
                                        "children": [
                                            {
                                                "children": [],
                                                "depth": 2,
                                                "name": "transfer",
                                                "value": 11416
                                            },
                                            {
                                                "children": [],
                                                "depth": 2,
                                                "name": "balanceOf",
                                                "value": 704
                                            },
                                            {
                                                "children": [],
                                                "depth": 2,
                                                "name": "balanceOf",
                                                "value": 534
                                            }
                                        ],
                                        "depth": 1,
                                        "name": "swap",
                                        "value": 44350
                                    },
                                    {
                                        "children": [],
                                        "depth": 1,
                                        "name": "balanceOf",
                                        "value": 704
                                    }
                                ],
                                "depth": 0,
                                "name": "Executed Gas",
                                "value": 97050
                            }
                        ],
                        "depth": -1,
                        "name": "Actual Gas Used",
                        "value": 113318
                    },
                    {
                        "children": [],
                        "depth": -1,
                        "name": "Refunded Gas",
                        "value": 8400
                    }
                ],
                "depth": -2,
                "name": "Total Gas",
                "value": 121718
            }
        ],
        "isConfirmed": true,
        "mainTrace": [
            {
                "children": [
                    {
                        "children": [
                            {
                                "children": [],
                                "depth": 1,
                                "id": 1,
                                "order": 1
                            },
                            {
                                "children": [
                                    {
                                        "children": [],
                                        "depth": 2,
                                        "id": 3,
                                        "order": 3
                                    }
                                ],
                                "depth": 1,
                                "id": 2,
                                "order": 2
                            },
                            {
                                "children": [
                                    {
                                        "children": [],
                                        "depth": 2,
                                        "id": 5,
                                        "order": 5
                                    }
                                ],
                                "depth": 1,
                                "id": 4,
                                "order": 4
                            },
                            {
                                "children": [],
                                "depth": 1,
                                "id": 6,
                                "order": 6
                            },
                            {
                                "children": [],
                                "depth": 1,
                                "id": 7,
                                "order": 7
                            },
                            {
                                "children": [
                                    {
                                        "children": [
                                            {
                                                "children": [],
                                                "depth": 3,
                                                "id": 10,
                                                "order": 10
                                            }
                                        ],
                                        "depth": 2,
                                        "id": 9,
                                        "order": 9
                                    },
                                    {
                                        "children": [],
                                        "depth": 2,
                                        "id": 11,
                                        "order": 11
                                    },
                                    {
                                        "children": [],
                                        "depth": 2,
                                        "id": 12,
                                        "order": 12
                                    },
                                    {
                                        "children": [],
                                        "depth": 2,
                                        "id": 13,
                                        "order": 13
                                    },
                                    {
                                        "children": [],
                                        "depth": 2,
                                        "id": 14,
                                        "order": 14
                                    }
                                ],
                                "depth": 1,
                                "id": 8,
                                "order": 8
                            },
                            {
                                "children": [],
                                "depth": 1,
                                "id": 15,
                                "order": 15
                            },
                            {
                                "children": [],
                                "depth": 1,
                                "id": 16,
                                "order": 16
                            }
                        ],
                        "depth": 0,
                        "id": 0,
                        "order": 0
                    }
                ],
                "depth": -1,
                "id": -1,
                "order": -1
            }
        ],
        "mainTraceNodeCount": 17,
        "parentIdMap": {
            "0": -1,
            "1": 0,
            "10": 9,
            "11": 8,
            "12": 8,
            "13": 8,
            "14": 8,
            "15": 0,
            "16": 0,
            "2": 0,
            "3": 2,
            "4": 0,
            "5": 4,
            "6": 0,
            "7": 0,
            "8": 0,
            "9": 8
        },
        "tidyTrace": [
            {
                "children": [
                    {
                        "children": [
                            {
                                "children": [
                                    {
                                        "children": [],
                                        "depth": 2,
                                        "id": 3,
                                        "order": 3
                                    }
                                ],
                                "depth": 1,
                                "id": 2,
                                "order": 2
                            },
                            {
                                "children": [
                                    {
                                        "children": [],
                                        "depth": 2,
                                        "id": 5,
                                        "order": 5
                                    }
                                ],
                                "depth": 1,
                                "id": 4,
                                "order": 4
                            },
                            {
                                "children": [
                                    {
                                        "children": [
                                            {
                                                "children": [],
                                                "depth": 3,
                                                "id": 10,
                                                "order": 10
                                            }
                                        ],
                                        "depth": 2,
                                        "id": 9,
                                        "order": 9
                                    },
                                    {
                                        "children": [],
                                        "depth": 2,
                                        "id": 13,
                                        "order": 13
                                    },
                                    {
                                        "children": [],
                                        "depth": 2,
                                        "id": 14,
                                        "order": 14
                                    }
                                ],
                                "depth": 1,
                                "id": 8,
                                "order": 8
                            },
                            {
                                "children": [],
                                "depth": 1,
                                "id": 16,
                                "order": 16
                            }
                        ],
                        "depth": 0,
                        "id": 0,
                        "order": 0
                    }
                ],
                "depth": -1,
                "id": -1,
                "order": -1
            }
        ],
        "tidyTraceNodeCount": 11
    },
    "state_change": {
        "stateChanges": [
            {
                "address": "0x1c1c14a6b5074905ce5d367b0a7e098b58ebfd47",
                "erc": "ERC-20",
                "slots": [
                    {
                        "current": "0x0000000000000000000000000000000000000000000000000000074c04cd4781",
                        "key": "0x40b731b7f53a892788dd697d1be705cfc367595c4cdae1355d6aaab80c145ce2",
                        "prev": "0x000000000000000000000000000000000000000000000000000131f0c4481f94"
                    },
                    {
                        "current": "0x0000000000000000000000000000000000000000000000000002fb696dd809b5",
                        "key": "0xf406605c3b18d3d99a0b9f79791da421a286c7329659be8e59e20f11486d526c",
                        "prev": "0x0000000000000000000000000000000000000000000000000001d0c4ae5d31a2"
                    }
                ],
                "storageVariables": [
                    {
                        "name": "balances",
                        "type": "mapping(address => uint256)",
                        "value": {
                            "pairs": [
                                {
                                    "key": "0x6f874cddd919542b187a2ecee17d54eb568a5f72",
                                    "value": {
                                        "current": "839380186433973",
                                        "prev": "511018134221218",
                                        "typeTag": 1
                                    }
                                },
                                {
                                    "key": "0xa67cf7357e47d5396bb1d31978f0ff81e1b0d4ec",
                                    "value": {
                                        "current": "8023079470977",
                                        "prev": "336385131683732",
                                        "typeTag": 1
                                    }
                                }
                            ],
                            "typeTag": 4
                        }
                    }
                ]
            },
            {
                "address": "0xa67cf7357e47d5396bb1d31978f0ff81e1b0d4ec",
                "erc": "ERC-20",
                "slots": [
                    {
                        "current": "0x000000000000000000c26416c26fb007a325f47a03b9fa6efbd487bf896409a9",
                        "key": "0x0000000000000000000000000000000000000000000000000000000000000009",
                        "prev": "0x000000000000000000c26416c26fb007a3246408b8e978a95f8eb283569caadd"
                    },
                    {
                        "current": "0x000000000000000000000404d9c21fbbfebc6987c75ad2cb3d72e7a7f1677e1e",
                        "key": "0x000000000000000000000000000000000000000000000000000000000000000a",
                        "prev": "0x000000000000000000000404d9c21fbbe19bb3bd2b67087844d66c4bce921a9a"
                    },
                    {
                        "current": "0x669364c70000000000000000ba547ecd17f80000000000000000074c04cd4781",
                        "key": "0x0000000000000000000000000000000000000000000000000000000000000008",
                        "prev": "0x6693645b0000000000000000046e5dd897f8000000000000000131f0c4481f94"
                    }
                ],
                "storageVariables": [
                    {
                        "name": "price0CumulativeLast",
                        "type": "uint256",
                        "value": {
                            "current": "18618956137985521420188734508540265124324121800878590377",
                            "prev": "18618956137985521420180612568762480216479503273074404061",
                            "typeTag": 1
                        }
                    },
                    {
                        "name": "price1CumulativeLast",
                        "type": "uint256",
                        "value": {
                            "current": "1503666863282457756732968477714045038042257782439454",
                            "prev": "1503666863282419039280422750049467920009971020995226",
                            "typeTag": 1
                        }
                    },
                    {
                        "name": "reserve0",
                        "type": "uint112",
                        "value": {
                            "current": "8023079470977",
                            "prev": "336385131683732",
                            "typeTag": 1
                        }
                    },
                    {
                        "name": "reserve1",
                        "type": "uint112",
                        "value": {
                            "current": "204872067389432",
                            "prev": "4872067389432",
                            "typeTag": 1
                        }
                    },
                    {
                        "name": "blockTimestampLast",
                        "type": "uint32",
                        "value": {
                            "current": "1720935623",
                            "prev": "1720935515",
                            "typeTag": 1
                        }
                    }
                ]
            },
            {
                "address": "0xc02aaa39b223fe8d0a0e5c4f27ead9083c756cc2",
                "erc": "ERC-20",
                "slots": [
                    {
                        "current": "0x0000000000000000000000000000000000000000000000000000ba547ecd17f8",
                        "key": "0x5ca68d58fb2e421e67bae2f2f791541219b8cb36a3b90a6ee98193d8992d3d6f",
                        "prev": "0x0000000000000000000000000000000000000000000000000000046e5dd897f8"
                    }
                ],
                "storageVariables": [
                    {
                        "name": "balanceOf",
                        "type": "mapping(address => uint256)",
                        "value": {
                            "pairs": [
                                {
                                    "key": "0xa67cf7357e47d5396bb1d31978f0ff81e1b0d4ec",
                                    "value": {
                                        "current": "204872067389432",
                                        "prev": "4872067389432",
                                        "typeTag": 1
                                    }
                                }
                            ],
                            "typeTag": 4
                        }
                    }
                ]
            }
        ]
    }
}