{
    "balance_change": {
        "balanceChanges": []
    },
    "profile": {
        "basic_info": {
            "baseFee": "",
            "blockNumber": 6152960,
            "callData": "0x685ffd83000000000000000000000000000000000000000000000000000000000000006064616461000000000000000000000000000000000000000000000000000000000000000000000000000000000000000000000000000000000000000000000001000000000000000000000000000000000000000000000000000000000000000962616fe2808662616f0000000000000000000000000000000000000000000000",
            "debugEnable": true,
            "errorInfo": "execution reverted",
            "eventCount": 0,
            "feeRecipient": "0xea674fdde714fd979de3edf0f56aa9716b898ec8",
            "formatValue": "0.02",
            "gasLimit": 300000,
            "gasPrice": "6",
            "gasUsed": 34848,
            "intTxnCount": 0,
            "internalRevert": false,
            "internalRevertMessage": "",
            "isContractCreation": false,
            "isFlashloan": false,
            "maxFee": "",
            "nonce": 7,
            "overwritedBlockNumber": -1,
            "priorityFee": "",
            "receiver": "0xc3258f4b7ec932d04f0e7704e53348153b94059e",
            "revertMessage": "\"string contains invalid characters",
            "sender": "0x38e7ee7474e9197cf979ce993e058ce04c473318",
            "simulationEnable": true,
            "sourceTxnHash": "0x06c938cb682ee8987ff030b6c32b661317fd0505d371081c53ae34a22fa43538",
            "status": false,
            "timestamp": "2018-08-15T16:57:36Z",
            "transactionFee": "0.000209088",
            "txnHash": "0x06c938cb682ee8987ff030b6c32b661317fd0505d371081c53ae34a22fa43538",
            "txnIndex": 121,
            "type": 0,
            "value": "20000000000000000"
        },
        "fund_flow": [],
        "token_infos": [
            {
                "address": "0xc02aaa39b223fe8d0a0e5c4f27ead9083c756cc2",
                "decimals": 18
            },
            {
                "address": "0xeeeeeeeeeeeeeeeeeeeeeeeeeeeeeeeeeeeeeeee",
                "decimals": 18
            }
        ]
    },
    "address_label": {
        "labels": [
            {
                "address": "0x0000000000000000000000000000000000000001",
                "label": "Precompiled"
            },
            {
                "address": "0x0000000000000000000000000000000000000002",
                "label": "Precompiled"
            },
            {
                "address": "0x0000000000000000000000000000000000000003",
                "label": "Precompiled"
            },
            {
                "address": "0x0000000000000000000000000000000000000004",
                "label": "Precompiled"
            },
            {
                "address": "0xeeeeeeeeeeeeeeeeeeeeeeeeeeeeeeeeeeeeeeee",
                "label": "Ether"
            }
        ]
    },
    "trace": {
        "accountLabels": null,
        "dataMap": {
            "-1": {
                "invocation": {
                    "address": "0x38e7ee7474e9197cf979ce993e058ce04c473318",
                    "callData": "",
                    "decodedMethod": null,
                    "errorInfo": "",
                    "fromAddress": "",
                    "gasUsed": 0,
                    "id": -1,
                    "methodDecoded": false,
                    "operation": "",
                    "output": "",
                    "revert": false,
                    "revertMessage": "",
                    "selector": "",
                    "status": false,
                    "value": ""
                },
                "nodeType": 0
            },
            "0": {
                "invocation": {
                    "address": "0xc3258f4b7ec932d04f0e7704e53348153b94059e",
                    "callData": "0x000000000000000000000000000000000000000000000000000000000000006064616461000000000000000000000000000000000000000000000000000000000000000000000000000000000000000000000000000000000000000000000001000000000000000000000000000000000000000000000000000000000000000962616fe2808662616f0000000000000000000000000000000000000000000000",
                    "decodedMethod": {
                        "callParams": [
                            {
                                "name": "_nameString",
                                "type": "string",
                                "value": "bao\u2006bao"
                            },
                            {
                                "name": "_affCode",
                                "type": "bytes32",
                                "value": "0x6461646100000000000000000000000000000000000000000000000000000000"
                            },
                            {
                                "name": "_all",
                                "type": "bool",
                                "value": true
                            }
                        ],
                        "constructorArguments": "",
                        "name": "registerNameXname",
                        "returnParams": [],
                        "signature": "registerNameXname(string,bytes32,bool)"
                    },
                    "errorInfo": "execution reverted",
                    "fromAddress": "0x38e7ee7474e9197cf979ce993e058ce04c473318",
                    "gasUsed": 34848,
                    "id": 0,
                    "methodDecoded": true,
                    "operation": "CALL",
                    "output": "0x08c379a000000000000000000000000000000000000000000000000000000000000000200000000000000000000000000000000000000000000000000000000000000022737472696e6720636f6e7461696e7320696e76616c69642063686172616374657273000000000000000000000000000000000000000000000000000000000000",
                    "revert": true,
                    "revertMessage": "\"string contains invalid characters",
                    "selector": "0x685ffd83",
                    "status": false,
                    "value": "0.02"
                },
                "nodeType": 0
            }
        },
        "gasFlame": [
            {
                "children": [
                    {
                        "children": [
                            {
                                "children": [],
                                "depth": 0,
                                "name": "Initial Gas",
                                "value": 22936
                            },
                            {
                                "children": [],
                                "depth": 0,
                                "name": "Executed Gas",
                                "value": 11912
                            }
                        ],
                        "depth": -1,
                        "name": "Actual Gas Used",
                        "value": 34848
                    },
                    {
                        "children": [],
                        "depth": -1,
                        "name": "Refunded Gas",
                        "value": 0
                    }
                ],
                "depth": -2,
                "name": "Total Gas",
                "value": 34848
            }
        ],
        "isConfirmed": true,
        "mainTrace": [
            {
                "children": [
                    {
                        "children": [],
                        "depth": 0,
                        "id": 0,
                        "order": 0
                    }
                ],
                "depth": -1,
                "id": -1,
                "order": -1
            }
        ],
        "mainTraceNodeCount": 1,
        "parentIdMap": {
            "0": -1
        },
        "tidyTrace": [
            {
                "children": [
                    {
                        "children": [],
                        "depth": 0,
                        "id": 0,
                        "order": 0
                    }
                ],
                "depth": -1,
                "id": -1,
                "order": -1
            }
        ],
        "tidyTraceNodeCount": 1
    },
    "state_change": {
        "stateChanges": []
    }
}