{
    "balance_change": {
        "balanceChanges": [
            {
                "account": "0x5e6adef387c15ff23dd2179bc7c17c656a45b524",
                "assets": [
                    {
                        "address": "0x69c4bb240cf05d51eeab6985bab35527d04a8c64",
                        "amount": "81,250",
                        "iconUrl": "",
                        "isERC1155": false,
                        "isERC721": false,
                        "sign": false,
                        "value": ""
                    }
                ]
            },
            {
                "account": "0xf8ccee9130266084513ac5b7fd35f4d1c78a4542",
                "assets": [
                    {
                        "address": "0x69c4bb240cf05d51eeab6985bab35527d04a8c64",
                        "amount": "81,250",
                        "iconUrl": "",
                        "isERC1155": false,
                        "isERC721": false,
                        "sign": true,
                        "value": ""
                    }
                ]
            }
        ]
    },
    "profile": {
        "basic_info": {
            "baseFee": "",
            "blockNumber": 6408540,
            "callData": "0xa9059cbb000000000000000000000000f8ccee9130266084513ac5b7fd35f4d1c78a454200000000000000000000000000000000000000000000000000000763bfbd2200",
            "debugEnable": true,
            "errorInfo": "",
            "eventCount": 1,
            "feeRecipient": "0xb2930b35844a230f00e51431acae96fe543a0347",
            "formatValue": "0",
            "gasLimit": 75000,
            "gasPrice": "10",
            "gasUsed": 36983,
            "intTxnCount": 0,
            "internalRevert": false,
            "internalRevertMessage": "",
            "isContractCreation": false,
            "isFlashloan": false,
            "maxFee": "",
            "nonce": 199,
            "overwritedBlockNumber": -1,
            "priorityFee": "",
            "receiver": "0x69c4bb240cf05d51eeab6985bab35527d04a8c64",
            "revertMessage": "",
            "sender": "0x5e6adef387c15ff23dd2179bc7c17c656a45b524",
            "simulationEnable": true,
            "sourceTxnHash": "0x0680634ece35c2002cf160f1a12f3d9ec45aff4e9af63fa6688e78d1faa893ae",
            "status": true,
            "timestamp": "2018-09-27T10:27:03Z",
            "transactionFee": "0.00036983",
            "txnHash": "0x0680634ece35c2002cf160f1a12f3d9ec45aff4e9af63fa6688e78d1faa893ae",
            "txnIndex": 53,
            "type": 0,
            "value": "0"
        },
        "fund_flow": [
            {
                "amount": "81,250",
                "from": "0x5e6adef387c15ff23dd2179bc7c17c656a45b524",
                "id": 1,
                "isERC1155": false,
                "isERC721": false,
                "isReverted": false,
                "order": 1,
                "to": "0xf8ccee9130266084513ac5b7fd35f4d1c78a4542",
                "token": "0x69c4bb240cf05d51eeab6985bab35527d04a8c64"
            }
        ],
        "token_infos": [
            {
                "address": "0x69c4bb240cf05d51eeab6985bab35527d04a8c64",
                "decimals": 8
            },
            {
                "address": "0xc02aaa39b223fe8d0a0e5c4f27ead9083c756cc2",
                "decimals": 18
            },
            {
                "address": "0xeeeeeeeeeeeeeeeeeeeeeeeeeeeeeeeeeeeeeeee",
                "decimals": 18
            }
        ]
    },
    "address_label": {
        "labels": [
            {
                "address": "0xeeeeeeeeeeeeeeeeeeeeeeeeeeeeeeeeeeeeeeee",
                "label": "Ether"
            },
            {
                "address": "0x69c4bb240cf05d51eeab6985bab35527d04a8c64",
                "label": "Open Chain: Old Token"
            },
            {
                "address": "0x0000000000000000000000000000000000000001",
                "label": "Precompiled"
            },
            {
                "address": "0x0000000000000000000000000000000000000002",
                "label": "Precompiled"
            },
            {
                "address": "0x0000000000000000000000000000000000000003",
                "label": "Precompiled"
            },
            {
                "address": "0x0000000000000000000000000000000000000004",
                "label": "Precompiled"
            }
        ]
    },
    "trace": {
        "accountLabels": null,
        "dataMap": {
            "-1": {
                "invocation": {
                    "address": "0x5e6adef387c15ff23dd2179bc7c17c656a45b524",
                    "callData": "",
                    "decodedMethod": null,
                    "errorInfo": "",
                    "fromAddress": "",
                    "gasUsed": 0,
                    "id": -1,
                    "methodDecoded": false,
                    "operation": "",
                    "output": "",
                    "revert": false,
                    "revertMessage": "",
                    "selector": "",
                    "status": false,
                    "value": ""
                },
                "nodeType": 0
            },
            "0": {
                "invocation": {
                    "address": "0x69c4bb240cf05d51eeab6985bab35527d04a8c64",
                    "callData": "0x000000000000000000000000f8ccee9130266084513ac5b7fd35f4d1c78a454200000000000000000000000000000000000000000000000000000763bfbd2200",
                    "decodedMethod": {
                        "callParams": [
                            {
                                "name": "_to",
                                "type": "address",
                                "value": "0xf8ccee9130266084513ac5b7fd35f4d1c78a4542"
                            },
                            {
                                "decimalAvailable": true,
                                "name": "_value",
                                "type": "uint256",
                                "value": "8,125,000,000,000"
                            }
                        ],
                        "constructorArguments": "",
                        "name": "transfer",
                        "returnParams": [
                            {
                                "name": "",
                                "type": "bool",
                                "value": true
                            }
                        ],
                        "signature": "transfer(address,uint256)"
                    },
                    "errorInfo": "",
                    "fromAddress": "0x5e6adef387c15ff23dd2179bc7c17c656a45b524",
                    "gasUsed": 36983,
                    "id": 0,
                    "methodDecoded": true,
                    "operation": "CALL",
                    "output": "0x0000000000000000000000000000000000000000000000000000000000000001",
                    "revert": false,
                    "revertMessage": "",
                    "selector": "0xa9059cbb",
                    "status": true,
                    "value": "0"
                },
                "nodeType": 0
            },
            "1": {
                "event": {
                    "contract": "0x69c4bb240cf05d51eeab6985bab35527d04a8c64",
                    "decodedLog": {
                        "name": "Transfer",
                        "params": [
                            {
                                "name": "from",
                                "type": "address",
                                "value": "0x5e6adef387c15ff23dd2179bc7c17c656a45b524"
                            },
                            {
                                "name": "to",
                                "type": "address",
                                "value": "0xf8ccee9130266084513ac5b7fd35f4d1c78a4542"
                            },
                            {
                                "decimalAvailable": true,
                                "name": "value",
                                "type": "uint256",
                                "value": "8,125,000,000,000"
                            }
                        ],
                        "signature": "Transfer(address,address,uint256)"
                    },
                    "id": 1,
                    "logData": "0x00000000000000000000000000000000000000000000000000000763bfbd2200",
                    "logDecoded": true,
                    "operation": "EVENT",
                    "revert": false,
                    "status": true,
                    "topics": [
                        "0xddf252ad1be2c89b69c2b068fc378daa952ba7f163c4a11628f55a4df523b3ef",
                        "0x0000000000000000000000005e6adef387c15ff23dd2179bc7c17c656a45b524",
                        "0x000000000000000000000000f8ccee9130266084513ac5b7fd35f4d1c78a4542"
                    ]
                },
                "nodeType": 1
            }
        },
        "gasFlame": [
            {
                "children": [
                    {
                        "children": [
                            {
                                "children": [],
                                "depth": 0,
                                "name": "Initial Gas",
                                "value": 23128
                            },
                            {
                                "children": [],
                                "depth": 0,
                                "name": "Executed Gas",
                                "value": 13855
                            }
                        ],
                        "depth": -1,
                        "name": "Actual Gas Used",
                        "value": 36983
                    },
                    {
                        "children": [],
                        "depth": -1,
                        "name": "Refunded Gas",
                        "value": 0
                    }
                ],
                "depth": -2,
                "name": "Total Gas",
                "value": 36983
            }
        ],
        "isConfirmed": true,
        "mainTrace": [
            {
                "children": [
                    {
                        "children": [
                            {
                                "children": [],
                                "depth": 1,
                                "id": 1,
                                "order": 1
                            }
                        ],
                        "depth": 0,
                        "id": 0,
                        "order": 0
                    }
                ],
                "depth": -1,
                "id": -1,
                "order": -1
            }
        ],
        "mainTraceNodeCount": 2,
        "parentIdMap": {
            "0": -1,
            "1": 0
        },
        "tidyTrace": [
            {
                "children": [
                    {
                        "children": [
                            {
                                "children": [],
                                "depth": 1,
                                "id": 1,
                                "order": 1
                            }
                        ],
                        "depth": 0,
                        "id": 0,
                        "order": 0
                    }
                ],
                "depth": -1,
                "id": -1,
                "order": -1
            }
        ],
        "tidyTraceNodeCount": 2
    },
    "state_change": {
        "stateChanges": [
            {
                "address": "0x69c4bb240cf05d51eeab6985bab35527d04a8c64",
                "erc": "ERC-20",
                "slots": [
                    {
                        "current": "0x0000000000000000000000000000000000000000000000000029eeb582c98056",
                        "key": "0x533d3cfb09b830918455a62a9184f4aac5396b0a2790da254099564f63eddeba",
                        "prev": "0x0000000000000000000000000000000000000000000000000029f6194286a256"
                    },
                    {
                        "current": "0x000000000000000000000000000000000000000000000000000018042f26ae80",
                        "key": "0x9dd704b92ef3a201df0ca48fcad011956cebe3f53f6dcfee274ccfa09767ea52",
                        "prev": "0x000000000000000000000000000000000000000000000000000010a06f698c80"
                    }
                ],
                "storageVariables": [
                    {
                        "name": "balances",
                        "type": "mapping(address => uint256)",
                        "value": {
                            "pairs": [
                                {
                                    "key": "0x5e6adef387c15ff23dd2179bc7c17c656a45b524",
                                    "value": {
                                        "current": "11802937395871830",
                                        "prev": "11811062395871830",
                                        "typeTag": 1
                                    }
                                },
                                {
                                    "key": "0xf8ccee9130266084513ac5b7fd35f4d1c78a4542",
                                    "value": {
                                        "current": "26406250000000",
                                        "prev": "18281250000000",
                                        "typeTag": 1
                                    }
                                }
                            ],
                            "typeTag": 4
                        }
                    }
                ]
            }
        ]
    }
}