{
    "balance_change": {
        "balanceChanges": [
            {
                "account": "0x169ca6801ec33668ae24bdab264f9b0109eb7347",
                "assets": [
                    {
                        "address": "0xe6aaceda7d6bc119df866f8b5228073d9a992734",
                        "amount": "500,000",
                        "iconUrl": "",
                        "isERC1155": false,
                        "isERC721": false,
                        "sign": false,
                        "value": ""
                    }
                ]
            },
            {
                "account": "0x15611e0b8091f45d973a2a9b2b602b2ac1dd1be8",
                "assets": [
                    {
                        "address": "0xe6aaceda7d6bc119df866f8b5228073d9a992734",
                        "amount": "500,000",
                        "iconUrl": "",
                        "isERC1155": false,
                        "isERC721": false,
                        "sign": true,
                        "value": ""
                    }
                ]
            }
        ]
    },
    "profile": {
        "basic_info": {
            "baseFee": "",
            "blockNumber": 9052472,
            "callData": "0xa9059cbb00000000000000000000000015611e0b8091f45d973a2a9b2b602b2ac1dd1be80000000000000000000000000000000000000000000069e10de76676d0800000",
            "debugEnable": true,
            "errorInfo": "",
            "eventCount": 1,
            "feeRecipient": "0xaa5c4244f05c92781c4f259913319d8ba1acf05e",
            "formatValue": "0",
            "gasLimit": 52868,
            "gasPrice": "5",
            "gasUsed": 52868,
            "intTxnCount": 0,
            "internalRevert": false,
            "internalRevertMessage": "",
            "isContractCreation": false,
            "isFlashloan": false,
            "maxFee": "",
            "nonce": 21380,
            "overwritedBlockNumber": -1,
            "priorityFee": "",
            "receiver": "0xe6aaceda7d6bc119df866f8b5228073d9a992734",
            "revertMessage": "",
            "sender": "0x169ca6801ec33668ae24bdab264f9b0109eb7347",
            "simulationEnable": true,
            "sourceTxnHash": "0x06be673c19312cb2532df57171378d4f8929de0498699445f561bceecebadfa0",
            "status": true,
            "timestamp": "2019-12-05T02:05:23Z",
            "transactionFee": "0.00026434",
            "txnHash": "0x06be673c19312cb2532df57171378d4f8929de0498699445f561bceecebadfa0",
            "txnIndex": 27,
            "type": 0,
            "value": "0"
        },
        "fund_flow": [
            {
                "amount": "500,000",
                "from": "0x169ca6801ec33668ae24bdab264f9b0109eb7347",
                "id": 1,
                "isERC1155": false,
                "isERC721": false,
                "isReverted": false,
                "order": 1,
                "to": "0x15611e0b8091f45d973a2a9b2b602b2ac1dd1be8",
                "token": "0xe6aaceda7d6bc119df866f8b5228073d9a992734"
            }
        ],
        "token_infos": [
            {
                "address": "0xc02aaa39b223fe8d0a0e5c4f27ead9083c756cc2",
                "decimals": 18
            },
            {
                "address": "0xe6aaceda7d6bc119df866f8b5228073d9a992734",
                "decimals": 18
            },
            {
                "address": "0xeeeeeeeeeeeeeeeeeeeeeeeeeeeeeeeeeeeeeeee",
                "decimals": 18
            }
        ]
    },
    "address_label": {
        "labels": [
            {
                "address": "0x0000000000000000000000000000000000000004",
                "label": "Precompiled"
            },
            {
                "address": "0xeeeeeeeeeeeeeeeeeeeeeeeeeeeeeeeeeeeeeeee",
                "label": "Ether"
            },
            {
                "address": "0xe6aaceda7d6bc119df866f8b5228073d9a992734",
                "label": "NIOX (NIOX)"
            },
            {
                "address": "0x0000000000000000000000000000000000000001",
                "label": "Precompiled"
            },
            {
                "address": "0x0000000000000000000000000000000000000002",
                "label": "Precompiled"
            },
            {
                "address": "0x0000000000000000000000000000000000000003",
                "label": "Precompiled"
            }
        ]
    },
    "trace": {
        "accountLabels": null,
        "dataMap": {
            "-1": {
                "invocation": {
                    "address": "0x169ca6801ec33668ae24bdab264f9b0109eb7347",
                    "callData": "",
                    "decodedMethod": null,
                    "errorInfo": "",
                    "fromAddress": "",
                    "gasUsed": 0,
                    "id": -1,
                    "methodDecoded": false,
                    "operation": "",
                    "output": "",
                    "revert": false,
                    "revertMessage": "",
                    "selector": "",
                    "status": false,
                    "value": ""
                },
                "nodeType": 0
            },
            "0": {
                "invocation": {
                    "address": "0xe6aaceda7d6bc119df866f8b5228073d9a992734",
                    "callData": "0x00000000000000000000000015611e0b8091f45d973a2a9b2b602b2ac1dd1be80000000000000000000000000000000000000000000069e10de76676d0800000",
                    "decodedMethod": {
                        "callParams": [
                            {
                                "name": "_to",
                                "type": "address",
                                "value": "0x15611e0b8091f45d973a2a9b2b602b2ac1dd1be8"
                            },
                            {
                                "decimalAvailable": true,
                                "name": "_value",
                                "type": "uint256",
                                "value": "500,000,000,000,000,000,000,000"
                            }
                        ],
                        "constructorArguments": "",
                        "name": "transfer",
                        "returnParams": [
                            {
                                "name": "_success",
                                "type": "bool",
                                "value": true
                            }
                        ],
                        "signature": "transfer(address,uint256)"
                    },
                    "errorInfo": "",
                    "fromAddress": "0x169ca6801ec33668ae24bdab264f9b0109eb7347",
                    "gasUsed": 52868,
                    "id": 0,
                    "methodDecoded": true,
                    "operation": "CALL",
                    "output": "0x0000000000000000000000000000000000000000000000000000000000000001",
                    "revert": false,
                    "revertMessage": "",
                    "selector": "0xa9059cbb",
                    "status": true,
                    "value": "0"
                },
                "nodeType": 0
            },
            "1": {
                "event": {
                    "contract": "0xe6aaceda7d6bc119df866f8b5228073d9a992734",
                    "decodedLog": {
                        "name": "Transfer",
                        "params": [
                            {
                                "name": "from",
                                "type": "address",
                                "value": "0x169ca6801ec33668ae24bdab264f9b0109eb7347"
                            },
                            {
                                "name": "to",
                                "type": "address",
                                "value": "0x15611e0b8091f45d973a2a9b2b602b2ac1dd1be8"
                            },
                            {
                                "decimalAvailable": true,
                                "name": "value",
                                "type": "uint256",
                                "value": "500,000,000,000,000,000,000,000"
                            }
                        ],
                        "signature": "Transfer(address,address,uint256)"
                    },
                    "id": 1,
                    "logData": "0x0000000000000000000000000000000000000000000069e10de76676d0800000",
                    "logDecoded": true,
                    "operation": "EVENT",
                    "revert": false,
                    "status": true,
                    "topics": [
                        "0xddf252ad1be2c89b69c2b068fc378daa952ba7f163c4a11628f55a4df523b3ef",
                        "0x000000000000000000000000169ca6801ec33668ae24bdab264f9b0109eb7347",
                        "0x00000000000000000000000015611e0b8091f45d973a2a9b2b602b2ac1dd1be8"
                    ]
                },
                "nodeType": 1
            }
        },
        "gasFlame": [
            {
                "children": [
                    {
                        "children": [
                            {
                                "children": [],
                                "depth": 0,
                                "name": "Initial Gas",
                                "value": 23320
                            },
                            {
                                "children": [],
                                "depth": 0,
                                "name": "Executed Gas",
                                "value": 29548
                            }
                        ],
                        "depth": -1,
                        "name": "Actual Gas Used",
                        "value": 52868
                    },
                    {
                        "children": [],
                        "depth": -1,
                        "name": "Refunded Gas",
                        "value": 0
                    }
                ],
                "depth": -2,
                "name": "Total Gas",
                "value": 52868
            }
        ],
        "isConfirmed": true,
        "mainTrace": [
            {
                "children": [
                    {
                        "children": [
                            {
                                "children": [],
                                "depth": 1,
                                "id": 1,
                                "order": 1
                            }
                        ],
                        "depth": 0,
                        "id": 0,
                        "order": 0
                    }
                ],
                "depth": -1,
                "id": -1,
                "order": -1
            }
        ],
        "mainTraceNodeCount": 2,
        "parentIdMap": {
            "0": -1,
            "1": 0
        },
        "tidyTrace": [
            {
                "children": [
                    {
                        "children": [
                            {
                                "children": [],
                                "depth": 1,
                                "id": 1,
                                "order": 1
                            }
                        ],
                        "depth": 0,
                        "id": 0,
                        "order": 0
                    }
                ],
                "depth": -1,
                "id": -1,
                "order": -1
            }
        ],
        "tidyTraceNodeCount": 2
    },
    "state_change": {
        "stateChanges": [
            {
                "address": "0xe6aaceda7d6bc119df866f8b5228073d9a992734",
                "erc": "ERC-20",
                "slots": [
                    {
                        "current": "0x0000000000000000000000000000000000000000159949a377e81042d23791c0",
                        "key": "0x1114b8815e6806a195bdd5d9508fcd104854e10f04bb83184e8384a9cc7af478",
                        "prev": "0x00000000000000000000000000000000000000001599b38485cf76b9a2b791c0"
                    },
                    {
                        "current": "0x0000000000000000000000000000000000000000000069e10de76676d0800000",
                        "key": "0xe56951287a0f0fd944824529389eb5d6281606ade45de0352752122e91e0de06",
                        "prev": "0x0000000000000000000000000000000000000000000000000000000000000000"
                    }
                ],
                "storageVariables": [
                    {
                        "name": "balances",
                        "type": "mapping(address => uint256)",
                        "value": {
                            "pairs": [
                                {
                                    "key": "0x15611e0b8091f45d973a2a9b2b602b2ac1dd1be8",
                                    "value": {
                                        "current": "500000000000000000000000",
                                        "prev": "0",
                                        "typeTag": 1
                                    }
                                },
                                {
                                    "key": "0x169ca6801ec33668ae24bdab264f9b0109eb7347",
                                    "value": {
                                        "current": "6684498604861991969999000000",
                                        "prev": "6684998604861991969999000000",
                                        "typeTag": 1
                                    }
                                }
                            ],
                            "typeTag": 4
                        }
                    }
                ]
            }
        ]
    }
}