{
    "balance_change": {
        "balanceChanges": []
    },
    "profile": {
        "basic_info": {
            "baseFee": "36.84892288",
            "blockNumber": 17312033,
            "callData": "0xac9650d800000000000000000000000000000000000000000000000000000000000000200000000000000000000000000000000000000000000000000000000000000001000000000000000000000000000000000000000000000000000000000000002000000000000000000000000000000000000000000000000000000000000000e410f13a8c67c0d6f35da24fab6fb6a876e469f4f4edbfa195f852c9889e010cc04ab6ad22000000000000000000000000000000000000000000000000000000000000006000000000000000000000000000000000000000000000000000000000000000a000000000000000000000000000000000000000000000000000000000000000066176617461720000000000000000000000000000000000000000000000000000000000000000000000000000000000000000000000000000000000000000002068747470733a2f2f6575632e6c692f6c696c73636172696e67746f6e2e65746800000000000000000000000000000000000000000000000000000000",
            "debugEnable": true,
            "errorInfo": "",
            "eventCount": 1,
            "feeRecipient": "0x6d2e03b7effeae98bd302a9f836d0d6ab0002766",
            "formatValue": "0",
            "gasLimit": 83574,
            "gasPrice": "36.94892288",
            "gasUsed": 83437,
            "intTxnCount": 2,
            "internalRevert": false,
            "internalRevertMessage": "",
            "isContractCreation": false,
            "isFlashloan": false,
            "maxFee": "45.542788323",
            "nonce": 622,
            "overwritedBlockNumber": -1,
            "priorityFee": "0.1",
            "receiver": "0x231b0ee14048e9dccd1d247744d114a4eb5e8e63",
            "revertMessage": "",
            "sender": "0xb2b931e0907f2e84cde67f8ffed0c1f39928e691",
            "simulationEnable": true,
            "sourceTxnHash": "0x0605f780490da8dd0b6e4e36dee56bad5d06375839a6784f41654d73f25eda85",
            "status": true,
            "timestamp": "2023-05-22T03:00:47Z",
            "transactionFee": "0.00308290727833856",
            "txnHash": "0x0605f780490da8dd0b6e4e36dee56bad5d06375839a6784f41654d73f25eda85",
            "txnIndex": 90,
            "type": 2,
            "value": "0"
        },
        "fund_flow": [],
        "token_infos": [
            {
                "address": "0xc02aaa39b223fe8d0a0e5c4f27ead9083c756cc2",
                "decimals": 18
            },
            {
                "address": "0xeeeeeeeeeeeeeeeeeeeeeeeeeeeeeeeeeeeeeeee",
                "decimals": 18
            }
        ]
    },
    "address_label": {
        "labels": [
            {
                "address": "0xeeeeeeeeeeeeeeeeeeeeeeeeeeeeeeeeeeeeeeee",
                "label": "Ether"
            },
            {
                "address": "0x231b0ee14048e9dccd1d247744d114a4eb5e8e63",
                "label": "ENS: Public Resolver"
            },
            {
                "address": "0x00000000000c2e074ec69a0dfb2997ba6c7d2e1e",
                "label": "ENS: Registry with Fallback"
            },
            {
                "address": "0x0000000000000000000000000000000000000001",
                "label": "Precompiled"
            },
            {
                "address": "0x0000000000000000000000000000000000000002",
                "label": "Precompiled"
            },
            {
                "address": "0x0000000000000000000000000000000000000003",
                "label": "Precompiled"
            },
            {
                "address": "0x0000000000000000000000000000000000000004",
                "label": "Precompiled"
            }
        ]
    },
    "trace": {
        "accountLabels": null,
        "dataMap": {
            "-1": {
                "invocation": {
                    "address": "0xb2b931e0907f2e84cde67f8ffed0c1f39928e691",
                    "callData": "",
                    "decodedMethod": null,
                    "errorInfo": "",
                    "fromAddress": "",
                    "gasUsed": 0,
                    "id": -1,
                    "methodDecoded": false,
                    "operation": "",
                    "output": "",
                    "revert": false,
                    "revertMessage": "",
                    "selector": "",
                    "status": false,
                    "value": ""
                },
                "nodeType": 0
            },
            "0": {
                "invocation": {
                    "address": "0x231b0ee14048e9dccd1d247744d114a4eb5e8e63",
                    "callData": "0x00000000000000000000000000000000000000000000000000000000000000200000000000000000000000000000000000000000000000000000000000000001000000000000000000000000000000000000000000000000000000000000002000000000000000000000000000000000000000000000000000000000000000e410f13a8c67c0d6f35da24fab6fb6a876e469f4f4edbfa195f852c9889e010cc04ab6ad22000000000000000000000000000000000000000000000000000000000000006000000000000000000000000000000000000000000000000000000000000000a000000000000000000000000000000000000000000000000000000000000000066176617461720000000000000000000000000000000000000000000000000000000000000000000000000000000000000000000000000000000000000000002068747470733a2f2f6575632e6c692f6c696c73636172696e67746f6e2e65746800000000000000000000000000000000000000000000000000000000",
                    "decodedMethod": {
                        "callParams": [
                            {
                                "name": "data",
                                "type": "bytes[]",
                                "value": [
                                    "0x10f13a8c67c0d6f35da24fab6fb6a876e469f4f4edbfa195f852c9889e010cc04ab6ad22000000000000000000000000000000000000000000000000000000000000006000000000000000000000000000000000000000000000000000000000000000a000000000000000000000000000000000000000000000000000000000000000066176617461720000000000000000000000000000000000000000000000000000000000000000000000000000000000000000000000000000000000000000002068747470733a2f2f6575632e6c692f6c696c73636172696e67746f6e2e657468"
                                ]
                            }
                        ],
                        "constructorArguments": "",
                        "name": "multicall",
                        "returnParams": [
                            {
                                "name": "results",
                                "type": "bytes[]",
                                "value": [
                                    "0x"
                                ]
                            }
                        ],
                        "signature": "multicall(bytes[])"
                    },
                    "errorInfo": "",
                    "fromAddress": "0xb2b931e0907f2e84cde67f8ffed0c1f39928e691",
                    "gasUsed": 83437,
                    "id": 0,
                    "methodDecoded": true,
                    "operation": "CALL",
                    "output": "0x0000000000000000000000000000000000000000000000000000000000000020000000000000000000000000000000000000000000000000000000000000000100000000000000000000000000000000000000000000000000000000000000200000000000000000000000000000000000000000000000000000000000000000",
                    "revert": false,
                    "revertMessage": "",
                    "selector": "0xac9650d8",
                    "status": true,
                    "value": "0"
                },
                "nodeType": 0
            },
            "1": {
                "invocation": {
                    "address": "0x231b0ee14048e9dccd1d247744d114a4eb5e8e63",
                    "callData": "0x67c0d6f35da24fab6fb6a876e469f4f4edbfa195f852c9889e010cc04ab6ad22000000000000000000000000000000000000000000000000000000000000006000000000000000000000000000000000000000000000000000000000000000a000000000000000000000000000000000000000000000000000000000000000066176617461720000000000000000000000000000000000000000000000000000000000000000000000000000000000000000000000000000000000000000002068747470733a2f2f6575632e6c692f6c696c73636172696e67746f6e2e657468",
                    "decodedMethod": {
                        "callParams": [
                            {
                                "name": "node",
                                "type": "bytes32",
                                "value": "0x67c0d6f35da24fab6fb6a876e469f4f4edbfa195f852c9889e010cc04ab6ad22"
                            },
                            {
                                "name": "key",
                                "type": "string",
                                "value": "avatar"
                            },
                            {
                                "name": "value",
                                "type": "string",
                                "value": "https://euc.li/lilscarington.eth"
                            }
                        ],
                        "constructorArguments": "",
                        "name": "setText",
                        "returnParams": [],
                        "signature": "setText(bytes32,string,string)"
                    },
                    "errorInfo": "",
                    "fromAddress": "0x231b0ee14048e9dccd1d247744d114a4eb5e8e63",
                    "gasUsed": 57801,
                    "id": 1,
                    "methodDecoded": true,
                    "operation": "DELEGATECALL",
                    "output": "",
                    "revert": false,
                    "revertMessage": "",
                    "selector": "0x10f13a8c",
                    "status": true,
                    "value": "0"
                },
                "nodeType": 0
            },
            "2": {
                "invocation": {
                    "address": "0x00000000000c2e074ec69a0dfb2997ba6c7d2e1e",
                    "callData": "0x67c0d6f35da24fab6fb6a876e469f4f4edbfa195f852c9889e010cc04ab6ad22",
                    "decodedMethod": {
                        "callParams": [
                            {
                                "name": "node",
                                "type": "bytes32",
                                "value": "0x67c0d6f35da24fab6fb6a876e469f4f4edbfa195f852c9889e010cc04ab6ad22"
                            }
                        ],
                        "constructorArguments": "",
                        "name": "owner",
                        "returnParams": [
                            {
                                "name": "",
                                "type": "address",
                                "value": "0xb2b931e0907f2e84cde67f8ffed0c1f39928e691"
                            }
                        ],
                        "signature": "owner(bytes32)"
                    },
                    "errorInfo": "",
                    "fromAddress": "0x231b0ee14048e9dccd1d247744d114a4eb5e8e63",
                    "gasUsed": 2951,
                    "id": 2,
                    "methodDecoded": true,
                    "operation": "STATICCALL",
                    "output": "0x000000000000000000000000b2b931e0907f2e84cde67f8ffed0c1f39928e691",
                    "revert": false,
                    "revertMessage": "",
                    "selector": "0x02571be3",
                    "status": true,
                    "value": "0"
                },
                "nodeType": 0
            },
            "3": {
                "event": {
                    "contract": "0x231b0ee14048e9dccd1d247744d114a4eb5e8e63",
                    "decodedLog": {
                        "name": "TextChanged",
                        "params": [
                            {
                                "name": "node",
                                "type": "bytes32",
                                "value": "0x67c0d6f35da24fab6fb6a876e469f4f4edbfa195f852c9889e010cc04ab6ad22"
                            },
                            {
                                "name": "indexedKey",
                                "type": "string",
                                "value": "0xd1f86c93d831119ad98fe983e643a7431e4ac992e3ead6e3007f4dd1adf66343"
                            },
                            {
                                "name": "key",
                                "type": "string",
                                "value": "avatar"
                            },
                            {
                                "name": "value",
                                "type": "string",
                                "value": "https://euc.li/lilscarington.eth"
                            }
                        ],
                        "signature": "TextChanged(bytes32,string,string,string)"
                    },
                    "id": 3,
                    "logData": "0x0000000000000000000000000000000000000000000000000000000000000040000000000000000000000000000000000000000000000000000000000000008000000000000000000000000000000000000000000000000000000000000000066176617461720000000000000000000000000000000000000000000000000000000000000000000000000000000000000000000000000000000000000000002068747470733a2f2f6575632e6c692f6c696c73636172696e67746f6e2e657468",
                    "logDecoded": true,
                    "operation": "EVENT",
                    "revert": false,
                    "status": true,
                    "topics": [
                        "0x448bc014f1536726cf8d54ff3d6481ed3cbc683c2591ca204274009afa09b1a1",
                        "0x67c0d6f35da24fab6fb6a876e469f4f4edbfa195f852c9889e010cc04ab6ad22",
                        "0xd1f86c93d831119ad98fe983e643a7431e4ac992e3ead6e3007f4dd1adf66343"
                    ]
                },
                "nodeType": 1
            }
        },
        "gasFlame": [
            {
                "children": [
                    {
                        "children": [
                            {
                                "children": [],
                                "depth": 0,
                                "name": "Initial Gas",
                                "value": 23584
                            },
                            {
                                "children": [
                                    {
                                        "children": [
                                            {
                                                "children": [],
                                                "depth": 2,
                                                "name": "owner",
                                                "value": 2951
                                            }
                                        ],
                                        "depth": 1,
                                        "name": "setText",
                                        "value": 57801
                                    }
                                ],
                                "depth": 0,
                                "name": "Executed Gas",
                                "value": 59853
                            }
                        ],
                        "depth": -1,
                        "name": "Actual Gas Used",
                        "value": 83437
                    },
                    {
                        "children": [],
                        "depth": -1,
                        "name": "Refunded Gas",
                        "value": 0
                    }
                ],
                "depth": -2,
                "name": "Total Gas",
                "value": 83437
            }
        ],
        "isConfirmed": true,
        "mainTrace": [
            {
                "children": [
                    {
                        "children": [
                            {
                                "children": [
                                    {
                                        "children": [],
                                        "depth": 2,
                                        "id": 2,
                                        "order": 2
                                    },
                                    {
                                        "children": [],
                                        "depth": 2,
                                        "id": 3,
                                        "order": 3
                                    }
                                ],
                                "depth": 1,
                                "id": 1,
                                "order": 1
                            }
                        ],
                        "depth": 0,
                        "id": 0,
                        "order": 0
                    }
                ],
                "depth": -1,
                "id": -1,
                "order": -1
            }
        ],
        "mainTraceNodeCount": 4,
        "parentIdMap": {
            "0": -1,
            "1": 0,
            "2": 1,
            "3": 1
        },
        "tidyTrace": [
            {
                "children": [
                    {
                        "children": [
                            {
                                "children": [
                                    {
                                        "children": [],
                                        "depth": 2,
                                        "id": 3,
                                        "order": 3
                                    }
                                ],
                                "depth": 1,
                                "id": 1,
                                "order": 1
                            }
                        ],
                        "depth": 0,
                        "id": 0,
                        "order": 0
                    }
                ],
                "depth": -1,
                "id": -1,
                "order": -1
            }
        ],
        "tidyTraceNodeCount": 3
    },
    "state_change": {
        "stateChanges": [
            {
                "address": "0x231b0ee14048e9dccd1d247744d114a4eb5e8e63",
                "erc": "",
                "slots": [
                    {
                        "current": "0x68747470733a2f2f6575632e6c692f6c696c73636172696e67746f6e2e657468",
                        "key": "0x226f1c60e43aa9bc3f1518a2cc6f6a5b6ac4843525b1fd9c7a0823301a0093df",
                        "prev": "0x0000000000000000000000000000000000000000000000000000000000000000"
                    },
                    {
                        "current": "0x0000000000000000000000000000000000000000000000000000000000000041",
                        "key": "0xb5a378a9338e477962155c94c365f8064eab07406c28a4231583b26079c8acc6",
                        "prev": "0x0000000000000000000000000000000000000000000000000000000000000000"
                    }
                ],
                "storageVariables": [
                    {
                        "name": "versionable_texts",
                        "type": "mapping(uint64 => mapping(bytes32 => mapping(string => string)))",
                        "value": {
                            "pairs": [
                                {
                                    "key": "0",
                                    "value": {
                                        "pairs": [
                                            {
                                                "key": "0x67c0d6f35da24fab6fb6a876e469f4f4edbfa195f852c9889e010cc04ab6ad22",
                                                "value": {
                                                    "pairs": [
                                                        {
                                                            "key": "avatar",
                                                            "value": {
                                                                "current": "https://euc.li/lilscarington.eth",
                                                                "prev": "",
                                                                "typeTag": 1
                                                            }
                                                        }
                                                    ],
                                                    "typeTag": 4
                                                }
                                            }
                                        ],
                                        "typeTag": 4
                                    }
                                }
                            ],
                            "typeTag": 4
                        }
                    }
                ]
            }
        ]
    }
}