{
    "balance_change": {
        "balanceChanges": []
    },
    "profile": {
        "basic_info": {
            "baseFee": "",
            "blockNumber": 5104605,
            "callData": "0x278b8c0e0000000000000000000000000000000000000000000000000000000000000000000000000000000000000000000000000000000000000000116806d31bfb40000000000000000000000000005c6183d10a00cd747a6dbb5f658ad514383e941900000000000000000000000000000000000000000000000000001c31bffcf000000000000000000000000000000000000000000000000000000009184ebfcb2c000000000000000000000000000000000000000000000000000000002bfa81df000000000000000000000000000000000000000000000000000000000000001c173a8cf2ba50aad50e5e4566af5976a816295718e2547e27a2880a21f97b4cbf7ff5b7b23930467570bfb2860e6edc9200fab4d7392370b05fa2e45b2861d15f",
            "debugEnable": true,
            "errorInfo": "",
            "eventCount": 1,
            "feeRecipient": "0xea674fdde714fd979de3edf0f56aa9716b898ec8",
            "formatValue": "0",
            "gasLimit": 250000,
            "gasPrice": "4",
            "gasUsed": 44290,
            "intTxnCount": 2,
            "internalRevert": false,
            "internalRevertMessage": "",
            "isContractCreation": false,
            "isFlashloan": false,
            "maxFee": "",
            "nonce": 1372,
            "overwritedBlockNumber": -1,
            "priorityFee": "",
            "receiver": "0x8d12a197cb00d4747a1fe03395095ce2a5cc6819",
            "revertMessage": "",
            "sender": "0x78b0e4933f5b7d90102367e28efcde256998411e",
            "simulationEnable": true,
            "sourceTxnHash": "0x060572c74db3197b0456d1f592cc364a2e2860c086237e22ebdc7aecb82a5c2c",
            "status": true,
            "timestamp": "2018-02-17T04:28:02Z",
            "transactionFee": "0.00017716",
            "txnHash": "0x060572c74db3197b0456d1f592cc364a2e2860c086237e22ebdc7aecb82a5c2c",
            "txnIndex": 36,
            "type": 0,
            "value": "0"
        },
        "fund_flow": [],
        "token_infos": [
            {
                "address": "0xc02aaa39b223fe8d0a0e5c4f27ead9083c756cc2",
                "decimals": 18
            },
            {
                "address": "0xeeeeeeeeeeeeeeeeeeeeeeeeeeeeeeeeeeeeeeee",
                "decimals": 18
            }
        ]
    },
    "address_label": {
        "labels": [
            {
                "address": "0x0000000000000000000000000000000000000000",
                "label": "Null Address"
            },
            {
                "address": "0x0000000000000000000000000000000000000001",
                "label": "Precompiled"
            },
            {
                "address": "0x0000000000000000000000000000000000000003",
                "label": "Precompiled"
            },
            {
                "address": "0x0000000000000000000000000000000000000004",
                "label": "Precompiled"
            },
            {
                "address": "0xeeeeeeeeeeeeeeeeeeeeeeeeeeeeeeeeeeeeeeee",
                "label": "Ether"
            },
            {
                "address": "0x8d12a197cb00d4747a1fe03395095ce2a5cc6819",
                "label": "EtherDelta"
            },
            {
                "address": "0x5c6183d10a00cd747a6dbb5f658ad514383e9419",
                "label": "Nexxus Coin: Old Token"
            },
            {
                "address": "0x0000000000000000000000000000000000000002",
                "label": "Precompiled"
            }
        ]
    },
    "trace": {
        "accountLabels": null,
        "dataMap": {
            "-1": {
                "invocation": {
                    "address": "0x78b0e4933f5b7d90102367e28efcde256998411e",
                    "callData": "",
                    "decodedMethod": null,
                    "errorInfo": "",
                    "fromAddress": "",
                    "gasUsed": 0,
                    "id": -1,
                    "methodDecoded": false,
                    "operation": "",
                    "output": "",
                    "revert": false,
                    "revertMessage": "",
                    "selector": "",
                    "status": false,
                    "value": ""
                },
                "nodeType": 0
            },
            "0": {
                "invocation": {
                    "address": "0x8d12a197cb00d4747a1fe03395095ce2a5cc6819",
                    "callData": "0x0000000000000000000000000000000000000000000000000000000000000000000000000000000000000000000000000000000000000000116806d31bfb40000000000000000000000000005c6183d10a00cd747a6dbb5f658ad514383e941900000000000000000000000000000000000000000000000000001c31bffcf000000000000000000000000000000000000000000000000000000009184ebfcb2c000000000000000000000000000000000000000000000000000000002bfa81df000000000000000000000000000000000000000000000000000000000000001c173a8cf2ba50aad50e5e4566af5976a816295718e2547e27a2880a21f97b4cbf7ff5b7b23930467570bfb2860e6edc9200fab4d7392370b05fa2e45b2861d15f",
                    "decodedMethod": {
                        "callParams": [
                            {
                                "name": "tokenGet",
                                "type": "address",
                                "value": "0x0000000000000000000000000000000000000000"
                            },
                            {
                                "name": "amountGet",
                                "type": "uint256",
                                "value": "1,254,260,000,000,000,000"
                            },
                            {
                                "name": "tokenGive",
                                "type": "address",
                                "value": "0x5c6183d10a00cd747a6dbb5f658ad514383e9419"
                            },
                            {
                                "name": "amountGive",
                                "type": "uint256",
                                "value": "31,000,000,000,000"
                            },
                            {
                                "name": "expires",
                                "type": "uint256",
                                "value": "10,000,005,057,324"
                            },
                            {
                                "name": "nonce",
                                "type": "uint256",
                                "value": "737,837,535"
                            },
                            {
                                "name": "v",
                                "type": "uint8",
                                "value": "28"
                            },
                            {
                                "name": "r",
                                "type": "bytes32",
                                "value": "0x173a8cf2ba50aad50e5e4566af5976a816295718e2547e27a2880a21f97b4cbf"
                            },
                            {
                                "name": "s",
                                "type": "bytes32",
                                "value": "0x7ff5b7b23930467570bfb2860e6edc9200fab4d7392370b05fa2e45b2861d15f"
                            }
                        ],
                        "constructorArguments": "",
                        "name": "cancelOrder",
                        "returnParams": [],
                        "signature": "cancelOrder(address,uint256,address,uint256,uint256,uint256,uint8,bytes32,bytes32)"
                    },
                    "errorInfo": "",
                    "fromAddress": "0x78b0e4933f5b7d90102367e28efcde256998411e",
                    "gasUsed": 44290,
                    "id": 0,
                    "methodDecoded": true,
                    "operation": "CALL",
                    "output": "",
                    "revert": false,
                    "revertMessage": "",
                    "selector": "0x278b8c0e",
                    "status": true,
                    "value": "0"
                },
                "nodeType": 0
            },
            "1": {
                "invocation": {
                    "address": "0x0000000000000000000000000000000000000002",
                    "callData": "0xcb00d4747a1fe03395095ce2a5cc68190000000000000000000000000000000000000000000000000000000000000000000000000000000000000000116806d31bfb40005c6183d10a00cd747a6dbb5f658ad514383e941900000000000000000000000000000000000000000000000000001c31bffcf000000000000000000000000000000000000000000000000000000009184ebfcb2c000000000000000000000000000000000000000000000000000000002bfa81df",
                    "decodedMethod": {
                        "callParams": [
                            {
                                "name": "data",
                                "type": "bytes",
                                "value": "0x8d12a197cb00d4747a1fe03395095ce2a5cc68190000000000000000000000000000000000000000000000000000000000000000000000000000000000000000116806d31bfb40005c6183d10a00cd747a6dbb5f658ad514383e941900000000000000000000000000000000000000000000000000001c31bffcf000000000000000000000000000000000000000000000000000000009184ebfcb2c000000000000000000000000000000000000000000000000000000002bfa81df"
                            }
                        ],
                        "constructorArguments": "",
                        "name": "sha256hash",
                        "returnParams": [
                            {
                                "name": "hash",
                                "type": "bytes32",
                                "value": "0x1000e6e01b9228d032fb5e2d20c6d4f29416461be610fe1eaa0672dd6b751012"
                            }
                        ],
                        "signature": "sha256hash(bytes)"
                    },
                    "errorInfo": "",
                    "fromAddress": "0x8d12a197cb00d4747a1fe03395095ce2a5cc6819",
                    "gasUsed": 132,
                    "id": 1,
                    "methodDecoded": true,
                    "operation": "CALL",
                    "output": "0x1000e6e01b9228d032fb5e2d20c6d4f29416461be610fe1eaa0672dd6b751012",
                    "revert": false,
                    "revertMessage": "",
                    "selector": "0x8d12a197",
                    "status": true,
                    "value": "0"
                },
                "nodeType": 0
            },
            "2": {
                "invocation": {
                    "address": "0x0000000000000000000000000000000000000001",
                    "callData": "0x33076d5f743a68fff82615170551a31cc1f1ba29ff5a2153c437576c000000000000000000000000000000000000000000000000000000000000001c173a8cf2ba50aad50e5e4566af5976a816295718e2547e27a2880a21f97b4cbf7ff5b7b23930467570bfb2860e6edc9200fab4d7392370b05fa2e45b2861d15f",
                    "decodedMethod": {
                        "callParams": [
                            {
                                "name": "hash",
                                "type": "bytes32",
                                "value": "0x6f7028a433076d5f743a68fff82615170551a31cc1f1ba29ff5a2153c437576c"
                            },
                            {
                                "name": "v",
                                "type": "uint256",
                                "value": "28"
                            },
                            {
                                "name": "r",
                                "type": "bytes32",
                                "value": "0x173a8cf2ba50aad50e5e4566af5976a816295718e2547e27a2880a21f97b4cbf"
                            },
                            {
                                "name": "s",
                                "type": "bytes32",
                                "value": "0x7ff5b7b23930467570bfb2860e6edc9200fab4d7392370b05fa2e45b2861d15f"
                            }
                        ],
                        "constructorArguments": "",
                        "name": "ecrecover",
                        "returnParams": [
                            {
                                "name": "",
                                "type": "address",
                                "value": "0x78b0e4933f5b7d90102367e28efcde256998411e"
                            }
                        ],
                        "signature": "ecrecover(bytes32,uint256,bytes32,bytes32)"
                    },
                    "errorInfo": "",
                    "fromAddress": "0x8d12a197cb00d4747a1fe03395095ce2a5cc6819",
                    "gasUsed": 3000,
                    "id": 2,
                    "methodDecoded": true,
                    "operation": "CALL",
                    "output": "0x00000000000000000000000078b0e4933f5b7d90102367e28efcde256998411e",
                    "revert": false,
                    "revertMessage": "",
                    "selector": "0x6f7028a4",
                    "status": true,
                    "value": "0"
                },
                "nodeType": 0
            },
            "3": {
                "event": {
                    "contract": "0x8d12a197cb00d4747a1fe03395095ce2a5cc6819",
                    "decodedLog": {
                        "name": "Cancel",
                        "params": [
                            {
                                "name": "tokenGet",
                                "type": "address",
                                "value": "0x0000000000000000000000000000000000000000"
                            },
                            {
                                "name": "amountGet",
                                "type": "uint256",
                                "value": "1,254,260,000,000,000,000"
                            },
                            {
                                "name": "tokenGive",
                                "type": "address",
                                "value": "0x5c6183d10a00cd747a6dbb5f658ad514383e9419"
                            },
                            {
                                "name": "amountGive",
                                "type": "uint256",
                                "value": "31,000,000,000,000"
                            },
                            {
                                "name": "expires",
                                "type": "uint256",
                                "value": "10,000,005,057,324"
                            },
                            {
                                "name": "nonce",
                                "type": "uint256",
                                "value": "737,837,535"
                            },
                            {
                                "name": "user",
                                "type": "address",
                                "value": "0x78b0e4933f5b7d90102367e28efcde256998411e"
                            },
                            {
                                "name": "v",
                                "type": "uint8",
                                "value": "28"
                            },
                            {
                                "name": "r",
                                "type": "bytes32",
                                "value": "0x173a8cf2ba50aad50e5e4566af5976a816295718e2547e27a2880a21f97b4cbf"
                            },
                            {
                                "name": "s",
                                "type": "bytes32",
                                "value": "0x7ff5b7b23930467570bfb2860e6edc9200fab4d7392370b05fa2e45b2861d15f"
                            }
                        ],
                        "signature": "Cancel(address,uint256,address,uint256,uint256,uint256,address,uint8,bytes32,bytes32)"
                    },
                    "id": 3,
                    "logData": "0x0000000000000000000000000000000000000000000000000000000000000000000000000000000000000000000000000000000000000000116806d31bfb40000000000000000000000000005c6183d10a00cd747a6dbb5f658ad514383e941900000000000000000000000000000000000000000000000000001c31bffcf000000000000000000000000000000000000000000000000000000009184ebfcb2c000000000000000000000000000000000000000000000000000000002bfa81df00000000000000000000000078b0e4933f5b7d90102367e28efcde256998411e000000000000000000000000000000000000000000000000000000000000001c173a8cf2ba50aad50e5e4566af5976a816295718e2547e27a2880a21f97b4cbf7ff5b7b23930467570bfb2860e6edc9200fab4d7392370b05fa2e45b2861d15f",
                    "logDecoded": true,
                    "operation": "EVENT",
                    "revert": false,
                    "status": true,
                    "topics": [
                        "0x1e0b760c386003e9cb9bcf4fcf3997886042859d9b6ed6320e804597fcdb28b0"
                    ]
                },
                "nodeType": 1
            }
        },
        "gasFlame": [
            {
                "children": [
                    {
                        "children": [
                            {
                                "children": [],
                                "depth": 0,
                                "name": "Initial Gas",
                                "value": 29144
                            },
                            {
                                "children": [
                                    {
                                        "children": [],
                                        "depth": 1,
                                        "name": "sha256hash",
                                        "value": 132
                                    },
                                    {
                                        "children": [],
                                        "depth": 1,
                                        "name": "ecrecover",
                                        "value": 3000
                                    }
                                ],
                                "depth": 0,
                                "name": "Executed Gas",
                                "value": 15146
                            }
                        ],
                        "depth": -1,
                        "name": "Actual Gas Used",
                        "value": 44290
                    },
                    {
                        "children": [],
                        "depth": -1,
                        "name": "Refunded Gas",
                        "value": 0
                    }
                ],
                "depth": -2,
                "name": "Total Gas",
                "value": 44290
            }
        ],
        "isConfirmed": true,
        "mainTrace": [
            {
                "children": [
                    {
                        "children": [
                            {
                                "children": [],
                                "depth": 1,
                                "id": 1,
                                "order": 1
                            },
                            {
                                "children": [],
                                "depth": 1,
                                "id": 2,
                                "order": 2
                            },
                            {
                                "children": [],
                                "depth": 1,
                                "id": 3,
                                "order": 3
                            }
                        ],
                        "depth": 0,
                        "id": 0,
                        "order": 0
                    }
                ],
                "depth": -1,
                "id": -1,
                "order": -1
            }
        ],
        "mainTraceNodeCount": 4,
        "parentIdMap": {
            "0": -1,
            "1": 0,
            "2": 0,
            "3": 0
        },
        "tidyTrace": [
            {
                "children": [
                    {
                        "children": [
                            {
                                "children": [],
                                "depth": 1,
                                "id": 1,
                                "order": 1
                            },
                            {
                                "children": [],
                                "depth": 1,
                                "id": 2,
                                "order": 2
                            },
                            {
                                "children": [],
                                "depth": 1,
                                "id": 3,
                                "order": 3
                            }
                        ],
                        "depth": 0,
                        "id": 0,
                        "order": 0
                    }
                ],
                "depth": -1,
                "id": -1,
                "order": -1
            }
        ],
        "tidyTraceNodeCount": 4
    },
    "state_change": {
        "stateChanges": []
    }
}