{
    "balance_change": {
        "balanceChanges": []
    },
    "profile": {
        "basic_info": {
            "baseFee": "",
            "blockNumber": 6153558,
            "callData": "0x454a2ab300000000000000000000000000000000000000000000000000000000000001dc",
            "debugEnable": true,
            "errorInfo": "execution reverted",
            "eventCount": 0,
            "feeRecipient": "0xede16675c4aea9b5b92ce1a3750992880d83bb12",
            "formatValue": "0.030031824631297897",
            "gasLimit": 379735,
            "gasPrice": "10",
            "gasUsed": 32592,
            "intTxnCount": 0,
            "internalRevert": false,
            "internalRevertMessage": "",
            "isContractCreation": false,
            "isFlashloan": false,
            "maxFee": "",
            "nonce": 124,
            "overwritedBlockNumber": -1,
            "priorityFee": "",
            "receiver": "0xc19b4b5f76d8148bcc78329bd37a0ea2513440bc",
            "revertMessage": "",
            "sender": "0x2407f7252908ddadffb05bf03e3ac103fe633c93",
            "simulationEnable": true,
            "sourceTxnHash": "0x069446137e19ba22f4904cea0e394d9c4ae4adc787d51b8b701c46ace2f0850b",
            "status": false,
            "timestamp": "2018-08-15T19:15:22Z",
            "transactionFee": "0.00032592",
            "txnHash": "0x069446137e19ba22f4904cea0e394d9c4ae4adc787d51b8b701c46ace2f0850b",
            "txnIndex": 40,
            "type": 0,
            "value": "30031824631297897"
        },
        "fund_flow": [],
        "token_infos": [
            {
                "address": "0xc02aaa39b223fe8d0a0e5c4f27ead9083c756cc2",
                "decimals": 18
            },
            {
                "address": "0xeeeeeeeeeeeeeeeeeeeeeeeeeeeeeeeeeeeeeeee",
                "decimals": 18
            }
        ]
    },
    "address_label": {
        "labels": [
            {
                "address": "0x0000000000000000000000000000000000000002",
                "label": "Precompiled"
            },
            {
                "address": "0x0000000000000000000000000000000000000003",
                "label": "Precompiled"
            },
            {
                "address": "0x0000000000000000000000000000000000000004",
                "label": "Precompiled"
            },
            {
                "address": "0xeeeeeeeeeeeeeeeeeeeeeeeeeeeeeeeeeeeeeeee",
                "label": "Ether"
            },
            {
                "address": "0xc19b4b5f76d8148bcc78329bd37a0ea2513440bc",
                "label": "SaleManager"
            },
            {
                "address": "0x0000000000000000000000000000000000000001",
                "label": "Precompiled"
            }
        ]
    },
    "trace": {
        "accountLabels": null,
        "dataMap": {
            "-1": {
                "invocation": {
                    "address": "0x2407f7252908ddadffb05bf03e3ac103fe633c93",
                    "callData": "",
                    "decodedMethod": null,
                    "errorInfo": "",
                    "fromAddress": "",
                    "gasUsed": 0,
                    "id": -1,
                    "methodDecoded": false,
                    "operation": "",
                    "output": "",
                    "revert": false,
                    "revertMessage": "",
                    "selector": "",
                    "status": false,
                    "value": ""
                },
                "nodeType": 0
            },
            "0": {
                "invocation": {
                    "address": "0xc19b4b5f76d8148bcc78329bd37a0ea2513440bc",
                    "callData": "0x00000000000000000000000000000000000000000000000000000000000001dc",
                    "decodedMethod": {
                        "callParams": [
                            {
                                "name": "_tokenId",
                                "type": "uint256",
                                "value": "476"
                            }
                        ],
                        "constructorArguments": "",
                        "name": "bid",
                        "returnParams": [],
                        "signature": "bid(uint256)"
                    },
                    "errorInfo": "execution reverted",
                    "fromAddress": "0x2407f7252908ddadffb05bf03e3ac103fe633c93",
                    "gasUsed": 32592,
                    "id": 0,
                    "methodDecoded": true,
                    "operation": "CALL",
                    "output": "",
                    "revert": true,
                    "revertMessage": "",
                    "selector": "0x454a2ab3",
                    "status": false,
                    "value": "0.030031824631297897"
                },
                "nodeType": 0
            }
        },
        "gasFlame": [
            {
                "children": [
                    {
                        "children": [
                            {
                                "children": [],
                                "depth": 0,
                                "name": "Initial Gas",
                                "value": 21528
                            },
                            {
                                "children": [],
                                "depth": 0,
                                "name": "Executed Gas",
                                "value": 11064
                            }
                        ],
                        "depth": -1,
                        "name": "Actual Gas Used",
                        "value": 32592
                    },
                    {
                        "children": [],
                        "depth": -1,
                        "name": "Refunded Gas",
                        "value": 0
                    }
                ],
                "depth": -2,
                "name": "Total Gas",
                "value": 32592
            }
        ],
        "isConfirmed": true,
        "mainTrace": [
            {
                "children": [
                    {
                        "children": [],
                        "depth": 0,
                        "id": 0,
                        "order": 0
                    }
                ],
                "depth": -1,
                "id": -1,
                "order": -1
            }
        ],
        "mainTraceNodeCount": 1,
        "parentIdMap": {
            "0": -1
        },
        "tidyTrace": [
            {
                "children": [
                    {
                        "children": [],
                        "depth": 0,
                        "id": 0,
                        "order": 0
                    }
                ],
                "depth": -1,
                "id": -1,
                "order": -1
            }
        ],
        "tidyTraceNodeCount": 1
    },
    "state_change": {
        "stateChanges": []
    }
}