{
    "balance_change": {
        "balanceChanges": [
            {
                "account": "0x59885412fcef83000fe2d1939775d4bc274229a3",
                "assets": [
                    {
                        "address": "0xa0b86991c6218b36c1d19d4a2e9eb0ce3606eb48",
                        "amount": "348.976583",
                        "iconUrl": "https://assets.blocksec.com/icon/0347a86cc07dbd03fdc5db01a4e5ac7e1217f90e0b6e4bb0f75cbcca09160989.png",
                        "isERC1155": false,
                        "isERC721": false,
                        "sign": true,
                        "value": "348.9067876834000077"
                    }
                ]
            },
            {
                "account": "0xa1d5443f2fb80a5a55ac804c948b45ce4c52dcbb",
                "assets": [
                    {
                        "address": "0xa0b86991c6218b36c1d19d4a2e9eb0ce3606eb48",
                        "amount": "348.976583",
                        "iconUrl": "https://assets.blocksec.com/icon/0347a86cc07dbd03fdc5db01a4e5ac7e1217f90e0b6e4bb0f75cbcca09160989.png",
                        "isERC1155": false,
                        "isERC721": false,
                        "sign": false,
                        "value": "348.9067876834000077"
                    }
                ]
            }
        ]
    },
    "profile": {
        "basic_info": {
            "baseFee": "50.291867969",
            "blockNumber": 17793147,
            "callData": "0x441a3e7000000000000000000000000059885412fcef83000fe2d1939775d4bc274229a302893294412a4c8f915f75892b395ebbf6859ec246ec365c3b1f56f47c3a0a5d",
            "debugEnable": true,
            "errorInfo": "",
            "eventCount": 2,
            "feeRecipient": "0x1f9090aae28b8a3dceadf281b0f12828e676c326",
            "formatValue": "0",
            "gasLimit": 168579,
            "gasPrice": "50.391867969",
            "gasUsed": 105103,
            "intTxnCount": 8,
            "internalRevert": false,
            "internalRevertMessage": "",
            "isContractCreation": false,
            "isFlashloan": false,
            "maxFee": "69.512046536",
            "nonce": 58,
            "overwritedBlockNumber": -1,
            "priorityFee": "0.1",
            "receiver": "0xa1d5443f2fb80a5a55ac804c948b45ce4c52dcbb",
            "revertMessage": "",
            "sender": "0x59885412fcef83000fe2d1939775d4bc274229a3",
            "simulationEnable": true,
            "sourceTxnHash": "0x0706ec09be39d946f135049aaf1718cfb710437acea6d71b525b9e1bf7902c6e",
            "status": true,
            "timestamp": "2023-07-28T17:50:23Z",
            "transactionFee": "0.005296336499145807",
            "txnHash": "0x0706ec09be39d946f135049aaf1718cfb710437acea6d71b525b9e1bf7902c6e",
            "txnIndex": 111,
            "type": 2,
            "value": "0"
        },
        "fund_flow": [
            {
                "amount": "348.976583",
                "from": "0xa1d5443f2fb80a5a55ac804c948b45ce4c52dcbb",
                "id": 1,
                "isERC1155": false,
                "isERC721": false,
                "isReverted": false,
                "order": 1,
                "to": "0x59885412fcef83000fe2d1939775d4bc274229a3",
                "token": "0xa0b86991c6218b36c1d19d4a2e9eb0ce3606eb48"
            }
        ],
        "token_infos": [
            {
                "address": "0xa0b86991c6218b36c1d19d4a2e9eb0ce3606eb48",
                "decimals": 6
            },
            {
                "address": "0xc02aaa39b223fe8d0a0e5c4f27ead9083c756cc2",
                "decimals": 18
            },
            {
                "address": "0xeeeeeeeeeeeeeeeeeeeeeeeeeeeeeeeeeeeeeeee",
                "decimals": 18
            }
        ]
    },
    "address_label": {
        "labels": [
            {
                "address": "0xa1d5443f2fb80a5a55ac804c948b45ce4c52dcbb",
                "label": "Proxy"
            },
            {
                "address": "0xa0b86991c6218b36c1d19d4a2e9eb0ce3606eb48",
                "label": "Circle: USDC Token"
            },
            {
                "address": "0x0000000000000000000000000000000000000003",
                "label": "Precompiled"
            },
            {
                "address": "0x0000000000000000000000000000000000000004",
                "label": "Precompiled"
            },
            {
                "address": "0xeeeeeeeeeeeeeeeeeeeeeeeeeeeeeeeeeeeeeeee",
                "label": "Ether"
            },
            {
                "address": "0xdd813397b79f8df581eeb0c4b8ab72304c528396",
                "label": "StarkPerpetual"
            },
            {
                "address": "0x0000000000000000000000000000000000000001",
                "label": "Precompiled"
            },
            {
                "address": "0x0000000000000000000000000000000000000002",
                "label": "Precompiled"
            },
            {
                "address": "0xa2327a938febf5fec13bacfb16ae10ecbc4cbdcf",
                "label": "FiatTokenV2_1"
            },
            {
                "address": "0x564ea75a26dc0bb5c5033b4752f88953a25ad058",
                "label": "PerpetualTokensAndRamping"
            }
        ]
    },
    "trace": {
        "accountLabels": null,
        "dataMap": {
            "-1": {
                "invocation": {
                    "address": "0x59885412fcef83000fe2d1939775d4bc274229a3",
                    "callData": "",
                    "decodedMethod": null,
                    "errorInfo": "",
                    "fromAddress": "",
                    "gasUsed": 0,
                    "id": -1,
                    "methodDecoded": false,
                    "operation": "",
                    "output": "",
                    "revert": false,
                    "revertMessage": "",
                    "selector": "",
                    "status": false,
                    "value": ""
                },
                "nodeType": 0
            },
            "0": {
                "invocation": {
                    "address": "0xa1d5443f2fb80a5a55ac804c948b45ce4c52dcbb",
                    "callData": "0x00000000000000000000000059885412fcef83000fe2d1939775d4bc274229a302893294412a4c8f915f75892b395ebbf6859ec246ec365c3b1f56f47c3a0a5d",
                    "decodedMethod": {
                        "callParams": [
                            {
                                "name": "_pid",
                                "type": "uint256",
                                "value": "511,140,403,843,631,825,729,172,505,780,938,541,127,855,909,283"
                            },
                            {
                                "name": "_amount",
                                "type": "uint256",
                                "value": "1,147,032,829,293,317,481,173,155,891,309,375,254,605,214,077,236,177,772,270,270,553,197,624,560,221"
                            }
                        ],
                        "constructorArguments": "",
                        "name": "withdraw",
                        "returnParams": [],
                        "signature": "withdraw(uint256,uint256)"
                    },
                    "errorInfo": "",
                    "fromAddress": "0x59885412fcef83000fe2d1939775d4bc274229a3",
                    "gasUsed": 105103,
                    "id": 0,
                    "methodDecoded": true,
                    "operation": "CALL",
                    "output": "",
                    "revert": false,
                    "revertMessage": "",
                    "selector": "0x441a3e70",
                    "status": true,
                    "value": "0"
                },
                "nodeType": 0
            },
            "1": {
                "invocation": {
                    "address": "0xdd813397b79f8df581eeb0c4b8ab72304c528396",
                    "callData": "0x00000000000000000000000059885412fcef83000fe2d1939775d4bc274229a302893294412a4c8f915f75892b395ebbf6859ec246ec365c3b1f56f47c3a0a5d",
                    "decodedMethod": {
                        "callParams": [
                            {
                                "name": "_pid",
                                "type": "uint256",
                                "value": "511,140,403,843,631,825,729,172,505,780,938,541,127,855,909,283"
                            },
                            {
                                "name": "_amount",
                                "type": "uint256",
                                "value": "1,147,032,829,293,317,481,173,155,891,309,375,254,605,214,077,236,177,772,270,270,553,197,624,560,221"
                            }
                        ],
                        "constructorArguments": "",
                        "name": "withdraw",
                        "returnParams": [],
                        "signature": "withdraw(uint256,uint256)"
                    },
                    "errorInfo": "",
                    "fromAddress": "0xa1d5443f2fb80a5a55ac804c948b45ce4c52dcbb",
                    "gasUsed": 82884,
                    "id": 1,
                    "methodDecoded": true,
                    "operation": "DELEGATECALL",
                    "output": "",
                    "revert": false,
                    "revertMessage": "",
                    "selector": "0x441a3e70",
                    "status": true,
                    "value": "0"
                },
                "nodeType": 0
            },
            "10": {
                "event": {
                    "contract": "0xa1d5443f2fb80a5a55ac804c948b45ce4c52dcbb",
                    "decodedLog": {
                        "name": "LogWithdrawalPerformed",
                        "params": [
                            {
                                "name": "ownerKey",
                                "type": "uint256",
                                "value": "511,140,403,843,631,825,729,172,505,780,938,541,127,855,909,283"
                            },
                            {
                                "name": "assetType",
                                "type": "uint256",
                                "value": "1,147,032,829,293,317,481,173,155,891,309,375,254,605,214,077,236,177,772,270,270,553,197,624,560,221"
                            },
                            {
                                "name": "nonQuantizedAmount",
                                "type": "uint256",
                                "value": "348,976,583"
                            },
                            {
                                "name": "quantizedAmount",
                                "type": "uint256",
                                "value": "348,976,583"
                            },
                            {
                                "name": "recipient",
                                "type": "address",
                                "value": "0x59885412fcef83000fe2d1939775d4bc274229a3"
                            }
                        ],
                        "signature": "LogWithdrawalPerformed(uint256,uint256,uint256,uint256,address)"
                    },
                    "id": 10,
                    "logData": "0x00000000000000000000000059885412fcef83000fe2d1939775d4bc274229a302893294412a4c8f915f75892b395ebbf6859ec246ec365c3b1f56f47c3a0a5d0000000000000000000000000000000000000000000000000000000014ccf5c70000000000000000000000000000000000000000000000000000000014ccf5c700000000000000000000000059885412fcef83000fe2d1939775d4bc274229a3",
                    "logDecoded": true,
                    "operation": "EVENT",
                    "revert": false,
                    "status": true,
                    "topics": [
                        "0xb7477a7b93b2addc5272bbd7ad0986ef1c0d0bd265f26c3dc4bbe42727c2ac0c"
                    ]
                },
                "nodeType": 1
            },
            "2": {
                "invocation": {
                    "address": "0x564ea75a26dc0bb5c5033b4752f88953a25ad058",
                    "callData": "0x00000000000000000000000059885412fcef83000fe2d1939775d4bc274229a302893294412a4c8f915f75892b395ebbf6859ec246ec365c3b1f56f47c3a0a5d",
                    "decodedMethod": {
                        "callParams": [
                            {
                                "name": "ownerKey",
                                "type": "uint256",
                                "value": "511,140,403,843,631,825,729,172,505,780,938,541,127,855,909,283"
                            },
                            {
                                "name": "assetType",
                                "type": "uint256",
                                "value": "1,147,032,829,293,317,481,173,155,891,309,375,254,605,214,077,236,177,772,270,270,553,197,624,560,221"
                            }
                        ],
                        "constructorArguments": "",
                        "name": "withdraw",
                        "returnParams": [],
                        "signature": "withdraw(uint256,uint256)"
                    },
                    "errorInfo": "",
                    "fromAddress": "0xa1d5443f2fb80a5a55ac804c948b45ce4c52dcbb",
                    "gasUsed": 77238,
                    "id": 2,
                    "methodDecoded": true,
                    "operation": "DELEGATECALL",
                    "output": "",
                    "revert": false,
                    "revertMessage": "",
                    "selector": "0x441a3e70",
                    "status": true,
                    "value": "0"
                },
                "nodeType": 0
            },
            "3": {
                "invocation": {
                    "address": "0xa0b86991c6218b36c1d19d4a2e9eb0ce3606eb48",
                    "callData": "0x000000000000000000000000a1d5443f2fb80a5a55ac804c948b45ce4c52dcbb",
                    "decodedMethod": {
                        "callParams": [
                            {
                                "name": "account",
                                "type": "address",
                                "value": "0xa1d5443f2fb80a5a55ac804c948b45ce4c52dcbb"
                            }
                        ],
                        "constructorArguments": "",
                        "name": "balanceOf",
                        "returnParams": [
                            {
                                "decimalAvailable": true,
                                "name": "",
                                "type": "uint256",
                                "value": "32,296,019,998,898"
                            }
                        ],
                        "signature": "balanceOf(address)"
                    },
                    "errorInfo": "",
                    "fromAddress": "0xa1d5443f2fb80a5a55ac804c948b45ce4c52dcbb",
                    "gasUsed": 9815,
                    "id": 3,
                    "methodDecoded": true,
                    "operation": "STATICCALL",
                    "output": "0x00000000000000000000000000000000000000000000000000001d5f80ccb8b2",
                    "revert": false,
                    "revertMessage": "",
                    "selector": "0x70a08231",
                    "status": true,
                    "value": "0"
                },
                "nodeType": 0
            },
            "4": {
                "invocation": {
                    "address": "0xa2327a938febf5fec13bacfb16ae10ecbc4cbdcf",
                    "callData": "0x000000000000000000000000a1d5443f2fb80a5a55ac804c948b45ce4c52dcbb",
                    "decodedMethod": {
                        "callParams": [
                            {
                                "name": "account",
                                "type": "address",
                                "value": "0xa1d5443f2fb80a5a55ac804c948b45ce4c52dcbb"
                            }
                        ],
                        "constructorArguments": "",
                        "name": "balanceOf",
                        "returnParams": [
                            {
                                "decimalAvailable": true,
                                "name": "",
                                "type": "uint256",
                                "value": "32,296,019,998,898"
                            }
                        ],
                        "signature": "balanceOf(address)"
                    },
                    "errorInfo": "",
                    "fromAddress": "0xa0b86991c6218b36c1d19d4a2e9eb0ce3606eb48",
                    "gasUsed": 2529,
                    "id": 4,
                    "methodDecoded": true,
                    "operation": "DELEGATECALL",
                    "output": "0x00000000000000000000000000000000000000000000000000001d5f80ccb8b2",
                    "revert": false,
                    "revertMessage": "",
                    "selector": "0x70a08231",
                    "status": true,
                    "value": "0"
                },
                "nodeType": 0
            },
            "5": {
                "invocation": {
                    "address": "0xa0b86991c6218b36c1d19d4a2e9eb0ce3606eb48",
                    "callData": "0x00000000000000000000000059885412fcef83000fe2d1939775d4bc274229a30000000000000000000000000000000000000000000000000000000014ccf5c7",
                    "decodedMethod": {
                        "callParams": [
                            {
                                "name": "to",
                                "type": "address",
                                "value": "0x59885412fcef83000fe2d1939775d4bc274229a3"
                            },
                            {
                                "decimalAvailable": true,
                                "name": "value",
                                "type": "uint256",
                                "value": "348,976,583"
                            }
                        ],
                        "constructorArguments": "",
                        "name": "transfer",
                        "returnParams": [
                            {
                                "name": "",
                                "type": "bool",
                                "value": true
                            }
                        ],
                        "signature": "transfer(address,uint256)"
                    },
                    "errorInfo": "",
                    "fromAddress": "0xa1d5443f2fb80a5a55ac804c948b45ce4c52dcbb",
                    "gasUsed": 35517,
                    "id": 5,
                    "methodDecoded": true,
                    "operation": "CALL",
                    "output": "0x0000000000000000000000000000000000000000000000000000000000000001",
                    "revert": false,
                    "revertMessage": "",
                    "selector": "0xa9059cbb",
                    "status": true,
                    "value": "0"
                },
                "nodeType": 0
            },
            "6": {
                "invocation": {
                    "address": "0xa2327a938febf5fec13bacfb16ae10ecbc4cbdcf",
                    "callData": "0x00000000000000000000000059885412fcef83000fe2d1939775d4bc274229a30000000000000000000000000000000000000000000000000000000014ccf5c7",
                    "decodedMethod": {
                        "callParams": [
                            {
                                "name": "to",
                                "type": "address",
                                "value": "0x59885412fcef83000fe2d1939775d4bc274229a3"
                            },
                            {
                                "decimalAvailable": true,
                                "name": "value",
                                "type": "uint256",
                                "value": "348,976,583"
                            }
                        ],
                        "constructorArguments": "",
                        "name": "transfer",
                        "returnParams": [
                            {
                                "name": "",
                                "type": "bool",
                                "value": true
                            }
                        ],
                        "signature": "transfer(address,uint256)"
                    },
                    "errorInfo": "",
                    "fromAddress": "0xa0b86991c6218b36c1d19d4a2e9eb0ce3606eb48",
                    "gasUsed": 34728,
                    "id": 6,
                    "methodDecoded": true,
                    "operation": "DELEGATECALL",
                    "output": "0x0000000000000000000000000000000000000000000000000000000000000001",
                    "revert": false,
                    "revertMessage": "",
                    "selector": "0xa9059cbb",
                    "status": true,
                    "value": "0"
                },
                "nodeType": 0
            },
            "7": {
                "event": {
                    "contract": "0xa0b86991c6218b36c1d19d4a2e9eb0ce3606eb48",
                    "decodedLog": {
                        "name": "Transfer",
                        "params": [
                            {
                                "name": "from",
                                "type": "address",
                                "value": "0xa1d5443f2fb80a5a55ac804c948b45ce4c52dcbb"
                            },
                            {
                                "name": "to",
                                "type": "address",
                                "value": "0x59885412fcef83000fe2d1939775d4bc274229a3"
                            },
                            {
                                "decimalAvailable": true,
                                "name": "value",
                                "type": "uint256",
                                "value": "348,976,583"
                            }
                        ],
                        "signature": "Transfer(address,address,uint256)"
                    },
                    "id": 7,
                    "logData": "0x0000000000000000000000000000000000000000000000000000000014ccf5c7",
                    "logDecoded": true,
                    "operation": "EVENT",
                    "revert": false,
                    "status": true,
                    "topics": [
                        "0xddf252ad1be2c89b69c2b068fc378daa952ba7f163c4a11628f55a4df523b3ef",
                        "0x000000000000000000000000a1d5443f2fb80a5a55ac804c948b45ce4c52dcbb",
                        "0x00000000000000000000000059885412fcef83000fe2d1939775d4bc274229a3"
                    ]
                },
                "nodeType": 1
            },
            "8": {
                "invocation": {
                    "address": "0xa0b86991c6218b36c1d19d4a2e9eb0ce3606eb48",
                    "callData": "0x000000000000000000000000a1d5443f2fb80a5a55ac804c948b45ce4c52dcbb",
                    "decodedMethod": {
                        "callParams": [
                            {
                                "name": "account",
                                "type": "address",
                                "value": "0xa1d5443f2fb80a5a55ac804c948b45ce4c52dcbb"
                            }
                        ],
                        "constructorArguments": "",
                        "name": "balanceOf",
                        "returnParams": [
                            {
                                "decimalAvailable": true,
                                "name": "",
                                "type": "uint256",
                                "value": "32,295,671,022,315"
                            }
                        ],
                        "signature": "balanceOf(address)"
                    },
                    "errorInfo": "",
                    "fromAddress": "0xa1d5443f2fb80a5a55ac804c948b45ce4c52dcbb",
                    "gasUsed": 1315,
                    "id": 8,
                    "methodDecoded": true,
                    "operation": "STATICCALL",
                    "output": "0x00000000000000000000000000000000000000000000000000001d5f6bffc2eb",
                    "revert": false,
                    "revertMessage": "",
                    "selector": "0x70a08231",
                    "status": true,
                    "value": "0"
                },
                "nodeType": 0
            },
            "9": {
                "invocation": {
                    "address": "0xa2327a938febf5fec13bacfb16ae10ecbc4cbdcf",
                    "callData": "0x000000000000000000000000a1d5443f2fb80a5a55ac804c948b45ce4c52dcbb",
                    "decodedMethod": {
                        "callParams": [
                            {
                                "name": "account",
                                "type": "address",
                                "value": "0xa1d5443f2fb80a5a55ac804c948b45ce4c52dcbb"
                            }
                        ],
                        "constructorArguments": "",
                        "name": "balanceOf",
                        "returnParams": [
                            {
                                "decimalAvailable": true,
                                "name": "",
                                "type": "uint256",
                                "value": "32,295,671,022,315"
                            }
                        ],
                        "signature": "balanceOf(address)"
                    },
                    "errorInfo": "",
                    "fromAddress": "0xa0b86991c6218b36c1d19d4a2e9eb0ce3606eb48",
                    "gasUsed": 529,
                    "id": 9,
                    "methodDecoded": true,
                    "operation": "DELEGATECALL",
                    "output": "0x00000000000000000000000000000000000000000000000000001d5f6bffc2eb",
                    "revert": false,
                    "revertMessage": "",
                    "selector": "0x70a08231",
                    "status": true,
                    "value": "0"
                },
                "nodeType": 0
            }
        },
        "gasFlame": [
            {
                "children": [
                    {
                        "children": [
                            {
                                "children": [],
                                "depth": 0,
                                "name": "Initial Gas",
                                "value": 21932
                            },
                            {
                                "children": [
                                    {
                                        "children": [
                                            {
                                                "children": [
                                                    {
                                                        "children": [
                                                            {
                                                                "children": [],
                                                                "depth": 4,
                                                                "name": "balanceOf",
                                                                "value": 2529
                                                            }
                                                        ],
                                                        "depth": 3,
                                                        "name": "balanceOf",
                                                        "value": 9815
                                                    },
                                                    {
                                                        "children": [
                                                            {
                                                                "children": [],
                                                                "depth": 4,
                                                                "name": "transfer",
                                                                "value": 34728
                                                            }
                                                        ],
                                                        "depth": 3,
                                                        "name": "transfer",
                                                        "value": 35517
                                                    },
                                                    {
                                                        "children": [
                                                            {
                                                                "children": [],
                                                                "depth": 4,
                                                                "name": "balanceOf",
                                                                "value": 529
                                                            }
                                                        ],
                                                        "depth": 3,
                                                        "name": "balanceOf",
                                                        "value": 1315
                                                    }
                                                ],
                                                "depth": 2,
                                                "name": "withdraw",
                                                "value": 77238
                                            }
                                        ],
                                        "depth": 1,
                                        "name": "withdraw",
                                        "value": 82884
                                    }
                                ],
                                "depth": 0,
                                "name": "Executed Gas",
                                "value": 87971
                            }
                        ],
                        "depth": -1,
                        "name": "Actual Gas Used",
                        "value": 105103
                    },
                    {
                        "children": [],
                        "depth": -1,
                        "name": "Refunded Gas",
                        "value": 4800
                    }
                ],
                "depth": -2,
                "name": "Total Gas",
                "value": 109903
            }
        ],
        "isConfirmed": true,
        "mainTrace": [
            {
                "children": [
                    {
                        "children": [
                            {
                                "children": [
                                    {
                                        "children": [
                                            {
                                                "children": [
                                                    {
                                                        "children": [],
                                                        "depth": 4,
                                                        "id": 4,
                                                        "order": 4
                                                    }
                                                ],
                                                "depth": 3,
                                                "id": 3,
                                                "order": 3
                                            },
                                            {
                                                "children": [
                                                    {
                                                        "children": [
                                                            {
                                                                "children": [],
                                                                "depth": 5,
                                                                "id": 7,
                                                                "order": 7
                                                            }
                                                        ],
                                                        "depth": 4,
                                                        "id": 6,
                                                        "order": 6
                                                    }
                                                ],
                                                "depth": 3,
                                                "id": 5,
                                                "order": 5
                                            },
                                            {
                                                "children": [
                                                    {
                                                        "children": [],
                                                        "depth": 4,
                                                        "id": 9,
                                                        "order": 9
                                                    }
                                                ],
                                                "depth": 3,
                                                "id": 8,
                                                "order": 8
                                            },
                                            {
                                                "children": [],
                                                "depth": 3,
                                                "id": 10,
                                                "order": 10
                                            }
                                        ],
                                        "depth": 2,
                                        "id": 2,
                                        "order": 2
                                    }
                                ],
                                "depth": 1,
                                "id": 1,
                                "order": 1
                            }
                        ],
                        "depth": 0,
                        "id": 0,
                        "order": 0
                    }
                ],
                "depth": -1,
                "id": -1,
                "order": -1
            }
        ],
        "mainTraceNodeCount": 11,
        "parentIdMap": {
            "0": -1,
            "1": 0,
            "10": 2,
            "2": 1,
            "3": 2,
            "4": 3,
            "5": 2,
            "6": 5,
            "7": 6,
            "8": 2,
            "9": 8
        },
        "tidyTrace": [
            {
                "children": [
                    {
                        "children": [
                            {
                                "children": [
                                    {
                                        "children": [
                                            {
                                                "children": [
                                                    {
                                                        "children": [
                                                            {
                                                                "children": [],
                                                                "depth": 5,
                                                                "id": 7,
                                                                "order": 7
                                                            }
                                                        ],
                                                        "depth": 4,
                                                        "id": 6,
                                                        "order": 6
                                                    }
                                                ],
                                                "depth": 3,
                                                "id": 5,
                                                "order": 5
                                            },
                                            {
                                                "children": [],
                                                "depth": 3,
                                                "id": 10,
                                                "order": 10
                                            }
                                        ],
                                        "depth": 2,
                                        "id": 2,
                                        "order": 2
                                    }
                                ],
                                "depth": 1,
                                "id": 1,
                                "order": 1
                            }
                        ],
                        "depth": 0,
                        "id": 0,
                        "order": 0
                    }
                ],
                "depth": -1,
                "id": -1,
                "order": -1
            }
        ],
        "tidyTraceNodeCount": 7
    },
    "state_change": {
        "stateChanges": [
            {
                "address": "0xa0b86991c6218b36c1d19d4a2e9eb0ce3606eb48",
                "erc": "ERC-20",
                "slots": [
                    {
                        "current": "0x00000000000000000000000000000000000000000000000000001d5f6bffc2eb",
                        "key": "0x4e9bd3861c2a8b1db155261de11695ac6dc029b1ad00906976710a718fe3cfce",
                        "prev": "0x00000000000000000000000000000000000000000000000000001d5f80ccb8b2"
                    },
                    {
                        "current": "0x0000000000000000000000000000000000000000000000000000000014ccf5c7",
                        "key": "0xe2593cd7b3f45d2d8af89509bedbeb51f263323dfb76e2894d40666a9b291299",
                        "prev": "0x0000000000000000000000000000000000000000000000000000000000000000"
                    }
                ],
                "storageVariables": [
                    {
                        "name": "balances",
                        "type": "mapping(address => uint256)",
                        "value": {
                            "pairs": [
                                {
                                    "key": "0x59885412fcef83000fe2d1939775d4bc274229a3",
                                    "value": {
                                        "current": "348976583",
                                        "prev": "0",
                                        "typeTag": 1
                                    }
                                },
                                {
                                    "key": "0xa1d5443f2fb80a5a55ac804c948b45ce4c52dcbb",
                                    "value": {
                                        "current": "32295671022315",
                                        "prev": "32296019998898",
                                        "typeTag": 1
                                    }
                                }
                            ],
                            "typeTag": 4
                        }
                    }
                ]
            },
            {
                "address": "0xa1d5443f2fb80a5a55ac804c948b45ce4c52dcbb",
                "erc": "",
                "slots": [
                    {
                        "current": "0x0000000000000000000000000000000000000000000000000000000000000000",
                        "key": "0xcd294bcd8c8dfb2c6f5c3c847ed9026512a3f8509af3227dc157e5fdfef946e2",
                        "prev": "0x0000000000000000000000000000000000000000000000000000000014ccf5c7"
                    }
                ],
                "storageVariables": [
                    {
                        "name": "pendingWithdrawals",
                        "type": "mapping(uint256 => mapping(uint256 => uint256))",
                        "value": {
                            "pairs": [
                                {
                                    "key": "511140403843631825729172505780938541127855909283",
                                    "value": {
                                        "pairs": [
                                            {
                                                "key": "1147032829293317481173155891309375254605214077236177772270270553197624560221",
                                                "value": {
                                                    "current": "0",
                                                    "prev": "348976583",
                                                    "typeTag": 1
                                                }
                                            }
                                        ],
                                        "typeTag": 4
                                    }
                                }
                            ],
                            "typeTag": 4
                        }
                    }
                ]
            }
        ]
    }
}