{
    "balance_change": {
        "balanceChanges": [
            {
                "account": "0x1d9262af4e61af885ef60ab76e35454b02b82a50",
                "assets": [
                    {
                        "address": "0xeeeeeeeeeeeeeeeeeeeeeeeeeeeeeeeeeeeeeeee",
                        "amount": "0.000000000000012536",
                        "iconUrl": "https://assets.blocksec.com/image/1663669189317-3.png",
                        "isERC1155": false,
                        "isERC721": false,
                        "sign": false,
                        "value": "0.000000000021029516079999999659"
                    }
                ]
            },
            {
                "account": "0x6f1cdbbb4d53d226cf4b917bf768b94acbab6168",
                "assets": [
                    {
                        "address": "0xeeeeeeeeeeeeeeeeeeeeeeeeeeeeeeeeeeeeeeee",
                        "amount": "0.000000000000012536",
                        "iconUrl": "https://assets.blocksec.com/image/1663669189317-3.png",
                        "isERC1155": false,
                        "isERC721": false,
                        "sign": true,
                        "value": "0.000000000021029516079999999659"
                    },
                    {
                        "address": "0x8207c1ffc5b6804f6024322ccf34f29c3541ae26",
                        "amount": "13,042.967726228927464762",
                        "iconUrl": "https://assets.blocksec.com/icon/ac011413d2bbf74e9d35627a6675cd00d961b46be3f96ac04318bccd24c92cfd.png",
                        "isERC1155": false,
                        "isERC721": false,
                        "sign": true,
                        "value": "1463.4209793059999242"
                    },
                    {
                        "address": "0xc02aaa39b223fe8d0a0e5c4f27ead9083c756cc2",
                        "amount": "0.871808878341368244",
                        "iconUrl": "https://assets.blocksec.com/icon/f1cb2d02c471d545bbc7722daf3277fd852d98e63d118771af7047bd8256c516.png",
                        "isERC1155": false,
                        "isERC721": false,
                        "sign": false,
                        "value": "1462.4855476145989762"
                    }
                ]
            },
            {
                "account": "0x70bb8e6844dfb681810fd557dd741bcaf027bf94",
                "assets": [
                    {
                        "address": "0xc02aaa39b223fe8d0a0e5c4f27ead9083c756cc2",
                        "amount": "0.871808878341368244",
                        "iconUrl": "https://assets.blocksec.com/icon/f1cb2d02c471d545bbc7722daf3277fd852d98e63d118771af7047bd8256c516.png",
                        "isERC1155": false,
                        "isERC721": false,
                        "sign": true,
                        "value": "1462.4855476145989762"
                    },
                    {
                        "address": "0x8207c1ffc5b6804f6024322ccf34f29c3541ae26",
                        "amount": "13,042.967726228927464762",
                        "iconUrl": "https://assets.blocksec.com/icon/ac011413d2bbf74e9d35627a6675cd00d961b46be3f96ac04318bccd24c92cfd.png",
                        "isERC1155": false,
                        "isERC721": false,
                        "sign": false,
                        "value": "1463.4209793059999242"
                    }
                ]
            }
        ]
    },
    "profile": {
        "basic_info": {
            "baseFee": "9.349911783",
            "blockNumber": 18412670,
            "callData": "0xceb5748e00000000000000000000000070bb8e6844dfb681810fd557dd741bcaf027bf94000000000000000000000000c02aaa39b223fe8d0a0e5c4f27ead9083c756cc20000000000000000000000008207c1ffc5b6804f6024322ccf34f29c3541ae260000000000000000000000000000000000000000000000000000000000000bb80000000000000000000000000000000000000000000000000c19498e4991a9b40000000000000000000000000000000000000000000002c30f89da668794c5390000000000000000000000000000000000000000021759d9da45a1c000000000000000000000000000000000000000000000000000000000000000000118f47f0000000000000000000000000000000000000000000000000000000000000000",
            "debugEnable": true,
            "errorInfo": "",
            "eventCount": 3,
            "feeRecipient": "0x95222290dd7278aa3ddd389cc1e1d165cc4bafe5",
            "formatValue": "0.000000000000012536",
            "gasLimit": 173216,
            "gasPrice": "10.176094997",
            "gasUsed": 107472,
            "intTxnCount": 6,
            "internalRevert": false,
            "internalRevertMessage": "",
            "isContractCreation": false,
            "isFlashloan": false,
            "maxFee": "10.176094997",
            "nonce": 4970,
            "overwritedBlockNumber": -1,
            "priorityFee": "0.826183214",
            "receiver": "0x6f1cdbbb4d53d226cf4b917bf768b94acbab6168",
            "revertMessage": "",
            "sender": "0x1d9262af4e61af885ef60ab76e35454b02b82a50",
            "simulationEnable": true,
            "sourceTxnHash": "0x07c50ca7bd72de120e85bbeab65847175311369fe8fae2557a845530a1495f24",
            "status": true,
            "timestamp": "2023-10-23T11:28:11Z",
            "transactionFee": "0.001093645281517584",
            "txnHash": "0x07c50ca7bd72de120e85bbeab65847175311369fe8fae2557a845530a1495f24",
            "txnIndex": 4,
            "type": 2,
            "value": "12536"
        },
        "fund_flow": [
            {
                "amount": "0.000000000000012536",
                "from": "0x1d9262af4e61af885ef60ab76e35454b02b82a50",
                "id": 1,
                "isERC1155": false,
                "isERC721": false,
                "isReverted": false,
                "order": 1,
                "to": "0x6f1cdbbb4d53d226cf4b917bf768b94acbab6168",
                "token": "0xeeeeeeeeeeeeeeeeeeeeeeeeeeeeeeeeeeeeeeee"
            },
            {
                "amount": "13,042.967726228927464762",
                "from": "0x70bb8e6844dfb681810fd557dd741bcaf027bf94",
                "id": 2,
                "isERC1155": false,
                "isERC721": false,
                "isReverted": false,
                "order": 2,
                "to": "0x6f1cdbbb4d53d226cf4b917bf768b94acbab6168",
                "token": "0x8207c1ffc5b6804f6024322ccf34f29c3541ae26"
            },
            {
                "amount": "0.871808878341368244",
                "from": "0x6f1cdbbb4d53d226cf4b917bf768b94acbab6168",
                "id": 3,
                "isERC1155": false,
                "isERC721": false,
                "isReverted": false,
                "order": 3,
                "to": "0x70bb8e6844dfb681810fd557dd741bcaf027bf94",
                "token": "0xc02aaa39b223fe8d0a0e5c4f27ead9083c756cc2"
            }
        ],
        "token_infos": [
            {
                "address": "0x8207c1ffc5b6804f6024322ccf34f29c3541ae26",
                "decimals": 18
            },
            {
                "address": "0xc02aaa39b223fe8d0a0e5c4f27ead9083c756cc2",
                "decimals": 18
            },
            {
                "address": "0xeeeeeeeeeeeeeeeeeeeeeeeeeeeeeeeeeeeeeeee",
                "decimals": 18
            }
        ]
    },
    "address_label": {
        "labels": [
            {
                "address": "0xeeeeeeeeeeeeeeeeeeeeeeeeeeeeeeeeeeeeeeee",
                "label": "Ether"
            },
            {
                "address": "0x6f1cdbbb4d53d226cf4b917bf768b94acbab6168",
                "label": "MEV Bot: 0x6f1\u2026168"
            },
            {
                "address": "0xc02aaa39b223fe8d0a0e5c4f27ead9083c756cc2",
                "label": "Wrapped Ether (WETH)"
            },
            {
                "address": "0x8207c1ffc5b6804f6024322ccf34f29c3541ae26",
                "label": "Origin: OGN Token"
            },
            {
                "address": "0x0000000000000000000000000000000000000003",
                "label": "Precompiled"
            },
            {
                "address": "0x0000000000000000000000000000000000000004",
                "label": "Precompiled"
            },
            {
                "address": "0x70bb8e6844dfb681810fd557dd741bcaf027bf94",
                "label": "Uniswap V3: OGN"
            },
            {
                "address": "0x0000000000000000000000000000000000000001",
                "label": "Precompiled"
            },
            {
                "address": "0x0000000000000000000000000000000000000002",
                "label": "Precompiled"
            }
        ]
    },
    "trace": {
        "accountLabels": null,
        "dataMap": {
            "-1": {
                "invocation": {
                    "address": "0x1d9262af4e61af885ef60ab76e35454b02b82a50",
                    "callData": "",
                    "decodedMethod": null,
                    "errorInfo": "",
                    "fromAddress": "",
                    "gasUsed": 0,
                    "id": -1,
                    "methodDecoded": false,
                    "operation": "",
                    "output": "",
                    "revert": false,
                    "revertMessage": "",
                    "selector": "",
                    "status": false,
                    "value": ""
                },
                "nodeType": 0
            },
            "0": {
                "invocation": {
                    "address": "0x6f1cdbbb4d53d226cf4b917bf768b94acbab6168",
                    "callData": "0x00000000000000000000000070bb8e6844dfb681810fd557dd741bcaf027bf94000000000000000000000000c02aaa39b223fe8d0a0e5c4f27ead9083c756cc20000000000000000000000008207c1ffc5b6804f6024322ccf34f29c3541ae260000000000000000000000000000000000000000000000000000000000000bb80000000000000000000000000000000000000000000000000c19498e4991a9b40000000000000000000000000000000000000000000002c30f89da668794c5390000000000000000000000000000000000000000021759d9da45a1c000000000000000000000000000000000000000000000000000000000000000000118f47f0000000000000000000000000000000000000000000000000000000000000000",
                    "decodedMethod": null,
                    "errorInfo": "",
                    "fromAddress": "0x1d9262af4e61af885ef60ab76e35454b02b82a50",
                    "gasUsed": 107472,
                    "id": 0,
                    "methodDecoded": false,
                    "operation": "CALL",
                    "output": "",
                    "revert": false,
                    "revertMessage": "",
                    "selector": "0xceb5748e",
                    "status": true,
                    "value": "0.000000000000012536"
                },
                "nodeType": 0
            },
            "1": {
                "invocation": {
                    "address": "0x70bb8e6844dfb681810fd557dd741bcaf027bf94",
                    "callData": "0x0000000000000000000000006f1cdbbb4d53d226cf4b917bf768b94acbab616800000000000000000000000000000000000000000000000000000000000000000000000000000000000000000000000000000000000000000c19498e4991a9b40000000000000000000000000000000000000000021759d9da45a1c00000000000000000000000000000000000000000000000000000000000000000000000a0000000000000000000000000000000000000000000000000000000000000002bc02aaa39b223fe8d0a0e5c4f27ead9083c756cc2000bb88207c1ffc5b6804f6024322ccf34f29c3541ae26000000000000000000000000000000000000000000",
                    "decodedMethod": {
                        "callParams": [
                            {
                                "name": "recipient",
                                "type": "address",
                                "value": "0x6f1cdbbb4d53d226cf4b917bf768b94acbab6168"
                            },
                            {
                                "name": "zeroForOne",
                                "type": "bool",
                                "value": false
                            },
                            {
                                "name": "amountSpecified",
                                "type": "int256",
                                "value": "871,808,878,341,368,244"
                            },
                            {
                                "name": "sqrtPriceLimitX96",
                                "type": "uint160",
                                "value": "647,199,622,782,421,121,531,641,856"
                            },
                            {
                                "name": "data",
                                "type": "bytes",
                                "value": "0xc02aaa39b223fe8d0a0e5c4f27ead9083c756cc2000bb88207c1ffc5b6804f6024322ccf34f29c3541ae26"
                            }
                        ],
                        "constructorArguments": "",
                        "name": "swap",
                        "returnParams": [
                            {
                                "name": "amount0",
                                "type": "int256",
                                "value": "-13,042,967,726,228,927,464,762"
                            },
                            {
                                "name": "amount1",
                                "type": "int256",
                                "value": "871,808,878,341,368,244"
                            }
                        ],
                        "signature": "swap(address,bool,int256,uint160,bytes)"
                    },
                    "errorInfo": "",
                    "fromAddress": "0x6f1cdbbb4d53d226cf4b917bf768b94acbab6168",
                    "gasUsed": 79154,
                    "id": 1,
                    "methodDecoded": true,
                    "operation": "CALL",
                    "output": "0xfffffffffffffffffffffffffffffffffffffffffffffd3cf0762599786b3ac60000000000000000000000000000000000000000000000000c19498e4991a9b4",
                    "revert": false,
                    "revertMessage": "",
                    "selector": "0x128acb08",
                    "status": true,
                    "value": "0"
                },
                "nodeType": 0
            },
            "2": {
                "invocation": {
                    "address": "0x8207c1ffc5b6804f6024322ccf34f29c3541ae26",
                    "callData": "0x0000000000000000000000006f1cdbbb4d53d226cf4b917bf768b94acbab61680000000000000000000000000000000000000000000002c30f89da668794c53a",
                    "decodedMethod": {
                        "callParams": [
                            {
                                "name": "_to",
                                "type": "address",
                                "value": "0x6f1cdbbb4d53d226cf4b917bf768b94acbab6168"
                            },
                            {
                                "decimalAvailable": true,
                                "name": "_value",
                                "type": "uint256",
                                "value": "13,042,967,726,228,927,464,762"
                            }
                        ],
                        "constructorArguments": "",
                        "name": "transfer",
                        "returnParams": [
                            {
                                "name": "",
                                "type": "bool",
                                "value": true
                            }
                        ],
                        "signature": "transfer(address,uint256)"
                    },
                    "errorInfo": "",
                    "fromAddress": "0x70bb8e6844dfb681810fd557dd741bcaf027bf94",
                    "gasUsed": 18040,
                    "id": 2,
                    "methodDecoded": true,
                    "operation": "CALL",
                    "output": "0x0000000000000000000000000000000000000000000000000000000000000001",
                    "revert": false,
                    "revertMessage": "",
                    "selector": "0xa9059cbb",
                    "status": true,
                    "value": "0"
                },
                "nodeType": 0
            },
            "3": {
                "event": {
                    "contract": "0x8207c1ffc5b6804f6024322ccf34f29c3541ae26",
                    "decodedLog": {
                        "name": "Transfer",
                        "params": [
                            {
                                "name": "from",
                                "type": "address",
                                "value": "0x70bb8e6844dfb681810fd557dd741bcaf027bf94"
                            },
                            {
                                "name": "to",
                                "type": "address",
                                "value": "0x6f1cdbbb4d53d226cf4b917bf768b94acbab6168"
                            },
                            {
                                "decimalAvailable": true,
                                "name": "value",
                                "type": "uint256",
                                "value": "13,042,967,726,228,927,464,762"
                            }
                        ],
                        "signature": "Transfer(address,address,uint256)"
                    },
                    "id": 3,
                    "logData": "0x0000000000000000000000000000000000000000000002c30f89da668794c53a",
                    "logDecoded": true,
                    "operation": "EVENT",
                    "revert": false,
                    "status": true,
                    "topics": [
                        "0xddf252ad1be2c89b69c2b068fc378daa952ba7f163c4a11628f55a4df523b3ef",
                        "0x00000000000000000000000070bb8e6844dfb681810fd557dd741bcaf027bf94",
                        "0x0000000000000000000000006f1cdbbb4d53d226cf4b917bf768b94acbab6168"
                    ]
                },
                "nodeType": 1
            },
            "4": {
                "invocation": {
                    "address": "0xc02aaa39b223fe8d0a0e5c4f27ead9083c756cc2",
                    "callData": "0x00000000000000000000000070bb8e6844dfb681810fd557dd741bcaf027bf94",
                    "decodedMethod": {
                        "callParams": [
                            {
                                "name": "",
                                "type": "address",
                                "value": "0x70bb8e6844dfb681810fd557dd741bcaf027bf94"
                            }
                        ],
                        "constructorArguments": "",
                        "name": "balanceOf",
                        "returnParams": [
                            {
                                "decimalAvailable": true,
                                "name": "",
                                "type": "uint256",
                                "value": "252,854,861,819,639,745,237"
                            }
                        ],
                        "signature": "balanceOf(address)"
                    },
                    "errorInfo": "",
                    "fromAddress": "0x70bb8e6844dfb681810fd557dd741bcaf027bf94",
                    "gasUsed": 2534,
                    "id": 4,
                    "methodDecoded": true,
                    "operation": "STATICCALL",
                    "output": "0x00000000000000000000000000000000000000000000000db510ed247a1bcad5",
                    "revert": false,
                    "revertMessage": "",
                    "selector": "0x70a08231",
                    "status": true,
                    "value": "0"
                },
                "nodeType": 0
            },
            "5": {
                "invocation": {
                    "address": "0x6f1cdbbb4d53d226cf4b917bf768b94acbab6168",
                    "callData": "0xfffffffffffffffffffffffffffffffffffffffffffffd3cf0762599786b3ac60000000000000000000000000000000000000000000000000c19498e4991a9b40000000000000000000000000000000000000000000000000000000000000060000000000000000000000000000000000000000000000000000000000000002bc02aaa39b223fe8d0a0e5c4f27ead9083c756cc2000bb88207c1ffc5b6804f6024322ccf34f29c3541ae26000000000000000000000000000000000000000000",
                    "decodedMethod": {
                        "callParams": [
                            {
                                "name": "amount0Delta",
                                "type": "int256",
                                "value": "-13,042,967,726,228,927,464,762"
                            },
                            {
                                "name": "amount1Delta",
                                "type": "int256",
                                "value": "871,808,878,341,368,244"
                            },
                            {
                                "name": "data",
                                "type": "bytes",
                                "value": "0xc02aaa39b223fe8d0a0e5c4f27ead9083c756cc2000bb88207c1ffc5b6804f6024322ccf34f29c3541ae26"
                            }
                        ],
                        "constructorArguments": "",
                        "name": "uniswapV3SwapCallback",
                        "returnParams": [],
                        "signature": "uniswapV3SwapCallback(int256,int256,bytes)"
                    },
                    "errorInfo": "",
                    "fromAddress": "0x70bb8e6844dfb681810fd557dd741bcaf027bf94",
                    "gasUsed": 13442,
                    "id": 5,
                    "methodDecoded": true,
                    "operation": "CALL",
                    "output": "",
                    "revert": false,
                    "revertMessage": "",
                    "selector": "0xfa461e33",
                    "status": true,
                    "value": "0"
                },
                "nodeType": 0
            },
            "6": {
                "invocation": {
                    "address": "0xc02aaa39b223fe8d0a0e5c4f27ead9083c756cc2",
                    "callData": "0x00000000000000000000000070bb8e6844dfb681810fd557dd741bcaf027bf940000000000000000000000000000000000000000000000000c19498e4991a9b4",
                    "decodedMethod": {
                        "callParams": [
                            {
                                "name": "dst",
                                "type": "address",
                                "value": "0x70bb8e6844dfb681810fd557dd741bcaf027bf94"
                            },
                            {
                                "decimalAvailable": true,
                                "name": "wad",
                                "type": "uint256",
                                "value": "871,808,878,341,368,244"
                            }
                        ],
                        "constructorArguments": "",
                        "name": "transfer",
                        "returnParams": [
                            {
                                "name": "",
                                "type": "bool",
                                "value": true
                            }
                        ],
                        "signature": "transfer(address,uint256)"
                    },
                    "errorInfo": "",
                    "fromAddress": "0x6f1cdbbb4d53d226cf4b917bf768b94acbab6168",
                    "gasUsed": 10862,
                    "id": 6,
                    "methodDecoded": true,
                    "operation": "CALL",
                    "output": "0x0000000000000000000000000000000000000000000000000000000000000001",
                    "revert": false,
                    "revertMessage": "",
                    "selector": "0xa9059cbb",
                    "status": true,
                    "value": "0"
                },
                "nodeType": 0
            },
            "7": {
                "event": {
                    "contract": "0xc02aaa39b223fe8d0a0e5c4f27ead9083c756cc2",
                    "decodedLog": {
                        "name": "Transfer",
                        "params": [
                            {
                                "name": "src",
                                "type": "address",
                                "value": "0x6f1cdbbb4d53d226cf4b917bf768b94acbab6168"
                            },
                            {
                                "name": "dst",
                                "type": "address",
                                "value": "0x70bb8e6844dfb681810fd557dd741bcaf027bf94"
                            },
                            {
                                "decimalAvailable": true,
                                "name": "wad",
                                "type": "uint256",
                                "value": "871,808,878,341,368,244"
                            }
                        ],
                        "signature": "Transfer(address,address,uint256)"
                    },
                    "id": 7,
                    "logData": "0x0000000000000000000000000000000000000000000000000c19498e4991a9b4",
                    "logDecoded": true,
                    "operation": "EVENT",
                    "revert": false,
                    "status": true,
                    "topics": [
                        "0xddf252ad1be2c89b69c2b068fc378daa952ba7f163c4a11628f55a4df523b3ef",
                        "0x0000000000000000000000006f1cdbbb4d53d226cf4b917bf768b94acbab6168",
                        "0x00000000000000000000000070bb8e6844dfb681810fd557dd741bcaf027bf94"
                    ]
                },
                "nodeType": 1
            },
            "8": {
                "invocation": {
                    "address": "0xc02aaa39b223fe8d0a0e5c4f27ead9083c756cc2",
                    "callData": "0x00000000000000000000000070bb8e6844dfb681810fd557dd741bcaf027bf94",
                    "decodedMethod": {
                        "callParams": [
                            {
                                "name": "",
                                "type": "address",
                                "value": "0x70bb8e6844dfb681810fd557dd741bcaf027bf94"
                            }
                        ],
                        "constructorArguments": "",
                        "name": "balanceOf",
                        "returnParams": [
                            {
                                "decimalAvailable": true,
                                "name": "",
                                "type": "uint256",
                                "value": "253,726,670,697,981,113,481"
                            }
                        ],
                        "signature": "balanceOf(address)"
                    },
                    "errorInfo": "",
                    "fromAddress": "0x70bb8e6844dfb681810fd557dd741bcaf027bf94",
                    "gasUsed": 534,
                    "id": 8,
                    "methodDecoded": true,
                    "operation": "STATICCALL",
                    "output": "0x00000000000000000000000000000000000000000000000dc12a36b2c3ad7489",
                    "revert": false,
                    "revertMessage": "",
                    "selector": "0x70a08231",
                    "status": true,
                    "value": "0"
                },
                "nodeType": 0
            },
            "9": {
                "event": {
                    "contract": "0x70bb8e6844dfb681810fd557dd741bcaf027bf94",
                    "decodedLog": {
                        "name": "Swap",
                        "params": [
                            {
                                "name": "sender",
                                "type": "address",
                                "value": "0x6f1cdbbb4d53d226cf4b917bf768b94acbab6168"
                            },
                            {
                                "name": "recipient",
                                "type": "address",
                                "value": "0x6f1cdbbb4d53d226cf4b917bf768b94acbab6168"
                            },
                            {
                                "name": "amount0",
                                "type": "int256",
                                "value": "-13,042,967,726,228,927,464,762"
                            },
                            {
                                "name": "amount1",
                                "type": "int256",
                                "value": "871,808,878,341,368,244"
                            },
                            {
                                "name": "sqrtPriceX96",
                                "type": "uint160",
                                "value": "647,199,622,782,421,121,531,641,856"
                            },
                            {
                                "name": "liquidity",
                                "type": "uint128",
                                "value": "80,096,975,082,988,212,264,158"
                            },
                            {
                                "name": "tick",
                                "type": "int24",
                                "value": "-96,154"
                            }
                        ],
                        "signature": "Swap(address,address,int256,int256,uint160,uint128,int24)"
                    },
                    "id": 9,
                    "logData": "0xfffffffffffffffffffffffffffffffffffffffffffffd3cf0762599786b3ac60000000000000000000000000000000000000000000000000c19498e4991a9b40000000000000000000000000000000000000000021759d9da45a1c0000000000000000000000000000000000000000000000000000010f610d302041a6b1cdefffffffffffffffffffffffffffffffffffffffffffffffffffffffffffe8866",
                    "logDecoded": true,
                    "operation": "EVENT",
                    "revert": false,
                    "status": true,
                    "topics": [
                        "0xc42079f94a6350d7e6235f29174924f928cc2ac818eb64fed8004e115fbcca67",
                        "0x0000000000000000000000006f1cdbbb4d53d226cf4b917bf768b94acbab6168",
                        "0x0000000000000000000000006f1cdbbb4d53d226cf4b917bf768b94acbab6168"
                    ]
                },
                "nodeType": 1
            }
        },
        "gasFlame": [
            {
                "children": [
                    {
                        "children": [
                            {
                                "children": [],
                                "depth": 0,
                                "name": "Initial Gas",
                                "value": 23320
                            },
                            {
                                "children": [
                                    {
                                        "children": [
                                            {
                                                "children": [],
                                                "depth": 2,
                                                "name": "transfer",
                                                "value": 18040
                                            },
                                            {
                                                "children": [],
                                                "depth": 2,
                                                "name": "balanceOf",
                                                "value": 2534
                                            },
                                            {
                                                "children": [
                                                    {
                                                        "children": [],
                                                        "depth": 3,
                                                        "name": "transfer",
                                                        "value": 10862
                                                    }
                                                ],
                                                "depth": 2,
                                                "name": "uniswapV3SwapCallback",
                                                "value": 13442
                                            },
                                            {
                                                "children": [],
                                                "depth": 2,
                                                "name": "balanceOf",
                                                "value": 534
                                            }
                                        ],
                                        "depth": 1,
                                        "name": "swap",
                                        "value": 79154
                                    }
                                ],
                                "depth": 0,
                                "name": "Executed Gas",
                                "value": 84152
                            }
                        ],
                        "depth": -1,
                        "name": "Actual Gas Used",
                        "value": 107472
                    },
                    {
                        "children": [],
                        "depth": -1,
                        "name": "Refunded Gas",
                        "value": 0
                    }
                ],
                "depth": -2,
                "name": "Total Gas",
                "value": 107472
            }
        ],
        "isConfirmed": true,
        "mainTrace": [
            {
                "children": [
                    {
                        "children": [
                            {
                                "children": [
                                    {
                                        "children": [
                                            {
                                                "children": [],
                                                "depth": 3,
                                                "id": 3,
                                                "order": 3
                                            }
                                        ],
                                        "depth": 2,
                                        "id": 2,
                                        "order": 2
                                    },
                                    {
                                        "children": [],
                                        "depth": 2,
                                        "id": 4,
                                        "order": 4
                                    },
                                    {
                                        "children": [
                                            {
                                                "children": [
                                                    {
                                                        "children": [],
                                                        "depth": 4,
                                                        "id": 7,
                                                        "order": 7
                                                    }
                                                ],
                                                "depth": 3,
                                                "id": 6,
                                                "order": 6
                                            }
                                        ],
                                        "depth": 2,
                                        "id": 5,
                                        "order": 5
                                    },
                                    {
                                        "children": [],
                                        "depth": 2,
                                        "id": 8,
                                        "order": 8
                                    },
                                    {
                                        "children": [],
                                        "depth": 2,
                                        "id": 9,
                                        "order": 9
                                    }
                                ],
                                "depth": 1,
                                "id": 1,
                                "order": 1
                            }
                        ],
                        "depth": 0,
                        "id": 0,
                        "order": 0
                    }
                ],
                "depth": -1,
                "id": -1,
                "order": -1
            }
        ],
        "mainTraceNodeCount": 10,
        "parentIdMap": {
            "0": -1,
            "1": 0,
            "2": 1,
            "3": 2,
            "4": 1,
            "5": 1,
            "6": 5,
            "7": 6,
            "8": 1,
            "9": 1
        },
        "tidyTrace": [
            {
                "children": [
                    {
                        "children": [
                            {
                                "children": [
                                    {
                                        "children": [
                                            {
                                                "children": [],
                                                "depth": 3,
                                                "id": 3,
                                                "order": 3
                                            }
                                        ],
                                        "depth": 2,
                                        "id": 2,
                                        "order": 2
                                    },
                                    {
                                        "children": [
                                            {
                                                "children": [
                                                    {
                                                        "children": [],
                                                        "depth": 4,
                                                        "id": 7,
                                                        "order": 7
                                                    }
                                                ],
                                                "depth": 3,
                                                "id": 6,
                                                "order": 6
                                            }
                                        ],
                                        "depth": 2,
                                        "id": 5,
                                        "order": 5
                                    },
                                    {
                                        "children": [],
                                        "depth": 2,
                                        "id": 9,
                                        "order": 9
                                    }
                                ],
                                "depth": 1,
                                "id": 1,
                                "order": 1
                            }
                        ],
                        "depth": 0,
                        "id": 0,
                        "order": 0
                    }
                ],
                "depth": -1,
                "id": -1,
                "order": -1
            }
        ],
        "tidyTraceNodeCount": 8
    },
    "state_change": {
        "stateChanges": [
            {
                "address": "0x70bb8e6844dfb681810fd557dd741bcaf027bf94",
                "erc": "",
                "slots": [
                    {
                        "current": "0x0100000000000000000001dbd13aaa702f8ecfeb6bfff9a036395348653658cb",
                        "key": "0x000000000000000000000000000000000000000000000000000000000000007c",
                        "prev": "0x0100000000000000000001db6909fde45831f42553fff9aa4e240388652f71cb"
                    },
                    {
                        "current": "0x00000000000000000000000000000000008f41c1a9c64b7780c463e329e53b90",
                        "key": "0x0000000000000000000000000000000000000000000000000000000000000002",
                        "prev": "0x00000000000000000000000000000000008f41356b2537ec3b0caa624f606a56"
                    },
                    {
                        "current": "0x000100009000900074fe88660000000000000000021759d9da45a1c000000000",
                        "key": "0x0000000000000000000000000000000000000000000000000000000000000000",
                        "prev": "0x000100009000900073fe884b00000000000000000216a3c9e1d5429dd91b9c81"
                    }
                ],
                "storageVariables": []
            },
            {
                "address": "0x8207c1ffc5b6804f6024322ccf34f29c3541ae26",
                "erc": "ERC-20",
                "slots": [
                    {
                        "current": "0x00000000000000000000000000000000000000000000072ab6d5e4d8edbf59e6",
                        "key": "0x088aceb73058ac8868ac6c8b117dd323d2a7697b2375e0cdaefced857d4b5f29",
                        "prev": "0x000000000000000000000000000000000000000000000467a74c0a72662a94ac"
                    },
                    {
                        "current": "0x000000000000000000000000000000000000000000056be9c828ed51ed751c2e",
                        "key": "0xb0713dddcc8d56c63c959db057f9c3d2e7290126512876f595b7c37fdfa1b9c8",
                        "prev": "0x000000000000000000000000000000000000000000056eacd7b2c7b87509e168"
                    }
                ],
                "storageVariables": [
                    {
                        "name": "balances",
                        "type": "mapping(address => uint256)",
                        "value": {
                            "pairs": [
                                {
                                    "key": "0x6f1cdbbb4d53d226cf4b917bf768b94acbab6168",
                                    "value": {
                                        "current": "33844503319088612727270",
                                        "prev": "20801535592859685262508",
                                        "typeTag": 1
                                    }
                                },
                                {
                                    "key": "0x70bb8e6844dfb681810fd557dd741bcaf027bf94",
                                    "value": {
                                        "current": "6554234826148115022945326",
                                        "prev": "6567277793874343950410088",
                                        "typeTag": 1
                                    }
                                }
                            ],
                            "typeTag": 4
                        }
                    }
                ]
            },
            {
                "address": "0xc02aaa39b223fe8d0a0e5c4f27ead9083c756cc2",
                "erc": "ERC-20",
                "slots": [
                    {
                        "current": "0x00000000000000000000000000000000000000000000000dc12a36b2c3ad7489",
                        "key": "0xbcebb3cb2a8ea3e8289a0afbe7127e8d848b391295c3fea75ba3960d0c431fc8",
                        "prev": "0x00000000000000000000000000000000000000000000000db510ed247a1bcad5"
                    },
                    {
                        "current": "0x00000000000000000000000000000000000000000000001d5aa888098bd15973",
                        "key": "0x7e30eb9dc7afa207fc50215e1f206b733ee6736b28e7b0dd2ef6cba16ab88ea0",
                        "prev": "0x00000000000000000000000000000000000000000000001d66c1d197d5630327"
                    }
                ],
                "storageVariables": [
                    {
                        "name": "balanceOf",
                        "type": "mapping(address => uint256)",
                        "value": {
                            "pairs": [
                                {
                                    "key": "0x6f1cdbbb4d53d226cf4b917bf768b94acbab6168",
                                    "value": {
                                        "current": "541488198971659737459",
                                        "prev": "542360007850001105703",
                                        "typeTag": 1
                                    }
                                },
                                {
                                    "key": "0x70bb8e6844dfb681810fd557dd741bcaf027bf94",
                                    "value": {
                                        "current": "253726670697981113481",
                                        "prev": "252854861819639745237",
                                        "typeTag": 1
                                    }
                                }
                            ],
                            "typeTag": 4
                        }
                    }
                ]
            }
        ]
    }
}