{
    "balance_change": {
        "balanceChanges": [
            {
                "account": "0xc800c49af5df006ad9d37ae419557bb00391ae9e",
                "assets": [
                    {
                        "address": "0x1a4b46696b2bb4794eb3d4c26f1c55f9170fa4c5",
                        "amount": "148.868000004159872443",
                        "iconUrl": "https://assets.blocksec.com/icon/ad8bbf25e6719b33e35b39b332ed351660d70b327d1e1e0bc68ca515b24ddaf8.png",
                        "isERC1155": false,
                        "isERC721": false,
                        "sign": false,
                        "value": "90.49685719999999939"
                    }
                ]
            },
            {
                "account": "0xf89d7b9c864f589bbf53a82105107622b35eaa40",
                "assets": [
                    {
                        "address": "0x1a4b46696b2bb4794eb3d4c26f1c55f9170fa4c5",
                        "amount": "148.868000004159872443",
                        "iconUrl": "https://assets.blocksec.com/icon/ad8bbf25e6719b33e35b39b332ed351660d70b327d1e1e0bc68ca515b24ddaf8.png",
                        "isERC1155": false,
                        "isERC721": false,
                        "sign": true,
                        "value": "90.49685719999999939"
                    }
                ]
            }
        ]
    },
    "profile": {
        "basic_info": {
            "baseFee": "25.239923883",
            "blockNumber": 16689974,
            "callData": "0xa9059cbb000000000000000000000000f89d7b9c864f589bbf53a82105107622b35eaa4000000000000000000000000000000000000000000000000811f561446ecc9dbb",
            "debugEnable": true,
            "errorInfo": "",
            "eventCount": 1,
            "feeRecipient": "0xe94f1fa4f27d9d288ffea234bb62e1fbc086ca0c",
            "formatValue": "0",
            "gasLimit": 240000,
            "gasPrice": "27.239923883",
            "gasUsed": 42229,
            "intTxnCount": 0,
            "internalRevert": false,
            "internalRevertMessage": "",
            "isContractCreation": false,
            "isFlashloan": false,
            "maxFee": "200",
            "nonce": 7,
            "overwritedBlockNumber": -1,
            "priorityFee": "2",
            "receiver": "0x1a4b46696b2bb4794eb3d4c26f1c55f9170fa4c5",
            "revertMessage": "",
            "sender": "0xc800c49af5df006ad9d37ae419557bb00391ae9e",
            "simulationEnable": true,
            "sourceTxnHash": "0x079014b55d82a873de77e0aa27f2520a6af3dcadcdd9abce74e676a11e220f1d",
            "status": true,
            "timestamp": "2023-02-23T08:40:59Z",
            "transactionFee": "0.001150314745655207",
            "txnHash": "0x079014b55d82a873de77e0aa27f2520a6af3dcadcdd9abce74e676a11e220f1d",
            "txnIndex": 30,
            "type": 2,
            "value": "0"
        },
        "fund_flow": [
            {
                "amount": "148.868000004159872443",
                "from": "0xc800c49af5df006ad9d37ae419557bb00391ae9e",
                "id": 1,
                "isERC1155": false,
                "isERC721": false,
                "isReverted": false,
                "order": 1,
                "to": "0xf89d7b9c864f589bbf53a82105107622b35eaa40",
                "token": "0x1a4b46696b2bb4794eb3d4c26f1c55f9170fa4c5"
            }
        ],
        "token_infos": [
            {
                "address": "0x1a4b46696b2bb4794eb3d4c26f1c55f9170fa4c5",
                "decimals": 18
            },
            {
                "address": "0xc02aaa39b223fe8d0a0e5c4f27ead9083c756cc2",
                "decimals": 18
            },
            {
                "address": "0xeeeeeeeeeeeeeeeeeeeeeeeeeeeeeeeeeeeeeeee",
                "decimals": 18
            }
        ]
    },
    "address_label": {
        "labels": [
            {
                "address": "0xeeeeeeeeeeeeeeeeeeeeeeeeeeeeeeeeeeeeeeee",
                "label": "Ether"
            },
            {
                "address": "0x1a4b46696b2bb4794eb3d4c26f1c55f9170fa4c5",
                "label": "BitDAO: BIT Token"
            },
            {
                "address": "0xc800c49af5df006ad9d37ae419557bb00391ae9e",
                "label": "BYBIT"
            },
            {
                "address": "0xf89d7b9c864f589bbf53a82105107622b35eaa40",
                "label": "Bybit: Hot Wallet"
            },
            {
                "address": "0x0000000000000000000000000000000000000001",
                "label": "Precompiled"
            },
            {
                "address": "0x0000000000000000000000000000000000000002",
                "label": "Precompiled"
            },
            {
                "address": "0x0000000000000000000000000000000000000003",
                "label": "Precompiled"
            },
            {
                "address": "0x0000000000000000000000000000000000000004",
                "label": "Precompiled"
            }
        ]
    },
    "trace": {
        "accountLabels": null,
        "dataMap": {
            "-1": {
                "invocation": {
                    "address": "0xc800c49af5df006ad9d37ae419557bb00391ae9e",
                    "callData": "",
                    "decodedMethod": null,
                    "errorInfo": "",
                    "fromAddress": "",
                    "gasUsed": 0,
                    "id": -1,
                    "methodDecoded": false,
                    "operation": "",
                    "output": "",
                    "revert": false,
                    "revertMessage": "",
                    "selector": "",
                    "status": false,
                    "value": ""
                },
                "nodeType": 0
            },
            "0": {
                "invocation": {
                    "address": "0x1a4b46696b2bb4794eb3d4c26f1c55f9170fa4c5",
                    "callData": "0x000000000000000000000000f89d7b9c864f589bbf53a82105107622b35eaa4000000000000000000000000000000000000000000000000811f561446ecc9dbb",
                    "decodedMethod": {
                        "callParams": [
                            {
                                "name": "recipient",
                                "type": "address",
                                "value": "0xf89d7b9c864f589bbf53a82105107622b35eaa40"
                            },
                            {
                                "decimalAvailable": true,
                                "name": "amount",
                                "type": "uint256",
                                "value": "148,868,000,004,159,872,443"
                            }
                        ],
                        "constructorArguments": "",
                        "name": "transfer",
                        "returnParams": [
                            {
                                "name": "",
                                "type": "bool",
                                "value": true
                            }
                        ],
                        "signature": "transfer(address,uint256)"
                    },
                    "errorInfo": "",
                    "fromAddress": "0xc800c49af5df006ad9d37ae419557bb00391ae9e",
                    "gasUsed": 42229,
                    "id": 0,
                    "methodDecoded": true,
                    "operation": "CALL",
                    "output": "0x0000000000000000000000000000000000000000000000000000000000000001",
                    "revert": false,
                    "revertMessage": "",
                    "selector": "0xa9059cbb",
                    "status": true,
                    "value": "0"
                },
                "nodeType": 0
            },
            "1": {
                "event": {
                    "contract": "0x1a4b46696b2bb4794eb3d4c26f1c55f9170fa4c5",
                    "decodedLog": {
                        "name": "Transfer",
                        "params": [
                            {
                                "name": "from",
                                "type": "address",
                                "value": "0xc800c49af5df006ad9d37ae419557bb00391ae9e"
                            },
                            {
                                "name": "to",
                                "type": "address",
                                "value": "0xf89d7b9c864f589bbf53a82105107622b35eaa40"
                            },
                            {
                                "decimalAvailable": true,
                                "name": "value",
                                "type": "uint256",
                                "value": "148,868,000,004,159,872,443"
                            }
                        ],
                        "signature": "Transfer(address,address,uint256)"
                    },
                    "id": 1,
                    "logData": "0x00000000000000000000000000000000000000000000000811f561446ecc9dbb",
                    "logDecoded": true,
                    "operation": "EVENT",
                    "revert": false,
                    "status": true,
                    "topics": [
                        "0xddf252ad1be2c89b69c2b068fc378daa952ba7f163c4a11628f55a4df523b3ef",
                        "0x000000000000000000000000c800c49af5df006ad9d37ae419557bb00391ae9e",
                        "0x000000000000000000000000f89d7b9c864f589bbf53a82105107622b35eaa40"
                    ]
                },
                "nodeType": 1
            }
        },
        "gasFlame": [
            {
                "children": [
                    {
                        "children": [
                            {
                                "children": [],
                                "depth": 0,
                                "name": "Initial Gas",
                                "value": 21668
                            },
                            {
                                "children": [],
                                "depth": 0,
                                "name": "Executed Gas",
                                "value": 25361
                            }
                        ],
                        "depth": -1,
                        "name": "Actual Gas Used",
                        "value": 42229
                    },
                    {
                        "children": [],
                        "depth": -1,
                        "name": "Refunded Gas",
                        "value": 4800
                    }
                ],
                "depth": -2,
                "name": "Total Gas",
                "value": 47029
            }
        ],
        "isConfirmed": true,
        "mainTrace": [
            {
                "children": [
                    {
                        "children": [
                            {
                                "children": [],
                                "depth": 1,
                                "id": 1,
                                "order": 1
                            }
                        ],
                        "depth": 0,
                        "id": 0,
                        "order": 0
                    }
                ],
                "depth": -1,
                "id": -1,
                "order": -1
            }
        ],
        "mainTraceNodeCount": 2,
        "parentIdMap": {
            "0": -1,
            "1": 0
        },
        "tidyTrace": [
            {
                "children": [
                    {
                        "children": [
                            {
                                "children": [],
                                "depth": 1,
                                "id": 1,
                                "order": 1
                            }
                        ],
                        "depth": 0,
                        "id": 0,
                        "order": 0
                    }
                ],
                "depth": -1,
                "id": -1,
                "order": -1
            }
        ],
        "tidyTraceNodeCount": 2
    },
    "state_change": {
        "stateChanges": [
            {
                "address": "0x1a4b46696b2bb4794eb3d4c26f1c55f9170fa4c5",
                "erc": "ERC-20",
                "slots": [
                    {
                        "current": "0x0000000000000000000000000000000000000000000000000000000000000000",
                        "key": "0x9ad5d47248003efc55720cd4eeeb079a9f98abed7eb61608769b375b54654593",
                        "prev": "0x00000000000000000000000000000000000000000000000811f561446ecc9dbb"
                    },
                    {
                        "current": "0x000000000000000000000000000000000000000000372a172646aed73064ce87",
                        "key": "0x164c0d431a999b5e9f4dfeeb03c48841235e3d171aa85ecb5a0f46085a773b96",
                        "prev": "0x000000000000000000000000000000000000000000372a0f14514d92c19830cc"
                    }
                ],
                "storageVariables": [
                    {
                        "name": "_balances",
                        "type": "mapping(address => uint256)",
                        "value": {
                            "pairs": [
                                {
                                    "key": "0xc800c49af5df006ad9d37ae419557bb00391ae9e",
                                    "value": {
                                        "current": "0",
                                        "prev": "148868000004159872443",
                                        "typeTag": 1
                                    }
                                },
                                {
                                    "key": "0xf89d7b9c864f589bbf53a82105107622b35eaa40",
                                    "value": {
                                        "current": "66689686504282886091624071",
                                        "prev": "66689537636282881931751628",
                                        "typeTag": 1
                                    }
                                }
                            ],
                            "typeTag": 4
                        }
                    }
                ]
            }
        ]
    }
}