{
    "balance_change": {
        "balanceChanges": []
    },
    "profile": {
        "basic_info": {
            "baseFee": "26.813755589",
            "blockNumber": 15498606,
            "callData": "0xc980753900000000000000000000000000000000000000000000000000000000000000800000000000000000000000000000000000000000000000000000000000000320000000000000000000000000000000000000000000000000000000000000040001010000000000000000000000000000000000000000000000000000000000000000000000000000000000000000000000000000000000000000000000000280000000000000000000000092135a2f383cfc61511d181ace106f3e0003fffb030907010c0800020f0d04060b0e0a030500000000000000000000000000000000000000000000000000000000000000000000000000000000000000000000006000000000000000000000000000000000000000000000000000000000000000100000000000000000000000000000000000000000000000000000000000630dc500000000000000000000000000000000000000000000000000000000006319fa0000000000000000000000000000000000000000000000000000000000632d680000000000000000000000000000000000000000000000000000000000632d680000000000000000000000000000000000000000000000000000000000632d680000000000000000000000000000000000000000000000000000000000632d680000000000000000000000000000000000000000000000000000000000633a8c0000000000000000000000000000000000000000000000000000000000633a8c0000000000000000000000000000000000000000000000000000000000633f1c0000000000000000000000000000000000000000000000000000000000634f070000000000000000000000000000000000000000000000000000000000634f070000000000000000000000000000000000000000000000000000000000634f090000000000000000000000000000000000000000000000000000000000634f090000000000000000000000000000000000000000000000000000000000636a6600000000000000000000000000000000000000000000000000000000006372de0000000000000000000000000000000000000000000000000000000000637c20000000000000000000000000000000000000000000000000000000000000000609ed967875da6cdadde4afaf89f89ee0576227a0c7486ba257d791e0ba1a0e561dfdcf214f3da575d3170948b25bd31c943df60c75369b63cb8b0c244d1dacc29bfac482e27ba6ecc190e3f1276de684a17784339b636ea12c276820bff27f23b17a467ddc213e86033e806dbcce8668f9e8db0790c59d66fc8ffe30467f65614f28b38e6a99ae1f08275f80a70f561e70a8db31d274173b11de919dbb72380c95beaedae9d8f1a61039e4f8a2fffcde7a0b18ccb3da0b6feee42f61f183676a000000000000000000000000000000000000000000000000000000000000000643c0c4af46032d1f47f90a19eb52a4e4e21a65229c5ece77bb981fd9693375ed74af097b1caff8832854c2ca4f19a754dd3bb712c5de628d0ac4bd6f0cde976c72d6755b5933dffdca4298b6a2c6efbf2a1d469a8ece27dcd7704877e9eff4510cade9e400199e790eb24fb9f0fb4766135842aed21f4a0c204714a56cbc6bb807eaa14949f2ac014146140297d0f9e26a557d58d9e84063d443b422e2b99734197caf14378f15dbe8debd4004934743514329321a19c9f1321aaf526a430e49",
            "debugEnable": true,
            "errorInfo": "",
            "eventCount": 3,
            "feeRecipient": "0x646db8ffc21e7ddc2b6327448dd9fa560df41087",
            "formatValue": "0",
            "gasLimit": 740000,
            "gasPrice": "28.813755589",
            "gasUsed": 176219,
            "intTxnCount": 6,
            "internalRevert": false,
            "internalRevertMessage": "",
            "isContractCreation": false,
            "isFlashloan": false,
            "maxFee": "55.881057695",
            "nonce": 35242,
            "overwritedBlockNumber": -1,
            "priorityFee": "2",
            "receiver": "0xaba1eace8627c15324890315e942a4fbd73b70e0",
            "revertMessage": "",
            "sender": "0xd22c87dc7a3f12dcbb75cebda2e96f6766ae114f",
            "simulationEnable": true,
            "sourceTxnHash": "0x0733c49723829662c14c7c4878fbf46c9f6a30e887eb19f2be5d9efe029e8b5e",
            "status": true,
            "timestamp": "2022-09-08T20:17:33Z",
            "transactionFee": "0.005077531196137991",
            "txnHash": "0x0733c49723829662c14c7c4878fbf46c9f6a30e887eb19f2be5d9efe029e8b5e",
            "txnIndex": 12,
            "type": 2,
            "value": "0"
        },
        "fund_flow": [],
        "token_infos": [
            {
                "address": "0xc02aaa39b223fe8d0a0e5c4f27ead9083c756cc2",
                "decimals": 18
            },
            {
                "address": "0xeeeeeeeeeeeeeeeeeeeeeeeeeeeeeeeeeeeeeeee",
                "decimals": 18
            }
        ]
    },
    "address_label": {
        "labels": [
            {
                "address": "0xeeeeeeeeeeeeeeeeeeeeeeeeeeeeeeeeeeeeeeee",
                "label": "Ether"
            },
            {
                "address": "0xaba1eace8627c15324890315e942a4fbd73b70e0",
                "label": "AccessControlledOffchainAggregator"
            },
            {
                "address": "0x0000000000000000000000000000000000000001",
                "label": "Precompiled"
            },
            {
                "address": "0x0000000000000000000000000000000000000002",
                "label": "Precompiled"
            },
            {
                "address": "0x0000000000000000000000000000000000000003",
                "label": "Precompiled"
            },
            {
                "address": "0x0000000000000000000000000000000000000004",
                "label": "Precompiled"
            }
        ]
    },
    "trace": {
        "accountLabels": null,
        "dataMap": {
            "-1": {
                "invocation": {
                    "address": "0xd22c87dc7a3f12dcbb75cebda2e96f6766ae114f",
                    "callData": "",
                    "decodedMethod": null,
                    "errorInfo": "",
                    "fromAddress": "",
                    "gasUsed": 0,
                    "id": -1,
                    "methodDecoded": false,
                    "operation": "",
                    "output": "",
                    "revert": false,
                    "revertMessage": "",
                    "selector": "",
                    "status": false,
                    "value": ""
                },
                "nodeType": 0
            },
            "0": {
                "invocation": {
                    "address": "0xaba1eace8627c15324890315e942a4fbd73b70e0",
                    "callData": "0x00000000000000000000000000000000000000000000000000000000000000800000000000000000000000000000000000000000000000000000000000000320000000000000000000000000000000000000000000000000000000000000040001010000000000000000000000000000000000000000000000000000000000000000000000000000000000000000000000000000000000000000000000000280000000000000000000000092135a2f383cfc61511d181ace106f3e0003fffb030907010c0800020f0d04060b0e0a030500000000000000000000000000000000000000000000000000000000000000000000000000000000000000000000006000000000000000000000000000000000000000000000000000000000000000100000000000000000000000000000000000000000000000000000000000630dc500000000000000000000000000000000000000000000000000000000006319fa0000000000000000000000000000000000000000000000000000000000632d680000000000000000000000000000000000000000000000000000000000632d680000000000000000000000000000000000000000000000000000000000632d680000000000000000000000000000000000000000000000000000000000632d680000000000000000000000000000000000000000000000000000000000633a8c0000000000000000000000000000000000000000000000000000000000633a8c0000000000000000000000000000000000000000000000000000000000633f1c0000000000000000000000000000000000000000000000000000000000634f070000000000000000000000000000000000000000000000000000000000634f070000000000000000000000000000000000000000000000000000000000634f090000000000000000000000000000000000000000000000000000000000634f090000000000000000000000000000000000000000000000000000000000636a6600000000000000000000000000000000000000000000000000000000006372de0000000000000000000000000000000000000000000000000000000000637c20000000000000000000000000000000000000000000000000000000000000000609ed967875da6cdadde4afaf89f89ee0576227a0c7486ba257d791e0ba1a0e561dfdcf214f3da575d3170948b25bd31c943df60c75369b63cb8b0c244d1dacc29bfac482e27ba6ecc190e3f1276de684a17784339b636ea12c276820bff27f23b17a467ddc213e86033e806dbcce8668f9e8db0790c59d66fc8ffe30467f65614f28b38e6a99ae1f08275f80a70f561e70a8db31d274173b11de919dbb72380c95beaedae9d8f1a61039e4f8a2fffcde7a0b18ccb3da0b6feee42f61f183676a000000000000000000000000000000000000000000000000000000000000000643c0c4af46032d1f47f90a19eb52a4e4e21a65229c5ece77bb981fd9693375ed74af097b1caff8832854c2ca4f19a754dd3bb712c5de628d0ac4bd6f0cde976c72d6755b5933dffdca4298b6a2c6efbf2a1d469a8ece27dcd7704877e9eff4510cade9e400199e790eb24fb9f0fb4766135842aed21f4a0c204714a56cbc6bb807eaa14949f2ac014146140297d0f9e26a557d58d9e84063d443b422e2b99734197caf14378f15dbe8debd4004934743514329321a19c9f1321aaf526a430e49",
                    "decodedMethod": {
                        "callParams": [
                            {
                                "name": "_report",
                                "type": "bytes",
                                "value": "0x000000000000000000000092135a2f383cfc61511d181ace106f3e0003fffb030907010c0800020f0d04060b0e0a030500000000000000000000000000000000000000000000000000000000000000000000000000000000000000000000006000000000000000000000000000000000000000000000000000000000000000100000000000000000000000000000000000000000000000000000000000630dc500000000000000000000000000000000000000000000000000000000006319fa0000000000000000000000000000000000000000000000000000000000632d680000000000000000000000000000000000000000000000000000000000632d680000000000000000000000000000000000000000000000000000000000632d680000000000000000000000000000000000000000000000000000000000632d680000000000000000000000000000000000000000000000000000000000633a8c0000000000000000000000000000000000000000000000000000000000633a8c0000000000000000000000000000000000000000000000000000000000633f1c0000000000000000000000000000000000000000000000000000000000634f070000000000000000000000000000000000000000000000000000000000634f070000000000000000000000000000000000000000000000000000000000634f090000000000000000000000000000000000000000000000000000000000634f090000000000000000000000000000000000000000000000000000000000636a6600000000000000000000000000000000000000000000000000000000006372de0000000000000000000000000000000000000000000000000000000000637c20"
                            },
                            {
                                "name": "_rs",
                                "type": "bytes32[]",
                                "value": [
                                    "0x09ed967875da6cdadde4afaf89f89ee0576227a0c7486ba257d791e0ba1a0e56",
                                    "0x1dfdcf214f3da575d3170948b25bd31c943df60c75369b63cb8b0c244d1dacc2",
                                    "0x9bfac482e27ba6ecc190e3f1276de684a17784339b636ea12c276820bff27f23",
                                    "0xb17a467ddc213e86033e806dbcce8668f9e8db0790c59d66fc8ffe30467f6561",
                                    "0x4f28b38e6a99ae1f08275f80a70f561e70a8db31d274173b11de919dbb72380c",
                                    "0x95beaedae9d8f1a61039e4f8a2fffcde7a0b18ccb3da0b6feee42f61f183676a"
                                ]
                            },
                            {
                                "name": "_ss",
                                "type": "bytes32[]",
                                "value": [
                                    "0x43c0c4af46032d1f47f90a19eb52a4e4e21a65229c5ece77bb981fd9693375ed",
                                    "0x74af097b1caff8832854c2ca4f19a754dd3bb712c5de628d0ac4bd6f0cde976c",
                                    "0x72d6755b5933dffdca4298b6a2c6efbf2a1d469a8ece27dcd7704877e9eff451",
                                    "0x0cade9e400199e790eb24fb9f0fb4766135842aed21f4a0c204714a56cbc6bb8",
                                    "0x07eaa14949f2ac014146140297d0f9e26a557d58d9e84063d443b422e2b99734",
                                    "0x197caf14378f15dbe8debd4004934743514329321a19c9f1321aaf526a430e49"
                                ]
                            },
                            {
                                "name": "_rawVs",
                                "type": "bytes32",
                                "value": "0x0101000000000000000000000000000000000000000000000000000000000000"
                            }
                        ],
                        "constructorArguments": "",
                        "name": "transmit",
                        "returnParams": [],
                        "signature": "transmit(bytes,bytes32[],bytes32[],bytes32)"
                    },
                    "errorInfo": "",
                    "fromAddress": "0xd22c87dc7a3f12dcbb75cebda2e96f6766ae114f",
                    "gasUsed": 176219,
                    "id": 0,
                    "methodDecoded": true,
                    "operation": "CALL",
                    "output": "",
                    "revert": false,
                    "revertMessage": "",
                    "selector": "0xc9807539",
                    "status": true,
                    "value": "0"
                },
                "nodeType": 0
            },
            "1": {
                "invocation": {
                    "address": "0x0000000000000000000000000000000000000001",
                    "callData": "0xb787f3e7c092d8f5a5119010b75b0aacdbfb5ca416fc76486f9a2773000000000000000000000000000000000000000000000000000000000000001c09ed967875da6cdadde4afaf89f89ee0576227a0c7486ba257d791e0ba1a0e5643c0c4af46032d1f47f90a19eb52a4e4e21a65229c5ece77bb981fd9693375ed",
                    "decodedMethod": {
                        "callParams": [
                            {
                                "name": "hash",
                                "type": "bytes32",
                                "value": "0x3467a8e6b787f3e7c092d8f5a5119010b75b0aacdbfb5ca416fc76486f9a2773"
                            },
                            {
                                "name": "v",
                                "type": "uint256",
                                "value": "28"
                            },
                            {
                                "name": "r",
                                "type": "bytes32",
                                "value": "0x09ed967875da6cdadde4afaf89f89ee0576227a0c7486ba257d791e0ba1a0e56"
                            },
                            {
                                "name": "s",
                                "type": "bytes32",
                                "value": "0x43c0c4af46032d1f47f90a19eb52a4e4e21a65229c5ece77bb981fd9693375ed"
                            }
                        ],
                        "constructorArguments": "",
                        "name": "ecrecover",
                        "returnParams": [
                            {
                                "name": "",
                                "type": "address",
                                "value": "0x0afa6c004b3306e547107bba4eeab7d8c023e0ce"
                            }
                        ],
                        "signature": "ecrecover(bytes32,uint256,bytes32,bytes32)"
                    },
                    "errorInfo": "",
                    "fromAddress": "0xaba1eace8627c15324890315e942a4fbd73b70e0",
                    "gasUsed": 3000,
                    "id": 1,
                    "methodDecoded": true,
                    "operation": "STATICCALL",
                    "output": "0x0000000000000000000000000afa6c004b3306e547107bba4eeab7d8c023e0ce",
                    "revert": false,
                    "revertMessage": "",
                    "selector": "0x3467a8e6",
                    "status": true,
                    "value": "0"
                },
                "nodeType": 0
            },
            "2": {
                "invocation": {
                    "address": "0x0000000000000000000000000000000000000001",
                    "callData": "0xb787f3e7c092d8f5a5119010b75b0aacdbfb5ca416fc76486f9a2773000000000000000000000000000000000000000000000000000000000000001c1dfdcf214f3da575d3170948b25bd31c943df60c75369b63cb8b0c244d1dacc274af097b1caff8832854c2ca4f19a754dd3bb712c5de628d0ac4bd6f0cde976c",
                    "decodedMethod": {
                        "callParams": [
                            {
                                "name": "hash",
                                "type": "bytes32",
                                "value": "0x3467a8e6b787f3e7c092d8f5a5119010b75b0aacdbfb5ca416fc76486f9a2773"
                            },
                            {
                                "name": "v",
                                "type": "uint256",
                                "value": "28"
                            },
                            {
                                "name": "r",
                                "type": "bytes32",
                                "value": "0x1dfdcf214f3da575d3170948b25bd31c943df60c75369b63cb8b0c244d1dacc2"
                            },
                            {
                                "name": "s",
                                "type": "bytes32",
                                "value": "0x74af097b1caff8832854c2ca4f19a754dd3bb712c5de628d0ac4bd6f0cde976c"
                            }
                        ],
                        "constructorArguments": "",
                        "name": "ecrecover",
                        "returnParams": [
                            {
                                "name": "",
                                "type": "address",
                                "value": "0x656fc633eb33cf5dad0bcea0e42cde85fb7a4ab8"
                            }
                        ],
                        "signature": "ecrecover(bytes32,uint256,bytes32,bytes32)"
                    },
                    "errorInfo": "",
                    "fromAddress": "0xaba1eace8627c15324890315e942a4fbd73b70e0",
                    "gasUsed": 3000,
                    "id": 2,
                    "methodDecoded": true,
                    "operation": "STATICCALL",
                    "output": "0x000000000000000000000000656fc633eb33cf5dad0bcea0e42cde85fb7a4ab8",
                    "revert": false,
                    "revertMessage": "",
                    "selector": "0x3467a8e6",
                    "status": true,
                    "value": "0"
                },
                "nodeType": 0
            },
            "3": {
                "invocation": {
                    "address": "0x0000000000000000000000000000000000000001",
                    "callData": "0xb787f3e7c092d8f5a5119010b75b0aacdbfb5ca416fc76486f9a2773000000000000000000000000000000000000000000000000000000000000001b9bfac482e27ba6ecc190e3f1276de684a17784339b636ea12c276820bff27f2372d6755b5933dffdca4298b6a2c6efbf2a1d469a8ece27dcd7704877e9eff451",
                    "decodedMethod": {
                        "callParams": [
                            {
                                "name": "hash",
                                "type": "bytes32",
                                "value": "0x3467a8e6b787f3e7c092d8f5a5119010b75b0aacdbfb5ca416fc76486f9a2773"
                            },
                            {
                                "name": "v",
                                "type": "uint256",
                                "value": "27"
                            },
                            {
                                "name": "r",
                                "type": "bytes32",
                                "value": "0x9bfac482e27ba6ecc190e3f1276de684a17784339b636ea12c276820bff27f23"
                            },
                            {
                                "name": "s",
                                "type": "bytes32",
                                "value": "0x72d6755b5933dffdca4298b6a2c6efbf2a1d469a8ece27dcd7704877e9eff451"
                            }
                        ],
                        "constructorArguments": "",
                        "name": "ecrecover",
                        "returnParams": [
                            {
                                "name": "",
                                "type": "address",
                                "value": "0xbd34530f411130fd7acb88b8251009a0829379aa"
                            }
                        ],
                        "signature": "ecrecover(bytes32,uint256,bytes32,bytes32)"
                    },
                    "errorInfo": "",
                    "fromAddress": "0xaba1eace8627c15324890315e942a4fbd73b70e0",
                    "gasUsed": 3000,
                    "id": 3,
                    "methodDecoded": true,
                    "operation": "STATICCALL",
                    "output": "0x000000000000000000000000bd34530f411130fd7acb88b8251009a0829379aa",
                    "revert": false,
                    "revertMessage": "",
                    "selector": "0x3467a8e6",
                    "status": true,
                    "value": "0"
                },
                "nodeType": 0
            },
            "4": {
                "invocation": {
                    "address": "0x0000000000000000000000000000000000000001",
                    "callData": "0xb787f3e7c092d8f5a5119010b75b0aacdbfb5ca416fc76486f9a2773000000000000000000000000000000000000000000000000000000000000001bb17a467ddc213e86033e806dbcce8668f9e8db0790c59d66fc8ffe30467f65610cade9e400199e790eb24fb9f0fb4766135842aed21f4a0c204714a56cbc6bb8",
                    "decodedMethod": {
                        "callParams": [
                            {
                                "name": "hash",
                                "type": "bytes32",
                                "value": "0x3467a8e6b787f3e7c092d8f5a5119010b75b0aacdbfb5ca416fc76486f9a2773"
                            },
                            {
                                "name": "v",
                                "type": "uint256",
                                "value": "27"
                            },
                            {
                                "name": "r",
                                "type": "bytes32",
                                "value": "0xb17a467ddc213e86033e806dbcce8668f9e8db0790c59d66fc8ffe30467f6561"
                            },
                            {
                                "name": "s",
                                "type": "bytes32",
                                "value": "0x0cade9e400199e790eb24fb9f0fb4766135842aed21f4a0c204714a56cbc6bb8"
                            }
                        ],
                        "constructorArguments": "",
                        "name": "ecrecover",
                        "returnParams": [
                            {
                                "name": "",
                                "type": "address",
                                "value": "0x5007b477f939646b4e4416afcef6b00567f5f078"
                            }
                        ],
                        "signature": "ecrecover(bytes32,uint256,bytes32,bytes32)"
                    },
                    "errorInfo": "",
                    "fromAddress": "0xaba1eace8627c15324890315e942a4fbd73b70e0",
                    "gasUsed": 3000,
                    "id": 4,
                    "methodDecoded": true,
                    "operation": "STATICCALL",
                    "output": "0x0000000000000000000000005007b477f939646b4e4416afcef6b00567f5f078",
                    "revert": false,
                    "revertMessage": "",
                    "selector": "0x3467a8e6",
                    "status": true,
                    "value": "0"
                },
                "nodeType": 0
            },
            "5": {
                "invocation": {
                    "address": "0x0000000000000000000000000000000000000001",
                    "callData": "0xb787f3e7c092d8f5a5119010b75b0aacdbfb5ca416fc76486f9a2773000000000000000000000000000000000000000000000000000000000000001b4f28b38e6a99ae1f08275f80a70f561e70a8db31d274173b11de919dbb72380c07eaa14949f2ac014146140297d0f9e26a557d58d9e84063d443b422e2b99734",
                    "decodedMethod": {
                        "callParams": [
                            {
                                "name": "hash",
                                "type": "bytes32",
                                "value": "0x3467a8e6b787f3e7c092d8f5a5119010b75b0aacdbfb5ca416fc76486f9a2773"
                            },
                            {
                                "name": "v",
                                "type": "uint256",
                                "value": "27"
                            },
                            {
                                "name": "r",
                                "type": "bytes32",
                                "value": "0x4f28b38e6a99ae1f08275f80a70f561e70a8db31d274173b11de919dbb72380c"
                            },
                            {
                                "name": "s",
                                "type": "bytes32",
                                "value": "0x07eaa14949f2ac014146140297d0f9e26a557d58d9e84063d443b422e2b99734"
                            }
                        ],
                        "constructorArguments": "",
                        "name": "ecrecover",
                        "returnParams": [
                            {
                                "name": "",
                                "type": "address",
                                "value": "0x9efb09cdfbe41c666f8441aa5f8d84ec8c8f0445"
                            }
                        ],
                        "signature": "ecrecover(bytes32,uint256,bytes32,bytes32)"
                    },
                    "errorInfo": "",
                    "fromAddress": "0xaba1eace8627c15324890315e942a4fbd73b70e0",
                    "gasUsed": 3000,
                    "id": 5,
                    "methodDecoded": true,
                    "operation": "STATICCALL",
                    "output": "0x0000000000000000000000009efb09cdfbe41c666f8441aa5f8d84ec8c8f0445",
                    "revert": false,
                    "revertMessage": "",
                    "selector": "0x3467a8e6",
                    "status": true,
                    "value": "0"
                },
                "nodeType": 0
            },
            "6": {
                "invocation": {
                    "address": "0x0000000000000000000000000000000000000001",
                    "callData": "0xb787f3e7c092d8f5a5119010b75b0aacdbfb5ca416fc76486f9a2773000000000000000000000000000000000000000000000000000000000000001b95beaedae9d8f1a61039e4f8a2fffcde7a0b18ccb3da0b6feee42f61f183676a197caf14378f15dbe8debd4004934743514329321a19c9f1321aaf526a430e49",
                    "decodedMethod": {
                        "callParams": [
                            {
                                "name": "hash",
                                "type": "bytes32",
                                "value": "0x3467a8e6b787f3e7c092d8f5a5119010b75b0aacdbfb5ca416fc76486f9a2773"
                            },
                            {
                                "name": "v",
                                "type": "uint256",
                                "value": "27"
                            },
                            {
                                "name": "r",
                                "type": "bytes32",
                                "value": "0x95beaedae9d8f1a61039e4f8a2fffcde7a0b18ccb3da0b6feee42f61f183676a"
                            },
                            {
                                "name": "s",
                                "type": "bytes32",
                                "value": "0x197caf14378f15dbe8debd4004934743514329321a19c9f1321aaf526a430e49"
                            }
                        ],
                        "constructorArguments": "",
                        "name": "ecrecover",
                        "returnParams": [
                            {
                                "name": "",
                                "type": "address",
                                "value": "0x076b12d219a32613cd370ea9649a860114d3015e"
                            }
                        ],
                        "signature": "ecrecover(bytes32,uint256,bytes32,bytes32)"
                    },
                    "errorInfo": "",
                    "fromAddress": "0xaba1eace8627c15324890315e942a4fbd73b70e0",
                    "gasUsed": 3000,
                    "id": 6,
                    "methodDecoded": true,
                    "operation": "STATICCALL",
                    "output": "0x000000000000000000000000076b12d219a32613cd370ea9649a860114d3015e",
                    "revert": false,
                    "revertMessage": "",
                    "selector": "0x3467a8e6",
                    "status": true,
                    "value": "0"
                },
                "nodeType": 0
            },
            "7": {
                "event": {
                    "contract": "0xaba1eace8627c15324890315e942a4fbd73b70e0",
                    "decodedLog": {
                        "name": "NewTransmission",
                        "params": [
                            {
                                "name": "aggregatorRoundId",
                                "type": "uint32",
                                "value": "6,921"
                            },
                            {
                                "name": "answer",
                                "type": "int192",
                                "value": "6,504,220"
                            },
                            {
                                "name": "transmitter",
                                "type": "address",
                                "value": "0xd22c87dc7a3f12dcbb75cebda2e96f6766ae114f"
                            },
                            {
                                "name": "observations",
                                "type": "int192[]",
                                "value": [
                                    "6,491,589",
                                    "6,494,714",
                                    "6,499,688",
                                    "6,499,688",
                                    "6,499,688",
                                    "6,499,688",
                                    "6,503,052",
                                    "6,503,052",
                                    "6,504,220",
                                    "6,508,295",
                                    "6,508,295",
                                    "6,508,297",
                                    "6,508,297",
                                    "6,515,302",
                                    "6,517,470",
                                    "6,519,840"
                                ]
                            },
                            {
                                "name": "observers",
                                "type": "bytes",
                                "value": "0x0907010c0800020f0d04060b0e0a0305"
                            },
                            {
                                "name": "rawReportContext",
                                "type": "bytes32",
                                "value": "0x000000000000000000000092135a2f383cfc61511d181ace106f3e0003fffb03"
                            }
                        ],
                        "signature": "NewTransmission(uint32,int192,address,int192[],bytes,bytes32)"
                    },
                    "id": 7,
                    "logData": "0x0000000000000000000000000000000000000000000000000000000000633f1c000000000000000000000000d22c87dc7a3f12dcbb75cebda2e96f6766ae114f00000000000000000000000000000000000000000000000000000000000000a000000000000000000000000000000000000000000000000000000000000002c0000000000000000000000092135a2f383cfc61511d181ace106f3e0003fffb0300000000000000000000000000000000000000000000000000000000000000100000000000000000000000000000000000000000000000000000000000630dc500000000000000000000000000000000000000000000000000000000006319fa0000000000000000000000000000000000000000000000000000000000632d680000000000000000000000000000000000000000000000000000000000632d680000000000000000000000000000000000000000000000000000000000632d680000000000000000000000000000000000000000000000000000000000632d680000000000000000000000000000000000000000000000000000000000633a8c0000000000000000000000000000000000000000000000000000000000633a8c0000000000000000000000000000000000000000000000000000000000633f1c0000000000000000000000000000000000000000000000000000000000634f070000000000000000000000000000000000000000000000000000000000634f070000000000000000000000000000000000000000000000000000000000634f090000000000000000000000000000000000000000000000000000000000634f090000000000000000000000000000000000000000000000000000000000636a6600000000000000000000000000000000000000000000000000000000006372de0000000000000000000000000000000000000000000000000000000000637c2000000000000000000000000000000000000000000000000000000000000000100907010c0800020f0d04060b0e0a030500000000000000000000000000000000",
                    "logDecoded": true,
                    "operation": "EVENT",
                    "revert": false,
                    "status": true,
                    "topics": [
                        "0xf6a97944f31ea060dfde0566e4167c1a1082551e64b60ecb14d599a9d023d451",
                        "0x0000000000000000000000000000000000000000000000000000000000001b09"
                    ]
                },
                "nodeType": 1
            },
            "8": {
                "event": {
                    "contract": "0xaba1eace8627c15324890315e942a4fbd73b70e0",
                    "decodedLog": {
                        "name": "NewRound",
                        "params": [
                            {
                                "name": "roundId",
                                "type": "uint256",
                                "value": "6,921"
                            },
                            {
                                "name": "startedBy",
                                "type": "address",
                                "value": "0x0000000000000000000000000000000000000000"
                            },
                            {
                                "name": "startedAt",
                                "type": "uint256",
                                "value": "1,662,668,253"
                            }
                        ],
                        "signature": "NewRound(uint256,address,uint256)"
                    },
                    "id": 8,
                    "logData": "0x00000000000000000000000000000000000000000000000000000000631a4ddd",
                    "logDecoded": true,
                    "operation": "EVENT",
                    "revert": false,
                    "status": true,
                    "topics": [
                        "0x0109fc6f55cf40689f02fbaad7af7fe7bbac8a3d2186600afc7d3e10cac60271",
                        "0x0000000000000000000000000000000000000000000000000000000000001b09",
                        "0x0000000000000000000000000000000000000000000000000000000000000000"
                    ]
                },
                "nodeType": 1
            },
            "9": {
                "event": {
                    "contract": "0xaba1eace8627c15324890315e942a4fbd73b70e0",
                    "decodedLog": {
                        "name": "AnswerUpdated",
                        "params": [
                            {
                                "name": "current",
                                "type": "int256",
                                "value": "6,504,220"
                            },
                            {
                                "name": "roundId",
                                "type": "uint256",
                                "value": "6,921"
                            },
                            {
                                "name": "updatedAt",
                                "type": "uint256",
                                "value": "1,662,668,253"
                            }
                        ],
                        "signature": "AnswerUpdated(int256,uint256,uint256)"
                    },
                    "id": 9,
                    "logData": "0x00000000000000000000000000000000000000000000000000000000631a4ddd",
                    "logDecoded": true,
                    "operation": "EVENT",
                    "revert": false,
                    "status": true,
                    "topics": [
                        "0x0559884fd3a460db3073b7fc896cc77986f16e378210ded43186175bf646fc5f",
                        "0x0000000000000000000000000000000000000000000000000000000000633f1c",
                        "0x0000000000000000000000000000000000000000000000000000000000001b09"
                    ]
                },
                "nodeType": 1
            }
        },
        "gasFlame": [
            {
                "children": [
                    {
                        "children": [
                            {
                                "children": [],
                                "depth": 0,
                                "name": "Initial Gas",
                                "value": 31792
                            },
                            {
                                "children": [
                                    {
                                        "children": [],
                                        "depth": 1,
                                        "name": "ecrecover",
                                        "value": 3000
                                    },
                                    {
                                        "children": [],
                                        "depth": 1,
                                        "name": "ecrecover",
                                        "value": 3000
                                    },
                                    {
                                        "children": [],
                                        "depth": 1,
                                        "name": "ecrecover",
                                        "value": 3000
                                    },
                                    {
                                        "children": [],
                                        "depth": 1,
                                        "name": "ecrecover",
                                        "value": 3000
                                    },
                                    {
                                        "children": [],
                                        "depth": 1,
                                        "name": "ecrecover",
                                        "value": 3000
                                    },
                                    {
                                        "children": [],
                                        "depth": 1,
                                        "name": "ecrecover",
                                        "value": 3000
                                    }
                                ],
                                "depth": 0,
                                "name": "Executed Gas",
                                "value": 144427
                            }
                        ],
                        "depth": -1,
                        "name": "Actual Gas Used",
                        "value": 176219
                    },
                    {
                        "children": [],
                        "depth": -1,
                        "name": "Refunded Gas",
                        "value": 0
                    }
                ],
                "depth": -2,
                "name": "Total Gas",
                "value": 176219
            }
        ],
        "isConfirmed": true,
        "mainTrace": [
            {
                "children": [
                    {
                        "children": [
                            {
                                "children": [],
                                "depth": 1,
                                "id": 1,
                                "order": 1
                            },
                            {
                                "children": [],
                                "depth": 1,
                                "id": 2,
                                "order": 2
                            },
                            {
                                "children": [],
                                "depth": 1,
                                "id": 3,
                                "order": 3
                            },
                            {
                                "children": [],
                                "depth": 1,
                                "id": 4,
                                "order": 4
                            },
                            {
                                "children": [],
                                "depth": 1,
                                "id": 5,
                                "order": 5
                            },
                            {
                                "children": [],
                                "depth": 1,
                                "id": 6,
                                "order": 6
                            },
                            {
                                "children": [],
                                "depth": 1,
                                "id": 7,
                                "order": 7
                            },
                            {
                                "children": [],
                                "depth": 1,
                                "id": 8,
                                "order": 8
                            },
                            {
                                "children": [],
                                "depth": 1,
                                "id": 9,
                                "order": 9
                            }
                        ],
                        "depth": 0,
                        "id": 0,
                        "order": 0
                    }
                ],
                "depth": -1,
                "id": -1,
                "order": -1
            }
        ],
        "mainTraceNodeCount": 10,
        "parentIdMap": {
            "0": -1,
            "1": 0,
            "2": 0,
            "3": 0,
            "4": 0,
            "5": 0,
            "6": 0,
            "7": 0,
            "8": 0,
            "9": 0
        },
        "tidyTrace": [
            {
                "children": [
                    {
                        "children": [
                            {
                                "children": [],
                                "depth": 1,
                                "id": 7,
                                "order": 7
                            },
                            {
                                "children": [],
                                "depth": 1,
                                "id": 8,
                                "order": 8
                            },
                            {
                                "children": [],
                                "depth": 1,
                                "id": 9,
                                "order": 9
                            }
                        ],
                        "depth": 0,
                        "id": 0,
                        "order": 0
                    }
                ],
                "depth": -1,
                "id": -1,
                "order": -1
            }
        ],
        "tidyTraceNodeCount": 4
    },
    "state_change": {
        "stateChanges": [
            {
                "address": "0xaba1eace8627c15324890315e942a4fbd73b70e0",
                "erc": "",
                "slots": [
                    {
                        "current": "0x0006000600060006000600060006000600060006000600060006000600060006",
                        "key": "0x0000000000000000000000000000000000000000000000000000000000000004",
                        "prev": "0x0005000500050005000500050005000500050005000500050005000500050005"
                    },
                    {
                        "current": "0x00000000000000000000000000000000000000000000000022e5d06c5d7fec01",
                        "key": "0x0000000000000000000000000000000000000000000000000000000000000008",
                        "prev": "0x0000000000000000000000000000000000000000000000000000000000000001"
                    },
                    {
                        "current": "0x00000000631a4ddd000000000000000000000000000000000000000000633f1c",
                        "key": "0x771bfaa17a8ddd149d32ac528b8e3adf67d2d5c1956113977720abb767adda13",
                        "prev": "0x0000000000000000000000000000000000000000000000000000000000000000"
                    },
                    {
                        "current": "0x00000000000000001b09050003fffb0392135a2f383cfc61511d181ace106f3e",
                        "key": "0x000000000000000000000000000000000000000000000000000000000000002a",
                        "prev": "0x00000000000000001b08050003ff3e0492135a2f383cfc61511d181ace106f3e"
                    }
                ],
                "storageVariables": [
                    {
                        "name": "s_hotVars",
                        "type": "struct OffchainAggregator.HotVars",
                        "value": {
                            "fields": [
                                {
                                    "name": "latestConfigDigest",
                                    "type": "bytes16",
                                    "value": {
                                        "current": "0x92135a2f383cfc61511d181ace106f3e",
                                        "prev": "0x92135a2f383cfc61511d181ace106f3e",
                                        "typeTag": 1
                                    }
                                },
                                {
                                    "name": "latestEpochAndRound",
                                    "type": "uint40",
                                    "value": {
                                        "current": "67107587",
                                        "prev": "67059204",
                                        "typeTag": 1
                                    }
                                },
                                {
                                    "name": "threshold",
                                    "type": "uint8",
                                    "value": {
                                        "current": "5",
                                        "prev": "5",
                                        "typeTag": 1
                                    }
                                },
                                {
                                    "name": "latestAggregatorRoundId",
                                    "type": "uint32",
                                    "value": {
                                        "current": "6921",
                                        "prev": "6920",
                                        "typeTag": 1
                                    }
                                }
                            ],
                            "typeTag": 3
                        }
                    },
                    {
                        "name": "s_oracleObservationsCounts",
                        "type": "uint16[31]",
                        "value": {
                            "elemType": "uint16",
                            "elems": [
                                {
                                    "index": 0,
                                    "value": {
                                        "current": "6",
                                        "prev": "5",
                                        "typeTag": 1
                                    }
                                },
                                {
                                    "index": 1,
                                    "value": {
                                        "current": "6",
                                        "prev": "5",
                                        "typeTag": 1
                                    }
                                },
                                {
                                    "index": 2,
                                    "value": {
                                        "current": "6",
                                        "prev": "5",
                                        "typeTag": 1
                                    }
                                },
                                {
                                    "index": 3,
                                    "value": {
                                        "current": "6",
                                        "prev": "5",
                                        "typeTag": 1
                                    }
                                },
                                {
                                    "index": 4,
                                    "value": {
                                        "current": "6",
                                        "prev": "5",
                                        "typeTag": 1
                                    }
                                },
                                {
                                    "index": 5,
                                    "value": {
                                        "current": "6",
                                        "prev": "5",
                                        "typeTag": 1
                                    }
                                },
                                {
                                    "index": 6,
                                    "value": {
                                        "current": "6",
                                        "prev": "5",
                                        "typeTag": 1
                                    }
                                },
                                {
                                    "index": 7,
                                    "value": {
                                        "current": "6",
                                        "prev": "5",
                                        "typeTag": 1
                                    }
                                },
                                {
                                    "index": 8,
                                    "value": {
                                        "current": "6",
                                        "prev": "5",
                                        "typeTag": 1
                                    }
                                },
                                {
                                    "index": 9,
                                    "value": {
                                        "current": "6",
                                        "prev": "5",
                                        "typeTag": 1
                                    }
                                },
                                {
                                    "index": 10,
                                    "value": {
                                        "current": "6",
                                        "prev": "5",
                                        "typeTag": 1
                                    }
                                },
                                {
                                    "index": 11,
                                    "value": {
                                        "current": "6",
                                        "prev": "5",
                                        "typeTag": 1
                                    }
                                },
                                {
                                    "index": 12,
                                    "value": {
                                        "current": "6",
                                        "prev": "5",
                                        "typeTag": 1
                                    }
                                },
                                {
                                    "index": 13,
                                    "value": {
                                        "current": "6",
                                        "prev": "5",
                                        "typeTag": 1
                                    }
                                },
                                {
                                    "index": 14,
                                    "value": {
                                        "current": "6",
                                        "prev": "5",
                                        "typeTag": 1
                                    }
                                }
                            ],
                            "typeTag": 2
                        }
                    },
                    {
                        "name": "s_gasReimbursementsLinkWei",
                        "type": "uint256[31]",
                        "value": {
                            "elemType": "uint256",
                            "elems": [
                                {
                                    "index": 0,
                                    "value": {
                                        "current": "2514645130800000001",
                                        "prev": "1",
                                        "typeTag": 1
                                    }
                                }
                            ],
                            "typeTag": 2
                        }
                    },
                    {
                        "name": "s_transmissions",
                        "type": "mapping(uint32 => struct OffchainAggregator.Transmission)",
                        "value": {
                            "pairs": [
                                {
                                    "key": "6921",
                                    "value": {
                                        "fields": [
                                            {
                                                "name": "answer",
                                                "type": "int192",
                                                "value": {
                                                    "current": "6504220",
                                                    "prev": "0",
                                                    "typeTag": 1
                                                }
                                            },
                                            {
                                                "name": "timestamp",
                                                "type": "uint64",
                                                "value": {
                                                    "current": "1662668253",
                                                    "prev": "0",
                                                    "typeTag": 1
                                                }
                                            }
                                        ],
                                        "typeTag": 3
                                    }
                                }
                            ],
                            "typeTag": 4
                        }
                    }
                ]
            }
        ]
    }
}