{
    "balance_change": {
        "balanceChanges": [
            {
                "account": "0x14b047b46106f7526b82dd00ab17c128f400915e",
                "assets": [
                    {
                        "address": "0x761d38e5ddf6ccf6cf7c55759d5210750b5d60f3",
                        "amount": "930,371,601.34023572",
                        "iconUrl": "https://assets.blocksec.com/icon/e661c8e13a6b9a258a0c32a2cad80431048d2a7336799e313d684c2e3986e59c.png",
                        "isERC1155": false,
                        "isERC721": false,
                        "sign": false,
                        "value": "125.7037874"
                    }
                ]
            },
            {
                "account": "0x6cc5f688a315f3dc28a7781717a9a798a59fda7b",
                "assets": [
                    {
                        "address": "0x761d38e5ddf6ccf6cf7c55759d5210750b5d60f3",
                        "amount": "930,371,601.34023572",
                        "iconUrl": "https://assets.blocksec.com/icon/e661c8e13a6b9a258a0c32a2cad80431048d2a7336799e313d684c2e3986e59c.png",
                        "isERC1155": false,
                        "isERC721": false,
                        "sign": true,
                        "value": "125.7037874"
                    }
                ]
            }
        ]
    },
    "profile": {
        "basic_info": {
            "baseFee": "1.805386715",
            "blockNumber": 20620132,
            "callData": "0xa9059cbb0000000000000000000000006cc5f688a315f3dc28a7781717a9a798a59fda7b0000000000000000000000000000000000000000030195d991d0fb5e2c23d000",
            "debugEnable": true,
            "errorInfo": "",
            "eventCount": 1,
            "feeRecipient": "0x95222290dd7278aa3ddd389cc1e1d165cc4bafe5",
            "formatValue": "0",
            "gasLimit": 55200,
            "gasPrice": "3.805386715",
            "gasUsed": 29859,
            "intTxnCount": 0,
            "internalRevert": false,
            "internalRevertMessage": "",
            "isContractCreation": false,
            "isFlashloan": false,
            "maxFee": "7",
            "nonce": 0,
            "overwritedBlockNumber": -1,
            "priorityFee": "2",
            "receiver": "0x761d38e5ddf6ccf6cf7c55759d5210750b5d60f3",
            "revertMessage": "",
            "sender": "0x14b047b46106f7526b82dd00ab17c128f400915e",
            "simulationEnable": true,
            "sourceTxnHash": "0x0716515c50bbf0e723758c3e106b6dae776e24f93c938a079c523e9483e292c6",
            "status": true,
            "timestamp": "2024-08-27T13:10:35Z",
            "transactionFee": "0.000113625041923185",
            "txnHash": "0x0716515c50bbf0e723758c3e106b6dae776e24f93c938a079c523e9483e292c6",
            "txnIndex": 52,
            "type": 2,
            "value": "0"
        },
        "fund_flow": [
            {
                "amount": "930,371,601.34023572",
                "from": "0x14b047b46106f7526b82dd00ab17c128f400915e",
                "id": 1,
                "isERC1155": false,
                "isERC721": false,
                "isReverted": false,
                "order": 1,
                "to": "0x6cc5f688a315f3dc28a7781717a9a798a59fda7b",
                "token": "0x761d38e5ddf6ccf6cf7c55759d5210750b5d60f3"
            }
        ],
        "token_infos": [
            {
                "address": "0x761d38e5ddf6ccf6cf7c55759d5210750b5d60f3",
                "decimals": 18
            },
            {
                "address": "0xc02aaa39b223fe8d0a0e5c4f27ead9083c756cc2",
                "decimals": 18
            },
            {
                "address": "0xeeeeeeeeeeeeeeeeeeeeeeeeeeeeeeeeeeeeeeee",
                "decimals": 18
            }
        ]
    },
    "address_label": {
        "labels": [
            {
                "address": "0x0000000000000000000000000000000000000004",
                "label": "Precompiled"
            },
            {
                "address": "0xeeeeeeeeeeeeeeeeeeeeeeeeeeeeeeeeeeeeeeee",
                "label": "Ether"
            },
            {
                "address": "0x6cc5f688a315f3dc28a7781717a9a798a59fda7b",
                "label": "OKX"
            },
            {
                "address": "0x761d38e5ddf6ccf6cf7c55759d5210750b5d60f3",
                "label": "Dogelon: ELON Token"
            },
            {
                "address": "0x0000000000000000000000000000000000000001",
                "label": "Precompiled"
            },
            {
                "address": "0x0000000000000000000000000000000000000002",
                "label": "Precompiled"
            },
            {
                "address": "0x0000000000000000000000000000000000000003",
                "label": "Precompiled"
            }
        ]
    },
    "trace": {
        "accountLabels": null,
        "dataMap": {
            "-1": {
                "invocation": {
                    "address": "0x14b047b46106f7526b82dd00ab17c128f400915e",
                    "callData": "",
                    "decodedMethod": null,
                    "errorInfo": "",
                    "fromAddress": "",
                    "gasUsed": 0,
                    "id": -1,
                    "methodDecoded": false,
                    "operation": "",
                    "output": "",
                    "revert": false,
                    "revertMessage": "",
                    "selector": "",
                    "status": false,
                    "value": ""
                },
                "nodeType": 0
            },
            "0": {
                "invocation": {
                    "address": "0x761d38e5ddf6ccf6cf7c55759d5210750b5d60f3",
                    "callData": "0x0000000000000000000000006cc5f688a315f3dc28a7781717a9a798a59fda7b0000000000000000000000000000000000000000030195d991d0fb5e2c23d000",
                    "decodedMethod": {
                        "callParams": [
                            {
                                "name": "recipient",
                                "type": "address",
                                "value": "0x6cc5f688a315f3dc28a7781717a9a798a59fda7b"
                            },
                            {
                                "decimalAvailable": true,
                                "name": "amount",
                                "type": "uint256",
                                "value": "930,371,601,340,235,720,000,000,000"
                            }
                        ],
                        "constructorArguments": "",
                        "name": "transfer",
                        "returnParams": [
                            {
                                "name": "",
                                "type": "bool",
                                "value": true
                            }
                        ],
                        "signature": "transfer(address,uint256)"
                    },
                    "errorInfo": "",
                    "fromAddress": "0x14b047b46106f7526b82dd00ab17c128f400915e",
                    "gasUsed": 29859,
                    "id": 0,
                    "methodDecoded": true,
                    "operation": "CALL",
                    "output": "0x0000000000000000000000000000000000000000000000000000000000000001",
                    "revert": false,
                    "revertMessage": "",
                    "selector": "0xa9059cbb",
                    "status": true,
                    "value": "0"
                },
                "nodeType": 0
            },
            "1": {
                "event": {
                    "contract": "0x761d38e5ddf6ccf6cf7c55759d5210750b5d60f3",
                    "decodedLog": {
                        "name": "Transfer",
                        "params": [
                            {
                                "name": "from",
                                "type": "address",
                                "value": "0x14b047b46106f7526b82dd00ab17c128f400915e"
                            },
                            {
                                "name": "to",
                                "type": "address",
                                "value": "0x6cc5f688a315f3dc28a7781717a9a798a59fda7b"
                            },
                            {
                                "decimalAvailable": true,
                                "name": "value",
                                "type": "uint256",
                                "value": "930,371,601,340,235,720,000,000,000"
                            }
                        ],
                        "signature": "Transfer(address,address,uint256)"
                    },
                    "id": 1,
                    "logData": "0x0000000000000000000000000000000000000000030195d991d0fb5e2c23d000",
                    "logDecoded": true,
                    "operation": "EVENT",
                    "revert": false,
                    "status": true,
                    "topics": [
                        "0xddf252ad1be2c89b69c2b068fc378daa952ba7f163c4a11628f55a4df523b3ef",
                        "0x00000000000000000000000014b047b46106f7526b82dd00ab17c128f400915e",
                        "0x0000000000000000000000006cc5f688a315f3dc28a7781717a9a798a59fda7b"
                    ]
                },
                "nodeType": 1
            }
        },
        "gasFlame": [
            {
                "children": [
                    {
                        "children": [
                            {
                                "children": [],
                                "depth": 0,
                                "name": "Initial Gas",
                                "value": 21692
                            },
                            {
                                "children": [],
                                "depth": 0,
                                "name": "Executed Gas",
                                "value": 12967
                            }
                        ],
                        "depth": -1,
                        "name": "Actual Gas Used",
                        "value": 29859
                    },
                    {
                        "children": [],
                        "depth": -1,
                        "name": "Refunded Gas",
                        "value": 4800
                    }
                ],
                "depth": -2,
                "name": "Total Gas",
                "value": 34659
            }
        ],
        "isConfirmed": true,
        "mainTrace": [
            {
                "children": [
                    {
                        "children": [
                            {
                                "children": [],
                                "depth": 1,
                                "id": 1,
                                "order": 1
                            }
                        ],
                        "depth": 0,
                        "id": 0,
                        "order": 0
                    }
                ],
                "depth": -1,
                "id": -1,
                "order": -1
            }
        ],
        "mainTraceNodeCount": 2,
        "parentIdMap": {
            "0": -1,
            "1": 0
        },
        "tidyTrace": [
            {
                "children": [
                    {
                        "children": [
                            {
                                "children": [],
                                "depth": 1,
                                "id": 1,
                                "order": 1
                            }
                        ],
                        "depth": 0,
                        "id": 0,
                        "order": 0
                    }
                ],
                "depth": -1,
                "id": -1,
                "order": -1
            }
        ],
        "tidyTraceNodeCount": 2
    },
    "state_change": {
        "stateChanges": [
            {
                "address": "0x761d38e5ddf6ccf6cf7c55759d5210750b5d60f3",
                "erc": "ERC-20",
                "slots": [
                    {
                        "current": "0x0000000000000000000000000000000000000000000000000000000000000000",
                        "key": "0x0200021b222008699e6ad339f89e1990fa29152922de66832262dab9b26b52d9",
                        "prev": "0x0000000000000000000000000000000000000000030195d991d0fb5e2c23d000"
                    },
                    {
                        "current": "0x000000000000000000000000000000000000010ba48e77730df3f0cd5614e479",
                        "key": "0xf320692c47514b5ff69503836be0506f1667cd3f5c074c801b2305e178ec6842",
                        "prev": "0x000000000000000000000000000000000000010ba18ce1997c22f56f29f11479"
                    }
                ],
                "storageVariables": [
                    {
                        "name": "_balances",
                        "type": "mapping(address => uint256)",
                        "value": {
                            "pairs": [
                                {
                                    "key": "0x14b047b46106f7526b82dd00ab17c128f400915e",
                                    "value": {
                                        "current": "0",
                                        "prev": "930371601340235720000000000",
                                        "typeTag": 1
                                    }
                                },
                                {
                                    "key": "0x6cc5f688a315f3dc28a7781717a9a798a59fda7b",
                                    "value": {
                                        "current": "21204847164469656447960822899833",
                                        "prev": "21203916792868316212240822899833",
                                        "typeTag": 1
                                    }
                                }
                            ],
                            "typeTag": 4
                        }
                    }
                ]
            }
        ]
    }
}