{
    "balance_change": {
        "balanceChanges": []
    },
    "profile": {
        "basic_info": {
            "baseFee": "",
            "blockNumber": 2044137,
            "callData": "0x90fa337d000000000000000000000000000000000000000000000000000000000000006000000000000000000000000000000000000000000000000000038d7ea4c6800000000000000000000000000001a23fd30aabf5ad53bab3093dcd4948e15cec800000000000000000000000000000000000000000000000000000000000000050000000209f5d1634b671450d0bad326fec78e473a7c5d5c90e7047010000000000000000175686476dec77fed5211440d3b6f2740080c10e1b852f7e7082ad540ecb62646c0fa9572872051874275c4300000000000000000000000000000000",
            "debugEnable": true,
            "errorInfo": "",
            "eventCount": 1,
            "feeRecipient": "0x61c808d82a3ac53231750dadc13c777b59310bd9",
            "formatValue": "0",
            "gasLimit": 1200000,
            "gasPrice": "20",
            "gasUsed": 221150,
            "intTxnCount": 7,
            "internalRevert": false,
            "internalRevertMessage": "",
            "isContractCreation": false,
            "isFlashloan": false,
            "maxFee": "",
            "nonce": 18073,
            "overwritedBlockNumber": -1,
            "priorityFee": "",
            "receiver": "0x41f274c0023f83391de4e0733c609df5a124c3d4",
            "revertMessage": "",
            "sender": "0xac4361f56c82ed59d533d45129f407015d84702a",
            "simulationEnable": true,
            "sourceTxnHash": "0x079a07fe023f283160f8dee2faba7378ce26a5c7fe45107486ba68247080de43",
            "status": true,
            "timestamp": "2016-08-10T04:15:33Z",
            "transactionFee": "0.004423",
            "txnHash": "0x079a07fe023f283160f8dee2faba7378ce26a5c7fe45107486ba68247080de43",
            "txnIndex": 0,
            "type": 0,
            "value": "0"
        },
        "fund_flow": [],
        "token_infos": [
            {
                "address": "0xc02aaa39b223fe8d0a0e5c4f27ead9083c756cc2",
                "decimals": 18
            },
            {
                "address": "0xeeeeeeeeeeeeeeeeeeeeeeeeeeeeeeeeeeeeeeee",
                "decimals": 18
            }
        ]
    },
    "address_label": {
        "labels": [
            {
                "address": "0x0000000000000000000000000000000000000003",
                "label": "Precompiled"
            },
            {
                "address": "0xeeeeeeeeeeeeeeeeeeeeeeeeeeeeeeeeeeeeeeee",
                "label": "Ether"
            },
            {
                "address": "0x41f274c0023f83391de4e0733c609df5a124c3d4",
                "label": "BTCRelay"
            },
            {
                "address": "0x0000000000000000000000000000000000000002",
                "label": "Precompiled"
            },
            {
                "address": "0x0000000000000000000000000000000000000004",
                "label": "Precompiled"
            },
            {
                "address": "0x0000000000000000000000000000000000000001",
                "label": "Precompiled"
            }
        ]
    },
    "trace": {
        "accountLabels": null,
        "dataMap": {
            "-1": {
                "invocation": {
                    "address": "0xac4361f56c82ed59d533d45129f407015d84702a",
                    "callData": "",
                    "decodedMethod": null,
                    "errorInfo": "",
                    "fromAddress": "",
                    "gasUsed": 0,
                    "id": -1,
                    "methodDecoded": false,
                    "operation": "",
                    "output": "",
                    "revert": false,
                    "revertMessage": "",
                    "selector": "",
                    "status": false,
                    "value": ""
                },
                "nodeType": 0
            },
            "0": {
                "invocation": {
                    "address": "0x41f274c0023f83391de4e0733c609df5a124c3d4",
                    "callData": "0x000000000000000000000000000000000000000000000000000000000000006000000000000000000000000000000000000000000000000000038d7ea4c6800000000000000000000000000001a23fd30aabf5ad53bab3093dcd4948e15cec800000000000000000000000000000000000000000000000000000000000000050000000209f5d1634b671450d0bad326fec78e473a7c5d5c90e7047010000000000000000175686476dec77fed5211440d3b6f2740080c10e1b852f7e7082ad540ecb62646c0fa9572872051874275c4300000000000000000000000000000000",
                    "decodedMethod": null,
                    "errorInfo": "",
                    "fromAddress": "0xac4361f56c82ed59d533d45129f407015d84702a",
                    "gasUsed": 221150,
                    "id": 0,
                    "methodDecoded": false,
                    "operation": "CALL",
                    "output": "0x0000000000000000000000000000000000000000000000000000000000067991",
                    "revert": false,
                    "revertMessage": "",
                    "selector": "0x90fa337d",
                    "status": true,
                    "value": "0"
                },
                "nodeType": 0
            },
            "1": {
                "invocation": {
                    "address": "0x0000000000000000000000000000000000000004",
                    "callData": "0x0000000000000000000000000000000000000000000000000000000000000020",
                    "decodedMethod": {
                        "callParams": [
                            {
                                "name": "data",
                                "type": "bytes",
                                "value": "0x2b8616290000000000000000000000000000000000000000000000000000000000000020"
                            }
                        ],
                        "constructorArguments": "",
                        "name": "dataCopy()",
                        "returnParams": [
                            {
                                "name": "data",
                                "type": "bytes",
                                "value": "0x2b8616290000000000000000000000000000000000000000000000000000000000000020"
                            }
                        ],
                        "signature": "dataCopy(bytes)"
                    },
                    "errorInfo": "",
                    "fromAddress": "0x41f274c0023f83391de4e0733c609df5a124c3d4",
                    "gasUsed": 21,
                    "id": 1,
                    "methodDecoded": true,
                    "operation": "CALL",
                    "output": "0x2b8616290000000000000000000000000000000000000000000000000000000000000020",
                    "revert": false,
                    "revertMessage": "",
                    "selector": "0x2b861629",
                    "status": true,
                    "value": "0"
                },
                "nodeType": 0
            },
            "2": {
                "invocation": {
                    "address": "0x0000000000000000000000000000000000000004",
                    "callData": "0x00000000000000000000000000000000000000000000000000000050000000209f5d1634b671450d0bad326fec78e473a7c5d5c90e7047010000000000000000175686476dec77fed5211440d3b6f2740080c10e1b852f7e7082ad540ecb62646c0fa9572872051874275c4300000000000000000000000000000000",
                    "decodedMethod": {
                        "callParams": [
                            {
                                "name": "data",
                                "type": "bytes",
                                "value": "0x0000000000000000000000000000000000000000000000000000000000000050000000209f5d1634b671450d0bad326fec78e473a7c5d5c90e7047010000000000000000175686476dec77fed5211440d3b6f2740080c10e1b852f7e7082ad540ecb62646c0fa9572872051874275c4300000000000000000000000000000000"
                            }
                        ],
                        "constructorArguments": "",
                        "name": "dataCopy()",
                        "returnParams": [
                            {
                                "name": "data",
                                "type": "bytes",
                                "value": "0x0000000000000000000000000000000000000000000000000000000000000050000000209f5d1634b671450d0bad326fec78e473a7c5d5c90e7047010000000000000000175686476dec77fed5211440d3b6f2740080c10e1b852f7e7082ad540ecb62646c0fa9572872051874275c4300000000000000000000000000000000"
                            }
                        ],
                        "signature": "dataCopy(bytes)"
                    },
                    "errorInfo": "",
                    "fromAddress": "0x41f274c0023f83391de4e0733c609df5a124c3d4",
                    "gasUsed": 27,
                    "id": 2,
                    "methodDecoded": true,
                    "operation": "CALL",
                    "output": "0x0000000000000000000000000000000000000000000000000000000000000050000000209f5d1634b671450d0bad326fec78e473a7c5d5c90e7047010000000000000000175686476dec77fed5211440d3b6f2740080c10e1b852f7e7082ad540ecb62646c0fa9572872051874275c4300000000000000000000000000000000",
                    "revert": false,
                    "revertMessage": "",
                    "selector": "0x00000000",
                    "status": true,
                    "value": "0"
                },
                "nodeType": 0
            },
            "3": {
                "invocation": {
                    "address": "0x41f274c0023f83391de4e0733c609df5a124c3d4",
                    "callData": "0x00000000000000000000000000000000000000000000000000000000000000200000000000000000000000000000000000000000000000000000000000000050000000209f5d1634b671450d0bad326fec78e473a7c5d5c90e7047010000000000000000175686476dec77fed5211440d3b6f2740080c10e1b852f7e7082ad540ecb62646c0fa9572872051874275c4300000000000000000000000000000000",
                    "decodedMethod": {
                        "callParams": [
                            {
                                "name": "header",
                                "type": "bytes",
                                "value": "0x000000209f5d1634b671450d0bad326fec78e473a7c5d5c90e7047010000000000000000175686476dec77fed5211440d3b6f2740080c10e1b852f7e7082ad540ecb62646c0fa9572872051874275c43"
                            }
                        ],
                        "constructorArguments": "",
                        "name": "storeBlockHeader",
                        "returnParams": [
                            {
                                "name": "",
                                "type": "uint256",
                                "value": "424,337"
                            }
                        ],
                        "signature": "storeBlockHeader(bytes)"
                    },
                    "errorInfo": "",
                    "fromAddress": "0x41f274c0023f83391de4e0733c609df5a124c3d4",
                    "gasUsed": 162521,
                    "id": 3,
                    "methodDecoded": true,
                    "operation": "CALL",
                    "output": "0x0000000000000000000000000000000000000000000000000000000000067991",
                    "revert": false,
                    "revertMessage": "",
                    "selector": "0x2b861629",
                    "status": true,
                    "value": "0"
                },
                "nodeType": 0
            },
            "4": {
                "invocation": {
                    "address": "0x0000000000000000000000000000000000000002",
                    "callData": "0x9f5d1634b671450d0bad326fec78e473a7c5d5c90e7047010000000000000000175686476dec77fed5211440d3b6f2740080c10e1b852f7e7082ad540ecb62646c0fa9572872051874275c43",
                    "decodedMethod": {
                        "callParams": [
                            {
                                "name": "data",
                                "type": "bytes",
                                "value": "0x000000209f5d1634b671450d0bad326fec78e473a7c5d5c90e7047010000000000000000175686476dec77fed5211440d3b6f2740080c10e1b852f7e7082ad540ecb62646c0fa9572872051874275c43"
                            }
                        ],
                        "constructorArguments": "",
                        "name": "sha256hash",
                        "returnParams": [
                            {
                                "name": "hash",
                                "type": "bytes32",
                                "value": "0xcac8cb033c5a79d8801f78bdc3bf8503eb7c37d7a83ae703b21e117e0ab87833"
                            }
                        ],
                        "signature": "sha256hash(bytes)"
                    },
                    "errorInfo": "",
                    "fromAddress": "0x41f274c0023f83391de4e0733c609df5a124c3d4",
                    "gasUsed": 96,
                    "id": 4,
                    "methodDecoded": true,
                    "operation": "CALL",
                    "output": "0xcac8cb033c5a79d8801f78bdc3bf8503eb7c37d7a83ae703b21e117e0ab87833",
                    "revert": false,
                    "revertMessage": "",
                    "selector": "0x00000020",
                    "status": true,
                    "value": "0"
                },
                "nodeType": 0
            },
            "5": {
                "invocation": {
                    "address": "0x0000000000000000000000000000000000000002",
                    "callData": "0x3c5a79d8801f78bdc3bf8503eb7c37d7a83ae703b21e117e0ab87833",
                    "decodedMethod": {
                        "callParams": [
                            {
                                "name": "data",
                                "type": "bytes",
                                "value": "0xcac8cb033c5a79d8801f78bdc3bf8503eb7c37d7a83ae703b21e117e0ab87833"
                            }
                        ],
                        "constructorArguments": "",
                        "name": "sha256hash",
                        "returnParams": [
                            {
                                "name": "hash",
                                "type": "bytes32",
                                "value": "0x200e933cf0e9eb91c86e98a3bd336b356238a4aa75a112030000000000000000"
                            }
                        ],
                        "signature": "sha256hash(bytes)"
                    },
                    "errorInfo": "",
                    "fromAddress": "0x41f274c0023f83391de4e0733c609df5a124c3d4",
                    "gasUsed": 72,
                    "id": 5,
                    "methodDecoded": true,
                    "operation": "CALL",
                    "output": "0x200e933cf0e9eb91c86e98a3bd336b356238a4aa75a112030000000000000000",
                    "revert": false,
                    "revertMessage": "",
                    "selector": "0xcac8cb03",
                    "status": true,
                    "value": "0"
                },
                "nodeType": 0
            },
            "6": {
                "event": {
                    "contract": "0x41f274c0023f83391de4e0733c609df5a124c3d4",
                    "decodedLog": null,
                    "id": 6,
                    "logData": "0x",
                    "logDecoded": false,
                    "operation": "EVENT",
                    "revert": false,
                    "status": true,
                    "topics": [
                        "0x055e4f8dd3a534789b3feb8e0681afa2aee8713fdd6472f25b2c30dc7bf4e0f4",
                        "0x00000000000000000312a175aaa43862356b33bda3986ec891ebe9f03c930e20",
                        "0x0000000000000000000000000000000000000000000000000000000000067991"
                    ]
                },
                "nodeType": 1
            },
            "7": {
                "invocation": {
                    "address": "0x0000000000000000000000000000000000000002",
                    "callData": "0x9f5d1634b671450d0bad326fec78e473a7c5d5c90e7047010000000000000000175686476dec77fed5211440d3b6f2740080c10e1b852f7e7082ad540ecb62646c0fa9572872051874275c43",
                    "decodedMethod": {
                        "callParams": [
                            {
                                "name": "data",
                                "type": "bytes",
                                "value": "0x000000209f5d1634b671450d0bad326fec78e473a7c5d5c90e7047010000000000000000175686476dec77fed5211440d3b6f2740080c10e1b852f7e7082ad540ecb62646c0fa9572872051874275c43"
                            }
                        ],
                        "constructorArguments": "",
                        "name": "sha256hash",
                        "returnParams": [
                            {
                                "name": "hash",
                                "type": "bytes32",
                                "value": "0xcac8cb033c5a79d8801f78bdc3bf8503eb7c37d7a83ae703b21e117e0ab87833"
                            }
                        ],
                        "signature": "sha256hash(bytes)"
                    },
                    "errorInfo": "",
                    "fromAddress": "0x41f274c0023f83391de4e0733c609df5a124c3d4",
                    "gasUsed": 96,
                    "id": 7,
                    "methodDecoded": true,
                    "operation": "CALL",
                    "output": "0xcac8cb033c5a79d8801f78bdc3bf8503eb7c37d7a83ae703b21e117e0ab87833",
                    "revert": false,
                    "revertMessage": "",
                    "selector": "0x00000020",
                    "status": true,
                    "value": "0"
                },
                "nodeType": 0
            },
            "8": {
                "invocation": {
                    "address": "0x0000000000000000000000000000000000000002",
                    "callData": "0x3c5a79d8801f78bdc3bf8503eb7c37d7a83ae703b21e117e0ab87833",
                    "decodedMethod": {
                        "callParams": [
                            {
                                "name": "data",
                                "type": "bytes",
                                "value": "0xcac8cb033c5a79d8801f78bdc3bf8503eb7c37d7a83ae703b21e117e0ab87833"
                            }
                        ],
                        "constructorArguments": "",
                        "name": "sha256hash",
                        "returnParams": [
                            {
                                "name": "hash",
                                "type": "bytes32",
                                "value": "0x200e933cf0e9eb91c86e98a3bd336b356238a4aa75a112030000000000000000"
                            }
                        ],
                        "signature": "sha256hash(bytes)"
                    },
                    "errorInfo": "",
                    "fromAddress": "0x41f274c0023f83391de4e0733c609df5a124c3d4",
                    "gasUsed": 72,
                    "id": 8,
                    "methodDecoded": true,
                    "operation": "CALL",
                    "output": "0x200e933cf0e9eb91c86e98a3bd336b356238a4aa75a112030000000000000000",
                    "revert": false,
                    "revertMessage": "",
                    "selector": "0xcac8cb03",
                    "status": true,
                    "value": "0"
                },
                "nodeType": 0
            }
        },
        "gasFlame": [
            {
                "children": [
                    {
                        "children": [
                            {
                                "children": [],
                                "depth": 0,
                                "name": "Initial Gas",
                                "value": 28312
                            },
                            {
                                "children": [
                                    {
                                        "children": [],
                                        "depth": 1,
                                        "name": "dataCopy()",
                                        "value": 21
                                    },
                                    {
                                        "children": [],
                                        "depth": 1,
                                        "name": "dataCopy()",
                                        "value": 27
                                    },
                                    {
                                        "children": [
                                            {
                                                "children": [],
                                                "depth": 2,
                                                "name": "sha256hash",
                                                "value": 96
                                            },
                                            {
                                                "children": [],
                                                "depth": 2,
                                                "name": "sha256hash",
                                                "value": 72
                                            }
                                        ],
                                        "depth": 1,
                                        "name": "storeBlockHeader",
                                        "value": 162521
                                    },
                                    {
                                        "children": [],
                                        "depth": 1,
                                        "name": "sha256hash",
                                        "value": 96
                                    },
                                    {
                                        "children": [],
                                        "depth": 1,
                                        "name": "sha256hash",
                                        "value": 72
                                    }
                                ],
                                "depth": 0,
                                "name": "Executed Gas",
                                "value": 192838
                            }
                        ],
                        "depth": -1,
                        "name": "Actual Gas Used",
                        "value": 221150
                    },
                    {
                        "children": [],
                        "depth": -1,
                        "name": "Refunded Gas",
                        "value": 0
                    }
                ],
                "depth": -2,
                "name": "Total Gas",
                "value": 221150
            }
        ],
        "isConfirmed": true,
        "mainTrace": [
            {
                "children": [
                    {
                        "children": [
                            {
                                "children": [],
                                "depth": 1,
                                "id": 1,
                                "order": 1
                            },
                            {
                                "children": [],
                                "depth": 1,
                                "id": 2,
                                "order": 2
                            },
                            {
                                "children": [
                                    {
                                        "children": [],
                                        "depth": 2,
                                        "id": 4,
                                        "order": 4
                                    },
                                    {
                                        "children": [],
                                        "depth": 2,
                                        "id": 5,
                                        "order": 5
                                    },
                                    {
                                        "children": [],
                                        "depth": 2,
                                        "id": 6,
                                        "order": 6
                                    }
                                ],
                                "depth": 1,
                                "id": 3,
                                "order": 3
                            },
                            {
                                "children": [],
                                "depth": 1,
                                "id": 7,
                                "order": 7
                            },
                            {
                                "children": [],
                                "depth": 1,
                                "id": 8,
                                "order": 8
                            }
                        ],
                        "depth": 0,
                        "id": 0,
                        "order": 0
                    }
                ],
                "depth": -1,
                "id": -1,
                "order": -1
            }
        ],
        "mainTraceNodeCount": 9,
        "parentIdMap": {
            "0": -1,
            "1": 0,
            "2": 0,
            "3": 0,
            "4": 3,
            "5": 3,
            "6": 3,
            "7": 0,
            "8": 0
        },
        "tidyTrace": [
            {
                "children": [
                    {
                        "children": [
                            {
                                "children": [],
                                "depth": 1,
                                "id": 1,
                                "order": 1
                            },
                            {
                                "children": [],
                                "depth": 1,
                                "id": 2,
                                "order": 2
                            },
                            {
                                "children": [
                                    {
                                        "children": [],
                                        "depth": 2,
                                        "id": 4,
                                        "order": 4
                                    },
                                    {
                                        "children": [],
                                        "depth": 2,
                                        "id": 5,
                                        "order": 5
                                    },
                                    {
                                        "children": [],
                                        "depth": 2,
                                        "id": 6,
                                        "order": 6
                                    }
                                ],
                                "depth": 1,
                                "id": 3,
                                "order": 3
                            },
                            {
                                "children": [],
                                "depth": 1,
                                "id": 7,
                                "order": 7
                            },
                            {
                                "children": [],
                                "depth": 1,
                                "id": 8,
                                "order": 8
                            }
                        ],
                        "depth": 0,
                        "id": 0,
                        "order": 0
                    }
                ],
                "depth": -1,
                "id": -1,
                "order": -1
            }
        ],
        "tidyTraceNodeCount": 9
    },
    "state_change": {
        "stateChanges": [
            {
                "address": "0x41f274c0023f83391de4e0733c609df5a124c3d4",
                "erc": "",
                "slots": [
                    {
                        "current": "0x00000000000000000312a175aaa43862356b33bda3986ec891ebe9f03c930e20",
                        "key": "0x00000000000000000000000000000000000000000000000000000000000042dc",
                        "prev": "0x0000000000000000000000000000000000000000000000000000000000000000"
                    },
                    {
                        "current": "0x000000000000000000000000000000000000000000165dec4c0494feac0890fa",
                        "key": "0x0000000000000000000000000000000000000000000000000004000000000003",
                        "prev": "0x000000000000000000000000000000000000000000165dec4c0494cfaa42a615"
                    },
                    {
                        "current": "0x000000000006799100000000000042dc0000000000165dec4c0494feac0890fa",
                        "key": "0xfa95202b77c823390641f6c87dd114b0998901812fa5922944baf297da505a21",
                        "prev": "0x0000000000000000000000000000000000000000000000000000000000000000"
                    },
                    {
                        "current": "0x000000209f5d1634b671450d0bad326fec78e473a7c5d5c90e70470100000000",
                        "key": "0x5ba22bd8481599a4117f02191d147d7f2f270fbb098e21f568b5c6218fb56f9c",
                        "prev": "0x0000000000000000000000000000000000000000000000000000000000000000"
                    },
                    {
                        "current": "0x000000000000000000000004a817c8000000000000000000001a7a4838950000",
                        "key": "0x0000000000000000000000000000000000000000000000000004000000000001",
                        "prev": "0x000000000000000000000004a817c8000000000000000000001a72474fb54000"
                    },
                    {
                        "current": "0x00000000175686476dec77fed5211440d3b6f2740080c10e1b852f7e7082ad54",
                        "key": "0x5ba22bd8481599a4117f02191d147d7f2f270fbb098e21f568b5c6218fb56f9d",
                        "prev": "0x0000000000000000000000000000000000000000000000000000000000000000"
                    },
                    {
                        "current": "0x00000000000000000000000000000000000000000000000000000000000042dd",
                        "key": "0x0000000000000000000000000000000000000000000000000004000000000000",
                        "prev": "0x00000000000000000000000000000000000000000000000000000000000042dc"
                    },
                    {
                        "current": "0x000042db000042da000042d000004285000040910000393c0000393c00000000",
                        "key": "0x677b5cf8ec5161d4e08435bdb16279804d4105b36d3c28742d983a68acf0c821",
                        "prev": "0x0000000000000000000000000000000000000000000000000000000000000000"
                    },
                    {
                        "current": "0x0ecb62646c0fa9572872051874275c4300000000000000000000000000000000",
                        "key": "0x5ba22bd8481599a4117f02191d147d7f2f270fbb098e21f568b5c6218fb56f9e",
                        "prev": "0x0000000000000000000000000000000000000000000000000000000000000000"
                    },
                    {
                        "current": "0x00000000000000000312a175aaa43862356b33bda3986ec891ebe9f03c930e20",
                        "key": "0x0000000000000000000000000000000000000000000000000004000000000002",
                        "prev": "0x00000000000000000147700ec9d5c5a773e478ec6f32ad0b0d4571b634165d9f"
                    },
                    {
                        "current": "0x01a23fd30aabf5ad53bab3093dcd4948e15cec800000000000038d7ea4c68000",
                        "key": "0x7217b7a96c9377e406e27b0e78fa7ef1a6af7de609f6489baafb386b81bf9d74",
                        "prev": "0x0000000000000000000000000000000000000000000000000000000000000000"
                    }
                ],
                "storageVariables": []
            }
        ]
    }
}