{
    "balance_change": {
        "balanceChanges": []
    },
    "profile": {
        "basic_info": {
            "baseFee": "49.698484983",
            "blockNumber": 17092135,
            "callData": "0x095ea7b30000000000000000000000000e42acbd23faee03249daff896b78d7e79fbd58e0000000000000000000000000000000000000000000000016ba12983a1bb0d4a",
            "debugEnable": true,
            "errorInfo": "out of gas",
            "eventCount": 1,
            "feeRecipient": "0xdafea492d9c6733ae3d56b7ed1adb60692c98bc5",
            "formatValue": "0",
            "gasLimit": 46206,
            "gasPrice": "49.792484983",
            "gasUsed": 46206,
            "intTxnCount": 0,
            "internalRevert": false,
            "internalRevertMessage": "",
            "isContractCreation": false,
            "isFlashloan": false,
            "maxFee": "53.968582997",
            "nonce": 7,
            "overwritedBlockNumber": -1,
            "priorityFee": "0.094",
            "receiver": "0xaf5191b0de278c7286d6c7cc6ab6bb8a73ba2cd6",
            "revertMessage": "",
            "sender": "0x91cbdfe3d392bdbcbb66318359ee5d77e81c1daa",
            "simulationEnable": true,
            "sourceTxnHash": "0x0789ca05a0f8cd43f3bc711aa292029f3b13d4c1bb2ce54b1904fa9a958b3b9c",
            "status": false,
            "timestamp": "2023-04-21T03:34:59Z",
            "transactionFee": "0.002300711561124498",
            "txnHash": "0x0789ca05a0f8cd43f3bc711aa292029f3b13d4c1bb2ce54b1904fa9a958b3b9c",
            "txnIndex": 93,
            "type": 2,
            "value": "0"
        },
        "fund_flow": [],
        "token_infos": [
            {
                "address": "0xeeeeeeeeeeeeeeeeeeeeeeeeeeeeeeeeeeeeeeee",
                "decimals": 18
            },
            {
                "address": "0xc02aaa39b223fe8d0a0e5c4f27ead9083c756cc2",
                "decimals": 18
            }
        ]
    },
    "address_label": {
        "labels": [
            {
                "address": "0x0e42acbd23faee03249daff896b78d7e79fbd58e",
                "label": "veSTG (veSTG)"
            },
            {
                "address": "0xaf5191b0de278c7286d6c7cc6ab6bb8a73ba2cd6",
                "label": "Stargate Finance: STG Token"
            },
            {
                "address": "0x0000000000000000000000000000000000000001",
                "label": "Precompiled"
            },
            {
                "address": "0x0000000000000000000000000000000000000002",
                "label": "Precompiled"
            },
            {
                "address": "0x0000000000000000000000000000000000000003",
                "label": "Precompiled"
            },
            {
                "address": "0x0000000000000000000000000000000000000004",
                "label": "Precompiled"
            },
            {
                "address": "0xeeeeeeeeeeeeeeeeeeeeeeeeeeeeeeeeeeeeeeee",
                "label": "Ether"
            }
        ]
    },
    "trace": {
        "accountLabels": null,
        "dataMap": {
            "-1": {
                "invocation": {
                    "address": "0x91cbdfe3d392bdbcbb66318359ee5d77e81c1daa",
                    "callData": "",
                    "decodedMethod": null,
                    "errorInfo": "",
                    "fromAddress": "",
                    "gasUsed": 0,
                    "id": -1,
                    "methodDecoded": false,
                    "operation": "",
                    "output": "",
                    "revert": false,
                    "revertMessage": "",
                    "selector": "",
                    "status": false,
                    "value": ""
                },
                "nodeType": 0
            },
            "0": {
                "invocation": {
                    "address": "0xaf5191b0de278c7286d6c7cc6ab6bb8a73ba2cd6",
                    "callData": "0x0000000000000000000000000e42acbd23faee03249daff896b78d7e79fbd58e0000000000000000000000000000000000000000000000016ba12983a1bb0d4a",
                    "decodedMethod": {
                        "callParams": [
                            {
                                "name": "spender",
                                "type": "address",
                                "value": "0x0e42acbd23faee03249daff896b78d7e79fbd58e"
                            },
                            {
                                "decimalAvailable": true,
                                "name": "amount",
                                "type": "uint256",
                                "value": "26,202,269,752,349,101,386"
                            }
                        ],
                        "constructorArguments": "",
                        "name": "approve",
                        "returnParams": [],
                        "signature": "approve(address,uint256)"
                    },
                    "errorInfo": "out of gas",
                    "fromAddress": "0x91cbdfe3d392bdbcbb66318359ee5d77e81c1daa",
                    "gasUsed": 46206,
                    "id": 0,
                    "methodDecoded": true,
                    "operation": "CALL",
                    "output": "",
                    "revert": true,
                    "revertMessage": "",
                    "selector": "0x095ea7b3",
                    "status": false,
                    "value": "0"
                },
                "nodeType": 0
            },
            "1": {
                "event": {
                    "contract": "0xaf5191b0de278c7286d6c7cc6ab6bb8a73ba2cd6",
                    "decodedLog": {
                        "name": "Approval",
                        "params": [
                            {
                                "name": "owner",
                                "type": "address",
                                "value": "0x91cbdfe3d392bdbcbb66318359ee5d77e81c1daa"
                            },
                            {
                                "name": "spender",
                                "type": "address",
                                "value": "0x0e42acbd23faee03249daff896b78d7e79fbd58e"
                            },
                            {
                                "decimalAvailable": true,
                                "name": "value",
                                "type": "uint256",
                                "value": "26,202,269,752,349,101,386"
                            }
                        ],
                        "signature": "Approval(address,address,uint256)"
                    },
                    "id": 1,
                    "logData": "0x0000000000000000000000000000000000000000000000016ba12983a1bb0d4a",
                    "logDecoded": true,
                    "operation": "EVENT",
                    "revert": true,
                    "status": false,
                    "topics": [
                        "0x8c5be1e5ebec7d5bd14f71427d1e84f3dd0314c0f7b2291e5b200ac8c7c3b925",
                        "0x00000000000000000000000091cbdfe3d392bdbcbb66318359ee5d77e81c1daa",
                        "0x0000000000000000000000000e42acbd23faee03249daff896b78d7e79fbd58e"
                    ]
                },
                "nodeType": 1
            }
        },
        "gasFlame": [
            {
                "children": [
                    {
                        "children": [
                            {
                                "children": [],
                                "depth": 0,
                                "name": "Initial Gas",
                                "value": 21668
                            },
                            {
                                "children": [],
                                "depth": 0,
                                "name": "Executed Gas",
                                "value": 24538
                            }
                        ],
                        "depth": -1,
                        "name": "Actual Gas Used",
                        "value": 46206
                    },
                    {
                        "children": [],
                        "depth": -1,
                        "name": "Refunded Gas",
                        "value": 0
                    }
                ],
                "depth": -2,
                "name": "Total Gas",
                "value": 46206
            }
        ],
        "isConfirmed": true,
        "mainTrace": [
            {
                "children": [
                    {
                        "children": [
                            {
                                "children": [],
                                "depth": 1,
                                "id": 1,
                                "order": 1
                            }
                        ],
                        "depth": 0,
                        "id": 0,
                        "order": 0
                    }
                ],
                "depth": -1,
                "id": -1,
                "order": -1
            }
        ],
        "mainTraceNodeCount": 2,
        "parentIdMap": {
            "0": -1,
            "1": 0
        },
        "tidyTrace": [
            {
                "children": [
                    {
                        "children": [
                            {
                                "children": [],
                                "depth": 1,
                                "id": 1,
                                "order": 1
                            }
                        ],
                        "depth": 0,
                        "id": 0,
                        "order": 0
                    }
                ],
                "depth": -1,
                "id": -1,
                "order": -1
            }
        ],
        "tidyTraceNodeCount": 2
    },
    "state_change": {
        "stateChanges": []
    }
}