{
    "balance_change": {
        "balanceChanges": [
            {
                "account": "0xa89a1278ac85367f38bdf6746658ce2b9875526e",
                "assets": [
                    {
                        "address": "0xd1d2eb1b1e90b638588728b4130137d262c87cae",
                        "amount": "9,865.4653866",
                        "iconUrl": "",
                        "isERC1155": false,
                        "isERC721": false,
                        "sign": false,
                        "value": "232.26181"
                    }
                ]
            },
            {
                "account": "0x4e30cf3b9cbbbae8872baf04ec7c9fe5f59470b5",
                "assets": [
                    {
                        "address": "0xd1d2eb1b1e90b638588728b4130137d262c87cae",
                        "amount": "9,865.4653866",
                        "iconUrl": "",
                        "isERC1155": false,
                        "isERC721": false,
                        "sign": true,
                        "value": "232.26181"
                    }
                ]
            }
        ]
    },
    "profile": {
        "basic_info": {
            "baseFee": "29.028148187",
            "blockNumber": 18560751,
            "callData": "0xa9059cbb0000000000000000000000004e30cf3b9cbbbae8872baf04ec7c9fe5f59470b5000000000000000000000000000000000000000000000000000000e5b2c188a4",
            "debugEnable": true,
            "errorInfo": "",
            "eventCount": 1,
            "feeRecipient": "0x1f9090aae28b8a3dceadf281b0f12828e676c326",
            "formatValue": "0",
            "gasLimit": 300000,
            "gasPrice": "31.029148187",
            "gasUsed": 63172,
            "intTxnCount": 1,
            "internalRevert": false,
            "internalRevertMessage": "",
            "isContractCreation": false,
            "isFlashloan": false,
            "maxFee": "999",
            "nonce": 30180,
            "overwritedBlockNumber": -1,
            "priorityFee": "2.001",
            "receiver": "0xd1d2eb1b1e90b638588728b4130137d262c87cae",
            "revertMessage": "",
            "sender": "0xa89a1278ac85367f38bdf6746658ce2b9875526e",
            "simulationEnable": true,
            "sourceTxnHash": "0x08799d3f73e94be00723713599045a46d63c188dfae505bec52cc5df543b8095",
            "status": true,
            "timestamp": "2023-11-13T04:57:59Z",
            "transactionFee": "0.001960173349269164",
            "txnHash": "0x08799d3f73e94be00723713599045a46d63c188dfae505bec52cc5df543b8095",
            "txnIndex": 39,
            "type": 2,
            "value": "0"
        },
        "fund_flow": [
            {
                "amount": "9,865.4653866",
                "from": "0xa89a1278ac85367f38bdf6746658ce2b9875526e",
                "id": 1,
                "isERC1155": false,
                "isERC721": false,
                "isReverted": false,
                "order": 1,
                "to": "0x4e30cf3b9cbbbae8872baf04ec7c9fe5f59470b5",
                "token": "0xd1d2eb1b1e90b638588728b4130137d262c87cae"
            }
        ],
        "token_infos": [
            {
                "address": "0xc02aaa39b223fe8d0a0e5c4f27ead9083c756cc2",
                "decimals": 18
            },
            {
                "address": "0xd1d2eb1b1e90b638588728b4130137d262c87cae",
                "decimals": 8
            },
            {
                "address": "0xeeeeeeeeeeeeeeeeeeeeeeeeeeeeeeeeeeeeeeee",
                "decimals": 18
            }
        ]
    },
    "address_label": {
        "labels": [
            {
                "address": "0xeeeeeeeeeeeeeeeeeeeeeeeeeeeeeeeeeeeeeeee",
                "label": "Ether"
            },
            {
                "address": "0xa89a1278ac85367f38bdf6746658ce2b9875526e",
                "label": "CoinSpot 16"
            },
            {
                "address": "0x8d92a6812b3da2346883f0631910c96cb9c5a5f9",
                "label": "Gala"
            },
            {
                "address": "0xd1d2eb1b1e90b638588728b4130137d262c87cae",
                "label": "Gala Games: GALA Token"
            },
            {
                "address": "0x0000000000000000000000000000000000000001",
                "label": "Precompiled"
            },
            {
                "address": "0x0000000000000000000000000000000000000002",
                "label": "Precompiled"
            },
            {
                "address": "0x0000000000000000000000000000000000000003",
                "label": "Precompiled"
            },
            {
                "address": "0x0000000000000000000000000000000000000004",
                "label": "Precompiled"
            }
        ]
    },
    "trace": {
        "accountLabels": null,
        "dataMap": {
            "-1": {
                "invocation": {
                    "address": "0xa89a1278ac85367f38bdf6746658ce2b9875526e",
                    "callData": "",
                    "decodedMethod": null,
                    "errorInfo": "",
                    "fromAddress": "",
                    "gasUsed": 0,
                    "id": -1,
                    "methodDecoded": false,
                    "operation": "",
                    "output": "",
                    "revert": false,
                    "revertMessage": "",
                    "selector": "",
                    "status": false,
                    "value": ""
                },
                "nodeType": 0
            },
            "0": {
                "invocation": {
                    "address": "0xd1d2eb1b1e90b638588728b4130137d262c87cae",
                    "callData": "0x0000000000000000000000004e30cf3b9cbbbae8872baf04ec7c9fe5f59470b5000000000000000000000000000000000000000000000000000000e5b2c188a4",
                    "decodedMethod": {
                        "callParams": [
                            {
                                "name": "to",
                                "type": "address",
                                "value": "0x4e30cf3b9cbbbae8872baf04ec7c9fe5f59470b5"
                            },
                            {
                                "decimalAvailable": true,
                                "name": "amount",
                                "type": "uint256",
                                "value": "986,546,538,660"
                            }
                        ],
                        "constructorArguments": "",
                        "name": "transfer",
                        "returnParams": [
                            {
                                "name": "",
                                "type": "bool",
                                "value": true
                            }
                        ],
                        "signature": "transfer(address,uint256)"
                    },
                    "errorInfo": "",
                    "fromAddress": "0xa89a1278ac85367f38bdf6746658ce2b9875526e",
                    "gasUsed": 63172,
                    "id": 0,
                    "methodDecoded": true,
                    "operation": "CALL",
                    "output": "0x0000000000000000000000000000000000000000000000000000000000000001",
                    "revert": false,
                    "revertMessage": "",
                    "selector": "0xa9059cbb",
                    "status": true,
                    "value": "0"
                },
                "nodeType": 0
            },
            "1": {
                "invocation": {
                    "address": "0x8d92a6812b3da2346883f0631910c96cb9c5a5f9",
                    "callData": "0x0000000000000000000000004e30cf3b9cbbbae8872baf04ec7c9fe5f59470b5000000000000000000000000000000000000000000000000000000e5b2c188a4",
                    "decodedMethod": {
                        "callParams": [
                            {
                                "name": "to",
                                "type": "address",
                                "value": "0x4e30cf3b9cbbbae8872baf04ec7c9fe5f59470b5"
                            },
                            {
                                "decimalAvailable": true,
                                "name": "amount",
                                "type": "uint256",
                                "value": "986,546,538,660"
                            }
                        ],
                        "constructorArguments": "",
                        "name": "transfer",
                        "returnParams": [
                            {
                                "name": "",
                                "type": "bool",
                                "value": true
                            }
                        ],
                        "signature": "transfer(address,uint256)"
                    },
                    "errorInfo": "",
                    "fromAddress": "0xd1d2eb1b1e90b638588728b4130137d262c87cae",
                    "gasUsed": 36651,
                    "id": 1,
                    "methodDecoded": true,
                    "operation": "DELEGATECALL",
                    "output": "0x0000000000000000000000000000000000000000000000000000000000000001",
                    "revert": false,
                    "revertMessage": "",
                    "selector": "0xa9059cbb",
                    "status": true,
                    "value": "0"
                },
                "nodeType": 0
            },
            "2": {
                "event": {
                    "contract": "0xd1d2eb1b1e90b638588728b4130137d262c87cae",
                    "decodedLog": {
                        "name": "Transfer",
                        "params": [
                            {
                                "name": "from",
                                "type": "address",
                                "value": "0xa89a1278ac85367f38bdf6746658ce2b9875526e"
                            },
                            {
                                "name": "to",
                                "type": "address",
                                "value": "0x4e30cf3b9cbbbae8872baf04ec7c9fe5f59470b5"
                            },
                            {
                                "decimalAvailable": true,
                                "name": "value",
                                "type": "uint256",
                                "value": "986,546,538,660"
                            }
                        ],
                        "signature": "Transfer(address,address,uint256)"
                    },
                    "id": 2,
                    "logData": "0x000000000000000000000000000000000000000000000000000000e5b2c188a4",
                    "logDecoded": true,
                    "operation": "EVENT",
                    "revert": false,
                    "status": true,
                    "topics": [
                        "0xddf252ad1be2c89b69c2b068fc378daa952ba7f163c4a11628f55a4df523b3ef",
                        "0x000000000000000000000000a89a1278ac85367f38bdf6746658ce2b9875526e",
                        "0x0000000000000000000000004e30cf3b9cbbbae8872baf04ec7c9fe5f59470b5"
                    ]
                },
                "nodeType": 1
            }
        },
        "gasFlame": [
            {
                "children": [
                    {
                        "children": [
                            {
                                "children": [],
                                "depth": 0,
                                "name": "Initial Gas",
                                "value": 21620
                            },
                            {
                                "children": [
                                    {
                                        "children": [],
                                        "depth": 1,
                                        "name": "transfer",
                                        "value": 36651
                                    }
                                ],
                                "depth": 0,
                                "name": "Executed Gas",
                                "value": 41552
                            }
                        ],
                        "depth": -1,
                        "name": "Actual Gas Used",
                        "value": 63172
                    },
                    {
                        "children": [],
                        "depth": -1,
                        "name": "Refunded Gas",
                        "value": 0
                    }
                ],
                "depth": -2,
                "name": "Total Gas",
                "value": 63172
            }
        ],
        "isConfirmed": true,
        "mainTrace": [
            {
                "children": [
                    {
                        "children": [
                            {
                                "children": [
                                    {
                                        "children": [],
                                        "depth": 2,
                                        "id": 2,
                                        "order": 2
                                    }
                                ],
                                "depth": 1,
                                "id": 1,
                                "order": 1
                            }
                        ],
                        "depth": 0,
                        "id": 0,
                        "order": 0
                    }
                ],
                "depth": -1,
                "id": -1,
                "order": -1
            }
        ],
        "mainTraceNodeCount": 3,
        "parentIdMap": {
            "0": -1,
            "1": 0,
            "2": 1
        },
        "tidyTrace": [
            {
                "children": [
                    {
                        "children": [
                            {
                                "children": [
                                    {
                                        "children": [],
                                        "depth": 2,
                                        "id": 2,
                                        "order": 2
                                    }
                                ],
                                "depth": 1,
                                "id": 1,
                                "order": 1
                            }
                        ],
                        "depth": 0,
                        "id": 0,
                        "order": 0
                    }
                ],
                "depth": -1,
                "id": -1,
                "order": -1
            }
        ],
        "tidyTraceNodeCount": 3
    },
    "state_change": {
        "stateChanges": [
            {
                "address": "0xd1d2eb1b1e90b638588728b4130137d262c87cae",
                "erc": "ERC-20",
                "slots": [
                    {
                        "current": "0x0000000000000000000000000000000000000000000000000002cc330c7a4354",
                        "key": "0x7f88ba40e5cdfaac986cb99e3f330041b8b214fd392935a78e0ba6333e021d26",
                        "prev": "0x0000000000000000000000000000000000000000000000000002cd18bf3bcbf8"
                    },
                    {
                        "current": "0x000000000000000000000000000000000000000000000000000000e5b2c188a4",
                        "key": "0x234de73696e0929ff48b8cd2724098bce7073b4c10002dc7379fc7ffcf5e1f61",
                        "prev": "0x0000000000000000000000000000000000000000000000000000000000000000"
                    }
                ],
                "storageVariables": [
                    {
                        "name": "_balances",
                        "type": "mapping(address => uint256)",
                        "value": {
                            "pairs": [
                                {
                                    "key": "0x4e30cf3b9cbbbae8872baf04ec7c9fe5f59470b5",
                                    "value": {
                                        "current": "986546538660",
                                        "prev": "0",
                                        "typeTag": 1
                                    }
                                },
                                {
                                    "key": "0xa89a1278ac85367f38bdf6746658ce2b9875526e",
                                    "value": {
                                        "current": "787469578158932",
                                        "prev": "788456124697592",
                                        "typeTag": 1
                                    }
                                }
                            ],
                            "typeTag": 4
                        }
                    }
                ]
            }
        ]
    }
}