{
    "balance_change": {
        "balanceChanges": [
            {
                "account": "0x423ca0f840d7efc866fcda5768320261416818dd",
                "assets": [
                    {
                        "address": "0x7fc66500c84a76ad7e9c93437bfc5ac33e2ddae9",
                        "amount": "51.082768117154360826",
                        "iconUrl": "https://assets.blocksec.com/icon/62f48bc5d1faeb48ff872297b2d01aca7a06f6613f30d65440b9b7703425b7e3.png",
                        "isERC1155": false,
                        "isERC721": false,
                        "sign": true,
                        "value": "5390.596562"
                    },
                    {
                        "address": "0xffc97d72e13e01096502cb8eb52dee56f74dad7b",
                        "amount": "51.082768117154360826",
                        "iconUrl": "",
                        "isERC1155": false,
                        "isERC721": false,
                        "sign": false,
                        "value": "5390.596562"
                    }
                ]
            },
            {
                "account": "0x0000000000000000000000000000000000000000",
                "assets": [
                    {
                        "address": "0xffc97d72e13e01096502cb8eb52dee56f74dad7b",
                        "amount": "51.082768117154360826",
                        "iconUrl": "",
                        "isERC1155": false,
                        "isERC721": false,
                        "sign": true,
                        "value": "5390.596562"
                    }
                ]
            },
            {
                "account": "0xffc97d72e13e01096502cb8eb52dee56f74dad7b",
                "assets": [
                    {
                        "address": "0x7fc66500c84a76ad7e9c93437bfc5ac33e2ddae9",
                        "amount": "51.082768117154360826",
                        "iconUrl": "https://assets.blocksec.com/icon/62f48bc5d1faeb48ff872297b2d01aca7a06f6613f30d65440b9b7703425b7e3.png",
                        "isERC1155": false,
                        "isERC721": false,
                        "sign": false,
                        "value": "5390.596562"
                    }
                ]
            }
        ]
    },
    "profile": {
        "basic_info": {
            "baseFee": "50.089678062",
            "blockNumber": 14745108,
            "callData": "0x69328dec0000000000000000000000007fc66500c84a76ad7e9c93437bfc5ac33e2ddae9ffffffffffffffffffffffffffffffffffffffffffffffffffffffffffffffff000000000000000000000000423ca0f840d7efc866fcda5768320261416818dd",
            "debugEnable": true,
            "errorInfo": "",
            "eventCount": 10,
            "feeRecipient": "0xea674fdde714fd979de3edf0f56aa9716b898ec8",
            "formatValue": "0",
            "gasLimit": 449785,
            "gasPrice": "51.089678062",
            "gasUsed": 326760,
            "intTxnCount": 23,
            "internalRevert": false,
            "internalRevertMessage": "",
            "isContractCreation": false,
            "isFlashloan": false,
            "maxFee": "54.311378599",
            "nonce": 38,
            "overwritedBlockNumber": -1,
            "priorityFee": "1",
            "receiver": "0x7d2768de32b0b80b7a3454c06bdac94a69ddc7a9",
            "revertMessage": "",
            "sender": "0x423ca0f840d7efc866fcda5768320261416818dd",
            "simulationEnable": true,
            "sourceTxnHash": "0x084fa56322f9792366bfaac77bee5ce7a756134004e9d78e3176e807032b1a80",
            "status": true,
            "timestamp": "2022-05-09T23:01:15Z",
            "transactionFee": "0.01669406320353912",
            "txnHash": "0x084fa56322f9792366bfaac77bee5ce7a756134004e9d78e3176e807032b1a80",
            "txnIndex": 92,
            "type": 2,
            "value": "0"
        },
        "fund_flow": [
            {
                "amount": "51.082768117154360826",
                "from": "0xffc97d72e13e01096502cb8eb52dee56f74dad7b",
                "id": 1,
                "isERC1155": false,
                "isERC721": false,
                "isReverted": false,
                "order": 1,
                "to": "0x423ca0f840d7efc866fcda5768320261416818dd",
                "token": "0x7fc66500c84a76ad7e9c93437bfc5ac33e2ddae9"
            },
            {
                "amount": "51.082768117154360826",
                "from": "0x423ca0f840d7efc866fcda5768320261416818dd",
                "id": 2,
                "isERC1155": false,
                "isERC721": false,
                "isReverted": false,
                "order": 2,
                "to": "0x0000000000000000000000000000000000000000",
                "token": "0xffc97d72e13e01096502cb8eb52dee56f74dad7b"
            }
        ],
        "token_infos": [
            {
                "address": "0x7fc66500c84a76ad7e9c93437bfc5ac33e2ddae9",
                "decimals": 18
            },
            {
                "address": "0xc02aaa39b223fe8d0a0e5c4f27ead9083c756cc2",
                "decimals": 18
            },
            {
                "address": "0xffc97d72e13e01096502cb8eb52dee56f74dad7b",
                "decimals": 18
            },
            {
                "address": "0xeeeeeeeeeeeeeeeeeeeeeeeeeeeeeeeeeeeeeeee",
                "decimals": 18
            }
        ]
    },
    "address_label": {
        "labels": [
            {
                "address": "0xa50ba011c48153de246e5192c8f9258a2ba79ca9",
                "label": "Aave: Price Oracle V2"
            },
            {
                "address": "0xdfd091e40e79e06f7298bd09a652f3a739f457bd",
                "label": "Aave stable debt bearing AAVE (stableDeb...)"
            },
            {
                "address": "0x079d6a3e844bcecf5720478a718edb6575362c5f",
                "label": "Aave: Aave Stable Debt V2"
            },
            {
                "address": "0x7d2768de32b0b80b7a3454c06bdac94a69ddc7a9",
                "label": "Aave: Lending Pool V2"
            },
            {
                "address": "0x0000000000000000000000000000000000000002",
                "label": "Precompiled"
            },
            {
                "address": "0x0000000000000000000000000000000000000004",
                "label": "Precompiled"
            },
            {
                "address": "0xf7dba49d571745d9d7fcb56225b05bea803ebf3c",
                "label": "Aave: Aave Variable Debt V2"
            },
            {
                "address": "0xf5543cdd5f551635e13ebe07e47d01d0fc9cbbd5",
                "label": "ValidationLogic"
            },
            {
                "address": "0xc6845a5c768bf8d7681249f8927877efda425baf",
                "label": "LendingPool"
            },
            {
                "address": "0xffc97d72e13e01096502cb8eb52dee56f74dad7b",
                "label": "Aave: aAAVE Token V2"
            },
            {
                "address": "0xb53c1a33016b2dc2ff3653530bff1848a515c8c5",
                "label": "Aave: Lending Pool Provider V2"
            },
            {
                "address": "0xc13eac3b4f9eed480045113b7af00f7b5655ece8",
                "label": "Aave Token (AAVE)"
            },
            {
                "address": "0xda5e8e1c3596d3cc11a4dd5ad66b8f03b5410f8c",
                "label": "Aave interest bearing AAVE (aAAVE)"
            },
            {
                "address": "0xeae736e5d6560169f9285c62492f8a89fb4ab790",
                "label": "GenericLogic"
            },
            {
                "address": "0x8a32f49ffba88aba6eff96f45d8bd1d4b3f35c7d",
                "label": "Aave: Lending Rate Oracle V2"
            },
            {
                "address": "0xa65329a5a62ab12338aca9cc82d42ea925d92a1f",
                "label": "Aave variable debt bearing AAVE (variableD...)"
            },
            {
                "address": "0x0000000000000000000000000000000000000003",
                "label": "Precompiled"
            },
            {
                "address": "0xeeeeeeeeeeeeeeeeeeeeeeeeeeeeeeeeeeeeeeee",
                "label": "Ether"
            },
            {
                "address": "0xd4ca26f2496195c4f886d464d8578368236bb747",
                "label": "DefaultReserveInterestRateStrategy"
            },
            {
                "address": "0x7fc66500c84a76ad7e9c93437bfc5ac33e2ddae9",
                "label": "Aave: AAVE Token"
            },
            {
                "address": "0x0000000000000000000000000000000000000001",
                "label": "Precompiled"
            }
        ]
    },
    "trace": {
        "accountLabels": null,
        "dataMap": {
            "-1": {
                "invocation": {
                    "address": "0x423ca0f840d7efc866fcda5768320261416818dd",
                    "callData": "",
                    "decodedMethod": null,
                    "errorInfo": "",
                    "fromAddress": "",
                    "gasUsed": 0,
                    "id": -1,
                    "methodDecoded": false,
                    "operation": "",
                    "output": "",
                    "revert": false,
                    "revertMessage": "",
                    "selector": "",
                    "status": false,
                    "value": ""
                },
                "nodeType": 0
            },
            "0": {
                "invocation": {
                    "address": "0x7d2768de32b0b80b7a3454c06bdac94a69ddc7a9",
                    "callData": "0x0000000000000000000000007fc66500c84a76ad7e9c93437bfc5ac33e2ddae9ffffffffffffffffffffffffffffffffffffffffffffffffffffffffffffffff000000000000000000000000423ca0f840d7efc866fcda5768320261416818dd",
                    "decodedMethod": {
                        "callParams": [
                            {
                                "name": "asset",
                                "type": "address",
                                "value": "0x7fc66500c84a76ad7e9c93437bfc5ac33e2ddae9"
                            },
                            {
                                "name": "amount",
                                "type": "uint256",
                                "value": "115,792,089,237,316,195,423,570,985,008,687,907,853,269,984,665,640,564,039,457,584,007,913,129,639,935"
                            },
                            {
                                "name": "to",
                                "type": "address",
                                "value": "0x423ca0f840d7efc866fcda5768320261416818dd"
                            }
                        ],
                        "constructorArguments": "",
                        "name": "withdraw",
                        "returnParams": [
                            {
                                "name": "",
                                "type": "uint256",
                                "value": "51,082,768,117,154,360,826"
                            }
                        ],
                        "signature": "withdraw(address,uint256,address)"
                    },
                    "errorInfo": "",
                    "fromAddress": "0x423ca0f840d7efc866fcda5768320261416818dd",
                    "gasUsed": 326760,
                    "id": 0,
                    "methodDecoded": true,
                    "operation": "CALL",
                    "output": "0x000000000000000000000000000000000000000000000002c4ea72f456a2adfa",
                    "revert": false,
                    "revertMessage": "",
                    "selector": "0x69328dec",
                    "status": true,
                    "value": "0"
                },
                "nodeType": 0
            },
            "1": {
                "invocation": {
                    "address": "0xc6845a5c768bf8d7681249f8927877efda425baf",
                    "callData": "0x0000000000000000000000007fc66500c84a76ad7e9c93437bfc5ac33e2ddae9ffffffffffffffffffffffffffffffffffffffffffffffffffffffffffffffff000000000000000000000000423ca0f840d7efc866fcda5768320261416818dd",
                    "decodedMethod": {
                        "callParams": [
                            {
                                "name": "asset",
                                "type": "address",
                                "value": "0x7fc66500c84a76ad7e9c93437bfc5ac33e2ddae9"
                            },
                            {
                                "name": "amount",
                                "type": "uint256",
                                "value": "115,792,089,237,316,195,423,570,985,008,687,907,853,269,984,665,640,564,039,457,584,007,913,129,639,935"
                            },
                            {
                                "name": "to",
                                "type": "address",
                                "value": "0x423ca0f840d7efc866fcda5768320261416818dd"
                            }
                        ],
                        "constructorArguments": "",
                        "name": "withdraw",
                        "returnParams": [
                            {
                                "name": "",
                                "type": "uint256",
                                "value": "51,082,768,117,154,360,826"
                            }
                        ],
                        "signature": "withdraw(address,uint256,address)"
                    },
                    "errorInfo": "",
                    "fromAddress": "0x7d2768de32b0b80b7a3454c06bdac94a69ddc7a9",
                    "gasUsed": 308940,
                    "id": 1,
                    "methodDecoded": true,
                    "operation": "DELEGATECALL",
                    "output": "0x000000000000000000000000000000000000000000000002c4ea72f456a2adfa",
                    "revert": false,
                    "revertMessage": "",
                    "selector": "0x69328dec",
                    "status": true,
                    "value": "0"
                },
                "nodeType": 0
            },
            "10": {
                "invocation": {
                    "address": "0xa65329a5a62ab12338aca9cc82d42ea925d92a1f",
                    "callData": "0x",
                    "decodedMethod": {
                        "callParams": [],
                        "constructorArguments": "",
                        "name": "scaledTotalSupply",
                        "returnParams": [
                            {
                                "name": "",
                                "type": "uint256",
                                "value": "0"
                            }
                        ],
                        "signature": "scaledTotalSupply()"
                    },
                    "errorInfo": "",
                    "fromAddress": "0xf7dba49d571745d9d7fcb56225b05bea803ebf3c",
                    "gasUsed": 2355,
                    "id": 10,
                    "methodDecoded": true,
                    "operation": "DELEGATECALL",
                    "output": "0x0000000000000000000000000000000000000000000000000000000000000000",
                    "revert": false,
                    "revertMessage": "",
                    "selector": "0xb1bf962d",
                    "status": true,
                    "value": "0"
                },
                "nodeType": 0
            },
            "11": {
                "invocation": {
                    "address": "0x079d6a3e844bcecf5720478a718edb6575362c5f",
                    "callData": "0x",
                    "decodedMethod": {
                        "callParams": [],
                        "constructorArguments": "",
                        "name": "getTotalSupplyAndAvgRate",
                        "returnParams": [
                            {
                                "name": "",
                                "type": "uint256",
                                "value": "0"
                            },
                            {
                                "name": "",
                                "type": "uint256",
                                "value": "0"
                            }
                        ],
                        "signature": "getTotalSupplyAndAvgRate()"
                    },
                    "errorInfo": "",
                    "fromAddress": "0x7d2768de32b0b80b7a3454c06bdac94a69ddc7a9",
                    "gasUsed": 9782,
                    "id": 11,
                    "methodDecoded": true,
                    "operation": "STATICCALL",
                    "output": "0x00000000000000000000000000000000000000000000000000000000000000000000000000000000000000000000000000000000000000000000000000000000",
                    "revert": false,
                    "revertMessage": "",
                    "selector": "0xf731e9be",
                    "status": true,
                    "value": "0"
                },
                "nodeType": 0
            },
            "12": {
                "invocation": {
                    "address": "0xdfd091e40e79e06f7298bd09a652f3a739f457bd",
                    "callData": "0x",
                    "decodedMethod": {
                        "callParams": [],
                        "constructorArguments": "",
                        "name": "getTotalSupplyAndAvgRate",
                        "returnParams": [
                            {
                                "name": "",
                                "type": "uint256",
                                "value": "0"
                            },
                            {
                                "name": "",
                                "type": "uint256",
                                "value": "0"
                            }
                        ],
                        "signature": "getTotalSupplyAndAvgRate()"
                    },
                    "errorInfo": "",
                    "fromAddress": "0x079d6a3e844bcecf5720478a718edb6575362c5f",
                    "gasUsed": 4671,
                    "id": 12,
                    "methodDecoded": true,
                    "operation": "DELEGATECALL",
                    "output": "0x00000000000000000000000000000000000000000000000000000000000000000000000000000000000000000000000000000000000000000000000000000000",
                    "revert": false,
                    "revertMessage": "",
                    "selector": "0xf731e9be",
                    "status": true,
                    "value": "0"
                },
                "nodeType": 0
            },
            "13": {
                "invocation": {
                    "address": "0xf7dba49d571745d9d7fcb56225b05bea803ebf3c",
                    "callData": "0x",
                    "decodedMethod": {
                        "callParams": [],
                        "constructorArguments": "",
                        "name": "scaledTotalSupply",
                        "returnParams": [
                            {
                                "name": "",
                                "type": "uint256",
                                "value": "0"
                            }
                        ],
                        "signature": "scaledTotalSupply()"
                    },
                    "errorInfo": "",
                    "fromAddress": "0x7d2768de32b0b80b7a3454c06bdac94a69ddc7a9",
                    "gasUsed": 963,
                    "id": 13,
                    "methodDecoded": true,
                    "operation": "STATICCALL",
                    "output": "0x0000000000000000000000000000000000000000000000000000000000000000",
                    "revert": false,
                    "revertMessage": "",
                    "selector": "0xb1bf962d",
                    "status": true,
                    "value": "0"
                },
                "nodeType": 0
            },
            "14": {
                "invocation": {
                    "address": "0xa65329a5a62ab12338aca9cc82d42ea925d92a1f",
                    "callData": "0x",
                    "decodedMethod": {
                        "callParams": [],
                        "constructorArguments": "",
                        "name": "scaledTotalSupply",
                        "returnParams": [
                            {
                                "name": "",
                                "type": "uint256",
                                "value": "0"
                            }
                        ],
                        "signature": "scaledTotalSupply()"
                    },
                    "errorInfo": "",
                    "fromAddress": "0xf7dba49d571745d9d7fcb56225b05bea803ebf3c",
                    "gasUsed": 355,
                    "id": 14,
                    "methodDecoded": true,
                    "operation": "DELEGATECALL",
                    "output": "0x0000000000000000000000000000000000000000000000000000000000000000",
                    "revert": false,
                    "revertMessage": "",
                    "selector": "0xb1bf962d",
                    "status": true,
                    "value": "0"
                },
                "nodeType": 0
            },
            "15": {
                "invocation": {
                    "address": "0x7fc66500c84a76ad7e9c93437bfc5ac33e2ddae9",
                    "callData": "0x000000000000000000000000ffc97d72e13e01096502cb8eb52dee56f74dad7b",
                    "decodedMethod": {
                        "callParams": [
                            {
                                "name": "account",
                                "type": "address",
                                "value": "0xffc97d72e13e01096502cb8eb52dee56f74dad7b"
                            }
                        ],
                        "constructorArguments": "",
                        "name": "balanceOf",
                        "returnParams": [
                            {
                                "decimalAvailable": true,
                                "name": "",
                                "type": "uint256",
                                "value": "1,645,016,309,392,044,963,511,099"
                            }
                        ],
                        "signature": "balanceOf(address)"
                    },
                    "errorInfo": "",
                    "fromAddress": "0x7d2768de32b0b80b7a3454c06bdac94a69ddc7a9",
                    "gasUsed": 9884,
                    "id": 15,
                    "methodDecoded": true,
                    "operation": "STATICCALL",
                    "output": "0x000000000000000000000000000000000000000000015c5883483a1ef8c1bb3b",
                    "revert": false,
                    "revertMessage": "",
                    "selector": "0x70a08231",
                    "status": true,
                    "value": "0"
                },
                "nodeType": 0
            },
            "16": {
                "invocation": {
                    "address": "0xc13eac3b4f9eed480045113b7af00f7b5655ece8",
                    "callData": "0x000000000000000000000000ffc97d72e13e01096502cb8eb52dee56f74dad7b",
                    "decodedMethod": {
                        "callParams": [
                            {
                                "name": "account",
                                "type": "address",
                                "value": "0xffc97d72e13e01096502cb8eb52dee56f74dad7b"
                            }
                        ],
                        "constructorArguments": "",
                        "name": "balanceOf",
                        "returnParams": [
                            {
                                "decimalAvailable": true,
                                "name": "",
                                "type": "uint256",
                                "value": "1,645,016,309,392,044,963,511,099"
                            }
                        ],
                        "signature": "balanceOf(address)"
                    },
                    "errorInfo": "",
                    "fromAddress": "0x7fc66500c84a76ad7e9c93437bfc5ac33e2ddae9",
                    "gasUsed": 2649,
                    "id": 16,
                    "methodDecoded": true,
                    "operation": "DELEGATECALL",
                    "output": "0x000000000000000000000000000000000000000000015c5883483a1ef8c1bb3b",
                    "revert": false,
                    "revertMessage": "",
                    "selector": "0x70a08231",
                    "status": true,
                    "value": "0"
                },
                "nodeType": 0
            },
            "17": {
                "invocation": {
                    "address": "0xd4ca26f2496195c4f886d464d8578368236bb747",
                    "callData": "0x0000000000000000000000007fc66500c84a76ad7e9c93437bfc5ac33e2ddae9000000000000000000000000000000000000000000015c55be5dc72aa21f0d410000000000000000000000000000000000000000000000000000000000000000000000000000000000000000000000000000000000000000000000000000000000000000000000000000000000000000000000000000000000000000000000000000000000000000000000000000000000000000000000000000000000000000",
                    "decodedMethod": {
                        "callParams": [
                            {
                                "name": "reserve",
                                "type": "address",
                                "value": "0x7fc66500c84a76ad7e9c93437bfc5ac33e2ddae9"
                            },
                            {
                                "name": "availableLiquidity",
                                "type": "uint256",
                                "value": "1,644,965,226,623,927,809,150,273"
                            },
                            {
                                "name": "totalStableDebt",
                                "type": "uint256",
                                "value": "0"
                            },
                            {
                                "name": "totalVariableDebt",
                                "type": "uint256",
                                "value": "0"
                            },
                            {
                                "name": "averageStableBorrowRate",
                                "type": "uint256",
                                "value": "0"
                            },
                            {
                                "name": "reserveFactor",
                                "type": "uint256",
                                "value": "0"
                            }
                        ],
                        "constructorArguments": "",
                        "name": "calculateInterestRates",
                        "returnParams": [
                            {
                                "name": "",
                                "type": "uint256",
                                "value": "0"
                            },
                            {
                                "name": "",
                                "type": "uint256",
                                "value": "0"
                            },
                            {
                                "name": "",
                                "type": "uint256",
                                "value": "0"
                            }
                        ],
                        "signature": "calculateInterestRates(address,uint256,uint256,uint256,uint256,uint256)"
                    },
                    "errorInfo": "",
                    "fromAddress": "0x7d2768de32b0b80b7a3454c06bdac94a69ddc7a9",
                    "gasUsed": 10722,
                    "id": 17,
                    "methodDecoded": true,
                    "operation": "STATICCALL",
                    "output": "0x000000000000000000000000000000000000000000000000000000000000000000000000000000000000000000000000000000000000000000000000000000000000000000000000000000000000000000000000000000000000000000000000",
                    "revert": false,
                    "revertMessage": "",
                    "selector": "0x9584df28",
                    "status": true,
                    "value": "0"
                },
                "nodeType": 0
            },
            "18": {
                "invocation": {
                    "address": "0xb53c1a33016b2dc2ff3653530bff1848a515c8c5",
                    "callData": "0x",
                    "decodedMethod": {
                        "callParams": [],
                        "constructorArguments": "",
                        "name": "getLendingRateOracle",
                        "returnParams": [
                            {
                                "name": "",
                                "type": "address",
                                "value": "0x8a32f49ffba88aba6eff96f45d8bd1d4b3f35c7d"
                            }
                        ],
                        "signature": "getLendingRateOracle()"
                    },
                    "errorInfo": "",
                    "fromAddress": "0xd4ca26f2496195c4f886d464d8578368236bb747",
                    "gasUsed": 2559,
                    "id": 18,
                    "methodDecoded": true,
                    "operation": "STATICCALL",
                    "output": "0x0000000000000000000000008a32f49ffba88aba6eff96f45d8bd1d4b3f35c7d",
                    "revert": false,
                    "revertMessage": "",
                    "selector": "0x3618abba",
                    "status": true,
                    "value": "0"
                },
                "nodeType": 0
            },
            "19": {
                "invocation": {
                    "address": "0x8a32f49ffba88aba6eff96f45d8bd1d4b3f35c7d",
                    "callData": "0x0000000000000000000000007fc66500c84a76ad7e9c93437bfc5ac33e2ddae9",
                    "decodedMethod": {
                        "callParams": [
                            {
                                "name": "asset",
                                "type": "address",
                                "value": "0x7fc66500c84a76ad7e9c93437bfc5ac33e2ddae9"
                            }
                        ],
                        "constructorArguments": "",
                        "name": "getMarketBorrowRate",
                        "returnParams": [
                            {
                                "name": "",
                                "type": "uint256",
                                "value": "0"
                            }
                        ],
                        "signature": "getMarketBorrowRate(address)"
                    },
                    "errorInfo": "",
                    "fromAddress": "0xd4ca26f2496195c4f886d464d8578368236bb747",
                    "gasUsed": 2486,
                    "id": 19,
                    "methodDecoded": true,
                    "operation": "STATICCALL",
                    "output": "0x0000000000000000000000000000000000000000000000000000000000000000",
                    "revert": false,
                    "revertMessage": "",
                    "selector": "0xbb85c0bb",
                    "status": true,
                    "value": "0"
                },
                "nodeType": 0
            },
            "2": {
                "invocation": {
                    "address": "0xffc97d72e13e01096502cb8eb52dee56f74dad7b",
                    "callData": "0x000000000000000000000000423ca0f840d7efc866fcda5768320261416818dd",
                    "decodedMethod": {
                        "callParams": [
                            {
                                "name": "user",
                                "type": "address",
                                "value": "0x423ca0f840d7efc866fcda5768320261416818dd"
                            }
                        ],
                        "constructorArguments": "",
                        "name": "balanceOf",
                        "returnParams": [
                            {
                                "decimalAvailable": true,
                                "name": "",
                                "type": "uint256",
                                "value": "51,082,768,117,154,360,826"
                            }
                        ],
                        "signature": "balanceOf(address)"
                    },
                    "errorInfo": "",
                    "fromAddress": "0x7d2768de32b0b80b7a3454c06bdac94a69ddc7a9",
                    "gasUsed": 16668,
                    "id": 2,
                    "methodDecoded": true,
                    "operation": "STATICCALL",
                    "output": "0x000000000000000000000000000000000000000000000002c4ea72f456a2adfa",
                    "revert": false,
                    "revertMessage": "",
                    "selector": "0x70a08231",
                    "status": true,
                    "value": "0"
                },
                "nodeType": 0
            },
            "20": {
                "event": {
                    "contract": "0x7d2768de32b0b80b7a3454c06bdac94a69ddc7a9",
                    "decodedLog": {
                        "name": "ReserveDataUpdated",
                        "params": [
                            {
                                "name": "reserve",
                                "type": "address",
                                "value": "0x7fc66500c84a76ad7e9c93437bfc5ac33e2ddae9"
                            },
                            {
                                "name": "liquidityRate",
                                "type": "uint256",
                                "value": "0"
                            },
                            {
                                "name": "stableBorrowRate",
                                "type": "uint256",
                                "value": "0"
                            },
                            {
                                "name": "variableBorrowRate",
                                "type": "uint256",
                                "value": "0"
                            },
                            {
                                "name": "liquidityIndex",
                                "type": "uint256",
                                "value": "1,000,094,152,415,289,057,476,829,535"
                            },
                            {
                                "name": "variableBorrowIndex",
                                "type": "uint256",
                                "value": "1,000,000,000,000,000,000,000,000,000"
                            }
                        ],
                        "signature": "ReserveDataUpdated(address,uint256,uint256,uint256,uint256,uint256)"
                    },
                    "id": 20,
                    "logData": "0x0000000000000000000000000000000000000000000000000000000000000000000000000000000000000000000000000000000000000000000000000000000000000000000000000000000000000000000000000000000000000000000000000000000000000000000000000000000000000000033b422ca30e30c29823615f0000000000000000000000000000000000000000033b2e3c9fd0803ce8000000",
                    "logDecoded": true,
                    "operation": "EVENT",
                    "revert": false,
                    "status": true,
                    "topics": [
                        "0x804c9b842b2748a22bb64b345453a3de7ca54a6ca45ce00d415894979e22897a",
                        "0x0000000000000000000000007fc66500c84a76ad7e9c93437bfc5ac33e2ddae9"
                    ]
                },
                "nodeType": 1
            },
            "21": {
                "event": {
                    "contract": "0x7d2768de32b0b80b7a3454c06bdac94a69ddc7a9",
                    "decodedLog": {
                        "name": "ReserveUsedAsCollateralDisabled",
                        "params": [
                            {
                                "name": "reserve",
                                "type": "address",
                                "value": "0x7fc66500c84a76ad7e9c93437bfc5ac33e2ddae9"
                            },
                            {
                                "name": "user",
                                "type": "address",
                                "value": "0x423ca0f840d7efc866fcda5768320261416818dd"
                            }
                        ],
                        "signature": "ReserveUsedAsCollateralDisabled(address,address)"
                    },
                    "id": 21,
                    "logData": "0x",
                    "logDecoded": true,
                    "operation": "EVENT",
                    "revert": false,
                    "status": true,
                    "topics": [
                        "0x44c58d81365b66dd4b1a7f36c25aa97b8c71c361ee4937adc1a00000227db5dd",
                        "0x0000000000000000000000007fc66500c84a76ad7e9c93437bfc5ac33e2ddae9",
                        "0x000000000000000000000000423ca0f840d7efc866fcda5768320261416818dd"
                    ]
                },
                "nodeType": 1
            },
            "22": {
                "invocation": {
                    "address": "0xffc97d72e13e01096502cb8eb52dee56f74dad7b",
                    "callData": "0x000000000000000000000000423ca0f840d7efc866fcda5768320261416818dd000000000000000000000000423ca0f840d7efc866fcda5768320261416818dd000000000000000000000000000000000000000000000002c4ea72f456a2adfa0000000000000000000000000000000000000000033b422ca30e30c29823615f",
                    "decodedMethod": {
                        "callParams": [
                            {
                                "name": "user",
                                "type": "address",
                                "value": "0x423ca0f840d7efc866fcda5768320261416818dd"
                            },
                            {
                                "name": "receiverOfUnderlying",
                                "type": "address",
                                "value": "0x423ca0f840d7efc866fcda5768320261416818dd"
                            },
                            {
                                "name": "amount",
                                "type": "uint256",
                                "value": "51,082,768,117,154,360,826"
                            },
                            {
                                "name": "index",
                                "type": "uint256",
                                "value": "1,000,094,152,415,289,057,476,829,535"
                            }
                        ],
                        "constructorArguments": "",
                        "name": "burn",
                        "returnParams": [],
                        "signature": "burn(address,address,uint256,uint256)"
                    },
                    "errorInfo": "",
                    "fromAddress": "0x7d2768de32b0b80b7a3454c06bdac94a69ddc7a9",
                    "gasUsed": 186568,
                    "id": 22,
                    "methodDecoded": true,
                    "operation": "CALL",
                    "output": "",
                    "revert": false,
                    "revertMessage": "",
                    "selector": "0xd7020d0a",
                    "status": true,
                    "value": "0"
                },
                "nodeType": 0
            },
            "23": {
                "invocation": {
                    "address": "0xda5e8e1c3596d3cc11a4dd5ad66b8f03b5410f8c",
                    "callData": "0x000000000000000000000000423ca0f840d7efc866fcda5768320261416818dd000000000000000000000000423ca0f840d7efc866fcda5768320261416818dd000000000000000000000000000000000000000000000002c4ea72f456a2adfa0000000000000000000000000000000000000000033b422ca30e30c29823615f",
                    "decodedMethod": {
                        "callParams": [
                            {
                                "name": "user",
                                "type": "address",
                                "value": "0x423ca0f840d7efc866fcda5768320261416818dd"
                            },
                            {
                                "name": "receiverOfUnderlying",
                                "type": "address",
                                "value": "0x423ca0f840d7efc866fcda5768320261416818dd"
                            },
                            {
                                "name": "amount",
                                "type": "uint256",
                                "value": "51,082,768,117,154,360,826"
                            },
                            {
                                "name": "index",
                                "type": "uint256",
                                "value": "1,000,094,152,415,289,057,476,829,535"
                            }
                        ],
                        "constructorArguments": "",
                        "name": "burn",
                        "returnParams": [],
                        "signature": "burn(address,address,uint256,uint256)"
                    },
                    "errorInfo": "",
                    "fromAddress": "0xffc97d72e13e01096502cb8eb52dee56f74dad7b",
                    "gasUsed": 185945,
                    "id": 23,
                    "methodDecoded": true,
                    "operation": "DELEGATECALL",
                    "output": "",
                    "revert": false,
                    "revertMessage": "",
                    "selector": "0xd7020d0a",
                    "status": true,
                    "value": "0"
                },
                "nodeType": 0
            },
            "24": {
                "invocation": {
                    "address": "0x7fc66500c84a76ad7e9c93437bfc5ac33e2ddae9",
                    "callData": "0x000000000000000000000000423ca0f840d7efc866fcda5768320261416818dd000000000000000000000000000000000000000000000002c4ea72f456a2adfa",
                    "decodedMethod": {
                        "callParams": [
                            {
                                "name": "recipient",
                                "type": "address",
                                "value": "0x423ca0f840d7efc866fcda5768320261416818dd"
                            },
                            {
                                "decimalAvailable": true,
                                "name": "amount",
                                "type": "uint256",
                                "value": "51,082,768,117,154,360,826"
                            }
                        ],
                        "constructorArguments": "",
                        "name": "transfer",
                        "returnParams": [
                            {
                                "name": "",
                                "type": "bool",
                                "value": true
                            }
                        ],
                        "signature": "transfer(address,uint256)"
                    },
                    "errorInfo": "",
                    "fromAddress": "0xffc97d72e13e01096502cb8eb52dee56f74dad7b",
                    "gasUsed": 171113,
                    "id": 24,
                    "methodDecoded": true,
                    "operation": "CALL",
                    "output": "0x0000000000000000000000000000000000000000000000000000000000000001",
                    "revert": false,
                    "revertMessage": "",
                    "selector": "0xa9059cbb",
                    "status": true,
                    "value": "0"
                },
                "nodeType": 0
            },
            "25": {
                "invocation": {
                    "address": "0xc13eac3b4f9eed480045113b7af00f7b5655ece8",
                    "callData": "0x000000000000000000000000423ca0f840d7efc866fcda5768320261416818dd000000000000000000000000000000000000000000000002c4ea72f456a2adfa",
                    "decodedMethod": {
                        "callParams": [
                            {
                                "name": "recipient",
                                "type": "address",
                                "value": "0x423ca0f840d7efc866fcda5768320261416818dd"
                            },
                            {
                                "decimalAvailable": true,
                                "name": "amount",
                                "type": "uint256",
                                "value": "51,082,768,117,154,360,826"
                            }
                        ],
                        "constructorArguments": "",
                        "name": "transfer",
                        "returnParams": [
                            {
                                "name": "",
                                "type": "bool",
                                "value": true
                            }
                        ],
                        "signature": "transfer(address,uint256)"
                    },
                    "errorInfo": "",
                    "fromAddress": "0x7fc66500c84a76ad7e9c93437bfc5ac33e2ddae9",
                    "gasUsed": 170343,
                    "id": 25,
                    "methodDecoded": true,
                    "operation": "DELEGATECALL",
                    "output": "0x0000000000000000000000000000000000000000000000000000000000000001",
                    "revert": false,
                    "revertMessage": "",
                    "selector": "0xa9059cbb",
                    "status": true,
                    "value": "0"
                },
                "nodeType": 0
            },
            "26": {
                "event": {
                    "contract": "0x7fc66500c84a76ad7e9c93437bfc5ac33e2ddae9",
                    "decodedLog": {
                        "name": "DelegatedPowerChanged",
                        "params": [
                            {
                                "name": "user",
                                "type": "address",
                                "value": "0xffc97d72e13e01096502cb8eb52dee56f74dad7b"
                            },
                            {
                                "name": "amount",
                                "type": "uint256",
                                "value": "1,644,965,226,623,927,809,150,273"
                            },
                            {
                                "name": "delegationType",
                                "type": "uint8",
                                "value": "0"
                            }
                        ],
                        "signature": "DelegatedPowerChanged(address,uint256,uint8)"
                    },
                    "id": 26,
                    "logData": "0x000000000000000000000000000000000000000000015c55be5dc72aa21f0d410000000000000000000000000000000000000000000000000000000000000000",
                    "logDecoded": true,
                    "operation": "EVENT",
                    "revert": false,
                    "status": true,
                    "topics": [
                        "0xa0a19463ee116110c9b282012d9b65cc5522dc38a9520340cbaf3142e550127f",
                        "0x000000000000000000000000ffc97d72e13e01096502cb8eb52dee56f74dad7b"
                    ]
                },
                "nodeType": 1
            },
            "27": {
                "event": {
                    "contract": "0x7fc66500c84a76ad7e9c93437bfc5ac33e2ddae9",
                    "decodedLog": {
                        "name": "DelegatedPowerChanged",
                        "params": [
                            {
                                "name": "user",
                                "type": "address",
                                "value": "0x423ca0f840d7efc866fcda5768320261416818dd"
                            },
                            {
                                "name": "amount",
                                "type": "uint256",
                                "value": "51,082,768,117,154,360,826"
                            },
                            {
                                "name": "delegationType",
                                "type": "uint8",
                                "value": "0"
                            }
                        ],
                        "signature": "DelegatedPowerChanged(address,uint256,uint8)"
                    },
                    "id": 27,
                    "logData": "0x000000000000000000000000000000000000000000000002c4ea72f456a2adfa0000000000000000000000000000000000000000000000000000000000000000",
                    "logDecoded": true,
                    "operation": "EVENT",
                    "revert": false,
                    "status": true,
                    "topics": [
                        "0xa0a19463ee116110c9b282012d9b65cc5522dc38a9520340cbaf3142e550127f",
                        "0x000000000000000000000000423ca0f840d7efc866fcda5768320261416818dd"
                    ]
                },
                "nodeType": 1
            },
            "28": {
                "event": {
                    "contract": "0x7fc66500c84a76ad7e9c93437bfc5ac33e2ddae9",
                    "decodedLog": {
                        "name": "DelegatedPowerChanged",
                        "params": [
                            {
                                "name": "user",
                                "type": "address",
                                "value": "0xffc97d72e13e01096502cb8eb52dee56f74dad7b"
                            },
                            {
                                "name": "amount",
                                "type": "uint256",
                                "value": "1,644,965,226,623,927,809,150,273"
                            },
                            {
                                "name": "delegationType",
                                "type": "uint8",
                                "value": "1"
                            }
                        ],
                        "signature": "DelegatedPowerChanged(address,uint256,uint8)"
                    },
                    "id": 28,
                    "logData": "0x000000000000000000000000000000000000000000015c55be5dc72aa21f0d410000000000000000000000000000000000000000000000000000000000000001",
                    "logDecoded": true,
                    "operation": "EVENT",
                    "revert": false,
                    "status": true,
                    "topics": [
                        "0xa0a19463ee116110c9b282012d9b65cc5522dc38a9520340cbaf3142e550127f",
                        "0x000000000000000000000000ffc97d72e13e01096502cb8eb52dee56f74dad7b"
                    ]
                },
                "nodeType": 1
            },
            "29": {
                "event": {
                    "contract": "0x7fc66500c84a76ad7e9c93437bfc5ac33e2ddae9",
                    "decodedLog": {
                        "name": "DelegatedPowerChanged",
                        "params": [
                            {
                                "name": "user",
                                "type": "address",
                                "value": "0x423ca0f840d7efc866fcda5768320261416818dd"
                            },
                            {
                                "name": "amount",
                                "type": "uint256",
                                "value": "51,082,768,117,154,360,826"
                            },
                            {
                                "name": "delegationType",
                                "type": "uint8",
                                "value": "1"
                            }
                        ],
                        "signature": "DelegatedPowerChanged(address,uint256,uint8)"
                    },
                    "id": 29,
                    "logData": "0x000000000000000000000000000000000000000000000002c4ea72f456a2adfa0000000000000000000000000000000000000000000000000000000000000001",
                    "logDecoded": true,
                    "operation": "EVENT",
                    "revert": false,
                    "status": true,
                    "topics": [
                        "0xa0a19463ee116110c9b282012d9b65cc5522dc38a9520340cbaf3142e550127f",
                        "0x000000000000000000000000423ca0f840d7efc866fcda5768320261416818dd"
                    ]
                },
                "nodeType": 1
            },
            "3": {
                "invocation": {
                    "address": "0xda5e8e1c3596d3cc11a4dd5ad66b8f03b5410f8c",
                    "callData": "0x000000000000000000000000423ca0f840d7efc866fcda5768320261416818dd",
                    "decodedMethod": {
                        "callParams": [
                            {
                                "name": "user",
                                "type": "address",
                                "value": "0x423ca0f840d7efc866fcda5768320261416818dd"
                            }
                        ],
                        "constructorArguments": "",
                        "name": "balanceOf",
                        "returnParams": [
                            {
                                "decimalAvailable": true,
                                "name": "",
                                "type": "uint256",
                                "value": "51,082,768,117,154,360,826"
                            }
                        ],
                        "signature": "balanceOf(address)"
                    },
                    "errorInfo": "",
                    "fromAddress": "0xffc97d72e13e01096502cb8eb52dee56f74dad7b",
                    "gasUsed": 11557,
                    "id": 3,
                    "methodDecoded": true,
                    "operation": "DELEGATECALL",
                    "output": "0x000000000000000000000000000000000000000000000002c4ea72f456a2adfa",
                    "revert": false,
                    "revertMessage": "",
                    "selector": "0x70a08231",
                    "status": true,
                    "value": "0"
                },
                "nodeType": 0
            },
            "30": {
                "event": {
                    "contract": "0x7fc66500c84a76ad7e9c93437bfc5ac33e2ddae9",
                    "decodedLog": {
                        "name": "Transfer",
                        "params": [
                            {
                                "name": "from",
                                "type": "address",
                                "value": "0xffc97d72e13e01096502cb8eb52dee56f74dad7b"
                            },
                            {
                                "name": "to",
                                "type": "address",
                                "value": "0x423ca0f840d7efc866fcda5768320261416818dd"
                            },
                            {
                                "decimalAvailable": true,
                                "name": "value",
                                "type": "uint256",
                                "value": "51,082,768,117,154,360,826"
                            }
                        ],
                        "signature": "Transfer(address,address,uint256)"
                    },
                    "id": 30,
                    "logData": "0x000000000000000000000000000000000000000000000002c4ea72f456a2adfa",
                    "logDecoded": true,
                    "operation": "EVENT",
                    "revert": false,
                    "status": true,
                    "topics": [
                        "0xddf252ad1be2c89b69c2b068fc378daa952ba7f163c4a11628f55a4df523b3ef",
                        "0x000000000000000000000000ffc97d72e13e01096502cb8eb52dee56f74dad7b",
                        "0x000000000000000000000000423ca0f840d7efc866fcda5768320261416818dd"
                    ]
                },
                "nodeType": 1
            },
            "31": {
                "event": {
                    "contract": "0xffc97d72e13e01096502cb8eb52dee56f74dad7b",
                    "decodedLog": {
                        "name": "Transfer",
                        "params": [
                            {
                                "name": "from",
                                "type": "address",
                                "value": "0x423ca0f840d7efc866fcda5768320261416818dd"
                            },
                            {
                                "name": "to",
                                "type": "address",
                                "value": "0x0000000000000000000000000000000000000000"
                            },
                            {
                                "decimalAvailable": true,
                                "name": "value",
                                "type": "uint256",
                                "value": "51,082,768,117,154,360,826"
                            }
                        ],
                        "signature": "Transfer(address,address,uint256)"
                    },
                    "id": 31,
                    "logData": "0x000000000000000000000000000000000000000000000002c4ea72f456a2adfa",
                    "logDecoded": true,
                    "operation": "EVENT",
                    "revert": false,
                    "status": true,
                    "topics": [
                        "0xddf252ad1be2c89b69c2b068fc378daa952ba7f163c4a11628f55a4df523b3ef",
                        "0x000000000000000000000000423ca0f840d7efc866fcda5768320261416818dd",
                        "0x0000000000000000000000000000000000000000000000000000000000000000"
                    ]
                },
                "nodeType": 1
            },
            "32": {
                "event": {
                    "contract": "0xffc97d72e13e01096502cb8eb52dee56f74dad7b",
                    "decodedLog": {
                        "name": "Burn",
                        "params": [
                            {
                                "name": "from",
                                "type": "address",
                                "value": "0x423ca0f840d7efc866fcda5768320261416818dd"
                            },
                            {
                                "name": "target",
                                "type": "address",
                                "value": "0x423ca0f840d7efc866fcda5768320261416818dd"
                            },
                            {
                                "name": "value",
                                "type": "uint256",
                                "value": "51,082,768,117,154,360,826"
                            },
                            {
                                "name": "index",
                                "type": "uint256",
                                "value": "1,000,094,152,415,289,057,476,829,535"
                            }
                        ],
                        "signature": "Burn(address,address,uint256,uint256)"
                    },
                    "id": 32,
                    "logData": "0x000000000000000000000000000000000000000000000002c4ea72f456a2adfa0000000000000000000000000000000000000000033b422ca30e30c29823615f",
                    "logDecoded": true,
                    "operation": "EVENT",
                    "revert": false,
                    "status": true,
                    "topics": [
                        "0x5d624aa9c148153ab3446c1b154f660ee7701e549fe9b62dab7171b1c80e6fa2",
                        "0x000000000000000000000000423ca0f840d7efc866fcda5768320261416818dd",
                        "0x000000000000000000000000423ca0f840d7efc866fcda5768320261416818dd"
                    ]
                },
                "nodeType": 1
            },
            "33": {
                "event": {
                    "contract": "0x7d2768de32b0b80b7a3454c06bdac94a69ddc7a9",
                    "decodedLog": {
                        "name": "Withdraw",
                        "params": [
                            {
                                "name": "reserve",
                                "type": "address",
                                "value": "0x7fc66500c84a76ad7e9c93437bfc5ac33e2ddae9"
                            },
                            {
                                "name": "user",
                                "type": "address",
                                "value": "0x423ca0f840d7efc866fcda5768320261416818dd"
                            },
                            {
                                "name": "to",
                                "type": "address",
                                "value": "0x423ca0f840d7efc866fcda5768320261416818dd"
                            },
                            {
                                "name": "amount",
                                "type": "uint256",
                                "value": "51,082,768,117,154,360,826"
                            }
                        ],
                        "signature": "Withdraw(address,address,address,uint256)"
                    },
                    "id": 33,
                    "logData": "0x000000000000000000000000000000000000000000000002c4ea72f456a2adfa",
                    "logDecoded": true,
                    "operation": "EVENT",
                    "revert": false,
                    "status": true,
                    "topics": [
                        "0x3115d1449a7b732c986cba18244e897a450f61e1bb8d589cd2e69e6c8924f9f7",
                        "0x0000000000000000000000007fc66500c84a76ad7e9c93437bfc5ac33e2ddae9",
                        "0x000000000000000000000000423ca0f840d7efc866fcda5768320261416818dd",
                        "0x000000000000000000000000423ca0f840d7efc866fcda5768320261416818dd"
                    ]
                },
                "nodeType": 1
            },
            "4": {
                "invocation": {
                    "address": "0x7d2768de32b0b80b7a3454c06bdac94a69ddc7a9",
                    "callData": "0x0000000000000000000000007fc66500c84a76ad7e9c93437bfc5ac33e2ddae9",
                    "decodedMethod": {
                        "callParams": [
                            {
                                "name": "asset",
                                "type": "address",
                                "value": "0x7fc66500c84a76ad7e9c93437bfc5ac33e2ddae9"
                            }
                        ],
                        "constructorArguments": "",
                        "name": "getReserveNormalizedIncome",
                        "returnParams": [
                            {
                                "name": "",
                                "type": "uint256",
                                "value": "1,000,094,152,415,289,057,476,829,535"
                            }
                        ],
                        "signature": "getReserveNormalizedIncome(address)"
                    },
                    "errorInfo": "",
                    "fromAddress": "0xffc97d72e13e01096502cb8eb52dee56f74dad7b",
                    "gasUsed": 8311,
                    "id": 4,
                    "methodDecoded": true,
                    "operation": "STATICCALL",
                    "output": "0x0000000000000000000000000000000000000000033b422ca30e30c29823615f",
                    "revert": false,
                    "revertMessage": "",
                    "selector": "0xd15e0053",
                    "status": true,
                    "value": "0"
                },
                "nodeType": 0
            },
            "5": {
                "invocation": {
                    "address": "0xc6845a5c768bf8d7681249f8927877efda425baf",
                    "callData": "0x0000000000000000000000007fc66500c84a76ad7e9c93437bfc5ac33e2ddae9",
                    "decodedMethod": {
                        "callParams": [
                            {
                                "name": "asset",
                                "type": "address",
                                "value": "0x7fc66500c84a76ad7e9c93437bfc5ac33e2ddae9"
                            }
                        ],
                        "constructorArguments": "",
                        "name": "getReserveNormalizedIncome",
                        "returnParams": [
                            {
                                "name": "",
                                "type": "uint256",
                                "value": "1,000,094,152,415,289,057,476,829,535"
                            }
                        ],
                        "signature": "getReserveNormalizedIncome(address)"
                    },
                    "errorInfo": "",
                    "fromAddress": "0x7d2768de32b0b80b7a3454c06bdac94a69ddc7a9",
                    "gasUsed": 7700,
                    "id": 5,
                    "methodDecoded": true,
                    "operation": "DELEGATECALL",
                    "output": "0x0000000000000000000000000000000000000000033b422ca30e30c29823615f",
                    "revert": false,
                    "revertMessage": "",
                    "selector": "0xd15e0053",
                    "status": true,
                    "value": "0"
                },
                "nodeType": 0
            },
            "6": {
                "invocation": {
                    "address": "0xb53c1a33016b2dc2ff3653530bff1848a515c8c5",
                    "callData": "0x",
                    "decodedMethod": {
                        "callParams": [],
                        "constructorArguments": "",
                        "name": "getPriceOracle",
                        "returnParams": [
                            {
                                "name": "",
                                "type": "address",
                                "value": "0xa50ba011c48153de246e5192c8f9258a2ba79ca9"
                            }
                        ],
                        "signature": "getPriceOracle()"
                    },
                    "errorInfo": "",
                    "fromAddress": "0x7d2768de32b0b80b7a3454c06bdac94a69ddc7a9",
                    "gasUsed": 2579,
                    "id": 6,
                    "methodDecoded": true,
                    "operation": "STATICCALL",
                    "output": "0x000000000000000000000000a50ba011c48153de246e5192c8f9258a2ba79ca9",
                    "revert": false,
                    "revertMessage": "",
                    "selector": "0xfca513a8",
                    "status": true,
                    "value": "0"
                },
                "nodeType": 0
            },
            "7": {
                "invocation": {
                    "address": "0xf5543cdd5f551635e13ebe07e47d01d0fc9cbbd5",
                    "callData": "0x0000000000000000000000007fc66500c84a76ad7e9c93437bfc5ac33e2ddae9000000000000000000000000000000000000000000000002c4ea72f456a2adfa000000000000000000000000000000000000000000000002c4ea72f456a2adfa00000000000000000000000000000000000000000000000000000000000000359bcc6e224f658e66c8c9406e067132a8b4b33da4ce949255447d720e2ddbecfb00000000000000000000000000000000000000000000000000000000000000370000000000000000000000000000000000000000000000000000000000000022000000000000000000000000a50ba011c48153de246e5192c8f9258a2ba79ca9",
                    "decodedMethod": null,
                    "errorInfo": "",
                    "fromAddress": "0x7d2768de32b0b80b7a3454c06bdac94a69ddc7a9",
                    "gasUsed": 9655,
                    "id": 7,
                    "methodDecoded": false,
                    "operation": "DELEGATECALL",
                    "output": "",
                    "revert": false,
                    "revertMessage": "",
                    "selector": "0xd09db04a",
                    "status": true,
                    "value": "0"
                },
                "nodeType": 0
            },
            "8": {
                "invocation": {
                    "address": "0xeae736e5d6560169f9285c62492f8a89fb4ab790",
                    "callData": "0x0000000000000000000000007fc66500c84a76ad7e9c93437bfc5ac33e2ddae9000000000000000000000000423ca0f840d7efc866fcda5768320261416818dd000000000000000000000000000000000000000000000002c4ea72f456a2adfa0000000000000000000000000000000000000000000000000000000000000035000000000000000000000000000000000000000000000000000000000000200000000000000000000000000000000000000000000000000000000000000000370000000000000000000000000000000000000000000000000000000000000022000000000000000000000000a50ba011c48153de246e5192c8f9258a2ba79ca9",
                    "decodedMethod": null,
                    "errorInfo": "",
                    "fromAddress": "0x7d2768de32b0b80b7a3454c06bdac94a69ddc7a9",
                    "gasUsed": 1021,
                    "id": 8,
                    "methodDecoded": false,
                    "operation": "DELEGATECALL",
                    "output": "0x0000000000000000000000000000000000000000000000000000000000000001",
                    "revert": false,
                    "revertMessage": "",
                    "selector": "0xe6170424",
                    "status": true,
                    "value": "0"
                },
                "nodeType": 0
            },
            "9": {
                "invocation": {
                    "address": "0xf7dba49d571745d9d7fcb56225b05bea803ebf3c",
                    "callData": "0x",
                    "decodedMethod": {
                        "callParams": [],
                        "constructorArguments": "",
                        "name": "scaledTotalSupply",
                        "returnParams": [
                            {
                                "name": "",
                                "type": "uint256",
                                "value": "0"
                            }
                        ],
                        "signature": "scaledTotalSupply()"
                    },
                    "errorInfo": "",
                    "fromAddress": "0x7d2768de32b0b80b7a3454c06bdac94a69ddc7a9",
                    "gasUsed": 7463,
                    "id": 9,
                    "methodDecoded": true,
                    "operation": "STATICCALL",
                    "output": "0x0000000000000000000000000000000000000000000000000000000000000000",
                    "revert": false,
                    "revertMessage": "",
                    "selector": "0xb1bf962d",
                    "status": true,
                    "value": "0"
                },
                "nodeType": 0
            }
        },
        "gasFlame": [
            {
                "children": [
                    {
                        "children": [
                            {
                                "children": [],
                                "depth": 0,
                                "name": "Initial Gas",
                                "value": 22300
                            },
                            {
                                "children": [
                                    {
                                        "children": [
                                            {
                                                "children": [
                                                    {
                                                        "children": [
                                                            {
                                                                "children": [
                                                                    {
                                                                        "children": [],
                                                                        "depth": 5,
                                                                        "name": "getReserveNormalizedIncome",
                                                                        "value": 7700
                                                                    }
                                                                ],
                                                                "depth": 4,
                                                                "name": "getReserveNormalizedIncome",
                                                                "value": 8311
                                                            }
                                                        ],
                                                        "depth": 3,
                                                        "name": "balanceOf",
                                                        "value": 11557
                                                    }
                                                ],
                                                "depth": 2,
                                                "name": "balanceOf",
                                                "value": 16668
                                            },
                                            {
                                                "children": [],
                                                "depth": 2,
                                                "name": "getPriceOracle",
                                                "value": 2579
                                            },
                                            {
                                                "children": [
                                                    {
                                                        "children": [],
                                                        "depth": 3,
                                                        "name": "0xe6170424",
                                                        "value": 1021
                                                    }
                                                ],
                                                "depth": 2,
                                                "name": "0xd09db04a",
                                                "value": 9655
                                            },
                                            {
                                                "children": [
                                                    {
                                                        "children": [],
                                                        "depth": 3,
                                                        "name": "scaledTotalSupply",
                                                        "value": 2355
                                                    }
                                                ],
                                                "depth": 2,
                                                "name": "scaledTotalSupply",
                                                "value": 7463
                                            },
                                            {
                                                "children": [
                                                    {
                                                        "children": [],
                                                        "depth": 3,
                                                        "name": "getTotalSupplyAndAvgRate",
                                                        "value": 4671
                                                    }
                                                ],
                                                "depth": 2,
                                                "name": "getTotalSupplyAndAvgRate",
                                                "value": 9782
                                            },
                                            {
                                                "children": [
                                                    {
                                                        "children": [],
                                                        "depth": 3,
                                                        "name": "scaledTotalSupply",
                                                        "value": 355
                                                    }
                                                ],
                                                "depth": 2,
                                                "name": "scaledTotalSupply",
                                                "value": 963
                                            },
                                            {
                                                "children": [
                                                    {
                                                        "children": [],
                                                        "depth": 3,
                                                        "name": "balanceOf",
                                                        "value": 2649
                                                    }
                                                ],
                                                "depth": 2,
                                                "name": "balanceOf",
                                                "value": 9884
                                            },
                                            {
                                                "children": [
                                                    {
                                                        "children": [],
                                                        "depth": 3,
                                                        "name": "getLendingRateOracle",
                                                        "value": 2559
                                                    },
                                                    {
                                                        "children": [],
                                                        "depth": 3,
                                                        "name": "getMarketBorrowRate",
                                                        "value": 2486
                                                    }
                                                ],
                                                "depth": 2,
                                                "name": "calculateInterestRates",
                                                "value": 10722
                                            },
                                            {
                                                "children": [
                                                    {
                                                        "children": [
                                                            {
                                                                "children": [
                                                                    {
                                                                        "children": [],
                                                                        "depth": 5,
                                                                        "name": "transfer",
                                                                        "value": 170343
                                                                    }
                                                                ],
                                                                "depth": 4,
                                                                "name": "transfer",
                                                                "value": 171113
                                                            }
                                                        ],
                                                        "depth": 3,
                                                        "name": "burn",
                                                        "value": 185945
                                                    }
                                                ],
                                                "depth": 2,
                                                "name": "burn",
                                                "value": 186568
                                            }
                                        ],
                                        "depth": 1,
                                        "name": "withdraw",
                                        "value": 308940
                                    }
                                ],
                                "depth": 0,
                                "name": "Executed Gas",
                                "value": 314060
                            }
                        ],
                        "depth": -1,
                        "name": "Actual Gas Used",
                        "value": 326760
                    },
                    {
                        "children": [],
                        "depth": -1,
                        "name": "Refunded Gas",
                        "value": 9600
                    }
                ],
                "depth": -2,
                "name": "Total Gas",
                "value": 336360
            }
        ],
        "isConfirmed": true,
        "mainTrace": [
            {
                "children": [
                    {
                        "children": [
                            {
                                "children": [
                                    {
                                        "children": [
                                            {
                                                "children": [
                                                    {
                                                        "children": [
                                                            {
                                                                "children": [],
                                                                "depth": 5,
                                                                "id": 5,
                                                                "order": 5
                                                            }
                                                        ],
                                                        "depth": 4,
                                                        "id": 4,
                                                        "order": 4
                                                    }
                                                ],
                                                "depth": 3,
                                                "id": 3,
                                                "order": 3
                                            }
                                        ],
                                        "depth": 2,
                                        "id": 2,
                                        "order": 2
                                    },
                                    {
                                        "children": [],
                                        "depth": 2,
                                        "id": 6,
                                        "order": 6
                                    },
                                    {
                                        "children": [
                                            {
                                                "children": [],
                                                "depth": 3,
                                                "id": 8,
                                                "order": 8
                                            }
                                        ],
                                        "depth": 2,
                                        "id": 7,
                                        "order": 7
                                    },
                                    {
                                        "children": [
                                            {
                                                "children": [],
                                                "depth": 3,
                                                "id": 10,
                                                "order": 10
                                            }
                                        ],
                                        "depth": 2,
                                        "id": 9,
                                        "order": 9
                                    },
                                    {
                                        "children": [
                                            {
                                                "children": [],
                                                "depth": 3,
                                                "id": 12,
                                                "order": 12
                                            }
                                        ],
                                        "depth": 2,
                                        "id": 11,
                                        "order": 11
                                    },
                                    {
                                        "children": [
                                            {
                                                "children": [],
                                                "depth": 3,
                                                "id": 14,
                                                "order": 14
                                            }
                                        ],
                                        "depth": 2,
                                        "id": 13,
                                        "order": 13
                                    },
                                    {
                                        "children": [
                                            {
                                                "children": [],
                                                "depth": 3,
                                                "id": 16,
                                                "order": 16
                                            }
                                        ],
                                        "depth": 2,
                                        "id": 15,
                                        "order": 15
                                    },
                                    {
                                        "children": [
                                            {
                                                "children": [],
                                                "depth": 3,
                                                "id": 18,
                                                "order": 18
                                            },
                                            {
                                                "children": [],
                                                "depth": 3,
                                                "id": 19,
                                                "order": 19
                                            }
                                        ],
                                        "depth": 2,
                                        "id": 17,
                                        "order": 17
                                    },
                                    {
                                        "children": [],
                                        "depth": 2,
                                        "id": 20,
                                        "order": 20
                                    },
                                    {
                                        "children": [],
                                        "depth": 2,
                                        "id": 21,
                                        "order": 21
                                    },
                                    {
                                        "children": [
                                            {
                                                "children": [
                                                    {
                                                        "children": [
                                                            {
                                                                "children": [
                                                                    {
                                                                        "children": [],
                                                                        "depth": 6,
                                                                        "id": 26,
                                                                        "order": 26
                                                                    },
                                                                    {
                                                                        "children": [],
                                                                        "depth": 6,
                                                                        "id": 27,
                                                                        "order": 27
                                                                    },
                                                                    {
                                                                        "children": [],
                                                                        "depth": 6,
                                                                        "id": 28,
                                                                        "order": 28
                                                                    },
                                                                    {
                                                                        "children": [],
                                                                        "depth": 6,
                                                                        "id": 29,
                                                                        "order": 29
                                                                    },
                                                                    {
                                                                        "children": [],
                                                                        "depth": 6,
                                                                        "id": 30,
                                                                        "order": 30
                                                                    }
                                                                ],
                                                                "depth": 5,
                                                                "id": 25,
                                                                "order": 25
                                                            }
                                                        ],
                                                        "depth": 4,
                                                        "id": 24,
                                                        "order": 24
                                                    },
                                                    {
                                                        "children": [],
                                                        "depth": 4,
                                                        "id": 31,
                                                        "order": 31
                                                    },
                                                    {
                                                        "children": [],
                                                        "depth": 4,
                                                        "id": 32,
                                                        "order": 32
                                                    }
                                                ],
                                                "depth": 3,
                                                "id": 23,
                                                "order": 23
                                            }
                                        ],
                                        "depth": 2,
                                        "id": 22,
                                        "order": 22
                                    },
                                    {
                                        "children": [],
                                        "depth": 2,
                                        "id": 33,
                                        "order": 33
                                    }
                                ],
                                "depth": 1,
                                "id": 1,
                                "order": 1
                            }
                        ],
                        "depth": 0,
                        "id": 0,
                        "order": 0
                    }
                ],
                "depth": -1,
                "id": -1,
                "order": -1
            }
        ],
        "mainTraceNodeCount": 34,
        "parentIdMap": {
            "0": -1,
            "1": 0,
            "10": 9,
            "11": 1,
            "12": 11,
            "13": 1,
            "14": 13,
            "15": 1,
            "16": 15,
            "17": 1,
            "18": 17,
            "19": 17,
            "2": 1,
            "20": 1,
            "21": 1,
            "22": 1,
            "23": 22,
            "24": 23,
            "25": 24,
            "26": 25,
            "27": 25,
            "28": 25,
            "29": 25,
            "3": 2,
            "30": 25,
            "31": 23,
            "32": 23,
            "33": 1,
            "4": 3,
            "5": 4,
            "6": 1,
            "7": 1,
            "8": 7,
            "9": 1
        },
        "tidyTrace": [
            {
                "children": [
                    {
                        "children": [
                            {
                                "children": [
                                    {
                                        "children": [
                                            {
                                                "children": [],
                                                "depth": 3,
                                                "id": 8,
                                                "order": 8
                                            }
                                        ],
                                        "depth": 2,
                                        "id": 7,
                                        "order": 7
                                    },
                                    {
                                        "children": [],
                                        "depth": 2,
                                        "id": 20,
                                        "order": 20
                                    },
                                    {
                                        "children": [],
                                        "depth": 2,
                                        "id": 21,
                                        "order": 21
                                    },
                                    {
                                        "children": [
                                            {
                                                "children": [
                                                    {
                                                        "children": [
                                                            {
                                                                "children": [
                                                                    {
                                                                        "children": [],
                                                                        "depth": 6,
                                                                        "id": 26,
                                                                        "order": 26
                                                                    },
                                                                    {
                                                                        "children": [],
                                                                        "depth": 6,
                                                                        "id": 27,
                                                                        "order": 27
                                                                    },
                                                                    {
                                                                        "children": [],
                                                                        "depth": 6,
                                                                        "id": 28,
                                                                        "order": 28
                                                                    },
                                                                    {
                                                                        "children": [],
                                                                        "depth": 6,
                                                                        "id": 29,
                                                                        "order": 29
                                                                    },
                                                                    {
                                                                        "children": [],
                                                                        "depth": 6,
                                                                        "id": 30,
                                                                        "order": 30
                                                                    }
                                                                ],
                                                                "depth": 5,
                                                                "id": 25,
                                                                "order": 25
                                                            }
                                                        ],
                                                        "depth": 4,
                                                        "id": 24,
                                                        "order": 24
                                                    },
                                                    {
                                                        "children": [],
                                                        "depth": 4,
                                                        "id": 31,
                                                        "order": 31
                                                    },
                                                    {
                                                        "children": [],
                                                        "depth": 4,
                                                        "id": 32,
                                                        "order": 32
                                                    }
                                                ],
                                                "depth": 3,
                                                "id": 23,
                                                "order": 23
                                            }
                                        ],
                                        "depth": 2,
                                        "id": 22,
                                        "order": 22
                                    },
                                    {
                                        "children": [],
                                        "depth": 2,
                                        "id": 33,
                                        "order": 33
                                    }
                                ],
                                "depth": 1,
                                "id": 1,
                                "order": 1
                            }
                        ],
                        "depth": 0,
                        "id": 0,
                        "order": 0
                    }
                ],
                "depth": -1,
                "id": -1,
                "order": -1
            }
        ],
        "tidyTraceNodeCount": 18
    },
    "state_change": {
        "stateChanges": [
            {
                "address": "0x7d2768de32b0b80b7a3454c06bdac94a69ddc7a9",
                "erc": "",
                "slots": [
                    {
                        "current": "0x00000000000000000000000062799d3b00000000000000000000000000000000",
                        "key": "0xfd6f5016e10be36303245af31bddf16c103c2fff6b23b697508ab1891555fc97",
                        "prev": "0x00000000000000000000000062799bd800000000000000000000000000000000"
                    },
                    {
                        "current": "0x0000000000000000000000000000000000000000000000000000000000000000",
                        "key": "0x9bcc6e224f658e66c8c9406e067132a8b4b33da4ce949255447d720e2ddbecfb",
                        "prev": "0x0000000000000000000000000000000000000000000000000000000000002000"
                    }
                ],
                "storageVariables": [
                    {
                        "name": "_reserves",
                        "type": "mapping(address => struct DataTypes.ReserveData)",
                        "value": {
                            "pairs": [
                                {
                                    "key": "0x7fc66500c84a76ad7e9c93437bfc5ac33e2ddae9",
                                    "value": {
                                        "fields": [
                                            {
                                                "name": "currentStableBorrowRate",
                                                "type": "uint128",
                                                "value": {
                                                    "current": "0",
                                                    "prev": "0",
                                                    "typeTag": 1
                                                }
                                            },
                                            {
                                                "name": "lastUpdateTimestamp",
                                                "type": "uint40",
                                                "value": {
                                                    "current": "1652137275",
                                                    "prev": "1652136920",
                                                    "typeTag": 1
                                                }
                                            }
                                        ],
                                        "typeTag": 3
                                    }
                                }
                            ],
                            "typeTag": 4
                        }
                    },
                    {
                        "name": "_usersConfig",
                        "type": "mapping(address => struct DataTypes.UserConfigurationMap)",
                        "value": {
                            "pairs": [
                                {
                                    "key": "0x423ca0f840d7efc866fcda5768320261416818dd",
                                    "value": {
                                        "fields": [
                                            {
                                                "name": "data",
                                                "type": "uint256",
                                                "value": {
                                                    "current": "0",
                                                    "prev": "8192",
                                                    "typeTag": 1
                                                }
                                            }
                                        ],
                                        "typeTag": 3
                                    }
                                }
                            ],
                            "typeTag": 4
                        }
                    }
                ]
            },
            {
                "address": "0x7fc66500c84a76ad7e9c93437bfc5ac33e2ddae9",
                "erc": "ERC-20",
                "slots": [
                    {
                        "current": "0x0000000000015c55be5dc72aa21f0d4100000000000000000000000000e0fe14",
                        "key": "0xf376e0600d4c20ab7cc7f94795ad6d91f7dbde13bf7648803df9be02624b6c40",
                        "prev": "0x0000000000000000000000000000000000000000000000000000000000000000"
                    },
                    {
                        "current": "0x00000000000000000000000000000000000000000000000000000000000039ca",
                        "key": "0xb4d33d683127c82894a6165154af6438c7845979b141339f1a2a73d54f0db732",
                        "prev": "0x00000000000000000000000000000000000000000000000000000000000039c9"
                    },
                    {
                        "current": "0x000000000000000000000000000000000000000000000000000000000000000d",
                        "key": "0x0a1473fef657399c79048ba86ba56a15b0c8bc22f17083b08d5ba1d5b0f8b495",
                        "prev": "0x000000000000000000000000000000000000000000000000000000000000000c"
                    },
                    {
                        "current": "0x0000000000015c55be5dc72aa21f0d4100000000000000000000000000e0fe14",
                        "key": "0x8de64fcb8668fbae5363b49b279c7e75397a6c12fb6a8b5a66bb4eeeaee50f49",
                        "prev": "0x0000000000000000000000000000000000000000000000000000000000000000"
                    },
                    {
                        "current": "0x000000000000000000000000000000000000000000000000000000000000000d",
                        "key": "0xd31e83068beb27b932b3038c6971f8147cb20e06a8d2dc04f2ef3a1e2aed13f5",
                        "prev": "0x000000000000000000000000000000000000000000000000000000000000000c"
                    },
                    {
                        "current": "0x0000000000000002c4ea72f456a2adfa00000000000000000000000000e0fe14",
                        "key": "0x96436322a0605d92906627e7f569691aef70be0d4db77b138a3862b50de74a38",
                        "prev": "0x0000000000000000000000000000000000000000000000000000000000000000"
                    },
                    {
                        "current": "0x0000000000000002c4ea72f456a2adfa00000000000000000000000000e0fe14",
                        "key": "0x8ee5ff723160582e2d55767d06a2f4ceab7a7913e4253f922748fd21958933c7",
                        "prev": "0x0000000000000000000000000000000000000000000000000000000000000000"
                    },
                    {
                        "current": "0x000000000000000000000000000000000000000000000002c4ea72f456a2adfa",
                        "key": "0x1c391b54173d1c077d6238332ee5d0ac6aa4940f52156293be61b53be97d2b39",
                        "prev": "0x0000000000000000000000000000000000000000000000000000000000000000"
                    },
                    {
                        "current": "0x000000000000000000000000000000000000000000000000000000000000384c",
                        "key": "0x73564aa56d32d9b624cc97631dfb066103d631528271d8ff92911a4ab6d3cb46",
                        "prev": "0x000000000000000000000000000000000000000000000000000000000000384b"
                    },
                    {
                        "current": "0x000000000000000000000000000000000000000000015c55be5dc72aa21f0d41",
                        "key": "0x1fa81879371a701d85144d9bdf35aaa56c4f544c6d7402a66b48064e87301908",
                        "prev": "0x000000000000000000000000000000000000000000015c5883483a1ef8c1bb3b"
                    }
                ],
                "storageVariables": [
                    {
                        "name": "_votingSnapshots",
                        "type": "mapping(address => mapping(uint256 => struct GovernancePowerDelegationERC20.Snapshot))",
                        "value": {
                            "pairs": [
                                {
                                    "key": "0x423ca0f840d7efc866fcda5768320261416818dd",
                                    "value": {
                                        "pairs": [
                                            {
                                                "key": "12",
                                                "value": {
                                                    "fields": [
                                                        {
                                                            "name": "blockNumber",
                                                            "type": "uint128",
                                                            "value": {
                                                                "current": "14745108",
                                                                "prev": "0",
                                                                "typeTag": 1
                                                            }
                                                        },
                                                        {
                                                            "name": "value",
                                                            "type": "uint128",
                                                            "value": {
                                                                "current": "51082768117154360826",
                                                                "prev": "0",
                                                                "typeTag": 1
                                                            }
                                                        }
                                                    ],
                                                    "typeTag": 3
                                                }
                                            }
                                        ],
                                        "typeTag": 4
                                    }
                                },
                                {
                                    "key": "0xffc97d72e13e01096502cb8eb52dee56f74dad7b",
                                    "value": {
                                        "pairs": [
                                            {
                                                "key": "14793",
                                                "value": {
                                                    "fields": [
                                                        {
                                                            "name": "blockNumber",
                                                            "type": "uint128",
                                                            "value": {
                                                                "current": "14745108",
                                                                "prev": "0",
                                                                "typeTag": 1
                                                            }
                                                        },
                                                        {
                                                            "name": "value",
                                                            "type": "uint128",
                                                            "value": {
                                                                "current": "1644965226623927809150273",
                                                                "prev": "0",
                                                                "typeTag": 1
                                                            }
                                                        }
                                                    ],
                                                    "typeTag": 3
                                                }
                                            }
                                        ],
                                        "typeTag": 4
                                    }
                                }
                            ],
                            "typeTag": 4
                        }
                    },
                    {
                        "name": "_votingSnapshotsCounts",
                        "type": "mapping(address => uint256)",
                        "value": {
                            "pairs": [
                                {
                                    "key": "0x423ca0f840d7efc866fcda5768320261416818dd",
                                    "value": {
                                        "current": "13",
                                        "prev": "12",
                                        "typeTag": 1
                                    }
                                },
                                {
                                    "key": "0xffc97d72e13e01096502cb8eb52dee56f74dad7b",
                                    "value": {
                                        "current": "14794",
                                        "prev": "14793",
                                        "typeTag": 1
                                    }
                                }
                            ],
                            "typeTag": 4
                        }
                    },
                    {
                        "name": "_propositionPowerSnapshots",
                        "type": "mapping(address => mapping(uint256 => struct GovernancePowerDelegationERC20.Snapshot))",
                        "value": {
                            "pairs": [
                                {
                                    "key": "0x423ca0f840d7efc866fcda5768320261416818dd",
                                    "value": {
                                        "pairs": [
                                            {
                                                "key": "12",
                                                "value": {
                                                    "fields": [
                                                        {
                                                            "name": "blockNumber",
                                                            "type": "uint128",
                                                            "value": {
                                                                "current": "14745108",
                                                                "prev": "0",
                                                                "typeTag": 1
                                                            }
                                                        },
                                                        {
                                                            "name": "value",
                                                            "type": "uint128",
                                                            "value": {
                                                                "current": "51082768117154360826",
                                                                "prev": "0",
                                                                "typeTag": 1
                                                            }
                                                        }
                                                    ],
                                                    "typeTag": 3
                                                }
                                            }
                                        ],
                                        "typeTag": 4
                                    }
                                },
                                {
                                    "key": "0xffc97d72e13e01096502cb8eb52dee56f74dad7b",
                                    "value": {
                                        "pairs": [
                                            {
                                                "key": "14411",
                                                "value": {
                                                    "fields": [
                                                        {
                                                            "name": "blockNumber",
                                                            "type": "uint128",
                                                            "value": {
                                                                "current": "14745108",
                                                                "prev": "0",
                                                                "typeTag": 1
                                                            }
                                                        },
                                                        {
                                                            "name": "value",
                                                            "type": "uint128",
                                                            "value": {
                                                                "current": "1644965226623927809150273",
                                                                "prev": "0",
                                                                "typeTag": 1
                                                            }
                                                        }
                                                    ],
                                                    "typeTag": 3
                                                }
                                            }
                                        ],
                                        "typeTag": 4
                                    }
                                }
                            ],
                            "typeTag": 4
                        }
                    },
                    {
                        "name": "_propositionPowerSnapshotsCounts",
                        "type": "mapping(address => uint256)",
                        "value": {
                            "pairs": [
                                {
                                    "key": "0x423ca0f840d7efc866fcda5768320261416818dd",
                                    "value": {
                                        "current": "13",
                                        "prev": "12",
                                        "typeTag": 1
                                    }
                                },
                                {
                                    "key": "0xffc97d72e13e01096502cb8eb52dee56f74dad7b",
                                    "value": {
                                        "current": "14412",
                                        "prev": "14411",
                                        "typeTag": 1
                                    }
                                }
                            ],
                            "typeTag": 4
                        }
                    },
                    {
                        "name": "_balances",
                        "type": "mapping(address => uint256)",
                        "value": {
                            "pairs": [
                                {
                                    "key": "0x423ca0f840d7efc866fcda5768320261416818dd",
                                    "value": {
                                        "current": "51082768117154360826",
                                        "prev": "0",
                                        "typeTag": 1
                                    }
                                },
                                {
                                    "key": "0xffc97d72e13e01096502cb8eb52dee56f74dad7b",
                                    "value": {
                                        "current": "1644965226623927809150273",
                                        "prev": "1645016309392044963511099",
                                        "typeTag": 1
                                    }
                                }
                            ],
                            "typeTag": 4
                        }
                    }
                ]
            },
            {
                "address": "0xffc97d72e13e01096502cb8eb52dee56f74dad7b",
                "erc": "ERC-20",
                "slots": [
                    {
                        "current": "0x000000000000000000000000000000000000000000015c4d593658d1a6bf6de3",
                        "key": "0x0000000000000000000000000000000000000000000000000000000000000036",
                        "prev": "0x000000000000000000000000000000000000000000015c501e0fb5e910eba203"
                    },
                    {
                        "current": "0x0000000000000000000000000000000000000000000000000000000000000000",
                        "key": "0xa8fd59ffcb38e74178ac37990f35f71d322f4f2d419bee58f9af63b363263daa",
                        "prev": "0x000000000000000000000000000000000000000000000002c4d95d176a2c3420"
                    }
                ],
                "storageVariables": [
                    {
                        "name": "_totalSupply",
                        "type": "uint256",
                        "value": {
                            "current": "1644810363755487756774883",
                            "prev": "1644861441714491702878723",
                            "typeTag": 1
                        }
                    },
                    {
                        "name": "_balances",
                        "type": "mapping(address => uint256)",
                        "value": {
                            "pairs": [
                                {
                                    "key": "0x423ca0f840d7efc866fcda5768320261416818dd",
                                    "value": {
                                        "current": "0",
                                        "prev": "51077959003946103840",
                                        "typeTag": 1
                                    }
                                }
                            ],
                            "typeTag": 4
                        }
                    }
                ]
            }
        ]
    }
}