{
    "balance_change": {
        "balanceChanges": [
            {
                "account": "0x7e2a9cdf1946ea3c9c605b2a6aeea89eea5f6573",
                "assets": [
                    {
                        "address": "0xb6ee603933e024d8d53dde3faa0bf98fe2a3d6f1",
                        "amount": "0.007681015038747834",
                        "iconUrl": "",
                        "isERC1155": false,
                        "isERC721": false,
                        "sign": true,
                        "value": "0.16457773"
                    },
                    {
                        "address": "0xde3e18ecb613498b9a1483af51394ec2259bcd0a",
                        "amount": "1,709.58593962473617027",
                        "iconUrl": "",
                        "isERC1155": false,
                        "isERC721": false,
                        "sign": false,
                        "value": "6202.629727"
                    }
                ]
            },
            {
                "account": "0xbb10bc5a825f3f6b148bf83ed4b679c88ab27b54",
                "assets": [
                    {
                        "address": "0xde3e18ecb613498b9a1483af51394ec2259bcd0a",
                        "amount": "1,709.58593962473617027",
                        "iconUrl": "",
                        "isERC1155": false,
                        "isERC721": false,
                        "sign": true,
                        "value": "6202.629727"
                    }
                ]
            },
            {
                "account": "0xdcd7ca4a0febbf5dcf91499b603c1c073916f9a3",
                "assets": [
                    {
                        "address": "0xb6ee603933e024d8d53dde3faa0bf98fe2a3d6f1",
                        "amount": "0.007681015038747834",
                        "iconUrl": "",
                        "isERC1155": false,
                        "isERC721": false,
                        "sign": false,
                        "value": "0.16457773"
                    }
                ]
            }
        ]
    },
    "profile": {
        "basic_info": {
            "baseFee": "",
            "blockNumber": 12211952,
            "callData": "0xb6b55f2500000000000000000000000000000000000000000000005cad455a506ecda11e",
            "debugEnable": true,
            "errorInfo": "",
            "eventCount": 6,
            "feeRecipient": "0x5a0b54d5dc17e0aadc383d2db43b0a0d3e029c4c",
            "formatValue": "0",
            "gasLimit": 387120,
            "gasPrice": "80.000001459",
            "gasUsed": 223880,
            "intTxnCount": 16,
            "internalRevert": false,
            "internalRevertMessage": "",
            "isContractCreation": false,
            "isFlashloan": false,
            "maxFee": "",
            "nonce": 55,
            "overwritedBlockNumber": -1,
            "priorityFee": "",
            "receiver": "0xbb10bc5a825f3f6b148bf83ed4b679c88ab27b54",
            "revertMessage": "",
            "sender": "0x7e2a9cdf1946ea3c9c605b2a6aeea89eea5f6573",
            "simulationEnable": true,
            "sourceTxnHash": "0x08d7880ecfbc54ca0d4f9a55e0af73a09a19a34b7de2e12fb02b36aa3b6ee42e",
            "status": true,
            "timestamp": "2021-04-10T11:46:28Z",
            "transactionFee": "0.01791040032664092",
            "txnHash": "0x08d7880ecfbc54ca0d4f9a55e0af73a09a19a34b7de2e12fb02b36aa3b6ee42e",
            "txnIndex": 176,
            "type": 0,
            "value": "0"
        },
        "fund_flow": [
            {
                "amount": "0.007681015038747834",
                "from": "0xdcd7ca4a0febbf5dcf91499b603c1c073916f9a3",
                "id": 1,
                "isERC1155": false,
                "isERC721": false,
                "isReverted": false,
                "order": 1,
                "to": "0x7e2a9cdf1946ea3c9c605b2a6aeea89eea5f6573",
                "token": "0xb6ee603933e024d8d53dde3faa0bf98fe2a3d6f1"
            },
            {
                "amount": "1,709.58593962473617027",
                "from": "0x7e2a9cdf1946ea3c9c605b2a6aeea89eea5f6573",
                "id": 2,
                "isERC1155": false,
                "isERC721": false,
                "isReverted": false,
                "order": 2,
                "to": "0xbb10bc5a825f3f6b148bf83ed4b679c88ab27b54",
                "token": "0xde3e18ecb613498b9a1483af51394ec2259bcd0a"
            }
        ],
        "token_infos": [
            {
                "address": "0xb6ee603933e024d8d53dde3faa0bf98fe2a3d6f1",
                "decimals": 18
            },
            {
                "address": "0xc02aaa39b223fe8d0a0e5c4f27ead9083c756cc2",
                "decimals": 18
            },
            {
                "address": "0xde3e18ecb613498b9a1483af51394ec2259bcd0a",
                "decimals": 18
            },
            {
                "address": "0xeeeeeeeeeeeeeeeeeeeeeeeeeeeeeeeeeeeeeeee",
                "decimals": 18
            }
        ]
    },
    "address_label": {
        "labels": [
            {
                "address": "0xdcd7ca4a0febbf5dcf91499b603c1c073916f9a3",
                "label": "AnyStakeVault"
            },
            {
                "address": "0xefccb112270c3c197b86ff03d26340d82a087f6c",
                "label": "DeFiatGov"
            },
            {
                "address": "0x0000000000000000000000000000000000000001",
                "label": "Precompiled"
            },
            {
                "address": "0xde3e18ecb613498b9a1483af51394ec2259bcd0a",
                "label": "DeFiat Points v2: DeFiat Points v2 Token"
            },
            {
                "address": "0xb6ee603933e024d8d53dde3faa0bf98fe2a3d6f1",
                "label": "DeFiat (DFT)"
            },
            {
                "address": "0xbb10bc5a825f3f6b148bf83ed4b679c88ab27b54",
                "label": "AnyStakeRegulator"
            },
            {
                "address": "0x0000000000000000000000000000000000000004",
                "label": "Precompiled"
            },
            {
                "address": "0xeeeeeeeeeeeeeeeeeeeeeeeeeeeeeeeeeeeeeeee",
                "label": "Ether"
            },
            {
                "address": "0x0000000000000000000000000000000000000002",
                "label": "Precompiled"
            },
            {
                "address": "0x0000000000000000000000000000000000000003",
                "label": "Precompiled"
            }
        ]
    },
    "trace": {
        "accountLabels": null,
        "dataMap": {
            "-1": {
                "invocation": {
                    "address": "0x7e2a9cdf1946ea3c9c605b2a6aeea89eea5f6573",
                    "callData": "",
                    "decodedMethod": null,
                    "errorInfo": "",
                    "fromAddress": "",
                    "gasUsed": 0,
                    "id": -1,
                    "methodDecoded": false,
                    "operation": "",
                    "output": "",
                    "revert": false,
                    "revertMessage": "",
                    "selector": "",
                    "status": false,
                    "value": ""
                },
                "nodeType": 0
            },
            "0": {
                "invocation": {
                    "address": "0xbb10bc5a825f3f6b148bf83ed4b679c88ab27b54",
                    "callData": "0x00000000000000000000000000000000000000000000005cad455a506ecda11e",
                    "decodedMethod": {
                        "callParams": [
                            {
                                "name": "amount",
                                "type": "uint256",
                                "value": "1,709,585,939,624,736,170,270"
                            }
                        ],
                        "constructorArguments": "",
                        "name": "deposit",
                        "returnParams": [],
                        "signature": "deposit(uint256)"
                    },
                    "errorInfo": "",
                    "fromAddress": "0x7e2a9cdf1946ea3c9c605b2a6aeea89eea5f6573",
                    "gasUsed": 223880,
                    "id": 0,
                    "methodDecoded": true,
                    "operation": "CALL",
                    "output": "",
                    "revert": false,
                    "revertMessage": "",
                    "selector": "0xb6b55f25",
                    "status": true,
                    "value": "0"
                },
                "nodeType": 0
            },
            "1": {
                "invocation": {
                    "address": "0xdcd7ca4a0febbf5dcf91499b603c1c073916f9a3",
                    "callData": "0x",
                    "decodedMethod": {
                        "callParams": [],
                        "constructorArguments": "",
                        "name": "calculateRewards",
                        "returnParams": [],
                        "signature": "calculateRewards()"
                    },
                    "errorInfo": "",
                    "fromAddress": "0xbb10bc5a825f3f6b148bf83ed4b679c88ab27b54",
                    "gasUsed": 76994,
                    "id": 1,
                    "methodDecoded": true,
                    "operation": "CALL",
                    "output": "",
                    "revert": false,
                    "revertMessage": "",
                    "selector": "0x3e50de30",
                    "status": true,
                    "value": "0"
                },
                "nodeType": 0
            },
            "10": {
                "invocation": {
                    "address": "0xefccb112270c3c197b86ff03d26340d82a087f6c",
                    "callData": "0x",
                    "decodedMethod": {
                        "callParams": [],
                        "constructorArguments": "",
                        "name": "viewFeeDestination",
                        "returnParams": [
                            {
                                "name": "",
                                "type": "address",
                                "value": "0xdcd7ca4a0febbf5dcf91499b603c1c073916f9a3"
                            }
                        ],
                        "signature": "viewFeeDestination()"
                    },
                    "errorInfo": "",
                    "fromAddress": "0xb6ee603933e024d8d53dde3faa0bf98fe2a3d6f1",
                    "gasUsed": 1106,
                    "id": 10,
                    "methodDecoded": true,
                    "operation": "STATICCALL",
                    "output": "0x000000000000000000000000dcd7ca4a0febbf5dcf91499b603c1c073916f9a3",
                    "revert": false,
                    "revertMessage": "",
                    "selector": "0x44fbf7f1",
                    "status": true,
                    "value": "0"
                },
                "nodeType": 0
            },
            "11": {
                "invocation": {
                    "address": "0xde3e18ecb613498b9a1483af51394ec2259bcd0a",
                    "callData": "0x000000000000000000000000dcd7ca4a0febbf5dcf91499b603c1c073916f9a3",
                    "decodedMethod": {
                        "callParams": [
                            {
                                "name": "_address",
                                "type": "address",
                                "value": "0xdcd7ca4a0febbf5dcf91499b603c1c073916f9a3"
                            }
                        ],
                        "constructorArguments": "",
                        "name": "viewDiscountOf",
                        "returnParams": [
                            {
                                "name": "",
                                "type": "uint256",
                                "value": "100"
                            }
                        ],
                        "signature": "viewDiscountOf(address)"
                    },
                    "errorInfo": "",
                    "fromAddress": "0xb6ee603933e024d8d53dde3faa0bf98fe2a3d6f1",
                    "gasUsed": 1308,
                    "id": 11,
                    "methodDecoded": true,
                    "operation": "STATICCALL",
                    "output": "0x0000000000000000000000000000000000000000000000000000000000000064",
                    "revert": false,
                    "revertMessage": "",
                    "selector": "0x3ef94fa7",
                    "status": true,
                    "value": "0"
                },
                "nodeType": 0
            },
            "12": {
                "invocation": {
                    "address": "0xde3e18ecb613498b9a1483af51394ec2259bcd0a",
                    "callData": "0x0000000000000000000000007e2a9cdf1946ea3c9c605b2a6aeea89eea5f6573",
                    "decodedMethod": {
                        "callParams": [
                            {
                                "name": "_address",
                                "type": "address",
                                "value": "0x7e2a9cdf1946ea3c9c605b2a6aeea89eea5f6573"
                            }
                        ],
                        "constructorArguments": "",
                        "name": "viewDiscountOf",
                        "returnParams": [
                            {
                                "name": "",
                                "type": "uint256",
                                "value": "0"
                            }
                        ],
                        "signature": "viewDiscountOf(address)"
                    },
                    "errorInfo": "",
                    "fromAddress": "0xb6ee603933e024d8d53dde3faa0bf98fe2a3d6f1",
                    "gasUsed": 1308,
                    "id": 12,
                    "methodDecoded": true,
                    "operation": "STATICCALL",
                    "output": "0x0000000000000000000000000000000000000000000000000000000000000000",
                    "revert": false,
                    "revertMessage": "",
                    "selector": "0x3ef94fa7",
                    "status": true,
                    "value": "0"
                },
                "nodeType": 0
            },
            "13": {
                "event": {
                    "contract": "0xb6ee603933e024d8d53dde3faa0bf98fe2a3d6f1",
                    "decodedLog": {
                        "name": "Transfer",
                        "params": [
                            {
                                "name": "from",
                                "type": "address",
                                "value": "0xdcd7ca4a0febbf5dcf91499b603c1c073916f9a3"
                            },
                            {
                                "name": "to",
                                "type": "address",
                                "value": "0x7e2a9cdf1946ea3c9c605b2a6aeea89eea5f6573"
                            },
                            {
                                "decimalAvailable": true,
                                "name": "value",
                                "type": "uint256",
                                "value": "7,681,015,038,747,834"
                            }
                        ],
                        "signature": "Transfer(address,address,uint256)"
                    },
                    "id": 13,
                    "logData": "0x000000000000000000000000000000000000000000000000001b49d7ace624ba",
                    "logDecoded": true,
                    "operation": "EVENT",
                    "revert": false,
                    "status": true,
                    "topics": [
                        "0xddf252ad1be2c89b69c2b068fc378daa952ba7f163c4a11628f55a4df523b3ef",
                        "0x000000000000000000000000dcd7ca4a0febbf5dcf91499b603c1c073916f9a3",
                        "0x0000000000000000000000007e2a9cdf1946ea3c9c605b2a6aeea89eea5f6573"
                    ]
                },
                "nodeType": 1
            },
            "14": {
                "invocation": {
                    "address": "0xde3e18ecb613498b9a1483af51394ec2259bcd0a",
                    "callData": "0x000000000000000000000000dcd7ca4a0febbf5dcf91499b603c1c073916f9a3000000000000000000000000000000000000000000000000001b49d7ace624ba0000000000000000000000000000000000000000000000000de0b6b3a7640000",
                    "decodedMethod": {
                        "callParams": [
                            {
                                "name": "_address",
                                "type": "address",
                                "value": "0xdcd7ca4a0febbf5dcf91499b603c1c073916f9a3"
                            },
                            {
                                "name": "_txSize",
                                "type": "uint256",
                                "value": "7,681,015,038,747,834"
                            },
                            {
                                "name": "_points",
                                "type": "uint256",
                                "value": "1,000,000,000,000,000,000"
                            }
                        ],
                        "constructorArguments": "",
                        "name": "addPoints",
                        "returnParams": [],
                        "signature": "addPoints(address,uint256,uint256)"
                    },
                    "errorInfo": "",
                    "fromAddress": "0xb6ee603933e024d8d53dde3faa0bf98fe2a3d6f1",
                    "gasUsed": 8706,
                    "id": 14,
                    "methodDecoded": true,
                    "operation": "CALL",
                    "output": "",
                    "revert": false,
                    "revertMessage": "",
                    "selector": "0x23d14d60",
                    "status": true,
                    "value": "0"
                },
                "nodeType": 0
            },
            "15": {
                "invocation": {
                    "address": "0xefccb112270c3c197b86ff03d26340d82a087f6c",
                    "callData": "0x000000000000000000000000b6ee603933e024d8d53dde3faa0bf98fe2a3d6f1",
                    "decodedMethod": {
                        "callParams": [
                            {
                                "name": "_address",
                                "type": "address",
                                "value": "0xb6ee603933e024d8d53dde3faa0bf98fe2a3d6f1"
                            }
                        ],
                        "constructorArguments": "",
                        "name": "viewActorLevelOf",
                        "returnParams": [
                            {
                                "name": "",
                                "type": "uint256",
                                "value": "2"
                            }
                        ],
                        "signature": "viewActorLevelOf(address)"
                    },
                    "errorInfo": "",
                    "fromAddress": "0xde3e18ecb613498b9a1483af51394ec2259bcd0a",
                    "gasUsed": 1241,
                    "id": 15,
                    "methodDecoded": true,
                    "operation": "STATICCALL",
                    "output": "0x0000000000000000000000000000000000000000000000000000000000000002",
                    "revert": false,
                    "revertMessage": "",
                    "selector": "0x7cf07998",
                    "status": true,
                    "value": "0"
                },
                "nodeType": 0
            },
            "16": {
                "invocation": {
                    "address": "0xefccb112270c3c197b86ff03d26340d82a087f6c",
                    "callData": "0x",
                    "decodedMethod": {
                        "callParams": [],
                        "constructorArguments": "",
                        "name": "viewTxThreshold",
                        "returnParams": [
                            {
                                "name": "",
                                "type": "uint256",
                                "value": "5,000,000,000,000,000,000"
                            }
                        ],
                        "signature": "viewTxThreshold()"
                    },
                    "errorInfo": "",
                    "fromAddress": "0xde3e18ecb613498b9a1483af51394ec2259bcd0a",
                    "gasUsed": 1059,
                    "id": 16,
                    "methodDecoded": true,
                    "operation": "STATICCALL",
                    "output": "0x0000000000000000000000000000000000000000000000004563918244f40000",
                    "revert": false,
                    "revertMessage": "",
                    "selector": "0x0f729089",
                    "status": true,
                    "value": "0"
                },
                "nodeType": 0
            },
            "17": {
                "event": {
                    "contract": "0xbb10bc5a825f3f6b148bf83ed4b679c88ab27b54",
                    "decodedLog": {
                        "name": "Claim",
                        "params": [
                            {
                                "name": "user",
                                "type": "address",
                                "value": "0x7e2a9cdf1946ea3c9c605b2a6aeea89eea5f6573"
                            },
                            {
                                "name": "amount",
                                "type": "uint256",
                                "value": "7,681,015,038,747,834"
                            }
                        ],
                        "signature": "Claim(address,uint256)"
                    },
                    "id": 17,
                    "logData": "0x000000000000000000000000000000000000000000000000001b49d7ace624ba",
                    "logDecoded": true,
                    "operation": "EVENT",
                    "revert": false,
                    "status": true,
                    "topics": [
                        "0x47cee97cb7acd717b3c0aa1435d004cd5b3c8c57d70dbceb4e4458bbd60e39d4",
                        "0x0000000000000000000000007e2a9cdf1946ea3c9c605b2a6aeea89eea5f6573"
                    ]
                },
                "nodeType": 1
            },
            "18": {
                "invocation": {
                    "address": "0xde3e18ecb613498b9a1483af51394ec2259bcd0a",
                    "callData": "0x0000000000000000000000007e2a9cdf1946ea3c9c605b2a6aeea89eea5f6573000000000000000000000000bb10bc5a825f3f6b148bf83ed4b679c88ab27b5400000000000000000000000000000000000000000000005cad455a506ecda11e",
                    "decodedMethod": {
                        "callParams": [
                            {
                                "name": "sender",
                                "type": "address",
                                "value": "0x7e2a9cdf1946ea3c9c605b2a6aeea89eea5f6573"
                            },
                            {
                                "name": "recipient",
                                "type": "address",
                                "value": "0xbb10bc5a825f3f6b148bf83ed4b679c88ab27b54"
                            },
                            {
                                "decimalAvailable": true,
                                "name": "amount",
                                "type": "uint256",
                                "value": "1,709,585,939,624,736,170,270"
                            }
                        ],
                        "constructorArguments": "",
                        "name": "transferFrom",
                        "returnParams": [
                            {
                                "name": "",
                                "type": "bool",
                                "value": true
                            }
                        ],
                        "signature": "transferFrom(address,address,uint256)"
                    },
                    "errorInfo": "",
                    "fromAddress": "0xbb10bc5a825f3f6b148bf83ed4b679c88ab27b54",
                    "gasUsed": 30735,
                    "id": 18,
                    "methodDecoded": true,
                    "operation": "CALL",
                    "output": "0x0000000000000000000000000000000000000000000000000000000000000001",
                    "revert": false,
                    "revertMessage": "",
                    "selector": "0x23b872dd",
                    "status": true,
                    "value": "0"
                },
                "nodeType": 0
            },
            "19": {
                "event": {
                    "contract": "0xde3e18ecb613498b9a1483af51394ec2259bcd0a",
                    "decodedLog": {
                        "name": "Transfer",
                        "params": [
                            {
                                "name": "from",
                                "type": "address",
                                "value": "0x7e2a9cdf1946ea3c9c605b2a6aeea89eea5f6573"
                            },
                            {
                                "name": "to",
                                "type": "address",
                                "value": "0xbb10bc5a825f3f6b148bf83ed4b679c88ab27b54"
                            },
                            {
                                "decimalAvailable": true,
                                "name": "value",
                                "type": "uint256",
                                "value": "1,709,585,939,624,736,170,270"
                            }
                        ],
                        "signature": "Transfer(address,address,uint256)"
                    },
                    "id": 19,
                    "logData": "0x00000000000000000000000000000000000000000000005cad455a506ecda11e",
                    "logDecoded": true,
                    "operation": "EVENT",
                    "revert": false,
                    "status": true,
                    "topics": [
                        "0xddf252ad1be2c89b69c2b068fc378daa952ba7f163c4a11628f55a4df523b3ef",
                        "0x0000000000000000000000007e2a9cdf1946ea3c9c605b2a6aeea89eea5f6573",
                        "0x000000000000000000000000bb10bc5a825f3f6b148bf83ed4b679c88ab27b54"
                    ]
                },
                "nodeType": 1
            },
            "2": {
                "invocation": {
                    "address": "0xb6ee603933e024d8d53dde3faa0bf98fe2a3d6f1",
                    "callData": "0x000000000000000000000000dcd7ca4a0febbf5dcf91499b603c1c073916f9a3",
                    "decodedMethod": {
                        "callParams": [
                            {
                                "name": "account",
                                "type": "address",
                                "value": "0xdcd7ca4a0febbf5dcf91499b603c1c073916f9a3"
                            }
                        ],
                        "constructorArguments": "",
                        "name": "balanceOf",
                        "returnParams": [
                            {
                                "decimalAvailable": true,
                                "name": "",
                                "type": "uint256",
                                "value": "63,705,812,019,041,894,144,954"
                            }
                        ],
                        "signature": "balanceOf(address)"
                    },
                    "errorInfo": "",
                    "fromAddress": "0xdcd7ca4a0febbf5dcf91499b603c1c073916f9a3",
                    "gasUsed": 1285,
                    "id": 2,
                    "methodDecoded": true,
                    "operation": "STATICCALL",
                    "output": "0x000000000000000000000000000000000000000000000d7d7fbdc775f2b81bba",
                    "revert": false,
                    "revertMessage": "",
                    "selector": "0x70a08231",
                    "status": true,
                    "value": "0"
                },
                "nodeType": 0
            },
            "20": {
                "invocation": {
                    "address": "0xefccb112270c3c197b86ff03d26340d82a087f6c",
                    "callData": "0x0000000000000000000000007e2a9cdf1946ea3c9c605b2a6aeea89eea5f6573",
                    "decodedMethod": {
                        "callParams": [
                            {
                                "name": "_address",
                                "type": "address",
                                "value": "0x7e2a9cdf1946ea3c9c605b2a6aeea89eea5f6573"
                            }
                        ],
                        "constructorArguments": "",
                        "name": "viewActorLevelOf",
                        "returnParams": [
                            {
                                "name": "",
                                "type": "uint256",
                                "value": "0"
                            }
                        ],
                        "signature": "viewActorLevelOf(address)"
                    },
                    "errorInfo": "",
                    "fromAddress": "0xde3e18ecb613498b9a1483af51394ec2259bcd0a",
                    "gasUsed": 1241,
                    "id": 20,
                    "methodDecoded": true,
                    "operation": "STATICCALL",
                    "output": "0x0000000000000000000000000000000000000000000000000000000000000000",
                    "revert": false,
                    "revertMessage": "",
                    "selector": "0x7cf07998",
                    "status": true,
                    "value": "0"
                },
                "nodeType": 0
            },
            "21": {
                "event": {
                    "contract": "0xde3e18ecb613498b9a1483af51394ec2259bcd0a",
                    "decodedLog": {
                        "name": "Approval",
                        "params": [
                            {
                                "name": "owner",
                                "type": "address",
                                "value": "0x7e2a9cdf1946ea3c9c605b2a6aeea89eea5f6573"
                            },
                            {
                                "name": "spender",
                                "type": "address",
                                "value": "0xbb10bc5a825f3f6b148bf83ed4b679c88ab27b54"
                            },
                            {
                                "decimalAvailable": true,
                                "name": "value",
                                "type": "uint256",
                                "value": "115,792,089,237,316,195,423,570,985,008,687,907,853,269,984,665,640,564,036,225,367,291,172,779,528,338"
                            }
                        ],
                        "signature": "Approval(address,address,uint256)"
                    },
                    "id": 21,
                    "logData": "0xffffffffffffffffffffffffffffffffffffffffffffff50c7fb75248c0d1092",
                    "logDecoded": true,
                    "operation": "EVENT",
                    "revert": false,
                    "status": true,
                    "topics": [
                        "0x8c5be1e5ebec7d5bd14f71427d1e84f3dd0314c0f7b2291e5b200ac8c7c3b925",
                        "0x0000000000000000000000007e2a9cdf1946ea3c9c605b2a6aeea89eea5f6573",
                        "0x000000000000000000000000bb10bc5a825f3f6b148bf83ed4b679c88ab27b54"
                    ]
                },
                "nodeType": 1
            },
            "22": {
                "event": {
                    "contract": "0xbb10bc5a825f3f6b148bf83ed4b679c88ab27b54",
                    "decodedLog": {
                        "name": "Deposit",
                        "params": [
                            {
                                "name": "user",
                                "type": "address",
                                "value": "0x7e2a9cdf1946ea3c9c605b2a6aeea89eea5f6573"
                            },
                            {
                                "name": "amount",
                                "type": "uint256",
                                "value": "1,709,585,939,624,736,170,270"
                            }
                        ],
                        "signature": "Deposit(address,uint256)"
                    },
                    "id": 22,
                    "logData": "0x00000000000000000000000000000000000000000000005cad455a506ecda11e",
                    "logDecoded": true,
                    "operation": "EVENT",
                    "revert": false,
                    "status": true,
                    "topics": [
                        "0xe1fffcc4923d04b559f4d29a8bfc6cda04eb5b0d3c460751c2402c5c5cc9109c",
                        "0x0000000000000000000000007e2a9cdf1946ea3c9c605b2a6aeea89eea5f6573"
                    ]
                },
                "nodeType": 1
            },
            "3": {
                "invocation": {
                    "address": "0xbb10bc5a825f3f6b148bf83ed4b679c88ab27b54",
                    "callData": "0x000000000000000000000000000000000000000000000000073a5f283c841552",
                    "decodedMethod": {
                        "callParams": [
                            {
                                "name": "amount",
                                "type": "uint256",
                                "value": "520,833,333,333,333,330"
                            }
                        ],
                        "constructorArguments": "",
                        "name": "addReward",
                        "returnParams": [],
                        "signature": "addReward(uint256)"
                    },
                    "errorInfo": "",
                    "fromAddress": "0xdcd7ca4a0febbf5dcf91499b603c1c073916f9a3",
                    "gasUsed": 29396,
                    "id": 3,
                    "methodDecoded": true,
                    "operation": "CALL",
                    "output": "",
                    "revert": false,
                    "revertMessage": "",
                    "selector": "0x74de4ec4",
                    "status": true,
                    "value": "0"
                },
                "nodeType": 0
            },
            "4": {
                "event": {
                    "contract": "0xdcd7ca4a0febbf5dcf91499b603c1c073916f9a3",
                    "decodedLog": {
                        "name": "RewardsDistributed",
                        "params": [
                            {
                                "name": "user",
                                "type": "address",
                                "value": "0xbb10bc5a825f3f6b148bf83ed4b679c88ab27b54"
                            },
                            {
                                "name": "anystakeAmount",
                                "type": "uint256",
                                "value": "0"
                            },
                            {
                                "name": "regulatorAmount",
                                "type": "uint256",
                                "value": "520,833,333,333,333,330"
                            }
                        ],
                        "signature": "RewardsDistributed(address,uint256,uint256)"
                    },
                    "id": 4,
                    "logData": "0x0000000000000000000000000000000000000000000000000000000000000000000000000000000000000000000000000000000000000000073a5f283c841552",
                    "logDecoded": true,
                    "operation": "EVENT",
                    "revert": false,
                    "status": true,
                    "topics": [
                        "0xe4e801442ed461792c0bdfa7f5c25444d391d67d68422437bd9005796c67cb23",
                        "0x000000000000000000000000bb10bc5a825f3f6b148bf83ed4b679c88ab27b54"
                    ]
                },
                "nodeType": 1
            },
            "5": {
                "invocation": {
                    "address": "0xdcd7ca4a0febbf5dcf91499b603c1c073916f9a3",
                    "callData": "0x0000000000000000000000007e2a9cdf1946ea3c9c605b2a6aeea89eea5f6573000000000000000000000000000000000000000000000000001b49d7ace624ba",
                    "decodedMethod": {
                        "callParams": [
                            {
                                "name": "recipient",
                                "type": "address",
                                "value": "0x7e2a9cdf1946ea3c9c605b2a6aeea89eea5f6573"
                            },
                            {
                                "name": "amount",
                                "type": "uint256",
                                "value": "7,681,015,038,747,834"
                            }
                        ],
                        "constructorArguments": "",
                        "name": "distributeRewards",
                        "returnParams": [],
                        "signature": "distributeRewards(address,uint256)"
                    },
                    "errorInfo": "",
                    "fromAddress": "0xbb10bc5a825f3f6b148bf83ed4b679c88ab27b54",
                    "gasUsed": 70493,
                    "id": 5,
                    "methodDecoded": true,
                    "operation": "CALL",
                    "output": "",
                    "revert": false,
                    "revertMessage": "",
                    "selector": "0xa8031a1d",
                    "status": true,
                    "value": "0"
                },
                "nodeType": 0
            },
            "6": {
                "invocation": {
                    "address": "0xb6ee603933e024d8d53dde3faa0bf98fe2a3d6f1",
                    "callData": "0x000000000000000000000000dcd7ca4a0febbf5dcf91499b603c1c073916f9a3",
                    "decodedMethod": {
                        "callParams": [
                            {
                                "name": "account",
                                "type": "address",
                                "value": "0xdcd7ca4a0febbf5dcf91499b603c1c073916f9a3"
                            }
                        ],
                        "constructorArguments": "",
                        "name": "balanceOf",
                        "returnParams": [
                            {
                                "decimalAvailable": true,
                                "name": "",
                                "type": "uint256",
                                "value": "63,705,812,019,041,894,144,954"
                            }
                        ],
                        "signature": "balanceOf(address)"
                    },
                    "errorInfo": "",
                    "fromAddress": "0xdcd7ca4a0febbf5dcf91499b603c1c073916f9a3",
                    "gasUsed": 1285,
                    "id": 6,
                    "methodDecoded": true,
                    "operation": "STATICCALL",
                    "output": "0x000000000000000000000000000000000000000000000d7d7fbdc775f2b81bba",
                    "revert": false,
                    "revertMessage": "",
                    "selector": "0x70a08231",
                    "status": true,
                    "value": "0"
                },
                "nodeType": 0
            },
            "7": {
                "invocation": {
                    "address": "0xb6ee603933e024d8d53dde3faa0bf98fe2a3d6f1",
                    "callData": "0x0000000000000000000000007e2a9cdf1946ea3c9c605b2a6aeea89eea5f6573000000000000000000000000000000000000000000000000001b49d7ace624ba",
                    "decodedMethod": {
                        "callParams": [
                            {
                                "name": "recipient",
                                "type": "address",
                                "value": "0x7e2a9cdf1946ea3c9c605b2a6aeea89eea5f6573"
                            },
                            {
                                "decimalAvailable": true,
                                "name": "amount",
                                "type": "uint256",
                                "value": "7,681,015,038,747,834"
                            }
                        ],
                        "constructorArguments": "",
                        "name": "transfer",
                        "returnParams": [
                            {
                                "name": "",
                                "type": "bool",
                                "value": true
                            }
                        ],
                        "signature": "transfer(address,uint256)"
                    },
                    "errorInfo": "",
                    "fromAddress": "0xdcd7ca4a0febbf5dcf91499b603c1c073916f9a3",
                    "gasUsed": 60127,
                    "id": 7,
                    "methodDecoded": true,
                    "operation": "CALL",
                    "output": "0x0000000000000000000000000000000000000000000000000000000000000001",
                    "revert": false,
                    "revertMessage": "",
                    "selector": "0xa9059cbb",
                    "status": true,
                    "value": "0"
                },
                "nodeType": 0
            },
            "8": {
                "invocation": {
                    "address": "0xefccb112270c3c197b86ff03d26340d82a087f6c",
                    "callData": "0x",
                    "decodedMethod": {
                        "callParams": [],
                        "constructorArguments": "",
                        "name": "viewBurnRate",
                        "returnParams": [
                            {
                                "name": "",
                                "type": "uint256",
                                "value": "50"
                            }
                        ],
                        "signature": "viewBurnRate()"
                    },
                    "errorInfo": "",
                    "fromAddress": "0xb6ee603933e024d8d53dde3faa0bf98fe2a3d6f1",
                    "gasUsed": 1057,
                    "id": 8,
                    "methodDecoded": true,
                    "operation": "STATICCALL",
                    "output": "0x0000000000000000000000000000000000000000000000000000000000000032",
                    "revert": false,
                    "revertMessage": "",
                    "selector": "0xbc97240a",
                    "status": true,
                    "value": "0"
                },
                "nodeType": 0
            },
            "9": {
                "invocation": {
                    "address": "0xefccb112270c3c197b86ff03d26340d82a087f6c",
                    "callData": "0x",
                    "decodedMethod": {
                        "callParams": [],
                        "constructorArguments": "",
                        "name": "viewFeeRate",
                        "returnParams": [
                            {
                                "name": "",
                                "type": "uint256",
                                "value": "200"
                            }
                        ],
                        "signature": "viewFeeRate()"
                    },
                    "errorInfo": "",
                    "fromAddress": "0xb6ee603933e024d8d53dde3faa0bf98fe2a3d6f1",
                    "gasUsed": 1081,
                    "id": 9,
                    "methodDecoded": true,
                    "operation": "STATICCALL",
                    "output": "0x00000000000000000000000000000000000000000000000000000000000000c8",
                    "revert": false,
                    "revertMessage": "",
                    "selector": "0x3150cf80",
                    "status": true,
                    "value": "0"
                },
                "nodeType": 0
            }
        },
        "gasFlame": [
            {
                "children": [
                    {
                        "children": [
                            {
                                "children": [],
                                "depth": 0,
                                "name": "Initial Gas",
                                "value": 21300
                            },
                            {
                                "children": [
                                    {
                                        "children": [
                                            {
                                                "children": [],
                                                "depth": 2,
                                                "name": "balanceOf",
                                                "value": 1285
                                            },
                                            {
                                                "children": [],
                                                "depth": 2,
                                                "name": "addReward",
                                                "value": 29396
                                            }
                                        ],
                                        "depth": 1,
                                        "name": "calculateRewards",
                                        "value": 76994
                                    },
                                    {
                                        "children": [
                                            {
                                                "children": [],
                                                "depth": 2,
                                                "name": "balanceOf",
                                                "value": 1285
                                            },
                                            {
                                                "children": [
                                                    {
                                                        "children": [],
                                                        "depth": 3,
                                                        "name": "viewBurnRate",
                                                        "value": 1057
                                                    },
                                                    {
                                                        "children": [],
                                                        "depth": 3,
                                                        "name": "viewFeeRate",
                                                        "value": 1081
                                                    },
                                                    {
                                                        "children": [],
                                                        "depth": 3,
                                                        "name": "viewFeeDestination",
                                                        "value": 1106
                                                    },
                                                    {
                                                        "children": [],
                                                        "depth": 3,
                                                        "name": "viewDiscountOf",
                                                        "value": 1308
                                                    },
                                                    {
                                                        "children": [],
                                                        "depth": 3,
                                                        "name": "viewDiscountOf",
                                                        "value": 1308
                                                    },
                                                    {
                                                        "children": [
                                                            {
                                                                "children": [],
                                                                "depth": 4,
                                                                "name": "viewActorLevelOf",
                                                                "value": 1241
                                                            },
                                                            {
                                                                "children": [],
                                                                "depth": 4,
                                                                "name": "viewTxThreshold",
                                                                "value": 1059
                                                            }
                                                        ],
                                                        "depth": 3,
                                                        "name": "addPoints",
                                                        "value": 8706
                                                    }
                                                ],
                                                "depth": 2,
                                                "name": "transfer",
                                                "value": 60127
                                            }
                                        ],
                                        "depth": 1,
                                        "name": "distributeRewards",
                                        "value": 70493
                                    },
                                    {
                                        "children": [
                                            {
                                                "children": [],
                                                "depth": 2,
                                                "name": "viewActorLevelOf",
                                                "value": 1241
                                            }
                                        ],
                                        "depth": 1,
                                        "name": "transferFrom",
                                        "value": 30735
                                    }
                                ],
                                "depth": 0,
                                "name": "Executed Gas",
                                "value": 236780
                            }
                        ],
                        "depth": -1,
                        "name": "Actual Gas Used",
                        "value": 223880
                    },
                    {
                        "children": [],
                        "depth": -1,
                        "name": "Refunded Gas",
                        "value": 34200
                    }
                ],
                "depth": -2,
                "name": "Total Gas",
                "value": 258080
            }
        ],
        "isConfirmed": true,
        "mainTrace": [
            {
                "children": [
                    {
                        "children": [
                            {
                                "children": [
                                    {
                                        "children": [],
                                        "depth": 2,
                                        "id": 2,
                                        "order": 2
                                    },
                                    {
                                        "children": [],
                                        "depth": 2,
                                        "id": 3,
                                        "order": 3
                                    },
                                    {
                                        "children": [],
                                        "depth": 2,
                                        "id": 4,
                                        "order": 4
                                    }
                                ],
                                "depth": 1,
                                "id": 1,
                                "order": 1
                            },
                            {
                                "children": [
                                    {
                                        "children": [],
                                        "depth": 2,
                                        "id": 6,
                                        "order": 6
                                    },
                                    {
                                        "children": [
                                            {
                                                "children": [],
                                                "depth": 3,
                                                "id": 8,
                                                "order": 8
                                            },
                                            {
                                                "children": [],
                                                "depth": 3,
                                                "id": 9,
                                                "order": 9
                                            },
                                            {
                                                "children": [],
                                                "depth": 3,
                                                "id": 10,
                                                "order": 10
                                            },
                                            {
                                                "children": [],
                                                "depth": 3,
                                                "id": 11,
                                                "order": 11
                                            },
                                            {
                                                "children": [],
                                                "depth": 3,
                                                "id": 12,
                                                "order": 12
                                            },
                                            {
                                                "children": [],
                                                "depth": 3,
                                                "id": 13,
                                                "order": 13
                                            },
                                            {
                                                "children": [
                                                    {
                                                        "children": [],
                                                        "depth": 4,
                                                        "id": 15,
                                                        "order": 15
                                                    },
                                                    {
                                                        "children": [],
                                                        "depth": 4,
                                                        "id": 16,
                                                        "order": 16
                                                    }
                                                ],
                                                "depth": 3,
                                                "id": 14,
                                                "order": 14
                                            }
                                        ],
                                        "depth": 2,
                                        "id": 7,
                                        "order": 7
                                    }
                                ],
                                "depth": 1,
                                "id": 5,
                                "order": 5
                            },
                            {
                                "children": [],
                                "depth": 1,
                                "id": 17,
                                "order": 17
                            },
                            {
                                "children": [
                                    {
                                        "children": [],
                                        "depth": 2,
                                        "id": 19,
                                        "order": 19
                                    },
                                    {
                                        "children": [],
                                        "depth": 2,
                                        "id": 20,
                                        "order": 20
                                    },
                                    {
                                        "children": [],
                                        "depth": 2,
                                        "id": 21,
                                        "order": 21
                                    }
                                ],
                                "depth": 1,
                                "id": 18,
                                "order": 18
                            },
                            {
                                "children": [],
                                "depth": 1,
                                "id": 22,
                                "order": 22
                            }
                        ],
                        "depth": 0,
                        "id": 0,
                        "order": 0
                    }
                ],
                "depth": -1,
                "id": -1,
                "order": -1
            }
        ],
        "mainTraceNodeCount": 23,
        "parentIdMap": {
            "0": -1,
            "1": 0,
            "10": 7,
            "11": 7,
            "12": 7,
            "13": 7,
            "14": 7,
            "15": 14,
            "16": 14,
            "17": 0,
            "18": 0,
            "19": 18,
            "2": 1,
            "20": 18,
            "21": 18,
            "22": 0,
            "3": 1,
            "4": 1,
            "5": 0,
            "6": 5,
            "7": 5,
            "8": 7,
            "9": 7
        },
        "tidyTrace": [
            {
                "children": [
                    {
                        "children": [
                            {
                                "children": [
                                    {
                                        "children": [],
                                        "depth": 2,
                                        "id": 3,
                                        "order": 3
                                    },
                                    {
                                        "children": [],
                                        "depth": 2,
                                        "id": 4,
                                        "order": 4
                                    }
                                ],
                                "depth": 1,
                                "id": 1,
                                "order": 1
                            },
                            {
                                "children": [
                                    {
                                        "children": [
                                            {
                                                "children": [],
                                                "depth": 3,
                                                "id": 13,
                                                "order": 13
                                            },
                                            {
                                                "children": [],
                                                "depth": 3,
                                                "id": 14,
                                                "order": 14
                                            }
                                        ],
                                        "depth": 2,
                                        "id": 7,
                                        "order": 7
                                    }
                                ],
                                "depth": 1,
                                "id": 5,
                                "order": 5
                            },
                            {
                                "children": [],
                                "depth": 1,
                                "id": 17,
                                "order": 17
                            },
                            {
                                "children": [
                                    {
                                        "children": [],
                                        "depth": 2,
                                        "id": 19,
                                        "order": 19
                                    },
                                    {
                                        "children": [],
                                        "depth": 2,
                                        "id": 21,
                                        "order": 21
                                    }
                                ],
                                "depth": 1,
                                "id": 18,
                                "order": 18
                            },
                            {
                                "children": [],
                                "depth": 1,
                                "id": 22,
                                "order": 22
                            }
                        ],
                        "depth": 0,
                        "id": 0,
                        "order": 0
                    }
                ],
                "depth": -1,
                "id": -1,
                "order": -1
            }
        ],
        "tidyTraceNodeCount": 13
    },
    "state_change": {
        "stateChanges": [
            {
                "address": "0xb6ee603933e024d8d53dde3faa0bf98fe2a3d6f1",
                "erc": "ERC-20",
                "slots": [
                    {
                        "current": "0x00000000000000000000000000000000000000000000006dc392361d409f80e5",
                        "key": "0x6393c5bf63b82e8b260d6e38bd08076aae2fbdd5179f0e3f400cd59374fe6059",
                        "prev": "0x00000000000000000000000000000000000000000000006dc376ec4593b95c2b"
                    },
                    {
                        "current": "0x000000000000000000000000000000000000000000000d7d7fa27d9e45d1f700",
                        "key": "0x1568fe7e0621f803e0238b3636b7298ab27a2d02c8d1ada3f4e8db5c3cb123ce",
                        "prev": "0x000000000000000000000000000000000000000000000d7d7fbdc775f2b81bba"
                    }
                ],
                "storageVariables": [
                    {
                        "name": "_balances",
                        "type": "mapping(address => uint256)",
                        "value": {
                            "pairs": [
                                {
                                    "key": "0x7e2a9cdf1946ea3c9c605b2a6aeea89eea5f6573",
                                    "value": {
                                        "current": "2024787489717602975973",
                                        "prev": "2024779808702564228139",
                                        "typeTag": 1
                                    }
                                },
                                {
                                    "key": "0xdcd7ca4a0febbf5dcf91499b603c1c073916f9a3",
                                    "value": {
                                        "current": "63705804338026855397120",
                                        "prev": "63705812019041894144954",
                                        "typeTag": 1
                                    }
                                }
                            ],
                            "typeTag": 4
                        }
                    }
                ]
            },
            {
                "address": "0xbb10bc5a825f3f6b148bf83ed4b679c88ab27b54",
                "erc": "",
                "slots": [
                    {
                        "current": "0x0000000000000000000000000000000000000000000000000083742860fb007e",
                        "key": "0x0000000000000000000000000000000000000000000000000000000000000012",
                        "prev": "0x00000000000000000000000000000000000000000000000000836f91d9468519"
                    },
                    {
                        "current": "0x0000000000000000000000000000000000000000000000000000000000ba56f0",
                        "key": "0x000000000000000000000000000000000000000000000000000000000000000f",
                        "prev": "0x0000000000000000000000000000000000000000000000000000000000ba56e7"
                    },
                    {
                        "current": "0x0000000000000000000000000000000000000000000000067bb6fac4c6bd2fc7",
                        "key": "0x74ceaf8bfcc9a51bb450dbb12861ab82c3be2f1dfae99c73ca07155084826a69",
                        "prev": "0x0000000000000000000000000000000000000000000000030dc0393bb76de9d5"
                    },
                    {
                        "current": "0x000000000000000000000000000000000000000000000faa930c65ecb670c713",
                        "key": "0x0000000000000000000000000000000000000000000000000000000000000014",
                        "prev": "0x000000000000000000000000000000000000000000000f4de5c70b9c47a325f5"
                    },
                    {
                        "current": "0x0000000000000000000000000000000000000000000000af38048adb73f2ef6d",
                        "key": "0x74ceaf8bfcc9a51bb450dbb12861ab82c3be2f1dfae99c73ca07155084826a68",
                        "prev": "0x0000000000000000000000000000000000000000000000528abf308b05254e4f"
                    },
                    {
                        "current": "0x0000000000000000000000000000000000000000000000000000000000ba56f0",
                        "key": "0x74ceaf8bfcc9a51bb450dbb12861ab82c3be2f1dfae99c73ca07155084826a6a",
                        "prev": "0x0000000000000000000000000000000000000000000000000000000000ba56e7"
                    },
                    {
                        "current": "0x0000000000000000000000000000000000000000000000266e37baf6dcedfa9a",
                        "key": "0x0000000000000000000000000000000000000000000000000000000000000010",
                        "prev": "0x0000000000000000000000000000000000000000000000266c0c9e6acac65a9b"
                    }
                ],
                "storageVariables": [
                    {
                        "name": "userInfo",
                        "type": "mapping(address => struct AnyStakeRegulator.UserInfo)",
                        "value": {
                            "pairs": [
                                {
                                    "key": "0x7e2a9cdf1946ea3c9c605b2a6aeea89eea5f6573",
                                    "value": {
                                        "fields": [
                                            {
                                                "name": "amount",
                                                "type": "uint256",
                                                "value": {
                                                    "current": "3232216716740350111597",
                                                    "prev": "1522630777115613941327",
                                                    "typeTag": 1
                                                }
                                            },
                                            {
                                                "name": "rewardDebt",
                                                "type": "uint256",
                                                "value": {
                                                    "current": "119595052677738606535",
                                                    "prev": "56331087067793451477",
                                                    "typeTag": 1
                                                }
                                            },
                                            {
                                                "name": "lastRewardBlock",
                                                "type": "uint256",
                                                "value": {
                                                    "current": "12211952",
                                                    "prev": "12211943",
                                                    "typeTag": 1
                                                }
                                            }
                                        ],
                                        "typeTag": 3
                                    }
                                }
                            ],
                            "typeTag": 4
                        }
                    },
                    {
                        "name": "buybackBalance",
                        "type": "uint256",
                        "value": {
                            "current": "708918296838285425306",
                            "prev": "708762046838285425307",
                            "typeTag": 1
                        }
                    },
                    {
                        "name": "rewardsPerShare",
                        "type": "uint256",
                        "value": {
                            "current": "37000938723672190",
                            "prev": "36995894155314457",
                            "typeTag": 1
                        }
                    },
                    {
                        "name": "lastRewardBlock",
                        "type": "uint256",
                        "value": {
                            "current": "12211952",
                            "prev": "12211943",
                            "typeTag": 1
                        }
                    },
                    {
                        "name": "totalShares",
                        "type": "uint256",
                        "value": {
                            "current": "73982039691665945446163",
                            "prev": "72272453752041209275893",
                            "typeTag": 1
                        }
                    }
                ]
            },
            {
                "address": "0xdcd7ca4a0febbf5dcf91499b603c1c073916f9a3",
                "erc": "",
                "slots": [
                    {
                        "current": "0x000000000000000000000000000000000000000000000138ba8818ce6fffd8c2",
                        "key": "0x0000000000000000000000000000000000000000000000000000000000000015",
                        "prev": "0x000000000000000000000000000000000000000000000138b369037de061e82a"
                    },
                    {
                        "current": "0x0000000000000000000000000000000000000000000001630751bcad060ea0bb",
                        "key": "0x0000000000000000000000000000000000000000000000000000000000000014",
                        "prev": "0x00000000000000000000000000000000000000000000016300175d84c98a8b69"
                    },
                    {
                        "current": "0x000000000000000000000000000000000000000000000c44c51a64cfd5d21e3e",
                        "key": "0x000000000000000000000000000000000000000000000000000000000000000d",
                        "prev": "0x000000000000000000000000000000000000000000000c44cc54c3f812563390"
                    },
                    {
                        "current": "0x00000000000000000000000000000000000000000000000000000000000f46bf",
                        "key": "0x000000000000000000000000000000000000000000000000000000000000000f",
                        "prev": "0x00000000000000000000000000000000000000000000000000000000000f46c8"
                    },
                    {
                        "current": "0x0000000000000000000000000000000000000000000000000000000000ba56f0",
                        "key": "0x0000000000000000000000000000000000000000000000000000000000000011",
                        "prev": "0x0000000000000000000000000000000000000000000000000000000000ba56e7"
                    }
                ],
                "storageVariables": [
                    {
                        "name": "pendingRewards",
                        "type": "uint256",
                        "value": {
                            "current": "5768825171360188717250",
                            "prev": "5768312019041894131754",
                            "typeTag": 1
                        }
                    },
                    {
                        "name": "totalRewardsDistributed",
                        "type": "uint256",
                        "value": {
                            "current": "6549121556249586868411",
                            "prev": "6548600722916253535081",
                            "typeTag": 1
                        }
                    },
                    {
                        "name": "bondedRewards",
                        "type": "uint256",
                        "value": {
                            "current": "57936979166666666679870",
                            "prev": "57937500000000000013200",
                            "typeTag": 1
                        }
                    },
                    {
                        "name": "bondedRewardsBlocksRemaining",
                        "type": "uint256",
                        "value": {
                            "current": "1001151",
                            "prev": "1001160",
                            "typeTag": 1
                        }
                    },
                    {
                        "name": "lastDistributionBlock",
                        "type": "uint256",
                        "value": {
                            "current": "12211952",
                            "prev": "12211943",
                            "typeTag": 1
                        }
                    }
                ]
            },
            {
                "address": "0xde3e18ecb613498b9a1483af51394ec2259bcd0a",
                "erc": "ERC-20",
                "slots": [
                    {
                        "current": "0xffffffffffffffffffffffffffffffffffffffffffffff50c7fb75248c0d1092",
                        "key": "0xa269d1778db84e859800d33b11cc3879d0013380906babfa32701d9589dfd11d",
                        "prev": "0xffffffffffffffffffffffffffffffffffffffffffffffad7540cf74fadab1b0"
                    },
                    {
                        "current": "0x0000000000000000000000000000000000000000000000000000000000000000",
                        "key": "0x6393c5bf63b82e8b260d6e38bd08076aae2fbdd5179f0e3f400cd59374fe6059",
                        "prev": "0x00000000000000000000000000000000000000000000005cad455a506ecda11e"
                    },
                    {
                        "current": "0x000000000000000000000000000000000000000000000faa930c65ecb670c713",
                        "key": "0xec23177c455d8659b331c9b2770a5534cec7a526a5a1c9715def7e0a2bcb0854",
                        "prev": "0x000000000000000000000000000000000000000000000f4de5c70b9c47a325f5"
                    }
                ],
                "storageVariables": [
                    {
                        "name": "_balances",
                        "type": "mapping(address => uint256)",
                        "value": {
                            "pairs": [
                                {
                                    "key": "0x7e2a9cdf1946ea3c9c605b2a6aeea89eea5f6573",
                                    "value": {
                                        "current": "0",
                                        "prev": "1709585939624736170270",
                                        "typeTag": 1
                                    }
                                },
                                {
                                    "key": "0xbb10bc5a825f3f6b148bf83ed4b679c88ab27b54",
                                    "value": {
                                        "current": "73982039691665945446163",
                                        "prev": "72272453752041209275893",
                                        "typeTag": 1
                                    }
                                }
                            ],
                            "typeTag": 4
                        }
                    },
                    {
                        "name": "_allowances",
                        "type": "mapping(address => mapping(address => uint256))",
                        "value": {
                            "pairs": [
                                {
                                    "key": "0x7e2a9cdf1946ea3c9c605b2a6aeea89eea5f6573",
                                    "value": {
                                        "pairs": [
                                            {
                                                "key": "0xbb10bc5a825f3f6b148bf83ed4b679c88ab27b54",
                                                "value": {
                                                    "current": "115792089237316195423570985008687907853269984665640564036225367291172779528338",
                                                    "prev": "115792089237316195423570985008687907853269984665640564037934953230797515698608",
                                                    "typeTag": 1
                                                }
                                            }
                                        ],
                                        "typeTag": 4
                                    }
                                }
                            ],
                            "typeTag": 4
                        }
                    }
                ]
            }
        ]
    }
}