{
    "balance_change": {
        "balanceChanges": [
            {
                "account": "0x4fd8782125cd0f8f223a1218d48989ee07500e39",
                "assets": [
                    {
                        "address": "0xeeeeeeeeeeeeeeeeeeeeeeeeeeeeeeeeeeeeeeee",
                        "amount": "0.05",
                        "iconUrl": "https://assets.blocksec.com/image/1663669189317-3.png",
                        "isERC1155": false,
                        "isERC721": false,
                        "sign": false,
                        "value": ""
                    }
                ]
            },
            {
                "account": "0x999999c60566e0a78df17f71886333e1dace0bae",
                "assets": [
                    {
                        "address": "0xeeeeeeeeeeeeeeeeeeeeeeeeeeeeeeeeeeeeeeee",
                        "amount": "0.05",
                        "iconUrl": "https://assets.blocksec.com/image/1663669189317-3.png",
                        "isERC1155": false,
                        "isERC721": false,
                        "sign": true,
                        "value": ""
                    }
                ]
            }
        ]
    },
    "profile": {
        "basic_info": {
            "baseFee": "",
            "blockNumber": 7034803,
            "callData": "0x403a0a7800000000000000000000000000000000000000000000000000000000000013ff000000000000000000000000000000000000000000000000000000000000000d00000000000000000000000000000000000000000000000000000000006b58a1e468e6203800a4c3218c6e286195b913f3f9c8ce64aec70d329dc2277555e93708d9d5a0e7f070c5cbc31face50ecdc730073c7574f78cfa630407be59f1be9d2982ca8cd49854909b30b8c14ed37982d5032c70cb0ba070e0dcd7f144259a220000000000000000000000000000000000000000000000000000000000000000",
            "debugEnable": true,
            "errorInfo": "",
            "eventCount": 1,
            "feeRecipient": "0xff1b891969773159366ab6310ff63a69ac4acffd",
            "formatValue": "0.05",
            "gasLimit": 150000,
            "gasPrice": "3",
            "gasUsed": 82853,
            "intTxnCount": 1,
            "internalRevert": false,
            "internalRevertMessage": "",
            "isContractCreation": false,
            "isFlashloan": false,
            "maxFee": "",
            "nonce": 357,
            "overwritedBlockNumber": -1,
            "priorityFee": "",
            "receiver": "0x999999c60566e0a78df17f71886333e1dace0bae",
            "revertMessage": "",
            "sender": "0x4fd8782125cd0f8f223a1218d48989ee07500e39",
            "simulationEnable": true,
            "sourceTxnHash": "0x086a71bd632d7a3710b0891aaa2817fa315de01b474601450e21fb6afb9e56ad",
            "status": true,
            "timestamp": "2019-01-09T03:44:14Z",
            "transactionFee": "0.000248559",
            "txnHash": "0x086a71bd632d7a3710b0891aaa2817fa315de01b474601450e21fb6afb9e56ad",
            "txnIndex": 19,
            "type": 0,
            "value": "50000000000000000"
        },
        "fund_flow": [
            {
                "amount": "0.05",
                "from": "0x4fd8782125cd0f8f223a1218d48989ee07500e39",
                "id": 1,
                "isERC1155": false,
                "isERC721": false,
                "isReverted": false,
                "order": 1,
                "to": "0x999999c60566e0a78df17f71886333e1dace0bae",
                "token": "0xeeeeeeeeeeeeeeeeeeeeeeeeeeeeeeeeeeeeeeee"
            }
        ],
        "token_infos": [
            {
                "address": "0xc02aaa39b223fe8d0a0e5c4f27ead9083c756cc2",
                "decimals": 18
            },
            {
                "address": "0xeeeeeeeeeeeeeeeeeeeeeeeeeeeeeeeeeeeeeeee",
                "decimals": 18
            }
        ]
    },
    "address_label": {
        "labels": [
            {
                "address": "0x0000000000000000000000000000000000000001",
                "label": "Precompiled"
            },
            {
                "address": "0x0000000000000000000000000000000000000002",
                "label": "Precompiled"
            },
            {
                "address": "0x0000000000000000000000000000000000000003",
                "label": "Precompiled"
            },
            {
                "address": "0x0000000000000000000000000000000000000004",
                "label": "Precompiled"
            },
            {
                "address": "0xeeeeeeeeeeeeeeeeeeeeeeeeeeeeeeeeeeeeeeee",
                "label": "Ether"
            },
            {
                "address": "0x999999c60566e0a78df17f71886333e1dace0bae",
                "label": "FCK.com: Dice"
            }
        ]
    },
    "trace": {
        "accountLabels": null,
        "dataMap": {
            "-1": {
                "invocation": {
                    "address": "0x4fd8782125cd0f8f223a1218d48989ee07500e39",
                    "callData": "",
                    "decodedMethod": null,
                    "errorInfo": "",
                    "fromAddress": "",
                    "gasUsed": 0,
                    "id": -1,
                    "methodDecoded": false,
                    "operation": "",
                    "output": "",
                    "revert": false,
                    "revertMessage": "",
                    "selector": "",
                    "status": false,
                    "value": ""
                },
                "nodeType": 0
            },
            "0": {
                "invocation": {
                    "address": "0x999999c60566e0a78df17f71886333e1dace0bae",
                    "callData": "0x00000000000000000000000000000000000000000000000000000000000013ff000000000000000000000000000000000000000000000000000000000000000d00000000000000000000000000000000000000000000000000000000006b58a1e468e6203800a4c3218c6e286195b913f3f9c8ce64aec70d329dc2277555e93708d9d5a0e7f070c5cbc31face50ecdc730073c7574f78cfa630407be59f1be9d2982ca8cd49854909b30b8c14ed37982d5032c70cb0ba070e0dcd7f144259a220000000000000000000000000000000000000000000000000000000000000000",
                    "decodedMethod": {
                        "callParams": [
                            {
                                "name": "betMask",
                                "type": "uint256",
                                "value": "5,119"
                            },
                            {
                                "name": "modulo",
                                "type": "uint256",
                                "value": "13"
                            },
                            {
                                "name": "commitLastBlock",
                                "type": "uint256",
                                "value": "7,035,041"
                            },
                            {
                                "name": "commit",
                                "type": "uint256",
                                "value": "103,312,669,841,997,496,794,022,062,412,987,134,952,547,700,727,888,269,547,593,473,650,347,824,507,191"
                            },
                            {
                                "name": "r",
                                "type": "bytes32",
                                "value": "0x08d9d5a0e7f070c5cbc31face50ecdc730073c7574f78cfa630407be59f1be9d"
                            },
                            {
                                "name": "s",
                                "type": "bytes32",
                                "value": "0x2982ca8cd49854909b30b8c14ed37982d5032c70cb0ba070e0dcd7f144259a22"
                            },
                            {
                                "name": "source",
                                "type": "uint256",
                                "value": "0"
                            }
                        ],
                        "constructorArguments": "",
                        "name": "placeBet",
                        "returnParams": [],
                        "signature": "placeBet(uint256,uint256,uint256,uint256,bytes32,bytes32,uint256)"
                    },
                    "errorInfo": "",
                    "fromAddress": "0x4fd8782125cd0f8f223a1218d48989ee07500e39",
                    "gasUsed": 82853,
                    "id": 0,
                    "methodDecoded": true,
                    "operation": "CALL",
                    "output": "",
                    "revert": false,
                    "revertMessage": "",
                    "selector": "0x403a0a78",
                    "status": true,
                    "value": "0.05"
                },
                "nodeType": 0
            },
            "1": {
                "invocation": {
                    "address": "0x0000000000000000000000000000000000000001",
                    "callData": "0xeed017d0e86a27a54bd487fb286603393e24def8eb6e501ca7b4724e000000000000000000000000000000000000000000000000000000000000001b08d9d5a0e7f070c5cbc31face50ecdc730073c7574f78cfa630407be59f1be9d2982ca8cd49854909b30b8c14ed37982d5032c70cb0ba070e0dcd7f144259a22",
                    "decodedMethod": {
                        "callParams": [
                            {
                                "name": "hash",
                                "type": "bytes32",
                                "value": "0xa3b15889eed017d0e86a27a54bd487fb286603393e24def8eb6e501ca7b4724e"
                            },
                            {
                                "name": "v",
                                "type": "uint256",
                                "value": "27"
                            },
                            {
                                "name": "r",
                                "type": "bytes32",
                                "value": "0x08d9d5a0e7f070c5cbc31face50ecdc730073c7574f78cfa630407be59f1be9d"
                            },
                            {
                                "name": "s",
                                "type": "bytes32",
                                "value": "0x2982ca8cd49854909b30b8c14ed37982d5032c70cb0ba070e0dcd7f144259a22"
                            }
                        ],
                        "constructorArguments": "",
                        "name": "ecrecover",
                        "returnParams": [
                            {
                                "name": "",
                                "type": "address",
                                "value": "0x336417d90c5135701823a50c687450fe92bd1bf8"
                            }
                        ],
                        "signature": "ecrecover(bytes32,uint256,bytes32,bytes32)"
                    },
                    "errorInfo": "",
                    "fromAddress": "0x999999c60566e0a78df17f71886333e1dace0bae",
                    "gasUsed": 3000,
                    "id": 1,
                    "methodDecoded": true,
                    "operation": "STATICCALL",
                    "output": "0x000000000000000000000000336417d90c5135701823a50c687450fe92bd1bf8",
                    "revert": false,
                    "revertMessage": "",
                    "selector": "0xa3b15889",
                    "status": true,
                    "value": "0"
                },
                "nodeType": 0
            },
            "2": {
                "event": {
                    "contract": "0x999999c60566e0a78df17f71886333e1dace0bae",
                    "decodedLog": {
                        "name": "Commit",
                        "params": [
                            {
                                "name": "commit",
                                "type": "uint256",
                                "value": "103,312,669,841,997,496,794,022,062,412,987,134,952,547,700,727,888,269,547,593,473,650,347,824,507,191"
                            },
                            {
                                "name": "source",
                                "type": "uint256",
                                "value": "0"
                            }
                        ],
                        "signature": "Commit(uint256,uint256)"
                    },
                    "id": 2,
                    "logData": "0xe468e6203800a4c3218c6e286195b913f3f9c8ce64aec70d329dc2277555e9370000000000000000000000000000000000000000000000000000000000000000",
                    "logDecoded": true,
                    "operation": "EVENT",
                    "revert": false,
                    "status": true,
                    "topics": [
                        "0xacafc53544c2ca5cd4dbfda9282c25a35859f0d4ceb77a8275dca1660b1ed3ad"
                    ]
                },
                "nodeType": 1
            }
        },
        "gasFlame": [
            {
                "children": [
                    {
                        "children": [
                            {
                                "children": [],
                                "depth": 0,
                                "name": "Initial Gas",
                                "value": 28632
                            },
                            {
                                "children": [
                                    {
                                        "children": [],
                                        "depth": 1,
                                        "name": "ecrecover",
                                        "value": 3000
                                    }
                                ],
                                "depth": 0,
                                "name": "Executed Gas",
                                "value": 54221
                            }
                        ],
                        "depth": -1,
                        "name": "Actual Gas Used",
                        "value": 82853
                    },
                    {
                        "children": [],
                        "depth": -1,
                        "name": "Refunded Gas",
                        "value": 0
                    }
                ],
                "depth": -2,
                "name": "Total Gas",
                "value": 82853
            }
        ],
        "isConfirmed": true,
        "mainTrace": [
            {
                "children": [
                    {
                        "children": [
                            {
                                "children": [],
                                "depth": 1,
                                "id": 1,
                                "order": 1
                            },
                            {
                                "children": [],
                                "depth": 1,
                                "id": 2,
                                "order": 2
                            }
                        ],
                        "depth": 0,
                        "id": 0,
                        "order": 0
                    }
                ],
                "depth": -1,
                "id": -1,
                "order": -1
            }
        ],
        "mainTraceNodeCount": 3,
        "parentIdMap": {
            "0": -1,
            "1": 0,
            "2": 0
        },
        "tidyTrace": [
            {
                "children": [
                    {
                        "children": [
                            {
                                "children": [],
                                "depth": 1,
                                "id": 2,
                                "order": 2
                            }
                        ],
                        "depth": 0,
                        "id": 0,
                        "order": 0
                    }
                ],
                "depth": -1,
                "id": -1,
                "order": -1
            }
        ],
        "tidyTraceNodeCount": 2
    },
    "state_change": {
        "stateChanges": [
            {
                "address": "0x999999c60566e0a78df17f71886333e1dace0bae",
                "erc": "",
                "slots": [
                    {
                        "current": "0x0000000000000000058cd2cf7623d870000000000000000012a6d8e112200000",
                        "key": "0x0000000000000000000000000000000000000000000000000000000000000004",
                        "prev": "0x000000000000000004bcf29f2c40212b000000000000000012a6d8e112200000"
                    },
                    {
                        "current": "0x0000000000000000000000000000000000000000000000000013ff00006b57b3",
                        "key": "0x367d0fbe9e1dd9e31a8d105f252d67a6ea16658606351d55c555a0eb61c60dc3",
                        "prev": "0x0000000000000000000000000000000000000000000000000000000000000000"
                    },
                    {
                        "current": "0x4fd8782125cd0f8f223a1218d48989ee07500e390b0d000000b1a2bc2ec50000",
                        "key": "0x367d0fbe9e1dd9e31a8d105f252d67a6ea16658606351d55c555a0eb61c60dc2",
                        "prev": "0x0000000000000000000000000000000000000000000000000000000000000000"
                    }
                ],
                "storageVariables": [
                    {
                        "name": "jackpotSize",
                        "type": "uint128",
                        "value": {
                            "current": "1344000000000000000",
                            "prev": "1344000000000000000",
                            "typeTag": 1
                        }
                    },
                    {
                        "name": "lockedInBets",
                        "type": "uint128",
                        "value": {
                            "current": "399926255411255408",
                            "prev": "341414437229437227",
                            "typeTag": 1
                        }
                    },
                    {
                        "name": "bets",
                        "type": "mapping(uint256 => struct FckDice.Bet)",
                        "value": {
                            "pairs": [
                                {
                                    "key": "103312669841997496794022062412987134952547700727888269547593473650347824507191",
                                    "value": {
                                        "fields": [
                                            {
                                                "name": "amount",
                                                "type": "uint80",
                                                "value": {
                                                    "current": "50000000000000000",
                                                    "prev": "0",
                                                    "typeTag": 1
                                                }
                                            },
                                            {
                                                "name": "modulo",
                                                "type": "uint8",
                                                "value": {
                                                    "current": "13",
                                                    "prev": "0",
                                                    "typeTag": 1
                                                }
                                            },
                                            {
                                                "name": "rollUnder",
                                                "type": "uint8",
                                                "value": {
                                                    "current": "11",
                                                    "prev": "0",
                                                    "typeTag": 1
                                                }
                                            },
                                            {
                                                "name": "gambler",
                                                "type": "address payable",
                                                "value": {
                                                    "current": "0x4fd8782125cd0f8f223a1218d48989ee07500e39",
                                                    "prev": "0x0000000000000000000000000000000000000000",
                                                    "typeTag": 1
                                                }
                                            },
                                            {
                                                "name": "placeBlockNumber",
                                                "type": "uint40",
                                                "value": {
                                                    "current": "7034803",
                                                    "prev": "0",
                                                    "typeTag": 1
                                                }
                                            },
                                            {
                                                "name": "mask",
                                                "type": "uint216",
                                                "value": {
                                                    "current": "5119",
                                                    "prev": "0",
                                                    "typeTag": 1
                                                }
                                            }
                                        ],
                                        "typeTag": 3
                                    }
                                }
                            ],
                            "typeTag": 4
                        }
                    }
                ]
            }
        ]
    }
}