{
    "balance_change": {
        "balanceChanges": [
            {
                "account": "0xadcc57a64dfe3f67800644711bea6d2572da32da",
                "assets": [
                    {
                        "address": "0x8355dbe8b0e275abad27eb843f3eaf3fc855e525",
                        "amount": "10,001.848275471771238514",
                        "iconUrl": "",
                        "isERC1155": false,
                        "isERC721": false,
                        "sign": true,
                        "value": "478.1812804"
                    }
                ]
            },
            {
                "account": "0x0000000000000000000000000000000000000000",
                "assets": [
                    {
                        "address": "0x8355dbe8b0e275abad27eb843f3eaf3fc855e525",
                        "amount": "10,001.848275471771238514",
                        "iconUrl": "",
                        "isERC1155": false,
                        "isERC721": false,
                        "sign": false,
                        "value": "478.1812804"
                    }
                ]
            }
        ]
    },
    "profile": {
        "basic_info": {
            "baseFee": "71.322823338",
            "blockNumber": 13771656,
            "callData": "0x379607f50000000000000000000000000000000000000000000000000000000000001da4",
            "debugEnable": true,
            "errorInfo": "",
            "eventCount": 2,
            "feeRecipient": "0x00192fb10df37c9fb26829eb2cc623cd1bf599e8",
            "formatValue": "0",
            "gasLimit": 74085,
            "gasPrice": "82.822823338",
            "gasUsed": 61257,
            "intTxnCount": 2,
            "internalRevert": false,
            "internalRevertMessage": "",
            "isContractCreation": false,
            "isFlashloan": false,
            "maxFee": "84.427660469",
            "nonce": 1638,
            "overwritedBlockNumber": -1,
            "priorityFee": "11.5",
            "receiver": "0xb76fbbb30e31f2c3bdaa2466cfb1cfe39b220d06",
            "revertMessage": "",
            "sender": "0xadcc57a64dfe3f67800644711bea6d2572da32da",
            "simulationEnable": true,
            "sourceTxnHash": "0x08b0442542f74c49515dee4148fe0a5d711e9bdb37626c081ec38af011805969",
            "status": true,
            "timestamp": "2021-12-09T14:48:35Z",
            "transactionFee": "0.005073477689215866",
            "txnHash": "0x08b0442542f74c49515dee4148fe0a5d711e9bdb37626c081ec38af011805969",
            "txnIndex": 48,
            "type": 2,
            "value": "0"
        },
        "fund_flow": [
            {
                "amount": "10,001.848275471771238514",
                "from": "0x0000000000000000000000000000000000000000",
                "id": 1,
                "isERC1155": false,
                "isERC721": false,
                "isReverted": false,
                "order": 1,
                "to": "0xadcc57a64dfe3f67800644711bea6d2572da32da",
                "token": "0x8355dbe8b0e275abad27eb843f3eaf3fc855e525"
            }
        ],
        "token_infos": [
            {
                "address": "0x8355dbe8b0e275abad27eb843f3eaf3fc855e525",
                "decimals": 18
            },
            {
                "address": "0xc02aaa39b223fe8d0a0e5c4f27ead9083c756cc2",
                "decimals": 18
            },
            {
                "address": "0xeeeeeeeeeeeeeeeeeeeeeeeeeeeeeeeeeeeeeeee",
                "decimals": 18
            }
        ]
    },
    "address_label": {
        "labels": [
            {
                "address": "0x0000000000000000000000000000000000000003",
                "label": "Precompiled"
            },
            {
                "address": "0x0000000000000000000000000000000000000004",
                "label": "Precompiled"
            },
            {
                "address": "0xeeeeeeeeeeeeeeeeeeeeeeeeeeeeeeeeeeeeeeee",
                "label": "Ether"
            },
            {
                "address": "0x8355dbe8b0e275abad27eb843f3eaf3fc855e525",
                "label": "WOOL (WOOL)"
            },
            {
                "address": "0xb76fbbb30e31f2c3bdaa2466cfb1cfe39b220d06",
                "label": "Wool Pouch: WPOUCH Token"
            },
            {
                "address": "0x45ef97f7995f7250bad0d1dc745d17cc5f508734",
                "label": "WoolPouch"
            },
            {
                "address": "0x0000000000000000000000000000000000000001",
                "label": "Precompiled"
            },
            {
                "address": "0x0000000000000000000000000000000000000002",
                "label": "Precompiled"
            }
        ]
    },
    "trace": {
        "accountLabels": null,
        "dataMap": {
            "-1": {
                "invocation": {
                    "address": "0xadcc57a64dfe3f67800644711bea6d2572da32da",
                    "callData": "",
                    "decodedMethod": null,
                    "errorInfo": "",
                    "fromAddress": "",
                    "gasUsed": 0,
                    "id": -1,
                    "methodDecoded": false,
                    "operation": "",
                    "output": "",
                    "revert": false,
                    "revertMessage": "",
                    "selector": "",
                    "status": false,
                    "value": ""
                },
                "nodeType": 0
            },
            "0": {
                "invocation": {
                    "address": "0xb76fbbb30e31f2c3bdaa2466cfb1cfe39b220d06",
                    "callData": "0x0000000000000000000000000000000000000000000000000000000000001da4",
                    "decodedMethod": {
                        "callParams": [
                            {
                                "name": "tokenId",
                                "type": "uint256",
                                "value": "7,588"
                            }
                        ],
                        "constructorArguments": "",
                        "name": "claim",
                        "returnParams": [],
                        "signature": "claim(uint256)"
                    },
                    "errorInfo": "",
                    "fromAddress": "0xadcc57a64dfe3f67800644711bea6d2572da32da",
                    "gasUsed": 61257,
                    "id": 0,
                    "methodDecoded": true,
                    "operation": "CALL",
                    "output": "",
                    "revert": false,
                    "revertMessage": "",
                    "selector": "0x379607f5",
                    "status": true,
                    "value": "0"
                },
                "nodeType": 0
            },
            "1": {
                "invocation": {
                    "address": "0x45ef97f7995f7250bad0d1dc745d17cc5f508734",
                    "callData": "0x0000000000000000000000000000000000000000000000000000000000001da4",
                    "decodedMethod": {
                        "callParams": [
                            {
                                "name": "tokenId",
                                "type": "uint256",
                                "value": "7,588"
                            }
                        ],
                        "constructorArguments": "",
                        "name": "claim",
                        "returnParams": [],
                        "signature": "claim(uint256)"
                    },
                    "errorInfo": "",
                    "fromAddress": "0xb76fbbb30e31f2c3bdaa2466cfb1cfe39b220d06",
                    "gasUsed": 32713,
                    "id": 1,
                    "methodDecoded": true,
                    "operation": "DELEGATECALL",
                    "output": "",
                    "revert": false,
                    "revertMessage": "",
                    "selector": "0x379607f5",
                    "status": true,
                    "value": "0"
                },
                "nodeType": 0
            },
            "2": {
                "invocation": {
                    "address": "0x8355dbe8b0e275abad27eb843f3eaf3fc855e525",
                    "callData": "0x000000000000000000000000adcc57a64dfe3f67800644711bea6d2572da32da00000000000000000000000000000000000000000000021e33872e7a703e0072",
                    "decodedMethod": {
                        "callParams": [
                            {
                                "name": "to",
                                "type": "address",
                                "value": "0xadcc57a64dfe3f67800644711bea6d2572da32da"
                            },
                            {
                                "name": "amount",
                                "type": "uint256",
                                "value": "10,001,848,275,471,771,238,514"
                            }
                        ],
                        "constructorArguments": "",
                        "name": "mint",
                        "returnParams": [],
                        "signature": "mint(address,uint256)"
                    },
                    "errorInfo": "",
                    "fromAddress": "0xb76fbbb30e31f2c3bdaa2466cfb1cfe39b220d06",
                    "gasUsed": 14774,
                    "id": 2,
                    "methodDecoded": true,
                    "operation": "CALL",
                    "output": "",
                    "revert": false,
                    "revertMessage": "",
                    "selector": "0x40c10f19",
                    "status": true,
                    "value": "0"
                },
                "nodeType": 0
            },
            "3": {
                "event": {
                    "contract": "0x8355dbe8b0e275abad27eb843f3eaf3fc855e525",
                    "decodedLog": {
                        "name": "Transfer",
                        "params": [
                            {
                                "name": "from",
                                "type": "address",
                                "value": "0x0000000000000000000000000000000000000000"
                            },
                            {
                                "name": "to",
                                "type": "address",
                                "value": "0xadcc57a64dfe3f67800644711bea6d2572da32da"
                            },
                            {
                                "decimalAvailable": true,
                                "name": "value",
                                "type": "uint256",
                                "value": "10,001,848,275,471,771,238,514"
                            }
                        ],
                        "signature": "Transfer(address,address,uint256)"
                    },
                    "id": 3,
                    "logData": "0x00000000000000000000000000000000000000000000021e33872e7a703e0072",
                    "logDecoded": true,
                    "operation": "EVENT",
                    "revert": false,
                    "status": true,
                    "topics": [
                        "0xddf252ad1be2c89b69c2b068fc378daa952ba7f163c4a11628f55a4df523b3ef",
                        "0x0000000000000000000000000000000000000000000000000000000000000000",
                        "0x000000000000000000000000adcc57a64dfe3f67800644711bea6d2572da32da"
                    ]
                },
                "nodeType": 1
            },
            "4": {
                "event": {
                    "contract": "0xb76fbbb30e31f2c3bdaa2466cfb1cfe39b220d06",
                    "decodedLog": {
                        "name": "WoolClaimed",
                        "params": [
                            {
                                "name": "recipient",
                                "type": "address",
                                "value": "0xadcc57a64dfe3f67800644711bea6d2572da32da"
                            },
                            {
                                "name": "tokenId",
                                "type": "uint256",
                                "value": "7,588"
                            },
                            {
                                "name": "amount",
                                "type": "uint256",
                                "value": "10,001,848,275,471,771,238,514"
                            }
                        ],
                        "signature": "WoolClaimed(address,uint256,uint256)"
                    },
                    "id": 4,
                    "logData": "0x000000000000000000000000adcc57a64dfe3f67800644711bea6d2572da32da0000000000000000000000000000000000000000000000000000000000001da400000000000000000000000000000000000000000000021e33872e7a703e0072",
                    "logDecoded": true,
                    "operation": "EVENT",
                    "revert": false,
                    "status": true,
                    "topics": [
                        "0x8ee9da0ce476e3806339872ebbf94adc3a2660fadd477ce241d88e91c45ab4ee"
                    ]
                },
                "nodeType": 1
            }
        },
        "gasFlame": [
            {
                "children": [
                    {
                        "children": [
                            {
                                "children": [],
                                "depth": 0,
                                "name": "Initial Gas",
                                "value": 21216
                            },
                            {
                                "children": [
                                    {
                                        "children": [
                                            {
                                                "children": [],
                                                "depth": 2,
                                                "name": "mint",
                                                "value": 14774
                                            }
                                        ],
                                        "depth": 1,
                                        "name": "claim",
                                        "value": 32713
                                    }
                                ],
                                "depth": 0,
                                "name": "Executed Gas",
                                "value": 40041
                            }
                        ],
                        "depth": -1,
                        "name": "Actual Gas Used",
                        "value": 61257
                    },
                    {
                        "children": [],
                        "depth": -1,
                        "name": "Refunded Gas",
                        "value": 0
                    }
                ],
                "depth": -2,
                "name": "Total Gas",
                "value": 61257
            }
        ],
        "isConfirmed": true,
        "mainTrace": [
            {
                "children": [
                    {
                        "children": [
                            {
                                "children": [
                                    {
                                        "children": [
                                            {
                                                "children": [],
                                                "depth": 3,
                                                "id": 3,
                                                "order": 3
                                            }
                                        ],
                                        "depth": 2,
                                        "id": 2,
                                        "order": 2
                                    },
                                    {
                                        "children": [],
                                        "depth": 2,
                                        "id": 4,
                                        "order": 4
                                    }
                                ],
                                "depth": 1,
                                "id": 1,
                                "order": 1
                            }
                        ],
                        "depth": 0,
                        "id": 0,
                        "order": 0
                    }
                ],
                "depth": -1,
                "id": -1,
                "order": -1
            }
        ],
        "mainTraceNodeCount": 5,
        "parentIdMap": {
            "0": -1,
            "1": 0,
            "2": 1,
            "3": 2,
            "4": 1
        },
        "tidyTrace": [
            {
                "children": [
                    {
                        "children": [
                            {
                                "children": [
                                    {
                                        "children": [
                                            {
                                                "children": [],
                                                "depth": 3,
                                                "id": 3,
                                                "order": 3
                                            }
                                        ],
                                        "depth": 2,
                                        "id": 2,
                                        "order": 2
                                    },
                                    {
                                        "children": [],
                                        "depth": 2,
                                        "id": 4,
                                        "order": 4
                                    }
                                ],
                                "depth": 1,
                                "id": 1,
                                "order": 1
                            }
                        ],
                        "depth": 0,
                        "id": 0,
                        "order": 0
                    }
                ],
                "depth": -1,
                "id": -1,
                "order": -1
            }
        ],
        "tidyTraceNodeCount": 5
    },
    "state_change": {
        "stateChanges": [
            {
                "address": "0x8355dbe8b0e275abad27eb843f3eaf3fc855e525",
                "erc": "ERC-20",
                "slots": [
                    {
                        "current": "0x000000000000000000000000000000000000000000543b6ee68d48a67b5b8b51",
                        "key": "0x0000000000000000000000000000000000000000000000000000000000000002",
                        "prev": "0x000000000000000000000000000000000000000000543950b3061a2c0b1d8adf"
                    },
                    {
                        "current": "0x00000000000000000000000000000000000000000000e8964c50592db6e94139",
                        "key": "0xb07f41e15a2e7398b11be903d7a918c472fcd32f7a8813c633a1d67734cf5ba3",
                        "prev": "0x00000000000000000000000000000000000000000000e67818c92ab346ab40c7"
                    }
                ],
                "storageVariables": [
                    {
                        "name": "_balances",
                        "type": "mapping(address => uint256)",
                        "value": {
                            "pairs": [
                                {
                                    "key": "0xadcc57a64dfe3f67800644711bea6d2572da32da",
                                    "value": {
                                        "current": "1098361534630012018835769",
                                        "prev": "1088359686354540247597255",
                                        "typeTag": 1
                                    }
                                }
                            ],
                            "typeTag": 4
                        }
                    },
                    {
                        "name": "_totalSupply",
                        "type": "uint256",
                        "value": {
                            "current": "101830434224980748104600401",
                            "prev": "101820432376705276333361887",
                            "typeTag": 1
                        }
                    }
                ]
            },
            {
                "address": "0xb76fbbb30e31f2c3bdaa2466cfb1cfe39b220d06",
                "erc": "ERC-721",
                "slots": [
                    {
                        "current": "0x00000000000a983cb5679ea58fc71c00000061b2050f00000061b2174305b401",
                        "key": "0x71b8cb3a4c714ef0632a506d9735d1052960ebcbefcb616f6e9c635fffaacdef",
                        "prev": "0x00000000000a983cb5679ea58fc71c00000061b2050f00000061b2050f05b400"
                    }
                ],
                "storageVariables": [
                    {
                        "name": "pouches",
                        "type": "mapping(uint256 => struct WoolPouch.Pouch)",
                        "value": {
                            "pairs": [
                                {
                                    "key": "7588",
                                    "value": {
                                        "fields": [
                                            {
                                                "name": "initialClaimed",
                                                "type": "bool",
                                                "value": {
                                                    "current": "true",
                                                    "prev": "false",
                                                    "typeTag": 1
                                                }
                                            },
                                            {
                                                "name": "duration",
                                                "type": "uint16",
                                                "value": {
                                                    "current": "1460",
                                                    "prev": "1460",
                                                    "typeTag": 1
                                                }
                                            },
                                            {
                                                "name": "lastClaimTimestamp",
                                                "type": "uint56",
                                                "value": {
                                                    "current": "1639061315",
                                                    "prev": "1639056655",
                                                    "typeTag": 1
                                                }
                                            },
                                            {
                                                "name": "startTimestamp",
                                                "type": "uint56",
                                                "value": {
                                                    "current": "1639056655",
                                                    "prev": "1639056655",
                                                    "typeTag": 1
                                                }
                                            },
                                            {
                                                "name": "amount",
                                                "type": "uint120",
                                                "value": {
                                                    "current": "50031944444444444444444",
                                                    "prev": "50031944444444444444444",
                                                    "typeTag": 1
                                                }
                                            }
                                        ],
                                        "typeTag": 3
                                    }
                                }
                            ],
                            "typeTag": 4
                        }
                    }
                ]
            }
        ]
    }
}