{
    "balance_change": {
        "balanceChanges": [
            {
                "account": "0xdac002e27a30e710eb791f6ef4984cd76c963441",
                "assets": [
                    {
                        "address": "0x43dfc4159d86f3a37a5a4b3d4580b888ad7d4ddd",
                        "amount": "34.770270663983811684",
                        "iconUrl": "https://assets.blocksec.com/icon/74f5d58085566f2f712f2eb7a78141dcbcca32570934b3f56d5a763c88d6a685.png",
                        "isERC1155": false,
                        "isERC721": false,
                        "sign": true,
                        "value": "48.70083136"
                    },
                    {
                        "address": "0xeeeeeeeeeeeeeeeeeeeeeeeeeeeeeeeeeeeeeeee",
                        "amount": "0.02",
                        "iconUrl": "https://assets.blocksec.com/image/1663669189317-3.png",
                        "isERC1155": false,
                        "isERC721": false,
                        "sign": false,
                        "value": "64.621294639999996436"
                    }
                ]
            },
            {
                "account": "0x11ededebf63bef0ea2d2d071bdf88f71543ec6fb",
                "assets": [
                    {
                        "address": "0xeeeeeeeeeeeeeeeeeeeeeeeeeeeeeeeeeeeeeeee",
                        "amount": "0.000175",
                        "iconUrl": "https://assets.blocksec.com/image/1663669189317-3.png",
                        "isERC1155": false,
                        "isERC721": false,
                        "sign": true,
                        "value": "0.5654363280999999688"
                    }
                ]
            },
            {
                "account": "0x68fa181c720c07b7ff7412220e2431ce90a65a14",
                "assets": [
                    {
                        "address": "0x43dfc4159d86f3a37a5a4b3d4580b888ad7d4ddd",
                        "amount": "34.770270663983811684",
                        "iconUrl": "https://assets.blocksec.com/icon/74f5d58085566f2f712f2eb7a78141dcbcca32570934b3f56d5a763c88d6a685.png",
                        "isERC1155": false,
                        "isERC721": false,
                        "sign": false,
                        "value": "48.70083136"
                    },
                    {
                        "address": "0xc02aaa39b223fe8d0a0e5c4f27ead9083c756cc2",
                        "amount": "0.019825",
                        "iconUrl": "https://assets.blocksec.com/icon/f1cb2d02c471d545bbc7722daf3277fd852d98e63d118771af7047bd8256c516.png",
                        "isERC1155": false,
                        "isERC721": false,
                        "sign": true,
                        "value": "64.05585831189999647"
                    }
                ]
            },
            {
                "account": "0xc02aaa39b223fe8d0a0e5c4f27ead9083c756cc2",
                "assets": [
                    {
                        "address": "0xeeeeeeeeeeeeeeeeeeeeeeeeeeeeeeeeeeeeeeee",
                        "amount": "0.019825",
                        "iconUrl": "https://assets.blocksec.com/image/1663669189317-3.png",
                        "isERC1155": false,
                        "isERC721": false,
                        "sign": true,
                        "value": "64.05585831189999647"
                    },
                    {
                        "address": "0xc02aaa39b223fe8d0a0e5c4f27ead9083c756cc2",
                        "amount": "0.019825",
                        "iconUrl": "https://assets.blocksec.com/icon/f1cb2d02c471d545bbc7722daf3277fd852d98e63d118771af7047bd8256c516.png",
                        "isERC1155": false,
                        "isERC721": false,
                        "sign": false,
                        "value": "64.05585831189999647"
                    }
                ]
            }
        ]
    },
    "profile": {
        "basic_info": {
            "baseFee": "",
            "blockNumber": 12484324,
            "callData": "0x5f5755290000000000000000000000000000000000000000000000000000000000000080000000000000000000000000000000000000000000000000000000000000000000000000000000000000000000000000000000000000000000470de4df82000000000000000000000000000000000000000000000000000000000000000000c000000000000000000000000000000000000000000000000000000000000000136f6e65496e6368563346656544796e616d6963000000000000000000000000000000000000000000000000000000000000000000000000000000000000000200000000000000000000000000000000000000000000000000000000000000000000000000000000000000000043dfc4159d86f3a37a5a4b3d4580b888ad7d4ddd00000000000000000000000000000000000000000000000000466ebb82ac1000000000000000000000000000000000000000000000000001ddb5872dba3b30bf000000000000000000000000000000000000000000000000000000000000012000000000000000000000000000000000000000000000000000009f295cd5f00000000000000000000000000011ededebf63bef0ea2d2d071bdf88f71543ec6fb000000000000000000000000000000000000000000000000000000000000000000000000000000000000000000000000000000000000000000000000000000c42e95b6c8000000000000000000000000000000000000000000000000000000000000000000000000000000000000000000000000000000000000000000466ebb82ac1000000000000000000000000000000000000000000000000001ddb5872dba3b30bf0000000000000000000000000000000000000000000000000000000000000080000000000000000000000000000000000000000000000000000000000000000180000000000000003b6d034068fa181c720c07b7ff7412220e2431ce90a65a1400000000000000000000000000000000000000000000000000000000b2",
            "debugEnable": true,
            "errorInfo": "",
            "eventCount": 7,
            "feeRecipient": "0xf20b338752976878754518183873602902360704",
            "formatValue": "0.02",
            "gasLimit": 224882,
            "gasPrice": "39",
            "gasUsed": 156298,
            "intTxnCount": 13,
            "internalRevert": false,
            "internalRevertMessage": "",
            "isContractCreation": false,
            "isFlashloan": false,
            "maxFee": "",
            "nonce": 47,
            "overwritedBlockNumber": -1,
            "priorityFee": "",
            "receiver": "0x881d40237659c251811cec9c364ef91dc08d300c",
            "revertMessage": "",
            "sender": "0xdac002e27a30e710eb791f6ef4984cd76c963441",
            "simulationEnable": true,
            "sourceTxnHash": "0x08dc087fb00eaf9980da39f0597a2ccf6b43ab248e2ddbba58f40472538b51f2",
            "status": true,
            "timestamp": "2021-05-22T13:18:15Z",
            "transactionFee": "0.006095622",
            "txnHash": "0x08dc087fb00eaf9980da39f0597a2ccf6b43ab248e2ddbba58f40472538b51f2",
            "txnIndex": 187,
            "type": 0,
            "value": "20000000000000000"
        },
        "fund_flow": [
            {
                "amount": "0.02",
                "from": "0xdac002e27a30e710eb791f6ef4984cd76c963441",
                "id": 1,
                "isERC1155": false,
                "isERC721": false,
                "isReverted": false,
                "order": 1,
                "to": "0x881d40237659c251811cec9c364ef91dc08d300c",
                "token": "0xeeeeeeeeeeeeeeeeeeeeeeeeeeeeeeeeeeeeeeee"
            },
            {
                "amount": "0.02",
                "from": "0x881d40237659c251811cec9c364ef91dc08d300c",
                "id": 2,
                "isERC1155": false,
                "isERC721": false,
                "isReverted": false,
                "order": 2,
                "to": "0x74de5d4fcbf63e00296fd95d33236b9794016631",
                "token": "0xeeeeeeeeeeeeeeeeeeeeeeeeeeeeeeeeeeeeeeee"
            },
            {
                "amount": "0.019825",
                "from": "0x74de5d4fcbf63e00296fd95d33236b9794016631",
                "id": 3,
                "isERC1155": false,
                "isERC721": false,
                "isReverted": false,
                "order": 3,
                "to": "0x11111112542d85b3ef69ae05771c2dccff4faa26",
                "token": "0xeeeeeeeeeeeeeeeeeeeeeeeeeeeeeeeeeeeeeeee"
            },
            {
                "amount": "0.019825",
                "from": "0x11111112542d85b3ef69ae05771c2dccff4faa26",
                "id": 4,
                "isERC1155": false,
                "isERC721": false,
                "isReverted": false,
                "order": 4,
                "to": "0xc02aaa39b223fe8d0a0e5c4f27ead9083c756cc2",
                "token": "0xeeeeeeeeeeeeeeeeeeeeeeeeeeeeeeeeeeeeeeee"
            },
            {
                "amount": "0.019825",
                "from": "0xc02aaa39b223fe8d0a0e5c4f27ead9083c756cc2",
                "id": 5,
                "isERC1155": false,
                "isERC721": false,
                "isReverted": false,
                "order": 5,
                "to": "0x11111112542d85b3ef69ae05771c2dccff4faa26",
                "token": "0xc02aaa39b223fe8d0a0e5c4f27ead9083c756cc2"
            },
            {
                "amount": "0.019825",
                "from": "0x11111112542d85b3ef69ae05771c2dccff4faa26",
                "id": 6,
                "isERC1155": false,
                "isERC721": false,
                "isReverted": false,
                "order": 6,
                "to": "0x68fa181c720c07b7ff7412220e2431ce90a65a14",
                "token": "0xc02aaa39b223fe8d0a0e5c4f27ead9083c756cc2"
            },
            {
                "amount": "34.770270663983811684",
                "from": "0x68fa181c720c07b7ff7412220e2431ce90a65a14",
                "id": 7,
                "isERC1155": false,
                "isERC721": false,
                "isReverted": false,
                "order": 7,
                "to": "0x74de5d4fcbf63e00296fd95d33236b9794016631",
                "token": "0x43dfc4159d86f3a37a5a4b3d4580b888ad7d4ddd"
            },
            {
                "amount": "0.000175",
                "from": "0x74de5d4fcbf63e00296fd95d33236b9794016631",
                "id": 8,
                "isERC1155": false,
                "isERC721": false,
                "isReverted": false,
                "order": 8,
                "to": "0x11ededebf63bef0ea2d2d071bdf88f71543ec6fb",
                "token": "0xeeeeeeeeeeeeeeeeeeeeeeeeeeeeeeeeeeeeeeee"
            },
            {
                "amount": "34.770270663983811684",
                "from": "0x74de5d4fcbf63e00296fd95d33236b9794016631",
                "id": 9,
                "isERC1155": false,
                "isERC721": false,
                "isReverted": false,
                "order": 9,
                "to": "0xdac002e27a30e710eb791f6ef4984cd76c963441",
                "token": "0x43dfc4159d86f3a37a5a4b3d4580b888ad7d4ddd"
            }
        ],
        "token_infos": [
            {
                "address": "0x43dfc4159d86f3a37a5a4b3d4580b888ad7d4ddd",
                "decimals": 18
            },
            {
                "address": "0xc02aaa39b223fe8d0a0e5c4f27ead9083c756cc2",
                "decimals": 18
            },
            {
                "address": "0xeeeeeeeeeeeeeeeeeeeeeeeeeeeeeeeeeeeeeeee",
                "decimals": 18
            }
        ]
    },
    "address_label": {
        "labels": [
            {
                "address": "0x0000000000000000000000000000000000000002",
                "label": "Precompiled"
            },
            {
                "address": "0xeeeeeeeeeeeeeeeeeeeeeeeeeeeeeeeeeeeeeeee",
                "label": "Ether"
            },
            {
                "address": "0x74de5d4fcbf63e00296fd95d33236b9794016631",
                "label": "MetaMask: Swaps Spender"
            },
            {
                "address": "0xf20b338752976878754518183873602902360704",
                "label": "Proxy"
            },
            {
                "address": "0x0000000000000000000000000000000000000001",
                "label": "Precompiled"
            },
            {
                "address": "0x0000000000000000000000000000000000000003",
                "label": "Precompiled"
            },
            {
                "address": "0x11111112542d85b3ef69ae05771c2dccff4faa26",
                "label": "1inch v3: Aggregation Router"
            },
            {
                "address": "0x68fa181c720c07b7ff7412220e2431ce90a65a14",
                "label": "Uniswap V2: DODO 7"
            },
            {
                "address": "0x881d40237659c251811cec9c364ef91dc08d300c",
                "label": "Metamask: Swap Router"
            },
            {
                "address": "0x0000000000000000000000000000000000000000",
                "label": "Null Address"
            },
            {
                "address": "0x43dfc4159d86f3a37a5a4b3d4580b888ad7d4ddd",
                "label": "DODO: DODO Token"
            },
            {
                "address": "0x0000000000000000000000000000000000000004",
                "label": "Precompiled"
            },
            {
                "address": "0x11ededebf63bef0ea2d2d071bdf88f71543ec6fb",
                "label": "Metamask: Fees"
            },
            {
                "address": "0xc02aaa39b223fe8d0a0e5c4f27ead9083c756cc2",
                "label": "Wrapped Ether (WETH)"
            }
        ]
    },
    "trace": {
        "accountLabels": null,
        "dataMap": {
            "-1": {
                "invocation": {
                    "address": "0xdac002e27a30e710eb791f6ef4984cd76c963441",
                    "callData": "",
                    "decodedMethod": null,
                    "errorInfo": "",
                    "fromAddress": "",
                    "gasUsed": 0,
                    "id": -1,
                    "methodDecoded": false,
                    "operation": "",
                    "output": "",
                    "revert": false,
                    "revertMessage": "",
                    "selector": "",
                    "status": false,
                    "value": ""
                },
                "nodeType": 0
            },
            "0": {
                "invocation": {
                    "address": "0x881d40237659c251811cec9c364ef91dc08d300c",
                    "callData": "0x0000000000000000000000000000000000000000000000000000000000000080000000000000000000000000000000000000000000000000000000000000000000000000000000000000000000000000000000000000000000470de4df82000000000000000000000000000000000000000000000000000000000000000000c000000000000000000000000000000000000000000000000000000000000000136f6e65496e6368563346656544796e616d6963000000000000000000000000000000000000000000000000000000000000000000000000000000000000000200000000000000000000000000000000000000000000000000000000000000000000000000000000000000000043dfc4159d86f3a37a5a4b3d4580b888ad7d4ddd00000000000000000000000000000000000000000000000000466ebb82ac1000000000000000000000000000000000000000000000000001ddb5872dba3b30bf000000000000000000000000000000000000000000000000000000000000012000000000000000000000000000000000000000000000000000009f295cd5f00000000000000000000000000011ededebf63bef0ea2d2d071bdf88f71543ec6fb000000000000000000000000000000000000000000000000000000000000000000000000000000000000000000000000000000000000000000000000000000c42e95b6c8000000000000000000000000000000000000000000000000000000000000000000000000000000000000000000000000000000000000000000466ebb82ac1000000000000000000000000000000000000000000000000001ddb5872dba3b30bf0000000000000000000000000000000000000000000000000000000000000080000000000000000000000000000000000000000000000000000000000000000180000000000000003b6d034068fa181c720c07b7ff7412220e2431ce90a65a1400000000000000000000000000000000000000000000000000000000b2",
                    "decodedMethod": {
                        "callParams": [
                            {
                                "name": "aggregatorId",
                                "type": "string",
                                "value": "oneInchV3FeeDynamic"
                            },
                            {
                                "name": "tokenFrom",
                                "type": "address",
                                "value": "0x0000000000000000000000000000000000000000"
                            },
                            {
                                "name": "amount",
                                "type": "uint256",
                                "value": "20,000,000,000,000,000"
                            },
                            {
                                "name": "data",
                                "type": "bytes",
                                "value": "0x000000000000000000000000000000000000000000000000000000000000000000000000000000000000000043dfc4159d86f3a37a5a4b3d4580b888ad7d4ddd00000000000000000000000000000000000000000000000000466ebb82ac1000000000000000000000000000000000000000000000000001ddb5872dba3b30bf000000000000000000000000000000000000000000000000000000000000012000000000000000000000000000000000000000000000000000009f295cd5f00000000000000000000000000011ededebf63bef0ea2d2d071bdf88f71543ec6fb000000000000000000000000000000000000000000000000000000000000000000000000000000000000000000000000000000000000000000000000000000c42e95b6c8000000000000000000000000000000000000000000000000000000000000000000000000000000000000000000000000000000000000000000466ebb82ac1000000000000000000000000000000000000000000000000001ddb5872dba3b30bf0000000000000000000000000000000000000000000000000000000000000080000000000000000000000000000000000000000000000000000000000000000180000000000000003b6d034068fa181c720c07b7ff7412220e2431ce90a65a1400000000000000000000000000000000000000000000000000000000"
                            }
                        ],
                        "constructorArguments": "",
                        "name": "swap",
                        "returnParams": [],
                        "signature": "swap(string,address,uint256,bytes)"
                    },
                    "errorInfo": "",
                    "fromAddress": "0xdac002e27a30e710eb791f6ef4984cd76c963441",
                    "gasUsed": 156298,
                    "id": 0,
                    "methodDecoded": true,
                    "operation": "CALL",
                    "output": "",
                    "revert": false,
                    "revertMessage": "",
                    "selector": "0x5f575529",
                    "status": true,
                    "value": "0.02"
                },
                "nodeType": 0
            },
            "1": {
                "invocation": {
                    "address": "0x74de5d4fcbf63e00296fd95d33236b9794016631",
                    "callData": "0x0000000000000000000000004fed27eac9c2477b8c14ee8bada444bd4654f8330000000000000000000000000000000000000000000000000000000000000040000000000000000000000000000000000000000000000000000000000000022492f5f037000000000000000000000000dac002e27a30e710eb791f6ef4984cd76c963441000000000000000000000000000000000000000000000000000000000000000000000000000000000000000043dfc4159d86f3a37a5a4b3d4580b888ad7d4ddd00000000000000000000000000000000000000000000000000466ebb82ac1000000000000000000000000000000000000000000000000001ddb5872dba3b30bf000000000000000000000000000000000000000000000000000000000000012000000000000000000000000000000000000000000000000000009f295cd5f00000000000000000000000000011ededebf63bef0ea2d2d071bdf88f71543ec6fb000000000000000000000000000000000000000000000000000000000000000000000000000000000000000000000000000000000000000000000000000000c42e95b6c8000000000000000000000000000000000000000000000000000000000000000000000000000000000000000000000000000000000000000000466ebb82ac1000000000000000000000000000000000000000000000000001ddb5872dba3b30bf0000000000000000000000000000000000000000000000000000000000000080000000000000000000000000000000000000000000000000000000000000000180000000000000003b6d034068fa181c720c07b7ff7412220e2431ce90a65a140000000000000000000000000000000000000000000000000000000000000000000000000000000000000000000000000000000000000000",
                    "decodedMethod": {
                        "callParams": [
                            {
                                "name": "adapter",
                                "type": "address",
                                "value": "0x4fed27eac9c2477b8c14ee8bada444bd4654f833"
                            },
                            {
                                "name": "data",
                                "type": "bytes",
                                "value": "0x92f5f037000000000000000000000000dac002e27a30e710eb791f6ef4984cd76c963441000000000000000000000000000000000000000000000000000000000000000000000000000000000000000043dfc4159d86f3a37a5a4b3d4580b888ad7d4ddd00000000000000000000000000000000000000000000000000466ebb82ac1000000000000000000000000000000000000000000000000001ddb5872dba3b30bf000000000000000000000000000000000000000000000000000000000000012000000000000000000000000000000000000000000000000000009f295cd5f00000000000000000000000000011ededebf63bef0ea2d2d071bdf88f71543ec6fb000000000000000000000000000000000000000000000000000000000000000000000000000000000000000000000000000000000000000000000000000000c42e95b6c8000000000000000000000000000000000000000000000000000000000000000000000000000000000000000000000000000000000000000000466ebb82ac1000000000000000000000000000000000000000000000000001ddb5872dba3b30bf0000000000000000000000000000000000000000000000000000000000000080000000000000000000000000000000000000000000000000000000000000000180000000000000003b6d034068fa181c720c07b7ff7412220e2431ce90a65a1400000000000000000000000000000000000000000000000000000000"
                            }
                        ],
                        "constructorArguments": "",
                        "name": "swap",
                        "returnParams": [],
                        "signature": "swap(address,bytes)"
                    },
                    "errorInfo": "",
                    "fromAddress": "0x881d40237659c251811cec9c364ef91dc08d300c",
                    "gasUsed": 150247,
                    "id": 1,
                    "methodDecoded": true,
                    "operation": "CALL",
                    "output": "",
                    "revert": false,
                    "revertMessage": "",
                    "selector": "0xe3547335",
                    "status": true,
                    "value": "0.02"
                },
                "nodeType": 0
            },
            "10": {
                "invocation": {
                    "address": "0x43dfc4159d86f3a37a5a4b3d4580b888ad7d4ddd",
                    "callData": "0x00000000000000000000000074de5d4fcbf63e00296fd95d33236b9794016631000000000000000000000000000000000000000000000001e288d0f2b6f0cc64",
                    "decodedMethod": {
                        "callParams": [
                            {
                                "name": "to",
                                "type": "address",
                                "value": "0x74de5d4fcbf63e00296fd95d33236b9794016631"
                            },
                            {
                                "decimalAvailable": true,
                                "name": "amount",
                                "type": "uint256",
                                "value": "34,770,270,663,983,811,684"
                            }
                        ],
                        "constructorArguments": "",
                        "name": "transfer",
                        "returnParams": [
                            {
                                "name": "",
                                "type": "bool",
                                "value": true
                            }
                        ],
                        "signature": "transfer(address,uint256)"
                    },
                    "errorInfo": "",
                    "fromAddress": "0x68fa181c720c07b7ff7412220e2431ce90a65a14",
                    "gasUsed": 30120,
                    "id": 10,
                    "methodDecoded": true,
                    "operation": "CALL",
                    "output": "0x0000000000000000000000000000000000000000000000000000000000000001",
                    "revert": false,
                    "revertMessage": "",
                    "selector": "0xa9059cbb",
                    "status": true,
                    "value": "0"
                },
                "nodeType": 0
            },
            "11": {
                "event": {
                    "contract": "0x43dfc4159d86f3a37a5a4b3d4580b888ad7d4ddd",
                    "decodedLog": {
                        "name": "Transfer",
                        "params": [
                            {
                                "name": "from",
                                "type": "address",
                                "value": "0x68fa181c720c07b7ff7412220e2431ce90a65a14"
                            },
                            {
                                "name": "to",
                                "type": "address",
                                "value": "0x74de5d4fcbf63e00296fd95d33236b9794016631"
                            },
                            {
                                "decimalAvailable": true,
                                "name": "amount",
                                "type": "uint256",
                                "value": "34,770,270,663,983,811,684"
                            }
                        ],
                        "signature": "Transfer(address,address,uint256)"
                    },
                    "id": 11,
                    "logData": "0x000000000000000000000000000000000000000000000001e288d0f2b6f0cc64",
                    "logDecoded": true,
                    "operation": "EVENT",
                    "revert": false,
                    "status": true,
                    "topics": [
                        "0xddf252ad1be2c89b69c2b068fc378daa952ba7f163c4a11628f55a4df523b3ef",
                        "0x00000000000000000000000068fa181c720c07b7ff7412220e2431ce90a65a14",
                        "0x00000000000000000000000074de5d4fcbf63e00296fd95d33236b9794016631"
                    ]
                },
                "nodeType": 1
            },
            "12": {
                "invocation": {
                    "address": "0x43dfc4159d86f3a37a5a4b3d4580b888ad7d4ddd",
                    "callData": "0x00000000000000000000000068fa181c720c07b7ff7412220e2431ce90a65a14",
                    "decodedMethod": {
                        "callParams": [
                            {
                                "name": "owner",
                                "type": "address",
                                "value": "0x68fa181c720c07b7ff7412220e2431ce90a65a14"
                            }
                        ],
                        "constructorArguments": "",
                        "name": "balanceOf",
                        "returnParams": [
                            {
                                "decimalAvailable": true,
                                "name": "balance",
                                "type": "uint256",
                                "value": "146,871,205,088,887,661,796,226"
                            }
                        ],
                        "signature": "balanceOf(address)"
                    },
                    "errorInfo": "",
                    "fromAddress": "0x68fa181c720c07b7ff7412220e2431ce90a65a14",
                    "gasUsed": 597,
                    "id": 12,
                    "methodDecoded": true,
                    "operation": "STATICCALL",
                    "output": "0x000000000000000000000000000000000000000000001f19e76b575934f21b82",
                    "revert": false,
                    "revertMessage": "",
                    "selector": "0x70a08231",
                    "status": true,
                    "value": "0"
                },
                "nodeType": 0
            },
            "13": {
                "invocation": {
                    "address": "0xc02aaa39b223fe8d0a0e5c4f27ead9083c756cc2",
                    "callData": "0x00000000000000000000000068fa181c720c07b7ff7412220e2431ce90a65a14",
                    "decodedMethod": {
                        "callParams": [
                            {
                                "name": "",
                                "type": "address",
                                "value": "0x68fa181c720c07b7ff7412220e2431ce90a65a14"
                            }
                        ],
                        "constructorArguments": "",
                        "name": "balanceOf",
                        "returnParams": [
                            {
                                "decimalAvailable": true,
                                "name": "",
                                "type": "uint256",
                                "value": "83,510,301,793,197,501,224"
                            }
                        ],
                        "signature": "balanceOf(address)"
                    },
                    "errorInfo": "",
                    "fromAddress": "0x68fa181c720c07b7ff7412220e2431ce90a65a14",
                    "gasUsed": 534,
                    "id": 13,
                    "methodDecoded": true,
                    "operation": "STATICCALL",
                    "output": "0x00000000000000000000000000000000000000000000000486f031063d342b28",
                    "revert": false,
                    "revertMessage": "",
                    "selector": "0x70a08231",
                    "status": true,
                    "value": "0"
                },
                "nodeType": 0
            },
            "14": {
                "event": {
                    "contract": "0x68fa181c720c07b7ff7412220e2431ce90a65a14",
                    "decodedLog": {
                        "name": "Sync",
                        "params": [
                            {
                                "name": "reserve0",
                                "type": "uint112",
                                "value": "146,871,205,088,887,661,796,226"
                            },
                            {
                                "name": "reserve1",
                                "type": "uint112",
                                "value": "83,510,301,793,197,501,224"
                            }
                        ],
                        "signature": "Sync(uint112,uint112)"
                    },
                    "id": 14,
                    "logData": "0x000000000000000000000000000000000000000000001f19e76b575934f21b8200000000000000000000000000000000000000000000000486f031063d342b28",
                    "logDecoded": true,
                    "operation": "EVENT",
                    "revert": false,
                    "status": true,
                    "topics": [
                        "0x1c411e9a96e071241c2f21f7726b17ae89e3cab4c78be50e062b03a9fffbbad1"
                    ]
                },
                "nodeType": 1
            },
            "15": {
                "event": {
                    "contract": "0x68fa181c720c07b7ff7412220e2431ce90a65a14",
                    "decodedLog": {
                        "name": "Swap",
                        "params": [
                            {
                                "name": "sender",
                                "type": "address",
                                "value": "0x11111112542d85b3ef69ae05771c2dccff4faa26"
                            },
                            {
                                "name": "to",
                                "type": "address",
                                "value": "0x74de5d4fcbf63e00296fd95d33236b9794016631"
                            },
                            {
                                "name": "amount0In",
                                "type": "uint256",
                                "value": "0"
                            },
                            {
                                "name": "amount1In",
                                "type": "uint256",
                                "value": "19,825,000,000,000,000"
                            },
                            {
                                "name": "amount0Out",
                                "type": "uint256",
                                "value": "34,770,270,663,983,811,684"
                            },
                            {
                                "name": "amount1Out",
                                "type": "uint256",
                                "value": "0"
                            }
                        ],
                        "signature": "Swap(address,uint256,uint256,uint256,uint256,address)"
                    },
                    "id": 15,
                    "logData": "0x000000000000000000000000000000000000000000000000000000000000000000000000000000000000000000000000000000000000000000466ebb82ac1000000000000000000000000000000000000000000000000001e288d0f2b6f0cc640000000000000000000000000000000000000000000000000000000000000000",
                    "logDecoded": true,
                    "operation": "EVENT",
                    "revert": false,
                    "status": true,
                    "topics": [
                        "0xd78ad95fa46c994b6551d0da85fc275fe613ce37657fb8d5e3d130840159d822",
                        "0x00000000000000000000000011111112542d85b3ef69ae05771c2dccff4faa26",
                        "0x00000000000000000000000074de5d4fcbf63e00296fd95d33236b9794016631"
                    ]
                },
                "nodeType": 1
            },
            "16": {
                "invocation": {
                    "address": "0x11ededebf63bef0ea2d2d071bdf88f71543ec6fb",
                    "callData": "0x",
                    "decodedMethod": null,
                    "errorInfo": "",
                    "fromAddress": "0x74de5d4fcbf63e00296fd95d33236b9794016631",
                    "gasUsed": 0,
                    "id": 16,
                    "methodDecoded": false,
                    "operation": "CALL",
                    "output": "",
                    "revert": false,
                    "revertMessage": "",
                    "selector": "fallback",
                    "status": true,
                    "value": "0.000175"
                },
                "nodeType": 0
            },
            "17": {
                "invocation": {
                    "address": "0x43dfc4159d86f3a37a5a4b3d4580b888ad7d4ddd",
                    "callData": "0x00000000000000000000000074de5d4fcbf63e00296fd95d33236b9794016631",
                    "decodedMethod": {
                        "callParams": [
                            {
                                "name": "owner",
                                "type": "address",
                                "value": "0x74de5d4fcbf63e00296fd95d33236b9794016631"
                            }
                        ],
                        "constructorArguments": "",
                        "name": "balanceOf",
                        "returnParams": [
                            {
                                "decimalAvailable": true,
                                "name": "balance",
                                "type": "uint256",
                                "value": "34,770,270,663,983,811,684"
                            }
                        ],
                        "signature": "balanceOf(address)"
                    },
                    "errorInfo": "",
                    "fromAddress": "0x74de5d4fcbf63e00296fd95d33236b9794016631",
                    "gasUsed": 597,
                    "id": 17,
                    "methodDecoded": true,
                    "operation": "STATICCALL",
                    "output": "0x000000000000000000000000000000000000000000000001e288d0f2b6f0cc64",
                    "revert": false,
                    "revertMessage": "",
                    "selector": "0x70a08231",
                    "status": true,
                    "value": "0"
                },
                "nodeType": 0
            },
            "18": {
                "invocation": {
                    "address": "0x43dfc4159d86f3a37a5a4b3d4580b888ad7d4ddd",
                    "callData": "0x000000000000000000000000dac002e27a30e710eb791f6ef4984cd76c963441000000000000000000000000000000000000000000000001e288d0f2b6f0cc64",
                    "decodedMethod": {
                        "callParams": [
                            {
                                "name": "to",
                                "type": "address",
                                "value": "0xdac002e27a30e710eb791f6ef4984cd76c963441"
                            },
                            {
                                "decimalAvailable": true,
                                "name": "amount",
                                "type": "uint256",
                                "value": "34,770,270,663,983,811,684"
                            }
                        ],
                        "constructorArguments": "",
                        "name": "transfer",
                        "returnParams": [
                            {
                                "name": "",
                                "type": "bool",
                                "value": true
                            }
                        ],
                        "signature": "transfer(address,uint256)"
                    },
                    "errorInfo": "",
                    "fromAddress": "0x74de5d4fcbf63e00296fd95d33236b9794016631",
                    "gasUsed": 8220,
                    "id": 18,
                    "methodDecoded": true,
                    "operation": "CALL",
                    "output": "0x0000000000000000000000000000000000000000000000000000000000000001",
                    "revert": false,
                    "revertMessage": "",
                    "selector": "0xa9059cbb",
                    "status": true,
                    "value": "0"
                },
                "nodeType": 0
            },
            "19": {
                "event": {
                    "contract": "0x43dfc4159d86f3a37a5a4b3d4580b888ad7d4ddd",
                    "decodedLog": {
                        "name": "Transfer",
                        "params": [
                            {
                                "name": "from",
                                "type": "address",
                                "value": "0x74de5d4fcbf63e00296fd95d33236b9794016631"
                            },
                            {
                                "name": "to",
                                "type": "address",
                                "value": "0xdac002e27a30e710eb791f6ef4984cd76c963441"
                            },
                            {
                                "decimalAvailable": true,
                                "name": "amount",
                                "type": "uint256",
                                "value": "34,770,270,663,983,811,684"
                            }
                        ],
                        "signature": "Transfer(address,address,uint256)"
                    },
                    "id": 19,
                    "logData": "0x000000000000000000000000000000000000000000000001e288d0f2b6f0cc64",
                    "logDecoded": true,
                    "operation": "EVENT",
                    "revert": false,
                    "status": true,
                    "topics": [
                        "0xddf252ad1be2c89b69c2b068fc378daa952ba7f163c4a11628f55a4df523b3ef",
                        "0x00000000000000000000000074de5d4fcbf63e00296fd95d33236b9794016631",
                        "0x000000000000000000000000dac002e27a30e710eb791f6ef4984cd76c963441"
                    ]
                },
                "nodeType": 1
            },
            "2": {
                "invocation": {
                    "address": "0x4fed27eac9c2477b8c14ee8bada444bd4654f833",
                    "callData": "0x000000000000000000000000dac002e27a30e710eb791f6ef4984cd76c963441000000000000000000000000000000000000000000000000000000000000000000000000000000000000000043dfc4159d86f3a37a5a4b3d4580b888ad7d4ddd00000000000000000000000000000000000000000000000000466ebb82ac1000000000000000000000000000000000000000000000000001ddb5872dba3b30bf000000000000000000000000000000000000000000000000000000000000012000000000000000000000000000000000000000000000000000009f295cd5f00000000000000000000000000011ededebf63bef0ea2d2d071bdf88f71543ec6fb000000000000000000000000000000000000000000000000000000000000000000000000000000000000000000000000000000000000000000000000000000c42e95b6c8000000000000000000000000000000000000000000000000000000000000000000000000000000000000000000000000000000000000000000466ebb82ac1000000000000000000000000000000000000000000000000001ddb5872dba3b30bf0000000000000000000000000000000000000000000000000000000000000080000000000000000000000000000000000000000000000000000000000000000180000000000000003b6d034068fa181c720c07b7ff7412220e2431ce90a65a1400000000000000000000000000000000000000000000000000000000",
                    "decodedMethod": null,
                    "errorInfo": "",
                    "fromAddress": "0x74de5d4fcbf63e00296fd95d33236b9794016631",
                    "gasUsed": 145123,
                    "id": 2,
                    "methodDecoded": false,
                    "operation": "DELEGATECALL",
                    "output": "",
                    "revert": false,
                    "revertMessage": "",
                    "selector": "0x92f5f037",
                    "status": true,
                    "value": "0.02"
                },
                "nodeType": 0
            },
            "20": {
                "event": {
                    "contract": "0x881d40237659c251811cec9c364ef91dc08d300c",
                    "decodedLog": {
                        "name": "Swap",
                        "params": [
                            {
                                "name": "aggregatorId",
                                "type": "string",
                                "value": "0x69b1f17ff273de3fb47eab72186e121a076c1b07d7ea487a85664e14fbcc9e75"
                            },
                            {
                                "name": "sender",
                                "type": "address",
                                "value": "0xdac002e27a30e710eb791f6ef4984cd76c963441"
                            }
                        ],
                        "signature": "Swap(string,address)"
                    },
                    "id": 20,
                    "logData": "0x",
                    "logDecoded": true,
                    "operation": "EVENT",
                    "revert": false,
                    "status": true,
                    "topics": [
                        "0xbeee1e6e7fe307ddcf84b0a16137a4430ad5e2480fc4f4a8e250ab56ccd7630d",
                        "0x69b1f17ff273de3fb47eab72186e121a076c1b07d7ea487a85664e14fbcc9e75",
                        "0x000000000000000000000000dac002e27a30e710eb791f6ef4984cd76c963441"
                    ]
                },
                "nodeType": 1
            },
            "3": {
                "invocation": {
                    "address": "0x11111112542d85b3ef69ae05771c2dccff4faa26",
                    "callData": "0x000000000000000000000000000000000000000000000000000000000000000000000000000000000000000000000000000000000000000000466ebb82ac1000000000000000000000000000000000000000000000000001ddb5872dba3b30bf0000000000000000000000000000000000000000000000000000000000000080000000000000000000000000000000000000000000000000000000000000000180000000000000003b6d034068fa181c720c07b7ff7412220e2431ce90a65a14",
                    "decodedMethod": {
                        "callParams": [
                            {
                                "name": "srcToken",
                                "type": "address",
                                "value": "0x0000000000000000000000000000000000000000"
                            },
                            {
                                "name": "amount",
                                "type": "uint256",
                                "value": "19,825,000,000,000,000"
                            },
                            {
                                "name": "minReturn",
                                "type": "uint256",
                                "value": "34,422,567,957,343,973,567"
                            },
                            {
                                "name": "",
                                "type": "bytes32[]",
                                "value": [
                                    "0x80000000000000003b6d034068fa181c720c07b7ff7412220e2431ce90a65a14"
                                ]
                            }
                        ],
                        "constructorArguments": "",
                        "name": "unoswap",
                        "returnParams": [
                            {
                                "name": "returnAmount",
                                "type": "uint256",
                                "value": "34,770,270,663,983,811,684"
                            }
                        ],
                        "signature": "unoswap(address,uint256,uint256,bytes32[])"
                    },
                    "errorInfo": "",
                    "fromAddress": "0x74de5d4fcbf63e00296fd95d33236b9794016631",
                    "gasUsed": 113140,
                    "id": 3,
                    "methodDecoded": true,
                    "operation": "CALL",
                    "output": "0x000000000000000000000000000000000000000000000001e288d0f2b6f0cc64",
                    "revert": false,
                    "revertMessage": "",
                    "selector": "0x2e95b6c8",
                    "status": true,
                    "value": "0.019825"
                },
                "nodeType": 0
            },
            "4": {
                "invocation": {
                    "address": "0xc02aaa39b223fe8d0a0e5c4f27ead9083c756cc2",
                    "callData": "0x",
                    "decodedMethod": {
                        "callParams": [],
                        "constructorArguments": "",
                        "name": "deposit",
                        "returnParams": [],
                        "signature": "deposit()"
                    },
                    "errorInfo": "",
                    "fromAddress": "0x11111112542d85b3ef69ae05771c2dccff4faa26",
                    "gasUsed": 23974,
                    "id": 4,
                    "methodDecoded": true,
                    "operation": "CALL",
                    "output": "",
                    "revert": false,
                    "revertMessage": "",
                    "selector": "0xd0e30db0",
                    "status": true,
                    "value": "0.019825"
                },
                "nodeType": 0
            },
            "5": {
                "event": {
                    "contract": "0xc02aaa39b223fe8d0a0e5c4f27ead9083c756cc2",
                    "decodedLog": {
                        "name": "Deposit",
                        "params": [
                            {
                                "name": "dst",
                                "type": "address",
                                "value": "0x11111112542d85b3ef69ae05771c2dccff4faa26"
                            },
                            {
                                "name": "wad",
                                "type": "uint256",
                                "value": "19,825,000,000,000,000"
                            }
                        ],
                        "signature": "Deposit(address,uint256)"
                    },
                    "id": 5,
                    "logData": "0x00000000000000000000000000000000000000000000000000466ebb82ac1000",
                    "logDecoded": true,
                    "operation": "EVENT",
                    "revert": false,
                    "status": true,
                    "topics": [
                        "0xe1fffcc4923d04b559f4d29a8bfc6cda04eb5b0d3c460751c2402c5c5cc9109c",
                        "0x00000000000000000000000011111112542d85b3ef69ae05771c2dccff4faa26"
                    ]
                },
                "nodeType": 1
            },
            "6": {
                "invocation": {
                    "address": "0xc02aaa39b223fe8d0a0e5c4f27ead9083c756cc2",
                    "callData": "0x00000000000000000000000068fa181c720c07b7ff7412220e2431ce90a65a1400000000000000000000000000000000000000000000000000466ebb82ac1000",
                    "decodedMethod": {
                        "callParams": [
                            {
                                "name": "dst",
                                "type": "address",
                                "value": "0x68fa181c720c07b7ff7412220e2431ce90a65a14"
                            },
                            {
                                "decimalAvailable": true,
                                "name": "wad",
                                "type": "uint256",
                                "value": "19,825,000,000,000,000"
                            }
                        ],
                        "constructorArguments": "",
                        "name": "transfer",
                        "returnParams": [
                            {
                                "name": "",
                                "type": "bool",
                                "value": true
                            }
                        ],
                        "signature": "transfer(address,uint256)"
                    },
                    "errorInfo": "",
                    "fromAddress": "0x11111112542d85b3ef69ae05771c2dccff4faa26",
                    "gasUsed": 8062,
                    "id": 6,
                    "methodDecoded": true,
                    "operation": "CALL",
                    "output": "0x0000000000000000000000000000000000000000000000000000000000000001",
                    "revert": false,
                    "revertMessage": "",
                    "selector": "0xa9059cbb",
                    "status": true,
                    "value": "0"
                },
                "nodeType": 0
            },
            "7": {
                "event": {
                    "contract": "0xc02aaa39b223fe8d0a0e5c4f27ead9083c756cc2",
                    "decodedLog": {
                        "name": "Transfer",
                        "params": [
                            {
                                "name": "src",
                                "type": "address",
                                "value": "0x11111112542d85b3ef69ae05771c2dccff4faa26"
                            },
                            {
                                "name": "dst",
                                "type": "address",
                                "value": "0x68fa181c720c07b7ff7412220e2431ce90a65a14"
                            },
                            {
                                "decimalAvailable": true,
                                "name": "wad",
                                "type": "uint256",
                                "value": "19,825,000,000,000,000"
                            }
                        ],
                        "signature": "Transfer(address,address,uint256)"
                    },
                    "id": 7,
                    "logData": "0x00000000000000000000000000000000000000000000000000466ebb82ac1000",
                    "logDecoded": true,
                    "operation": "EVENT",
                    "revert": false,
                    "status": true,
                    "topics": [
                        "0xddf252ad1be2c89b69c2b068fc378daa952ba7f163c4a11628f55a4df523b3ef",
                        "0x00000000000000000000000011111112542d85b3ef69ae05771c2dccff4faa26",
                        "0x00000000000000000000000068fa181c720c07b7ff7412220e2431ce90a65a14"
                    ]
                },
                "nodeType": 1
            },
            "8": {
                "invocation": {
                    "address": "0x68fa181c720c07b7ff7412220e2431ce90a65a14",
                    "callData": "0x",
                    "decodedMethod": {
                        "callParams": [],
                        "constructorArguments": "",
                        "name": "getReserves",
                        "returnParams": [
                            {
                                "name": "_reserve0",
                                "type": "uint112",
                                "value": "146,905,975,359,551,645,607,910"
                            },
                            {
                                "name": "_reserve1",
                                "type": "uint112",
                                "value": "83,490,476,793,197,501,224"
                            },
                            {
                                "name": "_blockTimestampLast",
                                "type": "uint32",
                                "value": "1,621,686,994"
                            }
                        ],
                        "signature": "getReserves()"
                    },
                    "errorInfo": "",
                    "fromAddress": "0x11111112542d85b3ef69ae05771c2dccff4faa26",
                    "gasUsed": 2504,
                    "id": 8,
                    "methodDecoded": true,
                    "operation": "STATICCALL",
                    "output": "0x000000000000000000000000000000000000000000001f1bc9f4284bebe2e7e600000000000000000000000000000000000000000000000486a9c24aba881b280000000000000000000000000000000000000000000000000000000060a8fad2",
                    "revert": false,
                    "revertMessage": "",
                    "selector": "0x0902f1ac",
                    "status": true,
                    "value": "0"
                },
                "nodeType": 0
            },
            "9": {
                "invocation": {
                    "address": "0x68fa181c720c07b7ff7412220e2431ce90a65a14",
                    "callData": "0x000000000000000000000000000000000000000000000001e288d0f2b6f0cc64000000000000000000000000000000000000000000000000000000000000000000000000000000000000000074de5d4fcbf63e00296fd95d33236b979401663100000000000000000000000000000000000000000000000000000000000000800000000000000000000000000000000000000000000000000000000000000000",
                    "decodedMethod": {
                        "callParams": [
                            {
                                "name": "amount0Out",
                                "type": "uint256",
                                "value": "34,770,270,663,983,811,684"
                            },
                            {
                                "name": "amount1Out",
                                "type": "uint256",
                                "value": "0"
                            },
                            {
                                "name": "to",
                                "type": "address",
                                "value": "0x74de5d4fcbf63e00296fd95d33236b9794016631"
                            },
                            {
                                "name": "data",
                                "type": "bytes",
                                "value": "0x"
                            }
                        ],
                        "constructorArguments": "",
                        "name": "swap",
                        "returnParams": [],
                        "signature": "swap(uint256,uint256,address,bytes)"
                    },
                    "errorInfo": "",
                    "fromAddress": "0x11111112542d85b3ef69ae05771c2dccff4faa26",
                    "gasUsed": 65074,
                    "id": 9,
                    "methodDecoded": true,
                    "operation": "CALL",
                    "output": "",
                    "revert": false,
                    "revertMessage": "",
                    "selector": "0x022c0d9f",
                    "status": true,
                    "value": "0"
                },
                "nodeType": 0
            }
        },
        "gasFlame": [
            {
                "children": [
                    {
                        "children": [
                            {
                                "children": [],
                                "depth": 0,
                                "name": "Initial Gas",
                                "value": 25668
                            },
                            {
                                "children": [
                                    {
                                        "children": [
                                            {
                                                "children": [
                                                    {
                                                        "children": [
                                                            {
                                                                "children": [],
                                                                "depth": 4,
                                                                "name": "deposit",
                                                                "value": 23974
                                                            },
                                                            {
                                                                "children": [],
                                                                "depth": 4,
                                                                "name": "transfer",
                                                                "value": 8062
                                                            },
                                                            {
                                                                "children": [],
                                                                "depth": 4,
                                                                "name": "getReserves",
                                                                "value": 2504
                                                            },
                                                            {
                                                                "children": [
                                                                    {
                                                                        "children": [],
                                                                        "depth": 5,
                                                                        "name": "transfer",
                                                                        "value": 30120
                                                                    },
                                                                    {
                                                                        "children": [],
                                                                        "depth": 5,
                                                                        "name": "balanceOf",
                                                                        "value": 597
                                                                    },
                                                                    {
                                                                        "children": [],
                                                                        "depth": 5,
                                                                        "name": "balanceOf",
                                                                        "value": 534
                                                                    }
                                                                ],
                                                                "depth": 4,
                                                                "name": "swap",
                                                                "value": 65074
                                                            }
                                                        ],
                                                        "depth": 3,
                                                        "name": "unoswap",
                                                        "value": 113140
                                                    },
                                                    {
                                                        "children": [],
                                                        "depth": 3,
                                                        "name": "fallback",
                                                        "value": 0
                                                    },
                                                    {
                                                        "children": [],
                                                        "depth": 3,
                                                        "name": "balanceOf",
                                                        "value": 597
                                                    },
                                                    {
                                                        "children": [],
                                                        "depth": 3,
                                                        "name": "transfer",
                                                        "value": 8220
                                                    }
                                                ],
                                                "depth": 2,
                                                "name": "0x92f5f037",
                                                "value": 145123
                                            }
                                        ],
                                        "depth": 1,
                                        "name": "swap",
                                        "value": 150247
                                    }
                                ],
                                "depth": 0,
                                "name": "Executed Gas",
                                "value": 176030
                            }
                        ],
                        "depth": -1,
                        "name": "Actual Gas Used",
                        "value": 156298
                    },
                    {
                        "children": [],
                        "depth": -1,
                        "name": "Refunded Gas",
                        "value": 45400
                    }
                ],
                "depth": -2,
                "name": "Total Gas",
                "value": 201698
            }
        ],
        "isConfirmed": true,
        "mainTrace": [
            {
                "children": [
                    {
                        "children": [
                            {
                                "children": [
                                    {
                                        "children": [
                                            {
                                                "children": [
                                                    {
                                                        "children": [
                                                            {
                                                                "children": [],
                                                                "depth": 5,
                                                                "id": 5,
                                                                "order": 5
                                                            }
                                                        ],
                                                        "depth": 4,
                                                        "id": 4,
                                                        "order": 4
                                                    },
                                                    {
                                                        "children": [
                                                            {
                                                                "children": [],
                                                                "depth": 5,
                                                                "id": 7,
                                                                "order": 7
                                                            }
                                                        ],
                                                        "depth": 4,
                                                        "id": 6,
                                                        "order": 6
                                                    },
                                                    {
                                                        "children": [],
                                                        "depth": 4,
                                                        "id": 8,
                                                        "order": 8
                                                    },
                                                    {
                                                        "children": [
                                                            {
                                                                "children": [
                                                                    {
                                                                        "children": [],
                                                                        "depth": 6,
                                                                        "id": 11,
                                                                        "order": 11
                                                                    }
                                                                ],
                                                                "depth": 5,
                                                                "id": 10,
                                                                "order": 10
                                                            },
                                                            {
                                                                "children": [],
                                                                "depth": 5,
                                                                "id": 12,
                                                                "order": 12
                                                            },
                                                            {
                                                                "children": [],
                                                                "depth": 5,
                                                                "id": 13,
                                                                "order": 13
                                                            },
                                                            {
                                                                "children": [],
                                                                "depth": 5,
                                                                "id": 14,
                                                                "order": 14
                                                            },
                                                            {
                                                                "children": [],
                                                                "depth": 5,
                                                                "id": 15,
                                                                "order": 15
                                                            }
                                                        ],
                                                        "depth": 4,
                                                        "id": 9,
                                                        "order": 9
                                                    }
                                                ],
                                                "depth": 3,
                                                "id": 3,
                                                "order": 3
                                            },
                                            {
                                                "children": [],
                                                "depth": 3,
                                                "id": 16,
                                                "order": 16
                                            },
                                            {
                                                "children": [],
                                                "depth": 3,
                                                "id": 17,
                                                "order": 17
                                            },
                                            {
                                                "children": [
                                                    {
                                                        "children": [],
                                                        "depth": 4,
                                                        "id": 19,
                                                        "order": 19
                                                    }
                                                ],
                                                "depth": 3,
                                                "id": 18,
                                                "order": 18
                                            }
                                        ],
                                        "depth": 2,
                                        "id": 2,
                                        "order": 2
                                    }
                                ],
                                "depth": 1,
                                "id": 1,
                                "order": 1
                            },
                            {
                                "children": [],
                                "depth": 1,
                                "id": 20,
                                "order": 20
                            }
                        ],
                        "depth": 0,
                        "id": 0,
                        "order": 0
                    }
                ],
                "depth": -1,
                "id": -1,
                "order": -1
            }
        ],
        "mainTraceNodeCount": 21,
        "parentIdMap": {
            "0": -1,
            "1": 0,
            "10": 9,
            "11": 10,
            "12": 9,
            "13": 9,
            "14": 9,
            "15": 9,
            "16": 2,
            "17": 2,
            "18": 2,
            "19": 18,
            "2": 1,
            "20": 0,
            "3": 2,
            "4": 3,
            "5": 4,
            "6": 3,
            "7": 6,
            "8": 3,
            "9": 3
        },
        "tidyTrace": [
            {
                "children": [
                    {
                        "children": [
                            {
                                "children": [
                                    {
                                        "children": [
                                            {
                                                "children": [
                                                    {
                                                        "children": [
                                                            {
                                                                "children": [],
                                                                "depth": 5,
                                                                "id": 5,
                                                                "order": 5
                                                            }
                                                        ],
                                                        "depth": 4,
                                                        "id": 4,
                                                        "order": 4
                                                    },
                                                    {
                                                        "children": [
                                                            {
                                                                "children": [],
                                                                "depth": 5,
                                                                "id": 7,
                                                                "order": 7
                                                            }
                                                        ],
                                                        "depth": 4,
                                                        "id": 6,
                                                        "order": 6
                                                    },
                                                    {
                                                        "children": [
                                                            {
                                                                "children": [
                                                                    {
                                                                        "children": [],
                                                                        "depth": 6,
                                                                        "id": 11,
                                                                        "order": 11
                                                                    }
                                                                ],
                                                                "depth": 5,
                                                                "id": 10,
                                                                "order": 10
                                                            },
                                                            {
                                                                "children": [],
                                                                "depth": 5,
                                                                "id": 14,
                                                                "order": 14
                                                            },
                                                            {
                                                                "children": [],
                                                                "depth": 5,
                                                                "id": 15,
                                                                "order": 15
                                                            }
                                                        ],
                                                        "depth": 4,
                                                        "id": 9,
                                                        "order": 9
                                                    }
                                                ],
                                                "depth": 3,
                                                "id": 3,
                                                "order": 3
                                            },
                                            {
                                                "children": [],
                                                "depth": 3,
                                                "id": 16,
                                                "order": 16
                                            },
                                            {
                                                "children": [
                                                    {
                                                        "children": [],
                                                        "depth": 4,
                                                        "id": 19,
                                                        "order": 19
                                                    }
                                                ],
                                                "depth": 3,
                                                "id": 18,
                                                "order": 18
                                            }
                                        ],
                                        "depth": 2,
                                        "id": 2,
                                        "order": 2
                                    }
                                ],
                                "depth": 1,
                                "id": 1,
                                "order": 1
                            },
                            {
                                "children": [],
                                "depth": 1,
                                "id": 20,
                                "order": 20
                            }
                        ],
                        "depth": 0,
                        "id": 0,
                        "order": 0
                    }
                ],
                "depth": -1,
                "id": -1,
                "order": -1
            }
        ],
        "tidyTraceNodeCount": 17
    },
    "state_change": {
        "stateChanges": [
            {
                "address": "0x43dfc4159d86f3a37a5a4b3d4580b888ad7d4ddd",
                "erc": "ERC-20",
                "slots": [
                    {
                        "current": "0x000000000000000000000000000000000000000000001f19e76b575934f21b82",
                        "key": "0x9a81fee73ae644b637616ebf93c4d9e1618b5cd7df664963c59e30a784ef9f27",
                        "prev": "0x000000000000000000000000000000000000000000001f1bc9f4284bebe2e7e6"
                    },
                    {
                        "current": "0x000000000000000000000000000000000000000000000008c1ca6a429ae73342",
                        "key": "0x51b763567284186234dda8d2d10f69f0ba9e681ad7ddd392ea36883fe6ad518d",
                        "prev": "0x000000000000000000000000000000000000000000000006df41994fe3f666de"
                    }
                ],
                "storageVariables": [
                    {
                        "name": "balances",
                        "type": "mapping(address => uint256)",
                        "value": {
                            "pairs": [
                                {
                                    "key": "0x68fa181c720c07b7ff7412220e2431ce90a65a14",
                                    "value": {
                                        "current": "146871205088887661796226",
                                        "prev": "146905975359551645607910",
                                        "typeTag": 1
                                    }
                                },
                                {
                                    "key": "0xdac002e27a30e710eb791f6ef4984cd76c963441",
                                    "value": {
                                        "current": "161538043018591286082",
                                        "prev": "126767772354607474398",
                                        "typeTag": 1
                                    }
                                }
                            ],
                            "typeTag": 4
                        }
                    }
                ]
            },
            {
                "address": "0x68fa181c720c07b7ff7412220e2431ce90a65a14",
                "erc": "ERC-20",
                "slots": [
                    {
                        "current": "0x000000000000000000000000000000005c0305097f0cee13f471b2ef6e0597be",
                        "key": "0x0000000000000000000000000000000000000000000000000000000000000009",
                        "prev": "0x000000000000000000000000000000005c019929ba6a82d04752b25a33c76f0a"
                    },
                    {
                        "current": "0x00000000000000000000000000076708a0b16a99d509af922d00fd7b1e3e3ab9",
                        "key": "0x000000000000000000000000000000000000000000000000000000000000000a",
                        "prev": "0x000000000000000000000000000766c57aadac2a5dc9f8066e81d889c0bda807"
                    },
                    {
                        "current": "0x60a9049700000000000486f031063d342b28000000001f19e76b575934f21b82",
                        "key": "0x0000000000000000000000000000000000000000000000000000000000000008",
                        "prev": "0x60a8fad200000000000486a9c24aba881b28000000001f1bc9f4284bebe2e7e6"
                    }
                ],
                "storageVariables": [
                    {
                        "name": "reserve0",
                        "type": "uint112",
                        "value": {
                            "current": "146871205088887661796226",
                            "prev": "146905975359551645607910",
                            "typeTag": 1
                        }
                    },
                    {
                        "name": "reserve1",
                        "type": "uint112",
                        "value": {
                            "current": "83510301793197501224",
                            "prev": "83490476793197501224",
                            "typeTag": 1
                        }
                    },
                    {
                        "name": "blockTimestampLast",
                        "type": "uint32",
                        "value": {
                            "current": "1621689495",
                            "prev": "1621686994",
                            "typeTag": 1
                        }
                    },
                    {
                        "name": "price0CumulativeLast",
                        "type": "uint256",
                        "value": {
                            "current": "122304654667209573325238315126152861630",
                            "prev": "122297274423787792638545725392930959114",
                            "typeTag": 1
                        }
                    },
                    {
                        "name": "price1CumulativeLast",
                        "type": "uint256",
                        "value": {
                            "current": "165080717697299027709132445846815252269644473",
                            "prev": "165057868248612105373194579529527667755689991",
                            "typeTag": 1
                        }
                    }
                ]
            },
            {
                "address": "0xc02aaa39b223fe8d0a0e5c4f27ead9083c756cc2",
                "erc": "ERC-20",
                "slots": [
                    {
                        "current": "0x00000000000000000000000000000000000000000000000486f031063d342b28",
                        "key": "0x1419facc4afc17ba75dbbf9785e8c07ca718f68ef01d3f4ef2767fe0b357cd73",
                        "prev": "0x00000000000000000000000000000000000000000000000486a9c24aba881b28"
                    }
                ],
                "storageVariables": [
                    {
                        "name": "balanceOf",
                        "type": "mapping(address => uint256)",
                        "value": {
                            "pairs": [
                                {
                                    "key": "0x68fa181c720c07b7ff7412220e2431ce90a65a14",
                                    "value": {
                                        "current": "83510301793197501224",
                                        "prev": "83490476793197501224",
                                        "typeTag": 1
                                    }
                                }
                            ],
                            "typeTag": 4
                        }
                    }
                ]
            }
        ]
    }
}