{
    "balance_change": {
        "balanceChanges": [
            {
                "account": "0x3ad97f37724cbd226d205ba63ab64bd04182fbbb",
                "assets": [
                    {
                        "address": "0xec53bf9167f50cdeb3ae105f56099aaab9061f83",
                        "amount": "110",
                        "iconUrl": "",
                        "isERC1155": false,
                        "isERC721": false,
                        "sign": false,
                        "value": ""
                    }
                ]
            },
            {
                "account": "0xacb55c530acdb2849e6d4f36992cd8c9d50ed8f7",
                "assets": [
                    {
                        "address": "0x83e9115d334d248ce39a6f36144aeab5b3456e75",
                        "amount": "110",
                        "iconUrl": "",
                        "isERC1155": false,
                        "isERC721": false,
                        "sign": true,
                        "value": ""
                    }
                ]
            },
            {
                "account": "0xec53bf9167f50cdeb3ae105f56099aaab9061f83",
                "assets": [
                    {
                        "address": "0xec53bf9167f50cdeb3ae105f56099aaab9061f83",
                        "amount": "110",
                        "iconUrl": "",
                        "isERC1155": false,
                        "isERC721": false,
                        "sign": true,
                        "value": ""
                    },
                    {
                        "address": "0x83e9115d334d248ce39a6f36144aeab5b3456e75",
                        "amount": "110",
                        "iconUrl": "",
                        "isERC1155": false,
                        "isERC721": false,
                        "sign": false,
                        "value": ""
                    }
                ]
            }
        ]
    },
    "profile": {
        "basic_info": {
            "baseFee": "5.013195096",
            "blockNumber": 19843397,
            "callData": "0xe7a050aa000000000000000000000000acb55c530acdb2849e6d4f36992cd8c9d50ed8f7000000000000000000000000ec53bf9167f50cdeb3ae105f56099aaab9061f83000000000000000000000000000000000000000000000005f68e8131ecf80000",
            "debugEnable": true,
            "errorInfo": "",
            "eventCount": 5,
            "feeRecipient": "0x4838b106fce9647bdf1e7877bf73ce8b0bad5f97",
            "formatValue": "0",
            "gasLimit": 255257,
            "gasPrice": "5.033245449",
            "gasUsed": 217332,
            "intTxnCount": 13,
            "internalRevert": false,
            "internalRevertMessage": "",
            "isContractCreation": false,
            "isFlashloan": false,
            "maxFee": "6.664936012",
            "nonce": 51,
            "overwritedBlockNumber": -1,
            "priorityFee": "0.020050353",
            "receiver": "0x858646372cc42e1a627fce94aa7a7033e7cf075a",
            "revertMessage": "",
            "sender": "0x3ad97f37724cbd226d205ba63ab64bd04182fbbb",
            "simulationEnable": true,
            "sourceTxnHash": "0x08cbcb5928ff33424adf1310ce1df24d904e7758a67fc9d7877ce69af25fcf1e",
            "status": true,
            "timestamp": "2024-05-11T01:04:47Z",
            "transactionFee": "0.001093885299922068",
            "txnHash": "0x08cbcb5928ff33424adf1310ce1df24d904e7758a67fc9d7877ce69af25fcf1e",
            "txnIndex": 81,
            "type": 2,
            "value": "0"
        },
        "fund_flow": [
            {
                "amount": "110",
                "from": "0x3ad97f37724cbd226d205ba63ab64bd04182fbbb",
                "id": 1,
                "isERC1155": false,
                "isERC721": false,
                "isReverted": false,
                "order": 1,
                "to": "0xacb55c530acdb2849e6d4f36992cd8c9d50ed8f7",
                "token": "0xec53bf9167f50cdeb3ae105f56099aaab9061f83"
            },
            {
                "amount": "110",
                "from": "0xacb55c530acdb2849e6d4f36992cd8c9d50ed8f7",
                "id": 2,
                "isERC1155": false,
                "isERC721": false,
                "isReverted": false,
                "order": 2,
                "to": "0xec53bf9167f50cdeb3ae105f56099aaab9061f83",
                "token": "0xec53bf9167f50cdeb3ae105f56099aaab9061f83"
            },
            {
                "amount": "110",
                "from": "0xec53bf9167f50cdeb3ae105f56099aaab9061f83",
                "id": 3,
                "isERC1155": false,
                "isERC721": false,
                "isReverted": false,
                "order": 3,
                "to": "0xacb55c530acdb2849e6d4f36992cd8c9d50ed8f7",
                "token": "0x83e9115d334d248ce39a6f36144aeab5b3456e75"
            }
        ],
        "token_infos": [
            {
                "address": "0x83e9115d334d248ce39a6f36144aeab5b3456e75",
                "decimals": 18
            },
            {
                "address": "0xc02aaa39b223fe8d0a0e5c4f27ead9083c756cc2",
                "decimals": 18
            },
            {
                "address": "0xec53bf9167f50cdeb3ae105f56099aaab9061f83",
                "decimals": 18
            },
            {
                "address": "0xeeeeeeeeeeeeeeeeeeeeeeeeeeeeeeeeeeeeeeee",
                "decimals": 18
            }
        ]
    },
    "address_label": {
        "labels": [
            {
                "address": "0x0000000000000000000000000000000000000001",
                "label": "Precompiled"
            },
            {
                "address": "0x39053d51b77dc0d36036fc1fcc8cb819df8ef37a",
                "label": "EigenLayer: Delegation"
            },
            {
                "address": "0x83e9115d334d248ce39a6f36144aeab5b3456e75",
                "label": "EigenLayer: bEIGEN Token"
            },
            {
                "address": "0xb91c69af3ee022bd0a59da082945914bfdceffe3",
                "label": "BackingEigen"
            },
            {
                "address": "0x70f44c13944d49a236e3cd7a94f48f5dab6c619b",
                "label": "StrategyManager"
            },
            {
                "address": "0x1784be6401339fc0fedf7e9379409f5c1bfe9dda",
                "label": "DelegationManager"
            },
            {
                "address": "0x0000000000000000000000000000000000000003",
                "label": "Precompiled"
            },
            {
                "address": "0x27e7a3a81741b9fcc5ad7edcbf9f8a72a5c00428",
                "label": "EigenStrategy"
            },
            {
                "address": "0xeeeeeeeeeeeeeeeeeeeeeeeeeeeeeeeeeeeeeeee",
                "label": "Ether"
            },
            {
                "address": "0xec53bf9167f50cdeb3ae105f56099aaab9061f83",
                "label": "EigenLayer: EIGEN Token"
            },
            {
                "address": "0x858646372cc42e1a627fce94aa7a7033e7cf075a",
                "label": "EigenLayer: Strategy Manager"
            },
            {
                "address": "0x0000000000000000000000000000000000000004",
                "label": "Precompiled"
            },
            {
                "address": "0xacb55c530acdb2849e6d4f36992cd8c9d50ed8f7",
                "label": "TransparentUpgradeableProxy"
            },
            {
                "address": "0x7ec354c84680112d3cff1544ec1eb19ca583700b",
                "label": "Eigen"
            },
            {
                "address": "0x0000000000000000000000000000000000000002",
                "label": "Precompiled"
            }
        ]
    },
    "trace": {
        "accountLabels": null,
        "dataMap": {
            "-1": {
                "invocation": {
                    "address": "0x3ad97f37724cbd226d205ba63ab64bd04182fbbb",
                    "callData": "",
                    "decodedMethod": null,
                    "errorInfo": "",
                    "fromAddress": "",
                    "gasUsed": 0,
                    "id": -1,
                    "methodDecoded": false,
                    "operation": "",
                    "output": "",
                    "revert": false,
                    "revertMessage": "",
                    "selector": "",
                    "status": false,
                    "value": ""
                },
                "nodeType": 0
            },
            "0": {
                "invocation": {
                    "address": "0x858646372cc42e1a627fce94aa7a7033e7cf075a",
                    "callData": "0x000000000000000000000000acb55c530acdb2849e6d4f36992cd8c9d50ed8f7000000000000000000000000ec53bf9167f50cdeb3ae105f56099aaab9061f83000000000000000000000000000000000000000000000005f68e8131ecf80000",
                    "decodedMethod": {
                        "callParams": [
                            {
                                "name": "strategy",
                                "type": "address",
                                "value": "0xacb55c530acdb2849e6d4f36992cd8c9d50ed8f7"
                            },
                            {
                                "name": "token",
                                "type": "address",
                                "value": "0xec53bf9167f50cdeb3ae105f56099aaab9061f83"
                            },
                            {
                                "name": "amount",
                                "type": "uint256",
                                "value": "110,000,000,000,000,000,000"
                            }
                        ],
                        "constructorArguments": "",
                        "name": "depositIntoStrategy",
                        "returnParams": [
                            {
                                "name": "shares",
                                "type": "uint256",
                                "value": "110,000,000,000,000,000,000"
                            }
                        ],
                        "signature": "depositIntoStrategy(address,address,uint256)"
                    },
                    "errorInfo": "",
                    "fromAddress": "0x3ad97f37724cbd226d205ba63ab64bd04182fbbb",
                    "gasUsed": 217332,
                    "id": 0,
                    "methodDecoded": true,
                    "operation": "CALL",
                    "output": "0x000000000000000000000000000000000000000000000005f68e8131ecf80000",
                    "revert": false,
                    "revertMessage": "",
                    "selector": "0xe7a050aa",
                    "status": true,
                    "value": "0"
                },
                "nodeType": 0
            },
            "1": {
                "invocation": {
                    "address": "0x70f44c13944d49a236e3cd7a94f48f5dab6c619b",
                    "callData": "0x000000000000000000000000acb55c530acdb2849e6d4f36992cd8c9d50ed8f7000000000000000000000000ec53bf9167f50cdeb3ae105f56099aaab9061f83000000000000000000000000000000000000000000000005f68e8131ecf80000",
                    "decodedMethod": {
                        "callParams": [
                            {
                                "name": "strategy",
                                "type": "address",
                                "value": "0xacb55c530acdb2849e6d4f36992cd8c9d50ed8f7"
                            },
                            {
                                "name": "token",
                                "type": "address",
                                "value": "0xec53bf9167f50cdeb3ae105f56099aaab9061f83"
                            },
                            {
                                "name": "amount",
                                "type": "uint256",
                                "value": "110,000,000,000,000,000,000"
                            }
                        ],
                        "constructorArguments": "",
                        "name": "depositIntoStrategy",
                        "returnParams": [
                            {
                                "name": "shares",
                                "type": "uint256",
                                "value": "110,000,000,000,000,000,000"
                            }
                        ],
                        "signature": "depositIntoStrategy(address,address,uint256)"
                    },
                    "errorInfo": "",
                    "fromAddress": "0x858646372cc42e1a627fce94aa7a7033e7cf075a",
                    "gasUsed": 220292,
                    "id": 1,
                    "methodDecoded": true,
                    "operation": "DELEGATECALL",
                    "output": "0x000000000000000000000000000000000000000000000005f68e8131ecf80000",
                    "revert": false,
                    "revertMessage": "",
                    "selector": "0xe7a050aa",
                    "status": true,
                    "value": "0"
                },
                "nodeType": 0
            },
            "10": {
                "event": {
                    "contract": "0xec53bf9167f50cdeb3ae105f56099aaab9061f83",
                    "decodedLog": {
                        "name": "Transfer",
                        "params": [
                            {
                                "name": "from",
                                "type": "address",
                                "value": "0xacb55c530acdb2849e6d4f36992cd8c9d50ed8f7"
                            },
                            {
                                "name": "to",
                                "type": "address",
                                "value": "0xec53bf9167f50cdeb3ae105f56099aaab9061f83"
                            },
                            {
                                "decimalAvailable": true,
                                "name": "value",
                                "type": "uint256",
                                "value": "110,000,000,000,000,000,000"
                            }
                        ],
                        "signature": "Transfer(address,address,uint256)"
                    },
                    "id": 10,
                    "logData": "0x000000000000000000000000000000000000000000000005f68e8131ecf80000",
                    "logDecoded": true,
                    "operation": "EVENT",
                    "revert": false,
                    "status": true,
                    "topics": [
                        "0xddf252ad1be2c89b69c2b068fc378daa952ba7f163c4a11628f55a4df523b3ef",
                        "0x000000000000000000000000acb55c530acdb2849e6d4f36992cd8c9d50ed8f7",
                        "0x000000000000000000000000ec53bf9167f50cdeb3ae105f56099aaab9061f83"
                    ]
                },
                "nodeType": 1
            },
            "11": {
                "invocation": {
                    "address": "0x83e9115d334d248ce39a6f36144aeab5b3456e75",
                    "callData": "0x000000000000000000000000acb55c530acdb2849e6d4f36992cd8c9d50ed8f7000000000000000000000000000000000000000000000005f68e8131ecf80000",
                    "decodedMethod": {
                        "callParams": [
                            {
                                "name": "to",
                                "type": "address",
                                "value": "0xacb55c530acdb2849e6d4f36992cd8c9d50ed8f7"
                            },
                            {
                                "decimalAvailable": true,
                                "name": "amount",
                                "type": "uint256",
                                "value": "110,000,000,000,000,000,000"
                            }
                        ],
                        "constructorArguments": "",
                        "name": "transfer",
                        "returnParams": [
                            {
                                "name": "",
                                "type": "bool",
                                "value": true
                            }
                        ],
                        "signature": "transfer(address,uint256)"
                    },
                    "errorInfo": "",
                    "fromAddress": "0xec53bf9167f50cdeb3ae105f56099aaab9061f83",
                    "gasUsed": 28863,
                    "id": 11,
                    "methodDecoded": true,
                    "operation": "CALL",
                    "output": "0x0000000000000000000000000000000000000000000000000000000000000001",
                    "revert": false,
                    "revertMessage": "",
                    "selector": "0xa9059cbb",
                    "status": true,
                    "value": "0"
                },
                "nodeType": 0
            },
            "12": {
                "invocation": {
                    "address": "0xb91c69af3ee022bd0a59da082945914bfdceffe3",
                    "callData": "0x000000000000000000000000acb55c530acdb2849e6d4f36992cd8c9d50ed8f7000000000000000000000000000000000000000000000005f68e8131ecf80000",
                    "decodedMethod": {
                        "callParams": [
                            {
                                "name": "to",
                                "type": "address",
                                "value": "0xacb55c530acdb2849e6d4f36992cd8c9d50ed8f7"
                            },
                            {
                                "decimalAvailable": true,
                                "name": "amount",
                                "type": "uint256",
                                "value": "110,000,000,000,000,000,000"
                            }
                        ],
                        "constructorArguments": "",
                        "name": "transfer",
                        "returnParams": [
                            {
                                "name": "",
                                "type": "bool",
                                "value": true
                            }
                        ],
                        "signature": "transfer(address,uint256)"
                    },
                    "errorInfo": "",
                    "fromAddress": "0x83e9115d334d248ce39a6f36144aeab5b3456e75",
                    "gasUsed": 21700,
                    "id": 12,
                    "methodDecoded": true,
                    "operation": "DELEGATECALL",
                    "output": "0x0000000000000000000000000000000000000000000000000000000000000001",
                    "revert": false,
                    "revertMessage": "",
                    "selector": "0xa9059cbb",
                    "status": true,
                    "value": "0"
                },
                "nodeType": 0
            },
            "13": {
                "event": {
                    "contract": "0x83e9115d334d248ce39a6f36144aeab5b3456e75",
                    "decodedLog": {
                        "name": "Transfer",
                        "params": [
                            {
                                "name": "from",
                                "type": "address",
                                "value": "0xec53bf9167f50cdeb3ae105f56099aaab9061f83"
                            },
                            {
                                "name": "to",
                                "type": "address",
                                "value": "0xacb55c530acdb2849e6d4f36992cd8c9d50ed8f7"
                            },
                            {
                                "decimalAvailable": true,
                                "name": "value",
                                "type": "uint256",
                                "value": "110,000,000,000,000,000,000"
                            }
                        ],
                        "signature": "Transfer(address,address,uint256)"
                    },
                    "id": 13,
                    "logData": "0x000000000000000000000000000000000000000000000005f68e8131ecf80000",
                    "logDecoded": true,
                    "operation": "EVENT",
                    "revert": false,
                    "status": true,
                    "topics": [
                        "0xddf252ad1be2c89b69c2b068fc378daa952ba7f163c4a11628f55a4df523b3ef",
                        "0x000000000000000000000000ec53bf9167f50cdeb3ae105f56099aaab9061f83",
                        "0x000000000000000000000000acb55c530acdb2849e6d4f36992cd8c9d50ed8f7"
                    ]
                },
                "nodeType": 1
            },
            "14": {
                "invocation": {
                    "address": "0x83e9115d334d248ce39a6f36144aeab5b3456e75",
                    "callData": "0x000000000000000000000000acb55c530acdb2849e6d4f36992cd8c9d50ed8f7",
                    "decodedMethod": {
                        "callParams": [
                            {
                                "name": "account",
                                "type": "address",
                                "value": "0xacb55c530acdb2849e6d4f36992cd8c9d50ed8f7"
                            }
                        ],
                        "constructorArguments": "",
                        "name": "balanceOf",
                        "returnParams": [
                            {
                                "decimalAvailable": true,
                                "name": "",
                                "type": "uint256",
                                "value": "12,284,154,382,391,360,561,766,385"
                            }
                        ],
                        "signature": "balanceOf(address)"
                    },
                    "errorInfo": "",
                    "fromAddress": "0xacb55c530acdb2849e6d4f36992cd8c9d50ed8f7",
                    "gasUsed": 1264,
                    "id": 14,
                    "methodDecoded": true,
                    "operation": "STATICCALL",
                    "output": "0x0000000000000000000000000000000000000000000a294557ead1a3d31e5ff1",
                    "revert": false,
                    "revertMessage": "",
                    "selector": "0x70a08231",
                    "status": true,
                    "value": "0"
                },
                "nodeType": 0
            },
            "15": {
                "invocation": {
                    "address": "0xb91c69af3ee022bd0a59da082945914bfdceffe3",
                    "callData": "0x000000000000000000000000acb55c530acdb2849e6d4f36992cd8c9d50ed8f7",
                    "decodedMethod": {
                        "callParams": [
                            {
                                "name": "account",
                                "type": "address",
                                "value": "0xacb55c530acdb2849e6d4f36992cd8c9d50ed8f7"
                            }
                        ],
                        "constructorArguments": "",
                        "name": "balanceOf",
                        "returnParams": [
                            {
                                "decimalAvailable": true,
                                "name": "",
                                "type": "uint256",
                                "value": "12,284,154,382,391,360,561,766,385"
                            }
                        ],
                        "signature": "balanceOf(address)"
                    },
                    "errorInfo": "",
                    "fromAddress": "0x83e9115d334d248ce39a6f36144aeab5b3456e75",
                    "gasUsed": 604,
                    "id": 15,
                    "methodDecoded": true,
                    "operation": "DELEGATECALL",
                    "output": "0x0000000000000000000000000000000000000000000a294557ead1a3d31e5ff1",
                    "revert": false,
                    "revertMessage": "",
                    "selector": "0x70a08231",
                    "status": true,
                    "value": "0"
                },
                "nodeType": 0
            },
            "16": {
                "event": {
                    "contract": "0x858646372cc42e1a627fce94aa7a7033e7cf075a",
                    "decodedLog": {
                        "name": "Deposit",
                        "params": [
                            {
                                "name": "staker",
                                "type": "address",
                                "value": "0x3ad97f37724cbd226d205ba63ab64bd04182fbbb"
                            },
                            {
                                "name": "token",
                                "type": "address",
                                "value": "0xec53bf9167f50cdeb3ae105f56099aaab9061f83"
                            },
                            {
                                "name": "strategy",
                                "type": "address",
                                "value": "0xacb55c530acdb2849e6d4f36992cd8c9d50ed8f7"
                            },
                            {
                                "name": "shares",
                                "type": "uint256",
                                "value": "110,000,000,000,000,000,000"
                            }
                        ],
                        "signature": "Deposit(address,address,address,uint256)"
                    },
                    "id": 16,
                    "logData": "0x0000000000000000000000003ad97f37724cbd226d205ba63ab64bd04182fbbb000000000000000000000000ec53bf9167f50cdeb3ae105f56099aaab9061f83000000000000000000000000acb55c530acdb2849e6d4f36992cd8c9d50ed8f7000000000000000000000000000000000000000000000005f68e8131ecf80000",
                    "logDecoded": true,
                    "operation": "EVENT",
                    "revert": false,
                    "status": true,
                    "topics": [
                        "0x7cfff908a4b583f36430b25d75964c458d8ede8a99bd61be750e97ee1b2f3a96"
                    ]
                },
                "nodeType": 1
            },
            "17": {
                "invocation": {
                    "address": "0x39053d51b77dc0d36036fc1fcc8cb819df8ef37a",
                    "callData": "0x0000000000000000000000003ad97f37724cbd226d205ba63ab64bd04182fbbb000000000000000000000000acb55c530acdb2849e6d4f36992cd8c9d50ed8f7000000000000000000000000000000000000000000000005f68e8131ecf80000",
                    "decodedMethod": {
                        "callParams": [
                            {
                                "name": "staker",
                                "type": "address",
                                "value": "0x3ad97f37724cbd226d205ba63ab64bd04182fbbb"
                            },
                            {
                                "name": "strategy",
                                "type": "address",
                                "value": "0xacb55c530acdb2849e6d4f36992cd8c9d50ed8f7"
                            },
                            {
                                "name": "shares",
                                "type": "uint256",
                                "value": "110,000,000,000,000,000,000"
                            }
                        ],
                        "constructorArguments": "",
                        "name": "increaseDelegatedShares",
                        "returnParams": [],
                        "signature": "increaseDelegatedShares(address,address,uint256)"
                    },
                    "errorInfo": "",
                    "fromAddress": "0x858646372cc42e1a627fce94aa7a7033e7cf075a",
                    "gasUsed": 10187,
                    "id": 17,
                    "methodDecoded": true,
                    "operation": "CALL",
                    "output": "",
                    "revert": false,
                    "revertMessage": "",
                    "selector": "0x28a573ae",
                    "status": true,
                    "value": "0"
                },
                "nodeType": 0
            },
            "18": {
                "invocation": {
                    "address": "0x1784be6401339fc0fedf7e9379409f5c1bfe9dda",
                    "callData": "0x0000000000000000000000003ad97f37724cbd226d205ba63ab64bd04182fbbb000000000000000000000000acb55c530acdb2849e6d4f36992cd8c9d50ed8f7000000000000000000000000000000000000000000000005f68e8131ecf80000",
                    "decodedMethod": {
                        "callParams": [
                            {
                                "name": "staker",
                                "type": "address",
                                "value": "0x3ad97f37724cbd226d205ba63ab64bd04182fbbb"
                            },
                            {
                                "name": "strategy",
                                "type": "address",
                                "value": "0xacb55c530acdb2849e6d4f36992cd8c9d50ed8f7"
                            },
                            {
                                "name": "shares",
                                "type": "uint256",
                                "value": "110,000,000,000,000,000,000"
                            }
                        ],
                        "constructorArguments": "",
                        "name": "increaseDelegatedShares",
                        "returnParams": [],
                        "signature": "increaseDelegatedShares(address,address,uint256)"
                    },
                    "errorInfo": "",
                    "fromAddress": "0x39053d51b77dc0d36036fc1fcc8cb819df8ef37a",
                    "gasUsed": 2862,
                    "id": 18,
                    "methodDecoded": true,
                    "operation": "DELEGATECALL",
                    "output": "",
                    "revert": false,
                    "revertMessage": "",
                    "selector": "0x28a573ae",
                    "status": true,
                    "value": "0"
                },
                "nodeType": 0
            },
            "2": {
                "invocation": {
                    "address": "0xec53bf9167f50cdeb3ae105f56099aaab9061f83",
                    "callData": "0x0000000000000000000000003ad97f37724cbd226d205ba63ab64bd04182fbbb000000000000000000000000acb55c530acdb2849e6d4f36992cd8c9d50ed8f7000000000000000000000000000000000000000000000005f68e8131ecf80000",
                    "decodedMethod": {
                        "callParams": [
                            {
                                "name": "from",
                                "type": "address",
                                "value": "0x3ad97f37724cbd226d205ba63ab64bd04182fbbb"
                            },
                            {
                                "name": "to",
                                "type": "address",
                                "value": "0xacb55c530acdb2849e6d4f36992cd8c9d50ed8f7"
                            },
                            {
                                "decimalAvailable": true,
                                "name": "amount",
                                "type": "uint256",
                                "value": "110,000,000,000,000,000,000"
                            }
                        ],
                        "constructorArguments": "",
                        "name": "transferFrom",
                        "returnParams": [
                            {
                                "name": "",
                                "type": "bool",
                                "value": true
                            }
                        ],
                        "signature": "transferFrom(address,address,uint256)"
                    },
                    "errorInfo": "",
                    "fromAddress": "0x858646372cc42e1a627fce94aa7a7033e7cf075a",
                    "gasUsed": 55706,
                    "id": 2,
                    "methodDecoded": true,
                    "operation": "CALL",
                    "output": "0x0000000000000000000000000000000000000000000000000000000000000001",
                    "revert": false,
                    "revertMessage": "",
                    "selector": "0x23b872dd",
                    "status": true,
                    "value": "0"
                },
                "nodeType": 0
            },
            "3": {
                "invocation": {
                    "address": "0x7ec354c84680112d3cff1544ec1eb19ca583700b",
                    "callData": "0x0000000000000000000000003ad97f37724cbd226d205ba63ab64bd04182fbbb000000000000000000000000acb55c530acdb2849e6d4f36992cd8c9d50ed8f7000000000000000000000000000000000000000000000005f68e8131ecf80000",
                    "decodedMethod": {
                        "callParams": [
                            {
                                "name": "from",
                                "type": "address",
                                "value": "0x3ad97f37724cbd226d205ba63ab64bd04182fbbb"
                            },
                            {
                                "name": "to",
                                "type": "address",
                                "value": "0xacb55c530acdb2849e6d4f36992cd8c9d50ed8f7"
                            },
                            {
                                "decimalAvailable": true,
                                "name": "amount",
                                "type": "uint256",
                                "value": "110,000,000,000,000,000,000"
                            }
                        ],
                        "constructorArguments": "",
                        "name": "transferFrom",
                        "returnParams": [
                            {
                                "name": "",
                                "type": "bool",
                                "value": true
                            }
                        ],
                        "signature": "transferFrom(address,address,uint256)"
                    },
                    "errorInfo": "",
                    "fromAddress": "0xec53bf9167f50cdeb3ae105f56099aaab9061f83",
                    "gasUsed": 48558,
                    "id": 3,
                    "methodDecoded": true,
                    "operation": "DELEGATECALL",
                    "output": "0x0000000000000000000000000000000000000000000000000000000000000001",
                    "revert": false,
                    "revertMessage": "",
                    "selector": "0x23b872dd",
                    "status": true,
                    "value": "0"
                },
                "nodeType": 0
            },
            "4": {
                "event": {
                    "contract": "0xec53bf9167f50cdeb3ae105f56099aaab9061f83",
                    "decodedLog": {
                        "name": "Approval",
                        "params": [
                            {
                                "name": "owner",
                                "type": "address",
                                "value": "0x3ad97f37724cbd226d205ba63ab64bd04182fbbb"
                            },
                            {
                                "name": "spender",
                                "type": "address",
                                "value": "0x858646372cc42e1a627fce94aa7a7033e7cf075a"
                            },
                            {
                                "decimalAvailable": true,
                                "name": "value",
                                "type": "uint256",
                                "value": "0"
                            }
                        ],
                        "signature": "Approval(address,address,uint256)"
                    },
                    "id": 4,
                    "logData": "0x0000000000000000000000000000000000000000000000000000000000000000",
                    "logDecoded": true,
                    "operation": "EVENT",
                    "revert": false,
                    "status": true,
                    "topics": [
                        "0x8c5be1e5ebec7d5bd14f71427d1e84f3dd0314c0f7b2291e5b200ac8c7c3b925",
                        "0x0000000000000000000000003ad97f37724cbd226d205ba63ab64bd04182fbbb",
                        "0x000000000000000000000000858646372cc42e1a627fce94aa7a7033e7cf075a"
                    ]
                },
                "nodeType": 1
            },
            "5": {
                "event": {
                    "contract": "0xec53bf9167f50cdeb3ae105f56099aaab9061f83",
                    "decodedLog": {
                        "name": "Transfer",
                        "params": [
                            {
                                "name": "from",
                                "type": "address",
                                "value": "0x3ad97f37724cbd226d205ba63ab64bd04182fbbb"
                            },
                            {
                                "name": "to",
                                "type": "address",
                                "value": "0xacb55c530acdb2849e6d4f36992cd8c9d50ed8f7"
                            },
                            {
                                "decimalAvailable": true,
                                "name": "value",
                                "type": "uint256",
                                "value": "110,000,000,000,000,000,000"
                            }
                        ],
                        "signature": "Transfer(address,address,uint256)"
                    },
                    "id": 5,
                    "logData": "0x000000000000000000000000000000000000000000000005f68e8131ecf80000",
                    "logDecoded": true,
                    "operation": "EVENT",
                    "revert": false,
                    "status": true,
                    "topics": [
                        "0xddf252ad1be2c89b69c2b068fc378daa952ba7f163c4a11628f55a4df523b3ef",
                        "0x0000000000000000000000003ad97f37724cbd226d205ba63ab64bd04182fbbb",
                        "0x000000000000000000000000acb55c530acdb2849e6d4f36992cd8c9d50ed8f7"
                    ]
                },
                "nodeType": 1
            },
            "6": {
                "invocation": {
                    "address": "0xacb55c530acdb2849e6d4f36992cd8c9d50ed8f7",
                    "callData": "0x000000000000000000000000ec53bf9167f50cdeb3ae105f56099aaab9061f83000000000000000000000000000000000000000000000005f68e8131ecf80000",
                    "decodedMethod": {
                        "callParams": [
                            {
                                "name": "token",
                                "type": "address",
                                "value": "0xec53bf9167f50cdeb3ae105f56099aaab9061f83"
                            },
                            {
                                "name": "amount",
                                "type": "uint256",
                                "value": "110,000,000,000,000,000,000"
                            }
                        ],
                        "constructorArguments": "",
                        "name": "deposit",
                        "returnParams": [
                            {
                                "name": "newShares",
                                "type": "uint256",
                                "value": "110,000,000,000,000,000,000"
                            }
                        ],
                        "signature": "deposit(address,uint256)"
                    },
                    "errorInfo": "",
                    "fromAddress": "0x858646372cc42e1a627fce94aa7a7033e7cf075a",
                    "gasUsed": 65017,
                    "id": 6,
                    "methodDecoded": true,
                    "operation": "CALL",
                    "output": "0x000000000000000000000000000000000000000000000005f68e8131ecf80000",
                    "revert": false,
                    "revertMessage": "",
                    "selector": "0x47e7ef24",
                    "status": true,
                    "value": "0"
                },
                "nodeType": 0
            },
            "7": {
                "invocation": {
                    "address": "0x27e7a3a81741b9fcc5ad7edcbf9f8a72a5c00428",
                    "callData": "0x000000000000000000000000ec53bf9167f50cdeb3ae105f56099aaab9061f83000000000000000000000000000000000000000000000005f68e8131ecf80000",
                    "decodedMethod": {
                        "callParams": [
                            {
                                "name": "token",
                                "type": "address",
                                "value": "0xec53bf9167f50cdeb3ae105f56099aaab9061f83"
                            },
                            {
                                "name": "amount",
                                "type": "uint256",
                                "value": "110,000,000,000,000,000,000"
                            }
                        ],
                        "constructorArguments": "",
                        "name": "deposit",
                        "returnParams": [
                            {
                                "name": "newShares",
                                "type": "uint256",
                                "value": "110,000,000,000,000,000,000"
                            }
                        ],
                        "signature": "deposit(address,uint256)"
                    },
                    "errorInfo": "",
                    "fromAddress": "0xacb55c530acdb2849e6d4f36992cd8c9d50ed8f7",
                    "gasUsed": 57854,
                    "id": 7,
                    "methodDecoded": true,
                    "operation": "DELEGATECALL",
                    "output": "0x000000000000000000000000000000000000000000000005f68e8131ecf80000",
                    "revert": false,
                    "revertMessage": "",
                    "selector": "0x47e7ef24",
                    "status": true,
                    "value": "0"
                },
                "nodeType": 0
            },
            "8": {
                "invocation": {
                    "address": "0xec53bf9167f50cdeb3ae105f56099aaab9061f83",
                    "callData": "0x000000000000000000000000000000000000000000000005f68e8131ecf80000",
                    "decodedMethod": {
                        "callParams": [
                            {
                                "name": "amount",
                                "type": "uint256",
                                "value": "110,000,000,000,000,000,000"
                            }
                        ],
                        "constructorArguments": "",
                        "name": "unwrap",
                        "returnParams": [],
                        "signature": "unwrap(uint256)"
                    },
                    "errorInfo": "",
                    "fromAddress": "0xacb55c530acdb2849e6d4f36992cd8c9d50ed8f7",
                    "gasUsed": 43042,
                    "id": 8,
                    "methodDecoded": true,
                    "operation": "CALL",
                    "output": "",
                    "revert": false,
                    "revertMessage": "",
                    "selector": "0xde0e9a3e",
                    "status": true,
                    "value": "0"
                },
                "nodeType": 0
            },
            "9": {
                "invocation": {
                    "address": "0x7ec354c84680112d3cff1544ec1eb19ca583700b",
                    "callData": "0x000000000000000000000000000000000000000000000005f68e8131ecf80000",
                    "decodedMethod": {
                        "callParams": [
                            {
                                "name": "amount",
                                "type": "uint256",
                                "value": "110,000,000,000,000,000,000"
                            }
                        ],
                        "constructorArguments": "",
                        "name": "unwrap",
                        "returnParams": [],
                        "signature": "unwrap(uint256)"
                    },
                    "errorInfo": "",
                    "fromAddress": "0xec53bf9167f50cdeb3ae105f56099aaab9061f83",
                    "gasUsed": 42406,
                    "id": 9,
                    "methodDecoded": true,
                    "operation": "DELEGATECALL",
                    "output": "",
                    "revert": false,
                    "revertMessage": "",
                    "selector": "0xde0e9a3e",
                    "status": true,
                    "value": "0"
                },
                "nodeType": 0
            }
        },
        "gasFlame": [
            {
                "children": [
                    {
                        "children": [
                            {
                                "children": [],
                                "depth": 0,
                                "name": "Initial Gas",
                                "value": 22012
                            },
                            {
                                "children": [
                                    {
                                        "children": [
                                            {
                                                "children": [
                                                    {
                                                        "children": [],
                                                        "depth": 3,
                                                        "name": "transferFrom",
                                                        "value": 48558
                                                    }
                                                ],
                                                "depth": 2,
                                                "name": "transferFrom",
                                                "value": 55706
                                            },
                                            {
                                                "children": [
                                                    {
                                                        "children": [
                                                            {
                                                                "children": [
                                                                    {
                                                                        "children": [
                                                                            {
                                                                                "children": [
                                                                                    {
                                                                                        "children": [],
                                                                                        "depth": 7,
                                                                                        "name": "transfer",
                                                                                        "value": 21700
                                                                                    }
                                                                                ],
                                                                                "depth": 6,
                                                                                "name": "transfer",
                                                                                "value": 28863
                                                                            }
                                                                        ],
                                                                        "depth": 5,
                                                                        "name": "unwrap",
                                                                        "value": 42406
                                                                    }
                                                                ],
                                                                "depth": 4,
                                                                "name": "unwrap",
                                                                "value": 43042
                                                            },
                                                            {
                                                                "children": [
                                                                    {
                                                                        "children": [],
                                                                        "depth": 5,
                                                                        "name": "balanceOf",
                                                                        "value": 604
                                                                    }
                                                                ],
                                                                "depth": 4,
                                                                "name": "balanceOf",
                                                                "value": 1264
                                                            }
                                                        ],
                                                        "depth": 3,
                                                        "name": "deposit",
                                                        "value": 57854
                                                    }
                                                ],
                                                "depth": 2,
                                                "name": "deposit",
                                                "value": 65017
                                            },
                                            {
                                                "children": [
                                                    {
                                                        "children": [],
                                                        "depth": 3,
                                                        "name": "increaseDelegatedShares",
                                                        "value": 2862
                                                    }
                                                ],
                                                "depth": 2,
                                                "name": "increaseDelegatedShares",
                                                "value": 10187
                                            }
                                        ],
                                        "depth": 1,
                                        "name": "depositIntoStrategy",
                                        "value": 220292
                                    }
                                ],
                                "depth": 0,
                                "name": "Executed Gas",
                                "value": 227620
                            }
                        ],
                        "depth": -1,
                        "name": "Actual Gas Used",
                        "value": 217332
                    },
                    {
                        "children": [],
                        "depth": -1,
                        "name": "Refunded Gas",
                        "value": 32300
                    }
                ],
                "depth": -2,
                "name": "Total Gas",
                "value": 249632
            }
        ],
        "isConfirmed": true,
        "mainTrace": [
            {
                "children": [
                    {
                        "children": [
                            {
                                "children": [
                                    {
                                        "children": [
                                            {
                                                "children": [
                                                    {
                                                        "children": [],
                                                        "depth": 4,
                                                        "id": 4,
                                                        "order": 4
                                                    },
                                                    {
                                                        "children": [],
                                                        "depth": 4,
                                                        "id": 5,
                                                        "order": 5
                                                    }
                                                ],
                                                "depth": 3,
                                                "id": 3,
                                                "order": 3
                                            }
                                        ],
                                        "depth": 2,
                                        "id": 2,
                                        "order": 2
                                    },
                                    {
                                        "children": [
                                            {
                                                "children": [
                                                    {
                                                        "children": [
                                                            {
                                                                "children": [
                                                                    {
                                                                        "children": [],
                                                                        "depth": 6,
                                                                        "id": 10,
                                                                        "order": 10
                                                                    },
                                                                    {
                                                                        "children": [
                                                                            {
                                                                                "children": [
                                                                                    {
                                                                                        "children": [],
                                                                                        "depth": 8,
                                                                                        "id": 13,
                                                                                        "order": 13
                                                                                    }
                                                                                ],
                                                                                "depth": 7,
                                                                                "id": 12,
                                                                                "order": 12
                                                                            }
                                                                        ],
                                                                        "depth": 6,
                                                                        "id": 11,
                                                                        "order": 11
                                                                    }
                                                                ],
                                                                "depth": 5,
                                                                "id": 9,
                                                                "order": 9
                                                            }
                                                        ],
                                                        "depth": 4,
                                                        "id": 8,
                                                        "order": 8
                                                    },
                                                    {
                                                        "children": [
                                                            {
                                                                "children": [],
                                                                "depth": 5,
                                                                "id": 15,
                                                                "order": 15
                                                            }
                                                        ],
                                                        "depth": 4,
                                                        "id": 14,
                                                        "order": 14
                                                    }
                                                ],
                                                "depth": 3,
                                                "id": 7,
                                                "order": 7
                                            }
                                        ],
                                        "depth": 2,
                                        "id": 6,
                                        "order": 6
                                    },
                                    {
                                        "children": [],
                                        "depth": 2,
                                        "id": 16,
                                        "order": 16
                                    },
                                    {
                                        "children": [
                                            {
                                                "children": [],
                                                "depth": 3,
                                                "id": 18,
                                                "order": 18
                                            }
                                        ],
                                        "depth": 2,
                                        "id": 17,
                                        "order": 17
                                    }
                                ],
                                "depth": 1,
                                "id": 1,
                                "order": 1
                            }
                        ],
                        "depth": 0,
                        "id": 0,
                        "order": 0
                    }
                ],
                "depth": -1,
                "id": -1,
                "order": -1
            }
        ],
        "mainTraceNodeCount": 19,
        "parentIdMap": {
            "0": -1,
            "1": 0,
            "10": 9,
            "11": 9,
            "12": 11,
            "13": 12,
            "14": 7,
            "15": 14,
            "16": 1,
            "17": 1,
            "18": 17,
            "2": 1,
            "3": 2,
            "4": 3,
            "5": 3,
            "6": 1,
            "7": 6,
            "8": 7,
            "9": 8
        },
        "tidyTrace": [
            {
                "children": [
                    {
                        "children": [
                            {
                                "children": [
                                    {
                                        "children": [
                                            {
                                                "children": [
                                                    {
                                                        "children": [],
                                                        "depth": 4,
                                                        "id": 4,
                                                        "order": 4
                                                    },
                                                    {
                                                        "children": [],
                                                        "depth": 4,
                                                        "id": 5,
                                                        "order": 5
                                                    }
                                                ],
                                                "depth": 3,
                                                "id": 3,
                                                "order": 3
                                            }
                                        ],
                                        "depth": 2,
                                        "id": 2,
                                        "order": 2
                                    },
                                    {
                                        "children": [
                                            {
                                                "children": [
                                                    {
                                                        "children": [
                                                            {
                                                                "children": [
                                                                    {
                                                                        "children": [],
                                                                        "depth": 6,
                                                                        "id": 10,
                                                                        "order": 10
                                                                    },
                                                                    {
                                                                        "children": [
                                                                            {
                                                                                "children": [
                                                                                    {
                                                                                        "children": [],
                                                                                        "depth": 8,
                                                                                        "id": 13,
                                                                                        "order": 13
                                                                                    }
                                                                                ],
                                                                                "depth": 7,
                                                                                "id": 12,
                                                                                "order": 12
                                                                            }
                                                                        ],
                                                                        "depth": 6,
                                                                        "id": 11,
                                                                        "order": 11
                                                                    }
                                                                ],
                                                                "depth": 5,
                                                                "id": 9,
                                                                "order": 9
                                                            }
                                                        ],
                                                        "depth": 4,
                                                        "id": 8,
                                                        "order": 8
                                                    }
                                                ],
                                                "depth": 3,
                                                "id": 7,
                                                "order": 7
                                            }
                                        ],
                                        "depth": 2,
                                        "id": 6,
                                        "order": 6
                                    },
                                    {
                                        "children": [],
                                        "depth": 2,
                                        "id": 16,
                                        "order": 16
                                    },
                                    {
                                        "children": [
                                            {
                                                "children": [],
                                                "depth": 3,
                                                "id": 18,
                                                "order": 18
                                            }
                                        ],
                                        "depth": 2,
                                        "id": 17,
                                        "order": 17
                                    }
                                ],
                                "depth": 1,
                                "id": 1,
                                "order": 1
                            }
                        ],
                        "depth": 0,
                        "id": 0,
                        "order": 0
                    }
                ],
                "depth": -1,
                "id": -1,
                "order": -1
            }
        ],
        "tidyTraceNodeCount": 17
    },
    "state_change": {
        "stateChanges": [
            {
                "address": "0x83e9115d334d248ce39a6f36144aeab5b3456e75",
                "erc": "ERC-20",
                "slots": [
                    {
                        "current": "0x0000000000000000000000000000000000000000000a294557ead1a3d31e5ff1",
                        "key": "0x560f198f2783a5232fe2a4c12cef39272b002f0460dc804501994447a756e7df",
                        "prev": "0x0000000000000000000000000000000000000000000a293f615c5071e6265ff1"
                    },
                    {
                        "current": "0x0000000000000000000000000000000000000000055e3f3257cafa28ec54e00f",
                        "key": "0x8722c3f15c3ae7b3abfdd95231172f3e6b3b9a9889e80e4d63e3315f140a8816",
                        "prev": "0x0000000000000000000000000000000000000000055e3f384e597b5ad94ce00f"
                    }
                ],
                "storageVariables": [
                    {
                        "name": "_balances",
                        "type": "mapping(address => uint256)",
                        "value": {
                            "pairs": [
                                {
                                    "key": "0xacb55c530acdb2849e6d4f36992cd8c9d50ed8f7",
                                    "value": {
                                        "current": "12284154382391360561766385",
                                        "prev": "12284044382391360561766385",
                                        "typeTag": 1
                                    }
                                },
                                {
                                    "key": "0xec53bf9167f50cdeb3ae105f56099aaab9061f83",
                                    "value": {
                                        "current": "1661362513902268639438233615",
                                        "prev": "1661362623902268639438233615",
                                        "typeTag": 1
                                    }
                                }
                            ],
                            "typeTag": 4
                        }
                    }
                ]
            },
            {
                "address": "0x858646372cc42e1a627fce94aa7a7033e7cf075a",
                "erc": "",
                "slots": [
                    {
                        "current": "0x000000000000000000000000000000000000000000000005f68e8131ecf80000",
                        "key": "0x54810b539451ba9812c13c9871cb698b410d285de0cad32feef66475f311d2cc",
                        "prev": "0x0000000000000000000000000000000000000000000000000000000000000000"
                    },
                    {
                        "current": "0x0000000000000000000000000000000000000000000000000000000000000001",
                        "key": "0x0439116f92c8d6a2640b7069a9c8ae341eaa3ade33cea687d220355c714788d7",
                        "prev": "0x0000000000000000000000000000000000000000000000000000000000000000"
                    },
                    {
                        "current": "0x000000000000000000000000acb55c530acdb2849e6d4f36992cd8c9d50ed8f7",
                        "key": "0xc5a8905a186cbed8755528468ea6b38c07f24ec43919ad43b8b0e421286ec488",
                        "prev": "0x0000000000000000000000000000000000000000000000000000000000000000"
                    }
                ],
                "storageVariables": [
                    {
                        "name": "stakerStrategyShares",
                        "type": "mapping(address => mapping(contract IStrategy => uint256))",
                        "value": {
                            "pairs": [
                                {
                                    "key": "0x3ad97f37724cbd226d205ba63ab64bd04182fbbb",
                                    "value": {
                                        "pairs": [
                                            {
                                                "key": "0xacb55c530acdb2849e6d4f36992cd8c9d50ed8f7",
                                                "value": {
                                                    "current": "110000000000000000000",
                                                    "prev": "0",
                                                    "typeTag": 1
                                                }
                                            }
                                        ],
                                        "typeTag": 4
                                    }
                                }
                            ],
                            "typeTag": 4
                        }
                    },
                    {
                        "name": "stakerStrategyList",
                        "type": "mapping(address => contract IStrategy[])",
                        "value": {
                            "pairs": [
                                {
                                    "key": "0x3ad97f37724cbd226d205ba63ab64bd04182fbbb",
                                    "value": {
                                        "elemType": "contract IStrategy",
                                        "elems": [
                                            {
                                                "index": 0,
                                                "value": {
                                                    "current": "0xacb55c530acdb2849e6d4f36992cd8c9d50ed8f7",
                                                    "prev": "0x0000000000000000000000000000000000000000",
                                                    "typeTag": 1
                                                }
                                            }
                                        ],
                                        "typeTag": 2
                                    }
                                }
                            ],
                            "typeTag": 4
                        }
                    }
                ]
            },
            {
                "address": "0xacb55c530acdb2849e6d4f36992cd8c9d50ed8f7",
                "erc": "",
                "slots": [
                    {
                        "current": "0x0000000000000000000000000000000000000000000a294557ead1a3d31e5ff1",
                        "key": "0x0000000000000000000000000000000000000000000000000000000000000033",
                        "prev": "0x0000000000000000000000000000000000000000000a293f615c5071e6265ff1"
                    }
                ],
                "storageVariables": [
                    {
                        "name": "totalShares",
                        "type": "uint256",
                        "value": {
                            "current": "12284154382391360561766385",
                            "prev": "12284044382391360561766385",
                            "typeTag": 1
                        }
                    }
                ]
            },
            {
                "address": "0xec53bf9167f50cdeb3ae105f56099aaab9061f83",
                "erc": "ERC-20",
                "slots": [
                    {
                        "current": "0x0000000000000000000000000000000000000000000000000000000000000000",
                        "key": "0x9edf4b74999b0c93e8f7551a6687b35977a8d90165eda3a92522058832bb1a67",
                        "prev": "0x000000000000000000000000000000000000000000000005f68e8131ecf80000"
                    },
                    {
                        "current": "0x0000000000000000000000000000000000000000000000000000000000000000",
                        "key": "0xaffa089b54a72c1172c85f3da67f716a936e3e4d1f76de5bbfa0f4c64380d1d5",
                        "prev": "0x000000000000000000000000000000000000000000000005f68e8131ecf80000"
                    },
                    {
                        "current": "0x0000000000000000000000000000000000000000000a294557ead1a3d31e5ff1",
                        "key": "0x8722c3f15c3ae7b3abfdd95231172f3e6b3b9a9889e80e4d63e3315f140a8816",
                        "prev": "0x0000000000000000000000000000000000000000000a293f615c5071e6265ff1"
                    }
                ],
                "storageVariables": [
                    {
                        "name": "_allowances",
                        "type": "mapping(address => mapping(address => uint256))",
                        "value": {
                            "pairs": [
                                {
                                    "key": "0x3ad97f37724cbd226d205ba63ab64bd04182fbbb",
                                    "value": {
                                        "pairs": [
                                            {
                                                "key": "0x858646372cc42e1a627fce94aa7a7033e7cf075a",
                                                "value": {
                                                    "current": "0",
                                                    "prev": "110000000000000000000",
                                                    "typeTag": 1
                                                }
                                            }
                                        ],
                                        "typeTag": 4
                                    }
                                }
                            ],
                            "typeTag": 4
                        }
                    },
                    {
                        "name": "_balances",
                        "type": "mapping(address => uint256)",
                        "value": {
                            "pairs": [
                                {
                                    "key": "0x3ad97f37724cbd226d205ba63ab64bd04182fbbb",
                                    "value": {
                                        "current": "0",
                                        "prev": "110000000000000000000",
                                        "typeTag": 1
                                    }
                                },
                                {
                                    "key": "0xec53bf9167f50cdeb3ae105f56099aaab9061f83",
                                    "value": {
                                        "current": "12284154382391360561766385",
                                        "prev": "12284044382391360561766385",
                                        "typeTag": 1
                                    }
                                }
                            ],
                            "typeTag": 4
                        }
                    }
                ]
            }
        ]
    }
}