{
    "balance_change": {
        "balanceChanges": [
            {
                "account": "0x23a43595e8e95a40ea7090c618234fbf41f3d480",
                "assets": [
                    {
                        "address": "0xb7bbf6d2f5372022cc07b6677a9eb49ce78da8c3",
                        "amount": "55,555,555,556",
                        "iconUrl": "",
                        "isERC1155": false,
                        "isERC721": false,
                        "sign": false,
                        "value": ""
                    }
                ]
            },
            {
                "account": "0xef9dd814e3fece6576ff8f32d4266096a23f3d6d",
                "assets": [
                    {
                        "address": "0xb7bbf6d2f5372022cc07b6677a9eb49ce78da8c3",
                        "amount": "55,555,555,556",
                        "iconUrl": "",
                        "isERC1155": false,
                        "isERC721": false,
                        "sign": true,
                        "value": ""
                    }
                ]
            }
        ]
    },
    "profile": {
        "basic_info": {
            "baseFee": "",
            "blockNumber": 7060038,
            "callData": "0xa9059cbb000000000000000000000000ef9dd814e3fece6576ff8f32d4266096a23f3d6d0000000000000000000000000000000000000000000000000000000cef5e80e4",
            "debugEnable": true,
            "errorInfo": "",
            "eventCount": 1,
            "feeRecipient": "0x5a0b54d5dc17e0aadc383d2db43b0a0d3e029c4c",
            "formatValue": "0",
            "gasLimit": 100000,
            "gasPrice": "8",
            "gasUsed": 38183,
            "intTxnCount": 0,
            "internalRevert": false,
            "internalRevertMessage": "",
            "isContractCreation": false,
            "isFlashloan": false,
            "maxFee": "",
            "nonce": 895,
            "overwritedBlockNumber": -1,
            "priorityFee": "",
            "receiver": "0xb7bbf6d2f5372022cc07b6677a9eb49ce78da8c3",
            "revertMessage": "",
            "sender": "0x23a43595e8e95a40ea7090c618234fbf41f3d480",
            "simulationEnable": true,
            "sourceTxnHash": "0x087a70084fe1e50ffdf28574d0969c5ea280b52bab0c4592a0134be65c4066c3",
            "status": true,
            "timestamp": "2019-01-13T16:23:55Z",
            "transactionFee": "0.000305464",
            "txnHash": "0x087a70084fe1e50ffdf28574d0969c5ea280b52bab0c4592a0134be65c4066c3",
            "txnIndex": 38,
            "type": 0,
            "value": "0"
        },
        "fund_flow": [
            {
                "amount": "55,555,555,556",
                "from": "0x23a43595e8e95a40ea7090c618234fbf41f3d480",
                "id": 1,
                "isERC1155": false,
                "isERC721": false,
                "isReverted": false,
                "order": 1,
                "to": "0xef9dd814e3fece6576ff8f32d4266096a23f3d6d",
                "token": "0xb7bbf6d2f5372022cc07b6677a9eb49ce78da8c3"
            }
        ],
        "token_infos": [
            {
                "address": "0xc02aaa39b223fe8d0a0e5c4f27ead9083c756cc2",
                "decimals": 18
            },
            {
                "address": "0xeeeeeeeeeeeeeeeeeeeeeeeeeeeeeeeeeeeeeeee",
                "decimals": 18
            }
        ]
    },
    "address_label": {
        "labels": [
            {
                "address": "0xb7bbf6d2f5372022cc07b6677a9eb49ce78da8c3",
                "label": "FinCrypChain"
            },
            {
                "address": "0x0000000000000000000000000000000000000001",
                "label": "Precompiled"
            },
            {
                "address": "0x0000000000000000000000000000000000000002",
                "label": "Precompiled"
            },
            {
                "address": "0x0000000000000000000000000000000000000003",
                "label": "Precompiled"
            },
            {
                "address": "0x0000000000000000000000000000000000000004",
                "label": "Precompiled"
            },
            {
                "address": "0xeeeeeeeeeeeeeeeeeeeeeeeeeeeeeeeeeeeeeeee",
                "label": "Ether"
            }
        ]
    },
    "trace": {
        "accountLabels": null,
        "dataMap": {
            "-1": {
                "invocation": {
                    "address": "0x23a43595e8e95a40ea7090c618234fbf41f3d480",
                    "callData": "",
                    "decodedMethod": null,
                    "errorInfo": "",
                    "fromAddress": "",
                    "gasUsed": 0,
                    "id": -1,
                    "methodDecoded": false,
                    "operation": "",
                    "output": "",
                    "revert": false,
                    "revertMessage": "",
                    "selector": "",
                    "status": false,
                    "value": ""
                },
                "nodeType": 0
            },
            "0": {
                "invocation": {
                    "address": "0xb7bbf6d2f5372022cc07b6677a9eb49ce78da8c3",
                    "callData": "0x000000000000000000000000ef9dd814e3fece6576ff8f32d4266096a23f3d6d0000000000000000000000000000000000000000000000000000000cef5e80e4",
                    "decodedMethod": {
                        "callParams": [
                            {
                                "name": "_to",
                                "type": "address",
                                "value": "0xef9dd814e3fece6576ff8f32d4266096a23f3d6d"
                            },
                            {
                                "decimalAvailable": true,
                                "name": "_value",
                                "type": "uint256",
                                "value": "55,555,555,556"
                            }
                        ],
                        "constructorArguments": "",
                        "name": "transfer",
                        "returnParams": [],
                        "signature": "transfer(address,uint256)"
                    },
                    "errorInfo": "",
                    "fromAddress": "0x23a43595e8e95a40ea7090c618234fbf41f3d480",
                    "gasUsed": 38183,
                    "id": 0,
                    "methodDecoded": true,
                    "operation": "CALL",
                    "output": "",
                    "revert": false,
                    "revertMessage": "",
                    "selector": "0xa9059cbb",
                    "status": true,
                    "value": "0"
                },
                "nodeType": 0
            },
            "1": {
                "event": {
                    "contract": "0xb7bbf6d2f5372022cc07b6677a9eb49ce78da8c3",
                    "decodedLog": {
                        "name": "Transfer",
                        "params": [
                            {
                                "name": "from",
                                "type": "address",
                                "value": "0x23a43595e8e95a40ea7090c618234fbf41f3d480"
                            },
                            {
                                "name": "to",
                                "type": "address",
                                "value": "0xef9dd814e3fece6576ff8f32d4266096a23f3d6d"
                            },
                            {
                                "decimalAvailable": true,
                                "name": "value",
                                "type": "uint256",
                                "value": "55,555,555,556"
                            }
                        ],
                        "signature": "Transfer(address,address,uint256)"
                    },
                    "id": 1,
                    "logData": "0x0000000000000000000000000000000000000000000000000000000cef5e80e4",
                    "logDecoded": true,
                    "operation": "EVENT",
                    "revert": false,
                    "status": true,
                    "topics": [
                        "0xddf252ad1be2c89b69c2b068fc378daa952ba7f163c4a11628f55a4df523b3ef",
                        "0x00000000000000000000000023a43595e8e95a40ea7090c618234fbf41f3d480",
                        "0x000000000000000000000000ef9dd814e3fece6576ff8f32d4266096a23f3d6d"
                    ]
                },
                "nodeType": 1
            }
        },
        "gasFlame": [
            {
                "children": [
                    {
                        "children": [
                            {
                                "children": [],
                                "depth": 0,
                                "name": "Initial Gas",
                                "value": 23128
                            },
                            {
                                "children": [],
                                "depth": 0,
                                "name": "Executed Gas",
                                "value": 15055
                            }
                        ],
                        "depth": -1,
                        "name": "Actual Gas Used",
                        "value": 38183
                    },
                    {
                        "children": [],
                        "depth": -1,
                        "name": "Refunded Gas",
                        "value": 0
                    }
                ],
                "depth": -2,
                "name": "Total Gas",
                "value": 38183
            }
        ],
        "isConfirmed": true,
        "mainTrace": [
            {
                "children": [
                    {
                        "children": [
                            {
                                "children": [],
                                "depth": 1,
                                "id": 1,
                                "order": 1
                            }
                        ],
                        "depth": 0,
                        "id": 0,
                        "order": 0
                    }
                ],
                "depth": -1,
                "id": -1,
                "order": -1
            }
        ],
        "mainTraceNodeCount": 2,
        "parentIdMap": {
            "0": -1,
            "1": 0
        },
        "tidyTrace": [
            {
                "children": [
                    {
                        "children": [
                            {
                                "children": [],
                                "depth": 1,
                                "id": 1,
                                "order": 1
                            }
                        ],
                        "depth": 0,
                        "id": 0,
                        "order": 0
                    }
                ],
                "depth": -1,
                "id": -1,
                "order": -1
            }
        ],
        "tidyTraceNodeCount": 2
    },
    "state_change": {
        "stateChanges": [
            {
                "address": "0xb7bbf6d2f5372022cc07b6677a9eb49ce78da8c3",
                "erc": "",
                "slots": [
                    {
                        "current": "0x00000000000000000000000000000000000000000000000000000f8e0cfe7e17",
                        "key": "0xe399bb5b2908da473189163c1c0b2d23ac5778388fd3414adf3a1a13c4b27ff8",
                        "prev": "0x00000000000000000000000000000000000000000000000000000f9afc5cfefb"
                    },
                    {
                        "current": "0x00000000000000000000000000000000000000000000000000000033bd7a0390",
                        "key": "0x9c92d1b6847f849e0e54a07f011104745b4e53d19b231ccc506cff7750426082",
                        "prev": "0x00000000000000000000000000000000000000000000000000000026ce1b82ac"
                    }
                ],
                "storageVariables": [
                    {
                        "name": "balanceOf",
                        "type": "mapping(address => uint256)",
                        "value": {
                            "pairs": [
                                {
                                    "key": "0x23a43595e8e95a40ea7090c618234fbf41f3d480",
                                    "value": {
                                        "current": "17102777777687",
                                        "prev": "17158333333243",
                                        "typeTag": 1
                                    }
                                },
                                {
                                    "key": "0xef9dd814e3fece6576ff8f32d4266096a23f3d6d",
                                    "value": {
                                        "current": "222222222224",
                                        "prev": "166666666668",
                                        "typeTag": 1
                                    }
                                }
                            ],
                            "typeTag": 4
                        }
                    }
                ]
            }
        ]
    }
}