{
    "balance_change": {
        "balanceChanges": [
            {
                "account": "0x2ebfbe36ef55b75c51dec7f7477b5b1a030ae96d",
                "assets": [
                    {
                        "address": "0xbc4162d53f945266684f4e5e48d545f206bc1ca5",
                        "amount": "470",
                        "iconUrl": "",
                        "isERC1155": false,
                        "isERC721": false,
                        "sign": false,
                        "value": ""
                    }
                ]
            },
            {
                "account": "0xaa7b54ccabd912c9e535d70bdac42aeabe458abf",
                "assets": [
                    {
                        "address": "0xbc4162d53f945266684f4e5e48d545f206bc1ca5",
                        "amount": "470",
                        "iconUrl": "",
                        "isERC1155": false,
                        "isERC721": false,
                        "sign": true,
                        "value": ""
                    }
                ]
            }
        ]
    },
    "profile": {
        "basic_info": {
            "baseFee": "",
            "blockNumber": 8759594,
            "callData": "0xa9059cbb000000000000000000000000aa7b54ccabd912c9e535d70bdac42aeabe458abf0000000000000000000000000000000000000000000000197a8f6dd551980000",
            "debugEnable": true,
            "errorInfo": "",
            "eventCount": 1,
            "feeRecipient": "0xea674fdde714fd979de3edf0f56aa9716b898ec8",
            "formatValue": "0",
            "gasLimit": 100000,
            "gasPrice": "24",
            "gasUsed": 37134,
            "intTxnCount": 0,
            "internalRevert": false,
            "internalRevertMessage": "",
            "isContractCreation": false,
            "isFlashloan": false,
            "maxFee": "",
            "nonce": 469237,
            "overwritedBlockNumber": -1,
            "priorityFee": "",
            "receiver": "0xbc4162d53f945266684f4e5e48d545f206bc1ca5",
            "revertMessage": "",
            "sender": "0x2ebfbe36ef55b75c51dec7f7477b5b1a030ae96d",
            "simulationEnable": true,
            "sourceTxnHash": "0x08d3a170b35ab09e8238aabc4a20c1480a253ccae882d89cf8106234a04df60b",
            "status": true,
            "timestamp": "2019-10-17T16:30:14Z",
            "transactionFee": "0.000891216",
            "txnHash": "0x08d3a170b35ab09e8238aabc4a20c1480a253ccae882d89cf8106234a04df60b",
            "txnIndex": 48,
            "type": 0,
            "value": "0"
        },
        "fund_flow": [
            {
                "amount": "470",
                "from": "0x2ebfbe36ef55b75c51dec7f7477b5b1a030ae96d",
                "id": 1,
                "isERC1155": false,
                "isERC721": false,
                "isReverted": false,
                "order": 1,
                "to": "0xaa7b54ccabd912c9e535d70bdac42aeabe458abf",
                "token": "0xbc4162d53f945266684f4e5e48d545f206bc1ca5"
            }
        ],
        "token_infos": [
            {
                "address": "0xbc4162d53f945266684f4e5e48d545f206bc1ca5",
                "decimals": 18
            },
            {
                "address": "0xc02aaa39b223fe8d0a0e5c4f27ead9083c756cc2",
                "decimals": 18
            },
            {
                "address": "0xeeeeeeeeeeeeeeeeeeeeeeeeeeeeeeeeeeeeeeee",
                "decimals": 18
            }
        ]
    },
    "address_label": {
        "labels": [
            {
                "address": "0x0000000000000000000000000000000000000003",
                "label": "Precompiled"
            },
            {
                "address": "0x0000000000000000000000000000000000000004",
                "label": "Precompiled"
            },
            {
                "address": "0xeeeeeeeeeeeeeeeeeeeeeeeeeeeeeeeeeeeeeeee",
                "label": "Ether"
            },
            {
                "address": "0xbc4162d53f945266684f4e5e48d545f206bc1ca5",
                "label": "ATB Banknote (ATB)"
            },
            {
                "address": "0x0000000000000000000000000000000000000001",
                "label": "Precompiled"
            },
            {
                "address": "0x0000000000000000000000000000000000000002",
                "label": "Precompiled"
            }
        ]
    },
    "trace": {
        "accountLabels": null,
        "dataMap": {
            "-1": {
                "invocation": {
                    "address": "0x2ebfbe36ef55b75c51dec7f7477b5b1a030ae96d",
                    "callData": "",
                    "decodedMethod": null,
                    "errorInfo": "",
                    "fromAddress": "",
                    "gasUsed": 0,
                    "id": -1,
                    "methodDecoded": false,
                    "operation": "",
                    "output": "",
                    "revert": false,
                    "revertMessage": "",
                    "selector": "",
                    "status": false,
                    "value": ""
                },
                "nodeType": 0
            },
            "0": {
                "invocation": {
                    "address": "0xbc4162d53f945266684f4e5e48d545f206bc1ca5",
                    "callData": "0x000000000000000000000000aa7b54ccabd912c9e535d70bdac42aeabe458abf0000000000000000000000000000000000000000000000197a8f6dd551980000",
                    "decodedMethod": {
                        "callParams": [
                            {
                                "name": "recipient",
                                "type": "address",
                                "value": "0xaa7b54ccabd912c9e535d70bdac42aeabe458abf"
                            },
                            {
                                "decimalAvailable": true,
                                "name": "amount",
                                "type": "uint256",
                                "value": "470,000,000,000,000,000,000"
                            }
                        ],
                        "constructorArguments": "",
                        "name": "transfer",
                        "returnParams": [
                            {
                                "name": "",
                                "type": "bool",
                                "value": true
                            }
                        ],
                        "signature": "transfer(address,uint256)"
                    },
                    "errorInfo": "",
                    "fromAddress": "0x2ebfbe36ef55b75c51dec7f7477b5b1a030ae96d",
                    "gasUsed": 37134,
                    "id": 0,
                    "methodDecoded": true,
                    "operation": "CALL",
                    "output": "0x0000000000000000000000000000000000000000000000000000000000000001",
                    "revert": false,
                    "revertMessage": "",
                    "selector": "0xa9059cbb",
                    "status": true,
                    "value": "0"
                },
                "nodeType": 0
            },
            "1": {
                "event": {
                    "contract": "0xbc4162d53f945266684f4e5e48d545f206bc1ca5",
                    "decodedLog": {
                        "name": "Transfer",
                        "params": [
                            {
                                "name": "from",
                                "type": "address",
                                "value": "0x2ebfbe36ef55b75c51dec7f7477b5b1a030ae96d"
                            },
                            {
                                "name": "to",
                                "type": "address",
                                "value": "0xaa7b54ccabd912c9e535d70bdac42aeabe458abf"
                            },
                            {
                                "decimalAvailable": true,
                                "name": "value",
                                "type": "uint256",
                                "value": "470,000,000,000,000,000,000"
                            }
                        ],
                        "signature": "Transfer(address,address,uint256)"
                    },
                    "id": 1,
                    "logData": "0x0000000000000000000000000000000000000000000000197a8f6dd551980000",
                    "logDecoded": true,
                    "operation": "EVENT",
                    "revert": false,
                    "status": true,
                    "topics": [
                        "0xddf252ad1be2c89b69c2b068fc378daa952ba7f163c4a11628f55a4df523b3ef",
                        "0x0000000000000000000000002ebfbe36ef55b75c51dec7f7477b5b1a030ae96d",
                        "0x000000000000000000000000aa7b54ccabd912c9e535d70bdac42aeabe458abf"
                    ]
                },
                "nodeType": 1
            }
        },
        "gasFlame": [
            {
                "children": [
                    {
                        "children": [
                            {
                                "children": [],
                                "depth": 0,
                                "name": "Initial Gas",
                                "value": 23256
                            },
                            {
                                "children": [],
                                "depth": 0,
                                "name": "Executed Gas",
                                "value": 13878
                            }
                        ],
                        "depth": -1,
                        "name": "Actual Gas Used",
                        "value": 37134
                    },
                    {
                        "children": [],
                        "depth": -1,
                        "name": "Refunded Gas",
                        "value": 0
                    }
                ],
                "depth": -2,
                "name": "Total Gas",
                "value": 37134
            }
        ],
        "isConfirmed": true,
        "mainTrace": [
            {
                "children": [
                    {
                        "children": [
                            {
                                "children": [],
                                "depth": 1,
                                "id": 1,
                                "order": 1
                            }
                        ],
                        "depth": 0,
                        "id": 0,
                        "order": 0
                    }
                ],
                "depth": -1,
                "id": -1,
                "order": -1
            }
        ],
        "mainTraceNodeCount": 2,
        "parentIdMap": {
            "0": -1,
            "1": 0
        },
        "tidyTrace": [
            {
                "children": [
                    {
                        "children": [
                            {
                                "children": [],
                                "depth": 1,
                                "id": 1,
                                "order": 1
                            }
                        ],
                        "depth": 0,
                        "id": 0,
                        "order": 0
                    }
                ],
                "depth": -1,
                "id": -1,
                "order": -1
            }
        ],
        "tidyTraceNodeCount": 2
    },
    "state_change": {
        "stateChanges": [
            {
                "address": "0xbc4162d53f945266684f4e5e48d545f206bc1ca5",
                "erc": "",
                "slots": [
                    {
                        "current": "0x00000000000000000000000000000000000000000005553cc72ffcf3d98cfc00",
                        "key": "0xd7164909a1a9ba44a512389c48fa022a1e0917d6800744d76f2f24153e64e7ca",
                        "prev": "0x00000000000000000000000000000000000000000005555641bf6ac92b24fc00"
                    },
                    {
                        "current": "0x00000000000000000000000000000000000000000000011d64df5276902d8000",
                        "key": "0x4184312c44c396d4eaf951dddd3ac159146ecc6682f91a63ac439752031a39e3",
                        "prev": "0x000000000000000000000000000000000000000000000103ea4fe4a13e958000"
                    }
                ],
                "storageVariables": []
            }
        ]
    }
}