{
    "balance_change": {
        "balanceChanges": [
            {
                "account": "0x351faf0b10e7d80fbaa8726b41825a71b9922c95",
                "assets": [
                    {
                        "address": "0xb63b606ac810a52cca15e44bb630fd42d8d1d83d",
                        "amount": "30,000",
                        "iconUrl": "https://assets.blocksec.com/icon/5f418bbb243e368e479f81f2bee268b531b75df187a1b2270081a374b11e5e08.png",
                        "isERC1155": false,
                        "isERC721": false,
                        "sign": false,
                        "value": ""
                    }
                ]
            },
            {
                "account": "0x91657d8ec274f6084a282771fe0aaefc6c9e5c00",
                "assets": [
                    {
                        "address": "0xb63b606ac810a52cca15e44bb630fd42d8d1d83d",
                        "amount": "30,000",
                        "iconUrl": "https://assets.blocksec.com/icon/5f418bbb243e368e479f81f2bee268b531b75df187a1b2270081a374b11e5e08.png",
                        "isERC1155": false,
                        "isERC721": false,
                        "sign": true,
                        "value": ""
                    }
                ]
            }
        ]
    },
    "profile": {
        "basic_info": {
            "baseFee": "",
            "blockNumber": 5911305,
            "callData": "0xa9059cbb00000000000000000000000091657d8ec274f6084a282771fe0aaefc6c9e5c00000000000000000000000000000000000000000000000000000002ba7def3000",
            "debugEnable": true,
            "errorInfo": "",
            "eventCount": 1,
            "feeRecipient": "0xea674fdde714fd979de3edf0f56aa9716b898ec8",
            "formatValue": "0",
            "gasLimit": 60000,
            "gasPrice": "41",
            "gasUsed": 37336,
            "intTxnCount": 0,
            "internalRevert": false,
            "internalRevertMessage": "",
            "isContractCreation": false,
            "isFlashloan": false,
            "maxFee": "",
            "nonce": 14,
            "overwritedBlockNumber": -1,
            "priorityFee": "",
            "receiver": "0xb63b606ac810a52cca15e44bb630fd42d8d1d83d",
            "revertMessage": "",
            "sender": "0x351faf0b10e7d80fbaa8726b41825a71b9922c95",
            "simulationEnable": true,
            "sourceTxnHash": "0x08f05641c48b54a5ad3455a3558dd6e0ce6bc1e1e8355b4172487835be130140",
            "status": true,
            "timestamp": "2018-07-05T18:10:23Z",
            "transactionFee": "0.001530776",
            "txnHash": "0x08f05641c48b54a5ad3455a3558dd6e0ce6bc1e1e8355b4172487835be130140",
            "txnIndex": 40,
            "type": 0,
            "value": "0"
        },
        "fund_flow": [
            {
                "amount": "30,000",
                "from": "0x351faf0b10e7d80fbaa8726b41825a71b9922c95",
                "id": 1,
                "isERC1155": false,
                "isERC721": false,
                "isReverted": false,
                "order": 1,
                "to": "0x91657d8ec274f6084a282771fe0aaefc6c9e5c00",
                "token": "0xb63b606ac810a52cca15e44bb630fd42d8d1d83d"
            }
        ],
        "token_infos": [
            {
                "address": "0xb63b606ac810a52cca15e44bb630fd42d8d1d83d",
                "decimals": 8
            },
            {
                "address": "0xc02aaa39b223fe8d0a0e5c4f27ead9083c756cc2",
                "decimals": 18
            },
            {
                "address": "0xeeeeeeeeeeeeeeeeeeeeeeeeeeeeeeeeeeeeeeee",
                "decimals": 18
            }
        ]
    },
    "address_label": {
        "labels": [
            {
                "address": "0x0000000000000000000000000000000000000002",
                "label": "Precompiled"
            },
            {
                "address": "0x0000000000000000000000000000000000000003",
                "label": "Precompiled"
            },
            {
                "address": "0x0000000000000000000000000000000000000004",
                "label": "Precompiled"
            },
            {
                "address": "0xeeeeeeeeeeeeeeeeeeeeeeeeeeeeeeeeeeeeeeee",
                "label": "Ether"
            },
            {
                "address": "0xb63b606ac810a52cca15e44bb630fd42d8d1d83d",
                "label": "Crypto.com: MCO Token"
            },
            {
                "address": "0x91657d8ec274f6084a282771fe0aaefc6c9e5c00",
                "label": "BINANCE"
            },
            {
                "address": "0x0000000000000000000000000000000000000001",
                "label": "Precompiled"
            }
        ]
    },
    "trace": {
        "accountLabels": null,
        "dataMap": {
            "-1": {
                "invocation": {
                    "address": "0x351faf0b10e7d80fbaa8726b41825a71b9922c95",
                    "callData": "",
                    "decodedMethod": null,
                    "errorInfo": "",
                    "fromAddress": "",
                    "gasUsed": 0,
                    "id": -1,
                    "methodDecoded": false,
                    "operation": "",
                    "output": "",
                    "revert": false,
                    "revertMessage": "",
                    "selector": "",
                    "status": false,
                    "value": ""
                },
                "nodeType": 0
            },
            "0": {
                "invocation": {
                    "address": "0xb63b606ac810a52cca15e44bb630fd42d8d1d83d",
                    "callData": "0x00000000000000000000000091657d8ec274f6084a282771fe0aaefc6c9e5c00000000000000000000000000000000000000000000000000000002ba7def3000",
                    "decodedMethod": {
                        "callParams": [
                            {
                                "name": "_to",
                                "type": "address",
                                "value": "0x91657d8ec274f6084a282771fe0aaefc6c9e5c00"
                            },
                            {
                                "decimalAvailable": true,
                                "name": "_value",
                                "type": "uint256",
                                "value": "3,000,000,000,000"
                            }
                        ],
                        "constructorArguments": "",
                        "name": "transfer",
                        "returnParams": [
                            {
                                "name": "success",
                                "type": "bool",
                                "value": true
                            }
                        ],
                        "signature": "transfer(address,uint256)"
                    },
                    "errorInfo": "",
                    "fromAddress": "0x351faf0b10e7d80fbaa8726b41825a71b9922c95",
                    "gasUsed": 37336,
                    "id": 0,
                    "methodDecoded": true,
                    "operation": "CALL",
                    "output": "0x0000000000000000000000000000000000000000000000000000000000000001",
                    "revert": false,
                    "revertMessage": "",
                    "selector": "0xa9059cbb",
                    "status": true,
                    "value": "0"
                },
                "nodeType": 0
            },
            "1": {
                "event": {
                    "contract": "0xb63b606ac810a52cca15e44bb630fd42d8d1d83d",
                    "decodedLog": {
                        "name": "Transfer",
                        "params": [
                            {
                                "name": "from",
                                "type": "address",
                                "value": "0x351faf0b10e7d80fbaa8726b41825a71b9922c95"
                            },
                            {
                                "name": "to",
                                "type": "address",
                                "value": "0x91657d8ec274f6084a282771fe0aaefc6c9e5c00"
                            },
                            {
                                "decimalAvailable": true,
                                "name": "value",
                                "type": "uint256",
                                "value": "3,000,000,000,000"
                            }
                        ],
                        "signature": "Transfer(address,address,uint256)"
                    },
                    "id": 1,
                    "logData": "0x000000000000000000000000000000000000000000000000000002ba7def3000",
                    "logDecoded": true,
                    "operation": "EVENT",
                    "revert": false,
                    "status": true,
                    "topics": [
                        "0xddf252ad1be2c89b69c2b068fc378daa952ba7f163c4a11628f55a4df523b3ef",
                        "0x000000000000000000000000351faf0b10e7d80fbaa8726b41825a71b9922c95",
                        "0x00000000000000000000000091657d8ec274f6084a282771fe0aaefc6c9e5c00"
                    ]
                },
                "nodeType": 1
            }
        },
        "gasFlame": [
            {
                "children": [
                    {
                        "children": [
                            {
                                "children": [],
                                "depth": 0,
                                "name": "Initial Gas",
                                "value": 23064
                            },
                            {
                                "children": [],
                                "depth": 0,
                                "name": "Executed Gas",
                                "value": 14272
                            }
                        ],
                        "depth": -1,
                        "name": "Actual Gas Used",
                        "value": 37336
                    },
                    {
                        "children": [],
                        "depth": -1,
                        "name": "Refunded Gas",
                        "value": 0
                    }
                ],
                "depth": -2,
                "name": "Total Gas",
                "value": 37336
            }
        ],
        "isConfirmed": true,
        "mainTrace": [
            {
                "children": [
                    {
                        "children": [
                            {
                                "children": [],
                                "depth": 1,
                                "id": 1,
                                "order": 1
                            }
                        ],
                        "depth": 0,
                        "id": 0,
                        "order": 0
                    }
                ],
                "depth": -1,
                "id": -1,
                "order": -1
            }
        ],
        "mainTraceNodeCount": 2,
        "parentIdMap": {
            "0": -1,
            "1": 0
        },
        "tidyTrace": [
            {
                "children": [
                    {
                        "children": [
                            {
                                "children": [],
                                "depth": 1,
                                "id": 1,
                                "order": 1
                            }
                        ],
                        "depth": 0,
                        "id": 0,
                        "order": 0
                    }
                ],
                "depth": -1,
                "id": -1,
                "order": -1
            }
        ],
        "tidyTraceNodeCount": 2
    },
    "state_change": {
        "stateChanges": [
            {
                "address": "0xb63b606ac810a52cca15e44bb630fd42d8d1d83d",
                "erc": "ERC-20",
                "slots": [
                    {
                        "current": "0x000000000000000000000000000000000000000000000000000002d000ec6327",
                        "key": "0x6f4b8ba19144dd6e45a8194694b12167720b86f2b78dfb40b428ab902cf57702",
                        "prev": "0x0000000000000000000000000000000000000000000000000000058a7edb9327"
                    },
                    {
                        "current": "0x000000000000000000000000000000000000000000000000000002ba9bbc9500",
                        "key": "0xdb0430cc23be9b655cf02d41e620a94c7686f8274a226b6cfcd23d051dd5ffb9",
                        "prev": "0x000000000000000000000000000000000000000000000000000000001dcd6500"
                    }
                ],
                "storageVariables": []
            }
        ]
    }
}