{
    "balance_change": {
        "balanceChanges": [
            {
                "account": "0x6cc5f688a315f3dc28a7781717a9a798a59fda7b",
                "assets": [
                    {
                        "address": "0x3506424f91fd33084466f402d5d97f05f8e3b4af",
                        "amount": "917,596.1",
                        "iconUrl": "https://assets.blocksec.com/icon/206fcc9fb6f1bc7fad1ab78e1cd3e44539d71743a172be83828afbe05b6ada6c.png",
                        "isERC1155": false,
                        "isERC721": false,
                        "sign": false,
                        "value": "50834.823939999998036"
                    }
                ]
            },
            {
                "account": "0x27bffb0f09c18539f9a47a39958bb149fe42a155",
                "assets": [
                    {
                        "address": "0x3506424f91fd33084466f402d5d97f05f8e3b4af",
                        "amount": "917,596.1",
                        "iconUrl": "https://assets.blocksec.com/icon/206fcc9fb6f1bc7fad1ab78e1cd3e44539d71743a172be83828afbe05b6ada6c.png",
                        "isERC1155": false,
                        "isERC721": false,
                        "sign": true,
                        "value": "50834.823939999998036"
                    }
                ]
            }
        ]
    },
    "profile": {
        "basic_info": {
            "baseFee": "5.002632424",
            "blockNumber": 18347459,
            "callData": "0xa9059cbb00000000000000000000000027bffb0f09c18539f9a47a39958bb149fe42a15500000000000000000000000000000000000000000000c24efbf81580857a0000",
            "debugEnable": true,
            "errorInfo": "",
            "eventCount": 1,
            "feeRecipient": "0x95222290dd7278aa3ddd389cc1e1d165cc4bafe5",
            "formatValue": "0",
            "gasLimit": 420000,
            "gasPrice": "6.002632424",
            "gasUsed": 54355,
            "intTxnCount": 0,
            "internalRevert": false,
            "internalRevertMessage": "",
            "isContractCreation": false,
            "isFlashloan": false,
            "maxFee": "400",
            "nonce": 2580151,
            "overwritedBlockNumber": -1,
            "priorityFee": "1",
            "receiver": "0x3506424f91fd33084466f402d5d97f05f8e3b4af",
            "revertMessage": "",
            "sender": "0x6cc5f688a315f3dc28a7781717a9a798a59fda7b",
            "simulationEnable": true,
            "sourceTxnHash": "0x08794d78eced3ebfb44aa2d60fe07810713eea054a990f4439c26b51d96ea690",
            "status": true,
            "timestamp": "2023-10-14T08:33:47Z",
            "transactionFee": "0.00032627308540652",
            "txnHash": "0x08794d78eced3ebfb44aa2d60fe07810713eea054a990f4439c26b51d96ea690",
            "txnIndex": 48,
            "type": 2,
            "value": "0"
        },
        "fund_flow": [
            {
                "amount": "917,596.1",
                "from": "0x6cc5f688a315f3dc28a7781717a9a798a59fda7b",
                "id": 1,
                "isERC1155": false,
                "isERC721": false,
                "isReverted": false,
                "order": 1,
                "to": "0x27bffb0f09c18539f9a47a39958bb149fe42a155",
                "token": "0x3506424f91fd33084466f402d5d97f05f8e3b4af"
            }
        ],
        "token_infos": [
            {
                "address": "0x3506424f91fd33084466f402d5d97f05f8e3b4af",
                "decimals": 18
            },
            {
                "address": "0xc02aaa39b223fe8d0a0e5c4f27ead9083c756cc2",
                "decimals": 18
            },
            {
                "address": "0xeeeeeeeeeeeeeeeeeeeeeeeeeeeeeeeeeeeeeeee",
                "decimals": 18
            }
        ]
    },
    "address_label": {
        "labels": [
            {
                "address": "0x0000000000000000000000000000000000000002",
                "label": "Precompiled"
            },
            {
                "address": "0x0000000000000000000000000000000000000003",
                "label": "Precompiled"
            },
            {
                "address": "0x0000000000000000000000000000000000000004",
                "label": "Precompiled"
            },
            {
                "address": "0xeeeeeeeeeeeeeeeeeeeeeeeeeeeeeeeeeeeeeeee",
                "label": "Ether"
            },
            {
                "address": "0x6cc5f688a315f3dc28a7781717a9a798a59fda7b",
                "label": "OKX"
            },
            {
                "address": "0x27bffb0f09c18539f9a47a39958bb149fe42a155",
                "label": "BINANCE"
            },
            {
                "address": "0x3506424f91fd33084466f402d5d97f05f8e3b4af",
                "label": "Chiliz: CHZ Token"
            },
            {
                "address": "0x0000000000000000000000000000000000000001",
                "label": "Precompiled"
            }
        ]
    },
    "trace": {
        "accountLabels": null,
        "dataMap": {
            "-1": {
                "invocation": {
                    "address": "0x6cc5f688a315f3dc28a7781717a9a798a59fda7b",
                    "callData": "",
                    "decodedMethod": null,
                    "errorInfo": "",
                    "fromAddress": "",
                    "gasUsed": 0,
                    "id": -1,
                    "methodDecoded": false,
                    "operation": "",
                    "output": "",
                    "revert": false,
                    "revertMessage": "",
                    "selector": "",
                    "status": false,
                    "value": ""
                },
                "nodeType": 0
            },
            "0": {
                "invocation": {
                    "address": "0x3506424f91fd33084466f402d5d97f05f8e3b4af",
                    "callData": "0x00000000000000000000000027bffb0f09c18539f9a47a39958bb149fe42a15500000000000000000000000000000000000000000000c24efbf81580857a0000",
                    "decodedMethod": {
                        "callParams": [
                            {
                                "name": "to",
                                "type": "address",
                                "value": "0x27bffb0f09c18539f9a47a39958bb149fe42a155"
                            },
                            {
                                "decimalAvailable": true,
                                "name": "value",
                                "type": "uint256",
                                "value": "917,596,100,000,000,000,000,000"
                            }
                        ],
                        "constructorArguments": "",
                        "name": "transfer",
                        "returnParams": [
                            {
                                "name": "",
                                "type": "bool",
                                "value": true
                            }
                        ],
                        "signature": "transfer(address,uint256)"
                    },
                    "errorInfo": "",
                    "fromAddress": "0x6cc5f688a315f3dc28a7781717a9a798a59fda7b",
                    "gasUsed": 54355,
                    "id": 0,
                    "methodDecoded": true,
                    "operation": "CALL",
                    "output": "0x0000000000000000000000000000000000000000000000000000000000000001",
                    "revert": false,
                    "revertMessage": "",
                    "selector": "0xa9059cbb",
                    "status": true,
                    "value": "0"
                },
                "nodeType": 0
            },
            "1": {
                "event": {
                    "contract": "0x3506424f91fd33084466f402d5d97f05f8e3b4af",
                    "decodedLog": {
                        "name": "Transfer",
                        "params": [
                            {
                                "name": "from",
                                "type": "address",
                                "value": "0x6cc5f688a315f3dc28a7781717a9a798a59fda7b"
                            },
                            {
                                "name": "to",
                                "type": "address",
                                "value": "0x27bffb0f09c18539f9a47a39958bb149fe42a155"
                            },
                            {
                                "decimalAvailable": true,
                                "name": "value",
                                "type": "uint256",
                                "value": "917,596,100,000,000,000,000,000"
                            }
                        ],
                        "signature": "Transfer(address,address,uint256)"
                    },
                    "id": 1,
                    "logData": "0x00000000000000000000000000000000000000000000c24efbf81580857a0000",
                    "logDecoded": true,
                    "operation": "EVENT",
                    "revert": false,
                    "status": true,
                    "topics": [
                        "0xddf252ad1be2c89b69c2b068fc378daa952ba7f163c4a11628f55a4df523b3ef",
                        "0x0000000000000000000000006cc5f688a315f3dc28a7781717a9a798a59fda7b",
                        "0x00000000000000000000000027bffb0f09c18539f9a47a39958bb149fe42a155"
                    ]
                },
                "nodeType": 1
            }
        },
        "gasFlame": [
            {
                "children": [
                    {
                        "children": [
                            {
                                "children": [],
                                "depth": 0,
                                "name": "Initial Gas",
                                "value": 21656
                            },
                            {
                                "children": [],
                                "depth": 0,
                                "name": "Executed Gas",
                                "value": 32699
                            }
                        ],
                        "depth": -1,
                        "name": "Actual Gas Used",
                        "value": 54355
                    },
                    {
                        "children": [],
                        "depth": -1,
                        "name": "Refunded Gas",
                        "value": 0
                    }
                ],
                "depth": -2,
                "name": "Total Gas",
                "value": 54355
            }
        ],
        "isConfirmed": true,
        "mainTrace": [
            {
                "children": [
                    {
                        "children": [
                            {
                                "children": [],
                                "depth": 1,
                                "id": 1,
                                "order": 1
                            }
                        ],
                        "depth": 0,
                        "id": 0,
                        "order": 0
                    }
                ],
                "depth": -1,
                "id": -1,
                "order": -1
            }
        ],
        "mainTraceNodeCount": 2,
        "parentIdMap": {
            "0": -1,
            "1": 0
        },
        "tidyTrace": [
            {
                "children": [
                    {
                        "children": [
                            {
                                "children": [],
                                "depth": 1,
                                "id": 1,
                                "order": 1
                            }
                        ],
                        "depth": 0,
                        "id": 0,
                        "order": 0
                    }
                ],
                "depth": -1,
                "id": -1,
                "order": -1
            }
        ],
        "tidyTraceNodeCount": 2
    },
    "state_change": {
        "stateChanges": [
            {
                "address": "0x3506424f91fd33084466f402d5d97f05f8e3b4af",
                "erc": "ERC-20",
                "slots": [
                    {
                        "current": "0x00000000000000000000000000000000000000000065ab6bf596e328c971716c",
                        "key": "0xf320692c47514b5ff69503836be0506f1667cd3f5c074c801b2305e178ec6842",
                        "prev": "0x000000000000000000000000000000000000000000666dbaf18ef8a94eeb716c"
                    },
                    {
                        "current": "0x00000000000000000000000000000000000000000000c24efbf81580857a0000",
                        "key": "0xa8e96cd9fcf46da655503938239ec7ab37aa128509d2ab66a2514464077818b9",
                        "prev": "0x0000000000000000000000000000000000000000000000000000000000000000"
                    }
                ],
                "storageVariables": [
                    {
                        "name": "_balances",
                        "type": "mapping(address => uint256)",
                        "value": {
                            "pairs": [
                                {
                                    "key": "0x27bffb0f09c18539f9a47a39958bb149fe42a155",
                                    "value": {
                                        "current": "917596100000000000000000",
                                        "prev": "0",
                                        "typeTag": 1
                                    }
                                },
                                {
                                    "key": "0x6cc5f688a315f3dc28a7781717a9a798a59fda7b",
                                    "value": {
                                        "current": "122911023947845693015683436",
                                        "prev": "123828620047845693015683436",
                                        "typeTag": 1
                                    }
                                }
                            ],
                            "typeTag": 4
                        }
                    }
                ]
            }
        ]
    }
}