{
    "balance_change": {
        "balanceChanges": [
            {
                "account": "0xed1d9d48e152103cd0c4bdfa9bed7971c5a8d25f",
                "assets": [
                    {
                        "address": "0xd3ebdaea9aeac98de723f640bce4aa07e2e44192",
                        "amount": "75",
                        "iconUrl": "",
                        "isERC1155": false,
                        "isERC721": false,
                        "sign": false,
                        "value": ""
                    }
                ]
            },
            {
                "account": "0x1b00550876abfbf777ddcd5051d778dfc015482e",
                "assets": [
                    {
                        "address": "0xd3ebdaea9aeac98de723f640bce4aa07e2e44192",
                        "amount": "75",
                        "iconUrl": "",
                        "isERC1155": false,
                        "isERC721": false,
                        "sign": true,
                        "value": ""
                    }
                ]
            }
        ]
    },
    "profile": {
        "basic_info": {
            "baseFee": "",
            "blockNumber": 7872658,
            "callData": "0xa9059cbb0000000000000000000000001b00550876abfbf777ddcd5051d778dfc015482e00000000000000000000000000000000000000000000000410d586a20a4c0000",
            "debugEnable": true,
            "errorInfo": "",
            "eventCount": 1,
            "feeRecipient": "0xea674fdde714fd979de3edf0f56aa9716b898ec8",
            "formatValue": "0",
            "gasLimit": 100000,
            "gasPrice": "20",
            "gasUsed": 36788,
            "intTxnCount": 0,
            "internalRevert": false,
            "internalRevertMessage": "",
            "isContractCreation": false,
            "isFlashloan": false,
            "maxFee": "",
            "nonce": 265688,
            "overwritedBlockNumber": -1,
            "priorityFee": "",
            "receiver": "0xd3ebdaea9aeac98de723f640bce4aa07e2e44192",
            "revertMessage": "",
            "sender": "0xed1d9d48e152103cd0c4bdfa9bed7971c5a8d25f",
            "simulationEnable": true,
            "sourceTxnHash": "0x08c36e0cfa3880e9aad400dad7f88c20c6805cb401e68500ed1a46e081e0623e",
            "status": true,
            "timestamp": "2019-06-01T08:22:09Z",
            "transactionFee": "0.00073576",
            "txnHash": "0x08c36e0cfa3880e9aad400dad7f88c20c6805cb401e68500ed1a46e081e0623e",
            "txnIndex": 73,
            "type": 0,
            "value": "0"
        },
        "fund_flow": [
            {
                "amount": "75",
                "from": "0xed1d9d48e152103cd0c4bdfa9bed7971c5a8d25f",
                "id": 1,
                "isERC1155": false,
                "isERC721": false,
                "isReverted": false,
                "order": 1,
                "to": "0x1b00550876abfbf777ddcd5051d778dfc015482e",
                "token": "0xd3ebdaea9aeac98de723f640bce4aa07e2e44192"
            }
        ],
        "token_infos": [
            {
                "address": "0xc02aaa39b223fe8d0a0e5c4f27ead9083c756cc2",
                "decimals": 18
            },
            {
                "address": "0xd3ebdaea9aeac98de723f640bce4aa07e2e44192",
                "decimals": 18
            },
            {
                "address": "0xeeeeeeeeeeeeeeeeeeeeeeeeeeeeeeeeeeeeeeee",
                "decimals": 18
            }
        ]
    },
    "address_label": {
        "labels": [
            {
                "address": "0x0000000000000000000000000000000000000002",
                "label": "Precompiled"
            },
            {
                "address": "0x0000000000000000000000000000000000000003",
                "label": "Precompiled"
            },
            {
                "address": "0x0000000000000000000000000000000000000004",
                "label": "Precompiled"
            },
            {
                "address": "0xeeeeeeeeeeeeeeeeeeeeeeeeeeeeeeeeeeeeeeee",
                "label": "Ether"
            },
            {
                "address": "0xd3ebdaea9aeac98de723f640bce4aa07e2e44192",
                "label": "SCF Token (SCF)"
            },
            {
                "address": "0x0000000000000000000000000000000000000001",
                "label": "Precompiled"
            }
        ]
    },
    "trace": {
        "accountLabels": null,
        "dataMap": {
            "-1": {
                "invocation": {
                    "address": "0xed1d9d48e152103cd0c4bdfa9bed7971c5a8d25f",
                    "callData": "",
                    "decodedMethod": null,
                    "errorInfo": "",
                    "fromAddress": "",
                    "gasUsed": 0,
                    "id": -1,
                    "methodDecoded": false,
                    "operation": "",
                    "output": "",
                    "revert": false,
                    "revertMessage": "",
                    "selector": "",
                    "status": false,
                    "value": ""
                },
                "nodeType": 0
            },
            "0": {
                "invocation": {
                    "address": "0xd3ebdaea9aeac98de723f640bce4aa07e2e44192",
                    "callData": "0x0000000000000000000000001b00550876abfbf777ddcd5051d778dfc015482e00000000000000000000000000000000000000000000000410d586a20a4c0000",
                    "decodedMethod": {
                        "callParams": [
                            {
                                "name": "_to",
                                "type": "address",
                                "value": "0x1b00550876abfbf777ddcd5051d778dfc015482e"
                            },
                            {
                                "decimalAvailable": true,
                                "name": "_value",
                                "type": "uint256",
                                "value": "75,000,000,000,000,000,000"
                            }
                        ],
                        "constructorArguments": "",
                        "name": "transfer",
                        "returnParams": [
                            {
                                "name": "",
                                "type": "bool",
                                "value": true
                            }
                        ],
                        "signature": "transfer(address,uint256)"
                    },
                    "errorInfo": "",
                    "fromAddress": "0xed1d9d48e152103cd0c4bdfa9bed7971c5a8d25f",
                    "gasUsed": 36788,
                    "id": 0,
                    "methodDecoded": true,
                    "operation": "CALL",
                    "output": "0x0000000000000000000000000000000000000000000000000000000000000001",
                    "revert": false,
                    "revertMessage": "",
                    "selector": "0xa9059cbb",
                    "status": true,
                    "value": "0"
                },
                "nodeType": 0
            },
            "1": {
                "event": {
                    "contract": "0xd3ebdaea9aeac98de723f640bce4aa07e2e44192",
                    "decodedLog": {
                        "name": "Transfer",
                        "params": [
                            {
                                "name": "_from",
                                "type": "address",
                                "value": "0xed1d9d48e152103cd0c4bdfa9bed7971c5a8d25f"
                            },
                            {
                                "name": "_to",
                                "type": "address",
                                "value": "0x1b00550876abfbf777ddcd5051d778dfc015482e"
                            },
                            {
                                "decimalAvailable": true,
                                "name": "_value",
                                "type": "uint256",
                                "value": "75,000,000,000,000,000,000"
                            }
                        ],
                        "signature": "Transfer(address,address,uint256)"
                    },
                    "id": 1,
                    "logData": "0x00000000000000000000000000000000000000000000000410d586a20a4c0000",
                    "logDecoded": true,
                    "operation": "EVENT",
                    "revert": false,
                    "status": true,
                    "topics": [
                        "0xddf252ad1be2c89b69c2b068fc378daa952ba7f163c4a11628f55a4df523b3ef",
                        "0x000000000000000000000000ed1d9d48e152103cd0c4bdfa9bed7971c5a8d25f",
                        "0x0000000000000000000000001b00550876abfbf777ddcd5051d778dfc015482e"
                    ]
                },
                "nodeType": 1
            }
        },
        "gasFlame": [
            {
                "children": [
                    {
                        "children": [
                            {
                                "children": [],
                                "depth": 0,
                                "name": "Initial Gas",
                                "value": 23192
                            },
                            {
                                "children": [],
                                "depth": 0,
                                "name": "Executed Gas",
                                "value": 13596
                            }
                        ],
                        "depth": -1,
                        "name": "Actual Gas Used",
                        "value": 36788
                    },
                    {
                        "children": [],
                        "depth": -1,
                        "name": "Refunded Gas",
                        "value": 0
                    }
                ],
                "depth": -2,
                "name": "Total Gas",
                "value": 36788
            }
        ],
        "isConfirmed": true,
        "mainTrace": [
            {
                "children": [
                    {
                        "children": [
                            {
                                "children": [],
                                "depth": 1,
                                "id": 1,
                                "order": 1
                            }
                        ],
                        "depth": 0,
                        "id": 0,
                        "order": 0
                    }
                ],
                "depth": -1,
                "id": -1,
                "order": -1
            }
        ],
        "mainTraceNodeCount": 2,
        "parentIdMap": {
            "0": -1,
            "1": 0
        },
        "tidyTrace": [
            {
                "children": [
                    {
                        "children": [
                            {
                                "children": [],
                                "depth": 1,
                                "id": 1,
                                "order": 1
                            }
                        ],
                        "depth": 0,
                        "id": 0,
                        "order": 0
                    }
                ],
                "depth": -1,
                "id": -1,
                "order": -1
            }
        ],
        "tidyTraceNodeCount": 2
    },
    "state_change": {
        "stateChanges": [
            {
                "address": "0xd3ebdaea9aeac98de723f640bce4aa07e2e44192",
                "erc": "ERC-20",
                "slots": [
                    {
                        "current": "0x00000000000000000000000000000000000000000000000410d91420af128000",
                        "key": "0x247af8b58d29a13761ad06e3cad9fab730d6a63cdd99c0751c23615e737926b4",
                        "prev": "0x00000000000000000000000000000000000000000000000000038d7ea4c68000"
                    },
                    {
                        "current": "0x000000000000000000000000000000000000000000001f3b35d6c6e4a3295b46",
                        "key": "0x73199afb0da06e8bdf676503c256cbb16a3abe3142c3be9dd7ca550bc024ee03",
                        "prev": "0x000000000000000000000000000000000000000000001f3f46ac4d86ad755b46"
                    }
                ],
                "storageVariables": [
                    {
                        "name": "balances",
                        "type": "mapping(address => uint256)",
                        "value": {
                            "pairs": [
                                {
                                    "key": "0x1b00550876abfbf777ddcd5051d778dfc015482e",
                                    "value": {
                                        "current": "75001000000000000000",
                                        "prev": "1000000000000000",
                                        "typeTag": 1
                                    }
                                },
                                {
                                    "key": "0xed1d9d48e152103cd0c4bdfa9bed7971c5a8d25f",
                                    "value": {
                                        "current": "147485598376122183670598",
                                        "prev": "147560598376122183670598",
                                        "typeTag": 1
                                    }
                                }
                            ],
                            "typeTag": 4
                        }
                    }
                ]
            }
        ]
    }
}