{
    "balance_change": {
        "balanceChanges": [
            {
                "account": "0xdbe70fde09c9bb7c30013f34ebfc59ec0cd5d0db",
                "assets": [
                    {
                        "address": "0xfca6507b874692b6ca94f8e9d547e3a2472a018e",
                        "amount": "23.22330367",
                        "iconUrl": "",
                        "isERC1155": false,
                        "isERC721": false,
                        "sign": false,
                        "value": ""
                    }
                ]
            },
            {
                "account": "0xd2349d84187580c73f1c77669f6f409dc425c3a3",
                "assets": [
                    {
                        "address": "0xfca6507b874692b6ca94f8e9d547e3a2472a018e",
                        "amount": "23.22330367",
                        "iconUrl": "",
                        "isERC1155": false,
                        "isERC721": false,
                        "sign": true,
                        "value": ""
                    }
                ]
            }
        ]
    },
    "profile": {
        "basic_info": {
            "baseFee": "",
            "blockNumber": 9248384,
            "callData": "0xa9059cbb000000000000000000000000d2349d84187580c73f1c77669f6f409dc425c3a30000000000000000000000000000000000000000000000014249bfa541601c00",
            "debugEnable": true,
            "errorInfo": "",
            "eventCount": 1,
            "feeRecipient": "0x5a0b54d5dc17e0aadc383d2db43b0a0d3e029c4c",
            "formatValue": "0",
            "gasLimit": 58698,
            "gasPrice": "30",
            "gasUsed": 23698,
            "intTxnCount": 0,
            "internalRevert": false,
            "internalRevertMessage": "",
            "isContractCreation": false,
            "isFlashloan": false,
            "maxFee": "",
            "nonce": 0,
            "overwritedBlockNumber": -1,
            "priorityFee": "",
            "receiver": "0xfca6507b874692b6ca94f8e9d547e3a2472a018e",
            "revertMessage": "",
            "sender": "0xdbe70fde09c9bb7c30013f34ebfc59ec0cd5d0db",
            "simulationEnable": true,
            "sourceTxnHash": "0x0995a8fc3d560fac14d2fdcd0196e2ed74af9558a3d95bb17a97e17abe9746b8",
            "status": true,
            "timestamp": "2020-01-09T19:23:20Z",
            "transactionFee": "0.00071094",
            "txnHash": "0x0995a8fc3d560fac14d2fdcd0196e2ed74af9558a3d95bb17a97e17abe9746b8",
            "txnIndex": 13,
            "type": 0,
            "value": "0"
        },
        "fund_flow": [
            {
                "amount": "23.22330367",
                "from": "0xdbe70fde09c9bb7c30013f34ebfc59ec0cd5d0db",
                "id": 1,
                "isERC1155": false,
                "isERC721": false,
                "isReverted": false,
                "order": 1,
                "to": "0xd2349d84187580c73f1c77669f6f409dc425c3a3",
                "token": "0xfca6507b874692b6ca94f8e9d547e3a2472a018e"
            }
        ],
        "token_infos": [
            {
                "address": "0xeeeeeeeeeeeeeeeeeeeeeeeeeeeeeeeeeeeeeeee",
                "decimals": 18
            },
            {
                "address": "0xc02aaa39b223fe8d0a0e5c4f27ead9083c756cc2",
                "decimals": 18
            },
            {
                "address": "0xfca6507b874692b6ca94f8e9d547e3a2472a018e",
                "decimals": 18
            }
        ]
    },
    "address_label": {
        "labels": [
            {
                "address": "0xfca6507b874692b6ca94f8e9d547e3a2472a018e",
                "label": "WRTC"
            },
            {
                "address": "0x0000000000000000000000000000000000000001",
                "label": "Precompiled"
            },
            {
                "address": "0x0000000000000000000000000000000000000002",
                "label": "Precompiled"
            },
            {
                "address": "0x0000000000000000000000000000000000000003",
                "label": "Precompiled"
            },
            {
                "address": "0x0000000000000000000000000000000000000004",
                "label": "Precompiled"
            },
            {
                "address": "0xeeeeeeeeeeeeeeeeeeeeeeeeeeeeeeeeeeeeeeee",
                "label": "Ether"
            }
        ]
    },
    "trace": {
        "accountLabels": null,
        "dataMap": {
            "-1": {
                "invocation": {
                    "address": "0xdbe70fde09c9bb7c30013f34ebfc59ec0cd5d0db",
                    "callData": "",
                    "decodedMethod": null,
                    "errorInfo": "",
                    "fromAddress": "",
                    "gasUsed": 0,
                    "id": -1,
                    "methodDecoded": false,
                    "operation": "",
                    "output": "",
                    "revert": false,
                    "revertMessage": "",
                    "selector": "",
                    "status": false,
                    "value": ""
                },
                "nodeType": 0
            },
            "0": {
                "invocation": {
                    "address": "0xfca6507b874692b6ca94f8e9d547e3a2472a018e",
                    "callData": "0x000000000000000000000000d2349d84187580c73f1c77669f6f409dc425c3a30000000000000000000000000000000000000000000000014249bfa541601c00",
                    "decodedMethod": {
                        "callParams": [
                            {
                                "name": "_to",
                                "type": "address",
                                "value": "0xd2349d84187580c73f1c77669f6f409dc425c3a3"
                            },
                            {
                                "decimalAvailable": true,
                                "name": "_value",
                                "type": "uint256",
                                "value": "23,223,303,670,000,000,000"
                            }
                        ],
                        "constructorArguments": "",
                        "name": "transfer",
                        "returnParams": [
                            {
                                "name": "",
                                "type": "bool",
                                "value": true
                            }
                        ],
                        "signature": "transfer(address,uint256)"
                    },
                    "errorInfo": "",
                    "fromAddress": "0xdbe70fde09c9bb7c30013f34ebfc59ec0cd5d0db",
                    "gasUsed": 23698,
                    "id": 0,
                    "methodDecoded": true,
                    "operation": "CALL",
                    "output": "0x0000000000000000000000000000000000000000000000000000000000000001",
                    "revert": false,
                    "revertMessage": "",
                    "selector": "0xa9059cbb",
                    "status": true,
                    "value": "0"
                },
                "nodeType": 0
            },
            "1": {
                "event": {
                    "contract": "0xfca6507b874692b6ca94f8e9d547e3a2472a018e",
                    "decodedLog": {
                        "name": "Transfer",
                        "params": [
                            {
                                "name": "from",
                                "type": "address",
                                "value": "0xdbe70fde09c9bb7c30013f34ebfc59ec0cd5d0db"
                            },
                            {
                                "name": "to",
                                "type": "address",
                                "value": "0xd2349d84187580c73f1c77669f6f409dc425c3a3"
                            },
                            {
                                "decimalAvailable": true,
                                "name": "value",
                                "type": "uint256",
                                "value": "23,223,303,670,000,000,000"
                            }
                        ],
                        "signature": "Transfer(address,address,uint256)"
                    },
                    "id": 1,
                    "logData": "0x0000000000000000000000000000000000000000000000014249bfa541601c00",
                    "logDecoded": true,
                    "operation": "EVENT",
                    "revert": false,
                    "status": true,
                    "topics": [
                        "0xddf252ad1be2c89b69c2b068fc378daa952ba7f163c4a11628f55a4df523b3ef",
                        "0x000000000000000000000000dbe70fde09c9bb7c30013f34ebfc59ec0cd5d0db",
                        "0x000000000000000000000000d2349d84187580c73f1c77669f6f409dc425c3a3"
                    ]
                },
                "nodeType": 1
            }
        },
        "gasFlame": [
            {
                "children": [
                    {
                        "children": [
                            {
                                "children": [],
                                "depth": 0,
                                "name": "Initial Gas",
                                "value": 21656
                            },
                            {
                                "children": [],
                                "depth": 0,
                                "name": "Executed Gas",
                                "value": 17042
                            }
                        ],
                        "depth": -1,
                        "name": "Actual Gas Used",
                        "value": 23698
                    },
                    {
                        "children": [],
                        "depth": -1,
                        "name": "Refunded Gas",
                        "value": 15000
                    }
                ],
                "depth": -2,
                "name": "Total Gas",
                "value": 38698
            }
        ],
        "isConfirmed": true,
        "mainTrace": [
            {
                "children": [
                    {
                        "children": [
                            {
                                "children": [],
                                "depth": 1,
                                "id": 1,
                                "order": 1
                            }
                        ],
                        "depth": 0,
                        "id": 0,
                        "order": 0
                    }
                ],
                "depth": -1,
                "id": -1,
                "order": -1
            }
        ],
        "mainTraceNodeCount": 2,
        "parentIdMap": {
            "0": -1,
            "1": 0
        },
        "tidyTrace": [
            {
                "children": [
                    {
                        "children": [
                            {
                                "children": [],
                                "depth": 1,
                                "id": 1,
                                "order": 1
                            }
                        ],
                        "depth": 0,
                        "id": 0,
                        "order": 0
                    }
                ],
                "depth": -1,
                "id": -1,
                "order": -1
            }
        ],
        "tidyTraceNodeCount": 2
    },
    "state_change": {
        "stateChanges": [
            {
                "address": "0xfca6507b874692b6ca94f8e9d547e3a2472a018e",
                "erc": "ERC-20",
                "slots": [
                    {
                        "current": "0x00000000000000000000000000000000000000000000bf3f050b11f887dd1800",
                        "key": "0x68015fdc19e331131ea9230b3cf3f6659a36a450ba465e9c1319ecd2901074cd",
                        "prev": "0x00000000000000000000000000000000000000000000bf3dc2c15253467cfc00"
                    },
                    {
                        "current": "0x0000000000000000000000000000000000000000000000000000000000000000",
                        "key": "0x3e425c9dc518f8ec37b326ce2e97336815c126e526604446da8d1949613b631f",
                        "prev": "0x0000000000000000000000000000000000000000000000014249bfa541601c00"
                    }
                ],
                "storageVariables": [
                    {
                        "name": "balances",
                        "type": "mapping(address => uint256)",
                        "value": {
                            "pairs": [
                                {
                                    "key": "0xd2349d84187580c73f1c77669f6f409dc425c3a3",
                                    "value": {
                                        "current": "903134506508700000000000",
                                        "prev": "903111283205030000000000",
                                        "typeTag": 1
                                    }
                                },
                                {
                                    "key": "0xdbe70fde09c9bb7c30013f34ebfc59ec0cd5d0db",
                                    "value": {
                                        "current": "0",
                                        "prev": "23223303670000000000",
                                        "typeTag": 1
                                    }
                                }
                            ],
                            "typeTag": 4
                        }
                    }
                ]
            }
        ]
    }
}