{
    "balance_change": {
        "balanceChanges": [
            {
                "account": "0x0c248b2d2923623b70307543a85f6636d94ff54d",
                "assets": [
                    {
                        "address": "0xeeeeeeeeeeeeeeeeeeeeeeeeeeeeeeeeeeeeeeee",
                        "amount": "0.08",
                        "iconUrl": "https://assets.blocksec.com/image/1663669189317-3.png",
                        "isERC1155": false,
                        "isERC721": false,
                        "sign": false,
                        "value": "370.54464176000001316"
                    },
                    {
                        "address": "0x5aeb2a703323f69b20f397bcb7b38610ec37237b",
                        "amount": "1",
                        "iconUrl": "",
                        "isERC1155": false,
                        "isERC721": true,
                        "sign": true,
                        "tokenID": "512",
                        "value": ""
                    }
                ]
            },
            {
                "account": "0x5aeb2a703323f69b20f397bcb7b38610ec37237b",
                "assets": [
                    {
                        "address": "0xeeeeeeeeeeeeeeeeeeeeeeeeeeeeeeeeeeeeeeee",
                        "amount": "0.08",
                        "iconUrl": "https://assets.blocksec.com/image/1663669189317-3.png",
                        "isERC1155": false,
                        "isERC721": false,
                        "sign": true,
                        "value": "370.54464176000001316"
                    }
                ]
            },
            {
                "account": "0x0000000000000000000000000000000000000000",
                "assets": [
                    {
                        "address": "0x5aeb2a703323f69b20f397bcb7b38610ec37237b",
                        "amount": "1",
                        "iconUrl": "",
                        "isERC1155": false,
                        "isERC721": true,
                        "sign": false,
                        "tokenID": "512",
                        "value": ""
                    }
                ]
            }
        ]
    },
    "profile": {
        "basic_info": {
            "baseFee": "168.156210602",
            "blockNumber": 13591645,
            "callData": "0xffe7b1160000000000000000000000000000000000000000000000000000000000000020000000000000000000000000000000000000000000000000000000000000000be57a086e5842c60f9f46e459758c45561378d658d5f0f9118f12188fe66fe7f339f5ca676064dea773af665c18d905c755d6d8e9009be0a96281c249845b80af2c4f7e9fb51135fbe3577a8f26191e008683a268fcc54168ffb3d8ccd4544ac42ab6895e3b0e0bcae39e7a2c7e3b6d6e87da10381813af68d0a0d0aa209b12d9067c4e0a8d9b15700dd112ff8648b938d84da903d3180f88a1a05933cfe2aee4e69a7e5c445f872c51bf64cc95f9b07c413d55646231415bdccdc4298dfa3324927f3a37df6fa429654f3b03683089f644887b38a8645572c1c8e62ee81eaf26b8edb8a418f2f184bb5365c71067325ef13c5c44273cae33eea6f7f044938d09bc950c84456a26884eacd1946c9a907c4a07a41c877c613357442c6e8ffda11f6f0fb005fae8cadbb453078112474d0b7514b7d24b1807bdca9206e9b993f47f683d3f09215be4d376ac90e41dbaadfba095fc81e70515f48c7cb2a07c36ec8c",
            "debugEnable": true,
            "errorInfo": "",
            "eventCount": 2,
            "feeRecipient": "0x3ecef08d0e2dad803847e052249bb4f8bff2d5bb",
            "formatValue": "0.08",
            "gasLimit": 107827,
            "gasPrice": "169.656210602",
            "gasUsed": 90727,
            "intTxnCount": 0,
            "internalRevert": false,
            "internalRevertMessage": "",
            "isContractCreation": false,
            "isFlashloan": false,
            "maxFee": "228.302503802",
            "nonce": 4,
            "overwritedBlockNumber": -1,
            "priorityFee": "1.5",
            "receiver": "0x5aeb2a703323f69b20f397bcb7b38610ec37237b",
            "revertMessage": "",
            "sender": "0x0c248b2d2923623b70307543a85f6636d94ff54d",
            "simulationEnable": true,
            "sourceTxnHash": "0x09b9a408a419742b749c7c1e8b0d7b42a99ba38ff68bb5e3acc47bfea1da373d",
            "status": true,
            "timestamp": "2021-11-11T00:11:40Z",
            "transactionFee": "0.015392399019287654",
            "txnHash": "0x09b9a408a419742b749c7c1e8b0d7b42a99ba38ff68bb5e3acc47bfea1da373d",
            "txnIndex": 409,
            "type": 2,
            "value": "80000000000000000"
        },
        "fund_flow": [
            {
                "amount": "0.08",
                "from": "0x0c248b2d2923623b70307543a85f6636d94ff54d",
                "id": 1,
                "isERC1155": false,
                "isERC721": false,
                "isReverted": false,
                "order": 1,
                "to": "0x5aeb2a703323f69b20f397bcb7b38610ec37237b",
                "token": "0xeeeeeeeeeeeeeeeeeeeeeeeeeeeeeeeeeeeeeeee"
            },
            {
                "amount": "1",
                "from": "0x0000000000000000000000000000000000000000",
                "id": 2,
                "isERC1155": false,
                "isERC721": true,
                "isReverted": false,
                "order": 2,
                "to": "0x0c248b2d2923623b70307543a85f6636d94ff54d",
                "token": "0x5aeb2a703323f69b20f397bcb7b38610ec37237b",
                "tokenID": "512"
            }
        ],
        "token_infos": [
            {
                "address": "0xc02aaa39b223fe8d0a0e5c4f27ead9083c756cc2",
                "decimals": 18
            },
            {
                "address": "0xeeeeeeeeeeeeeeeeeeeeeeeeeeeeeeeeeeeeeeee",
                "decimals": 18
            }
        ]
    },
    "address_label": {
        "labels": [
            {
                "address": "0xeeeeeeeeeeeeeeeeeeeeeeeeeeeeeeeeeeeeeeee",
                "label": "Ether"
            },
            {
                "address": "0x5aeb2a703323f69b20f397bcb7b38610ec37237b",
                "label": "Chibi Galaxy: GALACTIC CHIBI Token"
            },
            {
                "address": "0x0000000000000000000000000000000000000001",
                "label": "Precompiled"
            },
            {
                "address": "0x0000000000000000000000000000000000000002",
                "label": "Precompiled"
            },
            {
                "address": "0x0000000000000000000000000000000000000003",
                "label": "Precompiled"
            },
            {
                "address": "0x0000000000000000000000000000000000000004",
                "label": "Precompiled"
            }
        ]
    },
    "trace": {
        "accountLabels": null,
        "dataMap": {
            "-1": {
                "invocation": {
                    "address": "0x0c248b2d2923623b70307543a85f6636d94ff54d",
                    "callData": "",
                    "decodedMethod": null,
                    "errorInfo": "",
                    "fromAddress": "",
                    "gasUsed": 0,
                    "id": -1,
                    "methodDecoded": false,
                    "operation": "",
                    "output": "",
                    "revert": false,
                    "revertMessage": "",
                    "selector": "",
                    "status": false,
                    "value": ""
                },
                "nodeType": 0
            },
            "0": {
                "invocation": {
                    "address": "0x5aeb2a703323f69b20f397bcb7b38610ec37237b",
                    "callData": "0x0000000000000000000000000000000000000000000000000000000000000020000000000000000000000000000000000000000000000000000000000000000be57a086e5842c60f9f46e459758c45561378d658d5f0f9118f12188fe66fe7f339f5ca676064dea773af665c18d905c755d6d8e9009be0a96281c249845b80af2c4f7e9fb51135fbe3577a8f26191e008683a268fcc54168ffb3d8ccd4544ac42ab6895e3b0e0bcae39e7a2c7e3b6d6e87da10381813af68d0a0d0aa209b12d9067c4e0a8d9b15700dd112ff8648b938d84da903d3180f88a1a05933cfe2aee4e69a7e5c445f872c51bf64cc95f9b07c413d55646231415bdccdc4298dfa3324927f3a37df6fa429654f3b03683089f644887b38a8645572c1c8e62ee81eaf26b8edb8a418f2f184bb5365c71067325ef13c5c44273cae33eea6f7f044938d09bc950c84456a26884eacd1946c9a907c4a07a41c877c613357442c6e8ffda11f6f0fb005fae8cadbb453078112474d0b7514b7d24b1807bdca9206e9b993f47f683d3f09215be4d376ac90e41dbaadfba095fc81e70515f48c7cb2a07c36ec8c",
                    "decodedMethod": {
                        "callParams": [
                            {
                                "name": "proof",
                                "type": "bytes32[]",
                                "value": [
                                    "0xe57a086e5842c60f9f46e459758c45561378d658d5f0f9118f12188fe66fe7f3",
                                    "0x39f5ca676064dea773af665c18d905c755d6d8e9009be0a96281c249845b80af",
                                    "0x2c4f7e9fb51135fbe3577a8f26191e008683a268fcc54168ffb3d8ccd4544ac4",
                                    "0x2ab6895e3b0e0bcae39e7a2c7e3b6d6e87da10381813af68d0a0d0aa209b12d9",
                                    "0x067c4e0a8d9b15700dd112ff8648b938d84da903d3180f88a1a05933cfe2aee4",
                                    "0xe69a7e5c445f872c51bf64cc95f9b07c413d55646231415bdccdc4298dfa3324",
                                    "0x927f3a37df6fa429654f3b03683089f644887b38a8645572c1c8e62ee81eaf26",
                                    "0xb8edb8a418f2f184bb5365c71067325ef13c5c44273cae33eea6f7f044938d09",
                                    "0xbc950c84456a26884eacd1946c9a907c4a07a41c877c613357442c6e8ffda11f",
                                    "0x6f0fb005fae8cadbb453078112474d0b7514b7d24b1807bdca9206e9b993f47f",
                                    "0x683d3f09215be4d376ac90e41dbaadfba095fc81e70515f48c7cb2a07c36ec8c"
                                ]
                            }
                        ],
                        "constructorArguments": "",
                        "name": "specialEventMint",
                        "returnParams": [],
                        "signature": "specialEventMint(bytes32[])"
                    },
                    "errorInfo": "",
                    "fromAddress": "0x0c248b2d2923623b70307543a85f6636d94ff54d",
                    "gasUsed": 90727,
                    "id": 0,
                    "methodDecoded": true,
                    "operation": "CALL",
                    "output": "",
                    "revert": false,
                    "revertMessage": "",
                    "selector": "0xffe7b116",
                    "status": true,
                    "value": "0.08"
                },
                "nodeType": 0
            },
            "1": {
                "event": {
                    "contract": "0x5aeb2a703323f69b20f397bcb7b38610ec37237b",
                    "decodedLog": {
                        "name": "Transfer",
                        "params": [
                            {
                                "name": "from",
                                "type": "address",
                                "value": "0x0000000000000000000000000000000000000000"
                            },
                            {
                                "name": "to",
                                "type": "address",
                                "value": "0x0c248b2d2923623b70307543a85f6636d94ff54d"
                            },
                            {
                                "decimalAvailable": true,
                                "name": "tokenId",
                                "type": "uint256",
                                "value": "512"
                            }
                        ],
                        "signature": "Transfer(address,address,uint256)"
                    },
                    "id": 1,
                    "logData": "0x",
                    "logDecoded": true,
                    "operation": "EVENT",
                    "revert": false,
                    "status": true,
                    "topics": [
                        "0xddf252ad1be2c89b69c2b068fc378daa952ba7f163c4a11628f55a4df523b3ef",
                        "0x0000000000000000000000000000000000000000000000000000000000000000",
                        "0x0000000000000000000000000c248b2d2923623b70307543a85f6636d94ff54d",
                        "0x0000000000000000000000000000000000000000000000000000000000000200"
                    ]
                },
                "nodeType": 1
            },
            "2": {
                "event": {
                    "contract": "0x5aeb2a703323f69b20f397bcb7b38610ec37237b",
                    "decodedLog": {
                        "name": "Mint",
                        "params": [
                            {
                                "name": "owner",
                                "type": "address",
                                "value": "0x0c248b2d2923623b70307543a85f6636d94ff54d"
                            },
                            {
                                "name": "tokenId",
                                "type": "uint256",
                                "value": "512"
                            }
                        ],
                        "signature": "Mint(address,uint256)"
                    },
                    "id": 2,
                    "logData": "0x0000000000000000000000000000000000000000000000000000000000000200",
                    "logDecoded": true,
                    "operation": "EVENT",
                    "revert": false,
                    "status": true,
                    "topics": [
                        "0x0f6798a560793a54c3bcfe86a93cde1e73087d944c0ea20544137d4121396885",
                        "0x0000000000000000000000000c248b2d2923623b70307543a85f6636d94ff54d"
                    ]
                },
                "nodeType": 1
            }
        },
        "gasFlame": [
            {
                "children": [
                    {
                        "children": [
                            {
                                "children": [],
                                "depth": 0,
                                "name": "Initial Gas",
                                "value": 26952
                            },
                            {
                                "children": [],
                                "depth": 0,
                                "name": "Executed Gas",
                                "value": 63775
                            }
                        ],
                        "depth": -1,
                        "name": "Actual Gas Used",
                        "value": 90727
                    },
                    {
                        "children": [],
                        "depth": -1,
                        "name": "Refunded Gas",
                        "value": 0
                    }
                ],
                "depth": -2,
                "name": "Total Gas",
                "value": 90727
            }
        ],
        "isConfirmed": true,
        "mainTrace": [
            {
                "children": [
                    {
                        "children": [
                            {
                                "children": [],
                                "depth": 1,
                                "id": 1,
                                "order": 1
                            },
                            {
                                "children": [],
                                "depth": 1,
                                "id": 2,
                                "order": 2
                            }
                        ],
                        "depth": 0,
                        "id": 0,
                        "order": 0
                    }
                ],
                "depth": -1,
                "id": -1,
                "order": -1
            }
        ],
        "mainTraceNodeCount": 3,
        "parentIdMap": {
            "0": -1,
            "1": 0,
            "2": 0
        },
        "tidyTrace": [
            {
                "children": [
                    {
                        "children": [
                            {
                                "children": [],
                                "depth": 1,
                                "id": 1,
                                "order": 1
                            },
                            {
                                "children": [],
                                "depth": 1,
                                "id": 2,
                                "order": 2
                            }
                        ],
                        "depth": 0,
                        "id": 0,
                        "order": 0
                    }
                ],
                "depth": -1,
                "id": -1,
                "order": -1
            }
        ],
        "tidyTraceNodeCount": 3
    },
    "state_change": {
        "stateChanges": [
            {
                "address": "0x5aeb2a703323f69b20f397bcb7b38610ec37237b",
                "erc": "ERC-721",
                "slots": [
                    {
                        "current": "0x0000000000000000000000000c248b2d2923623b70307543a85f6636d94ff54d",
                        "key": "0x203d2d2bdae77b6c59cc38f69817e60d54c7ca8eeca5cbd2727e9f9fb7a596a5",
                        "prev": "0x0000000000000000000000000000000000000000000000000000000000000000"
                    },
                    {
                        "current": "0x0000000000000000000000000000000000000000000000000000000000000200",
                        "key": "0x0000000000000000000000000000000000000000000000000000000000000011",
                        "prev": "0x00000000000000000000000000000000000000000000000000000000000001ff"
                    },
                    {
                        "current": "0x0000000000000000000000000000000000000000000000000000000000000004",
                        "key": "0x757a46914e1a8c17db4b788023646ffcc0f32efdb1f68a9872f7d090c0fdf882",
                        "prev": "0x0000000000000000000000000000000000000000000000000000000000000003"
                    }
                ],
                "storageVariables": [
                    {
                        "name": "totalSupply",
                        "type": "uint256",
                        "value": {
                            "current": "512",
                            "prev": "511",
                            "typeTag": 1
                        }
                    },
                    {
                        "name": "_balances",
                        "type": "mapping(address => uint256)",
                        "value": {
                            "pairs": [
                                {
                                    "key": "0x0c248b2d2923623b70307543a85f6636d94ff54d",
                                    "value": {
                                        "current": "4",
                                        "prev": "3",
                                        "typeTag": 1
                                    }
                                }
                            ],
                            "typeTag": 4
                        }
                    },
                    {
                        "name": "_owners",
                        "type": "mapping(uint256 => address)",
                        "value": {
                            "pairs": [
                                {
                                    "key": "512",
                                    "value": {
                                        "current": "0x0c248b2d2923623b70307543a85f6636d94ff54d",
                                        "prev": "0x0000000000000000000000000000000000000000",
                                        "typeTag": 1
                                    }
                                }
                            ],
                            "typeTag": 4
                        }
                    }
                ]
            }
        ]
    }
}