{
    "balance_change": {
        "balanceChanges": [
            {
                "account": "0x00817319c60f03c90e6b1ce6d55e30e7aa7002cb",
                "assets": [
                    {
                        "address": "0xc8422a8a386eb49ecbf060198938df163c188406",
                        "amount": "45",
                        "iconUrl": "",
                        "isERC1155": false,
                        "isERC721": false,
                        "sign": false,
                        "value": ""
                    }
                ]
            },
            {
                "account": "0xf00e16cc74a6f7daf990fb63999768e279509b7b",
                "assets": [
                    {
                        "address": "0xc8422a8a386eb49ecbf060198938df163c188406",
                        "amount": "45",
                        "iconUrl": "",
                        "isERC1155": false,
                        "isERC721": false,
                        "sign": true,
                        "value": ""
                    }
                ]
            }
        ]
    },
    "profile": {
        "basic_info": {
            "baseFee": "",
            "blockNumber": 9231277,
            "callData": "0xa9059cbb000000000000000000000000f00e16cc74a6f7daf990fb63999768e279509b7b00000000000000000000000000000000000000000000000270801d946c940000",
            "debugEnable": true,
            "errorInfo": "",
            "eventCount": 1,
            "feeRecipient": "0x52bc44d5378309ee2abf1539bf71de1b7d7be3b5",
            "formatValue": "0",
            "gasLimit": 90000,
            "gasPrice": "6",
            "gasUsed": 36933,
            "intTxnCount": 0,
            "internalRevert": false,
            "internalRevertMessage": "",
            "isContractCreation": false,
            "isFlashloan": false,
            "maxFee": "",
            "nonce": 21,
            "overwritedBlockNumber": -1,
            "priorityFee": "",
            "receiver": "0xc8422a8a386eb49ecbf060198938df163c188406",
            "revertMessage": "",
            "sender": "0x00817319c60f03c90e6b1ce6d55e30e7aa7002cb",
            "simulationEnable": true,
            "sourceTxnHash": "0x098e5249c75b50cd56446177ef233cf4f1bfb8fc5849377989adb05973b1c203",
            "status": true,
            "timestamp": "2020-01-07T04:25:24Z",
            "transactionFee": "0.000221598",
            "txnHash": "0x098e5249c75b50cd56446177ef233cf4f1bfb8fc5849377989adb05973b1c203",
            "txnIndex": 26,
            "type": 0,
            "value": "0"
        },
        "fund_flow": [
            {
                "amount": "45",
                "from": "0x00817319c60f03c90e6b1ce6d55e30e7aa7002cb",
                "id": 1,
                "isERC1155": false,
                "isERC721": false,
                "isReverted": false,
                "order": 1,
                "to": "0xf00e16cc74a6f7daf990fb63999768e279509b7b",
                "token": "0xc8422a8a386eb49ecbf060198938df163c188406"
            }
        ],
        "token_infos": [
            {
                "address": "0xc02aaa39b223fe8d0a0e5c4f27ead9083c756cc2",
                "decimals": 18
            },
            {
                "address": "0xc8422a8a386eb49ecbf060198938df163c188406",
                "decimals": 18
            },
            {
                "address": "0xeeeeeeeeeeeeeeeeeeeeeeeeeeeeeeeeeeeeeeee",
                "decimals": 18
            }
        ]
    },
    "address_label": {
        "labels": [
            {
                "address": "0xeeeeeeeeeeeeeeeeeeeeeeeeeeeeeeeeeeeeeeee",
                "label": "Ether"
            },
            {
                "address": "0xc8422a8a386eb49ecbf060198938df163c188406",
                "label": "Token Pay (TP)"
            },
            {
                "address": "0x0000000000000000000000000000000000000001",
                "label": "Precompiled"
            },
            {
                "address": "0x0000000000000000000000000000000000000002",
                "label": "Precompiled"
            },
            {
                "address": "0x0000000000000000000000000000000000000003",
                "label": "Precompiled"
            },
            {
                "address": "0x0000000000000000000000000000000000000004",
                "label": "Precompiled"
            }
        ]
    },
    "trace": {
        "accountLabels": null,
        "dataMap": {
            "-1": {
                "invocation": {
                    "address": "0x00817319c60f03c90e6b1ce6d55e30e7aa7002cb",
                    "callData": "",
                    "decodedMethod": null,
                    "errorInfo": "",
                    "fromAddress": "",
                    "gasUsed": 0,
                    "id": -1,
                    "methodDecoded": false,
                    "operation": "",
                    "output": "",
                    "revert": false,
                    "revertMessage": "",
                    "selector": "",
                    "status": false,
                    "value": ""
                },
                "nodeType": 0
            },
            "0": {
                "invocation": {
                    "address": "0xc8422a8a386eb49ecbf060198938df163c188406",
                    "callData": "0x000000000000000000000000f00e16cc74a6f7daf990fb63999768e279509b7b00000000000000000000000000000000000000000000000270801d946c940000",
                    "decodedMethod": {
                        "callParams": [
                            {
                                "name": "recipient",
                                "type": "address",
                                "value": "0xf00e16cc74a6f7daf990fb63999768e279509b7b"
                            },
                            {
                                "decimalAvailable": true,
                                "name": "amount",
                                "type": "uint256",
                                "value": "45,000,000,000,000,000,000"
                            }
                        ],
                        "constructorArguments": "",
                        "name": "transfer",
                        "returnParams": [
                            {
                                "name": "",
                                "type": "bool",
                                "value": true
                            }
                        ],
                        "signature": "transfer(address,uint256)"
                    },
                    "errorInfo": "",
                    "fromAddress": "0x00817319c60f03c90e6b1ce6d55e30e7aa7002cb",
                    "gasUsed": 36933,
                    "id": 0,
                    "methodDecoded": true,
                    "operation": "CALL",
                    "output": "0x0000000000000000000000000000000000000000000000000000000000000001",
                    "revert": false,
                    "revertMessage": "",
                    "selector": "0xa9059cbb",
                    "status": true,
                    "value": "0"
                },
                "nodeType": 0
            },
            "1": {
                "event": {
                    "contract": "0xc8422a8a386eb49ecbf060198938df163c188406",
                    "decodedLog": {
                        "name": "Transfer",
                        "params": [
                            {
                                "name": "from",
                                "type": "address",
                                "value": "0x00817319c60f03c90e6b1ce6d55e30e7aa7002cb"
                            },
                            {
                                "name": "to",
                                "type": "address",
                                "value": "0xf00e16cc74a6f7daf990fb63999768e279509b7b"
                            },
                            {
                                "decimalAvailable": true,
                                "name": "value",
                                "type": "uint256",
                                "value": "45,000,000,000,000,000,000"
                            }
                        ],
                        "signature": "Transfer(address,address,uint256)"
                    },
                    "id": 1,
                    "logData": "0x00000000000000000000000000000000000000000000000270801d946c940000",
                    "logDecoded": true,
                    "operation": "EVENT",
                    "revert": false,
                    "status": true,
                    "topics": [
                        "0xddf252ad1be2c89b69c2b068fc378daa952ba7f163c4a11628f55a4df523b3ef",
                        "0x00000000000000000000000000817319c60f03c90e6b1ce6d55e30e7aa7002cb",
                        "0x000000000000000000000000f00e16cc74a6f7daf990fb63999768e279509b7b"
                    ]
                },
                "nodeType": 1
            }
        },
        "gasFlame": [
            {
                "children": [
                    {
                        "children": [
                            {
                                "children": [],
                                "depth": 0,
                                "name": "Initial Gas",
                                "value": 21644
                            },
                            {
                                "children": [],
                                "depth": 0,
                                "name": "Executed Gas",
                                "value": 15289
                            }
                        ],
                        "depth": -1,
                        "name": "Actual Gas Used",
                        "value": 36933
                    },
                    {
                        "children": [],
                        "depth": -1,
                        "name": "Refunded Gas",
                        "value": 0
                    }
                ],
                "depth": -2,
                "name": "Total Gas",
                "value": 36933
            }
        ],
        "isConfirmed": true,
        "mainTrace": [
            {
                "children": [
                    {
                        "children": [
                            {
                                "children": [],
                                "depth": 1,
                                "id": 1,
                                "order": 1
                            }
                        ],
                        "depth": 0,
                        "id": 0,
                        "order": 0
                    }
                ],
                "depth": -1,
                "id": -1,
                "order": -1
            }
        ],
        "mainTraceNodeCount": 2,
        "parentIdMap": {
            "0": -1,
            "1": 0
        },
        "tidyTrace": [
            {
                "children": [
                    {
                        "children": [
                            {
                                "children": [],
                                "depth": 1,
                                "id": 1,
                                "order": 1
                            }
                        ],
                        "depth": 0,
                        "id": 0,
                        "order": 0
                    }
                ],
                "depth": -1,
                "id": -1,
                "order": -1
            }
        ],
        "tidyTraceNodeCount": 2
    },
    "state_change": {
        "stateChanges": [
            {
                "address": "0xc8422a8a386eb49ecbf060198938df163c188406",
                "erc": "",
                "slots": [
                    {
                        "current": "0x00000000000000000000000000000000000000000000000f810c1cb501b80000",
                        "key": "0xd6fc9c1e26a7cea4aa0b27bd10fa3b111a7ed871b60740a76da7e8a88ec343ad",
                        "prev": "0x000000000000000000000000000000000000000000000011f18c3a496e4c0000"
                    },
                    {
                        "current": "0x0000000000000000000000000000000000000000017d706d1bfd1f043927ac78",
                        "key": "0xe7d796bd1c104813f7de09cfde38f09a2a499ed808acfa0af9f347760e74fe36",
                        "prev": "0x0000000000000000000000000000000000000000017d706aab7d016fcc93ac78"
                    }
                ],
                "storageVariables": []
            }
        ]
    }
}