{
    "balance_change": {
        "balanceChanges": [
            {
                "account": "0x29af8c15be076b9f2487bdb324d88c7261d89862",
                "assets": [
                    {
                        "address": "0x2b591e99afe9f32eaa6214f7b7629768c40eeb39",
                        "amount": "613.81374038",
                        "iconUrl": "https://assets.blocksec.com/icon/095f9b44449785f7c45bb63956eff8a843b6ae503f7b4576f9d9f27351808b2a.png",
                        "isERC1155": false,
                        "isERC721": false,
                        "sign": true,
                        "value": ""
                    }
                ]
            },
            {
                "account": "0x0000000000000000000000000000000000000000",
                "assets": [
                    {
                        "address": "0x2b591e99afe9f32eaa6214f7b7629768c40eeb39",
                        "amount": "4,552.6564057",
                        "iconUrl": "https://assets.blocksec.com/icon/095f9b44449785f7c45bb63956eff8a843b6ae503f7b4576f9d9f27351808b2a.png",
                        "isERC1155": false,
                        "isERC721": false,
                        "sign": false,
                        "value": ""
                    }
                ]
            },
            {
                "account": "0x1df86810739b2d25d64c39e4a04c73ed49de8b46",
                "assets": [
                    {
                        "address": "0x2b591e99afe9f32eaa6214f7b7629768c40eeb39",
                        "amount": "1,227.62748076",
                        "iconUrl": "https://assets.blocksec.com/icon/095f9b44449785f7c45bb63956eff8a843b6ae503f7b4576f9d9f27351808b2a.png",
                        "isERC1155": false,
                        "isERC721": false,
                        "sign": true,
                        "value": ""
                    }
                ]
            },
            {
                "account": "0x9a6a414d6f3497c05e3b1de90520765fa1e07c03",
                "assets": [
                    {
                        "address": "0x2b591e99afe9f32eaa6214f7b7629768c40eeb39",
                        "amount": "2,711.21518456",
                        "iconUrl": "https://assets.blocksec.com/icon/095f9b44449785f7c45bb63956eff8a843b6ae503f7b4576f9d9f27351808b2a.png",
                        "isERC1155": false,
                        "isERC721": false,
                        "sign": true,
                        "value": ""
                    }
                ]
            }
        ]
    },
    "profile": {
        "basic_info": {
            "baseFee": "",
            "blockNumber": 9063035,
            "callData": "0x96f62b9d0000000000000000000000000000000000000000000000000000000002ca4f48000000000000000000000000000000000000000000000000000000000000016000000000000000000000000029af8c15be076b9f2487bdb324d88c7261d898626d30a3dbef9d8fce67b3b4bcd431ceacb7f52ca19f421ffda2b2fc1bd7e88ce133b059513320fd95ebc5499c5e6081a8ff9f66132e94ac8eccf9bead8296ba830000000000000000000000000000000000000000000000000000000000000006000000000000000000000000000000000000000000000000000000000000001b78fe96b3f6192e43e76e6498c737f6d9e634168299451eea39ae65e755b07b82444a1eff1115eeb1252efaa86b94a48c2b31aaaf8e762a21b995e24fd19d1cc5000000000000000000000000000000000000000000000000000000000000015e0000000000000000000000001df86810739b2d25d64c39e4a04c73ed49de8b46000000000000000000000000000000000000000000000000000000000000001926bc3de817cff0e84f76f4ba422b54186afd12c3000000000000000000000258653d3e36dbbb113c8231b5f320167f0d63d28f36e74b7c05c803d8d7053980a5ac9dd0dff39b325d6e0e86483f1215caf459940dcd856c4ae4c66e0355f6d241efac083308b690b158bcf7e4ab8b611612dc65abbaa5203e6edcfb89791e3ff7bc5c0b59152689321bc20683e7ae33488ec9b486442dda2bddba285c4c1346a7e25092a30344ddff8133c42b16494bc57bb0646d54d114ccebf5d9f37548d7710e54ea6dd225bab1caa7226fac54461df40e3d1b27ecdf8f8322a3d6f61bc35b922296be82c934b6e0685de9c262ff658015185c14ba65be8f1394776e2dececa207bb72b19b3ef8050b96d41ae7b1f0eaed28c0af5534700e50844482618946b24800b7839660be32e14bb0e46e449a1d0410a745daf2d0a8422699c617e2b4c829eb3b52fc794d9a2b030fd0f3e778bb1e7ca0799f5179747223a3779c0c827c122c945407b8242feeab101471513b6ae9b7941f9adfea7113bc45f2b9ca52cc9eff39c03d864f90f3f7d94f75d35ec420f103a8201f72e66e13cf95c507f3cd6496fe28c0262236c346df0f18d86bcb20ea4d882696100dd13d6ae963236a490421b8047550feba564ea14000107f0113c12299779781dc41129e28aa570f9d2982a8da2d0feafa6fc078f775dc69d5e6956d8a2712a0eaf514c18a0ed83a2086572c489b6f90cd87e558509348f0d1d7c4b92ca19fd4978c0d9cc985a171d551c4431a2d501c03ecbcf09910235501a0336a4b6daa4dea25ae1c939e0feb2bec31771d0daa5ee4a6eb0444cdafff64d3f59bd316aa5f0ac32888043361f525e2ca9511d7d5473b0a691a70c5c22043b378e25627d052d5872e4936fb4eb5238d79861d7ef0dc6ec02c30a044b27c6a59fc2bc3f4390826b62498c30666dc6e5d77d8f95dfc74fb9abd8ebc53a0506f3e7478e82f786fb11002374c3f88677be27d3dfb9dba0dc2427484b44c5ac063bf0c162844f604e7f66b5a55c50991e1b6ee2ec8105f5deec5067d7ddb0c2786276e1fba55a4f5d480c6ee6b4380c9630a576191ea666a94424a606bb56d9dd0b37970a26fb48334563b32f092abca",
            "debugEnable": true,
            "errorInfo": "",
            "eventCount": 5,
            "feeRecipient": "0x5a0b54d5dc17e0aadc383d2db43b0a0d3e029c4c",
            "formatValue": "0",
            "gasLimit": 243085,
            "gasPrice": "2",
            "gasUsed": 243085,
            "intTxnCount": 7,
            "internalRevert": false,
            "internalRevertMessage": "",
            "isContractCreation": false,
            "isFlashloan": false,
            "maxFee": "",
            "nonce": 13,
            "overwritedBlockNumber": -1,
            "priorityFee": "",
            "receiver": "0x2b591e99afe9f32eaa6214f7b7629768c40eeb39",
            "revertMessage": "",
            "sender": "0x29af8c15be076b9f2487bdb324d88c7261d89862",
            "simulationEnable": true,
            "sourceTxnHash": "0x09148e782dd43ddc161363306346aa7e887694686599d5e89aa281389d8a5967",
            "status": true,
            "timestamp": "2019-12-06T23:15:18Z",
            "transactionFee": "0.00048617",
            "txnHash": "0x09148e782dd43ddc161363306346aa7e887694686599d5e89aa281389d8a5967",
            "txnIndex": 18,
            "type": 0,
            "value": "0"
        },
        "fund_flow": [
            {
                "amount": "1,227.62748076",
                "from": "0x0000000000000000000000000000000000000000",
                "id": 1,
                "isERC1155": false,
                "isERC721": false,
                "isReverted": false,
                "order": 1,
                "to": "0x1df86810739b2d25d64c39e4a04c73ed49de8b46",
                "token": "0x2b591e99afe9f32eaa6214f7b7629768c40eeb39"
            },
            {
                "amount": "2,711.21518456",
                "from": "0x0000000000000000000000000000000000000000",
                "id": 2,
                "isERC1155": false,
                "isERC721": false,
                "isReverted": false,
                "order": 2,
                "to": "0x9a6a414d6f3497c05e3b1de90520765fa1e07c03",
                "token": "0x2b591e99afe9f32eaa6214f7b7629768c40eeb39"
            },
            {
                "amount": "613.81374038",
                "from": "0x0000000000000000000000000000000000000000",
                "id": 3,
                "isERC1155": false,
                "isERC721": false,
                "isReverted": false,
                "order": 3,
                "to": "0x29af8c15be076b9f2487bdb324d88c7261d89862",
                "token": "0x2b591e99afe9f32eaa6214f7b7629768c40eeb39"
            }
        ],
        "token_infos": [
            {
                "address": "0x2b591e99afe9f32eaa6214f7b7629768c40eeb39",
                "decimals": 8
            },
            {
                "address": "0xc02aaa39b223fe8d0a0e5c4f27ead9083c756cc2",
                "decimals": 18
            },
            {
                "address": "0xeeeeeeeeeeeeeeeeeeeeeeeeeeeeeeeeeeeeeeee",
                "decimals": 18
            }
        ]
    },
    "address_label": {
        "labels": [
            {
                "address": "0x2b591e99afe9f32eaa6214f7b7629768c40eeb39",
                "label": "HEX.com: HEX Token"
            },
            {
                "address": "0x0000000000000000000000000000000000000002",
                "label": "Precompiled"
            },
            {
                "address": "0x0000000000000000000000000000000000000003",
                "label": "Precompiled"
            },
            {
                "address": "0x0000000000000000000000000000000000000001",
                "label": "Precompiled"
            },
            {
                "address": "0x0000000000000000000000000000000000000004",
                "label": "Precompiled"
            },
            {
                "address": "0xeeeeeeeeeeeeeeeeeeeeeeeeeeeeeeeeeeeeeeee",
                "label": "Ether"
            }
        ]
    },
    "trace": {
        "accountLabels": null,
        "dataMap": {
            "-1": {
                "invocation": {
                    "address": "0x29af8c15be076b9f2487bdb324d88c7261d89862",
                    "callData": "",
                    "decodedMethod": null,
                    "errorInfo": "",
                    "fromAddress": "",
                    "gasUsed": 0,
                    "id": -1,
                    "methodDecoded": false,
                    "operation": "",
                    "output": "",
                    "revert": false,
                    "revertMessage": "",
                    "selector": "",
                    "status": false,
                    "value": ""
                },
                "nodeType": 0
            },
            "0": {
                "invocation": {
                    "address": "0x2b591e99afe9f32eaa6214f7b7629768c40eeb39",
                    "callData": "0x0000000000000000000000000000000000000000000000000000000002ca4f48000000000000000000000000000000000000000000000000000000000000016000000000000000000000000029af8c15be076b9f2487bdb324d88c7261d898626d30a3dbef9d8fce67b3b4bcd431ceacb7f52ca19f421ffda2b2fc1bd7e88ce133b059513320fd95ebc5499c5e6081a8ff9f66132e94ac8eccf9bead8296ba830000000000000000000000000000000000000000000000000000000000000006000000000000000000000000000000000000000000000000000000000000001b78fe96b3f6192e43e76e6498c737f6d9e634168299451eea39ae65e755b07b82444a1eff1115eeb1252efaa86b94a48c2b31aaaf8e762a21b995e24fd19d1cc5000000000000000000000000000000000000000000000000000000000000015e0000000000000000000000001df86810739b2d25d64c39e4a04c73ed49de8b46000000000000000000000000000000000000000000000000000000000000001926bc3de817cff0e84f76f4ba422b54186afd12c3000000000000000000000258653d3e36dbbb113c8231b5f320167f0d63d28f36e74b7c05c803d8d7053980a5ac9dd0dff39b325d6e0e86483f1215caf459940dcd856c4ae4c66e0355f6d241efac083308b690b158bcf7e4ab8b611612dc65abbaa5203e6edcfb89791e3ff7bc5c0b59152689321bc20683e7ae33488ec9b486442dda2bddba285c4c1346a7e25092a30344ddff8133c42b16494bc57bb0646d54d114ccebf5d9f37548d7710e54ea6dd225bab1caa7226fac54461df40e3d1b27ecdf8f8322a3d6f61bc35b922296be82c934b6e0685de9c262ff658015185c14ba65be8f1394776e2dececa207bb72b19b3ef8050b96d41ae7b1f0eaed28c0af5534700e50844482618946b24800b7839660be32e14bb0e46e449a1d0410a745daf2d0a8422699c617e2b4c829eb3b52fc794d9a2b030fd0f3e778bb1e7ca0799f5179747223a3779c0c827c122c945407b8242feeab101471513b6ae9b7941f9adfea7113bc45f2b9ca52cc9eff39c03d864f90f3f7d94f75d35ec420f103a8201f72e66e13cf95c507f3cd6496fe28c0262236c346df0f18d86bcb20ea4d882696100dd13d6ae963236a490421b8047550feba564ea14000107f0113c12299779781dc41129e28aa570f9d2982a8da2d0feafa6fc078f775dc69d5e6956d8a2712a0eaf514c18a0ed83a2086572c489b6f90cd87e558509348f0d1d7c4b92ca19fd4978c0d9cc985a171d551c4431a2d501c03ecbcf09910235501a0336a4b6daa4dea25ae1c939e0feb2bec31771d0daa5ee4a6eb0444cdafff64d3f59bd316aa5f0ac32888043361f525e2ca9511d7d5473b0a691a70c5c22043b378e25627d052d5872e4936fb4eb5238d79861d7ef0dc6ec02c30a044b27c6a59fc2bc3f4390826b62498c30666dc6e5d77d8f95dfc74fb9abd8ebc53a0506f3e7478e82f786fb11002374c3f88677be27d3dfb9dba0dc2427484b44c5ac063bf0c162844f604e7f66b5a55c50991e1b6ee2ec8105f5deec5067d7ddb0c2786276e1fba55a4f5d480c6ee6b4380c9630a576191ea666a94424a606bb56d9dd0b37970a26fb48334563b32f092abca",
                    "decodedMethod": {
                        "callParams": [
                            {
                                "name": "rawSatoshis",
                                "type": "uint256",
                                "value": "46,813,000"
                            },
                            {
                                "name": "proof",
                                "type": "bytes32[]",
                                "value": [
                                    "0x26bc3de817cff0e84f76f4ba422b54186afd12c3000000000000000000000258",
                                    "0x653d3e36dbbb113c8231b5f320167f0d63d28f36e74b7c05c803d8d7053980a5",
                                    "0xac9dd0dff39b325d6e0e86483f1215caf459940dcd856c4ae4c66e0355f6d241",
                                    "0xefac083308b690b158bcf7e4ab8b611612dc65abbaa5203e6edcfb89791e3ff7",
                                    "0xbc5c0b59152689321bc20683e7ae33488ec9b486442dda2bddba285c4c1346a7",
                                    "0xe25092a30344ddff8133c42b16494bc57bb0646d54d114ccebf5d9f37548d771",
                                    "0x0e54ea6dd225bab1caa7226fac54461df40e3d1b27ecdf8f8322a3d6f61bc35b",
                                    "0x922296be82c934b6e0685de9c262ff658015185c14ba65be8f1394776e2decec",
                                    "0xa207bb72b19b3ef8050b96d41ae7b1f0eaed28c0af5534700e50844482618946",
                                    "0xb24800b7839660be32e14bb0e46e449a1d0410a745daf2d0a8422699c617e2b4",
                                    "0xc829eb3b52fc794d9a2b030fd0f3e778bb1e7ca0799f5179747223a3779c0c82",
                                    "0x7c122c945407b8242feeab101471513b6ae9b7941f9adfea7113bc45f2b9ca52",
                                    "0xcc9eff39c03d864f90f3f7d94f75d35ec420f103a8201f72e66e13cf95c507f3",
                                    "0xcd6496fe28c0262236c346df0f18d86bcb20ea4d882696100dd13d6ae963236a",
                                    "0x490421b8047550feba564ea14000107f0113c12299779781dc41129e28aa570f",
                                    "0x9d2982a8da2d0feafa6fc078f775dc69d5e6956d8a2712a0eaf514c18a0ed83a",
                                    "0x2086572c489b6f90cd87e558509348f0d1d7c4b92ca19fd4978c0d9cc985a171",
                                    "0xd551c4431a2d501c03ecbcf09910235501a0336a4b6daa4dea25ae1c939e0feb",
                                    "0x2bec31771d0daa5ee4a6eb0444cdafff64d3f59bd316aa5f0ac32888043361f5",
                                    "0x25e2ca9511d7d5473b0a691a70c5c22043b378e25627d052d5872e4936fb4eb5",
                                    "0x238d79861d7ef0dc6ec02c30a044b27c6a59fc2bc3f4390826b62498c30666dc",
                                    "0x6e5d77d8f95dfc74fb9abd8ebc53a0506f3e7478e82f786fb11002374c3f8867",
                                    "0x7be27d3dfb9dba0dc2427484b44c5ac063bf0c162844f604e7f66b5a55c50991",
                                    "0xe1b6ee2ec8105f5deec5067d7ddb0c2786276e1fba55a4f5d480c6ee6b4380c9",
                                    "0x630a576191ea666a94424a606bb56d9dd0b37970a26fb48334563b32f092abca"
                                ]
                            },
                            {
                                "name": "claimToAddr",
                                "type": "address",
                                "value": "0x29af8c15be076b9f2487bdb324d88c7261d89862"
                            },
                            {
                                "name": "pubKeyX",
                                "type": "bytes32",
                                "value": "0x6d30a3dbef9d8fce67b3b4bcd431ceacb7f52ca19f421ffda2b2fc1bd7e88ce1"
                            },
                            {
                                "name": "pubKeyY",
                                "type": "bytes32",
                                "value": "0x33b059513320fd95ebc5499c5e6081a8ff9f66132e94ac8eccf9bead8296ba83"
                            },
                            {
                                "name": "claimFlags",
                                "type": "uint8",
                                "value": "6"
                            },
                            {
                                "name": "v",
                                "type": "uint8",
                                "value": "27"
                            },
                            {
                                "name": "r",
                                "type": "bytes32",
                                "value": "0x78fe96b3f6192e43e76e6498c737f6d9e634168299451eea39ae65e755b07b82"
                            },
                            {
                                "name": "s",
                                "type": "bytes32",
                                "value": "0x444a1eff1115eeb1252efaa86b94a48c2b31aaaf8e762a21b995e24fd19d1cc5"
                            },
                            {
                                "name": "autoStakeDays",
                                "type": "uint256",
                                "value": "350"
                            },
                            {
                                "name": "referrerAddr",
                                "type": "address",
                                "value": "0x1df86810739b2d25d64c39e4a04c73ed49de8b46"
                            }
                        ],
                        "constructorArguments": "",
                        "name": "btcAddressClaim",
                        "returnParams": [
                            {
                                "name": "",
                                "type": "uint256",
                                "value": "613,813,740,380"
                            }
                        ],
                        "signature": "btcAddressClaim(uint256,bytes32[],address,bytes32,bytes32,uint8,uint8,bytes32,bytes32,uint256,address)"
                    },
                    "errorInfo": "",
                    "fromAddress": "0x29af8c15be076b9f2487bdb324d88c7261d89862",
                    "gasUsed": 243085,
                    "id": 0,
                    "methodDecoded": true,
                    "operation": "CALL",
                    "output": "0x0000000000000000000000000000000000000000000000000000008eea26635c",
                    "revert": false,
                    "revertMessage": "",
                    "selector": "0x96f62b9d",
                    "status": true,
                    "value": "0"
                },
                "nodeType": 0
            },
            "1": {
                "invocation": {
                    "address": "0x0000000000000000000000000000000000000002",
                    "callData": "0x636f696e205369676e6564204d6573736167653a0a37436c61696d5f4845585f746f5f307832394146386331356265303736623946323438376244423332344438384337323631643839383632",
                    "decodedMethod": {
                        "callParams": [
                            {
                                "name": "data",
                                "type": "bytes",
                                "value": "0x18426974636f696e205369676e6564204d6573736167653a0a37436c61696d5f4845585f746f5f307832394146386331356265303736623946323438376244423332344438384337323631643839383632"
                            }
                        ],
                        "constructorArguments": "",
                        "name": "sha256hash",
                        "returnParams": [
                            {
                                "name": "hash",
                                "type": "bytes32",
                                "value": "0x9db1a5c5b5ef3fa37bb643d66773377d02eaf176d5c611d16875d7cb40323c2a"
                            }
                        ],
                        "signature": "sha256hash(bytes)"
                    },
                    "errorInfo": "",
                    "fromAddress": "0x2b591e99afe9f32eaa6214f7b7629768c40eeb39",
                    "gasUsed": 96,
                    "id": 1,
                    "methodDecoded": true,
                    "operation": "STATICCALL",
                    "output": "0x9db1a5c5b5ef3fa37bb643d66773377d02eaf176d5c611d16875d7cb40323c2a",
                    "revert": false,
                    "revertMessage": "",
                    "selector": "0x18426974",
                    "status": true,
                    "value": "0"
                },
                "nodeType": 0
            },
            "10": {
                "event": {
                    "contract": "0x2b591e99afe9f32eaa6214f7b7629768c40eeb39",
                    "decodedLog": {
                        "name": "Transfer",
                        "params": [
                            {
                                "name": "from",
                                "type": "address",
                                "value": "0x0000000000000000000000000000000000000000"
                            },
                            {
                                "name": "to",
                                "type": "address",
                                "value": "0x9a6a414d6f3497c05e3b1de90520765fa1e07c03"
                            },
                            {
                                "decimalAvailable": true,
                                "name": "value",
                                "type": "uint256",
                                "value": "271,121,518,456"
                            }
                        ],
                        "signature": "Transfer(address,address,uint256)"
                    },
                    "id": 10,
                    "logData": "0x0000000000000000000000000000000000000000000000000000003f201a0f78",
                    "logDecoded": true,
                    "operation": "EVENT",
                    "revert": false,
                    "status": true,
                    "topics": [
                        "0xddf252ad1be2c89b69c2b068fc378daa952ba7f163c4a11628f55a4df523b3ef",
                        "0x0000000000000000000000000000000000000000000000000000000000000000",
                        "0x0000000000000000000000009a6a414d6f3497c05e3b1de90520765fa1e07c03"
                    ]
                },
                "nodeType": 1
            },
            "11": {
                "event": {
                    "contract": "0x2b591e99afe9f32eaa6214f7b7629768c40eeb39",
                    "decodedLog": {
                        "name": "StakeStart",
                        "params": [
                            {
                                "name": "stakerAddr",
                                "type": "address",
                                "value": "0x29af8c15be076b9f2487bdb324d88c7261d89862"
                            },
                            {
                                "name": "stakeId",
                                "type": "uint40",
                                "value": "33,182"
                            },
                            {
                                "name": "data0",
                                "type": "uint256",
                                "value": "1,615,520,019,287,842,671,214,153,630,604,796,880,954,728,321,192,252,607,750,406"
                            }
                        ],
                        "signature": "StakeStart(uint256,address,uint40)"
                    },
                    "id": 11,
                    "logData": "0x00000000000001015e00000000994577605d00000000809f88f306005deae106",
                    "logDecoded": true,
                    "operation": "EVENT",
                    "revert": false,
                    "status": true,
                    "topics": [
                        "0x14872dc760f33532684e68e1b6d5fd3f71ba7b07dee76bdb2b084f28b74233ef",
                        "0x00000000000000000000000029af8c15be076b9f2487bdb324d88c7261d89862",
                        "0x000000000000000000000000000000000000000000000000000000000000819e"
                    ]
                },
                "nodeType": 1
            },
            "12": {
                "event": {
                    "contract": "0x2b591e99afe9f32eaa6214f7b7629768c40eeb39",
                    "decodedLog": {
                        "name": "Transfer",
                        "params": [
                            {
                                "name": "from",
                                "type": "address",
                                "value": "0x0000000000000000000000000000000000000000"
                            },
                            {
                                "name": "to",
                                "type": "address",
                                "value": "0x29af8c15be076b9f2487bdb324d88c7261d89862"
                            },
                            {
                                "decimalAvailable": true,
                                "name": "value",
                                "type": "uint256",
                                "value": "61,381,374,038"
                            }
                        ],
                        "signature": "Transfer(address,address,uint256)"
                    },
                    "id": 12,
                    "logData": "0x0000000000000000000000000000000000000000000000000000000e4a9d7056",
                    "logDecoded": true,
                    "operation": "EVENT",
                    "revert": false,
                    "status": true,
                    "topics": [
                        "0xddf252ad1be2c89b69c2b068fc378daa952ba7f163c4a11628f55a4df523b3ef",
                        "0x0000000000000000000000000000000000000000000000000000000000000000",
                        "0x00000000000000000000000029af8c15be076b9f2487bdb324d88c7261d89862"
                    ]
                },
                "nodeType": 1
            },
            "2": {
                "invocation": {
                    "address": "0x0000000000000000000000000000000000000002",
                    "callData": "0xb5ef3fa37bb643d66773377d02eaf176d5c611d16875d7cb40323c2a",
                    "decodedMethod": {
                        "callParams": [
                            {
                                "name": "data",
                                "type": "bytes",
                                "value": "0x9db1a5c5b5ef3fa37bb643d66773377d02eaf176d5c611d16875d7cb40323c2a"
                            }
                        ],
                        "constructorArguments": "",
                        "name": "sha256hash",
                        "returnParams": [
                            {
                                "name": "hash",
                                "type": "bytes32",
                                "value": "0xb7a39b3305c06676acf530a0bd91f7ecc22a8dc5f7659411d3cab0fe4c7d7746"
                            }
                        ],
                        "signature": "sha256hash(bytes)"
                    },
                    "errorInfo": "",
                    "fromAddress": "0x2b591e99afe9f32eaa6214f7b7629768c40eeb39",
                    "gasUsed": 72,
                    "id": 2,
                    "methodDecoded": true,
                    "operation": "STATICCALL",
                    "output": "0xb7a39b3305c06676acf530a0bd91f7ecc22a8dc5f7659411d3cab0fe4c7d7746",
                    "revert": false,
                    "revertMessage": "",
                    "selector": "0x9db1a5c5",
                    "status": true,
                    "value": "0"
                },
                "nodeType": 0
            },
            "3": {
                "invocation": {
                    "address": "0x0000000000000000000000000000000000000001",
                    "callData": "0x05c06676acf530a0bd91f7ecc22a8dc5f7659411d3cab0fe4c7d7746000000000000000000000000000000000000000000000000000000000000001b78fe96b3f6192e43e76e6498c737f6d9e634168299451eea39ae65e755b07b82444a1eff1115eeb1252efaa86b94a48c2b31aaaf8e762a21b995e24fd19d1cc5",
                    "decodedMethod": {
                        "callParams": [
                            {
                                "name": "hash",
                                "type": "bytes32",
                                "value": "0xb7a39b3305c06676acf530a0bd91f7ecc22a8dc5f7659411d3cab0fe4c7d7746"
                            },
                            {
                                "name": "v",
                                "type": "uint256",
                                "value": "27"
                            },
                            {
                                "name": "r",
                                "type": "bytes32",
                                "value": "0x78fe96b3f6192e43e76e6498c737f6d9e634168299451eea39ae65e755b07b82"
                            },
                            {
                                "name": "s",
                                "type": "bytes32",
                                "value": "0x444a1eff1115eeb1252efaa86b94a48c2b31aaaf8e762a21b995e24fd19d1cc5"
                            }
                        ],
                        "constructorArguments": "",
                        "name": "ecrecover",
                        "returnParams": [
                            {
                                "name": "",
                                "type": "address",
                                "value": "0x6ca2131cfd5e014c1a88e0b677d725435591a2b7"
                            }
                        ],
                        "signature": "ecrecover(bytes32,uint256,bytes32,bytes32)"
                    },
                    "errorInfo": "",
                    "fromAddress": "0x2b591e99afe9f32eaa6214f7b7629768c40eeb39",
                    "gasUsed": 3000,
                    "id": 3,
                    "methodDecoded": true,
                    "operation": "STATICCALL",
                    "output": "0x0000000000000000000000006ca2131cfd5e014c1a88e0b677d725435591a2b7",
                    "revert": false,
                    "revertMessage": "",
                    "selector": "0xb7a39b33",
                    "status": true,
                    "value": "0"
                },
                "nodeType": 0
            },
            "4": {
                "invocation": {
                    "address": "0x0000000000000000000000000000000000000002",
                    "callData": "0xdbef9d8fce67b3b4bcd431ceacb7f52ca19f421ffda2b2fc1bd7e88ce1",
                    "decodedMethod": {
                        "callParams": [
                            {
                                "name": "data",
                                "type": "bytes",
                                "value": "0x036d30a3dbef9d8fce67b3b4bcd431ceacb7f52ca19f421ffda2b2fc1bd7e88ce1"
                            }
                        ],
                        "constructorArguments": "",
                        "name": "sha256hash",
                        "returnParams": [
                            {
                                "name": "hash",
                                "type": "bytes32",
                                "value": "0xe8ab4a9ce9e961b5a0e3fbf1d8eaf632a2949447055f97b238f96aebdfdf8be2"
                            }
                        ],
                        "signature": "sha256hash(bytes)"
                    },
                    "errorInfo": "",
                    "fromAddress": "0x2b591e99afe9f32eaa6214f7b7629768c40eeb39",
                    "gasUsed": 84,
                    "id": 4,
                    "methodDecoded": true,
                    "operation": "STATICCALL",
                    "output": "0xe8ab4a9ce9e961b5a0e3fbf1d8eaf632a2949447055f97b238f96aebdfdf8be2",
                    "revert": false,
                    "revertMessage": "",
                    "selector": "0x036d30a3",
                    "status": true,
                    "value": "0"
                },
                "nodeType": 0
            },
            "5": {
                "invocation": {
                    "address": "0x0000000000000000000000000000000000000003",
                    "callData": "0xe9e961b5a0e3fbf1d8eaf632a2949447055f97b238f96aebdfdf8be2",
                    "decodedMethod": {
                        "callParams": [
                            {
                                "name": "data",
                                "type": "bytes",
                                "value": "0xe8ab4a9ce9e961b5a0e3fbf1d8eaf632a2949447055f97b238f96aebdfdf8be2"
                            }
                        ],
                        "constructorArguments": "",
                        "name": "ripemd160hash()",
                        "returnParams": [
                            {
                                "name": "hash",
                                "type": "bytes32",
                                "value": "0x000000000000000000000000daa235dc7958f320389fc53b5218386cd6a118c3"
                            }
                        ],
                        "signature": "ripemd160hash(bytes)"
                    },
                    "errorInfo": "",
                    "fromAddress": "0x2b591e99afe9f32eaa6214f7b7629768c40eeb39",
                    "gasUsed": 720,
                    "id": 5,
                    "methodDecoded": true,
                    "operation": "STATICCALL",
                    "output": "0x000000000000000000000000daa235dc7958f320389fc53b5218386cd6a118c3",
                    "revert": false,
                    "revertMessage": "",
                    "selector": "0xe8ab4a9c",
                    "status": true,
                    "value": "0"
                },
                "nodeType": 0
            },
            "6": {
                "invocation": {
                    "address": "0x0000000000000000000000000000000000000002",
                    "callData": "0x35dc7958f320389fc53b5218386cd6a118c3",
                    "decodedMethod": {
                        "callParams": [
                            {
                                "name": "data",
                                "type": "bytes",
                                "value": "0x0014daa235dc7958f320389fc53b5218386cd6a118c3"
                            }
                        ],
                        "constructorArguments": "",
                        "name": "sha256hash",
                        "returnParams": [
                            {
                                "name": "hash",
                                "type": "bytes32",
                                "value": "0x152be879b59ad378dc637d675c2f251bdcb1e9d36acce2290bf766e152327b54"
                            }
                        ],
                        "signature": "sha256hash(bytes)"
                    },
                    "errorInfo": "",
                    "fromAddress": "0x2b591e99afe9f32eaa6214f7b7629768c40eeb39",
                    "gasUsed": 72,
                    "id": 6,
                    "methodDecoded": true,
                    "operation": "STATICCALL",
                    "output": "0x152be879b59ad378dc637d675c2f251bdcb1e9d36acce2290bf766e152327b54",
                    "revert": false,
                    "revertMessage": "",
                    "selector": "0x0014daa2",
                    "status": true,
                    "value": "0"
                },
                "nodeType": 0
            },
            "7": {
                "invocation": {
                    "address": "0x0000000000000000000000000000000000000003",
                    "callData": "0xb59ad378dc637d675c2f251bdcb1e9d36acce2290bf766e152327b54",
                    "decodedMethod": {
                        "callParams": [
                            {
                                "name": "data",
                                "type": "bytes",
                                "value": "0x152be879b59ad378dc637d675c2f251bdcb1e9d36acce2290bf766e152327b54"
                            }
                        ],
                        "constructorArguments": "",
                        "name": "ripemd160hash()",
                        "returnParams": [
                            {
                                "name": "hash",
                                "type": "bytes32",
                                "value": "0x00000000000000000000000026bc3dbcdc14076f6e37188a8e70f3ed67ac2168"
                            }
                        ],
                        "signature": "ripemd160hash(bytes)"
                    },
                    "errorInfo": "",
                    "fromAddress": "0x2b591e99afe9f32eaa6214f7b7629768c40eeb39",
                    "gasUsed": 720,
                    "id": 7,
                    "methodDecoded": true,
                    "operation": "STATICCALL",
                    "output": "0x00000000000000000000000026bc3dbcdc14076f6e37188a8e70f3ed67ac2168",
                    "revert": false,
                    "revertMessage": "",
                    "selector": "0x152be879",
                    "status": true,
                    "value": "0"
                },
                "nodeType": 0
            },
            "8": {
                "event": {
                    "contract": "0x2b591e99afe9f32eaa6214f7b7629768c40eeb39",
                    "decodedLog": {
                        "name": "Claim",
                        "params": [
                            {
                                "name": "btcAddr",
                                "type": "bytes20",
                                "value": "0x26bc3dbcdc14076f6e37188a8e70f3ed67ac2168"
                            },
                            {
                                "name": "claimToAddr",
                                "type": "address",
                                "value": "0x29af8c15be076b9f2487bdb324d88c7261d89862"
                            },
                            {
                                "name": "referrerAddr",
                                "type": "address",
                                "value": "0x1df86810739b2d25d64c39e4a04c73ed49de8b46"
                            },
                            {
                                "name": "data0",
                                "type": "uint256",
                                "value": "897,089,786,581,610,013,929,889,608,619,602,297,692,189,941,469,329,228,488,966"
                            },
                            {
                                "name": "data1",
                                "type": "uint256",
                                "value": "237,983,455,132,072,279,421,120,661,077,219,746,299,956,992,098"
                            }
                        ],
                        "signature": "Claim(uint256,uint256,bytes20,address,address)"
                    },
                    "id": 8,
                    "logData": "0x000000000000008eea26635c0600000002c63a5900000002ca4f48005deae10600000000000000000000000029af8c15be076b9f2487bdb324d88c7261d89862",
                    "logDecoded": true,
                    "operation": "EVENT",
                    "revert": false,
                    "status": true,
                    "topics": [
                        "0x41e3c7dc6eebc97a48a437ff2afdc629613f12c48ba37a2c94563f80acba9725",
                        "0x26bc3dbcdc14076f6e37188a8e70f3ed67ac2168000000000000000000000000",
                        "0x00000000000000000000000029af8c15be076b9f2487bdb324d88c7261d89862",
                        "0x0000000000000000000000001df86810739b2d25d64c39e4a04c73ed49de8b46"
                    ]
                },
                "nodeType": 1
            },
            "9": {
                "event": {
                    "contract": "0x2b591e99afe9f32eaa6214f7b7629768c40eeb39",
                    "decodedLog": {
                        "name": "Transfer",
                        "params": [
                            {
                                "name": "from",
                                "type": "address",
                                "value": "0x0000000000000000000000000000000000000000"
                            },
                            {
                                "name": "to",
                                "type": "address",
                                "value": "0x1df86810739b2d25d64c39e4a04c73ed49de8b46"
                            },
                            {
                                "decimalAvailable": true,
                                "name": "value",
                                "type": "uint256",
                                "value": "122,762,748,076"
                            }
                        ],
                        "signature": "Transfer(address,address,uint256)"
                    },
                    "id": 9,
                    "logData": "0x0000000000000000000000000000000000000000000000000000001c953ae0ac",
                    "logDecoded": true,
                    "operation": "EVENT",
                    "revert": false,
                    "status": true,
                    "topics": [
                        "0xddf252ad1be2c89b69c2b068fc378daa952ba7f163c4a11628f55a4df523b3ef",
                        "0x0000000000000000000000000000000000000000000000000000000000000000",
                        "0x0000000000000000000000001df86810739b2d25d64c39e4a04c73ed49de8b46"
                    ]
                },
                "nodeType": 1
            }
        },
        "gasFlame": [
            {
                "children": [
                    {
                        "children": [
                            {
                                "children": [],
                                "depth": 0,
                                "name": "Initial Gas",
                                "value": 87896
                            },
                            {
                                "children": [
                                    {
                                        "children": [],
                                        "depth": 1,
                                        "name": "sha256hash",
                                        "value": 96
                                    },
                                    {
                                        "children": [],
                                        "depth": 1,
                                        "name": "sha256hash",
                                        "value": 72
                                    },
                                    {
                                        "children": [],
                                        "depth": 1,
                                        "name": "ecrecover",
                                        "value": 3000
                                    },
                                    {
                                        "children": [],
                                        "depth": 1,
                                        "name": "sha256hash",
                                        "value": 84
                                    },
                                    {
                                        "children": [],
                                        "depth": 1,
                                        "name": "ripemd160hash()",
                                        "value": 720
                                    },
                                    {
                                        "children": [],
                                        "depth": 1,
                                        "name": "sha256hash",
                                        "value": 72
                                    },
                                    {
                                        "children": [],
                                        "depth": 1,
                                        "name": "ripemd160hash()",
                                        "value": 720
                                    }
                                ],
                                "depth": 0,
                                "name": "Executed Gas",
                                "value": 155189
                            }
                        ],
                        "depth": -1,
                        "name": "Actual Gas Used",
                        "value": 243085
                    },
                    {
                        "children": [],
                        "depth": -1,
                        "name": "Refunded Gas",
                        "value": 0
                    }
                ],
                "depth": -2,
                "name": "Total Gas",
                "value": 243085
            }
        ],
        "isConfirmed": true,
        "mainTrace": [
            {
                "children": [
                    {
                        "children": [
                            {
                                "children": [],
                                "depth": 1,
                                "id": 1,
                                "order": 1
                            },
                            {
                                "children": [],
                                "depth": 1,
                                "id": 2,
                                "order": 2
                            },
                            {
                                "children": [],
                                "depth": 1,
                                "id": 3,
                                "order": 3
                            },
                            {
                                "children": [],
                                "depth": 1,
                                "id": 4,
                                "order": 4
                            },
                            {
                                "children": [],
                                "depth": 1,
                                "id": 5,
                                "order": 5
                            },
                            {
                                "children": [],
                                "depth": 1,
                                "id": 6,
                                "order": 6
                            },
                            {
                                "children": [],
                                "depth": 1,
                                "id": 7,
                                "order": 7
                            },
                            {
                                "children": [],
                                "depth": 1,
                                "id": 8,
                                "order": 8
                            },
                            {
                                "children": [],
                                "depth": 1,
                                "id": 9,
                                "order": 9
                            },
                            {
                                "children": [],
                                "depth": 1,
                                "id": 10,
                                "order": 10
                            },
                            {
                                "children": [],
                                "depth": 1,
                                "id": 11,
                                "order": 11
                            },
                            {
                                "children": [],
                                "depth": 1,
                                "id": 12,
                                "order": 12
                            }
                        ],
                        "depth": 0,
                        "id": 0,
                        "order": 0
                    }
                ],
                "depth": -1,
                "id": -1,
                "order": -1
            }
        ],
        "mainTraceNodeCount": 13,
        "parentIdMap": {
            "0": -1,
            "1": 0,
            "10": 0,
            "11": 0,
            "12": 0,
            "2": 0,
            "3": 0,
            "4": 0,
            "5": 0,
            "6": 0,
            "7": 0,
            "8": 0,
            "9": 0
        },
        "tidyTrace": [
            {
                "children": [
                    {
                        "children": [
                            {
                                "children": [],
                                "depth": 1,
                                "id": 8,
                                "order": 8
                            },
                            {
                                "children": [],
                                "depth": 1,
                                "id": 9,
                                "order": 9
                            },
                            {
                                "children": [],
                                "depth": 1,
                                "id": 10,
                                "order": 10
                            },
                            {
                                "children": [],
                                "depth": 1,
                                "id": 11,
                                "order": 11
                            },
                            {
                                "children": [],
                                "depth": 1,
                                "id": 12,
                                "order": 12
                            }
                        ],
                        "depth": 0,
                        "id": 0,
                        "order": 0
                    }
                ],
                "depth": -1,
                "id": -1,
                "order": -1
            }
        ],
        "tidyTraceNodeCount": 6
    },
    "state_change": {
        "stateChanges": [
            {
                "address": "0x2b591e99afe9f32eaa6214f7b7629768c40eeb39",
                "erc": "ERC-20",
                "slots": [
                    {
                        "current": "0x0000000000000000000000000000000000000000000000000000004a509eeb05",
                        "key": "0xdbb55aad020a9e6f89b9998a40c4e64a2bfa5cf367f85a77289abdbb5246cda0",
                        "prev": "0x0000000000000000000000000000000000000000000000000000003c06017aaf"
                    },
                    {
                        "current": "0x00137dc060b1812757fe601354ed5a1f000000819e000a918845c4c6c7e80003",
                        "key": "0x0000000000000000000000000000000000000000000000000000000000000004",
                        "prev": "0x00137d8060b16ad4ddbe601357b39478000000819d000a918845c4c6c7e80003"
                    },
                    {
                        "current": "0x000000000000000000000000000000000000000000000000000000000000000e",
                        "key": "0x46e68d86065be4988b9b177dd5081646c5c0aa60e5947c6d89096af770769156",
                        "prev": "0x000000000000000000000000000000000000000000000000000000000000000d"
                    },
                    {
                        "current": "0x0000010000015e000400000000994577605d00000000809f88f306000000819e",
                        "key": "0x3fb213bac67c00ecd22208b98271de25d75d33885fbb1bf077f7f12273c68577",
                        "prev": "0x0000000000000000000000000000000000000000000000000000000000000000"
                    },
                    {
                        "current": "0x00000002e031d87f4300000186ab00014d20b162174fa700070d46b10e20e001",
                        "key": "0x0000000000000000000000000000000000000000000000000000000000000003",
                        "prev": "0x00000002e031d87f4300000186ab00014d20181c9fef4a00070d46306e97ecfb"
                    },
                    {
                        "current": "0x000000000000000000000000000000000000000000000000024af4fb551888a8",
                        "key": "0x0000000000000000000000000000000000000000000000000000000000000002",
                        "prev": "0x000000000000000000000000000000000000000000000000024af4915526282e"
                    },
                    {
                        "current": "0x0000000000000000000000000000000000000000000000000000126c6e0188ea",
                        "key": "0x0af4bcd5c0dae04341e2044f1a12c27e6567a16b1d7ad2ecea2b213259330aa9",
                        "prev": "0x0000000000000000000000000000000000000000000000000000124fd8c6a83e"
                    },
                    {
                        "current": "0x000000000000000000000000000000000000000000000000003e373ffa8a2c31",
                        "key": "0xeb60b90da10420aa177acf4901d8bf9dc896f1b6a6736e8a4c587042f1830c24",
                        "prev": "0x000000000000000000000000000000000000000000000000003e3700da701cb9"
                    },
                    {
                        "current": "0x0000000000000000000000000000000000000000000000000000000000000001",
                        "key": "0xdc4edcc44a2f628a89294f10fe0517e1de0fef18496dc3bc89c1ecc7a83eb7eb",
                        "prev": "0x0000000000000000000000000000000000000000000000000000000000000000"
                    }
                ],
                "storageVariables": [
                    {
                        "name": "stakeLists",
                        "type": "mapping(address => struct GlobalsAndUtility.StakeStore[])",
                        "value": {
                            "pairs": [
                                {
                                    "key": "0x29af8c15be076b9f2487bdb324d88c7261d89862",
                                    "value": {
                                        "elemType": "struct GlobalsAndUtility.StakeStore",
                                        "elems": [
                                            {
                                                "index": 13,
                                                "value": {
                                                    "fields": [
                                                        {
                                                            "name": "stakeId",
                                                            "type": "uint40",
                                                            "value": {
                                                                "current": "33182",
                                                                "prev": "0",
                                                                "typeTag": 1
                                                            }
                                                        },
                                                        {
                                                            "name": "stakedHearts",
                                                            "type": "uint72",
                                                            "value": {
                                                                "current": "552432366342",
                                                                "prev": "0",
                                                                "typeTag": 1
                                                            }
                                                        },
                                                        {
                                                            "name": "stakeShares",
                                                            "type": "uint72",
                                                            "value": {
                                                                "current": "658295447645",
                                                                "prev": "0",
                                                                "typeTag": 1
                                                            }
                                                        },
                                                        {
                                                            "name": "lockedDay",
                                                            "type": "uint16",
                                                            "value": {
                                                                "current": "4",
                                                                "prev": "0",
                                                                "typeTag": 1
                                                            }
                                                        },
                                                        {
                                                            "name": "stakedDays",
                                                            "type": "uint16",
                                                            "value": {
                                                                "current": "350",
                                                                "prev": "0",
                                                                "typeTag": 1
                                                            }
                                                        },
                                                        {
                                                            "name": "unlockedDay",
                                                            "type": "uint16",
                                                            "value": {
                                                                "current": "0",
                                                                "prev": "0",
                                                                "typeTag": 1
                                                            }
                                                        },
                                                        {
                                                            "name": "isAutoStake",
                                                            "type": "bool",
                                                            "value": {
                                                                "current": "true",
                                                                "prev": "false",
                                                                "typeTag": 1
                                                            }
                                                        }
                                                    ],
                                                    "typeTag": 3
                                                }
                                            }
                                        ],
                                        "typeTag": 2
                                    }
                                }
                            ],
                            "typeTag": 4
                        }
                    },
                    {
                        "name": "_balances",
                        "type": "mapping(address => uint256)",
                        "value": {
                            "pairs": [
                                {
                                    "key": "0x1df86810739b2d25d64c39e4a04c73ed49de8b46",
                                    "value": {
                                        "current": "20256911362282",
                                        "prev": "20134148614206",
                                        "typeTag": 1
                                    }
                                },
                                {
                                    "key": "0x29af8c15be076b9f2487bdb324d88c7261d89862",
                                    "value": {
                                        "current": "319180172037",
                                        "prev": "257798797999",
                                        "typeTag": 1
                                    }
                                },
                                {
                                    "key": "0x9a6a414d6f3497c05e3b1de90520765fa1e07c03",
                                    "value": {
                                        "current": "17512196481887281",
                                        "prev": "17511925360368825",
                                        "typeTag": 1
                                    }
                                }
                            ],
                            "typeTag": 4
                        }
                    },
                    {
                        "name": "btcAddressClaims",
                        "type": "mapping(bytes20 => bool)",
                        "value": {
                            "pairs": [
                                {
                                    "key": "0x26bc3dbcdc14076f6e37188a8e70f3ed67ac2168",
                                    "value": {
                                        "current": "true",
                                        "prev": "false",
                                        "typeTag": 1
                                    }
                                }
                            ],
                            "typeTag": 4
                        }
                    },
                    {
                        "name": "globals",
                        "type": "struct GlobalsAndUtility.GlobalsStore",
                        "value": {
                            "fields": [
                                {
                                    "name": "lockedHeartsTotal",
                                    "type": "uint72",
                                    "value": {
                                        "current": "508140059222925313",
                                        "prev": "508139506790558971",
                                        "typeTag": 1
                                    }
                                },
                                {
                                    "name": "nextStakeSharesTotal",
                                    "type": "uint72",
                                    "value": {
                                        "current": "93767113471643559",
                                        "prev": "93766455176195914",
                                        "typeTag": 1
                                    }
                                },
                                {
                                    "name": "shareRate",
                                    "type": "uint40",
                                    "value": {
                                        "current": "100011",
                                        "prev": "100011",
                                        "typeTag": 1
                                    }
                                },
                                {
                                    "name": "stakePenaltyTotal",
                                    "type": "uint72",
                                    "value": {
                                        "current": "3161932201795",
                                        "prev": "3161932201795",
                                        "typeTag": 1
                                    }
                                },
                                {
                                    "name": "dailyDataCount",
                                    "type": "uint16",
                                    "value": {
                                        "current": "3",
                                        "prev": "3",
                                        "typeTag": 1
                                    }
                                },
                                {
                                    "name": "stakeSharesTotal",
                                    "type": "uint72",
                                    "value": {
                                        "current": "761539645237807080",
                                        "prev": "761539645237807080",
                                        "typeTag": 1
                                    }
                                },
                                {
                                    "name": "latestStakeId",
                                    "type": "uint40",
                                    "value": {
                                        "current": "33182",
                                        "prev": "33181",
                                        "typeTag": 1
                                    }
                                },
                                {
                                    "name": "claimStats",
                                    "type": "uint128",
                                    "value": {
                                        "current": "101204183244971646458726779041176095",
                                        "prev": "101199112642465320036442744760276088",
                                        "typeTag": 1
                                    }
                                }
                            ],
                            "typeTag": 3
                        }
                    },
                    {
                        "name": "_totalSupply",
                        "type": "uint256",
                        "value": {
                            "current": "165213696654084264",
                            "prev": "165213241388443694",
                            "typeTag": 1
                        }
                    }
                ]
            }
        ]
    }
}