{
    "balance_change": {
        "balanceChanges": []
    },
    "profile": {
        "basic_info": {
            "baseFee": "248.192398902",
            "blockNumber": 13960270,
            "callData": "0xc18a84bc000000000000000000000000c12167b1187855d8c18af2ff7e6ae3086c2ae84400000000000000000000000000000000000000000000000000000000000000400000000000000000000000000000000000000000000000000000000000000144883df23000000000000000000000000000000000000000000000000000000000000000e0000000000000000000000000c02aaa39b223fe8d0a0e5c4f27ead9083c756cc2000000000000000000000000000000000000000000000000ada39e342708a1d80000000000000000000000000000000000000000000055e450a97d8ddbc12f800000000000000000000000000000000000000000000000000000000061d899f20000000000000000000000005d7b4563f794f52423181c8320cdd3bf8fdf55d7000000000000000000000000000000000000000000000018885f835bc9c0a1ff000000000000000000000000000000000000000000000000000000000000002bc02aaa39b223fe8d0a0e5c4f27ead9083c756cc2000bb87a58c0be72be218b41c608b7fe7c5bb630736c7100000000000000000000000000000000000000000000000000000000000000000000000000000000000000000000000000",
            "debugEnable": true,
            "errorInfo": "",
            "eventCount": 0,
            "feeRecipient": "0x829bd824b016326a401d083b33d092293333a830",
            "formatValue": "0",
            "gasLimit": 700000,
            "gasPrice": "302",
            "gasUsed": 41513,
            "intTxnCount": 3,
            "internalRevert": false,
            "internalRevertMessage": "",
            "isContractCreation": false,
            "isFlashloan": false,
            "maxFee": "",
            "nonce": 49414,
            "overwritedBlockNumber": -1,
            "priorityFee": "",
            "receiver": "0x4d246be90c2f36730bb853ad41d0a189061192d3",
            "revertMessage": "",
            "sender": "0x287dc8295e10878be9e20cb72e28c0e89bfe73b7",
            "simulationEnable": true,
            "sourceTxnHash": "0x09942bff5636eac676e086e04ac9dbcfcdabc6536427115b1f551d455ab2eb6a",
            "status": true,
            "timestamp": "2022-01-07T19:50:17Z",
            "transactionFee": "0.012536926",
            "txnHash": "0x09942bff5636eac676e086e04ac9dbcfcdabc6536427115b1f551d455ab2eb6a",
            "txnIndex": 9,
            "type": 0,
            "value": "0"
        },
        "fund_flow": [],
        "token_infos": [
            {
                "address": "0xc02aaa39b223fe8d0a0e5c4f27ead9083c756cc2",
                "decimals": 18
            },
            {
                "address": "0xeeeeeeeeeeeeeeeeeeeeeeeeeeeeeeeeeeeeeeee",
                "decimals": 18
            }
        ]
    },
    "address_label": {
        "labels": [
            {
                "address": "0x4d246be90c2f36730bb853ad41d0a189061192d3",
                "label": "MEV Bot: 0x4d2...2d3"
            },
            {
                "address": "0x0000000000b3f879cb30fe243b4dfee438691c04",
                "label": "GasToken.io: GST2 Token"
            },
            {
                "address": "0x0000000000000000000000000000000000000003",
                "label": "Precompiled"
            },
            {
                "address": "0x0000000000000000000000000000000000000004",
                "label": "Precompiled"
            },
            {
                "address": "0xeeeeeeeeeeeeeeeeeeeeeeeeeeeeeeeeeeeeeeee",
                "label": "Ether"
            },
            {
                "address": "0xc02aaa39b223fe8d0a0e5c4f27ead9083c756cc2",
                "label": "Wrapped Ether (WETH)"
            },
            {
                "address": "0x5d7b4563f794f52423181c8320cdd3bf8fdf55d7",
                "label": "Uniswap V3: PEOPLE 2"
            },
            {
                "address": "0x0000000000000000000000000000000000000001",
                "label": "Precompiled"
            },
            {
                "address": "0x0000000000000000000000000000000000000002",
                "label": "Precompiled"
            }
        ]
    },
    "trace": {
        "accountLabels": null,
        "dataMap": {
            "-1": {
                "invocation": {
                    "address": "0x287dc8295e10878be9e20cb72e28c0e89bfe73b7",
                    "callData": "",
                    "decodedMethod": null,
                    "errorInfo": "",
                    "fromAddress": "",
                    "gasUsed": 0,
                    "id": -1,
                    "methodDecoded": false,
                    "operation": "",
                    "output": "",
                    "revert": false,
                    "revertMessage": "",
                    "selector": "",
                    "status": false,
                    "value": ""
                },
                "nodeType": 0
            },
            "0": {
                "invocation": {
                    "address": "0x4d246be90c2f36730bb853ad41d0a189061192d3",
                    "callData": "0x000000000000000000000000c12167b1187855d8c18af2ff7e6ae3086c2ae84400000000000000000000000000000000000000000000000000000000000000400000000000000000000000000000000000000000000000000000000000000144883df23000000000000000000000000000000000000000000000000000000000000000e0000000000000000000000000c02aaa39b223fe8d0a0e5c4f27ead9083c756cc2000000000000000000000000000000000000000000000000ada39e342708a1d80000000000000000000000000000000000000000000055e450a97d8ddbc12f800000000000000000000000000000000000000000000000000000000061d899f20000000000000000000000005d7b4563f794f52423181c8320cdd3bf8fdf55d7000000000000000000000000000000000000000000000018885f835bc9c0a1ff000000000000000000000000000000000000000000000000000000000000002bc02aaa39b223fe8d0a0e5c4f27ead9083c756cc2000bb87a58c0be72be218b41c608b7fe7c5bb630736c7100000000000000000000000000000000000000000000000000000000000000000000000000000000000000000000000000",
                    "decodedMethod": null,
                    "errorInfo": "",
                    "fromAddress": "0x287dc8295e10878be9e20cb72e28c0e89bfe73b7",
                    "gasUsed": 41513,
                    "id": 0,
                    "methodDecoded": false,
                    "operation": "CALL",
                    "output": "",
                    "revert": false,
                    "revertMessage": "",
                    "selector": "0xc18a84bc",
                    "status": true,
                    "value": "0"
                },
                "nodeType": 0
            },
            "1": {
                "invocation": {
                    "address": "0xc12167b1187855d8c18af2ff7e6ae3086c2ae844",
                    "callData": "0x00000000000000000000000000000000000000000000000000000000000000e0000000000000000000000000c02aaa39b223fe8d0a0e5c4f27ead9083c756cc2000000000000000000000000000000000000000000000000ada39e342708a1d80000000000000000000000000000000000000000000055e450a97d8ddbc12f800000000000000000000000000000000000000000000000000000000061d899f20000000000000000000000005d7b4563f794f52423181c8320cdd3bf8fdf55d7000000000000000000000000000000000000000000000018885f835bc9c0a1ff000000000000000000000000000000000000000000000000000000000000002bc02aaa39b223fe8d0a0e5c4f27ead9083c756cc2000bb87a58c0be72be218b41c608b7fe7c5bb630736c71000000000000000000000000000000000000000000",
                    "decodedMethod": null,
                    "errorInfo": "",
                    "fromAddress": "0x4d246be90c2f36730bb853ad41d0a189061192d3",
                    "gasUsed": 12404,
                    "id": 1,
                    "methodDecoded": false,
                    "operation": "DELEGATECALL",
                    "output": "",
                    "revert": false,
                    "revertMessage": "",
                    "selector": "0x883df230",
                    "status": true,
                    "value": "0"
                },
                "nodeType": 0
            },
            "2": {
                "invocation": {
                    "address": "0xc02aaa39b223fe8d0a0e5c4f27ead9083c756cc2",
                    "callData": "0x0000000000000000000000005d7b4563f794f52423181c8320cdd3bf8fdf55d7",
                    "decodedMethod": {
                        "callParams": [
                            {
                                "name": "",
                                "type": "address",
                                "value": "0x5d7b4563f794f52423181c8320cdd3bf8fdf55d7"
                            }
                        ],
                        "constructorArguments": "",
                        "name": "balanceOf",
                        "returnParams": [
                            {
                                "decimalAvailable": true,
                                "name": "",
                                "type": "uint256",
                                "value": "465,060,593,247,820,792,791"
                            }
                        ],
                        "signature": "balanceOf(address)"
                    },
                    "errorInfo": "",
                    "fromAddress": "0x4d246be90c2f36730bb853ad41d0a189061192d3",
                    "gasUsed": 2534,
                    "id": 2,
                    "methodDecoded": true,
                    "operation": "CALL",
                    "output": "0x0000000000000000000000000000000000000000000000193603218ff0c943d7",
                    "revert": false,
                    "revertMessage": "",
                    "selector": "0x70a08231",
                    "status": true,
                    "value": "0"
                },
                "nodeType": 0
            },
            "3": {
                "invocation": {
                    "address": "0x0000000000b3f879cb30fe243b4dfee438691c04",
                    "callData": "0x0000000000000000000000000000000000000000000000000000000000000002",
                    "decodedMethod": {
                        "callParams": [
                            {
                                "name": "value",
                                "type": "uint256",
                                "value": "2"
                            }
                        ],
                        "constructorArguments": "",
                        "name": "free",
                        "returnParams": [
                            {
                                "name": "success",
                                "type": "bool",
                                "value": false
                            }
                        ],
                        "signature": "free(uint256)"
                    },
                    "errorInfo": "",
                    "fromAddress": "0x4d246be90c2f36730bb853ad41d0a189061192d3",
                    "gasUsed": 2745,
                    "id": 3,
                    "methodDecoded": true,
                    "operation": "CALL",
                    "output": "0x0000000000000000000000000000000000000000000000000000000000000000",
                    "revert": false,
                    "revertMessage": "",
                    "selector": "0xd8ccd0f3",
                    "status": true,
                    "value": "0"
                },
                "nodeType": 0
            }
        },
        "gasFlame": [
            {
                "children": [
                    {
                        "children": [
                            {
                                "children": [],
                                "depth": 0,
                                "name": "Initial Gas",
                                "value": 24560
                            },
                            {
                                "children": [
                                    {
                                        "children": [
                                            {
                                                "children": [],
                                                "depth": 2,
                                                "name": "balanceOf",
                                                "value": 2534
                                            },
                                            {
                                                "children": [],
                                                "depth": 2,
                                                "name": "free",
                                                "value": 2745
                                            }
                                        ],
                                        "depth": 1,
                                        "name": "0x883df230",
                                        "value": 12404
                                    }
                                ],
                                "depth": 0,
                                "name": "Executed Gas",
                                "value": 16953
                            }
                        ],
                        "depth": -1,
                        "name": "Actual Gas Used",
                        "value": 41513
                    },
                    {
                        "children": [],
                        "depth": -1,
                        "name": "Refunded Gas",
                        "value": 0
                    }
                ],
                "depth": -2,
                "name": "Total Gas",
                "value": 41513
            }
        ],
        "isConfirmed": true,
        "mainTrace": [
            {
                "children": [
                    {
                        "children": [
                            {
                                "children": [
                                    {
                                        "children": [],
                                        "depth": 2,
                                        "id": 2,
                                        "order": 2
                                    },
                                    {
                                        "children": [],
                                        "depth": 2,
                                        "id": 3,
                                        "order": 3
                                    }
                                ],
                                "depth": 1,
                                "id": 1,
                                "order": 1
                            }
                        ],
                        "depth": 0,
                        "id": 0,
                        "order": 0
                    }
                ],
                "depth": -1,
                "id": -1,
                "order": -1
            }
        ],
        "mainTraceNodeCount": 4,
        "parentIdMap": {
            "0": -1,
            "1": 0,
            "2": 1,
            "3": 1
        },
        "tidyTrace": [
            {
                "children": [
                    {
                        "children": [
                            {
                                "children": [
                                    {
                                        "children": [],
                                        "depth": 2,
                                        "id": 2,
                                        "order": 2
                                    },
                                    {
                                        "children": [],
                                        "depth": 2,
                                        "id": 3,
                                        "order": 3
                                    }
                                ],
                                "depth": 1,
                                "id": 1,
                                "order": 1
                            }
                        ],
                        "depth": 0,
                        "id": 0,
                        "order": 0
                    }
                ],
                "depth": -1,
                "id": -1,
                "order": -1
            }
        ],
        "tidyTraceNodeCount": 4
    },
    "state_change": {
        "stateChanges": []
    }
}