{
    "balance_change": {
        "balanceChanges": []
    },
    "profile": {
        "basic_info": {
            "baseFee": "18.539565034",
            "blockNumber": 16357821,
            "callData": "0xca120b1f00000000000000000000000044e9d011df8741be2493e99297e9ad67bb1aa85b17e6fe316a057e8de74b774508b67db2fedb367b693ab5cf0307202583dc6b2b000000000000000000000000d07dc4262bcdbf85190c01c996b4c06a461d2430000000000000000000000000000000000000000000000000000000000000748d0000000000000000000000000000000000000000000000000000000000000002000000000000000000000000000000000000000000000000000000000000000000000000000000000000000000000000000000000000000000000000000000000000000000000000000000000000000000000000000000000000000000000000",
            "debugEnable": true,
            "errorInfo": "",
            "eventCount": 1,
            "feeRecipient": "0x95222290dd7278aa3ddd389cc1e1d165cc4bafe5",
            "formatValue": "0",
            "gasLimit": 70035,
            "gasPrice": "20.539565034",
            "gasUsed": 63668,
            "intTxnCount": 1,
            "internalRevert": false,
            "internalRevertMessage": "",
            "isContractCreation": false,
            "isFlashloan": false,
            "maxFee": "32.801164791",
            "nonce": 10565,
            "overwritedBlockNumber": -1,
            "priorityFee": "2",
            "receiver": "0x09eab21c40743b2364b94345419138ef80f39e30",
            "revertMessage": "",
            "sender": "0x44e9d011df8741be2493e99297e9ad67bb1aa85b",
            "simulationEnable": true,
            "sourceTxnHash": "0x0907b43372c5ec1eb4467b121e8f2c867654072ce6d3b63da867b6a8ea75d9c2",
            "status": true,
            "timestamp": "2023-01-07T22:14:23Z",
            "transactionFee": "0.001307713026584712",
            "txnHash": "0x0907b43372c5ec1eb4467b121e8f2c867654072ce6d3b63da867b6a8ea75d9c2",
            "txnIndex": 43,
            "type": 2,
            "value": "0"
        },
        "fund_flow": [],
        "token_infos": [
            {
                "address": "0xc02aaa39b223fe8d0a0e5c4f27ead9083c756cc2",
                "decimals": 18
            },
            {
                "address": "0xeeeeeeeeeeeeeeeeeeeeeeeeeeeeeeeeeeeeeeee",
                "decimals": 18
            }
        ]
    },
    "address_label": {
        "labels": [
            {
                "address": "0xeeeeeeeeeeeeeeeeeeeeeeeeeeeeeeeeeeeeeeee",
                "label": "Ether"
            },
            {
                "address": "0xd07dc4262bcdbf85190c01c996b4c06a461d2430",
                "label": "Rarible: RARI Token 3"
            },
            {
                "address": "0x09eab21c40743b2364b94345419138ef80f39e30",
                "label": "Rarible: Exchange V1"
            },
            {
                "address": "0xed1f5f8724cc185d4e48a71a7fac64fa5216e4a8",
                "label": "ExchangeStateV1"
            },
            {
                "address": "0x0000000000000000000000000000000000000002",
                "label": "Precompiled"
            },
            {
                "address": "0x44e9d011df8741be2493e99297e9ad67bb1aa85b",
                "label": "WizardX"
            },
            {
                "address": "0x0000000000000000000000000000000000000000",
                "label": "Null Address"
            },
            {
                "address": "0x0000000000000000000000000000000000000001",
                "label": "Precompiled"
            },
            {
                "address": "0x0000000000000000000000000000000000000003",
                "label": "Precompiled"
            },
            {
                "address": "0x0000000000000000000000000000000000000004",
                "label": "Precompiled"
            }
        ]
    },
    "trace": {
        "accountLabels": null,
        "dataMap": {
            "-1": {
                "invocation": {
                    "address": "0x44e9d011df8741be2493e99297e9ad67bb1aa85b",
                    "callData": "",
                    "decodedMethod": null,
                    "errorInfo": "",
                    "fromAddress": "",
                    "gasUsed": 0,
                    "id": -1,
                    "methodDecoded": false,
                    "operation": "",
                    "output": "",
                    "revert": false,
                    "revertMessage": "",
                    "selector": "",
                    "status": false,
                    "value": ""
                },
                "nodeType": 0
            },
            "0": {
                "invocation": {
                    "address": "0x09eab21c40743b2364b94345419138ef80f39e30",
                    "callData": "0x00000000000000000000000044e9d011df8741be2493e99297e9ad67bb1aa85b17e6fe316a057e8de74b774508b67db2fedb367b693ab5cf0307202583dc6b2b000000000000000000000000d07dc4262bcdbf85190c01c996b4c06a461d2430000000000000000000000000000000000000000000000000000000000000748d0000000000000000000000000000000000000000000000000000000000000002000000000000000000000000000000000000000000000000000000000000000000000000000000000000000000000000000000000000000000000000000000000000000000000000000000000000000000000000000000000000000000000000",
                    "decodedMethod": {
                        "callParams": [
                            {
                                "name": "key",
                                "type": "(address,uint256,(address,uint256,uint8),(address,uint256,uint8))",
                                "value": [
                                    {
                                        "name": "owner",
                                        "type": "address",
                                        "value": "0x44e9d011df8741be2493e99297e9ad67bb1aa85b"
                                    },
                                    {
                                        "name": "salt",
                                        "type": "uint256",
                                        "value": "10,811,324,718,088,989,984,473,938,812,014,012,052,988,873,321,365,982,135,908,005,310,249,394,006,827"
                                    },
                                    {
                                        "name": "sellAsset",
                                        "type": "(address,uint256,uint8)",
                                        "value": [
                                            {
                                                "name": "token",
                                                "type": "address",
                                                "value": "0xd07dc4262bcdbf85190c01c996b4c06a461d2430"
                                            },
                                            {
                                                "name": "tokenId",
                                                "type": "uint256",
                                                "value": "29,837"
                                            },
                                            {
                                                "name": "assetType",
                                                "type": "uint8",
                                                "value": "2"
                                            }
                                        ]
                                    },
                                    {
                                        "name": "buyAsset",
                                        "type": "(address,uint256,uint8)",
                                        "value": [
                                            {
                                                "name": "token",
                                                "type": "address",
                                                "value": "0x0000000000000000000000000000000000000000"
                                            },
                                            {
                                                "name": "tokenId",
                                                "type": "uint256",
                                                "value": "0"
                                            },
                                            {
                                                "name": "assetType",
                                                "type": "uint8",
                                                "value": "0"
                                            }
                                        ]
                                    }
                                ]
                            }
                        ],
                        "constructorArguments": "",
                        "name": "cancel",
                        "returnParams": [],
                        "signature": "cancel((address,uint256,(address,uint256,uint8),(address,uint256,uint8)))"
                    },
                    "errorInfo": "",
                    "fromAddress": "0x44e9d011df8741be2493e99297e9ad67bb1aa85b",
                    "gasUsed": 63668,
                    "id": 0,
                    "methodDecoded": true,
                    "operation": "CALL",
                    "output": "",
                    "revert": false,
                    "revertMessage": "",
                    "selector": "0xca120b1f",
                    "status": true,
                    "value": "0"
                },
                "nodeType": 0
            },
            "1": {
                "invocation": {
                    "address": "0xed1f5f8724cc185d4e48a71a7fac64fa5216e4a8",
                    "callData": "0x00000000000000000000000044e9d011df8741be2493e99297e9ad67bb1aa85b17e6fe316a057e8de74b774508b67db2fedb367b693ab5cf0307202583dc6b2b000000000000000000000000d07dc4262bcdbf85190c01c996b4c06a461d2430000000000000000000000000000000000000000000000000000000000000748d0000000000000000000000000000000000000000000000000000000000000002000000000000000000000000000000000000000000000000000000000000000000000000000000000000000000000000000000000000000000000000000000000000000000000000000000000000000000000000000000000000000000000000ffffffffffffffffffffffffffffffffffffffffffffffffffffffffffffffff",
                    "decodedMethod": {
                        "callParams": [
                            {
                                "name": "key",
                                "type": "(address,uint256,(address,uint256,uint8),(address,uint256,uint8))",
                                "value": [
                                    {
                                        "name": "owner",
                                        "type": "address",
                                        "value": "0x44e9d011df8741be2493e99297e9ad67bb1aa85b"
                                    },
                                    {
                                        "name": "salt",
                                        "type": "uint256",
                                        "value": "10,811,324,718,088,989,984,473,938,812,014,012,052,988,873,321,365,982,135,908,005,310,249,394,006,827"
                                    },
                                    {
                                        "name": "sellAsset",
                                        "type": "(address,uint256,uint8)",
                                        "value": [
                                            {
                                                "name": "token",
                                                "type": "address",
                                                "value": "0xd07dc4262bcdbf85190c01c996b4c06a461d2430"
                                            },
                                            {
                                                "name": "tokenId",
                                                "type": "uint256",
                                                "value": "29,837"
                                            },
                                            {
                                                "name": "assetType",
                                                "type": "uint8",
                                                "value": "2"
                                            }
                                        ]
                                    },
                                    {
                                        "name": "buyAsset",
                                        "type": "(address,uint256,uint8)",
                                        "value": [
                                            {
                                                "name": "token",
                                                "type": "address",
                                                "value": "0x0000000000000000000000000000000000000000"
                                            },
                                            {
                                                "name": "tokenId",
                                                "type": "uint256",
                                                "value": "0"
                                            },
                                            {
                                                "name": "assetType",
                                                "type": "uint8",
                                                "value": "0"
                                            }
                                        ]
                                    }
                                ]
                            },
                            {
                                "name": "newCompleted",
                                "type": "uint256",
                                "value": "115,792,089,237,316,195,423,570,985,008,687,907,853,269,984,665,640,564,039,457,584,007,913,129,639,935"
                            }
                        ],
                        "constructorArguments": "",
                        "name": "setCompleted",
                        "returnParams": [],
                        "signature": "setCompleted((address,uint256,(address,uint256,uint8),(address,uint256,uint8)),uint256)"
                    },
                    "errorInfo": "",
                    "fromAddress": "0x09eab21c40743b2364b94345419138ef80f39e30",
                    "gasUsed": 28310,
                    "id": 1,
                    "methodDecoded": true,
                    "operation": "CALL",
                    "output": "",
                    "revert": false,
                    "revertMessage": "",
                    "selector": "0x3a076e9a",
                    "status": true,
                    "value": "0"
                },
                "nodeType": 0
            },
            "2": {
                "event": {
                    "contract": "0x09eab21c40743b2364b94345419138ef80f39e30",
                    "decodedLog": {
                        "name": "Cancel",
                        "params": [
                            {
                                "name": "sellToken",
                                "type": "address",
                                "value": "0xd07dc4262bcdbf85190c01c996b4c06a461d2430"
                            },
                            {
                                "name": "sellTokenId",
                                "type": "uint256",
                                "value": "29,837"
                            },
                            {
                                "name": "owner",
                                "type": "address",
                                "value": "0x44e9d011df8741be2493e99297e9ad67bb1aa85b"
                            },
                            {
                                "name": "buyToken",
                                "type": "address",
                                "value": "0x0000000000000000000000000000000000000000"
                            },
                            {
                                "name": "buyTokenId",
                                "type": "uint256",
                                "value": "0"
                            },
                            {
                                "name": "salt",
                                "type": "uint256",
                                "value": "10,811,324,718,088,989,984,473,938,812,014,012,052,988,873,321,365,982,135,908,005,310,249,394,006,827"
                            }
                        ],
                        "signature": "Cancel(address,uint256,address,address,uint256,uint256)"
                    },
                    "id": 2,
                    "logData": "0x00000000000000000000000044e9d011df8741be2493e99297e9ad67bb1aa85b0000000000000000000000000000000000000000000000000000000000000000000000000000000000000000000000000000000000000000000000000000000017e6fe316a057e8de74b774508b67db2fedb367b693ab5cf0307202583dc6b2b",
                    "logDecoded": true,
                    "operation": "EVENT",
                    "revert": false,
                    "status": true,
                    "topics": [
                        "0xbfe0e802e586c99960de1a111c80f598b281996d65080d74dbe29986f55b274a",
                        "0x000000000000000000000000d07dc4262bcdbf85190c01c996b4c06a461d2430",
                        "0x000000000000000000000000000000000000000000000000000000000000748d"
                    ]
                },
                "nodeType": 1
            }
        },
        "gasFlame": [
            {
                "children": [
                    {
                        "children": [
                            {
                                "children": [],
                                "depth": 0,
                                "name": "Initial Gas",
                                "value": 22988
                            },
                            {
                                "children": [
                                    {
                                        "children": [],
                                        "depth": 1,
                                        "name": "setCompleted",
                                        "value": 28310
                                    }
                                ],
                                "depth": 0,
                                "name": "Executed Gas",
                                "value": 40680
                            }
                        ],
                        "depth": -1,
                        "name": "Actual Gas Used",
                        "value": 63668
                    },
                    {
                        "children": [],
                        "depth": -1,
                        "name": "Refunded Gas",
                        "value": 0
                    }
                ],
                "depth": -2,
                "name": "Total Gas",
                "value": 63668
            }
        ],
        "isConfirmed": true,
        "mainTrace": [
            {
                "children": [
                    {
                        "children": [
                            {
                                "children": [],
                                "depth": 1,
                                "id": 1,
                                "order": 1
                            },
                            {
                                "children": [],
                                "depth": 1,
                                "id": 2,
                                "order": 2
                            }
                        ],
                        "depth": 0,
                        "id": 0,
                        "order": 0
                    }
                ],
                "depth": -1,
                "id": -1,
                "order": -1
            }
        ],
        "mainTraceNodeCount": 3,
        "parentIdMap": {
            "0": -1,
            "1": 0,
            "2": 0
        },
        "tidyTrace": [
            {
                "children": [
                    {
                        "children": [
                            {
                                "children": [],
                                "depth": 1,
                                "id": 1,
                                "order": 1
                            },
                            {
                                "children": [],
                                "depth": 1,
                                "id": 2,
                                "order": 2
                            }
                        ],
                        "depth": 0,
                        "id": 0,
                        "order": 0
                    }
                ],
                "depth": -1,
                "id": -1,
                "order": -1
            }
        ],
        "tidyTraceNodeCount": 3
    },
    "state_change": {
        "stateChanges": [
            {
                "address": "0xed1f5f8724cc185d4e48a71a7fac64fa5216e4a8",
                "erc": "",
                "slots": [
                    {
                        "current": "0xffffffffffffffffffffffffffffffffffffffffffffffffffffffffffffffff",
                        "key": "0xf28310e42299fef64b25a365057930f58a28cb0d23df78f874d93a0bbaba646f",
                        "prev": "0x0000000000000000000000000000000000000000000000000000000000000000"
                    }
                ],
                "storageVariables": [
                    {
                        "name": "completed",
                        "type": "mapping(bytes32 => uint256)",
                        "value": {
                            "pairs": [
                                {
                                    "key": "0x634c894bfcadc62f660b9ba28e291dc18f74ca3080ea6868742ac718f5eea49d",
                                    "value": {
                                        "current": "115792089237316195423570985008687907853269984665640564039457584007913129639935",
                                        "prev": "0",
                                        "typeTag": 1
                                    }
                                }
                            ],
                            "typeTag": 4
                        }
                    }
                ]
            }
        ]
    }
}