{
    "balance_change": {
        "balanceChanges": [
            {
                "account": "0x5132a183e9f3cb7c848b0aac5ae0c4f0491b7ab2",
                "assets": [
                    {
                        "address": "0x455e53cbb86018ac2b8092fdcd39d8444affc3f6",
                        "amount": "1.6",
                        "iconUrl": "",
                        "isERC1155": false,
                        "isERC721": false,
                        "sign": false,
                        "value": "1.1771638"
                    }
                ]
            },
            {
                "account": "0xd49cd5f9776a54fae89b68205f6af69586f98203",
                "assets": [
                    {
                        "address": "0x455e53cbb86018ac2b8092fdcd39d8444affc3f6",
                        "amount": "1.6",
                        "iconUrl": "",
                        "isERC1155": false,
                        "isERC721": false,
                        "sign": true,
                        "value": "1.1771638"
                    }
                ]
            }
        ]
    },
    "profile": {
        "basic_info": {
            "baseFee": "4.855450678",
            "blockNumber": 19813112,
            "callData": "0x1489ed10000000000000000000000000000000000000000000000000000000000000000200000000000000000000000000000000000000000000000000000000000000000000000000000000000000000000000000000000000000000000000000009a330000000000000000000000000000000000000000000000000000000000009a43185ca9bc66778520677a097f678d916f981415eb6ad55f8758f5d136201775c67d0b211129f1c8d3ebe707c0539f411d43e1c412a2c4c374c3bcb77514059d57000000000000000000000000d49cd5f9776a54fae89b68205f6af69586f982030a54e868c336107d5e3d9b64f7b3030d1e76d587635542bb4dfa0649fb4b3a090963dea1b41a911d16d67228139117c71e078da9cc1799ba73f541e2c2f1178c142cae3155a90d3b3db8f6f3535480d2ecc173e81c573e2b32b976f5fcb9323d2f1b5b0568ff3ff743abf8265da5f3f098b4e091a91d9d22c2606844ec3b7f3a2dc6e71084563812760471f2ccdb2c2c8122b8985b3d6d26ac655b4445cdfe860096ddcbb723ff9dfdb6eaa9a88edc82d3c2cdca8ee9efe20fc9f27b9b9743a328c7d6790772faf02535cc34b62cb91c45133368b76ea897b3ab3e04b4ed4f3208e647bd264bfbb1d92e0ed6c9f2dc5f7b1d3838ff660d8852fe2301cb45674b1abac2b996c4e8e122ce1fe38fe30a83d3b7208fedf2975cbc27a9af83b4240430463bcac678bed95db12b05ca51c89e94e305bdcd1514e1f3a69ef030eb2d491dbc45ecc191751a17a4334ea7830980c226dee393fbf31af57471225fc84e6a2a3b43b8f4bba4dbcd988a98b91b659677639df19f8cfdb45e90713952695eac302e18ba228494e807c558520d456ea67acf6b0151b4dedd3532928e3d9f442c1602d4f7d6e70bf86d2eec1514ad73913a13ca6a1ac5d3bfdfbec03bdb071a930634b995a959a6d936f29b27a57a78eaa1a37618b2d31ebb587f07d385b17c3f0bce60209e3c2982bbd0255077777989f31cfe596b4d26f5aaf5617ba809d23f15cb2c51bbffb406f4bdca4b7a721d11004a881205fed779ce01691d3cd075500c9827fcbe8ff8b150ba9be7f8eb4717f2b48c2a5d9896d88585458dff40497422d2029ed0cabb2e853ffe4b845570d1326a6458bdb41a200179b260e7b96ae909757d07ac1abbf20cd0c331380d3e8c448715ed870001f4b0c46e44afbda439172d6eae283c1bf79031e8a6f747a37c22be89db8c8b95ddddf097c894ce011417eafa24a92d684135837da1fe8a9dca6af762ceb8fff4dc1b47cfe460ffabd829852b16f196109369d8d4b28f1462a5bce2772a5885ba7ee8d12a2f0c9f73161a37253a522fee6247790eaf2e8a01b0f2750288d1d400c56b7dd8b5624a4748",
            "debugEnable": true,
            "errorInfo": "",
            "eventCount": 4,
            "feeRecipient": "0x95222290dd7278aa3ddd389cc1e1d165cc4bafe5",
            "formatValue": "0",
            "gasLimit": 491984,
            "gasPrice": "5.737266883",
            "gasUsed": 383560,
            "intTxnCount": 22,
            "internalRevert": false,
            "internalRevertMessage": "",
            "isContractCreation": false,
            "isFlashloan": false,
            "maxFee": "",
            "nonce": 2807,
            "overwritedBlockNumber": -1,
            "priorityFee": "",
            "receiver": "0x5132a183e9f3cb7c848b0aac5ae0c4f0491b7ab2",
            "revertMessage": "",
            "sender": "0x20a53dcb196cd2bcc14ece01f358f1c849aa51de",
            "simulationEnable": true,
            "sourceTxnHash": "0x09f7203932cf8b0987630d3bac198de61eae118a77cd7aa76acc4da0bf032428",
            "status": true,
            "timestamp": "2024-05-06T19:25:11Z",
            "transactionFee": "0.00220058608564348",
            "txnHash": "0x09f7203932cf8b0987630d3bac198de61eae118a77cd7aa76acc4da0bf032428",
            "txnIndex": 91,
            "type": 0,
            "value": "0"
        },
        "fund_flow": [
            {
                "amount": "1.6",
                "from": "0x5132a183e9f3cb7c848b0aac5ae0c4f0491b7ab2",
                "id": 1,
                "isERC1155": false,
                "isERC721": false,
                "isReverted": false,
                "order": 1,
                "to": "0xd49cd5f9776a54fae89b68205f6af69586f98203",
                "token": "0x455e53cbb86018ac2b8092fdcd39d8444affc3f6"
            }
        ],
        "token_infos": [
            {
                "address": "0xeeeeeeeeeeeeeeeeeeeeeeeeeeeeeeeeeeeeeeee",
                "decimals": 18
            },
            {
                "address": "0x455e53cbb86018ac2b8092fdcd39d8444affc3f6",
                "decimals": 18
            },
            {
                "address": "0xc02aaa39b223fe8d0a0e5c4f27ead9083c756cc2",
                "decimals": 18
            }
        ]
    },
    "address_label": {
        "labels": [
            {
                "address": "0xeeeeeeeeeeeeeeeeeeeeeeeeeeeeeeeeeeeeeeee",
                "label": "Ether"
            },
            {
                "address": "0x0000000000000000000000000000000000000004",
                "label": "Precompiled"
            },
            {
                "address": "0x0000000000000000000000000000000000000008",
                "label": "Null: 0x000...008"
            },
            {
                "address": "0x0000000000000000000000000000000000000002",
                "label": "Precompiled"
            },
            {
                "address": "0x3b82da772c825283d85d5d6717a77c6ff582053b",
                "label": "PolygonRollupManager"
            },
            {
                "address": "0x0775e11309d75aa6b0967917fb0213c5673edf81",
                "label": "FflonkVerifier"
            },
            {
                "address": "0x0000000000000000000000000000000000000003",
                "label": "Precompiled"
            },
            {
                "address": "0x0000000000000000000000000000000000000006",
                "label": "Null: 0x000...006"
            },
            {
                "address": "0x455e53cbb86018ac2b8092fdcd39d8444affc3f6",
                "label": "Polygon: POL Token"
            },
            {
                "address": "0x0000000000000000000000000000000000000007",
                "label": "Null: 0x000...007"
            },
            {
                "address": "0x2e38cd55163137483e30580cb468c2dff1d85077",
                "label": "PolygonZkEVMGlobalExitRootV2"
            },
            {
                "address": "0x580bda1e7a0cfae92fa7f6c20a3794f169ce3cfb",
                "label": "TransparentUpgradeableProxy_580b_3cfb"
            },
            {
                "address": "0x5132a183e9f3cb7c848b0aac5ae0c4f0491b7ab2",
                "label": "Polygon: Polygon zkEVM Proxy"
            },
            {
                "address": "0x1e163594e13030244dcaf4cdfc2cd0ba3206da80",
                "label": "PolygonTransparentProxy"
            },
            {
                "address": "0x10d296e8add0535be71639e5d1d1c30ae1c6bd4c",
                "label": "PolygonValidiumStorageMigration"
            },
            {
                "address": "0x0000000000000000000000000000000000000001",
                "label": "Precompiled"
            }
        ]
    },
    "trace": {
        "accountLabels": null,
        "dataMap": {
            "-1": {
                "invocation": {
                    "address": "0x20a53dcb196cd2bcc14ece01f358f1c849aa51de",
                    "callData": "",
                    "decodedMethod": null,
                    "errorInfo": "",
                    "fromAddress": "",
                    "gasUsed": 0,
                    "id": -1,
                    "methodDecoded": false,
                    "operation": "",
                    "output": "",
                    "revert": false,
                    "revertMessage": "",
                    "selector": "",
                    "status": false,
                    "value": ""
                },
                "nodeType": 0
            },
            "0": {
                "invocation": {
                    "address": "0x5132a183e9f3cb7c848b0aac5ae0c4f0491b7ab2",
                    "callData": "0x000000000000000000000000000000000000000000000000000000000000000200000000000000000000000000000000000000000000000000000000000000000000000000000000000000000000000000000000000000000000000000009a330000000000000000000000000000000000000000000000000000000000009a43185ca9bc66778520677a097f678d916f981415eb6ad55f8758f5d136201775c67d0b211129f1c8d3ebe707c0539f411d43e1c412a2c4c374c3bcb77514059d57000000000000000000000000d49cd5f9776a54fae89b68205f6af69586f982030a54e868c336107d5e3d9b64f7b3030d1e76d587635542bb4dfa0649fb4b3a090963dea1b41a911d16d67228139117c71e078da9cc1799ba73f541e2c2f1178c142cae3155a90d3b3db8f6f3535480d2ecc173e81c573e2b32b976f5fcb9323d2f1b5b0568ff3ff743abf8265da5f3f098b4e091a91d9d22c2606844ec3b7f3a2dc6e71084563812760471f2ccdb2c2c8122b8985b3d6d26ac655b4445cdfe860096ddcbb723ff9dfdb6eaa9a88edc82d3c2cdca8ee9efe20fc9f27b9b9743a328c7d6790772faf02535cc34b62cb91c45133368b76ea897b3ab3e04b4ed4f3208e647bd264bfbb1d92e0ed6c9f2dc5f7b1d3838ff660d8852fe2301cb45674b1abac2b996c4e8e122ce1fe38fe30a83d3b7208fedf2975cbc27a9af83b4240430463bcac678bed95db12b05ca51c89e94e305bdcd1514e1f3a69ef030eb2d491dbc45ecc191751a17a4334ea7830980c226dee393fbf31af57471225fc84e6a2a3b43b8f4bba4dbcd988a98b91b659677639df19f8cfdb45e90713952695eac302e18ba228494e807c558520d456ea67acf6b0151b4dedd3532928e3d9f442c1602d4f7d6e70bf86d2eec1514ad73913a13ca6a1ac5d3bfdfbec03bdb071a930634b995a959a6d936f29b27a57a78eaa1a37618b2d31ebb587f07d385b17c3f0bce60209e3c2982bbd0255077777989f31cfe596b4d26f5aaf5617ba809d23f15cb2c51bbffb406f4bdca4b7a721d11004a881205fed779ce01691d3cd075500c9827fcbe8ff8b150ba9be7f8eb4717f2b48c2a5d9896d88585458dff40497422d2029ed0cabb2e853ffe4b845570d1326a6458bdb41a200179b260e7b96ae909757d07ac1abbf20cd0c331380d3e8c448715ed870001f4b0c46e44afbda439172d6eae283c1bf79031e8a6f747a37c22be89db8c8b95ddddf097c894ce011417eafa24a92d684135837da1fe8a9dca6af762ceb8fff4dc1b47cfe460ffabd829852b16f196109369d8d4b28f1462a5bce2772a5885ba7ee8d12a2f0c9f73161a37253a522fee6247790eaf2e8a01b0f2750288d1d400c56b7dd8b5624a4748",
                    "decodedMethod": {
                        "callParams": [
                            {
                                "name": "rollupID",
                                "type": "uint32",
                                "value": "2"
                            },
                            {
                                "name": "pendingStateNum",
                                "type": "uint64",
                                "value": "0"
                            },
                            {
                                "name": "initNumBatch",
                                "type": "uint64",
                                "value": "39,475"
                            },
                            {
                                "name": "finalNewBatch",
                                "type": "uint64",
                                "value": "39,491"
                            },
                            {
                                "name": "newLocalExitRoot",
                                "type": "bytes32",
                                "value": "0x185ca9bc66778520677a097f678d916f981415eb6ad55f8758f5d136201775c6"
                            },
                            {
                                "name": "newStateRoot",
                                "type": "bytes32",
                                "value": "0x7d0b211129f1c8d3ebe707c0539f411d43e1c412a2c4c374c3bcb77514059d57"
                            },
                            {
                                "name": "beneficiary",
                                "type": "address",
                                "value": "0xd49cd5f9776a54fae89b68205f6af69586f98203"
                            },
                            {
                                "name": "proof",
                                "type": "bytes32[24]",
                                "value": [
                                    "0x0a54e868c336107d5e3d9b64f7b3030d1e76d587635542bb4dfa0649fb4b3a09",
                                    "0x0963dea1b41a911d16d67228139117c71e078da9cc1799ba73f541e2c2f1178c",
                                    "0x142cae3155a90d3b3db8f6f3535480d2ecc173e81c573e2b32b976f5fcb9323d",
                                    "0x2f1b5b0568ff3ff743abf8265da5f3f098b4e091a91d9d22c2606844ec3b7f3a",
                                    "0x2dc6e71084563812760471f2ccdb2c2c8122b8985b3d6d26ac655b4445cdfe86",
                                    "0x0096ddcbb723ff9dfdb6eaa9a88edc82d3c2cdca8ee9efe20fc9f27b9b9743a3",
                                    "0x28c7d6790772faf02535cc34b62cb91c45133368b76ea897b3ab3e04b4ed4f32",
                                    "0x08e647bd264bfbb1d92e0ed6c9f2dc5f7b1d3838ff660d8852fe2301cb45674b",
                                    "0x1abac2b996c4e8e122ce1fe38fe30a83d3b7208fedf2975cbc27a9af83b42404",
                                    "0x30463bcac678bed95db12b05ca51c89e94e305bdcd1514e1f3a69ef030eb2d49",
                                    "0x1dbc45ecc191751a17a4334ea7830980c226dee393fbf31af57471225fc84e6a",
                                    "0x2a3b43b8f4bba4dbcd988a98b91b659677639df19f8cfdb45e90713952695eac",
                                    "0x302e18ba228494e807c558520d456ea67acf6b0151b4dedd3532928e3d9f442c",
                                    "0x1602d4f7d6e70bf86d2eec1514ad73913a13ca6a1ac5d3bfdfbec03bdb071a93",
                                    "0x0634b995a959a6d936f29b27a57a78eaa1a37618b2d31ebb587f07d385b17c3f",
                                    "0x0bce60209e3c2982bbd0255077777989f31cfe596b4d26f5aaf5617ba809d23f",
                                    "0x15cb2c51bbffb406f4bdca4b7a721d11004a881205fed779ce01691d3cd07550",
                                    "0x0c9827fcbe8ff8b150ba9be7f8eb4717f2b48c2a5d9896d88585458dff404974",
                                    "0x22d2029ed0cabb2e853ffe4b845570d1326a6458bdb41a200179b260e7b96ae9",
                                    "0x09757d07ac1abbf20cd0c331380d3e8c448715ed870001f4b0c46e44afbda439",
                                    "0x172d6eae283c1bf79031e8a6f747a37c22be89db8c8b95ddddf097c894ce0114",
                                    "0x17eafa24a92d684135837da1fe8a9dca6af762ceb8fff4dc1b47cfe460ffabd8",
                                    "0x29852b16f196109369d8d4b28f1462a5bce2772a5885ba7ee8d12a2f0c9f7316",
                                    "0x1a37253a522fee6247790eaf2e8a01b0f2750288d1d400c56b7dd8b5624a4748"
                                ]
                            }
                        ],
                        "constructorArguments": "",
                        "name": "verifyBatchesTrustedAggregator",
                        "returnParams": [],
                        "signature": "verifyBatchesTrustedAggregator(uint32,uint64,uint64,uint64,bytes32,bytes32,address,bytes32[24])"
                    },
                    "errorInfo": "",
                    "fromAddress": "0x20a53dcb196cd2bcc14ece01f358f1c849aa51de",
                    "gasUsed": 383560,
                    "id": 0,
                    "methodDecoded": true,
                    "operation": "CALL",
                    "output": "",
                    "revert": false,
                    "revertMessage": "",
                    "selector": "0x1489ed10",
                    "status": true,
                    "value": "0"
                },
                "nodeType": 0
            },
            "1": {
                "invocation": {
                    "address": "0x3b82da772c825283d85d5d6717a77c6ff582053b",
                    "callData": "0x000000000000000000000000000000000000000000000000000000000000000200000000000000000000000000000000000000000000000000000000000000000000000000000000000000000000000000000000000000000000000000009a330000000000000000000000000000000000000000000000000000000000009a43185ca9bc66778520677a097f678d916f981415eb6ad55f8758f5d136201775c67d0b211129f1c8d3ebe707c0539f411d43e1c412a2c4c374c3bcb77514059d57000000000000000000000000d49cd5f9776a54fae89b68205f6af69586f982030a54e868c336107d5e3d9b64f7b3030d1e76d587635542bb4dfa0649fb4b3a090963dea1b41a911d16d67228139117c71e078da9cc1799ba73f541e2c2f1178c142cae3155a90d3b3db8f6f3535480d2ecc173e81c573e2b32b976f5fcb9323d2f1b5b0568ff3ff743abf8265da5f3f098b4e091a91d9d22c2606844ec3b7f3a2dc6e71084563812760471f2ccdb2c2c8122b8985b3d6d26ac655b4445cdfe860096ddcbb723ff9dfdb6eaa9a88edc82d3c2cdca8ee9efe20fc9f27b9b9743a328c7d6790772faf02535cc34b62cb91c45133368b76ea897b3ab3e04b4ed4f3208e647bd264bfbb1d92e0ed6c9f2dc5f7b1d3838ff660d8852fe2301cb45674b1abac2b996c4e8e122ce1fe38fe30a83d3b7208fedf2975cbc27a9af83b4240430463bcac678bed95db12b05ca51c89e94e305bdcd1514e1f3a69ef030eb2d491dbc45ecc191751a17a4334ea7830980c226dee393fbf31af57471225fc84e6a2a3b43b8f4bba4dbcd988a98b91b659677639df19f8cfdb45e90713952695eac302e18ba228494e807c558520d456ea67acf6b0151b4dedd3532928e3d9f442c1602d4f7d6e70bf86d2eec1514ad73913a13ca6a1ac5d3bfdfbec03bdb071a930634b995a959a6d936f29b27a57a78eaa1a37618b2d31ebb587f07d385b17c3f0bce60209e3c2982bbd0255077777989f31cfe596b4d26f5aaf5617ba809d23f15cb2c51bbffb406f4bdca4b7a721d11004a881205fed779ce01691d3cd075500c9827fcbe8ff8b150ba9be7f8eb4717f2b48c2a5d9896d88585458dff40497422d2029ed0cabb2e853ffe4b845570d1326a6458bdb41a200179b260e7b96ae909757d07ac1abbf20cd0c331380d3e8c448715ed870001f4b0c46e44afbda439172d6eae283c1bf79031e8a6f747a37c22be89db8c8b95ddddf097c894ce011417eafa24a92d684135837da1fe8a9dca6af762ceb8fff4dc1b47cfe460ffabd829852b16f196109369d8d4b28f1462a5bce2772a5885ba7ee8d12a2f0c9f73161a37253a522fee6247790eaf2e8a01b0f2750288d1d400c56b7dd8b5624a4748",
                    "decodedMethod": {
                        "callParams": [
                            {
                                "name": "rollupID",
                                "type": "uint32",
                                "value": "2"
                            },
                            {
                                "name": "pendingStateNum",
                                "type": "uint64",
                                "value": "0"
                            },
                            {
                                "name": "initNumBatch",
                                "type": "uint64",
                                "value": "39,475"
                            },
                            {
                                "name": "finalNewBatch",
                                "type": "uint64",
                                "value": "39,491"
                            },
                            {
                                "name": "newLocalExitRoot",
                                "type": "bytes32",
                                "value": "0x185ca9bc66778520677a097f678d916f981415eb6ad55f8758f5d136201775c6"
                            },
                            {
                                "name": "newStateRoot",
                                "type": "bytes32",
                                "value": "0x7d0b211129f1c8d3ebe707c0539f411d43e1c412a2c4c374c3bcb77514059d57"
                            },
                            {
                                "name": "beneficiary",
                                "type": "address",
                                "value": "0xd49cd5f9776a54fae89b68205f6af69586f98203"
                            },
                            {
                                "name": "proof",
                                "type": "bytes32[24]",
                                "value": [
                                    "0x0a54e868c336107d5e3d9b64f7b3030d1e76d587635542bb4dfa0649fb4b3a09",
                                    "0x0963dea1b41a911d16d67228139117c71e078da9cc1799ba73f541e2c2f1178c",
                                    "0x142cae3155a90d3b3db8f6f3535480d2ecc173e81c573e2b32b976f5fcb9323d",
                                    "0x2f1b5b0568ff3ff743abf8265da5f3f098b4e091a91d9d22c2606844ec3b7f3a",
                                    "0x2dc6e71084563812760471f2ccdb2c2c8122b8985b3d6d26ac655b4445cdfe86",
                                    "0x0096ddcbb723ff9dfdb6eaa9a88edc82d3c2cdca8ee9efe20fc9f27b9b9743a3",
                                    "0x28c7d6790772faf02535cc34b62cb91c45133368b76ea897b3ab3e04b4ed4f32",
                                    "0x08e647bd264bfbb1d92e0ed6c9f2dc5f7b1d3838ff660d8852fe2301cb45674b",
                                    "0x1abac2b996c4e8e122ce1fe38fe30a83d3b7208fedf2975cbc27a9af83b42404",
                                    "0x30463bcac678bed95db12b05ca51c89e94e305bdcd1514e1f3a69ef030eb2d49",
                                    "0x1dbc45ecc191751a17a4334ea7830980c226dee393fbf31af57471225fc84e6a",
                                    "0x2a3b43b8f4bba4dbcd988a98b91b659677639df19f8cfdb45e90713952695eac",
                                    "0x302e18ba228494e807c558520d456ea67acf6b0151b4dedd3532928e3d9f442c",
                                    "0x1602d4f7d6e70bf86d2eec1514ad73913a13ca6a1ac5d3bfdfbec03bdb071a93",
                                    "0x0634b995a959a6d936f29b27a57a78eaa1a37618b2d31ebb587f07d385b17c3f",
                                    "0x0bce60209e3c2982bbd0255077777989f31cfe596b4d26f5aaf5617ba809d23f",
                                    "0x15cb2c51bbffb406f4bdca4b7a721d11004a881205fed779ce01691d3cd07550",
                                    "0x0c9827fcbe8ff8b150ba9be7f8eb4717f2b48c2a5d9896d88585458dff404974",
                                    "0x22d2029ed0cabb2e853ffe4b845570d1326a6458bdb41a200179b260e7b96ae9",
                                    "0x09757d07ac1abbf20cd0c331380d3e8c448715ed870001f4b0c46e44afbda439",
                                    "0x172d6eae283c1bf79031e8a6f747a37c22be89db8c8b95ddddf097c894ce0114",
                                    "0x17eafa24a92d684135837da1fe8a9dca6af762ceb8fff4dc1b47cfe460ffabd8",
                                    "0x29852b16f196109369d8d4b28f1462a5bce2772a5885ba7ee8d12a2f0c9f7316",
                                    "0x1a37253a522fee6247790eaf2e8a01b0f2750288d1d400c56b7dd8b5624a4748"
                                ]
                            }
                        ],
                        "constructorArguments": "",
                        "name": "verifyBatchesTrustedAggregator",
                        "returnParams": [],
                        "signature": "verifyBatchesTrustedAggregator(uint32,uint64,uint64,uint64,bytes32,bytes32,address,bytes32[24])"
                    },
                    "errorInfo": "",
                    "fromAddress": "0x5132a183e9f3cb7c848b0aac5ae0c4f0491b7ab2",
                    "gasUsed": 340797,
                    "id": 1,
                    "methodDecoded": true,
                    "operation": "DELEGATECALL",
                    "output": "",
                    "revert": false,
                    "revertMessage": "",
                    "selector": "0x1489ed10",
                    "status": true,
                    "value": "0"
                },
                "nodeType": 0
            },
            "10": {
                "invocation": {
                    "address": "0x0000000000000000000000000000000000000007",
                    "callData": "0x84563812760471f2ccdb2c2c8122b8985b3d6d26ac655b4445cdfe860096ddcbb723ff9dfdb6eaa9a88edc82d3c2cdca8ee9efe20fc9f27b9b9743a31f125dc6f3769994bcd40dad5ceba52fa8031f63f493d4f6be4c5124adec4789",
                    "decodedMethod": null,
                    "errorInfo": "",
                    "fromAddress": "0x0775e11309d75aa6b0967917fb0213c5673edf81",
                    "gasUsed": 6000,
                    "id": 10,
                    "methodDecoded": false,
                    "operation": "STATICCALL",
                    "output": "0x0d3eea528f5a6b7f01ed4dd2775d57c129b9a7d9248ab2fe9772d506efcf83a616542abf9f7775a9dcd44b2f248beb8209d75ff7fbb071bf9b87322a3a775421",
                    "revert": false,
                    "revertMessage": "",
                    "selector": "0x2dc6e710",
                    "status": true,
                    "value": "0"
                },
                "nodeType": 0
            },
            "11": {
                "invocation": {
                    "address": "0x0000000000000000000000000000000000000006",
                    "callData": "0x8f5a6b7f01ed4dd2775d57c129b9a7d9248ab2fe9772d506efcf83a616542abf9f7775a9dcd44b2f248beb8209d75ff7fbb071bf9b87322a3a77542100000000000000000000000000000000000000000000000000000000000000000000000000000000000000000000000000000000000000000000000000000000",
                    "decodedMethod": null,
                    "errorInfo": "",
                    "fromAddress": "0x0775e11309d75aa6b0967917fb0213c5673edf81",
                    "gasUsed": 150,
                    "id": 11,
                    "methodDecoded": false,
                    "operation": "STATICCALL",
                    "output": "0x0d3eea528f5a6b7f01ed4dd2775d57c129b9a7d9248ab2fe9772d506efcf83a616542abf9f7775a9dcd44b2f248beb8209d75ff7fbb071bf9b87322a3a775421",
                    "revert": false,
                    "revertMessage": "",
                    "selector": "0x0d3eea52",
                    "status": true,
                    "value": "0"
                },
                "nodeType": 0
            },
            "12": {
                "invocation": {
                    "address": "0x0000000000000000000000000000000000000006",
                    "callData": "0x8163130a5cc838102228059cd2cc3389cef975d289291fb764f172b12b6d523b2593ef3acefa214cfc198def29ce4a178d69aa6168eb664d376614fa2bfd943bac6053cfbf1817d159c338c0e291606e34472ff1212897ac2aaa5e76102b1b93a099f0f1f5683bd522f2e7f87a07616663bf4c78c12a3292d52a94d9",
                    "decodedMethod": null,
                    "errorInfo": "",
                    "fromAddress": "0x0775e11309d75aa6b0967917fb0213c5673edf81",
                    "gasUsed": 150,
                    "id": 12,
                    "methodDecoded": false,
                    "operation": "STATICCALL",
                    "output": "0x2061ef895957117e9e42e660ce4f25c0fce9681221d6e33c1d7021d8b5e63dc406fd330c20eaf1c2e678a34c97c51ad70135574861f1bef550da255257855dd2",
                    "revert": false,
                    "revertMessage": "",
                    "selector": "0x0b9895e6",
                    "status": true,
                    "value": "0"
                },
                "nodeType": 0
            },
            "13": {
                "invocation": {
                    "address": "0x0000000000000000000000000000000000000006",
                    "callData": "0x5957117e9e42e660ce4f25c0fce9681221d6e33c1d7021d8b5e63dc406fd330c20eaf1c2e678a34c97c51ad70135574861f1bef550da255257855dd20d3eea528f5a6b7f01ed4dd2775d57c129b9a7d9248ab2fe9772d506efcf83a61a1023b341ba2a7fdb7bfa875cf56cdb8daa0a996cc158cda09959ec9e05a926",
                    "decodedMethod": null,
                    "errorInfo": "",
                    "fromAddress": "0x0775e11309d75aa6b0967917fb0213c5673edf81",
                    "gasUsed": 150,
                    "id": 13,
                    "methodDecoded": false,
                    "operation": "STATICCALL",
                    "output": "0x241484530d3b224676c454c65a5694760dbd591b625932fd9e28d8b80d375a0606e26fe8cfceabd48c11ea4e22fc652321ac480b2cfbff5ad9a92ea69bc7ce18",
                    "revert": false,
                    "revertMessage": "",
                    "selector": "0x2061ef89",
                    "status": true,
                    "value": "0"
                },
                "nodeType": 0
            },
            "14": {
                "invocation": {
                    "address": "0x0000000000000000000000000000000000000007",
                    "callData": "0x0772faf02535cc34b62cb91c45133368b76ea897b3ab3e04b4ed4f3208e647bd264bfbb1d92e0ed6c9f2dc5f7b1d3838ff660d8852fe2301cb45674b089f9a3f12d2b4b47d343e4c00056d9e91cd31f138e66f4a2630905922900c07",
                    "decodedMethod": null,
                    "errorInfo": "",
                    "fromAddress": "0x0775e11309d75aa6b0967917fb0213c5673edf81",
                    "gasUsed": 6000,
                    "id": 14,
                    "methodDecoded": false,
                    "operation": "STATICCALL",
                    "output": "0x0907a963b2c1e6d3ce884c3c81ae110abd94e1cedf9039709980bfcf108f25981537da04d0a842697d91a8db4a32d194a5a295332a42dec33403b1613fd8a13c",
                    "revert": false,
                    "revertMessage": "",
                    "selector": "0x28c7d679",
                    "status": true,
                    "value": "0"
                },
                "nodeType": 0
            },
            "15": {
                "invocation": {
                    "address": "0x0000000000000000000000000000000000000006",
                    "callData": "0xb2c1e6d3ce884c3c81ae110abd94e1cedf9039709980bfcf108f25981537da04d0a842697d91a8db4a32d194a5a295332a42dec33403b1613fd8a13c241484530d3b224676c454c65a5694760dbd591b625932fd9e28d8b80d375a0606e26fe8cfceabd48c11ea4e22fc652321ac480b2cfbff5ad9a92ea69bc7ce18",
                    "decodedMethod": null,
                    "errorInfo": "",
                    "fromAddress": "0x0775e11309d75aa6b0967917fb0213c5673edf81",
                    "gasUsed": 150,
                    "id": 15,
                    "methodDecoded": false,
                    "operation": "STATICCALL",
                    "output": "0x26a81ee29a4a6fd9af526853ca47f49a20aba0e780de973ade5555c14e088dbf28b4b7e2d8f3a08fd5622c6d6cbf8f613c854d0b592fc28c1a80bfb510c7d800",
                    "revert": false,
                    "revertMessage": "",
                    "selector": "0x0907a963",
                    "status": true,
                    "value": "0"
                },
                "nodeType": 0
            },
            "16": {
                "invocation": {
                    "address": "0x0000000000000000000000000000000000000008",
                    "callData": "0x9a4a6fd9af526853ca47f49a20aba0e780de973ade5555c14e088dbf28b4b7e2d8f3a08fd5622c6d6cbf8f613c854d0b592fc28c1a80bfb510c7d800198e9393920d483a7260bfb731fb5d25f1aa493335a9e71297e485b7aef312c21800deef121f1e76426a00665e5c4479674322d4f75edadd46debd5cd992f6ed090689d0585ff075ec9e99ad690c3395bc4b313370b38ef355acdadcd122975b12c85ea5db8c6deb4aab71808dcb408fe3d1e7690c43d37b4ce6cc0166fa7daa28c7d6790772faf02535cc34b62cb91c45133368b76ea897b3ab3e04b4ed4f32277e06b5bae5a477df2236dfb78e7bfe1c643258690bbd04e92269150d3795fc26186a2d65ee4d2f9c9a5b91f86597d35f192cd120caf7e935d8443d1938e23d30441fd1b5d3370482c42152a8899027716989a6996c2535bc9f7fee8aaef79e1970ea81dd6992adfbc571effb03503adbbb6a857f578403c6c40e22d65b3c02054793348f12c0cf5622c340573cb277586319de359ab9389778f689786b1e48",
                    "decodedMethod": null,
                    "errorInfo": "",
                    "fromAddress": "0x0775e11309d75aa6b0967917fb0213c5673edf81",
                    "gasUsed": 113000,
                    "id": 16,
                    "methodDecoded": false,
                    "operation": "STATICCALL",
                    "output": "0x0000000000000000000000000000000000000000000000000000000000000001",
                    "revert": false,
                    "revertMessage": "",
                    "selector": "0x26a81ee2",
                    "status": true,
                    "value": "0"
                },
                "nodeType": 0
            },
            "17": {
                "invocation": {
                    "address": "0x455e53cbb86018ac2b8092fdcd39d8444affc3f6",
                    "callData": "0x0000000000000000000000005132a183e9f3cb7c848b0aac5ae0c4f0491b7ab2",
                    "decodedMethod": {
                        "callParams": [
                            {
                                "name": "account",
                                "type": "address",
                                "value": "0x5132a183e9f3cb7c848b0aac5ae0c4f0491b7ab2"
                            }
                        ],
                        "constructorArguments": "",
                        "name": "balanceOf",
                        "returnParams": [
                            {
                                "decimalAvailable": true,
                                "name": "",
                                "type": "uint256",
                                "value": "6,600,000,000,000,000,013"
                            }
                        ],
                        "signature": "balanceOf(address)"
                    },
                    "errorInfo": "",
                    "fromAddress": "0x5132a183e9f3cb7c848b0aac5ae0c4f0491b7ab2",
                    "gasUsed": 2829,
                    "id": 17,
                    "methodDecoded": true,
                    "operation": "STATICCALL",
                    "output": "0x0000000000000000000000000000000000000000000000005b97e9081d94000d",
                    "revert": false,
                    "revertMessage": "",
                    "selector": "0x70a08231",
                    "status": true,
                    "value": "0"
                },
                "nodeType": 0
            },
            "18": {
                "invocation": {
                    "address": "0x455e53cbb86018ac2b8092fdcd39d8444affc3f6",
                    "callData": "0x000000000000000000000000d49cd5f9776a54fae89b68205f6af69586f9820300000000000000000000000000000000000000000000000016345785d8a00000",
                    "decodedMethod": {
                        "callParams": [
                            {
                                "name": "to",
                                "type": "address",
                                "value": "0xd49cd5f9776a54fae89b68205f6af69586f98203"
                            },
                            {
                                "decimalAvailable": true,
                                "name": "amount",
                                "type": "uint256",
                                "value": "1,600,000,000,000,000,000"
                            }
                        ],
                        "constructorArguments": "",
                        "name": "transfer",
                        "returnParams": [
                            {
                                "name": "",
                                "type": "bool",
                                "value": true
                            }
                        ],
                        "signature": "transfer(address,uint256)"
                    },
                    "errorInfo": "",
                    "fromAddress": "0x5132a183e9f3cb7c848b0aac5ae0c4f0491b7ab2",
                    "gasUsed": 10986,
                    "id": 18,
                    "methodDecoded": true,
                    "operation": "CALL",
                    "output": "0x0000000000000000000000000000000000000000000000000000000000000001",
                    "revert": false,
                    "revertMessage": "",
                    "selector": "0xa9059cbb",
                    "status": true,
                    "value": "0"
                },
                "nodeType": 0
            },
            "19": {
                "event": {
                    "contract": "0x455e53cbb86018ac2b8092fdcd39d8444affc3f6",
                    "decodedLog": {
                        "name": "Transfer",
                        "params": [
                            {
                                "name": "from",
                                "type": "address",
                                "value": "0x5132a183e9f3cb7c848b0aac5ae0c4f0491b7ab2"
                            },
                            {
                                "name": "to",
                                "type": "address",
                                "value": "0xd49cd5f9776a54fae89b68205f6af69586f98203"
                            },
                            {
                                "decimalAvailable": true,
                                "name": "value",
                                "type": "uint256",
                                "value": "1,600,000,000,000,000,000"
                            }
                        ],
                        "signature": "Transfer(address,address,uint256)"
                    },
                    "id": 19,
                    "logData": "0x00000000000000000000000000000000000000000000000016345785d8a00000",
                    "logDecoded": true,
                    "operation": "EVENT",
                    "revert": false,
                    "status": true,
                    "topics": [
                        "0xddf252ad1be2c89b69c2b068fc378daa952ba7f163c4a11628f55a4df523b3ef",
                        "0x0000000000000000000000005132a183e9f3cb7c848b0aac5ae0c4f0491b7ab2",
                        "0x000000000000000000000000d49cd5f9776a54fae89b68205f6af69586f98203"
                    ]
                },
                "nodeType": 1
            },
            "2": {
                "invocation": {
                    "address": "0x0000000000000000000000000000000000000002",
                    "callData": "0x196cd2bcc14ece01f358f1c849aa51deec9523f6637cb432f19df11c7622715bcb1a5e7eb3c1d568d48293fb75d45dab7606e7f6f8ddd87776ed93b47c82bf6663023352cf43168cc30e7cea71b33b200000000000009a330000000000000ec000000000000000097d0b211129f1c8d3ebe707c0539f411d43e1c412a2c4c374c3bcb77514059d57b9d0de4dd335eb850416143ff6898f1d4fa9d26364d5895024174dd9af1e81b1185ca9bc66778520677a097f678d916f981415eb6ad55f8758f5d136201775c60000000000009a43",
                    "decodedMethod": {
                        "callParams": [
                            {
                                "name": "data",
                                "type": "bytes",
                                "value": "0x20a53dcb196cd2bcc14ece01f358f1c849aa51deec9523f6637cb432f19df11c7622715bcb1a5e7eb3c1d568d48293fb75d45dab7606e7f6f8ddd87776ed93b47c82bf6663023352cf43168cc30e7cea71b33b200000000000009a330000000000000ec000000000000000097d0b211129f1c8d3ebe707c0539f411d43e1c412a2c4c374c3bcb77514059d57b9d0de4dd335eb850416143ff6898f1d4fa9d26364d5895024174dd9af1e81b1185ca9bc66778520677a097f678d916f981415eb6ad55f8758f5d136201775c60000000000009a43"
                            }
                        ],
                        "constructorArguments": "",
                        "name": "sha256hash",
                        "returnParams": [
                            {
                                "name": "hash",
                                "type": "bytes32",
                                "value": "0xd4381e6860a92acd2451e49efc370ff94e407aa0523e046ac8e3636abd2b6ac9"
                            }
                        ],
                        "signature": "sha256hash(bytes)"
                    },
                    "errorInfo": "",
                    "fromAddress": "0x5132a183e9f3cb7c848b0aac5ae0c4f0491b7ab2",
                    "gasUsed": 144,
                    "id": 2,
                    "methodDecoded": true,
                    "operation": "STATICCALL",
                    "output": "0xd4381e6860a92acd2451e49efc370ff94e407aa0523e046ac8e3636abd2b6ac9",
                    "revert": false,
                    "revertMessage": "",
                    "selector": "0x20a53dcb",
                    "status": true,
                    "value": "0"
                },
                "nodeType": 0
            },
            "20": {
                "invocation": {
                    "address": "0x1e163594e13030244dcaf4cdfc2cd0ba3206da80",
                    "callData": "0x0000000000000000000000000000000000000000000000000000000000009a437d0b211129f1c8d3ebe707c0539f411d43e1c412a2c4c374c3bcb77514059d5700000000000000000000000020a53dcb196cd2bcc14ece01f358f1c849aa51de",
                    "decodedMethod": {
                        "callParams": [
                            {
                                "name": "lastVerifiedBatch",
                                "type": "uint64",
                                "value": "39,491"
                            },
                            {
                                "name": "newStateRoot",
                                "type": "bytes32",
                                "value": "0x7d0b211129f1c8d3ebe707c0539f411d43e1c412a2c4c374c3bcb77514059d57"
                            },
                            {
                                "name": "aggregator",
                                "type": "address",
                                "value": "0x20a53dcb196cd2bcc14ece01f358f1c849aa51de"
                            }
                        ],
                        "constructorArguments": "",
                        "name": "onVerifyBatches",
                        "returnParams": [],
                        "signature": "onVerifyBatches(uint64,bytes32,address)"
                    },
                    "errorInfo": "",
                    "fromAddress": "0x5132a183e9f3cb7c848b0aac5ae0c4f0491b7ab2",
                    "gasUsed": 7315,
                    "id": 20,
                    "methodDecoded": true,
                    "operation": "CALL",
                    "output": "",
                    "revert": false,
                    "revertMessage": "",
                    "selector": "0x32c2d153",
                    "status": true,
                    "value": "0"
                },
                "nodeType": 0
            },
            "21": {
                "invocation": {
                    "address": "0x10d296e8add0535be71639e5d1d1c30ae1c6bd4c",
                    "callData": "0x0000000000000000000000000000000000000000000000000000000000009a437d0b211129f1c8d3ebe707c0539f411d43e1c412a2c4c374c3bcb77514059d5700000000000000000000000020a53dcb196cd2bcc14ece01f358f1c849aa51de",
                    "decodedMethod": {
                        "callParams": [
                            {
                                "name": "lastVerifiedBatch",
                                "type": "uint64",
                                "value": "39,491"
                            },
                            {
                                "name": "newStateRoot",
                                "type": "bytes32",
                                "value": "0x7d0b211129f1c8d3ebe707c0539f411d43e1c412a2c4c374c3bcb77514059d57"
                            },
                            {
                                "name": "aggregator",
                                "type": "address",
                                "value": "0x20a53dcb196cd2bcc14ece01f358f1c849aa51de"
                            }
                        ],
                        "constructorArguments": "",
                        "name": "onVerifyBatches",
                        "returnParams": [],
                        "signature": "onVerifyBatches(uint64,bytes32,address)"
                    },
                    "errorInfo": "",
                    "fromAddress": "0x1e163594e13030244dcaf4cdfc2cd0ba3206da80",
                    "gasUsed": 2332,
                    "id": 21,
                    "methodDecoded": true,
                    "operation": "DELEGATECALL",
                    "output": "",
                    "revert": false,
                    "revertMessage": "",
                    "selector": "0x32c2d153",
                    "status": true,
                    "value": "0"
                },
                "nodeType": 0
            },
            "22": {
                "event": {
                    "contract": "0x1e163594e13030244dcaf4cdfc2cd0ba3206da80",
                    "decodedLog": {
                        "name": "VerifyBatches",
                        "params": [
                            {
                                "name": "numBatch",
                                "type": "uint64",
                                "value": "39,491"
                            },
                            {
                                "name": "aggregator",
                                "type": "address",
                                "value": "0x20a53dcb196cd2bcc14ece01f358f1c849aa51de"
                            },
                            {
                                "name": "stateRoot",
                                "type": "bytes32",
                                "value": "0x7d0b211129f1c8d3ebe707c0539f411d43e1c412a2c4c374c3bcb77514059d57"
                            }
                        ],
                        "signature": "VerifyBatches(uint64,bytes32,address)"
                    },
                    "id": 22,
                    "logData": "0x7d0b211129f1c8d3ebe707c0539f411d43e1c412a2c4c374c3bcb77514059d57",
                    "logDecoded": true,
                    "operation": "EVENT",
                    "revert": false,
                    "status": true,
                    "topics": [
                        "0x9c72852172521097ba7e1482e6b44b351323df0155f97f4ea18fcec28e1f5966",
                        "0x0000000000000000000000000000000000000000000000000000000000009a43",
                        "0x00000000000000000000000020a53dcb196cd2bcc14ece01f358f1c849aa51de"
                    ]
                },
                "nodeType": 1
            },
            "23": {
                "invocation": {
                    "address": "0x580bda1e7a0cfae92fa7f6c20a3794f169ce3cfb",
                    "callData": "0xc889ea529d08438c18410cf95d54b544450be9de3e4a312fd04823b74d4d46ba",
                    "decodedMethod": {
                        "callParams": [
                            {
                                "name": "newRoot",
                                "type": "bytes32",
                                "value": "0xc889ea529d08438c18410cf95d54b544450be9de3e4a312fd04823b74d4d46ba"
                            }
                        ],
                        "constructorArguments": "",
                        "name": "updateExitRoot",
                        "returnParams": [],
                        "signature": "updateExitRoot(bytes32)"
                    },
                    "errorInfo": "",
                    "fromAddress": "0x5132a183e9f3cb7c848b0aac5ae0c4f0491b7ab2",
                    "gasUsed": 52179,
                    "id": 23,
                    "methodDecoded": true,
                    "operation": "CALL",
                    "output": "",
                    "revert": false,
                    "revertMessage": "",
                    "selector": "0x33d6247d",
                    "status": true,
                    "value": "0"
                },
                "nodeType": 0
            },
            "24": {
                "invocation": {
                    "address": "0x2e38cd55163137483e30580cb468c2dff1d85077",
                    "callData": "0xc889ea529d08438c18410cf95d54b544450be9de3e4a312fd04823b74d4d46ba",
                    "decodedMethod": {
                        "callParams": [
                            {
                                "name": "newRoot",
                                "type": "bytes32",
                                "value": "0xc889ea529d08438c18410cf95d54b544450be9de3e4a312fd04823b74d4d46ba"
                            }
                        ],
                        "constructorArguments": "",
                        "name": "updateExitRoot",
                        "returnParams": [],
                        "signature": "updateExitRoot(bytes32)"
                    },
                    "errorInfo": "",
                    "fromAddress": "0x580bda1e7a0cfae92fa7f6c20a3794f169ce3cfb",
                    "gasUsed": 44863,
                    "id": 24,
                    "methodDecoded": true,
                    "operation": "DELEGATECALL",
                    "output": "",
                    "revert": false,
                    "revertMessage": "",
                    "selector": "0x33d6247d",
                    "status": true,
                    "value": "0"
                },
                "nodeType": 0
            },
            "25": {
                "event": {
                    "contract": "0x580bda1e7a0cfae92fa7f6c20a3794f169ce3cfb",
                    "decodedLog": {
                        "name": "UpdateL1InfoTree",
                        "params": [
                            {
                                "name": "mainnetExitRoot",
                                "type": "bytes32",
                                "value": "0x0582c4d89504e5d2d30238f8db51764a5c59e033cbec2f5938d02b352f147542"
                            },
                            {
                                "name": "rollupExitRoot",
                                "type": "bytes32",
                                "value": "0xc889ea529d08438c18410cf95d54b544450be9de3e4a312fd04823b74d4d46ba"
                            }
                        ],
                        "signature": "UpdateL1InfoTree(bytes32,bytes32)"
                    },
                    "id": 25,
                    "logData": "0x",
                    "logDecoded": true,
                    "operation": "EVENT",
                    "revert": false,
                    "status": true,
                    "topics": [
                        "0xda61aa7823fcd807e37b95aabcbe17f03a6f3efd514176444dae191d27fd66b3",
                        "0x0582c4d89504e5d2d30238f8db51764a5c59e033cbec2f5938d02b352f147542",
                        "0xc889ea529d08438c18410cf95d54b544450be9de3e4a312fd04823b74d4d46ba"
                    ]
                },
                "nodeType": 1
            },
            "26": {
                "event": {
                    "contract": "0x5132a183e9f3cb7c848b0aac5ae0c4f0491b7ab2",
                    "decodedLog": {
                        "name": "VerifyBatchesTrustedAggregator",
                        "params": [
                            {
                                "name": "rollupID",
                                "type": "uint32",
                                "value": "2"
                            },
                            {
                                "name": "aggregator",
                                "type": "address",
                                "value": "0x20a53dcb196cd2bcc14ece01f358f1c849aa51de"
                            },
                            {
                                "name": "numBatch",
                                "type": "uint64",
                                "value": "39,491"
                            },
                            {
                                "name": "stateRoot",
                                "type": "bytes32",
                                "value": "0x7d0b211129f1c8d3ebe707c0539f411d43e1c412a2c4c374c3bcb77514059d57"
                            },
                            {
                                "name": "exitRoot",
                                "type": "bytes32",
                                "value": "0x185ca9bc66778520677a097f678d916f981415eb6ad55f8758f5d136201775c6"
                            }
                        ],
                        "signature": "VerifyBatchesTrustedAggregator(uint32,uint64,bytes32,bytes32,address)"
                    },
                    "id": 26,
                    "logData": "0x0000000000000000000000000000000000000000000000000000000000009a437d0b211129f1c8d3ebe707c0539f411d43e1c412a2c4c374c3bcb77514059d57185ca9bc66778520677a097f678d916f981415eb6ad55f8758f5d136201775c6",
                    "logDecoded": true,
                    "operation": "EVENT",
                    "revert": false,
                    "status": true,
                    "topics": [
                        "0xd1ec3a1216f08b6eff72e169ceb548b782db18a6614852618d86bb19f3f9b0d3",
                        "0x0000000000000000000000000000000000000000000000000000000000000002",
                        "0x00000000000000000000000020a53dcb196cd2bcc14ece01f358f1c849aa51de"
                    ]
                },
                "nodeType": 1
            },
            "3": {
                "invocation": {
                    "address": "0x0775e11309d75aa6b0967917fb0213c5673edf81",
                    "callData": "0x0a54e868c336107d5e3d9b64f7b3030d1e76d587635542bb4dfa0649fb4b3a090963dea1b41a911d16d67228139117c71e078da9cc1799ba73f541e2c2f1178c142cae3155a90d3b3db8f6f3535480d2ecc173e81c573e2b32b976f5fcb9323d2f1b5b0568ff3ff743abf8265da5f3f098b4e091a91d9d22c2606844ec3b7f3a2dc6e71084563812760471f2ccdb2c2c8122b8985b3d6d26ac655b4445cdfe860096ddcbb723ff9dfdb6eaa9a88edc82d3c2cdca8ee9efe20fc9f27b9b9743a328c7d6790772faf02535cc34b62cb91c45133368b76ea897b3ab3e04b4ed4f3208e647bd264bfbb1d92e0ed6c9f2dc5f7b1d3838ff660d8852fe2301cb45674b1abac2b996c4e8e122ce1fe38fe30a83d3b7208fedf2975cbc27a9af83b4240430463bcac678bed95db12b05ca51c89e94e305bdcd1514e1f3a69ef030eb2d491dbc45ecc191751a17a4334ea7830980c226dee393fbf31af57471225fc84e6a2a3b43b8f4bba4dbcd988a98b91b659677639df19f8cfdb45e90713952695eac302e18ba228494e807c558520d456ea67acf6b0151b4dedd3532928e3d9f442c1602d4f7d6e70bf86d2eec1514ad73913a13ca6a1ac5d3bfdfbec03bdb071a930634b995a959a6d936f29b27a57a78eaa1a37618b2d31ebb587f07d385b17c3f0bce60209e3c2982bbd0255077777989f31cfe596b4d26f5aaf5617ba809d23f15cb2c51bbffb406f4bdca4b7a721d11004a881205fed779ce01691d3cd075500c9827fcbe8ff8b150ba9be7f8eb4717f2b48c2a5d9896d88585458dff40497422d2029ed0cabb2e853ffe4b845570d1326a6458bdb41a200179b260e7b96ae909757d07ac1abbf20cd0c331380d3e8c448715ed870001f4b0c46e44afbda439172d6eae283c1bf79031e8a6f747a37c22be89db8c8b95ddddf097c894ce011417eafa24a92d684135837da1fe8a9dca6af762ceb8fff4dc1b47cfe460ffabd829852b16f196109369d8d4b28f1462a5bce2772a5885ba7ee8d12a2f0c9f73161a37253a522fee6247790eaf2e8a01b0f2750288d1d400c56b7dd8b5624a474812a6e49cdbe2aa264310cdc4f631ae84ad70d97e6b584225b95b8d1afd2b6ac5",
                    "decodedMethod": {
                        "callParams": [
                            {
                                "name": "proof",
                                "type": "bytes32[24]",
                                "value": [
                                    "0x0a54e868c336107d5e3d9b64f7b3030d1e76d587635542bb4dfa0649fb4b3a09",
                                    "0x0963dea1b41a911d16d67228139117c71e078da9cc1799ba73f541e2c2f1178c",
                                    "0x142cae3155a90d3b3db8f6f3535480d2ecc173e81c573e2b32b976f5fcb9323d",
                                    "0x2f1b5b0568ff3ff743abf8265da5f3f098b4e091a91d9d22c2606844ec3b7f3a",
                                    "0x2dc6e71084563812760471f2ccdb2c2c8122b8985b3d6d26ac655b4445cdfe86",
                                    "0x0096ddcbb723ff9dfdb6eaa9a88edc82d3c2cdca8ee9efe20fc9f27b9b9743a3",
                                    "0x28c7d6790772faf02535cc34b62cb91c45133368b76ea897b3ab3e04b4ed4f32",
                                    "0x08e647bd264bfbb1d92e0ed6c9f2dc5f7b1d3838ff660d8852fe2301cb45674b",
                                    "0x1abac2b996c4e8e122ce1fe38fe30a83d3b7208fedf2975cbc27a9af83b42404",
                                    "0x30463bcac678bed95db12b05ca51c89e94e305bdcd1514e1f3a69ef030eb2d49",
                                    "0x1dbc45ecc191751a17a4334ea7830980c226dee393fbf31af57471225fc84e6a",
                                    "0x2a3b43b8f4bba4dbcd988a98b91b659677639df19f8cfdb45e90713952695eac",
                                    "0x302e18ba228494e807c558520d456ea67acf6b0151b4dedd3532928e3d9f442c",
                                    "0x1602d4f7d6e70bf86d2eec1514ad73913a13ca6a1ac5d3bfdfbec03bdb071a93",
                                    "0x0634b995a959a6d936f29b27a57a78eaa1a37618b2d31ebb587f07d385b17c3f",
                                    "0x0bce60209e3c2982bbd0255077777989f31cfe596b4d26f5aaf5617ba809d23f",
                                    "0x15cb2c51bbffb406f4bdca4b7a721d11004a881205fed779ce01691d3cd07550",
                                    "0x0c9827fcbe8ff8b150ba9be7f8eb4717f2b48c2a5d9896d88585458dff404974",
                                    "0x22d2029ed0cabb2e853ffe4b845570d1326a6458bdb41a200179b260e7b96ae9",
                                    "0x09757d07ac1abbf20cd0c331380d3e8c448715ed870001f4b0c46e44afbda439",
                                    "0x172d6eae283c1bf79031e8a6f747a37c22be89db8c8b95ddddf097c894ce0114",
                                    "0x17eafa24a92d684135837da1fe8a9dca6af762ceb8fff4dc1b47cfe460ffabd8",
                                    "0x29852b16f196109369d8d4b28f1462a5bce2772a5885ba7ee8d12a2f0c9f7316",
                                    "0x1a37253a522fee6247790eaf2e8a01b0f2750288d1d400c56b7dd8b5624a4748"
                                ]
                            },
                            {
                                "name": "pubSignals",
                                "type": "uint256[1]",
                                "value": [
                                    "8,436,505,714,327,391,416,018,512,065,019,027,168,763,548,257,422,105,386,679,936,188,111,630,592,709"
                                ]
                            }
                        ],
                        "constructorArguments": "",
                        "name": "verifyProof",
                        "returnParams": [
                            {
                                "name": "",
                                "type": "bool",
                                "value": true
                            }
                        ],
                        "signature": "verifyProof(bytes32[24],uint256[1])"
                    },
                    "errorInfo": "",
                    "fromAddress": "0x5132a183e9f3cb7c848b0aac5ae0c4f0491b7ab2",
                    "gasUsed": 166899,
                    "id": 3,
                    "methodDecoded": true,
                    "operation": "STATICCALL",
                    "output": "0x0000000000000000000000000000000000000000000000000000000000000001",
                    "revert": false,
                    "revertMessage": "",
                    "selector": "0x9121da8a",
                    "status": true,
                    "value": "0"
                },
                "nodeType": 0
            },
            "4": {
                "invocation": {
                    "address": "0x0000000000000000000000000000000000000007",
                    "callData": "0xc336107d5e3d9b64f7b3030d1e76d587635542bb4dfa0649fb4b3a090963dea1b41a911d16d67228139117c71e078da9cc1799ba73f541e2c2f1178c293d6172763ddf7f7336df1bc66178594d83ada4c0b199df969c877ce42e0162",
                    "decodedMethod": null,
                    "errorInfo": "",
                    "fromAddress": "0x0775e11309d75aa6b0967917fb0213c5673edf81",
                    "gasUsed": 6000,
                    "id": 4,
                    "methodDecoded": false,
                    "operation": "STATICCALL",
                    "output": "0x1c187ed503462d651b30765f1682486fc8313a56cf0260259a5311ee5538131929f4407620d2a352722b051f9f00908405e325eff56c84c49d57f2798fabd03e",
                    "revert": false,
                    "revertMessage": "",
                    "selector": "0x0a54e868",
                    "status": true,
                    "value": "0"
                },
                "nodeType": 0
            },
            "5": {
                "invocation": {
                    "address": "0x0000000000000000000000000000000000000006",
                    "callData": "0x03462d651b30765f1682486fc8313a56cf0260259a5311ee5538131929f4407620d2a352722b051f9f00908405e325eff56c84c49d57f2798fabd03e2b2e45f5cc9fcd40390415fe6f5c6f2f410c781ec6946e45dec011c588e35f702564b62a9cb6f1a55f51bda397195f2c0d8ec2c392d46e8563632fc015dfbf90",
                    "decodedMethod": null,
                    "errorInfo": "",
                    "fromAddress": "0x0775e11309d75aa6b0967917fb0213c5673edf81",
                    "gasUsed": 150,
                    "id": 5,
                    "methodDecoded": false,
                    "operation": "STATICCALL",
                    "output": "0x2296c7bac75bc77051c282336c5e3add414e94f1e97223e24470153aa4bc6fb9116c6e3de60710e8b64d073b9a4a8fc1b695703c8a8bb42278dc6df1c6131327",
                    "revert": false,
                    "revertMessage": "",
                    "selector": "0x1c187ed5",
                    "status": true,
                    "value": "0"
                },
                "nodeType": 0
            },
            "6": {
                "invocation": {
                    "address": "0x0000000000000000000000000000000000000007",
                    "callData": "0x55a90d3b3db8f6f3535480d2ecc173e81c573e2b32b976f5fcb9323d2f1b5b0568ff3ff743abf8265da5f3f098b4e091a91d9d22c2606844ec3b7f3a17ae9d2f7c2eded314b5c72094d41fb09b54aba7bea70ad27d41f9f7d5110179",
                    "decodedMethod": null,
                    "errorInfo": "",
                    "fromAddress": "0x0775e11309d75aa6b0967917fb0213c5673edf81",
                    "gasUsed": 6000,
                    "id": 6,
                    "methodDecoded": false,
                    "operation": "STATICCALL",
                    "output": "0x212f7586c0ee0f49150d1eb7060137da69a569e262beb1b406fabd91a2b99029178e3ca7e3b1f596a19845cf5c8fb1045aacea0611133616fa47651211bd0a20",
                    "revert": false,
                    "revertMessage": "",
                    "selector": "0x142cae31",
                    "status": true,
                    "value": "0"
                },
                "nodeType": 0
            },
            "7": {
                "invocation": {
                    "address": "0x0000000000000000000000000000000000000006",
                    "callData": "0xc0ee0f49150d1eb7060137da69a569e262beb1b406fabd91a2b99029178e3ca7e3b1f596a19845cf5c8fb1045aacea0611133616fa47651211bd0a202296c7bac75bc77051c282336c5e3add414e94f1e97223e24470153aa4bc6fb9116c6e3de60710e8b64d073b9a4a8fc1b695703c8a8bb42278dc6df1c6131327",
                    "decodedMethod": null,
                    "errorInfo": "",
                    "fromAddress": "0x0775e11309d75aa6b0967917fb0213c5673edf81",
                    "gasUsed": 150,
                    "id": 7,
                    "methodDecoded": false,
                    "operation": "STATICCALL",
                    "output": "0x0b9895e68163130a5cc838102228059cd2cc3389cef975d289291fb764f172b12b6d523b2593ef3acefa214cfc198def29ce4a178d69aa6168eb664d376614fa",
                    "revert": false,
                    "revertMessage": "",
                    "selector": "0x212f7586",
                    "status": true,
                    "value": "0"
                },
                "nodeType": 0
            },
            "8": {
                "invocation": {
                    "address": "0x0000000000000000000000000000000000000007",
                    "callData": "0x000000000000000000000000000000000000000000000000000000010000000000000000000000000000000000000000000000000000000000000002001ddfd31138f6f4b30f2e172e8c515eaae0f56169977a407c77cd9ab706d9b2",
                    "decodedMethod": {
                        "callParams": [],
                        "constructorArguments": "",
                        "name": "ROOT4146650865",
                        "returnParams": [
                            {
                                "name": "",
                                "type": "bytes4",
                                "value": "0x2bfd943b"
                            }
                        ],
                        "signature": "ROOT4146650865()"
                    },
                    "errorInfo": "",
                    "fromAddress": "0x0775e11309d75aa6b0967917fb0213c5673edf81",
                    "gasUsed": 6000,
                    "id": 8,
                    "methodDecoded": true,
                    "operation": "STATICCALL",
                    "output": "0x2bfd943bac6053cfbf1817d159c338c0e291606e34472ff1212897ac2aaa5e76203932df4097af37c2e809e15e8e70651d7a092b04b27e147af659840352686e",
                    "revert": false,
                    "revertMessage": "",
                    "selector": "0x00000000",
                    "status": true,
                    "value": "0"
                },
                "nodeType": 0
            },
            "9": {
                "invocation": {
                    "address": "0x0000000000000000000000000000000000000006",
                    "callData": "0xac6053cfbf1817d159c338c0e291606e34472ff1212897ac2aaa5e76203932df4097af37c2e809e15e8e70651d7a092b04b27e147af659840352686e00000000000000000000000000000000000000000000000000000000000000000000000000000000000000000000000000000000000000000000000000000000",
                    "decodedMethod": null,
                    "errorInfo": "",
                    "fromAddress": "0x0775e11309d75aa6b0967917fb0213c5673edf81",
                    "gasUsed": 150,
                    "id": 9,
                    "methodDecoded": false,
                    "operation": "STATICCALL",
                    "output": "0x2bfd943bac6053cfbf1817d159c338c0e291606e34472ff1212897ac2aaa5e76203932df4097af37c2e809e15e8e70651d7a092b04b27e147af659840352686e",
                    "revert": false,
                    "revertMessage": "",
                    "selector": "0x2bfd943b",
                    "status": true,
                    "value": "0"
                },
                "nodeType": 0
            }
        },
        "gasFlame": [
            {
                "children": [
                    {
                        "children": [
                            {
                                "children": [],
                                "depth": 0,
                                "name": "Initial Gas",
                                "value": 35268
                            },
                            {
                                "children": [
                                    {
                                        "children": [
                                            {
                                                "children": [],
                                                "depth": 2,
                                                "name": "sha256hash",
                                                "value": 144
                                            },
                                            {
                                                "children": [
                                                    {
                                                        "children": [],
                                                        "depth": 3,
                                                        "name": "0x0a54e868",
                                                        "value": 6000
                                                    },
                                                    {
                                                        "children": [],
                                                        "depth": 3,
                                                        "name": "0x1c187ed5",
                                                        "value": 150
                                                    },
                                                    {
                                                        "children": [],
                                                        "depth": 3,
                                                        "name": "0x142cae31",
                                                        "value": 6000
                                                    },
                                                    {
                                                        "children": [],
                                                        "depth": 3,
                                                        "name": "0x212f7586",
                                                        "value": 150
                                                    },
                                                    {
                                                        "children": [],
                                                        "depth": 3,
                                                        "name": "ROOT4146650865",
                                                        "value": 6000
                                                    },
                                                    {
                                                        "children": [],
                                                        "depth": 3,
                                                        "name": "0x2bfd943b",
                                                        "value": 150
                                                    },
                                                    {
                                                        "children": [],
                                                        "depth": 3,
                                                        "name": "0x2dc6e710",
                                                        "value": 6000
                                                    },
                                                    {
                                                        "children": [],
                                                        "depth": 3,
                                                        "name": "0x0d3eea52",
                                                        "value": 150
                                                    },
                                                    {
                                                        "children": [],
                                                        "depth": 3,
                                                        "name": "0x0b9895e6",
                                                        "value": 150
                                                    },
                                                    {
                                                        "children": [],
                                                        "depth": 3,
                                                        "name": "0x2061ef89",
                                                        "value": 150
                                                    },
                                                    {
                                                        "children": [],
                                                        "depth": 3,
                                                        "name": "0x28c7d679",
                                                        "value": 6000
                                                    },
                                                    {
                                                        "children": [],
                                                        "depth": 3,
                                                        "name": "0x0907a963",
                                                        "value": 150
                                                    },
                                                    {
                                                        "children": [],
                                                        "depth": 3,
                                                        "name": "0x26a81ee2",
                                                        "value": 113000
                                                    }
                                                ],
                                                "depth": 2,
                                                "name": "verifyProof",
                                                "value": 166899
                                            },
                                            {
                                                "children": [],
                                                "depth": 2,
                                                "name": "balanceOf",
                                                "value": 2829
                                            },
                                            {
                                                "children": [],
                                                "depth": 2,
                                                "name": "transfer",
                                                "value": 10986
                                            },
                                            {
                                                "children": [
                                                    {
                                                        "children": [],
                                                        "depth": 3,
                                                        "name": "onVerifyBatches",
                                                        "value": 2332
                                                    }
                                                ],
                                                "depth": 2,
                                                "name": "onVerifyBatches",
                                                "value": 7315
                                            },
                                            {
                                                "children": [
                                                    {
                                                        "children": [],
                                                        "depth": 3,
                                                        "name": "updateExitRoot",
                                                        "value": 44863
                                                    }
                                                ],
                                                "depth": 2,
                                                "name": "updateExitRoot",
                                                "value": 52179
                                            }
                                        ],
                                        "depth": 1,
                                        "name": "verifyBatchesTrustedAggregator",
                                        "value": 340797
                                    }
                                ],
                                "depth": 0,
                                "name": "Executed Gas",
                                "value": 348292
                            }
                        ],
                        "depth": -1,
                        "name": "Actual Gas Used",
                        "value": 383560
                    },
                    {
                        "children": [],
                        "depth": -1,
                        "name": "Refunded Gas",
                        "value": 0
                    }
                ],
                "depth": -2,
                "name": "Total Gas",
                "value": 383560
            }
        ],
        "isConfirmed": true,
        "mainTrace": [
            {
                "children": [
                    {
                        "children": [
                            {
                                "children": [
                                    {
                                        "children": [],
                                        "depth": 2,
                                        "id": 2,
                                        "order": 2
                                    },
                                    {
                                        "children": [
                                            {
                                                "children": [],
                                                "depth": 3,
                                                "id": 4,
                                                "order": 4
                                            },
                                            {
                                                "children": [],
                                                "depth": 3,
                                                "id": 5,
                                                "order": 5
                                            },
                                            {
                                                "children": [],
                                                "depth": 3,
                                                "id": 6,
                                                "order": 6
                                            },
                                            {
                                                "children": [],
                                                "depth": 3,
                                                "id": 7,
                                                "order": 7
                                            },
                                            {
                                                "children": [],
                                                "depth": 3,
                                                "id": 8,
                                                "order": 8
                                            },
                                            {
                                                "children": [],
                                                "depth": 3,
                                                "id": 9,
                                                "order": 9
                                            },
                                            {
                                                "children": [],
                                                "depth": 3,
                                                "id": 10,
                                                "order": 10
                                            },
                                            {
                                                "children": [],
                                                "depth": 3,
                                                "id": 11,
                                                "order": 11
                                            },
                                            {
                                                "children": [],
                                                "depth": 3,
                                                "id": 12,
                                                "order": 12
                                            },
                                            {
                                                "children": [],
                                                "depth": 3,
                                                "id": 13,
                                                "order": 13
                                            },
                                            {
                                                "children": [],
                                                "depth": 3,
                                                "id": 14,
                                                "order": 14
                                            },
                                            {
                                                "children": [],
                                                "depth": 3,
                                                "id": 15,
                                                "order": 15
                                            },
                                            {
                                                "children": [],
                                                "depth": 3,
                                                "id": 16,
                                                "order": 16
                                            }
                                        ],
                                        "depth": 2,
                                        "id": 3,
                                        "order": 3
                                    },
                                    {
                                        "children": [],
                                        "depth": 2,
                                        "id": 17,
                                        "order": 17
                                    },
                                    {
                                        "children": [
                                            {
                                                "children": [],
                                                "depth": 3,
                                                "id": 19,
                                                "order": 19
                                            }
                                        ],
                                        "depth": 2,
                                        "id": 18,
                                        "order": 18
                                    },
                                    {
                                        "children": [
                                            {
                                                "children": [
                                                    {
                                                        "children": [],
                                                        "depth": 4,
                                                        "id": 22,
                                                        "order": 22
                                                    }
                                                ],
                                                "depth": 3,
                                                "id": 21,
                                                "order": 21
                                            }
                                        ],
                                        "depth": 2,
                                        "id": 20,
                                        "order": 20
                                    },
                                    {
                                        "children": [
                                            {
                                                "children": [
                                                    {
                                                        "children": [],
                                                        "depth": 4,
                                                        "id": 25,
                                                        "order": 25
                                                    }
                                                ],
                                                "depth": 3,
                                                "id": 24,
                                                "order": 24
                                            }
                                        ],
                                        "depth": 2,
                                        "id": 23,
                                        "order": 23
                                    },
                                    {
                                        "children": [],
                                        "depth": 2,
                                        "id": 26,
                                        "order": 26
                                    }
                                ],
                                "depth": 1,
                                "id": 1,
                                "order": 1
                            }
                        ],
                        "depth": 0,
                        "id": 0,
                        "order": 0
                    }
                ],
                "depth": -1,
                "id": -1,
                "order": -1
            }
        ],
        "mainTraceNodeCount": 27,
        "parentIdMap": {
            "0": -1,
            "1": 0,
            "10": 3,
            "11": 3,
            "12": 3,
            "13": 3,
            "14": 3,
            "15": 3,
            "16": 3,
            "17": 1,
            "18": 1,
            "19": 18,
            "2": 1,
            "20": 1,
            "21": 20,
            "22": 21,
            "23": 1,
            "24": 23,
            "25": 24,
            "26": 1,
            "3": 1,
            "4": 3,
            "5": 3,
            "6": 3,
            "7": 3,
            "8": 3,
            "9": 3
        },
        "tidyTrace": [
            {
                "children": [
                    {
                        "children": [
                            {
                                "children": [
                                    {
                                        "children": [
                                            {
                                                "children": [],
                                                "depth": 3,
                                                "id": 19,
                                                "order": 19
                                            }
                                        ],
                                        "depth": 2,
                                        "id": 18,
                                        "order": 18
                                    },
                                    {
                                        "children": [
                                            {
                                                "children": [
                                                    {
                                                        "children": [],
                                                        "depth": 4,
                                                        "id": 22,
                                                        "order": 22
                                                    }
                                                ],
                                                "depth": 3,
                                                "id": 21,
                                                "order": 21
                                            }
                                        ],
                                        "depth": 2,
                                        "id": 20,
                                        "order": 20
                                    },
                                    {
                                        "children": [
                                            {
                                                "children": [
                                                    {
                                                        "children": [],
                                                        "depth": 4,
                                                        "id": 25,
                                                        "order": 25
                                                    }
                                                ],
                                                "depth": 3,
                                                "id": 24,
                                                "order": 24
                                            }
                                        ],
                                        "depth": 2,
                                        "id": 23,
                                        "order": 23
                                    },
                                    {
                                        "children": [],
                                        "depth": 2,
                                        "id": 26,
                                        "order": 26
                                    }
                                ],
                                "depth": 1,
                                "id": 1,
                                "order": 1
                            }
                        ],
                        "depth": 0,
                        "id": 0,
                        "order": 0
                    }
                ],
                "depth": -1,
                "id": -1,
                "order": -1
            }
        ],
        "tidyTraceNodeCount": 11
    },
    "state_change": {
        "stateChanges": [
            {
                "address": "0x455e53cbb86018ac2b8092fdcd39d8444affc3f6",
                "erc": "ERC-20",
                "slots": [
                    {
                        "current": "0x00000000000000000000000000000000000000000000008786e69ced988e3ed8",
                        "key": "0x48661dfedc428875775889aef3ab0fded9ed7a6d0d0ad1a485e3e4cd80f94de6",
                        "prev": "0x00000000000000000000000000000000000000000000008770b24567bfee3ed8"
                    },
                    {
                        "current": "0x0000000000000000000000000000000000000000000000004563918244f4000d",
                        "key": "0x9d05b01b8ed206b34e6c3e2f3a47eda85868764304287599283476351d142cf3",
                        "prev": "0x0000000000000000000000000000000000000000000000005b97e9081d94000d"
                    }
                ],
                "storageVariables": [
                    {
                        "name": "_balances",
                        "type": "mapping(address => uint256)",
                        "value": {
                            "pairs": [
                                {
                                    "key": "0x5132a183e9f3cb7c848b0aac5ae0c4f0491b7ab2",
                                    "value": {
                                        "current": "5000000000000000013",
                                        "prev": "6600000000000000013",
                                        "typeTag": 1
                                    }
                                },
                                {
                                    "key": "0xd49cd5f9776a54fae89b68205f6af69586f98203",
                                    "value": {
                                        "current": "2500031079340795903704",
                                        "prev": "2498431079340795903704",
                                        "typeTag": 1
                                    }
                                }
                            ],
                            "typeTag": 4
                        }
                    }
                ]
            },
            {
                "address": "0x5132a183e9f3cb7c848b0aac5ae0c4f0491b7ab2",
                "erc": "",
                "slots": [
                    {
                        "current": "0x185ca9bc66778520677a097f678d916f981415eb6ad55f8758f5d136201775c6",
                        "key": "0x726e9d91939b80e7c0932a3334ebea7677bbbbdb4a3aec89328b048d1fdf319d",
                        "prev": "0xc37e40f263377c423aab9f0e9bf88b0590eec991a7cb4d3ab4c8332569b9bb1c"
                    },
                    {
                        "current": "0x00000000000697800000000066392e9700000000000179670000000000017999",
                        "key": "0x0000000000000000000000000000000000000000000000000000000000000084",
                        "prev": "0x0000000000069780000000006639273b00000000000179570000000000017999"
                    },
                    {
                        "current": "0x000000000000000000000000000000000000000000009a430000000000009a43",
                        "key": "0x726e9d91939b80e7c0932a3334ebea7677bbbbdb4a3aec89328b048d1fdf319e",
                        "prev": "0x000000000000000000000000000000000000000000009a330000000000009a43"
                    },
                    {
                        "current": "0x7d0b211129f1c8d3ebe707c0539f411d43e1c412a2c4c374c3bcb77514059d57",
                        "key": "0x3705b87c465369a943606fec4f7a92c00dfb708d3fff52d70f8c3fc673695d91",
                        "prev": "0x0000000000000000000000000000000000000000000000000000000000000000"
                    }
                ],
                "storageVariables": [
                    {
                        "name": "totalSequencedBatches",
                        "type": "uint64",
                        "value": {
                            "current": "96665",
                            "prev": "96665",
                            "typeTag": 1
                        }
                    },
                    {
                        "name": "totalVerifiedBatches",
                        "type": "uint64",
                        "value": {
                            "current": "96615",
                            "prev": "96599",
                            "typeTag": 1
                        }
                    },
                    {
                        "name": "lastAggregationTimestamp",
                        "type": "uint64",
                        "value": {
                            "current": "1715023511",
                            "prev": "1715021627",
                            "typeTag": 1
                        }
                    },
                    {
                        "name": "trustedAggregatorTimeout",
                        "type": "uint64",
                        "value": {
                            "current": "432000",
                            "prev": "432000",
                            "typeTag": 1
                        }
                    },
                    {
                        "name": "rollupIDToRollupData",
                        "type": "mapping(uint32 => struct PolygonRollupManager.RollupData)",
                        "value": {
                            "pairs": [
                                {
                                    "key": "2",
                                    "value": {
                                        "fields": [
                                            {
                                                "name": "batchNumToStateRoot",
                                                "type": "mapping(uint64 => bytes32)",
                                                "value": {
                                                    "pairs": [
                                                        {
                                                            "key": "39491",
                                                            "value": {
                                                                "current": "0x7d0b211129f1c8d3ebe707c0539f411d43e1c412a2c4c374c3bcb77514059d57",
                                                                "prev": "0x0000000000000000000000000000000000000000000000000000000000000000",
                                                                "typeTag": 1
                                                            }
                                                        }
                                                    ],
                                                    "typeTag": 4
                                                }
                                            },
                                            {
                                                "name": "lastLocalExitRoot",
                                                "type": "bytes32",
                                                "value": {
                                                    "current": "0x185ca9bc66778520677a097f678d916f981415eb6ad55f8758f5d136201775c6",
                                                    "prev": "0xc37e40f263377c423aab9f0e9bf88b0590eec991a7cb4d3ab4c8332569b9bb1c",
                                                    "typeTag": 1
                                                }
                                            },
                                            {
                                                "name": "lastBatchSequenced",
                                                "type": "uint64",
                                                "value": {
                                                    "current": "39491",
                                                    "prev": "39491",
                                                    "typeTag": 1
                                                }
                                            },
                                            {
                                                "name": "lastVerifiedBatch",
                                                "type": "uint64",
                                                "value": {
                                                    "current": "39491",
                                                    "prev": "39475",
                                                    "typeTag": 1
                                                }
                                            },
                                            {
                                                "name": "lastPendingState",
                                                "type": "uint64",
                                                "value": {
                                                    "current": "0",
                                                    "prev": "0",
                                                    "typeTag": 1
                                                }
                                            },
                                            {
                                                "name": "lastPendingStateConsolidated",
                                                "type": "uint64",
                                                "value": {
                                                    "current": "0",
                                                    "prev": "0",
                                                    "typeTag": 1
                                                }
                                            }
                                        ],
                                        "typeTag": 3
                                    }
                                }
                            ],
                            "typeTag": 4
                        }
                    }
                ]
            },
            {
                "address": "0x580bda1e7a0cfae92fa7f6c20a3794f169ce3cfb",
                "erc": "",
                "slots": [
                    {
                        "current": "0x0000000000000000000000000000000000000000000000000000000000005406",
                        "key": "0x0000000000000000000000000000000000000000000000000000000000000023",
                        "prev": "0x0000000000000000000000000000000000000000000000000000000000005405"
                    },
                    {
                        "current": "0x8474124440bd2c9ef28893ab4e37525ad4834724502b0fcefd8b7a65bc905c12",
                        "key": "0x0000000000000000000000000000000000000000000000000000000000000004",
                        "prev": "0xbf109e77fc26b713d1067c340eaf8412a1922321fca71aa8890b8759b4e2dfa3"
                    },
                    {
                        "current": "0xc889ea529d08438c18410cf95d54b544450be9de3e4a312fd04823b74d4d46ba",
                        "key": "0x0000000000000000000000000000000000000000000000000000000000000000",
                        "prev": "0xe72c32326d397ca604a08adc65c7185d9c8aea23c1575240c078411c2a37c362"
                    },
                    {
                        "current": "0xb7f23cbee37a76c32f83efc50f33dbcd6692589d9571a75aa909ce0c570abded",
                        "key": "0x9ad4bccbe77857ead4162457e797935b095d3d18cebe1e6f405c8e93a7f63fa6",
                        "prev": "0x0000000000000000000000000000000000000000000000000000000000000000"
                    }
                ],
                "storageVariables": [
                    {
                        "name": "globalExitRootMap",
                        "type": "mapping(bytes32 => uint256)",
                        "value": {
                            "pairs": [
                                {
                                    "key": "0xdf0a55c8f3b28df5f317835ef27ad35aaded839b3144f7b7646d2de5c90b7d61",
                                    "value": {
                                        "current": "83201247531541061214176199170527798051057849119201059630047466810214602948077",
                                        "prev": "0",
                                        "typeTag": 1
                                    }
                                }
                            ],
                            "typeTag": 4
                        }
                    },
                    {
                        "name": "depositCount",
                        "type": "uint256",
                        "value": {
                            "current": "21510",
                            "prev": "21509",
                            "typeTag": 1
                        }
                    },
                    {
                        "name": "lastRollupExitRoot",
                        "type": "bytes32",
                        "value": {
                            "current": "0xc889ea529d08438c18410cf95d54b544450be9de3e4a312fd04823b74d4d46ba",
                            "prev": "0xe72c32326d397ca604a08adc65c7185d9c8aea23c1575240c078411c2a37c362",
                            "typeTag": 1
                        }
                    }
                ]
            }
        ]
    }
}