{
    "balance_change": {
        "balanceChanges": [
            {
                "account": "0xc8dfcec53ab1102a38e8f96be8eba37fc5340c99",
                "assets": [
                    {
                        "address": "0x686b30a80826340a59afa564c2a01b79128eb7dd",
                        "amount": "129",
                        "iconUrl": "",
                        "isERC1155": false,
                        "isERC721": false,
                        "sign": false,
                        "value": ""
                    }
                ]
            },
            {
                "account": "0xd8f34fe653d051f66ece6506e835317981f59e0c",
                "assets": [
                    {
                        "address": "0x686b30a80826340a59afa564c2a01b79128eb7dd",
                        "amount": "129",
                        "iconUrl": "",
                        "isERC1155": false,
                        "isERC721": false,
                        "sign": true,
                        "value": ""
                    }
                ]
            }
        ]
    },
    "profile": {
        "basic_info": {
            "baseFee": "",
            "blockNumber": 8034734,
            "callData": "0xa9059cbb000000000000000000000000d8f34fe653d051f66ece6506e835317981f59e0c000000000000000000000000000000000000000000000006fe3c108759640000",
            "debugEnable": true,
            "errorInfo": "",
            "eventCount": 1,
            "feeRecipient": "0x35f61dfb08ada13eba64bf156b80df3d5b3a738d",
            "formatValue": "0",
            "gasLimit": 57582,
            "gasPrice": "16.5",
            "gasUsed": 38388,
            "intTxnCount": 0,
            "internalRevert": false,
            "internalRevertMessage": "",
            "isContractCreation": false,
            "isFlashloan": false,
            "maxFee": "",
            "nonce": 97484,
            "overwritedBlockNumber": -1,
            "priorityFee": "",
            "receiver": "0x686b30a80826340a59afa564c2a01b79128eb7dd",
            "revertMessage": "",
            "sender": "0xc8dfcec53ab1102a38e8f96be8eba37fc5340c99",
            "simulationEnable": true,
            "sourceTxnHash": "0x09716a24085680130c25058744561ef74b61ce727272b33427098d5060b0bdb1",
            "status": true,
            "timestamp": "2019-06-26T16:42:22Z",
            "transactionFee": "0.000633402",
            "txnHash": "0x09716a24085680130c25058744561ef74b61ce727272b33427098d5060b0bdb1",
            "txnIndex": 13,
            "type": 0,
            "value": "0"
        },
        "fund_flow": [
            {
                "amount": "129",
                "from": "0xc8dfcec53ab1102a38e8f96be8eba37fc5340c99",
                "id": 1,
                "isERC1155": false,
                "isERC721": false,
                "isReverted": false,
                "order": 1,
                "to": "0xd8f34fe653d051f66ece6506e835317981f59e0c",
                "token": "0x686b30a80826340a59afa564c2a01b79128eb7dd"
            }
        ],
        "token_infos": [
            {
                "address": "0x686b30a80826340a59afa564c2a01b79128eb7dd",
                "decimals": 18
            },
            {
                "address": "0xc02aaa39b223fe8d0a0e5c4f27ead9083c756cc2",
                "decimals": 18
            },
            {
                "address": "0xeeeeeeeeeeeeeeeeeeeeeeeeeeeeeeeeeeeeeeee",
                "decimals": 18
            }
        ]
    },
    "address_label": {
        "labels": [
            {
                "address": "0x0000000000000000000000000000000000000002",
                "label": "Precompiled"
            },
            {
                "address": "0x0000000000000000000000000000000000000003",
                "label": "Precompiled"
            },
            {
                "address": "0x0000000000000000000000000000000000000004",
                "label": "Precompiled"
            },
            {
                "address": "0xeeeeeeeeeeeeeeeeeeeeeeeeeeeeeeeeeeeeeeee",
                "label": "Ether"
            },
            {
                "address": "0x686b30a80826340a59afa564c2a01b79128eb7dd",
                "label": "Healthy Happy Harmony (HHH)"
            },
            {
                "address": "0x0000000000000000000000000000000000000001",
                "label": "Precompiled"
            }
        ]
    },
    "trace": {
        "accountLabels": null,
        "dataMap": {
            "-1": {
                "invocation": {
                    "address": "0xc8dfcec53ab1102a38e8f96be8eba37fc5340c99",
                    "callData": "",
                    "decodedMethod": null,
                    "errorInfo": "",
                    "fromAddress": "",
                    "gasUsed": 0,
                    "id": -1,
                    "methodDecoded": false,
                    "operation": "",
                    "output": "",
                    "revert": false,
                    "revertMessage": "",
                    "selector": "",
                    "status": false,
                    "value": ""
                },
                "nodeType": 0
            },
            "0": {
                "invocation": {
                    "address": "0x686b30a80826340a59afa564c2a01b79128eb7dd",
                    "callData": "0x000000000000000000000000d8f34fe653d051f66ece6506e835317981f59e0c000000000000000000000000000000000000000000000006fe3c108759640000",
                    "decodedMethod": {
                        "callParams": [
                            {
                                "name": "_to",
                                "type": "address",
                                "value": "0xd8f34fe653d051f66ece6506e835317981f59e0c"
                            },
                            {
                                "decimalAvailable": true,
                                "name": "_value",
                                "type": "uint256",
                                "value": "129,000,000,000,000,000,000"
                            }
                        ],
                        "constructorArguments": "",
                        "name": "transfer",
                        "returnParams": [],
                        "signature": "transfer(address,uint256)"
                    },
                    "errorInfo": "",
                    "fromAddress": "0xc8dfcec53ab1102a38e8f96be8eba37fc5340c99",
                    "gasUsed": 38388,
                    "id": 0,
                    "methodDecoded": true,
                    "operation": "CALL",
                    "output": "",
                    "revert": false,
                    "revertMessage": "",
                    "selector": "0xa9059cbb",
                    "status": true,
                    "value": "0"
                },
                "nodeType": 0
            },
            "1": {
                "event": {
                    "contract": "0x686b30a80826340a59afa564c2a01b79128eb7dd",
                    "decodedLog": {
                        "name": "Transfer",
                        "params": [
                            {
                                "name": "from",
                                "type": "address",
                                "value": "0xc8dfcec53ab1102a38e8f96be8eba37fc5340c99"
                            },
                            {
                                "name": "to",
                                "type": "address",
                                "value": "0xd8f34fe653d051f66ece6506e835317981f59e0c"
                            },
                            {
                                "decimalAvailable": true,
                                "name": "value",
                                "type": "uint256",
                                "value": "129,000,000,000,000,000,000"
                            }
                        ],
                        "signature": "Transfer(address,address,uint256)"
                    },
                    "id": 1,
                    "logData": "0x000000000000000000000000000000000000000000000006fe3c108759640000",
                    "logDecoded": true,
                    "operation": "EVENT",
                    "revert": false,
                    "status": true,
                    "topics": [
                        "0xddf252ad1be2c89b69c2b068fc378daa952ba7f163c4a11628f55a4df523b3ef",
                        "0x000000000000000000000000c8dfcec53ab1102a38e8f96be8eba37fc5340c99",
                        "0x000000000000000000000000d8f34fe653d051f66ece6506e835317981f59e0c"
                    ]
                },
                "nodeType": 1
            }
        },
        "gasFlame": [
            {
                "children": [
                    {
                        "children": [
                            {
                                "children": [],
                                "depth": 0,
                                "name": "Initial Gas",
                                "value": 23256
                            },
                            {
                                "children": [],
                                "depth": 0,
                                "name": "Executed Gas",
                                "value": 15132
                            }
                        ],
                        "depth": -1,
                        "name": "Actual Gas Used",
                        "value": 38388
                    },
                    {
                        "children": [],
                        "depth": -1,
                        "name": "Refunded Gas",
                        "value": 0
                    }
                ],
                "depth": -2,
                "name": "Total Gas",
                "value": 38388
            }
        ],
        "isConfirmed": true,
        "mainTrace": [
            {
                "children": [
                    {
                        "children": [
                            {
                                "children": [],
                                "depth": 1,
                                "id": 1,
                                "order": 1
                            }
                        ],
                        "depth": 0,
                        "id": 0,
                        "order": 0
                    }
                ],
                "depth": -1,
                "id": -1,
                "order": -1
            }
        ],
        "mainTraceNodeCount": 2,
        "parentIdMap": {
            "0": -1,
            "1": 0
        },
        "tidyTrace": [
            {
                "children": [
                    {
                        "children": [
                            {
                                "children": [],
                                "depth": 1,
                                "id": 1,
                                "order": 1
                            }
                        ],
                        "depth": 0,
                        "id": 0,
                        "order": 0
                    }
                ],
                "depth": -1,
                "id": -1,
                "order": -1
            }
        ],
        "tidyTraceNodeCount": 2
    },
    "state_change": {
        "stateChanges": [
            {
                "address": "0x686b30a80826340a59afa564c2a01b79128eb7dd",
                "erc": "",
                "slots": [
                    {
                        "current": "0x00000000000000000000000000000000000000000010ae217421148df27d0000",
                        "key": "0x21448da97da8c0453aae178c78c59e5f0a3724c2f10a4409fea330c59dd04db6",
                        "prev": "0x00000000000000000000000000000000000000000010ae28725d25154be10000"
                    },
                    {
                        "current": "0x000000000000000000000000000000000000000000000492f037764b95800000",
                        "key": "0x45d767d2ab6cfa2476c09974c284fe80b09259607b0c6c4149dad424263ed87c",
                        "prev": "0x00000000000000000000000000000000000000000000048bf1fb65c43c1c0000"
                    }
                ],
                "storageVariables": [
                    {
                        "name": "balanceOf",
                        "type": "mapping(address => uint256)",
                        "value": {
                            "pairs": [
                                {
                                    "key": "0xc8dfcec53ab1102a38e8f96be8eba37fc5340c99",
                                    "value": {
                                        "current": "20165121992400000000000000",
                                        "prev": "20165250992400000000000000",
                                        "typeTag": 1
                                    }
                                },
                                {
                                    "key": "0xd8f34fe653d051f66ece6506e835317981f59e0c",
                                    "value": {
                                        "current": "21600000000000000000000",
                                        "prev": "21471000000000000000000",
                                        "typeTag": 1
                                    }
                                }
                            ],
                            "typeTag": 4
                        }
                    }
                ]
            }
        ]
    }
}