{
    "balance_change": {
        "balanceChanges": [
            {
                "account": "0x3ed4f7233f82943dd6b68afab14835951701fdc9",
                "assets": [
                    {
                        "address": "0x1f5cfb9a00b86bf9982970382bdb900b7744a559",
                        "amount": "2,885.2",
                        "iconUrl": "",
                        "isERC1155": false,
                        "isERC721": false,
                        "sign": false,
                        "value": ""
                    }
                ]
            },
            {
                "account": "0xec8cd964eddc9ab15ffca16036e7c614d69f3251",
                "assets": [
                    {
                        "address": "0x1f5cfb9a00b86bf9982970382bdb900b7744a559",
                        "amount": "2,885.2",
                        "iconUrl": "",
                        "isERC1155": false,
                        "isERC721": false,
                        "sign": true,
                        "value": ""
                    }
                ]
            }
        ]
    },
    "profile": {
        "basic_info": {
            "baseFee": "",
            "blockNumber": 6978358,
            "callData": "0xa9059cbb000000000000000000000000ec8cd964eddc9ab15ffca16036e7c614d69f3251000000000000000000000000000000000000000000000000000000432d21d200",
            "debugEnable": true,
            "errorInfo": "",
            "eventCount": 2,
            "feeRecipient": "0xea674fdde714fd979de3edf0f56aa9716b898ec8",
            "formatValue": "0",
            "gasLimit": 38306,
            "gasPrice": "5.12",
            "gasUsed": 23305,
            "intTxnCount": 0,
            "internalRevert": false,
            "internalRevertMessage": "",
            "isContractCreation": false,
            "isFlashloan": false,
            "maxFee": "",
            "nonce": 0,
            "overwritedBlockNumber": -1,
            "priorityFee": "",
            "receiver": "0x1f5cfb9a00b86bf9982970382bdb900b7744a559",
            "revertMessage": "",
            "sender": "0x3ed4f7233f82943dd6b68afab14835951701fdc9",
            "simulationEnable": true,
            "sourceTxnHash": "0x09b69ece6eeb9885ec85cb5b5ce7360caebd2252f98335238d3eb60d150b87b0",
            "status": true,
            "timestamp": "2018-12-30T06:22:27Z",
            "transactionFee": "0.0001193216",
            "txnHash": "0x09b69ece6eeb9885ec85cb5b5ce7360caebd2252f98335238d3eb60d150b87b0",
            "txnIndex": 108,
            "type": 0,
            "value": "0"
        },
        "fund_flow": [
            {
                "amount": "2,885.2",
                "from": "0x3ed4f7233f82943dd6b68afab14835951701fdc9",
                "id": 1,
                "isERC1155": false,
                "isERC721": false,
                "isReverted": false,
                "order": 1,
                "to": "0xec8cd964eddc9ab15ffca16036e7c614d69f3251",
                "token": "0x1f5cfb9a00b86bf9982970382bdb900b7744a559"
            }
        ],
        "token_infos": [
            {
                "address": "0xc02aaa39b223fe8d0a0e5c4f27ead9083c756cc2",
                "decimals": 18
            },
            {
                "address": "0xeeeeeeeeeeeeeeeeeeeeeeeeeeeeeeeeeeeeeeee",
                "decimals": 18
            },
            {
                "address": "0x1f5cfb9a00b86bf9982970382bdb900b7744a559",
                "decimals": 8
            }
        ]
    },
    "address_label": {
        "labels": [
            {
                "address": "0xeeeeeeeeeeeeeeeeeeeeeeeeeeeeeeeeeeeeeeee",
                "label": "Ether"
            },
            {
                "address": "0x1f5cfb9a00b86bf9982970382bdb900b7744a559",
                "label": "YUN"
            },
            {
                "address": "0x0000000000000000000000000000000000000001",
                "label": "Precompiled"
            },
            {
                "address": "0x0000000000000000000000000000000000000002",
                "label": "Precompiled"
            },
            {
                "address": "0x0000000000000000000000000000000000000003",
                "label": "Precompiled"
            },
            {
                "address": "0x0000000000000000000000000000000000000004",
                "label": "Precompiled"
            }
        ]
    },
    "trace": {
        "accountLabels": null,
        "dataMap": {
            "-1": {
                "invocation": {
                    "address": "0x3ed4f7233f82943dd6b68afab14835951701fdc9",
                    "callData": "",
                    "decodedMethod": null,
                    "errorInfo": "",
                    "fromAddress": "",
                    "gasUsed": 0,
                    "id": -1,
                    "methodDecoded": false,
                    "operation": "",
                    "output": "",
                    "revert": false,
                    "revertMessage": "",
                    "selector": "",
                    "status": false,
                    "value": ""
                },
                "nodeType": 0
            },
            "0": {
                "invocation": {
                    "address": "0x1f5cfb9a00b86bf9982970382bdb900b7744a559",
                    "callData": "0x000000000000000000000000ec8cd964eddc9ab15ffca16036e7c614d69f3251000000000000000000000000000000000000000000000000000000432d21d200",
                    "decodedMethod": {
                        "callParams": [
                            {
                                "name": "_to",
                                "type": "address",
                                "value": "0xec8cd964eddc9ab15ffca16036e7c614d69f3251"
                            },
                            {
                                "decimalAvailable": true,
                                "name": "_value",
                                "type": "uint256",
                                "value": "288,520,000,000"
                            }
                        ],
                        "constructorArguments": "",
                        "name": "transfer",
                        "returnParams": [],
                        "signature": "transfer(address,uint256)"
                    },
                    "errorInfo": "",
                    "fromAddress": "0x3ed4f7233f82943dd6b68afab14835951701fdc9",
                    "gasUsed": 23305,
                    "id": 0,
                    "methodDecoded": true,
                    "operation": "CALL",
                    "output": "",
                    "revert": false,
                    "revertMessage": "",
                    "selector": "0xa9059cbb",
                    "status": true,
                    "value": "0"
                },
                "nodeType": 0
            },
            "1": {
                "event": {
                    "contract": "0x1f5cfb9a00b86bf9982970382bdb900b7744a559",
                    "decodedLog": {
                        "name": "Transfer",
                        "params": [
                            {
                                "name": "from",
                                "type": "address",
                                "value": "0x3ed4f7233f82943dd6b68afab14835951701fdc9"
                            },
                            {
                                "name": "to",
                                "type": "address",
                                "value": "0xec8cd964eddc9ab15ffca16036e7c614d69f3251"
                            },
                            {
                                "decimalAvailable": true,
                                "name": "value",
                                "type": "uint256",
                                "value": "288,520,000,000"
                            }
                        ],
                        "signature": "Transfer(address,address,uint256)"
                    },
                    "id": 1,
                    "logData": "0x000000000000000000000000000000000000000000000000000000432d21d200",
                    "logDecoded": true,
                    "operation": "EVENT",
                    "revert": false,
                    "status": true,
                    "topics": [
                        "0xddf252ad1be2c89b69c2b068fc378daa952ba7f163c4a11628f55a4df523b3ef",
                        "0x0000000000000000000000003ed4f7233f82943dd6b68afab14835951701fdc9",
                        "0x000000000000000000000000ec8cd964eddc9ab15ffca16036e7c614d69f3251"
                    ]
                },
                "nodeType": 1
            },
            "2": {
                "event": {
                    "contract": "0x1f5cfb9a00b86bf9982970382bdb900b7744a559",
                    "decodedLog": {
                        "name": "mylog",
                        "params": [
                            {
                                "name": "code",
                                "type": "uint256",
                                "value": "0"
                            }
                        ],
                        "signature": "mylog(uint256)"
                    },
                    "id": 2,
                    "logData": "0x0000000000000000000000000000000000000000000000000000000000000000",
                    "logDecoded": true,
                    "operation": "EVENT",
                    "revert": false,
                    "status": true,
                    "topics": [
                        "0x67631d1bdda6fede513a18dab2d7282eb1233c8a01cd01f9580aa9543dd82b32"
                    ]
                },
                "nodeType": 1
            }
        },
        "gasFlame": [
            {
                "children": [
                    {
                        "children": [
                            {
                                "children": [],
                                "depth": 0,
                                "name": "Initial Gas",
                                "value": 23064
                            },
                            {
                                "children": [],
                                "depth": 0,
                                "name": "Executed Gas",
                                "value": 15241
                            }
                        ],
                        "depth": -1,
                        "name": "Actual Gas Used",
                        "value": 23305
                    },
                    {
                        "children": [],
                        "depth": -1,
                        "name": "Refunded Gas",
                        "value": 15000
                    }
                ],
                "depth": -2,
                "name": "Total Gas",
                "value": 38305
            }
        ],
        "isConfirmed": true,
        "mainTrace": [
            {
                "children": [
                    {
                        "children": [
                            {
                                "children": [],
                                "depth": 1,
                                "id": 1,
                                "order": 1
                            },
                            {
                                "children": [],
                                "depth": 1,
                                "id": 2,
                                "order": 2
                            }
                        ],
                        "depth": 0,
                        "id": 0,
                        "order": 0
                    }
                ],
                "depth": -1,
                "id": -1,
                "order": -1
            }
        ],
        "mainTraceNodeCount": 3,
        "parentIdMap": {
            "0": -1,
            "1": 0,
            "2": 0
        },
        "tidyTrace": [
            {
                "children": [
                    {
                        "children": [
                            {
                                "children": [],
                                "depth": 1,
                                "id": 1,
                                "order": 1
                            },
                            {
                                "children": [],
                                "depth": 1,
                                "id": 2,
                                "order": 2
                            }
                        ],
                        "depth": 0,
                        "id": 0,
                        "order": 0
                    }
                ],
                "depth": -1,
                "id": -1,
                "order": -1
            }
        ],
        "tidyTraceNodeCount": 3
    },
    "state_change": {
        "stateChanges": [
            {
                "address": "0x1f5cfb9a00b86bf9982970382bdb900b7744a559",
                "erc": "",
                "slots": [
                    {
                        "current": "0x0000000000000000000000000000000000000000000000000000000000000000",
                        "key": "0xe393138a9a4ca7a8fc393c8060139491fec4d62ce3313cf4c88e49d75a3217ff",
                        "prev": "0x000000000000000000000000000000000000000000000000000000432d21d200"
                    },
                    {
                        "current": "0x000000000000000000000000000000000000000000000000014e92fc895bad70",
                        "key": "0x98c51d5caa754a71a381eb136542118ccbb6fbbd6278344c4d91bafe567dfe51",
                        "prev": "0x000000000000000000000000000000000000000000000000014e92b95c39db70"
                    }
                ],
                "storageVariables": [
                    {
                        "name": "balanceOf",
                        "type": "mapping(address => uint256)",
                        "value": {
                            "pairs": [
                                {
                                    "key": "0x3ed4f7233f82943dd6b68afab14835951701fdc9",
                                    "value": {
                                        "current": "0",
                                        "prev": "288520000000",
                                        "typeTag": 1
                                    }
                                },
                                {
                                    "key": "0xec8cd964eddc9ab15ffca16036e7c614d69f3251",
                                    "value": {
                                        "current": "94174255555259760",
                                        "prev": "94173967035259760",
                                        "typeTag": 1
                                    }
                                }
                            ],
                            "typeTag": 4
                        }
                    }
                ]
            }
        ]
    }
}