{
    "balance_change": {
        "balanceChanges": [
            {
                "account": "0xc26671bbeb3c0eacf0805ce40e29730e77f262a8",
                "assets": [
                    {
                        "address": "0xe6b75a1960f91bfa7010dec8543685ead67f8cff",
                        "amount": "5,600",
                        "iconUrl": "",
                        "isERC1155": false,
                        "isERC721": false,
                        "sign": false,
                        "value": ""
                    }
                ]
            },
            {
                "account": "0x4e0793332073001356cbf0ae9b62ed1143c8cfad",
                "assets": [
                    {
                        "address": "0xe6b75a1960f91bfa7010dec8543685ead67f8cff",
                        "amount": "5,600",
                        "iconUrl": "",
                        "isERC1155": false,
                        "isERC721": false,
                        "sign": true,
                        "value": ""
                    }
                ]
            }
        ]
    },
    "profile": {
        "basic_info": {
            "baseFee": "",
            "blockNumber": 8521219,
            "callData": "0xa9059cbb0000000000000000000000004e0793332073001356cbf0ae9b62ed1143c8cfad00000000000000000000000000000000000000000000012f939c99edab800000",
            "debugEnable": true,
            "errorInfo": "",
            "eventCount": 1,
            "feeRecipient": "0x35f61dfb08ada13eba64bf156b80df3d5b3a738d",
            "formatValue": "0",
            "gasLimit": 60000,
            "gasPrice": "20",
            "gasUsed": 37976,
            "intTxnCount": 0,
            "internalRevert": false,
            "internalRevertMessage": "",
            "isContractCreation": false,
            "isFlashloan": false,
            "maxFee": "",
            "nonce": 21,
            "overwritedBlockNumber": -1,
            "priorityFee": "",
            "receiver": "0xe6b75a1960f91bfa7010dec8543685ead67f8cff",
            "revertMessage": "",
            "sender": "0xc26671bbeb3c0eacf0805ce40e29730e77f262a8",
            "simulationEnable": true,
            "sourceTxnHash": "0x0ad512b3259270219c12c0928b0dc2cbc699940b34c2e821a1987929e9f605ea",
            "status": true,
            "timestamp": "2019-09-10T09:12:52Z",
            "transactionFee": "0.00075952",
            "txnHash": "0x0ad512b3259270219c12c0928b0dc2cbc699940b34c2e821a1987929e9f605ea",
            "txnIndex": 64,
            "type": 0,
            "value": "0"
        },
        "fund_flow": [
            {
                "amount": "5,600",
                "from": "0xc26671bbeb3c0eacf0805ce40e29730e77f262a8",
                "id": 1,
                "isERC1155": false,
                "isERC721": false,
                "isReverted": false,
                "order": 1,
                "to": "0x4e0793332073001356cbf0ae9b62ed1143c8cfad",
                "token": "0xe6b75a1960f91bfa7010dec8543685ead67f8cff"
            }
        ],
        "token_infos": [
            {
                "address": "0xc02aaa39b223fe8d0a0e5c4f27ead9083c756cc2",
                "decimals": 18
            },
            {
                "address": "0xe6b75a1960f91bfa7010dec8543685ead67f8cff",
                "decimals": 18
            },
            {
                "address": "0xeeeeeeeeeeeeeeeeeeeeeeeeeeeeeeeeeeeeeeee",
                "decimals": 18
            }
        ]
    },
    "address_label": {
        "labels": [
            {
                "address": "0xeeeeeeeeeeeeeeeeeeeeeeeeeeeeeeeeeeeeeeee",
                "label": "Ether"
            },
            {
                "address": "0xe6b75a1960f91bfa7010dec8543685ead67f8cff",
                "label": "Sea Cucumber Chain (SCC)"
            },
            {
                "address": "0x0000000000000000000000000000000000000001",
                "label": "Precompiled"
            },
            {
                "address": "0x0000000000000000000000000000000000000002",
                "label": "Precompiled"
            },
            {
                "address": "0x0000000000000000000000000000000000000003",
                "label": "Precompiled"
            },
            {
                "address": "0x0000000000000000000000000000000000000004",
                "label": "Precompiled"
            }
        ]
    },
    "trace": {
        "accountLabels": null,
        "dataMap": {
            "-1": {
                "invocation": {
                    "address": "0xc26671bbeb3c0eacf0805ce40e29730e77f262a8",
                    "callData": "",
                    "decodedMethod": null,
                    "errorInfo": "",
                    "fromAddress": "",
                    "gasUsed": 0,
                    "id": -1,
                    "methodDecoded": false,
                    "operation": "",
                    "output": "",
                    "revert": false,
                    "revertMessage": "",
                    "selector": "",
                    "status": false,
                    "value": ""
                },
                "nodeType": 0
            },
            "0": {
                "invocation": {
                    "address": "0xe6b75a1960f91bfa7010dec8543685ead67f8cff",
                    "callData": "0x0000000000000000000000004e0793332073001356cbf0ae9b62ed1143c8cfad00000000000000000000000000000000000000000000012f939c99edab800000",
                    "decodedMethod": {
                        "callParams": [
                            {
                                "name": "_to",
                                "type": "address",
                                "value": "0x4e0793332073001356cbf0ae9b62ed1143c8cfad"
                            },
                            {
                                "decimalAvailable": true,
                                "name": "_value",
                                "type": "uint256",
                                "value": "5,600,000,000,000,000,000,000"
                            }
                        ],
                        "constructorArguments": "",
                        "name": "transfer",
                        "returnParams": [
                            {
                                "name": "",
                                "type": "bool",
                                "value": true
                            }
                        ],
                        "signature": "transfer(address,uint256)"
                    },
                    "errorInfo": "",
                    "fromAddress": "0xc26671bbeb3c0eacf0805ce40e29730e77f262a8",
                    "gasUsed": 37976,
                    "id": 0,
                    "methodDecoded": true,
                    "operation": "CALL",
                    "output": "0x0000000000000000000000000000000000000000000000000000000000000001",
                    "revert": false,
                    "revertMessage": "",
                    "selector": "0xa9059cbb",
                    "status": true,
                    "value": "0"
                },
                "nodeType": 0
            },
            "1": {
                "event": {
                    "contract": "0xe6b75a1960f91bfa7010dec8543685ead67f8cff",
                    "decodedLog": {
                        "name": "Transfer",
                        "params": [
                            {
                                "name": "from",
                                "type": "address",
                                "value": "0xc26671bbeb3c0eacf0805ce40e29730e77f262a8"
                            },
                            {
                                "name": "to",
                                "type": "address",
                                "value": "0x4e0793332073001356cbf0ae9b62ed1143c8cfad"
                            },
                            {
                                "decimalAvailable": true,
                                "name": "value",
                                "type": "uint256",
                                "value": "5,600,000,000,000,000,000,000"
                            }
                        ],
                        "signature": "Transfer(address,address,uint256)"
                    },
                    "id": 1,
                    "logData": "0x00000000000000000000000000000000000000000000012f939c99edab800000",
                    "logDecoded": true,
                    "operation": "EVENT",
                    "revert": false,
                    "status": true,
                    "topics": [
                        "0xddf252ad1be2c89b69c2b068fc378daa952ba7f163c4a11628f55a4df523b3ef",
                        "0x000000000000000000000000c26671bbeb3c0eacf0805ce40e29730e77f262a8",
                        "0x0000000000000000000000004e0793332073001356cbf0ae9b62ed1143c8cfad"
                    ]
                },
                "nodeType": 1
            }
        },
        "gasFlame": [
            {
                "children": [
                    {
                        "children": [
                            {
                                "children": [],
                                "depth": 0,
                                "name": "Initial Gas",
                                "value": 23256
                            },
                            {
                                "children": [],
                                "depth": 0,
                                "name": "Executed Gas",
                                "value": 14720
                            }
                        ],
                        "depth": -1,
                        "name": "Actual Gas Used",
                        "value": 37976
                    },
                    {
                        "children": [],
                        "depth": -1,
                        "name": "Refunded Gas",
                        "value": 0
                    }
                ],
                "depth": -2,
                "name": "Total Gas",
                "value": 37976
            }
        ],
        "isConfirmed": true,
        "mainTrace": [
            {
                "children": [
                    {
                        "children": [
                            {
                                "children": [],
                                "depth": 1,
                                "id": 1,
                                "order": 1
                            }
                        ],
                        "depth": 0,
                        "id": 0,
                        "order": 0
                    }
                ],
                "depth": -1,
                "id": -1,
                "order": -1
            }
        ],
        "mainTraceNodeCount": 2,
        "parentIdMap": {
            "0": -1,
            "1": 0
        },
        "tidyTrace": [
            {
                "children": [
                    {
                        "children": [
                            {
                                "children": [],
                                "depth": 1,
                                "id": 1,
                                "order": 1
                            }
                        ],
                        "depth": 0,
                        "id": 0,
                        "order": 0
                    }
                ],
                "depth": -1,
                "id": -1,
                "order": -1
            }
        ],
        "tidyTraceNodeCount": 2
    },
    "state_change": {
        "stateChanges": [
            {
                "address": "0xe6b75a1960f91bfa7010dec8543685ead67f8cff",
                "erc": "ERC-20",
                "slots": [
                    {
                        "current": "0x00000000000000000000000000000000000000000000000031a65db844acd1e0",
                        "key": "0x691dc1c277d8a5cf665c2992001bd9f6a9468b4a396c83d7542d4b5d52b7df68",
                        "prev": "0x00000000000000000000000000000000000000000000012fc542f7a5f02cd1e0"
                    },
                    {
                        "current": "0x000000000000000000000000000000000000000000164e633daaeddf3309f9b0",
                        "key": "0xfe973475581c1081927215daeba240de53fccd3e7f9fd3194a0dbffaa8d63103",
                        "prev": "0x000000000000000000000000000000000000000000164d33aa0e53f18789f9b0"
                    }
                ],
                "storageVariables": [
                    {
                        "name": "balances",
                        "type": "mapping(address => uint256)",
                        "value": {
                            "pairs": [
                                {
                                    "key": "0x4e0793332073001356cbf0ae9b62ed1143c8cfad",
                                    "value": {
                                        "current": "26966543288474496660011440",
                                        "prev": "26960943288474496660011440",
                                        "typeTag": 1
                                    }
                                },
                                {
                                    "key": "0xc26671bbeb3c0eacf0805ce40e29730e77f262a8",
                                    "value": {
                                        "current": "3577649999999980000",
                                        "prev": "5603577649999999980000",
                                        "typeTag": 1
                                    }
                                }
                            ],
                            "typeTag": 4
                        }
                    }
                ]
            }
        ]
    }
}