{
    "balance_change": {
        "balanceChanges": [
            {
                "account": "0xe6a29962d51495ff79acf1fe4665da7686371c07",
                "assets": [
                    {
                        "address": "0xaf30d2a7e90d7dc361c8c4585e9bb7d2f6f15bc7",
                        "amount": "1,126.84218937",
                        "iconUrl": "",
                        "isERC1155": false,
                        "isERC721": false,
                        "sign": false,
                        "value": ""
                    }
                ]
            },
            {
                "account": "0x236f9f97e0e62388479bf9e5ba4889e46b0273c3",
                "assets": [
                    {
                        "address": "0xaf30d2a7e90d7dc361c8c4585e9bb7d2f6f15bc7",
                        "amount": "1,126.84218937",
                        "iconUrl": "",
                        "isERC1155": false,
                        "isERC721": false,
                        "sign": true,
                        "value": ""
                    }
                ]
            }
        ]
    },
    "profile": {
        "basic_info": {
            "baseFee": "",
            "blockNumber": 5289173,
            "callData": "0xa9059cbb000000000000000000000000236f9f97e0e62388479bf9e5ba4889e46b0273c300000000000000000000000000000000000000000000003d1613a8f75a4dc3ff",
            "debugEnable": true,
            "errorInfo": "",
            "eventCount": 1,
            "feeRecipient": "0x36da475cb5df0fdf780e09a4a87455e9ff0c31c4",
            "formatValue": "0",
            "gasLimit": 168000,
            "gasPrice": "50",
            "gasUsed": 37840,
            "intTxnCount": 0,
            "internalRevert": false,
            "internalRevertMessage": "",
            "isContractCreation": false,
            "isFlashloan": false,
            "maxFee": "",
            "nonce": 0,
            "overwritedBlockNumber": -1,
            "priorityFee": "",
            "receiver": "0xaf30d2a7e90d7dc361c8c4585e9bb7d2f6f15bc7",
            "revertMessage": "",
            "sender": "0xe6a29962d51495ff79acf1fe4665da7686371c07",
            "simulationEnable": true,
            "sourceTxnHash": "0x0afbad6c7a68f67ddb06a135c12eb13af5c7ad58f0d5e5710cf2f0a7c46d106b",
            "status": true,
            "timestamp": "2018-03-20T12:24:46Z",
            "transactionFee": "0.001892",
            "txnHash": "0x0afbad6c7a68f67ddb06a135c12eb13af5c7ad58f0d5e5710cf2f0a7c46d106b",
            "txnIndex": 22,
            "type": 0,
            "value": "0"
        },
        "fund_flow": [
            {
                "amount": "1,126.84218937",
                "from": "0xe6a29962d51495ff79acf1fe4665da7686371c07",
                "id": 1,
                "isERC1155": false,
                "isERC721": false,
                "isReverted": false,
                "order": 1,
                "to": "0x236f9f97e0e62388479bf9e5ba4889e46b0273c3",
                "token": "0xaf30d2a7e90d7dc361c8c4585e9bb7d2f6f15bc7"
            }
        ],
        "token_infos": [
            {
                "address": "0xaf30d2a7e90d7dc361c8c4585e9bb7d2f6f15bc7",
                "decimals": 18
            },
            {
                "address": "0xc02aaa39b223fe8d0a0e5c4f27ead9083c756cc2",
                "decimals": 18
            },
            {
                "address": "0xeeeeeeeeeeeeeeeeeeeeeeeeeeeeeeeeeeeeeeee",
                "decimals": 18
            }
        ]
    },
    "address_label": {
        "labels": [
            {
                "address": "0xeeeeeeeeeeeeeeeeeeeeeeeeeeeeeeeeeeeeeeee",
                "label": "Ether"
            },
            {
                "address": "0xe6a29962d51495ff79acf1fe4665da7686371c07",
                "label": "OKEX"
            },
            {
                "address": "0xaf30d2a7e90d7dc361c8c4585e9bb7d2f6f15bc7",
                "label": "FirstBlood"
            },
            {
                "address": "0x236f9f97e0e62388479bf9e5ba4889e46b0273c3",
                "label": "OKX 2"
            },
            {
                "address": "0x0000000000000000000000000000000000000001",
                "label": "Precompiled"
            },
            {
                "address": "0x0000000000000000000000000000000000000002",
                "label": "Precompiled"
            },
            {
                "address": "0x0000000000000000000000000000000000000003",
                "label": "Precompiled"
            },
            {
                "address": "0x0000000000000000000000000000000000000004",
                "label": "Precompiled"
            }
        ]
    },
    "trace": {
        "accountLabels": null,
        "dataMap": {
            "-1": {
                "invocation": {
                    "address": "0xe6a29962d51495ff79acf1fe4665da7686371c07",
                    "callData": "",
                    "decodedMethod": null,
                    "errorInfo": "",
                    "fromAddress": "",
                    "gasUsed": 0,
                    "id": -1,
                    "methodDecoded": false,
                    "operation": "",
                    "output": "",
                    "revert": false,
                    "revertMessage": "",
                    "selector": "",
                    "status": false,
                    "value": ""
                },
                "nodeType": 0
            },
            "0": {
                "invocation": {
                    "address": "0xaf30d2a7e90d7dc361c8c4585e9bb7d2f6f15bc7",
                    "callData": "0x000000000000000000000000236f9f97e0e62388479bf9e5ba4889e46b0273c300000000000000000000000000000000000000000000003d1613a8f75a4dc3ff",
                    "decodedMethod": {
                        "callParams": [
                            {
                                "name": "_to",
                                "type": "address",
                                "value": "0x236f9f97e0e62388479bf9e5ba4889e46b0273c3"
                            },
                            {
                                "decimalAvailable": true,
                                "name": "_value",
                                "type": "uint256",
                                "value": "1,126,842,189,369,999,999,999"
                            }
                        ],
                        "constructorArguments": "",
                        "name": "transfer",
                        "returnParams": [
                            {
                                "name": "success",
                                "type": "bool",
                                "value": true
                            }
                        ],
                        "signature": "transfer(address,uint256)"
                    },
                    "errorInfo": "",
                    "fromAddress": "0xe6a29962d51495ff79acf1fe4665da7686371c07",
                    "gasUsed": 37840,
                    "id": 0,
                    "methodDecoded": true,
                    "operation": "CALL",
                    "output": "0x0000000000000000000000000000000000000000000000000000000000000001",
                    "revert": false,
                    "revertMessage": "",
                    "selector": "0xa9059cbb",
                    "status": true,
                    "value": "0"
                },
                "nodeType": 0
            },
            "1": {
                "event": {
                    "contract": "0xaf30d2a7e90d7dc361c8c4585e9bb7d2f6f15bc7",
                    "decodedLog": {
                        "name": "Transfer",
                        "params": [
                            {
                                "name": "_from",
                                "type": "address",
                                "value": "0xe6a29962d51495ff79acf1fe4665da7686371c07"
                            },
                            {
                                "name": "_to",
                                "type": "address",
                                "value": "0x236f9f97e0e62388479bf9e5ba4889e46b0273c3"
                            },
                            {
                                "decimalAvailable": true,
                                "name": "_value",
                                "type": "uint256",
                                "value": "1,126,842,189,369,999,999,999"
                            }
                        ],
                        "signature": "Transfer(address,address,uint256)"
                    },
                    "id": 1,
                    "logData": "0x00000000000000000000000000000000000000000000003d1613a8f75a4dc3ff",
                    "logDecoded": true,
                    "operation": "EVENT",
                    "revert": false,
                    "status": true,
                    "topics": [
                        "0xddf252ad1be2c89b69c2b068fc378daa952ba7f163c4a11628f55a4df523b3ef",
                        "0x000000000000000000000000e6a29962d51495ff79acf1fe4665da7686371c07",
                        "0x000000000000000000000000236f9f97e0e62388479bf9e5ba4889e46b0273c3"
                    ]
                },
                "nodeType": 1
            }
        },
        "gasFlame": [
            {
                "children": [
                    {
                        "children": [
                            {
                                "children": [],
                                "depth": 0,
                                "name": "Initial Gas",
                                "value": 23384
                            },
                            {
                                "children": [],
                                "depth": 0,
                                "name": "Executed Gas",
                                "value": 14456
                            }
                        ],
                        "depth": -1,
                        "name": "Actual Gas Used",
                        "value": 37840
                    },
                    {
                        "children": [],
                        "depth": -1,
                        "name": "Refunded Gas",
                        "value": 0
                    }
                ],
                "depth": -2,
                "name": "Total Gas",
                "value": 37840
            }
        ],
        "isConfirmed": true,
        "mainTrace": [
            {
                "children": [
                    {
                        "children": [
                            {
                                "children": [],
                                "depth": 1,
                                "id": 1,
                                "order": 1
                            }
                        ],
                        "depth": 0,
                        "id": 0,
                        "order": 0
                    }
                ],
                "depth": -1,
                "id": -1,
                "order": -1
            }
        ],
        "mainTraceNodeCount": 2,
        "parentIdMap": {
            "0": -1,
            "1": 0
        },
        "tidyTrace": [
            {
                "children": [
                    {
                        "children": [
                            {
                                "children": [],
                                "depth": 1,
                                "id": 1,
                                "order": 1
                            }
                        ],
                        "depth": 0,
                        "id": 0,
                        "order": 0
                    }
                ],
                "depth": -1,
                "id": -1,
                "order": -1
            }
        ],
        "tidyTraceNodeCount": 2
    },
    "state_change": {
        "stateChanges": [
            {
                "address": "0xaf30d2a7e90d7dc361c8c4585e9bb7d2f6f15bc7",
                "erc": "ERC-20",
                "slots": [
                    {
                        "current": "0x0000000000000000000000000000000000000000000000000000000000000001",
                        "key": "0x147eecd513f01a63aa6bf0b08f355314281347799400336edb9ddb0a4f8f7157",
                        "prev": "0x00000000000000000000000000000000000000000000003d1613a8f75a4dc400"
                    },
                    {
                        "current": "0x000000000000000000000000000000000000000000074c9d7487cd3c953e7bca",
                        "key": "0xa7b618a65c0de18643d6e14f8b626de9102c2134ebcaf067b9c5aa5c6572adeb",
                        "prev": "0x000000000000000000000000000000000000000000074c605e7424453af0b7cb"
                    }
                ],
                "storageVariables": []
            }
        ]
    }
}