{
    "balance_change": {
        "balanceChanges": [
            {
                "account": "0x00000000000064c443ef440577c26525a3c34a30",
                "assets": [
                    {
                        "address": "0x14cfc7aeaa468e8c789785c39e0b753915aeb426",
                        "amount": "833.326635793278304256",
                        "iconUrl": "",
                        "isERC1155": false,
                        "isERC721": false,
                        "sign": false,
                        "value": "4683.494612"
                    },
                    {
                        "address": "0xc02aaa39b223fe8d0a0e5c4f27ead9083c756cc2",
                        "amount": "2.240627774539919145",
                        "iconUrl": "https://assets.blocksec.com/icon/f1cb2d02c471d545bbc7722daf3277fd852d98e63d118771af7047bd8256c516.png",
                        "isERC1155": false,
                        "isERC721": false,
                        "sign": true,
                        "value": "4683.494613"
                    }
                ]
            },
            {
                "account": "0xd521ea2eac8f7a575aa985b150265e7ec0767a5f",
                "assets": [
                    {
                        "address": "0x14cfc7aeaa468e8c789785c39e0b753915aeb426",
                        "amount": "833.326635793278304256",
                        "iconUrl": "",
                        "isERC1155": false,
                        "isERC721": false,
                        "sign": true,
                        "value": "4683.494612"
                    },
                    {
                        "address": "0xc02aaa39b223fe8d0a0e5c4f27ead9083c756cc2",
                        "amount": "2.240627774539919145",
                        "iconUrl": "https://assets.blocksec.com/icon/f1cb2d02c471d545bbc7722daf3277fd852d98e63d118771af7047bd8256c516.png",
                        "isERC1155": false,
                        "isERC721": false,
                        "sign": false,
                        "value": "4683.494613"
                    }
                ]
            }
        ]
    },
    "profile": {
        "basic_info": {
            "baseFee": "",
            "blockNumber": 12190798,
            "callData": "0xd149d05c00000000000000000000000000000000000000000000002d2cbaf019a9ac0000000000000000000000000000000000000000000000002354b0232d85e7a64e9600000000000000000000000000000000000000000000000a3744ab90158d000000000000000000000000000014cfc7aeaa468e8c789785c39e0b753915aeb426000000000000000000000000c02aaa39b223fe8d0a0e5c4f27ead9083c756cc20000000000000000000000000000000000000000000000000000000000000001",
            "debugEnable": true,
            "errorInfo": "",
            "eventCount": 4,
            "feeRecipient": "0xea674fdde714fd979de3edf0f56aa9716b898ec8",
            "formatValue": "0",
            "gasLimit": 300000,
            "gasPrice": "110.210200001",
            "gasUsed": 98516,
            "intTxnCount": 6,
            "internalRevert": false,
            "internalRevertMessage": "",
            "isContractCreation": false,
            "isFlashloan": false,
            "maxFee": "",
            "nonce": 17561,
            "overwritedBlockNumber": -1,
            "priorityFee": "",
            "receiver": "0x00000000000064c443ef440577c26525a3c34a30",
            "revertMessage": "",
            "sender": "0xf529aeb37f7ddf8f2d32fc12f984936bf0c0aff7",
            "simulationEnable": true,
            "sourceTxnHash": "0x0b353b4df1fb946ff23c9d09e8f8307f2645d346499f8907834d077841beadc2",
            "status": true,
            "timestamp": "2021-04-07T05:23:50Z",
            "transactionFee": "0.010857468063298516",
            "txnHash": "0x0b353b4df1fb946ff23c9d09e8f8307f2645d346499f8907834d077841beadc2",
            "txnIndex": 120,
            "type": 0,
            "value": "0"
        },
        "fund_flow": [
            {
                "amount": "833.326635793278304256",
                "from": "0x00000000000064c443ef440577c26525a3c34a30",
                "id": 1,
                "isERC1155": false,
                "isERC721": false,
                "isReverted": false,
                "order": 1,
                "to": "0xd521ea2eac8f7a575aa985b150265e7ec0767a5f",
                "token": "0x14cfc7aeaa468e8c789785c39e0b753915aeb426"
            },
            {
                "amount": "2.240627774539919145",
                "from": "0xd521ea2eac8f7a575aa985b150265e7ec0767a5f",
                "id": 2,
                "isERC1155": false,
                "isERC721": false,
                "isReverted": false,
                "order": 2,
                "to": "0x00000000000064c443ef440577c26525a3c34a30",
                "token": "0xc02aaa39b223fe8d0a0e5c4f27ead9083c756cc2"
            }
        ],
        "token_infos": [
            {
                "address": "0xc02aaa39b223fe8d0a0e5c4f27ead9083c756cc2",
                "decimals": 18
            },
            {
                "address": "0xeeeeeeeeeeeeeeeeeeeeeeeeeeeeeeeeeeeeeeee",
                "decimals": 18
            },
            {
                "address": "0x14cfc7aeaa468e8c789785c39e0b753915aeb426",
                "decimals": 18
            }
        ]
    },
    "address_label": {
        "labels": [
            {
                "address": "0x0000000000000000000000000000000000000001",
                "label": "Precompiled"
            },
            {
                "address": "0x0000000000000000000000000000000000000002",
                "label": "Precompiled"
            },
            {
                "address": "0x0000000000000000000000000000000000000003",
                "label": "Precompiled"
            },
            {
                "address": "0x0000000000000000000000000000000000000004",
                "label": "Precompiled"
            },
            {
                "address": "0xeeeeeeeeeeeeeeeeeeeeeeeeeeeeeeeeeeeeeeee",
                "label": "Ether"
            },
            {
                "address": "0xc02aaa39b223fe8d0a0e5c4f27ead9083c756cc2",
                "label": "Wrapped Ether (WETH)"
            },
            {
                "address": "0xd521ea2eac8f7a575aa985b150265e7ec0767a5f",
                "label": "Uniswap V2: $FDD"
            },
            {
                "address": "0x14cfc7aeaa468e8c789785c39e0b753915aeb426",
                "label": "FrogDAO Dime ($FDD)"
            }
        ]
    },
    "trace": {
        "accountLabels": null,
        "dataMap": {
            "-1": {
                "invocation": {
                    "address": "0xf529aeb37f7ddf8f2d32fc12f984936bf0c0aff7",
                    "callData": "",
                    "decodedMethod": null,
                    "errorInfo": "",
                    "fromAddress": "",
                    "gasUsed": 0,
                    "id": -1,
                    "methodDecoded": false,
                    "operation": "",
                    "output": "",
                    "revert": false,
                    "revertMessage": "",
                    "selector": "",
                    "status": false,
                    "value": ""
                },
                "nodeType": 0
            },
            "0": {
                "invocation": {
                    "address": "0x00000000000064c443ef440577c26525a3c34a30",
                    "callData": "0x00000000000000000000000000000000000000000000002d2cbaf019a9ac0000000000000000000000000000000000000000000000002354b0232d85e7a64e9600000000000000000000000000000000000000000000000a3744ab90158d000000000000000000000000000014cfc7aeaa468e8c789785c39e0b753915aeb426000000000000000000000000c02aaa39b223fe8d0a0e5c4f27ead9083c756cc20000000000000000000000000000000000000000000000000000000000000001",
                    "decodedMethod": null,
                    "errorInfo": "",
                    "fromAddress": "0xf529aeb37f7ddf8f2d32fc12f984936bf0c0aff7",
                    "gasUsed": 98516,
                    "id": 0,
                    "methodDecoded": false,
                    "operation": "CALL",
                    "output": "",
                    "revert": false,
                    "revertMessage": "",
                    "selector": "0xd149d05c",
                    "status": true,
                    "value": "0"
                },
                "nodeType": 0
            },
            "1": {
                "invocation": {
                    "address": "0xd521ea2eac8f7a575aa985b150265e7ec0767a5f",
                    "callData": "0x",
                    "decodedMethod": {
                        "callParams": [],
                        "constructorArguments": "",
                        "name": "getReserves",
                        "returnParams": [
                            {
                                "name": "_reserve0",
                                "type": "uint112",
                                "value": "166,011,718,805,063,907,036,822"
                            },
                            {
                                "name": "_reserve1",
                                "type": "uint112",
                                "value": "449,951,910,770,281,608,424"
                            },
                            {
                                "name": "_blockTimestampLast",
                                "type": "uint32",
                                "value": "1,617,772,957"
                            }
                        ],
                        "signature": "getReserves()"
                    },
                    "errorInfo": "",
                    "fromAddress": "0x00000000000064c443ef440577c26525a3c34a30",
                    "gasUsed": 1204,
                    "id": 1,
                    "methodDecoded": true,
                    "operation": "STATICCALL",
                    "output": "0x00000000000000000000000000000000000000000000232783683d6c3dfa4e9600000000000000000000000000000000000000000000001864564ee5eee4f4e800000000000000000000000000000000000000000000000000000000606d419d",
                    "revert": false,
                    "revertMessage": "",
                    "selector": "0x0902f1ac",
                    "status": true,
                    "value": "0"
                },
                "nodeType": 0
            },
            "10": {
                "event": {
                    "contract": "0xd521ea2eac8f7a575aa985b150265e7ec0767a5f",
                    "decodedLog": {
                        "name": "Swap",
                        "params": [
                            {
                                "name": "sender",
                                "type": "address",
                                "value": "0x00000000000064c443ef440577c26525a3c34a30"
                            },
                            {
                                "name": "to",
                                "type": "address",
                                "value": "0x00000000000064c443ef440577c26525a3c34a30"
                            },
                            {
                                "name": "amount0In",
                                "type": "uint256",
                                "value": "833,326,635,793,278,304,256"
                            },
                            {
                                "name": "amount1In",
                                "type": "uint256",
                                "value": "0"
                            },
                            {
                                "name": "amount0Out",
                                "type": "uint256",
                                "value": "0"
                            },
                            {
                                "name": "amount1Out",
                                "type": "uint256",
                                "value": "2,240,627,774,539,919,145"
                            }
                        ],
                        "signature": "Swap(address,uint256,uint256,uint256,uint256,address)"
                    },
                    "id": 10,
                    "logData": "0x00000000000000000000000000000000000000000000002d2cbaf019a9ac0000000000000000000000000000000000000000000000000000000000000000000000000000000000000000000000000000000000000000000000000000000000000000000000000000000000000000000000000000000000001f184f16ef536f29",
                    "logDecoded": true,
                    "operation": "EVENT",
                    "revert": false,
                    "status": true,
                    "topics": [
                        "0xd78ad95fa46c994b6551d0da85fc275fe613ce37657fb8d5e3d130840159d822",
                        "0x00000000000000000000000000000000000064c443ef440577c26525a3c34a30",
                        "0x00000000000000000000000000000000000064c443ef440577c26525a3c34a30"
                    ]
                },
                "nodeType": 1
            },
            "2": {
                "invocation": {
                    "address": "0x14cfc7aeaa468e8c789785c39e0b753915aeb426",
                    "callData": "0x000000000000000000000000d521ea2eac8f7a575aa985b150265e7ec0767a5f00000000000000000000000000000000000000000000002d2cbaf019a9ac0000",
                    "decodedMethod": {
                        "callParams": [
                            {
                                "name": "to",
                                "type": "address",
                                "value": "0xd521ea2eac8f7a575aa985b150265e7ec0767a5f"
                            },
                            {
                                "decimalAvailable": true,
                                "name": "tokens",
                                "type": "uint256",
                                "value": "833,326,635,793,278,304,256"
                            }
                        ],
                        "constructorArguments": "",
                        "name": "transfer",
                        "returnParams": [
                            {
                                "name": "success",
                                "type": "bool",
                                "value": true
                            }
                        ],
                        "signature": "transfer(address,uint256)"
                    },
                    "errorInfo": "",
                    "fromAddress": "0x00000000000064c443ef440577c26525a3c34a30",
                    "gasUsed": 14388,
                    "id": 2,
                    "methodDecoded": true,
                    "operation": "CALL",
                    "output": "0x0000000000000000000000000000000000000000000000000000000000000001",
                    "revert": false,
                    "revertMessage": "",
                    "selector": "0xa9059cbb",
                    "status": true,
                    "value": "0"
                },
                "nodeType": 0
            },
            "3": {
                "event": {
                    "contract": "0x14cfc7aeaa468e8c789785c39e0b753915aeb426",
                    "decodedLog": {
                        "name": "Transfer",
                        "params": [
                            {
                                "name": "from",
                                "type": "address",
                                "value": "0x00000000000064c443ef440577c26525a3c34a30"
                            },
                            {
                                "name": "to",
                                "type": "address",
                                "value": "0xd521ea2eac8f7a575aa985b150265e7ec0767a5f"
                            },
                            {
                                "decimalAvailable": true,
                                "name": "tokens",
                                "type": "uint256",
                                "value": "833,326,635,793,278,304,256"
                            }
                        ],
                        "signature": "Transfer(address,address,uint256)"
                    },
                    "id": 3,
                    "logData": "0x00000000000000000000000000000000000000000000002d2cbaf019a9ac0000",
                    "logDecoded": true,
                    "operation": "EVENT",
                    "revert": false,
                    "status": true,
                    "topics": [
                        "0xddf252ad1be2c89b69c2b068fc378daa952ba7f163c4a11628f55a4df523b3ef",
                        "0x00000000000000000000000000000000000064c443ef440577c26525a3c34a30",
                        "0x000000000000000000000000d521ea2eac8f7a575aa985b150265e7ec0767a5f"
                    ]
                },
                "nodeType": 1
            },
            "4": {
                "invocation": {
                    "address": "0xd521ea2eac8f7a575aa985b150265e7ec0767a5f",
                    "callData": "0x00000000000000000000000000000000000000000000000000000000000000000000000000000000000000000000000000000000000000001f184f16ef536f2900000000000000000000000000000000000064c443ef440577c26525a3c34a3000000000000000000000000000000000000000000000000000000000000000800000000000000000000000000000000000000000000000000000000000000000",
                    "decodedMethod": {
                        "callParams": [
                            {
                                "name": "amount0Out",
                                "type": "uint256",
                                "value": "0"
                            },
                            {
                                "name": "amount1Out",
                                "type": "uint256",
                                "value": "2,240,627,774,539,919,145"
                            },
                            {
                                "name": "to",
                                "type": "address",
                                "value": "0x00000000000064c443ef440577c26525a3c34a30"
                            },
                            {
                                "name": "data",
                                "type": "bytes",
                                "value": "0x"
                            }
                        ],
                        "constructorArguments": "",
                        "name": "swap",
                        "returnParams": [],
                        "signature": "swap(uint256,uint256,address,bytes)"
                    },
                    "errorInfo": "",
                    "fromAddress": "0x00000000000064c443ef440577c26525a3c34a30",
                    "gasUsed": 56704,
                    "id": 4,
                    "methodDecoded": true,
                    "operation": "CALL",
                    "output": "",
                    "revert": false,
                    "revertMessage": "",
                    "selector": "0x022c0d9f",
                    "status": true,
                    "value": "0"
                },
                "nodeType": 0
            },
            "5": {
                "invocation": {
                    "address": "0xc02aaa39b223fe8d0a0e5c4f27ead9083c756cc2",
                    "callData": "0x00000000000000000000000000000000000064c443ef440577c26525a3c34a300000000000000000000000000000000000000000000000001f184f16ef536f29",
                    "decodedMethod": {
                        "callParams": [
                            {
                                "name": "dst",
                                "type": "address",
                                "value": "0x00000000000064c443ef440577c26525a3c34a30"
                            },
                            {
                                "decimalAvailable": true,
                                "name": "wad",
                                "type": "uint256",
                                "value": "2,240,627,774,539,919,145"
                            }
                        ],
                        "constructorArguments": "",
                        "name": "transfer",
                        "returnParams": [
                            {
                                "name": "",
                                "type": "bool",
                                "value": true
                            }
                        ],
                        "signature": "transfer(address,uint256)"
                    },
                    "errorInfo": "",
                    "fromAddress": "0xd521ea2eac8f7a575aa985b150265e7ec0767a5f",
                    "gasUsed": 15162,
                    "id": 5,
                    "methodDecoded": true,
                    "operation": "CALL",
                    "output": "0x0000000000000000000000000000000000000000000000000000000000000001",
                    "revert": false,
                    "revertMessage": "",
                    "selector": "0xa9059cbb",
                    "status": true,
                    "value": "0"
                },
                "nodeType": 0
            },
            "6": {
                "event": {
                    "contract": "0xc02aaa39b223fe8d0a0e5c4f27ead9083c756cc2",
                    "decodedLog": {
                        "name": "Transfer",
                        "params": [
                            {
                                "name": "src",
                                "type": "address",
                                "value": "0xd521ea2eac8f7a575aa985b150265e7ec0767a5f"
                            },
                            {
                                "name": "dst",
                                "type": "address",
                                "value": "0x00000000000064c443ef440577c26525a3c34a30"
                            },
                            {
                                "decimalAvailable": true,
                                "name": "wad",
                                "type": "uint256",
                                "value": "2,240,627,774,539,919,145"
                            }
                        ],
                        "signature": "Transfer(address,address,uint256)"
                    },
                    "id": 6,
                    "logData": "0x0000000000000000000000000000000000000000000000001f184f16ef536f29",
                    "logDecoded": true,
                    "operation": "EVENT",
                    "revert": false,
                    "status": true,
                    "topics": [
                        "0xddf252ad1be2c89b69c2b068fc378daa952ba7f163c4a11628f55a4df523b3ef",
                        "0x000000000000000000000000d521ea2eac8f7a575aa985b150265e7ec0767a5f",
                        "0x00000000000000000000000000000000000064c443ef440577c26525a3c34a30"
                    ]
                },
                "nodeType": 1
            },
            "7": {
                "invocation": {
                    "address": "0x14cfc7aeaa468e8c789785c39e0b753915aeb426",
                    "callData": "0x000000000000000000000000d521ea2eac8f7a575aa985b150265e7ec0767a5f",
                    "decodedMethod": {
                        "callParams": [
                            {
                                "name": "tokenOwner",
                                "type": "address",
                                "value": "0xd521ea2eac8f7a575aa985b150265e7ec0767a5f"
                            }
                        ],
                        "constructorArguments": "",
                        "name": "balanceOf",
                        "returnParams": [
                            {
                                "decimalAvailable": true,
                                "name": "balance",
                                "type": "uint256",
                                "value": "166,845,045,440,857,185,341,078"
                            }
                        ],
                        "signature": "balanceOf(address)"
                    },
                    "errorInfo": "",
                    "fromAddress": "0xd521ea2eac8f7a575aa985b150265e7ec0767a5f",
                    "gasUsed": 1285,
                    "id": 7,
                    "methodDecoded": true,
                    "operation": "STATICCALL",
                    "output": "0x000000000000000000000000000000000000000000002354b0232d85e7a64e96",
                    "revert": false,
                    "revertMessage": "",
                    "selector": "0x70a08231",
                    "status": true,
                    "value": "0"
                },
                "nodeType": 0
            },
            "8": {
                "invocation": {
                    "address": "0xc02aaa39b223fe8d0a0e5c4f27ead9083c756cc2",
                    "callData": "0x000000000000000000000000d521ea2eac8f7a575aa985b150265e7ec0767a5f",
                    "decodedMethod": {
                        "callParams": [
                            {
                                "name": "",
                                "type": "address",
                                "value": "0xd521ea2eac8f7a575aa985b150265e7ec0767a5f"
                            }
                        ],
                        "constructorArguments": "",
                        "name": "balanceOf",
                        "returnParams": [
                            {
                                "decimalAvailable": true,
                                "name": "",
                                "type": "uint256",
                                "value": "447,711,282,995,741,689,279"
                            }
                        ],
                        "signature": "balanceOf(address)"
                    },
                    "errorInfo": "",
                    "fromAddress": "0xd521ea2eac8f7a575aa985b150265e7ec0767a5f",
                    "gasUsed": 1234,
                    "id": 8,
                    "methodDecoded": true,
                    "operation": "STATICCALL",
                    "output": "0x000000000000000000000000000000000000000000000018453dffceff9185bf",
                    "revert": false,
                    "revertMessage": "",
                    "selector": "0x70a08231",
                    "status": true,
                    "value": "0"
                },
                "nodeType": 0
            },
            "9": {
                "event": {
                    "contract": "0xd521ea2eac8f7a575aa985b150265e7ec0767a5f",
                    "decodedLog": {
                        "name": "Sync",
                        "params": [
                            {
                                "name": "reserve0",
                                "type": "uint112",
                                "value": "166,845,045,440,857,185,341,078"
                            },
                            {
                                "name": "reserve1",
                                "type": "uint112",
                                "value": "447,711,282,995,741,689,279"
                            }
                        ],
                        "signature": "Sync(uint112,uint112)"
                    },
                    "id": 9,
                    "logData": "0x000000000000000000000000000000000000000000002354b0232d85e7a64e96000000000000000000000000000000000000000000000018453dffceff9185bf",
                    "logDecoded": true,
                    "operation": "EVENT",
                    "revert": false,
                    "status": true,
                    "topics": [
                        "0x1c411e9a96e071241c2f21f7726b17ae89e3cab4c78be50e062b03a9fffbbad1"
                    ]
                },
                "nodeType": 1
            }
        },
        "gasFlame": [
            {
                "children": [
                    {
                        "children": [
                            {
                                "children": [],
                                "depth": 0,
                                "name": "Initial Gas",
                                "value": 22612
                            },
                            {
                                "children": [
                                    {
                                        "children": [],
                                        "depth": 1,
                                        "name": "getReserves",
                                        "value": 1204
                                    },
                                    {
                                        "children": [],
                                        "depth": 1,
                                        "name": "transfer",
                                        "value": 14388
                                    },
                                    {
                                        "children": [
                                            {
                                                "children": [],
                                                "depth": 2,
                                                "name": "transfer",
                                                "value": 15162
                                            },
                                            {
                                                "children": [],
                                                "depth": 2,
                                                "name": "balanceOf",
                                                "value": 1285
                                            },
                                            {
                                                "children": [],
                                                "depth": 2,
                                                "name": "balanceOf",
                                                "value": 1234
                                            }
                                        ],
                                        "depth": 1,
                                        "name": "swap",
                                        "value": 56704
                                    }
                                ],
                                "depth": 0,
                                "name": "Executed Gas",
                                "value": 80104
                            }
                        ],
                        "depth": -1,
                        "name": "Actual Gas Used",
                        "value": 98516
                    },
                    {
                        "children": [],
                        "depth": -1,
                        "name": "Refunded Gas",
                        "value": 4200
                    }
                ],
                "depth": -2,
                "name": "Total Gas",
                "value": 102716
            }
        ],
        "isConfirmed": true,
        "mainTrace": [
            {
                "children": [
                    {
                        "children": [
                            {
                                "children": [],
                                "depth": 1,
                                "id": 1,
                                "order": 1
                            },
                            {
                                "children": [
                                    {
                                        "children": [],
                                        "depth": 2,
                                        "id": 3,
                                        "order": 3
                                    }
                                ],
                                "depth": 1,
                                "id": 2,
                                "order": 2
                            },
                            {
                                "children": [
                                    {
                                        "children": [
                                            {
                                                "children": [],
                                                "depth": 3,
                                                "id": 6,
                                                "order": 6
                                            }
                                        ],
                                        "depth": 2,
                                        "id": 5,
                                        "order": 5
                                    },
                                    {
                                        "children": [],
                                        "depth": 2,
                                        "id": 7,
                                        "order": 7
                                    },
                                    {
                                        "children": [],
                                        "depth": 2,
                                        "id": 8,
                                        "order": 8
                                    },
                                    {
                                        "children": [],
                                        "depth": 2,
                                        "id": 9,
                                        "order": 9
                                    },
                                    {
                                        "children": [],
                                        "depth": 2,
                                        "id": 10,
                                        "order": 10
                                    }
                                ],
                                "depth": 1,
                                "id": 4,
                                "order": 4
                            }
                        ],
                        "depth": 0,
                        "id": 0,
                        "order": 0
                    }
                ],
                "depth": -1,
                "id": -1,
                "order": -1
            }
        ],
        "mainTraceNodeCount": 11,
        "parentIdMap": {
            "0": -1,
            "1": 0,
            "10": 4,
            "2": 0,
            "3": 2,
            "4": 0,
            "5": 4,
            "6": 5,
            "7": 4,
            "8": 4,
            "9": 4
        },
        "tidyTrace": [
            {
                "children": [
                    {
                        "children": [
                            {
                                "children": [
                                    {
                                        "children": [],
                                        "depth": 2,
                                        "id": 3,
                                        "order": 3
                                    }
                                ],
                                "depth": 1,
                                "id": 2,
                                "order": 2
                            },
                            {
                                "children": [
                                    {
                                        "children": [
                                            {
                                                "children": [],
                                                "depth": 3,
                                                "id": 6,
                                                "order": 6
                                            }
                                        ],
                                        "depth": 2,
                                        "id": 5,
                                        "order": 5
                                    },
                                    {
                                        "children": [],
                                        "depth": 2,
                                        "id": 9,
                                        "order": 9
                                    },
                                    {
                                        "children": [],
                                        "depth": 2,
                                        "id": 10,
                                        "order": 10
                                    }
                                ],
                                "depth": 1,
                                "id": 4,
                                "order": 4
                            }
                        ],
                        "depth": 0,
                        "id": 0,
                        "order": 0
                    }
                ],
                "depth": -1,
                "id": -1,
                "order": -1
            }
        ],
        "tidyTraceNodeCount": 8
    },
    "state_change": {
        "stateChanges": [
            {
                "address": "0x14cfc7aeaa468e8c789785c39e0b753915aeb426",
                "erc": "ERC-20",
                "slots": [
                    {
                        "current": "0x00000000000000000000000000000000000000000000009226e431854007cedb",
                        "key": "0xc528737fa31834f576c8c734787c8ec433dc65b32c92f6c0e1ec314c0a93df33",
                        "prev": "0x0000000000000000000000000000000000000000000000bf539f219ee9b3cedb"
                    },
                    {
                        "current": "0x000000000000000000000000000000000000000000002354b0232d85e7a64e96",
                        "key": "0x1ff9a242fc37b7f9020da683484e2e04baede69edd05429e0498494b2f17efab",
                        "prev": "0x00000000000000000000000000000000000000000000232783683d6c3dfa4e96"
                    }
                ],
                "storageVariables": [
                    {
                        "name": "balances",
                        "type": "mapping(address => uint256)",
                        "value": {
                            "pairs": [
                                {
                                    "key": "0x00000000000064c443ef440577c26525a3c34a30",
                                    "value": {
                                        "current": "2696027054078100491995",
                                        "prev": "3529353689871378796251",
                                        "typeTag": 1
                                    }
                                },
                                {
                                    "key": "0xd521ea2eac8f7a575aa985b150265e7ec0767a5f",
                                    "value": {
                                        "current": "166845045440857185341078",
                                        "prev": "166011718805063907036822",
                                        "typeTag": 1
                                    }
                                }
                            ],
                            "typeTag": 4
                        }
                    }
                ]
            },
            {
                "address": "0xc02aaa39b223fe8d0a0e5c4f27ead9083c756cc2",
                "erc": "ERC-20",
                "slots": [
                    {
                        "current": "0x000000000000000000000000000000000000000000000018453dffceff9185bf",
                        "key": "0x548c67c734a152044cc7ac54e7cfe3fe57925612cb6526fea47560a13784731f",
                        "prev": "0x00000000000000000000000000000000000000000000001864564ee5eee4f4e8"
                    },
                    {
                        "current": "0x0000000000000000000000000000000000000000000000026feeeae29d6818e9",
                        "key": "0x3eb5578b7552ae0ddf5bea1fea09f5faee8b55d98966f3616e74a09bf5805f03",
                        "prev": "0x00000000000000000000000000000000000000000000000250d69bcbae14a9c0"
                    }
                ],
                "storageVariables": [
                    {
                        "name": "balanceOf",
                        "type": "mapping(address => uint256)",
                        "value": {
                            "pairs": [
                                {
                                    "key": "0x00000000000064c443ef440577c26525a3c34a30",
                                    "value": {
                                        "current": "44959130389110593769",
                                        "prev": "42718502614570674624",
                                        "typeTag": 1
                                    }
                                },
                                {
                                    "key": "0xd521ea2eac8f7a575aa985b150265e7ec0767a5f",
                                    "value": {
                                        "current": "447711282995741689279",
                                        "prev": "449951910770281608424",
                                        "typeTag": 1
                                    }
                                }
                            ],
                            "typeTag": 4
                        }
                    }
                ]
            },
            {
                "address": "0xd521ea2eac8f7a575aa985b150265e7ec0767a5f",
                "erc": "ERC-20",
                "slots": [
                    {
                        "current": "0x00000000000000000000000000001fd22f0b2f63293a9af39ad4567d08d7a0f9",
                        "key": "0x000000000000000000000000000000000000000000000000000000000000000a",
                        "prev": "0x00000000000000000000000000001fd1c5d58453b23161c51fe5f753c36a55e2"
                    },
                    {
                        "current": "0x606d41e6000000000018453dffceff9185bf000000002354b0232d85e7a64e96",
                        "key": "0x0000000000000000000000000000000000000000000000000000000000000008",
                        "prev": "0x606d419d00000000001864564ee5eee4f4e800000000232783683d6c3dfa4e96"
                    },
                    {
                        "current": "0x0000000000000000000000000000000009c37cf1faf552620667f1bc50b9d8cf",
                        "key": "0x0000000000000000000000000000000000000000000000000000000000000009",
                        "prev": "0x0000000000000000000000000000000009c34a4b428b8423dc4de0e554d50268"
                    }
                ],
                "storageVariables": [
                    {
                        "name": "price1CumulativeLast",
                        "type": "uint256",
                        "value": {
                            "current": "2772002692730161657497158990859176865407225",
                            "prev": "2771862845129353434455956756974709666108898",
                            "typeTag": 1
                        }
                    },
                    {
                        "name": "reserve0",
                        "type": "uint112",
                        "value": {
                            "current": "166845045440857185341078",
                            "prev": "166011718805063907036822",
                            "typeTag": 1
                        }
                    },
                    {
                        "name": "reserve1",
                        "type": "uint112",
                        "value": {
                            "current": "447711282995741689279",
                            "prev": "449951910770281608424",
                            "typeTag": 1
                        }
                    },
                    {
                        "name": "blockTimestampLast",
                        "type": "uint32",
                        "value": {
                            "current": "1617773030",
                            "prev": "1617772957",
                            "typeTag": 1
                        }
                    },
                    {
                        "name": "price0CumulativeLast",
                        "type": "uint256",
                        "value": {
                            "current": "12978084039924381311971608971353643215",
                            "prev": "12977056710496068388155982840360927848",
                            "typeTag": 1
                        }
                    }
                ]
            }
        ]
    }
}