{
    "balance_change": {
        "balanceChanges": [
            {
                "account": "0xa6ffa35ac1e08ab95e8b2de1b89742d621d76aec",
                "assets": [
                    {
                        "address": "0xacaca5b8805636608e14c64b0bfffc2deb2c6cec",
                        "amount": "3,760,500",
                        "iconUrl": "",
                        "isERC1155": false,
                        "isERC721": false,
                        "sign": false,
                        "value": ""
                    }
                ]
            },
            {
                "account": "0x2724a9fed47d947b33660ce0ee0d150c6ee18c90",
                "assets": [
                    {
                        "address": "0xacaca5b8805636608e14c64b0bfffc2deb2c6cec",
                        "amount": "3,760,500",
                        "iconUrl": "",
                        "isERC1155": false,
                        "isERC721": false,
                        "sign": true,
                        "value": ""
                    }
                ]
            }
        ]
    },
    "profile": {
        "basic_info": {
            "baseFee": "",
            "blockNumber": 6416241,
            "callData": "0xa9059cbb0000000000000000000000002724a9fed47d947b33660ce0ee0d150c6ee18c90000000000000000000000000000000000000000000031c511d0d2118bd500000",
            "debugEnable": true,
            "errorInfo": "",
            "eventCount": 1,
            "feeRecipient": "0x52bc44d5378309ee2abf1539bf71de1b7d7be3b5",
            "formatValue": "0",
            "gasLimit": 420000,
            "gasPrice": "100",
            "gasUsed": 22096,
            "intTxnCount": 0,
            "internalRevert": false,
            "internalRevertMessage": "",
            "isContractCreation": false,
            "isFlashloan": false,
            "maxFee": "",
            "nonce": 0,
            "overwritedBlockNumber": -1,
            "priorityFee": "",
            "receiver": "0xacaca5b8805636608e14c64b0bfffc2deb2c6cec",
            "revertMessage": "",
            "sender": "0xa6ffa35ac1e08ab95e8b2de1b89742d621d76aec",
            "simulationEnable": true,
            "sourceTxnHash": "0x0b59b500d475e0b862c4a9efeb9fa73824a323957a7ff4be50fe132dd9f5790a",
            "status": true,
            "timestamp": "2018-09-28T16:50:07Z",
            "transactionFee": "0.0022096",
            "txnHash": "0x0b59b500d475e0b862c4a9efeb9fa73824a323957a7ff4be50fe132dd9f5790a",
            "txnIndex": 1,
            "type": 0,
            "value": "0"
        },
        "fund_flow": [
            {
                "amount": "3,760,500",
                "from": "0xa6ffa35ac1e08ab95e8b2de1b89742d621d76aec",
                "id": 1,
                "isERC1155": false,
                "isERC721": false,
                "isReverted": false,
                "order": 1,
                "to": "0x2724a9fed47d947b33660ce0ee0d150c6ee18c90",
                "token": "0xacaca5b8805636608e14c64b0bfffc2deb2c6cec"
            }
        ],
        "token_infos": [
            {
                "address": "0xacaca5b8805636608e14c64b0bfffc2deb2c6cec",
                "decimals": 18
            },
            {
                "address": "0xc02aaa39b223fe8d0a0e5c4f27ead9083c756cc2",
                "decimals": 18
            },
            {
                "address": "0xeeeeeeeeeeeeeeeeeeeeeeeeeeeeeeeeeeeeeeee",
                "decimals": 18
            }
        ]
    },
    "address_label": {
        "labels": [
            {
                "address": "0x0000000000000000000000000000000000000004",
                "label": "Precompiled"
            },
            {
                "address": "0xeeeeeeeeeeeeeeeeeeeeeeeeeeeeeeeeeeeeeeee",
                "label": "Ether"
            },
            {
                "address": "0xacaca5b8805636608e14c64b0bfffc2deb2c6cec",
                "label": "ROMToken (ROM)"
            },
            {
                "address": "0x0000000000000000000000000000000000000001",
                "label": "Precompiled"
            },
            {
                "address": "0x0000000000000000000000000000000000000002",
                "label": "Precompiled"
            },
            {
                "address": "0x0000000000000000000000000000000000000003",
                "label": "Precompiled"
            }
        ]
    },
    "trace": {
        "accountLabels": null,
        "dataMap": {
            "-1": {
                "invocation": {
                    "address": "0xa6ffa35ac1e08ab95e8b2de1b89742d621d76aec",
                    "callData": "",
                    "decodedMethod": null,
                    "errorInfo": "",
                    "fromAddress": "",
                    "gasUsed": 0,
                    "id": -1,
                    "methodDecoded": false,
                    "operation": "",
                    "output": "",
                    "revert": false,
                    "revertMessage": "",
                    "selector": "",
                    "status": false,
                    "value": ""
                },
                "nodeType": 0
            },
            "0": {
                "invocation": {
                    "address": "0xacaca5b8805636608e14c64b0bfffc2deb2c6cec",
                    "callData": "0x0000000000000000000000002724a9fed47d947b33660ce0ee0d150c6ee18c90000000000000000000000000000000000000000000031c511d0d2118bd500000",
                    "decodedMethod": {
                        "callParams": [
                            {
                                "name": "_to",
                                "type": "address",
                                "value": "0x2724a9fed47d947b33660ce0ee0d150c6ee18c90"
                            },
                            {
                                "decimalAvailable": true,
                                "name": "_value",
                                "type": "uint256",
                                "value": "3,760,500,000,000,000,000,000,000"
                            }
                        ],
                        "constructorArguments": "",
                        "name": "transfer",
                        "returnParams": [
                            {
                                "name": "",
                                "type": "bool",
                                "value": true
                            }
                        ],
                        "signature": "transfer(address,uint256)"
                    },
                    "errorInfo": "",
                    "fromAddress": "0xa6ffa35ac1e08ab95e8b2de1b89742d621d76aec",
                    "gasUsed": 22096,
                    "id": 0,
                    "methodDecoded": true,
                    "operation": "CALL",
                    "output": "0x0000000000000000000000000000000000000000000000000000000000000001",
                    "revert": false,
                    "revertMessage": "",
                    "selector": "0xa9059cbb",
                    "status": true,
                    "value": "0"
                },
                "nodeType": 0
            },
            "1": {
                "event": {
                    "contract": "0xacaca5b8805636608e14c64b0bfffc2deb2c6cec",
                    "decodedLog": {
                        "name": "Transfer",
                        "params": [
                            {
                                "name": "from",
                                "type": "address",
                                "value": "0xa6ffa35ac1e08ab95e8b2de1b89742d621d76aec"
                            },
                            {
                                "name": "to",
                                "type": "address",
                                "value": "0x2724a9fed47d947b33660ce0ee0d150c6ee18c90"
                            },
                            {
                                "decimalAvailable": true,
                                "name": "value",
                                "type": "uint256",
                                "value": "3,760,500,000,000,000,000,000,000"
                            }
                        ],
                        "signature": "Transfer(address,address,uint256)"
                    },
                    "id": 1,
                    "logData": "0x000000000000000000000000000000000000000000031c511d0d2118bd500000",
                    "logDecoded": true,
                    "operation": "EVENT",
                    "revert": false,
                    "status": true,
                    "topics": [
                        "0xddf252ad1be2c89b69c2b068fc378daa952ba7f163c4a11628f55a4df523b3ef",
                        "0x000000000000000000000000a6ffa35ac1e08ab95e8b2de1b89742d621d76aec",
                        "0x0000000000000000000000002724a9fed47d947b33660ce0ee0d150c6ee18c90"
                    ]
                },
                "nodeType": 1
            }
        },
        "gasFlame": [
            {
                "children": [
                    {
                        "children": [
                            {
                                "children": [],
                                "depth": 0,
                                "name": "Initial Gas",
                                "value": 23384
                            },
                            {
                                "children": [],
                                "depth": 0,
                                "name": "Executed Gas",
                                "value": 13712
                            }
                        ],
                        "depth": -1,
                        "name": "Actual Gas Used",
                        "value": 22096
                    },
                    {
                        "children": [],
                        "depth": -1,
                        "name": "Refunded Gas",
                        "value": 15000
                    }
                ],
                "depth": -2,
                "name": "Total Gas",
                "value": 37096
            }
        ],
        "isConfirmed": true,
        "mainTrace": [
            {
                "children": [
                    {
                        "children": [
                            {
                                "children": [],
                                "depth": 1,
                                "id": 1,
                                "order": 1
                            }
                        ],
                        "depth": 0,
                        "id": 0,
                        "order": 0
                    }
                ],
                "depth": -1,
                "id": -1,
                "order": -1
            }
        ],
        "mainTraceNodeCount": 2,
        "parentIdMap": {
            "0": -1,
            "1": 0
        },
        "tidyTrace": [
            {
                "children": [
                    {
                        "children": [
                            {
                                "children": [],
                                "depth": 1,
                                "id": 1,
                                "order": 1
                            }
                        ],
                        "depth": 0,
                        "id": 0,
                        "order": 0
                    }
                ],
                "depth": -1,
                "id": -1,
                "order": -1
            }
        ],
        "tidyTraceNodeCount": 2
    },
    "state_change": {
        "stateChanges": [
            {
                "address": "0xacaca5b8805636608e14c64b0bfffc2deb2c6cec",
                "erc": "ERC-20",
                "slots": [
                    {
                        "current": "0x0000000000000000000000000000000000000000000000000000000000000000",
                        "key": "0x13680a3c9454608cf0a4c13e03367e8872e626dea766ad9e41514bfd0220a7e9",
                        "prev": "0x000000000000000000000000000000000000000000031c511d0d2118bd500000"
                    },
                    {
                        "current": "0x000000000000000000000000000000000000000036f5135ccd168bb4f1440000",
                        "key": "0x4c11ef00b342ec3c21f3073c1c791f0de000328583b001eda3ffec01ca7af59d",
                        "prev": "0x000000000000000000000000000000000000000036f1f70bb0096a9c33f40000"
                    }
                ],
                "storageVariables": [
                    {
                        "name": "balances",
                        "type": "mapping(address => uint256)",
                        "value": {
                            "pairs": [
                                {
                                    "key": "0x2724a9fed47d947b33660ce0ee0d150c6ee18c90",
                                    "value": {
                                        "current": "17008468793000000000000000000",
                                        "prev": "17004708293000000000000000000",
                                        "typeTag": 1
                                    }
                                },
                                {
                                    "key": "0xa6ffa35ac1e08ab95e8b2de1b89742d621d76aec",
                                    "value": {
                                        "current": "0",
                                        "prev": "3760500000000000000000000",
                                        "typeTag": 1
                                    }
                                }
                            ],
                            "typeTag": 4
                        }
                    }
                ]
            }
        ]
    }
}