{
    "balance_change": {
        "balanceChanges": [
            {
                "account": "0x0a6c69327d517568e6308f1e1cd2fd2b2b3cd4bf",
                "assets": [
                    {
                        "address": "0x3496b523e5c00a4b4150d6721320cddb234c3079",
                        "amount": "26,357.489560475672690146",
                        "iconUrl": "https://assets.blocksec.com/icon/ef4435b461bedf26eeef3f6a788b7c476c313fbdd1caf989248420e2cd861876.png",
                        "isERC1155": false,
                        "isERC721": false,
                        "sign": true,
                        "value": "1494.4696580520000105"
                    }
                ]
            },
            {
                "account": "0x763a0ca93af05ade98a52dc1e5b936b89bf8b89a",
                "assets": [
                    {
                        "address": "0x3496b523e5c00a4b4150d6721320cddb234c3079",
                        "amount": "26,357.489560475672690146",
                        "iconUrl": "https://assets.blocksec.com/icon/ef4435b461bedf26eeef3f6a788b7c476c313fbdd1caf989248420e2cd861876.png",
                        "isERC1155": false,
                        "isERC721": false,
                        "sign": false,
                        "value": "1494.4696580520000105"
                    }
                ]
            }
        ]
    },
    "profile": {
        "basic_info": {
            "baseFee": "48.382165841",
            "blockNumber": 17336163,
            "callData": "0xd113833f00000000000000000000000000000000000000000000000000000000000000800000000000000000000000003496b523e5c00a4b4150d6721320cddb234c3079000000000000000000000000000000000000000000000594d7a5b349b33ebde20000000000000000000000000000000000000000000000000000000000004bb500000000000000000000000000000000000000000000000000000000000000416ddf30c10ce969bc2d153bdddc55c44cd9dd0e96d00239e67745e6717adff5293d1fa840186348029a8ebbca64f1501b6d280dc4da092253e7922163ab7ed65b3c00000000000000000000000000000000000000000000000000000000000000",
            "debugEnable": true,
            "errorInfo": "",
            "eventCount": 3,
            "feeRecipient": "0x690b9a9e9aa1c9db991c7721a92d351db4fac990",
            "formatValue": "0",
            "gasLimit": 697224,
            "gasPrice": "50.013612902",
            "gasUsed": 165881,
            "intTxnCount": 6,
            "internalRevert": false,
            "internalRevertMessage": "",
            "isContractCreation": false,
            "isFlashloan": false,
            "maxFee": "",
            "nonce": 2932,
            "overwritedBlockNumber": -1,
            "priorityFee": "",
            "receiver": "0x763a0ca93af05ade98a52dc1e5b936b89bf8b89a",
            "revertMessage": "",
            "sender": "0x0a6c69327d517568e6308f1e1cd2fd2b2b3cd4bf",
            "simulationEnable": true,
            "sourceTxnHash": "0x0b616e351c4b125e06bc0304f2ed15657a22f4576cd5a2fee15176ee28c957ef",
            "status": true,
            "timestamp": "2023-05-25T12:29:35Z",
            "transactionFee": "0.008296308121796662",
            "txnHash": "0x0b616e351c4b125e06bc0304f2ed15657a22f4576cd5a2fee15176ee28c957ef",
            "txnIndex": 60,
            "type": 0,
            "value": "0"
        },
        "fund_flow": [
            {
                "amount": "26,357.489560475672690146",
                "from": "0x763a0ca93af05ade98a52dc1e5b936b89bf8b89a",
                "id": 1,
                "isERC1155": false,
                "isERC721": false,
                "isReverted": false,
                "order": 1,
                "to": "0x0a6c69327d517568e6308f1e1cd2fd2b2b3cd4bf",
                "token": "0x3496b523e5c00a4b4150d6721320cddb234c3079"
            }
        ],
        "token_infos": [
            {
                "address": "0x3496b523e5c00a4b4150d6721320cddb234c3079",
                "decimals": 18
            },
            {
                "address": "0xc02aaa39b223fe8d0a0e5c4f27ead9083c756cc2",
                "decimals": 18
            },
            {
                "address": "0xeeeeeeeeeeeeeeeeeeeeeeeeeeeeeeeeeeeeeeee",
                "decimals": 18
            }
        ]
    },
    "address_label": {
        "labels": [
            {
                "address": "0x1827693da6234cfb41664be5b1dba781fa7b40ea",
                "label": "NUM Token (NUM)"
            },
            {
                "address": "0x3496b523e5c00a4b4150d6721320cddb234c3079",
                "label": "Numbers Protocol: NUM Token"
            },
            {
                "address": "0x8637d273285faa6794e3d4d1ca180ad52575dce6",
                "label": "TransparentUpgradeableProxy"
            },
            {
                "address": "0x0000000000000000000000000000000000000003",
                "label": "Precompiled"
            },
            {
                "address": "0x0000000000000000000000000000000000000004",
                "label": "Precompiled"
            },
            {
                "address": "0xeeeeeeeeeeeeeeeeeeeeeeeeeeeeeeeeeeeeeeee",
                "label": "Ether"
            },
            {
                "address": "0x763a0ca93af05ade98a52dc1e5b936b89bf8b89a",
                "label": "ChainPort: Vault 6"
            },
            {
                "address": "0x0000000000000000000000000000000000000001",
                "label": "Precompiled"
            },
            {
                "address": "0x0000000000000000000000000000000000000002",
                "label": "Precompiled"
            }
        ]
    },
    "trace": {
        "accountLabels": null,
        "dataMap": {
            "-1": {
                "invocation": {
                    "address": "0x0a6c69327d517568e6308f1e1cd2fd2b2b3cd4bf",
                    "callData": "",
                    "decodedMethod": null,
                    "errorInfo": "",
                    "fromAddress": "",
                    "gasUsed": 0,
                    "id": -1,
                    "methodDecoded": false,
                    "operation": "",
                    "output": "",
                    "revert": false,
                    "revertMessage": "",
                    "selector": "",
                    "status": false,
                    "value": ""
                },
                "nodeType": 0
            },
            "0": {
                "invocation": {
                    "address": "0x763a0ca93af05ade98a52dc1e5b936b89bf8b89a",
                    "callData": "0x00000000000000000000000000000000000000000000000000000000000000800000000000000000000000003496b523e5c00a4b4150d6721320cddb234c3079000000000000000000000000000000000000000000000594d7a5b349b33ebde20000000000000000000000000000000000000000000000000000000000004bb500000000000000000000000000000000000000000000000000000000000000416ddf30c10ce969bc2d153bdddc55c44cd9dd0e96d00239e67745e6717adff5293d1fa840186348029a8ebbca64f1501b6d280dc4da092253e7922163ab7ed65b3c00000000000000000000000000000000000000000000000000000000000000",
                    "decodedMethod": {
                        "callParams": [
                            {
                                "name": "signature",
                                "type": "bytes",
                                "value": "0x6ddf30c10ce969bc2d153bdddc55c44cd9dd0e96d00239e67745e6717adff5293d1fa840186348029a8ebbca64f1501b6d280dc4da092253e7922163ab7ed65b3c"
                            },
                            {
                                "name": "token",
                                "type": "address",
                                "value": "0x3496b523e5c00a4b4150d6721320cddb234c3079"
                            },
                            {
                                "name": "amount",
                                "type": "uint256",
                                "value": "26,357,489,560,475,672,690,146"
                            },
                            {
                                "name": "nonce",
                                "type": "uint256",
                                "value": "19,381"
                            }
                        ],
                        "constructorArguments": "",
                        "name": "releaseTokens",
                        "returnParams": [],
                        "signature": "releaseTokens(bytes,address,uint256,uint256)"
                    },
                    "errorInfo": "",
                    "fromAddress": "0x0a6c69327d517568e6308f1e1cd2fd2b2b3cd4bf",
                    "gasUsed": 165881,
                    "id": 0,
                    "methodDecoded": true,
                    "operation": "CALL",
                    "output": "",
                    "revert": false,
                    "revertMessage": "",
                    "selector": "0xd113833f",
                    "status": true,
                    "value": "0"
                },
                "nodeType": 0
            },
            "1": {
                "invocation": {
                    "address": "0x77fa6b67b5fc1cc6116082981d1db098b8980843",
                    "callData": "0x00000000000000000000000000000000000000000000000000000000000000800000000000000000000000003496b523e5c00a4b4150d6721320cddb234c3079000000000000000000000000000000000000000000000594d7a5b349b33ebde20000000000000000000000000000000000000000000000000000000000004bb500000000000000000000000000000000000000000000000000000000000000416ddf30c10ce969bc2d153bdddc55c44cd9dd0e96d00239e67745e6717adff5293d1fa840186348029a8ebbca64f1501b6d280dc4da092253e7922163ab7ed65b3c00000000000000000000000000000000000000000000000000000000000000",
                    "decodedMethod": {
                        "callParams": [
                            {
                                "name": "signature",
                                "type": "bytes",
                                "value": "0x6ddf30c10ce969bc2d153bdddc55c44cd9dd0e96d00239e67745e6717adff5293d1fa840186348029a8ebbca64f1501b6d280dc4da092253e7922163ab7ed65b3c"
                            },
                            {
                                "name": "token",
                                "type": "address",
                                "value": "0x3496b523e5c00a4b4150d6721320cddb234c3079"
                            },
                            {
                                "name": "amount",
                                "type": "uint256",
                                "value": "26,357,489,560,475,672,690,146"
                            },
                            {
                                "name": "nonce",
                                "type": "uint256",
                                "value": "19,381"
                            }
                        ],
                        "constructorArguments": "",
                        "name": "releaseTokens",
                        "returnParams": [],
                        "signature": "releaseTokens(bytes,address,uint256,uint256)"
                    },
                    "errorInfo": "",
                    "fromAddress": "0x763a0ca93af05ade98a52dc1e5b936b89bf8b89a",
                    "gasUsed": 135238,
                    "id": 1,
                    "methodDecoded": true,
                    "operation": "DELEGATECALL",
                    "output": "",
                    "revert": false,
                    "revertMessage": "",
                    "selector": "0xd113833f",
                    "status": true,
                    "value": "0"
                },
                "nodeType": 0
            },
            "2": {
                "invocation": {
                    "address": "0x8637d273285faa6794e3d4d1ca180ad52575dce6",
                    "callData": "0x00000000000000000000000000000000000000000000000000000000000000c00000000000000000000000000000000000000000000000000000000000004bb50000000000000000000000000a6c69327d517568e6308f1e1cd2fd2b2b3cd4bf000000000000000000000000000000000000000000000594d7a5b349b33ebde20000000000000000000000003496b523e5c00a4b4150d6721320cddb234c3079000000000000000000000000000000000000000000000000000000000000000200000000000000000000000000000000000000000000000000000000000000416ddf30c10ce969bc2d153bdddc55c44cd9dd0e96d00239e67745e6717adff5293d1fa840186348029a8ebbca64f1501b6d280dc4da092253e7922163ab7ed65b3c00000000000000000000000000000000000000000000000000000000000000",
                    "decodedMethod": null,
                    "errorInfo": "",
                    "fromAddress": "0x763a0ca93af05ade98a52dc1e5b936b89bf8b89a",
                    "gasUsed": 17403,
                    "id": 2,
                    "methodDecoded": false,
                    "operation": "STATICCALL",
                    "output": "0x0000000000000000000000000000000000000000000000000000000000000001",
                    "revert": false,
                    "revertMessage": "",
                    "selector": "0xd5164344",
                    "status": true,
                    "value": "0"
                },
                "nodeType": 0
            },
            "3": {
                "invocation": {
                    "address": "0xa011dc047224e6fbc16b03928ea45f6bd9f82fa2",
                    "callData": "0x00000000000000000000000000000000000000000000000000000000000000c00000000000000000000000000000000000000000000000000000000000004bb50000000000000000000000000a6c69327d517568e6308f1e1cd2fd2b2b3cd4bf000000000000000000000000000000000000000000000594d7a5b349b33ebde20000000000000000000000003496b523e5c00a4b4150d6721320cddb234c3079000000000000000000000000000000000000000000000000000000000000000200000000000000000000000000000000000000000000000000000000000000416ddf30c10ce969bc2d153bdddc55c44cd9dd0e96d00239e67745e6717adff5293d1fa840186348029a8ebbca64f1501b6d280dc4da092253e7922163ab7ed65b3c00000000000000000000000000000000000000000000000000000000000000",
                    "decodedMethod": null,
                    "errorInfo": "",
                    "fromAddress": "0x8637d273285faa6794e3d4d1ca180ad52575dce6",
                    "gasUsed": 10021,
                    "id": 3,
                    "methodDecoded": false,
                    "operation": "DELEGATECALL",
                    "output": "0x0000000000000000000000000000000000000000000000000000000000000001",
                    "revert": false,
                    "revertMessage": "",
                    "selector": "0xd5164344",
                    "status": true,
                    "value": "0"
                },
                "nodeType": 0
            },
            "4": {
                "invocation": {
                    "address": "0x0000000000000000000000000000000000000001",
                    "callData": "0xa5e6f55ba8f29312bb2ca3bc33c5cc14f332cfd85b39b9750f30ba99000000000000000000000000000000000000000000000000000000000000001c6ddf30c10ce969bc2d153bdddc55c44cd9dd0e96d00239e67745e6717adff5293d1fa840186348029a8ebbca64f1501b6d280dc4da092253e7922163ab7ed65b",
                    "decodedMethod": {
                        "callParams": [
                            {
                                "name": "hash",
                                "type": "bytes32",
                                "value": "0x3320bc1ca5e6f55ba8f29312bb2ca3bc33c5cc14f332cfd85b39b9750f30ba99"
                            },
                            {
                                "name": "v",
                                "type": "uint256",
                                "value": "28"
                            },
                            {
                                "name": "r",
                                "type": "bytes32",
                                "value": "0x6ddf30c10ce969bc2d153bdddc55c44cd9dd0e96d00239e67745e6717adff529"
                            },
                            {
                                "name": "s",
                                "type": "bytes32",
                                "value": "0x3d1fa840186348029a8ebbca64f1501b6d280dc4da092253e7922163ab7ed65b"
                            }
                        ],
                        "constructorArguments": "",
                        "name": "ecrecover",
                        "returnParams": [
                            {
                                "name": "",
                                "type": "address",
                                "value": "0x75187213ef5b4dde3febdf779b12504e078069b0"
                            }
                        ],
                        "signature": "ecrecover(bytes32,uint256,bytes32,bytes32)"
                    },
                    "errorInfo": "",
                    "fromAddress": "0x8637d273285faa6794e3d4d1ca180ad52575dce6",
                    "gasUsed": 3000,
                    "id": 4,
                    "methodDecoded": true,
                    "operation": "STATICCALL",
                    "output": "0x00000000000000000000000075187213ef5b4dde3febdf779b12504e078069b0",
                    "revert": false,
                    "revertMessage": "",
                    "selector": "0x3320bc1c",
                    "status": true,
                    "value": "0"
                },
                "nodeType": 0
            },
            "5": {
                "invocation": {
                    "address": "0x3496b523e5c00a4b4150d6721320cddb234c3079",
                    "callData": "0x0000000000000000000000000a6c69327d517568e6308f1e1cd2fd2b2b3cd4bf000000000000000000000000000000000000000000000594d7a5b349b33ebde2",
                    "decodedMethod": {
                        "callParams": [
                            {
                                "name": "_to",
                                "type": "address",
                                "value": "0x0a6c69327d517568e6308f1e1cd2fd2b2b3cd4bf"
                            },
                            {
                                "decimalAvailable": true,
                                "name": "_value",
                                "type": "uint256",
                                "value": "26,357,489,560,475,672,690,146"
                            }
                        ],
                        "constructorArguments": "",
                        "name": "transfer",
                        "returnParams": [
                            {
                                "name": "",
                                "type": "bool",
                                "value": true
                            }
                        ],
                        "signature": "transfer(address,uint256)"
                    },
                    "errorInfo": "",
                    "fromAddress": "0x763a0ca93af05ade98a52dc1e5b936b89bf8b89a",
                    "gasUsed": 50065,
                    "id": 5,
                    "methodDecoded": true,
                    "operation": "CALL",
                    "output": "0x0000000000000000000000000000000000000000000000000000000000000001",
                    "revert": false,
                    "revertMessage": "",
                    "selector": "0xa9059cbb",
                    "status": true,
                    "value": "0"
                },
                "nodeType": 0
            },
            "6": {
                "invocation": {
                    "address": "0x1827693da6234cfb41664be5b1dba781fa7b40ea",
                    "callData": "0x0000000000000000000000000a6c69327d517568e6308f1e1cd2fd2b2b3cd4bf000000000000000000000000000000000000000000000594d7a5b349b33ebde2",
                    "decodedMethod": {
                        "callParams": [
                            {
                                "name": "_to",
                                "type": "address",
                                "value": "0x0a6c69327d517568e6308f1e1cd2fd2b2b3cd4bf"
                            },
                            {
                                "decimalAvailable": true,
                                "name": "_value",
                                "type": "uint256",
                                "value": "26,357,489,560,475,672,690,146"
                            }
                        ],
                        "constructorArguments": "",
                        "name": "transfer",
                        "returnParams": [
                            {
                                "name": "",
                                "type": "bool",
                                "value": true
                            }
                        ],
                        "signature": "transfer(address,uint256)"
                    },
                    "errorInfo": "",
                    "fromAddress": "0x3496b523e5c00a4b4150d6721320cddb234c3079",
                    "gasUsed": 42783,
                    "id": 6,
                    "methodDecoded": true,
                    "operation": "DELEGATECALL",
                    "output": "0x0000000000000000000000000000000000000000000000000000000000000001",
                    "revert": false,
                    "revertMessage": "",
                    "selector": "0xa9059cbb",
                    "status": true,
                    "value": "0"
                },
                "nodeType": 0
            },
            "7": {
                "event": {
                    "contract": "0x3496b523e5c00a4b4150d6721320cddb234c3079",
                    "decodedLog": {
                        "name": "Transfer",
                        "params": [
                            {
                                "name": "from",
                                "type": "address",
                                "value": "0x763a0ca93af05ade98a52dc1e5b936b89bf8b89a"
                            },
                            {
                                "name": "to",
                                "type": "address",
                                "value": "0x0a6c69327d517568e6308f1e1cd2fd2b2b3cd4bf"
                            },
                            {
                                "decimalAvailable": true,
                                "name": "value",
                                "type": "uint256",
                                "value": "26,357,489,560,475,672,690,146"
                            }
                        ],
                        "signature": "Transfer(address,address,uint256)"
                    },
                    "id": 7,
                    "logData": "0x000000000000000000000000000000000000000000000594d7a5b349b33ebde2",
                    "logDecoded": true,
                    "operation": "EVENT",
                    "revert": false,
                    "status": true,
                    "topics": [
                        "0xddf252ad1be2c89b69c2b068fc378daa952ba7f163c4a11628f55a4df523b3ef",
                        "0x000000000000000000000000763a0ca93af05ade98a52dc1e5b936b89bf8b89a",
                        "0x0000000000000000000000000a6c69327d517568e6308f1e1cd2fd2b2b3cd4bf"
                    ]
                },
                "nodeType": 1
            },
            "8": {
                "event": {
                    "contract": "0x763a0ca93af05ade98a52dc1e5b936b89bf8b89a",
                    "decodedLog": {
                        "name": "TokensClaimed",
                        "params": [
                            {
                                "name": "_sender",
                                "type": "address",
                                "value": "0x3496b523e5c00a4b4150d6721320cddb234c3079"
                            },
                            {
                                "name": "_contract",
                                "type": "address",
                                "value": "0x0a6c69327d517568e6308f1e1cd2fd2b2b3cd4bf"
                            },
                            {
                                "name": "_claimAmount",
                                "type": "uint256",
                                "value": "26,357,489,560,475,672,690,146"
                            }
                        ],
                        "signature": "TokensClaimed(address,address,uint256)"
                    },
                    "id": 8,
                    "logData": "0x0000000000000000000000003496b523e5c00a4b4150d6721320cddb234c30790000000000000000000000000a6c69327d517568e6308f1e1cd2fd2b2b3cd4bf000000000000000000000000000000000000000000000594d7a5b349b33ebde2",
                    "logDecoded": true,
                    "operation": "EVENT",
                    "revert": false,
                    "status": true,
                    "topics": [
                        "0xa86305abc2db271df4609aa86a8d044bc11fb36939841bfdad6c1ab2b26e9471"
                    ]
                },
                "nodeType": 1
            },
            "9": {
                "event": {
                    "contract": "0x763a0ca93af05ade98a52dc1e5b936b89bf8b89a",
                    "decodedLog": null,
                    "id": 9,
                    "logData": "0x000000000000000000000000000000000000000000000594d7a5b349b33ebde2",
                    "logDecoded": false,
                    "operation": "EVENT",
                    "revert": false,
                    "status": true,
                    "topics": [
                        "0x822af9c6b87f216458fcd87182dd4336b75998335395c9495acf1f496f34aefa",
                        "0x0000000000000000000000003496b523e5c00a4b4150d6721320cddb234c3079",
                        "0x0000000000000000000000000a6c69327d517568e6308f1e1cd2fd2b2b3cd4bf",
                        "0x0000000000000000000000000000000000000000000000000000000000004bb5"
                    ]
                },
                "nodeType": 1
            }
        },
        "gasFlame": [
            {
                "children": [
                    {
                        "children": [
                            {
                                "children": [],
                                "depth": 0,
                                "name": "Initial Gas",
                                "value": 23276
                            },
                            {
                                "children": [
                                    {
                                        "children": [
                                            {
                                                "children": [
                                                    {
                                                        "children": [
                                                            {
                                                                "children": [],
                                                                "depth": 4,
                                                                "name": "ecrecover",
                                                                "value": 3000
                                                            }
                                                        ],
                                                        "depth": 3,
                                                        "name": "0xd5164344",
                                                        "value": 10021
                                                    }
                                                ],
                                                "depth": 2,
                                                "name": "0xd5164344",
                                                "value": 17403
                                            },
                                            {
                                                "children": [
                                                    {
                                                        "children": [],
                                                        "depth": 3,
                                                        "name": "transfer",
                                                        "value": 42783
                                                    }
                                                ],
                                                "depth": 2,
                                                "name": "transfer",
                                                "value": 50065
                                            }
                                        ],
                                        "depth": 1,
                                        "name": "releaseTokens",
                                        "value": 135238
                                    }
                                ],
                                "depth": 0,
                                "name": "Executed Gas",
                                "value": 142605
                            }
                        ],
                        "depth": -1,
                        "name": "Actual Gas Used",
                        "value": 165881
                    },
                    {
                        "children": [],
                        "depth": -1,
                        "name": "Refunded Gas",
                        "value": 0
                    }
                ],
                "depth": -2,
                "name": "Total Gas",
                "value": 165881
            }
        ],
        "isConfirmed": true,
        "mainTrace": [
            {
                "children": [
                    {
                        "children": [
                            {
                                "children": [
                                    {
                                        "children": [
                                            {
                                                "children": [
                                                    {
                                                        "children": [],
                                                        "depth": 4,
                                                        "id": 4,
                                                        "order": 4
                                                    }
                                                ],
                                                "depth": 3,
                                                "id": 3,
                                                "order": 3
                                            }
                                        ],
                                        "depth": 2,
                                        "id": 2,
                                        "order": 2
                                    },
                                    {
                                        "children": [
                                            {
                                                "children": [
                                                    {
                                                        "children": [],
                                                        "depth": 4,
                                                        "id": 7,
                                                        "order": 7
                                                    }
                                                ],
                                                "depth": 3,
                                                "id": 6,
                                                "order": 6
                                            }
                                        ],
                                        "depth": 2,
                                        "id": 5,
                                        "order": 5
                                    },
                                    {
                                        "children": [],
                                        "depth": 2,
                                        "id": 8,
                                        "order": 8
                                    },
                                    {
                                        "children": [],
                                        "depth": 2,
                                        "id": 9,
                                        "order": 9
                                    }
                                ],
                                "depth": 1,
                                "id": 1,
                                "order": 1
                            }
                        ],
                        "depth": 0,
                        "id": 0,
                        "order": 0
                    }
                ],
                "depth": -1,
                "id": -1,
                "order": -1
            }
        ],
        "mainTraceNodeCount": 10,
        "parentIdMap": {
            "0": -1,
            "1": 0,
            "2": 1,
            "3": 2,
            "4": 3,
            "5": 1,
            "6": 5,
            "7": 6,
            "8": 1,
            "9": 1
        },
        "tidyTrace": [
            {
                "children": [
                    {
                        "children": [
                            {
                                "children": [
                                    {
                                        "children": [
                                            {
                                                "children": [
                                                    {
                                                        "children": [],
                                                        "depth": 4,
                                                        "id": 7,
                                                        "order": 7
                                                    }
                                                ],
                                                "depth": 3,
                                                "id": 6,
                                                "order": 6
                                            }
                                        ],
                                        "depth": 2,
                                        "id": 5,
                                        "order": 5
                                    },
                                    {
                                        "children": [],
                                        "depth": 2,
                                        "id": 8,
                                        "order": 8
                                    },
                                    {
                                        "children": [],
                                        "depth": 2,
                                        "id": 9,
                                        "order": 9
                                    }
                                ],
                                "depth": 1,
                                "id": 1,
                                "order": 1
                            }
                        ],
                        "depth": 0,
                        "id": 0,
                        "order": 0
                    }
                ],
                "depth": -1,
                "id": -1,
                "order": -1
            }
        ],
        "tidyTraceNodeCount": 7
    },
    "state_change": {
        "stateChanges": [
            {
                "address": "0x3496b523e5c00a4b4150d6721320cddb234c3079",
                "erc": "ERC-20",
                "slots": [
                    {
                        "current": "0x0000000000000000000000000000000000000000000000000000000001088763",
                        "key": "0x0000000000000000000000000000000000000000000000000000000000000135",
                        "prev": "0x00000000000000000000000000000000000000000000000000000000010885ed"
                    },
                    {
                        "current": "0x00000000000000000000000000000000000000000005c7e52f296f3b4d84fc03",
                        "key": "0xd2d8430b1c40feb050e8b2fcc0ee7cfd087151d8cfcb08917f1b8f6cde0b25f2",
                        "prev": "0x00000000000000000000000000000000000000000005cd7a06cf228500c3b9e5"
                    },
                    {
                        "current": "0x000000000000000000000000000000000000000000000594d7a5b349b33ebde2",
                        "key": "0x789bec5587a947c7c9473f3d84a38d2f6da41416379a56112a695a20a56a5e30",
                        "prev": "0x0000000000000000000000000000000000000000000000000000000000000000"
                    }
                ],
                "storageVariables": [
                    {
                        "name": "lastFundingPeriod",
                        "type": "uint256",
                        "value": {
                            "current": "17336163",
                            "prev": "17335789",
                            "typeTag": 1
                        }
                    },
                    {
                        "name": "_balances",
                        "type": "mapping(address => uint256)",
                        "value": {
                            "pairs": [
                                {
                                    "key": "0x0a6c69327d517568e6308f1e1cd2fd2b2b3cd4bf",
                                    "value": {
                                        "current": "26357489560475672690146",
                                        "prev": "0",
                                        "typeTag": 1
                                    }
                                },
                                {
                                    "key": "0x763a0ca93af05ade98a52dc1e5b936b89bf8b89a",
                                    "value": {
                                        "current": "6988607730926779080440835",
                                        "prev": "7014965220487254753130981",
                                        "typeTag": 1
                                    }
                                }
                            ],
                            "typeTag": 4
                        }
                    }
                ]
            },
            {
                "address": "0x763a0ca93af05ade98a52dc1e5b936b89bf8b89a",
                "erc": "",
                "slots": [
                    {
                        "current": "0x0000000000000000000000000000000000000000000000000000000000000001",
                        "key": "0x522f1d0258b58e4ff2e12e97b4c84c43cee78b15a3704ed9457b354228c03915",
                        "prev": "0x0000000000000000000000000000000000000000000000000000000000000000"
                    },
                    {
                        "current": "0x0000000000000000000000000000000000000000000000000000000000000001",
                        "key": "0xecc975172ebaa229446f80109d8dbc3822d7728010e8faed08d45e7739de7f85",
                        "prev": "0x0000000000000000000000000000000000000000000000000000000000000000"
                    }
                ],
                "storageVariables": []
            }
        ]
    }
}