{
    "balance_change": {
        "balanceChanges": [
            {
                "account": "0x23b3c527f6d7560669b414c8124e420dc60b1125",
                "assets": [
                    {
                        "address": "0x0000000000a39bb272e79075ade125fd351887ac",
                        "amount": "0.21",
                        "iconUrl": "",
                        "isERC1155": false,
                        "isERC721": false,
                        "sign": true,
                        "value": ""
                    },
                    {
                        "address": "0x34eebee6942d8def3c125458d1a86e0a897fd6f9",
                        "amount": "1",
                        "iconUrl": "https://assets.blocksec.com/nft/icon/nft_bc98d450-86d8-4561-a4ff-565242c64144.png",
                        "isERC1155": false,
                        "isERC721": true,
                        "sign": false,
                        "tokenID": "5049",
                        "value": ""
                    }
                ]
            },
            {
                "account": "0xc66e2eb1ed8cae02b647ab2e9b0c17955eef4d20",
                "assets": [
                    {
                        "address": "0x34eebee6942d8def3c125458d1a86e0a897fd6f9",
                        "amount": "1",
                        "iconUrl": "https://assets.blocksec.com/nft/icon/nft_bc98d450-86d8-4561-a4ff-565242c64144.png",
                        "isERC1155": false,
                        "isERC721": true,
                        "sign": true,
                        "tokenID": "5049",
                        "value": ""
                    },
                    {
                        "address": "0x0000000000a39bb272e79075ade125fd351887ac",
                        "amount": "0.21",
                        "iconUrl": "",
                        "isERC1155": false,
                        "isERC721": false,
                        "sign": false,
                        "value": ""
                    }
                ]
            }
        ]
    },
    "profile": {
        "basic_info": {
            "baseFee": "6.998946852",
            "blockNumber": 20221632,
            "callData": "0xda815cb500000000000000000000000000000000000000000000000000000000000000400000000000000000000000000000000000000000000000000000000000000380000000000000000000000000c66e2eb1ed8cae02b647ab2e9b0c17955eef4d2000000000000000000000000034eebee6942d8def3c125458d1a86e0a897fd6f990291f6bb48f3f036ea2893f322a51a2e75c622bfd160004100242726fea611f0000000000000000000000000000000000000000000000000000000000000001000000000000000000000000000000000000000000000000000000006865860b000000000000000000000000000000000000000000000000000000000000000000000000000000000000000000000000000000000000000000000000000000000000000000000000000000000000000000000000000000000000000000000000000000000000000000000000000000008e8fa7aba1597b4e7ad5994f2c7b9a7c00000000000000000000000000000000000000000000000000000000000001a00000000000000000000000000000000000000000000000000000000000000000000000000000000000000000000000000000000000000000000000000000000000000000000000000000000000000000000000000000000000000000000002c00000000000000000000000000000000000000000000000000000000000000000000000000000000000000000000000000000000000000000000000000000010000000000000000000000000000000000000000000000000000000000000000000000000000000000000000000000000000000000000000000000000000000000000000000000000000000000000000000000000000000000000000000000000300000000000000000000000000000000000000000000000002ea11e32ad5000000000000000000000000000000000000000000000000000000000000000013b9000000000000000000000000000000000000000000000000000000000000000100000000000000000000000000000000000000000000000000000000000000000000000000000000000000000000000000000000000000000000000000000041245b9982c6daf7bfdf2f57a29bdc3a0269c4264e782a9b4f07d418f8d785917c21769a909ce05eb7fab0d6df7afcaeb6452efe748c60f35e86b18a716684cda91b000000000000000000000000000000000000000000000000000000000000000000000000000000000000000000000000000000000000000000000000000059cdf838e9bd64b77b3cfd82414705bb82b20faaba7cecfc92d1d15a4745378ddd7fb7d8b4a83effb653050cb7bf274f3d95e56cb6cf9287becf5a2150deb88ef31b01348ebc6af68e5d010513ff70a3aaed9afeb8661116e6ce00000000000000",
            "debugEnable": true,
            "errorInfo": "",
            "eventCount": 4,
            "feeRecipient": "0x4838b106fce9647bdf1e7877bf73ce8b0bad5f97",
            "formatValue": "0",
            "gasLimit": 178933,
            "gasPrice": "9.279640026",
            "gasUsed": 166334,
            "intTxnCount": 9,
            "internalRevert": false,
            "internalRevertMessage": "",
            "isContractCreation": false,
            "isFlashloan": false,
            "maxFee": "11.280071373",
            "nonce": 251,
            "overwritedBlockNumber": -1,
            "priorityFee": "2.280693174",
            "receiver": "0xb2ecfe4e4d61f8790bbb9de2d1259b9e2410cea5",
            "revertMessage": "",
            "sender": "0x23b3c527f6d7560669b414c8124e420dc60b1125",
            "simulationEnable": true,
            "sourceTxnHash": "0x0b78e03318c5a2b2a799208869a77ac2fd8c260422e3ff0d3c2ef318c8f2a0d2",
            "status": true,
            "timestamp": "2024-07-02T21:53:11Z",
            "transactionFee": "0.001543519644084684",
            "txnHash": "0x0b78e03318c5a2b2a799208869a77ac2fd8c260422e3ff0d3c2ef318c8f2a0d2",
            "txnIndex": 114,
            "type": 2,
            "value": "0"
        },
        "fund_flow": [
            {
                "amount": "1",
                "from": "0x23b3c527f6d7560669b414c8124e420dc60b1125",
                "id": 1,
                "isERC1155": false,
                "isERC721": true,
                "isReverted": false,
                "order": 1,
                "to": "0xc66e2eb1ed8cae02b647ab2e9b0c17955eef4d20",
                "token": "0x34eebee6942d8def3c125458d1a86e0a897fd6f9",
                "tokenID": "5049"
            },
            {
                "amount": "0.21",
                "from": "0xc66e2eb1ed8cae02b647ab2e9b0c17955eef4d20",
                "id": 2,
                "isERC1155": false,
                "isERC721": false,
                "isReverted": false,
                "order": 2,
                "to": "0x23b3c527f6d7560669b414c8124e420dc60b1125",
                "token": "0x0000000000a39bb272e79075ade125fd351887ac"
            }
        ],
        "token_infos": [
            {
                "address": "0xeeeeeeeeeeeeeeeeeeeeeeeeeeeeeeeeeeeeeeee",
                "decimals": 18
            },
            {
                "address": "0x0000000000a39bb272e79075ade125fd351887ac",
                "decimals": 18
            },
            {
                "address": "0xc02aaa39b223fe8d0a0e5c4f27ead9083c756cc2",
                "decimals": 18
            }
        ]
    },
    "address_label": {
        "labels": [
            {
                "address": "0xeeeeeeeeeeeeeeeeeeeeeeeeeeeeeeeeeeeeeeee",
                "label": "Ether"
            },
            {
                "address": "0xb2ecfe4e4d61f8790bbb9de2d1259b9e2410cea5",
                "label": "Blur.io: Marketplace 3"
            },
            {
                "address": "0x7c74dfe39976dc395529c14e54a597809980e01c",
                "label": "ERC721Drop"
            },
            {
                "address": "0x01a656024de4b89e2d0198bf4d468e8fd2358b17",
                "label": "Blur Pool"
            },
            {
                "address": "0x0000000000000000000000000000000000000001",
                "label": "Precompiled"
            },
            {
                "address": "0x0000000000000000000000000000000000000002",
                "label": "Precompiled"
            },
            {
                "address": "0x0000000000000000000000000000000000000000",
                "label": "Null Address"
            },
            {
                "address": "0x000000000000aaeb6d7670e522a718067333cd4e",
                "label": "OperatorFilterRegistry"
            },
            {
                "address": "0x0000000000000000000000000000000000000003",
                "label": "Precompiled"
            },
            {
                "address": "0x0000000000000000000000000000000000000004",
                "label": "Precompiled"
            },
            {
                "address": "0x34eebee6942d8def3c125458d1a86e0a897fd6f9",
                "label": "Visualize Value: CHECKS Token"
            },
            {
                "address": "0x5fa60726e62c50af45ff2f6280c468da438a7837",
                "label": "BlurExchangeV2"
            },
            {
                "address": "0x2f18f339620a63e43f0839eeb18d7de1e1be4dfb",
                "label": "Delegate"
            },
            {
                "address": "0x0000000000a39bb272e79075ade125fd351887ac",
                "label": "Blur: Bidding"
            }
        ]
    },
    "trace": {
        "accountLabels": null,
        "dataMap": {
            "-1": {
                "invocation": {
                    "address": "0x23b3c527f6d7560669b414c8124e420dc60b1125",
                    "callData": "",
                    "decodedMethod": null,
                    "errorInfo": "",
                    "fromAddress": "",
                    "gasUsed": 0,
                    "id": -1,
                    "methodDecoded": false,
                    "operation": "",
                    "output": "",
                    "revert": false,
                    "revertMessage": "",
                    "selector": "",
                    "status": false,
                    "value": ""
                },
                "nodeType": 0
            },
            "0": {
                "invocation": {
                    "address": "0xb2ecfe4e4d61f8790bbb9de2d1259b9e2410cea5",
                    "callData": "0x00000000000000000000000000000000000000000000000000000000000000400000000000000000000000000000000000000000000000000000000000000380000000000000000000000000c66e2eb1ed8cae02b647ab2e9b0c17955eef4d2000000000000000000000000034eebee6942d8def3c125458d1a86e0a897fd6f990291f6bb48f3f036ea2893f322a51a2e75c622bfd160004100242726fea611f0000000000000000000000000000000000000000000000000000000000000001000000000000000000000000000000000000000000000000000000006865860b000000000000000000000000000000000000000000000000000000000000000000000000000000000000000000000000000000000000000000000000000000000000000000000000000000000000000000000000000000000000000000000000000000000000000000000000000000008e8fa7aba1597b4e7ad5994f2c7b9a7c00000000000000000000000000000000000000000000000000000000000001a00000000000000000000000000000000000000000000000000000000000000000000000000000000000000000000000000000000000000000000000000000000000000000000000000000000000000000000000000000000000000000000002c00000000000000000000000000000000000000000000000000000000000000000000000000000000000000000000000000000000000000000000000000000010000000000000000000000000000000000000000000000000000000000000000000000000000000000000000000000000000000000000000000000000000000000000000000000000000000000000000000000000000000000000000000000000300000000000000000000000000000000000000000000000002ea11e32ad5000000000000000000000000000000000000000000000000000000000000000013b9000000000000000000000000000000000000000000000000000000000000000100000000000000000000000000000000000000000000000000000000000000000000000000000000000000000000000000000000000000000000000000000041245b9982c6daf7bfdf2f57a29bdc3a0269c4264e782a9b4f07d418f8d785917c21769a909ce05eb7fab0d6df7afcaeb6452efe748c60f35e86b18a716684cda91b000000000000000000000000000000000000000000000000000000000000000000000000000000000000000000000000000000000000000000000000000059cdf838e9bd64b77b3cfd82414705bb82b20faaba7cecfc92d1d15a4745378ddd7fb7d8b4a83effb653050cb7bf274f3d95e56cb6cf9287becf5a2150deb88ef31b01348ebc6af68e5d010513ff70a3aaed9afeb8661116e6ce00000000000000",
                    "decodedMethod": {
                        "callParams": [
                            {
                                "name": "inputs",
                                "type": "((address,address,bytes32,uint256,uint256,uint8,(address,uint16),uint256),(uint256,bytes32[],(uint256,uint256,uint256,uint256),(uint256,uint256)),(address,uint16),bytes)",
                                "value": [
                                    {
                                        "name": "order",
                                        "type": "(address,address,bytes32,uint256,uint256,uint8,(address,uint16),uint256)",
                                        "value": [
                                            {
                                                "name": "trader",
                                                "type": "address",
                                                "value": "0xc66e2eb1ed8cae02b647ab2e9b0c17955eef4d20"
                                            },
                                            {
                                                "name": "collection",
                                                "type": "address",
                                                "value": "0x34eebee6942d8def3c125458d1a86e0a897fd6f9"
                                            },
                                            {
                                                "name": "listingsRoot",
                                                "type": "bytes32",
                                                "value": "0x90291f6bb48f3f036ea2893f322a51a2e75c622bfd160004100242726fea611f"
                                            },
                                            {
                                                "name": "numberOfListings",
                                                "type": "uint256",
                                                "value": "1"
                                            },
                                            {
                                                "name": "expirationTime",
                                                "type": "uint256",
                                                "value": "1,751,483,915"
                                            },
                                            {
                                                "name": "assetType",
                                                "type": "uint8",
                                                "value": "0"
                                            },
                                            {
                                                "name": "makerFee",
                                                "type": "(address,uint16)",
                                                "value": [
                                                    {
                                                        "name": "recipient",
                                                        "type": "address",
                                                        "value": "0x0000000000000000000000000000000000000000"
                                                    },
                                                    {
                                                        "name": "rate",
                                                        "type": "uint16",
                                                        "value": "0"
                                                    }
                                                ]
                                            },
                                            {
                                                "name": "salt",
                                                "type": "uint256",
                                                "value": "189,496,274,612,583,397,349,339,829,206,806,927,996"
                                            }
                                        ]
                                    },
                                    {
                                        "name": "exchange",
                                        "type": "(uint256,bytes32[],(uint256,uint256,uint256,uint256),(uint256,uint256))",
                                        "value": [
                                            {
                                                "name": "index",
                                                "type": "uint256",
                                                "value": "0"
                                            },
                                            {
                                                "name": "proof",
                                                "type": "bytes32[]",
                                                "value": []
                                            },
                                            {
                                                "name": "listing",
                                                "type": "(uint256,uint256,uint256,uint256)",
                                                "value": [
                                                    {
                                                        "name": "index",
                                                        "type": "uint256",
                                                        "value": "0"
                                                    },
                                                    {
                                                        "name": "tokenId",
                                                        "type": "uint256",
                                                        "value": "0"
                                                    },
                                                    {
                                                        "name": "amount",
                                                        "type": "uint256",
                                                        "value": "3"
                                                    },
                                                    {
                                                        "name": "price",
                                                        "type": "uint256",
                                                        "value": "210,000,000,000,000,000"
                                                    }
                                                ]
                                            },
                                            {
                                                "name": "taker",
                                                "type": "(uint256,uint256)",
                                                "value": [
                                                    {
                                                        "name": "tokenId",
                                                        "type": "uint256",
                                                        "value": "5,049"
                                                    },
                                                    {
                                                        "name": "amount",
                                                        "type": "uint256",
                                                        "value": "1"
                                                    }
                                                ]
                                            }
                                        ]
                                    },
                                    {
                                        "name": "takerFee",
                                        "type": "(address,uint16)",
                                        "value": [
                                            {
                                                "name": "recipient",
                                                "type": "address",
                                                "value": "0x0000000000000000000000000000000000000000"
                                            },
                                            {
                                                "name": "rate",
                                                "type": "uint16",
                                                "value": "0"
                                            }
                                        ]
                                    },
                                    {
                                        "name": "signature",
                                        "type": "bytes",
                                        "value": "0x245b9982c6daf7bfdf2f57a29bdc3a0269c4264e782a9b4f07d418f8d785917c21769a909ce05eb7fab0d6df7afcaeb6452efe748c60f35e86b18a716684cda91b"
                                    }
                                ]
                            },
                            {
                                "name": "oracleSignature",
                                "type": "bytes",
                                "value": "0xcdf838e9bd64b77b3cfd82414705bb82b20faaba7cecfc92d1d15a4745378ddd7fb7d8b4a83effb653050cb7bf274f3d95e56cb6cf9287becf5a2150deb88ef31b01348ebc6af68e5d010513ff70a3aaed9afeb8661116e6ce"
                            }
                        ],
                        "constructorArguments": "",
                        "name": "takeBidSingle",
                        "returnParams": [],
                        "signature": "takeBidSingle(((address,address,bytes32,uint256,uint256,uint8,(address,uint16),uint256),(uint256,bytes32[],(uint256,uint256,uint256,uint256),(uint256,uint256)),(address,uint16),bytes),bytes)"
                    },
                    "errorInfo": "",
                    "fromAddress": "0x23b3c527f6d7560669b414c8124e420dc60b1125",
                    "gasUsed": 166334,
                    "id": 0,
                    "methodDecoded": true,
                    "operation": "CALL",
                    "output": "",
                    "revert": false,
                    "revertMessage": "",
                    "selector": "0xda815cb5",
                    "status": true,
                    "value": "0"
                },
                "nodeType": 0
            },
            "1": {
                "invocation": {
                    "address": "0x5fa60726e62c50af45ff2f6280c468da438a7837",
                    "callData": "0x00000000000000000000000000000000000000000000000000000000000000400000000000000000000000000000000000000000000000000000000000000380000000000000000000000000c66e2eb1ed8cae02b647ab2e9b0c17955eef4d2000000000000000000000000034eebee6942d8def3c125458d1a86e0a897fd6f990291f6bb48f3f036ea2893f322a51a2e75c622bfd160004100242726fea611f0000000000000000000000000000000000000000000000000000000000000001000000000000000000000000000000000000000000000000000000006865860b000000000000000000000000000000000000000000000000000000000000000000000000000000000000000000000000000000000000000000000000000000000000000000000000000000000000000000000000000000000000000000000000000000000000000000000000000000008e8fa7aba1597b4e7ad5994f2c7b9a7c00000000000000000000000000000000000000000000000000000000000001a00000000000000000000000000000000000000000000000000000000000000000000000000000000000000000000000000000000000000000000000000000000000000000000000000000000000000000000000000000000000000000000002c00000000000000000000000000000000000000000000000000000000000000000000000000000000000000000000000000000000000000000000000000000010000000000000000000000000000000000000000000000000000000000000000000000000000000000000000000000000000000000000000000000000000000000000000000000000000000000000000000000000000000000000000000000000300000000000000000000000000000000000000000000000002ea11e32ad5000000000000000000000000000000000000000000000000000000000000000013b9000000000000000000000000000000000000000000000000000000000000000100000000000000000000000000000000000000000000000000000000000000000000000000000000000000000000000000000000000000000000000000000041245b9982c6daf7bfdf2f57a29bdc3a0269c4264e782a9b4f07d418f8d785917c21769a909ce05eb7fab0d6df7afcaeb6452efe748c60f35e86b18a716684cda91b000000000000000000000000000000000000000000000000000000000000000000000000000000000000000000000000000000000000000000000000000059cdf838e9bd64b77b3cfd82414705bb82b20faaba7cecfc92d1d15a4745378ddd7fb7d8b4a83effb653050cb7bf274f3d95e56cb6cf9287becf5a2150deb88ef31b01348ebc6af68e5d010513ff70a3aaed9afeb8661116e6ce00000000000000",
                    "decodedMethod": {
                        "callParams": [
                            {
                                "name": "inputs",
                                "type": "((address,address,bytes32,uint256,uint256,uint8,(address,uint16),uint256),(uint256,bytes32[],(uint256,uint256,uint256,uint256),(uint256,uint256)),(address,uint16),bytes)",
                                "value": [
                                    {
                                        "name": "order",
                                        "type": "(address,address,bytes32,uint256,uint256,uint8,(address,uint16),uint256)",
                                        "value": [
                                            {
                                                "name": "trader",
                                                "type": "address",
                                                "value": "0xc66e2eb1ed8cae02b647ab2e9b0c17955eef4d20"
                                            },
                                            {
                                                "name": "collection",
                                                "type": "address",
                                                "value": "0x34eebee6942d8def3c125458d1a86e0a897fd6f9"
                                            },
                                            {
                                                "name": "listingsRoot",
                                                "type": "bytes32",
                                                "value": "0x90291f6bb48f3f036ea2893f322a51a2e75c622bfd160004100242726fea611f"
                                            },
                                            {
                                                "name": "numberOfListings",
                                                "type": "uint256",
                                                "value": "1"
                                            },
                                            {
                                                "name": "expirationTime",
                                                "type": "uint256",
                                                "value": "1,751,483,915"
                                            },
                                            {
                                                "name": "assetType",
                                                "type": "uint8",
                                                "value": "0"
                                            },
                                            {
                                                "name": "makerFee",
                                                "type": "(address,uint16)",
                                                "value": [
                                                    {
                                                        "name": "recipient",
                                                        "type": "address",
                                                        "value": "0x0000000000000000000000000000000000000000"
                                                    },
                                                    {
                                                        "name": "rate",
                                                        "type": "uint16",
                                                        "value": "0"
                                                    }
                                                ]
                                            },
                                            {
                                                "name": "salt",
                                                "type": "uint256",
                                                "value": "189,496,274,612,583,397,349,339,829,206,806,927,996"
                                            }
                                        ]
                                    },
                                    {
                                        "name": "exchange",
                                        "type": "(uint256,bytes32[],(uint256,uint256,uint256,uint256),(uint256,uint256))",
                                        "value": [
                                            {
                                                "name": "index",
                                                "type": "uint256",
                                                "value": "0"
                                            },
                                            {
                                                "name": "proof",
                                                "type": "bytes32[]",
                                                "value": []
                                            },
                                            {
                                                "name": "listing",
                                                "type": "(uint256,uint256,uint256,uint256)",
                                                "value": [
                                                    {
                                                        "name": "index",
                                                        "type": "uint256",
                                                        "value": "0"
                                                    },
                                                    {
                                                        "name": "tokenId",
                                                        "type": "uint256",
                                                        "value": "0"
                                                    },
                                                    {
                                                        "name": "amount",
                                                        "type": "uint256",
                                                        "value": "3"
                                                    },
                                                    {
                                                        "name": "price",
                                                        "type": "uint256",
                                                        "value": "210,000,000,000,000,000"
                                                    }
                                                ]
                                            },
                                            {
                                                "name": "taker",
                                                "type": "(uint256,uint256)",
                                                "value": [
                                                    {
                                                        "name": "tokenId",
                                                        "type": "uint256",
                                                        "value": "5,049"
                                                    },
                                                    {
                                                        "name": "amount",
                                                        "type": "uint256",
                                                        "value": "1"
                                                    }
                                                ]
                                            }
                                        ]
                                    },
                                    {
                                        "name": "takerFee",
                                        "type": "(address,uint16)",
                                        "value": [
                                            {
                                                "name": "recipient",
                                                "type": "address",
                                                "value": "0x0000000000000000000000000000000000000000"
                                            },
                                            {
                                                "name": "rate",
                                                "type": "uint16",
                                                "value": "0"
                                            }
                                        ]
                                    },
                                    {
                                        "name": "signature",
                                        "type": "bytes",
                                        "value": "0x245b9982c6daf7bfdf2f57a29bdc3a0269c4264e782a9b4f07d418f8d785917c21769a909ce05eb7fab0d6df7afcaeb6452efe748c60f35e86b18a716684cda91b"
                                    }
                                ]
                            },
                            {
                                "name": "oracleSignature",
                                "type": "bytes",
                                "value": "0xcdf838e9bd64b77b3cfd82414705bb82b20faaba7cecfc92d1d15a4745378ddd7fb7d8b4a83effb653050cb7bf274f3d95e56cb6cf9287becf5a2150deb88ef31b01348ebc6af68e5d010513ff70a3aaed9afeb8661116e6ce"
                            }
                        ],
                        "constructorArguments": "",
                        "name": "takeBidSingle",
                        "returnParams": [],
                        "signature": "takeBidSingle(((address,address,bytes32,uint256,uint256,uint8,(address,uint16),uint256),(uint256,bytes32[],(uint256,uint256,uint256,uint256),(uint256,uint256)),(address,uint16),bytes),bytes)"
                    },
                    "errorInfo": "",
                    "fromAddress": "0xb2ecfe4e4d61f8790bbb9de2d1259b9e2410cea5",
                    "gasUsed": 137714,
                    "id": 1,
                    "methodDecoded": true,
                    "operation": "DELEGATECALL",
                    "output": "",
                    "revert": false,
                    "revertMessage": "",
                    "selector": "0xda815cb5",
                    "status": true,
                    "value": "0"
                },
                "nodeType": 0
            },
            "10": {
                "invocation": {
                    "address": "0x0000000000a39bb272e79075ade125fd351887ac",
                    "callData": "0x000000000000000000000000c66e2eb1ed8cae02b647ab2e9b0c17955eef4d2000000000000000000000000023b3c527f6d7560669b414c8124e420dc60b112500000000000000000000000000000000000000000000000002ea11e32ad50000",
                    "decodedMethod": {
                        "callParams": [
                            {
                                "name": "from",
                                "type": "address",
                                "value": "0xc66e2eb1ed8cae02b647ab2e9b0c17955eef4d20"
                            },
                            {
                                "name": "to",
                                "type": "address",
                                "value": "0x23b3c527f6d7560669b414c8124e420dc60b1125"
                            },
                            {
                                "decimalAvailable": true,
                                "name": "amount",
                                "type": "uint256",
                                "value": "210,000,000,000,000,000"
                            }
                        ],
                        "constructorArguments": "",
                        "name": "transferFrom",
                        "returnParams": [
                            {
                                "name": "",
                                "type": "bool",
                                "value": true
                            }
                        ],
                        "signature": "transferFrom(address,address,uint256)"
                    },
                    "errorInfo": "",
                    "fromAddress": "0xb2ecfe4e4d61f8790bbb9de2d1259b9e2410cea5",
                    "gasUsed": 17826,
                    "id": 10,
                    "methodDecoded": true,
                    "operation": "CALL",
                    "output": "0x0000000000000000000000000000000000000000000000000000000000000001",
                    "revert": false,
                    "revertMessage": "",
                    "selector": "0x23b872dd",
                    "status": true,
                    "value": "0"
                },
                "nodeType": 0
            },
            "11": {
                "invocation": {
                    "address": "0x01a656024de4b89e2d0198bf4d468e8fd2358b17",
                    "callData": "0x000000000000000000000000c66e2eb1ed8cae02b647ab2e9b0c17955eef4d2000000000000000000000000023b3c527f6d7560669b414c8124e420dc60b112500000000000000000000000000000000000000000000000002ea11e32ad50000",
                    "decodedMethod": {
                        "callParams": [
                            {
                                "name": "from",
                                "type": "address",
                                "value": "0xc66e2eb1ed8cae02b647ab2e9b0c17955eef4d20"
                            },
                            {
                                "name": "to",
                                "type": "address",
                                "value": "0x23b3c527f6d7560669b414c8124e420dc60b1125"
                            },
                            {
                                "decimalAvailable": true,
                                "name": "amount",
                                "type": "uint256",
                                "value": "210,000,000,000,000,000"
                            }
                        ],
                        "constructorArguments": "",
                        "name": "transferFrom",
                        "returnParams": [
                            {
                                "name": "",
                                "type": "bool",
                                "value": true
                            }
                        ],
                        "signature": "transferFrom(address,address,uint256)"
                    },
                    "errorInfo": "",
                    "fromAddress": "0x0000000000a39bb272e79075ade125fd351887ac",
                    "gasUsed": 12931,
                    "id": 11,
                    "methodDecoded": true,
                    "operation": "DELEGATECALL",
                    "output": "0x0000000000000000000000000000000000000000000000000000000000000001",
                    "revert": false,
                    "revertMessage": "",
                    "selector": "0x23b872dd",
                    "status": true,
                    "value": "0"
                },
                "nodeType": 0
            },
            "12": {
                "event": {
                    "contract": "0x0000000000a39bb272e79075ade125fd351887ac",
                    "decodedLog": {
                        "name": "Transfer",
                        "params": [
                            {
                                "name": "from",
                                "type": "address",
                                "value": "0xc66e2eb1ed8cae02b647ab2e9b0c17955eef4d20"
                            },
                            {
                                "name": "to",
                                "type": "address",
                                "value": "0x23b3c527f6d7560669b414c8124e420dc60b1125"
                            },
                            {
                                "decimalAvailable": true,
                                "name": "value",
                                "type": "uint256",
                                "value": "210,000,000,000,000,000"
                            }
                        ],
                        "signature": "Transfer(address,address,uint256)"
                    },
                    "id": 12,
                    "logData": "0x00000000000000000000000000000000000000000000000002ea11e32ad50000",
                    "logDecoded": true,
                    "operation": "EVENT",
                    "revert": false,
                    "status": true,
                    "topics": [
                        "0xddf252ad1be2c89b69c2b068fc378daa952ba7f163c4a11628f55a4df523b3ef",
                        "0x000000000000000000000000c66e2eb1ed8cae02b647ab2e9b0c17955eef4d20",
                        "0x00000000000000000000000023b3c527f6d7560669b414c8124e420dc60b1125"
                    ]
                },
                "nodeType": 1
            },
            "13": {
                "event": {
                    "contract": "0xb2ecfe4e4d61f8790bbb9de2d1259b9e2410cea5",
                    "decodedLog": {
                        "name": "Execution721Packed",
                        "params": [
                            {
                                "name": "orderHash",
                                "type": "bytes32",
                                "value": "0xfab0005e4322f6a16405785714baa4a476309073b2368fe351bca5db38099065"
                            },
                            {
                                "name": "tokenIdListingIndexTrader",
                                "type": "uint256",
                                "value": "1,889,056,305,159,556,887,354,549,844,963,841,920,479,812,145,592,093,984"
                            },
                            {
                                "name": "collectionPriceSide",
                                "type": "uint256",
                                "value": "452,312,848,890,181,732,212,813,773,315,152,682,158,578,957,067,100,556,814,534,708,052,000,495,353"
                            }
                        ],
                        "signature": "Execution721Packed(bytes32,uint256,uint256)"
                    },
                    "id": 13,
                    "logData": "0xfab0005e4322f6a16405785714baa4a476309073b2368fe351bca5db3809906500000000000000000013b900c66e2eb1ed8cae02b647ab2e9b0c17955eef4d200100000002ea11e32ad5000034eebee6942d8def3c125458d1a86e0a897fd6f9",
                    "logDecoded": true,
                    "operation": "EVENT",
                    "revert": false,
                    "status": true,
                    "topics": [
                        "0x1d5e12b51dee5e4d34434576c3fb99714a85f57b0fd546ada4b0bddd736d12b2"
                    ]
                },
                "nodeType": 1
            },
            "2": {
                "invocation": {
                    "address": "0x0000000000000000000000000000000000000001",
                    "callData": "0xfc22024172149aaed57bc0718fa114239bb1a173d33234ed48c2699d000000000000000000000000000000000000000000000000000000000000001bcdf838e9bd64b77b3cfd82414705bb82b20faaba7cecfc92d1d15a4745378ddd7fb7d8b4a83effb653050cb7bf274f3d95e56cb6cf9287becf5a2150deb88ef3",
                    "decodedMethod": {
                        "callParams": [
                            {
                                "name": "hash",
                                "type": "bytes32",
                                "value": "0xf0cd3cccfc22024172149aaed57bc0718fa114239bb1a173d33234ed48c2699d"
                            },
                            {
                                "name": "v",
                                "type": "uint256",
                                "value": "27"
                            },
                            {
                                "name": "r",
                                "type": "bytes32",
                                "value": "0xcdf838e9bd64b77b3cfd82414705bb82b20faaba7cecfc92d1d15a4745378ddd"
                            },
                            {
                                "name": "s",
                                "type": "bytes32",
                                "value": "0x7fb7d8b4a83effb653050cb7bf274f3d95e56cb6cf9287becf5a2150deb88ef3"
                            }
                        ],
                        "constructorArguments": "",
                        "name": "ecrecover",
                        "returnParams": [
                            {
                                "name": "",
                                "type": "address",
                                "value": "0x6af68e5d010513ff70a3aaed9afeb8661116e6ce"
                            }
                        ],
                        "signature": "ecrecover(bytes32,uint256,bytes32,bytes32)"
                    },
                    "errorInfo": "",
                    "fromAddress": "0xb2ecfe4e4d61f8790bbb9de2d1259b9e2410cea5",
                    "gasUsed": 3000,
                    "id": 2,
                    "methodDecoded": true,
                    "operation": "STATICCALL",
                    "output": "0x0000000000000000000000006af68e5d010513ff70a3aaed9afeb8661116e6ce",
                    "revert": false,
                    "revertMessage": "",
                    "selector": "0xf0cd3ccc",
                    "status": true,
                    "value": "0"
                },
                "nodeType": 0
            },
            "3": {
                "invocation": {
                    "address": "0x0000000000000000000000000000000000000001",
                    "callData": "0x7582a8f7317e976bef4b1bbd7b877da2699183456e4e353e62cbcb00000000000000000000000000000000000000000000000000000000000000001b245b9982c6daf7bfdf2f57a29bdc3a0269c4264e782a9b4f07d418f8d785917c21769a909ce05eb7fab0d6df7afcaeb6452efe748c60f35e86b18a716684cda9",
                    "decodedMethod": {
                        "callParams": [
                            {
                                "name": "hash",
                                "type": "bytes32",
                                "value": "0x9748c9167582a8f7317e976bef4b1bbd7b877da2699183456e4e353e62cbcb00"
                            },
                            {
                                "name": "v",
                                "type": "uint256",
                                "value": "27"
                            },
                            {
                                "name": "r",
                                "type": "bytes32",
                                "value": "0x245b9982c6daf7bfdf2f57a29bdc3a0269c4264e782a9b4f07d418f8d785917c"
                            },
                            {
                                "name": "s",
                                "type": "bytes32",
                                "value": "0x21769a909ce05eb7fab0d6df7afcaeb6452efe748c60f35e86b18a716684cda9"
                            }
                        ],
                        "constructorArguments": "",
                        "name": "ecrecover",
                        "returnParams": [
                            {
                                "name": "",
                                "type": "address",
                                "value": "0xc66e2eb1ed8cae02b647ab2e9b0c17955eef4d20"
                            }
                        ],
                        "signature": "ecrecover(bytes32,uint256,bytes32,bytes32)"
                    },
                    "errorInfo": "",
                    "fromAddress": "0xb2ecfe4e4d61f8790bbb9de2d1259b9e2410cea5",
                    "gasUsed": 3000,
                    "id": 3,
                    "methodDecoded": true,
                    "operation": "STATICCALL",
                    "output": "0x000000000000000000000000c66e2eb1ed8cae02b647ab2e9b0c17955eef4d20",
                    "revert": false,
                    "revertMessage": "",
                    "selector": "0x9748c916",
                    "status": true,
                    "value": "0"
                },
                "nodeType": 0
            },
            "4": {
                "invocation": {
                    "address": "0x2f18f339620a63e43f0839eeb18d7de1e1be4dfb",
                    "callData": "0x00000000000000000000000023b3c527f6d7560669b414c8124e420dc60b11250000000000000000000000000000000000000000000000000000000000000001000000000000000000000000000000000000000000000000000000000000008000000000000000000000000000000000000000000000000000000000000000010000000000000000000000000000000000000000000000000000000000000001000000000000000000000000c66e2eb1ed8cae02b647ab2e9b0c17955eef4d2000000000000000000000000000000000000000000000000000000000000013b9000000000000000000000000000000000000000000000000000000000000000000000000000000000000000034eebee6942d8def3c125458d1a86e0a897fd6f90000000000000000000000000000000000000000000000000000000000000000",
                    "decodedMethod": {
                        "callParams": [
                            {
                                "name": "taker",
                                "type": "address",
                                "value": "0x23b3c527f6d7560669b414c8124e420dc60b1125"
                            },
                            {
                                "name": "orderType",
                                "type": "uint8",
                                "value": "1"
                            },
                            {
                                "name": "transfers",
                                "type": "(address,uint256,uint256,address,uint8)[]",
                                "value": [
                                    [
                                        {
                                            "name": "trader",
                                            "type": "address",
                                            "value": "0xc66e2eb1ed8cae02b647ab2e9b0c17955eef4d20"
                                        },
                                        {
                                            "name": "id",
                                            "type": "uint256",
                                            "value": "5,049"
                                        },
                                        {
                                            "name": "amount",
                                            "type": "uint256",
                                            "value": "0"
                                        },
                                        {
                                            "name": "collection",
                                            "type": "address",
                                            "value": "0x34eebee6942d8def3c125458d1a86e0a897fd6f9"
                                        },
                                        {
                                            "name": "assetType",
                                            "type": "uint8",
                                            "value": "0"
                                        }
                                    ]
                                ]
                            },
                            {
                                "name": "length",
                                "type": "uint256",
                                "value": "1"
                            }
                        ],
                        "constructorArguments": "",
                        "name": "transfer",
                        "returnParams": [
                            {
                                "name": "successful",
                                "type": "bool[]",
                                "value": [
                                    true
                                ]
                            }
                        ],
                        "signature": "transfer(address,uint8,(address,uint256,uint256,address,uint8)[],uint256)"
                    },
                    "errorInfo": "",
                    "fromAddress": "0xb2ecfe4e4d61f8790bbb9de2d1259b9e2410cea5",
                    "gasUsed": 64196,
                    "id": 4,
                    "methodDecoded": true,
                    "operation": "CALL",
                    "output": "0x000000000000000000000000000000000000000000000000000000000000002000000000000000000000000000000000000000000000000000000000000000010000000000000000000000000000000000000000000000000000000000000001",
                    "revert": false,
                    "revertMessage": "",
                    "selector": "0xa1ccb98e",
                    "status": true,
                    "value": "0"
                },
                "nodeType": 0
            },
            "5": {
                "invocation": {
                    "address": "0x34eebee6942d8def3c125458d1a86e0a897fd6f9",
                    "callData": "0x00000000000000000000000023b3c527f6d7560669b414c8124e420dc60b1125000000000000000000000000c66e2eb1ed8cae02b647ab2e9b0c17955eef4d2000000000000000000000000000000000000000000000000000000000000013b9",
                    "decodedMethod": {
                        "callParams": [
                            {
                                "name": "from",
                                "type": "address",
                                "value": "0x23b3c527f6d7560669b414c8124e420dc60b1125"
                            },
                            {
                                "name": "to",
                                "type": "address",
                                "value": "0xc66e2eb1ed8cae02b647ab2e9b0c17955eef4d20"
                            },
                            {
                                "name": "tokenId",
                                "type": "uint256",
                                "value": "5,049"
                            }
                        ],
                        "constructorArguments": "",
                        "name": "safeTransferFrom",
                        "returnParams": [],
                        "signature": "safeTransferFrom(address,address,uint256)"
                    },
                    "errorInfo": "",
                    "fromAddress": "0x2f18f339620a63e43f0839eeb18d7de1e1be4dfb",
                    "gasUsed": 60272,
                    "id": 5,
                    "methodDecoded": true,
                    "operation": "CALL",
                    "output": "",
                    "revert": false,
                    "revertMessage": "",
                    "selector": "0x42842e0e",
                    "status": true,
                    "value": "0"
                },
                "nodeType": 0
            },
            "6": {
                "invocation": {
                    "address": "0x7c74dfe39976dc395529c14e54a597809980e01c",
                    "callData": "0x00000000000000000000000023b3c527f6d7560669b414c8124e420dc60b1125000000000000000000000000c66e2eb1ed8cae02b647ab2e9b0c17955eef4d2000000000000000000000000000000000000000000000000000000000000013b9",
                    "decodedMethod": {
                        "callParams": [
                            {
                                "name": "from",
                                "type": "address",
                                "value": "0x23b3c527f6d7560669b414c8124e420dc60b1125"
                            },
                            {
                                "name": "to",
                                "type": "address",
                                "value": "0xc66e2eb1ed8cae02b647ab2e9b0c17955eef4d20"
                            },
                            {
                                "name": "tokenId",
                                "type": "uint256",
                                "value": "5,049"
                            }
                        ],
                        "constructorArguments": "",
                        "name": "safeTransferFrom",
                        "returnParams": [],
                        "signature": "safeTransferFrom(address,address,uint256)"
                    },
                    "errorInfo": "",
                    "fromAddress": "0x34eebee6942d8def3c125458d1a86e0a897fd6f9",
                    "gasUsed": 55380,
                    "id": 6,
                    "methodDecoded": true,
                    "operation": "DELEGATECALL",
                    "output": "",
                    "revert": false,
                    "revertMessage": "",
                    "selector": "0x42842e0e",
                    "status": true,
                    "value": "0"
                },
                "nodeType": 0
            },
            "7": {
                "invocation": {
                    "address": "0x000000000000aaeb6d7670e522a718067333cd4e",
                    "callData": "0x00000000000000000000000034eebee6942d8def3c125458d1a86e0a897fd6f90000000000000000000000002f18f339620a63e43f0839eeb18d7de1e1be4dfb",
                    "decodedMethod": {
                        "callParams": [
                            {
                                "name": "registrant",
                                "type": "address",
                                "value": "0x34eebee6942d8def3c125458d1a86e0a897fd6f9"
                            },
                            {
                                "name": "operator",
                                "type": "address",
                                "value": "0x2f18f339620a63e43f0839eeb18d7de1e1be4dfb"
                            }
                        ],
                        "constructorArguments": "",
                        "name": "isOperatorAllowed",
                        "returnParams": [
                            {
                                "name": "",
                                "type": "bool",
                                "value": true
                            }
                        ],
                        "signature": "isOperatorAllowed(address,address)"
                    },
                    "errorInfo": "",
                    "fromAddress": "0x34eebee6942d8def3c125458d1a86e0a897fd6f9",
                    "gasUsed": 2729,
                    "id": 7,
                    "methodDecoded": true,
                    "operation": "STATICCALL",
                    "output": "0x0000000000000000000000000000000000000000000000000000000000000001",
                    "revert": false,
                    "revertMessage": "",
                    "selector": "0xc6171134",
                    "status": true,
                    "value": "0"
                },
                "nodeType": 0
            },
            "8": {
                "event": {
                    "contract": "0x34eebee6942d8def3c125458d1a86e0a897fd6f9",
                    "decodedLog": {
                        "name": "Approval",
                        "params": [
                            {
                                "name": "owner",
                                "type": "address",
                                "value": "0x23b3c527f6d7560669b414c8124e420dc60b1125"
                            },
                            {
                                "name": "approved",
                                "type": "address",
                                "value": "0x0000000000000000000000000000000000000000"
                            },
                            {
                                "decimalAvailable": true,
                                "name": "tokenId",
                                "type": "uint256",
                                "value": "5,049"
                            }
                        ],
                        "signature": "Approval(address,address,uint256)"
                    },
                    "id": 8,
                    "logData": "0x",
                    "logDecoded": true,
                    "operation": "EVENT",
                    "revert": false,
                    "status": true,
                    "topics": [
                        "0x8c5be1e5ebec7d5bd14f71427d1e84f3dd0314c0f7b2291e5b200ac8c7c3b925",
                        "0x00000000000000000000000023b3c527f6d7560669b414c8124e420dc60b1125",
                        "0x0000000000000000000000000000000000000000000000000000000000000000",
                        "0x00000000000000000000000000000000000000000000000000000000000013b9"
                    ]
                },
                "nodeType": 1
            },
            "9": {
                "event": {
                    "contract": "0x34eebee6942d8def3c125458d1a86e0a897fd6f9",
                    "decodedLog": {
                        "name": "Transfer",
                        "params": [
                            {
                                "name": "from",
                                "type": "address",
                                "value": "0x23b3c527f6d7560669b414c8124e420dc60b1125"
                            },
                            {
                                "name": "to",
                                "type": "address",
                                "value": "0xc66e2eb1ed8cae02b647ab2e9b0c17955eef4d20"
                            },
                            {
                                "decimalAvailable": true,
                                "name": "tokenId",
                                "type": "uint256",
                                "value": "5,049"
                            }
                        ],
                        "signature": "Transfer(address,address,uint256)"
                    },
                    "id": 9,
                    "logData": "0x",
                    "logDecoded": true,
                    "operation": "EVENT",
                    "revert": false,
                    "status": true,
                    "topics": [
                        "0xddf252ad1be2c89b69c2b068fc378daa952ba7f163c4a11628f55a4df523b3ef",
                        "0x00000000000000000000000023b3c527f6d7560669b414c8124e420dc60b1125",
                        "0x000000000000000000000000c66e2eb1ed8cae02b647ab2e9b0c17955eef4d20",
                        "0x00000000000000000000000000000000000000000000000000000000000013b9"
                    ]
                },
                "nodeType": 1
            }
        },
        "gasFlame": [
            {
                "children": [
                    {
                        "children": [
                            {
                                "children": [],
                                "depth": 0,
                                "name": "Initial Gas",
                                "value": 28352
                            },
                            {
                                "children": [
                                    {
                                        "children": [
                                            {
                                                "children": [],
                                                "depth": 2,
                                                "name": "ecrecover",
                                                "value": 3000
                                            },
                                            {
                                                "children": [],
                                                "depth": 2,
                                                "name": "ecrecover",
                                                "value": 3000
                                            },
                                            {
                                                "children": [
                                                    {
                                                        "children": [
                                                            {
                                                                "children": [
                                                                    {
                                                                        "children": [],
                                                                        "depth": 5,
                                                                        "name": "isOperatorAllowed",
                                                                        "value": 2729
                                                                    }
                                                                ],
                                                                "depth": 4,
                                                                "name": "safeTransferFrom",
                                                                "value": 55380
                                                            }
                                                        ],
                                                        "depth": 3,
                                                        "name": "safeTransferFrom",
                                                        "value": 60272
                                                    }
                                                ],
                                                "depth": 2,
                                                "name": "transfer",
                                                "value": 64196
                                            },
                                            {
                                                "children": [
                                                    {
                                                        "children": [],
                                                        "depth": 3,
                                                        "name": "transferFrom",
                                                        "value": 12931
                                                    }
                                                ],
                                                "depth": 2,
                                                "name": "transferFrom",
                                                "value": 17826
                                            }
                                        ],
                                        "depth": 1,
                                        "name": "takeBidSingle",
                                        "value": 137714
                                    }
                                ],
                                "depth": 0,
                                "name": "Executed Gas",
                                "value": 142782
                            }
                        ],
                        "depth": -1,
                        "name": "Actual Gas Used",
                        "value": 166334
                    },
                    {
                        "children": [],
                        "depth": -1,
                        "name": "Refunded Gas",
                        "value": 4800
                    }
                ],
                "depth": -2,
                "name": "Total Gas",
                "value": 171134
            }
        ],
        "isConfirmed": true,
        "mainTrace": [
            {
                "children": [
                    {
                        "children": [
                            {
                                "children": [
                                    {
                                        "children": [],
                                        "depth": 2,
                                        "id": 2,
                                        "order": 2
                                    },
                                    {
                                        "children": [],
                                        "depth": 2,
                                        "id": 3,
                                        "order": 3
                                    },
                                    {
                                        "children": [
                                            {
                                                "children": [
                                                    {
                                                        "children": [
                                                            {
                                                                "children": [],
                                                                "depth": 5,
                                                                "id": 7,
                                                                "order": 7
                                                            },
                                                            {
                                                                "children": [],
                                                                "depth": 5,
                                                                "id": 8,
                                                                "order": 8
                                                            },
                                                            {
                                                                "children": [],
                                                                "depth": 5,
                                                                "id": 9,
                                                                "order": 9
                                                            }
                                                        ],
                                                        "depth": 4,
                                                        "id": 6,
                                                        "order": 6
                                                    }
                                                ],
                                                "depth": 3,
                                                "id": 5,
                                                "order": 5
                                            }
                                        ],
                                        "depth": 2,
                                        "id": 4,
                                        "order": 4
                                    },
                                    {
                                        "children": [
                                            {
                                                "children": [
                                                    {
                                                        "children": [],
                                                        "depth": 4,
                                                        "id": 12,
                                                        "order": 12
                                                    }
                                                ],
                                                "depth": 3,
                                                "id": 11,
                                                "order": 11
                                            }
                                        ],
                                        "depth": 2,
                                        "id": 10,
                                        "order": 10
                                    },
                                    {
                                        "children": [],
                                        "depth": 2,
                                        "id": 13,
                                        "order": 13
                                    }
                                ],
                                "depth": 1,
                                "id": 1,
                                "order": 1
                            }
                        ],
                        "depth": 0,
                        "id": 0,
                        "order": 0
                    }
                ],
                "depth": -1,
                "id": -1,
                "order": -1
            }
        ],
        "mainTraceNodeCount": 14,
        "parentIdMap": {
            "0": -1,
            "1": 0,
            "10": 1,
            "11": 10,
            "12": 11,
            "13": 1,
            "2": 1,
            "3": 1,
            "4": 1,
            "5": 4,
            "6": 5,
            "7": 6,
            "8": 6,
            "9": 6
        },
        "tidyTrace": [
            {
                "children": [
                    {
                        "children": [
                            {
                                "children": [
                                    {
                                        "children": [
                                            {
                                                "children": [
                                                    {
                                                        "children": [
                                                            {
                                                                "children": [],
                                                                "depth": 5,
                                                                "id": 8,
                                                                "order": 8
                                                            },
                                                            {
                                                                "children": [],
                                                                "depth": 5,
                                                                "id": 9,
                                                                "order": 9
                                                            }
                                                        ],
                                                        "depth": 4,
                                                        "id": 6,
                                                        "order": 6
                                                    }
                                                ],
                                                "depth": 3,
                                                "id": 5,
                                                "order": 5
                                            }
                                        ],
                                        "depth": 2,
                                        "id": 4,
                                        "order": 4
                                    },
                                    {
                                        "children": [
                                            {
                                                "children": [
                                                    {
                                                        "children": [],
                                                        "depth": 4,
                                                        "id": 12,
                                                        "order": 12
                                                    }
                                                ],
                                                "depth": 3,
                                                "id": 11,
                                                "order": 11
                                            }
                                        ],
                                        "depth": 2,
                                        "id": 10,
                                        "order": 10
                                    },
                                    {
                                        "children": [],
                                        "depth": 2,
                                        "id": 13,
                                        "order": 13
                                    }
                                ],
                                "depth": 1,
                                "id": 1,
                                "order": 1
                            }
                        ],
                        "depth": 0,
                        "id": 0,
                        "order": 0
                    }
                ],
                "depth": -1,
                "id": -1,
                "order": -1
            }
        ],
        "tidyTraceNodeCount": 11
    },
    "state_change": {
        "stateChanges": [
            {
                "address": "0x0000000000a39bb272e79075ade125fd351887ac",
                "erc": "",
                "slots": [
                    {
                        "current": "0x000000000000000000000000000000000000000000000000061b31ab352c0000",
                        "key": "0x6224971239baabe2cfaacbf4d0a7304aa54924780df67cd27f5f2364f0c040e9",
                        "prev": "0x0000000000000000000000000000000000000000000000000905438e60010000"
                    },
                    {
                        "current": "0x0000000000000000000000000000000000000000000000001c2f0750aa1a2000",
                        "key": "0xf692dad582ec7b2ba58a208341278fac0cd144415538144231247668eaa2baf5",
                        "prev": "0x0000000000000000000000000000000000000000000000001944f56d7f452000"
                    }
                ],
                "storageVariables": [
                    {
                        "name": "_balances",
                        "type": "mapping(address => uint256)",
                        "value": {
                            "pairs": [
                                {
                                    "key": "0x23b3c527f6d7560669b414c8124e420dc60b1125",
                                    "value": {
                                        "current": "2030850000000000000",
                                        "prev": "1820850000000000000",
                                        "typeTag": 1
                                    }
                                },
                                {
                                    "key": "0xc66e2eb1ed8cae02b647ab2e9b0c17955eef4d20",
                                    "value": {
                                        "current": "440000000000000000",
                                        "prev": "650000000000000000",
                                        "typeTag": 1
                                    }
                                }
                            ],
                            "typeTag": 4
                        }
                    }
                ]
            },
            {
                "address": "0x34eebee6942d8def3c125458d1a86e0a897fd6f9",
                "erc": "ERC-721",
                "slots": [
                    {
                        "current": "0x0000000000000000000000000000000000000000000000000000000000000000",
                        "key": "0xe9b91920fb03bd32985e5176db7657ac1d7e5382e84362b2f4aedeb92291354b",
                        "prev": "0x0000000000000000000000000000000000000000000000000000000000000001"
                    },
                    {
                        "current": "0x0000000000000000000000000000000000000000000000000000000000000001",
                        "key": "0xdeabbda6e91409fc7815e75499e015c6d993d739eaddfc8cd2605da8d08ea2b1",
                        "prev": "0x0000000000000000000000000000000000000000000000000000000000000000"
                    },
                    {
                        "current": "0x0000000000000000668476c7c66e2eb1ed8cae02b647ab2e9b0c17955eef4d20",
                        "key": "0xc5a81eca905a7d63190a44442bc30a941674fa0f1eb84eb3ac847058eff42598",
                        "prev": "0x00000000000000006684190723b3c527f6d7560669b414c8124e420dc60b1125"
                    }
                ],
                "storageVariables": [
                    {
                        "name": "_ownerships",
                        "type": "mapping(uint256 => struct IERC721AUpgradeable.TokenOwnership)",
                        "value": {
                            "pairs": [
                                {
                                    "key": "5049",
                                    "value": {
                                        "fields": [
                                            {
                                                "name": "addr",
                                                "type": "address",
                                                "value": {
                                                    "current": "0xc66e2eb1ed8cae02b647ab2e9b0c17955eef4d20",
                                                    "prev": "0x23b3c527f6d7560669b414c8124e420dc60b1125",
                                                    "typeTag": 1
                                                }
                                            },
                                            {
                                                "name": "startTimestamp",
                                                "type": "uint64",
                                                "value": {
                                                    "current": "1719957191",
                                                    "prev": "1719933191",
                                                    "typeTag": 1
                                                }
                                            },
                                            {
                                                "name": "burned",
                                                "type": "bool",
                                                "value": {
                                                    "current": "false",
                                                    "prev": "false",
                                                    "typeTag": 1
                                                }
                                            }
                                        ],
                                        "typeTag": 3
                                    }
                                }
                            ],
                            "typeTag": 4
                        }
                    },
                    {
                        "name": "_addressData",
                        "type": "mapping(address => struct IERC721AUpgradeable.AddressData)",
                        "value": {
                            "pairs": [
                                {
                                    "key": "0x23b3c527f6d7560669b414c8124e420dc60b1125",
                                    "value": {
                                        "fields": [
                                            {
                                                "name": "balance",
                                                "type": "uint64",
                                                "value": {
                                                    "current": "0",
                                                    "prev": "1",
                                                    "typeTag": 1
                                                }
                                            },
                                            {
                                                "name": "numberMinted",
                                                "type": "uint64",
                                                "value": {
                                                    "current": "0",
                                                    "prev": "0",
                                                    "typeTag": 1
                                                }
                                            },
                                            {
                                                "name": "numberBurned",
                                                "type": "uint64",
                                                "value": {
                                                    "current": "0",
                                                    "prev": "0",
                                                    "typeTag": 1
                                                }
                                            },
                                            {
                                                "name": "aux",
                                                "type": "uint64",
                                                "value": {
                                                    "current": "0",
                                                    "prev": "0",
                                                    "typeTag": 1
                                                }
                                            }
                                        ],
                                        "typeTag": 3
                                    }
                                },
                                {
                                    "key": "0xc66e2eb1ed8cae02b647ab2e9b0c17955eef4d20",
                                    "value": {
                                        "fields": [
                                            {
                                                "name": "balance",
                                                "type": "uint64",
                                                "value": {
                                                    "current": "1",
                                                    "prev": "0",
                                                    "typeTag": 1
                                                }
                                            },
                                            {
                                                "name": "numberMinted",
                                                "type": "uint64",
                                                "value": {
                                                    "current": "0",
                                                    "prev": "0",
                                                    "typeTag": 1
                                                }
                                            },
                                            {
                                                "name": "numberBurned",
                                                "type": "uint64",
                                                "value": {
                                                    "current": "0",
                                                    "prev": "0",
                                                    "typeTag": 1
                                                }
                                            },
                                            {
                                                "name": "aux",
                                                "type": "uint64",
                                                "value": {
                                                    "current": "0",
                                                    "prev": "0",
                                                    "typeTag": 1
                                                }
                                            }
                                        ],
                                        "typeTag": 3
                                    }
                                }
                            ],
                            "typeTag": 4
                        }
                    }
                ]
            },
            {
                "address": "0xb2ecfe4e4d61f8790bbb9de2d1259b9e2410cea5",
                "erc": "",
                "slots": [
                    {
                        "current": "0x0000000000000000000000000000000000000000000000000000000000000001",
                        "key": "0xeb6b4bf384c0882d1efb042166797ddd982478e6b214f98be299b9d77440e867",
                        "prev": "0x0000000000000000000000000000000000000000000000000000000000000000"
                    }
                ],
                "storageVariables": [
                    {
                        "name": "amountTaken",
                        "type": "mapping(address => mapping(bytes32 => mapping(uint256 => uint256)))",
                        "value": {
                            "pairs": [
                                {
                                    "key": "0xc66e2eb1ed8cae02b647ab2e9b0c17955eef4d20",
                                    "value": {
                                        "pairs": [
                                            {
                                                "key": "0xfab0005e4322f6a16405785714baa4a476309073b2368fe351bca5db38099065",
                                                "value": {
                                                    "pairs": [
                                                        {
                                                            "key": "0",
                                                            "value": {
                                                                "current": "1",
                                                                "prev": "0",
                                                                "typeTag": 1
                                                            }
                                                        }
                                                    ],
                                                    "typeTag": 4
                                                }
                                            }
                                        ],
                                        "typeTag": 4
                                    }
                                }
                            ],
                            "typeTag": 4
                        }
                    }
                ]
            }
        ]
    }
}