{
    "balance_change": {
        "balanceChanges": [
            {
                "account": "0xefb3b5e0cfae12c1671663ec587b6d65750a8df6",
                "assets": [
                    {
                        "address": "0xafcb884eaba89e6c349df66c7973c052e5b4b281",
                        "amount": "20",
                        "iconUrl": "",
                        "isERC1155": false,
                        "isERC721": false,
                        "sign": false,
                        "value": ""
                    }
                ]
            },
            {
                "account": "0xc023f59526daedd20bbd5e92b24350d1c09d0d0e",
                "assets": [
                    {
                        "address": "0xafcb884eaba89e6c349df66c7973c052e5b4b281",
                        "amount": "20",
                        "iconUrl": "",
                        "isERC1155": false,
                        "isERC721": false,
                        "sign": true,
                        "value": ""
                    }
                ]
            }
        ]
    },
    "profile": {
        "basic_info": {
            "baseFee": "",
            "blockNumber": 6000955,
            "callData": "0xa9059cbb000000000000000000000000c023f59526daedd20bbd5e92b24350d1c09d0d0e000000000000000000000000000000000000000000000001158e460913d00000",
            "debugEnable": true,
            "errorInfo": "",
            "eventCount": 4,
            "feeRecipient": "0xea674fdde714fd979de3edf0f56aa9716b898ec8",
            "formatValue": "0",
            "gasLimit": 60000,
            "gasPrice": "4.2",
            "gasUsed": 49992,
            "intTxnCount": 0,
            "internalRevert": false,
            "internalRevertMessage": "",
            "isContractCreation": false,
            "isFlashloan": false,
            "maxFee": "",
            "nonce": 2,
            "overwritedBlockNumber": -1,
            "priorityFee": "",
            "receiver": "0xafcb884eaba89e6c349df66c7973c052e5b4b281",
            "revertMessage": "",
            "sender": "0xefb3b5e0cfae12c1671663ec587b6d65750a8df6",
            "simulationEnable": true,
            "sourceTxnHash": "0x0bb50047daabd825bdc7e9944c7f6b148af99bc1eaa43dd8d065242ce34f6946",
            "status": true,
            "timestamp": "2018-07-21T00:40:30Z",
            "transactionFee": "0.0002099664",
            "txnHash": "0x0bb50047daabd825bdc7e9944c7f6b148af99bc1eaa43dd8d065242ce34f6946",
            "txnIndex": 77,
            "type": 0,
            "value": "0"
        },
        "fund_flow": [
            {
                "amount": "20",
                "from": "0xefb3b5e0cfae12c1671663ec587b6d65750a8df6",
                "id": 1,
                "isERC1155": false,
                "isERC721": false,
                "isReverted": false,
                "order": 1,
                "to": "0xc023f59526daedd20bbd5e92b24350d1c09d0d0e",
                "token": "0xafcb884eaba89e6c349df66c7973c052e5b4b281"
            }
        ],
        "token_infos": [
            {
                "address": "0xafcb884eaba89e6c349df66c7973c052e5b4b281",
                "decimals": 18
            },
            {
                "address": "0xc02aaa39b223fe8d0a0e5c4f27ead9083c756cc2",
                "decimals": 18
            },
            {
                "address": "0xeeeeeeeeeeeeeeeeeeeeeeeeeeeeeeeeeeeeeeee",
                "decimals": 18
            }
        ]
    },
    "address_label": {
        "labels": [
            {
                "address": "0x0000000000000000000000000000000000000001",
                "label": "Precompiled"
            },
            {
                "address": "0x0000000000000000000000000000000000000002",
                "label": "Precompiled"
            },
            {
                "address": "0x0000000000000000000000000000000000000003",
                "label": "Precompiled"
            },
            {
                "address": "0x0000000000000000000000000000000000000004",
                "label": "Precompiled"
            },
            {
                "address": "0xeeeeeeeeeeeeeeeeeeeeeeeeeeeeeeeeeeeeeeee",
                "label": "Ether"
            },
            {
                "address": "0xafcb884eaba89e6c349df66c7973c052e5b4b281",
                "label": "ADD Token (ADD)"
            }
        ]
    },
    "trace": {
        "accountLabels": null,
        "dataMap": {
            "-1": {
                "invocation": {
                    "address": "0xefb3b5e0cfae12c1671663ec587b6d65750a8df6",
                    "callData": "",
                    "decodedMethod": null,
                    "errorInfo": "",
                    "fromAddress": "",
                    "gasUsed": 0,
                    "id": -1,
                    "methodDecoded": false,
                    "operation": "",
                    "output": "",
                    "revert": false,
                    "revertMessage": "",
                    "selector": "",
                    "status": false,
                    "value": ""
                },
                "nodeType": 0
            },
            "0": {
                "invocation": {
                    "address": "0xafcb884eaba89e6c349df66c7973c052e5b4b281",
                    "callData": "0x000000000000000000000000c023f59526daedd20bbd5e92b24350d1c09d0d0e000000000000000000000000000000000000000000000001158e460913d00000",
                    "decodedMethod": {
                        "callParams": [
                            {
                                "name": "recipient",
                                "type": "address",
                                "value": "0xc023f59526daedd20bbd5e92b24350d1c09d0d0e"
                            },
                            {
                                "decimalAvailable": true,
                                "name": "amount",
                                "type": "uint256",
                                "value": "20,000,000,000,000,000,000"
                            }
                        ],
                        "constructorArguments": "",
                        "name": "transfer",
                        "returnParams": [
                            {
                                "name": "",
                                "type": "bool",
                                "value": true
                            }
                        ],
                        "signature": "transfer(address,uint256)"
                    },
                    "errorInfo": "",
                    "fromAddress": "0xefb3b5e0cfae12c1671663ec587b6d65750a8df6",
                    "gasUsed": 49992,
                    "id": 0,
                    "methodDecoded": true,
                    "operation": "CALL",
                    "output": "0x0000000000000000000000000000000000000000000000000000000000000001",
                    "revert": false,
                    "revertMessage": "",
                    "selector": "0xa9059cbb",
                    "status": true,
                    "value": "0"
                },
                "nodeType": 0
            },
            "1": {
                "event": {
                    "contract": "0xafcb884eaba89e6c349df66c7973c052e5b4b281",
                    "decodedLog": {
                        "name": "ShowTestB",
                        "params": [
                            {
                                "name": "_bool",
                                "type": "bool",
                                "value": false
                            }
                        ],
                        "signature": "ShowTestB(bool)"
                    },
                    "id": 1,
                    "logData": "0x0000000000000000000000000000000000000000000000000000000000000000",
                    "logDecoded": true,
                    "operation": "EVENT",
                    "revert": false,
                    "status": true,
                    "topics": [
                        "0x38d335ef49a32c2349a5e009528bb10029e0d66884ae2a604e86d64a1d5bb514"
                    ]
                },
                "nodeType": 1
            },
            "2": {
                "event": {
                    "contract": "0xafcb884eaba89e6c349df66c7973c052e5b4b281",
                    "decodedLog": {
                        "name": "ShowTestU",
                        "params": [
                            {
                                "name": "_string",
                                "type": "string",
                                "value": "firstPhaseCount"
                            },
                            {
                                "name": "_uint",
                                "type": "uint256",
                                "value": "0"
                            }
                        ],
                        "signature": "ShowTestU(string,uint256)"
                    },
                    "id": 2,
                    "logData": "0x00000000000000000000000000000000000000000000000000000000000000400000000000000000000000000000000000000000000000000000000000000000000000000000000000000000000000000000000000000000000000000000000f66697273745068617365436f756e740000000000000000000000000000000000",
                    "logDecoded": true,
                    "operation": "EVENT",
                    "revert": false,
                    "status": true,
                    "topics": [
                        "0x7dab84d8802f792eb59fa2ef1563cef87b05bd7a115ec3ba4f7bad9c25e226b5"
                    ]
                },
                "nodeType": 1
            },
            "3": {
                "event": {
                    "contract": "0xafcb884eaba89e6c349df66c7973c052e5b4b281",
                    "decodedLog": {
                        "name": "ShowTestB",
                        "params": [
                            {
                                "name": "_bool",
                                "type": "bool",
                                "value": false
                            }
                        ],
                        "signature": "ShowTestB(bool)"
                    },
                    "id": 3,
                    "logData": "0x0000000000000000000000000000000000000000000000000000000000000000",
                    "logDecoded": true,
                    "operation": "EVENT",
                    "revert": false,
                    "status": true,
                    "topics": [
                        "0x38d335ef49a32c2349a5e009528bb10029e0d66884ae2a604e86d64a1d5bb514"
                    ]
                },
                "nodeType": 1
            },
            "4": {
                "event": {
                    "contract": "0xafcb884eaba89e6c349df66c7973c052e5b4b281",
                    "decodedLog": {
                        "name": "Transfer",
                        "params": [
                            {
                                "name": "from",
                                "type": "address",
                                "value": "0xefb3b5e0cfae12c1671663ec587b6d65750a8df6"
                            },
                            {
                                "name": "to",
                                "type": "address",
                                "value": "0xc023f59526daedd20bbd5e92b24350d1c09d0d0e"
                            },
                            {
                                "decimalAvailable": true,
                                "name": "value",
                                "type": "uint256",
                                "value": "20,000,000,000,000,000,000"
                            }
                        ],
                        "signature": "Transfer(address,address,uint256)"
                    },
                    "id": 4,
                    "logData": "0x000000000000000000000000000000000000000000000001158e460913d00000",
                    "logDecoded": true,
                    "operation": "EVENT",
                    "revert": false,
                    "status": true,
                    "topics": [
                        "0xddf252ad1be2c89b69c2b068fc378daa952ba7f163c4a11628f55a4df523b3ef",
                        "0x000000000000000000000000efb3b5e0cfae12c1671663ec587b6d65750a8df6",
                        "0x000000000000000000000000c023f59526daedd20bbd5e92b24350d1c09d0d0e"
                    ]
                },
                "nodeType": 1
            }
        },
        "gasFlame": [
            {
                "children": [
                    {
                        "children": [
                            {
                                "children": [],
                                "depth": 0,
                                "name": "Initial Gas",
                                "value": 23256
                            },
                            {
                                "children": [],
                                "depth": 0,
                                "name": "Executed Gas",
                                "value": 26736
                            }
                        ],
                        "depth": -1,
                        "name": "Actual Gas Used",
                        "value": 49992
                    },
                    {
                        "children": [],
                        "depth": -1,
                        "name": "Refunded Gas",
                        "value": 0
                    }
                ],
                "depth": -2,
                "name": "Total Gas",
                "value": 49992
            }
        ],
        "isConfirmed": true,
        "mainTrace": [
            {
                "children": [
                    {
                        "children": [
                            {
                                "children": [],
                                "depth": 1,
                                "id": 1,
                                "order": 1
                            },
                            {
                                "children": [],
                                "depth": 1,
                                "id": 2,
                                "order": 2
                            },
                            {
                                "children": [],
                                "depth": 1,
                                "id": 3,
                                "order": 3
                            },
                            {
                                "children": [],
                                "depth": 1,
                                "id": 4,
                                "order": 4
                            }
                        ],
                        "depth": 0,
                        "id": 0,
                        "order": 0
                    }
                ],
                "depth": -1,
                "id": -1,
                "order": -1
            }
        ],
        "mainTraceNodeCount": 5,
        "parentIdMap": {
            "0": -1,
            "1": 0,
            "2": 0,
            "3": 0,
            "4": 0
        },
        "tidyTrace": [
            {
                "children": [
                    {
                        "children": [
                            {
                                "children": [],
                                "depth": 1,
                                "id": 1,
                                "order": 1
                            },
                            {
                                "children": [],
                                "depth": 1,
                                "id": 2,
                                "order": 2
                            },
                            {
                                "children": [],
                                "depth": 1,
                                "id": 3,
                                "order": 3
                            },
                            {
                                "children": [],
                                "depth": 1,
                                "id": 4,
                                "order": 4
                            }
                        ],
                        "depth": 0,
                        "id": 0,
                        "order": 0
                    }
                ],
                "depth": -1,
                "id": -1,
                "order": -1
            }
        ],
        "tidyTraceNodeCount": 5
    },
    "state_change": {
        "stateChanges": [
            {
                "address": "0xafcb884eaba89e6c349df66c7973c052e5b4b281",
                "erc": "",
                "slots": [
                    {
                        "current": "0x000000000000000000000000000000000000000000000000002386f26fc10000",
                        "key": "0x901b6fa01a4a0f58456e8e7ba99ae8e7f4942922dad3dd0fa15b029d13fa0462",
                        "prev": "0x00000000000000000000000000000000000000000000000115b1ccfb83910000"
                    },
                    {
                        "current": "0x0000000000000000000000000000000000000000000005e1664819b7bc986de0",
                        "key": "0x7a7ffe88ac9810bd2b22cb3ef534aa704c6a6924ac0207c7c142b8d42f63831b",
                        "prev": "0x0000000000000000000000000000000000000000000005e050b9d3aea8c86de0"
                    }
                ],
                "storageVariables": []
            }
        ]
    }
}