{
    "balance_change": {
        "balanceChanges": []
    },
    "profile": {
        "basic_info": {
            "baseFee": "2.26074025",
            "blockNumber": 20287622,
            "callData": "0xc9807539000000000000000000000000000000000000000000000000000000000000008000000000000000000000000000000000000000000000000000000000000003200000000000000000000000000000000000000000000000000000000000000400000001010000000000000000000000000000000000000000000000000000000000000000000000000000000000000000000000000000000000000000000002800000000000000000000000311170ff7a88b357dbd4821fffaab01a000298400203000a0f04050e0102060d09080c0b0700000000000000000000000000000000000000000000000000000000000000000000000000000000000000000000006000000000000000000000000000000000000000000000000000000000000000100000000000000000000000000000000000000000000000000aa6217ca2ba85f60000000000000000000000000000000000000000000000000aa62956c26134400000000000000000000000000000000000000000000000000aa670fb197a05a40000000000000000000000000000000000000000000000000aa75c5ae11e00b00000000000000000000000000000000000000000000000000aa79ec2108407380000000000000000000000000000000000000000000000000aa7ab170296ddb00000000000000000000000000000000000000000000000000aa7ab170296ddb00000000000000000000000000000000000000000000000000aa8647eb99aa0480000000000000000000000000000000000000000000000000aa881ea5a1008000000000000000000000000000000000000000000000000000aa8953bacb7b8000000000000000000000000000000000000000000000000000aa8b155df87b4700000000000000000000000000000000000000000000000000aa8b426919e0a880000000000000000000000000000000000000000000000000aa8b81a3d7a80740000000000000000000000000000000000000000000000000aa8b81a3d7a80740000000000000000000000000000000000000000000000000aa8b81a3d7a80740000000000000000000000000000000000000000000000000aa8b81a3d7a807400000000000000000000000000000000000000000000000000000000000000060495279f8214af0267663be4ae7e650de6495fa1148a39cd05e757e5017a3655d7938398cb544d72a4ce0d15e0c437cbaa3b3a6f854d2c6216a07671ba36099aaf381413ff861b6c42ddcc723642ac622e8a700e403db253616be94d30888c56e5755aa6a33151691ca2ee6a9a2dd14dedddb390af9f7c4ef0c3723010ffc34d46f5844ab4a4d55cde2ed24e6124c7d77e5fa77906ad229885a3b49ab7c0868f5ab3bf49f0eb6c8692e5ee4954c44b31c58d92d2b7ab06b4cf3f232ea8a0952a0000000000000000000000000000000000000000000000000000000000000006545dbf22bea4fb305cac80b36bd7d5f22f74c2b25502a3ff3f476efd925b15d25d1e77d791c04d031f7150ac4f223bc5ee29e53355b74474584b2fd08c5846825d8d58f1cfcb31bc484e306a2790aaf3fa31275139add74003dcd5058b412ddf288f0ad9ac5d7b534ce5daf068029a3f84f96ed5420cc78abb6bb70d4eacf0bc41412fe3fdb7570c389fc02e4edf73bba935a051aa5d2fc84a4052b33862a78c033a690eccd881284ff656eab726336e27c5ea4ff9620a8e5abc77abada48a24",
            "debugEnable": true,
            "errorInfo": "",
            "eventCount": 3,
            "feeRecipient": "0x95222290dd7278aa3ddd389cc1e1d165cc4bafe5",
            "formatValue": "0",
            "gasLimit": 500000,
            "gasPrice": "3.23074025",
            "gasUsed": 177243,
            "intTxnCount": 6,
            "internalRevert": false,
            "internalRevertMessage": "",
            "isContractCreation": false,
            "isFlashloan": false,
            "maxFee": "4.236850749",
            "nonce": 21624,
            "overwritedBlockNumber": -1,
            "priorityFee": "0.97",
            "receiver": "0x1dec99616641c445d30849449ce7e0d44aca7a10",
            "revertMessage": "",
            "sender": "0xf1595809de873a363d1647853c37da5506ed8da6",
            "simulationEnable": true,
            "sourceTxnHash": "0x0b7e028fb81ab8697c59c8b5efe03d1a0e055b15e0ccc7bcda65fbb8d049f4e0",
            "status": true,
            "timestamp": "2024-07-12T03:04:23Z",
            "transactionFee": "0.00057262609413075",
            "txnHash": "0x0b7e028fb81ab8697c59c8b5efe03d1a0e055b15e0ccc7bcda65fbb8d049f4e0",
            "txnIndex": 47,
            "type": 2,
            "value": "0"
        },
        "fund_flow": [],
        "token_infos": [
            {
                "address": "0xc02aaa39b223fe8d0a0e5c4f27ead9083c756cc2",
                "decimals": 18
            },
            {
                "address": "0xeeeeeeeeeeeeeeeeeeeeeeeeeeeeeeeeeeeeeeee",
                "decimals": 18
            }
        ]
    },
    "address_label": {
        "labels": [
            {
                "address": "0xeeeeeeeeeeeeeeeeeeeeeeeeeeeeeeeeeeeeeeee",
                "label": "Ether"
            },
            {
                "address": "0x1dec99616641c445d30849449ce7e0d44aca7a10",
                "label": "AccessControlledOffchainAggregator"
            },
            {
                "address": "0x0000000000000000000000000000000000000001",
                "label": "Precompiled"
            },
            {
                "address": "0x0000000000000000000000000000000000000002",
                "label": "Precompiled"
            },
            {
                "address": "0x0000000000000000000000000000000000000003",
                "label": "Precompiled"
            },
            {
                "address": "0x0000000000000000000000000000000000000004",
                "label": "Precompiled"
            }
        ]
    },
    "trace": {
        "accountLabels": null,
        "dataMap": {
            "-1": {
                "invocation": {
                    "address": "0xf1595809de873a363d1647853c37da5506ed8da6",
                    "callData": "",
                    "decodedMethod": null,
                    "errorInfo": "",
                    "fromAddress": "",
                    "gasUsed": 0,
                    "id": -1,
                    "methodDecoded": false,
                    "operation": "",
                    "output": "",
                    "revert": false,
                    "revertMessage": "",
                    "selector": "",
                    "status": false,
                    "value": ""
                },
                "nodeType": 0
            },
            "0": {
                "invocation": {
                    "address": "0x1dec99616641c445d30849449ce7e0d44aca7a10",
                    "callData": "0x000000000000000000000000000000000000000000000000000000000000008000000000000000000000000000000000000000000000000000000000000003200000000000000000000000000000000000000000000000000000000000000400000001010000000000000000000000000000000000000000000000000000000000000000000000000000000000000000000000000000000000000000000002800000000000000000000000311170ff7a88b357dbd4821fffaab01a000298400203000a0f04050e0102060d09080c0b0700000000000000000000000000000000000000000000000000000000000000000000000000000000000000000000006000000000000000000000000000000000000000000000000000000000000000100000000000000000000000000000000000000000000000000aa6217ca2ba85f60000000000000000000000000000000000000000000000000aa62956c26134400000000000000000000000000000000000000000000000000aa670fb197a05a40000000000000000000000000000000000000000000000000aa75c5ae11e00b00000000000000000000000000000000000000000000000000aa79ec2108407380000000000000000000000000000000000000000000000000aa7ab170296ddb00000000000000000000000000000000000000000000000000aa7ab170296ddb00000000000000000000000000000000000000000000000000aa8647eb99aa0480000000000000000000000000000000000000000000000000aa881ea5a1008000000000000000000000000000000000000000000000000000aa8953bacb7b8000000000000000000000000000000000000000000000000000aa8b155df87b4700000000000000000000000000000000000000000000000000aa8b426919e0a880000000000000000000000000000000000000000000000000aa8b81a3d7a80740000000000000000000000000000000000000000000000000aa8b81a3d7a80740000000000000000000000000000000000000000000000000aa8b81a3d7a80740000000000000000000000000000000000000000000000000aa8b81a3d7a807400000000000000000000000000000000000000000000000000000000000000060495279f8214af0267663be4ae7e650de6495fa1148a39cd05e757e5017a3655d7938398cb544d72a4ce0d15e0c437cbaa3b3a6f854d2c6216a07671ba36099aaf381413ff861b6c42ddcc723642ac622e8a700e403db253616be94d30888c56e5755aa6a33151691ca2ee6a9a2dd14dedddb390af9f7c4ef0c3723010ffc34d46f5844ab4a4d55cde2ed24e6124c7d77e5fa77906ad229885a3b49ab7c0868f5ab3bf49f0eb6c8692e5ee4954c44b31c58d92d2b7ab06b4cf3f232ea8a0952a0000000000000000000000000000000000000000000000000000000000000006545dbf22bea4fb305cac80b36bd7d5f22f74c2b25502a3ff3f476efd925b15d25d1e77d791c04d031f7150ac4f223bc5ee29e53355b74474584b2fd08c5846825d8d58f1cfcb31bc484e306a2790aaf3fa31275139add74003dcd5058b412ddf288f0ad9ac5d7b534ce5daf068029a3f84f96ed5420cc78abb6bb70d4eacf0bc41412fe3fdb7570c389fc02e4edf73bba935a051aa5d2fc84a4052b33862a78c033a690eccd881284ff656eab726336e27c5ea4ff9620a8e5abc77abada48a24",
                    "decodedMethod": {
                        "callParams": [
                            {
                                "name": "_report",
                                "type": "bytes",
                                "value": "0x0000000000000000000000311170ff7a88b357dbd4821fffaab01a000298400203000a0f04050e0102060d09080c0b0700000000000000000000000000000000000000000000000000000000000000000000000000000000000000000000006000000000000000000000000000000000000000000000000000000000000000100000000000000000000000000000000000000000000000000aa6217ca2ba85f60000000000000000000000000000000000000000000000000aa62956c26134400000000000000000000000000000000000000000000000000aa670fb197a05a40000000000000000000000000000000000000000000000000aa75c5ae11e00b00000000000000000000000000000000000000000000000000aa79ec2108407380000000000000000000000000000000000000000000000000aa7ab170296ddb00000000000000000000000000000000000000000000000000aa7ab170296ddb00000000000000000000000000000000000000000000000000aa8647eb99aa0480000000000000000000000000000000000000000000000000aa881ea5a1008000000000000000000000000000000000000000000000000000aa8953bacb7b8000000000000000000000000000000000000000000000000000aa8b155df87b4700000000000000000000000000000000000000000000000000aa8b426919e0a880000000000000000000000000000000000000000000000000aa8b81a3d7a80740000000000000000000000000000000000000000000000000aa8b81a3d7a80740000000000000000000000000000000000000000000000000aa8b81a3d7a80740000000000000000000000000000000000000000000000000aa8b81a3d7a8074"
                            },
                            {
                                "name": "_rs",
                                "type": "bytes32[]",
                                "value": [
                                    "0x0495279f8214af0267663be4ae7e650de6495fa1148a39cd05e757e5017a3655",
                                    "0xd7938398cb544d72a4ce0d15e0c437cbaa3b3a6f854d2c6216a07671ba36099a",
                                    "0xaf381413ff861b6c42ddcc723642ac622e8a700e403db253616be94d30888c56",
                                    "0xe5755aa6a33151691ca2ee6a9a2dd14dedddb390af9f7c4ef0c3723010ffc34d",
                                    "0x46f5844ab4a4d55cde2ed24e6124c7d77e5fa77906ad229885a3b49ab7c0868f",
                                    "0x5ab3bf49f0eb6c8692e5ee4954c44b31c58d92d2b7ab06b4cf3f232ea8a0952a"
                                ]
                            },
                            {
                                "name": "_ss",
                                "type": "bytes32[]",
                                "value": [
                                    "0x545dbf22bea4fb305cac80b36bd7d5f22f74c2b25502a3ff3f476efd925b15d2",
                                    "0x5d1e77d791c04d031f7150ac4f223bc5ee29e53355b74474584b2fd08c584682",
                                    "0x5d8d58f1cfcb31bc484e306a2790aaf3fa31275139add74003dcd5058b412ddf",
                                    "0x288f0ad9ac5d7b534ce5daf068029a3f84f96ed5420cc78abb6bb70d4eacf0bc",
                                    "0x41412fe3fdb7570c389fc02e4edf73bba935a051aa5d2fc84a4052b33862a78c",
                                    "0x033a690eccd881284ff656eab726336e27c5ea4ff9620a8e5abc77abada48a24"
                                ]
                            },
                            {
                                "name": "_rawVs",
                                "type": "bytes32",
                                "value": "0x0000010100000000000000000000000000000000000000000000000000000000"
                            }
                        ],
                        "constructorArguments": "",
                        "name": "transmit",
                        "returnParams": [],
                        "signature": "transmit(bytes,bytes32[],bytes32[],bytes32)"
                    },
                    "errorInfo": "",
                    "fromAddress": "0xf1595809de873a363d1647853c37da5506ed8da6",
                    "gasUsed": 177243,
                    "id": 0,
                    "methodDecoded": true,
                    "operation": "CALL",
                    "output": "",
                    "revert": false,
                    "revertMessage": "",
                    "selector": "0xc9807539",
                    "status": true,
                    "value": "0"
                },
                "nodeType": 0
            },
            "1": {
                "invocation": {
                    "address": "0x0000000000000000000000000000000000000001",
                    "callData": "0x365c71f9b4d565a3d1e396de835b7252eb54ed567e2b97a6d4315727000000000000000000000000000000000000000000000000000000000000001b0495279f8214af0267663be4ae7e650de6495fa1148a39cd05e757e5017a3655545dbf22bea4fb305cac80b36bd7d5f22f74c2b25502a3ff3f476efd925b15d2",
                    "decodedMethod": {
                        "callParams": [
                            {
                                "name": "hash",
                                "type": "bytes32",
                                "value": "0xbd0ab591365c71f9b4d565a3d1e396de835b7252eb54ed567e2b97a6d4315727"
                            },
                            {
                                "name": "v",
                                "type": "uint256",
                                "value": "27"
                            },
                            {
                                "name": "r",
                                "type": "bytes32",
                                "value": "0x0495279f8214af0267663be4ae7e650de6495fa1148a39cd05e757e5017a3655"
                            },
                            {
                                "name": "s",
                                "type": "bytes32",
                                "value": "0x545dbf22bea4fb305cac80b36bd7d5f22f74c2b25502a3ff3f476efd925b15d2"
                            }
                        ],
                        "constructorArguments": "",
                        "name": "ecrecover",
                        "returnParams": [
                            {
                                "name": "",
                                "type": "address",
                                "value": "0x226f201897cef85764bc2b228f1ef5441bed53d5"
                            }
                        ],
                        "signature": "ecrecover(bytes32,uint256,bytes32,bytes32)"
                    },
                    "errorInfo": "",
                    "fromAddress": "0x1dec99616641c445d30849449ce7e0d44aca7a10",
                    "gasUsed": 3000,
                    "id": 1,
                    "methodDecoded": true,
                    "operation": "STATICCALL",
                    "output": "0x000000000000000000000000226f201897cef85764bc2b228f1ef5441bed53d5",
                    "revert": false,
                    "revertMessage": "",
                    "selector": "0xbd0ab591",
                    "status": true,
                    "value": "0"
                },
                "nodeType": 0
            },
            "2": {
                "invocation": {
                    "address": "0x0000000000000000000000000000000000000001",
                    "callData": "0x365c71f9b4d565a3d1e396de835b7252eb54ed567e2b97a6d4315727000000000000000000000000000000000000000000000000000000000000001bd7938398cb544d72a4ce0d15e0c437cbaa3b3a6f854d2c6216a07671ba36099a5d1e77d791c04d031f7150ac4f223bc5ee29e53355b74474584b2fd08c584682",
                    "decodedMethod": {
                        "callParams": [
                            {
                                "name": "hash",
                                "type": "bytes32",
                                "value": "0xbd0ab591365c71f9b4d565a3d1e396de835b7252eb54ed567e2b97a6d4315727"
                            },
                            {
                                "name": "v",
                                "type": "uint256",
                                "value": "27"
                            },
                            {
                                "name": "r",
                                "type": "bytes32",
                                "value": "0xd7938398cb544d72a4ce0d15e0c437cbaa3b3a6f854d2c6216a07671ba36099a"
                            },
                            {
                                "name": "s",
                                "type": "bytes32",
                                "value": "0x5d1e77d791c04d031f7150ac4f223bc5ee29e53355b74474584b2fd08c584682"
                            }
                        ],
                        "constructorArguments": "",
                        "name": "ecrecover",
                        "returnParams": [
                            {
                                "name": "",
                                "type": "address",
                                "value": "0x60befc4f14296e754acd5158374db5b3424427d2"
                            }
                        ],
                        "signature": "ecrecover(bytes32,uint256,bytes32,bytes32)"
                    },
                    "errorInfo": "",
                    "fromAddress": "0x1dec99616641c445d30849449ce7e0d44aca7a10",
                    "gasUsed": 3000,
                    "id": 2,
                    "methodDecoded": true,
                    "operation": "STATICCALL",
                    "output": "0x00000000000000000000000060befc4f14296e754acd5158374db5b3424427d2",
                    "revert": false,
                    "revertMessage": "",
                    "selector": "0xbd0ab591",
                    "status": true,
                    "value": "0"
                },
                "nodeType": 0
            },
            "3": {
                "invocation": {
                    "address": "0x0000000000000000000000000000000000000001",
                    "callData": "0x365c71f9b4d565a3d1e396de835b7252eb54ed567e2b97a6d4315727000000000000000000000000000000000000000000000000000000000000001caf381413ff861b6c42ddcc723642ac622e8a700e403db253616be94d30888c565d8d58f1cfcb31bc484e306a2790aaf3fa31275139add74003dcd5058b412ddf",
                    "decodedMethod": {
                        "callParams": [
                            {
                                "name": "hash",
                                "type": "bytes32",
                                "value": "0xbd0ab591365c71f9b4d565a3d1e396de835b7252eb54ed567e2b97a6d4315727"
                            },
                            {
                                "name": "v",
                                "type": "uint256",
                                "value": "28"
                            },
                            {
                                "name": "r",
                                "type": "bytes32",
                                "value": "0xaf381413ff861b6c42ddcc723642ac622e8a700e403db253616be94d30888c56"
                            },
                            {
                                "name": "s",
                                "type": "bytes32",
                                "value": "0x5d8d58f1cfcb31bc484e306a2790aaf3fa31275139add74003dcd5058b412ddf"
                            }
                        ],
                        "constructorArguments": "",
                        "name": "ecrecover",
                        "returnParams": [
                            {
                                "name": "",
                                "type": "address",
                                "value": "0x50cf2ffe6d999cb08787bb7effdd536ccedd690f"
                            }
                        ],
                        "signature": "ecrecover(bytes32,uint256,bytes32,bytes32)"
                    },
                    "errorInfo": "",
                    "fromAddress": "0x1dec99616641c445d30849449ce7e0d44aca7a10",
                    "gasUsed": 3000,
                    "id": 3,
                    "methodDecoded": true,
                    "operation": "STATICCALL",
                    "output": "0x00000000000000000000000050cf2ffe6d999cb08787bb7effdd536ccedd690f",
                    "revert": false,
                    "revertMessage": "",
                    "selector": "0xbd0ab591",
                    "status": true,
                    "value": "0"
                },
                "nodeType": 0
            },
            "4": {
                "invocation": {
                    "address": "0x0000000000000000000000000000000000000001",
                    "callData": "0x365c71f9b4d565a3d1e396de835b7252eb54ed567e2b97a6d4315727000000000000000000000000000000000000000000000000000000000000001ce5755aa6a33151691ca2ee6a9a2dd14dedddb390af9f7c4ef0c3723010ffc34d288f0ad9ac5d7b534ce5daf068029a3f84f96ed5420cc78abb6bb70d4eacf0bc",
                    "decodedMethod": {
                        "callParams": [
                            {
                                "name": "hash",
                                "type": "bytes32",
                                "value": "0xbd0ab591365c71f9b4d565a3d1e396de835b7252eb54ed567e2b97a6d4315727"
                            },
                            {
                                "name": "v",
                                "type": "uint256",
                                "value": "28"
                            },
                            {
                                "name": "r",
                                "type": "bytes32",
                                "value": "0xe5755aa6a33151691ca2ee6a9a2dd14dedddb390af9f7c4ef0c3723010ffc34d"
                            },
                            {
                                "name": "s",
                                "type": "bytes32",
                                "value": "0x288f0ad9ac5d7b534ce5daf068029a3f84f96ed5420cc78abb6bb70d4eacf0bc"
                            }
                        ],
                        "constructorArguments": "",
                        "name": "ecrecover",
                        "returnParams": [
                            {
                                "name": "",
                                "type": "address",
                                "value": "0x514808398ae7b949d9b4c61ede86b43642ddfc8b"
                            }
                        ],
                        "signature": "ecrecover(bytes32,uint256,bytes32,bytes32)"
                    },
                    "errorInfo": "",
                    "fromAddress": "0x1dec99616641c445d30849449ce7e0d44aca7a10",
                    "gasUsed": 3000,
                    "id": 4,
                    "methodDecoded": true,
                    "operation": "STATICCALL",
                    "output": "0x000000000000000000000000514808398ae7b949d9b4c61ede86b43642ddfc8b",
                    "revert": false,
                    "revertMessage": "",
                    "selector": "0xbd0ab591",
                    "status": true,
                    "value": "0"
                },
                "nodeType": 0
            },
            "5": {
                "invocation": {
                    "address": "0x0000000000000000000000000000000000000001",
                    "callData": "0x365c71f9b4d565a3d1e396de835b7252eb54ed567e2b97a6d4315727000000000000000000000000000000000000000000000000000000000000001b46f5844ab4a4d55cde2ed24e6124c7d77e5fa77906ad229885a3b49ab7c0868f41412fe3fdb7570c389fc02e4edf73bba935a051aa5d2fc84a4052b33862a78c",
                    "decodedMethod": {
                        "callParams": [
                            {
                                "name": "hash",
                                "type": "bytes32",
                                "value": "0xbd0ab591365c71f9b4d565a3d1e396de835b7252eb54ed567e2b97a6d4315727"
                            },
                            {
                                "name": "v",
                                "type": "uint256",
                                "value": "27"
                            },
                            {
                                "name": "r",
                                "type": "bytes32",
                                "value": "0x46f5844ab4a4d55cde2ed24e6124c7d77e5fa77906ad229885a3b49ab7c0868f"
                            },
                            {
                                "name": "s",
                                "type": "bytes32",
                                "value": "0x41412fe3fdb7570c389fc02e4edf73bba935a051aa5d2fc84a4052b33862a78c"
                            }
                        ],
                        "constructorArguments": "",
                        "name": "ecrecover",
                        "returnParams": [
                            {
                                "name": "",
                                "type": "address",
                                "value": "0x9c95d50c8393bda10ac2bf92335826c7c88d8678"
                            }
                        ],
                        "signature": "ecrecover(bytes32,uint256,bytes32,bytes32)"
                    },
                    "errorInfo": "",
                    "fromAddress": "0x1dec99616641c445d30849449ce7e0d44aca7a10",
                    "gasUsed": 3000,
                    "id": 5,
                    "methodDecoded": true,
                    "operation": "STATICCALL",
                    "output": "0x0000000000000000000000009c95d50c8393bda10ac2bf92335826c7c88d8678",
                    "revert": false,
                    "revertMessage": "",
                    "selector": "0xbd0ab591",
                    "status": true,
                    "value": "0"
                },
                "nodeType": 0
            },
            "6": {
                "invocation": {
                    "address": "0x0000000000000000000000000000000000000001",
                    "callData": "0x365c71f9b4d565a3d1e396de835b7252eb54ed567e2b97a6d4315727000000000000000000000000000000000000000000000000000000000000001b5ab3bf49f0eb6c8692e5ee4954c44b31c58d92d2b7ab06b4cf3f232ea8a0952a033a690eccd881284ff656eab726336e27c5ea4ff9620a8e5abc77abada48a24",
                    "decodedMethod": {
                        "callParams": [
                            {
                                "name": "hash",
                                "type": "bytes32",
                                "value": "0xbd0ab591365c71f9b4d565a3d1e396de835b7252eb54ed567e2b97a6d4315727"
                            },
                            {
                                "name": "v",
                                "type": "uint256",
                                "value": "27"
                            },
                            {
                                "name": "r",
                                "type": "bytes32",
                                "value": "0x5ab3bf49f0eb6c8692e5ee4954c44b31c58d92d2b7ab06b4cf3f232ea8a0952a"
                            },
                            {
                                "name": "s",
                                "type": "bytes32",
                                "value": "0x033a690eccd881284ff656eab726336e27c5ea4ff9620a8e5abc77abada48a24"
                            }
                        ],
                        "constructorArguments": "",
                        "name": "ecrecover",
                        "returnParams": [
                            {
                                "name": "",
                                "type": "address",
                                "value": "0x3153fd079c58b94a81a61138c2e485763da8b865"
                            }
                        ],
                        "signature": "ecrecover(bytes32,uint256,bytes32,bytes32)"
                    },
                    "errorInfo": "",
                    "fromAddress": "0x1dec99616641c445d30849449ce7e0d44aca7a10",
                    "gasUsed": 3000,
                    "id": 6,
                    "methodDecoded": true,
                    "operation": "STATICCALL",
                    "output": "0x0000000000000000000000003153fd079c58b94a81a61138c2e485763da8b865",
                    "revert": false,
                    "revertMessage": "",
                    "selector": "0xbd0ab591",
                    "status": true,
                    "value": "0"
                },
                "nodeType": 0
            },
            "7": {
                "event": {
                    "contract": "0x1dec99616641c445d30849449ce7e0d44aca7a10",
                    "decodedLog": {
                        "name": "NewTransmission",
                        "params": [
                            {
                                "name": "aggregatorRoundId",
                                "type": "uint32",
                                "value": "1,071"
                            },
                            {
                                "name": "answer",
                                "type": "int192",
                                "value": "768,006,580,000,000,000"
                            },
                            {
                                "name": "transmitter",
                                "type": "address",
                                "value": "0xf1595809de873a363d1647853c37da5506ed8da6"
                            },
                            {
                                "name": "observations",
                                "type": "int192[]",
                                "value": [
                                    "767,337,605,703,042,550",
                                    "767,346,239,118,324,800",
                                    "767,425,010,279,777,700",
                                    "767,683,806,883,610,800",
                                    "767,756,817,827,891,000",
                                    "767,770,376,805,998,000",
                                    "767,770,376,805,998,000",
                                    "767,974,231,909,245,000",
                                    "768,006,580,000,000,000",
                                    "768,027,820,000,000,000",
                                    "768,058,718,847,218,800",
                                    "768,061,814,211,480,200",
                                    "768,066,159,306,768,500",
                                    "768,066,159,306,768,500",
                                    "768,066,159,306,768,500",
                                    "768,066,159,306,768,500"
                                ]
                            },
                            {
                                "name": "observers",
                                "type": "bytes",
                                "value": "0x03000a0f04050e0102060d09080c0b07"
                            },
                            {
                                "name": "rawReportContext",
                                "type": "bytes32",
                                "value": "0x0000000000000000000000311170ff7a88b357dbd4821fffaab01a0002984002"
                            }
                        ],
                        "signature": "NewTransmission(uint32,int192,address,int192[],bytes,bytes32)"
                    },
                    "id": 7,
                    "logData": "0x0000000000000000000000000000000000000000000000000aa881ea5a100800000000000000000000000000f1595809de873a363d1647853c37da5506ed8da600000000000000000000000000000000000000000000000000000000000000a000000000000000000000000000000000000000000000000000000000000002c00000000000000000000000311170ff7a88b357dbd4821fffaab01a000298400200000000000000000000000000000000000000000000000000000000000000100000000000000000000000000000000000000000000000000aa6217ca2ba85f60000000000000000000000000000000000000000000000000aa62956c26134400000000000000000000000000000000000000000000000000aa670fb197a05a40000000000000000000000000000000000000000000000000aa75c5ae11e00b00000000000000000000000000000000000000000000000000aa79ec2108407380000000000000000000000000000000000000000000000000aa7ab170296ddb00000000000000000000000000000000000000000000000000aa7ab170296ddb00000000000000000000000000000000000000000000000000aa8647eb99aa0480000000000000000000000000000000000000000000000000aa881ea5a1008000000000000000000000000000000000000000000000000000aa8953bacb7b8000000000000000000000000000000000000000000000000000aa8b155df87b4700000000000000000000000000000000000000000000000000aa8b426919e0a880000000000000000000000000000000000000000000000000aa8b81a3d7a80740000000000000000000000000000000000000000000000000aa8b81a3d7a80740000000000000000000000000000000000000000000000000aa8b81a3d7a80740000000000000000000000000000000000000000000000000aa8b81a3d7a8074000000000000000000000000000000000000000000000000000000000000001003000a0f04050e0102060d09080c0b0700000000000000000000000000000000",
                    "logDecoded": true,
                    "operation": "EVENT",
                    "revert": false,
                    "status": true,
                    "topics": [
                        "0xf6a97944f31ea060dfde0566e4167c1a1082551e64b60ecb14d599a9d023d451",
                        "0x000000000000000000000000000000000000000000000000000000000000042f"
                    ]
                },
                "nodeType": 1
            },
            "8": {
                "event": {
                    "contract": "0x1dec99616641c445d30849449ce7e0d44aca7a10",
                    "decodedLog": {
                        "name": "NewRound",
                        "params": [
                            {
                                "name": "roundId",
                                "type": "uint256",
                                "value": "1,071"
                            },
                            {
                                "name": "startedBy",
                                "type": "address",
                                "value": "0x0000000000000000000000000000000000000000"
                            },
                            {
                                "name": "startedAt",
                                "type": "uint256",
                                "value": "1,720,753,463"
                            }
                        ],
                        "signature": "NewRound(uint256,address,uint256)"
                    },
                    "id": 8,
                    "logData": "0x0000000000000000000000000000000000000000000000000000000066909d37",
                    "logDecoded": true,
                    "operation": "EVENT",
                    "revert": false,
                    "status": true,
                    "topics": [
                        "0x0109fc6f55cf40689f02fbaad7af7fe7bbac8a3d2186600afc7d3e10cac60271",
                        "0x000000000000000000000000000000000000000000000000000000000000042f",
                        "0x0000000000000000000000000000000000000000000000000000000000000000"
                    ]
                },
                "nodeType": 1
            },
            "9": {
                "event": {
                    "contract": "0x1dec99616641c445d30849449ce7e0d44aca7a10",
                    "decodedLog": {
                        "name": "AnswerUpdated",
                        "params": [
                            {
                                "name": "current",
                                "type": "int256",
                                "value": "768,006,580,000,000,000"
                            },
                            {
                                "name": "roundId",
                                "type": "uint256",
                                "value": "1,071"
                            },
                            {
                                "name": "updatedAt",
                                "type": "uint256",
                                "value": "1,720,753,463"
                            }
                        ],
                        "signature": "AnswerUpdated(int256,uint256,uint256)"
                    },
                    "id": 9,
                    "logData": "0x0000000000000000000000000000000000000000000000000000000066909d37",
                    "logDecoded": true,
                    "operation": "EVENT",
                    "revert": false,
                    "status": true,
                    "topics": [
                        "0x0559884fd3a460db3073b7fc896cc77986f16e378210ded43186175bf646fc5f",
                        "0x0000000000000000000000000000000000000000000000000aa881ea5a100800",
                        "0x000000000000000000000000000000000000000000000000000000000000042f"
                    ]
                },
                "nodeType": 1
            }
        },
        "gasFlame": [
            {
                "children": [
                    {
                        "children": [
                            {
                                "children": [],
                                "depth": 0,
                                "name": "Initial Gas",
                                "value": 32728
                            },
                            {
                                "children": [
                                    {
                                        "children": [],
                                        "depth": 1,
                                        "name": "ecrecover",
                                        "value": 3000
                                    },
                                    {
                                        "children": [],
                                        "depth": 1,
                                        "name": "ecrecover",
                                        "value": 3000
                                    },
                                    {
                                        "children": [],
                                        "depth": 1,
                                        "name": "ecrecover",
                                        "value": 3000
                                    },
                                    {
                                        "children": [],
                                        "depth": 1,
                                        "name": "ecrecover",
                                        "value": 3000
                                    },
                                    {
                                        "children": [],
                                        "depth": 1,
                                        "name": "ecrecover",
                                        "value": 3000
                                    },
                                    {
                                        "children": [],
                                        "depth": 1,
                                        "name": "ecrecover",
                                        "value": 3000
                                    }
                                ],
                                "depth": 0,
                                "name": "Executed Gas",
                                "value": 144515
                            }
                        ],
                        "depth": -1,
                        "name": "Actual Gas Used",
                        "value": 177243
                    },
                    {
                        "children": [],
                        "depth": -1,
                        "name": "Refunded Gas",
                        "value": 0
                    }
                ],
                "depth": -2,
                "name": "Total Gas",
                "value": 177243
            }
        ],
        "isConfirmed": true,
        "mainTrace": [
            {
                "children": [
                    {
                        "children": [
                            {
                                "children": [],
                                "depth": 1,
                                "id": 1,
                                "order": 1
                            },
                            {
                                "children": [],
                                "depth": 1,
                                "id": 2,
                                "order": 2
                            },
                            {
                                "children": [],
                                "depth": 1,
                                "id": 3,
                                "order": 3
                            },
                            {
                                "children": [],
                                "depth": 1,
                                "id": 4,
                                "order": 4
                            },
                            {
                                "children": [],
                                "depth": 1,
                                "id": 5,
                                "order": 5
                            },
                            {
                                "children": [],
                                "depth": 1,
                                "id": 6,
                                "order": 6
                            },
                            {
                                "children": [],
                                "depth": 1,
                                "id": 7,
                                "order": 7
                            },
                            {
                                "children": [],
                                "depth": 1,
                                "id": 8,
                                "order": 8
                            },
                            {
                                "children": [],
                                "depth": 1,
                                "id": 9,
                                "order": 9
                            }
                        ],
                        "depth": 0,
                        "id": 0,
                        "order": 0
                    }
                ],
                "depth": -1,
                "id": -1,
                "order": -1
            }
        ],
        "mainTraceNodeCount": 10,
        "parentIdMap": {
            "0": -1,
            "1": 0,
            "2": 0,
            "3": 0,
            "4": 0,
            "5": 0,
            "6": 0,
            "7": 0,
            "8": 0,
            "9": 0
        },
        "tidyTrace": [
            {
                "children": [
                    {
                        "children": [
                            {
                                "children": [],
                                "depth": 1,
                                "id": 7,
                                "order": 7
                            },
                            {
                                "children": [],
                                "depth": 1,
                                "id": 8,
                                "order": 8
                            },
                            {
                                "children": [],
                                "depth": 1,
                                "id": 9,
                                "order": 9
                            }
                        ],
                        "depth": 0,
                        "id": 0,
                        "order": 0
                    }
                ],
                "depth": -1,
                "id": -1,
                "order": -1
            }
        ],
        "tidyTraceNodeCount": 4
    },
    "state_change": {
        "stateChanges": [
            {
                "address": "0x1dec99616641c445d30849449ce7e0d44aca7a10",
                "erc": "",
                "slots": [
                    {
                        "current": "0x0000000066909d37000000000000000000000000000000000aa881ea5a100800",
                        "key": "0x0ca3fa1e108cc43daf8045986e4ce9f8d8a1cf7fe21cda4855fcd18ea605126c",
                        "prev": "0x0000000000000000000000000000000000000000000000000000000000000000"
                    },
                    {
                        "current": "0x0000000000000000042f050002984002311170ff7a88b357dbd4821fffaab01a",
                        "key": "0x000000000000000000000000000000000000000000000000000000000000002b",
                        "prev": "0x0000000000000000042e050002965205311170ff7a88b357dbd4821fffaab01a"
                    },
                    {
                        "current": "0x0019001600190019001900190019001900190019001900190019001900190019",
                        "key": "0x0000000000000000000000000000000000000000000000000000000000000005",
                        "prev": "0x0018001500180018001800180018001800180018001800180018001800180018"
                    },
                    {
                        "current": "0x00000000000000000000000000000000000000000000000019cae317cb4a73b1",
                        "key": "0x0000000000000000000000000000000000000000000000000000000000000014",
                        "prev": "0x0000000000000000000000000000000000000000000000000000000000000001"
                    }
                ],
                "storageVariables": [
                    {
                        "name": "s_transmissions",
                        "type": "mapping(uint32 => struct OffchainAggregator.Transmission)",
                        "value": {
                            "pairs": [
                                {
                                    "key": "1071",
                                    "value": {
                                        "fields": [
                                            {
                                                "name": "answer",
                                                "type": "int192",
                                                "value": {
                                                    "current": "768006580000000000",
                                                    "prev": "0",
                                                    "typeTag": 1
                                                }
                                            },
                                            {
                                                "name": "timestamp",
                                                "type": "uint64",
                                                "value": {
                                                    "current": "1720753463",
                                                    "prev": "0",
                                                    "typeTag": 1
                                                }
                                            }
                                        ],
                                        "typeTag": 3
                                    }
                                }
                            ],
                            "typeTag": 4
                        }
                    },
                    {
                        "name": "s_hotVars",
                        "type": "struct OffchainAggregator.HotVars",
                        "value": {
                            "fields": [
                                {
                                    "name": "latestConfigDigest",
                                    "type": "bytes16",
                                    "value": {
                                        "current": "0x311170ff7a88b357dbd4821fffaab01a",
                                        "prev": "0x311170ff7a88b357dbd4821fffaab01a",
                                        "typeTag": 1
                                    }
                                },
                                {
                                    "name": "latestEpochAndRound",
                                    "type": "uint40",
                                    "value": {
                                        "current": "43532290",
                                        "prev": "43405829",
                                        "typeTag": 1
                                    }
                                },
                                {
                                    "name": "threshold",
                                    "type": "uint8",
                                    "value": {
                                        "current": "5",
                                        "prev": "5",
                                        "typeTag": 1
                                    }
                                },
                                {
                                    "name": "latestAggregatorRoundId",
                                    "type": "uint32",
                                    "value": {
                                        "current": "1071",
                                        "prev": "1070",
                                        "typeTag": 1
                                    }
                                }
                            ],
                            "typeTag": 3
                        }
                    },
                    {
                        "name": "s_oracleObservationsCounts",
                        "type": "uint16[31]",
                        "value": {
                            "elemType": "uint16",
                            "elems": [
                                {
                                    "index": 0,
                                    "value": {
                                        "current": "25",
                                        "prev": "24",
                                        "typeTag": 1
                                    }
                                },
                                {
                                    "index": 1,
                                    "value": {
                                        "current": "25",
                                        "prev": "24",
                                        "typeTag": 1
                                    }
                                },
                                {
                                    "index": 2,
                                    "value": {
                                        "current": "25",
                                        "prev": "24",
                                        "typeTag": 1
                                    }
                                },
                                {
                                    "index": 3,
                                    "value": {
                                        "current": "25",
                                        "prev": "24",
                                        "typeTag": 1
                                    }
                                },
                                {
                                    "index": 4,
                                    "value": {
                                        "current": "25",
                                        "prev": "24",
                                        "typeTag": 1
                                    }
                                },
                                {
                                    "index": 5,
                                    "value": {
                                        "current": "25",
                                        "prev": "24",
                                        "typeTag": 1
                                    }
                                },
                                {
                                    "index": 6,
                                    "value": {
                                        "current": "25",
                                        "prev": "24",
                                        "typeTag": 1
                                    }
                                },
                                {
                                    "index": 7,
                                    "value": {
                                        "current": "25",
                                        "prev": "24",
                                        "typeTag": 1
                                    }
                                },
                                {
                                    "index": 8,
                                    "value": {
                                        "current": "25",
                                        "prev": "24",
                                        "typeTag": 1
                                    }
                                },
                                {
                                    "index": 9,
                                    "value": {
                                        "current": "25",
                                        "prev": "24",
                                        "typeTag": 1
                                    }
                                },
                                {
                                    "index": 10,
                                    "value": {
                                        "current": "25",
                                        "prev": "24",
                                        "typeTag": 1
                                    }
                                },
                                {
                                    "index": 11,
                                    "value": {
                                        "current": "25",
                                        "prev": "24",
                                        "typeTag": 1
                                    }
                                },
                                {
                                    "index": 12,
                                    "value": {
                                        "current": "25",
                                        "prev": "24",
                                        "typeTag": 1
                                    }
                                },
                                {
                                    "index": 13,
                                    "value": {
                                        "current": "25",
                                        "prev": "24",
                                        "typeTag": 1
                                    }
                                },
                                {
                                    "index": 14,
                                    "value": {
                                        "current": "22",
                                        "prev": "21",
                                        "typeTag": 1
                                    }
                                }
                            ],
                            "typeTag": 2
                        }
                    }
                ]
            }
        ]
    }
}