{
    "balance_change": {
        "balanceChanges": [
            {
                "account": "0xdf947f9648fcfb9bfd5bb7764a97ba54fc43c735",
                "assets": [
                    {
                        "address": "0xa0b86991c6218b36c1d19d4a2e9eb0ce3606eb48",
                        "amount": "0.712279",
                        "iconUrl": "https://assets.blocksec.com/icon/0347a86cc07dbd03fdc5db01a4e5ac7e1217f90e0b6e4bb0f75cbcca09160989.png",
                        "isERC1155": false,
                        "isERC721": false,
                        "sign": false,
                        "value": "0.71299127899999992155"
                    },
                    {
                        "address": "0xeeeeeeeeeeeeeeeeeeeeeeeeeeeeeeeeeeeeeeee",
                        "amount": "0.000598456834150845",
                        "iconUrl": "https://assets.blocksec.com/image/1663669189317-3.png",
                        "isERC1155": false,
                        "isERC721": false,
                        "sign": true,
                        "value": "0.7087464441747179782"
                    }
                ]
            },
            {
                "account": "0xaf0b0000f0210d0f421f0009c72406703b50506b",
                "assets": [
                    {
                        "address": "0xc02aaa39b223fe8d0a0e5c4f27ead9083c756cc2",
                        "amount": "0.000603358709143687",
                        "iconUrl": "https://assets.blocksec.com/icon/f1cb2d02c471d545bbc7722daf3277fd852d98e63d118771af7047bd8256c516.png",
                        "isERC1155": false,
                        "isERC721": false,
                        "sign": false,
                        "value": "0.71455168560003897804"
                    },
                    {
                        "address": "0xa0b86991c6218b36c1d19d4a2e9eb0ce3606eb48",
                        "amount": "0.712279",
                        "iconUrl": "https://assets.blocksec.com/icon/0347a86cc07dbd03fdc5db01a4e5ac7e1217f90e0b6e4bb0f75cbcca09160989.png",
                        "isERC1155": false,
                        "isERC721": false,
                        "sign": true,
                        "value": "0.71299127899999992155"
                    }
                ]
            },
            {
                "account": "0xc02aaa39b223fe8d0a0e5c4f27ead9083c756cc2",
                "assets": [
                    {
                        "address": "0xeeeeeeeeeeeeeeeeeeeeeeeeeeeeeeeeeeeeeeee",
                        "amount": "0.000602936653486247",
                        "iconUrl": "https://assets.blocksec.com/image/1663669189317-3.png",
                        "isERC1155": false,
                        "isERC721": false,
                        "sign": false,
                        "value": "0.7140518493735149781"
                    },
                    {
                        "address": "0xc02aaa39b223fe8d0a0e5c4f27ead9083c756cc2",
                        "amount": "0.000602936653486247",
                        "iconUrl": "https://assets.blocksec.com/icon/f1cb2d02c471d545bbc7722daf3277fd852d98e63d118771af7047bd8256c516.png",
                        "isERC1155": false,
                        "isERC721": false,
                        "sign": true,
                        "value": "0.7140518493735149781"
                    }
                ]
            },
            {
                "account": "0xe2e7ae67e7ee6d4d90dfef945ab6de6a14db4c17",
                "assets": [
                    {
                        "address": "0xc02aaa39b223fe8d0a0e5c4f27ead9083c756cc2",
                        "amount": "0.00000042205565744",
                        "iconUrl": "https://assets.blocksec.com/icon/f1cb2d02c471d545bbc7722daf3277fd852d98e63d118771af7047bd8256c516.png",
                        "isERC1155": false,
                        "isERC721": false,
                        "sign": true,
                        "value": "0.00049983629450224598464"
                    }
                ]
            },
            {
                "account": "0xf326e4de8f66a0bdc0970b79e0924e33c79f1915",
                "assets": [
                    {
                        "address": "0xeeeeeeeeeeeeeeeeeeeeeeeeeeeeeeeeeeeeeeee",
                        "amount": "0.000004479819335402",
                        "iconUrl": "https://assets.blocksec.com/image/1663669189317-3.png",
                        "isERC1155": false,
                        "isERC721": false,
                        "sign": true,
                        "value": "0.005305405240247149837"
                    }
                ]
            }
        ]
    },
    "profile": {
        "basic_info": {
            "baseFee": "10.322556345",
            "blockNumber": 16045471,
            "callData": "0x5f5755290000000000000000000000000000000000000000000000000000000000000080000000000000000000000000a0b86991c6218b36c1d19d4a2e9eb0ce3606eb4800000000000000000000000000000000000000000000000000000000000ade5700000000000000000000000000000000000000000000000000000000000000c00000000000000000000000000000000000000000000000000000000000000017616972737761704c696768743346656544796e616d696300000000000000000000000000000000000000000000000000000000000000000000000000000001a0000000000000000000000000000000000000000000000000000001846651acda0000000000000000000000000000000000000000000000000000000063806d26000000000000000000000000af0b0000f0210d0f421f0009c72406703b50506b00000000000000000000000000000000000000000000000000000000000000000000000000000000000000000000000000000000000000000002245e210d98a7000000000000000000000000a0b86991c6218b36c1d19d4a2e9eb0ce3606eb4800000000000000000000000000000000000000000000000000000000000ade57000000000000000000000000000000000000000000000000000000000000001b6819512d79dec80ee8aab771b55ca4ee3aa76e01a7e9466ee4f4c2e33519effb692bd799361f7dd738494e35a6bac6ac87589a94acdc6b4cd765605c19865880000000000000000000000000000000000000000000000000000004130a0a46ea000000000000000000000000f326e4de8f66a0bdc0970b79e0924e33c79f19150000000000000000000000000000000000000000000000000000000000000001fa",
            "debugEnable": true,
            "errorInfo": "",
            "eventCount": 9,
            "feeRecipient": "0x690b9a9e9aa1c9db991c7721a92d351db4fac990",
            "formatValue": "0",
            "gasLimit": 256365,
            "gasPrice": "11.532558545",
            "gasUsed": 197188,
            "intTxnCount": 22,
            "internalRevert": false,
            "internalRevertMessage": "",
            "isContractCreation": false,
            "isFlashloan": false,
            "maxFee": "12.379257812",
            "nonce": 14,
            "overwritedBlockNumber": -1,
            "priorityFee": "1.2100022",
            "receiver": "0x881d40237659c251811cec9c364ef91dc08d300c",
            "revertMessage": "",
            "sender": "0xdf947f9648fcfb9bfd5bb7764a97ba54fc43c735",
            "simulationEnable": true,
            "sourceTxnHash": "0x0b38133e2c427dce7c56bea0b7d5694d11544e2566b75c94cf0886b250696243",
            "status": true,
            "timestamp": "2022-11-25T07:20:35Z",
            "transactionFee": "0.00227408215437146",
            "txnHash": "0x0b38133e2c427dce7c56bea0b7d5694d11544e2566b75c94cf0886b250696243",
            "txnIndex": 3,
            "type": 2,
            "value": "0"
        },
        "fund_flow": [
            {
                "amount": "0.712279",
                "from": "0xdf947f9648fcfb9bfd5bb7764a97ba54fc43c735",
                "id": 1,
                "isERC1155": false,
                "isERC721": false,
                "isReverted": false,
                "order": 1,
                "to": "0x74de5d4fcbf63e00296fd95d33236b9794016631",
                "token": "0xa0b86991c6218b36c1d19d4a2e9eb0ce3606eb48"
            },
            {
                "amount": "0.712279",
                "from": "0x74de5d4fcbf63e00296fd95d33236b9794016631",
                "id": 2,
                "isERC1155": false,
                "isERC721": false,
                "isReverted": false,
                "order": 2,
                "to": "0xaf0b0000f0210d0f421f0009c72406703b50506b",
                "token": "0xa0b86991c6218b36c1d19d4a2e9eb0ce3606eb48"
            },
            {
                "amount": "0.000602936653486247",
                "from": "0xaf0b0000f0210d0f421f0009c72406703b50506b",
                "id": 3,
                "isERC1155": false,
                "isERC721": false,
                "isReverted": false,
                "order": 3,
                "to": "0x74de5d4fcbf63e00296fd95d33236b9794016631",
                "token": "0xc02aaa39b223fe8d0a0e5c4f27ead9083c756cc2"
            },
            {
                "amount": "0.00000042205565744",
                "from": "0xaf0b0000f0210d0f421f0009c72406703b50506b",
                "id": 4,
                "isERC1155": false,
                "isERC721": false,
                "isReverted": false,
                "order": 4,
                "to": "0xe2e7ae67e7ee6d4d90dfef945ab6de6a14db4c17",
                "token": "0xc02aaa39b223fe8d0a0e5c4f27ead9083c756cc2"
            },
            {
                "amount": "0.000602936653486247",
                "from": "0xc02aaa39b223fe8d0a0e5c4f27ead9083c756cc2",
                "id": 5,
                "isERC1155": false,
                "isERC721": false,
                "isReverted": false,
                "order": 5,
                "to": "0x74de5d4fcbf63e00296fd95d33236b9794016631",
                "token": "0xeeeeeeeeeeeeeeeeeeeeeeeeeeeeeeeeeeeeeeee"
            },
            {
                "amount": "0.000602936653486247",
                "from": "0x74de5d4fcbf63e00296fd95d33236b9794016631",
                "id": 6,
                "isERC1155": false,
                "isERC721": false,
                "isReverted": false,
                "order": 6,
                "to": "0xc02aaa39b223fe8d0a0e5c4f27ead9083c756cc2",
                "token": "0xc02aaa39b223fe8d0a0e5c4f27ead9083c756cc2"
            },
            {
                "amount": "0.000004479819335402",
                "from": "0x74de5d4fcbf63e00296fd95d33236b9794016631",
                "id": 7,
                "isERC1155": false,
                "isERC721": false,
                "isReverted": false,
                "order": 7,
                "to": "0xf326e4de8f66a0bdc0970b79e0924e33c79f1915",
                "token": "0xeeeeeeeeeeeeeeeeeeeeeeeeeeeeeeeeeeeeeeee"
            },
            {
                "amount": "0.000598456834150845",
                "from": "0x74de5d4fcbf63e00296fd95d33236b9794016631",
                "id": 8,
                "isERC1155": false,
                "isERC721": false,
                "isReverted": false,
                "order": 8,
                "to": "0xdf947f9648fcfb9bfd5bb7764a97ba54fc43c735",
                "token": "0xeeeeeeeeeeeeeeeeeeeeeeeeeeeeeeeeeeeeeeee"
            }
        ],
        "token_infos": [
            {
                "address": "0xa0b86991c6218b36c1d19d4a2e9eb0ce3606eb48",
                "decimals": 6
            },
            {
                "address": "0xc02aaa39b223fe8d0a0e5c4f27ead9083c756cc2",
                "decimals": 18
            },
            {
                "address": "0xeeeeeeeeeeeeeeeeeeeeeeeeeeeeeeeeeeeeeeee",
                "decimals": 18
            }
        ]
    },
    "address_label": {
        "labels": [
            {
                "address": "0xa2327a938febf5fec13bacfb16ae10ecbc4cbdcf",
                "label": "FiatTokenV2_1"
            },
            {
                "address": "0x74de5d4fcbf63e00296fd95d33236b9794016631",
                "label": "MetaMask: Swaps Spender"
            },
            {
                "address": "0xa0b86991c6218b36c1d19d4a2e9eb0ce3606eb48",
                "label": "Circle: USDC Token"
            },
            {
                "address": "0xeeeeeeeeeeeeeeeeeeeeeeeeeeeeeeeeeeeeeeee",
                "label": "Ether"
            },
            {
                "address": "0x522d6f36c95a1b6509a14272c17747bbb582f2a6",
                "label": "Swap"
            },
            {
                "address": "0xf326e4de8f66a0bdc0970b79e0924e33c79f1915",
                "label": "MetaMask: DS Proxy"
            },
            {
                "address": "0x881d40237659c251811cec9c364ef91dc08d300c",
                "label": "Metamask: Swap Router"
            },
            {
                "address": "0x0000000000000000000000000000000000000001",
                "label": "Precompiled"
            },
            {
                "address": "0x0000000000000000000000000000000000000004",
                "label": "Precompiled"
            },
            {
                "address": "0xc02aaa39b223fe8d0a0e5c4f27ead9083c756cc2",
                "label": "Wrapped Ether (WETH)"
            },
            {
                "address": "0xe2e7ae67e7ee6d4d90dfef945ab6de6a14db4c17",
                "label": "Pool"
            },
            {
                "address": "0xd9db270c1b5e3bd161e8c8503c55ceabee709552",
                "label": "Safe: Singleton 1.3.0"
            },
            {
                "address": "0x0000000000000000000000000000000000000002",
                "label": "Precompiled"
            },
            {
                "address": "0x0000000000000000000000000000000000000003",
                "label": "Precompiled"
            }
        ]
    },
    "trace": {
        "accountLabels": null,
        "dataMap": {
            "-1": {
                "invocation": {
                    "address": "0xdf947f9648fcfb9bfd5bb7764a97ba54fc43c735",
                    "callData": "",
                    "decodedMethod": null,
                    "errorInfo": "",
                    "fromAddress": "",
                    "gasUsed": 0,
                    "id": -1,
                    "methodDecoded": false,
                    "operation": "",
                    "output": "",
                    "revert": false,
                    "revertMessage": "",
                    "selector": "",
                    "status": false,
                    "value": ""
                },
                "nodeType": 0
            },
            "0": {
                "invocation": {
                    "address": "0x881d40237659c251811cec9c364ef91dc08d300c",
                    "callData": "0x0000000000000000000000000000000000000000000000000000000000000080000000000000000000000000a0b86991c6218b36c1d19d4a2e9eb0ce3606eb4800000000000000000000000000000000000000000000000000000000000ade5700000000000000000000000000000000000000000000000000000000000000c00000000000000000000000000000000000000000000000000000000000000017616972737761704c696768743346656544796e616d696300000000000000000000000000000000000000000000000000000000000000000000000000000001a0000000000000000000000000000000000000000000000000000001846651acda0000000000000000000000000000000000000000000000000000000063806d26000000000000000000000000af0b0000f0210d0f421f0009c72406703b50506b00000000000000000000000000000000000000000000000000000000000000000000000000000000000000000000000000000000000000000002245e210d98a7000000000000000000000000a0b86991c6218b36c1d19d4a2e9eb0ce3606eb4800000000000000000000000000000000000000000000000000000000000ade57000000000000000000000000000000000000000000000000000000000000001b6819512d79dec80ee8aab771b55ca4ee3aa76e01a7e9466ee4f4c2e33519effb692bd799361f7dd738494e35a6bac6ac87589a94acdc6b4cd765605c19865880000000000000000000000000000000000000000000000000000004130a0a46ea000000000000000000000000f326e4de8f66a0bdc0970b79e0924e33c79f19150000000000000000000000000000000000000000000000000000000000000001fa",
                    "decodedMethod": {
                        "callParams": [
                            {
                                "name": "aggregatorId",
                                "type": "string",
                                "value": "airswapLight3FeeDynamic"
                            },
                            {
                                "name": "tokenFrom",
                                "type": "address",
                                "value": "0xa0b86991c6218b36c1d19d4a2e9eb0ce3606eb48"
                            },
                            {
                                "name": "amount",
                                "type": "uint256",
                                "value": "712,279"
                            },
                            {
                                "name": "data",
                                "type": "bytes",
                                "value": "0x000000000000000000000000000000000000000000000000000001846651acda0000000000000000000000000000000000000000000000000000000063806d26000000000000000000000000af0b0000f0210d0f421f0009c72406703b50506b00000000000000000000000000000000000000000000000000000000000000000000000000000000000000000000000000000000000000000002245e210d98a7000000000000000000000000a0b86991c6218b36c1d19d4a2e9eb0ce3606eb4800000000000000000000000000000000000000000000000000000000000ade57000000000000000000000000000000000000000000000000000000000000001b6819512d79dec80ee8aab771b55ca4ee3aa76e01a7e9466ee4f4c2e33519effb692bd799361f7dd738494e35a6bac6ac87589a94acdc6b4cd765605c19865880000000000000000000000000000000000000000000000000000004130a0a46ea000000000000000000000000f326e4de8f66a0bdc0970b79e0924e33c79f19150000000000000000000000000000000000000000000000000000000000000001"
                            }
                        ],
                        "constructorArguments": "",
                        "name": "swap",
                        "returnParams": [],
                        "signature": "swap(string,address,uint256,bytes)"
                    },
                    "errorInfo": "",
                    "fromAddress": "0xdf947f9648fcfb9bfd5bb7764a97ba54fc43c735",
                    "gasUsed": 197188,
                    "id": 0,
                    "methodDecoded": true,
                    "operation": "CALL",
                    "output": "",
                    "revert": false,
                    "revertMessage": "",
                    "selector": "0x5f575529",
                    "status": true,
                    "value": "0"
                },
                "nodeType": 0
            },
            "1": {
                "invocation": {
                    "address": "0xa0b86991c6218b36c1d19d4a2e9eb0ce3606eb48",
                    "callData": "0x000000000000000000000000df947f9648fcfb9bfd5bb7764a97ba54fc43c73500000000000000000000000074de5d4fcbf63e00296fd95d33236b979401663100000000000000000000000000000000000000000000000000000000000ade57",
                    "decodedMethod": {
                        "callParams": [
                            {
                                "name": "from",
                                "type": "address",
                                "value": "0xdf947f9648fcfb9bfd5bb7764a97ba54fc43c735"
                            },
                            {
                                "name": "to",
                                "type": "address",
                                "value": "0x74de5d4fcbf63e00296fd95d33236b9794016631"
                            },
                            {
                                "decimalAvailable": true,
                                "name": "value",
                                "type": "uint256",
                                "value": "712,279"
                            }
                        ],
                        "constructorArguments": "",
                        "name": "transferFrom",
                        "returnParams": [
                            {
                                "name": "",
                                "type": "bool",
                                "value": true
                            }
                        ],
                        "signature": "transferFrom(address,address,uint256)"
                    },
                    "errorInfo": "",
                    "fromAddress": "0x881d40237659c251811cec9c364ef91dc08d300c",
                    "gasUsed": 51992,
                    "id": 1,
                    "methodDecoded": true,
                    "operation": "CALL",
                    "output": "0x0000000000000000000000000000000000000000000000000000000000000001",
                    "revert": false,
                    "revertMessage": "",
                    "selector": "0x23b872dd",
                    "status": true,
                    "value": "0"
                },
                "nodeType": 0
            },
            "10": {
                "invocation": {
                    "address": "0xa0b86991c6218b36c1d19d4a2e9eb0ce3606eb48",
                    "callData": "0x00000000000000000000000074de5d4fcbf63e00296fd95d33236b9794016631000000000000000000000000af0b0000f0210d0f421f0009c72406703b50506b00000000000000000000000000000000000000000000000000000000000ade57",
                    "decodedMethod": {
                        "callParams": [
                            {
                                "name": "from",
                                "type": "address",
                                "value": "0x74de5d4fcbf63e00296fd95d33236b9794016631"
                            },
                            {
                                "name": "to",
                                "type": "address",
                                "value": "0xaf0b0000f0210d0f421f0009c72406703b50506b"
                            },
                            {
                                "decimalAvailable": true,
                                "name": "value",
                                "type": "uint256",
                                "value": "712,279"
                            }
                        ],
                        "constructorArguments": "",
                        "name": "transferFrom",
                        "returnParams": [
                            {
                                "name": "",
                                "type": "bool",
                                "value": true
                            }
                        ],
                        "signature": "transferFrom(address,address,uint256)"
                    },
                    "errorInfo": "",
                    "fromAddress": "0x522d6f36c95a1b6509a14272c17747bbb582f2a6",
                    "gasUsed": 17592,
                    "id": 10,
                    "methodDecoded": true,
                    "operation": "CALL",
                    "output": "0x0000000000000000000000000000000000000000000000000000000000000001",
                    "revert": false,
                    "revertMessage": "",
                    "selector": "0x23b872dd",
                    "status": true,
                    "value": "0"
                },
                "nodeType": 0
            },
            "11": {
                "invocation": {
                    "address": "0xa2327a938febf5fec13bacfb16ae10ecbc4cbdcf",
                    "callData": "0x00000000000000000000000074de5d4fcbf63e00296fd95d33236b9794016631000000000000000000000000af0b0000f0210d0f421f0009c72406703b50506b00000000000000000000000000000000000000000000000000000000000ade57",
                    "decodedMethod": {
                        "callParams": [
                            {
                                "name": "from",
                                "type": "address",
                                "value": "0x74de5d4fcbf63e00296fd95d33236b9794016631"
                            },
                            {
                                "name": "to",
                                "type": "address",
                                "value": "0xaf0b0000f0210d0f421f0009c72406703b50506b"
                            },
                            {
                                "decimalAvailable": true,
                                "name": "value",
                                "type": "uint256",
                                "value": "712,279"
                            }
                        ],
                        "constructorArguments": "",
                        "name": "transferFrom",
                        "returnParams": [
                            {
                                "name": "",
                                "type": "bool",
                                "value": true
                            }
                        ],
                        "signature": "transferFrom(address,address,uint256)"
                    },
                    "errorInfo": "",
                    "fromAddress": "0xa0b86991c6218b36c1d19d4a2e9eb0ce3606eb48",
                    "gasUsed": 16797,
                    "id": 11,
                    "methodDecoded": true,
                    "operation": "DELEGATECALL",
                    "output": "0x0000000000000000000000000000000000000000000000000000000000000001",
                    "revert": false,
                    "revertMessage": "",
                    "selector": "0x23b872dd",
                    "status": true,
                    "value": "0"
                },
                "nodeType": 0
            },
            "12": {
                "event": {
                    "contract": "0xa0b86991c6218b36c1d19d4a2e9eb0ce3606eb48",
                    "decodedLog": {
                        "name": "Transfer",
                        "params": [
                            {
                                "name": "from",
                                "type": "address",
                                "value": "0x74de5d4fcbf63e00296fd95d33236b9794016631"
                            },
                            {
                                "name": "to",
                                "type": "address",
                                "value": "0xaf0b0000f0210d0f421f0009c72406703b50506b"
                            },
                            {
                                "decimalAvailable": true,
                                "name": "value",
                                "type": "uint256",
                                "value": "712,279"
                            }
                        ],
                        "signature": "Transfer(address,address,uint256)"
                    },
                    "id": 12,
                    "logData": "0x00000000000000000000000000000000000000000000000000000000000ade57",
                    "logDecoded": true,
                    "operation": "EVENT",
                    "revert": false,
                    "status": true,
                    "topics": [
                        "0xddf252ad1be2c89b69c2b068fc378daa952ba7f163c4a11628f55a4df523b3ef",
                        "0x00000000000000000000000074de5d4fcbf63e00296fd95d33236b9794016631",
                        "0x000000000000000000000000af0b0000f0210d0f421f0009c72406703b50506b"
                    ]
                },
                "nodeType": 1
            },
            "13": {
                "invocation": {
                    "address": "0xc02aaa39b223fe8d0a0e5c4f27ead9083c756cc2",
                    "callData": "0x000000000000000000000000af0b0000f0210d0f421f0009c72406703b50506b00000000000000000000000074de5d4fcbf63e00296fd95d33236b97940166310000000000000000000000000000000000000000000000000002245e210d98a7",
                    "decodedMethod": {
                        "callParams": [
                            {
                                "name": "src",
                                "type": "address",
                                "value": "0xaf0b0000f0210d0f421f0009c72406703b50506b"
                            },
                            {
                                "name": "dst",
                                "type": "address",
                                "value": "0x74de5d4fcbf63e00296fd95d33236b9794016631"
                            },
                            {
                                "decimalAvailable": true,
                                "name": "wad",
                                "type": "uint256",
                                "value": "602,936,653,486,247"
                            }
                        ],
                        "constructorArguments": "",
                        "name": "transferFrom",
                        "returnParams": [
                            {
                                "name": "",
                                "type": "bool",
                                "value": true
                            }
                        ],
                        "signature": "transferFrom(address,address,uint256)"
                    },
                    "errorInfo": "",
                    "fromAddress": "0x522d6f36c95a1b6509a14272c17747bbb582f2a6",
                    "gasUsed": 32125,
                    "id": 13,
                    "methodDecoded": true,
                    "operation": "CALL",
                    "output": "0x0000000000000000000000000000000000000000000000000000000000000001",
                    "revert": false,
                    "revertMessage": "",
                    "selector": "0x23b872dd",
                    "status": true,
                    "value": "0"
                },
                "nodeType": 0
            },
            "14": {
                "event": {
                    "contract": "0xc02aaa39b223fe8d0a0e5c4f27ead9083c756cc2",
                    "decodedLog": {
                        "name": "Transfer",
                        "params": [
                            {
                                "name": "src",
                                "type": "address",
                                "value": "0xaf0b0000f0210d0f421f0009c72406703b50506b"
                            },
                            {
                                "name": "dst",
                                "type": "address",
                                "value": "0x74de5d4fcbf63e00296fd95d33236b9794016631"
                            },
                            {
                                "decimalAvailable": true,
                                "name": "wad",
                                "type": "uint256",
                                "value": "602,936,653,486,247"
                            }
                        ],
                        "signature": "Transfer(address,address,uint256)"
                    },
                    "id": 14,
                    "logData": "0x0000000000000000000000000000000000000000000000000002245e210d98a7",
                    "logDecoded": true,
                    "operation": "EVENT",
                    "revert": false,
                    "status": true,
                    "topics": [
                        "0xddf252ad1be2c89b69c2b068fc378daa952ba7f163c4a11628f55a4df523b3ef",
                        "0x000000000000000000000000af0b0000f0210d0f421f0009c72406703b50506b",
                        "0x00000000000000000000000074de5d4fcbf63e00296fd95d33236b9794016631"
                    ]
                },
                "nodeType": 1
            },
            "15": {
                "invocation": {
                    "address": "0xc02aaa39b223fe8d0a0e5c4f27ead9083c756cc2",
                    "callData": "0x000000000000000000000000af0b0000f0210d0f421f0009c72406703b50506b000000000000000000000000e2e7ae67e7ee6d4d90dfef945ab6de6a14db4c1700000000000000000000000000000000000000000000000000000062447a3fe0",
                    "decodedMethod": {
                        "callParams": [
                            {
                                "name": "src",
                                "type": "address",
                                "value": "0xaf0b0000f0210d0f421f0009c72406703b50506b"
                            },
                            {
                                "name": "dst",
                                "type": "address",
                                "value": "0xe2e7ae67e7ee6d4d90dfef945ab6de6a14db4c17"
                            },
                            {
                                "decimalAvailable": true,
                                "name": "wad",
                                "type": "uint256",
                                "value": "422,055,657,440"
                            }
                        ],
                        "constructorArguments": "",
                        "name": "transferFrom",
                        "returnParams": [
                            {
                                "name": "",
                                "type": "bool",
                                "value": true
                            }
                        ],
                        "signature": "transferFrom(address,address,uint256)"
                    },
                    "errorInfo": "",
                    "fromAddress": "0x522d6f36c95a1b6509a14272c17747bbb582f2a6",
                    "gasUsed": 8225,
                    "id": 15,
                    "methodDecoded": true,
                    "operation": "CALL",
                    "output": "0x0000000000000000000000000000000000000000000000000000000000000001",
                    "revert": false,
                    "revertMessage": "",
                    "selector": "0x23b872dd",
                    "status": true,
                    "value": "0"
                },
                "nodeType": 0
            },
            "16": {
                "event": {
                    "contract": "0xc02aaa39b223fe8d0a0e5c4f27ead9083c756cc2",
                    "decodedLog": {
                        "name": "Transfer",
                        "params": [
                            {
                                "name": "src",
                                "type": "address",
                                "value": "0xaf0b0000f0210d0f421f0009c72406703b50506b"
                            },
                            {
                                "name": "dst",
                                "type": "address",
                                "value": "0xe2e7ae67e7ee6d4d90dfef945ab6de6a14db4c17"
                            },
                            {
                                "decimalAvailable": true,
                                "name": "wad",
                                "type": "uint256",
                                "value": "422,055,657,440"
                            }
                        ],
                        "signature": "Transfer(address,address,uint256)"
                    },
                    "id": 16,
                    "logData": "0x00000000000000000000000000000000000000000000000000000062447a3fe0",
                    "logDecoded": true,
                    "operation": "EVENT",
                    "revert": false,
                    "status": true,
                    "topics": [
                        "0xddf252ad1be2c89b69c2b068fc378daa952ba7f163c4a11628f55a4df523b3ef",
                        "0x000000000000000000000000af0b0000f0210d0f421f0009c72406703b50506b",
                        "0x000000000000000000000000e2e7ae67e7ee6d4d90dfef945ab6de6a14db4c17"
                    ]
                },
                "nodeType": 1
            },
            "17": {
                "event": {
                    "contract": "0x522d6f36c95a1b6509a14272c17747bbb582f2a6",
                    "decodedLog": {
                        "name": "Swap",
                        "params": [
                            {
                                "name": "nonce",
                                "type": "uint256",
                                "value": "1,668,163,939,546"
                            },
                            {
                                "name": "signerWallet",
                                "type": "address",
                                "value": "0xaf0b0000f0210d0f421f0009c72406703b50506b"
                            },
                            {
                                "name": "senderWallet",
                                "type": "address",
                                "value": "0x74de5d4fcbf63e00296fd95d33236b9794016631"
                            },
                            {
                                "name": "timestamp",
                                "type": "uint256",
                                "value": "1,669,360,835"
                            },
                            {
                                "name": "signerToken",
                                "type": "address",
                                "value": "0xc02aaa39b223fe8d0a0e5c4f27ead9083c756cc2"
                            },
                            {
                                "name": "signerAmount",
                                "type": "uint256",
                                "value": "602,936,653,486,247"
                            },
                            {
                                "name": "protocolFee",
                                "type": "uint256",
                                "value": "7"
                            },
                            {
                                "name": "senderToken",
                                "type": "address",
                                "value": "0xa0b86991c6218b36c1d19d4a2e9eb0ce3606eb48"
                            },
                            {
                                "name": "senderAmount",
                                "type": "uint256",
                                "value": "712,279"
                            }
                        ],
                        "signature": "Swap(uint256,uint256,address,address,uint256,uint256,address,address,uint256)"
                    },
                    "id": 17,
                    "logData": "0x0000000000000000000000000000000000000000000000000000000063806cc3000000000000000000000000c02aaa39b223fe8d0a0e5c4f27ead9083c756cc20000000000000000000000000000000000000000000000000002245e210d98a70000000000000000000000000000000000000000000000000000000000000007000000000000000000000000a0b86991c6218b36c1d19d4a2e9eb0ce3606eb4800000000000000000000000000000000000000000000000000000000000ade57",
                    "logDecoded": true,
                    "operation": "EVENT",
                    "revert": false,
                    "status": true,
                    "topics": [
                        "0x06dfeb25e76d44e08965b639a9d9307df8e1c3dbe2a6364194895e9c3992f033",
                        "0x000000000000000000000000000000000000000000000000000001846651acda",
                        "0x000000000000000000000000af0b0000f0210d0f421f0009c72406703b50506b",
                        "0x00000000000000000000000074de5d4fcbf63e00296fd95d33236b9794016631"
                    ]
                },
                "nodeType": 1
            },
            "18": {
                "invocation": {
                    "address": "0xc02aaa39b223fe8d0a0e5c4f27ead9083c756cc2",
                    "callData": "0x000000000000000000000000000000000000000000000000000004130a0a46ea",
                    "decodedMethod": {
                        "callParams": [
                            {
                                "name": "wad",
                                "type": "uint256",
                                "value": "4,479,819,335,402"
                            }
                        ],
                        "constructorArguments": "",
                        "name": "withdraw",
                        "returnParams": [],
                        "signature": "withdraw(uint256)"
                    },
                    "errorInfo": "",
                    "fromAddress": "0x74de5d4fcbf63e00296fd95d33236b9794016631",
                    "gasUsed": 9180,
                    "id": 18,
                    "methodDecoded": true,
                    "operation": "CALL",
                    "output": "",
                    "revert": false,
                    "revertMessage": "",
                    "selector": "0x2e1a7d4d",
                    "status": true,
                    "value": "0"
                },
                "nodeType": 0
            },
            "19": {
                "invocation": {
                    "address": "0x74de5d4fcbf63e00296fd95d33236b9794016631",
                    "callData": "0x",
                    "decodedMethod": null,
                    "errorInfo": "",
                    "fromAddress": "0xc02aaa39b223fe8d0a0e5c4f27ead9083c756cc2",
                    "gasUsed": 40,
                    "id": 19,
                    "methodDecoded": false,
                    "operation": "CALL",
                    "output": "",
                    "revert": false,
                    "revertMessage": "",
                    "selector": "fallback",
                    "status": true,
                    "value": "0.000004479819335402"
                },
                "nodeType": 0
            },
            "2": {
                "invocation": {
                    "address": "0xa2327a938febf5fec13bacfb16ae10ecbc4cbdcf",
                    "callData": "0x000000000000000000000000df947f9648fcfb9bfd5bb7764a97ba54fc43c73500000000000000000000000074de5d4fcbf63e00296fd95d33236b979401663100000000000000000000000000000000000000000000000000000000000ade57",
                    "decodedMethod": {
                        "callParams": [
                            {
                                "name": "from",
                                "type": "address",
                                "value": "0xdf947f9648fcfb9bfd5bb7764a97ba54fc43c735"
                            },
                            {
                                "name": "to",
                                "type": "address",
                                "value": "0x74de5d4fcbf63e00296fd95d33236b9794016631"
                            },
                            {
                                "decimalAvailable": true,
                                "name": "value",
                                "type": "uint256",
                                "value": "712,279"
                            }
                        ],
                        "constructorArguments": "",
                        "name": "transferFrom",
                        "returnParams": [
                            {
                                "name": "",
                                "type": "bool",
                                "value": true
                            }
                        ],
                        "signature": "transferFrom(address,address,uint256)"
                    },
                    "errorInfo": "",
                    "fromAddress": "0xa0b86991c6218b36c1d19d4a2e9eb0ce3606eb48",
                    "gasUsed": 44697,
                    "id": 2,
                    "methodDecoded": true,
                    "operation": "DELEGATECALL",
                    "output": "0x0000000000000000000000000000000000000000000000000000000000000001",
                    "revert": false,
                    "revertMessage": "",
                    "selector": "0x23b872dd",
                    "status": true,
                    "value": "0"
                },
                "nodeType": 0
            },
            "20": {
                "event": {
                    "contract": "0xc02aaa39b223fe8d0a0e5c4f27ead9083c756cc2",
                    "decodedLog": {
                        "name": "Withdrawal",
                        "params": [
                            {
                                "name": "src",
                                "type": "address",
                                "value": "0x74de5d4fcbf63e00296fd95d33236b9794016631"
                            },
                            {
                                "name": "wad",
                                "type": "uint256",
                                "value": "4,479,819,335,402"
                            }
                        ],
                        "signature": "Withdrawal(address,uint256)"
                    },
                    "id": 20,
                    "logData": "0x000000000000000000000000000000000000000000000000000004130a0a46ea",
                    "logDecoded": true,
                    "operation": "EVENT",
                    "revert": false,
                    "status": true,
                    "topics": [
                        "0x7fcf532c15f0a6db0bd6d0e038bea71d30d808c7d98cb3bf7268a95bf5081b65",
                        "0x00000000000000000000000074de5d4fcbf63e00296fd95d33236b9794016631"
                    ]
                },
                "nodeType": 1
            },
            "21": {
                "invocation": {
                    "address": "0xf326e4de8f66a0bdc0970b79e0924e33c79f1915",
                    "callData": "0x",
                    "decodedMethod": null,
                    "errorInfo": "",
                    "fromAddress": "0x74de5d4fcbf63e00296fd95d33236b9794016631",
                    "gasUsed": 6329,
                    "id": 21,
                    "methodDecoded": false,
                    "operation": "CALL",
                    "output": "",
                    "revert": false,
                    "revertMessage": "",
                    "selector": "fallback",
                    "status": true,
                    "value": "0.000004479819335402"
                },
                "nodeType": 0
            },
            "22": {
                "invocation": {
                    "address": "0xd9db270c1b5e3bd161e8c8503c55ceabee709552",
                    "callData": "0x",
                    "decodedMethod": null,
                    "errorInfo": "",
                    "fromAddress": "0xf326e4de8f66a0bdc0970b79e0924e33c79f1915",
                    "gasUsed": 1504,
                    "id": 22,
                    "methodDecoded": false,
                    "operation": "DELEGATECALL",
                    "output": "",
                    "revert": false,
                    "revertMessage": "",
                    "selector": "fallback",
                    "status": true,
                    "value": "0.000004479819335402"
                },
                "nodeType": 0
            },
            "23": {
                "event": {
                    "contract": "0xf326e4de8f66a0bdc0970b79e0924e33c79f1915",
                    "decodedLog": {
                        "name": "SafeReceived",
                        "params": [
                            {
                                "name": "sender",
                                "type": "address",
                                "value": "0x74de5d4fcbf63e00296fd95d33236b9794016631"
                            },
                            {
                                "name": "value",
                                "type": "uint256",
                                "value": "4,479,819,335,402"
                            }
                        ],
                        "signature": "SafeReceived(address,uint256)"
                    },
                    "id": 23,
                    "logData": "0x000000000000000000000000000000000000000000000000000004130a0a46ea",
                    "logDecoded": true,
                    "operation": "EVENT",
                    "revert": false,
                    "status": true,
                    "topics": [
                        "0x3d0ce9bfc3ed7d6862dbb28b2dea94561fe714a1b4d019aa8af39730d1ad7c3d",
                        "0x00000000000000000000000074de5d4fcbf63e00296fd95d33236b9794016631"
                    ]
                },
                "nodeType": 1
            },
            "24": {
                "invocation": {
                    "address": "0xa0b86991c6218b36c1d19d4a2e9eb0ce3606eb48",
                    "callData": "0x00000000000000000000000074de5d4fcbf63e00296fd95d33236b9794016631",
                    "decodedMethod": {
                        "callParams": [
                            {
                                "name": "account",
                                "type": "address",
                                "value": "0x74de5d4fcbf63e00296fd95d33236b9794016631"
                            }
                        ],
                        "constructorArguments": "",
                        "name": "balanceOf",
                        "returnParams": [
                            {
                                "decimalAvailable": true,
                                "name": "",
                                "type": "uint256",
                                "value": "0"
                            }
                        ],
                        "signature": "balanceOf(address)"
                    },
                    "errorInfo": "",
                    "fromAddress": "0x74de5d4fcbf63e00296fd95d33236b9794016631",
                    "gasUsed": 1315,
                    "id": 24,
                    "methodDecoded": true,
                    "operation": "STATICCALL",
                    "output": "0x0000000000000000000000000000000000000000000000000000000000000000",
                    "revert": false,
                    "revertMessage": "",
                    "selector": "0x70a08231",
                    "status": true,
                    "value": "0"
                },
                "nodeType": 0
            },
            "25": {
                "invocation": {
                    "address": "0xa2327a938febf5fec13bacfb16ae10ecbc4cbdcf",
                    "callData": "0x00000000000000000000000074de5d4fcbf63e00296fd95d33236b9794016631",
                    "decodedMethod": {
                        "callParams": [
                            {
                                "name": "account",
                                "type": "address",
                                "value": "0x74de5d4fcbf63e00296fd95d33236b9794016631"
                            }
                        ],
                        "constructorArguments": "",
                        "name": "balanceOf",
                        "returnParams": [
                            {
                                "decimalAvailable": true,
                                "name": "",
                                "type": "uint256",
                                "value": "0"
                            }
                        ],
                        "signature": "balanceOf(address)"
                    },
                    "errorInfo": "",
                    "fromAddress": "0xa0b86991c6218b36c1d19d4a2e9eb0ce3606eb48",
                    "gasUsed": 529,
                    "id": 25,
                    "methodDecoded": true,
                    "operation": "DELEGATECALL",
                    "output": "0x0000000000000000000000000000000000000000000000000000000000000000",
                    "revert": false,
                    "revertMessage": "",
                    "selector": "0x70a08231",
                    "status": true,
                    "value": "0"
                },
                "nodeType": 0
            },
            "26": {
                "invocation": {
                    "address": "0xc02aaa39b223fe8d0a0e5c4f27ead9083c756cc2",
                    "callData": "0x00000000000000000000000074de5d4fcbf63e00296fd95d33236b9794016631",
                    "decodedMethod": {
                        "callParams": [
                            {
                                "name": "",
                                "type": "address",
                                "value": "0x74de5d4fcbf63e00296fd95d33236b9794016631"
                            }
                        ],
                        "constructorArguments": "",
                        "name": "balanceOf",
                        "returnParams": [
                            {
                                "decimalAvailable": true,
                                "name": "",
                                "type": "uint256",
                                "value": "598,456,834,150,845"
                            }
                        ],
                        "signature": "balanceOf(address)"
                    },
                    "errorInfo": "",
                    "fromAddress": "0x74de5d4fcbf63e00296fd95d33236b9794016631",
                    "gasUsed": 534,
                    "id": 26,
                    "methodDecoded": true,
                    "operation": "STATICCALL",
                    "output": "0x0000000000000000000000000000000000000000000000000002204b170351bd",
                    "revert": false,
                    "revertMessage": "",
                    "selector": "0x70a08231",
                    "status": true,
                    "value": "0"
                },
                "nodeType": 0
            },
            "27": {
                "invocation": {
                    "address": "0xc02aaa39b223fe8d0a0e5c4f27ead9083c756cc2",
                    "callData": "0x0000000000000000000000000000000000000000000000000002204b170351bd",
                    "decodedMethod": {
                        "callParams": [
                            {
                                "name": "wad",
                                "type": "uint256",
                                "value": "598,456,834,150,845"
                            }
                        ],
                        "constructorArguments": "",
                        "name": "withdraw",
                        "returnParams": [],
                        "signature": "withdraw(uint256)"
                    },
                    "errorInfo": "",
                    "fromAddress": "0x74de5d4fcbf63e00296fd95d33236b9794016631",
                    "gasUsed": 9180,
                    "id": 27,
                    "methodDecoded": true,
                    "operation": "CALL",
                    "output": "",
                    "revert": false,
                    "revertMessage": "",
                    "selector": "0x2e1a7d4d",
                    "status": true,
                    "value": "0"
                },
                "nodeType": 0
            },
            "28": {
                "invocation": {
                    "address": "0x74de5d4fcbf63e00296fd95d33236b9794016631",
                    "callData": "0x",
                    "decodedMethod": null,
                    "errorInfo": "",
                    "fromAddress": "0xc02aaa39b223fe8d0a0e5c4f27ead9083c756cc2",
                    "gasUsed": 40,
                    "id": 28,
                    "methodDecoded": false,
                    "operation": "CALL",
                    "output": "",
                    "revert": false,
                    "revertMessage": "",
                    "selector": "fallback",
                    "status": true,
                    "value": "0.000598456834150845"
                },
                "nodeType": 0
            },
            "29": {
                "event": {
                    "contract": "0xc02aaa39b223fe8d0a0e5c4f27ead9083c756cc2",
                    "decodedLog": {
                        "name": "Withdrawal",
                        "params": [
                            {
                                "name": "src",
                                "type": "address",
                                "value": "0x74de5d4fcbf63e00296fd95d33236b9794016631"
                            },
                            {
                                "name": "wad",
                                "type": "uint256",
                                "value": "598,456,834,150,845"
                            }
                        ],
                        "signature": "Withdrawal(address,uint256)"
                    },
                    "id": 29,
                    "logData": "0x0000000000000000000000000000000000000000000000000002204b170351bd",
                    "logDecoded": true,
                    "operation": "EVENT",
                    "revert": false,
                    "status": true,
                    "topics": [
                        "0x7fcf532c15f0a6db0bd6d0e038bea71d30d808c7d98cb3bf7268a95bf5081b65",
                        "0x00000000000000000000000074de5d4fcbf63e00296fd95d33236b9794016631"
                    ]
                },
                "nodeType": 1
            },
            "3": {
                "event": {
                    "contract": "0xa0b86991c6218b36c1d19d4a2e9eb0ce3606eb48",
                    "decodedLog": {
                        "name": "Transfer",
                        "params": [
                            {
                                "name": "from",
                                "type": "address",
                                "value": "0xdf947f9648fcfb9bfd5bb7764a97ba54fc43c735"
                            },
                            {
                                "name": "to",
                                "type": "address",
                                "value": "0x74de5d4fcbf63e00296fd95d33236b9794016631"
                            },
                            {
                                "decimalAvailable": true,
                                "name": "value",
                                "type": "uint256",
                                "value": "712,279"
                            }
                        ],
                        "signature": "Transfer(address,address,uint256)"
                    },
                    "id": 3,
                    "logData": "0x00000000000000000000000000000000000000000000000000000000000ade57",
                    "logDecoded": true,
                    "operation": "EVENT",
                    "revert": false,
                    "status": true,
                    "topics": [
                        "0xddf252ad1be2c89b69c2b068fc378daa952ba7f163c4a11628f55a4df523b3ef",
                        "0x000000000000000000000000df947f9648fcfb9bfd5bb7764a97ba54fc43c735",
                        "0x00000000000000000000000074de5d4fcbf63e00296fd95d33236b9794016631"
                    ]
                },
                "nodeType": 1
            },
            "30": {
                "invocation": {
                    "address": "0xdf947f9648fcfb9bfd5bb7764a97ba54fc43c735",
                    "callData": "0x",
                    "decodedMethod": null,
                    "errorInfo": "",
                    "fromAddress": "0x74de5d4fcbf63e00296fd95d33236b9794016631",
                    "gasUsed": 0,
                    "id": 30,
                    "methodDecoded": false,
                    "operation": "CALL",
                    "output": "",
                    "revert": false,
                    "revertMessage": "",
                    "selector": "fallback",
                    "status": true,
                    "value": "0.000598456834150845"
                },
                "nodeType": 0
            },
            "31": {
                "event": {
                    "contract": "0x881d40237659c251811cec9c364ef91dc08d300c",
                    "decodedLog": {
                        "name": "Swap",
                        "params": [
                            {
                                "name": "aggregatorId",
                                "type": "string",
                                "value": "0x0f15df26153967931fbcb8c0d3b573946eced4ef196e2d07ec13f437ff36584e"
                            },
                            {
                                "name": "sender",
                                "type": "address",
                                "value": "0xdf947f9648fcfb9bfd5bb7764a97ba54fc43c735"
                            }
                        ],
                        "signature": "Swap(string,address)"
                    },
                    "id": 31,
                    "logData": "0x",
                    "logDecoded": true,
                    "operation": "EVENT",
                    "revert": false,
                    "status": true,
                    "topics": [
                        "0xbeee1e6e7fe307ddcf84b0a16137a4430ad5e2480fc4f4a8e250ab56ccd7630d",
                        "0x0f15df26153967931fbcb8c0d3b573946eced4ef196e2d07ec13f437ff36584e",
                        "0x000000000000000000000000df947f9648fcfb9bfd5bb7764a97ba54fc43c735"
                    ]
                },
                "nodeType": 1
            },
            "4": {
                "invocation": {
                    "address": "0x74de5d4fcbf63e00296fd95d33236b9794016631",
                    "callData": "0x0000000000000000000000003ca32da2c9d972e0435ea8ce0d9107e564f88e2a000000000000000000000000000000000000000000000000000000000000004000000000000000000000000000000000000000000000000000000000000001c44495c088000000000000000000000000df947f9648fcfb9bfd5bb7764a97ba54fc43c735000000000000000000000000000000000000000000000000000001846651acda0000000000000000000000000000000000000000000000000000000063806d26000000000000000000000000af0b0000f0210d0f421f0009c72406703b50506b00000000000000000000000000000000000000000000000000000000000000000000000000000000000000000000000000000000000000000002245e210d98a7000000000000000000000000a0b86991c6218b36c1d19d4a2e9eb0ce3606eb4800000000000000000000000000000000000000000000000000000000000ade57000000000000000000000000000000000000000000000000000000000000001b6819512d79dec80ee8aab771b55ca4ee3aa76e01a7e9466ee4f4c2e33519effb692bd799361f7dd738494e35a6bac6ac87589a94acdc6b4cd765605c19865880000000000000000000000000000000000000000000000000000004130a0a46ea000000000000000000000000f326e4de8f66a0bdc0970b79e0924e33c79f1915000000000000000000000000000000000000000000000000000000000000000100000000000000000000000000000000000000000000000000000000",
                    "decodedMethod": {
                        "callParams": [
                            {
                                "name": "adapter",
                                "type": "address",
                                "value": "0x3ca32da2c9d972e0435ea8ce0d9107e564f88e2a"
                            },
                            {
                                "name": "data",
                                "type": "bytes",
                                "value": "0x4495c088000000000000000000000000df947f9648fcfb9bfd5bb7764a97ba54fc43c735000000000000000000000000000000000000000000000000000001846651acda0000000000000000000000000000000000000000000000000000000063806d26000000000000000000000000af0b0000f0210d0f421f0009c72406703b50506b00000000000000000000000000000000000000000000000000000000000000000000000000000000000000000000000000000000000000000002245e210d98a7000000000000000000000000a0b86991c6218b36c1d19d4a2e9eb0ce3606eb4800000000000000000000000000000000000000000000000000000000000ade57000000000000000000000000000000000000000000000000000000000000001b6819512d79dec80ee8aab771b55ca4ee3aa76e01a7e9466ee4f4c2e33519effb692bd799361f7dd738494e35a6bac6ac87589a94acdc6b4cd765605c19865880000000000000000000000000000000000000000000000000000004130a0a46ea000000000000000000000000f326e4de8f66a0bdc0970b79e0924e33c79f19150000000000000000000000000000000000000000000000000000000000000001"
                            }
                        ],
                        "constructorArguments": "",
                        "name": "swap",
                        "returnParams": [],
                        "signature": "swap(address,bytes)"
                    },
                    "errorInfo": "",
                    "fromAddress": "0x881d40237659c251811cec9c364ef91dc08d300c",
                    "gasUsed": 143748,
                    "id": 4,
                    "methodDecoded": true,
                    "operation": "CALL",
                    "output": "",
                    "revert": false,
                    "revertMessage": "",
                    "selector": "0xe3547335",
                    "status": true,
                    "value": "0"
                },
                "nodeType": 0
            },
            "5": {
                "invocation": {
                    "address": "0x3ca32da2c9d972e0435ea8ce0d9107e564f88e2a",
                    "callData": "0x000000000000000000000000df947f9648fcfb9bfd5bb7764a97ba54fc43c735000000000000000000000000000000000000000000000000000001846651acda0000000000000000000000000000000000000000000000000000000063806d26000000000000000000000000af0b0000f0210d0f421f0009c72406703b50506b00000000000000000000000000000000000000000000000000000000000000000000000000000000000000000000000000000000000000000002245e210d98a7000000000000000000000000a0b86991c6218b36c1d19d4a2e9eb0ce3606eb4800000000000000000000000000000000000000000000000000000000000ade57000000000000000000000000000000000000000000000000000000000000001b6819512d79dec80ee8aab771b55ca4ee3aa76e01a7e9466ee4f4c2e33519effb692bd799361f7dd738494e35a6bac6ac87589a94acdc6b4cd765605c19865880000000000000000000000000000000000000000000000000000004130a0a46ea000000000000000000000000f326e4de8f66a0bdc0970b79e0924e33c79f19150000000000000000000000000000000000000000000000000000000000000001",
                    "decodedMethod": null,
                    "errorInfo": "",
                    "fromAddress": "0x74de5d4fcbf63e00296fd95d33236b9794016631",
                    "gasUsed": 138889,
                    "id": 5,
                    "methodDecoded": false,
                    "operation": "DELEGATECALL",
                    "output": "",
                    "revert": false,
                    "revertMessage": "",
                    "selector": "0x4495c088",
                    "status": true,
                    "value": "0"
                },
                "nodeType": 0
            },
            "6": {
                "invocation": {
                    "address": "0xa0b86991c6218b36c1d19d4a2e9eb0ce3606eb48",
                    "callData": "0x00000000000000000000000074de5d4fcbf63e00296fd95d33236b9794016631000000000000000000000000522d6f36c95a1b6509a14272c17747bbb582f2a6",
                    "decodedMethod": {
                        "callParams": [
                            {
                                "name": "owner",
                                "type": "address",
                                "value": "0x74de5d4fcbf63e00296fd95d33236b9794016631"
                            },
                            {
                                "name": "spender",
                                "type": "address",
                                "value": "0x522d6f36c95a1b6509a14272c17747bbb582f2a6"
                            }
                        ],
                        "constructorArguments": "",
                        "name": "allowance",
                        "returnParams": [
                            {
                                "decimalAvailable": true,
                                "name": "",
                                "type": "uint256",
                                "value": "115,792,089,237,316,195,423,570,985,008,687,907,853,269,984,665,640,564,039,457,583,832,864,285,730,960"
                            }
                        ],
                        "signature": "allowance(address,address)"
                    },
                    "errorInfo": "",
                    "fromAddress": "0x74de5d4fcbf63e00296fd95d33236b9794016631",
                    "gasUsed": 3426,
                    "id": 6,
                    "methodDecoded": true,
                    "operation": "STATICCALL",
                    "output": "0xffffffffffffffffffffffffffffffffffffffffffffffffffff60cb43d72890",
                    "revert": false,
                    "revertMessage": "",
                    "selector": "0xdd62ed3e",
                    "status": true,
                    "value": "0"
                },
                "nodeType": 0
            },
            "7": {
                "invocation": {
                    "address": "0xa2327a938febf5fec13bacfb16ae10ecbc4cbdcf",
                    "callData": "0x00000000000000000000000074de5d4fcbf63e00296fd95d33236b9794016631000000000000000000000000522d6f36c95a1b6509a14272c17747bbb582f2a6",
                    "decodedMethod": {
                        "callParams": [
                            {
                                "name": "owner",
                                "type": "address",
                                "value": "0x74de5d4fcbf63e00296fd95d33236b9794016631"
                            },
                            {
                                "name": "spender",
                                "type": "address",
                                "value": "0x522d6f36c95a1b6509a14272c17747bbb582f2a6"
                            }
                        ],
                        "constructorArguments": "",
                        "name": "allowance",
                        "returnParams": [
                            {
                                "decimalAvailable": true,
                                "name": "",
                                "type": "uint256",
                                "value": "115,792,089,237,316,195,423,570,985,008,687,907,853,269,984,665,640,564,039,457,583,832,864,285,730,960"
                            }
                        ],
                        "signature": "allowance(address,address)"
                    },
                    "errorInfo": "",
                    "fromAddress": "0xa0b86991c6218b36c1d19d4a2e9eb0ce3606eb48",
                    "gasUsed": 2637,
                    "id": 7,
                    "methodDecoded": true,
                    "operation": "DELEGATECALL",
                    "output": "0xffffffffffffffffffffffffffffffffffffffffffffffffffff60cb43d72890",
                    "revert": false,
                    "revertMessage": "",
                    "selector": "0xdd62ed3e",
                    "status": true,
                    "value": "0"
                },
                "nodeType": 0
            },
            "8": {
                "invocation": {
                    "address": "0x522d6f36c95a1b6509a14272c17747bbb582f2a6",
                    "callData": "0x000000000000000000000000000000000000000000000000000001846651acda0000000000000000000000000000000000000000000000000000000063806d26000000000000000000000000af0b0000f0210d0f421f0009c72406703b50506b000000000000000000000000c02aaa39b223fe8d0a0e5c4f27ead9083c756cc20000000000000000000000000000000000000000000000000002245e210d98a7000000000000000000000000a0b86991c6218b36c1d19d4a2e9eb0ce3606eb4800000000000000000000000000000000000000000000000000000000000ade57000000000000000000000000000000000000000000000000000000000000001b6819512d79dec80ee8aab771b55ca4ee3aa76e01a7e9466ee4f4c2e33519effb692bd799361f7dd738494e35a6bac6ac87589a94acdc6b4cd765605c19865880",
                    "decodedMethod": {
                        "callParams": [
                            {
                                "name": "nonce",
                                "type": "uint256",
                                "value": "1,668,163,939,546"
                            },
                            {
                                "name": "expiry",
                                "type": "uint256",
                                "value": "1,669,360,934"
                            },
                            {
                                "name": "signerWallet",
                                "type": "address",
                                "value": "0xaf0b0000f0210d0f421f0009c72406703b50506b"
                            },
                            {
                                "name": "signerToken",
                                "type": "address",
                                "value": "0xc02aaa39b223fe8d0a0e5c4f27ead9083c756cc2"
                            },
                            {
                                "name": "signerAmount",
                                "type": "uint256",
                                "value": "602,936,653,486,247"
                            },
                            {
                                "name": "senderToken",
                                "type": "address",
                                "value": "0xa0b86991c6218b36c1d19d4a2e9eb0ce3606eb48"
                            },
                            {
                                "name": "senderAmount",
                                "type": "uint256",
                                "value": "712,279"
                            },
                            {
                                "name": "v",
                                "type": "uint8",
                                "value": "27"
                            },
                            {
                                "name": "r",
                                "type": "bytes32",
                                "value": "0x6819512d79dec80ee8aab771b55ca4ee3aa76e01a7e9466ee4f4c2e33519effb"
                            },
                            {
                                "name": "s",
                                "type": "bytes32",
                                "value": "0x692bd799361f7dd738494e35a6bac6ac87589a94acdc6b4cd765605c19865880"
                            }
                        ],
                        "constructorArguments": "",
                        "name": "light",
                        "returnParams": [],
                        "signature": "light(uint256,uint256,address,address,uint256,address,uint256,uint8,bytes32,bytes32)"
                    },
                    "errorInfo": "",
                    "fromAddress": "0x74de5d4fcbf63e00296fd95d33236b9794016631",
                    "gasUsed": 86112,
                    "id": 8,
                    "methodDecoded": true,
                    "operation": "CALL",
                    "output": "",
                    "revert": false,
                    "revertMessage": "",
                    "selector": "0x011bc718",
                    "status": true,
                    "value": "0"
                },
                "nodeType": 0
            },
            "9": {
                "invocation": {
                    "address": "0x0000000000000000000000000000000000000001",
                    "callData": "0xe45d83434f2544bb005a120ca6ed3936a4a2e4a4350cfda1854ab6d9000000000000000000000000000000000000000000000000000000000000001b6819512d79dec80ee8aab771b55ca4ee3aa76e01a7e9466ee4f4c2e33519effb692bd799361f7dd738494e35a6bac6ac87589a94acdc6b4cd765605c19865880",
                    "decodedMethod": {
                        "callParams": [
                            {
                                "name": "hash",
                                "type": "bytes32",
                                "value": "0xdf569dade45d83434f2544bb005a120ca6ed3936a4a2e4a4350cfda1854ab6d9"
                            },
                            {
                                "name": "v",
                                "type": "uint256",
                                "value": "27"
                            },
                            {
                                "name": "r",
                                "type": "bytes32",
                                "value": "0x6819512d79dec80ee8aab771b55ca4ee3aa76e01a7e9466ee4f4c2e33519effb"
                            },
                            {
                                "name": "s",
                                "type": "bytes32",
                                "value": "0x692bd799361f7dd738494e35a6bac6ac87589a94acdc6b4cd765605c19865880"
                            }
                        ],
                        "constructorArguments": "",
                        "name": "ecrecover",
                        "returnParams": [
                            {
                                "name": "",
                                "type": "address",
                                "value": "0x21007601238299bc81eba60daf9bfef11f01705c"
                            }
                        ],
                        "signature": "ecrecover(bytes32,uint256,bytes32,bytes32)"
                    },
                    "errorInfo": "",
                    "fromAddress": "0x522d6f36c95a1b6509a14272c17747bbb582f2a6",
                    "gasUsed": 3000,
                    "id": 9,
                    "methodDecoded": true,
                    "operation": "STATICCALL",
                    "output": "0x00000000000000000000000021007601238299bc81eba60daf9bfef11f01705c",
                    "revert": false,
                    "revertMessage": "",
                    "selector": "0xdf569dad",
                    "status": true,
                    "value": "0"
                },
                "nodeType": 0
            }
        },
        "gasFlame": [
            {
                "children": [
                    {
                        "children": [
                            {
                                "children": [],
                                "depth": 0,
                                "name": "Initial Gas",
                                "value": 26040
                            },
                            {
                                "children": [
                                    {
                                        "children": [
                                            {
                                                "children": [],
                                                "depth": 2,
                                                "name": "transferFrom",
                                                "value": 44697
                                            }
                                        ],
                                        "depth": 1,
                                        "name": "transferFrom",
                                        "value": 51992
                                    },
                                    {
                                        "children": [
                                            {
                                                "children": [
                                                    {
                                                        "children": [
                                                            {
                                                                "children": [],
                                                                "depth": 4,
                                                                "name": "allowance",
                                                                "value": 2637
                                                            }
                                                        ],
                                                        "depth": 3,
                                                        "name": "allowance",
                                                        "value": 3426
                                                    },
                                                    {
                                                        "children": [
                                                            {
                                                                "children": [],
                                                                "depth": 4,
                                                                "name": "ecrecover",
                                                                "value": 3000
                                                            },
                                                            {
                                                                "children": [
                                                                    {
                                                                        "children": [],
                                                                        "depth": 5,
                                                                        "name": "transferFrom",
                                                                        "value": 16797
                                                                    }
                                                                ],
                                                                "depth": 4,
                                                                "name": "transferFrom",
                                                                "value": 17592
                                                            },
                                                            {
                                                                "children": [],
                                                                "depth": 4,
                                                                "name": "transferFrom",
                                                                "value": 32125
                                                            },
                                                            {
                                                                "children": [],
                                                                "depth": 4,
                                                                "name": "transferFrom",
                                                                "value": 8225
                                                            }
                                                        ],
                                                        "depth": 3,
                                                        "name": "light",
                                                        "value": 86112
                                                    },
                                                    {
                                                        "children": [
                                                            {
                                                                "children": [],
                                                                "depth": 4,
                                                                "name": "fallback",
                                                                "value": 40
                                                            }
                                                        ],
                                                        "depth": 3,
                                                        "name": "withdraw",
                                                        "value": 9180
                                                    },
                                                    {
                                                        "children": [
                                                            {
                                                                "children": [],
                                                                "depth": 4,
                                                                "name": "fallback",
                                                                "value": 1504
                                                            }
                                                        ],
                                                        "depth": 3,
                                                        "name": "fallback",
                                                        "value": 6329
                                                    },
                                                    {
                                                        "children": [
                                                            {
                                                                "children": [],
                                                                "depth": 4,
                                                                "name": "balanceOf",
                                                                "value": 529
                                                            }
                                                        ],
                                                        "depth": 3,
                                                        "name": "balanceOf",
                                                        "value": 1315
                                                    },
                                                    {
                                                        "children": [],
                                                        "depth": 3,
                                                        "name": "balanceOf",
                                                        "value": 534
                                                    },
                                                    {
                                                        "children": [
                                                            {
                                                                "children": [],
                                                                "depth": 4,
                                                                "name": "fallback",
                                                                "value": 40
                                                            }
                                                        ],
                                                        "depth": 3,
                                                        "name": "withdraw",
                                                        "value": 9180
                                                    },
                                                    {
                                                        "children": [],
                                                        "depth": 3,
                                                        "name": "fallback",
                                                        "value": 0
                                                    }
                                                ],
                                                "depth": 2,
                                                "name": "0x4495c088",
                                                "value": 138889
                                            }
                                        ],
                                        "depth": 1,
                                        "name": "swap",
                                        "value": 143748
                                    }
                                ],
                                "depth": 0,
                                "name": "Executed Gas",
                                "value": 218548
                            }
                        ],
                        "depth": -1,
                        "name": "Actual Gas Used",
                        "value": 197188
                    },
                    {
                        "children": [],
                        "depth": -1,
                        "name": "Refunded Gas",
                        "value": 47400
                    }
                ],
                "depth": -2,
                "name": "Total Gas",
                "value": 244588
            }
        ],
        "isConfirmed": true,
        "mainTrace": [
            {
                "children": [
                    {
                        "children": [
                            {
                                "children": [
                                    {
                                        "children": [
                                            {
                                                "children": [],
                                                "depth": 3,
                                                "id": 3,
                                                "order": 3
                                            }
                                        ],
                                        "depth": 2,
                                        "id": 2,
                                        "order": 2
                                    }
                                ],
                                "depth": 1,
                                "id": 1,
                                "order": 1
                            },
                            {
                                "children": [
                                    {
                                        "children": [
                                            {
                                                "children": [
                                                    {
                                                        "children": [],
                                                        "depth": 4,
                                                        "id": 7,
                                                        "order": 7
                                                    }
                                                ],
                                                "depth": 3,
                                                "id": 6,
                                                "order": 6
                                            },
                                            {
                                                "children": [
                                                    {
                                                        "children": [],
                                                        "depth": 4,
                                                        "id": 9,
                                                        "order": 9
                                                    },
                                                    {
                                                        "children": [
                                                            {
                                                                "children": [
                                                                    {
                                                                        "children": [],
                                                                        "depth": 6,
                                                                        "id": 12,
                                                                        "order": 12
                                                                    }
                                                                ],
                                                                "depth": 5,
                                                                "id": 11,
                                                                "order": 11
                                                            }
                                                        ],
                                                        "depth": 4,
                                                        "id": 10,
                                                        "order": 10
                                                    },
                                                    {
                                                        "children": [
                                                            {
                                                                "children": [],
                                                                "depth": 5,
                                                                "id": 14,
                                                                "order": 14
                                                            }
                                                        ],
                                                        "depth": 4,
                                                        "id": 13,
                                                        "order": 13
                                                    },
                                                    {
                                                        "children": [
                                                            {
                                                                "children": [],
                                                                "depth": 5,
                                                                "id": 16,
                                                                "order": 16
                                                            }
                                                        ],
                                                        "depth": 4,
                                                        "id": 15,
                                                        "order": 15
                                                    },
                                                    {
                                                        "children": [],
                                                        "depth": 4,
                                                        "id": 17,
                                                        "order": 17
                                                    }
                                                ],
                                                "depth": 3,
                                                "id": 8,
                                                "order": 8
                                            },
                                            {
                                                "children": [
                                                    {
                                                        "children": [],
                                                        "depth": 4,
                                                        "id": 19,
                                                        "order": 19
                                                    },
                                                    {
                                                        "children": [],
                                                        "depth": 4,
                                                        "id": 20,
                                                        "order": 20
                                                    }
                                                ],
                                                "depth": 3,
                                                "id": 18,
                                                "order": 18
                                            },
                                            {
                                                "children": [
                                                    {
                                                        "children": [
                                                            {
                                                                "children": [],
                                                                "depth": 5,
                                                                "id": 23,
                                                                "order": 23
                                                            }
                                                        ],
                                                        "depth": 4,
                                                        "id": 22,
                                                        "order": 22
                                                    }
                                                ],
                                                "depth": 3,
                                                "id": 21,
                                                "order": 21
                                            },
                                            {
                                                "children": [
                                                    {
                                                        "children": [],
                                                        "depth": 4,
                                                        "id": 25,
                                                        "order": 25
                                                    }
                                                ],
                                                "depth": 3,
                                                "id": 24,
                                                "order": 24
                                            },
                                            {
                                                "children": [],
                                                "depth": 3,
                                                "id": 26,
                                                "order": 26
                                            },
                                            {
                                                "children": [
                                                    {
                                                        "children": [],
                                                        "depth": 4,
                                                        "id": 28,
                                                        "order": 28
                                                    },
                                                    {
                                                        "children": [],
                                                        "depth": 4,
                                                        "id": 29,
                                                        "order": 29
                                                    }
                                                ],
                                                "depth": 3,
                                                "id": 27,
                                                "order": 27
                                            },
                                            {
                                                "children": [],
                                                "depth": 3,
                                                "id": 30,
                                                "order": 30
                                            }
                                        ],
                                        "depth": 2,
                                        "id": 5,
                                        "order": 5
                                    }
                                ],
                                "depth": 1,
                                "id": 4,
                                "order": 4
                            },
                            {
                                "children": [],
                                "depth": 1,
                                "id": 31,
                                "order": 31
                            }
                        ],
                        "depth": 0,
                        "id": 0,
                        "order": 0
                    }
                ],
                "depth": -1,
                "id": -1,
                "order": -1
            }
        ],
        "mainTraceNodeCount": 32,
        "parentIdMap": {
            "0": -1,
            "1": 0,
            "10": 8,
            "11": 10,
            "12": 11,
            "13": 8,
            "14": 13,
            "15": 8,
            "16": 15,
            "17": 8,
            "18": 5,
            "19": 18,
            "2": 1,
            "20": 18,
            "21": 5,
            "22": 21,
            "23": 22,
            "24": 5,
            "25": 24,
            "26": 5,
            "27": 5,
            "28": 27,
            "29": 27,
            "3": 2,
            "30": 5,
            "31": 0,
            "4": 0,
            "5": 4,
            "6": 5,
            "7": 6,
            "8": 5,
            "9": 8
        },
        "tidyTrace": [
            {
                "children": [
                    {
                        "children": [
                            {
                                "children": [
                                    {
                                        "children": [
                                            {
                                                "children": [],
                                                "depth": 3,
                                                "id": 3,
                                                "order": 3
                                            }
                                        ],
                                        "depth": 2,
                                        "id": 2,
                                        "order": 2
                                    }
                                ],
                                "depth": 1,
                                "id": 1,
                                "order": 1
                            },
                            {
                                "children": [
                                    {
                                        "children": [
                                            {
                                                "children": [
                                                    {
                                                        "children": [
                                                            {
                                                                "children": [
                                                                    {
                                                                        "children": [],
                                                                        "depth": 6,
                                                                        "id": 12,
                                                                        "order": 12
                                                                    }
                                                                ],
                                                                "depth": 5,
                                                                "id": 11,
                                                                "order": 11
                                                            }
                                                        ],
                                                        "depth": 4,
                                                        "id": 10,
                                                        "order": 10
                                                    },
                                                    {
                                                        "children": [
                                                            {
                                                                "children": [],
                                                                "depth": 5,
                                                                "id": 14,
                                                                "order": 14
                                                            }
                                                        ],
                                                        "depth": 4,
                                                        "id": 13,
                                                        "order": 13
                                                    },
                                                    {
                                                        "children": [
                                                            {
                                                                "children": [],
                                                                "depth": 5,
                                                                "id": 16,
                                                                "order": 16
                                                            }
                                                        ],
                                                        "depth": 4,
                                                        "id": 15,
                                                        "order": 15
                                                    },
                                                    {
                                                        "children": [],
                                                        "depth": 4,
                                                        "id": 17,
                                                        "order": 17
                                                    }
                                                ],
                                                "depth": 3,
                                                "id": 8,
                                                "order": 8
                                            },
                                            {
                                                "children": [
                                                    {
                                                        "children": [],
                                                        "depth": 4,
                                                        "id": 19,
                                                        "order": 19
                                                    },
                                                    {
                                                        "children": [],
                                                        "depth": 4,
                                                        "id": 20,
                                                        "order": 20
                                                    }
                                                ],
                                                "depth": 3,
                                                "id": 18,
                                                "order": 18
                                            },
                                            {
                                                "children": [
                                                    {
                                                        "children": [
                                                            {
                                                                "children": [],
                                                                "depth": 5,
                                                                "id": 23,
                                                                "order": 23
                                                            }
                                                        ],
                                                        "depth": 4,
                                                        "id": 22,
                                                        "order": 22
                                                    }
                                                ],
                                                "depth": 3,
                                                "id": 21,
                                                "order": 21
                                            },
                                            {
                                                "children": [
                                                    {
                                                        "children": [],
                                                        "depth": 4,
                                                        "id": 28,
                                                        "order": 28
                                                    },
                                                    {
                                                        "children": [],
                                                        "depth": 4,
                                                        "id": 29,
                                                        "order": 29
                                                    }
                                                ],
                                                "depth": 3,
                                                "id": 27,
                                                "order": 27
                                            },
                                            {
                                                "children": [],
                                                "depth": 3,
                                                "id": 30,
                                                "order": 30
                                            }
                                        ],
                                        "depth": 2,
                                        "id": 5,
                                        "order": 5
                                    }
                                ],
                                "depth": 1,
                                "id": 4,
                                "order": 4
                            },
                            {
                                "children": [],
                                "depth": 1,
                                "id": 31,
                                "order": 31
                            }
                        ],
                        "depth": 0,
                        "id": 0,
                        "order": 0
                    }
                ],
                "depth": -1,
                "id": -1,
                "order": -1
            }
        ],
        "tidyTraceNodeCount": 26
    },
    "state_change": {
        "stateChanges": [
            {
                "address": "0x522d6f36c95a1b6509a14272c17747bbb582f2a6",
                "erc": "",
                "slots": [
                    {
                        "current": "0x0000000006000000000000800004000208000000000000a00080000100000000",
                        "key": "0xd0796eb90091dde8744466c35b101553cac60c01ce155907b68b1ce9279827de",
                        "prev": "0x0000000002000000000000800004000208000000000000a00080000100000000"
                    }
                ],
                "storageVariables": [
                    {
                        "name": "_nonceGroups",
                        "type": "mapping(address => mapping(uint256 => uint256))",
                        "value": {
                            "pairs": [
                                {
                                    "key": "0x21007601238299bc81eba60daf9bfef11f01705c",
                                    "value": {
                                        "pairs": [
                                            {
                                                "key": "6516265388",
                                                "value": {
                                                    "current": "631873750011343307259806948129588804285751559822106528871876657152",
                                                    "prev": "210624583337114560468134837394907075010171178219910083854632747008",
                                                    "typeTag": 1
                                                }
                                            }
                                        ],
                                        "typeTag": 4
                                    }
                                }
                            ],
                            "typeTag": 4
                        }
                    }
                ]
            },
            {
                "address": "0xa0b86991c6218b36c1d19d4a2e9eb0ce3606eb48",
                "erc": "ERC-20",
                "slots": [
                    {
                        "current": "0xfffffffffffffffffffffffffffffffffffffffffffffffffffffffffff521a8",
                        "key": "0xdc6726e8fe44503e2d46efd148e4a155e50b6892c7a42f881e4e3e15207220eb",
                        "prev": "0xffffffffffffffffffffffffffffffffffffffffffffffffffffffffffffffff"
                    },
                    {
                        "current": "0x0000000000000000000000000000000000000000000000000000000000000000",
                        "key": "0x8673f0b778a7325e5a6015d052370e90988c09dcdb5e291b2e70e42a2e9d725b",
                        "prev": "0x00000000000000000000000000000000000000000000000000000000000ade57"
                    },
                    {
                        "current": "0x000000000000000000000000000000000000000000000000000000febdd4a4ac",
                        "key": "0x145c1646cde253e406793afcded90b224f40c8fd25084bb480728ed4a0dd52fa",
                        "prev": "0x000000000000000000000000000000000000000000000000000000febdc9c655"
                    },
                    {
                        "current": "0xffffffffffffffffffffffffffffffffffffffffffffffffffff60cb43cc4a39",
                        "key": "0x7a175a595696acbf0c286ca9863fa6c17c7778923e523496c5e699730c0f9698",
                        "prev": "0xffffffffffffffffffffffffffffffffffffffffffffffffffff60cb43d72890"
                    }
                ],
                "storageVariables": [
                    {
                        "name": "allowed",
                        "type": "mapping(address => mapping(address => uint256))",
                        "value": {
                            "pairs": [
                                {
                                    "key": "0x74de5d4fcbf63e00296fd95d33236b9794016631",
                                    "value": {
                                        "pairs": [
                                            {
                                                "key": "0x522d6f36c95a1b6509a14272c17747bbb582f2a6",
                                                "value": {
                                                    "current": "115792089237316195423570985008687907853269984665640564039457583832864285018681",
                                                    "prev": "115792089237316195423570985008687907853269984665640564039457583832864285730960",
                                                    "typeTag": 1
                                                }
                                            }
                                        ],
                                        "typeTag": 4
                                    }
                                },
                                {
                                    "key": "0xdf947f9648fcfb9bfd5bb7764a97ba54fc43c735",
                                    "value": {
                                        "pairs": [
                                            {
                                                "key": "0x881d40237659c251811cec9c364ef91dc08d300c",
                                                "value": {
                                                    "current": "115792089237316195423570985008687907853269984665640564039457584007913128927656",
                                                    "prev": "115792089237316195423570985008687907853269984665640564039457584007913129639935",
                                                    "typeTag": 1
                                                }
                                            }
                                        ],
                                        "typeTag": 4
                                    }
                                }
                            ],
                            "typeTag": 4
                        }
                    },
                    {
                        "name": "balances",
                        "type": "mapping(address => uint256)",
                        "value": {
                            "pairs": [
                                {
                                    "key": "0xaf0b0000f0210d0f421f0009c72406703b50506b",
                                    "value": {
                                        "current": "1094106522796",
                                        "prev": "1094105810517",
                                        "typeTag": 1
                                    }
                                },
                                {
                                    "key": "0xdf947f9648fcfb9bfd5bb7764a97ba54fc43c735",
                                    "value": {
                                        "current": "0",
                                        "prev": "712279",
                                        "typeTag": 1
                                    }
                                }
                            ],
                            "typeTag": 4
                        }
                    }
                ]
            },
            {
                "address": "0xc02aaa39b223fe8d0a0e5c4f27ead9083c756cc2",
                "erc": "ERC-20",
                "slots": [
                    {
                        "current": "0x00000000000000000000000000000000000000000000002843bf12c6bf201cf2",
                        "key": "0xca37c2ce89e7c63e04582dd587913457f8068c5f8d41c3e91b7f37079f60d709",
                        "prev": "0x00000000000000000000000000000000000000000000002843c1378724a7f579"
                    },
                    {
                        "current": "0x00000000000000000000000000000000000000000000000028abb8851ed99d29",
                        "key": "0xa4461abb3ee8caa1150021a78dfd0b69974359cfff702a511ce9fda276b8679b",
                        "prev": "0x00000000000000000000000000000000000000000000000028abb822da5f5d49"
                    }
                ],
                "storageVariables": [
                    {
                        "name": "balanceOf",
                        "type": "mapping(address => uint256)",
                        "value": {
                            "pairs": [
                                {
                                    "key": "0xaf0b0000f0210d0f421f0009c72406703b50506b",
                                    "value": {
                                        "current": "742751404114294349042",
                                        "prev": "742752007473003492729",
                                        "typeTag": 1
                                    }
                                },
                                {
                                    "key": "0xe2e7ae67e7ee6d4d90dfef945ab6de6a14db4c17",
                                    "value": {
                                        "current": "2930638864422378793",
                                        "prev": "2930638442366721353",
                                        "typeTag": 1
                                    }
                                }
                            ],
                            "typeTag": 4
                        }
                    }
                ]
            }
        ]
    }
}