{
    "balance_change": {
        "balanceChanges": [
            {
                "account": "0xda54ace5ee1f8c9b3bc44ca3659a76c5190deba0",
                "assets": [
                    {
                        "address": "0xab4e1802c61e12fd7b10a69a226f5d727c76a8aa",
                        "amount": "200",
                        "iconUrl": "",
                        "isERC1155": false,
                        "isERC721": false,
                        "sign": false,
                        "value": ""
                    }
                ]
            },
            {
                "account": "0x993e6d6c557ca24a00da507f56bda599a9886a44",
                "assets": [
                    {
                        "address": "0xab4e1802c61e12fd7b10a69a226f5d727c76a8aa",
                        "amount": "200",
                        "iconUrl": "",
                        "isERC1155": false,
                        "isERC721": false,
                        "sign": true,
                        "value": ""
                    }
                ]
            }
        ]
    },
    "profile": {
        "basic_info": {
            "baseFee": "",
            "blockNumber": 6664424,
            "callData": "0xf907fc5b000000000000000000000000d1f6f0bfd60caa4f5b38de68b660982acbb4ffaf00000000000000000000000000000000000000000000000ad78ebc5ac6200000",
            "debugEnable": true,
            "errorInfo": "",
            "eventCount": 1,
            "feeRecipient": "0xea674fdde714fd979de3edf0f56aa9716b898ec8",
            "formatValue": "0",
            "gasLimit": 2100000,
            "gasPrice": "9",
            "gasUsed": 281001,
            "intTxnCount": 3,
            "internalRevert": false,
            "internalRevertMessage": "",
            "isContractCreation": false,
            "isFlashloan": false,
            "maxFee": "",
            "nonce": 56,
            "overwritedBlockNumber": -1,
            "priorityFee": "",
            "receiver": "0x993e6d6c557ca24a00da507f56bda599a9886a44",
            "revertMessage": "",
            "sender": "0xda54ace5ee1f8c9b3bc44ca3659a76c5190deba0",
            "simulationEnable": true,
            "sourceTxnHash": "0x0cad227276488df19e88041c19c7d0a425d25722623b9acf0d78876449f01f2d",
            "status": true,
            "timestamp": "2018-11-08T05:11:44Z",
            "transactionFee": "0.002529009",
            "txnHash": "0x0cad227276488df19e88041c19c7d0a425d25722623b9acf0d78876449f01f2d",
            "txnIndex": 78,
            "type": 0,
            "value": "0"
        },
        "fund_flow": [
            {
                "amount": "200",
                "from": "0xda54ace5ee1f8c9b3bc44ca3659a76c5190deba0",
                "id": 1,
                "isERC1155": false,
                "isERC721": false,
                "isReverted": false,
                "order": 1,
                "to": "0x993e6d6c557ca24a00da507f56bda599a9886a44",
                "token": "0xab4e1802c61e12fd7b10a69a226f5d727c76a8aa"
            }
        ],
        "token_infos": [
            {
                "address": "0xab4e1802c61e12fd7b10a69a226f5d727c76a8aa",
                "decimals": 18
            },
            {
                "address": "0xc02aaa39b223fe8d0a0e5c4f27ead9083c756cc2",
                "decimals": 18
            },
            {
                "address": "0xeeeeeeeeeeeeeeeeeeeeeeeeeeeeeeeeeeeeeeee",
                "decimals": 18
            }
        ]
    },
    "address_label": {
        "labels": [
            {
                "address": "0x0000000000000000000000000000000000000003",
                "label": "Precompiled"
            },
            {
                "address": "0x0000000000000000000000000000000000000004",
                "label": "Precompiled"
            },
            {
                "address": "0xeeeeeeeeeeeeeeeeeeeeeeeeeeeeeeeeeeeeeeee",
                "label": "Ether"
            },
            {
                "address": "0xab4e1802c61e12fd7b10a69a226f5d727c76a8aa",
                "label": "ODF"
            },
            {
                "address": "0x0000000000000000000000000000000000000001",
                "label": "Precompiled"
            },
            {
                "address": "0x0000000000000000000000000000000000000002",
                "label": "Precompiled"
            }
        ]
    },
    "trace": {
        "accountLabels": null,
        "dataMap": {
            "-1": {
                "invocation": {
                    "address": "0xda54ace5ee1f8c9b3bc44ca3659a76c5190deba0",
                    "callData": "",
                    "decodedMethod": null,
                    "errorInfo": "",
                    "fromAddress": "",
                    "gasUsed": 0,
                    "id": -1,
                    "methodDecoded": false,
                    "operation": "",
                    "output": "",
                    "revert": false,
                    "revertMessage": "",
                    "selector": "",
                    "status": false,
                    "value": ""
                },
                "nodeType": 0
            },
            "0": {
                "invocation": {
                    "address": "0x993e6d6c557ca24a00da507f56bda599a9886a44",
                    "callData": "0x000000000000000000000000d1f6f0bfd60caa4f5b38de68b660982acbb4ffaf00000000000000000000000000000000000000000000000ad78ebc5ac6200000",
                    "decodedMethod": null,
                    "errorInfo": "",
                    "fromAddress": "0xda54ace5ee1f8c9b3bc44ca3659a76c5190deba0",
                    "gasUsed": 281001,
                    "id": 0,
                    "methodDecoded": false,
                    "operation": "CALL",
                    "output": "",
                    "revert": false,
                    "revertMessage": "",
                    "selector": "0xf907fc5b",
                    "status": true,
                    "value": "0"
                },
                "nodeType": 0
            },
            "1": {
                "invocation": {
                    "address": "0xab4e1802c61e12fd7b10a69a226f5d727c76a8aa",
                    "callData": "0x000000000000000000000000da54ace5ee1f8c9b3bc44ca3659a76c5190deba0",
                    "decodedMethod": {
                        "callParams": [
                            {
                                "name": "account",
                                "type": "address",
                                "value": "0xda54ace5ee1f8c9b3bc44ca3659a76c5190deba0"
                            }
                        ],
                        "constructorArguments": "",
                        "name": "balanceOf",
                        "returnParams": [
                            {
                                "decimalAvailable": true,
                                "name": "",
                                "type": "uint256",
                                "value": "235,000,000,000,000,000,000"
                            }
                        ],
                        "signature": "balanceOf(address)"
                    },
                    "errorInfo": "",
                    "fromAddress": "0x993e6d6c557ca24a00da507f56bda599a9886a44",
                    "gasUsed": 664,
                    "id": 1,
                    "methodDecoded": true,
                    "operation": "CALL",
                    "output": "0x00000000000000000000000000000000000000000000000cbd47b6eaa8cc0000",
                    "revert": false,
                    "revertMessage": "",
                    "selector": "0x70a08231",
                    "status": true,
                    "value": "0"
                },
                "nodeType": 0
            },
            "2": {
                "invocation": {
                    "address": "0xab4e1802c61e12fd7b10a69a226f5d727c76a8aa",
                    "callData": "0x000000000000000000000000da54ace5ee1f8c9b3bc44ca3659a76c5190deba0000000000000000000000000993e6d6c557ca24a00da507f56bda599a9886a4400000000000000000000000000000000000000000000000ad78ebc5ac6200000",
                    "decodedMethod": {
                        "callParams": [
                            {
                                "name": "sender",
                                "type": "address",
                                "value": "0xda54ace5ee1f8c9b3bc44ca3659a76c5190deba0"
                            },
                            {
                                "name": "recipient",
                                "type": "address",
                                "value": "0x993e6d6c557ca24a00da507f56bda599a9886a44"
                            },
                            {
                                "decimalAvailable": true,
                                "name": "amount",
                                "type": "uint256",
                                "value": "200,000,000,000,000,000,000"
                            }
                        ],
                        "constructorArguments": "",
                        "name": "transferFrom",
                        "returnParams": [
                            {
                                "name": "",
                                "type": "bool",
                                "value": true
                            }
                        ],
                        "signature": "transferFrom(address,address,uint256)"
                    },
                    "errorInfo": "",
                    "fromAddress": "0x993e6d6c557ca24a00da507f56bda599a9886a44",
                    "gasUsed": 22365,
                    "id": 2,
                    "methodDecoded": true,
                    "operation": "CALL",
                    "output": "0x0000000000000000000000000000000000000000000000000000000000000001",
                    "revert": false,
                    "revertMessage": "",
                    "selector": "0x23b872dd",
                    "status": true,
                    "value": "0"
                },
                "nodeType": 0
            },
            "3": {
                "event": {
                    "contract": "0xab4e1802c61e12fd7b10a69a226f5d727c76a8aa",
                    "decodedLog": {
                        "name": "Transfer",
                        "params": [
                            {
                                "name": "from",
                                "type": "address",
                                "value": "0xda54ace5ee1f8c9b3bc44ca3659a76c5190deba0"
                            },
                            {
                                "name": "to",
                                "type": "address",
                                "value": "0x993e6d6c557ca24a00da507f56bda599a9886a44"
                            },
                            {
                                "decimalAvailable": true,
                                "name": "value",
                                "type": "uint256",
                                "value": "200,000,000,000,000,000,000"
                            }
                        ],
                        "signature": "Transfer(address,address,uint256)"
                    },
                    "id": 3,
                    "logData": "0x00000000000000000000000000000000000000000000000ad78ebc5ac6200000",
                    "logDecoded": true,
                    "operation": "EVENT",
                    "revert": false,
                    "status": true,
                    "topics": [
                        "0xddf252ad1be2c89b69c2b068fc378daa952ba7f163c4a11628f55a4df523b3ef",
                        "0x000000000000000000000000da54ace5ee1f8c9b3bc44ca3659a76c5190deba0",
                        "0x000000000000000000000000993e6d6c557ca24a00da507f56bda599a9886a44"
                    ]
                },
                "nodeType": 1
            },
            "4": {
                "invocation": {
                    "address": "0xab4e1802c61e12fd7b10a69a226f5d727c76a8aa",
                    "callData": "0x000000000000000000000000993e6d6c557ca24a00da507f56bda599a9886a44",
                    "decodedMethod": {
                        "callParams": [
                            {
                                "name": "account",
                                "type": "address",
                                "value": "0x993e6d6c557ca24a00da507f56bda599a9886a44"
                            }
                        ],
                        "constructorArguments": "",
                        "name": "balanceOf",
                        "returnParams": [
                            {
                                "decimalAvailable": true,
                                "name": "",
                                "type": "uint256",
                                "value": "1,546,352,000,000,000,000,000,000"
                            }
                        ],
                        "signature": "balanceOf(address)"
                    },
                    "errorInfo": "",
                    "fromAddress": "0x993e6d6c557ca24a00da507f56bda599a9886a44",
                    "gasUsed": 664,
                    "id": 4,
                    "methodDecoded": true,
                    "operation": "CALL",
                    "output": "0x000000000000000000000000000000000000000000014773e8eea3f89bc00000",
                    "revert": false,
                    "revertMessage": "",
                    "selector": "0x70a08231",
                    "status": true,
                    "value": "0"
                },
                "nodeType": 0
            }
        },
        "gasFlame": [
            {
                "children": [
                    {
                        "children": [
                            {
                                "children": [],
                                "depth": 0,
                                "name": "Initial Gas",
                                "value": 23256
                            },
                            {
                                "children": [
                                    {
                                        "children": [],
                                        "depth": 1,
                                        "name": "balanceOf",
                                        "value": 664
                                    },
                                    {
                                        "children": [],
                                        "depth": 1,
                                        "name": "transferFrom",
                                        "value": 22365
                                    },
                                    {
                                        "children": [],
                                        "depth": 1,
                                        "name": "balanceOf",
                                        "value": 664
                                    }
                                ],
                                "depth": 0,
                                "name": "Executed Gas",
                                "value": 257745
                            }
                        ],
                        "depth": -1,
                        "name": "Actual Gas Used",
                        "value": 281001
                    },
                    {
                        "children": [],
                        "depth": -1,
                        "name": "Refunded Gas",
                        "value": 0
                    }
                ],
                "depth": -2,
                "name": "Total Gas",
                "value": 281001
            }
        ],
        "isConfirmed": true,
        "mainTrace": [
            {
                "children": [
                    {
                        "children": [
                            {
                                "children": [],
                                "depth": 1,
                                "id": 1,
                                "order": 1
                            },
                            {
                                "children": [
                                    {
                                        "children": [],
                                        "depth": 2,
                                        "id": 3,
                                        "order": 3
                                    }
                                ],
                                "depth": 1,
                                "id": 2,
                                "order": 2
                            },
                            {
                                "children": [],
                                "depth": 1,
                                "id": 4,
                                "order": 4
                            }
                        ],
                        "depth": 0,
                        "id": 0,
                        "order": 0
                    }
                ],
                "depth": -1,
                "id": -1,
                "order": -1
            }
        ],
        "mainTraceNodeCount": 5,
        "parentIdMap": {
            "0": -1,
            "1": 0,
            "2": 0,
            "3": 2,
            "4": 0
        },
        "tidyTrace": [
            {
                "children": [
                    {
                        "children": [
                            {
                                "children": [],
                                "depth": 1,
                                "id": 1,
                                "order": 1
                            },
                            {
                                "children": [
                                    {
                                        "children": [],
                                        "depth": 2,
                                        "id": 3,
                                        "order": 3
                                    }
                                ],
                                "depth": 1,
                                "id": 2,
                                "order": 2
                            },
                            {
                                "children": [],
                                "depth": 1,
                                "id": 4,
                                "order": 4
                            }
                        ],
                        "depth": 0,
                        "id": 0,
                        "order": 0
                    }
                ],
                "depth": -1,
                "id": -1,
                "order": -1
            }
        ],
        "tidyTraceNodeCount": 5
    },
    "state_change": {
        "stateChanges": [
            {
                "address": "0x993e6d6c557ca24a00da507f56bda599a9886a44",
                "erc": "",
                "slots": [
                    {
                        "current": "0x000000000000000000000000000000000000000000000008ac7230489e800000",
                        "key": "0xdc2f435272576bbb09719a187a865f5ebf209a79de55d6412ab3500e1218a8d6",
                        "prev": "0x0000000000000000000000000000000000000000000000000000000000000000"
                    },
                    {
                        "current": "0x0000000000000000000000000000000000000000000003fd8908903584f00000",
                        "key": "0xfe8237e2ec478933feedcbde20a9f8aca27d0bcc532038d637adc345e8602d10",
                        "prev": "0x0000000000000000000000000000000000000000000003fcfe416d30fb080000"
                    },
                    {
                        "current": "0x00000000000000000000000069e3d3a20c061174831d026a30d54885292a502b",
                        "key": "0x0000000000000000000000000000000000000000000000000000000000000004",
                        "prev": "0x00000000000000000000000079767a4db80acd3c4ce0fd5b6c05d8db6fc5204c"
                    },
                    {
                        "current": "0x00000000000000000000000000000000000000000000019d4c4116511a200000",
                        "key": "0x8c1d5d876683ec76ce05f42b9124baf1f626f8fb6b0a7a45895c009b48cca091",
                        "prev": "0x00000000000000000000000000000000000000000000019d14be3b827c900000"
                    },
                    {
                        "current": "0x00000000000000000000000000000000000000000000002b5e3af16b18800000",
                        "key": "0xc371f28deb59cc08e8d0294ab506613526db789c4bb46cebb0e80f86bacc7f47",
                        "prev": "0x00000000000000000000000000000000000000000000002086ac351052600000"
                    },
                    {
                        "current": "0x000000000000000000000000000000000000000000000000000000000000ffab",
                        "key": "0xa108c8cee89e721b8b02adb53930dc8ae7b01b9a325a5c25f9fabff64c9aea4c",
                        "prev": "0x0000000000000000000000000000000000000000000000000000000000000000"
                    },
                    {
                        "current": "0x0000000000000000000000000000000000000000000004256f15d4b6c4700000",
                        "key": "0x35932ae63e9d8eccf720b3ccdcf33ba257bc45e9ad53feee7216ca2eef3db757",
                        "prev": "0x0000000000000000000000000000000000000000000004251bd18c80d8180000"
                    },
                    {
                        "current": "0x00000000000000000000000097baa6d93ce6e74ab489919cb61381cc31cfd26a",
                        "key": "0x0000000000000000000000000000000000000000000000000000000000000007",
                        "prev": "0x0000000000000000000000000e9945e64c4381e9ce2010938c98d61e3d0733dc"
                    },
                    {
                        "current": "0x0000000000000000000000000000000000000000000ad3f529f63bfc37600000",
                        "key": "0x0000000000000000000000000000000000000000000000000000000000000034",
                        "prev": "0x0000000000000000000000000000000000000000000ad3ea52677fa171400000"
                    },
                    {
                        "current": "0x0000000000000000000000000e9945e64c4381e9ce2010938c98d61e3d0733dc",
                        "key": "0x0000000000000000000000000000000000000000000000000000000000000006",
                        "prev": "0x000000000000000000000000efa971545b260ad349807b652f1b48ffbe13e525"
                    },
                    {
                        "current": "0x0000000000000000000000000000000000000000000000000000000000000004",
                        "key": "0xc371f28deb59cc08e8d0294ab506613526db789c4bb46cebb0e80f86bacc7f3b",
                        "prev": "0x0000000000000000000000000000000000000000000000000000000000000003"
                    },
                    {
                        "current": "0x000000000000000000000000efa971545b260ad349807b652f1b48ffbe13e525",
                        "key": "0x0000000000000000000000000000000000000000000000000000000000000005",
                        "prev": "0x00000000000000000000000069e3d3a20c061174831d026a30d54885292a502b"
                    },
                    {
                        "current": "0x00000000000000000000000080376a0e4c1eafa0754924e6cd445b4de2e2f2aa",
                        "key": "0x0000000000000000000000000000000000000000000000000000000000000008",
                        "prev": "0x00000000000000000000000097baa6d93ce6e74ab489919cb61381cc31cfd26a"
                    },
                    {
                        "current": "0x000000000000000000000000000000000000000000000014464aea768c180000",
                        "key": "0xfe8237e2ec478933feedcbde20a9f8aca27d0bcc532038d637adc345e8602d15",
                        "prev": "0x000000000000000000000000000000000000000000000013bb83c77202300000"
                    },
                    {
                        "current": "0x00000000000000000000000000000000000000000000000caf67003701680000",
                        "key": "0x35932ae63e9d8eccf720b3ccdcf33ba257bc45e9ad53feee7216ca2eef3db75c",
                        "prev": "0x00000000000000000000000000000000000000000000000c5c22b80115100000"
                    },
                    {
                        "current": "0x000000000000000000000000000000000000000000000000000000000000001e",
                        "key": "0xc371f28deb59cc08e8d0294ab506613526db789c4bb46cebb0e80f86bacc7f4a",
                        "prev": "0x000000000000000000000000000000000000000000000000000000000000001d"
                    },
                    {
                        "current": "0x0000000000000000000000000000000000000000000115321dcbd2cc6bf00000",
                        "key": "0x0000000000000000000000000000000000000000000000000000000000000035",
                        "prev": "0x000000000000000000000000000000000000000000011531083d8cc358200000"
                    },
                    {
                        "current": "0x000000000000000000000000000000000000000000000000000000000000ffab",
                        "key": "0x0000000000000000000000000000000000000000000000000000000000000037",
                        "prev": "0x000000000000000000000000000000000000000000000000000000000000ffaa"
                    },
                    {
                        "current": "0x000000000000000000000000da54ace5ee1f8c9b3bc44ca3659a76c5190deba0",
                        "key": "0x000000000000000000000000000000000000000000000000000000000000000b",
                        "prev": "0x00000000000000000000000080376a0e4c1eafa0754924e6cd445b4de2e2f2aa"
                    },
                    {
                        "current": "0x00000000000000000000000079767a4db80acd3c4ce0fd5b6c05d8db6fc5204c",
                        "key": "0x0000000000000000000000000000000000000000000000000000000000000003",
                        "prev": "0x00000000000000000000000077f921a1f31c7fd8dc8d3625f626403aac7dc618"
                    },
                    {
                        "current": "0x00000000000000000000000000000000000000000000003635c9adc5dea00000",
                        "key": "0xc371f28deb59cc08e8d0294ab506613526db789c4bb46cebb0e80f86bacc7f46",
                        "prev": "0x00000000000000000000000000000000000000000000002b5e3af16b18800000"
                    },
                    {
                        "current": "0x000000000000000000000000000000000000000000000000000000000000008b",
                        "key": "0x1222d05da38d858a200f35e0c27732f3688c9a26f9c9b2ace27cf5969164f40c",
                        "prev": "0x0000000000000000000000000000000000000000000000000000000000000000"
                    },
                    {
                        "current": "0x00000000000000000000000077f921a1f31c7fd8dc8d3625f626403aac7dc618",
                        "key": "0x0000000000000000000000000000000000000000000000000000000000000002",
                        "prev": "0x00000000000000000000000040a48916e284af40894c6ebf6b81d06675d222ee"
                    },
                    {
                        "current": "0x00000000000000000000000000000000000000000000000b2ad30490b2780000",
                        "key": "0x8c1d5d876683ec76ce05f42b9124baf1f626f8fb6b0a7a45895c009b48cca096",
                        "prev": "0x00000000000000000000000000000000000000000000000af35029c214e80000"
                    }
                ],
                "storageVariables": []
            },
            {
                "address": "0xab4e1802c61e12fd7b10a69a226f5d727c76a8aa",
                "erc": "",
                "slots": [
                    {
                        "current": "0x000000000000000000000000000000000000000000014773e8eea3f89bc00000",
                        "key": "0x6a6e6ed53656caa298c0ea053f662285e4122fd996ec4140914cb74ec72291e5",
                        "prev": "0x000000000000000000000000000000000000000000014769115fe79dd5a00000"
                    },
                    {
                        "current": "0x0000000000000000000000000000000000000000000001e79eb38a728eac0000",
                        "key": "0x13930740541e0f0a1ed94f78213ae17d23ac893e5dcdc12c803536b0c8e2dd0a",
                        "prev": "0x0000000000000000000000000000000000000000000001f2764246cd54cc0000"
                    },
                    {
                        "current": "0x000000000000000000000000000000000000000000000001e5b8fa8fe2ac0000",
                        "key": "0x90e6ddc19cb2cd77cae6c7bb401abeb34b3835bbc8cfee52bb47fc5cdf9cd839",
                        "prev": "0x00000000000000000000000000000000000000000000000cbd47b6eaa8cc0000"
                    }
                ],
                "storageVariables": []
            }
        ]
    }
}