{
    "balance_change": {
        "balanceChanges": [
            {
                "account": "0x46340b20830761efd32832a74d7169b29feb9758",
                "assets": [
                    {
                        "address": "0x1776e1f26f98b1a5df9cd347953a26dd3cb46671",
                        "amount": "6.73",
                        "iconUrl": "https://assets.blocksec.com/icon/e994479c0503113a9ee7bfc586c080c5c9b07aa1649a265110aeb6db8bde96df.png",
                        "isERC1155": false,
                        "isERC721": false,
                        "sign": false,
                        "value": "198.26580000000000574"
                    }
                ]
            },
            {
                "account": "0xe1bef8cc5a9a4364e04372a42eef673b7896e3e8",
                "assets": [
                    {
                        "address": "0x1776e1f26f98b1a5df9cd347953a26dd3cb46671",
                        "amount": "6.73",
                        "iconUrl": "https://assets.blocksec.com/icon/e994479c0503113a9ee7bfc586c080c5c9b07aa1649a265110aeb6db8bde96df.png",
                        "isERC1155": false,
                        "isERC721": false,
                        "sign": true,
                        "value": "198.26580000000000574"
                    }
                ]
            }
        ]
    },
    "profile": {
        "basic_info": {
            "baseFee": "12.238369304",
            "blockNumber": 19927760,
            "callData": "0xa9059cbb000000000000000000000000e1bef8cc5a9a4364e04372a42eef673b7896e3e80000000000000000000000000000000000000000000000005d65c357ca610000",
            "debugEnable": true,
            "errorInfo": "",
            "eventCount": 1,
            "feeRecipient": "0x95222290dd7278aa3ddd389cc1e1d165cc4bafe5",
            "formatValue": "0",
            "gasLimit": 350000,
            "gasPrice": "13.211740992",
            "gasUsed": 54902,
            "intTxnCount": 0,
            "internalRevert": false,
            "internalRevertMessage": "",
            "isContractCreation": false,
            "isFlashloan": false,
            "maxFee": "",
            "nonce": 11389877,
            "overwritedBlockNumber": -1,
            "priorityFee": "",
            "receiver": "0x1776e1f26f98b1a5df9cd347953a26dd3cb46671",
            "revertMessage": "",
            "sender": "0x46340b20830761efd32832a74d7169b29feb9758",
            "simulationEnable": true,
            "sourceTxnHash": "0x0e2450c8c49fed8e24235b4b00b611fb30a08e4518f06c9af2a00d978b999420",
            "status": true,
            "timestamp": "2024-05-22T20:19:11Z",
            "transactionFee": "0.000725351003942784",
            "txnHash": "0x0e2450c8c49fed8e24235b4b00b611fb30a08e4518f06c9af2a00d978b999420",
            "txnIndex": 66,
            "type": 0,
            "value": "0"
        },
        "fund_flow": [
            {
                "amount": "6.73",
                "from": "0x46340b20830761efd32832a74d7169b29feb9758",
                "id": 1,
                "isERC1155": false,
                "isERC721": false,
                "isReverted": false,
                "order": 1,
                "to": "0xe1bef8cc5a9a4364e04372a42eef673b7896e3e8",
                "token": "0x1776e1f26f98b1a5df9cd347953a26dd3cb46671"
            }
        ],
        "token_infos": [
            {
                "address": "0x1776e1f26f98b1a5df9cd347953a26dd3cb46671",
                "decimals": 18
            },
            {
                "address": "0xc02aaa39b223fe8d0a0e5c4f27ead9083c756cc2",
                "decimals": 18
            },
            {
                "address": "0xeeeeeeeeeeeeeeeeeeeeeeeeeeeeeeeeeeeeeeee",
                "decimals": 18
            }
        ]
    },
    "address_label": {
        "labels": [
            {
                "address": "0xeeeeeeeeeeeeeeeeeeeeeeeeeeeeeeeeeeeeeeee",
                "label": "Ether"
            },
            {
                "address": "0x1776e1f26f98b1a5df9cd347953a26dd3cb46671",
                "label": "Numeraire: NMR Token"
            },
            {
                "address": "0x46340b20830761efd32832a74d7169b29feb9758",
                "label": "Crypto.com 2"
            },
            {
                "address": "0x0000000000000000000000000000000000000001",
                "label": "Precompiled"
            },
            {
                "address": "0x0000000000000000000000000000000000000002",
                "label": "Precompiled"
            },
            {
                "address": "0x0000000000000000000000000000000000000003",
                "label": "Precompiled"
            },
            {
                "address": "0x0000000000000000000000000000000000000004",
                "label": "Precompiled"
            }
        ]
    },
    "trace": {
        "accountLabels": null,
        "dataMap": {
            "-1": {
                "invocation": {
                    "address": "0x46340b20830761efd32832a74d7169b29feb9758",
                    "callData": "",
                    "decodedMethod": null,
                    "errorInfo": "",
                    "fromAddress": "",
                    "gasUsed": 0,
                    "id": -1,
                    "methodDecoded": false,
                    "operation": "",
                    "output": "",
                    "revert": false,
                    "revertMessage": "",
                    "selector": "",
                    "status": false,
                    "value": ""
                },
                "nodeType": 0
            },
            "0": {
                "invocation": {
                    "address": "0x1776e1f26f98b1a5df9cd347953a26dd3cb46671",
                    "callData": "0x000000000000000000000000e1bef8cc5a9a4364e04372a42eef673b7896e3e80000000000000000000000000000000000000000000000005d65c357ca610000",
                    "decodedMethod": {
                        "callParams": [
                            {
                                "name": "_to",
                                "type": "address",
                                "value": "0xe1bef8cc5a9a4364e04372a42eef673b7896e3e8"
                            },
                            {
                                "decimalAvailable": true,
                                "name": "_value",
                                "type": "uint256",
                                "value": "6,730,000,000,000,000,000"
                            }
                        ],
                        "constructorArguments": "",
                        "name": "transfer",
                        "returnParams": [
                            {
                                "name": "ok",
                                "type": "bool",
                                "value": true
                            }
                        ],
                        "signature": "transfer(address,uint256)"
                    },
                    "errorInfo": "",
                    "fromAddress": "0x46340b20830761efd32832a74d7169b29feb9758",
                    "gasUsed": 54902,
                    "id": 0,
                    "methodDecoded": true,
                    "operation": "CALL",
                    "output": "0x0000000000000000000000000000000000000000000000000000000000000001",
                    "revert": false,
                    "revertMessage": "",
                    "selector": "0xa9059cbb",
                    "status": true,
                    "value": "0"
                },
                "nodeType": 0
            },
            "1": {
                "event": {
                    "contract": "0x1776e1f26f98b1a5df9cd347953a26dd3cb46671",
                    "decodedLog": {
                        "name": "Transfer",
                        "params": [
                            {
                                "name": "from",
                                "type": "address",
                                "value": "0x46340b20830761efd32832a74d7169b29feb9758"
                            },
                            {
                                "name": "to",
                                "type": "address",
                                "value": "0xe1bef8cc5a9a4364e04372a42eef673b7896e3e8"
                            },
                            {
                                "decimalAvailable": true,
                                "name": "value",
                                "type": "uint256",
                                "value": "6,730,000,000,000,000,000"
                            }
                        ],
                        "signature": "Transfer(address,address,uint256)"
                    },
                    "id": 1,
                    "logData": "0x0000000000000000000000000000000000000000000000005d65c357ca610000",
                    "logDecoded": true,
                    "operation": "EVENT",
                    "revert": false,
                    "status": true,
                    "topics": [
                        "0xddf252ad1be2c89b69c2b068fc378daa952ba7f163c4a11628f55a4df523b3ef",
                        "0x00000000000000000000000046340b20830761efd32832a74d7169b29feb9758",
                        "0x000000000000000000000000e1bef8cc5a9a4364e04372a42eef673b7896e3e8"
                    ]
                },
                "nodeType": 1
            }
        },
        "gasFlame": [
            {
                "children": [
                    {
                        "children": [
                            {
                                "children": [],
                                "depth": 0,
                                "name": "Initial Gas",
                                "value": 21632
                            },
                            {
                                "children": [],
                                "depth": 0,
                                "name": "Executed Gas",
                                "value": 33270
                            }
                        ],
                        "depth": -1,
                        "name": "Actual Gas Used",
                        "value": 54902
                    },
                    {
                        "children": [],
                        "depth": -1,
                        "name": "Refunded Gas",
                        "value": 0
                    }
                ],
                "depth": -2,
                "name": "Total Gas",
                "value": 54902
            }
        ],
        "isConfirmed": true,
        "mainTrace": [
            {
                "children": [
                    {
                        "children": [
                            {
                                "children": [],
                                "depth": 1,
                                "id": 1,
                                "order": 1
                            }
                        ],
                        "depth": 0,
                        "id": 0,
                        "order": 0
                    }
                ],
                "depth": -1,
                "id": -1,
                "order": -1
            }
        ],
        "mainTraceNodeCount": 2,
        "parentIdMap": {
            "0": -1,
            "1": 0
        },
        "tidyTrace": [
            {
                "children": [
                    {
                        "children": [
                            {
                                "children": [],
                                "depth": 1,
                                "id": 1,
                                "order": 1
                            }
                        ],
                        "depth": 0,
                        "id": 0,
                        "order": 0
                    }
                ],
                "depth": -1,
                "id": -1,
                "order": -1
            }
        ],
        "tidyTraceNodeCount": 2
    },
    "state_change": {
        "stateChanges": [
            {
                "address": "0x1776e1f26f98b1a5df9cd347953a26dd3cb46671",
                "erc": "ERC-20",
                "slots": [
                    {
                        "current": "0x0000000000000000000000000000000000000000000000005d65c357ca610000",
                        "key": "0x03ddcba1457501a91091ed4018ea9508be0ac749717f08ea0abda77cfda24d70",
                        "prev": "0x0000000000000000000000000000000000000000000000000000000000000000"
                    },
                    {
                        "current": "0x00000000000000000000000000000000000000000000007c37379d508706fe90",
                        "key": "0xb0226c45357344b6d771ee3520fad2fa9a4134eef111a64f55300ba8728eb8a5",
                        "prev": "0x00000000000000000000000000000000000000000000007c949d60a85167fe90"
                    }
                ],
                "storageVariables": []
            }
        ]
    }
}