{
    "balance_change": {
        "balanceChanges": [
            {
                "account": "0x9862d074e33003726fa05c74f0142995f33a3250",
                "assets": [
                    {
                        "address": "0xeeeeeeeeeeeeeeeeeeeeeeeeeeeeeeeeeeeeeeee",
                        "amount": "2",
                        "iconUrl": "https://assets.blocksec.com/image/1663669189317-3.png",
                        "isERC1155": false,
                        "isERC721": false,
                        "sign": true,
                        "value": ""
                    }
                ]
            },
            {
                "account": "0x02be0b12d8e1235e2299aa49d0f5625df367d90a",
                "assets": [
                    {
                        "address": "0xeeeeeeeeeeeeeeeeeeeeeeeeeeeeeeeeeeeeeeee",
                        "amount": "2",
                        "iconUrl": "https://assets.blocksec.com/image/1663669189317-3.png",
                        "isERC1155": false,
                        "isERC721": false,
                        "sign": false,
                        "value": ""
                    }
                ]
            }
        ]
    },
    "profile": {
        "basic_info": {
            "baseFee": "",
            "blockNumber": 5515396,
            "callData": "0xff03ad560000000000000000000000009862d074e33003726fa05c74f0142995f33a32500000000000000000000000000000000000000000000000001bc16d674ec80000",
            "debugEnable": true,
            "errorInfo": "",
            "eventCount": 0,
            "feeRecipient": "0x5a0b54d5dc17e0aadc383d2db43b0a0d3e029c4c",
            "formatValue": "0",
            "gasLimit": 90000,
            "gasPrice": "15",
            "gasUsed": 31596,
            "intTxnCount": 1,
            "internalRevert": false,
            "internalRevertMessage": "",
            "isContractCreation": false,
            "isFlashloan": false,
            "maxFee": "",
            "nonce": 160667,
            "overwritedBlockNumber": -1,
            "priorityFee": "",
            "receiver": "0x02be0b12d8e1235e2299aa49d0f5625df367d90a",
            "revertMessage": "",
            "sender": "0x9862d074e33003726fa05c74f0142995f33a3250",
            "simulationEnable": true,
            "sourceTxnHash": "0x0ea3708d1922fedcf9953dda187ecc228357482e3baed40e97e031ab61a9522e",
            "status": true,
            "timestamp": "2018-04-27T14:58:16Z",
            "transactionFee": "0.00047394",
            "txnHash": "0x0ea3708d1922fedcf9953dda187ecc228357482e3baed40e97e031ab61a9522e",
            "txnIndex": 9,
            "type": 0,
            "value": "0"
        },
        "fund_flow": [
            {
                "amount": "2",
                "from": "0x02be0b12d8e1235e2299aa49d0f5625df367d90a",
                "id": 1,
                "isERC1155": false,
                "isERC721": false,
                "isReverted": false,
                "order": 1,
                "to": "0x9862d074e33003726fa05c74f0142995f33a3250",
                "token": "0xeeeeeeeeeeeeeeeeeeeeeeeeeeeeeeeeeeeeeeee"
            }
        ],
        "token_infos": [
            {
                "address": "0xc02aaa39b223fe8d0a0e5c4f27ead9083c756cc2",
                "decimals": 18
            },
            {
                "address": "0xeeeeeeeeeeeeeeeeeeeeeeeeeeeeeeeeeeeeeeee",
                "decimals": 18
            }
        ]
    },
    "address_label": {
        "labels": [
            {
                "address": "0x0000000000000000000000000000000000000002",
                "label": "Precompiled"
            },
            {
                "address": "0x0000000000000000000000000000000000000003",
                "label": "Precompiled"
            },
            {
                "address": "0x0000000000000000000000000000000000000004",
                "label": "Precompiled"
            },
            {
                "address": "0xeeeeeeeeeeeeeeeeeeeeeeeeeeeeeeeeeeeeeeee",
                "label": "Ether"
            },
            {
                "address": "0x0000000000000000000000000000000000000001",
                "label": "Precompiled"
            }
        ]
    },
    "trace": {
        "accountLabels": null,
        "dataMap": {
            "-1": {
                "invocation": {
                    "address": "0x9862d074e33003726fa05c74f0142995f33a3250",
                    "callData": "",
                    "decodedMethod": null,
                    "errorInfo": "",
                    "fromAddress": "",
                    "gasUsed": 0,
                    "id": -1,
                    "methodDecoded": false,
                    "operation": "",
                    "output": "",
                    "revert": false,
                    "revertMessage": "",
                    "selector": "",
                    "status": false,
                    "value": ""
                },
                "nodeType": 0
            },
            "0": {
                "invocation": {
                    "address": "0x02be0b12d8e1235e2299aa49d0f5625df367d90a",
                    "callData": "0x0000000000000000000000009862d074e33003726fa05c74f0142995f33a32500000000000000000000000000000000000000000000000001bc16d674ec80000",
                    "decodedMethod": {
                        "callParams": [
                            {
                                "name": "destination",
                                "type": "address",
                                "value": "0x9862d074e33003726fa05c74f0142995f33a3250"
                            },
                            {
                                "name": "amount",
                                "type": "uint256",
                                "value": "2,000,000,000,000,000,000"
                            }
                        ],
                        "constructorArguments": "",
                        "name": "collectEth",
                        "returnParams": [],
                        "signature": "collectEth(address,uint256)"
                    },
                    "errorInfo": "",
                    "fromAddress": "0x9862d074e33003726fa05c74f0142995f33a3250",
                    "gasUsed": 31596,
                    "id": 0,
                    "methodDecoded": true,
                    "operation": "CALL",
                    "output": "",
                    "revert": false,
                    "revertMessage": "",
                    "selector": "0xff03ad56",
                    "status": true,
                    "value": "0"
                },
                "nodeType": 0
            },
            "1": {
                "invocation": {
                    "address": "0x9862d074e33003726fa05c74f0142995f33a3250",
                    "callData": "0x",
                    "decodedMethod": null,
                    "errorInfo": "",
                    "fromAddress": "0x02be0b12d8e1235e2299aa49d0f5625df367d90a",
                    "gasUsed": 0,
                    "id": 1,
                    "methodDecoded": false,
                    "operation": "CALL",
                    "output": "",
                    "revert": false,
                    "revertMessage": "",
                    "selector": "fallback",
                    "status": true,
                    "value": "2"
                },
                "nodeType": 0
            }
        },
        "gasFlame": [
            {
                "children": [
                    {
                        "children": [
                            {
                                "children": [],
                                "depth": 0,
                                "name": "Initial Gas",
                                "value": 23192
                            },
                            {
                                "children": [
                                    {
                                        "children": [],
                                        "depth": 1,
                                        "name": "fallback",
                                        "value": 0
                                    }
                                ],
                                "depth": 0,
                                "name": "Executed Gas",
                                "value": 8404
                            }
                        ],
                        "depth": -1,
                        "name": "Actual Gas Used",
                        "value": 31596
                    },
                    {
                        "children": [],
                        "depth": -1,
                        "name": "Refunded Gas",
                        "value": 0
                    }
                ],
                "depth": -2,
                "name": "Total Gas",
                "value": 31596
            }
        ],
        "isConfirmed": true,
        "mainTrace": [
            {
                "children": [
                    {
                        "children": [
                            {
                                "children": [],
                                "depth": 1,
                                "id": 1,
                                "order": 1
                            }
                        ],
                        "depth": 0,
                        "id": 0,
                        "order": 0
                    }
                ],
                "depth": -1,
                "id": -1,
                "order": -1
            }
        ],
        "mainTraceNodeCount": 2,
        "parentIdMap": {
            "0": -1,
            "1": 0
        },
        "tidyTrace": [
            {
                "children": [
                    {
                        "children": [
                            {
                                "children": [],
                                "depth": 1,
                                "id": 1,
                                "order": 1
                            }
                        ],
                        "depth": 0,
                        "id": 0,
                        "order": 0
                    }
                ],
                "depth": -1,
                "id": -1,
                "order": -1
            }
        ],
        "tidyTraceNodeCount": 2
    },
    "state_change": {
        "stateChanges": []
    }
}