{
    "balance_change": {
        "balanceChanges": []
    },
    "profile": {
        "basic_info": {
            "baseFee": "16.437028663",
            "blockNumber": 16395358,
            "callData": "0xefef39a10000000000000000000000000000000000000000000000000000000000000001",
            "debugEnable": true,
            "errorInfo": "execution reverted",
            "eventCount": 0,
            "feeRecipient": "0x95222290dd7278aa3ddd389cc1e1d165cc4bafe5",
            "formatValue": "0",
            "gasLimit": 104838,
            "gasPrice": "17.937028663",
            "gasUsed": 45144,
            "intTxnCount": 1,
            "internalRevert": true,
            "internalRevertMessage": "",
            "isContractCreation": false,
            "isFlashloan": false,
            "maxFee": "24.901014259",
            "nonce": 24,
            "overwritedBlockNumber": -1,
            "priorityFee": "1.5",
            "receiver": "0x816840b298c3a326330236ac1368d3887d27a7cb",
            "revertMessage": "",
            "sender": "0xd7c8057e80dce6c1e7ff43fd6117285f09d97159",
            "simulationEnable": true,
            "sourceTxnHash": "0x0eae2a5e576b928055d0e6cf5efb60c5971ca92cc1da904cd5f731edc746533e",
            "status": false,
            "timestamp": "2023-01-13T04:02:11Z",
            "transactionFee": "0.000809749221962472",
            "txnHash": "0x0eae2a5e576b928055d0e6cf5efb60c5971ca92cc1da904cd5f731edc746533e",
            "txnIndex": 109,
            "type": 2,
            "value": "0"
        },
        "fund_flow": [],
        "token_infos": [
            {
                "address": "0xc02aaa39b223fe8d0a0e5c4f27ead9083c756cc2",
                "decimals": 18
            },
            {
                "address": "0xeeeeeeeeeeeeeeeeeeeeeeeeeeeeeeeeeeeeeeee",
                "decimals": 18
            }
        ]
    },
    "address_label": {
        "labels": [
            {
                "address": "0x0000000000000000000000000000000000000003",
                "label": "Precompiled"
            },
            {
                "address": "0x0000000000000000000000000000000000000004",
                "label": "Precompiled"
            },
            {
                "address": "0xeeeeeeeeeeeeeeeeeeeeeeeeeeeeeeeeeeeeeeee",
                "label": "Ether"
            },
            {
                "address": "0x7c74dfe39976dc395529c14e54a597809980e01c",
                "label": "ERC721Drop"
            },
            {
                "address": "0x816840b298c3a326330236ac1368d3887d27a7cb",
                "label": "GMs (GMS)"
            },
            {
                "address": "0x0000000000000000000000000000000000000001",
                "label": "Precompiled"
            },
            {
                "address": "0x0000000000000000000000000000000000000002",
                "label": "Precompiled"
            }
        ]
    },
    "trace": {
        "accountLabels": null,
        "dataMap": {
            "-1": {
                "invocation": {
                    "address": "0xd7c8057e80dce6c1e7ff43fd6117285f09d97159",
                    "callData": "",
                    "decodedMethod": null,
                    "errorInfo": "",
                    "fromAddress": "",
                    "gasUsed": 0,
                    "id": -1,
                    "methodDecoded": false,
                    "operation": "",
                    "output": "",
                    "revert": false,
                    "revertMessage": "",
                    "selector": "",
                    "status": false,
                    "value": ""
                },
                "nodeType": 0
            },
            "0": {
                "invocation": {
                    "address": "0x816840b298c3a326330236ac1368d3887d27a7cb",
                    "callData": "0x0000000000000000000000000000000000000000000000000000000000000001",
                    "decodedMethod": {
                        "callParams": [
                            {
                                "name": "quantity",
                                "type": "uint256",
                                "value": "1"
                            }
                        ],
                        "constructorArguments": "",
                        "name": "purchase",
                        "returnParams": [],
                        "signature": "purchase(uint256)"
                    },
                    "errorInfo": "execution reverted",
                    "fromAddress": "0xd7c8057e80dce6c1e7ff43fd6117285f09d97159",
                    "gasUsed": 45144,
                    "id": 0,
                    "methodDecoded": true,
                    "operation": "CALL",
                    "output": "0x220ae94c",
                    "revert": true,
                    "revertMessage": "",
                    "selector": "0xefef39a1",
                    "status": false,
                    "value": "0"
                },
                "nodeType": 0
            },
            "1": {
                "invocation": {
                    "address": "0x7c74dfe39976dc395529c14e54a597809980e01c",
                    "callData": "0x0000000000000000000000000000000000000000000000000000000000000001",
                    "decodedMethod": {
                        "callParams": [
                            {
                                "name": "quantity",
                                "type": "uint256",
                                "value": "1"
                            }
                        ],
                        "constructorArguments": "",
                        "name": "purchase",
                        "returnParams": [],
                        "signature": "purchase(uint256)"
                    },
                    "errorInfo": "execution reverted",
                    "fromAddress": "0x816840b298c3a326330236ac1368d3887d27a7cb",
                    "gasUsed": 19053,
                    "id": 1,
                    "methodDecoded": true,
                    "operation": "DELEGATECALL",
                    "output": "0x220ae94c",
                    "revert": true,
                    "revertMessage": "Purchase_TooManyForAddress()",
                    "selector": "0xefef39a1",
                    "status": false,
                    "value": "0"
                },
                "nodeType": 0
            }
        },
        "gasFlame": [
            {
                "children": [
                    {
                        "children": [
                            {
                                "children": [],
                                "depth": 0,
                                "name": "Initial Gas",
                                "value": 21204
                            },
                            {
                                "children": [
                                    {
                                        "children": [],
                                        "depth": 1,
                                        "name": "purchase",
                                        "value": 19053
                                    }
                                ],
                                "depth": 0,
                                "name": "Executed Gas",
                                "value": 23940
                            }
                        ],
                        "depth": -1,
                        "name": "Actual Gas Used",
                        "value": 45144
                    },
                    {
                        "children": [],
                        "depth": -1,
                        "name": "Refunded Gas",
                        "value": 0
                    }
                ],
                "depth": -2,
                "name": "Total Gas",
                "value": 45144
            }
        ],
        "isConfirmed": true,
        "mainTrace": [
            {
                "children": [
                    {
                        "children": [
                            {
                                "children": [],
                                "depth": 1,
                                "id": 1,
                                "order": 1
                            }
                        ],
                        "depth": 0,
                        "id": 0,
                        "order": 0
                    }
                ],
                "depth": -1,
                "id": -1,
                "order": -1
            }
        ],
        "mainTraceNodeCount": 2,
        "parentIdMap": {
            "0": -1,
            "1": 0
        },
        "tidyTrace": [
            {
                "children": [
                    {
                        "children": [
                            {
                                "children": [],
                                "depth": 1,
                                "id": 1,
                                "order": 1
                            }
                        ],
                        "depth": 0,
                        "id": 0,
                        "order": 0
                    }
                ],
                "depth": -1,
                "id": -1,
                "order": -1
            }
        ],
        "tidyTraceNodeCount": 2
    },
    "state_change": {
        "stateChanges": []
    }
}