{
    "balance_change": {
        "balanceChanges": []
    },
    "profile": {
        "basic_info": {
            "baseFee": "",
            "blockNumber": 5193500,
            "callData": "0xef3435880000000000000000000000000000000000000000000000003990d7950634eaa80000000000000000000000000000000000000000000000e21933284107cde7160000000000000000000000000000000000000000000000000000000000002710000000000000000000000000000000000000000000000000000000002430256b0000000000000000000000000000000000000000000000000d4a78881e122618000000000000000000000000000000000000000000000000000000000000000100000000000000000000000000000000000000000000000000038d7ea4c680000000000000000000000000000000000000000000000000000011320d3a4af1e70000000000000000000000000000000000000000000000000000000000000000000000000000000000000000e25bcec5d3801ce3a794079bf94adf1b8ccd802d000000000000000000000000a871b9bc40d6a2c690ac948ba80b17f1a54f8248000000000000000000000000a3ef1ed44dfbe4412e7df7616967b175d0bb520f000000000000000000000000000000000000000000000000000000000000001b000000000000000000000000000000000000000000000000000000000000001c88fe8d6d0e59d496c24a2c79960151948cd216647705d531510664eafbcf47b26cf3eff0a77246462b34ce3bac9022b8b63216ce932e424a7b73eb13769b129348ed83ff35df811dda56d11e1001cbdde03516bc62e49bf02aae99a3619338a3200d6a7dde942aca776b2048893abe1c5ecb4bec2c73604b68437f269cdaa66f",
            "debugEnable": true,
            "errorInfo": "",
            "eventCount": 0,
            "feeRecipient": "0x5a0b54d5dc17e0aadc383d2db43b0a0d3e029c4c",
            "formatValue": "0",
            "gasLimit": 260000,
            "gasPrice": "16",
            "gasUsed": 157900,
            "intTxnCount": 2,
            "internalRevert": false,
            "internalRevertMessage": "",
            "isContractCreation": false,
            "isFlashloan": false,
            "maxFee": "",
            "nonce": 467239,
            "overwritedBlockNumber": -1,
            "priorityFee": "",
            "receiver": "0x2a0c0dbecc7e4d658f48e01e3fa353f44050c208",
            "revertMessage": "",
            "sender": "0xceceaa8edc0830c7cec497e33bb3a3c28dd55a32",
            "simulationEnable": true,
            "sourceTxnHash": "0x0f5a60c8c23f2d0e93655bb1bad4e52c45b44c710c763a666ea02ffc3f818d00",
            "status": true,
            "timestamp": "2018-03-04T06:43:29Z",
            "transactionFee": "0.0025264",
            "txnHash": "0x0f5a60c8c23f2d0e93655bb1bad4e52c45b44c710c763a666ea02ffc3f818d00",
            "txnIndex": 137,
            "type": 0,
            "value": "0"
        },
        "fund_flow": [],
        "token_infos": [
            {
                "address": "0xc02aaa39b223fe8d0a0e5c4f27ead9083c756cc2",
                "decimals": 18
            },
            {
                "address": "0xeeeeeeeeeeeeeeeeeeeeeeeeeeeeeeeeeeeeeeee",
                "decimals": 18
            }
        ]
    },
    "address_label": {
        "labels": [
            {
                "address": "0xe25bcec5d3801ce3a794079bf94adf1b8ccd802d",
                "label": "MATRIX AI Network: Old Token"
            },
            {
                "address": "0x0000000000000000000000000000000000000000",
                "label": "Null Address"
            },
            {
                "address": "0x2a0c0dbecc7e4d658f48e01e3fa353f44050c208",
                "label": "IDEX"
            },
            {
                "address": "0x0000000000000000000000000000000000000001",
                "label": "Precompiled"
            },
            {
                "address": "0x0000000000000000000000000000000000000002",
                "label": "Precompiled"
            },
            {
                "address": "0x0000000000000000000000000000000000000003",
                "label": "Precompiled"
            },
            {
                "address": "0x0000000000000000000000000000000000000004",
                "label": "Precompiled"
            },
            {
                "address": "0xeeeeeeeeeeeeeeeeeeeeeeeeeeeeeeeeeeeeeeee",
                "label": "Ether"
            }
        ]
    },
    "trace": {
        "accountLabels": null,
        "dataMap": {
            "-1": {
                "invocation": {
                    "address": "0xceceaa8edc0830c7cec497e33bb3a3c28dd55a32",
                    "callData": "",
                    "decodedMethod": null,
                    "errorInfo": "",
                    "fromAddress": "",
                    "gasUsed": 0,
                    "id": -1,
                    "methodDecoded": false,
                    "operation": "",
                    "output": "",
                    "revert": false,
                    "revertMessage": "",
                    "selector": "",
                    "status": false,
                    "value": ""
                },
                "nodeType": 0
            },
            "0": {
                "invocation": {
                    "address": "0x2a0c0dbecc7e4d658f48e01e3fa353f44050c208",
                    "callData": "0x0000000000000000000000000000000000000000000000003990d7950634eaa80000000000000000000000000000000000000000000000e21933284107cde7160000000000000000000000000000000000000000000000000000000000002710000000000000000000000000000000000000000000000000000000002430256b0000000000000000000000000000000000000000000000000d4a78881e122618000000000000000000000000000000000000000000000000000000000000000100000000000000000000000000000000000000000000000000038d7ea4c680000000000000000000000000000000000000000000000000000011320d3a4af1e70000000000000000000000000000000000000000000000000000000000000000000000000000000000000000e25bcec5d3801ce3a794079bf94adf1b8ccd802d000000000000000000000000a871b9bc40d6a2c690ac948ba80b17f1a54f8248000000000000000000000000a3ef1ed44dfbe4412e7df7616967b175d0bb520f000000000000000000000000000000000000000000000000000000000000001b000000000000000000000000000000000000000000000000000000000000001c88fe8d6d0e59d496c24a2c79960151948cd216647705d531510664eafbcf47b26cf3eff0a77246462b34ce3bac9022b8b63216ce932e424a7b73eb13769b129348ed83ff35df811dda56d11e1001cbdde03516bc62e49bf02aae99a3619338a3200d6a7dde942aca776b2048893abe1c5ecb4bec2c73604b68437f269cdaa66f",
                    "decodedMethod": {
                        "callParams": [
                            {
                                "name": "tradeValues",
                                "type": "uint256[8]",
                                "value": [
                                    "4,148,052,291,862,457,000",
                                    "4,170,779,999,992,888,026,902",
                                    "10,000",
                                    "607,135,083",
                                    "957,710,396,785,042,968",
                                    "1",
                                    "1,000,000,000,000,000",
                                    "4,840,106,998,034,919"
                                ]
                            },
                            {
                                "name": "tradeAddresses",
                                "type": "address[4]",
                                "value": [
                                    "0x0000000000000000000000000000000000000000",
                                    "0xe25bcec5d3801ce3a794079bf94adf1b8ccd802d",
                                    "0xa871b9bc40d6a2c690ac948ba80b17f1a54f8248",
                                    "0xa3ef1ed44dfbe4412e7df7616967b175d0bb520f"
                                ]
                            },
                            {
                                "name": "v",
                                "type": "uint8[2]",
                                "value": [
                                    "27",
                                    "28"
                                ]
                            },
                            {
                                "name": "rs",
                                "type": "bytes32[4]",
                                "value": [
                                    "0x88fe8d6d0e59d496c24a2c79960151948cd216647705d531510664eafbcf47b2",
                                    "0x6cf3eff0a77246462b34ce3bac9022b8b63216ce932e424a7b73eb13769b1293",
                                    "0x48ed83ff35df811dda56d11e1001cbdde03516bc62e49bf02aae99a3619338a3",
                                    "0x200d6a7dde942aca776b2048893abe1c5ecb4bec2c73604b68437f269cdaa66f"
                                ]
                            }
                        ],
                        "constructorArguments": "",
                        "name": "trade",
                        "returnParams": [
                            {
                                "name": "success",
                                "type": "bool",
                                "value": false
                            }
                        ],
                        "signature": "trade(uint256[8],address[4],uint8[2],bytes32[4])"
                    },
                    "errorInfo": "",
                    "fromAddress": "0xceceaa8edc0830c7cec497e33bb3a3c28dd55a32",
                    "gasUsed": 157900,
                    "id": 0,
                    "methodDecoded": true,
                    "operation": "CALL",
                    "output": "0x0000000000000000000000000000000000000000000000000000000000000000",
                    "revert": false,
                    "revertMessage": "",
                    "selector": "0xef343588",
                    "status": true,
                    "value": "0"
                },
                "nodeType": 0
            },
            "1": {
                "invocation": {
                    "address": "0x0000000000000000000000000000000000000001",
                    "callData": "0xe8be71b1e745643ac1afe92e7fd9cab627f442e39abe25662006da08000000000000000000000000000000000000000000000000000000000000001b88fe8d6d0e59d496c24a2c79960151948cd216647705d531510664eafbcf47b26cf3eff0a77246462b34ce3bac9022b8b63216ce932e424a7b73eb13769b1293",
                    "decodedMethod": {
                        "callParams": [
                            {
                                "name": "hash",
                                "type": "bytes32",
                                "value": "0xf81e63e5e8be71b1e745643ac1afe92e7fd9cab627f442e39abe25662006da08"
                            },
                            {
                                "name": "v",
                                "type": "uint256",
                                "value": "27"
                            },
                            {
                                "name": "r",
                                "type": "bytes32",
                                "value": "0x88fe8d6d0e59d496c24a2c79960151948cd216647705d531510664eafbcf47b2"
                            },
                            {
                                "name": "s",
                                "type": "bytes32",
                                "value": "0x6cf3eff0a77246462b34ce3bac9022b8b63216ce932e424a7b73eb13769b1293"
                            }
                        ],
                        "constructorArguments": "",
                        "name": "ecrecover",
                        "returnParams": [
                            {
                                "name": "",
                                "type": "address",
                                "value": "0xa871b9bc40d6a2c690ac948ba80b17f1a54f8248"
                            }
                        ],
                        "signature": "ecrecover(bytes32,uint256,bytes32,bytes32)"
                    },
                    "errorInfo": "",
                    "fromAddress": "0x2a0c0dbecc7e4d658f48e01e3fa353f44050c208",
                    "gasUsed": 3000,
                    "id": 1,
                    "methodDecoded": true,
                    "operation": "CALL",
                    "output": "0x000000000000000000000000a871b9bc40d6a2c690ac948ba80b17f1a54f8248",
                    "revert": false,
                    "revertMessage": "",
                    "selector": "0xf81e63e5",
                    "status": true,
                    "value": "0"
                },
                "nodeType": 0
            },
            "2": {
                "invocation": {
                    "address": "0x0000000000000000000000000000000000000001",
                    "callData": "0x691a5a1c69d714f4bbd4b03af0934ea771b1614cc014bd9cfc0489b5000000000000000000000000000000000000000000000000000000000000001c48ed83ff35df811dda56d11e1001cbdde03516bc62e49bf02aae99a3619338a3200d6a7dde942aca776b2048893abe1c5ecb4bec2c73604b68437f269cdaa66f",
                    "decodedMethod": {
                        "callParams": [
                            {
                                "name": "hash",
                                "type": "bytes32",
                                "value": "0xcb214561691a5a1c69d714f4bbd4b03af0934ea771b1614cc014bd9cfc0489b5"
                            },
                            {
                                "name": "v",
                                "type": "uint256",
                                "value": "28"
                            },
                            {
                                "name": "r",
                                "type": "bytes32",
                                "value": "0x48ed83ff35df811dda56d11e1001cbdde03516bc62e49bf02aae99a3619338a3"
                            },
                            {
                                "name": "s",
                                "type": "bytes32",
                                "value": "0x200d6a7dde942aca776b2048893abe1c5ecb4bec2c73604b68437f269cdaa66f"
                            }
                        ],
                        "constructorArguments": "",
                        "name": "ecrecover",
                        "returnParams": [
                            {
                                "name": "",
                                "type": "address",
                                "value": "0xa3ef1ed44dfbe4412e7df7616967b175d0bb520f"
                            }
                        ],
                        "signature": "ecrecover(bytes32,uint256,bytes32,bytes32)"
                    },
                    "errorInfo": "",
                    "fromAddress": "0x2a0c0dbecc7e4d658f48e01e3fa353f44050c208",
                    "gasUsed": 3000,
                    "id": 2,
                    "methodDecoded": true,
                    "operation": "CALL",
                    "output": "0x000000000000000000000000a3ef1ed44dfbe4412e7df7616967b175d0bb520f",
                    "revert": false,
                    "revertMessage": "",
                    "selector": "0xcb214561",
                    "status": true,
                    "value": "0"
                },
                "nodeType": 0
            }
        },
        "gasFlame": [
            {
                "children": [
                    {
                        "children": [
                            {
                                "children": [],
                                "depth": 0,
                                "name": "Initial Gas",
                                "value": 38616
                            },
                            {
                                "children": [
                                    {
                                        "children": [],
                                        "depth": 1,
                                        "name": "ecrecover",
                                        "value": 3000
                                    },
                                    {
                                        "children": [],
                                        "depth": 1,
                                        "name": "ecrecover",
                                        "value": 3000
                                    }
                                ],
                                "depth": 0,
                                "name": "Executed Gas",
                                "value": 119284
                            }
                        ],
                        "depth": -1,
                        "name": "Actual Gas Used",
                        "value": 157900
                    },
                    {
                        "children": [],
                        "depth": -1,
                        "name": "Refunded Gas",
                        "value": 0
                    }
                ],
                "depth": -2,
                "name": "Total Gas",
                "value": 157900
            }
        ],
        "isConfirmed": true,
        "mainTrace": [
            {
                "children": [
                    {
                        "children": [
                            {
                                "children": [],
                                "depth": 1,
                                "id": 1,
                                "order": 1
                            },
                            {
                                "children": [],
                                "depth": 1,
                                "id": 2,
                                "order": 2
                            }
                        ],
                        "depth": 0,
                        "id": 0,
                        "order": 0
                    }
                ],
                "depth": -1,
                "id": -1,
                "order": -1
            }
        ],
        "mainTraceNodeCount": 3,
        "parentIdMap": {
            "0": -1,
            "1": 0,
            "2": 0
        },
        "tidyTrace": [
            {
                "children": [
                    {
                        "children": [
                            {
                                "children": [],
                                "depth": 1,
                                "id": 1,
                                "order": 1
                            },
                            {
                                "children": [],
                                "depth": 1,
                                "id": 2,
                                "order": 2
                            }
                        ],
                        "depth": 0,
                        "id": 0,
                        "order": 0
                    }
                ],
                "depth": -1,
                "id": -1,
                "order": -1
            }
        ],
        "tidyTraceNodeCount": 3
    },
    "state_change": {
        "stateChanges": [
            {
                "address": "0x2a0c0dbecc7e4d658f48e01e3fa353f44050c208",
                "erc": "",
                "slots": [
                    {
                        "current": "0x00000000000000000000000000000000000000000000000000000000004f3f1c",
                        "key": "0x56af9a33d69c432e4b3a2fee905c69f3704f45270dd59121b41b174e0ca0bdb8",
                        "prev": "0x00000000000000000000000000000000000000000000000000000000004f3efd"
                    },
                    {
                        "current": "0x0000000000000000000000000000000000000000000000000c151a0303ad11e8",
                        "key": "0x6a775977653fce55e7de7895d63a7f68bf56076f6396a9277b1abc03a7a90c45",
                        "prev": "0x000000000000000000000000000000000000000000000000195f928b21bf3800"
                    },
                    {
                        "current": "0x00000000000000000000000000000000000000000000000163d319e1b0249c71",
                        "key": "0x5d9d1ca3b5dddb9d1e70244ef5a3ef8aa9a030aacfb7dabf6d0bd95a08fa62f5",
                        "prev": "0x000000000000000000000000000000000000000000000001568c0861e611f7ec"
                    },
                    {
                        "current": "0x0000000000000000000000000000000000000000000000000d4a78881e122618",
                        "key": "0x741d4333864ee8c43338fdd72faff309e5507c75155dc936450d46317af5ceb0",
                        "prev": "0x0000000000000000000000000000000000000000000000000000000000000000"
                    },
                    {
                        "current": "0x000000000000000000000000000000000000000000000033f30ad81baca76ade",
                        "key": "0x62999695d23791478750a3f3bfceeae7802084b4ded00104d302f9968b0c8b20",
                        "prev": "0x0000000000000000000000000000000000000000000000000000000000000000"
                    },
                    {
                        "current": "0x00000000000000000000000000000000000000000000000e71744557fbede9e9",
                        "key": "0x3ccb72d91c5c66cba135a4135963ed23443b8a63817f501517468fcd5097e277",
                        "prev": "0x00000000000000000000000000000000000000000000000e7170de4fa7ee6857"
                    },
                    {
                        "current": "0x0000000000000000000000000000000000000000000000b284d9da9090503cd1",
                        "key": "0xda652594a99dd0b3a924f1237543c1c871162e780980828923daef8a31075358",
                        "prev": "0x0000000000000000000000000000000000000000000000e6b89340ba6c39a791"
                    },
                    {
                        "current": "0x00000000000000000000000000000000000000000000005d409e522e764bf376",
                        "key": "0x7b5a1564889376522b983daf4bbdc54e8096ebab6bf1e2eec4528dc7939dd8b4",
                        "prev": "0x00000000000000000000000000000000000000000000005cffefc4204709f395"
                    },
                    {
                        "current": "0x00000000000000000000000000000000000000000000000000000000004f3f1c",
                        "key": "0x3c1f815f79069e15da161c6b28130ad3f1a49cf75bb60bd2581ae5e17f3fa5fe",
                        "prev": "0x00000000000000000000000000000000000000000000000000000000004f3efd"
                    },
                    {
                        "current": "0x0000000000000000000000000000000000000000000000000000000000000001",
                        "key": "0xbb7295f2cfb6d51ab804ce88c3df310ddbedb65e16525adc4be02a1f1bf4bc89",
                        "prev": "0x0000000000000000000000000000000000000000000000000000000000000000"
                    }
                ],
                "storageVariables": [
                    {
                        "name": "tokens",
                        "type": "mapping(address => mapping(address => uint256))",
                        "value": {
                            "pairs": [
                                {
                                    "key": "0x0000000000000000000000000000000000000000",
                                    "value": {
                                        "pairs": [
                                            {
                                                "key": "0x034767f3c519f361c5ecf46ebfc08981c629d381",
                                                "value": {
                                                    "current": "266429652499709159913",
                                                    "prev": "266428694789312374871",
                                                    "typeTag": 1
                                                }
                                            },
                                            {
                                                "key": "0xa3ef1ed44dfbe4412e7df7616967b175d0bb520f",
                                                "value": {
                                                    "current": "870630703214957032",
                                                    "prev": "1828341100000000000",
                                                    "typeTag": 1
                                                }
                                            },
                                            {
                                                "key": "0xa871b9bc40d6a2c690ac948ba80b17f1a54f8248",
                                                "value": {
                                                    "current": "25639865560663891057",
                                                    "prev": "24683112874275633132",
                                                    "typeTag": 1
                                                }
                                            }
                                        ],
                                        "typeTag": 4
                                    }
                                },
                                {
                                    "key": "0xe25bcec5d3801ce3a794079bf94adf1b8ccd802d",
                                    "value": {
                                        "pairs": [
                                            {
                                                "key": "0x034767f3c519f361c5ecf46ebfc08981c629d381",
                                                "value": {
                                                    "current": "1720203448279242634102",
                                                    "prev": "1715542629423294051221",
                                                    "typeTag": 1
                                                }
                                            },
                                            {
                                                "key": "0xa3ef1ed44dfbe4412e7df7616967b175d0bb520f",
                                                "value": {
                                                    "current": "958296995473543097054",
                                                    "prev": "0",
                                                    "typeTag": 1
                                                }
                                            },
                                            {
                                                "key": "0xa871b9bc40d6a2c690ac948ba80b17f1a54f8248",
                                                "value": {
                                                    "current": "3293093367917684210897",
                                                    "prev": "4256051182247175890833",
                                                    "typeTag": 1
                                                }
                                            }
                                        ],
                                        "typeTag": 4
                                    }
                                }
                            ],
                            "typeTag": 4
                        }
                    },
                    {
                        "name": "orderFills",
                        "type": "mapping(bytes32 => uint256)",
                        "value": {
                            "pairs": [
                                {
                                    "key": "0x029597e78847c9f994a3e6227f67295a8d2d334fe6da14575fe8da8f43db5e53",
                                    "value": {
                                        "current": "957710396785042968",
                                        "prev": "0",
                                        "typeTag": 1
                                    }
                                }
                            ],
                            "typeTag": 4
                        }
                    },
                    {
                        "name": "lastActiveTransaction",
                        "type": "mapping(address => uint256)",
                        "value": {
                            "pairs": [
                                {
                                    "key": "0xa3ef1ed44dfbe4412e7df7616967b175d0bb520f",
                                    "value": {
                                        "current": "5193500",
                                        "prev": "5193469",
                                        "typeTag": 1
                                    }
                                },
                                {
                                    "key": "0xa871b9bc40d6a2c690ac948ba80b17f1a54f8248",
                                    "value": {
                                        "current": "5193500",
                                        "prev": "5193469",
                                        "typeTag": 1
                                    }
                                }
                            ],
                            "typeTag": 4
                        }
                    },
                    {
                        "name": "traded",
                        "type": "mapping(bytes32 => bool)",
                        "value": {
                            "pairs": [
                                {
                                    "key": "0xe6993e35d405613aa895f7c063ab0068cd2c0f951a46d212c5c7181c8f5aef1f",
                                    "value": {
                                        "current": "true",
                                        "prev": "false",
                                        "typeTag": 1
                                    }
                                }
                            ],
                            "typeTag": 4
                        }
                    }
                ]
            }
        ]
    }
}