{
    "balance_change": {
        "balanceChanges": [
            {
                "account": "0x47700b411e6124cb0ba818de9496ff326b91268b",
                "assets": [
                    {
                        "address": "0xeeeeeeeeeeeeeeeeeeeeeeeeeeeeeeeeeeeeeeee",
                        "amount": "0.1",
                        "iconUrl": "https://assets.blocksec.com/image/1663669189317-3.png",
                        "isERC1155": false,
                        "isERC721": false,
                        "sign": false,
                        "value": ""
                    }
                ]
            },
            {
                "account": "0x40f7ca07896d8d59e47c8ae10ab53c060cd5e570",
                "assets": [
                    {
                        "address": "0xeeeeeeeeeeeeeeeeeeeeeeeeeeeeeeeeeeeeeeee",
                        "amount": "0.1",
                        "iconUrl": "https://assets.blocksec.com/image/1663669189317-3.png",
                        "isERC1155": false,
                        "isERC721": false,
                        "sign": true,
                        "value": ""
                    }
                ]
            }
        ]
    },
    "profile": {
        "basic_info": {
            "baseFee": "",
            "blockNumber": 10079714,
            "callData": "0xbe389d5700000000000000000000000000000000000000000000000000000000000000020000000000000000000000000000000000000000000000000000000000000003",
            "debugEnable": true,
            "errorInfo": "",
            "eventCount": 6,
            "feeRecipient": "0xea674fdde714fd979de3edf0f56aa9716b898ec8",
            "formatValue": "0.1",
            "gasLimit": 542397,
            "gasPrice": "12.900000233",
            "gasUsed": 237385,
            "intTxnCount": 1,
            "internalRevert": false,
            "internalRevertMessage": "",
            "isContractCreation": false,
            "isFlashloan": false,
            "maxFee": "",
            "nonce": 2,
            "overwritedBlockNumber": -1,
            "priorityFee": "",
            "receiver": "0x5acc84a3e955bdd76467d3348077d003f00ffb97",
            "revertMessage": "",
            "sender": "0x47700b411e6124cb0ba818de9496ff326b91268b",
            "simulationEnable": true,
            "sourceTxnHash": "0x0fb80585c6f10654436ae55b8a6a9f794a24c693f73ca635d66fb64bfa500cf5",
            "status": true,
            "timestamp": "2020-05-16T22:10:41Z",
            "transactionFee": "0.003062266555310705",
            "txnHash": "0x0fb80585c6f10654436ae55b8a6a9f794a24c693f73ca635d66fb64bfa500cf5",
            "txnIndex": 57,
            "type": 0,
            "value": "100000000000000000"
        },
        "fund_flow": [
            {
                "amount": "0.1",
                "from": "0x47700b411e6124cb0ba818de9496ff326b91268b",
                "id": 1,
                "isERC1155": false,
                "isERC721": false,
                "isReverted": false,
                "order": 1,
                "to": "0x5acc84a3e955bdd76467d3348077d003f00ffb97",
                "token": "0xeeeeeeeeeeeeeeeeeeeeeeeeeeeeeeeeeeeeeeee"
            },
            {
                "amount": "0.1",
                "from": "0x5acc84a3e955bdd76467d3348077d003f00ffb97",
                "id": 2,
                "isERC1155": false,
                "isERC721": false,
                "isReverted": false,
                "order": 2,
                "to": "0x40f7ca07896d8d59e47c8ae10ab53c060cd5e570",
                "token": "0xeeeeeeeeeeeeeeeeeeeeeeeeeeeeeeeeeeeeeeee"
            }
        ],
        "token_infos": [
            {
                "address": "0xc02aaa39b223fe8d0a0e5c4f27ead9083c756cc2",
                "decimals": 18
            },
            {
                "address": "0xeeeeeeeeeeeeeeeeeeeeeeeeeeeeeeeeeeeeeeee",
                "decimals": 18
            }
        ]
    },
    "address_label": {
        "labels": [
            {
                "address": "0x0000000000000000000000000000000000000002",
                "label": "Precompiled"
            },
            {
                "address": "0x0000000000000000000000000000000000000003",
                "label": "Precompiled"
            },
            {
                "address": "0x0000000000000000000000000000000000000004",
                "label": "Precompiled"
            },
            {
                "address": "0xeeeeeeeeeeeeeeeeeeeeeeeeeeeeeeeeeeeeeeee",
                "label": "Ether"
            },
            {
                "address": "0x5acc84a3e955bdd76467d3348077d003f00ffb97",
                "label": "Forsage.io"
            },
            {
                "address": "0x0000000000000000000000000000000000000001",
                "label": "Precompiled"
            }
        ]
    },
    "trace": {
        "accountLabels": null,
        "dataMap": {
            "-1": {
                "invocation": {
                    "address": "0x47700b411e6124cb0ba818de9496ff326b91268b",
                    "callData": "",
                    "decodedMethod": null,
                    "errorInfo": "",
                    "fromAddress": "",
                    "gasUsed": 0,
                    "id": -1,
                    "methodDecoded": false,
                    "operation": "",
                    "output": "",
                    "revert": false,
                    "revertMessage": "",
                    "selector": "",
                    "status": false,
                    "value": ""
                },
                "nodeType": 0
            },
            "0": {
                "invocation": {
                    "address": "0x5acc84a3e955bdd76467d3348077d003f00ffb97",
                    "callData": "0x00000000000000000000000000000000000000000000000000000000000000020000000000000000000000000000000000000000000000000000000000000003",
                    "decodedMethod": {
                        "callParams": [
                            {
                                "name": "matrix",
                                "type": "uint8",
                                "value": "2"
                            },
                            {
                                "name": "level",
                                "type": "uint8",
                                "value": "3"
                            }
                        ],
                        "constructorArguments": "",
                        "name": "buyNewLevel",
                        "returnParams": [],
                        "signature": "buyNewLevel(uint8,uint8)"
                    },
                    "errorInfo": "",
                    "fromAddress": "0x47700b411e6124cb0ba818de9496ff326b91268b",
                    "gasUsed": 237385,
                    "id": 0,
                    "methodDecoded": true,
                    "operation": "CALL",
                    "output": "",
                    "revert": false,
                    "revertMessage": "",
                    "selector": "0xbe389d57",
                    "status": true,
                    "value": "0.1"
                },
                "nodeType": 0
            },
            "1": {
                "event": {
                    "contract": "0x5acc84a3e955bdd76467d3348077d003f00ffb97",
                    "decodedLog": {
                        "name": "NewUserPlace",
                        "params": [
                            {
                                "name": "user",
                                "type": "address",
                                "value": "0x47700b411e6124cb0ba818de9496ff326b91268b"
                            },
                            {
                                "name": "referrer",
                                "type": "address",
                                "value": "0x98aa60e99476d207ae870ee42902e4c00cd83fe1"
                            },
                            {
                                "name": "matrix",
                                "type": "uint8",
                                "value": "2"
                            },
                            {
                                "name": "level",
                                "type": "uint8",
                                "value": "3"
                            },
                            {
                                "name": "place",
                                "type": "uint8",
                                "value": "2"
                            }
                        ],
                        "signature": "NewUserPlace(address,address,uint8,uint8,uint8)"
                    },
                    "id": 1,
                    "logData": "0x000000000000000000000000000000000000000000000000000000000000000200000000000000000000000000000000000000000000000000000000000000030000000000000000000000000000000000000000000000000000000000000002",
                    "logDecoded": true,
                    "operation": "EVENT",
                    "revert": false,
                    "status": true,
                    "topics": [
                        "0x68062c5925c4317adf3a7095478d28b33fd8b41458bc7620b61bc46bf1b24d82",
                        "0x00000000000000000000000047700b411e6124cb0ba818de9496ff326b91268b",
                        "0x00000000000000000000000098aa60e99476d207ae870ee42902e4c00cd83fe1"
                    ]
                },
                "nodeType": 1
            },
            "2": {
                "event": {
                    "contract": "0x5acc84a3e955bdd76467d3348077d003f00ffb97",
                    "decodedLog": {
                        "name": "NewUserPlace",
                        "params": [
                            {
                                "name": "user",
                                "type": "address",
                                "value": "0x47700b411e6124cb0ba818de9496ff326b91268b"
                            },
                            {
                                "name": "referrer",
                                "type": "address",
                                "value": "0x08968b4da77aae711cfbebd40a2c02aaa57572d5"
                            },
                            {
                                "name": "matrix",
                                "type": "uint8",
                                "value": "2"
                            },
                            {
                                "name": "level",
                                "type": "uint8",
                                "value": "3"
                            },
                            {
                                "name": "place",
                                "type": "uint8",
                                "value": "6"
                            }
                        ],
                        "signature": "NewUserPlace(address,address,uint8,uint8,uint8)"
                    },
                    "id": 2,
                    "logData": "0x000000000000000000000000000000000000000000000000000000000000000200000000000000000000000000000000000000000000000000000000000000030000000000000000000000000000000000000000000000000000000000000006",
                    "logDecoded": true,
                    "operation": "EVENT",
                    "revert": false,
                    "status": true,
                    "topics": [
                        "0x68062c5925c4317adf3a7095478d28b33fd8b41458bc7620b61bc46bf1b24d82",
                        "0x00000000000000000000000047700b411e6124cb0ba818de9496ff326b91268b",
                        "0x00000000000000000000000008968b4da77aae711cfbebd40a2c02aaa57572d5"
                    ]
                },
                "nodeType": 1
            },
            "3": {
                "event": {
                    "contract": "0x5acc84a3e955bdd76467d3348077d003f00ffb97",
                    "decodedLog": {
                        "name": "Reinvest",
                        "params": [
                            {
                                "name": "user",
                                "type": "address",
                                "value": "0x08968b4da77aae711cfbebd40a2c02aaa57572d5"
                            },
                            {
                                "name": "currentReferrer",
                                "type": "address",
                                "value": "0x40f7ca07896d8d59e47c8ae10ab53c060cd5e570"
                            },
                            {
                                "name": "caller",
                                "type": "address",
                                "value": "0x47700b411e6124cb0ba818de9496ff326b91268b"
                            },
                            {
                                "name": "matrix",
                                "type": "uint8",
                                "value": "2"
                            },
                            {
                                "name": "level",
                                "type": "uint8",
                                "value": "3"
                            }
                        ],
                        "signature": "Reinvest(address,address,address,uint8,uint8)"
                    },
                    "id": 3,
                    "logData": "0x00000000000000000000000000000000000000000000000000000000000000020000000000000000000000000000000000000000000000000000000000000003",
                    "logDecoded": true,
                    "operation": "EVENT",
                    "revert": false,
                    "status": true,
                    "topics": [
                        "0xa00c953eff38ec1b71e7fe060b2ab8df0bbe5354319fbdde4fbdafd6324386a6",
                        "0x00000000000000000000000008968b4da77aae711cfbebd40a2c02aaa57572d5",
                        "0x00000000000000000000000040f7ca07896d8d59e47c8ae10ab53c060cd5e570",
                        "0x00000000000000000000000047700b411e6124cb0ba818de9496ff326b91268b"
                    ]
                },
                "nodeType": 1
            },
            "4": {
                "event": {
                    "contract": "0x5acc84a3e955bdd76467d3348077d003f00ffb97",
                    "decodedLog": {
                        "name": "NewUserPlace",
                        "params": [
                            {
                                "name": "user",
                                "type": "address",
                                "value": "0x08968b4da77aae711cfbebd40a2c02aaa57572d5"
                            },
                            {
                                "name": "referrer",
                                "type": "address",
                                "value": "0x002d3821fd8d08a71b03abe168496233f01df4b4"
                            },
                            {
                                "name": "matrix",
                                "type": "uint8",
                                "value": "2"
                            },
                            {
                                "name": "level",
                                "type": "uint8",
                                "value": "3"
                            },
                            {
                                "name": "place",
                                "type": "uint8",
                                "value": "1"
                            }
                        ],
                        "signature": "NewUserPlace(address,address,uint8,uint8,uint8)"
                    },
                    "id": 4,
                    "logData": "0x000000000000000000000000000000000000000000000000000000000000000200000000000000000000000000000000000000000000000000000000000000030000000000000000000000000000000000000000000000000000000000000001",
                    "logDecoded": true,
                    "operation": "EVENT",
                    "revert": false,
                    "status": true,
                    "topics": [
                        "0x68062c5925c4317adf3a7095478d28b33fd8b41458bc7620b61bc46bf1b24d82",
                        "0x00000000000000000000000008968b4da77aae711cfbebd40a2c02aaa57572d5",
                        "0x000000000000000000000000002d3821fd8d08a71b03abe168496233f01df4b4"
                    ]
                },
                "nodeType": 1
            },
            "5": {
                "event": {
                    "contract": "0x5acc84a3e955bdd76467d3348077d003f00ffb97",
                    "decodedLog": {
                        "name": "NewUserPlace",
                        "params": [
                            {
                                "name": "user",
                                "type": "address",
                                "value": "0x08968b4da77aae711cfbebd40a2c02aaa57572d5"
                            },
                            {
                                "name": "referrer",
                                "type": "address",
                                "value": "0x40f7ca07896d8d59e47c8ae10ab53c060cd5e570"
                            },
                            {
                                "name": "matrix",
                                "type": "uint8",
                                "value": "2"
                            },
                            {
                                "name": "level",
                                "type": "uint8",
                                "value": "3"
                            },
                            {
                                "name": "place",
                                "type": "uint8",
                                "value": "3"
                            }
                        ],
                        "signature": "NewUserPlace(address,address,uint8,uint8,uint8)"
                    },
                    "id": 5,
                    "logData": "0x000000000000000000000000000000000000000000000000000000000000000200000000000000000000000000000000000000000000000000000000000000030000000000000000000000000000000000000000000000000000000000000003",
                    "logDecoded": true,
                    "operation": "EVENT",
                    "revert": false,
                    "status": true,
                    "topics": [
                        "0x68062c5925c4317adf3a7095478d28b33fd8b41458bc7620b61bc46bf1b24d82",
                        "0x00000000000000000000000008968b4da77aae711cfbebd40a2c02aaa57572d5",
                        "0x00000000000000000000000040f7ca07896d8d59e47c8ae10ab53c060cd5e570"
                    ]
                },
                "nodeType": 1
            },
            "6": {
                "invocation": {
                    "address": "0x40f7ca07896d8d59e47c8ae10ab53c060cd5e570",
                    "callData": "0x",
                    "decodedMethod": null,
                    "errorInfo": "",
                    "fromAddress": "0x5acc84a3e955bdd76467d3348077d003f00ffb97",
                    "gasUsed": 0,
                    "id": 6,
                    "methodDecoded": false,
                    "operation": "CALL",
                    "output": "",
                    "revert": false,
                    "revertMessage": "",
                    "selector": "fallback",
                    "status": true,
                    "value": "0.1"
                },
                "nodeType": 0
            },
            "7": {
                "event": {
                    "contract": "0x5acc84a3e955bdd76467d3348077d003f00ffb97",
                    "decodedLog": {
                        "name": "Upgrade",
                        "params": [
                            {
                                "name": "user",
                                "type": "address",
                                "value": "0x47700b411e6124cb0ba818de9496ff326b91268b"
                            },
                            {
                                "name": "referrer",
                                "type": "address",
                                "value": "0x08968b4da77aae711cfbebd40a2c02aaa57572d5"
                            },
                            {
                                "name": "matrix",
                                "type": "uint8",
                                "value": "2"
                            },
                            {
                                "name": "level",
                                "type": "uint8",
                                "value": "3"
                            }
                        ],
                        "signature": "Upgrade(address,address,uint8,uint8)"
                    },
                    "id": 7,
                    "logData": "0x00000000000000000000000000000000000000000000000000000000000000020000000000000000000000000000000000000000000000000000000000000003",
                    "logDecoded": true,
                    "operation": "EVENT",
                    "revert": false,
                    "status": true,
                    "topics": [
                        "0x18a92df19fd94d6cfff209966673a5ca05a1c8e2bb68e097fce2bdc2ed811119",
                        "0x00000000000000000000000047700b411e6124cb0ba818de9496ff326b91268b",
                        "0x00000000000000000000000008968b4da77aae711cfbebd40a2c02aaa57572d5"
                    ]
                },
                "nodeType": 1
            }
        },
        "gasFlame": [
            {
                "children": [
                    {
                        "children": [
                            {
                                "children": [],
                                "depth": 0,
                                "name": "Initial Gas",
                                "value": 21344
                            },
                            {
                                "children": [
                                    {
                                        "children": [],
                                        "depth": 1,
                                        "name": "fallback",
                                        "value": 0
                                    }
                                ],
                                "depth": 0,
                                "name": "Executed Gas",
                                "value": 340241
                            }
                        ],
                        "depth": -1,
                        "name": "Actual Gas Used",
                        "value": 237385
                    },
                    {
                        "children": [],
                        "depth": -1,
                        "name": "Refunded Gas",
                        "value": 124200
                    }
                ],
                "depth": -2,
                "name": "Total Gas",
                "value": 361585
            }
        ],
        "isConfirmed": true,
        "mainTrace": [
            {
                "children": [
                    {
                        "children": [
                            {
                                "children": [],
                                "depth": 1,
                                "id": 1,
                                "order": 1
                            },
                            {
                                "children": [],
                                "depth": 1,
                                "id": 2,
                                "order": 2
                            },
                            {
                                "children": [],
                                "depth": 1,
                                "id": 3,
                                "order": 3
                            },
                            {
                                "children": [],
                                "depth": 1,
                                "id": 4,
                                "order": 4
                            },
                            {
                                "children": [],
                                "depth": 1,
                                "id": 5,
                                "order": 5
                            },
                            {
                                "children": [],
                                "depth": 1,
                                "id": 6,
                                "order": 6
                            },
                            {
                                "children": [],
                                "depth": 1,
                                "id": 7,
                                "order": 7
                            }
                        ],
                        "depth": 0,
                        "id": 0,
                        "order": 0
                    }
                ],
                "depth": -1,
                "id": -1,
                "order": -1
            }
        ],
        "mainTraceNodeCount": 8,
        "parentIdMap": {
            "0": -1,
            "1": 0,
            "2": 0,
            "3": 0,
            "4": 0,
            "5": 0,
            "6": 0,
            "7": 0
        },
        "tidyTrace": [
            {
                "children": [
                    {
                        "children": [
                            {
                                "children": [],
                                "depth": 1,
                                "id": 1,
                                "order": 1
                            },
                            {
                                "children": [],
                                "depth": 1,
                                "id": 2,
                                "order": 2
                            },
                            {
                                "children": [],
                                "depth": 1,
                                "id": 3,
                                "order": 3
                            },
                            {
                                "children": [],
                                "depth": 1,
                                "id": 4,
                                "order": 4
                            },
                            {
                                "children": [],
                                "depth": 1,
                                "id": 5,
                                "order": 5
                            },
                            {
                                "children": [],
                                "depth": 1,
                                "id": 6,
                                "order": 6
                            },
                            {
                                "children": [],
                                "depth": 1,
                                "id": 7,
                                "order": 7
                            }
                        ],
                        "depth": 0,
                        "id": 0,
                        "order": 0
                    }
                ],
                "depth": -1,
                "id": -1,
                "order": -1
            }
        ],
        "tidyTraceNodeCount": 8
    },
    "state_change": {
        "stateChanges": [
            {
                "address": "0x5acc84a3e955bdd76467d3348077d003f00ffb97",
                "erc": "",
                "slots": [
                    {
                        "current": "0x00000000000000000000000098aa60e99476d207ae870ee42902e4c00cd83fe1",
                        "key": "0x0e27b00df8fe9b2fa66e3354ff77d7f9912bbb9692de31d4256bea07d44f1e28",
                        "prev": "0x0000000000000000000000000000000000000000000000000000000000000000"
                    },
                    {
                        "current": "0x0000000000000000000000000000000000000000000000000000000000000000",
                        "key": "0x3ac923c0c18ebc94c2effc6484588fcd14e26352ee5bd40d42c75e4a6b30e414",
                        "prev": "0x0000000000000000000000000000000000000000000000000000000000000003"
                    },
                    {
                        "current": "0x0000000000000000000000000000000000000000000000000000000000000000",
                        "key": "0x2f6fd89929e686e3f317888618f32c0725c3a80bdcd1cac4355a82de34ee28ba",
                        "prev": "0x00000000000000000000000079f021ea1d10a7a0c4b1f579ebfe70a73153c7b4"
                    },
                    {
                        "current": "0x0000000000000000000000000000000000000000000000000000000000000000",
                        "key": "0x3ac923c0c18ebc94c2effc6484588fcd14e26352ee5bd40d42c75e4a6b30e413",
                        "prev": "0x0000000000000000000000000000000000000000000000000000000000000002"
                    },
                    {
                        "current": "0x000000000000000000000000002d3821fd8d08a71b03abe168496233f01df4b4",
                        "key": "0x3ac923c0c18ebc94c2effc6484588fcd14e26352ee5bd40d42c75e4a6b30e412",
                        "prev": "0x00000000000000000000000040f7ca07896d8d59e47c8ae10ab53c060cd5e570"
                    },
                    {
                        "current": "0x0000000000000000000000000000000000000000000000000000000000000000",
                        "key": "0x2f6fd89929e686e3f317888618f32c0725c3a80bdcd1cac4355a82de34ee28bb",
                        "prev": "0x000000000000000000000000d1466e853498c9db91f6785538aa7a4736d20ece"
                    },
                    {
                        "current": "0x00000000000000000000000047700b411e6124cb0ba818de9496ff326b91268b",
                        "key": "0x8eeca1618d3fba24a2a2a92f4300c1bbbdca15a73a7da1a66a8c8f6d1a47142d",
                        "prev": "0x0000000000000000000000000000000000000000000000000000000000000000"
                    },
                    {
                        "current": "0x0000000000000000000000000000000000000000000000000000000000000002",
                        "key": "0x66e90f055303904f182183a4827401b8fe34ce17dda01f7b028d0cfa31b8f793",
                        "prev": "0x0000000000000000000000000000000000000000000000000000000000000001"
                    },
                    {
                        "current": "0x0000000000000000000000000000000000000000000000000000000000000000",
                        "key": "0x2f6fd89929e686e3f317888618f32c0725c3a80bdcd1cac4355a82de34ee28b9",
                        "prev": "0x000000000000000000000000eefc44368f99cb472b44797b3ea6f6de3b39f087"
                    },
                    {
                        "current": "0x0000000000000000000000000000000000000000000000000000000000000001",
                        "key": "0x8b1a9ef0eab5d42e395fe1fd59249eb9b453ea0c994002960d17654717cbca41",
                        "prev": "0x0000000000000000000000000000000000000000000000000000000000000000"
                    },
                    {
                        "current": "0x0000000000000000000000000000000000000000000000000000000000000001",
                        "key": "0xd4aa359aa30704f8cacbe6c780d7fca7c5c89e9cbcd4e2a4d9d9e15c7a855c95",
                        "prev": "0x0000000000000000000000000000000000000000000000000000000000000000"
                    },
                    {
                        "current": "0x0000000000000000000000000000000000000000000000000000000000000000",
                        "key": "0x3c3b6be685baa7835515b25a31aa27cd2c2a20129812b84d8ab80b672b5f7755",
                        "prev": "0x0000000000000000000000005e4e102adbcfc48060dbe09ade832df6b0de2c73"
                    },
                    {
                        "current": "0x0000000000000000000000000000000000000000000000000000000000000000",
                        "key": "0x3c3b6be685baa7835515b25a31aa27cd2c2a20129812b84d8ab80b672b5f7756",
                        "prev": "0x00000000000000000000000098aa60e99476d207ae870ee42902e4c00cd83fe1"
                    },
                    {
                        "current": "0x0000000000000000000000000000000000000000000000000000000000000001",
                        "key": "0x3ac923c0c18ebc94c2effc6484588fcd14e26352ee5bd40d42c75e4a6b30e416",
                        "prev": "0x0000000000000000000000000000000000000000000000000000000000000000"
                    },
                    {
                        "current": "0x00000000000000000000000008968b4da77aae711cfbebd40a2c02aaa57572d5",
                        "key": "0x8a899ea74da18caf768e69cdcea871d14c35c295ddde0507b460623288295868",
                        "prev": "0x0000000000000000000000000000000000000000000000000000000000000000"
                    },
                    {
                        "current": "0x0000000000000000000000000000000000000000000000000000000000000001",
                        "key": "0x509ff30c9e4b44bdfd918738487df4789ac241d1c771d7e6f15ba5f8a2a72a30",
                        "prev": "0x0000000000000000000000000000000000000000000000000000000000000000"
                    },
                    {
                        "current": "0x00000000000000000000000008968b4da77aae711cfbebd40a2c02aaa57572d5",
                        "key": "0x3b98c84dbf5b4b6714e27d9840079a368059ba7055053da505cfe0ef074cc374",
                        "prev": "0x0000000000000000000000000000000000000000000000000000000000000000"
                    }
                ],
                "storageVariables": [
                    {
                        "name": "users",
                        "type": "mapping(address => struct SmartMatrixForsage.User)",
                        "value": {
                            "pairs": [
                                {
                                    "key": "0x002d3821fd8d08a71b03abe168496233f01df4b4",
                                    "value": {
                                        "fields": [
                                            {
                                                "name": "x6Matrix",
                                                "type": "mapping(uint8 => struct SmartMatrixForsage.X6)",
                                                "value": {
                                                    "pairs": [
                                                        {
                                                            "key": "3",
                                                            "value": {
                                                                "fields": [
                                                                    {
                                                                        "name": "firstLevelReferrals",
                                                                        "type": "address[]",
                                                                        "value": {
                                                                            "elemType": "address",
                                                                            "elems": [
                                                                                {
                                                                                    "index": 0,
                                                                                    "value": {
                                                                                        "current": "0x08968b4da77aae711cfbebd40a2c02aaa57572d5",
                                                                                        "prev": "0x0000000000000000000000000000000000000000",
                                                                                        "typeTag": 1
                                                                                    }
                                                                                }
                                                                            ],
                                                                            "typeTag": 2
                                                                        }
                                                                    }
                                                                ],
                                                                "typeTag": 3
                                                            }
                                                        }
                                                    ],
                                                    "typeTag": 4
                                                }
                                            }
                                        ],
                                        "typeTag": 3
                                    }
                                },
                                {
                                    "key": "0x08968b4da77aae711cfbebd40a2c02aaa57572d5",
                                    "value": {
                                        "fields": [
                                            {
                                                "name": "x6Matrix",
                                                "type": "mapping(uint8 => struct SmartMatrixForsage.X6)",
                                                "value": {
                                                    "pairs": [
                                                        {
                                                            "key": "3",
                                                            "value": {
                                                                "fields": [
                                                                    {
                                                                        "name": "currentReferrer",
                                                                        "type": "address",
                                                                        "value": {
                                                                            "current": "0x002d3821fd8d08a71b03abe168496233f01df4b4",
                                                                            "prev": "0x40f7ca07896d8d59e47c8ae10ab53c060cd5e570",
                                                                            "typeTag": 1
                                                                        }
                                                                    },
                                                                    {
                                                                        "name": "reinvestCount",
                                                                        "type": "uint256",
                                                                        "value": {
                                                                            "current": "1",
                                                                            "prev": "0",
                                                                            "typeTag": 1
                                                                        }
                                                                    }
                                                                ],
                                                                "typeTag": 3
                                                            }
                                                        }
                                                    ],
                                                    "typeTag": 4
                                                }
                                            }
                                        ],
                                        "typeTag": 3
                                    }
                                },
                                {
                                    "key": "0x40f7ca07896d8d59e47c8ae10ab53c060cd5e570",
                                    "value": {
                                        "fields": [
                                            {
                                                "name": "x6Matrix",
                                                "type": "mapping(uint8 => struct SmartMatrixForsage.X6)",
                                                "value": {
                                                    "pairs": [
                                                        {
                                                            "key": "3",
                                                            "value": {
                                                                "fields": [
                                                                    {
                                                                        "name": "secondLevelReferrals",
                                                                        "type": "address[]",
                                                                        "value": {
                                                                            "elemType": "address",
                                                                            "elems": [
                                                                                {
                                                                                    "index": 0,
                                                                                    "value": {
                                                                                        "current": "0x08968b4da77aae711cfbebd40a2c02aaa57572d5",
                                                                                        "prev": "0x0000000000000000000000000000000000000000",
                                                                                        "typeTag": 1
                                                                                    }
                                                                                }
                                                                            ],
                                                                            "typeTag": 2
                                                                        }
                                                                    }
                                                                ],
                                                                "typeTag": 3
                                                            }
                                                        }
                                                    ],
                                                    "typeTag": 4
                                                }
                                            }
                                        ],
                                        "typeTag": 3
                                    }
                                },
                                {
                                    "key": "0x47700b411e6124cb0ba818de9496ff326b91268b",
                                    "value": {
                                        "fields": [
                                            {
                                                "name": "activeX6Levels",
                                                "type": "mapping(uint8 => bool)",
                                                "value": {
                                                    "pairs": [
                                                        {
                                                            "key": "3",
                                                            "value": {
                                                                "current": "true",
                                                                "prev": "false",
                                                                "typeTag": 1
                                                            }
                                                        }
                                                    ],
                                                    "typeTag": 4
                                                }
                                            },
                                            {
                                                "name": "x6Matrix",
                                                "type": "mapping(uint8 => struct SmartMatrixForsage.X6)",
                                                "value": {
                                                    "pairs": [
                                                        {
                                                            "key": "3",
                                                            "value": {
                                                                "fields": [
                                                                    {
                                                                        "name": "currentReferrer",
                                                                        "type": "address",
                                                                        "value": {
                                                                            "current": "0x98aa60e99476d207ae870ee42902e4c00cd83fe1",
                                                                            "prev": "0x0000000000000000000000000000000000000000",
                                                                            "typeTag": 1
                                                                        }
                                                                    }
                                                                ],
                                                                "typeTag": 3
                                                            }
                                                        }
                                                    ],
                                                    "typeTag": 4
                                                }
                                            }
                                        ],
                                        "typeTag": 3
                                    }
                                },
                                {
                                    "key": "0x98aa60e99476d207ae870ee42902e4c00cd83fe1",
                                    "value": {
                                        "fields": [
                                            {
                                                "name": "x6Matrix",
                                                "type": "mapping(uint8 => struct SmartMatrixForsage.X6)",
                                                "value": {
                                                    "pairs": [
                                                        {
                                                            "key": "3",
                                                            "value": {
                                                                "fields": [
                                                                    {
                                                                        "name": "firstLevelReferrals",
                                                                        "type": "address[]",
                                                                        "value": {
                                                                            "elemType": "address",
                                                                            "elems": [
                                                                                {
                                                                                    "index": 1,
                                                                                    "value": {
                                                                                        "current": "0x47700b411e6124cb0ba818de9496ff326b91268b",
                                                                                        "prev": "0x0000000000000000000000000000000000000000",
                                                                                        "typeTag": 1
                                                                                    }
                                                                                }
                                                                            ],
                                                                            "typeTag": 2
                                                                        }
                                                                    }
                                                                ],
                                                                "typeTag": 3
                                                            }
                                                        }
                                                    ],
                                                    "typeTag": 4
                                                }
                                            }
                                        ],
                                        "typeTag": 3
                                    }
                                }
                            ],
                            "typeTag": 4
                        }
                    }
                ]
            }
        ]
    }
}