{
    "balance_change": {
        "balanceChanges": []
    },
    "profile": {
        "basic_info": {
            "baseFee": "",
            "blockNumber": 4224122,
            "callData": "0x3fedcc31000000000000000000000000000000000d4375d19ca348b59f0dfd4b015b6bce000000000000000000000000a36ae0f959046a18d109dc5b1fb8df655cf0aa81000000000000000000000000ad66ece9bf8c71870aecdaf01b06dcf4b3c2f5790000000000000000000000001d7de5ac525257040f170628c07a3a7a265c9b3a00000000000000000000000000000000000000000000000078bc9afef540f00000000000000000000000000000000000000000000000000000000000000000e0000000000000000000000000000000000000000000000000000000000000016000000000000000000000000000000000000000000000000000000000000000417640e572ee1e176af369d62b567234b5fcd29baf6b4d928f4d299dcb5ff23cca118cb4ada7f68af5d94b6ce548847b9c03c3b7c7dd52b49fce20ea1263bcfcaa1b0000000000000000000000000000000000000000000000000000000000000000000000000000000000000000000000000000000000000000000000000000000000000000000000000000000000000000000000000000000000000000000000",
            "debugEnable": true,
            "errorInfo": "",
            "eventCount": 1,
            "feeRecipient": "0x1e9939daaad6924ad004c2560e90804164900341",
            "formatValue": "0",
            "gasLimit": 200000,
            "gasPrice": "25",
            "gasUsed": 74244,
            "intTxnCount": 2,
            "internalRevert": false,
            "internalRevertMessage": "",
            "isContractCreation": false,
            "isFlashloan": false,
            "maxFee": "",
            "nonce": 36873,
            "overwritedBlockNumber": -1,
            "priorityFee": "",
            "receiver": "0x7ddf4ed06fe5ecc646fad19d257cd3f05a884d70",
            "revertMessage": "",
            "sender": "0xf2015a9160c9c9381ff99f19fc18e5af57cac8ed",
            "simulationEnable": true,
            "sourceTxnHash": "0x0fc9bac87bbd101c35ae6077c9b62fbe5127b46770141512443ca6765548b097",
            "status": true,
            "timestamp": "2017-08-31T17:45:42Z",
            "transactionFee": "0.0018561",
            "txnHash": "0x0fc9bac87bbd101c35ae6077c9b62fbe5127b46770141512443ca6765548b097",
            "txnIndex": 109,
            "type": 0,
            "value": "0"
        },
        "fund_flow": [],
        "token_infos": [
            {
                "address": "0xeeeeeeeeeeeeeeeeeeeeeeeeeeeeeeeeeeeeeeee",
                "decimals": 18
            },
            {
                "address": "0xc02aaa39b223fe8d0a0e5c4f27ead9083c756cc2",
                "decimals": 18
            }
        ]
    },
    "address_label": {
        "labels": [
            {
                "address": "0xeeeeeeeeeeeeeeeeeeeeeeeeeeeeeeeeeeeeeeee",
                "label": "Ether"
            },
            {
                "address": "0xf2015a9160c9c9381ff99f19fc18e5af57cac8ed",
                "label": "Lykke: Deployer"
            },
            {
                "address": "0x0000000000000000000000000000000000000001",
                "label": "Precompiled"
            },
            {
                "address": "0x0000000000000000000000000000000000000002",
                "label": "Precompiled"
            },
            {
                "address": "0x0000000000000000000000000000000000000003",
                "label": "Precompiled"
            },
            {
                "address": "0x0000000000000000000000000000000000000004",
                "label": "Precompiled"
            }
        ]
    },
    "trace": {
        "accountLabels": null,
        "dataMap": {
            "-1": {
                "invocation": {
                    "address": "0xf2015a9160c9c9381ff99f19fc18e5af57cac8ed",
                    "callData": "",
                    "decodedMethod": null,
                    "errorInfo": "",
                    "fromAddress": "",
                    "gasUsed": 0,
                    "id": -1,
                    "methodDecoded": false,
                    "operation": "",
                    "output": "",
                    "revert": false,
                    "revertMessage": "",
                    "selector": "",
                    "status": false,
                    "value": ""
                },
                "nodeType": 0
            },
            "0": {
                "invocation": {
                    "address": "0x7ddf4ed06fe5ecc646fad19d257cd3f05a884d70",
                    "callData": "0x000000000000000000000000000000000d4375d19ca348b59f0dfd4b015b6bce000000000000000000000000a36ae0f959046a18d109dc5b1fb8df655cf0aa81000000000000000000000000ad66ece9bf8c71870aecdaf01b06dcf4b3c2f5790000000000000000000000001d7de5ac525257040f170628c07a3a7a265c9b3a00000000000000000000000000000000000000000000000078bc9afef540f00000000000000000000000000000000000000000000000000000000000000000e0000000000000000000000000000000000000000000000000000000000000016000000000000000000000000000000000000000000000000000000000000000417640e572ee1e176af369d62b567234b5fcd29baf6b4d928f4d299dcb5ff23cca118cb4ada7f68af5d94b6ce548847b9c03c3b7c7dd52b49fce20ea1263bcfcaa1b0000000000000000000000000000000000000000000000000000000000000000000000000000000000000000000000000000000000000000000000000000000000000000000000000000000000000000000000000000000000000000000000",
                    "decodedMethod": null,
                    "errorInfo": "",
                    "fromAddress": "0xf2015a9160c9c9381ff99f19fc18e5af57cac8ed",
                    "gasUsed": 74244,
                    "id": 0,
                    "methodDecoded": false,
                    "operation": "CALL",
                    "output": "",
                    "revert": false,
                    "revertMessage": "",
                    "selector": "0x3fedcc31",
                    "status": true,
                    "value": "0"
                },
                "nodeType": 0
            },
            "1": {
                "invocation": {
                    "address": "0x0000000000000000000000000000000000000001",
                    "callData": "0xa7d36ccbe99fc02d2cee63a4d520e5e325f8ad60693934e3c2a6fa62000000000000000000000000000000000000000000000000000000000000001b7640e572ee1e176af369d62b567234b5fcd29baf6b4d928f4d299dcb5ff23cca118cb4ada7f68af5d94b6ce548847b9c03c3b7c7dd52b49fce20ea1263bcfcaa",
                    "decodedMethod": {
                        "callParams": [
                            {
                                "name": "hash",
                                "type": "bytes32",
                                "value": "0x99a58d9fa7d36ccbe99fc02d2cee63a4d520e5e325f8ad60693934e3c2a6fa62"
                            },
                            {
                                "name": "v",
                                "type": "uint256",
                                "value": "27"
                            },
                            {
                                "name": "r",
                                "type": "bytes32",
                                "value": "0x7640e572ee1e176af369d62b567234b5fcd29baf6b4d928f4d299dcb5ff23cca"
                            },
                            {
                                "name": "s",
                                "type": "bytes32",
                                "value": "0x118cb4ada7f68af5d94b6ce548847b9c03c3b7c7dd52b49fce20ea1263bcfcaa"
                            }
                        ],
                        "constructorArguments": "",
                        "name": "ecrecover",
                        "returnParams": [
                            {
                                "name": "",
                                "type": "address",
                                "value": "0xad66ece9bf8c71870aecdaf01b06dcf4b3c2f579"
                            }
                        ],
                        "signature": "ecrecover(bytes32,uint256,bytes32,bytes32)"
                    },
                    "errorInfo": "",
                    "fromAddress": "0x7ddf4ed06fe5ecc646fad19d257cd3f05a884d70",
                    "gasUsed": 3000,
                    "id": 1,
                    "methodDecoded": true,
                    "operation": "CALL",
                    "output": "0x000000000000000000000000ad66ece9bf8c71870aecdaf01b06dcf4b3c2f579",
                    "revert": false,
                    "revertMessage": "",
                    "selector": "0x99a58d9f",
                    "status": true,
                    "value": "0"
                },
                "nodeType": 0
            },
            "2": {
                "invocation": {
                    "address": "0xa36ae0f959046a18d109dc5b1fb8df655cf0aa81",
                    "callData": "0x000000000000000000000000ad66ece9bf8c71870aecdaf01b06dcf4b3c2f5790000000000000000000000001d7de5ac525257040f170628c07a3a7a265c9b3a00000000000000000000000000000000000000000000000078bc9afef540f000",
                    "decodedMethod": {
                        "callParams": [
                            {
                                "name": "_contract",
                                "type": "address",
                                "value": "0xad66ece9bf8c71870aecdaf01b06dcf4b3c2f579"
                            },
                            {
                                "name": "_to",
                                "type": "address",
                                "value": "0x1d7de5ac525257040f170628c07a3a7a265c9b3a"
                            },
                            {
                                "name": "_amount",
                                "type": "uint256",
                                "value": "8,699,999,000,000,000,000"
                            }
                        ],
                        "constructorArguments": "",
                        "name": "transferMultisig",
                        "returnParams": [],
                        "signature": "transferMultisig(address,address,uint256)"
                    },
                    "errorInfo": "",
                    "fromAddress": "0x7ddf4ed06fe5ecc646fad19d257cd3f05a884d70",
                    "gasUsed": 13610,
                    "id": 2,
                    "methodDecoded": true,
                    "operation": "CALL",
                    "output": "",
                    "revert": false,
                    "revertMessage": "",
                    "selector": "0x6ba2aefc",
                    "status": true,
                    "value": "0"
                },
                "nodeType": 0
            },
            "3": {
                "event": {
                    "contract": "0xa36ae0f959046a18d109dc5b1fb8df655cf0aa81",
                    "decodedLog": null,
                    "id": 3,
                    "logData": "0x0000000000000000000000007ddf4ed06fe5ecc646fad19d257cd3f05a884d70000000000000000000000000ad66ece9bf8c71870aecdaf01b06dcf4b3c2f5790000000000000000000000001d7de5ac525257040f170628c07a3a7a265c9b3a00000000000000000000000000000000000000000000000078bc9afef540f000",
                    "logDecoded": false,
                    "operation": "EVENT",
                    "revert": false,
                    "status": true,
                    "topics": [
                        "0xad61cab1dd9ce7c4095cf8876c832e5400db787afab09d55b74b8c75dcd6538c"
                    ]
                },
                "nodeType": 1
            }
        },
        "gasFlame": [
            {
                "children": [
                    {
                        "children": [
                            {
                                "children": [],
                                "depth": 0,
                                "name": "Initial Gas",
                                "value": 32664
                            },
                            {
                                "children": [
                                    {
                                        "children": [],
                                        "depth": 1,
                                        "name": "ecrecover",
                                        "value": 3000
                                    },
                                    {
                                        "children": [],
                                        "depth": 1,
                                        "name": "transferMultisig",
                                        "value": 13610
                                    }
                                ],
                                "depth": 0,
                                "name": "Executed Gas",
                                "value": 41580
                            }
                        ],
                        "depth": -1,
                        "name": "Actual Gas Used",
                        "value": 74244
                    },
                    {
                        "children": [],
                        "depth": -1,
                        "name": "Refunded Gas",
                        "value": 0
                    }
                ],
                "depth": -2,
                "name": "Total Gas",
                "value": 74244
            }
        ],
        "isConfirmed": true,
        "mainTrace": [
            {
                "children": [
                    {
                        "children": [
                            {
                                "children": [],
                                "depth": 1,
                                "id": 1,
                                "order": 1
                            },
                            {
                                "children": [
                                    {
                                        "children": [],
                                        "depth": 2,
                                        "id": 3,
                                        "order": 3
                                    }
                                ],
                                "depth": 1,
                                "id": 2,
                                "order": 2
                            }
                        ],
                        "depth": 0,
                        "id": 0,
                        "order": 0
                    }
                ],
                "depth": -1,
                "id": -1,
                "order": -1
            }
        ],
        "mainTraceNodeCount": 4,
        "parentIdMap": {
            "0": -1,
            "1": 0,
            "2": 0,
            "3": 2
        },
        "tidyTrace": [
            {
                "children": [
                    {
                        "children": [
                            {
                                "children": [],
                                "depth": 1,
                                "id": 1,
                                "order": 1
                            },
                            {
                                "children": [
                                    {
                                        "children": [],
                                        "depth": 2,
                                        "id": 3,
                                        "order": 3
                                    }
                                ],
                                "depth": 1,
                                "id": 2,
                                "order": 2
                            }
                        ],
                        "depth": 0,
                        "id": 0,
                        "order": 0
                    }
                ],
                "depth": -1,
                "id": -1,
                "order": -1
            }
        ],
        "tidyTraceNodeCount": 4
    },
    "state_change": {
        "stateChanges": [
            {
                "address": "0x7ddf4ed06fe5ecc646fad19d257cd3f05a884d70",
                "erc": "",
                "slots": [
                    {
                        "current": "0x0000000000000000000000000000000000000000000000000000000000000001",
                        "key": "0x1c4bbb5508e495ea06d50047a1b42d160c8114dfd5209026a8414f03d1c2eebb",
                        "prev": "0x0000000000000000000000000000000000000000000000000000000000000000"
                    }
                ],
                "storageVariables": []
            },
            {
                "address": "0xa36ae0f959046a18d109dc5b1fb8df655cf0aa81",
                "erc": "",
                "slots": [
                    {
                        "current": "0x00000000000000000000000000000000000000000000000078bc9b9af45d9c00",
                        "key": "0xad052934be2262b2c762df93780fe2a6901ad4c9bd8c448f5a46cac530c20427",
                        "prev": "0x0000000000000000000000000000000000000000000000000000009bff1cac00"
                    },
                    {
                        "current": "0x00000000000000000000000000000000000000000000000465d494c9c2418bfa",
                        "key": "0x06b5758ede2e050e1a210c5003ba90d9f1d9ecc8320b4d8f665ef200f04bd8b2",
                        "prev": "0x000000000000000000000000000000000000000000000004de912fc8b7827bfa"
                    }
                ],
                "storageVariables": []
            }
        ]
    }
}