{
    "balance_change": {
        "balanceChanges": [
            {
                "account": "0x5aac2272179d08a3b2a9b7c65ee0f65cbf29b0f2",
                "assets": [
                    {
                        "address": "0x0f5d2fb29fb7d3cfee444a200298f468908cc942",
                        "amount": "40",
                        "iconUrl": "https://assets.blocksec.com/icon/54d64db7c4b21ad51c32e15fe06a87bf31831382d6c6aa49b4adb5dfaa42993c.png",
                        "isERC1155": false,
                        "isERC721": false,
                        "sign": false,
                        "value": "101.3870036"
                    },
                    {
                        "address": "0xd5d86fc8d5c0ea1ac1ac5dfab6e529c9967a45e9",
                        "amount": "504.006441566832802041",
                        "iconUrl": "",
                        "isERC1155": false,
                        "isERC721": false,
                        "sign": true,
                        "value": "96.54575647"
                    }
                ]
            },
            {
                "account": "0x1bec4db6c3bc499f3dbf289f5499c30d541fec97",
                "assets": [
                    {
                        "address": "0x0f5d2fb29fb7d3cfee444a200298f468908cc942",
                        "amount": "39.65",
                        "iconUrl": "https://assets.blocksec.com/icon/54d64db7c4b21ad51c32e15fe06a87bf31831382d6c6aa49b4adb5dfaa42993c.png",
                        "isERC1155": false,
                        "isERC721": false,
                        "sign": true,
                        "value": "94.85591032"
                    },
                    {
                        "address": "0xc02aaa39b223fe8d0a0e5c4f27ead9083c756cc2",
                        "amount": "0.036658619757298227",
                        "iconUrl": "https://assets.blocksec.com/icon/f1cb2d02c471d545bbc7722daf3277fd852d98e63d118771af7047bd8256c516.png",
                        "isERC1155": false,
                        "isERC721": false,
                        "sign": false,
                        "value": "107.813876268634354444"
                    }
                ]
            },
            {
                "account": "0x2acf35c9a3f4c5c3f4c78ef5fb64c3ee82f07c45",
                "assets": [
                    {
                        "address": "0x0f5d2fb29fb7d3cfee444a200298f468908cc942",
                        "amount": "0.35",
                        "iconUrl": "https://assets.blocksec.com/icon/54d64db7c4b21ad51c32e15fe06a87bf31831382d6c6aa49b4adb5dfaa42993c.png",
                        "isERC1155": false,
                        "isERC721": false,
                        "sign": true,
                        "value": "1.07033616"
                    }
                ]
            },
            {
                "account": "0x3827f0e43bb7d52a2ddd40eb8812180394a21b0d",
                "assets": [
                    {
                        "address": "0xc02aaa39b223fe8d0a0e5c4f27ead9083c756cc2",
                        "amount": "0.036658619757298227",
                        "iconUrl": "https://assets.blocksec.com/icon/f1cb2d02c471d545bbc7722daf3277fd852d98e63d118771af7047bd8256c516.png",
                        "isERC1155": false,
                        "isERC721": false,
                        "sign": true,
                        "value": "107.813876268634354444"
                    },
                    {
                        "address": "0xd5d86fc8d5c0ea1ac1ac5dfab6e529c9967a45e9",
                        "amount": "504.006441566832802041",
                        "iconUrl": "",
                        "isERC1155": false,
                        "isERC721": false,
                        "sign": false,
                        "value": "96.54575647"
                    }
                ]
            }
        ]
    },
    "profile": {
        "basic_info": {
            "baseFee": "37.055824008",
            "blockNumber": 14349191,
            "callData": "0x5f57552900000000000000000000000000000000000000000000000000000000000000800000000000000000000000000f5d2fb29fb7d3cfee444a200298f468908cc9420000000000000000000000000000000000000000000000022b1c8c1227a0000000000000000000000000000000000000000000000000000000000000000000c000000000000000000000000000000000000000000000000000000000000000136f6e65496e6368563446656544796e616d69630000000000000000000000000000000000000000000000000000000000000000000000000000000000000002200000000000000000000000000f5d2fb29fb7d3cfee444a200298f468908cc942000000000000000000000000d5d86fc8d5c0ea1ac1ac5dfab6e529c9967a45e9000000000000000000000000000000000000000000000002264118ece03d000000000000000000000000000000000000000000000000001a7e44dc5522653f66000000000000000000000000000000000000000000000000000000000000012000000000000000000000000000000000000000000000000004db7325476300000000000000000000000000002acf35c9a3f4c5c3f4c78ef5fb64c3ee82f07c45000000000000000000000000000000000000000000000000000000000000000000000000000000000000000000000000000000000000000000000000000000e82e95b6c80000000000000000000000000f5d2fb29fb7d3cfee444a200298f468908cc942000000000000000000000000000000000000000000000002264118ece03d000000000000000000000000000000000000000000000000001a7e44dc5522653f660000000000000000000000000000000000000000000000000000000000000080000000000000000000000000000000000000000000000000000000000000000200000000000000003b6d03401bec4db6c3bc499f3dbf289f5499c30d541fec9700000000000000003b6d03403827f0e43bb7d52a2ddd40eb8812180394a21b0dab4991fe000000000000000000000000000000000000000000000000f2",
            "debugEnable": true,
            "errorInfo": "",
            "eventCount": 11,
            "feeRecipient": "0x2a20380dca5bc24d052acfbf79ba23e988ad0050",
            "formatValue": "0",
            "gasLimit": 279295,
            "gasPrice": "39.055824008",
            "gasUsed": 213155,
            "intTxnCount": 20,
            "internalRevert": false,
            "internalRevertMessage": "",
            "isContractCreation": false,
            "isFlashloan": false,
            "maxFee": "51.803737791",
            "nonce": 123,
            "overwritedBlockNumber": -1,
            "priorityFee": "2",
            "receiver": "0x881d40237659c251811cec9c364ef91dc08d300c",
            "revertMessage": "",
            "sender": "0x5aac2272179d08a3b2a9b7c65ee0f65cbf29b0f2",
            "simulationEnable": true,
            "sourceTxnHash": "0x0f36ccef9d2f265dd4a71d06e2a8a09a4649c15398669dcb18891a13b2da8f1f",
            "status": true,
            "timestamp": "2022-03-08T23:48:09Z",
            "transactionFee": "0.00832494416642524",
            "txnHash": "0x0f36ccef9d2f265dd4a71d06e2a8a09a4649c15398669dcb18891a13b2da8f1f",
            "txnIndex": 11,
            "type": 2,
            "value": "0"
        },
        "fund_flow": [
            {
                "amount": "40",
                "from": "0x5aac2272179d08a3b2a9b7c65ee0f65cbf29b0f2",
                "id": 1,
                "isERC1155": false,
                "isERC721": false,
                "isReverted": false,
                "order": 1,
                "to": "0x74de5d4fcbf63e00296fd95d33236b9794016631",
                "token": "0x0f5d2fb29fb7d3cfee444a200298f468908cc942"
            },
            {
                "amount": "39.65",
                "from": "0x74de5d4fcbf63e00296fd95d33236b9794016631",
                "id": 2,
                "isERC1155": false,
                "isERC721": false,
                "isReverted": false,
                "order": 2,
                "to": "0x1bec4db6c3bc499f3dbf289f5499c30d541fec97",
                "token": "0x0f5d2fb29fb7d3cfee444a200298f468908cc942"
            },
            {
                "amount": "0.036658619757298227",
                "from": "0x1bec4db6c3bc499f3dbf289f5499c30d541fec97",
                "id": 3,
                "isERC1155": false,
                "isERC721": false,
                "isReverted": false,
                "order": 3,
                "to": "0x3827f0e43bb7d52a2ddd40eb8812180394a21b0d",
                "token": "0xc02aaa39b223fe8d0a0e5c4f27ead9083c756cc2"
            },
            {
                "amount": "504.006441566832802041",
                "from": "0x3827f0e43bb7d52a2ddd40eb8812180394a21b0d",
                "id": 4,
                "isERC1155": false,
                "isERC721": false,
                "isReverted": false,
                "order": 4,
                "to": "0x74de5d4fcbf63e00296fd95d33236b9794016631",
                "token": "0xd5d86fc8d5c0ea1ac1ac5dfab6e529c9967a45e9"
            },
            {
                "amount": "0.35",
                "from": "0x74de5d4fcbf63e00296fd95d33236b9794016631",
                "id": 5,
                "isERC1155": false,
                "isERC721": false,
                "isReverted": false,
                "order": 5,
                "to": "0x2acf35c9a3f4c5c3f4c78ef5fb64c3ee82f07c45",
                "token": "0x0f5d2fb29fb7d3cfee444a200298f468908cc942"
            },
            {
                "amount": "504.006441566832802041",
                "from": "0x74de5d4fcbf63e00296fd95d33236b9794016631",
                "id": 6,
                "isERC1155": false,
                "isERC721": false,
                "isReverted": false,
                "order": 6,
                "to": "0x5aac2272179d08a3b2a9b7c65ee0f65cbf29b0f2",
                "token": "0xd5d86fc8d5c0ea1ac1ac5dfab6e529c9967a45e9"
            }
        ],
        "token_infos": [
            {
                "address": "0x0f5d2fb29fb7d3cfee444a200298f468908cc942",
                "decimals": 18
            },
            {
                "address": "0xc02aaa39b223fe8d0a0e5c4f27ead9083c756cc2",
                "decimals": 18
            },
            {
                "address": "0xd5d86fc8d5c0ea1ac1ac5dfab6e529c9967a45e9",
                "decimals": 18
            },
            {
                "address": "0xeeeeeeeeeeeeeeeeeeeeeeeeeeeeeeeeeeeeeeee",
                "decimals": 18
            }
        ]
    },
    "address_label": {
        "labels": [
            {
                "address": "0xeeeeeeeeeeeeeeeeeeeeeeeeeeeeeeeeeeeeeeee",
                "label": "Ether"
            },
            {
                "address": "0x74de5d4fcbf63e00296fd95d33236b9794016631",
                "label": "MetaMask: Swaps Spender"
            },
            {
                "address": "0xd5d86fc8d5c0ea1ac1ac5dfab6e529c9967a45e9",
                "label": "NFT Worlds: WRLD Token"
            },
            {
                "address": "0xc02aaa39b223fe8d0a0e5c4f27ead9083c756cc2",
                "label": "Wrapped Ether (WETH)"
            },
            {
                "address": "0x2acf35c9a3f4c5c3f4c78ef5fb64c3ee82f07c45",
                "label": "GnosisSafeProxy_2acf_7c45"
            },
            {
                "address": "0x0000000000000000000000000000000000000003",
                "label": "Precompiled"
            },
            {
                "address": "0x0f5d2fb29fb7d3cfee444a200298f468908cc942",
                "label": "Decentraland: MANA Token"
            },
            {
                "address": "0x881d40237659c251811cec9c364ef91dc08d300c",
                "label": "Metamask: Swap Router"
            },
            {
                "address": "0x1bec4db6c3bc499f3dbf289f5499c30d541fec97",
                "label": "SushiSwap: MANA"
            },
            {
                "address": "0x1111111254fb6c44bac0bed2854e76f90643097d",
                "label": "1inch v4: Aggregation Router"
            },
            {
                "address": "0x0000000000000000000000000000000000000002",
                "label": "Precompiled"
            },
            {
                "address": "0x3827f0e43bb7d52a2ddd40eb8812180394a21b0d",
                "label": "Uniswap V2: WRLD 3"
            },
            {
                "address": "0x0000000000000000000000000000000000000001",
                "label": "Precompiled"
            },
            {
                "address": "0x0000000000000000000000000000000000000004",
                "label": "Precompiled"
            }
        ]
    },
    "trace": {
        "accountLabels": null,
        "dataMap": {
            "-1": {
                "invocation": {
                    "address": "0x5aac2272179d08a3b2a9b7c65ee0f65cbf29b0f2",
                    "callData": "",
                    "decodedMethod": null,
                    "errorInfo": "",
                    "fromAddress": "",
                    "gasUsed": 0,
                    "id": -1,
                    "methodDecoded": false,
                    "operation": "",
                    "output": "",
                    "revert": false,
                    "revertMessage": "",
                    "selector": "",
                    "status": false,
                    "value": ""
                },
                "nodeType": 0
            },
            "0": {
                "invocation": {
                    "address": "0x881d40237659c251811cec9c364ef91dc08d300c",
                    "callData": "0x00000000000000000000000000000000000000000000000000000000000000800000000000000000000000000f5d2fb29fb7d3cfee444a200298f468908cc9420000000000000000000000000000000000000000000000022b1c8c1227a0000000000000000000000000000000000000000000000000000000000000000000c000000000000000000000000000000000000000000000000000000000000000136f6e65496e6368563446656544796e616d69630000000000000000000000000000000000000000000000000000000000000000000000000000000000000002200000000000000000000000000f5d2fb29fb7d3cfee444a200298f468908cc942000000000000000000000000d5d86fc8d5c0ea1ac1ac5dfab6e529c9967a45e9000000000000000000000000000000000000000000000002264118ece03d000000000000000000000000000000000000000000000000001a7e44dc5522653f66000000000000000000000000000000000000000000000000000000000000012000000000000000000000000000000000000000000000000004db7325476300000000000000000000000000002acf35c9a3f4c5c3f4c78ef5fb64c3ee82f07c45000000000000000000000000000000000000000000000000000000000000000000000000000000000000000000000000000000000000000000000000000000e82e95b6c80000000000000000000000000f5d2fb29fb7d3cfee444a200298f468908cc942000000000000000000000000000000000000000000000002264118ece03d000000000000000000000000000000000000000000000000001a7e44dc5522653f660000000000000000000000000000000000000000000000000000000000000080000000000000000000000000000000000000000000000000000000000000000200000000000000003b6d03401bec4db6c3bc499f3dbf289f5499c30d541fec9700000000000000003b6d03403827f0e43bb7d52a2ddd40eb8812180394a21b0dab4991fe000000000000000000000000000000000000000000000000f2",
                    "decodedMethod": {
                        "callParams": [
                            {
                                "name": "aggregatorId",
                                "type": "string",
                                "value": "oneInchV4FeeDynamic"
                            },
                            {
                                "name": "tokenFrom",
                                "type": "address",
                                "value": "0x0f5d2fb29fb7d3cfee444a200298f468908cc942"
                            },
                            {
                                "name": "amount",
                                "type": "uint256",
                                "value": "40,000,000,000,000,000,000"
                            },
                            {
                                "name": "data",
                                "type": "bytes",
                                "value": "0x0000000000000000000000000f5d2fb29fb7d3cfee444a200298f468908cc942000000000000000000000000d5d86fc8d5c0ea1ac1ac5dfab6e529c9967a45e9000000000000000000000000000000000000000000000002264118ece03d000000000000000000000000000000000000000000000000001a7e44dc5522653f66000000000000000000000000000000000000000000000000000000000000012000000000000000000000000000000000000000000000000004db7325476300000000000000000000000000002acf35c9a3f4c5c3f4c78ef5fb64c3ee82f07c45000000000000000000000000000000000000000000000000000000000000000000000000000000000000000000000000000000000000000000000000000000e82e95b6c80000000000000000000000000f5d2fb29fb7d3cfee444a200298f468908cc942000000000000000000000000000000000000000000000002264118ece03d000000000000000000000000000000000000000000000000001a7e44dc5522653f660000000000000000000000000000000000000000000000000000000000000080000000000000000000000000000000000000000000000000000000000000000200000000000000003b6d03401bec4db6c3bc499f3dbf289f5499c30d541fec9700000000000000003b6d03403827f0e43bb7d52a2ddd40eb8812180394a21b0dab4991fe000000000000000000000000000000000000000000000000"
                            }
                        ],
                        "constructorArguments": "",
                        "name": "swap",
                        "returnParams": [],
                        "signature": "swap(string,address,uint256,bytes)"
                    },
                    "errorInfo": "",
                    "fromAddress": "0x5aac2272179d08a3b2a9b7c65ee0f65cbf29b0f2",
                    "gasUsed": 213155,
                    "id": 0,
                    "methodDecoded": true,
                    "operation": "CALL",
                    "output": "",
                    "revert": false,
                    "revertMessage": "",
                    "selector": "0x5f575529",
                    "status": true,
                    "value": "0"
                },
                "nodeType": 0
            },
            "1": {
                "invocation": {
                    "address": "0x0f5d2fb29fb7d3cfee444a200298f468908cc942",
                    "callData": "0x0000000000000000000000005aac2272179d08a3b2a9b7c65ee0f65cbf29b0f200000000000000000000000074de5d4fcbf63e00296fd95d33236b97940166310000000000000000000000000000000000000000000000022b1c8c1227a00000",
                    "decodedMethod": {
                        "callParams": [
                            {
                                "name": "_from",
                                "type": "address",
                                "value": "0x5aac2272179d08a3b2a9b7c65ee0f65cbf29b0f2"
                            },
                            {
                                "name": "_to",
                                "type": "address",
                                "value": "0x74de5d4fcbf63e00296fd95d33236b9794016631"
                            },
                            {
                                "decimalAvailable": true,
                                "name": "_value",
                                "type": "uint256",
                                "value": "40,000,000,000,000,000,000"
                            }
                        ],
                        "constructorArguments": "",
                        "name": "transferFrom",
                        "returnParams": [
                            {
                                "name": "",
                                "type": "bool",
                                "value": true
                            }
                        ],
                        "signature": "transferFrom(address,address,uint256)"
                    },
                    "errorInfo": "",
                    "fromAddress": "0x881d40237659c251811cec9c364ef91dc08d300c",
                    "gasUsed": 37847,
                    "id": 1,
                    "methodDecoded": true,
                    "operation": "CALL",
                    "output": "0x0000000000000000000000000000000000000000000000000000000000000001",
                    "revert": false,
                    "revertMessage": "",
                    "selector": "0x23b872dd",
                    "status": true,
                    "value": "0"
                },
                "nodeType": 0
            },
            "10": {
                "invocation": {
                    "address": "0x1bec4db6c3bc499f3dbf289f5499c30d541fec97",
                    "callData": "0x000000000000000000000000000000000000000000000000000000000000000000000000000000000000000000000000000000000000000000823cd2089702330000000000000000000000003827f0e43bb7d52a2ddd40eb8812180394a21b0d00000000000000000000000000000000000000000000000000000000000000800000000000000000000000000000000000000000000000000000000000000000",
                    "decodedMethod": {
                        "callParams": [
                            {
                                "name": "amount0Out",
                                "type": "uint256",
                                "value": "0"
                            },
                            {
                                "name": "amount1Out",
                                "type": "uint256",
                                "value": "36,658,619,757,298,227"
                            },
                            {
                                "name": "to",
                                "type": "address",
                                "value": "0x3827f0e43bb7d52a2ddd40eb8812180394a21b0d"
                            },
                            {
                                "name": "data",
                                "type": "bytes",
                                "value": "0x"
                            }
                        ],
                        "constructorArguments": "",
                        "name": "swap",
                        "returnParams": [],
                        "signature": "swap(uint256,uint256,address,bytes)"
                    },
                    "errorInfo": "",
                    "fromAddress": "0x1111111254fb6c44bac0bed2854e76f90643097d",
                    "gasUsed": 48379,
                    "id": 10,
                    "methodDecoded": true,
                    "operation": "CALL",
                    "output": "",
                    "revert": false,
                    "revertMessage": "",
                    "selector": "0x022c0d9f",
                    "status": true,
                    "value": "0"
                },
                "nodeType": 0
            },
            "11": {
                "invocation": {
                    "address": "0xc02aaa39b223fe8d0a0e5c4f27ead9083c756cc2",
                    "callData": "0x0000000000000000000000003827f0e43bb7d52a2ddd40eb8812180394a21b0d00000000000000000000000000000000000000000000000000823cd208970233",
                    "decodedMethod": {
                        "callParams": [
                            {
                                "name": "dst",
                                "type": "address",
                                "value": "0x3827f0e43bb7d52a2ddd40eb8812180394a21b0d"
                            },
                            {
                                "decimalAvailable": true,
                                "name": "wad",
                                "type": "uint256",
                                "value": "36,658,619,757,298,227"
                            }
                        ],
                        "constructorArguments": "",
                        "name": "transfer",
                        "returnParams": [
                            {
                                "name": "",
                                "type": "bool",
                                "value": true
                            }
                        ],
                        "signature": "transfer(address,uint256)"
                    },
                    "errorInfo": "",
                    "fromAddress": "0x1bec4db6c3bc499f3dbf289f5499c30d541fec97",
                    "gasUsed": 12862,
                    "id": 11,
                    "methodDecoded": true,
                    "operation": "CALL",
                    "output": "0x0000000000000000000000000000000000000000000000000000000000000001",
                    "revert": false,
                    "revertMessage": "",
                    "selector": "0xa9059cbb",
                    "status": true,
                    "value": "0"
                },
                "nodeType": 0
            },
            "12": {
                "event": {
                    "contract": "0xc02aaa39b223fe8d0a0e5c4f27ead9083c756cc2",
                    "decodedLog": {
                        "name": "Transfer",
                        "params": [
                            {
                                "name": "src",
                                "type": "address",
                                "value": "0x1bec4db6c3bc499f3dbf289f5499c30d541fec97"
                            },
                            {
                                "name": "dst",
                                "type": "address",
                                "value": "0x3827f0e43bb7d52a2ddd40eb8812180394a21b0d"
                            },
                            {
                                "decimalAvailable": true,
                                "name": "wad",
                                "type": "uint256",
                                "value": "36,658,619,757,298,227"
                            }
                        ],
                        "signature": "Transfer(address,address,uint256)"
                    },
                    "id": 12,
                    "logData": "0x00000000000000000000000000000000000000000000000000823cd208970233",
                    "logDecoded": true,
                    "operation": "EVENT",
                    "revert": false,
                    "status": true,
                    "topics": [
                        "0xddf252ad1be2c89b69c2b068fc378daa952ba7f163c4a11628f55a4df523b3ef",
                        "0x0000000000000000000000001bec4db6c3bc499f3dbf289f5499c30d541fec97",
                        "0x0000000000000000000000003827f0e43bb7d52a2ddd40eb8812180394a21b0d"
                    ]
                },
                "nodeType": 1
            },
            "13": {
                "invocation": {
                    "address": "0x0f5d2fb29fb7d3cfee444a200298f468908cc942",
                    "callData": "0x0000000000000000000000001bec4db6c3bc499f3dbf289f5499c30d541fec97",
                    "decodedMethod": {
                        "callParams": [
                            {
                                "name": "_owner",
                                "type": "address",
                                "value": "0x1bec4db6c3bc499f3dbf289f5499c30d541fec97"
                            }
                        ],
                        "constructorArguments": "",
                        "name": "balanceOf",
                        "returnParams": [
                            {
                                "decimalAvailable": true,
                                "name": "balance",
                                "type": "uint256",
                                "value": "1,804,399,793,991,106,932,492,161"
                            }
                        ],
                        "signature": "balanceOf(address)"
                    },
                    "errorInfo": "",
                    "fromAddress": "0x1bec4db6c3bc499f3dbf289f5499c30d541fec97",
                    "gasUsed": 787,
                    "id": 13,
                    "methodDecoded": true,
                    "operation": "STATICCALL",
                    "output": "0x000000000000000000000000000000000000000000017e18b57623132fe3c781",
                    "revert": false,
                    "revertMessage": "",
                    "selector": "0x70a08231",
                    "status": true,
                    "value": "0"
                },
                "nodeType": 0
            },
            "14": {
                "invocation": {
                    "address": "0xc02aaa39b223fe8d0a0e5c4f27ead9083c756cc2",
                    "callData": "0x0000000000000000000000001bec4db6c3bc499f3dbf289f5499c30d541fec97",
                    "decodedMethod": {
                        "callParams": [
                            {
                                "name": "",
                                "type": "address",
                                "value": "0x1bec4db6c3bc499f3dbf289f5499c30d541fec97"
                            }
                        ],
                        "constructorArguments": "",
                        "name": "balanceOf",
                        "returnParams": [
                            {
                                "decimalAvailable": true,
                                "name": "",
                                "type": "uint256",
                                "value": "1,673,250,582,106,821,525,980"
                            }
                        ],
                        "signature": "balanceOf(address)"
                    },
                    "errorInfo": "",
                    "fromAddress": "0x1bec4db6c3bc499f3dbf289f5499c30d541fec97",
                    "gasUsed": 534,
                    "id": 14,
                    "methodDecoded": true,
                    "operation": "STATICCALL",
                    "output": "0x00000000000000000000000000000000000000000000005ab5043b2a24ae81dc",
                    "revert": false,
                    "revertMessage": "",
                    "selector": "0x70a08231",
                    "status": true,
                    "value": "0"
                },
                "nodeType": 0
            },
            "15": {
                "event": {
                    "contract": "0x1bec4db6c3bc499f3dbf289f5499c30d541fec97",
                    "decodedLog": {
                        "name": "Sync",
                        "params": [
                            {
                                "name": "reserve0",
                                "type": "uint112",
                                "value": "1,804,399,793,991,106,932,492,161"
                            },
                            {
                                "name": "reserve1",
                                "type": "uint112",
                                "value": "1,673,250,582,106,821,525,980"
                            }
                        ],
                        "signature": "Sync(uint112,uint112)"
                    },
                    "id": 15,
                    "logData": "0x000000000000000000000000000000000000000000017e18b57623132fe3c78100000000000000000000000000000000000000000000005ab5043b2a24ae81dc",
                    "logDecoded": true,
                    "operation": "EVENT",
                    "revert": false,
                    "status": true,
                    "topics": [
                        "0x1c411e9a96e071241c2f21f7726b17ae89e3cab4c78be50e062b03a9fffbbad1"
                    ]
                },
                "nodeType": 1
            },
            "16": {
                "event": {
                    "contract": "0x1bec4db6c3bc499f3dbf289f5499c30d541fec97",
                    "decodedLog": {
                        "name": "Swap",
                        "params": [
                            {
                                "name": "sender",
                                "type": "address",
                                "value": "0x1111111254fb6c44bac0bed2854e76f90643097d"
                            },
                            {
                                "name": "to",
                                "type": "address",
                                "value": "0x3827f0e43bb7d52a2ddd40eb8812180394a21b0d"
                            },
                            {
                                "name": "amount0In",
                                "type": "uint256",
                                "value": "39,650,000,000,000,000,000"
                            },
                            {
                                "name": "amount1In",
                                "type": "uint256",
                                "value": "0"
                            },
                            {
                                "name": "amount0Out",
                                "type": "uint256",
                                "value": "0"
                            },
                            {
                                "name": "amount1Out",
                                "type": "uint256",
                                "value": "36,658,619,757,298,227"
                            }
                        ],
                        "signature": "Swap(address,uint256,uint256,uint256,uint256,address)"
                    },
                    "id": 16,
                    "logData": "0x000000000000000000000000000000000000000000000002264118ece03d00000000000000000000000000000000000000000000000000000000000000000000000000000000000000000000000000000000000000000000000000000000000000000000000000000000000000000000000000000000000000823cd208970233",
                    "logDecoded": true,
                    "operation": "EVENT",
                    "revert": false,
                    "status": true,
                    "topics": [
                        "0xd78ad95fa46c994b6551d0da85fc275fe613ce37657fb8d5e3d130840159d822",
                        "0x0000000000000000000000001111111254fb6c44bac0bed2854e76f90643097d",
                        "0x0000000000000000000000003827f0e43bb7d52a2ddd40eb8812180394a21b0d"
                    ]
                },
                "nodeType": 1
            },
            "17": {
                "invocation": {
                    "address": "0x3827f0e43bb7d52a2ddd40eb8812180394a21b0d",
                    "callData": "0x",
                    "decodedMethod": {
                        "callParams": [],
                        "constructorArguments": "",
                        "name": "getReserves",
                        "returnParams": [
                            {
                                "name": "_reserve0",
                                "type": "uint112",
                                "value": "9,186,204,860,181,934,197"
                            },
                            {
                                "name": "_reserve1",
                                "type": "uint112",
                                "value": "127,181,932,878,510,821,234,335"
                            },
                            {
                                "name": "_blockTimestampLast",
                                "type": "uint32",
                                "value": "1,646,783,242"
                            }
                        ],
                        "signature": "getReserves()"
                    },
                    "errorInfo": "",
                    "fromAddress": "0x1111111254fb6c44bac0bed2854e76f90643097d",
                    "gasUsed": 2504,
                    "id": 17,
                    "methodDecoded": true,
                    "operation": "STATICCALL",
                    "output": "0x0000000000000000000000000000000000000000000000007f7bf4a6551c7075000000000000000000000000000000000000000000001aee8be0a23eeb2c569f000000000000000000000000000000000000000000000000000000006227eb0a",
                    "revert": false,
                    "revertMessage": "",
                    "selector": "0x0902f1ac",
                    "status": true,
                    "value": "0"
                },
                "nodeType": 0
            },
            "18": {
                "invocation": {
                    "address": "0x3827f0e43bb7d52a2ddd40eb8812180394a21b0d",
                    "callData": "0x000000000000000000000000000000000000000000000000000000000000000000000000000000000000000000000000000000000000001b527e9443b3bdb8f900000000000000000000000074de5d4fcbf63e00296fd95d33236b979401663100000000000000000000000000000000000000000000000000000000000000800000000000000000000000000000000000000000000000000000000000000000",
                    "decodedMethod": {
                        "callParams": [
                            {
                                "name": "amount0Out",
                                "type": "uint256",
                                "value": "0"
                            },
                            {
                                "name": "amount1Out",
                                "type": "uint256",
                                "value": "504,006,441,566,832,802,041"
                            },
                            {
                                "name": "to",
                                "type": "address",
                                "value": "0x74de5d4fcbf63e00296fd95d33236b9794016631"
                            },
                            {
                                "name": "data",
                                "type": "bytes",
                                "value": "0x"
                            }
                        ],
                        "constructorArguments": "",
                        "name": "swap",
                        "returnParams": [],
                        "signature": "swap(uint256,uint256,address,bytes)"
                    },
                    "errorInfo": "",
                    "fromAddress": "0x1111111254fb6c44bac0bed2854e76f90643097d",
                    "gasUsed": 64952,
                    "id": 18,
                    "methodDecoded": true,
                    "operation": "CALL",
                    "output": "",
                    "revert": false,
                    "revertMessage": "",
                    "selector": "0x022c0d9f",
                    "status": true,
                    "value": "0"
                },
                "nodeType": 0
            },
            "19": {
                "invocation": {
                    "address": "0xd5d86fc8d5c0ea1ac1ac5dfab6e529c9967a45e9",
                    "callData": "0x00000000000000000000000074de5d4fcbf63e00296fd95d33236b979401663100000000000000000000000000000000000000000000001b527e9443b3bdb8f9",
                    "decodedMethod": {
                        "callParams": [
                            {
                                "name": "recipient",
                                "type": "address",
                                "value": "0x74de5d4fcbf63e00296fd95d33236b9794016631"
                            },
                            {
                                "decimalAvailable": true,
                                "name": "amount",
                                "type": "uint256",
                                "value": "504,006,441,566,832,802,041"
                            }
                        ],
                        "constructorArguments": "",
                        "name": "transfer",
                        "returnParams": [
                            {
                                "name": "",
                                "type": "bool",
                                "value": true
                            }
                        ],
                        "signature": "transfer(address,uint256)"
                    },
                    "errorInfo": "",
                    "fromAddress": "0x3827f0e43bb7d52a2ddd40eb8812180394a21b0d",
                    "gasUsed": 29969,
                    "id": 19,
                    "methodDecoded": true,
                    "operation": "CALL",
                    "output": "0x0000000000000000000000000000000000000000000000000000000000000001",
                    "revert": false,
                    "revertMessage": "",
                    "selector": "0xa9059cbb",
                    "status": true,
                    "value": "0"
                },
                "nodeType": 0
            },
            "2": {
                "event": {
                    "contract": "0x0f5d2fb29fb7d3cfee444a200298f468908cc942",
                    "decodedLog": {
                        "name": "Transfer",
                        "params": [
                            {
                                "name": "from",
                                "type": "address",
                                "value": "0x5aac2272179d08a3b2a9b7c65ee0f65cbf29b0f2"
                            },
                            {
                                "name": "to",
                                "type": "address",
                                "value": "0x74de5d4fcbf63e00296fd95d33236b9794016631"
                            },
                            {
                                "decimalAvailable": true,
                                "name": "value",
                                "type": "uint256",
                                "value": "40,000,000,000,000,000,000"
                            }
                        ],
                        "signature": "Transfer(address,address,uint256)"
                    },
                    "id": 2,
                    "logData": "0x0000000000000000000000000000000000000000000000022b1c8c1227a00000",
                    "logDecoded": true,
                    "operation": "EVENT",
                    "revert": false,
                    "status": true,
                    "topics": [
                        "0xddf252ad1be2c89b69c2b068fc378daa952ba7f163c4a11628f55a4df523b3ef",
                        "0x0000000000000000000000005aac2272179d08a3b2a9b7c65ee0f65cbf29b0f2",
                        "0x00000000000000000000000074de5d4fcbf63e00296fd95d33236b9794016631"
                    ]
                },
                "nodeType": 1
            },
            "20": {
                "event": {
                    "contract": "0xd5d86fc8d5c0ea1ac1ac5dfab6e529c9967a45e9",
                    "decodedLog": {
                        "name": "Transfer",
                        "params": [
                            {
                                "name": "from",
                                "type": "address",
                                "value": "0x3827f0e43bb7d52a2ddd40eb8812180394a21b0d"
                            },
                            {
                                "name": "to",
                                "type": "address",
                                "value": "0x74de5d4fcbf63e00296fd95d33236b9794016631"
                            },
                            {
                                "decimalAvailable": true,
                                "name": "value",
                                "type": "uint256",
                                "value": "504,006,441,566,832,802,041"
                            }
                        ],
                        "signature": "Transfer(address,address,uint256)"
                    },
                    "id": 20,
                    "logData": "0x00000000000000000000000000000000000000000000001b527e9443b3bdb8f9",
                    "logDecoded": true,
                    "operation": "EVENT",
                    "revert": false,
                    "status": true,
                    "topics": [
                        "0xddf252ad1be2c89b69c2b068fc378daa952ba7f163c4a11628f55a4df523b3ef",
                        "0x0000000000000000000000003827f0e43bb7d52a2ddd40eb8812180394a21b0d",
                        "0x00000000000000000000000074de5d4fcbf63e00296fd95d33236b9794016631"
                    ]
                },
                "nodeType": 1
            },
            "21": {
                "invocation": {
                    "address": "0xc02aaa39b223fe8d0a0e5c4f27ead9083c756cc2",
                    "callData": "0x0000000000000000000000003827f0e43bb7d52a2ddd40eb8812180394a21b0d",
                    "decodedMethod": {
                        "callParams": [
                            {
                                "name": "",
                                "type": "address",
                                "value": "0x3827f0e43bb7d52a2ddd40eb8812180394a21b0d"
                            }
                        ],
                        "constructorArguments": "",
                        "name": "balanceOf",
                        "returnParams": [
                            {
                                "decimalAvailable": true,
                                "name": "",
                                "type": "uint256",
                                "value": "9,222,863,479,939,232,424"
                            }
                        ],
                        "signature": "balanceOf(address)"
                    },
                    "errorInfo": "",
                    "fromAddress": "0x3827f0e43bb7d52a2ddd40eb8812180394a21b0d",
                    "gasUsed": 534,
                    "id": 21,
                    "methodDecoded": true,
                    "operation": "STATICCALL",
                    "output": "0x0000000000000000000000000000000000000000000000007ffe31785db372a8",
                    "revert": false,
                    "revertMessage": "",
                    "selector": "0x70a08231",
                    "status": true,
                    "value": "0"
                },
                "nodeType": 0
            },
            "22": {
                "invocation": {
                    "address": "0xd5d86fc8d5c0ea1ac1ac5dfab6e529c9967a45e9",
                    "callData": "0x0000000000000000000000003827f0e43bb7d52a2ddd40eb8812180394a21b0d",
                    "decodedMethod": {
                        "callParams": [
                            {
                                "name": "account",
                                "type": "address",
                                "value": "0x3827f0e43bb7d52a2ddd40eb8812180394a21b0d"
                            }
                        ],
                        "constructorArguments": "",
                        "name": "balanceOf",
                        "returnParams": [
                            {
                                "decimalAvailable": true,
                                "name": "",
                                "type": "uint256",
                                "value": "126,677,926,436,943,988,432,294"
                            }
                        ],
                        "signature": "balanceOf(address)"
                    },
                    "errorInfo": "",
                    "fromAddress": "0x3827f0e43bb7d52a2ddd40eb8812180394a21b0d",
                    "gasUsed": 626,
                    "id": 22,
                    "methodDecoded": true,
                    "operation": "STATICCALL",
                    "output": "0x000000000000000000000000000000000000000000001ad339620dfb376e9da6",
                    "revert": false,
                    "revertMessage": "",
                    "selector": "0x70a08231",
                    "status": true,
                    "value": "0"
                },
                "nodeType": 0
            },
            "23": {
                "event": {
                    "contract": "0x3827f0e43bb7d52a2ddd40eb8812180394a21b0d",
                    "decodedLog": {
                        "name": "Sync",
                        "params": [
                            {
                                "name": "reserve0",
                                "type": "uint112",
                                "value": "9,222,863,479,939,232,424"
                            },
                            {
                                "name": "reserve1",
                                "type": "uint112",
                                "value": "126,677,926,436,943,988,432,294"
                            }
                        ],
                        "signature": "Sync(uint112,uint112)"
                    },
                    "id": 23,
                    "logData": "0x0000000000000000000000000000000000000000000000007ffe31785db372a8000000000000000000000000000000000000000000001ad339620dfb376e9da6",
                    "logDecoded": true,
                    "operation": "EVENT",
                    "revert": false,
                    "status": true,
                    "topics": [
                        "0x1c411e9a96e071241c2f21f7726b17ae89e3cab4c78be50e062b03a9fffbbad1"
                    ]
                },
                "nodeType": 1
            },
            "24": {
                "event": {
                    "contract": "0x3827f0e43bb7d52a2ddd40eb8812180394a21b0d",
                    "decodedLog": {
                        "name": "Swap",
                        "params": [
                            {
                                "name": "sender",
                                "type": "address",
                                "value": "0x1111111254fb6c44bac0bed2854e76f90643097d"
                            },
                            {
                                "name": "to",
                                "type": "address",
                                "value": "0x74de5d4fcbf63e00296fd95d33236b9794016631"
                            },
                            {
                                "name": "amount0In",
                                "type": "uint256",
                                "value": "36,658,619,757,298,227"
                            },
                            {
                                "name": "amount1In",
                                "type": "uint256",
                                "value": "0"
                            },
                            {
                                "name": "amount0Out",
                                "type": "uint256",
                                "value": "0"
                            },
                            {
                                "name": "amount1Out",
                                "type": "uint256",
                                "value": "504,006,441,566,832,802,041"
                            }
                        ],
                        "signature": "Swap(address,uint256,uint256,uint256,uint256,address)"
                    },
                    "id": 24,
                    "logData": "0x00000000000000000000000000000000000000000000000000823cd2089702330000000000000000000000000000000000000000000000000000000000000000000000000000000000000000000000000000000000000000000000000000000000000000000000000000000000000000000000000000001b527e9443b3bdb8f9",
                    "logDecoded": true,
                    "operation": "EVENT",
                    "revert": false,
                    "status": true,
                    "topics": [
                        "0xd78ad95fa46c994b6551d0da85fc275fe613ce37657fb8d5e3d130840159d822",
                        "0x0000000000000000000000001111111254fb6c44bac0bed2854e76f90643097d",
                        "0x00000000000000000000000074de5d4fcbf63e00296fd95d33236b9794016631"
                    ]
                },
                "nodeType": 1
            },
            "25": {
                "invocation": {
                    "address": "0x0f5d2fb29fb7d3cfee444a200298f468908cc942",
                    "callData": "0x0000000000000000000000002acf35c9a3f4c5c3f4c78ef5fb64c3ee82f07c4500000000000000000000000000000000000000000000000004db732547630000",
                    "decodedMethod": {
                        "callParams": [
                            {
                                "name": "_to",
                                "type": "address",
                                "value": "0x2acf35c9a3f4c5c3f4c78ef5fb64c3ee82f07c45"
                            },
                            {
                                "decimalAvailable": true,
                                "name": "_value",
                                "type": "uint256",
                                "value": "350,000,000,000,000,000"
                            }
                        ],
                        "constructorArguments": "",
                        "name": "transfer",
                        "returnParams": [
                            {
                                "name": "",
                                "type": "bool",
                                "value": true
                            }
                        ],
                        "signature": "transfer(address,uint256)"
                    },
                    "errorInfo": "",
                    "fromAddress": "0x74de5d4fcbf63e00296fd95d33236b9794016631",
                    "gasUsed": 8693,
                    "id": 25,
                    "methodDecoded": true,
                    "operation": "CALL",
                    "output": "0x0000000000000000000000000000000000000000000000000000000000000001",
                    "revert": false,
                    "revertMessage": "",
                    "selector": "0xa9059cbb",
                    "status": true,
                    "value": "0"
                },
                "nodeType": 0
            },
            "26": {
                "event": {
                    "contract": "0x0f5d2fb29fb7d3cfee444a200298f468908cc942",
                    "decodedLog": {
                        "name": "Transfer",
                        "params": [
                            {
                                "name": "from",
                                "type": "address",
                                "value": "0x74de5d4fcbf63e00296fd95d33236b9794016631"
                            },
                            {
                                "name": "to",
                                "type": "address",
                                "value": "0x2acf35c9a3f4c5c3f4c78ef5fb64c3ee82f07c45"
                            },
                            {
                                "decimalAvailable": true,
                                "name": "value",
                                "type": "uint256",
                                "value": "350,000,000,000,000,000"
                            }
                        ],
                        "signature": "Transfer(address,address,uint256)"
                    },
                    "id": 26,
                    "logData": "0x00000000000000000000000000000000000000000000000004db732547630000",
                    "logDecoded": true,
                    "operation": "EVENT",
                    "revert": false,
                    "status": true,
                    "topics": [
                        "0xddf252ad1be2c89b69c2b068fc378daa952ba7f163c4a11628f55a4df523b3ef",
                        "0x00000000000000000000000074de5d4fcbf63e00296fd95d33236b9794016631",
                        "0x0000000000000000000000002acf35c9a3f4c5c3f4c78ef5fb64c3ee82f07c45"
                    ]
                },
                "nodeType": 1
            },
            "27": {
                "invocation": {
                    "address": "0x0f5d2fb29fb7d3cfee444a200298f468908cc942",
                    "callData": "0x00000000000000000000000074de5d4fcbf63e00296fd95d33236b9794016631",
                    "decodedMethod": {
                        "callParams": [
                            {
                                "name": "_owner",
                                "type": "address",
                                "value": "0x74de5d4fcbf63e00296fd95d33236b9794016631"
                            }
                        ],
                        "constructorArguments": "",
                        "name": "balanceOf",
                        "returnParams": [
                            {
                                "decimalAvailable": true,
                                "name": "balance",
                                "type": "uint256",
                                "value": "0"
                            }
                        ],
                        "signature": "balanceOf(address)"
                    },
                    "errorInfo": "",
                    "fromAddress": "0x74de5d4fcbf63e00296fd95d33236b9794016631",
                    "gasUsed": 787,
                    "id": 27,
                    "methodDecoded": true,
                    "operation": "STATICCALL",
                    "output": "0x0000000000000000000000000000000000000000000000000000000000000000",
                    "revert": false,
                    "revertMessage": "",
                    "selector": "0x70a08231",
                    "status": true,
                    "value": "0"
                },
                "nodeType": 0
            },
            "28": {
                "invocation": {
                    "address": "0xd5d86fc8d5c0ea1ac1ac5dfab6e529c9967a45e9",
                    "callData": "0x00000000000000000000000074de5d4fcbf63e00296fd95d33236b9794016631",
                    "decodedMethod": {
                        "callParams": [
                            {
                                "name": "account",
                                "type": "address",
                                "value": "0x74de5d4fcbf63e00296fd95d33236b9794016631"
                            }
                        ],
                        "constructorArguments": "",
                        "name": "balanceOf",
                        "returnParams": [
                            {
                                "decimalAvailable": true,
                                "name": "",
                                "type": "uint256",
                                "value": "504,006,441,566,832,802,041"
                            }
                        ],
                        "signature": "balanceOf(address)"
                    },
                    "errorInfo": "",
                    "fromAddress": "0x74de5d4fcbf63e00296fd95d33236b9794016631",
                    "gasUsed": 626,
                    "id": 28,
                    "methodDecoded": true,
                    "operation": "STATICCALL",
                    "output": "0x00000000000000000000000000000000000000000000001b527e9443b3bdb8f9",
                    "revert": false,
                    "revertMessage": "",
                    "selector": "0x70a08231",
                    "status": true,
                    "value": "0"
                },
                "nodeType": 0
            },
            "29": {
                "invocation": {
                    "address": "0xd5d86fc8d5c0ea1ac1ac5dfab6e529c9967a45e9",
                    "callData": "0x0000000000000000000000005aac2272179d08a3b2a9b7c65ee0f65cbf29b0f200000000000000000000000000000000000000000000001b527e9443b3bdb8f9",
                    "decodedMethod": {
                        "callParams": [
                            {
                                "name": "recipient",
                                "type": "address",
                                "value": "0x5aac2272179d08a3b2a9b7c65ee0f65cbf29b0f2"
                            },
                            {
                                "decimalAvailable": true,
                                "name": "amount",
                                "type": "uint256",
                                "value": "504,006,441,566,832,802,041"
                            }
                        ],
                        "constructorArguments": "",
                        "name": "transfer",
                        "returnParams": [
                            {
                                "name": "",
                                "type": "bool",
                                "value": true
                            }
                        ],
                        "signature": "transfer(address,uint256)"
                    },
                    "errorInfo": "",
                    "fromAddress": "0x74de5d4fcbf63e00296fd95d33236b9794016631",
                    "gasUsed": 8069,
                    "id": 29,
                    "methodDecoded": true,
                    "operation": "CALL",
                    "output": "0x0000000000000000000000000000000000000000000000000000000000000001",
                    "revert": false,
                    "revertMessage": "",
                    "selector": "0xa9059cbb",
                    "status": true,
                    "value": "0"
                },
                "nodeType": 0
            },
            "3": {
                "invocation": {
                    "address": "0x74de5d4fcbf63e00296fd95d33236b9794016631",
                    "callData": "0x000000000000000000000000dfa7bd39ded0051b2ecc48f7e17f63ecd165cae10000000000000000000000000000000000000000000000000000000000000040000000000000000000000000000000000000000000000000000000000000024492f5f0370000000000000000000000005aac2272179d08a3b2a9b7c65ee0f65cbf29b0f20000000000000000000000000f5d2fb29fb7d3cfee444a200298f468908cc942000000000000000000000000d5d86fc8d5c0ea1ac1ac5dfab6e529c9967a45e9000000000000000000000000000000000000000000000002264118ece03d000000000000000000000000000000000000000000000000001a7e44dc5522653f66000000000000000000000000000000000000000000000000000000000000012000000000000000000000000000000000000000000000000004db7325476300000000000000000000000000002acf35c9a3f4c5c3f4c78ef5fb64c3ee82f07c45000000000000000000000000000000000000000000000000000000000000000000000000000000000000000000000000000000000000000000000000000000e82e95b6c80000000000000000000000000f5d2fb29fb7d3cfee444a200298f468908cc942000000000000000000000000000000000000000000000002264118ece03d000000000000000000000000000000000000000000000000001a7e44dc5522653f660000000000000000000000000000000000000000000000000000000000000080000000000000000000000000000000000000000000000000000000000000000200000000000000003b6d03401bec4db6c3bc499f3dbf289f5499c30d541fec9700000000000000003b6d03403827f0e43bb7d52a2ddd40eb8812180394a21b0dab4991fe00000000000000000000000000000000000000000000000000000000000000000000000000000000000000000000000000000000",
                    "decodedMethod": {
                        "callParams": [
                            {
                                "name": "adapter",
                                "type": "address",
                                "value": "0xdfa7bd39ded0051b2ecc48f7e17f63ecd165cae1"
                            },
                            {
                                "name": "data",
                                "type": "bytes",
                                "value": "0x92f5f0370000000000000000000000005aac2272179d08a3b2a9b7c65ee0f65cbf29b0f20000000000000000000000000f5d2fb29fb7d3cfee444a200298f468908cc942000000000000000000000000d5d86fc8d5c0ea1ac1ac5dfab6e529c9967a45e9000000000000000000000000000000000000000000000002264118ece03d000000000000000000000000000000000000000000000000001a7e44dc5522653f66000000000000000000000000000000000000000000000000000000000000012000000000000000000000000000000000000000000000000004db7325476300000000000000000000000000002acf35c9a3f4c5c3f4c78ef5fb64c3ee82f07c45000000000000000000000000000000000000000000000000000000000000000000000000000000000000000000000000000000000000000000000000000000e82e95b6c80000000000000000000000000f5d2fb29fb7d3cfee444a200298f468908cc942000000000000000000000000000000000000000000000002264118ece03d000000000000000000000000000000000000000000000000001a7e44dc5522653f660000000000000000000000000000000000000000000000000000000000000080000000000000000000000000000000000000000000000000000000000000000200000000000000003b6d03401bec4db6c3bc499f3dbf289f5499c30d541fec9700000000000000003b6d03403827f0e43bb7d52a2ddd40eb8812180394a21b0dab4991fe000000000000000000000000000000000000000000000000"
                            }
                        ],
                        "constructorArguments": "",
                        "name": "swap",
                        "returnParams": [],
                        "signature": "swap(address,bytes)"
                    },
                    "errorInfo": "",
                    "fromAddress": "0x881d40237659c251811cec9c364ef91dc08d300c",
                    "gasUsed": 173482,
                    "id": 3,
                    "methodDecoded": true,
                    "operation": "CALL",
                    "output": "",
                    "revert": false,
                    "revertMessage": "",
                    "selector": "0xe3547335",
                    "status": true,
                    "value": "0"
                },
                "nodeType": 0
            },
            "30": {
                "event": {
                    "contract": "0xd5d86fc8d5c0ea1ac1ac5dfab6e529c9967a45e9",
                    "decodedLog": {
                        "name": "Transfer",
                        "params": [
                            {
                                "name": "from",
                                "type": "address",
                                "value": "0x74de5d4fcbf63e00296fd95d33236b9794016631"
                            },
                            {
                                "name": "to",
                                "type": "address",
                                "value": "0x5aac2272179d08a3b2a9b7c65ee0f65cbf29b0f2"
                            },
                            {
                                "decimalAvailable": true,
                                "name": "value",
                                "type": "uint256",
                                "value": "504,006,441,566,832,802,041"
                            }
                        ],
                        "signature": "Transfer(address,address,uint256)"
                    },
                    "id": 30,
                    "logData": "0x00000000000000000000000000000000000000000000001b527e9443b3bdb8f9",
                    "logDecoded": true,
                    "operation": "EVENT",
                    "revert": false,
                    "status": true,
                    "topics": [
                        "0xddf252ad1be2c89b69c2b068fc378daa952ba7f163c4a11628f55a4df523b3ef",
                        "0x00000000000000000000000074de5d4fcbf63e00296fd95d33236b9794016631",
                        "0x0000000000000000000000005aac2272179d08a3b2a9b7c65ee0f65cbf29b0f2"
                    ]
                },
                "nodeType": 1
            },
            "31": {
                "event": {
                    "contract": "0x881d40237659c251811cec9c364ef91dc08d300c",
                    "decodedLog": {
                        "name": "Swap",
                        "params": [
                            {
                                "name": "aggregatorId",
                                "type": "string",
                                "value": "0xbd5c436f8c83379009c1962310b8347e561d1900906d3fe4075b1596f8955f88"
                            },
                            {
                                "name": "sender",
                                "type": "address",
                                "value": "0x5aac2272179d08a3b2a9b7c65ee0f65cbf29b0f2"
                            }
                        ],
                        "signature": "Swap(string,address)"
                    },
                    "id": 31,
                    "logData": "0x",
                    "logDecoded": true,
                    "operation": "EVENT",
                    "revert": false,
                    "status": true,
                    "topics": [
                        "0xbeee1e6e7fe307ddcf84b0a16137a4430ad5e2480fc4f4a8e250ab56ccd7630d",
                        "0xbd5c436f8c83379009c1962310b8347e561d1900906d3fe4075b1596f8955f88",
                        "0x0000000000000000000000005aac2272179d08a3b2a9b7c65ee0f65cbf29b0f2"
                    ]
                },
                "nodeType": 1
            },
            "4": {
                "invocation": {
                    "address": "0xdfa7bd39ded0051b2ecc48f7e17f63ecd165cae1",
                    "callData": "0x0000000000000000000000005aac2272179d08a3b2a9b7c65ee0f65cbf29b0f20000000000000000000000000f5d2fb29fb7d3cfee444a200298f468908cc942000000000000000000000000d5d86fc8d5c0ea1ac1ac5dfab6e529c9967a45e9000000000000000000000000000000000000000000000002264118ece03d000000000000000000000000000000000000000000000000001a7e44dc5522653f66000000000000000000000000000000000000000000000000000000000000012000000000000000000000000000000000000000000000000004db7325476300000000000000000000000000002acf35c9a3f4c5c3f4c78ef5fb64c3ee82f07c45000000000000000000000000000000000000000000000000000000000000000000000000000000000000000000000000000000000000000000000000000000e82e95b6c80000000000000000000000000f5d2fb29fb7d3cfee444a200298f468908cc942000000000000000000000000000000000000000000000002264118ece03d000000000000000000000000000000000000000000000000001a7e44dc5522653f660000000000000000000000000000000000000000000000000000000000000080000000000000000000000000000000000000000000000000000000000000000200000000000000003b6d03401bec4db6c3bc499f3dbf289f5499c30d541fec9700000000000000003b6d03403827f0e43bb7d52a2ddd40eb8812180394a21b0dab4991fe000000000000000000000000000000000000000000000000",
                    "decodedMethod": null,
                    "errorInfo": "",
                    "fromAddress": "0x74de5d4fcbf63e00296fd95d33236b9794016631",
                    "gasUsed": 168270,
                    "id": 4,
                    "methodDecoded": false,
                    "operation": "DELEGATECALL",
                    "output": "",
                    "revert": false,
                    "revertMessage": "",
                    "selector": "0x92f5f037",
                    "status": true,
                    "value": "0"
                },
                "nodeType": 0
            },
            "5": {
                "invocation": {
                    "address": "0x0f5d2fb29fb7d3cfee444a200298f468908cc942",
                    "callData": "0x00000000000000000000000074de5d4fcbf63e00296fd95d33236b97940166310000000000000000000000001111111254fb6c44bac0bed2854e76f90643097d",
                    "decodedMethod": {
                        "callParams": [
                            {
                                "name": "_owner",
                                "type": "address",
                                "value": "0x74de5d4fcbf63e00296fd95d33236b9794016631"
                            },
                            {
                                "name": "_spender",
                                "type": "address",
                                "value": "0x1111111254fb6c44bac0bed2854e76f90643097d"
                            }
                        ],
                        "constructorArguments": "",
                        "name": "allowance",
                        "returnParams": [
                            {
                                "decimalAvailable": true,
                                "name": "remaining",
                                "type": "uint256",
                                "value": "115,792,089,237,316,195,423,570,985,008,687,907,853,269,984,665,640,560,423,112,329,843,160,231,635,186"
                            }
                        ],
                        "signature": "allowance(address,address)"
                    },
                    "errorInfo": "",
                    "fromAddress": "0x74de5d4fcbf63e00296fd95d33236b9794016631",
                    "gasUsed": 3014,
                    "id": 5,
                    "methodDecoded": true,
                    "operation": "STATICCALL",
                    "output": "0xfffffffffffffffffffffffffffffffffffffffffffd023587ec437bd352e8f2",
                    "revert": false,
                    "revertMessage": "",
                    "selector": "0xdd62ed3e",
                    "status": true,
                    "value": "0"
                },
                "nodeType": 0
            },
            "6": {
                "invocation": {
                    "address": "0x1111111254fb6c44bac0bed2854e76f90643097d",
                    "callData": "0x0000000000000000000000000f5d2fb29fb7d3cfee444a200298f468908cc942000000000000000000000000000000000000000000000002264118ece03d000000000000000000000000000000000000000000000000001a7e44dc5522653f660000000000000000000000000000000000000000000000000000000000000080000000000000000000000000000000000000000000000000000000000000000200000000000000003b6d03401bec4db6c3bc499f3dbf289f5499c30d541fec9700000000000000003b6d03403827f0e43bb7d52a2ddd40eb8812180394a21b0dab4991fe",
                    "decodedMethod": {
                        "callParams": [
                            {
                                "name": "srcToken",
                                "type": "address",
                                "value": "0x0f5d2fb29fb7d3cfee444a200298f468908cc942"
                            },
                            {
                                "name": "amount",
                                "type": "uint256",
                                "value": "39,650,000,000,000,000,000"
                            },
                            {
                                "name": "minReturn",
                                "type": "uint256",
                                "value": "488,713,985,321,850,978,150"
                            },
                            {
                                "name": "pools",
                                "type": "bytes32[]",
                                "value": [
                                    "0x00000000000000003b6d03401bec4db6c3bc499f3dbf289f5499c30d541fec97",
                                    "0x00000000000000003b6d03403827f0e43bb7d52a2ddd40eb8812180394a21b0d"
                                ]
                            }
                        ],
                        "constructorArguments": "",
                        "name": "unoswap",
                        "returnParams": [
                            {
                                "name": "returnAmount",
                                "type": "uint256",
                                "value": "504,006,441,566,832,802,041"
                            }
                        ],
                        "signature": "unoswap(address,uint256,uint256,bytes32[])"
                    },
                    "errorInfo": "",
                    "fromAddress": "0x74de5d4fcbf63e00296fd95d33236b9794016631",
                    "gasUsed": 137706,
                    "id": 6,
                    "methodDecoded": true,
                    "operation": "CALL",
                    "output": "0x00000000000000000000000000000000000000000000001b527e9443b3bdb8f9",
                    "revert": false,
                    "revertMessage": "",
                    "selector": "0x2e95b6c8",
                    "status": true,
                    "value": "0"
                },
                "nodeType": 0
            },
            "7": {
                "invocation": {
                    "address": "0x0f5d2fb29fb7d3cfee444a200298f468908cc942",
                    "callData": "0x00000000000000000000000074de5d4fcbf63e00296fd95d33236b97940166310000000000000000000000001bec4db6c3bc499f3dbf289f5499c30d541fec97000000000000000000000000000000000000000000000002264118ece03d0000",
                    "decodedMethod": {
                        "callParams": [
                            {
                                "name": "_from",
                                "type": "address",
                                "value": "0x74de5d4fcbf63e00296fd95d33236b9794016631"
                            },
                            {
                                "name": "_to",
                                "type": "address",
                                "value": "0x1bec4db6c3bc499f3dbf289f5499c30d541fec97"
                            },
                            {
                                "decimalAvailable": true,
                                "name": "_value",
                                "type": "uint256",
                                "value": "39,650,000,000,000,000,000"
                            }
                        ],
                        "constructorArguments": "",
                        "name": "transferFrom",
                        "returnParams": [
                            {
                                "name": "",
                                "type": "bool",
                                "value": true
                            }
                        ],
                        "signature": "transferFrom(address,address,uint256)"
                    },
                    "errorInfo": "",
                    "fromAddress": "0x1111111254fb6c44bac0bed2854e76f90643097d",
                    "gasUsed": 11947,
                    "id": 7,
                    "methodDecoded": true,
                    "operation": "CALL",
                    "output": "0x0000000000000000000000000000000000000000000000000000000000000001",
                    "revert": false,
                    "revertMessage": "",
                    "selector": "0x23b872dd",
                    "status": true,
                    "value": "0"
                },
                "nodeType": 0
            },
            "8": {
                "event": {
                    "contract": "0x0f5d2fb29fb7d3cfee444a200298f468908cc942",
                    "decodedLog": {
                        "name": "Transfer",
                        "params": [
                            {
                                "name": "from",
                                "type": "address",
                                "value": "0x74de5d4fcbf63e00296fd95d33236b9794016631"
                            },
                            {
                                "name": "to",
                                "type": "address",
                                "value": "0x1bec4db6c3bc499f3dbf289f5499c30d541fec97"
                            },
                            {
                                "decimalAvailable": true,
                                "name": "value",
                                "type": "uint256",
                                "value": "39,650,000,000,000,000,000"
                            }
                        ],
                        "signature": "Transfer(address,address,uint256)"
                    },
                    "id": 8,
                    "logData": "0x000000000000000000000000000000000000000000000002264118ece03d0000",
                    "logDecoded": true,
                    "operation": "EVENT",
                    "revert": false,
                    "status": true,
                    "topics": [
                        "0xddf252ad1be2c89b69c2b068fc378daa952ba7f163c4a11628f55a4df523b3ef",
                        "0x00000000000000000000000074de5d4fcbf63e00296fd95d33236b9794016631",
                        "0x0000000000000000000000001bec4db6c3bc499f3dbf289f5499c30d541fec97"
                    ]
                },
                "nodeType": 1
            },
            "9": {
                "invocation": {
                    "address": "0x1bec4db6c3bc499f3dbf289f5499c30d541fec97",
                    "callData": "0x",
                    "decodedMethod": {
                        "callParams": [],
                        "constructorArguments": "",
                        "name": "getReserves",
                        "returnParams": [
                            {
                                "name": "_reserve0",
                                "type": "uint112",
                                "value": "1,804,360,143,991,106,932,492,161"
                            },
                            {
                                "name": "_reserve1",
                                "type": "uint112",
                                "value": "1,673,287,240,726,578,824,207"
                            },
                            {
                                "name": "_blockTimestampLast",
                                "type": "uint32",
                                "value": "1,646,783,245"
                            }
                        ],
                        "signature": "getReserves()"
                    },
                    "errorInfo": "",
                    "fromAddress": "0x1111111254fb6c44bac0bed2854e76f90643097d",
                    "gasUsed": 2517,
                    "id": 9,
                    "methodDecoded": true,
                    "operation": "STATICCALL",
                    "output": "0x000000000000000000000000000000000000000000017e168f350a264fa6c78100000000000000000000000000000000000000000000005ab58677fc2d45840f000000000000000000000000000000000000000000000000000000006227eb0d",
                    "revert": false,
                    "revertMessage": "",
                    "selector": "0x0902f1ac",
                    "status": true,
                    "value": "0"
                },
                "nodeType": 0
            }
        },
        "gasFlame": [
            {
                "children": [
                    {
                        "children": [
                            {
                                "children": [],
                                "depth": 0,
                                "name": "Initial Gas",
                                "value": 26912
                            },
                            {
                                "children": [
                                    {
                                        "children": [],
                                        "depth": 1,
                                        "name": "transferFrom",
                                        "value": 37847
                                    },
                                    {
                                        "children": [
                                            {
                                                "children": [
                                                    {
                                                        "children": [],
                                                        "depth": 3,
                                                        "name": "allowance",
                                                        "value": 3014
                                                    },
                                                    {
                                                        "children": [
                                                            {
                                                                "children": [],
                                                                "depth": 4,
                                                                "name": "transferFrom",
                                                                "value": 11947
                                                            },
                                                            {
                                                                "children": [],
                                                                "depth": 4,
                                                                "name": "getReserves",
                                                                "value": 2517
                                                            },
                                                            {
                                                                "children": [
                                                                    {
                                                                        "children": [],
                                                                        "depth": 5,
                                                                        "name": "transfer",
                                                                        "value": 12862
                                                                    },
                                                                    {
                                                                        "children": [],
                                                                        "depth": 5,
                                                                        "name": "balanceOf",
                                                                        "value": 787
                                                                    },
                                                                    {
                                                                        "children": [],
                                                                        "depth": 5,
                                                                        "name": "balanceOf",
                                                                        "value": 534
                                                                    }
                                                                ],
                                                                "depth": 4,
                                                                "name": "swap",
                                                                "value": 48379
                                                            },
                                                            {
                                                                "children": [],
                                                                "depth": 4,
                                                                "name": "getReserves",
                                                                "value": 2504
                                                            },
                                                            {
                                                                "children": [
                                                                    {
                                                                        "children": [],
                                                                        "depth": 5,
                                                                        "name": "transfer",
                                                                        "value": 29969
                                                                    },
                                                                    {
                                                                        "children": [],
                                                                        "depth": 5,
                                                                        "name": "balanceOf",
                                                                        "value": 534
                                                                    },
                                                                    {
                                                                        "children": [],
                                                                        "depth": 5,
                                                                        "name": "balanceOf",
                                                                        "value": 626
                                                                    }
                                                                ],
                                                                "depth": 4,
                                                                "name": "swap",
                                                                "value": 64952
                                                            }
                                                        ],
                                                        "depth": 3,
                                                        "name": "unoswap",
                                                        "value": 137706
                                                    },
                                                    {
                                                        "children": [],
                                                        "depth": 3,
                                                        "name": "transfer",
                                                        "value": 8693
                                                    },
                                                    {
                                                        "children": [],
                                                        "depth": 3,
                                                        "name": "balanceOf",
                                                        "value": 787
                                                    },
                                                    {
                                                        "children": [],
                                                        "depth": 3,
                                                        "name": "balanceOf",
                                                        "value": 626
                                                    },
                                                    {
                                                        "children": [],
                                                        "depth": 3,
                                                        "name": "transfer",
                                                        "value": 8069
                                                    }
                                                ],
                                                "depth": 2,
                                                "name": "0x92f5f037",
                                                "value": 168270
                                            }
                                        ],
                                        "depth": 1,
                                        "name": "swap",
                                        "value": 173482
                                    }
                                ],
                                "depth": 0,
                                "name": "Executed Gas",
                                "value": 234443
                            }
                        ],
                        "depth": -1,
                        "name": "Actual Gas Used",
                        "value": 213155
                    },
                    {
                        "children": [],
                        "depth": -1,
                        "name": "Refunded Gas",
                        "value": 48200
                    }
                ],
                "depth": -2,
                "name": "Total Gas",
                "value": 261355
            }
        ],
        "isConfirmed": true,
        "mainTrace": [
            {
                "children": [
                    {
                        "children": [
                            {
                                "children": [
                                    {
                                        "children": [],
                                        "depth": 2,
                                        "id": 2,
                                        "order": 2
                                    }
                                ],
                                "depth": 1,
                                "id": 1,
                                "order": 1
                            },
                            {
                                "children": [
                                    {
                                        "children": [
                                            {
                                                "children": [],
                                                "depth": 3,
                                                "id": 5,
                                                "order": 5
                                            },
                                            {
                                                "children": [
                                                    {
                                                        "children": [
                                                            {
                                                                "children": [],
                                                                "depth": 5,
                                                                "id": 8,
                                                                "order": 8
                                                            }
                                                        ],
                                                        "depth": 4,
                                                        "id": 7,
                                                        "order": 7
                                                    },
                                                    {
                                                        "children": [],
                                                        "depth": 4,
                                                        "id": 9,
                                                        "order": 9
                                                    },
                                                    {
                                                        "children": [
                                                            {
                                                                "children": [
                                                                    {
                                                                        "children": [],
                                                                        "depth": 6,
                                                                        "id": 12,
                                                                        "order": 12
                                                                    }
                                                                ],
                                                                "depth": 5,
                                                                "id": 11,
                                                                "order": 11
                                                            },
                                                            {
                                                                "children": [],
                                                                "depth": 5,
                                                                "id": 13,
                                                                "order": 13
                                                            },
                                                            {
                                                                "children": [],
                                                                "depth": 5,
                                                                "id": 14,
                                                                "order": 14
                                                            },
                                                            {
                                                                "children": [],
                                                                "depth": 5,
                                                                "id": 15,
                                                                "order": 15
                                                            },
                                                            {
                                                                "children": [],
                                                                "depth": 5,
                                                                "id": 16,
                                                                "order": 16
                                                            }
                                                        ],
                                                        "depth": 4,
                                                        "id": 10,
                                                        "order": 10
                                                    },
                                                    {
                                                        "children": [],
                                                        "depth": 4,
                                                        "id": 17,
                                                        "order": 17
                                                    },
                                                    {
                                                        "children": [
                                                            {
                                                                "children": [
                                                                    {
                                                                        "children": [],
                                                                        "depth": 6,
                                                                        "id": 20,
                                                                        "order": 20
                                                                    }
                                                                ],
                                                                "depth": 5,
                                                                "id": 19,
                                                                "order": 19
                                                            },
                                                            {
                                                                "children": [],
                                                                "depth": 5,
                                                                "id": 21,
                                                                "order": 21
                                                            },
                                                            {
                                                                "children": [],
                                                                "depth": 5,
                                                                "id": 22,
                                                                "order": 22
                                                            },
                                                            {
                                                                "children": [],
                                                                "depth": 5,
                                                                "id": 23,
                                                                "order": 23
                                                            },
                                                            {
                                                                "children": [],
                                                                "depth": 5,
                                                                "id": 24,
                                                                "order": 24
                                                            }
                                                        ],
                                                        "depth": 4,
                                                        "id": 18,
                                                        "order": 18
                                                    }
                                                ],
                                                "depth": 3,
                                                "id": 6,
                                                "order": 6
                                            },
                                            {
                                                "children": [
                                                    {
                                                        "children": [],
                                                        "depth": 4,
                                                        "id": 26,
                                                        "order": 26
                                                    }
                                                ],
                                                "depth": 3,
                                                "id": 25,
                                                "order": 25
                                            },
                                            {
                                                "children": [],
                                                "depth": 3,
                                                "id": 27,
                                                "order": 27
                                            },
                                            {
                                                "children": [],
                                                "depth": 3,
                                                "id": 28,
                                                "order": 28
                                            },
                                            {
                                                "children": [
                                                    {
                                                        "children": [],
                                                        "depth": 4,
                                                        "id": 30,
                                                        "order": 30
                                                    }
                                                ],
                                                "depth": 3,
                                                "id": 29,
                                                "order": 29
                                            }
                                        ],
                                        "depth": 2,
                                        "id": 4,
                                        "order": 4
                                    }
                                ],
                                "depth": 1,
                                "id": 3,
                                "order": 3
                            },
                            {
                                "children": [],
                                "depth": 1,
                                "id": 31,
                                "order": 31
                            }
                        ],
                        "depth": 0,
                        "id": 0,
                        "order": 0
                    }
                ],
                "depth": -1,
                "id": -1,
                "order": -1
            }
        ],
        "mainTraceNodeCount": 32,
        "parentIdMap": {
            "0": -1,
            "1": 0,
            "10": 6,
            "11": 10,
            "12": 11,
            "13": 10,
            "14": 10,
            "15": 10,
            "16": 10,
            "17": 6,
            "18": 6,
            "19": 18,
            "2": 1,
            "20": 19,
            "21": 18,
            "22": 18,
            "23": 18,
            "24": 18,
            "25": 4,
            "26": 25,
            "27": 4,
            "28": 4,
            "29": 4,
            "3": 0,
            "30": 29,
            "31": 0,
            "4": 3,
            "5": 4,
            "6": 4,
            "7": 6,
            "8": 7,
            "9": 6
        },
        "tidyTrace": [
            {
                "children": [
                    {
                        "children": [
                            {
                                "children": [
                                    {
                                        "children": [],
                                        "depth": 2,
                                        "id": 2,
                                        "order": 2
                                    }
                                ],
                                "depth": 1,
                                "id": 1,
                                "order": 1
                            },
                            {
                                "children": [
                                    {
                                        "children": [
                                            {
                                                "children": [
                                                    {
                                                        "children": [
                                                            {
                                                                "children": [],
                                                                "depth": 5,
                                                                "id": 8,
                                                                "order": 8
                                                            }
                                                        ],
                                                        "depth": 4,
                                                        "id": 7,
                                                        "order": 7
                                                    },
                                                    {
                                                        "children": [
                                                            {
                                                                "children": [
                                                                    {
                                                                        "children": [],
                                                                        "depth": 6,
                                                                        "id": 12,
                                                                        "order": 12
                                                                    }
                                                                ],
                                                                "depth": 5,
                                                                "id": 11,
                                                                "order": 11
                                                            },
                                                            {
                                                                "children": [],
                                                                "depth": 5,
                                                                "id": 15,
                                                                "order": 15
                                                            },
                                                            {
                                                                "children": [],
                                                                "depth": 5,
                                                                "id": 16,
                                                                "order": 16
                                                            }
                                                        ],
                                                        "depth": 4,
                                                        "id": 10,
                                                        "order": 10
                                                    },
                                                    {
                                                        "children": [
                                                            {
                                                                "children": [
                                                                    {
                                                                        "children": [],
                                                                        "depth": 6,
                                                                        "id": 20,
                                                                        "order": 20
                                                                    }
                                                                ],
                                                                "depth": 5,
                                                                "id": 19,
                                                                "order": 19
                                                            },
                                                            {
                                                                "children": [],
                                                                "depth": 5,
                                                                "id": 23,
                                                                "order": 23
                                                            },
                                                            {
                                                                "children": [],
                                                                "depth": 5,
                                                                "id": 24,
                                                                "order": 24
                                                            }
                                                        ],
                                                        "depth": 4,
                                                        "id": 18,
                                                        "order": 18
                                                    }
                                                ],
                                                "depth": 3,
                                                "id": 6,
                                                "order": 6
                                            },
                                            {
                                                "children": [
                                                    {
                                                        "children": [],
                                                        "depth": 4,
                                                        "id": 26,
                                                        "order": 26
                                                    }
                                                ],
                                                "depth": 3,
                                                "id": 25,
                                                "order": 25
                                            },
                                            {
                                                "children": [
                                                    {
                                                        "children": [],
                                                        "depth": 4,
                                                        "id": 30,
                                                        "order": 30
                                                    }
                                                ],
                                                "depth": 3,
                                                "id": 29,
                                                "order": 29
                                            }
                                        ],
                                        "depth": 2,
                                        "id": 4,
                                        "order": 4
                                    }
                                ],
                                "depth": 1,
                                "id": 3,
                                "order": 3
                            },
                            {
                                "children": [],
                                "depth": 1,
                                "id": 31,
                                "order": 31
                            }
                        ],
                        "depth": 0,
                        "id": 0,
                        "order": 0
                    }
                ],
                "depth": -1,
                "id": -1,
                "order": -1
            }
        ],
        "tidyTraceNodeCount": 23
    },
    "state_change": {
        "stateChanges": [
            {
                "address": "0x0f5d2fb29fb7d3cfee444a200298f468908cc942",
                "erc": "ERC-20",
                "slots": [
                    {
                        "current": "0x000000000000000000000000000000000000000000000003bc781d51c4415f63",
                        "key": "0xc2b051ab1cd9577df6469ddc4af71686af3a024c2f016b75c04eb6776f2b6fd0",
                        "prev": "0x000000000000000000000000000000000000000000000005e794a963ebe15f63"
                    },
                    {
                        "current": "0xfffffffffffffffffffffffffffffffffffffffffffffffdd4e373edd85fffff",
                        "key": "0x98e7e00ac3d1da9d7108d2c3797b5fed42a0fdc7ab98495de9f7a70bae86d46e",
                        "prev": "0xffffffffffffffffffffffffffffffffffffffffffffffffffffffffffffffff"
                    },
                    {
                        "current": "0x000000000000000000000000000000000000000000017e18b57623132fe3c781",
                        "key": "0x445847bd58f923166d3a29527d67116d6e84d28ec42c17d1df9df559a89bd79b",
                        "prev": "0x000000000000000000000000000000000000000000017e168f350a264fa6c781"
                    },
                    {
                        "current": "0xfffffffffffffffffffffffffffffffffffffffffffd023361ab2a8ef315e8f2",
                        "key": "0xfc45630f43c02736e7f32ea72a4252eccc5ac5179aa2ec876d5b5654be4a14bd",
                        "prev": "0xfffffffffffffffffffffffffffffffffffffffffffd023587ec437bd352e8f2"
                    },
                    {
                        "current": "0x0000000000000000000000000000000000000000000000212fcaf094f7fd2912",
                        "key": "0xe455c63cb16d7ed412c83148ac97c29d7604ba0716338276e2aa652842f86024",
                        "prev": "0x0000000000000000000000000000000000000000000000212aef7d6fb09a2912"
                    }
                ],
                "storageVariables": []
            },
            {
                "address": "0x1bec4db6c3bc499f3dbf289f5499c30d541fec97",
                "erc": "ERC-20",
                "slots": [
                    {
                        "current": "0x00000000000000000000000000120045a25ef8148818fe34cc092d093e9f0d62",
                        "key": "0x000000000000000000000000000000000000000000000000000000000000000a",
                        "prev": "0x00000000000000000000000000120044e90855ebfe88dcc518ba5b396bef310a"
                    },
                    {
                        "current": "0x6227eb3900000000005ab5043b2a24ae81dc000000017e18b57623132fe3c781",
                        "key": "0x0000000000000000000000000000000000000000000000000000000000000008",
                        "prev": "0x6227eb0d00000000005ab58677fc2d45840f000000017e168f350a264fa6c781"
                    },
                    {
                        "current": "0x000000000000000000000000000000003eddf010dd22e8cc4009595e056b39bc",
                        "key": "0x0000000000000000000000000000000000000000000000000000000000000009",
                        "prev": "0x000000000000000000000000000000003edde59ec002998c0046caac97634e38"
                    }
                ],
                "storageVariables": [
                    {
                        "name": "price1CumulativeLast",
                        "type": "uint256",
                        "value": {
                            "current": "401437108884911647425399019199437654475083106",
                            "prev": "401436862527905935325985652607522653831377162",
                            "typeTag": 1
                        }
                    },
                    {
                        "name": "reserve0",
                        "type": "uint112",
                        "value": {
                            "current": "1804399793991106932492161",
                            "prev": "1804360143991106932492161",
                            "typeTag": 1
                        }
                    },
                    {
                        "name": "reserve1",
                        "type": "uint112",
                        "value": {
                            "current": "1673250582106821525980",
                            "prev": "1673287240726578824207",
                            "typeTag": 1
                        }
                    },
                    {
                        "name": "blockTimestampLast",
                        "type": "uint32",
                        "value": {
                            "current": "1646783289",
                            "prev": "1646783245",
                            "typeTag": 1
                        }
                    },
                    {
                        "name": "price0CumulativeLast",
                        "type": "uint256",
                        "value": {
                            "current": "83564502458794847660230718191276079548",
                            "prev": "83564290593674159354207159046182751800",
                            "typeTag": 1
                        }
                    }
                ]
            },
            {
                "address": "0x3827f0e43bb7d52a2ddd40eb8812180394a21b0d",
                "erc": "ERC-20",
                "slots": [
                    {
                        "current": "0x0000000000000000000000000000000001d9f6507dcb1f0646f8527907ab08be",
                        "key": "0x000000000000000000000000000000000000000000000000000000000000000a",
                        "prev": "0x0000000000000000000000000000000001d9f572033d2ad2487f87f17fd8cd35"
                    },
                    {
                        "current": "0x6227eb39000000001ad339620dfb376e9da60000000000007ffe31785db372a8",
                        "key": "0x0000000000000000000000000000000000000000000000000000000000000008",
                        "prev": "0x6227eb0a000000001aee8be0a23eeb2c569f0000000000007f7bf4a6551c7075"
                    },
                    {
                        "current": "0x00000000000000000000000000189a75eac584a84b2d34e034dbec4419b4fd92",
                        "key": "0x0000000000000000000000000000000000000000000000000000000000000009",
                        "prev": "0x00000000000000000000000000189a6bfcf002999fc9ef6e27123411918af5ed"
                    }
                ],
                "storageVariables": [
                    {
                        "name": "reserve0",
                        "type": "uint112",
                        "value": {
                            "current": "9222863479939232424",
                            "prev": "9186204860181934197",
                            "typeTag": 1
                        }
                    },
                    {
                        "name": "reserve1",
                        "type": "uint112",
                        "value": {
                            "current": "126677926436943988432294",
                            "prev": "127181932878510821234335",
                            "typeTag": 1
                        }
                    },
                    {
                        "name": "blockTimestampLast",
                        "type": "uint32",
                        "value": {
                            "current": "1646783289",
                            "prev": "1646783242",
                            "typeTag": 1
                        }
                    },
                    {
                        "name": "price0CumulativeLast",
                        "type": "uint256",
                        "value": {
                            "current": "548673301900079889647349350532274744819252626",
                            "prev": "548669923223145493823499817424174233430980077",
                            "typeTag": 1
                        }
                    },
                    {
                        "name": "price1CumulativeLast",
                        "type": "uint256",
                        "value": {
                            "current": "2460952264033657598571488042027780286",
                            "prev": "2460934637452796476576384658307599669",
                            "typeTag": 1
                        }
                    }
                ]
            },
            {
                "address": "0xc02aaa39b223fe8d0a0e5c4f27ead9083c756cc2",
                "erc": "ERC-20",
                "slots": [
                    {
                        "current": "0x00000000000000000000000000000000000000000000005ab5043b2a24ae81dc",
                        "key": "0xcb2a9e3019a76f2d74b5089c4d28eac4129f1537e80b8b76d091e33bb2b90263",
                        "prev": "0x00000000000000000000000000000000000000000000005ab58677fc2d45840f"
                    },
                    {
                        "current": "0x0000000000000000000000000000000000000000000000007ffe31785db372a8",
                        "key": "0x75d133212992a88c3c03727b2cfc5f50e1d0e97704f274fd888399cd017fdfae",
                        "prev": "0x0000000000000000000000000000000000000000000000007f7bf4a6551c7075"
                    }
                ],
                "storageVariables": [
                    {
                        "name": "balanceOf",
                        "type": "mapping(address => uint256)",
                        "value": {
                            "pairs": [
                                {
                                    "key": "0x1bec4db6c3bc499f3dbf289f5499c30d541fec97",
                                    "value": {
                                        "current": "1673250582106821525980",
                                        "prev": "1673287240726578824207",
                                        "typeTag": 1
                                    }
                                },
                                {
                                    "key": "0x3827f0e43bb7d52a2ddd40eb8812180394a21b0d",
                                    "value": {
                                        "current": "9222863479939232424",
                                        "prev": "9186204860181934197",
                                        "typeTag": 1
                                    }
                                }
                            ],
                            "typeTag": 4
                        }
                    }
                ]
            },
            {
                "address": "0xd5d86fc8d5c0ea1ac1ac5dfab6e529c9967a45e9",
                "erc": "ERC-20",
                "slots": [
                    {
                        "current": "0x000000000000000000000000000000000000000000001ad339620dfb376e9da6",
                        "key": "0xd15c738070660363f4accb5455c20f469e8c4105245ea37d431f98e4c3c60c6d",
                        "prev": "0x000000000000000000000000000000000000000000001aee8be0a23eeb2c569f"
                    },
                    {
                        "current": "0x00000000000000000000000000000000000000000000012a5f6ef9210cddb8f9",
                        "key": "0x2e3b121bb16253b3a9d449c99883a70e36c8c6f260840bc5269ab6f2cfdec41f",
                        "prev": "0x00000000000000000000000000000000000000000000010f0cf064dd59200000"
                    }
                ],
                "storageVariables": [
                    {
                        "name": "_balances",
                        "type": "mapping(address => uint256)",
                        "value": {
                            "pairs": [
                                {
                                    "key": "0x3827f0e43bb7d52a2ddd40eb8812180394a21b0d",
                                    "value": {
                                        "current": "126677926436943988432294",
                                        "prev": "127181932878510821234335",
                                        "typeTag": 1
                                    }
                                },
                                {
                                    "key": "0x5aac2272179d08a3b2a9b7c65ee0f65cbf29b0f2",
                                    "value": {
                                        "current": "5504006441566832802041",
                                        "prev": "5000000000000000000000",
                                        "typeTag": 1
                                    }
                                }
                            ],
                            "typeTag": 4
                        }
                    }
                ]
            }
        ]
    }
}