{
    "balance_change": {
        "balanceChanges": [
            {
                "account": "0xe955fc993430b64881888b815570857658a24a2e",
                "assets": [
                    {
                        "address": "0x6b175474e89094c44da98b954eedeac495271d0f",
                        "amount": "461.484565426351761524",
                        "iconUrl": "https://assets.blocksec.com/icon/39aead569b9c011cb6f69734d9abbc9ab6a80049fe93bbd12bb473a3e0e859a3.png",
                        "isERC1155": false,
                        "isERC721": false,
                        "sign": false,
                        "value": "461.4845654"
                    }
                ]
            },
            {
                "account": "0xc564ee9f21ed8a2d8e7e76c085740d5e4c5fafbe",
                "assets": [
                    {
                        "address": "0x6b175474e89094c44da98b954eedeac495271d0f",
                        "amount": "461.484565426351761524",
                        "iconUrl": "https://assets.blocksec.com/icon/39aead569b9c011cb6f69734d9abbc9ab6a80049fe93bbd12bb473a3e0e859a3.png",
                        "isERC1155": false,
                        "isERC721": false,
                        "sign": true,
                        "value": "461.4845654"
                    }
                ]
            }
        ]
    },
    "profile": {
        "basic_info": {
            "baseFee": "73.31711147",
            "blockNumber": 14547792,
            "callData": "0xa9059cbb000000000000000000000000c564ee9f21ed8a2d8e7e76c085740d5e4c5fafbe000000000000000000000000000000000000000000000019046287348b35e874",
            "debugEnable": true,
            "errorInfo": "",
            "eventCount": 1,
            "feeRecipient": "0xea674fdde714fd979de3edf0f56aa9716b898ec8",
            "formatValue": "0",
            "gasLimit": 34742,
            "gasPrice": "74.81711147",
            "gasUsed": 29942,
            "intTxnCount": 0,
            "internalRevert": false,
            "internalRevertMessage": "",
            "isContractCreation": false,
            "isFlashloan": false,
            "maxFee": "87.611741099",
            "nonce": 300,
            "overwritedBlockNumber": -1,
            "priorityFee": "1.5",
            "receiver": "0x6b175474e89094c44da98b954eedeac495271d0f",
            "revertMessage": "",
            "sender": "0xe955fc993430b64881888b815570857658a24a2e",
            "simulationEnable": true,
            "sourceTxnHash": "0x0f7ff0f5ddf0a19205e14478095972f72202af4f1bd810bf5a65c31764d8846a",
            "status": true,
            "timestamp": "2022-04-08T22:29:31Z",
            "transactionFee": "0.00224017395163474",
            "txnHash": "0x0f7ff0f5ddf0a19205e14478095972f72202af4f1bd810bf5a65c31764d8846a",
            "txnIndex": 113,
            "type": 2,
            "value": "0"
        },
        "fund_flow": [
            {
                "amount": "461.484565426351761524",
                "from": "0xe955fc993430b64881888b815570857658a24a2e",
                "id": 1,
                "isERC1155": false,
                "isERC721": false,
                "isReverted": false,
                "order": 1,
                "to": "0xc564ee9f21ed8a2d8e7e76c085740d5e4c5fafbe",
                "token": "0x6b175474e89094c44da98b954eedeac495271d0f"
            }
        ],
        "token_infos": [
            {
                "address": "0x6b175474e89094c44da98b954eedeac495271d0f",
                "decimals": 18
            },
            {
                "address": "0xc02aaa39b223fe8d0a0e5c4f27ead9083c756cc2",
                "decimals": 18
            },
            {
                "address": "0xeeeeeeeeeeeeeeeeeeeeeeeeeeeeeeeeeeeeeeee",
                "decimals": 18
            }
        ]
    },
    "address_label": {
        "labels": [
            {
                "address": "0x0000000000000000000000000000000000000002",
                "label": "Precompiled"
            },
            {
                "address": "0x0000000000000000000000000000000000000003",
                "label": "Precompiled"
            },
            {
                "address": "0x0000000000000000000000000000000000000004",
                "label": "Precompiled"
            },
            {
                "address": "0xeeeeeeeeeeeeeeeeeeeeeeeeeeeeeeeeeeeeeeee",
                "label": "Ether"
            },
            {
                "address": "0xc564ee9f21ed8a2d8e7e76c085740d5e4c5fafbe",
                "label": "Multichain: Fantom Bridge"
            },
            {
                "address": "0x6b175474e89094c44da98b954eedeac495271d0f",
                "label": "Sky: Dai Stablecoin"
            },
            {
                "address": "0x0000000000000000000000000000000000000001",
                "label": "Precompiled"
            }
        ]
    },
    "trace": {
        "accountLabels": null,
        "dataMap": {
            "-1": {
                "invocation": {
                    "address": "0xe955fc993430b64881888b815570857658a24a2e",
                    "callData": "",
                    "decodedMethod": null,
                    "errorInfo": "",
                    "fromAddress": "",
                    "gasUsed": 0,
                    "id": -1,
                    "methodDecoded": false,
                    "operation": "",
                    "output": "",
                    "revert": false,
                    "revertMessage": "",
                    "selector": "",
                    "status": false,
                    "value": ""
                },
                "nodeType": 0
            },
            "0": {
                "invocation": {
                    "address": "0x6b175474e89094c44da98b954eedeac495271d0f",
                    "callData": "0x000000000000000000000000c564ee9f21ed8a2d8e7e76c085740d5e4c5fafbe000000000000000000000000000000000000000000000019046287348b35e874",
                    "decodedMethod": {
                        "callParams": [
                            {
                                "name": "dst",
                                "type": "address",
                                "value": "0xc564ee9f21ed8a2d8e7e76c085740d5e4c5fafbe"
                            },
                            {
                                "decimalAvailable": true,
                                "name": "wad",
                                "type": "uint256",
                                "value": "461,484,565,426,351,761,524"
                            }
                        ],
                        "constructorArguments": "",
                        "name": "transfer",
                        "returnParams": [
                            {
                                "name": "",
                                "type": "bool",
                                "value": true
                            }
                        ],
                        "signature": "transfer(address,uint256)"
                    },
                    "errorInfo": "",
                    "fromAddress": "0xe955fc993430b64881888b815570857658a24a2e",
                    "gasUsed": 29942,
                    "id": 0,
                    "methodDecoded": true,
                    "operation": "CALL",
                    "output": "0x0000000000000000000000000000000000000000000000000000000000000001",
                    "revert": false,
                    "revertMessage": "",
                    "selector": "0xa9059cbb",
                    "status": true,
                    "value": "0"
                },
                "nodeType": 0
            },
            "1": {
                "event": {
                    "contract": "0x6b175474e89094c44da98b954eedeac495271d0f",
                    "decodedLog": {
                        "name": "Transfer",
                        "params": [
                            {
                                "name": "src",
                                "type": "address",
                                "value": "0xe955fc993430b64881888b815570857658a24a2e"
                            },
                            {
                                "name": "dst",
                                "type": "address",
                                "value": "0xc564ee9f21ed8a2d8e7e76c085740d5e4c5fafbe"
                            },
                            {
                                "decimalAvailable": true,
                                "name": "wad",
                                "type": "uint256",
                                "value": "461,484,565,426,351,761,524"
                            }
                        ],
                        "signature": "Transfer(address,address,uint256)"
                    },
                    "id": 1,
                    "logData": "0x000000000000000000000000000000000000000000000019046287348b35e874",
                    "logDecoded": true,
                    "operation": "EVENT",
                    "revert": false,
                    "status": true,
                    "topics": [
                        "0xddf252ad1be2c89b69c2b068fc378daa952ba7f163c4a11628f55a4df523b3ef",
                        "0x000000000000000000000000e955fc993430b64881888b815570857658a24a2e",
                        "0x000000000000000000000000c564ee9f21ed8a2d8e7e76c085740d5e4c5fafbe"
                    ]
                },
                "nodeType": 1
            }
        },
        "gasFlame": [
            {
                "children": [
                    {
                        "children": [
                            {
                                "children": [],
                                "depth": 0,
                                "name": "Initial Gas",
                                "value": 21668
                            },
                            {
                                "children": [],
                                "depth": 0,
                                "name": "Executed Gas",
                                "value": 13074
                            }
                        ],
                        "depth": -1,
                        "name": "Actual Gas Used",
                        "value": 29942
                    },
                    {
                        "children": [],
                        "depth": -1,
                        "name": "Refunded Gas",
                        "value": 4800
                    }
                ],
                "depth": -2,
                "name": "Total Gas",
                "value": 34742
            }
        ],
        "isConfirmed": true,
        "mainTrace": [
            {
                "children": [
                    {
                        "children": [
                            {
                                "children": [],
                                "depth": 1,
                                "id": 1,
                                "order": 1
                            }
                        ],
                        "depth": 0,
                        "id": 0,
                        "order": 0
                    }
                ],
                "depth": -1,
                "id": -1,
                "order": -1
            }
        ],
        "mainTraceNodeCount": 2,
        "parentIdMap": {
            "0": -1,
            "1": 0
        },
        "tidyTrace": [
            {
                "children": [
                    {
                        "children": [
                            {
                                "children": [],
                                "depth": 1,
                                "id": 1,
                                "order": 1
                            }
                        ],
                        "depth": 0,
                        "id": 0,
                        "order": 0
                    }
                ],
                "depth": -1,
                "id": -1,
                "order": -1
            }
        ],
        "tidyTraceNodeCount": 2
    },
    "state_change": {
        "stateChanges": [
            {
                "address": "0x6b175474e89094c44da98b954eedeac495271d0f",
                "erc": "ERC-20",
                "slots": [
                    {
                        "current": "0x0000000000000000000000000000000000000000000000000000000000000000",
                        "key": "0xfd4a883a2a78f1bf839f54400def99c210d6a07c5ef4820b98863d6cd24f8d97",
                        "prev": "0x000000000000000000000000000000000000000000000019046287348b35e874"
                    },
                    {
                        "current": "0x000000000000000000000000000000000000000000fd79a5532f70dfd8253e9e",
                        "key": "0x82965c848e2aae71b70e4be8a8d1d70f21d95e8d64af27c9955e664905d64cc8",
                        "prev": "0x000000000000000000000000000000000000000000fd798c4ecce9ab4cef562a"
                    }
                ],
                "storageVariables": [
                    {
                        "name": "balanceOf",
                        "type": "mapping(address => uint256)",
                        "value": {
                            "pairs": [
                                {
                                    "key": "0xc564ee9f21ed8a2d8e7e76c085740d5e4c5fafbe",
                                    "value": {
                                        "current": "306432688413834306107293342",
                                        "prev": "306432226929268879755531818",
                                        "typeTag": 1
                                    }
                                },
                                {
                                    "key": "0xe955fc993430b64881888b815570857658a24a2e",
                                    "value": {
                                        "current": "0",
                                        "prev": "461484565426351761524",
                                        "typeTag": 1
                                    }
                                }
                            ],
                            "typeTag": 4
                        }
                    }
                ]
            }
        ]
    }
}