{
    "balance_change": {
        "balanceChanges": [
            {
                "account": "0x0b0f3d3676389b1d55233535d0f4bca8db5875e3",
                "assets": [
                    {
                        "address": "0x716523231368d43bdfe1f06afe1c62930731ab13",
                        "amount": "10,000,000",
                        "iconUrl": "",
                        "isERC1155": false,
                        "isERC721": false,
                        "sign": true,
                        "value": ""
                    }
                ]
            },
            {
                "account": "0x716523231368d43bdfe1f06afe1c62930731ab13",
                "assets": [
                    {
                        "address": "0x716523231368d43bdfe1f06afe1c62930731ab13",
                        "amount": "10,000,000",
                        "iconUrl": "",
                        "isERC1155": false,
                        "isERC721": false,
                        "sign": false,
                        "value": ""
                    }
                ]
            }
        ]
    },
    "profile": {
        "basic_info": {
            "baseFee": "",
            "blockNumber": 9368782,
            "callData": "0x069f5bdd0000000000000000000000000000000000000000000000000000000000000000",
            "debugEnable": true,
            "errorInfo": "",
            "eventCount": 1,
            "feeRecipient": "0x5a0b54d5dc17e0aadc383d2db43b0a0d3e029c4c",
            "formatValue": "0",
            "gasLimit": 52947,
            "gasPrice": "1",
            "gasUsed": 47947,
            "intTxnCount": 0,
            "internalRevert": false,
            "internalRevertMessage": "",
            "isContractCreation": false,
            "isFlashloan": false,
            "maxFee": "",
            "nonce": 32,
            "overwritedBlockNumber": -1,
            "priorityFee": "",
            "receiver": "0x716523231368d43bdfe1f06afe1c62930731ab13",
            "revertMessage": "",
            "sender": "0x0b0f3d3676389b1d55233535d0f4bca8db5875e3",
            "simulationEnable": true,
            "sourceTxnHash": "0x101811ea24b4e2a87b29f7d04b4f19d7e5f0e4c86aa1c3c9269be3cc802c1d3b",
            "status": true,
            "timestamp": "2020-01-28T06:02:52Z",
            "transactionFee": "0.000047947",
            "txnHash": "0x101811ea24b4e2a87b29f7d04b4f19d7e5f0e4c86aa1c3c9269be3cc802c1d3b",
            "txnIndex": 107,
            "type": 0,
            "value": "0"
        },
        "fund_flow": [
            {
                "amount": "10,000,000",
                "from": "0x716523231368d43bdfe1f06afe1c62930731ab13",
                "id": 1,
                "isERC1155": false,
                "isERC721": false,
                "isReverted": false,
                "order": 1,
                "to": "0x0b0f3d3676389b1d55233535d0f4bca8db5875e3",
                "token": "0x716523231368d43bdfe1f06afe1c62930731ab13"
            }
        ],
        "token_infos": [
            {
                "address": "0xc02aaa39b223fe8d0a0e5c4f27ead9083c756cc2",
                "decimals": 18
            },
            {
                "address": "0xeeeeeeeeeeeeeeeeeeeeeeeeeeeeeeeeeeeeeeee",
                "decimals": 18
            },
            {
                "address": "0x716523231368d43bdfe1f06afe1c62930731ab13",
                "decimals": 8
            }
        ]
    },
    "address_label": {
        "labels": [
            {
                "address": "0x0000000000000000000000000000000000000004",
                "label": "Precompiled"
            },
            {
                "address": "0xeeeeeeeeeeeeeeeeeeeeeeeeeeeeeeeeeeeeeeee",
                "label": "Ether"
            },
            {
                "address": "0x716523231368d43bdfe1f06afe1c62930731ab13",
                "label": "Wrapped 0xEthereum Token (W0xETH)"
            },
            {
                "address": "0x0000000000000000000000000000000000000000",
                "label": "Null Address"
            },
            {
                "address": "0x0000000000000000000000000000000000000001",
                "label": "Precompiled"
            },
            {
                "address": "0x0000000000000000000000000000000000000002",
                "label": "Precompiled"
            },
            {
                "address": "0x0000000000000000000000000000000000000003",
                "label": "Precompiled"
            }
        ]
    },
    "trace": {
        "accountLabels": null,
        "dataMap": {
            "-1": {
                "invocation": {
                    "address": "0x0b0f3d3676389b1d55233535d0f4bca8db5875e3",
                    "callData": "",
                    "decodedMethod": null,
                    "errorInfo": "",
                    "fromAddress": "",
                    "gasUsed": 0,
                    "id": -1,
                    "methodDecoded": false,
                    "operation": "",
                    "output": "",
                    "revert": false,
                    "revertMessage": "",
                    "selector": "",
                    "status": false,
                    "value": ""
                },
                "nodeType": 0
            },
            "0": {
                "invocation": {
                    "address": "0x716523231368d43bdfe1f06afe1c62930731ab13",
                    "callData": "0x0000000000000000000000000000000000000000000000000000000000000000",
                    "decodedMethod": {
                        "callParams": [
                            {
                                "name": "_refer",
                                "type": "address",
                                "value": "0x0000000000000000000000000000000000000000"
                            }
                        ],
                        "constructorArguments": "",
                        "name": "getAirdrop",
                        "returnParams": [
                            {
                                "name": "success",
                                "type": "bool",
                                "value": true
                            }
                        ],
                        "signature": "getAirdrop(address)"
                    },
                    "errorInfo": "",
                    "fromAddress": "0x0b0f3d3676389b1d55233535d0f4bca8db5875e3",
                    "gasUsed": 47947,
                    "id": 0,
                    "methodDecoded": true,
                    "operation": "CALL",
                    "output": "0x0000000000000000000000000000000000000000000000000000000000000001",
                    "revert": false,
                    "revertMessage": "",
                    "selector": "0x069f5bdd",
                    "status": true,
                    "value": "0"
                },
                "nodeType": 0
            },
            "1": {
                "event": {
                    "contract": "0x716523231368d43bdfe1f06afe1c62930731ab13",
                    "decodedLog": {
                        "name": "Transfer",
                        "params": [
                            {
                                "name": "from",
                                "type": "address",
                                "value": "0x716523231368d43bdfe1f06afe1c62930731ab13"
                            },
                            {
                                "name": "to",
                                "type": "address",
                                "value": "0x0b0f3d3676389b1d55233535d0f4bca8db5875e3"
                            },
                            {
                                "decimalAvailable": true,
                                "name": "tokens",
                                "type": "uint256",
                                "value": "1,000,000,000,000,000"
                            }
                        ],
                        "signature": "Transfer(address,address,uint256)"
                    },
                    "id": 1,
                    "logData": "0x00000000000000000000000000000000000000000000000000038d7ea4c68000",
                    "logDecoded": true,
                    "operation": "EVENT",
                    "revert": false,
                    "status": true,
                    "topics": [
                        "0xddf252ad1be2c89b69c2b068fc378daa952ba7f163c4a11628f55a4df523b3ef",
                        "0x000000000000000000000000716523231368d43bdfe1f06afe1c62930731ab13",
                        "0x0000000000000000000000000b0f3d3676389b1d55233535d0f4bca8db5875e3"
                    ]
                },
                "nodeType": 1
            }
        },
        "gasFlame": [
            {
                "children": [
                    {
                        "children": [
                            {
                                "children": [],
                                "depth": 0,
                                "name": "Initial Gas",
                                "value": 21192
                            },
                            {
                                "children": [],
                                "depth": 0,
                                "name": "Executed Gas",
                                "value": 26755
                            }
                        ],
                        "depth": -1,
                        "name": "Actual Gas Used",
                        "value": 47947
                    },
                    {
                        "children": [],
                        "depth": -1,
                        "name": "Refunded Gas",
                        "value": 0
                    }
                ],
                "depth": -2,
                "name": "Total Gas",
                "value": 47947
            }
        ],
        "isConfirmed": true,
        "mainTrace": [
            {
                "children": [
                    {
                        "children": [
                            {
                                "children": [],
                                "depth": 1,
                                "id": 1,
                                "order": 1
                            }
                        ],
                        "depth": 0,
                        "id": 0,
                        "order": 0
                    }
                ],
                "depth": -1,
                "id": -1,
                "order": -1
            }
        ],
        "mainTraceNodeCount": 2,
        "parentIdMap": {
            "0": -1,
            "1": 0
        },
        "tidyTrace": [
            {
                "children": [
                    {
                        "children": [
                            {
                                "children": [],
                                "depth": 1,
                                "id": 1,
                                "order": 1
                            }
                        ],
                        "depth": 0,
                        "id": 0,
                        "order": 0
                    }
                ],
                "depth": -1,
                "id": -1,
                "order": -1
            }
        ],
        "tidyTraceNodeCount": 2
    },
    "state_change": {
        "stateChanges": [
            {
                "address": "0x716523231368d43bdfe1f06afe1c62930731ab13",
                "erc": "ERC-20",
                "slots": [
                    {
                        "current": "0x00000000000000000000000000000000000000000000000000000000000016ae",
                        "key": "0x000000000000000000000000000000000000000000000000000000000000000b",
                        "prev": "0x00000000000000000000000000000000000000000000000000000000000016ad"
                    },
                    {
                        "current": "0x000000000000000000000000000000000000010b5b6dc62e57de78f293240000",
                        "key": "0xe80ddb3be05f45f5ccf7056dbe8f2d40cdcb66e889c49f01cb87f0d6cd877502",
                        "prev": "0x000000000000000000000000000000000000010b5b6dc62e57e2067137ea8000"
                    },
                    {
                        "current": "0x000000000000000000000000000000000000000000000000003ff2e795f50000",
                        "key": "0xb796d89ec4bfd218609b8430ad29279546e184a8675c14e24efb8f044378c4af",
                        "prev": "0x000000000000000000000000000000000000000000000000003c6568f12e8000"
                    }
                ],
                "storageVariables": [
                    {
                        "name": "aTot",
                        "type": "uint256",
                        "value": {
                            "current": "5806",
                            "prev": "5805",
                            "typeTag": 1
                        }
                    },
                    {
                        "name": "balances",
                        "type": "mapping(address => uint256)",
                        "value": {
                            "pairs": [
                                {
                                    "key": "0x0b0f3d3676389b1d55233535d0f4bca8db5875e3",
                                    "value": {
                                        "current": "18000000000000000",
                                        "prev": "17000000000000000",
                                        "typeTag": 1
                                    }
                                },
                                {
                                    "key": "0x716523231368d43bdfe1f06afe1c62930731ab13",
                                    "value": {
                                        "current": "21182215236000104000000000000000",
                                        "prev": "21182215236000105000000000000000",
                                        "typeTag": 1
                                    }
                                }
                            ],
                            "typeTag": 4
                        }
                    }
                ]
            }
        ]
    }
}