{
    "balance_change": {
        "balanceChanges": [
            {
                "account": "0xf73c3c65bde10bf26c2e1763104e609a41702efe",
                "assets": [
                    {
                        "address": "0xc86d054809623432210c107af2e3f619dcfbf652",
                        "amount": "74,406.4012609",
                        "iconUrl": "https://assets.blocksec.com/icon/8e2b17bcbae1422699f2d9939a5a31d07d7eced340e44d183f80a109a390f59d.png",
                        "isERC1155": false,
                        "isERC721": false,
                        "sign": false,
                        "value": ""
                    }
                ]
            },
            {
                "account": "0x424efc76687a1f0192e51c7f9dbb10ed69c61c01",
                "assets": [
                    {
                        "address": "0xc86d054809623432210c107af2e3f619dcfbf652",
                        "amount": "74,406.4012609",
                        "iconUrl": "https://assets.blocksec.com/icon/8e2b17bcbae1422699f2d9939a5a31d07d7eced340e44d183f80a109a390f59d.png",
                        "isERC1155": false,
                        "isERC721": false,
                        "sign": true,
                        "value": ""
                    }
                ]
            }
        ]
    },
    "profile": {
        "basic_info": {
            "baseFee": "",
            "blockNumber": 6500090,
            "callData": "0xa9059cbb000000000000000000000000424efc76687a1f0192e51c7f9dbb10ed69c61c01000000000000000000000000000000000000000000000fc1943f8cc77198e800",
            "debugEnable": true,
            "errorInfo": "",
            "eventCount": 1,
            "feeRecipient": "0x6a7a43be33ba930fe58f34e07d0ad6ba7adb9b1f",
            "formatValue": "0",
            "gasLimit": 400000,
            "gasPrice": "40",
            "gasUsed": 52573,
            "intTxnCount": 0,
            "internalRevert": false,
            "internalRevertMessage": "",
            "isContractCreation": false,
            "isFlashloan": false,
            "maxFee": "",
            "nonce": 267359,
            "overwritedBlockNumber": -1,
            "priorityFee": "",
            "receiver": "0xc86d054809623432210c107af2e3f619dcfbf652",
            "revertMessage": "",
            "sender": "0xf73c3c65bde10bf26c2e1763104e609a41702efe",
            "simulationEnable": true,
            "sourceTxnHash": "0x10f962e550179227f1d046c66d58d4762da536332b3f469ca6e36d959496ad72",
            "status": true,
            "timestamp": "2018-10-12T08:09:09Z",
            "transactionFee": "0.00210292",
            "txnHash": "0x10f962e550179227f1d046c66d58d4762da536332b3f469ca6e36d959496ad72",
            "txnIndex": 44,
            "type": 0,
            "value": "0"
        },
        "fund_flow": [
            {
                "amount": "74,406.4012609",
                "from": "0xf73c3c65bde10bf26c2e1763104e609a41702efe",
                "id": 1,
                "isERC1155": false,
                "isERC721": false,
                "isReverted": false,
                "order": 1,
                "to": "0x424efc76687a1f0192e51c7f9dbb10ed69c61c01",
                "token": "0xc86d054809623432210c107af2e3f619dcfbf652"
            }
        ],
        "token_infos": [
            {
                "address": "0xc86d054809623432210c107af2e3f619dcfbf652",
                "decimals": 18
            },
            {
                "address": "0xeeeeeeeeeeeeeeeeeeeeeeeeeeeeeeeeeeeeeeee",
                "decimals": 18
            },
            {
                "address": "0xc02aaa39b223fe8d0a0e5c4f27ead9083c756cc2",
                "decimals": 18
            }
        ]
    },
    "address_label": {
        "labels": [
            {
                "address": "0x424efc76687a1f0192e51c7f9dbb10ed69c61c01",
                "label": "BITTREX"
            },
            {
                "address": "0x0000000000000000000000000000000000000001",
                "label": "Precompiled"
            },
            {
                "address": "0x0000000000000000000000000000000000000002",
                "label": "Precompiled"
            },
            {
                "address": "0x0000000000000000000000000000000000000003",
                "label": "Precompiled"
            },
            {
                "address": "0x0000000000000000000000000000000000000004",
                "label": "Precompiled"
            },
            {
                "address": "0xeeeeeeeeeeeeeeeeeeeeeeeeeeeeeeeeeeeeeeee",
                "label": "Ether"
            },
            {
                "address": "0xc86d054809623432210c107af2e3f619dcfbf652",
                "label": "Uppsala Token"
            },
            {
                "address": "0xf73c3c65bde10bf26c2e1763104e609a41702efe",
                "label": "Bibox"
            }
        ]
    },
    "trace": {
        "accountLabels": null,
        "dataMap": {
            "-1": {
                "invocation": {
                    "address": "0xf73c3c65bde10bf26c2e1763104e609a41702efe",
                    "callData": "",
                    "decodedMethod": null,
                    "errorInfo": "",
                    "fromAddress": "",
                    "gasUsed": 0,
                    "id": -1,
                    "methodDecoded": false,
                    "operation": "",
                    "output": "",
                    "revert": false,
                    "revertMessage": "",
                    "selector": "",
                    "status": false,
                    "value": ""
                },
                "nodeType": 0
            },
            "0": {
                "invocation": {
                    "address": "0xc86d054809623432210c107af2e3f619dcfbf652",
                    "callData": "0x000000000000000000000000424efc76687a1f0192e51c7f9dbb10ed69c61c01000000000000000000000000000000000000000000000fc1943f8cc77198e800",
                    "decodedMethod": {
                        "callParams": [
                            {
                                "name": "_to",
                                "type": "address",
                                "value": "0x424efc76687a1f0192e51c7f9dbb10ed69c61c01"
                            },
                            {
                                "decimalAvailable": true,
                                "name": "_value",
                                "type": "uint256",
                                "value": "74,406,401,260,900,000,000,000"
                            }
                        ],
                        "constructorArguments": "",
                        "name": "transfer",
                        "returnParams": [
                            {
                                "name": "",
                                "type": "bool",
                                "value": true
                            }
                        ],
                        "signature": "transfer(address,uint256)"
                    },
                    "errorInfo": "",
                    "fromAddress": "0xf73c3c65bde10bf26c2e1763104e609a41702efe",
                    "gasUsed": 52573,
                    "id": 0,
                    "methodDecoded": true,
                    "operation": "CALL",
                    "output": "0x0000000000000000000000000000000000000000000000000000000000000001",
                    "revert": false,
                    "revertMessage": "",
                    "selector": "0xa9059cbb",
                    "status": true,
                    "value": "0"
                },
                "nodeType": 0
            },
            "1": {
                "event": {
                    "contract": "0xc86d054809623432210c107af2e3f619dcfbf652",
                    "decodedLog": {
                        "name": "Transfer",
                        "params": [
                            {
                                "name": "from",
                                "type": "address",
                                "value": "0xf73c3c65bde10bf26c2e1763104e609a41702efe"
                            },
                            {
                                "name": "to",
                                "type": "address",
                                "value": "0x424efc76687a1f0192e51c7f9dbb10ed69c61c01"
                            },
                            {
                                "decimalAvailable": true,
                                "name": "value",
                                "type": "uint256",
                                "value": "74,406,401,260,900,000,000,000"
                            }
                        ],
                        "signature": "Transfer(address,address,uint256)"
                    },
                    "id": 1,
                    "logData": "0x000000000000000000000000000000000000000000000fc1943f8cc77198e800",
                    "logDecoded": true,
                    "operation": "EVENT",
                    "revert": false,
                    "status": true,
                    "topics": [
                        "0xddf252ad1be2c89b69c2b068fc378daa952ba7f163c4a11628f55a4df523b3ef",
                        "0x000000000000000000000000f73c3c65bde10bf26c2e1763104e609a41702efe",
                        "0x000000000000000000000000424efc76687a1f0192e51c7f9dbb10ed69c61c01"
                    ]
                },
                "nodeType": 1
            }
        },
        "gasFlame": [
            {
                "children": [
                    {
                        "children": [
                            {
                                "children": [],
                                "depth": 0,
                                "name": "Initial Gas",
                                "value": 23384
                            },
                            {
                                "children": [],
                                "depth": 0,
                                "name": "Executed Gas",
                                "value": 29189
                            }
                        ],
                        "depth": -1,
                        "name": "Actual Gas Used",
                        "value": 52573
                    },
                    {
                        "children": [],
                        "depth": -1,
                        "name": "Refunded Gas",
                        "value": 0
                    }
                ],
                "depth": -2,
                "name": "Total Gas",
                "value": 52573
            }
        ],
        "isConfirmed": true,
        "mainTrace": [
            {
                "children": [
                    {
                        "children": [
                            {
                                "children": [],
                                "depth": 1,
                                "id": 1,
                                "order": 1
                            }
                        ],
                        "depth": 0,
                        "id": 0,
                        "order": 0
                    }
                ],
                "depth": -1,
                "id": -1,
                "order": -1
            }
        ],
        "mainTraceNodeCount": 2,
        "parentIdMap": {
            "0": -1,
            "1": 0
        },
        "tidyTrace": [
            {
                "children": [
                    {
                        "children": [
                            {
                                "children": [],
                                "depth": 1,
                                "id": 1,
                                "order": 1
                            }
                        ],
                        "depth": 0,
                        "id": 0,
                        "order": 0
                    }
                ],
                "depth": -1,
                "id": -1,
                "order": -1
            }
        ],
        "tidyTraceNodeCount": 2
    },
    "state_change": {
        "stateChanges": [
            {
                "address": "0xc86d054809623432210c107af2e3f619dcfbf652",
                "erc": "ERC-20",
                "slots": [
                    {
                        "current": "0x00000000000000000000000000000000000000000006878ba07fb4d888c0f901",
                        "key": "0x6f60c47d451ffebe7c215c3b63325148f95904620a8d4c05864240361935ffb2",
                        "prev": "0x00000000000000000000000000000000000000000006974d34bf419ffa59e101"
                    },
                    {
                        "current": "0x000000000000000000000000000000000000000000000fc1943f8cc77198e800",
                        "key": "0x3fbecd8a7539574af2028dbc87f894431107e16c935b0f0f7e00a49b6023f09a",
                        "prev": "0x0000000000000000000000000000000000000000000000000000000000000000"
                    }
                ],
                "storageVariables": [
                    {
                        "name": "balances",
                        "type": "mapping(address => uint256)",
                        "value": {
                            "pairs": [
                                {
                                    "key": "0x424efc76687a1f0192e51c7f9dbb10ed69c61c01",
                                    "value": {
                                        "current": "74406401260900000000000",
                                        "prev": "0",
                                        "typeTag": 1
                                    }
                                },
                                {
                                    "key": "0xf73c3c65bde10bf26c2e1763104e609a41702efe",
                                    "value": {
                                        "current": "7893650055462632990767361",
                                        "prev": "7968056456723532990767361",
                                        "typeTag": 1
                                    }
                                }
                            ],
                            "typeTag": 4
                        }
                    }
                ]
            }
        ]
    }
}