{
    "balance_change": {
        "balanceChanges": [
            {
                "account": "0x698103f9e5e97fd3f069cad52762363e9fd80a4b",
                "assets": [
                    {
                        "address": "0x21ab6c9fac80c59d401b37cb43f81ea9dde7fe34",
                        "amount": "1,436",
                        "iconUrl": "",
                        "isERC1155": false,
                        "isERC721": false,
                        "sign": false,
                        "value": ""
                    }
                ]
            },
            {
                "account": "0xf1835e1356bef98bc8256c9851e5cd1fe915c47f",
                "assets": [
                    {
                        "address": "0x21ab6c9fac80c59d401b37cb43f81ea9dde7fe34",
                        "amount": "1,436",
                        "iconUrl": "",
                        "isERC1155": false,
                        "isERC721": false,
                        "sign": true,
                        "value": ""
                    }
                ]
            }
        ]
    },
    "profile": {
        "basic_info": {
            "baseFee": "",
            "blockNumber": 8291505,
            "callData": "0xa9059cbb000000000000000000000000f1835e1356bef98bc8256c9851e5cd1fe915c47f000000000000000000000000000000000000000000000000000000216f3a1c00",
            "debugEnable": true,
            "errorInfo": "",
            "eventCount": 1,
            "feeRecipient": "0x005e288d713a5fb3d7c9cf1b43810a98688c7223",
            "formatValue": "0",
            "gasLimit": 55000,
            "gasPrice": "40",
            "gasUsed": 52000,
            "intTxnCount": 0,
            "internalRevert": false,
            "internalRevertMessage": "",
            "isContractCreation": false,
            "isFlashloan": false,
            "maxFee": "",
            "nonce": 127771,
            "overwritedBlockNumber": -1,
            "priorityFee": "",
            "receiver": "0x21ab6c9fac80c59d401b37cb43f81ea9dde7fe34",
            "revertMessage": "",
            "sender": "0x698103f9e5e97fd3f069cad52762363e9fd80a4b",
            "simulationEnable": true,
            "sourceTxnHash": "0x10f1ffb042b47d863474988cc9541599a8ea1ad620c18c25d9f128dad2cd62d4",
            "status": true,
            "timestamp": "2019-08-05T15:42:47Z",
            "transactionFee": "0.00208",
            "txnHash": "0x10f1ffb042b47d863474988cc9541599a8ea1ad620c18c25d9f128dad2cd62d4",
            "txnIndex": 22,
            "type": 0,
            "value": "0"
        },
        "fund_flow": [
            {
                "amount": "1,436",
                "from": "0x698103f9e5e97fd3f069cad52762363e9fd80a4b",
                "id": 1,
                "isERC1155": false,
                "isERC721": false,
                "isReverted": false,
                "order": 1,
                "to": "0xf1835e1356bef98bc8256c9851e5cd1fe915c47f",
                "token": "0x21ab6c9fac80c59d401b37cb43f81ea9dde7fe34"
            }
        ],
        "token_infos": [
            {
                "address": "0x21ab6c9fac80c59d401b37cb43f81ea9dde7fe34",
                "decimals": 8
            },
            {
                "address": "0xc02aaa39b223fe8d0a0e5c4f27ead9083c756cc2",
                "decimals": 18
            },
            {
                "address": "0xeeeeeeeeeeeeeeeeeeeeeeeeeeeeeeeeeeeeeeee",
                "decimals": 18
            }
        ]
    },
    "address_label": {
        "labels": [
            {
                "address": "0x0000000000000000000000000000000000000004",
                "label": "Precompiled"
            },
            {
                "address": "0xeeeeeeeeeeeeeeeeeeeeeeeeeeeeeeeeeeeeeeee",
                "label": "Ether"
            },
            {
                "address": "0x21ab6c9fac80c59d401b37cb43f81ea9dde7fe34",
                "label": "Baer Chain: BRC Token"
            },
            {
                "address": "0x0000000000000000000000000000000000000001",
                "label": "Precompiled"
            },
            {
                "address": "0x0000000000000000000000000000000000000002",
                "label": "Precompiled"
            },
            {
                "address": "0x0000000000000000000000000000000000000003",
                "label": "Precompiled"
            }
        ]
    },
    "trace": {
        "accountLabels": null,
        "dataMap": {
            "-1": {
                "invocation": {
                    "address": "0x698103f9e5e97fd3f069cad52762363e9fd80a4b",
                    "callData": "",
                    "decodedMethod": null,
                    "errorInfo": "",
                    "fromAddress": "",
                    "gasUsed": 0,
                    "id": -1,
                    "methodDecoded": false,
                    "operation": "",
                    "output": "",
                    "revert": false,
                    "revertMessage": "",
                    "selector": "",
                    "status": false,
                    "value": ""
                },
                "nodeType": 0
            },
            "0": {
                "invocation": {
                    "address": "0x21ab6c9fac80c59d401b37cb43f81ea9dde7fe34",
                    "callData": "0x000000000000000000000000f1835e1356bef98bc8256c9851e5cd1fe915c47f000000000000000000000000000000000000000000000000000000216f3a1c00",
                    "decodedMethod": {
                        "callParams": [
                            {
                                "name": "_to",
                                "type": "address",
                                "value": "0xf1835e1356bef98bc8256c9851e5cd1fe915c47f"
                            },
                            {
                                "decimalAvailable": true,
                                "name": "_amount",
                                "type": "uint256",
                                "value": "143,600,000,000"
                            }
                        ],
                        "constructorArguments": "",
                        "name": "transfer",
                        "returnParams": [
                            {
                                "name": "success",
                                "type": "bool",
                                "value": true
                            }
                        ],
                        "signature": "transfer(address,uint256)"
                    },
                    "errorInfo": "",
                    "fromAddress": "0x698103f9e5e97fd3f069cad52762363e9fd80a4b",
                    "gasUsed": 52000,
                    "id": 0,
                    "methodDecoded": true,
                    "operation": "CALL",
                    "output": "0x0000000000000000000000000000000000000000000000000000000000000001",
                    "revert": false,
                    "revertMessage": "",
                    "selector": "0xa9059cbb",
                    "status": true,
                    "value": "0"
                },
                "nodeType": 0
            },
            "1": {
                "event": {
                    "contract": "0x21ab6c9fac80c59d401b37cb43f81ea9dde7fe34",
                    "decodedLog": {
                        "name": "Transfer",
                        "params": [
                            {
                                "name": "_from",
                                "type": "address",
                                "value": "0x698103f9e5e97fd3f069cad52762363e9fd80a4b"
                            },
                            {
                                "name": "_to",
                                "type": "address",
                                "value": "0xf1835e1356bef98bc8256c9851e5cd1fe915c47f"
                            },
                            {
                                "decimalAvailable": true,
                                "name": "_value",
                                "type": "uint256",
                                "value": "143,600,000,000"
                            }
                        ],
                        "signature": "Transfer(address,address,uint256)"
                    },
                    "id": 1,
                    "logData": "0x000000000000000000000000000000000000000000000000000000216f3a1c00",
                    "logDecoded": true,
                    "operation": "EVENT",
                    "revert": false,
                    "status": true,
                    "topics": [
                        "0xddf252ad1be2c89b69c2b068fc378daa952ba7f163c4a11628f55a4df523b3ef",
                        "0x000000000000000000000000698103f9e5e97fd3f069cad52762363e9fd80a4b",
                        "0x000000000000000000000000f1835e1356bef98bc8256c9851e5cd1fe915c47f"
                    ]
                },
                "nodeType": 1
            }
        },
        "gasFlame": [
            {
                "children": [
                    {
                        "children": [
                            {
                                "children": [],
                                "depth": 0,
                                "name": "Initial Gas",
                                "value": 23064
                            },
                            {
                                "children": [],
                                "depth": 0,
                                "name": "Executed Gas",
                                "value": 28936
                            }
                        ],
                        "depth": -1,
                        "name": "Actual Gas Used",
                        "value": 52000
                    },
                    {
                        "children": [],
                        "depth": -1,
                        "name": "Refunded Gas",
                        "value": 0
                    }
                ],
                "depth": -2,
                "name": "Total Gas",
                "value": 52000
            }
        ],
        "isConfirmed": true,
        "mainTrace": [
            {
                "children": [
                    {
                        "children": [
                            {
                                "children": [],
                                "depth": 1,
                                "id": 1,
                                "order": 1
                            }
                        ],
                        "depth": 0,
                        "id": 0,
                        "order": 0
                    }
                ],
                "depth": -1,
                "id": -1,
                "order": -1
            }
        ],
        "mainTraceNodeCount": 2,
        "parentIdMap": {
            "0": -1,
            "1": 0
        },
        "tidyTrace": [
            {
                "children": [
                    {
                        "children": [
                            {
                                "children": [],
                                "depth": 1,
                                "id": 1,
                                "order": 1
                            }
                        ],
                        "depth": 0,
                        "id": 0,
                        "order": 0
                    }
                ],
                "depth": -1,
                "id": -1,
                "order": -1
            }
        ],
        "tidyTraceNodeCount": 2
    },
    "state_change": {
        "stateChanges": [
            {
                "address": "0x21ab6c9fac80c59d401b37cb43f81ea9dde7fe34",
                "erc": "ERC-20",
                "slots": [
                    {
                        "current": "0x00000000000000000000000000000000000000000000000000001c3369aa549f",
                        "key": "0xdb7f912f4d8d1c5a4d3849cdfa46b8e470fd13a1cff9a2a2e97ddd96182ff519",
                        "prev": "0x00000000000000000000000000000000000000000000000000001c54d8e4709f"
                    },
                    {
                        "current": "0x000000000000000000000000000000000000000000000000000000216f3a1c00",
                        "key": "0x6ba62645fe643551bd27d8e2dc373a7bb5bc7bbe12b3505b9a181ae5a5dde08d",
                        "prev": "0x0000000000000000000000000000000000000000000000000000000000000000"
                    }
                ],
                "storageVariables": [
                    {
                        "name": "balances",
                        "type": "mapping(address => uint256)",
                        "value": {
                            "pairs": [
                                {
                                    "key": "0x698103f9e5e97fd3f069cad52762363e9fd80a4b",
                                    "value": {
                                        "current": "31007141680287",
                                        "prev": "31150741680287",
                                        "typeTag": 1
                                    }
                                },
                                {
                                    "key": "0xf1835e1356bef98bc8256c9851e5cd1fe915c47f",
                                    "value": {
                                        "current": "143600000000",
                                        "prev": "0",
                                        "typeTag": 1
                                    }
                                }
                            ],
                            "typeTag": 4
                        }
                    }
                ]
            }
        ]
    }
}