{
    "balance_change": {
        "balanceChanges": []
    },
    "profile": {
        "basic_info": {
            "baseFee": "",
            "blockNumber": 2345273,
            "callData": "0xa17ca4f30000000000000000000000008484fbd01bca83659b3b48f6ebed2b893e20f58400000000000000000000000000000000000000000000000000000000000000a000000000000000000000000000000000000000000000000000000000000000e00000000000000000000000000000000000000000000000000000000000000000000000000000000000000000000000000000000000000000000000000000000100000000000000000000000000000000000000000000000000000000000000073138323531393500000000000000000000000000000000000000000000000000000000000000000000000000000000000000000000000000000000000000000a6861707079776f6d616e00000000000000000000000000000000000000000000",
            "debugEnable": true,
            "errorInfo": "",
            "eventCount": 0,
            "feeRecipient": "0xea674fdde714fd979de3edf0f56aa9716b898ec8",
            "formatValue": "0",
            "gasLimit": 700000,
            "gasPrice": "32",
            "gasUsed": 422118,
            "intTxnCount": 31,
            "internalRevert": false,
            "internalRevertMessage": "",
            "isContractCreation": false,
            "isFlashloan": false,
            "maxFee": "",
            "nonce": 2302,
            "overwritedBlockNumber": -1,
            "priorityFee": "",
            "receiver": "0x80aa81029df9afdc70a621c86d7a81d7e9ed7e3a",
            "revertMessage": "",
            "sender": "0x7dc3dfc70a253c0293f06582a5c78d10428befd2",
            "simulationEnable": true,
            "sourceTxnHash": "0x101c27af77e4197069fd2a438e8ce72f5f8e312c3a966002d887ccafb00b5fe5",
            "status": true,
            "timestamp": "2016-09-29T00:08:42Z",
            "transactionFee": "0.013507776",
            "txnHash": "0x101c27af77e4197069fd2a438e8ce72f5f8e312c3a966002d887ccafb00b5fe5",
            "txnIndex": 0,
            "type": 0,
            "value": "0"
        },
        "fund_flow": [],
        "token_infos": [
            {
                "address": "0xc02aaa39b223fe8d0a0e5c4f27ead9083c756cc2",
                "decimals": 18
            },
            {
                "address": "0xeeeeeeeeeeeeeeeeeeeeeeeeeeeeeeeeeeeeeeee",
                "decimals": 18
            }
        ]
    },
    "address_label": {
        "labels": [
            {
                "address": "0x0000000000000000000000000000000000000004",
                "label": "Precompiled"
            },
            {
                "address": "0x0000000000000000000000000000000000000001",
                "label": "Precompiled"
            },
            {
                "address": "0x0000000000000000000000000000000000000002",
                "label": "Precompiled"
            },
            {
                "address": "0x0000000000000000000000000000000000000003",
                "label": "Precompiled"
            },
            {
                "address": "0xeeeeeeeeeeeeeeeeeeeeeeeeeeeeeeeeeeeeeeee",
                "label": "Ether"
            }
        ]
    },
    "trace": {
        "accountLabels": null,
        "dataMap": {
            "-1": {
                "invocation": {
                    "address": "0x7dc3dfc70a253c0293f06582a5c78d10428befd2",
                    "callData": "",
                    "decodedMethod": null,
                    "errorInfo": "",
                    "fromAddress": "",
                    "gasUsed": 0,
                    "id": -1,
                    "methodDecoded": false,
                    "operation": "",
                    "output": "",
                    "revert": false,
                    "revertMessage": "",
                    "selector": "",
                    "status": false,
                    "value": ""
                },
                "nodeType": 0
            },
            "0": {
                "invocation": {
                    "address": "0x80aa81029df9afdc70a621c86d7a81d7e9ed7e3a",
                    "callData": "0x0000000000000000000000008484fbd01bca83659b3b48f6ebed2b893e20f58400000000000000000000000000000000000000000000000000000000000000a000000000000000000000000000000000000000000000000000000000000000e00000000000000000000000000000000000000000000000000000000000000000000000000000000000000000000000000000000000000000000000000000000100000000000000000000000000000000000000000000000000000000000000073138323531393500000000000000000000000000000000000000000000000000000000000000000000000000000000000000000000000000000000000000000a6861707079776f6d616e00000000000000000000000000000000000000000000",
                    "decodedMethod": null,
                    "errorInfo": "",
                    "fromAddress": "0x7dc3dfc70a253c0293f06582a5c78d10428befd2",
                    "gasUsed": 422118,
                    "id": 0,
                    "methodDecoded": false,
                    "operation": "CALL",
                    "output": "",
                    "revert": false,
                    "revertMessage": "",
                    "selector": "0xa17ca4f3",
                    "status": true,
                    "value": "0"
                },
                "nodeType": 0
            },
            "1": {
                "invocation": {
                    "address": "0x0000000000000000000000000000000000000004",
                    "callData": "0x313935",
                    "decodedMethod": {
                        "callParams": [
                            {
                                "name": "data",
                                "type": "bytes",
                                "value": "0x31383235313935"
                            }
                        ],
                        "constructorArguments": "",
                        "name": "dataCopy()",
                        "returnParams": [
                            {
                                "name": "data",
                                "type": "bytes",
                                "value": "0x31383235313935"
                            }
                        ],
                        "signature": "dataCopy(bytes)"
                    },
                    "errorInfo": "",
                    "fromAddress": "0x80aa81029df9afdc70a621c86d7a81d7e9ed7e3a",
                    "gasUsed": 18,
                    "id": 1,
                    "methodDecoded": true,
                    "operation": "CALL",
                    "output": "0x31383235313935",
                    "revert": false,
                    "revertMessage": "",
                    "selector": "0x31383235",
                    "status": true,
                    "value": "0"
                },
                "nodeType": 0
            },
            "10": {
                "invocation": {
                    "address": "0x0000000000000000000000000000000000000004",
                    "callData": "0x79776f6d616e",
                    "decodedMethod": {
                        "callParams": [
                            {
                                "name": "data",
                                "type": "bytes",
                                "value": "0x6861707079776f6d616e"
                            }
                        ],
                        "constructorArguments": "",
                        "name": "dataCopy()",
                        "returnParams": [
                            {
                                "name": "data",
                                "type": "bytes",
                                "value": "0x6861707079776f6d616e"
                            }
                        ],
                        "signature": "dataCopy(bytes)"
                    },
                    "errorInfo": "",
                    "fromAddress": "0x7c2e9b93d19a0d0d55a5515aec5b1422454eb2da",
                    "gasUsed": 18,
                    "id": 10,
                    "methodDecoded": true,
                    "operation": "CALL",
                    "output": "0x6861707079776f6d616e",
                    "revert": false,
                    "revertMessage": "",
                    "selector": "0x68617070",
                    "status": true,
                    "value": "0"
                },
                "nodeType": 0
            },
            "11": {
                "invocation": {
                    "address": "0x0000000000000000000000000000000000000004",
                    "callData": "0x79776f6d616e",
                    "decodedMethod": {
                        "callParams": [
                            {
                                "name": "data",
                                "type": "bytes",
                                "value": "0x6861707079776f6d616e"
                            }
                        ],
                        "constructorArguments": "",
                        "name": "dataCopy()",
                        "returnParams": [
                            {
                                "name": "data",
                                "type": "bytes",
                                "value": "0x6861707079776f6d616e"
                            }
                        ],
                        "signature": "dataCopy(bytes)"
                    },
                    "errorInfo": "",
                    "fromAddress": "0x7c2e9b93d19a0d0d55a5515aec5b1422454eb2da",
                    "gasUsed": 18,
                    "id": 11,
                    "methodDecoded": true,
                    "operation": "CALL",
                    "output": "0x6861707079776f6d616e",
                    "revert": false,
                    "revertMessage": "",
                    "selector": "0x68617070",
                    "status": true,
                    "value": "0"
                },
                "nodeType": 0
            },
            "12": {
                "invocation": {
                    "address": "0x0000000000000000000000000000000000000004",
                    "callData": "0x79776f6d616e",
                    "decodedMethod": {
                        "callParams": [
                            {
                                "name": "data",
                                "type": "bytes",
                                "value": "0x6861707079776f6d616e"
                            }
                        ],
                        "constructorArguments": "",
                        "name": "dataCopy()",
                        "returnParams": [
                            {
                                "name": "data",
                                "type": "bytes",
                                "value": "0x6861707079776f6d616e"
                            }
                        ],
                        "signature": "dataCopy(bytes)"
                    },
                    "errorInfo": "",
                    "fromAddress": "0x7c2e9b93d19a0d0d55a5515aec5b1422454eb2da",
                    "gasUsed": 18,
                    "id": 12,
                    "methodDecoded": true,
                    "operation": "CALL",
                    "output": "0x6861707079776f6d616e",
                    "revert": false,
                    "revertMessage": "",
                    "selector": "0x68617070",
                    "status": true,
                    "value": "0"
                },
                "nodeType": 0
            },
            "13": {
                "invocation": {
                    "address": "0x0000000000000000000000000000000000000004",
                    "callData": "0x79776f6d616e",
                    "decodedMethod": {
                        "callParams": [
                            {
                                "name": "data",
                                "type": "bytes",
                                "value": "0x6861707079776f6d616e"
                            }
                        ],
                        "constructorArguments": "",
                        "name": "dataCopy()",
                        "returnParams": [
                            {
                                "name": "data",
                                "type": "bytes",
                                "value": "0x6861707079776f6d616e"
                            }
                        ],
                        "signature": "dataCopy(bytes)"
                    },
                    "errorInfo": "",
                    "fromAddress": "0x7c2e9b93d19a0d0d55a5515aec5b1422454eb2da",
                    "gasUsed": 18,
                    "id": 13,
                    "methodDecoded": true,
                    "operation": "CALL",
                    "output": "0x6861707079776f6d616e",
                    "revert": false,
                    "revertMessage": "",
                    "selector": "0x68617070",
                    "status": true,
                    "value": "0"
                },
                "nodeType": 0
            },
            "14": {
                "invocation": {
                    "address": "0x0000000000000000000000000000000000000004",
                    "callData": "0x79776f6d616e",
                    "decodedMethod": {
                        "callParams": [
                            {
                                "name": "data",
                                "type": "bytes",
                                "value": "0x6861707079776f6d616e"
                            }
                        ],
                        "constructorArguments": "",
                        "name": "dataCopy()",
                        "returnParams": [
                            {
                                "name": "data",
                                "type": "bytes",
                                "value": "0x6861707079776f6d616e"
                            }
                        ],
                        "signature": "dataCopy(bytes)"
                    },
                    "errorInfo": "",
                    "fromAddress": "0x7c2e9b93d19a0d0d55a5515aec5b1422454eb2da",
                    "gasUsed": 18,
                    "id": 14,
                    "methodDecoded": true,
                    "operation": "CALL",
                    "output": "0x6861707079776f6d616e",
                    "revert": false,
                    "revertMessage": "",
                    "selector": "0x68617070",
                    "status": true,
                    "value": "0"
                },
                "nodeType": 0
            },
            "15": {
                "invocation": {
                    "address": "0x0000000000000000000000000000000000000004",
                    "callData": "0x79776f6d616e",
                    "decodedMethod": {
                        "callParams": [
                            {
                                "name": "data",
                                "type": "bytes",
                                "value": "0x6861707079776f6d616e"
                            }
                        ],
                        "constructorArguments": "",
                        "name": "dataCopy()",
                        "returnParams": [
                            {
                                "name": "data",
                                "type": "bytes",
                                "value": "0x6861707079776f6d616e"
                            }
                        ],
                        "signature": "dataCopy(bytes)"
                    },
                    "errorInfo": "",
                    "fromAddress": "0x7c2e9b93d19a0d0d55a5515aec5b1422454eb2da",
                    "gasUsed": 18,
                    "id": 15,
                    "methodDecoded": true,
                    "operation": "CALL",
                    "output": "0x6861707079776f6d616e",
                    "revert": false,
                    "revertMessage": "",
                    "selector": "0x68617070",
                    "status": true,
                    "value": "0"
                },
                "nodeType": 0
            },
            "16": {
                "invocation": {
                    "address": "0x0000000000000000000000000000000000000004",
                    "callData": "0x79776f6d616e",
                    "decodedMethod": {
                        "callParams": [
                            {
                                "name": "data",
                                "type": "bytes",
                                "value": "0x6861707079776f6d616e"
                            }
                        ],
                        "constructorArguments": "",
                        "name": "dataCopy()",
                        "returnParams": [
                            {
                                "name": "data",
                                "type": "bytes",
                                "value": "0x6861707079776f6d616e"
                            }
                        ],
                        "signature": "dataCopy(bytes)"
                    },
                    "errorInfo": "",
                    "fromAddress": "0x7c2e9b93d19a0d0d55a5515aec5b1422454eb2da",
                    "gasUsed": 18,
                    "id": 16,
                    "methodDecoded": true,
                    "operation": "CALL",
                    "output": "0x6861707079776f6d616e",
                    "revert": false,
                    "revertMessage": "",
                    "selector": "0x68617070",
                    "status": true,
                    "value": "0"
                },
                "nodeType": 0
            },
            "17": {
                "invocation": {
                    "address": "0x0000000000000000000000000000000000000004",
                    "callData": "0x79776f6d616e",
                    "decodedMethod": {
                        "callParams": [
                            {
                                "name": "data",
                                "type": "bytes",
                                "value": "0x6861707079776f6d616e"
                            }
                        ],
                        "constructorArguments": "",
                        "name": "dataCopy()",
                        "returnParams": [
                            {
                                "name": "data",
                                "type": "bytes",
                                "value": "0x6861707079776f6d616e"
                            }
                        ],
                        "signature": "dataCopy(bytes)"
                    },
                    "errorInfo": "",
                    "fromAddress": "0x7c2e9b93d19a0d0d55a5515aec5b1422454eb2da",
                    "gasUsed": 18,
                    "id": 17,
                    "methodDecoded": true,
                    "operation": "CALL",
                    "output": "0x6861707079776f6d616e",
                    "revert": false,
                    "revertMessage": "",
                    "selector": "0x68617070",
                    "status": true,
                    "value": "0"
                },
                "nodeType": 0
            },
            "18": {
                "invocation": {
                    "address": "0x0000000000000000000000000000000000000004",
                    "callData": "0x79776f6d616e",
                    "decodedMethod": {
                        "callParams": [
                            {
                                "name": "data",
                                "type": "bytes",
                                "value": "0x6861707079776f6d616e"
                            }
                        ],
                        "constructorArguments": "",
                        "name": "dataCopy()",
                        "returnParams": [
                            {
                                "name": "data",
                                "type": "bytes",
                                "value": "0x6861707079776f6d616e"
                            }
                        ],
                        "signature": "dataCopy(bytes)"
                    },
                    "errorInfo": "",
                    "fromAddress": "0x7c2e9b93d19a0d0d55a5515aec5b1422454eb2da",
                    "gasUsed": 18,
                    "id": 18,
                    "methodDecoded": true,
                    "operation": "CALL",
                    "output": "0x6861707079776f6d616e",
                    "revert": false,
                    "revertMessage": "",
                    "selector": "0x68617070",
                    "status": true,
                    "value": "0"
                },
                "nodeType": 0
            },
            "19": {
                "invocation": {
                    "address": "0x0000000000000000000000000000000000000004",
                    "callData": "0x79776f6d616e",
                    "decodedMethod": {
                        "callParams": [
                            {
                                "name": "data",
                                "type": "bytes",
                                "value": "0x6861707079776f6d616e"
                            }
                        ],
                        "constructorArguments": "",
                        "name": "dataCopy()",
                        "returnParams": [
                            {
                                "name": "data",
                                "type": "bytes",
                                "value": "0x6861707079776f6d616e"
                            }
                        ],
                        "signature": "dataCopy(bytes)"
                    },
                    "errorInfo": "",
                    "fromAddress": "0x7c2e9b93d19a0d0d55a5515aec5b1422454eb2da",
                    "gasUsed": 18,
                    "id": 19,
                    "methodDecoded": true,
                    "operation": "CALL",
                    "output": "0x6861707079776f6d616e",
                    "revert": false,
                    "revertMessage": "",
                    "selector": "0x68617070",
                    "status": true,
                    "value": "0"
                },
                "nodeType": 0
            },
            "2": {
                "invocation": {
                    "address": "0x0000000000000000000000000000000000000004",
                    "callData": "0x79776f6d616e",
                    "decodedMethod": {
                        "callParams": [
                            {
                                "name": "data",
                                "type": "bytes",
                                "value": "0x6861707079776f6d616e"
                            }
                        ],
                        "constructorArguments": "",
                        "name": "dataCopy()",
                        "returnParams": [
                            {
                                "name": "data",
                                "type": "bytes",
                                "value": "0x6861707079776f6d616e"
                            }
                        ],
                        "signature": "dataCopy(bytes)"
                    },
                    "errorInfo": "",
                    "fromAddress": "0x80aa81029df9afdc70a621c86d7a81d7e9ed7e3a",
                    "gasUsed": 18,
                    "id": 2,
                    "methodDecoded": true,
                    "operation": "CALL",
                    "output": "0x6861707079776f6d616e",
                    "revert": false,
                    "revertMessage": "",
                    "selector": "0x68617070",
                    "status": true,
                    "value": "0"
                },
                "nodeType": 0
            },
            "20": {
                "invocation": {
                    "address": "0x0000000000000000000000000000000000000004",
                    "callData": "0x79776f6d616e",
                    "decodedMethod": {
                        "callParams": [
                            {
                                "name": "data",
                                "type": "bytes",
                                "value": "0x6861707079776f6d616e"
                            }
                        ],
                        "constructorArguments": "",
                        "name": "dataCopy()",
                        "returnParams": [
                            {
                                "name": "data",
                                "type": "bytes",
                                "value": "0x6861707079776f6d616e"
                            }
                        ],
                        "signature": "dataCopy(bytes)"
                    },
                    "errorInfo": "",
                    "fromAddress": "0x7c2e9b93d19a0d0d55a5515aec5b1422454eb2da",
                    "gasUsed": 18,
                    "id": 20,
                    "methodDecoded": true,
                    "operation": "CALL",
                    "output": "0x6861707079776f6d616e",
                    "revert": false,
                    "revertMessage": "",
                    "selector": "0x68617070",
                    "status": true,
                    "value": "0"
                },
                "nodeType": 0
            },
            "21": {
                "invocation": {
                    "address": "0x0000000000000000000000000000000000000004",
                    "callData": "0x79776f6d616e",
                    "decodedMethod": {
                        "callParams": [
                            {
                                "name": "data",
                                "type": "bytes",
                                "value": "0x6861707079776f6d616e"
                            }
                        ],
                        "constructorArguments": "",
                        "name": "dataCopy()",
                        "returnParams": [
                            {
                                "name": "data",
                                "type": "bytes",
                                "value": "0x6861707079776f6d616e"
                            }
                        ],
                        "signature": "dataCopy(bytes)"
                    },
                    "errorInfo": "",
                    "fromAddress": "0x7c2e9b93d19a0d0d55a5515aec5b1422454eb2da",
                    "gasUsed": 18,
                    "id": 21,
                    "methodDecoded": true,
                    "operation": "CALL",
                    "output": "0x6861707079776f6d616e",
                    "revert": false,
                    "revertMessage": "",
                    "selector": "0x68617070",
                    "status": true,
                    "value": "0"
                },
                "nodeType": 0
            },
            "22": {
                "invocation": {
                    "address": "0x0000000000000000000000000000000000000004",
                    "callData": "0x79776f6d616e",
                    "decodedMethod": {
                        "callParams": [
                            {
                                "name": "data",
                                "type": "bytes",
                                "value": "0x6861707079776f6d616e"
                            }
                        ],
                        "constructorArguments": "",
                        "name": "dataCopy()",
                        "returnParams": [
                            {
                                "name": "data",
                                "type": "bytes",
                                "value": "0x6861707079776f6d616e"
                            }
                        ],
                        "signature": "dataCopy(bytes)"
                    },
                    "errorInfo": "",
                    "fromAddress": "0x7c2e9b93d19a0d0d55a5515aec5b1422454eb2da",
                    "gasUsed": 18,
                    "id": 22,
                    "methodDecoded": true,
                    "operation": "CALL",
                    "output": "0x6861707079776f6d616e",
                    "revert": false,
                    "revertMessage": "",
                    "selector": "0x68617070",
                    "status": true,
                    "value": "0"
                },
                "nodeType": 0
            },
            "23": {
                "invocation": {
                    "address": "0x0000000000000000000000000000000000000004",
                    "callData": "0x79776f6d616e",
                    "decodedMethod": {
                        "callParams": [
                            {
                                "name": "data",
                                "type": "bytes",
                                "value": "0x6861707079776f6d616e"
                            }
                        ],
                        "constructorArguments": "",
                        "name": "dataCopy()",
                        "returnParams": [
                            {
                                "name": "data",
                                "type": "bytes",
                                "value": "0x6861707079776f6d616e"
                            }
                        ],
                        "signature": "dataCopy(bytes)"
                    },
                    "errorInfo": "",
                    "fromAddress": "0x7c2e9b93d19a0d0d55a5515aec5b1422454eb2da",
                    "gasUsed": 18,
                    "id": 23,
                    "methodDecoded": true,
                    "operation": "CALL",
                    "output": "0x6861707079776f6d616e",
                    "revert": false,
                    "revertMessage": "",
                    "selector": "0x68617070",
                    "status": true,
                    "value": "0"
                },
                "nodeType": 0
            },
            "24": {
                "invocation": {
                    "address": "0x0000000000000000000000000000000000000004",
                    "callData": "0x79776f6d616e",
                    "decodedMethod": {
                        "callParams": [
                            {
                                "name": "data",
                                "type": "bytes",
                                "value": "0x6861707079776f6d616e"
                            }
                        ],
                        "constructorArguments": "",
                        "name": "dataCopy()",
                        "returnParams": [
                            {
                                "name": "data",
                                "type": "bytes",
                                "value": "0x6861707079776f6d616e"
                            }
                        ],
                        "signature": "dataCopy(bytes)"
                    },
                    "errorInfo": "",
                    "fromAddress": "0x7c2e9b93d19a0d0d55a5515aec5b1422454eb2da",
                    "gasUsed": 18,
                    "id": 24,
                    "methodDecoded": true,
                    "operation": "CALL",
                    "output": "0x6861707079776f6d616e",
                    "revert": false,
                    "revertMessage": "",
                    "selector": "0x68617070",
                    "status": true,
                    "value": "0"
                },
                "nodeType": 0
            },
            "25": {
                "invocation": {
                    "address": "0x0000000000000000000000000000000000000004",
                    "callData": "0x79776f6d616e",
                    "decodedMethod": {
                        "callParams": [
                            {
                                "name": "data",
                                "type": "bytes",
                                "value": "0x6861707079776f6d616e"
                            }
                        ],
                        "constructorArguments": "",
                        "name": "dataCopy()",
                        "returnParams": [
                            {
                                "name": "data",
                                "type": "bytes",
                                "value": "0x6861707079776f6d616e"
                            }
                        ],
                        "signature": "dataCopy(bytes)"
                    },
                    "errorInfo": "",
                    "fromAddress": "0x7c2e9b93d19a0d0d55a5515aec5b1422454eb2da",
                    "gasUsed": 18,
                    "id": 25,
                    "methodDecoded": true,
                    "operation": "CALL",
                    "output": "0x6861707079776f6d616e",
                    "revert": false,
                    "revertMessage": "",
                    "selector": "0x68617070",
                    "status": true,
                    "value": "0"
                },
                "nodeType": 0
            },
            "26": {
                "invocation": {
                    "address": "0x0000000000000000000000000000000000000004",
                    "callData": "0x79776f6d616e",
                    "decodedMethod": {
                        "callParams": [
                            {
                                "name": "data",
                                "type": "bytes",
                                "value": "0x6861707079776f6d616e"
                            }
                        ],
                        "constructorArguments": "",
                        "name": "dataCopy()",
                        "returnParams": [
                            {
                                "name": "data",
                                "type": "bytes",
                                "value": "0x6861707079776f6d616e"
                            }
                        ],
                        "signature": "dataCopy(bytes)"
                    },
                    "errorInfo": "",
                    "fromAddress": "0x7c2e9b93d19a0d0d55a5515aec5b1422454eb2da",
                    "gasUsed": 18,
                    "id": 26,
                    "methodDecoded": true,
                    "operation": "CALL",
                    "output": "0x6861707079776f6d616e",
                    "revert": false,
                    "revertMessage": "",
                    "selector": "0x68617070",
                    "status": true,
                    "value": "0"
                },
                "nodeType": 0
            },
            "27": {
                "invocation": {
                    "address": "0x0000000000000000000000000000000000000004",
                    "callData": "0x79776f6d616e",
                    "decodedMethod": {
                        "callParams": [
                            {
                                "name": "data",
                                "type": "bytes",
                                "value": "0x6861707079776f6d616e"
                            }
                        ],
                        "constructorArguments": "",
                        "name": "dataCopy()",
                        "returnParams": [
                            {
                                "name": "data",
                                "type": "bytes",
                                "value": "0x6861707079776f6d616e"
                            }
                        ],
                        "signature": "dataCopy(bytes)"
                    },
                    "errorInfo": "",
                    "fromAddress": "0x7c2e9b93d19a0d0d55a5515aec5b1422454eb2da",
                    "gasUsed": 18,
                    "id": 27,
                    "methodDecoded": true,
                    "operation": "CALL",
                    "output": "0x6861707079776f6d616e",
                    "revert": false,
                    "revertMessage": "",
                    "selector": "0x68617070",
                    "status": true,
                    "value": "0"
                },
                "nodeType": 0
            },
            "28": {
                "invocation": {
                    "address": "0x0000000000000000000000000000000000000004",
                    "callData": "0x79776f6d616e",
                    "decodedMethod": {
                        "callParams": [
                            {
                                "name": "data",
                                "type": "bytes",
                                "value": "0x6861707079776f6d616e"
                            }
                        ],
                        "constructorArguments": "",
                        "name": "dataCopy()",
                        "returnParams": [
                            {
                                "name": "data",
                                "type": "bytes",
                                "value": "0x6861707079776f6d616e"
                            }
                        ],
                        "signature": "dataCopy(bytes)"
                    },
                    "errorInfo": "",
                    "fromAddress": "0x7c2e9b93d19a0d0d55a5515aec5b1422454eb2da",
                    "gasUsed": 18,
                    "id": 28,
                    "methodDecoded": true,
                    "operation": "CALL",
                    "output": "0x6861707079776f6d616e",
                    "revert": false,
                    "revertMessage": "",
                    "selector": "0x68617070",
                    "status": true,
                    "value": "0"
                },
                "nodeType": 0
            },
            "29": {
                "invocation": {
                    "address": "0x0000000000000000000000000000000000000004",
                    "callData": "0x79776f6d616e",
                    "decodedMethod": {
                        "callParams": [
                            {
                                "name": "data",
                                "type": "bytes",
                                "value": "0x6861707079776f6d616e"
                            }
                        ],
                        "constructorArguments": "",
                        "name": "dataCopy()",
                        "returnParams": [
                            {
                                "name": "data",
                                "type": "bytes",
                                "value": "0x6861707079776f6d616e"
                            }
                        ],
                        "signature": "dataCopy(bytes)"
                    },
                    "errorInfo": "",
                    "fromAddress": "0x7c2e9b93d19a0d0d55a5515aec5b1422454eb2da",
                    "gasUsed": 18,
                    "id": 29,
                    "methodDecoded": true,
                    "operation": "CALL",
                    "output": "0x6861707079776f6d616e",
                    "revert": false,
                    "revertMessage": "",
                    "selector": "0x68617070",
                    "status": true,
                    "value": "0"
                },
                "nodeType": 0
            },
            "3": {
                "invocation": {
                    "address": "0x7c2e9b93d19a0d0d55a5515aec5b1422454eb2da",
                    "callData": "0x0000000000000000000000008484fbd01bca83659b3b48f6ebed2b893e20f584000000000000000000000000000000000000000000000000000000000000008000000000000000000000000000000000000000000000000000000000000000c0000000000000000000000000000000000000000000000000000000000000000100000000000000000000000000000000000000000000000000000000000000073138323531393500000000000000000000000000000000000000000000000000000000000000000000000000000000000000000000000000000000000000000a6861707079776f6d616e00000000000000000000000000000000000000000000",
                    "decodedMethod": null,
                    "errorInfo": "",
                    "fromAddress": "0x80aa81029df9afdc70a621c86d7a81d7e9ed7e3a",
                    "gasUsed": 347892,
                    "id": 3,
                    "methodDecoded": false,
                    "operation": "CALL",
                    "output": "",
                    "revert": false,
                    "revertMessage": "",
                    "selector": "0x48a1eadc",
                    "status": true,
                    "value": "0"
                },
                "nodeType": 0
            },
            "30": {
                "invocation": {
                    "address": "0x7c2e9b93d19a0d0d55a5515aec5b1422454eb2da",
                    "callData": "0x0000000000000000000000008484fbd01bca83659b3b48f6ebed2b893e20f5840000000000000000000000000000000000000000000000000000000000000000",
                    "decodedMethod": null,
                    "errorInfo": "",
                    "fromAddress": "0x80aa81029df9afdc70a621c86d7a81d7e9ed7e3a",
                    "gasUsed": 15903,
                    "id": 30,
                    "methodDecoded": false,
                    "operation": "CALL",
                    "output": "",
                    "revert": false,
                    "revertMessage": "",
                    "selector": "0xcd268063",
                    "status": true,
                    "value": "0"
                },
                "nodeType": 0
            },
            "31": {
                "invocation": {
                    "address": "0x7c2e9b93d19a0d0d55a5515aec5b1422454eb2da",
                    "callData": "0x0000000000000000000000008484fbd01bca83659b3b48f6ebed2b893e20f5840000000000000000000000000000000000000000000000000000000000000001",
                    "decodedMethod": null,
                    "errorInfo": "",
                    "fromAddress": "0x80aa81029df9afdc70a621c86d7a81d7e9ed7e3a",
                    "gasUsed": 30714,
                    "id": 31,
                    "methodDecoded": false,
                    "operation": "CALL",
                    "output": "",
                    "revert": false,
                    "revertMessage": "",
                    "selector": "0x3544c28b",
                    "status": true,
                    "value": "0"
                },
                "nodeType": 0
            },
            "4": {
                "invocation": {
                    "address": "0x0000000000000000000000000000000000000004",
                    "callData": "0x79776f6d616e",
                    "decodedMethod": {
                        "callParams": [
                            {
                                "name": "data",
                                "type": "bytes",
                                "value": "0x6861707079776f6d616e"
                            }
                        ],
                        "constructorArguments": "",
                        "name": "dataCopy()",
                        "returnParams": [
                            {
                                "name": "data",
                                "type": "bytes",
                                "value": "0x6861707079776f6d616e"
                            }
                        ],
                        "signature": "dataCopy(bytes)"
                    },
                    "errorInfo": "",
                    "fromAddress": "0x7c2e9b93d19a0d0d55a5515aec5b1422454eb2da",
                    "gasUsed": 18,
                    "id": 4,
                    "methodDecoded": true,
                    "operation": "CALL",
                    "output": "0x6861707079776f6d616e",
                    "revert": false,
                    "revertMessage": "",
                    "selector": "0x68617070",
                    "status": true,
                    "value": "0"
                },
                "nodeType": 0
            },
            "5": {
                "invocation": {
                    "address": "0x0000000000000000000000000000000000000004",
                    "callData": "0x313935",
                    "decodedMethod": {
                        "callParams": [
                            {
                                "name": "data",
                                "type": "bytes",
                                "value": "0x31383235313935"
                            }
                        ],
                        "constructorArguments": "",
                        "name": "dataCopy()",
                        "returnParams": [
                            {
                                "name": "data",
                                "type": "bytes",
                                "value": "0x31383235313935"
                            }
                        ],
                        "signature": "dataCopy(bytes)"
                    },
                    "errorInfo": "",
                    "fromAddress": "0x7c2e9b93d19a0d0d55a5515aec5b1422454eb2da",
                    "gasUsed": 18,
                    "id": 5,
                    "methodDecoded": true,
                    "operation": "CALL",
                    "output": "0x31383235313935",
                    "revert": false,
                    "revertMessage": "",
                    "selector": "0x31383235",
                    "status": true,
                    "value": "0"
                },
                "nodeType": 0
            },
            "6": {
                "invocation": {
                    "address": "0x0000000000000000000000000000000000000004",
                    "callData": "0x313935",
                    "decodedMethod": {
                        "callParams": [
                            {
                                "name": "data",
                                "type": "bytes",
                                "value": "0x31383235313935"
                            }
                        ],
                        "constructorArguments": "",
                        "name": "dataCopy()",
                        "returnParams": [
                            {
                                "name": "data",
                                "type": "bytes",
                                "value": "0x31383235313935"
                            }
                        ],
                        "signature": "dataCopy(bytes)"
                    },
                    "errorInfo": "",
                    "fromAddress": "0x7c2e9b93d19a0d0d55a5515aec5b1422454eb2da",
                    "gasUsed": 18,
                    "id": 6,
                    "methodDecoded": true,
                    "operation": "CALL",
                    "output": "0x31383235313935",
                    "revert": false,
                    "revertMessage": "",
                    "selector": "0x31383235",
                    "status": true,
                    "value": "0"
                },
                "nodeType": 0
            },
            "7": {
                "invocation": {
                    "address": "0x0000000000000000000000000000000000000004",
                    "callData": "0x79776f6d616e",
                    "decodedMethod": {
                        "callParams": [
                            {
                                "name": "data",
                                "type": "bytes",
                                "value": "0x6861707079776f6d616e"
                            }
                        ],
                        "constructorArguments": "",
                        "name": "dataCopy()",
                        "returnParams": [
                            {
                                "name": "data",
                                "type": "bytes",
                                "value": "0x6861707079776f6d616e"
                            }
                        ],
                        "signature": "dataCopy(bytes)"
                    },
                    "errorInfo": "",
                    "fromAddress": "0x7c2e9b93d19a0d0d55a5515aec5b1422454eb2da",
                    "gasUsed": 18,
                    "id": 7,
                    "methodDecoded": true,
                    "operation": "CALL",
                    "output": "0x6861707079776f6d616e",
                    "revert": false,
                    "revertMessage": "",
                    "selector": "0x68617070",
                    "status": true,
                    "value": "0"
                },
                "nodeType": 0
            },
            "8": {
                "invocation": {
                    "address": "0x0000000000000000000000000000000000000004",
                    "callData": "0x79776f6d616e",
                    "decodedMethod": {
                        "callParams": [
                            {
                                "name": "data",
                                "type": "bytes",
                                "value": "0x6861707079776f6d616e"
                            }
                        ],
                        "constructorArguments": "",
                        "name": "dataCopy()",
                        "returnParams": [
                            {
                                "name": "data",
                                "type": "bytes",
                                "value": "0x6861707079776f6d616e"
                            }
                        ],
                        "signature": "dataCopy(bytes)"
                    },
                    "errorInfo": "",
                    "fromAddress": "0x7c2e9b93d19a0d0d55a5515aec5b1422454eb2da",
                    "gasUsed": 18,
                    "id": 8,
                    "methodDecoded": true,
                    "operation": "CALL",
                    "output": "0x6861707079776f6d616e",
                    "revert": false,
                    "revertMessage": "",
                    "selector": "0x68617070",
                    "status": true,
                    "value": "0"
                },
                "nodeType": 0
            },
            "9": {
                "invocation": {
                    "address": "0x0000000000000000000000000000000000000004",
                    "callData": "0x79776f6d616e",
                    "decodedMethod": {
                        "callParams": [
                            {
                                "name": "data",
                                "type": "bytes",
                                "value": "0x6861707079776f6d616e"
                            }
                        ],
                        "constructorArguments": "",
                        "name": "dataCopy()",
                        "returnParams": [
                            {
                                "name": "data",
                                "type": "bytes",
                                "value": "0x6861707079776f6d616e"
                            }
                        ],
                        "signature": "dataCopy(bytes)"
                    },
                    "errorInfo": "",
                    "fromAddress": "0x7c2e9b93d19a0d0d55a5515aec5b1422454eb2da",
                    "gasUsed": 18,
                    "id": 9,
                    "methodDecoded": true,
                    "operation": "CALL",
                    "output": "0x6861707079776f6d616e",
                    "revert": false,
                    "revertMessage": "",
                    "selector": "0x68617070",
                    "status": true,
                    "value": "0"
                },
                "nodeType": 0
            }
        },
        "gasFlame": [
            {
                "children": [
                    {
                        "children": [
                            {
                                "children": [],
                                "depth": 0,
                                "name": "Initial Gas",
                                "value": 25112
                            },
                            {
                                "children": [
                                    {
                                        "children": [],
                                        "depth": 1,
                                        "name": "dataCopy()",
                                        "value": 18
                                    },
                                    {
                                        "children": [],
                                        "depth": 1,
                                        "name": "dataCopy()",
                                        "value": 18
                                    },
                                    {
                                        "children": [
                                            {
                                                "children": [],
                                                "depth": 2,
                                                "name": "dataCopy()",
                                                "value": 18
                                            },
                                            {
                                                "children": [],
                                                "depth": 2,
                                                "name": "dataCopy()",
                                                "value": 18
                                            },
                                            {
                                                "children": [],
                                                "depth": 2,
                                                "name": "dataCopy()",
                                                "value": 18
                                            },
                                            {
                                                "children": [],
                                                "depth": 2,
                                                "name": "dataCopy()",
                                                "value": 18
                                            },
                                            {
                                                "children": [],
                                                "depth": 2,
                                                "name": "dataCopy()",
                                                "value": 18
                                            },
                                            {
                                                "children": [],
                                                "depth": 2,
                                                "name": "dataCopy()",
                                                "value": 18
                                            },
                                            {
                                                "children": [],
                                                "depth": 2,
                                                "name": "dataCopy()",
                                                "value": 18
                                            },
                                            {
                                                "children": [],
                                                "depth": 2,
                                                "name": "dataCopy()",
                                                "value": 18
                                            },
                                            {
                                                "children": [],
                                                "depth": 2,
                                                "name": "dataCopy()",
                                                "value": 18
                                            },
                                            {
                                                "children": [],
                                                "depth": 2,
                                                "name": "dataCopy()",
                                                "value": 18
                                            },
                                            {
                                                "children": [],
                                                "depth": 2,
                                                "name": "dataCopy()",
                                                "value": 18
                                            },
                                            {
                                                "children": [],
                                                "depth": 2,
                                                "name": "dataCopy()",
                                                "value": 18
                                            },
                                            {
                                                "children": [],
                                                "depth": 2,
                                                "name": "dataCopy()",
                                                "value": 18
                                            },
                                            {
                                                "children": [],
                                                "depth": 2,
                                                "name": "dataCopy()",
                                                "value": 18
                                            },
                                            {
                                                "children": [],
                                                "depth": 2,
                                                "name": "dataCopy()",
                                                "value": 18
                                            },
                                            {
                                                "children": [],
                                                "depth": 2,
                                                "name": "dataCopy()",
                                                "value": 18
                                            },
                                            {
                                                "children": [],
                                                "depth": 2,
                                                "name": "dataCopy()",
                                                "value": 18
                                            },
                                            {
                                                "children": [],
                                                "depth": 2,
                                                "name": "dataCopy()",
                                                "value": 18
                                            },
                                            {
                                                "children": [],
                                                "depth": 2,
                                                "name": "dataCopy()",
                                                "value": 18
                                            },
                                            {
                                                "children": [],
                                                "depth": 2,
                                                "name": "dataCopy()",
                                                "value": 18
                                            },
                                            {
                                                "children": [],
                                                "depth": 2,
                                                "name": "dataCopy()",
                                                "value": 18
                                            },
                                            {
                                                "children": [],
                                                "depth": 2,
                                                "name": "dataCopy()",
                                                "value": 18
                                            },
                                            {
                                                "children": [],
                                                "depth": 2,
                                                "name": "dataCopy()",
                                                "value": 18
                                            },
                                            {
                                                "children": [],
                                                "depth": 2,
                                                "name": "dataCopy()",
                                                "value": 18
                                            },
                                            {
                                                "children": [],
                                                "depth": 2,
                                                "name": "dataCopy()",
                                                "value": 18
                                            },
                                            {
                                                "children": [],
                                                "depth": 2,
                                                "name": "dataCopy()",
                                                "value": 18
                                            }
                                        ],
                                        "depth": 1,
                                        "name": "0x48a1eadc",
                                        "value": 347892
                                    },
                                    {
                                        "children": [],
                                        "depth": 1,
                                        "name": "0xcd268063",
                                        "value": 15903
                                    },
                                    {
                                        "children": [],
                                        "depth": 1,
                                        "name": "0x3544c28b",
                                        "value": 30714
                                    }
                                ],
                                "depth": 0,
                                "name": "Executed Gas",
                                "value": 397006
                            }
                        ],
                        "depth": -1,
                        "name": "Actual Gas Used",
                        "value": 422118
                    },
                    {
                        "children": [],
                        "depth": -1,
                        "name": "Refunded Gas",
                        "value": 0
                    }
                ],
                "depth": -2,
                "name": "Total Gas",
                "value": 422118
            }
        ],
        "isConfirmed": true,
        "mainTrace": [
            {
                "children": [
                    {
                        "children": [
                            {
                                "children": [],
                                "depth": 1,
                                "id": 1,
                                "order": 1
                            },
                            {
                                "children": [],
                                "depth": 1,
                                "id": 2,
                                "order": 2
                            },
                            {
                                "children": [
                                    {
                                        "children": [],
                                        "depth": 2,
                                        "id": 4,
                                        "order": 4
                                    },
                                    {
                                        "children": [],
                                        "depth": 2,
                                        "id": 5,
                                        "order": 5
                                    },
                                    {
                                        "children": [],
                                        "depth": 2,
                                        "id": 6,
                                        "order": 6
                                    },
                                    {
                                        "children": [],
                                        "depth": 2,
                                        "id": 7,
                                        "order": 7
                                    },
                                    {
                                        "children": [],
                                        "depth": 2,
                                        "id": 8,
                                        "order": 8
                                    },
                                    {
                                        "children": [],
                                        "depth": 2,
                                        "id": 9,
                                        "order": 9
                                    },
                                    {
                                        "children": [],
                                        "depth": 2,
                                        "id": 10,
                                        "order": 10
                                    },
                                    {
                                        "children": [],
                                        "depth": 2,
                                        "id": 11,
                                        "order": 11
                                    },
                                    {
                                        "children": [],
                                        "depth": 2,
                                        "id": 12,
                                        "order": 12
                                    },
                                    {
                                        "children": [],
                                        "depth": 2,
                                        "id": 13,
                                        "order": 13
                                    },
                                    {
                                        "children": [],
                                        "depth": 2,
                                        "id": 14,
                                        "order": 14
                                    },
                                    {
                                        "children": [],
                                        "depth": 2,
                                        "id": 15,
                                        "order": 15
                                    },
                                    {
                                        "children": [],
                                        "depth": 2,
                                        "id": 16,
                                        "order": 16
                                    },
                                    {
                                        "children": [],
                                        "depth": 2,
                                        "id": 17,
                                        "order": 17
                                    },
                                    {
                                        "children": [],
                                        "depth": 2,
                                        "id": 18,
                                        "order": 18
                                    },
                                    {
                                        "children": [],
                                        "depth": 2,
                                        "id": 19,
                                        "order": 19
                                    },
                                    {
                                        "children": [],
                                        "depth": 2,
                                        "id": 20,
                                        "order": 20
                                    },
                                    {
                                        "children": [],
                                        "depth": 2,
                                        "id": 21,
                                        "order": 21
                                    },
                                    {
                                        "children": [],
                                        "depth": 2,
                                        "id": 22,
                                        "order": 22
                                    },
                                    {
                                        "children": [],
                                        "depth": 2,
                                        "id": 23,
                                        "order": 23
                                    },
                                    {
                                        "children": [],
                                        "depth": 2,
                                        "id": 24,
                                        "order": 24
                                    },
                                    {
                                        "children": [],
                                        "depth": 2,
                                        "id": 25,
                                        "order": 25
                                    },
                                    {
                                        "children": [],
                                        "depth": 2,
                                        "id": 26,
                                        "order": 26
                                    },
                                    {
                                        "children": [],
                                        "depth": 2,
                                        "id": 27,
                                        "order": 27
                                    },
                                    {
                                        "children": [],
                                        "depth": 2,
                                        "id": 28,
                                        "order": 28
                                    },
                                    {
                                        "children": [],
                                        "depth": 2,
                                        "id": 29,
                                        "order": 29
                                    }
                                ],
                                "depth": 1,
                                "id": 3,
                                "order": 3
                            },
                            {
                                "children": [],
                                "depth": 1,
                                "id": 30,
                                "order": 30
                            },
                            {
                                "children": [],
                                "depth": 1,
                                "id": 31,
                                "order": 31
                            }
                        ],
                        "depth": 0,
                        "id": 0,
                        "order": 0
                    }
                ],
                "depth": -1,
                "id": -1,
                "order": -1
            }
        ],
        "mainTraceNodeCount": 32,
        "parentIdMap": {
            "0": -1,
            "1": 0,
            "10": 3,
            "11": 3,
            "12": 3,
            "13": 3,
            "14": 3,
            "15": 3,
            "16": 3,
            "17": 3,
            "18": 3,
            "19": 3,
            "2": 0,
            "20": 3,
            "21": 3,
            "22": 3,
            "23": 3,
            "24": 3,
            "25": 3,
            "26": 3,
            "27": 3,
            "28": 3,
            "29": 3,
            "3": 0,
            "30": 0,
            "31": 0,
            "4": 3,
            "5": 3,
            "6": 3,
            "7": 3,
            "8": 3,
            "9": 3
        },
        "tidyTrace": [
            {
                "children": [
                    {
                        "children": [
                            {
                                "children": [],
                                "depth": 1,
                                "id": 1,
                                "order": 1
                            },
                            {
                                "children": [],
                                "depth": 1,
                                "id": 2,
                                "order": 2
                            },
                            {
                                "children": [
                                    {
                                        "children": [],
                                        "depth": 2,
                                        "id": 4,
                                        "order": 4
                                    },
                                    {
                                        "children": [],
                                        "depth": 2,
                                        "id": 5,
                                        "order": 5
                                    },
                                    {
                                        "children": [],
                                        "depth": 2,
                                        "id": 6,
                                        "order": 6
                                    },
                                    {
                                        "children": [],
                                        "depth": 2,
                                        "id": 7,
                                        "order": 7
                                    },
                                    {
                                        "children": [],
                                        "depth": 2,
                                        "id": 8,
                                        "order": 8
                                    },
                                    {
                                        "children": [],
                                        "depth": 2,
                                        "id": 9,
                                        "order": 9
                                    },
                                    {
                                        "children": [],
                                        "depth": 2,
                                        "id": 10,
                                        "order": 10
                                    },
                                    {
                                        "children": [],
                                        "depth": 2,
                                        "id": 11,
                                        "order": 11
                                    },
                                    {
                                        "children": [],
                                        "depth": 2,
                                        "id": 12,
                                        "order": 12
                                    },
                                    {
                                        "children": [],
                                        "depth": 2,
                                        "id": 13,
                                        "order": 13
                                    },
                                    {
                                        "children": [],
                                        "depth": 2,
                                        "id": 14,
                                        "order": 14
                                    },
                                    {
                                        "children": [],
                                        "depth": 2,
                                        "id": 15,
                                        "order": 15
                                    },
                                    {
                                        "children": [],
                                        "depth": 2,
                                        "id": 16,
                                        "order": 16
                                    },
                                    {
                                        "children": [],
                                        "depth": 2,
                                        "id": 17,
                                        "order": 17
                                    },
                                    {
                                        "children": [],
                                        "depth": 2,
                                        "id": 18,
                                        "order": 18
                                    },
                                    {
                                        "children": [],
                                        "depth": 2,
                                        "id": 19,
                                        "order": 19
                                    },
                                    {
                                        "children": [],
                                        "depth": 2,
                                        "id": 20,
                                        "order": 20
                                    },
                                    {
                                        "children": [],
                                        "depth": 2,
                                        "id": 21,
                                        "order": 21
                                    },
                                    {
                                        "children": [],
                                        "depth": 2,
                                        "id": 22,
                                        "order": 22
                                    },
                                    {
                                        "children": [],
                                        "depth": 2,
                                        "id": 23,
                                        "order": 23
                                    },
                                    {
                                        "children": [],
                                        "depth": 2,
                                        "id": 24,
                                        "order": 24
                                    },
                                    {
                                        "children": [],
                                        "depth": 2,
                                        "id": 25,
                                        "order": 25
                                    },
                                    {
                                        "children": [],
                                        "depth": 2,
                                        "id": 26,
                                        "order": 26
                                    },
                                    {
                                        "children": [],
                                        "depth": 2,
                                        "id": 27,
                                        "order": 27
                                    },
                                    {
                                        "children": [],
                                        "depth": 2,
                                        "id": 28,
                                        "order": 28
                                    },
                                    {
                                        "children": [],
                                        "depth": 2,
                                        "id": 29,
                                        "order": 29
                                    }
                                ],
                                "depth": 1,
                                "id": 3,
                                "order": 3
                            },
                            {
                                "children": [],
                                "depth": 1,
                                "id": 30,
                                "order": 30
                            },
                            {
                                "children": [],
                                "depth": 1,
                                "id": 31,
                                "order": 31
                            }
                        ],
                        "depth": 0,
                        "id": 0,
                        "order": 0
                    }
                ],
                "depth": -1,
                "id": -1,
                "order": -1
            }
        ],
        "tidyTraceNodeCount": 32
    },
    "state_change": {
        "stateChanges": [
            {
                "address": "0x7c2e9b93d19a0d0d55a5515aec5b1422454eb2da",
                "erc": "",
                "slots": [
                    {
                        "current": "0x0000000000000000000000000000000000000000000000000000000000000001",
                        "key": "0x5c73cb84bd447e44c688ebe139719942e993aa52f6deb5b0b4d19ce1ec294567",
                        "prev": "0x0000000000000000000000000000000000000000000000000000000000000000"
                    },
                    {
                        "current": "0x00000000000000000000000000000000000000000000000000000000000008cd",
                        "key": "0x5c73cb84bd447e44c688ebe139719942e993aa52f6deb5b0b4d19ce1ec294569",
                        "prev": "0x0000000000000000000000000000000000000000000000000000000000000000"
                    },
                    {
                        "current": "0x0000000000000000000000000000000000000000000000000000000000000008",
                        "key": "0x634fc19afdbb660122e8a8c626228f6a8ad3a2de4776e8261967ef6feb769422",
                        "prev": "0x0000000000000000000000000000000000000000000000000000000000000007"
                    },
                    {
                        "current": "0x0000000000000000000000000000000000000000000000000000000000000520",
                        "key": "0x5c73cb84bd447e44c688ebe139719942e993aa52f6deb5b0b4d19ce1ec29456f",
                        "prev": "0x0000000000000000000000000000000000000000000000000000000000000000"
                    },
                    {
                        "current": "0x0000000000000000000000000000000000000000000000000000000000000002",
                        "key": "0xe8c0950e2f81a06173f7cc10bcef54414548401c75b5ea07a0a99ec5b28e55cc",
                        "prev": "0x0000000000000000000000000000000000000000000000000000000000000001"
                    },
                    {
                        "current": "0x0000000000000000000000000000000000000000000000000000000000000853",
                        "key": "0x5c73cb84bd447e44c688ebe139719942e993aa52f6deb5b0b4d19ce1ec29456b",
                        "prev": "0x0000000000000000000000000000000000000000000000000000000000000000"
                    },
                    {
                        "current": "0x0000000000000000000000000000000000000000000000000000000000000742",
                        "key": "0x5c73cb84bd447e44c688ebe139719942e993aa52f6deb5b0b4d19ce1ec29456d",
                        "prev": "0x0000000000000000000000000000000000000000000000000000000000000000"
                    },
                    {
                        "current": "0x00000000000000000000000000000000000000000000000000000000000003a2",
                        "key": "0x5c73cb84bd447e44c688ebe139719942e993aa52f6deb5b0b4d19ce1ec294570",
                        "prev": "0x0000000000000000000000000000000000000000000000000000000000000000"
                    },
                    {
                        "current": "0x00000000000000000000000000000000000000000000000000000000000008ff",
                        "key": "0x0000000000000000000000000000000000000000000000000000000000000009",
                        "prev": "0x00000000000000000000000000000000000000000000000000000000000008fe"
                    },
                    {
                        "current": "0x00000000000000000000000000000000000000000000000000000000000058ab",
                        "key": "0x0000000000000000000000000000000000000000000000000000000000000001",
                        "prev": "0x00000000000000000000000000000000000000000000000000000000000058ac"
                    },
                    {
                        "current": "0x0000000000000000000000008484fbd01bca83659b3b48f6ebed2b893e20f584",
                        "key": "0xb8b259672b53e9e51895669d999f291056f06ee596d9cbb91022d99ffc413dca",
                        "prev": "0x0000000000000000000000000000000000000000000000000000000000000000"
                    },
                    {
                        "current": "0x0000000000000000000000000000000000000000000000000000000000000001",
                        "key": "0x07d8f55256b207a3752f3619d7611b15c1a1d5e0e30689d22da0214ce05f1eec",
                        "prev": "0x0000000000000000000000000000000000000000000000000000000000000000"
                    },
                    {
                        "current": "0x00000000000000000000000000000000000000000000000000000000000007d8",
                        "key": "0x5c73cb84bd447e44c688ebe139719942e993aa52f6deb5b0b4d19ce1ec29456c",
                        "prev": "0x0000000000000000000000000000000000000000000000000000000000000000"
                    },
                    {
                        "current": "0x000000000000000000000000000000000000000000000000000000000000064b",
                        "key": "0x5c73cb84bd447e44c688ebe139719942e993aa52f6deb5b0b4d19ce1ec29456e",
                        "prev": "0x0000000000000000000000000000000000000000000000000000000000000000"
                    },
                    {
                        "current": "0x0000000000000000000000000000000000000000000000000000000000000008",
                        "key": "0x0dff2e13b816d3ab4324376bd8dbdec4d16458f1f1938b9a7653764689a98ef7",
                        "prev": "0x0000000000000000000000000000000000000000000000000000000000000007"
                    },
                    {
                        "current": "0x0000000000000000000000000000000000000000000000000000000000000008",
                        "key": "0xa60a0aafd96a104b601d819ed34009b0a5f736ac07d712e4d2936455c987a079",
                        "prev": "0x0000000000000000000000000000000000000000000000000000000000000007"
                    },
                    {
                        "current": "0x0000000000000000000000000000000000000000000000000000000000000001",
                        "key": "0x5c73cb84bd447e44c688ebe139719942e993aa52f6deb5b0b4d19ce1ec294566",
                        "prev": "0x0000000000000000000000000000000000000000000000000000000000000000"
                    },
                    {
                        "current": "0x313832353139350000000000000000000000000000000000000000000000000e",
                        "key": "0x5c73cb84bd447e44c688ebe139719942e993aa52f6deb5b0b4d19ce1ec294568",
                        "prev": "0x0000000000000000000000000000000000000000000000000000000000000000"
                    },
                    {
                        "current": "0x00000000000000000000000000000000000000000000000000000000000008fe",
                        "key": "0x90d3b4bc6e22f036c8d967acd5cf1599ce1f77cd3bf9c34c7674a332c01a987b",
                        "prev": "0x0000000000000000000000000000000000000000000000000000000000000000"
                    },
                    {
                        "current": "0x000000000000000000000000000000000000000000000000000000000000089c",
                        "key": "0x5c73cb84bd447e44c688ebe139719942e993aa52f6deb5b0b4d19ce1ec29456a",
                        "prev": "0x0000000000000000000000000000000000000000000000000000000000000000"
                    },
                    {
                        "current": "0x0000000000000000000000000000000000000000000000000000000000000008",
                        "key": "0x1f8d9ae63e149810b9a3d3846095ad6c464ab246bc077c06425d28f13ef4d79d",
                        "prev": "0x0000000000000000000000000000000000000000000000000000000000000007"
                    },
                    {
                        "current": "0x00000000000000000000000000000000000000000000000000000000000008fd",
                        "key": "0x0000000000000000000000000000000000000000000000000000000000000003",
                        "prev": "0x00000000000000000000000000000000000000000000000000000000000008fc"
                    },
                    {
                        "current": "0x0000000000000000000000008484fbd01bca83659b3b48f6ebed2b893e20f584",
                        "key": "0xb501b1b1ac886aa7a435b57240ed7254d9bebce46870f32a7fa67017e0b99d89",
                        "prev": "0x0000000000000000000000000000000000000000000000000000000000000000"
                    },
                    {
                        "current": "0x0000000000000000000000000000000000000000000000000000000000000005",
                        "key": "0xb47af1dd2eca9dfde61f9491220462fffe3f5f9c02794af2a05f41db5ec6002c",
                        "prev": "0x0000000000000000000000000000000000000000000000000000000000000004"
                    },
                    {
                        "current": "0x0000000000000000000000000000000000000000000000000000000000000008",
                        "key": "0x10ad58f83c295adb8d6dae6e0bea82545962ef1ddfb6aa89a63927f5e632b724",
                        "prev": "0x0000000000000000000000000000000000000000000000000000000000000007"
                    },
                    {
                        "current": "0x0000000000000000000000000000000000000000000000000000000000000008",
                        "key": "0xad2abc51c3aa3220003ad36063019ce07c4069f5f7641095353def00a7d9d187",
                        "prev": "0x0000000000000000000000000000000000000000000000000000000000000007"
                    }
                ],
                "storageVariables": []
            }
        ]
    }
}