{
    "balance_change": {
        "balanceChanges": [
            {
                "account": "0x004075e4d4b1ce6c48c81cc940e2bad24b489e64",
                "assets": [
                    {
                        "address": "0x89d24a6b4ccb1b6faa2625fe562bdd9a23260359",
                        "amount": "4,500",
                        "iconUrl": "https://assets.blocksec.com/icon/ef749d775affba651ec0a3b1d637f71b140c748229531fb8d00c215d958a89f4.png",
                        "isERC1155": false,
                        "isERC721": false,
                        "sign": true,
                        "value": ""
                    }
                ]
            },
            {
                "account": "0xb7ac09c2c0217b07d7c103029b4918a2c401eecb",
                "assets": [
                    {
                        "address": "0x89d24a6b4ccb1b6faa2625fe562bdd9a23260359",
                        "amount": "4,500",
                        "iconUrl": "https://assets.blocksec.com/icon/ef749d775affba651ec0a3b1d637f71b140c748229531fb8d00c215d958a89f4.png",
                        "isERC1155": false,
                        "isERC721": false,
                        "sign": false,
                        "value": ""
                    }
                ]
            }
        ]
    },
    "profile": {
        "basic_info": {
            "baseFee": "",
            "blockNumber": 7049691,
            "callData": "0xb4f9b6c8000000000000000000000000000000000000000000000000000000000000a5b1",
            "debugEnable": true,
            "errorInfo": "",
            "eventCount": 3,
            "feeRecipient": "0x5a0b54d5dc17e0aadc383d2db43b0a0d3e029c4c",
            "formatValue": "0",
            "gasLimit": 230789,
            "gasPrice": "11",
            "gasUsed": 65395,
            "intTxnCount": 1,
            "internalRevert": false,
            "internalRevertMessage": "",
            "isContractCreation": false,
            "isFlashloan": false,
            "maxFee": "",
            "nonce": 210643,
            "overwritedBlockNumber": -1,
            "priorityFee": "",
            "receiver": "0xb7ac09c2c0217b07d7c103029b4918a2c401eecb",
            "revertMessage": "",
            "sender": "0x004075e4d4b1ce6c48c81cc940e2bad24b489e64",
            "simulationEnable": true,
            "sourceTxnHash": "0x1008a531d5675db51b427ef2a7e1cebb567ef917824d037a5aae73c781a5b0f4",
            "status": true,
            "timestamp": "2019-01-11T19:47:32Z",
            "transactionFee": "0.000719345",
            "txnHash": "0x1008a531d5675db51b427ef2a7e1cebb567ef917824d037a5aae73c781a5b0f4",
            "txnIndex": 26,
            "type": 0,
            "value": "0"
        },
        "fund_flow": [
            {
                "amount": "4,500",
                "from": "0xb7ac09c2c0217b07d7c103029b4918a2c401eecb",
                "id": 1,
                "isERC1155": false,
                "isERC721": false,
                "isReverted": false,
                "order": 1,
                "to": "0x004075e4d4b1ce6c48c81cc940e2bad24b489e64",
                "token": "0x89d24a6b4ccb1b6faa2625fe562bdd9a23260359"
            }
        ],
        "token_infos": [
            {
                "address": "0x89d24a6b4ccb1b6faa2625fe562bdd9a23260359",
                "decimals": 18
            },
            {
                "address": "0xc02aaa39b223fe8d0a0e5c4f27ead9083c756cc2",
                "decimals": 18
            },
            {
                "address": "0xeeeeeeeeeeeeeeeeeeeeeeeeeeeeeeeeeeeeeeee",
                "decimals": 18
            }
        ]
    },
    "address_label": {
        "labels": [
            {
                "address": "0xeeeeeeeeeeeeeeeeeeeeeeeeeeeeeeeeeeeeeeee",
                "label": "Ether"
            },
            {
                "address": "0x89d24a6b4ccb1b6faa2625fe562bdd9a23260359",
                "label": "Sai Stablecoin"
            },
            {
                "address": "0xb7ac09c2c0217b07d7c103029b4918a2c401eecb",
                "label": "OasisDex: Old Contract 2"
            },
            {
                "address": "0x0000000000000000000000000000000000000001",
                "label": "Precompiled"
            },
            {
                "address": "0x0000000000000000000000000000000000000002",
                "label": "Precompiled"
            },
            {
                "address": "0x0000000000000000000000000000000000000003",
                "label": "Precompiled"
            },
            {
                "address": "0x0000000000000000000000000000000000000004",
                "label": "Precompiled"
            }
        ]
    },
    "trace": {
        "accountLabels": null,
        "dataMap": {
            "-1": {
                "invocation": {
                    "address": "0x004075e4d4b1ce6c48c81cc940e2bad24b489e64",
                    "callData": "",
                    "decodedMethod": null,
                    "errorInfo": "",
                    "fromAddress": "",
                    "gasUsed": 0,
                    "id": -1,
                    "methodDecoded": false,
                    "operation": "",
                    "output": "",
                    "revert": false,
                    "revertMessage": "",
                    "selector": "",
                    "status": false,
                    "value": ""
                },
                "nodeType": 0
            },
            "0": {
                "invocation": {
                    "address": "0xb7ac09c2c0217b07d7c103029b4918a2c401eecb",
                    "callData": "0x000000000000000000000000000000000000000000000000000000000000a5b1",
                    "decodedMethod": {
                        "callParams": [
                            {
                                "name": "id",
                                "type": "bytes32",
                                "value": "0x000000000000000000000000000000000000000000000000000000000000a5b1"
                            }
                        ],
                        "constructorArguments": "",
                        "name": "kill",
                        "returnParams": [],
                        "signature": "kill(bytes32)"
                    },
                    "errorInfo": "",
                    "fromAddress": "0x004075e4d4b1ce6c48c81cc940e2bad24b489e64",
                    "gasUsed": 65395,
                    "id": 0,
                    "methodDecoded": true,
                    "operation": "CALL",
                    "output": "",
                    "revert": false,
                    "revertMessage": "",
                    "selector": "0xb4f9b6c8",
                    "status": true,
                    "value": "0"
                },
                "nodeType": 0
            },
            "1": {
                "invocation": {
                    "address": "0x89d24a6b4ccb1b6faa2625fe562bdd9a23260359",
                    "callData": "0x000000000000000000000000004075e4d4b1ce6c48c81cc940e2bad24b489e640000000000000000000000000000000000000000000000f3f20b8dfa69d00000",
                    "decodedMethod": {
                        "callParams": [
                            {
                                "name": "dst",
                                "type": "address",
                                "value": "0x004075e4d4b1ce6c48c81cc940e2bad24b489e64"
                            },
                            {
                                "decimalAvailable": true,
                                "name": "wad",
                                "type": "uint256",
                                "value": "4,500,000,000,000,000,000,000"
                            }
                        ],
                        "constructorArguments": "",
                        "name": "transfer",
                        "returnParams": [
                            {
                                "name": "",
                                "type": "bool",
                                "value": true
                            }
                        ],
                        "signature": "transfer(address,uint256)"
                    },
                    "errorInfo": "",
                    "fromAddress": "0xb7ac09c2c0217b07d7c103029b4918a2c401eecb",
                    "gasUsed": 14106,
                    "id": 1,
                    "methodDecoded": true,
                    "operation": "CALL",
                    "output": "0x0000000000000000000000000000000000000000000000000000000000000001",
                    "revert": false,
                    "revertMessage": "",
                    "selector": "0xa9059cbb",
                    "status": true,
                    "value": "0"
                },
                "nodeType": 0
            },
            "2": {
                "event": {
                    "contract": "0x89d24a6b4ccb1b6faa2625fe562bdd9a23260359",
                    "decodedLog": {
                        "name": "Transfer",
                        "params": [
                            {
                                "name": "src",
                                "type": "address",
                                "value": "0xb7ac09c2c0217b07d7c103029b4918a2c401eecb"
                            },
                            {
                                "name": "dst",
                                "type": "address",
                                "value": "0x004075e4d4b1ce6c48c81cc940e2bad24b489e64"
                            },
                            {
                                "decimalAvailable": true,
                                "name": "wad",
                                "type": "uint256",
                                "value": "4,500,000,000,000,000,000,000"
                            }
                        ],
                        "signature": "Transfer(address,address,uint256)"
                    },
                    "id": 2,
                    "logData": "0x0000000000000000000000000000000000000000000000f3f20b8dfa69d00000",
                    "logDecoded": true,
                    "operation": "EVENT",
                    "revert": false,
                    "status": true,
                    "topics": [
                        "0xddf252ad1be2c89b69c2b068fc378daa952ba7f163c4a11628f55a4df523b3ef",
                        "0x000000000000000000000000b7ac09c2c0217b07d7c103029b4918a2c401eecb",
                        "0x000000000000000000000000004075e4d4b1ce6c48c81cc940e2bad24b489e64"
                    ]
                },
                "nodeType": 1
            },
            "3": {
                "event": {
                    "contract": "0xb7ac09c2c0217b07d7c103029b4918a2c401eecb",
                    "decodedLog": {
                        "name": "LogItemUpdate",
                        "params": [
                            {
                                "name": "id",
                                "type": "uint256",
                                "value": "42,417"
                            }
                        ],
                        "signature": "LogItemUpdate(uint256)"
                    },
                    "id": 3,
                    "logData": "0x000000000000000000000000000000000000000000000000000000000000a5b1",
                    "logDecoded": true,
                    "operation": "EVENT",
                    "revert": false,
                    "status": true,
                    "topics": [
                        "0xa2c251311b1a7a475913900a2a73dc9789a21b04bc737e050bbc506dd4eb3488"
                    ]
                },
                "nodeType": 1
            },
            "4": {
                "event": {
                    "contract": "0xb7ac09c2c0217b07d7c103029b4918a2c401eecb",
                    "decodedLog": {
                        "name": "LogKill",
                        "params": [
                            {
                                "name": "id",
                                "type": "bytes32",
                                "value": "0x000000000000000000000000000000000000000000000000000000000000a5b1"
                            },
                            {
                                "name": "pair",
                                "type": "bytes32",
                                "value": "0x10aed75aa327f09ef87e5bdfaedf498ca260499a251ae5e049ddbd5e1633cd9c"
                            },
                            {
                                "name": "maker",
                                "type": "address",
                                "value": "0x004075e4d4b1ce6c48c81cc940e2bad24b489e64"
                            },
                            {
                                "name": "pay_gem",
                                "type": "address",
                                "value": "0x89d24a6b4ccb1b6faa2625fe562bdd9a23260359"
                            },
                            {
                                "name": "buy_gem",
                                "type": "address",
                                "value": "0xc02aaa39b223fe8d0a0e5c4f27ead9083c756cc2"
                            },
                            {
                                "name": "pay_amt",
                                "type": "uint128",
                                "value": "4,500,000,000,000,000,000,000"
                            },
                            {
                                "name": "buy_amt",
                                "type": "uint128",
                                "value": "36,184,573,340,145,232,043"
                            },
                            {
                                "name": "timestamp",
                                "type": "uint64",
                                "value": "1,547,236,052"
                            }
                        ],
                        "signature": "LogKill(bytes32,bytes32,address,address,address,uint128,uint128,uint64)"
                    },
                    "id": 4,
                    "logData": "0x00000000000000000000000089d24a6b4ccb1b6faa2625fe562bdd9a23260359000000000000000000000000c02aaa39b223fe8d0a0e5c4f27ead9083c756cc20000000000000000000000000000000000000000000000f3f20b8dfa69d00000000000000000000000000000000000000000000000000001f6296dbd206d28ab000000000000000000000000000000000000000000000000000000005c38f2d4",
                    "logDecoded": true,
                    "operation": "EVENT",
                    "revert": false,
                    "status": true,
                    "topics": [
                        "0x9577941d28fff863bfbee4694a6a4a56fb09e169619189d2eaa750b5b4819995",
                        "0x000000000000000000000000000000000000000000000000000000000000a5b1",
                        "0x10aed75aa327f09ef87e5bdfaedf498ca260499a251ae5e049ddbd5e1633cd9c",
                        "0x000000000000000000000000004075e4d4b1ce6c48c81cc940e2bad24b489e64"
                    ]
                },
                "nodeType": 1
            }
        },
        "gasFlame": [
            {
                "children": [
                    {
                        "children": [
                            {
                                "children": [],
                                "depth": 0,
                                "name": "Initial Gas",
                                "value": 21528
                            },
                            {
                                "children": [
                                    {
                                        "children": [],
                                        "depth": 1,
                                        "name": "transfer",
                                        "value": 14106
                                    }
                                ],
                                "depth": 0,
                                "name": "Executed Gas",
                                "value": 109261
                            }
                        ],
                        "depth": -1,
                        "name": "Actual Gas Used",
                        "value": 65395
                    },
                    {
                        "children": [],
                        "depth": -1,
                        "name": "Refunded Gas",
                        "value": 65394
                    }
                ],
                "depth": -2,
                "name": "Total Gas",
                "value": 130789
            }
        ],
        "isConfirmed": true,
        "mainTrace": [
            {
                "children": [
                    {
                        "children": [
                            {
                                "children": [
                                    {
                                        "children": [],
                                        "depth": 2,
                                        "id": 2,
                                        "order": 2
                                    }
                                ],
                                "depth": 1,
                                "id": 1,
                                "order": 1
                            },
                            {
                                "children": [],
                                "depth": 1,
                                "id": 3,
                                "order": 3
                            },
                            {
                                "children": [],
                                "depth": 1,
                                "id": 4,
                                "order": 4
                            }
                        ],
                        "depth": 0,
                        "id": 0,
                        "order": 0
                    }
                ],
                "depth": -1,
                "id": -1,
                "order": -1
            }
        ],
        "mainTraceNodeCount": 5,
        "parentIdMap": {
            "0": -1,
            "1": 0,
            "2": 1,
            "3": 0,
            "4": 0
        },
        "tidyTrace": [
            {
                "children": [
                    {
                        "children": [
                            {
                                "children": [
                                    {
                                        "children": [],
                                        "depth": 2,
                                        "id": 2,
                                        "order": 2
                                    }
                                ],
                                "depth": 1,
                                "id": 1,
                                "order": 1
                            },
                            {
                                "children": [],
                                "depth": 1,
                                "id": 3,
                                "order": 3
                            },
                            {
                                "children": [],
                                "depth": 1,
                                "id": 4,
                                "order": 4
                            }
                        ],
                        "depth": 0,
                        "id": 0,
                        "order": 0
                    }
                ],
                "depth": -1,
                "id": -1,
                "order": -1
            }
        ],
        "tidyTraceNodeCount": 5
    },
    "state_change": {
        "stateChanges": [
            {
                "address": "0x89d24a6b4ccb1b6faa2625fe562bdd9a23260359",
                "erc": "ERC-20",
                "slots": [
                    {
                        "current": "0x00000000000000000000000000000000000000000000bdb9e457c6e6b496a393",
                        "key": "0xbc5b55ca83c2030458fc2cb7285c162eff8141662c526a0a0be3a30a0fc06b82",
                        "prev": "0x00000000000000000000000000000000000000000000beadd66354e11e66a393"
                    },
                    {
                        "current": "0x0000000000000000000000000000000000000000000071b63d0751f63d8a6c11",
                        "key": "0x2035da2117c35920b712c593f22c0d48ef82b20c420306d97a17f8a8e3c4c6af",
                        "prev": "0x0000000000000000000000000000000000000000000070c24afbc3fbd3ba6c11"
                    }
                ],
                "storageVariables": [
                    {
                        "name": "_balances",
                        "type": "mapping(address => uint256)",
                        "value": {
                            "pairs": [
                                {
                                    "key": "0x004075e4d4b1ce6c48c81cc940e2bad24b489e64",
                                    "value": {
                                        "current": "536989117559364234406929",
                                        "prev": "532489117559364234406929",
                                        "typeTag": 1
                                    }
                                },
                                {
                                    "key": "0xb7ac09c2c0217b07d7c103029b4918a2c401eecb",
                                    "value": {
                                        "current": "895956366754457008382867",
                                        "prev": "900456366754457008382867",
                                        "typeTag": 1
                                    }
                                }
                            ],
                            "typeTag": 4
                        }
                    }
                ]
            },
            {
                "address": "0xb7ac09c2c0217b07d7c103029b4918a2c401eecb",
                "erc": "",
                "slots": [
                    {
                        "current": "0x0000000000000000000000000000000000000000000000000000000000000076",
                        "key": "0x839364218e430961480851c669819ef60483255dd7518f401296fbd95bcfc2d8",
                        "prev": "0x0000000000000000000000000000000000000000000000000000000000000077"
                    },
                    {
                        "current": "0x00000000000000000000000000000000000000000000000000000000006b91db",
                        "key": "0x6b86c1605852ec58df6421ad9669f3277b5007f9cac5debd05070716b64a3a1e",
                        "prev": "0x0000000000000000000000000000000000000000000000000000000000000000"
                    },
                    {
                        "current": "0x0000000000000000000000000000000000000000000000000000000000000000",
                        "key": "0x62b8f62a69343332dcddaaa372b6f78b95a6e3d883badba1dfdeb85893870ee5",
                        "prev": "0x000000000000000000000000000000000000000000000001f6296dbd206d28ab"
                    },
                    {
                        "current": "0x0000000000000000000000000000000000000000000000000000000000000000",
                        "key": "0x62b8f62a69343332dcddaaa372b6f78b95a6e3d883badba1dfdeb85893870ee3",
                        "prev": "0x0000000000000000000000000000000000000000000000f3f20b8dfa69d00000"
                    },
                    {
                        "current": "0x0000000000000000000000000000000000000000000000000000000000000000",
                        "key": "0x62b8f62a69343332dcddaaa372b6f78b95a6e3d883badba1dfdeb85893870ee6",
                        "prev": "0x000000000000000000000000c02aaa39b223fe8d0a0e5c4f27ead9083c756cc2"
                    },
                    {
                        "current": "0x000000000000000000000000000000000000000000000000000000000000a59a",
                        "key": "0x9831a6d4cac677bc44baab77f393dc8ba26ed59d7f8a03851bb1c6f5361cf907",
                        "prev": "0x000000000000000000000000000000000000000000000000000000000000a5b1"
                    },
                    {
                        "current": "0x0000000000000000000000000000000000000000000000000000000000000000",
                        "key": "0x62b8f62a69343332dcddaaa372b6f78b95a6e3d883badba1dfdeb85893870ee4",
                        "prev": "0x00000000000000000000000089d24a6b4ccb1b6faa2625fe562bdd9a23260359"
                    },
                    {
                        "current": "0x0000000000000000000000000000000000000000000000000000000000000000",
                        "key": "0x62b8f62a69343332dcddaaa372b6f78b95a6e3d883badba1dfdeb85893870ee7",
                        "prev": "0x00000000000000005c38ecab004075e4d4b1ce6c48c81cc940e2bad24b489e64"
                    },
                    {
                        "current": "0x000000000000000000000000000000000000000000000000000000000000a516",
                        "key": "0x984895a4d9da740e3d5ce80e095754a79103575644011ea9d0649f12cf912658",
                        "prev": "0x000000000000000000000000000000000000000000000000000000000000a5b1"
                    }
                ],
                "storageVariables": [
                    {
                        "name": "offers",
                        "type": "mapping(uint256 => struct SimpleMarket.OfferInfo)",
                        "value": {
                            "pairs": [
                                {
                                    "key": "42417",
                                    "value": {
                                        "fields": [
                                            {
                                                "name": "pay_amt",
                                                "type": "uint256",
                                                "value": {
                                                    "current": "0",
                                                    "prev": "4500000000000000000000",
                                                    "typeTag": 1
                                                }
                                            },
                                            {
                                                "name": "pay_gem",
                                                "type": "contract ERC20",
                                                "value": {
                                                    "current": "0x0000000000000000000000000000000000000000",
                                                    "prev": "0x89d24a6b4ccb1b6faa2625fe562bdd9a23260359",
                                                    "typeTag": 1
                                                }
                                            },
                                            {
                                                "name": "buy_amt",
                                                "type": "uint256",
                                                "value": {
                                                    "current": "0",
                                                    "prev": "36184573340145232043",
                                                    "typeTag": 1
                                                }
                                            },
                                            {
                                                "name": "buy_gem",
                                                "type": "contract ERC20",
                                                "value": {
                                                    "current": "0x0000000000000000000000000000000000000000",
                                                    "prev": "0xc02aaa39b223fe8d0a0e5c4f27ead9083c756cc2",
                                                    "typeTag": 1
                                                }
                                            },
                                            {
                                                "name": "owner",
                                                "type": "address",
                                                "value": {
                                                    "current": "0x0000000000000000000000000000000000000000",
                                                    "prev": "0x004075e4d4b1ce6c48c81cc940e2bad24b489e64",
                                                    "typeTag": 1
                                                }
                                            },
                                            {
                                                "name": "timestamp",
                                                "type": "uint64",
                                                "value": {
                                                    "current": "0",
                                                    "prev": "1547234475",
                                                    "typeTag": 1
                                                }
                                            }
                                        ],
                                        "typeTag": 3
                                    }
                                }
                            ],
                            "typeTag": 4
                        }
                    },
                    {
                        "name": "_rank",
                        "type": "mapping(uint256 => struct MatchingMarket.sortInfo)",
                        "value": {
                            "pairs": [
                                {
                                    "key": "42262",
                                    "value": {
                                        "fields": [
                                            {
                                                "name": "next",
                                                "type": "uint256",
                                                "value": {
                                                    "current": "42394",
                                                    "prev": "42417",
                                                    "typeTag": 1
                                                }
                                            }
                                        ],
                                        "typeTag": 3
                                    }
                                },
                                {
                                    "key": "42394",
                                    "value": {
                                        "fields": [
                                            {
                                                "name": "prev",
                                                "type": "uint256",
                                                "value": {
                                                    "current": "42262",
                                                    "prev": "42417",
                                                    "typeTag": 1
                                                }
                                            }
                                        ],
                                        "typeTag": 3
                                    }
                                },
                                {
                                    "key": "42417",
                                    "value": {
                                        "fields": [
                                            {
                                                "name": "delb",
                                                "type": "uint256",
                                                "value": {
                                                    "current": "7049691",
                                                    "prev": "0",
                                                    "typeTag": 1
                                                }
                                            }
                                        ],
                                        "typeTag": 3
                                    }
                                }
                            ],
                            "typeTag": 4
                        }
                    },
                    {
                        "name": "_span",
                        "type": "mapping(address => mapping(address => uint256))",
                        "value": {
                            "pairs": [
                                {
                                    "key": "0x89d24a6b4ccb1b6faa2625fe562bdd9a23260359",
                                    "value": {
                                        "pairs": [
                                            {
                                                "key": "0xc02aaa39b223fe8d0a0e5c4f27ead9083c756cc2",
                                                "value": {
                                                    "current": "118",
                                                    "prev": "119",
                                                    "typeTag": 1
                                                }
                                            }
                                        ],
                                        "typeTag": 4
                                    }
                                }
                            ],
                            "typeTag": 4
                        }
                    }
                ]
            }
        ]
    }
}