{
    "balance_change": {
        "balanceChanges": [
            {
                "account": "0xccfff442171da64e5e2019778db98dd2869b72a4",
                "assets": [
                    {
                        "address": "0xd2bd6415db70a0f0b26c973b15b63bac74f5c9c6",
                        "amount": "3,511.79",
                        "iconUrl": "",
                        "isERC1155": false,
                        "isERC721": false,
                        "sign": false,
                        "value": ""
                    }
                ]
            },
            {
                "account": "0x939890f511e67a239986548f220b7fff91c19d2f",
                "assets": [
                    {
                        "address": "0xd2bd6415db70a0f0b26c973b15b63bac74f5c9c6",
                        "amount": "3,511.79",
                        "iconUrl": "",
                        "isERC1155": false,
                        "isERC721": false,
                        "sign": true,
                        "value": ""
                    }
                ]
            }
        ]
    },
    "profile": {
        "basic_info": {
            "baseFee": "",
            "blockNumber": 8098260,
            "callData": "0xa9059cbb000000000000000000000000939890f511e67a239986548f220b7fff91c19d2f0000000000000000000000000000000000000000000000be5fe05ebd390b0000",
            "debugEnable": true,
            "errorInfo": "",
            "eventCount": 1,
            "feeRecipient": "0xea674fdde714fd979de3edf0f56aa9716b898ec8",
            "formatValue": "0",
            "gasLimit": 60000,
            "gasPrice": "8.071064949",
            "gasUsed": 22475,
            "intTxnCount": 0,
            "internalRevert": false,
            "internalRevertMessage": "",
            "isContractCreation": false,
            "isFlashloan": false,
            "maxFee": "",
            "nonce": 1,
            "overwritedBlockNumber": -1,
            "priorityFee": "",
            "receiver": "0xd2bd6415db70a0f0b26c973b15b63bac74f5c9c6",
            "revertMessage": "",
            "sender": "0xccfff442171da64e5e2019778db98dd2869b72a4",
            "simulationEnable": true,
            "sourceTxnHash": "0x10a1ab6ddd75d3fbfd58eda660663758c093d5d4a52766a712f0b8f388db8e20",
            "status": true,
            "timestamp": "2019-07-06T14:31:35Z",
            "transactionFee": "0.000181397184728775",
            "txnHash": "0x10a1ab6ddd75d3fbfd58eda660663758c093d5d4a52766a712f0b8f388db8e20",
            "txnIndex": 81,
            "type": 0,
            "value": "0"
        },
        "fund_flow": [
            {
                "amount": "3,511.79",
                "from": "0xccfff442171da64e5e2019778db98dd2869b72a4",
                "id": 1,
                "isERC1155": false,
                "isERC721": false,
                "isReverted": false,
                "order": 1,
                "to": "0x939890f511e67a239986548f220b7fff91c19d2f",
                "token": "0xd2bd6415db70a0f0b26c973b15b63bac74f5c9c6"
            }
        ],
        "token_infos": [
            {
                "address": "0xc02aaa39b223fe8d0a0e5c4f27ead9083c756cc2",
                "decimals": 18
            },
            {
                "address": "0xd2bd6415db70a0f0b26c973b15b63bac74f5c9c6",
                "decimals": 18
            },
            {
                "address": "0xeeeeeeeeeeeeeeeeeeeeeeeeeeeeeeeeeeeeeeee",
                "decimals": 18
            }
        ]
    },
    "address_label": {
        "labels": [
            {
                "address": "0x0000000000000000000000000000000000000003",
                "label": "Precompiled"
            },
            {
                "address": "0x0000000000000000000000000000000000000004",
                "label": "Precompiled"
            },
            {
                "address": "0xeeeeeeeeeeeeeeeeeeeeeeeeeeeeeeeeeeeeeeee",
                "label": "Ether"
            },
            {
                "address": "0xd2bd6415db70a0f0b26c973b15b63bac74f5c9c6",
                "label": "Blockchain To Application (BTA)"
            },
            {
                "address": "0x0000000000000000000000000000000000000001",
                "label": "Precompiled"
            },
            {
                "address": "0x0000000000000000000000000000000000000002",
                "label": "Precompiled"
            }
        ]
    },
    "trace": {
        "accountLabels": null,
        "dataMap": {
            "-1": {
                "invocation": {
                    "address": "0xccfff442171da64e5e2019778db98dd2869b72a4",
                    "callData": "",
                    "decodedMethod": null,
                    "errorInfo": "",
                    "fromAddress": "",
                    "gasUsed": 0,
                    "id": -1,
                    "methodDecoded": false,
                    "operation": "",
                    "output": "",
                    "revert": false,
                    "revertMessage": "",
                    "selector": "",
                    "status": false,
                    "value": ""
                },
                "nodeType": 0
            },
            "0": {
                "invocation": {
                    "address": "0xd2bd6415db70a0f0b26c973b15b63bac74f5c9c6",
                    "callData": "0x000000000000000000000000939890f511e67a239986548f220b7fff91c19d2f0000000000000000000000000000000000000000000000be5fe05ebd390b0000",
                    "decodedMethod": {
                        "callParams": [
                            {
                                "name": "_to",
                                "type": "address",
                                "value": "0x939890f511e67a239986548f220b7fff91c19d2f"
                            },
                            {
                                "decimalAvailable": true,
                                "name": "_value",
                                "type": "uint256",
                                "value": "3,511,790,000,000,000,000,000"
                            }
                        ],
                        "constructorArguments": "",
                        "name": "transfer",
                        "returnParams": [
                            {
                                "name": "",
                                "type": "bool",
                                "value": true
                            }
                        ],
                        "signature": "transfer(address,uint256)"
                    },
                    "errorInfo": "",
                    "fromAddress": "0xccfff442171da64e5e2019778db98dd2869b72a4",
                    "gasUsed": 22475,
                    "id": 0,
                    "methodDecoded": true,
                    "operation": "CALL",
                    "output": "0x0000000000000000000000000000000000000000000000000000000000000001",
                    "revert": false,
                    "revertMessage": "",
                    "selector": "0xa9059cbb",
                    "status": true,
                    "value": "0"
                },
                "nodeType": 0
            },
            "1": {
                "event": {
                    "contract": "0xd2bd6415db70a0f0b26c973b15b63bac74f5c9c6",
                    "decodedLog": {
                        "name": "Transfer",
                        "params": [
                            {
                                "name": "from",
                                "type": "address",
                                "value": "0xccfff442171da64e5e2019778db98dd2869b72a4"
                            },
                            {
                                "name": "to",
                                "type": "address",
                                "value": "0x939890f511e67a239986548f220b7fff91c19d2f"
                            },
                            {
                                "decimalAvailable": true,
                                "name": "value",
                                "type": "uint256",
                                "value": "3,511,790,000,000,000,000,000"
                            }
                        ],
                        "signature": "Transfer(address,address,uint256)"
                    },
                    "id": 1,
                    "logData": "0x0000000000000000000000000000000000000000000000be5fe05ebd390b0000",
                    "logDecoded": true,
                    "operation": "EVENT",
                    "revert": false,
                    "status": true,
                    "topics": [
                        "0xddf252ad1be2c89b69c2b068fc378daa952ba7f163c4a11628f55a4df523b3ef",
                        "0x000000000000000000000000ccfff442171da64e5e2019778db98dd2869b72a4",
                        "0x000000000000000000000000939890f511e67a239986548f220b7fff91c19d2f"
                    ]
                },
                "nodeType": 1
            }
        },
        "gasFlame": [
            {
                "children": [
                    {
                        "children": [
                            {
                                "children": [],
                                "depth": 0,
                                "name": "Initial Gas",
                                "value": 23256
                            },
                            {
                                "children": [],
                                "depth": 0,
                                "name": "Executed Gas",
                                "value": 14219
                            }
                        ],
                        "depth": -1,
                        "name": "Actual Gas Used",
                        "value": 22475
                    },
                    {
                        "children": [],
                        "depth": -1,
                        "name": "Refunded Gas",
                        "value": 15000
                    }
                ],
                "depth": -2,
                "name": "Total Gas",
                "value": 37475
            }
        ],
        "isConfirmed": true,
        "mainTrace": [
            {
                "children": [
                    {
                        "children": [
                            {
                                "children": [],
                                "depth": 1,
                                "id": 1,
                                "order": 1
                            }
                        ],
                        "depth": 0,
                        "id": 0,
                        "order": 0
                    }
                ],
                "depth": -1,
                "id": -1,
                "order": -1
            }
        ],
        "mainTraceNodeCount": 2,
        "parentIdMap": {
            "0": -1,
            "1": 0
        },
        "tidyTrace": [
            {
                "children": [
                    {
                        "children": [
                            {
                                "children": [],
                                "depth": 1,
                                "id": 1,
                                "order": 1
                            }
                        ],
                        "depth": 0,
                        "id": 0,
                        "order": 0
                    }
                ],
                "depth": -1,
                "id": -1,
                "order": -1
            }
        ],
        "tidyTraceNodeCount": 2
    },
    "state_change": {
        "stateChanges": [
            {
                "address": "0xd2bd6415db70a0f0b26c973b15b63bac74f5c9c6",
                "erc": "ERC-20",
                "slots": [
                    {
                        "current": "0x000000000000000000000000000000000000000000000ea2c8ec33d323b78000",
                        "key": "0xaa9505068fbeb37eeb6974c2868d3d238f6e43e6547a6dd56f56be67682494bf",
                        "prev": "0x000000000000000000000000000000000000000000000de4690bd515eaac8000"
                    },
                    {
                        "current": "0x0000000000000000000000000000000000000000000000000000000000000000",
                        "key": "0x2dea04dd8e579b6b72339bb4d1089a69ffe61709d32c06637ce8d3b2ee679030",
                        "prev": "0x0000000000000000000000000000000000000000000000be5fe05ebd390b0000"
                    }
                ],
                "storageVariables": [
                    {
                        "name": "balances",
                        "type": "mapping(address => uint256)",
                        "value": {
                            "pairs": [
                                {
                                    "key": "0x939890f511e67a239986548f220b7fff91c19d2f",
                                    "value": {
                                        "current": "69115981304000000000000",
                                        "prev": "65604191304000000000000",
                                        "typeTag": 1
                                    }
                                },
                                {
                                    "key": "0xccfff442171da64e5e2019778db98dd2869b72a4",
                                    "value": {
                                        "current": "0",
                                        "prev": "3511790000000000000000",
                                        "typeTag": 1
                                    }
                                }
                            ],
                            "typeTag": 4
                        }
                    }
                ]
            }
        ]
    }
}