{
    "balance_change": {
        "balanceChanges": [
            {
                "account": "0x5405ef99d6e27eec4672b61d7f91fb90da9079ed",
                "assets": [
                    {
                        "address": "0xeeeeeeeeeeeeeeeeeeeeeeeeeeeeeeeeeeeeeeee",
                        "amount": "0.05",
                        "iconUrl": "https://assets.blocksec.com/image/1663669189317-3.png",
                        "isERC1155": false,
                        "isERC721": false,
                        "sign": false,
                        "value": "159.31237499999999728"
                    },
                    {
                        "address": "0x155788dd4b3ccd955a5b2d461c7d6504f83f71fa",
                        "amount": "12,019,199.679395447",
                        "iconUrl": "",
                        "isERC1155": false,
                        "isERC721": false,
                        "sign": true,
                        "value": "153.9983363"
                    }
                ]
            },
            {
                "account": "0x00000047bb99ea4d791bb749d970de71ee0b1a34",
                "assets": [
                    {
                        "address": "0xeeeeeeeeeeeeeeeeeeeeeeeeeeeeeeeeeeeeeeee",
                        "amount": "0.00015",
                        "iconUrl": "https://assets.blocksec.com/image/1663669189317-3.png",
                        "isERC1155": false,
                        "isERC721": false,
                        "sign": true,
                        "value": "0.47793712499999999182"
                    }
                ]
            },
            {
                "account": "0xc02aaa39b223fe8d0a0e5c4f27ead9083c756cc2",
                "assets": [
                    {
                        "address": "0xc02aaa39b223fe8d0a0e5c4f27ead9083c756cc2",
                        "amount": "0.04985",
                        "iconUrl": "https://assets.blocksec.com/icon/f1cb2d02c471d545bbc7722daf3277fd852d98e63d118771af7047bd8256c516.png",
                        "isERC1155": false,
                        "isERC721": false,
                        "sign": false,
                        "value": "158.83443787499999728"
                    },
                    {
                        "address": "0xeeeeeeeeeeeeeeeeeeeeeeeeeeeeeeeeeeeeeeee",
                        "amount": "0.04985",
                        "iconUrl": "https://assets.blocksec.com/image/1663669189317-3.png",
                        "isERC1155": false,
                        "isERC721": false,
                        "sign": true,
                        "value": "158.83443787499999728"
                    }
                ]
            },
            {
                "account": "0xd726e3b6858d81ab6ad5b7cbb7a62ea00c5c25bd",
                "assets": [
                    {
                        "address": "0x155788dd4b3ccd955a5b2d461c7d6504f83f71fa",
                        "amount": "12,019,199.679395447",
                        "iconUrl": "",
                        "isERC1155": false,
                        "isERC721": false,
                        "sign": false,
                        "value": "153.9983363"
                    },
                    {
                        "address": "0xc02aaa39b223fe8d0a0e5c4f27ead9083c756cc2",
                        "amount": "0.04985",
                        "iconUrl": "https://assets.blocksec.com/icon/f1cb2d02c471d545bbc7722daf3277fd852d98e63d118771af7047bd8256c516.png",
                        "isERC1155": false,
                        "isERC721": false,
                        "sign": true,
                        "value": "158.83443787499999728"
                    }
                ]
            }
        ]
    },
    "profile": {
        "basic_info": {
            "baseFee": "1.698231747",
            "blockNumber": 20387046,
            "callData": "0x0dc4bdae00000000000000000000000000000000000000000000000000000000000000400000000000000000000000000000000000000000000000000000000066a2f73f0000000000000000000000005405ef99d6e27eec4672b61d7f91fb90da9079ed000000000000000000000000c02aaa39b223fe8d0a0e5c4f27ead9083c756cc20000000000000000000000007a250d5630b4cf539739df2c5dacb4c659f2488d00000000000000000000000000000000000000000000000000b1a2bc2ec50000000000000000000000000000000000000000000000000000002aa17666e7d5200000000000000000000000000000000000000000000000000000886c98b76000000000000000000000000000000000000000000000000000000000000000014000000000000000000000000000000000000000000000000000000000000001a000000000000000000000000000000000000000000000000000000000000001e0000000000000000000000000000000000000000000000000000000000000020000000000000000000000000000000000000000000000000000000000000000020000000000000000000000000000000000000000000000000000000000000000000000000000000000000000155788dd4b3ccd955a5b2d461c7d6504f83f71fa0000000000000000000000000000000000000000000000000000000000000001000000000000000000000000d726e3b6858d81ab6ad5b7cbb7a62ea00c5c25bd00000000000000000000000000000000000000000000000000000000000000000000000000000000000000000000000000000000000000000000000000000007616e64726f696400000000000000000000000000000000000000000000000000",
            "debugEnable": true,
            "errorInfo": "",
            "eventCount": 6,
            "feeRecipient": "0x95222290dd7278aa3ddd389cc1e1d165cc4bafe5",
            "formatValue": "0.05",
            "gasLimit": 255477,
            "gasPrice": "1.775231747",
            "gasUsed": 148189,
            "intTxnCount": 8,
            "internalRevert": false,
            "internalRevertMessage": "",
            "isContractCreation": false,
            "isFlashloan": false,
            "maxFee": "2.45",
            "nonce": 48,
            "overwritedBlockNumber": -1,
            "priorityFee": "0.077",
            "receiver": "0x00000047bb99ea4d791bb749d970de71ee0b1a34",
            "revertMessage": "",
            "sender": "0x5405ef99d6e27eec4672b61d7f91fb90da9079ed",
            "simulationEnable": true,
            "sourceTxnHash": "0x1031cd2f0e3b485712c17aa43ebae2a46497c4c866c232bf4846a15ba5ff4151",
            "status": true,
            "timestamp": "2024-07-26T00:09:23Z",
            "transactionFee": "0.000263069817356183",
            "txnHash": "0x1031cd2f0e3b485712c17aa43ebae2a46497c4c866c232bf4846a15ba5ff4151",
            "txnIndex": 96,
            "type": 2,
            "value": "50000000000000000"
        },
        "fund_flow": [
            {
                "amount": "0.05",
                "from": "0x5405ef99d6e27eec4672b61d7f91fb90da9079ed",
                "id": 1,
                "isERC1155": false,
                "isERC721": false,
                "isReverted": false,
                "order": 1,
                "to": "0x00000047bb99ea4d791bb749d970de71ee0b1a34",
                "token": "0xeeeeeeeeeeeeeeeeeeeeeeeeeeeeeeeeeeeeeeee"
            },
            {
                "amount": "0.04985",
                "from": "0x00000047bb99ea4d791bb749d970de71ee0b1a34",
                "id": 2,
                "isERC1155": false,
                "isERC721": false,
                "isReverted": false,
                "order": 2,
                "to": "0xc02aaa39b223fe8d0a0e5c4f27ead9083c756cc2",
                "token": "0xeeeeeeeeeeeeeeeeeeeeeeeeeeeeeeeeeeeeeeee"
            },
            {
                "amount": "0.04985",
                "from": "0xc02aaa39b223fe8d0a0e5c4f27ead9083c756cc2",
                "id": 3,
                "isERC1155": false,
                "isERC721": false,
                "isReverted": false,
                "order": 3,
                "to": "0x00000047bb99ea4d791bb749d970de71ee0b1a34",
                "token": "0xc02aaa39b223fe8d0a0e5c4f27ead9083c756cc2"
            },
            {
                "amount": "0.04985",
                "from": "0x00000047bb99ea4d791bb749d970de71ee0b1a34",
                "id": 4,
                "isERC1155": false,
                "isERC721": false,
                "isReverted": false,
                "order": 4,
                "to": "0xd726e3b6858d81ab6ad5b7cbb7a62ea00c5c25bd",
                "token": "0xc02aaa39b223fe8d0a0e5c4f27ead9083c756cc2"
            },
            {
                "amount": "12,019,199.679395447",
                "from": "0xd726e3b6858d81ab6ad5b7cbb7a62ea00c5c25bd",
                "id": 5,
                "isERC1155": false,
                "isERC721": false,
                "isReverted": false,
                "order": 5,
                "to": "0x5405ef99d6e27eec4672b61d7f91fb90da9079ed",
                "token": "0x155788dd4b3ccd955a5b2d461c7d6504f83f71fa"
            }
        ],
        "token_infos": [
            {
                "address": "0xc02aaa39b223fe8d0a0e5c4f27ead9083c756cc2",
                "decimals": 18
            },
            {
                "address": "0xeeeeeeeeeeeeeeeeeeeeeeeeeeeeeeeeeeeeeeee",
                "decimals": 18
            },
            {
                "address": "0x155788dd4b3ccd955a5b2d461c7d6504f83f71fa",
                "decimals": 9
            }
        ]
    },
    "address_label": {
        "labels": [
            {
                "address": "0xd726e3b6858d81ab6ad5b7cbb7a62ea00c5c25bd",
                "label": "Uniswap V2: HARRIS 2"
            },
            {
                "address": "0x0000000000000000000000000000000000000003",
                "label": "Precompiled"
            },
            {
                "address": "0x0000000000000000000000000000000000000004",
                "label": "Precompiled"
            },
            {
                "address": "0xeeeeeeeeeeeeeeeeeeeeeeeeeeeeeeeeeeeeeeee",
                "label": "Ether"
            },
            {
                "address": "0xc02aaa39b223fe8d0a0e5c4f27ead9083c756cc2",
                "label": "Wrapped Ether (WETH)"
            },
            {
                "address": "0x0000000000000000000000000000000000000000",
                "label": "Null Address"
            },
            {
                "address": "0x155788dd4b3ccd955a5b2d461c7d6504f83f71fa",
                "label": "HARRIS"
            },
            {
                "address": "0x0000000000000000000000000000000000000001",
                "label": "Precompiled"
            },
            {
                "address": "0x0000000000000000000000000000000000000002",
                "label": "Precompiled"
            },
            {
                "address": "0x00000047bb99ea4d791bb749d970de71ee0b1a34",
                "label": "TransitSwap v5: Router"
            },
            {
                "address": "0x7a250d5630b4cf539739df2c5dacb4c659f2488d",
                "label": "Uniswap V2: Router 2"
            }
        ]
    },
    "trace": {
        "accountLabels": null,
        "dataMap": {
            "-1": {
                "invocation": {
                    "address": "0x5405ef99d6e27eec4672b61d7f91fb90da9079ed",
                    "callData": "",
                    "decodedMethod": null,
                    "errorInfo": "",
                    "fromAddress": "",
                    "gasUsed": 0,
                    "id": -1,
                    "methodDecoded": false,
                    "operation": "",
                    "output": "",
                    "revert": false,
                    "revertMessage": "",
                    "selector": "",
                    "status": false,
                    "value": ""
                },
                "nodeType": 0
            },
            "0": {
                "invocation": {
                    "address": "0x00000047bb99ea4d791bb749d970de71ee0b1a34",
                    "callData": "0x00000000000000000000000000000000000000000000000000000000000000400000000000000000000000000000000000000000000000000000000066a2f73f0000000000000000000000005405ef99d6e27eec4672b61d7f91fb90da9079ed000000000000000000000000c02aaa39b223fe8d0a0e5c4f27ead9083c756cc20000000000000000000000007a250d5630b4cf539739df2c5dacb4c659f2488d00000000000000000000000000000000000000000000000000b1a2bc2ec50000000000000000000000000000000000000000000000000000002aa17666e7d5200000000000000000000000000000000000000000000000000000886c98b76000000000000000000000000000000000000000000000000000000000000000014000000000000000000000000000000000000000000000000000000000000001a000000000000000000000000000000000000000000000000000000000000001e0000000000000000000000000000000000000000000000000000000000000020000000000000000000000000000000000000000000000000000000000000000020000000000000000000000000000000000000000000000000000000000000000000000000000000000000000155788dd4b3ccd955a5b2d461c7d6504f83f71fa0000000000000000000000000000000000000000000000000000000000000001000000000000000000000000d726e3b6858d81ab6ad5b7cbb7a62ea00c5c25bd00000000000000000000000000000000000000000000000000000000000000000000000000000000000000000000000000000000000000000000000000000007616e64726f696400000000000000000000000000000000000000000000000000",
                    "decodedMethod": {
                        "callParams": [
                            {
                                "name": "exactInput",
                                "type": "(address,address,uint256,uint256,uint256,uint256,address[],address[],bytes,string)",
                                "value": [
                                    {
                                        "name": "dstReceiver",
                                        "type": "address",
                                        "value": "0x5405ef99d6e27eec4672b61d7f91fb90da9079ed"
                                    },
                                    {
                                        "name": "wrappedToken",
                                        "type": "address",
                                        "value": "0xc02aaa39b223fe8d0a0e5c4f27ead9083c756cc2"
                                    },
                                    {
                                        "name": "router",
                                        "type": "uint256",
                                        "value": "697,323,163,401,596,485,410,334,513,241,460,920,685,086,001,293"
                                    },
                                    {
                                        "name": "amount",
                                        "type": "uint256",
                                        "value": "50,000,000,000,000,000"
                                    },
                                    {
                                        "name": "minReturnAmount",
                                        "type": "uint256",
                                        "value": "11,999,478,926,529,824"
                                    },
                                    {
                                        "name": "fee",
                                        "type": "uint256",
                                        "value": "150,000,000,000,000"
                                    },
                                    {
                                        "name": "path",
                                        "type": "address[]",
                                        "value": [
                                            "0x0000000000000000000000000000000000000000",
                                            "0x155788dd4b3ccd955a5b2d461c7d6504f83f71fa"
                                        ]
                                    },
                                    {
                                        "name": "pool",
                                        "type": "address[]",
                                        "value": [
                                            "0xd726e3b6858d81ab6ad5b7cbb7a62ea00c5c25bd"
                                        ]
                                    },
                                    {
                                        "name": "signature",
                                        "type": "bytes",
                                        "value": "0x"
                                    },
                                    {
                                        "name": "channel",
                                        "type": "string",
                                        "value": "android"
                                    }
                                ]
                            },
                            {
                                "name": "deadline",
                                "type": "uint256",
                                "value": "1,721,956,159"
                            }
                        ],
                        "constructorArguments": "",
                        "name": "exactInputV2Swap",
                        "returnParams": [
                            {
                                "name": "returnAmount",
                                "type": "uint256",
                                "value": "12,019,199,679,395,447"
                            }
                        ],
                        "signature": "exactInputV2Swap((address,address,uint256,uint256,uint256,uint256,address[],address[],bytes,string),uint256)"
                    },
                    "errorInfo": "",
                    "fromAddress": "0x5405ef99d6e27eec4672b61d7f91fb90da9079ed",
                    "gasUsed": 148189,
                    "id": 0,
                    "methodDecoded": true,
                    "operation": "CALL",
                    "output": "0x000000000000000000000000000000000000000000000000002ab365ff5ff677",
                    "revert": false,
                    "revertMessage": "",
                    "selector": "0x0dc4bdae",
                    "status": true,
                    "value": "0.05"
                },
                "nodeType": 0
            },
            "1": {
                "invocation": {
                    "address": "0xc02aaa39b223fe8d0a0e5c4f27ead9083c756cc2",
                    "callData": "0x",
                    "decodedMethod": {
                        "callParams": [],
                        "constructorArguments": "",
                        "name": "deposit",
                        "returnParams": [],
                        "signature": "deposit()"
                    },
                    "errorInfo": "",
                    "fromAddress": "0x00000047bb99ea4d791bb749d970de71ee0b1a34",
                    "gasUsed": 6874,
                    "id": 1,
                    "methodDecoded": true,
                    "operation": "CALL",
                    "output": "",
                    "revert": false,
                    "revertMessage": "",
                    "selector": "0xd0e30db0",
                    "status": true,
                    "value": "0.04985"
                },
                "nodeType": 0
            },
            "10": {
                "invocation": {
                    "address": "0x155788dd4b3ccd955a5b2d461c7d6504f83f71fa",
                    "callData": "0x000000000000000000000000d726e3b6858d81ab6ad5b7cbb7a62ea00c5c25bd",
                    "decodedMethod": {
                        "callParams": [
                            {
                                "name": "account",
                                "type": "address",
                                "value": "0xd726e3b6858d81ab6ad5b7cbb7a62ea00c5c25bd"
                            }
                        ],
                        "constructorArguments": "",
                        "name": "balanceOf",
                        "returnParams": [
                            {
                                "decimalAvailable": true,
                                "name": "",
                                "type": "uint256",
                                "value": "12,594,814,638,002,596,057"
                            }
                        ],
                        "signature": "balanceOf(address)"
                    },
                    "errorInfo": "",
                    "fromAddress": "0xd726e3b6858d81ab6ad5b7cbb7a62ea00c5c25bd",
                    "gasUsed": 639,
                    "id": 10,
                    "methodDecoded": true,
                    "operation": "STATICCALL",
                    "output": "0x000000000000000000000000000000000000000000000000aec9c52ede08e8d9",
                    "revert": false,
                    "revertMessage": "",
                    "selector": "0x70a08231",
                    "status": true,
                    "value": "0"
                },
                "nodeType": 0
            },
            "11": {
                "invocation": {
                    "address": "0xc02aaa39b223fe8d0a0e5c4f27ead9083c756cc2",
                    "callData": "0x000000000000000000000000d726e3b6858d81ab6ad5b7cbb7a62ea00c5c25bd",
                    "decodedMethod": {
                        "callParams": [
                            {
                                "name": "",
                                "type": "address",
                                "value": "0xd726e3b6858d81ab6ad5b7cbb7a62ea00c5c25bd"
                            }
                        ],
                        "constructorArguments": "",
                        "name": "balanceOf",
                        "returnParams": [
                            {
                                "decimalAvailable": true,
                                "name": "",
                                "type": "uint256",
                                "value": "52,130,518,586,313,195,530"
                            }
                        ],
                        "signature": "balanceOf(address)"
                    },
                    "errorInfo": "",
                    "fromAddress": "0xd726e3b6858d81ab6ad5b7cbb7a62ea00c5c25bd",
                    "gasUsed": 534,
                    "id": 11,
                    "methodDecoded": true,
                    "operation": "STATICCALL",
                    "output": "0x000000000000000000000000000000000000000000000002d374ce747618c00a",
                    "revert": false,
                    "revertMessage": "",
                    "selector": "0x70a08231",
                    "status": true,
                    "value": "0"
                },
                "nodeType": 0
            },
            "12": {
                "event": {
                    "contract": "0xd726e3b6858d81ab6ad5b7cbb7a62ea00c5c25bd",
                    "decodedLog": {
                        "name": "Sync",
                        "params": [
                            {
                                "name": "reserve0",
                                "type": "uint112",
                                "value": "12,594,814,638,002,596,057"
                            },
                            {
                                "name": "reserve1",
                                "type": "uint112",
                                "value": "52,130,518,586,313,195,530"
                            }
                        ],
                        "signature": "Sync(uint112,uint112)"
                    },
                    "id": 12,
                    "logData": "0x000000000000000000000000000000000000000000000000aec9c52ede08e8d9000000000000000000000000000000000000000000000002d374ce747618c00a",
                    "logDecoded": true,
                    "operation": "EVENT",
                    "revert": false,
                    "status": true,
                    "topics": [
                        "0x1c411e9a96e071241c2f21f7726b17ae89e3cab4c78be50e062b03a9fffbbad1"
                    ]
                },
                "nodeType": 1
            },
            "13": {
                "event": {
                    "contract": "0xd726e3b6858d81ab6ad5b7cbb7a62ea00c5c25bd",
                    "decodedLog": {
                        "name": "Swap",
                        "params": [
                            {
                                "name": "sender",
                                "type": "address",
                                "value": "0x00000047bb99ea4d791bb749d970de71ee0b1a34"
                            },
                            {
                                "name": "to",
                                "type": "address",
                                "value": "0x5405ef99d6e27eec4672b61d7f91fb90da9079ed"
                            },
                            {
                                "name": "amount0In",
                                "type": "uint256",
                                "value": "0"
                            },
                            {
                                "name": "amount1In",
                                "type": "uint256",
                                "value": "49,850,000,000,000,000"
                            },
                            {
                                "name": "amount0Out",
                                "type": "uint256",
                                "value": "12,019,199,679,395,447"
                            },
                            {
                                "name": "amount1Out",
                                "type": "uint256",
                                "value": "0"
                            }
                        ],
                        "signature": "Swap(address,uint256,uint256,uint256,uint256,address)"
                    },
                    "id": 13,
                    "logData": "0x000000000000000000000000000000000000000000000000000000000000000000000000000000000000000000000000000000000000000000b11a4f960da000000000000000000000000000000000000000000000000000002ab365ff5ff6770000000000000000000000000000000000000000000000000000000000000000",
                    "logDecoded": true,
                    "operation": "EVENT",
                    "revert": false,
                    "status": true,
                    "topics": [
                        "0xd78ad95fa46c994b6551d0da85fc275fe613ce37657fb8d5e3d130840159d822",
                        "0x00000000000000000000000000000047bb99ea4d791bb749d970de71ee0b1a34",
                        "0x0000000000000000000000005405ef99d6e27eec4672b61d7f91fb90da9079ed"
                    ]
                },
                "nodeType": 1
            },
            "14": {
                "event": {
                    "contract": "0x00000047bb99ea4d791bb749d970de71ee0b1a34",
                    "decodedLog": {
                        "name": "TransitSwapped",
                        "params": [
                            {
                                "name": "srcToken",
                                "type": "address",
                                "value": "0x0000000000000000000000000000000000000000"
                            },
                            {
                                "name": "dstToken",
                                "type": "address",
                                "value": "0x155788dd4b3ccd955a5b2d461c7d6504f83f71fa"
                            },
                            {
                                "name": "dstReceiver",
                                "type": "address",
                                "value": "0x5405ef99d6e27eec4672b61d7f91fb90da9079ed"
                            },
                            {
                                "name": "amount",
                                "type": "uint256",
                                "value": "50,000,000,000,000,000"
                            },
                            {
                                "name": "returnAmount",
                                "type": "uint256",
                                "value": "12,019,199,679,395,447"
                            },
                            {
                                "name": "toChainID",
                                "type": "uint256",
                                "value": "0"
                            },
                            {
                                "name": "channel",
                                "type": "string",
                                "value": "android"
                            }
                        ],
                        "signature": "TransitSwapped(address,address,address,uint256,uint256,uint256,string)"
                    },
                    "id": 14,
                    "logData": "0x00000000000000000000000000000000000000000000000000b1a2bc2ec50000000000000000000000000000000000000000000000000000002ab365ff5ff677000000000000000000000000000000000000000000000000000000000000000000000000000000000000000000000000000000000000000000000000000000800000000000000000000000000000000000000000000000000000000000000007616e64726f696400000000000000000000000000000000000000000000000000",
                    "logDecoded": true,
                    "operation": "EVENT",
                    "revert": false,
                    "status": true,
                    "topics": [
                        "0x2251435bd151cd72851a82be055bf6d1c3d7f34d08d56493dddf874229b8e897",
                        "0x0000000000000000000000000000000000000000000000000000000000000000",
                        "0x000000000000000000000000155788dd4b3ccd955a5b2d461c7d6504f83f71fa",
                        "0x0000000000000000000000005405ef99d6e27eec4672b61d7f91fb90da9079ed"
                    ]
                },
                "nodeType": 1
            },
            "2": {
                "event": {
                    "contract": "0xc02aaa39b223fe8d0a0e5c4f27ead9083c756cc2",
                    "decodedLog": {
                        "name": "Deposit",
                        "params": [
                            {
                                "name": "dst",
                                "type": "address",
                                "value": "0x00000047bb99ea4d791bb749d970de71ee0b1a34"
                            },
                            {
                                "name": "wad",
                                "type": "uint256",
                                "value": "49,850,000,000,000,000"
                            }
                        ],
                        "signature": "Deposit(address,uint256)"
                    },
                    "id": 2,
                    "logData": "0x00000000000000000000000000000000000000000000000000b11a4f960da000",
                    "logDecoded": true,
                    "operation": "EVENT",
                    "revert": false,
                    "status": true,
                    "topics": [
                        "0xe1fffcc4923d04b559f4d29a8bfc6cda04eb5b0d3c460751c2402c5c5cc9109c",
                        "0x00000000000000000000000000000047bb99ea4d791bb749d970de71ee0b1a34"
                    ]
                },
                "nodeType": 1
            },
            "3": {
                "invocation": {
                    "address": "0xc02aaa39b223fe8d0a0e5c4f27ead9083c756cc2",
                    "callData": "0x000000000000000000000000d726e3b6858d81ab6ad5b7cbb7a62ea00c5c25bd00000000000000000000000000000000000000000000000000b11a4f960da000",
                    "decodedMethod": {
                        "callParams": [
                            {
                                "name": "dst",
                                "type": "address",
                                "value": "0xd726e3b6858d81ab6ad5b7cbb7a62ea00c5c25bd"
                            },
                            {
                                "decimalAvailable": true,
                                "name": "wad",
                                "type": "uint256",
                                "value": "49,850,000,000,000,000"
                            }
                        ],
                        "constructorArguments": "",
                        "name": "transfer",
                        "returnParams": [
                            {
                                "name": "",
                                "type": "bool",
                                "value": true
                            }
                        ],
                        "signature": "transfer(address,uint256)"
                    },
                    "errorInfo": "",
                    "fromAddress": "0x00000047bb99ea4d791bb749d970de71ee0b1a34",
                    "gasUsed": 8062,
                    "id": 3,
                    "methodDecoded": true,
                    "operation": "CALL",
                    "output": "0x0000000000000000000000000000000000000000000000000000000000000001",
                    "revert": false,
                    "revertMessage": "",
                    "selector": "0xa9059cbb",
                    "status": true,
                    "value": "0"
                },
                "nodeType": 0
            },
            "4": {
                "event": {
                    "contract": "0xc02aaa39b223fe8d0a0e5c4f27ead9083c756cc2",
                    "decodedLog": {
                        "name": "Transfer",
                        "params": [
                            {
                                "name": "src",
                                "type": "address",
                                "value": "0x00000047bb99ea4d791bb749d970de71ee0b1a34"
                            },
                            {
                                "name": "dst",
                                "type": "address",
                                "value": "0xd726e3b6858d81ab6ad5b7cbb7a62ea00c5c25bd"
                            },
                            {
                                "decimalAvailable": true,
                                "name": "wad",
                                "type": "uint256",
                                "value": "49,850,000,000,000,000"
                            }
                        ],
                        "signature": "Transfer(address,address,uint256)"
                    },
                    "id": 4,
                    "logData": "0x00000000000000000000000000000000000000000000000000b11a4f960da000",
                    "logDecoded": true,
                    "operation": "EVENT",
                    "revert": false,
                    "status": true,
                    "topics": [
                        "0xddf252ad1be2c89b69c2b068fc378daa952ba7f163c4a11628f55a4df523b3ef",
                        "0x00000000000000000000000000000047bb99ea4d791bb749d970de71ee0b1a34",
                        "0x000000000000000000000000d726e3b6858d81ab6ad5b7cbb7a62ea00c5c25bd"
                    ]
                },
                "nodeType": 1
            },
            "5": {
                "invocation": {
                    "address": "0x7a250d5630b4cf539739df2c5dacb4c659f2488d",
                    "callData": "0x00000000000000000000000000000000000000000000000000b11a4f960da00000000000000000000000000000000000000000000000000000000000000000400000000000000000000000000000000000000000000000000000000000000002000000000000000000000000c02aaa39b223fe8d0a0e5c4f27ead9083c756cc2000000000000000000000000155788dd4b3ccd955a5b2d461c7d6504f83f71fa",
                    "decodedMethod": {
                        "callParams": [
                            {
                                "name": "amountIn",
                                "type": "uint256",
                                "value": "49,850,000,000,000,000"
                            },
                            {
                                "name": "path",
                                "type": "address[]",
                                "value": [
                                    "0xc02aaa39b223fe8d0a0e5c4f27ead9083c756cc2",
                                    "0x155788dd4b3ccd955a5b2d461c7d6504f83f71fa"
                                ]
                            }
                        ],
                        "constructorArguments": "",
                        "name": "getAmountsOut",
                        "returnParams": [
                            {
                                "name": "amounts",
                                "type": "uint256[]",
                                "value": [
                                    "49,850,000,000,000,000",
                                    "12,019,199,679,395,447"
                                ]
                            }
                        ],
                        "signature": "getAmountsOut(uint256,address[])"
                    },
                    "errorInfo": "",
                    "fromAddress": "0x00000047bb99ea4d791bb749d970de71ee0b1a34",
                    "gasUsed": 8612,
                    "id": 5,
                    "methodDecoded": true,
                    "operation": "STATICCALL",
                    "output": "0x0000000000000000000000000000000000000000000000000000000000000020000000000000000000000000000000000000000000000000000000000000000200000000000000000000000000000000000000000000000000b11a4f960da000000000000000000000000000000000000000000000000000002ab365ff5ff677",
                    "revert": false,
                    "revertMessage": "",
                    "selector": "0xd06ca61f",
                    "status": true,
                    "value": "0"
                },
                "nodeType": 0
            },
            "6": {
                "invocation": {
                    "address": "0xd726e3b6858d81ab6ad5b7cbb7a62ea00c5c25bd",
                    "callData": "0x",
                    "decodedMethod": {
                        "callParams": [],
                        "constructorArguments": "",
                        "name": "getReserves",
                        "returnParams": [
                            {
                                "name": "_reserve0",
                                "type": "uint112",
                                "value": "12,606,833,837,681,991,504"
                            },
                            {
                                "name": "_reserve1",
                                "type": "uint112",
                                "value": "52,080,668,586,313,195,530"
                            },
                            {
                                "name": "_blockTimestampLast",
                                "type": "uint32",
                                "value": "1,721,952,563"
                            }
                        ],
                        "signature": "getReserves()"
                    },
                    "errorInfo": "",
                    "fromAddress": "0x7a250d5630b4cf539739df2c5dacb4c659f2488d",
                    "gasUsed": 2504,
                    "id": 6,
                    "methodDecoded": true,
                    "operation": "STATICCALL",
                    "output": "0x000000000000000000000000000000000000000000000000aef47894dd68df50000000000000000000000000000000000000000000000002d2c3b424e00b200a0000000000000000000000000000000000000000000000000000000066a2e933",
                    "revert": false,
                    "revertMessage": "",
                    "selector": "0x0902f1ac",
                    "status": true,
                    "value": "0"
                },
                "nodeType": 0
            },
            "7": {
                "invocation": {
                    "address": "0xd726e3b6858d81ab6ad5b7cbb7a62ea00c5c25bd",
                    "callData": "0x000000000000000000000000000000000000000000000000002ab365ff5ff67700000000000000000000000000000000000000000000000000000000000000000000000000000000000000005405ef99d6e27eec4672b61d7f91fb90da9079ed00000000000000000000000000000000000000000000000000000000000000800000000000000000000000000000000000000000000000000000000000000000",
                    "decodedMethod": {
                        "callParams": [
                            {
                                "name": "amount0Out",
                                "type": "uint256",
                                "value": "12,019,199,679,395,447"
                            },
                            {
                                "name": "amount1Out",
                                "type": "uint256",
                                "value": "0"
                            },
                            {
                                "name": "to",
                                "type": "address",
                                "value": "0x5405ef99d6e27eec4672b61d7f91fb90da9079ed"
                            },
                            {
                                "name": "data",
                                "type": "bytes",
                                "value": "0x"
                            }
                        ],
                        "constructorArguments": "",
                        "name": "swap",
                        "returnParams": [],
                        "signature": "swap(uint256,uint256,address,bytes)"
                    },
                    "errorInfo": "",
                    "fromAddress": "0x00000047bb99ea4d791bb749d970de71ee0b1a34",
                    "gasUsed": 68657,
                    "id": 7,
                    "methodDecoded": true,
                    "operation": "CALL",
                    "output": "",
                    "revert": false,
                    "revertMessage": "",
                    "selector": "0x022c0d9f",
                    "status": true,
                    "value": "0"
                },
                "nodeType": 0
            },
            "8": {
                "invocation": {
                    "address": "0x155788dd4b3ccd955a5b2d461c7d6504f83f71fa",
                    "callData": "0x0000000000000000000000005405ef99d6e27eec4672b61d7f91fb90da9079ed000000000000000000000000000000000000000000000000002ab365ff5ff677",
                    "decodedMethod": {
                        "callParams": [
                            {
                                "name": "recipient",
                                "type": "address",
                                "value": "0x5405ef99d6e27eec4672b61d7f91fb90da9079ed"
                            },
                            {
                                "decimalAvailable": true,
                                "name": "amount",
                                "type": "uint256",
                                "value": "12,019,199,679,395,447"
                            }
                        ],
                        "constructorArguments": "",
                        "name": "transfer",
                        "returnParams": [
                            {
                                "name": "",
                                "type": "bool",
                                "value": true
                            }
                        ],
                        "signature": "transfer(address,uint256)"
                    },
                    "errorInfo": "",
                    "fromAddress": "0xd726e3b6858d81ab6ad5b7cbb7a62ea00c5c25bd",
                    "gasUsed": 44077,
                    "id": 8,
                    "methodDecoded": true,
                    "operation": "CALL",
                    "output": "0x0000000000000000000000000000000000000000000000000000000000000001",
                    "revert": false,
                    "revertMessage": "",
                    "selector": "0xa9059cbb",
                    "status": true,
                    "value": "0"
                },
                "nodeType": 0
            },
            "9": {
                "event": {
                    "contract": "0x155788dd4b3ccd955a5b2d461c7d6504f83f71fa",
                    "decodedLog": {
                        "name": "Transfer",
                        "params": [
                            {
                                "name": "from",
                                "type": "address",
                                "value": "0xd726e3b6858d81ab6ad5b7cbb7a62ea00c5c25bd"
                            },
                            {
                                "name": "to",
                                "type": "address",
                                "value": "0x5405ef99d6e27eec4672b61d7f91fb90da9079ed"
                            },
                            {
                                "decimalAvailable": true,
                                "name": "value",
                                "type": "uint256",
                                "value": "12,019,199,679,395,447"
                            }
                        ],
                        "signature": "Transfer(address,address,uint256)"
                    },
                    "id": 9,
                    "logData": "0x000000000000000000000000000000000000000000000000002ab365ff5ff677",
                    "logDecoded": true,
                    "operation": "EVENT",
                    "revert": false,
                    "status": true,
                    "topics": [
                        "0xddf252ad1be2c89b69c2b068fc378daa952ba7f163c4a11628f55a4df523b3ef",
                        "0x000000000000000000000000d726e3b6858d81ab6ad5b7cbb7a62ea00c5c25bd",
                        "0x0000000000000000000000005405ef99d6e27eec4672b61d7f91fb90da9079ed"
                    ]
                },
                "nodeType": 1
            }
        },
        "gasFlame": [
            {
                "children": [
                    {
                        "children": [
                            {
                                "children": [],
                                "depth": 0,
                                "name": "Initial Gas",
                                "value": 25292
                            },
                            {
                                "children": [
                                    {
                                        "children": [],
                                        "depth": 1,
                                        "name": "deposit",
                                        "value": 6874
                                    },
                                    {
                                        "children": [],
                                        "depth": 1,
                                        "name": "transfer",
                                        "value": 8062
                                    },
                                    {
                                        "children": [
                                            {
                                                "children": [],
                                                "depth": 2,
                                                "name": "getReserves",
                                                "value": 2504
                                            }
                                        ],
                                        "depth": 1,
                                        "name": "getAmountsOut",
                                        "value": 8612
                                    },
                                    {
                                        "children": [
                                            {
                                                "children": [],
                                                "depth": 2,
                                                "name": "transfer",
                                                "value": 44077
                                            },
                                            {
                                                "children": [],
                                                "depth": 2,
                                                "name": "balanceOf",
                                                "value": 639
                                            },
                                            {
                                                "children": [],
                                                "depth": 2,
                                                "name": "balanceOf",
                                                "value": 534
                                            }
                                        ],
                                        "depth": 1,
                                        "name": "swap",
                                        "value": 68657
                                    }
                                ],
                                "depth": 0,
                                "name": "Executed Gas",
                                "value": 131297
                            }
                        ],
                        "depth": -1,
                        "name": "Actual Gas Used",
                        "value": 148189
                    },
                    {
                        "children": [],
                        "depth": -1,
                        "name": "Refunded Gas",
                        "value": 8400
                    }
                ],
                "depth": -2,
                "name": "Total Gas",
                "value": 156589
            }
        ],
        "isConfirmed": true,
        "mainTrace": [
            {
                "children": [
                    {
                        "children": [
                            {
                                "children": [
                                    {
                                        "children": [],
                                        "depth": 2,
                                        "id": 2,
                                        "order": 2
                                    }
                                ],
                                "depth": 1,
                                "id": 1,
                                "order": 1
                            },
                            {
                                "children": [
                                    {
                                        "children": [],
                                        "depth": 2,
                                        "id": 4,
                                        "order": 4
                                    }
                                ],
                                "depth": 1,
                                "id": 3,
                                "order": 3
                            },
                            {
                                "children": [
                                    {
                                        "children": [],
                                        "depth": 2,
                                        "id": 6,
                                        "order": 6
                                    }
                                ],
                                "depth": 1,
                                "id": 5,
                                "order": 5
                            },
                            {
                                "children": [
                                    {
                                        "children": [
                                            {
                                                "children": [],
                                                "depth": 3,
                                                "id": 9,
                                                "order": 9
                                            }
                                        ],
                                        "depth": 2,
                                        "id": 8,
                                        "order": 8
                                    },
                                    {
                                        "children": [],
                                        "depth": 2,
                                        "id": 10,
                                        "order": 10
                                    },
                                    {
                                        "children": [],
                                        "depth": 2,
                                        "id": 11,
                                        "order": 11
                                    },
                                    {
                                        "children": [],
                                        "depth": 2,
                                        "id": 12,
                                        "order": 12
                                    },
                                    {
                                        "children": [],
                                        "depth": 2,
                                        "id": 13,
                                        "order": 13
                                    }
                                ],
                                "depth": 1,
                                "id": 7,
                                "order": 7
                            },
                            {
                                "children": [],
                                "depth": 1,
                                "id": 14,
                                "order": 14
                            }
                        ],
                        "depth": 0,
                        "id": 0,
                        "order": 0
                    }
                ],
                "depth": -1,
                "id": -1,
                "order": -1
            }
        ],
        "mainTraceNodeCount": 15,
        "parentIdMap": {
            "0": -1,
            "1": 0,
            "10": 7,
            "11": 7,
            "12": 7,
            "13": 7,
            "14": 0,
            "2": 1,
            "3": 0,
            "4": 3,
            "5": 0,
            "6": 5,
            "7": 0,
            "8": 7,
            "9": 8
        },
        "tidyTrace": [
            {
                "children": [
                    {
                        "children": [
                            {
                                "children": [
                                    {
                                        "children": [],
                                        "depth": 2,
                                        "id": 2,
                                        "order": 2
                                    }
                                ],
                                "depth": 1,
                                "id": 1,
                                "order": 1
                            },
                            {
                                "children": [
                                    {
                                        "children": [],
                                        "depth": 2,
                                        "id": 4,
                                        "order": 4
                                    }
                                ],
                                "depth": 1,
                                "id": 3,
                                "order": 3
                            },
                            {
                                "children": [
                                    {
                                        "children": [
                                            {
                                                "children": [],
                                                "depth": 3,
                                                "id": 9,
                                                "order": 9
                                            }
                                        ],
                                        "depth": 2,
                                        "id": 8,
                                        "order": 8
                                    },
                                    {
                                        "children": [],
                                        "depth": 2,
                                        "id": 12,
                                        "order": 12
                                    },
                                    {
                                        "children": [],
                                        "depth": 2,
                                        "id": 13,
                                        "order": 13
                                    }
                                ],
                                "depth": 1,
                                "id": 7,
                                "order": 7
                            },
                            {
                                "children": [],
                                "depth": 1,
                                "id": 14,
                                "order": 14
                            }
                        ],
                        "depth": 0,
                        "id": 0,
                        "order": 0
                    }
                ],
                "depth": -1,
                "id": -1,
                "order": -1
            }
        ],
        "tidyTraceNodeCount": 11
    },
    "state_change": {
        "stateChanges": [
            {
                "address": "0x155788dd4b3ccd955a5b2d461c7d6504f83f71fa",
                "erc": "ERC-20",
                "slots": [
                    {
                        "current": "0x0000000000000000000000000000000000000000000000000000000000002cd4",
                        "key": "0x000000000000000000000000000000000000000000000000000000000000000d",
                        "prev": "0x0000000000000000000000000000000000000000000000000000000000002cd3"
                    },
                    {
                        "current": "0x000000000000000000000000000000000000000000000000aec9c52ede08e8d9",
                        "key": "0xa9f4f5d3baa5b7301df9927014da4e49fed261591dcde7ca820555fd9791a7f0",
                        "prev": "0x000000000000000000000000000000000000000000000000aef47894dd68df50"
                    },
                    {
                        "current": "0x00000000000000000000000000000000000000000000000000ba9b6a9ff5ddc7",
                        "key": "0xbf813b64109bc417ec0c9cfdfabbd82c5adb874f1b43c6499fa97e861c449d3d",
                        "prev": "0x000000000000000000000000000000000000000000000000008fe804a095e750"
                    }
                ],
                "storageVariables": [
                    {
                        "name": "_balances",
                        "type": "mapping(address => uint256)",
                        "value": {
                            "pairs": [
                                {
                                    "key": "0x5405ef99d6e27eec4672b61d7f91fb90da9079ed",
                                    "value": {
                                        "current": "52525227920711111",
                                        "prev": "40506028241315664",
                                        "typeTag": 1
                                    }
                                },
                                {
                                    "key": "0xd726e3b6858d81ab6ad5b7cbb7a62ea00c5c25bd",
                                    "value": {
                                        "current": "12594814638002596057",
                                        "prev": "12606833837681991504",
                                        "typeTag": 1
                                    }
                                }
                            ],
                            "typeTag": 4
                        }
                    },
                    {
                        "name": "_buyCount",
                        "type": "uint256",
                        "value": {
                            "current": "11476",
                            "prev": "11475",
                            "typeTag": 1
                        }
                    }
                ]
            },
            {
                "address": "0xc02aaa39b223fe8d0a0e5c4f27ead9083c756cc2",
                "erc": "ERC-20",
                "slots": [
                    {
                        "current": "0x000000000000000000000000000000000000000000000002d374ce747618c00a",
                        "key": "0x262ea3306f5be3e374eb3a38a12fb1f1e97c862e35e81f2a845c1f4e56e23487",
                        "prev": "0x000000000000000000000000000000000000000000000002d2c3b424e00b200a"
                    }
                ],
                "storageVariables": [
                    {
                        "name": "balanceOf",
                        "type": "mapping(address => uint256)",
                        "value": {
                            "pairs": [
                                {
                                    "key": "0xd726e3b6858d81ab6ad5b7cbb7a62ea00c5c25bd",
                                    "value": {
                                        "current": "52130518586313195530",
                                        "prev": "52080668586313195530",
                                        "typeTag": 1
                                    }
                                }
                            ],
                            "typeTag": 4
                        }
                    }
                ]
            },
            {
                "address": "0xd726e3b6858d81ab6ad5b7cbb7a62ea00c5c25bd",
                "erc": "ERC-20",
                "slots": [
                    {
                        "current": "0x66a2e933000000000002d374ce747618c00a000000000000aec9c52ede08e8d9",
                        "key": "0x0000000000000000000000000000000000000000000000000000000000000008",
                        "prev": "0x66a2e933000000000002d2c3b424e00b200a000000000000aef47894dd68df50"
                    }
                ],
                "storageVariables": [
                    {
                        "name": "reserve0",
                        "type": "uint112",
                        "value": {
                            "current": "12594814638002596057",
                            "prev": "12606833837681991504",
                            "typeTag": 1
                        }
                    },
                    {
                        "name": "reserve1",
                        "type": "uint112",
                        "value": {
                            "current": "52130518586313195530",
                            "prev": "52080668586313195530",
                            "typeTag": 1
                        }
                    },
                    {
                        "name": "blockTimestampLast",
                        "type": "uint32",
                        "value": {
                            "current": "1721952563",
                            "prev": "1721952563",
                            "typeTag": 1
                        }
                    }
                ]
            }
        ]
    }
}