{
    "balance_change": {
        "balanceChanges": [
            {
                "account": "0x489402a0c0b1bf77e2425be23e6db3a264cb508b",
                "assets": [
                    {
                        "address": "0x1c040c4ab9acce984d0d4c135576598013950e52",
                        "amount": "81",
                        "iconUrl": "",
                        "isERC1155": false,
                        "isERC721": false,
                        "sign": false,
                        "value": ""
                    }
                ]
            },
            {
                "account": "0xb7497852d0d57d577702ee7185a0fb7b91cfd086",
                "assets": [
                    {
                        "address": "0x1c040c4ab9acce984d0d4c135576598013950e52",
                        "amount": "81",
                        "iconUrl": "",
                        "isERC1155": false,
                        "isERC721": false,
                        "sign": true,
                        "value": ""
                    }
                ]
            }
        ]
    },
    "profile": {
        "basic_info": {
            "baseFee": "",
            "blockNumber": 9602092,
            "callData": "0xa9059cbb000000000000000000000000b7497852d0d57d577702ee7185a0fb7b91cfd0860000000000000000000000000000000000000000000000046419ced7f6a40000",
            "debugEnable": true,
            "errorInfo": "",
            "eventCount": 1,
            "feeRecipient": "0xea674fdde714fd979de3edf0f56aa9716b898ec8",
            "formatValue": "0",
            "gasLimit": 57143,
            "gasPrice": "20",
            "gasUsed": 57143,
            "intTxnCount": 0,
            "internalRevert": false,
            "internalRevertMessage": "",
            "isContractCreation": false,
            "isFlashloan": false,
            "maxFee": "",
            "nonce": 411,
            "overwritedBlockNumber": -1,
            "priorityFee": "",
            "receiver": "0x1c040c4ab9acce984d0d4c135576598013950e52",
            "revertMessage": "",
            "sender": "0x489402a0c0b1bf77e2425be23e6db3a264cb508b",
            "simulationEnable": true,
            "sourceTxnHash": "0x10dcd78c967edb150e9bf3d927a2b9ca6c31722eca32eb7e9d4da17d2d885088",
            "status": true,
            "timestamp": "2020-03-04T02:55:37Z",
            "transactionFee": "0.00114286",
            "txnHash": "0x10dcd78c967edb150e9bf3d927a2b9ca6c31722eca32eb7e9d4da17d2d885088",
            "txnIndex": 15,
            "type": 0,
            "value": "0"
        },
        "fund_flow": [
            {
                "amount": "81",
                "from": "0x489402a0c0b1bf77e2425be23e6db3a264cb508b",
                "id": 1,
                "isERC1155": false,
                "isERC721": false,
                "isReverted": false,
                "order": 1,
                "to": "0xb7497852d0d57d577702ee7185a0fb7b91cfd086",
                "token": "0x1c040c4ab9acce984d0d4c135576598013950e52"
            }
        ],
        "token_infos": [
            {
                "address": "0xeeeeeeeeeeeeeeeeeeeeeeeeeeeeeeeeeeeeeeee",
                "decimals": 18
            },
            {
                "address": "0x1c040c4ab9acce984d0d4c135576598013950e52",
                "decimals": 18
            },
            {
                "address": "0xc02aaa39b223fe8d0a0e5c4f27ead9083c756cc2",
                "decimals": 18
            }
        ]
    },
    "address_label": {
        "labels": [
            {
                "address": "0x0000000000000000000000000000000000000004",
                "label": "Precompiled"
            },
            {
                "address": "0xeeeeeeeeeeeeeeeeeeeeeeeeeeeeeeeeeeeeeeee",
                "label": "Ether"
            },
            {
                "address": "0x1c040c4ab9acce984d0d4c135576598013950e52",
                "label": "Hurricane Network (HNW)"
            },
            {
                "address": "0x0000000000000000000000000000000000000001",
                "label": "Precompiled"
            },
            {
                "address": "0x0000000000000000000000000000000000000002",
                "label": "Precompiled"
            },
            {
                "address": "0x0000000000000000000000000000000000000003",
                "label": "Precompiled"
            }
        ]
    },
    "trace": {
        "accountLabels": null,
        "dataMap": {
            "-1": {
                "invocation": {
                    "address": "0x489402a0c0b1bf77e2425be23e6db3a264cb508b",
                    "callData": "",
                    "decodedMethod": null,
                    "errorInfo": "",
                    "fromAddress": "",
                    "gasUsed": 0,
                    "id": -1,
                    "methodDecoded": false,
                    "operation": "",
                    "output": "",
                    "revert": false,
                    "revertMessage": "",
                    "selector": "",
                    "status": false,
                    "value": ""
                },
                "nodeType": 0
            },
            "0": {
                "invocation": {
                    "address": "0x1c040c4ab9acce984d0d4c135576598013950e52",
                    "callData": "0x000000000000000000000000b7497852d0d57d577702ee7185a0fb7b91cfd0860000000000000000000000000000000000000000000000046419ced7f6a40000",
                    "decodedMethod": {
                        "callParams": [
                            {
                                "name": "_to",
                                "type": "address",
                                "value": "0xb7497852d0d57d577702ee7185a0fb7b91cfd086"
                            },
                            {
                                "decimalAvailable": true,
                                "name": "_value",
                                "type": "uint256",
                                "value": "81,000,000,000,000,000,000"
                            }
                        ],
                        "constructorArguments": "",
                        "name": "transfer",
                        "returnParams": [],
                        "signature": "transfer(address,uint256)"
                    },
                    "errorInfo": "",
                    "fromAddress": "0x489402a0c0b1bf77e2425be23e6db3a264cb508b",
                    "gasUsed": 57143,
                    "id": 0,
                    "methodDecoded": true,
                    "operation": "CALL",
                    "output": "",
                    "revert": false,
                    "revertMessage": "",
                    "selector": "0xa9059cbb",
                    "status": true,
                    "value": "0"
                },
                "nodeType": 0
            },
            "1": {
                "event": {
                    "contract": "0x1c040c4ab9acce984d0d4c135576598013950e52",
                    "decodedLog": {
                        "name": "Transfer",
                        "params": [
                            {
                                "name": "from",
                                "type": "address",
                                "value": "0x489402a0c0b1bf77e2425be23e6db3a264cb508b"
                            },
                            {
                                "name": "to",
                                "type": "address",
                                "value": "0xb7497852d0d57d577702ee7185a0fb7b91cfd086"
                            },
                            {
                                "decimalAvailable": true,
                                "name": "value",
                                "type": "uint256",
                                "value": "81,000,000,000,000,000,000"
                            }
                        ],
                        "signature": "Transfer(address,address,uint256)"
                    },
                    "id": 1,
                    "logData": "0x0000000000000000000000000000000000000000000000046419ced7f6a40000",
                    "logDecoded": true,
                    "operation": "EVENT",
                    "revert": false,
                    "status": true,
                    "topics": [
                        "0xddf252ad1be2c89b69c2b068fc378daa952ba7f163c4a11628f55a4df523b3ef",
                        "0x000000000000000000000000489402a0c0b1bf77e2425be23e6db3a264cb508b",
                        "0x000000000000000000000000b7497852d0d57d577702ee7185a0fb7b91cfd086"
                    ]
                },
                "nodeType": 1
            }
        },
        "gasFlame": [
            {
                "children": [
                    {
                        "children": [
                            {
                                "children": [],
                                "depth": 0,
                                "name": "Initial Gas",
                                "value": 21644
                            },
                            {
                                "children": [],
                                "depth": 0,
                                "name": "Executed Gas",
                                "value": 35499
                            }
                        ],
                        "depth": -1,
                        "name": "Actual Gas Used",
                        "value": 57143
                    },
                    {
                        "children": [],
                        "depth": -1,
                        "name": "Refunded Gas",
                        "value": 0
                    }
                ],
                "depth": -2,
                "name": "Total Gas",
                "value": 57143
            }
        ],
        "isConfirmed": true,
        "mainTrace": [
            {
                "children": [
                    {
                        "children": [
                            {
                                "children": [],
                                "depth": 1,
                                "id": 1,
                                "order": 1
                            }
                        ],
                        "depth": 0,
                        "id": 0,
                        "order": 0
                    }
                ],
                "depth": -1,
                "id": -1,
                "order": -1
            }
        ],
        "mainTraceNodeCount": 2,
        "parentIdMap": {
            "0": -1,
            "1": 0
        },
        "tidyTrace": [
            {
                "children": [
                    {
                        "children": [
                            {
                                "children": [],
                                "depth": 1,
                                "id": 1,
                                "order": 1
                            }
                        ],
                        "depth": 0,
                        "id": 0,
                        "order": 0
                    }
                ],
                "depth": -1,
                "id": -1,
                "order": -1
            }
        ],
        "tidyTraceNodeCount": 2
    },
    "state_change": {
        "stateChanges": [
            {
                "address": "0x1c040c4ab9acce984d0d4c135576598013950e52",
                "erc": "",
                "slots": [
                    {
                        "current": "0x0000000000000000000000000000000000000000000000046419ced7f6a40000",
                        "key": "0x63566e5498e00a113df77cf64894648c4e09ef9e6a5cf2fd1fd051601bf429bf",
                        "prev": "0x0000000000000000000000000000000000000000000000000000000000000000"
                    },
                    {
                        "current": "0x000000000000000000000000000000000000000000001f6b6ce79e8157bd0000",
                        "key": "0x0ff4c27d44e6b22b2180ee58e38b411726ce346ac33907113f0780fa80c81afd",
                        "prev": "0x000000000000000000000000000000000000000000001f6fd1016d594e610000"
                    }
                ],
                "storageVariables": [
                    {
                        "name": "balanceOf",
                        "type": "mapping(address => uint256)",
                        "value": {
                            "pairs": [
                                {
                                    "key": "0x489402a0c0b1bf77e2425be23e6db3a264cb508b",
                                    "value": {
                                        "current": "148375010000000000000000",
                                        "prev": "148456010000000000000000",
                                        "typeTag": 1
                                    }
                                },
                                {
                                    "key": "0xb7497852d0d57d577702ee7185a0fb7b91cfd086",
                                    "value": {
                                        "current": "81000000000000000000",
                                        "prev": "0",
                                        "typeTag": 1
                                    }
                                }
                            ],
                            "typeTag": 4
                        }
                    }
                ]
            }
        ]
    }
}