{
    "balance_change": {
        "balanceChanges": [
            {
                "account": "0x71ba0ee82d403efd13cc963b4df6c5c37bd4093e",
                "assets": [
                    {
                        "address": "0xdac17f958d2ee523a2206206994597c13d831ec7",
                        "amount": "856",
                        "iconUrl": "https://assets.blocksec.com/icon/fcea71f3193ce895be44bfdf941f7e4c9381dd587f273c2d1a27f1263d84e4ea.png",
                        "isERC1155": false,
                        "isERC721": false,
                        "sign": false,
                        "value": "856"
                    }
                ]
            },
            {
                "account": "0x93e9bf35708c0b56755f900e41d04c5e9fc20646",
                "assets": [
                    {
                        "address": "0xdac17f958d2ee523a2206206994597c13d831ec7",
                        "amount": "856",
                        "iconUrl": "https://assets.blocksec.com/icon/fcea71f3193ce895be44bfdf941f7e4c9381dd587f273c2d1a27f1263d84e4ea.png",
                        "isERC1155": false,
                        "isERC721": false,
                        "sign": true,
                        "value": "856"
                    }
                ]
            }
        ]
    },
    "profile": {
        "basic_info": {
            "baseFee": "7.871987536",
            "blockNumber": 20141116,
            "callData": "0xa9059cbb00000000000000000000000093e9bf35708c0b56755f900e41d04c5e9fc206460000000000000000000000000000000000000000000000000000000033058600",
            "debugEnable": true,
            "errorInfo": "",
            "eventCount": 1,
            "feeRecipient": "0x4838b106fce9647bdf1e7877bf73ce8b0bad5f97",
            "formatValue": "0",
            "gasLimit": 69718,
            "gasPrice": "7.971987536",
            "gasUsed": 46097,
            "intTxnCount": 0,
            "internalRevert": false,
            "internalRevertMessage": "",
            "isContractCreation": false,
            "isFlashloan": false,
            "maxFee": "11.889613407",
            "nonce": 84,
            "overwritedBlockNumber": -1,
            "priorityFee": "0.1",
            "receiver": "0xdac17f958d2ee523a2206206994597c13d831ec7",
            "revertMessage": "",
            "sender": "0x71ba0ee82d403efd13cc963b4df6c5c37bd4093e",
            "simulationEnable": true,
            "sourceTxnHash": "0x10d44232942dfb0e81c9ed00bec20b73924d6767a298bff2902b2530e7b4765c",
            "status": true,
            "timestamp": "2024-06-21T15:53:11Z",
            "transactionFee": "0.000367484709446992",
            "txnHash": "0x10d44232942dfb0e81c9ed00bec20b73924d6767a298bff2902b2530e7b4765c",
            "txnIndex": 183,
            "type": 2,
            "value": "0"
        },
        "fund_flow": [
            {
                "amount": "856",
                "from": "0x71ba0ee82d403efd13cc963b4df6c5c37bd4093e",
                "id": 1,
                "isERC1155": false,
                "isERC721": false,
                "isReverted": false,
                "order": 1,
                "to": "0x93e9bf35708c0b56755f900e41d04c5e9fc20646",
                "token": "0xdac17f958d2ee523a2206206994597c13d831ec7"
            }
        ],
        "token_infos": [
            {
                "address": "0xc02aaa39b223fe8d0a0e5c4f27ead9083c756cc2",
                "decimals": 18
            },
            {
                "address": "0xdac17f958d2ee523a2206206994597c13d831ec7",
                "decimals": 6
            },
            {
                "address": "0xeeeeeeeeeeeeeeeeeeeeeeeeeeeeeeeeeeeeeeee",
                "decimals": 18
            }
        ]
    },
    "address_label": {
        "labels": [
            {
                "address": "0x0000000000000000000000000000000000000001",
                "label": "Precompiled"
            },
            {
                "address": "0x0000000000000000000000000000000000000002",
                "label": "Precompiled"
            },
            {
                "address": "0x0000000000000000000000000000000000000003",
                "label": "Precompiled"
            },
            {
                "address": "0x0000000000000000000000000000000000000004",
                "label": "Precompiled"
            },
            {
                "address": "0xeeeeeeeeeeeeeeeeeeeeeeeeeeeeeeeeeeeeeeee",
                "label": "Ether"
            },
            {
                "address": "0xdac17f958d2ee523a2206206994597c13d831ec7",
                "label": "Tether: USDT Stablecoin"
            }
        ]
    },
    "trace": {
        "accountLabels": null,
        "dataMap": {
            "-1": {
                "invocation": {
                    "address": "0x71ba0ee82d403efd13cc963b4df6c5c37bd4093e",
                    "callData": "",
                    "decodedMethod": null,
                    "errorInfo": "",
                    "fromAddress": "",
                    "gasUsed": 0,
                    "id": -1,
                    "methodDecoded": false,
                    "operation": "",
                    "output": "",
                    "revert": false,
                    "revertMessage": "",
                    "selector": "",
                    "status": false,
                    "value": ""
                },
                "nodeType": 0
            },
            "0": {
                "invocation": {
                    "address": "0xdac17f958d2ee523a2206206994597c13d831ec7",
                    "callData": "0x00000000000000000000000093e9bf35708c0b56755f900e41d04c5e9fc206460000000000000000000000000000000000000000000000000000000033058600",
                    "decodedMethod": {
                        "callParams": [
                            {
                                "name": "_to",
                                "type": "address",
                                "value": "0x93e9bf35708c0b56755f900e41d04c5e9fc20646"
                            },
                            {
                                "decimalAvailable": true,
                                "name": "_value",
                                "type": "uint256",
                                "value": "856,000,000"
                            }
                        ],
                        "constructorArguments": "",
                        "name": "transfer",
                        "returnParams": [],
                        "signature": "transfer(address,uint256)"
                    },
                    "errorInfo": "",
                    "fromAddress": "0x71ba0ee82d403efd13cc963b4df6c5c37bd4093e",
                    "gasUsed": 46097,
                    "id": 0,
                    "methodDecoded": true,
                    "operation": "CALL",
                    "output": "",
                    "revert": false,
                    "revertMessage": "",
                    "selector": "0xa9059cbb",
                    "status": true,
                    "value": "0"
                },
                "nodeType": 0
            },
            "1": {
                "event": {
                    "contract": "0xdac17f958d2ee523a2206206994597c13d831ec7",
                    "decodedLog": {
                        "name": "Transfer",
                        "params": [
                            {
                                "name": "from",
                                "type": "address",
                                "value": "0x71ba0ee82d403efd13cc963b4df6c5c37bd4093e"
                            },
                            {
                                "name": "to",
                                "type": "address",
                                "value": "0x93e9bf35708c0b56755f900e41d04c5e9fc20646"
                            },
                            {
                                "decimalAvailable": true,
                                "name": "value",
                                "type": "uint256",
                                "value": "856,000,000"
                            }
                        ],
                        "signature": "Transfer(address,address,uint256)"
                    },
                    "id": 1,
                    "logData": "0x0000000000000000000000000000000000000000000000000000000033058600",
                    "logDecoded": true,
                    "operation": "EVENT",
                    "revert": false,
                    "status": true,
                    "topics": [
                        "0xddf252ad1be2c89b69c2b068fc378daa952ba7f163c4a11628f55a4df523b3ef",
                        "0x00000000000000000000000071ba0ee82d403efd13cc963b4df6c5c37bd4093e",
                        "0x00000000000000000000000093e9bf35708c0b56755f900e41d04c5e9fc20646"
                    ]
                },
                "nodeType": 1
            }
        },
        "gasFlame": [
            {
                "children": [
                    {
                        "children": [
                            {
                                "children": [],
                                "depth": 0,
                                "name": "Initial Gas",
                                "value": 21596
                            },
                            {
                                "children": [],
                                "depth": 0,
                                "name": "Executed Gas",
                                "value": 24501
                            }
                        ],
                        "depth": -1,
                        "name": "Actual Gas Used",
                        "value": 46097
                    },
                    {
                        "children": [],
                        "depth": -1,
                        "name": "Refunded Gas",
                        "value": 0
                    }
                ],
                "depth": -2,
                "name": "Total Gas",
                "value": 46097
            }
        ],
        "isConfirmed": true,
        "mainTrace": [
            {
                "children": [
                    {
                        "children": [
                            {
                                "children": [],
                                "depth": 1,
                                "id": 1,
                                "order": 1
                            }
                        ],
                        "depth": 0,
                        "id": 0,
                        "order": 0
                    }
                ],
                "depth": -1,
                "id": -1,
                "order": -1
            }
        ],
        "mainTraceNodeCount": 2,
        "parentIdMap": {
            "0": -1,
            "1": 0
        },
        "tidyTrace": [
            {
                "children": [
                    {
                        "children": [
                            {
                                "children": [],
                                "depth": 1,
                                "id": 1,
                                "order": 1
                            }
                        ],
                        "depth": 0,
                        "id": 0,
                        "order": 0
                    }
                ],
                "depth": -1,
                "id": -1,
                "order": -1
            }
        ],
        "tidyTraceNodeCount": 2
    },
    "state_change": {
        "stateChanges": [
            {
                "address": "0xdac17f958d2ee523a2206206994597c13d831ec7",
                "erc": "ERC-20",
                "slots": [
                    {
                        "current": "0x000000000000000000000000000000000000000000000000000000000000c602",
                        "key": "0x6734e1346a8683679166754530919adc77d307ce58677b6455ca9c25533d48a4",
                        "prev": "0x0000000000000000000000000000000000000000000000000000000033064c02"
                    },
                    {
                        "current": "0x0000000000000000000000000000000000000000000000000000000255c6a552",
                        "key": "0xd5788868a1ec5935515da6c2bcbb964e3b38cfbb2d9da9c7b9216d03405d6fcd",
                        "prev": "0x0000000000000000000000000000000000000000000000000000000222c11f52"
                    }
                ],
                "storageVariables": [
                    {
                        "name": "balances",
                        "type": "mapping(address => uint256)",
                        "value": {
                            "pairs": [
                                {
                                    "key": "0x71ba0ee82d403efd13cc963b4df6c5c37bd4093e",
                                    "value": {
                                        "current": "50690",
                                        "prev": "856050690",
                                        "typeTag": 1
                                    }
                                },
                                {
                                    "key": "0x93e9bf35708c0b56755f900e41d04c5e9fc20646",
                                    "value": {
                                        "current": "10029016402",
                                        "prev": "9173016402",
                                        "typeTag": 1
                                    }
                                }
                            ],
                            "typeTag": 4
                        }
                    }
                ]
            }
        ]
    }
}