{
    "balance_change": {
        "balanceChanges": [
            {
                "account": "0xcf8f851c4dea0934254d1fa5697a2b4553290bad",
                "assets": [
                    {
                        "address": "0xeeeeeeeeeeeeeeeeeeeeeeeeeeeeeeeeeeeeeeee",
                        "amount": "0.15",
                        "iconUrl": "https://assets.blocksec.com/image/1663669189317-3.png",
                        "isERC1155": false,
                        "isERC721": false,
                        "sign": false,
                        "value": "506.70138524999999846"
                    }
                ]
            },
            {
                "account": "0x91b3e4431ba33def8438138cbae46eb4c3c0b6ff",
                "assets": [
                    {
                        "address": "0xeeeeeeeeeeeeeeeeeeeeeeeeeeeeeeeeeeeeeeee",
                        "amount": "0.15",
                        "iconUrl": "https://assets.blocksec.com/image/1663669189317-3.png",
                        "isERC1155": false,
                        "isERC721": false,
                        "sign": true,
                        "value": "506.70138524999999846"
                    }
                ]
            }
        ]
    },
    "profile": {
        "basic_info": {
            "baseFee": "47.852367557",
            "blockNumber": 19337746,
            "callData": "0x60b0b0f000000000000000000000000000000000000000000000000000000000000000000000000000000000000000000000000000000000000000000000000000000000",
            "debugEnable": true,
            "errorInfo": "",
            "eventCount": 2,
            "feeRecipient": "0x4838b106fce9647bdf1e7877bf73ce8b0bad5f97",
            "formatValue": "0.15",
            "gasLimit": 368416,
            "gasPrice": "50.352367557",
            "gasUsed": 236674,
            "intTxnCount": 9,
            "internalRevert": false,
            "internalRevertMessage": "",
            "isContractCreation": false,
            "isFlashloan": false,
            "maxFee": "93.465519552",
            "nonce": 0,
            "overwritedBlockNumber": -1,
            "priorityFee": "2.5",
            "receiver": "0x91b3e4431ba33def8438138cbae46eb4c3c0b6ff",
            "revertMessage": "",
            "sender": "0xcf8f851c4dea0934254d1fa5697a2b4553290bad",
            "simulationEnable": true,
            "sourceTxnHash": "0x11d8e1576943b156c2c5c9bf549798d853c737f2dc83df96ed1f07a617b5adb9",
            "status": true,
            "timestamp": "2024-03-01T03:49:23Z",
            "transactionFee": "0.011917096239185418",
            "txnHash": "0x11d8e1576943b156c2c5c9bf549798d853c737f2dc83df96ed1f07a617b5adb9",
            "txnIndex": 17,
            "type": 2,
            "value": "150000000000000000"
        },
        "fund_flow": [
            {
                "amount": "0.15",
                "from": "0xcf8f851c4dea0934254d1fa5697a2b4553290bad",
                "id": 1,
                "isERC1155": false,
                "isERC721": false,
                "isReverted": false,
                "order": 1,
                "to": "0x91b3e4431ba33def8438138cbae46eb4c3c0b6ff",
                "token": "0xeeeeeeeeeeeeeeeeeeeeeeeeeeeeeeeeeeeeeeee"
            }
        ],
        "token_infos": [
            {
                "address": "0xc02aaa39b223fe8d0a0e5c4f27ead9083c756cc2",
                "decimals": 18
            },
            {
                "address": "0xeeeeeeeeeeeeeeeeeeeeeeeeeeeeeeeeeeeeeeee",
                "decimals": 18
            }
        ]
    },
    "address_label": {
        "labels": [
            {
                "address": "0xeeeeeeeeeeeeeeeeeeeeeeeeeeeeeeeeeeeeeeee",
                "label": "Ether"
            },
            {
                "address": "0x498291fede2fd7143e208fe042f3918ed726963a",
                "label": "0x4982_ERC1967Proxy"
            },
            {
                "address": "0xc9270382a07134905bf95530c4f6ab0b6c022478",
                "label": "0xc927_ERC1967Proxy"
            },
            {
                "address": "0x0000000000000000000000000000000000000000",
                "label": "Null Address"
            },
            {
                "address": "0x0000000000000000000000000000000000000001",
                "label": "Precompiled"
            },
            {
                "address": "0x0000000000000000000000000000000000000002",
                "label": "Precompiled"
            },
            {
                "address": "0x0000000000000000000000000000000000000003",
                "label": "Precompiled"
            },
            {
                "address": "0x0000000000000000000000000000000000000004",
                "label": "Precompiled"
            }
        ]
    },
    "trace": {
        "accountLabels": null,
        "dataMap": {
            "-1": {
                "invocation": {
                    "address": "0xcf8f851c4dea0934254d1fa5697a2b4553290bad",
                    "callData": "",
                    "decodedMethod": null,
                    "errorInfo": "",
                    "fromAddress": "",
                    "gasUsed": 0,
                    "id": -1,
                    "methodDecoded": false,
                    "operation": "",
                    "output": "",
                    "revert": false,
                    "revertMessage": "",
                    "selector": "",
                    "status": false,
                    "value": ""
                },
                "nodeType": 0
            },
            "0": {
                "invocation": {
                    "address": "0x91b3e4431ba33def8438138cbae46eb4c3c0b6ff",
                    "callData": "0x00000000000000000000000000000000000000000000000000000000000000000000000000000000000000000000000000000000000000000000000000000000",
                    "decodedMethod": {
                        "callParams": [
                            {
                                "name": "amount",
                                "type": "uint256",
                                "value": "0"
                            },
                            {
                                "name": "token",
                                "type": "address",
                                "value": "0x0000000000000000000000000000000000000000"
                            }
                        ],
                        "constructorArguments": "",
                        "name": "contribute",
                        "returnParams": [],
                        "signature": "contribute(uint256,address)"
                    },
                    "errorInfo": "",
                    "fromAddress": "0xcf8f851c4dea0934254d1fa5697a2b4553290bad",
                    "gasUsed": 236674,
                    "id": 0,
                    "methodDecoded": true,
                    "operation": "CALL",
                    "output": "",
                    "revert": false,
                    "revertMessage": "",
                    "selector": "0x60b0b0f0",
                    "status": true,
                    "value": "0.15"
                },
                "nodeType": 0
            },
            "1": {
                "invocation": {
                    "address": "0x0ae228cecf845495dd2b2caccd4f1930b8721688",
                    "callData": "0x00000000000000000000000000000000000000000000000000000000000000000000000000000000000000000000000000000000000000000000000000000000",
                    "decodedMethod": {
                        "callParams": [
                            {
                                "name": "amount",
                                "type": "uint256",
                                "value": "0"
                            },
                            {
                                "name": "token",
                                "type": "address",
                                "value": "0x0000000000000000000000000000000000000000"
                            }
                        ],
                        "constructorArguments": "",
                        "name": "contribute",
                        "returnParams": [],
                        "signature": "contribute(uint256,address)"
                    },
                    "errorInfo": "",
                    "fromAddress": "0x91b3e4431ba33def8438138cbae46eb4c3c0b6ff",
                    "gasUsed": 215479,
                    "id": 1,
                    "methodDecoded": true,
                    "operation": "DELEGATECALL",
                    "output": "",
                    "revert": false,
                    "revertMessage": "",
                    "selector": "0x60b0b0f0",
                    "status": true,
                    "value": "0.15"
                },
                "nodeType": 0
            },
            "10": {
                "invocation": {
                    "address": "0xec86b9db849b7021b4babaf5ed5bcc344231ceda",
                    "callData": "0x000000000000000000000000cf8f851c4dea0934254d1fa5697a2b4553290bad00000000000000000000000000000000000000000000000000000000000000000000000000000000000000000000000000000000000000000214e8348c4f0000",
                    "decodedMethod": {
                        "callParams": [
                            {
                                "name": "_user",
                                "type": "address",
                                "value": "0xcf8f851c4dea0934254d1fa5697a2b4553290bad"
                            },
                            {
                                "name": "_ref",
                                "type": "address",
                                "value": "0x0000000000000000000000000000000000000000"
                            },
                            {
                                "name": "_level",
                                "type": "uint256",
                                "value": "150,000,000,000,000,000"
                            }
                        ],
                        "constructorArguments": "",
                        "name": "register",
                        "returnParams": [],
                        "signature": "register(address,address,uint256)"
                    },
                    "errorInfo": "",
                    "fromAddress": "0x498291fede2fd7143e208fe042f3918ed726963a",
                    "gasUsed": 541,
                    "id": 10,
                    "methodDecoded": true,
                    "operation": "DELEGATECALL",
                    "output": "",
                    "revert": false,
                    "revertMessage": "",
                    "selector": "0x5aec50ab",
                    "status": true,
                    "value": "0"
                },
                "nodeType": 0
            },
            "11": {
                "event": {
                    "contract": "0x91b3e4431ba33def8438138cbae46eb4c3c0b6ff",
                    "decodedLog": {
                        "name": "Contributed",
                        "params": [
                            {
                                "name": "user",
                                "type": "address",
                                "value": "0xcf8f851c4dea0934254d1fa5697a2b4553290bad"
                            },
                            {
                                "name": "currency",
                                "type": "address",
                                "value": "0x0000000000000000000000000000000000000000"
                            },
                            {
                                "name": "amount",
                                "type": "uint256",
                                "value": "150,000,000,000,000,000"
                            },
                            {
                                "name": "volume",
                                "type": "uint256",
                                "value": "39,553,706,471,097,539,499"
                            },
                            {
                                "name": "totalVolume",
                                "type": "uint256",
                                "value": "1,709,264,963"
                            }
                        ],
                        "signature": "Contributed(address,address,uint256,uint256,uint256)"
                    },
                    "id": 11,
                    "logData": "0x00000000000000000000000000000000000000000000000000000000000000000000000000000000000000000000000000000000000000000214e8348c4f000000000000000000000000000000000000000000000000000224eafe788fd69bab0000000000000000000000000000000000000000000000000000000065e15043",
                    "logDecoded": true,
                    "operation": "EVENT",
                    "revert": false,
                    "status": true,
                    "topics": [
                        "0x76b049c6a58fbcb3b1b5c347116d3f7bb8ee99c66d0a424ef58b5539acde2e25",
                        "0x000000000000000000000000cf8f851c4dea0934254d1fa5697a2b4553290bad"
                    ]
                },
                "nodeType": 1
            },
            "2": {
                "invocation": {
                    "address": "0xc9270382a07134905bf95530c4f6ab0b6c022478",
                    "callData": "0x000000000000000000000000cf8f851c4dea0934254d1fa5697a2b4553290bad0000000000000000000000000000000000000000000000000000000000000000",
                    "decodedMethod": null,
                    "errorInfo": "",
                    "fromAddress": "0x91b3e4431ba33def8438138cbae46eb4c3c0b6ff",
                    "gasUsed": 7475,
                    "id": 2,
                    "methodDecoded": false,
                    "operation": "STATICCALL",
                    "output": "",
                    "revert": false,
                    "revertMessage": "",
                    "selector": "0x896c416d",
                    "status": true,
                    "value": "0"
                },
                "nodeType": 0
            },
            "3": {
                "invocation": {
                    "address": "0xe01b2ae8eddbd071da55dc889065c46cbd93383d",
                    "callData": "0x000000000000000000000000cf8f851c4dea0934254d1fa5697a2b4553290bad0000000000000000000000000000000000000000000000000000000000000000",
                    "decodedMethod": null,
                    "errorInfo": "",
                    "fromAddress": "0xc9270382a07134905bf95530c4f6ab0b6c022478",
                    "gasUsed": 2577,
                    "id": 3,
                    "methodDecoded": false,
                    "operation": "DELEGATECALL",
                    "output": "",
                    "revert": false,
                    "revertMessage": "",
                    "selector": "0x896c416d",
                    "status": true,
                    "value": "0"
                },
                "nodeType": 0
            },
            "4": {
                "invocation": {
                    "address": "0x5f9322b5a8e24d891061dfa6698d36578c8aa35f",
                    "callData": "0x000000000000000000000000cf8f851c4dea0934254d1fa5697a2b4553290bad00000000000000000000000091b3e4431ba33def8438138cbae46eb4c3c0b6ff",
                    "decodedMethod": {
                        "callParams": [
                            {
                                "name": "user",
                                "type": "address",
                                "value": "0xcf8f851c4dea0934254d1fa5697a2b4553290bad"
                            },
                            {
                                "name": "pool",
                                "type": "address",
                                "value": "0x91b3e4431ba33def8438138cbae46eb4c3c0b6ff"
                            }
                        ],
                        "constructorArguments": "",
                        "name": "recordContribution",
                        "returnParams": [],
                        "signature": "recordContribution(address,address)"
                    },
                    "errorInfo": "",
                    "fromAddress": "0x91b3e4431ba33def8438138cbae46eb4c3c0b6ff",
                    "gasUsed": 84571,
                    "id": 4,
                    "methodDecoded": true,
                    "operation": "CALL",
                    "output": "",
                    "revert": false,
                    "revertMessage": "",
                    "selector": "0xe9aae536",
                    "status": true,
                    "value": "0"
                },
                "nodeType": 0
            },
            "5": {
                "invocation": {
                    "address": "0xad574c1b36cb5f03eb471a9501c4ccff8040dd2d",
                    "callData": "0x00000000000000000000000091b3e4431ba33def8438138cbae46eb4c3c0b6ff",
                    "decodedMethod": {
                        "callParams": [
                            {
                                "name": "pool",
                                "type": "address",
                                "value": "0x91b3e4431ba33def8438138cbae46eb4c3c0b6ff"
                            }
                        ],
                        "constructorArguments": "",
                        "name": "isPoolGenerated",
                        "returnParams": [
                            {
                                "name": "",
                                "type": "bool",
                                "value": true
                            }
                        ],
                        "signature": "isPoolGenerated(address)"
                    },
                    "errorInfo": "",
                    "fromAddress": "0x5f9322b5a8e24d891061dfa6698d36578c8aa35f",
                    "gasUsed": 2599,
                    "id": 5,
                    "methodDecoded": true,
                    "operation": "STATICCALL",
                    "output": "0x0000000000000000000000000000000000000000000000000000000000000001",
                    "revert": false,
                    "revertMessage": "",
                    "selector": "0x7420c31f",
                    "status": true,
                    "value": "0"
                },
                "nodeType": 0
            },
            "6": {
                "invocation": {
                    "address": "0xad574c1b36cb5f03eb471a9501c4ccff8040dd2d",
                    "callData": "0x000000000000000000000000cf8f851c4dea0934254d1fa5697a2b4553290bad00000000000000000000000091b3e4431ba33def8438138cbae46eb4c3c0b6ff",
                    "decodedMethod": {
                        "callParams": [
                            {
                                "name": "user",
                                "type": "address",
                                "value": "0xcf8f851c4dea0934254d1fa5697a2b4553290bad"
                            },
                            {
                                "name": "pool",
                                "type": "address",
                                "value": "0x91b3e4431ba33def8438138cbae46eb4c3c0b6ff"
                            }
                        ],
                        "constructorArguments": "",
                        "name": "recordContribution",
                        "returnParams": [],
                        "signature": "recordContribution(address,address)"
                    },
                    "errorInfo": "",
                    "fromAddress": "0x5f9322b5a8e24d891061dfa6698d36578c8aa35f",
                    "gasUsed": 75737,
                    "id": 6,
                    "methodDecoded": true,
                    "operation": "CALL",
                    "output": "",
                    "revert": false,
                    "revertMessage": "",
                    "selector": "0xe9aae536",
                    "status": true,
                    "value": "0"
                },
                "nodeType": 0
            },
            "7": {
                "event": {
                    "contract": "0xad574c1b36cb5f03eb471a9501c4ccff8040dd2d",
                    "decodedLog": {
                        "name": "ContributionUpdated",
                        "params": [
                            {
                                "name": "totalParticipations",
                                "type": "uint256",
                                "value": "152,397"
                            }
                        ],
                        "signature": "ContributionUpdated(uint256)"
                    },
                    "id": 7,
                    "logData": "0x000000000000000000000000000000000000000000000000000000000002534d",
                    "logDecoded": true,
                    "operation": "EVENT",
                    "revert": false,
                    "status": true,
                    "topics": [
                        "0x96d62f25518350ace6bbb1a985c6538769c45b92ee3bb0e861f4bd945145be05"
                    ]
                },
                "nodeType": 1
            },
            "8": {
                "invocation": {
                    "address": "0x2dd95648e5bad5807a86d6492fcb2d75f610200f",
                    "callData": "0x0000000000000000000000000000000000000000000000000000000000000000",
                    "decodedMethod": null,
                    "errorInfo": "",
                    "fromAddress": "0x91b3e4431ba33def8438138cbae46eb4c3c0b6ff",
                    "gasUsed": 467,
                    "id": 8,
                    "methodDecoded": false,
                    "operation": "DELEGATECALL",
                    "output": "0x0000000000000000000000000000000000000000000000000000000000000012",
                    "revert": false,
                    "revertMessage": "",
                    "selector": "0x34b4c97f",
                    "status": true,
                    "value": "0.15"
                },
                "nodeType": 0
            },
            "9": {
                "invocation": {
                    "address": "0x498291fede2fd7143e208fe042f3918ed726963a",
                    "callData": "0x000000000000000000000000cf8f851c4dea0934254d1fa5697a2b4553290bad00000000000000000000000000000000000000000000000000000000000000000000000000000000000000000000000000000000000000000214e8348c4f0000",
                    "decodedMethod": {
                        "callParams": [
                            {
                                "name": "_user",
                                "type": "address",
                                "value": "0xcf8f851c4dea0934254d1fa5697a2b4553290bad"
                            },
                            {
                                "name": "_ref",
                                "type": "address",
                                "value": "0x0000000000000000000000000000000000000000"
                            },
                            {
                                "name": "_level",
                                "type": "uint256",
                                "value": "150,000,000,000,000,000"
                            }
                        ],
                        "constructorArguments": "",
                        "name": "register",
                        "returnParams": [],
                        "signature": "register(address,address,uint256)"
                    },
                    "errorInfo": "",
                    "fromAddress": "0x91b3e4431ba33def8438138cbae46eb4c3c0b6ff",
                    "gasUsed": 5445,
                    "id": 9,
                    "methodDecoded": true,
                    "operation": "CALL",
                    "output": "",
                    "revert": false,
                    "revertMessage": "",
                    "selector": "0x5aec50ab",
                    "status": true,
                    "value": "0"
                },
                "nodeType": 0
            }
        },
        "gasFlame": [
            {
                "children": [
                    {
                        "children": [
                            {
                                "children": [],
                                "depth": 0,
                                "name": "Initial Gas",
                                "value": 21320
                            },
                            {
                                "children": [
                                    {
                                        "children": [
                                            {
                                                "children": [
                                                    {
                                                        "children": [],
                                                        "depth": 3,
                                                        "name": "0x896c416d",
                                                        "value": 2577
                                                    }
                                                ],
                                                "depth": 2,
                                                "name": "0x896c416d",
                                                "value": 7475
                                            },
                                            {
                                                "children": [
                                                    {
                                                        "children": [],
                                                        "depth": 3,
                                                        "name": "isPoolGenerated",
                                                        "value": 2599
                                                    },
                                                    {
                                                        "children": [],
                                                        "depth": 3,
                                                        "name": "recordContribution",
                                                        "value": 75737
                                                    }
                                                ],
                                                "depth": 2,
                                                "name": "recordContribution",
                                                "value": 84571
                                            },
                                            {
                                                "children": [],
                                                "depth": 2,
                                                "name": "0x34b4c97f",
                                                "value": 467
                                            },
                                            {
                                                "children": [
                                                    {
                                                        "children": [],
                                                        "depth": 3,
                                                        "name": "register",
                                                        "value": 541
                                                    }
                                                ],
                                                "depth": 2,
                                                "name": "register",
                                                "value": 5445
                                            }
                                        ],
                                        "depth": 1,
                                        "name": "contribute",
                                        "value": 215479
                                    }
                                ],
                                "depth": 0,
                                "name": "Executed Gas",
                                "value": 218154
                            }
                        ],
                        "depth": -1,
                        "name": "Actual Gas Used",
                        "value": 236674
                    },
                    {
                        "children": [],
                        "depth": -1,
                        "name": "Refunded Gas",
                        "value": 2800
                    }
                ],
                "depth": -2,
                "name": "Total Gas",
                "value": 239474
            }
        ],
        "isConfirmed": true,
        "mainTrace": [
            {
                "children": [
                    {
                        "children": [
                            {
                                "children": [
                                    {
                                        "children": [
                                            {
                                                "children": [],
                                                "depth": 3,
                                                "id": 3,
                                                "order": 3
                                            }
                                        ],
                                        "depth": 2,
                                        "id": 2,
                                        "order": 2
                                    },
                                    {
                                        "children": [
                                            {
                                                "children": [],
                                                "depth": 3,
                                                "id": 5,
                                                "order": 5
                                            },
                                            {
                                                "children": [
                                                    {
                                                        "children": [],
                                                        "depth": 4,
                                                        "id": 7,
                                                        "order": 7
                                                    }
                                                ],
                                                "depth": 3,
                                                "id": 6,
                                                "order": 6
                                            }
                                        ],
                                        "depth": 2,
                                        "id": 4,
                                        "order": 4
                                    },
                                    {
                                        "children": [],
                                        "depth": 2,
                                        "id": 8,
                                        "order": 8
                                    },
                                    {
                                        "children": [
                                            {
                                                "children": [],
                                                "depth": 3,
                                                "id": 10,
                                                "order": 10
                                            }
                                        ],
                                        "depth": 2,
                                        "id": 9,
                                        "order": 9
                                    },
                                    {
                                        "children": [],
                                        "depth": 2,
                                        "id": 11,
                                        "order": 11
                                    }
                                ],
                                "depth": 1,
                                "id": 1,
                                "order": 1
                            }
                        ],
                        "depth": 0,
                        "id": 0,
                        "order": 0
                    }
                ],
                "depth": -1,
                "id": -1,
                "order": -1
            }
        ],
        "mainTraceNodeCount": 12,
        "parentIdMap": {
            "0": -1,
            "1": 0,
            "10": 9,
            "11": 1,
            "2": 1,
            "3": 2,
            "4": 1,
            "5": 4,
            "6": 4,
            "7": 6,
            "8": 1,
            "9": 1
        },
        "tidyTrace": [
            {
                "children": [
                    {
                        "children": [
                            {
                                "children": [
                                    {
                                        "children": [
                                            {
                                                "children": [
                                                    {
                                                        "children": [],
                                                        "depth": 4,
                                                        "id": 7,
                                                        "order": 7
                                                    }
                                                ],
                                                "depth": 3,
                                                "id": 6,
                                                "order": 6
                                            }
                                        ],
                                        "depth": 2,
                                        "id": 4,
                                        "order": 4
                                    },
                                    {
                                        "children": [],
                                        "depth": 2,
                                        "id": 8,
                                        "order": 8
                                    },
                                    {
                                        "children": [
                                            {
                                                "children": [],
                                                "depth": 3,
                                                "id": 10,
                                                "order": 10
                                            }
                                        ],
                                        "depth": 2,
                                        "id": 9,
                                        "order": 9
                                    },
                                    {
                                        "children": [],
                                        "depth": 2,
                                        "id": 11,
                                        "order": 11
                                    }
                                ],
                                "depth": 1,
                                "id": 1,
                                "order": 1
                            }
                        ],
                        "depth": 0,
                        "id": 0,
                        "order": 0
                    }
                ],
                "depth": -1,
                "id": -1,
                "order": -1
            }
        ],
        "tidyTraceNodeCount": 9
    },
    "state_change": {
        "stateChanges": [
            {
                "address": "0x91b3e4431ba33def8438138cbae46eb4c3c0b6ff",
                "erc": "",
                "slots": [
                    {
                        "current": "0x000000000000000000000000cf8f851c4dea0934254d1fa5697a2b4553290bad",
                        "key": "0xc2575a0e9e593c00f959f8c92f12db2869c3395a3b0502d05e2516446f71f8aa",
                        "prev": "0x0000000000000000000000000000000000000000000000000000000000000000"
                    },
                    {
                        "current": "0x0000000000000000000000000000000000000000000000000000000000000050",
                        "key": "0x80da440d271df270026b8ee626210fd8cf3ccc647c87a5b3fe74e72dcfb400a8",
                        "prev": "0x0000000000000000000000000000000000000000000000000000000000000000"
                    },
                    {
                        "current": "0x00000000000000000000000000000000000000000000000224eafe788fd69bab",
                        "key": "0x0000000000000000000000000000000000000000000000000000000000000019",
                        "prev": "0x00000000000000000000000000000000000000000000000222d6164403879bab"
                    },
                    {
                        "current": "0x0000000000000000000000000000000000000000000000000214e8348c4f0000",
                        "key": "0x3a2245361d360fbd540f53cd0fc7c4013a71e876455311dd489b51109cef4ca6",
                        "prev": "0x0000000000000000000000000000000000000000000000000000000000000000"
                    },
                    {
                        "current": "0x0000000000000000000000000000000000000000000000000000000000000050",
                        "key": "0x0000000000000000000000000000000000000000000000000000000000000003",
                        "prev": "0x000000000000000000000000000000000000000000000000000000000000004f"
                    }
                ],
                "storageVariables": []
            },
            {
                "address": "0xad574c1b36cb5f03eb471a9501c4ccff8040dd2d",
                "erc": "",
                "slots": [
                    {
                        "current": "0x0000000000000000000000000000000000000000000000000000000000000001",
                        "key": "0xf55c8685e1262f85d23ffa146b11ad1c380994b650e059b2c5683383f0b8004a",
                        "prev": "0x0000000000000000000000000000000000000000000000000000000000000000"
                    },
                    {
                        "current": "0x000000000000000000000000000000000000000000000000000000000002534d",
                        "key": "0x000000000000000000000000000000000000000000000000000000000000000b",
                        "prev": "0x000000000000000000000000000000000000000000000000000000000002534c"
                    },
                    {
                        "current": "0x0000000000000000000000000000000000000000000000000000000000000001",
                        "key": "0xff430ca0cbf83725c6063442235701e4593d547bee52239530b7aaecc9e8fa1a",
                        "prev": "0x0000000000000000000000000000000000000000000000000000000000000000"
                    },
                    {
                        "current": "0x00000000000000000000000091b3e4431ba33def8438138cbae46eb4c3c0b6ff",
                        "key": "0xa88080ea449837633bcbe1346ed089c1314a3a6cf330442a1a672f6117cb50a9",
                        "prev": "0x0000000000000000000000000000000000000000000000000000000000000000"
                    }
                ],
                "storageVariables": []
            }
        ]
    }
}