{
    "balance_change": {
        "balanceChanges": [
            {
                "account": "0x143308e189382e53ea16045cd5b2e9ec45606306",
                "assets": [
                    {
                        "address": "0xeeeeeeeeeeeeeeeeeeeeeeeeeeeeeeeeeeeeeeee",
                        "amount": "16",
                        "iconUrl": "https://assets.blocksec.com/image/1663669189317-3.png",
                        "isERC1155": false,
                        "isERC721": false,
                        "sign": true,
                        "value": "57013.02051"
                    }
                ]
            },
            {
                "account": "0x2f0b23f53734252bda2277357e97e1517d6b042a",
                "assets": [
                    {
                        "address": "0xc02aaa39b223fe8d0a0e5c4f27ead9083c756cc2",
                        "amount": "16",
                        "iconUrl": "https://assets.blocksec.com/icon/f1cb2d02c471d545bbc7722daf3277fd852d98e63d118771af7047bd8256c516.png",
                        "isERC1155": false,
                        "isERC721": false,
                        "sign": false,
                        "value": "57013.02051"
                    }
                ]
            },
            {
                "account": "0xc02aaa39b223fe8d0a0e5c4f27ead9083c756cc2",
                "assets": [
                    {
                        "address": "0xeeeeeeeeeeeeeeeeeeeeeeeeeeeeeeeeeeeeeeee",
                        "amount": "16",
                        "iconUrl": "https://assets.blocksec.com/image/1663669189317-3.png",
                        "isERC1155": false,
                        "isERC721": false,
                        "sign": false,
                        "value": "57013.02051"
                    },
                    {
                        "address": "0xc02aaa39b223fe8d0a0e5c4f27ead9083c756cc2",
                        "amount": "16",
                        "iconUrl": "https://assets.blocksec.com/icon/f1cb2d02c471d545bbc7722daf3277fd852d98e63d118771af7047bd8256c516.png",
                        "isERC1155": false,
                        "isERC721": false,
                        "sign": true,
                        "value": "57013.02051"
                    }
                ]
            }
        ]
    },
    "profile": {
        "basic_info": {
            "baseFee": "",
            "blockNumber": 12446901,
            "callData": "0x1cff79cd00000000000000000000000082ecd135dce65fbc6dbdd0e4237e0af93ffd5038000000000000000000000000000000000000000000000000000000000000004000000000000000000000000000000000000000000000000000000000000000847b5a3b430000000000000000000000005ef30b9986345249bc32d8928b7ee64de9435e390000000000000000000000002f0b23f53734252bda2277357e97e1517d6b042a000000000000000000000000000000000000000000000000000000000000470e000000000000000000000000000000000000000000000000de0b6b3a7640000000000000000000000000000000000000000000000000000000000000",
            "debugEnable": true,
            "errorInfo": "",
            "eventCount": 9,
            "feeRecipient": "0xea674fdde714fd979de3edf0f56aa9716b898ec8",
            "formatValue": "0",
            "gasLimit": 227039,
            "gasPrice": "115",
            "gasUsed": 162193,
            "intTxnCount": 12,
            "internalRevert": false,
            "internalRevertMessage": "",
            "isContractCreation": false,
            "isFlashloan": false,
            "maxFee": "",
            "nonce": 35,
            "overwritedBlockNumber": -1,
            "priorityFee": "",
            "receiver": "0xaafdb473cf8fa0113330ccd7d5aa5e91d41bc655",
            "revertMessage": "",
            "sender": "0x143308e189382e53ea16045cd5b2e9ec45606306",
            "simulationEnable": true,
            "sourceTxnHash": "0x1101ec2a6b34f2cdf32984a7dabe8e88e2cfc6cbf0686609e93dd1060b8cbb91",
            "status": true,
            "timestamp": "2021-05-16T17:44:40Z",
            "transactionFee": "0.018652195",
            "txnHash": "0x1101ec2a6b34f2cdf32984a7dabe8e88e2cfc6cbf0686609e93dd1060b8cbb91",
            "txnIndex": 54,
            "type": 0,
            "value": "0"
        },
        "fund_flow": [
            {
                "amount": "16",
                "from": "0x2f0b23f53734252bda2277357e97e1517d6b042a",
                "id": 1,
                "isERC1155": false,
                "isERC721": false,
                "isReverted": false,
                "order": 1,
                "to": "0xaafdb473cf8fa0113330ccd7d5aa5e91d41bc655",
                "token": "0xc02aaa39b223fe8d0a0e5c4f27ead9083c756cc2"
            },
            {
                "amount": "16",
                "from": "0xc02aaa39b223fe8d0a0e5c4f27ead9083c756cc2",
                "id": 2,
                "isERC1155": false,
                "isERC721": false,
                "isReverted": false,
                "order": 2,
                "to": "0xaafdb473cf8fa0113330ccd7d5aa5e91d41bc655",
                "token": "0xeeeeeeeeeeeeeeeeeeeeeeeeeeeeeeeeeeeeeeee"
            },
            {
                "amount": "16",
                "from": "0xaafdb473cf8fa0113330ccd7d5aa5e91d41bc655",
                "id": 3,
                "isERC1155": false,
                "isERC721": false,
                "isReverted": false,
                "order": 3,
                "to": "0xc02aaa39b223fe8d0a0e5c4f27ead9083c756cc2",
                "token": "0xc02aaa39b223fe8d0a0e5c4f27ead9083c756cc2"
            },
            {
                "amount": "16",
                "from": "0xaafdb473cf8fa0113330ccd7d5aa5e91d41bc655",
                "id": 4,
                "isERC1155": false,
                "isERC721": false,
                "isReverted": false,
                "order": 4,
                "to": "0x143308e189382e53ea16045cd5b2e9ec45606306",
                "token": "0xeeeeeeeeeeeeeeeeeeeeeeeeeeeeeeeeeeeeeeee"
            }
        ],
        "token_infos": [
            {
                "address": "0xc02aaa39b223fe8d0a0e5c4f27ead9083c756cc2",
                "decimals": 18
            },
            {
                "address": "0xeeeeeeeeeeeeeeeeeeeeeeeeeeeeeeeeeeeeeeee",
                "decimals": 18
            }
        ]
    },
    "address_label": {
        "labels": [
            {
                "address": "0x82ecd135dce65fbc6dbdd0e4237e0af93ffd5038",
                "label": "Maker: Proxy Actions"
            },
            {
                "address": "0x5ef30b9986345249bc32d8928b7ee64de9435e39",
                "label": "Sky: CDP Manager"
            },
            {
                "address": "0x0000000000000000000000000000000000000001",
                "label": "Precompiled"
            },
            {
                "address": "0x0000000000000000000000000000000000000004",
                "label": "Precompiled"
            },
            {
                "address": "0xc02aaa39b223fe8d0a0e5c4f27ead9083c756cc2",
                "label": "Wrapped Ether (WETH)"
            },
            {
                "address": "0x35d1b3f3d7966a1dfe207aa4514c12a259a0492b",
                "label": "Sky: MCD Vat"
            },
            {
                "address": "0x2f0b23f53734252bda2277357e97e1517d6b042a",
                "label": "Sky: MCD Join ETH A"
            },
            {
                "address": "0xaafdb473cf8fa0113330ccd7d5aa5e91d41bc655",
                "label": "DSProxy"
            },
            {
                "address": "0x0000000000000000000000000000000000000002",
                "label": "Precompiled"
            },
            {
                "address": "0x0000000000000000000000000000000000000003",
                "label": "Precompiled"
            },
            {
                "address": "0xeeeeeeeeeeeeeeeeeeeeeeeeeeeeeeeeeeeeeeee",
                "label": "Ether"
            }
        ]
    },
    "trace": {
        "accountLabels": null,
        "dataMap": {
            "-1": {
                "invocation": {
                    "address": "0x143308e189382e53ea16045cd5b2e9ec45606306",
                    "callData": "",
                    "decodedMethod": null,
                    "errorInfo": "",
                    "fromAddress": "",
                    "gasUsed": 0,
                    "id": -1,
                    "methodDecoded": false,
                    "operation": "",
                    "output": "",
                    "revert": false,
                    "revertMessage": "",
                    "selector": "",
                    "status": false,
                    "value": ""
                },
                "nodeType": 0
            },
            "0": {
                "invocation": {
                    "address": "0xaafdb473cf8fa0113330ccd7d5aa5e91d41bc655",
                    "callData": "0x00000000000000000000000082ecd135dce65fbc6dbdd0e4237e0af93ffd5038000000000000000000000000000000000000000000000000000000000000004000000000000000000000000000000000000000000000000000000000000000847b5a3b430000000000000000000000005ef30b9986345249bc32d8928b7ee64de9435e390000000000000000000000002f0b23f53734252bda2277357e97e1517d6b042a000000000000000000000000000000000000000000000000000000000000470e000000000000000000000000000000000000000000000000de0b6b3a7640000000000000000000000000000000000000000000000000000000000000",
                    "decodedMethod": {
                        "callParams": [
                            {
                                "name": "_target",
                                "type": "address",
                                "value": "0x82ecd135dce65fbc6dbdd0e4237e0af93ffd5038"
                            },
                            {
                                "name": "_data",
                                "type": "bytes",
                                "value": "0x7b5a3b430000000000000000000000005ef30b9986345249bc32d8928b7ee64de9435e390000000000000000000000002f0b23f53734252bda2277357e97e1517d6b042a000000000000000000000000000000000000000000000000000000000000470e000000000000000000000000000000000000000000000000de0b6b3a76400000"
                            }
                        ],
                        "constructorArguments": "",
                        "name": "execute",
                        "returnParams": [
                            {
                                "name": "response",
                                "type": "bytes32",
                                "value": "0x0000000000000000000000000000000000000000000000000000000000000000"
                            }
                        ],
                        "signature": "execute(address,bytes)"
                    },
                    "errorInfo": "",
                    "fromAddress": "0x143308e189382e53ea16045cd5b2e9ec45606306",
                    "gasUsed": 162193,
                    "id": 0,
                    "methodDecoded": true,
                    "operation": "CALL",
                    "output": "0x0000000000000000000000000000000000000000000000000000000000000000",
                    "revert": false,
                    "revertMessage": "",
                    "selector": "0x1cff79cd",
                    "status": true,
                    "value": "0"
                },
                "nodeType": 0
            },
            "1": {
                "event": {
                    "contract": "0xaafdb473cf8fa0113330ccd7d5aa5e91d41bc655",
                    "decodedLog": null,
                    "id": 1,
                    "logData": "0x0000000000000000000000000000000000000000000000000000000000000000000000000000000000000000000000000000000000000000000000000000004000000000000000000000000000000000000000000000000000000000000001041cff79cd00000000000000000000000082ecd135dce65fbc6dbdd0e4237e0af93ffd5038000000000000000000000000000000000000000000000000000000000000004000000000000000000000000000000000000000000000000000000000000000847b5a3b430000000000000000000000005ef30b9986345249bc32d8928b7ee64de9435e390000000000000000000000002f0b23f53734252bda2277357e97e1517d6b042a000000000000000000000000000000000000000000000000000000000000470e000000000000000000000000000000000000000000000000de0b6b3a7640000000000000000000000000000000000000000000000000000000000000",
                    "logDecoded": false,
                    "operation": "EVENT",
                    "revert": false,
                    "status": true,
                    "topics": [
                        "0x1cff79cd00000000000000000000000000000000000000000000000000000000",
                        "0x000000000000000000000000143308e189382e53ea16045cd5b2e9ec45606306",
                        "0x00000000000000000000000082ecd135dce65fbc6dbdd0e4237e0af93ffd5038",
                        "0x0000000000000000000000000000000000000000000000000000000000000040"
                    ]
                },
                "nodeType": 1
            },
            "10": {
                "event": {
                    "contract": "0x5ef30b9986345249bc32d8928b7ee64de9435e39",
                    "decodedLog": null,
                    "id": 10,
                    "logData": "0x000000000000000000000000000000000000000000000000000000000000002000000000000000000000000000000000000000000000000000000000000000e09bb8f838000000000000000000000000000000000000000000000000000000000000470e000000000000000000000000aafdb473cf8fa0113330ccd7d5aa5e91d41bc655000000000000000000000000000000000000000000000000de0b6b3a7640000000000000000000000000000000000000000000000000000000000000000000000000000000000000000000000000000000000000000000000000000000000000000000000000000000000000000000000000000000000000000000000000000000000000000000000000000000000000000000000000000000000000",
                    "logDecoded": false,
                    "operation": "EVENT",
                    "revert": false,
                    "status": true,
                    "topics": [
                        "0x9bb8f83800000000000000000000000000000000000000000000000000000000",
                        "0x000000000000000000000000aafdb473cf8fa0113330ccd7d5aa5e91d41bc655",
                        "0x000000000000000000000000000000000000000000000000000000000000470e",
                        "0x000000000000000000000000aafdb473cf8fa0113330ccd7d5aa5e91d41bc655"
                    ]
                },
                "nodeType": 1
            },
            "11": {
                "invocation": {
                    "address": "0x2f0b23f53734252bda2277357e97e1517d6b042a",
                    "callData": "0x000000000000000000000000aafdb473cf8fa0113330ccd7d5aa5e91d41bc655000000000000000000000000000000000000000000000000de0b6b3a76400000",
                    "decodedMethod": {
                        "callParams": [
                            {
                                "name": "usr",
                                "type": "address",
                                "value": "0xaafdb473cf8fa0113330ccd7d5aa5e91d41bc655"
                            },
                            {
                                "name": "wad",
                                "type": "uint256",
                                "value": "16,000,000,000,000,000,000"
                            }
                        ],
                        "constructorArguments": "",
                        "name": "exit",
                        "returnParams": [],
                        "signature": "exit(address,uint256)"
                    },
                    "errorInfo": "",
                    "fromAddress": "0xaafdb473cf8fa0113330ccd7d5aa5e91d41bc655",
                    "gasUsed": 52062,
                    "id": 11,
                    "methodDecoded": true,
                    "operation": "CALL",
                    "output": "",
                    "revert": false,
                    "revertMessage": "",
                    "selector": "0xef693bed",
                    "status": true,
                    "value": "0"
                },
                "nodeType": 0
            },
            "12": {
                "invocation": {
                    "address": "0x35d1b3f3d7966a1dfe207aa4514c12a259a0492b",
                    "callData": "0x4554482d41000000000000000000000000000000000000000000000000000000000000000000000000000000aafdb473cf8fa0113330ccd7d5aa5e91d41bc655ffffffffffffffffffffffffffffffffffffffffffffffff21f494c589c00000",
                    "decodedMethod": {
                        "callParams": [
                            {
                                "name": "ilk",
                                "type": "bytes32",
                                "value": "0x4554482d41000000000000000000000000000000000000000000000000000000"
                            },
                            {
                                "name": "usr",
                                "type": "address",
                                "value": "0xaafdb473cf8fa0113330ccd7d5aa5e91d41bc655"
                            },
                            {
                                "name": "wad",
                                "type": "int256",
                                "value": "-16,000,000,000,000,000,000"
                            }
                        ],
                        "constructorArguments": "",
                        "name": "slip",
                        "returnParams": [],
                        "signature": "slip(bytes32,address,int256)"
                    },
                    "errorInfo": "",
                    "fromAddress": "0x2f0b23f53734252bda2277357e97e1517d6b042a",
                    "gasUsed": 7584,
                    "id": 12,
                    "methodDecoded": true,
                    "operation": "CALL",
                    "output": "",
                    "revert": false,
                    "revertMessage": "",
                    "selector": "0x7cdd3fde",
                    "status": true,
                    "value": "0"
                },
                "nodeType": 0
            },
            "13": {
                "event": {
                    "contract": "0x35d1b3f3d7966a1dfe207aa4514c12a259a0492b",
                    "decodedLog": null,
                    "id": 13,
                    "logData": "0x000000000000000000000000000000000000000000000000000000000000002000000000000000000000000000000000000000000000000000000000000000e07cdd3fde4554482d41000000000000000000000000000000000000000000000000000000000000000000000000000000aafdb473cf8fa0113330ccd7d5aa5e91d41bc655ffffffffffffffffffffffffffffffffffffffffffffffff21f494c589c0000000000000000000000000000000000000000000000000000000000000000000000000000000000000000000000000000000000000000000000000000000000000000000000000000000000000000000000000000000000000000000000000000000000000000000000000000000000000000000000000000000000000",
                    "logDecoded": false,
                    "operation": "EVENT",
                    "revert": false,
                    "status": true,
                    "topics": [
                        "0x7cdd3fde00000000000000000000000000000000000000000000000000000000",
                        "0x4554482d41000000000000000000000000000000000000000000000000000000",
                        "0x000000000000000000000000aafdb473cf8fa0113330ccd7d5aa5e91d41bc655",
                        "0xffffffffffffffffffffffffffffffffffffffffffffffff21f494c589c00000"
                    ]
                },
                "nodeType": 1
            },
            "14": {
                "invocation": {
                    "address": "0xc02aaa39b223fe8d0a0e5c4f27ead9083c756cc2",
                    "callData": "0x000000000000000000000000aafdb473cf8fa0113330ccd7d5aa5e91d41bc655000000000000000000000000000000000000000000000000de0b6b3a76400000",
                    "decodedMethod": {
                        "callParams": [
                            {
                                "name": "dst",
                                "type": "address",
                                "value": "0xaafdb473cf8fa0113330ccd7d5aa5e91d41bc655"
                            },
                            {
                                "decimalAvailable": true,
                                "name": "wad",
                                "type": "uint256",
                                "value": "16,000,000,000,000,000,000"
                            }
                        ],
                        "constructorArguments": "",
                        "name": "transfer",
                        "returnParams": [
                            {
                                "name": "",
                                "type": "bool",
                                "value": true
                            }
                        ],
                        "signature": "transfer(address,uint256)"
                    },
                    "errorInfo": "",
                    "fromAddress": "0x2f0b23f53734252bda2277357e97e1517d6b042a",
                    "gasUsed": 29962,
                    "id": 14,
                    "methodDecoded": true,
                    "operation": "CALL",
                    "output": "0x0000000000000000000000000000000000000000000000000000000000000001",
                    "revert": false,
                    "revertMessage": "",
                    "selector": "0xa9059cbb",
                    "status": true,
                    "value": "0"
                },
                "nodeType": 0
            },
            "15": {
                "event": {
                    "contract": "0xc02aaa39b223fe8d0a0e5c4f27ead9083c756cc2",
                    "decodedLog": {
                        "name": "Transfer",
                        "params": [
                            {
                                "name": "src",
                                "type": "address",
                                "value": "0x2f0b23f53734252bda2277357e97e1517d6b042a"
                            },
                            {
                                "name": "dst",
                                "type": "address",
                                "value": "0xaafdb473cf8fa0113330ccd7d5aa5e91d41bc655"
                            },
                            {
                                "decimalAvailable": true,
                                "name": "wad",
                                "type": "uint256",
                                "value": "16,000,000,000,000,000,000"
                            }
                        ],
                        "signature": "Transfer(address,address,uint256)"
                    },
                    "id": 15,
                    "logData": "0x000000000000000000000000000000000000000000000000de0b6b3a76400000",
                    "logDecoded": true,
                    "operation": "EVENT",
                    "revert": false,
                    "status": true,
                    "topics": [
                        "0xddf252ad1be2c89b69c2b068fc378daa952ba7f163c4a11628f55a4df523b3ef",
                        "0x0000000000000000000000002f0b23f53734252bda2277357e97e1517d6b042a",
                        "0x000000000000000000000000aafdb473cf8fa0113330ccd7d5aa5e91d41bc655"
                    ]
                },
                "nodeType": 1
            },
            "16": {
                "event": {
                    "contract": "0x2f0b23f53734252bda2277357e97e1517d6b042a",
                    "decodedLog": null,
                    "id": 16,
                    "logData": "0x000000000000000000000000000000000000000000000000000000000000002000000000000000000000000000000000000000000000000000000000000000e0ef693bed000000000000000000000000aafdb473cf8fa0113330ccd7d5aa5e91d41bc655000000000000000000000000000000000000000000000000de0b6b3a76400000000000000000000000000000000000000000000000000000000000000000000000000000000000000000000000000000000000000000000000000000000000000000000000000000000000000000000000000000000000000000000000000000000000000000000000000000000000000000000000000000000000000000000000000000000000000000000000000000000000000000000000000000",
                    "logDecoded": false,
                    "operation": "EVENT",
                    "revert": false,
                    "status": true,
                    "topics": [
                        "0xef693bed00000000000000000000000000000000000000000000000000000000",
                        "0x000000000000000000000000aafdb473cf8fa0113330ccd7d5aa5e91d41bc655",
                        "0x000000000000000000000000aafdb473cf8fa0113330ccd7d5aa5e91d41bc655",
                        "0x000000000000000000000000000000000000000000000000de0b6b3a76400000"
                    ]
                },
                "nodeType": 1
            },
            "17": {
                "invocation": {
                    "address": "0x2f0b23f53734252bda2277357e97e1517d6b042a",
                    "callData": "0x",
                    "decodedMethod": {
                        "callParams": [],
                        "constructorArguments": "",
                        "name": "gem",
                        "returnParams": [
                            {
                                "name": "",
                                "type": "address",
                                "value": "0xc02aaa39b223fe8d0a0e5c4f27ead9083c756cc2"
                            }
                        ],
                        "signature": "gem()"
                    },
                    "errorInfo": "",
                    "fromAddress": "0xaafdb473cf8fa0113330ccd7d5aa5e91d41bc655",
                    "gasUsed": 442,
                    "id": 17,
                    "methodDecoded": true,
                    "operation": "CALL",
                    "output": "0x000000000000000000000000c02aaa39b223fe8d0a0e5c4f27ead9083c756cc2",
                    "revert": false,
                    "revertMessage": "",
                    "selector": "0x7bd2bea7",
                    "status": true,
                    "value": "0"
                },
                "nodeType": 0
            },
            "18": {
                "invocation": {
                    "address": "0xc02aaa39b223fe8d0a0e5c4f27ead9083c756cc2",
                    "callData": "0x000000000000000000000000000000000000000000000000de0b6b3a76400000",
                    "decodedMethod": {
                        "callParams": [
                            {
                                "name": "wad",
                                "type": "uint256",
                                "value": "16,000,000,000,000,000,000"
                            }
                        ],
                        "constructorArguments": "",
                        "name": "withdraw",
                        "returnParams": [],
                        "signature": "withdraw(uint256)"
                    },
                    "errorInfo": "",
                    "fromAddress": "0xaafdb473cf8fa0113330ccd7d5aa5e91d41bc655",
                    "gasUsed": 9180,
                    "id": 18,
                    "methodDecoded": true,
                    "operation": "CALL",
                    "output": "",
                    "revert": false,
                    "revertMessage": "",
                    "selector": "0x2e1a7d4d",
                    "status": true,
                    "value": "0"
                },
                "nodeType": 0
            },
            "19": {
                "invocation": {
                    "address": "0xaafdb473cf8fa0113330ccd7d5aa5e91d41bc655",
                    "callData": "0x",
                    "decodedMethod": null,
                    "errorInfo": "",
                    "fromAddress": "0xc02aaa39b223fe8d0a0e5c4f27ead9083c756cc2",
                    "gasUsed": 40,
                    "id": 19,
                    "methodDecoded": false,
                    "operation": "CALL",
                    "output": "",
                    "revert": false,
                    "revertMessage": "",
                    "selector": "fallback",
                    "status": true,
                    "value": "16"
                },
                "nodeType": 0
            },
            "2": {
                "invocation": {
                    "address": "0x82ecd135dce65fbc6dbdd0e4237e0af93ffd5038",
                    "callData": "0x0000000000000000000000005ef30b9986345249bc32d8928b7ee64de9435e390000000000000000000000002f0b23f53734252bda2277357e97e1517d6b042a000000000000000000000000000000000000000000000000000000000000470e000000000000000000000000000000000000000000000000de0b6b3a76400000",
                    "decodedMethod": {
                        "callParams": [
                            {
                                "name": "manager",
                                "type": "address",
                                "value": "0x5ef30b9986345249bc32d8928b7ee64de9435e39"
                            },
                            {
                                "name": "ethJoin",
                                "type": "address",
                                "value": "0x2f0b23f53734252bda2277357e97e1517d6b042a"
                            },
                            {
                                "name": "cdp",
                                "type": "uint256",
                                "value": "18,190"
                            },
                            {
                                "name": "wad",
                                "type": "uint256",
                                "value": "16,000,000,000,000,000,000"
                            }
                        ],
                        "constructorArguments": "",
                        "name": "freeETH",
                        "returnParams": [],
                        "signature": "freeETH(address,address,uint256,uint256)"
                    },
                    "errorInfo": "",
                    "fromAddress": "0xaafdb473cf8fa0113330ccd7d5aa5e91d41bc655",
                    "gasUsed": 187976,
                    "id": 2,
                    "methodDecoded": true,
                    "operation": "DELEGATECALL",
                    "output": "",
                    "revert": false,
                    "revertMessage": "",
                    "selector": "0x7b5a3b43",
                    "status": true,
                    "value": "0"
                },
                "nodeType": 0
            },
            "20": {
                "event": {
                    "contract": "0xc02aaa39b223fe8d0a0e5c4f27ead9083c756cc2",
                    "decodedLog": {
                        "name": "Withdrawal",
                        "params": [
                            {
                                "name": "src",
                                "type": "address",
                                "value": "0xaafdb473cf8fa0113330ccd7d5aa5e91d41bc655"
                            },
                            {
                                "name": "wad",
                                "type": "uint256",
                                "value": "16,000,000,000,000,000,000"
                            }
                        ],
                        "signature": "Withdrawal(address,uint256)"
                    },
                    "id": 20,
                    "logData": "0x000000000000000000000000000000000000000000000000de0b6b3a76400000",
                    "logDecoded": true,
                    "operation": "EVENT",
                    "revert": false,
                    "status": true,
                    "topics": [
                        "0x7fcf532c15f0a6db0bd6d0e038bea71d30d808c7d98cb3bf7268a95bf5081b65",
                        "0x000000000000000000000000aafdb473cf8fa0113330ccd7d5aa5e91d41bc655"
                    ]
                },
                "nodeType": 1
            },
            "21": {
                "invocation": {
                    "address": "0x143308e189382e53ea16045cd5b2e9ec45606306",
                    "callData": "0x",
                    "decodedMethod": null,
                    "errorInfo": "",
                    "fromAddress": "0xaafdb473cf8fa0113330ccd7d5aa5e91d41bc655",
                    "gasUsed": 0,
                    "id": 21,
                    "methodDecoded": false,
                    "operation": "CALL",
                    "output": "",
                    "revert": false,
                    "revertMessage": "",
                    "selector": "fallback",
                    "status": true,
                    "value": "16"
                },
                "nodeType": 0
            },
            "3": {
                "invocation": {
                    "address": "0x5ef30b9986345249bc32d8928b7ee64de9435e39",
                    "callData": "0x000000000000000000000000000000000000000000000000000000000000470effffffffffffffffffffffffffffffffffffffffffffffff21f494c589c000000000000000000000000000000000000000000000000000000000000000000000",
                    "decodedMethod": {
                        "callParams": [
                            {
                                "name": "cdp",
                                "type": "uint256",
                                "value": "18,190"
                            },
                            {
                                "name": "dink",
                                "type": "int256",
                                "value": "-16,000,000,000,000,000,000"
                            },
                            {
                                "name": "dart",
                                "type": "int256",
                                "value": "0"
                            }
                        ],
                        "constructorArguments": "",
                        "name": "frob",
                        "returnParams": [],
                        "signature": "frob(uint256,int256,int256)"
                    },
                    "errorInfo": "",
                    "fromAddress": "0xaafdb473cf8fa0113330ccd7d5aa5e91d41bc655",
                    "gasUsed": 77576,
                    "id": 3,
                    "methodDecoded": true,
                    "operation": "CALL",
                    "output": "",
                    "revert": false,
                    "revertMessage": "",
                    "selector": "0x45e6bdcd",
                    "status": true,
                    "value": "0"
                },
                "nodeType": 0
            },
            "4": {
                "invocation": {
                    "address": "0x35d1b3f3d7966a1dfe207aa4514c12a259a0492b",
                    "callData": "0x4554482d41000000000000000000000000000000000000000000000000000000000000000000000000000000bea422038de0e77e6003b204d62f765cb0069122000000000000000000000000bea422038de0e77e6003b204d62f765cb0069122000000000000000000000000bea422038de0e77e6003b204d62f765cb0069122ffffffffffffffffffffffffffffffffffffffffffffffff21f494c589c000000000000000000000000000000000000000000000000000000000000000000000",
                    "decodedMethod": {
                        "callParams": [
                            {
                                "name": "i",
                                "type": "bytes32",
                                "value": "0x4554482d41000000000000000000000000000000000000000000000000000000"
                            },
                            {
                                "name": "u",
                                "type": "address",
                                "value": "0xbea422038de0e77e6003b204d62f765cb0069122"
                            },
                            {
                                "name": "v",
                                "type": "address",
                                "value": "0xbea422038de0e77e6003b204d62f765cb0069122"
                            },
                            {
                                "name": "w",
                                "type": "address",
                                "value": "0xbea422038de0e77e6003b204d62f765cb0069122"
                            },
                            {
                                "name": "dink",
                                "type": "int256",
                                "value": "-16,000,000,000,000,000,000"
                            },
                            {
                                "name": "dart",
                                "type": "int256",
                                "value": "0"
                            }
                        ],
                        "constructorArguments": "",
                        "name": "frob",
                        "returnParams": [],
                        "signature": "frob(bytes32,address,address,address,int256,int256)"
                    },
                    "errorInfo": "",
                    "fromAddress": "0x5ef30b9986345249bc32d8928b7ee64de9435e39",
                    "gasUsed": 61065,
                    "id": 4,
                    "methodDecoded": true,
                    "operation": "CALL",
                    "output": "",
                    "revert": false,
                    "revertMessage": "",
                    "selector": "0x76088703",
                    "status": true,
                    "value": "0"
                },
                "nodeType": 0
            },
            "5": {
                "event": {
                    "contract": "0x35d1b3f3d7966a1dfe207aa4514c12a259a0492b",
                    "decodedLog": null,
                    "id": 5,
                    "logData": "0x000000000000000000000000000000000000000000000000000000000000002000000000000000000000000000000000000000000000000000000000000000e0760887034554482d41000000000000000000000000000000000000000000000000000000000000000000000000000000bea422038de0e77e6003b204d62f765cb0069122000000000000000000000000bea422038de0e77e6003b204d62f765cb0069122000000000000000000000000bea422038de0e77e6003b204d62f765cb0069122ffffffffffffffffffffffffffffffffffffffffffffffff21f494c589c00000000000000000000000000000000000000000000000000000000000000000000000000000000000000000000000000000000000000000000000000000",
                    "logDecoded": false,
                    "operation": "EVENT",
                    "revert": false,
                    "status": true,
                    "topics": [
                        "0x7608870300000000000000000000000000000000000000000000000000000000",
                        "0x4554482d41000000000000000000000000000000000000000000000000000000",
                        "0x000000000000000000000000bea422038de0e77e6003b204d62f765cb0069122",
                        "0x000000000000000000000000bea422038de0e77e6003b204d62f765cb0069122"
                    ]
                },
                "nodeType": 1
            },
            "6": {
                "event": {
                    "contract": "0x5ef30b9986345249bc32d8928b7ee64de9435e39",
                    "decodedLog": null,
                    "id": 6,
                    "logData": "0x000000000000000000000000000000000000000000000000000000000000002000000000000000000000000000000000000000000000000000000000000000e045e6bdcd000000000000000000000000000000000000000000000000000000000000470effffffffffffffffffffffffffffffffffffffffffffffff21f494c589c00000000000000000000000000000000000000000000000000000000000000000000000000000000000000000000000000000000000000000000000000000000000000000000000000000000000000000000000000000000000000000000000000000000000000000000000000000000000000000000000000000000000000000000000000000000000000000000000000000000000000000000000000000",
                    "logDecoded": false,
                    "operation": "EVENT",
                    "revert": false,
                    "status": true,
                    "topics": [
                        "0x45e6bdcd00000000000000000000000000000000000000000000000000000000",
                        "0x000000000000000000000000aafdb473cf8fa0113330ccd7d5aa5e91d41bc655",
                        "0x000000000000000000000000000000000000000000000000000000000000470e",
                        "0xffffffffffffffffffffffffffffffffffffffffffffffff21f494c589c00000"
                    ]
                },
                "nodeType": 1
            },
            "7": {
                "invocation": {
                    "address": "0x5ef30b9986345249bc32d8928b7ee64de9435e39",
                    "callData": "0x000000000000000000000000000000000000000000000000000000000000470e000000000000000000000000aafdb473cf8fa0113330ccd7d5aa5e91d41bc655000000000000000000000000000000000000000000000000de0b6b3a76400000",
                    "decodedMethod": {
                        "callParams": [
                            {
                                "name": "cdp",
                                "type": "uint256",
                                "value": "18,190"
                            },
                            {
                                "name": "dst",
                                "type": "address",
                                "value": "0xaafdb473cf8fa0113330ccd7d5aa5e91d41bc655"
                            },
                            {
                                "name": "wad",
                                "type": "uint256",
                                "value": "16,000,000,000,000,000,000"
                            }
                        ],
                        "constructorArguments": "",
                        "name": "flux",
                        "returnParams": [],
                        "signature": "flux(uint256,address,uint256)"
                    },
                    "errorInfo": "",
                    "fromAddress": "0xaafdb473cf8fa0113330ccd7d5aa5e91d41bc655",
                    "gasUsed": 34275,
                    "id": 7,
                    "methodDecoded": true,
                    "operation": "CALL",
                    "output": "",
                    "revert": false,
                    "revertMessage": "",
                    "selector": "0x9bb8f838",
                    "status": true,
                    "value": "0"
                },
                "nodeType": 0
            },
            "8": {
                "invocation": {
                    "address": "0x35d1b3f3d7966a1dfe207aa4514c12a259a0492b",
                    "callData": "0x4554482d41000000000000000000000000000000000000000000000000000000000000000000000000000000bea422038de0e77e6003b204d62f765cb0069122000000000000000000000000aafdb473cf8fa0113330ccd7d5aa5e91d41bc655000000000000000000000000000000000000000000000000de0b6b3a76400000",
                    "decodedMethod": {
                        "callParams": [
                            {
                                "name": "ilk",
                                "type": "bytes32",
                                "value": "0x4554482d41000000000000000000000000000000000000000000000000000000"
                            },
                            {
                                "name": "src",
                                "type": "address",
                                "value": "0xbea422038de0e77e6003b204d62f765cb0069122"
                            },
                            {
                                "name": "dst",
                                "type": "address",
                                "value": "0xaafdb473cf8fa0113330ccd7d5aa5e91d41bc655"
                            },
                            {
                                "name": "wad",
                                "type": "uint256",
                                "value": "16,000,000,000,000,000,000"
                            }
                        ],
                        "constructorArguments": "",
                        "name": "flux",
                        "returnParams": [],
                        "signature": "flux(bytes32,address,address,uint256)"
                    },
                    "errorInfo": "",
                    "fromAddress": "0x5ef30b9986345249bc32d8928b7ee64de9435e39",
                    "gasUsed": 28307,
                    "id": 8,
                    "methodDecoded": true,
                    "operation": "CALL",
                    "output": "",
                    "revert": false,
                    "revertMessage": "",
                    "selector": "0x6111be2e",
                    "status": true,
                    "value": "0"
                },
                "nodeType": 0
            },
            "9": {
                "event": {
                    "contract": "0x35d1b3f3d7966a1dfe207aa4514c12a259a0492b",
                    "decodedLog": null,
                    "id": 9,
                    "logData": "0x000000000000000000000000000000000000000000000000000000000000002000000000000000000000000000000000000000000000000000000000000000e06111be2e4554482d41000000000000000000000000000000000000000000000000000000000000000000000000000000bea422038de0e77e6003b204d62f765cb0069122000000000000000000000000aafdb473cf8fa0113330ccd7d5aa5e91d41bc655000000000000000000000000000000000000000000000000de0b6b3a764000000000000000000000000000000000000000000000000000000000000000000000000000000000000000000000000000000000000000000000000000000000000000000000000000000000000000000000000000000000000000000000",
                    "logDecoded": false,
                    "operation": "EVENT",
                    "revert": false,
                    "status": true,
                    "topics": [
                        "0x6111be2e00000000000000000000000000000000000000000000000000000000",
                        "0x4554482d41000000000000000000000000000000000000000000000000000000",
                        "0x000000000000000000000000bea422038de0e77e6003b204d62f765cb0069122",
                        "0x000000000000000000000000aafdb473cf8fa0113330ccd7d5aa5e91d41bc655"
                    ]
                },
                "nodeType": 1
            }
        },
        "gasFlame": [
            {
                "children": [
                    {
                        "children": [
                            {
                                "children": [],
                                "depth": 0,
                                "name": "Initial Gas",
                                "value": 22976
                            },
                            {
                                "children": [
                                    {
                                        "children": [
                                            {
                                                "children": [
                                                    {
                                                        "children": [],
                                                        "depth": 3,
                                                        "name": "frob",
                                                        "value": 61065
                                                    }
                                                ],
                                                "depth": 2,
                                                "name": "frob",
                                                "value": 77576
                                            },
                                            {
                                                "children": [
                                                    {
                                                        "children": [],
                                                        "depth": 3,
                                                        "name": "flux",
                                                        "value": 28307
                                                    }
                                                ],
                                                "depth": 2,
                                                "name": "flux",
                                                "value": 34275
                                            },
                                            {
                                                "children": [
                                                    {
                                                        "children": [],
                                                        "depth": 3,
                                                        "name": "slip",
                                                        "value": 7584
                                                    },
                                                    {
                                                        "children": [],
                                                        "depth": 3,
                                                        "name": "transfer",
                                                        "value": 29962
                                                    }
                                                ],
                                                "depth": 2,
                                                "name": "exit",
                                                "value": 52062
                                            },
                                            {
                                                "children": [],
                                                "depth": 2,
                                                "name": "gem",
                                                "value": 442
                                            },
                                            {
                                                "children": [
                                                    {
                                                        "children": [],
                                                        "depth": 3,
                                                        "name": "fallback",
                                                        "value": 40
                                                    }
                                                ],
                                                "depth": 2,
                                                "name": "withdraw",
                                                "value": 9180
                                            },
                                            {
                                                "children": [],
                                                "depth": 2,
                                                "name": "fallback",
                                                "value": 0
                                            }
                                        ],
                                        "depth": 1,
                                        "name": "freeETH",
                                        "value": 187976
                                    }
                                ],
                                "depth": 0,
                                "name": "Executed Gas",
                                "value": 198917
                            }
                        ],
                        "depth": -1,
                        "name": "Actual Gas Used",
                        "value": 162193
                    },
                    {
                        "children": [],
                        "depth": -1,
                        "name": "Refunded Gas",
                        "value": 59700
                    }
                ],
                "depth": -2,
                "name": "Total Gas",
                "value": 221893
            }
        ],
        "isConfirmed": true,
        "mainTrace": [
            {
                "children": [
                    {
                        "children": [
                            {
                                "children": [],
                                "depth": 1,
                                "id": 1,
                                "order": 1
                            },
                            {
                                "children": [
                                    {
                                        "children": [
                                            {
                                                "children": [
                                                    {
                                                        "children": [],
                                                        "depth": 4,
                                                        "id": 5,
                                                        "order": 5
                                                    }
                                                ],
                                                "depth": 3,
                                                "id": 4,
                                                "order": 4
                                            },
                                            {
                                                "children": [],
                                                "depth": 3,
                                                "id": 6,
                                                "order": 6
                                            }
                                        ],
                                        "depth": 2,
                                        "id": 3,
                                        "order": 3
                                    },
                                    {
                                        "children": [
                                            {
                                                "children": [
                                                    {
                                                        "children": [],
                                                        "depth": 4,
                                                        "id": 9,
                                                        "order": 9
                                                    }
                                                ],
                                                "depth": 3,
                                                "id": 8,
                                                "order": 8
                                            },
                                            {
                                                "children": [],
                                                "depth": 3,
                                                "id": 10,
                                                "order": 10
                                            }
                                        ],
                                        "depth": 2,
                                        "id": 7,
                                        "order": 7
                                    },
                                    {
                                        "children": [
                                            {
                                                "children": [
                                                    {
                                                        "children": [],
                                                        "depth": 4,
                                                        "id": 13,
                                                        "order": 13
                                                    }
                                                ],
                                                "depth": 3,
                                                "id": 12,
                                                "order": 12
                                            },
                                            {
                                                "children": [
                                                    {
                                                        "children": [],
                                                        "depth": 4,
                                                        "id": 15,
                                                        "order": 15
                                                    }
                                                ],
                                                "depth": 3,
                                                "id": 14,
                                                "order": 14
                                            },
                                            {
                                                "children": [],
                                                "depth": 3,
                                                "id": 16,
                                                "order": 16
                                            }
                                        ],
                                        "depth": 2,
                                        "id": 11,
                                        "order": 11
                                    },
                                    {
                                        "children": [],
                                        "depth": 2,
                                        "id": 17,
                                        "order": 17
                                    },
                                    {
                                        "children": [
                                            {
                                                "children": [],
                                                "depth": 3,
                                                "id": 19,
                                                "order": 19
                                            },
                                            {
                                                "children": [],
                                                "depth": 3,
                                                "id": 20,
                                                "order": 20
                                            }
                                        ],
                                        "depth": 2,
                                        "id": 18,
                                        "order": 18
                                    },
                                    {
                                        "children": [],
                                        "depth": 2,
                                        "id": 21,
                                        "order": 21
                                    }
                                ],
                                "depth": 1,
                                "id": 2,
                                "order": 2
                            }
                        ],
                        "depth": 0,
                        "id": 0,
                        "order": 0
                    }
                ],
                "depth": -1,
                "id": -1,
                "order": -1
            }
        ],
        "mainTraceNodeCount": 22,
        "parentIdMap": {
            "0": -1,
            "1": 0,
            "10": 7,
            "11": 2,
            "12": 11,
            "13": 12,
            "14": 11,
            "15": 14,
            "16": 11,
            "17": 2,
            "18": 2,
            "19": 18,
            "2": 0,
            "20": 18,
            "21": 2,
            "3": 2,
            "4": 3,
            "5": 4,
            "6": 3,
            "7": 2,
            "8": 7,
            "9": 8
        },
        "tidyTrace": [
            {
                "children": [
                    {
                        "children": [
                            {
                                "children": [],
                                "depth": 1,
                                "id": 1,
                                "order": 1
                            },
                            {
                                "children": [
                                    {
                                        "children": [
                                            {
                                                "children": [
                                                    {
                                                        "children": [],
                                                        "depth": 4,
                                                        "id": 5,
                                                        "order": 5
                                                    }
                                                ],
                                                "depth": 3,
                                                "id": 4,
                                                "order": 4
                                            },
                                            {
                                                "children": [],
                                                "depth": 3,
                                                "id": 6,
                                                "order": 6
                                            }
                                        ],
                                        "depth": 2,
                                        "id": 3,
                                        "order": 3
                                    },
                                    {
                                        "children": [
                                            {
                                                "children": [
                                                    {
                                                        "children": [],
                                                        "depth": 4,
                                                        "id": 9,
                                                        "order": 9
                                                    }
                                                ],
                                                "depth": 3,
                                                "id": 8,
                                                "order": 8
                                            },
                                            {
                                                "children": [],
                                                "depth": 3,
                                                "id": 10,
                                                "order": 10
                                            }
                                        ],
                                        "depth": 2,
                                        "id": 7,
                                        "order": 7
                                    },
                                    {
                                        "children": [
                                            {
                                                "children": [
                                                    {
                                                        "children": [],
                                                        "depth": 4,
                                                        "id": 13,
                                                        "order": 13
                                                    }
                                                ],
                                                "depth": 3,
                                                "id": 12,
                                                "order": 12
                                            },
                                            {
                                                "children": [
                                                    {
                                                        "children": [],
                                                        "depth": 4,
                                                        "id": 15,
                                                        "order": 15
                                                    }
                                                ],
                                                "depth": 3,
                                                "id": 14,
                                                "order": 14
                                            },
                                            {
                                                "children": [],
                                                "depth": 3,
                                                "id": 16,
                                                "order": 16
                                            }
                                        ],
                                        "depth": 2,
                                        "id": 11,
                                        "order": 11
                                    },
                                    {
                                        "children": [],
                                        "depth": 2,
                                        "id": 17,
                                        "order": 17
                                    },
                                    {
                                        "children": [
                                            {
                                                "children": [],
                                                "depth": 3,
                                                "id": 19,
                                                "order": 19
                                            },
                                            {
                                                "children": [],
                                                "depth": 3,
                                                "id": 20,
                                                "order": 20
                                            }
                                        ],
                                        "depth": 2,
                                        "id": 18,
                                        "order": 18
                                    },
                                    {
                                        "children": [],
                                        "depth": 2,
                                        "id": 21,
                                        "order": 21
                                    }
                                ],
                                "depth": 1,
                                "id": 2,
                                "order": 2
                            }
                        ],
                        "depth": 0,
                        "id": 0,
                        "order": 0
                    }
                ],
                "depth": -1,
                "id": -1,
                "order": -1
            }
        ],
        "tidyTraceNodeCount": 22
    },
    "state_change": {
        "stateChanges": [
            {
                "address": "0x35d1b3f3d7966a1dfe207aa4514c12a259a0492b",
                "erc": "",
                "slots": [
                    {
                        "current": "0x000000000000000000000000000000000000000000000000c249fdd327780000",
                        "key": "0xfa17c3c343fd71f0b5939249d6edac2ca1191f6ab405a7eb0415071df76dd37c",
                        "prev": "0x000000000000000000000000000000000000000000000001a055690d9db80000"
                    }
                ],
                "storageVariables": [
                    {
                        "name": "urns",
                        "type": "mapping(bytes32 => mapping(address => struct Vat.Urn))",
                        "value": {
                            "pairs": [
                                {
                                    "key": "0x4554482d41000000000000000000000000000000000000000000000000000000",
                                    "value": {
                                        "pairs": [
                                            {
                                                "key": "0xbea422038de0e77e6003b204d62f765cb0069122",
                                                "value": {
                                                    "fields": [
                                                        {
                                                            "name": "ink",
                                                            "type": "uint256",
                                                            "value": {
                                                                "current": "14000000000000000000",
                                                                "prev": "30000000000000000000",
                                                                "typeTag": 1
                                                            }
                                                        }
                                                    ],
                                                    "typeTag": 3
                                                }
                                            }
                                        ],
                                        "typeTag": 4
                                    }
                                }
                            ],
                            "typeTag": 4
                        }
                    }
                ]
            },
            {
                "address": "0xc02aaa39b223fe8d0a0e5c4f27ead9083c756cc2",
                "erc": "ERC-20",
                "slots": [
                    {
                        "current": "0x00000000000000000000000000000000000000000002387a64028199298e01c5",
                        "key": "0xc92c3a279814545c4590501add24843ce5413758f3869cb4885635cbbdbbaa51",
                        "prev": "0x00000000000000000000000000000000000000000002387b420decd39fce01c5"
                    }
                ],
                "storageVariables": [
                    {
                        "name": "balanceOf",
                        "type": "mapping(address => uint256)",
                        "value": {
                            "pairs": [
                                {
                                    "key": "0x2f0b23f53734252bda2277357e97e1517d6b042a",
                                    "value": {
                                        "current": "2684561871511799620043205",
                                        "prev": "2684577871511799620043205",
                                        "typeTag": 1
                                    }
                                }
                            ],
                            "typeTag": 4
                        }
                    }
                ]
            }
        ]
    }
}