{
    "balance_change": {
        "balanceChanges": []
    },
    "profile": {
        "basic_info": {
            "baseFee": "",
            "blockNumber": 11434110,
            "callData": "0xaf4da6f50000000000000000000000005d8d9f5b96f4438195be9b99eee6118ed4304286000000000000000000000000e7689b2c21242e07870aaa0ffee1ec11833d5e24000000000000000000000000465e22e30ce69ec81c2defa2c71d510875b3189100000000000000000000000000000000000000000000000000000000000003e500000000000000000000000000000000000000000000000000000000000003e5000000000000000000000000d9e1ce17f2641f24ae83637ab66a2cca9c378b9f0000000000000000000000007a250d5630b4cf539739df2c5dacb4c659f2488d0000000000000000000000000000000000000000000000000014173261c4359c00000000000000000000000000000000000000000000000f2dc7d47f15600000",
            "debugEnable": true,
            "errorInfo": "execution reverted",
            "eventCount": 0,
            "feeRecipient": "0x52bc44d5378309ee2abf1539bf71de1b7d7be3b5",
            "formatValue": "0",
            "gasLimit": 700000,
            "gasPrice": "28.83000097",
            "gasUsed": 39668,
            "intTxnCount": 3,
            "internalRevert": true,
            "internalRevertMessage": "",
            "isContractCreation": false,
            "isFlashloan": false,
            "maxFee": "",
            "nonce": 636,
            "overwritedBlockNumber": -1,
            "priorityFee": "",
            "receiver": "0xb8db34f834e9df42f2002ceb7b829dad89d08e14",
            "revertMessage": "E2",
            "sender": "0x0680eca5c6c3dde260d121d980ba1087ceee7821",
            "simulationEnable": true,
            "sourceTxnHash": "0x1136ce4b2495aa5c99a534b3085b30aecc93c0d4d88976cf9307311de3d44db1",
            "status": false,
            "timestamp": "2020-12-11T21:31:02Z",
            "transactionFee": "0.00114362847847796",
            "txnHash": "0x1136ce4b2495aa5c99a534b3085b30aecc93c0d4d88976cf9307311de3d44db1",
            "txnIndex": 91,
            "type": 0,
            "value": "0"
        },
        "fund_flow": [],
        "token_infos": [
            {
                "address": "0xc02aaa39b223fe8d0a0e5c4f27ead9083c756cc2",
                "decimals": 18
            },
            {
                "address": "0xeeeeeeeeeeeeeeeeeeeeeeeeeeeeeeeeeeeeeeee",
                "decimals": 18
            }
        ]
    },
    "address_label": {
        "labels": [
            {
                "address": "0x465e22e30ce69ec81c2defa2c71d510875b31891",
                "label": "Uniswap V2: COVER 5"
            },
            {
                "address": "0x0000000000000000000000000000000000000001",
                "label": "Precompiled"
            },
            {
                "address": "0x0000000000000000000000000000000000000002",
                "label": "Precompiled"
            },
            {
                "address": "0x0000000000000000000000000000000000000003",
                "label": "Precompiled"
            },
            {
                "address": "0x0000000000000000000000000000000000000004",
                "label": "Precompiled"
            },
            {
                "address": "0xeeeeeeeeeeeeeeeeeeeeeeeeeeeeeeeeeeeeeeee",
                "label": "Ether"
            },
            {
                "address": "0xe7689b2c21242e07870aaa0ffee1ec11833d5e24",
                "label": "SushiSwap: COVER"
            }
        ]
    },
    "trace": {
        "accountLabels": null,
        "dataMap": {
            "-1": {
                "invocation": {
                    "address": "0x0680eca5c6c3dde260d121d980ba1087ceee7821",
                    "callData": "",
                    "decodedMethod": null,
                    "errorInfo": "",
                    "fromAddress": "",
                    "gasUsed": 0,
                    "id": -1,
                    "methodDecoded": false,
                    "operation": "",
                    "output": "",
                    "revert": false,
                    "revertMessage": "",
                    "selector": "",
                    "status": false,
                    "value": ""
                },
                "nodeType": 0
            },
            "0": {
                "invocation": {
                    "address": "0xb8db34f834e9df42f2002ceb7b829dad89d08e14",
                    "callData": "0x0000000000000000000000005d8d9f5b96f4438195be9b99eee6118ed4304286000000000000000000000000e7689b2c21242e07870aaa0ffee1ec11833d5e24000000000000000000000000465e22e30ce69ec81c2defa2c71d510875b3189100000000000000000000000000000000000000000000000000000000000003e500000000000000000000000000000000000000000000000000000000000003e5000000000000000000000000d9e1ce17f2641f24ae83637ab66a2cca9c378b9f0000000000000000000000007a250d5630b4cf539739df2c5dacb4c659f2488d0000000000000000000000000000000000000000000000000014173261c4359c00000000000000000000000000000000000000000000000f2dc7d47f15600000",
                    "decodedMethod": null,
                    "errorInfo": "execution reverted",
                    "fromAddress": "0x0680eca5c6c3dde260d121d980ba1087ceee7821",
                    "gasUsed": 39668,
                    "id": 0,
                    "methodDecoded": false,
                    "operation": "CALL",
                    "output": "0x08c379a0000000000000000000000000000000000000000000000000000000000000002000000000000000000000000000000000000000000000000000000000000000024532000000000000000000000000000000000000000000000000000000000000",
                    "revert": true,
                    "revertMessage": "E2",
                    "selector": "0xaf4da6f5",
                    "status": false,
                    "value": "0"
                },
                "nodeType": 0
            },
            "1": {
                "invocation": {
                    "address": "0xa5a624d89238c28d05f08abd048499d53d75a3bb",
                    "callData": "0x0000000000000000000000005d8d9f5b96f4438195be9b99eee6118ed4304286000000000000000000000000e7689b2c21242e07870aaa0ffee1ec11833d5e24000000000000000000000000465e22e30ce69ec81c2defa2c71d510875b3189100000000000000000000000000000000000000000000000000000000000003e500000000000000000000000000000000000000000000000000000000000003e5000000000000000000000000d9e1ce17f2641f24ae83637ab66a2cca9c378b9f0000000000000000000000007a250d5630b4cf539739df2c5dacb4c659f2488d0000000000000000000000000000000000000000000000000014173261c4359c00000000000000000000000000000000000000000000000f2dc7d47f15600000",
                    "decodedMethod": null,
                    "errorInfo": "execution reverted",
                    "fromAddress": "0xb8db34f834e9df42f2002ceb7b829dad89d08e14",
                    "gasUsed": 12550,
                    "id": 1,
                    "methodDecoded": false,
                    "operation": "DELEGATECALL",
                    "output": "0x08c379a0000000000000000000000000000000000000000000000000000000000000002000000000000000000000000000000000000000000000000000000000000000024532000000000000000000000000000000000000000000000000000000000000",
                    "revert": true,
                    "revertMessage": "E2",
                    "selector": "0xaf4da6f5",
                    "status": false,
                    "value": "0"
                },
                "nodeType": 0
            },
            "2": {
                "invocation": {
                    "address": "0xe7689b2c21242e07870aaa0ffee1ec11833d5e24",
                    "callData": "0x",
                    "decodedMethod": {
                        "callParams": [],
                        "constructorArguments": "",
                        "name": "getReserves",
                        "returnParams": [
                            {
                                "name": "_reserve0",
                                "type": "uint112",
                                "value": "2,812,508,144,403,943,669,004"
                            },
                            {
                                "name": "_reserve1",
                                "type": "uint112",
                                "value": "6,978,365,396,236,353,463,235"
                            },
                            {
                                "name": "_blockTimestampLast",
                                "type": "uint32",
                                "value": "1,607,722,262"
                            }
                        ],
                        "signature": "getReserves()"
                    },
                    "errorInfo": "",
                    "fromAddress": "0xb8db34f834e9df42f2002ceb7b829dad89d08e14",
                    "gasUsed": 1217,
                    "id": 2,
                    "methodDecoded": true,
                    "operation": "STATICCALL",
                    "output": "0x00000000000000000000000000000000000000000000009877642807521a3d0c00000000000000000000000000000000000000000000017a4c4632e999e4e3c3000000000000000000000000000000000000000000000000000000005fd3e516",
                    "revert": true,
                    "revertMessage": "",
                    "selector": "0x0902f1ac",
                    "status": true,
                    "value": "0"
                },
                "nodeType": 0
            },
            "3": {
                "invocation": {
                    "address": "0x465e22e30ce69ec81c2defa2c71d510875b31891",
                    "callData": "0x",
                    "decodedMethod": {
                        "callParams": [],
                        "constructorArguments": "",
                        "name": "getReserves",
                        "returnParams": [
                            {
                                "name": "_reserve0",
                                "type": "uint112",
                                "value": "196,055,703,993,779,200,168"
                            },
                            {
                                "name": "_reserve1",
                                "type": "uint112",
                                "value": "489,492,219,039,513,152,950"
                            },
                            {
                                "name": "_blockTimestampLast",
                                "type": "uint32",
                                "value": "1,607,722,262"
                            }
                        ],
                        "signature": "getReserves()"
                    },
                    "errorInfo": "",
                    "fromAddress": "0xb8db34f834e9df42f2002ceb7b829dad89d08e14",
                    "gasUsed": 1204,
                    "id": 3,
                    "methodDecoded": true,
                    "operation": "STATICCALL",
                    "output": "0x00000000000000000000000000000000000000000000000aa0d1c808e257a0a800000000000000000000000000000000000000000000001a8911b3c687e18db6000000000000000000000000000000000000000000000000000000005fd3e516",
                    "revert": true,
                    "revertMessage": "",
                    "selector": "0x0902f1ac",
                    "status": true,
                    "value": "0"
                },
                "nodeType": 0
            }
        },
        "gasFlame": [
            {
                "children": [
                    {
                        "children": [
                            {
                                "children": [],
                                "depth": 0,
                                "name": "Initial Gas",
                                "value": 23632
                            },
                            {
                                "children": [
                                    {
                                        "children": [
                                            {
                                                "children": [],
                                                "depth": 2,
                                                "name": "getReserves",
                                                "value": 1217
                                            },
                                            {
                                                "children": [],
                                                "depth": 2,
                                                "name": "getReserves",
                                                "value": 1204
                                            }
                                        ],
                                        "depth": 1,
                                        "name": "0xaf4da6f5",
                                        "value": 12550
                                    }
                                ],
                                "depth": 0,
                                "name": "Executed Gas",
                                "value": 16036
                            }
                        ],
                        "depth": -1,
                        "name": "Actual Gas Used",
                        "value": 39668
                    },
                    {
                        "children": [],
                        "depth": -1,
                        "name": "Refunded Gas",
                        "value": 0
                    }
                ],
                "depth": -2,
                "name": "Total Gas",
                "value": 39668
            }
        ],
        "isConfirmed": true,
        "mainTrace": [
            {
                "children": [
                    {
                        "children": [
                            {
                                "children": [
                                    {
                                        "children": [],
                                        "depth": 2,
                                        "id": 2,
                                        "order": 2
                                    },
                                    {
                                        "children": [],
                                        "depth": 2,
                                        "id": 3,
                                        "order": 3
                                    }
                                ],
                                "depth": 1,
                                "id": 1,
                                "order": 1
                            }
                        ],
                        "depth": 0,
                        "id": 0,
                        "order": 0
                    }
                ],
                "depth": -1,
                "id": -1,
                "order": -1
            }
        ],
        "mainTraceNodeCount": 4,
        "parentIdMap": {
            "0": -1,
            "1": 0,
            "2": 1,
            "3": 1
        },
        "tidyTrace": [
            {
                "children": [
                    {
                        "children": [
                            {
                                "children": [],
                                "depth": 1,
                                "id": 1,
                                "order": 1
                            }
                        ],
                        "depth": 0,
                        "id": 0,
                        "order": 0
                    }
                ],
                "depth": -1,
                "id": -1,
                "order": -1
            }
        ],
        "tidyTraceNodeCount": 2
    },
    "state_change": {
        "stateChanges": []
    }
}