{
    "balance_change": {
        "balanceChanges": [
            {
                "account": "0x76de0cf8c43c20f7aaf502f144b9354639377b3f",
                "assets": [
                    {
                        "address": "0x595832f8fc6bf59c85c527fec3740a1b7a361269",
                        "amount": "14,765.932",
                        "iconUrl": "https://assets.blocksec.com/icon/4871495d66ea41542a18e784ab8e96068997c15fa8d90dfbdc9cf905a3828065.png",
                        "isERC1155": false,
                        "isERC721": false,
                        "sign": false,
                        "value": ""
                    }
                ]
            },
            {
                "account": "0xda0a62a8a00cc47fcac20a68333f08e7142d01cf",
                "assets": [
                    {
                        "address": "0x595832f8fc6bf59c85c527fec3740a1b7a361269",
                        "amount": "14,765.932",
                        "iconUrl": "https://assets.blocksec.com/icon/4871495d66ea41542a18e784ab8e96068997c15fa8d90dfbdc9cf905a3828065.png",
                        "isERC1155": false,
                        "isERC721": false,
                        "sign": true,
                        "value": ""
                    }
                ]
            }
        ]
    },
    "profile": {
        "basic_info": {
            "baseFee": "",
            "blockNumber": 4695555,
            "callData": "0xa9059cbb000000000000000000000000da0a62a8a00cc47fcac20a68333f08e7142d01cf00000000000000000000000000000000000000000000000000000003701e3de0",
            "debugEnable": true,
            "errorInfo": "",
            "eventCount": 1,
            "feeRecipient": "0x829bd824b016326a401d083b33d092293333a830",
            "formatValue": "0",
            "gasLimit": 60000,
            "gasPrice": "52",
            "gasUsed": 51534,
            "intTxnCount": 0,
            "internalRevert": false,
            "internalRevertMessage": "",
            "isContractCreation": false,
            "isFlashloan": false,
            "maxFee": "",
            "nonce": 11,
            "overwritedBlockNumber": -1,
            "priorityFee": "",
            "receiver": "0x595832f8fc6bf59c85c527fec3740a1b7a361269",
            "revertMessage": "",
            "sender": "0x76de0cf8c43c20f7aaf502f144b9354639377b3f",
            "simulationEnable": true,
            "sourceTxnHash": "0x114dc9c4d4dd4c14f2142d9a7ee2f09672954736f4208809ba1c3c8a761ab52f",
            "status": true,
            "timestamp": "2017-12-08T07:48:34Z",
            "transactionFee": "0.002679768",
            "txnHash": "0x114dc9c4d4dd4c14f2142d9a7ee2f09672954736f4208809ba1c3c8a761ab52f",
            "txnIndex": 58,
            "type": 0,
            "value": "0"
        },
        "fund_flow": [
            {
                "amount": "14,765.932",
                "from": "0x76de0cf8c43c20f7aaf502f144b9354639377b3f",
                "id": 1,
                "isERC1155": false,
                "isERC721": false,
                "isReverted": false,
                "order": 1,
                "to": "0xda0a62a8a00cc47fcac20a68333f08e7142d01cf",
                "token": "0x595832f8fc6bf59c85c527fec3740a1b7a361269"
            }
        ],
        "token_infos": [
            {
                "address": "0x595832f8fc6bf59c85c527fec3740a1b7a361269",
                "decimals": 6
            },
            {
                "address": "0xc02aaa39b223fe8d0a0e5c4f27ead9083c756cc2",
                "decimals": 18
            },
            {
                "address": "0xeeeeeeeeeeeeeeeeeeeeeeeeeeeeeeeeeeeeeeee",
                "decimals": 18
            }
        ]
    },
    "address_label": {
        "labels": [
            {
                "address": "0x0000000000000000000000000000000000000001",
                "label": "Precompiled"
            },
            {
                "address": "0x0000000000000000000000000000000000000002",
                "label": "Precompiled"
            },
            {
                "address": "0x0000000000000000000000000000000000000003",
                "label": "Precompiled"
            },
            {
                "address": "0x0000000000000000000000000000000000000004",
                "label": "Precompiled"
            },
            {
                "address": "0xeeeeeeeeeeeeeeeeeeeeeeeeeeeeeeeeeeeeeeee",
                "label": "Ether"
            },
            {
                "address": "0x595832f8fc6bf59c85c527fec3740a1b7a361269",
                "label": "PowerLedger: POWR Token"
            },
            {
                "address": "0xda0a62a8a00cc47fcac20a68333f08e7142d01cf",
                "label": "BINANCE"
            }
        ]
    },
    "trace": {
        "accountLabels": null,
        "dataMap": {
            "-1": {
                "invocation": {
                    "address": "0x76de0cf8c43c20f7aaf502f144b9354639377b3f",
                    "callData": "",
                    "decodedMethod": null,
                    "errorInfo": "",
                    "fromAddress": "",
                    "gasUsed": 0,
                    "id": -1,
                    "methodDecoded": false,
                    "operation": "",
                    "output": "",
                    "revert": false,
                    "revertMessage": "",
                    "selector": "",
                    "status": false,
                    "value": ""
                },
                "nodeType": 0
            },
            "0": {
                "invocation": {
                    "address": "0x595832f8fc6bf59c85c527fec3740a1b7a361269",
                    "callData": "0x000000000000000000000000da0a62a8a00cc47fcac20a68333f08e7142d01cf00000000000000000000000000000000000000000000000000000003701e3de0",
                    "decodedMethod": {
                        "callParams": [
                            {
                                "name": "_to",
                                "type": "address",
                                "value": "0xda0a62a8a00cc47fcac20a68333f08e7142d01cf"
                            },
                            {
                                "decimalAvailable": true,
                                "name": "_value",
                                "type": "uint256",
                                "value": "14,765,932,000"
                            }
                        ],
                        "constructorArguments": "",
                        "name": "transfer",
                        "returnParams": [
                            {
                                "name": "",
                                "type": "bool",
                                "value": true
                            }
                        ],
                        "signature": "transfer(address,uint256)"
                    },
                    "errorInfo": "",
                    "fromAddress": "0x76de0cf8c43c20f7aaf502f144b9354639377b3f",
                    "gasUsed": 51534,
                    "id": 0,
                    "methodDecoded": true,
                    "operation": "CALL",
                    "output": "0x0000000000000000000000000000000000000000000000000000000000000001",
                    "revert": false,
                    "revertMessage": "",
                    "selector": "0xa9059cbb",
                    "status": true,
                    "value": "0"
                },
                "nodeType": 0
            },
            "1": {
                "event": {
                    "contract": "0x595832f8fc6bf59c85c527fec3740a1b7a361269",
                    "decodedLog": {
                        "name": "Transfer",
                        "params": [
                            {
                                "name": "from",
                                "type": "address",
                                "value": "0x76de0cf8c43c20f7aaf502f144b9354639377b3f"
                            },
                            {
                                "name": "to",
                                "type": "address",
                                "value": "0xda0a62a8a00cc47fcac20a68333f08e7142d01cf"
                            },
                            {
                                "decimalAvailable": true,
                                "name": "value",
                                "type": "uint256",
                                "value": "14,765,932,000"
                            }
                        ],
                        "signature": "Transfer(address,address,uint256)"
                    },
                    "id": 1,
                    "logData": "0x00000000000000000000000000000000000000000000000000000003701e3de0",
                    "logDecoded": true,
                    "operation": "EVENT",
                    "revert": false,
                    "status": true,
                    "topics": [
                        "0xddf252ad1be2c89b69c2b068fc378daa952ba7f163c4a11628f55a4df523b3ef",
                        "0x00000000000000000000000076de0cf8c43c20f7aaf502f144b9354639377b3f",
                        "0x000000000000000000000000da0a62a8a00cc47fcac20a68333f08e7142d01cf"
                    ]
                },
                "nodeType": 1
            }
        },
        "gasFlame": [
            {
                "children": [
                    {
                        "children": [
                            {
                                "children": [],
                                "depth": 0,
                                "name": "Initial Gas",
                                "value": 23128
                            },
                            {
                                "children": [],
                                "depth": 0,
                                "name": "Executed Gas",
                                "value": 28406
                            }
                        ],
                        "depth": -1,
                        "name": "Actual Gas Used",
                        "value": 51534
                    },
                    {
                        "children": [],
                        "depth": -1,
                        "name": "Refunded Gas",
                        "value": 0
                    }
                ],
                "depth": -2,
                "name": "Total Gas",
                "value": 51534
            }
        ],
        "isConfirmed": true,
        "mainTrace": [
            {
                "children": [
                    {
                        "children": [
                            {
                                "children": [],
                                "depth": 1,
                                "id": 1,
                                "order": 1
                            }
                        ],
                        "depth": 0,
                        "id": 0,
                        "order": 0
                    }
                ],
                "depth": -1,
                "id": -1,
                "order": -1
            }
        ],
        "mainTraceNodeCount": 2,
        "parentIdMap": {
            "0": -1,
            "1": 0
        },
        "tidyTrace": [
            {
                "children": [
                    {
                        "children": [
                            {
                                "children": [],
                                "depth": 1,
                                "id": 1,
                                "order": 1
                            }
                        ],
                        "depth": 0,
                        "id": 0,
                        "order": 0
                    }
                ],
                "depth": -1,
                "id": -1,
                "order": -1
            }
        ],
        "tidyTraceNodeCount": 2
    },
    "state_change": {
        "stateChanges": [
            {
                "address": "0x595832f8fc6bf59c85c527fec3740a1b7a361269",
                "erc": "ERC-20",
                "slots": [
                    {
                        "current": "0x000000000000000000000000000000000000000000000000000000000000002d",
                        "key": "0x680910530f9227aa314ef4d4233368b2424a7bf86344b8338cef6a1cf83c6c27",
                        "prev": "0x00000000000000000000000000000000000000000000000000000003701e3e0d"
                    },
                    {
                        "current": "0x00000000000000000000000000000000000000000000000000000003701e3de0",
                        "key": "0x3bc33bd30342d9fa63e614c77191708f76fae59d4319f9c388f13f7ebdb0322e",
                        "prev": "0x0000000000000000000000000000000000000000000000000000000000000000"
                    }
                ],
                "storageVariables": []
            }
        ]
    }
}