{
    "balance_change": {
        "balanceChanges": [
            {
                "account": "0xb5fe4f262d6cb7836b09c9eb8c349c92b0ef5139",
                "assets": [
                    {
                        "address": "0xeeeeeeeeeeeeeeeeeeeeeeeeeeeeeeeeeeeeeeee",
                        "amount": "0.259002669870355271",
                        "iconUrl": "https://assets.blocksec.com/image/1663669189317-3.png",
                        "isERC1155": false,
                        "isERC721": false,
                        "sign": false,
                        "value": "998.5977439329450471"
                    },
                    {
                        "address": "0xb20217bf3d89667fa15907971866acd6ccd570c8",
                        "amount": "1",
                        "iconUrl": "",
                        "isERC1155": false,
                        "isERC721": true,
                        "sign": true,
                        "tokenID": "6187",
                        "value": ""
                    }
                ]
            },
            {
                "account": "0x0000000000000000000000000000000000000000",
                "assets": [
                    {
                        "address": "0xb20217bf3d89667fa15907971866acd6ccd570c8",
                        "amount": "1",
                        "iconUrl": "",
                        "isERC1155": false,
                        "isERC721": true,
                        "sign": false,
                        "tokenID": "6187",
                        "value": ""
                    }
                ]
            },
            {
                "account": "0xad334543437ef71642ee59285baf2f4dacba613f",
                "assets": [
                    {
                        "address": "0xeeeeeeeeeeeeeeeeeeeeeeeeeeeeeeeeeeeeeeee",
                        "amount": "0.259002669870355271",
                        "iconUrl": "https://assets.blocksec.com/image/1663669189317-3.png",
                        "isERC1155": false,
                        "isERC721": false,
                        "sign": true,
                        "value": "998.5977439329450471"
                    }
                ]
            }
        ]
    },
    "profile": {
        "basic_info": {
            "baseFee": "76.273952296",
            "blockNumber": 13435639,
            "callData": "0xeeb38ab4000000000000000000000000000000000000000000000000000000000000002f0000000000000000000000000000000000000000000000000000000002d93b12",
            "debugEnable": true,
            "errorInfo": "",
            "eventCount": 1,
            "feeRecipient": "0x2a20380dca5bc24d052acfbf79ba23e988ad0050",
            "formatValue": "0.259002669870355271",
            "gasLimit": 350000,
            "gasPrice": "80.522792565",
            "gasUsed": 269472,
            "intTxnCount": 5,
            "internalRevert": false,
            "internalRevertMessage": "",
            "isContractCreation": false,
            "isFlashloan": false,
            "maxFee": "80.522792565",
            "nonce": 21,
            "overwritedBlockNumber": -1,
            "priorityFee": "80.522792565",
            "receiver": "0xfe51ddca972a08ae9fb6edef3de73631d12c8a65",
            "revertMessage": "",
            "sender": "0xb5fe4f262d6cb7836b09c9eb8c349c92b0ef5139",
            "simulationEnable": true,
            "sourceTxnHash": "0x1146312fcddd3d76970d0bc270566f66f660c0eeba12a01d2f681c1d700d583c",
            "status": true,
            "timestamp": "2021-10-17T13:15:32Z",
            "transactionFee": "0.02169863795807568",
            "txnHash": "0x1146312fcddd3d76970d0bc270566f66f660c0eeba12a01d2f681c1d700d583c",
            "txnIndex": 16,
            "type": 2,
            "value": "259002669870355271"
        },
        "fund_flow": [
            {
                "amount": "0.259002669870355271",
                "from": "0xb5fe4f262d6cb7836b09c9eb8c349c92b0ef5139",
                "id": 1,
                "isERC1155": false,
                "isERC721": false,
                "isReverted": false,
                "order": 1,
                "to": "0xfe51ddca972a08ae9fb6edef3de73631d12c8a65",
                "token": "0xeeeeeeeeeeeeeeeeeeeeeeeeeeeeeeeeeeeeeeee"
            },
            {
                "amount": "0.259002669870355271",
                "from": "0xfe51ddca972a08ae9fb6edef3de73631d12c8a65",
                "id": 2,
                "isERC1155": false,
                "isERC721": false,
                "isReverted": false,
                "order": 2,
                "to": "0xad334543437ef71642ee59285baf2f4dacba613f",
                "token": "0xeeeeeeeeeeeeeeeeeeeeeeeeeeeeeeeeeeeeeeee"
            },
            {
                "amount": "1",
                "from": "0x0000000000000000000000000000000000000000",
                "id": 3,
                "isERC1155": false,
                "isERC721": true,
                "isReverted": false,
                "order": 3,
                "to": "0xb5fe4f262d6cb7836b09c9eb8c349c92b0ef5139",
                "token": "0xb20217bf3d89667fa15907971866acd6ccd570c8",
                "tokenID": "6187"
            }
        ],
        "token_infos": [
            {
                "address": "0xc02aaa39b223fe8d0a0e5c4f27ead9083c756cc2",
                "decimals": 18
            },
            {
                "address": "0xeeeeeeeeeeeeeeeeeeeeeeeeeeeeeeeeeeeeeeee",
                "decimals": 18
            }
        ]
    },
    "address_label": {
        "labels": [
            {
                "address": "0xad334543437ef71642ee59285baf2f4dacba613f",
                "label": "Polkacity: Deployer"
            },
            {
                "address": "0xfe51ddca972a08ae9fb6edef3de73631d12c8a65",
                "label": "POLN3DSeller"
            },
            {
                "address": "0x0000000000000000000000000000000000000003",
                "label": "Precompiled"
            },
            {
                "address": "0x0000000000000000000000000000000000000004",
                "label": "Precompiled"
            },
            {
                "address": "0xeeeeeeeeeeeeeeeeeeeeeeeeeeeeeeeeeeeeeeee",
                "label": "Ether"
            },
            {
                "address": "0xb20217bf3d89667fa15907971866acd6ccd570c8",
                "label": "Polka City 3D Asset: PC3D Token"
            },
            {
                "address": "0xc02aaa39b223fe8d0a0e5c4f27ead9083c756cc2",
                "label": "Wrapped Ether (WETH)"
            },
            {
                "address": "0xdac17f958d2ee523a2206206994597c13d831ec7",
                "label": "Tether: USDT Stablecoin"
            },
            {
                "address": "0x7a250d5630b4cf539739df2c5dacb4c659f2488d",
                "label": "Uniswap V2: Router 2"
            },
            {
                "address": "0x0d4a11d5eeaac28ec3f61d100daf4d40471f1852",
                "label": "Uniswap V2: USDT"
            },
            {
                "address": "0x0000000000000000000000000000000000000001",
                "label": "Precompiled"
            },
            {
                "address": "0x0000000000000000000000000000000000000002",
                "label": "Precompiled"
            }
        ]
    },
    "trace": {
        "accountLabels": null,
        "dataMap": {
            "-1": {
                "invocation": {
                    "address": "0xb5fe4f262d6cb7836b09c9eb8c349c92b0ef5139",
                    "callData": "",
                    "decodedMethod": null,
                    "errorInfo": "",
                    "fromAddress": "",
                    "gasUsed": 0,
                    "id": -1,
                    "methodDecoded": false,
                    "operation": "",
                    "output": "",
                    "revert": false,
                    "revertMessage": "",
                    "selector": "",
                    "status": false,
                    "value": ""
                },
                "nodeType": 0
            },
            "0": {
                "invocation": {
                    "address": "0xfe51ddca972a08ae9fb6edef3de73631d12c8a65",
                    "callData": "0x000000000000000000000000000000000000000000000000000000000000002f0000000000000000000000000000000000000000000000000000000002d93b12",
                    "decodedMethod": {
                        "callParams": [
                            {
                                "name": "assetType",
                                "type": "uint256",
                                "value": "47"
                            },
                            {
                                "name": "assetDetails",
                                "type": "uint256",
                                "value": "47,790,866"
                            }
                        ],
                        "constructorArguments": "",
                        "name": "buyWithEth",
                        "returnParams": [
                            {
                                "name": "",
                                "type": "bool",
                                "value": true
                            }
                        ],
                        "signature": "buyWithEth(uint256,uint256)"
                    },
                    "errorInfo": "",
                    "fromAddress": "0xb5fe4f262d6cb7836b09c9eb8c349c92b0ef5139",
                    "gasUsed": 269472,
                    "id": 0,
                    "methodDecoded": true,
                    "operation": "CALL",
                    "output": "0x0000000000000000000000000000000000000000000000000000000000000001",
                    "revert": false,
                    "revertMessage": "",
                    "selector": "0xeeb38ab4",
                    "status": true,
                    "value": "0.259002669870355271"
                },
                "nodeType": 0
            },
            "1": {
                "invocation": {
                    "address": "0xb20217bf3d89667fa15907971866acd6ccd570c8",
                    "callData": "0x000000000000000000000000000000000000000000000000000000000000002f",
                    "decodedMethod": {
                        "callParams": [
                            {
                                "name": "",
                                "type": "uint256",
                                "value": "47"
                            }
                        ],
                        "constructorArguments": "",
                        "name": "assetsByType",
                        "returnParams": [
                            {
                                "name": "maxAmount",
                                "type": "uint64",
                                "value": "500"
                            },
                            {
                                "name": "mintedAmount",
                                "type": "uint64",
                                "value": "126"
                            },
                            {
                                "name": "coinIndex",
                                "type": "uint64",
                                "value": "1"
                            },
                            {
                                "name": "copyright",
                                "type": "string",
                                "value": "Standard Copyright"
                            }
                        ],
                        "signature": "assetsByType(uint256)"
                    },
                    "errorInfo": "",
                    "fromAddress": "0xfe51ddca972a08ae9fb6edef3de73631d12c8a65",
                    "gasUsed": 5780,
                    "id": 1,
                    "methodDecoded": true,
                    "operation": "STATICCALL",
                    "output": "0x00000000000000000000000000000000000000000000000000000000000001f4000000000000000000000000000000000000000000000000000000000000007e0000000000000000000000000000000000000000000000000000000000000001000000000000000000000000000000000000000000000000000000000000008000000000000000000000000000000000000000000000000000000000000000125374616e6461726420436f707972696768740000000000000000000000000000",
                    "revert": false,
                    "revertMessage": "",
                    "selector": "0x1703b06c",
                    "status": true,
                    "value": "0"
                },
                "nodeType": 0
            },
            "2": {
                "invocation": {
                    "address": "0x7a250d5630b4cf539739df2c5dacb4c659f2488d",
                    "callData": "0x000000000000000000000000000000000000000000000000000000003b9aca0000000000000000000000000000000000000000000000000000000000000000400000000000000000000000000000000000000000000000000000000000000002000000000000000000000000dac17f958d2ee523a2206206994597c13d831ec7000000000000000000000000c02aaa39b223fe8d0a0e5c4f27ead9083c756cc2",
                    "decodedMethod": {
                        "callParams": [
                            {
                                "name": "amountIn",
                                "type": "uint256",
                                "value": "1,000,000,000"
                            },
                            {
                                "name": "path",
                                "type": "address[]",
                                "value": [
                                    "0xdac17f958d2ee523a2206206994597c13d831ec7",
                                    "0xc02aaa39b223fe8d0a0e5c4f27ead9083c756cc2"
                                ]
                            }
                        ],
                        "constructorArguments": "",
                        "name": "getAmountsOut",
                        "returnParams": [
                            {
                                "name": "amounts",
                                "type": "uint256[]",
                                "value": [
                                    "1,000,000,000",
                                    "259,002,669,870,355,271"
                                ]
                            }
                        ],
                        "signature": "getAmountsOut(uint256,address[])"
                    },
                    "errorInfo": "",
                    "fromAddress": "0xfe51ddca972a08ae9fb6edef3de73631d12c8a65",
                    "gasUsed": 8612,
                    "id": 2,
                    "methodDecoded": true,
                    "operation": "STATICCALL",
                    "output": "0x00000000000000000000000000000000000000000000000000000000000000200000000000000000000000000000000000000000000000000000000000000002000000000000000000000000000000000000000000000000000000003b9aca000000000000000000000000000000000000000000000000000398298e55801347",
                    "revert": false,
                    "revertMessage": "",
                    "selector": "0xd06ca61f",
                    "status": true,
                    "value": "0"
                },
                "nodeType": 0
            },
            "3": {
                "invocation": {
                    "address": "0x0d4a11d5eeaac28ec3f61d100daf4d40471f1852",
                    "callData": "0x",
                    "decodedMethod": {
                        "callParams": [],
                        "constructorArguments": "",
                        "name": "getReserves",
                        "returnParams": [
                            {
                                "name": "_reserve0",
                                "type": "uint112",
                                "value": "23,446,850,108,007,932,624,411"
                            },
                            {
                                "name": "_reserve1",
                                "type": "uint112",
                                "value": "90,254,866,267,298"
                            },
                            {
                                "name": "_blockTimestampLast",
                                "type": "uint32",
                                "value": "1,634,476,444"
                            }
                        ],
                        "signature": "getReserves()"
                    },
                    "errorInfo": "",
                    "fromAddress": "0x7a250d5630b4cf539739df2c5dacb4c659f2488d",
                    "gasUsed": 2504,
                    "id": 3,
                    "methodDecoded": true,
                    "operation": "STATICCALL",
                    "output": "0x0000000000000000000000000000000000000000000004f70e691a7f4a21fe1b00000000000000000000000000000000000000000000000000005216193e3ca200000000000000000000000000000000000000000000000000000000616c219c",
                    "revert": false,
                    "revertMessage": "",
                    "selector": "0x0902f1ac",
                    "status": true,
                    "value": "0"
                },
                "nodeType": 0
            },
            "4": {
                "invocation": {
                    "address": "0xad334543437ef71642ee59285baf2f4dacba613f",
                    "callData": "0x",
                    "decodedMethod": null,
                    "errorInfo": "",
                    "fromAddress": "0xfe51ddca972a08ae9fb6edef3de73631d12c8a65",
                    "gasUsed": 0,
                    "id": 4,
                    "methodDecoded": false,
                    "operation": "CALL",
                    "output": "",
                    "revert": false,
                    "revertMessage": "",
                    "selector": "fallback",
                    "status": true,
                    "value": "0.259002669870355271"
                },
                "nodeType": 0
            },
            "5": {
                "invocation": {
                    "address": "0xb20217bf3d89667fa15907971866acd6ccd570c8",
                    "callData": "0x000000000000000000000000b5fe4f262d6cb7836b09c9eb8c349c92b0ef5139000000000000000000000000000000000000000000000000000000000000002f0000000000000000000000000000000000000000000000000398298e558013470000000000000000000000000000000000000000000000000000000002d93b12",
                    "decodedMethod": {
                        "callParams": [
                            {
                                "name": "to",
                                "type": "address",
                                "value": "0xb5fe4f262d6cb7836b09c9eb8c349c92b0ef5139"
                            },
                            {
                                "name": "_assetType",
                                "type": "uint32",
                                "value": "47"
                            },
                            {
                                "name": "_value",
                                "type": "uint256",
                                "value": "259,002,669,870,355,271"
                            },
                            {
                                "name": "_customDetails",
                                "type": "uint32",
                                "value": "47,790,866"
                            }
                        ],
                        "constructorArguments": "",
                        "name": "mint",
                        "returnParams": [
                            {
                                "name": "success",
                                "type": "bool",
                                "value": true
                            }
                        ],
                        "signature": "mint(address,uint32,uint256,uint32)"
                    },
                    "errorInfo": "",
                    "fromAddress": "0xfe51ddca972a08ae9fb6edef3de73631d12c8a65",
                    "gasUsed": 204150,
                    "id": 5,
                    "methodDecoded": true,
                    "operation": "CALL",
                    "output": "0x0000000000000000000000000000000000000000000000000000000000000001",
                    "revert": false,
                    "revertMessage": "",
                    "selector": "0x27ed628b",
                    "status": true,
                    "value": "0"
                },
                "nodeType": 0
            },
            "6": {
                "event": {
                    "contract": "0xb20217bf3d89667fa15907971866acd6ccd570c8",
                    "decodedLog": {
                        "name": "Transfer",
                        "params": [
                            {
                                "name": "from",
                                "type": "address",
                                "value": "0x0000000000000000000000000000000000000000"
                            },
                            {
                                "name": "to",
                                "type": "address",
                                "value": "0xb5fe4f262d6cb7836b09c9eb8c349c92b0ef5139"
                            },
                            {
                                "decimalAvailable": true,
                                "name": "tokenId",
                                "type": "uint256",
                                "value": "6,187"
                            }
                        ],
                        "signature": "Transfer(address,address,uint256)"
                    },
                    "id": 6,
                    "logData": "0x",
                    "logDecoded": true,
                    "operation": "EVENT",
                    "revert": false,
                    "status": true,
                    "topics": [
                        "0xddf252ad1be2c89b69c2b068fc378daa952ba7f163c4a11628f55a4df523b3ef",
                        "0x0000000000000000000000000000000000000000000000000000000000000000",
                        "0x000000000000000000000000b5fe4f262d6cb7836b09c9eb8c349c92b0ef5139",
                        "0x000000000000000000000000000000000000000000000000000000000000182b"
                    ]
                },
                "nodeType": 1
            }
        },
        "gasFlame": [
            {
                "children": [
                    {
                        "children": [
                            {
                                "children": [],
                                "depth": 0,
                                "name": "Initial Gas",
                                "value": 21380
                            },
                            {
                                "children": [
                                    {
                                        "children": [],
                                        "depth": 1,
                                        "name": "assetsByType",
                                        "value": 5780
                                    },
                                    {
                                        "children": [
                                            {
                                                "children": [],
                                                "depth": 2,
                                                "name": "getReserves",
                                                "value": 2504
                                            }
                                        ],
                                        "depth": 1,
                                        "name": "getAmountsOut",
                                        "value": 8612
                                    },
                                    {
                                        "children": [],
                                        "depth": 1,
                                        "name": "fallback",
                                        "value": 0
                                    },
                                    {
                                        "children": [],
                                        "depth": 1,
                                        "name": "mint",
                                        "value": 204150
                                    }
                                ],
                                "depth": 0,
                                "name": "Executed Gas",
                                "value": 248092
                            }
                        ],
                        "depth": -1,
                        "name": "Actual Gas Used",
                        "value": 269472
                    },
                    {
                        "children": [],
                        "depth": -1,
                        "name": "Refunded Gas",
                        "value": 0
                    }
                ],
                "depth": -2,
                "name": "Total Gas",
                "value": 269472
            }
        ],
        "isConfirmed": true,
        "mainTrace": [
            {
                "children": [
                    {
                        "children": [
                            {
                                "children": [],
                                "depth": 1,
                                "id": 1,
                                "order": 1
                            },
                            {
                                "children": [
                                    {
                                        "children": [],
                                        "depth": 2,
                                        "id": 3,
                                        "order": 3
                                    }
                                ],
                                "depth": 1,
                                "id": 2,
                                "order": 2
                            },
                            {
                                "children": [],
                                "depth": 1,
                                "id": 4,
                                "order": 4
                            },
                            {
                                "children": [
                                    {
                                        "children": [],
                                        "depth": 2,
                                        "id": 6,
                                        "order": 6
                                    }
                                ],
                                "depth": 1,
                                "id": 5,
                                "order": 5
                            }
                        ],
                        "depth": 0,
                        "id": 0,
                        "order": 0
                    }
                ],
                "depth": -1,
                "id": -1,
                "order": -1
            }
        ],
        "mainTraceNodeCount": 7,
        "parentIdMap": {
            "0": -1,
            "1": 0,
            "2": 0,
            "3": 2,
            "4": 0,
            "5": 0,
            "6": 5
        },
        "tidyTrace": [
            {
                "children": [
                    {
                        "children": [
                            {
                                "children": [],
                                "depth": 1,
                                "id": 4,
                                "order": 4
                            },
                            {
                                "children": [
                                    {
                                        "children": [],
                                        "depth": 2,
                                        "id": 6,
                                        "order": 6
                                    }
                                ],
                                "depth": 1,
                                "id": 5,
                                "order": 5
                            }
                        ],
                        "depth": 0,
                        "id": 0,
                        "order": 0
                    }
                ],
                "depth": -1,
                "id": -1,
                "order": -1
            }
        ],
        "tidyTraceNodeCount": 4
    },
    "state_change": {
        "stateChanges": [
            {
                "address": "0xb20217bf3d89667fa15907971866acd6ccd570c8",
                "erc": "ERC-721",
                "slots": [
                    {
                        "current": "0x000000000000000000000000b5fe4f262d6cb7836b09c9eb8c349c92b0ef5139",
                        "key": "0x036b6384b5eca791c62761152d0c79bb0604c104a5fb6f4eb0703f3154bb6e07",
                        "prev": "0x0000000000000000000000000000000000000000000000000000000000000000"
                    },
                    {
                        "current": "0x000000000000000000000000000000000000000000000000000000000000182b",
                        "key": "0x55b54600e00e4697b7140d8bfd2ca7c365b7249cf7551c29f2f5e571b24b8385",
                        "prev": "0x0000000000000000000000000000000000000000000000000000000000000000"
                    },
                    {
                        "current": "0x000000000000000000000000000000000000000000000000000000000000182c",
                        "key": "0x0000000000000000000000000000000000000000000000000000000000000005",
                        "prev": "0x000000000000000000000000000000000000000000000000000000000000182b"
                    },
                    {
                        "current": "0x000000000000000000000000000000000000000000000000000000000000182b",
                        "key": "0x036b6384b5eca791c62761152d0c79bb0604c104a5fb6f4eb0703f3154bb6e06",
                        "prev": "0x0000000000000000000000000000000000000000000000000000000000000000"
                    },
                    {
                        "current": "0x000000000000000000000000000000000000000000000000000000000000182c",
                        "key": "0xd18b10b3a3893edfe53d406c3c6ef247eed7bc707cf964b3a3e5281d3fbe43da",
                        "prev": "0x0000000000000000000000000000000000000000000000000000000000000000"
                    },
                    {
                        "current": "0x00000000000000000000000000000001000000000000007f00000000000001f4",
                        "key": "0xf0d06e1c676d19791845afcc57865504b6e1664144ce3e6d246a51a35a30ab6c",
                        "prev": "0x00000000000000000000000000000001000000000000007e00000000000001f4"
                    },
                    {
                        "current": "0x0000000000000000000000000000000000000000000000000000000000000510",
                        "key": "0x000000000000000000000000000000000000000000000000000000000000000d",
                        "prev": "0x000000000000000000000000000000000000000000000000000000000000050f"
                    },
                    {
                        "current": "0x0000000000000000000000000000000000000000000000000000000000000001",
                        "key": "0xac6a29d0ba0609685d5052929ef49046bd9ccac4caec820e0f524fff15c1c46d",
                        "prev": "0x0000000000000000000000000000000000000000000000000000000000000000"
                    },
                    {
                        "current": "0x0000000000000000000000000000000000000000000000000000000000000001",
                        "key": "0xd6c5f19073b1daa0140a747f7ef47a08f7d424b3fb2876a12f5a825a50287bbd",
                        "prev": "0x0000000000000000000000000000000000000000000000000000000000000000"
                    },
                    {
                        "current": "0x0000000000000000000000000000000002d93b120000002f616c21f4616c21f4",
                        "key": "0x75a8b7ab77e7c2303aa82645931f564abbb579ab958023874e661c1389efb389",
                        "prev": "0x0000000000000000000000000000000000000000000000000000000000000000"
                    },
                    {
                        "current": "0x0000000000000000000000000000000000000000000000000398298e55801347",
                        "key": "0x75a8b7ab77e7c2303aa82645931f564abbb579ab958023874e661c1389efb388",
                        "prev": "0x0000000000000000000000000000000000000000000000000000000000000000"
                    },
                    {
                        "current": "0x000000000000000000000000000000000000000000000000000000000000182c",
                        "key": "0x0000000000000000000000000000000000000000000000000000000000000011",
                        "prev": "0x000000000000000000000000000000000000000000000000000000000000182b"
                    }
                ],
                "storageVariables": [
                    {
                        "name": "assetsByType",
                        "type": "mapping(uint256 => struct ERC721.assetType)",
                        "value": {
                            "pairs": [
                                {
                                    "key": "47",
                                    "value": {
                                        "fields": [
                                            {
                                                "name": "maxAmount",
                                                "type": "uint64",
                                                "value": {
                                                    "current": "500",
                                                    "prev": "500",
                                                    "typeTag": 1
                                                }
                                            },
                                            {
                                                "name": "mintedAmount",
                                                "type": "uint64",
                                                "value": {
                                                    "current": "127",
                                                    "prev": "126",
                                                    "typeTag": 1
                                                }
                                            },
                                            {
                                                "name": "coinIndex",
                                                "type": "uint64",
                                                "value": {
                                                    "current": "1",
                                                    "prev": "1",
                                                    "typeTag": 1
                                                }
                                            }
                                        ],
                                        "typeTag": 3
                                    }
                                }
                            ],
                            "typeTag": 4
                        }
                    },
                    {
                        "name": "_holderTokens",
                        "type": "mapping(address => struct EnumerableSet.UintSet)",
                        "value": {
                            "pairs": [
                                {
                                    "key": "0xb5fe4f262d6cb7836b09c9eb8c349c92b0ef5139",
                                    "value": {
                                        "fields": [
                                            {
                                                "name": "_inner",
                                                "type": "struct EnumerableSet.Set",
                                                "value": {
                                                    "fields": [
                                                        {
                                                            "name": "_values",
                                                            "type": "bytes32[]",
                                                            "value": {
                                                                "elemType": "bytes32",
                                                                "elems": [
                                                                    {
                                                                        "index": 0,
                                                                        "value": {
                                                                            "current": "0x000000000000000000000000000000000000000000000000000000000000182b",
                                                                            "prev": "0x0000000000000000000000000000000000000000000000000000000000000000",
                                                                            "typeTag": 1
                                                                        }
                                                                    }
                                                                ],
                                                                "typeTag": 2
                                                            }
                                                        },
                                                        {
                                                            "name": "_indexes",
                                                            "type": "mapping(bytes32 => uint256)",
                                                            "value": {
                                                                "pairs": [
                                                                    {
                                                                        "key": "0x000000000000000000000000000000000000000000000000000000000000182b",
                                                                        "value": {
                                                                            "current": "1",
                                                                            "prev": "0",
                                                                            "typeTag": 1
                                                                        }
                                                                    }
                                                                ],
                                                                "typeTag": 4
                                                            }
                                                        }
                                                    ],
                                                    "typeTag": 3
                                                }
                                            }
                                        ],
                                        "typeTag": 3
                                    }
                                }
                            ],
                            "typeTag": 4
                        }
                    },
                    {
                        "name": "_tokenOwners",
                        "type": "struct EnumerableMap.UintToAddressMap",
                        "value": {
                            "fields": [
                                {
                                    "name": "_inner",
                                    "type": "struct EnumerableMap.Map",
                                    "value": {
                                        "fields": [
                                            {
                                                "name": "_entries",
                                                "type": "struct EnumerableMap.MapEntry[]",
                                                "value": {
                                                    "elemType": "struct EnumerableMap.MapEntry",
                                                    "elems": [
                                                        {
                                                            "index": 6187,
                                                            "value": {
                                                                "fields": [
                                                                    {
                                                                        "name": "_key",
                                                                        "type": "bytes32",
                                                                        "value": {
                                                                            "current": "0x000000000000000000000000000000000000000000000000000000000000182b",
                                                                            "prev": "0x0000000000000000000000000000000000000000000000000000000000000000",
                                                                            "typeTag": 1
                                                                        }
                                                                    },
                                                                    {
                                                                        "name": "_value",
                                                                        "type": "bytes32",
                                                                        "value": {
                                                                            "current": "0x000000000000000000000000b5fe4f262d6cb7836b09c9eb8c349c92b0ef5139",
                                                                            "prev": "0x0000000000000000000000000000000000000000000000000000000000000000",
                                                                            "typeTag": 1
                                                                        }
                                                                    }
                                                                ],
                                                                "typeTag": 3
                                                            }
                                                        }
                                                    ],
                                                    "typeTag": 2
                                                }
                                            },
                                            {
                                                "name": "_indexes",
                                                "type": "mapping(bytes32 => uint256)",
                                                "value": {
                                                    "pairs": [
                                                        {
                                                            "key": "0x000000000000000000000000000000000000000000000000000000000000182b",
                                                            "value": {
                                                                "current": "6188",
                                                                "prev": "0",
                                                                "typeTag": 1
                                                            }
                                                        }
                                                    ],
                                                    "typeTag": 4
                                                }
                                            }
                                        ],
                                        "typeTag": 3
                                    }
                                }
                            ],
                            "typeTag": 3
                        }
                    },
                    {
                        "name": "polkaCitizens",
                        "type": "uint256",
                        "value": {
                            "current": "1296",
                            "prev": "1295",
                            "typeTag": 1
                        }
                    },
                    {
                        "name": "assetsDetails",
                        "type": "mapping(uint256 => struct ERC721.assetDetail)",
                        "value": {
                            "pairs": [
                                {
                                    "key": "6187",
                                    "value": {
                                        "fields": [
                                            {
                                                "name": "value",
                                                "type": "uint256",
                                                "value": {
                                                    "current": "259002669870355271",
                                                    "prev": "0",
                                                    "typeTag": 1
                                                }
                                            },
                                            {
                                                "name": "lastTrade",
                                                "type": "uint32",
                                                "value": {
                                                    "current": "1634476532",
                                                    "prev": "0",
                                                    "typeTag": 1
                                                }
                                            },
                                            {
                                                "name": "lastPayment",
                                                "type": "uint32",
                                                "value": {
                                                    "current": "1634476532",
                                                    "prev": "0",
                                                    "typeTag": 1
                                                }
                                            },
                                            {
                                                "name": "typeDetail",
                                                "type": "uint32",
                                                "value": {
                                                    "current": "47",
                                                    "prev": "0",
                                                    "typeTag": 1
                                                }
                                            },
                                            {
                                                "name": "customDetails",
                                                "type": "uint32",
                                                "value": {
                                                    "current": "47790866",
                                                    "prev": "0",
                                                    "typeTag": 1
                                                }
                                            }
                                        ],
                                        "typeTag": 3
                                    }
                                }
                            ],
                            "typeTag": 4
                        }
                    },
                    {
                        "name": "_tokenIdTracker",
                        "type": "struct Counters.Counter",
                        "value": {
                            "fields": [
                                {
                                    "name": "_value",
                                    "type": "uint256",
                                    "value": {
                                        "current": "6188",
                                        "prev": "6187",
                                        "typeTag": 1
                                    }
                                }
                            ],
                            "typeTag": 3
                        }
                    }
                ]
            }
        ]
    }
}