{
    "balance_change": {
        "balanceChanges": [
            {
                "account": "0x41f8d14c9475444f30a80431c68cf24dc9a8369a",
                "assets": [
                    {
                        "address": "0x8e870d67f660d95d5be530380d0ec0bd388289e1",
                        "amount": "10.6307653545",
                        "iconUrl": "https://assets.blocksec.com/icon/df4a16322c8ca2faeeb21a6d029f24de2efeb58e57edadd9ecbfa6a35afa986d.png",
                        "isERC1155": false,
                        "isERC721": false,
                        "sign": true,
                        "value": ""
                    }
                ]
            },
            {
                "account": "0xd0e6cbd9da5d6214818a3ca2c4be074174faea81",
                "assets": [
                    {
                        "address": "0xdac17f958d2ee523a2206206994597c13d831ec7",
                        "amount": "7,100",
                        "iconUrl": "https://assets.blocksec.com/icon/fcea71f3193ce895be44bfdf941f7e4c9381dd587f273c2d1a27f1263d84e4ea.png",
                        "isERC1155": false,
                        "isERC721": false,
                        "sign": true,
                        "value": ""
                    },
                    {
                        "address": "0x8e870d67f660d95d5be530380d0ec0bd388289e1",
                        "amount": "7,087.176903",
                        "iconUrl": "https://assets.blocksec.com/icon/df4a16322c8ca2faeeb21a6d029f24de2efeb58e57edadd9ecbfa6a35afa986d.png",
                        "isERC1155": false,
                        "isERC721": false,
                        "sign": false,
                        "value": ""
                    }
                ]
            },
            {
                "account": "0xdb2522008ecdb356f490b26f4ec0c5211391c3c6",
                "assets": [
                    {
                        "address": "0xdac17f958d2ee523a2206206994597c13d831ec7",
                        "amount": "7,100",
                        "iconUrl": "https://assets.blocksec.com/icon/fcea71f3193ce895be44bfdf941f7e4c9381dd587f273c2d1a27f1263d84e4ea.png",
                        "isERC1155": false,
                        "isERC721": false,
                        "sign": false,
                        "value": ""
                    },
                    {
                        "address": "0x8e870d67f660d95d5be530380d0ec0bd388289e1",
                        "amount": "7,076.5461376455",
                        "iconUrl": "https://assets.blocksec.com/icon/df4a16322c8ca2faeeb21a6d029f24de2efeb58e57edadd9ecbfa6a35afa986d.png",
                        "isERC1155": false,
                        "isERC721": false,
                        "sign": true,
                        "value": ""
                    }
                ]
            }
        ]
    },
    "profile": {
        "basic_info": {
            "baseFee": "",
            "blockNumber": 10364488,
            "callData": "0xbacfc57dcff12186d9ed4a015966c22eeeb016671caf1d3f26f06fb5420246954942d4ff000000000000000000000000000000000000000000000000000000000000006000000000000000000000000000000000000000000000000000000000000003c0000000000000000000000000000000000000000000000000000000000000032464a3bc15000000000000000000000000000000000000000000000000000000000000006000000000000000000000000000000000000000000000000000000001a731670000000000000000000000000000000000000000000000000000000000000002a0000000000000000000000000d0e6cbd9da5d6214818a3ca2c4be074174faea8100000000000000000000000041f8d14c9475444f30a80431c68cf24dc9a8369a000000000000000000000000b9e29984fe50602e7a619662ebed4f90d93824c7000000000000000000000000dc6c91b569c98f9f6f74d90f9beff99fdaf4248b000000000000000000000000000000000000000000000180325653ce540f700000000000000000000000000000000000000000000000000000000001a731670000000000000000000000000000000000000000000000000000000000000000000000000000000000000000000000000000000000000000000000000000000000000000000000000000000000000000000000000000000000000000005efaabf94c04ffc2c7209b2b68b2067dd8a15f02870209bc20abcaea6270c0ca5b87d609000000000000000000000000000000000000000000000000000000000000018000000000000000000000000000000000000000000000000000000000000001e00000000000000000000000000000000000000000000000000000000000000024f47261b00000000000000000000000008e870d67f660d95d5be530380d0ec0bd388289e1000000000000000000000000000000000000000000000000000000000000000000000000000000000000000000000000000000000000000000000024f47261b0000000000000000000000000dac17f958d2ee523a2206206994597c13d831ec70000000000000000000000000000000000000000000000000000000000000000000000000000000000000000000000000000000000000000000000581c3050e7e0581cc450f81809f62364d02be4745c6ce8eb642cb37ff241c0567ebb2173844f9f960b8f4824ba8a8aa4e3361da5af18fbfd4a2a81f288f842f27aa2db2522008ecdb356f490b26f4ec0c5211391c3c6000f0400000000000000000000000000000000000000000000000000000000000000000000000000000000000000000000000000000000000000000000000000000000000000561ceeb55a2507ff47ecd390fca05e93a5ff486bb6c15a8d21c74090f950eb7e41f97c7509e7c96be731962f27451d5eee5923071c8cf127b24023a143e8c01dc954db2522008ecdb356f490b26f4ec0c5211391c3c60400000000000000000000",
            "debugEnable": true,
            "errorInfo": "",
            "eventCount": 6,
            "feeRecipient": "0x3ecef08d0e2dad803847e052249bb4f8bff2d5bb",
            "formatValue": "0",
            "gasLimit": 450000,
            "gasPrice": "38.4",
            "gasUsed": 291584,
            "intTxnCount": 18,
            "internalRevert": false,
            "internalRevertMessage": "",
            "isContractCreation": false,
            "isFlashloan": false,
            "maxFee": "",
            "nonce": 13290,
            "overwritedBlockNumber": -1,
            "priorityFee": "",
            "receiver": "0xdc6c91b569c98f9f6f74d90f9beff99fdaf4248b",
            "revertMessage": "",
            "sender": "0x684eaeccead1a98b2a5fce094e62309c45994bcb",
            "simulationEnable": true,
            "sourceTxnHash": "0x127e6dfb1a6f71b0296b99a1483e2d421cebe1ef42024715a01c16313868f4e3",
            "status": true,
            "timestamp": "2020-06-30T02:35:36Z",
            "transactionFee": "0.0111968256",
            "txnHash": "0x127e6dfb1a6f71b0296b99a1483e2d421cebe1ef42024715a01c16313868f4e3",
            "txnIndex": 11,
            "type": 0,
            "value": "0"
        },
        "fund_flow": [
            {
                "amount": "7,100",
                "from": "0xdb2522008ecdb356f490b26f4ec0c5211391c3c6",
                "id": 1,
                "isERC1155": false,
                "isERC721": false,
                "isReverted": false,
                "order": 1,
                "to": "0x41f8d14c9475444f30a80431c68cf24dc9a8369a",
                "token": "0xdac17f958d2ee523a2206206994597c13d831ec7"
            },
            {
                "amount": "7,087.176903",
                "from": "0xd0e6cbd9da5d6214818a3ca2c4be074174faea81",
                "id": 2,
                "isERC1155": false,
                "isERC721": false,
                "isReverted": false,
                "order": 2,
                "to": "0x41f8d14c9475444f30a80431c68cf24dc9a8369a",
                "token": "0x8e870d67f660d95d5be530380d0ec0bd388289e1"
            },
            {
                "amount": "7,100",
                "from": "0x41f8d14c9475444f30a80431c68cf24dc9a8369a",
                "id": 3,
                "isERC1155": false,
                "isERC721": false,
                "isReverted": false,
                "order": 3,
                "to": "0xd0e6cbd9da5d6214818a3ca2c4be074174faea81",
                "token": "0xdac17f958d2ee523a2206206994597c13d831ec7"
            },
            {
                "amount": "7,076.5461376455",
                "from": "0x41f8d14c9475444f30a80431c68cf24dc9a8369a",
                "id": 4,
                "isERC1155": false,
                "isERC721": false,
                "isReverted": false,
                "order": 4,
                "to": "0xdb2522008ecdb356f490b26f4ec0c5211391c3c6",
                "token": "0x8e870d67f660d95d5be530380d0ec0bd388289e1"
            }
        ],
        "token_infos": [
            {
                "address": "0x8e870d67f660d95d5be530380d0ec0bd388289e1",
                "decimals": 18
            },
            {
                "address": "0xc02aaa39b223fe8d0a0e5c4f27ead9083c756cc2",
                "decimals": 18
            },
            {
                "address": "0xdac17f958d2ee523a2206206994597c13d831ec7",
                "decimals": 6
            },
            {
                "address": "0xeeeeeeeeeeeeeeeeeeeeeeeeeeeeeeeeeeeeeeee",
                "decimals": 18
            }
        ]
    },
    "address_label": {
        "labels": [
            {
                "address": "0x684eaeccead1a98b2a5fce094e62309c45994bcb",
                "label": "TOKENLON"
            },
            {
                "address": "0x8e870d67f660d95d5be530380d0ec0bd388289e1",
                "label": "Paxos: USDP Token"
            },
            {
                "address": "0x95e6f48254609a6ee006f7d493c8e5fb97094cef",
                "label": "0x: ERC20 Proxy V3"
            },
            {
                "address": "0xdc6c91b569c98f9f6f74d90f9beff99fdaf4248b",
                "label": "Tokenlon: DEX 1"
            },
            {
                "address": "0xdac17f958d2ee523a2206206994597c13d831ec7",
                "label": "Tether: USDT Stablecoin"
            },
            {
                "address": "0xb9e29984fe50602e7a619662ebed4f90d93824c7",
                "label": "Tokenlon: Fee Recipient"
            },
            {
                "address": "0x0000000000000000000000000000000000000002",
                "label": "Precompiled"
            },
            {
                "address": "0x0000000000000000000000000000000000000004",
                "label": "Precompiled"
            },
            {
                "address": "0xeeeeeeeeeeeeeeeeeeeeeeeeeeeeeeeeeeeeeeee",
                "label": "Ether"
            },
            {
                "address": "0x080bf510fcbf18b91105470639e9561022937712",
                "label": "0x: Exchange v2.1"
            },
            {
                "address": "0x86eee0422322710866af89e9cae3f7383d55310a",
                "label": "Paxos Standard (PAX)"
            },
            {
                "address": "0x0000000000000000000000000000000000000001",
                "label": "Precompiled"
            },
            {
                "address": "0x0000000000000000000000000000000000000003",
                "label": "Precompiled"
            }
        ]
    },
    "trace": {
        "accountLabels": null,
        "dataMap": {
            "-1": {
                "invocation": {
                    "address": "0x684eaeccead1a98b2a5fce094e62309c45994bcb",
                    "callData": "",
                    "decodedMethod": null,
                    "errorInfo": "",
                    "fromAddress": "",
                    "gasUsed": 0,
                    "id": -1,
                    "methodDecoded": false,
                    "operation": "",
                    "output": "",
                    "revert": false,
                    "revertMessage": "",
                    "selector": "",
                    "status": false,
                    "value": ""
                },
                "nodeType": 0
            },
            "0": {
                "invocation": {
                    "address": "0xdc6c91b569c98f9f6f74d90f9beff99fdaf4248b",
                    "callData": "0xcff12186d9ed4a015966c22eeeb016671caf1d3f26f06fb5420246954942d4ff000000000000000000000000000000000000000000000000000000000000006000000000000000000000000000000000000000000000000000000000000003c0000000000000000000000000000000000000000000000000000000000000032464a3bc15000000000000000000000000000000000000000000000000000000000000006000000000000000000000000000000000000000000000000000000001a731670000000000000000000000000000000000000000000000000000000000000002a0000000000000000000000000d0e6cbd9da5d6214818a3ca2c4be074174faea8100000000000000000000000041f8d14c9475444f30a80431c68cf24dc9a8369a000000000000000000000000b9e29984fe50602e7a619662ebed4f90d93824c7000000000000000000000000dc6c91b569c98f9f6f74d90f9beff99fdaf4248b000000000000000000000000000000000000000000000180325653ce540f700000000000000000000000000000000000000000000000000000000001a731670000000000000000000000000000000000000000000000000000000000000000000000000000000000000000000000000000000000000000000000000000000000000000000000000000000000000000000000000000000000000000005efaabf94c04ffc2c7209b2b68b2067dd8a15f02870209bc20abcaea6270c0ca5b87d609000000000000000000000000000000000000000000000000000000000000018000000000000000000000000000000000000000000000000000000000000001e00000000000000000000000000000000000000000000000000000000000000024f47261b00000000000000000000000008e870d67f660d95d5be530380d0ec0bd388289e1000000000000000000000000000000000000000000000000000000000000000000000000000000000000000000000000000000000000000000000024f47261b0000000000000000000000000dac17f958d2ee523a2206206994597c13d831ec70000000000000000000000000000000000000000000000000000000000000000000000000000000000000000000000000000000000000000000000581c3050e7e0581cc450f81809f62364d02be4745c6ce8eb642cb37ff241c0567ebb2173844f9f960b8f4824ba8a8aa4e3361da5af18fbfd4a2a81f288f842f27aa2db2522008ecdb356f490b26f4ec0c5211391c3c6000f0400000000000000000000000000000000000000000000000000000000000000000000000000000000000000000000000000000000000000000000000000000000000000561ceeb55a2507ff47ecd390fca05e93a5ff486bb6c15a8d21c74090f950eb7e41f97c7509e7c96be731962f27451d5eee5923071c8cf127b24023a143e8c01dc954db2522008ecdb356f490b26f4ec0c5211391c3c60400000000000000000000",
                    "decodedMethod": {
                        "callParams": [
                            {
                                "name": "userSalt",
                                "type": "uint256",
                                "value": "94,054,801,192,560,412,862,481,077,523,359,327,137,095,422,587,395,143,502,364,788,374,426,110,579,967"
                            },
                            {
                                "name": "data",
                                "type": "bytes",
                                "value": "0x64a3bc15000000000000000000000000000000000000000000000000000000000000006000000000000000000000000000000000000000000000000000000001a731670000000000000000000000000000000000000000000000000000000000000002a0000000000000000000000000d0e6cbd9da5d6214818a3ca2c4be074174faea8100000000000000000000000041f8d14c9475444f30a80431c68cf24dc9a8369a000000000000000000000000b9e29984fe50602e7a619662ebed4f90d93824c7000000000000000000000000dc6c91b569c98f9f6f74d90f9beff99fdaf4248b000000000000000000000000000000000000000000000180325653ce540f700000000000000000000000000000000000000000000000000000000001a731670000000000000000000000000000000000000000000000000000000000000000000000000000000000000000000000000000000000000000000000000000000000000000000000000000000000000000000000000000000000000000005efaabf94c04ffc2c7209b2b68b2067dd8a15f02870209bc20abcaea6270c0ca5b87d609000000000000000000000000000000000000000000000000000000000000018000000000000000000000000000000000000000000000000000000000000001e00000000000000000000000000000000000000000000000000000000000000024f47261b00000000000000000000000008e870d67f660d95d5be530380d0ec0bd388289e1000000000000000000000000000000000000000000000000000000000000000000000000000000000000000000000000000000000000000000000024f47261b0000000000000000000000000dac17f958d2ee523a2206206994597c13d831ec70000000000000000000000000000000000000000000000000000000000000000000000000000000000000000000000000000000000000000000000581c3050e7e0581cc450f81809f62364d02be4745c6ce8eb642cb37ff241c0567ebb2173844f9f960b8f4824ba8a8aa4e3361da5af18fbfd4a2a81f288f842f27aa2db2522008ecdb356f490b26f4ec0c5211391c3c6000f040000000000000000"
                            },
                            {
                                "name": "userSignature",
                                "type": "bytes",
                                "value": "0x1ceeb55a2507ff47ecd390fca05e93a5ff486bb6c15a8d21c74090f950eb7e41f97c7509e7c96be731962f27451d5eee5923071c8cf127b24023a143e8c01dc954db2522008ecdb356f490b26f4ec0c5211391c3c604"
                            }
                        ],
                        "constructorArguments": "",
                        "name": "fillOrderWithToken",
                        "returnParams": [],
                        "signature": "fillOrderWithToken(uint256,bytes,bytes)"
                    },
                    "errorInfo": "",
                    "fromAddress": "0x684eaeccead1a98b2a5fce094e62309c45994bcb",
                    "gasUsed": 291584,
                    "id": 0,
                    "methodDecoded": true,
                    "operation": "CALL",
                    "output": "",
                    "revert": false,
                    "revertMessage": "",
                    "selector": "0xbacfc57d",
                    "status": true,
                    "value": "0"
                },
                "nodeType": 0
            },
            "1": {
                "invocation": {
                    "address": "0xdc6c91b569c98f9f6f74d90f9beff99fdaf4248b",
                    "callData": "0x000000000000000000000000d0e6cbd9da5d6214818a3ca2c4be074174faea81",
                    "decodedMethod": {
                        "callParams": [
                            {
                                "name": "",
                                "type": "address",
                                "value": "0xd0e6cbd9da5d6214818a3ca2c4be074174faea81"
                            }
                        ],
                        "constructorArguments": "",
                        "name": "isMarketMakerProxy",
                        "returnParams": [
                            {
                                "name": "",
                                "type": "bool",
                                "value": true
                            }
                        ],
                        "signature": "isMarketMakerProxy(address)"
                    },
                    "errorInfo": "",
                    "fromAddress": "0xdc6c91b569c98f9f6f74d90f9beff99fdaf4248b",
                    "gasUsed": 1566,
                    "id": 1,
                    "methodDecoded": true,
                    "operation": "STATICCALL",
                    "output": "0x0000000000000000000000000000000000000000000000000000000000000001",
                    "revert": false,
                    "revertMessage": "",
                    "selector": "0x5457a155",
                    "status": true,
                    "value": "0"
                },
                "nodeType": 0
            },
            "10": {
                "invocation": {
                    "address": "0xd0e6cbd9da5d6214818a3ca2c4be074174faea81",
                    "callData": "0xe577ddb80ad137648e2a1bdc12aba955d3eefa93f41b86ac862509fa7bc22d5c000000000000000000000000000000000000000000000000000000000000004000000000000000000000000000000000000000000000000000000000000000571c3050e7e0581cc450f81809f62364d02be4745c6ce8eb642cb37ff241c0567ebb2173844f9f960b8f4824ba8a8aa4e3361da5af18fbfd4a2a81f288f842f27aa2db2522008ecdb356f490b26f4ec0c5211391c3c6000f000000000000000000",
                    "decodedMethod": {
                        "callParams": [
                            {
                                "name": "hash",
                                "type": "bytes32",
                                "value": "0xe577ddb80ad137648e2a1bdc12aba955d3eefa93f41b86ac862509fa7bc22d5c"
                            },
                            {
                                "name": "signature",
                                "type": "bytes",
                                "value": "0x1c3050e7e0581cc450f81809f62364d02be4745c6ce8eb642cb37ff241c0567ebb2173844f9f960b8f4824ba8a8aa4e3361da5af18fbfd4a2a81f288f842f27aa2db2522008ecdb356f490b26f4ec0c5211391c3c6000f"
                            }
                        ],
                        "constructorArguments": "",
                        "name": "isValidSignature",
                        "returnParams": [
                            {
                                "name": "magicValue",
                                "type": "bytes4",
                                "value": "0xb0671381"
                            }
                        ],
                        "signature": "isValidSignature(bytes32,bytes)"
                    },
                    "errorInfo": "",
                    "fromAddress": "0x080bf510fcbf18b91105470639e9561022937712",
                    "gasUsed": 6823,
                    "id": 10,
                    "methodDecoded": true,
                    "operation": "STATICCALL",
                    "output": "0xb067138131d606f18b51e6ee32605a2acac5aad86d6a80011ed9cb2bab20c1c7",
                    "revert": false,
                    "revertMessage": "",
                    "selector": "0x1626ba7e",
                    "status": true,
                    "value": "0"
                },
                "nodeType": 0
            },
            "11": {
                "invocation": {
                    "address": "0x0000000000000000000000000000000000000001",
                    "callData": "0x6490ef738f6c651dc3f49776bd2ecf81ad0cc0d54d5c2ad3c102bef7000000000000000000000000000000000000000000000000000000000000001c3050e7e0581cc450f81809f62364d02be4745c6ce8eb642cb37ff241c0567ebb2173844f9f960b8f4824ba8a8aa4e3361da5af18fbfd4a2a81f288f842f27aa2",
                    "decodedMethod": {
                        "callParams": [
                            {
                                "name": "hash",
                                "type": "bytes32",
                                "value": "0x53bf1ad06490ef738f6c651dc3f49776bd2ecf81ad0cc0d54d5c2ad3c102bef7"
                            },
                            {
                                "name": "v",
                                "type": "uint256",
                                "value": "28"
                            },
                            {
                                "name": "r",
                                "type": "bytes32",
                                "value": "0x3050e7e0581cc450f81809f62364d02be4745c6ce8eb642cb37ff241c0567ebb"
                            },
                            {
                                "name": "s",
                                "type": "bytes32",
                                "value": "0x2173844f9f960b8f4824ba8a8aa4e3361da5af18fbfd4a2a81f288f842f27aa2"
                            }
                        ],
                        "constructorArguments": "",
                        "name": "ecrecover",
                        "returnParams": [
                            {
                                "name": "",
                                "type": "address",
                                "value": "0xc89871bde27ec6d60e74a5ba142ad92e207eba15"
                            }
                        ],
                        "signature": "ecrecover(bytes32,uint256,bytes32,bytes32)"
                    },
                    "errorInfo": "",
                    "fromAddress": "0xd0e6cbd9da5d6214818a3ca2c4be074174faea81",
                    "gasUsed": 3000,
                    "id": 11,
                    "methodDecoded": true,
                    "operation": "STATICCALL",
                    "output": "0x000000000000000000000000c89871bde27ec6d60e74a5ba142ad92e207eba15",
                    "revert": false,
                    "revertMessage": "",
                    "selector": "0x53bf1ad0",
                    "status": true,
                    "value": "0"
                },
                "nodeType": 0
            },
            "12": {
                "event": {
                    "contract": "0x080bf510fcbf18b91105470639e9561022937712",
                    "decodedLog": {
                        "name": "Fill",
                        "params": [
                            {
                                "name": "makerAddress",
                                "type": "address",
                                "value": "0xd0e6cbd9da5d6214818a3ca2c4be074174faea81"
                            },
                            {
                                "name": "feeRecipientAddress",
                                "type": "address",
                                "value": "0xb9e29984fe50602e7a619662ebed4f90d93824c7"
                            },
                            {
                                "name": "orderHash",
                                "type": "bytes32",
                                "value": "0xe577ddb80ad137648e2a1bdc12aba955d3eefa93f41b86ac862509fa7bc22d5c"
                            },
                            {
                                "name": "takerAddress",
                                "type": "address",
                                "value": "0x41f8d14c9475444f30a80431c68cf24dc9a8369a"
                            },
                            {
                                "name": "senderAddress",
                                "type": "address",
                                "value": "0xdc6c91b569c98f9f6f74d90f9beff99fdaf4248b"
                            },
                            {
                                "name": "makerAssetFilledAmount",
                                "type": "uint256",
                                "value": "7,087,176,903,000,000,000,000"
                            },
                            {
                                "name": "takerAssetFilledAmount",
                                "type": "uint256",
                                "value": "7,100,000,000"
                            },
                            {
                                "name": "makerFeePaid",
                                "type": "uint256",
                                "value": "0"
                            },
                            {
                                "name": "takerFeePaid",
                                "type": "uint256",
                                "value": "0"
                            },
                            {
                                "name": "makerAssetData",
                                "type": "bytes",
                                "value": "0xf47261b00000000000000000000000008e870d67f660d95d5be530380d0ec0bd388289e1"
                            },
                            {
                                "name": "takerAssetData",
                                "type": "bytes",
                                "value": "0xf47261b0000000000000000000000000dac17f958d2ee523a2206206994597c13d831ec7"
                            }
                        ],
                        "signature": "Fill(address,address,address,address,uint256,uint256,uint256,uint256,bytes32,bytes,bytes)"
                    },
                    "id": 12,
                    "logData": "0x00000000000000000000000041f8d14c9475444f30a80431c68cf24dc9a8369a000000000000000000000000dc6c91b569c98f9f6f74d90f9beff99fdaf4248b000000000000000000000000000000000000000000000180325653ce540f700000000000000000000000000000000000000000000000000000000001a731670000000000000000000000000000000000000000000000000000000000000000000000000000000000000000000000000000000000000000000000000000000000000000000000000000000000000000000000000000000000000000000000010000000000000000000000000000000000000000000000000000000000000001600000000000000000000000000000000000000000000000000000000000000024f47261b00000000000000000000000008e870d67f660d95d5be530380d0ec0bd388289e1000000000000000000000000000000000000000000000000000000000000000000000000000000000000000000000000000000000000000000000024f47261b0000000000000000000000000dac17f958d2ee523a2206206994597c13d831ec700000000000000000000000000000000000000000000000000000000",
                    "logDecoded": true,
                    "operation": "EVENT",
                    "revert": false,
                    "status": true,
                    "topics": [
                        "0x0bcc4c97732e47d9946f229edb95f5b6323f601300e4690de719993f3c371129",
                        "0x000000000000000000000000d0e6cbd9da5d6214818a3ca2c4be074174faea81",
                        "0x000000000000000000000000b9e29984fe50602e7a619662ebed4f90d93824c7",
                        "0xe577ddb80ad137648e2a1bdc12aba955d3eefa93f41b86ac862509fa7bc22d5c"
                    ]
                },
                "nodeType": 1
            },
            "13": {
                "invocation": {
                    "address": "0x95e6f48254609a6ee006f7d493c8e5fb97094cef",
                    "callData": "0x0000000000000000000000000000000000000000000000000000000000000080000000000000000000000000d0e6cbd9da5d6214818a3ca2c4be074174faea8100000000000000000000000041f8d14c9475444f30a80431c68cf24dc9a8369a000000000000000000000000000000000000000000000180325653ce540f70000000000000000000000000000000000000000000000000000000000000000024f47261b00000000000000000000000008e870d67f660d95d5be530380d0ec0bd388289e100000000000000000000000000000000000000000000000000000000",
                    "decodedMethod": {
                        "callParams": [
                            {
                                "name": "assetData",
                                "type": "bytes",
                                "value": "0xf47261b00000000000000000000000008e870d67f660d95d5be530380d0ec0bd388289e1"
                            },
                            {
                                "name": "from",
                                "type": "address",
                                "value": "0xd0e6cbd9da5d6214818a3ca2c4be074174faea81"
                            },
                            {
                                "name": "to",
                                "type": "address",
                                "value": "0x41f8d14c9475444f30a80431c68cf24dc9a8369a"
                            },
                            {
                                "name": "amount",
                                "type": "uint256",
                                "value": "7,087,176,903,000,000,000,000"
                            }
                        ],
                        "constructorArguments": "",
                        "name": "transferFrom",
                        "returnParams": [],
                        "signature": "transferFrom(bytes,address,address,uint256)"
                    },
                    "errorInfo": "",
                    "fromAddress": "0x080bf510fcbf18b91105470639e9561022937712",
                    "gasUsed": 31596,
                    "id": 13,
                    "methodDecoded": true,
                    "operation": "CALL",
                    "output": "",
                    "revert": false,
                    "revertMessage": "",
                    "selector": "0xa85e59e4",
                    "status": true,
                    "value": "0"
                },
                "nodeType": 0
            },
            "14": {
                "invocation": {
                    "address": "0x8e870d67f660d95d5be530380d0ec0bd388289e1",
                    "callData": "0x000000000000000000000000d0e6cbd9da5d6214818a3ca2c4be074174faea8100000000000000000000000041f8d14c9475444f30a80431c68cf24dc9a8369a000000000000000000000000000000000000000000000180325653ce540f7000",
                    "decodedMethod": {
                        "callParams": [
                            {
                                "name": "_from",
                                "type": "address",
                                "value": "0xd0e6cbd9da5d6214818a3ca2c4be074174faea81"
                            },
                            {
                                "name": "_to",
                                "type": "address",
                                "value": "0x41f8d14c9475444f30a80431c68cf24dc9a8369a"
                            },
                            {
                                "decimalAvailable": true,
                                "name": "_value",
                                "type": "uint256",
                                "value": "7,087,176,903,000,000,000,000"
                            }
                        ],
                        "constructorArguments": "",
                        "name": "transferFrom",
                        "returnParams": [
                            {
                                "name": "",
                                "type": "bool",
                                "value": true
                            }
                        ],
                        "signature": "transferFrom(address,address,uint256)"
                    },
                    "errorInfo": "",
                    "fromAddress": "0x95e6f48254609a6ee006f7d493c8e5fb97094cef",
                    "gasUsed": 29542,
                    "id": 14,
                    "methodDecoded": true,
                    "operation": "CALL",
                    "output": "0x0000000000000000000000000000000000000000000000000000000000000001",
                    "revert": false,
                    "revertMessage": "",
                    "selector": "0x23b872dd",
                    "status": true,
                    "value": "0"
                },
                "nodeType": 0
            },
            "15": {
                "invocation": {
                    "address": "0x86eee0422322710866af89e9cae3f7383d55310a",
                    "callData": "0x000000000000000000000000d0e6cbd9da5d6214818a3ca2c4be074174faea8100000000000000000000000041f8d14c9475444f30a80431c68cf24dc9a8369a000000000000000000000000000000000000000000000180325653ce540f7000",
                    "decodedMethod": {
                        "callParams": [
                            {
                                "name": "_from",
                                "type": "address",
                                "value": "0xd0e6cbd9da5d6214818a3ca2c4be074174faea81"
                            },
                            {
                                "name": "_to",
                                "type": "address",
                                "value": "0x41f8d14c9475444f30a80431c68cf24dc9a8369a"
                            },
                            {
                                "decimalAvailable": true,
                                "name": "_value",
                                "type": "uint256",
                                "value": "7,087,176,903,000,000,000,000"
                            }
                        ],
                        "constructorArguments": "",
                        "name": "transferFrom",
                        "returnParams": [
                            {
                                "name": "",
                                "type": "bool",
                                "value": true
                            }
                        ],
                        "signature": "transferFrom(address,address,uint256)"
                    },
                    "errorInfo": "",
                    "fromAddress": "0x8e870d67f660d95d5be530380d0ec0bd388289e1",
                    "gasUsed": 26754,
                    "id": 15,
                    "methodDecoded": true,
                    "operation": "DELEGATECALL",
                    "output": "0x0000000000000000000000000000000000000000000000000000000000000001",
                    "revert": false,
                    "revertMessage": "",
                    "selector": "0x23b872dd",
                    "status": true,
                    "value": "0"
                },
                "nodeType": 0
            },
            "16": {
                "event": {
                    "contract": "0x8e870d67f660d95d5be530380d0ec0bd388289e1",
                    "decodedLog": {
                        "name": "Transfer",
                        "params": [
                            {
                                "name": "from",
                                "type": "address",
                                "value": "0xd0e6cbd9da5d6214818a3ca2c4be074174faea81"
                            },
                            {
                                "name": "to",
                                "type": "address",
                                "value": "0x41f8d14c9475444f30a80431c68cf24dc9a8369a"
                            },
                            {
                                "decimalAvailable": true,
                                "name": "value",
                                "type": "uint256",
                                "value": "7,087,176,903,000,000,000,000"
                            }
                        ],
                        "signature": "Transfer(address,address,uint256)"
                    },
                    "id": 16,
                    "logData": "0x000000000000000000000000000000000000000000000180325653ce540f7000",
                    "logDecoded": true,
                    "operation": "EVENT",
                    "revert": false,
                    "status": true,
                    "topics": [
                        "0xddf252ad1be2c89b69c2b068fc378daa952ba7f163c4a11628f55a4df523b3ef",
                        "0x000000000000000000000000d0e6cbd9da5d6214818a3ca2c4be074174faea81",
                        "0x00000000000000000000000041f8d14c9475444f30a80431c68cf24dc9a8369a"
                    ]
                },
                "nodeType": 1
            },
            "17": {
                "invocation": {
                    "address": "0x95e6f48254609a6ee006f7d493c8e5fb97094cef",
                    "callData": "0x000000000000000000000000000000000000000000000000000000000000008000000000000000000000000041f8d14c9475444f30a80431c68cf24dc9a8369a000000000000000000000000d0e6cbd9da5d6214818a3ca2c4be074174faea8100000000000000000000000000000000000000000000000000000001a73167000000000000000000000000000000000000000000000000000000000000000024f47261b0000000000000000000000000dac17f958d2ee523a2206206994597c13d831ec700000000000000000000000000000000000000000000000000000000",
                    "decodedMethod": {
                        "callParams": [
                            {
                                "name": "assetData",
                                "type": "bytes",
                                "value": "0xf47261b0000000000000000000000000dac17f958d2ee523a2206206994597c13d831ec7"
                            },
                            {
                                "name": "from",
                                "type": "address",
                                "value": "0x41f8d14c9475444f30a80431c68cf24dc9a8369a"
                            },
                            {
                                "name": "to",
                                "type": "address",
                                "value": "0xd0e6cbd9da5d6214818a3ca2c4be074174faea81"
                            },
                            {
                                "name": "amount",
                                "type": "uint256",
                                "value": "7,100,000,000"
                            }
                        ],
                        "constructorArguments": "",
                        "name": "transferFrom",
                        "returnParams": [],
                        "signature": "transferFrom(bytes,address,address,uint256)"
                    },
                    "errorInfo": "",
                    "fromAddress": "0x080bf510fcbf18b91105470639e9561022937712",
                    "gasUsed": 18184,
                    "id": 17,
                    "methodDecoded": true,
                    "operation": "CALL",
                    "output": "",
                    "revert": false,
                    "revertMessage": "",
                    "selector": "0xa85e59e4",
                    "status": true,
                    "value": "0"
                },
                "nodeType": 0
            },
            "18": {
                "invocation": {
                    "address": "0xdac17f958d2ee523a2206206994597c13d831ec7",
                    "callData": "0x00000000000000000000000041f8d14c9475444f30a80431c68cf24dc9a8369a000000000000000000000000d0e6cbd9da5d6214818a3ca2c4be074174faea8100000000000000000000000000000000000000000000000000000001a7316700",
                    "decodedMethod": {
                        "callParams": [
                            {
                                "name": "_from",
                                "type": "address",
                                "value": "0x41f8d14c9475444f30a80431c68cf24dc9a8369a"
                            },
                            {
                                "name": "_to",
                                "type": "address",
                                "value": "0xd0e6cbd9da5d6214818a3ca2c4be074174faea81"
                            },
                            {
                                "decimalAvailable": true,
                                "name": "_value",
                                "type": "uint256",
                                "value": "7,100,000,000"
                            }
                        ],
                        "constructorArguments": "",
                        "name": "transferFrom",
                        "returnParams": [],
                        "signature": "transferFrom(address,address,uint256)"
                    },
                    "errorInfo": "",
                    "fromAddress": "0x95e6f48254609a6ee006f7d493c8e5fb97094cef",
                    "gasUsed": 16130,
                    "id": 18,
                    "methodDecoded": true,
                    "operation": "CALL",
                    "output": "",
                    "revert": false,
                    "revertMessage": "",
                    "selector": "0x23b872dd",
                    "status": true,
                    "value": "0"
                },
                "nodeType": 0
            },
            "19": {
                "event": {
                    "contract": "0xdac17f958d2ee523a2206206994597c13d831ec7",
                    "decodedLog": {
                        "name": "Transfer",
                        "params": [
                            {
                                "name": "from",
                                "type": "address",
                                "value": "0x41f8d14c9475444f30a80431c68cf24dc9a8369a"
                            },
                            {
                                "name": "to",
                                "type": "address",
                                "value": "0xd0e6cbd9da5d6214818a3ca2c4be074174faea81"
                            },
                            {
                                "decimalAvailable": true,
                                "name": "value",
                                "type": "uint256",
                                "value": "7,100,000,000"
                            }
                        ],
                        "signature": "Transfer(address,address,uint256)"
                    },
                    "id": 19,
                    "logData": "0x00000000000000000000000000000000000000000000000000000001a7316700",
                    "logDecoded": true,
                    "operation": "EVENT",
                    "revert": false,
                    "status": true,
                    "topics": [
                        "0xddf252ad1be2c89b69c2b068fc378daa952ba7f163c4a11628f55a4df523b3ef",
                        "0x00000000000000000000000041f8d14c9475444f30a80431c68cf24dc9a8369a",
                        "0x000000000000000000000000d0e6cbd9da5d6214818a3ca2c4be074174faea81"
                    ]
                },
                "nodeType": 1
            },
            "2": {
                "invocation": {
                    "address": "0x41f8d14c9475444f30a80431c68cf24dc9a8369a",
                    "callData": "0x000000000000000000000000dac17f958d2ee523a2206206994597c13d831ec7000000000000000000000000db2522008ecdb356f490b26f4ec0c5211391c3c600000000000000000000000000000000000000000000000000000001a7316700",
                    "decodedMethod": {
                        "callParams": [
                            {
                                "name": "customer",
                                "type": "address",
                                "value": "0xdac17f958d2ee523a2206206994597c13d831ec7"
                            },
                            {
                                "name": "token",
                                "type": "address",
                                "value": "0xdb2522008ecdb356f490b26f4ec0c5211391c3c6"
                            },
                            {
                                "name": "amount",
                                "type": "uint256",
                                "value": "7,100,000,000"
                            }
                        ],
                        "constructorArguments": "",
                        "name": "receiveToken",
                        "returnParams": [],
                        "signature": "receiveToken(address,address,uint256)"
                    },
                    "errorInfo": "",
                    "fromAddress": "0xdc6c91b569c98f9f6f74d90f9beff99fdaf4248b",
                    "gasUsed": 23305,
                    "id": 2,
                    "methodDecoded": true,
                    "operation": "CALL",
                    "output": "",
                    "revert": false,
                    "revertMessage": "",
                    "selector": "0x4ec109f4",
                    "status": true,
                    "value": "0"
                },
                "nodeType": 0
            },
            "20": {
                "invocation": {
                    "address": "0x41f8d14c9475444f30a80431c68cf24dc9a8369a",
                    "callData": "0x0000000000000000000000008e870d67f660d95d5be530380d0ec0bd388289e1000000000000000000000000db2522008ecdb356f490b26f4ec0c5211391c3c600000000000000000000000000000000000000000000017f9ece430a4e8ee700",
                    "decodedMethod": {
                        "callParams": [
                            {
                                "name": "_token",
                                "type": "address",
                                "value": "0x8e870d67f660d95d5be530380d0ec0bd388289e1"
                            },
                            {
                                "name": "_receiver",
                                "type": "address",
                                "value": "0xdb2522008ecdb356f490b26f4ec0c5211391c3c6"
                            },
                            {
                                "name": "_amount",
                                "type": "uint256",
                                "value": "7,076,546,137,645,500,000,000"
                            }
                        ],
                        "constructorArguments": "",
                        "name": "sendToken",
                        "returnParams": [],
                        "signature": "sendToken(address,address,uint256)"
                    },
                    "errorInfo": "",
                    "fromAddress": "0xdc6c91b569c98f9f6f74d90f9beff99fdaf4248b",
                    "gasUsed": 28344,
                    "id": 20,
                    "methodDecoded": true,
                    "operation": "CALL",
                    "output": "",
                    "revert": false,
                    "revertMessage": "",
                    "selector": "0x2fdcfbd2",
                    "status": true,
                    "value": "0"
                },
                "nodeType": 0
            },
            "21": {
                "invocation": {
                    "address": "0x8e870d67f660d95d5be530380d0ec0bd388289e1",
                    "callData": "0x00000000000000000000000041f8d14c9475444f30a80431c68cf24dc9a8369a000000000000000000000000db2522008ecdb356f490b26f4ec0c5211391c3c600000000000000000000000000000000000000000000017f9ece430a4e8ee700",
                    "decodedMethod": {
                        "callParams": [
                            {
                                "name": "_from",
                                "type": "address",
                                "value": "0x41f8d14c9475444f30a80431c68cf24dc9a8369a"
                            },
                            {
                                "name": "_to",
                                "type": "address",
                                "value": "0xdb2522008ecdb356f490b26f4ec0c5211391c3c6"
                            },
                            {
                                "decimalAvailable": true,
                                "name": "_value",
                                "type": "uint256",
                                "value": "7,076,546,137,645,500,000,000"
                            }
                        ],
                        "constructorArguments": "",
                        "name": "transferFrom",
                        "returnParams": [
                            {
                                "name": "",
                                "type": "bool",
                                "value": true
                            }
                        ],
                        "signature": "transferFrom(address,address,uint256)"
                    },
                    "errorInfo": "",
                    "fromAddress": "0x41f8d14c9475444f30a80431c68cf24dc9a8369a",
                    "gasUsed": 25342,
                    "id": 21,
                    "methodDecoded": true,
                    "operation": "CALL",
                    "output": "0x0000000000000000000000000000000000000000000000000000000000000001",
                    "revert": false,
                    "revertMessage": "",
                    "selector": "0x23b872dd",
                    "status": true,
                    "value": "0"
                },
                "nodeType": 0
            },
            "22": {
                "invocation": {
                    "address": "0x86eee0422322710866af89e9cae3f7383d55310a",
                    "callData": "0x00000000000000000000000041f8d14c9475444f30a80431c68cf24dc9a8369a000000000000000000000000db2522008ecdb356f490b26f4ec0c5211391c3c600000000000000000000000000000000000000000000017f9ece430a4e8ee700",
                    "decodedMethod": {
                        "callParams": [
                            {
                                "name": "_from",
                                "type": "address",
                                "value": "0x41f8d14c9475444f30a80431c68cf24dc9a8369a"
                            },
                            {
                                "name": "_to",
                                "type": "address",
                                "value": "0xdb2522008ecdb356f490b26f4ec0c5211391c3c6"
                            },
                            {
                                "decimalAvailable": true,
                                "name": "_value",
                                "type": "uint256",
                                "value": "7,076,546,137,645,500,000,000"
                            }
                        ],
                        "constructorArguments": "",
                        "name": "transferFrom",
                        "returnParams": [
                            {
                                "name": "",
                                "type": "bool",
                                "value": true
                            }
                        ],
                        "signature": "transferFrom(address,address,uint256)"
                    },
                    "errorInfo": "",
                    "fromAddress": "0x8e870d67f660d95d5be530380d0ec0bd388289e1",
                    "gasUsed": 22554,
                    "id": 22,
                    "methodDecoded": true,
                    "operation": "DELEGATECALL",
                    "output": "0x0000000000000000000000000000000000000000000000000000000000000001",
                    "revert": false,
                    "revertMessage": "",
                    "selector": "0x23b872dd",
                    "status": true,
                    "value": "0"
                },
                "nodeType": 0
            },
            "23": {
                "event": {
                    "contract": "0x8e870d67f660d95d5be530380d0ec0bd388289e1",
                    "decodedLog": {
                        "name": "Transfer",
                        "params": [
                            {
                                "name": "from",
                                "type": "address",
                                "value": "0x41f8d14c9475444f30a80431c68cf24dc9a8369a"
                            },
                            {
                                "name": "to",
                                "type": "address",
                                "value": "0xdb2522008ecdb356f490b26f4ec0c5211391c3c6"
                            },
                            {
                                "decimalAvailable": true,
                                "name": "value",
                                "type": "uint256",
                                "value": "7,076,546,137,645,500,000,000"
                            }
                        ],
                        "signature": "Transfer(address,address,uint256)"
                    },
                    "id": 23,
                    "logData": "0x00000000000000000000000000000000000000000000017f9ece430a4e8ee700",
                    "logDecoded": true,
                    "operation": "EVENT",
                    "revert": false,
                    "status": true,
                    "topics": [
                        "0xddf252ad1be2c89b69c2b068fc378daa952ba7f163c4a11628f55a4df523b3ef",
                        "0x00000000000000000000000041f8d14c9475444f30a80431c68cf24dc9a8369a",
                        "0x000000000000000000000000db2522008ecdb356f490b26f4ec0c5211391c3c6"
                    ]
                },
                "nodeType": 1
            },
            "24": {
                "event": {
                    "contract": "0xdc6c91b569c98f9f6f74d90f9beff99fdaf4248b",
                    "decodedLog": {
                        "name": "FillOrder",
                        "params": [
                            {
                                "name": "executeTxHash",
                                "type": "bytes32",
                                "value": "0xd2d034238466a9c3f7e7fec2cd413f1cbedf0e62ad645f962b4901dd4b66af48"
                            },
                            {
                                "name": "userAddr",
                                "type": "address",
                                "value": "0xdb2522008ecdb356f490b26f4ec0c5211391c3c6"
                            },
                            {
                                "name": "receiverAddr",
                                "type": "address",
                                "value": "0xdb2522008ecdb356f490b26f4ec0c5211391c3c6"
                            },
                            {
                                "name": "filledAmount",
                                "type": "uint256",
                                "value": "7,100,000,000"
                            },
                            {
                                "name": "acutalMakerAssetAmount",
                                "type": "uint256",
                                "value": "7,076,546,137,645,500,000,000"
                            }
                        ],
                        "signature": "FillOrder(bytes32,address,address,uint256,uint256)"
                    },
                    "id": 24,
                    "logData": "0x000000000000000000000000db2522008ecdb356f490b26f4ec0c5211391c3c600000000000000000000000000000000000000000000000000000001a731670000000000000000000000000000000000000000000000017f9ece430a4e8ee700",
                    "logDecoded": true,
                    "operation": "EVENT",
                    "revert": false,
                    "status": true,
                    "topics": [
                        "0xbacf26e0fbc49102f01531fe6d0af4601375ca3bc0f1ce693e6c91a5e38fafa8",
                        "0xd2d034238466a9c3f7e7fec2cd413f1cbedf0e62ad645f962b4901dd4b66af48",
                        "0x000000000000000000000000db2522008ecdb356f490b26f4ec0c5211391c3c6"
                    ]
                },
                "nodeType": 1
            },
            "3": {
                "invocation": {
                    "address": "0xdac17f958d2ee523a2206206994597c13d831ec7",
                    "callData": "0x000000000000000000000000db2522008ecdb356f490b26f4ec0c5211391c3c600000000000000000000000041f8d14c9475444f30a80431c68cf24dc9a8369a00000000000000000000000000000000000000000000000000000001a7316700",
                    "decodedMethod": {
                        "callParams": [
                            {
                                "name": "_from",
                                "type": "address",
                                "value": "0xdb2522008ecdb356f490b26f4ec0c5211391c3c6"
                            },
                            {
                                "name": "_to",
                                "type": "address",
                                "value": "0x41f8d14c9475444f30a80431c68cf24dc9a8369a"
                            },
                            {
                                "decimalAvailable": true,
                                "name": "_value",
                                "type": "uint256",
                                "value": "7,100,000,000"
                            }
                        ],
                        "constructorArguments": "",
                        "name": "transferFrom",
                        "returnParams": [],
                        "signature": "transferFrom(address,address,uint256)"
                    },
                    "errorInfo": "",
                    "fromAddress": "0x41f8d14c9475444f30a80431c68cf24dc9a8369a",
                    "gasUsed": 20330,
                    "id": 3,
                    "methodDecoded": true,
                    "operation": "CALL",
                    "output": "",
                    "revert": false,
                    "revertMessage": "",
                    "selector": "0x23b872dd",
                    "status": true,
                    "value": "0"
                },
                "nodeType": 0
            },
            "4": {
                "event": {
                    "contract": "0xdac17f958d2ee523a2206206994597c13d831ec7",
                    "decodedLog": {
                        "name": "Transfer",
                        "params": [
                            {
                                "name": "from",
                                "type": "address",
                                "value": "0xdb2522008ecdb356f490b26f4ec0c5211391c3c6"
                            },
                            {
                                "name": "to",
                                "type": "address",
                                "value": "0x41f8d14c9475444f30a80431c68cf24dc9a8369a"
                            },
                            {
                                "decimalAvailable": true,
                                "name": "value",
                                "type": "uint256",
                                "value": "7,100,000,000"
                            }
                        ],
                        "signature": "Transfer(address,address,uint256)"
                    },
                    "id": 4,
                    "logData": "0x00000000000000000000000000000000000000000000000000000001a7316700",
                    "logDecoded": true,
                    "operation": "EVENT",
                    "revert": false,
                    "status": true,
                    "topics": [
                        "0xddf252ad1be2c89b69c2b068fc378daa952ba7f163c4a11628f55a4df523b3ef",
                        "0x000000000000000000000000db2522008ecdb356f490b26f4ec0c5211391c3c6",
                        "0x00000000000000000000000041f8d14c9475444f30a80431c68cf24dc9a8369a"
                    ]
                },
                "nodeType": 1
            },
            "5": {
                "invocation": {
                    "address": "0x080bf510fcbf18b91105470639e9561022937712",
                    "callData": "0xcff12186d9ed4a015966c22eeeb016671caf1d3f26f06fb5420246954942d4ff00000000000000000000000041f8d14c9475444f30a80431c68cf24dc9a8369a000000000000000000000000000000000000000000000000000000000000008000000000000000000000000000000000000000000000000000000000000003e0000000000000000000000000000000000000000000000000000000000000032464a3bc15000000000000000000000000000000000000000000000000000000000000006000000000000000000000000000000000000000000000000000000001a731670000000000000000000000000000000000000000000000000000000000000002a0000000000000000000000000d0e6cbd9da5d6214818a3ca2c4be074174faea8100000000000000000000000041f8d14c9475444f30a80431c68cf24dc9a8369a000000000000000000000000b9e29984fe50602e7a619662ebed4f90d93824c7000000000000000000000000dc6c91b569c98f9f6f74d90f9beff99fdaf4248b000000000000000000000000000000000000000000000180325653ce540f700000000000000000000000000000000000000000000000000000000001a731670000000000000000000000000000000000000000000000000000000000000000000000000000000000000000000000000000000000000000000000000000000000000000000000000000000000000000000000000000000000000000005efaabf94c04ffc2c7209b2b68b2067dd8a15f02870209bc20abcaea6270c0ca5b87d609000000000000000000000000000000000000000000000000000000000000018000000000000000000000000000000000000000000000000000000000000001e00000000000000000000000000000000000000000000000000000000000000024f47261b00000000000000000000000008e870d67f660d95d5be530380d0ec0bd388289e1000000000000000000000000000000000000000000000000000000000000000000000000000000000000000000000000000000000000000000000024f47261b0000000000000000000000000dac17f958d2ee523a2206206994597c13d831ec70000000000000000000000000000000000000000000000000000000000000000000000000000000000000000000000000000000000000000000000581c3050e7e0581cc450f81809f62364d02be4745c6ce8eb642cb37ff241c0567ebb2173844f9f960b8f4824ba8a8aa4e3361da5af18fbfd4a2a81f288f842f27aa2db2522008ecdb356f490b26f4ec0c5211391c3c6000f0400000000000000000000000000000000000000000000000000000000000000000000000000000000000000000000000000000000000000000000000000000000000000561ceeb55a2507ff47ecd390fca05e93a5ff486bb6c15a8d21c74090f950eb7e41f97c7509e7c96be731962f27451d5eee5923071c8cf127b24023a143e8c01dc954db2522008ecdb356f490b26f4ec0c5211391c3c60400000000000000000000",
                    "decodedMethod": {
                        "callParams": [
                            {
                                "name": "salt",
                                "type": "uint256",
                                "value": "94,054,801,192,560,412,862,481,077,523,359,327,137,095,422,587,395,143,502,364,788,374,426,110,579,967"
                            },
                            {
                                "name": "signerAddress",
                                "type": "address",
                                "value": "0x41f8d14c9475444f30a80431c68cf24dc9a8369a"
                            },
                            {
                                "name": "data",
                                "type": "bytes",
                                "value": "0x64a3bc15000000000000000000000000000000000000000000000000000000000000006000000000000000000000000000000000000000000000000000000001a731670000000000000000000000000000000000000000000000000000000000000002a0000000000000000000000000d0e6cbd9da5d6214818a3ca2c4be074174faea8100000000000000000000000041f8d14c9475444f30a80431c68cf24dc9a8369a000000000000000000000000b9e29984fe50602e7a619662ebed4f90d93824c7000000000000000000000000dc6c91b569c98f9f6f74d90f9beff99fdaf4248b000000000000000000000000000000000000000000000180325653ce540f700000000000000000000000000000000000000000000000000000000001a731670000000000000000000000000000000000000000000000000000000000000000000000000000000000000000000000000000000000000000000000000000000000000000000000000000000000000000000000000000000000000000005efaabf94c04ffc2c7209b2b68b2067dd8a15f02870209bc20abcaea6270c0ca5b87d609000000000000000000000000000000000000000000000000000000000000018000000000000000000000000000000000000000000000000000000000000001e00000000000000000000000000000000000000000000000000000000000000024f47261b00000000000000000000000008e870d67f660d95d5be530380d0ec0bd388289e1000000000000000000000000000000000000000000000000000000000000000000000000000000000000000000000000000000000000000000000024f47261b0000000000000000000000000dac17f958d2ee523a2206206994597c13d831ec70000000000000000000000000000000000000000000000000000000000000000000000000000000000000000000000000000000000000000000000581c3050e7e0581cc450f81809f62364d02be4745c6ce8eb642cb37ff241c0567ebb2173844f9f960b8f4824ba8a8aa4e3361da5af18fbfd4a2a81f288f842f27aa2db2522008ecdb356f490b26f4ec0c5211391c3c6000f040000000000000000"
                            },
                            {
                                "name": "signature",
                                "type": "bytes",
                                "value": "0x1ceeb55a2507ff47ecd390fca05e93a5ff486bb6c15a8d21c74090f950eb7e41f97c7509e7c96be731962f27451d5eee5923071c8cf127b24023a143e8c01dc954db2522008ecdb356f490b26f4ec0c5211391c3c604"
                            }
                        ],
                        "constructorArguments": "",
                        "name": "executeTransaction",
                        "returnParams": [],
                        "signature": "executeTransaction(uint256,address,bytes,bytes)"
                    },
                    "errorInfo": "",
                    "fromAddress": "0xdc6c91b569c98f9f6f74d90f9beff99fdaf4248b",
                    "gasUsed": 197349,
                    "id": 5,
                    "methodDecoded": true,
                    "operation": "CALL",
                    "output": "",
                    "revert": false,
                    "revertMessage": "",
                    "selector": "0xbfc8bfce",
                    "status": true,
                    "value": "0"
                },
                "nodeType": 0
            },
            "6": {
                "invocation": {
                    "address": "0x41f8d14c9475444f30a80431c68cf24dc9a8369a",
                    "callData": "0xd2d034238466a9c3f7e7fec2cd413f1cbedf0e62ad645f962b4901dd4b66af48000000000000000000000000000000000000000000000000000000000000004000000000000000000000000000000000000000000000000000000000000000551ceeb55a2507ff47ecd390fca05e93a5ff486bb6c15a8d21c74090f950eb7e41f97c7509e7c96be731962f27451d5eee5923071c8cf127b24023a143e8c01dc954db2522008ecdb356f490b26f4ec0c5211391c3c60000000000000000000000",
                    "decodedMethod": {
                        "callParams": [
                            {
                                "name": "hash",
                                "type": "bytes32",
                                "value": "0xd2d034238466a9c3f7e7fec2cd413f1cbedf0e62ad645f962b4901dd4b66af48"
                            },
                            {
                                "name": "signature",
                                "type": "bytes",
                                "value": "0x1ceeb55a2507ff47ecd390fca05e93a5ff486bb6c15a8d21c74090f950eb7e41f97c7509e7c96be731962f27451d5eee5923071c8cf127b24023a143e8c01dc954db2522008ecdb356f490b26f4ec0c5211391c3c6"
                            }
                        ],
                        "constructorArguments": "",
                        "name": "isValidSignature",
                        "returnParams": [
                            {
                                "name": "magicValue",
                                "type": "bytes4",
                                "value": "0xb0671381"
                            }
                        ],
                        "signature": "isValidSignature(bytes32,bytes)"
                    },
                    "errorInfo": "",
                    "fromAddress": "0x080bf510fcbf18b91105470639e9561022937712",
                    "gasUsed": 9760,
                    "id": 6,
                    "methodDecoded": true,
                    "operation": "STATICCALL",
                    "output": "0xb067138131d606f18b51e6ee32605a2acac5aad86d6a80011ed9cb2bab20c1c7",
                    "revert": false,
                    "revertMessage": "",
                    "selector": "0x1626ba7e",
                    "status": true,
                    "value": "0"
                },
                "nodeType": 0
            },
            "7": {
                "invocation": {
                    "address": "0x0000000000000000000000000000000000000001",
                    "callData": "0xf1294b87cadb1e533957fa0a05fa511043330fc3adf32193f6640558000000000000000000000000000000000000000000000000000000000000001ceeb55a2507ff47ecd390fca05e93a5ff486bb6c15a8d21c74090f950eb7e41f97c7509e7c96be731962f27451d5eee5923071c8cf127b24023a143e8c01dc954",
                    "decodedMethod": {
                        "callParams": [
                            {
                                "name": "hash",
                                "type": "bytes32",
                                "value": "0x52c4ae93f1294b87cadb1e533957fa0a05fa511043330fc3adf32193f6640558"
                            },
                            {
                                "name": "v",
                                "type": "uint256",
                                "value": "28"
                            },
                            {
                                "name": "r",
                                "type": "bytes32",
                                "value": "0xeeb55a2507ff47ecd390fca05e93a5ff486bb6c15a8d21c74090f950eb7e41f9"
                            },
                            {
                                "name": "s",
                                "type": "bytes32",
                                "value": "0x7c7509e7c96be731962f27451d5eee5923071c8cf127b24023a143e8c01dc954"
                            }
                        ],
                        "constructorArguments": "",
                        "name": "ecrecover",
                        "returnParams": [
                            {
                                "name": "",
                                "type": "address",
                                "value": "0xdb2522008ecdb356f490b26f4ec0c5211391c3c6"
                            }
                        ],
                        "signature": "ecrecover(bytes32,uint256,bytes32,bytes32)"
                    },
                    "errorInfo": "",
                    "fromAddress": "0x41f8d14c9475444f30a80431c68cf24dc9a8369a",
                    "gasUsed": 3000,
                    "id": 7,
                    "methodDecoded": true,
                    "operation": "STATICCALL",
                    "output": "0x000000000000000000000000db2522008ecdb356f490b26f4ec0c5211391c3c6",
                    "revert": false,
                    "revertMessage": "",
                    "selector": "0x52c4ae93",
                    "status": true,
                    "value": "0"
                },
                "nodeType": 0
            },
            "8": {
                "invocation": {
                    "address": "0xdc6c91b569c98f9f6f74d90f9beff99fdaf4248b",
                    "callData": "0xd2d034238466a9c3f7e7fec2cd413f1cbedf0e62ad645f962b4901dd4b66af48",
                    "decodedMethod": {
                        "callParams": [
                            {
                                "name": "",
                                "type": "bytes32",
                                "value": "0xd2d034238466a9c3f7e7fec2cd413f1cbedf0e62ad645f962b4901dd4b66af48"
                            }
                        ],
                        "constructorArguments": "",
                        "name": "transactions",
                        "returnParams": [
                            {
                                "name": "",
                                "type": "address",
                                "value": "0xdb2522008ecdb356f490b26f4ec0c5211391c3c6"
                            }
                        ],
                        "signature": "transactions(bytes32)"
                    },
                    "errorInfo": "",
                    "fromAddress": "0x41f8d14c9475444f30a80431c68cf24dc9a8369a",
                    "gasUsed": 1559,
                    "id": 8,
                    "methodDecoded": true,
                    "operation": "CALL",
                    "output": "0x000000000000000000000000db2522008ecdb356f490b26f4ec0c5211391c3c6",
                    "revert": false,
                    "revertMessage": "",
                    "selector": "0x642f2eaf",
                    "status": true,
                    "value": "0"
                },
                "nodeType": 0
            },
            "9": {
                "invocation": {
                    "address": "0x080bf510fcbf18b91105470639e9561022937712",
                    "callData": "0x000000000000000000000000000000000000000000000000000000000000006000000000000000000000000000000000000000000000000000000001a731670000000000000000000000000000000000000000000000000000000000000002a0000000000000000000000000d0e6cbd9da5d6214818a3ca2c4be074174faea8100000000000000000000000041f8d14c9475444f30a80431c68cf24dc9a8369a000000000000000000000000b9e29984fe50602e7a619662ebed4f90d93824c7000000000000000000000000dc6c91b569c98f9f6f74d90f9beff99fdaf4248b000000000000000000000000000000000000000000000180325653ce540f700000000000000000000000000000000000000000000000000000000001a731670000000000000000000000000000000000000000000000000000000000000000000000000000000000000000000000000000000000000000000000000000000000000000000000000000000000000000000000000000000000000000005efaabf94c04ffc2c7209b2b68b2067dd8a15f02870209bc20abcaea6270c0ca5b87d609000000000000000000000000000000000000000000000000000000000000018000000000000000000000000000000000000000000000000000000000000001e00000000000000000000000000000000000000000000000000000000000000024f47261b00000000000000000000000008e870d67f660d95d5be530380d0ec0bd388289e1000000000000000000000000000000000000000000000000000000000000000000000000000000000000000000000000000000000000000000000024f47261b0000000000000000000000000dac17f958d2ee523a2206206994597c13d831ec70000000000000000000000000000000000000000000000000000000000000000000000000000000000000000000000000000000000000000000000581c3050e7e0581cc450f81809f62364d02be4745c6ce8eb642cb37ff241c0567ebb2173844f9f960b8f4824ba8a8aa4e3361da5af18fbfd4a2a81f288f842f27aa2db2522008ecdb356f490b26f4ec0c5211391c3c6000f040000000000000000",
                    "decodedMethod": {
                        "callParams": [
                            {
                                "name": "order",
                                "type": "(address,address,address,address,uint256,uint256,uint256,uint256,uint256,uint256,bytes,bytes)",
                                "value": [
                                    {
                                        "name": "makerAddress",
                                        "type": "address",
                                        "value": "0xd0e6cbd9da5d6214818a3ca2c4be074174faea81"
                                    },
                                    {
                                        "name": "takerAddress",
                                        "type": "address",
                                        "value": "0x41f8d14c9475444f30a80431c68cf24dc9a8369a"
                                    },
                                    {
                                        "name": "feeRecipientAddress",
                                        "type": "address",
                                        "value": "0xb9e29984fe50602e7a619662ebed4f90d93824c7"
                                    },
                                    {
                                        "name": "senderAddress",
                                        "type": "address",
                                        "value": "0xdc6c91b569c98f9f6f74d90f9beff99fdaf4248b"
                                    },
                                    {
                                        "name": "makerAssetAmount",
                                        "type": "uint256",
                                        "value": "7,087,176,903,000,000,000,000"
                                    },
                                    {
                                        "name": "takerAssetAmount",
                                        "type": "uint256",
                                        "value": "7,100,000,000"
                                    },
                                    {
                                        "name": "makerFee",
                                        "type": "uint256",
                                        "value": "0"
                                    },
                                    {
                                        "name": "takerFee",
                                        "type": "uint256",
                                        "value": "0"
                                    },
                                    {
                                        "name": "expirationTimeSeconds",
                                        "type": "uint256",
                                        "value": "1,593,486,329"
                                    },
                                    {
                                        "name": "salt",
                                        "type": "uint256",
                                        "value": "34,384,609,077,106,003,501,061,693,980,629,843,336,365,065,845,498,995,452,302,743,313,679,747,896,841"
                                    },
                                    {
                                        "name": "makerAssetData",
                                        "type": "bytes",
                                        "value": "0xf47261b00000000000000000000000008e870d67f660d95d5be530380d0ec0bd388289e1"
                                    },
                                    {
                                        "name": "takerAssetData",
                                        "type": "bytes",
                                        "value": "0xf47261b0000000000000000000000000dac17f958d2ee523a2206206994597c13d831ec7"
                                    }
                                ]
                            },
                            {
                                "name": "takerAssetFillAmount",
                                "type": "uint256",
                                "value": "7,100,000,000"
                            },
                            {
                                "name": "signature",
                                "type": "bytes",
                                "value": "0x1c3050e7e0581cc450f81809f62364d02be4745c6ce8eb642cb37ff241c0567ebb2173844f9f960b8f4824ba8a8aa4e3361da5af18fbfd4a2a81f288f842f27aa2db2522008ecdb356f490b26f4ec0c5211391c3c6000f04"
                            }
                        ],
                        "constructorArguments": "",
                        "name": "fillOrKillOrder",
                        "returnParams": [
                            {
                                "name": "fillResults",
                                "type": "(uint256,uint256,uint256,uint256)",
                                "value": [
                                    {
                                        "name": "makerAssetFilledAmount",
                                        "type": "uint256",
                                        "value": "7,087,176,903,000,000,000,000"
                                    },
                                    {
                                        "name": "takerAssetFilledAmount",
                                        "type": "uint256",
                                        "value": "7,100,000,000"
                                    },
                                    {
                                        "name": "makerFeePaid",
                                        "type": "uint256",
                                        "value": "0"
                                    },
                                    {
                                        "name": "takerFeePaid",
                                        "type": "uint256",
                                        "value": "0"
                                    }
                                ]
                            }
                        ],
                        "signature": "fillOrKillOrder((address,address,address,address,uint256,uint256,uint256,uint256,uint256,uint256,bytes,bytes),uint256,bytes)"
                    },
                    "errorInfo": "",
                    "fromAddress": "0x080bf510fcbf18b91105470639e9561022937712",
                    "gasUsed": 132432,
                    "id": 9,
                    "methodDecoded": true,
                    "operation": "DELEGATECALL",
                    "output": "0x000000000000000000000000000000000000000000000180325653ce540f700000000000000000000000000000000000000000000000000000000001a731670000000000000000000000000000000000000000000000000000000000000000000000000000000000000000000000000000000000000000000000000000000000",
                    "revert": false,
                    "revertMessage": "",
                    "selector": "0x64a3bc15",
                    "status": true,
                    "value": "0"
                },
                "nodeType": 0
            }
        },
        "gasFlame": [
            {
                "children": [
                    {
                        "children": [
                            {
                                "children": [],
                                "depth": 0,
                                "name": "Initial Gas",
                                "value": 30264
                            },
                            {
                                "children": [
                                    {
                                        "children": [],
                                        "depth": 1,
                                        "name": "isMarketMakerProxy",
                                        "value": 1566
                                    },
                                    {
                                        "children": [
                                            {
                                                "children": [],
                                                "depth": 2,
                                                "name": "transferFrom",
                                                "value": 20330
                                            }
                                        ],
                                        "depth": 1,
                                        "name": "receiveToken",
                                        "value": 23305
                                    },
                                    {
                                        "children": [
                                            {
                                                "children": [
                                                    {
                                                        "children": [],
                                                        "depth": 3,
                                                        "name": "ecrecover",
                                                        "value": 3000
                                                    },
                                                    {
                                                        "children": [],
                                                        "depth": 3,
                                                        "name": "transactions",
                                                        "value": 1559
                                                    }
                                                ],
                                                "depth": 2,
                                                "name": "isValidSignature",
                                                "value": 9760
                                            },
                                            {
                                                "children": [
                                                    {
                                                        "children": [
                                                            {
                                                                "children": [],
                                                                "depth": 4,
                                                                "name": "ecrecover",
                                                                "value": 3000
                                                            }
                                                        ],
                                                        "depth": 3,
                                                        "name": "isValidSignature",
                                                        "value": 6823
                                                    },
                                                    {
                                                        "children": [
                                                            {
                                                                "children": [
                                                                    {
                                                                        "children": [],
                                                                        "depth": 5,
                                                                        "name": "transferFrom",
                                                                        "value": 26754
                                                                    }
                                                                ],
                                                                "depth": 4,
                                                                "name": "transferFrom",
                                                                "value": 29542
                                                            }
                                                        ],
                                                        "depth": 3,
                                                        "name": "transferFrom",
                                                        "value": 31596
                                                    },
                                                    {
                                                        "children": [
                                                            {
                                                                "children": [],
                                                                "depth": 4,
                                                                "name": "transferFrom",
                                                                "value": 16130
                                                            }
                                                        ],
                                                        "depth": 3,
                                                        "name": "transferFrom",
                                                        "value": 18184
                                                    }
                                                ],
                                                "depth": 2,
                                                "name": "fillOrKillOrder",
                                                "value": 132432
                                            }
                                        ],
                                        "depth": 1,
                                        "name": "executeTransaction",
                                        "value": 197349
                                    },
                                    {
                                        "children": [
                                            {
                                                "children": [
                                                    {
                                                        "children": [],
                                                        "depth": 3,
                                                        "name": "transferFrom",
                                                        "value": 22554
                                                    }
                                                ],
                                                "depth": 2,
                                                "name": "transferFrom",
                                                "value": 25342
                                            }
                                        ],
                                        "depth": 1,
                                        "name": "sendToken",
                                        "value": 28344
                                    }
                                ],
                                "depth": 0,
                                "name": "Executed Gas",
                                "value": 303920
                            }
                        ],
                        "depth": -1,
                        "name": "Actual Gas Used",
                        "value": 291584
                    },
                    {
                        "children": [],
                        "depth": -1,
                        "name": "Refunded Gas",
                        "value": 42600
                    }
                ],
                "depth": -2,
                "name": "Total Gas",
                "value": 334184
            }
        ],
        "isConfirmed": true,
        "mainTrace": [
            {
                "children": [
                    {
                        "children": [
                            {
                                "children": [],
                                "depth": 1,
                                "id": 1,
                                "order": 1
                            },
                            {
                                "children": [
                                    {
                                        "children": [
                                            {
                                                "children": [],
                                                "depth": 3,
                                                "id": 4,
                                                "order": 4
                                            }
                                        ],
                                        "depth": 2,
                                        "id": 3,
                                        "order": 3
                                    }
                                ],
                                "depth": 1,
                                "id": 2,
                                "order": 2
                            },
                            {
                                "children": [
                                    {
                                        "children": [
                                            {
                                                "children": [],
                                                "depth": 3,
                                                "id": 7,
                                                "order": 7
                                            },
                                            {
                                                "children": [],
                                                "depth": 3,
                                                "id": 8,
                                                "order": 8
                                            }
                                        ],
                                        "depth": 2,
                                        "id": 6,
                                        "order": 6
                                    },
                                    {
                                        "children": [
                                            {
                                                "children": [
                                                    {
                                                        "children": [],
                                                        "depth": 4,
                                                        "id": 11,
                                                        "order": 11
                                                    }
                                                ],
                                                "depth": 3,
                                                "id": 10,
                                                "order": 10
                                            },
                                            {
                                                "children": [],
                                                "depth": 3,
                                                "id": 12,
                                                "order": 12
                                            },
                                            {
                                                "children": [
                                                    {
                                                        "children": [
                                                            {
                                                                "children": [
                                                                    {
                                                                        "children": [],
                                                                        "depth": 6,
                                                                        "id": 16,
                                                                        "order": 16
                                                                    }
                                                                ],
                                                                "depth": 5,
                                                                "id": 15,
                                                                "order": 15
                                                            }
                                                        ],
                                                        "depth": 4,
                                                        "id": 14,
                                                        "order": 14
                                                    }
                                                ],
                                                "depth": 3,
                                                "id": 13,
                                                "order": 13
                                            },
                                            {
                                                "children": [
                                                    {
                                                        "children": [
                                                            {
                                                                "children": [],
                                                                "depth": 5,
                                                                "id": 19,
                                                                "order": 19
                                                            }
                                                        ],
                                                        "depth": 4,
                                                        "id": 18,
                                                        "order": 18
                                                    }
                                                ],
                                                "depth": 3,
                                                "id": 17,
                                                "order": 17
                                            }
                                        ],
                                        "depth": 2,
                                        "id": 9,
                                        "order": 9
                                    }
                                ],
                                "depth": 1,
                                "id": 5,
                                "order": 5
                            },
                            {
                                "children": [
                                    {
                                        "children": [
                                            {
                                                "children": [
                                                    {
                                                        "children": [],
                                                        "depth": 4,
                                                        "id": 23,
                                                        "order": 23
                                                    }
                                                ],
                                                "depth": 3,
                                                "id": 22,
                                                "order": 22
                                            }
                                        ],
                                        "depth": 2,
                                        "id": 21,
                                        "order": 21
                                    }
                                ],
                                "depth": 1,
                                "id": 20,
                                "order": 20
                            },
                            {
                                "children": [],
                                "depth": 1,
                                "id": 24,
                                "order": 24
                            }
                        ],
                        "depth": 0,
                        "id": 0,
                        "order": 0
                    }
                ],
                "depth": -1,
                "id": -1,
                "order": -1
            }
        ],
        "mainTraceNodeCount": 25,
        "parentIdMap": {
            "0": -1,
            "1": 0,
            "10": 9,
            "11": 10,
            "12": 9,
            "13": 9,
            "14": 13,
            "15": 14,
            "16": 15,
            "17": 9,
            "18": 17,
            "19": 18,
            "2": 0,
            "20": 0,
            "21": 20,
            "22": 21,
            "23": 22,
            "24": 0,
            "3": 2,
            "4": 3,
            "5": 0,
            "6": 5,
            "7": 6,
            "8": 6,
            "9": 5
        },
        "tidyTrace": [
            {
                "children": [
                    {
                        "children": [
                            {
                                "children": [
                                    {
                                        "children": [
                                            {
                                                "children": [],
                                                "depth": 3,
                                                "id": 4,
                                                "order": 4
                                            }
                                        ],
                                        "depth": 2,
                                        "id": 3,
                                        "order": 3
                                    }
                                ],
                                "depth": 1,
                                "id": 2,
                                "order": 2
                            },
                            {
                                "children": [
                                    {
                                        "children": [
                                            {
                                                "children": [],
                                                "depth": 3,
                                                "id": 12,
                                                "order": 12
                                            },
                                            {
                                                "children": [
                                                    {
                                                        "children": [
                                                            {
                                                                "children": [
                                                                    {
                                                                        "children": [],
                                                                        "depth": 6,
                                                                        "id": 16,
                                                                        "order": 16
                                                                    }
                                                                ],
                                                                "depth": 5,
                                                                "id": 15,
                                                                "order": 15
                                                            }
                                                        ],
                                                        "depth": 4,
                                                        "id": 14,
                                                        "order": 14
                                                    }
                                                ],
                                                "depth": 3,
                                                "id": 13,
                                                "order": 13
                                            },
                                            {
                                                "children": [
                                                    {
                                                        "children": [
                                                            {
                                                                "children": [],
                                                                "depth": 5,
                                                                "id": 19,
                                                                "order": 19
                                                            }
                                                        ],
                                                        "depth": 4,
                                                        "id": 18,
                                                        "order": 18
                                                    }
                                                ],
                                                "depth": 3,
                                                "id": 17,
                                                "order": 17
                                            }
                                        ],
                                        "depth": 2,
                                        "id": 9,
                                        "order": 9
                                    }
                                ],
                                "depth": 1,
                                "id": 5,
                                "order": 5
                            },
                            {
                                "children": [
                                    {
                                        "children": [
                                            {
                                                "children": [
                                                    {
                                                        "children": [],
                                                        "depth": 4,
                                                        "id": 23,
                                                        "order": 23
                                                    }
                                                ],
                                                "depth": 3,
                                                "id": 22,
                                                "order": 22
                                            }
                                        ],
                                        "depth": 2,
                                        "id": 21,
                                        "order": 21
                                    }
                                ],
                                "depth": 1,
                                "id": 20,
                                "order": 20
                            },
                            {
                                "children": [],
                                "depth": 1,
                                "id": 24,
                                "order": 24
                            }
                        ],
                        "depth": 0,
                        "id": 0,
                        "order": 0
                    }
                ],
                "depth": -1,
                "id": -1,
                "order": -1
            }
        ],
        "tidyTraceNodeCount": 19
    },
    "state_change": {
        "stateChanges": [
            {
                "address": "0x080bf510fcbf18b91105470639e9561022937712",
                "erc": "",
                "slots": [
                    {
                        "current": "0x0000000000000000000000000000000000000000000000000000000000000001",
                        "key": "0x422fe6309df29cd35bd63d0f225fc768bc45862256ddf1832f6fd31621231bcc",
                        "prev": "0x0000000000000000000000000000000000000000000000000000000000000000"
                    },
                    {
                        "current": "0x00000000000000000000000000000000000000000000000000000001a7316700",
                        "key": "0x82ec0f7a729e2e142bfa13c3b00590e0a4112e78828617cd84b9f146546b2798",
                        "prev": "0x0000000000000000000000000000000000000000000000000000000000000000"
                    }
                ],
                "storageVariables": [
                    {
                        "name": "filled",
                        "type": "mapping(bytes32 => uint256)",
                        "value": {
                            "pairs": [
                                {
                                    "key": "0xe577ddb80ad137648e2a1bdc12aba955d3eefa93f41b86ac862509fa7bc22d5c",
                                    "value": {
                                        "current": "7100000000",
                                        "prev": "0",
                                        "typeTag": 1
                                    }
                                }
                            ],
                            "typeTag": 4
                        }
                    },
                    {
                        "name": "transactions",
                        "type": "mapping(bytes32 => bool)",
                        "value": {
                            "pairs": [
                                {
                                    "key": "0xd2d034238466a9c3f7e7fec2cd413f1cbedf0e62ad645f962b4901dd4b66af48",
                                    "value": {
                                        "current": "true",
                                        "prev": "false",
                                        "typeTag": 1
                                    }
                                }
                            ],
                            "typeTag": 4
                        }
                    }
                ]
            },
            {
                "address": "0x8e870d67f660d95d5be530380d0ec0bd388289e1",
                "erc": "ERC-20",
                "slots": [
                    {
                        "current": "0xfffffffffffffffffffffffffffffffffffffffffff0a4535e265e16dcd06a1f",
                        "key": "0xaf4b0c1203729ffd5cb202fbe84976b11cff2c4844b665f9547140e476784f8f",
                        "prev": "0xfffffffffffffffffffffffffffffffffffffffffff0a5d2fcf4a1212b5f511f"
                    },
                    {
                        "current": "0x0000000000000000000000000000000000000000000010e0f3d8a5c9fe9a1798",
                        "key": "0x1fa719cf0c7bd61228e31f6cbfb293befe8b295de1d1e4cd1fccf336e039f21f",
                        "prev": "0x000000000000000000000000000000000000000000001261262ef99852a98798"
                    },
                    {
                        "current": "0x00000000000000000000000000000000000000000000023b9346367d23070600",
                        "key": "0x672aa95f2fb8361b050fbaaf65cb183bd69cdacf5f1e04398e1198a72fddba45",
                        "prev": "0x00000000000000000000000000000000000000000000023affbe25b91d867d00"
                    },
                    {
                        "current": "0xfffffffffffffffffffffffffffffffffffffffffffaa011d3785998bd2ab9ff",
                        "key": "0x80787e03c574b53199bcc93c436cd6b8c6e9feac1044a6d8be8cabd715f68044",
                        "prev": "0xfffffffffffffffffffffffffffffffffffffffffffaa19205cead67113a29ff"
                    },
                    {
                        "current": "0x000000000000000000000000000000000000000000000181511fb1a56c2a5880",
                        "key": "0x36f3e39d3fc22c5f73631ac31381412302f75f06a5008f5646b9fc389e7eff02",
                        "prev": "0x000000000000000000000000000000000000000000000001b2516e9b1d9b7180"
                    }
                ],
                "storageVariables": [
                    {
                        "name": "balances",
                        "type": "mapping(address => uint256)",
                        "value": {
                            "pairs": [
                                {
                                    "key": "0x41f8d14c9475444f30a80431c68cf24dc9a8369a",
                                    "value": {
                                        "current": "10543703095571185600000",
                                        "prev": "10533072330216685600000",
                                        "typeTag": 1
                                    }
                                },
                                {
                                    "key": "0xd0e6cbd9da5d6214818a3ca2c4be074174faea81",
                                    "value": {
                                        "current": "79707505374658427492248",
                                        "prev": "86794682277658427492248",
                                        "typeTag": 1
                                    }
                                },
                                {
                                    "key": "0xdb2522008ecdb356f490b26f4ec0c5211391c3c6",
                                    "value": {
                                        "current": "7107842054543570000000",
                                        "prev": "31295916898070000000",
                                        "typeTag": 1
                                    }
                                }
                            ],
                            "typeTag": 4
                        }
                    },
                    {
                        "name": "allowed",
                        "type": "mapping(address => mapping(address => uint256))",
                        "value": {
                            "pairs": [
                                {
                                    "key": "0x41f8d14c9475444f30a80431c68cf24dc9a8369a",
                                    "value": {
                                        "pairs": [
                                            {
                                                "key": "0x41f8d14c9475444f30a80431c68cf24dc9a8369a",
                                                "value": {
                                                    "current": "115792089237316195423570985008687907853269984665640545472650437335927009339935",
                                                    "prev": "115792089237316195423570985008687907853269984665640545479726983473572509339935",
                                                    "typeTag": 1
                                                }
                                            }
                                        ],
                                        "typeTag": 4
                                    }
                                },
                                {
                                    "key": "0xd0e6cbd9da5d6214818a3ca2c4be074174faea81",
                                    "value": {
                                        "pairs": [
                                            {
                                                "key": "0x95e6f48254609a6ee006f7d493c8e5fb97094cef",
                                                "value": {
                                                    "current": "115792089237316195423570985008687907853269984665640557541810136256386129639935",
                                                    "prev": "115792089237316195423570985008687907853269984665640557548897313159386129639935",
                                                    "typeTag": 1
                                                }
                                            }
                                        ],
                                        "typeTag": 4
                                    }
                                }
                            ],
                            "typeTag": 4
                        }
                    }
                ]
            },
            {
                "address": "0xdac17f958d2ee523a2206206994597c13d831ec7",
                "erc": "ERC-20",
                "slots": [
                    {
                        "current": "0x0000000000000000000000000000000000000000000000000000000000400319",
                        "key": "0xce990a9e6c8ccf3583f90dfbf45a79bea92687f25f8e535bca2aa1b396fa75d1",
                        "prev": "0x00000000000000000000000000000000000000000000000000000001a7716a19"
                    },
                    {
                        "current": "0x0000000000000000000000000000000000000000000000000000006741f3c14f",
                        "key": "0xe2cac717ee15a89ad301b961a7936f5fc7d6b7b10e1e8157df87974ebaaab7a0",
                        "prev": "0x000000000000000000000000000000000000000000000000000000659ac25a4f"
                    }
                ],
                "storageVariables": [
                    {
                        "name": "balances",
                        "type": "mapping(address => uint256)",
                        "value": {
                            "pairs": [
                                {
                                    "key": "0xd0e6cbd9da5d6214818a3ca2c4be074174faea81",
                                    "value": {
                                        "current": "443488125263",
                                        "prev": "436388125263",
                                        "typeTag": 1
                                    }
                                },
                                {
                                    "key": "0xdb2522008ecdb356f490b26f4ec0c5211391c3c6",
                                    "value": {
                                        "current": "4195097",
                                        "prev": "7104195097",
                                        "typeTag": 1
                                    }
                                }
                            ],
                            "typeTag": 4
                        }
                    }
                ]
            },
            {
                "address": "0xdc6c91b569c98f9f6f74d90f9beff99fdaf4248b",
                "erc": "",
                "slots": [
                    {
                        "current": "0x000000000000000000000000db2522008ecdb356f490b26f4ec0c5211391c3c6",
                        "key": "0xb357fce53b23bd38ab483f65f30faead67b261006bfaf550998361f2e223840a",
                        "prev": "0x0000000000000000000000000000000000000000000000000000000000000000"
                    }
                ],
                "storageVariables": [
                    {
                        "name": "transactions",
                        "type": "mapping(bytes32 => address)",
                        "value": {
                            "pairs": [
                                {
                                    "key": "0xd2d034238466a9c3f7e7fec2cd413f1cbedf0e62ad645f962b4901dd4b66af48",
                                    "value": {
                                        "current": "0xdb2522008ecdb356f490b26f4ec0c5211391c3c6",
                                        "prev": "0x0000000000000000000000000000000000000000",
                                        "typeTag": 1
                                    }
                                }
                            ],
                            "typeTag": 4
                        }
                    }
                ]
            }
        ]
    }
}