{
    "balance_change": {
        "balanceChanges": [
            {
                "account": "0x00000063f648c943346d2a239f0969bad32ff184",
                "assets": [
                    {
                        "address": "0xba100000625a3754423978a60c9317c58a424e3d",
                        "amount": "2,539.706294854980728985",
                        "iconUrl": "https://assets.blocksec.com/icon/c54e5d3686cfdcd5b83c30277395a4080808ff7cc373adffe8bd60843e2b8a99.png",
                        "isERC1155": false,
                        "isERC721": false,
                        "sign": false,
                        "value": ""
                    },
                    {
                        "address": "0xeeeeeeeeeeeeeeeeeeeeeeeeeeeeeeeeeeeeeeee",
                        "amount": "40.5378",
                        "iconUrl": "https://assets.blocksec.com/image/1663669189317-3.png",
                        "isERC1155": false,
                        "isERC721": false,
                        "sign": true,
                        "value": "50504.88623"
                    }
                ]
            },
            {
                "account": "0x59a19d8c652fa0284f44113d0ff9aba70bd46fb4",
                "assets": [
                    {
                        "address": "0xba100000625a3754423978a60c9317c58a424e3d",
                        "amount": "2,539.706294854980728985",
                        "iconUrl": "https://assets.blocksec.com/icon/c54e5d3686cfdcd5b83c30277395a4080808ff7cc373adffe8bd60843e2b8a99.png",
                        "isERC1155": false,
                        "isERC721": false,
                        "sign": true,
                        "value": ""
                    },
                    {
                        "address": "0xc02aaa39b223fe8d0a0e5c4f27ead9083c756cc2",
                        "amount": "40.5378",
                        "iconUrl": "https://assets.blocksec.com/icon/f1cb2d02c471d545bbc7722daf3277fd852d98e63d118771af7047bd8256c516.png",
                        "isERC1155": false,
                        "isERC721": false,
                        "sign": false,
                        "value": "50504.88623"
                    }
                ]
            },
            {
                "account": "0xc02aaa39b223fe8d0a0e5c4f27ead9083c756cc2",
                "assets": [
                    {
                        "address": "0xeeeeeeeeeeeeeeeeeeeeeeeeeeeeeeeeeeeeeeee",
                        "amount": "40.5378",
                        "iconUrl": "https://assets.blocksec.com/image/1663669189317-3.png",
                        "isERC1155": false,
                        "isERC721": false,
                        "sign": false,
                        "value": "50504.88623"
                    },
                    {
                        "address": "0xc02aaa39b223fe8d0a0e5c4f27ead9083c756cc2",
                        "amount": "40.5378",
                        "iconUrl": "https://assets.blocksec.com/icon/f1cb2d02c471d545bbc7722daf3277fd852d98e63d118771af7047bd8256c516.png",
                        "isERC1155": false,
                        "isERC721": false,
                        "sign": true,
                        "value": "50504.88623"
                    }
                ]
            }
        ]
    },
    "profile": {
        "basic_info": {
            "baseFee": "",
            "blockNumber": 11667995,
            "callData": "0x178979ae000000000000000000000000000000cce580fb2b76b2d1196c237db199d825050000000000000000000000000000000000000000000000000000000000000000000000000000000000000000000000000000000000000000000000000000006000000000000000000000000000000000000000000000000000000000000001642db581340000000000000000000000000000000000000000000000000000000000000080000000000000000000000000ba100000625a3754423978a60c9317c58a424e3d000000000000000000000000eeeeeeeeeeeeeeeeeeeeeeeeeeeeeeeeeeeeeeee00000000000000000000000000000000000000000000008a7de3ce563b000000000000000000000000000000000000000000000000000000000000000000000100000000000000000000000059a19d8c652fa0284f44113d0ff9aba70bd46fb4000000000000000000000000ba100000625a3754423978a60c9317c58a424e3d000000000000000000000000c02aaa39b223fe8d0a0e5c4f27ead9083c756cc2000000000000000000000000000000000000000000000002329332524fd4800000000000000000000000000000000000000000000000008a7de3ce563b000000ffffffffffffffffffffffffffffffffffffffffffffffffffffffffffffffff00000000000000000000000000000000000000000000000000000000",
            "debugEnable": true,
            "errorInfo": "",
            "eventCount": 11,
            "feeRecipient": "0x04668ec2f57cc15c381b461b9fedab5d451c8f7f",
            "formatValue": "0",
            "gasLimit": 400000,
            "gasPrice": "121.746070639",
            "gasUsed": 208559,
            "intTxnCount": 14,
            "internalRevert": false,
            "internalRevertMessage": "",
            "isContractCreation": false,
            "isFlashloan": false,
            "maxFee": "",
            "nonce": 121308,
            "overwritedBlockNumber": -1,
            "priorityFee": "",
            "receiver": "0x00000063f648c943346d2a239f0969bad32ff184",
            "revertMessage": "",
            "sender": "0x000002cba8dfb0a86a47a415592835e17fac080a",
            "simulationEnable": true,
            "sourceTxnHash": "0x129c4697f30e979aa5b759ef3f0c7c62446f140125b3cf250e6a3e13262da9a3",
            "status": true,
            "timestamp": "2021-01-16T18:59:55Z",
            "transactionFee": "0.025391238746399201",
            "txnHash": "0x129c4697f30e979aa5b759ef3f0c7c62446f140125b3cf250e6a3e13262da9a3",
            "txnIndex": 20,
            "type": 0,
            "value": "0"
        },
        "fund_flow": [
            {
                "amount": "2,554.722003116124798976",
                "from": "0x00000063f648c943346d2a239f0969bad32ff184",
                "id": 1,
                "isERC1155": false,
                "isERC721": false,
                "isReverted": false,
                "order": 1,
                "to": "0x000000cce580fb2b76b2d1196c237db199d82505",
                "token": "0xba100000625a3754423978a60c9317c58a424e3d"
            },
            {
                "amount": "2,539.706294854980728985",
                "from": "0x000000cce580fb2b76b2d1196c237db199d82505",
                "id": 2,
                "isERC1155": false,
                "isERC721": false,
                "isReverted": false,
                "order": 2,
                "to": "0x59a19d8c652fa0284f44113d0ff9aba70bd46fb4",
                "token": "0xba100000625a3754423978a60c9317c58a424e3d"
            },
            {
                "amount": "40.5378",
                "from": "0x59a19d8c652fa0284f44113d0ff9aba70bd46fb4",
                "id": 3,
                "isERC1155": false,
                "isERC721": false,
                "isReverted": false,
                "order": 3,
                "to": "0x000000cce580fb2b76b2d1196c237db199d82505",
                "token": "0xc02aaa39b223fe8d0a0e5c4f27ead9083c756cc2"
            },
            {
                "amount": "40.5378",
                "from": "0xc02aaa39b223fe8d0a0e5c4f27ead9083c756cc2",
                "id": 4,
                "isERC1155": false,
                "isERC721": false,
                "isReverted": false,
                "order": 4,
                "to": "0x000000cce580fb2b76b2d1196c237db199d82505",
                "token": "0xeeeeeeeeeeeeeeeeeeeeeeeeeeeeeeeeeeeeeeee"
            },
            {
                "amount": "40.5378",
                "from": "0x000000cce580fb2b76b2d1196c237db199d82505",
                "id": 5,
                "isERC1155": false,
                "isERC721": false,
                "isReverted": false,
                "order": 5,
                "to": "0xc02aaa39b223fe8d0a0e5c4f27ead9083c756cc2",
                "token": "0xc02aaa39b223fe8d0a0e5c4f27ead9083c756cc2"
            },
            {
                "amount": "40.5378",
                "from": "0x000000cce580fb2b76b2d1196c237db199d82505",
                "id": 6,
                "isERC1155": false,
                "isERC721": false,
                "isReverted": false,
                "order": 6,
                "to": "0x00000063f648c943346d2a239f0969bad32ff184",
                "token": "0xeeeeeeeeeeeeeeeeeeeeeeeeeeeeeeeeeeeeeeee"
            },
            {
                "amount": "15.015708261144069991",
                "from": "0x000000cce580fb2b76b2d1196c237db199d82505",
                "id": 7,
                "isERC1155": false,
                "isERC721": false,
                "isReverted": false,
                "order": 7,
                "to": "0x00000063f648c943346d2a239f0969bad32ff184",
                "token": "0xba100000625a3754423978a60c9317c58a424e3d"
            }
        ],
        "token_infos": [
            {
                "address": "0xc02aaa39b223fe8d0a0e5c4f27ead9083c756cc2",
                "decimals": 18
            },
            {
                "address": "0xeeeeeeeeeeeeeeeeeeeeeeeeeeeeeeeeeeeeeeee",
                "decimals": 18
            },
            {
                "address": "0xba100000625a3754423978a60c9317c58a424e3d",
                "decimals": 18
            }
        ]
    },
    "address_label": {
        "labels": [
            {
                "address": "0x0000000000000000000000000000000000000002",
                "label": "Precompiled"
            },
            {
                "address": "0xeeeeeeeeeeeeeeeeeeeeeeeeeeeeeeeeeeeeeeee",
                "label": "Ether"
            },
            {
                "address": "0xc02aaa39b223fe8d0a0e5c4f27ead9083c756cc2",
                "label": "Wrapped Ether (WETH)"
            },
            {
                "address": "0xba100000625a3754423978a60c9317c58a424e3d",
                "label": "Balancer: BAL Token"
            },
            {
                "address": "0x59a19d8c652fa0284f44113d0ff9aba70bd46fb4",
                "label": "Balancer: BAL/ETH 80/20 #2"
            },
            {
                "address": "0x000002cba8dfb0a86a47a415592835e17fac080a",
                "label": "Wintermute 2"
            },
            {
                "address": "0x0000000000000000000000000000000000000001",
                "label": "Precompiled"
            },
            {
                "address": "0x0000000000000000000000000000000000000003",
                "label": "Precompiled"
            },
            {
                "address": "0x0000000000000000000000000000000000000004",
                "label": "Precompiled"
            }
        ]
    },
    "trace": {
        "accountLabels": null,
        "dataMap": {
            "-1": {
                "invocation": {
                    "address": "0x000002cba8dfb0a86a47a415592835e17fac080a",
                    "callData": "",
                    "decodedMethod": null,
                    "errorInfo": "",
                    "fromAddress": "",
                    "gasUsed": 0,
                    "id": -1,
                    "methodDecoded": false,
                    "operation": "",
                    "output": "",
                    "revert": false,
                    "revertMessage": "",
                    "selector": "",
                    "status": false,
                    "value": ""
                },
                "nodeType": 0
            },
            "0": {
                "invocation": {
                    "address": "0x00000063f648c943346d2a239f0969bad32ff184",
                    "callData": "0x000000000000000000000000000000cce580fb2b76b2d1196c237db199d825050000000000000000000000000000000000000000000000000000000000000000000000000000000000000000000000000000000000000000000000000000006000000000000000000000000000000000000000000000000000000000000001642db581340000000000000000000000000000000000000000000000000000000000000080000000000000000000000000ba100000625a3754423978a60c9317c58a424e3d000000000000000000000000eeeeeeeeeeeeeeeeeeeeeeeeeeeeeeeeeeeeeeee00000000000000000000000000000000000000000000008a7de3ce563b000000000000000000000000000000000000000000000000000000000000000000000100000000000000000000000059a19d8c652fa0284f44113d0ff9aba70bd46fb4000000000000000000000000ba100000625a3754423978a60c9317c58a424e3d000000000000000000000000c02aaa39b223fe8d0a0e5c4f27ead9083c756cc2000000000000000000000000000000000000000000000002329332524fd4800000000000000000000000000000000000000000000000008a7de3ce563b000000ffffffffffffffffffffffffffffffffffffffffffffffffffffffffffffffff00000000000000000000000000000000000000000000000000000000",
                    "decodedMethod": null,
                    "errorInfo": "",
                    "fromAddress": "0x000002cba8dfb0a86a47a415592835e17fac080a",
                    "gasUsed": 208559,
                    "id": 0,
                    "methodDecoded": false,
                    "operation": "CALL",
                    "output": "",
                    "revert": false,
                    "revertMessage": "",
                    "selector": "0x178979ae",
                    "status": true,
                    "value": "0"
                },
                "nodeType": 0
            },
            "1": {
                "invocation": {
                    "address": "0x000000cce580fb2b76b2d1196c237db199d82505",
                    "callData": "0x0000000000000000000000000000000000000000000000000000000000000080000000000000000000000000ba100000625a3754423978a60c9317c58a424e3d000000000000000000000000eeeeeeeeeeeeeeeeeeeeeeeeeeeeeeeeeeeeeeee00000000000000000000000000000000000000000000008a7de3ce563b000000000000000000000000000000000000000000000000000000000000000000000100000000000000000000000059a19d8c652fa0284f44113d0ff9aba70bd46fb4000000000000000000000000ba100000625a3754423978a60c9317c58a424e3d000000000000000000000000c02aaa39b223fe8d0a0e5c4f27ead9083c756cc2000000000000000000000000000000000000000000000002329332524fd4800000000000000000000000000000000000000000000000008a7de3ce563b000000ffffffffffffffffffffffffffffffffffffffffffffffffffffffffffffffff",
                    "decodedMethod": {
                        "callParams": [
                            {
                                "name": "swaps",
                                "type": "(address,address,address,uint256,uint256,uint256)[]",
                                "value": [
                                    [
                                        {
                                            "name": "pool",
                                            "type": "address",
                                            "value": "0x59a19d8c652fa0284f44113d0ff9aba70bd46fb4"
                                        },
                                        {
                                            "name": "tokenIn",
                                            "type": "address",
                                            "value": "0xba100000625a3754423978a60c9317c58a424e3d"
                                        },
                                        {
                                            "name": "tokenOut",
                                            "type": "address",
                                            "value": "0xc02aaa39b223fe8d0a0e5c4f27ead9083c756cc2"
                                        },
                                        {
                                            "name": "swapAmount",
                                            "type": "uint256",
                                            "value": "40,537,800,000,000,000,000"
                                        },
                                        {
                                            "name": "limitReturnAmount",
                                            "type": "uint256",
                                            "value": "2,554,722,003,116,124,798,976"
                                        },
                                        {
                                            "name": "maxPrice",
                                            "type": "uint256",
                                            "value": "115,792,089,237,316,195,423,570,985,008,687,907,853,269,984,665,640,564,039,457,584,007,913,129,639,935"
                                        }
                                    ]
                                ]
                            },
                            {
                                "name": "tokenIn",
                                "type": "address",
                                "value": "0xba100000625a3754423978a60c9317c58a424e3d"
                            },
                            {
                                "name": "tokenOut",
                                "type": "address",
                                "value": "0xeeeeeeeeeeeeeeeeeeeeeeeeeeeeeeeeeeeeeeee"
                            },
                            {
                                "name": "maxTotalAmountIn",
                                "type": "uint256",
                                "value": "2,554,722,003,116,124,798,976"
                            }
                        ],
                        "constructorArguments": "",
                        "name": "batchSwapExactOut",
                        "returnParams": [
                            {
                                "name": "totalAmountIn",
                                "type": "uint256",
                                "value": "2,539,706,294,854,980,728,985"
                            }
                        ],
                        "signature": "batchSwapExactOut((address,address,address,uint256,uint256,uint256)[],address,address,uint256)"
                    },
                    "errorInfo": "",
                    "fromAddress": "0x00000063f648c943346d2a239f0969bad32ff184",
                    "gasUsed": 218952,
                    "id": 1,
                    "methodDecoded": true,
                    "operation": "CALL",
                    "output": "0x000000000000000000000000000000000000000000000089ad814b3ade9bf899",
                    "revert": false,
                    "revertMessage": "",
                    "selector": "0x2db58134",
                    "status": true,
                    "value": "0"
                },
                "nodeType": 0
            },
            "10": {
                "invocation": {
                    "address": "0x59a19d8c652fa0284f44113d0ff9aba70bd46fb4",
                    "callData": "0x000000000000000000000000ba100000625a3754423978a60c9317c58a424e3d00000000000000000000000000000000000000000000008a7de3ce563b000000000000000000000000000000c02aaa39b223fe8d0a0e5c4f27ead9083c756cc2000000000000000000000000000000000000000000000002329332524fd48000ffffffffffffffffffffffffffffffffffffffffffffffffffffffffffffffff",
                    "decodedMethod": {
                        "callParams": [
                            {
                                "name": "tokenIn",
                                "type": "address",
                                "value": "0xba100000625a3754423978a60c9317c58a424e3d"
                            },
                            {
                                "name": "maxAmountIn",
                                "type": "uint256",
                                "value": "2,554,722,003,116,124,798,976"
                            },
                            {
                                "name": "tokenOut",
                                "type": "address",
                                "value": "0xc02aaa39b223fe8d0a0e5c4f27ead9083c756cc2"
                            },
                            {
                                "name": "tokenAmountOut",
                                "type": "uint256",
                                "value": "40,537,800,000,000,000,000"
                            },
                            {
                                "name": "maxPrice",
                                "type": "uint256",
                                "value": "115,792,089,237,316,195,423,570,985,008,687,907,853,269,984,665,640,564,039,457,584,007,913,129,639,935"
                            }
                        ],
                        "constructorArguments": "",
                        "name": "swapExactAmountOut",
                        "returnParams": [
                            {
                                "name": "tokenAmountIn",
                                "type": "uint256",
                                "value": "2,539,706,294,854,980,728,985"
                            },
                            {
                                "name": "spotPriceAfter",
                                "type": "uint256",
                                "value": "62,764,008,123,421,521,185"
                            }
                        ],
                        "signature": "swapExactAmountOut(address,uint256,address,uint256,uint256)"
                    },
                    "errorInfo": "",
                    "fromAddress": "0x000000cce580fb2b76b2d1196c237db199d82505",
                    "gasUsed": 106175,
                    "id": 10,
                    "methodDecoded": true,
                    "operation": "CALL",
                    "output": "0x000000000000000000000000000000000000000000000089ad814b3ade9bf89900000000000000000000000000000000000000000000000367068cd9ac457521",
                    "revert": false,
                    "revertMessage": "",
                    "selector": "0x7c5e9ea4",
                    "status": true,
                    "value": "0"
                },
                "nodeType": 0
            },
            "11": {
                "event": {
                    "contract": "0x59a19d8c652fa0284f44113d0ff9aba70bd46fb4",
                    "decodedLog": null,
                    "id": 11,
                    "logData": "0x000000000000000000000000000000000000000000000000000000000000002000000000000000000000000000000000000000000000000000000000000000a47c5e9ea4000000000000000000000000ba100000625a3754423978a60c9317c58a424e3d00000000000000000000000000000000000000000000008a7de3ce563b000000000000000000000000000000c02aaa39b223fe8d0a0e5c4f27ead9083c756cc2000000000000000000000000000000000000000000000002329332524fd48000ffffffffffffffffffffffffffffffffffffffffffffffffffffffffffffffff00000000000000000000000000000000000000000000000000000000",
                    "logDecoded": false,
                    "operation": "EVENT",
                    "revert": false,
                    "status": true,
                    "topics": [
                        "0x7c5e9ea400000000000000000000000000000000000000000000000000000000",
                        "0x000000000000000000000000000000cce580fb2b76b2d1196c237db199d82505"
                    ]
                },
                "nodeType": 1
            },
            "12": {
                "event": {
                    "contract": "0x59a19d8c652fa0284f44113d0ff9aba70bd46fb4",
                    "decodedLog": {
                        "name": "LOG_SWAP",
                        "params": [
                            {
                                "name": "caller",
                                "type": "address",
                                "value": "0x000000cce580fb2b76b2d1196c237db199d82505"
                            },
                            {
                                "name": "tokenIn",
                                "type": "address",
                                "value": "0xba100000625a3754423978a60c9317c58a424e3d"
                            },
                            {
                                "name": "tokenOut",
                                "type": "address",
                                "value": "0xc02aaa39b223fe8d0a0e5c4f27ead9083c756cc2"
                            },
                            {
                                "name": "tokenAmountIn",
                                "type": "uint256",
                                "value": "2,539,706,294,854,980,728,985"
                            },
                            {
                                "name": "tokenAmountOut",
                                "type": "uint256",
                                "value": "40,537,800,000,000,000,000"
                            }
                        ],
                        "signature": "LOG_SWAP(address,address,address,uint256,uint256)"
                    },
                    "id": 12,
                    "logData": "0x000000000000000000000000000000000000000000000089ad814b3ade9bf899000000000000000000000000000000000000000000000002329332524fd48000",
                    "logDecoded": true,
                    "operation": "EVENT",
                    "revert": false,
                    "status": true,
                    "topics": [
                        "0x908fb5ee8f16c6bc9bc3690973819f32a4d4b10188134543c88706e0e1d43378",
                        "0x000000000000000000000000000000cce580fb2b76b2d1196c237db199d82505",
                        "0x000000000000000000000000ba100000625a3754423978a60c9317c58a424e3d",
                        "0x000000000000000000000000c02aaa39b223fe8d0a0e5c4f27ead9083c756cc2"
                    ]
                },
                "nodeType": 1
            },
            "13": {
                "invocation": {
                    "address": "0xba100000625a3754423978a60c9317c58a424e3d",
                    "callData": "0x000000000000000000000000000000cce580fb2b76b2d1196c237db199d8250500000000000000000000000059a19d8c652fa0284f44113d0ff9aba70bd46fb4000000000000000000000000000000000000000000000089ad814b3ade9bf899",
                    "decodedMethod": {
                        "callParams": [
                            {
                                "name": "sender",
                                "type": "address",
                                "value": "0x000000cce580fb2b76b2d1196c237db199d82505"
                            },
                            {
                                "name": "recipient",
                                "type": "address",
                                "value": "0x59a19d8c652fa0284f44113d0ff9aba70bd46fb4"
                            },
                            {
                                "decimalAvailable": true,
                                "name": "amount",
                                "type": "uint256",
                                "value": "2,539,706,294,854,980,728,985"
                            }
                        ],
                        "constructorArguments": "",
                        "name": "transferFrom",
                        "returnParams": [
                            {
                                "name": "",
                                "type": "bool",
                                "value": true
                            }
                        ],
                        "signature": "transferFrom(address,address,uint256)"
                    },
                    "errorInfo": "",
                    "fromAddress": "0x59a19d8c652fa0284f44113d0ff9aba70bd46fb4",
                    "gasUsed": 20509,
                    "id": 13,
                    "methodDecoded": true,
                    "operation": "CALL",
                    "output": "0x0000000000000000000000000000000000000000000000000000000000000001",
                    "revert": false,
                    "revertMessage": "",
                    "selector": "0x23b872dd",
                    "status": true,
                    "value": "0"
                },
                "nodeType": 0
            },
            "14": {
                "event": {
                    "contract": "0xba100000625a3754423978a60c9317c58a424e3d",
                    "decodedLog": {
                        "name": "Transfer",
                        "params": [
                            {
                                "name": "from",
                                "type": "address",
                                "value": "0x000000cce580fb2b76b2d1196c237db199d82505"
                            },
                            {
                                "name": "to",
                                "type": "address",
                                "value": "0x59a19d8c652fa0284f44113d0ff9aba70bd46fb4"
                            },
                            {
                                "decimalAvailable": true,
                                "name": "value",
                                "type": "uint256",
                                "value": "2,539,706,294,854,980,728,985"
                            }
                        ],
                        "signature": "Transfer(address,address,uint256)"
                    },
                    "id": 14,
                    "logData": "0x000000000000000000000000000000000000000000000089ad814b3ade9bf899",
                    "logDecoded": true,
                    "operation": "EVENT",
                    "revert": false,
                    "status": true,
                    "topics": [
                        "0xddf252ad1be2c89b69c2b068fc378daa952ba7f163c4a11628f55a4df523b3ef",
                        "0x000000000000000000000000000000cce580fb2b76b2d1196c237db199d82505",
                        "0x00000000000000000000000059a19d8c652fa0284f44113d0ff9aba70bd46fb4"
                    ]
                },
                "nodeType": 1
            },
            "15": {
                "event": {
                    "contract": "0xba100000625a3754423978a60c9317c58a424e3d",
                    "decodedLog": {
                        "name": "Approval",
                        "params": [
                            {
                                "name": "owner",
                                "type": "address",
                                "value": "0x000000cce580fb2b76b2d1196c237db199d82505"
                            },
                            {
                                "name": "spender",
                                "type": "address",
                                "value": "0x59a19d8c652fa0284f44113d0ff9aba70bd46fb4"
                            },
                            {
                                "decimalAvailable": true,
                                "name": "value",
                                "type": "uint256",
                                "value": "15,015,708,261,144,069,991"
                            }
                        ],
                        "signature": "Approval(address,address,uint256)"
                    },
                    "id": 15,
                    "logData": "0x000000000000000000000000000000000000000000000000d062831b5c640767",
                    "logDecoded": true,
                    "operation": "EVENT",
                    "revert": false,
                    "status": true,
                    "topics": [
                        "0x8c5be1e5ebec7d5bd14f71427d1e84f3dd0314c0f7b2291e5b200ac8c7c3b925",
                        "0x000000000000000000000000000000cce580fb2b76b2d1196c237db199d82505",
                        "0x00000000000000000000000059a19d8c652fa0284f44113d0ff9aba70bd46fb4"
                    ]
                },
                "nodeType": 1
            },
            "16": {
                "invocation": {
                    "address": "0xc02aaa39b223fe8d0a0e5c4f27ead9083c756cc2",
                    "callData": "0x000000000000000000000000000000cce580fb2b76b2d1196c237db199d82505000000000000000000000000000000000000000000000002329332524fd48000",
                    "decodedMethod": {
                        "callParams": [
                            {
                                "name": "dst",
                                "type": "address",
                                "value": "0x000000cce580fb2b76b2d1196c237db199d82505"
                            },
                            {
                                "decimalAvailable": true,
                                "name": "wad",
                                "type": "uint256",
                                "value": "40,537,800,000,000,000,000"
                            }
                        ],
                        "constructorArguments": "",
                        "name": "transfer",
                        "returnParams": [
                            {
                                "name": "",
                                "type": "bool",
                                "value": true
                            }
                        ],
                        "signature": "transfer(address,uint256)"
                    },
                    "errorInfo": "",
                    "fromAddress": "0x59a19d8c652fa0284f44113d0ff9aba70bd46fb4",
                    "gasUsed": 30162,
                    "id": 16,
                    "methodDecoded": true,
                    "operation": "CALL",
                    "output": "0x0000000000000000000000000000000000000000000000000000000000000001",
                    "revert": false,
                    "revertMessage": "",
                    "selector": "0xa9059cbb",
                    "status": true,
                    "value": "0"
                },
                "nodeType": 0
            },
            "17": {
                "event": {
                    "contract": "0xc02aaa39b223fe8d0a0e5c4f27ead9083c756cc2",
                    "decodedLog": {
                        "name": "Transfer",
                        "params": [
                            {
                                "name": "src",
                                "type": "address",
                                "value": "0x59a19d8c652fa0284f44113d0ff9aba70bd46fb4"
                            },
                            {
                                "name": "dst",
                                "type": "address",
                                "value": "0x000000cce580fb2b76b2d1196c237db199d82505"
                            },
                            {
                                "decimalAvailable": true,
                                "name": "wad",
                                "type": "uint256",
                                "value": "40,537,800,000,000,000,000"
                            }
                        ],
                        "signature": "Transfer(address,address,uint256)"
                    },
                    "id": 17,
                    "logData": "0x000000000000000000000000000000000000000000000002329332524fd48000",
                    "logDecoded": true,
                    "operation": "EVENT",
                    "revert": false,
                    "status": true,
                    "topics": [
                        "0xddf252ad1be2c89b69c2b068fc378daa952ba7f163c4a11628f55a4df523b3ef",
                        "0x00000000000000000000000059a19d8c652fa0284f44113d0ff9aba70bd46fb4",
                        "0x000000000000000000000000000000cce580fb2b76b2d1196c237db199d82505"
                    ]
                },
                "nodeType": 1
            },
            "18": {
                "invocation": {
                    "address": "0xc02aaa39b223fe8d0a0e5c4f27ead9083c756cc2",
                    "callData": "0x000000000000000000000000000000cce580fb2b76b2d1196c237db199d82505",
                    "decodedMethod": {
                        "callParams": [
                            {
                                "name": "",
                                "type": "address",
                                "value": "0x000000cce580fb2b76b2d1196c237db199d82505"
                            }
                        ],
                        "constructorArguments": "",
                        "name": "balanceOf",
                        "returnParams": [
                            {
                                "decimalAvailable": true,
                                "name": "",
                                "type": "uint256",
                                "value": "40,537,800,000,000,000,000"
                            }
                        ],
                        "signature": "balanceOf(address)"
                    },
                    "errorInfo": "",
                    "fromAddress": "0x000000cce580fb2b76b2d1196c237db199d82505",
                    "gasUsed": 1234,
                    "id": 18,
                    "methodDecoded": true,
                    "operation": "STATICCALL",
                    "output": "0x000000000000000000000000000000000000000000000002329332524fd48000",
                    "revert": false,
                    "revertMessage": "",
                    "selector": "0x70a08231",
                    "status": true,
                    "value": "0"
                },
                "nodeType": 0
            },
            "19": {
                "invocation": {
                    "address": "0xc02aaa39b223fe8d0a0e5c4f27ead9083c756cc2",
                    "callData": "0x000000000000000000000000000000000000000000000002329332524fd48000",
                    "decodedMethod": {
                        "callParams": [
                            {
                                "name": "wad",
                                "type": "uint256",
                                "value": "40,537,800,000,000,000,000"
                            }
                        ],
                        "constructorArguments": "",
                        "name": "withdraw",
                        "returnParams": [],
                        "signature": "withdraw(uint256)"
                    },
                    "errorInfo": "",
                    "fromAddress": "0x000000cce580fb2b76b2d1196c237db199d82505",
                    "gasUsed": 11880,
                    "id": 19,
                    "methodDecoded": true,
                    "operation": "CALL",
                    "output": "",
                    "revert": false,
                    "revertMessage": "",
                    "selector": "0x2e1a7d4d",
                    "status": true,
                    "value": "0"
                },
                "nodeType": 0
            },
            "2": {
                "invocation": {
                    "address": "0xba100000625a3754423978a60c9317c58a424e3d",
                    "callData": "0x00000000000000000000000000000063f648c943346d2a239f0969bad32ff184000000000000000000000000000000cce580fb2b76b2d1196c237db199d8250500000000000000000000000000000000000000000000008a7de3ce563b000000",
                    "decodedMethod": {
                        "callParams": [
                            {
                                "name": "sender",
                                "type": "address",
                                "value": "0x00000063f648c943346d2a239f0969bad32ff184"
                            },
                            {
                                "name": "recipient",
                                "type": "address",
                                "value": "0x000000cce580fb2b76b2d1196c237db199d82505"
                            },
                            {
                                "decimalAvailable": true,
                                "name": "amount",
                                "type": "uint256",
                                "value": "2,554,722,003,116,124,798,976"
                            }
                        ],
                        "constructorArguments": "",
                        "name": "transferFrom",
                        "returnParams": [
                            {
                                "name": "",
                                "type": "bool",
                                "value": true
                            }
                        ],
                        "signature": "transferFrom(address,address,uint256)"
                    },
                    "errorInfo": "",
                    "fromAddress": "0x000000cce580fb2b76b2d1196c237db199d82505",
                    "gasUsed": 43909,
                    "id": 2,
                    "methodDecoded": true,
                    "operation": "CALL",
                    "output": "0x0000000000000000000000000000000000000000000000000000000000000001",
                    "revert": false,
                    "revertMessage": "",
                    "selector": "0x23b872dd",
                    "status": true,
                    "value": "0"
                },
                "nodeType": 0
            },
            "20": {
                "invocation": {
                    "address": "0x000000cce580fb2b76b2d1196c237db199d82505",
                    "callData": "0x",
                    "decodedMethod": null,
                    "errorInfo": "",
                    "fromAddress": "0xc02aaa39b223fe8d0a0e5c4f27ead9083c756cc2",
                    "gasUsed": 40,
                    "id": 20,
                    "methodDecoded": false,
                    "operation": "CALL",
                    "output": "",
                    "revert": false,
                    "revertMessage": "",
                    "selector": "fallback",
                    "status": true,
                    "value": "40.5378"
                },
                "nodeType": 0
            },
            "21": {
                "event": {
                    "contract": "0xc02aaa39b223fe8d0a0e5c4f27ead9083c756cc2",
                    "decodedLog": {
                        "name": "Withdrawal",
                        "params": [
                            {
                                "name": "src",
                                "type": "address",
                                "value": "0x000000cce580fb2b76b2d1196c237db199d82505"
                            },
                            {
                                "name": "wad",
                                "type": "uint256",
                                "value": "40,537,800,000,000,000,000"
                            }
                        ],
                        "signature": "Withdrawal(address,uint256)"
                    },
                    "id": 21,
                    "logData": "0x000000000000000000000000000000000000000000000002329332524fd48000",
                    "logDecoded": true,
                    "operation": "EVENT",
                    "revert": false,
                    "status": true,
                    "topics": [
                        "0x7fcf532c15f0a6db0bd6d0e038bea71d30d808c7d98cb3bf7268a95bf5081b65",
                        "0x000000000000000000000000000000cce580fb2b76b2d1196c237db199d82505"
                    ]
                },
                "nodeType": 1
            },
            "22": {
                "invocation": {
                    "address": "0x00000063f648c943346d2a239f0969bad32ff184",
                    "callData": "0x",
                    "decodedMethod": null,
                    "errorInfo": "",
                    "fromAddress": "0x000000cce580fb2b76b2d1196c237db199d82505",
                    "gasUsed": 40,
                    "id": 22,
                    "methodDecoded": false,
                    "operation": "CALL",
                    "output": "",
                    "revert": false,
                    "revertMessage": "",
                    "selector": "fallback",
                    "status": true,
                    "value": "40.5378"
                },
                "nodeType": 0
            },
            "23": {
                "invocation": {
                    "address": "0xba100000625a3754423978a60c9317c58a424e3d",
                    "callData": "0x000000000000000000000000000000cce580fb2b76b2d1196c237db199d82505",
                    "decodedMethod": {
                        "callParams": [
                            {
                                "name": "account",
                                "type": "address",
                                "value": "0x000000cce580fb2b76b2d1196c237db199d82505"
                            }
                        ],
                        "constructorArguments": "",
                        "name": "balanceOf",
                        "returnParams": [
                            {
                                "decimalAvailable": true,
                                "name": "",
                                "type": "uint256",
                                "value": "15,015,708,261,144,069,991"
                            }
                        ],
                        "signature": "balanceOf(address)"
                    },
                    "errorInfo": "",
                    "fromAddress": "0x000000cce580fb2b76b2d1196c237db199d82505",
                    "gasUsed": 1242,
                    "id": 23,
                    "methodDecoded": true,
                    "operation": "STATICCALL",
                    "output": "0x000000000000000000000000000000000000000000000000d062831b5c640767",
                    "revert": false,
                    "revertMessage": "",
                    "selector": "0x70a08231",
                    "status": true,
                    "value": "0"
                },
                "nodeType": 0
            },
            "24": {
                "invocation": {
                    "address": "0xba100000625a3754423978a60c9317c58a424e3d",
                    "callData": "0x00000000000000000000000000000063f648c943346d2a239f0969bad32ff184000000000000000000000000000000000000000000000000d062831b5c640767",
                    "decodedMethod": {
                        "callParams": [
                            {
                                "name": "recipient",
                                "type": "address",
                                "value": "0x00000063f648c943346d2a239f0969bad32ff184"
                            },
                            {
                                "decimalAvailable": true,
                                "name": "amount",
                                "type": "uint256",
                                "value": "15,015,708,261,144,069,991"
                            }
                        ],
                        "constructorArguments": "",
                        "name": "transfer",
                        "returnParams": [
                            {
                                "name": "",
                                "type": "bool",
                                "value": true
                            }
                        ],
                        "signature": "transfer(address,uint256)"
                    },
                    "errorInfo": "",
                    "fromAddress": "0x000000cce580fb2b76b2d1196c237db199d82505",
                    "gasUsed": 12111,
                    "id": 24,
                    "methodDecoded": true,
                    "operation": "CALL",
                    "output": "0x0000000000000000000000000000000000000000000000000000000000000001",
                    "revert": false,
                    "revertMessage": "",
                    "selector": "0xa9059cbb",
                    "status": true,
                    "value": "0"
                },
                "nodeType": 0
            },
            "25": {
                "event": {
                    "contract": "0xba100000625a3754423978a60c9317c58a424e3d",
                    "decodedLog": {
                        "name": "Transfer",
                        "params": [
                            {
                                "name": "from",
                                "type": "address",
                                "value": "0x000000cce580fb2b76b2d1196c237db199d82505"
                            },
                            {
                                "name": "to",
                                "type": "address",
                                "value": "0x00000063f648c943346d2a239f0969bad32ff184"
                            },
                            {
                                "decimalAvailable": true,
                                "name": "value",
                                "type": "uint256",
                                "value": "15,015,708,261,144,069,991"
                            }
                        ],
                        "signature": "Transfer(address,address,uint256)"
                    },
                    "id": 25,
                    "logData": "0x000000000000000000000000000000000000000000000000d062831b5c640767",
                    "logDecoded": true,
                    "operation": "EVENT",
                    "revert": false,
                    "status": true,
                    "topics": [
                        "0xddf252ad1be2c89b69c2b068fc378daa952ba7f163c4a11628f55a4df523b3ef",
                        "0x000000000000000000000000000000cce580fb2b76b2d1196c237db199d82505",
                        "0x00000000000000000000000000000063f648c943346d2a239f0969bad32ff184"
                    ]
                },
                "nodeType": 1
            },
            "3": {
                "event": {
                    "contract": "0xba100000625a3754423978a60c9317c58a424e3d",
                    "decodedLog": {
                        "name": "Transfer",
                        "params": [
                            {
                                "name": "from",
                                "type": "address",
                                "value": "0x00000063f648c943346d2a239f0969bad32ff184"
                            },
                            {
                                "name": "to",
                                "type": "address",
                                "value": "0x000000cce580fb2b76b2d1196c237db199d82505"
                            },
                            {
                                "decimalAvailable": true,
                                "name": "value",
                                "type": "uint256",
                                "value": "2,554,722,003,116,124,798,976"
                            }
                        ],
                        "signature": "Transfer(address,address,uint256)"
                    },
                    "id": 3,
                    "logData": "0x00000000000000000000000000000000000000000000008a7de3ce563b000000",
                    "logDecoded": true,
                    "operation": "EVENT",
                    "revert": false,
                    "status": true,
                    "topics": [
                        "0xddf252ad1be2c89b69c2b068fc378daa952ba7f163c4a11628f55a4df523b3ef",
                        "0x00000000000000000000000000000063f648c943346d2a239f0969bad32ff184",
                        "0x000000000000000000000000000000cce580fb2b76b2d1196c237db199d82505"
                    ]
                },
                "nodeType": 1
            },
            "4": {
                "event": {
                    "contract": "0xba100000625a3754423978a60c9317c58a424e3d",
                    "decodedLog": {
                        "name": "Approval",
                        "params": [
                            {
                                "name": "owner",
                                "type": "address",
                                "value": "0x00000063f648c943346d2a239f0969bad32ff184"
                            },
                            {
                                "name": "spender",
                                "type": "address",
                                "value": "0x000000cce580fb2b76b2d1196c237db199d82505"
                            },
                            {
                                "decimalAvailable": true,
                                "name": "value",
                                "type": "uint256",
                                "value": "115,792,089,237,316,195,423,570,985,008,687,907,853,269,984,665,640,562,027,308,466,280,541,059,940,351"
                            }
                        ],
                        "signature": "Approval(address,address,uint256)"
                    },
                    "id": 4,
                    "logData": "0xfffffffffffffffffffffffffffffffffffffffffffe55e92d81a9e210bdffff",
                    "logDecoded": true,
                    "operation": "EVENT",
                    "revert": false,
                    "status": true,
                    "topics": [
                        "0x8c5be1e5ebec7d5bd14f71427d1e84f3dd0314c0f7b2291e5b200ac8c7c3b925",
                        "0x00000000000000000000000000000063f648c943346d2a239f0969bad32ff184",
                        "0x000000000000000000000000000000cce580fb2b76b2d1196c237db199d82505"
                    ]
                },
                "nodeType": 1
            },
            "5": {
                "invocation": {
                    "address": "0xba100000625a3754423978a60c9317c58a424e3d",
                    "callData": "0x000000000000000000000000000000cce580fb2b76b2d1196c237db199d8250500000000000000000000000059a19d8c652fa0284f44113d0ff9aba70bd46fb4",
                    "decodedMethod": {
                        "callParams": [
                            {
                                "name": "owner",
                                "type": "address",
                                "value": "0x000000cce580fb2b76b2d1196c237db199d82505"
                            },
                            {
                                "name": "spender",
                                "type": "address",
                                "value": "0x59a19d8c652fa0284f44113d0ff9aba70bd46fb4"
                            }
                        ],
                        "constructorArguments": "",
                        "name": "allowance",
                        "returnParams": [
                            {
                                "decimalAvailable": true,
                                "name": "",
                                "type": "uint256",
                                "value": "5,619,787,596,856,004,329"
                            }
                        ],
                        "signature": "allowance(address,address)"
                    },
                    "errorInfo": "",
                    "fromAddress": "0x000000cce580fb2b76b2d1196c237db199d82505",
                    "gasUsed": 1431,
                    "id": 5,
                    "methodDecoded": true,
                    "operation": "STATICCALL",
                    "output": "0x0000000000000000000000000000000000000000000000004dfd7f0b5fbf8ee9",
                    "revert": false,
                    "revertMessage": "",
                    "selector": "0xdd62ed3e",
                    "status": true,
                    "value": "0"
                },
                "nodeType": 0
            },
            "6": {
                "invocation": {
                    "address": "0xba100000625a3754423978a60c9317c58a424e3d",
                    "callData": "0x00000000000000000000000059a19d8c652fa0284f44113d0ff9aba70bd46fb40000000000000000000000000000000000000000000000000000000000000000",
                    "decodedMethod": {
                        "callParams": [
                            {
                                "name": "spender",
                                "type": "address",
                                "value": "0x59a19d8c652fa0284f44113d0ff9aba70bd46fb4"
                            },
                            {
                                "decimalAvailable": true,
                                "name": "amount",
                                "type": "uint256",
                                "value": "0"
                            }
                        ],
                        "constructorArguments": "",
                        "name": "approve",
                        "returnParams": [
                            {
                                "name": "",
                                "type": "bool",
                                "value": true
                            }
                        ],
                        "signature": "approve(address,uint256)"
                    },
                    "errorInfo": "",
                    "fromAddress": "0x000000cce580fb2b76b2d1196c237db199d82505",
                    "gasUsed": 7588,
                    "id": 6,
                    "methodDecoded": true,
                    "operation": "CALL",
                    "output": "0x0000000000000000000000000000000000000000000000000000000000000001",
                    "revert": false,
                    "revertMessage": "",
                    "selector": "0x095ea7b3",
                    "status": true,
                    "value": "0"
                },
                "nodeType": 0
            },
            "7": {
                "event": {
                    "contract": "0xba100000625a3754423978a60c9317c58a424e3d",
                    "decodedLog": {
                        "name": "Approval",
                        "params": [
                            {
                                "name": "owner",
                                "type": "address",
                                "value": "0x000000cce580fb2b76b2d1196c237db199d82505"
                            },
                            {
                                "name": "spender",
                                "type": "address",
                                "value": "0x59a19d8c652fa0284f44113d0ff9aba70bd46fb4"
                            },
                            {
                                "decimalAvailable": true,
                                "name": "value",
                                "type": "uint256",
                                "value": "0"
                            }
                        ],
                        "signature": "Approval(address,address,uint256)"
                    },
                    "id": 7,
                    "logData": "0x0000000000000000000000000000000000000000000000000000000000000000",
                    "logDecoded": true,
                    "operation": "EVENT",
                    "revert": false,
                    "status": true,
                    "topics": [
                        "0x8c5be1e5ebec7d5bd14f71427d1e84f3dd0314c0f7b2291e5b200ac8c7c3b925",
                        "0x000000000000000000000000000000cce580fb2b76b2d1196c237db199d82505",
                        "0x00000000000000000000000059a19d8c652fa0284f44113d0ff9aba70bd46fb4"
                    ]
                },
                "nodeType": 1
            },
            "8": {
                "invocation": {
                    "address": "0xba100000625a3754423978a60c9317c58a424e3d",
                    "callData": "0x00000000000000000000000059a19d8c652fa0284f44113d0ff9aba70bd46fb400000000000000000000000000000000000000000000008a7de3ce563b000000",
                    "decodedMethod": {
                        "callParams": [
                            {
                                "name": "spender",
                                "type": "address",
                                "value": "0x59a19d8c652fa0284f44113d0ff9aba70bd46fb4"
                            },
                            {
                                "decimalAvailable": true,
                                "name": "amount",
                                "type": "uint256",
                                "value": "2,554,722,003,116,124,798,976"
                            }
                        ],
                        "constructorArguments": "",
                        "name": "approve",
                        "returnParams": [
                            {
                                "name": "",
                                "type": "bool",
                                "value": true
                            }
                        ],
                        "signature": "approve(address,uint256)"
                    },
                    "errorInfo": "",
                    "fromAddress": "0x000000cce580fb2b76b2d1196c237db199d82505",
                    "gasUsed": 3388,
                    "id": 8,
                    "methodDecoded": true,
                    "operation": "CALL",
                    "output": "0x0000000000000000000000000000000000000000000000000000000000000001",
                    "revert": false,
                    "revertMessage": "",
                    "selector": "0x095ea7b3",
                    "status": true,
                    "value": "0"
                },
                "nodeType": 0
            },
            "9": {
                "event": {
                    "contract": "0xba100000625a3754423978a60c9317c58a424e3d",
                    "decodedLog": {
                        "name": "Approval",
                        "params": [
                            {
                                "name": "owner",
                                "type": "address",
                                "value": "0x000000cce580fb2b76b2d1196c237db199d82505"
                            },
                            {
                                "name": "spender",
                                "type": "address",
                                "value": "0x59a19d8c652fa0284f44113d0ff9aba70bd46fb4"
                            },
                            {
                                "decimalAvailable": true,
                                "name": "value",
                                "type": "uint256",
                                "value": "2,554,722,003,116,124,798,976"
                            }
                        ],
                        "signature": "Approval(address,address,uint256)"
                    },
                    "id": 9,
                    "logData": "0x00000000000000000000000000000000000000000000008a7de3ce563b000000",
                    "logDecoded": true,
                    "operation": "EVENT",
                    "revert": false,
                    "status": true,
                    "topics": [
                        "0x8c5be1e5ebec7d5bd14f71427d1e84f3dd0314c0f7b2291e5b200ac8c7c3b925",
                        "0x000000000000000000000000000000cce580fb2b76b2d1196c237db199d82505",
                        "0x00000000000000000000000059a19d8c652fa0284f44113d0ff9aba70bd46fb4"
                    ]
                },
                "nodeType": 1
            }
        },
        "gasFlame": [
            {
                "children": [
                    {
                        "children": [
                            {
                                "children": [],
                                "depth": 0,
                                "name": "Initial Gas",
                                "value": 25200
                            },
                            {
                                "children": [
                                    {
                                        "children": [
                                            {
                                                "children": [],
                                                "depth": 2,
                                                "name": "transferFrom",
                                                "value": 43909
                                            },
                                            {
                                                "children": [],
                                                "depth": 2,
                                                "name": "allowance",
                                                "value": 1431
                                            },
                                            {
                                                "children": [],
                                                "depth": 2,
                                                "name": "approve",
                                                "value": 7588
                                            },
                                            {
                                                "children": [],
                                                "depth": 2,
                                                "name": "approve",
                                                "value": 3388
                                            },
                                            {
                                                "children": [
                                                    {
                                                        "children": [],
                                                        "depth": 3,
                                                        "name": "transferFrom",
                                                        "value": 20509
                                                    },
                                                    {
                                                        "children": [],
                                                        "depth": 3,
                                                        "name": "transfer",
                                                        "value": 30162
                                                    }
                                                ],
                                                "depth": 2,
                                                "name": "swapExactAmountOut",
                                                "value": 106175
                                            },
                                            {
                                                "children": [],
                                                "depth": 2,
                                                "name": "balanceOf",
                                                "value": 1234
                                            },
                                            {
                                                "children": [
                                                    {
                                                        "children": [],
                                                        "depth": 3,
                                                        "name": "fallback",
                                                        "value": 40
                                                    }
                                                ],
                                                "depth": 2,
                                                "name": "withdraw",
                                                "value": 11880
                                            },
                                            {
                                                "children": [],
                                                "depth": 2,
                                                "name": "fallback",
                                                "value": 40
                                            },
                                            {
                                                "children": [],
                                                "depth": 2,
                                                "name": "balanceOf",
                                                "value": 1242
                                            },
                                            {
                                                "children": [],
                                                "depth": 2,
                                                "name": "transfer",
                                                "value": 12111
                                            }
                                        ],
                                        "depth": 1,
                                        "name": "batchSwapExactOut",
                                        "value": 218952
                                    }
                                ],
                                "depth": 0,
                                "name": "Executed Gas",
                                "value": 230159
                            }
                        ],
                        "depth": -1,
                        "name": "Actual Gas Used",
                        "value": 208559
                    },
                    {
                        "children": [],
                        "depth": -1,
                        "name": "Refunded Gas",
                        "value": 46800
                    }
                ],
                "depth": -2,
                "name": "Total Gas",
                "value": 255359
            }
        ],
        "isConfirmed": true,
        "mainTrace": [
            {
                "children": [
                    {
                        "children": [
                            {
                                "children": [
                                    {
                                        "children": [
                                            {
                                                "children": [],
                                                "depth": 3,
                                                "id": 3,
                                                "order": 3
                                            },
                                            {
                                                "children": [],
                                                "depth": 3,
                                                "id": 4,
                                                "order": 4
                                            }
                                        ],
                                        "depth": 2,
                                        "id": 2,
                                        "order": 2
                                    },
                                    {
                                        "children": [],
                                        "depth": 2,
                                        "id": 5,
                                        "order": 5
                                    },
                                    {
                                        "children": [
                                            {
                                                "children": [],
                                                "depth": 3,
                                                "id": 7,
                                                "order": 7
                                            }
                                        ],
                                        "depth": 2,
                                        "id": 6,
                                        "order": 6
                                    },
                                    {
                                        "children": [
                                            {
                                                "children": [],
                                                "depth": 3,
                                                "id": 9,
                                                "order": 9
                                            }
                                        ],
                                        "depth": 2,
                                        "id": 8,
                                        "order": 8
                                    },
                                    {
                                        "children": [
                                            {
                                                "children": [],
                                                "depth": 3,
                                                "id": 11,
                                                "order": 11
                                            },
                                            {
                                                "children": [],
                                                "depth": 3,
                                                "id": 12,
                                                "order": 12
                                            },
                                            {
                                                "children": [
                                                    {
                                                        "children": [],
                                                        "depth": 4,
                                                        "id": 14,
                                                        "order": 14
                                                    },
                                                    {
                                                        "children": [],
                                                        "depth": 4,
                                                        "id": 15,
                                                        "order": 15
                                                    }
                                                ],
                                                "depth": 3,
                                                "id": 13,
                                                "order": 13
                                            },
                                            {
                                                "children": [
                                                    {
                                                        "children": [],
                                                        "depth": 4,
                                                        "id": 17,
                                                        "order": 17
                                                    }
                                                ],
                                                "depth": 3,
                                                "id": 16,
                                                "order": 16
                                            }
                                        ],
                                        "depth": 2,
                                        "id": 10,
                                        "order": 10
                                    },
                                    {
                                        "children": [],
                                        "depth": 2,
                                        "id": 18,
                                        "order": 18
                                    },
                                    {
                                        "children": [
                                            {
                                                "children": [],
                                                "depth": 3,
                                                "id": 20,
                                                "order": 20
                                            },
                                            {
                                                "children": [],
                                                "depth": 3,
                                                "id": 21,
                                                "order": 21
                                            }
                                        ],
                                        "depth": 2,
                                        "id": 19,
                                        "order": 19
                                    },
                                    {
                                        "children": [],
                                        "depth": 2,
                                        "id": 22,
                                        "order": 22
                                    },
                                    {
                                        "children": [],
                                        "depth": 2,
                                        "id": 23,
                                        "order": 23
                                    },
                                    {
                                        "children": [
                                            {
                                                "children": [],
                                                "depth": 3,
                                                "id": 25,
                                                "order": 25
                                            }
                                        ],
                                        "depth": 2,
                                        "id": 24,
                                        "order": 24
                                    }
                                ],
                                "depth": 1,
                                "id": 1,
                                "order": 1
                            }
                        ],
                        "depth": 0,
                        "id": 0,
                        "order": 0
                    }
                ],
                "depth": -1,
                "id": -1,
                "order": -1
            }
        ],
        "mainTraceNodeCount": 26,
        "parentIdMap": {
            "0": -1,
            "1": 0,
            "10": 1,
            "11": 10,
            "12": 10,
            "13": 10,
            "14": 13,
            "15": 13,
            "16": 10,
            "17": 16,
            "18": 1,
            "19": 1,
            "2": 1,
            "20": 19,
            "21": 19,
            "22": 1,
            "23": 1,
            "24": 1,
            "25": 24,
            "3": 2,
            "4": 2,
            "5": 1,
            "6": 1,
            "7": 6,
            "8": 1,
            "9": 8
        },
        "tidyTrace": [
            {
                "children": [
                    {
                        "children": [
                            {
                                "children": [
                                    {
                                        "children": [
                                            {
                                                "children": [],
                                                "depth": 3,
                                                "id": 3,
                                                "order": 3
                                            },
                                            {
                                                "children": [],
                                                "depth": 3,
                                                "id": 4,
                                                "order": 4
                                            }
                                        ],
                                        "depth": 2,
                                        "id": 2,
                                        "order": 2
                                    },
                                    {
                                        "children": [
                                            {
                                                "children": [],
                                                "depth": 3,
                                                "id": 7,
                                                "order": 7
                                            }
                                        ],
                                        "depth": 2,
                                        "id": 6,
                                        "order": 6
                                    },
                                    {
                                        "children": [
                                            {
                                                "children": [],
                                                "depth": 3,
                                                "id": 9,
                                                "order": 9
                                            }
                                        ],
                                        "depth": 2,
                                        "id": 8,
                                        "order": 8
                                    },
                                    {
                                        "children": [
                                            {
                                                "children": [],
                                                "depth": 3,
                                                "id": 11,
                                                "order": 11
                                            },
                                            {
                                                "children": [],
                                                "depth": 3,
                                                "id": 12,
                                                "order": 12
                                            },
                                            {
                                                "children": [
                                                    {
                                                        "children": [],
                                                        "depth": 4,
                                                        "id": 14,
                                                        "order": 14
                                                    },
                                                    {
                                                        "children": [],
                                                        "depth": 4,
                                                        "id": 15,
                                                        "order": 15
                                                    }
                                                ],
                                                "depth": 3,
                                                "id": 13,
                                                "order": 13
                                            },
                                            {
                                                "children": [
                                                    {
                                                        "children": [],
                                                        "depth": 4,
                                                        "id": 17,
                                                        "order": 17
                                                    }
                                                ],
                                                "depth": 3,
                                                "id": 16,
                                                "order": 16
                                            }
                                        ],
                                        "depth": 2,
                                        "id": 10,
                                        "order": 10
                                    },
                                    {
                                        "children": [
                                            {
                                                "children": [],
                                                "depth": 3,
                                                "id": 20,
                                                "order": 20
                                            },
                                            {
                                                "children": [],
                                                "depth": 3,
                                                "id": 21,
                                                "order": 21
                                            }
                                        ],
                                        "depth": 2,
                                        "id": 19,
                                        "order": 19
                                    },
                                    {
                                        "children": [],
                                        "depth": 2,
                                        "id": 22,
                                        "order": 22
                                    },
                                    {
                                        "children": [
                                            {
                                                "children": [],
                                                "depth": 3,
                                                "id": 25,
                                                "order": 25
                                            }
                                        ],
                                        "depth": 2,
                                        "id": 24,
                                        "order": 24
                                    }
                                ],
                                "depth": 1,
                                "id": 1,
                                "order": 1
                            }
                        ],
                        "depth": 0,
                        "id": 0,
                        "order": 0
                    }
                ],
                "depth": -1,
                "id": -1,
                "order": -1
            }
        ],
        "tidyTraceNodeCount": 23
    },
    "state_change": {
        "stateChanges": [
            {
                "address": "0x59a19d8c652fa0284f44113d0ff9aba70bd46fb4",
                "erc": "ERC-20",
                "slots": [
                    {
                        "current": "0x0000000000000000000000000000000000000000000002f516ad88c5fb745046",
                        "key": "0xd0bcf4df132c65dad73803c5e5e1c826f151a3342680034a8a4c8e5f8eb0c13f",
                        "prev": "0x0000000000000000000000000000000000000000000002f74940bb184b48d046"
                    },
                    {
                        "current": "0x00000000000000000000000000000000000000000002e55a8c8c6d8e6bd97033",
                        "key": "0x76cbd4b79bd948b542ff71e2bf8d3e0db2c03de79405f027a4cdf90e12745c80",
                        "prev": "0x00000000000000000000000000000000000000000002e4d0df0b22538d3d779a"
                    }
                ],
                "storageVariables": [
                    {
                        "name": "_records",
                        "type": "mapping(address => struct BPool.Record)",
                        "value": {
                            "pairs": [
                                {
                                    "key": "0xba100000625a3754423978a60c9317c58a424e3d",
                                    "value": {
                                        "fields": [
                                            {
                                                "name": "balance",
                                                "type": "uint256",
                                                "value": {
                                                    "current": "3500943898363161474592819",
                                                    "prev": "3498404192068306493863834",
                                                    "typeTag": 1
                                                }
                                            }
                                        ],
                                        "typeTag": 3
                                    }
                                },
                                {
                                    "key": "0xc02aaa39b223fe8d0a0e5c4f27ead9083c756cc2",
                                    "value": {
                                        "fields": [
                                            {
                                                "name": "balance",
                                                "type": "uint256",
                                                "value": {
                                                    "current": "13965819376421844570182",
                                                    "prev": "14006357176421844570182",
                                                    "typeTag": 1
                                                }
                                            }
                                        ],
                                        "typeTag": 3
                                    }
                                }
                            ],
                            "typeTag": 4
                        }
                    }
                ]
            },
            {
                "address": "0xba100000625a3754423978a60c9317c58a424e3d",
                "erc": "ERC-20",
                "slots": [
                    {
                        "current": "0x000000000000000000000000000000000000000000000000d062831b5c640767",
                        "key": "0x211499668d1c5b1e656c926e7d3c0128e7da21336d884e1e9a2fff161d4040c3",
                        "prev": "0x0000000000000000000000000000000000000000000000004dfd7f0b5fbf8ee9"
                    },
                    {
                        "current": "0x00000000000000000000000000000000000000000002e55a8c8c6d8e6bd97033",
                        "key": "0xeb7f46b8e768539afc2d6a256f47b12f69da6e88568f72d4cc2f9efeeab5e5a7",
                        "prev": "0x00000000000000000000000000000000000000000002e4d0df0b22538d3d779a"
                    },
                    {
                        "current": "0x000000000000000000000000000000000000000000000020bc623bf8d8f7484a",
                        "key": "0xc6132b2f2421d8de52e8ae602cbe6f042eba579ce05a7ec9a816f6491e011d2b",
                        "prev": "0x0000000000000000000000000000000000000000000000aa69e38733b79340e3"
                    },
                    {
                        "current": "0xfffffffffffffffffffffffffffffffffffffffffffe55e92d81a9e210bdffff",
                        "key": "0x63e42fba04cc02b95025fe8857cc1c7451d61eba4fa40c5d182138d52d9adee1",
                        "prev": "0xfffffffffffffffffffffffffffffffffffffffffffe5673ab6578384bbdffff"
                    }
                ],
                "storageVariables": [
                    {
                        "name": "_allowances",
                        "type": "mapping(address => mapping(address => uint256))",
                        "value": {
                            "pairs": [
                                {
                                    "key": "0x00000063f648c943346d2a239f0969bad32ff184",
                                    "value": {
                                        "pairs": [
                                            {
                                                "key": "0x000000cce580fb2b76b2d1196c237db199d82505",
                                                "value": {
                                                    "current": "115792089237316195423570985008687907853269984665640562027308466280541059940351",
                                                    "prev": "115792089237316195423570985008687907853269984665640562029863188283657184739327",
                                                    "typeTag": 1
                                                }
                                            }
                                        ],
                                        "typeTag": 4
                                    }
                                },
                                {
                                    "key": "0x000000cce580fb2b76b2d1196c237db199d82505",
                                    "value": {
                                        "pairs": [
                                            {
                                                "key": "0x59a19d8c652fa0284f44113d0ff9aba70bd46fb4",
                                                "value": {
                                                    "current": "15015708261144069991",
                                                    "prev": "5619787596856004329",
                                                    "typeTag": 1
                                                }
                                            }
                                        ],
                                        "typeTag": 4
                                    }
                                }
                            ],
                            "typeTag": 4
                        }
                    },
                    {
                        "name": "_balances",
                        "type": "mapping(address => uint256)",
                        "value": {
                            "pairs": [
                                {
                                    "key": "0x00000063f648c943346d2a239f0969bad32ff184",
                                    "value": {
                                        "current": "603870288525531760714",
                                        "prev": "3143576583380512489699",
                                        "typeTag": 1
                                    }
                                },
                                {
                                    "key": "0x59a19d8c652fa0284f44113d0ff9aba70bd46fb4",
                                    "value": {
                                        "current": "3500943898363161474592819",
                                        "prev": "3498404192068306493863834",
                                        "typeTag": 1
                                    }
                                }
                            ],
                            "typeTag": 4
                        }
                    }
                ]
            },
            {
                "address": "0xc02aaa39b223fe8d0a0e5c4f27ead9083c756cc2",
                "erc": "ERC-20",
                "slots": [
                    {
                        "current": "0x0000000000000000000000000000000000000000000002f516ad88c5fb745046",
                        "key": "0x788aacbfa372bd90bdeaf697207f83d57eef1752560f5196ab4ce420485d4651",
                        "prev": "0x0000000000000000000000000000000000000000000002f74940bb184b48d046"
                    }
                ],
                "storageVariables": [
                    {
                        "name": "balanceOf",
                        "type": "mapping(address => uint256)",
                        "value": {
                            "pairs": [
                                {
                                    "key": "0x59a19d8c652fa0284f44113d0ff9aba70bd46fb4",
                                    "value": {
                                        "current": "13965819376421844570182",
                                        "prev": "14006357176421844570182",
                                        "typeTag": 1
                                    }
                                }
                            ],
                            "typeTag": 4
                        }
                    }
                ]
            }
        ]
    }
}