{
    "balance_change": {
        "balanceChanges": [
            {
                "account": "0x64bc4b549ac5e89cafeb76ebbf2170d468c30f03",
                "assets": [
                    {
                        "address": "0xe1aee98495365fc179699c1bb3e761fa716bee62",
                        "amount": "40,000",
                        "iconUrl": "https://assets.blocksec.com/icon/5876d56079ebd27e91bbc596a4f0f7b60f805332578f96faf408a848b4965350.png",
                        "isERC1155": false,
                        "isERC721": false,
                        "sign": false,
                        "value": ""
                    }
                ]
            },
            {
                "account": "0xf137bb1ce95a504319ba2d3029efa8b05ab633ac",
                "assets": [
                    {
                        "address": "0xe1aee98495365fc179699c1bb3e761fa716bee62",
                        "amount": "40,000",
                        "iconUrl": "https://assets.blocksec.com/icon/5876d56079ebd27e91bbc596a4f0f7b60f805332578f96faf408a848b4965350.png",
                        "isERC1155": false,
                        "isERC721": false,
                        "sign": true,
                        "value": ""
                    }
                ]
            }
        ]
    },
    "profile": {
        "basic_info": {
            "baseFee": "",
            "blockNumber": 7452570,
            "callData": "0xa9059cbb000000000000000000000000f137bb1ce95a504319ba2d3029efa8b05ab633ac000000000000000000000000000000000000000000000878678326eac9000000",
            "debugEnable": true,
            "errorInfo": "",
            "eventCount": 1,
            "feeRecipient": "0xea674fdde714fd979de3edf0f56aa9716b898ec8",
            "formatValue": "0",
            "gasLimit": 53453,
            "gasPrice": "4",
            "gasUsed": 38453,
            "intTxnCount": 0,
            "internalRevert": false,
            "internalRevertMessage": "",
            "isContractCreation": false,
            "isFlashloan": false,
            "maxFee": "",
            "nonce": 17,
            "overwritedBlockNumber": -1,
            "priorityFee": "",
            "receiver": "0xe1aee98495365fc179699c1bb3e761fa716bee62",
            "revertMessage": "",
            "sender": "0x64bc4b549ac5e89cafeb76ebbf2170d468c30f03",
            "simulationEnable": true,
            "sourceTxnHash": "0x12cab62ef00148e09e18607956250bd0ba9507dcb2ea0d086fb17c50d034acc2",
            "status": true,
            "timestamp": "2019-03-27T19:42:47Z",
            "transactionFee": "0.000153812",
            "txnHash": "0x12cab62ef00148e09e18607956250bd0ba9507dcb2ea0d086fb17c50d034acc2",
            "txnIndex": 33,
            "type": 0,
            "value": "0"
        },
        "fund_flow": [
            {
                "amount": "40,000",
                "from": "0x64bc4b549ac5e89cafeb76ebbf2170d468c30f03",
                "id": 1,
                "isERC1155": false,
                "isERC721": false,
                "isReverted": false,
                "order": 1,
                "to": "0xf137bb1ce95a504319ba2d3029efa8b05ab633ac",
                "token": "0xe1aee98495365fc179699c1bb3e761fa716bee62"
            }
        ],
        "token_infos": [
            {
                "address": "0xc02aaa39b223fe8d0a0e5c4f27ead9083c756cc2",
                "decimals": 18
            },
            {
                "address": "0xe1aee98495365fc179699c1bb3e761fa716bee62",
                "decimals": 18
            },
            {
                "address": "0xeeeeeeeeeeeeeeeeeeeeeeeeeeeeeeeeeeeeeeee",
                "decimals": 18
            }
        ]
    },
    "address_label": {
        "labels": [
            {
                "address": "0x0000000000000000000000000000000000000003",
                "label": "Precompiled"
            },
            {
                "address": "0x0000000000000000000000000000000000000004",
                "label": "Precompiled"
            },
            {
                "address": "0xeeeeeeeeeeeeeeeeeeeeeeeeeeeeeeeeeeeeeeee",
                "label": "Ether"
            },
            {
                "address": "0xe1aee98495365fc179699c1bb3e761fa716bee62",
                "label": "Bezant: BZNT Token"
            },
            {
                "address": "0xf137bb1ce95a504319ba2d3029efa8b05ab633ac",
                "label": "HOTBIT"
            },
            {
                "address": "0x0000000000000000000000000000000000000001",
                "label": "Precompiled"
            },
            {
                "address": "0x0000000000000000000000000000000000000002",
                "label": "Precompiled"
            }
        ]
    },
    "trace": {
        "accountLabels": null,
        "dataMap": {
            "-1": {
                "invocation": {
                    "address": "0x64bc4b549ac5e89cafeb76ebbf2170d468c30f03",
                    "callData": "",
                    "decodedMethod": null,
                    "errorInfo": "",
                    "fromAddress": "",
                    "gasUsed": 0,
                    "id": -1,
                    "methodDecoded": false,
                    "operation": "",
                    "output": "",
                    "revert": false,
                    "revertMessage": "",
                    "selector": "",
                    "status": false,
                    "value": ""
                },
                "nodeType": 0
            },
            "0": {
                "invocation": {
                    "address": "0xe1aee98495365fc179699c1bb3e761fa716bee62",
                    "callData": "0x000000000000000000000000f137bb1ce95a504319ba2d3029efa8b05ab633ac000000000000000000000000000000000000000000000878678326eac9000000",
                    "decodedMethod": {
                        "callParams": [
                            {
                                "name": "_to",
                                "type": "address",
                                "value": "0xf137bb1ce95a504319ba2d3029efa8b05ab633ac"
                            },
                            {
                                "decimalAvailable": true,
                                "name": "_value",
                                "type": "uint256",
                                "value": "40,000,000,000,000,000,000,000"
                            }
                        ],
                        "constructorArguments": "",
                        "name": "transfer",
                        "returnParams": [],
                        "signature": "transfer(address,uint256)"
                    },
                    "errorInfo": "",
                    "fromAddress": "0x64bc4b549ac5e89cafeb76ebbf2170d468c30f03",
                    "gasUsed": 38453,
                    "id": 0,
                    "methodDecoded": true,
                    "operation": "CALL",
                    "output": "",
                    "revert": false,
                    "revertMessage": "",
                    "selector": "0xa9059cbb",
                    "status": true,
                    "value": "0"
                },
                "nodeType": 0
            },
            "1": {
                "event": {
                    "contract": "0xe1aee98495365fc179699c1bb3e761fa716bee62",
                    "decodedLog": {
                        "name": "Transfer",
                        "params": [
                            {
                                "name": "from",
                                "type": "address",
                                "value": "0x64bc4b549ac5e89cafeb76ebbf2170d468c30f03"
                            },
                            {
                                "name": "to",
                                "type": "address",
                                "value": "0xf137bb1ce95a504319ba2d3029efa8b05ab633ac"
                            },
                            {
                                "decimalAvailable": true,
                                "name": "value",
                                "type": "uint256",
                                "value": "40,000,000,000,000,000,000,000"
                            }
                        ],
                        "signature": "Transfer(address,address,uint256)"
                    },
                    "id": 1,
                    "logData": "0x000000000000000000000000000000000000000000000878678326eac9000000",
                    "logDecoded": true,
                    "operation": "EVENT",
                    "revert": false,
                    "status": true,
                    "topics": [
                        "0xddf252ad1be2c89b69c2b068fc378daa952ba7f163c4a11628f55a4df523b3ef",
                        "0x00000000000000000000000064bc4b549ac5e89cafeb76ebbf2170d468c30f03",
                        "0x000000000000000000000000f137bb1ce95a504319ba2d3029efa8b05ab633ac"
                    ]
                },
                "nodeType": 1
            }
        },
        "gasFlame": [
            {
                "children": [
                    {
                        "children": [
                            {
                                "children": [],
                                "depth": 0,
                                "name": "Initial Gas",
                                "value": 23256
                            },
                            {
                                "children": [],
                                "depth": 0,
                                "name": "Executed Gas",
                                "value": 30197
                            }
                        ],
                        "depth": -1,
                        "name": "Actual Gas Used",
                        "value": 38453
                    },
                    {
                        "children": [],
                        "depth": -1,
                        "name": "Refunded Gas",
                        "value": 15000
                    }
                ],
                "depth": -2,
                "name": "Total Gas",
                "value": 53453
            }
        ],
        "isConfirmed": true,
        "mainTrace": [
            {
                "children": [
                    {
                        "children": [
                            {
                                "children": [],
                                "depth": 1,
                                "id": 1,
                                "order": 1
                            }
                        ],
                        "depth": 0,
                        "id": 0,
                        "order": 0
                    }
                ],
                "depth": -1,
                "id": -1,
                "order": -1
            }
        ],
        "mainTraceNodeCount": 2,
        "parentIdMap": {
            "0": -1,
            "1": 0
        },
        "tidyTrace": [
            {
                "children": [
                    {
                        "children": [
                            {
                                "children": [],
                                "depth": 1,
                                "id": 1,
                                "order": 1
                            }
                        ],
                        "depth": 0,
                        "id": 0,
                        "order": 0
                    }
                ],
                "depth": -1,
                "id": -1,
                "order": -1
            }
        ],
        "tidyTraceNodeCount": 2
    },
    "state_change": {
        "stateChanges": [
            {
                "address": "0xe1aee98495365fc179699c1bb3e761fa716bee62",
                "erc": "",
                "slots": [
                    {
                        "current": "0x000000000000000000000000000000000000000000000878678326eac9000000",
                        "key": "0x6463badf0888aacb5a5ecdc59e8bac1c8c9f260041257d3cd80f34788d7dcc07",
                        "prev": "0x0000000000000000000000000000000000000000000000000000000000000000"
                    },
                    {
                        "current": "0x0000000000000000000000000000000000000000000000000000000000000000",
                        "key": "0xd313399ca5847761da005f162256e9028359ae21cb69d64f6efe9b51c69babea",
                        "prev": "0x000000000000000000000000000000000000000000000878678326eac9000000"
                    }
                ],
                "storageVariables": [
                    {
                        "name": "balanceOf",
                        "type": "mapping(address => uint256)",
                        "value": {
                            "pairs": [
                                {
                                    "key": "0x64bc4b549ac5e89cafeb76ebbf2170d468c30f03",
                                    "value": {
                                        "current": "0",
                                        "prev": "40000000000000000000000",
                                        "typeTag": 1
                                    }
                                },
                                {
                                    "key": "0xf137bb1ce95a504319ba2d3029efa8b05ab633ac",
                                    "value": {
                                        "current": "40000000000000000000000",
                                        "prev": "0",
                                        "typeTag": 1
                                    }
                                }
                            ],
                            "typeTag": 4
                        }
                    }
                ]
            }
        ]
    }
}