{
    "balance_change": {
        "balanceChanges": []
    },
    "profile": {
        "basic_info": {
            "baseFee": "",
            "blockNumber": 12215360,
            "callData": "0x4ab0d190c271a28eb927ba207c4abdf3861b6bf800c119372afc319b8a6b88afedace4d10000000000000000000000000000000000000000000000000a688906bd8b0000000000000000000000000000d1e850d6afb6c27a3d66a223f6566f0426a6e13b6a9705b4000000000000000000000000000000000000000000000000000000000000000000000000000000000000000000000000000000000000000060723e2600000000000000000000000000000000000000000000000000000006cc39cbf6",
            "debugEnable": true,
            "errorInfo": "execution reverted",
            "eventCount": 0,
            "feeRecipient": "0x5a0b54d5dc17e0aadc383d2db43b0a0d3e029c4c",
            "formatValue": "0",
            "gasLimit": 500000,
            "gasPrice": "109.2",
            "gasUsed": 24994,
            "intTxnCount": 0,
            "internalRevert": false,
            "internalRevertMessage": "",
            "isContractCreation": false,
            "isFlashloan": false,
            "maxFee": "",
            "nonce": 255616,
            "overwritedBlockNumber": -1,
            "priorityFee": "",
            "receiver": "0x79c6e11be1c1ed4d91fbe05d458195a2677f14a5",
            "revertMessage": "Must have a valid requestId",
            "sender": "0x6a9dec02a37f08a7420186c8d273221fd462f7e8",
            "simulationEnable": true,
            "sourceTxnHash": "0x1239c5be74ecd157f00db29493f86fd6bec36c246d794a7eab996107256bb0c2",
            "status": false,
            "timestamp": "2021-04-11T00:08:36Z",
            "transactionFee": "0.0027293448",
            "txnHash": "0x1239c5be74ecd157f00db29493f86fd6bec36c246d794a7eab996107256bb0c2",
            "txnIndex": 47,
            "type": 0,
            "value": "0"
        },
        "fund_flow": [],
        "token_infos": [
            {
                "address": "0xc02aaa39b223fe8d0a0e5c4f27ead9083c756cc2",
                "decimals": 18
            },
            {
                "address": "0xeeeeeeeeeeeeeeeeeeeeeeeeeeeeeeeeeeeeeeee",
                "decimals": 18
            }
        ]
    },
    "address_label": {
        "labels": [
            {
                "address": "0x0000000000000000000000000000000000000002",
                "label": "Precompiled"
            },
            {
                "address": "0x0000000000000000000000000000000000000003",
                "label": "Precompiled"
            },
            {
                "address": "0x0000000000000000000000000000000000000004",
                "label": "Precompiled"
            },
            {
                "address": "0xeeeeeeeeeeeeeeeeeeeeeeeeeeeeeeeeeeeeeeee",
                "label": "Ether"
            },
            {
                "address": "0x79c6e11be1c1ed4d91fbe05d458195a2677f14a5",
                "label": "Oracle"
            },
            {
                "address": "0x0000000000000000000000000000000000000001",
                "label": "Precompiled"
            }
        ]
    },
    "trace": {
        "accountLabels": null,
        "dataMap": {
            "-1": {
                "invocation": {
                    "address": "0x6a9dec02a37f08a7420186c8d273221fd462f7e8",
                    "callData": "",
                    "decodedMethod": null,
                    "errorInfo": "",
                    "fromAddress": "",
                    "gasUsed": 0,
                    "id": -1,
                    "methodDecoded": false,
                    "operation": "",
                    "output": "",
                    "revert": false,
                    "revertMessage": "",
                    "selector": "",
                    "status": false,
                    "value": ""
                },
                "nodeType": 0
            },
            "0": {
                "invocation": {
                    "address": "0x79c6e11be1c1ed4d91fbe05d458195a2677f14a5",
                    "callData": "0xc271a28eb927ba207c4abdf3861b6bf800c119372afc319b8a6b88afedace4d10000000000000000000000000000000000000000000000000a688906bd8b0000000000000000000000000000d1e850d6afb6c27a3d66a223f6566f0426a6e13b6a9705b4000000000000000000000000000000000000000000000000000000000000000000000000000000000000000000000000000000000000000060723e2600000000000000000000000000000000000000000000000000000006cc39cbf6",
                    "decodedMethod": {
                        "callParams": [
                            {
                                "name": "_requestId",
                                "type": "bytes32",
                                "value": "0xc271a28eb927ba207c4abdf3861b6bf800c119372afc319b8a6b88afedace4d1"
                            },
                            {
                                "name": "_payment",
                                "type": "uint256",
                                "value": "750,000,000,000,000,000"
                            },
                            {
                                "name": "_callbackAddress",
                                "type": "address",
                                "value": "0xd1e850d6afb6c27a3d66a223f6566f0426a6e13b"
                            },
                            {
                                "name": "_callbackFunctionId",
                                "type": "bytes4",
                                "value": "0x6a9705b4"
                            },
                            {
                                "name": "_expiration",
                                "type": "uint256",
                                "value": "1,618,099,750"
                            },
                            {
                                "name": "_data",
                                "type": "bytes32",
                                "value": "0x00000000000000000000000000000000000000000000000000000006cc39cbf6"
                            }
                        ],
                        "constructorArguments": "",
                        "name": "fulfillOracleRequest",
                        "returnParams": [],
                        "signature": "fulfillOracleRequest(bytes32,uint256,address,bytes4,uint256,bytes32)"
                    },
                    "errorInfo": "execution reverted",
                    "fromAddress": "0x6a9dec02a37f08a7420186c8d273221fd462f7e8",
                    "gasUsed": 24994,
                    "id": 0,
                    "methodDecoded": true,
                    "operation": "CALL",
                    "output": "0x08c379a00000000000000000000000000000000000000000000000000000000000000020000000000000000000000000000000000000000000000000000000000000001b4d757374206861766520612076616c6964207265717565737449640000000000",
                    "revert": true,
                    "revertMessage": "Must have a valid requestId",
                    "selector": "0x4ab0d190",
                    "status": false,
                    "value": "0"
                },
                "nodeType": 0
            }
        },
        "gasFlame": [
            {
                "children": [
                    {
                        "children": [
                            {
                                "children": [],
                                "depth": 0,
                                "name": "Initial Gas",
                                "value": 22672
                            },
                            {
                                "children": [],
                                "depth": 0,
                                "name": "Executed Gas",
                                "value": 2322
                            }
                        ],
                        "depth": -1,
                        "name": "Actual Gas Used",
                        "value": 24994
                    },
                    {
                        "children": [],
                        "depth": -1,
                        "name": "Refunded Gas",
                        "value": 0
                    }
                ],
                "depth": -2,
                "name": "Total Gas",
                "value": 24994
            }
        ],
        "isConfirmed": true,
        "mainTrace": [
            {
                "children": [
                    {
                        "children": [],
                        "depth": 0,
                        "id": 0,
                        "order": 0
                    }
                ],
                "depth": -1,
                "id": -1,
                "order": -1
            }
        ],
        "mainTraceNodeCount": 1,
        "parentIdMap": {
            "0": -1
        },
        "tidyTrace": [
            {
                "children": [
                    {
                        "children": [],
                        "depth": 0,
                        "id": 0,
                        "order": 0
                    }
                ],
                "depth": -1,
                "id": -1,
                "order": -1
            }
        ],
        "tidyTraceNodeCount": 1
    },
    "state_change": {
        "stateChanges": []
    }
}