{
    "balance_change": {
        "balanceChanges": [
            {
                "account": "0xef3375b491cff653eaf7c9955a5466f7ea06f37b",
                "assets": [
                    {
                        "address": "0x3432b6a60d23ca0dfca7761b7ab56459d9c964d0",
                        "amount": "2,007.6948",
                        "iconUrl": "https://assets.blocksec.com/icon/f6d1496c0db643a5472d31b1c538aedd635a56f27b51fc3564ed46409f000250.png",
                        "isERC1155": false,
                        "isERC721": false,
                        "sign": false,
                        "value": "13503.89151"
                    }
                ]
            },
            {
                "account": "0xa30d997a1d64cc31e5feea9f336df0a133c74b97",
                "assets": [
                    {
                        "address": "0x3432b6a60d23ca0dfca7761b7ab56459d9c964d0",
                        "amount": "2,007.6948",
                        "iconUrl": "https://assets.blocksec.com/icon/f6d1496c0db643a5472d31b1c538aedd635a56f27b51fc3564ed46409f000250.png",
                        "isERC1155": false,
                        "isERC721": false,
                        "sign": true,
                        "value": "13503.89151"
                    }
                ]
            }
        ]
    },
    "profile": {
        "basic_info": {
            "baseFee": "34.847474485",
            "blockNumber": 15174654,
            "callData": "0xa9059cbb000000000000000000000000a30d997a1d64cc31e5feea9f336df0a133c74b9700000000000000000000000000000000000000000000006cd65cc76086ed0000",
            "debugEnable": true,
            "errorInfo": "",
            "eventCount": 3,
            "feeRecipient": "0x829bd824b016326a401d083b33d092293333a830",
            "formatValue": "0",
            "gasLimit": 200000,
            "gasPrice": "48.372638262",
            "gasUsed": 119109,
            "intTxnCount": 0,
            "internalRevert": false,
            "internalRevertMessage": "",
            "isContractCreation": false,
            "isFlashloan": false,
            "maxFee": "",
            "nonce": 63734,
            "overwritedBlockNumber": -1,
            "priorityFee": "",
            "receiver": "0x3432b6a60d23ca0dfca7761b7ab56459d9c964d0",
            "revertMessage": "",
            "sender": "0xef3375b491cff653eaf7c9955a5466f7ea06f37b",
            "simulationEnable": true,
            "sourceTxnHash": "0x134cd3ff05918323e7e70ee95f3999906a3ff84025ed84f8439032de03454012",
            "status": true,
            "timestamp": "2022-07-19T18:20:34Z",
            "transactionFee": "0.005761616570748558",
            "txnHash": "0x134cd3ff05918323e7e70ee95f3999906a3ff84025ed84f8439032de03454012",
            "txnIndex": 37,
            "type": 0,
            "value": "0"
        },
        "fund_flow": [
            {
                "amount": "2,007.6948",
                "from": "0xef3375b491cff653eaf7c9955a5466f7ea06f37b",
                "id": 1,
                "isERC1155": false,
                "isERC721": false,
                "isReverted": false,
                "order": 1,
                "to": "0xa30d997a1d64cc31e5feea9f336df0a133c74b97",
                "token": "0x3432b6a60d23ca0dfca7761b7ab56459d9c964d0"
            }
        ],
        "token_infos": [
            {
                "address": "0x3432b6a60d23ca0dfca7761b7ab56459d9c964d0",
                "decimals": 18
            },
            {
                "address": "0xc02aaa39b223fe8d0a0e5c4f27ead9083c756cc2",
                "decimals": 18
            },
            {
                "address": "0xeeeeeeeeeeeeeeeeeeeeeeeeeeeeeeeeeeeeeeee",
                "decimals": 18
            }
        ]
    },
    "address_label": {
        "labels": [
            {
                "address": "0x0000000000000000000000000000000000000003",
                "label": "Precompiled"
            },
            {
                "address": "0x0000000000000000000000000000000000000004",
                "label": "Precompiled"
            },
            {
                "address": "0xeeeeeeeeeeeeeeeeeeeeeeeeeeeeeeeeeeeeeeee",
                "label": "Ether"
            },
            {
                "address": "0x3432b6a60d23ca0dfca7761b7ab56459d9c964d0",
                "label": "Frax Share (FXS)"
            },
            {
                "address": "0xa30d997a1d64cc31e5feea9f336df0a133c74b97",
                "label": "BINANCE"
            },
            {
                "address": "0x0000000000000000000000000000000000000001",
                "label": "Precompiled"
            },
            {
                "address": "0x0000000000000000000000000000000000000002",
                "label": "Precompiled"
            }
        ]
    },
    "trace": {
        "accountLabels": null,
        "dataMap": {
            "-1": {
                "invocation": {
                    "address": "0xef3375b491cff653eaf7c9955a5466f7ea06f37b",
                    "callData": "",
                    "decodedMethod": null,
                    "errorInfo": "",
                    "fromAddress": "",
                    "gasUsed": 0,
                    "id": -1,
                    "methodDecoded": false,
                    "operation": "",
                    "output": "",
                    "revert": false,
                    "revertMessage": "",
                    "selector": "",
                    "status": false,
                    "value": ""
                },
                "nodeType": 0
            },
            "0": {
                "invocation": {
                    "address": "0x3432b6a60d23ca0dfca7761b7ab56459d9c964d0",
                    "callData": "0x000000000000000000000000a30d997a1d64cc31e5feea9f336df0a133c74b9700000000000000000000000000000000000000000000006cd65cc76086ed0000",
                    "decodedMethod": {
                        "callParams": [
                            {
                                "name": "recipient",
                                "type": "address",
                                "value": "0xa30d997a1d64cc31e5feea9f336df0a133c74b97"
                            },
                            {
                                "decimalAvailable": true,
                                "name": "amount",
                                "type": "uint256",
                                "value": "2,007,694,800,000,000,000,000"
                            }
                        ],
                        "constructorArguments": "",
                        "name": "transfer",
                        "returnParams": [
                            {
                                "name": "",
                                "type": "bool",
                                "value": true
                            }
                        ],
                        "signature": "transfer(address,uint256)"
                    },
                    "errorInfo": "",
                    "fromAddress": "0xef3375b491cff653eaf7c9955a5466f7ea06f37b",
                    "gasUsed": 119109,
                    "id": 0,
                    "methodDecoded": true,
                    "operation": "CALL",
                    "output": "0x0000000000000000000000000000000000000000000000000000000000000001",
                    "revert": false,
                    "revertMessage": "",
                    "selector": "0xa9059cbb",
                    "status": true,
                    "value": "0"
                },
                "nodeType": 0
            },
            "1": {
                "event": {
                    "contract": "0x3432b6a60d23ca0dfca7761b7ab56459d9c964d0",
                    "decodedLog": {
                        "name": "VoterVotesChanged",
                        "params": [
                            {
                                "name": "voter",
                                "type": "address",
                                "value": "0xef3375b491cff653eaf7c9955a5466f7ea06f37b"
                            },
                            {
                                "name": "previousBalance",
                                "type": "uint256",
                                "value": "2,007,694,871,016,243,167,147"
                            },
                            {
                                "name": "newBalance",
                                "type": "uint256",
                                "value": "71,016,243,167,147"
                            }
                        ],
                        "signature": "VoterVotesChanged(address,uint256,uint256)"
                    },
                    "id": 1,
                    "logData": "0x00000000000000000000000000000000000000000000006cd65d07f748df7fab00000000000000000000000000000000000000000000000000004096c1f27fab",
                    "logDecoded": true,
                    "operation": "EVENT",
                    "revert": false,
                    "status": true,
                    "topics": [
                        "0x3eaa1c4be29b4a4c60e00300b5a17a8ec6c982b5b0ad5870cc84ebdc3b24d68e",
                        "0x000000000000000000000000ef3375b491cff653eaf7c9955a5466f7ea06f37b"
                    ]
                },
                "nodeType": 1
            },
            "2": {
                "event": {
                    "contract": "0x3432b6a60d23ca0dfca7761b7ab56459d9c964d0",
                    "decodedLog": {
                        "name": "VoterVotesChanged",
                        "params": [
                            {
                                "name": "voter",
                                "type": "address",
                                "value": "0xa30d997a1d64cc31e5feea9f336df0a133c74b97"
                            },
                            {
                                "name": "previousBalance",
                                "type": "uint256",
                                "value": "0"
                            },
                            {
                                "name": "newBalance",
                                "type": "uint256",
                                "value": "2,007,694,800,000,000,000,000"
                            }
                        ],
                        "signature": "VoterVotesChanged(address,uint256,uint256)"
                    },
                    "id": 2,
                    "logData": "0x000000000000000000000000000000000000000000000000000000000000000000000000000000000000000000000000000000000000006cd65cc76086ed0000",
                    "logDecoded": true,
                    "operation": "EVENT",
                    "revert": false,
                    "status": true,
                    "topics": [
                        "0x3eaa1c4be29b4a4c60e00300b5a17a8ec6c982b5b0ad5870cc84ebdc3b24d68e",
                        "0x000000000000000000000000a30d997a1d64cc31e5feea9f336df0a133c74b97"
                    ]
                },
                "nodeType": 1
            },
            "3": {
                "event": {
                    "contract": "0x3432b6a60d23ca0dfca7761b7ab56459d9c964d0",
                    "decodedLog": {
                        "name": "Transfer",
                        "params": [
                            {
                                "name": "from",
                                "type": "address",
                                "value": "0xef3375b491cff653eaf7c9955a5466f7ea06f37b"
                            },
                            {
                                "name": "to",
                                "type": "address",
                                "value": "0xa30d997a1d64cc31e5feea9f336df0a133c74b97"
                            },
                            {
                                "decimalAvailable": true,
                                "name": "value",
                                "type": "uint256",
                                "value": "2,007,694,800,000,000,000,000"
                            }
                        ],
                        "signature": "Transfer(address,address,uint256)"
                    },
                    "id": 3,
                    "logData": "0x00000000000000000000000000000000000000000000006cd65cc76086ed0000",
                    "logDecoded": true,
                    "operation": "EVENT",
                    "revert": false,
                    "status": true,
                    "topics": [
                        "0xddf252ad1be2c89b69c2b068fc378daa952ba7f163c4a11628f55a4df523b3ef",
                        "0x000000000000000000000000ef3375b491cff653eaf7c9955a5466f7ea06f37b",
                        "0x000000000000000000000000a30d997a1d64cc31e5feea9f336df0a133c74b97"
                    ]
                },
                "nodeType": 1
            }
        },
        "gasFlame": [
            {
                "children": [
                    {
                        "children": [
                            {
                                "children": [],
                                "depth": 0,
                                "name": "Initial Gas",
                                "value": 21644
                            },
                            {
                                "children": [],
                                "depth": 0,
                                "name": "Executed Gas",
                                "value": 97465
                            }
                        ],
                        "depth": -1,
                        "name": "Actual Gas Used",
                        "value": 119109
                    },
                    {
                        "children": [],
                        "depth": -1,
                        "name": "Refunded Gas",
                        "value": 0
                    }
                ],
                "depth": -2,
                "name": "Total Gas",
                "value": 119109
            }
        ],
        "isConfirmed": true,
        "mainTrace": [
            {
                "children": [
                    {
                        "children": [
                            {
                                "children": [],
                                "depth": 1,
                                "id": 1,
                                "order": 1
                            },
                            {
                                "children": [],
                                "depth": 1,
                                "id": 2,
                                "order": 2
                            },
                            {
                                "children": [],
                                "depth": 1,
                                "id": 3,
                                "order": 3
                            }
                        ],
                        "depth": 0,
                        "id": 0,
                        "order": 0
                    }
                ],
                "depth": -1,
                "id": -1,
                "order": -1
            }
        ],
        "mainTraceNodeCount": 4,
        "parentIdMap": {
            "0": -1,
            "1": 0,
            "2": 0,
            "3": 0
        },
        "tidyTrace": [
            {
                "children": [
                    {
                        "children": [
                            {
                                "children": [],
                                "depth": 1,
                                "id": 1,
                                "order": 1
                            },
                            {
                                "children": [],
                                "depth": 1,
                                "id": 2,
                                "order": 2
                            },
                            {
                                "children": [],
                                "depth": 1,
                                "id": 3,
                                "order": 3
                            }
                        ],
                        "depth": 0,
                        "id": 0,
                        "order": 0
                    }
                ],
                "depth": -1,
                "id": -1,
                "order": -1
            }
        ],
        "tidyTraceNodeCount": 4
    },
    "state_change": {
        "stateChanges": [
            {
                "address": "0x3432b6a60d23ca0dfca7761b7ab56459d9c964d0",
                "erc": "ERC-20",
                "slots": [
                    {
                        "current": "0x00000000000000000000000000000000000000000000000000004096c1f27fab",
                        "key": "0x06be45e08215550108e96d675f9f9ed8f635755ba7ad8c9cfd3caabfdf23649b",
                        "prev": "0x00000000000000000000000000000000000000000000006cd65d07f748df7fab"
                    },
                    {
                        "current": "0x00000000000000000000000000000000000000000000006cd65cc76086ed0000",
                        "key": "0xb46b50b681654bed89eaa469e125e29204463b0b55d335158d4604020bc681a1",
                        "prev": "0x0000000000000000000000000000000000000000000000000000000000000000"
                    },
                    {
                        "current": "0x000000000000000000000000000000000000000000004096c1f27fab00e78bfe",
                        "key": "0x645c9c7ec4cfd3d3516c269abe33cda0a5e41fbb70b6768a9de37a80c99cafa0",
                        "prev": "0x0000000000000000000000000000000000000000000000000000000000000000"
                    },
                    {
                        "current": "0x0000000000000000000000000000000000000000000000000000000000000382",
                        "key": "0x88f9f7a86420557a1530d958838d12484207813d82f8141a5da3b567bd2e7390",
                        "prev": "0x0000000000000000000000000000000000000000000000000000000000000381"
                    },
                    {
                        "current": "0x000000000000000000000000000000000000006cd65cc76086ed000000e78bfe",
                        "key": "0x92ee946e3e440f43ef23e9c0d75b9328e28491553afd33ad187e036361901ce9",
                        "prev": "0x0000000000000000000000000000000000000000000000000000000000000000"
                    },
                    {
                        "current": "0x00000000000000000000000000000000000000000000000000000000000001a9",
                        "key": "0x49b693a1f38d34dcbe3fbcc9fd9e1da62c31966343c86511a45d7fa9f7a22a24",
                        "prev": "0x00000000000000000000000000000000000000000000000000000000000001a8"
                    }
                ],
                "storageVariables": [
                    {
                        "name": "numCheckpoints",
                        "type": "mapping(address => uint32)",
                        "value": {
                            "pairs": [
                                {
                                    "key": "0xa30d997a1d64cc31e5feea9f336df0a133c74b97",
                                    "value": {
                                        "current": "425",
                                        "prev": "424",
                                        "typeTag": 1
                                    }
                                },
                                {
                                    "key": "0xef3375b491cff653eaf7c9955a5466f7ea06f37b",
                                    "value": {
                                        "current": "898",
                                        "prev": "897",
                                        "typeTag": 1
                                    }
                                }
                            ],
                            "typeTag": 4
                        }
                    },
                    {
                        "name": "checkpoints",
                        "type": "mapping(address => mapping(uint32 => struct FRAXShares.Checkpoint))",
                        "value": {
                            "pairs": [
                                {
                                    "key": "0xa30d997a1d64cc31e5feea9f336df0a133c74b97",
                                    "value": {
                                        "pairs": [
                                            {
                                                "key": "424",
                                                "value": {
                                                    "fields": [
                                                        {
                                                            "name": "fromBlock",
                                                            "type": "uint32",
                                                            "value": {
                                                                "current": "15174654",
                                                                "prev": "0",
                                                                "typeTag": 1
                                                            }
                                                        },
                                                        {
                                                            "name": "votes",
                                                            "type": "uint96",
                                                            "value": {
                                                                "current": "2007694800000000000000",
                                                                "prev": "0",
                                                                "typeTag": 1
                                                            }
                                                        }
                                                    ],
                                                    "typeTag": 3
                                                }
                                            }
                                        ],
                                        "typeTag": 4
                                    }
                                },
                                {
                                    "key": "0xef3375b491cff653eaf7c9955a5466f7ea06f37b",
                                    "value": {
                                        "pairs": [
                                            {
                                                "key": "897",
                                                "value": {
                                                    "fields": [
                                                        {
                                                            "name": "fromBlock",
                                                            "type": "uint32",
                                                            "value": {
                                                                "current": "15174654",
                                                                "prev": "0",
                                                                "typeTag": 1
                                                            }
                                                        },
                                                        {
                                                            "name": "votes",
                                                            "type": "uint96",
                                                            "value": {
                                                                "current": "71016243167147",
                                                                "prev": "0",
                                                                "typeTag": 1
                                                            }
                                                        }
                                                    ],
                                                    "typeTag": 3
                                                }
                                            }
                                        ],
                                        "typeTag": 4
                                    }
                                }
                            ],
                            "typeTag": 4
                        }
                    },
                    {
                        "name": "_balances",
                        "type": "mapping(address => uint256)",
                        "value": {
                            "pairs": [
                                {
                                    "key": "0xa30d997a1d64cc31e5feea9f336df0a133c74b97",
                                    "value": {
                                        "current": "2007694800000000000000",
                                        "prev": "0",
                                        "typeTag": 1
                                    }
                                },
                                {
                                    "key": "0xef3375b491cff653eaf7c9955a5466f7ea06f37b",
                                    "value": {
                                        "current": "71016243167147",
                                        "prev": "2007694871016243167147",
                                        "typeTag": 1
                                    }
                                }
                            ],
                            "typeTag": 4
                        }
                    }
                ]
            }
        ]
    }
}