{
    "balance_change": {
        "balanceChanges": [
            {
                "account": "0x4e7afc9fdad8f1235f43983dafa8bab704664dbd",
                "assets": [
                    {
                        "address": "0x9e9801bace260f58407c15e6e515c45918756e0f",
                        "amount": "1,737",
                        "iconUrl": "",
                        "isERC1155": false,
                        "isERC721": false,
                        "sign": false,
                        "value": ""
                    }
                ]
            },
            {
                "account": "0x1a225bb8f7f67b7805d1e34813c84e00f69880e4",
                "assets": [
                    {
                        "address": "0x9e9801bace260f58407c15e6e515c45918756e0f",
                        "amount": "1,737",
                        "iconUrl": "",
                        "isERC1155": false,
                        "isERC721": false,
                        "sign": true,
                        "value": ""
                    }
                ]
            }
        ]
    },
    "profile": {
        "basic_info": {
            "baseFee": "",
            "blockNumber": 8255905,
            "callData": "0xa9059cbb0000000000000000000000001a225bb8f7f67b7805d1e34813c84e00f69880e4000000000000000000000000000000000000000000000000000000287153a900",
            "debugEnable": true,
            "errorInfo": "",
            "eventCount": 1,
            "feeRecipient": "0x005e288d713a5fb3d7c9cf1b43810a98688c7223",
            "formatValue": "0",
            "gasLimit": 92000,
            "gasPrice": "15",
            "gasUsed": 36744,
            "intTxnCount": 0,
            "internalRevert": false,
            "internalRevertMessage": "",
            "isContractCreation": false,
            "isFlashloan": false,
            "maxFee": "",
            "nonce": 103996,
            "overwritedBlockNumber": -1,
            "priorityFee": "",
            "receiver": "0x9e9801bace260f58407c15e6e515c45918756e0f",
            "revertMessage": "",
            "sender": "0x4e7afc9fdad8f1235f43983dafa8bab704664dbd",
            "simulationEnable": true,
            "sourceTxnHash": "0x131c9330f33c7e267b285677118b15cb76d439c83e9428ed0403fcd728df12ad",
            "status": true,
            "timestamp": "2019-07-31T02:57:57Z",
            "transactionFee": "0.00055116",
            "txnHash": "0x131c9330f33c7e267b285677118b15cb76d439c83e9428ed0403fcd728df12ad",
            "txnIndex": 121,
            "type": 0,
            "value": "0"
        },
        "fund_flow": [
            {
                "amount": "1,737",
                "from": "0x4e7afc9fdad8f1235f43983dafa8bab704664dbd",
                "id": 1,
                "isERC1155": false,
                "isERC721": false,
                "isReverted": false,
                "order": 1,
                "to": "0x1a225bb8f7f67b7805d1e34813c84e00f69880e4",
                "token": "0x9e9801bace260f58407c15e6e515c45918756e0f"
            }
        ],
        "token_infos": [
            {
                "address": "0x9e9801bace260f58407c15e6e515c45918756e0f",
                "decimals": 8
            },
            {
                "address": "0xc02aaa39b223fe8d0a0e5c4f27ead9083c756cc2",
                "decimals": 18
            },
            {
                "address": "0xeeeeeeeeeeeeeeeeeeeeeeeeeeeeeeeeeeeeeeee",
                "decimals": 18
            }
        ]
    },
    "address_label": {
        "labels": [
            {
                "address": "0xeeeeeeeeeeeeeeeeeeeeeeeeeeeeeeeeeeeeeeee",
                "label": "Ether"
            },
            {
                "address": "0x9e9801bace260f58407c15e6e515c45918756e0f",
                "label": "WorldUnitedCoins (WUC)"
            },
            {
                "address": "0x0000000000000000000000000000000000000001",
                "label": "Precompiled"
            },
            {
                "address": "0x0000000000000000000000000000000000000002",
                "label": "Precompiled"
            },
            {
                "address": "0x0000000000000000000000000000000000000003",
                "label": "Precompiled"
            },
            {
                "address": "0x0000000000000000000000000000000000000004",
                "label": "Precompiled"
            }
        ]
    },
    "trace": {
        "accountLabels": null,
        "dataMap": {
            "-1": {
                "invocation": {
                    "address": "0x4e7afc9fdad8f1235f43983dafa8bab704664dbd",
                    "callData": "",
                    "decodedMethod": null,
                    "errorInfo": "",
                    "fromAddress": "",
                    "gasUsed": 0,
                    "id": -1,
                    "methodDecoded": false,
                    "operation": "",
                    "output": "",
                    "revert": false,
                    "revertMessage": "",
                    "selector": "",
                    "status": false,
                    "value": ""
                },
                "nodeType": 0
            },
            "0": {
                "invocation": {
                    "address": "0x9e9801bace260f58407c15e6e515c45918756e0f",
                    "callData": "0x0000000000000000000000001a225bb8f7f67b7805d1e34813c84e00f69880e4000000000000000000000000000000000000000000000000000000287153a900",
                    "decodedMethod": {
                        "callParams": [
                            {
                                "name": "to",
                                "type": "address",
                                "value": "0x1a225bb8f7f67b7805d1e34813c84e00f69880e4"
                            },
                            {
                                "decimalAvailable": true,
                                "name": "tokens",
                                "type": "uint256",
                                "value": "173,700,000,000"
                            }
                        ],
                        "constructorArguments": "",
                        "name": "transfer",
                        "returnParams": [
                            {
                                "name": "success",
                                "type": "bool",
                                "value": true
                            }
                        ],
                        "signature": "transfer(address,uint256)"
                    },
                    "errorInfo": "",
                    "fromAddress": "0x4e7afc9fdad8f1235f43983dafa8bab704664dbd",
                    "gasUsed": 36744,
                    "id": 0,
                    "methodDecoded": true,
                    "operation": "CALL",
                    "output": "0x0000000000000000000000000000000000000000000000000000000000000001",
                    "revert": false,
                    "revertMessage": "",
                    "selector": "0xa9059cbb",
                    "status": true,
                    "value": "0"
                },
                "nodeType": 0
            },
            "1": {
                "event": {
                    "contract": "0x9e9801bace260f58407c15e6e515c45918756e0f",
                    "decodedLog": {
                        "name": "Transfer",
                        "params": [
                            {
                                "name": "from",
                                "type": "address",
                                "value": "0x4e7afc9fdad8f1235f43983dafa8bab704664dbd"
                            },
                            {
                                "name": "to",
                                "type": "address",
                                "value": "0x1a225bb8f7f67b7805d1e34813c84e00f69880e4"
                            },
                            {
                                "decimalAvailable": true,
                                "name": "tokens",
                                "type": "uint256",
                                "value": "173,700,000,000"
                            }
                        ],
                        "signature": "Transfer(address,address,uint256)"
                    },
                    "id": 1,
                    "logData": "0x000000000000000000000000000000000000000000000000000000287153a900",
                    "logDecoded": true,
                    "operation": "EVENT",
                    "revert": false,
                    "status": true,
                    "topics": [
                        "0xddf252ad1be2c89b69c2b068fc378daa952ba7f163c4a11628f55a4df523b3ef",
                        "0x0000000000000000000000004e7afc9fdad8f1235f43983dafa8bab704664dbd",
                        "0x0000000000000000000000001a225bb8f7f67b7805d1e34813c84e00f69880e4"
                    ]
                },
                "nodeType": 1
            }
        },
        "gasFlame": [
            {
                "children": [
                    {
                        "children": [
                            {
                                "children": [],
                                "depth": 0,
                                "name": "Initial Gas",
                                "value": 23000
                            },
                            {
                                "children": [],
                                "depth": 0,
                                "name": "Executed Gas",
                                "value": 13744
                            }
                        ],
                        "depth": -1,
                        "name": "Actual Gas Used",
                        "value": 36744
                    },
                    {
                        "children": [],
                        "depth": -1,
                        "name": "Refunded Gas",
                        "value": 0
                    }
                ],
                "depth": -2,
                "name": "Total Gas",
                "value": 36744
            }
        ],
        "isConfirmed": true,
        "mainTrace": [
            {
                "children": [
                    {
                        "children": [
                            {
                                "children": [],
                                "depth": 1,
                                "id": 1,
                                "order": 1
                            }
                        ],
                        "depth": 0,
                        "id": 0,
                        "order": 0
                    }
                ],
                "depth": -1,
                "id": -1,
                "order": -1
            }
        ],
        "mainTraceNodeCount": 2,
        "parentIdMap": {
            "0": -1,
            "1": 0
        },
        "tidyTrace": [
            {
                "children": [
                    {
                        "children": [
                            {
                                "children": [],
                                "depth": 1,
                                "id": 1,
                                "order": 1
                            }
                        ],
                        "depth": 0,
                        "id": 0,
                        "order": 0
                    }
                ],
                "depth": -1,
                "id": -1,
                "order": -1
            }
        ],
        "tidyTraceNodeCount": 2
    },
    "state_change": {
        "stateChanges": [
            {
                "address": "0x9e9801bace260f58407c15e6e515c45918756e0f",
                "erc": "ERC-20",
                "slots": [
                    {
                        "current": "0x00000000000000000000000000000000000000000000000000004f224bce25c3",
                        "key": "0xf8ffdd89eca289a639f55bbf497ea35361392754127be7070f497927964a415a",
                        "prev": "0x00000000000000000000000000000000000000000000000000004f4abd21cec3"
                    },
                    {
                        "current": "0x0000000000000000000000000000000000000000000000000000044f449bf900",
                        "key": "0xf0580e8fb6dce54107bb9e52ace145eb1083598def69a4ee7022362185fb2105",
                        "prev": "0x00000000000000000000000000000000000000000000000000000426d3485000"
                    }
                ],
                "storageVariables": [
                    {
                        "name": "balances",
                        "type": "mapping(address => uint256)",
                        "value": {
                            "pairs": [
                                {
                                    "key": "0x1a225bb8f7f67b7805d1e34813c84e00f69880e4",
                                    "value": {
                                        "current": "4738500000000",
                                        "prev": "4564800000000",
                                        "typeTag": 1
                                    }
                                },
                                {
                                    "key": "0x4e7afc9fdad8f1235f43983dafa8bab704664dbd",
                                    "value": {
                                        "current": "87008719283651",
                                        "prev": "87182419283651",
                                        "typeTag": 1
                                    }
                                }
                            ],
                            "typeTag": 4
                        }
                    }
                ]
            }
        ]
    }
}