{
    "balance_change": {
        "balanceChanges": [
            {
                "account": "0x3db6b3d4c752b3f94b0a802afc4aaf83c9d19a1b",
                "assets": [
                    {
                        "address": "0x3495ffcee09012ab7d827abf3e3b3ae428a38443",
                        "amount": "71",
                        "iconUrl": "",
                        "isERC1155": false,
                        "isERC721": false,
                        "sign": false,
                        "value": ""
                    }
                ]
            },
            {
                "account": "0xbabcba02eaa809eb8a11faf60a590e879c6049ee",
                "assets": [
                    {
                        "address": "0x3495ffcee09012ab7d827abf3e3b3ae428a38443",
                        "amount": "71",
                        "iconUrl": "",
                        "isERC1155": false,
                        "isERC721": false,
                        "sign": true,
                        "value": ""
                    }
                ]
            }
        ]
    },
    "profile": {
        "basic_info": {
            "baseFee": "",
            "blockNumber": 7176122,
            "callData": "0xa9059cbb000000000000000000000000babcba02eaa809eb8a11faf60a590e879c6049ee000000000000000000000000000000000000000000000003d952abd36cbc0000",
            "debugEnable": true,
            "errorInfo": "",
            "eventCount": 1,
            "feeRecipient": "0x5a0b54d5dc17e0aadc383d2db43b0a0d3e029c4c",
            "formatValue": "0",
            "gasLimit": 60000,
            "gasPrice": "2.3",
            "gasUsed": 52415,
            "intTxnCount": 0,
            "internalRevert": false,
            "internalRevertMessage": "",
            "isContractCreation": false,
            "isFlashloan": false,
            "maxFee": "",
            "nonce": 122,
            "overwritedBlockNumber": -1,
            "priorityFee": "",
            "receiver": "0x3495ffcee09012ab7d827abf3e3b3ae428a38443",
            "revertMessage": "",
            "sender": "0x3db6b3d4c752b3f94b0a802afc4aaf83c9d19a1b",
            "simulationEnable": true,
            "sourceTxnHash": "0x1336404482c247cdaff6008c03f34b230e37a9022bb6626e2d732bca05e45269",
            "status": true,
            "timestamp": "2019-02-05T02:01:58Z",
            "transactionFee": "0.0001205545",
            "txnHash": "0x1336404482c247cdaff6008c03f34b230e37a9022bb6626e2d732bca05e45269",
            "txnIndex": 105,
            "type": 0,
            "value": "0"
        },
        "fund_flow": [
            {
                "amount": "71",
                "from": "0x3db6b3d4c752b3f94b0a802afc4aaf83c9d19a1b",
                "id": 1,
                "isERC1155": false,
                "isERC721": false,
                "isReverted": false,
                "order": 1,
                "to": "0xbabcba02eaa809eb8a11faf60a590e879c6049ee",
                "token": "0x3495ffcee09012ab7d827abf3e3b3ae428a38443"
            }
        ],
        "token_infos": [
            {
                "address": "0x3495ffcee09012ab7d827abf3e3b3ae428a38443",
                "decimals": 18
            },
            {
                "address": "0xc02aaa39b223fe8d0a0e5c4f27ead9083c756cc2",
                "decimals": 18
            },
            {
                "address": "0xeeeeeeeeeeeeeeeeeeeeeeeeeeeeeeeeeeeeeeee",
                "decimals": 18
            }
        ]
    },
    "address_label": {
        "labels": [
            {
                "address": "0xeeeeeeeeeeeeeeeeeeeeeeeeeeeeeeeeeeeeeeee",
                "label": "Ether"
            },
            {
                "address": "0x3495ffcee09012ab7d827abf3e3b3ae428a38443",
                "label": "BeautyChain (BEC)"
            },
            {
                "address": "0x0000000000000000000000000000000000000001",
                "label": "Precompiled"
            },
            {
                "address": "0x0000000000000000000000000000000000000002",
                "label": "Precompiled"
            },
            {
                "address": "0x0000000000000000000000000000000000000003",
                "label": "Precompiled"
            },
            {
                "address": "0x0000000000000000000000000000000000000004",
                "label": "Precompiled"
            }
        ]
    },
    "trace": {
        "accountLabels": null,
        "dataMap": {
            "-1": {
                "invocation": {
                    "address": "0x3db6b3d4c752b3f94b0a802afc4aaf83c9d19a1b",
                    "callData": "",
                    "decodedMethod": null,
                    "errorInfo": "",
                    "fromAddress": "",
                    "gasUsed": 0,
                    "id": -1,
                    "methodDecoded": false,
                    "operation": "",
                    "output": "",
                    "revert": false,
                    "revertMessage": "",
                    "selector": "",
                    "status": false,
                    "value": ""
                },
                "nodeType": 0
            },
            "0": {
                "invocation": {
                    "address": "0x3495ffcee09012ab7d827abf3e3b3ae428a38443",
                    "callData": "0x000000000000000000000000babcba02eaa809eb8a11faf60a590e879c6049ee000000000000000000000000000000000000000000000003d952abd36cbc0000",
                    "decodedMethod": {
                        "callParams": [
                            {
                                "name": "_to",
                                "type": "address",
                                "value": "0xbabcba02eaa809eb8a11faf60a590e879c6049ee"
                            },
                            {
                                "decimalAvailable": true,
                                "name": "_value",
                                "type": "uint256",
                                "value": "71,000,000,000,000,000,000"
                            }
                        ],
                        "constructorArguments": "",
                        "name": "transfer",
                        "returnParams": [
                            {
                                "name": "",
                                "type": "bool",
                                "value": true
                            }
                        ],
                        "signature": "transfer(address,uint256)"
                    },
                    "errorInfo": "",
                    "fromAddress": "0x3db6b3d4c752b3f94b0a802afc4aaf83c9d19a1b",
                    "gasUsed": 52415,
                    "id": 0,
                    "methodDecoded": true,
                    "operation": "CALL",
                    "output": "0x0000000000000000000000000000000000000000000000000000000000000001",
                    "revert": false,
                    "revertMessage": "",
                    "selector": "0xa9059cbb",
                    "status": true,
                    "value": "0"
                },
                "nodeType": 0
            },
            "1": {
                "event": {
                    "contract": "0x3495ffcee09012ab7d827abf3e3b3ae428a38443",
                    "decodedLog": {
                        "name": "Transfer",
                        "params": [
                            {
                                "name": "from",
                                "type": "address",
                                "value": "0x3db6b3d4c752b3f94b0a802afc4aaf83c9d19a1b"
                            },
                            {
                                "name": "to",
                                "type": "address",
                                "value": "0xbabcba02eaa809eb8a11faf60a590e879c6049ee"
                            },
                            {
                                "decimalAvailable": true,
                                "name": "value",
                                "type": "uint256",
                                "value": "71,000,000,000,000,000,000"
                            }
                        ],
                        "signature": "Transfer(address,address,uint256)"
                    },
                    "id": 1,
                    "logData": "0x000000000000000000000000000000000000000000000003d952abd36cbc0000",
                    "logDecoded": true,
                    "operation": "EVENT",
                    "revert": false,
                    "status": true,
                    "topics": [
                        "0xddf252ad1be2c89b69c2b068fc378daa952ba7f163c4a11628f55a4df523b3ef",
                        "0x0000000000000000000000003db6b3d4c752b3f94b0a802afc4aaf83c9d19a1b",
                        "0x000000000000000000000000babcba02eaa809eb8a11faf60a590e879c6049ee"
                    ]
                },
                "nodeType": 1
            }
        },
        "gasFlame": [
            {
                "children": [
                    {
                        "children": [
                            {
                                "children": [],
                                "depth": 0,
                                "name": "Initial Gas",
                                "value": 23256
                            },
                            {
                                "children": [],
                                "depth": 0,
                                "name": "Executed Gas",
                                "value": 29159
                            }
                        ],
                        "depth": -1,
                        "name": "Actual Gas Used",
                        "value": 52415
                    },
                    {
                        "children": [],
                        "depth": -1,
                        "name": "Refunded Gas",
                        "value": 0
                    }
                ],
                "depth": -2,
                "name": "Total Gas",
                "value": 52415
            }
        ],
        "isConfirmed": true,
        "mainTrace": [
            {
                "children": [
                    {
                        "children": [
                            {
                                "children": [],
                                "depth": 1,
                                "id": 1,
                                "order": 1
                            }
                        ],
                        "depth": 0,
                        "id": 0,
                        "order": 0
                    }
                ],
                "depth": -1,
                "id": -1,
                "order": -1
            }
        ],
        "mainTraceNodeCount": 2,
        "parentIdMap": {
            "0": -1,
            "1": 0
        },
        "tidyTrace": [
            {
                "children": [
                    {
                        "children": [
                            {
                                "children": [],
                                "depth": 1,
                                "id": 1,
                                "order": 1
                            }
                        ],
                        "depth": 0,
                        "id": 0,
                        "order": 0
                    }
                ],
                "depth": -1,
                "id": -1,
                "order": -1
            }
        ],
        "tidyTraceNodeCount": 2
    },
    "state_change": {
        "stateChanges": [
            {
                "address": "0x3495ffcee09012ab7d827abf3e3b3ae428a38443",
                "erc": "ERC-20",
                "slots": [
                    {
                        "current": "0x000000000000000000000000000000000000000000000010e239d5457b970000",
                        "key": "0x3bbe9ce342e9aa0cabb53956b0efc3ba3bbc1f8989f5d506a7faa0ecdd0f13d3",
                        "prev": "0x000000000000000000000000000000000000000000000014bb8c8118e8530000"
                    },
                    {
                        "current": "0x000000000000000000000000000000000000000000000003d952abd36cbc0000",
                        "key": "0x12930daf3a72c1d6479c53dca044724b4a192da672e2b25630f39dfb90a7fb45",
                        "prev": "0x0000000000000000000000000000000000000000000000000000000000000000"
                    }
                ],
                "storageVariables": [
                    {
                        "name": "balances",
                        "type": "mapping(address => uint256)",
                        "value": {
                            "pairs": [
                                {
                                    "key": "0x3db6b3d4c752b3f94b0a802afc4aaf83c9d19a1b",
                                    "value": {
                                        "current": "311449200000000000000",
                                        "prev": "382449200000000000000",
                                        "typeTag": 1
                                    }
                                },
                                {
                                    "key": "0xbabcba02eaa809eb8a11faf60a590e879c6049ee",
                                    "value": {
                                        "current": "71000000000000000000",
                                        "prev": "0",
                                        "typeTag": 1
                                    }
                                }
                            ],
                            "typeTag": 4
                        }
                    }
                ]
            }
        ]
    }
}