{
    "balance_change": {
        "balanceChanges": [
            {
                "account": "0x986a2fca9eda0e06fbf7839b89bfc006ee2a23dd",
                "assets": [
                    {
                        "address": "0xf94b5c5651c888d928439ab6514b93944eee6f48",
                        "amount": "8,566.743",
                        "iconUrl": "",
                        "isERC1155": false,
                        "isERC721": false,
                        "sign": false,
                        "value": "7684.097109"
                    }
                ]
            },
            {
                "account": "0x1eef934c62e7dc1ae9ea800c478f2879d6a5784c",
                "assets": [
                    {
                        "address": "0xf94b5c5651c888d928439ab6514b93944eee6f48",
                        "amount": "8,566.743",
                        "iconUrl": "",
                        "isERC1155": false,
                        "isERC721": false,
                        "sign": true,
                        "value": "7684.097109"
                    }
                ]
            }
        ]
    },
    "profile": {
        "basic_info": {
            "baseFee": "",
            "blockNumber": 11877674,
            "callData": "0xa9059cbb0000000000000000000000001eef934c62e7dc1ae9ea800c478f2879d6a5784c0000000000000000000000000000000000000000000001d0677109f348358000",
            "debugEnable": true,
            "errorInfo": "",
            "eventCount": 1,
            "feeRecipient": "0xe90c080d6b057075a774e0186529d7077dc202c5",
            "formatValue": "0",
            "gasLimit": 111334,
            "gasPrice": "227.7",
            "gasUsed": 55223,
            "intTxnCount": 1,
            "internalRevert": false,
            "internalRevertMessage": "",
            "isContractCreation": false,
            "isFlashloan": false,
            "maxFee": "",
            "nonce": 284651,
            "overwritedBlockNumber": -1,
            "priorityFee": "",
            "receiver": "0xf94b5c5651c888d928439ab6514b93944eee6f48",
            "revertMessage": "",
            "sender": "0x986a2fca9eda0e06fbf7839b89bfc006ee2a23dd",
            "simulationEnable": true,
            "sourceTxnHash": "0x13d1bbfd9cc58eb36d442c53360a34aeec2a3c3f51f77416d7636c7d4c204a9e",
            "status": true,
            "timestamp": "2021-02-18T00:45:13Z",
            "transactionFee": "0.0125742771",
            "txnHash": "0x13d1bbfd9cc58eb36d442c53360a34aeec2a3c3f51f77416d7636c7d4c204a9e",
            "txnIndex": 37,
            "type": 0,
            "value": "0"
        },
        "fund_flow": [
            {
                "amount": "8,566.743",
                "from": "0x986a2fca9eda0e06fbf7839b89bfc006ee2a23dd",
                "id": 1,
                "isERC1155": false,
                "isERC721": false,
                "isReverted": false,
                "order": 1,
                "to": "0x1eef934c62e7dc1ae9ea800c478f2879d6a5784c",
                "token": "0xf94b5c5651c888d928439ab6514b93944eee6f48"
            }
        ],
        "token_infos": [
            {
                "address": "0xc02aaa39b223fe8d0a0e5c4f27ead9083c756cc2",
                "decimals": 18
            },
            {
                "address": "0xf94b5c5651c888d928439ab6514b93944eee6f48",
                "decimals": 18
            },
            {
                "address": "0xeeeeeeeeeeeeeeeeeeeeeeeeeeeeeeeeeeeeeeee",
                "decimals": 18
            }
        ]
    },
    "address_label": {
        "labels": [
            {
                "address": "0x0000000000000000000000000000000000000003",
                "label": "Precompiled"
            },
            {
                "address": "0x0000000000000000000000000000000000000004",
                "label": "Precompiled"
            },
            {
                "address": "0xeeeeeeeeeeeeeeeeeeeeeeeeeeeeeeeeeeeeeeee",
                "label": "Ether"
            },
            {
                "address": "0x3459de17141dee94b12ee5816ff9650c0a99b371",
                "label": "Yield"
            },
            {
                "address": "0xf94b5c5651c888d928439ab6514b93944eee6f48",
                "label": "Yield App: YLD Token"
            },
            {
                "address": "0x986a2fca9eda0e06fbf7839b89bfc006ee2a23dd",
                "label": "AscendEX 3"
            },
            {
                "address": "0x0000000000000000000000000000000000000001",
                "label": "Precompiled"
            },
            {
                "address": "0x0000000000000000000000000000000000000002",
                "label": "Precompiled"
            }
        ]
    },
    "trace": {
        "accountLabels": null,
        "dataMap": {
            "-1": {
                "invocation": {
                    "address": "0x986a2fca9eda0e06fbf7839b89bfc006ee2a23dd",
                    "callData": "",
                    "decodedMethod": null,
                    "errorInfo": "",
                    "fromAddress": "",
                    "gasUsed": 0,
                    "id": -1,
                    "methodDecoded": false,
                    "operation": "",
                    "output": "",
                    "revert": false,
                    "revertMessage": "",
                    "selector": "",
                    "status": false,
                    "value": ""
                },
                "nodeType": 0
            },
            "0": {
                "invocation": {
                    "address": "0xf94b5c5651c888d928439ab6514b93944eee6f48",
                    "callData": "0x0000000000000000000000001eef934c62e7dc1ae9ea800c478f2879d6a5784c0000000000000000000000000000000000000000000001d0677109f348358000",
                    "decodedMethod": {
                        "callParams": [
                            {
                                "name": "recipient",
                                "type": "address",
                                "value": "0x1eef934c62e7dc1ae9ea800c478f2879d6a5784c"
                            },
                            {
                                "decimalAvailable": true,
                                "name": "amount",
                                "type": "uint256",
                                "value": "8,566,743,000,000,000,000,000"
                            }
                        ],
                        "constructorArguments": "",
                        "name": "transfer",
                        "returnParams": [
                            {
                                "name": "",
                                "type": "bool",
                                "value": true
                            }
                        ],
                        "signature": "transfer(address,uint256)"
                    },
                    "errorInfo": "",
                    "fromAddress": "0x986a2fca9eda0e06fbf7839b89bfc006ee2a23dd",
                    "gasUsed": 55223,
                    "id": 0,
                    "methodDecoded": true,
                    "operation": "CALL",
                    "output": "0x0000000000000000000000000000000000000000000000000000000000000001",
                    "revert": false,
                    "revertMessage": "",
                    "selector": "0xa9059cbb",
                    "status": true,
                    "value": "0"
                },
                "nodeType": 0
            },
            "1": {
                "invocation": {
                    "address": "0x3459de17141dee94b12ee5816ff9650c0a99b371",
                    "callData": "0x0000000000000000000000001eef934c62e7dc1ae9ea800c478f2879d6a5784c0000000000000000000000000000000000000000000001d0677109f348358000",
                    "decodedMethod": {
                        "callParams": [
                            {
                                "name": "recipient",
                                "type": "address",
                                "value": "0x1eef934c62e7dc1ae9ea800c478f2879d6a5784c"
                            },
                            {
                                "decimalAvailable": true,
                                "name": "amount",
                                "type": "uint256",
                                "value": "8,566,743,000,000,000,000,000"
                            }
                        ],
                        "constructorArguments": "",
                        "name": "transfer",
                        "returnParams": [
                            {
                                "name": "",
                                "type": "bool",
                                "value": true
                            }
                        ],
                        "signature": "transfer(address,uint256)"
                    },
                    "errorInfo": "",
                    "fromAddress": "0xf94b5c5651c888d928439ab6514b93944eee6f48",
                    "gasUsed": 30776,
                    "id": 1,
                    "methodDecoded": true,
                    "operation": "DELEGATECALL",
                    "output": "0x0000000000000000000000000000000000000000000000000000000000000001",
                    "revert": false,
                    "revertMessage": "",
                    "selector": "0xa9059cbb",
                    "status": true,
                    "value": "0"
                },
                "nodeType": 0
            },
            "2": {
                "event": {
                    "contract": "0xf94b5c5651c888d928439ab6514b93944eee6f48",
                    "decodedLog": {
                        "name": "Transfer",
                        "params": [
                            {
                                "name": "from",
                                "type": "address",
                                "value": "0x986a2fca9eda0e06fbf7839b89bfc006ee2a23dd"
                            },
                            {
                                "name": "to",
                                "type": "address",
                                "value": "0x1eef934c62e7dc1ae9ea800c478f2879d6a5784c"
                            },
                            {
                                "decimalAvailable": true,
                                "name": "value",
                                "type": "uint256",
                                "value": "8,566,743,000,000,000,000,000"
                            }
                        ],
                        "signature": "Transfer(address,address,uint256)"
                    },
                    "id": 2,
                    "logData": "0x0000000000000000000000000000000000000000000001d0677109f348358000",
                    "logDecoded": true,
                    "operation": "EVENT",
                    "revert": false,
                    "status": true,
                    "topics": [
                        "0xddf252ad1be2c89b69c2b068fc378daa952ba7f163c4a11628f55a4df523b3ef",
                        "0x000000000000000000000000986a2fca9eda0e06fbf7839b89bfc006ee2a23dd",
                        "0x0000000000000000000000001eef934c62e7dc1ae9ea800c478f2879d6a5784c"
                    ]
                },
                "nodeType": 1
            }
        },
        "gasFlame": [
            {
                "children": [
                    {
                        "children": [
                            {
                                "children": [],
                                "depth": 0,
                                "name": "Initial Gas",
                                "value": 21668
                            },
                            {
                                "children": [
                                    {
                                        "children": [],
                                        "depth": 1,
                                        "name": "transfer",
                                        "value": 30776
                                    }
                                ],
                                "depth": 0,
                                "name": "Executed Gas",
                                "value": 33555
                            }
                        ],
                        "depth": -1,
                        "name": "Actual Gas Used",
                        "value": 55223
                    },
                    {
                        "children": [],
                        "depth": -1,
                        "name": "Refunded Gas",
                        "value": 0
                    }
                ],
                "depth": -2,
                "name": "Total Gas",
                "value": 55223
            }
        ],
        "isConfirmed": true,
        "mainTrace": [
            {
                "children": [
                    {
                        "children": [
                            {
                                "children": [
                                    {
                                        "children": [],
                                        "depth": 2,
                                        "id": 2,
                                        "order": 2
                                    }
                                ],
                                "depth": 1,
                                "id": 1,
                                "order": 1
                            }
                        ],
                        "depth": 0,
                        "id": 0,
                        "order": 0
                    }
                ],
                "depth": -1,
                "id": -1,
                "order": -1
            }
        ],
        "mainTraceNodeCount": 3,
        "parentIdMap": {
            "0": -1,
            "1": 0,
            "2": 1
        },
        "tidyTrace": [
            {
                "children": [
                    {
                        "children": [
                            {
                                "children": [
                                    {
                                        "children": [],
                                        "depth": 2,
                                        "id": 2,
                                        "order": 2
                                    }
                                ],
                                "depth": 1,
                                "id": 1,
                                "order": 1
                            }
                        ],
                        "depth": 0,
                        "id": 0,
                        "order": 0
                    }
                ],
                "depth": -1,
                "id": -1,
                "order": -1
            }
        ],
        "tidyTraceNodeCount": 3
    },
    "state_change": {
        "stateChanges": [
            {
                "address": "0xf94b5c5651c888d928439ab6514b93944eee6f48",
                "erc": "ERC-20",
                "slots": [
                    {
                        "current": "0x0000000000000000000000000000000000000000000001d0677109f348358000",
                        "key": "0x36362bd6d13497d68c8fb285f110e4af57476af14f8c313fc3f887b43e4b24ff",
                        "prev": "0x0000000000000000000000000000000000000000000000000000000000000000"
                    },
                    {
                        "current": "0x00000000000000000000000000000000000000000001bdde3174fec66a0ab57d",
                        "key": "0x76519cbb55d376377c076f4b4de851c1961cfc45859d9a6fde1f2385166601b1",
                        "prev": "0x00000000000000000000000000000000000000000001bfae98e608b9b240357d"
                    }
                ],
                "storageVariables": [
                    {
                        "name": "_balances",
                        "type": "mapping(address => uint256)",
                        "value": {
                            "pairs": [
                                {
                                    "key": "0x1eef934c62e7dc1ae9ea800c478f2879d6a5784c",
                                    "value": {
                                        "current": "8566743000000000000000",
                                        "prev": "0",
                                        "typeTag": 1
                                    }
                                },
                                {
                                    "key": "0x986a2fca9eda0e06fbf7839b89bfc006ee2a23dd",
                                    "value": {
                                        "current": "2105551825814688933524861",
                                        "prev": "2114118568814688933524861",
                                        "typeTag": 1
                                    }
                                }
                            ],
                            "typeTag": 4
                        }
                    }
                ]
            }
        ]
    }
}