{
    "balance_change": {
        "balanceChanges": [
            {
                "account": "0x34869390da8d3ea4dfd9aef404a0e0ff2487214f",
                "assets": [
                    {
                        "address": "0xf017d3690346eb8234b85f74cee5e15821fee1f4",
                        "amount": "960,296,650.453607018890528577",
                        "iconUrl": "",
                        "isERC1155": false,
                        "isERC721": false,
                        "sign": false,
                        "value": "1114.499083"
                    },
                    {
                        "address": "0xeeeeeeeeeeeeeeeeeeeeeeeeeeeeeeeeeeeeeeee",
                        "amount": "0.586208228030287634",
                        "iconUrl": "https://assets.blocksec.com/image/1663669189317-3.png",
                        "isERC1155": false,
                        "isERC721": false,
                        "sign": true,
                        "value": "1118.4208161189200585"
                    }
                ]
            },
            {
                "account": "0xc02aaa39b223fe8d0a0e5c4f27ead9083c756cc2",
                "assets": [
                    {
                        "address": "0xc02aaa39b223fe8d0a0e5c4f27ead9083c756cc2",
                        "amount": "0.586208228030287634",
                        "iconUrl": "https://assets.blocksec.com/icon/f1cb2d02c471d545bbc7722daf3277fd852d98e63d118771af7047bd8256c516.png",
                        "isERC1155": false,
                        "isERC721": false,
                        "sign": true,
                        "value": "1118.4208161189200585"
                    },
                    {
                        "address": "0xeeeeeeeeeeeeeeeeeeeeeeeeeeeeeeeeeeeeeeee",
                        "amount": "0.586208228030287634",
                        "iconUrl": "https://assets.blocksec.com/image/1663669189317-3.png",
                        "isERC1155": false,
                        "isERC721": false,
                        "sign": false,
                        "value": "1118.4208161189200585"
                    }
                ]
            },
            {
                "account": "0xda2d09fbbf8ee4b5051a0e9b562c5fcb4b393b18",
                "assets": [
                    {
                        "address": "0xf017d3690346eb8234b85f74cee5e15821fee1f4",
                        "amount": "960,296,650.453607018890528577",
                        "iconUrl": "",
                        "isERC1155": false,
                        "isERC721": false,
                        "sign": true,
                        "value": "1114.499083"
                    },
                    {
                        "address": "0xc02aaa39b223fe8d0a0e5c4f27ead9083c756cc2",
                        "amount": "0.586208228030287634",
                        "iconUrl": "https://assets.blocksec.com/icon/f1cb2d02c471d545bbc7722daf3277fd852d98e63d118771af7047bd8256c516.png",
                        "isERC1155": false,
                        "isERC721": false,
                        "sign": false,
                        "value": "1118.4208161189200585"
                    }
                ]
            }
        ]
    },
    "profile": {
        "basic_info": {
            "baseFee": "82.807100423",
            "blockNumber": 17193869,
            "callData": "0x3593564c000000000000000000000000000000000000000000000000000000000000006000000000000000000000000000000000000000000000000000000000000000a0000000000000000000000000000000000000000000000000000000006454e2db00000000000000000000000000000000000000000000000000000000000000030a080c00000000000000000000000000000000000000000000000000000000000000000000000000000000000000000000000000000000000000000000000003000000000000000000000000000000000000000000000000000000000000006000000000000000000000000000000000000000000000000000000000000001e000000000000000000000000000000000000000000000000000000000000003000000000000000000000000000000000000000000000000000000000000000160000000000000000000000000f017d3690346eb8234b85f74cee5e15821fee1f4000000000000000000000000ffffffffffffffffffffffffffffffffffffffff00000000000000000000000000000000000000000000000000000000647c68de0000000000000000000000000000000000000000000000000000000000000000000000000000000000000000ef1c6e67703c7bd7107eed8303fbe6ec2554bf6b000000000000000000000000000000000000000000000000000000006454e2e600000000000000000000000000000000000000000000000000000000000000e000000000000000000000000000000000000000000000000000000000000000412ab8033a8c5a2fbd1cd94aab6dca230f58977964b01ffcffa80421b6554af9231725c42aec44303bbf0a2fbcdf292a2b3f880decbdc3447dabfcbb4ce04132c41c00000000000000000000000000000000000000000000000000000000000000000000000000000000000000000000000000000000000000000000000000010000000000000000000000000000000000000000000000000000000000000000020000000000000000000000000000000000000000031a56b9bb8cd53a59800741000000000000000000000000000000000000000000000000077ee2e6dd1f89a700000000000000000000000000000000000000000000000000000000000000a000000000000000000000000000000000000000000000000000000000000000010000000000000000000000000000000000000000000000000000000000000002000000000000000000000000f017d3690346eb8234b85f74cee5e15821fee1f4000000000000000000000000c02aaa39b223fe8d0a0e5c4f27ead9083c756cc200000000000000000000000000000000000000000000000000000000000000400000000000000000000000000000000000000000000000000000000000000001000000000000000000000000000000000000000000000000077ee2e6dd1f89a7",
            "debugEnable": true,
            "errorInfo": "",
            "eventCount": 6,
            "feeRecipient": "0x690b9a9e9aa1c9db991c7721a92d351db4fac990",
            "formatValue": "0",
            "gasLimit": 314588,
            "gasPrice": "99",
            "gasUsed": 157294,
            "intTxnCount": 16,
            "internalRevert": false,
            "internalRevertMessage": "",
            "isContractCreation": false,
            "isFlashloan": false,
            "maxFee": "99",
            "nonce": 103,
            "overwritedBlockNumber": -1,
            "priorityFee": "21.1",
            "receiver": "0xef1c6e67703c7bd7107eed8303fbe6ec2554bf6b",
            "revertMessage": "",
            "sender": "0x34869390da8d3ea4dfd9aef404a0e0ff2487214f",
            "simulationEnable": true,
            "sourceTxnHash": "0x13a7dee9d2b0588eeb61223a9ea1ea657b2358c6406caba4de27e2e8cb9b0b0f",
            "status": true,
            "timestamp": "2023-05-05T10:35:23Z",
            "transactionFee": "0.015572106",
            "txnHash": "0x13a7dee9d2b0588eeb61223a9ea1ea657b2358c6406caba4de27e2e8cb9b0b0f",
            "txnIndex": 6,
            "type": 2,
            "value": "0"
        },
        "fund_flow": [
            {
                "amount": "960,296,650.453607018890528577",
                "from": "0x34869390da8d3ea4dfd9aef404a0e0ff2487214f",
                "id": 1,
                "isERC1155": false,
                "isERC721": false,
                "isReverted": false,
                "order": 1,
                "to": "0xda2d09fbbf8ee4b5051a0e9b562c5fcb4b393b18",
                "token": "0xf017d3690346eb8234b85f74cee5e15821fee1f4"
            },
            {
                "amount": "0.586208228030287634",
                "from": "0xda2d09fbbf8ee4b5051a0e9b562c5fcb4b393b18",
                "id": 2,
                "isERC1155": false,
                "isERC721": false,
                "isReverted": false,
                "order": 2,
                "to": "0xef1c6e67703c7bd7107eed8303fbe6ec2554bf6b",
                "token": "0xc02aaa39b223fe8d0a0e5c4f27ead9083c756cc2"
            },
            {
                "amount": "0.586208228030287634",
                "from": "0xc02aaa39b223fe8d0a0e5c4f27ead9083c756cc2",
                "id": 3,
                "isERC1155": false,
                "isERC721": false,
                "isReverted": false,
                "order": 3,
                "to": "0xef1c6e67703c7bd7107eed8303fbe6ec2554bf6b",
                "token": "0xeeeeeeeeeeeeeeeeeeeeeeeeeeeeeeeeeeeeeeee"
            },
            {
                "amount": "0.586208228030287634",
                "from": "0xef1c6e67703c7bd7107eed8303fbe6ec2554bf6b",
                "id": 4,
                "isERC1155": false,
                "isERC721": false,
                "isReverted": false,
                "order": 4,
                "to": "0xc02aaa39b223fe8d0a0e5c4f27ead9083c756cc2",
                "token": "0xc02aaa39b223fe8d0a0e5c4f27ead9083c756cc2"
            },
            {
                "amount": "0.586208228030287634",
                "from": "0xef1c6e67703c7bd7107eed8303fbe6ec2554bf6b",
                "id": 5,
                "isERC1155": false,
                "isERC721": false,
                "isReverted": false,
                "order": 5,
                "to": "0x34869390da8d3ea4dfd9aef404a0e0ff2487214f",
                "token": "0xeeeeeeeeeeeeeeeeeeeeeeeeeeeeeeeeeeeeeeee"
            }
        ],
        "token_infos": [
            {
                "address": "0xc02aaa39b223fe8d0a0e5c4f27ead9083c756cc2",
                "decimals": 18
            },
            {
                "address": "0xf017d3690346eb8234b85f74cee5e15821fee1f4",
                "decimals": 18
            },
            {
                "address": "0xeeeeeeeeeeeeeeeeeeeeeeeeeeeeeeeeeeeeeeee",
                "decimals": 18
            }
        ]
    },
    "address_label": {
        "labels": [
            {
                "address": "0x0000000000000000000000000000000000000003",
                "label": "Precompiled"
            },
            {
                "address": "0xeeeeeeeeeeeeeeeeeeeeeeeeeeeeeeeeeeeeeeee",
                "label": "Ether"
            },
            {
                "address": "0x000000000022d473030f116ddee9f6b43ac78ba3",
                "label": "Permit2"
            },
            {
                "address": "0xf017d3690346eb8234b85f74cee5e15821fee1f4",
                "label": "Gekko: GEKKO Token"
            },
            {
                "address": "0xef1c6e67703c7bd7107eed8303fbe6ec2554bf6b",
                "label": "Uniswap: Universal Router 2"
            },
            {
                "address": "0xda2d09fbbf8ee4b5051a0e9b562c5fcb4b393b18",
                "label": "Uniswap V2: GEKKO 3"
            },
            {
                "address": "0x0000000000000000000000000000000000000001",
                "label": "Precompiled"
            },
            {
                "address": "0x0000000000000000000000000000000000000002",
                "label": "Precompiled"
            },
            {
                "address": "0xc02aaa39b223fe8d0a0e5c4f27ead9083c756cc2",
                "label": "Wrapped Ether (WETH)"
            },
            {
                "address": "0x0000000000000000000000000000000000000004",
                "label": "Precompiled"
            }
        ]
    },
    "trace": {
        "accountLabels": null,
        "dataMap": {
            "-1": {
                "invocation": {
                    "address": "0x34869390da8d3ea4dfd9aef404a0e0ff2487214f",
                    "callData": "",
                    "decodedMethod": null,
                    "errorInfo": "",
                    "fromAddress": "",
                    "gasUsed": 0,
                    "id": -1,
                    "methodDecoded": false,
                    "operation": "",
                    "output": "",
                    "revert": false,
                    "revertMessage": "",
                    "selector": "",
                    "status": false,
                    "value": ""
                },
                "nodeType": 0
            },
            "0": {
                "invocation": {
                    "address": "0xef1c6e67703c7bd7107eed8303fbe6ec2554bf6b",
                    "callData": "0x000000000000000000000000000000000000000000000000000000000000006000000000000000000000000000000000000000000000000000000000000000a0000000000000000000000000000000000000000000000000000000006454e2db00000000000000000000000000000000000000000000000000000000000000030a080c00000000000000000000000000000000000000000000000000000000000000000000000000000000000000000000000000000000000000000000000003000000000000000000000000000000000000000000000000000000000000006000000000000000000000000000000000000000000000000000000000000001e000000000000000000000000000000000000000000000000000000000000003000000000000000000000000000000000000000000000000000000000000000160000000000000000000000000f017d3690346eb8234b85f74cee5e15821fee1f4000000000000000000000000ffffffffffffffffffffffffffffffffffffffff00000000000000000000000000000000000000000000000000000000647c68de0000000000000000000000000000000000000000000000000000000000000000000000000000000000000000ef1c6e67703c7bd7107eed8303fbe6ec2554bf6b000000000000000000000000000000000000000000000000000000006454e2e600000000000000000000000000000000000000000000000000000000000000e000000000000000000000000000000000000000000000000000000000000000412ab8033a8c5a2fbd1cd94aab6dca230f58977964b01ffcffa80421b6554af9231725c42aec44303bbf0a2fbcdf292a2b3f880decbdc3447dabfcbb4ce04132c41c00000000000000000000000000000000000000000000000000000000000000000000000000000000000000000000000000000000000000000000000000010000000000000000000000000000000000000000000000000000000000000000020000000000000000000000000000000000000000031a56b9bb8cd53a59800741000000000000000000000000000000000000000000000000077ee2e6dd1f89a700000000000000000000000000000000000000000000000000000000000000a000000000000000000000000000000000000000000000000000000000000000010000000000000000000000000000000000000000000000000000000000000002000000000000000000000000f017d3690346eb8234b85f74cee5e15821fee1f4000000000000000000000000c02aaa39b223fe8d0a0e5c4f27ead9083c756cc200000000000000000000000000000000000000000000000000000000000000400000000000000000000000000000000000000000000000000000000000000001000000000000000000000000000000000000000000000000077ee2e6dd1f89a7",
                    "decodedMethod": {
                        "callParams": [
                            {
                                "name": "commands",
                                "type": "bytes",
                                "value": "0x0a080c"
                            },
                            {
                                "name": "inputs",
                                "type": "bytes[]",
                                "value": [
                                    "0x000000000000000000000000f017d3690346eb8234b85f74cee5e15821fee1f4000000000000000000000000ffffffffffffffffffffffffffffffffffffffff00000000000000000000000000000000000000000000000000000000647c68de0000000000000000000000000000000000000000000000000000000000000000000000000000000000000000ef1c6e67703c7bd7107eed8303fbe6ec2554bf6b000000000000000000000000000000000000000000000000000000006454e2e600000000000000000000000000000000000000000000000000000000000000e000000000000000000000000000000000000000000000000000000000000000412ab8033a8c5a2fbd1cd94aab6dca230f58977964b01ffcffa80421b6554af9231725c42aec44303bbf0a2fbcdf292a2b3f880decbdc3447dabfcbb4ce04132c41c00000000000000000000000000000000000000000000000000000000000000",
                                    "0x00000000000000000000000000000000000000000000000000000000000000020000000000000000000000000000000000000000031a56b9bb8cd53a59800741000000000000000000000000000000000000000000000000077ee2e6dd1f89a700000000000000000000000000000000000000000000000000000000000000a000000000000000000000000000000000000000000000000000000000000000010000000000000000000000000000000000000000000000000000000000000002000000000000000000000000f017d3690346eb8234b85f74cee5e15821fee1f4000000000000000000000000c02aaa39b223fe8d0a0e5c4f27ead9083c756cc2",
                                    "0x0000000000000000000000000000000000000000000000000000000000000001000000000000000000000000000000000000000000000000077ee2e6dd1f89a7"
                                ]
                            },
                            {
                                "name": "deadline",
                                "type": "uint256",
                                "value": "1,683,284,699"
                            }
                        ],
                        "constructorArguments": "",
                        "name": "execute",
                        "returnParams": [],
                        "signature": "execute(bytes,bytes[],uint256)"
                    },
                    "errorInfo": "",
                    "fromAddress": "0x34869390da8d3ea4dfd9aef404a0e0ff2487214f",
                    "gasUsed": 157294,
                    "id": 0,
                    "methodDecoded": true,
                    "operation": "CALL",
                    "output": "",
                    "revert": false,
                    "revertMessage": "",
                    "selector": "0x3593564c",
                    "status": true,
                    "value": "0"
                },
                "nodeType": 0
            },
            "1": {
                "invocation": {
                    "address": "0x000000000022d473030f116ddee9f6b43ac78ba3",
                    "callData": "0x00000000000000000000000034869390da8d3ea4dfd9aef404a0e0ff2487214f000000000000000000000000f017d3690346eb8234b85f74cee5e15821fee1f4000000000000000000000000ffffffffffffffffffffffffffffffffffffffff00000000000000000000000000000000000000000000000000000000647c68de0000000000000000000000000000000000000000000000000000000000000000000000000000000000000000ef1c6e67703c7bd7107eed8303fbe6ec2554bf6b000000000000000000000000000000000000000000000000000000006454e2e6000000000000000000000000000000000000000000000000000000000000010000000000000000000000000000000000000000000000000000000000000000412ab8033a8c5a2fbd1cd94aab6dca230f58977964b01ffcffa80421b6554af9231725c42aec44303bbf0a2fbcdf292a2b3f880decbdc3447dabfcbb4ce04132c41c00000000000000000000000000000000000000000000000000000000000000",
                    "decodedMethod": {
                        "callParams": [
                            {
                                "name": "owner",
                                "type": "address",
                                "value": "0x34869390da8d3ea4dfd9aef404a0e0ff2487214f"
                            },
                            {
                                "name": "permitSingle",
                                "type": "((address,uint160,uint48,uint48),address,uint256)",
                                "value": [
                                    {
                                        "name": "details",
                                        "type": "(address,uint160,uint48,uint48)",
                                        "value": [
                                            {
                                                "name": "token",
                                                "type": "address",
                                                "value": "0xf017d3690346eb8234b85f74cee5e15821fee1f4"
                                            },
                                            {
                                                "name": "amount",
                                                "type": "uint160",
                                                "value": "1,461,501,637,330,902,918,203,684,832,716,283,019,655,932,542,975"
                                            },
                                            {
                                                "name": "expiration",
                                                "type": "uint48",
                                                "value": "1,685,874,910"
                                            },
                                            {
                                                "name": "nonce",
                                                "type": "uint48",
                                                "value": "0"
                                            }
                                        ]
                                    },
                                    {
                                        "name": "spender",
                                        "type": "address",
                                        "value": "0xef1c6e67703c7bd7107eed8303fbe6ec2554bf6b"
                                    },
                                    {
                                        "name": "sigDeadline",
                                        "type": "uint256",
                                        "value": "1,683,284,710"
                                    }
                                ]
                            },
                            {
                                "name": "signature",
                                "type": "bytes",
                                "value": "0x2ab8033a8c5a2fbd1cd94aab6dca230f58977964b01ffcffa80421b6554af9231725c42aec44303bbf0a2fbcdf292a2b3f880decbdc3447dabfcbb4ce04132c41c"
                            }
                        ],
                        "constructorArguments": "",
                        "name": "permit",
                        "returnParams": [],
                        "signature": "permit(address,((address,uint160,uint48,uint48),address,uint256),bytes)"
                    },
                    "errorInfo": "",
                    "fromAddress": "0xef1c6e67703c7bd7107eed8303fbe6ec2554bf6b",
                    "gasUsed": 30786,
                    "id": 1,
                    "methodDecoded": true,
                    "operation": "CALL",
                    "output": "",
                    "revert": false,
                    "revertMessage": "",
                    "selector": "0x2b67b570",
                    "status": true,
                    "value": "0"
                },
                "nodeType": 0
            },
            "10": {
                "invocation": {
                    "address": "0xda2d09fbbf8ee4b5051a0e9b562c5fcb4b393b18",
                    "callData": "0x0000000000000000000000000000000000000000000000000822a1470c280f120000000000000000000000000000000000000000000000000000000000000000000000000000000000000000ef1c6e67703c7bd7107eed8303fbe6ec2554bf6b00000000000000000000000000000000000000000000000000000000000000800000000000000000000000000000000000000000000000000000000000000000",
                    "decodedMethod": {
                        "callParams": [
                            {
                                "name": "amount0Out",
                                "type": "uint256",
                                "value": "586,208,228,030,287,634"
                            },
                            {
                                "name": "amount1Out",
                                "type": "uint256",
                                "value": "0"
                            },
                            {
                                "name": "to",
                                "type": "address",
                                "value": "0xef1c6e67703c7bd7107eed8303fbe6ec2554bf6b"
                            },
                            {
                                "name": "data",
                                "type": "bytes",
                                "value": "0x"
                            }
                        ],
                        "constructorArguments": "",
                        "name": "swap",
                        "returnParams": [],
                        "signature": "swap(uint256,uint256,address,bytes)"
                    },
                    "errorInfo": "",
                    "fromAddress": "0xef1c6e67703c7bd7107eed8303fbe6ec2554bf6b",
                    "gasUsed": 60509,
                    "id": 10,
                    "methodDecoded": true,
                    "operation": "CALL",
                    "output": "",
                    "revert": false,
                    "revertMessage": "",
                    "selector": "0x022c0d9f",
                    "status": true,
                    "value": "0"
                },
                "nodeType": 0
            },
            "11": {
                "invocation": {
                    "address": "0xc02aaa39b223fe8d0a0e5c4f27ead9083c756cc2",
                    "callData": "0x000000000000000000000000ef1c6e67703c7bd7107eed8303fbe6ec2554bf6b0000000000000000000000000000000000000000000000000822a1470c280f12",
                    "decodedMethod": {
                        "callParams": [
                            {
                                "name": "dst",
                                "type": "address",
                                "value": "0xef1c6e67703c7bd7107eed8303fbe6ec2554bf6b"
                            },
                            {
                                "decimalAvailable": true,
                                "name": "wad",
                                "type": "uint256",
                                "value": "586,208,228,030,287,634"
                            }
                        ],
                        "constructorArguments": "",
                        "name": "transfer",
                        "returnParams": [
                            {
                                "name": "",
                                "type": "bool",
                                "value": true
                            }
                        ],
                        "signature": "transfer(address,uint256)"
                    },
                    "errorInfo": "",
                    "fromAddress": "0xda2d09fbbf8ee4b5051a0e9b562c5fcb4b393b18",
                    "gasUsed": 27962,
                    "id": 11,
                    "methodDecoded": true,
                    "operation": "CALL",
                    "output": "0x0000000000000000000000000000000000000000000000000000000000000001",
                    "revert": false,
                    "revertMessage": "",
                    "selector": "0xa9059cbb",
                    "status": true,
                    "value": "0"
                },
                "nodeType": 0
            },
            "12": {
                "event": {
                    "contract": "0xc02aaa39b223fe8d0a0e5c4f27ead9083c756cc2",
                    "decodedLog": {
                        "name": "Transfer",
                        "params": [
                            {
                                "name": "src",
                                "type": "address",
                                "value": "0xda2d09fbbf8ee4b5051a0e9b562c5fcb4b393b18"
                            },
                            {
                                "name": "dst",
                                "type": "address",
                                "value": "0xef1c6e67703c7bd7107eed8303fbe6ec2554bf6b"
                            },
                            {
                                "decimalAvailable": true,
                                "name": "wad",
                                "type": "uint256",
                                "value": "586,208,228,030,287,634"
                            }
                        ],
                        "signature": "Transfer(address,address,uint256)"
                    },
                    "id": 12,
                    "logData": "0x0000000000000000000000000000000000000000000000000822a1470c280f12",
                    "logDecoded": true,
                    "operation": "EVENT",
                    "revert": false,
                    "status": true,
                    "topics": [
                        "0xddf252ad1be2c89b69c2b068fc378daa952ba7f163c4a11628f55a4df523b3ef",
                        "0x000000000000000000000000da2d09fbbf8ee4b5051a0e9b562c5fcb4b393b18",
                        "0x000000000000000000000000ef1c6e67703c7bd7107eed8303fbe6ec2554bf6b"
                    ]
                },
                "nodeType": 1
            },
            "13": {
                "invocation": {
                    "address": "0xc02aaa39b223fe8d0a0e5c4f27ead9083c756cc2",
                    "callData": "0x000000000000000000000000da2d09fbbf8ee4b5051a0e9b562c5fcb4b393b18",
                    "decodedMethod": {
                        "callParams": [
                            {
                                "name": "",
                                "type": "address",
                                "value": "0xda2d09fbbf8ee4b5051a0e9b562c5fcb4b393b18"
                            }
                        ],
                        "constructorArguments": "",
                        "name": "balanceOf",
                        "returnParams": [
                            {
                                "decimalAvailable": true,
                                "name": "",
                                "type": "uint256",
                                "value": "90,386,626,671,372,320,828"
                            }
                        ],
                        "signature": "balanceOf(address)"
                    },
                    "errorInfo": "",
                    "fromAddress": "0xda2d09fbbf8ee4b5051a0e9b562c5fcb4b393b18",
                    "gasUsed": 534,
                    "id": 13,
                    "methodDecoded": true,
                    "operation": "STATICCALL",
                    "output": "0x000000000000000000000000000000000000000000000004e65dce1198fec03c",
                    "revert": false,
                    "revertMessage": "",
                    "selector": "0x70a08231",
                    "status": true,
                    "value": "0"
                },
                "nodeType": 0
            },
            "14": {
                "invocation": {
                    "address": "0xf017d3690346eb8234b85f74cee5e15821fee1f4",
                    "callData": "0x000000000000000000000000da2d09fbbf8ee4b5051a0e9b562c5fcb4b393b18",
                    "decodedMethod": {
                        "callParams": [
                            {
                                "name": "account",
                                "type": "address",
                                "value": "0xda2d09fbbf8ee4b5051a0e9b562c5fcb4b393b18"
                            }
                        ],
                        "constructorArguments": "",
                        "name": "balanceOf",
                        "returnParams": [
                            {
                                "decimalAvailable": true,
                                "name": "",
                                "type": "uint256",
                                "value": "148,582,893,495,568,856,966,012,131,256"
                            }
                        ],
                        "signature": "balanceOf(address)"
                    },
                    "errorInfo": "",
                    "fromAddress": "0xda2d09fbbf8ee4b5051a0e9b562c5fcb4b393b18",
                    "gasUsed": 690,
                    "id": 14,
                    "methodDecoded": true,
                    "operation": "STATICCALL",
                    "output": "0x0000000000000000000000000000000000000001e018e38c1a997471efa4d7b8",
                    "revert": false,
                    "revertMessage": "",
                    "selector": "0x70a08231",
                    "status": true,
                    "value": "0"
                },
                "nodeType": 0
            },
            "15": {
                "event": {
                    "contract": "0xda2d09fbbf8ee4b5051a0e9b562c5fcb4b393b18",
                    "decodedLog": {
                        "name": "Sync",
                        "params": [
                            {
                                "name": "reserve0",
                                "type": "uint112",
                                "value": "90,386,626,671,372,320,828"
                            },
                            {
                                "name": "reserve1",
                                "type": "uint112",
                                "value": "148,582,893,495,568,856,966,012,131,256"
                            }
                        ],
                        "signature": "Sync(uint112,uint112)"
                    },
                    "id": 15,
                    "logData": "0x000000000000000000000000000000000000000000000004e65dce1198fec03c0000000000000000000000000000000000000001e018e38c1a997471efa4d7b8",
                    "logDecoded": true,
                    "operation": "EVENT",
                    "revert": false,
                    "status": true,
                    "topics": [
                        "0x1c411e9a96e071241c2f21f7726b17ae89e3cab4c78be50e062b03a9fffbbad1"
                    ]
                },
                "nodeType": 1
            },
            "16": {
                "event": {
                    "contract": "0xda2d09fbbf8ee4b5051a0e9b562c5fcb4b393b18",
                    "decodedLog": {
                        "name": "Swap",
                        "params": [
                            {
                                "name": "sender",
                                "type": "address",
                                "value": "0xef1c6e67703c7bd7107eed8303fbe6ec2554bf6b"
                            },
                            {
                                "name": "to",
                                "type": "address",
                                "value": "0xef1c6e67703c7bd7107eed8303fbe6ec2554bf6b"
                            },
                            {
                                "name": "amount0In",
                                "type": "uint256",
                                "value": "0"
                            },
                            {
                                "name": "amount1In",
                                "type": "uint256",
                                "value": "960,296,650,453,607,018,890,528,577"
                            },
                            {
                                "name": "amount0Out",
                                "type": "uint256",
                                "value": "586,208,228,030,287,634"
                            },
                            {
                                "name": "amount1Out",
                                "type": "uint256",
                                "value": "0"
                            }
                        ],
                        "signature": "Swap(address,uint256,uint256,uint256,uint256,address)"
                    },
                    "id": 16,
                    "logData": "0x00000000000000000000000000000000000000000000000000000000000000000000000000000000000000000000000000000000031a56b9bb8cd53a598007410000000000000000000000000000000000000000000000000822a1470c280f120000000000000000000000000000000000000000000000000000000000000000",
                    "logDecoded": true,
                    "operation": "EVENT",
                    "revert": false,
                    "status": true,
                    "topics": [
                        "0xd78ad95fa46c994b6551d0da85fc275fe613ce37657fb8d5e3d130840159d822",
                        "0x000000000000000000000000ef1c6e67703c7bd7107eed8303fbe6ec2554bf6b",
                        "0x000000000000000000000000ef1c6e67703c7bd7107eed8303fbe6ec2554bf6b"
                    ]
                },
                "nodeType": 1
            },
            "17": {
                "invocation": {
                    "address": "0xc02aaa39b223fe8d0a0e5c4f27ead9083c756cc2",
                    "callData": "0x000000000000000000000000ef1c6e67703c7bd7107eed8303fbe6ec2554bf6b",
                    "decodedMethod": {
                        "callParams": [
                            {
                                "name": "",
                                "type": "address",
                                "value": "0xef1c6e67703c7bd7107eed8303fbe6ec2554bf6b"
                            }
                        ],
                        "constructorArguments": "",
                        "name": "balanceOf",
                        "returnParams": [
                            {
                                "decimalAvailable": true,
                                "name": "",
                                "type": "uint256",
                                "value": "586,208,228,030,287,634"
                            }
                        ],
                        "signature": "balanceOf(address)"
                    },
                    "errorInfo": "",
                    "fromAddress": "0xef1c6e67703c7bd7107eed8303fbe6ec2554bf6b",
                    "gasUsed": 534,
                    "id": 17,
                    "methodDecoded": true,
                    "operation": "STATICCALL",
                    "output": "0x0000000000000000000000000000000000000000000000000822a1470c280f12",
                    "revert": false,
                    "revertMessage": "",
                    "selector": "0x70a08231",
                    "status": true,
                    "value": "0"
                },
                "nodeType": 0
            },
            "18": {
                "invocation": {
                    "address": "0xc02aaa39b223fe8d0a0e5c4f27ead9083c756cc2",
                    "callData": "0x000000000000000000000000ef1c6e67703c7bd7107eed8303fbe6ec2554bf6b",
                    "decodedMethod": {
                        "callParams": [
                            {
                                "name": "",
                                "type": "address",
                                "value": "0xef1c6e67703c7bd7107eed8303fbe6ec2554bf6b"
                            }
                        ],
                        "constructorArguments": "",
                        "name": "balanceOf",
                        "returnParams": [
                            {
                                "decimalAvailable": true,
                                "name": "",
                                "type": "uint256",
                                "value": "586,208,228,030,287,634"
                            }
                        ],
                        "signature": "balanceOf(address)"
                    },
                    "errorInfo": "",
                    "fromAddress": "0xef1c6e67703c7bd7107eed8303fbe6ec2554bf6b",
                    "gasUsed": 534,
                    "id": 18,
                    "methodDecoded": true,
                    "operation": "STATICCALL",
                    "output": "0x0000000000000000000000000000000000000000000000000822a1470c280f12",
                    "revert": false,
                    "revertMessage": "",
                    "selector": "0x70a08231",
                    "status": true,
                    "value": "0"
                },
                "nodeType": 0
            },
            "19": {
                "invocation": {
                    "address": "0xc02aaa39b223fe8d0a0e5c4f27ead9083c756cc2",
                    "callData": "0x0000000000000000000000000000000000000000000000000822a1470c280f12",
                    "decodedMethod": {
                        "callParams": [
                            {
                                "name": "wad",
                                "type": "uint256",
                                "value": "586,208,228,030,287,634"
                            }
                        ],
                        "constructorArguments": "",
                        "name": "withdraw",
                        "returnParams": [],
                        "signature": "withdraw(uint256)"
                    },
                    "errorInfo": "",
                    "fromAddress": "0xef1c6e67703c7bd7107eed8303fbe6ec2554bf6b",
                    "gasUsed": 9202,
                    "id": 19,
                    "methodDecoded": true,
                    "operation": "CALL",
                    "output": "",
                    "revert": false,
                    "revertMessage": "",
                    "selector": "0x2e1a7d4d",
                    "status": true,
                    "value": "0"
                },
                "nodeType": 0
            },
            "2": {
                "invocation": {
                    "address": "0x0000000000000000000000000000000000000001",
                    "callData": "0xf73c50cd3bd9c40bd39d818bca6c618b26eea582e2e6575cd79a1c78000000000000000000000000000000000000000000000000000000000000001c2ab8033a8c5a2fbd1cd94aab6dca230f58977964b01ffcffa80421b6554af9231725c42aec44303bbf0a2fbcdf292a2b3f880decbdc3447dabfcbb4ce04132c4",
                    "decodedMethod": {
                        "callParams": [
                            {
                                "name": "hash",
                                "type": "bytes32",
                                "value": "0xa409a628f73c50cd3bd9c40bd39d818bca6c618b26eea582e2e6575cd79a1c78"
                            },
                            {
                                "name": "v",
                                "type": "uint256",
                                "value": "28"
                            },
                            {
                                "name": "r",
                                "type": "bytes32",
                                "value": "0x2ab8033a8c5a2fbd1cd94aab6dca230f58977964b01ffcffa80421b6554af923"
                            },
                            {
                                "name": "s",
                                "type": "bytes32",
                                "value": "0x1725c42aec44303bbf0a2fbcdf292a2b3f880decbdc3447dabfcbb4ce04132c4"
                            }
                        ],
                        "constructorArguments": "",
                        "name": "ecrecover",
                        "returnParams": [
                            {
                                "name": "",
                                "type": "address",
                                "value": "0x34869390da8d3ea4dfd9aef404a0e0ff2487214f"
                            }
                        ],
                        "signature": "ecrecover(bytes32,uint256,bytes32,bytes32)"
                    },
                    "errorInfo": "",
                    "fromAddress": "0x000000000022d473030f116ddee9f6b43ac78ba3",
                    "gasUsed": 3000,
                    "id": 2,
                    "methodDecoded": true,
                    "operation": "STATICCALL",
                    "output": "0x00000000000000000000000034869390da8d3ea4dfd9aef404a0e0ff2487214f",
                    "revert": false,
                    "revertMessage": "",
                    "selector": "0xa409a628",
                    "status": true,
                    "value": "0"
                },
                "nodeType": 0
            },
            "20": {
                "invocation": {
                    "address": "0xef1c6e67703c7bd7107eed8303fbe6ec2554bf6b",
                    "callData": "0x",
                    "decodedMethod": null,
                    "errorInfo": "",
                    "fromAddress": "0xc02aaa39b223fe8d0a0e5c4f27ead9083c756cc2",
                    "gasUsed": 62,
                    "id": 20,
                    "methodDecoded": false,
                    "operation": "CALL",
                    "output": "",
                    "revert": false,
                    "revertMessage": "",
                    "selector": "fallback",
                    "status": true,
                    "value": "0.586208228030287634"
                },
                "nodeType": 0
            },
            "21": {
                "event": {
                    "contract": "0xc02aaa39b223fe8d0a0e5c4f27ead9083c756cc2",
                    "decodedLog": {
                        "name": "Withdrawal",
                        "params": [
                            {
                                "name": "src",
                                "type": "address",
                                "value": "0xef1c6e67703c7bd7107eed8303fbe6ec2554bf6b"
                            },
                            {
                                "name": "wad",
                                "type": "uint256",
                                "value": "586,208,228,030,287,634"
                            }
                        ],
                        "signature": "Withdrawal(address,uint256)"
                    },
                    "id": 21,
                    "logData": "0x0000000000000000000000000000000000000000000000000822a1470c280f12",
                    "logDecoded": true,
                    "operation": "EVENT",
                    "revert": false,
                    "status": true,
                    "topics": [
                        "0x7fcf532c15f0a6db0bd6d0e038bea71d30d808c7d98cb3bf7268a95bf5081b65",
                        "0x000000000000000000000000ef1c6e67703c7bd7107eed8303fbe6ec2554bf6b"
                    ]
                },
                "nodeType": 1
            },
            "22": {
                "invocation": {
                    "address": "0x34869390da8d3ea4dfd9aef404a0e0ff2487214f",
                    "callData": "0x",
                    "decodedMethod": null,
                    "errorInfo": "",
                    "fromAddress": "0xef1c6e67703c7bd7107eed8303fbe6ec2554bf6b",
                    "gasUsed": 0,
                    "id": 22,
                    "methodDecoded": false,
                    "operation": "CALL",
                    "output": "",
                    "revert": false,
                    "revertMessage": "",
                    "selector": "fallback",
                    "status": true,
                    "value": "0.586208228030287634"
                },
                "nodeType": 0
            },
            "3": {
                "event": {
                    "contract": "0x000000000022d473030f116ddee9f6b43ac78ba3",
                    "decodedLog": {
                        "name": "Permit",
                        "params": [
                            {
                                "name": "owner",
                                "type": "address",
                                "value": "0x34869390da8d3ea4dfd9aef404a0e0ff2487214f"
                            },
                            {
                                "name": "token",
                                "type": "address",
                                "value": "0xf017d3690346eb8234b85f74cee5e15821fee1f4"
                            },
                            {
                                "name": "spender",
                                "type": "address",
                                "value": "0xef1c6e67703c7bd7107eed8303fbe6ec2554bf6b"
                            },
                            {
                                "name": "amount",
                                "type": "uint160",
                                "value": "1,461,501,637,330,902,918,203,684,832,716,283,019,655,932,542,975"
                            },
                            {
                                "name": "expiration",
                                "type": "uint48",
                                "value": "1,685,874,910"
                            },
                            {
                                "name": "nonce",
                                "type": "uint48",
                                "value": "0"
                            }
                        ],
                        "signature": "Permit(address,address,address,uint160,uint48,uint48)"
                    },
                    "id": 3,
                    "logData": "0x000000000000000000000000ffffffffffffffffffffffffffffffffffffffff00000000000000000000000000000000000000000000000000000000647c68de0000000000000000000000000000000000000000000000000000000000000000",
                    "logDecoded": true,
                    "operation": "EVENT",
                    "revert": false,
                    "status": true,
                    "topics": [
                        "0xc6a377bfc4eb120024a8ac08eef205be16b817020812c73223e81d1bdb9708ec",
                        "0x00000000000000000000000034869390da8d3ea4dfd9aef404a0e0ff2487214f",
                        "0x000000000000000000000000f017d3690346eb8234b85f74cee5e15821fee1f4",
                        "0x000000000000000000000000ef1c6e67703c7bd7107eed8303fbe6ec2554bf6b"
                    ]
                },
                "nodeType": 1
            },
            "4": {
                "invocation": {
                    "address": "0x000000000022d473030f116ddee9f6b43ac78ba3",
                    "callData": "0x00000000000000000000000034869390da8d3ea4dfd9aef404a0e0ff2487214f000000000000000000000000da2d09fbbf8ee4b5051a0e9b562c5fcb4b393b180000000000000000000000000000000000000000031a56b9bb8cd53a59800741000000000000000000000000f017d3690346eb8234b85f74cee5e15821fee1f4",
                    "decodedMethod": {
                        "callParams": [
                            {
                                "name": "from",
                                "type": "address",
                                "value": "0x34869390da8d3ea4dfd9aef404a0e0ff2487214f"
                            },
                            {
                                "name": "to",
                                "type": "address",
                                "value": "0xda2d09fbbf8ee4b5051a0e9b562c5fcb4b393b18"
                            },
                            {
                                "name": "amount",
                                "type": "uint160",
                                "value": "960,296,650,453,607,018,890,528,577"
                            },
                            {
                                "name": "token",
                                "type": "address",
                                "value": "0xf017d3690346eb8234b85f74cee5e15821fee1f4"
                            }
                        ],
                        "constructorArguments": "",
                        "name": "transferFrom",
                        "returnParams": [],
                        "signature": "transferFrom(address,address,uint160,address)"
                    },
                    "errorInfo": "",
                    "fromAddress": "0xef1c6e67703c7bd7107eed8303fbe6ec2554bf6b",
                    "gasUsed": 18924,
                    "id": 4,
                    "methodDecoded": true,
                    "operation": "CALL",
                    "output": "",
                    "revert": false,
                    "revertMessage": "",
                    "selector": "0x36c78516",
                    "status": true,
                    "value": "0"
                },
                "nodeType": 0
            },
            "5": {
                "invocation": {
                    "address": "0xf017d3690346eb8234b85f74cee5e15821fee1f4",
                    "callData": "0x00000000000000000000000034869390da8d3ea4dfd9aef404a0e0ff2487214f000000000000000000000000da2d09fbbf8ee4b5051a0e9b562c5fcb4b393b180000000000000000000000000000000000000000031a56b9bb8cd53a59800741",
                    "decodedMethod": {
                        "callParams": [
                            {
                                "name": "from",
                                "type": "address",
                                "value": "0x34869390da8d3ea4dfd9aef404a0e0ff2487214f"
                            },
                            {
                                "name": "to",
                                "type": "address",
                                "value": "0xda2d09fbbf8ee4b5051a0e9b562c5fcb4b393b18"
                            },
                            {
                                "decimalAvailable": true,
                                "name": "amount",
                                "type": "uint256",
                                "value": "960,296,650,453,607,018,890,528,577"
                            }
                        ],
                        "constructorArguments": "",
                        "name": "transferFrom",
                        "returnParams": [
                            {
                                "name": "",
                                "type": "bool",
                                "value": true
                            }
                        ],
                        "signature": "transferFrom(address,address,uint256)"
                    },
                    "errorInfo": "",
                    "fromAddress": "0x000000000022d473030f116ddee9f6b43ac78ba3",
                    "gasUsed": 15217,
                    "id": 5,
                    "methodDecoded": true,
                    "operation": "CALL",
                    "output": "0x0000000000000000000000000000000000000000000000000000000000000001",
                    "revert": false,
                    "revertMessage": "",
                    "selector": "0x23b872dd",
                    "status": true,
                    "value": "0"
                },
                "nodeType": 0
            },
            "6": {
                "event": {
                    "contract": "0xf017d3690346eb8234b85f74cee5e15821fee1f4",
                    "decodedLog": {
                        "name": "Transfer",
                        "params": [
                            {
                                "name": "from",
                                "type": "address",
                                "value": "0x34869390da8d3ea4dfd9aef404a0e0ff2487214f"
                            },
                            {
                                "name": "to",
                                "type": "address",
                                "value": "0xda2d09fbbf8ee4b5051a0e9b562c5fcb4b393b18"
                            },
                            {
                                "decimalAvailable": true,
                                "name": "value",
                                "type": "uint256",
                                "value": "960,296,650,453,607,018,890,528,577"
                            }
                        ],
                        "signature": "Transfer(address,address,uint256)"
                    },
                    "id": 6,
                    "logData": "0x0000000000000000000000000000000000000000031a56b9bb8cd53a59800741",
                    "logDecoded": true,
                    "operation": "EVENT",
                    "revert": false,
                    "status": true,
                    "topics": [
                        "0xddf252ad1be2c89b69c2b068fc378daa952ba7f163c4a11628f55a4df523b3ef",
                        "0x00000000000000000000000034869390da8d3ea4dfd9aef404a0e0ff2487214f",
                        "0x000000000000000000000000da2d09fbbf8ee4b5051a0e9b562c5fcb4b393b18"
                    ]
                },
                "nodeType": 1
            },
            "7": {
                "invocation": {
                    "address": "0xc02aaa39b223fe8d0a0e5c4f27ead9083c756cc2",
                    "callData": "0x000000000000000000000000ef1c6e67703c7bd7107eed8303fbe6ec2554bf6b",
                    "decodedMethod": {
                        "callParams": [
                            {
                                "name": "",
                                "type": "address",
                                "value": "0xef1c6e67703c7bd7107eed8303fbe6ec2554bf6b"
                            }
                        ],
                        "constructorArguments": "",
                        "name": "balanceOf",
                        "returnParams": [
                            {
                                "decimalAvailable": true,
                                "name": "",
                                "type": "uint256",
                                "value": "0"
                            }
                        ],
                        "signature": "balanceOf(address)"
                    },
                    "errorInfo": "",
                    "fromAddress": "0xef1c6e67703c7bd7107eed8303fbe6ec2554bf6b",
                    "gasUsed": 2534,
                    "id": 7,
                    "methodDecoded": true,
                    "operation": "STATICCALL",
                    "output": "0x0000000000000000000000000000000000000000000000000000000000000000",
                    "revert": false,
                    "revertMessage": "",
                    "selector": "0x70a08231",
                    "status": true,
                    "value": "0"
                },
                "nodeType": 0
            },
            "8": {
                "invocation": {
                    "address": "0xda2d09fbbf8ee4b5051a0e9b562c5fcb4b393b18",
                    "callData": "0x",
                    "decodedMethod": {
                        "callParams": [],
                        "constructorArguments": "",
                        "name": "getReserves",
                        "returnParams": [
                            {
                                "name": "_reserve0",
                                "type": "uint112",
                                "value": "90,972,834,899,402,608,462"
                            },
                            {
                                "name": "_reserve1",
                                "type": "uint112",
                                "value": "147,622,596,845,115,249,947,121,602,679"
                            },
                            {
                                "name": "_blockTimestampLast",
                                "type": "uint32",
                                "value": "1,683,282,911"
                            }
                        ],
                        "signature": "getReserves()"
                    },
                    "errorInfo": "",
                    "fromAddress": "0xef1c6e67703c7bd7107eed8303fbe6ec2554bf6b",
                    "gasUsed": 2504,
                    "id": 8,
                    "methodDecoded": true,
                    "operation": "STATICCALL",
                    "output": "0x000000000000000000000000000000000000000000000004ee806f58a526cf4e0000000000000000000000000000000000000001dcfe8cd25f0c9f379624d077000000000000000000000000000000000000000000000000000000006454dbdf",
                    "revert": false,
                    "revertMessage": "",
                    "selector": "0x0902f1ac",
                    "status": true,
                    "value": "0"
                },
                "nodeType": 0
            },
            "9": {
                "invocation": {
                    "address": "0xf017d3690346eb8234b85f74cee5e15821fee1f4",
                    "callData": "0x000000000000000000000000da2d09fbbf8ee4b5051a0e9b562c5fcb4b393b18",
                    "decodedMethod": {
                        "callParams": [
                            {
                                "name": "account",
                                "type": "address",
                                "value": "0xda2d09fbbf8ee4b5051a0e9b562c5fcb4b393b18"
                            }
                        ],
                        "constructorArguments": "",
                        "name": "balanceOf",
                        "returnParams": [
                            {
                                "decimalAvailable": true,
                                "name": "",
                                "type": "uint256",
                                "value": "148,582,893,495,568,856,966,012,131,256"
                            }
                        ],
                        "signature": "balanceOf(address)"
                    },
                    "errorInfo": "",
                    "fromAddress": "0xef1c6e67703c7bd7107eed8303fbe6ec2554bf6b",
                    "gasUsed": 690,
                    "id": 9,
                    "methodDecoded": true,
                    "operation": "STATICCALL",
                    "output": "0x0000000000000000000000000000000000000001e018e38c1a997471efa4d7b8",
                    "revert": false,
                    "revertMessage": "",
                    "selector": "0x70a08231",
                    "status": true,
                    "value": "0"
                },
                "nodeType": 0
            }
        },
        "gasFlame": [
            {
                "children": [
                    {
                        "children": [
                            {
                                "children": [],
                                "depth": 0,
                                "name": "Initial Gas",
                                "value": 28012
                            },
                            {
                                "children": [
                                    {
                                        "children": [
                                            {
                                                "children": [],
                                                "depth": 2,
                                                "name": "ecrecover",
                                                "value": 3000
                                            }
                                        ],
                                        "depth": 1,
                                        "name": "permit",
                                        "value": 30786
                                    },
                                    {
                                        "children": [
                                            {
                                                "children": [],
                                                "depth": 2,
                                                "name": "transferFrom",
                                                "value": 15217
                                            }
                                        ],
                                        "depth": 1,
                                        "name": "transferFrom",
                                        "value": 18924
                                    },
                                    {
                                        "children": [],
                                        "depth": 1,
                                        "name": "balanceOf",
                                        "value": 2534
                                    },
                                    {
                                        "children": [],
                                        "depth": 1,
                                        "name": "getReserves",
                                        "value": 2504
                                    },
                                    {
                                        "children": [],
                                        "depth": 1,
                                        "name": "balanceOf",
                                        "value": 690
                                    },
                                    {
                                        "children": [
                                            {
                                                "children": [],
                                                "depth": 2,
                                                "name": "transfer",
                                                "value": 27962
                                            },
                                            {
                                                "children": [],
                                                "depth": 2,
                                                "name": "balanceOf",
                                                "value": 534
                                            },
                                            {
                                                "children": [],
                                                "depth": 2,
                                                "name": "balanceOf",
                                                "value": 690
                                            }
                                        ],
                                        "depth": 1,
                                        "name": "swap",
                                        "value": 60509
                                    },
                                    {
                                        "children": [],
                                        "depth": 1,
                                        "name": "balanceOf",
                                        "value": 534
                                    },
                                    {
                                        "children": [],
                                        "depth": 1,
                                        "name": "balanceOf",
                                        "value": 534
                                    },
                                    {
                                        "children": [
                                            {
                                                "children": [],
                                                "depth": 2,
                                                "name": "fallback",
                                                "value": 62
                                            }
                                        ],
                                        "depth": 1,
                                        "name": "withdraw",
                                        "value": 9202
                                    },
                                    {
                                        "children": [],
                                        "depth": 1,
                                        "name": "fallback",
                                        "value": 0
                                    }
                                ],
                                "depth": 0,
                                "name": "Executed Gas",
                                "value": 159582
                            }
                        ],
                        "depth": -1,
                        "name": "Actual Gas Used",
                        "value": 157294
                    },
                    {
                        "children": [],
                        "depth": -1,
                        "name": "Refunded Gas",
                        "value": 30300
                    }
                ],
                "depth": -2,
                "name": "Total Gas",
                "value": 187594
            }
        ],
        "isConfirmed": true,
        "mainTrace": [
            {
                "children": [
                    {
                        "children": [
                            {
                                "children": [
                                    {
                                        "children": [],
                                        "depth": 2,
                                        "id": 2,
                                        "order": 2
                                    },
                                    {
                                        "children": [],
                                        "depth": 2,
                                        "id": 3,
                                        "order": 3
                                    }
                                ],
                                "depth": 1,
                                "id": 1,
                                "order": 1
                            },
                            {
                                "children": [
                                    {
                                        "children": [
                                            {
                                                "children": [],
                                                "depth": 3,
                                                "id": 6,
                                                "order": 6
                                            }
                                        ],
                                        "depth": 2,
                                        "id": 5,
                                        "order": 5
                                    }
                                ],
                                "depth": 1,
                                "id": 4,
                                "order": 4
                            },
                            {
                                "children": [],
                                "depth": 1,
                                "id": 7,
                                "order": 7
                            },
                            {
                                "children": [],
                                "depth": 1,
                                "id": 8,
                                "order": 8
                            },
                            {
                                "children": [],
                                "depth": 1,
                                "id": 9,
                                "order": 9
                            },
                            {
                                "children": [
                                    {
                                        "children": [
                                            {
                                                "children": [],
                                                "depth": 3,
                                                "id": 12,
                                                "order": 12
                                            }
                                        ],
                                        "depth": 2,
                                        "id": 11,
                                        "order": 11
                                    },
                                    {
                                        "children": [],
                                        "depth": 2,
                                        "id": 13,
                                        "order": 13
                                    },
                                    {
                                        "children": [],
                                        "depth": 2,
                                        "id": 14,
                                        "order": 14
                                    },
                                    {
                                        "children": [],
                                        "depth": 2,
                                        "id": 15,
                                        "order": 15
                                    },
                                    {
                                        "children": [],
                                        "depth": 2,
                                        "id": 16,
                                        "order": 16
                                    }
                                ],
                                "depth": 1,
                                "id": 10,
                                "order": 10
                            },
                            {
                                "children": [],
                                "depth": 1,
                                "id": 17,
                                "order": 17
                            },
                            {
                                "children": [],
                                "depth": 1,
                                "id": 18,
                                "order": 18
                            },
                            {
                                "children": [
                                    {
                                        "children": [],
                                        "depth": 2,
                                        "id": 20,
                                        "order": 20
                                    },
                                    {
                                        "children": [],
                                        "depth": 2,
                                        "id": 21,
                                        "order": 21
                                    }
                                ],
                                "depth": 1,
                                "id": 19,
                                "order": 19
                            },
                            {
                                "children": [],
                                "depth": 1,
                                "id": 22,
                                "order": 22
                            }
                        ],
                        "depth": 0,
                        "id": 0,
                        "order": 0
                    }
                ],
                "depth": -1,
                "id": -1,
                "order": -1
            }
        ],
        "mainTraceNodeCount": 23,
        "parentIdMap": {
            "0": -1,
            "1": 0,
            "10": 0,
            "11": 10,
            "12": 11,
            "13": 10,
            "14": 10,
            "15": 10,
            "16": 10,
            "17": 0,
            "18": 0,
            "19": 0,
            "2": 1,
            "20": 19,
            "21": 19,
            "22": 0,
            "3": 1,
            "4": 0,
            "5": 4,
            "6": 5,
            "7": 0,
            "8": 0,
            "9": 0
        },
        "tidyTrace": [
            {
                "children": [
                    {
                        "children": [
                            {
                                "children": [
                                    {
                                        "children": [],
                                        "depth": 2,
                                        "id": 3,
                                        "order": 3
                                    }
                                ],
                                "depth": 1,
                                "id": 1,
                                "order": 1
                            },
                            {
                                "children": [
                                    {
                                        "children": [
                                            {
                                                "children": [],
                                                "depth": 3,
                                                "id": 6,
                                                "order": 6
                                            }
                                        ],
                                        "depth": 2,
                                        "id": 5,
                                        "order": 5
                                    }
                                ],
                                "depth": 1,
                                "id": 4,
                                "order": 4
                            },
                            {
                                "children": [
                                    {
                                        "children": [
                                            {
                                                "children": [],
                                                "depth": 3,
                                                "id": 12,
                                                "order": 12
                                            }
                                        ],
                                        "depth": 2,
                                        "id": 11,
                                        "order": 11
                                    },
                                    {
                                        "children": [],
                                        "depth": 2,
                                        "id": 15,
                                        "order": 15
                                    },
                                    {
                                        "children": [],
                                        "depth": 2,
                                        "id": 16,
                                        "order": 16
                                    }
                                ],
                                "depth": 1,
                                "id": 10,
                                "order": 10
                            },
                            {
                                "children": [
                                    {
                                        "children": [],
                                        "depth": 2,
                                        "id": 20,
                                        "order": 20
                                    },
                                    {
                                        "children": [],
                                        "depth": 2,
                                        "id": 21,
                                        "order": 21
                                    }
                                ],
                                "depth": 1,
                                "id": 19,
                                "order": 19
                            },
                            {
                                "children": [],
                                "depth": 1,
                                "id": 22,
                                "order": 22
                            }
                        ],
                        "depth": 0,
                        "id": 0,
                        "order": 0
                    }
                ],
                "depth": -1,
                "id": -1,
                "order": -1
            }
        ],
        "tidyTraceNodeCount": 15
    },
    "state_change": {
        "stateChanges": [
            {
                "address": "0x000000000022d473030f116ddee9f6b43ac78ba3",
                "erc": "",
                "slots": [
                    {
                        "current": "0x0000000000010000647c68deffffffffffffffffffffffffffffffffffffffff",
                        "key": "0xdd793e9df1608fa179aa9c3bd5d026b2f95bd7280a6f2f234e9aa718d10ec3de",
                        "prev": "0x0000000000000000000000000000000000000000000000000000000000000000"
                    }
                ],
                "storageVariables": [
                    {
                        "name": "allowance",
                        "type": "mapping(address => mapping(address => mapping(address => struct IAllowanceTransfer.PackedAllowance)))",
                        "value": {
                            "pairs": [
                                {
                                    "key": "0x34869390da8d3ea4dfd9aef404a0e0ff2487214f",
                                    "value": {
                                        "pairs": [
                                            {
                                                "key": "0xf017d3690346eb8234b85f74cee5e15821fee1f4",
                                                "value": {
                                                    "pairs": [
                                                        {
                                                            "key": "0xef1c6e67703c7bd7107eed8303fbe6ec2554bf6b",
                                                            "value": {
                                                                "fields": [
                                                                    {
                                                                        "name": "amount",
                                                                        "type": "uint160",
                                                                        "value": {
                                                                            "current": "1461501637330902918203684832716283019655932542975",
                                                                            "prev": "0",
                                                                            "typeTag": 1
                                                                        }
                                                                    },
                                                                    {
                                                                        "name": "expiration",
                                                                        "type": "uint48",
                                                                        "value": {
                                                                            "current": "1685874910",
                                                                            "prev": "0",
                                                                            "typeTag": 1
                                                                        }
                                                                    },
                                                                    {
                                                                        "name": "nonce",
                                                                        "type": "uint48",
                                                                        "value": {
                                                                            "current": "1",
                                                                            "prev": "0",
                                                                            "typeTag": 1
                                                                        }
                                                                    }
                                                                ],
                                                                "typeTag": 3
                                                            }
                                                        }
                                                    ],
                                                    "typeTag": 4
                                                }
                                            }
                                        ],
                                        "typeTag": 4
                                    }
                                }
                            ],
                            "typeTag": 4
                        }
                    }
                ]
            },
            {
                "address": "0xc02aaa39b223fe8d0a0e5c4f27ead9083c756cc2",
                "erc": "ERC-20",
                "slots": [
                    {
                        "current": "0x000000000000000000000000000000000000000000000004e65dce1198fec03c",
                        "key": "0xcfca21ece3e9ae32a246efe5427bcca02f1380381bb14eb1134d43dd17a5e9dc",
                        "prev": "0x000000000000000000000000000000000000000000000004ee806f58a526cf4e"
                    }
                ],
                "storageVariables": [
                    {
                        "name": "balanceOf",
                        "type": "mapping(address => uint256)",
                        "value": {
                            "pairs": [
                                {
                                    "key": "0xda2d09fbbf8ee4b5051a0e9b562c5fcb4b393b18",
                                    "value": {
                                        "current": "90386626671372320828",
                                        "prev": "90972834899402608462",
                                        "typeTag": 1
                                    }
                                }
                            ],
                            "typeTag": 4
                        }
                    }
                ]
            },
            {
                "address": "0xda2d09fbbf8ee4b5051a0e9b562c5fcb4b393b18",
                "erc": "ERC-20",
                "slots": [
                    {
                        "current": "0x0000000000000000000000001b5c41728e515c4e37ff6c1f3a075b2d6f0ab9fc",
                        "key": "0x0000000000000000000000000000000000000000000000000000000000000009",
                        "prev": "0x0000000000000000000000001b57b8cb581179f214f3b8a28694e33d24ab4ad0"
                    },
                    {
                        "current": "0x00000000000000000000000000000000000000001c5b67f90cc779d4bf36c9a8",
                        "key": "0x000000000000000000000000000000000000000000000000000000000000000a",
                        "prev": "0x00000000000000000000000000000000000000001c3ba50c39b2721d8ca59190"
                    },
                    {
                        "current": "0x6454dbeb0001e018e38c1a997471efa4d7b8000000000004e65dce1198fec03c",
                        "key": "0x0000000000000000000000000000000000000000000000000000000000000008",
                        "prev": "0x6454dbdf0001dcfe8cd25f0c9f379624d077000000000004ee806f58a526cf4e"
                    }
                ],
                "storageVariables": [
                    {
                        "name": "price0CumulativeLast",
                        "type": "uint256",
                        "value": {
                            "current": "156200120650456701512143085432137280494347401724",
                            "prev": "156099013499510566230428954326226961805444074192",
                            "typeTag": 1
                        }
                    },
                    {
                        "name": "price1CumulativeLast",
                        "type": "uint256",
                        "value": {
                            "current": "8776083522490441709796116904",
                            "prev": "8737686314343038298832081296",
                            "typeTag": 1
                        }
                    },
                    {
                        "name": "reserve0",
                        "type": "uint112",
                        "value": {
                            "current": "90386626671372320828",
                            "prev": "90972834899402608462",
                            "typeTag": 1
                        }
                    },
                    {
                        "name": "reserve1",
                        "type": "uint112",
                        "value": {
                            "current": "148582893495568856966012131256",
                            "prev": "147622596845115249947121602679",
                            "typeTag": 1
                        }
                    },
                    {
                        "name": "blockTimestampLast",
                        "type": "uint32",
                        "value": {
                            "current": "1683282923",
                            "prev": "1683282911",
                            "typeTag": 1
                        }
                    }
                ]
            },
            {
                "address": "0xf017d3690346eb8234b85f74cee5e15821fee1f4",
                "erc": "ERC-20",
                "slots": [
                    {
                        "current": "0x0000000000000000000000000000000000000000000000000000000000000000",
                        "key": "0x49324f271e9591bd7d5a1b63c418ca8839fee570a703209d50bcfbc7c03529c4",
                        "prev": "0x0000000000000000000000000000000000000000031a56b9bb8cd53a59800741"
                    },
                    {
                        "current": "0x0000000000000000000000000000000000000001e018e38c1a997471efa4d7b8",
                        "key": "0x6a87e6628c680e91b3aaa27ab7010e416d0db06ba8c5520e8026859c8e2f0803",
                        "prev": "0x0000000000000000000000000000000000000001dcfe8cd25f0c9f379624d077"
                    }
                ],
                "storageVariables": [
                    {
                        "name": "_balances",
                        "type": "mapping(address => uint256)",
                        "value": {
                            "pairs": [
                                {
                                    "key": "0x34869390da8d3ea4dfd9aef404a0e0ff2487214f",
                                    "value": {
                                        "current": "0",
                                        "prev": "960296650453607018890528577",
                                        "typeTag": 1
                                    }
                                },
                                {
                                    "key": "0xda2d09fbbf8ee4b5051a0e9b562c5fcb4b393b18",
                                    "value": {
                                        "current": "148582893495568856966012131256",
                                        "prev": "147622596845115249947121602679",
                                        "typeTag": 1
                                    }
                                }
                            ],
                            "typeTag": 4
                        }
                    }
                ]
            }
        ]
    }
}