{
    "balance_change": {
        "balanceChanges": [
            {
                "account": "0x836a38c8f1dc7ef8c5c172819a33bc26e2d94ca1",
                "assets": [
                    {
                        "address": "0xeeeeeeeeeeeeeeeeeeeeeeeeeeeeeeeeeeeeeeee",
                        "amount": "0.05",
                        "iconUrl": "https://assets.blocksec.com/image/1663669189317-3.png",
                        "isERC1155": false,
                        "isERC721": false,
                        "sign": false,
                        "value": "86.280999999999994546"
                    },
                    {
                        "address": "0x9a8ff01590eb74165842be0b1835b1fd6a243ee1",
                        "amount": "69,394.835759826",
                        "iconUrl": "",
                        "isERC1155": false,
                        "isERC721": false,
                        "sign": true,
                        "value": "76.3777628"
                    }
                ]
            },
            {
                "account": "0x5969d46313aa7482d24b02b3f041abc39f2dd5ca",
                "assets": [
                    {
                        "address": "0xc02aaa39b223fe8d0a0e5c4f27ead9083c756cc2",
                        "amount": "0.0495",
                        "iconUrl": "https://assets.blocksec.com/icon/f1cb2d02c471d545bbc7722daf3277fd852d98e63d118771af7047bd8256c516.png",
                        "isERC1155": false,
                        "isERC721": false,
                        "sign": true,
                        "value": "85.4181899999999946"
                    },
                    {
                        "address": "0x9a8ff01590eb74165842be0b1835b1fd6a243ee1",
                        "amount": "73,824.293361517",
                        "iconUrl": "",
                        "isERC1155": false,
                        "isERC721": false,
                        "sign": false,
                        "value": "81.8710428"
                    }
                ]
            },
            {
                "account": "0x61131513c4ff67bcd3318eb309834d26a3509cdb",
                "assets": [
                    {
                        "address": "0xeeeeeeeeeeeeeeeeeeeeeeeeeeeeeeeeeeeeeeee",
                        "amount": "0.0005",
                        "iconUrl": "https://assets.blocksec.com/image/1663669189317-3.png",
                        "isERC1155": false,
                        "isERC721": false,
                        "sign": true,
                        "value": "0.8628099999999999454"
                    }
                ]
            },
            {
                "account": "0x9a8ff01590eb74165842be0b1835b1fd6a243ee1",
                "assets": [
                    {
                        "address": "0x9a8ff01590eb74165842be0b1835b1fd6a243ee1",
                        "amount": "4,429.457601691",
                        "iconUrl": "",
                        "isERC1155": false,
                        "isERC721": false,
                        "sign": true,
                        "value": "4.89308663"
                    }
                ]
            },
            {
                "account": "0xc02aaa39b223fe8d0a0e5c4f27ead9083c756cc2",
                "assets": [
                    {
                        "address": "0xeeeeeeeeeeeeeeeeeeeeeeeeeeeeeeeeeeeeeeee",
                        "amount": "0.0495",
                        "iconUrl": "https://assets.blocksec.com/image/1663669189317-3.png",
                        "isERC1155": false,
                        "isERC721": false,
                        "sign": true,
                        "value": "85.4181899999999946"
                    },
                    {
                        "address": "0xc02aaa39b223fe8d0a0e5c4f27ead9083c756cc2",
                        "amount": "0.0495",
                        "iconUrl": "https://assets.blocksec.com/icon/f1cb2d02c471d545bbc7722daf3277fd852d98e63d118771af7047bd8256c516.png",
                        "isERC1155": false,
                        "isERC721": false,
                        "sign": false,
                        "value": "85.4181899999999946"
                    }
                ]
            }
        ]
    },
    "profile": {
        "basic_info": {
            "baseFee": "9.043945828",
            "blockNumber": 18258160,
            "callData": "0xbd7c30970000000000000000000000009a8ff01590eb74165842be0b1835b1fd6a243ee10000000000000000000000000000000000000000000000000000000000000064000000000000000000000000000000000000000000000000000000000000000000000000000000000000000000000000000000000000000000000000000000a0000000000000000000000000000000000000000000000000000000006519dacf000000000000000000000000000000000000000000000000000000000000000180000000000000003b6d03405969d46313aa7482d24b02b3f041abc39f2dd5ca",
            "debugEnable": true,
            "errorInfo": "",
            "eventCount": 7,
            "feeRecipient": "0x95222290dd7278aa3ddd389cc1e1d165cc4bafe5",
            "formatValue": "0.05",
            "gasLimit": 234817,
            "gasPrice": "10.043945828",
            "gasUsed": 151485,
            "intTxnCount": 12,
            "internalRevert": false,
            "internalRevertMessage": "",
            "isContractCreation": false,
            "isFlashloan": false,
            "maxFee": "11.331809125",
            "nonce": 193,
            "overwritedBlockNumber": -1,
            "priorityFee": "1",
            "receiver": "0x43579754589644805ef2bb4696bfe6a5cf7aa809",
            "revertMessage": "",
            "sender": "0x836a38c8f1dc7ef8c5c172819a33bc26e2d94ca1",
            "simulationEnable": true,
            "sourceTxnHash": "0x130e1a120556f9a7dcbdf1f82c9f93c0b8aa1418c25b03a2e9ee31edafdb41c6",
            "status": true,
            "timestamp": "2023-10-01T20:46:23Z",
            "transactionFee": "0.00152150713375458",
            "txnHash": "0x130e1a120556f9a7dcbdf1f82c9f93c0b8aa1418c25b03a2e9ee31edafdb41c6",
            "txnIndex": 73,
            "type": 2,
            "value": "50000000000000000"
        },
        "fund_flow": [
            {
                "amount": "0.05",
                "from": "0x836a38c8f1dc7ef8c5c172819a33bc26e2d94ca1",
                "id": 1,
                "isERC1155": false,
                "isERC721": false,
                "isReverted": false,
                "order": 1,
                "to": "0x43579754589644805ef2bb4696bfe6a5cf7aa809",
                "token": "0xeeeeeeeeeeeeeeeeeeeeeeeeeeeeeeeeeeeeeeee"
            },
            {
                "amount": "0.0005",
                "from": "0x43579754589644805ef2bb4696bfe6a5cf7aa809",
                "id": 2,
                "isERC1155": false,
                "isERC721": false,
                "isReverted": false,
                "order": 2,
                "to": "0x61131513c4ff67bcd3318eb309834d26a3509cdb",
                "token": "0xeeeeeeeeeeeeeeeeeeeeeeeeeeeeeeeeeeeeeeee"
            },
            {
                "amount": "0.0495",
                "from": "0x43579754589644805ef2bb4696bfe6a5cf7aa809",
                "id": 3,
                "isERC1155": false,
                "isERC721": false,
                "isReverted": false,
                "order": 3,
                "to": "0xc02aaa39b223fe8d0a0e5c4f27ead9083c756cc2",
                "token": "0xeeeeeeeeeeeeeeeeeeeeeeeeeeeeeeeeeeeeeeee"
            },
            {
                "amount": "0.0495",
                "from": "0xc02aaa39b223fe8d0a0e5c4f27ead9083c756cc2",
                "id": 4,
                "isERC1155": false,
                "isERC721": false,
                "isReverted": false,
                "order": 4,
                "to": "0x43579754589644805ef2bb4696bfe6a5cf7aa809",
                "token": "0xc02aaa39b223fe8d0a0e5c4f27ead9083c756cc2"
            },
            {
                "amount": "0.0495",
                "from": "0x43579754589644805ef2bb4696bfe6a5cf7aa809",
                "id": 5,
                "isERC1155": false,
                "isERC721": false,
                "isReverted": false,
                "order": 5,
                "to": "0x5969d46313aa7482d24b02b3f041abc39f2dd5ca",
                "token": "0xc02aaa39b223fe8d0a0e5c4f27ead9083c756cc2"
            },
            {
                "amount": "69,394.835759826",
                "from": "0x5969d46313aa7482d24b02b3f041abc39f2dd5ca",
                "id": 6,
                "isERC1155": false,
                "isERC721": false,
                "isReverted": false,
                "order": 6,
                "to": "0x836a38c8f1dc7ef8c5c172819a33bc26e2d94ca1",
                "token": "0x9a8ff01590eb74165842be0b1835b1fd6a243ee1"
            },
            {
                "amount": "4,429.457601691",
                "from": "0x5969d46313aa7482d24b02b3f041abc39f2dd5ca",
                "id": 7,
                "isERC1155": false,
                "isERC721": false,
                "isReverted": false,
                "order": 7,
                "to": "0x9a8ff01590eb74165842be0b1835b1fd6a243ee1",
                "token": "0x9a8ff01590eb74165842be0b1835b1fd6a243ee1"
            }
        ],
        "token_infos": [
            {
                "address": "0x9a8ff01590eb74165842be0b1835b1fd6a243ee1",
                "decimals": 9
            },
            {
                "address": "0xc02aaa39b223fe8d0a0e5c4f27ead9083c756cc2",
                "decimals": 18
            },
            {
                "address": "0xeeeeeeeeeeeeeeeeeeeeeeeeeeeeeeeeeeeeeeee",
                "decimals": 18
            }
        ]
    },
    "address_label": {
        "labels": [
            {
                "address": "0xc02aaa39b223fe8d0a0e5c4f27ead9083c756cc2",
                "label": "Wrapped Ether (WETH)"
            },
            {
                "address": "0x5969d46313aa7482d24b02b3f041abc39f2dd5ca",
                "label": "Uniswap V2: ODDS 5"
            },
            {
                "address": "0x0000000000000000000000000000000000000001",
                "label": "Precompiled"
            },
            {
                "address": "0x0000000000000000000000000000000000000002",
                "label": "Precompiled"
            },
            {
                "address": "0x0000000000000000000000000000000000000003",
                "label": "Precompiled"
            },
            {
                "address": "0x0000000000000000000000000000000000000004",
                "label": "Precompiled"
            },
            {
                "address": "0xeeeeeeeeeeeeeeeeeeeeeeeeeeeeeeeeeeeeeeee",
                "label": "Ether"
            },
            {
                "address": "0x9a8ff01590eb74165842be0b1835b1fd6a243ee1",
                "label": "Oddsbots (ODDS)"
            }
        ]
    },
    "trace": {
        "accountLabels": null,
        "dataMap": {
            "-1": {
                "invocation": {
                    "address": "0x836a38c8f1dc7ef8c5c172819a33bc26e2d94ca1",
                    "callData": "",
                    "decodedMethod": null,
                    "errorInfo": "",
                    "fromAddress": "",
                    "gasUsed": 0,
                    "id": -1,
                    "methodDecoded": false,
                    "operation": "",
                    "output": "",
                    "revert": false,
                    "revertMessage": "",
                    "selector": "",
                    "status": false,
                    "value": ""
                },
                "nodeType": 0
            },
            "0": {
                "invocation": {
                    "address": "0x43579754589644805ef2bb4696bfe6a5cf7aa809",
                    "callData": "0x0000000000000000000000009a8ff01590eb74165842be0b1835b1fd6a243ee10000000000000000000000000000000000000000000000000000000000000064000000000000000000000000000000000000000000000000000000000000000000000000000000000000000000000000000000000000000000000000000000a0000000000000000000000000000000000000000000000000000000006519dacf000000000000000000000000000000000000000000000000000000000000000180000000000000003b6d03405969d46313aa7482d24b02b3f041abc39f2dd5ca",
                    "decodedMethod": null,
                    "errorInfo": "",
                    "fromAddress": "0x836a38c8f1dc7ef8c5c172819a33bc26e2d94ca1",
                    "gasUsed": 151485,
                    "id": 0,
                    "methodDecoded": false,
                    "operation": "CALL",
                    "output": "0x00000000000000000000000000000000000000000000000000003f1d3e88e2d2",
                    "revert": false,
                    "revertMessage": "",
                    "selector": "0xbd7c3097",
                    "status": true,
                    "value": "0.05"
                },
                "nodeType": 0
            },
            "1": {
                "invocation": {
                    "address": "0x61131513c4ff67bcd3318eb309834d26a3509cdb",
                    "callData": "0x",
                    "decodedMethod": null,
                    "errorInfo": "",
                    "fromAddress": "0x43579754589644805ef2bb4696bfe6a5cf7aa809",
                    "gasUsed": 0,
                    "id": 1,
                    "methodDecoded": false,
                    "operation": "CALL",
                    "output": "",
                    "revert": false,
                    "revertMessage": "",
                    "selector": "fallback",
                    "status": true,
                    "value": "0.0005"
                },
                "nodeType": 0
            },
            "10": {
                "invocation": {
                    "address": "0xc02aaa39b223fe8d0a0e5c4f27ead9083c756cc2",
                    "callData": "0x0000000000000000000000005969d46313aa7482d24b02b3f041abc39f2dd5ca",
                    "decodedMethod": {
                        "callParams": [
                            {
                                "name": "",
                                "type": "address",
                                "value": "0x5969d46313aa7482d24b02b3f041abc39f2dd5ca"
                            }
                        ],
                        "constructorArguments": "",
                        "name": "balanceOf",
                        "returnParams": [
                            {
                                "decimalAvailable": true,
                                "name": "",
                                "type": "uint256",
                                "value": "13,346,384,942,078,128,143"
                            }
                        ],
                        "signature": "balanceOf(address)"
                    },
                    "errorInfo": "",
                    "fromAddress": "0x43579754589644805ef2bb4696bfe6a5cf7aa809",
                    "gasUsed": 534,
                    "id": 10,
                    "methodDecoded": true,
                    "operation": "STATICCALL",
                    "output": "0x000000000000000000000000000000000000000000000000b937e2648430700f",
                    "revert": false,
                    "revertMessage": "",
                    "selector": "0x70a08231",
                    "status": true,
                    "value": "0"
                },
                "nodeType": 0
            },
            "11": {
                "invocation": {
                    "address": "0x5969d46313aa7482d24b02b3f041abc39f2dd5ca",
                    "callData": "0x000000000000000000000000000000000000000000000000000043248ec8176d0000000000000000000000000000000000000000000000000000000000000000000000000000000000000000836a38c8f1dc7ef8c5c172819a33bc26e2d94ca100000000000000000000000000000000000000000000000000000000000000800000000000000000000000000000000000000000000000000000000000000000",
                    "decodedMethod": {
                        "callParams": [
                            {
                                "name": "amount0Out",
                                "type": "uint256",
                                "value": "73,824,293,361,517"
                            },
                            {
                                "name": "amount1Out",
                                "type": "uint256",
                                "value": "0"
                            },
                            {
                                "name": "to",
                                "type": "address",
                                "value": "0x836a38c8f1dc7ef8c5c172819a33bc26e2d94ca1"
                            },
                            {
                                "name": "data",
                                "type": "bytes",
                                "value": "0x"
                            }
                        ],
                        "constructorArguments": "",
                        "name": "swap",
                        "returnParams": [],
                        "signature": "swap(uint256,uint256,address,bytes)"
                    },
                    "errorInfo": "",
                    "fromAddress": "0x43579754589644805ef2bb4696bfe6a5cf7aa809",
                    "gasUsed": 77960,
                    "id": 11,
                    "methodDecoded": true,
                    "operation": "CALL",
                    "output": "",
                    "revert": false,
                    "revertMessage": "",
                    "selector": "0x022c0d9f",
                    "status": true,
                    "value": "0"
                },
                "nodeType": 0
            },
            "12": {
                "invocation": {
                    "address": "0x9a8ff01590eb74165842be0b1835b1fd6a243ee1",
                    "callData": "0x000000000000000000000000836a38c8f1dc7ef8c5c172819a33bc26e2d94ca1000000000000000000000000000000000000000000000000000043248ec8176d",
                    "decodedMethod": {
                        "callParams": [
                            {
                                "name": "recipient",
                                "type": "address",
                                "value": "0x836a38c8f1dc7ef8c5c172819a33bc26e2d94ca1"
                            },
                            {
                                "decimalAvailable": true,
                                "name": "amount",
                                "type": "uint256",
                                "value": "73,824,293,361,517"
                            }
                        ],
                        "constructorArguments": "",
                        "name": "transfer",
                        "returnParams": [
                            {
                                "name": "",
                                "type": "bool",
                                "value": true
                            }
                        ],
                        "signature": "transfer(address,uint256)"
                    },
                    "errorInfo": "",
                    "fromAddress": "0x5969d46313aa7482d24b02b3f041abc39f2dd5ca",
                    "gasUsed": 47150,
                    "id": 12,
                    "methodDecoded": true,
                    "operation": "CALL",
                    "output": "0x0000000000000000000000000000000000000000000000000000000000000001",
                    "revert": false,
                    "revertMessage": "",
                    "selector": "0xa9059cbb",
                    "status": true,
                    "value": "0"
                },
                "nodeType": 0
            },
            "13": {
                "event": {
                    "contract": "0x9a8ff01590eb74165842be0b1835b1fd6a243ee1",
                    "decodedLog": {
                        "name": "Transfer",
                        "params": [
                            {
                                "name": "from",
                                "type": "address",
                                "value": "0x5969d46313aa7482d24b02b3f041abc39f2dd5ca"
                            },
                            {
                                "name": "to",
                                "type": "address",
                                "value": "0x836a38c8f1dc7ef8c5c172819a33bc26e2d94ca1"
                            },
                            {
                                "decimalAvailable": true,
                                "name": "value",
                                "type": "uint256",
                                "value": "69,394,835,759,826"
                            }
                        ],
                        "signature": "Transfer(address,address,uint256)"
                    },
                    "id": 13,
                    "logData": "0x00000000000000000000000000000000000000000000000000003f1d3e88e2d2",
                    "logDecoded": true,
                    "operation": "EVENT",
                    "revert": false,
                    "status": true,
                    "topics": [
                        "0xddf252ad1be2c89b69c2b068fc378daa952ba7f163c4a11628f55a4df523b3ef",
                        "0x0000000000000000000000005969d46313aa7482d24b02b3f041abc39f2dd5ca",
                        "0x000000000000000000000000836a38c8f1dc7ef8c5c172819a33bc26e2d94ca1"
                    ]
                },
                "nodeType": 1
            },
            "14": {
                "event": {
                    "contract": "0x9a8ff01590eb74165842be0b1835b1fd6a243ee1",
                    "decodedLog": {
                        "name": "Transfer",
                        "params": [
                            {
                                "name": "from",
                                "type": "address",
                                "value": "0x5969d46313aa7482d24b02b3f041abc39f2dd5ca"
                            },
                            {
                                "name": "to",
                                "type": "address",
                                "value": "0x9a8ff01590eb74165842be0b1835b1fd6a243ee1"
                            },
                            {
                                "decimalAvailable": true,
                                "name": "value",
                                "type": "uint256",
                                "value": "4,429,457,601,691"
                            }
                        ],
                        "signature": "Transfer(address,address,uint256)"
                    },
                    "id": 14,
                    "logData": "0x00000000000000000000000000000000000000000000000000000407503f349b",
                    "logDecoded": true,
                    "operation": "EVENT",
                    "revert": false,
                    "status": true,
                    "topics": [
                        "0xddf252ad1be2c89b69c2b068fc378daa952ba7f163c4a11628f55a4df523b3ef",
                        "0x0000000000000000000000005969d46313aa7482d24b02b3f041abc39f2dd5ca",
                        "0x0000000000000000000000009a8ff01590eb74165842be0b1835b1fd6a243ee1"
                    ]
                },
                "nodeType": 1
            },
            "15": {
                "invocation": {
                    "address": "0x9a8ff01590eb74165842be0b1835b1fd6a243ee1",
                    "callData": "0x0000000000000000000000005969d46313aa7482d24b02b3f041abc39f2dd5ca",
                    "decodedMethod": {
                        "callParams": [
                            {
                                "name": "account",
                                "type": "address",
                                "value": "0x5969d46313aa7482d24b02b3f041abc39f2dd5ca"
                            }
                        ],
                        "constructorArguments": "",
                        "name": "balanceOf",
                        "returnParams": [
                            {
                                "decimalAvailable": true,
                                "name": "",
                                "type": "uint256",
                                "value": "19,890,644,352,417,200"
                            }
                        ],
                        "signature": "balanceOf(address)"
                    },
                    "errorInfo": "",
                    "fromAddress": "0x5969d46313aa7482d24b02b3f041abc39f2dd5ca",
                    "gasUsed": 953,
                    "id": 15,
                    "methodDecoded": true,
                    "operation": "STATICCALL",
                    "output": "0x0000000000000000000000000000000000000000000000000046aa6f86fabdb0",
                    "revert": false,
                    "revertMessage": "",
                    "selector": "0x70a08231",
                    "status": true,
                    "value": "0"
                },
                "nodeType": 0
            },
            "16": {
                "invocation": {
                    "address": "0xc02aaa39b223fe8d0a0e5c4f27ead9083c756cc2",
                    "callData": "0x0000000000000000000000005969d46313aa7482d24b02b3f041abc39f2dd5ca",
                    "decodedMethod": {
                        "callParams": [
                            {
                                "name": "",
                                "type": "address",
                                "value": "0x5969d46313aa7482d24b02b3f041abc39f2dd5ca"
                            }
                        ],
                        "constructorArguments": "",
                        "name": "balanceOf",
                        "returnParams": [
                            {
                                "decimalAvailable": true,
                                "name": "",
                                "type": "uint256",
                                "value": "13,346,384,942,078,128,143"
                            }
                        ],
                        "signature": "balanceOf(address)"
                    },
                    "errorInfo": "",
                    "fromAddress": "0x5969d46313aa7482d24b02b3f041abc39f2dd5ca",
                    "gasUsed": 534,
                    "id": 16,
                    "methodDecoded": true,
                    "operation": "STATICCALL",
                    "output": "0x000000000000000000000000000000000000000000000000b937e2648430700f",
                    "revert": false,
                    "revertMessage": "",
                    "selector": "0x70a08231",
                    "status": true,
                    "value": "0"
                },
                "nodeType": 0
            },
            "17": {
                "event": {
                    "contract": "0x5969d46313aa7482d24b02b3f041abc39f2dd5ca",
                    "decodedLog": {
                        "name": "Sync",
                        "params": [
                            {
                                "name": "reserve0",
                                "type": "uint112",
                                "value": "19,890,644,352,417,200"
                            },
                            {
                                "name": "reserve1",
                                "type": "uint112",
                                "value": "13,346,384,942,078,128,143"
                            }
                        ],
                        "signature": "Sync(uint112,uint112)"
                    },
                    "id": 17,
                    "logData": "0x0000000000000000000000000000000000000000000000000046aa6f86fabdb0000000000000000000000000000000000000000000000000b937e2648430700f",
                    "logDecoded": true,
                    "operation": "EVENT",
                    "revert": false,
                    "status": true,
                    "topics": [
                        "0x1c411e9a96e071241c2f21f7726b17ae89e3cab4c78be50e062b03a9fffbbad1"
                    ]
                },
                "nodeType": 1
            },
            "18": {
                "event": {
                    "contract": "0x5969d46313aa7482d24b02b3f041abc39f2dd5ca",
                    "decodedLog": {
                        "name": "Swap",
                        "params": [
                            {
                                "name": "sender",
                                "type": "address",
                                "value": "0x43579754589644805ef2bb4696bfe6a5cf7aa809"
                            },
                            {
                                "name": "to",
                                "type": "address",
                                "value": "0x836a38c8f1dc7ef8c5c172819a33bc26e2d94ca1"
                            },
                            {
                                "name": "amount0In",
                                "type": "uint256",
                                "value": "0"
                            },
                            {
                                "name": "amount1In",
                                "type": "uint256",
                                "value": "49,500,000,000,000,000"
                            },
                            {
                                "name": "amount0Out",
                                "type": "uint256",
                                "value": "73,824,293,361,517"
                            },
                            {
                                "name": "amount1Out",
                                "type": "uint256",
                                "value": "0"
                            }
                        ],
                        "signature": "Swap(address,uint256,uint256,uint256,uint256,address)"
                    },
                    "id": 18,
                    "logData": "0x000000000000000000000000000000000000000000000000000000000000000000000000000000000000000000000000000000000000000000afdbfcdc61c000000000000000000000000000000000000000000000000000000043248ec8176d0000000000000000000000000000000000000000000000000000000000000000",
                    "logDecoded": true,
                    "operation": "EVENT",
                    "revert": false,
                    "status": true,
                    "topics": [
                        "0xd78ad95fa46c994b6551d0da85fc275fe613ce37657fb8d5e3d130840159d822",
                        "0x00000000000000000000000043579754589644805ef2bb4696bfe6a5cf7aa809",
                        "0x000000000000000000000000836a38c8f1dc7ef8c5c172819a33bc26e2d94ca1"
                    ]
                },
                "nodeType": 1
            },
            "19": {
                "invocation": {
                    "address": "0x9a8ff01590eb74165842be0b1835b1fd6a243ee1",
                    "callData": "0x000000000000000000000000836a38c8f1dc7ef8c5c172819a33bc26e2d94ca1",
                    "decodedMethod": {
                        "callParams": [
                            {
                                "name": "account",
                                "type": "address",
                                "value": "0x836a38c8f1dc7ef8c5c172819a33bc26e2d94ca1"
                            }
                        ],
                        "constructorArguments": "",
                        "name": "balanceOf",
                        "returnParams": [
                            {
                                "decimalAvailable": true,
                                "name": "",
                                "type": "uint256",
                                "value": "273,253,522,167,817"
                            }
                        ],
                        "signature": "balanceOf(address)"
                    },
                    "errorInfo": "",
                    "fromAddress": "0x43579754589644805ef2bb4696bfe6a5cf7aa809",
                    "gasUsed": 953,
                    "id": 19,
                    "methodDecoded": true,
                    "operation": "STATICCALL",
                    "output": "0x0000000000000000000000000000000000000000000000000000f885cb1f5809",
                    "revert": false,
                    "revertMessage": "",
                    "selector": "0x70a08231",
                    "status": true,
                    "value": "0"
                },
                "nodeType": 0
            },
            "2": {
                "event": {
                    "contract": "0x43579754589644805ef2bb4696bfe6a5cf7aa809",
                    "decodedLog": null,
                    "id": 2,
                    "logData": "0x0000000000000000000000000000000000000000000000000001c6bf52634000",
                    "logDecoded": false,
                    "operation": "EVENT",
                    "revert": false,
                    "status": true,
                    "topics": [
                        "0x581987603c7aa31bb560e7308ad915613f58e1a7b38da7cd285964ad30f3a8dc",
                        "0x00000000000000000000000061131513c4ff67bcd3318eb309834d26a3509cdb"
                    ]
                },
                "nodeType": 1
            },
            "3": {
                "invocation": {
                    "address": "0xc02aaa39b223fe8d0a0e5c4f27ead9083c756cc2",
                    "callData": "0x",
                    "decodedMethod": {
                        "callParams": [],
                        "constructorArguments": "",
                        "name": "deposit",
                        "returnParams": [],
                        "signature": "deposit()"
                    },
                    "errorInfo": "",
                    "fromAddress": "0x43579754589644805ef2bb4696bfe6a5cf7aa809",
                    "gasUsed": 23974,
                    "id": 3,
                    "methodDecoded": true,
                    "operation": "CALL",
                    "output": "",
                    "revert": false,
                    "revertMessage": "",
                    "selector": "0xd0e30db0",
                    "status": true,
                    "value": "0.0495"
                },
                "nodeType": 0
            },
            "4": {
                "event": {
                    "contract": "0xc02aaa39b223fe8d0a0e5c4f27ead9083c756cc2",
                    "decodedLog": {
                        "name": "Deposit",
                        "params": [
                            {
                                "name": "dst",
                                "type": "address",
                                "value": "0x43579754589644805ef2bb4696bfe6a5cf7aa809"
                            },
                            {
                                "name": "wad",
                                "type": "uint256",
                                "value": "49,500,000,000,000,000"
                            }
                        ],
                        "signature": "Deposit(address,uint256)"
                    },
                    "id": 4,
                    "logData": "0x00000000000000000000000000000000000000000000000000afdbfcdc61c000",
                    "logDecoded": true,
                    "operation": "EVENT",
                    "revert": false,
                    "status": true,
                    "topics": [
                        "0xe1fffcc4923d04b559f4d29a8bfc6cda04eb5b0d3c460751c2402c5c5cc9109c",
                        "0x00000000000000000000000043579754589644805ef2bb4696bfe6a5cf7aa809"
                    ]
                },
                "nodeType": 1
            },
            "5": {
                "invocation": {
                    "address": "0xc02aaa39b223fe8d0a0e5c4f27ead9083c756cc2",
                    "callData": "0x0000000000000000000000005969d46313aa7482d24b02b3f041abc39f2dd5ca00000000000000000000000000000000000000000000000000afdbfcdc61c000",
                    "decodedMethod": {
                        "callParams": [
                            {
                                "name": "dst",
                                "type": "address",
                                "value": "0x5969d46313aa7482d24b02b3f041abc39f2dd5ca"
                            },
                            {
                                "decimalAvailable": true,
                                "name": "wad",
                                "type": "uint256",
                                "value": "49,500,000,000,000,000"
                            }
                        ],
                        "constructorArguments": "",
                        "name": "transfer",
                        "returnParams": [
                            {
                                "name": "",
                                "type": "bool",
                                "value": true
                            }
                        ],
                        "signature": "transfer(address,uint256)"
                    },
                    "errorInfo": "",
                    "fromAddress": "0x43579754589644805ef2bb4696bfe6a5cf7aa809",
                    "gasUsed": 8062,
                    "id": 5,
                    "methodDecoded": true,
                    "operation": "CALL",
                    "output": "0x0000000000000000000000000000000000000000000000000000000000000001",
                    "revert": false,
                    "revertMessage": "",
                    "selector": "0xa9059cbb",
                    "status": true,
                    "value": "0"
                },
                "nodeType": 0
            },
            "6": {
                "event": {
                    "contract": "0xc02aaa39b223fe8d0a0e5c4f27ead9083c756cc2",
                    "decodedLog": {
                        "name": "Transfer",
                        "params": [
                            {
                                "name": "src",
                                "type": "address",
                                "value": "0x43579754589644805ef2bb4696bfe6a5cf7aa809"
                            },
                            {
                                "name": "dst",
                                "type": "address",
                                "value": "0x5969d46313aa7482d24b02b3f041abc39f2dd5ca"
                            },
                            {
                                "decimalAvailable": true,
                                "name": "wad",
                                "type": "uint256",
                                "value": "49,500,000,000,000,000"
                            }
                        ],
                        "signature": "Transfer(address,address,uint256)"
                    },
                    "id": 6,
                    "logData": "0x00000000000000000000000000000000000000000000000000afdbfcdc61c000",
                    "logDecoded": true,
                    "operation": "EVENT",
                    "revert": false,
                    "status": true,
                    "topics": [
                        "0xddf252ad1be2c89b69c2b068fc378daa952ba7f163c4a11628f55a4df523b3ef",
                        "0x00000000000000000000000043579754589644805ef2bb4696bfe6a5cf7aa809",
                        "0x0000000000000000000000005969d46313aa7482d24b02b3f041abc39f2dd5ca"
                    ]
                },
                "nodeType": 1
            },
            "7": {
                "invocation": {
                    "address": "0x9a8ff01590eb74165842be0b1835b1fd6a243ee1",
                    "callData": "0x000000000000000000000000836a38c8f1dc7ef8c5c172819a33bc26e2d94ca1",
                    "decodedMethod": {
                        "callParams": [
                            {
                                "name": "account",
                                "type": "address",
                                "value": "0x836a38c8f1dc7ef8c5c172819a33bc26e2d94ca1"
                            }
                        ],
                        "constructorArguments": "",
                        "name": "balanceOf",
                        "returnParams": [
                            {
                                "decimalAvailable": true,
                                "name": "",
                                "type": "uint256",
                                "value": "203,858,686,407,991"
                            }
                        ],
                        "signature": "balanceOf(address)"
                    },
                    "errorInfo": "",
                    "fromAddress": "0x43579754589644805ef2bb4696bfe6a5cf7aa809",
                    "gasUsed": 2953,
                    "id": 7,
                    "methodDecoded": true,
                    "operation": "STATICCALL",
                    "output": "0x0000000000000000000000000000000000000000000000000000b9688c967537",
                    "revert": false,
                    "revertMessage": "",
                    "selector": "0x70a08231",
                    "status": true,
                    "value": "0"
                },
                "nodeType": 0
            },
            "8": {
                "invocation": {
                    "address": "0x5969d46313aa7482d24b02b3f041abc39f2dd5ca",
                    "callData": "0x",
                    "decodedMethod": {
                        "callParams": [],
                        "constructorArguments": "",
                        "name": "getReserves",
                        "returnParams": [
                            {
                                "name": "_reserve0",
                                "type": "uint112",
                                "value": "19,964,468,645,778,717"
                            },
                            {
                                "name": "_reserve1",
                                "type": "uint112",
                                "value": "13,296,884,942,078,128,143"
                            },
                            {
                                "name": "_blockTimestampLast",
                                "type": "uint32",
                                "value": "1,696,193,159"
                            }
                        ],
                        "signature": "getReserves()"
                    },
                    "errorInfo": "",
                    "fromAddress": "0x43579754589644805ef2bb4696bfe6a5cf7aa809",
                    "gasUsed": 2504,
                    "id": 8,
                    "methodDecoded": true,
                    "operation": "STATICCALL",
                    "output": "0x0000000000000000000000000000000000000000000000000046ed9415c2d51d000000000000000000000000000000000000000000000000b8880667a7ceb00f000000000000000000000000000000000000000000000000000000006519da87",
                    "revert": false,
                    "revertMessage": "",
                    "selector": "0x0902f1ac",
                    "status": true,
                    "value": "0"
                },
                "nodeType": 0
            },
            "9": {
                "invocation": {
                    "address": "0x5969d46313aa7482d24b02b3f041abc39f2dd5ca",
                    "callData": "0x",
                    "decodedMethod": {
                        "callParams": [],
                        "constructorArguments": "",
                        "name": "token1",
                        "returnParams": [
                            {
                                "name": "",
                                "type": "address",
                                "value": "0xc02aaa39b223fe8d0a0e5c4f27ead9083c756cc2"
                            }
                        ],
                        "signature": "token1()"
                    },
                    "errorInfo": "",
                    "fromAddress": "0x43579754589644805ef2bb4696bfe6a5cf7aa809",
                    "gasUsed": 2357,
                    "id": 9,
                    "methodDecoded": true,
                    "operation": "STATICCALL",
                    "output": "0x000000000000000000000000c02aaa39b223fe8d0a0e5c4f27ead9083c756cc2",
                    "revert": false,
                    "revertMessage": "",
                    "selector": "0xd21220a7",
                    "status": true,
                    "value": "0"
                },
                "nodeType": 0
            }
        },
        "gasFlame": [
            {
                "children": [
                    {
                        "children": [
                            {
                                "children": [],
                                "depth": 0,
                                "name": "Initial Gas",
                                "value": 22584
                            },
                            {
                                "children": [
                                    {
                                        "children": [],
                                        "depth": 1,
                                        "name": "fallback",
                                        "value": 0
                                    },
                                    {
                                        "children": [],
                                        "depth": 1,
                                        "name": "deposit",
                                        "value": 23974
                                    },
                                    {
                                        "children": [],
                                        "depth": 1,
                                        "name": "transfer",
                                        "value": 8062
                                    },
                                    {
                                        "children": [],
                                        "depth": 1,
                                        "name": "balanceOf",
                                        "value": 2953
                                    },
                                    {
                                        "children": [],
                                        "depth": 1,
                                        "name": "getReserves",
                                        "value": 2504
                                    },
                                    {
                                        "children": [],
                                        "depth": 1,
                                        "name": "token1",
                                        "value": 2357
                                    },
                                    {
                                        "children": [],
                                        "depth": 1,
                                        "name": "balanceOf",
                                        "value": 534
                                    },
                                    {
                                        "children": [
                                            {
                                                "children": [],
                                                "depth": 2,
                                                "name": "transfer",
                                                "value": 47150
                                            },
                                            {
                                                "children": [],
                                                "depth": 2,
                                                "name": "balanceOf",
                                                "value": 953
                                            },
                                            {
                                                "children": [],
                                                "depth": 2,
                                                "name": "balanceOf",
                                                "value": 534
                                            }
                                        ],
                                        "depth": 1,
                                        "name": "swap",
                                        "value": 77960
                                    },
                                    {
                                        "children": [],
                                        "depth": 1,
                                        "name": "balanceOf",
                                        "value": 953
                                    }
                                ],
                                "depth": 0,
                                "name": "Executed Gas",
                                "value": 151601
                            }
                        ],
                        "depth": -1,
                        "name": "Actual Gas Used",
                        "value": 151485
                    },
                    {
                        "children": [],
                        "depth": -1,
                        "name": "Refunded Gas",
                        "value": 22700
                    }
                ],
                "depth": -2,
                "name": "Total Gas",
                "value": 174185
            }
        ],
        "isConfirmed": true,
        "mainTrace": [
            {
                "children": [
                    {
                        "children": [
                            {
                                "children": [],
                                "depth": 1,
                                "id": 1,
                                "order": 1
                            },
                            {
                                "children": [],
                                "depth": 1,
                                "id": 2,
                                "order": 2
                            },
                            {
                                "children": [
                                    {
                                        "children": [],
                                        "depth": 2,
                                        "id": 4,
                                        "order": 4
                                    }
                                ],
                                "depth": 1,
                                "id": 3,
                                "order": 3
                            },
                            {
                                "children": [
                                    {
                                        "children": [],
                                        "depth": 2,
                                        "id": 6,
                                        "order": 6
                                    }
                                ],
                                "depth": 1,
                                "id": 5,
                                "order": 5
                            },
                            {
                                "children": [],
                                "depth": 1,
                                "id": 7,
                                "order": 7
                            },
                            {
                                "children": [],
                                "depth": 1,
                                "id": 8,
                                "order": 8
                            },
                            {
                                "children": [],
                                "depth": 1,
                                "id": 9,
                                "order": 9
                            },
                            {
                                "children": [],
                                "depth": 1,
                                "id": 10,
                                "order": 10
                            },
                            {
                                "children": [
                                    {
                                        "children": [
                                            {
                                                "children": [],
                                                "depth": 3,
                                                "id": 13,
                                                "order": 13
                                            },
                                            {
                                                "children": [],
                                                "depth": 3,
                                                "id": 14,
                                                "order": 14
                                            }
                                        ],
                                        "depth": 2,
                                        "id": 12,
                                        "order": 12
                                    },
                                    {
                                        "children": [],
                                        "depth": 2,
                                        "id": 15,
                                        "order": 15
                                    },
                                    {
                                        "children": [],
                                        "depth": 2,
                                        "id": 16,
                                        "order": 16
                                    },
                                    {
                                        "children": [],
                                        "depth": 2,
                                        "id": 17,
                                        "order": 17
                                    },
                                    {
                                        "children": [],
                                        "depth": 2,
                                        "id": 18,
                                        "order": 18
                                    }
                                ],
                                "depth": 1,
                                "id": 11,
                                "order": 11
                            },
                            {
                                "children": [],
                                "depth": 1,
                                "id": 19,
                                "order": 19
                            }
                        ],
                        "depth": 0,
                        "id": 0,
                        "order": 0
                    }
                ],
                "depth": -1,
                "id": -1,
                "order": -1
            }
        ],
        "mainTraceNodeCount": 20,
        "parentIdMap": {
            "0": -1,
            "1": 0,
            "10": 0,
            "11": 0,
            "12": 11,
            "13": 12,
            "14": 12,
            "15": 11,
            "16": 11,
            "17": 11,
            "18": 11,
            "19": 0,
            "2": 0,
            "3": 0,
            "4": 3,
            "5": 0,
            "6": 5,
            "7": 0,
            "8": 0,
            "9": 0
        },
        "tidyTrace": [
            {
                "children": [
                    {
                        "children": [
                            {
                                "children": [],
                                "depth": 1,
                                "id": 1,
                                "order": 1
                            },
                            {
                                "children": [],
                                "depth": 1,
                                "id": 2,
                                "order": 2
                            },
                            {
                                "children": [
                                    {
                                        "children": [],
                                        "depth": 2,
                                        "id": 4,
                                        "order": 4
                                    }
                                ],
                                "depth": 1,
                                "id": 3,
                                "order": 3
                            },
                            {
                                "children": [
                                    {
                                        "children": [],
                                        "depth": 2,
                                        "id": 6,
                                        "order": 6
                                    }
                                ],
                                "depth": 1,
                                "id": 5,
                                "order": 5
                            },
                            {
                                "children": [
                                    {
                                        "children": [
                                            {
                                                "children": [],
                                                "depth": 3,
                                                "id": 13,
                                                "order": 13
                                            },
                                            {
                                                "children": [],
                                                "depth": 3,
                                                "id": 14,
                                                "order": 14
                                            }
                                        ],
                                        "depth": 2,
                                        "id": 12,
                                        "order": 12
                                    },
                                    {
                                        "children": [],
                                        "depth": 2,
                                        "id": 17,
                                        "order": 17
                                    },
                                    {
                                        "children": [],
                                        "depth": 2,
                                        "id": 18,
                                        "order": 18
                                    }
                                ],
                                "depth": 1,
                                "id": 11,
                                "order": 11
                            }
                        ],
                        "depth": 0,
                        "id": 0,
                        "order": 0
                    }
                ],
                "depth": -1,
                "id": -1,
                "order": -1
            }
        ],
        "tidyTraceNodeCount": 13
    },
    "state_change": {
        "stateChanges": [
            {
                "address": "0x5969d46313aa7482d24b02b3f041abc39f2dd5ca",
                "erc": "ERC-20",
                "slots": [
                    {
                        "current": "0x00000000000000000000000000000114b0f0805dcbc9f647ccfa4c73e7d6df14",
                        "key": "0x0000000000000000000000000000000000000000000000000000000000000009",
                        "prev": "0x00000000000000000000000000000114727fd777b4b4d5a550f92f1ae8f8a6cc"
                    },
                    {
                        "current": "0x0000000000000000000000000000000007f10d6976605ae714800c549f761b60",
                        "key": "0x000000000000000000000000000000000000000000000000000000000000000a",
                        "prev": "0x0000000000000000000000000000000007f1042fe6f853580326fb7c118f4ad0"
                    },
                    {
                        "current": "0x6519da9f000000000000b937e2648430700f0000000000000046aa6f86fabdb0",
                        "key": "0x0000000000000000000000000000000000000000000000000000000000000008",
                        "prev": "0x6519da87000000000000b8880667a7ceb00f0000000000000046ed9415c2d51d"
                    }
                ],
                "storageVariables": [
                    {
                        "name": "price0CumulativeLast",
                        "type": "uint256",
                        "value": {
                            "current": "94153126152262927463503826080914088582932",
                            "prev": "94070129053601672290146827466967826867916",
                            "typeTag": 1
                        }
                    },
                    {
                        "name": "price1CumulativeLast",
                        "type": "uint256",
                        "value": {
                            "current": "10556211540318933351533713714327198560",
                            "prev": "10556024438245116788040557573413227216",
                            "typeTag": 1
                        }
                    },
                    {
                        "name": "reserve0",
                        "type": "uint112",
                        "value": {
                            "current": "19890644352417200",
                            "prev": "19964468645778717",
                            "typeTag": 1
                        }
                    },
                    {
                        "name": "reserve1",
                        "type": "uint112",
                        "value": {
                            "current": "13346384942078128143",
                            "prev": "13296884942078128143",
                            "typeTag": 1
                        }
                    },
                    {
                        "name": "blockTimestampLast",
                        "type": "uint32",
                        "value": {
                            "current": "1696193183",
                            "prev": "1696193159",
                            "typeTag": 1
                        }
                    }
                ]
            },
            {
                "address": "0x9a8ff01590eb74165842be0b1835b1fd6a243ee1",
                "erc": "ERC-20",
                "slots": [
                    {
                        "current": "0x0000000000000000000000000000000000000000000000000046aa6f86fabdb0",
                        "key": "0xe71499f0f7099e9ad3737c9557cf3b43f87cd7d12f0c032662ff23564c0cb376",
                        "prev": "0x0000000000000000000000000000000000000000000000000046ed9415c2d51d"
                    },
                    {
                        "current": "0x0000000000000000000000000000000000000000000000000000f885cb1f5809",
                        "key": "0xf06f6ddf6646955e4f7ce304a8d7cbc6210e26e988f49e04c12099fe5cb52bb3",
                        "prev": "0x0000000000000000000000000000000000000000000000000000b9688c967537"
                    },
                    {
                        "current": "0x00000000000000000000000000000000000000000000000000013fab3eeb45c9",
                        "key": "0x5f3a325e2d27cc131ab630ea2538ef615a44e388d924ad4b341e4c56aa1a1df5",
                        "prev": "0x00000000000000000000000000000000000000000000000000013ba3eeac112e"
                    }
                ],
                "storageVariables": [
                    {
                        "name": "_balances",
                        "type": "mapping(address => uint256)",
                        "value": {
                            "pairs": [
                                {
                                    "key": "0x5969d46313aa7482d24b02b3f041abc39f2dd5ca",
                                    "value": {
                                        "current": "19890644352417200",
                                        "prev": "19964468645778717",
                                        "typeTag": 1
                                    }
                                },
                                {
                                    "key": "0x836a38c8f1dc7ef8c5c172819a33bc26e2d94ca1",
                                    "value": {
                                        "current": "273253522167817",
                                        "prev": "203858686407991",
                                        "typeTag": 1
                                    }
                                },
                                {
                                    "key": "0x9a8ff01590eb74165842be0b1835b1fd6a243ee1",
                                    "value": {
                                        "current": "351479704274377",
                                        "prev": "347050246672686",
                                        "typeTag": 1
                                    }
                                }
                            ],
                            "typeTag": 4
                        }
                    }
                ]
            },
            {
                "address": "0xc02aaa39b223fe8d0a0e5c4f27ead9083c756cc2",
                "erc": "ERC-20",
                "slots": [
                    {
                        "current": "0x000000000000000000000000000000000000000000000000b937e2648430700f",
                        "key": "0x10fd01f04847fe5ed2a594ee5d2a61c08768a484f9c244bf29e7a4283af39d6a",
                        "prev": "0x000000000000000000000000000000000000000000000000b8880667a7ceb00f"
                    }
                ],
                "storageVariables": [
                    {
                        "name": "balanceOf",
                        "type": "mapping(address => uint256)",
                        "value": {
                            "pairs": [
                                {
                                    "key": "0x5969d46313aa7482d24b02b3f041abc39f2dd5ca",
                                    "value": {
                                        "current": "13346384942078128143",
                                        "prev": "13296884942078128143",
                                        "typeTag": 1
                                    }
                                }
                            ],
                            "typeTag": 4
                        }
                    }
                ]
            }
        ]
    }
}