{
    "balance_change": {
        "balanceChanges": [
            {
                "account": "0xe0ec67d3b5419db0d147bb6724e6510f27eef5d7",
                "assets": [
                    {
                        "address": "0xdac17f958d2ee523a2206206994597c13d831ec7",
                        "amount": "499.847079",
                        "iconUrl": "https://assets.blocksec.com/icon/fcea71f3193ce895be44bfdf941f7e4c9381dd587f273c2d1a27f1263d84e4ea.png",
                        "isERC1155": false,
                        "isERC721": false,
                        "sign": true,
                        "value": "499.90200122693261278"
                    },
                    {
                        "address": "0xa0b86991c6218b36c1d19d4a2e9eb0ce3606eb48",
                        "amount": "500",
                        "iconUrl": "https://assets.blocksec.com/icon/0347a86cc07dbd03fdc5db01a4e5ac7e1217f90e0b6e4bb0f75cbcca09160989.png",
                        "isERC1155": false,
                        "isERC721": false,
                        "sign": false,
                        "value": "500"
                    }
                ]
            },
            {
                "account": "0x3416cf6c708da44db2624d63ea0aaef7113527c6",
                "assets": [
                    {
                        "address": "0xdac17f958d2ee523a2206206994597c13d831ec7",
                        "amount": "499.847079",
                        "iconUrl": "https://assets.blocksec.com/icon/fcea71f3193ce895be44bfdf941f7e4c9381dd587f273c2d1a27f1263d84e4ea.png",
                        "isERC1155": false,
                        "isERC721": false,
                        "sign": false,
                        "value": "499.90200122693261278"
                    },
                    {
                        "address": "0xa0b86991c6218b36c1d19d4a2e9eb0ce3606eb48",
                        "amount": "500",
                        "iconUrl": "https://assets.blocksec.com/icon/0347a86cc07dbd03fdc5db01a4e5ac7e1217f90e0b6e4bb0f75cbcca09160989.png",
                        "isERC1155": false,
                        "isERC721": false,
                        "sign": true,
                        "value": "500"
                    }
                ]
            }
        ]
    },
    "profile": {
        "basic_info": {
            "baseFee": "14.126428595",
            "blockNumber": 16228917,
            "callData": "0x5ae401dc0000000000000000000000000000000000000000000000000000000063a23f0b00000000000000000000000000000000000000000000000000000000000000400000000000000000000000000000000000000000000000000000000000000001000000000000000000000000000000000000000000000000000000000000002000000000000000000000000000000000000000000000000000000000000000e404e45aaf000000000000000000000000a0b86991c6218b36c1d19d4a2e9eb0ce3606eb48000000000000000000000000dac17f958d2ee523a2206206994597c13d831ec70000000000000000000000000000000000000000000000000000000000000064000000000000000000000000e0ec67d3b5419db0d147bb6724e6510f27eef5d7000000000000000000000000000000000000000000000000000000001dcd6500000000000000000000000000000000000000000000000000000000001bd81832000000000000000000000000000000000000000000000000000000000000000000000000000000000000000000000000000000000000000000000000",
            "debugEnable": true,
            "errorInfo": "",
            "eventCount": 3,
            "feeRecipient": "0xf2f5c73fa04406b1995e397b55c24ab1f3ea726c",
            "formatValue": "0",
            "gasLimit": 190002,
            "gasPrice": "15.626428595",
            "gasUsed": 153478,
            "intTxnCount": 10,
            "internalRevert": false,
            "internalRevertMessage": "",
            "isContractCreation": false,
            "isFlashloan": false,
            "maxFee": "22.169524028",
            "nonce": 290,
            "overwritedBlockNumber": -1,
            "priorityFee": "1.5",
            "receiver": "0x68b3465833fb72a70ecdf485e0e4c7bd8665fc45",
            "revertMessage": "",
            "sender": "0xe0ec67d3b5419db0d147bb6724e6510f27eef5d7",
            "simulationEnable": true,
            "sourceTxnHash": "0x14e2d8aca43d433dee4823017bfc0eb372eb949e0f7239184101bd246dcc52b2",
            "status": true,
            "timestamp": "2022-12-20T22:33:11Z",
            "transactionFee": "0.00239831300790341",
            "txnHash": "0x14e2d8aca43d433dee4823017bfc0eb372eb949e0f7239184101bd246dcc52b2",
            "txnIndex": 89,
            "type": 2,
            "value": "0"
        },
        "fund_flow": [
            {
                "amount": "499.847079",
                "from": "0x3416cf6c708da44db2624d63ea0aaef7113527c6",
                "id": 1,
                "isERC1155": false,
                "isERC721": false,
                "isReverted": false,
                "order": 1,
                "to": "0xe0ec67d3b5419db0d147bb6724e6510f27eef5d7",
                "token": "0xdac17f958d2ee523a2206206994597c13d831ec7"
            },
            {
                "amount": "500",
                "from": "0xe0ec67d3b5419db0d147bb6724e6510f27eef5d7",
                "id": 2,
                "isERC1155": false,
                "isERC721": false,
                "isReverted": false,
                "order": 2,
                "to": "0x3416cf6c708da44db2624d63ea0aaef7113527c6",
                "token": "0xa0b86991c6218b36c1d19d4a2e9eb0ce3606eb48"
            }
        ],
        "token_infos": [
            {
                "address": "0xa0b86991c6218b36c1d19d4a2e9eb0ce3606eb48",
                "decimals": 6
            },
            {
                "address": "0xc02aaa39b223fe8d0a0e5c4f27ead9083c756cc2",
                "decimals": 18
            },
            {
                "address": "0xdac17f958d2ee523a2206206994597c13d831ec7",
                "decimals": 6
            },
            {
                "address": "0xeeeeeeeeeeeeeeeeeeeeeeeeeeeeeeeeeeeeeeee",
                "decimals": 18
            }
        ]
    },
    "address_label": {
        "labels": [
            {
                "address": "0xeeeeeeeeeeeeeeeeeeeeeeeeeeeeeeeeeeeeeeee",
                "label": "Ether"
            },
            {
                "address": "0x68b3465833fb72a70ecdf485e0e4c7bd8665fc45",
                "label": "Uniswap V3: Router 2"
            },
            {
                "address": "0x0000000000000000000000000000000000000001",
                "label": "Precompiled"
            },
            {
                "address": "0x0000000000000000000000000000000000000003",
                "label": "Precompiled"
            },
            {
                "address": "0x0000000000000000000000000000000000000004",
                "label": "Precompiled"
            },
            {
                "address": "0xa2327a938febf5fec13bacfb16ae10ecbc4cbdcf",
                "label": "FiatTokenV2_1"
            },
            {
                "address": "0xdac17f958d2ee523a2206206994597c13d831ec7",
                "label": "Tether: USDT Stablecoin"
            },
            {
                "address": "0x3416cf6c708da44db2624d63ea0aaef7113527c6",
                "label": "Uniswap V3: USDC-USDT 4"
            },
            {
                "address": "0xa0b86991c6218b36c1d19d4a2e9eb0ce3606eb48",
                "label": "Circle: USDC Token"
            },
            {
                "address": "0x0000000000000000000000000000000000000002",
                "label": "Precompiled"
            }
        ]
    },
    "trace": {
        "accountLabels": null,
        "dataMap": {
            "-1": {
                "invocation": {
                    "address": "0xe0ec67d3b5419db0d147bb6724e6510f27eef5d7",
                    "callData": "",
                    "decodedMethod": null,
                    "errorInfo": "",
                    "fromAddress": "",
                    "gasUsed": 0,
                    "id": -1,
                    "methodDecoded": false,
                    "operation": "",
                    "output": "",
                    "revert": false,
                    "revertMessage": "",
                    "selector": "",
                    "status": false,
                    "value": ""
                },
                "nodeType": 0
            },
            "0": {
                "invocation": {
                    "address": "0x68b3465833fb72a70ecdf485e0e4c7bd8665fc45",
                    "callData": "0x0000000000000000000000000000000000000000000000000000000063a23f0b00000000000000000000000000000000000000000000000000000000000000400000000000000000000000000000000000000000000000000000000000000001000000000000000000000000000000000000000000000000000000000000002000000000000000000000000000000000000000000000000000000000000000e404e45aaf000000000000000000000000a0b86991c6218b36c1d19d4a2e9eb0ce3606eb48000000000000000000000000dac17f958d2ee523a2206206994597c13d831ec70000000000000000000000000000000000000000000000000000000000000064000000000000000000000000e0ec67d3b5419db0d147bb6724e6510f27eef5d7000000000000000000000000000000000000000000000000000000001dcd6500000000000000000000000000000000000000000000000000000000001bd81832000000000000000000000000000000000000000000000000000000000000000000000000000000000000000000000000000000000000000000000000",
                    "decodedMethod": {
                        "callParams": [
                            {
                                "name": "deadline",
                                "type": "uint256",
                                "value": "1,671,577,355"
                            },
                            {
                                "name": "data",
                                "type": "bytes[]",
                                "value": [
                                    "0x04e45aaf000000000000000000000000a0b86991c6218b36c1d19d4a2e9eb0ce3606eb48000000000000000000000000dac17f958d2ee523a2206206994597c13d831ec70000000000000000000000000000000000000000000000000000000000000064000000000000000000000000e0ec67d3b5419db0d147bb6724e6510f27eef5d7000000000000000000000000000000000000000000000000000000001dcd6500000000000000000000000000000000000000000000000000000000001bd818320000000000000000000000000000000000000000000000000000000000000000"
                                ]
                            }
                        ],
                        "constructorArguments": "",
                        "name": "multicall",
                        "returnParams": [
                            {
                                "name": "",
                                "type": "bytes[]",
                                "value": [
                                    "0x000000000000000000000000000000000000000000000000000000001dcb0fa7"
                                ]
                            }
                        ],
                        "signature": "multicall(uint256,bytes[])"
                    },
                    "errorInfo": "",
                    "fromAddress": "0xe0ec67d3b5419db0d147bb6724e6510f27eef5d7",
                    "gasUsed": 153478,
                    "id": 0,
                    "methodDecoded": true,
                    "operation": "CALL",
                    "output": "0x0000000000000000000000000000000000000000000000000000000000000020000000000000000000000000000000000000000000000000000000000000000100000000000000000000000000000000000000000000000000000000000000200000000000000000000000000000000000000000000000000000000000000020000000000000000000000000000000000000000000000000000000001dcb0fa7",
                    "revert": false,
                    "revertMessage": "",
                    "selector": "0x5ae401dc",
                    "status": true,
                    "value": "0"
                },
                "nodeType": 0
            },
            "1": {
                "invocation": {
                    "address": "0x68b3465833fb72a70ecdf485e0e4c7bd8665fc45",
                    "callData": "0x000000000000000000000000a0b86991c6218b36c1d19d4a2e9eb0ce3606eb48000000000000000000000000dac17f958d2ee523a2206206994597c13d831ec70000000000000000000000000000000000000000000000000000000000000064000000000000000000000000e0ec67d3b5419db0d147bb6724e6510f27eef5d7000000000000000000000000000000000000000000000000000000001dcd6500000000000000000000000000000000000000000000000000000000001bd818320000000000000000000000000000000000000000000000000000000000000000",
                    "decodedMethod": {
                        "callParams": [
                            {
                                "name": "params",
                                "type": "(address,address,uint24,address,uint256,uint256,uint160)",
                                "value": [
                                    {
                                        "name": "tokenIn",
                                        "type": "address",
                                        "value": "0xa0b86991c6218b36c1d19d4a2e9eb0ce3606eb48"
                                    },
                                    {
                                        "name": "tokenOut",
                                        "type": "address",
                                        "value": "0xdac17f958d2ee523a2206206994597c13d831ec7"
                                    },
                                    {
                                        "name": "fee",
                                        "type": "uint24",
                                        "value": "100"
                                    },
                                    {
                                        "name": "recipient",
                                        "type": "address",
                                        "value": "0xe0ec67d3b5419db0d147bb6724e6510f27eef5d7"
                                    },
                                    {
                                        "name": "amountIn",
                                        "type": "uint256",
                                        "value": "500,000,000"
                                    },
                                    {
                                        "name": "amountOutMinimum",
                                        "type": "uint256",
                                        "value": "467,146,802"
                                    },
                                    {
                                        "name": "sqrtPriceLimitX96",
                                        "type": "uint160",
                                        "value": "0"
                                    }
                                ]
                            }
                        ],
                        "constructorArguments": "",
                        "name": "exactInputSingle",
                        "returnParams": [
                            {
                                "name": "amountOut",
                                "type": "uint256",
                                "value": "499,847,079"
                            }
                        ],
                        "signature": "exactInputSingle((address,address,uint24,address,uint256,uint256,uint160))"
                    },
                    "errorInfo": "",
                    "fromAddress": "0x68b3465833fb72a70ecdf485e0e4c7bd8665fc45",
                    "gasUsed": 127612,
                    "id": 1,
                    "methodDecoded": true,
                    "operation": "DELEGATECALL",
                    "output": "0x000000000000000000000000000000000000000000000000000000001dcb0fa7",
                    "revert": false,
                    "revertMessage": "",
                    "selector": "0x04e45aaf",
                    "status": true,
                    "value": "0"
                },
                "nodeType": 0
            },
            "10": {
                "event": {
                    "contract": "0xa0b86991c6218b36c1d19d4a2e9eb0ce3606eb48",
                    "decodedLog": {
                        "name": "Transfer",
                        "params": [
                            {
                                "name": "from",
                                "type": "address",
                                "value": "0xe0ec67d3b5419db0d147bb6724e6510f27eef5d7"
                            },
                            {
                                "name": "to",
                                "type": "address",
                                "value": "0x3416cf6c708da44db2624d63ea0aaef7113527c6"
                            },
                            {
                                "decimalAvailable": true,
                                "name": "value",
                                "type": "uint256",
                                "value": "500,000,000"
                            }
                        ],
                        "signature": "Transfer(address,address,uint256)"
                    },
                    "id": 10,
                    "logData": "0x000000000000000000000000000000000000000000000000000000001dcd6500",
                    "logDecoded": true,
                    "operation": "EVENT",
                    "revert": false,
                    "status": true,
                    "topics": [
                        "0xddf252ad1be2c89b69c2b068fc378daa952ba7f163c4a11628f55a4df523b3ef",
                        "0x000000000000000000000000e0ec67d3b5419db0d147bb6724e6510f27eef5d7",
                        "0x0000000000000000000000003416cf6c708da44db2624d63ea0aaef7113527c6"
                    ]
                },
                "nodeType": 1
            },
            "11": {
                "invocation": {
                    "address": "0xa0b86991c6218b36c1d19d4a2e9eb0ce3606eb48",
                    "callData": "0x0000000000000000000000003416cf6c708da44db2624d63ea0aaef7113527c6",
                    "decodedMethod": {
                        "callParams": [
                            {
                                "name": "account",
                                "type": "address",
                                "value": "0x3416cf6c708da44db2624d63ea0aaef7113527c6"
                            }
                        ],
                        "constructorArguments": "",
                        "name": "balanceOf",
                        "returnParams": [
                            {
                                "decimalAvailable": true,
                                "name": "",
                                "type": "uint256",
                                "value": "67,789,882,284,853"
                            }
                        ],
                        "signature": "balanceOf(address)"
                    },
                    "errorInfo": "",
                    "fromAddress": "0x3416cf6c708da44db2624d63ea0aaef7113527c6",
                    "gasUsed": 1315,
                    "id": 11,
                    "methodDecoded": true,
                    "operation": "STATICCALL",
                    "output": "0x00000000000000000000000000000000000000000000000000003da78fda5b35",
                    "revert": false,
                    "revertMessage": "",
                    "selector": "0x70a08231",
                    "status": true,
                    "value": "0"
                },
                "nodeType": 0
            },
            "12": {
                "invocation": {
                    "address": "0xa2327a938febf5fec13bacfb16ae10ecbc4cbdcf",
                    "callData": "0x0000000000000000000000003416cf6c708da44db2624d63ea0aaef7113527c6",
                    "decodedMethod": {
                        "callParams": [
                            {
                                "name": "account",
                                "type": "address",
                                "value": "0x3416cf6c708da44db2624d63ea0aaef7113527c6"
                            }
                        ],
                        "constructorArguments": "",
                        "name": "balanceOf",
                        "returnParams": [
                            {
                                "decimalAvailable": true,
                                "name": "",
                                "type": "uint256",
                                "value": "67,789,882,284,853"
                            }
                        ],
                        "signature": "balanceOf(address)"
                    },
                    "errorInfo": "",
                    "fromAddress": "0xa0b86991c6218b36c1d19d4a2e9eb0ce3606eb48",
                    "gasUsed": 529,
                    "id": 12,
                    "methodDecoded": true,
                    "operation": "DELEGATECALL",
                    "output": "0x00000000000000000000000000000000000000000000000000003da78fda5b35",
                    "revert": false,
                    "revertMessage": "",
                    "selector": "0x70a08231",
                    "status": true,
                    "value": "0"
                },
                "nodeType": 0
            },
            "13": {
                "event": {
                    "contract": "0x3416cf6c708da44db2624d63ea0aaef7113527c6",
                    "decodedLog": {
                        "name": "Swap",
                        "params": [
                            {
                                "name": "sender",
                                "type": "address",
                                "value": "0x68b3465833fb72a70ecdf485e0e4c7bd8665fc45"
                            },
                            {
                                "name": "recipient",
                                "type": "address",
                                "value": "0xe0ec67d3b5419db0d147bb6724e6510f27eef5d7"
                            },
                            {
                                "name": "amount0",
                                "type": "int256",
                                "value": "500,000,000"
                            },
                            {
                                "name": "amount1",
                                "type": "int256",
                                "value": "-499,847,079"
                            },
                            {
                                "name": "sqrtPriceX96",
                                "type": "uint160",
                                "value": "79,220,006,960,818,327,464,327,626,658"
                            },
                            {
                                "name": "liquidity",
                                "type": "uint128",
                                "value": "195,512,806,323,645,874"
                            },
                            {
                                "name": "tick",
                                "type": "int24",
                                "value": "-3"
                            }
                        ],
                        "signature": "Swap(address,address,int256,int256,uint160,uint128,int24)"
                    },
                    "id": 13,
                    "logData": "0x000000000000000000000000000000000000000000000000000000001dcd6500ffffffffffffffffffffffffffffffffffffffffffffffffffffffffe234f0590000000000000000000000000000000000000000fff940fe8fd22bd71ff1bfa200000000000000000000000000000000000000000000000002b699dc89f5edb2fffffffffffffffffffffffffffffffffffffffffffffffffffffffffffffffd",
                    "logDecoded": true,
                    "operation": "EVENT",
                    "revert": false,
                    "status": true,
                    "topics": [
                        "0xc42079f94a6350d7e6235f29174924f928cc2ac818eb64fed8004e115fbcca67",
                        "0x00000000000000000000000068b3465833fb72a70ecdf485e0e4c7bd8665fc45",
                        "0x000000000000000000000000e0ec67d3b5419db0d147bb6724e6510f27eef5d7"
                    ]
                },
                "nodeType": 1
            },
            "2": {
                "invocation": {
                    "address": "0x3416cf6c708da44db2624d63ea0aaef7113527c6",
                    "callData": "0x000000000000000000000000e0ec67d3b5419db0d147bb6724e6510f27eef5d70000000000000000000000000000000000000000000000000000000000000001000000000000000000000000000000000000000000000000000000001dcd650000000000000000000000000000000000000000000000000000000001000276a400000000000000000000000000000000000000000000000000000000000000a000000000000000000000000000000000000000000000000000000000000000c000000000000000000000000000000000000000000000000000000000000000200000000000000000000000000000000000000000000000000000000000000040000000000000000000000000e0ec67d3b5419db0d147bb6724e6510f27eef5d7000000000000000000000000000000000000000000000000000000000000002ba0b86991c6218b36c1d19d4a2e9eb0ce3606eb48000064dac17f958d2ee523a2206206994597c13d831ec7000000000000000000000000000000000000000000",
                    "decodedMethod": {
                        "callParams": [
                            {
                                "name": "recipient",
                                "type": "address",
                                "value": "0xe0ec67d3b5419db0d147bb6724e6510f27eef5d7"
                            },
                            {
                                "name": "zeroForOne",
                                "type": "bool",
                                "value": true
                            },
                            {
                                "name": "amountSpecified",
                                "type": "int256",
                                "value": "500,000,000"
                            },
                            {
                                "name": "sqrtPriceLimitX96",
                                "type": "uint160",
                                "value": "4,295,128,740"
                            },
                            {
                                "name": "data",
                                "type": "bytes",
                                "value": "0x00000000000000000000000000000000000000000000000000000000000000200000000000000000000000000000000000000000000000000000000000000040000000000000000000000000e0ec67d3b5419db0d147bb6724e6510f27eef5d7000000000000000000000000000000000000000000000000000000000000002ba0b86991c6218b36c1d19d4a2e9eb0ce3606eb48000064dac17f958d2ee523a2206206994597c13d831ec7000000000000000000000000000000000000000000"
                            }
                        ],
                        "constructorArguments": "",
                        "name": "swap",
                        "returnParams": [
                            {
                                "name": "amount0",
                                "type": "int256",
                                "value": "500,000,000"
                            },
                            {
                                "name": "amount1",
                                "type": "int256",
                                "value": "-499,847,079"
                            }
                        ],
                        "signature": "swap(address,bool,int256,uint160,bytes)"
                    },
                    "errorInfo": "",
                    "fromAddress": "0x68b3465833fb72a70ecdf485e0e4c7bd8665fc45",
                    "gasUsed": 120216,
                    "id": 2,
                    "methodDecoded": true,
                    "operation": "CALL",
                    "output": "0x000000000000000000000000000000000000000000000000000000001dcd6500ffffffffffffffffffffffffffffffffffffffffffffffffffffffffe234f059",
                    "revert": false,
                    "revertMessage": "",
                    "selector": "0x128acb08",
                    "status": true,
                    "value": "0"
                },
                "nodeType": 0
            },
            "3": {
                "invocation": {
                    "address": "0xdac17f958d2ee523a2206206994597c13d831ec7",
                    "callData": "0x000000000000000000000000e0ec67d3b5419db0d147bb6724e6510f27eef5d7000000000000000000000000000000000000000000000000000000001dcb0fa7",
                    "decodedMethod": {
                        "callParams": [
                            {
                                "name": "_to",
                                "type": "address",
                                "value": "0xe0ec67d3b5419db0d147bb6724e6510f27eef5d7"
                            },
                            {
                                "decimalAvailable": true,
                                "name": "_value",
                                "type": "uint256",
                                "value": "499,847,079"
                            }
                        ],
                        "constructorArguments": "",
                        "name": "transfer",
                        "returnParams": [],
                        "signature": "transfer(address,uint256)"
                    },
                    "errorInfo": "",
                    "fromAddress": "0x3416cf6c708da44db2624d63ea0aaef7113527c6",
                    "gasUsed": 41601,
                    "id": 3,
                    "methodDecoded": true,
                    "operation": "CALL",
                    "output": "",
                    "revert": false,
                    "revertMessage": "",
                    "selector": "0xa9059cbb",
                    "status": true,
                    "value": "0"
                },
                "nodeType": 0
            },
            "4": {
                "event": {
                    "contract": "0xdac17f958d2ee523a2206206994597c13d831ec7",
                    "decodedLog": {
                        "name": "Transfer",
                        "params": [
                            {
                                "name": "from",
                                "type": "address",
                                "value": "0x3416cf6c708da44db2624d63ea0aaef7113527c6"
                            },
                            {
                                "name": "to",
                                "type": "address",
                                "value": "0xe0ec67d3b5419db0d147bb6724e6510f27eef5d7"
                            },
                            {
                                "decimalAvailable": true,
                                "name": "value",
                                "type": "uint256",
                                "value": "499,847,079"
                            }
                        ],
                        "signature": "Transfer(address,address,uint256)"
                    },
                    "id": 4,
                    "logData": "0x000000000000000000000000000000000000000000000000000000001dcb0fa7",
                    "logDecoded": true,
                    "operation": "EVENT",
                    "revert": false,
                    "status": true,
                    "topics": [
                        "0xddf252ad1be2c89b69c2b068fc378daa952ba7f163c4a11628f55a4df523b3ef",
                        "0x0000000000000000000000003416cf6c708da44db2624d63ea0aaef7113527c6",
                        "0x000000000000000000000000e0ec67d3b5419db0d147bb6724e6510f27eef5d7"
                    ]
                },
                "nodeType": 1
            },
            "5": {
                "invocation": {
                    "address": "0xa0b86991c6218b36c1d19d4a2e9eb0ce3606eb48",
                    "callData": "0x0000000000000000000000003416cf6c708da44db2624d63ea0aaef7113527c6",
                    "decodedMethod": {
                        "callParams": [
                            {
                                "name": "account",
                                "type": "address",
                                "value": "0x3416cf6c708da44db2624d63ea0aaef7113527c6"
                            }
                        ],
                        "constructorArguments": "",
                        "name": "balanceOf",
                        "returnParams": [
                            {
                                "decimalAvailable": true,
                                "name": "",
                                "type": "uint256",
                                "value": "67,789,382,284,853"
                            }
                        ],
                        "signature": "balanceOf(address)"
                    },
                    "errorInfo": "",
                    "fromAddress": "0x3416cf6c708da44db2624d63ea0aaef7113527c6",
                    "gasUsed": 9815,
                    "id": 5,
                    "methodDecoded": true,
                    "operation": "STATICCALL",
                    "output": "0x00000000000000000000000000000000000000000000000000003da7720cf635",
                    "revert": false,
                    "revertMessage": "",
                    "selector": "0x70a08231",
                    "status": true,
                    "value": "0"
                },
                "nodeType": 0
            },
            "6": {
                "invocation": {
                    "address": "0xa2327a938febf5fec13bacfb16ae10ecbc4cbdcf",
                    "callData": "0x0000000000000000000000003416cf6c708da44db2624d63ea0aaef7113527c6",
                    "decodedMethod": {
                        "callParams": [
                            {
                                "name": "account",
                                "type": "address",
                                "value": "0x3416cf6c708da44db2624d63ea0aaef7113527c6"
                            }
                        ],
                        "constructorArguments": "",
                        "name": "balanceOf",
                        "returnParams": [
                            {
                                "decimalAvailable": true,
                                "name": "",
                                "type": "uint256",
                                "value": "67,789,382,284,853"
                            }
                        ],
                        "signature": "balanceOf(address)"
                    },
                    "errorInfo": "",
                    "fromAddress": "0xa0b86991c6218b36c1d19d4a2e9eb0ce3606eb48",
                    "gasUsed": 2529,
                    "id": 6,
                    "methodDecoded": true,
                    "operation": "DELEGATECALL",
                    "output": "0x00000000000000000000000000000000000000000000000000003da7720cf635",
                    "revert": false,
                    "revertMessage": "",
                    "selector": "0x70a08231",
                    "status": true,
                    "value": "0"
                },
                "nodeType": 0
            },
            "7": {
                "invocation": {
                    "address": "0x68b3465833fb72a70ecdf485e0e4c7bd8665fc45",
                    "callData": "0x000000000000000000000000000000000000000000000000000000001dcd6500ffffffffffffffffffffffffffffffffffffffffffffffffffffffffe234f059000000000000000000000000000000000000000000000000000000000000006000000000000000000000000000000000000000000000000000000000000000c000000000000000000000000000000000000000000000000000000000000000200000000000000000000000000000000000000000000000000000000000000040000000000000000000000000e0ec67d3b5419db0d147bb6724e6510f27eef5d7000000000000000000000000000000000000000000000000000000000000002ba0b86991c6218b36c1d19d4a2e9eb0ce3606eb48000064dac17f958d2ee523a2206206994597c13d831ec7000000000000000000000000000000000000000000",
                    "decodedMethod": {
                        "callParams": [
                            {
                                "name": "amount0Delta",
                                "type": "int256",
                                "value": "500,000,000"
                            },
                            {
                                "name": "amount1Delta",
                                "type": "int256",
                                "value": "-499,847,079"
                            },
                            {
                                "name": "_data",
                                "type": "bytes",
                                "value": "0x00000000000000000000000000000000000000000000000000000000000000200000000000000000000000000000000000000000000000000000000000000040000000000000000000000000e0ec67d3b5419db0d147bb6724e6510f27eef5d7000000000000000000000000000000000000000000000000000000000000002ba0b86991c6218b36c1d19d4a2e9eb0ce3606eb48000064dac17f958d2ee523a2206206994597c13d831ec7000000000000000000000000000000000000000000"
                            }
                        ],
                        "constructorArguments": "",
                        "name": "uniswapV3SwapCallback",
                        "returnParams": [],
                        "signature": "uniswapV3SwapCallback(int256,int256,bytes)"
                    },
                    "errorInfo": "",
                    "fromAddress": "0x3416cf6c708da44db2624d63ea0aaef7113527c6",
                    "gasUsed": 30469,
                    "id": 7,
                    "methodDecoded": true,
                    "operation": "CALL",
                    "output": "",
                    "revert": false,
                    "revertMessage": "",
                    "selector": "0xfa461e33",
                    "status": true,
                    "value": "0"
                },
                "nodeType": 0
            },
            "8": {
                "invocation": {
                    "address": "0xa0b86991c6218b36c1d19d4a2e9eb0ce3606eb48",
                    "callData": "0x000000000000000000000000e0ec67d3b5419db0d147bb6724e6510f27eef5d70000000000000000000000003416cf6c708da44db2624d63ea0aaef7113527c6000000000000000000000000000000000000000000000000000000001dcd6500",
                    "decodedMethod": {
                        "callParams": [
                            {
                                "name": "from",
                                "type": "address",
                                "value": "0xe0ec67d3b5419db0d147bb6724e6510f27eef5d7"
                            },
                            {
                                "name": "to",
                                "type": "address",
                                "value": "0x3416cf6c708da44db2624d63ea0aaef7113527c6"
                            },
                            {
                                "decimalAvailable": true,
                                "name": "value",
                                "type": "uint256",
                                "value": "500,000,000"
                            }
                        ],
                        "constructorArguments": "",
                        "name": "transferFrom",
                        "returnParams": [
                            {
                                "name": "",
                                "type": "bool",
                                "value": true
                            }
                        ],
                        "signature": "transferFrom(address,address,uint256)"
                    },
                    "errorInfo": "",
                    "fromAddress": "0x68b3465833fb72a70ecdf485e0e4c7bd8665fc45",
                    "gasUsed": 26392,
                    "id": 8,
                    "methodDecoded": true,
                    "operation": "CALL",
                    "output": "0x0000000000000000000000000000000000000000000000000000000000000001",
                    "revert": false,
                    "revertMessage": "",
                    "selector": "0x23b872dd",
                    "status": true,
                    "value": "0"
                },
                "nodeType": 0
            },
            "9": {
                "invocation": {
                    "address": "0xa2327a938febf5fec13bacfb16ae10ecbc4cbdcf",
                    "callData": "0x000000000000000000000000e0ec67d3b5419db0d147bb6724e6510f27eef5d70000000000000000000000003416cf6c708da44db2624d63ea0aaef7113527c6000000000000000000000000000000000000000000000000000000001dcd6500",
                    "decodedMethod": {
                        "callParams": [
                            {
                                "name": "from",
                                "type": "address",
                                "value": "0xe0ec67d3b5419db0d147bb6724e6510f27eef5d7"
                            },
                            {
                                "name": "to",
                                "type": "address",
                                "value": "0x3416cf6c708da44db2624d63ea0aaef7113527c6"
                            },
                            {
                                "decimalAvailable": true,
                                "name": "value",
                                "type": "uint256",
                                "value": "500,000,000"
                            }
                        ],
                        "constructorArguments": "",
                        "name": "transferFrom",
                        "returnParams": [
                            {
                                "name": "",
                                "type": "bool",
                                "value": true
                            }
                        ],
                        "signature": "transferFrom(address,address,uint256)"
                    },
                    "errorInfo": "",
                    "fromAddress": "0xa0b86991c6218b36c1d19d4a2e9eb0ce3606eb48",
                    "gasUsed": 25597,
                    "id": 9,
                    "methodDecoded": true,
                    "operation": "DELEGATECALL",
                    "output": "0x0000000000000000000000000000000000000000000000000000000000000001",
                    "revert": false,
                    "revertMessage": "",
                    "selector": "0x23b872dd",
                    "status": true,
                    "value": "0"
                },
                "nodeType": 0
            }
        },
        "gasFlame": [
            {
                "children": [
                    {
                        "children": [
                            {
                                "children": [],
                                "depth": 0,
                                "name": "Initial Gas",
                                "value": 23688
                            },
                            {
                                "children": [
                                    {
                                        "children": [
                                            {
                                                "children": [
                                                    {
                                                        "children": [],
                                                        "depth": 3,
                                                        "name": "transfer",
                                                        "value": 41601
                                                    },
                                                    {
                                                        "children": [
                                                            {
                                                                "children": [],
                                                                "depth": 4,
                                                                "name": "balanceOf",
                                                                "value": 2529
                                                            }
                                                        ],
                                                        "depth": 3,
                                                        "name": "balanceOf",
                                                        "value": 9815
                                                    },
                                                    {
                                                        "children": [
                                                            {
                                                                "children": [
                                                                    {
                                                                        "children": [],
                                                                        "depth": 5,
                                                                        "name": "transferFrom",
                                                                        "value": 25597
                                                                    }
                                                                ],
                                                                "depth": 4,
                                                                "name": "transferFrom",
                                                                "value": 26392
                                                            }
                                                        ],
                                                        "depth": 3,
                                                        "name": "uniswapV3SwapCallback",
                                                        "value": 30469
                                                    },
                                                    {
                                                        "children": [
                                                            {
                                                                "children": [],
                                                                "depth": 4,
                                                                "name": "balanceOf",
                                                                "value": 529
                                                            }
                                                        ],
                                                        "depth": 3,
                                                        "name": "balanceOf",
                                                        "value": 1315
                                                    }
                                                ],
                                                "depth": 2,
                                                "name": "swap",
                                                "value": 120216
                                            }
                                        ],
                                        "depth": 1,
                                        "name": "exactInputSingle",
                                        "value": 127612
                                    }
                                ],
                                "depth": 0,
                                "name": "Executed Gas",
                                "value": 129790
                            }
                        ],
                        "depth": -1,
                        "name": "Actual Gas Used",
                        "value": 153478
                    },
                    {
                        "children": [],
                        "depth": -1,
                        "name": "Refunded Gas",
                        "value": 0
                    }
                ],
                "depth": -2,
                "name": "Total Gas",
                "value": 153478
            }
        ],
        "isConfirmed": true,
        "mainTrace": [
            {
                "children": [
                    {
                        "children": [
                            {
                                "children": [
                                    {
                                        "children": [
                                            {
                                                "children": [
                                                    {
                                                        "children": [],
                                                        "depth": 4,
                                                        "id": 4,
                                                        "order": 4
                                                    }
                                                ],
                                                "depth": 3,
                                                "id": 3,
                                                "order": 3
                                            },
                                            {
                                                "children": [
                                                    {
                                                        "children": [],
                                                        "depth": 4,
                                                        "id": 6,
                                                        "order": 6
                                                    }
                                                ],
                                                "depth": 3,
                                                "id": 5,
                                                "order": 5
                                            },
                                            {
                                                "children": [
                                                    {
                                                        "children": [
                                                            {
                                                                "children": [
                                                                    {
                                                                        "children": [],
                                                                        "depth": 6,
                                                                        "id": 10,
                                                                        "order": 10
                                                                    }
                                                                ],
                                                                "depth": 5,
                                                                "id": 9,
                                                                "order": 9
                                                            }
                                                        ],
                                                        "depth": 4,
                                                        "id": 8,
                                                        "order": 8
                                                    }
                                                ],
                                                "depth": 3,
                                                "id": 7,
                                                "order": 7
                                            },
                                            {
                                                "children": [
                                                    {
                                                        "children": [],
                                                        "depth": 4,
                                                        "id": 12,
                                                        "order": 12
                                                    }
                                                ],
                                                "depth": 3,
                                                "id": 11,
                                                "order": 11
                                            },
                                            {
                                                "children": [],
                                                "depth": 3,
                                                "id": 13,
                                                "order": 13
                                            }
                                        ],
                                        "depth": 2,
                                        "id": 2,
                                        "order": 2
                                    }
                                ],
                                "depth": 1,
                                "id": 1,
                                "order": 1
                            }
                        ],
                        "depth": 0,
                        "id": 0,
                        "order": 0
                    }
                ],
                "depth": -1,
                "id": -1,
                "order": -1
            }
        ],
        "mainTraceNodeCount": 14,
        "parentIdMap": {
            "0": -1,
            "1": 0,
            "10": 9,
            "11": 2,
            "12": 11,
            "13": 2,
            "2": 1,
            "3": 2,
            "4": 3,
            "5": 2,
            "6": 5,
            "7": 2,
            "8": 7,
            "9": 8
        },
        "tidyTrace": [
            {
                "children": [
                    {
                        "children": [
                            {
                                "children": [
                                    {
                                        "children": [
                                            {
                                                "children": [
                                                    {
                                                        "children": [],
                                                        "depth": 4,
                                                        "id": 4,
                                                        "order": 4
                                                    }
                                                ],
                                                "depth": 3,
                                                "id": 3,
                                                "order": 3
                                            },
                                            {
                                                "children": [
                                                    {
                                                        "children": [
                                                            {
                                                                "children": [
                                                                    {
                                                                        "children": [],
                                                                        "depth": 6,
                                                                        "id": 10,
                                                                        "order": 10
                                                                    }
                                                                ],
                                                                "depth": 5,
                                                                "id": 9,
                                                                "order": 9
                                                            }
                                                        ],
                                                        "depth": 4,
                                                        "id": 8,
                                                        "order": 8
                                                    }
                                                ],
                                                "depth": 3,
                                                "id": 7,
                                                "order": 7
                                            },
                                            {
                                                "children": [],
                                                "depth": 3,
                                                "id": 13,
                                                "order": 13
                                            }
                                        ],
                                        "depth": 2,
                                        "id": 2,
                                        "order": 2
                                    }
                                ],
                                "depth": 1,
                                "id": 1,
                                "order": 1
                            }
                        ],
                        "depth": 0,
                        "id": 0,
                        "order": 0
                    }
                ],
                "depth": -1,
                "id": -1,
                "order": -1
            }
        ],
        "tidyTraceNodeCount": 10
    },
    "state_change": {
        "stateChanges": [
            {
                "address": "0x3416cf6c708da44db2624d63ea0aaef7113527c6",
                "erc": "",
                "slots": [
                    {
                        "current": "0x00010000b400b40032fffffd0000000000000000fff940fe8fd22bd71ff1bfa2",
                        "key": "0x0000000000000000000000000000000000000000000000000000000000000000",
                        "prev": "0x00010000b400b40032fffffd0000000000000000fff941098ad3b6738e1c9d73"
                    },
                    {
                        "current": "0x000000000000000000000000000000000022103e7a94d3373d6c8789807e3018",
                        "key": "0x0000000000000000000000000000000000000000000000000000000000000001",
                        "prev": "0x000000000000000000000000000000000022103e7a4cd75ee7aa891d04d4c949"
                    }
                ],
                "storageVariables": [
                    {
                        "name": "feeGrowthGlobal0X128",
                        "type": "uint256",
                        "value": {
                            "current": "176867561827008108317685440818589720",
                            "prev": "176867561739985070461626661589010761",
                            "typeTag": 1
                        }
                    },
                    {
                        "name": "slot0",
                        "type": "struct UniswapV3Pool.Slot0",
                        "value": {
                            "fields": [
                                {
                                    "name": "sqrtPriceX96",
                                    "type": "uint160",
                                    "value": {
                                        "current": "79220006960818327464327626658",
                                        "prev": "79220007163372658184387599731",
                                        "typeTag": 1
                                    }
                                },
                                {
                                    "name": "tick",
                                    "type": "int24",
                                    "value": {
                                        "current": "-3",
                                        "prev": "-3",
                                        "typeTag": 1
                                    }
                                },
                                {
                                    "name": "observationIndex",
                                    "type": "uint16",
                                    "value": {
                                        "current": "50",
                                        "prev": "50",
                                        "typeTag": 1
                                    }
                                },
                                {
                                    "name": "observationCardinality",
                                    "type": "uint16",
                                    "value": {
                                        "current": "180",
                                        "prev": "180",
                                        "typeTag": 1
                                    }
                                },
                                {
                                    "name": "observationCardinalityNext",
                                    "type": "uint16",
                                    "value": {
                                        "current": "180",
                                        "prev": "180",
                                        "typeTag": 1
                                    }
                                },
                                {
                                    "name": "feeProtocol",
                                    "type": "uint8",
                                    "value": {
                                        "current": "0",
                                        "prev": "0",
                                        "typeTag": 1
                                    }
                                },
                                {
                                    "name": "unlocked",
                                    "type": "bool",
                                    "value": {
                                        "current": "true",
                                        "prev": "true",
                                        "typeTag": 1
                                    }
                                }
                            ],
                            "typeTag": 3
                        }
                    }
                ]
            },
            {
                "address": "0xa0b86991c6218b36c1d19d4a2e9eb0ce3606eb48",
                "erc": "ERC-20",
                "slots": [
                    {
                        "current": "0x0000000000000000000000000000000000000000000000000000000222e70ffe",
                        "key": "0x97840561dff98f4f3b8ada717440e446478aad511b644af103eeb2bf97f66e23",
                        "prev": "0x0000000000000000000000000000000000000000000000000000000240b474fe"
                    },
                    {
                        "current": "0x00000000000000000000000000000000000000000000000000003da78fda5b35",
                        "key": "0x8e8ba7d0240c502147869f7a9ae17aa9f683ea273c256f64b6fe2403de607113",
                        "prev": "0x00000000000000000000000000000000000000000000000000003da7720cf635"
                    },
                    {
                        "current": "0xffffffffffffffffffffffffffffffffffffffffffffffffffffffef8345d5df",
                        "key": "0x02f39154ef571d78cb599b658045b0feb6dfd2e322c11db2c19079562e31398e",
                        "prev": "0xffffffffffffffffffffffffffffffffffffffffffffffffffffffefa1133adf"
                    }
                ],
                "storageVariables": [
                    {
                        "name": "balances",
                        "type": "mapping(address => uint256)",
                        "value": {
                            "pairs": [
                                {
                                    "key": "0x3416cf6c708da44db2624d63ea0aaef7113527c6",
                                    "value": {
                                        "current": "67789882284853",
                                        "prev": "67789382284853",
                                        "typeTag": 1
                                    }
                                },
                                {
                                    "key": "0xe0ec67d3b5419db0d147bb6724e6510f27eef5d7",
                                    "value": {
                                        "current": "9175502846",
                                        "prev": "9675502846",
                                        "typeTag": 1
                                    }
                                }
                            ],
                            "typeTag": 4
                        }
                    },
                    {
                        "name": "allowed",
                        "type": "mapping(address => mapping(address => uint256))",
                        "value": {
                            "pairs": [
                                {
                                    "key": "0xe0ec67d3b5419db0d147bb6724e6510f27eef5d7",
                                    "value": {
                                        "pairs": [
                                            {
                                                "key": "0x68b3465833fb72a70ecdf485e0e4c7bd8665fc45",
                                                "value": {
                                                    "current": "115792089237316195423570985008687907853269984665640564039457584007842317587935",
                                                    "prev": "115792089237316195423570985008687907853269984665640564039457584007842817587935",
                                                    "typeTag": 1
                                                }
                                            }
                                        ],
                                        "typeTag": 4
                                    }
                                }
                            ],
                            "typeTag": 4
                        }
                    }
                ]
            },
            {
                "address": "0xdac17f958d2ee523a2206206994597c13d831ec7",
                "erc": "ERC-20",
                "slots": [
                    {
                        "current": "0x00000000000000000000000000000000000000000000000000002bc2dd0de8a5",
                        "key": "0xc003174de4e275b48c6334fed8975fae513981970c275dc4de760ddabe057660",
                        "prev": "0x00000000000000000000000000000000000000000000000000002bc2fad8f84c"
                    },
                    {
                        "current": "0x000000000000000000000000000000000000000000000000000000001dcb0fa7",
                        "key": "0x70823323b88d7b35e3d3bdc87cb04fe6b709d2b864c79279f229bcb620001c18",
                        "prev": "0x0000000000000000000000000000000000000000000000000000000000000000"
                    }
                ],
                "storageVariables": [
                    {
                        "name": "balances",
                        "type": "mapping(address => uint256)",
                        "value": {
                            "pairs": [
                                {
                                    "key": "0x3416cf6c708da44db2624d63ea0aaef7113527c6",
                                    "value": {
                                        "current": "48115932326053",
                                        "prev": "48116432173132",
                                        "typeTag": 1
                                    }
                                },
                                {
                                    "key": "0xe0ec67d3b5419db0d147bb6724e6510f27eef5d7",
                                    "value": {
                                        "current": "499847079",
                                        "prev": "0",
                                        "typeTag": 1
                                    }
                                }
                            ],
                            "typeTag": 4
                        }
                    }
                ]
            }
        ]
    }
}