{
    "balance_change": {
        "balanceChanges": []
    },
    "profile": {
        "basic_info": {
            "baseFee": "",
            "blockNumber": 7343863,
            "callData": "0x51958a56000000000000000000000000ac66ab27a65ce4b8a0bcc621278b7026d72c14db0000000000000000000000000000000000000000000000000000000000060bfc",
            "debugEnable": true,
            "errorInfo": "",
            "eventCount": 0,
            "feeRecipient": "0x5a0b54d5dc17e0aadc383d2db43b0a0d3e029c4c",
            "formatValue": "0",
            "gasLimit": 43908,
            "gasPrice": "4",
            "gasUsed": 43908,
            "intTxnCount": 0,
            "internalRevert": false,
            "internalRevertMessage": "",
            "isContractCreation": false,
            "isFlashloan": false,
            "maxFee": "",
            "nonce": 91798,
            "overwritedBlockNumber": -1,
            "priorityFee": "",
            "receiver": "0xc5c04f60fdd98e44cd9d4df9ee9bd1f01bfb69a4",
            "revertMessage": "",
            "sender": "0x6058233f589dbe86f38bc64e1a77cf16cf3c6c7e",
            "simulationEnable": true,
            "sourceTxnHash": "0x14949e3849203f2586a1b4bac05057d9fe644326302f05d8a3c74a2d939a454c",
            "status": true,
            "timestamp": "2019-03-10T21:19:56Z",
            "transactionFee": "0.000175632",
            "txnHash": "0x14949e3849203f2586a1b4bac05057d9fe644326302f05d8a3c74a2d939a454c",
            "txnIndex": 89,
            "type": 0,
            "value": "0"
        },
        "fund_flow": [],
        "token_infos": [
            {
                "address": "0xc02aaa39b223fe8d0a0e5c4f27ead9083c756cc2",
                "decimals": 18
            },
            {
                "address": "0xeeeeeeeeeeeeeeeeeeeeeeeeeeeeeeeeeeeeeeee",
                "decimals": 18
            }
        ]
    },
    "address_label": {
        "labels": [
            {
                "address": "0x0000000000000000000000000000000000000002",
                "label": "Precompiled"
            },
            {
                "address": "0x0000000000000000000000000000000000000003",
                "label": "Precompiled"
            },
            {
                "address": "0x0000000000000000000000000000000000000004",
                "label": "Precompiled"
            },
            {
                "address": "0xeeeeeeeeeeeeeeeeeeeeeeeeeeeeeeeeeeeeeeee",
                "label": "Ether"
            },
            {
                "address": "0xc5c04f60fdd98e44cd9d4df9ee9bd1f01bfb69a4",
                "label": "GETEventContract"
            },
            {
                "address": "0x0000000000000000000000000000000000000001",
                "label": "Precompiled"
            }
        ]
    },
    "trace": {
        "accountLabels": null,
        "dataMap": {
            "-1": {
                "invocation": {
                    "address": "0x6058233f589dbe86f38bc64e1a77cf16cf3c6c7e",
                    "callData": "",
                    "decodedMethod": null,
                    "errorInfo": "",
                    "fromAddress": "",
                    "gasUsed": 0,
                    "id": -1,
                    "methodDecoded": false,
                    "operation": "",
                    "output": "",
                    "revert": false,
                    "revertMessage": "",
                    "selector": "",
                    "status": false,
                    "value": ""
                },
                "nodeType": 0
            },
            "0": {
                "invocation": {
                    "address": "0xc5c04f60fdd98e44cd9d4df9ee9bd1f01bfb69a4",
                    "callData": "0x000000000000000000000000ac66ab27a65ce4b8a0bcc621278b7026d72c14db0000000000000000000000000000000000000000000000000000000000060bfc",
                    "decodedMethod": {
                        "callParams": [
                            {
                                "name": "_receiver",
                                "type": "address",
                                "value": "0xac66ab27a65ce4b8a0bcc621278b7026d72c14db"
                            },
                            {
                                "name": "_ticketid",
                                "type": "uint256",
                                "value": "396,284"
                            }
                        ],
                        "constructorArguments": "",
                        "name": "transferTicket",
                        "returnParams": [],
                        "signature": "transferTicket(address,uint256)"
                    },
                    "errorInfo": "",
                    "fromAddress": "0x6058233f589dbe86f38bc64e1a77cf16cf3c6c7e",
                    "gasUsed": 43908,
                    "id": 0,
                    "methodDecoded": true,
                    "operation": "CALL",
                    "output": "",
                    "revert": false,
                    "revertMessage": "",
                    "selector": "0x51958a56",
                    "status": true,
                    "value": "0"
                },
                "nodeType": 0
            }
        },
        "gasFlame": [
            {
                "children": [
                    {
                        "children": [
                            {
                                "children": [],
                                "depth": 0,
                                "name": "Initial Gas",
                                "value": 23000
                            },
                            {
                                "children": [],
                                "depth": 0,
                                "name": "Executed Gas",
                                "value": 20908
                            }
                        ],
                        "depth": -1,
                        "name": "Actual Gas Used",
                        "value": 43908
                    },
                    {
                        "children": [],
                        "depth": -1,
                        "name": "Refunded Gas",
                        "value": 0
                    }
                ],
                "depth": -2,
                "name": "Total Gas",
                "value": 43908
            }
        ],
        "isConfirmed": true,
        "mainTrace": [
            {
                "children": [
                    {
                        "children": [],
                        "depth": 0,
                        "id": 0,
                        "order": 0
                    }
                ],
                "depth": -1,
                "id": -1,
                "order": -1
            }
        ],
        "mainTraceNodeCount": 1,
        "parentIdMap": {
            "0": -1
        },
        "tidyTrace": [
            {
                "children": [
                    {
                        "children": [],
                        "depth": 0,
                        "id": 0,
                        "order": 0
                    }
                ],
                "depth": -1,
                "id": -1,
                "order": -1
            }
        ],
        "tidyTraceNodeCount": 1
    },
    "state_change": {
        "stateChanges": [
            {
                "address": "0xc5c04f60fdd98e44cd9d4df9ee9bd1f01bfb69a4",
                "erc": "",
                "slots": [
                    {
                        "current": "0x000000000000000000000000ac66ab27a65ce4b8a0bcc621278b7026d72c14db",
                        "key": "0x07836cb31fcf3dc2a1a78f9f540dbfe5021a50b535b4fd315571bb557c45b241",
                        "prev": "0x0000000000000000000000000000000000000000000000000000000000000000"
                    }
                ],
                "storageVariables": [
                    {
                        "name": "ticketOwner",
                        "type": "mapping(uint256 => address)",
                        "value": {
                            "pairs": [
                                {
                                    "key": "396284",
                                    "value": {
                                        "current": "0xac66ab27a65ce4b8a0bcc621278b7026d72c14db",
                                        "prev": "0x0000000000000000000000000000000000000000",
                                        "typeTag": 1
                                    }
                                }
                            ],
                            "typeTag": 4
                        }
                    }
                ]
            }
        ]
    }
}