{
    "balance_change": {
        "balanceChanges": [
            {
                "account": "0x1038dbb87621ec69ff3d8b879f97bc765ec51691",
                "assets": [
                    {
                        "address": "0xeeeeeeeeeeeeeeeeeeeeeeeeeeeeeeeeeeeeeeee",
                        "amount": "0.641622467948643478",
                        "iconUrl": "https://assets.blocksec.com/image/1663669189317-3.png",
                        "isERC1155": false,
                        "isERC721": false,
                        "sign": false,
                        "value": "1167.6887293312100584"
                    },
                    {
                        "address": "0xd2c5b9eb85271a55ec4f2d1c667f8f5038b73c4c",
                        "amount": "300,000,000.000000000342159199",
                        "iconUrl": "",
                        "isERC1155": false,
                        "isERC721": false,
                        "sign": false,
                        "value": "1369.963109"
                    },
                    {
                        "address": "0xc36442b4a4522e871399cd717abdd847ab11fe88",
                        "amount": "1",
                        "iconUrl": "https://assets.blocksec.com/nft/icon/nft_177aab42-5a7d-408e-b4aa-3c9923a4066f.png",
                        "isERC1155": false,
                        "isERC721": true,
                        "sign": true,
                        "tokenID": "527897",
                        "value": ""
                    }
                ]
            },
            {
                "account": "0x0000000000000000000000000000000000000000",
                "assets": [
                    {
                        "address": "0xc36442b4a4522e871399cd717abdd847ab11fe88",
                        "amount": "1",
                        "iconUrl": "https://assets.blocksec.com/nft/icon/nft_177aab42-5a7d-408e-b4aa-3c9923a4066f.png",
                        "isERC1155": false,
                        "isERC721": true,
                        "sign": false,
                        "tokenID": "527897",
                        "value": ""
                    }
                ]
            },
            {
                "account": "0xa82e740d0644b8e34f3bf9d6230d4954983db6c3",
                "assets": [
                    {
                        "address": "0xc02aaa39b223fe8d0a0e5c4f27ead9083c756cc2",
                        "amount": "0.641622467948643478",
                        "iconUrl": "https://assets.blocksec.com/icon/f1cb2d02c471d545bbc7722daf3277fd852d98e63d118771af7047bd8256c516.png",
                        "isERC1155": false,
                        "isERC721": false,
                        "sign": true,
                        "value": "1167.6887293312100584"
                    },
                    {
                        "address": "0xd2c5b9eb85271a55ec4f2d1c667f8f5038b73c4c",
                        "amount": "300,000,000.000000000342159199",
                        "iconUrl": "",
                        "isERC1155": false,
                        "isERC721": false,
                        "sign": true,
                        "value": "1369.963109"
                    }
                ]
            },
            {
                "account": "0xc02aaa39b223fe8d0a0e5c4f27ead9083c756cc2",
                "assets": [
                    {
                        "address": "0xc02aaa39b223fe8d0a0e5c4f27ead9083c756cc2",
                        "amount": "0.641622467948643478",
                        "iconUrl": "https://assets.blocksec.com/icon/f1cb2d02c471d545bbc7722daf3277fd852d98e63d118771af7047bd8256c516.png",
                        "isERC1155": false,
                        "isERC721": false,
                        "sign": false,
                        "value": "1167.6887293312100584"
                    },
                    {
                        "address": "0xeeeeeeeeeeeeeeeeeeeeeeeeeeeeeeeeeeeeeeee",
                        "amount": "0.641622467948643478",
                        "iconUrl": "https://assets.blocksec.com/image/1663669189317-3.png",
                        "isERC1155": false,
                        "isERC721": false,
                        "sign": true,
                        "value": "1167.6887293312100584"
                    }
                ]
            }
        ]
    },
    "profile": {
        "basic_info": {
            "baseFee": "14.823924789",
            "blockNumber": 17527796,
            "callData": "0xac9650d800000000000000000000000000000000000000000000000000000000000000200000000000000000000000000000000000000000000000000000000000000002000000000000000000000000000000000000000000000000000000000000004000000000000000000000000000000000000000000000000000000000000001e0000000000000000000000000000000000000000000000000000000000000016488316456000000000000000000000000c02aaa39b223fe8d0a0e5c4f27ead9083c756cc2000000000000000000000000d2c5b9eb85271a55ec4f2d1c667f8f5038b73c4c0000000000000000000000000000000000000000000000000000000000002710000000000000000000000000000000000000000000000000000000000002dc0800000000000000000000000000000000000000000000000000000000000323e800000000000000000000000000000000000000000000000008e7803c31fd0496000000000000000000000000000000000000000000f8277896582678c064ef5f00000000000000000000000000000000000000000000000008424237dff6dbbd000000000000000000000000000000000000000000e88fd3274ed1c9e7e897c20000000000000000000000001038dbb87621ec69ff3d8b879f97bc765ec51691000000000000000000000000000000000000000000000000000000006492e86700000000000000000000000000000000000000000000000000000000000000000000000000000000000000000000000000000000000000000000000412210e8a00000000000000000000000000000000000000000000000000000000",
            "debugEnable": true,
            "errorInfo": "",
            "eventCount": 6,
            "feeRecipient": "0x1f9090aae28b8a3dceadf281b0f12828e676c326",
            "formatValue": "0.641622467948643478",
            "gasLimit": 598610,
            "gasPrice": "14.923924789",
            "gasUsed": 470979,
            "intTxnCount": 13,
            "internalRevert": false,
            "internalRevertMessage": "",
            "isContractCreation": false,
            "isFlashloan": false,
            "maxFee": "18.882413035",
            "nonce": 476,
            "overwritedBlockNumber": -1,
            "priorityFee": "0.1",
            "receiver": "0xc36442b4a4522e871399cd717abdd847ab11fe88",
            "revertMessage": "",
            "sender": "0x1038dbb87621ec69ff3d8b879f97bc765ec51691",
            "simulationEnable": true,
            "sourceTxnHash": "0x141350b21ef87ef5c0d125ed99a975ae956540122422c29a2f041d9c75fc311d",
            "status": true,
            "timestamp": "2023-06-21T11:39:47Z",
            "transactionFee": "0.007028855173198431",
            "txnHash": "0x141350b21ef87ef5c0d125ed99a975ae956540122422c29a2f041d9c75fc311d",
            "txnIndex": 113,
            "type": 2,
            "value": "641622467948643478"
        },
        "fund_flow": [
            {
                "amount": "0.641622467948643478",
                "from": "0x1038dbb87621ec69ff3d8b879f97bc765ec51691",
                "id": 1,
                "isERC1155": false,
                "isERC721": false,
                "isReverted": false,
                "order": 1,
                "to": "0xc36442b4a4522e871399cd717abdd847ab11fe88",
                "token": "0xeeeeeeeeeeeeeeeeeeeeeeeeeeeeeeeeeeeeeeee"
            },
            {
                "amount": "0.641622467948643478",
                "from": "0xc36442b4a4522e871399cd717abdd847ab11fe88",
                "id": 2,
                "isERC1155": false,
                "isERC721": false,
                "isReverted": false,
                "order": 2,
                "to": "0xc02aaa39b223fe8d0a0e5c4f27ead9083c756cc2",
                "token": "0xeeeeeeeeeeeeeeeeeeeeeeeeeeeeeeeeeeeeeeee"
            },
            {
                "amount": "0.641622467948643478",
                "from": "0xc02aaa39b223fe8d0a0e5c4f27ead9083c756cc2",
                "id": 3,
                "isERC1155": false,
                "isERC721": false,
                "isReverted": false,
                "order": 3,
                "to": "0xc36442b4a4522e871399cd717abdd847ab11fe88",
                "token": "0xc02aaa39b223fe8d0a0e5c4f27ead9083c756cc2"
            },
            {
                "amount": "0.641622467948643478",
                "from": "0xc36442b4a4522e871399cd717abdd847ab11fe88",
                "id": 4,
                "isERC1155": false,
                "isERC721": false,
                "isReverted": false,
                "order": 4,
                "to": "0xa82e740d0644b8e34f3bf9d6230d4954983db6c3",
                "token": "0xc02aaa39b223fe8d0a0e5c4f27ead9083c756cc2"
            },
            {
                "amount": "300,000,000.000000000342159199",
                "from": "0x1038dbb87621ec69ff3d8b879f97bc765ec51691",
                "id": 5,
                "isERC1155": false,
                "isERC721": false,
                "isReverted": false,
                "order": 5,
                "to": "0xa82e740d0644b8e34f3bf9d6230d4954983db6c3",
                "token": "0xd2c5b9eb85271a55ec4f2d1c667f8f5038b73c4c"
            },
            {
                "amount": "1",
                "from": "0x0000000000000000000000000000000000000000",
                "id": 6,
                "isERC1155": false,
                "isERC721": true,
                "isReverted": false,
                "order": 6,
                "to": "0x1038dbb87621ec69ff3d8b879f97bc765ec51691",
                "token": "0xc36442b4a4522e871399cd717abdd847ab11fe88",
                "tokenID": "527897"
            }
        ],
        "token_infos": [
            {
                "address": "0xeeeeeeeeeeeeeeeeeeeeeeeeeeeeeeeeeeeeeeee",
                "decimals": 18
            },
            {
                "address": "0xc02aaa39b223fe8d0a0e5c4f27ead9083c756cc2",
                "decimals": 18
            },
            {
                "address": "0xd2c5b9eb85271a55ec4f2d1c667f8f5038b73c4c",
                "decimals": 18
            }
        ]
    },
    "address_label": {
        "labels": [
            {
                "address": "0x0000000000000000000000000000000000000003",
                "label": "Precompiled"
            },
            {
                "address": "0xc02aaa39b223fe8d0a0e5c4f27ead9083c756cc2",
                "label": "Wrapped Ether (WETH)"
            },
            {
                "address": "0xa82e740d0644b8e34f3bf9d6230d4954983db6c3",
                "label": "Uniswap V3: F721"
            },
            {
                "address": "0xc36442b4a4522e871399cd717abdd847ab11fe88",
                "label": "Uniswap V3: Positions NFT"
            },
            {
                "address": "0x0000000000000000000000000000000000000001",
                "label": "Precompiled"
            },
            {
                "address": "0xeeeeeeeeeeeeeeeeeeeeeeeeeeeeeeeeeeeeeeee",
                "label": "Ether"
            },
            {
                "address": "0xd2c5b9eb85271a55ec4f2d1c667f8f5038b73c4c",
                "label": "Fair 721 Token (F721)"
            },
            {
                "address": "0x0000000000000000000000000000000000000002",
                "label": "Precompiled"
            },
            {
                "address": "0x0000000000000000000000000000000000000004",
                "label": "Precompiled"
            }
        ]
    },
    "trace": {
        "accountLabels": null,
        "dataMap": {
            "-1": {
                "invocation": {
                    "address": "0x1038dbb87621ec69ff3d8b879f97bc765ec51691",
                    "callData": "",
                    "decodedMethod": null,
                    "errorInfo": "",
                    "fromAddress": "",
                    "gasUsed": 0,
                    "id": -1,
                    "methodDecoded": false,
                    "operation": "",
                    "output": "",
                    "revert": false,
                    "revertMessage": "",
                    "selector": "",
                    "status": false,
                    "value": ""
                },
                "nodeType": 0
            },
            "0": {
                "invocation": {
                    "address": "0xc36442b4a4522e871399cd717abdd847ab11fe88",
                    "callData": "0x00000000000000000000000000000000000000000000000000000000000000200000000000000000000000000000000000000000000000000000000000000002000000000000000000000000000000000000000000000000000000000000004000000000000000000000000000000000000000000000000000000000000001e0000000000000000000000000000000000000000000000000000000000000016488316456000000000000000000000000c02aaa39b223fe8d0a0e5c4f27ead9083c756cc2000000000000000000000000d2c5b9eb85271a55ec4f2d1c667f8f5038b73c4c0000000000000000000000000000000000000000000000000000000000002710000000000000000000000000000000000000000000000000000000000002dc0800000000000000000000000000000000000000000000000000000000000323e800000000000000000000000000000000000000000000000008e7803c31fd0496000000000000000000000000000000000000000000f8277896582678c064ef5f00000000000000000000000000000000000000000000000008424237dff6dbbd000000000000000000000000000000000000000000e88fd3274ed1c9e7e897c20000000000000000000000001038dbb87621ec69ff3d8b879f97bc765ec51691000000000000000000000000000000000000000000000000000000006492e86700000000000000000000000000000000000000000000000000000000000000000000000000000000000000000000000000000000000000000000000412210e8a00000000000000000000000000000000000000000000000000000000",
                    "decodedMethod": {
                        "callParams": [
                            {
                                "name": "data",
                                "type": "bytes[]",
                                "value": [
                                    "0x88316456000000000000000000000000c02aaa39b223fe8d0a0e5c4f27ead9083c756cc2000000000000000000000000d2c5b9eb85271a55ec4f2d1c667f8f5038b73c4c0000000000000000000000000000000000000000000000000000000000002710000000000000000000000000000000000000000000000000000000000002dc0800000000000000000000000000000000000000000000000000000000000323e800000000000000000000000000000000000000000000000008e7803c31fd0496000000000000000000000000000000000000000000f8277896582678c064ef5f00000000000000000000000000000000000000000000000008424237dff6dbbd000000000000000000000000000000000000000000e88fd3274ed1c9e7e897c20000000000000000000000001038dbb87621ec69ff3d8b879f97bc765ec51691000000000000000000000000000000000000000000000000000000006492e867",
                                    "0x12210e8a"
                                ]
                            }
                        ],
                        "constructorArguments": "",
                        "name": "multicall",
                        "returnParams": [
                            {
                                "name": "results",
                                "type": "bytes[]",
                                "value": [
                                    "0x0000000000000000000000000000000000000000000000000000000000080e19000000000000000000000000000000000000000000000806cfcb401d89d1e47000000000000000000000000000000000000000000000000008e7803c31fd0496000000000000000000000000000000000000000000f8277896582678c064ef5f",
                                    "0x"
                                ]
                            }
                        ],
                        "signature": "multicall(bytes[])"
                    },
                    "errorInfo": "",
                    "fromAddress": "0x1038dbb87621ec69ff3d8b879f97bc765ec51691",
                    "gasUsed": 470979,
                    "id": 0,
                    "methodDecoded": true,
                    "operation": "CALL",
                    "output": "0x00000000000000000000000000000000000000000000000000000000000000200000000000000000000000000000000000000000000000000000000000000002000000000000000000000000000000000000000000000000000000000000004000000000000000000000000000000000000000000000000000000000000000e000000000000000000000000000000000000000000000000000000000000000800000000000000000000000000000000000000000000000000000000000080e19000000000000000000000000000000000000000000000806cfcb401d89d1e47000000000000000000000000000000000000000000000000008e7803c31fd0496000000000000000000000000000000000000000000f8277896582678c064ef5f0000000000000000000000000000000000000000000000000000000000000000",
                    "revert": false,
                    "revertMessage": "",
                    "selector": "0xac9650d8",
                    "status": true,
                    "value": "0.641622467948643478"
                },
                "nodeType": 0
            },
            "1": {
                "invocation": {
                    "address": "0xc36442b4a4522e871399cd717abdd847ab11fe88",
                    "callData": "0x000000000000000000000000c02aaa39b223fe8d0a0e5c4f27ead9083c756cc2000000000000000000000000d2c5b9eb85271a55ec4f2d1c667f8f5038b73c4c0000000000000000000000000000000000000000000000000000000000002710000000000000000000000000000000000000000000000000000000000002dc0800000000000000000000000000000000000000000000000000000000000323e800000000000000000000000000000000000000000000000008e7803c31fd0496000000000000000000000000000000000000000000f8277896582678c064ef5f00000000000000000000000000000000000000000000000008424237dff6dbbd000000000000000000000000000000000000000000e88fd3274ed1c9e7e897c20000000000000000000000001038dbb87621ec69ff3d8b879f97bc765ec51691000000000000000000000000000000000000000000000000000000006492e867",
                    "decodedMethod": {
                        "callParams": [
                            {
                                "name": "params",
                                "type": "(address,address,uint24,int24,int24,uint256,uint256,uint256,uint256,address,uint256)",
                                "value": [
                                    {
                                        "name": "token0",
                                        "type": "address",
                                        "value": "0xc02aaa39b223fe8d0a0e5c4f27ead9083c756cc2"
                                    },
                                    {
                                        "name": "token1",
                                        "type": "address",
                                        "value": "0xd2c5b9eb85271a55ec4f2d1c667f8f5038b73c4c"
                                    },
                                    {
                                        "name": "fee",
                                        "type": "uint24",
                                        "value": "10,000"
                                    },
                                    {
                                        "name": "tickLower",
                                        "type": "int24",
                                        "value": "187,400"
                                    },
                                    {
                                        "name": "tickUpper",
                                        "type": "int24",
                                        "value": "205,800"
                                    },
                                    {
                                        "name": "amount0Desired",
                                        "type": "uint256",
                                        "value": "641,622,467,948,643,478"
                                    },
                                    {
                                        "name": "amount1Desired",
                                        "type": "uint256",
                                        "value": "300,000,000,000,000,000,342,159,199"
                                    },
                                    {
                                        "name": "amount0Min",
                                        "type": "uint256",
                                        "value": "595,110,908,514,458,557"
                                    },
                                    {
                                        "name": "amount1Min",
                                        "type": "uint256",
                                        "value": "281,149,983,653,075,761,284,814,786"
                                    },
                                    {
                                        "name": "recipient",
                                        "type": "address",
                                        "value": "0x1038dbb87621ec69ff3d8b879f97bc765ec51691"
                                    },
                                    {
                                        "name": "deadline",
                                        "type": "uint256",
                                        "value": "1,687,349,351"
                                    }
                                ]
                            }
                        ],
                        "constructorArguments": "",
                        "name": "mint",
                        "returnParams": [
                            {
                                "name": "tokenId",
                                "type": "uint256",
                                "value": "527,897"
                            },
                            {
                                "name": "liquidity",
                                "type": "uint128",
                                "value": "37,904,585,459,281,152,828,528"
                            },
                            {
                                "name": "amount0",
                                "type": "uint256",
                                "value": "641,622,467,948,643,478"
                            },
                            {
                                "name": "amount1",
                                "type": "uint256",
                                "value": "300,000,000,000,000,000,342,159,199"
                            }
                        ],
                        "signature": "mint((address,address,uint24,int24,int24,uint256,uint256,uint256,uint256,address,uint256))"
                    },
                    "errorInfo": "",
                    "fromAddress": "0xc36442b4a4522e871399cd717abdd847ab11fe88",
                    "gasUsed": 465231,
                    "id": 1,
                    "methodDecoded": true,
                    "operation": "DELEGATECALL",
                    "output": "0x0000000000000000000000000000000000000000000000000000000000080e19000000000000000000000000000000000000000000000806cfcb401d89d1e47000000000000000000000000000000000000000000000000008e7803c31fd0496000000000000000000000000000000000000000000f8277896582678c064ef5f",
                    "revert": false,
                    "revertMessage": "",
                    "selector": "0x88316456",
                    "status": true,
                    "value": "0.641622467948643478"
                },
                "nodeType": 0
            },
            "10": {
                "event": {
                    "contract": "0xc02aaa39b223fe8d0a0e5c4f27ead9083c756cc2",
                    "decodedLog": {
                        "name": "Transfer",
                        "params": [
                            {
                                "name": "src",
                                "type": "address",
                                "value": "0xc36442b4a4522e871399cd717abdd847ab11fe88"
                            },
                            {
                                "name": "dst",
                                "type": "address",
                                "value": "0xa82e740d0644b8e34f3bf9d6230d4954983db6c3"
                            },
                            {
                                "decimalAvailable": true,
                                "name": "wad",
                                "type": "uint256",
                                "value": "641,622,467,948,643,478"
                            }
                        ],
                        "signature": "Transfer(address,address,uint256)"
                    },
                    "id": 10,
                    "logData": "0x00000000000000000000000000000000000000000000000008e7803c31fd0496",
                    "logDecoded": true,
                    "operation": "EVENT",
                    "revert": false,
                    "status": true,
                    "topics": [
                        "0xddf252ad1be2c89b69c2b068fc378daa952ba7f163c4a11628f55a4df523b3ef",
                        "0x000000000000000000000000c36442b4a4522e871399cd717abdd847ab11fe88",
                        "0x000000000000000000000000a82e740d0644b8e34f3bf9d6230d4954983db6c3"
                    ]
                },
                "nodeType": 1
            },
            "11": {
                "invocation": {
                    "address": "0xd2c5b9eb85271a55ec4f2d1c667f8f5038b73c4c",
                    "callData": "0x0000000000000000000000001038dbb87621ec69ff3d8b879f97bc765ec51691000000000000000000000000a82e740d0644b8e34f3bf9d6230d4954983db6c3000000000000000000000000000000000000000000f8277896582678c064ef5f",
                    "decodedMethod": {
                        "callParams": [
                            {
                                "name": "from",
                                "type": "address",
                                "value": "0x1038dbb87621ec69ff3d8b879f97bc765ec51691"
                            },
                            {
                                "name": "to",
                                "type": "address",
                                "value": "0xa82e740d0644b8e34f3bf9d6230d4954983db6c3"
                            },
                            {
                                "decimalAvailable": true,
                                "name": "amount",
                                "type": "uint256",
                                "value": "300,000,000,000,000,000,342,159,199"
                            }
                        ],
                        "constructorArguments": "",
                        "name": "transferFrom",
                        "returnParams": [
                            {
                                "name": "",
                                "type": "bool",
                                "value": true
                            }
                        ],
                        "signature": "transferFrom(address,address,uint256)"
                    },
                    "errorInfo": "",
                    "fromAddress": "0xc36442b4a4522e871399cd717abdd847ab11fe88",
                    "gasUsed": 13257,
                    "id": 11,
                    "methodDecoded": true,
                    "operation": "CALL",
                    "output": "0x0000000000000000000000000000000000000000000000000000000000000001",
                    "revert": false,
                    "revertMessage": "",
                    "selector": "0x23b872dd",
                    "status": true,
                    "value": "0"
                },
                "nodeType": 0
            },
            "12": {
                "event": {
                    "contract": "0xd2c5b9eb85271a55ec4f2d1c667f8f5038b73c4c",
                    "decodedLog": {
                        "name": "Transfer",
                        "params": [
                            {
                                "name": "from",
                                "type": "address",
                                "value": "0x1038dbb87621ec69ff3d8b879f97bc765ec51691"
                            },
                            {
                                "name": "to",
                                "type": "address",
                                "value": "0xa82e740d0644b8e34f3bf9d6230d4954983db6c3"
                            },
                            {
                                "decimalAvailable": true,
                                "name": "value",
                                "type": "uint256",
                                "value": "300,000,000,000,000,000,342,159,199"
                            }
                        ],
                        "signature": "Transfer(address,address,uint256)"
                    },
                    "id": 12,
                    "logData": "0x000000000000000000000000000000000000000000f8277896582678c064ef5f",
                    "logDecoded": true,
                    "operation": "EVENT",
                    "revert": false,
                    "status": true,
                    "topics": [
                        "0xddf252ad1be2c89b69c2b068fc378daa952ba7f163c4a11628f55a4df523b3ef",
                        "0x0000000000000000000000001038dbb87621ec69ff3d8b879f97bc765ec51691",
                        "0x000000000000000000000000a82e740d0644b8e34f3bf9d6230d4954983db6c3"
                    ]
                },
                "nodeType": 1
            },
            "13": {
                "invocation": {
                    "address": "0xc02aaa39b223fe8d0a0e5c4f27ead9083c756cc2",
                    "callData": "0x000000000000000000000000a82e740d0644b8e34f3bf9d6230d4954983db6c3",
                    "decodedMethod": {
                        "callParams": [
                            {
                                "name": "",
                                "type": "address",
                                "value": "0xa82e740d0644b8e34f3bf9d6230d4954983db6c3"
                            }
                        ],
                        "constructorArguments": "",
                        "name": "balanceOf",
                        "returnParams": [
                            {
                                "decimalAvailable": true,
                                "name": "",
                                "type": "uint256",
                                "value": "2,337,559,562,490,589,112"
                            }
                        ],
                        "signature": "balanceOf(address)"
                    },
                    "errorInfo": "",
                    "fromAddress": "0xa82e740d0644b8e34f3bf9d6230d4954983db6c3",
                    "gasUsed": 534,
                    "id": 13,
                    "methodDecoded": true,
                    "operation": "STATICCALL",
                    "output": "0x0000000000000000000000000000000000000000000000002070ae098391afb8",
                    "revert": false,
                    "revertMessage": "",
                    "selector": "0x70a08231",
                    "status": true,
                    "value": "0"
                },
                "nodeType": 0
            },
            "14": {
                "invocation": {
                    "address": "0xd2c5b9eb85271a55ec4f2d1c667f8f5038b73c4c",
                    "callData": "0x000000000000000000000000a82e740d0644b8e34f3bf9d6230d4954983db6c3",
                    "decodedMethod": {
                        "callParams": [
                            {
                                "name": "account",
                                "type": "address",
                                "value": "0xa82e740d0644b8e34f3bf9d6230d4954983db6c3"
                            }
                        ],
                        "constructorArguments": "",
                        "name": "balanceOf",
                        "returnParams": [
                            {
                                "decimalAvailable": true,
                                "name": "",
                                "type": "uint256",
                                "value": "921,157,926,847,225,309,726,083,003"
                            }
                        ],
                        "signature": "balanceOf(address)"
                    },
                    "errorInfo": "",
                    "fromAddress": "0xa82e740d0644b8e34f3bf9d6230d4954983db6c3",
                    "gasUsed": 601,
                    "id": 14,
                    "methodDecoded": true,
                    "operation": "STATICCALL",
                    "output": "0x000000000000000000000000000000000000000002f9f6c74645a6076bc987bb",
                    "revert": false,
                    "revertMessage": "",
                    "selector": "0x70a08231",
                    "status": true,
                    "value": "0"
                },
                "nodeType": 0
            },
            "15": {
                "event": {
                    "contract": "0xa82e740d0644b8e34f3bf9d6230d4954983db6c3",
                    "decodedLog": {
                        "name": "Mint",
                        "params": [
                            {
                                "name": "owner",
                                "type": "address",
                                "value": "0xc36442b4a4522e871399cd717abdd847ab11fe88"
                            },
                            {
                                "name": "tickLower",
                                "type": "int24",
                                "value": "187,400"
                            },
                            {
                                "name": "tickUpper",
                                "type": "int24",
                                "value": "205,800"
                            },
                            {
                                "name": "sender",
                                "type": "address",
                                "value": "0xc36442b4a4522e871399cd717abdd847ab11fe88"
                            },
                            {
                                "name": "amount",
                                "type": "uint128",
                                "value": "37,904,585,459,281,152,828,528"
                            },
                            {
                                "name": "amount0",
                                "type": "uint256",
                                "value": "641,622,467,948,643,478"
                            },
                            {
                                "name": "amount1",
                                "type": "uint256",
                                "value": "300,000,000,000,000,000,342,159,199"
                            }
                        ],
                        "signature": "Mint(address,address,int24,int24,uint128,uint256,uint256)"
                    },
                    "id": 15,
                    "logData": "0x000000000000000000000000c36442b4a4522e871399cd717abdd847ab11fe88000000000000000000000000000000000000000000000806cfcb401d89d1e47000000000000000000000000000000000000000000000000008e7803c31fd0496000000000000000000000000000000000000000000f8277896582678c064ef5f",
                    "logDecoded": true,
                    "operation": "EVENT",
                    "revert": false,
                    "status": true,
                    "topics": [
                        "0x7a53080ba414158be7ec69b987b5fb7d07dee101fe85488f0853ae16239d0bde",
                        "0x000000000000000000000000c36442b4a4522e871399cd717abdd847ab11fe88",
                        "0x000000000000000000000000000000000000000000000000000000000002dc08",
                        "0x00000000000000000000000000000000000000000000000000000000000323e8"
                    ]
                },
                "nodeType": 1
            },
            "16": {
                "event": {
                    "contract": "0xc36442b4a4522e871399cd717abdd847ab11fe88",
                    "decodedLog": {
                        "name": "Transfer",
                        "params": [
                            {
                                "name": "from",
                                "type": "address",
                                "value": "0x0000000000000000000000000000000000000000"
                            },
                            {
                                "name": "to",
                                "type": "address",
                                "value": "0x1038dbb87621ec69ff3d8b879f97bc765ec51691"
                            },
                            {
                                "decimalAvailable": true,
                                "name": "tokenId",
                                "type": "uint256",
                                "value": "527,897"
                            }
                        ],
                        "signature": "Transfer(address,address,uint256)"
                    },
                    "id": 16,
                    "logData": "0x",
                    "logDecoded": true,
                    "operation": "EVENT",
                    "revert": false,
                    "status": true,
                    "topics": [
                        "0xddf252ad1be2c89b69c2b068fc378daa952ba7f163c4a11628f55a4df523b3ef",
                        "0x0000000000000000000000000000000000000000000000000000000000000000",
                        "0x0000000000000000000000001038dbb87621ec69ff3d8b879f97bc765ec51691",
                        "0x0000000000000000000000000000000000000000000000000000000000080e19"
                    ]
                },
                "nodeType": 1
            },
            "17": {
                "invocation": {
                    "address": "0xa82e740d0644b8e34f3bf9d6230d4954983db6c3",
                    "callData": "0x8ce89fbb5fc4d4546b2abd81f1e204b1d0bd09d918d84aba42fc03e9e43e3058",
                    "decodedMethod": {
                        "callParams": [
                            {
                                "name": "",
                                "type": "bytes32",
                                "value": "0x8ce89fbb5fc4d4546b2abd81f1e204b1d0bd09d918d84aba42fc03e9e43e3058"
                            }
                        ],
                        "constructorArguments": "",
                        "name": "positions",
                        "returnParams": [
                            {
                                "name": "liquidity",
                                "type": "uint128",
                                "value": "37,904,585,459,281,152,828,528"
                            },
                            {
                                "name": "feeGrowthInside0LastX128",
                                "type": "uint256",
                                "value": "0"
                            },
                            {
                                "name": "feeGrowthInside1LastX128",
                                "type": "uint256",
                                "value": "0"
                            },
                            {
                                "name": "tokensOwed0",
                                "type": "uint128",
                                "value": "0"
                            },
                            {
                                "name": "tokensOwed1",
                                "type": "uint128",
                                "value": "0"
                            }
                        ],
                        "signature": "positions(bytes32)"
                    },
                    "errorInfo": "",
                    "fromAddress": "0xc36442b4a4522e871399cd717abdd847ab11fe88",
                    "gasUsed": 1013,
                    "id": 17,
                    "methodDecoded": true,
                    "operation": "STATICCALL",
                    "output": "0x000000000000000000000000000000000000000000000806cfcb401d89d1e4700000000000000000000000000000000000000000000000000000000000000000000000000000000000000000000000000000000000000000000000000000000000000000000000000000000000000000000000000000000000000000000000000000000000000000000000000000000000000000000000000000000000000000",
                    "revert": false,
                    "revertMessage": "",
                    "selector": "0x514ea4bf",
                    "status": true,
                    "value": "0"
                },
                "nodeType": 0
            },
            "18": {
                "event": {
                    "contract": "0xc36442b4a4522e871399cd717abdd847ab11fe88",
                    "decodedLog": {
                        "name": "IncreaseLiquidity",
                        "params": [
                            {
                                "name": "tokenId",
                                "type": "uint256",
                                "value": "527,897"
                            },
                            {
                                "name": "liquidity",
                                "type": "uint128",
                                "value": "37,904,585,459,281,152,828,528"
                            },
                            {
                                "name": "amount0",
                                "type": "uint256",
                                "value": "641,622,467,948,643,478"
                            },
                            {
                                "name": "amount1",
                                "type": "uint256",
                                "value": "300,000,000,000,000,000,342,159,199"
                            }
                        ],
                        "signature": "IncreaseLiquidity(uint256,uint128,uint256,uint256)"
                    },
                    "id": 18,
                    "logData": "0x000000000000000000000000000000000000000000000806cfcb401d89d1e47000000000000000000000000000000000000000000000000008e7803c31fd0496000000000000000000000000000000000000000000f8277896582678c064ef5f",
                    "logDecoded": true,
                    "operation": "EVENT",
                    "revert": false,
                    "status": true,
                    "topics": [
                        "0x3067048beee31b25b2f1681f88dac838c8bba36af25bfb2b7cf7473a5847e35f",
                        "0x0000000000000000000000000000000000000000000000000000000000080e19"
                    ]
                },
                "nodeType": 1
            },
            "19": {
                "invocation": {
                    "address": "0xc36442b4a4522e871399cd717abdd847ab11fe88",
                    "callData": "0x",
                    "decodedMethod": {
                        "callParams": [],
                        "constructorArguments": "",
                        "name": "refundETH",
                        "returnParams": [],
                        "signature": "refundETH()"
                    },
                    "errorInfo": "",
                    "fromAddress": "0xc36442b4a4522e871399cd717abdd847ab11fe88",
                    "gasUsed": 233,
                    "id": 19,
                    "methodDecoded": true,
                    "operation": "DELEGATECALL",
                    "output": "",
                    "revert": false,
                    "revertMessage": "",
                    "selector": "0x12210e8a",
                    "status": true,
                    "value": "0.641622467948643478"
                },
                "nodeType": 0
            },
            "2": {
                "invocation": {
                    "address": "0xa82e740d0644b8e34f3bf9d6230d4954983db6c3",
                    "callData": "0x",
                    "decodedMethod": {
                        "callParams": [],
                        "constructorArguments": "",
                        "name": "slot0",
                        "returnParams": [
                            {
                                "name": "sqrtPriceX96",
                                "type": "uint160",
                                "value": "1,556,059,367,539,914,682,724,392,854,801,828"
                            },
                            {
                                "name": "tick",
                                "type": "int24",
                                "value": "197,716"
                            },
                            {
                                "name": "observationIndex",
                                "type": "uint16",
                                "value": "0"
                            },
                            {
                                "name": "observationCardinality",
                                "type": "uint16",
                                "value": "1"
                            },
                            {
                                "name": "observationCardinalityNext",
                                "type": "uint16",
                                "value": "1"
                            },
                            {
                                "name": "feeProtocol",
                                "type": "uint8",
                                "value": "0"
                            },
                            {
                                "name": "unlocked",
                                "type": "bool",
                                "value": true
                            }
                        ],
                        "signature": "slot0()"
                    },
                    "errorInfo": "",
                    "fromAddress": "0xc36442b4a4522e871399cd717abdd847ab11fe88",
                    "gasUsed": 2696,
                    "id": 2,
                    "methodDecoded": true,
                    "operation": "STATICCALL",
                    "output": "0x0000000000000000000000000000000000004cb83afccf7fc6a21dbf7882cda4000000000000000000000000000000000000000000000000000000000003045400000000000000000000000000000000000000000000000000000000000000000000000000000000000000000000000000000000000000000000000000000001000000000000000000000000000000000000000000000000000000000000000100000000000000000000000000000000000000000000000000000000000000000000000000000000000000000000000000000000000000000000000000000001",
                    "revert": false,
                    "revertMessage": "",
                    "selector": "0x3850c7bd",
                    "status": true,
                    "value": "0"
                },
                "nodeType": 0
            },
            "3": {
                "invocation": {
                    "address": "0xa82e740d0644b8e34f3bf9d6230d4954983db6c3",
                    "callData": "0x000000000000000000000000c36442b4a4522e871399cd717abdd847ab11fe88000000000000000000000000000000000000000000000000000000000002dc0800000000000000000000000000000000000000000000000000000000000323e8000000000000000000000000000000000000000000000806cfcb401d89d1e47000000000000000000000000000000000000000000000000000000000000000a00000000000000000000000000000000000000000000000000000000000000080000000000000000000000000c02aaa39b223fe8d0a0e5c4f27ead9083c756cc2000000000000000000000000d2c5b9eb85271a55ec4f2d1c667f8f5038b73c4c00000000000000000000000000000000000000000000000000000000000027100000000000000000000000001038dbb87621ec69ff3d8b879f97bc765ec51691",
                    "decodedMethod": {
                        "callParams": [
                            {
                                "name": "recipient",
                                "type": "address",
                                "value": "0xc36442b4a4522e871399cd717abdd847ab11fe88"
                            },
                            {
                                "name": "tickLower",
                                "type": "int24",
                                "value": "187,400"
                            },
                            {
                                "name": "tickUpper",
                                "type": "int24",
                                "value": "205,800"
                            },
                            {
                                "name": "amount",
                                "type": "uint128",
                                "value": "37,904,585,459,281,152,828,528"
                            },
                            {
                                "name": "data",
                                "type": "bytes",
                                "value": "0x000000000000000000000000c02aaa39b223fe8d0a0e5c4f27ead9083c756cc2000000000000000000000000d2c5b9eb85271a55ec4f2d1c667f8f5038b73c4c00000000000000000000000000000000000000000000000000000000000027100000000000000000000000001038dbb87621ec69ff3d8b879f97bc765ec51691"
                            }
                        ],
                        "constructorArguments": "",
                        "name": "mint",
                        "returnParams": [
                            {
                                "name": "amount0",
                                "type": "uint256",
                                "value": "641,622,467,948,643,478"
                            },
                            {
                                "name": "amount1",
                                "type": "uint256",
                                "value": "300,000,000,000,000,000,342,159,199"
                            }
                        ],
                        "signature": "mint(address,int24,int24,uint128,bytes)"
                    },
                    "errorInfo": "",
                    "fromAddress": "0xc36442b4a4522e871399cd717abdd847ab11fe88",
                    "gasUsed": 281208,
                    "id": 3,
                    "methodDecoded": true,
                    "operation": "CALL",
                    "output": "0x00000000000000000000000000000000000000000000000008e7803c31fd0496000000000000000000000000000000000000000000f8277896582678c064ef5f",
                    "revert": false,
                    "revertMessage": "",
                    "selector": "0x3c8a7d8d",
                    "status": true,
                    "value": "0"
                },
                "nodeType": 0
            },
            "4": {
                "invocation": {
                    "address": "0xc02aaa39b223fe8d0a0e5c4f27ead9083c756cc2",
                    "callData": "0x000000000000000000000000a82e740d0644b8e34f3bf9d6230d4954983db6c3",
                    "decodedMethod": {
                        "callParams": [
                            {
                                "name": "",
                                "type": "address",
                                "value": "0xa82e740d0644b8e34f3bf9d6230d4954983db6c3"
                            }
                        ],
                        "constructorArguments": "",
                        "name": "balanceOf",
                        "returnParams": [
                            {
                                "decimalAvailable": true,
                                "name": "",
                                "type": "uint256",
                                "value": "1,695,937,094,541,945,634"
                            }
                        ],
                        "signature": "balanceOf(address)"
                    },
                    "errorInfo": "",
                    "fromAddress": "0xa82e740d0644b8e34f3bf9d6230d4954983db6c3",
                    "gasUsed": 2534,
                    "id": 4,
                    "methodDecoded": true,
                    "operation": "STATICCALL",
                    "output": "0x00000000000000000000000000000000000000000000000017892dcd5194ab22",
                    "revert": false,
                    "revertMessage": "",
                    "selector": "0x70a08231",
                    "status": true,
                    "value": "0"
                },
                "nodeType": 0
            },
            "5": {
                "invocation": {
                    "address": "0xd2c5b9eb85271a55ec4f2d1c667f8f5038b73c4c",
                    "callData": "0x000000000000000000000000a82e740d0644b8e34f3bf9d6230d4954983db6c3",
                    "decodedMethod": {
                        "callParams": [
                            {
                                "name": "account",
                                "type": "address",
                                "value": "0xa82e740d0644b8e34f3bf9d6230d4954983db6c3"
                            }
                        ],
                        "constructorArguments": "",
                        "name": "balanceOf",
                        "returnParams": [
                            {
                                "decimalAvailable": true,
                                "name": "",
                                "type": "uint256",
                                "value": "621,157,926,847,225,309,383,923,804"
                            }
                        ],
                        "signature": "balanceOf(address)"
                    },
                    "errorInfo": "",
                    "fromAddress": "0xa82e740d0644b8e34f3bf9d6230d4954983db6c3",
                    "gasUsed": 2601,
                    "id": 5,
                    "methodDecoded": true,
                    "operation": "STATICCALL",
                    "output": "0x00000000000000000000000000000000000000000201cf4eafed7f8eab64985c",
                    "revert": false,
                    "revertMessage": "",
                    "selector": "0x70a08231",
                    "status": true,
                    "value": "0"
                },
                "nodeType": 0
            },
            "6": {
                "invocation": {
                    "address": "0xc36442b4a4522e871399cd717abdd847ab11fe88",
                    "callData": "0x00000000000000000000000000000000000000000000000008e7803c31fd0496000000000000000000000000000000000000000000f8277896582678c064ef5f00000000000000000000000000000000000000000000000000000000000000600000000000000000000000000000000000000000000000000000000000000080000000000000000000000000c02aaa39b223fe8d0a0e5c4f27ead9083c756cc2000000000000000000000000d2c5b9eb85271a55ec4f2d1c667f8f5038b73c4c00000000000000000000000000000000000000000000000000000000000027100000000000000000000000001038dbb87621ec69ff3d8b879f97bc765ec51691",
                    "decodedMethod": {
                        "callParams": [
                            {
                                "name": "amount0Owed",
                                "type": "uint256",
                                "value": "641,622,467,948,643,478"
                            },
                            {
                                "name": "amount1Owed",
                                "type": "uint256",
                                "value": "300,000,000,000,000,000,342,159,199"
                            },
                            {
                                "name": "data",
                                "type": "bytes",
                                "value": "0x000000000000000000000000c02aaa39b223fe8d0a0e5c4f27ead9083c756cc2000000000000000000000000d2c5b9eb85271a55ec4f2d1c667f8f5038b73c4c00000000000000000000000000000000000000000000000000000000000027100000000000000000000000001038dbb87621ec69ff3d8b879f97bc765ec51691"
                            }
                        ],
                        "constructorArguments": "",
                        "name": "uniswapV3MintCallback",
                        "returnParams": [],
                        "signature": "uniswapV3MintCallback(uint256,uint256,bytes)"
                    },
                    "errorInfo": "",
                    "fromAddress": "0xa82e740d0644b8e34f3bf9d6230d4954983db6c3",
                    "gasUsed": 54156,
                    "id": 6,
                    "methodDecoded": true,
                    "operation": "CALL",
                    "output": "",
                    "revert": false,
                    "revertMessage": "",
                    "selector": "0xd3487997",
                    "status": true,
                    "value": "0"
                },
                "nodeType": 0
            },
            "7": {
                "invocation": {
                    "address": "0xc02aaa39b223fe8d0a0e5c4f27ead9083c756cc2",
                    "callData": "0x",
                    "decodedMethod": {
                        "callParams": [],
                        "constructorArguments": "",
                        "name": "deposit",
                        "returnParams": [],
                        "signature": "deposit()"
                    },
                    "errorInfo": "",
                    "fromAddress": "0xc36442b4a4522e871399cd717abdd847ab11fe88",
                    "gasUsed": 23974,
                    "id": 7,
                    "methodDecoded": true,
                    "operation": "CALL",
                    "output": "",
                    "revert": false,
                    "revertMessage": "",
                    "selector": "0xd0e30db0",
                    "status": true,
                    "value": "0.641622467948643478"
                },
                "nodeType": 0
            },
            "8": {
                "event": {
                    "contract": "0xc02aaa39b223fe8d0a0e5c4f27ead9083c756cc2",
                    "decodedLog": {
                        "name": "Deposit",
                        "params": [
                            {
                                "name": "dst",
                                "type": "address",
                                "value": "0xc36442b4a4522e871399cd717abdd847ab11fe88"
                            },
                            {
                                "name": "wad",
                                "type": "uint256",
                                "value": "641,622,467,948,643,478"
                            }
                        ],
                        "signature": "Deposit(address,uint256)"
                    },
                    "id": 8,
                    "logData": "0x00000000000000000000000000000000000000000000000008e7803c31fd0496",
                    "logDecoded": true,
                    "operation": "EVENT",
                    "revert": false,
                    "status": true,
                    "topics": [
                        "0xe1fffcc4923d04b559f4d29a8bfc6cda04eb5b0d3c460751c2402c5c5cc9109c",
                        "0x000000000000000000000000c36442b4a4522e871399cd717abdd847ab11fe88"
                    ]
                },
                "nodeType": 1
            },
            "9": {
                "invocation": {
                    "address": "0xc02aaa39b223fe8d0a0e5c4f27ead9083c756cc2",
                    "callData": "0x000000000000000000000000a82e740d0644b8e34f3bf9d6230d4954983db6c300000000000000000000000000000000000000000000000008e7803c31fd0496",
                    "decodedMethod": {
                        "callParams": [
                            {
                                "name": "dst",
                                "type": "address",
                                "value": "0xa82e740d0644b8e34f3bf9d6230d4954983db6c3"
                            },
                            {
                                "decimalAvailable": true,
                                "name": "wad",
                                "type": "uint256",
                                "value": "641,622,467,948,643,478"
                            }
                        ],
                        "constructorArguments": "",
                        "name": "transfer",
                        "returnParams": [
                            {
                                "name": "",
                                "type": "bool",
                                "value": true
                            }
                        ],
                        "signature": "transfer(address,uint256)"
                    },
                    "errorInfo": "",
                    "fromAddress": "0xc36442b4a4522e871399cd717abdd847ab11fe88",
                    "gasUsed": 6062,
                    "id": 9,
                    "methodDecoded": true,
                    "operation": "CALL",
                    "output": "0x0000000000000000000000000000000000000000000000000000000000000001",
                    "revert": false,
                    "revertMessage": "",
                    "selector": "0xa9059cbb",
                    "status": true,
                    "value": "0"
                },
                "nodeType": 0
            }
        },
        "gasFlame": [
            {
                "children": [
                    {
                        "children": [
                            {
                                "children": [],
                                "depth": 0,
                                "name": "Initial Gas",
                                "value": 25008
                            },
                            {
                                "children": [
                                    {
                                        "children": [
                                            {
                                                "children": [],
                                                "depth": 2,
                                                "name": "slot0",
                                                "value": 2696
                                            },
                                            {
                                                "children": [
                                                    {
                                                        "children": [],
                                                        "depth": 3,
                                                        "name": "balanceOf",
                                                        "value": 2534
                                                    },
                                                    {
                                                        "children": [],
                                                        "depth": 3,
                                                        "name": "balanceOf",
                                                        "value": 2601
                                                    },
                                                    {
                                                        "children": [
                                                            {
                                                                "children": [],
                                                                "depth": 4,
                                                                "name": "deposit",
                                                                "value": 23974
                                                            },
                                                            {
                                                                "children": [],
                                                                "depth": 4,
                                                                "name": "transfer",
                                                                "value": 6062
                                                            },
                                                            {
                                                                "children": [],
                                                                "depth": 4,
                                                                "name": "transferFrom",
                                                                "value": 13257
                                                            }
                                                        ],
                                                        "depth": 3,
                                                        "name": "uniswapV3MintCallback",
                                                        "value": 54156
                                                    },
                                                    {
                                                        "children": [],
                                                        "depth": 3,
                                                        "name": "balanceOf",
                                                        "value": 534
                                                    },
                                                    {
                                                        "children": [],
                                                        "depth": 3,
                                                        "name": "balanceOf",
                                                        "value": 601
                                                    }
                                                ],
                                                "depth": 2,
                                                "name": "mint",
                                                "value": 281208
                                            },
                                            {
                                                "children": [],
                                                "depth": 2,
                                                "name": "positions",
                                                "value": 1013
                                            }
                                        ],
                                        "depth": 1,
                                        "name": "mint",
                                        "value": 465231
                                    },
                                    {
                                        "children": [],
                                        "depth": 1,
                                        "name": "refundETH",
                                        "value": 233
                                    }
                                ],
                                "depth": 0,
                                "name": "Executed Gas",
                                "value": 468671
                            }
                        ],
                        "depth": -1,
                        "name": "Actual Gas Used",
                        "value": 470979
                    },
                    {
                        "children": [],
                        "depth": -1,
                        "name": "Refunded Gas",
                        "value": 22700
                    }
                ],
                "depth": -2,
                "name": "Total Gas",
                "value": 493679
            }
        ],
        "isConfirmed": true,
        "mainTrace": [
            {
                "children": [
                    {
                        "children": [
                            {
                                "children": [
                                    {
                                        "children": [],
                                        "depth": 2,
                                        "id": 2,
                                        "order": 2
                                    },
                                    {
                                        "children": [
                                            {
                                                "children": [],
                                                "depth": 3,
                                                "id": 4,
                                                "order": 4
                                            },
                                            {
                                                "children": [],
                                                "depth": 3,
                                                "id": 5,
                                                "order": 5
                                            },
                                            {
                                                "children": [
                                                    {
                                                        "children": [
                                                            {
                                                                "children": [],
                                                                "depth": 5,
                                                                "id": 8,
                                                                "order": 8
                                                            }
                                                        ],
                                                        "depth": 4,
                                                        "id": 7,
                                                        "order": 7
                                                    },
                                                    {
                                                        "children": [
                                                            {
                                                                "children": [],
                                                                "depth": 5,
                                                                "id": 10,
                                                                "order": 10
                                                            }
                                                        ],
                                                        "depth": 4,
                                                        "id": 9,
                                                        "order": 9
                                                    },
                                                    {
                                                        "children": [
                                                            {
                                                                "children": [],
                                                                "depth": 5,
                                                                "id": 12,
                                                                "order": 12
                                                            }
                                                        ],
                                                        "depth": 4,
                                                        "id": 11,
                                                        "order": 11
                                                    }
                                                ],
                                                "depth": 3,
                                                "id": 6,
                                                "order": 6
                                            },
                                            {
                                                "children": [],
                                                "depth": 3,
                                                "id": 13,
                                                "order": 13
                                            },
                                            {
                                                "children": [],
                                                "depth": 3,
                                                "id": 14,
                                                "order": 14
                                            },
                                            {
                                                "children": [],
                                                "depth": 3,
                                                "id": 15,
                                                "order": 15
                                            }
                                        ],
                                        "depth": 2,
                                        "id": 3,
                                        "order": 3
                                    },
                                    {
                                        "children": [],
                                        "depth": 2,
                                        "id": 16,
                                        "order": 16
                                    },
                                    {
                                        "children": [],
                                        "depth": 2,
                                        "id": 17,
                                        "order": 17
                                    },
                                    {
                                        "children": [],
                                        "depth": 2,
                                        "id": 18,
                                        "order": 18
                                    }
                                ],
                                "depth": 1,
                                "id": 1,
                                "order": 1
                            },
                            {
                                "children": [],
                                "depth": 1,
                                "id": 19,
                                "order": 19
                            }
                        ],
                        "depth": 0,
                        "id": 0,
                        "order": 0
                    }
                ],
                "depth": -1,
                "id": -1,
                "order": -1
            }
        ],
        "mainTraceNodeCount": 20,
        "parentIdMap": {
            "0": -1,
            "1": 0,
            "10": 9,
            "11": 6,
            "12": 11,
            "13": 3,
            "14": 3,
            "15": 3,
            "16": 1,
            "17": 1,
            "18": 1,
            "19": 0,
            "2": 1,
            "3": 1,
            "4": 3,
            "5": 3,
            "6": 3,
            "7": 6,
            "8": 7,
            "9": 6
        },
        "tidyTrace": [
            {
                "children": [
                    {
                        "children": [
                            {
                                "children": [
                                    {
                                        "children": [
                                            {
                                                "children": [
                                                    {
                                                        "children": [
                                                            {
                                                                "children": [],
                                                                "depth": 5,
                                                                "id": 8,
                                                                "order": 8
                                                            }
                                                        ],
                                                        "depth": 4,
                                                        "id": 7,
                                                        "order": 7
                                                    },
                                                    {
                                                        "children": [
                                                            {
                                                                "children": [],
                                                                "depth": 5,
                                                                "id": 10,
                                                                "order": 10
                                                            }
                                                        ],
                                                        "depth": 4,
                                                        "id": 9,
                                                        "order": 9
                                                    },
                                                    {
                                                        "children": [
                                                            {
                                                                "children": [],
                                                                "depth": 5,
                                                                "id": 12,
                                                                "order": 12
                                                            }
                                                        ],
                                                        "depth": 4,
                                                        "id": 11,
                                                        "order": 11
                                                    }
                                                ],
                                                "depth": 3,
                                                "id": 6,
                                                "order": 6
                                            },
                                            {
                                                "children": [],
                                                "depth": 3,
                                                "id": 15,
                                                "order": 15
                                            }
                                        ],
                                        "depth": 2,
                                        "id": 3,
                                        "order": 3
                                    },
                                    {
                                        "children": [],
                                        "depth": 2,
                                        "id": 16,
                                        "order": 16
                                    },
                                    {
                                        "children": [],
                                        "depth": 2,
                                        "id": 18,
                                        "order": 18
                                    }
                                ],
                                "depth": 1,
                                "id": 1,
                                "order": 1
                            },
                            {
                                "children": [],
                                "depth": 1,
                                "id": 19,
                                "order": 19
                            }
                        ],
                        "depth": 0,
                        "id": 0,
                        "order": 0
                    }
                ],
                "depth": -1,
                "id": -1,
                "order": -1
            }
        ],
        "tidyTraceNodeCount": 14
    },
    "state_change": {
        "stateChanges": [
            {
                "address": "0xa82e740d0644b8e34f3bf9d6230d4954983db6c3",
                "erc": "",
                "slots": [
                    {
                        "current": "0x000000000000000000000000000000000000000000000806cfcb401d89d1e470",
                        "key": "0xdea27dd81644c3205be2bf6a24e56d73749dea001fdae87b0f583309ed8334b1",
                        "prev": "0x0000000000000000000000000000000000000000000000000000000000000000"
                    },
                    {
                        "current": "0x0000000000000806cfcb401d89d1e4700000000000000806cfcb401d89d1e470",
                        "key": "0x796a6f2725dca39a80ab1afd6bf77f7a50c0a763df4d199bcab6ea7a5c9a04f4",
                        "prev": "0x0000000000000000000000000000000000000000000000000000000000000000"
                    },
                    {
                        "current": "0xfffffffffffff7f93034bfe2762e1b900000000000000806cfcb401d89d1e470",
                        "key": "0xe2750fa54ee2d67175f18974570c31b4348227e179f4b5b79b6789853bf3bf9d",
                        "prev": "0x0000000000000000000000000000000000000000000000000000000000000000"
                    },
                    {
                        "current": "0x0100000000000000000000000a036a0ddae1267d410000003d4b215c6492e183",
                        "key": "0x0000000000000000000000000000000000000000000000000000000000000008",
                        "prev": "0x01000000000000000000000009ff4e4216d6eebd200000003c71e9bc6492e13b"
                    },
                    {
                        "current": "0x00000000000000000000000000000000000000000000198d0911eaa1e968ee4f",
                        "key": "0x0000000000000000000000000000000000000000000000000000000000000004",
                        "prev": "0x0000000000000000000000000000000000000000000011863946aa845f9709df"
                    },
                    {
                        "current": "0x0100000000000000000000000000000000000000000000000000000000000000",
                        "key": "0xe2750fa54ee2d67175f18974570c31b4348227e179f4b5b79b6789853bf3bfa0",
                        "prev": "0x0000000000000000000000000000000000000000000000000000000000000000"
                    },
                    {
                        "current": "0x1080000000000000108202000000000000000000000001000000000000000000",
                        "key": "0x75f96ab15d697e93042dc45b5c896c4b27e89bb6eaf39475c5c371cb2513f7d2",
                        "prev": "0x1080000000000000108200000000000000000000000001000000000000000000"
                    },
                    {
                        "current": "0x000000000000000000000000000004a81f7b98a3c38cf7ad2c8005375a1a24e0",
                        "key": "0x796a6f2725dca39a80ab1afd6bf77f7a50c0a763df4d199bcab6ea7a5c9a04f6",
                        "prev": "0x0000000000000000000000000000000000000000000000000000000000000000"
                    },
                    {
                        "current": "0x0000000000000000000000000000000000000000000000000000000000000022",
                        "key": "0xc5069e24aaadb2addc3e52e868fcf3f4f8acf5a87e24300992fd4540c2a87eed",
                        "prev": "0x0000000000000000000000000000000000000000000000000000000000000002"
                    },
                    {
                        "current": "0x0000000000000000000000000000000000008444818d9664e77c9b86a52d4f35",
                        "key": "0x796a6f2725dca39a80ab1afd6bf77f7a50c0a763df4d199bcab6ea7a5c9a04f5",
                        "prev": "0x0000000000000000000000000000000000000000000000000000000000000000"
                    },
                    {
                        "current": "0x016492e18300000000000000000000000a036a0ddae1267d410000003d4b215c",
                        "key": "0x796a6f2725dca39a80ab1afd6bf77f7a50c0a763df4d199bcab6ea7a5c9a04f7",
                        "prev": "0x0000000000000000000000000000000000000000000000000000000000000000"
                    }
                ],
                "storageVariables": []
            },
            {
                "address": "0xc02aaa39b223fe8d0a0e5c4f27ead9083c756cc2",
                "erc": "ERC-20",
                "slots": [
                    {
                        "current": "0x0000000000000000000000000000000000000000000000002070ae098391afb8",
                        "key": "0x232f23135b5c740d330a6a560dea2d2ee1b149172607cb8088ac52d30ef2d19d",
                        "prev": "0x00000000000000000000000000000000000000000000000017892dcd5194ab22"
                    }
                ],
                "storageVariables": [
                    {
                        "name": "balanceOf",
                        "type": "mapping(address => uint256)",
                        "value": {
                            "pairs": [
                                {
                                    "key": "0xa82e740d0644b8e34f3bf9d6230d4954983db6c3",
                                    "value": {
                                        "current": "2337559562490589112",
                                        "prev": "1695937094541945634",
                                        "typeTag": 1
                                    }
                                }
                            ],
                            "typeTag": 4
                        }
                    }
                ]
            },
            {
                "address": "0xc36442b4a4522e871399cd717abdd847ab11fe88",
                "erc": "ERC-721",
                "slots": [
                    {
                        "current": "0x0000000000000000000000000000000000000000000000000000000000073b39",
                        "key": "0x0000000000000000000000000000000000000000000000000000000000000002",
                        "prev": "0x0000000000000000000000000000000000000000000000000000000000073b38"
                    },
                    {
                        "current": "0x0000000000000000000000000000000000000000000000000000000000080e19",
                        "key": "0x405787fa12a823e0f2b7631cc41b3ba8828b3321ca811111fa75cd3aa3c9d13e",
                        "prev": "0x0000000000000000000000000000000000000000000000000000000000000000"
                    },
                    {
                        "current": "0x0000000000000000000000001038dbb87621ec69ff3d8b879f97bc765ec51691",
                        "key": "0x405787fa12a823e0f2b7631cc41b3ba8828b3321ca811111fa75cd3aa3c9d13f",
                        "prev": "0x0000000000000000000000000000000000000000000000000000000000000000"
                    },
                    {
                        "current": "0x0000000000000000000000000000000000000000000000000000000000073b39",
                        "key": "0xb96df38ec8d424e63d220bd69e453aafdfd6eda322d64531ba1ec42d84519d70",
                        "prev": "0x0000000000000000000000000000000000000000000000000000000000000000"
                    },
                    {
                        "current": "0x0000000000000000349e00000000000000000000000000000000000000080e1a",
                        "key": "0x000000000000000000000000000000000000000000000000000000000000000d",
                        "prev": "0x0000000000000000349e00000000000000000000000000000000000000080e19"
                    },
                    {
                        "current": "0x0000000000000806cfcb401d89d1e4700323e802dc080000000000000000349c",
                        "key": "0x71be249746ef3caa1c83f169087bd2f1ee55f47808f1ab3e64e4b4c82bc09ef2",
                        "prev": "0x0000000000000000000000000000000000000000000000000000000000000000"
                    },
                    {
                        "current": "0x0000000000000000000000000000000000000000000000000000000000000002",
                        "key": "0x98149cfda7c0ec6069e17c6bc4b142d437627ff65544b785165a97802697f4b6",
                        "prev": "0x0000000000000000000000000000000000000000000000000000000000000001"
                    },
                    {
                        "current": "0x0000000000000000000000000000000000000000000000000000000000000002",
                        "key": "0x34709d8b8e85ca78f7a41d819563854239de13e4e53101c48c23b3605b1a9d7e",
                        "prev": "0x0000000000000000000000000000000000000000000000000000000000000000"
                    },
                    {
                        "current": "0x0000000000000000000000000000000000000000000000000000000000080e19",
                        "key": "0x2699fdd44ea21ec8fff1567e4582dc620aca32d21de14698832584d1e219ca1f",
                        "prev": "0x0000000000000000000000000000000000000000000000000000000000000000"
                    }
                ],
                "storageVariables": [
                    {
                        "name": "_tokenOwners",
                        "type": "struct EnumerableMap.UintToAddressMap",
                        "value": {
                            "fields": [
                                {
                                    "name": "_inner",
                                    "type": "struct EnumerableMap.Map",
                                    "value": {
                                        "fields": [
                                            {
                                                "name": "_entries",
                                                "type": "struct EnumerableMap.MapEntry[]",
                                                "value": {
                                                    "elemType": "struct EnumerableMap.MapEntry",
                                                    "elems": [
                                                        {
                                                            "index": 473912,
                                                            "value": {
                                                                "fields": [
                                                                    {
                                                                        "name": "_key",
                                                                        "type": "bytes32",
                                                                        "value": {
                                                                            "current": "0x0000000000000000000000000000000000000000000000000000000000080e19",
                                                                            "prev": "0x0000000000000000000000000000000000000000000000000000000000000000",
                                                                            "typeTag": 1
                                                                        }
                                                                    },
                                                                    {
                                                                        "name": "_value",
                                                                        "type": "bytes32",
                                                                        "value": {
                                                                            "current": "0x0000000000000000000000001038dbb87621ec69ff3d8b879f97bc765ec51691",
                                                                            "prev": "0x0000000000000000000000000000000000000000000000000000000000000000",
                                                                            "typeTag": 1
                                                                        }
                                                                    }
                                                                ],
                                                                "typeTag": 3
                                                            }
                                                        }
                                                    ],
                                                    "typeTag": 2
                                                }
                                            },
                                            {
                                                "name": "_indexes",
                                                "type": "mapping(bytes32 => uint256)",
                                                "value": {
                                                    "pairs": [
                                                        {
                                                            "key": "0x0000000000000000000000000000000000000000000000000000000000080e19",
                                                            "value": {
                                                                "current": "473913",
                                                                "prev": "0",
                                                                "typeTag": 1
                                                            }
                                                        }
                                                    ],
                                                    "typeTag": 4
                                                }
                                            }
                                        ],
                                        "typeTag": 3
                                    }
                                }
                            ],
                            "typeTag": 3
                        }
                    },
                    {
                        "name": "_nextId",
                        "type": "uint176",
                        "value": {
                            "current": "527898",
                            "prev": "527897",
                            "typeTag": 1
                        }
                    },
                    {
                        "name": "_nextPoolId",
                        "type": "uint80",
                        "value": {
                            "current": "13470",
                            "prev": "13470",
                            "typeTag": 1
                        }
                    },
                    {
                        "name": "_positions",
                        "type": "mapping(uint256 => struct NonfungiblePositionManager.Position)",
                        "value": {
                            "pairs": [
                                {
                                    "key": "527897",
                                    "value": {
                                        "fields": [
                                            {
                                                "name": "poolId",
                                                "type": "uint80",
                                                "value": {
                                                    "current": "13468",
                                                    "prev": "0",
                                                    "typeTag": 1
                                                }
                                            },
                                            {
                                                "name": "tickLower",
                                                "type": "int24",
                                                "value": {
                                                    "current": "187400",
                                                    "prev": "0",
                                                    "typeTag": 1
                                                }
                                            },
                                            {
                                                "name": "tickUpper",
                                                "type": "int24",
                                                "value": {
                                                    "current": "205800",
                                                    "prev": "0",
                                                    "typeTag": 1
                                                }
                                            },
                                            {
                                                "name": "liquidity",
                                                "type": "uint128",
                                                "value": {
                                                    "current": "37904585459281152828528",
                                                    "prev": "0",
                                                    "typeTag": 1
                                                }
                                            }
                                        ],
                                        "typeTag": 3
                                    }
                                }
                            ],
                            "typeTag": 4
                        }
                    },
                    {
                        "name": "_holderTokens",
                        "type": "mapping(address => struct EnumerableSet.UintSet)",
                        "value": {
                            "pairs": [
                                {
                                    "key": "0x1038dbb87621ec69ff3d8b879f97bc765ec51691",
                                    "value": {
                                        "fields": [
                                            {
                                                "name": "_inner",
                                                "type": "struct EnumerableSet.Set",
                                                "value": {
                                                    "fields": [
                                                        {
                                                            "name": "_values",
                                                            "type": "bytes32[]",
                                                            "value": {
                                                                "elemType": "bytes32",
                                                                "elems": [
                                                                    {
                                                                        "index": 1,
                                                                        "value": {
                                                                            "current": "0x0000000000000000000000000000000000000000000000000000000000080e19",
                                                                            "prev": "0x0000000000000000000000000000000000000000000000000000000000000000",
                                                                            "typeTag": 1
                                                                        }
                                                                    }
                                                                ],
                                                                "typeTag": 2
                                                            }
                                                        },
                                                        {
                                                            "name": "_indexes",
                                                            "type": "mapping(bytes32 => uint256)",
                                                            "value": {
                                                                "pairs": [
                                                                    {
                                                                        "key": "0x0000000000000000000000000000000000000000000000000000000000080e19",
                                                                        "value": {
                                                                            "current": "2",
                                                                            "prev": "0",
                                                                            "typeTag": 1
                                                                        }
                                                                    }
                                                                ],
                                                                "typeTag": 4
                                                            }
                                                        }
                                                    ],
                                                    "typeTag": 3
                                                }
                                            }
                                        ],
                                        "typeTag": 3
                                    }
                                }
                            ],
                            "typeTag": 4
                        }
                    }
                ]
            },
            {
                "address": "0xd2c5b9eb85271a55ec4f2d1c667f8f5038b73c4c",
                "erc": "ERC-20",
                "slots": [
                    {
                        "current": "0x000000000000000000000000000000000000000002f9f6c74645a6076bc987bb",
                        "key": "0x75343281caafdd89167a7398bd7ce69854274d1e098812c9bf3b6b840fe856c1",
                        "prev": "0x00000000000000000000000000000000000000000201cf4eafed7f8eab64985c"
                    },
                    {
                        "current": "0x0000000000000000000000000000000000000000000000000000000000829ce6",
                        "key": "0xda18842222659b4bb82b6aeccd2a40df0797e3a44d41c6c513708eace86c0f9c",
                        "prev": "0x000000000000000000000000000000000000000000f8277896582678c0e78c45"
                    }
                ],
                "storageVariables": [
                    {
                        "name": "_balances",
                        "type": "mapping(address => uint256)",
                        "value": {
                            "pairs": [
                                {
                                    "key": "0x1038dbb87621ec69ff3d8b879f97bc765ec51691",
                                    "value": {
                                        "current": "8559846",
                                        "prev": "300000000000000000350719045",
                                        "typeTag": 1
                                    }
                                },
                                {
                                    "key": "0xa82e740d0644b8e34f3bf9d6230d4954983db6c3",
                                    "value": {
                                        "current": "921157926847225309726083003",
                                        "prev": "621157926847225309383923804",
                                        "typeTag": 1
                                    }
                                }
                            ],
                            "typeTag": 4
                        }
                    }
                ]
            }
        ]
    }
}