{
    "balance_change": {
        "balanceChanges": [
            {
                "account": "0x0000000000000000000000000000000000000000",
                "assets": [
                    {
                        "address": "0x5cc5b05a8a13e3fbdb0bb9fccd98d38e50f90c38",
                        "amount": "1",
                        "iconUrl": "https://assets.blocksec.com/nft/icon/nft_f6d81e10-1646-44cb-ba3e-7c360235388e.png",
                        "isERC1155": false,
                        "isERC721": true,
                        "sign": false,
                        "tokenID": "60873",
                        "value": ""
                    }
                ]
            },
            {
                "account": "0xcd1d9734ec7cd85b78d4bc320c5ee233aba1a63e",
                "assets": [
                    {
                        "address": "0x5cc5b05a8a13e3fbdb0bb9fccd98d38e50f90c38",
                        "amount": "1",
                        "iconUrl": "https://assets.blocksec.com/nft/icon/nft_f6d81e10-1646-44cb-ba3e-7c360235388e.png",
                        "isERC1155": false,
                        "isERC721": true,
                        "sign": true,
                        "tokenID": "60873",
                        "value": ""
                    }
                ]
            }
        ]
    },
    "profile": {
        "basic_info": {
            "baseFee": "18.922898595",
            "blockNumber": 17444366,
            "callData": "0x6e1e3bbf000000000000000000000000cd1d9734ec7cd85b78d4bc320c5ee233aba1a63e00000000000000000000000000000000000000000000000000000000000000010000000000000000000000000000000000000000000000000000000000000051000000000000000000000000000000000000000000000000000000000000009500000000000000000000000000000000000000000000000000000000000000a00000000000000000000000000000000000000000000000000000000000000000",
            "debugEnable": true,
            "errorInfo": "",
            "eventCount": 1,
            "feeRecipient": "0xdafea492d9c6733ae3d56b7ed1adb60692c98bc5",
            "formatValue": "0",
            "gasLimit": 138318,
            "gasPrice": "21.422898595",
            "gasUsed": 91268,
            "intTxnCount": 1,
            "internalRevert": false,
            "internalRevertMessage": "",
            "isContractCreation": false,
            "isFlashloan": false,
            "maxFee": "37.520832694",
            "nonce": 9176,
            "overwritedBlockNumber": -1,
            "priorityFee": "2.5",
            "receiver": "0x5cc5b05a8a13e3fbdb0bb9fccd98d38e50f90c38",
            "revertMessage": "",
            "sender": "0x7a9fe22691c811ea339d9b73150e6911a5343dca",
            "simulationEnable": true,
            "sourceTxnHash": "0x1403791fae2dfe72d3181d50fa3b5ed8a9d9ba96e88449b877cddab1c0aed1f1",
            "status": true,
            "timestamp": "2023-06-09T18:12:23Z",
            "transactionFee": "0.00195522510896846",
            "txnHash": "0x1403791fae2dfe72d3181d50fa3b5ed8a9d9ba96e88449b877cddab1c0aed1f1",
            "txnIndex": 24,
            "type": 2,
            "value": "0"
        },
        "fund_flow": [
            {
                "amount": "1",
                "from": "0x0000000000000000000000000000000000000000",
                "id": 1,
                "isERC1155": false,
                "isERC721": true,
                "isReverted": false,
                "order": 1,
                "to": "0xcd1d9734ec7cd85b78d4bc320c5ee233aba1a63e",
                "token": "0x5cc5b05a8a13e3fbdb0bb9fccd98d38e50f90c38",
                "tokenID": "60873"
            }
        ],
        "token_infos": [
            {
                "address": "0xc02aaa39b223fe8d0a0e5c4f27ead9083c756cc2",
                "decimals": 18
            },
            {
                "address": "0xeeeeeeeeeeeeeeeeeeeeeeeeeeeeeeeeeeeeeeee",
                "decimals": 18
            }
        ]
    },
    "address_label": {
        "labels": [
            {
                "address": "0x0000000000000000000000000000000000000003",
                "label": "Precompiled"
            },
            {
                "address": "0x0000000000000000000000000000000000000004",
                "label": "Precompiled"
            },
            {
                "address": "0xeeeeeeeeeeeeeeeeeeeeeeeeeeeeeeeeeeeeeeee",
                "label": "Ether"
            },
            {
                "address": "0x5cc5b05a8a13e3fbdb0bb9fccd98d38e50f90c38",
                "label": "The Sandbox: LAND Token"
            },
            {
                "address": "0xf859e17efbcdf60ee9b951198aecd03b1cdd231c",
                "label": "Sandbox&#39;s LANDs (LAND)"
            },
            {
                "address": "0x0000000000000000000000000000000000000001",
                "label": "Precompiled"
            },
            {
                "address": "0x0000000000000000000000000000000000000002",
                "label": "Precompiled"
            }
        ]
    },
    "trace": {
        "accountLabels": null,
        "dataMap": {
            "-1": {
                "invocation": {
                    "address": "0x7a9fe22691c811ea339d9b73150e6911a5343dca",
                    "callData": "",
                    "decodedMethod": null,
                    "errorInfo": "",
                    "fromAddress": "",
                    "gasUsed": 0,
                    "id": -1,
                    "methodDecoded": false,
                    "operation": "",
                    "output": "",
                    "revert": false,
                    "revertMessage": "",
                    "selector": "",
                    "status": false,
                    "value": ""
                },
                "nodeType": 0
            },
            "0": {
                "invocation": {
                    "address": "0x5cc5b05a8a13e3fbdb0bb9fccd98d38e50f90c38",
                    "callData": "0x000000000000000000000000cd1d9734ec7cd85b78d4bc320c5ee233aba1a63e00000000000000000000000000000000000000000000000000000000000000010000000000000000000000000000000000000000000000000000000000000051000000000000000000000000000000000000000000000000000000000000009500000000000000000000000000000000000000000000000000000000000000a00000000000000000000000000000000000000000000000000000000000000000",
                    "decodedMethod": {
                        "callParams": [
                            {
                                "name": "to",
                                "type": "address",
                                "value": "0xcd1d9734ec7cd85b78d4bc320c5ee233aba1a63e"
                            },
                            {
                                "name": "size",
                                "type": "uint256",
                                "value": "1"
                            },
                            {
                                "name": "x",
                                "type": "uint256",
                                "value": "81"
                            },
                            {
                                "name": "y",
                                "type": "uint256",
                                "value": "149"
                            },
                            {
                                "name": "data",
                                "type": "bytes",
                                "value": "0x"
                            }
                        ],
                        "constructorArguments": "",
                        "name": "mintQuad",
                        "returnParams": [],
                        "signature": "mintQuad(address,uint256,uint256,uint256,bytes)"
                    },
                    "errorInfo": "",
                    "fromAddress": "0x7a9fe22691c811ea339d9b73150e6911a5343dca",
                    "gasUsed": 91268,
                    "id": 0,
                    "methodDecoded": true,
                    "operation": "CALL",
                    "output": "",
                    "revert": false,
                    "revertMessage": "",
                    "selector": "0x6e1e3bbf",
                    "status": true,
                    "value": "0"
                },
                "nodeType": 0
            },
            "1": {
                "invocation": {
                    "address": "0xf859e17efbcdf60ee9b951198aecd03b1cdd231c",
                    "callData": "0x000000000000000000000000cd1d9734ec7cd85b78d4bc320c5ee233aba1a63e00000000000000000000000000000000000000000000000000000000000000010000000000000000000000000000000000000000000000000000000000000051000000000000000000000000000000000000000000000000000000000000009500000000000000000000000000000000000000000000000000000000000000a00000000000000000000000000000000000000000000000000000000000000000",
                    "decodedMethod": {
                        "callParams": [
                            {
                                "name": "to",
                                "type": "address",
                                "value": "0xcd1d9734ec7cd85b78d4bc320c5ee233aba1a63e"
                            },
                            {
                                "name": "size",
                                "type": "uint256",
                                "value": "1"
                            },
                            {
                                "name": "x",
                                "type": "uint256",
                                "value": "81"
                            },
                            {
                                "name": "y",
                                "type": "uint256",
                                "value": "149"
                            },
                            {
                                "name": "data",
                                "type": "bytes",
                                "value": "0x"
                            }
                        ],
                        "constructorArguments": "",
                        "name": "mintQuad",
                        "returnParams": [],
                        "signature": "mintQuad(address,uint256,uint256,uint256,bytes)"
                    },
                    "errorInfo": "",
                    "fromAddress": "0x5cc5b05a8a13e3fbdb0bb9fccd98d38e50f90c38",
                    "gasUsed": 61927,
                    "id": 1,
                    "methodDecoded": true,
                    "operation": "DELEGATECALL",
                    "output": "",
                    "revert": false,
                    "revertMessage": "",
                    "selector": "0x6e1e3bbf",
                    "status": true,
                    "value": "0"
                },
                "nodeType": 0
            },
            "2": {
                "event": {
                    "contract": "0x5cc5b05a8a13e3fbdb0bb9fccd98d38e50f90c38",
                    "decodedLog": {
                        "name": "Transfer",
                        "params": [
                            {
                                "name": "from",
                                "type": "address",
                                "value": "0x0000000000000000000000000000000000000000"
                            },
                            {
                                "name": "to",
                                "type": "address",
                                "value": "0xcd1d9734ec7cd85b78d4bc320c5ee233aba1a63e"
                            },
                            {
                                "decimalAvailable": true,
                                "name": "tokenId",
                                "type": "uint256",
                                "value": "60,873"
                            }
                        ],
                        "signature": "Transfer(address,address,uint256)"
                    },
                    "id": 2,
                    "logData": "0x",
                    "logDecoded": true,
                    "operation": "EVENT",
                    "revert": false,
                    "status": true,
                    "topics": [
                        "0xddf252ad1be2c89b69c2b068fc378daa952ba7f163c4a11628f55a4df523b3ef",
                        "0x0000000000000000000000000000000000000000000000000000000000000000",
                        "0x000000000000000000000000cd1d9734ec7cd85b78d4bc320c5ee233aba1a63e",
                        "0x000000000000000000000000000000000000000000000000000000000000edc9"
                    ]
                },
                "nodeType": 1
            }
        },
        "gasFlame": [
            {
                "children": [
                    {
                        "children": [
                            {
                                "children": [],
                                "depth": 0,
                                "name": "Initial Gas",
                                "value": 22120
                            },
                            {
                                "children": [
                                    {
                                        "children": [],
                                        "depth": 1,
                                        "name": "mintQuad",
                                        "value": 61927
                                    }
                                ],
                                "depth": 0,
                                "name": "Executed Gas",
                                "value": 69148
                            }
                        ],
                        "depth": -1,
                        "name": "Actual Gas Used",
                        "value": 91268
                    },
                    {
                        "children": [],
                        "depth": -1,
                        "name": "Refunded Gas",
                        "value": 0
                    }
                ],
                "depth": -2,
                "name": "Total Gas",
                "value": 91268
            }
        ],
        "isConfirmed": true,
        "mainTrace": [
            {
                "children": [
                    {
                        "children": [
                            {
                                "children": [
                                    {
                                        "children": [],
                                        "depth": 2,
                                        "id": 2,
                                        "order": 2
                                    }
                                ],
                                "depth": 1,
                                "id": 1,
                                "order": 1
                            }
                        ],
                        "depth": 0,
                        "id": 0,
                        "order": 0
                    }
                ],
                "depth": -1,
                "id": -1,
                "order": -1
            }
        ],
        "mainTraceNodeCount": 3,
        "parentIdMap": {
            "0": -1,
            "1": 0,
            "2": 1
        },
        "tidyTrace": [
            {
                "children": [
                    {
                        "children": [
                            {
                                "children": [
                                    {
                                        "children": [],
                                        "depth": 2,
                                        "id": 2,
                                        "order": 2
                                    }
                                ],
                                "depth": 1,
                                "id": 1,
                                "order": 1
                            }
                        ],
                        "depth": 0,
                        "id": 0,
                        "order": 0
                    }
                ],
                "depth": -1,
                "id": -1,
                "order": -1
            }
        ],
        "tidyTraceNodeCount": 3
    },
    "state_change": {
        "stateChanges": [
            {
                "address": "0x5cc5b05a8a13e3fbdb0bb9fccd98d38e50f90c38",
                "erc": "ERC-721",
                "slots": [
                    {
                        "current": "0x000000000000000000000000cd1d9734ec7cd85b78d4bc320c5ee233aba1a63e",
                        "key": "0x6b6bdf0ef99b3f404c0d178129a6a665a0ab6ad3c9f7360131641cd966557ac6",
                        "prev": "0x0000000000000000000000000000000000000000000000000000000000000000"
                    },
                    {
                        "current": "0x0000000000000000000000000000000000000000000000000000000000000001",
                        "key": "0x02c8b34561044f82ca92190e66f71c2d70b06e21ff4ad52bc8b7819e82d9f278",
                        "prev": "0x0000000000000000000000000000000000000000000000000000000000000000"
                    }
                ],
                "storageVariables": [
                    {
                        "name": "_owners",
                        "type": "mapping(uint256 => uint256)",
                        "value": {
                            "pairs": [
                                {
                                    "key": "60873",
                                    "value": {
                                        "current": "1171003001593849306288273795453346915889822410302",
                                        "prev": "0",
                                        "typeTag": 1
                                    }
                                }
                            ],
                            "typeTag": 4
                        }
                    },
                    {
                        "name": "_numNFTPerAddress",
                        "type": "mapping(address => uint256)",
                        "value": {
                            "pairs": [
                                {
                                    "key": "0xcd1d9734ec7cd85b78d4bc320c5ee233aba1a63e",
                                    "value": {
                                        "current": "1",
                                        "prev": "0",
                                        "typeTag": 1
                                    }
                                }
                            ],
                            "typeTag": 4
                        }
                    }
                ]
            }
        ]
    }
}