{
    "balance_change": {
        "balanceChanges": [
            {
                "account": "0x0000000089341e263b85d84a0eea39f47c37a9d2",
                "assets": [
                    {
                        "address": "0xc02aaa39b223fe8d0a0e5c4f27ead9083c756cc2",
                        "amount": "0.02718195901759704",
                        "iconUrl": "https://assets.blocksec.com/icon/f1cb2d02c471d545bbc7722daf3277fd852d98e63d118771af7047bd8256c516.png",
                        "isERC1155": false,
                        "isERC721": false,
                        "sign": true,
                        "value": "85.00749954119699753"
                    }
                ]
            },
            {
                "account": "0x24dbedb4699eb996a8ceb2baef4a4ae057cf0294",
                "assets": [
                    {
                        "address": "0x6b4c7a5e3f0b99fcd83e9c089bddd6c7fce5c611",
                        "amount": "47.573119286748389228",
                        "iconUrl": "",
                        "isERC1155": false,
                        "isERC721": false,
                        "sign": true,
                        "value": "1228.520884"
                    },
                    {
                        "address": "0xc02aaa39b223fe8d0a0e5c4f27ead9083c756cc2",
                        "amount": "0.42718195901759704",
                        "iconUrl": "https://assets.blocksec.com/icon/f1cb2d02c471d545bbc7722daf3277fd852d98e63d118771af7047bd8256c516.png",
                        "isERC1155": false,
                        "isERC721": false,
                        "sign": false,
                        "value": "1335.9474994786499612"
                    }
                ]
            },
            {
                "account": "0xaa934346e4f74bc23e62153ee964df8b826694ef",
                "assets": [
                    {
                        "address": "0xc02aaa39b223fe8d0a0e5c4f27ead9083c756cc2",
                        "amount": "0.4",
                        "iconUrl": "https://assets.blocksec.com/icon/f1cb2d02c471d545bbc7722daf3277fd852d98e63d118771af7047bd8256c516.png",
                        "isERC1155": false,
                        "isERC721": false,
                        "sign": true,
                        "value": "1250.9399999999999636"
                    },
                    {
                        "address": "0x6b4c7a5e3f0b99fcd83e9c089bddd6c7fce5c611",
                        "amount": "47.573119286748389228",
                        "iconUrl": "",
                        "isERC1155": false,
                        "isERC721": false,
                        "sign": false,
                        "value": "1228.520884"
                    }
                ]
            }
        ]
    },
    "profile": {
        "basic_info": {
            "baseFee": "29.977037966",
            "blockNumber": 12994508,
            "callData": "0x627dd56a000000000000000000000000000000000000000000000000000000000000002000000000000000000000000000000000000000000000000000000000000000eb000001000000000000058d15e1762800000200007e01aa934346e4f74bc23e62153ee964df8b826694ef010000000000000000000000000000000000000000000000006a519743222d0c00000000000000000000000000000000000000000000000031f0d7c0cf31b60000c02aaa39b223fe8d0a0e5c4f27ead9083c756cc20000000000000000000000000000000000000000060055016b4c7a5e3f0b99fcd83e9c089bddd6c7fce5c611c02aaa39b223fe8d0a0e5c4f27ead9083c756cc224dbedb4699eb996a8ceb2baef4a4ae057cf0294000000000000000018580f1456a55c000000000000002710000000000000000000000000000000000000000000",
            "debugEnable": true,
            "errorInfo": "",
            "eventCount": 9,
            "feeRecipient": "0x5a0b54d5dc17e0aadc383d2db43b0a0d3e029c4c",
            "formatValue": "0",
            "gasLimit": 346738,
            "gasPrice": "36",
            "gasUsed": 187717,
            "intTxnCount": 19,
            "internalRevert": false,
            "internalRevertMessage": "",
            "isContractCreation": false,
            "isFlashloan": false,
            "maxFee": "36",
            "nonce": 29042,
            "overwritedBlockNumber": -1,
            "priorityFee": "36",
            "receiver": "0x0000000089341e263b85d84a0eea39f47c37a9d2",
            "revertMessage": "",
            "sender": "0x6b113626451de75986d43f5fdf67fe7fdd777a92",
            "simulationEnable": true,
            "sourceTxnHash": "0x1478957dcda62302be3efa495ec88417829feddc152481f52c79e7cde63b4d11",
            "status": true,
            "timestamp": "2021-08-10T01:39:43Z",
            "transactionFee": "0.006757812",
            "txnHash": "0x1478957dcda62302be3efa495ec88417829feddc152481f52c79e7cde63b4d11",
            "txnIndex": 42,
            "type": 2,
            "value": "0"
        },
        "fund_flow": [
            {
                "amount": "0.4",
                "from": "0x0000000089341e263b85d84a0eea39f47c37a9d2",
                "id": 1,
                "isERC1155": false,
                "isERC721": false,
                "isReverted": false,
                "order": 1,
                "to": "0xaa934346e4f74bc23e62153ee964df8b826694ef",
                "token": "0xc02aaa39b223fe8d0a0e5c4f27ead9083c756cc2"
            },
            {
                "amount": "47.573119286748389228",
                "from": "0xaa934346e4f74bc23e62153ee964df8b826694ef",
                "id": 2,
                "isERC1155": false,
                "isERC721": false,
                "isReverted": false,
                "order": 2,
                "to": "0x0000000089341e263b85d84a0eea39f47c37a9d2",
                "token": "0x6b4c7a5e3f0b99fcd83e9c089bddd6c7fce5c611"
            },
            {
                "amount": "0.42718195901759704",
                "from": "0x24dbedb4699eb996a8ceb2baef4a4ae057cf0294",
                "id": 3,
                "isERC1155": false,
                "isERC721": false,
                "isReverted": false,
                "order": 3,
                "to": "0x0000000089341e263b85d84a0eea39f47c37a9d2",
                "token": "0xc02aaa39b223fe8d0a0e5c4f27ead9083c756cc2"
            },
            {
                "amount": "47.573119286748389228",
                "from": "0x0000000089341e263b85d84a0eea39f47c37a9d2",
                "id": 4,
                "isERC1155": false,
                "isERC721": false,
                "isReverted": false,
                "order": 4,
                "to": "0x24dbedb4699eb996a8ceb2baef4a4ae057cf0294",
                "token": "0x6b4c7a5e3f0b99fcd83e9c089bddd6c7fce5c611"
            }
        ],
        "token_infos": [
            {
                "address": "0x6b4c7a5e3f0b99fcd83e9c089bddd6c7fce5c611",
                "decimals": 18
            },
            {
                "address": "0xc02aaa39b223fe8d0a0e5c4f27ead9083c756cc2",
                "decimals": 18
            },
            {
                "address": "0xeeeeeeeeeeeeeeeeeeeeeeeeeeeeeeeeeeeeeeee",
                "decimals": 18
            }
        ]
    },
    "address_label": {
        "labels": [
            {
                "address": "0xeeeeeeeeeeeeeeeeeeeeeeeeeeeeeeeeeeeeeeee",
                "label": "Ether"
            },
            {
                "address": "0x6b4c7a5e3f0b99fcd83e9c089bddd6c7fce5c611",
                "label": "Million: MM Token"
            },
            {
                "address": "0xc02aaa39b223fe8d0a0e5c4f27ead9083c756cc2",
                "label": "Wrapped Ether (WETH)"
            },
            {
                "address": "0x0000000089341e263b85d84a0eea39f47c37a9d2",
                "label": "MEV Bot: 0x000...9d2"
            },
            {
                "address": "0x0000000000000000000000000000000000000002",
                "label": "Precompiled"
            },
            {
                "address": "0x0000000000000000000000000000000000000003",
                "label": "Precompiled"
            },
            {
                "address": "0xaa934346e4f74bc23e62153ee964df8b826694ef",
                "label": "Uniswap V2: MM 4"
            },
            {
                "address": "0x24dbedb4699eb996a8ceb2baef4a4ae057cf0294",
                "label": "Uniswap V3: MM 3"
            },
            {
                "address": "0xe592427a0aece92de3edee1f18e0157c05861564",
                "label": "Uniswap V3: Router"
            },
            {
                "address": "0x0000000000000000000000000000000000000001",
                "label": "Precompiled"
            },
            {
                "address": "0x0000000000000000000000000000000000000004",
                "label": "Precompiled"
            }
        ]
    },
    "trace": {
        "accountLabels": null,
        "dataMap": {
            "-1": {
                "invocation": {
                    "address": "0x6b113626451de75986d43f5fdf67fe7fdd777a92",
                    "callData": "",
                    "decodedMethod": null,
                    "errorInfo": "",
                    "fromAddress": "",
                    "gasUsed": 0,
                    "id": -1,
                    "methodDecoded": false,
                    "operation": "",
                    "output": "",
                    "revert": false,
                    "revertMessage": "",
                    "selector": "",
                    "status": false,
                    "value": ""
                },
                "nodeType": 0
            },
            "0": {
                "invocation": {
                    "address": "0x0000000089341e263b85d84a0eea39f47c37a9d2",
                    "callData": "0x000000000000000000000000000000000000000000000000000000000000002000000000000000000000000000000000000000000000000000000000000000eb000001000000000000058d15e1762800000200007e01aa934346e4f74bc23e62153ee964df8b826694ef010000000000000000000000000000000000000000000000006a519743222d0c00000000000000000000000000000000000000000000000031f0d7c0cf31b60000c02aaa39b223fe8d0a0e5c4f27ead9083c756cc20000000000000000000000000000000000000000060055016b4c7a5e3f0b99fcd83e9c089bddd6c7fce5c611c02aaa39b223fe8d0a0e5c4f27ead9083c756cc224dbedb4699eb996a8ceb2baef4a4ae057cf0294000000000000000018580f1456a55c000000000000002710000000000000000000000000000000000000000000",
                    "decodedMethod": {
                        "callParams": [
                            {
                                "name": "_data",
                                "type": "bytes",
                                "value": "0x000001000000000000058d15e1762800000200007e01aa934346e4f74bc23e62153ee964df8b826694ef010000000000000000000000000000000000000000000000006a519743222d0c00000000000000000000000000000000000000000000000031f0d7c0cf31b60000c02aaa39b223fe8d0a0e5c4f27ead9083c756cc20000000000000000000000000000000000000000060055016b4c7a5e3f0b99fcd83e9c089bddd6c7fce5c611c02aaa39b223fe8d0a0e5c4f27ead9083c756cc224dbedb4699eb996a8ceb2baef4a4ae057cf0294000000000000000018580f1456a55c000000000000002710"
                            }
                        ],
                        "constructorArguments": "",
                        "name": "swap",
                        "returnParams": [],
                        "signature": "swap(bytes)"
                    },
                    "errorInfo": "",
                    "fromAddress": "0x6b113626451de75986d43f5fdf67fe7fdd777a92",
                    "gasUsed": 187717,
                    "id": 0,
                    "methodDecoded": true,
                    "operation": "CALL",
                    "output": "",
                    "revert": false,
                    "revertMessage": "",
                    "selector": "0x627dd56a",
                    "status": true,
                    "value": "0"
                },
                "nodeType": 0
            },
            "1": {
                "invocation": {
                    "address": "0xaa934346e4f74bc23e62153ee964df8b826694ef",
                    "callData": "0x",
                    "decodedMethod": {
                        "callParams": [],
                        "constructorArguments": "",
                        "name": "getReserves",
                        "returnParams": [
                            {
                                "name": "_reserve0",
                                "type": "uint112",
                                "value": "941,657,102,261,633,480,615"
                            },
                            {
                                "name": "_reserve1",
                                "type": "uint112",
                                "value": "7,495,003,433,792,180,255"
                            },
                            {
                                "name": "_blockTimestampLast",
                                "type": "uint32",
                                "value": "1,628,559,561"
                            }
                        ],
                        "signature": "getReserves()"
                    },
                    "errorInfo": "",
                    "fromAddress": "0x0000000089341e263b85d84a0eea39f47c37a9d2",
                    "gasUsed": 2504,
                    "id": 1,
                    "methodDecoded": true,
                    "operation": "STATICCALL",
                    "output": "0x0000000000000000000000000000000000000000000000330c1e1164d058f7a7000000000000000000000000000000000000000000000000680399e9ad84101f000000000000000000000000000000000000000000000000000000006111d8c9",
                    "revert": false,
                    "revertMessage": "",
                    "selector": "0x0902f1ac",
                    "status": true,
                    "value": "0"
                },
                "nodeType": 0
            },
            "10": {
                "invocation": {
                    "address": "0x6b4c7a5e3f0b99fcd83e9c089bddd6c7fce5c611",
                    "callData": "0x000000000000000000000000aa934346e4f74bc23e62153ee964df8b826694ef",
                    "decodedMethod": {
                        "callParams": [
                            {
                                "name": "account",
                                "type": "address",
                                "value": "0xaa934346e4f74bc23e62153ee964df8b826694ef"
                            }
                        ],
                        "constructorArguments": "",
                        "name": "balanceOf",
                        "returnParams": [
                            {
                                "decimalAvailable": true,
                                "name": "",
                                "type": "uint256",
                                "value": "894,083,982,974,885,091,387"
                            }
                        ],
                        "signature": "balanceOf(address)"
                    },
                    "errorInfo": "",
                    "fromAddress": "0xaa934346e4f74bc23e62153ee964df8b826694ef",
                    "gasUsed": 886,
                    "id": 10,
                    "methodDecoded": true,
                    "operation": "STATICCALL",
                    "output": "0x00000000000000000000000000000000000000000000003077e86574a86cd83b",
                    "revert": false,
                    "revertMessage": "",
                    "selector": "0x70a08231",
                    "status": true,
                    "value": "0"
                },
                "nodeType": 0
            },
            "11": {
                "invocation": {
                    "address": "0xc02aaa39b223fe8d0a0e5c4f27ead9083c756cc2",
                    "callData": "0x000000000000000000000000aa934346e4f74bc23e62153ee964df8b826694ef",
                    "decodedMethod": {
                        "callParams": [
                            {
                                "name": "",
                                "type": "address",
                                "value": "0xaa934346e4f74bc23e62153ee964df8b826694ef"
                            }
                        ],
                        "constructorArguments": "",
                        "name": "balanceOf",
                        "returnParams": [
                            {
                                "decimalAvailable": true,
                                "name": "",
                                "type": "uint256",
                                "value": "7,895,003,433,792,180,255"
                            }
                        ],
                        "signature": "balanceOf(address)"
                    },
                    "errorInfo": "",
                    "fromAddress": "0xaa934346e4f74bc23e62153ee964df8b826694ef",
                    "gasUsed": 534,
                    "id": 11,
                    "methodDecoded": true,
                    "operation": "STATICCALL",
                    "output": "0x0000000000000000000000000000000000000000000000006d90afcb23ac101f",
                    "revert": false,
                    "revertMessage": "",
                    "selector": "0x70a08231",
                    "status": true,
                    "value": "0"
                },
                "nodeType": 0
            },
            "12": {
                "event": {
                    "contract": "0xaa934346e4f74bc23e62153ee964df8b826694ef",
                    "decodedLog": {
                        "name": "Sync",
                        "params": [
                            {
                                "name": "reserve0",
                                "type": "uint112",
                                "value": "894,083,982,974,885,091,387"
                            },
                            {
                                "name": "reserve1",
                                "type": "uint112",
                                "value": "7,895,003,433,792,180,255"
                            }
                        ],
                        "signature": "Sync(uint112,uint112)"
                    },
                    "id": 12,
                    "logData": "0x00000000000000000000000000000000000000000000003077e86574a86cd83b0000000000000000000000000000000000000000000000006d90afcb23ac101f",
                    "logDecoded": true,
                    "operation": "EVENT",
                    "revert": false,
                    "status": true,
                    "topics": [
                        "0x1c411e9a96e071241c2f21f7726b17ae89e3cab4c78be50e062b03a9fffbbad1"
                    ]
                },
                "nodeType": 1
            },
            "13": {
                "event": {
                    "contract": "0xaa934346e4f74bc23e62153ee964df8b826694ef",
                    "decodedLog": {
                        "name": "Swap",
                        "params": [
                            {
                                "name": "sender",
                                "type": "address",
                                "value": "0x0000000089341e263b85d84a0eea39f47c37a9d2"
                            },
                            {
                                "name": "to",
                                "type": "address",
                                "value": "0x0000000089341e263b85d84a0eea39f47c37a9d2"
                            },
                            {
                                "name": "amount0In",
                                "type": "uint256",
                                "value": "0"
                            },
                            {
                                "name": "amount1In",
                                "type": "uint256",
                                "value": "400,000,000,000,000,000"
                            },
                            {
                                "name": "amount0Out",
                                "type": "uint256",
                                "value": "47,573,119,286,748,389,228"
                            },
                            {
                                "name": "amount1Out",
                                "type": "uint256",
                                "value": "0"
                            }
                        ],
                        "signature": "Swap(address,uint256,uint256,uint256,uint256,address)"
                    },
                    "id": 13,
                    "logData": "0x0000000000000000000000000000000000000000000000000000000000000000000000000000000000000000000000000000000000000000058d15e1762800000000000000000000000000000000000000000000000000029435abf027ec1f6c0000000000000000000000000000000000000000000000000000000000000000",
                    "logDecoded": true,
                    "operation": "EVENT",
                    "revert": false,
                    "status": true,
                    "topics": [
                        "0xd78ad95fa46c994b6551d0da85fc275fe613ce37657fb8d5e3d130840159d822",
                        "0x0000000000000000000000000000000089341e263b85d84a0eea39f47c37a9d2",
                        "0x0000000000000000000000000000000089341e263b85d84a0eea39f47c37a9d2"
                    ]
                },
                "nodeType": 1
            },
            "14": {
                "invocation": {
                    "address": "0x54d8a6a3ab830a75b8682f28315efaa4f42044f6",
                    "callData": "0x00000000000000000000000000000000000000000000000000000000000000400000000000000000000000000000000000000000000000029435abf027ec1f6c0000000000000000000000000000000000000000000000000000000000000055016b4c7a5e3f0b99fcd83e9c089bddd6c7fce5c611c02aaa39b223fe8d0a0e5c4f27ead9083c756cc224dbedb4699eb996a8ceb2baef4a4ae057cf0294000000000000000018580f1456a55c0000000000000027100000000000000000000000",
                    "decodedMethod": {
                        "callParams": [
                            {
                                "name": "callArgs",
                                "type": "bytes",
                                "value": "0x016b4c7a5e3f0b99fcd83e9c089bddd6c7fce5c611c02aaa39b223fe8d0a0e5c4f27ead9083c756cc224dbedb4699eb996a8ceb2baef4a4ae057cf0294000000000000000018580f1456a55c000000000000002710"
                            },
                            {
                                "name": "amountETH",
                                "type": "uint256",
                                "value": "47,573,119,286,748,389,228"
                            }
                        ],
                        "constructorArguments": "",
                        "name": "swap",
                        "returnParams": [],
                        "signature": "swap(bytes,uint256)"
                    },
                    "errorInfo": "",
                    "fromAddress": "0x0000000089341e263b85d84a0eea39f47c37a9d2",
                    "gasUsed": 94796,
                    "id": 14,
                    "methodDecoded": true,
                    "operation": "DELEGATECALL",
                    "output": "0x00000000000000000000000000000000000000000000000005eda7ba79b30870",
                    "revert": false,
                    "revertMessage": "",
                    "selector": "0xaf2b4aba",
                    "status": true,
                    "value": "0"
                },
                "nodeType": 0
            },
            "15": {
                "invocation": {
                    "address": "0x6b4c7a5e3f0b99fcd83e9c089bddd6c7fce5c611",
                    "callData": "0x000000000000000000000000e592427a0aece92de3edee1f18e0157c058615640000000000000000000000000000000000000000000000029435abf027ec1f6c",
                    "decodedMethod": {
                        "callParams": [
                            {
                                "name": "spender",
                                "type": "address",
                                "value": "0xe592427a0aece92de3edee1f18e0157c05861564"
                            },
                            {
                                "decimalAvailable": true,
                                "name": "amount",
                                "type": "uint256",
                                "value": "47,573,119,286,748,389,228"
                            }
                        ],
                        "constructorArguments": "",
                        "name": "approve",
                        "returnParams": [
                            {
                                "name": "",
                                "type": "bool",
                                "value": true
                            }
                        ],
                        "signature": "approve(address,uint256)"
                    },
                    "errorInfo": "",
                    "fromAddress": "0x0000000089341e263b85d84a0eea39f47c37a9d2",
                    "gasUsed": 25249,
                    "id": 15,
                    "methodDecoded": true,
                    "operation": "CALL",
                    "output": "0x0000000000000000000000000000000000000000000000000000000000000001",
                    "revert": false,
                    "revertMessage": "",
                    "selector": "0x095ea7b3",
                    "status": true,
                    "value": "0"
                },
                "nodeType": 0
            },
            "16": {
                "event": {
                    "contract": "0x6b4c7a5e3f0b99fcd83e9c089bddd6c7fce5c611",
                    "decodedLog": {
                        "name": "Approval",
                        "params": [
                            {
                                "name": "owner",
                                "type": "address",
                                "value": "0x0000000089341e263b85d84a0eea39f47c37a9d2"
                            },
                            {
                                "name": "spender",
                                "type": "address",
                                "value": "0xe592427a0aece92de3edee1f18e0157c05861564"
                            },
                            {
                                "decimalAvailable": true,
                                "name": "value",
                                "type": "uint256",
                                "value": "47,573,119,286,748,389,228"
                            }
                        ],
                        "signature": "Approval(address,address,uint256)"
                    },
                    "id": 16,
                    "logData": "0x0000000000000000000000000000000000000000000000029435abf027ec1f6c",
                    "logDecoded": true,
                    "operation": "EVENT",
                    "revert": false,
                    "status": true,
                    "topics": [
                        "0x8c5be1e5ebec7d5bd14f71427d1e84f3dd0314c0f7b2291e5b200ac8c7c3b925",
                        "0x0000000000000000000000000000000089341e263b85d84a0eea39f47c37a9d2",
                        "0x000000000000000000000000e592427a0aece92de3edee1f18e0157c05861564"
                    ]
                },
                "nodeType": 1
            },
            "17": {
                "invocation": {
                    "address": "0xe592427a0aece92de3edee1f18e0157c05861564",
                    "callData": "0x0000000000000000000000006b4c7a5e3f0b99fcd83e9c089bddd6c7fce5c611000000000000000000000000c02aaa39b223fe8d0a0e5c4f27ead9083c756cc200000000000000000000000000000000000000000000000000000000000027100000000000000000000000000000000089341e263b85d84a0eea39f47c37a9d2000000000000000000000000000000000000000000000000013fbe85edc900000000000000000000000000000000000000000000000000029435abf027ec1f6c000000000000000000000000000000000000000000000000000000000000000100000000000000000000000000000000000000000000000000000001000276a4",
                    "decodedMethod": {
                        "callParams": [
                            {
                                "name": "params",
                                "type": "(address,address,uint24,address,uint256,uint256,uint256,uint160)",
                                "value": [
                                    {
                                        "name": "tokenIn",
                                        "type": "address",
                                        "value": "0x6b4c7a5e3f0b99fcd83e9c089bddd6c7fce5c611"
                                    },
                                    {
                                        "name": "tokenOut",
                                        "type": "address",
                                        "value": "0xc02aaa39b223fe8d0a0e5c4f27ead9083c756cc2"
                                    },
                                    {
                                        "name": "fee",
                                        "type": "uint24",
                                        "value": "10,000"
                                    },
                                    {
                                        "name": "recipient",
                                        "type": "address",
                                        "value": "0x0000000089341e263b85d84a0eea39f47c37a9d2"
                                    },
                                    {
                                        "name": "deadline",
                                        "type": "uint256",
                                        "value": "90,000,000,000,000,000"
                                    },
                                    {
                                        "name": "amountIn",
                                        "type": "uint256",
                                        "value": "47,573,119,286,748,389,228"
                                    },
                                    {
                                        "name": "amountOutMinimum",
                                        "type": "uint256",
                                        "value": "1"
                                    },
                                    {
                                        "name": "sqrtPriceLimitX96",
                                        "type": "uint160",
                                        "value": "4,295,128,740"
                                    }
                                ]
                            }
                        ],
                        "constructorArguments": "",
                        "name": "exactInputSingle",
                        "returnParams": [
                            {
                                "name": "amountOut",
                                "type": "uint256",
                                "value": "427,181,959,017,597,040"
                            }
                        ],
                        "signature": "exactInputSingle((address,address,uint24,address,uint256,uint256,uint256,uint160))"
                    },
                    "errorInfo": "",
                    "fromAddress": "0x0000000089341e263b85d84a0eea39f47c37a9d2",
                    "gasUsed": 64269,
                    "id": 17,
                    "methodDecoded": true,
                    "operation": "CALL",
                    "output": "0x00000000000000000000000000000000000000000000000005eda7ba79b30870",
                    "revert": false,
                    "revertMessage": "",
                    "selector": "0x414bf389",
                    "status": true,
                    "value": "0"
                },
                "nodeType": 0
            },
            "18": {
                "invocation": {
                    "address": "0x24dbedb4699eb996a8ceb2baef4a4ae057cf0294",
                    "callData": "0x0000000000000000000000000000000089341e263b85d84a0eea39f47c37a9d200000000000000000000000000000000000000000000000000000000000000010000000000000000000000000000000000000000000000029435abf027ec1f6c00000000000000000000000000000000000000000000000000000001000276a400000000000000000000000000000000000000000000000000000000000000a000000000000000000000000000000000000000000000000000000000000000c0000000000000000000000000000000000000000000000000000000000000002000000000000000000000000000000000000000000000000000000000000000400000000000000000000000000000000089341e263b85d84a0eea39f47c37a9d2000000000000000000000000000000000000000000000000000000000000002b6b4c7a5e3f0b99fcd83e9c089bddd6c7fce5c611002710c02aaa39b223fe8d0a0e5c4f27ead9083c756cc2000000000000000000000000000000000000000000",
                    "decodedMethod": {
                        "callParams": [
                            {
                                "name": "recipient",
                                "type": "address",
                                "value": "0x0000000089341e263b85d84a0eea39f47c37a9d2"
                            },
                            {
                                "name": "zeroForOne",
                                "type": "bool",
                                "value": true
                            },
                            {
                                "name": "amountSpecified",
                                "type": "int256",
                                "value": "47,573,119,286,748,389,228"
                            },
                            {
                                "name": "sqrtPriceLimitX96",
                                "type": "uint160",
                                "value": "4,295,128,740"
                            },
                            {
                                "name": "data",
                                "type": "bytes",
                                "value": "0x000000000000000000000000000000000000000000000000000000000000002000000000000000000000000000000000000000000000000000000000000000400000000000000000000000000000000089341e263b85d84a0eea39f47c37a9d2000000000000000000000000000000000000000000000000000000000000002b6b4c7a5e3f0b99fcd83e9c089bddd6c7fce5c611002710c02aaa39b223fe8d0a0e5c4f27ead9083c756cc2000000000000000000000000000000000000000000"
                            }
                        ],
                        "constructorArguments": "",
                        "name": "swap",
                        "returnParams": [
                            {
                                "name": "amount0",
                                "type": "int256",
                                "value": "47,573,119,286,748,389,228"
                            },
                            {
                                "name": "amount1",
                                "type": "int256",
                                "value": "-427,181,959,017,597,040"
                            }
                        ],
                        "signature": "swap(address,bool,int256,uint160,bytes)"
                    },
                    "errorInfo": "",
                    "fromAddress": "0xe592427a0aece92de3edee1f18e0157c05861564",
                    "gasUsed": 59344,
                    "id": 18,
                    "methodDecoded": true,
                    "operation": "CALL",
                    "output": "0x0000000000000000000000000000000000000000000000029435abf027ec1f6cfffffffffffffffffffffffffffffffffffffffffffffffffa125845864cf790",
                    "revert": false,
                    "revertMessage": "",
                    "selector": "0x128acb08",
                    "status": true,
                    "value": "0"
                },
                "nodeType": 0
            },
            "19": {
                "invocation": {
                    "address": "0xc02aaa39b223fe8d0a0e5c4f27ead9083c756cc2",
                    "callData": "0x0000000000000000000000000000000089341e263b85d84a0eea39f47c37a9d200000000000000000000000000000000000000000000000005eda7ba79b30870",
                    "decodedMethod": {
                        "callParams": [
                            {
                                "name": "dst",
                                "type": "address",
                                "value": "0x0000000089341e263b85d84a0eea39f47c37a9d2"
                            },
                            {
                                "decimalAvailable": true,
                                "name": "wad",
                                "type": "uint256",
                                "value": "427,181,959,017,597,040"
                            }
                        ],
                        "constructorArguments": "",
                        "name": "transfer",
                        "returnParams": [
                            {
                                "name": "",
                                "type": "bool",
                                "value": true
                            }
                        ],
                        "signature": "transfer(address,uint256)"
                    },
                    "errorInfo": "",
                    "fromAddress": "0x24dbedb4699eb996a8ceb2baef4a4ae057cf0294",
                    "gasUsed": 8062,
                    "id": 19,
                    "methodDecoded": true,
                    "operation": "CALL",
                    "output": "0x0000000000000000000000000000000000000000000000000000000000000001",
                    "revert": false,
                    "revertMessage": "",
                    "selector": "0xa9059cbb",
                    "status": true,
                    "value": "0"
                },
                "nodeType": 0
            },
            "2": {
                "invocation": {
                    "address": "0x54d8a6a3ab830a75b8682f28315efaa4f42044f6",
                    "callData": "0x00000000000000000000000000000000000000000000000000000000000000200000000000000000000000000000000000000000000000000000000000000055016b4c7a5e3f0b99fcd83e9c089bddd6c7fce5c611c02aaa39b223fe8d0a0e5c4f27ead9083c756cc224dbedb4699eb996a8ceb2baef4a4ae057cf0294000000000000000018580f1456a55c0000000000000027100000000000000000000000",
                    "decodedMethod": {
                        "callParams": [
                            {
                                "name": "_params",
                                "type": "bytes",
                                "value": "0x016b4c7a5e3f0b99fcd83e9c089bddd6c7fce5c611c02aaa39b223fe8d0a0e5c4f27ead9083c756cc224dbedb4699eb996a8ceb2baef4a4ae057cf0294000000000000000018580f1456a55c000000000000002710"
                            }
                        ],
                        "constructorArguments": "",
                        "name": "check",
                        "returnParams": [
                            {
                                "name": "",
                                "type": "bool",
                                "value": true
                            }
                        ],
                        "signature": "check(bytes)"
                    },
                    "errorInfo": "",
                    "fromAddress": "0x0000000089341e263b85d84a0eea39f47c37a9d2",
                    "gasUsed": 7120,
                    "id": 2,
                    "methodDecoded": true,
                    "operation": "DELEGATECALL",
                    "output": "0x0000000000000000000000000000000000000000000000000000000000000001",
                    "revert": false,
                    "revertMessage": "",
                    "selector": "0xc64b3bb5",
                    "status": true,
                    "value": "0"
                },
                "nodeType": 0
            },
            "20": {
                "event": {
                    "contract": "0xc02aaa39b223fe8d0a0e5c4f27ead9083c756cc2",
                    "decodedLog": {
                        "name": "Transfer",
                        "params": [
                            {
                                "name": "src",
                                "type": "address",
                                "value": "0x24dbedb4699eb996a8ceb2baef4a4ae057cf0294"
                            },
                            {
                                "name": "dst",
                                "type": "address",
                                "value": "0x0000000089341e263b85d84a0eea39f47c37a9d2"
                            },
                            {
                                "decimalAvailable": true,
                                "name": "wad",
                                "type": "uint256",
                                "value": "427,181,959,017,597,040"
                            }
                        ],
                        "signature": "Transfer(address,address,uint256)"
                    },
                    "id": 20,
                    "logData": "0x00000000000000000000000000000000000000000000000005eda7ba79b30870",
                    "logDecoded": true,
                    "operation": "EVENT",
                    "revert": false,
                    "status": true,
                    "topics": [
                        "0xddf252ad1be2c89b69c2b068fc378daa952ba7f163c4a11628f55a4df523b3ef",
                        "0x00000000000000000000000024dbedb4699eb996a8ceb2baef4a4ae057cf0294",
                        "0x0000000000000000000000000000000089341e263b85d84a0eea39f47c37a9d2"
                    ]
                },
                "nodeType": 1
            },
            "21": {
                "invocation": {
                    "address": "0x6b4c7a5e3f0b99fcd83e9c089bddd6c7fce5c611",
                    "callData": "0x00000000000000000000000024dbedb4699eb996a8ceb2baef4a4ae057cf0294",
                    "decodedMethod": {
                        "callParams": [
                            {
                                "name": "account",
                                "type": "address",
                                "value": "0x24dbedb4699eb996a8ceb2baef4a4ae057cf0294"
                            }
                        ],
                        "constructorArguments": "",
                        "name": "balanceOf",
                        "returnParams": [
                            {
                                "decimalAvailable": true,
                                "name": "",
                                "type": "uint256",
                                "value": "11,884,713,010,114,854,220,579"
                            }
                        ],
                        "signature": "balanceOf(address)"
                    },
                    "errorInfo": "",
                    "fromAddress": "0x24dbedb4699eb996a8ceb2baef4a4ae057cf0294",
                    "gasUsed": 2886,
                    "id": 21,
                    "methodDecoded": true,
                    "operation": "STATICCALL",
                    "output": "0x00000000000000000000000000000000000000000000028445867aca8f557323",
                    "revert": false,
                    "revertMessage": "",
                    "selector": "0x70a08231",
                    "status": true,
                    "value": "0"
                },
                "nodeType": 0
            },
            "22": {
                "invocation": {
                    "address": "0xe592427a0aece92de3edee1f18e0157c05861564",
                    "callData": "0x0000000000000000000000000000000000000000000000029435abf027ec1f6cfffffffffffffffffffffffffffffffffffffffffffffffffa125845864cf790000000000000000000000000000000000000000000000000000000000000006000000000000000000000000000000000000000000000000000000000000000c0000000000000000000000000000000000000000000000000000000000000002000000000000000000000000000000000000000000000000000000000000000400000000000000000000000000000000089341e263b85d84a0eea39f47c37a9d2000000000000000000000000000000000000000000000000000000000000002b6b4c7a5e3f0b99fcd83e9c089bddd6c7fce5c611002710c02aaa39b223fe8d0a0e5c4f27ead9083c756cc2000000000000000000000000000000000000000000",
                    "decodedMethod": {
                        "callParams": [
                            {
                                "name": "amount0Delta",
                                "type": "int256",
                                "value": "47,573,119,286,748,389,228"
                            },
                            {
                                "name": "amount1Delta",
                                "type": "int256",
                                "value": "-427,181,959,017,597,040"
                            },
                            {
                                "name": "_data",
                                "type": "bytes",
                                "value": "0x000000000000000000000000000000000000000000000000000000000000002000000000000000000000000000000000000000000000000000000000000000400000000000000000000000000000000089341e263b85d84a0eea39f47c37a9d2000000000000000000000000000000000000000000000000000000000000002b6b4c7a5e3f0b99fcd83e9c089bddd6c7fce5c611002710c02aaa39b223fe8d0a0e5c4f27ead9083c756cc2000000000000000000000000000000000000000000"
                            }
                        ],
                        "constructorArguments": "",
                        "name": "uniswapV3SwapCallback",
                        "returnParams": [],
                        "signature": "uniswapV3SwapCallback(int256,int256,bytes)"
                    },
                    "errorInfo": "",
                    "fromAddress": "0x24dbedb4699eb996a8ceb2baef4a4ae057cf0294",
                    "gasUsed": 14148,
                    "id": 22,
                    "methodDecoded": true,
                    "operation": "CALL",
                    "output": "",
                    "revert": false,
                    "revertMessage": "",
                    "selector": "0xfa461e33",
                    "status": true,
                    "value": "0"
                },
                "nodeType": 0
            },
            "23": {
                "invocation": {
                    "address": "0x6b4c7a5e3f0b99fcd83e9c089bddd6c7fce5c611",
                    "callData": "0x0000000000000000000000000000000089341e263b85d84a0eea39f47c37a9d200000000000000000000000024dbedb4699eb996a8ceb2baef4a4ae057cf02940000000000000000000000000000000000000000000000029435abf027ec1f6c",
                    "decodedMethod": {
                        "callParams": [
                            {
                                "name": "sender",
                                "type": "address",
                                "value": "0x0000000089341e263b85d84a0eea39f47c37a9d2"
                            },
                            {
                                "name": "recipient",
                                "type": "address",
                                "value": "0x24dbedb4699eb996a8ceb2baef4a4ae057cf0294"
                            },
                            {
                                "decimalAvailable": true,
                                "name": "amount",
                                "type": "uint256",
                                "value": "47,573,119,286,748,389,228"
                            }
                        ],
                        "constructorArguments": "",
                        "name": "transferFrom",
                        "returnParams": [
                            {
                                "name": "",
                                "type": "bool",
                                "value": true
                            }
                        ],
                        "signature": "transferFrom(address,address,uint256)"
                    },
                    "errorInfo": "",
                    "fromAddress": "0xe592427a0aece92de3edee1f18e0157c05861564",
                    "gasUsed": 10092,
                    "id": 23,
                    "methodDecoded": true,
                    "operation": "CALL",
                    "output": "0x0000000000000000000000000000000000000000000000000000000000000001",
                    "revert": false,
                    "revertMessage": "",
                    "selector": "0x23b872dd",
                    "status": true,
                    "value": "0"
                },
                "nodeType": 0
            },
            "24": {
                "event": {
                    "contract": "0x6b4c7a5e3f0b99fcd83e9c089bddd6c7fce5c611",
                    "decodedLog": {
                        "name": "Transfer",
                        "params": [
                            {
                                "name": "from",
                                "type": "address",
                                "value": "0x0000000089341e263b85d84a0eea39f47c37a9d2"
                            },
                            {
                                "name": "to",
                                "type": "address",
                                "value": "0x24dbedb4699eb996a8ceb2baef4a4ae057cf0294"
                            },
                            {
                                "decimalAvailable": true,
                                "name": "value",
                                "type": "uint256",
                                "value": "47,573,119,286,748,389,228"
                            }
                        ],
                        "signature": "Transfer(address,address,uint256)"
                    },
                    "id": 24,
                    "logData": "0x0000000000000000000000000000000000000000000000029435abf027ec1f6c",
                    "logDecoded": true,
                    "operation": "EVENT",
                    "revert": false,
                    "status": true,
                    "topics": [
                        "0xddf252ad1be2c89b69c2b068fc378daa952ba7f163c4a11628f55a4df523b3ef",
                        "0x0000000000000000000000000000000089341e263b85d84a0eea39f47c37a9d2",
                        "0x00000000000000000000000024dbedb4699eb996a8ceb2baef4a4ae057cf0294"
                    ]
                },
                "nodeType": 1
            },
            "25": {
                "event": {
                    "contract": "0x6b4c7a5e3f0b99fcd83e9c089bddd6c7fce5c611",
                    "decodedLog": {
                        "name": "Approval",
                        "params": [
                            {
                                "name": "owner",
                                "type": "address",
                                "value": "0x0000000089341e263b85d84a0eea39f47c37a9d2"
                            },
                            {
                                "name": "spender",
                                "type": "address",
                                "value": "0xe592427a0aece92de3edee1f18e0157c05861564"
                            },
                            {
                                "decimalAvailable": true,
                                "name": "value",
                                "type": "uint256",
                                "value": "0"
                            }
                        ],
                        "signature": "Approval(address,address,uint256)"
                    },
                    "id": 25,
                    "logData": "0x0000000000000000000000000000000000000000000000000000000000000000",
                    "logDecoded": true,
                    "operation": "EVENT",
                    "revert": false,
                    "status": true,
                    "topics": [
                        "0x8c5be1e5ebec7d5bd14f71427d1e84f3dd0314c0f7b2291e5b200ac8c7c3b925",
                        "0x0000000000000000000000000000000089341e263b85d84a0eea39f47c37a9d2",
                        "0x000000000000000000000000e592427a0aece92de3edee1f18e0157c05861564"
                    ]
                },
                "nodeType": 1
            },
            "26": {
                "invocation": {
                    "address": "0x6b4c7a5e3f0b99fcd83e9c089bddd6c7fce5c611",
                    "callData": "0x00000000000000000000000024dbedb4699eb996a8ceb2baef4a4ae057cf0294",
                    "decodedMethod": {
                        "callParams": [
                            {
                                "name": "account",
                                "type": "address",
                                "value": "0x24dbedb4699eb996a8ceb2baef4a4ae057cf0294"
                            }
                        ],
                        "constructorArguments": "",
                        "name": "balanceOf",
                        "returnParams": [
                            {
                                "decimalAvailable": true,
                                "name": "",
                                "type": "uint256",
                                "value": "11,932,286,129,401,602,609,807"
                            }
                        ],
                        "signature": "balanceOf(address)"
                    },
                    "errorInfo": "",
                    "fromAddress": "0x24dbedb4699eb996a8ceb2baef4a4ae057cf0294",
                    "gasUsed": 886,
                    "id": 26,
                    "methodDecoded": true,
                    "operation": "STATICCALL",
                    "output": "0x000000000000000000000000000000000000000000000286d9bc26bab741928f",
                    "revert": false,
                    "revertMessage": "",
                    "selector": "0x70a08231",
                    "status": true,
                    "value": "0"
                },
                "nodeType": 0
            },
            "27": {
                "event": {
                    "contract": "0x24dbedb4699eb996a8ceb2baef4a4ae057cf0294",
                    "decodedLog": {
                        "name": "Swap",
                        "params": [
                            {
                                "name": "sender",
                                "type": "address",
                                "value": "0xe592427a0aece92de3edee1f18e0157c05861564"
                            },
                            {
                                "name": "recipient",
                                "type": "address",
                                "value": "0x0000000089341e263b85d84a0eea39f47c37a9d2"
                            },
                            {
                                "name": "amount0",
                                "type": "int256",
                                "value": "47,573,119,286,748,389,228"
                            },
                            {
                                "name": "amount1",
                                "type": "int256",
                                "value": "-427,181,959,017,597,040"
                            },
                            {
                                "name": "sqrtPriceX96",
                                "type": "uint160",
                                "value": "7,515,391,333,682,670,807,713,369,982"
                            },
                            {
                                "name": "liquidity",
                                "type": "uint128",
                                "value": "561,050,886,272,426,685,028"
                            },
                            {
                                "name": "tick",
                                "type": "int24",
                                "value": "-47,110"
                            }
                        ],
                        "signature": "Swap(address,address,int256,int256,uint160,uint128,int24)"
                    },
                    "id": 27,
                    "logData": "0x0000000000000000000000000000000000000000000000029435abf027ec1f6cfffffffffffffffffffffffffffffffffffffffffffffffffa125845864cf7900000000000000000000000000000000000000000184896048d892a188ebccf7e00000000000000000000000000000000000000000000001e6a25287d6213b264ffffffffffffffffffffffffffffffffffffffffffffffffffffffffffff47fa",
                    "logDecoded": true,
                    "operation": "EVENT",
                    "revert": false,
                    "status": true,
                    "topics": [
                        "0xc42079f94a6350d7e6235f29174924f928cc2ac818eb64fed8004e115fbcca67",
                        "0x000000000000000000000000e592427a0aece92de3edee1f18e0157c05861564",
                        "0x0000000000000000000000000000000089341e263b85d84a0eea39f47c37a9d2"
                    ]
                },
                "nodeType": 1
            },
            "28": {
                "invocation": {
                    "address": "0xc02aaa39b223fe8d0a0e5c4f27ead9083c756cc2",
                    "callData": "0x0000000000000000000000000000000089341e263b85d84a0eea39f47c37a9d2",
                    "decodedMethod": {
                        "callParams": [
                            {
                                "name": "",
                                "type": "address",
                                "value": "0x0000000089341e263b85d84a0eea39f47c37a9d2"
                            }
                        ],
                        "constructorArguments": "",
                        "name": "balanceOf",
                        "returnParams": [
                            {
                                "decimalAvailable": true,
                                "name": "",
                                "type": "uint256",
                                "value": "299,862,204,969,659,753,654"
                            }
                        ],
                        "signature": "balanceOf(address)"
                    },
                    "errorInfo": "",
                    "fromAddress": "0x0000000089341e263b85d84a0eea39f47c37a9d2",
                    "gasUsed": 534,
                    "id": 28,
                    "methodDecoded": true,
                    "operation": "STATICCALL",
                    "output": "0x000000000000000000000000000000000000000000000010416c8eae8df164b6",
                    "revert": false,
                    "revertMessage": "",
                    "selector": "0x70a08231",
                    "status": true,
                    "value": "0"
                },
                "nodeType": 0
            },
            "3": {
                "invocation": {
                    "address": "0x24dbedb4699eb996a8ceb2baef4a4ae057cf0294",
                    "callData": "0x",
                    "decodedMethod": {
                        "callParams": [],
                        "constructorArguments": "",
                        "name": "slot0",
                        "returnParams": [
                            {
                                "name": "sqrtPriceX96",
                                "type": "uint160",
                                "value": "7,575,715,347,957,151,634,558,236,822"
                            },
                            {
                                "name": "tick",
                                "type": "int24",
                                "value": "-46,951"
                            },
                            {
                                "name": "observationIndex",
                                "type": "uint16",
                                "value": "0"
                            },
                            {
                                "name": "observationCardinality",
                                "type": "uint16",
                                "value": "1"
                            },
                            {
                                "name": "observationCardinalityNext",
                                "type": "uint16",
                                "value": "1"
                            },
                            {
                                "name": "feeProtocol",
                                "type": "uint8",
                                "value": "0"
                            },
                            {
                                "name": "unlocked",
                                "type": "bool",
                                "value": true
                            }
                        ],
                        "signature": "slot0()"
                    },
                    "errorInfo": "",
                    "fromAddress": "0x0000000089341e263b85d84a0eea39f47c37a9d2",
                    "gasUsed": 2696,
                    "id": 3,
                    "methodDecoded": true,
                    "operation": "STATICCALL",
                    "output": "0x0000000000000000000000000000000000000000187a7c1feb5a44e6ca733896ffffffffffffffffffffffffffffffffffffffffffffffffffffffffffff489900000000000000000000000000000000000000000000000000000000000000000000000000000000000000000000000000000000000000000000000000000001000000000000000000000000000000000000000000000000000000000000000100000000000000000000000000000000000000000000000000000000000000000000000000000000000000000000000000000000000000000000000000000001",
                    "revert": false,
                    "revertMessage": "",
                    "selector": "0x3850c7bd",
                    "status": true,
                    "value": "0"
                },
                "nodeType": 0
            },
            "4": {
                "invocation": {
                    "address": "0xc02aaa39b223fe8d0a0e5c4f27ead9083c756cc2",
                    "callData": "0x0000000000000000000000000000000089341e263b85d84a0eea39f47c37a9d2",
                    "decodedMethod": {
                        "callParams": [
                            {
                                "name": "",
                                "type": "address",
                                "value": "0x0000000089341e263b85d84a0eea39f47c37a9d2"
                            }
                        ],
                        "constructorArguments": "",
                        "name": "balanceOf",
                        "returnParams": [
                            {
                                "decimalAvailable": true,
                                "name": "",
                                "type": "uint256",
                                "value": "299,835,023,010,642,156,614"
                            }
                        ],
                        "signature": "balanceOf(address)"
                    },
                    "errorInfo": "",
                    "fromAddress": "0x0000000089341e263b85d84a0eea39f47c37a9d2",
                    "gasUsed": 2534,
                    "id": 4,
                    "methodDecoded": true,
                    "operation": "STATICCALL",
                    "output": "0x000000000000000000000000000000000000000000000010410bfcd58a665c46",
                    "revert": false,
                    "revertMessage": "",
                    "selector": "0x70a08231",
                    "status": true,
                    "value": "0"
                },
                "nodeType": 0
            },
            "5": {
                "invocation": {
                    "address": "0xc02aaa39b223fe8d0a0e5c4f27ead9083c756cc2",
                    "callData": "0x000000000000000000000000aa934346e4f74bc23e62153ee964df8b826694ef000000000000000000000000000000000000000000000000058d15e176280000",
                    "decodedMethod": {
                        "callParams": [
                            {
                                "name": "dst",
                                "type": "address",
                                "value": "0xaa934346e4f74bc23e62153ee964df8b826694ef"
                            },
                            {
                                "decimalAvailable": true,
                                "name": "wad",
                                "type": "uint256",
                                "value": "400,000,000,000,000,000"
                            }
                        ],
                        "constructorArguments": "",
                        "name": "transfer",
                        "returnParams": [
                            {
                                "name": "",
                                "type": "bool",
                                "value": true
                            }
                        ],
                        "signature": "transfer(address,uint256)"
                    },
                    "errorInfo": "",
                    "fromAddress": "0x0000000089341e263b85d84a0eea39f47c37a9d2",
                    "gasUsed": 10862,
                    "id": 5,
                    "methodDecoded": true,
                    "operation": "CALL",
                    "output": "0x0000000000000000000000000000000000000000000000000000000000000001",
                    "revert": false,
                    "revertMessage": "",
                    "selector": "0xa9059cbb",
                    "status": true,
                    "value": "0"
                },
                "nodeType": 0
            },
            "6": {
                "event": {
                    "contract": "0xc02aaa39b223fe8d0a0e5c4f27ead9083c756cc2",
                    "decodedLog": {
                        "name": "Transfer",
                        "params": [
                            {
                                "name": "src",
                                "type": "address",
                                "value": "0x0000000089341e263b85d84a0eea39f47c37a9d2"
                            },
                            {
                                "name": "dst",
                                "type": "address",
                                "value": "0xaa934346e4f74bc23e62153ee964df8b826694ef"
                            },
                            {
                                "decimalAvailable": true,
                                "name": "wad",
                                "type": "uint256",
                                "value": "400,000,000,000,000,000"
                            }
                        ],
                        "signature": "Transfer(address,address,uint256)"
                    },
                    "id": 6,
                    "logData": "0x000000000000000000000000000000000000000000000000058d15e176280000",
                    "logDecoded": true,
                    "operation": "EVENT",
                    "revert": false,
                    "status": true,
                    "topics": [
                        "0xddf252ad1be2c89b69c2b068fc378daa952ba7f163c4a11628f55a4df523b3ef",
                        "0x0000000000000000000000000000000089341e263b85d84a0eea39f47c37a9d2",
                        "0x000000000000000000000000aa934346e4f74bc23e62153ee964df8b826694ef"
                    ]
                },
                "nodeType": 1
            },
            "7": {
                "invocation": {
                    "address": "0xaa934346e4f74bc23e62153ee964df8b826694ef",
                    "callData": "0x0000000000000000000000000000000000000000000000029435abf027ec1f6c00000000000000000000000000000000000000000000000000000000000000000000000000000000000000000000000089341e263b85d84a0eea39f47c37a9d200000000000000000000000000000000000000000000000000000000000000800000000000000000000000000000000000000000000000000000000000000000",
                    "decodedMethod": {
                        "callParams": [
                            {
                                "name": "amount0Out",
                                "type": "uint256",
                                "value": "47,573,119,286,748,389,228"
                            },
                            {
                                "name": "amount1Out",
                                "type": "uint256",
                                "value": "0"
                            },
                            {
                                "name": "to",
                                "type": "address",
                                "value": "0x0000000089341e263b85d84a0eea39f47c37a9d2"
                            },
                            {
                                "name": "data",
                                "type": "bytes",
                                "value": "0x"
                            }
                        ],
                        "constructorArguments": "",
                        "name": "swap",
                        "returnParams": [],
                        "signature": "swap(uint256,uint256,address,bytes)"
                    },
                    "errorInfo": "",
                    "fromAddress": "0x0000000089341e263b85d84a0eea39f47c37a9d2",
                    "gasUsed": 49012,
                    "id": 7,
                    "methodDecoded": true,
                    "operation": "CALL",
                    "output": "",
                    "revert": false,
                    "revertMessage": "",
                    "selector": "0x022c0d9f",
                    "status": true,
                    "value": "0"
                },
                "nodeType": 0
            },
            "8": {
                "invocation": {
                    "address": "0x6b4c7a5e3f0b99fcd83e9c089bddd6c7fce5c611",
                    "callData": "0x0000000000000000000000000000000089341e263b85d84a0eea39f47c37a9d20000000000000000000000000000000000000000000000029435abf027ec1f6c",
                    "decodedMethod": {
                        "callParams": [
                            {
                                "name": "recipient",
                                "type": "address",
                                "value": "0x0000000089341e263b85d84a0eea39f47c37a9d2"
                            },
                            {
                                "decimalAvailable": true,
                                "name": "amount",
                                "type": "uint256",
                                "value": "47,573,119,286,748,389,228"
                            }
                        ],
                        "constructorArguments": "",
                        "name": "transfer",
                        "returnParams": [
                            {
                                "name": "",
                                "type": "bool",
                                "value": true
                            }
                        ],
                        "signature": "transfer(address,uint256)"
                    },
                    "errorInfo": "",
                    "fromAddress": "0xaa934346e4f74bc23e62153ee964df8b826694ef",
                    "gasUsed": 13769,
                    "id": 8,
                    "methodDecoded": true,
                    "operation": "CALL",
                    "output": "0x0000000000000000000000000000000000000000000000000000000000000001",
                    "revert": false,
                    "revertMessage": "",
                    "selector": "0xa9059cbb",
                    "status": true,
                    "value": "0"
                },
                "nodeType": 0
            },
            "9": {
                "event": {
                    "contract": "0x6b4c7a5e3f0b99fcd83e9c089bddd6c7fce5c611",
                    "decodedLog": {
                        "name": "Transfer",
                        "params": [
                            {
                                "name": "from",
                                "type": "address",
                                "value": "0xaa934346e4f74bc23e62153ee964df8b826694ef"
                            },
                            {
                                "name": "to",
                                "type": "address",
                                "value": "0x0000000089341e263b85d84a0eea39f47c37a9d2"
                            },
                            {
                                "decimalAvailable": true,
                                "name": "value",
                                "type": "uint256",
                                "value": "47,573,119,286,748,389,228"
                            }
                        ],
                        "signature": "Transfer(address,address,uint256)"
                    },
                    "id": 9,
                    "logData": "0x0000000000000000000000000000000000000000000000029435abf027ec1f6c",
                    "logDecoded": true,
                    "operation": "EVENT",
                    "revert": false,
                    "status": true,
                    "topics": [
                        "0xddf252ad1be2c89b69c2b068fc378daa952ba7f163c4a11628f55a4df523b3ef",
                        "0x000000000000000000000000aa934346e4f74bc23e62153ee964df8b826694ef",
                        "0x0000000000000000000000000000000089341e263b85d84a0eea39f47c37a9d2"
                    ]
                },
                "nodeType": 1
            }
        },
        "gasFlame": [
            {
                "children": [
                    {
                        "children": [
                            {
                                "children": [],
                                "depth": 0,
                                "name": "Initial Gas",
                                "value": 24012
                            },
                            {
                                "children": [
                                    {
                                        "children": [],
                                        "depth": 1,
                                        "name": "getReserves",
                                        "value": 2504
                                    },
                                    {
                                        "children": [
                                            {
                                                "children": [],
                                                "depth": 2,
                                                "name": "slot0",
                                                "value": 2696
                                            }
                                        ],
                                        "depth": 1,
                                        "name": "check",
                                        "value": 7120
                                    },
                                    {
                                        "children": [],
                                        "depth": 1,
                                        "name": "balanceOf",
                                        "value": 2534
                                    },
                                    {
                                        "children": [],
                                        "depth": 1,
                                        "name": "transfer",
                                        "value": 10862
                                    },
                                    {
                                        "children": [
                                            {
                                                "children": [],
                                                "depth": 2,
                                                "name": "transfer",
                                                "value": 13769
                                            },
                                            {
                                                "children": [],
                                                "depth": 2,
                                                "name": "balanceOf",
                                                "value": 886
                                            },
                                            {
                                                "children": [],
                                                "depth": 2,
                                                "name": "balanceOf",
                                                "value": 534
                                            }
                                        ],
                                        "depth": 1,
                                        "name": "swap",
                                        "value": 49012
                                    },
                                    {
                                        "children": [
                                            {
                                                "children": [],
                                                "depth": 2,
                                                "name": "approve",
                                                "value": 25249
                                            },
                                            {
                                                "children": [
                                                    {
                                                        "children": [
                                                            {
                                                                "children": [],
                                                                "depth": 4,
                                                                "name": "transfer",
                                                                "value": 8062
                                                            },
                                                            {
                                                                "children": [],
                                                                "depth": 4,
                                                                "name": "balanceOf",
                                                                "value": 2886
                                                            },
                                                            {
                                                                "children": [
                                                                    {
                                                                        "children": [],
                                                                        "depth": 5,
                                                                        "name": "transferFrom",
                                                                        "value": 10092
                                                                    }
                                                                ],
                                                                "depth": 4,
                                                                "name": "uniswapV3SwapCallback",
                                                                "value": 14148
                                                            },
                                                            {
                                                                "children": [],
                                                                "depth": 4,
                                                                "name": "balanceOf",
                                                                "value": 886
                                                            }
                                                        ],
                                                        "depth": 3,
                                                        "name": "swap",
                                                        "value": 59344
                                                    }
                                                ],
                                                "depth": 2,
                                                "name": "exactInputSingle",
                                                "value": 64269
                                            }
                                        ],
                                        "depth": 1,
                                        "name": "swap",
                                        "value": 94796
                                    },
                                    {
                                        "children": [],
                                        "depth": 1,
                                        "name": "balanceOf",
                                        "value": 534
                                    }
                                ],
                                "depth": 0,
                                "name": "Executed Gas",
                                "value": 189205
                            }
                        ],
                        "depth": -1,
                        "name": "Actual Gas Used",
                        "value": 187717
                    },
                    {
                        "children": [],
                        "depth": -1,
                        "name": "Refunded Gas",
                        "value": 25500
                    }
                ],
                "depth": -2,
                "name": "Total Gas",
                "value": 213217
            }
        ],
        "isConfirmed": true,
        "mainTrace": [
            {
                "children": [
                    {
                        "children": [
                            {
                                "children": [],
                                "depth": 1,
                                "id": 1,
                                "order": 1
                            },
                            {
                                "children": [
                                    {
                                        "children": [],
                                        "depth": 2,
                                        "id": 3,
                                        "order": 3
                                    }
                                ],
                                "depth": 1,
                                "id": 2,
                                "order": 2
                            },
                            {
                                "children": [],
                                "depth": 1,
                                "id": 4,
                                "order": 4
                            },
                            {
                                "children": [
                                    {
                                        "children": [],
                                        "depth": 2,
                                        "id": 6,
                                        "order": 6
                                    }
                                ],
                                "depth": 1,
                                "id": 5,
                                "order": 5
                            },
                            {
                                "children": [
                                    {
                                        "children": [
                                            {
                                                "children": [],
                                                "depth": 3,
                                                "id": 9,
                                                "order": 9
                                            }
                                        ],
                                        "depth": 2,
                                        "id": 8,
                                        "order": 8
                                    },
                                    {
                                        "children": [],
                                        "depth": 2,
                                        "id": 10,
                                        "order": 10
                                    },
                                    {
                                        "children": [],
                                        "depth": 2,
                                        "id": 11,
                                        "order": 11
                                    },
                                    {
                                        "children": [],
                                        "depth": 2,
                                        "id": 12,
                                        "order": 12
                                    },
                                    {
                                        "children": [],
                                        "depth": 2,
                                        "id": 13,
                                        "order": 13
                                    }
                                ],
                                "depth": 1,
                                "id": 7,
                                "order": 7
                            },
                            {
                                "children": [
                                    {
                                        "children": [
                                            {
                                                "children": [],
                                                "depth": 3,
                                                "id": 16,
                                                "order": 16
                                            }
                                        ],
                                        "depth": 2,
                                        "id": 15,
                                        "order": 15
                                    },
                                    {
                                        "children": [
                                            {
                                                "children": [
                                                    {
                                                        "children": [
                                                            {
                                                                "children": [],
                                                                "depth": 5,
                                                                "id": 20,
                                                                "order": 20
                                                            }
                                                        ],
                                                        "depth": 4,
                                                        "id": 19,
                                                        "order": 19
                                                    },
                                                    {
                                                        "children": [],
                                                        "depth": 4,
                                                        "id": 21,
                                                        "order": 21
                                                    },
                                                    {
                                                        "children": [
                                                            {
                                                                "children": [
                                                                    {
                                                                        "children": [],
                                                                        "depth": 6,
                                                                        "id": 24,
                                                                        "order": 24
                                                                    },
                                                                    {
                                                                        "children": [],
                                                                        "depth": 6,
                                                                        "id": 25,
                                                                        "order": 25
                                                                    }
                                                                ],
                                                                "depth": 5,
                                                                "id": 23,
                                                                "order": 23
                                                            }
                                                        ],
                                                        "depth": 4,
                                                        "id": 22,
                                                        "order": 22
                                                    },
                                                    {
                                                        "children": [],
                                                        "depth": 4,
                                                        "id": 26,
                                                        "order": 26
                                                    },
                                                    {
                                                        "children": [],
                                                        "depth": 4,
                                                        "id": 27,
                                                        "order": 27
                                                    }
                                                ],
                                                "depth": 3,
                                                "id": 18,
                                                "order": 18
                                            }
                                        ],
                                        "depth": 2,
                                        "id": 17,
                                        "order": 17
                                    }
                                ],
                                "depth": 1,
                                "id": 14,
                                "order": 14
                            },
                            {
                                "children": [],
                                "depth": 1,
                                "id": 28,
                                "order": 28
                            }
                        ],
                        "depth": 0,
                        "id": 0,
                        "order": 0
                    }
                ],
                "depth": -1,
                "id": -1,
                "order": -1
            }
        ],
        "mainTraceNodeCount": 29,
        "parentIdMap": {
            "0": -1,
            "1": 0,
            "10": 7,
            "11": 7,
            "12": 7,
            "13": 7,
            "14": 0,
            "15": 14,
            "16": 15,
            "17": 14,
            "18": 17,
            "19": 18,
            "2": 0,
            "20": 19,
            "21": 18,
            "22": 18,
            "23": 22,
            "24": 23,
            "25": 23,
            "26": 18,
            "27": 18,
            "28": 0,
            "3": 2,
            "4": 0,
            "5": 0,
            "6": 5,
            "7": 0,
            "8": 7,
            "9": 8
        },
        "tidyTrace": [
            {
                "children": [
                    {
                        "children": [
                            {
                                "children": [],
                                "depth": 1,
                                "id": 2,
                                "order": 2
                            },
                            {
                                "children": [
                                    {
                                        "children": [],
                                        "depth": 2,
                                        "id": 6,
                                        "order": 6
                                    }
                                ],
                                "depth": 1,
                                "id": 5,
                                "order": 5
                            },
                            {
                                "children": [
                                    {
                                        "children": [
                                            {
                                                "children": [],
                                                "depth": 3,
                                                "id": 9,
                                                "order": 9
                                            }
                                        ],
                                        "depth": 2,
                                        "id": 8,
                                        "order": 8
                                    },
                                    {
                                        "children": [],
                                        "depth": 2,
                                        "id": 12,
                                        "order": 12
                                    },
                                    {
                                        "children": [],
                                        "depth": 2,
                                        "id": 13,
                                        "order": 13
                                    }
                                ],
                                "depth": 1,
                                "id": 7,
                                "order": 7
                            },
                            {
                                "children": [
                                    {
                                        "children": [
                                            {
                                                "children": [],
                                                "depth": 3,
                                                "id": 16,
                                                "order": 16
                                            }
                                        ],
                                        "depth": 2,
                                        "id": 15,
                                        "order": 15
                                    },
                                    {
                                        "children": [
                                            {
                                                "children": [
                                                    {
                                                        "children": [
                                                            {
                                                                "children": [],
                                                                "depth": 5,
                                                                "id": 20,
                                                                "order": 20
                                                            }
                                                        ],
                                                        "depth": 4,
                                                        "id": 19,
                                                        "order": 19
                                                    },
                                                    {
                                                        "children": [
                                                            {
                                                                "children": [
                                                                    {
                                                                        "children": [],
                                                                        "depth": 6,
                                                                        "id": 24,
                                                                        "order": 24
                                                                    },
                                                                    {
                                                                        "children": [],
                                                                        "depth": 6,
                                                                        "id": 25,
                                                                        "order": 25
                                                                    }
                                                                ],
                                                                "depth": 5,
                                                                "id": 23,
                                                                "order": 23
                                                            }
                                                        ],
                                                        "depth": 4,
                                                        "id": 22,
                                                        "order": 22
                                                    },
                                                    {
                                                        "children": [],
                                                        "depth": 4,
                                                        "id": 27,
                                                        "order": 27
                                                    }
                                                ],
                                                "depth": 3,
                                                "id": 18,
                                                "order": 18
                                            }
                                        ],
                                        "depth": 2,
                                        "id": 17,
                                        "order": 17
                                    }
                                ],
                                "depth": 1,
                                "id": 14,
                                "order": 14
                            }
                        ],
                        "depth": 0,
                        "id": 0,
                        "order": 0
                    }
                ],
                "depth": -1,
                "id": -1,
                "order": -1
            }
        ],
        "tidyTraceNodeCount": 21
    },
    "state_change": {
        "stateChanges": [
            {
                "address": "0x24dbedb4699eb996a8ceb2baef4a4ae057cf0294",
                "erc": "",
                "slots": [
                    {
                        "current": "0x000100000100010000ff47fa0000000000000000184896048d892a188ebccf7e",
                        "key": "0x0000000000000000000000000000000000000000000000000000000000000000",
                        "prev": "0x000100000100010000ff48990000000000000000187a7c1feb5a44e6ca733896"
                    },
                    {
                        "current": "0x00000000000000000000000000000003f477cef86dc9e160f2a320847f1c9c57",
                        "key": "0x0000000000000000000000000000000000000000000000000000000000000001",
                        "prev": "0x00000000000000000000000000000003f4403d160debe34f918d565ca85e8fdf"
                    }
                ],
                "storageVariables": []
            },
            {
                "address": "0x6b4c7a5e3f0b99fcd83e9c089bddd6c7fce5c611",
                "erc": "ERC-20",
                "slots": [
                    {
                        "current": "0x00000000000000000000000000000000000000000000003077e86574a86cd83b",
                        "key": "0xa525503be56764f4766f9a2a5be061dd4d5de097db94288b436eb0c94425789a",
                        "prev": "0x0000000000000000000000000000000000000000000000330c1e1164d058f7a7"
                    },
                    {
                        "current": "0x000000000000000000000000000000000000000000000286d9bc26bab741928f",
                        "key": "0x80d6ad42305cb42bbdfaaeac53c0aa284b95d20b87b7723a0b18362403211b65",
                        "prev": "0x00000000000000000000000000000000000000000000028445867aca8f557323"
                    }
                ],
                "storageVariables": [
                    {
                        "name": "_balances",
                        "type": "mapping(address => uint256)",
                        "value": {
                            "pairs": [
                                {
                                    "key": "0x24dbedb4699eb996a8ceb2baef4a4ae057cf0294",
                                    "value": {
                                        "current": "11932286129401602609807",
                                        "prev": "11884713010114854220579",
                                        "typeTag": 1
                                    }
                                },
                                {
                                    "key": "0xaa934346e4f74bc23e62153ee964df8b826694ef",
                                    "value": {
                                        "current": "894083982974885091387",
                                        "prev": "941657102261633480615",
                                        "typeTag": 1
                                    }
                                }
                            ],
                            "typeTag": 4
                        }
                    }
                ]
            },
            {
                "address": "0xaa934346e4f74bc23e62153ee964df8b826694ef",
                "erc": "ERC-20",
                "slots": [
                    {
                        "current": "0x000000000000000000000000000000014a52eb50b6f4e1a9441bf2be1f5a470b",
                        "key": "0x0000000000000000000000000000000000000000000000000000000000000009",
                        "prev": "0x000000000000000000000000000000014a52be7cf303c3e314d730e11e7e8621"
                    },
                    {
                        "current": "0x00000000000000000000000000000a9891a0a3ecf306b273b19a04abe91050e1",
                        "key": "0x000000000000000000000000000000000000000000000000000000000000000a",
                        "prev": "0x00000000000000000000000000000a9886d49ad06bfb8e06c57f1a6001166b89"
                    },
                    {
                        "current": "0x6111d8df0000000000006d90afcb23ac101f00000000003077e86574a86cd83b",
                        "key": "0x0000000000000000000000000000000000000000000000000000000000000008",
                        "prev": "0x6111d8c9000000000000680399e9ad84101f0000000000330c1e1164d058f7a7"
                    }
                ],
                "storageVariables": [
                    {
                        "name": "price0CumulativeLast",
                        "type": "uint256",
                        "value": {
                            "current": "439075779712554268549829414950037767947",
                            "prev": "439074870508748348724376724813423478305",
                            "typeTag": 1
                        }
                    },
                    {
                        "name": "price1CumulativeLast",
                        "type": "uint256",
                        "value": {
                            "current": "923039351241277115988909126638763185819873",
                            "prev": "923024999547958256795555080822144021982089",
                            "typeTag": 1
                        }
                    },
                    {
                        "name": "reserve0",
                        "type": "uint112",
                        "value": {
                            "current": "894083982974885091387",
                            "prev": "941657102261633480615",
                            "typeTag": 1
                        }
                    },
                    {
                        "name": "reserve1",
                        "type": "uint112",
                        "value": {
                            "current": "7895003433792180255",
                            "prev": "7495003433792180255",
                            "typeTag": 1
                        }
                    },
                    {
                        "name": "blockTimestampLast",
                        "type": "uint32",
                        "value": {
                            "current": "1628559583",
                            "prev": "1628559561",
                            "typeTag": 1
                        }
                    }
                ]
            },
            {
                "address": "0xc02aaa39b223fe8d0a0e5c4f27ead9083c756cc2",
                "erc": "ERC-20",
                "slots": [
                    {
                        "current": "0x000000000000000000000000000000000000000000000010416c8eae8df164b6",
                        "key": "0x6b27eedc3ee3cf091369c64c14d0debe0293daba1f63ceeb84ddbd05b56976ab",
                        "prev": "0x000000000000000000000000000000000000000000000010410bfcd58a665c46"
                    },
                    {
                        "current": "0x0000000000000000000000000000000000000000000000006d90afcb23ac101f",
                        "key": "0x804797d32044efc8a2a6738fd446c85c60c8db7ba317b063b0136b4c28ab1dc1",
                        "prev": "0x000000000000000000000000000000000000000000000000680399e9ad84101f"
                    },
                    {
                        "current": "0x0000000000000000000000000000000000000000000000019f8cb745180a3b61",
                        "key": "0xd9fad9a1b319d0b4a7830519a537d478d859fb11d409ee5ecf0b39b5dc614ae9",
                        "prev": "0x000000000000000000000000000000000000000000000001a57a5eff91bd43d1"
                    }
                ],
                "storageVariables": [
                    {
                        "name": "balanceOf",
                        "type": "mapping(address => uint256)",
                        "value": {
                            "pairs": [
                                {
                                    "key": "0x0000000089341e263b85d84a0eea39f47c37a9d2",
                                    "value": {
                                        "current": "299862204969659753654",
                                        "prev": "299835023010642156614",
                                        "typeTag": 1
                                    }
                                },
                                {
                                    "key": "0x24dbedb4699eb996a8ceb2baef4a4ae057cf0294",
                                    "value": {
                                        "current": "29943509529863535457",
                                        "prev": "30370691488881132497",
                                        "typeTag": 1
                                    }
                                },
                                {
                                    "key": "0xaa934346e4f74bc23e62153ee964df8b826694ef",
                                    "value": {
                                        "current": "7895003433792180255",
                                        "prev": "7495003433792180255",
                                        "typeTag": 1
                                    }
                                }
                            ],
                            "typeTag": 4
                        }
                    }
                ]
            }
        ]
    }
}