{
    "balance_change": {
        "balanceChanges": [
            {
                "account": "0x275699940e198a1eadb987b15cb0904396431d98",
                "assets": [
                    {
                        "address": "0x72dd4b6bd852a3aa172be4d6c5a6dbec588cf131",
                        "amount": "100",
                        "iconUrl": "https://assets.blocksec.com/icon/f6d38655bb947a2bad5861af173877fe4eb1b38efa1a62ec4726e9fc0a2af2b6.png",
                        "isERC1155": false,
                        "isERC721": false,
                        "sign": false,
                        "value": ""
                    }
                ]
            },
            {
                "account": "0xc7b295386093823cf457eb0a5885172a5538c06c",
                "assets": [
                    {
                        "address": "0x72dd4b6bd852a3aa172be4d6c5a6dbec588cf131",
                        "amount": "100",
                        "iconUrl": "https://assets.blocksec.com/icon/f6d38655bb947a2bad5861af173877fe4eb1b38efa1a62ec4726e9fc0a2af2b6.png",
                        "isERC1155": false,
                        "isERC721": false,
                        "sign": true,
                        "value": ""
                    }
                ]
            }
        ]
    },
    "profile": {
        "basic_info": {
            "baseFee": "",
            "blockNumber": 6637828,
            "callData": "0xa9059cbb000000000000000000000000c7b295386093823cf457eb0a5885172a5538c06c0000000000000000000000000000000000000000000000056bc75e2d63100000",
            "debugEnable": true,
            "errorInfo": "",
            "eventCount": 1,
            "feeRecipient": "0x52e44f279f4203dcf680395379e5f9990a69f13c",
            "formatValue": "0",
            "gasLimit": 52522,
            "gasPrice": "41",
            "gasUsed": 52522,
            "intTxnCount": 0,
            "internalRevert": false,
            "internalRevertMessage": "",
            "isContractCreation": false,
            "isFlashloan": false,
            "maxFee": "",
            "nonce": 11,
            "overwritedBlockNumber": -1,
            "priorityFee": "",
            "receiver": "0x72dd4b6bd852a3aa172be4d6c5a6dbec588cf131",
            "revertMessage": "",
            "sender": "0x275699940e198a1eadb987b15cb0904396431d98",
            "simulationEnable": true,
            "sourceTxnHash": "0x14e5d1b1ee0481070a7e1af5c2caf528f4aaec02d1a469bd2a53f2f686cc4e10",
            "status": true,
            "timestamp": "2018-11-03T20:23:14Z",
            "transactionFee": "0.002153402",
            "txnHash": "0x14e5d1b1ee0481070a7e1af5c2caf528f4aaec02d1a469bd2a53f2f686cc4e10",
            "txnIndex": 2,
            "type": 0,
            "value": "0"
        },
        "fund_flow": [
            {
                "amount": "100",
                "from": "0x275699940e198a1eadb987b15cb0904396431d98",
                "id": 1,
                "isERC1155": false,
                "isERC721": false,
                "isReverted": false,
                "order": 1,
                "to": "0xc7b295386093823cf457eb0a5885172a5538c06c",
                "token": "0x72dd4b6bd852a3aa172be4d6c5a6dbec588cf131"
            }
        ],
        "token_infos": [
            {
                "address": "0x72dd4b6bd852a3aa172be4d6c5a6dbec588cf131",
                "decimals": 18
            },
            {
                "address": "0xc02aaa39b223fe8d0a0e5c4f27ead9083c756cc2",
                "decimals": 18
            },
            {
                "address": "0xeeeeeeeeeeeeeeeeeeeeeeeeeeeeeeeeeeeeeeee",
                "decimals": 18
            }
        ]
    },
    "address_label": {
        "labels": [
            {
                "address": "0xeeeeeeeeeeeeeeeeeeeeeeeeeeeeeeeeeeeeeeee",
                "label": "Ether"
            },
            {
                "address": "0x72dd4b6bd852a3aa172be4d6c5a6dbec588cf131",
                "label": "NAGACoin"
            },
            {
                "address": "0x0000000000000000000000000000000000000001",
                "label": "Precompiled"
            },
            {
                "address": "0x0000000000000000000000000000000000000002",
                "label": "Precompiled"
            },
            {
                "address": "0x0000000000000000000000000000000000000003",
                "label": "Precompiled"
            },
            {
                "address": "0x0000000000000000000000000000000000000004",
                "label": "Precompiled"
            }
        ]
    },
    "trace": {
        "accountLabels": null,
        "dataMap": {
            "-1": {
                "invocation": {
                    "address": "0x275699940e198a1eadb987b15cb0904396431d98",
                    "callData": "",
                    "decodedMethod": null,
                    "errorInfo": "",
                    "fromAddress": "",
                    "gasUsed": 0,
                    "id": -1,
                    "methodDecoded": false,
                    "operation": "",
                    "output": "",
                    "revert": false,
                    "revertMessage": "",
                    "selector": "",
                    "status": false,
                    "value": ""
                },
                "nodeType": 0
            },
            "0": {
                "invocation": {
                    "address": "0x72dd4b6bd852a3aa172be4d6c5a6dbec588cf131",
                    "callData": "0x000000000000000000000000c7b295386093823cf457eb0a5885172a5538c06c0000000000000000000000000000000000000000000000056bc75e2d63100000",
                    "decodedMethod": {
                        "callParams": [
                            {
                                "name": "_to",
                                "type": "address",
                                "value": "0xc7b295386093823cf457eb0a5885172a5538c06c"
                            },
                            {
                                "decimalAvailable": true,
                                "name": "_value",
                                "type": "uint256",
                                "value": "100,000,000,000,000,000,000"
                            }
                        ],
                        "constructorArguments": "",
                        "name": "transfer",
                        "returnParams": [
                            {
                                "name": "",
                                "type": "bool",
                                "value": true
                            }
                        ],
                        "signature": "transfer(address,uint256)"
                    },
                    "errorInfo": "",
                    "fromAddress": "0x275699940e198a1eadb987b15cb0904396431d98",
                    "gasUsed": 52522,
                    "id": 0,
                    "methodDecoded": true,
                    "operation": "CALL",
                    "output": "0x0000000000000000000000000000000000000000000000000000000000000001",
                    "revert": false,
                    "revertMessage": "",
                    "selector": "0xa9059cbb",
                    "status": true,
                    "value": "0"
                },
                "nodeType": 0
            },
            "1": {
                "event": {
                    "contract": "0x72dd4b6bd852a3aa172be4d6c5a6dbec588cf131",
                    "decodedLog": {
                        "name": "Transfer",
                        "params": [
                            {
                                "name": "from",
                                "type": "address",
                                "value": "0x275699940e198a1eadb987b15cb0904396431d98"
                            },
                            {
                                "name": "to",
                                "type": "address",
                                "value": "0xc7b295386093823cf457eb0a5885172a5538c06c"
                            },
                            {
                                "decimalAvailable": true,
                                "name": "value",
                                "type": "uint256",
                                "value": "100,000,000,000,000,000,000"
                            }
                        ],
                        "signature": "Transfer(address,address,uint256)"
                    },
                    "id": 1,
                    "logData": "0x0000000000000000000000000000000000000000000000056bc75e2d63100000",
                    "logDecoded": true,
                    "operation": "EVENT",
                    "revert": false,
                    "status": true,
                    "topics": [
                        "0xddf252ad1be2c89b69c2b068fc378daa952ba7f163c4a11628f55a4df523b3ef",
                        "0x000000000000000000000000275699940e198a1eadb987b15cb0904396431d98",
                        "0x000000000000000000000000c7b295386093823cf457eb0a5885172a5538c06c"
                    ]
                },
                "nodeType": 1
            }
        },
        "gasFlame": [
            {
                "children": [
                    {
                        "children": [
                            {
                                "children": [],
                                "depth": 0,
                                "name": "Initial Gas",
                                "value": 23256
                            },
                            {
                                "children": [],
                                "depth": 0,
                                "name": "Executed Gas",
                                "value": 29266
                            }
                        ],
                        "depth": -1,
                        "name": "Actual Gas Used",
                        "value": 52522
                    },
                    {
                        "children": [],
                        "depth": -1,
                        "name": "Refunded Gas",
                        "value": 0
                    }
                ],
                "depth": -2,
                "name": "Total Gas",
                "value": 52522
            }
        ],
        "isConfirmed": true,
        "mainTrace": [
            {
                "children": [
                    {
                        "children": [
                            {
                                "children": [],
                                "depth": 1,
                                "id": 1,
                                "order": 1
                            }
                        ],
                        "depth": 0,
                        "id": 0,
                        "order": 0
                    }
                ],
                "depth": -1,
                "id": -1,
                "order": -1
            }
        ],
        "mainTraceNodeCount": 2,
        "parentIdMap": {
            "0": -1,
            "1": 0
        },
        "tidyTrace": [
            {
                "children": [
                    {
                        "children": [
                            {
                                "children": [],
                                "depth": 1,
                                "id": 1,
                                "order": 1
                            }
                        ],
                        "depth": 0,
                        "id": 0,
                        "order": 0
                    }
                ],
                "depth": -1,
                "id": -1,
                "order": -1
            }
        ],
        "tidyTraceNodeCount": 2
    },
    "state_change": {
        "stateChanges": [
            {
                "address": "0x72dd4b6bd852a3aa172be4d6c5a6dbec588cf131",
                "erc": "ERC-20",
                "slots": [
                    {
                        "current": "0x000000000000000000000000000000000000000000000d0c4dd5e7d4548fa000",
                        "key": "0x99fc4f706f3cd5c7404c67ffea23babb2f70d32940185776bda7fbe16750f7a2",
                        "prev": "0x000000000000000000000000000000000000000000000d11b99d4601b79fa000"
                    },
                    {
                        "current": "0x0000000000000000000000000000000000000000000000056bc75e2d63100000",
                        "key": "0xadcc42cb69197a126b542a69aca58681d29ff2fe02c5628de497ed532c3e4d21",
                        "prev": "0x0000000000000000000000000000000000000000000000000000000000000000"
                    }
                ],
                "storageVariables": [
                    {
                        "name": "balances",
                        "type": "mapping(address => uint256)",
                        "value": {
                            "pairs": [
                                {
                                    "key": "0x275699940e198a1eadb987b15cb0904396431d98",
                                    "value": {
                                        "current": "61617733850000000000000",
                                        "prev": "61717733850000000000000",
                                        "typeTag": 1
                                    }
                                },
                                {
                                    "key": "0xc7b295386093823cf457eb0a5885172a5538c06c",
                                    "value": {
                                        "current": "100000000000000000000",
                                        "prev": "0",
                                        "typeTag": 1
                                    }
                                }
                            ],
                            "typeTag": 4
                        }
                    }
                ]
            }
        ]
    }
}