{
    "balance_change": {
        "balanceChanges": [
            {
                "account": "0x0000000000000000000000000000000000000000",
                "assets": [
                    {
                        "address": "0xbbfb6e466f376e493da35b5665dbfc19f7204231",
                        "amount": "1",
                        "iconUrl": "",
                        "isERC1155": false,
                        "isERC721": true,
                        "sign": false,
                        "tokenID": "203414",
                        "value": ""
                    }
                ]
            },
            {
                "account": "0xfd186097b50370f400d0b428b9d5ff30b445a1ad",
                "assets": [
                    {
                        "address": "0xbbfb6e466f376e493da35b5665dbfc19f7204231",
                        "amount": "1",
                        "iconUrl": "",
                        "isERC1155": false,
                        "isERC721": true,
                        "sign": true,
                        "tokenID": "203414",
                        "value": ""
                    }
                ]
            }
        ]
    },
    "profile": {
        "basic_info": {
            "baseFee": "45.925727858",
            "blockNumber": 13221252,
            "callData": "0x156e29f6000000000000000000000000fd186097b50370f400d0b428b9d5ff30b445a1ad0000000000000000000000000000000000000000000000000000000000000002000000000000000000000000000000000000000000000000000000000000117c",
            "debugEnable": true,
            "errorInfo": "",
            "eventCount": 2,
            "feeRecipient": "0x99c85bb64564d9ef9a99621301f22c9993cb89e3",
            "formatValue": "0",
            "gasLimit": 295133,
            "gasPrice": "47.425727858",
            "gasUsed": 270764,
            "intTxnCount": 8,
            "internalRevert": false,
            "internalRevertMessage": "",
            "isContractCreation": false,
            "isFlashloan": false,
            "maxFee": "67.958102671",
            "nonce": 748,
            "overwritedBlockNumber": -1,
            "priorityFee": "1.5",
            "receiver": "0xbbfb6e466f376e493da35b5665dbfc19f7204231",
            "revertMessage": "",
            "sender": "0xfd186097b50370f400d0b428b9d5ff30b445a1ad",
            "simulationEnable": true,
            "sourceTxnHash": "0x15b3fa315078f4f7aaeb594dbd7c6e3e9ac45680d8e72a44421c916299be19e4",
            "status": true,
            "timestamp": "2021-09-14T02:54:05Z",
            "transactionFee": "0.012841179777743512",
            "txnHash": "0x15b3fa315078f4f7aaeb594dbd7c6e3e9ac45680d8e72a44421c916299be19e4",
            "txnIndex": 364,
            "type": 2,
            "value": "0"
        },
        "fund_flow": [
            {
                "amount": "1",
                "from": "0x0000000000000000000000000000000000000000",
                "id": 1,
                "isERC1155": false,
                "isERC721": true,
                "isReverted": false,
                "order": 1,
                "to": "0xfd186097b50370f400d0b428b9d5ff30b445a1ad",
                "token": "0xbbfb6e466f376e493da35b5665dbfc19f7204231",
                "tokenID": "203414"
            }
        ],
        "token_infos": [
            {
                "address": "0xc02aaa39b223fe8d0a0e5c4f27ead9083c756cc2",
                "decimals": 18
            },
            {
                "address": "0xeeeeeeeeeeeeeeeeeeeeeeeeeeeeeeeeeeeeeeee",
                "decimals": 18
            }
        ]
    },
    "address_label": {
        "labels": [
            {
                "address": "0xeeeeeeeeeeeeeeeeeeeeeeeeeeeeeeeeeeeeeeee",
                "label": "Ether"
            },
            {
                "address": "0x1ca39c7f0f65b4da24b094a9afac7acf626b7f38",
                "label": "GEN.ART: GA Token"
            },
            {
                "address": "0xbbfb6e466f376e493da35b5665dbfc19f7204231",
                "label": "Gen Art: GENART Token"
            },
            {
                "address": "0x97275a3a1237b1b63ce089daffffc7ddf6a5c262",
                "label": "GenArtInterface"
            },
            {
                "address": "0x0000000000000000000000000000000000000001",
                "label": "Precompiled"
            },
            {
                "address": "0x0000000000000000000000000000000000000002",
                "label": "Precompiled"
            },
            {
                "address": "0x0000000000000000000000000000000000000003",
                "label": "Precompiled"
            },
            {
                "address": "0x0000000000000000000000000000000000000004",
                "label": "Precompiled"
            }
        ]
    },
    "trace": {
        "accountLabels": null,
        "dataMap": {
            "-1": {
                "invocation": {
                    "address": "0xfd186097b50370f400d0b428b9d5ff30b445a1ad",
                    "callData": "",
                    "decodedMethod": null,
                    "errorInfo": "",
                    "fromAddress": "",
                    "gasUsed": 0,
                    "id": -1,
                    "methodDecoded": false,
                    "operation": "",
                    "output": "",
                    "revert": false,
                    "revertMessage": "",
                    "selector": "",
                    "status": false,
                    "value": ""
                },
                "nodeType": 0
            },
            "0": {
                "invocation": {
                    "address": "0xbbfb6e466f376e493da35b5665dbfc19f7204231",
                    "callData": "0x000000000000000000000000fd186097b50370f400d0b428b9d5ff30b445a1ad0000000000000000000000000000000000000000000000000000000000000002000000000000000000000000000000000000000000000000000000000000117c",
                    "decodedMethod": {
                        "callParams": [
                            {
                                "name": "_to",
                                "type": "address",
                                "value": "0xfd186097b50370f400d0b428b9d5ff30b445a1ad"
                            },
                            {
                                "name": "_collectionId",
                                "type": "uint256",
                                "value": "2"
                            },
                            {
                                "name": "_membershipId",
                                "type": "uint256",
                                "value": "4,476"
                            }
                        ],
                        "constructorArguments": "",
                        "name": "mint",
                        "returnParams": [],
                        "signature": "mint(address,uint256,uint256)"
                    },
                    "errorInfo": "",
                    "fromAddress": "0xfd186097b50370f400d0b428b9d5ff30b445a1ad",
                    "gasUsed": 270764,
                    "id": 0,
                    "methodDecoded": true,
                    "operation": "CALL",
                    "output": "",
                    "revert": false,
                    "revertMessage": "",
                    "selector": "0x156e29f6",
                    "status": true,
                    "value": "0"
                },
                "nodeType": 0
            },
            "1": {
                "invocation": {
                    "address": "0x97275a3a1237b1b63ce089daffffc7ddf6a5c262",
                    "callData": "0x000000000000000000000000000000000000000000000000000000000000117c",
                    "decodedMethod": {
                        "callParams": [
                            {
                                "name": "_membershipId",
                                "type": "uint256",
                                "value": "4,476"
                            }
                        ],
                        "constructorArguments": "",
                        "name": "ownerOf",
                        "returnParams": [
                            {
                                "name": "",
                                "type": "address",
                                "value": "0xfd186097b50370f400d0b428b9d5ff30b445a1ad"
                            }
                        ],
                        "signature": "ownerOf(uint256)"
                    },
                    "errorInfo": "",
                    "fromAddress": "0xbbfb6e466f376e493da35b5665dbfc19f7204231",
                    "gasUsed": 13296,
                    "id": 1,
                    "methodDecoded": true,
                    "operation": "STATICCALL",
                    "output": "0x000000000000000000000000fd186097b50370f400d0b428b9d5ff30b445a1ad",
                    "revert": false,
                    "revertMessage": "",
                    "selector": "0x6352211e",
                    "status": true,
                    "value": "0"
                },
                "nodeType": 0
            },
            "10": {
                "invocation": {
                    "address": "0x53072a15ce7d2a12d6fb25d730f23ec97c4a46d6",
                    "callData": "0x",
                    "decodedMethod": null,
                    "errorInfo": "",
                    "fromAddress": "0xbbfb6e466f376e493da35b5665dbfc19f7204231",
                    "gasUsed": 0,
                    "id": 10,
                    "methodDecoded": false,
                    "operation": "CALL",
                    "output": "",
                    "revert": false,
                    "revertMessage": "",
                    "selector": "fallback",
                    "status": true,
                    "value": "0"
                },
                "nodeType": 0
            },
            "2": {
                "invocation": {
                    "address": "0x1ca39c7f0f65b4da24b094a9afac7acf626b7f38",
                    "callData": "0x000000000000000000000000000000000000000000000000000000000000117c",
                    "decodedMethod": {
                        "callParams": [
                            {
                                "name": "tokenId",
                                "type": "uint256",
                                "value": "4,476"
                            }
                        ],
                        "constructorArguments": "",
                        "name": "ownerOf",
                        "returnParams": [
                            {
                                "name": "",
                                "type": "address",
                                "value": "0xfd186097b50370f400d0b428b9d5ff30b445a1ad"
                            }
                        ],
                        "signature": "ownerOf(uint256)"
                    },
                    "errorInfo": "",
                    "fromAddress": "0x97275a3a1237b1b63ce089daffffc7ddf6a5c262",
                    "gasUsed": 7119,
                    "id": 2,
                    "methodDecoded": true,
                    "operation": "STATICCALL",
                    "output": "0x000000000000000000000000fd186097b50370f400d0b428b9d5ff30b445a1ad",
                    "revert": false,
                    "revertMessage": "",
                    "selector": "0x6352211e",
                    "status": true,
                    "value": "0"
                },
                "nodeType": 0
            },
            "3": {
                "invocation": {
                    "address": "0x97275a3a1237b1b63ce089daffffc7ddf6a5c262",
                    "callData": "0x000000000000000000000000000000000000000000000000000000000000117c",
                    "decodedMethod": {
                        "callParams": [
                            {
                                "name": "_membershipId",
                                "type": "uint256",
                                "value": "4,476"
                            }
                        ],
                        "constructorArguments": "",
                        "name": "isGoldToken",
                        "returnParams": [
                            {
                                "name": "",
                                "type": "bool",
                                "value": false
                            }
                        ],
                        "signature": "isGoldToken(uint256)"
                    },
                    "errorInfo": "",
                    "fromAddress": "0xbbfb6e466f376e493da35b5665dbfc19f7204231",
                    "gasUsed": 4162,
                    "id": 3,
                    "methodDecoded": true,
                    "operation": "STATICCALL",
                    "output": "0x0000000000000000000000000000000000000000000000000000000000000000",
                    "revert": false,
                    "revertMessage": "",
                    "selector": "0xf4ed4d15",
                    "status": true,
                    "value": "0"
                },
                "nodeType": 0
            },
            "4": {
                "invocation": {
                    "address": "0x1ca39c7f0f65b4da24b094a9afac7acf626b7f38",
                    "callData": "0x000000000000000000000000000000000000000000000000000000000000117c",
                    "decodedMethod": {
                        "callParams": [
                            {
                                "name": "_tokenId",
                                "type": "uint256",
                                "value": "4,476"
                            }
                        ],
                        "constructorArguments": "",
                        "name": "isGoldToken",
                        "returnParams": [
                            {
                                "name": "",
                                "type": "bool",
                                "value": false
                            }
                        ],
                        "signature": "isGoldToken(uint256)"
                    },
                    "errorInfo": "",
                    "fromAddress": "0x97275a3a1237b1b63ce089daffffc7ddf6a5c262",
                    "gasUsed": 2550,
                    "id": 4,
                    "methodDecoded": true,
                    "operation": "STATICCALL",
                    "output": "0x0000000000000000000000000000000000000000000000000000000000000000",
                    "revert": false,
                    "revertMessage": "",
                    "selector": "0xf4ed4d15",
                    "status": true,
                    "value": "0"
                },
                "nodeType": 0
            },
            "5": {
                "invocation": {
                    "address": "0x97275a3a1237b1b63ce089daffffc7ddf6a5c262",
                    "callData": "0x000000000000000000000000000000000000000000000000000000000000117c",
                    "decodedMethod": {
                        "callParams": [
                            {
                                "name": "_membershipId",
                                "type": "uint256",
                                "value": "4,476"
                            }
                        ],
                        "constructorArguments": "",
                        "name": "getMaxMintForMembership",
                        "returnParams": [
                            {
                                "name": "",
                                "type": "uint256",
                                "value": "1"
                            }
                        ],
                        "signature": "getMaxMintForMembership(uint256)"
                    },
                    "errorInfo": "",
                    "fromAddress": "0xbbfb6e466f376e493da35b5665dbfc19f7204231",
                    "gasUsed": 4308,
                    "id": 5,
                    "methodDecoded": true,
                    "operation": "STATICCALL",
                    "output": "0x0000000000000000000000000000000000000000000000000000000000000001",
                    "revert": false,
                    "revertMessage": "",
                    "selector": "0xf8c6c1c8",
                    "status": true,
                    "value": "0"
                },
                "nodeType": 0
            },
            "6": {
                "invocation": {
                    "address": "0x1ca39c7f0f65b4da24b094a9afac7acf626b7f38",
                    "callData": "0x000000000000000000000000000000000000000000000000000000000000117c",
                    "decodedMethod": {
                        "callParams": [
                            {
                                "name": "tokenId",
                                "type": "uint256",
                                "value": "4,476"
                            }
                        ],
                        "constructorArguments": "",
                        "name": "ownerOf",
                        "returnParams": [
                            {
                                "name": "",
                                "type": "address",
                                "value": "0xfd186097b50370f400d0b428b9d5ff30b445a1ad"
                            }
                        ],
                        "signature": "ownerOf(uint256)"
                    },
                    "errorInfo": "",
                    "fromAddress": "0x97275a3a1237b1b63ce089daffffc7ddf6a5c262",
                    "gasUsed": 1119,
                    "id": 6,
                    "methodDecoded": true,
                    "operation": "STATICCALL",
                    "output": "0x000000000000000000000000fd186097b50370f400d0b428b9d5ff30b445a1ad",
                    "revert": false,
                    "revertMessage": "",
                    "selector": "0x6352211e",
                    "status": true,
                    "value": "0"
                },
                "nodeType": 0
            },
            "7": {
                "invocation": {
                    "address": "0x1ca39c7f0f65b4da24b094a9afac7acf626b7f38",
                    "callData": "0x000000000000000000000000000000000000000000000000000000000000117c",
                    "decodedMethod": {
                        "callParams": [
                            {
                                "name": "_tokenId",
                                "type": "uint256",
                                "value": "4,476"
                            }
                        ],
                        "constructorArguments": "",
                        "name": "isGoldToken",
                        "returnParams": [
                            {
                                "name": "",
                                "type": "bool",
                                "value": false
                            }
                        ],
                        "signature": "isGoldToken(uint256)"
                    },
                    "errorInfo": "",
                    "fromAddress": "0x97275a3a1237b1b63ce089daffffc7ddf6a5c262",
                    "gasUsed": 550,
                    "id": 7,
                    "methodDecoded": true,
                    "operation": "STATICCALL",
                    "output": "0x0000000000000000000000000000000000000000000000000000000000000000",
                    "revert": false,
                    "revertMessage": "",
                    "selector": "0xf4ed4d15",
                    "status": true,
                    "value": "0"
                },
                "nodeType": 0
            },
            "8": {
                "event": {
                    "contract": "0xbbfb6e466f376e493da35b5665dbfc19f7204231",
                    "decodedLog": {
                        "name": "Transfer",
                        "params": [
                            {
                                "name": "from",
                                "type": "address",
                                "value": "0x0000000000000000000000000000000000000000"
                            },
                            {
                                "name": "to",
                                "type": "address",
                                "value": "0xfd186097b50370f400d0b428b9d5ff30b445a1ad"
                            },
                            {
                                "decimalAvailable": true,
                                "name": "tokenId",
                                "type": "uint256",
                                "value": "203,414"
                            }
                        ],
                        "signature": "Transfer(address,address,uint256)"
                    },
                    "id": 8,
                    "logData": "0x",
                    "logDecoded": true,
                    "operation": "EVENT",
                    "revert": false,
                    "status": true,
                    "topics": [
                        "0xddf252ad1be2c89b69c2b068fc378daa952ba7f163c4a11628f55a4df523b3ef",
                        "0x0000000000000000000000000000000000000000000000000000000000000000",
                        "0x000000000000000000000000fd186097b50370f400d0b428b9d5ff30b445a1ad",
                        "0x0000000000000000000000000000000000000000000000000000000000031a96"
                    ]
                },
                "nodeType": 1
            },
            "9": {
                "event": {
                    "contract": "0xbbfb6e466f376e493da35b5665dbfc19f7204231",
                    "decodedLog": {
                        "name": "Mint",
                        "params": [
                            {
                                "name": "to",
                                "type": "address",
                                "value": "0xfd186097b50370f400d0b428b9d5ff30b445a1ad"
                            },
                            {
                                "name": "collectionId",
                                "type": "uint256",
                                "value": "2"
                            },
                            {
                                "name": "tokenId",
                                "type": "uint256",
                                "value": "203,414"
                            },
                            {
                                "name": "hash",
                                "type": "bytes32",
                                "value": "0x2148d21518feaeef0be2f05e6118e789b783b99c8b37d51b13dbb5155d362691"
                            }
                        ],
                        "signature": "Mint(address,uint256,uint256,bytes32)"
                    },
                    "id": 9,
                    "logData": "0x000000000000000000000000fd186097b50370f400d0b428b9d5ff30b445a1ad00000000000000000000000000000000000000000000000000000000000000020000000000000000000000000000000000000000000000000000000000031a962148d21518feaeef0be2f05e6118e789b783b99c8b37d51b13dbb5155d362691",
                    "logDecoded": true,
                    "operation": "EVENT",
                    "revert": false,
                    "status": true,
                    "topics": [
                        "0xcf6fbb9dcea7d07263ab4f5c3a92f53af33dffc421d9d121e1c74b307e68189d"
                    ]
                },
                "nodeType": 1
            }
        },
        "gasFlame": [
            {
                "children": [
                    {
                        "children": [
                            {
                                "children": [],
                                "depth": 0,
                                "name": "Initial Gas",
                                "value": 21712
                            },
                            {
                                "children": [
                                    {
                                        "children": [
                                            {
                                                "children": [],
                                                "depth": 2,
                                                "name": "ownerOf",
                                                "value": 7119
                                            }
                                        ],
                                        "depth": 1,
                                        "name": "ownerOf",
                                        "value": 13296
                                    },
                                    {
                                        "children": [
                                            {
                                                "children": [],
                                                "depth": 2,
                                                "name": "isGoldToken",
                                                "value": 2550
                                            }
                                        ],
                                        "depth": 1,
                                        "name": "isGoldToken",
                                        "value": 4162
                                    },
                                    {
                                        "children": [
                                            {
                                                "children": [],
                                                "depth": 2,
                                                "name": "ownerOf",
                                                "value": 1119
                                            },
                                            {
                                                "children": [],
                                                "depth": 2,
                                                "name": "isGoldToken",
                                                "value": 550
                                            }
                                        ],
                                        "depth": 1,
                                        "name": "getMaxMintForMembership",
                                        "value": 4308
                                    },
                                    {
                                        "children": [],
                                        "depth": 1,
                                        "name": "fallback",
                                        "value": 0
                                    }
                                ],
                                "depth": 0,
                                "name": "Executed Gas",
                                "value": 249052
                            }
                        ],
                        "depth": -1,
                        "name": "Actual Gas Used",
                        "value": 270764
                    },
                    {
                        "children": [],
                        "depth": -1,
                        "name": "Refunded Gas",
                        "value": 0
                    }
                ],
                "depth": -2,
                "name": "Total Gas",
                "value": 270764
            }
        ],
        "isConfirmed": true,
        "mainTrace": [
            {
                "children": [
                    {
                        "children": [
                            {
                                "children": [
                                    {
                                        "children": [],
                                        "depth": 2,
                                        "id": 2,
                                        "order": 2
                                    }
                                ],
                                "depth": 1,
                                "id": 1,
                                "order": 1
                            },
                            {
                                "children": [
                                    {
                                        "children": [],
                                        "depth": 2,
                                        "id": 4,
                                        "order": 4
                                    }
                                ],
                                "depth": 1,
                                "id": 3,
                                "order": 3
                            },
                            {
                                "children": [
                                    {
                                        "children": [],
                                        "depth": 2,
                                        "id": 6,
                                        "order": 6
                                    },
                                    {
                                        "children": [],
                                        "depth": 2,
                                        "id": 7,
                                        "order": 7
                                    }
                                ],
                                "depth": 1,
                                "id": 5,
                                "order": 5
                            },
                            {
                                "children": [],
                                "depth": 1,
                                "id": 8,
                                "order": 8
                            },
                            {
                                "children": [],
                                "depth": 1,
                                "id": 9,
                                "order": 9
                            },
                            {
                                "children": [],
                                "depth": 1,
                                "id": 10,
                                "order": 10
                            }
                        ],
                        "depth": 0,
                        "id": 0,
                        "order": 0
                    }
                ],
                "depth": -1,
                "id": -1,
                "order": -1
            }
        ],
        "mainTraceNodeCount": 11,
        "parentIdMap": {
            "0": -1,
            "1": 0,
            "10": 0,
            "2": 1,
            "3": 0,
            "4": 3,
            "5": 0,
            "6": 5,
            "7": 5,
            "8": 0,
            "9": 0
        },
        "tidyTrace": [
            {
                "children": [
                    {
                        "children": [
                            {
                                "children": [],
                                "depth": 1,
                                "id": 8,
                                "order": 8
                            },
                            {
                                "children": [],
                                "depth": 1,
                                "id": 9,
                                "order": 9
                            },
                            {
                                "children": [],
                                "depth": 1,
                                "id": 10,
                                "order": 10
                            }
                        ],
                        "depth": 0,
                        "id": 0,
                        "order": 0
                    }
                ],
                "depth": -1,
                "id": -1,
                "order": -1
            }
        ],
        "tidyTraceNodeCount": 4
    },
    "state_change": {
        "stateChanges": [
            {
                "address": "0xbbfb6e466f376e493da35b5665dbfc19f7204231",
                "erc": "ERC-721",
                "slots": [
                    {
                        "current": "0x0000000000000000000000000000000000000000000000000000000000001d75",
                        "key": "0x6b26f55cb799ebd7641de1d305708c95d8b2afd054003f612c574251880eea79",
                        "prev": "0x0000000000000000000000000000000000000000000000000000000000000000"
                    },
                    {
                        "current": "0x0000000000000000000000000000000000000000000000000000000000031a96",
                        "key": "0x7d7cc5745269a75b6f1a4c9de46cdaaad819a3570836d7bb99e12480138ecfd7",
                        "prev": "0x0000000000000000000000000000000000000000000000000000000000000000"
                    },
                    {
                        "current": "0x0000000000000000000000000000000000000000000000000000000000000d56",
                        "key": "0xd9d16d34ffb15ba3a3d852f0d403e2ce1d691fb54de27ac87cd2f993f3ec3310",
                        "prev": "0x0000000000000000000000000000000000000000000000000000000000000d55"
                    },
                    {
                        "current": "0x0000000000000000000000000000000000000000000000000000000000001d76",
                        "key": "0x0000000000000000000000000000000000000000000000000000000000000010",
                        "prev": "0x0000000000000000000000000000000000000000000000000000000000001d75"
                    },
                    {
                        "current": "0x0000000000000000000000000000000000000000000000000000000000031a96",
                        "key": "0x1b6847dc741a1b0cd08d278845f9d819d87b734759afb55fe2de5cb82a9b03e7",
                        "prev": "0x0000000000000000000000000000000000000000000000000000000000000000"
                    },
                    {
                        "current": "0x0000000000000000000000000000000000000000000000000000000000000001",
                        "key": "0xcbb8e213e048777d46ee35b7e9fe584b808490a47e9a40a21f3044853c20b22c",
                        "prev": "0x0000000000000000000000000000000000000000000000000000000000000000"
                    },
                    {
                        "current": "0x0000000000000000000000000000000000000000000000000000000000000001",
                        "key": "0xc8e3f39b35ac377e111e61290b028b35ad1c0f6df2095b2163561f6ab2f336cd",
                        "prev": "0x0000000000000000000000000000000000000000000000000000000000000000"
                    },
                    {
                        "current": "0x0000000000000000000000000000000000000000000000000000000000000002",
                        "key": "0xdc03a07ffc2b6935250c71286bbe7f817bd84cc24bbc4b60ecc2bb8244b1d055",
                        "prev": "0x0000000000000000000000000000000000000000000000000000000000000000"
                    },
                    {
                        "current": "0x000000000000000000000000fd186097b50370f400d0b428b9d5ff30b445a1ad",
                        "key": "0x5f074456d969f3ee156d775143676c7bc1d13673bccaad943df5b8ce32b09411",
                        "prev": "0x0000000000000000000000000000000000000000000000000000000000000000"
                    },
                    {
                        "current": "0x2148d21518feaeef0be2f05e6118e789b783b99c8b37d51b13dbb5155d362691",
                        "key": "0x9c966e839ce6cd72711d505a0accc0f4839f84a6a570a7f9f2b33f191d3ee08a",
                        "prev": "0x0000000000000000000000000000000000000000000000000000000000000000"
                    },
                    {
                        "current": "0x0000000000000000000000000000000000000000000000000000000000000002",
                        "key": "0xa90606a0c8e42b5b0facec3392bebbbd94d31119da39317aff9ce284f2ca9ca3",
                        "prev": "0x0000000000000000000000000000000000000000000000000000000000000001"
                    }
                ],
                "storageVariables": [
                    {
                        "name": "_ownedTokens",
                        "type": "mapping(address => mapping(uint256 => uint256))",
                        "value": {
                            "pairs": [
                                {
                                    "key": "0xfd186097b50370f400d0b428b9d5ff30b445a1ad",
                                    "value": {
                                        "pairs": [
                                            {
                                                "key": "1",
                                                "value": {
                                                    "current": "203414",
                                                    "prev": "0",
                                                    "typeTag": 1
                                                }
                                            }
                                        ],
                                        "typeTag": 4
                                    }
                                }
                            ],
                            "typeTag": 4
                        }
                    },
                    {
                        "name": "_allTokens",
                        "type": "uint256[]",
                        "value": {
                            "elemType": "uint256",
                            "elems": [
                                {
                                    "index": 7541,
                                    "value": {
                                        "current": "203414",
                                        "prev": "0",
                                        "typeTag": 1
                                    }
                                }
                            ],
                            "typeTag": 2
                        }
                    },
                    {
                        "name": "_allTokensIndex",
                        "type": "mapping(uint256 => uint256)",
                        "value": {
                            "pairs": [
                                {
                                    "key": "203414",
                                    "value": {
                                        "current": "7541",
                                        "prev": "0",
                                        "typeTag": 1
                                    }
                                }
                            ],
                            "typeTag": 4
                        }
                    },
                    {
                        "name": "_collectionsMintMap",
                        "type": "mapping(uint256 => mapping(uint256 => uint256))",
                        "value": {
                            "pairs": [
                                {
                                    "key": "2",
                                    "value": {
                                        "pairs": [
                                            {
                                                "key": "4476",
                                                "value": {
                                                    "current": "1",
                                                    "prev": "0",
                                                    "typeTag": 1
                                                }
                                            }
                                        ],
                                        "typeTag": 4
                                    }
                                }
                            ],
                            "typeTag": 4
                        }
                    },
                    {
                        "name": "_tokenIdToCollectionIdMap",
                        "type": "mapping(uint256 => uint256)",
                        "value": {
                            "pairs": [
                                {
                                    "key": "203414",
                                    "value": {
                                        "current": "2",
                                        "prev": "0",
                                        "typeTag": 1
                                    }
                                }
                            ],
                            "typeTag": 4
                        }
                    },
                    {
                        "name": "_ownedTokensIndex",
                        "type": "mapping(uint256 => uint256)",
                        "value": {
                            "pairs": [
                                {
                                    "key": "203414",
                                    "value": {
                                        "current": "1",
                                        "prev": "0",
                                        "typeTag": 1
                                    }
                                }
                            ],
                            "typeTag": 4
                        }
                    },
                    {
                        "name": "_tokenIdToHashMap",
                        "type": "mapping(uint256 => bytes32)",
                        "value": {
                            "pairs": [
                                {
                                    "key": "203414",
                                    "value": {
                                        "current": "0x2148d21518feaeef0be2f05e6118e789b783b99c8b37d51b13dbb5155d362691",
                                        "prev": "0x0000000000000000000000000000000000000000000000000000000000000000",
                                        "typeTag": 1
                                    }
                                }
                            ],
                            "typeTag": 4
                        }
                    },
                    {
                        "name": "_balances",
                        "type": "mapping(address => uint256)",
                        "value": {
                            "pairs": [
                                {
                                    "key": "0xfd186097b50370f400d0b428b9d5ff30b445a1ad",
                                    "value": {
                                        "current": "2",
                                        "prev": "1",
                                        "typeTag": 1
                                    }
                                }
                            ],
                            "typeTag": 4
                        }
                    },
                    {
                        "name": "_owners",
                        "type": "mapping(uint256 => address)",
                        "value": {
                            "pairs": [
                                {
                                    "key": "203414",
                                    "value": {
                                        "current": "0xfd186097b50370f400d0b428b9d5ff30b445a1ad",
                                        "prev": "0x0000000000000000000000000000000000000000",
                                        "typeTag": 1
                                    }
                                }
                            ],
                            "typeTag": 4
                        }
                    },
                    {
                        "name": "_collectionsMap",
                        "type": "mapping(uint256 => struct GenArtCollection.Collection)",
                        "value": {
                            "pairs": [
                                {
                                    "key": "2",
                                    "value": {
                                        "fields": [
                                            {
                                                "name": "invocations",
                                                "type": "uint256",
                                                "value": {
                                                    "current": "3414",
                                                    "prev": "3413",
                                                    "typeTag": 1
                                                }
                                            },
                                            {
                                                "name": "script",
                                                "type": "string",
                                                "value": {
                                                    "current": "<html> <head> <meta name=\"viewport\" content=\"width=device-width\"> <title>Caesium</title> <style>body{background-color: black;}body{margin:0}</style> <script language=\"javascript\" type=\"text/javascript\" src=\"https://cdn.jsdelivr.net/npm/p5@1.3.1/lib/p5.js\"></script> </head> <body> <div id=\"c\"></div><script lang=\"javascript\">var scr=0,targ_scr=0,inv=!1,w=Math.min(innerHeight,innerWidth),k=w/200;const hashCode=r=>r.split(\"\").reduce((r,e)=>(r=(r<<5)-r+e.charCodeAt(0))&r,0);function rnd_between(e,t){return r()*(t-e)+e}function hslToRgb(r,e,t){var a,n,i;if(0==e)a=n=i=t;else{var h=function(r,e,t){return t<0&&(t+=1),t>1&&(t-=1),t<1/6?r+6*(e-r)*t:t<.5?e:t<2/3?r+(e-r)*(2/3-t)*6:r},l=t<.5?t*(1+e):t+e-t*e,k=2*t-l;a=h(k,l,r+1/3),n=h(k,l,r),i=h(k,l,r-1/3)}return[Math.round(255*a),Math.round(255*n),Math.round(255*i)]}function rgbToHsl(r,e,t){r/=255,e/=255,t/=255;var a,n,i=Math.max(r,e,t),h=Math.min(r,e,t),l=(i+h)/2;if(i==h)a=n=0;else{var k=i-h;switch(n=l>.5?k/(2-i-h):k/(i+h),i){case r:a=(e-t)/k+(e<t?6:0);break;case e:a=(t-r)/k+2;break;case t:a=(r-e)/k+4}a/=6}return[a,n,l]}function invertRGB(r,e,t){return[255-r,255-e,255-t]}class RectSpiral{constructor(e,t,a,n,i,h,l,k,s,c,M,o,I,w,P,u,d,g,p,y){this.rend=e,this.center={x:t,y:a},this.rectangleMode=i,this.rectCount=n,this.start={rev:h,rot:l,w:k,h:s,radius:c,hue:0},this.end={rev:o,rot:I,w:w,h:P,radius:u,hue:1},this.inc=g,this.c=0,this.spinDir=r()<.5?-1:1,this.spinDir*=.005*(r()+1),this.greyscale=p,this.wire=y}draw(r,e,t,a){this.c+=this.inc,this.rend.push(),this.rend.colorMode(this.rend.HSL,1),this.rend.rectMode(this.rectangleMode),this.rend.noStroke(),this.rend.translate(this.center.x*this.rend.width,this.center.y*this.rend.height);var n=(this.end.rev-this.start.rev)/this.rectCount*r,i=(Math.abs(this.start.w)+Math.abs(this.end.w))/2,h=(Math.abs(this.start.h)+Math.abs(this.end.h))/2,l=(i-h)/(i+h),k=Math.sign(l),s=l>.6,c=s?0:-1;this.rend.rotate(this.start.rev+this.c*this.spinDir/3);for(var M=0;M<=1;M+=1/this.rectCount){var o=this.rend.lerp(this.start.radius,this.end.radius,M)*this.rend.width,I=this.rend.map(M*e,0,1,this.start.rot,this.end.rot,!1),w=this.rend.lerp(this.start.w,this.end.w,M)*t*(1+.5*scr*(c+(s?k<0?3:-1:0))),P=this.rend.lerp(this.start.h,this.end.h,M)*a*(1+.5*scr*(c+(s?k>0?3:-1:0))),u=(this.rend.lerp(this.start.hue,this.end.hue,M)+this.c/300)%1;this.rend.push(),this.rend.translate(0,o),this.rend.rotate(I),this.wire?(this.rend.noFill(),this.greyscale?this.rend.stroke(0,0,inv?1-u:u):this.rend.stroke(inv?rgbToHsl(...invertRGB(...hslToRgb(...[u,1,.5]))):[u,1,.5])):this.greyscale?this.rend.fill(0,0,inv?1-u:u):this.rend.fill(inv?rgbToHsl(...invertRGB(...hslToRgb(...[u,1,.5]))):[u,1,.5]),this.rend.rect(0,0,w,P),this.rend.pop(),this.rend.rotate(n)}this.rend.pop()}}function toNum(r){return parseInt(r,16).toString().split(\"\").map(r=>parseInt(isNaN(r)?0:r)).reduce((r,e)=>r+e)}function getID(){for(var r=Array(theme_rarities.length).fill(theme_rarities).map((r,e)=>r.slice(0,e+1)).map(r=>r.reduce((r,e)=>r+e)),e=0;e<r.length;e++){var t=null!=r[e-1]?r[e-1]:0,a=null!=r[e]?r[e]:1;if(mod1>t&&mod1<a)return e}}const LCG=r=>()=>(2**31-1&(r=Math.imul(48271,r)))/2**31,r=LCG(hashCode(hash)),grey=r()<.01,wireF=r()<.01,mod1=r(),mod2=r(),mod3=r(),mod4=.6+.3*r(),mod5=.6+.3*r(),themes=[[new RectSpiral(null,.5,.5,130,\"center\",0,Math.PI/2,25*k,.25*k,.1,.86,-Math.PI,Math.PI/2,-100*k,.25*k,1/3,r(),r(),grey,wireF),new RectSpiral(null,.5,.5,75,\"center\",Math.PI/4,0,1*k,1*k,.1*.7,.86,-1.3*Math.PI*.75*.75,1*Math.PI,50*k,42*k,.4,r(),r(),grey,wireF),new RectSpiral(null,.5,.5,60,\"corner\",Math.PI/2,0,20*k,.25*k,1/7,.86,1.75*Math.PI,1*Math.PI,100*k,2*k,1/3,r(),r(),grey,wireF)],[new RectSpiral(null,.5,.5,17,\"center\",0,Math.PI/2,20*k,15*k,1/14,.93,-2.3*Math.PI*.75,2*Math.PI,40*k,30*k,.5,r()-.5,r(),grey,!0),new RectSpiral(null,.5,.5,60,\"center\",0,0,1*k,1*k,1/15,.93+.5,-1.3*Math.PI*.75*1.5,-1.1*Math.PI,44*k,38*k,1/2.4,r(),r(),grey,wireF),new RectSpiral(null,.5,.5,130,\"center\",0,0,4*k,4*k,1/7,.93+.5,-1.3*Math.PI*.75,2*Math.PI,4*k,4*k,.4,r(),r(),grey,wireF),new RectSpiral(null,.5,.5,130,\"center\",0,0,150*k,.5*k,1/3,.86,-Math.PI/2,-Math.PI/2,-150*k,.5*k,.4,r(),r(),grey,wireF),new RectSpiral(null,.5,.5,130,\"corner\",0,0,150*k,.5*k,1/30,.86,Math.PI/2,0,0*k,.5*k,1/30,r(),r(),grey,wireF)],[new RectSpiral(null,.5,.5,130,\"center\",0,0,25*k,25*k,.25,.86,2*-Math.PI,-Math.PI/2,-25*k,1*k,1/15,.93+1,r(),grey,wireF),new RectSpiral(null,.5,.5,100,\"center\",-Math.PI,Math.PI/2,1*k,1*k,.1,.93+.5,1*Math.PI*.75,1*Math.PI,70*k,.5*k,.4,.93+1,r(),grey,wireF),new RectSpiral(null,.5,.5,20,\"center\",0,0,1*k,1*k,0,.93+.5,-1.3*Math.PI*.75,1.25*Math.PI,50*k,40*k,.4,.93+1,r(),grey,wireF),new RectSpiral(null,.5,.5,130,\"center\",0,0,50*k,1*k,1/3,.86,-Math.PI/2,-Math.PI/2,-50*k,1*k,.4,.93+1,r(),grey,wireF),new RectSpiral(null,.5,.5,45,\"center\",0,0,50*k,1*k,0,.86,-Math.PI/2,-Math.PI/2,25*k,1*k,0,.93+1,r(),grey,wireF)],[new RectSpiral(null,.5,.5,80,\"center\",0,0,100*k,100*k,.2,.93,-Math.PI,-Math.PI/2,100*k,1*k,.1,1.03,r(),grey,!0),new RectSpiral(null,.5,.5,130,\"corner\",-Math.PI,0,60*k,35*k,1/14,.93+.5,1*Math.PI*.75,1*Math.PI,1*k,1*k,.5,.93+1,r(),grey,wireF),new RectSpiral(null,.5,.5,80,\"center\",0,0,100*k,1*k,1/3,.93,-Math.PI,-Math.PI/2,100*k,.25*k,1/8,1.03,r(),grey,wireF)],[new RectSpiral(null,.5,.5,140,\"corner\",Math.PI/2,0,1*k,1*k,.04,.86,1.75*Math.PI,1*Math.PI,80*k,40*k,.2,r(),r(),grey,wireF),new RectSpiral(null,.5,.5,80,\"center\",0,0,100*k,1*k,1/3,.93,-Math.PI,-Math.PI/2,100*k,1*k,1/8,1.03,r(),grey,wireF),new RectSpiral(null,.5,.5,130,\"center\",0,0,20*k,18*k,.1,.86,-1.3*Math.PI*.75,1*Math.PI,40*k,.25*k,.4,r(),r(),grey,!0)],[new RectSpiral(null,.5,.5,90,\"center\",0,0,2*k,1*k,0,.93-.5,-1.3*Math.PI*.75*2,1*Math.PI,30*k,25*k,.2,.93,r(),grey,wireF),new RectSpiral(null,.5,.5,35,\"center\",-Math.PI,0,2*k,1.5*k,0,.93-.5,1*Math.PI*.75,1*Math.PI,60*k,5*k,.4,.93,r(),grey,!0),new RectSpiral(null,.5,.5,130,\"center\",Math.PI,0,200*k,.25*k,.25,.86,Math.PI/2,-Math.PI/2,-200*k,.25*k,1/3,r(),r(),grey,wireF),new RectSpiral(null,.5,.5,35,\"center\",0,0,150*k,2*k,.25,.86,Math.PI/2,Math.PI/2,-150*k,2*k,1/3,r(),r(),grey,wireF)],[new RectSpiral(null,.5,.5,70,\"center\",0,0,200*k,.35*k,.05,.93+.5,-1.3*Math.PI*.75*Math.PI/2,Math.PI/2,-200*k,.35*k,.04,r(),r(),grey,wireF),new RectSpiral(null,.5,.5,70,\"center\",0,Math.PI/2,100*k,2*k,1/3,.86,2*-Math.PI,Math.PI/2,-100*k,2*k,.4,r(),r(),grey,wireF),new RectSpiral(null,.5,.5,10,\"center\",0,0,5*k,5*k,.2,.86,-Math.PI/2,-Math.PI/2,5*k,5*k,.2,.93+1,r()),new RectSpiral(null,.5,.5,90,\"center\",Math.PI/2,0,2*k,2*k,1/15,.86,3*Math.PI,0,25*k,20*k,1/3,.93+1,r()),new RectSpiral(null,.5,.5,130,\"center\",0,0,50*k,1*k,1/3,.86,-Math.PI/2,-Math.PI/2,-50*k,1*k,.4,.93+1,r())],[new RectSpiral(null,.5,.5,18,\"center\",0,0,50*k,50*k,.3,.86,2,0,10*k,10*k,.3,r(),r(),grey,wireF),new RectSpiral(null,.5,.5,50,\"center\",0,0,150*k,.5*k,.17,.86,Math.PI/2,0,250*k,.5*k,.17,r(),r(),grey,wireF),new RectSpiral(null,.5,.5,22,\"center\",Math.PI/2,0,50*k,50*k,1/3,.86,2+Math.PI/2,0,10*k,10*k,1/3,r(),r(),grey,!0),new RectSpiral(null,.5,.5,200,\"corner\",Math.PI/2,-Math.PI/2,80*k,10*k,0,.86,1.75*Math.PI*2,3*Math.PI/2,1*k,1*k,.4,r(),r(),grey,wireF),new RectSpiral(null,.5,.5,98,\"corner\",Math.PI/2,-Math.PI/2,90*k,.25*k,0,.86,1.75*Math.PI*2,3*Math.PI/2,0*k,.25*k,0,r(),r(),grey,wireF)],[new RectSpiral(null,.5,.5,60,\"center\",0,0,10*k,10*k,1/3,.86,2*-Math.PI,-Math.PI/2,20*k,20*k,1/15,r(),r(),grey,wireF),new RectSpiral(null,.5,.5,80,\"center\",0,Math.PI/2,250*k,.25*k,.04,.86,-Math.PI/3,Math.PI/2,-35*k,.25*k,1/15,r(),r(),grey,wireF),new RectSpiral(null,.5,.5,60,\"center\",0,0,100*k,1*k,1/3,.86,-Math.PI,-Math.PI/2,50*k,1*k,.2,r(),r(),grey,wireF)],[new RectSpiral(null,.5,.5,130,\"center\",0,Math.PI/2,100*k,2*k,1/3*.8,.86,-Math.PI,2*Math.PI,-100*k,6*k,1/2.2*.8,r(),r(),grey,wireF),new RectSpiral(null,.5,.5,130,\"center\",0,0,2*k,1*k,.1,.86,-1.3*Math.PI*.75,3*Math.PI,50*k,.25*k,.4,r(),r(),grey,wireF),new RectSpiral(null,.5,.5,160,\"center\",0,Math.PI/2,170*k,.25*k,.2,.86,-Math.PI/3,-Math.PI/2,-70*k,.25*k,.04,r(),r(),grey,wireF)],[new RectSpiral(null,.5,.5,160,\"corner\",0,0,10*k,10*k,.04,.86,1.6*-Math.PI,0,150*k,150*k,.04,r(),r(),grey,!0)],[new RectSpiral(null,.5,.5,80,\"center\",0,Math.PI/2,250*k,.25*k,.04,.86,-Math.PI/3,Math.PI/2,-35*k,.25*k,1/15,r(),r(),grey,wireF)],[new RectSpiral(null,.5,.5,50,\"center\",0,0,200*k,.5*k,.12,.86,Math.PI/2,0,250*k,.5*k,.12,r(),r(),grey,wireF)],[new RectSpiral(null,.5,.5,400,\"corner\",Math.PI/2,-Math.PI/2,100*k,.2*k,.4,.86,1.75*Math.PI*1.5,1*Math.PI/2,1*k,.2*k,0,r(),r(),grey,wireF)],[new RectSpiral(null,.5,.5,50,\"center\",0,0,200*k,.5*k,.2*.4,.86,Math.PI/2,0,-50*k,.5*k,.2*.4,r(),r(),grey,wireF),new RectSpiral(null,.5,.5,130,\"center\",0,Math.PI/2,100*k,.2*k,1/3*.8,.86,-Math.PI,2*Math.PI,-100*k,.6*k,1/2.2*.8,r(),.8,grey,wireF)]],theme_rarities=[.08,.08,.08,.08,.08,.08,.08,.08,.08,.08,.04,.04,.04,.04,.04],theme_names=[\"Vertex\",\"Axiom\",\"Chord\",\"Matrix\",\"Rhombus\",\"Octagon\",\"Hexagon\",\"Trapezoid\",\"Quadrilateral\",\"Postulate\",\"Intergral\",\"Tangent\",\"Derivative\",\"Tensor\",\"Manifold\"],id=getID();window.METADATA={theme:theme_names[id],greyscale:grey,total_wireframe:wireF,contains_wireframe:themes[id].map(r=>r.wire).includes(!0),contains_center_star:null!=themes[id].find(r=>r.start.radius==r.end.radius&&0==r.start.radius),revolution:Math.floor(100*mod2),twisting:Math.floor(100*mod3),width:Math.floor(100*mod4),height:Math.floor(100*mod5)};let sketch=function(r){r.setup=function(){var e=r.createCanvas(w,w);for(var t of(e.parent(\"c\"),e.elt.style.margin=\"auto\",e.elt.style.display=\"block\",themes))for(var a of t)a.rend=r},r.draw=function(){for(var e of(scr=(scr+targ_scr)/2,r.background(0+inv?255:0),r.push(),themes[id]))e&&e.draw(2*mod2+Math.PI,3*mod3,mod4+.1,mod5+.1);r.pop()},r.mouseWheel=(e=>{targ_scr-=e.delta/750,targ_scr=r.constrain(targ_scr,0,1)}),r.mouseClicked=(r=>{inv=!inv,document.getElementsByTagName(\"body\")[0].style.background=inv?\"#fff\":\"#000\"})},myp5=new p5(sketch); </script> </body> </html>",
                                                    "prev": "<html> <head> <meta name=\"viewport\" content=\"width=device-width\"> <title>Caesium</title> <style>body{background-color: black;}body{margin:0}</style> <script language=\"javascript\" type=\"text/javascript\" src=\"https://cdn.jsdelivr.net/npm/p5@1.3.1/lib/p5.js\"></script> </head> <body> <div id=\"c\"></div><script lang=\"javascript\">var scr=0,targ_scr=0,inv=!1,w=Math.min(innerHeight,innerWidth),k=w/200;const hashCode=r=>r.split(\"\").reduce((r,e)=>(r=(r<<5)-r+e.charCodeAt(0))&r,0);function rnd_between(e,t){return r()*(t-e)+e}function hslToRgb(r,e,t){var a,n,i;if(0==e)a=n=i=t;else{var h=function(r,e,t){return t<0&&(t+=1),t>1&&(t-=1),t<1/6?r+6*(e-r)*t:t<.5?e:t<2/3?r+(e-r)*(2/3-t)*6:r},l=t<.5?t*(1+e):t+e-t*e,k=2*t-l;a=h(k,l,r+1/3),n=h(k,l,r),i=h(k,l,r-1/3)}return[Math.round(255*a),Math.round(255*n),Math.round(255*i)]}function rgbToHsl(r,e,t){r/=255,e/=255,t/=255;var a,n,i=Math.max(r,e,t),h=Math.min(r,e,t),l=(i+h)/2;if(i==h)a=n=0;else{var k=i-h;switch(n=l>.5?k/(2-i-h):k/(i+h),i){case r:a=(e-t)/k+(e<t?6:0);break;case e:a=(t-r)/k+2;break;case t:a=(r-e)/k+4}a/=6}return[a,n,l]}function invertRGB(r,e,t){return[255-r,255-e,255-t]}class RectSpiral{constructor(e,t,a,n,i,h,l,k,s,c,M,o,I,w,P,u,d,g,p,y){this.rend=e,this.center={x:t,y:a},this.rectangleMode=i,this.rectCount=n,this.start={rev:h,rot:l,w:k,h:s,radius:c,hue:0},this.end={rev:o,rot:I,w:w,h:P,radius:u,hue:1},this.inc=g,this.c=0,this.spinDir=r()<.5?-1:1,this.spinDir*=.005*(r()+1),this.greyscale=p,this.wire=y}draw(r,e,t,a){this.c+=this.inc,this.rend.push(),this.rend.colorMode(this.rend.HSL,1),this.rend.rectMode(this.rectangleMode),this.rend.noStroke(),this.rend.translate(this.center.x*this.rend.width,this.center.y*this.rend.height);var n=(this.end.rev-this.start.rev)/this.rectCount*r,i=(Math.abs(this.start.w)+Math.abs(this.end.w))/2,h=(Math.abs(this.start.h)+Math.abs(this.end.h))/2,l=(i-h)/(i+h),k=Math.sign(l),s=l>.6,c=s?0:-1;this.rend.rotate(this.start.rev+this.c*this.spinDir/3);for(var M=0;M<=1;M+=1/this.rectCount){var o=this.rend.lerp(this.start.radius,this.end.radius,M)*this.rend.width,I=this.rend.map(M*e,0,1,this.start.rot,this.end.rot,!1),w=this.rend.lerp(this.start.w,this.end.w,M)*t*(1+.5*scr*(c+(s?k<0?3:-1:0))),P=this.rend.lerp(this.start.h,this.end.h,M)*a*(1+.5*scr*(c+(s?k>0?3:-1:0))),u=(this.rend.lerp(this.start.hue,this.end.hue,M)+this.c/300)%1;this.rend.push(),this.rend.translate(0,o),this.rend.rotate(I),this.wire?(this.rend.noFill(),this.greyscale?this.rend.stroke(0,0,inv?1-u:u):this.rend.stroke(inv?rgbToHsl(...invertRGB(...hslToRgb(...[u,1,.5]))):[u,1,.5])):this.greyscale?this.rend.fill(0,0,inv?1-u:u):this.rend.fill(inv?rgbToHsl(...invertRGB(...hslToRgb(...[u,1,.5]))):[u,1,.5]),this.rend.rect(0,0,w,P),this.rend.pop(),this.rend.rotate(n)}this.rend.pop()}}function toNum(r){return parseInt(r,16).toString().split(\"\").map(r=>parseInt(isNaN(r)?0:r)).reduce((r,e)=>r+e)}function getID(){for(var r=Array(theme_rarities.length).fill(theme_rarities).map((r,e)=>r.slice(0,e+1)).map(r=>r.reduce((r,e)=>r+e)),e=0;e<r.length;e++){var t=null!=r[e-1]?r[e-1]:0,a=null!=r[e]?r[e]:1;if(mod1>t&&mod1<a)return e}}const LCG=r=>()=>(2**31-1&(r=Math.imul(48271,r)))/2**31,r=LCG(hashCode(hash)),grey=r()<.01,wireF=r()<.01,mod1=r(),mod2=r(),mod3=r(),mod4=.6+.3*r(),mod5=.6+.3*r(),themes=[[new RectSpiral(null,.5,.5,130,\"center\",0,Math.PI/2,25*k,.25*k,.1,.86,-Math.PI,Math.PI/2,-100*k,.25*k,1/3,r(),r(),grey,wireF),new RectSpiral(null,.5,.5,75,\"center\",Math.PI/4,0,1*k,1*k,.1*.7,.86,-1.3*Math.PI*.75*.75,1*Math.PI,50*k,42*k,.4,r(),r(),grey,wireF),new RectSpiral(null,.5,.5,60,\"corner\",Math.PI/2,0,20*k,.25*k,1/7,.86,1.75*Math.PI,1*Math.PI,100*k,2*k,1/3,r(),r(),grey,wireF)],[new RectSpiral(null,.5,.5,17,\"center\",0,Math.PI/2,20*k,15*k,1/14,.93,-2.3*Math.PI*.75,2*Math.PI,40*k,30*k,.5,r()-.5,r(),grey,!0),new RectSpiral(null,.5,.5,60,\"center\",0,0,1*k,1*k,1/15,.93+.5,-1.3*Math.PI*.75*1.5,-1.1*Math.PI,44*k,38*k,1/2.4,r(),r(),grey,wireF),new RectSpiral(null,.5,.5,130,\"center\",0,0,4*k,4*k,1/7,.93+.5,-1.3*Math.PI*.75,2*Math.PI,4*k,4*k,.4,r(),r(),grey,wireF),new RectSpiral(null,.5,.5,130,\"center\",0,0,150*k,.5*k,1/3,.86,-Math.PI/2,-Math.PI/2,-150*k,.5*k,.4,r(),r(),grey,wireF),new RectSpiral(null,.5,.5,130,\"corner\",0,0,150*k,.5*k,1/30,.86,Math.PI/2,0,0*k,.5*k,1/30,r(),r(),grey,wireF)],[new RectSpiral(null,.5,.5,130,\"center\",0,0,25*k,25*k,.25,.86,2*-Math.PI,-Math.PI/2,-25*k,1*k,1/15,.93+1,r(),grey,wireF),new RectSpiral(null,.5,.5,100,\"center\",-Math.PI,Math.PI/2,1*k,1*k,.1,.93+.5,1*Math.PI*.75,1*Math.PI,70*k,.5*k,.4,.93+1,r(),grey,wireF),new RectSpiral(null,.5,.5,20,\"center\",0,0,1*k,1*k,0,.93+.5,-1.3*Math.PI*.75,1.25*Math.PI,50*k,40*k,.4,.93+1,r(),grey,wireF),new RectSpiral(null,.5,.5,130,\"center\",0,0,50*k,1*k,1/3,.86,-Math.PI/2,-Math.PI/2,-50*k,1*k,.4,.93+1,r(),grey,wireF),new RectSpiral(null,.5,.5,45,\"center\",0,0,50*k,1*k,0,.86,-Math.PI/2,-Math.PI/2,25*k,1*k,0,.93+1,r(),grey,wireF)],[new RectSpiral(null,.5,.5,80,\"center\",0,0,100*k,100*k,.2,.93,-Math.PI,-Math.PI/2,100*k,1*k,.1,1.03,r(),grey,!0),new RectSpiral(null,.5,.5,130,\"corner\",-Math.PI,0,60*k,35*k,1/14,.93+.5,1*Math.PI*.75,1*Math.PI,1*k,1*k,.5,.93+1,r(),grey,wireF),new RectSpiral(null,.5,.5,80,\"center\",0,0,100*k,1*k,1/3,.93,-Math.PI,-Math.PI/2,100*k,.25*k,1/8,1.03,r(),grey,wireF)],[new RectSpiral(null,.5,.5,140,\"corner\",Math.PI/2,0,1*k,1*k,.04,.86,1.75*Math.PI,1*Math.PI,80*k,40*k,.2,r(),r(),grey,wireF),new RectSpiral(null,.5,.5,80,\"center\",0,0,100*k,1*k,1/3,.93,-Math.PI,-Math.PI/2,100*k,1*k,1/8,1.03,r(),grey,wireF),new RectSpiral(null,.5,.5,130,\"center\",0,0,20*k,18*k,.1,.86,-1.3*Math.PI*.75,1*Math.PI,40*k,.25*k,.4,r(),r(),grey,!0)],[new RectSpiral(null,.5,.5,90,\"center\",0,0,2*k,1*k,0,.93-.5,-1.3*Math.PI*.75*2,1*Math.PI,30*k,25*k,.2,.93,r(),grey,wireF),new RectSpiral(null,.5,.5,35,\"center\",-Math.PI,0,2*k,1.5*k,0,.93-.5,1*Math.PI*.75,1*Math.PI,60*k,5*k,.4,.93,r(),grey,!0),new RectSpiral(null,.5,.5,130,\"center\",Math.PI,0,200*k,.25*k,.25,.86,Math.PI/2,-Math.PI/2,-200*k,.25*k,1/3,r(),r(),grey,wireF),new RectSpiral(null,.5,.5,35,\"center\",0,0,150*k,2*k,.25,.86,Math.PI/2,Math.PI/2,-150*k,2*k,1/3,r(),r(),grey,wireF)],[new RectSpiral(null,.5,.5,70,\"center\",0,0,200*k,.35*k,.05,.93+.5,-1.3*Math.PI*.75*Math.PI/2,Math.PI/2,-200*k,.35*k,.04,r(),r(),grey,wireF),new RectSpiral(null,.5,.5,70,\"center\",0,Math.PI/2,100*k,2*k,1/3,.86,2*-Math.PI,Math.PI/2,-100*k,2*k,.4,r(),r(),grey,wireF),new RectSpiral(null,.5,.5,10,\"center\",0,0,5*k,5*k,.2,.86,-Math.PI/2,-Math.PI/2,5*k,5*k,.2,.93+1,r()),new RectSpiral(null,.5,.5,90,\"center\",Math.PI/2,0,2*k,2*k,1/15,.86,3*Math.PI,0,25*k,20*k,1/3,.93+1,r()),new RectSpiral(null,.5,.5,130,\"center\",0,0,50*k,1*k,1/3,.86,-Math.PI/2,-Math.PI/2,-50*k,1*k,.4,.93+1,r())],[new RectSpiral(null,.5,.5,18,\"center\",0,0,50*k,50*k,.3,.86,2,0,10*k,10*k,.3,r(),r(),grey,wireF),new RectSpiral(null,.5,.5,50,\"center\",0,0,150*k,.5*k,.17,.86,Math.PI/2,0,250*k,.5*k,.17,r(),r(),grey,wireF),new RectSpiral(null,.5,.5,22,\"center\",Math.PI/2,0,50*k,50*k,1/3,.86,2+Math.PI/2,0,10*k,10*k,1/3,r(),r(),grey,!0),new RectSpiral(null,.5,.5,200,\"corner\",Math.PI/2,-Math.PI/2,80*k,10*k,0,.86,1.75*Math.PI*2,3*Math.PI/2,1*k,1*k,.4,r(),r(),grey,wireF),new RectSpiral(null,.5,.5,98,\"corner\",Math.PI/2,-Math.PI/2,90*k,.25*k,0,.86,1.75*Math.PI*2,3*Math.PI/2,0*k,.25*k,0,r(),r(),grey,wireF)],[new RectSpiral(null,.5,.5,60,\"center\",0,0,10*k,10*k,1/3,.86,2*-Math.PI,-Math.PI/2,20*k,20*k,1/15,r(),r(),grey,wireF),new RectSpiral(null,.5,.5,80,\"center\",0,Math.PI/2,250*k,.25*k,.04,.86,-Math.PI/3,Math.PI/2,-35*k,.25*k,1/15,r(),r(),grey,wireF),new RectSpiral(null,.5,.5,60,\"center\",0,0,100*k,1*k,1/3,.86,-Math.PI,-Math.PI/2,50*k,1*k,.2,r(),r(),grey,wireF)],[new RectSpiral(null,.5,.5,130,\"center\",0,Math.PI/2,100*k,2*k,1/3*.8,.86,-Math.PI,2*Math.PI,-100*k,6*k,1/2.2*.8,r(),r(),grey,wireF),new RectSpiral(null,.5,.5,130,\"center\",0,0,2*k,1*k,.1,.86,-1.3*Math.PI*.75,3*Math.PI,50*k,.25*k,.4,r(),r(),grey,wireF),new RectSpiral(null,.5,.5,160,\"center\",0,Math.PI/2,170*k,.25*k,.2,.86,-Math.PI/3,-Math.PI/2,-70*k,.25*k,.04,r(),r(),grey,wireF)],[new RectSpiral(null,.5,.5,160,\"corner\",0,0,10*k,10*k,.04,.86,1.6*-Math.PI,0,150*k,150*k,.04,r(),r(),grey,!0)],[new RectSpiral(null,.5,.5,80,\"center\",0,Math.PI/2,250*k,.25*k,.04,.86,-Math.PI/3,Math.PI/2,-35*k,.25*k,1/15,r(),r(),grey,wireF)],[new RectSpiral(null,.5,.5,50,\"center\",0,0,200*k,.5*k,.12,.86,Math.PI/2,0,250*k,.5*k,.12,r(),r(),grey,wireF)],[new RectSpiral(null,.5,.5,400,\"corner\",Math.PI/2,-Math.PI/2,100*k,.2*k,.4,.86,1.75*Math.PI*1.5,1*Math.PI/2,1*k,.2*k,0,r(),r(),grey,wireF)],[new RectSpiral(null,.5,.5,50,\"center\",0,0,200*k,.5*k,.2*.4,.86,Math.PI/2,0,-50*k,.5*k,.2*.4,r(),r(),grey,wireF),new RectSpiral(null,.5,.5,130,\"center\",0,Math.PI/2,100*k,.2*k,1/3*.8,.86,-Math.PI,2*Math.PI,-100*k,.6*k,1/2.2*.8,r(),.8,grey,wireF)]],theme_rarities=[.08,.08,.08,.08,.08,.08,.08,.08,.08,.08,.04,.04,.04,.04,.04],theme_names=[\"Vertex\",\"Axiom\",\"Chord\",\"Matrix\",\"Rhombus\",\"Octagon\",\"Hexagon\",\"Trapezoid\",\"Quadrilateral\",\"Postulate\",\"Intergral\",\"Tangent\",\"Derivative\",\"Tensor\",\"Manifold\"],id=getID();window.METADATA={theme:theme_names[id],greyscale:grey,total_wireframe:wireF,contains_wireframe:themes[id].map(r=>r.wire).includes(!0),contains_center_star:null!=themes[id].find(r=>r.start.radius==r.end.radius&&0==r.start.radius),revolution:Math.floor(100*mod2),twisting:Math.floor(100*mod3),width:Math.floor(100*mod4),height:Math.floor(100*mod5)};let sketch=function(r){r.setup=function(){var e=r.createCanvas(w,w);for(var t of(e.parent(\"c\"),e.elt.style.margin=\"auto\",e.elt.style.display=\"block\",themes))for(var a of t)a.rend=r},r.draw=function(){for(var e of(scr=(scr+targ_scr)/2,r.background(0+inv?255:0),r.push(),themes[id]))e&&e.draw(2*mod2+Math.PI,3*mod3,mod4+.1,mod5+.1);r.pop()},r.mouseWheel=(e=>{targ_scr-=e.delta/750,targ_scr=r.constrain(targ_scr,0,1)}),r.mouseClicked=(r=>{inv=!inv,document.getElementsByTagName(\"body\")[0].style.background=inv?\"#fff\":\"#000\"})},myp5=new p5(sketch); </script> </body> </html>",
                                                    "typeTag": 1
                                                }
                                            }
                                        ],
                                        "typeTag": 3
                                    }
                                }
                            ],
                            "typeTag": 4
                        }
                    }
                ]
            }
        ]
    }
}