{
    "balance_change": {
        "balanceChanges": [
            {
                "account": "0x15afbf5e469c378c5a259e44c47269a2de33595a",
                "assets": [
                    {
                        "address": "0x2b591e99afe9f32eaa6214f7b7629768c40eeb39",
                        "amount": "72,545.06902454",
                        "iconUrl": "https://assets.blocksec.com/icon/095f9b44449785f7c45bb63956eff8a843b6ae503f7b4576f9d9f27351808b2a.png",
                        "isERC1155": false,
                        "isERC721": false,
                        "sign": true,
                        "value": "645.8120505"
                    }
                ]
            },
            {
                "account": "0x0000000000000000000000000000000000000000",
                "assets": [
                    {
                        "address": "0x2b591e99afe9f32eaa6214f7b7629768c40eeb39",
                        "amount": "72,545.06902454",
                        "iconUrl": "https://assets.blocksec.com/icon/095f9b44449785f7c45bb63956eff8a843b6ae503f7b4576f9d9f27351808b2a.png",
                        "isERC1155": false,
                        "isERC721": false,
                        "sign": false,
                        "value": "645.8120505"
                    }
                ]
            }
        ]
    },
    "profile": {
        "basic_info": {
            "baseFee": "",
            "blockNumber": 11900369,
            "callData": "0x343009a200000000000000000000000000000000000000000000000000000000000000000000000000000000000000000000000000000000000000000000000000001345",
            "debugEnable": true,
            "errorInfo": "",
            "eventCount": 2,
            "feeRecipient": "0xea674fdde714fd979de3edf0f56aa9716b898ec8",
            "formatValue": "0",
            "gasLimit": 534132,
            "gasPrice": "112",
            "gasUsed": 517677,
            "intTxnCount": 0,
            "internalRevert": false,
            "internalRevertMessage": "",
            "isContractCreation": false,
            "isFlashloan": false,
            "maxFee": "",
            "nonce": 30,
            "overwritedBlockNumber": -1,
            "priorityFee": "",
            "receiver": "0x2b591e99afe9f32eaa6214f7b7629768c40eeb39",
            "revertMessage": "",
            "sender": "0x15afbf5e469c378c5a259e44c47269a2de33595a",
            "simulationEnable": true,
            "sourceTxnHash": "0x1566fa4d6302c83b96936b41ae58530d8c562267ac83c911fbb6a5ea36320d60",
            "status": true,
            "timestamp": "2021-02-21T12:50:57Z",
            "transactionFee": "0.057979824",
            "txnHash": "0x1566fa4d6302c83b96936b41ae58530d8c562267ac83c911fbb6a5ea36320d60",
            "txnIndex": 115,
            "type": 0,
            "value": "0"
        },
        "fund_flow": [
            {
                "amount": "72,545.06902454",
                "from": "0x0000000000000000000000000000000000000000",
                "id": 1,
                "isERC1155": false,
                "isERC721": false,
                "isReverted": false,
                "order": 1,
                "to": "0x15afbf5e469c378c5a259e44c47269a2de33595a",
                "token": "0x2b591e99afe9f32eaa6214f7b7629768c40eeb39"
            }
        ],
        "token_infos": [
            {
                "address": "0xeeeeeeeeeeeeeeeeeeeeeeeeeeeeeeeeeeeeeeee",
                "decimals": 18
            },
            {
                "address": "0x2b591e99afe9f32eaa6214f7b7629768c40eeb39",
                "decimals": 8
            },
            {
                "address": "0xc02aaa39b223fe8d0a0e5c4f27ead9083c756cc2",
                "decimals": 18
            }
        ]
    },
    "address_label": {
        "labels": [
            {
                "address": "0x0000000000000000000000000000000000000003",
                "label": "Precompiled"
            },
            {
                "address": "0x0000000000000000000000000000000000000004",
                "label": "Precompiled"
            },
            {
                "address": "0xeeeeeeeeeeeeeeeeeeeeeeeeeeeeeeeeeeeeeeee",
                "label": "Ether"
            },
            {
                "address": "0x2b591e99afe9f32eaa6214f7b7629768c40eeb39",
                "label": "HEX.com: HEX Token"
            },
            {
                "address": "0x0000000000000000000000000000000000000001",
                "label": "Precompiled"
            },
            {
                "address": "0x0000000000000000000000000000000000000002",
                "label": "Precompiled"
            }
        ]
    },
    "trace": {
        "accountLabels": null,
        "dataMap": {
            "-1": {
                "invocation": {
                    "address": "0x15afbf5e469c378c5a259e44c47269a2de33595a",
                    "callData": "",
                    "decodedMethod": null,
                    "errorInfo": "",
                    "fromAddress": "",
                    "gasUsed": 0,
                    "id": -1,
                    "methodDecoded": false,
                    "operation": "",
                    "output": "",
                    "revert": false,
                    "revertMessage": "",
                    "selector": "",
                    "status": false,
                    "value": ""
                },
                "nodeType": 0
            },
            "0": {
                "invocation": {
                    "address": "0x2b591e99afe9f32eaa6214f7b7629768c40eeb39",
                    "callData": "0x00000000000000000000000000000000000000000000000000000000000000000000000000000000000000000000000000000000000000000000000000001345",
                    "decodedMethod": {
                        "callParams": [
                            {
                                "name": "stakeIndex",
                                "type": "uint256",
                                "value": "0"
                            },
                            {
                                "name": "stakeIdParam",
                                "type": "uint40",
                                "value": "4,933"
                            }
                        ],
                        "constructorArguments": "",
                        "name": "stakeEnd",
                        "returnParams": [],
                        "signature": "stakeEnd(uint256,uint40)"
                    },
                    "errorInfo": "",
                    "fromAddress": "0x15afbf5e469c378c5a259e44c47269a2de33595a",
                    "gasUsed": 517677,
                    "id": 0,
                    "methodDecoded": true,
                    "operation": "CALL",
                    "output": "",
                    "revert": false,
                    "revertMessage": "",
                    "selector": "0x343009a2",
                    "status": true,
                    "value": "0"
                },
                "nodeType": 0
            },
            "1": {
                "event": {
                    "contract": "0x2b591e99afe9f32eaa6214f7b7629768c40eeb39",
                    "decodedLog": {
                        "name": "StakeEnd",
                        "params": [
                            {
                                "name": "stakerAddr",
                                "type": "address",
                                "value": "0x15afbf5e469c378c5a259e44c47269a2de33595a"
                            },
                            {
                                "name": "stakeId",
                                "type": "uint40",
                                "value": "4,933"
                            },
                            {
                                "name": "data0",
                                "type": "uint256",
                                "value": "69,181,957,166,560,534,525,255,072,818,209,708,045,780,130,014,602,888,501,682,777,511,729"
                            },
                            {
                                "name": "data1",
                                "type": "uint256",
                                "value": "2,073,118,885,979,774,248,812,544"
                            }
                        ],
                        "signature": "StakeEnd(uint256,uint256,address,uint40)"
                    },
                    "id": 1,
                    "logData": "0x0000000290ec05a3d6000000050093947cdb00000004082648efe0006032573100000000000000000000000000000000000000000001b7000000000000000000",
                    "logDecoded": true,
                    "operation": "EVENT",
                    "revert": false,
                    "status": true,
                    "topics": [
                        "0x72d9c5a7ab13846e08d9c838f9e866a1bb4a66a2fd3ba3c9e7da3cf9e394dfd7",
                        "0x00000000000000000000000015afbf5e469c378c5a259e44c47269a2de33595a",
                        "0x0000000000000000000000000000000000000000000000000000000000001345"
                    ]
                },
                "nodeType": 1
            },
            "2": {
                "event": {
                    "contract": "0x2b591e99afe9f32eaa6214f7b7629768c40eeb39",
                    "decodedLog": {
                        "name": "Transfer",
                        "params": [
                            {
                                "name": "from",
                                "type": "address",
                                "value": "0x0000000000000000000000000000000000000000"
                            },
                            {
                                "name": "to",
                                "type": "address",
                                "value": "0x15afbf5e469c378c5a259e44c47269a2de33595a"
                            },
                            {
                                "decimalAvailable": true,
                                "name": "value",
                                "type": "uint256",
                                "value": "7,254,506,902,454"
                            }
                        ],
                        "signature": "Transfer(address,address,uint256)"
                    },
                    "id": 2,
                    "logData": "0x00000000000000000000000000000000000000000000000000000699124e93b6",
                    "logDecoded": true,
                    "operation": "EVENT",
                    "revert": false,
                    "status": true,
                    "topics": [
                        "0xddf252ad1be2c89b69c2b068fc378daa952ba7f163c4a11628f55a4df523b3ef",
                        "0x0000000000000000000000000000000000000000000000000000000000000000",
                        "0x00000000000000000000000015afbf5e469c378c5a259e44c47269a2de33595a"
                    ]
                },
                "nodeType": 1
            }
        },
        "gasFlame": [
            {
                "children": [
                    {
                        "children": [
                            {
                                "children": [],
                                "depth": 0,
                                "name": "Initial Gas",
                                "value": 21344
                            },
                            {
                                "children": [],
                                "depth": 0,
                                "name": "Executed Gas",
                                "value": 511333
                            }
                        ],
                        "depth": -1,
                        "name": "Actual Gas Used",
                        "value": 517677
                    },
                    {
                        "children": [],
                        "depth": -1,
                        "name": "Refunded Gas",
                        "value": 15000
                    }
                ],
                "depth": -2,
                "name": "Total Gas",
                "value": 532677
            }
        ],
        "isConfirmed": true,
        "mainTrace": [
            {
                "children": [
                    {
                        "children": [
                            {
                                "children": [],
                                "depth": 1,
                                "id": 1,
                                "order": 1
                            },
                            {
                                "children": [],
                                "depth": 1,
                                "id": 2,
                                "order": 2
                            }
                        ],
                        "depth": 0,
                        "id": 0,
                        "order": 0
                    }
                ],
                "depth": -1,
                "id": -1,
                "order": -1
            }
        ],
        "mainTraceNodeCount": 3,
        "parentIdMap": {
            "0": -1,
            "1": 0,
            "2": 0
        },
        "tidyTrace": [
            {
                "children": [
                    {
                        "children": [
                            {
                                "children": [],
                                "depth": 1,
                                "id": 1,
                                "order": 1
                            },
                            {
                                "children": [],
                                "depth": 1,
                                "id": 2,
                                "order": 2
                            }
                        ],
                        "depth": 0,
                        "id": 0,
                        "order": 0
                    }
                ],
                "depth": -1,
                "id": -1,
                "order": -1
            }
        ],
        "tidyTraceNodeCount": 3
    },
    "state_change": {
        "stateChanges": [
            {
                "address": "0x2b591e99afe9f32eaa6214f7b7629768c40eeb39",
                "erc": "ERC-20",
                "slots": [
                    {
                        "current": "0x001dff00bacc6db6fa3658f34ca497f4000005063a0097511d1eefcb622201be",
                        "key": "0x0000000000000000000000000000000000000000000000000000000000000004",
                        "prev": "0x001dff00bacc6db6fa3658f34ca497f4000005063a009751221f835fdefd01be"
                    },
                    {
                        "current": "0x000000000000000000000000000000000000000000000003149d3bb1c0533798",
                        "key": "0x0000000000000000000000000000000000000000000000000000000000000002",
                        "prev": "0x000000000000000000000000000000000000000000000003149d3518ae04a3e2"
                    },
                    {
                        "current": "0x00000000000000000000000000000000000000000000000000002afe6823035a",
                        "key": "0xf2827529ae775b881807608fb203358406f29130bca072272c86940f533cf47c",
                        "prev": "0x0000000000000000000000000000000000000000000000000000246555d46fa4"
                    },
                    {
                        "current": "0x0000000000014101b500000019d632dad4560000002504350ad800000004fe1f",
                        "key": "0xb49c595dd9daa235a11438f2e0c1bbaa181046a9dde42d36f71fd76610aa7b31",
                        "prev": "0x000001000001b70002000000050093947cdb00000004082648efe00000001345"
                    },
                    {
                        "current": "0x0000000000000000000000000000000000000000000000000000000000000000",
                        "key": "0xb49c595dd9daa235a11438f2e0c1bbaa181046a9dde42d36f71fd76610aa7b33",
                        "prev": "0x0000000000014101b500000019d632dad4560000002504350ad800000004fe1f"
                    },
                    {
                        "current": "0x0000000000000000000000000000000000000000000000000000000000000002",
                        "key": "0x0cbb2daa196130207544c775be5bff74c4f845ca71a4935cfce6893b07705939",
                        "prev": "0x0000000000000000000000000000000000000000000000000000000000000003"
                    },
                    {
                        "current": "0x00000031b4e1e8e25a00000294af000040523986eb04a10055afb5378096f0fa",
                        "key": "0x0000000000000000000000000000000000000000000000000000000000000003",
                        "prev": "0x00000031b4e1e8e25a00000294af000040523986eb04a10055afb93fa6dfe0da"
                    }
                ],
                "storageVariables": [
                    {
                        "name": "_balances",
                        "type": "mapping(address => uint256)",
                        "value": {
                            "pairs": [
                                {
                                    "key": "0x15afbf5e469c378c5a259e44c47269a2de33595a",
                                    "value": {
                                        "current": "47272157184858",
                                        "prev": "40017650282404",
                                        "typeTag": 1
                                    }
                                }
                            ],
                            "typeTag": 4
                        }
                    },
                    {
                        "name": "_totalSupply",
                        "type": "uint256",
                        "value": {
                            "current": "56825641307852715928",
                            "prev": "56825634053345813474",
                            "typeTag": 1
                        }
                    },
                    {
                        "name": "stakeLists",
                        "type": "mapping(address => struct GlobalsAndUtility.StakeStore[])",
                        "value": {
                            "pairs": [
                                {
                                    "key": "0x15afbf5e469c378c5a259e44c47269a2de33595a",
                                    "value": {
                                        "elemType": "struct GlobalsAndUtility.StakeStore",
                                        "elems": [
                                            {
                                                "index": 0,
                                                "value": {
                                                    "fields": [
                                                        {
                                                            "name": "stakeId",
                                                            "type": "uint40",
                                                            "value": {
                                                                "current": "327199",
                                                                "prev": "4933",
                                                                "typeTag": 1
                                                            }
                                                        },
                                                        {
                                                            "name": "stakedHearts",
                                                            "type": "uint72",
                                                            "value": {
                                                                "current": "40700000000000",
                                                                "prev": "4433048563680",
                                                                "typeTag": 1
                                                            }
                                                        },
                                                        {
                                                            "name": "stakeShares",
                                                            "type": "uint72",
                                                            "value": {
                                                                "current": "28407766897750",
                                                                "prev": "5500034120923",
                                                                "typeTag": 1
                                                            }
                                                        },
                                                        {
                                                            "name": "lockedDay",
                                                            "type": "uint16",
                                                            "value": {
                                                                "current": "437",
                                                                "prev": "2",
                                                                "typeTag": 1
                                                            }
                                                        },
                                                        {
                                                            "name": "stakedDays",
                                                            "type": "uint16",
                                                            "value": {
                                                                "current": "321",
                                                                "prev": "439",
                                                                "typeTag": 1
                                                            }
                                                        },
                                                        {
                                                            "name": "unlockedDay",
                                                            "type": "uint16",
                                                            "value": {
                                                                "current": "0",
                                                                "prev": "0",
                                                                "typeTag": 1
                                                            }
                                                        },
                                                        {
                                                            "name": "isAutoStake",
                                                            "type": "bool",
                                                            "value": {
                                                                "current": "false",
                                                                "prev": "true",
                                                                "typeTag": 1
                                                            }
                                                        }
                                                    ],
                                                    "typeTag": 3
                                                }
                                            }
                                        ],
                                        "typeTag": 2
                                    }
                                }
                            ],
                            "typeTag": 4
                        }
                    },
                    {
                        "name": "globals",
                        "type": "struct GlobalsAndUtility.GlobalsStore",
                        "value": {
                            "fields": [
                                {
                                    "name": "lockedHeartsTotal",
                                    "type": "uint72",
                                    "value": {
                                        "current": "6174352864133443834",
                                        "prev": "6174357297182007514",
                                        "typeTag": 1
                                    }
                                },
                                {
                                    "name": "nextStakeSharesTotal",
                                    "type": "uint72",
                                    "value": {
                                        "current": "18104805539644577",
                                        "prev": "18104805539644577",
                                        "typeTag": 1
                                    }
                                },
                                {
                                    "name": "shareRate",
                                    "type": "uint40",
                                    "value": {
                                        "current": "169135",
                                        "prev": "169135",
                                        "typeTag": 1
                                    }
                                },
                                {
                                    "name": "stakePenaltyTotal",
                                    "type": "uint72",
                                    "value": {
                                        "current": "54652954010202",
                                        "prev": "54652954010202",
                                        "typeTag": 1
                                    }
                                },
                                {
                                    "name": "dailyDataCount",
                                    "type": "uint16",
                                    "value": {
                                        "current": "446",
                                        "prev": "446",
                                        "typeTag": 1
                                    }
                                },
                                {
                                    "name": "stakeSharesTotal",
                                    "type": "uint72",
                                    "value": {
                                        "current": "10903528191549989410",
                                        "prev": "10903533691584110333",
                                        "typeTag": 1
                                    }
                                },
                                {
                                    "name": "latestStakeId",
                                    "type": "uint40",
                                    "value": {
                                        "current": "329274",
                                        "prev": "329274",
                                        "typeTag": 1
                                    }
                                },
                                {
                                    "name": "claimStats",
                                    "type": "uint128",
                                    "value": {
                                        "current": "155748681157791984440808243751852020",
                                        "prev": "155748681157791984440808243751852020",
                                        "typeTag": 1
                                    }
                                }
                            ],
                            "typeTag": 3
                        }
                    }
                ]
            }
        ]
    }
}