{
    "balance_change": {
        "balanceChanges": [
            {
                "account": "0x0063a674921679f3a6395f3ade4894e7d574ffd2",
                "assets": [
                    {
                        "address": "0xeeeeeeeeeeeeeeeeeeeeeeeeeeeeeeeeeeeeeeee",
                        "amount": "0.006",
                        "iconUrl": "https://assets.blocksec.com/image/1663669189317-3.png",
                        "isERC1155": false,
                        "isERC721": false,
                        "sign": false,
                        "value": ""
                    }
                ]
            },
            {
                "account": "0x52d2c88cc71901b30c3a50de2f9b0a39d7e35185",
                "assets": [
                    {
                        "address": "0xeeeeeeeeeeeeeeeeeeeeeeeeeeeeeeeeeeeeeeee",
                        "amount": "0.006",
                        "iconUrl": "https://assets.blocksec.com/image/1663669189317-3.png",
                        "isERC1155": false,
                        "isERC721": false,
                        "sign": true,
                        "value": ""
                    }
                ]
            }
        ]
    },
    "profile": {
        "basic_info": {
            "baseFee": "",
            "blockNumber": 5294243,
            "callData": "0x1a69523000000000000000000000000052d2c88cc71901b30c3a50de2f9b0a39d7e35185",
            "debugEnable": true,
            "errorInfo": "",
            "eventCount": 0,
            "feeRecipient": "0x829bd824b016326a401d083b33d092293333a830",
            "formatValue": "0.006",
            "gasLimit": 115168,
            "gasPrice": "5",
            "gasUsed": 55327,
            "intTxnCount": 1,
            "internalRevert": false,
            "internalRevertMessage": "",
            "isContractCreation": false,
            "isFlashloan": false,
            "maxFee": "",
            "nonce": 306,
            "overwritedBlockNumber": -1,
            "priorityFee": "",
            "receiver": "0x0b95993a39a363d99280ac950f5e4536ab5c5566",
            "revertMessage": "",
            "sender": "0x0063a674921679f3a6395f3ade4894e7d574ffd2",
            "simulationEnable": true,
            "sourceTxnHash": "0x15c6e45bad01df3fde0b1c9bfce1f4e517ecc91e48f9a22d528cda080267f89f",
            "status": true,
            "timestamp": "2018-03-21T08:44:57Z",
            "transactionFee": "0.000276635",
            "txnHash": "0x15c6e45bad01df3fde0b1c9bfce1f4e517ecc91e48f9a22d528cda080267f89f",
            "txnIndex": 137,
            "type": 0,
            "value": "6000000000000000"
        },
        "fund_flow": [
            {
                "amount": "0.006",
                "from": "0x0063a674921679f3a6395f3ade4894e7d574ffd2",
                "id": 1,
                "isERC1155": false,
                "isERC721": false,
                "isReverted": false,
                "order": 1,
                "to": "0x0b95993a39a363d99280ac950f5e4536ab5c5566",
                "token": "0xeeeeeeeeeeeeeeeeeeeeeeeeeeeeeeeeeeeeeeee"
            },
            {
                "amount": "0.006",
                "from": "0x0b95993a39a363d99280ac950f5e4536ab5c5566",
                "id": 2,
                "isERC1155": false,
                "isERC721": false,
                "isReverted": false,
                "order": 2,
                "to": "0x52d2c88cc71901b30c3a50de2f9b0a39d7e35185",
                "token": "0xeeeeeeeeeeeeeeeeeeeeeeeeeeeeeeeeeeeeeeee"
            }
        ],
        "token_infos": [
            {
                "address": "0xc02aaa39b223fe8d0a0e5c4f27ead9083c756cc2",
                "decimals": 18
            },
            {
                "address": "0xeeeeeeeeeeeeeeeeeeeeeeeeeeeeeeeeeeeeeeee",
                "decimals": 18
            }
        ]
    },
    "address_label": {
        "labels": [
            {
                "address": "0x0063a674921679f3a6395f3ade4894e7d574ffd2",
                "label": "0x0063_BINANCE"
            },
            {
                "address": "0x0b95993a39a363d99280ac950f5e4536ab5c5566",
                "label": "Binance: Contract"
            },
            {
                "address": "0x52d2c88cc71901b30c3a50de2f9b0a39d7e35185",
                "label": "0x52d2_BINANCE"
            },
            {
                "address": "0x0000000000000000000000000000000000000001",
                "label": "Precompiled"
            },
            {
                "address": "0x0000000000000000000000000000000000000002",
                "label": "Precompiled"
            },
            {
                "address": "0x0000000000000000000000000000000000000003",
                "label": "Precompiled"
            },
            {
                "address": "0x0000000000000000000000000000000000000004",
                "label": "Precompiled"
            },
            {
                "address": "0xeeeeeeeeeeeeeeeeeeeeeeeeeeeeeeeeeeeeeeee",
                "label": "Ether"
            }
        ]
    },
    "trace": {
        "accountLabels": null,
        "dataMap": {
            "-1": {
                "invocation": {
                    "address": "0x0063a674921679f3a6395f3ade4894e7d574ffd2",
                    "callData": "",
                    "decodedMethod": null,
                    "errorInfo": "",
                    "fromAddress": "",
                    "gasUsed": 0,
                    "id": -1,
                    "methodDecoded": false,
                    "operation": "",
                    "output": "",
                    "revert": false,
                    "revertMessage": "",
                    "selector": "",
                    "status": false,
                    "value": ""
                },
                "nodeType": 0
            },
            "0": {
                "invocation": {
                    "address": "0x0b95993a39a363d99280ac950f5e4536ab5c5566",
                    "callData": "0x00000000000000000000000052d2c88cc71901b30c3a50de2f9b0a39d7e35185",
                    "decodedMethod": {
                        "callParams": [
                            {
                                "name": "wallet",
                                "type": "address",
                                "value": "0x52d2c88cc71901b30c3a50de2f9b0a39d7e35185"
                            }
                        ],
                        "constructorArguments": "",
                        "name": "transfer",
                        "returnParams": [],
                        "signature": "transfer(address)"
                    },
                    "errorInfo": "",
                    "fromAddress": "0x0063a674921679f3a6395f3ade4894e7d574ffd2",
                    "gasUsed": 55327,
                    "id": 0,
                    "methodDecoded": true,
                    "operation": "CALL",
                    "output": "",
                    "revert": false,
                    "revertMessage": "",
                    "selector": "0x1a695230",
                    "status": true,
                    "value": "0.006"
                },
                "nodeType": 0
            },
            "1": {
                "invocation": {
                    "address": "0x52d2c88cc71901b30c3a50de2f9b0a39d7e35185",
                    "callData": "0x",
                    "decodedMethod": null,
                    "errorInfo": "",
                    "fromAddress": "0x0b95993a39a363d99280ac950f5e4536ab5c5566",
                    "gasUsed": 0,
                    "id": 1,
                    "methodDecoded": false,
                    "operation": "CALL",
                    "output": "",
                    "revert": false,
                    "revertMessage": "",
                    "selector": "fallback",
                    "status": true,
                    "value": "0.006"
                },
                "nodeType": 0
            }
        },
        "gasFlame": [
            {
                "children": [
                    {
                        "children": [
                            {
                                "children": [],
                                "depth": 0,
                                "name": "Initial Gas",
                                "value": 22680
                            },
                            {
                                "children": [
                                    {
                                        "children": [],
                                        "depth": 1,
                                        "name": "fallback",
                                        "value": 0
                                    }
                                ],
                                "depth": 0,
                                "name": "Executed Gas",
                                "value": 32647
                            }
                        ],
                        "depth": -1,
                        "name": "Actual Gas Used",
                        "value": 55327
                    },
                    {
                        "children": [],
                        "depth": -1,
                        "name": "Refunded Gas",
                        "value": 0
                    }
                ],
                "depth": -2,
                "name": "Total Gas",
                "value": 55327
            }
        ],
        "isConfirmed": true,
        "mainTrace": [
            {
                "children": [
                    {
                        "children": [
                            {
                                "children": [],
                                "depth": 1,
                                "id": 1,
                                "order": 1
                            }
                        ],
                        "depth": 0,
                        "id": 0,
                        "order": 0
                    }
                ],
                "depth": -1,
                "id": -1,
                "order": -1
            }
        ],
        "mainTraceNodeCount": 2,
        "parentIdMap": {
            "0": -1,
            "1": 0
        },
        "tidyTrace": [
            {
                "children": [
                    {
                        "children": [
                            {
                                "children": [],
                                "depth": 1,
                                "id": 1,
                                "order": 1
                            }
                        ],
                        "depth": 0,
                        "id": 0,
                        "order": 0
                    }
                ],
                "depth": -1,
                "id": -1,
                "order": -1
            }
        ],
        "tidyTraceNodeCount": 2
    },
    "state_change": {
        "stateChanges": []
    }
}