{
    "balance_change": {
        "balanceChanges": [
            {
                "account": "0x3b71b901dc5e30e28d2c24ce6bfab39eb1957ded",
                "assets": [
                    {
                        "address": "0x0f5d2fb29fb7d3cfee444a200298f468908cc942",
                        "amount": "13,094",
                        "iconUrl": "https://assets.blocksec.com/icon/54d64db7c4b21ad51c32e15fe06a87bf31831382d6c6aa49b4adb5dfaa42993c.png",
                        "isERC1155": false,
                        "isERC721": false,
                        "sign": false,
                        "value": "30979.09471"
                    }
                ]
            },
            {
                "account": "0x2d4ba8bcaef93246c32ee889a3231cb385c67738",
                "assets": [
                    {
                        "address": "0x0f5d2fb29fb7d3cfee444a200298f468908cc942",
                        "amount": "13,094",
                        "iconUrl": "https://assets.blocksec.com/icon/54d64db7c4b21ad51c32e15fe06a87bf31831382d6c6aa49b4adb5dfaa42993c.png",
                        "isERC1155": false,
                        "isERC721": false,
                        "sign": true,
                        "value": "30979.09471"
                    }
                ]
            }
        ]
    },
    "profile": {
        "basic_info": {
            "baseFee": "51.04502755",
            "blockNumber": 14533025,
            "callData": "0xa9059cbb0000000000000000000000002d4ba8bcaef93246c32ee889a3231cb385c677380000000000000000000000000000000000000000000002c5d3c0e903c4d80000",
            "debugEnable": true,
            "errorInfo": "",
            "eventCount": 1,
            "feeRecipient": "0x829bd824b016326a401d083b33d092293333a830",
            "formatValue": "0",
            "gasLimit": 200000,
            "gasPrice": "90.986871312",
            "gasUsed": 37149,
            "intTxnCount": 0,
            "internalRevert": false,
            "internalRevertMessage": "",
            "isContractCreation": false,
            "isFlashloan": false,
            "maxFee": "",
            "nonce": 3965,
            "overwritedBlockNumber": -1,
            "priorityFee": "",
            "receiver": "0x0f5d2fb29fb7d3cfee444a200298f468908cc942",
            "revertMessage": "",
            "sender": "0x3b71b901dc5e30e28d2c24ce6bfab39eb1957ded",
            "simulationEnable": true,
            "sourceTxnHash": "0x1568d10eb259b122eaba6b3223d3652cba9f343e703a718e8d2aacd75a982d8e",
            "status": true,
            "timestamp": "2022-04-06T15:04:39Z",
            "transactionFee": "0.003380071282369488",
            "txnHash": "0x1568d10eb259b122eaba6b3223d3652cba9f343e703a718e8d2aacd75a982d8e",
            "txnIndex": 0,
            "type": 0,
            "value": "0"
        },
        "fund_flow": [
            {
                "amount": "13,094",
                "from": "0x3b71b901dc5e30e28d2c24ce6bfab39eb1957ded",
                "id": 1,
                "isERC1155": false,
                "isERC721": false,
                "isReverted": false,
                "order": 1,
                "to": "0x2d4ba8bcaef93246c32ee889a3231cb385c67738",
                "token": "0x0f5d2fb29fb7d3cfee444a200298f468908cc942"
            }
        ],
        "token_infos": [
            {
                "address": "0x0f5d2fb29fb7d3cfee444a200298f468908cc942",
                "decimals": 18
            },
            {
                "address": "0xc02aaa39b223fe8d0a0e5c4f27ead9083c756cc2",
                "decimals": 18
            },
            {
                "address": "0xeeeeeeeeeeeeeeeeeeeeeeeeeeeeeeeeeeeeeeee",
                "decimals": 18
            }
        ]
    },
    "address_label": {
        "labels": [
            {
                "address": "0xeeeeeeeeeeeeeeeeeeeeeeeeeeeeeeeeeeeeeeee",
                "label": "Ether"
            },
            {
                "address": "0x0f5d2fb29fb7d3cfee444a200298f468908cc942",
                "label": "Decentraland: MANA Token"
            },
            {
                "address": "0x0000000000000000000000000000000000000001",
                "label": "Precompiled"
            },
            {
                "address": "0x0000000000000000000000000000000000000002",
                "label": "Precompiled"
            },
            {
                "address": "0x0000000000000000000000000000000000000003",
                "label": "Precompiled"
            },
            {
                "address": "0x0000000000000000000000000000000000000004",
                "label": "Precompiled"
            }
        ]
    },
    "trace": {
        "accountLabels": null,
        "dataMap": {
            "-1": {
                "invocation": {
                    "address": "0x3b71b901dc5e30e28d2c24ce6bfab39eb1957ded",
                    "callData": "",
                    "decodedMethod": null,
                    "errorInfo": "",
                    "fromAddress": "",
                    "gasUsed": 0,
                    "id": -1,
                    "methodDecoded": false,
                    "operation": "",
                    "output": "",
                    "revert": false,
                    "revertMessage": "",
                    "selector": "",
                    "status": false,
                    "value": ""
                },
                "nodeType": 0
            },
            "0": {
                "invocation": {
                    "address": "0x0f5d2fb29fb7d3cfee444a200298f468908cc942",
                    "callData": "0x0000000000000000000000002d4ba8bcaef93246c32ee889a3231cb385c677380000000000000000000000000000000000000000000002c5d3c0e903c4d80000",
                    "decodedMethod": {
                        "callParams": [
                            {
                                "name": "_to",
                                "type": "address",
                                "value": "0x2d4ba8bcaef93246c32ee889a3231cb385c67738"
                            },
                            {
                                "decimalAvailable": true,
                                "name": "_value",
                                "type": "uint256",
                                "value": "13,094,000,000,000,000,000,000"
                            }
                        ],
                        "constructorArguments": "",
                        "name": "transfer",
                        "returnParams": [
                            {
                                "name": "",
                                "type": "bool",
                                "value": true
                            }
                        ],
                        "signature": "transfer(address,uint256)"
                    },
                    "errorInfo": "",
                    "fromAddress": "0x3b71b901dc5e30e28d2c24ce6bfab39eb1957ded",
                    "gasUsed": 37149,
                    "id": 0,
                    "methodDecoded": true,
                    "operation": "CALL",
                    "output": "0x0000000000000000000000000000000000000000000000000000000000000001",
                    "revert": false,
                    "revertMessage": "",
                    "selector": "0xa9059cbb",
                    "status": true,
                    "value": "0"
                },
                "nodeType": 0
            },
            "1": {
                "event": {
                    "contract": "0x0f5d2fb29fb7d3cfee444a200298f468908cc942",
                    "decodedLog": {
                        "name": "Transfer",
                        "params": [
                            {
                                "name": "from",
                                "type": "address",
                                "value": "0x3b71b901dc5e30e28d2c24ce6bfab39eb1957ded"
                            },
                            {
                                "name": "to",
                                "type": "address",
                                "value": "0x2d4ba8bcaef93246c32ee889a3231cb385c67738"
                            },
                            {
                                "decimalAvailable": true,
                                "name": "value",
                                "type": "uint256",
                                "value": "13,094,000,000,000,000,000,000"
                            }
                        ],
                        "signature": "Transfer(address,address,uint256)"
                    },
                    "id": 1,
                    "logData": "0x0000000000000000000000000000000000000000000002c5d3c0e903c4d80000",
                    "logDecoded": true,
                    "operation": "EVENT",
                    "revert": false,
                    "status": true,
                    "topics": [
                        "0xddf252ad1be2c89b69c2b068fc378daa952ba7f163c4a11628f55a4df523b3ef",
                        "0x0000000000000000000000003b71b901dc5e30e28d2c24ce6bfab39eb1957ded",
                        "0x0000000000000000000000002d4ba8bcaef93246c32ee889a3231cb385c67738"
                    ]
                },
                "nodeType": 1
            }
        },
        "gasFlame": [
            {
                "children": [
                    {
                        "children": [
                            {
                                "children": [],
                                "depth": 0,
                                "name": "Initial Gas",
                                "value": 21656
                            },
                            {
                                "children": [],
                                "depth": 0,
                                "name": "Executed Gas",
                                "value": 15493
                            }
                        ],
                        "depth": -1,
                        "name": "Actual Gas Used",
                        "value": 37149
                    },
                    {
                        "children": [],
                        "depth": -1,
                        "name": "Refunded Gas",
                        "value": 0
                    }
                ],
                "depth": -2,
                "name": "Total Gas",
                "value": 37149
            }
        ],
        "isConfirmed": true,
        "mainTrace": [
            {
                "children": [
                    {
                        "children": [
                            {
                                "children": [],
                                "depth": 1,
                                "id": 1,
                                "order": 1
                            }
                        ],
                        "depth": 0,
                        "id": 0,
                        "order": 0
                    }
                ],
                "depth": -1,
                "id": -1,
                "order": -1
            }
        ],
        "mainTraceNodeCount": 2,
        "parentIdMap": {
            "0": -1,
            "1": 0
        },
        "tidyTrace": [
            {
                "children": [
                    {
                        "children": [
                            {
                                "children": [],
                                "depth": 1,
                                "id": 1,
                                "order": 1
                            }
                        ],
                        "depth": 0,
                        "id": 0,
                        "order": 0
                    }
                ],
                "depth": -1,
                "id": -1,
                "order": -1
            }
        ],
        "tidyTraceNodeCount": 2
    },
    "state_change": {
        "stateChanges": [
            {
                "address": "0x0f5d2fb29fb7d3cfee444a200298f468908cc942",
                "erc": "ERC-20",
                "slots": [
                    {
                        "current": "0x00000000000000000000000000000000000000000000225b279017938a5c6eca",
                        "key": "0xc7598773722e6005ea33b55931b0d308ed3e99153a6928d0045bd1767d09f0a6",
                        "prev": "0x000000000000000000000000000000000000000000002520fb5100974f346eca"
                    },
                    {
                        "current": "0x0000000000000000000000000000000000000000000002c5d3c0e903c4d80001",
                        "key": "0xc73d6e76451e2ea6add4221bc4a7317a5fd06c54096a8dfde79735eca5e4df86",
                        "prev": "0x0000000000000000000000000000000000000000000000000000000000000001"
                    }
                ],
                "storageVariables": []
            }
        ]
    }
}