{
    "balance_change": {
        "balanceChanges": [
            {
                "account": "0x925ea5af075bde17811e4bcdc198dc5d3675e466",
                "assets": [
                    {
                        "address": "0x4672bad527107471cb5067a887f4656d585a8a31",
                        "amount": "1,284.4",
                        "iconUrl": "",
                        "isERC1155": false,
                        "isERC721": false,
                        "sign": false,
                        "value": ""
                    }
                ]
            },
            {
                "account": "0xcd06096d86fe6f63f2ab1646ac1b8a86529177fb",
                "assets": [
                    {
                        "address": "0x4672bad527107471cb5067a887f4656d585a8a31",
                        "amount": "1,284.4",
                        "iconUrl": "",
                        "isERC1155": false,
                        "isERC721": false,
                        "sign": true,
                        "value": ""
                    }
                ]
            }
        ]
    },
    "profile": {
        "basic_info": {
            "baseFee": "",
            "blockNumber": 7174345,
            "callData": "0xa9059cbb000000000000000000000000cd06096d86fe6f63f2ab1646ac1b8a86529177fb000000000000000000000000000000000000000000000045a0a172f507b80000",
            "debugEnable": true,
            "errorInfo": "",
            "eventCount": 1,
            "feeRecipient": "0x829bd824b016326a401d083b33d092293333a830",
            "formatValue": "0",
            "gasLimit": 36721,
            "gasPrice": "8",
            "gasUsed": 36721,
            "intTxnCount": 0,
            "internalRevert": false,
            "internalRevertMessage": "",
            "isContractCreation": false,
            "isFlashloan": false,
            "maxFee": "",
            "nonce": 316207,
            "overwritedBlockNumber": -1,
            "priorityFee": "",
            "receiver": "0x4672bad527107471cb5067a887f4656d585a8a31",
            "revertMessage": "",
            "sender": "0x925ea5af075bde17811e4bcdc198dc5d3675e466",
            "simulationEnable": true,
            "sourceTxnHash": "0x15c2ae01989887b666bc805291917d37f16001ced10f0152146919c3298ce207",
            "status": true,
            "timestamp": "2019-02-04T17:21:39Z",
            "transactionFee": "0.000293768",
            "txnHash": "0x15c2ae01989887b666bc805291917d37f16001ced10f0152146919c3298ce207",
            "txnIndex": 37,
            "type": 0,
            "value": "0"
        },
        "fund_flow": [
            {
                "amount": "1,284.4",
                "from": "0x925ea5af075bde17811e4bcdc198dc5d3675e466",
                "id": 1,
                "isERC1155": false,
                "isERC721": false,
                "isReverted": false,
                "order": 1,
                "to": "0xcd06096d86fe6f63f2ab1646ac1b8a86529177fb",
                "token": "0x4672bad527107471cb5067a887f4656d585a8a31"
            }
        ],
        "token_infos": [
            {
                "address": "0x4672bad527107471cb5067a887f4656d585a8a31",
                "decimals": 18
            },
            {
                "address": "0xc02aaa39b223fe8d0a0e5c4f27ead9083c756cc2",
                "decimals": 18
            },
            {
                "address": "0xeeeeeeeeeeeeeeeeeeeeeeeeeeeeeeeeeeeeeeee",
                "decimals": 18
            }
        ]
    },
    "address_label": {
        "labels": [
            {
                "address": "0x0000000000000000000000000000000000000002",
                "label": "Precompiled"
            },
            {
                "address": "0x0000000000000000000000000000000000000003",
                "label": "Precompiled"
            },
            {
                "address": "0x0000000000000000000000000000000000000004",
                "label": "Precompiled"
            },
            {
                "address": "0xeeeeeeeeeeeeeeeeeeeeeeeeeeeeeeeeeeeeeeee",
                "label": "Ether"
            },
            {
                "address": "0x4672bad527107471cb5067a887f4656d585a8a31",
                "label": "Dropil (DROP)"
            },
            {
                "address": "0x0000000000000000000000000000000000000001",
                "label": "Precompiled"
            }
        ]
    },
    "trace": {
        "accountLabels": null,
        "dataMap": {
            "-1": {
                "invocation": {
                    "address": "0x925ea5af075bde17811e4bcdc198dc5d3675e466",
                    "callData": "",
                    "decodedMethod": null,
                    "errorInfo": "",
                    "fromAddress": "",
                    "gasUsed": 0,
                    "id": -1,
                    "methodDecoded": false,
                    "operation": "",
                    "output": "",
                    "revert": false,
                    "revertMessage": "",
                    "selector": "",
                    "status": false,
                    "value": ""
                },
                "nodeType": 0
            },
            "0": {
                "invocation": {
                    "address": "0x4672bad527107471cb5067a887f4656d585a8a31",
                    "callData": "0x000000000000000000000000cd06096d86fe6f63f2ab1646ac1b8a86529177fb000000000000000000000000000000000000000000000045a0a172f507b80000",
                    "decodedMethod": {
                        "callParams": [
                            {
                                "name": "to",
                                "type": "address",
                                "value": "0xcd06096d86fe6f63f2ab1646ac1b8a86529177fb"
                            },
                            {
                                "decimalAvailable": true,
                                "name": "tokens",
                                "type": "uint256",
                                "value": "1,284,400,000,000,000,000,000"
                            }
                        ],
                        "constructorArguments": "",
                        "name": "transfer",
                        "returnParams": [
                            {
                                "name": "success",
                                "type": "bool",
                                "value": true
                            }
                        ],
                        "signature": "transfer(address,uint256)"
                    },
                    "errorInfo": "",
                    "fromAddress": "0x925ea5af075bde17811e4bcdc198dc5d3675e466",
                    "gasUsed": 36721,
                    "id": 0,
                    "methodDecoded": true,
                    "operation": "CALL",
                    "output": "0x0000000000000000000000000000000000000000000000000000000000000001",
                    "revert": false,
                    "revertMessage": "",
                    "selector": "0xa9059cbb",
                    "status": true,
                    "value": "0"
                },
                "nodeType": 0
            },
            "1": {
                "event": {
                    "contract": "0x4672bad527107471cb5067a887f4656d585a8a31",
                    "decodedLog": {
                        "name": "Transfer",
                        "params": [
                            {
                                "name": "from",
                                "type": "address",
                                "value": "0x925ea5af075bde17811e4bcdc198dc5d3675e466"
                            },
                            {
                                "name": "to",
                                "type": "address",
                                "value": "0xcd06096d86fe6f63f2ab1646ac1b8a86529177fb"
                            },
                            {
                                "decimalAvailable": true,
                                "name": "tokens",
                                "type": "uint256",
                                "value": "1,284,400,000,000,000,000,000"
                            }
                        ],
                        "signature": "Transfer(address,address,uint256)"
                    },
                    "id": 1,
                    "logData": "0x000000000000000000000000000000000000000000000045a0a172f507b80000",
                    "logDecoded": true,
                    "operation": "EVENT",
                    "revert": false,
                    "status": true,
                    "topics": [
                        "0xddf252ad1be2c89b69c2b068fc378daa952ba7f163c4a11628f55a4df523b3ef",
                        "0x000000000000000000000000925ea5af075bde17811e4bcdc198dc5d3675e466",
                        "0x000000000000000000000000cd06096d86fe6f63f2ab1646ac1b8a86529177fb"
                    ]
                },
                "nodeType": 1
            }
        },
        "gasFlame": [
            {
                "children": [
                    {
                        "children": [
                            {
                                "children": [],
                                "depth": 0,
                                "name": "Initial Gas",
                                "value": 23256
                            },
                            {
                                "children": [],
                                "depth": 0,
                                "name": "Executed Gas",
                                "value": 13465
                            }
                        ],
                        "depth": -1,
                        "name": "Actual Gas Used",
                        "value": 36721
                    },
                    {
                        "children": [],
                        "depth": -1,
                        "name": "Refunded Gas",
                        "value": 0
                    }
                ],
                "depth": -2,
                "name": "Total Gas",
                "value": 36721
            }
        ],
        "isConfirmed": true,
        "mainTrace": [
            {
                "children": [
                    {
                        "children": [
                            {
                                "children": [],
                                "depth": 1,
                                "id": 1,
                                "order": 1
                            }
                        ],
                        "depth": 0,
                        "id": 0,
                        "order": 0
                    }
                ],
                "depth": -1,
                "id": -1,
                "order": -1
            }
        ],
        "mainTraceNodeCount": 2,
        "parentIdMap": {
            "0": -1,
            "1": 0
        },
        "tidyTrace": [
            {
                "children": [
                    {
                        "children": [
                            {
                                "children": [],
                                "depth": 1,
                                "id": 1,
                                "order": 1
                            }
                        ],
                        "depth": 0,
                        "id": 0,
                        "order": 0
                    }
                ],
                "depth": -1,
                "id": -1,
                "order": -1
            }
        ],
        "tidyTraceNodeCount": 2
    },
    "state_change": {
        "stateChanges": [
            {
                "address": "0x4672bad527107471cb5067a887f4656d585a8a31",
                "erc": "ERC-20",
                "slots": [
                    {
                        "current": "0x000000000000000000000000000000000000000000bd31781f3feb80543cf812",
                        "key": "0x21761dd2378177dfe63291454369ce1c3b8b2b5d2f81ddfb1d9be453a5328228",
                        "prev": "0x000000000000000000000000000000000000000000bd31bdbfe15e755bf4f812"
                    },
                    {
                        "current": "0x000000000000000000000000000000000000000000001aa99981961ea7fd2b00",
                        "key": "0x3bcf1182713bca5c97a9d63ecb558f65a47b32422c4cc05a344d2c4601074332",
                        "prev": "0x000000000000000000000000000000000000000000001a63f8e02329a0452b00"
                    }
                ],
                "storageVariables": [
                    {
                        "name": "balances",
                        "type": "mapping(address => uint256)",
                        "value": {
                            "pairs": [
                                {
                                    "key": "0x925ea5af075bde17811e4bcdc198dc5d3675e466",
                                    "value": {
                                        "current": "228720591725891646891292690",
                                        "prev": "228721876125891646891292690",
                                        "typeTag": 1
                                    }
                                },
                                {
                                    "key": "0xcd06096d86fe6f63f2ab1646ac1b8a86529177fb",
                                    "value": {
                                        "current": "125910089590285900000000",
                                        "prev": "124625689590285900000000",
                                        "typeTag": 1
                                    }
                                }
                            ],
                            "typeTag": 4
                        }
                    }
                ]
            }
        ]
    }
}