{
    "balance_change": {
        "balanceChanges": [
            {
                "account": "0x29b6dfe397b927a9ba6644bf16bec9f57def6f66",
                "assets": [
                    {
                        "address": "0x1d9d673a07916068d1f86a0857d33bcbd11d1b8a",
                        "amount": "530",
                        "iconUrl": "",
                        "isERC1155": false,
                        "isERC721": false,
                        "sign": false,
                        "value": ""
                    }
                ]
            },
            {
                "account": "0xe5cc387827cca561f8e1c81a71b28d50a9cfd9b3",
                "assets": [
                    {
                        "address": "0x1d9d673a07916068d1f86a0857d33bcbd11d1b8a",
                        "amount": "530",
                        "iconUrl": "",
                        "isERC1155": false,
                        "isERC721": false,
                        "sign": true,
                        "value": ""
                    }
                ]
            }
        ]
    },
    "profile": {
        "basic_info": {
            "baseFee": "",
            "blockNumber": 7292460,
            "callData": "0xa9059cbb000000000000000000000000e5cc387827cca561f8e1c81a71b28d50a9cfd9b3000000000000000000000000000000000000000000000000000000001f972880",
            "debugEnable": true,
            "errorInfo": "",
            "eventCount": 1,
            "feeRecipient": "0x829bd824b016326a401d083b33d092293333a830",
            "formatValue": "0",
            "gasLimit": 38163,
            "gasPrice": "7",
            "gasUsed": 23163,
            "intTxnCount": 0,
            "internalRevert": false,
            "internalRevertMessage": "",
            "isContractCreation": false,
            "isFlashloan": false,
            "maxFee": "",
            "nonce": 12,
            "overwritedBlockNumber": -1,
            "priorityFee": "",
            "receiver": "0x1d9d673a07916068d1f86a0857d33bcbd11d1b8a",
            "revertMessage": "",
            "sender": "0x29b6dfe397b927a9ba6644bf16bec9f57def6f66",
            "simulationEnable": true,
            "sourceTxnHash": "0x1558dcd1095a202aa3dd8f55bb713851737d6062673293f503a40cc3e4a09d76",
            "status": true,
            "timestamp": "2019-03-02T21:10:50Z",
            "transactionFee": "0.000162141",
            "txnHash": "0x1558dcd1095a202aa3dd8f55bb713851737d6062673293f503a40cc3e4a09d76",
            "txnIndex": 28,
            "type": 0,
            "value": "0"
        },
        "fund_flow": [
            {
                "amount": "530",
                "from": "0x29b6dfe397b927a9ba6644bf16bec9f57def6f66",
                "id": 1,
                "isERC1155": false,
                "isERC721": false,
                "isReverted": false,
                "order": 1,
                "to": "0xe5cc387827cca561f8e1c81a71b28d50a9cfd9b3",
                "token": "0x1d9d673a07916068d1f86a0857d33bcbd11d1b8a"
            }
        ],
        "token_infos": [
            {
                "address": "0x1d9d673a07916068d1f86a0857d33bcbd11d1b8a",
                "decimals": 6
            },
            {
                "address": "0xc02aaa39b223fe8d0a0e5c4f27ead9083c756cc2",
                "decimals": 18
            },
            {
                "address": "0xeeeeeeeeeeeeeeeeeeeeeeeeeeeeeeeeeeeeeeee",
                "decimals": 18
            }
        ]
    },
    "address_label": {
        "labels": [
            {
                "address": "0x0000000000000000000000000000000000000001",
                "label": "Precompiled"
            },
            {
                "address": "0x0000000000000000000000000000000000000002",
                "label": "Precompiled"
            },
            {
                "address": "0x0000000000000000000000000000000000000003",
                "label": "Precompiled"
            },
            {
                "address": "0x0000000000000000000000000000000000000004",
                "label": "Precompiled"
            },
            {
                "address": "0xeeeeeeeeeeeeeeeeeeeeeeeeeeeeeeeeeeeeeeee",
                "label": "Ether"
            },
            {
                "address": "0x1d9d673a07916068d1f86a0857d33bcbd11d1b8a",
                "label": "GUAR"
            }
        ]
    },
    "trace": {
        "accountLabels": null,
        "dataMap": {
            "-1": {
                "invocation": {
                    "address": "0x29b6dfe397b927a9ba6644bf16bec9f57def6f66",
                    "callData": "",
                    "decodedMethod": null,
                    "errorInfo": "",
                    "fromAddress": "",
                    "gasUsed": 0,
                    "id": -1,
                    "methodDecoded": false,
                    "operation": "",
                    "output": "",
                    "revert": false,
                    "revertMessage": "",
                    "selector": "",
                    "status": false,
                    "value": ""
                },
                "nodeType": 0
            },
            "0": {
                "invocation": {
                    "address": "0x1d9d673a07916068d1f86a0857d33bcbd11d1b8a",
                    "callData": "0x000000000000000000000000e5cc387827cca561f8e1c81a71b28d50a9cfd9b3000000000000000000000000000000000000000000000000000000001f972880",
                    "decodedMethod": {
                        "callParams": [
                            {
                                "name": "_to",
                                "type": "address",
                                "value": "0xe5cc387827cca561f8e1c81a71b28d50a9cfd9b3"
                            },
                            {
                                "decimalAvailable": true,
                                "name": "_value",
                                "type": "uint256",
                                "value": "530,000,000"
                            }
                        ],
                        "constructorArguments": "",
                        "name": "transfer",
                        "returnParams": [],
                        "signature": "transfer(address,uint256)"
                    },
                    "errorInfo": "",
                    "fromAddress": "0x29b6dfe397b927a9ba6644bf16bec9f57def6f66",
                    "gasUsed": 23163,
                    "id": 0,
                    "methodDecoded": true,
                    "operation": "CALL",
                    "output": "",
                    "revert": false,
                    "revertMessage": "",
                    "selector": "0xa9059cbb",
                    "status": true,
                    "value": "0"
                },
                "nodeType": 0
            },
            "1": {
                "event": {
                    "contract": "0x1d9d673a07916068d1f86a0857d33bcbd11d1b8a",
                    "decodedLog": {
                        "name": "Transfer",
                        "params": [
                            {
                                "name": "from",
                                "type": "address",
                                "value": "0x29b6dfe397b927a9ba6644bf16bec9f57def6f66"
                            },
                            {
                                "name": "to",
                                "type": "address",
                                "value": "0xe5cc387827cca561f8e1c81a71b28d50a9cfd9b3"
                            },
                            {
                                "decimalAvailable": true,
                                "name": "value",
                                "type": "uint256",
                                "value": "530,000,000"
                            }
                        ],
                        "signature": "Transfer(address,address,uint256)"
                    },
                    "id": 1,
                    "logData": "0x000000000000000000000000000000000000000000000000000000001f972880",
                    "logDecoded": true,
                    "operation": "EVENT",
                    "revert": false,
                    "status": true,
                    "topics": [
                        "0xddf252ad1be2c89b69c2b068fc378daa952ba7f163c4a11628f55a4df523b3ef",
                        "0x00000000000000000000000029b6dfe397b927a9ba6644bf16bec9f57def6f66",
                        "0x000000000000000000000000e5cc387827cca561f8e1c81a71b28d50a9cfd9b3"
                    ]
                },
                "nodeType": 1
            }
        },
        "gasFlame": [
            {
                "children": [
                    {
                        "children": [
                            {
                                "children": [],
                                "depth": 0,
                                "name": "Initial Gas",
                                "value": 23064
                            },
                            {
                                "children": [],
                                "depth": 0,
                                "name": "Executed Gas",
                                "value": 15099
                            }
                        ],
                        "depth": -1,
                        "name": "Actual Gas Used",
                        "value": 23163
                    },
                    {
                        "children": [],
                        "depth": -1,
                        "name": "Refunded Gas",
                        "value": 15000
                    }
                ],
                "depth": -2,
                "name": "Total Gas",
                "value": 38163
            }
        ],
        "isConfirmed": true,
        "mainTrace": [
            {
                "children": [
                    {
                        "children": [
                            {
                                "children": [],
                                "depth": 1,
                                "id": 1,
                                "order": 1
                            }
                        ],
                        "depth": 0,
                        "id": 0,
                        "order": 0
                    }
                ],
                "depth": -1,
                "id": -1,
                "order": -1
            }
        ],
        "mainTraceNodeCount": 2,
        "parentIdMap": {
            "0": -1,
            "1": 0
        },
        "tidyTrace": [
            {
                "children": [
                    {
                        "children": [
                            {
                                "children": [],
                                "depth": 1,
                                "id": 1,
                                "order": 1
                            }
                        ],
                        "depth": 0,
                        "id": 0,
                        "order": 0
                    }
                ],
                "depth": -1,
                "id": -1,
                "order": -1
            }
        ],
        "tidyTraceNodeCount": 2
    },
    "state_change": {
        "stateChanges": [
            {
                "address": "0x1d9d673a07916068d1f86a0857d33bcbd11d1b8a",
                "erc": "",
                "slots": [
                    {
                        "current": "0x0000000000000000000000000000000000000000000000000000000000000000",
                        "key": "0xc2878f3800de9449f3d74466cfc213b4d0f3b987d1aa9df2ac1f36bbb0b3a15a",
                        "prev": "0x000000000000000000000000000000000000000000000000000000001f972880"
                    },
                    {
                        "current": "0x0000000000000000000000000000000000000000000000000000000587e888c0",
                        "key": "0xe052e3554496c416d4da0ac1f67a992aec281d68d24edec8911056723fba6c49",
                        "prev": "0x0000000000000000000000000000000000000000000000000000000568516040"
                    }
                ],
                "storageVariables": []
            }
        ]
    }
}