{
    "balance_change": {
        "balanceChanges": []
    },
    "profile": {
        "basic_info": {
            "baseFee": "",
            "blockNumber": 11960897,
            "callData": "0x095ea7b30000000000000000000000007a250d5630b4cf539739df2c5dacb4c659f2488dffffffffffffffffffffffffffffffffffffffffffffffffffffffffffffffff",
            "debugEnable": true,
            "errorInfo": "",
            "eventCount": 1,
            "feeRecipient": "0x52bc44d5378309ee2abf1539bf71de1b7d7be3b5",
            "formatValue": "0",
            "gasLimit": 55181,
            "gasPrice": "82.5",
            "gasUsed": 49811,
            "intTxnCount": 1,
            "internalRevert": false,
            "internalRevertMessage": "",
            "isContractCreation": false,
            "isFlashloan": false,
            "maxFee": "",
            "nonce": 21,
            "overwritedBlockNumber": -1,
            "priorityFee": "",
            "receiver": "0xa0b86991c6218b36c1d19d4a2e9eb0ce3606eb48",
            "revertMessage": "",
            "sender": "0x1e56a35d944eb7d470d9ea3f78c8bc35fb80c7d0",
            "simulationEnable": true,
            "sourceTxnHash": "0x16923c2ee1883797a571c4054600fcba84b0b5d0290b10450cb3a0ddf8104eff",
            "status": true,
            "timestamp": "2021-03-02T20:03:29Z",
            "transactionFee": "0.0041094075",
            "txnHash": "0x16923c2ee1883797a571c4054600fcba84b0b5d0290b10450cb3a0ddf8104eff",
            "txnIndex": 142,
            "type": 0,
            "value": "0"
        },
        "fund_flow": [],
        "token_infos": [
            {
                "address": "0xc02aaa39b223fe8d0a0e5c4f27ead9083c756cc2",
                "decimals": 18
            },
            {
                "address": "0xeeeeeeeeeeeeeeeeeeeeeeeeeeeeeeeeeeeeeeee",
                "decimals": 18
            }
        ]
    },
    "address_label": {
        "labels": [
            {
                "address": "0xa0b86991c6218b36c1d19d4a2e9eb0ce3606eb48",
                "label": "Circle: USDC Token"
            },
            {
                "address": "0x0000000000000000000000000000000000000001",
                "label": "Precompiled"
            },
            {
                "address": "0x0000000000000000000000000000000000000002",
                "label": "Precompiled"
            },
            {
                "address": "0x0000000000000000000000000000000000000003",
                "label": "Precompiled"
            },
            {
                "address": "0x0000000000000000000000000000000000000004",
                "label": "Precompiled"
            },
            {
                "address": "0xeeeeeeeeeeeeeeeeeeeeeeeeeeeeeeeeeeeeeeee",
                "label": "Ether"
            },
            {
                "address": "0x7a250d5630b4cf539739df2c5dacb4c659f2488d",
                "label": "Uniswap V2: Router 2"
            },
            {
                "address": "0xb7277a6e95992041568d9391d09d0122023778a2",
                "label": "FiatTokenV2"
            }
        ]
    },
    "trace": {
        "accountLabels": null,
        "dataMap": {
            "-1": {
                "invocation": {
                    "address": "0x1e56a35d944eb7d470d9ea3f78c8bc35fb80c7d0",
                    "callData": "",
                    "decodedMethod": null,
                    "errorInfo": "",
                    "fromAddress": "",
                    "gasUsed": 0,
                    "id": -1,
                    "methodDecoded": false,
                    "operation": "",
                    "output": "",
                    "revert": false,
                    "revertMessage": "",
                    "selector": "",
                    "status": false,
                    "value": ""
                },
                "nodeType": 0
            },
            "0": {
                "invocation": {
                    "address": "0xa0b86991c6218b36c1d19d4a2e9eb0ce3606eb48",
                    "callData": "0x0000000000000000000000007a250d5630b4cf539739df2c5dacb4c659f2488dffffffffffffffffffffffffffffffffffffffffffffffffffffffffffffffff",
                    "decodedMethod": {
                        "callParams": [
                            {
                                "name": "spender",
                                "type": "address",
                                "value": "0x7a250d5630b4cf539739df2c5dacb4c659f2488d"
                            },
                            {
                                "decimalAvailable": true,
                                "name": "value",
                                "type": "uint256",
                                "value": "115,792,089,237,316,195,423,570,985,008,687,907,853,269,984,665,640,564,039,457,584,007,913,129,639,935"
                            }
                        ],
                        "constructorArguments": "",
                        "name": "approve",
                        "returnParams": [
                            {
                                "name": "",
                                "type": "bool",
                                "value": true
                            }
                        ],
                        "signature": "approve(address,uint256)"
                    },
                    "errorInfo": "",
                    "fromAddress": "0x1e56a35d944eb7d470d9ea3f78c8bc35fb80c7d0",
                    "gasUsed": 49811,
                    "id": 0,
                    "methodDecoded": true,
                    "operation": "CALL",
                    "output": "0x0000000000000000000000000000000000000000000000000000000000000001",
                    "revert": false,
                    "revertMessage": "",
                    "selector": "0x095ea7b3",
                    "status": true,
                    "value": "0"
                },
                "nodeType": 0
            },
            "1": {
                "invocation": {
                    "address": "0xb7277a6e95992041568d9391d09d0122023778a2",
                    "callData": "0x0000000000000000000000007a250d5630b4cf539739df2c5dacb4c659f2488dffffffffffffffffffffffffffffffffffffffffffffffffffffffffffffffff",
                    "decodedMethod": {
                        "callParams": [
                            {
                                "name": "spender",
                                "type": "address",
                                "value": "0x7a250d5630b4cf539739df2c5dacb4c659f2488d"
                            },
                            {
                                "decimalAvailable": true,
                                "name": "value",
                                "type": "uint256",
                                "value": "115,792,089,237,316,195,423,570,985,008,687,907,853,269,984,665,640,564,039,457,584,007,913,129,639,935"
                            }
                        ],
                        "constructorArguments": "",
                        "name": "approve",
                        "returnParams": [
                            {
                                "name": "",
                                "type": "bool",
                                "value": true
                            }
                        ],
                        "signature": "approve(address,uint256)"
                    },
                    "errorInfo": "",
                    "fromAddress": "0xa0b86991c6218b36c1d19d4a2e9eb0ce3606eb48",
                    "gasUsed": 25078,
                    "id": 1,
                    "methodDecoded": true,
                    "operation": "DELEGATECALL",
                    "output": "0x0000000000000000000000000000000000000000000000000000000000000001",
                    "revert": false,
                    "revertMessage": "",
                    "selector": "0x095ea7b3",
                    "status": true,
                    "value": "0"
                },
                "nodeType": 0
            },
            "2": {
                "event": {
                    "contract": "0xa0b86991c6218b36c1d19d4a2e9eb0ce3606eb48",
                    "decodedLog": {
                        "name": "Approval",
                        "params": [
                            {
                                "name": "owner",
                                "type": "address",
                                "value": "0x1e56a35d944eb7d470d9ea3f78c8bc35fb80c7d0"
                            },
                            {
                                "name": "spender",
                                "type": "address",
                                "value": "0x7a250d5630b4cf539739df2c5dacb4c659f2488d"
                            },
                            {
                                "decimalAvailable": true,
                                "name": "value",
                                "type": "uint256",
                                "value": "115,792,089,237,316,195,423,570,985,008,687,907,853,269,984,665,640,564,039,457,584,007,913,129,639,935"
                            }
                        ],
                        "signature": "Approval(address,address,uint256)"
                    },
                    "id": 2,
                    "logData": "0xffffffffffffffffffffffffffffffffffffffffffffffffffffffffffffffff",
                    "logDecoded": true,
                    "operation": "EVENT",
                    "revert": false,
                    "status": true,
                    "topics": [
                        "0x8c5be1e5ebec7d5bd14f71427d1e84f3dd0314c0f7b2291e5b200ac8c7c3b925",
                        "0x0000000000000000000000001e56a35d944eb7d470d9ea3f78c8bc35fb80c7d0",
                        "0x0000000000000000000000007a250d5630b4cf539739df2c5dacb4c659f2488d"
                    ]
                },
                "nodeType": 1
            }
        },
        "gasFlame": [
            {
                "children": [
                    {
                        "children": [
                            {
                                "children": [],
                                "depth": 0,
                                "name": "Initial Gas",
                                "value": 21944
                            },
                            {
                                "children": [
                                    {
                                        "children": [],
                                        "depth": 1,
                                        "name": "approve",
                                        "value": 25078
                                    }
                                ],
                                "depth": 0,
                                "name": "Executed Gas",
                                "value": 27867
                            }
                        ],
                        "depth": -1,
                        "name": "Actual Gas Used",
                        "value": 49811
                    },
                    {
                        "children": [],
                        "depth": -1,
                        "name": "Refunded Gas",
                        "value": 0
                    }
                ],
                "depth": -2,
                "name": "Total Gas",
                "value": 49811
            }
        ],
        "isConfirmed": true,
        "mainTrace": [
            {
                "children": [
                    {
                        "children": [
                            {
                                "children": [
                                    {
                                        "children": [],
                                        "depth": 2,
                                        "id": 2,
                                        "order": 2
                                    }
                                ],
                                "depth": 1,
                                "id": 1,
                                "order": 1
                            }
                        ],
                        "depth": 0,
                        "id": 0,
                        "order": 0
                    }
                ],
                "depth": -1,
                "id": -1,
                "order": -1
            }
        ],
        "mainTraceNodeCount": 3,
        "parentIdMap": {
            "0": -1,
            "1": 0,
            "2": 1
        },
        "tidyTrace": [
            {
                "children": [
                    {
                        "children": [
                            {
                                "children": [
                                    {
                                        "children": [],
                                        "depth": 2,
                                        "id": 2,
                                        "order": 2
                                    }
                                ],
                                "depth": 1,
                                "id": 1,
                                "order": 1
                            }
                        ],
                        "depth": 0,
                        "id": 0,
                        "order": 0
                    }
                ],
                "depth": -1,
                "id": -1,
                "order": -1
            }
        ],
        "tidyTraceNodeCount": 3
    },
    "state_change": {
        "stateChanges": [
            {
                "address": "0xa0b86991c6218b36c1d19d4a2e9eb0ce3606eb48",
                "erc": "ERC-20",
                "slots": [
                    {
                        "current": "0xffffffffffffffffffffffffffffffffffffffffffffffffffffffffffffffff",
                        "key": "0xe219cf75e009e9b8f0f310f4b88ee64de5f49ddb1bdcc0c7f7a091efc9695dc8",
                        "prev": "0x0000000000000000000000000000000000000000000000000000000000000000"
                    }
                ],
                "storageVariables": [
                    {
                        "name": "allowed",
                        "type": "mapping(address => mapping(address => uint256))",
                        "value": {
                            "pairs": [
                                {
                                    "key": "0x1e56a35d944eb7d470d9ea3f78c8bc35fb80c7d0",
                                    "value": {
                                        "pairs": [
                                            {
                                                "key": "0x7a250d5630b4cf539739df2c5dacb4c659f2488d",
                                                "value": {
                                                    "current": "115792089237316195423570985008687907853269984665640564039457584007913129639935",
                                                    "prev": "0",
                                                    "typeTag": 1
                                                }
                                            }
                                        ],
                                        "typeTag": 4
                                    }
                                }
                            ],
                            "typeTag": 4
                        }
                    }
                ]
            }
        ]
    }
}