{
    "balance_change": {
        "balanceChanges": [
            {
                "account": "0x9f0a1bcd44f522318900e70a2617c0056378bb2d",
                "assets": [
                    {
                        "address": "0xeeeeeeeeeeeeeeeeeeeeeeeeeeeeeeeeeeeeeeee",
                        "amount": "0.000953105",
                        "iconUrl": "https://assets.blocksec.com/image/1663669189317-3.png",
                        "isERC1155": false,
                        "isERC721": false,
                        "sign": false,
                        "value": ""
                    }
                ]
            },
            {
                "account": "0x0000000000000000000000000000000000000000",
                "assets": [
                    {
                        "address": "0xb55c5cac5014c662fdbf21a2c59cd45403c482fd",
                        "amount": "1",
                        "iconUrl": "",
                        "isERC1155": false,
                        "isERC721": true,
                        "sign": false,
                        "tokenID": "226854804792636511974305239776633727658",
                        "value": ""
                    }
                ]
            },
            {
                "account": "0xb55c5cac5014c662fdbf21a2c59cd45403c482fd",
                "assets": [
                    {
                        "address": "0xeeeeeeeeeeeeeeeeeeeeeeeeeeeeeeeeeeeeeeee",
                        "amount": "0.000953105",
                        "iconUrl": "https://assets.blocksec.com/image/1663669189317-3.png",
                        "isERC1155": false,
                        "isERC721": false,
                        "sign": true,
                        "value": ""
                    },
                    {
                        "address": "0xb55c5cac5014c662fdbf21a2c59cd45403c482fd",
                        "amount": "1",
                        "iconUrl": "",
                        "isERC1155": false,
                        "isERC721": true,
                        "sign": true,
                        "tokenID": "226854804792636511974305239776633727658",
                        "value": ""
                    }
                ]
            }
        ]
    },
    "profile": {
        "basic_info": {
            "baseFee": "",
            "blockNumber": 8394892,
            "callData": "0x43be0880b5532d9a3b6ed699126e2abbbb52d9169c9b1ce775cd5e86ae98614a00000000832f4e787fe7efbd83e488d7f5f2fd1fd77d1c3ef1f3ee07800000000000000000000000000000000000000000000000aaaaa56a996a969a969a996aa56aaaaa00000000000000000000000000000000000000000000000000000000000000040000000000000000000000000000000000000000000000000000000000000000",
            "debugEnable": true,
            "errorInfo": "",
            "eventCount": 5,
            "feeRecipient": "0xeea5b82b61424df8020f5fedd81767f2d0d25bfb",
            "formatValue": "0.000953105",
            "gasLimit": 550000,
            "gasPrice": "4",
            "gasUsed": 346167,
            "intTxnCount": 10,
            "internalRevert": false,
            "internalRevertMessage": "",
            "isContractCreation": false,
            "isFlashloan": false,
            "maxFee": "",
            "nonce": 2137,
            "overwritedBlockNumber": -1,
            "priorityFee": "",
            "receiver": "0x521d32f3d23f1fc82b1dbe306edc3ef668e5d973",
            "revertMessage": "",
            "sender": "0x9f0a1bcd44f522318900e70a2617c0056378bb2d",
            "simulationEnable": true,
            "sourceTxnHash": "0x1685ef9668cf516947abe8f7f733418669e421af863c7290669eb697ef5bbccd",
            "status": true,
            "timestamp": "2019-08-21T17:08:38Z",
            "transactionFee": "0.001384668",
            "txnHash": "0x1685ef9668cf516947abe8f7f733418669e421af863c7290669eb697ef5bbccd",
            "txnIndex": 85,
            "type": 0,
            "value": "953105000000000"
        },
        "fund_flow": [
            {
                "amount": "0.000953105",
                "from": "0x9f0a1bcd44f522318900e70a2617c0056378bb2d",
                "id": 1,
                "isERC1155": false,
                "isERC721": false,
                "isReverted": false,
                "order": 1,
                "to": "0x521d32f3d23f1fc82b1dbe306edc3ef668e5d973",
                "token": "0xeeeeeeeeeeeeeeeeeeeeeeeeeeeeeeeeeeeeeeee"
            },
            {
                "amount": "0.000953105",
                "from": "0x521d32f3d23f1fc82b1dbe306edc3ef668e5d973",
                "id": 2,
                "isERC1155": false,
                "isERC721": false,
                "isReverted": false,
                "order": 2,
                "to": "0xb55c5cac5014c662fdbf21a2c59cd45403c482fd",
                "token": "0xeeeeeeeeeeeeeeeeeeeeeeeeeeeeeeeeeeeeeeee"
            },
            {
                "amount": "1",
                "from": "0x0000000000000000000000000000000000000000",
                "id": 3,
                "isERC1155": false,
                "isERC721": true,
                "isReverted": false,
                "order": 3,
                "to": "0xb55c5cac5014c662fdbf21a2c59cd45403c482fd",
                "token": "0xb55c5cac5014c662fdbf21a2c59cd45403c482fd",
                "tokenID": "226854804792636511974305239776633727658"
            }
        ],
        "token_infos": [
            {
                "address": "0xc02aaa39b223fe8d0a0e5c4f27ead9083c756cc2",
                "decimals": 18
            },
            {
                "address": "0xeeeeeeeeeeeeeeeeeeeeeeeeeeeeeeeeeeeeeeee",
                "decimals": 18
            }
        ]
    },
    "address_label": {
        "labels": [
            {
                "address": "0x0000000000000000000000000000000000000003",
                "label": "Precompiled"
            },
            {
                "address": "0x0000000000000000000000000000000000000004",
                "label": "Precompiled"
            },
            {
                "address": "0xeeeeeeeeeeeeeeeeeeeeeeeeeeeeeeeeeeeeeeee",
                "label": "Ether"
            },
            {
                "address": "0xb55c5cac5014c662fdbf21a2c59cd45403c482fd",
                "label": "Clovers Network: CLV Token"
            },
            {
                "address": "0x521d32f3d23f1fc82b1dbe306edc3ef668e5d973",
                "label": "CloversController"
            },
            {
                "address": "0x0000000000000000000000000000000000000001",
                "label": "Precompiled"
            },
            {
                "address": "0x0000000000000000000000000000000000000002",
                "label": "Precompiled"
            }
        ]
    },
    "trace": {
        "accountLabels": null,
        "dataMap": {
            "-1": {
                "invocation": {
                    "address": "0x9f0a1bcd44f522318900e70a2617c0056378bb2d",
                    "callData": "",
                    "decodedMethod": null,
                    "errorInfo": "",
                    "fromAddress": "",
                    "gasUsed": 0,
                    "id": -1,
                    "methodDecoded": false,
                    "operation": "",
                    "output": "",
                    "revert": false,
                    "revertMessage": "",
                    "selector": "",
                    "status": false,
                    "value": ""
                },
                "nodeType": 0
            },
            "0": {
                "invocation": {
                    "address": "0x521d32f3d23f1fc82b1dbe306edc3ef668e5d973",
                    "callData": "0xb5532d9a3b6ed699126e2abbbb52d9169c9b1ce775cd5e86ae98614a00000000832f4e787fe7efbd83e488d7f5f2fd1fd77d1c3ef1f3ee07800000000000000000000000000000000000000000000000aaaaa56a996a969a969a996aa56aaaaa00000000000000000000000000000000000000000000000000000000000000040000000000000000000000000000000000000000000000000000000000000000",
                    "decodedMethod": {
                        "callParams": [
                            {
                                "name": "moves",
                                "type": "bytes28[2]",
                                "value": [
                                    "0xb5532d9a3b6ed699126e2abbbb52d9169c9b1ce775cd5e86ae98614a",
                                    "0x832f4e787fe7efbd83e488d7f5f2fd1fd77d1c3ef1f3ee0780000000"
                                ]
                            },
                            {
                                "name": "_tokenId",
                                "type": "uint256",
                                "value": "226,854,804,792,636,511,974,305,239,776,633,727,658"
                            },
                            {
                                "name": "_symmetries",
                                "type": "uint256",
                                "value": "4"
                            },
                            {
                                "name": "_keep",
                                "type": "bool",
                                "value": false
                            }
                        ],
                        "constructorArguments": "",
                        "name": "claimClover",
                        "returnParams": [
                            {
                                "name": "",
                                "type": "bool",
                                "value": true
                            }
                        ],
                        "signature": "claimClover(bytes28[2],uint256,uint256,bool)"
                    },
                    "errorInfo": "",
                    "fromAddress": "0x9f0a1bcd44f522318900e70a2617c0056378bb2d",
                    "gasUsed": 346167,
                    "id": 0,
                    "methodDecoded": true,
                    "operation": "CALL",
                    "output": "0x0000000000000000000000000000000000000000000000000000000000000001",
                    "revert": false,
                    "revertMessage": "",
                    "selector": "0x43be0880",
                    "status": true,
                    "value": "0.000953105"
                },
                "nodeType": 0
            },
            "1": {
                "event": {
                    "contract": "0x521d32f3d23f1fc82b1dbe306edc3ef668e5d973",
                    "decodedLog": {
                        "name": "cloverClaimed",
                        "params": [
                            {
                                "name": "moves",
                                "type": "bytes28[2]",
                                "value": [
                                    "0xb5532d9a3b6ed699126e2abbbb52d9169c9b1ce775cd5e86ae98614a",
                                    "0x832f4e787fe7efbd83e488d7f5f2fd1fd77d1c3ef1f3ee0780000000"
                                ]
                            },
                            {
                                "name": "tokenId",
                                "type": "uint256",
                                "value": "226,854,804,792,636,511,974,305,239,776,633,727,658"
                            },
                            {
                                "name": "owner",
                                "type": "address",
                                "value": "0x9f0a1bcd44f522318900e70a2617c0056378bb2d"
                            },
                            {
                                "name": "stake",
                                "type": "uint256",
                                "value": "226,854,804,792,636,511,974,305,239,776,633,727,658"
                            },
                            {
                                "name": "reward",
                                "type": "uint256",
                                "value": "226,854,804,792,636,511,974,305,239,776,633,727,658"
                            },
                            {
                                "name": "symmetries",
                                "type": "uint256",
                                "value": "4"
                            },
                            {
                                "name": "keep",
                                "type": "bool",
                                "value": false
                            }
                        ],
                        "signature": "cloverClaimed(bytes28[2],uint256,address,uint256,uint256,uint256,bool)"
                    },
                    "id": 1,
                    "logData": "0xb5532d9a3b6ed699126e2abbbb52d9169c9b1ce775cd5e86ae98614a00000000832f4e787fe7efbd83e488d7f5f2fd1fd77d1c3ef1f3ee07800000000000000000000000000000000000000000000000aaaaa56a996a969a969a996aa56aaaaa0000000000000000000000009f0a1bcd44f522318900e70a2617c0056378bb2d00000000000000000000000000000000aaaaa56a996a969a969a996aa56aaaaa00000000000000000000000000000000aaaaa56a996a969a969a996aa56aaaaa00000000000000000000000000000000000000000000000000000000000000040000000000000000000000000000000000000000000000000000000000000000",
                    "logDecoded": true,
                    "operation": "EVENT",
                    "revert": false,
                    "status": true,
                    "topics": [
                        "0x1c3b3e1e72950ae52150ec48810521d17cea4b30c2a59c807d1ba2f8dff57e65"
                    ]
                },
                "nodeType": 1
            },
            "10": {
                "invocation": {
                    "address": "0xb55c5cac5014c662fdbf21a2c59cd45403c482fd",
                    "callData": "0x",
                    "decodedMethod": {
                        "callParams": [],
                        "constructorArguments": "",
                        "name": "getAllSymmetries",
                        "returnParams": [
                            {
                                "name": "",
                                "type": "uint256",
                                "value": "7,985"
                            },
                            {
                                "name": "",
                                "type": "uint256",
                                "value": "731"
                            },
                            {
                                "name": "",
                                "type": "uint256",
                                "value": "1,308"
                            },
                            {
                                "name": "",
                                "type": "uint256",
                                "value": "1,300"
                            },
                            {
                                "name": "",
                                "type": "uint256",
                                "value": "2,384"
                            },
                            {
                                "name": "",
                                "type": "uint256",
                                "value": "2,550"
                            }
                        ],
                        "signature": "getAllSymmetries()"
                    },
                    "errorInfo": "",
                    "fromAddress": "0x521d32f3d23f1fc82b1dbe306edc3ef668e5d973",
                    "gasUsed": 2366,
                    "id": 10,
                    "methodDecoded": true,
                    "operation": "CALL",
                    "output": "0x0000000000000000000000000000000000000000000000000000000000001f3100000000000000000000000000000000000000000000000000000000000002db000000000000000000000000000000000000000000000000000000000000051c0000000000000000000000000000000000000000000000000000000000000514000000000000000000000000000000000000000000000000000000000000095000000000000000000000000000000000000000000000000000000000000009f6",
                    "revert": false,
                    "revertMessage": "",
                    "selector": "0x785d8d71",
                    "status": true,
                    "value": "0"
                },
                "nodeType": 0
            },
            "11": {
                "invocation": {
                    "address": "0xb55c5cac5014c662fdbf21a2c59cd45403c482fd",
                    "callData": "0x00000000000000000000000000000000aaaaa56a996a969a969a996aa56aaaaa0000000000000000000000000000000000000000000000001bdb28131aeee863",
                    "decodedMethod": {
                        "callParams": [
                            {
                                "name": "_tokenId",
                                "type": "uint256",
                                "value": "226,854,804,792,636,511,974,305,239,776,633,727,658"
                            },
                            {
                                "name": "_amount",
                                "type": "uint256",
                                "value": "2,007,242,121,445,042,275"
                            }
                        ],
                        "constructorArguments": "",
                        "name": "setReward",
                        "returnParams": [],
                        "signature": "setReward(uint256,uint256)"
                    },
                    "errorInfo": "",
                    "fromAddress": "0x521d32f3d23f1fc82b1dbe306edc3ef668e5d973",
                    "gasUsed": 21456,
                    "id": 11,
                    "methodDecoded": true,
                    "operation": "CALL",
                    "output": "",
                    "revert": false,
                    "revertMessage": "",
                    "selector": "0xa47bd496",
                    "status": true,
                    "value": "0"
                },
                "nodeType": 0
            },
            "12": {
                "invocation": {
                    "address": "0xb55c5cac5014c662fdbf21a2c59cd45403c482fd",
                    "callData": "0x000000000000000000000000b55c5cac5014c662fdbf21a2c59cd45403c482fd00000000000000000000000000000000aaaaa56a996a969a969a996aa56aaaaa",
                    "decodedMethod": {
                        "callParams": [
                            {
                                "name": "_to",
                                "type": "address",
                                "value": "0xb55c5cac5014c662fdbf21a2c59cd45403c482fd"
                            },
                            {
                                "name": "_tokenId",
                                "type": "uint256",
                                "value": "226,854,804,792,636,511,974,305,239,776,633,727,658"
                            }
                        ],
                        "constructorArguments": "",
                        "name": "mint",
                        "returnParams": [],
                        "signature": "mint(address,uint256)"
                    },
                    "errorInfo": "",
                    "fromAddress": "0x521d32f3d23f1fc82b1dbe306edc3ef668e5d973",
                    "gasUsed": 127158,
                    "id": 12,
                    "methodDecoded": true,
                    "operation": "CALL",
                    "output": "",
                    "revert": false,
                    "revertMessage": "",
                    "selector": "0x40c10f19",
                    "status": true,
                    "value": "0"
                },
                "nodeType": 0
            },
            "13": {
                "event": {
                    "contract": "0xb55c5cac5014c662fdbf21a2c59cd45403c482fd",
                    "decodedLog": {
                        "name": "Transfer",
                        "params": [
                            {
                                "name": "_from",
                                "type": "address",
                                "value": "0x0000000000000000000000000000000000000000"
                            },
                            {
                                "name": "_to",
                                "type": "address",
                                "value": "0xb55c5cac5014c662fdbf21a2c59cd45403c482fd"
                            },
                            {
                                "decimalAvailable": true,
                                "name": "_tokenId",
                                "type": "uint256",
                                "value": "226,854,804,792,636,511,974,305,239,776,633,727,658"
                            }
                        ],
                        "signature": "Transfer(address,address,uint256)"
                    },
                    "id": 13,
                    "logData": "0x",
                    "logDecoded": true,
                    "operation": "EVENT",
                    "revert": false,
                    "status": true,
                    "topics": [
                        "0xddf252ad1be2c89b69c2b068fc378daa952ba7f163c4a11628f55a4df523b3ef",
                        "0x0000000000000000000000000000000000000000000000000000000000000000",
                        "0x000000000000000000000000b55c5cac5014c662fdbf21a2c59cd45403c482fd",
                        "0x00000000000000000000000000000000aaaaa56a996a969a969a996aa56aaaaa"
                    ]
                },
                "nodeType": 1
            },
            "14": {
                "event": {
                    "contract": "0xb55c5cac5014c662fdbf21a2c59cd45403c482fd",
                    "decodedLog": {
                        "name": "ApprovalForAll",
                        "params": [
                            {
                                "name": "_owner",
                                "type": "address",
                                "value": "0x521d32f3d23f1fc82b1dbe306edc3ef668e5d973"
                            },
                            {
                                "name": "_operator",
                                "type": "address",
                                "value": "0x1754a612ca578f72d678196bcc16710f01db7655"
                            },
                            {
                                "name": "_approved",
                                "type": "bool",
                                "value": true
                            }
                        ],
                        "signature": "ApprovalForAll(address,address,bool)"
                    },
                    "id": 14,
                    "logData": "0x0000000000000000000000000000000000000000000000000000000000000001",
                    "logDecoded": true,
                    "operation": "EVENT",
                    "revert": false,
                    "status": true,
                    "topics": [
                        "0x17307eab39ab6107e8899845ad3d59bd9653f200f220920489ca2b5937696c31",
                        "0x000000000000000000000000521d32f3d23f1fc82b1dbe306edc3ef668e5d973",
                        "0x0000000000000000000000001754a612ca578f72d678196bcc16710f01db7655"
                    ]
                },
                "nodeType": 1
            },
            "15": {
                "event": {
                    "contract": "0x521d32f3d23f1fc82b1dbe306edc3ef668e5d973",
                    "decodedLog": {
                        "name": "cloverClaimed",
                        "params": [
                            {
                                "name": "moves",
                                "type": "bytes28[2]",
                                "value": [
                                    "0xb5532d9a3b6ed699126e2abbbb52d9169c9b1ce775cd5e86ae98614a",
                                    "0x832f4e787fe7efbd83e488d7f5f2fd1fd77d1c3ef1f3ee0780000000"
                                ]
                            },
                            {
                                "name": "tokenId",
                                "type": "uint256",
                                "value": "226,854,804,792,636,511,974,305,239,776,633,727,658"
                            },
                            {
                                "name": "owner",
                                "type": "address",
                                "value": "0x9f0a1bcd44f522318900e70a2617c0056378bb2d"
                            },
                            {
                                "name": "stake",
                                "type": "uint256",
                                "value": "953,105,000,000,000"
                            },
                            {
                                "name": "reward",
                                "type": "uint256",
                                "value": "2,007,242,121,445,042,275"
                            },
                            {
                                "name": "symmetries",
                                "type": "uint256",
                                "value": "4"
                            },
                            {
                                "name": "keep",
                                "type": "bool",
                                "value": false
                            }
                        ],
                        "signature": "cloverClaimed(bytes28[2],uint256,address,uint256,uint256,uint256,bool)"
                    },
                    "id": 15,
                    "logData": "0xb5532d9a3b6ed699126e2abbbb52d9169c9b1ce775cd5e86ae98614a00000000832f4e787fe7efbd83e488d7f5f2fd1fd77d1c3ef1f3ee07800000000000000000000000000000000000000000000000aaaaa56a996a969a969a996aa56aaaaa0000000000000000000000009f0a1bcd44f522318900e70a2617c0056378bb2d000000000000000000000000000000000000000000000000000362d80cf56a000000000000000000000000000000000000000000000000001bdb28131aeee86300000000000000000000000000000000000000000000000000000000000000040000000000000000000000000000000000000000000000000000000000000000",
                    "logDecoded": true,
                    "operation": "EVENT",
                    "revert": false,
                    "status": true,
                    "topics": [
                        "0x1c3b3e1e72950ae52150ec48810521d17cea4b30c2a59c807d1ba2f8dff57e65"
                    ]
                },
                "nodeType": 1
            },
            "2": {
                "invocation": {
                    "address": "0xb55c5cac5014c662fdbf21a2c59cd45403c482fd",
                    "callData": "0x",
                    "decodedMethod": null,
                    "errorInfo": "",
                    "fromAddress": "0x521d32f3d23f1fc82b1dbe306edc3ef668e5d973",
                    "gasUsed": 40,
                    "id": 2,
                    "methodDecoded": false,
                    "operation": "CALL",
                    "output": "",
                    "revert": false,
                    "revertMessage": "",
                    "selector": "fallback",
                    "status": true,
                    "value": "0.000953105"
                },
                "nodeType": 0
            },
            "3": {
                "event": {
                    "contract": "0x521d32f3d23f1fc82b1dbe306edc3ef668e5d973",
                    "decodedLog": {
                        "name": "cloverCommitted",
                        "params": [
                            {
                                "name": "movesHash",
                                "type": "bytes32",
                                "value": "0x989c2544c535a81ea46fa3d7b9a58e4942a3bae96ed4cec11f6b3aacc64dba7d"
                            },
                            {
                                "name": "owner",
                                "type": "address",
                                "value": "0x9f0a1bcd44f522318900e70a2617c0056378bb2d"
                            }
                        ],
                        "signature": "cloverCommitted(bytes32,address)"
                    },
                    "id": 3,
                    "logData": "0x989c2544c535a81ea46fa3d7b9a58e4942a3bae96ed4cec11f6b3aacc64dba7d0000000000000000000000009f0a1bcd44f522318900e70a2617c0056378bb2d",
                    "logDecoded": true,
                    "operation": "EVENT",
                    "revert": false,
                    "status": true,
                    "topics": [
                        "0x4c0f83654ac2972673e4d81058f833de298389df1dce04cc2db9f231b907d5ff"
                    ]
                },
                "nodeType": 1
            },
            "4": {
                "invocation": {
                    "address": "0xb55c5cac5014c662fdbf21a2c59cd45403c482fd",
                    "callData": "0x00000000000000000000000000000000aaaaa56a996a969a969a996aa56aaaaa",
                    "decodedMethod": {
                        "callParams": [
                            {
                                "name": "_tokenId",
                                "type": "uint256",
                                "value": "226,854,804,792,636,511,974,305,239,776,633,727,658"
                            }
                        ],
                        "constructorArguments": "",
                        "name": "exists",
                        "returnParams": [
                            {
                                "name": "",
                                "type": "bool",
                                "value": false
                            }
                        ],
                        "signature": "exists(uint256)"
                    },
                    "errorInfo": "",
                    "fromAddress": "0x521d32f3d23f1fc82b1dbe306edc3ef668e5d973",
                    "gasUsed": 958,
                    "id": 4,
                    "methodDecoded": true,
                    "operation": "CALL",
                    "output": "0x0000000000000000000000000000000000000000000000000000000000000000",
                    "revert": false,
                    "revertMessage": "",
                    "selector": "0x4f558e79",
                    "status": true,
                    "value": "0"
                },
                "nodeType": 0
            },
            "5": {
                "invocation": {
                    "address": "0xb55c5cac5014c662fdbf21a2c59cd45403c482fd",
                    "callData": "0x00000000000000000000000000000000aaaaa56a996a969a969a996aa56aaaaa",
                    "decodedMethod": {
                        "callParams": [
                            {
                                "name": "_tokenId",
                                "type": "uint256",
                                "value": "226,854,804,792,636,511,974,305,239,776,633,727,658"
                            }
                        ],
                        "constructorArguments": "",
                        "name": "getBlockMinted",
                        "returnParams": [
                            {
                                "name": "",
                                "type": "uint256",
                                "value": "0"
                            }
                        ],
                        "signature": "getBlockMinted(uint256)"
                    },
                    "errorInfo": "",
                    "fromAddress": "0x521d32f3d23f1fc82b1dbe306edc3ef668e5d973",
                    "gasUsed": 484,
                    "id": 5,
                    "methodDecoded": true,
                    "operation": "CALL",
                    "output": "0x0000000000000000000000000000000000000000000000000000000000000000",
                    "revert": false,
                    "revertMessage": "",
                    "selector": "0x03a53d6b",
                    "status": true,
                    "value": "0"
                },
                "nodeType": 0
            },
            "6": {
                "invocation": {
                    "address": "0xb55c5cac5014c662fdbf21a2c59cd45403c482fd",
                    "callData": "0x00000000000000000000000000000000aaaaa56a996a969a969a996aa56aaaaa000000000000000000000000000000000000000000000000000000000080188c",
                    "decodedMethod": {
                        "callParams": [
                            {
                                "name": "_tokenId",
                                "type": "uint256",
                                "value": "226,854,804,792,636,511,974,305,239,776,633,727,658"
                            },
                            {
                                "name": "value",
                                "type": "uint256",
                                "value": "8,394,892"
                            }
                        ],
                        "constructorArguments": "",
                        "name": "setBlockMinted",
                        "returnParams": [],
                        "signature": "setBlockMinted(uint256,uint256)"
                    },
                    "errorInfo": "",
                    "fromAddress": "0x521d32f3d23f1fc82b1dbe306edc3ef668e5d973",
                    "gasUsed": 21610,
                    "id": 6,
                    "methodDecoded": true,
                    "operation": "CALL",
                    "output": "",
                    "revert": false,
                    "revertMessage": "",
                    "selector": "0xe3100d1e",
                    "status": true,
                    "value": "0"
                },
                "nodeType": 0
            },
            "7": {
                "invocation": {
                    "address": "0xb55c5cac5014c662fdbf21a2c59cd45403c482fd",
                    "callData": "0x00000000000000000000000000000000aaaaa56a996a969a969a996aa56aaaaab5532d9a3b6ed699126e2abbbb52d9169c9b1ce775cd5e86ae98614a00000000832f4e787fe7efbd83e488d7f5f2fd1fd77d1c3ef1f3ee078000000000000000",
                    "decodedMethod": {
                        "callParams": [
                            {
                                "name": "_tokenId",
                                "type": "uint256",
                                "value": "226,854,804,792,636,511,974,305,239,776,633,727,658"
                            },
                            {
                                "name": "moves",
                                "type": "bytes28[2]",
                                "value": [
                                    "0xb5532d9a3b6ed699126e2abbbb52d9169c9b1ce775cd5e86ae98614a",
                                    "0x832f4e787fe7efbd83e488d7f5f2fd1fd77d1c3ef1f3ee0780000000"
                                ]
                            }
                        ],
                        "constructorArguments": "",
                        "name": "setCloverMoves",
                        "returnParams": [],
                        "signature": "setCloverMoves(uint256,bytes28[2])"
                    },
                    "errorInfo": "",
                    "fromAddress": "0x521d32f3d23f1fc82b1dbe306edc3ef668e5d973",
                    "gasUsed": 41578,
                    "id": 7,
                    "methodDecoded": true,
                    "operation": "CALL",
                    "output": "",
                    "revert": false,
                    "revertMessage": "",
                    "selector": "0x0b628395",
                    "status": true,
                    "value": "0"
                },
                "nodeType": 0
            },
            "8": {
                "invocation": {
                    "address": "0xb55c5cac5014c662fdbf21a2c59cd45403c482fd",
                    "callData": "0x00000000000000000000000000000000aaaaa56a996a969a969a996aa56aaaaa0000000000000000000000000000000000000000000000000000000000000000",
                    "decodedMethod": {
                        "callParams": [
                            {
                                "name": "_tokenId",
                                "type": "uint256",
                                "value": "226,854,804,792,636,511,974,305,239,776,633,727,658"
                            },
                            {
                                "name": "value",
                                "type": "bool",
                                "value": false
                            }
                        ],
                        "constructorArguments": "",
                        "name": "setKeep",
                        "returnParams": [],
                        "signature": "setKeep(uint256,bool)"
                    },
                    "errorInfo": "",
                    "fromAddress": "0x521d32f3d23f1fc82b1dbe306edc3ef668e5d973",
                    "gasUsed": 6469,
                    "id": 8,
                    "methodDecoded": true,
                    "operation": "CALL",
                    "output": "",
                    "revert": false,
                    "revertMessage": "",
                    "selector": "0x76e4a87f",
                    "status": true,
                    "value": "0"
                },
                "nodeType": 0
            },
            "9": {
                "invocation": {
                    "address": "0xb55c5cac5014c662fdbf21a2c59cd45403c482fd",
                    "callData": "0x00000000000000000000000000000000aaaaa56a996a969a969a996aa56aaaaa0000000000000000000000000000000000000000000000000000000000000004",
                    "decodedMethod": {
                        "callParams": [
                            {
                                "name": "_tokenId",
                                "type": "uint256",
                                "value": "226,854,804,792,636,511,974,305,239,776,633,727,658"
                            },
                            {
                                "name": "_symmetries",
                                "type": "uint256",
                                "value": "4"
                            }
                        ],
                        "constructorArguments": "",
                        "name": "setSymmetries",
                        "returnParams": [],
                        "signature": "setSymmetries(uint256,uint256)"
                    },
                    "errorInfo": "",
                    "fromAddress": "0x521d32f3d23f1fc82b1dbe306edc3ef668e5d973",
                    "gasUsed": 21588,
                    "id": 9,
                    "methodDecoded": true,
                    "operation": "CALL",
                    "output": "",
                    "revert": false,
                    "revertMessage": "",
                    "selector": "0xdc3f7758",
                    "status": true,
                    "value": "0"
                },
                "nodeType": 0
            }
        },
        "gasFlame": [
            {
                "children": [
                    {
                        "children": [
                            {
                                "children": [],
                                "depth": 0,
                                "name": "Initial Gas",
                                "value": 26392
                            },
                            {
                                "children": [
                                    {
                                        "children": [],
                                        "depth": 1,
                                        "name": "fallback",
                                        "value": 40
                                    },
                                    {
                                        "children": [],
                                        "depth": 1,
                                        "name": "exists",
                                        "value": 958
                                    },
                                    {
                                        "children": [],
                                        "depth": 1,
                                        "name": "getBlockMinted",
                                        "value": 484
                                    },
                                    {
                                        "children": [],
                                        "depth": 1,
                                        "name": "setBlockMinted",
                                        "value": 21610
                                    },
                                    {
                                        "children": [],
                                        "depth": 1,
                                        "name": "setCloverMoves",
                                        "value": 41578
                                    },
                                    {
                                        "children": [],
                                        "depth": 1,
                                        "name": "setKeep",
                                        "value": 6469
                                    },
                                    {
                                        "children": [],
                                        "depth": 1,
                                        "name": "setSymmetries",
                                        "value": 21588
                                    },
                                    {
                                        "children": [],
                                        "depth": 1,
                                        "name": "getAllSymmetries",
                                        "value": 2366
                                    },
                                    {
                                        "children": [],
                                        "depth": 1,
                                        "name": "setReward",
                                        "value": 21456
                                    },
                                    {
                                        "children": [],
                                        "depth": 1,
                                        "name": "mint",
                                        "value": 127158
                                    }
                                ],
                                "depth": 0,
                                "name": "Executed Gas",
                                "value": 319775
                            }
                        ],
                        "depth": -1,
                        "name": "Actual Gas Used",
                        "value": 346167
                    },
                    {
                        "children": [],
                        "depth": -1,
                        "name": "Refunded Gas",
                        "value": 0
                    }
                ],
                "depth": -2,
                "name": "Total Gas",
                "value": 346167
            }
        ],
        "isConfirmed": true,
        "mainTrace": [
            {
                "children": [
                    {
                        "children": [
                            {
                                "children": [],
                                "depth": 1,
                                "id": 1,
                                "order": 1
                            },
                            {
                                "children": [],
                                "depth": 1,
                                "id": 2,
                                "order": 2
                            },
                            {
                                "children": [],
                                "depth": 1,
                                "id": 3,
                                "order": 3
                            },
                            {
                                "children": [],
                                "depth": 1,
                                "id": 4,
                                "order": 4
                            },
                            {
                                "children": [],
                                "depth": 1,
                                "id": 5,
                                "order": 5
                            },
                            {
                                "children": [],
                                "depth": 1,
                                "id": 6,
                                "order": 6
                            },
                            {
                                "children": [],
                                "depth": 1,
                                "id": 7,
                                "order": 7
                            },
                            {
                                "children": [],
                                "depth": 1,
                                "id": 8,
                                "order": 8
                            },
                            {
                                "children": [],
                                "depth": 1,
                                "id": 9,
                                "order": 9
                            },
                            {
                                "children": [],
                                "depth": 1,
                                "id": 10,
                                "order": 10
                            },
                            {
                                "children": [],
                                "depth": 1,
                                "id": 11,
                                "order": 11
                            },
                            {
                                "children": [
                                    {
                                        "children": [],
                                        "depth": 2,
                                        "id": 13,
                                        "order": 13
                                    },
                                    {
                                        "children": [],
                                        "depth": 2,
                                        "id": 14,
                                        "order": 14
                                    }
                                ],
                                "depth": 1,
                                "id": 12,
                                "order": 12
                            },
                            {
                                "children": [],
                                "depth": 1,
                                "id": 15,
                                "order": 15
                            }
                        ],
                        "depth": 0,
                        "id": 0,
                        "order": 0
                    }
                ],
                "depth": -1,
                "id": -1,
                "order": -1
            }
        ],
        "mainTraceNodeCount": 16,
        "parentIdMap": {
            "0": -1,
            "1": 0,
            "10": 0,
            "11": 0,
            "12": 0,
            "13": 12,
            "14": 12,
            "15": 0,
            "2": 0,
            "3": 0,
            "4": 0,
            "5": 0,
            "6": 0,
            "7": 0,
            "8": 0,
            "9": 0
        },
        "tidyTrace": [
            {
                "children": [
                    {
                        "children": [
                            {
                                "children": [],
                                "depth": 1,
                                "id": 1,
                                "order": 1
                            },
                            {
                                "children": [],
                                "depth": 1,
                                "id": 2,
                                "order": 2
                            },
                            {
                                "children": [],
                                "depth": 1,
                                "id": 3,
                                "order": 3
                            },
                            {
                                "children": [],
                                "depth": 1,
                                "id": 4,
                                "order": 4
                            },
                            {
                                "children": [],
                                "depth": 1,
                                "id": 5,
                                "order": 5
                            },
                            {
                                "children": [],
                                "depth": 1,
                                "id": 6,
                                "order": 6
                            },
                            {
                                "children": [],
                                "depth": 1,
                                "id": 7,
                                "order": 7
                            },
                            {
                                "children": [],
                                "depth": 1,
                                "id": 8,
                                "order": 8
                            },
                            {
                                "children": [],
                                "depth": 1,
                                "id": 9,
                                "order": 9
                            },
                            {
                                "children": [],
                                "depth": 1,
                                "id": 10,
                                "order": 10
                            },
                            {
                                "children": [],
                                "depth": 1,
                                "id": 11,
                                "order": 11
                            },
                            {
                                "children": [
                                    {
                                        "children": [],
                                        "depth": 2,
                                        "id": 13,
                                        "order": 13
                                    },
                                    {
                                        "children": [],
                                        "depth": 2,
                                        "id": 14,
                                        "order": 14
                                    }
                                ],
                                "depth": 1,
                                "id": 12,
                                "order": 12
                            },
                            {
                                "children": [],
                                "depth": 1,
                                "id": 15,
                                "order": 15
                            }
                        ],
                        "depth": 0,
                        "id": 0,
                        "order": 0
                    }
                ],
                "depth": -1,
                "id": -1,
                "order": -1
            }
        ],
        "tidyTraceNodeCount": 16
    },
    "state_change": {
        "stateChanges": [
            {
                "address": "0x521d32f3d23f1fc82b1dbe306edc3ef668e5d973",
                "erc": "",
                "slots": [
                    {
                        "current": "0x0000000000000000000000009f0a1bcd44f522318900e70a2617c0056378bb2d",
                        "key": "0xe7590074284914a6634eb68492d29a464fcdc172b799dac03ccedc981d2191dc",
                        "prev": "0x0000000000000000000000000000000000000000000000000000000000000000"
                    },
                    {
                        "current": "0x000000000000000000000000000000000000000000000000000362d80cf56a00",
                        "key": "0xe7590074284914a6634eb68492d29a464fcdc172b799dac03ccedc981d2191db",
                        "prev": "0x0000000000000000000000000000000000000000000000000000000000000000"
                    }
                ],
                "storageVariables": [
                    {
                        "name": "commits",
                        "type": "mapping(bytes32 => struct CloversController.Commit)",
                        "value": {
                            "pairs": [
                                {
                                    "key": "0x989c2544c535a81ea46fa3d7b9a58e4942a3bae96ed4cec11f6b3aacc64dba7d",
                                    "value": {
                                        "fields": [
                                            {
                                                "name": "stake",
                                                "type": "uint256",
                                                "value": {
                                                    "current": "953105000000000",
                                                    "prev": "0",
                                                    "typeTag": 1
                                                }
                                            },
                                            {
                                                "name": "committer",
                                                "type": "address",
                                                "value": {
                                                    "current": "0x9f0a1bcd44f522318900e70a2617c0056378bb2d",
                                                    "prev": "0x0000000000000000000000000000000000000000",
                                                    "typeTag": 1
                                                }
                                            }
                                        ],
                                        "typeTag": 3
                                    }
                                }
                            ],
                            "typeTag": 4
                        }
                    }
                ]
            },
            {
                "address": "0xb55c5cac5014c662fdbf21a2c59cd45403c482fd",
                "erc": "ERC-721",
                "slots": [
                    {
                        "current": "0x00000000000000000000000000000000000000000000000000000000000017d7",
                        "key": "0x62ca08ac587ab4e58f8bcce51e98174fc27cb3ed2d48160b0f58454282663c5e",
                        "prev": "0x00000000000000000000000000000000000000000000000000000000000017d6"
                    },
                    {
                        "current": "0x00000000000000000000000000000000aaaaa56a996a969a969a996aa56aaaaa",
                        "key": "0xa829b0340b6dc0e207d91c8df5bb62c8c05de918be359283b1cacd9088c7438d",
                        "prev": "0x0000000000000000000000000000000000000000000000000000000000000000"
                    },
                    {
                        "current": "0x0000000000000000000000000000000000000000000000001bdb28131aeee863",
                        "key": "0x7d25468c55e0b82d363c69b39691541ebe03ef6f3cb50e0f1bb53516015991b4",
                        "prev": "0x0000000000000000000000000000000000000000000000000000000000000000"
                    },
                    {
                        "current": "0x000000000000000000000000000000000000000000000000000000000000251d",
                        "key": "0x72a596d14ca7f8a0be3809814a443ee6b2b152612c3aae173a109086a2d85460",
                        "prev": "0x0000000000000000000000000000000000000000000000000000000000000000"
                    },
                    {
                        "current": "0x000000000000000000000000b55c5cac5014c662fdbf21a2c59cd45403c482fd",
                        "key": "0xd0832a76140b68eb1bd6abf17dd65510a264658bae9e7abf1d47ce80b3f99ad8",
                        "prev": "0x0000000000000000000000000000000000000000000000000000000000000000"
                    },
                    {
                        "current": "0x00000000832f4e787fe7efbd83e488d7f5f2fd1fd77d1c3ef1f3ee0780000000",
                        "key": "0x7d25468c55e0b82d363c69b39691541ebe03ef6f3cb50e0f1bb53516015991b2",
                        "prev": "0x0000000000000000000000000000000000000000000000000000000000000000"
                    },
                    {
                        "current": "0x00000000000000000000000000000000000000000000000000000000000017d6",
                        "key": "0x5c8e73b107dabf8a607928ede9cc7724fbdb14ffc3eab92ea39803c2c837fa75",
                        "prev": "0x0000000000000000000000000000000000000000000000000000000000000000"
                    },
                    {
                        "current": "0x00000000000000000000000000000000000000000000000000000000000017d7",
                        "key": "0x056346beb4d5fe54f9e9b344eebd9b612ee0d662dfca59baa365ad8f32afb51a",
                        "prev": "0x00000000000000000000000000000000000000000000000000000000000017d6"
                    },
                    {
                        "current": "0x000000000000000000000000000000000000000000000000000000000080188c",
                        "key": "0x7d25468c55e0b82d363c69b39691541ebe03ef6f3cb50e0f1bb53516015991b3",
                        "prev": "0x0000000000000000000000000000000000000000000000000000000000000000"
                    },
                    {
                        "current": "0x0000000000000000000000000000000000000000000000000000000000000004",
                        "key": "0x7d25468c55e0b82d363c69b39691541ebe03ef6f3cb50e0f1bb53516015991b0",
                        "prev": "0x0000000000000000000000000000000000000000000000000000000000000000"
                    },
                    {
                        "current": "0x000000000000000000000000000000000000000000000000000000000000251e",
                        "key": "0x0000000000000000000000000000000000000000000000000000000000000009",
                        "prev": "0x000000000000000000000000000000000000000000000000000000000000251d"
                    },
                    {
                        "current": "0x00000000b5532d9a3b6ed699126e2abbbb52d9169c9b1ce775cd5e86ae98614a",
                        "key": "0x7d25468c55e0b82d363c69b39691541ebe03ef6f3cb50e0f1bb53516015991b1",
                        "prev": "0x0000000000000000000000000000000000000000000000000000000000000000"
                    },
                    {
                        "current": "0x00000000000000000000000000000000aaaaa56a996a969a969a996aa56aaaaa",
                        "key": "0x6e1540171b6c0c960b71a7020d9f60077f6af931a8bbf590da0223dacf75eccc",
                        "prev": "0x0000000000000000000000000000000000000000000000000000000000000000"
                    }
                ],
                "storageVariables": [
                    {
                        "name": "ownedTokensIndex",
                        "type": "mapping(uint256 => uint256)",
                        "value": {
                            "pairs": [
                                {
                                    "key": "226854804792636511974305239776633727658",
                                    "value": {
                                        "current": "6102",
                                        "prev": "0",
                                        "typeTag": 1
                                    }
                                }
                            ],
                            "typeTag": 4
                        }
                    },
                    {
                        "name": "clovers",
                        "type": "mapping(uint256 => struct Clovers.Clover)",
                        "value": {
                            "pairs": [
                                {
                                    "key": "226854804792636511974305239776633727658",
                                    "value": {
                                        "fields": [
                                            {
                                                "name": "symmetries",
                                                "type": "uint256",
                                                "value": {
                                                    "current": "4",
                                                    "prev": "0",
                                                    "typeTag": 1
                                                }
                                            },
                                            {
                                                "name": "cloverMoves",
                                                "type": "bytes28[2]",
                                                "value": {
                                                    "elemType": "bytes28",
                                                    "elems": [
                                                        {
                                                            "index": 0,
                                                            "value": {
                                                                "current": "0xb5532d9a3b6ed699126e2abbbb52d9169c9b1ce775cd5e86ae98614a",
                                                                "prev": "0x00000000000000000000000000000000000000000000000000000000",
                                                                "typeTag": 1
                                                            }
                                                        },
                                                        {
                                                            "index": 1,
                                                            "value": {
                                                                "current": "0x832f4e787fe7efbd83e488d7f5f2fd1fd77d1c3ef1f3ee0780000000",
                                                                "prev": "0x00000000000000000000000000000000000000000000000000000000",
                                                                "typeTag": 1
                                                            }
                                                        }
                                                    ],
                                                    "typeTag": 2
                                                }
                                            },
                                            {
                                                "name": "blockMinted",
                                                "type": "uint256",
                                                "value": {
                                                    "current": "8394892",
                                                    "prev": "0",
                                                    "typeTag": 1
                                                }
                                            },
                                            {
                                                "name": "rewards",
                                                "type": "uint256",
                                                "value": {
                                                    "current": "2007242121445042275",
                                                    "prev": "0",
                                                    "typeTag": 1
                                                }
                                            }
                                        ],
                                        "typeTag": 3
                                    }
                                }
                            ],
                            "typeTag": 4
                        }
                    },
                    {
                        "name": "ownedTokens",
                        "type": "mapping(address => uint256[])",
                        "value": {
                            "pairs": [
                                {
                                    "key": "0xb55c5cac5014c662fdbf21a2c59cd45403c482fd",
                                    "value": {
                                        "elemType": "uint256",
                                        "elems": [
                                            {
                                                "index": 6102,
                                                "value": {
                                                    "current": "226854804792636511974305239776633727658",
                                                    "prev": "0",
                                                    "typeTag": 1
                                                }
                                            }
                                        ],
                                        "typeTag": 2
                                    }
                                }
                            ],
                            "typeTag": 4
                        }
                    },
                    {
                        "name": "ownedTokensCount",
                        "type": "mapping(address => uint256)",
                        "value": {
                            "pairs": [
                                {
                                    "key": "0xb55c5cac5014c662fdbf21a2c59cd45403c482fd",
                                    "value": {
                                        "current": "6103",
                                        "prev": "6102",
                                        "typeTag": 1
                                    }
                                }
                            ],
                            "typeTag": 4
                        }
                    },
                    {
                        "name": "allTokensIndex",
                        "type": "mapping(uint256 => uint256)",
                        "value": {
                            "pairs": [
                                {
                                    "key": "226854804792636511974305239776633727658",
                                    "value": {
                                        "current": "9501",
                                        "prev": "0",
                                        "typeTag": 1
                                    }
                                }
                            ],
                            "typeTag": 4
                        }
                    },
                    {
                        "name": "allTokens",
                        "type": "uint256[]",
                        "value": {
                            "elemType": "uint256",
                            "elems": [
                                {
                                    "index": 9501,
                                    "value": {
                                        "current": "226854804792636511974305239776633727658",
                                        "prev": "0",
                                        "typeTag": 1
                                    }
                                }
                            ],
                            "typeTag": 2
                        }
                    },
                    {
                        "name": "tokenOwner",
                        "type": "mapping(uint256 => address)",
                        "value": {
                            "pairs": [
                                {
                                    "key": "226854804792636511974305239776633727658",
                                    "value": {
                                        "current": "0xb55c5cac5014c662fdbf21a2c59cd45403c482fd",
                                        "prev": "0x0000000000000000000000000000000000000000",
                                        "typeTag": 1
                                    }
                                }
                            ],
                            "typeTag": 4
                        }
                    }
                ]
            }
        ]
    }
}