{
    "balance_change": {
        "balanceChanges": [
            {
                "account": "0xc2ddfe84756fa71c39e40ab6289b6889e355786b",
                "assets": [
                    {
                        "address": "0x0000000000a39bb272e79075ade125fd351887ac",
                        "amount": "0.009150094308446717",
                        "iconUrl": "",
                        "isERC1155": false,
                        "isERC721": false,
                        "sign": false,
                        "value": ""
                    }
                ]
            },
            {
                "account": "0x3ef79658b68a427af19fae593f364dad2d61da58",
                "assets": [
                    {
                        "address": "0x0000000000a39bb272e79075ade125fd351887ac",
                        "amount": "0.539150094308446717",
                        "iconUrl": "",
                        "isERC1155": false,
                        "isERC721": false,
                        "sign": true,
                        "value": ""
                    }
                ]
            },
            {
                "account": "0xa69833b9fda816f1bfc79517e7932e64708df0dd",
                "assets": [
                    {
                        "address": "0x0000000000a39bb272e79075ade125fd351887ac",
                        "amount": "0.53",
                        "iconUrl": "",
                        "isERC1155": false,
                        "isERC721": false,
                        "sign": false,
                        "value": ""
                    }
                ]
            }
        ]
    },
    "profile": {
        "basic_info": {
            "baseFee": "60.995810318",
            "blockNumber": 19368218,
            "callData": "0x4658ad620000000000000000000000003ef79658b68a427af19fae593f364dad2d61da58000000000000000000000000c2ddfe84756fa71c39e40ab6289b6889e355786b000000000000000000000000d3d9ddd0cf0a5f0bfb8f7fceae075df687eaebab0000000000000000000000000000000000000000000000000000000000000b3500000000000000000000000000000000000000000000000006f05b59d3b200000000000000000000000000000000000000000000000000000000000065d4526f0000000000000000000000000000000000000000000000000000000000004c2c00000000000000000000000000000000000000000000000000000000000000000000000000000000000000000000000000000000000000000000000000002328000000000000000000000000000000000000000000000000000000000002f4aa000000000000000000000000000000000000000000000000075af03122f50000000000000000000000000000a69833b9fda816f1bfc79517e7932e64708df0dd000000000000000000000000d3d9ddd0cf0a5f0bfb8f7fceae075df687eaebab000000000000000000000000000000000000000000000069626b643f1f60000000000000000000000000000000000000000000000000000000000000000000000000000000000000000000000000000000000000000000000853a0d2313c00000000000000000000000000000000000000000000000000000000000000002328000000000000000000000000000000003c860c10361f84e4a9ddc09b35c097040000000000000000000000000000000000000000000000000000000065e6fa8a0000000000000000000000000000000000000000000000000000000000000564000000000000000000000000473ca1d29a136b935a96380ea342f296b4eea82c00000000000000000000000000000000000000000000000000000000000002c000000000000000000000000000000000000000000000000000000000000000a2b27e42eb7971cdf0eb54fd6d3ddba92b0408b20951219988a74b6c504364ac2a407283ea8f417eafba3d51138ed4dcfe70e85845c93173a78ed2b0de7ff6e1ea1b16cdfd39a6b62230e73736ea51ec89c9a037b04a4c3a643aea700f8cfb875a752b0f3ce30eedc1d430d34e9bfd57cc00687e7be3ea02a4b60f0260b9e9f64bc61b0000000000000000000000000000000000000000000000000000000001278914000000000000000000000000000000000000000000000000000000000000",
            "debugEnable": true,
            "errorInfo": "",
            "eventCount": 4,
            "feeRecipient": "0x95222290dd7278aa3ddd389cc1e1d165cc4bafe5",
            "formatValue": "0",
            "gasLimit": 192183,
            "gasPrice": "62.5",
            "gasUsed": 125955,
            "intTxnCount": 8,
            "internalRevert": false,
            "internalRevertMessage": "",
            "isContractCreation": false,
            "isFlashloan": false,
            "maxFee": "",
            "nonce": 2166,
            "overwritedBlockNumber": -1,
            "priorityFee": "",
            "receiver": "0x29469395eaf6f95920e59f858042f0e28d98a20b",
            "revertMessage": "",
            "sender": "0xc2ddfe84756fa71c39e40ab6289b6889e355786b",
            "simulationEnable": true,
            "sourceTxnHash": "0x1669d4579d1d66a6f4de9956335553c08aa45f0c87943b8f6305a9a54b74be48",
            "status": true,
            "timestamp": "2024-03-05T09:58:35Z",
            "transactionFee": "0.0078721875",
            "txnHash": "0x1669d4579d1d66a6f4de9956335553c08aa45f0c87943b8f6305a9a54b74be48",
            "txnIndex": 76,
            "type": 0,
            "value": "0"
        },
        "fund_flow": [
            {
                "amount": "0.53",
                "from": "0xa69833b9fda816f1bfc79517e7932e64708df0dd",
                "id": 1,
                "isERC1155": false,
                "isERC721": false,
                "isReverted": false,
                "order": 1,
                "to": "0x3ef79658b68a427af19fae593f364dad2d61da58",
                "token": "0x0000000000a39bb272e79075ade125fd351887ac"
            },
            {
                "amount": "0.009150094308446717",
                "from": "0xc2ddfe84756fa71c39e40ab6289b6889e355786b",
                "id": 2,
                "isERC1155": false,
                "isERC721": false,
                "isReverted": false,
                "order": 2,
                "to": "0x3ef79658b68a427af19fae593f364dad2d61da58",
                "token": "0x0000000000a39bb272e79075ade125fd351887ac"
            }
        ],
        "token_infos": [
            {
                "address": "0x0000000000a39bb272e79075ade125fd351887ac",
                "decimals": 18
            },
            {
                "address": "0xc02aaa39b223fe8d0a0e5c4f27ead9083c756cc2",
                "decimals": 18
            },
            {
                "address": "0xeeeeeeeeeeeeeeeeeeeeeeeeeeeeeeeeeeeeeeee",
                "decimals": 18
            }
        ]
    },
    "address_label": {
        "labels": [
            {
                "address": "0x01a656024de4b89e2d0198bf4d468e8fd2358b17",
                "label": "Blur Pool"
            },
            {
                "address": "0x0000000000000000000000000000000000000001",
                "label": "Precompiled"
            },
            {
                "address": "0x0000000000000000000000000000000000000003",
                "label": "Precompiled"
            },
            {
                "address": "0x0000000000000000000000000000000000000004",
                "label": "Precompiled"
            },
            {
                "address": "0x0000000000a39bb272e79075ade125fd351887ac",
                "label": "Blur: Bidding"
            },
            {
                "address": "0x29469395eaf6f95920e59f858042f0e28d98a20b",
                "label": "Blur: Blend"
            },
            {
                "address": "0x5c55cd67a6bd0d4c315b50cb6cd589bfb080017e",
                "label": "Helpers"
            },
            {
                "address": "0xd3d9ddd0cf0a5f0bfb8f7fceae075df687eaebab",
                "label": "Remilio: TEST Token"
            },
            {
                "address": "0xb258ca5559b11cd702f363796522b04d7722ea56",
                "label": "Blend"
            },
            {
                "address": "0x0000000000000000000000000000000000000002",
                "label": "Precompiled"
            },
            {
                "address": "0xeeeeeeeeeeeeeeeeeeeeeeeeeeeeeeeeeeeeeeee",
                "label": "Ether"
            }
        ]
    },
    "trace": {
        "accountLabels": null,
        "dataMap": {
            "-1": {
                "invocation": {
                    "address": "0xc2ddfe84756fa71c39e40ab6289b6889e355786b",
                    "callData": "",
                    "decodedMethod": null,
                    "errorInfo": "",
                    "fromAddress": "",
                    "gasUsed": 0,
                    "id": -1,
                    "methodDecoded": false,
                    "operation": "",
                    "output": "",
                    "revert": false,
                    "revertMessage": "",
                    "selector": "",
                    "status": false,
                    "value": ""
                },
                "nodeType": 0
            },
            "0": {
                "invocation": {
                    "address": "0x29469395eaf6f95920e59f858042f0e28d98a20b",
                    "callData": "0x0000000000000000000000003ef79658b68a427af19fae593f364dad2d61da58000000000000000000000000c2ddfe84756fa71c39e40ab6289b6889e355786b000000000000000000000000d3d9ddd0cf0a5f0bfb8f7fceae075df687eaebab0000000000000000000000000000000000000000000000000000000000000b3500000000000000000000000000000000000000000000000006f05b59d3b200000000000000000000000000000000000000000000000000000000000065d4526f0000000000000000000000000000000000000000000000000000000000004c2c00000000000000000000000000000000000000000000000000000000000000000000000000000000000000000000000000000000000000000000000000002328000000000000000000000000000000000000000000000000000000000002f4aa000000000000000000000000000000000000000000000000075af03122f50000000000000000000000000000a69833b9fda816f1bfc79517e7932e64708df0dd000000000000000000000000d3d9ddd0cf0a5f0bfb8f7fceae075df687eaebab000000000000000000000000000000000000000000000069626b643f1f60000000000000000000000000000000000000000000000000000000000000000000000000000000000000000000000000000000000000000000000853a0d2313c00000000000000000000000000000000000000000000000000000000000000002328000000000000000000000000000000003c860c10361f84e4a9ddc09b35c097040000000000000000000000000000000000000000000000000000000065e6fa8a0000000000000000000000000000000000000000000000000000000000000564000000000000000000000000473ca1d29a136b935a96380ea342f296b4eea82c00000000000000000000000000000000000000000000000000000000000002c000000000000000000000000000000000000000000000000000000000000000a2b27e42eb7971cdf0eb54fd6d3ddba92b0408b20951219988a74b6c504364ac2a407283ea8f417eafba3d51138ed4dcfe70e85845c93173a78ed2b0de7ff6e1ea1b16cdfd39a6b62230e73736ea51ec89c9a037b04a4c3a643aea700f8cfb875a752b0f3ce30eedc1d430d34e9bfd57cc00687e7be3ea02a4b60f0260b9e9f64bc61b0000000000000000000000000000000000000000000000000000000001278914000000000000000000000000000000000000000000000000000000000000",
                    "decodedMethod": {
                        "callParams": [
                            {
                                "name": "lien",
                                "type": "(address,address,address,uint256,uint256,uint256,uint256,uint256,uint256)",
                                "value": [
                                    {
                                        "name": "lender",
                                        "type": "address",
                                        "value": "0x3ef79658b68a427af19fae593f364dad2d61da58"
                                    },
                                    {
                                        "name": "borrower",
                                        "type": "address",
                                        "value": "0xc2ddfe84756fa71c39e40ab6289b6889e355786b"
                                    },
                                    {
                                        "name": "collection",
                                        "type": "address",
                                        "value": "0xd3d9ddd0cf0a5f0bfb8f7fceae075df687eaebab"
                                    },
                                    {
                                        "name": "tokenId",
                                        "type": "uint256",
                                        "value": "2,869"
                                    },
                                    {
                                        "name": "amount",
                                        "type": "uint256",
                                        "value": "500,000,000,000,000,000"
                                    },
                                    {
                                        "name": "startTime",
                                        "type": "uint256",
                                        "value": "1,708,413,551"
                                    },
                                    {
                                        "name": "rate",
                                        "type": "uint256",
                                        "value": "19,500"
                                    },
                                    {
                                        "name": "auctionStartBlock",
                                        "type": "uint256",
                                        "value": "0"
                                    },
                                    {
                                        "name": "auctionDuration",
                                        "type": "uint256",
                                        "value": "9,000"
                                    }
                                ]
                            },
                            {
                                "name": "lienId",
                                "type": "uint256",
                                "value": "193,706"
                            },
                            {
                                "name": "loanAmount",
                                "type": "uint256",
                                "value": "530,000,000,000,000,000"
                            },
                            {
                                "name": "offer",
                                "type": "(address,address,uint256,uint256,uint256,uint256,uint256,uint256,uint256,address)",
                                "value": [
                                    {
                                        "name": "lender",
                                        "type": "address",
                                        "value": "0xa69833b9fda816f1bfc79517e7932e64708df0dd"
                                    },
                                    {
                                        "name": "collection",
                                        "type": "address",
                                        "value": "0xd3d9ddd0cf0a5f0bfb8f7fceae075df687eaebab"
                                    },
                                    {
                                        "name": "totalAmount",
                                        "type": "uint256",
                                        "value": "1,944,000,000,000,000,000,000"
                                    },
                                    {
                                        "name": "minAmount",
                                        "type": "uint256",
                                        "value": "0"
                                    },
                                    {
                                        "name": "maxAmount",
                                        "type": "uint256",
                                        "value": "600,000,000,000,000,000"
                                    },
                                    {
                                        "name": "auctionDuration",
                                        "type": "uint256",
                                        "value": "9,000"
                                    },
                                    {
                                        "name": "salt",
                                        "type": "uint256",
                                        "value": "80,449,692,199,454,758,125,960,224,938,272,003,844"
                                    },
                                    {
                                        "name": "expirationTime",
                                        "type": "uint256",
                                        "value": "1,709,636,234"
                                    },
                                    {
                                        "name": "rate",
                                        "type": "uint256",
                                        "value": "1,380"
                                    },
                                    {
                                        "name": "oracle",
                                        "type": "address",
                                        "value": "0x473ca1d29a136b935a96380ea342f296b4eea82c"
                                    }
                                ]
                            },
                            {
                                "name": "signature",
                                "type": "bytes",
                                "value": "0xb27e42eb7971cdf0eb54fd6d3ddba92b0408b20951219988a74b6c504364ac2a407283ea8f417eafba3d51138ed4dcfe70e85845c93173a78ed2b0de7ff6e1ea1b16cdfd39a6b62230e73736ea51ec89c9a037b04a4c3a643aea700f8cfb875a752b0f3ce30eedc1d430d34e9bfd57cc00687e7be3ea02a4b60f0260b9e9f64bc61b0000000000000000000000000000000000000000000000000000000001278914"
                            }
                        ],
                        "constructorArguments": "",
                        "name": "borrowerRefinance",
                        "returnParams": [],
                        "signature": "borrowerRefinance((address,address,address,uint256,uint256,uint256,uint256,uint256,uint256),uint256,uint256,(address,address,uint256,uint256,uint256,uint256,uint256,uint256,uint256,address),bytes)"
                    },
                    "errorInfo": "",
                    "fromAddress": "0xc2ddfe84756fa71c39e40ab6289b6889e355786b",
                    "gasUsed": 125955,
                    "id": 0,
                    "methodDecoded": true,
                    "operation": "CALL",
                    "output": "",
                    "revert": false,
                    "revertMessage": "",
                    "selector": "0x4658ad62",
                    "status": true,
                    "value": "0"
                },
                "nodeType": 0
            },
            "1": {
                "invocation": {
                    "address": "0xb258ca5559b11cd702f363796522b04d7722ea56",
                    "callData": "0x0000000000000000000000003ef79658b68a427af19fae593f364dad2d61da58000000000000000000000000c2ddfe84756fa71c39e40ab6289b6889e355786b000000000000000000000000d3d9ddd0cf0a5f0bfb8f7fceae075df687eaebab0000000000000000000000000000000000000000000000000000000000000b3500000000000000000000000000000000000000000000000006f05b59d3b200000000000000000000000000000000000000000000000000000000000065d4526f0000000000000000000000000000000000000000000000000000000000004c2c00000000000000000000000000000000000000000000000000000000000000000000000000000000000000000000000000000000000000000000000000002328000000000000000000000000000000000000000000000000000000000002f4aa000000000000000000000000000000000000000000000000075af03122f50000000000000000000000000000a69833b9fda816f1bfc79517e7932e64708df0dd000000000000000000000000d3d9ddd0cf0a5f0bfb8f7fceae075df687eaebab000000000000000000000000000000000000000000000069626b643f1f60000000000000000000000000000000000000000000000000000000000000000000000000000000000000000000000000000000000000000000000853a0d2313c00000000000000000000000000000000000000000000000000000000000000002328000000000000000000000000000000003c860c10361f84e4a9ddc09b35c097040000000000000000000000000000000000000000000000000000000065e6fa8a0000000000000000000000000000000000000000000000000000000000000564000000000000000000000000473ca1d29a136b935a96380ea342f296b4eea82c00000000000000000000000000000000000000000000000000000000000002c000000000000000000000000000000000000000000000000000000000000000a2b27e42eb7971cdf0eb54fd6d3ddba92b0408b20951219988a74b6c504364ac2a407283ea8f417eafba3d51138ed4dcfe70e85845c93173a78ed2b0de7ff6e1ea1b16cdfd39a6b62230e73736ea51ec89c9a037b04a4c3a643aea700f8cfb875a752b0f3ce30eedc1d430d34e9bfd57cc00687e7be3ea02a4b60f0260b9e9f64bc61b0000000000000000000000000000000000000000000000000000000001278914000000000000000000000000000000000000000000000000000000000000",
                    "decodedMethod": {
                        "callParams": [
                            {
                                "name": "lien",
                                "type": "(address,address,address,uint256,uint256,uint256,uint256,uint256,uint256)",
                                "value": [
                                    {
                                        "name": "lender",
                                        "type": "address",
                                        "value": "0x3ef79658b68a427af19fae593f364dad2d61da58"
                                    },
                                    {
                                        "name": "borrower",
                                        "type": "address",
                                        "value": "0xc2ddfe84756fa71c39e40ab6289b6889e355786b"
                                    },
                                    {
                                        "name": "collection",
                                        "type": "address",
                                        "value": "0xd3d9ddd0cf0a5f0bfb8f7fceae075df687eaebab"
                                    },
                                    {
                                        "name": "tokenId",
                                        "type": "uint256",
                                        "value": "2,869"
                                    },
                                    {
                                        "name": "amount",
                                        "type": "uint256",
                                        "value": "500,000,000,000,000,000"
                                    },
                                    {
                                        "name": "startTime",
                                        "type": "uint256",
                                        "value": "1,708,413,551"
                                    },
                                    {
                                        "name": "rate",
                                        "type": "uint256",
                                        "value": "19,500"
                                    },
                                    {
                                        "name": "auctionStartBlock",
                                        "type": "uint256",
                                        "value": "0"
                                    },
                                    {
                                        "name": "auctionDuration",
                                        "type": "uint256",
                                        "value": "9,000"
                                    }
                                ]
                            },
                            {
                                "name": "lienId",
                                "type": "uint256",
                                "value": "193,706"
                            },
                            {
                                "name": "loanAmount",
                                "type": "uint256",
                                "value": "530,000,000,000,000,000"
                            },
                            {
                                "name": "offer",
                                "type": "(address,address,uint256,uint256,uint256,uint256,uint256,uint256,uint256,address)",
                                "value": [
                                    {
                                        "name": "lender",
                                        "type": "address",
                                        "value": "0xa69833b9fda816f1bfc79517e7932e64708df0dd"
                                    },
                                    {
                                        "name": "collection",
                                        "type": "address",
                                        "value": "0xd3d9ddd0cf0a5f0bfb8f7fceae075df687eaebab"
                                    },
                                    {
                                        "name": "totalAmount",
                                        "type": "uint256",
                                        "value": "1,944,000,000,000,000,000,000"
                                    },
                                    {
                                        "name": "minAmount",
                                        "type": "uint256",
                                        "value": "0"
                                    },
                                    {
                                        "name": "maxAmount",
                                        "type": "uint256",
                                        "value": "600,000,000,000,000,000"
                                    },
                                    {
                                        "name": "auctionDuration",
                                        "type": "uint256",
                                        "value": "9,000"
                                    },
                                    {
                                        "name": "salt",
                                        "type": "uint256",
                                        "value": "80,449,692,199,454,758,125,960,224,938,272,003,844"
                                    },
                                    {
                                        "name": "expirationTime",
                                        "type": "uint256",
                                        "value": "1,709,636,234"
                                    },
                                    {
                                        "name": "rate",
                                        "type": "uint256",
                                        "value": "1,380"
                                    },
                                    {
                                        "name": "oracle",
                                        "type": "address",
                                        "value": "0x473ca1d29a136b935a96380ea342f296b4eea82c"
                                    }
                                ]
                            },
                            {
                                "name": "signature",
                                "type": "bytes",
                                "value": "0xb27e42eb7971cdf0eb54fd6d3ddba92b0408b20951219988a74b6c504364ac2a407283ea8f417eafba3d51138ed4dcfe70e85845c93173a78ed2b0de7ff6e1ea1b16cdfd39a6b62230e73736ea51ec89c9a037b04a4c3a643aea700f8cfb875a752b0f3ce30eedc1d430d34e9bfd57cc00687e7be3ea02a4b60f0260b9e9f64bc61b0000000000000000000000000000000000000000000000000000000001278914"
                            }
                        ],
                        "constructorArguments": "",
                        "name": "borrowerRefinance",
                        "returnParams": [],
                        "signature": "borrowerRefinance((address,address,address,uint256,uint256,uint256,uint256,uint256,uint256),uint256,uint256,(address,address,uint256,uint256,uint256,uint256,uint256,uint256,uint256,address),bytes)"
                    },
                    "errorInfo": "",
                    "fromAddress": "0x29469395eaf6f95920e59f858042f0e28d98a20b",
                    "gasUsed": 92302,
                    "id": 1,
                    "methodDecoded": true,
                    "operation": "DELEGATECALL",
                    "output": "",
                    "revert": false,
                    "revertMessage": "",
                    "selector": "0x4658ad62",
                    "status": true,
                    "value": "0"
                },
                "nodeType": 0
            },
            "10": {
                "invocation": {
                    "address": "0x0000000000a39bb272e79075ade125fd351887ac",
                    "callData": "0x000000000000000000000000c2ddfe84756fa71c39e40ab6289b6889e355786b0000000000000000000000003ef79658b68a427af19fae593f364dad2d61da58000000000000000000000000000000000000000000000000002081f658ea91fd",
                    "decodedMethod": {
                        "callParams": [
                            {
                                "name": "from",
                                "type": "address",
                                "value": "0xc2ddfe84756fa71c39e40ab6289b6889e355786b"
                            },
                            {
                                "name": "to",
                                "type": "address",
                                "value": "0x3ef79658b68a427af19fae593f364dad2d61da58"
                            },
                            {
                                "decimalAvailable": true,
                                "name": "amount",
                                "type": "uint256",
                                "value": "9,150,094,308,446,717"
                            }
                        ],
                        "constructorArguments": "",
                        "name": "transferFrom",
                        "returnParams": [
                            {
                                "name": "",
                                "type": "bool",
                                "value": true
                            }
                        ],
                        "signature": "transferFrom(address,address,uint256)"
                    },
                    "errorInfo": "",
                    "fromAddress": "0x29469395eaf6f95920e59f858042f0e28d98a20b",
                    "gasUsed": 8564,
                    "id": 10,
                    "methodDecoded": true,
                    "operation": "CALL",
                    "output": "0x0000000000000000000000000000000000000000000000000000000000000001",
                    "revert": false,
                    "revertMessage": "",
                    "selector": "0x23b872dd",
                    "status": true,
                    "value": "0"
                },
                "nodeType": 0
            },
            "11": {
                "invocation": {
                    "address": "0x01a656024de4b89e2d0198bf4d468e8fd2358b17",
                    "callData": "0x000000000000000000000000c2ddfe84756fa71c39e40ab6289b6889e355786b0000000000000000000000003ef79658b68a427af19fae593f364dad2d61da58000000000000000000000000000000000000000000000000002081f658ea91fd",
                    "decodedMethod": {
                        "callParams": [
                            {
                                "name": "from",
                                "type": "address",
                                "value": "0xc2ddfe84756fa71c39e40ab6289b6889e355786b"
                            },
                            {
                                "name": "to",
                                "type": "address",
                                "value": "0x3ef79658b68a427af19fae593f364dad2d61da58"
                            },
                            {
                                "decimalAvailable": true,
                                "name": "amount",
                                "type": "uint256",
                                "value": "9,150,094,308,446,717"
                            }
                        ],
                        "constructorArguments": "",
                        "name": "transferFrom",
                        "returnParams": [
                            {
                                "name": "",
                                "type": "bool",
                                "value": true
                            }
                        ],
                        "signature": "transferFrom(address,address,uint256)"
                    },
                    "errorInfo": "",
                    "fromAddress": "0x0000000000a39bb272e79075ade125fd351887ac",
                    "gasUsed": 8169,
                    "id": 11,
                    "methodDecoded": true,
                    "operation": "DELEGATECALL",
                    "output": "0x0000000000000000000000000000000000000000000000000000000000000001",
                    "revert": false,
                    "revertMessage": "",
                    "selector": "0x23b872dd",
                    "status": true,
                    "value": "0"
                },
                "nodeType": 0
            },
            "12": {
                "event": {
                    "contract": "0x0000000000a39bb272e79075ade125fd351887ac",
                    "decodedLog": {
                        "name": "Transfer",
                        "params": [
                            {
                                "name": "from",
                                "type": "address",
                                "value": "0xc2ddfe84756fa71c39e40ab6289b6889e355786b"
                            },
                            {
                                "name": "to",
                                "type": "address",
                                "value": "0x3ef79658b68a427af19fae593f364dad2d61da58"
                            },
                            {
                                "decimalAvailable": true,
                                "name": "value",
                                "type": "uint256",
                                "value": "9,150,094,308,446,717"
                            }
                        ],
                        "signature": "Transfer(address,address,uint256)"
                    },
                    "id": 12,
                    "logData": "0x000000000000000000000000000000000000000000000000002081f658ea91fd",
                    "logDecoded": true,
                    "operation": "EVENT",
                    "revert": false,
                    "status": true,
                    "topics": [
                        "0xddf252ad1be2c89b69c2b068fc378daa952ba7f163c4a11628f55a4df523b3ef",
                        "0x000000000000000000000000c2ddfe84756fa71c39e40ab6289b6889e355786b",
                        "0x0000000000000000000000003ef79658b68a427af19fae593f364dad2d61da58"
                    ]
                },
                "nodeType": 1
            },
            "2": {
                "invocation": {
                    "address": "0x0000000000000000000000000000000000000001",
                    "callData": "0x1807bc93b1242581f44be59d59459aa43ef067c349670556f2a266ad000000000000000000000000000000000000000000000000000000000000001bb27e42eb7971cdf0eb54fd6d3ddba92b0408b20951219988a74b6c504364ac2a407283ea8f417eafba3d51138ed4dcfe70e85845c93173a78ed2b0de7ff6e1ea",
                    "decodedMethod": {
                        "callParams": [
                            {
                                "name": "hash",
                                "type": "bytes32",
                                "value": "0xcfebedce1807bc93b1242581f44be59d59459aa43ef067c349670556f2a266ad"
                            },
                            {
                                "name": "v",
                                "type": "uint256",
                                "value": "27"
                            },
                            {
                                "name": "r",
                                "type": "bytes32",
                                "value": "0xb27e42eb7971cdf0eb54fd6d3ddba92b0408b20951219988a74b6c504364ac2a"
                            },
                            {
                                "name": "s",
                                "type": "bytes32",
                                "value": "0x407283ea8f417eafba3d51138ed4dcfe70e85845c93173a78ed2b0de7ff6e1ea"
                            }
                        ],
                        "constructorArguments": "",
                        "name": "ecrecover",
                        "returnParams": [
                            {
                                "name": "",
                                "type": "address",
                                "value": "0xa69833b9fda816f1bfc79517e7932e64708df0dd"
                            }
                        ],
                        "signature": "ecrecover(bytes32,uint256,bytes32,bytes32)"
                    },
                    "errorInfo": "",
                    "fromAddress": "0x29469395eaf6f95920e59f858042f0e28d98a20b",
                    "gasUsed": 3000,
                    "id": 2,
                    "methodDecoded": true,
                    "operation": "STATICCALL",
                    "output": "0x000000000000000000000000a69833b9fda816f1bfc79517e7932e64708df0dd",
                    "revert": false,
                    "revertMessage": "",
                    "selector": "0xcfebedce",
                    "status": true,
                    "value": "0"
                },
                "nodeType": 0
            },
            "3": {
                "invocation": {
                    "address": "0x0000000000000000000000000000000000000001",
                    "callData": "0x8cb833064d5d530bdf59aff3662e623c03ef2498a3c28ac83055c8b4000000000000000000000000000000000000000000000000000000000000001b16cdfd39a6b62230e73736ea51ec89c9a037b04a4c3a643aea700f8cfb875a752b0f3ce30eedc1d430d34e9bfd57cc00687e7be3ea02a4b60f0260b9e9f64bc6",
                    "decodedMethod": {
                        "callParams": [
                            {
                                "name": "hash",
                                "type": "bytes32",
                                "value": "0xefd2b2668cb833064d5d530bdf59aff3662e623c03ef2498a3c28ac83055c8b4"
                            },
                            {
                                "name": "v",
                                "type": "uint256",
                                "value": "27"
                            },
                            {
                                "name": "r",
                                "type": "bytes32",
                                "value": "0x16cdfd39a6b62230e73736ea51ec89c9a037b04a4c3a643aea700f8cfb875a75"
                            },
                            {
                                "name": "s",
                                "type": "bytes32",
                                "value": "0x2b0f3ce30eedc1d430d34e9bfd57cc00687e7be3ea02a4b60f0260b9e9f64bc6"
                            }
                        ],
                        "constructorArguments": "",
                        "name": "ecrecover",
                        "returnParams": [
                            {
                                "name": "",
                                "type": "address",
                                "value": "0x473ca1d29a136b935a96380ea342f296b4eea82c"
                            }
                        ],
                        "signature": "ecrecover(bytes32,uint256,bytes32,bytes32)"
                    },
                    "errorInfo": "",
                    "fromAddress": "0x29469395eaf6f95920e59f858042f0e28d98a20b",
                    "gasUsed": 3000,
                    "id": 3,
                    "methodDecoded": true,
                    "operation": "STATICCALL",
                    "output": "0x000000000000000000000000473ca1d29a136b935a96380ea342f296b4eea82c",
                    "revert": false,
                    "revertMessage": "",
                    "selector": "0xefd2b266",
                    "status": true,
                    "value": "0"
                },
                "nodeType": 0
            },
            "4": {
                "event": {
                    "contract": "0x29469395eaf6f95920e59f858042f0e28d98a20b",
                    "decodedLog": {
                        "name": "LoanOfferTaken",
                        "params": [
                            {
                                "name": "offerHash",
                                "type": "bytes32",
                                "value": "0x9d827e58850c20e5ab5dcf56237093b3829db7e231ffe3fe7d0a1e71c93c62d3"
                            },
                            {
                                "name": "lienId",
                                "type": "uint256",
                                "value": "193,706"
                            },
                            {
                                "name": "collection",
                                "type": "address",
                                "value": "0xd3d9ddd0cf0a5f0bfb8f7fceae075df687eaebab"
                            },
                            {
                                "name": "lender",
                                "type": "address",
                                "value": "0xa69833b9fda816f1bfc79517e7932e64708df0dd"
                            },
                            {
                                "name": "borrower",
                                "type": "address",
                                "value": "0xc2ddfe84756fa71c39e40ab6289b6889e355786b"
                            },
                            {
                                "name": "loanAmount",
                                "type": "uint256",
                                "value": "530,000,000,000,000,000"
                            },
                            {
                                "name": "rate",
                                "type": "uint256",
                                "value": "1,380"
                            },
                            {
                                "name": "tokenId",
                                "type": "uint256",
                                "value": "2,869"
                            },
                            {
                                "name": "auctionDuration",
                                "type": "uint256",
                                "value": "9,000"
                            }
                        ],
                        "signature": "LoanOfferTaken(bytes32,uint256,address,address,address,uint256,uint256,uint256,uint256)"
                    },
                    "id": 4,
                    "logData": "0x9d827e58850c20e5ab5dcf56237093b3829db7e231ffe3fe7d0a1e71c93c62d3000000000000000000000000000000000000000000000000000000000002f4aa000000000000000000000000d3d9ddd0cf0a5f0bfb8f7fceae075df687eaebab000000000000000000000000a69833b9fda816f1bfc79517e7932e64708df0dd000000000000000000000000c2ddfe84756fa71c39e40ab6289b6889e355786b000000000000000000000000000000000000000000000000075af03122f5000000000000000000000000000000000000000000000000000000000000000005640000000000000000000000000000000000000000000000000000000000000b350000000000000000000000000000000000000000000000000000000000002328",
                    "logDecoded": true,
                    "operation": "EVENT",
                    "revert": false,
                    "status": true,
                    "topics": [
                        "0x06a333c2d6fe967ca967f7a35be2eb45e8caeb6cf05e16f55d42b91b5fe31255"
                    ]
                },
                "nodeType": 1
            },
            "5": {
                "event": {
                    "contract": "0x29469395eaf6f95920e59f858042f0e28d98a20b",
                    "decodedLog": {
                        "name": "Refinance",
                        "params": [
                            {
                                "name": "loanId",
                                "type": "uint256",
                                "value": "193,706"
                            },
                            {
                                "name": "collateral",
                                "type": "address",
                                "value": "0xd3d9ddd0cf0a5f0bfb8f7fceae075df687eaebab"
                            },
                            {
                                "name": "newLender",
                                "type": "address",
                                "value": "0xa69833b9fda816f1bfc79517e7932e64708df0dd"
                            },
                            {
                                "name": "newAmount",
                                "type": "uint256",
                                "value": "530,000,000,000,000,000"
                            },
                            {
                                "name": "newRate",
                                "type": "uint256",
                                "value": "1,380"
                            },
                            {
                                "name": "newAuctionDuration",
                                "type": "uint256",
                                "value": "9,000"
                            }
                        ],
                        "signature": "Refinance(uint256,address,address,uint256,uint256,uint256)"
                    },
                    "id": 5,
                    "logData": "0x000000000000000000000000000000000000000000000000000000000002f4aa000000000000000000000000d3d9ddd0cf0a5f0bfb8f7fceae075df687eaebab000000000000000000000000a69833b9fda816f1bfc79517e7932e64708df0dd000000000000000000000000000000000000000000000000075af03122f5000000000000000000000000000000000000000000000000000000000000000005640000000000000000000000000000000000000000000000000000000000002328",
                    "logDecoded": true,
                    "operation": "EVENT",
                    "revert": false,
                    "status": true,
                    "topics": [
                        "0x558a9295c62e9e1b12a21c8fe816f4816a2e0269a53157edbfa16017b11b9ac9"
                    ]
                },
                "nodeType": 1
            },
            "6": {
                "invocation": {
                    "address": "0x5c55cd67a6bd0d4c315b50cb6cd589bfb080017e",
                    "callData": "0x00000000000000000000000000000000000000000000000006f05b59d3b200000000000000000000000000000000000000000000000000000000000000004c2c0000000000000000000000000000000000000000000000000000000065d4526f",
                    "decodedMethod": {
                        "callParams": [
                            {
                                "name": "amount",
                                "type": "uint256",
                                "value": "500,000,000,000,000,000"
                            },
                            {
                                "name": "rate",
                                "type": "uint256",
                                "value": "19,500"
                            },
                            {
                                "name": "startTime",
                                "type": "uint256",
                                "value": "1,708,413,551"
                            }
                        ],
                        "constructorArguments": "",
                        "name": "computeCurrentDebt",
                        "returnParams": [
                            {
                                "name": "",
                                "type": "uint256",
                                "value": "539,150,094,308,446,717"
                            }
                        ],
                        "signature": "computeCurrentDebt(uint256,uint256,uint256)"
                    },
                    "errorInfo": "",
                    "fromAddress": "0x29469395eaf6f95920e59f858042f0e28d98a20b",
                    "gasUsed": 1468,
                    "id": 6,
                    "methodDecoded": true,
                    "operation": "DELEGATECALL",
                    "output": "0x000000000000000000000000000000000000000000000000077b72277bdf91fd",
                    "revert": false,
                    "revertMessage": "",
                    "selector": "0x1b70b278",
                    "status": true,
                    "value": "0"
                },
                "nodeType": 0
            },
            "7": {
                "invocation": {
                    "address": "0x0000000000a39bb272e79075ade125fd351887ac",
                    "callData": "0x000000000000000000000000a69833b9fda816f1bfc79517e7932e64708df0dd0000000000000000000000003ef79658b68a427af19fae593f364dad2d61da58000000000000000000000000000000000000000000000000075af03122f50000",
                    "decodedMethod": {
                        "callParams": [
                            {
                                "name": "from",
                                "type": "address",
                                "value": "0xa69833b9fda816f1bfc79517e7932e64708df0dd"
                            },
                            {
                                "name": "to",
                                "type": "address",
                                "value": "0x3ef79658b68a427af19fae593f364dad2d61da58"
                            },
                            {
                                "decimalAvailable": true,
                                "name": "amount",
                                "type": "uint256",
                                "value": "530,000,000,000,000,000"
                            }
                        ],
                        "constructorArguments": "",
                        "name": "transferFrom",
                        "returnParams": [
                            {
                                "name": "",
                                "type": "bool",
                                "value": true
                            }
                        ],
                        "signature": "transferFrom(address,address,uint256)"
                    },
                    "errorInfo": "",
                    "fromAddress": "0x29469395eaf6f95920e59f858042f0e28d98a20b",
                    "gasUsed": 17864,
                    "id": 7,
                    "methodDecoded": true,
                    "operation": "CALL",
                    "output": "0x0000000000000000000000000000000000000000000000000000000000000001",
                    "revert": false,
                    "revertMessage": "",
                    "selector": "0x23b872dd",
                    "status": true,
                    "value": "0"
                },
                "nodeType": 0
            },
            "8": {
                "invocation": {
                    "address": "0x01a656024de4b89e2d0198bf4d468e8fd2358b17",
                    "callData": "0x000000000000000000000000a69833b9fda816f1bfc79517e7932e64708df0dd0000000000000000000000003ef79658b68a427af19fae593f364dad2d61da58000000000000000000000000000000000000000000000000075af03122f50000",
                    "decodedMethod": {
                        "callParams": [
                            {
                                "name": "from",
                                "type": "address",
                                "value": "0xa69833b9fda816f1bfc79517e7932e64708df0dd"
                            },
                            {
                                "name": "to",
                                "type": "address",
                                "value": "0x3ef79658b68a427af19fae593f364dad2d61da58"
                            },
                            {
                                "decimalAvailable": true,
                                "name": "amount",
                                "type": "uint256",
                                "value": "530,000,000,000,000,000"
                            }
                        ],
                        "constructorArguments": "",
                        "name": "transferFrom",
                        "returnParams": [
                            {
                                "name": "",
                                "type": "bool",
                                "value": true
                            }
                        ],
                        "signature": "transferFrom(address,address,uint256)"
                    },
                    "errorInfo": "",
                    "fromAddress": "0x0000000000a39bb272e79075ade125fd351887ac",
                    "gasUsed": 12969,
                    "id": 8,
                    "methodDecoded": true,
                    "operation": "DELEGATECALL",
                    "output": "0x0000000000000000000000000000000000000000000000000000000000000001",
                    "revert": false,
                    "revertMessage": "",
                    "selector": "0x23b872dd",
                    "status": true,
                    "value": "0"
                },
                "nodeType": 0
            },
            "9": {
                "event": {
                    "contract": "0x0000000000a39bb272e79075ade125fd351887ac",
                    "decodedLog": {
                        "name": "Transfer",
                        "params": [
                            {
                                "name": "from",
                                "type": "address",
                                "value": "0xa69833b9fda816f1bfc79517e7932e64708df0dd"
                            },
                            {
                                "name": "to",
                                "type": "address",
                                "value": "0x3ef79658b68a427af19fae593f364dad2d61da58"
                            },
                            {
                                "decimalAvailable": true,
                                "name": "value",
                                "type": "uint256",
                                "value": "530,000,000,000,000,000"
                            }
                        ],
                        "signature": "Transfer(address,address,uint256)"
                    },
                    "id": 9,
                    "logData": "0x000000000000000000000000000000000000000000000000075af03122f50000",
                    "logDecoded": true,
                    "operation": "EVENT",
                    "revert": false,
                    "status": true,
                    "topics": [
                        "0xddf252ad1be2c89b69c2b068fc378daa952ba7f163c4a11628f55a4df523b3ef",
                        "0x000000000000000000000000a69833b9fda816f1bfc79517e7932e64708df0dd",
                        "0x0000000000000000000000003ef79658b68a427af19fae593f364dad2d61da58"
                    ]
                },
                "nodeType": 1
            }
        },
        "gasFlame": [
            {
                "children": [
                    {
                        "children": [
                            {
                                "children": [],
                                "depth": 0,
                                "name": "Initial Gas",
                                "value": 28592
                            },
                            {
                                "children": [
                                    {
                                        "children": [
                                            {
                                                "children": [],
                                                "depth": 2,
                                                "name": "ecrecover",
                                                "value": 3000
                                            },
                                            {
                                                "children": [],
                                                "depth": 2,
                                                "name": "ecrecover",
                                                "value": 3000
                                            },
                                            {
                                                "children": [],
                                                "depth": 2,
                                                "name": "computeCurrentDebt",
                                                "value": 1468
                                            },
                                            {
                                                "children": [
                                                    {
                                                        "children": [],
                                                        "depth": 3,
                                                        "name": "transferFrom",
                                                        "value": 12969
                                                    }
                                                ],
                                                "depth": 2,
                                                "name": "transferFrom",
                                                "value": 17864
                                            },
                                            {
                                                "children": [
                                                    {
                                                        "children": [],
                                                        "depth": 3,
                                                        "name": "transferFrom",
                                                        "value": 8169
                                                    }
                                                ],
                                                "depth": 2,
                                                "name": "transferFrom",
                                                "value": 8564
                                            }
                                        ],
                                        "depth": 1,
                                        "name": "borrowerRefinance",
                                        "value": 92302
                                    }
                                ],
                                "depth": 0,
                                "name": "Executed Gas",
                                "value": 97363
                            }
                        ],
                        "depth": -1,
                        "name": "Actual Gas Used",
                        "value": 125955
                    },
                    {
                        "children": [],
                        "depth": -1,
                        "name": "Refunded Gas",
                        "value": 0
                    }
                ],
                "depth": -2,
                "name": "Total Gas",
                "value": 125955
            }
        ],
        "isConfirmed": true,
        "mainTrace": [
            {
                "children": [
                    {
                        "children": [
                            {
                                "children": [
                                    {
                                        "children": [],
                                        "depth": 2,
                                        "id": 2,
                                        "order": 2
                                    },
                                    {
                                        "children": [],
                                        "depth": 2,
                                        "id": 3,
                                        "order": 3
                                    },
                                    {
                                        "children": [],
                                        "depth": 2,
                                        "id": 4,
                                        "order": 4
                                    },
                                    {
                                        "children": [],
                                        "depth": 2,
                                        "id": 5,
                                        "order": 5
                                    },
                                    {
                                        "children": [],
                                        "depth": 2,
                                        "id": 6,
                                        "order": 6
                                    },
                                    {
                                        "children": [
                                            {
                                                "children": [
                                                    {
                                                        "children": [],
                                                        "depth": 4,
                                                        "id": 9,
                                                        "order": 9
                                                    }
                                                ],
                                                "depth": 3,
                                                "id": 8,
                                                "order": 8
                                            }
                                        ],
                                        "depth": 2,
                                        "id": 7,
                                        "order": 7
                                    },
                                    {
                                        "children": [
                                            {
                                                "children": [
                                                    {
                                                        "children": [],
                                                        "depth": 4,
                                                        "id": 12,
                                                        "order": 12
                                                    }
                                                ],
                                                "depth": 3,
                                                "id": 11,
                                                "order": 11
                                            }
                                        ],
                                        "depth": 2,
                                        "id": 10,
                                        "order": 10
                                    }
                                ],
                                "depth": 1,
                                "id": 1,
                                "order": 1
                            }
                        ],
                        "depth": 0,
                        "id": 0,
                        "order": 0
                    }
                ],
                "depth": -1,
                "id": -1,
                "order": -1
            }
        ],
        "mainTraceNodeCount": 13,
        "parentIdMap": {
            "0": -1,
            "1": 0,
            "10": 1,
            "11": 10,
            "12": 11,
            "2": 1,
            "3": 1,
            "4": 1,
            "5": 1,
            "6": 1,
            "7": 1,
            "8": 7,
            "9": 8
        },
        "tidyTrace": [
            {
                "children": [
                    {
                        "children": [
                            {
                                "children": [
                                    {
                                        "children": [],
                                        "depth": 2,
                                        "id": 4,
                                        "order": 4
                                    },
                                    {
                                        "children": [],
                                        "depth": 2,
                                        "id": 5,
                                        "order": 5
                                    },
                                    {
                                        "children": [],
                                        "depth": 2,
                                        "id": 6,
                                        "order": 6
                                    },
                                    {
                                        "children": [
                                            {
                                                "children": [
                                                    {
                                                        "children": [],
                                                        "depth": 4,
                                                        "id": 9,
                                                        "order": 9
                                                    }
                                                ],
                                                "depth": 3,
                                                "id": 8,
                                                "order": 8
                                            }
                                        ],
                                        "depth": 2,
                                        "id": 7,
                                        "order": 7
                                    },
                                    {
                                        "children": [
                                            {
                                                "children": [
                                                    {
                                                        "children": [],
                                                        "depth": 4,
                                                        "id": 12,
                                                        "order": 12
                                                    }
                                                ],
                                                "depth": 3,
                                                "id": 11,
                                                "order": 11
                                            }
                                        ],
                                        "depth": 2,
                                        "id": 10,
                                        "order": 10
                                    }
                                ],
                                "depth": 1,
                                "id": 1,
                                "order": 1
                            }
                        ],
                        "depth": 0,
                        "id": 0,
                        "order": 0
                    }
                ],
                "depth": -1,
                "id": -1,
                "order": -1
            }
        ],
        "tidyTraceNodeCount": 11
    },
    "state_change": {
        "stateChanges": [
            {
                "address": "0x0000000000a39bb272e79075ade125fd351887ac",
                "erc": "",
                "slots": [
                    {
                        "current": "0x00000000000000000000000000000000000000000000006ee82fa822dcc2be57",
                        "key": "0x57e60a88e305641d72df66cc3ab6b8e922bf5f24e9d9bf92af8fa3425c81a26d",
                        "prev": "0x00000000000000000000000000000000000000000000006eef8a9853ffb7be57"
                    },
                    {
                        "current": "0x00000000000000000000000000000000000000000000000273065eae72ea185f",
                        "key": "0xc5a50f15f2f0c02474a66ac43decb1af84fcd9277312b7e1a41bb74a0531d4be",
                        "prev": "0x0000000000000000000000000000000000000000000000026b8aec86f70a8662"
                    },
                    {
                        "current": "0x00000000000000000000000000000000000000000000000000b27b11ad832004",
                        "key": "0x13e2f2134cfffc3201bbd9bcc523062c231a39582924842f555f0ebc6bcea5ca",
                        "prev": "0x00000000000000000000000000000000000000000000000000d2fd08066db201"
                    }
                ],
                "storageVariables": [
                    {
                        "name": "_balances",
                        "type": "mapping(address => uint256)",
                        "value": {
                            "pairs": [
                                {
                                    "key": "0x3ef79658b68a427af19fae593f364dad2d61da58",
                                    "value": {
                                        "current": "45181904414986344543",
                                        "prev": "44642754320677897826",
                                        "typeTag": 1
                                    }
                                },
                                {
                                    "key": "0xa69833b9fda816f1bfc79517e7932e64708df0dd",
                                    "value": {
                                        "current": "2045872624116441464407",
                                        "prev": "2046402624116441464407",
                                        "typeTag": 1
                                    }
                                },
                                {
                                    "key": "0xc2ddfe84756fa71c39e40ab6289b6889e355786b",
                                    "value": {
                                        "current": "50237861710209028",
                                        "prev": "59387956018655745",
                                        "typeTag": 1
                                    }
                                }
                            ],
                            "typeTag": 4
                        }
                    }
                ]
            },
            {
                "address": "0x29469395eaf6f95920e59f858042f0e28d98a20b",
                "erc": "",
                "slots": [
                    {
                        "current": "0xd786fab528a055ebb0fd7fc73585edd1f8c8826650f913b7ae54bd8e6e51a97b",
                        "key": "0xf3f80feee958dfd1fe91f93b101fefd76fef8e00ce361f42b8fb1c0b23750996",
                        "prev": "0x1b212b6f0e38cdf8f0aff7f22af64cd014d128062ecfc28eb50a42aea7d80269"
                    },
                    {
                        "current": "0x000000000000000000000000000000000000000000000000075af03122f50000",
                        "key": "0xa39d3a44a95061a2a15d5ed26c9201af1200df57f5963a63c42e23cc1023c2cc",
                        "prev": "0x0000000000000000000000000000000000000000000000000000000000000000"
                    }
                ],
                "storageVariables": [
                    {
                        "name": "liens",
                        "type": "mapping(uint256 => bytes32)",
                        "value": {
                            "pairs": [
                                {
                                    "key": "193706",
                                    "value": {
                                        "current": "0xd786fab528a055ebb0fd7fc73585edd1f8c8826650f913b7ae54bd8e6e51a97b",
                                        "prev": "0x1b212b6f0e38cdf8f0aff7f22af64cd014d128062ecfc28eb50a42aea7d80269",
                                        "typeTag": 1
                                    }
                                }
                            ],
                            "typeTag": 4
                        }
                    },
                    {
                        "name": "amountTaken",
                        "type": "mapping(bytes32 => uint256)",
                        "value": {
                            "pairs": [
                                {
                                    "key": "0x9d827e58850c20e5ab5dcf56237093b3829db7e231ffe3fe7d0a1e71c93c62d3",
                                    "value": {
                                        "current": "530000000000000000",
                                        "prev": "0",
                                        "typeTag": 1
                                    }
                                }
                            ],
                            "typeTag": 4
                        }
                    }
                ]
            }
        ]
    }
}