{
    "balance_change": {
        "balanceChanges": []
    },
    "profile": {
        "basic_info": {
            "baseFee": "",
            "blockNumber": 9922603,
            "callData": "0x91aeeedc000000000000000000000000000000000000000000000000000000000000001c6d75e503cf17424c2c99ea0db6dfae7dc957e2e94b27ff88d924e31e9a841982479024672d9bc7a1e81d77bd84b23d81df43435d218f0ba3a35a1f655f02f5a10000000000000000000000000000000000000000000000000000000000000f940000000000000000000000005c5e900795d6ce723e14223067a3d98e5db5e35800000000000000000000000000000000000000000000000000000000000000c0000000000000000000000000000000000000000000000000000000000000007900b1690c08e213a35ed9bab7b318de14420fb57d8c0000000000000000000000000000000000000000000000000000000000000000000000000000000000000000000000000000000000000000000000000000002496b5a755000000000000000000000000000000000000000000000000000000000019a7d500000000000000",
            "debugEnable": true,
            "errorInfo": "",
            "eventCount": 3,
            "feeRecipient": "0x829bd824b016326a401d083b33d092293333a830",
            "formatValue": "0",
            "gasLimit": 134136,
            "gasPrice": "9.799999999",
            "gasUsed": 48088,
            "intTxnCount": 4,
            "internalRevert": false,
            "internalRevertMessage": "",
            "isContractCreation": false,
            "isFlashloan": false,
            "maxFee": "",
            "nonce": 15818,
            "overwritedBlockNumber": -1,
            "priorityFee": "",
            "receiver": "0x33b08550a9de04cc3c75d8af9b43a8372916e0e7",
            "revertMessage": "",
            "sender": "0x9016c9cbacc47b07ad14fa7c226429ffb69e4507",
            "simulationEnable": true,
            "sourceTxnHash": "0x1649a4fdbd3bec00b8d23c7dd322ad87125a2bebc389e829f41a15a85f6d5d60",
            "status": true,
            "timestamp": "2020-04-22T13:49:05Z",
            "transactionFee": "0.000471262399951912",
            "txnHash": "0x1649a4fdbd3bec00b8d23c7dd322ad87125a2bebc389e829f41a15a85f6d5d60",
            "txnIndex": 105,
            "type": 0,
            "value": "0"
        },
        "fund_flow": [],
        "token_infos": [
            {
                "address": "0xc02aaa39b223fe8d0a0e5c4f27ead9083c756cc2",
                "decimals": 18
            },
            {
                "address": "0xeeeeeeeeeeeeeeeeeeeeeeeeeeeeeeeeeeeeeeee",
                "decimals": 18
            }
        ]
    },
    "address_label": {
        "labels": [
            {
                "address": "0x0000000000000000000000000000000000000003",
                "label": "Precompiled"
            },
            {
                "address": "0x0000000000000000000000000000000000000004",
                "label": "Precompiled"
            },
            {
                "address": "0xeeeeeeeeeeeeeeeeeeeeeeeeeeeeeeeeeeeeeeee",
                "label": "Ether"
            },
            {
                "address": "0x06012c8cf97bead5deae237070f9587f8e7a266d",
                "label": "CryptoKitties: Core"
            },
            {
                "address": "0xb1690c08e213a35ed9bab7b318de14420fb57d8c",
                "label": "SaleClockAuction"
            },
            {
                "address": "0x37932f3eca864632156ccba7e2814b51a374caec",
                "label": "CloneableWallet"
            },
            {
                "address": "0x0000000000000000000000000000000000000001",
                "label": "Precompiled"
            },
            {
                "address": "0x0000000000000000000000000000000000000002",
                "label": "Precompiled"
            }
        ]
    },
    "trace": {
        "accountLabels": null,
        "dataMap": {
            "-1": {
                "invocation": {
                    "address": "0x9016c9cbacc47b07ad14fa7c226429ffb69e4507",
                    "callData": "",
                    "decodedMethod": null,
                    "errorInfo": "",
                    "fromAddress": "",
                    "gasUsed": 0,
                    "id": -1,
                    "methodDecoded": false,
                    "operation": "",
                    "output": "",
                    "revert": false,
                    "revertMessage": "",
                    "selector": "",
                    "status": false,
                    "value": ""
                },
                "nodeType": 0
            },
            "0": {
                "invocation": {
                    "address": "0x33b08550a9de04cc3c75d8af9b43a8372916e0e7",
                    "callData": "0x000000000000000000000000000000000000000000000000000000000000001c6d75e503cf17424c2c99ea0db6dfae7dc957e2e94b27ff88d924e31e9a841982479024672d9bc7a1e81d77bd84b23d81df43435d218f0ba3a35a1f655f02f5a10000000000000000000000000000000000000000000000000000000000000f940000000000000000000000005c5e900795d6ce723e14223067a3d98e5db5e35800000000000000000000000000000000000000000000000000000000000000c0000000000000000000000000000000000000000000000000000000000000007900b1690c08e213a35ed9bab7b318de14420fb57d8c0000000000000000000000000000000000000000000000000000000000000000000000000000000000000000000000000000000000000000000000000000002496b5a755000000000000000000000000000000000000000000000000000000000019a7d500000000000000",
                    "decodedMethod": {
                        "callParams": [
                            {
                                "name": "v",
                                "type": "uint8",
                                "value": "28"
                            },
                            {
                                "name": "r",
                                "type": "bytes32",
                                "value": "0x6d75e503cf17424c2c99ea0db6dfae7dc957e2e94b27ff88d924e31e9a841982"
                            },
                            {
                                "name": "s",
                                "type": "bytes32",
                                "value": "0x479024672d9bc7a1e81d77bd84b23d81df43435d218f0ba3a35a1f655f02f5a1"
                            },
                            {
                                "name": "nonce",
                                "type": "uint256",
                                "value": "3,988"
                            },
                            {
                                "name": "authorizedAddress",
                                "type": "address",
                                "value": "0x5c5e900795d6ce723e14223067a3d98e5db5e358"
                            },
                            {
                                "name": "data",
                                "type": "bytes",
                                "value": "0x00b1690c08e213a35ed9bab7b318de14420fb57d8c0000000000000000000000000000000000000000000000000000000000000000000000000000000000000000000000000000000000000000000000000000002496b5a755000000000000000000000000000000000000000000000000000000000019a7d5"
                            }
                        ],
                        "constructorArguments": "",
                        "name": "invoke1CosignerSends",
                        "returnParams": [],
                        "signature": "invoke1CosignerSends(uint8,bytes32,bytes32,uint256,address,bytes)"
                    },
                    "errorInfo": "",
                    "fromAddress": "0x9016c9cbacc47b07ad14fa7c226429ffb69e4507",
                    "gasUsed": 48088,
                    "id": 0,
                    "methodDecoded": true,
                    "operation": "CALL",
                    "output": "",
                    "revert": false,
                    "revertMessage": "",
                    "selector": "0x91aeeedc",
                    "status": true,
                    "value": "0"
                },
                "nodeType": 0
            },
            "1": {
                "invocation": {
                    "address": "0x37932f3eca864632156ccba7e2814b51a374caec",
                    "callData": "0x000000000000000000000000000000000000000000000000000000000000001c6d75e503cf17424c2c99ea0db6dfae7dc957e2e94b27ff88d924e31e9a841982479024672d9bc7a1e81d77bd84b23d81df43435d218f0ba3a35a1f655f02f5a10000000000000000000000000000000000000000000000000000000000000f940000000000000000000000005c5e900795d6ce723e14223067a3d98e5db5e35800000000000000000000000000000000000000000000000000000000000000c0000000000000000000000000000000000000000000000000000000000000007900b1690c08e213a35ed9bab7b318de14420fb57d8c0000000000000000000000000000000000000000000000000000000000000000000000000000000000000000000000000000000000000000000000000000002496b5a755000000000000000000000000000000000000000000000000000000000019a7d500000000000000",
                    "decodedMethod": {
                        "callParams": [
                            {
                                "name": "v",
                                "type": "uint8",
                                "value": "28"
                            },
                            {
                                "name": "r",
                                "type": "bytes32",
                                "value": "0x6d75e503cf17424c2c99ea0db6dfae7dc957e2e94b27ff88d924e31e9a841982"
                            },
                            {
                                "name": "s",
                                "type": "bytes32",
                                "value": "0x479024672d9bc7a1e81d77bd84b23d81df43435d218f0ba3a35a1f655f02f5a1"
                            },
                            {
                                "name": "nonce",
                                "type": "uint256",
                                "value": "3,988"
                            },
                            {
                                "name": "authorizedAddress",
                                "type": "address",
                                "value": "0x5c5e900795d6ce723e14223067a3d98e5db5e358"
                            },
                            {
                                "name": "data",
                                "type": "bytes",
                                "value": "0x00b1690c08e213a35ed9bab7b318de14420fb57d8c0000000000000000000000000000000000000000000000000000000000000000000000000000000000000000000000000000000000000000000000000000002496b5a755000000000000000000000000000000000000000000000000000000000019a7d5"
                            }
                        ],
                        "constructorArguments": "",
                        "name": "invoke1CosignerSends",
                        "returnParams": [],
                        "signature": "invoke1CosignerSends(uint8,bytes32,bytes32,uint256,address,bytes)"
                    },
                    "errorInfo": "",
                    "fromAddress": "0x33b08550a9de04cc3c75d8af9b43a8372916e0e7",
                    "gasUsed": 68383,
                    "id": 1,
                    "methodDecoded": true,
                    "operation": "DELEGATECALL",
                    "output": "",
                    "revert": false,
                    "revertMessage": "",
                    "selector": "0x91aeeedc",
                    "status": true,
                    "value": "0"
                },
                "nodeType": 0
            },
            "2": {
                "invocation": {
                    "address": "0x0000000000000000000000000000000000000001",
                    "callData": "0xfb273b7aae4b1e65b0a2172b658b021ad478c8bdd3c499a61499e883000000000000000000000000000000000000000000000000000000000000001c6d75e503cf17424c2c99ea0db6dfae7dc957e2e94b27ff88d924e31e9a841982479024672d9bc7a1e81d77bd84b23d81df43435d218f0ba3a35a1f655f02f5a1",
                    "decodedMethod": {
                        "callParams": [
                            {
                                "name": "hash",
                                "type": "bytes32",
                                "value": "0xdb73d323fb273b7aae4b1e65b0a2172b658b021ad478c8bdd3c499a61499e883"
                            },
                            {
                                "name": "v",
                                "type": "uint256",
                                "value": "28"
                            },
                            {
                                "name": "r",
                                "type": "bytes32",
                                "value": "0x6d75e503cf17424c2c99ea0db6dfae7dc957e2e94b27ff88d924e31e9a841982"
                            },
                            {
                                "name": "s",
                                "type": "bytes32",
                                "value": "0x479024672d9bc7a1e81d77bd84b23d81df43435d218f0ba3a35a1f655f02f5a1"
                            }
                        ],
                        "constructorArguments": "",
                        "name": "ecrecover",
                        "returnParams": [
                            {
                                "name": "",
                                "type": "address",
                                "value": "0x5c5e900795d6ce723e14223067a3d98e5db5e358"
                            }
                        ],
                        "signature": "ecrecover(bytes32,uint256,bytes32,bytes32)"
                    },
                    "errorInfo": "",
                    "fromAddress": "0x33b08550a9de04cc3c75d8af9b43a8372916e0e7",
                    "gasUsed": 3000,
                    "id": 2,
                    "methodDecoded": true,
                    "operation": "CALL",
                    "output": "0x0000000000000000000000005c5e900795d6ce723e14223067a3d98e5db5e358",
                    "revert": false,
                    "revertMessage": "",
                    "selector": "0xdb73d323",
                    "status": true,
                    "value": "0"
                },
                "nodeType": 0
            },
            "3": {
                "invocation": {
                    "address": "0xb1690c08e213a35ed9bab7b318de14420fb57d8c",
                    "callData": "0x000000000000000000000000000000000000000000000000000000000019a7d5",
                    "decodedMethod": {
                        "callParams": [
                            {
                                "name": "_tokenId",
                                "type": "uint256",
                                "value": "1,681,365"
                            }
                        ],
                        "constructorArguments": "",
                        "name": "cancelAuction",
                        "returnParams": [],
                        "signature": "cancelAuction(uint256)"
                    },
                    "errorInfo": "",
                    "fromAddress": "0x33b08550a9de04cc3c75d8af9b43a8372916e0e7",
                    "gasUsed": 51185,
                    "id": 3,
                    "methodDecoded": true,
                    "operation": "CALL",
                    "output": "",
                    "revert": false,
                    "revertMessage": "",
                    "selector": "0x96b5a755",
                    "status": true,
                    "value": "0"
                },
                "nodeType": 0
            },
            "4": {
                "invocation": {
                    "address": "0x06012c8cf97bead5deae237070f9587f8e7a266d",
                    "callData": "0x00000000000000000000000033b08550a9de04cc3c75d8af9b43a8372916e0e7000000000000000000000000000000000000000000000000000000000019a7d5",
                    "decodedMethod": {
                        "callParams": [
                            {
                                "name": "_to",
                                "type": "address",
                                "value": "0x33b08550a9de04cc3c75d8af9b43a8372916e0e7"
                            },
                            {
                                "decimalAvailable": true,
                                "name": "_tokenId",
                                "type": "uint256",
                                "value": "1,681,365"
                            }
                        ],
                        "constructorArguments": "",
                        "name": "transfer",
                        "returnParams": [],
                        "signature": "transfer(address,uint256)"
                    },
                    "errorInfo": "",
                    "fromAddress": "0xb1690c08e213a35ed9bab7b318de14420fb57d8c",
                    "gasUsed": 28379,
                    "id": 4,
                    "methodDecoded": true,
                    "operation": "CALL",
                    "output": "",
                    "revert": false,
                    "revertMessage": "",
                    "selector": "0xa9059cbb",
                    "status": true,
                    "value": "0"
                },
                "nodeType": 0
            },
            "5": {
                "event": {
                    "contract": "0x06012c8cf97bead5deae237070f9587f8e7a266d",
                    "decodedLog": {
                        "name": "Transfer",
                        "params": [
                            {
                                "name": "from",
                                "type": "address",
                                "value": "0xb1690c08e213a35ed9bab7b318de14420fb57d8c"
                            },
                            {
                                "name": "to",
                                "type": "address",
                                "value": "0x33b08550a9de04cc3c75d8af9b43a8372916e0e7"
                            },
                            {
                                "decimalAvailable": true,
                                "name": "tokenId",
                                "type": "uint256",
                                "value": "1,681,365"
                            }
                        ],
                        "signature": "Transfer(address,address,uint256)"
                    },
                    "id": 5,
                    "logData": "0x000000000000000000000000b1690c08e213a35ed9bab7b318de14420fb57d8c00000000000000000000000033b08550a9de04cc3c75d8af9b43a8372916e0e7000000000000000000000000000000000000000000000000000000000019a7d5",
                    "logDecoded": true,
                    "operation": "EVENT",
                    "revert": false,
                    "status": true,
                    "topics": [
                        "0xddf252ad1be2c89b69c2b068fc378daa952ba7f163c4a11628f55a4df523b3ef"
                    ]
                },
                "nodeType": 1
            },
            "6": {
                "event": {
                    "contract": "0xb1690c08e213a35ed9bab7b318de14420fb57d8c",
                    "decodedLog": {
                        "name": "AuctionCancelled",
                        "params": [
                            {
                                "name": "tokenId",
                                "type": "uint256",
                                "value": "1,681,365"
                            }
                        ],
                        "signature": "AuctionCancelled(uint256)"
                    },
                    "id": 6,
                    "logData": "0x000000000000000000000000000000000000000000000000000000000019a7d5",
                    "logDecoded": true,
                    "operation": "EVENT",
                    "revert": false,
                    "status": true,
                    "topics": [
                        "0x2809c7e17bf978fbc7194c0a694b638c4215e9140cacc6c38ca36010b45697df"
                    ]
                },
                "nodeType": 1
            },
            "7": {
                "event": {
                    "contract": "0x33b08550a9de04cc3c75d8af9b43a8372916e0e7",
                    "decodedLog": {
                        "name": "InvocationSuccess",
                        "params": [
                            {
                                "name": "hash",
                                "type": "bytes32",
                                "value": "0xdb73d323fb273b7aae4b1e65b0a2172b658b021ad478c8bdd3c499a61499e883"
                            },
                            {
                                "name": "result",
                                "type": "uint256",
                                "value": "0"
                            },
                            {
                                "name": "numOperations",
                                "type": "uint256",
                                "value": "1"
                            }
                        ],
                        "signature": "InvocationSuccess(bytes32,uint256,uint256)"
                    },
                    "id": 7,
                    "logData": "0xdb73d323fb273b7aae4b1e65b0a2172b658b021ad478c8bdd3c499a61499e88300000000000000000000000000000000000000000000000000000000000000000000000000000000000000000000000000000000000000000000000000000001",
                    "logDecoded": true,
                    "operation": "EVENT",
                    "revert": false,
                    "status": true,
                    "topics": [
                        "0x101214446435ebbb29893f3348e3aae5ea070b63037a3df346d09d3396a34aee"
                    ]
                },
                "nodeType": 1
            }
        },
        "gasFlame": [
            {
                "children": [
                    {
                        "children": [
                            {
                                "children": [],
                                "depth": 0,
                                "name": "Initial Gas",
                                "value": 23876
                            },
                            {
                                "children": [
                                    {
                                        "children": [
                                            {
                                                "children": [],
                                                "depth": 2,
                                                "name": "ecrecover",
                                                "value": 3000
                                            },
                                            {
                                                "children": [
                                                    {
                                                        "children": [],
                                                        "depth": 3,
                                                        "name": "transfer",
                                                        "value": 28379
                                                    }
                                                ],
                                                "depth": 2,
                                                "name": "cancelAuction",
                                                "value": 51185
                                            }
                                        ],
                                        "depth": 1,
                                        "name": "invoke1CosignerSends",
                                        "value": 68383
                                    }
                                ],
                                "depth": 0,
                                "name": "Executed Gas",
                                "value": 69212
                            }
                        ],
                        "depth": -1,
                        "name": "Actual Gas Used",
                        "value": 48088
                    },
                    {
                        "children": [],
                        "depth": -1,
                        "name": "Refunded Gas",
                        "value": 45000
                    }
                ],
                "depth": -2,
                "name": "Total Gas",
                "value": 93088
            }
        ],
        "isConfirmed": true,
        "mainTrace": [
            {
                "children": [
                    {
                        "children": [
                            {
                                "children": [
                                    {
                                        "children": [],
                                        "depth": 2,
                                        "id": 2,
                                        "order": 2
                                    },
                                    {
                                        "children": [
                                            {
                                                "children": [
                                                    {
                                                        "children": [],
                                                        "depth": 4,
                                                        "id": 5,
                                                        "order": 5
                                                    }
                                                ],
                                                "depth": 3,
                                                "id": 4,
                                                "order": 4
                                            },
                                            {
                                                "children": [],
                                                "depth": 3,
                                                "id": 6,
                                                "order": 6
                                            }
                                        ],
                                        "depth": 2,
                                        "id": 3,
                                        "order": 3
                                    },
                                    {
                                        "children": [],
                                        "depth": 2,
                                        "id": 7,
                                        "order": 7
                                    }
                                ],
                                "depth": 1,
                                "id": 1,
                                "order": 1
                            }
                        ],
                        "depth": 0,
                        "id": 0,
                        "order": 0
                    }
                ],
                "depth": -1,
                "id": -1,
                "order": -1
            }
        ],
        "mainTraceNodeCount": 8,
        "parentIdMap": {
            "0": -1,
            "1": 0,
            "2": 1,
            "3": 1,
            "4": 3,
            "5": 4,
            "6": 3,
            "7": 1
        },
        "tidyTrace": [
            {
                "children": [
                    {
                        "children": [
                            {
                                "children": [
                                    {
                                        "children": [],
                                        "depth": 2,
                                        "id": 2,
                                        "order": 2
                                    },
                                    {
                                        "children": [
                                            {
                                                "children": [
                                                    {
                                                        "children": [],
                                                        "depth": 4,
                                                        "id": 5,
                                                        "order": 5
                                                    }
                                                ],
                                                "depth": 3,
                                                "id": 4,
                                                "order": 4
                                            },
                                            {
                                                "children": [],
                                                "depth": 3,
                                                "id": 6,
                                                "order": 6
                                            }
                                        ],
                                        "depth": 2,
                                        "id": 3,
                                        "order": 3
                                    },
                                    {
                                        "children": [],
                                        "depth": 2,
                                        "id": 7,
                                        "order": 7
                                    }
                                ],
                                "depth": 1,
                                "id": 1,
                                "order": 1
                            }
                        ],
                        "depth": 0,
                        "id": 0,
                        "order": 0
                    }
                ],
                "depth": -1,
                "id": -1,
                "order": -1
            }
        ],
        "tidyTraceNodeCount": 8
    },
    "state_change": {
        "stateChanges": [
            {
                "address": "0x06012c8cf97bead5deae237070f9587f8e7a266d",
                "erc": "",
                "slots": [
                    {
                        "current": "0x0000000000000000000000000000000000000000000000000000000000034c12",
                        "key": "0xc56c286245a85e4048e082d091c57ede29ec05df707b458fe836e199193ff182",
                        "prev": "0x0000000000000000000000000000000000000000000000000000000000034c13"
                    },
                    {
                        "current": "0x0000000000000000000000000000000000000000000000000000000000000587",
                        "key": "0x671032a631dc1f114c1b15dc5d8afa38e5142ce0782f846280188e700d2ec3ea",
                        "prev": "0x0000000000000000000000000000000000000000000000000000000000000586"
                    },
                    {
                        "current": "0x00000000000000000000000033b08550a9de04cc3c75d8af9b43a8372916e0e7",
                        "key": "0x53c8e2a85a16da33baba342dc4c3c6d735e9b45c97211f12aaa7333c4eb9a804",
                        "prev": "0x000000000000000000000000b1690c08e213a35ed9bab7b318de14420fb57d8c"
                    }
                ],
                "storageVariables": [
                    {
                        "name": "kittyIndexToOwner",
                        "type": "mapping(uint256 => address)",
                        "value": {
                            "pairs": [
                                {
                                    "key": "1681365",
                                    "value": {
                                        "current": "0x33b08550a9de04cc3c75d8af9b43a8372916e0e7",
                                        "prev": "0xb1690c08e213a35ed9bab7b318de14420fb57d8c",
                                        "typeTag": 1
                                    }
                                }
                            ],
                            "typeTag": 4
                        }
                    },
                    {
                        "name": "ownershipTokenCount",
                        "type": "mapping(address => uint256)",
                        "value": {
                            "pairs": [
                                {
                                    "key": "0x33b08550a9de04cc3c75d8af9b43a8372916e0e7",
                                    "value": {
                                        "current": "1415",
                                        "prev": "1414",
                                        "typeTag": 1
                                    }
                                },
                                {
                                    "key": "0xb1690c08e213a35ed9bab7b318de14420fb57d8c",
                                    "value": {
                                        "current": "216082",
                                        "prev": "216083",
                                        "typeTag": 1
                                    }
                                }
                            ],
                            "typeTag": 4
                        }
                    }
                ]
            },
            {
                "address": "0x33b08550a9de04cc3c75d8af9b43a8372916e0e7",
                "erc": "",
                "slots": [
                    {
                        "current": "0x0000000000000000000000000000000000000000000000000000000000000f95",
                        "key": "0x137d8ac0e717ca933812eaaff5442427e6621adce6a49078b8825d13df1bf8fe",
                        "prev": "0x0000000000000000000000000000000000000000000000000000000000000f94"
                    }
                ],
                "storageVariables": [
                    {
                        "name": "nonces",
                        "type": "mapping(address => uint256)",
                        "value": {
                            "pairs": [
                                {
                                    "key": "0x5c5e900795d6ce723e14223067a3d98e5db5e358",
                                    "value": {
                                        "current": "3989",
                                        "prev": "3988",
                                        "typeTag": 1
                                    }
                                }
                            ],
                            "typeTag": 4
                        }
                    }
                ]
            },
            {
                "address": "0xb1690c08e213a35ed9bab7b318de14420fb57d8c",
                "erc": "",
                "slots": [
                    {
                        "current": "0x0000000000000000000000000000000000000000000000000000000000000000",
                        "key": "0xf55ad12800ce9ee955f7bc47429620154c8b268407c6b728bc2e96b40ed259da",
                        "prev": "0x00000000000000000000000033b08550a9de04cc3c75d8af9b43a8372916e0e7"
                    },
                    {
                        "current": "0x0000000000000000000000000000000000000000000000000000000000000000",
                        "key": "0xf55ad12800ce9ee955f7bc47429620154c8b268407c6b728bc2e96b40ed259db",
                        "prev": "0x000000000000000000060a24181e400000000000000000000006c00a3912c000"
                    },
                    {
                        "current": "0x0000000000000000000000000000000000000000000000000000000000000000",
                        "key": "0xf55ad12800ce9ee955f7bc47429620154c8b268407c6b728bc2e96b40ed259dc",
                        "prev": "0x00000000000000000000000000000000000000005e9e0e020000000000015180"
                    }
                ],
                "storageVariables": [
                    {
                        "name": "tokenIdToAuction",
                        "type": "mapping(uint256 => struct ClockAuctionBase.Auction)",
                        "value": {
                            "pairs": [
                                {
                                    "key": "1681365",
                                    "value": {
                                        "fields": [
                                            {
                                                "name": "seller",
                                                "type": "address",
                                                "value": {
                                                    "current": "0x0000000000000000000000000000000000000000",
                                                    "prev": "0x33b08550a9de04cc3c75d8af9b43a8372916e0e7",
                                                    "typeTag": 1
                                                }
                                            },
                                            {
                                                "name": "startingPrice",
                                                "type": "uint128",
                                                "value": {
                                                    "current": "0",
                                                    "prev": "1900000000000000",
                                                    "typeTag": 1
                                                }
                                            },
                                            {
                                                "name": "endingPrice",
                                                "type": "uint128",
                                                "value": {
                                                    "current": "0",
                                                    "prev": "1700000000000000",
                                                    "typeTag": 1
                                                }
                                            },
                                            {
                                                "name": "duration",
                                                "type": "uint64",
                                                "value": {
                                                    "current": "0",
                                                    "prev": "86400",
                                                    "typeTag": 1
                                                }
                                            },
                                            {
                                                "name": "startedAt",
                                                "type": "uint64",
                                                "value": {
                                                    "current": "0",
                                                    "prev": "1587416578",
                                                    "typeTag": 1
                                                }
                                            }
                                        ],
                                        "typeTag": 3
                                    }
                                }
                            ],
                            "typeTag": 4
                        }
                    }
                ]
            }
        ]
    }
}