{
    "balance_change": {
        "balanceChanges": []
    },
    "profile": {
        "basic_info": {
            "baseFee": "6.430331309",
            "blockNumber": 18362730,
            "callData": "0xf14fcbc8c57c3a2f67b08246f298989e0b9720eaf2846df116bbf027623a4e6f7574b1a2",
            "debugEnable": true,
            "errorInfo": "",
            "eventCount": 0,
            "feeRecipient": "0x1f9090aae28b8a3dceadf281b0f12828e676c326",
            "formatValue": "0",
            "gasLimit": 44206,
            "gasPrice": "6.530331309",
            "gasUsed": 44206,
            "intTxnCount": 0,
            "internalRevert": false,
            "internalRevertMessage": "",
            "isContractCreation": false,
            "isFlashloan": false,
            "maxFee": "9.713012912",
            "nonce": 3,
            "overwritedBlockNumber": -1,
            "priorityFee": "0.1",
            "receiver": "0x253553366da8546fc250f225fe3d25d0c782303b",
            "revertMessage": "",
            "sender": "0xe716c1303116243c3749bfd9c55fa58d4645d093",
            "simulationEnable": true,
            "sourceTxnHash": "0x16f4f8974eeb3b7a6c254bb4b5ad883c56a81cd03e3b604a35ce00af56216054",
            "status": true,
            "timestamp": "2023-10-16T11:46:59Z",
            "transactionFee": "0.000288679825845654",
            "txnHash": "0x16f4f8974eeb3b7a6c254bb4b5ad883c56a81cd03e3b604a35ce00af56216054",
            "txnIndex": 103,
            "type": 2,
            "value": "0"
        },
        "fund_flow": [],
        "token_infos": [
            {
                "address": "0xc02aaa39b223fe8d0a0e5c4f27ead9083c756cc2",
                "decimals": 18
            },
            {
                "address": "0xeeeeeeeeeeeeeeeeeeeeeeeeeeeeeeeeeeeeeeee",
                "decimals": 18
            }
        ]
    },
    "address_label": {
        "labels": [
            {
                "address": "0x0000000000000000000000000000000000000003",
                "label": "Precompiled"
            },
            {
                "address": "0x0000000000000000000000000000000000000004",
                "label": "Precompiled"
            },
            {
                "address": "0xeeeeeeeeeeeeeeeeeeeeeeeeeeeeeeeeeeeeeeee",
                "label": "Ether"
            },
            {
                "address": "0x253553366da8546fc250f225fe3d25d0c782303b",
                "label": "ENS: ETH Registrar Controller"
            },
            {
                "address": "0x0000000000000000000000000000000000000001",
                "label": "Precompiled"
            },
            {
                "address": "0x0000000000000000000000000000000000000002",
                "label": "Precompiled"
            }
        ]
    },
    "trace": {
        "accountLabels": null,
        "dataMap": {
            "-1": {
                "invocation": {
                    "address": "0xe716c1303116243c3749bfd9c55fa58d4645d093",
                    "callData": "",
                    "decodedMethod": null,
                    "errorInfo": "",
                    "fromAddress": "",
                    "gasUsed": 0,
                    "id": -1,
                    "methodDecoded": false,
                    "operation": "",
                    "output": "",
                    "revert": false,
                    "revertMessage": "",
                    "selector": "",
                    "status": false,
                    "value": ""
                },
                "nodeType": 0
            },
            "0": {
                "invocation": {
                    "address": "0x253553366da8546fc250f225fe3d25d0c782303b",
                    "callData": "0xc57c3a2f67b08246f298989e0b9720eaf2846df116bbf027623a4e6f7574b1a2",
                    "decodedMethod": {
                        "callParams": [
                            {
                                "name": "commitment",
                                "type": "bytes32",
                                "value": "0xc57c3a2f67b08246f298989e0b9720eaf2846df116bbf027623a4e6f7574b1a2"
                            }
                        ],
                        "constructorArguments": "",
                        "name": "commit",
                        "returnParams": [],
                        "signature": "commit(bytes32)"
                    },
                    "errorInfo": "",
                    "fromAddress": "0xe716c1303116243c3749bfd9c55fa58d4645d093",
                    "gasUsed": 44206,
                    "id": 0,
                    "methodDecoded": true,
                    "operation": "CALL",
                    "output": "",
                    "revert": false,
                    "revertMessage": "",
                    "selector": "0xf14fcbc8",
                    "status": true,
                    "value": "0"
                },
                "nodeType": 0
            }
        },
        "gasFlame": [
            {
                "children": [
                    {
                        "children": [
                            {
                                "children": [],
                                "depth": 0,
                                "name": "Initial Gas",
                                "value": 21576
                            },
                            {
                                "children": [],
                                "depth": 0,
                                "name": "Executed Gas",
                                "value": 22630
                            }
                        ],
                        "depth": -1,
                        "name": "Actual Gas Used",
                        "value": 44206
                    },
                    {
                        "children": [],
                        "depth": -1,
                        "name": "Refunded Gas",
                        "value": 0
                    }
                ],
                "depth": -2,
                "name": "Total Gas",
                "value": 44206
            }
        ],
        "isConfirmed": true,
        "mainTrace": [
            {
                "children": [
                    {
                        "children": [],
                        "depth": 0,
                        "id": 0,
                        "order": 0
                    }
                ],
                "depth": -1,
                "id": -1,
                "order": -1
            }
        ],
        "mainTraceNodeCount": 1,
        "parentIdMap": {
            "0": -1
        },
        "tidyTrace": [
            {
                "children": [
                    {
                        "children": [],
                        "depth": 0,
                        "id": 0,
                        "order": 0
                    }
                ],
                "depth": -1,
                "id": -1,
                "order": -1
            }
        ],
        "tidyTraceNodeCount": 1
    },
    "state_change": {
        "stateChanges": [
            {
                "address": "0x253553366da8546fc250f225fe3d25d0c782303b",
                "erc": "",
                "slots": [
                    {
                        "current": "0x00000000000000000000000000000000000000000000000000000000652d22b3",
                        "key": "0xa1292f8f7d3ea7a83f7e75a2e07f338d1b17efa8e965eec8cc1046c82e7e448a",
                        "prev": "0x0000000000000000000000000000000000000000000000000000000000000000"
                    }
                ],
                "storageVariables": [
                    {
                        "name": "commitments",
                        "type": "mapping(bytes32 => uint256)",
                        "value": {
                            "pairs": [
                                {
                                    "key": "0xc57c3a2f67b08246f298989e0b9720eaf2846df116bbf027623a4e6f7574b1a2",
                                    "value": {
                                        "current": "1697456819",
                                        "prev": "0",
                                        "typeTag": 1
                                    }
                                }
                            ],
                            "typeTag": 4
                        }
                    }
                ]
            }
        ]
    }
}