{
    "balance_change": {
        "balanceChanges": [
            {
                "account": "0x830e21eca9f397ae64ef2fbe9f1346f788b7fe43",
                "assets": [
                    {
                        "address": "0xcc8fa225d80b9c7d42f96e9570156c65d6caaa25",
                        "amount": "16,240",
                        "iconUrl": "https://assets.blocksec.com/icon/fc2a01d842c57a6a1fac3bd31569aeef596b047fed4623ea8486a1bc2aefb50d.png",
                        "isERC1155": false,
                        "isERC721": false,
                        "sign": false,
                        "value": "1.37342722"
                    }
                ]
            },
            {
                "account": "0x8670addc97ca136a7b6d589033c11d88b55e76ae",
                "assets": [
                    {
                        "address": "0xcc8fa225d80b9c7d42f96e9570156c65d6caaa25",
                        "amount": "16,240",
                        "iconUrl": "https://assets.blocksec.com/icon/fc2a01d842c57a6a1fac3bd31569aeef596b047fed4623ea8486a1bc2aefb50d.png",
                        "isERC1155": false,
                        "isERC721": false,
                        "sign": true,
                        "value": "1.37342722"
                    }
                ]
            }
        ]
    },
    "profile": {
        "basic_info": {
            "baseFee": "31.757940165",
            "blockNumber": 14446765,
            "callData": "0xa9059cbb0000000000000000000000008670addc97ca136a7b6d589033c11d88b55e76ae0000000000000000000000000000000000000000000000000000000000003f70",
            "debugEnable": true,
            "errorInfo": "",
            "eventCount": 1,
            "feeRecipient": "0x8f03f1a3f10c05e7cccf75c1fd10168e06659be7",
            "formatValue": "0",
            "gasLimit": 77302,
            "gasPrice": "33.257940165",
            "gasUsed": 46735,
            "intTxnCount": 0,
            "internalRevert": false,
            "internalRevertMessage": "",
            "isContractCreation": false,
            "isFlashloan": false,
            "maxFee": "46.623698042",
            "nonce": 47,
            "overwritedBlockNumber": -1,
            "priorityFee": "1.5",
            "receiver": "0xcc8fa225d80b9c7d42f96e9570156c65d6caaa25",
            "revertMessage": "",
            "sender": "0x830e21eca9f397ae64ef2fbe9f1346f788b7fe43",
            "simulationEnable": true,
            "sourceTxnHash": "0x1608ef84d9e07fb5d4f3e9d67354f9741ce7d442a8d3277fdafddf02a8f353a9",
            "status": true,
            "timestamp": "2022-03-24T04:08:53Z",
            "transactionFee": "0.001554309833611275",
            "txnHash": "0x1608ef84d9e07fb5d4f3e9d67354f9741ce7d442a8d3277fdafddf02a8f353a9",
            "txnIndex": 116,
            "type": 2,
            "value": "0"
        },
        "fund_flow": [
            {
                "amount": "16,240",
                "from": "0x830e21eca9f397ae64ef2fbe9f1346f788b7fe43",
                "id": 1,
                "isERC1155": false,
                "isERC721": false,
                "isReverted": false,
                "order": 1,
                "to": "0x8670addc97ca136a7b6d589033c11d88b55e76ae",
                "token": "0xcc8fa225d80b9c7d42f96e9570156c65d6caaa25"
            }
        ],
        "token_infos": [
            {
                "address": "0xc02aaa39b223fe8d0a0e5c4f27ead9083c756cc2",
                "decimals": 18
            },
            {
                "address": "0xcc8fa225d80b9c7d42f96e9570156c65d6caaa25",
                "decimals": 0
            },
            {
                "address": "0xeeeeeeeeeeeeeeeeeeeeeeeeeeeeeeeeeeeeeeee",
                "decimals": 18
            }
        ]
    },
    "address_label": {
        "labels": [
            {
                "address": "0x0000000000000000000000000000000000000001",
                "label": "Precompiled"
            },
            {
                "address": "0x0000000000000000000000000000000000000002",
                "label": "Precompiled"
            },
            {
                "address": "0x0000000000000000000000000000000000000003",
                "label": "Precompiled"
            },
            {
                "address": "0x0000000000000000000000000000000000000004",
                "label": "Precompiled"
            },
            {
                "address": "0xeeeeeeeeeeeeeeeeeeeeeeeeeeeeeeeeeeeeeeee",
                "label": "Ether"
            },
            {
                "address": "0xcc8fa225d80b9c7d42f96e9570156c65d6caaa25",
                "label": "Axie Infinity: SLP Token"
            }
        ]
    },
    "trace": {
        "accountLabels": null,
        "dataMap": {
            "-1": {
                "invocation": {
                    "address": "0x830e21eca9f397ae64ef2fbe9f1346f788b7fe43",
                    "callData": "",
                    "decodedMethod": null,
                    "errorInfo": "",
                    "fromAddress": "",
                    "gasUsed": 0,
                    "id": -1,
                    "methodDecoded": false,
                    "operation": "",
                    "output": "",
                    "revert": false,
                    "revertMessage": "",
                    "selector": "",
                    "status": false,
                    "value": ""
                },
                "nodeType": 0
            },
            "0": {
                "invocation": {
                    "address": "0xcc8fa225d80b9c7d42f96e9570156c65d6caaa25",
                    "callData": "0x0000000000000000000000008670addc97ca136a7b6d589033c11d88b55e76ae0000000000000000000000000000000000000000000000000000000000003f70",
                    "decodedMethod": {
                        "callParams": [
                            {
                                "name": "_to",
                                "type": "address",
                                "value": "0x8670addc97ca136a7b6d589033c11d88b55e76ae"
                            },
                            {
                                "decimalAvailable": true,
                                "name": "_value",
                                "type": "uint256",
                                "value": "16,240"
                            }
                        ],
                        "constructorArguments": "",
                        "name": "transfer",
                        "returnParams": [
                            {
                                "name": "_success",
                                "type": "bool",
                                "value": true
                            }
                        ],
                        "signature": "transfer(address,uint256)"
                    },
                    "errorInfo": "",
                    "fromAddress": "0x830e21eca9f397ae64ef2fbe9f1346f788b7fe43",
                    "gasUsed": 46735,
                    "id": 0,
                    "methodDecoded": true,
                    "operation": "CALL",
                    "output": "0x0000000000000000000000000000000000000000000000000000000000000001",
                    "revert": false,
                    "revertMessage": "",
                    "selector": "0xa9059cbb",
                    "status": true,
                    "value": "0"
                },
                "nodeType": 0
            },
            "1": {
                "event": {
                    "contract": "0xcc8fa225d80b9c7d42f96e9570156c65d6caaa25",
                    "decodedLog": {
                        "name": "Transfer",
                        "params": [
                            {
                                "name": "_from",
                                "type": "address",
                                "value": "0x830e21eca9f397ae64ef2fbe9f1346f788b7fe43"
                            },
                            {
                                "name": "_to",
                                "type": "address",
                                "value": "0x8670addc97ca136a7b6d589033c11d88b55e76ae"
                            },
                            {
                                "decimalAvailable": true,
                                "name": "_value",
                                "type": "uint256",
                                "value": "16,240"
                            }
                        ],
                        "signature": "Transfer(address,address,uint256)"
                    },
                    "id": 1,
                    "logData": "0x0000000000000000000000000000000000000000000000000000000000003f70",
                    "logDecoded": true,
                    "operation": "EVENT",
                    "revert": false,
                    "status": true,
                    "topics": [
                        "0xddf252ad1be2c89b69c2b068fc378daa952ba7f163c4a11628f55a4df523b3ef",
                        "0x000000000000000000000000830e21eca9f397ae64ef2fbe9f1346f788b7fe43",
                        "0x0000000000000000000000008670addc97ca136a7b6d589033c11d88b55e76ae"
                    ]
                },
                "nodeType": 1
            }
        },
        "gasFlame": [
            {
                "children": [
                    {
                        "children": [
                            {
                                "children": [],
                                "depth": 0,
                                "name": "Initial Gas",
                                "value": 21584
                            },
                            {
                                "children": [],
                                "depth": 0,
                                "name": "Executed Gas",
                                "value": 29951
                            }
                        ],
                        "depth": -1,
                        "name": "Actual Gas Used",
                        "value": 46735
                    },
                    {
                        "children": [],
                        "depth": -1,
                        "name": "Refunded Gas",
                        "value": 4800
                    }
                ],
                "depth": -2,
                "name": "Total Gas",
                "value": 51535
            }
        ],
        "isConfirmed": true,
        "mainTrace": [
            {
                "children": [
                    {
                        "children": [
                            {
                                "children": [],
                                "depth": 1,
                                "id": 1,
                                "order": 1
                            }
                        ],
                        "depth": 0,
                        "id": 0,
                        "order": 0
                    }
                ],
                "depth": -1,
                "id": -1,
                "order": -1
            }
        ],
        "mainTraceNodeCount": 2,
        "parentIdMap": {
            "0": -1,
            "1": 0
        },
        "tidyTrace": [
            {
                "children": [
                    {
                        "children": [
                            {
                                "children": [],
                                "depth": 1,
                                "id": 1,
                                "order": 1
                            }
                        ],
                        "depth": 0,
                        "id": 0,
                        "order": 0
                    }
                ],
                "depth": -1,
                "id": -1,
                "order": -1
            }
        ],
        "tidyTraceNodeCount": 2
    },
    "state_change": {
        "stateChanges": [
            {
                "address": "0xcc8fa225d80b9c7d42f96e9570156c65d6caaa25",
                "erc": "ERC-20",
                "slots": [
                    {
                        "current": "0x0000000000000000000000000000000000000000000000000000000000003f70",
                        "key": "0x1359b8a4c917a8d3cd31c5f8bb5ff49ae44544892b35fa55a1aaf7782607fbfe",
                        "prev": "0x0000000000000000000000000000000000000000000000000000000000000000"
                    },
                    {
                        "current": "0x0000000000000000000000000000000000000000000000000000000000000000",
                        "key": "0x948dae6730c83a070339002accae2fcbd59ce4ee366bd098bb77a1c042bec051",
                        "prev": "0x0000000000000000000000000000000000000000000000000000000000003f70"
                    }
                ],
                "storageVariables": [
                    {
                        "name": "balanceOf",
                        "type": "mapping(address => uint256)",
                        "value": {
                            "pairs": [
                                {
                                    "key": "0x830e21eca9f397ae64ef2fbe9f1346f788b7fe43",
                                    "value": {
                                        "current": "0",
                                        "prev": "16240",
                                        "typeTag": 1
                                    }
                                },
                                {
                                    "key": "0x8670addc97ca136a7b6d589033c11d88b55e76ae",
                                    "value": {
                                        "current": "16240",
                                        "prev": "0",
                                        "typeTag": 1
                                    }
                                }
                            ],
                            "typeTag": 4
                        }
                    }
                ]
            }
        ]
    }
}