{
    "balance_change": {
        "balanceChanges": [
            {
                "account": "0x1047113daaa506c59c9526f101c6bb18874bbff2",
                "assets": [
                    {
                        "address": "0x8f2798d8a77f5d51bd9cccc17a6f0bb537da2506",
                        "amount": "20",
                        "iconUrl": "",
                        "isERC1155": false,
                        "isERC721": false,
                        "sign": false,
                        "value": ""
                    }
                ]
            },
            {
                "account": "0xb2d69961cee1c7ac589c7c0a4978da08c8cb3517",
                "assets": [
                    {
                        "address": "0x8f2798d8a77f5d51bd9cccc17a6f0bb537da2506",
                        "amount": "20",
                        "iconUrl": "",
                        "isERC1155": false,
                        "isERC721": false,
                        "sign": true,
                        "value": ""
                    }
                ]
            }
        ]
    },
    "profile": {
        "basic_info": {
            "baseFee": "",
            "blockNumber": 9161755,
            "callData": "0xa9059cbb000000000000000000000000b2d69961cee1c7ac589c7c0a4978da08c8cb3517000000000000000000000000000000000000000000000001158e460913d00000",
            "debugEnable": true,
            "errorInfo": "",
            "eventCount": 1,
            "feeRecipient": "0xb2930b35844a230f00e51431acae96fe543a0347",
            "formatValue": "0",
            "gasLimit": 122144,
            "gasPrice": "3",
            "gasUsed": 51947,
            "intTxnCount": 0,
            "internalRevert": false,
            "internalRevertMessage": "",
            "isContractCreation": false,
            "isFlashloan": false,
            "maxFee": "",
            "nonce": 1749,
            "overwritedBlockNumber": -1,
            "priorityFee": "",
            "receiver": "0x8f2798d8a77f5d51bd9cccc17a6f0bb537da2506",
            "revertMessage": "",
            "sender": "0x1047113daaa506c59c9526f101c6bb18874bbff2",
            "simulationEnable": true,
            "sourceTxnHash": "0x1666d9d6b7a97cbcbee74c66607fa1027c050b940b032ee7d25c858776f64cfb",
            "status": true,
            "timestamp": "2019-12-25T17:25:29Z",
            "transactionFee": "0.000155841",
            "txnHash": "0x1666d9d6b7a97cbcbee74c66607fa1027c050b940b032ee7d25c858776f64cfb",
            "txnIndex": 35,
            "type": 0,
            "value": "0"
        },
        "fund_flow": [
            {
                "amount": "20",
                "from": "0x1047113daaa506c59c9526f101c6bb18874bbff2",
                "id": 1,
                "isERC1155": false,
                "isERC721": false,
                "isReverted": false,
                "order": 1,
                "to": "0xb2d69961cee1c7ac589c7c0a4978da08c8cb3517",
                "token": "0x8f2798d8a77f5d51bd9cccc17a6f0bb537da2506"
            }
        ],
        "token_infos": [
            {
                "address": "0xeeeeeeeeeeeeeeeeeeeeeeeeeeeeeeeeeeeeeeee",
                "decimals": 18
            },
            {
                "address": "0x8f2798d8a77f5d51bd9cccc17a6f0bb537da2506",
                "decimals": 18
            },
            {
                "address": "0xc02aaa39b223fe8d0a0e5c4f27ead9083c756cc2",
                "decimals": 18
            }
        ]
    },
    "address_label": {
        "labels": [
            {
                "address": "0xeeeeeeeeeeeeeeeeeeeeeeeeeeeeeeeeeeeeeeee",
                "label": "Ether"
            },
            {
                "address": "0x8f2798d8a77f5d51bd9cccc17a6f0bb537da2506",
                "label": "BTY"
            },
            {
                "address": "0x0000000000000000000000000000000000000001",
                "label": "Precompiled"
            },
            {
                "address": "0x0000000000000000000000000000000000000002",
                "label": "Precompiled"
            },
            {
                "address": "0x0000000000000000000000000000000000000003",
                "label": "Precompiled"
            },
            {
                "address": "0x0000000000000000000000000000000000000004",
                "label": "Precompiled"
            }
        ]
    },
    "trace": {
        "accountLabels": null,
        "dataMap": {
            "-1": {
                "invocation": {
                    "address": "0x1047113daaa506c59c9526f101c6bb18874bbff2",
                    "callData": "",
                    "decodedMethod": null,
                    "errorInfo": "",
                    "fromAddress": "",
                    "gasUsed": 0,
                    "id": -1,
                    "methodDecoded": false,
                    "operation": "",
                    "output": "",
                    "revert": false,
                    "revertMessage": "",
                    "selector": "",
                    "status": false,
                    "value": ""
                },
                "nodeType": 0
            },
            "0": {
                "invocation": {
                    "address": "0x8f2798d8a77f5d51bd9cccc17a6f0bb537da2506",
                    "callData": "0x000000000000000000000000b2d69961cee1c7ac589c7c0a4978da08c8cb3517000000000000000000000000000000000000000000000001158e460913d00000",
                    "decodedMethod": {
                        "callParams": [
                            {
                                "name": "to",
                                "type": "address",
                                "value": "0xb2d69961cee1c7ac589c7c0a4978da08c8cb3517"
                            },
                            {
                                "decimalAvailable": true,
                                "name": "value",
                                "type": "uint256",
                                "value": "20,000,000,000,000,000,000"
                            }
                        ],
                        "constructorArguments": "",
                        "name": "transfer",
                        "returnParams": [
                            {
                                "name": "",
                                "type": "bool",
                                "value": true
                            }
                        ],
                        "signature": "transfer(address,uint256)"
                    },
                    "errorInfo": "",
                    "fromAddress": "0x1047113daaa506c59c9526f101c6bb18874bbff2",
                    "gasUsed": 51947,
                    "id": 0,
                    "methodDecoded": true,
                    "operation": "CALL",
                    "output": "0x0000000000000000000000000000000000000000000000000000000000000001",
                    "revert": false,
                    "revertMessage": "",
                    "selector": "0xa9059cbb",
                    "status": true,
                    "value": "0"
                },
                "nodeType": 0
            },
            "1": {
                "event": {
                    "contract": "0x8f2798d8a77f5d51bd9cccc17a6f0bb537da2506",
                    "decodedLog": {
                        "name": "Transfer",
                        "params": [
                            {
                                "name": "from",
                                "type": "address",
                                "value": "0x1047113daaa506c59c9526f101c6bb18874bbff2"
                            },
                            {
                                "name": "to",
                                "type": "address",
                                "value": "0xb2d69961cee1c7ac589c7c0a4978da08c8cb3517"
                            },
                            {
                                "decimalAvailable": true,
                                "name": "value",
                                "type": "uint256",
                                "value": "20,000,000,000,000,000,000"
                            }
                        ],
                        "signature": "Transfer(address,address,uint256)"
                    },
                    "id": 1,
                    "logData": "0x000000000000000000000000000000000000000000000001158e460913d00000",
                    "logDecoded": true,
                    "operation": "EVENT",
                    "revert": false,
                    "status": true,
                    "topics": [
                        "0xddf252ad1be2c89b69c2b068fc378daa952ba7f163c4a11628f55a4df523b3ef",
                        "0x0000000000000000000000001047113daaa506c59c9526f101c6bb18874bbff2",
                        "0x000000000000000000000000b2d69961cee1c7ac589c7c0a4978da08c8cb3517"
                    ]
                },
                "nodeType": 1
            }
        },
        "gasFlame": [
            {
                "children": [
                    {
                        "children": [
                            {
                                "children": [],
                                "depth": 0,
                                "name": "Initial Gas",
                                "value": 21644
                            },
                            {
                                "children": [],
                                "depth": 0,
                                "name": "Executed Gas",
                                "value": 30303
                            }
                        ],
                        "depth": -1,
                        "name": "Actual Gas Used",
                        "value": 51947
                    },
                    {
                        "children": [],
                        "depth": -1,
                        "name": "Refunded Gas",
                        "value": 0
                    }
                ],
                "depth": -2,
                "name": "Total Gas",
                "value": 51947
            }
        ],
        "isConfirmed": true,
        "mainTrace": [
            {
                "children": [
                    {
                        "children": [
                            {
                                "children": [],
                                "depth": 1,
                                "id": 1,
                                "order": 1
                            }
                        ],
                        "depth": 0,
                        "id": 0,
                        "order": 0
                    }
                ],
                "depth": -1,
                "id": -1,
                "order": -1
            }
        ],
        "mainTraceNodeCount": 2,
        "parentIdMap": {
            "0": -1,
            "1": 0
        },
        "tidyTrace": [
            {
                "children": [
                    {
                        "children": [
                            {
                                "children": [],
                                "depth": 1,
                                "id": 1,
                                "order": 1
                            }
                        ],
                        "depth": 0,
                        "id": 0,
                        "order": 0
                    }
                ],
                "depth": -1,
                "id": -1,
                "order": -1
            }
        ],
        "tidyTraceNodeCount": 2
    },
    "state_change": {
        "stateChanges": [
            {
                "address": "0x8f2798d8a77f5d51bd9cccc17a6f0bb537da2506",
                "erc": "ERC-20",
                "slots": [
                    {
                        "current": "0x00000000000000000000000000000000000000000000b72bbe7429953aa00000",
                        "key": "0xf0c4f66d97c16401926721198ed2e5adeaa7ca41d7e41624b19ca1dad7e58c9c",
                        "prev": "0x00000000000000000000000000000000000000000000b72cd4026f9e4e700000"
                    },
                    {
                        "current": "0x000000000000000000000000000000000000000000000001158e460913d00000",
                        "key": "0x836c9b5942684eb84feb9a9586be67d5efa378cac368fcbb575ed920cb203e5d",
                        "prev": "0x0000000000000000000000000000000000000000000000000000000000000000"
                    }
                ],
                "storageVariables": [
                    {
                        "name": "_balances",
                        "type": "mapping(address => uint256)",
                        "value": {
                            "pairs": [
                                {
                                    "key": "0x1047113daaa506c59c9526f101c6bb18874bbff2",
                                    "value": {
                                        "current": "865000000000000000000000",
                                        "prev": "865020000000000000000000",
                                        "typeTag": 1
                                    }
                                },
                                {
                                    "key": "0xb2d69961cee1c7ac589c7c0a4978da08c8cb3517",
                                    "value": {
                                        "current": "20000000000000000000",
                                        "prev": "0",
                                        "typeTag": 1
                                    }
                                }
                            ],
                            "typeTag": 4
                        }
                    }
                ]
            }
        ]
    }
}