{
    "balance_change": {
        "balanceChanges": [
            {
                "account": "0x91e2370b367abe26b859c3a1599df5b4ebab2396",
                "assets": [
                    {
                        "address": "0xeeeeeeeeeeeeeeeeeeeeeeeeeeeeeeeeeeeeeeee",
                        "amount": "0.002",
                        "iconUrl": "https://assets.blocksec.com/image/1663669189317-3.png",
                        "isERC1155": false,
                        "isERC721": false,
                        "sign": false,
                        "value": "4.555178399999999783"
                    }
                ]
            },
            {
                "account": "0xf047ab4c75cebf0eb9ed34ae2c186f3611aeafa6",
                "assets": [
                    {
                        "address": "0xc02aaa39b223fe8d0a0e5c4f27ead9083c756cc2",
                        "amount": "0.002",
                        "iconUrl": "https://assets.blocksec.com/icon/f1cb2d02c471d545bbc7722daf3277fd852d98e63d118771af7047bd8256c516.png",
                        "isERC1155": false,
                        "isERC721": false,
                        "sign": true,
                        "value": "4.555178399999999783"
                    }
                ]
            },
            {
                "account": "0xc02aaa39b223fe8d0a0e5c4f27ead9083c756cc2",
                "assets": [
                    {
                        "address": "0xeeeeeeeeeeeeeeeeeeeeeeeeeeeeeeeeeeeeeeee",
                        "amount": "0.002",
                        "iconUrl": "https://assets.blocksec.com/image/1663669189317-3.png",
                        "isERC1155": false,
                        "isERC721": false,
                        "sign": true,
                        "value": "4.555178399999999783"
                    },
                    {
                        "address": "0xc02aaa39b223fe8d0a0e5c4f27ead9083c756cc2",
                        "amount": "0.002",
                        "iconUrl": "https://assets.blocksec.com/icon/f1cb2d02c471d545bbc7722daf3277fd852d98e63d118771af7047bd8256c516.png",
                        "isERC1155": false,
                        "isERC721": false,
                        "sign": false,
                        "value": "4.555178399999999783"
                    }
                ]
            }
        ]
    },
    "profile": {
        "basic_info": {
            "baseFee": "1.52791236",
            "blockNumber": 20707276,
            "callData": "0xf6203e3500000000000000000000000091e2370b367abe26b859c3a1599df5b4ebab2396",
            "debugEnable": true,
            "errorInfo": "",
            "eventCount": 2,
            "feeRecipient": "0x95222290dd7278aa3ddd389cc1e1d165cc4bafe5",
            "formatValue": "0.002",
            "gasLimit": 109884,
            "gasPrice": "2",
            "gasUsed": 72386,
            "intTxnCount": 1,
            "internalRevert": false,
            "internalRevertMessage": "",
            "isContractCreation": false,
            "isFlashloan": false,
            "maxFee": "2",
            "nonce": 24,
            "overwritedBlockNumber": -1,
            "priorityFee": "0.5",
            "receiver": "0xf047ab4c75cebf0eb9ed34ae2c186f3611aeafa6",
            "revertMessage": "",
            "sender": "0x91e2370b367abe26b859c3a1599df5b4ebab2396",
            "simulationEnable": true,
            "sourceTxnHash": "0x1677aab609ce933cb27b957836e9ddcc7917cdeb95428fcf15ecaa4469dda843",
            "status": true,
            "timestamp": "2024-09-08T17:06:11Z",
            "transactionFee": "0.000144772",
            "txnHash": "0x1677aab609ce933cb27b957836e9ddcc7917cdeb95428fcf15ecaa4469dda843",
            "txnIndex": 117,
            "type": 2,
            "value": "2000000000000000"
        },
        "fund_flow": [
            {
                "amount": "0.002",
                "from": "0x91e2370b367abe26b859c3a1599df5b4ebab2396",
                "id": 1,
                "isERC1155": false,
                "isERC721": false,
                "isReverted": false,
                "order": 1,
                "to": "0xf047ab4c75cebf0eb9ed34ae2c186f3611aeafa6",
                "token": "0xeeeeeeeeeeeeeeeeeeeeeeeeeeeeeeeeeeeeeeee"
            },
            {
                "amount": "0.002",
                "from": "0xf047ab4c75cebf0eb9ed34ae2c186f3611aeafa6",
                "id": 2,
                "isERC1155": false,
                "isERC721": false,
                "isReverted": false,
                "order": 2,
                "to": "0xc02aaa39b223fe8d0a0e5c4f27ead9083c756cc2",
                "token": "0xeeeeeeeeeeeeeeeeeeeeeeeeeeeeeeeeeeeeeeee"
            },
            {
                "amount": "0.002",
                "from": "0xc02aaa39b223fe8d0a0e5c4f27ead9083c756cc2",
                "id": 3,
                "isERC1155": false,
                "isERC721": false,
                "isReverted": false,
                "order": 3,
                "to": "0xf047ab4c75cebf0eb9ed34ae2c186f3611aeafa6",
                "token": "0xc02aaa39b223fe8d0a0e5c4f27ead9083c756cc2"
            }
        ],
        "token_infos": [
            {
                "address": "0xeeeeeeeeeeeeeeeeeeeeeeeeeeeeeeeeeeeeeeee",
                "decimals": 18
            },
            {
                "address": "0xc02aaa39b223fe8d0a0e5c4f27ead9083c756cc2",
                "decimals": 18
            }
        ]
    },
    "address_label": {
        "labels": [
            {
                "address": "0x0000000000000000000000000000000000000003",
                "label": "Precompiled"
            },
            {
                "address": "0x0000000000000000000000000000000000000004",
                "label": "Precompiled"
            },
            {
                "address": "0xeeeeeeeeeeeeeeeeeeeeeeeeeeeeeeeeeeeeeeee",
                "label": "Ether"
            },
            {
                "address": "0xf047ab4c75cebf0eb9ed34ae2c186f3611aeafa6",
                "label": "Zircuit: Restaking Pool"
            },
            {
                "address": "0xc02aaa39b223fe8d0a0e5c4f27ead9083c756cc2",
                "label": "Wrapped Ether (WETH)"
            },
            {
                "address": "0x0000000000000000000000000000000000000001",
                "label": "Precompiled"
            },
            {
                "address": "0x0000000000000000000000000000000000000002",
                "label": "Precompiled"
            }
        ]
    },
    "trace": {
        "accountLabels": null,
        "dataMap": {
            "-1": {
                "invocation": {
                    "address": "0x91e2370b367abe26b859c3a1599df5b4ebab2396",
                    "callData": "",
                    "decodedMethod": null,
                    "errorInfo": "",
                    "fromAddress": "",
                    "gasUsed": 0,
                    "id": -1,
                    "methodDecoded": false,
                    "operation": "",
                    "output": "",
                    "revert": false,
                    "revertMessage": "",
                    "selector": "",
                    "status": false,
                    "value": ""
                },
                "nodeType": 0
            },
            "0": {
                "invocation": {
                    "address": "0xf047ab4c75cebf0eb9ed34ae2c186f3611aeafa6",
                    "callData": "0x00000000000000000000000091e2370b367abe26b859c3a1599df5b4ebab2396",
                    "decodedMethod": {
                        "callParams": [
                            {
                                "name": "_for",
                                "type": "address",
                                "value": "0x91e2370b367abe26b859c3a1599df5b4ebab2396"
                            }
                        ],
                        "constructorArguments": "",
                        "name": "depositETHFor",
                        "returnParams": [],
                        "signature": "depositETHFor(address)"
                    },
                    "errorInfo": "",
                    "fromAddress": "0x91e2370b367abe26b859c3a1599df5b4ebab2396",
                    "gasUsed": 72386,
                    "id": 0,
                    "methodDecoded": true,
                    "operation": "CALL",
                    "output": "",
                    "revert": false,
                    "revertMessage": "",
                    "selector": "0xf6203e35",
                    "status": true,
                    "value": "0.002"
                },
                "nodeType": 0
            },
            "1": {
                "event": {
                    "contract": "0xf047ab4c75cebf0eb9ed34ae2c186f3611aeafa6",
                    "decodedLog": {
                        "name": "Deposit",
                        "params": [
                            {
                                "name": "eventId",
                                "type": "uint256",
                                "value": "304,066"
                            },
                            {
                                "name": "depositor",
                                "type": "address",
                                "value": "0x91e2370b367abe26b859c3a1599df5b4ebab2396"
                            },
                            {
                                "name": "token",
                                "type": "address",
                                "value": "0xc02aaa39b223fe8d0a0e5c4f27ead9083c756cc2"
                            },
                            {
                                "name": "amount",
                                "type": "uint256",
                                "value": "2,000,000,000,000,000"
                            }
                        ],
                        "signature": "Deposit(uint256,address,address,uint256)"
                    },
                    "id": 1,
                    "logData": "0x00000000000000000000000000000000000000000000000000071afd498d0000",
                    "logDecoded": true,
                    "operation": "EVENT",
                    "revert": false,
                    "status": true,
                    "topics": [
                        "0x2c0f148b435140de488c1b34647f1511c646f7077e87007bacf22ef9977a16d8",
                        "0x000000000000000000000000000000000000000000000000000000000004a3c2",
                        "0x00000000000000000000000091e2370b367abe26b859c3a1599df5b4ebab2396",
                        "0x000000000000000000000000c02aaa39b223fe8d0a0e5c4f27ead9083c756cc2"
                    ]
                },
                "nodeType": 1
            },
            "2": {
                "invocation": {
                    "address": "0xc02aaa39b223fe8d0a0e5c4f27ead9083c756cc2",
                    "callData": "0x",
                    "decodedMethod": {
                        "callParams": [],
                        "constructorArguments": "",
                        "name": "deposit",
                        "returnParams": [],
                        "signature": "deposit()"
                    },
                    "errorInfo": "",
                    "fromAddress": "0xf047ab4c75cebf0eb9ed34ae2c186f3611aeafa6",
                    "gasUsed": 6874,
                    "id": 2,
                    "methodDecoded": true,
                    "operation": "CALL",
                    "output": "",
                    "revert": false,
                    "revertMessage": "",
                    "selector": "0xd0e30db0",
                    "status": true,
                    "value": "0.002"
                },
                "nodeType": 0
            },
            "3": {
                "event": {
                    "contract": "0xc02aaa39b223fe8d0a0e5c4f27ead9083c756cc2",
                    "decodedLog": {
                        "name": "Deposit",
                        "params": [
                            {
                                "name": "dst",
                                "type": "address",
                                "value": "0xf047ab4c75cebf0eb9ed34ae2c186f3611aeafa6"
                            },
                            {
                                "name": "wad",
                                "type": "uint256",
                                "value": "2,000,000,000,000,000"
                            }
                        ],
                        "signature": "Deposit(address,uint256)"
                    },
                    "id": 3,
                    "logData": "0x00000000000000000000000000000000000000000000000000071afd498d0000",
                    "logDecoded": true,
                    "operation": "EVENT",
                    "revert": false,
                    "status": true,
                    "topics": [
                        "0xe1fffcc4923d04b559f4d29a8bfc6cda04eb5b0d3c460751c2402c5c5cc9109c",
                        "0x000000000000000000000000f047ab4c75cebf0eb9ed34ae2c186f3611aeafa6"
                    ]
                },
                "nodeType": 1
            }
        },
        "gasFlame": [
            {
                "children": [
                    {
                        "children": [
                            {
                                "children": [],
                                "depth": 0,
                                "name": "Initial Gas",
                                "value": 21432
                            },
                            {
                                "children": [
                                    {
                                        "children": [],
                                        "depth": 1,
                                        "name": "deposit",
                                        "value": 6874
                                    }
                                ],
                                "depth": 0,
                                "name": "Executed Gas",
                                "value": 50954
                            }
                        ],
                        "depth": -1,
                        "name": "Actual Gas Used",
                        "value": 72386
                    },
                    {
                        "children": [],
                        "depth": -1,
                        "name": "Refunded Gas",
                        "value": 0
                    }
                ],
                "depth": -2,
                "name": "Total Gas",
                "value": 72386
            }
        ],
        "isConfirmed": true,
        "mainTrace": [
            {
                "children": [
                    {
                        "children": [
                            {
                                "children": [],
                                "depth": 1,
                                "id": 1,
                                "order": 1
                            },
                            {
                                "children": [
                                    {
                                        "children": [],
                                        "depth": 2,
                                        "id": 3,
                                        "order": 3
                                    }
                                ],
                                "depth": 1,
                                "id": 2,
                                "order": 2
                            }
                        ],
                        "depth": 0,
                        "id": 0,
                        "order": 0
                    }
                ],
                "depth": -1,
                "id": -1,
                "order": -1
            }
        ],
        "mainTraceNodeCount": 4,
        "parentIdMap": {
            "0": -1,
            "1": 0,
            "2": 0,
            "3": 2
        },
        "tidyTrace": [
            {
                "children": [
                    {
                        "children": [
                            {
                                "children": [],
                                "depth": 1,
                                "id": 1,
                                "order": 1
                            },
                            {
                                "children": [
                                    {
                                        "children": [],
                                        "depth": 2,
                                        "id": 3,
                                        "order": 3
                                    }
                                ],
                                "depth": 1,
                                "id": 2,
                                "order": 2
                            }
                        ],
                        "depth": 0,
                        "id": 0,
                        "order": 0
                    }
                ],
                "depth": -1,
                "id": -1,
                "order": -1
            }
        ],
        "tidyTraceNodeCount": 4
    },
    "state_change": {
        "stateChanges": [
            {
                "address": "0xc02aaa39b223fe8d0a0e5c4f27ead9083c756cc2",
                "erc": "ERC-20",
                "slots": [
                    {
                        "current": "0x0000000000000000000000000000000000000000000000c342f94b1e476f342d",
                        "key": "0xeb62d437399c320c774f92f53bb4cb0495bd8fa47c9403d150ac3c8929b18126",
                        "prev": "0x0000000000000000000000000000000000000000000000c342f23020fde2342d"
                    }
                ],
                "storageVariables": [
                    {
                        "name": "balanceOf",
                        "type": "mapping(address => uint256)",
                        "value": {
                            "pairs": [
                                {
                                    "key": "0xf047ab4c75cebf0eb9ed34ae2c186f3611aeafa6",
                                    "value": {
                                        "current": "3601941065442486334509",
                                        "prev": "3601939065442486334509",
                                        "typeTag": 1
                                    }
                                }
                            ],
                            "typeTag": 4
                        }
                    }
                ]
            },
            {
                "address": "0xf047ab4c75cebf0eb9ed34ae2c186f3611aeafa6",
                "erc": "",
                "slots": [
                    {
                        "current": "0x00000000000000000000000000000000000000000000000000071afd498d0000",
                        "key": "0xd477d5134861000b45104a8fcebf543a175f0eb60f128c56dc2cff70e38b859a",
                        "prev": "0x0000000000000000000000000000000000000000000000000000000000000000"
                    },
                    {
                        "current": "0x000000000000000000000000000000000000000000000000000000000004a3c2",
                        "key": "0x0000000000000000000000000000000000000000000000000000000000000008",
                        "prev": "0x000000000000000000000000000000000000000000000000000000000004a3c1"
                    }
                ],
                "storageVariables": [
                    {
                        "name": "balance",
                        "type": "mapping(address => mapping(address => uint256))",
                        "value": {
                            "pairs": [
                                {
                                    "key": "0xc02aaa39b223fe8d0a0e5c4f27ead9083c756cc2",
                                    "value": {
                                        "pairs": [
                                            {
                                                "key": "0x91e2370b367abe26b859c3a1599df5b4ebab2396",
                                                "value": {
                                                    "current": "2000000000000000",
                                                    "prev": "0",
                                                    "typeTag": 1
                                                }
                                            }
                                        ],
                                        "typeTag": 4
                                    }
                                }
                            ],
                            "typeTag": 4
                        }
                    },
                    {
                        "name": "eventId",
                        "type": "uint256",
                        "value": {
                            "current": "304066",
                            "prev": "304065",
                            "typeTag": 1
                        }
                    }
                ]
            }
        ]
    }
}