{
    "balance_change": {
        "balanceChanges": []
    },
    "profile": {
        "basic_info": {
            "baseFee": "",
            "blockNumber": 9551382,
            "callData": "0x278b8c0e000000000000000000000000000000000000000000000000000000000000000000000000000000000000000000000000000000000000000024a65c8ed3544000000000000000000000000000a30c7cdac7d8505f32bb0930ed82b9ba5777b5f3000000000000000000000000000000000000000000000000000110d9316ec000000000000000000000000000000000000000000000000000000000174908a60100000000000000000000000000000000000000000000000000000000ddaa2974000000000000000000000000000000000000000000000000000000000000001c4a097413efd1bca0dc0c233e0cddd12c6d54b2a347af5c4d26a44df4444babe3403cab34ccf4651b516b6bd13b22c0a807c4af2064c72363d479eb95a9bf5b5f",
            "debugEnable": true,
            "errorInfo": "",
            "eventCount": 1,
            "feeRecipient": "0x5a0b54d5dc17e0aadc383d2db43b0a0d3e029c4c",
            "formatValue": "0",
            "gasLimit": 250000,
            "gasPrice": "4",
            "gasUsed": 34983,
            "intTxnCount": 2,
            "internalRevert": false,
            "internalRevertMessage": "",
            "isContractCreation": false,
            "isFlashloan": false,
            "maxFee": "",
            "nonce": 49,
            "overwritedBlockNumber": -1,
            "priorityFee": "",
            "receiver": "0x3c020e014069df790d4f4e63fd297ba4e1c8e51f",
            "revertMessage": "",
            "sender": "0x7de27b5647e9ccd24adb1f056964033e0e6b0511",
            "simulationEnable": true,
            "sourceTxnHash": "0x1792d993e99edbd0b72dc016301f6d49c8d50ac4e9e36c5c1beda462055b38dd",
            "status": true,
            "timestamp": "2020-02-25T07:53:23Z",
            "transactionFee": "0.000139932",
            "txnHash": "0x1792d993e99edbd0b72dc016301f6d49c8d50ac4e9e36c5c1beda462055b38dd",
            "txnIndex": 57,
            "type": 0,
            "value": "0"
        },
        "fund_flow": [],
        "token_infos": [
            {
                "address": "0xc02aaa39b223fe8d0a0e5c4f27ead9083c756cc2",
                "decimals": 18
            },
            {
                "address": "0xeeeeeeeeeeeeeeeeeeeeeeeeeeeeeeeeeeeeeeee",
                "decimals": 18
            }
        ]
    },
    "address_label": {
        "labels": [
            {
                "address": "0x0000000000000000000000000000000000000001",
                "label": "Precompiled"
            },
            {
                "address": "0x0000000000000000000000000000000000000003",
                "label": "Precompiled"
            },
            {
                "address": "0x0000000000000000000000000000000000000004",
                "label": "Precompiled"
            },
            {
                "address": "0xeeeeeeeeeeeeeeeeeeeeeeeeeeeeeeeeeeeeeeee",
                "label": "Ether"
            },
            {
                "address": "0x3c020e014069df790d4f4e63fd297ba4e1c8e51f",
                "label": "Bitcratic"
            },
            {
                "address": "0xa30c7cdac7d8505f32bb0930ed82b9ba5777b5f3",
                "label": "NUCLUM (NLM)"
            },
            {
                "address": "0x0000000000000000000000000000000000000002",
                "label": "Precompiled"
            },
            {
                "address": "0x0000000000000000000000000000000000000000",
                "label": "Null Address"
            }
        ]
    },
    "trace": {
        "accountLabels": null,
        "dataMap": {
            "-1": {
                "invocation": {
                    "address": "0x7de27b5647e9ccd24adb1f056964033e0e6b0511",
                    "callData": "",
                    "decodedMethod": null,
                    "errorInfo": "",
                    "fromAddress": "",
                    "gasUsed": 0,
                    "id": -1,
                    "methodDecoded": false,
                    "operation": "",
                    "output": "",
                    "revert": false,
                    "revertMessage": "",
                    "selector": "",
                    "status": false,
                    "value": ""
                },
                "nodeType": 0
            },
            "0": {
                "invocation": {
                    "address": "0x3c020e014069df790d4f4e63fd297ba4e1c8e51f",
                    "callData": "0x000000000000000000000000000000000000000000000000000000000000000000000000000000000000000000000000000000000000000024a65c8ed3544000000000000000000000000000a30c7cdac7d8505f32bb0930ed82b9ba5777b5f3000000000000000000000000000000000000000000000000000110d9316ec000000000000000000000000000000000000000000000000000000000174908a60100000000000000000000000000000000000000000000000000000000ddaa2974000000000000000000000000000000000000000000000000000000000000001c4a097413efd1bca0dc0c233e0cddd12c6d54b2a347af5c4d26a44df4444babe3403cab34ccf4651b516b6bd13b22c0a807c4af2064c72363d479eb95a9bf5b5f",
                    "decodedMethod": {
                        "callParams": [
                            {
                                "name": "tokenGet",
                                "type": "address",
                                "value": "0x0000000000000000000000000000000000000000"
                            },
                            {
                                "name": "amountGet",
                                "type": "uint256",
                                "value": "2,640,900,000,000,000,000"
                            },
                            {
                                "name": "tokenGive",
                                "type": "address",
                                "value": "0xa30c7cdac7d8505f32bb0930ed82b9ba5777b5f3"
                            },
                            {
                                "name": "amountGive",
                                "type": "uint256",
                                "value": "300,000,000,000,000"
                            },
                            {
                                "name": "expires",
                                "type": "uint256",
                                "value": "100,009,551,361"
                            },
                            {
                                "name": "nonce",
                                "type": "uint256",
                                "value": "3,718,916,468"
                            },
                            {
                                "name": "v",
                                "type": "uint8",
                                "value": "28"
                            },
                            {
                                "name": "r",
                                "type": "bytes32",
                                "value": "0x4a097413efd1bca0dc0c233e0cddd12c6d54b2a347af5c4d26a44df4444babe3"
                            },
                            {
                                "name": "s",
                                "type": "bytes32",
                                "value": "0x403cab34ccf4651b516b6bd13b22c0a807c4af2064c72363d479eb95a9bf5b5f"
                            }
                        ],
                        "constructorArguments": "",
                        "name": "cancelOrder",
                        "returnParams": [],
                        "signature": "cancelOrder(address,uint256,address,uint256,uint256,uint256,uint8,bytes32,bytes32)"
                    },
                    "errorInfo": "",
                    "fromAddress": "0x7de27b5647e9ccd24adb1f056964033e0e6b0511",
                    "gasUsed": 34983,
                    "id": 0,
                    "methodDecoded": true,
                    "operation": "CALL",
                    "output": "",
                    "revert": false,
                    "revertMessage": "",
                    "selector": "0x278b8c0e",
                    "status": true,
                    "value": "0"
                },
                "nodeType": 0
            },
            "1": {
                "invocation": {
                    "address": "0x0000000000000000000000000000000000000002",
                    "callData": "0x4069df790d4f4e63fd297ba4e1c8e51f000000000000000000000000000000000000000000000000000000000000000000000000000000000000000024a65c8ed3544000a30c7cdac7d8505f32bb0930ed82b9ba5777b5f3000000000000000000000000000000000000000000000000000110d9316ec000000000000000000000000000000000000000000000000000000000174908a60100000000000000000000000000000000000000000000000000000000ddaa2974",
                    "decodedMethod": {
                        "callParams": [
                            {
                                "name": "data",
                                "type": "bytes",
                                "value": "0x3c020e014069df790d4f4e63fd297ba4e1c8e51f000000000000000000000000000000000000000000000000000000000000000000000000000000000000000024a65c8ed3544000a30c7cdac7d8505f32bb0930ed82b9ba5777b5f3000000000000000000000000000000000000000000000000000110d9316ec000000000000000000000000000000000000000000000000000000000174908a60100000000000000000000000000000000000000000000000000000000ddaa2974"
                            }
                        ],
                        "constructorArguments": "",
                        "name": "sha256hash",
                        "returnParams": [
                            {
                                "name": "hash",
                                "type": "bytes32",
                                "value": "0xddf85ae765cf100557373e0d441bc58639e0512d682c0347fc6b3683ac2b75e1"
                            }
                        ],
                        "signature": "sha256hash(bytes)"
                    },
                    "errorInfo": "",
                    "fromAddress": "0x3c020e014069df790d4f4e63fd297ba4e1c8e51f",
                    "gasUsed": 132,
                    "id": 1,
                    "methodDecoded": true,
                    "operation": "CALL",
                    "output": "0xddf85ae765cf100557373e0d441bc58639e0512d682c0347fc6b3683ac2b75e1",
                    "revert": false,
                    "revertMessage": "",
                    "selector": "0x3c020e01",
                    "status": true,
                    "value": "0"
                },
                "nodeType": 0
            },
            "2": {
                "invocation": {
                    "address": "0x0000000000000000000000000000000000000001",
                    "callData": "0x47e0705fca433e77c92877d67c969ef0033275bb25325b7f668d5fb6000000000000000000000000000000000000000000000000000000000000001c4a097413efd1bca0dc0c233e0cddd12c6d54b2a347af5c4d26a44df4444babe3403cab34ccf4651b516b6bd13b22c0a807c4af2064c72363d479eb95a9bf5b5f",
                    "decodedMethod": {
                        "callParams": [
                            {
                                "name": "hash",
                                "type": "bytes32",
                                "value": "0x760b4f9147e0705fca433e77c92877d67c969ef0033275bb25325b7f668d5fb6"
                            },
                            {
                                "name": "v",
                                "type": "uint256",
                                "value": "28"
                            },
                            {
                                "name": "r",
                                "type": "bytes32",
                                "value": "0x4a097413efd1bca0dc0c233e0cddd12c6d54b2a347af5c4d26a44df4444babe3"
                            },
                            {
                                "name": "s",
                                "type": "bytes32",
                                "value": "0x403cab34ccf4651b516b6bd13b22c0a807c4af2064c72363d479eb95a9bf5b5f"
                            }
                        ],
                        "constructorArguments": "",
                        "name": "ecrecover",
                        "returnParams": [
                            {
                                "name": "",
                                "type": "address",
                                "value": "0x7de27b5647e9ccd24adb1f056964033e0e6b0511"
                            }
                        ],
                        "signature": "ecrecover(bytes32,uint256,bytes32,bytes32)"
                    },
                    "errorInfo": "",
                    "fromAddress": "0x3c020e014069df790d4f4e63fd297ba4e1c8e51f",
                    "gasUsed": 3000,
                    "id": 2,
                    "methodDecoded": true,
                    "operation": "CALL",
                    "output": "0x0000000000000000000000007de27b5647e9ccd24adb1f056964033e0e6b0511",
                    "revert": false,
                    "revertMessage": "",
                    "selector": "0x760b4f91",
                    "status": true,
                    "value": "0"
                },
                "nodeType": 0
            },
            "3": {
                "event": {
                    "contract": "0x3c020e014069df790d4f4e63fd297ba4e1c8e51f",
                    "decodedLog": {
                        "name": "Cancel",
                        "params": [
                            {
                                "name": "tokenGet",
                                "type": "address",
                                "value": "0x0000000000000000000000000000000000000000"
                            },
                            {
                                "name": "amountGet",
                                "type": "uint256",
                                "value": "2,640,900,000,000,000,000"
                            },
                            {
                                "name": "tokenGive",
                                "type": "address",
                                "value": "0xa30c7cdac7d8505f32bb0930ed82b9ba5777b5f3"
                            },
                            {
                                "name": "amountGive",
                                "type": "uint256",
                                "value": "300,000,000,000,000"
                            },
                            {
                                "name": "expires",
                                "type": "uint256",
                                "value": "100,009,551,361"
                            },
                            {
                                "name": "nonce",
                                "type": "uint256",
                                "value": "3,718,916,468"
                            },
                            {
                                "name": "user",
                                "type": "address",
                                "value": "0x7de27b5647e9ccd24adb1f056964033e0e6b0511"
                            },
                            {
                                "name": "v",
                                "type": "uint8",
                                "value": "28"
                            },
                            {
                                "name": "r",
                                "type": "bytes32",
                                "value": "0x4a097413efd1bca0dc0c233e0cddd12c6d54b2a347af5c4d26a44df4444babe3"
                            },
                            {
                                "name": "s",
                                "type": "bytes32",
                                "value": "0x403cab34ccf4651b516b6bd13b22c0a807c4af2064c72363d479eb95a9bf5b5f"
                            }
                        ],
                        "signature": "Cancel(address,uint256,address,uint256,uint256,uint256,address,uint8,bytes32,bytes32)"
                    },
                    "id": 3,
                    "logData": "0x000000000000000000000000000000000000000000000000000000000000000000000000000000000000000000000000000000000000000024a65c8ed3544000000000000000000000000000a30c7cdac7d8505f32bb0930ed82b9ba5777b5f3000000000000000000000000000000000000000000000000000110d9316ec000000000000000000000000000000000000000000000000000000000174908a60100000000000000000000000000000000000000000000000000000000ddaa29740000000000000000000000007de27b5647e9ccd24adb1f056964033e0e6b0511000000000000000000000000000000000000000000000000000000000000001c4a097413efd1bca0dc0c233e0cddd12c6d54b2a347af5c4d26a44df4444babe3403cab34ccf4651b516b6bd13b22c0a807c4af2064c72363d479eb95a9bf5b5f",
                    "logDecoded": true,
                    "operation": "EVENT",
                    "revert": false,
                    "status": true,
                    "topics": [
                        "0x1e0b760c386003e9cb9bcf4fcf3997886042859d9b6ed6320e804597fcdb28b0"
                    ]
                },
                "nodeType": 1
            }
        },
        "gasFlame": [
            {
                "children": [
                    {
                        "children": [
                            {
                                "children": [],
                                "depth": 0,
                                "name": "Initial Gas",
                                "value": 23500
                            },
                            {
                                "children": [
                                    {
                                        "children": [],
                                        "depth": 1,
                                        "name": "sha256hash",
                                        "value": 132
                                    },
                                    {
                                        "children": [],
                                        "depth": 1,
                                        "name": "ecrecover",
                                        "value": 3000
                                    }
                                ],
                                "depth": 0,
                                "name": "Executed Gas",
                                "value": 11483
                            }
                        ],
                        "depth": -1,
                        "name": "Actual Gas Used",
                        "value": 34983
                    },
                    {
                        "children": [],
                        "depth": -1,
                        "name": "Refunded Gas",
                        "value": 0
                    }
                ],
                "depth": -2,
                "name": "Total Gas",
                "value": 34983
            }
        ],
        "isConfirmed": true,
        "mainTrace": [
            {
                "children": [
                    {
                        "children": [
                            {
                                "children": [],
                                "depth": 1,
                                "id": 1,
                                "order": 1
                            },
                            {
                                "children": [],
                                "depth": 1,
                                "id": 2,
                                "order": 2
                            },
                            {
                                "children": [],
                                "depth": 1,
                                "id": 3,
                                "order": 3
                            }
                        ],
                        "depth": 0,
                        "id": 0,
                        "order": 0
                    }
                ],
                "depth": -1,
                "id": -1,
                "order": -1
            }
        ],
        "mainTraceNodeCount": 4,
        "parentIdMap": {
            "0": -1,
            "1": 0,
            "2": 0,
            "3": 0
        },
        "tidyTrace": [
            {
                "children": [
                    {
                        "children": [
                            {
                                "children": [],
                                "depth": 1,
                                "id": 1,
                                "order": 1
                            },
                            {
                                "children": [],
                                "depth": 1,
                                "id": 2,
                                "order": 2
                            },
                            {
                                "children": [],
                                "depth": 1,
                                "id": 3,
                                "order": 3
                            }
                        ],
                        "depth": 0,
                        "id": 0,
                        "order": 0
                    }
                ],
                "depth": -1,
                "id": -1,
                "order": -1
            }
        ],
        "tidyTraceNodeCount": 4
    },
    "state_change": {
        "stateChanges": []
    }
}