{
    "balance_change": {
        "balanceChanges": [
            {
                "account": "0x33b08550a9de04cc3c75d8af9b43a8372916e0e7",
                "assets": [
                    {
                        "address": "0xeeeeeeeeeeeeeeeeeeeeeeeeeeeeeeeeeeeeeeee",
                        "amount": "0.001641372516372517",
                        "iconUrl": "https://assets.blocksec.com/image/1663669189317-3.png",
                        "isERC1155": false,
                        "isERC721": false,
                        "sign": false,
                        "value": ""
                    }
                ]
            },
            {
                "account": "0x4fabda075e15e9245ed7cfb5db398b4683bfcf54",
                "assets": [
                    {
                        "address": "0xeeeeeeeeeeeeeeeeeeeeeeeeeeeeeeeeeeeeeeee",
                        "amount": "0.001579821047008548",
                        "iconUrl": "https://assets.blocksec.com/image/1663669189317-3.png",
                        "isERC1155": false,
                        "isERC721": false,
                        "sign": true,
                        "value": ""
                    }
                ]
            },
            {
                "account": "0xb1690c08e213a35ed9bab7b318de14420fb57d8c",
                "assets": [
                    {
                        "address": "0xeeeeeeeeeeeeeeeeeeeeeeeeeeeeeeeeeeeeeeee",
                        "amount": "0.000061551469363969",
                        "iconUrl": "https://assets.blocksec.com/image/1663669189317-3.png",
                        "isERC1155": false,
                        "isERC721": false,
                        "sign": true,
                        "value": ""
                    }
                ]
            }
        ]
    },
    "profile": {
        "basic_info": {
            "baseFee": "",
            "blockNumber": 7985187,
            "callData": "0x91aeeedc000000000000000000000000000000000000000000000000000000000000001b6d6b30488818a6470d88b6efafa6569b5a8c16b849b2196298559d3dab4a3b003c24250b7897969afab78fea9f68848cbdd027797a6c059e82ed704b2720433e00000000000000000000000000000000000000000000000000000000000002c300000000000000000000000036a8b62fbfbe163ac72eb49d91daad3265eb5e9f00000000000000000000000000000000000000000000000000000000000000c0000000000000000000000000000000000000000000000000000000000000007900b1690c08e213a35ed9bab7b318de14420fb57d8c0000000000000000000000000000000000000000000000000005d51af8af8ef80000000000000000000000000000000000000000000000000000000000000024454a2ab3000000000000000000000000000000000000000000000000000000000010b69f00000000000000",
            "debugEnable": true,
            "errorInfo": "",
            "eventCount": 4,
            "feeRecipient": "0x829bd824b016326a401d083b33d092293333a830",
            "formatValue": "0",
            "gasLimit": 160667,
            "gasPrice": "4",
            "gasUsed": 79557,
            "intTxnCount": 7,
            "internalRevert": false,
            "internalRevertMessage": "",
            "isContractCreation": false,
            "isFlashloan": false,
            "maxFee": "",
            "nonce": 1197,
            "overwritedBlockNumber": -1,
            "priorityFee": "",
            "receiver": "0x33b08550a9de04cc3c75d8af9b43a8372916e0e7",
            "revertMessage": "",
            "sender": "0x9016c9cbacc47b07ad14fa7c226429ffb69e4507",
            "simulationEnable": true,
            "sourceTxnHash": "0x177e9386a69b9b2128b8c1bc05b132f4f680073c714c95bdc5f7d1e62cd48bf9",
            "status": true,
            "timestamp": "2019-06-18T23:15:51Z",
            "transactionFee": "0.000318228",
            "txnHash": "0x177e9386a69b9b2128b8c1bc05b132f4f680073c714c95bdc5f7d1e62cd48bf9",
            "txnIndex": 26,
            "type": 0,
            "value": "0"
        },
        "fund_flow": [
            {
                "amount": "0.001641686701674232",
                "from": "0x33b08550a9de04cc3c75d8af9b43a8372916e0e7",
                "id": 1,
                "isERC1155": false,
                "isERC721": false,
                "isReverted": false,
                "order": 1,
                "to": "0xb1690c08e213a35ed9bab7b318de14420fb57d8c",
                "token": "0xeeeeeeeeeeeeeeeeeeeeeeeeeeeeeeeeeeeeeeee"
            },
            {
                "amount": "0.001579821047008548",
                "from": "0xb1690c08e213a35ed9bab7b318de14420fb57d8c",
                "id": 2,
                "isERC1155": false,
                "isERC721": false,
                "isReverted": false,
                "order": 2,
                "to": "0x4fabda075e15e9245ed7cfb5db398b4683bfcf54",
                "token": "0xeeeeeeeeeeeeeeeeeeeeeeeeeeeeeeeeeeeeeeee"
            },
            {
                "amount": "0.000000314185301715",
                "from": "0xb1690c08e213a35ed9bab7b318de14420fb57d8c",
                "id": 3,
                "isERC1155": false,
                "isERC721": false,
                "isReverted": false,
                "order": 3,
                "to": "0x33b08550a9de04cc3c75d8af9b43a8372916e0e7",
                "token": "0xeeeeeeeeeeeeeeeeeeeeeeeeeeeeeeeeeeeeeeee"
            }
        ],
        "token_infos": [
            {
                "address": "0xc02aaa39b223fe8d0a0e5c4f27ead9083c756cc2",
                "decimals": 18
            },
            {
                "address": "0xeeeeeeeeeeeeeeeeeeeeeeeeeeeeeeeeeeeeeeee",
                "decimals": 18
            }
        ]
    },
    "address_label": {
        "labels": [
            {
                "address": "0xb1690c08e213a35ed9bab7b318de14420fb57d8c",
                "label": "SaleClockAuction"
            },
            {
                "address": "0x37932f3eca864632156ccba7e2814b51a374caec",
                "label": "CloneableWallet"
            },
            {
                "address": "0x0000000000000000000000000000000000000001",
                "label": "Precompiled"
            },
            {
                "address": "0x0000000000000000000000000000000000000002",
                "label": "Precompiled"
            },
            {
                "address": "0x0000000000000000000000000000000000000003",
                "label": "Precompiled"
            },
            {
                "address": "0x0000000000000000000000000000000000000004",
                "label": "Precompiled"
            },
            {
                "address": "0xeeeeeeeeeeeeeeeeeeeeeeeeeeeeeeeeeeeeeeee",
                "label": "Ether"
            },
            {
                "address": "0x06012c8cf97bead5deae237070f9587f8e7a266d",
                "label": "CryptoKitties: Core"
            }
        ]
    },
    "trace": {
        "accountLabels": null,
        "dataMap": {
            "-1": {
                "invocation": {
                    "address": "0x9016c9cbacc47b07ad14fa7c226429ffb69e4507",
                    "callData": "",
                    "decodedMethod": null,
                    "errorInfo": "",
                    "fromAddress": "",
                    "gasUsed": 0,
                    "id": -1,
                    "methodDecoded": false,
                    "operation": "",
                    "output": "",
                    "revert": false,
                    "revertMessage": "",
                    "selector": "",
                    "status": false,
                    "value": ""
                },
                "nodeType": 0
            },
            "0": {
                "invocation": {
                    "address": "0x33b08550a9de04cc3c75d8af9b43a8372916e0e7",
                    "callData": "0x000000000000000000000000000000000000000000000000000000000000001b6d6b30488818a6470d88b6efafa6569b5a8c16b849b2196298559d3dab4a3b003c24250b7897969afab78fea9f68848cbdd027797a6c059e82ed704b2720433e00000000000000000000000000000000000000000000000000000000000002c300000000000000000000000036a8b62fbfbe163ac72eb49d91daad3265eb5e9f00000000000000000000000000000000000000000000000000000000000000c0000000000000000000000000000000000000000000000000000000000000007900b1690c08e213a35ed9bab7b318de14420fb57d8c0000000000000000000000000000000000000000000000000005d51af8af8ef80000000000000000000000000000000000000000000000000000000000000024454a2ab3000000000000000000000000000000000000000000000000000000000010b69f00000000000000",
                    "decodedMethod": {
                        "callParams": [
                            {
                                "name": "v",
                                "type": "uint8",
                                "value": "27"
                            },
                            {
                                "name": "r",
                                "type": "bytes32",
                                "value": "0x6d6b30488818a6470d88b6efafa6569b5a8c16b849b2196298559d3dab4a3b00"
                            },
                            {
                                "name": "s",
                                "type": "bytes32",
                                "value": "0x3c24250b7897969afab78fea9f68848cbdd027797a6c059e82ed704b2720433e"
                            },
                            {
                                "name": "nonce",
                                "type": "uint256",
                                "value": "707"
                            },
                            {
                                "name": "authorizedAddress",
                                "type": "address",
                                "value": "0x36a8b62fbfbe163ac72eb49d91daad3265eb5e9f"
                            },
                            {
                                "name": "data",
                                "type": "bytes",
                                "value": "0x00b1690c08e213a35ed9bab7b318de14420fb57d8c0000000000000000000000000000000000000000000000000005d51af8af8ef80000000000000000000000000000000000000000000000000000000000000024454a2ab3000000000000000000000000000000000000000000000000000000000010b69f"
                            }
                        ],
                        "constructorArguments": "",
                        "name": "invoke1CosignerSends",
                        "returnParams": [],
                        "signature": "invoke1CosignerSends(uint8,bytes32,bytes32,uint256,address,bytes)"
                    },
                    "errorInfo": "",
                    "fromAddress": "0x9016c9cbacc47b07ad14fa7c226429ffb69e4507",
                    "gasUsed": 79557,
                    "id": 0,
                    "methodDecoded": true,
                    "operation": "CALL",
                    "output": "",
                    "revert": false,
                    "revertMessage": "",
                    "selector": "0x91aeeedc",
                    "status": true,
                    "value": "0"
                },
                "nodeType": 0
            },
            "1": {
                "invocation": {
                    "address": "0x37932f3eca864632156ccba7e2814b51a374caec",
                    "callData": "0x000000000000000000000000000000000000000000000000000000000000001b6d6b30488818a6470d88b6efafa6569b5a8c16b849b2196298559d3dab4a3b003c24250b7897969afab78fea9f68848cbdd027797a6c059e82ed704b2720433e00000000000000000000000000000000000000000000000000000000000002c300000000000000000000000036a8b62fbfbe163ac72eb49d91daad3265eb5e9f00000000000000000000000000000000000000000000000000000000000000c0000000000000000000000000000000000000000000000000000000000000007900b1690c08e213a35ed9bab7b318de14420fb57d8c0000000000000000000000000000000000000000000000000005d51af8af8ef80000000000000000000000000000000000000000000000000000000000000024454a2ab3000000000000000000000000000000000000000000000000000000000010b69f00000000000000",
                    "decodedMethod": {
                        "callParams": [
                            {
                                "name": "v",
                                "type": "uint8",
                                "value": "27"
                            },
                            {
                                "name": "r",
                                "type": "bytes32",
                                "value": "0x6d6b30488818a6470d88b6efafa6569b5a8c16b849b2196298559d3dab4a3b00"
                            },
                            {
                                "name": "s",
                                "type": "bytes32",
                                "value": "0x3c24250b7897969afab78fea9f68848cbdd027797a6c059e82ed704b2720433e"
                            },
                            {
                                "name": "nonce",
                                "type": "uint256",
                                "value": "707"
                            },
                            {
                                "name": "authorizedAddress",
                                "type": "address",
                                "value": "0x36a8b62fbfbe163ac72eb49d91daad3265eb5e9f"
                            },
                            {
                                "name": "data",
                                "type": "bytes",
                                "value": "0x00b1690c08e213a35ed9bab7b318de14420fb57d8c0000000000000000000000000000000000000000000000000005d51af8af8ef80000000000000000000000000000000000000000000000000000000000000024454a2ab3000000000000000000000000000000000000000000000000000000000010b69f"
                            }
                        ],
                        "constructorArguments": "",
                        "name": "invoke1CosignerSends",
                        "returnParams": [],
                        "signature": "invoke1CosignerSends(uint8,bytes32,bytes32,uint256,address,bytes)"
                    },
                    "errorInfo": "",
                    "fromAddress": "0x33b08550a9de04cc3c75d8af9b43a8372916e0e7",
                    "gasUsed": 93176,
                    "id": 1,
                    "methodDecoded": true,
                    "operation": "DELEGATECALL",
                    "output": "",
                    "revert": false,
                    "revertMessage": "",
                    "selector": "0x91aeeedc",
                    "status": true,
                    "value": "0"
                },
                "nodeType": 0
            },
            "10": {
                "event": {
                    "contract": "0x06012c8cf97bead5deae237070f9587f8e7a266d",
                    "decodedLog": {
                        "name": "Transfer",
                        "params": [
                            {
                                "name": "from",
                                "type": "address",
                                "value": "0xb1690c08e213a35ed9bab7b318de14420fb57d8c"
                            },
                            {
                                "name": "to",
                                "type": "address",
                                "value": "0x33b08550a9de04cc3c75d8af9b43a8372916e0e7"
                            },
                            {
                                "decimalAvailable": true,
                                "name": "tokenId",
                                "type": "uint256",
                                "value": "1,095,327"
                            }
                        ],
                        "signature": "Transfer(address,address,uint256)"
                    },
                    "id": 10,
                    "logData": "0x000000000000000000000000b1690c08e213a35ed9bab7b318de14420fb57d8c00000000000000000000000033b08550a9de04cc3c75d8af9b43a8372916e0e7000000000000000000000000000000000000000000000000000000000010b69f",
                    "logDecoded": true,
                    "operation": "EVENT",
                    "revert": false,
                    "status": true,
                    "topics": [
                        "0xddf252ad1be2c89b69c2b068fc378daa952ba7f163c4a11628f55a4df523b3ef"
                    ]
                },
                "nodeType": 1
            },
            "11": {
                "event": {
                    "contract": "0x33b08550a9de04cc3c75d8af9b43a8372916e0e7",
                    "decodedLog": {
                        "name": "InvocationSuccess",
                        "params": [
                            {
                                "name": "hash",
                                "type": "bytes32",
                                "value": "0x542f01ecf03abcc899eca8035e1968b3369800d8b2046e75412f36c61e924fac"
                            },
                            {
                                "name": "result",
                                "type": "uint256",
                                "value": "0"
                            },
                            {
                                "name": "numOperations",
                                "type": "uint256",
                                "value": "1"
                            }
                        ],
                        "signature": "InvocationSuccess(bytes32,uint256,uint256)"
                    },
                    "id": 11,
                    "logData": "0x542f01ecf03abcc899eca8035e1968b3369800d8b2046e75412f36c61e924fac00000000000000000000000000000000000000000000000000000000000000000000000000000000000000000000000000000000000000000000000000000001",
                    "logDecoded": true,
                    "operation": "EVENT",
                    "revert": false,
                    "status": true,
                    "topics": [
                        "0x101214446435ebbb29893f3348e3aae5ea070b63037a3df346d09d3396a34aee"
                    ]
                },
                "nodeType": 1
            },
            "2": {
                "invocation": {
                    "address": "0x0000000000000000000000000000000000000001",
                    "callData": "0xf03abcc899eca8035e1968b3369800d8b2046e75412f36c61e924fac000000000000000000000000000000000000000000000000000000000000001b6d6b30488818a6470d88b6efafa6569b5a8c16b849b2196298559d3dab4a3b003c24250b7897969afab78fea9f68848cbdd027797a6c059e82ed704b2720433e",
                    "decodedMethod": {
                        "callParams": [
                            {
                                "name": "hash",
                                "type": "bytes32",
                                "value": "0x542f01ecf03abcc899eca8035e1968b3369800d8b2046e75412f36c61e924fac"
                            },
                            {
                                "name": "v",
                                "type": "uint256",
                                "value": "27"
                            },
                            {
                                "name": "r",
                                "type": "bytes32",
                                "value": "0x6d6b30488818a6470d88b6efafa6569b5a8c16b849b2196298559d3dab4a3b00"
                            },
                            {
                                "name": "s",
                                "type": "bytes32",
                                "value": "0x3c24250b7897969afab78fea9f68848cbdd027797a6c059e82ed704b2720433e"
                            }
                        ],
                        "constructorArguments": "",
                        "name": "ecrecover",
                        "returnParams": [
                            {
                                "name": "",
                                "type": "address",
                                "value": "0x36a8b62fbfbe163ac72eb49d91daad3265eb5e9f"
                            }
                        ],
                        "signature": "ecrecover(bytes32,uint256,bytes32,bytes32)"
                    },
                    "errorInfo": "",
                    "fromAddress": "0x33b08550a9de04cc3c75d8af9b43a8372916e0e7",
                    "gasUsed": 3000,
                    "id": 2,
                    "methodDecoded": true,
                    "operation": "CALL",
                    "output": "0x00000000000000000000000036a8b62fbfbe163ac72eb49d91daad3265eb5e9f",
                    "revert": false,
                    "revertMessage": "",
                    "selector": "0x542f01ec",
                    "status": true,
                    "value": "0"
                },
                "nodeType": 0
            },
            "3": {
                "invocation": {
                    "address": "0xb1690c08e213a35ed9bab7b318de14420fb57d8c",
                    "callData": "0x000000000000000000000000000000000000000000000000000000000010b69f",
                    "decodedMethod": {
                        "callParams": [
                            {
                                "name": "_tokenId",
                                "type": "uint256",
                                "value": "1,095,327"
                            }
                        ],
                        "constructorArguments": "",
                        "name": "bid",
                        "returnParams": [],
                        "signature": "bid(uint256)"
                    },
                    "errorInfo": "",
                    "fromAddress": "0x33b08550a9de04cc3c75d8af9b43a8372916e0e7",
                    "gasUsed": 71095,
                    "id": 3,
                    "methodDecoded": true,
                    "operation": "CALL",
                    "output": "",
                    "revert": false,
                    "revertMessage": "",
                    "selector": "0x454a2ab3",
                    "status": true,
                    "value": "0.001641686701674232"
                },
                "nodeType": 0
            },
            "4": {
                "invocation": {
                    "address": "0x4fabda075e15e9245ed7cfb5db398b4683bfcf54",
                    "callData": "0x",
                    "decodedMethod": null,
                    "errorInfo": "",
                    "fromAddress": "0xb1690c08e213a35ed9bab7b318de14420fb57d8c",
                    "gasUsed": 0,
                    "id": 4,
                    "methodDecoded": false,
                    "operation": "CALL",
                    "output": "",
                    "revert": false,
                    "revertMessage": "",
                    "selector": "fallback",
                    "status": true,
                    "value": "0.001579821047008548"
                },
                "nodeType": 0
            },
            "5": {
                "invocation": {
                    "address": "0x33b08550a9de04cc3c75d8af9b43a8372916e0e7",
                    "callData": "0x",
                    "decodedMethod": null,
                    "errorInfo": "",
                    "fromAddress": "0xb1690c08e213a35ed9bab7b318de14420fb57d8c",
                    "gasUsed": 2179,
                    "id": 5,
                    "methodDecoded": false,
                    "operation": "CALL",
                    "output": "",
                    "revert": false,
                    "revertMessage": "",
                    "selector": "fallback",
                    "status": true,
                    "value": "0.000000314185301715"
                },
                "nodeType": 0
            },
            "6": {
                "invocation": {
                    "address": "0x37932f3eca864632156ccba7e2814b51a374caec",
                    "callData": "0x",
                    "decodedMethod": null,
                    "errorInfo": "",
                    "fromAddress": "0x33b08550a9de04cc3c75d8af9b43a8372916e0e7",
                    "gasUsed": 1422,
                    "id": 6,
                    "methodDecoded": false,
                    "operation": "DELEGATECALL",
                    "output": "",
                    "revert": false,
                    "revertMessage": "",
                    "selector": "fallback",
                    "status": true,
                    "value": "0.000000314185301715"
                },
                "nodeType": 0
            },
            "7": {
                "event": {
                    "contract": "0x33b08550a9de04cc3c75d8af9b43a8372916e0e7",
                    "decodedLog": {
                        "name": "Received",
                        "params": [
                            {
                                "name": "from",
                                "type": "address",
                                "value": "0xb1690c08e213a35ed9bab7b318de14420fb57d8c"
                            },
                            {
                                "name": "value",
                                "type": "uint256",
                                "value": "314,185,301,715"
                            }
                        ],
                        "signature": "Received(address,uint256)"
                    },
                    "id": 7,
                    "logData": "0x000000000000000000000000b1690c08e213a35ed9bab7b318de14420fb57d8c0000000000000000000000000000000000000000000000000000004926e73ed3",
                    "logDecoded": true,
                    "operation": "EVENT",
                    "revert": false,
                    "status": true,
                    "topics": [
                        "0x88a5966d370b9919b20f3e2c13ff65706f196a4e32cc2c12bf57088f88525874"
                    ]
                },
                "nodeType": 1
            },
            "8": {
                "event": {
                    "contract": "0xb1690c08e213a35ed9bab7b318de14420fb57d8c",
                    "decodedLog": {
                        "name": "AuctionSuccessful",
                        "params": [
                            {
                                "name": "tokenId",
                                "type": "uint256",
                                "value": "1,095,327"
                            },
                            {
                                "name": "totalPrice",
                                "type": "uint256",
                                "value": "1,641,372,516,372,517"
                            },
                            {
                                "name": "winner",
                                "type": "address",
                                "value": "0x33b08550a9de04cc3c75d8af9b43a8372916e0e7"
                            }
                        ],
                        "signature": "AuctionSuccessful(uint256,uint256,address)"
                    },
                    "id": 8,
                    "logData": "0x000000000000000000000000000000000000000000000000000000000010b69f0000000000000000000000000000000000000000000000000005d4d1d1c8502500000000000000000000000033b08550a9de04cc3c75d8af9b43a8372916e0e7",
                    "logDecoded": true,
                    "operation": "EVENT",
                    "revert": false,
                    "status": true,
                    "topics": [
                        "0x4fcc30d90a842164dd58501ab874a101a3749c3d4747139cefe7c876f4ccebd2"
                    ]
                },
                "nodeType": 1
            },
            "9": {
                "invocation": {
                    "address": "0x06012c8cf97bead5deae237070f9587f8e7a266d",
                    "callData": "0x00000000000000000000000033b08550a9de04cc3c75d8af9b43a8372916e0e7000000000000000000000000000000000000000000000000000000000010b69f",
                    "decodedMethod": {
                        "callParams": [
                            {
                                "name": "_to",
                                "type": "address",
                                "value": "0x33b08550a9de04cc3c75d8af9b43a8372916e0e7"
                            },
                            {
                                "decimalAvailable": true,
                                "name": "_tokenId",
                                "type": "uint256",
                                "value": "1,095,327"
                            }
                        ],
                        "constructorArguments": "",
                        "name": "transfer",
                        "returnParams": [],
                        "signature": "transfer(address,uint256)"
                    },
                    "errorInfo": "",
                    "fromAddress": "0xb1690c08e213a35ed9bab7b318de14420fb57d8c",
                    "gasUsed": 31379,
                    "id": 9,
                    "methodDecoded": true,
                    "operation": "CALL",
                    "output": "",
                    "revert": false,
                    "revertMessage": "",
                    "selector": "0xa9059cbb",
                    "status": true,
                    "value": "0"
                },
                "nodeType": 0
            }
        },
        "gasFlame": [
            {
                "children": [
                    {
                        "children": [
                            {
                                "children": [],
                                "depth": 0,
                                "name": "Initial Gas",
                                "value": 30552
                            },
                            {
                                "children": [
                                    {
                                        "children": [
                                            {
                                                "children": [],
                                                "depth": 2,
                                                "name": "ecrecover",
                                                "value": 3000
                                            },
                                            {
                                                "children": [
                                                    {
                                                        "children": [],
                                                        "depth": 3,
                                                        "name": "fallback",
                                                        "value": 0
                                                    },
                                                    {
                                                        "children": [
                                                            {
                                                                "children": [],
                                                                "depth": 4,
                                                                "name": "fallback",
                                                                "value": 1422
                                                            }
                                                        ],
                                                        "depth": 3,
                                                        "name": "fallback",
                                                        "value": 2179
                                                    },
                                                    {
                                                        "children": [],
                                                        "depth": 3,
                                                        "name": "transfer",
                                                        "value": 31379
                                                    }
                                                ],
                                                "depth": 2,
                                                "name": "bid",
                                                "value": 71095
                                            }
                                        ],
                                        "depth": 1,
                                        "name": "invoke1CosignerSends",
                                        "value": 93176
                                    }
                                ],
                                "depth": 0,
                                "name": "Executed Gas",
                                "value": 94005
                            }
                        ],
                        "depth": -1,
                        "name": "Actual Gas Used",
                        "value": 79557
                    },
                    {
                        "children": [],
                        "depth": -1,
                        "name": "Refunded Gas",
                        "value": 45000
                    }
                ],
                "depth": -2,
                "name": "Total Gas",
                "value": 124557
            }
        ],
        "isConfirmed": true,
        "mainTrace": [
            {
                "children": [
                    {
                        "children": [
                            {
                                "children": [
                                    {
                                        "children": [],
                                        "depth": 2,
                                        "id": 2,
                                        "order": 2
                                    },
                                    {
                                        "children": [
                                            {
                                                "children": [],
                                                "depth": 3,
                                                "id": 4,
                                                "order": 4
                                            },
                                            {
                                                "children": [
                                                    {
                                                        "children": [
                                                            {
                                                                "children": [],
                                                                "depth": 5,
                                                                "id": 7,
                                                                "order": 7
                                                            }
                                                        ],
                                                        "depth": 4,
                                                        "id": 6,
                                                        "order": 6
                                                    }
                                                ],
                                                "depth": 3,
                                                "id": 5,
                                                "order": 5
                                            },
                                            {
                                                "children": [],
                                                "depth": 3,
                                                "id": 8,
                                                "order": 8
                                            },
                                            {
                                                "children": [
                                                    {
                                                        "children": [],
                                                        "depth": 4,
                                                        "id": 10,
                                                        "order": 10
                                                    }
                                                ],
                                                "depth": 3,
                                                "id": 9,
                                                "order": 9
                                            }
                                        ],
                                        "depth": 2,
                                        "id": 3,
                                        "order": 3
                                    },
                                    {
                                        "children": [],
                                        "depth": 2,
                                        "id": 11,
                                        "order": 11
                                    }
                                ],
                                "depth": 1,
                                "id": 1,
                                "order": 1
                            }
                        ],
                        "depth": 0,
                        "id": 0,
                        "order": 0
                    }
                ],
                "depth": -1,
                "id": -1,
                "order": -1
            }
        ],
        "mainTraceNodeCount": 12,
        "parentIdMap": {
            "0": -1,
            "1": 0,
            "10": 9,
            "11": 1,
            "2": 1,
            "3": 1,
            "4": 3,
            "5": 3,
            "6": 5,
            "7": 6,
            "8": 3,
            "9": 3
        },
        "tidyTrace": [
            {
                "children": [
                    {
                        "children": [
                            {
                                "children": [
                                    {
                                        "children": [],
                                        "depth": 2,
                                        "id": 2,
                                        "order": 2
                                    },
                                    {
                                        "children": [
                                            {
                                                "children": [],
                                                "depth": 3,
                                                "id": 4,
                                                "order": 4
                                            },
                                            {
                                                "children": [
                                                    {
                                                        "children": [
                                                            {
                                                                "children": [],
                                                                "depth": 5,
                                                                "id": 7,
                                                                "order": 7
                                                            }
                                                        ],
                                                        "depth": 4,
                                                        "id": 6,
                                                        "order": 6
                                                    }
                                                ],
                                                "depth": 3,
                                                "id": 5,
                                                "order": 5
                                            },
                                            {
                                                "children": [],
                                                "depth": 3,
                                                "id": 8,
                                                "order": 8
                                            },
                                            {
                                                "children": [
                                                    {
                                                        "children": [],
                                                        "depth": 4,
                                                        "id": 10,
                                                        "order": 10
                                                    }
                                                ],
                                                "depth": 3,
                                                "id": 9,
                                                "order": 9
                                            }
                                        ],
                                        "depth": 2,
                                        "id": 3,
                                        "order": 3
                                    },
                                    {
                                        "children": [],
                                        "depth": 2,
                                        "id": 11,
                                        "order": 11
                                    }
                                ],
                                "depth": 1,
                                "id": 1,
                                "order": 1
                            }
                        ],
                        "depth": 0,
                        "id": 0,
                        "order": 0
                    }
                ],
                "depth": -1,
                "id": -1,
                "order": -1
            }
        ],
        "tidyTraceNodeCount": 12
    },
    "state_change": {
        "stateChanges": [
            {
                "address": "0x06012c8cf97bead5deae237070f9587f8e7a266d",
                "erc": "",
                "slots": [
                    {
                        "current": "0x0000000000000000000000000000000000000000000000000000000000000017",
                        "key": "0x671032a631dc1f114c1b15dc5d8afa38e5142ce0782f846280188e700d2ec3ea",
                        "prev": "0x0000000000000000000000000000000000000000000000000000000000000016"
                    },
                    {
                        "current": "0x00000000000000000000000033b08550a9de04cc3c75d8af9b43a8372916e0e7",
                        "key": "0x7a9dba02bfc04d925ab2fbe8e1e83143fe56320bd08014e939069be8553d2849",
                        "prev": "0x000000000000000000000000b1690c08e213a35ed9bab7b318de14420fb57d8c"
                    },
                    {
                        "current": "0x0000000000000000000000000000000000000000000000000000000000035e7e",
                        "key": "0xc56c286245a85e4048e082d091c57ede29ec05df707b458fe836e199193ff182",
                        "prev": "0x0000000000000000000000000000000000000000000000000000000000035e7f"
                    }
                ],
                "storageVariables": [
                    {
                        "name": "kittyIndexToOwner",
                        "type": "mapping(uint256 => address)",
                        "value": {
                            "pairs": [
                                {
                                    "key": "1095327",
                                    "value": {
                                        "current": "0x33b08550a9de04cc3c75d8af9b43a8372916e0e7",
                                        "prev": "0xb1690c08e213a35ed9bab7b318de14420fb57d8c",
                                        "typeTag": 1
                                    }
                                }
                            ],
                            "typeTag": 4
                        }
                    },
                    {
                        "name": "ownershipTokenCount",
                        "type": "mapping(address => uint256)",
                        "value": {
                            "pairs": [
                                {
                                    "key": "0x33b08550a9de04cc3c75d8af9b43a8372916e0e7",
                                    "value": {
                                        "current": "23",
                                        "prev": "22",
                                        "typeTag": 1
                                    }
                                },
                                {
                                    "key": "0xb1690c08e213a35ed9bab7b318de14420fb57d8c",
                                    "value": {
                                        "current": "220798",
                                        "prev": "220799",
                                        "typeTag": 1
                                    }
                                }
                            ],
                            "typeTag": 4
                        }
                    }
                ]
            },
            {
                "address": "0x33b08550a9de04cc3c75d8af9b43a8372916e0e7",
                "erc": "",
                "slots": [
                    {
                        "current": "0x00000000000000000000000000000000000000000000000000000000000002c4",
                        "key": "0x484784560e5d51854da20366dc88816e5dac035ab5615135589929313d5474ec",
                        "prev": "0x00000000000000000000000000000000000000000000000000000000000002c3"
                    }
                ],
                "storageVariables": [
                    {
                        "name": "nonces",
                        "type": "mapping(address => uint256)",
                        "value": {
                            "pairs": [
                                {
                                    "key": "0x36a8b62fbfbe163ac72eb49d91daad3265eb5e9f",
                                    "value": {
                                        "current": "708",
                                        "prev": "707",
                                        "typeTag": 1
                                    }
                                }
                            ],
                            "typeTag": 4
                        }
                    }
                ]
            },
            {
                "address": "0xb1690c08e213a35ed9bab7b318de14420fb57d8c",
                "erc": "",
                "slots": [
                    {
                        "current": "0x0000000000000000000000000000000000000000000000000000000000000000",
                        "key": "0x27b58ebf837fba66fb4bb3b85e63330cee87fb86da4a0224e9761c8e331a67a3",
                        "prev": "0x0000000000000000000000004fabda075e15e9245ed7cfb5db398b4683bfcf54"
                    },
                    {
                        "current": "0x0000000000000000000000000000000000000000000000000000000000000000",
                        "key": "0x27b58ebf837fba66fb4bb3b85e63330cee87fb86da4a0224e9761c8e331a67a4",
                        "prev": "0x000000000000000000000000000000000000000000000000016345785d8a0000"
                    },
                    {
                        "current": "0x0000000000000000000000000000000000000000000000000000000000000000",
                        "key": "0x27b58ebf837fba66fb4bb3b85e63330cee87fb86da4a0224e9761c8e331a67a5",
                        "prev": "0x00000000000000000000000000000000000000005bc4ef92000000000149eb60"
                    }
                ],
                "storageVariables": [
                    {
                        "name": "tokenIdToAuction",
                        "type": "mapping(uint256 => struct ClockAuctionBase.Auction)",
                        "value": {
                            "pairs": [
                                {
                                    "key": "1095327",
                                    "value": {
                                        "fields": [
                                            {
                                                "name": "seller",
                                                "type": "address",
                                                "value": {
                                                    "current": "0x0000000000000000000000000000000000000000",
                                                    "prev": "0x4fabda075e15e9245ed7cfb5db398b4683bfcf54",
                                                    "typeTag": 1
                                                }
                                            },
                                            {
                                                "name": "startingPrice",
                                                "type": "uint128",
                                                "value": {
                                                    "current": "0",
                                                    "prev": "100000000000000000",
                                                    "typeTag": 1
                                                }
                                            },
                                            {
                                                "name": "endingPrice",
                                                "type": "uint128",
                                                "value": {
                                                    "current": "0",
                                                    "prev": "0",
                                                    "typeTag": 1
                                                }
                                            },
                                            {
                                                "name": "duration",
                                                "type": "uint64",
                                                "value": {
                                                    "current": "0",
                                                    "prev": "21621600",
                                                    "typeTag": 1
                                                }
                                            },
                                            {
                                                "name": "startedAt",
                                                "type": "uint64",
                                                "value": {
                                                    "current": "0",
                                                    "prev": "1539633042",
                                                    "typeTag": 1
                                                }
                                            }
                                        ],
                                        "typeTag": 3
                                    }
                                }
                            ],
                            "typeTag": 4
                        }
                    }
                ]
            }
        ]
    }
}