{
    "balance_change": {
        "balanceChanges": [
            {
                "account": "0x0a0dd22b3b67deeea44bf27edf862db64a13e9d6",
                "assets": [
                    {
                        "address": "0xd7cc16500d0b0ac3d0ba156a584865a43b0b0050",
                        "amount": "97.53",
                        "iconUrl": "",
                        "isERC1155": false,
                        "isERC721": false,
                        "sign": false,
                        "value": ""
                    }
                ]
            },
            {
                "account": "0x2444cf55e4464710f31ad3ad6eb6bf9164c51003",
                "assets": [
                    {
                        "address": "0xd7cc16500d0b0ac3d0ba156a584865a43b0b0050",
                        "amount": "97.53",
                        "iconUrl": "",
                        "isERC1155": false,
                        "isERC721": false,
                        "sign": true,
                        "value": ""
                    }
                ]
            }
        ]
    },
    "profile": {
        "basic_info": {
            "baseFee": "",
            "blockNumber": 9185201,
            "callData": "0xa9059cbb0000000000000000000000002444cf55e4464710f31ad3ad6eb6bf9164c51003000000000000000000000000000000000000000000000000000000024552f840",
            "debugEnable": true,
            "errorInfo": "",
            "eventCount": 1,
            "feeRecipient": "0x5a0b54d5dc17e0aadc383d2db43b0a0d3e029c4c",
            "formatValue": "0",
            "gasLimit": 53000,
            "gasPrice": "6",
            "gasUsed": 51931,
            "intTxnCount": 0,
            "internalRevert": false,
            "internalRevertMessage": "",
            "isContractCreation": false,
            "isFlashloan": false,
            "maxFee": "",
            "nonce": 118,
            "overwritedBlockNumber": -1,
            "priorityFee": "",
            "receiver": "0xd7cc16500d0b0ac3d0ba156a584865a43b0b0050",
            "revertMessage": "",
            "sender": "0x0a0dd22b3b67deeea44bf27edf862db64a13e9d6",
            "simulationEnable": true,
            "sourceTxnHash": "0x170a4b09b06133abc006cf57095dbe8c9c0138b32b67cbf2b00b186d212ef1b5",
            "status": true,
            "timestamp": "2019-12-30T09:23:47Z",
            "transactionFee": "0.000311586",
            "txnHash": "0x170a4b09b06133abc006cf57095dbe8c9c0138b32b67cbf2b00b186d212ef1b5",
            "txnIndex": 214,
            "type": 0,
            "value": "0"
        },
        "fund_flow": [
            {
                "amount": "97.53",
                "from": "0x0a0dd22b3b67deeea44bf27edf862db64a13e9d6",
                "id": 1,
                "isERC1155": false,
                "isERC721": false,
                "isReverted": false,
                "order": 1,
                "to": "0x2444cf55e4464710f31ad3ad6eb6bf9164c51003",
                "token": "0xd7cc16500d0b0ac3d0ba156a584865a43b0b0050"
            }
        ],
        "token_infos": [
            {
                "address": "0xd7cc16500d0b0ac3d0ba156a584865a43b0b0050",
                "decimals": 8
            },
            {
                "address": "0xeeeeeeeeeeeeeeeeeeeeeeeeeeeeeeeeeeeeeeee",
                "decimals": 18
            },
            {
                "address": "0xc02aaa39b223fe8d0a0e5c4f27ead9083c756cc2",
                "decimals": 18
            }
        ]
    },
    "address_label": {
        "labels": [
            {
                "address": "0xd7cc16500d0b0ac3d0ba156a584865a43b0b0050",
                "label": "Tepleton (TEP)"
            },
            {
                "address": "0x0000000000000000000000000000000000000001",
                "label": "Precompiled"
            },
            {
                "address": "0x0000000000000000000000000000000000000002",
                "label": "Precompiled"
            },
            {
                "address": "0x0000000000000000000000000000000000000003",
                "label": "Precompiled"
            },
            {
                "address": "0x0000000000000000000000000000000000000004",
                "label": "Precompiled"
            },
            {
                "address": "0xeeeeeeeeeeeeeeeeeeeeeeeeeeeeeeeeeeeeeeee",
                "label": "Ether"
            }
        ]
    },
    "trace": {
        "accountLabels": null,
        "dataMap": {
            "-1": {
                "invocation": {
                    "address": "0x0a0dd22b3b67deeea44bf27edf862db64a13e9d6",
                    "callData": "",
                    "decodedMethod": null,
                    "errorInfo": "",
                    "fromAddress": "",
                    "gasUsed": 0,
                    "id": -1,
                    "methodDecoded": false,
                    "operation": "",
                    "output": "",
                    "revert": false,
                    "revertMessage": "",
                    "selector": "",
                    "status": false,
                    "value": ""
                },
                "nodeType": 0
            },
            "0": {
                "invocation": {
                    "address": "0xd7cc16500d0b0ac3d0ba156a584865a43b0b0050",
                    "callData": "0x0000000000000000000000002444cf55e4464710f31ad3ad6eb6bf9164c51003000000000000000000000000000000000000000000000000000000024552f840",
                    "decodedMethod": {
                        "callParams": [
                            {
                                "name": "to",
                                "type": "address",
                                "value": "0x2444cf55e4464710f31ad3ad6eb6bf9164c51003"
                            },
                            {
                                "decimalAvailable": true,
                                "name": "value",
                                "type": "uint256",
                                "value": "9,753,000,000"
                            }
                        ],
                        "constructorArguments": "",
                        "name": "transfer",
                        "returnParams": [
                            {
                                "name": "",
                                "type": "bool",
                                "value": true
                            }
                        ],
                        "signature": "transfer(address,uint256)"
                    },
                    "errorInfo": "",
                    "fromAddress": "0x0a0dd22b3b67deeea44bf27edf862db64a13e9d6",
                    "gasUsed": 51931,
                    "id": 0,
                    "methodDecoded": true,
                    "operation": "CALL",
                    "output": "0x0000000000000000000000000000000000000000000000000000000000000001",
                    "revert": false,
                    "revertMessage": "",
                    "selector": "0xa9059cbb",
                    "status": true,
                    "value": "0"
                },
                "nodeType": 0
            },
            "1": {
                "event": {
                    "contract": "0xd7cc16500d0b0ac3d0ba156a584865a43b0b0050",
                    "decodedLog": {
                        "name": "Transfer",
                        "params": [
                            {
                                "name": "from",
                                "type": "address",
                                "value": "0x0a0dd22b3b67deeea44bf27edf862db64a13e9d6"
                            },
                            {
                                "name": "to",
                                "type": "address",
                                "value": "0x2444cf55e4464710f31ad3ad6eb6bf9164c51003"
                            },
                            {
                                "decimalAvailable": true,
                                "name": "value",
                                "type": "uint256",
                                "value": "9,753,000,000"
                            }
                        ],
                        "signature": "Transfer(address,address,uint256)"
                    },
                    "id": 1,
                    "logData": "0x000000000000000000000000000000000000000000000000000000024552f840",
                    "logDecoded": true,
                    "operation": "EVENT",
                    "revert": false,
                    "status": true,
                    "topics": [
                        "0xddf252ad1be2c89b69c2b068fc378daa952ba7f163c4a11628f55a4df523b3ef",
                        "0x0000000000000000000000000a0dd22b3b67deeea44bf27edf862db64a13e9d6",
                        "0x0000000000000000000000002444cf55e4464710f31ad3ad6eb6bf9164c51003"
                    ]
                },
                "nodeType": 1
            }
        },
        "gasFlame": [
            {
                "children": [
                    {
                        "children": [
                            {
                                "children": [],
                                "depth": 0,
                                "name": "Initial Gas",
                                "value": 21620
                            },
                            {
                                "children": [],
                                "depth": 0,
                                "name": "Executed Gas",
                                "value": 30311
                            }
                        ],
                        "depth": -1,
                        "name": "Actual Gas Used",
                        "value": 51931
                    },
                    {
                        "children": [],
                        "depth": -1,
                        "name": "Refunded Gas",
                        "value": 0
                    }
                ],
                "depth": -2,
                "name": "Total Gas",
                "value": 51931
            }
        ],
        "isConfirmed": true,
        "mainTrace": [
            {
                "children": [
                    {
                        "children": [
                            {
                                "children": [],
                                "depth": 1,
                                "id": 1,
                                "order": 1
                            }
                        ],
                        "depth": 0,
                        "id": 0,
                        "order": 0
                    }
                ],
                "depth": -1,
                "id": -1,
                "order": -1
            }
        ],
        "mainTraceNodeCount": 2,
        "parentIdMap": {
            "0": -1,
            "1": 0
        },
        "tidyTrace": [
            {
                "children": [
                    {
                        "children": [
                            {
                                "children": [],
                                "depth": 1,
                                "id": 1,
                                "order": 1
                            }
                        ],
                        "depth": 0,
                        "id": 0,
                        "order": 0
                    }
                ],
                "depth": -1,
                "id": -1,
                "order": -1
            }
        ],
        "tidyTraceNodeCount": 2
    },
    "state_change": {
        "stateChanges": [
            {
                "address": "0xd7cc16500d0b0ac3d0ba156a584865a43b0b0050",
                "erc": "ERC-20",
                "slots": [
                    {
                        "current": "0x000000000000000000000000000000000000000000000000000000000000ea60",
                        "key": "0x1bed3945bacc733c1e6ccd8ed19fa32988796dc8b61d66c0a271ba6965677b0e",
                        "prev": "0x000000000000000000000000000000000000000000000000000000024553e2a0"
                    },
                    {
                        "current": "0x000000000000000000000000000000000000000000000000000000024552f840",
                        "key": "0x258a9561ff8c3d6083bdf85d6f1060c128ce339c25a84992832a859c9bdad888",
                        "prev": "0x0000000000000000000000000000000000000000000000000000000000000000"
                    }
                ],
                "storageVariables": [
                    {
                        "name": "_balances",
                        "type": "mapping(address => uint256)",
                        "value": {
                            "pairs": [
                                {
                                    "key": "0x0a0dd22b3b67deeea44bf27edf862db64a13e9d6",
                                    "value": {
                                        "current": "60000",
                                        "prev": "9753060000",
                                        "typeTag": 1
                                    }
                                },
                                {
                                    "key": "0x2444cf55e4464710f31ad3ad6eb6bf9164c51003",
                                    "value": {
                                        "current": "9753000000",
                                        "prev": "0",
                                        "typeTag": 1
                                    }
                                }
                            ],
                            "typeTag": 4
                        }
                    }
                ]
            }
        ]
    }
}