{
    "balance_change": {
        "balanceChanges": []
    },
    "profile": {
        "basic_info": {
            "baseFee": "",
            "blockNumber": 8101126,
            "callData": "0xf4bcd7ad0000000000000000000000000000000000000000000000000000000000000000",
            "debugEnable": true,
            "errorInfo": "",
            "eventCount": 1,
            "feeRecipient": "0x2a65aca4d5fc5b5c859090a6c34d164135398226",
            "formatValue": "0",
            "gasLimit": 250000,
            "gasPrice": "1",
            "gasUsed": 53582,
            "intTxnCount": 0,
            "internalRevert": false,
            "internalRevertMessage": "",
            "isContractCreation": false,
            "isFlashloan": false,
            "maxFee": "",
            "nonce": 122,
            "overwritedBlockNumber": -1,
            "priorityFee": "",
            "receiver": "0xd9d4a7ca154fe137c808f7eedbe24b639b7af5a6",
            "revertMessage": "",
            "sender": "0x177b674c38eddef7232763c8e9e00e9a4b870269",
            "simulationEnable": true,
            "sourceTxnHash": "0x17c18f038b21e9c33559ce0a8ac26e3a63220df2e74466b8bbd1e50f2666cad0",
            "status": true,
            "timestamp": "2019-07-07T01:12:14Z",
            "transactionFee": "0.000053582",
            "txnHash": "0x17c18f038b21e9c33559ce0a8ac26e3a63220df2e74466b8bbd1e50f2666cad0",
            "txnIndex": 22,
            "type": 0,
            "value": "0"
        },
        "fund_flow": [],
        "token_infos": [
            {
                "address": "0xc02aaa39b223fe8d0a0e5c4f27ead9083c756cc2",
                "decimals": 18
            },
            {
                "address": "0xeeeeeeeeeeeeeeeeeeeeeeeeeeeeeeeeeeeeeeee",
                "decimals": 18
            }
        ]
    },
    "address_label": {
        "labels": [
            {
                "address": "0x0000000000000000000000000000000000000003",
                "label": "Precompiled"
            },
            {
                "address": "0x0000000000000000000000000000000000000004",
                "label": "Precompiled"
            },
            {
                "address": "0xeeeeeeeeeeeeeeeeeeeeeeeeeeeeeeeeeeeeeeee",
                "label": "Ether"
            },
            {
                "address": "0xd9d4a7ca154fe137c808f7eedbe24b639b7af5a6",
                "label": "Cereneum (CER)"
            },
            {
                "address": "0x0000000000000000000000000000000000000001",
                "label": "Precompiled"
            },
            {
                "address": "0x0000000000000000000000000000000000000002",
                "label": "Precompiled"
            }
        ]
    },
    "trace": {
        "accountLabels": null,
        "dataMap": {
            "-1": {
                "invocation": {
                    "address": "0x177b674c38eddef7232763c8e9e00e9a4b870269",
                    "callData": "",
                    "decodedMethod": null,
                    "errorInfo": "",
                    "fromAddress": "",
                    "gasUsed": 0,
                    "id": -1,
                    "methodDecoded": false,
                    "operation": "",
                    "output": "",
                    "revert": false,
                    "revertMessage": "",
                    "selector": "",
                    "status": false,
                    "value": ""
                },
                "nodeType": 0
            },
            "0": {
                "invocation": {
                    "address": "0xd9d4a7ca154fe137c808f7eedbe24b639b7af5a6",
                    "callData": "0x0000000000000000000000000000000000000000000000000000000000000000",
                    "decodedMethod": {
                        "callParams": [
                            {
                                "name": "a_nStakeIndex",
                                "type": "uint256",
                                "value": "0"
                            }
                        ],
                        "constructorArguments": "",
                        "name": "CompoundInterest",
                        "returnParams": [],
                        "signature": "CompoundInterest(uint256)"
                    },
                    "errorInfo": "",
                    "fromAddress": "0x177b674c38eddef7232763c8e9e00e9a4b870269",
                    "gasUsed": 53582,
                    "id": 0,
                    "methodDecoded": true,
                    "operation": "CALL",
                    "output": "",
                    "revert": false,
                    "revertMessage": "",
                    "selector": "0xf4bcd7ad",
                    "status": true,
                    "value": "0"
                },
                "nodeType": 0
            },
            "1": {
                "event": {
                    "contract": "0xd9d4a7ca154fe137c808f7eedbe24b639b7af5a6",
                    "decodedLog": {
                        "name": "CompoundInterestEvent",
                        "params": [
                            {
                                "name": "nInterestCompounded",
                                "type": "uint256",
                                "value": "76,688,790"
                            }
                        ],
                        "signature": "CompoundInterestEvent(uint256)"
                    },
                    "id": 1,
                    "logData": "0x0000000000000000000000000000000000000000000000000000000004922d96",
                    "logDecoded": true,
                    "operation": "EVENT",
                    "revert": false,
                    "status": true,
                    "topics": [
                        "0xcf93184ea171546a9b5a1f0ce649dbe2112412533d72500bb74255a4457c0d78"
                    ]
                },
                "nodeType": 1
            }
        },
        "gasFlame": [
            {
                "children": [
                    {
                        "children": [
                            {
                                "children": [],
                                "depth": 0,
                                "name": "Initial Gas",
                                "value": 21400
                            },
                            {
                                "children": [],
                                "depth": 0,
                                "name": "Executed Gas",
                                "value": 32182
                            }
                        ],
                        "depth": -1,
                        "name": "Actual Gas Used",
                        "value": 53582
                    },
                    {
                        "children": [],
                        "depth": -1,
                        "name": "Refunded Gas",
                        "value": 0
                    }
                ],
                "depth": -2,
                "name": "Total Gas",
                "value": 53582
            }
        ],
        "isConfirmed": true,
        "mainTrace": [
            {
                "children": [
                    {
                        "children": [
                            {
                                "children": [],
                                "depth": 1,
                                "id": 1,
                                "order": 1
                            }
                        ],
                        "depth": 0,
                        "id": 0,
                        "order": 0
                    }
                ],
                "depth": -1,
                "id": -1,
                "order": -1
            }
        ],
        "mainTraceNodeCount": 2,
        "parentIdMap": {
            "0": -1,
            "1": 0
        },
        "tidyTrace": [
            {
                "children": [
                    {
                        "children": [
                            {
                                "children": [],
                                "depth": 1,
                                "id": 1,
                                "order": 1
                            }
                        ],
                        "depth": 0,
                        "id": 0,
                        "order": 0
                    }
                ],
                "depth": -1,
                "id": -1,
                "order": -1
            }
        ],
        "tidyTraceNodeCount": 2
    },
    "state_change": {
        "stateChanges": [
            {
                "address": "0xd9d4a7ca154fe137c808f7eedbe24b639b7af5a6",
                "erc": "ERC-20",
                "slots": [
                    {
                        "current": "0x000000000000000000000000000000000000000000000000000000009631cf8b",
                        "key": "0xc4626636c66cec90af697a3407e3def37de394a7841915af0080e4738b5e5b2c",
                        "prev": "0x00000000000000000000000000000000000000000000000000000000919fa1f5"
                    },
                    {
                        "current": "0x00000000000000000000000000000000000000000000000000008937aedc98b6",
                        "key": "0x4c4dc693d7db52f85fe052106f4b4b920e78e8ef37dee82878a60ab8585faf49",
                        "prev": "0x00000000000000000000000000000000000000000000000000008937aa4a6b20"
                    },
                    {
                        "current": "0x00000000000000000000000000000000000000000000000000008eddab38c164",
                        "key": "0x0000000000000000000000000000000000000000000000000000000000000013",
                        "prev": "0x00000000000000000000000000000000000000000000000000008edda6a693ce"
                    },
                    {
                        "current": "0x000000000000000000000000000000000000000000000000000000005d2146ee",
                        "key": "0xc4626636c66cec90af697a3407e3def37de394a7841915af0080e4738b5e5b30",
                        "prev": "0x000000000000000000000000000000000000000000000000000000005d1fd64d"
                    },
                    {
                        "current": "0x000000000000000000000000000000000000000000000000000000004fcd50ef",
                        "key": "0xc4626636c66cec90af697a3407e3def37de394a7841915af0080e4738b5e5b2d",
                        "prev": "0x000000000000000000000000000000000000000000000000000000004b3b2359"
                    }
                ],
                "storageVariables": [
                    {
                        "name": "m_nTotalStakeShares",
                        "type": "uint256",
                        "value": {
                            "current": "157082711540068",
                            "prev": "157082634851278",
                            "typeTag": 1
                        }
                    },
                    {
                        "name": "m_staked",
                        "type": "mapping(address => struct CereneumData.StakeStruct[])",
                        "value": {
                            "pairs": [
                                {
                                    "key": "0x177b674c38eddef7232763c8e9e00e9a4b870269",
                                    "value": {
                                        "elemType": "struct CereneumData.StakeStruct",
                                        "elems": [
                                            {
                                                "index": 0,
                                                "value": {
                                                    "fields": [
                                                        {
                                                            "name": "nSharesStaked",
                                                            "type": "uint256",
                                                            "value": {
                                                                "current": "2519846795",
                                                                "prev": "2443158005",
                                                                "typeTag": 1
                                                            }
                                                        },
                                                        {
                                                            "name": "nCompoundedPayoutAccumulated",
                                                            "type": "uint256",
                                                            "value": {
                                                                "current": "1338855663",
                                                                "prev": "1262166873",
                                                                "typeTag": 1
                                                            }
                                                        },
                                                        {
                                                            "name": "tLastCompoundedUpdateTime",
                                                            "type": "uint256",
                                                            "value": {
                                                                "current": "1562461934",
                                                                "prev": "1562367565",
                                                                "typeTag": 1
                                                            }
                                                        }
                                                    ],
                                                    "typeTag": 3
                                                }
                                            }
                                        ],
                                        "typeTag": 2
                                    }
                                }
                            ],
                            "typeTag": 4
                        }
                    },
                    {
                        "name": "m_votingMultiplierMap",
                        "type": "mapping(uint8 => uint256)",
                        "value": {
                            "pairs": [
                                {
                                    "key": "1",
                                    "value": {
                                        "current": "150872249899190",
                                        "prev": "150872173210400",
                                        "typeTag": 1
                                    }
                                }
                            ],
                            "typeTag": 4
                        }
                    }
                ]
            }
        ]
    }
}