{
    "balance_change": {
        "balanceChanges": [
            {
                "account": "0x994649b6f14e340c2878885d2e9d90bfd4ee8aae",
                "assets": [
                    {
                        "address": "0x57e114b691db790c35207b2e685d4a43181e6061",
                        "amount": "36,304.943803427400612118",
                        "iconUrl": "",
                        "isERC1155": false,
                        "isERC721": false,
                        "sign": false,
                        "value": "35016.11829510000087"
                    },
                    {
                        "address": "0x66c68a7bcc4cbcab43a2947a529765d86d4ef14f",
                        "amount": "36,304.943803427400612118",
                        "iconUrl": "",
                        "isERC1155": false,
                        "isERC721": false,
                        "sign": true,
                        "value": "34646.17864"
                    }
                ]
            },
            {
                "account": "0x0000000000000000000000000000000000000000",
                "assets": [
                    {
                        "address": "0x66c68a7bcc4cbcab43a2947a529765d86d4ef14f",
                        "amount": "36,304.943803427400612118",
                        "iconUrl": "",
                        "isERC1155": false,
                        "isERC721": false,
                        "sign": false,
                        "value": "34646.17864"
                    }
                ]
            },
            {
                "account": "0x66c68a7bcc4cbcab43a2947a529765d86d4ef14f",
                "assets": [
                    {
                        "address": "0x57e114b691db790c35207b2e685d4a43181e6061",
                        "amount": "36,304.943803427400612118",
                        "iconUrl": "",
                        "isERC1155": false,
                        "isERC721": false,
                        "sign": true,
                        "value": "35016.11829510000087"
                    }
                ]
            }
        ]
    },
    "profile": {
        "basic_info": {
            "baseFee": "16.041968973",
            "blockNumber": 19724862,
            "callData": "0x2e071dc6000000000000000000000000994649b6f14e340c2878885d2e9d90bfd4ee8aae00000000000000000000000066c68a7bcc4cbcab43a2947a529765d86d4ef14f000000000000000000000000000000000000000000000726538a8b9c439e1fee000000000000000000000000000000000000000000000000000000000000008000000000000000000000000057e114b691db790c35207b2e685d4a43181e60610000000000000000000000000000000000000000000007b0184e75619142791700000000000000000000000057e114b691db790c35207b2e685d4a43181e6061000000000000000000000000000000000000000000000000000000000000000000000000000000000000000000000000000000000000000000000000000000a000000000000000000000000000000000000000000000000000000000000000000000000000000000000000000000000000000000000000000000000000000000000000000000000000000000000000000000000000000000000000000000008000000000000000000000000000000000000000000000000000000000000000000000000000000000000000000000000000000000000000000000000000000000",
            "debugEnable": true,
            "errorInfo": "",
            "eventCount": 6,
            "feeRecipient": "0x95222290dd7278aa3ddd389cc1e1d165cc4bafe5",
            "formatValue": "0",
            "gasLimit": 209362,
            "gasPrice": "16.056740445",
            "gasUsed": 85535,
            "intTxnCount": 5,
            "internalRevert": false,
            "internalRevertMessage": "",
            "isContractCreation": false,
            "isFlashloan": false,
            "maxFee": "21.916715972",
            "nonce": 345,
            "overwritedBlockNumber": -1,
            "priorityFee": "0.014771472",
            "receiver": "0x00000000005bbb0ef59571e58418f9a4357b68a0",
            "revertMessage": "",
            "sender": "0x994649b6f14e340c2878885d2e9d90bfd4ee8aae",
            "simulationEnable": true,
            "sourceTxnHash": "0x1795350f43b10b5c1a8ec4d15d78543b928569bdfd84c0a4836ae4863f8aca41",
            "status": true,
            "timestamp": "2024-04-24T11:12:35Z",
            "transactionFee": "0.001373413293963075",
            "txnHash": "0x1795350f43b10b5c1a8ec4d15d78543b928569bdfd84c0a4836ae4863f8aca41",
            "txnIndex": 128,
            "type": 2,
            "value": "0"
        },
        "fund_flow": [
            {
                "amount": "36,304.943803427400612118",
                "from": "0x994649b6f14e340c2878885d2e9d90bfd4ee8aae",
                "id": 1,
                "isERC1155": false,
                "isERC721": false,
                "isReverted": false,
                "order": 1,
                "to": "0x00000000005bbb0ef59571e58418f9a4357b68a0",
                "token": "0x57e114b691db790c35207b2e685d4a43181e6061"
            },
            {
                "amount": "36,304.943803427400612118",
                "from": "0x00000000005bbb0ef59571e58418f9a4357b68a0",
                "id": 2,
                "isERC1155": false,
                "isERC721": false,
                "isReverted": false,
                "order": 2,
                "to": "0x66c68a7bcc4cbcab43a2947a529765d86d4ef14f",
                "token": "0x57e114b691db790c35207b2e685d4a43181e6061"
            },
            {
                "amount": "36,304.943803427400612118",
                "from": "0x0000000000000000000000000000000000000000",
                "id": 3,
                "isERC1155": false,
                "isERC721": false,
                "isReverted": false,
                "order": 3,
                "to": "0x994649b6f14e340c2878885d2e9d90bfd4ee8aae",
                "token": "0x66c68a7bcc4cbcab43a2947a529765d86d4ef14f"
            }
        ],
        "token_infos": [
            {
                "address": "0x66c68a7bcc4cbcab43a2947a529765d86d4ef14f",
                "decimals": 18
            },
            {
                "address": "0xc02aaa39b223fe8d0a0e5c4f27ead9083c756cc2",
                "decimals": 18
            },
            {
                "address": "0xeeeeeeeeeeeeeeeeeeeeeeeeeeeeeeeeeeeeeeee",
                "decimals": 18
            },
            {
                "address": "0x57e114b691db790c35207b2e685d4a43181e6061",
                "decimals": 18
            }
        ]
    },
    "address_label": {
        "labels": [
            {
                "address": "0xeeeeeeeeeeeeeeeeeeeeeeeeeeeeeeeeeeeeeeee",
                "label": "Ether"
            },
            {
                "address": "0x00000000005bbb0ef59571e58418f9a4357b68a0",
                "label": "Pendle: Router V3"
            },
            {
                "address": "0x8086174be8fc721cbf275545193a73f56fbf3384",
                "label": "ActionMiscV3"
            },
            {
                "address": "0x0000000000000000000000000000000000000004",
                "label": "Precompiled"
            },
            {
                "address": "0x57e114b691db790c35207b2e685d4a43181e6061",
                "label": "Ethena: ENA Token"
            },
            {
                "address": "0x0000000000000000000000000000000000000000",
                "label": "Null Address"
            },
            {
                "address": "0x66c68a7bcc4cbcab43a2947a529765d86d4ef14f",
                "label": "Pendle: SY-ENA Token"
            },
            {
                "address": "0x0000000000000000000000000000000000000001",
                "label": "Precompiled"
            },
            {
                "address": "0x0000000000000000000000000000000000000002",
                "label": "Precompiled"
            },
            {
                "address": "0x0000000000000000000000000000000000000003",
                "label": "Precompiled"
            }
        ]
    },
    "trace": {
        "accountLabels": null,
        "dataMap": {
            "-1": {
                "invocation": {
                    "address": "0x994649b6f14e340c2878885d2e9d90bfd4ee8aae",
                    "callData": "",
                    "decodedMethod": null,
                    "errorInfo": "",
                    "fromAddress": "",
                    "gasUsed": 0,
                    "id": -1,
                    "methodDecoded": false,
                    "operation": "",
                    "output": "",
                    "revert": false,
                    "revertMessage": "",
                    "selector": "",
                    "status": false,
                    "value": ""
                },
                "nodeType": 0
            },
            "0": {
                "invocation": {
                    "address": "0x00000000005bbb0ef59571e58418f9a4357b68a0",
                    "callData": "0x000000000000000000000000994649b6f14e340c2878885d2e9d90bfd4ee8aae00000000000000000000000066c68a7bcc4cbcab43a2947a529765d86d4ef14f000000000000000000000000000000000000000000000726538a8b9c439e1fee000000000000000000000000000000000000000000000000000000000000008000000000000000000000000057e114b691db790c35207b2e685d4a43181e60610000000000000000000000000000000000000000000007b0184e75619142791700000000000000000000000057e114b691db790c35207b2e685d4a43181e6061000000000000000000000000000000000000000000000000000000000000000000000000000000000000000000000000000000000000000000000000000000a000000000000000000000000000000000000000000000000000000000000000000000000000000000000000000000000000000000000000000000000000000000000000000000000000000000000000000000000000000000000000000000008000000000000000000000000000000000000000000000000000000000000000000000000000000000000000000000000000000000000000000000000000000000",
                    "decodedMethod": {
                        "callParams": [
                            {
                                "name": "receiver",
                                "type": "address",
                                "value": "0x994649b6f14e340c2878885d2e9d90bfd4ee8aae"
                            },
                            {
                                "name": "SY",
                                "type": "address",
                                "value": "0x66c68a7bcc4cbcab43a2947a529765d86d4ef14f"
                            },
                            {
                                "name": "minSyOut",
                                "type": "uint256",
                                "value": "33,763,561,432,243,679,141,870"
                            },
                            {
                                "name": "input",
                                "type": "(address,uint256,address,address,(uint8,address,bytes,bool))",
                                "value": [
                                    {
                                        "name": "tokenIn",
                                        "type": "address",
                                        "value": "0x57e114b691db790c35207b2e685d4a43181e6061"
                                    },
                                    {
                                        "name": "netTokenIn",
                                        "type": "uint256",
                                        "value": "36,304,943,803,427,400,612,119"
                                    },
                                    {
                                        "name": "tokenMintSy",
                                        "type": "address",
                                        "value": "0x57e114b691db790c35207b2e685d4a43181e6061"
                                    },
                                    {
                                        "name": "pendleSwap",
                                        "type": "address",
                                        "value": "0x0000000000000000000000000000000000000000"
                                    },
                                    {
                                        "name": "swapData",
                                        "type": "(uint8,address,bytes,bool)",
                                        "value": [
                                            {
                                                "name": "swapType",
                                                "type": "uint8",
                                                "value": "0"
                                            },
                                            {
                                                "name": "extRouter",
                                                "type": "address",
                                                "value": "0x0000000000000000000000000000000000000000"
                                            },
                                            {
                                                "name": "extCalldata",
                                                "type": "bytes",
                                                "value": "0x"
                                            },
                                            {
                                                "name": "needScale",
                                                "type": "bool",
                                                "value": false
                                            }
                                        ]
                                    }
                                ]
                            }
                        ],
                        "constructorArguments": "",
                        "name": "mintSyFromToken",
                        "returnParams": [
                            {
                                "name": "netSyOut",
                                "type": "uint256",
                                "value": "36,304,943,803,427,400,612,119"
                            }
                        ],
                        "signature": "mintSyFromToken(address,address,uint256,(address,uint256,address,address,(uint8,address,bytes,bool)))"
                    },
                    "errorInfo": "",
                    "fromAddress": "0x994649b6f14e340c2878885d2e9d90bfd4ee8aae",
                    "gasUsed": 85535,
                    "id": 0,
                    "methodDecoded": true,
                    "operation": "CALL",
                    "output": "0x0000000000000000000000000000000000000000000007b0184e756191427917",
                    "revert": false,
                    "revertMessage": "",
                    "selector": "0x2e071dc6",
                    "status": true,
                    "value": "0"
                },
                "nodeType": 0
            },
            "1": {
                "invocation": {
                    "address": "0x8086174be8fc721cbf275545193a73f56fbf3384",
                    "callData": "0x000000000000000000000000994649b6f14e340c2878885d2e9d90bfd4ee8aae00000000000000000000000066c68a7bcc4cbcab43a2947a529765d86d4ef14f000000000000000000000000000000000000000000000726538a8b9c439e1fee000000000000000000000000000000000000000000000000000000000000008000000000000000000000000057e114b691db790c35207b2e685d4a43181e60610000000000000000000000000000000000000000000007b0184e75619142791700000000000000000000000057e114b691db790c35207b2e685d4a43181e6061000000000000000000000000000000000000000000000000000000000000000000000000000000000000000000000000000000000000000000000000000000a000000000000000000000000000000000000000000000000000000000000000000000000000000000000000000000000000000000000000000000000000000000000000000000000000000000000000000000000000000000000000000000008000000000000000000000000000000000000000000000000000000000000000000000000000000000000000000000000000000000000000000000000000000000",
                    "decodedMethod": {
                        "callParams": [
                            {
                                "name": "receiver",
                                "type": "address",
                                "value": "0x994649b6f14e340c2878885d2e9d90bfd4ee8aae"
                            },
                            {
                                "name": "SY",
                                "type": "address",
                                "value": "0x66c68a7bcc4cbcab43a2947a529765d86d4ef14f"
                            },
                            {
                                "name": "minSyOut",
                                "type": "uint256",
                                "value": "33,763,561,432,243,679,141,870"
                            },
                            {
                                "name": "input",
                                "type": "(address,uint256,address,address,(uint8,address,bytes,bool))",
                                "value": [
                                    {
                                        "name": "tokenIn",
                                        "type": "address",
                                        "value": "0x57e114b691db790c35207b2e685d4a43181e6061"
                                    },
                                    {
                                        "name": "netTokenIn",
                                        "type": "uint256",
                                        "value": "36,304,943,803,427,400,612,119"
                                    },
                                    {
                                        "name": "tokenMintSy",
                                        "type": "address",
                                        "value": "0x57e114b691db790c35207b2e685d4a43181e6061"
                                    },
                                    {
                                        "name": "pendleSwap",
                                        "type": "address",
                                        "value": "0x0000000000000000000000000000000000000000"
                                    },
                                    {
                                        "name": "swapData",
                                        "type": "(uint8,address,bytes,bool)",
                                        "value": [
                                            {
                                                "name": "swapType",
                                                "type": "uint8",
                                                "value": "0"
                                            },
                                            {
                                                "name": "extRouter",
                                                "type": "address",
                                                "value": "0x0000000000000000000000000000000000000000"
                                            },
                                            {
                                                "name": "extCalldata",
                                                "type": "bytes",
                                                "value": "0x"
                                            },
                                            {
                                                "name": "needScale",
                                                "type": "bool",
                                                "value": false
                                            }
                                        ]
                                    }
                                ]
                            }
                        ],
                        "constructorArguments": "",
                        "name": "mintSyFromToken",
                        "returnParams": [
                            {
                                "name": "netSyOut",
                                "type": "uint256",
                                "value": "36,304,943,803,427,400,612,119"
                            }
                        ],
                        "signature": "mintSyFromToken(address,address,uint256,(address,uint256,address,address,(uint8,address,bytes,bool)))"
                    },
                    "errorInfo": "",
                    "fromAddress": "0x00000000005bbb0ef59571e58418f9a4357b68a0",
                    "gasUsed": 79704,
                    "id": 1,
                    "methodDecoded": true,
                    "operation": "DELEGATECALL",
                    "output": "0x0000000000000000000000000000000000000000000007b0184e756191427917",
                    "revert": false,
                    "revertMessage": "",
                    "selector": "0x2e071dc6",
                    "status": true,
                    "value": "0"
                },
                "nodeType": 0
            },
            "10": {
                "event": {
                    "contract": "0x66c68a7bcc4cbcab43a2947a529765d86d4ef14f",
                    "decodedLog": {
                        "name": "Deposit",
                        "params": [
                            {
                                "name": "caller",
                                "type": "address",
                                "value": "0x00000000005bbb0ef59571e58418f9a4357b68a0"
                            },
                            {
                                "name": "receiver",
                                "type": "address",
                                "value": "0x994649b6f14e340c2878885d2e9d90bfd4ee8aae"
                            },
                            {
                                "name": "tokenIn",
                                "type": "address",
                                "value": "0x57e114b691db790c35207b2e685d4a43181e6061"
                            },
                            {
                                "name": "amountDeposited",
                                "type": "uint256",
                                "value": "36,304,943,803,427,400,612,119"
                            },
                            {
                                "name": "amountSyOut",
                                "type": "uint256",
                                "value": "36,304,943,803,427,400,612,119"
                            }
                        ],
                        "signature": "Deposit(address,address,address,uint256,uint256)"
                    },
                    "id": 10,
                    "logData": "0x0000000000000000000000000000000000000000000007b0184e7561914279170000000000000000000000000000000000000000000007b0184e756191427917",
                    "logDecoded": true,
                    "operation": "EVENT",
                    "revert": false,
                    "status": true,
                    "topics": [
                        "0x5fe47ed6d4225326d3303476197d782ded5a4e9c14f479dc9ec4992af4e85d59",
                        "0x00000000000000000000000000000000005bbb0ef59571e58418f9a4357b68a0",
                        "0x000000000000000000000000994649b6f14e340c2878885d2e9d90bfd4ee8aae",
                        "0x00000000000000000000000057e114b691db790c35207b2e685d4a43181e6061"
                    ]
                },
                "nodeType": 1
            },
            "11": {
                "event": {
                    "contract": "0x00000000005bbb0ef59571e58418f9a4357b68a0",
                    "decodedLog": {
                        "name": "MintSyFromToken",
                        "params": [
                            {
                                "name": "caller",
                                "type": "address",
                                "value": "0x994649b6f14e340c2878885d2e9d90bfd4ee8aae"
                            },
                            {
                                "name": "tokenIn",
                                "type": "address",
                                "value": "0x57e114b691db790c35207b2e685d4a43181e6061"
                            },
                            {
                                "name": "SY",
                                "type": "address",
                                "value": "0x66c68a7bcc4cbcab43a2947a529765d86d4ef14f"
                            },
                            {
                                "name": "receiver",
                                "type": "address",
                                "value": "0x994649b6f14e340c2878885d2e9d90bfd4ee8aae"
                            },
                            {
                                "name": "netTokenIn",
                                "type": "uint256",
                                "value": "36,304,943,803,427,400,612,119"
                            },
                            {
                                "name": "netSyOut",
                                "type": "uint256",
                                "value": "36,304,943,803,427,400,612,119"
                            }
                        ],
                        "signature": "MintSyFromToken(address,address,address,address,uint256,uint256)"
                    },
                    "id": 11,
                    "logData": "0x000000000000000000000000994649b6f14e340c2878885d2e9d90bfd4ee8aae0000000000000000000000000000000000000000000007b0184e7561914279170000000000000000000000000000000000000000000007b0184e756191427917",
                    "logDecoded": true,
                    "operation": "EVENT",
                    "revert": false,
                    "status": true,
                    "topics": [
                        "0x71c7a44161eb32e4640f6c8f0586db5f1d2e03306e2c63bb2e0f7cd0a8fc690c",
                        "0x000000000000000000000000994649b6f14e340c2878885d2e9d90bfd4ee8aae",
                        "0x00000000000000000000000057e114b691db790c35207b2e685d4a43181e6061",
                        "0x00000000000000000000000066c68a7bcc4cbcab43a2947a529765d86d4ef14f"
                    ]
                },
                "nodeType": 1
            },
            "2": {
                "invocation": {
                    "address": "0x57e114b691db790c35207b2e685d4a43181e6061",
                    "callData": "0x000000000000000000000000994649b6f14e340c2878885d2e9d90bfd4ee8aae00000000000000000000000000000000005bbb0ef59571e58418f9a4357b68a00000000000000000000000000000000000000000000007b0184e756191427917",
                    "decodedMethod": {
                        "callParams": [
                            {
                                "name": "from",
                                "type": "address",
                                "value": "0x994649b6f14e340c2878885d2e9d90bfd4ee8aae"
                            },
                            {
                                "name": "to",
                                "type": "address",
                                "value": "0x00000000005bbb0ef59571e58418f9a4357b68a0"
                            },
                            {
                                "decimalAvailable": true,
                                "name": "amount",
                                "type": "uint256",
                                "value": "36,304,943,803,427,400,612,119"
                            }
                        ],
                        "constructorArguments": "",
                        "name": "transferFrom",
                        "returnParams": [
                            {
                                "name": "",
                                "type": "bool",
                                "value": true
                            }
                        ],
                        "signature": "transferFrom(address,address,uint256)"
                    },
                    "errorInfo": "",
                    "fromAddress": "0x00000000005bbb0ef59571e58418f9a4357b68a0",
                    "gasUsed": 37133,
                    "id": 2,
                    "methodDecoded": true,
                    "operation": "CALL",
                    "output": "0x0000000000000000000000000000000000000000000000000000000000000001",
                    "revert": false,
                    "revertMessage": "",
                    "selector": "0x23b872dd",
                    "status": true,
                    "value": "0"
                },
                "nodeType": 0
            },
            "3": {
                "event": {
                    "contract": "0x57e114b691db790c35207b2e685d4a43181e6061",
                    "decodedLog": {
                        "name": "Approval",
                        "params": [
                            {
                                "name": "owner",
                                "type": "address",
                                "value": "0x994649b6f14e340c2878885d2e9d90bfd4ee8aae"
                            },
                            {
                                "name": "spender",
                                "type": "address",
                                "value": "0x00000000005bbb0ef59571e58418f9a4357b68a0"
                            },
                            {
                                "decimalAvailable": true,
                                "name": "value",
                                "type": "uint256",
                                "value": "363,049,438,034,274,006,121"
                            }
                        ],
                        "signature": "Approval(address,address,uint256)"
                    },
                    "id": 3,
                    "logData": "0x000000000000000000000000000000000000000000000013ae52b45fb217b469",
                    "logDecoded": true,
                    "operation": "EVENT",
                    "revert": false,
                    "status": true,
                    "topics": [
                        "0x8c5be1e5ebec7d5bd14f71427d1e84f3dd0314c0f7b2291e5b200ac8c7c3b925",
                        "0x000000000000000000000000994649b6f14e340c2878885d2e9d90bfd4ee8aae",
                        "0x00000000000000000000000000000000005bbb0ef59571e58418f9a4357b68a0"
                    ]
                },
                "nodeType": 1
            },
            "4": {
                "event": {
                    "contract": "0x57e114b691db790c35207b2e685d4a43181e6061",
                    "decodedLog": {
                        "name": "Transfer",
                        "params": [
                            {
                                "name": "from",
                                "type": "address",
                                "value": "0x994649b6f14e340c2878885d2e9d90bfd4ee8aae"
                            },
                            {
                                "name": "to",
                                "type": "address",
                                "value": "0x00000000005bbb0ef59571e58418f9a4357b68a0"
                            },
                            {
                                "decimalAvailable": true,
                                "name": "value",
                                "type": "uint256",
                                "value": "36,304,943,803,427,400,612,119"
                            }
                        ],
                        "signature": "Transfer(address,address,uint256)"
                    },
                    "id": 4,
                    "logData": "0x0000000000000000000000000000000000000000000007b0184e756191427917",
                    "logDecoded": true,
                    "operation": "EVENT",
                    "revert": false,
                    "status": true,
                    "topics": [
                        "0xddf252ad1be2c89b69c2b068fc378daa952ba7f163c4a11628f55a4df523b3ef",
                        "0x000000000000000000000000994649b6f14e340c2878885d2e9d90bfd4ee8aae",
                        "0x00000000000000000000000000000000005bbb0ef59571e58418f9a4357b68a0"
                    ]
                },
                "nodeType": 1
            },
            "5": {
                "invocation": {
                    "address": "0x57e114b691db790c35207b2e685d4a43181e6061",
                    "callData": "0x00000000000000000000000000000000005bbb0ef59571e58418f9a4357b68a000000000000000000000000066c68a7bcc4cbcab43a2947a529765d86d4ef14f",
                    "decodedMethod": {
                        "callParams": [
                            {
                                "name": "owner",
                                "type": "address",
                                "value": "0x00000000005bbb0ef59571e58418f9a4357b68a0"
                            },
                            {
                                "name": "spender",
                                "type": "address",
                                "value": "0x66c68a7bcc4cbcab43a2947a529765d86d4ef14f"
                            }
                        ],
                        "constructorArguments": "",
                        "name": "allowance",
                        "returnParams": [
                            {
                                "decimalAvailable": true,
                                "name": "",
                                "type": "uint256",
                                "value": "115,792,089,237,316,195,423,570,985,008,687,907,853,269,984,665,640,564,039,457,584,007,913,129,639,935"
                            }
                        ],
                        "signature": "allowance(address,address)"
                    },
                    "errorInfo": "",
                    "fromAddress": "0x00000000005bbb0ef59571e58418f9a4357b68a0",
                    "gasUsed": 2731,
                    "id": 5,
                    "methodDecoded": true,
                    "operation": "STATICCALL",
                    "output": "0xffffffffffffffffffffffffffffffffffffffffffffffffffffffffffffffff",
                    "revert": false,
                    "revertMessage": "",
                    "selector": "0xdd62ed3e",
                    "status": true,
                    "value": "0"
                },
                "nodeType": 0
            },
            "6": {
                "invocation": {
                    "address": "0x66c68a7bcc4cbcab43a2947a529765d86d4ef14f",
                    "callData": "0x000000000000000000000000994649b6f14e340c2878885d2e9d90bfd4ee8aae00000000000000000000000057e114b691db790c35207b2e685d4a43181e60610000000000000000000000000000000000000000000007b0184e756191427917000000000000000000000000000000000000000000000726538a8b9c439e1fee",
                    "decodedMethod": {
                        "callParams": [
                            {
                                "name": "receiver",
                                "type": "address",
                                "value": "0x994649b6f14e340c2878885d2e9d90bfd4ee8aae"
                            },
                            {
                                "name": "tokenIn",
                                "type": "address",
                                "value": "0x57e114b691db790c35207b2e685d4a43181e6061"
                            },
                            {
                                "name": "amountTokenToDeposit",
                                "type": "uint256",
                                "value": "36,304,943,803,427,400,612,119"
                            },
                            {
                                "name": "minSharesOut",
                                "type": "uint256",
                                "value": "33,763,561,432,243,679,141,870"
                            }
                        ],
                        "constructorArguments": "",
                        "name": "deposit",
                        "returnParams": [
                            {
                                "name": "amountSharesOut",
                                "type": "uint256",
                                "value": "36,304,943,803,427,400,612,119"
                            }
                        ],
                        "signature": "deposit(address,address,uint256,uint256)"
                    },
                    "errorInfo": "",
                    "fromAddress": "0x00000000005bbb0ef59571e58418f9a4357b68a0",
                    "gasUsed": 28923,
                    "id": 6,
                    "methodDecoded": true,
                    "operation": "CALL",
                    "output": "0x0000000000000000000000000000000000000000000007b0184e756191427917",
                    "revert": false,
                    "revertMessage": "",
                    "selector": "0x20e8c565",
                    "status": true,
                    "value": "0"
                },
                "nodeType": 0
            },
            "7": {
                "invocation": {
                    "address": "0x57e114b691db790c35207b2e685d4a43181e6061",
                    "callData": "0x00000000000000000000000000000000005bbb0ef59571e58418f9a4357b68a000000000000000000000000066c68a7bcc4cbcab43a2947a529765d86d4ef14f0000000000000000000000000000000000000000000007b0184e756191427917",
                    "decodedMethod": {
                        "callParams": [
                            {
                                "name": "from",
                                "type": "address",
                                "value": "0x00000000005bbb0ef59571e58418f9a4357b68a0"
                            },
                            {
                                "name": "to",
                                "type": "address",
                                "value": "0x66c68a7bcc4cbcab43a2947a529765d86d4ef14f"
                            },
                            {
                                "decimalAvailable": true,
                                "name": "amount",
                                "type": "uint256",
                                "value": "36,304,943,803,427,400,612,119"
                            }
                        ],
                        "constructorArguments": "",
                        "name": "transferFrom",
                        "returnParams": [
                            {
                                "name": "",
                                "type": "bool",
                                "value": true
                            }
                        ],
                        "signature": "transferFrom(address,address,uint256)"
                    },
                    "errorInfo": "",
                    "fromAddress": "0x66c68a7bcc4cbcab43a2947a529765d86d4ef14f",
                    "gasUsed": 8245,
                    "id": 7,
                    "methodDecoded": true,
                    "operation": "CALL",
                    "output": "0x0000000000000000000000000000000000000000000000000000000000000001",
                    "revert": false,
                    "revertMessage": "",
                    "selector": "0x23b872dd",
                    "status": true,
                    "value": "0"
                },
                "nodeType": 0
            },
            "8": {
                "event": {
                    "contract": "0x57e114b691db790c35207b2e685d4a43181e6061",
                    "decodedLog": {
                        "name": "Transfer",
                        "params": [
                            {
                                "name": "from",
                                "type": "address",
                                "value": "0x00000000005bbb0ef59571e58418f9a4357b68a0"
                            },
                            {
                                "name": "to",
                                "type": "address",
                                "value": "0x66c68a7bcc4cbcab43a2947a529765d86d4ef14f"
                            },
                            {
                                "decimalAvailable": true,
                                "name": "value",
                                "type": "uint256",
                                "value": "36,304,943,803,427,400,612,119"
                            }
                        ],
                        "signature": "Transfer(address,address,uint256)"
                    },
                    "id": 8,
                    "logData": "0x0000000000000000000000000000000000000000000007b0184e756191427917",
                    "logDecoded": true,
                    "operation": "EVENT",
                    "revert": false,
                    "status": true,
                    "topics": [
                        "0xddf252ad1be2c89b69c2b068fc378daa952ba7f163c4a11628f55a4df523b3ef",
                        "0x00000000000000000000000000000000005bbb0ef59571e58418f9a4357b68a0",
                        "0x00000000000000000000000066c68a7bcc4cbcab43a2947a529765d86d4ef14f"
                    ]
                },
                "nodeType": 1
            },
            "9": {
                "event": {
                    "contract": "0x66c68a7bcc4cbcab43a2947a529765d86d4ef14f",
                    "decodedLog": {
                        "name": "Transfer",
                        "params": [
                            {
                                "name": "from",
                                "type": "address",
                                "value": "0x0000000000000000000000000000000000000000"
                            },
                            {
                                "name": "to",
                                "type": "address",
                                "value": "0x994649b6f14e340c2878885d2e9d90bfd4ee8aae"
                            },
                            {
                                "decimalAvailable": true,
                                "name": "value",
                                "type": "uint256",
                                "value": "36,304,943,803,427,400,612,119"
                            }
                        ],
                        "signature": "Transfer(address,address,uint256)"
                    },
                    "id": 9,
                    "logData": "0x0000000000000000000000000000000000000000000007b0184e756191427917",
                    "logDecoded": true,
                    "operation": "EVENT",
                    "revert": false,
                    "status": true,
                    "topics": [
                        "0xddf252ad1be2c89b69c2b068fc378daa952ba7f163c4a11628f55a4df523b3ef",
                        "0x0000000000000000000000000000000000000000000000000000000000000000",
                        "0x000000000000000000000000994649b6f14e340c2878885d2e9d90bfd4ee8aae"
                    ]
                },
                "nodeType": 1
            }
        },
        "gasFlame": [
            {
                "children": [
                    {
                        "children": [
                            {
                                "children": [],
                                "depth": 0,
                                "name": "Initial Gas",
                                "value": 24092
                            },
                            {
                                "children": [
                                    {
                                        "children": [
                                            {
                                                "children": [],
                                                "depth": 2,
                                                "name": "transferFrom",
                                                "value": 37133
                                            },
                                            {
                                                "children": [],
                                                "depth": 2,
                                                "name": "allowance",
                                                "value": 2731
                                            },
                                            {
                                                "children": [
                                                    {
                                                        "children": [],
                                                        "depth": 3,
                                                        "name": "transferFrom",
                                                        "value": 8245
                                                    }
                                                ],
                                                "depth": 2,
                                                "name": "deposit",
                                                "value": 28923
                                            }
                                        ],
                                        "depth": 1,
                                        "name": "mintSyFromToken",
                                        "value": 79704
                                    }
                                ],
                                "depth": 0,
                                "name": "Executed Gas",
                                "value": 82826
                            }
                        ],
                        "depth": -1,
                        "name": "Actual Gas Used",
                        "value": 85535
                    },
                    {
                        "children": [],
                        "depth": -1,
                        "name": "Refunded Gas",
                        "value": 21383
                    }
                ],
                "depth": -2,
                "name": "Total Gas",
                "value": 106918
            }
        ],
        "isConfirmed": true,
        "mainTrace": [
            {
                "children": [
                    {
                        "children": [
                            {
                                "children": [
                                    {
                                        "children": [
                                            {
                                                "children": [],
                                                "depth": 3,
                                                "id": 3,
                                                "order": 3
                                            },
                                            {
                                                "children": [],
                                                "depth": 3,
                                                "id": 4,
                                                "order": 4
                                            }
                                        ],
                                        "depth": 2,
                                        "id": 2,
                                        "order": 2
                                    },
                                    {
                                        "children": [],
                                        "depth": 2,
                                        "id": 5,
                                        "order": 5
                                    },
                                    {
                                        "children": [
                                            {
                                                "children": [
                                                    {
                                                        "children": [],
                                                        "depth": 4,
                                                        "id": 8,
                                                        "order": 8
                                                    }
                                                ],
                                                "depth": 3,
                                                "id": 7,
                                                "order": 7
                                            },
                                            {
                                                "children": [],
                                                "depth": 3,
                                                "id": 9,
                                                "order": 9
                                            },
                                            {
                                                "children": [],
                                                "depth": 3,
                                                "id": 10,
                                                "order": 10
                                            }
                                        ],
                                        "depth": 2,
                                        "id": 6,
                                        "order": 6
                                    },
                                    {
                                        "children": [],
                                        "depth": 2,
                                        "id": 11,
                                        "order": 11
                                    }
                                ],
                                "depth": 1,
                                "id": 1,
                                "order": 1
                            }
                        ],
                        "depth": 0,
                        "id": 0,
                        "order": 0
                    }
                ],
                "depth": -1,
                "id": -1,
                "order": -1
            }
        ],
        "mainTraceNodeCount": 12,
        "parentIdMap": {
            "0": -1,
            "1": 0,
            "10": 6,
            "11": 1,
            "2": 1,
            "3": 2,
            "4": 2,
            "5": 1,
            "6": 1,
            "7": 6,
            "8": 7,
            "9": 6
        },
        "tidyTrace": [
            {
                "children": [
                    {
                        "children": [
                            {
                                "children": [
                                    {
                                        "children": [
                                            {
                                                "children": [],
                                                "depth": 3,
                                                "id": 3,
                                                "order": 3
                                            },
                                            {
                                                "children": [],
                                                "depth": 3,
                                                "id": 4,
                                                "order": 4
                                            }
                                        ],
                                        "depth": 2,
                                        "id": 2,
                                        "order": 2
                                    },
                                    {
                                        "children": [
                                            {
                                                "children": [
                                                    {
                                                        "children": [],
                                                        "depth": 4,
                                                        "id": 8,
                                                        "order": 8
                                                    }
                                                ],
                                                "depth": 3,
                                                "id": 7,
                                                "order": 7
                                            },
                                            {
                                                "children": [],
                                                "depth": 3,
                                                "id": 9,
                                                "order": 9
                                            },
                                            {
                                                "children": [],
                                                "depth": 3,
                                                "id": 10,
                                                "order": 10
                                            }
                                        ],
                                        "depth": 2,
                                        "id": 6,
                                        "order": 6
                                    },
                                    {
                                        "children": [],
                                        "depth": 2,
                                        "id": 11,
                                        "order": 11
                                    }
                                ],
                                "depth": 1,
                                "id": 1,
                                "order": 1
                            }
                        ],
                        "depth": 0,
                        "id": 0,
                        "order": 0
                    }
                ],
                "depth": -1,
                "id": -1,
                "order": -1
            }
        ],
        "tidyTraceNodeCount": 11
    },
    "state_change": {
        "stateChanges": [
            {
                "address": "0x57e114b691db790c35207b2e685d4a43181e6061",
                "erc": "ERC-20",
                "slots": [
                    {
                        "current": "0x000000000000000000000000000000000000000000000013ae52b45fb217b469",
                        "key": "0xfed6e9c153b190702604237f5d63ced48d08f664c189b4647bd78f8bab82fcfd",
                        "prev": "0x0000000000000000000000000000000000000000000007c3c6a129c1435a2d80"
                    },
                    {
                        "current": "0x00000000000000000000000000000000000000000023aac326586bd033b8b7aa",
                        "key": "0x5190cf538b9af04d16a84529bc746388c6ea8a57ac4b50e31617cf32579d5146",
                        "prev": "0x00000000000000000000000000000000000000000023a3130e09f66ea2763e93"
                    },
                    {
                        "current": "0x0000000000000000000000000000000000000000000000000000000000000000",
                        "key": "0x1e5b18d343f6915e7ca9a7860a01a3cc172e6990a9adafd8e91c69a98dddf0bd",
                        "prev": "0x0000000000000000000000000000000000000000000007b0184e756191427917"
                    }
                ],
                "storageVariables": [
                    {
                        "name": "_allowances",
                        "type": "mapping(address => mapping(address => uint256))",
                        "value": {
                            "pairs": [
                                {
                                    "key": "0x994649b6f14e340c2878885d2e9d90bfd4ee8aae",
                                    "value": {
                                        "pairs": [
                                            {
                                                "key": "0x00000000005bbb0ef59571e58418f9a4357b68a0",
                                                "value": {
                                                    "current": "363049438034274006121",
                                                    "prev": "36667993241461674618240",
                                                    "typeTag": 1
                                                }
                                            }
                                        ],
                                        "typeTag": 4
                                    }
                                }
                            ],
                            "typeTag": 4
                        }
                    },
                    {
                        "name": "_balances",
                        "type": "mapping(address => uint256)",
                        "value": {
                            "pairs": [
                                {
                                    "key": "0x66c68a7bcc4cbcab43a2947a529765d86d4ef14f",
                                    "value": {
                                        "current": "43118805866771147520522154",
                                        "prev": "43082500922967720119910035",
                                        "typeTag": 1
                                    }
                                },
                                {
                                    "key": "0x994649b6f14e340c2878885d2e9d90bfd4ee8aae",
                                    "value": {
                                        "current": "0",
                                        "prev": "36304943803427400612119",
                                        "typeTag": 1
                                    }
                                }
                            ],
                            "typeTag": 4
                        }
                    }
                ]
            },
            {
                "address": "0x66c68a7bcc4cbcab43a2947a529765d86d4ef14f",
                "erc": "ERC-20",
                "slots": [
                    {
                        "current": "0x01000000000000000000000000000000000000000023aac326586bd033b8b7aa",
                        "key": "0x0000000000000000000000000000000000000000000000000000000000000002",
                        "prev": "0x01000000000000000000000000000000000000000023a3130e09f66ea2763e93"
                    },
                    {
                        "current": "0x000000000000000000000000000000000000000000001a2847e73ac2d6f7a347",
                        "key": "0xc55e2adc3ce74ff14da5581d6d99ac6d0b6b2744c32e4d8c6344c3c0d683fbe4",
                        "prev": "0x0000000000000000000000000000000000000000000012782f98c56145b52a30"
                    }
                ],
                "storageVariables": [
                    {
                        "name": "_totalSupply",
                        "type": "uint248",
                        "value": {
                            "current": "43118805866771147520522154",
                            "prev": "43082500922967720119910035",
                            "typeTag": 1
                        }
                    },
                    {
                        "name": "_status",
                        "type": "uint8",
                        "value": {
                            "current": "1",
                            "prev": "1",
                            "typeTag": 1
                        }
                    },
                    {
                        "name": "_balances",
                        "type": "mapping(address => uint256)",
                        "value": {
                            "pairs": [
                                {
                                    "key": "0x994649b6f14e340c2878885d2e9d90bfd4ee8aae",
                                    "value": {
                                        "current": "123524579492063975285575",
                                        "prev": "87219635688636574673456",
                                        "typeTag": 1
                                    }
                                }
                            ],
                            "typeTag": 4
                        }
                    }
                ]
            }
        ]
    }
}