{
    "balance_change": {
        "balanceChanges": [
            {
                "account": "0x84b84a03f138a95e6132a040f29c5fa6102bea7c",
                "assets": [
                    {
                        "address": "0xa0b86991c6218b36c1d19d4a2e9eb0ce3606eb48",
                        "amount": "2,000",
                        "iconUrl": "https://assets.blocksec.com/icon/0347a86cc07dbd03fdc5db01a4e5ac7e1217f90e0b6e4bb0f75cbcca09160989.png",
                        "isERC1155": false,
                        "isERC721": false,
                        "sign": false,
                        "value": "1999.9"
                    }
                ]
            },
            {
                "account": "0xf16e9b0d03470827a95cdfd0cb8a8a3b46969b91",
                "assets": [
                    {
                        "address": "0xa0b86991c6218b36c1d19d4a2e9eb0ce3606eb48",
                        "amount": "2,000",
                        "iconUrl": "https://assets.blocksec.com/icon/0347a86cc07dbd03fdc5db01a4e5ac7e1217f90e0b6e4bb0f75cbcca09160989.png",
                        "isERC1155": false,
                        "isERC721": false,
                        "sign": true,
                        "value": "1999.9"
                    }
                ]
            }
        ]
    },
    "profile": {
        "basic_info": {
            "baseFee": "9.356260079",
            "blockNumber": 15313310,
            "callData": "0x23b872dd00000000000000000000000084b84a03f138a95e6132a040f29c5fa6102bea7c000000000000000000000000f16e9b0d03470827a95cdfd0cb8a8a3b46969b910000000000000000000000000000000000000000000000000000000077359400",
            "debugEnable": true,
            "errorInfo": "",
            "eventCount": 1,
            "feeRecipient": "0xea674fdde714fd979de3edf0f56aa9716b898ec8",
            "formatValue": "0",
            "gasLimit": 100000,
            "gasPrice": "10.356260079",
            "gasUsed": 52056,
            "intTxnCount": 1,
            "internalRevert": false,
            "internalRevertMessage": "",
            "isContractCreation": false,
            "isFlashloan": false,
            "maxFee": "18.25215507",
            "nonce": 643998,
            "overwritedBlockNumber": -1,
            "priorityFee": "1",
            "receiver": "0xa0b86991c6218b36c1d19d4a2e9eb0ce3606eb48",
            "revertMessage": "",
            "sender": "0xa152f8bb749c55e9943a3a0a3111d18ee2b3f94e",
            "simulationEnable": true,
            "sourceTxnHash": "0x170a6a5f9c7a11c50ee83e5b175a7085a9e35037d1a9fe2fc69e8c0f88de9aca",
            "status": true,
            "timestamp": "2022-08-10T08:33:41Z",
            "transactionFee": "0.000539105474672424",
            "txnHash": "0x170a6a5f9c7a11c50ee83e5b175a7085a9e35037d1a9fe2fc69e8c0f88de9aca",
            "txnIndex": 57,
            "type": 2,
            "value": "0"
        },
        "fund_flow": [
            {
                "amount": "2,000",
                "from": "0x84b84a03f138a95e6132a040f29c5fa6102bea7c",
                "id": 1,
                "isERC1155": false,
                "isERC721": false,
                "isReverted": false,
                "order": 1,
                "to": "0xf16e9b0d03470827a95cdfd0cb8a8a3b46969b91",
                "token": "0xa0b86991c6218b36c1d19d4a2e9eb0ce3606eb48"
            }
        ],
        "token_infos": [
            {
                "address": "0xa0b86991c6218b36c1d19d4a2e9eb0ce3606eb48",
                "decimals": 6
            },
            {
                "address": "0xc02aaa39b223fe8d0a0e5c4f27ead9083c756cc2",
                "decimals": 18
            },
            {
                "address": "0xeeeeeeeeeeeeeeeeeeeeeeeeeeeeeeeeeeeeeeee",
                "decimals": 18
            }
        ]
    },
    "address_label": {
        "labels": [
            {
                "address": "0x0000000000000000000000000000000000000003",
                "label": "Precompiled"
            },
            {
                "address": "0x0000000000000000000000000000000000000004",
                "label": "Precompiled"
            },
            {
                "address": "0xeeeeeeeeeeeeeeeeeeeeeeeeeeeeeeeeeeeeeeee",
                "label": "Ether"
            },
            {
                "address": "0x84b84a03f138a95e6132a040f29c5fa6102bea7c",
                "label": "KUCOIN"
            },
            {
                "address": "0xa2327a938febf5fec13bacfb16ae10ecbc4cbdcf",
                "label": "FiatTokenV2_1"
            },
            {
                "address": "0xa0b86991c6218b36c1d19d4a2e9eb0ce3606eb48",
                "label": "Circle: USDC Token"
            },
            {
                "address": "0x0000000000000000000000000000000000000001",
                "label": "Precompiled"
            },
            {
                "address": "0xa152f8bb749c55e9943a3a0a3111d18ee2b3f94e",
                "label": "KuCoin 22"
            },
            {
                "address": "0xf16e9b0d03470827a95cdfd0cb8a8a3b46969b91",
                "label": "KuCoin 9"
            },
            {
                "address": "0x0000000000000000000000000000000000000002",
                "label": "Precompiled"
            }
        ]
    },
    "trace": {
        "accountLabels": null,
        "dataMap": {
            "-1": {
                "invocation": {
                    "address": "0xa152f8bb749c55e9943a3a0a3111d18ee2b3f94e",
                    "callData": "",
                    "decodedMethod": null,
                    "errorInfo": "",
                    "fromAddress": "",
                    "gasUsed": 0,
                    "id": -1,
                    "methodDecoded": false,
                    "operation": "",
                    "output": "",
                    "revert": false,
                    "revertMessage": "",
                    "selector": "",
                    "status": false,
                    "value": ""
                },
                "nodeType": 0
            },
            "0": {
                "invocation": {
                    "address": "0xa0b86991c6218b36c1d19d4a2e9eb0ce3606eb48",
                    "callData": "0x00000000000000000000000084b84a03f138a95e6132a040f29c5fa6102bea7c000000000000000000000000f16e9b0d03470827a95cdfd0cb8a8a3b46969b910000000000000000000000000000000000000000000000000000000077359400",
                    "decodedMethod": {
                        "callParams": [
                            {
                                "name": "from",
                                "type": "address",
                                "value": "0x84b84a03f138a95e6132a040f29c5fa6102bea7c"
                            },
                            {
                                "name": "to",
                                "type": "address",
                                "value": "0xf16e9b0d03470827a95cdfd0cb8a8a3b46969b91"
                            },
                            {
                                "decimalAvailable": true,
                                "name": "value",
                                "type": "uint256",
                                "value": "2,000,000,000"
                            }
                        ],
                        "constructorArguments": "",
                        "name": "transferFrom",
                        "returnParams": [
                            {
                                "name": "",
                                "type": "bool",
                                "value": true
                            }
                        ],
                        "signature": "transferFrom(address,address,uint256)"
                    },
                    "errorInfo": "",
                    "fromAddress": "0xa152f8bb749c55e9943a3a0a3111d18ee2b3f94e",
                    "gasUsed": 52056,
                    "id": 0,
                    "methodDecoded": true,
                    "operation": "CALL",
                    "output": "0x0000000000000000000000000000000000000000000000000000000000000001",
                    "revert": false,
                    "revertMessage": "",
                    "selector": "0x23b872dd",
                    "status": true,
                    "value": "0"
                },
                "nodeType": 0
            },
            "1": {
                "invocation": {
                    "address": "0xa2327a938febf5fec13bacfb16ae10ecbc4cbdcf",
                    "callData": "0x00000000000000000000000084b84a03f138a95e6132a040f29c5fa6102bea7c000000000000000000000000f16e9b0d03470827a95cdfd0cb8a8a3b46969b910000000000000000000000000000000000000000000000000000000077359400",
                    "decodedMethod": {
                        "callParams": [
                            {
                                "name": "from",
                                "type": "address",
                                "value": "0x84b84a03f138a95e6132a040f29c5fa6102bea7c"
                            },
                            {
                                "name": "to",
                                "type": "address",
                                "value": "0xf16e9b0d03470827a95cdfd0cb8a8a3b46969b91"
                            },
                            {
                                "decimalAvailable": true,
                                "name": "value",
                                "type": "uint256",
                                "value": "2,000,000,000"
                            }
                        ],
                        "constructorArguments": "",
                        "name": "transferFrom",
                        "returnParams": [
                            {
                                "name": "",
                                "type": "bool",
                                "value": true
                            }
                        ],
                        "signature": "transferFrom(address,address,uint256)"
                    },
                    "errorInfo": "",
                    "fromAddress": "0xa0b86991c6218b36c1d19d4a2e9eb0ce3606eb48",
                    "gasUsed": 27597,
                    "id": 1,
                    "methodDecoded": true,
                    "operation": "DELEGATECALL",
                    "output": "0x0000000000000000000000000000000000000000000000000000000000000001",
                    "revert": false,
                    "revertMessage": "",
                    "selector": "0x23b872dd",
                    "status": true,
                    "value": "0"
                },
                "nodeType": 0
            },
            "2": {
                "event": {
                    "contract": "0xa0b86991c6218b36c1d19d4a2e9eb0ce3606eb48",
                    "decodedLog": {
                        "name": "Transfer",
                        "params": [
                            {
                                "name": "from",
                                "type": "address",
                                "value": "0x84b84a03f138a95e6132a040f29c5fa6102bea7c"
                            },
                            {
                                "name": "to",
                                "type": "address",
                                "value": "0xf16e9b0d03470827a95cdfd0cb8a8a3b46969b91"
                            },
                            {
                                "decimalAvailable": true,
                                "name": "value",
                                "type": "uint256",
                                "value": "2,000,000,000"
                            }
                        ],
                        "signature": "Transfer(address,address,uint256)"
                    },
                    "id": 2,
                    "logData": "0x0000000000000000000000000000000000000000000000000000000077359400",
                    "logDecoded": true,
                    "operation": "EVENT",
                    "revert": false,
                    "status": true,
                    "topics": [
                        "0xddf252ad1be2c89b69c2b068fc378daa952ba7f163c4a11628f55a4df523b3ef",
                        "0x00000000000000000000000084b84a03f138a95e6132a040f29c5fa6102bea7c",
                        "0x000000000000000000000000f16e9b0d03470827a95cdfd0cb8a8a3b46969b91"
                    ]
                },
                "nodeType": 1
            }
        },
        "gasFlame": [
            {
                "children": [
                    {
                        "children": [
                            {
                                "children": [],
                                "depth": 0,
                                "name": "Initial Gas",
                                "value": 21964
                            },
                            {
                                "children": [
                                    {
                                        "children": [],
                                        "depth": 1,
                                        "name": "transferFrom",
                                        "value": 27597
                                    }
                                ],
                                "depth": 0,
                                "name": "Executed Gas",
                                "value": 34892
                            }
                        ],
                        "depth": -1,
                        "name": "Actual Gas Used",
                        "value": 52056
                    },
                    {
                        "children": [],
                        "depth": -1,
                        "name": "Refunded Gas",
                        "value": 4800
                    }
                ],
                "depth": -2,
                "name": "Total Gas",
                "value": 56856
            }
        ],
        "isConfirmed": true,
        "mainTrace": [
            {
                "children": [
                    {
                        "children": [
                            {
                                "children": [
                                    {
                                        "children": [],
                                        "depth": 2,
                                        "id": 2,
                                        "order": 2
                                    }
                                ],
                                "depth": 1,
                                "id": 1,
                                "order": 1
                            }
                        ],
                        "depth": 0,
                        "id": 0,
                        "order": 0
                    }
                ],
                "depth": -1,
                "id": -1,
                "order": -1
            }
        ],
        "mainTraceNodeCount": 3,
        "parentIdMap": {
            "0": -1,
            "1": 0,
            "2": 1
        },
        "tidyTrace": [
            {
                "children": [
                    {
                        "children": [
                            {
                                "children": [
                                    {
                                        "children": [],
                                        "depth": 2,
                                        "id": 2,
                                        "order": 2
                                    }
                                ],
                                "depth": 1,
                                "id": 1,
                                "order": 1
                            }
                        ],
                        "depth": 0,
                        "id": 0,
                        "order": 0
                    }
                ],
                "depth": -1,
                "id": -1,
                "order": -1
            }
        ],
        "tidyTraceNodeCount": 3
    },
    "state_change": {
        "stateChanges": [
            {
                "address": "0xa0b86991c6218b36c1d19d4a2e9eb0ce3606eb48",
                "erc": "ERC-20",
                "slots": [
                    {
                        "current": "0x0000000000000000000000000000000000000000000000000000000000000000",
                        "key": "0x38a1e95077bfd052db061eda48f25b67aea363b980a4e8ee9c111cb24d056ea2",
                        "prev": "0x0000000000000000000000000000000000000000000000000000000077359400"
                    },
                    {
                        "current": "0x00000000000000000000000000000000000000000000000000001f5417e86f75",
                        "key": "0xaad400adfd2516d7f0b7662797e7349eb95c50d932606e6a40515f82fb773180",
                        "prev": "0x00000000000000000000000000000000000000000000000000001f53a0b2db75"
                    },
                    {
                        "current": "0xfffffffffffffffffffffffffffffffffffffffffffffffffffffffe7734947f",
                        "key": "0x048e67291007bb287aa727f04b82be53703c2cdcd0c0e197ca8e940d7274f857",
                        "prev": "0xfffffffffffffffffffffffffffffffffffffffffffffffffffffffeee6a287f"
                    }
                ],
                "storageVariables": [
                    {
                        "name": "balances",
                        "type": "mapping(address => uint256)",
                        "value": {
                            "pairs": [
                                {
                                    "key": "0x84b84a03f138a95e6132a040f29c5fa6102bea7c",
                                    "value": {
                                        "current": "0",
                                        "prev": "2000000000",
                                        "typeTag": 1
                                    }
                                },
                                {
                                    "key": "0xf16e9b0d03470827a95cdfd0cb8a8a3b46969b91",
                                    "value": {
                                        "current": "34446038822773",
                                        "prev": "34444038822773",
                                        "typeTag": 1
                                    }
                                }
                            ],
                            "typeTag": 4
                        }
                    },
                    {
                        "name": "allowed",
                        "type": "mapping(address => mapping(address => uint256))",
                        "value": {
                            "pairs": [
                                {
                                    "key": "0x84b84a03f138a95e6132a040f29c5fa6102bea7c",
                                    "value": {
                                        "pairs": [
                                            {
                                                "key": "0xa152f8bb749c55e9943a3a0a3111d18ee2b3f94e",
                                                "value": {
                                                    "current": "115792089237316195423570985008687907853269984665640564039457584007906539639935",
                                                    "prev": "115792089237316195423570985008687907853269984665640564039457584007908539639935",
                                                    "typeTag": 1
                                                }
                                            }
                                        ],
                                        "typeTag": 4
                                    }
                                }
                            ],
                            "typeTag": 4
                        }
                    }
                ]
            }
        ]
    }
}