{
    "balance_change": {
        "balanceChanges": []
    },
    "profile": {
        "basic_info": {
            "baseFee": "",
            "blockNumber": 10626723,
            "callData": "0xc89e4361151bb69763792e1d5703b0a4b5826086b03887194414177de86fe4ce3399b5f14398131c8d51a807435d4ad812498472946cb51916f0bd08000000640b35da3d2f891ba64e6fc625a1ff2b1074c41f5559e4002143730200000019429e7cbc6e96993e7c5abb3ec4cb30aa8275618b2b000000ba100000625a3754423978a60c9317c58a424e3d4259a19d8c652fa0284f44113d0ff9aba70bd46fb4000001",
            "debugEnable": true,
            "errorInfo": "",
            "eventCount": 0,
            "feeRecipient": "0xeea5b82b61424df8020f5fedd81767f2d0d25bfb",
            "formatValue": "0",
            "gasLimit": 528020,
            "gasPrice": "103",
            "gasUsed": 120807,
            "intTxnCount": 14,
            "internalRevert": false,
            "internalRevertMessage": "",
            "isContractCreation": false,
            "isFlashloan": false,
            "maxFee": "",
            "nonce": 1999,
            "overwritedBlockNumber": -1,
            "priorityFee": "",
            "receiver": "0x52a03d5d2bb8a30585dfc59904c799b27a03a56e",
            "revertMessage": "",
            "sender": "0x505757ebdd7bd836657086dd3094ccbd0d7aa761",
            "simulationEnable": true,
            "sourceTxnHash": "0x17e79598ce64b2c91dc14099b332b22ee5fee6b1f23280422f382018b7c37489",
            "status": true,
            "timestamp": "2020-08-09T16:10:12Z",
            "transactionFee": "0.012443121",
            "txnHash": "0x17e79598ce64b2c91dc14099b332b22ee5fee6b1f23280422f382018b7c37489",
            "txnIndex": 45,
            "type": 0,
            "value": "0"
        },
        "fund_flow": [],
        "token_infos": [
            {
                "address": "0xc02aaa39b223fe8d0a0e5c4f27ead9083c756cc2",
                "decimals": 18
            },
            {
                "address": "0xeeeeeeeeeeeeeeeeeeeeeeeeeeeeeeeeeeeeeeee",
                "decimals": 18
            }
        ]
    },
    "address_label": {
        "labels": [
            {
                "address": "0xc02aaa39b223fe8d0a0e5c4f27ead9083c756cc2",
                "label": "Wrapped Ether (WETH)"
            },
            {
                "address": "0x9e7cbc6e96993e7c5abb3ec4cb30aa8275618b2b",
                "label": "Balancer: ETH/BAL 42/58 #2"
            },
            {
                "address": "0x0000000000000000000000000000000000000002",
                "label": "Precompiled"
            },
            {
                "address": "0x0000000000000000000000000000000000000003",
                "label": "Precompiled"
            },
            {
                "address": "0x0000000000000000000000000000000000000004",
                "label": "Precompiled"
            },
            {
                "address": "0xeeeeeeeeeeeeeeeeeeeeeeeeeeeeeeeeeeeeeeee",
                "label": "Ether"
            },
            {
                "address": "0xba100000625a3754423978a60c9317c58a424e3d",
                "label": "Balancer: BAL Token"
            },
            {
                "address": "0x59a19d8c652fa0284f44113d0ff9aba70bd46fb4",
                "label": "Balancer: BAL/ETH 80/20 #2"
            },
            {
                "address": "0x0000000000000000000000000000000000000001",
                "label": "Precompiled"
            }
        ]
    },
    "trace": {
        "accountLabels": null,
        "dataMap": {
            "-1": {
                "invocation": {
                    "address": "0x505757ebdd7bd836657086dd3094ccbd0d7aa761",
                    "callData": "",
                    "decodedMethod": null,
                    "errorInfo": "",
                    "fromAddress": "",
                    "gasUsed": 0,
                    "id": -1,
                    "methodDecoded": false,
                    "operation": "",
                    "output": "",
                    "revert": false,
                    "revertMessage": "",
                    "selector": "",
                    "status": false,
                    "value": ""
                },
                "nodeType": 0
            },
            "0": {
                "invocation": {
                    "address": "0x52a03d5d2bb8a30585dfc59904c799b27a03a56e",
                    "callData": "0x151bb69763792e1d5703b0a4b5826086b03887194414177de86fe4ce3399b5f14398131c8d51a807435d4ad812498472946cb51916f0bd08000000640b35da3d2f891ba64e6fc625a1ff2b1074c41f5559e4002143730200000019429e7cbc6e96993e7c5abb3ec4cb30aa8275618b2b000000ba100000625a3754423978a60c9317c58a424e3d4259a19d8c652fa0284f44113d0ff9aba70bd46fb4000001",
                    "decodedMethod": {
                        "callParams": [],
                        "constructorArguments": "",
                        "name": "delegate",
                        "returnParams": [],
                        "signature": "delegate()"
                    },
                    "errorInfo": "",
                    "fromAddress": "0x505757ebdd7bd836657086dd3094ccbd0d7aa761",
                    "gasUsed": 120807,
                    "id": 0,
                    "methodDecoded": true,
                    "operation": "CALL",
                    "output": "",
                    "revert": false,
                    "revertMessage": "",
                    "selector": "0xc89e4361",
                    "status": true,
                    "value": "0"
                },
                "nodeType": 0
            },
            "1": {
                "invocation": {
                    "address": "0x4414177de86fe4ce3399b5f14398131c8d51a807",
                    "callData": "0x000000000000000000000000000000000000000000000000946cb51916f0bd08",
                    "decodedMethod": null,
                    "errorInfo": "",
                    "fromAddress": "0x52a03d5d2bb8a30585dfc59904c799b27a03a56e",
                    "gasUsed": 1467,
                    "id": 1,
                    "methodDecoded": false,
                    "operation": "CALL",
                    "output": "0x000000000000000000000000000000000000000000000000000000000000000000000000000000000000000000000000000000000000000000000000000000400000000000000000000000000000000000000000000000000000000000000000",
                    "revert": false,
                    "revertMessage": "",
                    "selector": "0xb1d926ee",
                    "status": true,
                    "value": "0"
                },
                "nodeType": 0
            },
            "10": {
                "invocation": {
                    "address": "0x59a19d8c652fa0284f44113d0ff9aba70bd46fb4",
                    "callData": "0x000000000000000000000000ba100000625a3754423978a60c9317c58a424e3d",
                    "decodedMethod": {
                        "callParams": [
                            {
                                "name": "token",
                                "type": "address",
                                "value": "0xba100000625a3754423978a60c9317c58a424e3d"
                            }
                        ],
                        "constructorArguments": "",
                        "name": "getDenormalizedWeight",
                        "returnParams": [
                            {
                                "name": "",
                                "type": "uint256",
                                "value": "40,000,000,000,000,000,000"
                            }
                        ],
                        "signature": "getDenormalizedWeight(address)"
                    },
                    "errorInfo": "",
                    "fromAddress": "0x52a03d5d2bb8a30585dfc59904c799b27a03a56e",
                    "gasUsed": 2971,
                    "id": 10,
                    "methodDecoded": true,
                    "operation": "STATICCALL",
                    "output": "0x0000000000000000000000000000000000000000000000022b1c8c1227a00000",
                    "revert": false,
                    "revertMessage": "",
                    "selector": "0x948d8ce6",
                    "status": true,
                    "value": "0"
                },
                "nodeType": 0
            },
            "11": {
                "invocation": {
                    "address": "0x59a19d8c652fa0284f44113d0ff9aba70bd46fb4",
                    "callData": "0x000000000000000000000000c02aaa39b223fe8d0a0e5c4f27ead9083c756cc2",
                    "decodedMethod": {
                        "callParams": [
                            {
                                "name": "token",
                                "type": "address",
                                "value": "0xc02aaa39b223fe8d0a0e5c4f27ead9083c756cc2"
                            }
                        ],
                        "constructorArguments": "",
                        "name": "getBalance",
                        "returnParams": [
                            {
                                "name": "",
                                "type": "uint256",
                                "value": "22,466,789,175,068,685,274,417"
                            }
                        ],
                        "signature": "getBalance(address)"
                    },
                    "errorInfo": "",
                    "fromAddress": "0x52a03d5d2bb8a30585dfc59904c799b27a03a56e",
                    "gasUsed": 2991,
                    "id": 11,
                    "methodDecoded": true,
                    "operation": "STATICCALL",
                    "output": "0x0000000000000000000000000000000000000000000004c1ed553893085c8d31",
                    "revert": false,
                    "revertMessage": "",
                    "selector": "0xf8b2cb4f",
                    "status": true,
                    "value": "0"
                },
                "nodeType": 0
            },
            "12": {
                "invocation": {
                    "address": "0x59a19d8c652fa0284f44113d0ff9aba70bd46fb4",
                    "callData": "0x000000000000000000000000c02aaa39b223fe8d0a0e5c4f27ead9083c756cc2",
                    "decodedMethod": {
                        "callParams": [
                            {
                                "name": "token",
                                "type": "address",
                                "value": "0xc02aaa39b223fe8d0a0e5c4f27ead9083c756cc2"
                            }
                        ],
                        "constructorArguments": "",
                        "name": "getDenormalizedWeight",
                        "returnParams": [
                            {
                                "name": "",
                                "type": "uint256",
                                "value": "10,000,000,000,000,000,000"
                            }
                        ],
                        "signature": "getDenormalizedWeight(address)"
                    },
                    "errorInfo": "",
                    "fromAddress": "0x52a03d5d2bb8a30585dfc59904c799b27a03a56e",
                    "gasUsed": 2971,
                    "id": 12,
                    "methodDecoded": true,
                    "operation": "STATICCALL",
                    "output": "0x0000000000000000000000000000000000000000000000008ac7230489e80000",
                    "revert": false,
                    "revertMessage": "",
                    "selector": "0x948d8ce6",
                    "status": true,
                    "value": "0"
                },
                "nodeType": 0
            },
            "13": {
                "invocation": {
                    "address": "0x59a19d8c652fa0284f44113d0ff9aba70bd46fb4",
                    "callData": "0x",
                    "decodedMethod": {
                        "callParams": [],
                        "constructorArguments": "",
                        "name": "getSwapFee",
                        "returnParams": [
                            {
                                "name": "",
                                "type": "uint256",
                                "value": "1,500,000,000,000,000"
                            }
                        ],
                        "signature": "getSwapFee()"
                    },
                    "errorInfo": "",
                    "fromAddress": "0x52a03d5d2bb8a30585dfc59904c799b27a03a56e",
                    "gasUsed": 1976,
                    "id": 13,
                    "methodDecoded": true,
                    "operation": "STATICCALL",
                    "output": "0x0000000000000000000000000000000000000000000000000005543df729c000",
                    "revert": false,
                    "revertMessage": "",
                    "selector": "0xd4cadf68",
                    "status": true,
                    "value": "0"
                },
                "nodeType": 0
            },
            "14": {
                "invocation": {
                    "address": "0x59a19d8c652fa0284f44113d0ff9aba70bd46fb4",
                    "callData": "0x0000000000000000000000000000000000000000000127d5883a87e4b88a2bf70000000000000000000000000000000000000000000000022b1c8c1227a000000000000000000000000000000000000000000000000004c1ed553893085c8d310000000000000000000000000000000000000000000000008ac7230489e8000000000000000000000000000000000000000000000000001228acd34f2ff8dc460000000000000000000000000000000000000000000000000005543df729c000",
                    "decodedMethod": {
                        "callParams": [
                            {
                                "name": "tokenBalanceIn",
                                "type": "uint256",
                                "value": "1,397,037,085,241,999,698,308,087"
                            },
                            {
                                "name": "tokenWeightIn",
                                "type": "uint256",
                                "value": "40,000,000,000,000,000,000"
                            },
                            {
                                "name": "tokenBalanceOut",
                                "type": "uint256",
                                "value": "22,466,789,175,068,685,274,417"
                            },
                            {
                                "name": "tokenWeightOut",
                                "type": "uint256",
                                "value": "10,000,000,000,000,000,000"
                            },
                            {
                                "name": "tokenAmountIn",
                                "type": "uint256",
                                "value": "334,972,343,121,343,994,950"
                            },
                            {
                                "name": "swapFee",
                                "type": "uint256",
                                "value": "1,500,000,000,000,000"
                            }
                        ],
                        "constructorArguments": "",
                        "name": "calcOutGivenIn",
                        "returnParams": [
                            {
                                "name": "tokenAmountOut",
                                "type": "uint256",
                                "value": "21,502,561,241,073,788,671"
                            }
                        ],
                        "signature": "calcOutGivenIn(uint256,uint256,uint256,uint256,uint256,uint256)"
                    },
                    "errorInfo": "",
                    "fromAddress": "0x52a03d5d2bb8a30585dfc59904c799b27a03a56e",
                    "gasUsed": 3078,
                    "id": 14,
                    "methodDecoded": true,
                    "operation": "STATICCALL",
                    "output": "0x0000000000000000000000000000000000000000000000012a687185f74926ff",
                    "revert": false,
                    "revertMessage": "",
                    "selector": "0xba9530a6",
                    "status": true,
                    "value": "0"
                },
                "nodeType": 0
            },
            "2": {
                "invocation": {
                    "address": "0x151bb69763792e1d5703b0a4b5826086b0388719",
                    "callData": "0x640b35da3d2f891ba64e6fc625a1ff2b1074c41f5559e4002143730200000019429e7cbc6e96993e7c5abb3ec4cb30aa8275618b2b000000ba100000625a3754423978a60c9317c58a424e3d4259a19d8c652fa0284f44113d0ff9aba70bd46fb4000001",
                    "decodedMethod": null,
                    "errorInfo": "",
                    "fromAddress": "0x52a03d5d2bb8a30585dfc59904c799b27a03a56e",
                    "gasUsed": 68684,
                    "id": 2,
                    "methodDecoded": false,
                    "operation": "DELEGATECALL",
                    "output": "",
                    "revert": false,
                    "revertMessage": "",
                    "selector": "0x7c712387",
                    "status": true,
                    "value": "0"
                },
                "nodeType": 0
            },
            "3": {
                "invocation": {
                    "address": "0x9e7cbc6e96993e7c5abb3ec4cb30aa8275618b2b",
                    "callData": "0x000000000000000000000000c02aaa39b223fe8d0a0e5c4f27ead9083c756cc2",
                    "decodedMethod": {
                        "callParams": [
                            {
                                "name": "token",
                                "type": "address",
                                "value": "0xc02aaa39b223fe8d0a0e5c4f27ead9083c756cc2"
                            }
                        ],
                        "constructorArguments": "",
                        "name": "getBalance",
                        "returnParams": [
                            {
                                "name": "",
                                "type": "uint256",
                                "value": "3,908,143,262,776,737,070,392"
                            }
                        ],
                        "signature": "getBalance(address)"
                    },
                    "errorInfo": "",
                    "fromAddress": "0x52a03d5d2bb8a30585dfc59904c799b27a03a56e",
                    "gasUsed": 2991,
                    "id": 3,
                    "methodDecoded": true,
                    "operation": "STATICCALL",
                    "output": "0x0000000000000000000000000000000000000000000000d3dc620743d782fd38",
                    "revert": false,
                    "revertMessage": "",
                    "selector": "0xf8b2cb4f",
                    "status": true,
                    "value": "0"
                },
                "nodeType": 0
            },
            "4": {
                "invocation": {
                    "address": "0x9e7cbc6e96993e7c5abb3ec4cb30aa8275618b2b",
                    "callData": "0x000000000000000000000000c02aaa39b223fe8d0a0e5c4f27ead9083c756cc2",
                    "decodedMethod": {
                        "callParams": [
                            {
                                "name": "token",
                                "type": "address",
                                "value": "0xc02aaa39b223fe8d0a0e5c4f27ead9083c756cc2"
                            }
                        ],
                        "constructorArguments": "",
                        "name": "getDenormalizedWeight",
                        "returnParams": [
                            {
                                "name": "",
                                "type": "uint256",
                                "value": "21,000,000,000,000,000,000"
                            }
                        ],
                        "signature": "getDenormalizedWeight(address)"
                    },
                    "errorInfo": "",
                    "fromAddress": "0x52a03d5d2bb8a30585dfc59904c799b27a03a56e",
                    "gasUsed": 2971,
                    "id": 4,
                    "methodDecoded": true,
                    "operation": "STATICCALL",
                    "output": "0x000000000000000000000000000000000000000000000001236efcbcbb340000",
                    "revert": false,
                    "revertMessage": "",
                    "selector": "0x948d8ce6",
                    "status": true,
                    "value": "0"
                },
                "nodeType": 0
            },
            "5": {
                "invocation": {
                    "address": "0x9e7cbc6e96993e7c5abb3ec4cb30aa8275618b2b",
                    "callData": "0x000000000000000000000000ba100000625a3754423978a60c9317c58a424e3d",
                    "decodedMethod": {
                        "callParams": [
                            {
                                "name": "token",
                                "type": "address",
                                "value": "0xba100000625a3754423978a60c9317c58a424e3d"
                            }
                        ],
                        "constructorArguments": "",
                        "name": "getBalance",
                        "returnParams": [
                            {
                                "name": "",
                                "type": "uint256",
                                "value": "83,578,009,692,075,628,084,415"
                            }
                        ],
                        "signature": "getBalance(address)"
                    },
                    "errorInfo": "",
                    "fromAddress": "0x52a03d5d2bb8a30585dfc59904c799b27a03a56e",
                    "gasUsed": 2991,
                    "id": 5,
                    "methodDecoded": true,
                    "operation": "STATICCALL",
                    "output": "0x0000000000000000000000000000000000000000000011b2c5e247ab529abcbf",
                    "revert": false,
                    "revertMessage": "",
                    "selector": "0xf8b2cb4f",
                    "status": true,
                    "value": "0"
                },
                "nodeType": 0
            },
            "6": {
                "invocation": {
                    "address": "0x9e7cbc6e96993e7c5abb3ec4cb30aa8275618b2b",
                    "callData": "0x000000000000000000000000ba100000625a3754423978a60c9317c58a424e3d",
                    "decodedMethod": {
                        "callParams": [
                            {
                                "name": "token",
                                "type": "address",
                                "value": "0xba100000625a3754423978a60c9317c58a424e3d"
                            }
                        ],
                        "constructorArguments": "",
                        "name": "getDenormalizedWeight",
                        "returnParams": [
                            {
                                "name": "",
                                "type": "uint256",
                                "value": "29,000,000,000,000,000,000"
                            }
                        ],
                        "signature": "getDenormalizedWeight(address)"
                    },
                    "errorInfo": "",
                    "fromAddress": "0x52a03d5d2bb8a30585dfc59904c799b27a03a56e",
                    "gasUsed": 2971,
                    "id": 6,
                    "methodDecoded": true,
                    "operation": "STATICCALL",
                    "output": "0x0000000000000000000000000000000000000000000000019274b259f6540000",
                    "revert": false,
                    "revertMessage": "",
                    "selector": "0x948d8ce6",
                    "status": true,
                    "value": "0"
                },
                "nodeType": 0
            },
            "7": {
                "invocation": {
                    "address": "0x9e7cbc6e96993e7c5abb3ec4cb30aa8275618b2b",
                    "callData": "0x",
                    "decodedMethod": {
                        "callParams": [],
                        "constructorArguments": "",
                        "name": "getSwapFee",
                        "returnParams": [
                            {
                                "name": "",
                                "type": "uint256",
                                "value": "3,000,000,000,000,000"
                            }
                        ],
                        "signature": "getSwapFee()"
                    },
                    "errorInfo": "",
                    "fromAddress": "0x52a03d5d2bb8a30585dfc59904c799b27a03a56e",
                    "gasUsed": 1976,
                    "id": 7,
                    "methodDecoded": true,
                    "operation": "STATICCALL",
                    "output": "0x000000000000000000000000000000000000000000000000000aa87bee538000",
                    "revert": false,
                    "revertMessage": "",
                    "selector": "0xd4cadf68",
                    "status": true,
                    "value": "0"
                },
                "nodeType": 0
            },
            "8": {
                "invocation": {
                    "address": "0x9e7cbc6e96993e7c5abb3ec4cb30aa8275618b2b",
                    "callData": "0x0000000000000000000000000000000000000000000000d3dc620743d782fd38000000000000000000000000000000000000000000000001236efcbcbb3400000000000000000000000000000000000000000000000011b2c5e247ab529abcbf0000000000000000000000000000000000000000000000019274b259f65400000000000000000000000000000000000000000000000000012e878f39dd5de000000000000000000000000000000000000000000000000000000aa87bee538000",
                    "decodedMethod": {
                        "callParams": [
                            {
                                "name": "tokenBalanceIn",
                                "type": "uint256",
                                "value": "3,908,143,262,776,737,070,392"
                            },
                            {
                                "name": "tokenWeightIn",
                                "type": "uint256",
                                "value": "21,000,000,000,000,000,000"
                            },
                            {
                                "name": "tokenBalanceOut",
                                "type": "uint256",
                                "value": "83,578,009,692,075,628,084,415"
                            },
                            {
                                "name": "tokenWeightOut",
                                "type": "uint256",
                                "value": "29,000,000,000,000,000,000"
                            },
                            {
                                "name": "tokenAmountIn",
                                "type": "uint256",
                                "value": "21,799,550,000,000,000,000"
                            },
                            {
                                "name": "swapFee",
                                "type": "uint256",
                                "value": "3,000,000,000,000,000"
                            }
                        ],
                        "constructorArguments": "",
                        "name": "calcOutGivenIn",
                        "returnParams": [
                            {
                                "name": "tokenAmountOut",
                                "type": "uint256",
                                "value": "334,972,343,121,343,994,950"
                            }
                        ],
                        "signature": "calcOutGivenIn(uint256,uint256,uint256,uint256,uint256,uint256)"
                    },
                    "errorInfo": "",
                    "fromAddress": "0x52a03d5d2bb8a30585dfc59904c799b27a03a56e",
                    "gasUsed": 7731,
                    "id": 8,
                    "methodDecoded": true,
                    "operation": "STATICCALL",
                    "output": "0x00000000000000000000000000000000000000000000001228acd34f2ff8dc46",
                    "revert": false,
                    "revertMessage": "",
                    "selector": "0xba9530a6",
                    "status": true,
                    "value": "0"
                },
                "nodeType": 0
            },
            "9": {
                "invocation": {
                    "address": "0x59a19d8c652fa0284f44113d0ff9aba70bd46fb4",
                    "callData": "0x000000000000000000000000ba100000625a3754423978a60c9317c58a424e3d",
                    "decodedMethod": {
                        "callParams": [
                            {
                                "name": "token",
                                "type": "address",
                                "value": "0xba100000625a3754423978a60c9317c58a424e3d"
                            }
                        ],
                        "constructorArguments": "",
                        "name": "getBalance",
                        "returnParams": [
                            {
                                "name": "",
                                "type": "uint256",
                                "value": "1,397,037,085,241,999,698,308,087"
                            }
                        ],
                        "signature": "getBalance(address)"
                    },
                    "errorInfo": "",
                    "fromAddress": "0x52a03d5d2bb8a30585dfc59904c799b27a03a56e",
                    "gasUsed": 2991,
                    "id": 9,
                    "methodDecoded": true,
                    "operation": "STATICCALL",
                    "output": "0x0000000000000000000000000000000000000000000127d5883a87e4b88a2bf7",
                    "revert": false,
                    "revertMessage": "",
                    "selector": "0xf8b2cb4f",
                    "status": true,
                    "value": "0"
                },
                "nodeType": 0
            }
        },
        "gasFlame": [
            {
                "children": [
                    {
                        "children": [
                            {
                                "children": [],
                                "depth": 0,
                                "name": "Initial Gas",
                                "value": 23440
                            },
                            {
                                "children": [
                                    {
                                        "children": [],
                                        "depth": 1,
                                        "name": "0xb1d926ee",
                                        "value": 1467
                                    },
                                    {
                                        "children": [
                                            {
                                                "children": [],
                                                "depth": 2,
                                                "name": "getBalance",
                                                "value": 2991
                                            },
                                            {
                                                "children": [],
                                                "depth": 2,
                                                "name": "getDenormalizedWeight",
                                                "value": 2971
                                            },
                                            {
                                                "children": [],
                                                "depth": 2,
                                                "name": "getBalance",
                                                "value": 2991
                                            },
                                            {
                                                "children": [],
                                                "depth": 2,
                                                "name": "getDenormalizedWeight",
                                                "value": 2971
                                            },
                                            {
                                                "children": [],
                                                "depth": 2,
                                                "name": "getSwapFee",
                                                "value": 1976
                                            },
                                            {
                                                "children": [],
                                                "depth": 2,
                                                "name": "calcOutGivenIn",
                                                "value": 7731
                                            },
                                            {
                                                "children": [],
                                                "depth": 2,
                                                "name": "getBalance",
                                                "value": 2991
                                            },
                                            {
                                                "children": [],
                                                "depth": 2,
                                                "name": "getDenormalizedWeight",
                                                "value": 2971
                                            },
                                            {
                                                "children": [],
                                                "depth": 2,
                                                "name": "getBalance",
                                                "value": 2991
                                            },
                                            {
                                                "children": [],
                                                "depth": 2,
                                                "name": "getDenormalizedWeight",
                                                "value": 2971
                                            },
                                            {
                                                "children": [],
                                                "depth": 2,
                                                "name": "getSwapFee",
                                                "value": 1976
                                            },
                                            {
                                                "children": [],
                                                "depth": 2,
                                                "name": "calcOutGivenIn",
                                                "value": 3078
                                            }
                                        ],
                                        "depth": 1,
                                        "name": "0x7c712387",
                                        "value": 68684
                                    }
                                ],
                                "depth": 0,
                                "name": "Executed Gas",
                                "value": 97367
                            }
                        ],
                        "depth": -1,
                        "name": "Actual Gas Used",
                        "value": 120807
                    },
                    {
                        "children": [],
                        "depth": -1,
                        "name": "Refunded Gas",
                        "value": 0
                    }
                ],
                "depth": -2,
                "name": "Total Gas",
                "value": 120807
            }
        ],
        "isConfirmed": true,
        "mainTrace": [
            {
                "children": [
                    {
                        "children": [
                            {
                                "children": [],
                                "depth": 1,
                                "id": 1,
                                "order": 1
                            },
                            {
                                "children": [
                                    {
                                        "children": [],
                                        "depth": 2,
                                        "id": 3,
                                        "order": 3
                                    },
                                    {
                                        "children": [],
                                        "depth": 2,
                                        "id": 4,
                                        "order": 4
                                    },
                                    {
                                        "children": [],
                                        "depth": 2,
                                        "id": 5,
                                        "order": 5
                                    },
                                    {
                                        "children": [],
                                        "depth": 2,
                                        "id": 6,
                                        "order": 6
                                    },
                                    {
                                        "children": [],
                                        "depth": 2,
                                        "id": 7,
                                        "order": 7
                                    },
                                    {
                                        "children": [],
                                        "depth": 2,
                                        "id": 8,
                                        "order": 8
                                    },
                                    {
                                        "children": [],
                                        "depth": 2,
                                        "id": 9,
                                        "order": 9
                                    },
                                    {
                                        "children": [],
                                        "depth": 2,
                                        "id": 10,
                                        "order": 10
                                    },
                                    {
                                        "children": [],
                                        "depth": 2,
                                        "id": 11,
                                        "order": 11
                                    },
                                    {
                                        "children": [],
                                        "depth": 2,
                                        "id": 12,
                                        "order": 12
                                    },
                                    {
                                        "children": [],
                                        "depth": 2,
                                        "id": 13,
                                        "order": 13
                                    },
                                    {
                                        "children": [],
                                        "depth": 2,
                                        "id": 14,
                                        "order": 14
                                    }
                                ],
                                "depth": 1,
                                "id": 2,
                                "order": 2
                            }
                        ],
                        "depth": 0,
                        "id": 0,
                        "order": 0
                    }
                ],
                "depth": -1,
                "id": -1,
                "order": -1
            }
        ],
        "mainTraceNodeCount": 15,
        "parentIdMap": {
            "0": -1,
            "1": 0,
            "10": 2,
            "11": 2,
            "12": 2,
            "13": 2,
            "14": 2,
            "2": 0,
            "3": 2,
            "4": 2,
            "5": 2,
            "6": 2,
            "7": 2,
            "8": 2,
            "9": 2
        },
        "tidyTrace": [
            {
                "children": [
                    {
                        "children": [
                            {
                                "children": [],
                                "depth": 1,
                                "id": 1,
                                "order": 1
                            },
                            {
                                "children": [],
                                "depth": 1,
                                "id": 2,
                                "order": 2
                            }
                        ],
                        "depth": 0,
                        "id": 0,
                        "order": 0
                    }
                ],
                "depth": -1,
                "id": -1,
                "order": -1
            }
        ],
        "tidyTraceNodeCount": 3
    },
    "state_change": {
        "stateChanges": [
            {
                "address": "0x52a03d5d2bb8a30585dfc59904c799b27a03a56e",
                "erc": "",
                "slots": [
                    {
                        "current": "0x0000000000000000000000000000000000000000000000000000000000000001",
                        "key": "0xcb353db8df684a03aca499e2cf5fc40bb648f58016b53d1fc685feb56f635318",
                        "prev": "0x0000000000000000000000000000000000000000000000000000000000000000"
                    }
                ],
                "storageVariables": []
            }
        ]
    }
}