{
    "balance_change": {
        "balanceChanges": [
            {
                "account": "0xb295e76e37b5a6a32d6a2a2a43a0f4f460be8425",
                "assets": [
                    {
                        "address": "0x80fb784b7ed66730e8b1dbd9820afd29931aab03",
                        "amount": "10,000",
                        "iconUrl": "https://assets.blocksec.com/icon/ddc69b499accb9da3ffa510c064d60f104f491590811edee1b9eff5e3bbf6f56.png",
                        "isERC1155": false,
                        "isERC721": false,
                        "sign": false,
                        "value": "3818.251616"
                    }
                ]
            },
            {
                "account": "0x3f5ce5fbfe3e9af3971dd833d26ba9b5c936f0be",
                "assets": [
                    {
                        "address": "0x80fb784b7ed66730e8b1dbd9820afd29931aab03",
                        "amount": "10,000",
                        "iconUrl": "https://assets.blocksec.com/icon/ddc69b499accb9da3ffa510c064d60f104f491590811edee1b9eff5e3bbf6f56.png",
                        "isERC1155": false,
                        "isERC721": false,
                        "sign": true,
                        "value": "3818.251616"
                    }
                ]
            }
        ]
    },
    "profile": {
        "basic_info": {
            "baseFee": "",
            "blockNumber": 11132187,
            "callData": "0xa9059cbb0000000000000000000000003f5ce5fbfe3e9af3971dd833d26ba9b5c936f0be00000000000000000000000000000000000000000000021e19e0c9bab2400000",
            "debugEnable": true,
            "errorInfo": "",
            "eventCount": 1,
            "feeRecipient": "0x5a0b54d5dc17e0aadc383d2db43b0a0d3e029c4c",
            "formatValue": "0",
            "gasLimit": 80376,
            "gasPrice": "50",
            "gasUsed": 25188,
            "intTxnCount": 0,
            "internalRevert": false,
            "internalRevertMessage": "",
            "isContractCreation": false,
            "isFlashloan": false,
            "maxFee": "",
            "nonce": 23,
            "overwritedBlockNumber": -1,
            "priorityFee": "",
            "receiver": "0x80fb784b7ed66730e8b1dbd9820afd29931aab03",
            "revertMessage": "",
            "sender": "0xb295e76e37b5a6a32d6a2a2a43a0f4f460be8425",
            "simulationEnable": true,
            "sourceTxnHash": "0x17deb666986ccde438911e4c2bc2599ba46d18b443394436e372b61559c7f386",
            "status": true,
            "timestamp": "2020-10-26T13:03:10Z",
            "transactionFee": "0.0012594",
            "txnHash": "0x17deb666986ccde438911e4c2bc2599ba46d18b443394436e372b61559c7f386",
            "txnIndex": 130,
            "type": 0,
            "value": "0"
        },
        "fund_flow": [
            {
                "amount": "10,000",
                "from": "0xb295e76e37b5a6a32d6a2a2a43a0f4f460be8425",
                "id": 1,
                "isERC1155": false,
                "isERC721": false,
                "isReverted": false,
                "order": 1,
                "to": "0x3f5ce5fbfe3e9af3971dd833d26ba9b5c936f0be",
                "token": "0x80fb784b7ed66730e8b1dbd9820afd29931aab03"
            }
        ],
        "token_infos": [
            {
                "address": "0x80fb784b7ed66730e8b1dbd9820afd29931aab03",
                "decimals": 18
            },
            {
                "address": "0xc02aaa39b223fe8d0a0e5c4f27ead9083c756cc2",
                "decimals": 18
            },
            {
                "address": "0xeeeeeeeeeeeeeeeeeeeeeeeeeeeeeeeeeeeeeeee",
                "decimals": 18
            }
        ]
    },
    "address_label": {
        "labels": [
            {
                "address": "0x80fb784b7ed66730e8b1dbd9820afd29931aab03",
                "label": "Aave: LEND Token"
            },
            {
                "address": "0xb295e76e37b5a6a32d6a2a2a43a0f4f460be8425",
                "label": "BINANCE"
            },
            {
                "address": "0x3f5ce5fbfe3e9af3971dd833d26ba9b5c936f0be",
                "label": "Binance"
            },
            {
                "address": "0x0000000000000000000000000000000000000001",
                "label": "Precompiled"
            },
            {
                "address": "0x0000000000000000000000000000000000000002",
                "label": "Precompiled"
            },
            {
                "address": "0x0000000000000000000000000000000000000003",
                "label": "Precompiled"
            },
            {
                "address": "0x0000000000000000000000000000000000000004",
                "label": "Precompiled"
            },
            {
                "address": "0xeeeeeeeeeeeeeeeeeeeeeeeeeeeeeeeeeeeeeeee",
                "label": "Ether"
            }
        ]
    },
    "trace": {
        "accountLabels": null,
        "dataMap": {
            "-1": {
                "invocation": {
                    "address": "0xb295e76e37b5a6a32d6a2a2a43a0f4f460be8425",
                    "callData": "",
                    "decodedMethod": null,
                    "errorInfo": "",
                    "fromAddress": "",
                    "gasUsed": 0,
                    "id": -1,
                    "methodDecoded": false,
                    "operation": "",
                    "output": "",
                    "revert": false,
                    "revertMessage": "",
                    "selector": "",
                    "status": false,
                    "value": ""
                },
                "nodeType": 0
            },
            "0": {
                "invocation": {
                    "address": "0x80fb784b7ed66730e8b1dbd9820afd29931aab03",
                    "callData": "0x0000000000000000000000003f5ce5fbfe3e9af3971dd833d26ba9b5c936f0be00000000000000000000000000000000000000000000021e19e0c9bab2400000",
                    "decodedMethod": {
                        "callParams": [
                            {
                                "name": "_to",
                                "type": "address",
                                "value": "0x3f5ce5fbfe3e9af3971dd833d26ba9b5c936f0be"
                            },
                            {
                                "decimalAvailable": true,
                                "name": "_value",
                                "type": "uint256",
                                "value": "10,000,000,000,000,000,000,000"
                            }
                        ],
                        "constructorArguments": "",
                        "name": "transfer",
                        "returnParams": [
                            {
                                "name": "",
                                "type": "bool",
                                "value": true
                            }
                        ],
                        "signature": "transfer(address,uint256)"
                    },
                    "errorInfo": "",
                    "fromAddress": "0xb295e76e37b5a6a32d6a2a2a43a0f4f460be8425",
                    "gasUsed": 25188,
                    "id": 0,
                    "methodDecoded": true,
                    "operation": "CALL",
                    "output": "0x0000000000000000000000000000000000000000000000000000000000000001",
                    "revert": false,
                    "revertMessage": "",
                    "selector": "0xa9059cbb",
                    "status": true,
                    "value": "0"
                },
                "nodeType": 0
            },
            "1": {
                "event": {
                    "contract": "0x80fb784b7ed66730e8b1dbd9820afd29931aab03",
                    "decodedLog": {
                        "name": "Transfer",
                        "params": [
                            {
                                "name": "_from",
                                "type": "address",
                                "value": "0xb295e76e37b5a6a32d6a2a2a43a0f4f460be8425"
                            },
                            {
                                "name": "_to",
                                "type": "address",
                                "value": "0x3f5ce5fbfe3e9af3971dd833d26ba9b5c936f0be"
                            },
                            {
                                "decimalAvailable": true,
                                "name": "_value",
                                "type": "uint256",
                                "value": "10,000,000,000,000,000,000,000"
                            }
                        ],
                        "signature": "Transfer(address,address,uint256)"
                    },
                    "id": 1,
                    "logData": "0x00000000000000000000000000000000000000000000021e19e0c9bab2400000",
                    "logDecoded": true,
                    "operation": "EVENT",
                    "revert": false,
                    "status": true,
                    "topics": [
                        "0xddf252ad1be2c89b69c2b068fc378daa952ba7f163c4a11628f55a4df523b3ef",
                        "0x000000000000000000000000b295e76e37b5a6a32d6a2a2a43a0f4f460be8425",
                        "0x0000000000000000000000003f5ce5fbfe3e9af3971dd833d26ba9b5c936f0be"
                    ]
                },
                "nodeType": 1
            }
        },
        "gasFlame": [
            {
                "children": [
                    {
                        "children": [
                            {
                                "children": [],
                                "depth": 0,
                                "name": "Initial Gas",
                                "value": 21656
                            },
                            {
                                "children": [],
                                "depth": 0,
                                "name": "Executed Gas",
                                "value": 18532
                            }
                        ],
                        "depth": -1,
                        "name": "Actual Gas Used",
                        "value": 25188
                    },
                    {
                        "children": [],
                        "depth": -1,
                        "name": "Refunded Gas",
                        "value": 15000
                    }
                ],
                "depth": -2,
                "name": "Total Gas",
                "value": 40188
            }
        ],
        "isConfirmed": true,
        "mainTrace": [
            {
                "children": [
                    {
                        "children": [
                            {
                                "children": [],
                                "depth": 1,
                                "id": 1,
                                "order": 1
                            }
                        ],
                        "depth": 0,
                        "id": 0,
                        "order": 0
                    }
                ],
                "depth": -1,
                "id": -1,
                "order": -1
            }
        ],
        "mainTraceNodeCount": 2,
        "parentIdMap": {
            "0": -1,
            "1": 0
        },
        "tidyTrace": [
            {
                "children": [
                    {
                        "children": [
                            {
                                "children": [],
                                "depth": 1,
                                "id": 1,
                                "order": 1
                            }
                        ],
                        "depth": 0,
                        "id": 0,
                        "order": 0
                    }
                ],
                "depth": -1,
                "id": -1,
                "order": -1
            }
        ],
        "tidyTraceNodeCount": 2
    },
    "state_change": {
        "stateChanges": [
            {
                "address": "0x80fb784b7ed66730e8b1dbd9820afd29931aab03",
                "erc": "ERC-20",
                "slots": [
                    {
                        "current": "0x0000000000000000000000000000000000000000000000000000000000000000",
                        "key": "0x88939ad21e8331a388334b21942e8d032b3458280a9929d8a49579c3da27b7f7",
                        "prev": "0x00000000000000000000000000000000000000000000021e19e0c9bab2400000"
                    },
                    {
                        "current": "0x000000000000000000000000000000000000000000053c71fb6fcaff4dde7634",
                        "key": "0x94722b8224a09e66096a21233cb81502abc4895d374fc3f1bf153481ba2b210a",
                        "prev": "0x000000000000000000000000000000000000000000053a53e18f01449b9e7634"
                    }
                ],
                "storageVariables": [
                    {
                        "name": "balances",
                        "type": "mapping(address => uint256)",
                        "value": {
                            "pairs": [
                                {
                                    "key": "0x3f5ce5fbfe3e9af3971dd833d26ba9b5c936f0be",
                                    "value": {
                                        "current": "6330073687048677572376116",
                                        "prev": "6320073687048677572376116",
                                        "typeTag": 1
                                    }
                                },
                                {
                                    "key": "0xb295e76e37b5a6a32d6a2a2a43a0f4f460be8425",
                                    "value": {
                                        "current": "0",
                                        "prev": "10000000000000000000000",
                                        "typeTag": 1
                                    }
                                }
                            ],
                            "typeTag": 4
                        }
                    }
                ]
            }
        ]
    }
}