{
    "balance_change": {
        "balanceChanges": [
            {
                "account": "0x0cac3d1a887206e0f6169222c4504301a8b4b993",
                "assets": [
                    {
                        "address": "0xeeeeeeeeeeeeeeeeeeeeeeeeeeeeeeeeeeeeeeee",
                        "amount": "0.000000000000019463",
                        "iconUrl": "https://assets.blocksec.com/image/1663669189317-3.png",
                        "isERC1155": false,
                        "isERC721": false,
                        "sign": false,
                        "value": "0.000000000023126614223807998244"
                    }
                ]
            },
            {
                "account": "0x4cb18386e5d1f34dc6eea834bf3534a970a3f8e7",
                "assets": [
                    {
                        "address": "0xeeeeeeeeeeeeeeeeeeeeeeeeeeeeeeeeeeeeeeee",
                        "amount": "0.000000000000019463",
                        "iconUrl": "https://assets.blocksec.com/image/1663669189317-3.png",
                        "isERC1155": false,
                        "isERC721": false,
                        "sign": true,
                        "value": "0.000000000023126614223807998244"
                    }
                ]
            },
            {
                "account": "0x4585fe77225b41b697c938b018e2ac67ac5a20c0",
                "assets": [
                    {
                        "address": "0xc02aaa39b223fe8d0a0e5c4f27ead9083c756cc2",
                        "amount": "28.914378244939887469",
                        "iconUrl": "https://assets.blocksec.com/icon/f1cb2d02c471d545bbc7722daf3277fd852d98e63d118771af7047bd8256c516.png",
                        "isERC1155": false,
                        "isERC721": false,
                        "sign": false,
                        "value": "34357.07090776080123"
                    },
                    {
                        "address": "0x2260fac5e5542a773aa44fbcfedf7c193bc2c599",
                        "amount": "1.94975334",
                        "iconUrl": "https://assets.blocksec.com/icon/878f2983cb21c5816eb5879d9b6f7a3fe2eb6fce7560c367a0315527852a8a84.png",
                        "isERC1155": false,
                        "isERC721": false,
                        "sign": true,
                        "value": "40083.607109605040385"
                    }
                ]
            },
            {
                "account": "0x56178a0d5f301baf6cf3e1cd53d9863437345bf9",
                "assets": [
                    {
                        "address": "0xc02aaa39b223fe8d0a0e5c4f27ead9083c756cc2",
                        "amount": "28.914378244939887469",
                        "iconUrl": "https://assets.blocksec.com/icon/f1cb2d02c471d545bbc7722daf3277fd852d98e63d118771af7047bd8256c516.png",
                        "isERC1155": false,
                        "isERC721": false,
                        "sign": true,
                        "value": "34357.07090776080123"
                    },
                    {
                        "address": "0x2260fac5e5542a773aa44fbcfedf7c193bc2c599",
                        "amount": "1.94975334",
                        "iconUrl": "https://assets.blocksec.com/icon/878f2983cb21c5816eb5879d9b6f7a3fe2eb6fce7560c367a0315527852a8a84.png",
                        "isERC1155": false,
                        "isERC721": false,
                        "sign": false,
                        "value": "40083.607109605040385"
                    }
                ]
            }
        ]
    },
    "profile": {
        "basic_info": {
            "baseFee": "12.694659028",
            "blockNumber": 15179329,
            "callData": "0x1cff79cd000000000000000000000000511af2adf76e117201313777e9ff24b51db7801e000000000000000000000000000000000000000000000000000000000000004000000000000000000000000000000000000000000000000000000000000000e4fcaf671c000000000000000000000000000000000000000000000000000000000b9f16660000000000000000000000000000000000000000000000000017fbb798cc02bd000000000000000000000000000000000005dfd0c09c5a8de08013432f9c01800000000000000000000000000000000000000000000000000de0b6b3a76400000000000000000000000000000000000000000000000000000000000062d7ecf60000000000000000000000000000000000000000000000000000000000000000000000000000000000000000000000000005e089c6a3b82a915fdcd08e885dd300000000000000000000000000000000000000000000000000000000",
            "debugEnable": true,
            "errorInfo": "",
            "eventCount": 3,
            "feeRecipient": "0x7f101fe45e6649a6fb8f3f8b43ed03d353f2b90c",
            "formatValue": "0.000000000000019463",
            "gasLimit": 900000,
            "gasPrice": "15.109186123",
            "gasUsed": 116977,
            "intTxnCount": 8,
            "internalRevert": false,
            "internalRevertMessage": "",
            "isContractCreation": false,
            "isFlashloan": false,
            "maxFee": "19.668079895",
            "nonce": 81187,
            "overwritedBlockNumber": -1,
            "priorityFee": "2.414527095",
            "receiver": "0x4cb18386e5d1f34dc6eea834bf3534a970a3f8e7",
            "revertMessage": "",
            "sender": "0x0cac3d1a887206e0f6169222c4504301a8b4b993",
            "simulationEnable": true,
            "sourceTxnHash": "0x172b2d50a38bb3b9ab84607757fe7f685a3f045a68a5abec3058934b2a482666",
            "status": true,
            "timestamp": "2022-07-20T11:53:20Z",
            "transactionFee": "0.001767427265110171",
            "txnHash": "0x172b2d50a38bb3b9ab84607757fe7f685a3f045a68a5abec3058934b2a482666",
            "txnIndex": 17,
            "type": 2,
            "value": "19463"
        },
        "fund_flow": [
            {
                "amount": "0.000000000000019463",
                "from": "0x0cac3d1a887206e0f6169222c4504301a8b4b993",
                "id": 1,
                "isERC1155": false,
                "isERC721": false,
                "isReverted": false,
                "order": 1,
                "to": "0x4cb18386e5d1f34dc6eea834bf3534a970a3f8e7",
                "token": "0xeeeeeeeeeeeeeeeeeeeeeeeeeeeeeeeeeeeeeeee"
            },
            {
                "amount": "28.914378244939887469",
                "from": "0x4585fe77225b41b697c938b018e2ac67ac5a20c0",
                "id": 2,
                "isERC1155": false,
                "isERC721": false,
                "isReverted": false,
                "order": 2,
                "to": "0x56178a0d5f301baf6cf3e1cd53d9863437345bf9",
                "token": "0xc02aaa39b223fe8d0a0e5c4f27ead9083c756cc2"
            },
            {
                "amount": "1.94975334",
                "from": "0x56178a0d5f301baf6cf3e1cd53d9863437345bf9",
                "id": 3,
                "isERC1155": false,
                "isERC721": false,
                "isReverted": false,
                "order": 3,
                "to": "0x4585fe77225b41b697c938b018e2ac67ac5a20c0",
                "token": "0x2260fac5e5542a773aa44fbcfedf7c193bc2c599"
            }
        ],
        "token_infos": [
            {
                "address": "0x2260fac5e5542a773aa44fbcfedf7c193bc2c599",
                "decimals": 8
            },
            {
                "address": "0xc02aaa39b223fe8d0a0e5c4f27ead9083c756cc2",
                "decimals": 18
            },
            {
                "address": "0xeeeeeeeeeeeeeeeeeeeeeeeeeeeeeeeeeeeeeeee",
                "decimals": 18
            }
        ]
    },
    "address_label": {
        "labels": [
            {
                "address": "0xc02aaa39b223fe8d0a0e5c4f27ead9083c756cc2",
                "label": "Wrapped Ether (WETH)"
            },
            {
                "address": "0x4585fe77225b41b697c938b018e2ac67ac5a20c0",
                "label": "Uniswap V3: WBTC 2"
            },
            {
                "address": "0x2260fac5e5542a773aa44fbcfedf7c193bc2c599",
                "label": "Wrapped BTC: WBTC Token"
            },
            {
                "address": "0x0000000000000000000000000000000000000002",
                "label": "Precompiled"
            },
            {
                "address": "0xeeeeeeeeeeeeeeeeeeeeeeeeeeeeeeeeeeeeeeee",
                "label": "Ether"
            },
            {
                "address": "0x0000000000000000000000000000000000000001",
                "label": "Precompiled"
            },
            {
                "address": "0x0000000000000000000000000000000000000003",
                "label": "Precompiled"
            },
            {
                "address": "0x0000000000000000000000000000000000000004",
                "label": "Precompiled"
            },
            {
                "address": "0x4cb18386e5d1f34dc6eea834bf3534a970a3f8e7",
                "label": "MEV Bot: 0x4Cb...8e7"
            }
        ]
    },
    "trace": {
        "accountLabels": null,
        "dataMap": {
            "-1": {
                "invocation": {
                    "address": "0x0cac3d1a887206e0f6169222c4504301a8b4b993",
                    "callData": "",
                    "decodedMethod": null,
                    "errorInfo": "",
                    "fromAddress": "",
                    "gasUsed": 0,
                    "id": -1,
                    "methodDecoded": false,
                    "operation": "",
                    "output": "",
                    "revert": false,
                    "revertMessage": "",
                    "selector": "",
                    "status": false,
                    "value": ""
                },
                "nodeType": 0
            },
            "0": {
                "invocation": {
                    "address": "0x4cb18386e5d1f34dc6eea834bf3534a970a3f8e7",
                    "callData": "0x000000000000000000000000511af2adf76e117201313777e9ff24b51db7801e000000000000000000000000000000000000000000000000000000000000004000000000000000000000000000000000000000000000000000000000000000e4fcaf671c000000000000000000000000000000000000000000000000000000000b9f16660000000000000000000000000000000000000000000000000017fbb798cc02bd000000000000000000000000000000000005dfd0c09c5a8de08013432f9c01800000000000000000000000000000000000000000000000000de0b6b3a76400000000000000000000000000000000000000000000000000000000000062d7ecf60000000000000000000000000000000000000000000000000000000000000000000000000000000000000000000000000005e089c6a3b82a915fdcd08e885dd300000000000000000000000000000000000000000000000000000000",
                    "decodedMethod": {
                        "callParams": [
                            {
                                "name": "_target",
                                "type": "address",
                                "value": "0x511af2adf76e117201313777e9ff24b51db7801e"
                            },
                            {
                                "name": "_data",
                                "type": "bytes",
                                "value": "0xfcaf671c000000000000000000000000000000000000000000000000000000000b9f16660000000000000000000000000000000000000000000000000017fbb798cc02bd000000000000000000000000000000000005dfd0c09c5a8de08013432f9c01800000000000000000000000000000000000000000000000000de0b6b3a76400000000000000000000000000000000000000000000000000000000000062d7ecf60000000000000000000000000000000000000000000000000000000000000000000000000000000000000000000000000005e089c6a3b82a915fdcd08e885dd3"
                            }
                        ],
                        "constructorArguments": "",
                        "name": "execute",
                        "returnParams": [],
                        "signature": "execute(address,bytes)"
                    },
                    "errorInfo": "",
                    "fromAddress": "0x0cac3d1a887206e0f6169222c4504301a8b4b993",
                    "gasUsed": 116977,
                    "id": 0,
                    "methodDecoded": true,
                    "operation": "CALL",
                    "output": "",
                    "revert": false,
                    "revertMessage": "",
                    "selector": "0x1cff79cd",
                    "status": true,
                    "value": "0.000000000000019463"
                },
                "nodeType": 0
            },
            "1": {
                "invocation": {
                    "address": "0x511af2adf76e117201313777e9ff24b51db7801e",
                    "callData": "0x000000000000000000000000000000000000000000000000000000000b9f16660000000000000000000000000000000000000000000000000017fbb798cc02bd000000000000000000000000000000000005dfd0c09c5a8de08013432f9c01800000000000000000000000000000000000000000000000000de0b6b3a76400000000000000000000000000000000000000000000000000000000000062d7ecf60000000000000000000000000000000000000000000000000000000000000000000000000000000000000000000000000005e089c6a3b82a915fdcd08e885dd3",
                    "decodedMethod": null,
                    "errorInfo": "",
                    "fromAddress": "0x4cb18386e5d1f34dc6eea834bf3534a970a3f8e7",
                    "gasUsed": 87981,
                    "id": 1,
                    "methodDecoded": false,
                    "operation": "DELEGATECALL",
                    "output": "0x000000000000000000000000000000000000000000000000000000000b9f1666000000000000000000000000000000000000000000000000007208c9a88b1f22",
                    "revert": false,
                    "revertMessage": "",
                    "selector": "0xfcaf671c",
                    "status": true,
                    "value": "0.000000000000019463"
                },
                "nodeType": 0
            },
            "10": {
                "invocation": {
                    "address": "0x2260fac5e5542a773aa44fbcfedf7c193bc2c599",
                    "callData": "0x0000000000000000000000004585fe77225b41b697c938b018e2ac67ac5a20c0",
                    "decodedMethod": {
                        "callParams": [
                            {
                                "name": "_owner",
                                "type": "address",
                                "value": "0x4585fe77225b41b697c938b018e2ac67ac5a20c0"
                            }
                        ],
                        "constructorArguments": "",
                        "name": "balanceOf",
                        "returnParams": [
                            {
                                "decimalAvailable": true,
                                "name": "",
                                "type": "uint256",
                                "value": "253,505,466,241"
                            }
                        ],
                        "signature": "balanceOf(address)"
                    },
                    "errorInfo": "",
                    "fromAddress": "0x4585fe77225b41b697c938b018e2ac67ac5a20c0",
                    "gasUsed": 795,
                    "id": 10,
                    "methodDecoded": true,
                    "operation": "STATICCALL",
                    "output": "0x0000000000000000000000000000000000000000000000000000003b061a6f81",
                    "revert": false,
                    "revertMessage": "",
                    "selector": "0x70a08231",
                    "status": true,
                    "value": "0"
                },
                "nodeType": 0
            },
            "11": {
                "event": {
                    "contract": "0x4585fe77225b41b697c938b018e2ac67ac5a20c0",
                    "decodedLog": {
                        "name": "Swap",
                        "params": [
                            {
                                "name": "sender",
                                "type": "address",
                                "value": "0x4cb18386e5d1f34dc6eea834bf3534a970a3f8e7"
                            },
                            {
                                "name": "recipient",
                                "type": "address",
                                "value": "0x56178a0d5f301baf6cf3e1cd53d9863437345bf9"
                            },
                            {
                                "name": "amount0",
                                "type": "int256",
                                "value": "194,975,334"
                            },
                            {
                                "name": "amount1",
                                "type": "int256",
                                "value": "-28,914,378,244,939,887,469"
                            },
                            {
                                "name": "sqrtPriceX96",
                                "type": "uint160",
                                "value": "30,516,564,305,120,202,428,624,164,146,239,130"
                            },
                            {
                                "name": "liquidity",
                                "type": "uint128",
                                "value": "829,939,218,886,197,120"
                            },
                            {
                                "name": "tick",
                                "type": "int24",
                                "value": "257,241"
                            }
                        ],
                        "signature": "Swap(address,address,int256,int256,uint160,uint128,int24)"
                    },
                    "id": 11,
                    "logData": "0x000000000000000000000000000000000000000000000000000000000b9f1666fffffffffffffffffffffffffffffffffffffffffffffffe6ebb7e2e61134c93000000000000000000000000000000000005e0953152ec5612e14a8b66fdd69a0000000000000000000000000000000000000000000000000b84895286e07f80000000000000000000000000000000000000000000000000000000000003ecd9",
                    "logDecoded": true,
                    "operation": "EVENT",
                    "revert": false,
                    "status": true,
                    "topics": [
                        "0xc42079f94a6350d7e6235f29174924f928cc2ac818eb64fed8004e115fbcca67",
                        "0x0000000000000000000000004cb18386e5d1f34dc6eea834bf3534a970a3f8e7",
                        "0x00000000000000000000000056178a0d5f301baf6cf3e1cd53d9863437345bf9"
                    ]
                },
                "nodeType": 1
            },
            "2": {
                "invocation": {
                    "address": "0x4585fe77225b41b697c938b018e2ac67ac5a20c0",
                    "callData": "0x",
                    "decodedMethod": {
                        "callParams": [],
                        "constructorArguments": "",
                        "name": "slot0",
                        "returnParams": [
                            {
                                "name": "sqrtPriceX96",
                                "type": "uint160",
                                "value": "30,519,324,547,083,057,699,046,865,329,748,166"
                            },
                            {
                                "name": "tick",
                                "type": "int24",
                                "value": "257,243"
                            },
                            {
                                "name": "observationIndex",
                                "type": "uint16",
                                "value": "79"
                            },
                            {
                                "name": "observationCardinality",
                                "type": "uint16",
                                "value": "300"
                            },
                            {
                                "name": "observationCardinalityNext",
                                "type": "uint16",
                                "value": "300"
                            },
                            {
                                "name": "feeProtocol",
                                "type": "uint8",
                                "value": "0"
                            },
                            {
                                "name": "unlocked",
                                "type": "bool",
                                "value": true
                            }
                        ],
                        "signature": "slot0()"
                    },
                    "errorInfo": "",
                    "fromAddress": "0x4cb18386e5d1f34dc6eea834bf3534a970a3f8e7",
                    "gasUsed": 2696,
                    "id": 2,
                    "methodDecoded": true,
                    "operation": "CALL",
                    "output": "0x000000000000000000000000000000000005e0b808258f91bd98b67b6f7878c6000000000000000000000000000000000000000000000000000000000003ecdb000000000000000000000000000000000000000000000000000000000000004f000000000000000000000000000000000000000000000000000000000000012c000000000000000000000000000000000000000000000000000000000000012c00000000000000000000000000000000000000000000000000000000000000000000000000000000000000000000000000000000000000000000000000000001",
                    "revert": false,
                    "revertMessage": "",
                    "selector": "0x3850c7bd",
                    "status": true,
                    "value": "0"
                },
                "nodeType": 0
            },
            "3": {
                "invocation": {
                    "address": "0x4585fe77225b41b697c938b018e2ac67ac5a20c0",
                    "callData": "0x00000000000000000000000056178a0d5f301baf6cf3e1cd53d9863437345bf90000000000000000000000000000000000000000000000000000000000000001000000000000000000000000000000000000000000000000000000000b9f1666000000000000000000000000000000000005dfd0c09c5a8de08013432f9c018000000000000000000000000000000000000000000000000000000000000000a000000000000000000000000000000000000000000000000000000000000000600744f56fe9ae9a479baf94409863c4582218420dd05540f97874fcb312bd95a200000000000000000000000056178a0d5f301baf6cf3e1cd53d9863437345bf90000000000000000000000002260fac5e5542a773aa44fbcfedf7c193bc2c599",
                    "decodedMethod": {
                        "callParams": [
                            {
                                "name": "recipient",
                                "type": "address",
                                "value": "0x56178a0d5f301baf6cf3e1cd53d9863437345bf9"
                            },
                            {
                                "name": "zeroForOne",
                                "type": "bool",
                                "value": true
                            },
                            {
                                "name": "amountSpecified",
                                "type": "int256",
                                "value": "194,975,334"
                            },
                            {
                                "name": "sqrtPriceLimitX96",
                                "type": "uint160",
                                "value": "30,501,000,702,233,371,338,871,224,150,000,000"
                            },
                            {
                                "name": "data",
                                "type": "bytes",
                                "value": "0x0744f56fe9ae9a479baf94409863c4582218420dd05540f97874fcb312bd95a200000000000000000000000056178a0d5f301baf6cf3e1cd53d9863437345bf90000000000000000000000002260fac5e5542a773aa44fbcfedf7c193bc2c599"
                            }
                        ],
                        "constructorArguments": "",
                        "name": "swap",
                        "returnParams": [
                            {
                                "name": "amount0",
                                "type": "int256",
                                "value": "194,975,334"
                            },
                            {
                                "name": "amount1",
                                "type": "int256",
                                "value": "-28,914,378,244,939,887,469"
                            }
                        ],
                        "signature": "swap(address,bool,int256,uint160,bytes)"
                    },
                    "errorInfo": "",
                    "fromAddress": "0x4cb18386e5d1f34dc6eea834bf3534a970a3f8e7",
                    "gasUsed": 81392,
                    "id": 3,
                    "methodDecoded": true,
                    "operation": "CALL",
                    "output": "0x000000000000000000000000000000000000000000000000000000000b9f1666fffffffffffffffffffffffffffffffffffffffffffffffe6ebb7e2e61134c93",
                    "revert": false,
                    "revertMessage": "",
                    "selector": "0x128acb08",
                    "status": true,
                    "value": "0"
                },
                "nodeType": 0
            },
            "4": {
                "invocation": {
                    "address": "0xc02aaa39b223fe8d0a0e5c4f27ead9083c756cc2",
                    "callData": "0x00000000000000000000000056178a0d5f301baf6cf3e1cd53d9863437345bf9000000000000000000000000000000000000000000000001914481d19eecb36d",
                    "decodedMethod": {
                        "callParams": [
                            {
                                "name": "dst",
                                "type": "address",
                                "value": "0x56178a0d5f301baf6cf3e1cd53d9863437345bf9"
                            },
                            {
                                "decimalAvailable": true,
                                "name": "wad",
                                "type": "uint256",
                                "value": "28,914,378,244,939,887,469"
                            }
                        ],
                        "constructorArguments": "",
                        "name": "transfer",
                        "returnParams": [
                            {
                                "name": "",
                                "type": "bool",
                                "value": true
                            }
                        ],
                        "signature": "transfer(address,uint256)"
                    },
                    "errorInfo": "",
                    "fromAddress": "0x4585fe77225b41b697c938b018e2ac67ac5a20c0",
                    "gasUsed": 12862,
                    "id": 4,
                    "methodDecoded": true,
                    "operation": "CALL",
                    "output": "0x0000000000000000000000000000000000000000000000000000000000000001",
                    "revert": false,
                    "revertMessage": "",
                    "selector": "0xa9059cbb",
                    "status": true,
                    "value": "0"
                },
                "nodeType": 0
            },
            "5": {
                "event": {
                    "contract": "0xc02aaa39b223fe8d0a0e5c4f27ead9083c756cc2",
                    "decodedLog": {
                        "name": "Transfer",
                        "params": [
                            {
                                "name": "src",
                                "type": "address",
                                "value": "0x4585fe77225b41b697c938b018e2ac67ac5a20c0"
                            },
                            {
                                "name": "dst",
                                "type": "address",
                                "value": "0x56178a0d5f301baf6cf3e1cd53d9863437345bf9"
                            },
                            {
                                "decimalAvailable": true,
                                "name": "wad",
                                "type": "uint256",
                                "value": "28,914,378,244,939,887,469"
                            }
                        ],
                        "signature": "Transfer(address,address,uint256)"
                    },
                    "id": 5,
                    "logData": "0x000000000000000000000000000000000000000000000001914481d19eecb36d",
                    "logDecoded": true,
                    "operation": "EVENT",
                    "revert": false,
                    "status": true,
                    "topics": [
                        "0xddf252ad1be2c89b69c2b068fc378daa952ba7f163c4a11628f55a4df523b3ef",
                        "0x0000000000000000000000004585fe77225b41b697c938b018e2ac67ac5a20c0",
                        "0x00000000000000000000000056178a0d5f301baf6cf3e1cd53d9863437345bf9"
                    ]
                },
                "nodeType": 1
            },
            "6": {
                "invocation": {
                    "address": "0x2260fac5e5542a773aa44fbcfedf7c193bc2c599",
                    "callData": "0x0000000000000000000000004585fe77225b41b697c938b018e2ac67ac5a20c0",
                    "decodedMethod": {
                        "callParams": [
                            {
                                "name": "_owner",
                                "type": "address",
                                "value": "0x4585fe77225b41b697c938b018e2ac67ac5a20c0"
                            }
                        ],
                        "constructorArguments": "",
                        "name": "balanceOf",
                        "returnParams": [
                            {
                                "decimalAvailable": true,
                                "name": "",
                                "type": "uint256",
                                "value": "253,310,490,907"
                            }
                        ],
                        "signature": "balanceOf(address)"
                    },
                    "errorInfo": "",
                    "fromAddress": "0x4585fe77225b41b697c938b018e2ac67ac5a20c0",
                    "gasUsed": 2795,
                    "id": 6,
                    "methodDecoded": true,
                    "operation": "STATICCALL",
                    "output": "0x0000000000000000000000000000000000000000000000000000003afa7b591b",
                    "revert": false,
                    "revertMessage": "",
                    "selector": "0x70a08231",
                    "status": true,
                    "value": "0"
                },
                "nodeType": 0
            },
            "7": {
                "invocation": {
                    "address": "0x4cb18386e5d1f34dc6eea834bf3534a970a3f8e7",
                    "callData": "0x000000000000000000000000000000000000000000000000000000000b9f1666fffffffffffffffffffffffffffffffffffffffffffffffe6ebb7e2e61134c93000000000000000000000000000000000000000000000000000000000000006000000000000000000000000000000000000000000000000000000000000000600744f56fe9ae9a479baf94409863c4582218420dd05540f97874fcb312bd95a200000000000000000000000056178a0d5f301baf6cf3e1cd53d9863437345bf90000000000000000000000002260fac5e5542a773aa44fbcfedf7c193bc2c599",
                    "decodedMethod": {
                        "callParams": [
                            {
                                "name": "amount0Delta",
                                "type": "int256",
                                "value": "194,975,334"
                            },
                            {
                                "name": "amount1Delta",
                                "type": "int256",
                                "value": "-28,914,378,244,939,887,469"
                            },
                            {
                                "name": "data",
                                "type": "bytes",
                                "value": "0x0744f56fe9ae9a479baf94409863c4582218420dd05540f97874fcb312bd95a200000000000000000000000056178a0d5f301baf6cf3e1cd53d9863437345bf90000000000000000000000002260fac5e5542a773aa44fbcfedf7c193bc2c599"
                            }
                        ],
                        "constructorArguments": "",
                        "name": "uniswapV3SwapCallback",
                        "returnParams": [],
                        "signature": "uniswapV3SwapCallback(int256,int256,bytes)"
                    },
                    "errorInfo": "",
                    "fromAddress": "0x4585fe77225b41b697c938b018e2ac67ac5a20c0",
                    "gasUsed": 19917,
                    "id": 7,
                    "methodDecoded": true,
                    "operation": "CALL",
                    "output": "",
                    "revert": false,
                    "revertMessage": "",
                    "selector": "0xfa461e33",
                    "status": true,
                    "value": "0"
                },
                "nodeType": 0
            },
            "8": {
                "invocation": {
                    "address": "0x2260fac5e5542a773aa44fbcfedf7c193bc2c599",
                    "callData": "0x00000000000000000000000056178a0d5f301baf6cf3e1cd53d9863437345bf90000000000000000000000004585fe77225b41b697c938b018e2ac67ac5a20c0000000000000000000000000000000000000000000000000000000000b9f1666",
                    "decodedMethod": {
                        "callParams": [
                            {
                                "name": "_from",
                                "type": "address",
                                "value": "0x56178a0d5f301baf6cf3e1cd53d9863437345bf9"
                            },
                            {
                                "name": "_to",
                                "type": "address",
                                "value": "0x4585fe77225b41b697c938b018e2ac67ac5a20c0"
                            },
                            {
                                "decimalAvailable": true,
                                "name": "_value",
                                "type": "uint256",
                                "value": "194,975,334"
                            }
                        ],
                        "constructorArguments": "",
                        "name": "transferFrom",
                        "returnParams": [
                            {
                                "name": "",
                                "type": "bool",
                                "value": true
                            }
                        ],
                        "signature": "transferFrom(address,address,uint256)"
                    },
                    "errorInfo": "",
                    "fromAddress": "0x4cb18386e5d1f34dc6eea834bf3534a970a3f8e7",
                    "gasUsed": 19370,
                    "id": 8,
                    "methodDecoded": true,
                    "operation": "CALL",
                    "output": "0x0000000000000000000000000000000000000000000000000000000000000001",
                    "revert": false,
                    "revertMessage": "",
                    "selector": "0x23b872dd",
                    "status": true,
                    "value": "0"
                },
                "nodeType": 0
            },
            "9": {
                "event": {
                    "contract": "0x2260fac5e5542a773aa44fbcfedf7c193bc2c599",
                    "decodedLog": {
                        "name": "Transfer",
                        "params": [
                            {
                                "name": "from",
                                "type": "address",
                                "value": "0x56178a0d5f301baf6cf3e1cd53d9863437345bf9"
                            },
                            {
                                "name": "to",
                                "type": "address",
                                "value": "0x4585fe77225b41b697c938b018e2ac67ac5a20c0"
                            },
                            {
                                "decimalAvailable": true,
                                "name": "value",
                                "type": "uint256",
                                "value": "194,975,334"
                            }
                        ],
                        "signature": "Transfer(address,address,uint256)"
                    },
                    "id": 9,
                    "logData": "0x000000000000000000000000000000000000000000000000000000000b9f1666",
                    "logDecoded": true,
                    "operation": "EVENT",
                    "revert": false,
                    "status": true,
                    "topics": [
                        "0xddf252ad1be2c89b69c2b068fc378daa952ba7f163c4a11628f55a4df523b3ef",
                        "0x00000000000000000000000056178a0d5f301baf6cf3e1cd53d9863437345bf9",
                        "0x0000000000000000000000004585fe77225b41b697c938b018e2ac67ac5a20c0"
                    ]
                },
                "nodeType": 1
            }
        },
        "gasFlame": [
            {
                "children": [
                    {
                        "children": [
                            {
                                "children": [],
                                "depth": 0,
                                "name": "Initial Gas",
                                "value": 23396
                            },
                            {
                                "children": [
                                    {
                                        "children": [
                                            {
                                                "children": [],
                                                "depth": 2,
                                                "name": "slot0",
                                                "value": 2696
                                            },
                                            {
                                                "children": [
                                                    {
                                                        "children": [],
                                                        "depth": 3,
                                                        "name": "transfer",
                                                        "value": 12862
                                                    },
                                                    {
                                                        "children": [],
                                                        "depth": 3,
                                                        "name": "balanceOf",
                                                        "value": 2795
                                                    },
                                                    {
                                                        "children": [
                                                            {
                                                                "children": [],
                                                                "depth": 4,
                                                                "name": "transferFrom",
                                                                "value": 19370
                                                            }
                                                        ],
                                                        "depth": 3,
                                                        "name": "uniswapV3SwapCallback",
                                                        "value": 19917
                                                    },
                                                    {
                                                        "children": [],
                                                        "depth": 3,
                                                        "name": "balanceOf",
                                                        "value": 795
                                                    }
                                                ],
                                                "depth": 2,
                                                "name": "swap",
                                                "value": 81392
                                            }
                                        ],
                                        "depth": 1,
                                        "name": "0xfcaf671c",
                                        "value": 87981
                                    }
                                ],
                                "depth": 0,
                                "name": "Executed Gas",
                                "value": 93581
                            }
                        ],
                        "depth": -1,
                        "name": "Actual Gas Used",
                        "value": 116977
                    },
                    {
                        "children": [],
                        "depth": -1,
                        "name": "Refunded Gas",
                        "value": 0
                    }
                ],
                "depth": -2,
                "name": "Total Gas",
                "value": 116977
            }
        ],
        "isConfirmed": true,
        "mainTrace": [
            {
                "children": [
                    {
                        "children": [
                            {
                                "children": [
                                    {
                                        "children": [],
                                        "depth": 2,
                                        "id": 2,
                                        "order": 2
                                    },
                                    {
                                        "children": [
                                            {
                                                "children": [
                                                    {
                                                        "children": [],
                                                        "depth": 4,
                                                        "id": 5,
                                                        "order": 5
                                                    }
                                                ],
                                                "depth": 3,
                                                "id": 4,
                                                "order": 4
                                            },
                                            {
                                                "children": [],
                                                "depth": 3,
                                                "id": 6,
                                                "order": 6
                                            },
                                            {
                                                "children": [
                                                    {
                                                        "children": [
                                                            {
                                                                "children": [],
                                                                "depth": 5,
                                                                "id": 9,
                                                                "order": 9
                                                            }
                                                        ],
                                                        "depth": 4,
                                                        "id": 8,
                                                        "order": 8
                                                    }
                                                ],
                                                "depth": 3,
                                                "id": 7,
                                                "order": 7
                                            },
                                            {
                                                "children": [],
                                                "depth": 3,
                                                "id": 10,
                                                "order": 10
                                            },
                                            {
                                                "children": [],
                                                "depth": 3,
                                                "id": 11,
                                                "order": 11
                                            }
                                        ],
                                        "depth": 2,
                                        "id": 3,
                                        "order": 3
                                    }
                                ],
                                "depth": 1,
                                "id": 1,
                                "order": 1
                            }
                        ],
                        "depth": 0,
                        "id": 0,
                        "order": 0
                    }
                ],
                "depth": -1,
                "id": -1,
                "order": -1
            }
        ],
        "mainTraceNodeCount": 12,
        "parentIdMap": {
            "0": -1,
            "1": 0,
            "10": 3,
            "11": 3,
            "2": 1,
            "3": 1,
            "4": 3,
            "5": 4,
            "6": 3,
            "7": 3,
            "8": 7,
            "9": 8
        },
        "tidyTrace": [
            {
                "children": [
                    {
                        "children": [
                            {
                                "children": [
                                    {
                                        "children": [],
                                        "depth": 2,
                                        "id": 2,
                                        "order": 2
                                    },
                                    {
                                        "children": [
                                            {
                                                "children": [
                                                    {
                                                        "children": [],
                                                        "depth": 4,
                                                        "id": 5,
                                                        "order": 5
                                                    }
                                                ],
                                                "depth": 3,
                                                "id": 4,
                                                "order": 4
                                            },
                                            {
                                                "children": [
                                                    {
                                                        "children": [
                                                            {
                                                                "children": [],
                                                                "depth": 5,
                                                                "id": 9,
                                                                "order": 9
                                                            }
                                                        ],
                                                        "depth": 4,
                                                        "id": 8,
                                                        "order": 8
                                                    }
                                                ],
                                                "depth": 3,
                                                "id": 7,
                                                "order": 7
                                            },
                                            {
                                                "children": [],
                                                "depth": 3,
                                                "id": 11,
                                                "order": 11
                                            }
                                        ],
                                        "depth": 2,
                                        "id": 3,
                                        "order": 3
                                    }
                                ],
                                "depth": 1,
                                "id": 1,
                                "order": 1
                            }
                        ],
                        "depth": 0,
                        "id": 0,
                        "order": 0
                    }
                ],
                "depth": -1,
                "id": -1,
                "order": -1
            }
        ],
        "tidyTraceNodeCount": 10
    },
    "state_change": {
        "stateChanges": [
            {
                "address": "0x2260fac5e5542a773aa44fbcfedf7c193bc2c599",
                "erc": "ERC-20",
                "slots": [
                    {
                        "current": "0x00000000000000000000000000000000000000000000000000000007e2fef690",
                        "key": "0xf7c84b5d1f3a0563cd20b346c00dcaaaf749870e80d340ce8dc6213863709a60",
                        "prev": "0x00000000000000000000000000000000000000000000000000000007ee9e0cf6"
                    },
                    {
                        "current": "0x0000000000000000000000000000000000000000000000000000003b061a6f81",
                        "key": "0xdc276a4f120117ad5ae6415d1c724b4f3a0e81f0ee6466e1392ca121b63123f2",
                        "prev": "0x0000000000000000000000000000000000000000000000000000003afa7b591b"
                    },
                    {
                        "current": "0xfffffffffffffffffffffffffffffffffffffffffffffffffffff46b307af306",
                        "key": "0xbc735bfaef2d58def3846176b7137461065e6f85302ee7243f58b78a0bf76070",
                        "prev": "0xfffffffffffffffffffffffffffffffffffffffffffffffffffff46b3c1a096c"
                    }
                ],
                "storageVariables": [
                    {
                        "name": "allowed",
                        "type": "mapping(address => mapping(address => uint256))",
                        "value": {
                            "pairs": [
                                {
                                    "key": "0x56178a0d5f301baf6cf3e1cd53d9863437345bf9",
                                    "value": {
                                        "pairs": [
                                            {
                                                "key": "0x4cb18386e5d1f34dc6eea834bf3534a970a3f8e7",
                                                "value": {
                                                    "current": "115792089237316195423570985008687907853269984665640564039457583995179364971270",
                                                    "prev": "115792089237316195423570985008687907853269984665640564039457583995179559946604",
                                                    "typeTag": 1
                                                }
                                            }
                                        ],
                                        "typeTag": 4
                                    }
                                }
                            ],
                            "typeTag": 4
                        }
                    },
                    {
                        "name": "balances",
                        "type": "mapping(address => uint256)",
                        "value": {
                            "pairs": [
                                {
                                    "key": "0x4585fe77225b41b697c938b018e2ac67ac5a20c0",
                                    "value": {
                                        "current": "253505466241",
                                        "prev": "253310490907",
                                        "typeTag": 1
                                    }
                                },
                                {
                                    "key": "0x56178a0d5f301baf6cf3e1cd53d9863437345bf9",
                                    "value": {
                                        "current": "33873131152",
                                        "prev": "34068106486",
                                        "typeTag": 1
                                    }
                                }
                            ],
                            "typeTag": 4
                        }
                    }
                ]
            },
            {
                "address": "0x4585fe77225b41b697c938b018e2ac67ac5a20c0",
                "erc": "",
                "slots": [
                    {
                        "current": "0x010000000000000bf8bc83abfeeedd901a6ef550f50008e6eeed6ad462d7ecb0",
                        "key": "0x0000000000000000000000000000000000000000000000000000000000000058",
                        "prev": "0x010000000000000bf8bc7b17e0ba14779761a80deb0008e58e4f776962d792e9"
                    },
                    {
                        "current": "0x00000000000000000000000000000000000001032ec590e8c7e52f59db495044",
                        "key": "0x0000000000000000000000000000000000000000000000000000000000000001",
                        "prev": "0x00000000000000000000000000000000000001032ea480bbffde4fcfe4c86c81"
                    },
                    {
                        "current": "0x000100012c012c005003ecd9000000000005e0953152ec5612e14a8b66fdd69a",
                        "key": "0x0000000000000000000000000000000000000000000000000000000000000000",
                        "prev": "0x000100012c012c004f03ecdb000000000005e0b808258f91bd98b67b6f7878c6"
                    }
                ],
                "storageVariables": []
            },
            {
                "address": "0xc02aaa39b223fe8d0a0e5c4f27ead9083c756cc2",
                "erc": "ERC-20",
                "slots": [
                    {
                        "current": "0x0000000000000000000000000000000000000000000004aa4054cb96f987ea7b",
                        "key": "0x9ede93be0d8fc6a5eb9cf1c7345a85b7519d8487a727aef0c2f00ab966aa7716",
                        "prev": "0x0000000000000000000000000000000000000000000004abd1994d6898749de8"
                    },
                    {
                        "current": "0x0000000000000000000000000000000000000000000004cd64c51eaed63c9e16",
                        "key": "0x30bd84b96629f958113934633d3bd1b64c3d259a85c57ceac65da8c5ec9bf3a7",
                        "prev": "0x0000000000000000000000000000000000000000000004cbd3809cdd374feaa9"
                    }
                ],
                "storageVariables": [
                    {
                        "name": "balanceOf",
                        "type": "mapping(address => uint256)",
                        "value": {
                            "pairs": [
                                {
                                    "key": "0x4585fe77225b41b697c938b018e2ac67ac5a20c0",
                                    "value": {
                                        "current": "22030047977774967679611",
                                        "prev": "22058962356019907567080",
                                        "typeTag": 1
                                    }
                                },
                                {
                                    "key": "0x56178a0d5f301baf6cf3e1cd53d9863437345bf9",
                                    "value": {
                                        "current": "22678309710299511168534",
                                        "prev": "22649395332054571281065",
                                        "typeTag": 1
                                    }
                                }
                            ],
                            "typeTag": 4
                        }
                    }
                ]
            }
        ]
    }
}