{
    "balance_change": {
        "balanceChanges": []
    },
    "profile": {
        "basic_info": {
            "baseFee": "16.318185902",
            "blockNumber": 17579729,
            "callData": "0x095ea7b300000000000000000000000099a58482bd75cbab83b27ec03ca68ff489b5788f0000000000000000000000000000000000000000000000005d24ec0bbb126f15",
            "debugEnable": true,
            "errorInfo": "out of gas",
            "eventCount": 0,
            "feeRecipient": "0x690b9a9e9aa1c9db991c7721a92d351db4fac990",
            "formatValue": "0",
            "gasLimit": 29112,
            "gasPrice": "17.318185902",
            "gasUsed": 29112,
            "intTxnCount": 0,
            "internalRevert": false,
            "internalRevertMessage": "",
            "isContractCreation": false,
            "isFlashloan": false,
            "maxFee": "34.409862588",
            "nonce": 1975,
            "overwritedBlockNumber": -1,
            "priorityFee": "1",
            "receiver": "0xc55126051b22ebb829d00368f4b12bde432de5da",
            "revertMessage": "",
            "sender": "0x1c421133f00269e3c626eab1619e06cd4758d8ba",
            "simulationEnable": true,
            "sourceTxnHash": "0x18447fc6a09b836fafd32a44679958b67a1dd32b21cb5e70adedfa538174e0c9",
            "status": false,
            "timestamp": "2023-06-28T18:53:59Z",
            "transactionFee": "0.000504167027979024",
            "txnHash": "0x18447fc6a09b836fafd32a44679958b67a1dd32b21cb5e70adedfa538174e0c9",
            "txnIndex": 75,
            "type": 2,
            "value": "0"
        },
        "fund_flow": [],
        "token_infos": [
            {
                "address": "0xc02aaa39b223fe8d0a0e5c4f27ead9083c756cc2",
                "decimals": 18
            },
            {
                "address": "0xeeeeeeeeeeeeeeeeeeeeeeeeeeeeeeeeeeeeeeee",
                "decimals": 18
            }
        ]
    },
    "address_label": {
        "labels": [
            {
                "address": "0x0000000000000000000000000000000000000001",
                "label": "Precompiled"
            },
            {
                "address": "0x0000000000000000000000000000000000000002",
                "label": "Precompiled"
            },
            {
                "address": "0x0000000000000000000000000000000000000003",
                "label": "Precompiled"
            },
            {
                "address": "0x0000000000000000000000000000000000000004",
                "label": "Precompiled"
            },
            {
                "address": "0xeeeeeeeeeeeeeeeeeeeeeeeeeeeeeeeeeeeeeeee",
                "label": "Ether"
            },
            {
                "address": "0x99a58482bd75cbab83b27ec03ca68ff489b5788f",
                "label": "Curve.fi: Swap Router"
            },
            {
                "address": "0xc55126051b22ebb829d00368f4b12bde432de5da",
                "label": "Redacted Cartel: BTRFLY V2 Token"
            }
        ]
    },
    "trace": {
        "accountLabels": null,
        "dataMap": {
            "-1": {
                "invocation": {
                    "address": "0x1c421133f00269e3c626eab1619e06cd4758d8ba",
                    "callData": "",
                    "decodedMethod": null,
                    "errorInfo": "",
                    "fromAddress": "",
                    "gasUsed": 0,
                    "id": -1,
                    "methodDecoded": false,
                    "operation": "",
                    "output": "",
                    "revert": false,
                    "revertMessage": "",
                    "selector": "",
                    "status": false,
                    "value": ""
                },
                "nodeType": 0
            },
            "0": {
                "invocation": {
                    "address": "0xc55126051b22ebb829d00368f4b12bde432de5da",
                    "callData": "0x00000000000000000000000099a58482bd75cbab83b27ec03ca68ff489b5788f0000000000000000000000000000000000000000000000005d24ec0bbb126f15",
                    "decodedMethod": {
                        "callParams": [
                            {
                                "name": "spender",
                                "type": "address",
                                "value": "0x99a58482bd75cbab83b27ec03ca68ff489b5788f"
                            },
                            {
                                "decimalAvailable": true,
                                "name": "amount",
                                "type": "uint256",
                                "value": "6,711,748,879,816,224,533"
                            }
                        ],
                        "constructorArguments": "",
                        "name": "approve",
                        "returnParams": [],
                        "signature": "approve(address,uint256)"
                    },
                    "errorInfo": "out of gas",
                    "fromAddress": "0x1c421133f00269e3c626eab1619e06cd4758d8ba",
                    "gasUsed": 29112,
                    "id": 0,
                    "methodDecoded": true,
                    "operation": "CALL",
                    "output": "",
                    "revert": true,
                    "revertMessage": "",
                    "selector": "0x095ea7b3",
                    "status": false,
                    "value": "0"
                },
                "nodeType": 0
            }
        },
        "gasFlame": [
            {
                "children": [
                    {
                        "children": [
                            {
                                "children": [],
                                "depth": 0,
                                "name": "Initial Gas",
                                "value": 21656
                            },
                            {
                                "children": [],
                                "depth": 0,
                                "name": "Executed Gas",
                                "value": 7456
                            }
                        ],
                        "depth": -1,
                        "name": "Actual Gas Used",
                        "value": 29112
                    },
                    {
                        "children": [],
                        "depth": -1,
                        "name": "Refunded Gas",
                        "value": 0
                    }
                ],
                "depth": -2,
                "name": "Total Gas",
                "value": 29112
            }
        ],
        "isConfirmed": true,
        "mainTrace": [
            {
                "children": [
                    {
                        "children": [],
                        "depth": 0,
                        "id": 0,
                        "order": 0
                    }
                ],
                "depth": -1,
                "id": -1,
                "order": -1
            }
        ],
        "mainTraceNodeCount": 1,
        "parentIdMap": {
            "0": -1
        },
        "tidyTrace": [
            {
                "children": [
                    {
                        "children": [],
                        "depth": 0,
                        "id": 0,
                        "order": 0
                    }
                ],
                "depth": -1,
                "id": -1,
                "order": -1
            }
        ],
        "tidyTraceNodeCount": 1
    },
    "state_change": {
        "stateChanges": []
    }
}