{
    "balance_change": {
        "balanceChanges": [
            {
                "account": "0x9746ea9372edc0cf090007db9d53f18be0a38ecb",
                "assets": [
                    {
                        "address": "0x233d32d4d33ed5f2d6b8544137c8836249de372f",
                        "amount": "4.471514436",
                        "iconUrl": "",
                        "isERC1155": false,
                        "isERC721": false,
                        "sign": true,
                        "value": "12.46377858"
                    },
                    {
                        "address": "0x5282ec643c3790e0f781508162a4aa13fd09c528",
                        "amount": "4.471514436",
                        "iconUrl": "",
                        "isERC1155": false,
                        "isERC721": false,
                        "sign": true,
                        "value": "1362.677318"
                    },
                    {
                        "address": "0xb60acd2057067dc9ed8c083f5aa227a244044fd6",
                        "amount": "4.267161481",
                        "iconUrl": "",
                        "isERC1155": false,
                        "isERC721": false,
                        "sign": false,
                        "value": "1374.11284"
                    }
                ]
            },
            {
                "account": "0x0000000000000000000000000000000000000000",
                "assets": [
                    {
                        "address": "0x60ccefd60ba522f9221f122bb80a1e8cbab9285f",
                        "amount": "4.267161481",
                        "iconUrl": "",
                        "isERC1155": false,
                        "isERC721": false,
                        "sign": false,
                        "value": "1374.11284"
                    },
                    {
                        "address": "0x233d32d4d33ed5f2d6b8544137c8836249de372f",
                        "amount": "4.471514436",
                        "iconUrl": "",
                        "isERC1155": false,
                        "isERC721": false,
                        "sign": false,
                        "value": "12.46377858"
                    },
                    {
                        "address": "0x5282ec643c3790e0f781508162a4aa13fd09c528",
                        "amount": "4.471514436",
                        "iconUrl": "",
                        "isERC1155": false,
                        "isERC721": false,
                        "sign": false,
                        "value": "1362.677318"
                    }
                ]
            },
            {
                "account": "0x233d32d4d33ed5f2d6b8544137c8836249de372f",
                "assets": [
                    {
                        "address": "0x60ccefd60ba522f9221f122bb80a1e8cbab9285f",
                        "amount": "4.267161481",
                        "iconUrl": "",
                        "isERC1155": false,
                        "isERC721": false,
                        "sign": true,
                        "value": "1374.11284"
                    }
                ]
            },
            {
                "account": "0x60ccefd60ba522f9221f122bb80a1e8cbab9285f",
                "assets": [
                    {
                        "address": "0xb60acd2057067dc9ed8c083f5aa227a244044fd6",
                        "amount": "4.267161481",
                        "iconUrl": "",
                        "isERC1155": false,
                        "isERC721": false,
                        "sign": true,
                        "value": "1374.11284"
                    }
                ]
            }
        ]
    },
    "profile": {
        "basic_info": {
            "baseFee": "9.324369752",
            "blockNumber": 20073403,
            "callData": "0xd0f423850000000000000000000000009746ea9372edc0cf090007db9d53f18be0a38ecb000000000000000000000000233d32d4d33ed5f2d6b8544137c8836249de372f000000000000000000000000000000000000000000000000000000010930beff0000000000000000000000000000000000000000000000000000000000000080000000000000000000000000b60acd2057067dc9ed8c083f5aa227a244044fd600000000000000000000000000000000000000000000000000000000fe57b789000000000000000000000000b60acd2057067dc9ed8c083f5aa227a244044fd6000000000000000000000000000000000000000000000000000000000000000000000000000000000000000000000000000000000000000000000000000000a000000000000000000000000000000000000000000000000000000000000000000000000000000000000000000000000000000000000000000000000000000000000000000000000000000000000000000000000000000000000000000000008000000000000000000000000000000000000000000000000000000000000000000000000000000000000000000000000000000000000000000000000000000000",
            "debugEnable": true,
            "errorInfo": "",
            "eventCount": 9,
            "feeRecipient": "0x4838b106fce9647bdf1e7877bf73ce8b0bad5f97",
            "formatValue": "0",
            "gasLimit": 346120,
            "gasPrice": "9.424369752",
            "gasUsed": 210475,
            "intTxnCount": 24,
            "internalRevert": false,
            "internalRevertMessage": "",
            "isContractCreation": false,
            "isFlashloan": false,
            "maxFee": "10.248539844",
            "nonce": 16,
            "overwritedBlockNumber": -1,
            "priorityFee": "0.1",
            "receiver": "0x888888888889758f76e7103c6cbf23abbf58f946",
            "revertMessage": "",
            "sender": "0x9746ea9372edc0cf090007db9d53f18be0a38ecb",
            "simulationEnable": true,
            "sourceTxnHash": "0x18cb093b030be16fbbacc512dae2681e021ffe347343d924cf6423751a47360c",
            "status": true,
            "timestamp": "2024-06-12T04:36:47Z",
            "transactionFee": "0.0019835942235522",
            "txnHash": "0x18cb093b030be16fbbacc512dae2681e021ffe347343d924cf6423751a47360c",
            "txnIndex": 50,
            "type": 2,
            "value": "0"
        },
        "fund_flow": [
            {
                "amount": "4.267161481",
                "from": "0x9746ea9372edc0cf090007db9d53f18be0a38ecb",
                "id": 1,
                "isERC1155": false,
                "isERC721": false,
                "isReverted": false,
                "order": 1,
                "to": "0x888888888889758f76e7103c6cbf23abbf58f946",
                "token": "0xb60acd2057067dc9ed8c083f5aa227a244044fd6"
            },
            {
                "amount": "4.267161481",
                "from": "0x888888888889758f76e7103c6cbf23abbf58f946",
                "id": 2,
                "isERC1155": false,
                "isERC721": false,
                "isReverted": false,
                "order": 2,
                "to": "0x60ccefd60ba522f9221f122bb80a1e8cbab9285f",
                "token": "0xb60acd2057067dc9ed8c083f5aa227a244044fd6"
            },
            {
                "amount": "4.267161481",
                "from": "0x0000000000000000000000000000000000000000",
                "id": 3,
                "isERC1155": false,
                "isERC721": false,
                "isReverted": false,
                "order": 3,
                "to": "0x233d32d4d33ed5f2d6b8544137c8836249de372f",
                "token": "0x60ccefd60ba522f9221f122bb80a1e8cbab9285f"
            },
            {
                "amount": "4.471514436",
                "from": "0x0000000000000000000000000000000000000000",
                "id": 4,
                "isERC1155": false,
                "isERC721": false,
                "isReverted": false,
                "order": 4,
                "to": "0x9746ea9372edc0cf090007db9d53f18be0a38ecb",
                "token": "0x233d32d4d33ed5f2d6b8544137c8836249de372f"
            },
            {
                "amount": "4.471514436",
                "from": "0x0000000000000000000000000000000000000000",
                "id": 5,
                "isERC1155": false,
                "isERC721": false,
                "isReverted": false,
                "order": 5,
                "to": "0x9746ea9372edc0cf090007db9d53f18be0a38ecb",
                "token": "0x5282ec643c3790e0f781508162a4aa13fd09c528"
            }
        ],
        "token_infos": [
            {
                "address": "0xb60acd2057067dc9ed8c083f5aa227a244044fd6",
                "decimals": 9
            },
            {
                "address": "0xc02aaa39b223fe8d0a0e5c4f27ead9083c756cc2",
                "decimals": 18
            },
            {
                "address": "0xeeeeeeeeeeeeeeeeeeeeeeeeeeeeeeeeeeeeeeee",
                "decimals": 18
            },
            {
                "address": "0x233d32d4d33ed5f2d6b8544137c8836249de372f",
                "decimals": 9
            },
            {
                "address": "0x5282ec643c3790e0f781508162a4aa13fd09c528",
                "decimals": 9
            },
            {
                "address": "0x60ccefd60ba522f9221f122bb80a1e8cbab9285f",
                "decimals": 9
            }
        ]
    },
    "address_label": {
        "labels": [
            {
                "address": "0x5282ec643c3790e0f781508162a4aa13fd09c528",
                "label": "Pendle: PT-stTAO-27JUN2024 Token"
            },
            {
                "address": "0x9afd337e41f59e5c2e6f2be05f32e958a4dbcd9a",
                "label": "ActionMiscV3"
            },
            {
                "address": "0xb60acd2057067dc9ed8c083f5aa227a244044fd6",
                "label": "Tensorplex Staked TAO: stTAO Token"
            },
            {
                "address": "0x233d32d4d33ed5f2d6b8544137c8836249de372f",
                "label": "Pendle: YT-stTAO-27JUN2024 Token"
            },
            {
                "address": "0x0000000000000000000000000000000000000001",
                "label": "Precompiled"
            },
            {
                "address": "0x0000000000000000000000000000000000000003",
                "label": "Precompiled"
            },
            {
                "address": "0x0000000000000000000000000000000000000004",
                "label": "Precompiled"
            },
            {
                "address": "0xeeeeeeeeeeeeeeeeeeeeeeeeeeeeeeeeeeeeeeee",
                "label": "Ether"
            },
            {
                "address": "0x888888888889758f76e7103c6cbf23abbf58f946",
                "label": "Pendle: RouterV4"
            },
            {
                "address": "0x820a7f7cce3c799ef032fbd0cb27094c0a66db63",
                "label": "StTAOSY"
            },
            {
                "address": "0x52a139dde6c5df3b79a40fb051b954b3a52fbaa0",
                "label": "PlxTAO"
            },
            {
                "address": "0x0000000000000000000000000000000000000002",
                "label": "Precompiled"
            },
            {
                "address": "0x60ccefd60ba522f9221f122bb80a1e8cbab9285f",
                "label": "Pendle: SY-stTAO Token"
            },
            {
                "address": "0x0000000000000000000000000000000000000000",
                "label": "Null Address"
            }
        ]
    },
    "trace": {
        "accountLabels": null,
        "dataMap": {
            "-1": {
                "invocation": {
                    "address": "0x9746ea9372edc0cf090007db9d53f18be0a38ecb",
                    "callData": "",
                    "decodedMethod": null,
                    "errorInfo": "",
                    "fromAddress": "",
                    "gasUsed": 0,
                    "id": -1,
                    "methodDecoded": false,
                    "operation": "",
                    "output": "",
                    "revert": false,
                    "revertMessage": "",
                    "selector": "",
                    "status": false,
                    "value": ""
                },
                "nodeType": 0
            },
            "0": {
                "invocation": {
                    "address": "0x888888888889758f76e7103c6cbf23abbf58f946",
                    "callData": "0x0000000000000000000000009746ea9372edc0cf090007db9d53f18be0a38ecb000000000000000000000000233d32d4d33ed5f2d6b8544137c8836249de372f000000000000000000000000000000000000000000000000000000010930beff0000000000000000000000000000000000000000000000000000000000000080000000000000000000000000b60acd2057067dc9ed8c083f5aa227a244044fd600000000000000000000000000000000000000000000000000000000fe57b789000000000000000000000000b60acd2057067dc9ed8c083f5aa227a244044fd6000000000000000000000000000000000000000000000000000000000000000000000000000000000000000000000000000000000000000000000000000000a000000000000000000000000000000000000000000000000000000000000000000000000000000000000000000000000000000000000000000000000000000000000000000000000000000000000000000000000000000000000000000000008000000000000000000000000000000000000000000000000000000000000000000000000000000000000000000000000000000000000000000000000000000000",
                    "decodedMethod": {
                        "callParams": [
                            {
                                "name": "receiver",
                                "type": "address",
                                "value": "0x9746ea9372edc0cf090007db9d53f18be0a38ecb"
                            },
                            {
                                "name": "YT",
                                "type": "address",
                                "value": "0x233d32d4d33ed5f2d6b8544137c8836249de372f"
                            },
                            {
                                "name": "minPyOut",
                                "type": "uint256",
                                "value": "4,449,156,863"
                            },
                            {
                                "name": "input",
                                "type": "(address,uint256,address,address,(uint8,address,bytes,bool))",
                                "value": [
                                    {
                                        "name": "tokenIn",
                                        "type": "address",
                                        "value": "0xb60acd2057067dc9ed8c083f5aa227a244044fd6"
                                    },
                                    {
                                        "name": "netTokenIn",
                                        "type": "uint256",
                                        "value": "4,267,161,481"
                                    },
                                    {
                                        "name": "tokenMintSy",
                                        "type": "address",
                                        "value": "0xb60acd2057067dc9ed8c083f5aa227a244044fd6"
                                    },
                                    {
                                        "name": "pendleSwap",
                                        "type": "address",
                                        "value": "0x0000000000000000000000000000000000000000"
                                    },
                                    {
                                        "name": "swapData",
                                        "type": "(uint8,address,bytes,bool)",
                                        "value": [
                                            {
                                                "name": "swapType",
                                                "type": "uint8",
                                                "value": "0"
                                            },
                                            {
                                                "name": "extRouter",
                                                "type": "address",
                                                "value": "0x0000000000000000000000000000000000000000"
                                            },
                                            {
                                                "name": "extCalldata",
                                                "type": "bytes",
                                                "value": "0x"
                                            },
                                            {
                                                "name": "needScale",
                                                "type": "bool",
                                                "value": false
                                            }
                                        ]
                                    }
                                ]
                            }
                        ],
                        "constructorArguments": "",
                        "name": "mintPyFromToken",
                        "returnParams": [
                            {
                                "name": "netPyOut",
                                "type": "uint256",
                                "value": "4,471,514,436"
                            },
                            {
                                "name": "netSyInterm",
                                "type": "uint256",
                                "value": "4,267,161,481"
                            }
                        ],
                        "signature": "mintPyFromToken(address,address,uint256,(address,uint256,address,address,(uint8,address,bytes,bool)))"
                    },
                    "errorInfo": "",
                    "fromAddress": "0x9746ea9372edc0cf090007db9d53f18be0a38ecb",
                    "gasUsed": 210475,
                    "id": 0,
                    "methodDecoded": true,
                    "operation": "CALL",
                    "output": "0x000000000000000000000000000000000000000000000000000000010a85e54400000000000000000000000000000000000000000000000000000000fe57b789",
                    "revert": false,
                    "revertMessage": "",
                    "selector": "0xd0f42385",
                    "status": true,
                    "value": "0"
                },
                "nodeType": 0
            },
            "1": {
                "invocation": {
                    "address": "0x9afd337e41f59e5c2e6f2be05f32e958a4dbcd9a",
                    "callData": "0x0000000000000000000000009746ea9372edc0cf090007db9d53f18be0a38ecb000000000000000000000000233d32d4d33ed5f2d6b8544137c8836249de372f000000000000000000000000000000000000000000000000000000010930beff0000000000000000000000000000000000000000000000000000000000000080000000000000000000000000b60acd2057067dc9ed8c083f5aa227a244044fd600000000000000000000000000000000000000000000000000000000fe57b789000000000000000000000000b60acd2057067dc9ed8c083f5aa227a244044fd6000000000000000000000000000000000000000000000000000000000000000000000000000000000000000000000000000000000000000000000000000000a000000000000000000000000000000000000000000000000000000000000000000000000000000000000000000000000000000000000000000000000000000000000000000000000000000000000000000000000000000000000000000000008000000000000000000000000000000000000000000000000000000000000000000000000000000000000000000000000000000000000000000000000000000000",
                    "decodedMethod": {
                        "callParams": [
                            {
                                "name": "receiver",
                                "type": "address",
                                "value": "0x9746ea9372edc0cf090007db9d53f18be0a38ecb"
                            },
                            {
                                "name": "YT",
                                "type": "address",
                                "value": "0x233d32d4d33ed5f2d6b8544137c8836249de372f"
                            },
                            {
                                "name": "minPyOut",
                                "type": "uint256",
                                "value": "4,449,156,863"
                            },
                            {
                                "name": "input",
                                "type": "(address,uint256,address,address,(uint8,address,bytes,bool))",
                                "value": [
                                    {
                                        "name": "tokenIn",
                                        "type": "address",
                                        "value": "0xb60acd2057067dc9ed8c083f5aa227a244044fd6"
                                    },
                                    {
                                        "name": "netTokenIn",
                                        "type": "uint256",
                                        "value": "4,267,161,481"
                                    },
                                    {
                                        "name": "tokenMintSy",
                                        "type": "address",
                                        "value": "0xb60acd2057067dc9ed8c083f5aa227a244044fd6"
                                    },
                                    {
                                        "name": "pendleSwap",
                                        "type": "address",
                                        "value": "0x0000000000000000000000000000000000000000"
                                    },
                                    {
                                        "name": "swapData",
                                        "type": "(uint8,address,bytes,bool)",
                                        "value": [
                                            {
                                                "name": "swapType",
                                                "type": "uint8",
                                                "value": "0"
                                            },
                                            {
                                                "name": "extRouter",
                                                "type": "address",
                                                "value": "0x0000000000000000000000000000000000000000"
                                            },
                                            {
                                                "name": "extCalldata",
                                                "type": "bytes",
                                                "value": "0x"
                                            },
                                            {
                                                "name": "needScale",
                                                "type": "bool",
                                                "value": false
                                            }
                                        ]
                                    }
                                ]
                            }
                        ],
                        "constructorArguments": "",
                        "name": "mintPyFromToken",
                        "returnParams": [
                            {
                                "name": "netPyOut",
                                "type": "uint256",
                                "value": "4,471,514,436"
                            },
                            {
                                "name": "netSyInterm",
                                "type": "uint256",
                                "value": "4,267,161,481"
                            }
                        ],
                        "signature": "mintPyFromToken(address,address,uint256,(address,uint256,address,address,(uint8,address,bytes,bool)))"
                    },
                    "errorInfo": "",
                    "fromAddress": "0x888888888889758f76e7103c6cbf23abbf58f946",
                    "gasUsed": 211048,
                    "id": 1,
                    "methodDecoded": true,
                    "operation": "DELEGATECALL",
                    "output": "0x000000000000000000000000000000000000000000000000000000010a85e54400000000000000000000000000000000000000000000000000000000fe57b789",
                    "revert": false,
                    "revertMessage": "",
                    "selector": "0xd0f42385",
                    "status": true,
                    "value": "0"
                },
                "nodeType": 0
            },
            "10": {
                "invocation": {
                    "address": "0xb60acd2057067dc9ed8c083f5aa227a244044fd6",
                    "callData": "0x000000000000000000000000888888888889758f76e7103c6cbf23abbf58f94600000000000000000000000060ccefd60ba522f9221f122bb80a1e8cbab9285f00000000000000000000000000000000000000000000000000000000fe57b789",
                    "decodedMethod": {
                        "callParams": [
                            {
                                "name": "from",
                                "type": "address",
                                "value": "0x888888888889758f76e7103c6cbf23abbf58f946"
                            },
                            {
                                "name": "to",
                                "type": "address",
                                "value": "0x60ccefd60ba522f9221f122bb80a1e8cbab9285f"
                            },
                            {
                                "decimalAvailable": true,
                                "name": "value",
                                "type": "uint256",
                                "value": "4,267,161,481"
                            }
                        ],
                        "constructorArguments": "",
                        "name": "transferFrom",
                        "returnParams": [
                            {
                                "name": "",
                                "type": "bool",
                                "value": true
                            }
                        ],
                        "signature": "transferFrom(address,address,uint256)"
                    },
                    "errorInfo": "",
                    "fromAddress": "0x60ccefd60ba522f9221f122bb80a1e8cbab9285f",
                    "gasUsed": 9104,
                    "id": 10,
                    "methodDecoded": true,
                    "operation": "CALL",
                    "output": "0x0000000000000000000000000000000000000000000000000000000000000001",
                    "revert": false,
                    "revertMessage": "",
                    "selector": "0x23b872dd",
                    "status": true,
                    "value": "0"
                },
                "nodeType": 0
            },
            "11": {
                "invocation": {
                    "address": "0x52a139dde6c5df3b79a40fb051b954b3a52fbaa0",
                    "callData": "0x000000000000000000000000888888888889758f76e7103c6cbf23abbf58f94600000000000000000000000060ccefd60ba522f9221f122bb80a1e8cbab9285f00000000000000000000000000000000000000000000000000000000fe57b789",
                    "decodedMethod": {
                        "callParams": [
                            {
                                "name": "from",
                                "type": "address",
                                "value": "0x888888888889758f76e7103c6cbf23abbf58f946"
                            },
                            {
                                "name": "to",
                                "type": "address",
                                "value": "0x60ccefd60ba522f9221f122bb80a1e8cbab9285f"
                            },
                            {
                                "decimalAvailable": true,
                                "name": "value",
                                "type": "uint256",
                                "value": "4,267,161,481"
                            }
                        ],
                        "constructorArguments": "",
                        "name": "transferFrom",
                        "returnParams": [
                            {
                                "name": "",
                                "type": "bool",
                                "value": true
                            }
                        ],
                        "signature": "transferFrom(address,address,uint256)"
                    },
                    "errorInfo": "",
                    "fromAddress": "0xb60acd2057067dc9ed8c083f5aa227a244044fd6",
                    "gasUsed": 8647,
                    "id": 11,
                    "methodDecoded": true,
                    "operation": "DELEGATECALL",
                    "output": "0x0000000000000000000000000000000000000000000000000000000000000001",
                    "revert": false,
                    "revertMessage": "",
                    "selector": "0x23b872dd",
                    "status": true,
                    "value": "0"
                },
                "nodeType": 0
            },
            "12": {
                "event": {
                    "contract": "0xb60acd2057067dc9ed8c083f5aa227a244044fd6",
                    "decodedLog": {
                        "name": "Transfer",
                        "params": [
                            {
                                "name": "from",
                                "type": "address",
                                "value": "0x888888888889758f76e7103c6cbf23abbf58f946"
                            },
                            {
                                "name": "to",
                                "type": "address",
                                "value": "0x60ccefd60ba522f9221f122bb80a1e8cbab9285f"
                            },
                            {
                                "decimalAvailable": true,
                                "name": "value",
                                "type": "uint256",
                                "value": "4,267,161,481"
                            }
                        ],
                        "signature": "Transfer(address,address,uint256)"
                    },
                    "id": 12,
                    "logData": "0x00000000000000000000000000000000000000000000000000000000fe57b789",
                    "logDecoded": true,
                    "operation": "EVENT",
                    "revert": false,
                    "status": true,
                    "topics": [
                        "0xddf252ad1be2c89b69c2b068fc378daa952ba7f163c4a11628f55a4df523b3ef",
                        "0x000000000000000000000000888888888889758f76e7103c6cbf23abbf58f946",
                        "0x00000000000000000000000060ccefd60ba522f9221f122bb80a1e8cbab9285f"
                    ]
                },
                "nodeType": 1
            },
            "13": {
                "event": {
                    "contract": "0x60ccefd60ba522f9221f122bb80a1e8cbab9285f",
                    "decodedLog": {
                        "name": "Transfer",
                        "params": [
                            {
                                "name": "from",
                                "type": "address",
                                "value": "0x0000000000000000000000000000000000000000"
                            },
                            {
                                "name": "to",
                                "type": "address",
                                "value": "0x233d32d4d33ed5f2d6b8544137c8836249de372f"
                            },
                            {
                                "decimalAvailable": true,
                                "name": "value",
                                "type": "uint256",
                                "value": "4,267,161,481"
                            }
                        ],
                        "signature": "Transfer(address,address,uint256)"
                    },
                    "id": 13,
                    "logData": "0x00000000000000000000000000000000000000000000000000000000fe57b789",
                    "logDecoded": true,
                    "operation": "EVENT",
                    "revert": false,
                    "status": true,
                    "topics": [
                        "0xddf252ad1be2c89b69c2b068fc378daa952ba7f163c4a11628f55a4df523b3ef",
                        "0x0000000000000000000000000000000000000000000000000000000000000000",
                        "0x000000000000000000000000233d32d4d33ed5f2d6b8544137c8836249de372f"
                    ]
                },
                "nodeType": 1
            },
            "14": {
                "event": {
                    "contract": "0x60ccefd60ba522f9221f122bb80a1e8cbab9285f",
                    "decodedLog": {
                        "name": "Deposit",
                        "params": [
                            {
                                "name": "caller",
                                "type": "address",
                                "value": "0x888888888889758f76e7103c6cbf23abbf58f946"
                            },
                            {
                                "name": "receiver",
                                "type": "address",
                                "value": "0x233d32d4d33ed5f2d6b8544137c8836249de372f"
                            },
                            {
                                "name": "tokenIn",
                                "type": "address",
                                "value": "0xb60acd2057067dc9ed8c083f5aa227a244044fd6"
                            },
                            {
                                "name": "amountDeposited",
                                "type": "uint256",
                                "value": "4,267,161,481"
                            },
                            {
                                "name": "amountSyOut",
                                "type": "uint256",
                                "value": "4,267,161,481"
                            }
                        ],
                        "signature": "Deposit(address,address,address,uint256,uint256)"
                    },
                    "id": 14,
                    "logData": "0x00000000000000000000000000000000000000000000000000000000fe57b78900000000000000000000000000000000000000000000000000000000fe57b789",
                    "logDecoded": true,
                    "operation": "EVENT",
                    "revert": false,
                    "status": true,
                    "topics": [
                        "0x5fe47ed6d4225326d3303476197d782ded5a4e9c14f479dc9ec4992af4e85d59",
                        "0x000000000000000000000000888888888889758f76e7103c6cbf23abbf58f946",
                        "0x000000000000000000000000233d32d4d33ed5f2d6b8544137c8836249de372f",
                        "0x000000000000000000000000b60acd2057067dc9ed8c083f5aa227a244044fd6"
                    ]
                },
                "nodeType": 1
            },
            "15": {
                "invocation": {
                    "address": "0x233d32d4d33ed5f2d6b8544137c8836249de372f",
                    "callData": "0x0000000000000000000000009746ea9372edc0cf090007db9d53f18be0a38ecb0000000000000000000000009746ea9372edc0cf090007db9d53f18be0a38ecb",
                    "decodedMethod": {
                        "callParams": [
                            {
                                "name": "receiverPT",
                                "type": "address",
                                "value": "0x9746ea9372edc0cf090007db9d53f18be0a38ecb"
                            },
                            {
                                "name": "receiverYT",
                                "type": "address",
                                "value": "0x9746ea9372edc0cf090007db9d53f18be0a38ecb"
                            }
                        ],
                        "constructorArguments": "",
                        "name": "mintPY",
                        "returnParams": [
                            {
                                "name": "amountPYOut",
                                "type": "uint256",
                                "value": "4,471,514,436"
                            }
                        ],
                        "signature": "mintPY(address,address)"
                    },
                    "errorInfo": "",
                    "fromAddress": "0x888888888889758f76e7103c6cbf23abbf58f946",
                    "gasUsed": 116476,
                    "id": 15,
                    "methodDecoded": true,
                    "operation": "CALL",
                    "output": "0x000000000000000000000000000000000000000000000000000000010a85e544",
                    "revert": false,
                    "revertMessage": "",
                    "selector": "0xdb74aa15",
                    "status": true,
                    "value": "0"
                },
                "nodeType": 0
            },
            "16": {
                "invocation": {
                    "address": "0x60ccefd60ba522f9221f122bb80a1e8cbab9285f",
                    "callData": "0x000000000000000000000000233d32d4d33ed5f2d6b8544137c8836249de372f",
                    "decodedMethod": {
                        "callParams": [
                            {
                                "name": "account",
                                "type": "address",
                                "value": "0x233d32d4d33ed5f2d6b8544137c8836249de372f"
                            }
                        ],
                        "constructorArguments": "",
                        "name": "balanceOf",
                        "returnParams": [
                            {
                                "decimalAvailable": true,
                                "name": "",
                                "type": "uint256",
                                "value": "4,213,994,136,091"
                            }
                        ],
                        "signature": "balanceOf(address)"
                    },
                    "errorInfo": "",
                    "fromAddress": "0x233d32d4d33ed5f2d6b8544137c8836249de372f",
                    "gasUsed": 1201,
                    "id": 16,
                    "methodDecoded": true,
                    "operation": "STATICCALL",
                    "output": "0x000000000000000000000000000000000000000000000000000003d5259fa21b",
                    "revert": false,
                    "revertMessage": "",
                    "selector": "0x70a08231",
                    "status": true,
                    "value": "0"
                },
                "nodeType": 0
            },
            "17": {
                "invocation": {
                    "address": "0x820a7f7cce3c799ef032fbd0cb27094c0a66db63",
                    "callData": "0x000000000000000000000000233d32d4d33ed5f2d6b8544137c8836249de372f",
                    "decodedMethod": {
                        "callParams": [
                            {
                                "name": "account",
                                "type": "address",
                                "value": "0x233d32d4d33ed5f2d6b8544137c8836249de372f"
                            }
                        ],
                        "constructorArguments": "",
                        "name": "balanceOf",
                        "returnParams": [
                            {
                                "decimalAvailable": true,
                                "name": "",
                                "type": "uint256",
                                "value": "4,213,994,136,091"
                            }
                        ],
                        "signature": "balanceOf(address)"
                    },
                    "errorInfo": "",
                    "fromAddress": "0x60ccefd60ba522f9221f122bb80a1e8cbab9285f",
                    "gasUsed": 756,
                    "id": 17,
                    "methodDecoded": true,
                    "operation": "DELEGATECALL",
                    "output": "0x000000000000000000000000000000000000000000000000000003d5259fa21b",
                    "revert": false,
                    "revertMessage": "",
                    "selector": "0x70a08231",
                    "status": true,
                    "value": "0"
                },
                "nodeType": 0
            },
            "18": {
                "invocation": {
                    "address": "0x60ccefd60ba522f9221f122bb80a1e8cbab9285f",
                    "callData": "0x",
                    "decodedMethod": {
                        "callParams": [],
                        "constructorArguments": "",
                        "name": "exchangeRate",
                        "returnParams": [
                            {
                                "name": "",
                                "type": "uint256",
                                "value": "1,047,889,670,093,819,341"
                            }
                        ],
                        "signature": "exchangeRate()"
                    },
                    "errorInfo": "",
                    "fromAddress": "0x233d32d4d33ed5f2d6b8544137c8836249de372f",
                    "gasUsed": 4057,
                    "id": 18,
                    "methodDecoded": true,
                    "operation": "STATICCALL",
                    "output": "0x0000000000000000000000000000000000000000000000000e8ada1a5dbe4dcd",
                    "revert": false,
                    "revertMessage": "",
                    "selector": "0x3ba0b9a9",
                    "status": true,
                    "value": "0"
                },
                "nodeType": 0
            },
            "19": {
                "invocation": {
                    "address": "0x820a7f7cce3c799ef032fbd0cb27094c0a66db63",
                    "callData": "0x",
                    "decodedMethod": {
                        "callParams": [],
                        "constructorArguments": "",
                        "name": "exchangeRate",
                        "returnParams": [
                            {
                                "name": "",
                                "type": "uint256",
                                "value": "1,047,889,670,093,819,341"
                            }
                        ],
                        "signature": "exchangeRate()"
                    },
                    "errorInfo": "",
                    "fromAddress": "0x60ccefd60ba522f9221f122bb80a1e8cbab9285f",
                    "gasUsed": 3615,
                    "id": 19,
                    "methodDecoded": true,
                    "operation": "DELEGATECALL",
                    "output": "0x0000000000000000000000000000000000000000000000000e8ada1a5dbe4dcd",
                    "revert": false,
                    "revertMessage": "",
                    "selector": "0x3ba0b9a9",
                    "status": true,
                    "value": "0"
                },
                "nodeType": 0
            },
            "2": {
                "invocation": {
                    "address": "0x233d32d4d33ed5f2d6b8544137c8836249de372f",
                    "callData": "0x",
                    "decodedMethod": {
                        "callParams": [],
                        "constructorArguments": "",
                        "name": "SY",
                        "returnParams": [
                            {
                                "name": "",
                                "type": "address",
                                "value": "0x60ccefd60ba522f9221f122bb80a1e8cbab9285f"
                            }
                        ],
                        "signature": "SY()"
                    },
                    "errorInfo": "",
                    "fromAddress": "0x888888888889758f76e7103c6cbf23abbf58f946",
                    "gasUsed": 642,
                    "id": 2,
                    "methodDecoded": true,
                    "operation": "STATICCALL",
                    "output": "0x00000000000000000000000060ccefd60ba522f9221f122bb80a1e8cbab9285f",
                    "revert": false,
                    "revertMessage": "",
                    "selector": "0xafd27bf5",
                    "status": true,
                    "value": "0"
                },
                "nodeType": 0
            },
            "20": {
                "invocation": {
                    "address": "0xb60acd2057067dc9ed8c083f5aa227a244044fd6",
                    "callData": "0x",
                    "decodedMethod": {
                        "callParams": [],
                        "constructorArguments": "",
                        "name": "exchangeRate",
                        "returnParams": [
                            {
                                "name": "",
                                "type": "uint256",
                                "value": "954,298,938,656,841,900"
                            }
                        ],
                        "signature": "exchangeRate()"
                    },
                    "errorInfo": "",
                    "fromAddress": "0x60ccefd60ba522f9221f122bb80a1e8cbab9285f",
                    "gasUsed": 2808,
                    "id": 20,
                    "methodDecoded": true,
                    "operation": "STATICCALL",
                    "output": "0x0000000000000000000000000000000000000000000000000d3e59d4202c60ac",
                    "revert": false,
                    "revertMessage": "",
                    "selector": "0x3ba0b9a9",
                    "status": true,
                    "value": "0"
                },
                "nodeType": 0
            },
            "21": {
                "invocation": {
                    "address": "0x52a139dde6c5df3b79a40fb051b954b3a52fbaa0",
                    "callData": "0x",
                    "decodedMethod": {
                        "callParams": [],
                        "constructorArguments": "",
                        "name": "exchangeRate",
                        "returnParams": [
                            {
                                "name": "",
                                "type": "uint256",
                                "value": "954,298,938,656,841,900"
                            }
                        ],
                        "signature": "exchangeRate()"
                    },
                    "errorInfo": "",
                    "fromAddress": "0xb60acd2057067dc9ed8c083f5aa227a244044fd6",
                    "gasUsed": 2363,
                    "id": 21,
                    "methodDecoded": true,
                    "operation": "DELEGATECALL",
                    "output": "0x0000000000000000000000000000000000000000000000000d3e59d4202c60ac",
                    "revert": false,
                    "revertMessage": "",
                    "selector": "0x3ba0b9a9",
                    "status": true,
                    "value": "0"
                },
                "nodeType": 0
            },
            "22": {
                "event": {
                    "contract": "0x233d32d4d33ed5f2d6b8544137c8836249de372f",
                    "decodedLog": {
                        "name": "NewInterestIndex",
                        "params": [
                            {
                                "name": "newIndex",
                                "type": "uint256",
                                "value": "1,047,889,670,093,819,341"
                            }
                        ],
                        "signature": "NewInterestIndex(uint256)"
                    },
                    "id": 22,
                    "logData": "0x",
                    "logDecoded": true,
                    "operation": "EVENT",
                    "revert": false,
                    "status": true,
                    "topics": [
                        "0x71475f2f645813fdbebf53a58968008bff11ee21a58f01c5a9cc263d0bc4703d",
                        "0x0000000000000000000000000000000000000000000000000e8ada1a5dbe4dcd"
                    ]
                },
                "nodeType": 1
            },
            "23": {
                "invocation": {
                    "address": "0x60ccefd60ba522f9221f122bb80a1e8cbab9285f",
                    "callData": "0x",
                    "decodedMethod": {
                        "callParams": [],
                        "constructorArguments": "",
                        "name": "getRewardTokens",
                        "returnParams": [
                            {
                                "name": "rewardTokens",
                                "type": "address[]",
                                "value": []
                            }
                        ],
                        "signature": "getRewardTokens()"
                    },
                    "errorInfo": "",
                    "fromAddress": "0x233d32d4d33ed5f2d6b8544137c8836249de372f",
                    "gasUsed": 1481,
                    "id": 23,
                    "methodDecoded": true,
                    "operation": "STATICCALL",
                    "output": "0x00000000000000000000000000000000000000000000000000000000000000200000000000000000000000000000000000000000000000000000000000000000",
                    "revert": false,
                    "revertMessage": "",
                    "selector": "0xc4f59f9b",
                    "status": true,
                    "value": "0"
                },
                "nodeType": 0
            },
            "24": {
                "invocation": {
                    "address": "0x820a7f7cce3c799ef032fbd0cb27094c0a66db63",
                    "callData": "0x",
                    "decodedMethod": {
                        "callParams": [],
                        "constructorArguments": "",
                        "name": "getRewardTokens",
                        "returnParams": [
                            {
                                "name": "rewardTokens",
                                "type": "address[]",
                                "value": []
                            }
                        ],
                        "signature": "getRewardTokens()"
                    },
                    "errorInfo": "",
                    "fromAddress": "0x60ccefd60ba522f9221f122bb80a1e8cbab9285f",
                    "gasUsed": 1036,
                    "id": 24,
                    "methodDecoded": true,
                    "operation": "DELEGATECALL",
                    "output": "0x00000000000000000000000000000000000000000000000000000000000000200000000000000000000000000000000000000000000000000000000000000000",
                    "revert": false,
                    "revertMessage": "",
                    "selector": "0xc4f59f9b",
                    "status": true,
                    "value": "0"
                },
                "nodeType": 0
            },
            "25": {
                "invocation": {
                    "address": "0x60ccefd60ba522f9221f122bb80a1e8cbab9285f",
                    "callData": "0x",
                    "decodedMethod": {
                        "callParams": [],
                        "constructorArguments": "",
                        "name": "rewardIndexesCurrent",
                        "returnParams": [
                            {
                                "name": "indexes",
                                "type": "uint256[]",
                                "value": []
                            }
                        ],
                        "signature": "rewardIndexesCurrent()"
                    },
                    "errorInfo": "",
                    "fromAddress": "0x233d32d4d33ed5f2d6b8544137c8836249de372f",
                    "gasUsed": 1647,
                    "id": 25,
                    "methodDecoded": true,
                    "operation": "CALL",
                    "output": "0x00000000000000000000000000000000000000000000000000000000000000200000000000000000000000000000000000000000000000000000000000000000",
                    "revert": false,
                    "revertMessage": "",
                    "selector": "0xf8b2f991",
                    "status": true,
                    "value": "0"
                },
                "nodeType": 0
            },
            "26": {
                "invocation": {
                    "address": "0x820a7f7cce3c799ef032fbd0cb27094c0a66db63",
                    "callData": "0x",
                    "decodedMethod": {
                        "callParams": [],
                        "constructorArguments": "",
                        "name": "rewardIndexesCurrent",
                        "returnParams": [
                            {
                                "name": "indexes",
                                "type": "uint256[]",
                                "value": []
                            }
                        ],
                        "signature": "rewardIndexesCurrent()"
                    },
                    "errorInfo": "",
                    "fromAddress": "0x60ccefd60ba522f9221f122bb80a1e8cbab9285f",
                    "gasUsed": 1202,
                    "id": 26,
                    "methodDecoded": true,
                    "operation": "DELEGATECALL",
                    "output": "0x00000000000000000000000000000000000000000000000000000000000000200000000000000000000000000000000000000000000000000000000000000000",
                    "revert": false,
                    "revertMessage": "",
                    "selector": "0xf8b2f991",
                    "status": true,
                    "value": "0"
                },
                "nodeType": 0
            },
            "27": {
                "event": {
                    "contract": "0x233d32d4d33ed5f2d6b8544137c8836249de372f",
                    "decodedLog": {
                        "name": "Transfer",
                        "params": [
                            {
                                "name": "from",
                                "type": "address",
                                "value": "0x0000000000000000000000000000000000000000"
                            },
                            {
                                "name": "to",
                                "type": "address",
                                "value": "0x9746ea9372edc0cf090007db9d53f18be0a38ecb"
                            },
                            {
                                "decimalAvailable": true,
                                "name": "value",
                                "type": "uint256",
                                "value": "4,471,514,436"
                            }
                        ],
                        "signature": "Transfer(address,address,uint256)"
                    },
                    "id": 27,
                    "logData": "0x000000000000000000000000000000000000000000000000000000010a85e544",
                    "logDecoded": true,
                    "operation": "EVENT",
                    "revert": false,
                    "status": true,
                    "topics": [
                        "0xddf252ad1be2c89b69c2b068fc378daa952ba7f163c4a11628f55a4df523b3ef",
                        "0x0000000000000000000000000000000000000000000000000000000000000000",
                        "0x0000000000000000000000009746ea9372edc0cf090007db9d53f18be0a38ecb"
                    ]
                },
                "nodeType": 1
            },
            "28": {
                "invocation": {
                    "address": "0x5282ec643c3790e0f781508162a4aa13fd09c528",
                    "callData": "0x0000000000000000000000009746ea9372edc0cf090007db9d53f18be0a38ecb000000000000000000000000000000000000000000000000000000010a85e544",
                    "decodedMethod": {
                        "callParams": [
                            {
                                "name": "user",
                                "type": "address",
                                "value": "0x9746ea9372edc0cf090007db9d53f18be0a38ecb"
                            },
                            {
                                "name": "amount",
                                "type": "uint256",
                                "value": "4,471,514,436"
                            }
                        ],
                        "constructorArguments": "",
                        "name": "mintByYT",
                        "returnParams": [],
                        "signature": "mintByYT(address,uint256)"
                    },
                    "errorInfo": "",
                    "fromAddress": "0x233d32d4d33ed5f2d6b8544137c8836249de372f",
                    "gasUsed": 31563,
                    "id": 28,
                    "methodDecoded": true,
                    "operation": "CALL",
                    "output": "",
                    "revert": false,
                    "revertMessage": "",
                    "selector": "0x12a31dcc",
                    "status": true,
                    "value": "0"
                },
                "nodeType": 0
            },
            "29": {
                "event": {
                    "contract": "0x5282ec643c3790e0f781508162a4aa13fd09c528",
                    "decodedLog": {
                        "name": "Transfer",
                        "params": [
                            {
                                "name": "from",
                                "type": "address",
                                "value": "0x0000000000000000000000000000000000000000"
                            },
                            {
                                "name": "to",
                                "type": "address",
                                "value": "0x9746ea9372edc0cf090007db9d53f18be0a38ecb"
                            },
                            {
                                "decimalAvailable": true,
                                "name": "value",
                                "type": "uint256",
                                "value": "4,471,514,436"
                            }
                        ],
                        "signature": "Transfer(address,address,uint256)"
                    },
                    "id": 29,
                    "logData": "0x000000000000000000000000000000000000000000000000000000010a85e544",
                    "logDecoded": true,
                    "operation": "EVENT",
                    "revert": false,
                    "status": true,
                    "topics": [
                        "0xddf252ad1be2c89b69c2b068fc378daa952ba7f163c4a11628f55a4df523b3ef",
                        "0x0000000000000000000000000000000000000000000000000000000000000000",
                        "0x0000000000000000000000009746ea9372edc0cf090007db9d53f18be0a38ecb"
                    ]
                },
                "nodeType": 1
            },
            "3": {
                "invocation": {
                    "address": "0xb60acd2057067dc9ed8c083f5aa227a244044fd6",
                    "callData": "0x0000000000000000000000009746ea9372edc0cf090007db9d53f18be0a38ecb000000000000000000000000888888888889758f76e7103c6cbf23abbf58f94600000000000000000000000000000000000000000000000000000000fe57b789",
                    "decodedMethod": {
                        "callParams": [
                            {
                                "name": "from",
                                "type": "address",
                                "value": "0x9746ea9372edc0cf090007db9d53f18be0a38ecb"
                            },
                            {
                                "name": "to",
                                "type": "address",
                                "value": "0x888888888889758f76e7103c6cbf23abbf58f946"
                            },
                            {
                                "decimalAvailable": true,
                                "name": "value",
                                "type": "uint256",
                                "value": "4,267,161,481"
                            }
                        ],
                        "constructorArguments": "",
                        "name": "transferFrom",
                        "returnParams": [
                            {
                                "name": "",
                                "type": "bool",
                                "value": true
                            }
                        ],
                        "signature": "transferFrom(address,address,uint256)"
                    },
                    "errorInfo": "",
                    "fromAddress": "0x888888888889758f76e7103c6cbf23abbf58f946",
                    "gasUsed": 40787,
                    "id": 3,
                    "methodDecoded": true,
                    "operation": "CALL",
                    "output": "0x0000000000000000000000000000000000000000000000000000000000000001",
                    "revert": false,
                    "revertMessage": "",
                    "selector": "0x23b872dd",
                    "status": true,
                    "value": "0"
                },
                "nodeType": 0
            },
            "30": {
                "event": {
                    "contract": "0x233d32d4d33ed5f2d6b8544137c8836249de372f",
                    "decodedLog": {
                        "name": "Mint",
                        "params": [
                            {
                                "name": "caller",
                                "type": "address",
                                "value": "0x888888888889758f76e7103c6cbf23abbf58f946"
                            },
                            {
                                "name": "receiverPT",
                                "type": "address",
                                "value": "0x9746ea9372edc0cf090007db9d53f18be0a38ecb"
                            },
                            {
                                "name": "receiverYT",
                                "type": "address",
                                "value": "0x9746ea9372edc0cf090007db9d53f18be0a38ecb"
                            },
                            {
                                "name": "amountSyToMint",
                                "type": "uint256",
                                "value": "4,267,161,481"
                            },
                            {
                                "name": "amountPYOut",
                                "type": "uint256",
                                "value": "4,471,514,436"
                            }
                        ],
                        "signature": "Mint(address,address,address,uint256,uint256)"
                    },
                    "id": 30,
                    "logData": "0x00000000000000000000000000000000000000000000000000000000fe57b789000000000000000000000000000000000000000000000000000000010a85e544",
                    "logDecoded": true,
                    "operation": "EVENT",
                    "revert": false,
                    "status": true,
                    "topics": [
                        "0xc0025304673122449dd60b9b0093874b0e2fd6fe57af1c7c2fbfee0ccf5ead58",
                        "0x000000000000000000000000888888888889758f76e7103c6cbf23abbf58f946",
                        "0x0000000000000000000000009746ea9372edc0cf090007db9d53f18be0a38ecb",
                        "0x0000000000000000000000009746ea9372edc0cf090007db9d53f18be0a38ecb"
                    ]
                },
                "nodeType": 1
            },
            "31": {
                "invocation": {
                    "address": "0x60ccefd60ba522f9221f122bb80a1e8cbab9285f",
                    "callData": "0x000000000000000000000000233d32d4d33ed5f2d6b8544137c8836249de372f",
                    "decodedMethod": {
                        "callParams": [
                            {
                                "name": "account",
                                "type": "address",
                                "value": "0x233d32d4d33ed5f2d6b8544137c8836249de372f"
                            }
                        ],
                        "constructorArguments": "",
                        "name": "balanceOf",
                        "returnParams": [
                            {
                                "decimalAvailable": true,
                                "name": "",
                                "type": "uint256",
                                "value": "4,213,994,136,091"
                            }
                        ],
                        "signature": "balanceOf(address)"
                    },
                    "errorInfo": "",
                    "fromAddress": "0x233d32d4d33ed5f2d6b8544137c8836249de372f",
                    "gasUsed": 1201,
                    "id": 31,
                    "methodDecoded": true,
                    "operation": "STATICCALL",
                    "output": "0x000000000000000000000000000000000000000000000000000003d5259fa21b",
                    "revert": false,
                    "revertMessage": "",
                    "selector": "0x70a08231",
                    "status": true,
                    "value": "0"
                },
                "nodeType": 0
            },
            "32": {
                "invocation": {
                    "address": "0x820a7f7cce3c799ef032fbd0cb27094c0a66db63",
                    "callData": "0x000000000000000000000000233d32d4d33ed5f2d6b8544137c8836249de372f",
                    "decodedMethod": {
                        "callParams": [
                            {
                                "name": "account",
                                "type": "address",
                                "value": "0x233d32d4d33ed5f2d6b8544137c8836249de372f"
                            }
                        ],
                        "constructorArguments": "",
                        "name": "balanceOf",
                        "returnParams": [
                            {
                                "decimalAvailable": true,
                                "name": "",
                                "type": "uint256",
                                "value": "4,213,994,136,091"
                            }
                        ],
                        "signature": "balanceOf(address)"
                    },
                    "errorInfo": "",
                    "fromAddress": "0x60ccefd60ba522f9221f122bb80a1e8cbab9285f",
                    "gasUsed": 756,
                    "id": 32,
                    "methodDecoded": true,
                    "operation": "DELEGATECALL",
                    "output": "0x000000000000000000000000000000000000000000000000000003d5259fa21b",
                    "revert": false,
                    "revertMessage": "",
                    "selector": "0x70a08231",
                    "status": true,
                    "value": "0"
                },
                "nodeType": 0
            },
            "33": {
                "event": {
                    "contract": "0x888888888889758f76e7103c6cbf23abbf58f946",
                    "decodedLog": {
                        "name": "MintPyFromToken",
                        "params": [
                            {
                                "name": "caller",
                                "type": "address",
                                "value": "0x9746ea9372edc0cf090007db9d53f18be0a38ecb"
                            },
                            {
                                "name": "tokenIn",
                                "type": "address",
                                "value": "0xb60acd2057067dc9ed8c083f5aa227a244044fd6"
                            },
                            {
                                "name": "YT",
                                "type": "address",
                                "value": "0x233d32d4d33ed5f2d6b8544137c8836249de372f"
                            },
                            {
                                "name": "receiver",
                                "type": "address",
                                "value": "0x9746ea9372edc0cf090007db9d53f18be0a38ecb"
                            },
                            {
                                "name": "netTokenIn",
                                "type": "uint256",
                                "value": "4,267,161,481"
                            },
                            {
                                "name": "netPyOut",
                                "type": "uint256",
                                "value": "4,471,514,436"
                            },
                            {
                                "name": "netSyInterm",
                                "type": "uint256",
                                "value": "4,267,161,481"
                            }
                        ],
                        "signature": "MintPyFromToken(address,address,address,address,uint256,uint256,uint256)"
                    },
                    "id": 33,
                    "logData": "0x0000000000000000000000009746ea9372edc0cf090007db9d53f18be0a38ecb00000000000000000000000000000000000000000000000000000000fe57b789000000000000000000000000000000000000000000000000000000010a85e54400000000000000000000000000000000000000000000000000000000fe57b789",
                    "logDecoded": true,
                    "operation": "EVENT",
                    "revert": false,
                    "status": true,
                    "topics": [
                        "0x3193c546cf854c6a4c63afa03b04d35e4242c2761af34a4093fc5daa88dd5308",
                        "0x0000000000000000000000009746ea9372edc0cf090007db9d53f18be0a38ecb",
                        "0x000000000000000000000000b60acd2057067dc9ed8c083f5aa227a244044fd6",
                        "0x000000000000000000000000233d32d4d33ed5f2d6b8544137c8836249de372f"
                    ]
                },
                "nodeType": 1
            },
            "4": {
                "invocation": {
                    "address": "0x52a139dde6c5df3b79a40fb051b954b3a52fbaa0",
                    "callData": "0x0000000000000000000000009746ea9372edc0cf090007db9d53f18be0a38ecb000000000000000000000000888888888889758f76e7103c6cbf23abbf58f94600000000000000000000000000000000000000000000000000000000fe57b789",
                    "decodedMethod": {
                        "callParams": [
                            {
                                "name": "from",
                                "type": "address",
                                "value": "0x9746ea9372edc0cf090007db9d53f18be0a38ecb"
                            },
                            {
                                "name": "to",
                                "type": "address",
                                "value": "0x888888888889758f76e7103c6cbf23abbf58f946"
                            },
                            {
                                "decimalAvailable": true,
                                "name": "value",
                                "type": "uint256",
                                "value": "4,267,161,481"
                            }
                        ],
                        "constructorArguments": "",
                        "name": "transferFrom",
                        "returnParams": [
                            {
                                "name": "",
                                "type": "bool",
                                "value": true
                            }
                        ],
                        "signature": "transferFrom(address,address,uint256)"
                    },
                    "errorInfo": "",
                    "fromAddress": "0xb60acd2057067dc9ed8c083f5aa227a244044fd6",
                    "gasUsed": 35830,
                    "id": 4,
                    "methodDecoded": true,
                    "operation": "DELEGATECALL",
                    "output": "0x0000000000000000000000000000000000000000000000000000000000000001",
                    "revert": false,
                    "revertMessage": "",
                    "selector": "0x23b872dd",
                    "status": true,
                    "value": "0"
                },
                "nodeType": 0
            },
            "5": {
                "event": {
                    "contract": "0xb60acd2057067dc9ed8c083f5aa227a244044fd6",
                    "decodedLog": {
                        "name": "Transfer",
                        "params": [
                            {
                                "name": "from",
                                "type": "address",
                                "value": "0x9746ea9372edc0cf090007db9d53f18be0a38ecb"
                            },
                            {
                                "name": "to",
                                "type": "address",
                                "value": "0x888888888889758f76e7103c6cbf23abbf58f946"
                            },
                            {
                                "decimalAvailable": true,
                                "name": "value",
                                "type": "uint256",
                                "value": "4,267,161,481"
                            }
                        ],
                        "signature": "Transfer(address,address,uint256)"
                    },
                    "id": 5,
                    "logData": "0x00000000000000000000000000000000000000000000000000000000fe57b789",
                    "logDecoded": true,
                    "operation": "EVENT",
                    "revert": false,
                    "status": true,
                    "topics": [
                        "0xddf252ad1be2c89b69c2b068fc378daa952ba7f163c4a11628f55a4df523b3ef",
                        "0x0000000000000000000000009746ea9372edc0cf090007db9d53f18be0a38ecb",
                        "0x000000000000000000000000888888888889758f76e7103c6cbf23abbf58f946"
                    ]
                },
                "nodeType": 1
            },
            "6": {
                "invocation": {
                    "address": "0xb60acd2057067dc9ed8c083f5aa227a244044fd6",
                    "callData": "0x000000000000000000000000888888888889758f76e7103c6cbf23abbf58f94600000000000000000000000060ccefd60ba522f9221f122bb80a1e8cbab9285f",
                    "decodedMethod": {
                        "callParams": [
                            {
                                "name": "owner",
                                "type": "address",
                                "value": "0x888888888889758f76e7103c6cbf23abbf58f946"
                            },
                            {
                                "name": "spender",
                                "type": "address",
                                "value": "0x60ccefd60ba522f9221f122bb80a1e8cbab9285f"
                            }
                        ],
                        "constructorArguments": "",
                        "name": "allowance",
                        "returnParams": [
                            {
                                "decimalAvailable": true,
                                "name": "",
                                "type": "uint256",
                                "value": "115,792,089,237,316,195,423,570,985,008,687,907,853,269,984,665,640,564,039,457,584,007,913,129,639,935"
                            }
                        ],
                        "signature": "allowance(address,address)"
                    },
                    "errorInfo": "",
                    "fromAddress": "0x888888888889758f76e7103c6cbf23abbf58f946",
                    "gasUsed": 3278,
                    "id": 6,
                    "methodDecoded": true,
                    "operation": "STATICCALL",
                    "output": "0xffffffffffffffffffffffffffffffffffffffffffffffffffffffffffffffff",
                    "revert": false,
                    "revertMessage": "",
                    "selector": "0xdd62ed3e",
                    "status": true,
                    "value": "0"
                },
                "nodeType": 0
            },
            "7": {
                "invocation": {
                    "address": "0x52a139dde6c5df3b79a40fb051b954b3a52fbaa0",
                    "callData": "0x000000000000000000000000888888888889758f76e7103c6cbf23abbf58f94600000000000000000000000060ccefd60ba522f9221f122bb80a1e8cbab9285f",
                    "decodedMethod": {
                        "callParams": [
                            {
                                "name": "owner",
                                "type": "address",
                                "value": "0x888888888889758f76e7103c6cbf23abbf58f946"
                            },
                            {
                                "name": "spender",
                                "type": "address",
                                "value": "0x60ccefd60ba522f9221f122bb80a1e8cbab9285f"
                            }
                        ],
                        "constructorArguments": "",
                        "name": "allowance",
                        "returnParams": [
                            {
                                "decimalAvailable": true,
                                "name": "",
                                "type": "uint256",
                                "value": "115,792,089,237,316,195,423,570,985,008,687,907,853,269,984,665,640,564,039,457,584,007,913,129,639,935"
                            }
                        ],
                        "signature": "allowance(address,address)"
                    },
                    "errorInfo": "",
                    "fromAddress": "0xb60acd2057067dc9ed8c083f5aa227a244044fd6",
                    "gasUsed": 2827,
                    "id": 7,
                    "methodDecoded": true,
                    "operation": "DELEGATECALL",
                    "output": "0xffffffffffffffffffffffffffffffffffffffffffffffffffffffffffffffff",
                    "revert": false,
                    "revertMessage": "",
                    "selector": "0xdd62ed3e",
                    "status": true,
                    "value": "0"
                },
                "nodeType": 0
            },
            "8": {
                "invocation": {
                    "address": "0x60ccefd60ba522f9221f122bb80a1e8cbab9285f",
                    "callData": "0x000000000000000000000000233d32d4d33ed5f2d6b8544137c8836249de372f000000000000000000000000b60acd2057067dc9ed8c083f5aa227a244044fd600000000000000000000000000000000000000000000000000000000fe57b7890000000000000000000000000000000000000000000000000000000000000000",
                    "decodedMethod": {
                        "callParams": [
                            {
                                "name": "receiver",
                                "type": "address",
                                "value": "0x233d32d4d33ed5f2d6b8544137c8836249de372f"
                            },
                            {
                                "name": "tokenIn",
                                "type": "address",
                                "value": "0xb60acd2057067dc9ed8c083f5aa227a244044fd6"
                            },
                            {
                                "name": "amountTokenToDeposit",
                                "type": "uint256",
                                "value": "4,267,161,481"
                            },
                            {
                                "name": "minSharesOut",
                                "type": "uint256",
                                "value": "0"
                            }
                        ],
                        "constructorArguments": "",
                        "name": "deposit",
                        "returnParams": [
                            {
                                "name": "amountSharesOut",
                                "type": "uint256",
                                "value": "4,267,161,481"
                            }
                        ],
                        "signature": "deposit(address,address,uint256,uint256)"
                    },
                    "errorInfo": "",
                    "fromAddress": "0x888888888889758f76e7103c6cbf23abbf58f946",
                    "gasUsed": 34799,
                    "id": 8,
                    "methodDecoded": true,
                    "operation": "CALL",
                    "output": "0x00000000000000000000000000000000000000000000000000000000fe57b789",
                    "revert": false,
                    "revertMessage": "",
                    "selector": "0x20e8c565",
                    "status": true,
                    "value": "0"
                },
                "nodeType": 0
            },
            "9": {
                "invocation": {
                    "address": "0x820a7f7cce3c799ef032fbd0cb27094c0a66db63",
                    "callData": "0x000000000000000000000000233d32d4d33ed5f2d6b8544137c8836249de372f000000000000000000000000b60acd2057067dc9ed8c083f5aa227a244044fd600000000000000000000000000000000000000000000000000000000fe57b7890000000000000000000000000000000000000000000000000000000000000000",
                    "decodedMethod": {
                        "callParams": [
                            {
                                "name": "receiver",
                                "type": "address",
                                "value": "0x233d32d4d33ed5f2d6b8544137c8836249de372f"
                            },
                            {
                                "name": "tokenIn",
                                "type": "address",
                                "value": "0xb60acd2057067dc9ed8c083f5aa227a244044fd6"
                            },
                            {
                                "name": "amountTokenToDeposit",
                                "type": "uint256",
                                "value": "4,267,161,481"
                            },
                            {
                                "name": "minSharesOut",
                                "type": "uint256",
                                "value": "0"
                            }
                        ],
                        "constructorArguments": "",
                        "name": "deposit",
                        "returnParams": [
                            {
                                "name": "amountSharesOut",
                                "type": "uint256",
                                "value": "4,267,161,481"
                            }
                        ],
                        "signature": "deposit(address,address,uint256,uint256)"
                    },
                    "errorInfo": "",
                    "fromAddress": "0x60ccefd60ba522f9221f122bb80a1e8cbab9285f",
                    "gasUsed": 27839,
                    "id": 9,
                    "methodDecoded": true,
                    "operation": "DELEGATECALL",
                    "output": "0x00000000000000000000000000000000000000000000000000000000fe57b789",
                    "revert": false,
                    "revertMessage": "",
                    "selector": "0x20e8c565",
                    "status": true,
                    "value": "0"
                },
                "nodeType": 0
            }
        },
        "gasFlame": [
            {
                "children": [
                    {
                        "children": [
                            {
                                "children": [],
                                "depth": 0,
                                "name": "Initial Gas",
                                "value": 23948
                            },
                            {
                                "children": [
                                    {
                                        "children": [
                                            {
                                                "children": [],
                                                "depth": 2,
                                                "name": "SY",
                                                "value": 642
                                            },
                                            {
                                                "children": [
                                                    {
                                                        "children": [],
                                                        "depth": 3,
                                                        "name": "transferFrom",
                                                        "value": 35830
                                                    }
                                                ],
                                                "depth": 2,
                                                "name": "transferFrom",
                                                "value": 40787
                                            },
                                            {
                                                "children": [
                                                    {
                                                        "children": [],
                                                        "depth": 3,
                                                        "name": "allowance",
                                                        "value": 2827
                                                    }
                                                ],
                                                "depth": 2,
                                                "name": "allowance",
                                                "value": 3278
                                            },
                                            {
                                                "children": [
                                                    {
                                                        "children": [
                                                            {
                                                                "children": [
                                                                    {
                                                                        "children": [],
                                                                        "depth": 5,
                                                                        "name": "transferFrom",
                                                                        "value": 8647
                                                                    }
                                                                ],
                                                                "depth": 4,
                                                                "name": "transferFrom",
                                                                "value": 9104
                                                            }
                                                        ],
                                                        "depth": 3,
                                                        "name": "deposit",
                                                        "value": 27839
                                                    }
                                                ],
                                                "depth": 2,
                                                "name": "deposit",
                                                "value": 34799
                                            },
                                            {
                                                "children": [
                                                    {
                                                        "children": [
                                                            {
                                                                "children": [],
                                                                "depth": 4,
                                                                "name": "balanceOf",
                                                                "value": 756
                                                            }
                                                        ],
                                                        "depth": 3,
                                                        "name": "balanceOf",
                                                        "value": 1201
                                                    },
                                                    {
                                                        "children": [
                                                            {
                                                                "children": [
                                                                    {
                                                                        "children": [
                                                                            {
                                                                                "children": [],
                                                                                "depth": 6,
                                                                                "name": "exchangeRate",
                                                                                "value": 2363
                                                                            }
                                                                        ],
                                                                        "depth": 5,
                                                                        "name": "exchangeRate",
                                                                        "value": 2808
                                                                    }
                                                                ],
                                                                "depth": 4,
                                                                "name": "exchangeRate",
                                                                "value": 3615
                                                            }
                                                        ],
                                                        "depth": 3,
                                                        "name": "exchangeRate",
                                                        "value": 4057
                                                    },
                                                    {
                                                        "children": [
                                                            {
                                                                "children": [],
                                                                "depth": 4,
                                                                "name": "getRewardTokens",
                                                                "value": 1036
                                                            }
                                                        ],
                                                        "depth": 3,
                                                        "name": "getRewardTokens",
                                                        "value": 1481
                                                    },
                                                    {
                                                        "children": [
                                                            {
                                                                "children": [],
                                                                "depth": 4,
                                                                "name": "rewardIndexesCurrent",
                                                                "value": 1202
                                                            }
                                                        ],
                                                        "depth": 3,
                                                        "name": "rewardIndexesCurrent",
                                                        "value": 1647
                                                    },
                                                    {
                                                        "children": [],
                                                        "depth": 3,
                                                        "name": "mintByYT",
                                                        "value": 31563
                                                    },
                                                    {
                                                        "children": [
                                                            {
                                                                "children": [],
                                                                "depth": 4,
                                                                "name": "balanceOf",
                                                                "value": 756
                                                            }
                                                        ],
                                                        "depth": 3,
                                                        "name": "balanceOf",
                                                        "value": 1201
                                                    }
                                                ],
                                                "depth": 2,
                                                "name": "mintPY",
                                                "value": 116476
                                            }
                                        ],
                                        "depth": 1,
                                        "name": "mintPyFromToken",
                                        "value": 211048
                                    }
                                ],
                                "depth": 0,
                                "name": "Executed Gas",
                                "value": 216027
                            }
                        ],
                        "depth": -1,
                        "name": "Actual Gas Used",
                        "value": 210475
                    },
                    {
                        "children": [],
                        "depth": -1,
                        "name": "Refunded Gas",
                        "value": 29500
                    }
                ],
                "depth": -2,
                "name": "Total Gas",
                "value": 239975
            }
        ],
        "isConfirmed": true,
        "mainTrace": [
            {
                "children": [
                    {
                        "children": [
                            {
                                "children": [
                                    {
                                        "children": [],
                                        "depth": 2,
                                        "id": 2,
                                        "order": 2
                                    },
                                    {
                                        "children": [
                                            {
                                                "children": [
                                                    {
                                                        "children": [],
                                                        "depth": 4,
                                                        "id": 5,
                                                        "order": 5
                                                    }
                                                ],
                                                "depth": 3,
                                                "id": 4,
                                                "order": 4
                                            }
                                        ],
                                        "depth": 2,
                                        "id": 3,
                                        "order": 3
                                    },
                                    {
                                        "children": [
                                            {
                                                "children": [],
                                                "depth": 3,
                                                "id": 7,
                                                "order": 7
                                            }
                                        ],
                                        "depth": 2,
                                        "id": 6,
                                        "order": 6
                                    },
                                    {
                                        "children": [
                                            {
                                                "children": [
                                                    {
                                                        "children": [
                                                            {
                                                                "children": [
                                                                    {
                                                                        "children": [],
                                                                        "depth": 6,
                                                                        "id": 12,
                                                                        "order": 12
                                                                    }
                                                                ],
                                                                "depth": 5,
                                                                "id": 11,
                                                                "order": 11
                                                            }
                                                        ],
                                                        "depth": 4,
                                                        "id": 10,
                                                        "order": 10
                                                    },
                                                    {
                                                        "children": [],
                                                        "depth": 4,
                                                        "id": 13,
                                                        "order": 13
                                                    },
                                                    {
                                                        "children": [],
                                                        "depth": 4,
                                                        "id": 14,
                                                        "order": 14
                                                    }
                                                ],
                                                "depth": 3,
                                                "id": 9,
                                                "order": 9
                                            }
                                        ],
                                        "depth": 2,
                                        "id": 8,
                                        "order": 8
                                    },
                                    {
                                        "children": [
                                            {
                                                "children": [
                                                    {
                                                        "children": [],
                                                        "depth": 4,
                                                        "id": 17,
                                                        "order": 17
                                                    }
                                                ],
                                                "depth": 3,
                                                "id": 16,
                                                "order": 16
                                            },
                                            {
                                                "children": [
                                                    {
                                                        "children": [
                                                            {
                                                                "children": [
                                                                    {
                                                                        "children": [],
                                                                        "depth": 6,
                                                                        "id": 21,
                                                                        "order": 21
                                                                    }
                                                                ],
                                                                "depth": 5,
                                                                "id": 20,
                                                                "order": 20
                                                            }
                                                        ],
                                                        "depth": 4,
                                                        "id": 19,
                                                        "order": 19
                                                    }
                                                ],
                                                "depth": 3,
                                                "id": 18,
                                                "order": 18
                                            },
                                            {
                                                "children": [],
                                                "depth": 3,
                                                "id": 22,
                                                "order": 22
                                            },
                                            {
                                                "children": [
                                                    {
                                                        "children": [],
                                                        "depth": 4,
                                                        "id": 24,
                                                        "order": 24
                                                    }
                                                ],
                                                "depth": 3,
                                                "id": 23,
                                                "order": 23
                                            },
                                            {
                                                "children": [
                                                    {
                                                        "children": [],
                                                        "depth": 4,
                                                        "id": 26,
                                                        "order": 26
                                                    }
                                                ],
                                                "depth": 3,
                                                "id": 25,
                                                "order": 25
                                            },
                                            {
                                                "children": [],
                                                "depth": 3,
                                                "id": 27,
                                                "order": 27
                                            },
                                            {
                                                "children": [
                                                    {
                                                        "children": [],
                                                        "depth": 4,
                                                        "id": 29,
                                                        "order": 29
                                                    }
                                                ],
                                                "depth": 3,
                                                "id": 28,
                                                "order": 28
                                            },
                                            {
                                                "children": [],
                                                "depth": 3,
                                                "id": 30,
                                                "order": 30
                                            },
                                            {
                                                "children": [
                                                    {
                                                        "children": [],
                                                        "depth": 4,
                                                        "id": 32,
                                                        "order": 32
                                                    }
                                                ],
                                                "depth": 3,
                                                "id": 31,
                                                "order": 31
                                            }
                                        ],
                                        "depth": 2,
                                        "id": 15,
                                        "order": 15
                                    },
                                    {
                                        "children": [],
                                        "depth": 2,
                                        "id": 33,
                                        "order": 33
                                    }
                                ],
                                "depth": 1,
                                "id": 1,
                                "order": 1
                            }
                        ],
                        "depth": 0,
                        "id": 0,
                        "order": 0
                    }
                ],
                "depth": -1,
                "id": -1,
                "order": -1
            }
        ],
        "mainTraceNodeCount": 34,
        "parentIdMap": {
            "0": -1,
            "1": 0,
            "10": 9,
            "11": 10,
            "12": 11,
            "13": 9,
            "14": 9,
            "15": 1,
            "16": 15,
            "17": 16,
            "18": 15,
            "19": 18,
            "2": 1,
            "20": 19,
            "21": 20,
            "22": 15,
            "23": 15,
            "24": 23,
            "25": 15,
            "26": 25,
            "27": 15,
            "28": 15,
            "29": 28,
            "3": 1,
            "30": 15,
            "31": 15,
            "32": 31,
            "33": 1,
            "4": 3,
            "5": 4,
            "6": 1,
            "7": 6,
            "8": 1,
            "9": 8
        },
        "tidyTrace": [
            {
                "children": [
                    {
                        "children": [
                            {
                                "children": [
                                    {
                                        "children": [
                                            {
                                                "children": [
                                                    {
                                                        "children": [],
                                                        "depth": 4,
                                                        "id": 5,
                                                        "order": 5
                                                    }
                                                ],
                                                "depth": 3,
                                                "id": 4,
                                                "order": 4
                                            }
                                        ],
                                        "depth": 2,
                                        "id": 3,
                                        "order": 3
                                    },
                                    {
                                        "children": [
                                            {
                                                "children": [
                                                    {
                                                        "children": [
                                                            {
                                                                "children": [
                                                                    {
                                                                        "children": [],
                                                                        "depth": 6,
                                                                        "id": 12,
                                                                        "order": 12
                                                                    }
                                                                ],
                                                                "depth": 5,
                                                                "id": 11,
                                                                "order": 11
                                                            }
                                                        ],
                                                        "depth": 4,
                                                        "id": 10,
                                                        "order": 10
                                                    },
                                                    {
                                                        "children": [],
                                                        "depth": 4,
                                                        "id": 13,
                                                        "order": 13
                                                    },
                                                    {
                                                        "children": [],
                                                        "depth": 4,
                                                        "id": 14,
                                                        "order": 14
                                                    }
                                                ],
                                                "depth": 3,
                                                "id": 9,
                                                "order": 9
                                            }
                                        ],
                                        "depth": 2,
                                        "id": 8,
                                        "order": 8
                                    },
                                    {
                                        "children": [
                                            {
                                                "children": [],
                                                "depth": 3,
                                                "id": 22,
                                                "order": 22
                                            },
                                            {
                                                "children": [
                                                    {
                                                        "children": [],
                                                        "depth": 4,
                                                        "id": 26,
                                                        "order": 26
                                                    }
                                                ],
                                                "depth": 3,
                                                "id": 25,
                                                "order": 25
                                            },
                                            {
                                                "children": [],
                                                "depth": 3,
                                                "id": 27,
                                                "order": 27
                                            },
                                            {
                                                "children": [
                                                    {
                                                        "children": [],
                                                        "depth": 4,
                                                        "id": 29,
                                                        "order": 29
                                                    }
                                                ],
                                                "depth": 3,
                                                "id": 28,
                                                "order": 28
                                            },
                                            {
                                                "children": [],
                                                "depth": 3,
                                                "id": 30,
                                                "order": 30
                                            }
                                        ],
                                        "depth": 2,
                                        "id": 15,
                                        "order": 15
                                    },
                                    {
                                        "children": [],
                                        "depth": 2,
                                        "id": 33,
                                        "order": 33
                                    }
                                ],
                                "depth": 1,
                                "id": 1,
                                "order": 1
                            }
                        ],
                        "depth": 0,
                        "id": 0,
                        "order": 0
                    }
                ],
                "depth": -1,
                "id": -1,
                "order": -1
            }
        ],
        "tidyTraceNodeCount": 21
    },
    "state_change": {
        "stateChanges": [
            {
                "address": "0x233d32d4d33ed5f2d6b8544137c8836249de372f",
                "erc": "",
                "slots": [
                    {
                        "current": "0x010000000000000000000000000000000000000000000000000003f483f82976",
                        "key": "0x0000000000000000000000000000000000000000000000000000000000000002",
                        "prev": "0x010000000000000000000000000000000000000000000000000003f379724432"
                    },
                    {
                        "current": "0x00000000000000000e8ada1a5dbe4dcd00000000000000000000000001324bbb",
                        "key": "0x000000000000000000000000000000000000000000000000000000000000000b",
                        "prev": "0x00000000000000000e8ada1a5dbe4dcd00000000000000000000000001323eda"
                    },
                    {
                        "current": "0x0000000000000000000000000000000000000000000000000e8ada1a5dbe4dcd",
                        "key": "0x310640302108cd5a93d495cf9bc5ee169dd3b792ca620143473fd12d458a76a4",
                        "prev": "0x0000000000000000000000000000000000000000000000000000000000000000"
                    },
                    {
                        "current": "0x000000000000000000000000000000000000000000000000000000010a85e544",
                        "key": "0x320e6f5ea5fe0ae60a7eed2753688e95a54ce3694db03eff9b484bf939202ce9",
                        "prev": "0x0000000000000000000000000000000000000000000000000000000000000000"
                    },
                    {
                        "current": "0x000000000000000000000000000000000000000000000000000003d5259fa21b",
                        "key": "0x000000000000000000000000000000000000000000000000000000000000000a",
                        "prev": "0x000000000000000000000000000000000000000000000000000003d42747ea92"
                    }
                ],
                "storageVariables": []
            },
            {
                "address": "0x5282ec643c3790e0f781508162a4aa13fd09c528",
                "erc": "",
                "slots": [
                    {
                        "current": "0x010000000000000000000000000000000000000000000000000003f483f82976",
                        "key": "0x0000000000000000000000000000000000000000000000000000000000000002",
                        "prev": "0x010000000000000000000000000000000000000000000000000003f379724432"
                    },
                    {
                        "current": "0x000000000000000000000000000000000000000000000000000000010a85e544",
                        "key": "0x320e6f5ea5fe0ae60a7eed2753688e95a54ce3694db03eff9b484bf939202ce9",
                        "prev": "0x0000000000000000000000000000000000000000000000000000000000000000"
                    }
                ],
                "storageVariables": []
            },
            {
                "address": "0x60ccefd60ba522f9221f122bb80a1e8cbab9285f",
                "erc": "ERC-20",
                "slots": [
                    {
                        "current": "0x000000000000000000000000000000000000000000000000000003d5259fa21b",
                        "key": "0xe47badbf3ccbb1ea4f9f06195d9e8576abfeac1aa2974e8072dae36eee8beb15",
                        "prev": "0x000000000000000000000000000000000000000000000000000003d42747ea92"
                    },
                    {
                        "current": "0x0100000000000000000000000000000000000000000000000000087437a28789",
                        "key": "0x0000000000000000000000000000000000000000000000000000000000000004",
                        "prev": "0x01000000000000000000000000000000000000000000000000000873394ad000"
                    }
                ],
                "storageVariables": [
                    {
                        "name": "_balances",
                        "type": "mapping(address => uint256)",
                        "value": {
                            "pairs": [
                                {
                                    "key": "0x233d32d4d33ed5f2d6b8544137c8836249de372f",
                                    "value": {
                                        "current": "4213994136091",
                                        "prev": "4209726974610",
                                        "typeTag": 1
                                    }
                                }
                            ],
                            "typeTag": 4
                        }
                    },
                    {
                        "name": "_totalSupply",
                        "type": "uint248",
                        "value": {
                            "current": "9295242626953",
                            "prev": "9290975465472",
                            "typeTag": 1
                        }
                    },
                    {
                        "name": "_status",
                        "type": "uint8",
                        "value": {
                            "current": "1",
                            "prev": "1",
                            "typeTag": 1
                        }
                    }
                ]
            },
            {
                "address": "0xb60acd2057067dc9ed8c083f5aa227a244044fd6",
                "erc": "ERC-20",
                "slots": [
                    {
                        "current": "0x0000000000000000000000000000000000000000000000000000000000000000",
                        "key": "0x07fcc0b8997ee29435f82c0a59204629c9b7c077985405acdd06cd67948ebf3f",
                        "prev": "0x00000000000000000000000000000000000000000000000000000000fe57b789"
                    },
                    {
                        "current": "0x0000000000000000000000000000000000000000000000000000000000000000",
                        "key": "0xe1cbaafb5351e72e48e6067ac6117170cc301f8a8273f08bdd12364affdc9efe",
                        "prev": "0x00000000000000000000000000000000000000000000000000000000fe57b789"
                    },
                    {
                        "current": "0x0000000000000000000000000000000000000000000000000000087437a28789",
                        "key": "0x4483ea2453d51054be0c0e13866498475303cb7e07fdf084289b9637630968ec",
                        "prev": "0x00000000000000000000000000000000000000000000000000000873394ad000"
                    }
                ],
                "storageVariables": []
            }
        ]
    }
}