{
    "balance_change": {
        "balanceChanges": [
            {
                "account": "0x7b596c8f1b4db131503eb4f4a06f81c99d47dae1",
                "assets": [
                    {
                        "address": "0xeeeeeeeeeeeeeeeeeeeeeeeeeeeeeeeeeeeeeeee",
                        "amount": "7.509456200999999488",
                        "iconUrl": "https://assets.blocksec.com/image/1663669189317-3.png",
                        "isERC1155": false,
                        "isERC721": false,
                        "sign": false,
                        "value": ""
                    }
                ]
            },
            {
                "account": "0x8643292ca40e4277d04a0dd7d8e754d65023850c",
                "assets": [
                    {
                        "address": "0xeeeeeeeeeeeeeeeeeeeeeeeeeeeeeeeeeeeeeeee",
                        "amount": "7.509456200999999488",
                        "iconUrl": "https://assets.blocksec.com/image/1663669189317-3.png",
                        "isERC1155": false,
                        "isERC721": false,
                        "sign": true,
                        "value": ""
                    }
                ]
            }
        ]
    },
    "profile": {
        "basic_info": {
            "baseFee": "",
            "blockNumber": 5393938,
            "callData": "0xb5c5f6720000000000000000000000008643292ca40e4277d04a0dd7d8e754d65023850c0000000000000000000000000000000000000000000000006836f2a0c4f59800000000000000000000000000000000000000000000000000000000000001cc8a",
            "debugEnable": true,
            "errorInfo": "",
            "eventCount": 1,
            "feeRecipient": "0xea674fdde714fd979de3edf0f56aa9716b898ec8",
            "formatValue": "0",
            "gasLimit": 500000,
            "gasPrice": "2.2",
            "gasUsed": 41531,
            "intTxnCount": 1,
            "internalRevert": false,
            "internalRevertMessage": "",
            "isContractCreation": false,
            "isFlashloan": false,
            "maxFee": "",
            "nonce": 21547,
            "overwritedBlockNumber": -1,
            "priorityFee": "",
            "receiver": "0x7b596c8f1b4db131503eb4f4a06f81c99d47dae1",
            "revertMessage": "",
            "sender": "0x1ff51be83c1c12793ffe2d66723946d26f443015",
            "simulationEnable": true,
            "sourceTxnHash": "0x1807c24b77bc5d2d99f8944b2de1ff8f04d1ea5096621232518f27df200da2da",
            "status": true,
            "timestamp": "2018-04-06T23:44:08Z",
            "transactionFee": "0.0000913682",
            "txnHash": "0x1807c24b77bc5d2d99f8944b2de1ff8f04d1ea5096621232518f27df200da2da",
            "txnIndex": 30,
            "type": 0,
            "value": "0"
        },
        "fund_flow": [
            {
                "amount": "7.509456200999999488",
                "from": "0x7b596c8f1b4db131503eb4f4a06f81c99d47dae1",
                "id": 1,
                "isERC1155": false,
                "isERC721": false,
                "isReverted": false,
                "order": 1,
                "to": "0x8643292ca40e4277d04a0dd7d8e754d65023850c",
                "token": "0xeeeeeeeeeeeeeeeeeeeeeeeeeeeeeeeeeeeeeeee"
            }
        ],
        "token_infos": [
            {
                "address": "0xeeeeeeeeeeeeeeeeeeeeeeeeeeeeeeeeeeeeeeee",
                "decimals": 18
            },
            {
                "address": "0xc02aaa39b223fe8d0a0e5c4f27ead9083c756cc2",
                "decimals": 18
            }
        ]
    },
    "address_label": {
        "labels": [
            {
                "address": "0x0000000000000000000000000000000000000004",
                "label": "Precompiled"
            },
            {
                "address": "0xeeeeeeeeeeeeeeeeeeeeeeeeeeeeeeeeeeeeeeee",
                "label": "Ether"
            },
            {
                "address": "0x0000000000000000000000000000000000000001",
                "label": "Precompiled"
            },
            {
                "address": "0x0000000000000000000000000000000000000002",
                "label": "Precompiled"
            },
            {
                "address": "0x0000000000000000000000000000000000000003",
                "label": "Precompiled"
            }
        ]
    },
    "trace": {
        "accountLabels": null,
        "dataMap": {
            "-1": {
                "invocation": {
                    "address": "0x1ff51be83c1c12793ffe2d66723946d26f443015",
                    "callData": "",
                    "decodedMethod": null,
                    "errorInfo": "",
                    "fromAddress": "",
                    "gasUsed": 0,
                    "id": -1,
                    "methodDecoded": false,
                    "operation": "",
                    "output": "",
                    "revert": false,
                    "revertMessage": "",
                    "selector": "",
                    "status": false,
                    "value": ""
                },
                "nodeType": 0
            },
            "0": {
                "invocation": {
                    "address": "0x7b596c8f1b4db131503eb4f4a06f81c99d47dae1",
                    "callData": "0x0000000000000000000000008643292ca40e4277d04a0dd7d8e754d65023850c0000000000000000000000000000000000000000000000006836f2a0c4f59800000000000000000000000000000000000000000000000000000000000001cc8a",
                    "decodedMethod": {
                        "callParams": [
                            {
                                "name": "account",
                                "type": "address",
                                "value": "0x8643292ca40e4277d04a0dd7d8e754d65023850c"
                            },
                            {
                                "name": "share",
                                "type": "uint256",
                                "value": "7,509,456,200,999,999,488"
                            },
                            {
                                "name": "totalShares",
                                "type": "uint256",
                                "value": "117,898"
                            }
                        ],
                        "constructorArguments": "",
                        "name": "withdraw",
                        "returnParams": [],
                        "signature": "withdraw(address,uint256,uint256)"
                    },
                    "errorInfo": "",
                    "fromAddress": "0x1ff51be83c1c12793ffe2d66723946d26f443015",
                    "gasUsed": 41531,
                    "id": 0,
                    "methodDecoded": true,
                    "operation": "CALL",
                    "output": "",
                    "revert": false,
                    "revertMessage": "",
                    "selector": "0xb5c5f672",
                    "status": true,
                    "value": "0"
                },
                "nodeType": 0
            },
            "1": {
                "invocation": {
                    "address": "0x8643292ca40e4277d04a0dd7d8e754d65023850c",
                    "callData": "0x",
                    "decodedMethod": null,
                    "errorInfo": "",
                    "fromAddress": "0x7b596c8f1b4db131503eb4f4a06f81c99d47dae1",
                    "gasUsed": 0,
                    "id": 1,
                    "methodDecoded": false,
                    "operation": "CALL",
                    "output": "",
                    "revert": false,
                    "revertMessage": "",
                    "selector": "fallback",
                    "status": true,
                    "value": "7.509456200999999488"
                },
                "nodeType": 0
            },
            "2": {
                "event": {
                    "contract": "0x7b596c8f1b4db131503eb4f4a06f81c99d47dae1",
                    "decodedLog": null,
                    "id": 2,
                    "logData": "0x0000000000000000000000008643292ca40e4277d04a0dd7d8e754d65023850c0000000000000000000000000000000000000000000000006836f2a0c4f5980000000000000000000000000000000000000000000000000000000000000000000000000000000000000000000000000000000000000000000000000000000000",
                    "logDecoded": false,
                    "operation": "EVENT",
                    "revert": false,
                    "status": true,
                    "topics": [
                        "0xa522f866f9e2c5c868ecbb5834c81f0cc6e0ba9bc7404b83a93ad56707a52a2e",
                        "0x000000000000000000000000000000000000000000000000000000000001cc8a"
                    ]
                },
                "nodeType": 1
            }
        },
        "gasFlame": [
            {
                "children": [
                    {
                        "children": [
                            {
                                "children": [],
                                "depth": 0,
                                "name": "Initial Gas",
                                "value": 23576
                            },
                            {
                                "children": [
                                    {
                                        "children": [],
                                        "depth": 1,
                                        "name": "fallback",
                                        "value": 0
                                    }
                                ],
                                "depth": 0,
                                "name": "Executed Gas",
                                "value": 17955
                            }
                        ],
                        "depth": -1,
                        "name": "Actual Gas Used",
                        "value": 41531
                    },
                    {
                        "children": [],
                        "depth": -1,
                        "name": "Refunded Gas",
                        "value": 0
                    }
                ],
                "depth": -2,
                "name": "Total Gas",
                "value": 41531
            }
        ],
        "isConfirmed": true,
        "mainTrace": [
            {
                "children": [
                    {
                        "children": [
                            {
                                "children": [],
                                "depth": 1,
                                "id": 1,
                                "order": 1
                            },
                            {
                                "children": [],
                                "depth": 1,
                                "id": 2,
                                "order": 2
                            }
                        ],
                        "depth": 0,
                        "id": 0,
                        "order": 0
                    }
                ],
                "depth": -1,
                "id": -1,
                "order": -1
            }
        ],
        "mainTraceNodeCount": 3,
        "parentIdMap": {
            "0": -1,
            "1": 0,
            "2": 0
        },
        "tidyTrace": [
            {
                "children": [
                    {
                        "children": [
                            {
                                "children": [],
                                "depth": 1,
                                "id": 1,
                                "order": 1
                            },
                            {
                                "children": [],
                                "depth": 1,
                                "id": 2,
                                "order": 2
                            }
                        ],
                        "depth": 0,
                        "id": 0,
                        "order": 0
                    }
                ],
                "depth": -1,
                "id": -1,
                "order": -1
            }
        ],
        "tidyTraceNodeCount": 3
    },
    "state_change": {
        "stateChanges": [
            {
                "address": "0x7b596c8f1b4db131503eb4f4a06f81c99d47dae1",
                "erc": "",
                "slots": [
                    {
                        "current": "0x00000000000000000000000000000000000000000000000364b9c58a351a6000",
                        "key": "0x0000000000000000000000000000000000000000000000000000000000000003",
                        "prev": "0x000000000000000000000000000000000000000000000002fc82d2e97024c800"
                    }
                ],
                "storageVariables": []
            }
        ]
    }
}