{
    "balance_change": {
        "balanceChanges": []
    },
    "profile": {
        "basic_info": {
            "baseFee": "14.300827247",
            "blockNumber": 16155833,
            "callData": "0x12aa3caf0000000000000000000000003b17056cc4439c61cea41fe1c9f517af75a978f70000000000000000000000000f51bb10119727a7e5ea3538074fb341f56b09ad000000000000000000000000dac17f958d2ee523a2206206994597c13d831ec70000000000000000000000004cd36d6f32586177e36179a810595a33163a20bf0000000000000000000000006aa674ca68ece98a08ed7e41abadead2241394fc00000000000000000000000000000000000000000000012c33ae0b1b54cde4430000000000000000000000000000000000000000000000000000000119c4beb6000000000000000000000000000000000000000000000000000000000000000400000000000000000000000000000000000000000000000000000000000001400000000000000000000000000000000000000000000000000000000000000160000000000000000000000000000000000000000000000000000000000000000000000000000000000000000000000000000000000000000000000000000003157e9dd50612dcafbce9faf11a0aff532bcff75abf1d946217cdf57e09eb44e9b6e85779c6f1ce3e00c033dfff7f4050033c4e9c41e101afd5d91ae2c9c595b1530000000000000000000000000000000000000000000002b700028900023f00a007e5c0d200000000000000000000000000000000000000000000021b00020100006700206ae4071138002dc6c04cd36d6f32586177e36179a810595a33163a20bfe7b0ce0526fbe3969035a145c9e9691d4d9d216c00000000000000000000000000000000000000000000000000000001185a44d40f51bb10119727a7e5ea3538074fb341f56b09ad4020e7b0ce0526fbe3969035a145c9e9691d4d9d216c2b651a6c000000000000000000000000a0b86991c6218b36c1d19d4a2e9eb0ce3606eb48000000000000000000000000dac17f958d2ee523a2206206994597c13d831ec7000000000000000000000000000000000000000000000000000000011b2f3899000000000000000000000000000000000000000000000000000000011b2f38990000000005f5e1000000000005f5e10000b1a2bc2ec5000000bc01316394c3520000000000000000000000003b17056cc4439c61cea41fe1c9f517af75a978f7000000000000000000000000000000000000000000000000000000000000001ba1c9a8c3c8488d2d7df2555b04c9773544acb7068d758ce4fbc53d138fbcb6861be36e5bfe9680eabc2854c806487025dd9be6a77d7ea715a047d3e0783f250e0000000000000000000000000000000000000000000000000000000000000140000000000000000000000000000000000000000000000000000000000000002031494e43480000000000000000000000000000000000000000000000000000000020d6bdbf78dac17f958d2ee523a2206206994597c13d831ec700a0f2fa6b66dac17f958d2ee523a2206206994597c13d831ec7000000000000000000000000000000000000000000000000000000011b2f3899000000000000000000000000007a120080a06c4eca27dac17f958d2ee523a2206206994597c13d831ec71111111254eeb25477b68fb85ed929f73a9605820000000000000000000000e26b9977",
            "debugEnable": true,
            "errorInfo": "execution reverted",
            "eventCount": 5,
            "feeRecipient": "0xeee27662c2b8eba3cd936a23f039f3189633e4c8",
            "formatValue": "0",
            "gasLimit": 303119,
            "gasPrice": "16.350827247",
            "gasUsed": 201396,
            "intTxnCount": 17,
            "internalRevert": true,
            "internalRevertMessage": "",
            "isContractCreation": false,
            "isFlashloan": false,
            "maxFee": "28.96",
            "nonce": 682,
            "overwritedBlockNumber": -1,
            "priorityFee": "2.05",
            "receiver": "0x1111111254eeb25477b68fb85ed929f73a960582",
            "revertMessage": "Clipper: Expired",
            "sender": "0x6aa674ca68ece98a08ed7e41abadead2241394fc",
            "simulationEnable": true,
            "sourceTxnHash": "0x19d912a49d19b7ca9e1306af3d1b3f34121e9666b3b40a0bb10d7db61002f465",
            "status": false,
            "timestamp": "2022-12-10T17:35:23Z",
            "transactionFee": "0.003292991204236812",
            "txnHash": "0x19d912a49d19b7ca9e1306af3d1b3f34121e9666b3b40a0bb10d7db61002f465",
            "txnIndex": 49,
            "type": 2,
            "value": "0"
        },
        "fund_flow": [],
        "token_infos": [
            {
                "address": "0xa0b86991c6218b36c1d19d4a2e9eb0ce3606eb48",
                "decimals": 6
            },
            {
                "address": "0xc02aaa39b223fe8d0a0e5c4f27ead9083c756cc2",
                "decimals": 18
            },
            {
                "address": "0xeeeeeeeeeeeeeeeeeeeeeeeeeeeeeeeeeeeeeeee",
                "decimals": 18
            },
            {
                "address": "0x0f51bb10119727a7e5ea3538074fb341f56b09ad",
                "decimals": 18
            }
        ]
    },
    "address_label": {
        "labels": [
            {
                "address": "0x1111111254eeb25477b68fb85ed929f73a960582",
                "label": "Aggregation Router V5"
            },
            {
                "address": "0xdac17f958d2ee523a2206206994597c13d831ec7",
                "label": "Tether: USDT Stablecoin"
            },
            {
                "address": "0x3b17056cc4439c61cea41fe1c9f517af75a978f7",
                "label": "1INCH.EXCHANGE"
            },
            {
                "address": "0xeeeeeeeeeeeeeeeeeeeeeeeeeeeeeeeeeeeeeeee",
                "label": "Ether"
            },
            {
                "address": "0x0f51bb10119727a7e5ea3538074fb341f56b09ad",
                "label": "DAO Maker: DAO Token"
            },
            {
                "address": "0x4cd36d6f32586177e36179a810595a33163a20bf",
                "label": "Uniswap V2: DAO-USDC"
            },
            {
                "address": "0xe7b0ce0526fbe3969035a145c9e9691d4d9d216c",
                "label": "Clipper Exchange: Old Pool"
            },
            {
                "address": "0x0000000000000000000000000000000000000001",
                "label": "Precompiled"
            },
            {
                "address": "0x0000000000000000000000000000000000000004",
                "label": "Precompiled"
            },
            {
                "address": "0xa2327a938febf5fec13bacfb16ae10ecbc4cbdcf",
                "label": "FiatTokenV2_1"
            },
            {
                "address": "0xa0b86991c6218b36c1d19d4a2e9eb0ce3606eb48",
                "label": "Circle: USDC Token"
            },
            {
                "address": "0x0000000000000000000000000000000000000002",
                "label": "Precompiled"
            },
            {
                "address": "0x0000000000000000000000000000000000000003",
                "label": "Precompiled"
            }
        ]
    },
    "trace": {
        "accountLabels": null,
        "dataMap": {
            "-1": {
                "invocation": {
                    "address": "0x6aa674ca68ece98a08ed7e41abadead2241394fc",
                    "callData": "",
                    "decodedMethod": null,
                    "errorInfo": "",
                    "fromAddress": "",
                    "gasUsed": 0,
                    "id": -1,
                    "methodDecoded": false,
                    "operation": "",
                    "output": "",
                    "revert": false,
                    "revertMessage": "",
                    "selector": "",
                    "status": false,
                    "value": ""
                },
                "nodeType": 0
            },
            "0": {
                "invocation": {
                    "address": "0x1111111254eeb25477b68fb85ed929f73a960582",
                    "callData": "0x0000000000000000000000003b17056cc4439c61cea41fe1c9f517af75a978f70000000000000000000000000f51bb10119727a7e5ea3538074fb341f56b09ad000000000000000000000000dac17f958d2ee523a2206206994597c13d831ec70000000000000000000000004cd36d6f32586177e36179a810595a33163a20bf0000000000000000000000006aa674ca68ece98a08ed7e41abadead2241394fc00000000000000000000000000000000000000000000012c33ae0b1b54cde4430000000000000000000000000000000000000000000000000000000119c4beb6000000000000000000000000000000000000000000000000000000000000000400000000000000000000000000000000000000000000000000000000000001400000000000000000000000000000000000000000000000000000000000000160000000000000000000000000000000000000000000000000000000000000000000000000000000000000000000000000000000000000000000000000000003157e9dd50612dcafbce9faf11a0aff532bcff75abf1d946217cdf57e09eb44e9b6e85779c6f1ce3e00c033dfff7f4050033c4e9c41e101afd5d91ae2c9c595b1530000000000000000000000000000000000000000000002b700028900023f00a007e5c0d200000000000000000000000000000000000000000000021b00020100006700206ae4071138002dc6c04cd36d6f32586177e36179a810595a33163a20bfe7b0ce0526fbe3969035a145c9e9691d4d9d216c00000000000000000000000000000000000000000000000000000001185a44d40f51bb10119727a7e5ea3538074fb341f56b09ad4020e7b0ce0526fbe3969035a145c9e9691d4d9d216c2b651a6c000000000000000000000000a0b86991c6218b36c1d19d4a2e9eb0ce3606eb48000000000000000000000000dac17f958d2ee523a2206206994597c13d831ec7000000000000000000000000000000000000000000000000000000011b2f3899000000000000000000000000000000000000000000000000000000011b2f38990000000005f5e1000000000005f5e10000b1a2bc2ec5000000bc01316394c3520000000000000000000000003b17056cc4439c61cea41fe1c9f517af75a978f7000000000000000000000000000000000000000000000000000000000000001ba1c9a8c3c8488d2d7df2555b04c9773544acb7068d758ce4fbc53d138fbcb6861be36e5bfe9680eabc2854c806487025dd9be6a77d7ea715a047d3e0783f250e0000000000000000000000000000000000000000000000000000000000000140000000000000000000000000000000000000000000000000000000000000002031494e43480000000000000000000000000000000000000000000000000000000020d6bdbf78dac17f958d2ee523a2206206994597c13d831ec700a0f2fa6b66dac17f958d2ee523a2206206994597c13d831ec7000000000000000000000000000000000000000000000000000000011b2f3899000000000000000000000000007a120080a06c4eca27dac17f958d2ee523a2206206994597c13d831ec71111111254eeb25477b68fb85ed929f73a9605820000000000000000000000e26b9977",
                    "decodedMethod": {
                        "callParams": [
                            {
                                "name": "executor",
                                "type": "address",
                                "value": "0x3b17056cc4439c61cea41fe1c9f517af75a978f7"
                            },
                            {
                                "name": "desc",
                                "type": "(address,address,address,address,uint256,uint256,uint256)",
                                "value": [
                                    {
                                        "name": "srcToken",
                                        "type": "address",
                                        "value": "0x0f51bb10119727a7e5ea3538074fb341f56b09ad"
                                    },
                                    {
                                        "name": "dstToken",
                                        "type": "address",
                                        "value": "0xdac17f958d2ee523a2206206994597c13d831ec7"
                                    },
                                    {
                                        "name": "srcReceiver",
                                        "type": "address",
                                        "value": "0x4cd36d6f32586177e36179a810595a33163a20bf"
                                    },
                                    {
                                        "name": "dstReceiver",
                                        "type": "address",
                                        "value": "0x6aa674ca68ece98a08ed7e41abadead2241394fc"
                                    },
                                    {
                                        "name": "amount",
                                        "type": "uint256",
                                        "value": "5,537,747,148,266,762,265,667"
                                    },
                                    {
                                        "name": "minReturnAmount",
                                        "type": "uint256",
                                        "value": "4,727,291,574"
                                    },
                                    {
                                        "name": "flags",
                                        "type": "uint256",
                                        "value": "4"
                                    }
                                ]
                            },
                            {
                                "name": "permit",
                                "type": "bytes",
                                "value": "0x"
                            },
                            {
                                "name": "data",
                                "type": "bytes",
                                "value": "0x7e9dd50612dcafbce9faf11a0aff532bcff75abf1d946217cdf57e09eb44e9b6e85779c6f1ce3e00c033dfff7f4050033c4e9c41e101afd5d91ae2c9c595b1530000000000000000000000000000000000000000000002b700028900023f00a007e5c0d200000000000000000000000000000000000000000000021b00020100006700206ae4071138002dc6c04cd36d6f32586177e36179a810595a33163a20bfe7b0ce0526fbe3969035a145c9e9691d4d9d216c00000000000000000000000000000000000000000000000000000001185a44d40f51bb10119727a7e5ea3538074fb341f56b09ad4020e7b0ce0526fbe3969035a145c9e9691d4d9d216c2b651a6c000000000000000000000000a0b86991c6218b36c1d19d4a2e9eb0ce3606eb48000000000000000000000000dac17f958d2ee523a2206206994597c13d831ec7000000000000000000000000000000000000000000000000000000011b2f3899000000000000000000000000000000000000000000000000000000011b2f38990000000005f5e1000000000005f5e10000b1a2bc2ec5000000bc01316394c3520000000000000000000000003b17056cc4439c61cea41fe1c9f517af75a978f7000000000000000000000000000000000000000000000000000000000000001ba1c9a8c3c8488d2d7df2555b04c9773544acb7068d758ce4fbc53d138fbcb6861be36e5bfe9680eabc2854c806487025dd9be6a77d7ea715a047d3e0783f250e0000000000000000000000000000000000000000000000000000000000000140000000000000000000000000000000000000000000000000000000000000002031494e43480000000000000000000000000000000000000000000000000000000020d6bdbf78dac17f958d2ee523a2206206994597c13d831ec700a0f2fa6b66dac17f958d2ee523a2206206994597c13d831ec7000000000000000000000000000000000000000000000000000000011b2f3899000000000000000000000000007a120080a06c4eca27dac17f958d2ee523a2206206994597c13d831ec71111111254eeb25477b68fb85ed929f73a960582"
                            }
                        ],
                        "constructorArguments": "",
                        "name": "swap",
                        "returnParams": [],
                        "signature": "swap(address,(address,address,address,address,uint256,uint256,uint256),bytes,bytes)"
                    },
                    "errorInfo": "execution reverted",
                    "fromAddress": "0x6aa674ca68ece98a08ed7e41abadead2241394fc",
                    "gasUsed": 201396,
                    "id": 0,
                    "methodDecoded": true,
                    "operation": "CALL",
                    "output": "0x08c379a000000000000000000000000000000000000000000000000000000000000000200000000000000000000000000000000000000000000000000000000000000010436c69707065723a204578706972656400000000000000000000000000000000",
                    "revert": true,
                    "revertMessage": "Clipper: Expired",
                    "selector": "0x12aa3caf",
                    "status": false,
                    "value": "0"
                },
                "nodeType": 0
            },
            "1": {
                "invocation": {
                    "address": "0x0f51bb10119727a7e5ea3538074fb341f56b09ad",
                    "callData": "0x0000000000000000000000006aa674ca68ece98a08ed7e41abadead2241394fc0000000000000000000000004cd36d6f32586177e36179a810595a33163a20bf00000000000000000000000000000000000000000000012c33ae0b1b54cde443",
                    "decodedMethod": {
                        "callParams": [
                            {
                                "name": "sender",
                                "type": "address",
                                "value": "0x6aa674ca68ece98a08ed7e41abadead2241394fc"
                            },
                            {
                                "name": "recipient",
                                "type": "address",
                                "value": "0x4cd36d6f32586177e36179a810595a33163a20bf"
                            },
                            {
                                "decimalAvailable": true,
                                "name": "amount",
                                "type": "uint256",
                                "value": "5,537,747,148,266,762,265,667"
                            }
                        ],
                        "constructorArguments": "",
                        "name": "transferFrom",
                        "returnParams": [
                            {
                                "name": "",
                                "type": "bool",
                                "value": true
                            }
                        ],
                        "signature": "transferFrom(address,address,uint256)"
                    },
                    "errorInfo": "",
                    "fromAddress": "0x1111111254eeb25477b68fb85ed929f73a960582",
                    "gasUsed": 20764,
                    "id": 1,
                    "methodDecoded": true,
                    "operation": "CALL",
                    "output": "0x0000000000000000000000000000000000000000000000000000000000000001",
                    "revert": true,
                    "revertMessage": "",
                    "selector": "0x23b872dd",
                    "status": true,
                    "value": "0"
                },
                "nodeType": 0
            },
            "10": {
                "invocation": {
                    "address": "0x4cd36d6f32586177e36179a810595a33163a20bf",
                    "callData": "0x0000000000000000000000000000000000000000000000000000000000000000000000000000000000000000000000000000000000000000000000011b2f3899000000000000000000000000e7b0ce0526fbe3969035a145c9e9691d4d9d216c00000000000000000000000000000000000000000000000000000000000000800000000000000000000000000000000000000000000000000000000000000000",
                    "decodedMethod": {
                        "callParams": [
                            {
                                "name": "amount0Out",
                                "type": "uint256",
                                "value": "0"
                            },
                            {
                                "name": "amount1Out",
                                "type": "uint256",
                                "value": "4,751,046,809"
                            },
                            {
                                "name": "to",
                                "type": "address",
                                "value": "0xe7b0ce0526fbe3969035a145c9e9691d4d9d216c"
                            },
                            {
                                "name": "data",
                                "type": "bytes",
                                "value": "0x"
                            }
                        ],
                        "constructorArguments": "",
                        "name": "swap",
                        "returnParams": [],
                        "signature": "swap(uint256,uint256,address,bytes)"
                    },
                    "errorInfo": "",
                    "fromAddress": "0x3b17056cc4439c61cea41fe1c9f517af75a978f7",
                    "gasUsed": 62776,
                    "id": 10,
                    "methodDecoded": true,
                    "operation": "CALL",
                    "output": "",
                    "revert": true,
                    "revertMessage": "",
                    "selector": "0x022c0d9f",
                    "status": true,
                    "value": "0"
                },
                "nodeType": 0
            },
            "11": {
                "invocation": {
                    "address": "0xa0b86991c6218b36c1d19d4a2e9eb0ce3606eb48",
                    "callData": "0x000000000000000000000000e7b0ce0526fbe3969035a145c9e9691d4d9d216c000000000000000000000000000000000000000000000000000000011b2f3899",
                    "decodedMethod": {
                        "callParams": [
                            {
                                "name": "to",
                                "type": "address",
                                "value": "0xe7b0ce0526fbe3969035a145c9e9691d4d9d216c"
                            },
                            {
                                "decimalAvailable": true,
                                "name": "value",
                                "type": "uint256",
                                "value": "4,751,046,809"
                            }
                        ],
                        "constructorArguments": "",
                        "name": "transfer",
                        "returnParams": [
                            {
                                "name": "",
                                "type": "bool",
                                "value": true
                            }
                        ],
                        "signature": "transfer(address,uint256)"
                    },
                    "errorInfo": "",
                    "fromAddress": "0x4cd36d6f32586177e36179a810595a33163a20bf",
                    "gasUsed": 26917,
                    "id": 11,
                    "methodDecoded": true,
                    "operation": "CALL",
                    "output": "0x0000000000000000000000000000000000000000000000000000000000000001",
                    "revert": true,
                    "revertMessage": "",
                    "selector": "0xa9059cbb",
                    "status": true,
                    "value": "0"
                },
                "nodeType": 0
            },
            "12": {
                "invocation": {
                    "address": "0xa2327a938febf5fec13bacfb16ae10ecbc4cbdcf",
                    "callData": "0x000000000000000000000000e7b0ce0526fbe3969035a145c9e9691d4d9d216c000000000000000000000000000000000000000000000000000000011b2f3899",
                    "decodedMethod": {
                        "callParams": [
                            {
                                "name": "to",
                                "type": "address",
                                "value": "0xe7b0ce0526fbe3969035a145c9e9691d4d9d216c"
                            },
                            {
                                "decimalAvailable": true,
                                "name": "value",
                                "type": "uint256",
                                "value": "4,751,046,809"
                            }
                        ],
                        "constructorArguments": "",
                        "name": "transfer",
                        "returnParams": [
                            {
                                "name": "",
                                "type": "bool",
                                "value": true
                            }
                        ],
                        "signature": "transfer(address,uint256)"
                    },
                    "errorInfo": "",
                    "fromAddress": "0xa0b86991c6218b36c1d19d4a2e9eb0ce3606eb48",
                    "gasUsed": 19628,
                    "id": 12,
                    "methodDecoded": true,
                    "operation": "DELEGATECALL",
                    "output": "0x0000000000000000000000000000000000000000000000000000000000000001",
                    "revert": true,
                    "revertMessage": "",
                    "selector": "0xa9059cbb",
                    "status": true,
                    "value": "0"
                },
                "nodeType": 0
            },
            "13": {
                "event": {
                    "contract": "0xa0b86991c6218b36c1d19d4a2e9eb0ce3606eb48",
                    "decodedLog": {
                        "name": "Transfer",
                        "params": [
                            {
                                "name": "from",
                                "type": "address",
                                "value": "0x4cd36d6f32586177e36179a810595a33163a20bf"
                            },
                            {
                                "name": "to",
                                "type": "address",
                                "value": "0xe7b0ce0526fbe3969035a145c9e9691d4d9d216c"
                            },
                            {
                                "decimalAvailable": true,
                                "name": "value",
                                "type": "uint256",
                                "value": "4,751,046,809"
                            }
                        ],
                        "signature": "Transfer(address,address,uint256)"
                    },
                    "id": 13,
                    "logData": "0x000000000000000000000000000000000000000000000000000000011b2f3899",
                    "logDecoded": true,
                    "operation": "EVENT",
                    "revert": true,
                    "status": false,
                    "topics": [
                        "0xddf252ad1be2c89b69c2b068fc378daa952ba7f163c4a11628f55a4df523b3ef",
                        "0x0000000000000000000000004cd36d6f32586177e36179a810595a33163a20bf",
                        "0x000000000000000000000000e7b0ce0526fbe3969035a145c9e9691d4d9d216c"
                    ]
                },
                "nodeType": 1
            },
            "14": {
                "invocation": {
                    "address": "0x0f51bb10119727a7e5ea3538074fb341f56b09ad",
                    "callData": "0x0000000000000000000000004cd36d6f32586177e36179a810595a33163a20bf",
                    "decodedMethod": {
                        "callParams": [
                            {
                                "name": "account",
                                "type": "address",
                                "value": "0x4cd36d6f32586177e36179a810595a33163a20bf"
                            }
                        ],
                        "constructorArguments": "",
                        "name": "balanceOf",
                        "returnParams": [
                            {
                                "decimalAvailable": true,
                                "name": "",
                                "type": "uint256",
                                "value": "686,262,598,140,662,953,274,199"
                            }
                        ],
                        "signature": "balanceOf(address)"
                    },
                    "errorInfo": "",
                    "fromAddress": "0x4cd36d6f32586177e36179a810595a33163a20bf",
                    "gasUsed": 721,
                    "id": 14,
                    "methodDecoded": true,
                    "operation": "STATICCALL",
                    "output": "0x0000000000000000000000000000000000000000000091525eb7a9db6e23eb57",
                    "revert": true,
                    "revertMessage": "",
                    "selector": "0x70a08231",
                    "status": true,
                    "value": "0"
                },
                "nodeType": 0
            },
            "15": {
                "invocation": {
                    "address": "0xa0b86991c6218b36c1d19d4a2e9eb0ce3606eb48",
                    "callData": "0x0000000000000000000000004cd36d6f32586177e36179a810595a33163a20bf",
                    "decodedMethod": {
                        "callParams": [
                            {
                                "name": "account",
                                "type": "address",
                                "value": "0x4cd36d6f32586177e36179a810595a33163a20bf"
                            }
                        ],
                        "constructorArguments": "",
                        "name": "balanceOf",
                        "returnParams": [
                            {
                                "decimalAvailable": true,
                                "name": "",
                                "type": "uint256",
                                "value": "585,777,430,138"
                            }
                        ],
                        "signature": "balanceOf(address)"
                    },
                    "errorInfo": "",
                    "fromAddress": "0x4cd36d6f32586177e36179a810595a33163a20bf",
                    "gasUsed": 1315,
                    "id": 15,
                    "methodDecoded": true,
                    "operation": "STATICCALL",
                    "output": "0x00000000000000000000000000000000000000000000000000000088630e3e7a",
                    "revert": true,
                    "revertMessage": "",
                    "selector": "0x70a08231",
                    "status": true,
                    "value": "0"
                },
                "nodeType": 0
            },
            "16": {
                "invocation": {
                    "address": "0xa2327a938febf5fec13bacfb16ae10ecbc4cbdcf",
                    "callData": "0x0000000000000000000000004cd36d6f32586177e36179a810595a33163a20bf",
                    "decodedMethod": {
                        "callParams": [
                            {
                                "name": "account",
                                "type": "address",
                                "value": "0x4cd36d6f32586177e36179a810595a33163a20bf"
                            }
                        ],
                        "constructorArguments": "",
                        "name": "balanceOf",
                        "returnParams": [
                            {
                                "decimalAvailable": true,
                                "name": "",
                                "type": "uint256",
                                "value": "585,777,430,138"
                            }
                        ],
                        "signature": "balanceOf(address)"
                    },
                    "errorInfo": "",
                    "fromAddress": "0xa0b86991c6218b36c1d19d4a2e9eb0ce3606eb48",
                    "gasUsed": 529,
                    "id": 16,
                    "methodDecoded": true,
                    "operation": "DELEGATECALL",
                    "output": "0x00000000000000000000000000000000000000000000000000000088630e3e7a",
                    "revert": true,
                    "revertMessage": "",
                    "selector": "0x70a08231",
                    "status": true,
                    "value": "0"
                },
                "nodeType": 0
            },
            "17": {
                "event": {
                    "contract": "0x4cd36d6f32586177e36179a810595a33163a20bf",
                    "decodedLog": {
                        "name": "Sync",
                        "params": [
                            {
                                "name": "reserve0",
                                "type": "uint112",
                                "value": "686,262,598,140,662,953,274,199"
                            },
                            {
                                "name": "reserve1",
                                "type": "uint112",
                                "value": "585,777,430,138"
                            }
                        ],
                        "signature": "Sync(uint112,uint112)"
                    },
                    "id": 17,
                    "logData": "0x0000000000000000000000000000000000000000000091525eb7a9db6e23eb5700000000000000000000000000000000000000000000000000000088630e3e7a",
                    "logDecoded": true,
                    "operation": "EVENT",
                    "revert": true,
                    "status": false,
                    "topics": [
                        "0x1c411e9a96e071241c2f21f7726b17ae89e3cab4c78be50e062b03a9fffbbad1"
                    ]
                },
                "nodeType": 1
            },
            "18": {
                "event": {
                    "contract": "0x4cd36d6f32586177e36179a810595a33163a20bf",
                    "decodedLog": {
                        "name": "Swap",
                        "params": [
                            {
                                "name": "sender",
                                "type": "address",
                                "value": "0x3b17056cc4439c61cea41fe1c9f517af75a978f7"
                            },
                            {
                                "name": "to",
                                "type": "address",
                                "value": "0xe7b0ce0526fbe3969035a145c9e9691d4d9d216c"
                            },
                            {
                                "name": "amount0In",
                                "type": "uint256",
                                "value": "5,537,747,148,266,762,265,667"
                            },
                            {
                                "name": "amount1In",
                                "type": "uint256",
                                "value": "0"
                            },
                            {
                                "name": "amount0Out",
                                "type": "uint256",
                                "value": "0"
                            },
                            {
                                "name": "amount1Out",
                                "type": "uint256",
                                "value": "4,751,046,809"
                            }
                        ],
                        "signature": "Swap(address,uint256,uint256,uint256,uint256,address)"
                    },
                    "id": 18,
                    "logData": "0x00000000000000000000000000000000000000000000012c33ae0b1b54cde44300000000000000000000000000000000000000000000000000000000000000000000000000000000000000000000000000000000000000000000000000000000000000000000000000000000000000000000000000000000000000011b2f3899",
                    "logDecoded": true,
                    "operation": "EVENT",
                    "revert": true,
                    "status": false,
                    "topics": [
                        "0xd78ad95fa46c994b6551d0da85fc275fe613ce37657fb8d5e3d130840159d822",
                        "0x0000000000000000000000003b17056cc4439c61cea41fe1c9f517af75a978f7",
                        "0x000000000000000000000000e7b0ce0526fbe3969035a145c9e9691d4d9d216c"
                    ]
                },
                "nodeType": 1
            },
            "19": {
                "invocation": {
                    "address": "0xe7b0ce0526fbe3969035a145c9e9691d4d9d216c",
                    "callData": "0x000000000000000000000000a0b86991c6218b36c1d19d4a2e9eb0ce3606eb48000000000000000000000000dac17f958d2ee523a2206206994597c13d831ec7000000000000000000000000000000000000000000000000000000011b2f3899000000000000000000000000000000000000000000000000000000011b2f38990000000005f5e1000000000005f5e10000b1a2bc2ec5000000bc01316394c3520000000000000000000000003b17056cc4439c61cea41fe1c9f517af75a978f7000000000000000000000000000000000000000000000000000000000000001ba1c9a8c3c8488d2d7df2555b04c9773544acb7068d758ce4fbc53d138fbcb6861be36e5bfe9680eabc2854c806487025dd9be6a77d7ea715a047d3e0783f250e0000000000000000000000000000000000000000000000000000000000000140000000000000000000000000000000000000000000000000000000000000002031494e4348000000000000000000000000000000000000000000000000000000",
                    "decodedMethod": {
                        "callParams": [
                            {
                                "name": "inputToken",
                                "type": "address",
                                "value": "0xa0b86991c6218b36c1d19d4a2e9eb0ce3606eb48"
                            },
                            {
                                "name": "outputToken",
                                "type": "address",
                                "value": "0xdac17f958d2ee523a2206206994597c13d831ec7"
                            },
                            {
                                "name": "inputAmount",
                                "type": "uint256",
                                "value": "4,751,046,809"
                            },
                            {
                                "name": "outputAmount",
                                "type": "uint256",
                                "value": "4,751,046,809"
                            },
                            {
                                "name": "goodUntil",
                                "type": "uint256",
                                "value": "627,710,173,538,668,076,417,607,179,013,782,825,160,258,482,770,433,191,042,457,322,322"
                            },
                            {
                                "name": "destinationAddress",
                                "type": "address",
                                "value": "0x3b17056cc4439c61cea41fe1c9f517af75a978f7"
                            },
                            {
                                "name": "theSignature",
                                "type": "(uint8,bytes32,bytes32)",
                                "value": [
                                    {
                                        "name": "v",
                                        "type": "uint8",
                                        "value": "27"
                                    },
                                    {
                                        "name": "r",
                                        "type": "bytes32",
                                        "value": "0xa1c9a8c3c8488d2d7df2555b04c9773544acb7068d758ce4fbc53d138fbcb686"
                                    },
                                    {
                                        "name": "s",
                                        "type": "bytes32",
                                        "value": "0x1be36e5bfe9680eabc2854c806487025dd9be6a77d7ea715a047d3e0783f250e"
                                    }
                                ]
                            },
                            {
                                "name": "auxiliaryData",
                                "type": "bytes",
                                "value": "0x31494e4348000000000000000000000000000000000000000000000000000000"
                            }
                        ],
                        "constructorArguments": "",
                        "name": "swap",
                        "returnParams": [],
                        "signature": "swap(address,address,uint256,uint256,uint256,address,(uint8,bytes32,bytes32),bytes)"
                    },
                    "errorInfo": "execution reverted",
                    "fromAddress": "0x3b17056cc4439c61cea41fe1c9f517af75a978f7",
                    "gasUsed": 61113,
                    "id": 19,
                    "methodDecoded": true,
                    "operation": "CALL",
                    "output": "0x08c379a000000000000000000000000000000000000000000000000000000000000000200000000000000000000000000000000000000000000000000000000000000010436c69707065723a204578706972656400000000000000000000000000000000",
                    "revert": true,
                    "revertMessage": "Clipper: Expired",
                    "selector": "0x2b651a6c",
                    "status": false,
                    "value": "0"
                },
                "nodeType": 0
            },
            "2": {
                "event": {
                    "contract": "0x0f51bb10119727a7e5ea3538074fb341f56b09ad",
                    "decodedLog": {
                        "name": "Transfer",
                        "params": [
                            {
                                "name": "from",
                                "type": "address",
                                "value": "0x6aa674ca68ece98a08ed7e41abadead2241394fc"
                            },
                            {
                                "name": "to",
                                "type": "address",
                                "value": "0x4cd36d6f32586177e36179a810595a33163a20bf"
                            },
                            {
                                "decimalAvailable": true,
                                "name": "value",
                                "type": "uint256",
                                "value": "5,537,747,148,266,762,265,667"
                            }
                        ],
                        "signature": "Transfer(address,address,uint256)"
                    },
                    "id": 2,
                    "logData": "0x00000000000000000000000000000000000000000000012c33ae0b1b54cde443",
                    "logDecoded": true,
                    "operation": "EVENT",
                    "revert": true,
                    "status": false,
                    "topics": [
                        "0xddf252ad1be2c89b69c2b068fc378daa952ba7f163c4a11628f55a4df523b3ef",
                        "0x0000000000000000000000006aa674ca68ece98a08ed7e41abadead2241394fc",
                        "0x0000000000000000000000004cd36d6f32586177e36179a810595a33163a20bf"
                    ]
                },
                "nodeType": 1
            },
            "20": {
                "invocation": {
                    "address": "0x0000000000000000000000000000000000000001",
                    "callData": "0xb8ae780a499b8acc3f5f79c42805c10023779040005c957deaa843a1000000000000000000000000000000000000000000000000000000000000001ba1c9a8c3c8488d2d7df2555b04c9773544acb7068d758ce4fbc53d138fbcb6861be36e5bfe9680eabc2854c806487025dd9be6a77d7ea715a047d3e0783f250e",
                    "decodedMethod": {
                        "callParams": [
                            {
                                "name": "hash",
                                "type": "bytes32",
                                "value": "0x4be187dab8ae780a499b8acc3f5f79c42805c10023779040005c957deaa843a1"
                            },
                            {
                                "name": "v",
                                "type": "uint256",
                                "value": "27"
                            },
                            {
                                "name": "r",
                                "type": "bytes32",
                                "value": "0xa1c9a8c3c8488d2d7df2555b04c9773544acb7068d758ce4fbc53d138fbcb686"
                            },
                            {
                                "name": "s",
                                "type": "bytes32",
                                "value": "0x1be36e5bfe9680eabc2854c806487025dd9be6a77d7ea715a047d3e0783f250e"
                            }
                        ],
                        "constructorArguments": "",
                        "name": "ecrecover",
                        "returnParams": [
                            {
                                "name": "",
                                "type": "address",
                                "value": "0x08938a61ba9523298dbcacee0cda5b371fb7f1f8"
                            }
                        ],
                        "signature": "ecrecover(bytes32,uint256,bytes32,bytes32)"
                    },
                    "errorInfo": "",
                    "fromAddress": "0xe7b0ce0526fbe3969035a145c9e9691d4d9d216c",
                    "gasUsed": 3000,
                    "id": 20,
                    "methodDecoded": true,
                    "operation": "STATICCALL",
                    "output": "0x00000000000000000000000008938a61ba9523298dbcacee0cda5b371fb7f1f8",
                    "revert": true,
                    "revertMessage": "",
                    "selector": "0x4be187da",
                    "status": true,
                    "value": "0"
                },
                "nodeType": 0
            },
            "21": {
                "invocation": {
                    "address": "0xa0b86991c6218b36c1d19d4a2e9eb0ce3606eb48",
                    "callData": "0x000000000000000000000000e7b0ce0526fbe3969035a145c9e9691d4d9d216c",
                    "decodedMethod": {
                        "callParams": [
                            {
                                "name": "account",
                                "type": "address",
                                "value": "0xe7b0ce0526fbe3969035a145c9e9691d4d9d216c"
                            }
                        ],
                        "constructorArguments": "",
                        "name": "balanceOf",
                        "returnParams": [
                            {
                                "decimalAvailable": true,
                                "name": "",
                                "type": "uint256",
                                "value": "1,236,024,027,313"
                            }
                        ],
                        "signature": "balanceOf(address)"
                    },
                    "errorInfo": "",
                    "fromAddress": "0xe7b0ce0526fbe3969035a145c9e9691d4d9d216c",
                    "gasUsed": 1315,
                    "id": 21,
                    "methodDecoded": true,
                    "operation": "STATICCALL",
                    "output": "0x0000000000000000000000000000000000000000000000000000011fc8c5e8b1",
                    "revert": true,
                    "revertMessage": "",
                    "selector": "0x70a08231",
                    "status": true,
                    "value": "0"
                },
                "nodeType": 0
            },
            "22": {
                "invocation": {
                    "address": "0xa2327a938febf5fec13bacfb16ae10ecbc4cbdcf",
                    "callData": "0x000000000000000000000000e7b0ce0526fbe3969035a145c9e9691d4d9d216c",
                    "decodedMethod": {
                        "callParams": [
                            {
                                "name": "account",
                                "type": "address",
                                "value": "0xe7b0ce0526fbe3969035a145c9e9691d4d9d216c"
                            }
                        ],
                        "constructorArguments": "",
                        "name": "balanceOf",
                        "returnParams": [
                            {
                                "decimalAvailable": true,
                                "name": "",
                                "type": "uint256",
                                "value": "1,236,024,027,313"
                            }
                        ],
                        "signature": "balanceOf(address)"
                    },
                    "errorInfo": "",
                    "fromAddress": "0xa0b86991c6218b36c1d19d4a2e9eb0ce3606eb48",
                    "gasUsed": 529,
                    "id": 22,
                    "methodDecoded": true,
                    "operation": "DELEGATECALL",
                    "output": "0x0000000000000000000000000000000000000000000000000000011fc8c5e8b1",
                    "revert": true,
                    "revertMessage": "",
                    "selector": "0x70a08231",
                    "status": true,
                    "value": "0"
                },
                "nodeType": 0
            },
            "3": {
                "event": {
                    "contract": "0x0f51bb10119727a7e5ea3538074fb341f56b09ad",
                    "decodedLog": {
                        "name": "Approval",
                        "params": [
                            {
                                "name": "owner",
                                "type": "address",
                                "value": "0x6aa674ca68ece98a08ed7e41abadead2241394fc"
                            },
                            {
                                "name": "spender",
                                "type": "address",
                                "value": "0x1111111254eeb25477b68fb85ed929f73a960582"
                            },
                            {
                                "decimalAvailable": true,
                                "name": "value",
                                "type": "uint256",
                                "value": "115,792,089,237,316,195,423,570,985,008,687,907,853,269,984,665,640,564,008,570,895,723,712,313,400,946"
                            }
                        ],
                        "signature": "Approval(address,address,uint256)"
                    },
                    "id": 3,
                    "logData": "0xfffffffffffffffffffffffffffffffffffffffffffff975a1180a3516fd9e72",
                    "logDecoded": true,
                    "operation": "EVENT",
                    "revert": true,
                    "status": false,
                    "topics": [
                        "0x8c5be1e5ebec7d5bd14f71427d1e84f3dd0314c0f7b2291e5b200ac8c7c3b925",
                        "0x0000000000000000000000006aa674ca68ece98a08ed7e41abadead2241394fc",
                        "0x0000000000000000000000001111111254eeb25477b68fb85ed929f73a960582"
                    ]
                },
                "nodeType": 1
            },
            "4": {
                "invocation": {
                    "address": "0x3b17056cc4439c61cea41fe1c9f517af75a978f7",
                    "callData": "0x0000000000000000000000006aa674ca68ece98a08ed7e41abadead2241394fc7e9dd50612dcafbce9faf11a0aff532bcff75abf1d946217cdf57e09eb44e9b6e85779c6f1ce3e00c033dfff7f4050033c4e9c41e101afd5d91ae2c9c595b1530000000000000000000000000000000000000000000002b700028900023f00a007e5c0d200000000000000000000000000000000000000000000021b00020100006700206ae4071138002dc6c04cd36d6f32586177e36179a810595a33163a20bfe7b0ce0526fbe3969035a145c9e9691d4d9d216c00000000000000000000000000000000000000000000000000000001185a44d40f51bb10119727a7e5ea3538074fb341f56b09ad4020e7b0ce0526fbe3969035a145c9e9691d4d9d216c2b651a6c000000000000000000000000a0b86991c6218b36c1d19d4a2e9eb0ce3606eb48000000000000000000000000dac17f958d2ee523a2206206994597c13d831ec7000000000000000000000000000000000000000000000000000000011b2f3899000000000000000000000000000000000000000000000000000000011b2f38990000000005f5e1000000000005f5e10000b1a2bc2ec5000000bc01316394c3520000000000000000000000003b17056cc4439c61cea41fe1c9f517af75a978f7000000000000000000000000000000000000000000000000000000000000001ba1c9a8c3c8488d2d7df2555b04c9773544acb7068d758ce4fbc53d138fbcb6861be36e5bfe9680eabc2854c806487025dd9be6a77d7ea715a047d3e0783f250e0000000000000000000000000000000000000000000000000000000000000140000000000000000000000000000000000000000000000000000000000000002031494e43480000000000000000000000000000000000000000000000000000000020d6bdbf78dac17f958d2ee523a2206206994597c13d831ec700a0f2fa6b66dac17f958d2ee523a2206206994597c13d831ec7000000000000000000000000000000000000000000000000000000011b2f3899000000000000000000000000007a120080a06c4eca27dac17f958d2ee523a2206206994597c13d831ec71111111254eeb25477b68fb85ed929f73a96058200000000000000000000000000000000000000000000012c33ae0b1b54cde443",
                    "decodedMethod": {
                        "callParams": [
                            {
                                "name": "spender",
                                "type": "address",
                                "value": "0x6aa674ca68ece98a08ed7e41abadead2241394fc"
                            }
                        ],
                        "constructorArguments": "",
                        "name": "execute",
                        "returnParams": [],
                        "signature": "execute(address)"
                    },
                    "errorInfo": "execution reverted",
                    "fromAddress": "0x1111111254eeb25477b68fb85ed929f73a960582",
                    "gasUsed": 140487,
                    "id": 4,
                    "methodDecoded": true,
                    "operation": "CALL",
                    "output": "0x08c379a000000000000000000000000000000000000000000000000000000000000000200000000000000000000000000000000000000000000000000000000000000010436c69707065723a204578706972656400000000000000000000000000000000",
                    "revert": true,
                    "revertMessage": "Clipper: Expired",
                    "selector": "0x4b64e492",
                    "status": false,
                    "value": "0"
                },
                "nodeType": 0
            },
            "5": {
                "invocation": {
                    "address": "0x0000000000000000000000000000000000000001",
                    "callData": "0x8336496a66fbbcfea62f80be6ec635eb4e68cc9b2f8311e75105d1bb000000000000000000000000000000000000000000000000000000000000001c7e9dd50612dcafbce9faf11a0aff532bcff75abf1d946217cdf57e09eb44e9b6685779c6f1ce3e00c033dfff7f4050033c4e9c41e101afd5d91ae2c9c595b153",
                    "decodedMethod": {
                        "callParams": [
                            {
                                "name": "hash",
                                "type": "bytes32",
                                "value": "0xc718906c8336496a66fbbcfea62f80be6ec635eb4e68cc9b2f8311e75105d1bb"
                            },
                            {
                                "name": "v",
                                "type": "uint256",
                                "value": "28"
                            },
                            {
                                "name": "r",
                                "type": "bytes32",
                                "value": "0x7e9dd50612dcafbce9faf11a0aff532bcff75abf1d946217cdf57e09eb44e9b6"
                            },
                            {
                                "name": "s",
                                "type": "bytes32",
                                "value": "0x685779c6f1ce3e00c033dfff7f4050033c4e9c41e101afd5d91ae2c9c595b153"
                            }
                        ],
                        "constructorArguments": "",
                        "name": "ecrecover",
                        "returnParams": [
                            {
                                "name": "",
                                "type": "address",
                                "value": "0x4447696e7878c0fa2c581768f04c3871a9a57b76"
                            }
                        ],
                        "signature": "ecrecover(bytes32,uint256,bytes32,bytes32)"
                    },
                    "errorInfo": "",
                    "fromAddress": "0x3b17056cc4439c61cea41fe1c9f517af75a978f7",
                    "gasUsed": 3000,
                    "id": 5,
                    "methodDecoded": true,
                    "operation": "STATICCALL",
                    "output": "0x0000000000000000000000004447696e7878c0fa2c581768f04c3871a9a57b76",
                    "revert": true,
                    "revertMessage": "",
                    "selector": "0xc718906c",
                    "status": true,
                    "value": "0"
                },
                "nodeType": 0
            },
            "6": {
                "invocation": {
                    "address": "0x3b17056cc4439c61cea41fe1c9f517af75a978f7",
                    "callData": "0x00000000000000000000000000000000000000000000021b00020100006700206ae4071138002dc6c04cd36d6f32586177e36179a810595a33163a20bfe7b0ce0526fbe3969035a145c9e9691d4d9d216c00000000000000000000000000000000000000000000000000000001185a44d40f51bb10119727a7e5ea3538074fb341f56b09ad4020e7b0ce0526fbe3969035a145c9e9691d4d9d216c2b651a6c000000000000000000000000a0b86991c6218b36c1d19d4a2e9eb0ce3606eb48000000000000000000000000dac17f958d2ee523a2206206994597c13d831ec7000000000000000000000000000000000000000000000000000000011b2f3899000000000000000000000000000000000000000000000000000000011b2f38990000000005f5e1000000000005f5e10000b1a2bc2ec5000000bc01316394c3520000000000000000000000003b17056cc4439c61cea41fe1c9f517af75a978f7000000000000000000000000000000000000000000000000000000000000001ba1c9a8c3c8488d2d7df2555b04c9773544acb7068d758ce4fbc53d138fbcb6861be36e5bfe9680eabc2854c806487025dd9be6a77d7ea715a047d3e0783f250e0000000000000000000000000000000000000000000000000000000000000140000000000000000000000000000000000000000000000000000000000000002031494e43480000000000000000000000000000000000000000000000000000000020d6bdbf78dac17f958d2ee523a2206206994597c13d831ec700000000000000000000000000000000000000000000012c33ae0b1b54cde443",
                    "decodedMethod": null,
                    "errorInfo": "execution reverted",
                    "fromAddress": "0x3b17056cc4439c61cea41fe1c9f517af75a978f7",
                    "gasUsed": 135341,
                    "id": 6,
                    "methodDecoded": false,
                    "operation": "CALL",
                    "output": "0x08c379a000000000000000000000000000000000000000000000000000000000000000200000000000000000000000000000000000000000000000000000000000000010436c69707065723a204578706972656400000000000000000000000000000000",
                    "revert": true,
                    "revertMessage": "Clipper: Expired",
                    "selector": "0x07e5c0d2",
                    "status": false,
                    "value": "0"
                },
                "nodeType": 0
            },
            "7": {
                "invocation": {
                    "address": "0x3b17056cc4439c61cea41fe1c9f517af75a978f7",
                    "callData": "0x38002dc6c04cd36d6f32586177e36179a810595a33163a20bfe7b0ce0526fbe3969035a145c9e9691d4d9d216c00000000000000000000000000000000000000000000000000000001185a44d40f51bb10119727a7e5ea3538074fb341f56b09ad",
                    "decodedMethod": {
                        "callParams": [],
                        "constructorArguments": "",
                        "name": "swapUniV2",
                        "returnParams": [],
                        "signature": "swapUniV2()"
                    },
                    "errorInfo": "",
                    "fromAddress": "0x3b17056cc4439c61cea41fe1c9f517af75a978f7",
                    "gasUsed": 69835,
                    "id": 7,
                    "methodDecoded": true,
                    "operation": "CALL",
                    "output": "0x000000000000000000000000000000000000000000000000000000011b2f3899",
                    "revert": true,
                    "revertMessage": "",
                    "selector": "0x6ae40711",
                    "status": true,
                    "value": "0"
                },
                "nodeType": 0
            },
            "8": {
                "invocation": {
                    "address": "0x4cd36d6f32586177e36179a810595a33163a20bf",
                    "callData": "0x",
                    "decodedMethod": {
                        "callParams": [],
                        "constructorArguments": "",
                        "name": "getReserves",
                        "returnParams": [
                            {
                                "name": "_reserve0",
                                "type": "uint112",
                                "value": "680,724,850,992,396,191,008,532"
                            },
                            {
                                "name": "_reserve1",
                                "type": "uint112",
                                "value": "590,528,476,947"
                            },
                            {
                                "name": "_blockTimestampLast",
                                "type": "uint32",
                                "value": "1,670,691,155"
                            }
                        ],
                        "signature": "getReserves()"
                    },
                    "errorInfo": "",
                    "fromAddress": "0x3b17056cc4439c61cea41fe1c9f517af75a978f7",
                    "gasUsed": 2504,
                    "id": 8,
                    "methodDecoded": true,
                    "operation": "STATICCALL",
                    "output": "0x0000000000000000000000000000000000000000000090262b099ec019560714000000000000000000000000000000000000000000000000000000897e3d7713000000000000000000000000000000000000000000000000000000006394b953",
                    "revert": true,
                    "revertMessage": "",
                    "selector": "0x0902f1ac",
                    "status": true,
                    "value": "0"
                },
                "nodeType": 0
            },
            "9": {
                "invocation": {
                    "address": "0x0f51bb10119727a7e5ea3538074fb341f56b09ad",
                    "callData": "0x0000000000000000000000004cd36d6f32586177e36179a810595a33163a20bf",
                    "decodedMethod": {
                        "callParams": [
                            {
                                "name": "account",
                                "type": "address",
                                "value": "0x4cd36d6f32586177e36179a810595a33163a20bf"
                            }
                        ],
                        "constructorArguments": "",
                        "name": "balanceOf",
                        "returnParams": [
                            {
                                "decimalAvailable": true,
                                "name": "",
                                "type": "uint256",
                                "value": "686,262,598,140,662,953,274,199"
                            }
                        ],
                        "signature": "balanceOf(address)"
                    },
                    "errorInfo": "",
                    "fromAddress": "0x3b17056cc4439c61cea41fe1c9f517af75a978f7",
                    "gasUsed": 721,
                    "id": 9,
                    "methodDecoded": true,
                    "operation": "STATICCALL",
                    "output": "0x0000000000000000000000000000000000000000000091525eb7a9db6e23eb57",
                    "revert": true,
                    "revertMessage": "",
                    "selector": "0x70a08231",
                    "status": true,
                    "value": "0"
                },
                "nodeType": 0
            }
        },
        "gasFlame": [
            {
                "children": [
                    {
                        "children": [
                            {
                                "children": [],
                                "depth": 0,
                                "name": "Initial Gas",
                                "value": 32644
                            },
                            {
                                "children": [
                                    {
                                        "children": [],
                                        "depth": 1,
                                        "name": "transferFrom",
                                        "value": 20764
                                    },
                                    {
                                        "children": [
                                            {
                                                "children": [],
                                                "depth": 2,
                                                "name": "ecrecover",
                                                "value": 3000
                                            },
                                            {
                                                "children": [
                                                    {
                                                        "children": [
                                                            {
                                                                "children": [],
                                                                "depth": 4,
                                                                "name": "getReserves",
                                                                "value": 2504
                                                            },
                                                            {
                                                                "children": [],
                                                                "depth": 4,
                                                                "name": "balanceOf",
                                                                "value": 721
                                                            },
                                                            {
                                                                "children": [
                                                                    {
                                                                        "children": [
                                                                            {
                                                                                "children": [],
                                                                                "depth": 6,
                                                                                "name": "transfer",
                                                                                "value": 19628
                                                                            }
                                                                        ],
                                                                        "depth": 5,
                                                                        "name": "transfer",
                                                                        "value": 26917
                                                                    },
                                                                    {
                                                                        "children": [],
                                                                        "depth": 5,
                                                                        "name": "balanceOf",
                                                                        "value": 721
                                                                    },
                                                                    {
                                                                        "children": [
                                                                            {
                                                                                "children": [],
                                                                                "depth": 6,
                                                                                "name": "balanceOf",
                                                                                "value": 529
                                                                            }
                                                                        ],
                                                                        "depth": 5,
                                                                        "name": "balanceOf",
                                                                        "value": 1315
                                                                    }
                                                                ],
                                                                "depth": 4,
                                                                "name": "swap",
                                                                "value": 62776
                                                            }
                                                        ],
                                                        "depth": 3,
                                                        "name": "swapUniV2",
                                                        "value": 69835
                                                    },
                                                    {
                                                        "children": [
                                                            {
                                                                "children": [],
                                                                "depth": 4,
                                                                "name": "ecrecover",
                                                                "value": 3000
                                                            },
                                                            {
                                                                "children": [
                                                                    {
                                                                        "children": [],
                                                                        "depth": 5,
                                                                        "name": "balanceOf",
                                                                        "value": 529
                                                                    }
                                                                ],
                                                                "depth": 4,
                                                                "name": "balanceOf",
                                                                "value": 1315
                                                            }
                                                        ],
                                                        "depth": 3,
                                                        "name": "swap",
                                                        "value": 61113
                                                    }
                                                ],
                                                "depth": 2,
                                                "name": "0x07e5c0d2",
                                                "value": 135341
                                            }
                                        ],
                                        "depth": 1,
                                        "name": "execute",
                                        "value": 140487
                                    }
                                ],
                                "depth": 0,
                                "name": "Executed Gas",
                                "value": 168752
                            }
                        ],
                        "depth": -1,
                        "name": "Actual Gas Used",
                        "value": 201396
                    },
                    {
                        "children": [],
                        "depth": -1,
                        "name": "Refunded Gas",
                        "value": 0
                    }
                ],
                "depth": -2,
                "name": "Total Gas",
                "value": 201396
            }
        ],
        "isConfirmed": true,
        "mainTrace": [
            {
                "children": [
                    {
                        "children": [
                            {
                                "children": [
                                    {
                                        "children": [],
                                        "depth": 2,
                                        "id": 2,
                                        "order": 2
                                    },
                                    {
                                        "children": [],
                                        "depth": 2,
                                        "id": 3,
                                        "order": 3
                                    }
                                ],
                                "depth": 1,
                                "id": 1,
                                "order": 1
                            },
                            {
                                "children": [
                                    {
                                        "children": [],
                                        "depth": 2,
                                        "id": 5,
                                        "order": 5
                                    },
                                    {
                                        "children": [
                                            {
                                                "children": [
                                                    {
                                                        "children": [],
                                                        "depth": 4,
                                                        "id": 8,
                                                        "order": 8
                                                    },
                                                    {
                                                        "children": [],
                                                        "depth": 4,
                                                        "id": 9,
                                                        "order": 9
                                                    },
                                                    {
                                                        "children": [
                                                            {
                                                                "children": [
                                                                    {
                                                                        "children": [
                                                                            {
                                                                                "children": [],
                                                                                "depth": 7,
                                                                                "id": 13,
                                                                                "order": 13
                                                                            }
                                                                        ],
                                                                        "depth": 6,
                                                                        "id": 12,
                                                                        "order": 12
                                                                    }
                                                                ],
                                                                "depth": 5,
                                                                "id": 11,
                                                                "order": 11
                                                            },
                                                            {
                                                                "children": [],
                                                                "depth": 5,
                                                                "id": 14,
                                                                "order": 14
                                                            },
                                                            {
                                                                "children": [
                                                                    {
                                                                        "children": [],
                                                                        "depth": 6,
                                                                        "id": 16,
                                                                        "order": 16
                                                                    }
                                                                ],
                                                                "depth": 5,
                                                                "id": 15,
                                                                "order": 15
                                                            },
                                                            {
                                                                "children": [],
                                                                "depth": 5,
                                                                "id": 17,
                                                                "order": 17
                                                            },
                                                            {
                                                                "children": [],
                                                                "depth": 5,
                                                                "id": 18,
                                                                "order": 18
                                                            }
                                                        ],
                                                        "depth": 4,
                                                        "id": 10,
                                                        "order": 10
                                                    }
                                                ],
                                                "depth": 3,
                                                "id": 7,
                                                "order": 7
                                            },
                                            {
                                                "children": [
                                                    {
                                                        "children": [],
                                                        "depth": 4,
                                                        "id": 20,
                                                        "order": 20
                                                    },
                                                    {
                                                        "children": [
                                                            {
                                                                "children": [],
                                                                "depth": 5,
                                                                "id": 22,
                                                                "order": 22
                                                            }
                                                        ],
                                                        "depth": 4,
                                                        "id": 21,
                                                        "order": 21
                                                    }
                                                ],
                                                "depth": 3,
                                                "id": 19,
                                                "order": 19
                                            }
                                        ],
                                        "depth": 2,
                                        "id": 6,
                                        "order": 6
                                    }
                                ],
                                "depth": 1,
                                "id": 4,
                                "order": 4
                            }
                        ],
                        "depth": 0,
                        "id": 0,
                        "order": 0
                    }
                ],
                "depth": -1,
                "id": -1,
                "order": -1
            }
        ],
        "mainTraceNodeCount": 23,
        "parentIdMap": {
            "0": -1,
            "1": 0,
            "10": 7,
            "11": 10,
            "12": 11,
            "13": 12,
            "14": 10,
            "15": 10,
            "16": 15,
            "17": 10,
            "18": 10,
            "19": 6,
            "2": 1,
            "20": 19,
            "21": 19,
            "22": 21,
            "3": 1,
            "4": 0,
            "5": 4,
            "6": 4,
            "7": 6,
            "8": 7,
            "9": 7
        },
        "tidyTrace": [
            {
                "children": [
                    {
                        "children": [
                            {
                                "children": [
                                    {
                                        "children": [],
                                        "depth": 2,
                                        "id": 2,
                                        "order": 2
                                    },
                                    {
                                        "children": [],
                                        "depth": 2,
                                        "id": 3,
                                        "order": 3
                                    }
                                ],
                                "depth": 1,
                                "id": 1,
                                "order": 1
                            },
                            {
                                "children": [
                                    {
                                        "children": [
                                            {
                                                "children": [
                                                    {
                                                        "children": [
                                                            {
                                                                "children": [
                                                                    {
                                                                        "children": [
                                                                            {
                                                                                "children": [],
                                                                                "depth": 7,
                                                                                "id": 13,
                                                                                "order": 13
                                                                            }
                                                                        ],
                                                                        "depth": 6,
                                                                        "id": 12,
                                                                        "order": 12
                                                                    }
                                                                ],
                                                                "depth": 5,
                                                                "id": 11,
                                                                "order": 11
                                                            },
                                                            {
                                                                "children": [],
                                                                "depth": 5,
                                                                "id": 17,
                                                                "order": 17
                                                            },
                                                            {
                                                                "children": [],
                                                                "depth": 5,
                                                                "id": 18,
                                                                "order": 18
                                                            }
                                                        ],
                                                        "depth": 4,
                                                        "id": 10,
                                                        "order": 10
                                                    }
                                                ],
                                                "depth": 3,
                                                "id": 7,
                                                "order": 7
                                            },
                                            {
                                                "children": [],
                                                "depth": 3,
                                                "id": 19,
                                                "order": 19
                                            }
                                        ],
                                        "depth": 2,
                                        "id": 6,
                                        "order": 6
                                    }
                                ],
                                "depth": 1,
                                "id": 4,
                                "order": 4
                            }
                        ],
                        "depth": 0,
                        "id": 0,
                        "order": 0
                    }
                ],
                "depth": -1,
                "id": -1,
                "order": -1
            }
        ],
        "tidyTraceNodeCount": 14
    },
    "state_change": {
        "stateChanges": []
    }
}