{
    "balance_change": {
        "balanceChanges": [
            {
                "account": "0x78e00572899e839afaed06bc00d14e54291139fb",
                "assets": [
                    {
                        "address": "0x7c7d518689798fd5f9e6ccda4e222b9d6e6f3b97",
                        "amount": "699",
                        "iconUrl": "",
                        "isERC1155": false,
                        "isERC721": false,
                        "sign": false,
                        "value": ""
                    }
                ]
            },
            {
                "account": "0x388cd2cd865eec4d36603a33f8233a0541e5d716",
                "assets": [
                    {
                        "address": "0x7c7d518689798fd5f9e6ccda4e222b9d6e6f3b97",
                        "amount": "699",
                        "iconUrl": "",
                        "isERC1155": false,
                        "isERC721": false,
                        "sign": true,
                        "value": ""
                    }
                ]
            }
        ]
    },
    "profile": {
        "basic_info": {
            "baseFee": "",
            "blockNumber": 6567635,
            "callData": "0xa9059cbb000000000000000000000000388cd2cd865eec4d36603a33f8233a0541e5d716000000000000000000000000000000000000000000000025e492dc8a0e0c0000",
            "debugEnable": true,
            "errorInfo": "",
            "eventCount": 1,
            "feeRecipient": "0x829bd824b016326a401d083b33d092293333a830",
            "formatValue": "0",
            "gasLimit": 90000,
            "gasPrice": "9",
            "gasUsed": 37607,
            "intTxnCount": 0,
            "internalRevert": false,
            "internalRevertMessage": "",
            "isContractCreation": false,
            "isFlashloan": false,
            "maxFee": "",
            "nonce": 5792,
            "overwritedBlockNumber": -1,
            "priorityFee": "",
            "receiver": "0x7c7d518689798fd5f9e6ccda4e222b9d6e6f3b97",
            "revertMessage": "",
            "sender": "0x78e00572899e839afaed06bc00d14e54291139fb",
            "simulationEnable": true,
            "sourceTxnHash": "0x19184bec7b3ac7fe002fece49cbbbf65472fed16be5b9182cf3ab96be196b1a3",
            "status": true,
            "timestamp": "2018-10-23T08:36:35Z",
            "transactionFee": "0.000338463",
            "txnHash": "0x19184bec7b3ac7fe002fece49cbbbf65472fed16be5b9182cf3ab96be196b1a3",
            "txnIndex": 115,
            "type": 0,
            "value": "0"
        },
        "fund_flow": [
            {
                "amount": "699",
                "from": "0x78e00572899e839afaed06bc00d14e54291139fb",
                "id": 1,
                "isERC1155": false,
                "isERC721": false,
                "isReverted": false,
                "order": 1,
                "to": "0x388cd2cd865eec4d36603a33f8233a0541e5d716",
                "token": "0x7c7d518689798fd5f9e6ccda4e222b9d6e6f3b97"
            }
        ],
        "token_infos": [
            {
                "address": "0x7c7d518689798fd5f9e6ccda4e222b9d6e6f3b97",
                "decimals": 18
            },
            {
                "address": "0xc02aaa39b223fe8d0a0e5c4f27ead9083c756cc2",
                "decimals": 18
            },
            {
                "address": "0xeeeeeeeeeeeeeeeeeeeeeeeeeeeeeeeeeeeeeeee",
                "decimals": 18
            }
        ]
    },
    "address_label": {
        "labels": [
            {
                "address": "0x0000000000000000000000000000000000000003",
                "label": "Precompiled"
            },
            {
                "address": "0x0000000000000000000000000000000000000004",
                "label": "Precompiled"
            },
            {
                "address": "0xeeeeeeeeeeeeeeeeeeeeeeeeeeeeeeeeeeeeeeee",
                "label": "Ether"
            },
            {
                "address": "0x7c7d518689798fd5f9e6ccda4e222b9d6e6f3b97",
                "label": "BTN"
            },
            {
                "address": "0x0000000000000000000000000000000000000001",
                "label": "Precompiled"
            },
            {
                "address": "0x0000000000000000000000000000000000000002",
                "label": "Precompiled"
            }
        ]
    },
    "trace": {
        "accountLabels": null,
        "dataMap": {
            "-1": {
                "invocation": {
                    "address": "0x78e00572899e839afaed06bc00d14e54291139fb",
                    "callData": "",
                    "decodedMethod": null,
                    "errorInfo": "",
                    "fromAddress": "",
                    "gasUsed": 0,
                    "id": -1,
                    "methodDecoded": false,
                    "operation": "",
                    "output": "",
                    "revert": false,
                    "revertMessage": "",
                    "selector": "",
                    "status": false,
                    "value": ""
                },
                "nodeType": 0
            },
            "0": {
                "invocation": {
                    "address": "0x7c7d518689798fd5f9e6ccda4e222b9d6e6f3b97",
                    "callData": "0x000000000000000000000000388cd2cd865eec4d36603a33f8233a0541e5d716000000000000000000000000000000000000000000000025e492dc8a0e0c0000",
                    "decodedMethod": {
                        "callParams": [
                            {
                                "name": "_to",
                                "type": "address",
                                "value": "0x388cd2cd865eec4d36603a33f8233a0541e5d716"
                            },
                            {
                                "decimalAvailable": true,
                                "name": "_value",
                                "type": "uint256",
                                "value": "699,000,000,000,000,000,000"
                            }
                        ],
                        "constructorArguments": "",
                        "name": "transfer",
                        "returnParams": [
                            {
                                "name": "success",
                                "type": "bool",
                                "value": true
                            }
                        ],
                        "signature": "transfer(address,uint256)"
                    },
                    "errorInfo": "",
                    "fromAddress": "0x78e00572899e839afaed06bc00d14e54291139fb",
                    "gasUsed": 37607,
                    "id": 0,
                    "methodDecoded": true,
                    "operation": "CALL",
                    "output": "0x0000000000000000000000000000000000000000000000000000000000000001",
                    "revert": false,
                    "revertMessage": "",
                    "selector": "0xa9059cbb",
                    "status": true,
                    "value": "0"
                },
                "nodeType": 0
            },
            "1": {
                "event": {
                    "contract": "0x7c7d518689798fd5f9e6ccda4e222b9d6e6f3b97",
                    "decodedLog": {
                        "name": "Transfer",
                        "params": [
                            {
                                "name": "from",
                                "type": "address",
                                "value": "0x78e00572899e839afaed06bc00d14e54291139fb"
                            },
                            {
                                "name": "to",
                                "type": "address",
                                "value": "0x388cd2cd865eec4d36603a33f8233a0541e5d716"
                            },
                            {
                                "decimalAvailable": true,
                                "name": "value",
                                "type": "uint256",
                                "value": "699,000,000,000,000,000,000"
                            }
                        ],
                        "signature": "Transfer(address,address,uint256)"
                    },
                    "id": 1,
                    "logData": "0x000000000000000000000000000000000000000000000025e492dc8a0e0c0000",
                    "logDecoded": true,
                    "operation": "EVENT",
                    "revert": false,
                    "status": true,
                    "topics": [
                        "0xddf252ad1be2c89b69c2b068fc378daa952ba7f163c4a11628f55a4df523b3ef",
                        "0x00000000000000000000000078e00572899e839afaed06bc00d14e54291139fb",
                        "0x000000000000000000000000388cd2cd865eec4d36603a33f8233a0541e5d716"
                    ]
                },
                "nodeType": 1
            }
        },
        "gasFlame": [
            {
                "children": [
                    {
                        "children": [
                            {
                                "children": [],
                                "depth": 0,
                                "name": "Initial Gas",
                                "value": 23256
                            },
                            {
                                "children": [],
                                "depth": 0,
                                "name": "Executed Gas",
                                "value": 14351
                            }
                        ],
                        "depth": -1,
                        "name": "Actual Gas Used",
                        "value": 37607
                    },
                    {
                        "children": [],
                        "depth": -1,
                        "name": "Refunded Gas",
                        "value": 0
                    }
                ],
                "depth": -2,
                "name": "Total Gas",
                "value": 37607
            }
        ],
        "isConfirmed": true,
        "mainTrace": [
            {
                "children": [
                    {
                        "children": [
                            {
                                "children": [],
                                "depth": 1,
                                "id": 1,
                                "order": 1
                            }
                        ],
                        "depth": 0,
                        "id": 0,
                        "order": 0
                    }
                ],
                "depth": -1,
                "id": -1,
                "order": -1
            }
        ],
        "mainTraceNodeCount": 2,
        "parentIdMap": {
            "0": -1,
            "1": 0
        },
        "tidyTrace": [
            {
                "children": [
                    {
                        "children": [
                            {
                                "children": [],
                                "depth": 1,
                                "id": 1,
                                "order": 1
                            }
                        ],
                        "depth": 0,
                        "id": 0,
                        "order": 0
                    }
                ],
                "depth": -1,
                "id": -1,
                "order": -1
            }
        ],
        "tidyTraceNodeCount": 2
    },
    "state_change": {
        "stateChanges": [
            {
                "address": "0x7c7d518689798fd5f9e6ccda4e222b9d6e6f3b97",
                "erc": "ERC-20",
                "slots": [
                    {
                        "current": "0x0000000000000000000000000000000000000000000f91ad80c5c574a6bc0000",
                        "key": "0x9159699a6d627fc597b16f2ec61fdd9ae0d22fc18478aecc34811fbdf0d691b8",
                        "prev": "0x0000000000000000000000000000000000000000000f91d36558a1feb4c80000"
                    },
                    {
                        "current": "0x00000000000000000000000000000000000000000000008cbabcb5cd72100000",
                        "key": "0xbb4328899e5d4cd6391f782b8468941cab5a73160c201de799217843a32ad2d9",
                        "prev": "0x000000000000000000000000000000000000000000000066d629d94364040000"
                    }
                ],
                "storageVariables": []
            }
        ]
    }
}