{
    "balance_change": {
        "balanceChanges": []
    },
    "profile": {
        "basic_info": {
            "baseFee": "14.245671536",
            "blockNumber": 16304523,
            "callData": "0x862440e27df5cffa8aa7d987d3834d6d493d9d0dcb5d62d200000000000147000000000100000000000000000000000000000000000000000000000000000000000000400000000000000000000000000000000000000000000000000000000000000042697066733a2f2f6261666b72656966633579636536323471356662366178363579703532676264337474706f6d773469726166643778376c69346978786836776679000000000000000000000000000000000000000000000000000000000000",
            "debugEnable": true,
            "errorInfo": "",
            "eventCount": 1,
            "feeRecipient": "0xebec795c9c8bbd61ffc14a6662944748f299cacf",
            "formatValue": "0",
            "gasLimit": 118147,
            "gasPrice": "15.745671536",
            "gasUsed": 118147,
            "intTxnCount": 0,
            "internalRevert": false,
            "internalRevertMessage": "",
            "isContractCreation": false,
            "isFlashloan": false,
            "maxFee": "22.327448078",
            "nonce": 124,
            "overwritedBlockNumber": -1,
            "priorityFee": "1.5",
            "receiver": "0x495f947276749ce646f68ac8c248420045cb7b5e",
            "revertMessage": "",
            "sender": "0x7df5cffa8aa7d987d3834d6d493d9d0dcb5d62d2",
            "simulationEnable": true,
            "sourceTxnHash": "0x19e4cd342af3f2e8147de627e3257c09444ca6cc7393c334be87a0f528096fe5",
            "status": true,
            "timestamp": "2022-12-31T11:43:35Z",
            "transactionFee": "0.001860303854963792",
            "txnHash": "0x19e4cd342af3f2e8147de627e3257c09444ca6cc7393c334be87a0f528096fe5",
            "txnIndex": 71,
            "type": 2,
            "value": "0"
        },
        "fund_flow": [],
        "token_infos": [
            {
                "address": "0xc02aaa39b223fe8d0a0e5c4f27ead9083c756cc2",
                "decimals": 18
            },
            {
                "address": "0xeeeeeeeeeeeeeeeeeeeeeeeeeeeeeeeeeeeeeeee",
                "decimals": 18
            }
        ]
    },
    "address_label": {
        "labels": [
            {
                "address": "0x0000000000000000000000000000000000000002",
                "label": "Precompiled"
            },
            {
                "address": "0x0000000000000000000000000000000000000003",
                "label": "Precompiled"
            },
            {
                "address": "0x0000000000000000000000000000000000000004",
                "label": "Precompiled"
            },
            {
                "address": "0xeeeeeeeeeeeeeeeeeeeeeeeeeeeeeeeeeeeeeeee",
                "label": "Ether"
            },
            {
                "address": "0x495f947276749ce646f68ac8c248420045cb7b5e",
                "label": "OpenSea: OPENSTORE Token"
            },
            {
                "address": "0x0000000000000000000000000000000000000001",
                "label": "Precompiled"
            }
        ]
    },
    "trace": {
        "accountLabels": null,
        "dataMap": {
            "-1": {
                "invocation": {
                    "address": "0x7df5cffa8aa7d987d3834d6d493d9d0dcb5d62d2",
                    "callData": "",
                    "decodedMethod": null,
                    "errorInfo": "",
                    "fromAddress": "",
                    "gasUsed": 0,
                    "id": -1,
                    "methodDecoded": false,
                    "operation": "",
                    "output": "",
                    "revert": false,
                    "revertMessage": "",
                    "selector": "",
                    "status": false,
                    "value": ""
                },
                "nodeType": 0
            },
            "0": {
                "invocation": {
                    "address": "0x495f947276749ce646f68ac8c248420045cb7b5e",
                    "callData": "0x7df5cffa8aa7d987d3834d6d493d9d0dcb5d62d200000000000147000000000100000000000000000000000000000000000000000000000000000000000000400000000000000000000000000000000000000000000000000000000000000042697066733a2f2f6261666b72656966633579636536323471356662366178363579703532676264337474706f6d773469726166643778376c69346978786836776679000000000000000000000000000000000000000000000000000000000000",
                    "decodedMethod": {
                        "callParams": [
                            {
                                "name": "_id",
                                "type": "uint256",
                                "value": "56,973,419,019,861,600,765,457,047,389,383,188,289,079,904,378,367,063,993,006,435,257,997,959,626,753"
                            },
                            {
                                "name": "_uri",
                                "type": "string",
                                "value": "ipfs://bafkreifc5yce624q5fb6ax65yp52gbd3ttpomw4irafd7x7li4ixxh6wfy"
                            }
                        ],
                        "constructorArguments": "",
                        "name": "setURI",
                        "returnParams": [],
                        "signature": "setURI(uint256,string)"
                    },
                    "errorInfo": "",
                    "fromAddress": "0x7df5cffa8aa7d987d3834d6d493d9d0dcb5d62d2",
                    "gasUsed": 118147,
                    "id": 0,
                    "methodDecoded": true,
                    "operation": "CALL",
                    "output": "",
                    "revert": false,
                    "revertMessage": "",
                    "selector": "0x862440e2",
                    "status": true,
                    "value": "0"
                },
                "nodeType": 0
            },
            "1": {
                "event": {
                    "contract": "0x495f947276749ce646f68ac8c248420045cb7b5e",
                    "decodedLog": {
                        "name": "URI",
                        "params": [
                            {
                                "name": "id",
                                "type": "uint256",
                                "value": "56,973,419,019,861,600,765,457,047,389,383,188,289,079,904,378,367,063,993,006,435,257,997,959,626,753"
                            },
                            {
                                "name": "value",
                                "type": "string",
                                "value": "ipfs://bafkreifc5yce624q5fb6ax65yp52gbd3ttpomw4irafd7x7li4ixxh6wfy"
                            }
                        ],
                        "signature": "URI(string,uint256)"
                    },
                    "id": 1,
                    "logData": "0x00000000000000000000000000000000000000000000000000000000000000200000000000000000000000000000000000000000000000000000000000000042697066733a2f2f6261666b72656966633579636536323471356662366178363579703532676264337474706f6d773469726166643778376c69346978786836776679000000000000000000000000000000000000000000000000000000000000",
                    "logDecoded": true,
                    "operation": "EVENT",
                    "revert": false,
                    "status": true,
                    "topics": [
                        "0x6bb7ff708619ba0610cba295a58592e0451dee2622938c8755667688daf3529b",
                        "0x7df5cffa8aa7d987d3834d6d493d9d0dcb5d62d2000000000001470000000001"
                    ]
                },
                "nodeType": 1
            }
        },
        "gasFlame": [
            {
                "children": [
                    {
                        "children": [
                            {
                                "children": [],
                                "depth": 0,
                                "name": "Initial Gas",
                                "value": 22924
                            },
                            {
                                "children": [],
                                "depth": 0,
                                "name": "Executed Gas",
                                "value": 95223
                            }
                        ],
                        "depth": -1,
                        "name": "Actual Gas Used",
                        "value": 118147
                    },
                    {
                        "children": [],
                        "depth": -1,
                        "name": "Refunded Gas",
                        "value": 0
                    }
                ],
                "depth": -2,
                "name": "Total Gas",
                "value": 118147
            }
        ],
        "isConfirmed": true,
        "mainTrace": [
            {
                "children": [
                    {
                        "children": [
                            {
                                "children": [],
                                "depth": 1,
                                "id": 1,
                                "order": 1
                            }
                        ],
                        "depth": 0,
                        "id": 0,
                        "order": 0
                    }
                ],
                "depth": -1,
                "id": -1,
                "order": -1
            }
        ],
        "mainTraceNodeCount": 2,
        "parentIdMap": {
            "0": -1,
            "1": 0
        },
        "tidyTrace": [
            {
                "children": [
                    {
                        "children": [
                            {
                                "children": [],
                                "depth": 1,
                                "id": 1,
                                "order": 1
                            }
                        ],
                        "depth": 0,
                        "id": 0,
                        "order": 0
                    }
                ],
                "depth": -1,
                "id": -1,
                "order": -1
            }
        ],
        "tidyTraceNodeCount": 2
    },
    "state_change": {
        "stateChanges": [
            {
                "address": "0x495f947276749ce646f68ac8c248420045cb7b5e",
                "erc": "",
                "slots": [
                    {
                        "current": "0x0000000000000000000000000000000000000000000000000000000000000085",
                        "key": "0xfd61f8e161b27808f67685fb109602dbd4fc6e2b4b1d6b49137d67fd2d933122",
                        "prev": "0x0000000000000000000000000000000000000000000000000000000000000000"
                    },
                    {
                        "current": "0x697066733a2f2f6261666b726569666335796365363234713566623661783635",
                        "key": "0xcc85f335ff10bed0f27c0ed982736078211507a2e7ba6e6b2d4114e24095c114",
                        "prev": "0x0000000000000000000000000000000000000000000000000000000000000000"
                    },
                    {
                        "current": "0x79703532676264337474706f6d773469726166643778376c6934697878683677",
                        "key": "0xcc85f335ff10bed0f27c0ed982736078211507a2e7ba6e6b2d4114e24095c115",
                        "prev": "0x0000000000000000000000000000000000000000000000000000000000000000"
                    },
                    {
                        "current": "0x6679000000000000000000000000000000000000000000000000000000000000",
                        "key": "0xcc85f335ff10bed0f27c0ed982736078211507a2e7ba6e6b2d4114e24095c116",
                        "prev": "0x0000000000000000000000000000000000000000000000000000000000000000"
                    }
                ],
                "storageVariables": []
            }
        ]
    }
}