{
    "balance_change": {
        "balanceChanges": [
            {
                "account": "0x746806ff971c3b33fe1bd6383efbe05ead8fb183",
                "assets": [
                    {
                        "address": "0x0aacfbec6a24756c20d41914f2caba817c0d8521",
                        "amount": "5,000",
                        "iconUrl": "https://assets.blocksec.com/icon/9d54bb339cd3b993b52c5d8deef4c9a6cf20c1259add6f00006c408b4c4fbce0.png",
                        "isERC1155": false,
                        "isERC721": false,
                        "sign": false,
                        "value": "19341.95346"
                    },
                    {
                        "address": "0xeeeeeeeeeeeeeeeeeeeeeeeeeeeeeeeeeeeeeeee",
                        "amount": "12.056151388351915844",
                        "iconUrl": "https://assets.blocksec.com/image/1663669189317-3.png",
                        "isERC1155": false,
                        "isERC721": false,
                        "sign": true,
                        "value": "19341.95346"
                    }
                ]
            },
            {
                "account": "0x0f82e57804d0b1f6fab2370a43dcfad3c7cb239c",
                "assets": [
                    {
                        "address": "0x0aacfbec6a24756c20d41914f2caba817c0d8521",
                        "amount": "5,000",
                        "iconUrl": "https://assets.blocksec.com/icon/9d54bb339cd3b993b52c5d8deef4c9a6cf20c1259add6f00006c408b4c4fbce0.png",
                        "isERC1155": false,
                        "isERC721": false,
                        "sign": true,
                        "value": "19341.95346"
                    },
                    {
                        "address": "0xc02aaa39b223fe8d0a0e5c4f27ead9083c756cc2",
                        "amount": "12.056151388351915844",
                        "iconUrl": "https://assets.blocksec.com/icon/f1cb2d02c471d545bbc7722daf3277fd852d98e63d118771af7047bd8256c516.png",
                        "isERC1155": false,
                        "isERC721": false,
                        "sign": false,
                        "value": "19341.95346"
                    }
                ]
            },
            {
                "account": "0xc02aaa39b223fe8d0a0e5c4f27ead9083c756cc2",
                "assets": [
                    {
                        "address": "0xeeeeeeeeeeeeeeeeeeeeeeeeeeeeeeeeeeeeeeee",
                        "amount": "12.056151388351915844",
                        "iconUrl": "https://assets.blocksec.com/image/1663669189317-3.png",
                        "isERC1155": false,
                        "isERC721": false,
                        "sign": false,
                        "value": "19341.95346"
                    },
                    {
                        "address": "0xc02aaa39b223fe8d0a0e5c4f27ead9083c756cc2",
                        "amount": "12.056151388351915844",
                        "iconUrl": "https://assets.blocksec.com/icon/f1cb2d02c471d545bbc7722daf3277fd852d98e63d118771af7047bd8256c516.png",
                        "isERC1155": false,
                        "isERC721": false,
                        "sign": true,
                        "value": "19341.95346"
                    }
                ]
            }
        ]
    },
    "profile": {
        "basic_info": {
            "baseFee": "",
            "blockNumber": 11925407,
            "callData": "0x18cbafe500000000000000000000000000000000000000000000010f0cf064dd59200000000000000000000000000000000000000000000000000000a67af58b33d44d4700000000000000000000000000000000000000000000000000000000000000a0000000000000000000000000746806ff971c3b33fe1bd6383efbe05ead8fb1830000000000000000000000000000000000000000000000000000000060376bff00000000000000000000000000000000000000000000000000000000000000020000000000000000000000000aacfbec6a24756c20d41914f2caba817c0d8521000000000000000000000000c02aaa39b223fe8d0a0e5c4f27ead9083c756cc2",
            "debugEnable": true,
            "errorInfo": "",
            "eventCount": 7,
            "feeRecipient": "0x04668ec2f57cc15c381b461b9fedab5d451c8f7f",
            "formatValue": "0",
            "gasLimit": 293690,
            "gasPrice": "149.600001604",
            "gasUsed": 241709,
            "intTxnCount": 12,
            "internalRevert": false,
            "internalRevertMessage": "",
            "isContractCreation": false,
            "isFlashloan": false,
            "maxFee": "",
            "nonce": 418,
            "overwritedBlockNumber": -1,
            "priorityFee": "",
            "receiver": "0xd9e1ce17f2641f24ae83637ab66a2cca9c378b9f",
            "revertMessage": "",
            "sender": "0x746806ff971c3b33fe1bd6383efbe05ead8fb183",
            "simulationEnable": true,
            "sourceTxnHash": "0x1977d91f2a3d3d46df9f28700c38cfe83e04821fefb280d3c89f14e2dcc57039",
            "status": true,
            "timestamp": "2021-02-25T09:03:54Z",
            "transactionFee": "0.036159666787701236",
            "txnHash": "0x1977d91f2a3d3d46df9f28700c38cfe83e04821fefb280d3c89f14e2dcc57039",
            "txnIndex": 120,
            "type": 0,
            "value": "0"
        },
        "fund_flow": [
            {
                "amount": "5,000",
                "from": "0x746806ff971c3b33fe1bd6383efbe05ead8fb183",
                "id": 1,
                "isERC1155": false,
                "isERC721": false,
                "isReverted": false,
                "order": 1,
                "to": "0x0f82e57804d0b1f6fab2370a43dcfad3c7cb239c",
                "token": "0x0aacfbec6a24756c20d41914f2caba817c0d8521"
            },
            {
                "amount": "12.056151388351915844",
                "from": "0x0f82e57804d0b1f6fab2370a43dcfad3c7cb239c",
                "id": 2,
                "isERC1155": false,
                "isERC721": false,
                "isReverted": false,
                "order": 2,
                "to": "0xd9e1ce17f2641f24ae83637ab66a2cca9c378b9f",
                "token": "0xc02aaa39b223fe8d0a0e5c4f27ead9083c756cc2"
            },
            {
                "amount": "12.056151388351915844",
                "from": "0xc02aaa39b223fe8d0a0e5c4f27ead9083c756cc2",
                "id": 3,
                "isERC1155": false,
                "isERC721": false,
                "isReverted": false,
                "order": 3,
                "to": "0xd9e1ce17f2641f24ae83637ab66a2cca9c378b9f",
                "token": "0xeeeeeeeeeeeeeeeeeeeeeeeeeeeeeeeeeeeeeeee"
            },
            {
                "amount": "12.056151388351915844",
                "from": "0xd9e1ce17f2641f24ae83637ab66a2cca9c378b9f",
                "id": 4,
                "isERC1155": false,
                "isERC721": false,
                "isReverted": false,
                "order": 4,
                "to": "0xc02aaa39b223fe8d0a0e5c4f27ead9083c756cc2",
                "token": "0xc02aaa39b223fe8d0a0e5c4f27ead9083c756cc2"
            },
            {
                "amount": "12.056151388351915844",
                "from": "0xd9e1ce17f2641f24ae83637ab66a2cca9c378b9f",
                "id": 5,
                "isERC1155": false,
                "isERC721": false,
                "isReverted": false,
                "order": 5,
                "to": "0x746806ff971c3b33fe1bd6383efbe05ead8fb183",
                "token": "0xeeeeeeeeeeeeeeeeeeeeeeeeeeeeeeeeeeeeeeee"
            }
        ],
        "token_infos": [
            {
                "address": "0x0aacfbec6a24756c20d41914f2caba817c0d8521",
                "decimals": 18
            },
            {
                "address": "0xc02aaa39b223fe8d0a0e5c4f27ead9083c756cc2",
                "decimals": 18
            },
            {
                "address": "0xeeeeeeeeeeeeeeeeeeeeeeeeeeeeeeeeeeeeeeee",
                "decimals": 18
            }
        ]
    },
    "address_label": {
        "labels": [
            {
                "address": "0xeeeeeeeeeeeeeeeeeeeeeeeeeeeeeeeeeeeeeeee",
                "label": "Ether"
            },
            {
                "address": "0xd9e1ce17f2641f24ae83637ab66a2cca9c378b9f",
                "label": "SushiSwap: Router"
            },
            {
                "address": "0x405d5f5b76c94ebc26a28e56961c63cd9e743af2",
                "label": "YAMDelegate3"
            },
            {
                "address": "0xc02aaa39b223fe8d0a0e5c4f27ead9083c756cc2",
                "label": "Wrapped Ether (WETH)"
            },
            {
                "address": "0x0aacfbec6a24756c20d41914f2caba817c0d8521",
                "label": "Yam.Finance: YAM Token"
            },
            {
                "address": "0x0f82e57804d0b1f6fab2370a43dcfad3c7cb239c",
                "label": "SushiSwap: YAM"
            },
            {
                "address": "0x0000000000000000000000000000000000000001",
                "label": "Precompiled"
            },
            {
                "address": "0x0000000000000000000000000000000000000003",
                "label": "Precompiled"
            },
            {
                "address": "0x0000000000000000000000000000000000000002",
                "label": "Precompiled"
            },
            {
                "address": "0x0000000000000000000000000000000000000004",
                "label": "Precompiled"
            }
        ]
    },
    "trace": {
        "accountLabels": null,
        "dataMap": {
            "-1": {
                "invocation": {
                    "address": "0x746806ff971c3b33fe1bd6383efbe05ead8fb183",
                    "callData": "",
                    "decodedMethod": null,
                    "errorInfo": "",
                    "fromAddress": "",
                    "gasUsed": 0,
                    "id": -1,
                    "methodDecoded": false,
                    "operation": "",
                    "output": "",
                    "revert": false,
                    "revertMessage": "",
                    "selector": "",
                    "status": false,
                    "value": ""
                },
                "nodeType": 0
            },
            "0": {
                "invocation": {
                    "address": "0xd9e1ce17f2641f24ae83637ab66a2cca9c378b9f",
                    "callData": "0x00000000000000000000000000000000000000000000010f0cf064dd59200000000000000000000000000000000000000000000000000000a67af58b33d44d4700000000000000000000000000000000000000000000000000000000000000a0000000000000000000000000746806ff971c3b33fe1bd6383efbe05ead8fb1830000000000000000000000000000000000000000000000000000000060376bff00000000000000000000000000000000000000000000000000000000000000020000000000000000000000000aacfbec6a24756c20d41914f2caba817c0d8521000000000000000000000000c02aaa39b223fe8d0a0e5c4f27ead9083c756cc2",
                    "decodedMethod": {
                        "callParams": [
                            {
                                "name": "amountIn",
                                "type": "uint256",
                                "value": "5,000,000,000,000,000,000,000"
                            },
                            {
                                "name": "amountOutMin",
                                "type": "uint256",
                                "value": "11,996,170,535,673,548,103"
                            },
                            {
                                "name": "path",
                                "type": "address[]",
                                "value": [
                                    "0x0aacfbec6a24756c20d41914f2caba817c0d8521",
                                    "0xc02aaa39b223fe8d0a0e5c4f27ead9083c756cc2"
                                ]
                            },
                            {
                                "name": "to",
                                "type": "address",
                                "value": "0x746806ff971c3b33fe1bd6383efbe05ead8fb183"
                            },
                            {
                                "name": "deadline",
                                "type": "uint256",
                                "value": "1,614,244,863"
                            }
                        ],
                        "constructorArguments": "",
                        "name": "swapExactTokensForETH",
                        "returnParams": [
                            {
                                "name": "amounts",
                                "type": "uint256[]",
                                "value": [
                                    "5,000,000,000,000,000,000,000",
                                    "12,056,151,388,351,915,844"
                                ]
                            }
                        ],
                        "signature": "swapExactTokensForETH(uint256,uint256,address[],address,uint256)"
                    },
                    "errorInfo": "",
                    "fromAddress": "0x746806ff971c3b33fe1bd6383efbe05ead8fb183",
                    "gasUsed": 241709,
                    "id": 0,
                    "methodDecoded": true,
                    "operation": "CALL",
                    "output": "0x0000000000000000000000000000000000000000000000000000000000000020000000000000000000000000000000000000000000000000000000000000000200000000000000000000000000000000000000000000010f0cf064dd59200000000000000000000000000000000000000000000000000000a7500dcfbd0c6744",
                    "revert": false,
                    "revertMessage": "",
                    "selector": "0x18cbafe5",
                    "status": true,
                    "value": "0"
                },
                "nodeType": 0
            },
            "1": {
                "invocation": {
                    "address": "0x0f82e57804d0b1f6fab2370a43dcfad3c7cb239c",
                    "callData": "0x",
                    "decodedMethod": {
                        "callParams": [],
                        "constructorArguments": "",
                        "name": "getReserves",
                        "returnParams": [
                            {
                                "name": "_reserve0",
                                "type": "uint112",
                                "value": "1,184,835,705,514,808,690,999,731"
                            },
                            {
                                "name": "_reserve1",
                                "type": "uint112",
                                "value": "2,877,564,403,346,482,811,042"
                            },
                            {
                                "name": "_blockTimestampLast",
                                "type": "uint32",
                                "value": "1,614,242,490"
                            }
                        ],
                        "signature": "getReserves()"
                    },
                    "errorInfo": "",
                    "fromAddress": "0xd9e1ce17f2641f24ae83637ab66a2cca9c378b9f",
                    "gasUsed": 1217,
                    "id": 1,
                    "methodDecoded": true,
                    "operation": "STATICCALL",
                    "output": "0x00000000000000000000000000000000000000000000fae612821d1ba2fa01b300000000000000000000000000000000000000000000009bfe3a6ada9ffa50a200000000000000000000000000000000000000000000000000000000603762ba",
                    "revert": false,
                    "revertMessage": "",
                    "selector": "0x0902f1ac",
                    "status": true,
                    "value": "0"
                },
                "nodeType": 0
            },
            "10": {
                "invocation": {
                    "address": "0x0aacfbec6a24756c20d41914f2caba817c0d8521",
                    "callData": "0x0000000000000000000000000f82e57804d0b1f6fab2370a43dcfad3c7cb239c",
                    "decodedMethod": {
                        "callParams": [
                            {
                                "name": "owner",
                                "type": "address",
                                "value": "0x0f82e57804d0b1f6fab2370a43dcfad3c7cb239c"
                            }
                        ],
                        "constructorArguments": "",
                        "name": "balanceOf",
                        "returnParams": [
                            {
                                "decimalAvailable": true,
                                "name": "",
                                "type": "uint256",
                                "value": "1,189,835,705,514,808,690,999,731"
                            }
                        ],
                        "signature": "balanceOf(address)"
                    },
                    "errorInfo": "",
                    "fromAddress": "0x0f82e57804d0b1f6fab2370a43dcfad3c7cb239c",
                    "gasUsed": 7323,
                    "id": 10,
                    "methodDecoded": true,
                    "operation": "STATICCALL",
                    "output": "0x00000000000000000000000000000000000000000000fbf51f7281f8fc1a01b3",
                    "revert": false,
                    "revertMessage": "",
                    "selector": "0x70a08231",
                    "status": true,
                    "value": "0"
                },
                "nodeType": 0
            },
            "11": {
                "invocation": {
                    "address": "0x0aacfbec6a24756c20d41914f2caba817c0d8521",
                    "callData": "0x0000000000000000000000000000000000000000000000000000000000000020000000000000000000000000000000000000000000000000000000000000002470a082310000000000000000000000000f82e57804d0b1f6fab2370a43dcfad3c7cb239c00000000000000000000000000000000000000000000000000000000",
                    "decodedMethod": {
                        "callParams": [
                            {
                                "name": "data",
                                "type": "bytes",
                                "value": "0x70a082310000000000000000000000000f82e57804d0b1f6fab2370a43dcfad3c7cb239c"
                            }
                        ],
                        "constructorArguments": "",
                        "name": "delegateToImplementation",
                        "returnParams": [
                            {
                                "name": "",
                                "type": "bytes",
                                "value": "0x00000000000000000000000000000000000000000000fbf51f7281f8fc1a01b3"
                            }
                        ],
                        "signature": "delegateToImplementation(bytes)"
                    },
                    "errorInfo": "",
                    "fromAddress": "0x0aacfbec6a24756c20d41914f2caba817c0d8521",
                    "gasUsed": 5322,
                    "id": 11,
                    "methodDecoded": true,
                    "operation": "STATICCALL",
                    "output": "0x0000000000000000000000000000000000000000000000000000000000000020000000000000000000000000000000000000000000000000000000000000002000000000000000000000000000000000000000000000fbf51f7281f8fc1a01b3",
                    "revert": false,
                    "revertMessage": "",
                    "selector": "0x0933c1ed",
                    "status": true,
                    "value": "0"
                },
                "nodeType": 0
            },
            "12": {
                "invocation": {
                    "address": "0x405d5f5b76c94ebc26a28e56961c63cd9e743af2",
                    "callData": "0x0000000000000000000000000f82e57804d0b1f6fab2370a43dcfad3c7cb239c",
                    "decodedMethod": {
                        "callParams": [
                            {
                                "name": "who",
                                "type": "address",
                                "value": "0x0f82e57804d0b1f6fab2370a43dcfad3c7cb239c"
                            }
                        ],
                        "constructorArguments": "",
                        "name": "balanceOf",
                        "returnParams": [
                            {
                                "decimalAvailable": true,
                                "name": "",
                                "type": "uint256",
                                "value": "1,189,835,705,514,808,690,999,731"
                            }
                        ],
                        "signature": "balanceOf(address)"
                    },
                    "errorInfo": "",
                    "fromAddress": "0x0aacfbec6a24756c20d41914f2caba817c0d8521",
                    "gasUsed": 2381,
                    "id": 12,
                    "methodDecoded": true,
                    "operation": "DELEGATECALL",
                    "output": "0x00000000000000000000000000000000000000000000fbf51f7281f8fc1a01b3",
                    "revert": false,
                    "revertMessage": "",
                    "selector": "0x70a08231",
                    "status": true,
                    "value": "0"
                },
                "nodeType": 0
            },
            "13": {
                "invocation": {
                    "address": "0xc02aaa39b223fe8d0a0e5c4f27ead9083c756cc2",
                    "callData": "0x0000000000000000000000000f82e57804d0b1f6fab2370a43dcfad3c7cb239c",
                    "decodedMethod": {
                        "callParams": [
                            {
                                "name": "",
                                "type": "address",
                                "value": "0x0f82e57804d0b1f6fab2370a43dcfad3c7cb239c"
                            }
                        ],
                        "constructorArguments": "",
                        "name": "balanceOf",
                        "returnParams": [
                            {
                                "decimalAvailable": true,
                                "name": "",
                                "type": "uint256",
                                "value": "2,865,508,251,958,130,895,198"
                            }
                        ],
                        "signature": "balanceOf(address)"
                    },
                    "errorInfo": "",
                    "fromAddress": "0x0f82e57804d0b1f6fab2370a43dcfad3c7cb239c",
                    "gasUsed": 1234,
                    "id": 13,
                    "methodDecoded": true,
                    "operation": "STATICCALL",
                    "output": "0x00000000000000000000000000000000000000000000009b56ea5d0ae2ede95e",
                    "revert": false,
                    "revertMessage": "",
                    "selector": "0x70a08231",
                    "status": true,
                    "value": "0"
                },
                "nodeType": 0
            },
            "14": {
                "event": {
                    "contract": "0x0f82e57804d0b1f6fab2370a43dcfad3c7cb239c",
                    "decodedLog": {
                        "name": "Sync",
                        "params": [
                            {
                                "name": "reserve0",
                                "type": "uint112",
                                "value": "1,189,835,705,514,808,690,999,731"
                            },
                            {
                                "name": "reserve1",
                                "type": "uint112",
                                "value": "2,865,508,251,958,130,895,198"
                            }
                        ],
                        "signature": "Sync(uint112,uint112)"
                    },
                    "id": 14,
                    "logData": "0x00000000000000000000000000000000000000000000fbf51f7281f8fc1a01b300000000000000000000000000000000000000000000009b56ea5d0ae2ede95e",
                    "logDecoded": true,
                    "operation": "EVENT",
                    "revert": false,
                    "status": true,
                    "topics": [
                        "0x1c411e9a96e071241c2f21f7726b17ae89e3cab4c78be50e062b03a9fffbbad1"
                    ]
                },
                "nodeType": 1
            },
            "15": {
                "event": {
                    "contract": "0x0f82e57804d0b1f6fab2370a43dcfad3c7cb239c",
                    "decodedLog": {
                        "name": "Swap",
                        "params": [
                            {
                                "name": "sender",
                                "type": "address",
                                "value": "0xd9e1ce17f2641f24ae83637ab66a2cca9c378b9f"
                            },
                            {
                                "name": "to",
                                "type": "address",
                                "value": "0xd9e1ce17f2641f24ae83637ab66a2cca9c378b9f"
                            },
                            {
                                "name": "amount0In",
                                "type": "uint256",
                                "value": "5,000,000,000,000,000,000,000"
                            },
                            {
                                "name": "amount1In",
                                "type": "uint256",
                                "value": "0"
                            },
                            {
                                "name": "amount0Out",
                                "type": "uint256",
                                "value": "0"
                            },
                            {
                                "name": "amount1Out",
                                "type": "uint256",
                                "value": "12,056,151,388,351,915,844"
                            }
                        ],
                        "signature": "Swap(address,uint256,uint256,uint256,uint256,address)"
                    },
                    "id": 15,
                    "logData": "0x00000000000000000000000000000000000000000000010f0cf064dd5920000000000000000000000000000000000000000000000000000000000000000000000000000000000000000000000000000000000000000000000000000000000000000000000000000000000000000000000000000000000000a7500dcfbd0c6744",
                    "logDecoded": true,
                    "operation": "EVENT",
                    "revert": false,
                    "status": true,
                    "topics": [
                        "0xd78ad95fa46c994b6551d0da85fc275fe613ce37657fb8d5e3d130840159d822",
                        "0x000000000000000000000000d9e1ce17f2641f24ae83637ab66a2cca9c378b9f",
                        "0x000000000000000000000000d9e1ce17f2641f24ae83637ab66a2cca9c378b9f"
                    ]
                },
                "nodeType": 1
            },
            "16": {
                "invocation": {
                    "address": "0xc02aaa39b223fe8d0a0e5c4f27ead9083c756cc2",
                    "callData": "0x000000000000000000000000000000000000000000000000a7500dcfbd0c6744",
                    "decodedMethod": {
                        "callParams": [
                            {
                                "name": "wad",
                                "type": "uint256",
                                "value": "12,056,151,388,351,915,844"
                            }
                        ],
                        "constructorArguments": "",
                        "name": "withdraw",
                        "returnParams": [],
                        "signature": "withdraw(uint256)"
                    },
                    "errorInfo": "",
                    "fromAddress": "0xd9e1ce17f2641f24ae83637ab66a2cca9c378b9f",
                    "gasUsed": 11935,
                    "id": 16,
                    "methodDecoded": true,
                    "operation": "CALL",
                    "output": "",
                    "revert": false,
                    "revertMessage": "",
                    "selector": "0x2e1a7d4d",
                    "status": true,
                    "value": "0"
                },
                "nodeType": 0
            },
            "17": {
                "invocation": {
                    "address": "0xd9e1ce17f2641f24ae83637ab66a2cca9c378b9f",
                    "callData": "0x",
                    "decodedMethod": null,
                    "errorInfo": "",
                    "fromAddress": "0xc02aaa39b223fe8d0a0e5c4f27ead9083c756cc2",
                    "gasUsed": 95,
                    "id": 17,
                    "methodDecoded": false,
                    "operation": "CALL",
                    "output": "",
                    "revert": false,
                    "revertMessage": "",
                    "selector": "fallback",
                    "status": true,
                    "value": "12.056151388351915844"
                },
                "nodeType": 0
            },
            "18": {
                "event": {
                    "contract": "0xc02aaa39b223fe8d0a0e5c4f27ead9083c756cc2",
                    "decodedLog": {
                        "name": "Withdrawal",
                        "params": [
                            {
                                "name": "src",
                                "type": "address",
                                "value": "0xd9e1ce17f2641f24ae83637ab66a2cca9c378b9f"
                            },
                            {
                                "name": "wad",
                                "type": "uint256",
                                "value": "12,056,151,388,351,915,844"
                            }
                        ],
                        "signature": "Withdrawal(address,uint256)"
                    },
                    "id": 18,
                    "logData": "0x000000000000000000000000000000000000000000000000a7500dcfbd0c6744",
                    "logDecoded": true,
                    "operation": "EVENT",
                    "revert": false,
                    "status": true,
                    "topics": [
                        "0x7fcf532c15f0a6db0bd6d0e038bea71d30d808c7d98cb3bf7268a95bf5081b65",
                        "0x000000000000000000000000d9e1ce17f2641f24ae83637ab66a2cca9c378b9f"
                    ]
                },
                "nodeType": 1
            },
            "19": {
                "invocation": {
                    "address": "0x746806ff971c3b33fe1bd6383efbe05ead8fb183",
                    "callData": "0x",
                    "decodedMethod": null,
                    "errorInfo": "",
                    "fromAddress": "0xd9e1ce17f2641f24ae83637ab66a2cca9c378b9f",
                    "gasUsed": 0,
                    "id": 19,
                    "methodDecoded": false,
                    "operation": "CALL",
                    "output": "",
                    "revert": false,
                    "revertMessage": "",
                    "selector": "fallback",
                    "status": true,
                    "value": "12.056151388351915844"
                },
                "nodeType": 0
            },
            "2": {
                "invocation": {
                    "address": "0x0aacfbec6a24756c20d41914f2caba817c0d8521",
                    "callData": "0x000000000000000000000000746806ff971c3b33fe1bd6383efbe05ead8fb1830000000000000000000000000f82e57804d0b1f6fab2370a43dcfad3c7cb239c00000000000000000000000000000000000000000000010f0cf064dd59200000",
                    "decodedMethod": {
                        "callParams": [
                            {
                                "name": "src",
                                "type": "address",
                                "value": "0x746806ff971c3b33fe1bd6383efbe05ead8fb183"
                            },
                            {
                                "name": "dst",
                                "type": "address",
                                "value": "0x0f82e57804d0b1f6fab2370a43dcfad3c7cb239c"
                            },
                            {
                                "decimalAvailable": true,
                                "name": "amount",
                                "type": "uint256",
                                "value": "5,000,000,000,000,000,000,000"
                            }
                        ],
                        "constructorArguments": "",
                        "name": "transferFrom",
                        "returnParams": [
                            {
                                "name": "",
                                "type": "bool",
                                "value": true
                            }
                        ],
                        "signature": "transferFrom(address,address,uint256)"
                    },
                    "errorInfo": "",
                    "fromAddress": "0xd9e1ce17f2641f24ae83637ab66a2cca9c378b9f",
                    "gasUsed": 129898,
                    "id": 2,
                    "methodDecoded": true,
                    "operation": "CALL",
                    "output": "0x0000000000000000000000000000000000000000000000000000000000000001",
                    "revert": false,
                    "revertMessage": "",
                    "selector": "0x23b872dd",
                    "status": true,
                    "value": "0"
                },
                "nodeType": 0
            },
            "3": {
                "invocation": {
                    "address": "0x405d5f5b76c94ebc26a28e56961c63cd9e743af2",
                    "callData": "0x000000000000000000000000746806ff971c3b33fe1bd6383efbe05ead8fb1830000000000000000000000000f82e57804d0b1f6fab2370a43dcfad3c7cb239c00000000000000000000000000000000000000000000010f0cf064dd59200000",
                    "decodedMethod": {
                        "callParams": [
                            {
                                "name": "from",
                                "type": "address",
                                "value": "0x746806ff971c3b33fe1bd6383efbe05ead8fb183"
                            },
                            {
                                "name": "to",
                                "type": "address",
                                "value": "0x0f82e57804d0b1f6fab2370a43dcfad3c7cb239c"
                            },
                            {
                                "decimalAvailable": true,
                                "name": "value",
                                "type": "uint256",
                                "value": "5,000,000,000,000,000,000,000"
                            }
                        ],
                        "constructorArguments": "",
                        "name": "transferFrom",
                        "returnParams": [
                            {
                                "name": "",
                                "type": "bool",
                                "value": true
                            }
                        ],
                        "signature": "transferFrom(address,address,uint256)"
                    },
                    "errorInfo": "",
                    "fromAddress": "0x0aacfbec6a24756c20d41914f2caba817c0d8521",
                    "gasUsed": 127770,
                    "id": 3,
                    "methodDecoded": true,
                    "operation": "DELEGATECALL",
                    "output": "0x0000000000000000000000000000000000000000000000000000000000000001",
                    "revert": false,
                    "revertMessage": "",
                    "selector": "0x23b872dd",
                    "status": true,
                    "value": "0"
                },
                "nodeType": 0
            },
            "4": {
                "event": {
                    "contract": "0x0aacfbec6a24756c20d41914f2caba817c0d8521",
                    "decodedLog": {
                        "name": "Transfer",
                        "params": [
                            {
                                "name": "from",
                                "type": "address",
                                "value": "0x746806ff971c3b33fe1bd6383efbe05ead8fb183"
                            },
                            {
                                "name": "to",
                                "type": "address",
                                "value": "0x0f82e57804d0b1f6fab2370a43dcfad3c7cb239c"
                            },
                            {
                                "decimalAvailable": true,
                                "name": "amount",
                                "type": "uint256",
                                "value": "5,000,000,000,000,000,000,000"
                            }
                        ],
                        "signature": "Transfer(address,address,uint256)"
                    },
                    "id": 4,
                    "logData": "0x00000000000000000000000000000000000000000000010f0cf064dd59200000",
                    "logDecoded": true,
                    "operation": "EVENT",
                    "revert": false,
                    "status": true,
                    "topics": [
                        "0xddf252ad1be2c89b69c2b068fc378daa952ba7f163c4a11628f55a4df523b3ef",
                        "0x000000000000000000000000746806ff971c3b33fe1bd6383efbe05ead8fb183",
                        "0x0000000000000000000000000f82e57804d0b1f6fab2370a43dcfad3c7cb239c"
                    ]
                },
                "nodeType": 1
            },
            "5": {
                "event": {
                    "contract": "0x0aacfbec6a24756c20d41914f2caba817c0d8521",
                    "decodedLog": {
                        "name": "DelegateVotesChanged",
                        "params": [
                            {
                                "name": "delegate",
                                "type": "address",
                                "value": "0x746806ff971c3b33fe1bd6383efbe05ead8fb183"
                            },
                            {
                                "name": "previousBalance",
                                "type": "uint256",
                                "value": "1,999,096,044,371,611,168,077,432,934"
                            },
                            {
                                "name": "newBalance",
                                "type": "uint256",
                                "value": "154,244,898,691,236,683,940,290"
                            }
                        ],
                        "signature": "DelegateVotesChanged(address,uint256,uint256)"
                    },
                    "id": 5,
                    "logData": "0x000000000000000000000000000000000000000006759d0db73aff03e402c8660000000000000000000000000000000000000000000020a9a1f9772e8cdd81c2",
                    "logDecoded": true,
                    "operation": "EVENT",
                    "revert": false,
                    "status": true,
                    "topics": [
                        "0xdec2bacdd2f05b59de34da9b523dff8be42e5e38e818c82fdb0bae774387a724",
                        "0x000000000000000000000000746806ff971c3b33fe1bd6383efbe05ead8fb183"
                    ]
                },
                "nodeType": 1
            },
            "6": {
                "event": {
                    "contract": "0x0aacfbec6a24756c20d41914f2caba817c0d8521",
                    "decodedLog": {
                        "name": "DelegateVotesChanged",
                        "params": [
                            {
                                "name": "delegate",
                                "type": "address",
                                "value": "0x0f82e57804d0b1f6fab2370a43dcfad3c7cb239c"
                            },
                            {
                                "name": "previousBalance",
                                "type": "uint256",
                                "value": "473,683,523,452,307,665,298,492,326,982"
                            },
                            {
                                "name": "newBalance",
                                "type": "uint256",
                                "value": "475,682,465,251,780,585,229,885,819,626"
                            }
                        ],
                        "signature": "DelegateVotesChanged(address,uint256,uint256)"
                    },
                    "id": 6,
                    "logData": "0x0000000000000000000000000000000000000005fa8dd3bbe10752ec0ac9844600000000000000000000000000000000000000060103501ff648dac161eecaea",
                    "logDecoded": true,
                    "operation": "EVENT",
                    "revert": false,
                    "status": true,
                    "topics": [
                        "0xdec2bacdd2f05b59de34da9b523dff8be42e5e38e818c82fdb0bae774387a724",
                        "0x0000000000000000000000000f82e57804d0b1f6fab2370a43dcfad3c7cb239c"
                    ]
                },
                "nodeType": 1
            },
            "7": {
                "invocation": {
                    "address": "0x0f82e57804d0b1f6fab2370a43dcfad3c7cb239c",
                    "callData": "0x0000000000000000000000000000000000000000000000000000000000000000000000000000000000000000000000000000000000000000a7500dcfbd0c6744000000000000000000000000d9e1ce17f2641f24ae83637ab66a2cca9c378b9f00000000000000000000000000000000000000000000000000000000000000800000000000000000000000000000000000000000000000000000000000000000",
                    "decodedMethod": {
                        "callParams": [
                            {
                                "name": "amount0Out",
                                "type": "uint256",
                                "value": "0"
                            },
                            {
                                "name": "amount1Out",
                                "type": "uint256",
                                "value": "12,056,151,388,351,915,844"
                            },
                            {
                                "name": "to",
                                "type": "address",
                                "value": "0xd9e1ce17f2641f24ae83637ab66a2cca9c378b9f"
                            },
                            {
                                "name": "data",
                                "type": "bytes",
                                "value": "0x"
                            }
                        ],
                        "constructorArguments": "",
                        "name": "swap",
                        "returnParams": [],
                        "signature": "swap(uint256,uint256,address,bytes)"
                    },
                    "errorInfo": "",
                    "fromAddress": "0xd9e1ce17f2641f24ae83637ab66a2cca9c378b9f",
                    "gasUsed": 78115,
                    "id": 7,
                    "methodDecoded": true,
                    "operation": "CALL",
                    "output": "",
                    "revert": false,
                    "revertMessage": "",
                    "selector": "0x022c0d9f",
                    "status": true,
                    "value": "0"
                },
                "nodeType": 0
            },
            "8": {
                "invocation": {
                    "address": "0xc02aaa39b223fe8d0a0e5c4f27ead9083c756cc2",
                    "callData": "0x000000000000000000000000d9e1ce17f2641f24ae83637ab66a2cca9c378b9f000000000000000000000000000000000000000000000000a7500dcfbd0c6744",
                    "decodedMethod": {
                        "callParams": [
                            {
                                "name": "dst",
                                "type": "address",
                                "value": "0xd9e1ce17f2641f24ae83637ab66a2cca9c378b9f"
                            },
                            {
                                "decimalAvailable": true,
                                "name": "wad",
                                "type": "uint256",
                                "value": "12,056,151,388,351,915,844"
                            }
                        ],
                        "constructorArguments": "",
                        "name": "transfer",
                        "returnParams": [
                            {
                                "name": "",
                                "type": "bool",
                                "value": true
                            }
                        ],
                        "signature": "transfer(address,uint256)"
                    },
                    "errorInfo": "",
                    "fromAddress": "0x0f82e57804d0b1f6fab2370a43dcfad3c7cb239c",
                    "gasUsed": 30162,
                    "id": 8,
                    "methodDecoded": true,
                    "operation": "CALL",
                    "output": "0x0000000000000000000000000000000000000000000000000000000000000001",
                    "revert": false,
                    "revertMessage": "",
                    "selector": "0xa9059cbb",
                    "status": true,
                    "value": "0"
                },
                "nodeType": 0
            },
            "9": {
                "event": {
                    "contract": "0xc02aaa39b223fe8d0a0e5c4f27ead9083c756cc2",
                    "decodedLog": {
                        "name": "Transfer",
                        "params": [
                            {
                                "name": "src",
                                "type": "address",
                                "value": "0x0f82e57804d0b1f6fab2370a43dcfad3c7cb239c"
                            },
                            {
                                "name": "dst",
                                "type": "address",
                                "value": "0xd9e1ce17f2641f24ae83637ab66a2cca9c378b9f"
                            },
                            {
                                "decimalAvailable": true,
                                "name": "wad",
                                "type": "uint256",
                                "value": "12,056,151,388,351,915,844"
                            }
                        ],
                        "signature": "Transfer(address,address,uint256)"
                    },
                    "id": 9,
                    "logData": "0x000000000000000000000000000000000000000000000000a7500dcfbd0c6744",
                    "logDecoded": true,
                    "operation": "EVENT",
                    "revert": false,
                    "status": true,
                    "topics": [
                        "0xddf252ad1be2c89b69c2b068fc378daa952ba7f163c4a11628f55a4df523b3ef",
                        "0x0000000000000000000000000f82e57804d0b1f6fab2370a43dcfad3c7cb239c",
                        "0x000000000000000000000000d9e1ce17f2641f24ae83637ab66a2cca9c378b9f"
                    ]
                },
                "nodeType": 1
            }
        },
        "gasFlame": [
            {
                "children": [
                    {
                        "children": [
                            {
                                "children": [],
                                "depth": 0,
                                "name": "Initial Gas",
                                "value": 23072
                            },
                            {
                                "children": [
                                    {
                                        "children": [],
                                        "depth": 1,
                                        "name": "getReserves",
                                        "value": 1217
                                    },
                                    {
                                        "children": [
                                            {
                                                "children": [],
                                                "depth": 2,
                                                "name": "transferFrom",
                                                "value": 127770
                                            }
                                        ],
                                        "depth": 1,
                                        "name": "transferFrom",
                                        "value": 129898
                                    },
                                    {
                                        "children": [
                                            {
                                                "children": [],
                                                "depth": 2,
                                                "name": "transfer",
                                                "value": 30162
                                            },
                                            {
                                                "children": [
                                                    {
                                                        "children": [
                                                            {
                                                                "children": [],
                                                                "depth": 4,
                                                                "name": "balanceOf",
                                                                "value": 2381
                                                            }
                                                        ],
                                                        "depth": 3,
                                                        "name": "delegateToImplementation",
                                                        "value": 5322
                                                    }
                                                ],
                                                "depth": 2,
                                                "name": "balanceOf",
                                                "value": 7323
                                            },
                                            {
                                                "children": [],
                                                "depth": 2,
                                                "name": "balanceOf",
                                                "value": 1234
                                            }
                                        ],
                                        "depth": 1,
                                        "name": "swap",
                                        "value": 78115
                                    },
                                    {
                                        "children": [
                                            {
                                                "children": [],
                                                "depth": 2,
                                                "name": "fallback",
                                                "value": 95
                                            }
                                        ],
                                        "depth": 1,
                                        "name": "withdraw",
                                        "value": 11935
                                    },
                                    {
                                        "children": [],
                                        "depth": 1,
                                        "name": "fallback",
                                        "value": 0
                                    }
                                ],
                                "depth": 0,
                                "name": "Executed Gas",
                                "value": 242037
                            }
                        ],
                        "depth": -1,
                        "name": "Actual Gas Used",
                        "value": 241709
                    },
                    {
                        "children": [],
                        "depth": -1,
                        "name": "Refunded Gas",
                        "value": 23400
                    }
                ],
                "depth": -2,
                "name": "Total Gas",
                "value": 265109
            }
        ],
        "isConfirmed": true,
        "mainTrace": [
            {
                "children": [
                    {
                        "children": [
                            {
                                "children": [],
                                "depth": 1,
                                "id": 1,
                                "order": 1
                            },
                            {
                                "children": [
                                    {
                                        "children": [
                                            {
                                                "children": [],
                                                "depth": 3,
                                                "id": 4,
                                                "order": 4
                                            },
                                            {
                                                "children": [],
                                                "depth": 3,
                                                "id": 5,
                                                "order": 5
                                            },
                                            {
                                                "children": [],
                                                "depth": 3,
                                                "id": 6,
                                                "order": 6
                                            }
                                        ],
                                        "depth": 2,
                                        "id": 3,
                                        "order": 3
                                    }
                                ],
                                "depth": 1,
                                "id": 2,
                                "order": 2
                            },
                            {
                                "children": [
                                    {
                                        "children": [
                                            {
                                                "children": [],
                                                "depth": 3,
                                                "id": 9,
                                                "order": 9
                                            }
                                        ],
                                        "depth": 2,
                                        "id": 8,
                                        "order": 8
                                    },
                                    {
                                        "children": [
                                            {
                                                "children": [
                                                    {
                                                        "children": [],
                                                        "depth": 4,
                                                        "id": 12,
                                                        "order": 12
                                                    }
                                                ],
                                                "depth": 3,
                                                "id": 11,
                                                "order": 11
                                            }
                                        ],
                                        "depth": 2,
                                        "id": 10,
                                        "order": 10
                                    },
                                    {
                                        "children": [],
                                        "depth": 2,
                                        "id": 13,
                                        "order": 13
                                    },
                                    {
                                        "children": [],
                                        "depth": 2,
                                        "id": 14,
                                        "order": 14
                                    },
                                    {
                                        "children": [],
                                        "depth": 2,
                                        "id": 15,
                                        "order": 15
                                    }
                                ],
                                "depth": 1,
                                "id": 7,
                                "order": 7
                            },
                            {
                                "children": [
                                    {
                                        "children": [],
                                        "depth": 2,
                                        "id": 17,
                                        "order": 17
                                    },
                                    {
                                        "children": [],
                                        "depth": 2,
                                        "id": 18,
                                        "order": 18
                                    }
                                ],
                                "depth": 1,
                                "id": 16,
                                "order": 16
                            },
                            {
                                "children": [],
                                "depth": 1,
                                "id": 19,
                                "order": 19
                            }
                        ],
                        "depth": 0,
                        "id": 0,
                        "order": 0
                    }
                ],
                "depth": -1,
                "id": -1,
                "order": -1
            }
        ],
        "mainTraceNodeCount": 20,
        "parentIdMap": {
            "0": -1,
            "1": 0,
            "10": 7,
            "11": 10,
            "12": 11,
            "13": 7,
            "14": 7,
            "15": 7,
            "16": 0,
            "17": 16,
            "18": 16,
            "19": 0,
            "2": 0,
            "3": 2,
            "4": 3,
            "5": 3,
            "6": 3,
            "7": 0,
            "8": 7,
            "9": 8
        },
        "tidyTrace": [
            {
                "children": [
                    {
                        "children": [
                            {
                                "children": [
                                    {
                                        "children": [
                                            {
                                                "children": [],
                                                "depth": 3,
                                                "id": 4,
                                                "order": 4
                                            },
                                            {
                                                "children": [],
                                                "depth": 3,
                                                "id": 5,
                                                "order": 5
                                            },
                                            {
                                                "children": [],
                                                "depth": 3,
                                                "id": 6,
                                                "order": 6
                                            }
                                        ],
                                        "depth": 2,
                                        "id": 3,
                                        "order": 3
                                    }
                                ],
                                "depth": 1,
                                "id": 2,
                                "order": 2
                            },
                            {
                                "children": [
                                    {
                                        "children": [
                                            {
                                                "children": [],
                                                "depth": 3,
                                                "id": 9,
                                                "order": 9
                                            }
                                        ],
                                        "depth": 2,
                                        "id": 8,
                                        "order": 8
                                    },
                                    {
                                        "children": [],
                                        "depth": 2,
                                        "id": 14,
                                        "order": 14
                                    },
                                    {
                                        "children": [],
                                        "depth": 2,
                                        "id": 15,
                                        "order": 15
                                    }
                                ],
                                "depth": 1,
                                "id": 7,
                                "order": 7
                            },
                            {
                                "children": [
                                    {
                                        "children": [],
                                        "depth": 2,
                                        "id": 17,
                                        "order": 17
                                    },
                                    {
                                        "children": [],
                                        "depth": 2,
                                        "id": 18,
                                        "order": 18
                                    }
                                ],
                                "depth": 1,
                                "id": 16,
                                "order": 16
                            },
                            {
                                "children": [],
                                "depth": 1,
                                "id": 19,
                                "order": 19
                            }
                        ],
                        "depth": 0,
                        "id": 0,
                        "order": 0
                    }
                ],
                "depth": -1,
                "id": -1,
                "order": -1
            }
        ],
        "tidyTraceNodeCount": 15
    },
    "state_change": {
        "stateChanges": [
            {
                "address": "0x0aacfbec6a24756c20d41914f2caba817c0d8521",
                "erc": "ERC-20",
                "slots": [
                    {
                        "current": "0x0000000000000000000000000000000000000000000000000000000000003146",
                        "key": "0xc316d53d4b931c717241b2d45df02b4bf469642454f5c2e6b399e4bf627a3345",
                        "prev": "0x0000000000000000000000000000000000000000000000000000000000003145"
                    },
                    {
                        "current": "0xfffffffffffffffffffffffffffffffffffffffffffffef0f30f9b22a6dfffff",
                        "key": "0x195e1c57b2d14cce45183e677db49040c5297e68fa51bd5aae76dba770d4dab5",
                        "prev": "0xffffffffffffffffffffffffffffffffffffffffffffffffffffffffffffffff"
                    },
                    {
                        "current": "0x0000000000000000000000000000000000000000000020a9a1f9772e8cdd81c2",
                        "key": "0x92eb2ca6369bd567aec506b8b264addaf214a37c0c902b024fc87aa2a5a2a41f",
                        "prev": "0x000000000000000000000000000000000000000006759d0db73aff03e402c866"
                    },
                    {
                        "current": "0x0000000000000000000000000000000000000000000000000000000000b5f79f",
                        "key": "0x01631f268cd67a9eb68cc7b1c1e92c59f3e40c735d86276abf01be83e14282f3",
                        "prev": "0x0000000000000000000000000000000000000000000000000000000000000000"
                    },
                    {
                        "current": "0x0000000000000000000000000000000000000000000020a9a1f9772e8cdd81c2",
                        "key": "0x01631f268cd67a9eb68cc7b1c1e92c59f3e40c735d86276abf01be83e14282f4",
                        "prev": "0x0000000000000000000000000000000000000000000000000000000000000000"
                    },
                    {
                        "current": "0x0000000000000000000000000000000000000000000000000000000000000008",
                        "key": "0x61e23e9fbe6573906d56e161977b5d05311b85bd0fbead8cf2d6ac34dc3b9ddd",
                        "prev": "0x0000000000000000000000000000000000000000000000000000000000000007"
                    },
                    {
                        "current": "0x00000000000000000000000000000000000000060103501ff648dac161eecaea",
                        "key": "0x313af42cd40023247efe5103018e882f015b65392126c7d63e4808cb5a636e2f",
                        "prev": "0x0000000000000000000000000000000000000000000000000000000000000000"
                    },
                    {
                        "current": "0x00000000000000000000000000000000000000060103501ff648dac161eecaea",
                        "key": "0x6ab0169c98e3dccb37cf7ef015013a2ffeb4a2f57bbe37fcb7726987774c0876",
                        "prev": "0x0000000000000000000000000000000000000005fa8dd3bbe10752ec0ac98446"
                    },
                    {
                        "current": "0x0000000000000000000000000000000000000000000000000000000000b5f79f",
                        "key": "0x313af42cd40023247efe5103018e882f015b65392126c7d63e4808cb5a636e2e",
                        "prev": "0x0000000000000000000000000000000000000000000000000000000000000000"
                    }
                ],
                "storageVariables": [
                    {
                        "name": "checkpoints",
                        "type": "mapping(address => mapping(uint32 => struct YAMGovernanceStorage.Checkpoint))",
                        "value": {
                            "pairs": [
                                {
                                    "key": "0x0f82e57804d0b1f6fab2370a43dcfad3c7cb239c",
                                    "value": {
                                        "pairs": [
                                            {
                                                "key": "12613",
                                                "value": {
                                                    "fields": [
                                                        {
                                                            "name": "fromBlock",
                                                            "type": "uint32",
                                                            "value": {
                                                                "current": "11925407",
                                                                "prev": "0",
                                                                "typeTag": 1
                                                            }
                                                        },
                                                        {
                                                            "name": "votes",
                                                            "type": "uint256",
                                                            "value": {
                                                                "current": "475682465251780585229885819626",
                                                                "prev": "0",
                                                                "typeTag": 1
                                                            }
                                                        }
                                                    ],
                                                    "typeTag": 3
                                                }
                                            }
                                        ],
                                        "typeTag": 4
                                    }
                                },
                                {
                                    "key": "0x746806ff971c3b33fe1bd6383efbe05ead8fb183",
                                    "value": {
                                        "pairs": [
                                            {
                                                "key": "7",
                                                "value": {
                                                    "fields": [
                                                        {
                                                            "name": "fromBlock",
                                                            "type": "uint32",
                                                            "value": {
                                                                "current": "11925407",
                                                                "prev": "0",
                                                                "typeTag": 1
                                                            }
                                                        },
                                                        {
                                                            "name": "votes",
                                                            "type": "uint256",
                                                            "value": {
                                                                "current": "154244898691236683940290",
                                                                "prev": "0",
                                                                "typeTag": 1
                                                            }
                                                        }
                                                    ],
                                                    "typeTag": 3
                                                }
                                            }
                                        ],
                                        "typeTag": 4
                                    }
                                }
                            ],
                            "typeTag": 4
                        }
                    },
                    {
                        "name": "numCheckpoints",
                        "type": "mapping(address => uint32)",
                        "value": {
                            "pairs": [
                                {
                                    "key": "0x0f82e57804d0b1f6fab2370a43dcfad3c7cb239c",
                                    "value": {
                                        "current": "12614",
                                        "prev": "12613",
                                        "typeTag": 1
                                    }
                                },
                                {
                                    "key": "0x746806ff971c3b33fe1bd6383efbe05ead8fb183",
                                    "value": {
                                        "current": "8",
                                        "prev": "7",
                                        "typeTag": 1
                                    }
                                }
                            ],
                            "typeTag": 4
                        }
                    },
                    {
                        "name": "_yamBalances",
                        "type": "mapping(address => uint256)",
                        "value": {
                            "pairs": [
                                {
                                    "key": "0x0f82e57804d0b1f6fab2370a43dcfad3c7cb239c",
                                    "value": {
                                        "current": "475682465251780585229885819626",
                                        "prev": "473683523452307665298492326982",
                                        "typeTag": 1
                                    }
                                },
                                {
                                    "key": "0x746806ff971c3b33fe1bd6383efbe05ead8fb183",
                                    "value": {
                                        "current": "154244898691236683940290",
                                        "prev": "1999096044371611168077432934",
                                        "typeTag": 1
                                    }
                                }
                            ],
                            "typeTag": 4
                        }
                    },
                    {
                        "name": "_allowedFragments",
                        "type": "mapping(address => mapping(address => uint256))",
                        "value": {
                            "pairs": [
                                {
                                    "key": "0x746806ff971c3b33fe1bd6383efbe05ead8fb183",
                                    "value": {
                                        "pairs": [
                                            {
                                                "key": "0xd9e1ce17f2641f24ae83637ab66a2cca9c378b9f",
                                                "value": {
                                                    "current": "115792089237316195423570985008687907853269984665640564034457584007913129639935",
                                                    "prev": "115792089237316195423570985008687907853269984665640564039457584007913129639935",
                                                    "typeTag": 1
                                                }
                                            }
                                        ],
                                        "typeTag": 4
                                    }
                                }
                            ],
                            "typeTag": 4
                        }
                    }
                ]
            },
            {
                "address": "0x0f82e57804d0b1f6fab2370a43dcfad3c7cb239c",
                "erc": "ERC-20",
                "slots": [
                    {
                        "current": "0x000000000000000000899d5d408529ced11973389b9d87ddd4b80fee10e14de5",
                        "key": "0x000000000000000000000000000000000000000000000000000000000000000a",
                        "prev": "0x000000000000000000899d5d408529c65f6a1f1b7bf00069455f0870c4bcbe65"
                    },
                    {
                        "current": "0x603767fa00000000009b56ea5d0ae2ede95e00000000fbf51f7281f8fc1a01b3",
                        "key": "0x0000000000000000000000000000000000000000000000000000000000000008",
                        "prev": "0x603762ba00000000009bfe3a6ada9ffa50a200000000fae612821d1ba2fa01b3"
                    },
                    {
                        "current": "0x000000000000000000000131a25786f855646ba9cb70c8fff57249a98da55c0c",
                        "key": "0x0000000000000000000000000000000000000000000000000000000000000009",
                        "prev": "0x000000000000000000000131a25786f85561280c6428ad90ac62b7b60dd7ca0c"
                    }
                ],
                "storageVariables": [
                    {
                        "name": "price1CumulativeLast",
                        "type": "uint256",
                        "value": {
                            "current": "13180870030469099197715067678194869946596240904650051045",
                            "prev": "13180870030469096324343010806920834971613121614144388709",
                            "typeTag": 1
                        }
                    },
                    {
                        "name": "reserve0",
                        "type": "uint112",
                        "value": {
                            "current": "1189835705514808690999731",
                            "prev": "1184835705514808690999731",
                            "typeTag": 1
                        }
                    },
                    {
                        "name": "reserve1",
                        "type": "uint112",
                        "value": {
                            "current": "2865508251958130895198",
                            "prev": "2877564403346482811042",
                            "typeTag": 1
                        }
                    },
                    {
                        "name": "blockTimestampLast",
                        "type": "uint32",
                        "value": {
                            "current": "1614243834",
                            "prev": "1614242490",
                            "typeTag": 1
                        }
                    },
                    {
                        "name": "price0CumulativeLast",
                        "type": "uint256",
                        "value": {
                            "current": "446684807813180971864526666674158267778586162584588",
                            "prev": "446684807813180954916243861982046603768439099607564",
                            "typeTag": 1
                        }
                    }
                ]
            },
            {
                "address": "0xc02aaa39b223fe8d0a0e5c4f27ead9083c756cc2",
                "erc": "ERC-20",
                "slots": [
                    {
                        "current": "0x00000000000000000000000000000000000000000000009b56ea5d0ae2ede95e",
                        "key": "0x2051ac89ca0613d67607de78d5da1e632ab2a68794483fd23f8cc8712690dbbc",
                        "prev": "0x00000000000000000000000000000000000000000000009bfe3a6ada9ffa50a2"
                    }
                ],
                "storageVariables": [
                    {
                        "name": "balanceOf",
                        "type": "mapping(address => uint256)",
                        "value": {
                            "pairs": [
                                {
                                    "key": "0x0f82e57804d0b1f6fab2370a43dcfad3c7cb239c",
                                    "value": {
                                        "current": "2865508251958130895198",
                                        "prev": "2877564403346482811042",
                                        "typeTag": 1
                                    }
                                }
                            ],
                            "typeTag": 4
                        }
                    }
                ]
            }
        ]
    }
}