{
    "balance_change": {
        "balanceChanges": [
            {
                "account": "0xbc2904dd5128ed30266541cd4018846fa68e04dd",
                "assets": [
                    {
                        "address": "0xeeeeeeeeeeeeeeeeeeeeeeeeeeeeeeeeeeeeeeee",
                        "amount": "0.1445528460068",
                        "iconUrl": "https://assets.blocksec.com/image/1663669189317-3.png",
                        "isERC1155": false,
                        "isERC721": false,
                        "sign": false,
                        "value": "171.76272436908632296"
                    }
                ]
            },
            {
                "account": "0x1c727a55ea3c11b0ab7d3a361fe0f3c47ce6de5d",
                "assets": [
                    {
                        "address": "0xeeeeeeeeeeeeeeeeeeeeeeeeeeeeeeeeeeeeeeee",
                        "amount": "0.1445528460068",
                        "iconUrl": "https://assets.blocksec.com/image/1663669189317-3.png",
                        "isERC1155": false,
                        "isERC721": false,
                        "sign": true,
                        "value": "171.76272436908632296"
                    }
                ]
            }
        ]
    },
    "profile": {
        "basic_info": {
            "baseFee": "12.987360345",
            "blockNumber": 15188732,
            "callData": "0x4e4e52500000000000000000000000001c727a55ea3c11b0ab7d3a361fe0f3c47ce6de5d000000000000000000000000f83cdf70b46512d3b49c24377c5fdb75413108bf",
            "debugEnable": true,
            "errorInfo": "",
            "eventCount": 0,
            "feeRecipient": "0xb7e390864a90b7b923c9f9310c6f98aafe43f707",
            "formatValue": "0.1445528460068",
            "gasLimit": 60000,
            "gasPrice": "14.11923322",
            "gasUsed": 33600,
            "intTxnCount": 1,
            "internalRevert": false,
            "internalRevertMessage": "",
            "isContractCreation": false,
            "isFlashloan": false,
            "maxFee": "",
            "nonce": 0,
            "overwritedBlockNumber": -1,
            "priorityFee": "",
            "receiver": "0x352e504813b9e0b30f9ca70efc27a52d298f6697",
            "revertMessage": "",
            "sender": "0xbc2904dd5128ed30266541cd4018846fa68e04dd",
            "simulationEnable": true,
            "sourceTxnHash": "0x19d0d55e1fe923157bbddf5fb39ab69d7000b91fb2f7ef0d9133e96403ecd93d",
            "status": true,
            "timestamp": "2022-07-21T22:41:32Z",
            "transactionFee": "0.000474406236192",
            "txnHash": "0x19d0d55e1fe923157bbddf5fb39ab69d7000b91fb2f7ef0d9133e96403ecd93d",
            "txnIndex": 129,
            "type": 0,
            "value": "144552846006800000"
        },
        "fund_flow": [
            {
                "amount": "0.1445528460068",
                "from": "0xbc2904dd5128ed30266541cd4018846fa68e04dd",
                "id": 1,
                "isERC1155": false,
                "isERC721": false,
                "isReverted": false,
                "order": 1,
                "to": "0x352e504813b9e0b30f9ca70efc27a52d298f6697",
                "token": "0xeeeeeeeeeeeeeeeeeeeeeeeeeeeeeeeeeeeeeeee"
            },
            {
                "amount": "0.1445528460068",
                "from": "0x352e504813b9e0b30f9ca70efc27a52d298f6697",
                "id": 2,
                "isERC1155": false,
                "isERC721": false,
                "isReverted": false,
                "order": 2,
                "to": "0x1c727a55ea3c11b0ab7d3a361fe0f3c47ce6de5d",
                "token": "0xeeeeeeeeeeeeeeeeeeeeeeeeeeeeeeeeeeeeeeee"
            }
        ],
        "token_infos": [
            {
                "address": "0xc02aaa39b223fe8d0a0e5c4f27ead9083c756cc2",
                "decimals": 18
            },
            {
                "address": "0xeeeeeeeeeeeeeeeeeeeeeeeeeeeeeeeeeeeeeeee",
                "decimals": 18
            }
        ]
    },
    "address_label": {
        "labels": [
            {
                "address": "0x0000000000000000000000000000000000000002",
                "label": "Precompiled"
            },
            {
                "address": "0x0000000000000000000000000000000000000003",
                "label": "Precompiled"
            },
            {
                "address": "0x0000000000000000000000000000000000000004",
                "label": "Precompiled"
            },
            {
                "address": "0xeeeeeeeeeeeeeeeeeeeeeeeeeeeeeeeeeeeeeeee",
                "label": "Ether"
            },
            {
                "address": "0x1c727a55ea3c11b0ab7d3a361fe0f3c47ce6de5d",
                "label": "Uphold"
            },
            {
                "address": "0x352e504813b9e0b30f9ca70efc27a52d298f6697",
                "label": "ForkSweeper"
            },
            {
                "address": "0x0000000000000000000000000000000000000001",
                "label": "Precompiled"
            }
        ]
    },
    "trace": {
        "accountLabels": null,
        "dataMap": {
            "-1": {
                "invocation": {
                    "address": "0xbc2904dd5128ed30266541cd4018846fa68e04dd",
                    "callData": "",
                    "decodedMethod": null,
                    "errorInfo": "",
                    "fromAddress": "",
                    "gasUsed": 0,
                    "id": -1,
                    "methodDecoded": false,
                    "operation": "",
                    "output": "",
                    "revert": false,
                    "revertMessage": "",
                    "selector": "",
                    "status": false,
                    "value": ""
                },
                "nodeType": 0
            },
            "0": {
                "invocation": {
                    "address": "0x352e504813b9e0b30f9ca70efc27a52d298f6697",
                    "callData": "0x0000000000000000000000001c727a55ea3c11b0ab7d3a361fe0f3c47ce6de5d000000000000000000000000f83cdf70b46512d3b49c24377c5fdb75413108bf",
                    "decodedMethod": {
                        "callParams": [
                            {
                                "name": "ethAddress",
                                "type": "address",
                                "value": "0x1c727a55ea3c11b0ab7d3a361fe0f3c47ce6de5d"
                            },
                            {
                                "name": "etcAddress",
                                "type": "address",
                                "value": "0xf83cdf70b46512d3b49c24377c5fdb75413108bf"
                            }
                        ],
                        "constructorArguments": "",
                        "name": "redirect",
                        "returnParams": [],
                        "signature": "redirect(address,address)"
                    },
                    "errorInfo": "",
                    "fromAddress": "0xbc2904dd5128ed30266541cd4018846fa68e04dd",
                    "gasUsed": 33600,
                    "id": 0,
                    "methodDecoded": true,
                    "operation": "CALL",
                    "output": "",
                    "revert": false,
                    "revertMessage": "",
                    "selector": "0x4e4e5250",
                    "status": true,
                    "value": "0.1445528460068"
                },
                "nodeType": 0
            },
            "1": {
                "invocation": {
                    "address": "0x1c727a55ea3c11b0ab7d3a361fe0f3c47ce6de5d",
                    "callData": "0x",
                    "decodedMethod": null,
                    "errorInfo": "",
                    "fromAddress": "0x352e504813b9e0b30f9ca70efc27a52d298f6697",
                    "gasUsed": 0,
                    "id": 1,
                    "methodDecoded": false,
                    "operation": "CALL",
                    "output": "",
                    "revert": false,
                    "revertMessage": "",
                    "selector": "fallback",
                    "status": true,
                    "value": "0.1445528460068"
                },
                "nodeType": 0
            }
        },
        "gasFlame": [
            {
                "children": [
                    {
                        "children": [
                            {
                                "children": [],
                                "depth": 0,
                                "name": "Initial Gas",
                                "value": 21800
                            },
                            {
                                "children": [
                                    {
                                        "children": [],
                                        "depth": 1,
                                        "name": "fallback",
                                        "value": 0
                                    }
                                ],
                                "depth": 0,
                                "name": "Executed Gas",
                                "value": 11800
                            }
                        ],
                        "depth": -1,
                        "name": "Actual Gas Used",
                        "value": 33600
                    },
                    {
                        "children": [],
                        "depth": -1,
                        "name": "Refunded Gas",
                        "value": 0
                    }
                ],
                "depth": -2,
                "name": "Total Gas",
                "value": 33600
            }
        ],
        "isConfirmed": true,
        "mainTrace": [
            {
                "children": [
                    {
                        "children": [
                            {
                                "children": [],
                                "depth": 1,
                                "id": 1,
                                "order": 1
                            }
                        ],
                        "depth": 0,
                        "id": 0,
                        "order": 0
                    }
                ],
                "depth": -1,
                "id": -1,
                "order": -1
            }
        ],
        "mainTraceNodeCount": 2,
        "parentIdMap": {
            "0": -1,
            "1": 0
        },
        "tidyTrace": [
            {
                "children": [
                    {
                        "children": [
                            {
                                "children": [],
                                "depth": 1,
                                "id": 1,
                                "order": 1
                            }
                        ],
                        "depth": 0,
                        "id": 0,
                        "order": 0
                    }
                ],
                "depth": -1,
                "id": -1,
                "order": -1
            }
        ],
        "tidyTraceNodeCount": 2
    },
    "state_change": {
        "stateChanges": []
    }
}