{
    "balance_change": {
        "balanceChanges": [
            {
                "account": "0x55632664edf2cf86f4ac27961bcd7c641f65e60f",
                "assets": [
                    {
                        "address": "0x9a291353201da3a0b9b6b2e67eb589ed1a05e32b",
                        "amount": "1,000,000,000,000,000,000,000",
                        "iconUrl": "",
                        "isERC1155": false,
                        "isERC721": false,
                        "sign": false,
                        "value": ""
                    }
                ]
            },
            {
                "account": "0x775c420e8a9f64e79c2bf9a06ee137509b482525",
                "assets": [
                    {
                        "address": "0x9a291353201da3a0b9b6b2e67eb589ed1a05e32b",
                        "amount": "1,000,000,000,000,000,000,000",
                        "iconUrl": "",
                        "isERC1155": false,
                        "isERC721": false,
                        "sign": true,
                        "value": ""
                    }
                ]
            }
        ]
    },
    "profile": {
        "basic_info": {
            "baseFee": "",
            "blockNumber": 7084430,
            "callData": "0xa9059cbb000000000000000000000000775c420e8a9f64e79c2bf9a06ee137509b48252500000000000000000000000000000000000000000000003635c9adc5dea00000",
            "debugEnable": true,
            "errorInfo": "",
            "eventCount": 1,
            "feeRecipient": "0xea674fdde714fd979de3edf0f56aa9716b898ec8",
            "formatValue": "0",
            "gasLimit": 60000,
            "gasPrice": "18.949191227",
            "gasUsed": 36557,
            "intTxnCount": 0,
            "internalRevert": false,
            "internalRevertMessage": "",
            "isContractCreation": false,
            "isFlashloan": false,
            "maxFee": "",
            "nonce": 0,
            "overwritedBlockNumber": -1,
            "priorityFee": "",
            "receiver": "0x9a291353201da3a0b9b6b2e67eb589ed1a05e32b",
            "revertMessage": "",
            "sender": "0x55632664edf2cf86f4ac27961bcd7c641f65e60f",
            "simulationEnable": true,
            "sourceTxnHash": "0x19632eb3c5a02cd2f51e7372d246dde1d971a418de9c54574655b03b834367b2",
            "status": true,
            "timestamp": "2019-01-18T01:08:21Z",
            "transactionFee": "0.000692725583685439",
            "txnHash": "0x19632eb3c5a02cd2f51e7372d246dde1d971a418de9c54574655b03b834367b2",
            "txnIndex": 6,
            "type": 0,
            "value": "0"
        },
        "fund_flow": [
            {
                "amount": "1,000,000,000,000,000,000,000",
                "from": "0x55632664edf2cf86f4ac27961bcd7c641f65e60f",
                "id": 1,
                "isERC1155": false,
                "isERC721": false,
                "isReverted": false,
                "order": 1,
                "to": "0x775c420e8a9f64e79c2bf9a06ee137509b482525",
                "token": "0x9a291353201da3a0b9b6b2e67eb589ed1a05e32b"
            }
        ],
        "token_infos": [
            {
                "address": "0xeeeeeeeeeeeeeeeeeeeeeeeeeeeeeeeeeeeeeeee",
                "decimals": 18
            },
            {
                "address": "0xc02aaa39b223fe8d0a0e5c4f27ead9083c756cc2",
                "decimals": 18
            }
        ]
    },
    "address_label": {
        "labels": [
            {
                "address": "0x0000000000000000000000000000000000000003",
                "label": "Precompiled"
            },
            {
                "address": "0x0000000000000000000000000000000000000004",
                "label": "Precompiled"
            },
            {
                "address": "0xeeeeeeeeeeeeeeeeeeeeeeeeeeeeeeeeeeeeeeee",
                "label": "Ether"
            },
            {
                "address": "0x9a291353201da3a0b9b6b2e67eb589ed1a05e32b",
                "label": "PATPAT"
            },
            {
                "address": "0x0000000000000000000000000000000000000001",
                "label": "Precompiled"
            },
            {
                "address": "0x0000000000000000000000000000000000000002",
                "label": "Precompiled"
            }
        ]
    },
    "trace": {
        "accountLabels": null,
        "dataMap": {
            "-1": {
                "invocation": {
                    "address": "0x55632664edf2cf86f4ac27961bcd7c641f65e60f",
                    "callData": "",
                    "decodedMethod": null,
                    "errorInfo": "",
                    "fromAddress": "",
                    "gasUsed": 0,
                    "id": -1,
                    "methodDecoded": false,
                    "operation": "",
                    "output": "",
                    "revert": false,
                    "revertMessage": "",
                    "selector": "",
                    "status": false,
                    "value": ""
                },
                "nodeType": 0
            },
            "0": {
                "invocation": {
                    "address": "0x9a291353201da3a0b9b6b2e67eb589ed1a05e32b",
                    "callData": "0x000000000000000000000000775c420e8a9f64e79c2bf9a06ee137509b48252500000000000000000000000000000000000000000000003635c9adc5dea00000",
                    "decodedMethod": {
                        "callParams": [
                            {
                                "name": "_to",
                                "type": "address",
                                "value": "0x775c420e8a9f64e79c2bf9a06ee137509b482525"
                            },
                            {
                                "decimalAvailable": true,
                                "name": "_value",
                                "type": "uint256",
                                "value": "1,000,000,000,000,000,000,000"
                            }
                        ],
                        "constructorArguments": "",
                        "name": "transfer",
                        "returnParams": [
                            {
                                "name": "success",
                                "type": "bool",
                                "value": true
                            }
                        ],
                        "signature": "transfer(address,uint256)"
                    },
                    "errorInfo": "",
                    "fromAddress": "0x55632664edf2cf86f4ac27961bcd7c641f65e60f",
                    "gasUsed": 36557,
                    "id": 0,
                    "methodDecoded": true,
                    "operation": "CALL",
                    "output": "0x0000000000000000000000000000000000000000000000000000000000000001",
                    "revert": false,
                    "revertMessage": "",
                    "selector": "0xa9059cbb",
                    "status": true,
                    "value": "0"
                },
                "nodeType": 0
            },
            "1": {
                "event": {
                    "contract": "0x9a291353201da3a0b9b6b2e67eb589ed1a05e32b",
                    "decodedLog": {
                        "name": "Transfer",
                        "params": [
                            {
                                "name": "_from",
                                "type": "address",
                                "value": "0x55632664edf2cf86f4ac27961bcd7c641f65e60f"
                            },
                            {
                                "name": "_to",
                                "type": "address",
                                "value": "0x775c420e8a9f64e79c2bf9a06ee137509b482525"
                            },
                            {
                                "decimalAvailable": true,
                                "name": "_value",
                                "type": "uint256",
                                "value": "1,000,000,000,000,000,000,000"
                            }
                        ],
                        "signature": "Transfer(address,address,uint256)"
                    },
                    "id": 1,
                    "logData": "0x00000000000000000000000000000000000000000000003635c9adc5dea00000",
                    "logDecoded": true,
                    "operation": "EVENT",
                    "revert": false,
                    "status": true,
                    "topics": [
                        "0xddf252ad1be2c89b69c2b068fc378daa952ba7f163c4a11628f55a4df523b3ef",
                        "0x00000000000000000000000055632664edf2cf86f4ac27961bcd7c641f65e60f",
                        "0x000000000000000000000000775c420e8a9f64e79c2bf9a06ee137509b482525"
                    ]
                },
                "nodeType": 1
            }
        },
        "gasFlame": [
            {
                "children": [
                    {
                        "children": [
                            {
                                "children": [],
                                "depth": 0,
                                "name": "Initial Gas",
                                "value": 23256
                            },
                            {
                                "children": [],
                                "depth": 0,
                                "name": "Executed Gas",
                                "value": 13301
                            }
                        ],
                        "depth": -1,
                        "name": "Actual Gas Used",
                        "value": 36557
                    },
                    {
                        "children": [],
                        "depth": -1,
                        "name": "Refunded Gas",
                        "value": 0
                    }
                ],
                "depth": -2,
                "name": "Total Gas",
                "value": 36557
            }
        ],
        "isConfirmed": true,
        "mainTrace": [
            {
                "children": [
                    {
                        "children": [
                            {
                                "children": [],
                                "depth": 1,
                                "id": 1,
                                "order": 1
                            }
                        ],
                        "depth": 0,
                        "id": 0,
                        "order": 0
                    }
                ],
                "depth": -1,
                "id": -1,
                "order": -1
            }
        ],
        "mainTraceNodeCount": 2,
        "parentIdMap": {
            "0": -1,
            "1": 0
        },
        "tidyTrace": [
            {
                "children": [
                    {
                        "children": [
                            {
                                "children": [],
                                "depth": 1,
                                "id": 1,
                                "order": 1
                            }
                        ],
                        "depth": 0,
                        "id": 0,
                        "order": 0
                    }
                ],
                "depth": -1,
                "id": -1,
                "order": -1
            }
        ],
        "tidyTraceNodeCount": 2
    },
    "state_change": {
        "stateChanges": [
            {
                "address": "0x9a291353201da3a0b9b6b2e67eb589ed1a05e32b",
                "erc": "ERC-20",
                "slots": [
                    {
                        "current": "0x00000000000000000000000000000000000000000000010f0cf064dd59200000",
                        "key": "0x2d90fa24d08edc8403d59bdaf136add5db97445811cf34d248db0c0e3fe17de3",
                        "prev": "0x00000000000000000000000000000000000000000000014542ba12a337c00000"
                    },
                    {
                        "current": "0x00000000000000000000000000000000000000000000011c9a62d04ed0c80000",
                        "key": "0xd8b49c44381d72206e64de2a0fd4e070b3c1c822aa9144a70b089681843aa322",
                        "prev": "0x0000000000000000000000000000000000000000000000e664992288f2280000"
                    }
                ],
                "storageVariables": []
            }
        ]
    }
}