{
    "balance_change": {
        "balanceChanges": [
            {
                "account": "0x81cb0b0f696e1475c19cdb4460e853b484501f58",
                "assets": [
                    {
                        "address": "0xeeeeeeeeeeeeeeeeeeeeeeeeeeeeeeeeeeeeeeee",
                        "amount": "1",
                        "iconUrl": "https://assets.blocksec.com/image/1663669189317-3.png",
                        "isERC1155": false,
                        "isERC721": false,
                        "sign": false,
                        "value": "206.80426099999999678"
                    }
                ]
            },
            {
                "account": "0xfb2d2fcf2141887b30b5cd8b37da27f623ba19f0",
                "assets": [
                    {
                        "address": "0xeeeeeeeeeeeeeeeeeeeeeeeeeeeeeeeeeeeeeeee",
                        "amount": "1",
                        "iconUrl": "https://assets.blocksec.com/image/1663669189317-3.png",
                        "isERC1155": false,
                        "isERC721": false,
                        "sign": true,
                        "value": "206.80426099999999678"
                    }
                ]
            }
        ]
    },
    "profile": {
        "basic_info": {
            "baseFee": "",
            "blockNumber": 10000969,
            "callData": "0xf6838a720000000000000000000000000000000000000000000000000000000000000005",
            "debugEnable": true,
            "errorInfo": "",
            "eventCount": 2,
            "feeRecipient": "0x5a0b54d5dc17e0aadc383d2db43b0a0d3e029c4c",
            "formatValue": "1",
            "gasLimit": 94305,
            "gasPrice": "14",
            "gasUsed": 72543,
            "intTxnCount": 1,
            "internalRevert": false,
            "internalRevertMessage": "",
            "isContractCreation": false,
            "isFlashloan": false,
            "maxFee": "",
            "nonce": 4,
            "overwritedBlockNumber": -1,
            "priorityFee": "",
            "receiver": "0xbcf935d206ca32929e1b887a07ed240f0d8ccd22",
            "revertMessage": "",
            "sender": "0x81cb0b0f696e1475c19cdb4460e853b484501f58",
            "simulationEnable": true,
            "sourceTxnHash": "0x19c773c0aa1f1d517b55ec51d02423cd1b4d27c55b7ad031d30c9654a2d2fd36",
            "status": true,
            "timestamp": "2020-05-04T17:02:30Z",
            "transactionFee": "0.001015602",
            "txnHash": "0x19c773c0aa1f1d517b55ec51d02423cd1b4d27c55b7ad031d30c9654a2d2fd36",
            "txnIndex": 81,
            "type": 0,
            "value": "1000000000000000000"
        },
        "fund_flow": [
            {
                "amount": "1",
                "from": "0x81cb0b0f696e1475c19cdb4460e853b484501f58",
                "id": 1,
                "isERC1155": false,
                "isERC721": false,
                "isReverted": false,
                "order": 1,
                "to": "0xbcf935d206ca32929e1b887a07ed240f0d8ccd22",
                "token": "0xeeeeeeeeeeeeeeeeeeeeeeeeeeeeeeeeeeeeeeee"
            },
            {
                "amount": "1",
                "from": "0xbcf935d206ca32929e1b887a07ed240f0d8ccd22",
                "id": 2,
                "isERC1155": false,
                "isERC721": false,
                "isReverted": false,
                "order": 2,
                "to": "0xfb2d2fcf2141887b30b5cd8b37da27f623ba19f0",
                "token": "0xeeeeeeeeeeeeeeeeeeeeeeeeeeeeeeeeeeeeeeee"
            }
        ],
        "token_infos": [
            {
                "address": "0xc02aaa39b223fe8d0a0e5c4f27ead9083c756cc2",
                "decimals": 18
            },
            {
                "address": "0xeeeeeeeeeeeeeeeeeeeeeeeeeeeeeeeeeeeeeeee",
                "decimals": 18
            }
        ]
    },
    "address_label": {
        "labels": [
            {
                "address": "0x0000000000000000000000000000000000000003",
                "label": "Precompiled"
            },
            {
                "address": "0x0000000000000000000000000000000000000004",
                "label": "Precompiled"
            },
            {
                "address": "0xeeeeeeeeeeeeeeeeeeeeeeeeeeeeeeeeeeeeeeee",
                "label": "Ether"
            },
            {
                "address": "0xbcf935d206ca32929e1b887a07ed240f0d8ccd22",
                "label": "Million.Money"
            },
            {
                "address": "0x0000000000000000000000000000000000000001",
                "label": "Precompiled"
            },
            {
                "address": "0x0000000000000000000000000000000000000002",
                "label": "Precompiled"
            }
        ]
    },
    "trace": {
        "accountLabels": null,
        "dataMap": {
            "-1": {
                "invocation": {
                    "address": "0x81cb0b0f696e1475c19cdb4460e853b484501f58",
                    "callData": "",
                    "decodedMethod": null,
                    "errorInfo": "",
                    "fromAddress": "",
                    "gasUsed": 0,
                    "id": -1,
                    "methodDecoded": false,
                    "operation": "",
                    "output": "",
                    "revert": false,
                    "revertMessage": "",
                    "selector": "",
                    "status": false,
                    "value": ""
                },
                "nodeType": 0
            },
            "0": {
                "invocation": {
                    "address": "0xbcf935d206ca32929e1b887a07ed240f0d8ccd22",
                    "callData": "0x0000000000000000000000000000000000000000000000000000000000000005",
                    "decodedMethod": {
                        "callParams": [
                            {
                                "name": "_level",
                                "type": "uint256",
                                "value": "5"
                            }
                        ],
                        "constructorArguments": "",
                        "name": "buyLevel",
                        "returnParams": [],
                        "signature": "buyLevel(uint256)"
                    },
                    "errorInfo": "",
                    "fromAddress": "0x81cb0b0f696e1475c19cdb4460e853b484501f58",
                    "gasUsed": 72543,
                    "id": 0,
                    "methodDecoded": true,
                    "operation": "CALL",
                    "output": "",
                    "revert": false,
                    "revertMessage": "",
                    "selector": "0xf6838a72",
                    "status": true,
                    "value": "1"
                },
                "nodeType": 0
            },
            "1": {
                "invocation": {
                    "address": "0xfb2d2fcf2141887b30b5cd8b37da27f623ba19f0",
                    "callData": "0x",
                    "decodedMethod": null,
                    "errorInfo": "",
                    "fromAddress": "0xbcf935d206ca32929e1b887a07ed240f0d8ccd22",
                    "gasUsed": 0,
                    "id": 1,
                    "methodDecoded": false,
                    "operation": "CALL",
                    "output": "",
                    "revert": false,
                    "revertMessage": "",
                    "selector": "fallback",
                    "status": true,
                    "value": "1"
                },
                "nodeType": 0
            },
            "2": {
                "event": {
                    "contract": "0xbcf935d206ca32929e1b887a07ed240f0d8ccd22",
                    "decodedLog": {
                        "name": "getMoneyForLevelEvent",
                        "params": [
                            {
                                "name": "_user",
                                "type": "address",
                                "value": "0xfb2d2fcf2141887b30b5cd8b37da27f623ba19f0"
                            },
                            {
                                "name": "_referral",
                                "type": "address",
                                "value": "0x81cb0b0f696e1475c19cdb4460e853b484501f58"
                            },
                            {
                                "name": "_level",
                                "type": "uint256",
                                "value": "5"
                            },
                            {
                                "name": "_time",
                                "type": "uint256",
                                "value": "1,588,611,750"
                            }
                        ],
                        "signature": "getMoneyForLevelEvent(address,address,uint256,uint256)"
                    },
                    "id": 2,
                    "logData": "0x0000000000000000000000000000000000000000000000000000000000000005000000000000000000000000000000000000000000000000000000005eb04aa6",
                    "logDecoded": true,
                    "operation": "EVENT",
                    "revert": false,
                    "status": true,
                    "topics": [
                        "0xce7dc747411ac40191c5335943fcc79d8c2d8c01ca5ae83d9fed160409fa6120",
                        "0x000000000000000000000000fb2d2fcf2141887b30b5cd8b37da27f623ba19f0",
                        "0x00000000000000000000000081cb0b0f696e1475c19cdb4460e853b484501f58"
                    ]
                },
                "nodeType": 1
            },
            "3": {
                "event": {
                    "contract": "0xbcf935d206ca32929e1b887a07ed240f0d8ccd22",
                    "decodedLog": {
                        "name": "buyLevelEvent",
                        "params": [
                            {
                                "name": "_user",
                                "type": "address",
                                "value": "0x81cb0b0f696e1475c19cdb4460e853b484501f58"
                            },
                            {
                                "name": "_level",
                                "type": "uint256",
                                "value": "5"
                            },
                            {
                                "name": "_time",
                                "type": "uint256",
                                "value": "1,588,611,750"
                            }
                        ],
                        "signature": "buyLevelEvent(address,uint256,uint256)"
                    },
                    "id": 3,
                    "logData": "0x0000000000000000000000000000000000000000000000000000000000000005000000000000000000000000000000000000000000000000000000005eb04aa6",
                    "logDecoded": true,
                    "operation": "EVENT",
                    "revert": false,
                    "status": true,
                    "topics": [
                        "0x9ea70f0eb33d898c3336ecf2c0e3cf1c0195c13ad3fbcb34447777dbfd5ff2d0",
                        "0x00000000000000000000000081cb0b0f696e1475c19cdb4460e853b484501f58"
                    ]
                },
                "nodeType": 1
            }
        },
        "gasFlame": [
            {
                "children": [
                    {
                        "children": [
                            {
                                "children": [],
                                "depth": 0,
                                "name": "Initial Gas",
                                "value": 21204
                            },
                            {
                                "children": [
                                    {
                                        "children": [],
                                        "depth": 1,
                                        "name": "fallback",
                                        "value": 0
                                    }
                                ],
                                "depth": 0,
                                "name": "Executed Gas",
                                "value": 51339
                            }
                        ],
                        "depth": -1,
                        "name": "Actual Gas Used",
                        "value": 72543
                    },
                    {
                        "children": [],
                        "depth": -1,
                        "name": "Refunded Gas",
                        "value": 0
                    }
                ],
                "depth": -2,
                "name": "Total Gas",
                "value": 72543
            }
        ],
        "isConfirmed": true,
        "mainTrace": [
            {
                "children": [
                    {
                        "children": [
                            {
                                "children": [],
                                "depth": 1,
                                "id": 1,
                                "order": 1
                            },
                            {
                                "children": [],
                                "depth": 1,
                                "id": 2,
                                "order": 2
                            },
                            {
                                "children": [],
                                "depth": 1,
                                "id": 3,
                                "order": 3
                            }
                        ],
                        "depth": 0,
                        "id": 0,
                        "order": 0
                    }
                ],
                "depth": -1,
                "id": -1,
                "order": -1
            }
        ],
        "mainTraceNodeCount": 4,
        "parentIdMap": {
            "0": -1,
            "1": 0,
            "2": 0,
            "3": 0
        },
        "tidyTrace": [
            {
                "children": [
                    {
                        "children": [
                            {
                                "children": [],
                                "depth": 1,
                                "id": 1,
                                "order": 1
                            },
                            {
                                "children": [],
                                "depth": 1,
                                "id": 2,
                                "order": 2
                            },
                            {
                                "children": [],
                                "depth": 1,
                                "id": 3,
                                "order": 3
                            }
                        ],
                        "depth": 0,
                        "id": 0,
                        "order": 0
                    }
                ],
                "depth": -1,
                "id": -1,
                "order": -1
            }
        ],
        "tidyTraceNodeCount": 4
    },
    "state_change": {
        "stateChanges": [
            {
                "address": "0xbcf935d206ca32929e1b887a07ed240f0d8ccd22",
                "erc": "",
                "slots": [
                    {
                        "current": "0x000000000000000000000000000000000000000000000000000000005f3420a6",
                        "key": "0x9c4fb1351f0d9358c6e7387e80fa873ddd50786b61d707b34f0d74ea64a347dd",
                        "prev": "0x0000000000000000000000000000000000000000000000000000000000000000"
                    }
                ],
                "storageVariables": [
                    {
                        "name": "users",
                        "type": "mapping(address => struct MillionMoney.UserStruct)",
                        "value": {
                            "pairs": [
                                {
                                    "key": "0x81cb0b0f696e1475c19cdb4460e853b484501f58",
                                    "value": {
                                        "fields": [
                                            {
                                                "name": "levelExpired",
                                                "type": "mapping(uint256 => uint256)",
                                                "value": {
                                                    "pairs": [
                                                        {
                                                            "key": "5",
                                                            "value": {
                                                                "current": "1597251750",
                                                                "prev": "0",
                                                                "typeTag": 1
                                                            }
                                                        }
                                                    ],
                                                    "typeTag": 4
                                                }
                                            }
                                        ],
                                        "typeTag": 3
                                    }
                                }
                            ],
                            "typeTag": 4
                        }
                    }
                ]
            }
        ]
    }
}