{
    "balance_change": {
        "balanceChanges": [
            {
                "account": "0x1c3fc32d320844f24e5f492d4305191fe360f1dd",
                "assets": [
                    {
                        "address": "0x01f2acf2914860331c1cb1a9acecda7475e06af8",
                        "amount": "50",
                        "iconUrl": "",
                        "isERC1155": false,
                        "isERC721": false,
                        "sign": false,
                        "value": ""
                    }
                ]
            },
            {
                "account": "0xae7b03941b2afd36ba8056c201b8bf26ad46b2d9",
                "assets": [
                    {
                        "address": "0x01f2acf2914860331c1cb1a9acecda7475e06af8",
                        "amount": "50",
                        "iconUrl": "",
                        "isERC1155": false,
                        "isERC721": false,
                        "sign": true,
                        "value": ""
                    }
                ]
            }
        ]
    },
    "profile": {
        "basic_info": {
            "baseFee": "",
            "blockNumber": 5456539,
            "callData": "0xa9059cbb000000000000000000000000ae7b03941b2afd36ba8056c201b8bf26ad46b2d9000000000000000000000000000000000000000000000002b5e3af16b1880000",
            "debugEnable": true,
            "errorInfo": "",
            "eventCount": 1,
            "feeRecipient": "0x829bd824b016326a401d083b33d092293333a830",
            "formatValue": "0",
            "gasLimit": 90000,
            "gasPrice": "1",
            "gasUsed": 53690,
            "intTxnCount": 0,
            "internalRevert": false,
            "internalRevertMessage": "",
            "isContractCreation": false,
            "isFlashloan": false,
            "maxFee": "",
            "nonce": 807,
            "overwritedBlockNumber": -1,
            "priorityFee": "",
            "receiver": "0x01f2acf2914860331c1cb1a9acecda7475e06af8",
            "revertMessage": "",
            "sender": "0x1c3fc32d320844f24e5f492d4305191fe360f1dd",
            "simulationEnable": true,
            "sourceTxnHash": "0x1974497074bdc8fc1f6b030a3ee41dac2af606d0d933409c48c6785845519116",
            "status": true,
            "timestamp": "2018-04-17T11:28:51Z",
            "transactionFee": "0.00005369",
            "txnHash": "0x1974497074bdc8fc1f6b030a3ee41dac2af606d0d933409c48c6785845519116",
            "txnIndex": 152,
            "type": 0,
            "value": "0"
        },
        "fund_flow": [
            {
                "amount": "50",
                "from": "0x1c3fc32d320844f24e5f492d4305191fe360f1dd",
                "id": 1,
                "isERC1155": false,
                "isERC721": false,
                "isReverted": false,
                "order": 1,
                "to": "0xae7b03941b2afd36ba8056c201b8bf26ad46b2d9",
                "token": "0x01f2acf2914860331c1cb1a9acecda7475e06af8"
            }
        ],
        "token_infos": [
            {
                "address": "0xc02aaa39b223fe8d0a0e5c4f27ead9083c756cc2",
                "decimals": 18
            },
            {
                "address": "0xeeeeeeeeeeeeeeeeeeeeeeeeeeeeeeeeeeeeeeee",
                "decimals": 18
            },
            {
                "address": "0x01f2acf2914860331c1cb1a9acecda7475e06af8",
                "decimals": 18
            }
        ]
    },
    "address_label": {
        "labels": [
            {
                "address": "0x0000000000000000000000000000000000000001",
                "label": "Precompiled"
            },
            {
                "address": "0x0000000000000000000000000000000000000002",
                "label": "Precompiled"
            },
            {
                "address": "0x0000000000000000000000000000000000000003",
                "label": "Precompiled"
            },
            {
                "address": "0x0000000000000000000000000000000000000004",
                "label": "Precompiled"
            },
            {
                "address": "0xeeeeeeeeeeeeeeeeeeeeeeeeeeeeeeeeeeeeeeee",
                "label": "Ether"
            },
            {
                "address": "0x01f2acf2914860331c1cb1a9acecda7475e06af8",
                "label": "MeshBox: Old Token"
            }
        ]
    },
    "trace": {
        "accountLabels": null,
        "dataMap": {
            "-1": {
                "invocation": {
                    "address": "0x1c3fc32d320844f24e5f492d4305191fe360f1dd",
                    "callData": "",
                    "decodedMethod": null,
                    "errorInfo": "",
                    "fromAddress": "",
                    "gasUsed": 0,
                    "id": -1,
                    "methodDecoded": false,
                    "operation": "",
                    "output": "",
                    "revert": false,
                    "revertMessage": "",
                    "selector": "",
                    "status": false,
                    "value": ""
                },
                "nodeType": 0
            },
            "0": {
                "invocation": {
                    "address": "0x01f2acf2914860331c1cb1a9acecda7475e06af8",
                    "callData": "0x000000000000000000000000ae7b03941b2afd36ba8056c201b8bf26ad46b2d9000000000000000000000000000000000000000000000002b5e3af16b1880000",
                    "decodedMethod": {
                        "callParams": [
                            {
                                "name": "_to",
                                "type": "address",
                                "value": "0xae7b03941b2afd36ba8056c201b8bf26ad46b2d9"
                            },
                            {
                                "decimalAvailable": true,
                                "name": "_value",
                                "type": "uint256",
                                "value": "50,000,000,000,000,000,000"
                            }
                        ],
                        "constructorArguments": "",
                        "name": "transfer",
                        "returnParams": [
                            {
                                "name": "success",
                                "type": "bool",
                                "value": true
                            }
                        ],
                        "signature": "transfer(address,uint256)"
                    },
                    "errorInfo": "",
                    "fromAddress": "0x1c3fc32d320844f24e5f492d4305191fe360f1dd",
                    "gasUsed": 53690,
                    "id": 0,
                    "methodDecoded": true,
                    "operation": "CALL",
                    "output": "0x0000000000000000000000000000000000000000000000000000000000000001",
                    "revert": false,
                    "revertMessage": "",
                    "selector": "0xa9059cbb",
                    "status": true,
                    "value": "0"
                },
                "nodeType": 0
            },
            "1": {
                "event": {
                    "contract": "0x01f2acf2914860331c1cb1a9acecda7475e06af8",
                    "decodedLog": {
                        "name": "Transfer",
                        "params": [
                            {
                                "name": "_from",
                                "type": "address",
                                "value": "0x1c3fc32d320844f24e5f492d4305191fe360f1dd"
                            },
                            {
                                "name": "_to",
                                "type": "address",
                                "value": "0xae7b03941b2afd36ba8056c201b8bf26ad46b2d9"
                            },
                            {
                                "decimalAvailable": true,
                                "name": "_value",
                                "type": "uint256",
                                "value": "50,000,000,000,000,000,000"
                            }
                        ],
                        "signature": "Transfer(address,address,uint256)"
                    },
                    "id": 1,
                    "logData": "0x000000000000000000000000000000000000000000000002b5e3af16b1880000",
                    "logDecoded": true,
                    "operation": "EVENT",
                    "revert": false,
                    "status": true,
                    "topics": [
                        "0xddf252ad1be2c89b69c2b068fc378daa952ba7f163c4a11628f55a4df523b3ef",
                        "0x0000000000000000000000001c3fc32d320844f24e5f492d4305191fe360f1dd",
                        "0x000000000000000000000000ae7b03941b2afd36ba8056c201b8bf26ad46b2d9"
                    ]
                },
                "nodeType": 1
            }
        },
        "gasFlame": [
            {
                "children": [
                    {
                        "children": [
                            {
                                "children": [],
                                "depth": 0,
                                "name": "Initial Gas",
                                "value": 23256
                            },
                            {
                                "children": [],
                                "depth": 0,
                                "name": "Executed Gas",
                                "value": 30434
                            }
                        ],
                        "depth": -1,
                        "name": "Actual Gas Used",
                        "value": 53690
                    },
                    {
                        "children": [],
                        "depth": -1,
                        "name": "Refunded Gas",
                        "value": 0
                    }
                ],
                "depth": -2,
                "name": "Total Gas",
                "value": 53690
            }
        ],
        "isConfirmed": true,
        "mainTrace": [
            {
                "children": [
                    {
                        "children": [
                            {
                                "children": [],
                                "depth": 1,
                                "id": 1,
                                "order": 1
                            }
                        ],
                        "depth": 0,
                        "id": 0,
                        "order": 0
                    }
                ],
                "depth": -1,
                "id": -1,
                "order": -1
            }
        ],
        "mainTraceNodeCount": 2,
        "parentIdMap": {
            "0": -1,
            "1": 0
        },
        "tidyTrace": [
            {
                "children": [
                    {
                        "children": [
                            {
                                "children": [],
                                "depth": 1,
                                "id": 1,
                                "order": 1
                            }
                        ],
                        "depth": 0,
                        "id": 0,
                        "order": 0
                    }
                ],
                "depth": -1,
                "id": -1,
                "order": -1
            }
        ],
        "tidyTraceNodeCount": 2
    },
    "state_change": {
        "stateChanges": [
            {
                "address": "0x01f2acf2914860331c1cb1a9acecda7475e06af8",
                "erc": "ERC-20",
                "slots": [
                    {
                        "current": "0x000000000000000000000000000000000000000000000002b5e3af16b1880000",
                        "key": "0x8af00441f5e9e82de3fff4196e26233254515bcf216eae81ffb572b72e11934a",
                        "prev": "0x0000000000000000000000000000000000000000000000000000000000000000"
                    },
                    {
                        "current": "0x000000000000000000000000000000000000000000004fca5e722c0a13800000",
                        "key": "0x28c5919123a14d7884a95ff7bbc47a6f4cb177e3511403368e013754536685f2",
                        "prev": "0x000000000000000000000000000000000000000000004fcd1455db20c5080000"
                    }
                ],
                "storageVariables": [
                    {
                        "name": "balances",
                        "type": "mapping(address => uint256)",
                        "value": {
                            "pairs": [
                                {
                                    "key": "0x1c3fc32d320844f24e5f492d4305191fe360f1dd",
                                    "value": {
                                        "current": "376800000000000000000000",
                                        "prev": "376850000000000000000000",
                                        "typeTag": 1
                                    }
                                },
                                {
                                    "key": "0xae7b03941b2afd36ba8056c201b8bf26ad46b2d9",
                                    "value": {
                                        "current": "50000000000000000000",
                                        "prev": "0",
                                        "typeTag": 1
                                    }
                                }
                            ],
                            "typeTag": 4
                        }
                    }
                ]
            }
        ]
    }
}