{
    "balance_change": {
        "balanceChanges": [
            {
                "account": "0xbb4fbee43ec7c4067b91edcb62a3fd44ef22621b",
                "assets": [
                    {
                        "address": "0xeeeeeeeeeeeeeeeeeeeeeeeeeeeeeeeeeeeeeeee",
                        "amount": "0.035",
                        "iconUrl": "https://assets.blocksec.com/image/1663669189317-3.png",
                        "isERC1155": false,
                        "isERC721": false,
                        "sign": false,
                        "value": ""
                    },
                    {
                        "address": "0xd5ebf09d9f11475c887ab5e150cfaeee7d7c10c4",
                        "amount": "1",
                        "iconUrl": "",
                        "isERC1155": false,
                        "isERC721": true,
                        "sign": true,
                        "tokenID": "9637",
                        "value": ""
                    }
                ]
            },
            {
                "account": "0x5b3256965e7c3cf26e11fcaf296dfc8807c01073",
                "assets": [
                    {
                        "address": "0xeeeeeeeeeeeeeeeeeeeeeeeeeeeeeeeeeeeeeeee",
                        "amount": "0.0035",
                        "iconUrl": "https://assets.blocksec.com/image/1663669189317-3.png",
                        "isERC1155": false,
                        "isERC721": false,
                        "sign": true,
                        "value": ""
                    }
                ]
            },
            {
                "account": "0x6f568d09346bebf60c743b4600b1ecc2d744e9b7",
                "assets": [
                    {
                        "address": "0xeeeeeeeeeeeeeeeeeeeeeeeeeeeeeeeeeeeeeeee",
                        "amount": "0.0315",
                        "iconUrl": "https://assets.blocksec.com/image/1663669189317-3.png",
                        "isERC1155": false,
                        "isERC721": false,
                        "sign": true,
                        "value": ""
                    },
                    {
                        "address": "0xd5ebf09d9f11475c887ab5e150cfaeee7d7c10c4",
                        "amount": "1",
                        "iconUrl": "",
                        "isERC1155": false,
                        "isERC721": true,
                        "sign": false,
                        "tokenID": "9637",
                        "value": ""
                    }
                ]
            }
        ]
    },
    "profile": {
        "basic_info": {
            "baseFee": "45.697029326",
            "blockNumber": 14893936,
            "callData": "0xab834bab0000000000000000000000007f268357a8c2552623316e2562d90e642bb538e5000000000000000000000000bb4fbee43ec7c4067b91edcb62a3fd44ef22621b0000000000000000000000006f568d09346bebf60c743b4600b1ecc2d744e9b70000000000000000000000000000000000000000000000000000000000000000000000000000000000000000baf2127b49fc93cbca6269fade0f7f31df4c88a7000000000000000000000000000000000000000000000000000000000000000000000000000000000000000000000000000000000000000000000000000000000000000000000000000000007f268357a8c2552623316e2562d90e642bb538e50000000000000000000000006f568d09346bebf60c743b4600b1ecc2d744e9b700000000000000000000000000000000000000000000000000000000000000000000000000000000000000005b3256965e7c3cf26e11fcaf296dfc8807c01073000000000000000000000000baf2127b49fc93cbca6269fade0f7f31df4c88a70000000000000000000000000000000000000000000000000000000000000000000000000000000000000000000000000000000000000000000000000000000000000000000000000000000000000000000000000000000000000000000003e8000000000000000000000000000000000000000000000000000000000000000000000000000000000000000000000000000000000000000000000000000000000000000000000000000000000000000000000000000000000000000000000000000000000000000000000000000000000000000000000000007c58508723800000000000000000000000000000000000000000000000000000000000000000000000000000000000000000000000000000000000000000000000000062994ddd000000000000000000000000000000000000000000000000000000000000000077fc9c6b607400601ec2bbc816195f6b368d1b279a5bb5ae92eec022c31b073300000000000000000000000000000000000000000000000000000000000003e8000000000000000000000000000000000000000000000000000000000000000000000000000000000000000000000000000000000000000000000000000000000000000000000000000000000000000000000000000000000000000000000000000000000000000000000000000000000000000000000000007c585087238000000000000000000000000000000000000000000000000000000000000000000000000000000000000000000000000000000000000000000000000000629936460000000000000000000000000000000000000000000000000000000062994ecdc6bb1f0ca87016ee98c0eee9507653460b0ddc1e8cbda46d76c25a1f04a3628f0000000000000000000000000000000000000000000000000000000000000001000000000000000000000000000000000000000000000000000000000000000000000000000000000000000000000000000000000000000000000000000000000000000000000000000000000000000000000000000000000000000000000001000000000000000000000000000000000000000000000000000000000000000100000000000000000000000000000000000000000000000000000000000000010000000000000000000000000000000000000000000000000000000000000000000000000000000000000000000000000000000000000000000000000000000100000000000000000000000000000000000000000000000000000000000006a000000000000000000000000000000000000000000000000000000000000007c000000000000000000000000000000000000000000000000000000000000008e00000000000000000000000000000000000000000000000000000000000000a000000000000000000000000000000000000000000000000000000000000000b200000000000000000000000000000000000000000000000000000000000000b20000000000000000000000000000000000000000000000000000000000000001c000000000000000000000000000000000000000000000000000000000000001cc35ba93b902f4d5ea847eb7c6f7a8b822330304c2c5186881ea4a26b2fddf3ac1e0ea9999bd093ff36c013b2102350594967367e551c0438fa57a7fdc0982c14c35ba93b902f4d5ea847eb7c6f7a8b822330304c2c5186881ea4a26b2fddf3ac1e0ea9999bd093ff36c013b2102350594967367e551c0438fa57a7fdc0982c14000000000000000000000000000000000000000000000000000000000000000000000000000000000000000000000000000000000000000000000000000000e4fb16a5950000000000000000000000000000000000000000000000000000000000000000000000000000000000000000bb4fbee43ec7c4067b91edcb62a3fd44ef22621b000000000000000000000000d5ebf09d9f11475c887ab5e150cfaeee7d7c10c400000000000000000000000000000000000000000000000000000000000025a5000000000000000000000000000000000000000000000000000000000000000000000000000000000000000000000000000000000000000000000000000000c000000000000000000000000000000000000000000000000000000000000000000000000000000000000000000000000000000000000000000000000000000000000000000000000000000000000000000000000000000000000000e4fb16a5950000000000000000000000006f568d09346bebf60c743b4600b1ecc2d744e9b70000000000000000000000000000000000000000000000000000000000000000000000000000000000000000d5ebf09d9f11475c887ab5e150cfaeee7d7c10c400000000000000000000000000000000000000000000000000000000000025a5000000000000000000000000000000000000000000000000000000000000000000000000000000000000000000000000000000000000000000000000000000c000000000000000000000000000000000000000000000000000000000000000000000000000000000000000000000000000000000000000000000000000000000000000000000000000000000000000000000000000000000000000e400000000ffffffffffffffffffffffffffffffffffffffffffffffffffffffffffffffff0000000000000000000000000000000000000000000000000000000000000000000000000000000000000000000000000000000000000000000000000000000000000000000000000000000000000000000000000000000000000000000000000000000000000000000000000000000000000000000000000000000000000000000000000000000000000000000000000000000000000000000000000000000000000000000000000000000000000000000000000000000000000000000000000000000000000000000000000000000000000000000000000000000000000000000000000000000000000000000000000000000000000000000000e4000000000000000000000000000000000000000000000000000000000000000000000000ffffffffffffffffffffffffffffffffffffffffffffffffffffffffffffffff00000000000000000000000000000000000000000000000000000000000000000000000000000000000000000000000000000000000000000000000000000000000000000000000000000000000000000000000000000000000000000000000000000000000000000000000000000000000000000000000000000000000000000000000000000000000000000000000000000000000000000000000000000000000000000000000000000000000000000000000000000000000000000000000000000000000000000000000000000000000000000000000000000000",
            "debugEnable": true,
            "errorInfo": "",
            "eventCount": 2,
            "feeRecipient": "0x03e75d7dd38cce2e20ffee35ec914c57780a8e29",
            "formatValue": "0.035",
            "gasLimit": 252077,
            "gasPrice": "47.197029326",
            "gasUsed": 188964,
            "intTxnCount": 11,
            "internalRevert": false,
            "internalRevertMessage": "",
            "isContractCreation": false,
            "isFlashloan": false,
            "maxFee": "67.494425861",
            "nonce": 888,
            "overwritedBlockNumber": -1,
            "priorityFee": "1.5",
            "receiver": "0x7f268357a8c2552623316e2562d90e642bb538e5",
            "revertMessage": "",
            "sender": "0xbb4fbee43ec7c4067b91edcb62a3fd44ef22621b",
            "simulationEnable": true,
            "sourceTxnHash": "0x1924f6491057f37ebdee6240a6255dcf7319124ae3fd7ef17bc2c82ae54efa58",
            "status": true,
            "timestamp": "2022-06-02T23:57:05Z",
            "transactionFee": "0.008918539449558264",
            "txnHash": "0x1924f6491057f37ebdee6240a6255dcf7319124ae3fd7ef17bc2c82ae54efa58",
            "txnIndex": 182,
            "type": 2,
            "value": "35000000000000000"
        },
        "fund_flow": [
            {
                "amount": "0.035",
                "from": "0xbb4fbee43ec7c4067b91edcb62a3fd44ef22621b",
                "id": 1,
                "isERC1155": false,
                "isERC721": false,
                "isReverted": false,
                "order": 1,
                "to": "0x7f268357a8c2552623316e2562d90e642bb538e5",
                "token": "0xeeeeeeeeeeeeeeeeeeeeeeeeeeeeeeeeeeeeeeee"
            },
            {
                "amount": "0.0035",
                "from": "0x7f268357a8c2552623316e2562d90e642bb538e5",
                "id": 2,
                "isERC1155": false,
                "isERC721": false,
                "isReverted": false,
                "order": 2,
                "to": "0x5b3256965e7c3cf26e11fcaf296dfc8807c01073",
                "token": "0xeeeeeeeeeeeeeeeeeeeeeeeeeeeeeeeeeeeeeeee"
            },
            {
                "amount": "0.0315",
                "from": "0x7f268357a8c2552623316e2562d90e642bb538e5",
                "id": 3,
                "isERC1155": false,
                "isERC721": false,
                "isReverted": false,
                "order": 3,
                "to": "0x6f568d09346bebf60c743b4600b1ecc2d744e9b7",
                "token": "0xeeeeeeeeeeeeeeeeeeeeeeeeeeeeeeeeeeeeeeee"
            },
            {
                "amount": "1",
                "from": "0x6f568d09346bebf60c743b4600b1ecc2d744e9b7",
                "id": 4,
                "isERC1155": false,
                "isERC721": true,
                "isReverted": false,
                "order": 4,
                "to": "0xbb4fbee43ec7c4067b91edcb62a3fd44ef22621b",
                "token": "0xd5ebf09d9f11475c887ab5e150cfaeee7d7c10c4",
                "tokenID": "9637"
            }
        ],
        "token_infos": [
            {
                "address": "0xc02aaa39b223fe8d0a0e5c4f27ead9083c756cc2",
                "decimals": 18
            },
            {
                "address": "0xeeeeeeeeeeeeeeeeeeeeeeeeeeeeeeeeeeeeeeee",
                "decimals": 18
            }
        ]
    },
    "address_label": {
        "labels": [
            {
                "address": "0x5b3256965e7c3cf26e11fcaf296dfc8807c01073",
                "label": "OpenSea: Wallet"
            },
            {
                "address": "0xeeeeeeeeeeeeeeeeeeeeeeeeeeeeeeeeeeeeeeee",
                "label": "Ether"
            },
            {
                "address": "0x0000000000000000000000000000000000000001",
                "label": "Precompiled"
            },
            {
                "address": "0x0000000000000000000000000000000000000002",
                "label": "Precompiled"
            },
            {
                "address": "0x0000000000000000000000000000000000000003",
                "label": "Precompiled"
            },
            {
                "address": "0xf9e266af4bca5890e2781812cc6a6e89495a79f2",
                "label": "AuthenticatedProxy"
            },
            {
                "address": "0xbaf2127b49fc93cbca6269fade0f7f31df4c88a7",
                "label": "MerkleValidator"
            },
            {
                "address": "0xa5409ec958c83c3f309868babaca7c86dcb077c1",
                "label": "OpenSea: Registry"
            },
            {
                "address": "0xd5ebf09d9f11475c887ab5e150cfaeee7d7c10c4",
                "label": "goblinpisswtf: gpw Token"
            },
            {
                "address": "0x7f268357a8c2552623316e2562d90e642bb538e5",
                "label": "OpenSea: Wyvern Exchange v2"
            },
            {
                "address": "0x0000000000000000000000000000000000000000",
                "label": "Null Address"
            },
            {
                "address": "0x5d7b6d689beab6a324dea1fbfc0e0e26bf434cd3",
                "label": "OwnableDelegateProxy"
            },
            {
                "address": "0x0000000000000000000000000000000000000004",
                "label": "Precompiled"
            }
        ]
    },
    "trace": {
        "accountLabels": null,
        "dataMap": {
            "-1": {
                "invocation": {
                    "address": "0xbb4fbee43ec7c4067b91edcb62a3fd44ef22621b",
                    "callData": "",
                    "decodedMethod": null,
                    "errorInfo": "",
                    "fromAddress": "",
                    "gasUsed": 0,
                    "id": -1,
                    "methodDecoded": false,
                    "operation": "",
                    "output": "",
                    "revert": false,
                    "revertMessage": "",
                    "selector": "",
                    "status": false,
                    "value": ""
                },
                "nodeType": 0
            },
            "0": {
                "invocation": {
                    "address": "0x7f268357a8c2552623316e2562d90e642bb538e5",
                    "callData": "0x0000000000000000000000007f268357a8c2552623316e2562d90e642bb538e5000000000000000000000000bb4fbee43ec7c4067b91edcb62a3fd44ef22621b0000000000000000000000006f568d09346bebf60c743b4600b1ecc2d744e9b70000000000000000000000000000000000000000000000000000000000000000000000000000000000000000baf2127b49fc93cbca6269fade0f7f31df4c88a7000000000000000000000000000000000000000000000000000000000000000000000000000000000000000000000000000000000000000000000000000000000000000000000000000000007f268357a8c2552623316e2562d90e642bb538e50000000000000000000000006f568d09346bebf60c743b4600b1ecc2d744e9b700000000000000000000000000000000000000000000000000000000000000000000000000000000000000005b3256965e7c3cf26e11fcaf296dfc8807c01073000000000000000000000000baf2127b49fc93cbca6269fade0f7f31df4c88a70000000000000000000000000000000000000000000000000000000000000000000000000000000000000000000000000000000000000000000000000000000000000000000000000000000000000000000000000000000000000000000003e8000000000000000000000000000000000000000000000000000000000000000000000000000000000000000000000000000000000000000000000000000000000000000000000000000000000000000000000000000000000000000000000000000000000000000000000000000000000000000000000000007c58508723800000000000000000000000000000000000000000000000000000000000000000000000000000000000000000000000000000000000000000000000000062994ddd000000000000000000000000000000000000000000000000000000000000000077fc9c6b607400601ec2bbc816195f6b368d1b279a5bb5ae92eec022c31b073300000000000000000000000000000000000000000000000000000000000003e8000000000000000000000000000000000000000000000000000000000000000000000000000000000000000000000000000000000000000000000000000000000000000000000000000000000000000000000000000000000000000000000000000000000000000000000000000000000000000000000000007c585087238000000000000000000000000000000000000000000000000000000000000000000000000000000000000000000000000000000000000000000000000000629936460000000000000000000000000000000000000000000000000000000062994ecdc6bb1f0ca87016ee98c0eee9507653460b0ddc1e8cbda46d76c25a1f04a3628f0000000000000000000000000000000000000000000000000000000000000001000000000000000000000000000000000000000000000000000000000000000000000000000000000000000000000000000000000000000000000000000000000000000000000000000000000000000000000000000000000000000000000001000000000000000000000000000000000000000000000000000000000000000100000000000000000000000000000000000000000000000000000000000000010000000000000000000000000000000000000000000000000000000000000000000000000000000000000000000000000000000000000000000000000000000100000000000000000000000000000000000000000000000000000000000006a000000000000000000000000000000000000000000000000000000000000007c000000000000000000000000000000000000000000000000000000000000008e00000000000000000000000000000000000000000000000000000000000000a000000000000000000000000000000000000000000000000000000000000000b200000000000000000000000000000000000000000000000000000000000000b20000000000000000000000000000000000000000000000000000000000000001c000000000000000000000000000000000000000000000000000000000000001cc35ba93b902f4d5ea847eb7c6f7a8b822330304c2c5186881ea4a26b2fddf3ac1e0ea9999bd093ff36c013b2102350594967367e551c0438fa57a7fdc0982c14c35ba93b902f4d5ea847eb7c6f7a8b822330304c2c5186881ea4a26b2fddf3ac1e0ea9999bd093ff36c013b2102350594967367e551c0438fa57a7fdc0982c14000000000000000000000000000000000000000000000000000000000000000000000000000000000000000000000000000000000000000000000000000000e4fb16a5950000000000000000000000000000000000000000000000000000000000000000000000000000000000000000bb4fbee43ec7c4067b91edcb62a3fd44ef22621b000000000000000000000000d5ebf09d9f11475c887ab5e150cfaeee7d7c10c400000000000000000000000000000000000000000000000000000000000025a5000000000000000000000000000000000000000000000000000000000000000000000000000000000000000000000000000000000000000000000000000000c000000000000000000000000000000000000000000000000000000000000000000000000000000000000000000000000000000000000000000000000000000000000000000000000000000000000000000000000000000000000000e4fb16a5950000000000000000000000006f568d09346bebf60c743b4600b1ecc2d744e9b70000000000000000000000000000000000000000000000000000000000000000000000000000000000000000d5ebf09d9f11475c887ab5e150cfaeee7d7c10c400000000000000000000000000000000000000000000000000000000000025a5000000000000000000000000000000000000000000000000000000000000000000000000000000000000000000000000000000000000000000000000000000c000000000000000000000000000000000000000000000000000000000000000000000000000000000000000000000000000000000000000000000000000000000000000000000000000000000000000000000000000000000000000e400000000ffffffffffffffffffffffffffffffffffffffffffffffffffffffffffffffff0000000000000000000000000000000000000000000000000000000000000000000000000000000000000000000000000000000000000000000000000000000000000000000000000000000000000000000000000000000000000000000000000000000000000000000000000000000000000000000000000000000000000000000000000000000000000000000000000000000000000000000000000000000000000000000000000000000000000000000000000000000000000000000000000000000000000000000000000000000000000000000000000000000000000000000000000000000000000000000000000000000000000000000000e4000000000000000000000000000000000000000000000000000000000000000000000000ffffffffffffffffffffffffffffffffffffffffffffffffffffffffffffffff00000000000000000000000000000000000000000000000000000000000000000000000000000000000000000000000000000000000000000000000000000000000000000000000000000000000000000000000000000000000000000000000000000000000000000000000000000000000000000000000000000000000000000000000000000000000000000000000000000000000000000000000000000000000000000000000000000000000000000000000000000000000000000000000000000000000000000000000000000000000000000000000000000000",
                    "decodedMethod": {
                        "callParams": [
                            {
                                "name": "addrs",
                                "type": "address[14]",
                                "value": [
                                    "0x7f268357a8c2552623316e2562d90e642bb538e5",
                                    "0xbb4fbee43ec7c4067b91edcb62a3fd44ef22621b",
                                    "0x6f568d09346bebf60c743b4600b1ecc2d744e9b7",
                                    "0x0000000000000000000000000000000000000000",
                                    "0xbaf2127b49fc93cbca6269fade0f7f31df4c88a7",
                                    "0x0000000000000000000000000000000000000000",
                                    "0x0000000000000000000000000000000000000000",
                                    "0x7f268357a8c2552623316e2562d90e642bb538e5",
                                    "0x6f568d09346bebf60c743b4600b1ecc2d744e9b7",
                                    "0x0000000000000000000000000000000000000000",
                                    "0x5b3256965e7c3cf26e11fcaf296dfc8807c01073",
                                    "0xbaf2127b49fc93cbca6269fade0f7f31df4c88a7",
                                    "0x0000000000000000000000000000000000000000",
                                    "0x0000000000000000000000000000000000000000"
                                ]
                            },
                            {
                                "name": "uints",
                                "type": "uint256[18]",
                                "value": [
                                    "1,000",
                                    "0",
                                    "0",
                                    "0",
                                    "35,000,000,000,000,000",
                                    "0",
                                    "1,654,214,109",
                                    "0",
                                    "54,271,554,009,034,946,016,249,685,004,930,091,704,713,030,031,341,335,042,669,494,028,163,685,746,483",
                                    "1,000",
                                    "0",
                                    "0",
                                    "0",
                                    "35,000,000,000,000,000",
                                    "0",
                                    "1,654,208,070",
                                    "1,654,214,349",
                                    "89,888,558,715,994,989,259,090,644,707,215,773,797,734,695,652,608,976,112,811,888,445,718,624,690,831"
                                ]
                            },
                            {
                                "name": "feeMethodsSidesKindsHowToCalls",
                                "type": "uint8[8]",
                                "value": [
                                    "1",
                                    "0",
                                    "0",
                                    "1",
                                    "1",
                                    "1",
                                    "0",
                                    "1"
                                ]
                            },
                            {
                                "name": "calldataBuy",
                                "type": "bytes",
                                "value": "0xfb16a5950000000000000000000000000000000000000000000000000000000000000000000000000000000000000000bb4fbee43ec7c4067b91edcb62a3fd44ef22621b000000000000000000000000d5ebf09d9f11475c887ab5e150cfaeee7d7c10c400000000000000000000000000000000000000000000000000000000000025a5000000000000000000000000000000000000000000000000000000000000000000000000000000000000000000000000000000000000000000000000000000c00000000000000000000000000000000000000000000000000000000000000000"
                            },
                            {
                                "name": "calldataSell",
                                "type": "bytes",
                                "value": "0xfb16a5950000000000000000000000006f568d09346bebf60c743b4600b1ecc2d744e9b70000000000000000000000000000000000000000000000000000000000000000000000000000000000000000d5ebf09d9f11475c887ab5e150cfaeee7d7c10c400000000000000000000000000000000000000000000000000000000000025a5000000000000000000000000000000000000000000000000000000000000000000000000000000000000000000000000000000000000000000000000000000c00000000000000000000000000000000000000000000000000000000000000000"
                            },
                            {
                                "name": "replacementPatternBuy",
                                "type": "bytes",
                                "value": "0x00000000ffffffffffffffffffffffffffffffffffffffffffffffffffffffffffffffff000000000000000000000000000000000000000000000000000000000000000000000000000000000000000000000000000000000000000000000000000000000000000000000000000000000000000000000000000000000000000000000000000000000000000000000000000000000000000000000000000000000000000000000000000000000000000000000000000000000000000000000000000000000000000000000000000000000000000000000000000000000000000000000000"
                            },
                            {
                                "name": "replacementPatternSell",
                                "type": "bytes",
                                "value": "0x000000000000000000000000000000000000000000000000000000000000000000000000ffffffffffffffffffffffffffffffffffffffffffffffffffffffffffffffff00000000000000000000000000000000000000000000000000000000000000000000000000000000000000000000000000000000000000000000000000000000000000000000000000000000000000000000000000000000000000000000000000000000000000000000000000000000000000000000000000000000000000000000000000000000000000000000000000000000000000000000000000000000"
                            },
                            {
                                "name": "staticExtradataBuy",
                                "type": "bytes",
                                "value": "0x"
                            },
                            {
                                "name": "staticExtradataSell",
                                "type": "bytes",
                                "value": "0x"
                            },
                            {
                                "name": "vs",
                                "type": "uint8[2]",
                                "value": [
                                    "28",
                                    "28"
                                ]
                            },
                            {
                                "name": "rssMetadata",
                                "type": "bytes32[5]",
                                "value": [
                                    "0xc35ba93b902f4d5ea847eb7c6f7a8b822330304c2c5186881ea4a26b2fddf3ac",
                                    "0x1e0ea9999bd093ff36c013b2102350594967367e551c0438fa57a7fdc0982c14",
                                    "0xc35ba93b902f4d5ea847eb7c6f7a8b822330304c2c5186881ea4a26b2fddf3ac",
                                    "0x1e0ea9999bd093ff36c013b2102350594967367e551c0438fa57a7fdc0982c14",
                                    "0x0000000000000000000000000000000000000000000000000000000000000000"
                                ]
                            }
                        ],
                        "constructorArguments": "",
                        "name": "atomicMatch_",
                        "returnParams": [],
                        "signature": "atomicMatch_(address[14],uint256[18],uint8[8],bytes,bytes,bytes,bytes,bytes,bytes,uint8[2],bytes32[5])"
                    },
                    "errorInfo": "",
                    "fromAddress": "0xbb4fbee43ec7c4067b91edcb62a3fd44ef22621b",
                    "gasUsed": 188964,
                    "id": 0,
                    "methodDecoded": true,
                    "operation": "CALL",
                    "output": "",
                    "revert": false,
                    "revertMessage": "",
                    "selector": "0xab834bab",
                    "status": true,
                    "value": "0.035"
                },
                "nodeType": 0
            },
            "1": {
                "invocation": {
                    "address": "0x0000000000000000000000000000000000000001",
                    "callData": "0xb9b2dcc36e88d5c1b18738816371a77e97a08c2e800c4da66a16bdb4000000000000000000000000000000000000000000000000000000000000001cc35ba93b902f4d5ea847eb7c6f7a8b822330304c2c5186881ea4a26b2fddf3ac1e0ea9999bd093ff36c013b2102350594967367e551c0438fa57a7fdc0982c14",
                    "decodedMethod": {
                        "callParams": [
                            {
                                "name": "hash",
                                "type": "bytes32",
                                "value": "0xed9dd4f4b9b2dcc36e88d5c1b18738816371a77e97a08c2e800c4da66a16bdb4"
                            },
                            {
                                "name": "v",
                                "type": "uint256",
                                "value": "28"
                            },
                            {
                                "name": "r",
                                "type": "bytes32",
                                "value": "0xc35ba93b902f4d5ea847eb7c6f7a8b822330304c2c5186881ea4a26b2fddf3ac"
                            },
                            {
                                "name": "s",
                                "type": "bytes32",
                                "value": "0x1e0ea9999bd093ff36c013b2102350594967367e551c0438fa57a7fdc0982c14"
                            }
                        ],
                        "constructorArguments": "",
                        "name": "ecrecover",
                        "returnParams": [
                            {
                                "name": "",
                                "type": "address",
                                "value": "0x6f568d09346bebf60c743b4600b1ecc2d744e9b7"
                            }
                        ],
                        "signature": "ecrecover(bytes32,uint256,bytes32,bytes32)"
                    },
                    "errorInfo": "",
                    "fromAddress": "0x7f268357a8c2552623316e2562d90e642bb538e5",
                    "gasUsed": 3000,
                    "id": 1,
                    "methodDecoded": true,
                    "operation": "CALL",
                    "output": "0x0000000000000000000000006f568d09346bebf60c743b4600b1ecc2d744e9b7",
                    "revert": false,
                    "revertMessage": "",
                    "selector": "0xed9dd4f4",
                    "status": true,
                    "value": "0"
                },
                "nodeType": 0
            },
            "10": {
                "invocation": {
                    "address": "0xbaf2127b49fc93cbca6269fade0f7f31df4c88a7",
                    "callData": "0x0000000000000000000000006f568d09346bebf60c743b4600b1ecc2d744e9b7000000000000000000000000bb4fbee43ec7c4067b91edcb62a3fd44ef22621b000000000000000000000000d5ebf09d9f11475c887ab5e150cfaeee7d7c10c400000000000000000000000000000000000000000000000000000000000025a5000000000000000000000000000000000000000000000000000000000000000000000000000000000000000000000000000000000000000000000000000000c0000000000000000000000000000000000000000000000000000000000000000000000000000000000000000000000000000000000000000000000000",
                    "decodedMethod": {
                        "callParams": [
                            {
                                "name": "from",
                                "type": "address",
                                "value": "0x6f568d09346bebf60c743b4600b1ecc2d744e9b7"
                            },
                            {
                                "name": "to",
                                "type": "address",
                                "value": "0xbb4fbee43ec7c4067b91edcb62a3fd44ef22621b"
                            },
                            {
                                "name": "token",
                                "type": "address",
                                "value": "0xd5ebf09d9f11475c887ab5e150cfaeee7d7c10c4"
                            },
                            {
                                "name": "tokenId",
                                "type": "uint256",
                                "value": "9,637"
                            },
                            {
                                "name": "root",
                                "type": "bytes32",
                                "value": "0x0000000000000000000000000000000000000000000000000000000000000000"
                            },
                            {
                                "name": "proof",
                                "type": "bytes32[]",
                                "value": []
                            }
                        ],
                        "constructorArguments": "",
                        "name": "matchERC721UsingCriteria",
                        "returnParams": [
                            {
                                "name": "",
                                "type": "bool",
                                "value": true
                            }
                        ],
                        "signature": "matchERC721UsingCriteria(address,address,address,uint256,bytes32,bytes32[])"
                    },
                    "errorInfo": "",
                    "fromAddress": "0x5d7b6d689beab6a324dea1fbfc0e0e26bf434cd3",
                    "gasUsed": 28736,
                    "id": 10,
                    "methodDecoded": true,
                    "operation": "DELEGATECALL",
                    "output": "0x0000000000000000000000000000000000000000000000000000000000000001",
                    "revert": false,
                    "revertMessage": "",
                    "selector": "0xfb16a595",
                    "status": true,
                    "value": "0"
                },
                "nodeType": 0
            },
            "11": {
                "invocation": {
                    "address": "0xd5ebf09d9f11475c887ab5e150cfaeee7d7c10c4",
                    "callData": "0x0000000000000000000000006f568d09346bebf60c743b4600b1ecc2d744e9b7000000000000000000000000bb4fbee43ec7c4067b91edcb62a3fd44ef22621b00000000000000000000000000000000000000000000000000000000000025a5",
                    "decodedMethod": {
                        "callParams": [
                            {
                                "name": "from",
                                "type": "address",
                                "value": "0x6f568d09346bebf60c743b4600b1ecc2d744e9b7"
                            },
                            {
                                "name": "to",
                                "type": "address",
                                "value": "0xbb4fbee43ec7c4067b91edcb62a3fd44ef22621b"
                            },
                            {
                                "decimalAvailable": true,
                                "name": "tokenId",
                                "type": "uint256",
                                "value": "9,637"
                            }
                        ],
                        "constructorArguments": "",
                        "name": "transferFrom",
                        "returnParams": [],
                        "signature": "transferFrom(address,address,uint256)"
                    },
                    "errorInfo": "",
                    "fromAddress": "0x5d7b6d689beab6a324dea1fbfc0e0e26bf434cd3",
                    "gasUsed": 24894,
                    "id": 11,
                    "methodDecoded": true,
                    "operation": "CALL",
                    "output": "",
                    "revert": false,
                    "revertMessage": "",
                    "selector": "0x23b872dd",
                    "status": true,
                    "value": "0"
                },
                "nodeType": 0
            },
            "12": {
                "event": {
                    "contract": "0xd5ebf09d9f11475c887ab5e150cfaeee7d7c10c4",
                    "decodedLog": {
                        "name": "Transfer",
                        "params": [
                            {
                                "name": "from",
                                "type": "address",
                                "value": "0x6f568d09346bebf60c743b4600b1ecc2d744e9b7"
                            },
                            {
                                "name": "to",
                                "type": "address",
                                "value": "0xbb4fbee43ec7c4067b91edcb62a3fd44ef22621b"
                            },
                            {
                                "decimalAvailable": true,
                                "name": "tokenId",
                                "type": "uint256",
                                "value": "9,637"
                            }
                        ],
                        "signature": "Transfer(address,address,uint256)"
                    },
                    "id": 12,
                    "logData": "0x",
                    "logDecoded": true,
                    "operation": "EVENT",
                    "revert": false,
                    "status": true,
                    "topics": [
                        "0xddf252ad1be2c89b69c2b068fc378daa952ba7f163c4a11628f55a4df523b3ef",
                        "0x0000000000000000000000006f568d09346bebf60c743b4600b1ecc2d744e9b7",
                        "0x000000000000000000000000bb4fbee43ec7c4067b91edcb62a3fd44ef22621b",
                        "0x00000000000000000000000000000000000000000000000000000000000025a5"
                    ]
                },
                "nodeType": 1
            },
            "13": {
                "event": {
                    "contract": "0x7f268357a8c2552623316e2562d90e642bb538e5",
                    "decodedLog": {
                        "name": "OrdersMatched",
                        "params": [
                            {
                                "name": "maker",
                                "type": "address",
                                "value": "0x6f568d09346bebf60c743b4600b1ecc2d744e9b7"
                            },
                            {
                                "name": "taker",
                                "type": "address",
                                "value": "0xbb4fbee43ec7c4067b91edcb62a3fd44ef22621b"
                            },
                            {
                                "name": "metadata",
                                "type": "bytes32",
                                "value": "0x0000000000000000000000000000000000000000000000000000000000000000"
                            },
                            {
                                "name": "buyHash",
                                "type": "bytes32",
                                "value": "0x0000000000000000000000000000000000000000000000000000000000000000"
                            },
                            {
                                "name": "sellHash",
                                "type": "bytes32",
                                "value": "0xed9dd4f4b9b2dcc36e88d5c1b18738816371a77e97a08c2e800c4da66a16bdb4"
                            },
                            {
                                "name": "price",
                                "type": "uint256",
                                "value": "35,000,000,000,000,000"
                            }
                        ],
                        "signature": "OrdersMatched(bytes32,bytes32,address,address,uint256,bytes32)"
                    },
                    "id": 13,
                    "logData": "0x0000000000000000000000000000000000000000000000000000000000000000ed9dd4f4b9b2dcc36e88d5c1b18738816371a77e97a08c2e800c4da66a16bdb4000000000000000000000000000000000000000000000000007c585087238000",
                    "logDecoded": true,
                    "operation": "EVENT",
                    "revert": false,
                    "status": true,
                    "topics": [
                        "0xc4109843e0b7d514e4c093114b863f8e7d8d9a458c372cd51bfe526b588006c9",
                        "0x0000000000000000000000006f568d09346bebf60c743b4600b1ecc2d744e9b7",
                        "0x000000000000000000000000bb4fbee43ec7c4067b91edcb62a3fd44ef22621b",
                        "0x0000000000000000000000000000000000000000000000000000000000000000"
                    ]
                },
                "nodeType": 1
            },
            "2": {
                "invocation": {
                    "address": "0xa5409ec958c83c3f309868babaca7c86dcb077c1",
                    "callData": "0x0000000000000000000000006f568d09346bebf60c743b4600b1ecc2d744e9b7",
                    "decodedMethod": {
                        "callParams": [
                            {
                                "name": "",
                                "type": "address",
                                "value": "0x6f568d09346bebf60c743b4600b1ecc2d744e9b7"
                            }
                        ],
                        "constructorArguments": "",
                        "name": "proxies",
                        "returnParams": [
                            {
                                "name": "",
                                "type": "address",
                                "value": "0x5d7b6d689beab6a324dea1fbfc0e0e26bf434cd3"
                            }
                        ],
                        "signature": "proxies(address)"
                    },
                    "errorInfo": "",
                    "fromAddress": "0x7f268357a8c2552623316e2562d90e642bb538e5",
                    "gasUsed": 2782,
                    "id": 2,
                    "methodDecoded": true,
                    "operation": "CALL",
                    "output": "0x0000000000000000000000005d7b6d689beab6a324dea1fbfc0e0e26bf434cd3",
                    "revert": false,
                    "revertMessage": "",
                    "selector": "0xc4552791",
                    "status": true,
                    "value": "0"
                },
                "nodeType": 0
            },
            "3": {
                "invocation": {
                    "address": "0x5b3256965e7c3cf26e11fcaf296dfc8807c01073",
                    "callData": "0x",
                    "decodedMethod": null,
                    "errorInfo": "",
                    "fromAddress": "0x7f268357a8c2552623316e2562d90e642bb538e5",
                    "gasUsed": 0,
                    "id": 3,
                    "methodDecoded": false,
                    "operation": "CALL",
                    "output": "",
                    "revert": false,
                    "revertMessage": "",
                    "selector": "fallback",
                    "status": true,
                    "value": "0.0035"
                },
                "nodeType": 0
            },
            "4": {
                "invocation": {
                    "address": "0x6f568d09346bebf60c743b4600b1ecc2d744e9b7",
                    "callData": "0x",
                    "decodedMethod": null,
                    "errorInfo": "",
                    "fromAddress": "0x7f268357a8c2552623316e2562d90e642bb538e5",
                    "gasUsed": 0,
                    "id": 4,
                    "methodDecoded": false,
                    "operation": "CALL",
                    "output": "",
                    "revert": false,
                    "revertMessage": "",
                    "selector": "fallback",
                    "status": true,
                    "value": "0.0315"
                },
                "nodeType": 0
            },
            "5": {
                "invocation": {
                    "address": "0xa5409ec958c83c3f309868babaca7c86dcb077c1",
                    "callData": "0x",
                    "decodedMethod": {
                        "callParams": [],
                        "constructorArguments": "",
                        "name": "delegateProxyImplementation",
                        "returnParams": [
                            {
                                "name": "",
                                "type": "address",
                                "value": "0xf9e266af4bca5890e2781812cc6a6e89495a79f2"
                            }
                        ],
                        "signature": "delegateProxyImplementation()"
                    },
                    "errorInfo": "",
                    "fromAddress": "0x7f268357a8c2552623316e2562d90e642bb538e5",
                    "gasUsed": 2613,
                    "id": 5,
                    "methodDecoded": true,
                    "operation": "CALL",
                    "output": "0x000000000000000000000000f9e266af4bca5890e2781812cc6a6e89495a79f2",
                    "revert": false,
                    "revertMessage": "",
                    "selector": "0x97204d8e",
                    "status": true,
                    "value": "0"
                },
                "nodeType": 0
            },
            "6": {
                "invocation": {
                    "address": "0x5d7b6d689beab6a324dea1fbfc0e0e26bf434cd3",
                    "callData": "0x",
                    "decodedMethod": {
                        "callParams": [],
                        "constructorArguments": "",
                        "name": "implementation",
                        "returnParams": [
                            {
                                "name": "",
                                "type": "address",
                                "value": "0xf9e266af4bca5890e2781812cc6a6e89495a79f2"
                            }
                        ],
                        "signature": "implementation()"
                    },
                    "errorInfo": "",
                    "fromAddress": "0x7f268357a8c2552623316e2562d90e642bb538e5",
                    "gasUsed": 2525,
                    "id": 6,
                    "methodDecoded": true,
                    "operation": "CALL",
                    "output": "0x000000000000000000000000f9e266af4bca5890e2781812cc6a6e89495a79f2",
                    "revert": false,
                    "revertMessage": "",
                    "selector": "0x5c60da1b",
                    "status": true,
                    "value": "0"
                },
                "nodeType": 0
            },
            "7": {
                "invocation": {
                    "address": "0x5d7b6d689beab6a324dea1fbfc0e0e26bf434cd3",
                    "callData": "0x000000000000000000000000baf2127b49fc93cbca6269fade0f7f31df4c88a70000000000000000000000000000000000000000000000000000000000000001000000000000000000000000000000000000000000000000000000000000006000000000000000000000000000000000000000000000000000000000000000e4fb16a5950000000000000000000000006f568d09346bebf60c743b4600b1ecc2d744e9b7000000000000000000000000bb4fbee43ec7c4067b91edcb62a3fd44ef22621b000000000000000000000000d5ebf09d9f11475c887ab5e150cfaeee7d7c10c400000000000000000000000000000000000000000000000000000000000025a5000000000000000000000000000000000000000000000000000000000000000000000000000000000000000000000000000000000000000000000000000000c0000000000000000000000000000000000000000000000000000000000000000000000000000000000000000000000000000000000000000000000000",
                    "decodedMethod": {
                        "callParams": [
                            {
                                "name": "dest",
                                "type": "address",
                                "value": "0xbaf2127b49fc93cbca6269fade0f7f31df4c88a7"
                            },
                            {
                                "name": "howToCall",
                                "type": "uint8",
                                "value": "1"
                            },
                            {
                                "name": "calldata",
                                "type": "bytes",
                                "value": "0xfb16a5950000000000000000000000006f568d09346bebf60c743b4600b1ecc2d744e9b7000000000000000000000000bb4fbee43ec7c4067b91edcb62a3fd44ef22621b000000000000000000000000d5ebf09d9f11475c887ab5e150cfaeee7d7c10c400000000000000000000000000000000000000000000000000000000000025a5000000000000000000000000000000000000000000000000000000000000000000000000000000000000000000000000000000000000000000000000000000c00000000000000000000000000000000000000000000000000000000000000000"
                            }
                        ],
                        "constructorArguments": "",
                        "name": "proxy",
                        "returnParams": [
                            {
                                "name": "result",
                                "type": "bool",
                                "value": true
                            }
                        ],
                        "signature": "proxy(address,uint8,bytes)"
                    },
                    "errorInfo": "",
                    "fromAddress": "0x7f268357a8c2552623316e2562d90e642bb538e5",
                    "gasUsed": 41256,
                    "id": 7,
                    "methodDecoded": true,
                    "operation": "CALL",
                    "output": "0x0000000000000000000000000000000000000000000000000000000000000001",
                    "revert": false,
                    "revertMessage": "",
                    "selector": "0x1b0f7ba9",
                    "status": true,
                    "value": "0"
                },
                "nodeType": 0
            },
            "8": {
                "invocation": {
                    "address": "0xf9e266af4bca5890e2781812cc6a6e89495a79f2",
                    "callData": "0x000000000000000000000000baf2127b49fc93cbca6269fade0f7f31df4c88a70000000000000000000000000000000000000000000000000000000000000001000000000000000000000000000000000000000000000000000000000000006000000000000000000000000000000000000000000000000000000000000000e4fb16a5950000000000000000000000006f568d09346bebf60c743b4600b1ecc2d744e9b7000000000000000000000000bb4fbee43ec7c4067b91edcb62a3fd44ef22621b000000000000000000000000d5ebf09d9f11475c887ab5e150cfaeee7d7c10c400000000000000000000000000000000000000000000000000000000000025a5000000000000000000000000000000000000000000000000000000000000000000000000000000000000000000000000000000000000000000000000000000c0000000000000000000000000000000000000000000000000000000000000000000000000000000000000000000000000000000000000000000000000",
                    "decodedMethod": {
                        "callParams": [
                            {
                                "name": "dest",
                                "type": "address",
                                "value": "0xbaf2127b49fc93cbca6269fade0f7f31df4c88a7"
                            },
                            {
                                "name": "howToCall",
                                "type": "uint8",
                                "value": "1"
                            },
                            {
                                "name": "calldata",
                                "type": "bytes",
                                "value": "0xfb16a5950000000000000000000000006f568d09346bebf60c743b4600b1ecc2d744e9b7000000000000000000000000bb4fbee43ec7c4067b91edcb62a3fd44ef22621b000000000000000000000000d5ebf09d9f11475c887ab5e150cfaeee7d7c10c400000000000000000000000000000000000000000000000000000000000025a5000000000000000000000000000000000000000000000000000000000000000000000000000000000000000000000000000000000000000000000000000000c00000000000000000000000000000000000000000000000000000000000000000"
                            }
                        ],
                        "constructorArguments": "",
                        "name": "proxy",
                        "returnParams": [
                            {
                                "name": "result",
                                "type": "bool",
                                "value": true
                            }
                        ],
                        "signature": "proxy(address,uint8,bytes)"
                    },
                    "errorInfo": "",
                    "fromAddress": "0x5d7b6d689beab6a324dea1fbfc0e0e26bf434cd3",
                    "gasUsed": 37972,
                    "id": 8,
                    "methodDecoded": true,
                    "operation": "DELEGATECALL",
                    "output": "0x0000000000000000000000000000000000000000000000000000000000000001",
                    "revert": false,
                    "revertMessage": "",
                    "selector": "0x1b0f7ba9",
                    "status": true,
                    "value": "0"
                },
                "nodeType": 0
            },
            "9": {
                "invocation": {
                    "address": "0xa5409ec958c83c3f309868babaca7c86dcb077c1",
                    "callData": "0x0000000000000000000000007f268357a8c2552623316e2562d90e642bb538e5",
                    "decodedMethod": {
                        "callParams": [
                            {
                                "name": "",
                                "type": "address",
                                "value": "0x7f268357a8c2552623316e2562d90e642bb538e5"
                            }
                        ],
                        "constructorArguments": "",
                        "name": "contracts",
                        "returnParams": [
                            {
                                "name": "",
                                "type": "bool",
                                "value": true
                            }
                        ],
                        "signature": "contracts(address)"
                    },
                    "errorInfo": "",
                    "fromAddress": "0x5d7b6d689beab6a324dea1fbfc0e0e26bf434cd3",
                    "gasUsed": 2553,
                    "id": 9,
                    "methodDecoded": true,
                    "operation": "CALL",
                    "output": "0x0000000000000000000000000000000000000000000000000000000000000001",
                    "revert": false,
                    "revertMessage": "",
                    "selector": "0x69dc9ff3",
                    "status": true,
                    "value": "0"
                },
                "nodeType": 0
            }
        },
        "gasFlame": [
            {
                "children": [
                    {
                        "children": [
                            {
                                "children": [],
                                "depth": 0,
                                "name": "Initial Gas",
                                "value": 39256
                            },
                            {
                                "children": [
                                    {
                                        "children": [],
                                        "depth": 1,
                                        "name": "ecrecover",
                                        "value": 3000
                                    },
                                    {
                                        "children": [],
                                        "depth": 1,
                                        "name": "proxies",
                                        "value": 2782
                                    },
                                    {
                                        "children": [],
                                        "depth": 1,
                                        "name": "fallback",
                                        "value": 0
                                    },
                                    {
                                        "children": [],
                                        "depth": 1,
                                        "name": "fallback",
                                        "value": 0
                                    },
                                    {
                                        "children": [],
                                        "depth": 1,
                                        "name": "delegateProxyImplementation",
                                        "value": 2613
                                    },
                                    {
                                        "children": [],
                                        "depth": 1,
                                        "name": "implementation",
                                        "value": 2525
                                    },
                                    {
                                        "children": [
                                            {
                                                "children": [
                                                    {
                                                        "children": [],
                                                        "depth": 3,
                                                        "name": "contracts",
                                                        "value": 2553
                                                    },
                                                    {
                                                        "children": [
                                                            {
                                                                "children": [],
                                                                "depth": 4,
                                                                "name": "transferFrom",
                                                                "value": 24894
                                                            }
                                                        ],
                                                        "depth": 3,
                                                        "name": "matchERC721UsingCriteria",
                                                        "value": 28736
                                                    }
                                                ],
                                                "depth": 2,
                                                "name": "proxy",
                                                "value": 37972
                                            }
                                        ],
                                        "depth": 1,
                                        "name": "proxy",
                                        "value": 41256
                                    }
                                ],
                                "depth": 0,
                                "name": "Executed Gas",
                                "value": 152508
                            }
                        ],
                        "depth": -1,
                        "name": "Actual Gas Used",
                        "value": 188964
                    },
                    {
                        "children": [],
                        "depth": -1,
                        "name": "Refunded Gas",
                        "value": 2800
                    }
                ],
                "depth": -2,
                "name": "Total Gas",
                "value": 191764
            }
        ],
        "isConfirmed": true,
        "mainTrace": [
            {
                "children": [
                    {
                        "children": [
                            {
                                "children": [],
                                "depth": 1,
                                "id": 1,
                                "order": 1
                            },
                            {
                                "children": [],
                                "depth": 1,
                                "id": 2,
                                "order": 2
                            },
                            {
                                "children": [],
                                "depth": 1,
                                "id": 3,
                                "order": 3
                            },
                            {
                                "children": [],
                                "depth": 1,
                                "id": 4,
                                "order": 4
                            },
                            {
                                "children": [],
                                "depth": 1,
                                "id": 5,
                                "order": 5
                            },
                            {
                                "children": [],
                                "depth": 1,
                                "id": 6,
                                "order": 6
                            },
                            {
                                "children": [
                                    {
                                        "children": [
                                            {
                                                "children": [],
                                                "depth": 3,
                                                "id": 9,
                                                "order": 9
                                            },
                                            {
                                                "children": [
                                                    {
                                                        "children": [
                                                            {
                                                                "children": [],
                                                                "depth": 5,
                                                                "id": 12,
                                                                "order": 12
                                                            }
                                                        ],
                                                        "depth": 4,
                                                        "id": 11,
                                                        "order": 11
                                                    }
                                                ],
                                                "depth": 3,
                                                "id": 10,
                                                "order": 10
                                            }
                                        ],
                                        "depth": 2,
                                        "id": 8,
                                        "order": 8
                                    }
                                ],
                                "depth": 1,
                                "id": 7,
                                "order": 7
                            },
                            {
                                "children": [],
                                "depth": 1,
                                "id": 13,
                                "order": 13
                            }
                        ],
                        "depth": 0,
                        "id": 0,
                        "order": 0
                    }
                ],
                "depth": -1,
                "id": -1,
                "order": -1
            }
        ],
        "mainTraceNodeCount": 14,
        "parentIdMap": {
            "0": -1,
            "1": 0,
            "10": 8,
            "11": 10,
            "12": 11,
            "13": 0,
            "2": 0,
            "3": 0,
            "4": 0,
            "5": 0,
            "6": 0,
            "7": 0,
            "8": 7,
            "9": 8
        },
        "tidyTrace": [
            {
                "children": [
                    {
                        "children": [
                            {
                                "children": [],
                                "depth": 1,
                                "id": 1,
                                "order": 1
                            },
                            {
                                "children": [],
                                "depth": 1,
                                "id": 2,
                                "order": 2
                            },
                            {
                                "children": [],
                                "depth": 1,
                                "id": 3,
                                "order": 3
                            },
                            {
                                "children": [],
                                "depth": 1,
                                "id": 4,
                                "order": 4
                            },
                            {
                                "children": [],
                                "depth": 1,
                                "id": 5,
                                "order": 5
                            },
                            {
                                "children": [],
                                "depth": 1,
                                "id": 6,
                                "order": 6
                            },
                            {
                                "children": [
                                    {
                                        "children": [
                                            {
                                                "children": [],
                                                "depth": 3,
                                                "id": 9,
                                                "order": 9
                                            },
                                            {
                                                "children": [
                                                    {
                                                        "children": [
                                                            {
                                                                "children": [],
                                                                "depth": 5,
                                                                "id": 12,
                                                                "order": 12
                                                            }
                                                        ],
                                                        "depth": 4,
                                                        "id": 11,
                                                        "order": 11
                                                    }
                                                ],
                                                "depth": 3,
                                                "id": 10,
                                                "order": 10
                                            }
                                        ],
                                        "depth": 2,
                                        "id": 8,
                                        "order": 8
                                    }
                                ],
                                "depth": 1,
                                "id": 7,
                                "order": 7
                            },
                            {
                                "children": [],
                                "depth": 1,
                                "id": 13,
                                "order": 13
                            }
                        ],
                        "depth": 0,
                        "id": 0,
                        "order": 0
                    }
                ],
                "depth": -1,
                "id": -1,
                "order": -1
            }
        ],
        "tidyTraceNodeCount": 14
    },
    "state_change": {
        "stateChanges": [
            {
                "address": "0x7f268357a8c2552623316e2562d90e642bb538e5",
                "erc": "",
                "slots": [
                    {
                        "current": "0x0000000000000000000000000000000000000000000000000000000000000001",
                        "key": "0x1b7a5ef3883d501d0ae952341e81f4c64591f4abc2dff1e8994ebe68be583b3c",
                        "prev": "0x0000000000000000000000000000000000000000000000000000000000000000"
                    }
                ],
                "storageVariables": [
                    {
                        "name": "cancelledOrFinalized",
                        "type": "mapping(bytes32 => bool)",
                        "value": {
                            "pairs": [
                                {
                                    "key": "0xed9dd4f4b9b2dcc36e88d5c1b18738816371a77e97a08c2e800c4da66a16bdb4",
                                    "value": {
                                        "current": "true",
                                        "prev": "false",
                                        "typeTag": 1
                                    }
                                }
                            ],
                            "typeTag": 4
                        }
                    }
                ]
            },
            {
                "address": "0xd5ebf09d9f11475c887ab5e150cfaeee7d7c10c4",
                "erc": "ERC-721",
                "slots": [
                    {
                        "current": "0x0000000000000000000000000000000000000000000000000000000000000001",
                        "key": "0x64ea2fae20e79563cb250b908fbdeb033ffd50ca29e7fefae5327f261cc710aa",
                        "prev": "0x0000000000000000000000000000000000000000000000000000000000000002"
                    },
                    {
                        "current": "0x0000000000000000000000000000000000000000000000000000000000000004",
                        "key": "0xc64af15eebd147e41703c7673ee115659859afc7b370edbf0f85fd73ec16979d",
                        "prev": "0x0000000000000000000000000000000000000000000000000000000000000003"
                    },
                    {
                        "current": "0x000000020000000062994e51bb4fbee43ec7c4067b91edcb62a3fd44ef22621b",
                        "key": "0x834c99ddaed66ff3d0ae8538365b99bcbd0ff5abaefc645d533b9f08abb479df",
                        "prev": "0x000000020000000062981e526f568d09346bebf60c743b4600b1ecc2d744e9b7"
                    }
                ],
                "storageVariables": [
                    {
                        "name": "_packedAddressData",
                        "type": "mapping(address => uint256)",
                        "value": {
                            "pairs": [
                                {
                                    "key": "0x6f568d09346bebf60c743b4600b1ecc2d744e9b7",
                                    "value": {
                                        "current": "1",
                                        "prev": "2",
                                        "typeTag": 1
                                    }
                                },
                                {
                                    "key": "0xbb4fbee43ec7c4067b91edcb62a3fd44ef22621b",
                                    "value": {
                                        "current": "4",
                                        "prev": "3",
                                        "typeTag": 1
                                    }
                                }
                            ],
                            "typeTag": 4
                        }
                    },
                    {
                        "name": "_packedOwnerships",
                        "type": "mapping(uint256 => uint256)",
                        "value": {
                            "pairs": [
                                {
                                    "key": "9637",
                                    "value": {
                                        "current": "53919893336718916388736960475442706226330328939439646319252047290907",
                                        "prev": "53919893336718802649861306936181062598273765537398432919962805135799",
                                        "typeTag": 1
                                    }
                                }
                            ],
                            "typeTag": 4
                        }
                    }
                ]
            }
        ]
    }
}