{
    "balance_change": {
        "balanceChanges": [
            {
                "account": "0x0000000000000000000000000000000000000000",
                "assets": [
                    {
                        "address": "0xef920c1df72b8a1e48e976ca78e09fe35bfc6f38",
                        "amount": "1",
                        "iconUrl": "",
                        "isERC1155": false,
                        "isERC721": true,
                        "sign": false,
                        "tokenID": "8846",
                        "value": ""
                    }
                ]
            },
            {
                "account": "0x38b3e26538ddbcbb4f616403565cc1818492378e",
                "assets": [
                    {
                        "address": "0xef920c1df72b8a1e48e976ca78e09fe35bfc6f38",
                        "amount": "1",
                        "iconUrl": "",
                        "isERC1155": false,
                        "isERC721": true,
                        "sign": true,
                        "tokenID": "8846",
                        "value": ""
                    }
                ]
            }
        ]
    },
    "profile": {
        "basic_info": {
            "baseFee": "82.945243964",
            "blockNumber": 13703377,
            "callData": "0xc634d032000000000000000000000000000000000000000000000000000000000000228e",
            "debugEnable": true,
            "errorInfo": "",
            "eventCount": 1,
            "feeRecipient": "0xea674fdde714fd979de3edf0f56aa9716b898ec8",
            "formatValue": "0",
            "gasLimit": 235650,
            "gasPrice": "110.078570608",
            "gasUsed": 157100,
            "intTxnCount": 1,
            "internalRevert": false,
            "internalRevertMessage": "",
            "isContractCreation": false,
            "isFlashloan": false,
            "maxFee": "110.078570608",
            "nonce": 20,
            "overwritedBlockNumber": -1,
            "priorityFee": "110.078570608",
            "receiver": "0xef920c1df72b8a1e48e976ca78e09fe35bfc6f38",
            "revertMessage": "",
            "sender": "0x38b3e26538ddbcbb4f616403565cc1818492378e",
            "simulationEnable": true,
            "sourceTxnHash": "0x1992355752d6c15d1a9f62a83fd3e6f67c0daba213fda9dbc1b891b6277ad013",
            "status": true,
            "timestamp": "2021-11-28T16:15:27Z",
            "transactionFee": "0.0172933434425168",
            "txnHash": "0x1992355752d6c15d1a9f62a83fd3e6f67c0daba213fda9dbc1b891b6277ad013",
            "txnIndex": 93,
            "type": 2,
            "value": "0"
        },
        "fund_flow": [
            {
                "amount": "1",
                "from": "0x0000000000000000000000000000000000000000",
                "id": 1,
                "isERC1155": false,
                "isERC721": true,
                "isReverted": false,
                "order": 1,
                "to": "0x38b3e26538ddbcbb4f616403565cc1818492378e",
                "token": "0xef920c1df72b8a1e48e976ca78e09fe35bfc6f38",
                "tokenID": "8846"
            }
        ],
        "token_infos": [
            {
                "address": "0xc02aaa39b223fe8d0a0e5c4f27ead9083c756cc2",
                "decimals": 18
            },
            {
                "address": "0xeeeeeeeeeeeeeeeeeeeeeeeeeeeeeeeeeeeeeeee",
                "decimals": 18
            }
        ]
    },
    "address_label": {
        "labels": [
            {
                "address": "0x0000000000000000000000000000000000000004",
                "label": "Precompiled"
            },
            {
                "address": "0xeeeeeeeeeeeeeeeeeeeeeeeeeeeeeeeeeeeeeeee",
                "label": "Ether"
            },
            {
                "address": "0xef920c1df72b8a1e48e976ca78e09fe35bfc6f38",
                "label": "SSoW Security Orcas (SO)"
            },
            {
                "address": "0x88091012eedf8dba59d08e27ed7b22008f5d6fe5",
                "label": "Secret Society of Whales"
            },
            {
                "address": "0x0000000000000000000000000000000000000001",
                "label": "Precompiled"
            },
            {
                "address": "0x0000000000000000000000000000000000000002",
                "label": "Precompiled"
            },
            {
                "address": "0x0000000000000000000000000000000000000003",
                "label": "Precompiled"
            }
        ]
    },
    "trace": {
        "accountLabels": null,
        "dataMap": {
            "-1": {
                "invocation": {
                    "address": "0x38b3e26538ddbcbb4f616403565cc1818492378e",
                    "callData": "",
                    "decodedMethod": null,
                    "errorInfo": "",
                    "fromAddress": "",
                    "gasUsed": 0,
                    "id": -1,
                    "methodDecoded": false,
                    "operation": "",
                    "output": "",
                    "revert": false,
                    "revertMessage": "",
                    "selector": "",
                    "status": false,
                    "value": ""
                },
                "nodeType": 0
            },
            "0": {
                "invocation": {
                    "address": "0xef920c1df72b8a1e48e976ca78e09fe35bfc6f38",
                    "callData": "0x000000000000000000000000000000000000000000000000000000000000228e",
                    "decodedMethod": {
                        "callParams": [
                            {
                                "name": "tokenId",
                                "type": "uint256",
                                "value": "8,846"
                            }
                        ],
                        "constructorArguments": "",
                        "name": "mintToken",
                        "returnParams": [],
                        "signature": "mintToken(uint256)"
                    },
                    "errorInfo": "",
                    "fromAddress": "0x38b3e26538ddbcbb4f616403565cc1818492378e",
                    "gasUsed": 157100,
                    "id": 0,
                    "methodDecoded": true,
                    "operation": "CALL",
                    "output": "",
                    "revert": false,
                    "revertMessage": "",
                    "selector": "0xc634d032",
                    "status": true,
                    "value": "0"
                },
                "nodeType": 0
            },
            "1": {
                "invocation": {
                    "address": "0x88091012eedf8dba59d08e27ed7b22008f5d6fe5",
                    "callData": "0x000000000000000000000000000000000000000000000000000000000000228e",
                    "decodedMethod": {
                        "callParams": [
                            {
                                "name": "tokenId",
                                "type": "uint256",
                                "value": "8,846"
                            }
                        ],
                        "constructorArguments": "",
                        "name": "ownerOf",
                        "returnParams": [
                            {
                                "name": "",
                                "type": "address",
                                "value": "0x38b3e26538ddbcbb4f616403565cc1818492378e"
                            }
                        ],
                        "signature": "ownerOf(uint256)"
                    },
                    "errorInfo": "",
                    "fromAddress": "0xef920c1df72b8a1e48e976ca78e09fe35bfc6f38",
                    "gasUsed": 3027,
                    "id": 1,
                    "methodDecoded": true,
                    "operation": "STATICCALL",
                    "output": "0x00000000000000000000000038b3e26538ddbcbb4f616403565cc1818492378e",
                    "revert": false,
                    "revertMessage": "",
                    "selector": "0x6352211e",
                    "status": true,
                    "value": "0"
                },
                "nodeType": 0
            },
            "2": {
                "event": {
                    "contract": "0xef920c1df72b8a1e48e976ca78e09fe35bfc6f38",
                    "decodedLog": {
                        "name": "Transfer",
                        "params": [
                            {
                                "name": "from",
                                "type": "address",
                                "value": "0x0000000000000000000000000000000000000000"
                            },
                            {
                                "name": "to",
                                "type": "address",
                                "value": "0x38b3e26538ddbcbb4f616403565cc1818492378e"
                            },
                            {
                                "decimalAvailable": true,
                                "name": "tokenId",
                                "type": "uint256",
                                "value": "8,846"
                            }
                        ],
                        "signature": "Transfer(address,address,uint256)"
                    },
                    "id": 2,
                    "logData": "0x",
                    "logDecoded": true,
                    "operation": "EVENT",
                    "revert": false,
                    "status": true,
                    "topics": [
                        "0xddf252ad1be2c89b69c2b068fc378daa952ba7f163c4a11628f55a4df523b3ef",
                        "0x0000000000000000000000000000000000000000000000000000000000000000",
                        "0x00000000000000000000000038b3e26538ddbcbb4f616403565cc1818492378e",
                        "0x000000000000000000000000000000000000000000000000000000000000228e"
                    ]
                },
                "nodeType": 1
            }
        },
        "gasFlame": [
            {
                "children": [
                    {
                        "children": [
                            {
                                "children": [],
                                "depth": 0,
                                "name": "Initial Gas",
                                "value": 21216
                            },
                            {
                                "children": [
                                    {
                                        "children": [],
                                        "depth": 1,
                                        "name": "ownerOf",
                                        "value": 3027
                                    }
                                ],
                                "depth": 0,
                                "name": "Executed Gas",
                                "value": 135884
                            }
                        ],
                        "depth": -1,
                        "name": "Actual Gas Used",
                        "value": 157100
                    },
                    {
                        "children": [],
                        "depth": -1,
                        "name": "Refunded Gas",
                        "value": 0
                    }
                ],
                "depth": -2,
                "name": "Total Gas",
                "value": 157100
            }
        ],
        "isConfirmed": true,
        "mainTrace": [
            {
                "children": [
                    {
                        "children": [
                            {
                                "children": [],
                                "depth": 1,
                                "id": 1,
                                "order": 1
                            },
                            {
                                "children": [],
                                "depth": 1,
                                "id": 2,
                                "order": 2
                            }
                        ],
                        "depth": 0,
                        "id": 0,
                        "order": 0
                    }
                ],
                "depth": -1,
                "id": -1,
                "order": -1
            }
        ],
        "mainTraceNodeCount": 3,
        "parentIdMap": {
            "0": -1,
            "1": 0,
            "2": 0
        },
        "tidyTrace": [
            {
                "children": [
                    {
                        "children": [
                            {
                                "children": [],
                                "depth": 1,
                                "id": 2,
                                "order": 2
                            }
                        ],
                        "depth": 0,
                        "id": 0,
                        "order": 0
                    }
                ],
                "depth": -1,
                "id": -1,
                "order": -1
            }
        ],
        "tidyTraceNodeCount": 2
    },
    "state_change": {
        "stateChanges": [
            {
                "address": "0xef920c1df72b8a1e48e976ca78e09fe35bfc6f38",
                "erc": "ERC-721",
                "slots": [
                    {
                        "current": "0x000000000000000000000000000000000000000000000000000000000000228e",
                        "key": "0x17bd75f01a3f4217f41ff9969e841fd90881ffa6d1e0e9808e5e5706fc13a5f7",
                        "prev": "0x0000000000000000000000000000000000000000000000000000000000000000"
                    },
                    {
                        "current": "0x0000000000000000000000000000000000000000000000000000000000000001",
                        "key": "0xdd2f1e9741bb16471f3a72198826696efc51985dbd52f215be9fa5343cfdae55",
                        "prev": "0x0000000000000000000000000000000000000000000000000000000000000000"
                    },
                    {
                        "current": "0x00000000000000000000000038b3e26538ddbcbb4f616403565cc1818492378e",
                        "key": "0x5ab3de25567984ebc7911a9f44f1473f220d0c7c33bc97f06a6e69185ca2c060",
                        "prev": "0x0000000000000000000000000000000000000000000000000000000000000000"
                    },
                    {
                        "current": "0x00000000000000000000000000000000000000000000000000000000000006b2",
                        "key": "0xf748f350933f79b34b9fae27e42ef6d73b957c453dc2f8d626a35f8dcb53ee78",
                        "prev": "0x0000000000000000000000000000000000000000000000000000000000000000"
                    },
                    {
                        "current": "0x00000000000000000000000000000000000000000000000000000000000006b3",
                        "key": "0x0000000000000000000000000000000000000000000000000000000000000008",
                        "prev": "0x00000000000000000000000000000000000000000000000000000000000006b2"
                    },
                    {
                        "current": "0x000000000000000000000000000000000000000000000000000000000000228e",
                        "key": "0xf3f7a9fe364faab93b216da50a3214154f22a0a2b415b23a84c8169e8b637595",
                        "prev": "0x0000000000000000000000000000000000000000000000000000000000000000"
                    }
                ],
                "storageVariables": [
                    {
                        "name": "_ownedTokens",
                        "type": "mapping(address => mapping(uint256 => uint256))",
                        "value": {
                            "pairs": [
                                {
                                    "key": "0x38b3e26538ddbcbb4f616403565cc1818492378e",
                                    "value": {
                                        "pairs": [
                                            {
                                                "key": "0",
                                                "value": {
                                                    "current": "8846",
                                                    "prev": "0",
                                                    "typeTag": 1
                                                }
                                            }
                                        ],
                                        "typeTag": 4
                                    }
                                }
                            ],
                            "typeTag": 4
                        }
                    },
                    {
                        "name": "_balances",
                        "type": "mapping(address => uint256)",
                        "value": {
                            "pairs": [
                                {
                                    "key": "0x38b3e26538ddbcbb4f616403565cc1818492378e",
                                    "value": {
                                        "current": "1",
                                        "prev": "0",
                                        "typeTag": 1
                                    }
                                }
                            ],
                            "typeTag": 4
                        }
                    },
                    {
                        "name": "_owners",
                        "type": "mapping(uint256 => address)",
                        "value": {
                            "pairs": [
                                {
                                    "key": "8846",
                                    "value": {
                                        "current": "0x38b3e26538ddbcbb4f616403565cc1818492378e",
                                        "prev": "0x0000000000000000000000000000000000000000",
                                        "typeTag": 1
                                    }
                                }
                            ],
                            "typeTag": 4
                        }
                    },
                    {
                        "name": "_allTokensIndex",
                        "type": "mapping(uint256 => uint256)",
                        "value": {
                            "pairs": [
                                {
                                    "key": "8846",
                                    "value": {
                                        "current": "1714",
                                        "prev": "0",
                                        "typeTag": 1
                                    }
                                }
                            ],
                            "typeTag": 4
                        }
                    },
                    {
                        "name": "_allTokens",
                        "type": "uint256[]",
                        "value": {
                            "elemType": "uint256",
                            "elems": [
                                {
                                    "index": 1714,
                                    "value": {
                                        "current": "8846",
                                        "prev": "0",
                                        "typeTag": 1
                                    }
                                }
                            ],
                            "typeTag": 2
                        }
                    }
                ]
            }
        ]
    }
}