{
    "balance_change": {
        "balanceChanges": [
            {
                "account": "0x3eae56964b8ce1cb52f395444c0f89577bd6bb49",
                "assets": [
                    {
                        "address": "0xed04915c23f00a313a544955524eb7dbd823143d",
                        "amount": "457,959",
                        "iconUrl": "https://assets.blocksec.com/icon/adfcd068718fba6dc62933ae543324fc0ccb2ca20aededc5c80f3f0fec04ece1.png",
                        "isERC1155": false,
                        "isERC721": false,
                        "sign": false,
                        "value": "9708.730800000000043"
                    }
                ]
            },
            {
                "account": "0x07118821cc42b2a750a49395aa3d69b9cf9e3cd1",
                "assets": [
                    {
                        "address": "0xed04915c23f00a313a544955524eb7dbd823143d",
                        "amount": "457,959",
                        "iconUrl": "https://assets.blocksec.com/icon/adfcd068718fba6dc62933ae543324fc0ccb2ca20aededc5c80f3f0fec04ece1.png",
                        "isERC1155": false,
                        "isERC721": false,
                        "sign": true,
                        "value": "9708.730800000000043"
                    }
                ]
            }
        ]
    },
    "profile": {
        "basic_info": {
            "baseFee": "30.514930114",
            "blockNumber": 18558489,
            "callData": "0xa9059cbb00000000000000000000000007118821cc42b2a750a49395aa3d69b9cf9e3cd1000000000000000000000000000000000000000000000000000029a6b05a0700",
            "debugEnable": true,
            "errorInfo": "",
            "eventCount": 1,
            "feeRecipient": "0x388c818ca8b9251b393131c08a736a67ccb19297",
            "formatValue": "0",
            "gasLimit": 98992,
            "gasPrice": "32.579297091",
            "gasUsed": 53992,
            "intTxnCount": 0,
            "internalRevert": false,
            "internalRevertMessage": "",
            "isContractCreation": false,
            "isFlashloan": false,
            "maxFee": "137.954306957",
            "nonce": 20706,
            "overwritedBlockNumber": -1,
            "priorityFee": "2.064366977",
            "receiver": "0xed04915c23f00a313a544955524eb7dbd823143d",
            "revertMessage": "",
            "sender": "0x3eae56964b8ce1cb52f395444c0f89577bd6bb49",
            "simulationEnable": true,
            "sourceTxnHash": "0x191df81d6db3c0901bc0b577b7cb715bd9122523bc38ee756bb9cca4a239d9cc",
            "status": true,
            "timestamp": "2023-11-12T21:23:23Z",
            "transactionFee": "0.001759021408537272",
            "txnHash": "0x191df81d6db3c0901bc0b577b7cb715bd9122523bc38ee756bb9cca4a239d9cc",
            "txnIndex": 31,
            "type": 2,
            "value": "0"
        },
        "fund_flow": [
            {
                "amount": "457,959",
                "from": "0x3eae56964b8ce1cb52f395444c0f89577bd6bb49",
                "id": 1,
                "isERC1155": false,
                "isERC721": false,
                "isReverted": false,
                "order": 1,
                "to": "0x07118821cc42b2a750a49395aa3d69b9cf9e3cd1",
                "token": "0xed04915c23f00a313a544955524eb7dbd823143d"
            }
        ],
        "token_infos": [
            {
                "address": "0xc02aaa39b223fe8d0a0e5c4f27ead9083c756cc2",
                "decimals": 18
            },
            {
                "address": "0xed04915c23f00a313a544955524eb7dbd823143d",
                "decimals": 8
            },
            {
                "address": "0xeeeeeeeeeeeeeeeeeeeeeeeeeeeeeeeeeeeeeeee",
                "decimals": 18
            }
        ]
    },
    "address_label": {
        "labels": [
            {
                "address": "0x0000000000000000000000000000000000000003",
                "label": "Precompiled"
            },
            {
                "address": "0x0000000000000000000000000000000000000004",
                "label": "Precompiled"
            },
            {
                "address": "0xeeeeeeeeeeeeeeeeeeeeeeeeeeeeeeeeeeeeeeee",
                "label": "Ether"
            },
            {
                "address": "0xed04915c23f00a313a544955524eb7dbd823143d",
                "label": "Alchemy Pay: ACH Token"
            },
            {
                "address": "0x388c818ca8b9251b393131c08a736a67ccb19297",
                "label": "LidoExecutionLayerRewardsVault"
            },
            {
                "address": "0x0000000000000000000000000000000000000001",
                "label": "Precompiled"
            },
            {
                "address": "0x0000000000000000000000000000000000000002",
                "label": "Precompiled"
            }
        ]
    },
    "trace": {
        "accountLabels": null,
        "dataMap": {
            "-1": {
                "invocation": {
                    "address": "0x3eae56964b8ce1cb52f395444c0f89577bd6bb49",
                    "callData": "",
                    "decodedMethod": null,
                    "errorInfo": "",
                    "fromAddress": "",
                    "gasUsed": 0,
                    "id": -1,
                    "methodDecoded": false,
                    "operation": "",
                    "output": "",
                    "revert": false,
                    "revertMessage": "",
                    "selector": "",
                    "status": false,
                    "value": ""
                },
                "nodeType": 0
            },
            "0": {
                "invocation": {
                    "address": "0xed04915c23f00a313a544955524eb7dbd823143d",
                    "callData": "0x00000000000000000000000007118821cc42b2a750a49395aa3d69b9cf9e3cd1000000000000000000000000000000000000000000000000000029a6b05a0700",
                    "decodedMethod": {
                        "callParams": [
                            {
                                "name": "to",
                                "type": "address",
                                "value": "0x07118821cc42b2a750a49395aa3d69b9cf9e3cd1"
                            },
                            {
                                "decimalAvailable": true,
                                "name": "value",
                                "type": "uint256",
                                "value": "45,795,900,000,000"
                            }
                        ],
                        "constructorArguments": "",
                        "name": "transfer",
                        "returnParams": [
                            {
                                "name": "",
                                "type": "bool",
                                "value": true
                            }
                        ],
                        "signature": "transfer(address,uint256)"
                    },
                    "errorInfo": "",
                    "fromAddress": "0x3eae56964b8ce1cb52f395444c0f89577bd6bb49",
                    "gasUsed": 53992,
                    "id": 0,
                    "methodDecoded": true,
                    "operation": "CALL",
                    "output": "0x0000000000000000000000000000000000000000000000000000000000000001",
                    "revert": false,
                    "revertMessage": "",
                    "selector": "0xa9059cbb",
                    "status": true,
                    "value": "0"
                },
                "nodeType": 0
            },
            "1": {
                "event": {
                    "contract": "0xed04915c23f00a313a544955524eb7dbd823143d",
                    "decodedLog": {
                        "name": "Transfer",
                        "params": [
                            {
                                "name": "from",
                                "type": "address",
                                "value": "0x3eae56964b8ce1cb52f395444c0f89577bd6bb49"
                            },
                            {
                                "name": "to",
                                "type": "address",
                                "value": "0x07118821cc42b2a750a49395aa3d69b9cf9e3cd1"
                            },
                            {
                                "decimalAvailable": true,
                                "name": "value",
                                "type": "uint256",
                                "value": "45,795,900,000,000"
                            }
                        ],
                        "signature": "Transfer(address,address,uint256)"
                    },
                    "id": 1,
                    "logData": "0x000000000000000000000000000000000000000000000000000029a6b05a0700",
                    "logDecoded": true,
                    "operation": "EVENT",
                    "revert": false,
                    "status": true,
                    "topics": [
                        "0xddf252ad1be2c89b69c2b068fc378daa952ba7f163c4a11628f55a4df523b3ef",
                        "0x0000000000000000000000003eae56964b8ce1cb52f395444c0f89577bd6bb49",
                        "0x00000000000000000000000007118821cc42b2a750a49395aa3d69b9cf9e3cd1"
                    ]
                },
                "nodeType": 1
            }
        },
        "gasFlame": [
            {
                "children": [
                    {
                        "children": [
                            {
                                "children": [],
                                "depth": 0,
                                "name": "Initial Gas",
                                "value": 21620
                            },
                            {
                                "children": [],
                                "depth": 0,
                                "name": "Executed Gas",
                                "value": 32372
                            }
                        ],
                        "depth": -1,
                        "name": "Actual Gas Used",
                        "value": 53992
                    },
                    {
                        "children": [],
                        "depth": -1,
                        "name": "Refunded Gas",
                        "value": 0
                    }
                ],
                "depth": -2,
                "name": "Total Gas",
                "value": 53992
            }
        ],
        "isConfirmed": true,
        "mainTrace": [
            {
                "children": [
                    {
                        "children": [
                            {
                                "children": [],
                                "depth": 1,
                                "id": 1,
                                "order": 1
                            }
                        ],
                        "depth": 0,
                        "id": 0,
                        "order": 0
                    }
                ],
                "depth": -1,
                "id": -1,
                "order": -1
            }
        ],
        "mainTraceNodeCount": 2,
        "parentIdMap": {
            "0": -1,
            "1": 0
        },
        "tidyTrace": [
            {
                "children": [
                    {
                        "children": [
                            {
                                "children": [],
                                "depth": 1,
                                "id": 1,
                                "order": 1
                            }
                        ],
                        "depth": 0,
                        "id": 0,
                        "order": 0
                    }
                ],
                "depth": -1,
                "id": -1,
                "order": -1
            }
        ],
        "tidyTraceNodeCount": 2
    },
    "state_change": {
        "stateChanges": [
            {
                "address": "0xed04915c23f00a313a544955524eb7dbd823143d",
                "erc": "ERC-20",
                "slots": [
                    {
                        "current": "0x0000000000000000000000000000000000000000000000000000000000002710",
                        "key": "0x57f0065f08d5558635203e6834d84deefc1052dae69457926679f3fb016795b6",
                        "prev": "0x000000000000000000000000000000000000000000000000000029a6b05a2e10"
                    },
                    {
                        "current": "0x000000000000000000000000000000000000000000000000000029a6b05a0700",
                        "key": "0x2a91532def06ef0abda81fcc1ab9472f9a8efb8ddf54c34bc5597ed30b94c168",
                        "prev": "0x0000000000000000000000000000000000000000000000000000000000000000"
                    }
                ],
                "storageVariables": [
                    {
                        "name": "_balances",
                        "type": "mapping(address => uint256)",
                        "value": {
                            "pairs": [
                                {
                                    "key": "0x07118821cc42b2a750a49395aa3d69b9cf9e3cd1",
                                    "value": {
                                        "current": "45795900000000",
                                        "prev": "0",
                                        "typeTag": 1
                                    }
                                },
                                {
                                    "key": "0x3eae56964b8ce1cb52f395444c0f89577bd6bb49",
                                    "value": {
                                        "current": "10000",
                                        "prev": "45795900010000",
                                        "typeTag": 1
                                    }
                                }
                            ],
                            "typeTag": 4
                        }
                    }
                ]
            }
        ]
    }
}