{
    "balance_change": {
        "balanceChanges": [
            {
                "account": "0xc129f81e11403859a6ea7567a9cedebc349ba2d9",
                "assets": [
                    {
                        "address": "0xf4d2888d29d722226fafa5d9b24f9164c092421e",
                        "amount": "11,334.318",
                        "iconUrl": "",
                        "isERC1155": false,
                        "isERC721": false,
                        "sign": false,
                        "value": "28841.79645"
                    },
                    {
                        "address": "0xb4ebc2c371182deea04b2264b9ff5ac4f0159c69",
                        "amount": "7,933.600793994085028423",
                        "iconUrl": "",
                        "isERC1155": false,
                        "isERC721": false,
                        "sign": true,
                        "value": ""
                    }
                ]
            },
            {
                "account": "0xb4ebc2c371182deea04b2264b9ff5ac4f0159c69",
                "assets": [
                    {
                        "address": "0xf4d2888d29d722226fafa5d9b24f9164c092421e",
                        "amount": "11,334.318",
                        "iconUrl": "",
                        "isERC1155": false,
                        "isERC721": false,
                        "sign": true,
                        "value": "28841.79645"
                    }
                ]
            },
            {
                "account": "0x0000000000000000000000000000000000000000",
                "assets": [
                    {
                        "address": "0xb4ebc2c371182deea04b2264b9ff5ac4f0159c69",
                        "amount": "7,933.600793994085028423",
                        "iconUrl": "",
                        "isERC1155": false,
                        "isERC721": false,
                        "sign": false,
                        "value": ""
                    }
                ]
            }
        ]
    },
    "profile": {
        "basic_info": {
            "baseFee": "49.042533747",
            "blockNumber": 14195306,
            "callData": "0xb6b55f250000000000000000000000000000000000000000000002666f429935a3eb0000",
            "debugEnable": true,
            "errorInfo": "",
            "eventCount": 3,
            "feeRecipient": "0x52bc44d5378309ee2abf1539bf71de1b7d7be3b5",
            "formatValue": "0",
            "gasLimit": 118402,
            "gasPrice": "50.542533747",
            "gasUsed": 113602,
            "intTxnCount": 10,
            "internalRevert": false,
            "internalRevertMessage": "",
            "isContractCreation": false,
            "isFlashloan": false,
            "maxFee": "71.692652377",
            "nonce": 51,
            "overwritedBlockNumber": -1,
            "priorityFee": "1.5",
            "receiver": "0xb4ebc2c371182deea04b2264b9ff5ac4f0159c69",
            "revertMessage": "",
            "sender": "0xc129f81e11403859a6ea7567a9cedebc349ba2d9",
            "simulationEnable": true,
            "sourceTxnHash": "0x1a31b8bd79bee4448cb5429515fc69626aea20f1fadcbc494ce70ff2a8061b46",
            "status": true,
            "timestamp": "2022-02-13T03:24:18Z",
            "transactionFee": "0.005741732918726694",
            "txnHash": "0x1a31b8bd79bee4448cb5429515fc69626aea20f1fadcbc494ce70ff2a8061b46",
            "txnIndex": 135,
            "type": 2,
            "value": "0"
        },
        "fund_flow": [
            {
                "amount": "11,334.318",
                "from": "0xc129f81e11403859a6ea7567a9cedebc349ba2d9",
                "id": 1,
                "isERC1155": false,
                "isERC721": false,
                "isReverted": false,
                "order": 1,
                "to": "0xb4ebc2c371182deea04b2264b9ff5ac4f0159c69",
                "token": "0xf4d2888d29d722226fafa5d9b24f9164c092421e"
            },
            {
                "amount": "7,933.600793994085028423",
                "from": "0x0000000000000000000000000000000000000000",
                "id": 2,
                "isERC1155": false,
                "isERC721": false,
                "isReverted": false,
                "order": 2,
                "to": "0xc129f81e11403859a6ea7567a9cedebc349ba2d9",
                "token": "0xb4ebc2c371182deea04b2264b9ff5ac4f0159c69"
            }
        ],
        "token_infos": [
            {
                "address": "0xb4ebc2c371182deea04b2264b9ff5ac4f0159c69",
                "decimals": 18
            },
            {
                "address": "0xc02aaa39b223fe8d0a0e5c4f27ead9083c756cc2",
                "decimals": 18
            },
            {
                "address": "0xf4d2888d29d722226fafa5d9b24f9164c092421e",
                "decimals": 18
            },
            {
                "address": "0xeeeeeeeeeeeeeeeeeeeeeeeeeeeeeeeeeeeeeeee",
                "decimals": 18
            }
        ]
    },
    "address_label": {
        "labels": [
            {
                "address": "0xc0f976db87230f21e2d364431e1818bfa7c572e4",
                "label": "StrategyLooksStaking"
            },
            {
                "address": "0x0000000000000000000000000000000000000001",
                "label": "Precompiled"
            },
            {
                "address": "0xeeeeeeeeeeeeeeeeeeeeeeeeeeeeeeeeeeeeeeee",
                "label": "Ether"
            },
            {
                "address": "0x465a790b428268196865a3ae2648481ad7e0d3b1",
                "label": "LooksRare: Token Distributor"
            },
            {
                "address": "0xb4ebc2c371182deea04b2264b9ff5ac4f0159c69",
                "label": "pickling LooksRare Token (pLOOKS)"
            },
            {
                "address": "0xbcd7254a1d759efa08ec7c3291b2e85c5dcc12ce",
                "label": "LooksRare: Fee Sharing"
            },
            {
                "address": "0xf4d2888d29d722226fafa5d9b24f9164c092421e",
                "label": "LooksRare: LOOKS Token"
            },
            {
                "address": "0x6847259b2b3a4c17e7c43c54409810af48ba5210",
                "label": "ControllerV4"
            },
            {
                "address": "0x0000000000000000000000000000000000000002",
                "label": "Precompiled"
            },
            {
                "address": "0x0000000000000000000000000000000000000004",
                "label": "Precompiled"
            },
            {
                "address": "0x0000000000000000000000000000000000000003",
                "label": "Precompiled"
            }
        ]
    },
    "trace": {
        "accountLabels": null,
        "dataMap": {
            "-1": {
                "invocation": {
                    "address": "0xc129f81e11403859a6ea7567a9cedebc349ba2d9",
                    "callData": "",
                    "decodedMethod": null,
                    "errorInfo": "",
                    "fromAddress": "",
                    "gasUsed": 0,
                    "id": -1,
                    "methodDecoded": false,
                    "operation": "",
                    "output": "",
                    "revert": false,
                    "revertMessage": "",
                    "selector": "",
                    "status": false,
                    "value": ""
                },
                "nodeType": 0
            },
            "0": {
                "invocation": {
                    "address": "0xb4ebc2c371182deea04b2264b9ff5ac4f0159c69",
                    "callData": "0x0000000000000000000000000000000000000000000002666f429935a3eb0000",
                    "decodedMethod": {
                        "callParams": [
                            {
                                "name": "_amount",
                                "type": "uint256",
                                "value": "11,334,318,000,000,000,000,000"
                            }
                        ],
                        "constructorArguments": "",
                        "name": "deposit",
                        "returnParams": [],
                        "signature": "deposit(uint256)"
                    },
                    "errorInfo": "",
                    "fromAddress": "0xc129f81e11403859a6ea7567a9cedebc349ba2d9",
                    "gasUsed": 113602,
                    "id": 0,
                    "methodDecoded": true,
                    "operation": "CALL",
                    "output": "",
                    "revert": false,
                    "revertMessage": "",
                    "selector": "0xb6b55f25",
                    "status": true,
                    "value": "0"
                },
                "nodeType": 0
            },
            "1": {
                "invocation": {
                    "address": "0x6847259b2b3a4c17e7c43c54409810af48ba5210",
                    "callData": "0x000000000000000000000000f4d2888d29d722226fafa5d9b24f9164c092421e",
                    "decodedMethod": {
                        "callParams": [
                            {
                                "name": "_token",
                                "type": "address",
                                "value": "0xf4d2888d29d722226fafa5d9b24f9164c092421e"
                            }
                        ],
                        "constructorArguments": "",
                        "name": "balanceOf",
                        "returnParams": [
                            {
                                "decimalAvailable": true,
                                "name": "",
                                "type": "uint256",
                                "value": "2,117,585,293,483,500,599,020,056"
                            }
                        ],
                        "signature": "balanceOf(address)"
                    },
                    "errorInfo": "",
                    "fromAddress": "0xb4ebc2c371182deea04b2264b9ff5ac4f0159c69",
                    "gasUsed": 34371,
                    "id": 1,
                    "methodDecoded": true,
                    "operation": "STATICCALL",
                    "output": "0x00000000000000000000000000000000000000000001c06a875e2f83dd488a18",
                    "revert": false,
                    "revertMessage": "",
                    "selector": "0x70a08231",
                    "status": true,
                    "value": "0"
                },
                "nodeType": 0
            },
            "10": {
                "event": {
                    "contract": "0xf4d2888d29d722226fafa5d9b24f9164c092421e",
                    "decodedLog": {
                        "name": "Transfer",
                        "params": [
                            {
                                "name": "from",
                                "type": "address",
                                "value": "0xc129f81e11403859a6ea7567a9cedebc349ba2d9"
                            },
                            {
                                "name": "to",
                                "type": "address",
                                "value": "0xb4ebc2c371182deea04b2264b9ff5ac4f0159c69"
                            },
                            {
                                "decimalAvailable": true,
                                "name": "value",
                                "type": "uint256",
                                "value": "11,334,318,000,000,000,000,000"
                            }
                        ],
                        "signature": "Transfer(address,address,uint256)"
                    },
                    "id": 10,
                    "logData": "0x0000000000000000000000000000000000000000000002666f429935a3eb0000",
                    "logDecoded": true,
                    "operation": "EVENT",
                    "revert": false,
                    "status": true,
                    "topics": [
                        "0xddf252ad1be2c89b69c2b068fc378daa952ba7f163c4a11628f55a4df523b3ef",
                        "0x000000000000000000000000c129f81e11403859a6ea7567a9cedebc349ba2d9",
                        "0x000000000000000000000000b4ebc2c371182deea04b2264b9ff5ac4f0159c69"
                    ]
                },
                "nodeType": 1
            },
            "11": {
                "event": {
                    "contract": "0xf4d2888d29d722226fafa5d9b24f9164c092421e",
                    "decodedLog": {
                        "name": "Approval",
                        "params": [
                            {
                                "name": "owner",
                                "type": "address",
                                "value": "0xc129f81e11403859a6ea7567a9cedebc349ba2d9"
                            },
                            {
                                "name": "spender",
                                "type": "address",
                                "value": "0xb4ebc2c371182deea04b2264b9ff5ac4f0159c69"
                            },
                            {
                                "decimalAvailable": true,
                                "name": "value",
                                "type": "uint256",
                                "value": "115,792,089,237,316,195,423,570,985,008,687,907,853,269,984,665,640,563,980,520,023,663,718,472,474,333"
                            }
                        ],
                        "signature": "Approval(address,address,uint256)"
                    },
                    "id": 11,
                    "logData": "0xfffffffffffffffffffffffffffffffffffffffffffff384fd0b2b88603ddedd",
                    "logDecoded": true,
                    "operation": "EVENT",
                    "revert": false,
                    "status": true,
                    "topics": [
                        "0x8c5be1e5ebec7d5bd14f71427d1e84f3dd0314c0f7b2291e5b200ac8c7c3b925",
                        "0x000000000000000000000000c129f81e11403859a6ea7567a9cedebc349ba2d9",
                        "0x000000000000000000000000b4ebc2c371182deea04b2264b9ff5ac4f0159c69"
                    ]
                },
                "nodeType": 1
            },
            "12": {
                "invocation": {
                    "address": "0xf4d2888d29d722226fafa5d9b24f9164c092421e",
                    "callData": "0x000000000000000000000000b4ebc2c371182deea04b2264b9ff5ac4f0159c69",
                    "decodedMethod": {
                        "callParams": [
                            {
                                "name": "account",
                                "type": "address",
                                "value": "0xb4ebc2c371182deea04b2264b9ff5ac4f0159c69"
                            }
                        ],
                        "constructorArguments": "",
                        "name": "balanceOf",
                        "returnParams": [
                            {
                                "decimalAvailable": true,
                                "name": "",
                                "type": "uint256",
                                "value": "11,681,633,241,392,759,466,144"
                            }
                        ],
                        "signature": "balanceOf(address)"
                    },
                    "errorInfo": "",
                    "fromAddress": "0xb4ebc2c371182deea04b2264b9ff5ac4f0159c69",
                    "gasUsed": 539,
                    "id": 12,
                    "methodDecoded": true,
                    "operation": "STATICCALL",
                    "output": "0x000000000000000000000000000000000000000000000279433a3519ea6468a0",
                    "revert": false,
                    "revertMessage": "",
                    "selector": "0x70a08231",
                    "status": true,
                    "value": "0"
                },
                "nodeType": 0
            },
            "13": {
                "event": {
                    "contract": "0xb4ebc2c371182deea04b2264b9ff5ac4f0159c69",
                    "decodedLog": {
                        "name": "Transfer",
                        "params": [
                            {
                                "name": "from",
                                "type": "address",
                                "value": "0x0000000000000000000000000000000000000000"
                            },
                            {
                                "name": "to",
                                "type": "address",
                                "value": "0xc129f81e11403859a6ea7567a9cedebc349ba2d9"
                            },
                            {
                                "decimalAvailable": true,
                                "name": "value",
                                "type": "uint256",
                                "value": "7,933,600,793,994,085,028,423"
                            }
                        ],
                        "signature": "Transfer(address,address,uint256)"
                    },
                    "id": 13,
                    "logData": "0x0000000000000000000000000000000000000000000001ae14d4101e7e745247",
                    "logDecoded": true,
                    "operation": "EVENT",
                    "revert": false,
                    "status": true,
                    "topics": [
                        "0xddf252ad1be2c89b69c2b068fc378daa952ba7f163c4a11628f55a4df523b3ef",
                        "0x0000000000000000000000000000000000000000000000000000000000000000",
                        "0x000000000000000000000000c129f81e11403859a6ea7567a9cedebc349ba2d9"
                    ]
                },
                "nodeType": 1
            },
            "2": {
                "invocation": {
                    "address": "0xc0f976db87230f21e2d364431e1818bfa7c572e4",
                    "callData": "0x",
                    "decodedMethod": {
                        "callParams": [],
                        "constructorArguments": "",
                        "name": "balanceOf",
                        "returnParams": [
                            {
                                "name": "",
                                "type": "uint256",
                                "value": "2,117,585,293,483,500,599,020,056"
                            }
                        ],
                        "signature": "balanceOf()"
                    },
                    "errorInfo": "",
                    "fromAddress": "0x6847259b2b3a4c17e7c43c54409810af48ba5210",
                    "gasUsed": 28759,
                    "id": 2,
                    "methodDecoded": true,
                    "operation": "STATICCALL",
                    "output": "0x00000000000000000000000000000000000000000001c06a875e2f83dd488a18",
                    "revert": false,
                    "revertMessage": "",
                    "selector": "0x722713f7",
                    "status": true,
                    "value": "0"
                },
                "nodeType": 0
            },
            "3": {
                "invocation": {
                    "address": "0xbcd7254a1d759efa08ec7c3291b2e85c5dcc12ce",
                    "callData": "0x000000000000000000000000c0f976db87230f21e2d364431e1818bfa7c572e4",
                    "decodedMethod": {
                        "callParams": [
                            {
                                "name": "",
                                "type": "address",
                                "value": "0xc0f976db87230f21e2d364431e1818bfa7c572e4"
                            }
                        ],
                        "constructorArguments": "",
                        "name": "userInfo",
                        "returnParams": [
                            {
                                "name": "shares",
                                "type": "uint256",
                                "value": "1,517,840,489,646,589,093,976,303"
                            },
                            {
                                "name": "userRewardPerTokenPaid",
                                "type": "uint256",
                                "value": "654,517,554,257,154"
                            },
                            {
                                "name": "rewards",
                                "type": "uint256",
                                "value": "0"
                            }
                        ],
                        "signature": "userInfo(address)"
                    },
                    "errorInfo": "",
                    "fromAddress": "0xc0f976db87230f21e2d364431e1818bfa7c572e4",
                    "gasUsed": 6793,
                    "id": 3,
                    "methodDecoded": true,
                    "operation": "STATICCALL",
                    "output": "0x00000000000000000000000000000000000000000001416a4c3dcdfffaad98ef00000000000000000000000000000000000000000000000000025347be521d020000000000000000000000000000000000000000000000000000000000000000",
                    "revert": false,
                    "revertMessage": "",
                    "selector": "0x1959a002",
                    "status": true,
                    "value": "0"
                },
                "nodeType": 0
            },
            "4": {
                "invocation": {
                    "address": "0x465a790b428268196865a3ae2648481ad7e0d3b1",
                    "callData": "0x000000000000000000000000bcd7254a1d759efa08ec7c3291b2e85c5dcc12ce",
                    "decodedMethod": {
                        "callParams": [
                            {
                                "name": "",
                                "type": "address",
                                "value": "0xbcd7254a1d759efa08ec7c3291b2e85c5dcc12ce"
                            }
                        ],
                        "constructorArguments": "",
                        "name": "userInfo",
                        "returnParams": [
                            {
                                "name": "amount",
                                "type": "uint256",
                                "value": "211,834,652,899,846,113,385,303,102"
                            },
                            {
                                "name": "rewardDebt",
                                "type": "uint256",
                                "value": "70,538,739,560,653,022,410,783,648"
                            }
                        ],
                        "signature": "userInfo(address)"
                    },
                    "errorInfo": "",
                    "fromAddress": "0xc0f976db87230f21e2d364431e1818bfa7c572e4",
                    "gasUsed": 4679,
                    "id": 4,
                    "methodDecoded": true,
                    "operation": "STATICCALL",
                    "output": "0x000000000000000000000000000000000000000000af39bb8b493d4f0fc8cc3e0000000000000000000000000000000000000000003a5928bbda7a602af73ba0",
                    "revert": false,
                    "revertMessage": "",
                    "selector": "0x1959a002",
                    "status": true,
                    "value": "0"
                },
                "nodeType": 0
            },
            "5": {
                "invocation": {
                    "address": "0xbcd7254a1d759efa08ec7c3291b2e85c5dcc12ce",
                    "callData": "0x",
                    "decodedMethod": {
                        "callParams": [],
                        "constructorArguments": "",
                        "name": "totalShares",
                        "returnParams": [
                            {
                                "name": "",
                                "type": "uint256",
                                "value": "151,838,612,721,326,455,029,477,278"
                            }
                        ],
                        "signature": "totalShares()"
                    },
                    "errorInfo": "",
                    "fromAddress": "0xc0f976db87230f21e2d364431e1818bfa7c572e4",
                    "gasUsed": 2352,
                    "id": 5,
                    "methodDecoded": true,
                    "operation": "STATICCALL",
                    "output": "0x0000000000000000000000000000000000000000007d9913b06125f3b0efaf9e",
                    "revert": false,
                    "revertMessage": "",
                    "selector": "0x3a98ef39",
                    "status": true,
                    "value": "0"
                },
                "nodeType": 0
            },
            "6": {
                "invocation": {
                    "address": "0xf4d2888d29d722226fafa5d9b24f9164c092421e",
                    "callData": "0x000000000000000000000000c0f976db87230f21e2d364431e1818bfa7c572e4",
                    "decodedMethod": {
                        "callParams": [
                            {
                                "name": "account",
                                "type": "address",
                                "value": "0xc0f976db87230f21e2d364431e1818bfa7c572e4"
                            }
                        ],
                        "constructorArguments": "",
                        "name": "balanceOf",
                        "returnParams": [
                            {
                                "decimalAvailable": true,
                                "name": "",
                                "type": "uint256",
                                "value": "0"
                            }
                        ],
                        "signature": "balanceOf(address)"
                    },
                    "errorInfo": "",
                    "fromAddress": "0xc0f976db87230f21e2d364431e1818bfa7c572e4",
                    "gasUsed": 2539,
                    "id": 6,
                    "methodDecoded": true,
                    "operation": "STATICCALL",
                    "output": "0x0000000000000000000000000000000000000000000000000000000000000000",
                    "revert": false,
                    "revertMessage": "",
                    "selector": "0x70a08231",
                    "status": true,
                    "value": "0"
                },
                "nodeType": 0
            },
            "7": {
                "invocation": {
                    "address": "0xf4d2888d29d722226fafa5d9b24f9164c092421e",
                    "callData": "0x000000000000000000000000b4ebc2c371182deea04b2264b9ff5ac4f0159c69",
                    "decodedMethod": {
                        "callParams": [
                            {
                                "name": "account",
                                "type": "address",
                                "value": "0xb4ebc2c371182deea04b2264b9ff5ac4f0159c69"
                            }
                        ],
                        "constructorArguments": "",
                        "name": "balanceOf",
                        "returnParams": [
                            {
                                "decimalAvailable": true,
                                "name": "",
                                "type": "uint256",
                                "value": "347,315,241,392,759,466,144"
                            }
                        ],
                        "signature": "balanceOf(address)"
                    },
                    "errorInfo": "",
                    "fromAddress": "0xb4ebc2c371182deea04b2264b9ff5ac4f0159c69",
                    "gasUsed": 2539,
                    "id": 7,
                    "methodDecoded": true,
                    "operation": "STATICCALL",
                    "output": "0x000000000000000000000000000000000000000000000012d3f79be4467968a0",
                    "revert": false,
                    "revertMessage": "",
                    "selector": "0x70a08231",
                    "status": true,
                    "value": "0"
                },
                "nodeType": 0
            },
            "8": {
                "invocation": {
                    "address": "0xf4d2888d29d722226fafa5d9b24f9164c092421e",
                    "callData": "0x000000000000000000000000b4ebc2c371182deea04b2264b9ff5ac4f0159c69",
                    "decodedMethod": {
                        "callParams": [
                            {
                                "name": "account",
                                "type": "address",
                                "value": "0xb4ebc2c371182deea04b2264b9ff5ac4f0159c69"
                            }
                        ],
                        "constructorArguments": "",
                        "name": "balanceOf",
                        "returnParams": [
                            {
                                "decimalAvailable": true,
                                "name": "",
                                "type": "uint256",
                                "value": "347,315,241,392,759,466,144"
                            }
                        ],
                        "signature": "balanceOf(address)"
                    },
                    "errorInfo": "",
                    "fromAddress": "0xb4ebc2c371182deea04b2264b9ff5ac4f0159c69",
                    "gasUsed": 539,
                    "id": 8,
                    "methodDecoded": true,
                    "operation": "STATICCALL",
                    "output": "0x000000000000000000000000000000000000000000000012d3f79be4467968a0",
                    "revert": false,
                    "revertMessage": "",
                    "selector": "0x70a08231",
                    "status": true,
                    "value": "0"
                },
                "nodeType": 0
            },
            "9": {
                "invocation": {
                    "address": "0xf4d2888d29d722226fafa5d9b24f9164c092421e",
                    "callData": "0x000000000000000000000000c129f81e11403859a6ea7567a9cedebc349ba2d9000000000000000000000000b4ebc2c371182deea04b2264b9ff5ac4f0159c690000000000000000000000000000000000000000000002666f429935a3eb0000",
                    "decodedMethod": {
                        "callParams": [
                            {
                                "name": "sender",
                                "type": "address",
                                "value": "0xc129f81e11403859a6ea7567a9cedebc349ba2d9"
                            },
                            {
                                "name": "recipient",
                                "type": "address",
                                "value": "0xb4ebc2c371182deea04b2264b9ff5ac4f0159c69"
                            },
                            {
                                "decimalAvailable": true,
                                "name": "amount",
                                "type": "uint256",
                                "value": "11,334,318,000,000,000,000,000"
                            }
                        ],
                        "constructorArguments": "",
                        "name": "transferFrom",
                        "returnParams": [
                            {
                                "name": "",
                                "type": "bool",
                                "value": true
                            }
                        ],
                        "signature": "transferFrom(address,address,uint256)"
                    },
                    "errorInfo": "",
                    "fromAddress": "0xb4ebc2c371182deea04b2264b9ff5ac4f0159c69",
                    "gasUsed": 18035,
                    "id": 9,
                    "methodDecoded": true,
                    "operation": "CALL",
                    "output": "0x0000000000000000000000000000000000000000000000000000000000000001",
                    "revert": false,
                    "revertMessage": "",
                    "selector": "0x23b872dd",
                    "status": true,
                    "value": "0"
                },
                "nodeType": 0
            }
        },
        "gasFlame": [
            {
                "children": [
                    {
                        "children": [
                            {
                                "children": [],
                                "depth": 0,
                                "name": "Initial Gas",
                                "value": 21288
                            },
                            {
                                "children": [
                                    {
                                        "children": [
                                            {
                                                "children": [
                                                    {
                                                        "children": [],
                                                        "depth": 3,
                                                        "name": "userInfo",
                                                        "value": 6793
                                                    },
                                                    {
                                                        "children": [],
                                                        "depth": 3,
                                                        "name": "userInfo",
                                                        "value": 4679
                                                    },
                                                    {
                                                        "children": [],
                                                        "depth": 3,
                                                        "name": "totalShares",
                                                        "value": 2352
                                                    },
                                                    {
                                                        "children": [],
                                                        "depth": 3,
                                                        "name": "balanceOf",
                                                        "value": 2539
                                                    }
                                                ],
                                                "depth": 2,
                                                "name": "balanceOf",
                                                "value": 28759
                                            }
                                        ],
                                        "depth": 1,
                                        "name": "balanceOf",
                                        "value": 34371
                                    },
                                    {
                                        "children": [],
                                        "depth": 1,
                                        "name": "balanceOf",
                                        "value": 2539
                                    },
                                    {
                                        "children": [],
                                        "depth": 1,
                                        "name": "balanceOf",
                                        "value": 539
                                    },
                                    {
                                        "children": [],
                                        "depth": 1,
                                        "name": "transferFrom",
                                        "value": 18035
                                    },
                                    {
                                        "children": [],
                                        "depth": 1,
                                        "name": "balanceOf",
                                        "value": 539
                                    }
                                ],
                                "depth": 0,
                                "name": "Executed Gas",
                                "value": 97114
                            }
                        ],
                        "depth": -1,
                        "name": "Actual Gas Used",
                        "value": 113602
                    },
                    {
                        "children": [],
                        "depth": -1,
                        "name": "Refunded Gas",
                        "value": 4800
                    }
                ],
                "depth": -2,
                "name": "Total Gas",
                "value": 118402
            }
        ],
        "isConfirmed": true,
        "mainTrace": [
            {
                "children": [
                    {
                        "children": [
                            {
                                "children": [
                                    {
                                        "children": [
                                            {
                                                "children": [],
                                                "depth": 3,
                                                "id": 3,
                                                "order": 3
                                            },
                                            {
                                                "children": [],
                                                "depth": 3,
                                                "id": 4,
                                                "order": 4
                                            },
                                            {
                                                "children": [],
                                                "depth": 3,
                                                "id": 5,
                                                "order": 5
                                            },
                                            {
                                                "children": [],
                                                "depth": 3,
                                                "id": 6,
                                                "order": 6
                                            }
                                        ],
                                        "depth": 2,
                                        "id": 2,
                                        "order": 2
                                    }
                                ],
                                "depth": 1,
                                "id": 1,
                                "order": 1
                            },
                            {
                                "children": [],
                                "depth": 1,
                                "id": 7,
                                "order": 7
                            },
                            {
                                "children": [],
                                "depth": 1,
                                "id": 8,
                                "order": 8
                            },
                            {
                                "children": [
                                    {
                                        "children": [],
                                        "depth": 2,
                                        "id": 10,
                                        "order": 10
                                    },
                                    {
                                        "children": [],
                                        "depth": 2,
                                        "id": 11,
                                        "order": 11
                                    }
                                ],
                                "depth": 1,
                                "id": 9,
                                "order": 9
                            },
                            {
                                "children": [],
                                "depth": 1,
                                "id": 12,
                                "order": 12
                            },
                            {
                                "children": [],
                                "depth": 1,
                                "id": 13,
                                "order": 13
                            }
                        ],
                        "depth": 0,
                        "id": 0,
                        "order": 0
                    }
                ],
                "depth": -1,
                "id": -1,
                "order": -1
            }
        ],
        "mainTraceNodeCount": 14,
        "parentIdMap": {
            "0": -1,
            "1": 0,
            "10": 9,
            "11": 9,
            "12": 0,
            "13": 0,
            "2": 1,
            "3": 2,
            "4": 2,
            "5": 2,
            "6": 2,
            "7": 0,
            "8": 0,
            "9": 0
        },
        "tidyTrace": [
            {
                "children": [
                    {
                        "children": [
                            {
                                "children": [
                                    {
                                        "children": [],
                                        "depth": 2,
                                        "id": 10,
                                        "order": 10
                                    },
                                    {
                                        "children": [],
                                        "depth": 2,
                                        "id": 11,
                                        "order": 11
                                    }
                                ],
                                "depth": 1,
                                "id": 9,
                                "order": 9
                            },
                            {
                                "children": [],
                                "depth": 1,
                                "id": 13,
                                "order": 13
                            }
                        ],
                        "depth": 0,
                        "id": 0,
                        "order": 0
                    }
                ],
                "depth": -1,
                "id": -1,
                "order": -1
            }
        ],
        "tidyTraceNodeCount": 5
    },
    "state_change": {
        "stateChanges": [
            {
                "address": "0xb4ebc2c371182deea04b2264b9ff5ac4f0159c69",
                "erc": "ERC-20",
                "slots": [
                    {
                        "current": "0x0000000000000000000000000000000000000000000001ae14d4101e7e745247",
                        "key": "0x3b07bb478a9b7eb7e1d0418fc65895d37efe11509deb27bb34e1bfb3a93ac5da",
                        "prev": "0x0000000000000000000000000000000000000000000000000000000000000000"
                    },
                    {
                        "current": "0x000000000000000000000000000000000000000000013b9b28887e638a0a17b8",
                        "key": "0x0000000000000000000000000000000000000000000000000000000000000002",
                        "prev": "0x0000000000000000000000000000000000000000000139ed13b46e450b95c571"
                    }
                ],
                "storageVariables": [
                    {
                        "name": "_balances",
                        "type": "mapping(address => uint256)",
                        "value": {
                            "pairs": [
                                {
                                    "key": "0xc129f81e11403859a6ea7567a9cedebc349ba2d9",
                                    "value": {
                                        "current": "7933600793994085028423",
                                        "prev": "0",
                                        "typeTag": 1
                                    }
                                }
                            ],
                            "typeTag": 4
                        }
                    },
                    {
                        "name": "_totalSupply",
                        "type": "uint256",
                        "value": {
                            "current": "1490407608158687555360696",
                            "prev": "1482474007364693470332273",
                            "typeTag": 1
                        }
                    }
                ]
            },
            {
                "address": "0xf4d2888d29d722226fafa5d9b24f9164c092421e",
                "erc": "ERC-20",
                "slots": [
                    {
                        "current": "0x0000000000000000000000000000000000000000000000000000000000000000",
                        "key": "0x3b07bb478a9b7eb7e1d0418fc65895d37efe11509deb27bb34e1bfb3a93ac5da",
                        "prev": "0x0000000000000000000000000000000000000000000002666f429935a3eb0000"
                    },
                    {
                        "current": "0x000000000000000000000000000000000000000000000279433a3519ea6468a0",
                        "key": "0x40e170eeafccbd50b8afa75addb5921719cd58108948a9e346a0ac38e670e126",
                        "prev": "0x000000000000000000000000000000000000000000000012d3f79be4467968a0"
                    },
                    {
                        "current": "0xfffffffffffffffffffffffffffffffffffffffffffff384fd0b2b88603ddedd",
                        "key": "0xe7eeb7876ca13cd36117cc552630b0222cc825b6e20b2c347a285c6d8f1864ed",
                        "prev": "0xfffffffffffffffffffffffffffffffffffffffffffff5eb6c4dc4be0428dedd"
                    }
                ],
                "storageVariables": [
                    {
                        "name": "_allowances",
                        "type": "mapping(address => mapping(address => uint256))",
                        "value": {
                            "pairs": [
                                {
                                    "key": "0xc129f81e11403859a6ea7567a9cedebc349ba2d9",
                                    "value": {
                                        "pairs": [
                                            {
                                                "key": "0xb4ebc2c371182deea04b2264b9ff5ac4f0159c69",
                                                "value": {
                                                    "current": "115792089237316195423570985008687907853269984665640563980520023663718472474333",
                                                    "prev": "115792089237316195423570985008687907853269984665640563991854341663718472474333",
                                                    "typeTag": 1
                                                }
                                            }
                                        ],
                                        "typeTag": 4
                                    }
                                }
                            ],
                            "typeTag": 4
                        }
                    },
                    {
                        "name": "_balances",
                        "type": "mapping(address => uint256)",
                        "value": {
                            "pairs": [
                                {
                                    "key": "0xb4ebc2c371182deea04b2264b9ff5ac4f0159c69",
                                    "value": {
                                        "current": "11681633241392759466144",
                                        "prev": "347315241392759466144",
                                        "typeTag": 1
                                    }
                                },
                                {
                                    "key": "0xc129f81e11403859a6ea7567a9cedebc349ba2d9",
                                    "value": {
                                        "current": "0",
                                        "prev": "11334318000000000000000",
                                        "typeTag": 1
                                    }
                                }
                            ],
                            "typeTag": 4
                        }
                    }
                ]
            }
        ]
    }
}