{
    "balance_change": {
        "balanceChanges": [
            {
                "account": "0x8fb07b21383d331f3752a7590b0cfeac85514a1f",
                "assets": [
                    {
                        "address": "0xeeeeeeeeeeeeeeeeeeeeeeeeeeeeeeeeeeeeeeee",
                        "amount": "1.4",
                        "iconUrl": "https://assets.blocksec.com/image/1663669189317-3.png",
                        "isERC1155": false,
                        "isERC721": false,
                        "sign": false,
                        "value": "5509.698525"
                    },
                    {
                        "address": "0xb0c7a3ba49c7a6eaba6cd4a96c55a1391070ac9a",
                        "amount": "5,958.777631790949470288",
                        "iconUrl": "",
                        "isERC1155": false,
                        "isERC721": false,
                        "sign": true,
                        "value": "4790.406247"
                    }
                ]
            },
            {
                "account": "0x8c56ca4f7eb12a7c217bbe36cc427a9dcb66f590",
                "assets": [
                    {
                        "address": "0xc02aaa39b223fe8d0a0e5c4f27ead9083c756cc2",
                        "amount": "1.4",
                        "iconUrl": "https://assets.blocksec.com/icon/f1cb2d02c471d545bbc7722daf3277fd852d98e63d118771af7047bd8256c516.png",
                        "isERC1155": false,
                        "isERC721": false,
                        "sign": true,
                        "value": "5509.698525"
                    },
                    {
                        "address": "0xb0c7a3ba49c7a6eaba6cd4a96c55a1391070ac9a",
                        "amount": "5,958.777631790949470288",
                        "iconUrl": "",
                        "isERC1155": false,
                        "isERC721": false,
                        "sign": false,
                        "value": "4790.406247"
                    }
                ]
            },
            {
                "account": "0xc02aaa39b223fe8d0a0e5c4f27ead9083c756cc2",
                "assets": [
                    {
                        "address": "0xeeeeeeeeeeeeeeeeeeeeeeeeeeeeeeeeeeeeeeee",
                        "amount": "1.4",
                        "iconUrl": "https://assets.blocksec.com/image/1663669189317-3.png",
                        "isERC1155": false,
                        "isERC721": false,
                        "sign": true,
                        "value": "5509.698525"
                    },
                    {
                        "address": "0xc02aaa39b223fe8d0a0e5c4f27ead9083c756cc2",
                        "amount": "1.4",
                        "iconUrl": "https://assets.blocksec.com/icon/f1cb2d02c471d545bbc7722daf3277fd852d98e63d118771af7047bd8256c516.png",
                        "isERC1155": false,
                        "isERC721": false,
                        "sign": false,
                        "value": "5509.698525"
                    }
                ]
            }
        ]
    },
    "profile": {
        "basic_info": {
            "baseFee": "47.950346925",
            "blockNumber": 13833029,
            "callData": "0x5ae401dc0000000000000000000000000000000000000000000000000000000061bea49b00000000000000000000000000000000000000000000000000000000000000400000000000000000000000000000000000000000000000000000000000000001000000000000000000000000000000000000000000000000000000000000002000000000000000000000000000000000000000000000000000000000000000e4472b43f3000000000000000000000000000000000000000000000000136dcc951d8c00000000000000000000000000000000000000000000000001416b3c4295800eb5cd00000000000000000000000000000000000000000000000000000000000000800000000000000000000000008fb07b21383d331f3752a7590b0cfeac85514a1f0000000000000000000000000000000000000000000000000000000000000002000000000000000000000000c02aaa39b223fe8d0a0e5c4f27ead9083c756cc2000000000000000000000000b0c7a3ba49c7a6eaba6cd4a96c55a1391070ac9a00000000000000000000000000000000000000000000000000000000",
            "debugEnable": true,
            "errorInfo": "",
            "eventCount": 5,
            "feeRecipient": "0xea674fdde714fd979de3edf0f56aa9716b898ec8",
            "formatValue": "1.4",
            "gasLimit": 191059,
            "gasPrice": "49.450346925",
            "gasUsed": 134489,
            "intTxnCount": 15,
            "internalRevert": false,
            "internalRevertMessage": "",
            "isContractCreation": false,
            "isFlashloan": false,
            "maxFee": "58.24595946",
            "nonce": 4751,
            "overwritedBlockNumber": -1,
            "priorityFee": "1.5",
            "receiver": "0x68b3465833fb72a70ecdf485e0e4c7bd8665fc45",
            "revertMessage": "",
            "sender": "0x8fb07b21383d331f3752a7590b0cfeac85514a1f",
            "simulationEnable": true,
            "sourceTxnHash": "0x1a350fc39f3ef1b01e87ca2b5f2fe626ce9246979eb88cb23492837156b986f3",
            "status": true,
            "timestamp": "2021-12-19T02:59:42Z",
            "transactionFee": "0.006650527707596325",
            "txnHash": "0x1a350fc39f3ef1b01e87ca2b5f2fe626ce9246979eb88cb23492837156b986f3",
            "txnIndex": 45,
            "type": 2,
            "value": "1400000000000000000"
        },
        "fund_flow": [
            {
                "amount": "1.4",
                "from": "0x8fb07b21383d331f3752a7590b0cfeac85514a1f",
                "id": 1,
                "isERC1155": false,
                "isERC721": false,
                "isReverted": false,
                "order": 1,
                "to": "0x68b3465833fb72a70ecdf485e0e4c7bd8665fc45",
                "token": "0xeeeeeeeeeeeeeeeeeeeeeeeeeeeeeeeeeeeeeeee"
            },
            {
                "amount": "1.4",
                "from": "0x68b3465833fb72a70ecdf485e0e4c7bd8665fc45",
                "id": 2,
                "isERC1155": false,
                "isERC721": false,
                "isReverted": false,
                "order": 2,
                "to": "0xc02aaa39b223fe8d0a0e5c4f27ead9083c756cc2",
                "token": "0xeeeeeeeeeeeeeeeeeeeeeeeeeeeeeeeeeeeeeeee"
            },
            {
                "amount": "1.4",
                "from": "0xc02aaa39b223fe8d0a0e5c4f27ead9083c756cc2",
                "id": 3,
                "isERC1155": false,
                "isERC721": false,
                "isReverted": false,
                "order": 3,
                "to": "0x68b3465833fb72a70ecdf485e0e4c7bd8665fc45",
                "token": "0xc02aaa39b223fe8d0a0e5c4f27ead9083c756cc2"
            },
            {
                "amount": "1.4",
                "from": "0x68b3465833fb72a70ecdf485e0e4c7bd8665fc45",
                "id": 4,
                "isERC1155": false,
                "isERC721": false,
                "isReverted": false,
                "order": 4,
                "to": "0x8c56ca4f7eb12a7c217bbe36cc427a9dcb66f590",
                "token": "0xc02aaa39b223fe8d0a0e5c4f27ead9083c756cc2"
            },
            {
                "amount": "5,958.777631790949470288",
                "from": "0x8c56ca4f7eb12a7c217bbe36cc427a9dcb66f590",
                "id": 5,
                "isERC1155": false,
                "isERC721": false,
                "isReverted": false,
                "order": 5,
                "to": "0x8fb07b21383d331f3752a7590b0cfeac85514a1f",
                "token": "0xb0c7a3ba49c7a6eaba6cd4a96c55a1391070ac9a"
            }
        ],
        "token_infos": [
            {
                "address": "0xb0c7a3ba49c7a6eaba6cd4a96c55a1391070ac9a",
                "decimals": 18
            },
            {
                "address": "0xc02aaa39b223fe8d0a0e5c4f27ead9083c756cc2",
                "decimals": 18
            },
            {
                "address": "0xeeeeeeeeeeeeeeeeeeeeeeeeeeeeeeeeeeeeeeee",
                "decimals": 18
            }
        ]
    },
    "address_label": {
        "labels": [
            {
                "address": "0xc02aaa39b223fe8d0a0e5c4f27ead9083c756cc2",
                "label": "Wrapped Ether (WETH)"
            },
            {
                "address": "0x3956c81a51feaed98d7a678d53f44b9166c8ed66",
                "label": "Magic"
            },
            {
                "address": "0x0000000000000000000000000000000000000003",
                "label": "Precompiled"
            },
            {
                "address": "0x0000000000000000000000000000000000000004",
                "label": "Precompiled"
            },
            {
                "address": "0xeeeeeeeeeeeeeeeeeeeeeeeeeeeeeeeeeeeeeeee",
                "label": "Ether"
            },
            {
                "address": "0xb0c7a3ba49c7a6eaba6cd4a96c55a1391070ac9a",
                "label": "MAGIC (MAGIC)"
            },
            {
                "address": "0x8c56ca4f7eb12a7c217bbe36cc427a9dcb66f590",
                "label": "Uniswap V2: MAGIC 11"
            },
            {
                "address": "0x0000000000000000000000000000000000000001",
                "label": "Precompiled"
            },
            {
                "address": "0x0000000000000000000000000000000000000002",
                "label": "Precompiled"
            },
            {
                "address": "0x68b3465833fb72a70ecdf485e0e4c7bd8665fc45",
                "label": "Uniswap V3: Router 2"
            }
        ]
    },
    "trace": {
        "accountLabels": null,
        "dataMap": {
            "-1": {
                "invocation": {
                    "address": "0x8fb07b21383d331f3752a7590b0cfeac85514a1f",
                    "callData": "",
                    "decodedMethod": null,
                    "errorInfo": "",
                    "fromAddress": "",
                    "gasUsed": 0,
                    "id": -1,
                    "methodDecoded": false,
                    "operation": "",
                    "output": "",
                    "revert": false,
                    "revertMessage": "",
                    "selector": "",
                    "status": false,
                    "value": ""
                },
                "nodeType": 0
            },
            "0": {
                "invocation": {
                    "address": "0x68b3465833fb72a70ecdf485e0e4c7bd8665fc45",
                    "callData": "0x0000000000000000000000000000000000000000000000000000000061bea49b00000000000000000000000000000000000000000000000000000000000000400000000000000000000000000000000000000000000000000000000000000001000000000000000000000000000000000000000000000000000000000000002000000000000000000000000000000000000000000000000000000000000000e4472b43f3000000000000000000000000000000000000000000000000136dcc951d8c00000000000000000000000000000000000000000000000001416b3c4295800eb5cd00000000000000000000000000000000000000000000000000000000000000800000000000000000000000008fb07b21383d331f3752a7590b0cfeac85514a1f0000000000000000000000000000000000000000000000000000000000000002000000000000000000000000c02aaa39b223fe8d0a0e5c4f27ead9083c756cc2000000000000000000000000b0c7a3ba49c7a6eaba6cd4a96c55a1391070ac9a00000000000000000000000000000000000000000000000000000000",
                    "decodedMethod": {
                        "callParams": [
                            {
                                "name": "deadline",
                                "type": "uint256",
                                "value": "1,639,883,931"
                            },
                            {
                                "name": "data",
                                "type": "bytes[]",
                                "value": [
                                    "0x472b43f3000000000000000000000000000000000000000000000000136dcc951d8c00000000000000000000000000000000000000000000000001416b3c4295800eb5cd00000000000000000000000000000000000000000000000000000000000000800000000000000000000000008fb07b21383d331f3752a7590b0cfeac85514a1f0000000000000000000000000000000000000000000000000000000000000002000000000000000000000000c02aaa39b223fe8d0a0e5c4f27ead9083c756cc2000000000000000000000000b0c7a3ba49c7a6eaba6cd4a96c55a1391070ac9a"
                                ]
                            }
                        ],
                        "constructorArguments": "",
                        "name": "multicall",
                        "returnParams": [
                            {
                                "name": "",
                                "type": "bytes[]",
                                "value": [
                                    "0x00000000000000000000000000000000000000000000014306a6cd282af01050"
                                ]
                            }
                        ],
                        "signature": "multicall(uint256,bytes[])"
                    },
                    "errorInfo": "",
                    "fromAddress": "0x8fb07b21383d331f3752a7590b0cfeac85514a1f",
                    "gasUsed": 134489,
                    "id": 0,
                    "methodDecoded": true,
                    "operation": "CALL",
                    "output": "0x000000000000000000000000000000000000000000000000000000000000002000000000000000000000000000000000000000000000000000000000000000010000000000000000000000000000000000000000000000000000000000000020000000000000000000000000000000000000000000000000000000000000002000000000000000000000000000000000000000000000014306a6cd282af01050",
                    "revert": false,
                    "revertMessage": "",
                    "selector": "0x5ae401dc",
                    "status": true,
                    "value": "1.4"
                },
                "nodeType": 0
            },
            "1": {
                "invocation": {
                    "address": "0x68b3465833fb72a70ecdf485e0e4c7bd8665fc45",
                    "callData": "0x000000000000000000000000000000000000000000000000136dcc951d8c00000000000000000000000000000000000000000000000001416b3c4295800eb5cd00000000000000000000000000000000000000000000000000000000000000800000000000000000000000008fb07b21383d331f3752a7590b0cfeac85514a1f0000000000000000000000000000000000000000000000000000000000000002000000000000000000000000c02aaa39b223fe8d0a0e5c4f27ead9083c756cc2000000000000000000000000b0c7a3ba49c7a6eaba6cd4a96c55a1391070ac9a",
                    "decodedMethod": {
                        "callParams": [
                            {
                                "name": "amountIn",
                                "type": "uint256",
                                "value": "1,400,000,000,000,000,000"
                            },
                            {
                                "name": "amountOutMin",
                                "type": "uint256",
                                "value": "5,929,131,971,931,293,005,261"
                            },
                            {
                                "name": "path",
                                "type": "address[]",
                                "value": [
                                    "0xc02aaa39b223fe8d0a0e5c4f27ead9083c756cc2",
                                    "0xb0c7a3ba49c7a6eaba6cd4a96c55a1391070ac9a"
                                ]
                            },
                            {
                                "name": "to",
                                "type": "address",
                                "value": "0x8fb07b21383d331f3752a7590b0cfeac85514a1f"
                            }
                        ],
                        "constructorArguments": "",
                        "name": "swapExactTokensForTokens",
                        "returnParams": [
                            {
                                "name": "amountOut",
                                "type": "uint256",
                                "value": "5,958,777,631,790,949,470,288"
                            }
                        ],
                        "signature": "swapExactTokensForTokens(uint256,uint256,address[],address)"
                    },
                    "errorInfo": "",
                    "fromAddress": "0x68b3465833fb72a70ecdf485e0e4c7bd8665fc45",
                    "gasUsed": 131203,
                    "id": 1,
                    "methodDecoded": true,
                    "operation": "DELEGATECALL",
                    "output": "0x00000000000000000000000000000000000000000000014306a6cd282af01050",
                    "revert": false,
                    "revertMessage": "",
                    "selector": "0x472b43f3",
                    "status": true,
                    "value": "1.4"
                },
                "nodeType": 0
            },
            "10": {
                "invocation": {
                    "address": "0x8c56ca4f7eb12a7c217bbe36cc427a9dcb66f590",
                    "callData": "0x00000000000000000000000000000000000000000000014306a6cd282af0105000000000000000000000000000000000000000000000000000000000000000000000000000000000000000008fb07b21383d331f3752a7590b0cfeac85514a1f00000000000000000000000000000000000000000000000000000000000000800000000000000000000000000000000000000000000000000000000000000000",
                    "decodedMethod": {
                        "callParams": [
                            {
                                "name": "amount0Out",
                                "type": "uint256",
                                "value": "5,958,777,631,790,949,470,288"
                            },
                            {
                                "name": "amount1Out",
                                "type": "uint256",
                                "value": "0"
                            },
                            {
                                "name": "to",
                                "type": "address",
                                "value": "0x8fb07b21383d331f3752a7590b0cfeac85514a1f"
                            },
                            {
                                "name": "data",
                                "type": "bytes",
                                "value": "0x"
                            }
                        ],
                        "constructorArguments": "",
                        "name": "swap",
                        "returnParams": [],
                        "signature": "swap(uint256,uint256,address,bytes)"
                    },
                    "errorInfo": "",
                    "fromAddress": "0x68b3465833fb72a70ecdf485e0e4c7bd8665fc45",
                    "gasUsed": 63979,
                    "id": 10,
                    "methodDecoded": true,
                    "operation": "CALL",
                    "output": "",
                    "revert": false,
                    "revertMessage": "",
                    "selector": "0x022c0d9f",
                    "status": true,
                    "value": "0"
                },
                "nodeType": 0
            },
            "11": {
                "invocation": {
                    "address": "0xb0c7a3ba49c7a6eaba6cd4a96c55a1391070ac9a",
                    "callData": "0x0000000000000000000000008fb07b21383d331f3752a7590b0cfeac85514a1f00000000000000000000000000000000000000000000014306a6cd282af01050",
                    "decodedMethod": {
                        "callParams": [
                            {
                                "name": "recipient",
                                "type": "address",
                                "value": "0x8fb07b21383d331f3752a7590b0cfeac85514a1f"
                            },
                            {
                                "decimalAvailable": true,
                                "name": "amount",
                                "type": "uint256",
                                "value": "5,958,777,631,790,949,470,288"
                            }
                        ],
                        "constructorArguments": "",
                        "name": "transfer",
                        "returnParams": [
                            {
                                "name": "",
                                "type": "bool",
                                "value": true
                            }
                        ],
                        "signature": "transfer(address,uint256)"
                    },
                    "errorInfo": "",
                    "fromAddress": "0x8c56ca4f7eb12a7c217bbe36cc427a9dcb66f590",
                    "gasUsed": 30763,
                    "id": 11,
                    "methodDecoded": true,
                    "operation": "CALL",
                    "output": "0x0000000000000000000000000000000000000000000000000000000000000001",
                    "revert": false,
                    "revertMessage": "",
                    "selector": "0xa9059cbb",
                    "status": true,
                    "value": "0"
                },
                "nodeType": 0
            },
            "12": {
                "invocation": {
                    "address": "0x3956c81a51feaed98d7a678d53f44b9166c8ed66",
                    "callData": "0x0000000000000000000000008fb07b21383d331f3752a7590b0cfeac85514a1f00000000000000000000000000000000000000000000014306a6cd282af01050",
                    "decodedMethod": {
                        "callParams": [
                            {
                                "name": "recipient",
                                "type": "address",
                                "value": "0x8fb07b21383d331f3752a7590b0cfeac85514a1f"
                            },
                            {
                                "decimalAvailable": true,
                                "name": "amount",
                                "type": "uint256",
                                "value": "5,958,777,631,790,949,470,288"
                            }
                        ],
                        "constructorArguments": "",
                        "name": "transfer",
                        "returnParams": [
                            {
                                "name": "",
                                "type": "bool",
                                "value": true
                            }
                        ],
                        "signature": "transfer(address,uint256)"
                    },
                    "errorInfo": "",
                    "fromAddress": "0xb0c7a3ba49c7a6eaba6cd4a96c55a1391070ac9a",
                    "gasUsed": 27962,
                    "id": 12,
                    "methodDecoded": true,
                    "operation": "DELEGATECALL",
                    "output": "0x0000000000000000000000000000000000000000000000000000000000000001",
                    "revert": false,
                    "revertMessage": "",
                    "selector": "0xa9059cbb",
                    "status": true,
                    "value": "0"
                },
                "nodeType": 0
            },
            "13": {
                "event": {
                    "contract": "0xb0c7a3ba49c7a6eaba6cd4a96c55a1391070ac9a",
                    "decodedLog": {
                        "name": "Transfer",
                        "params": [
                            {
                                "name": "from",
                                "type": "address",
                                "value": "0x8c56ca4f7eb12a7c217bbe36cc427a9dcb66f590"
                            },
                            {
                                "name": "to",
                                "type": "address",
                                "value": "0x8fb07b21383d331f3752a7590b0cfeac85514a1f"
                            },
                            {
                                "decimalAvailable": true,
                                "name": "value",
                                "type": "uint256",
                                "value": "5,958,777,631,790,949,470,288"
                            }
                        ],
                        "signature": "Transfer(address,address,uint256)"
                    },
                    "id": 13,
                    "logData": "0x00000000000000000000000000000000000000000000014306a6cd282af01050",
                    "logDecoded": true,
                    "operation": "EVENT",
                    "revert": false,
                    "status": true,
                    "topics": [
                        "0xddf252ad1be2c89b69c2b068fc378daa952ba7f163c4a11628f55a4df523b3ef",
                        "0x0000000000000000000000008c56ca4f7eb12a7c217bbe36cc427a9dcb66f590",
                        "0x0000000000000000000000008fb07b21383d331f3752a7590b0cfeac85514a1f"
                    ]
                },
                "nodeType": 1
            },
            "14": {
                "invocation": {
                    "address": "0xb0c7a3ba49c7a6eaba6cd4a96c55a1391070ac9a",
                    "callData": "0x0000000000000000000000008c56ca4f7eb12a7c217bbe36cc427a9dcb66f590",
                    "decodedMethod": {
                        "callParams": [
                            {
                                "name": "account",
                                "type": "address",
                                "value": "0x8c56ca4f7eb12a7c217bbe36cc427a9dcb66f590"
                            }
                        ],
                        "constructorArguments": "",
                        "name": "balanceOf",
                        "returnParams": [
                            {
                                "decimalAvailable": true,
                                "name": "",
                                "type": "uint256",
                                "value": "83,062,294,061,809,935,527,754"
                            }
                        ],
                        "signature": "balanceOf(address)"
                    },
                    "errorInfo": "",
                    "fromAddress": "0x8c56ca4f7eb12a7c217bbe36cc427a9dcb66f590",
                    "gasUsed": 1359,
                    "id": 14,
                    "methodDecoded": true,
                    "operation": "STATICCALL",
                    "output": "0x000000000000000000000000000000000000000000001196d0e44e52334f2f4a",
                    "revert": false,
                    "revertMessage": "",
                    "selector": "0x70a08231",
                    "status": true,
                    "value": "0"
                },
                "nodeType": 0
            },
            "15": {
                "invocation": {
                    "address": "0x3956c81a51feaed98d7a678d53f44b9166c8ed66",
                    "callData": "0x0000000000000000000000008c56ca4f7eb12a7c217bbe36cc427a9dcb66f590",
                    "decodedMethod": {
                        "callParams": [
                            {
                                "name": "account",
                                "type": "address",
                                "value": "0x8c56ca4f7eb12a7c217bbe36cc427a9dcb66f590"
                            }
                        ],
                        "constructorArguments": "",
                        "name": "balanceOf",
                        "returnParams": [
                            {
                                "decimalAvailable": true,
                                "name": "",
                                "type": "uint256",
                                "value": "83,062,294,061,809,935,527,754"
                            }
                        ],
                        "signature": "balanceOf(address)"
                    },
                    "errorInfo": "",
                    "fromAddress": "0xb0c7a3ba49c7a6eaba6cd4a96c55a1391070ac9a",
                    "gasUsed": 560,
                    "id": 15,
                    "methodDecoded": true,
                    "operation": "DELEGATECALL",
                    "output": "0x000000000000000000000000000000000000000000001196d0e44e52334f2f4a",
                    "revert": false,
                    "revertMessage": "",
                    "selector": "0x70a08231",
                    "status": true,
                    "value": "0"
                },
                "nodeType": 0
            },
            "16": {
                "invocation": {
                    "address": "0xc02aaa39b223fe8d0a0e5c4f27ead9083c756cc2",
                    "callData": "0x0000000000000000000000008c56ca4f7eb12a7c217bbe36cc427a9dcb66f590",
                    "decodedMethod": {
                        "callParams": [
                            {
                                "name": "",
                                "type": "address",
                                "value": "0x8c56ca4f7eb12a7c217bbe36cc427a9dcb66f590"
                            }
                        ],
                        "constructorArguments": "",
                        "name": "balanceOf",
                        "returnParams": [
                            {
                                "decimalAvailable": true,
                                "name": "",
                                "type": "uint256",
                                "value": "20,856,733,782,601,026,672"
                            }
                        ],
                        "signature": "balanceOf(address)"
                    },
                    "errorInfo": "",
                    "fromAddress": "0x8c56ca4f7eb12a7c217bbe36cc427a9dcb66f590",
                    "gasUsed": 534,
                    "id": 16,
                    "methodDecoded": true,
                    "operation": "STATICCALL",
                    "output": "0x000000000000000000000000000000000000000000000001217200df1ed2cc70",
                    "revert": false,
                    "revertMessage": "",
                    "selector": "0x70a08231",
                    "status": true,
                    "value": "0"
                },
                "nodeType": 0
            },
            "17": {
                "event": {
                    "contract": "0x8c56ca4f7eb12a7c217bbe36cc427a9dcb66f590",
                    "decodedLog": {
                        "name": "Sync",
                        "params": [
                            {
                                "name": "reserve0",
                                "type": "uint112",
                                "value": "83,062,294,061,809,935,527,754"
                            },
                            {
                                "name": "reserve1",
                                "type": "uint112",
                                "value": "20,856,733,782,601,026,672"
                            }
                        ],
                        "signature": "Sync(uint112,uint112)"
                    },
                    "id": 17,
                    "logData": "0x000000000000000000000000000000000000000000001196d0e44e52334f2f4a000000000000000000000000000000000000000000000001217200df1ed2cc70",
                    "logDecoded": true,
                    "operation": "EVENT",
                    "revert": false,
                    "status": true,
                    "topics": [
                        "0x1c411e9a96e071241c2f21f7726b17ae89e3cab4c78be50e062b03a9fffbbad1"
                    ]
                },
                "nodeType": 1
            },
            "18": {
                "event": {
                    "contract": "0x8c56ca4f7eb12a7c217bbe36cc427a9dcb66f590",
                    "decodedLog": {
                        "name": "Swap",
                        "params": [
                            {
                                "name": "sender",
                                "type": "address",
                                "value": "0x68b3465833fb72a70ecdf485e0e4c7bd8665fc45"
                            },
                            {
                                "name": "to",
                                "type": "address",
                                "value": "0x8fb07b21383d331f3752a7590b0cfeac85514a1f"
                            },
                            {
                                "name": "amount0In",
                                "type": "uint256",
                                "value": "0"
                            },
                            {
                                "name": "amount1In",
                                "type": "uint256",
                                "value": "1,400,000,000,000,000,000"
                            },
                            {
                                "name": "amount0Out",
                                "type": "uint256",
                                "value": "5,958,777,631,790,949,470,288"
                            },
                            {
                                "name": "amount1Out",
                                "type": "uint256",
                                "value": "0"
                            }
                        ],
                        "signature": "Swap(address,uint256,uint256,uint256,uint256,address)"
                    },
                    "id": 18,
                    "logData": "0x0000000000000000000000000000000000000000000000000000000000000000000000000000000000000000000000000000000000000000136dcc951d8c000000000000000000000000000000000000000000000000014306a6cd282af010500000000000000000000000000000000000000000000000000000000000000000",
                    "logDecoded": true,
                    "operation": "EVENT",
                    "revert": false,
                    "status": true,
                    "topics": [
                        "0xd78ad95fa46c994b6551d0da85fc275fe613ce37657fb8d5e3d130840159d822",
                        "0x00000000000000000000000068b3465833fb72a70ecdf485e0e4c7bd8665fc45",
                        "0x0000000000000000000000008fb07b21383d331f3752a7590b0cfeac85514a1f"
                    ]
                },
                "nodeType": 1
            },
            "19": {
                "invocation": {
                    "address": "0xb0c7a3ba49c7a6eaba6cd4a96c55a1391070ac9a",
                    "callData": "0x0000000000000000000000008fb07b21383d331f3752a7590b0cfeac85514a1f",
                    "decodedMethod": {
                        "callParams": [
                            {
                                "name": "account",
                                "type": "address",
                                "value": "0x8fb07b21383d331f3752a7590b0cfeac85514a1f"
                            }
                        ],
                        "constructorArguments": "",
                        "name": "balanceOf",
                        "returnParams": [
                            {
                                "decimalAvailable": true,
                                "name": "",
                                "type": "uint256",
                                "value": "5,958,777,631,790,949,470,288"
                            }
                        ],
                        "signature": "balanceOf(address)"
                    },
                    "errorInfo": "",
                    "fromAddress": "0x68b3465833fb72a70ecdf485e0e4c7bd8665fc45",
                    "gasUsed": 1359,
                    "id": 19,
                    "methodDecoded": true,
                    "operation": "STATICCALL",
                    "output": "0x00000000000000000000000000000000000000000000014306a6cd282af01050",
                    "revert": false,
                    "revertMessage": "",
                    "selector": "0x70a08231",
                    "status": true,
                    "value": "0"
                },
                "nodeType": 0
            },
            "2": {
                "invocation": {
                    "address": "0xc02aaa39b223fe8d0a0e5c4f27ead9083c756cc2",
                    "callData": "0x",
                    "decodedMethod": {
                        "callParams": [],
                        "constructorArguments": "",
                        "name": "deposit",
                        "returnParams": [],
                        "signature": "deposit()"
                    },
                    "errorInfo": "",
                    "fromAddress": "0x68b3465833fb72a70ecdf485e0e4c7bd8665fc45",
                    "gasUsed": 23974,
                    "id": 2,
                    "methodDecoded": true,
                    "operation": "CALL",
                    "output": "",
                    "revert": false,
                    "revertMessage": "",
                    "selector": "0xd0e30db0",
                    "status": true,
                    "value": "1.4"
                },
                "nodeType": 0
            },
            "20": {
                "invocation": {
                    "address": "0x3956c81a51feaed98d7a678d53f44b9166c8ed66",
                    "callData": "0x0000000000000000000000008fb07b21383d331f3752a7590b0cfeac85514a1f",
                    "decodedMethod": {
                        "callParams": [
                            {
                                "name": "account",
                                "type": "address",
                                "value": "0x8fb07b21383d331f3752a7590b0cfeac85514a1f"
                            }
                        ],
                        "constructorArguments": "",
                        "name": "balanceOf",
                        "returnParams": [
                            {
                                "decimalAvailable": true,
                                "name": "",
                                "type": "uint256",
                                "value": "5,958,777,631,790,949,470,288"
                            }
                        ],
                        "signature": "balanceOf(address)"
                    },
                    "errorInfo": "",
                    "fromAddress": "0xb0c7a3ba49c7a6eaba6cd4a96c55a1391070ac9a",
                    "gasUsed": 560,
                    "id": 20,
                    "methodDecoded": true,
                    "operation": "DELEGATECALL",
                    "output": "0x00000000000000000000000000000000000000000000014306a6cd282af01050",
                    "revert": false,
                    "revertMessage": "",
                    "selector": "0x70a08231",
                    "status": true,
                    "value": "0"
                },
                "nodeType": 0
            },
            "3": {
                "event": {
                    "contract": "0xc02aaa39b223fe8d0a0e5c4f27ead9083c756cc2",
                    "decodedLog": {
                        "name": "Deposit",
                        "params": [
                            {
                                "name": "dst",
                                "type": "address",
                                "value": "0x68b3465833fb72a70ecdf485e0e4c7bd8665fc45"
                            },
                            {
                                "name": "wad",
                                "type": "uint256",
                                "value": "1,400,000,000,000,000,000"
                            }
                        ],
                        "signature": "Deposit(address,uint256)"
                    },
                    "id": 3,
                    "logData": "0x000000000000000000000000000000000000000000000000136dcc951d8c0000",
                    "logDecoded": true,
                    "operation": "EVENT",
                    "revert": false,
                    "status": true,
                    "topics": [
                        "0xe1fffcc4923d04b559f4d29a8bfc6cda04eb5b0d3c460751c2402c5c5cc9109c",
                        "0x00000000000000000000000068b3465833fb72a70ecdf485e0e4c7bd8665fc45"
                    ]
                },
                "nodeType": 1
            },
            "4": {
                "invocation": {
                    "address": "0xc02aaa39b223fe8d0a0e5c4f27ead9083c756cc2",
                    "callData": "0x0000000000000000000000008c56ca4f7eb12a7c217bbe36cc427a9dcb66f590000000000000000000000000000000000000000000000000136dcc951d8c0000",
                    "decodedMethod": {
                        "callParams": [
                            {
                                "name": "dst",
                                "type": "address",
                                "value": "0x8c56ca4f7eb12a7c217bbe36cc427a9dcb66f590"
                            },
                            {
                                "decimalAvailable": true,
                                "name": "wad",
                                "type": "uint256",
                                "value": "1,400,000,000,000,000,000"
                            }
                        ],
                        "constructorArguments": "",
                        "name": "transfer",
                        "returnParams": [
                            {
                                "name": "",
                                "type": "bool",
                                "value": true
                            }
                        ],
                        "signature": "transfer(address,uint256)"
                    },
                    "errorInfo": "",
                    "fromAddress": "0x68b3465833fb72a70ecdf485e0e4c7bd8665fc45",
                    "gasUsed": 8062,
                    "id": 4,
                    "methodDecoded": true,
                    "operation": "CALL",
                    "output": "0x0000000000000000000000000000000000000000000000000000000000000001",
                    "revert": false,
                    "revertMessage": "",
                    "selector": "0xa9059cbb",
                    "status": true,
                    "value": "0"
                },
                "nodeType": 0
            },
            "5": {
                "event": {
                    "contract": "0xc02aaa39b223fe8d0a0e5c4f27ead9083c756cc2",
                    "decodedLog": {
                        "name": "Transfer",
                        "params": [
                            {
                                "name": "src",
                                "type": "address",
                                "value": "0x68b3465833fb72a70ecdf485e0e4c7bd8665fc45"
                            },
                            {
                                "name": "dst",
                                "type": "address",
                                "value": "0x8c56ca4f7eb12a7c217bbe36cc427a9dcb66f590"
                            },
                            {
                                "decimalAvailable": true,
                                "name": "wad",
                                "type": "uint256",
                                "value": "1,400,000,000,000,000,000"
                            }
                        ],
                        "signature": "Transfer(address,address,uint256)"
                    },
                    "id": 5,
                    "logData": "0x000000000000000000000000000000000000000000000000136dcc951d8c0000",
                    "logDecoded": true,
                    "operation": "EVENT",
                    "revert": false,
                    "status": true,
                    "topics": [
                        "0xddf252ad1be2c89b69c2b068fc378daa952ba7f163c4a11628f55a4df523b3ef",
                        "0x00000000000000000000000068b3465833fb72a70ecdf485e0e4c7bd8665fc45",
                        "0x0000000000000000000000008c56ca4f7eb12a7c217bbe36cc427a9dcb66f590"
                    ]
                },
                "nodeType": 1
            },
            "6": {
                "invocation": {
                    "address": "0xb0c7a3ba49c7a6eaba6cd4a96c55a1391070ac9a",
                    "callData": "0x0000000000000000000000008fb07b21383d331f3752a7590b0cfeac85514a1f",
                    "decodedMethod": {
                        "callParams": [
                            {
                                "name": "account",
                                "type": "address",
                                "value": "0x8fb07b21383d331f3752a7590b0cfeac85514a1f"
                            }
                        ],
                        "constructorArguments": "",
                        "name": "balanceOf",
                        "returnParams": [
                            {
                                "decimalAvailable": true,
                                "name": "",
                                "type": "uint256",
                                "value": "0"
                            }
                        ],
                        "signature": "balanceOf(address)"
                    },
                    "errorInfo": "",
                    "fromAddress": "0x68b3465833fb72a70ecdf485e0e4c7bd8665fc45",
                    "gasUsed": 7859,
                    "id": 6,
                    "methodDecoded": true,
                    "operation": "STATICCALL",
                    "output": "0x0000000000000000000000000000000000000000000000000000000000000000",
                    "revert": false,
                    "revertMessage": "",
                    "selector": "0x70a08231",
                    "status": true,
                    "value": "0"
                },
                "nodeType": 0
            },
            "7": {
                "invocation": {
                    "address": "0x3956c81a51feaed98d7a678d53f44b9166c8ed66",
                    "callData": "0x0000000000000000000000008fb07b21383d331f3752a7590b0cfeac85514a1f",
                    "decodedMethod": {
                        "callParams": [
                            {
                                "name": "account",
                                "type": "address",
                                "value": "0x8fb07b21383d331f3752a7590b0cfeac85514a1f"
                            }
                        ],
                        "constructorArguments": "",
                        "name": "balanceOf",
                        "returnParams": [
                            {
                                "decimalAvailable": true,
                                "name": "",
                                "type": "uint256",
                                "value": "0"
                            }
                        ],
                        "signature": "balanceOf(address)"
                    },
                    "errorInfo": "",
                    "fromAddress": "0xb0c7a3ba49c7a6eaba6cd4a96c55a1391070ac9a",
                    "gasUsed": 2560,
                    "id": 7,
                    "methodDecoded": true,
                    "operation": "DELEGATECALL",
                    "output": "0x0000000000000000000000000000000000000000000000000000000000000000",
                    "revert": false,
                    "revertMessage": "",
                    "selector": "0x70a08231",
                    "status": true,
                    "value": "0"
                },
                "nodeType": 0
            },
            "8": {
                "invocation": {
                    "address": "0x8c56ca4f7eb12a7c217bbe36cc427a9dcb66f590",
                    "callData": "0x",
                    "decodedMethod": {
                        "callParams": [],
                        "constructorArguments": "",
                        "name": "getReserves",
                        "returnParams": [
                            {
                                "name": "_reserve0",
                                "type": "uint112",
                                "value": "89,021,071,693,600,884,998,042"
                            },
                            {
                                "name": "_reserve1",
                                "type": "uint112",
                                "value": "19,456,733,782,601,026,672"
                            },
                            {
                                "name": "_blockTimestampLast",
                                "type": "uint32",
                                "value": "1,639,881,447"
                            }
                        ],
                        "signature": "getReserves()"
                    },
                    "errorInfo": "",
                    "fromAddress": "0x68b3465833fb72a70ecdf485e0e4c7bd8665fc45",
                    "gasUsed": 2504,
                    "id": 8,
                    "methodDecoded": true,
                    "operation": "STATICCALL",
                    "output": "0x0000000000000000000000000000000000000000000012d9d78b1b7a5e3f3f9a0000000000000000000000000000000000000000000000010e04344a0146cc700000000000000000000000000000000000000000000000000000000061be9ae7",
                    "revert": false,
                    "revertMessage": "",
                    "selector": "0x0902f1ac",
                    "status": true,
                    "value": "0"
                },
                "nodeType": 0
            },
            "9": {
                "invocation": {
                    "address": "0xc02aaa39b223fe8d0a0e5c4f27ead9083c756cc2",
                    "callData": "0x0000000000000000000000008c56ca4f7eb12a7c217bbe36cc427a9dcb66f590",
                    "decodedMethod": {
                        "callParams": [
                            {
                                "name": "",
                                "type": "address",
                                "value": "0x8c56ca4f7eb12a7c217bbe36cc427a9dcb66f590"
                            }
                        ],
                        "constructorArguments": "",
                        "name": "balanceOf",
                        "returnParams": [
                            {
                                "decimalAvailable": true,
                                "name": "",
                                "type": "uint256",
                                "value": "20,856,733,782,601,026,672"
                            }
                        ],
                        "signature": "balanceOf(address)"
                    },
                    "errorInfo": "",
                    "fromAddress": "0x68b3465833fb72a70ecdf485e0e4c7bd8665fc45",
                    "gasUsed": 534,
                    "id": 9,
                    "methodDecoded": true,
                    "operation": "STATICCALL",
                    "output": "0x000000000000000000000000000000000000000000000001217200df1ed2cc70",
                    "revert": false,
                    "revertMessage": "",
                    "selector": "0x70a08231",
                    "status": true,
                    "value": "0"
                },
                "nodeType": 0
            }
        },
        "gasFlame": [
            {
                "children": [
                    {
                        "children": [
                            {
                                "children": [],
                                "depth": 0,
                                "name": "Initial Gas",
                                "value": 23808
                            },
                            {
                                "children": [
                                    {
                                        "children": [
                                            {
                                                "children": [],
                                                "depth": 2,
                                                "name": "deposit",
                                                "value": 23974
                                            },
                                            {
                                                "children": [],
                                                "depth": 2,
                                                "name": "transfer",
                                                "value": 8062
                                            },
                                            {
                                                "children": [
                                                    {
                                                        "children": [],
                                                        "depth": 3,
                                                        "name": "balanceOf",
                                                        "value": 2560
                                                    }
                                                ],
                                                "depth": 2,
                                                "name": "balanceOf",
                                                "value": 7859
                                            },
                                            {
                                                "children": [],
                                                "depth": 2,
                                                "name": "getReserves",
                                                "value": 2504
                                            },
                                            {
                                                "children": [],
                                                "depth": 2,
                                                "name": "balanceOf",
                                                "value": 534
                                            },
                                            {
                                                "children": [
                                                    {
                                                        "children": [
                                                            {
                                                                "children": [],
                                                                "depth": 4,
                                                                "name": "transfer",
                                                                "value": 27962
                                                            }
                                                        ],
                                                        "depth": 3,
                                                        "name": "transfer",
                                                        "value": 30763
                                                    },
                                                    {
                                                        "children": [
                                                            {
                                                                "children": [],
                                                                "depth": 4,
                                                                "name": "balanceOf",
                                                                "value": 560
                                                            }
                                                        ],
                                                        "depth": 3,
                                                        "name": "balanceOf",
                                                        "value": 1359
                                                    },
                                                    {
                                                        "children": [],
                                                        "depth": 3,
                                                        "name": "balanceOf",
                                                        "value": 534
                                                    }
                                                ],
                                                "depth": 2,
                                                "name": "swap",
                                                "value": 63979
                                            },
                                            {
                                                "children": [
                                                    {
                                                        "children": [],
                                                        "depth": 3,
                                                        "name": "balanceOf",
                                                        "value": 560
                                                    }
                                                ],
                                                "depth": 2,
                                                "name": "balanceOf",
                                                "value": 1359
                                            }
                                        ],
                                        "depth": 1,
                                        "name": "swapExactTokensForTokens",
                                        "value": 131203
                                    }
                                ],
                                "depth": 0,
                                "name": "Executed Gas",
                                "value": 133381
                            }
                        ],
                        "depth": -1,
                        "name": "Actual Gas Used",
                        "value": 134489
                    },
                    {
                        "children": [],
                        "depth": -1,
                        "name": "Refunded Gas",
                        "value": 22700
                    }
                ],
                "depth": -2,
                "name": "Total Gas",
                "value": 157189
            }
        ],
        "isConfirmed": true,
        "mainTrace": [
            {
                "children": [
                    {
                        "children": [
                            {
                                "children": [
                                    {
                                        "children": [
                                            {
                                                "children": [],
                                                "depth": 3,
                                                "id": 3,
                                                "order": 3
                                            }
                                        ],
                                        "depth": 2,
                                        "id": 2,
                                        "order": 2
                                    },
                                    {
                                        "children": [
                                            {
                                                "children": [],
                                                "depth": 3,
                                                "id": 5,
                                                "order": 5
                                            }
                                        ],
                                        "depth": 2,
                                        "id": 4,
                                        "order": 4
                                    },
                                    {
                                        "children": [
                                            {
                                                "children": [],
                                                "depth": 3,
                                                "id": 7,
                                                "order": 7
                                            }
                                        ],
                                        "depth": 2,
                                        "id": 6,
                                        "order": 6
                                    },
                                    {
                                        "children": [],
                                        "depth": 2,
                                        "id": 8,
                                        "order": 8
                                    },
                                    {
                                        "children": [],
                                        "depth": 2,
                                        "id": 9,
                                        "order": 9
                                    },
                                    {
                                        "children": [
                                            {
                                                "children": [
                                                    {
                                                        "children": [
                                                            {
                                                                "children": [],
                                                                "depth": 5,
                                                                "id": 13,
                                                                "order": 13
                                                            }
                                                        ],
                                                        "depth": 4,
                                                        "id": 12,
                                                        "order": 12
                                                    }
                                                ],
                                                "depth": 3,
                                                "id": 11,
                                                "order": 11
                                            },
                                            {
                                                "children": [
                                                    {
                                                        "children": [],
                                                        "depth": 4,
                                                        "id": 15,
                                                        "order": 15
                                                    }
                                                ],
                                                "depth": 3,
                                                "id": 14,
                                                "order": 14
                                            },
                                            {
                                                "children": [],
                                                "depth": 3,
                                                "id": 16,
                                                "order": 16
                                            },
                                            {
                                                "children": [],
                                                "depth": 3,
                                                "id": 17,
                                                "order": 17
                                            },
                                            {
                                                "children": [],
                                                "depth": 3,
                                                "id": 18,
                                                "order": 18
                                            }
                                        ],
                                        "depth": 2,
                                        "id": 10,
                                        "order": 10
                                    },
                                    {
                                        "children": [
                                            {
                                                "children": [],
                                                "depth": 3,
                                                "id": 20,
                                                "order": 20
                                            }
                                        ],
                                        "depth": 2,
                                        "id": 19,
                                        "order": 19
                                    }
                                ],
                                "depth": 1,
                                "id": 1,
                                "order": 1
                            }
                        ],
                        "depth": 0,
                        "id": 0,
                        "order": 0
                    }
                ],
                "depth": -1,
                "id": -1,
                "order": -1
            }
        ],
        "mainTraceNodeCount": 21,
        "parentIdMap": {
            "0": -1,
            "1": 0,
            "10": 1,
            "11": 10,
            "12": 11,
            "13": 12,
            "14": 10,
            "15": 14,
            "16": 10,
            "17": 10,
            "18": 10,
            "19": 1,
            "2": 1,
            "20": 19,
            "3": 2,
            "4": 1,
            "5": 4,
            "6": 1,
            "7": 6,
            "8": 1,
            "9": 1
        },
        "tidyTrace": [
            {
                "children": [
                    {
                        "children": [
                            {
                                "children": [
                                    {
                                        "children": [
                                            {
                                                "children": [],
                                                "depth": 3,
                                                "id": 3,
                                                "order": 3
                                            }
                                        ],
                                        "depth": 2,
                                        "id": 2,
                                        "order": 2
                                    },
                                    {
                                        "children": [
                                            {
                                                "children": [],
                                                "depth": 3,
                                                "id": 5,
                                                "order": 5
                                            }
                                        ],
                                        "depth": 2,
                                        "id": 4,
                                        "order": 4
                                    },
                                    {
                                        "children": [
                                            {
                                                "children": [
                                                    {
                                                        "children": [
                                                            {
                                                                "children": [],
                                                                "depth": 5,
                                                                "id": 13,
                                                                "order": 13
                                                            }
                                                        ],
                                                        "depth": 4,
                                                        "id": 12,
                                                        "order": 12
                                                    }
                                                ],
                                                "depth": 3,
                                                "id": 11,
                                                "order": 11
                                            },
                                            {
                                                "children": [],
                                                "depth": 3,
                                                "id": 17,
                                                "order": 17
                                            },
                                            {
                                                "children": [],
                                                "depth": 3,
                                                "id": 18,
                                                "order": 18
                                            }
                                        ],
                                        "depth": 2,
                                        "id": 10,
                                        "order": 10
                                    }
                                ],
                                "depth": 1,
                                "id": 1,
                                "order": 1
                            }
                        ],
                        "depth": 0,
                        "id": 0,
                        "order": 0
                    }
                ],
                "depth": -1,
                "id": -1,
                "order": -1
            }
        ],
        "tidyTraceNodeCount": 12
    },
    "state_change": {
        "stateChanges": [
            {
                "address": "0x8c56ca4f7eb12a7c217bbe36cc427a9dcb66f590",
                "erc": "ERC-20",
                "slots": [
                    {
                        "current": "0x00000000000000000000000000000000038dbd7cf06f4dcf97a08fe4f6ad4964",
                        "key": "0x0000000000000000000000000000000000000000000000000000000000000009",
                        "prev": "0x00000000000000000000000000000000038d72cab810fab4c157ff0ce0252376"
                    },
                    {
                        "current": "0x00000000000000000000000000407030ae73ab8afdca0f113005f7b09c2906c9",
                        "key": "0x000000000000000000000000000000000000000000000000000000000000000a",
                        "prev": "0x00000000000000000000000000406fd37acbad187524c684e2f8011403da79c9"
                    },
                    {
                        "current": "0x61bea01e000000000001217200df1ed2cc70000000001196d0e44e52334f2f4a",
                        "key": "0x0000000000000000000000000000000000000000000000000000000000000008",
                        "prev": "0x61be9ae70000000000010e04344a0146cc700000000012d9d78b1b7a5e3f3f9a"
                    }
                ],
                "storageVariables": [
                    {
                        "name": "price0CumulativeLast",
                        "type": "uint256",
                        "value": {
                            "current": "4723641118526360823543344255657134436",
                            "prev": "4722126100157571032366606840022508406",
                            "typeTag": 1
                        }
                    },
                    {
                        "name": "price1CumulativeLast",
                        "type": "uint256",
                        "value": {
                            "current": "1437020834170193943108454207754247980102256329",
                            "prev": "1436989119247168129085695537012190436306614729",
                            "typeTag": 1
                        }
                    },
                    {
                        "name": "reserve0",
                        "type": "uint112",
                        "value": {
                            "current": "83062294061809935527754",
                            "prev": "89021071693600884998042",
                            "typeTag": 1
                        }
                    },
                    {
                        "name": "reserve1",
                        "type": "uint112",
                        "value": {
                            "current": "20856733782601026672",
                            "prev": "19456733782601026672",
                            "typeTag": 1
                        }
                    },
                    {
                        "name": "blockTimestampLast",
                        "type": "uint32",
                        "value": {
                            "current": "1639882782",
                            "prev": "1639881447",
                            "typeTag": 1
                        }
                    }
                ]
            },
            {
                "address": "0xb0c7a3ba49c7a6eaba6cd4a96c55a1391070ac9a",
                "erc": "ERC-20",
                "slots": [
                    {
                        "current": "0x000000000000000000000000000000000000000000001196d0e44e52334f2f4a",
                        "key": "0xdf04e9f484631393e8faa2022529120f684356ce0214fcd7edc20f8d12a68726",
                        "prev": "0x0000000000000000000000000000000000000000000012d9d78b1b7a5e3f3f9a"
                    },
                    {
                        "current": "0x00000000000000000000000000000000000000000000014306a6cd282af01050",
                        "key": "0xe9d21a312b18802b9c276f62720e192cce45b0e06006b73f3672b1b2e2c46331",
                        "prev": "0x0000000000000000000000000000000000000000000000000000000000000000"
                    }
                ],
                "storageVariables": []
            },
            {
                "address": "0xc02aaa39b223fe8d0a0e5c4f27ead9083c756cc2",
                "erc": "ERC-20",
                "slots": [
                    {
                        "current": "0x000000000000000000000000000000000000000000000001217200df1ed2cc70",
                        "key": "0xc0bc9d145b50ee07fdd19f9cdc2d2b37d785313255a7c48acd3581dd12b96501",
                        "prev": "0x0000000000000000000000000000000000000000000000010e04344a0146cc70"
                    }
                ],
                "storageVariables": [
                    {
                        "name": "balanceOf",
                        "type": "mapping(address => uint256)",
                        "value": {
                            "pairs": [
                                {
                                    "key": "0x8c56ca4f7eb12a7c217bbe36cc427a9dcb66f590",
                                    "value": {
                                        "current": "20856733782601026672",
                                        "prev": "19456733782601026672",
                                        "typeTag": 1
                                    }
                                }
                            ],
                            "typeTag": 4
                        }
                    }
                ]
            }
        ]
    }
}