{
    "balance_change": {
        "balanceChanges": [
            {
                "account": "0x6b0546167b6bc8b48d2b7f6ba028ab65e50cfde6",
                "assets": [
                    {
                        "address": "0x63696fc66795b51d02c1590b536484a41fbddf9a",
                        "amount": "4.2",
                        "iconUrl": "",
                        "isERC1155": false,
                        "isERC721": false,
                        "sign": true,
                        "value": ""
                    }
                ]
            },
            {
                "account": "0x9164b7d3ab0b5e26cff7416f911d461c505f20f6",
                "assets": [
                    {
                        "address": "0x63696fc66795b51d02c1590b536484a41fbddf9a",
                        "amount": "4.2",
                        "iconUrl": "",
                        "isERC1155": false,
                        "isERC721": false,
                        "sign": false,
                        "value": ""
                    }
                ]
            }
        ]
    },
    "profile": {
        "basic_info": {
            "baseFee": "1.835359313",
            "blockNumber": 20392895,
            "callData": "0x2d0fd648000000000000000000000000000000000000000000000000000000000000004000000000000000000000000000000000000000000000000000000000000000c00000000000000000000000000000000000000000000000000000000000000041a69661dc23902d2b79ffeaf6c073264da6b568530b1d9e346a2c1b5026f5c1ca12a477bdfcb53faf9960138e38e9ca5b87017275e795a474fb7475b09e5460a51c00000000000000000000000000000000000000000000000000000000000000000000000000000000000000000000000000000000000000000000000000001c68356f4638547856436a4f796a41575333734f32616647685931523200000000",
            "debugEnable": true,
            "errorInfo": "",
            "eventCount": 2,
            "feeRecipient": "0x388c818ca8b9251b393131c08a736a67ccb19297",
            "formatValue": "0",
            "gasLimit": 179458,
            "gasPrice": "2.730673334",
            "gasUsed": 117539,
            "intTxnCount": 3,
            "internalRevert": false,
            "internalRevertMessage": "",
            "isContractCreation": false,
            "isFlashloan": false,
            "maxFee": "3.431918832",
            "nonce": 446,
            "overwritedBlockNumber": -1,
            "priorityFee": "0.895314021",
            "receiver": "0x9164b7d3ab0b5e26cff7416f911d461c505f20f6",
            "revertMessage": "",
            "sender": "0x6b0546167b6bc8b48d2b7f6ba028ab65e50cfde6",
            "simulationEnable": true,
            "sourceTxnHash": "0x1a26343cec4b037fdc24a1a8bc9657afc26552cfbed303f7de3cc2c2685c7937",
            "status": true,
            "timestamp": "2024-07-26T19:45:11Z",
            "transactionFee": "0.000320960613005026",
            "txnHash": "0x1a26343cec4b037fdc24a1a8bc9657afc26552cfbed303f7de3cc2c2685c7937",
            "txnIndex": 16,
            "type": 2,
            "value": "0"
        },
        "fund_flow": [
            {
                "amount": "4.2",
                "from": "0x9164b7d3ab0b5e26cff7416f911d461c505f20f6",
                "id": 1,
                "isERC1155": false,
                "isERC721": false,
                "isReverted": false,
                "order": 1,
                "to": "0x6b0546167b6bc8b48d2b7f6ba028ab65e50cfde6",
                "token": "0x63696fc66795b51d02c1590b536484a41fbddf9a"
            }
        ],
        "token_infos": [
            {
                "address": "0x63696fc66795b51d02c1590b536484a41fbddf9a",
                "decimals": 18
            },
            {
                "address": "0xc02aaa39b223fe8d0a0e5c4f27ead9083c756cc2",
                "decimals": 18
            },
            {
                "address": "0xeeeeeeeeeeeeeeeeeeeeeeeeeeeeeeeeeeeeeeee",
                "decimals": 18
            }
        ]
    },
    "address_label": {
        "labels": [
            {
                "address": "0x9164b7d3ab0b5e26cff7416f911d461c505f20f6",
                "label": "ERC1967Proxy"
            },
            {
                "address": "0x0000000000000000000000000000000000000002",
                "label": "Precompiled"
            },
            {
                "address": "0x0000000000000000000000000000000000000003",
                "label": "Precompiled"
            },
            {
                "address": "0x0000000000000000000000000000000000000004",
                "label": "Precompiled"
            },
            {
                "address": "0xeeeeeeeeeeeeeeeeeeeeeeeeeeeeeeeeeeeeeeee",
                "label": "Ether"
            },
            {
                "address": "0x63696fc66795b51d02c1590b536484a41fbddf9a",
                "label": "WELL3: WELL Token"
            },
            {
                "address": "0x388c818ca8b9251b393131c08a736a67ccb19297",
                "label": "LidoExecutionLayerRewardsVault"
            },
            {
                "address": "0xdfad6b4311778ffd313edf5b14fdc158e6be3846",
                "label": "WellGiveaway"
            },
            {
                "address": "0x0000000000000000000000000000000000000001",
                "label": "Precompiled"
            }
        ]
    },
    "trace": {
        "accountLabels": null,
        "dataMap": {
            "-1": {
                "invocation": {
                    "address": "0x6b0546167b6bc8b48d2b7f6ba028ab65e50cfde6",
                    "callData": "",
                    "decodedMethod": null,
                    "errorInfo": "",
                    "fromAddress": "",
                    "gasUsed": 0,
                    "id": -1,
                    "methodDecoded": false,
                    "operation": "",
                    "output": "",
                    "revert": false,
                    "revertMessage": "",
                    "selector": "",
                    "status": false,
                    "value": ""
                },
                "nodeType": 0
            },
            "0": {
                "invocation": {
                    "address": "0x9164b7d3ab0b5e26cff7416f911d461c505f20f6",
                    "callData": "0x000000000000000000000000000000000000000000000000000000000000004000000000000000000000000000000000000000000000000000000000000000c00000000000000000000000000000000000000000000000000000000000000041a69661dc23902d2b79ffeaf6c073264da6b568530b1d9e346a2c1b5026f5c1ca12a477bdfcb53faf9960138e38e9ca5b87017275e795a474fb7475b09e5460a51c00000000000000000000000000000000000000000000000000000000000000000000000000000000000000000000000000000000000000000000000000001c68356f4638547856436a4f796a41575333734f32616647685931523200000000",
                    "decodedMethod": {
                        "callParams": [
                            {
                                "name": "signature",
                                "type": "bytes",
                                "value": "0xa69661dc23902d2b79ffeaf6c073264da6b568530b1d9e346a2c1b5026f5c1ca12a477bdfcb53faf9960138e38e9ca5b87017275e795a474fb7475b09e5460a51c"
                            },
                            {
                                "name": "userId",
                                "type": "string",
                                "value": "h5oF8TxVCjOyjAWS3sO2afGhY1R2"
                            }
                        ],
                        "constructorArguments": "",
                        "name": "claim",
                        "returnParams": [],
                        "signature": "claim(bytes,string)"
                    },
                    "errorInfo": "",
                    "fromAddress": "0x6b0546167b6bc8b48d2b7f6ba028ab65e50cfde6",
                    "gasUsed": 117539,
                    "id": 0,
                    "methodDecoded": true,
                    "operation": "CALL",
                    "output": "",
                    "revert": false,
                    "revertMessage": "",
                    "selector": "0x2d0fd648",
                    "status": true,
                    "value": "0"
                },
                "nodeType": 0
            },
            "1": {
                "invocation": {
                    "address": "0xdfad6b4311778ffd313edf5b14fdc158e6be3846",
                    "callData": "0x000000000000000000000000000000000000000000000000000000000000004000000000000000000000000000000000000000000000000000000000000000c00000000000000000000000000000000000000000000000000000000000000041a69661dc23902d2b79ffeaf6c073264da6b568530b1d9e346a2c1b5026f5c1ca12a477bdfcb53faf9960138e38e9ca5b87017275e795a474fb7475b09e5460a51c00000000000000000000000000000000000000000000000000000000000000000000000000000000000000000000000000000000000000000000000000001c68356f4638547856436a4f796a41575333734f32616647685931523200000000",
                    "decodedMethod": {
                        "callParams": [
                            {
                                "name": "signature",
                                "type": "bytes",
                                "value": "0xa69661dc23902d2b79ffeaf6c073264da6b568530b1d9e346a2c1b5026f5c1ca12a477bdfcb53faf9960138e38e9ca5b87017275e795a474fb7475b09e5460a51c"
                            },
                            {
                                "name": "userId",
                                "type": "string",
                                "value": "h5oF8TxVCjOyjAWS3sO2afGhY1R2"
                            }
                        ],
                        "constructorArguments": "",
                        "name": "claim",
                        "returnParams": [],
                        "signature": "claim(bytes,string)"
                    },
                    "errorInfo": "",
                    "fromAddress": "0x9164b7d3ab0b5e26cff7416f911d461c505f20f6",
                    "gasUsed": 89358,
                    "id": 1,
                    "methodDecoded": true,
                    "operation": "DELEGATECALL",
                    "output": "",
                    "revert": false,
                    "revertMessage": "",
                    "selector": "0x2d0fd648",
                    "status": true,
                    "value": "0"
                },
                "nodeType": 0
            },
            "2": {
                "invocation": {
                    "address": "0x0000000000000000000000000000000000000001",
                    "callData": "0x1f7dc219babb6f158eae55dbdb180a0479a1808ece396841b4384f6a000000000000000000000000000000000000000000000000000000000000001ca69661dc23902d2b79ffeaf6c073264da6b568530b1d9e346a2c1b5026f5c1ca12a477bdfcb53faf9960138e38e9ca5b87017275e795a474fb7475b09e5460a5",
                    "decodedMethod": {
                        "callParams": [
                            {
                                "name": "hash",
                                "type": "bytes32",
                                "value": "0x0b0fe8181f7dc219babb6f158eae55dbdb180a0479a1808ece396841b4384f6a"
                            },
                            {
                                "name": "v",
                                "type": "uint256",
                                "value": "28"
                            },
                            {
                                "name": "r",
                                "type": "bytes32",
                                "value": "0xa69661dc23902d2b79ffeaf6c073264da6b568530b1d9e346a2c1b5026f5c1ca"
                            },
                            {
                                "name": "s",
                                "type": "bytes32",
                                "value": "0x12a477bdfcb53faf9960138e38e9ca5b87017275e795a474fb7475b09e5460a5"
                            }
                        ],
                        "constructorArguments": "",
                        "name": "ecrecover",
                        "returnParams": [
                            {
                                "name": "",
                                "type": "address",
                                "value": "0xd0086081cfe61484618f012139b1146dfdf63213"
                            }
                        ],
                        "signature": "ecrecover(bytes32,uint256,bytes32,bytes32)"
                    },
                    "errorInfo": "",
                    "fromAddress": "0x9164b7d3ab0b5e26cff7416f911d461c505f20f6",
                    "gasUsed": 3000,
                    "id": 2,
                    "methodDecoded": true,
                    "operation": "STATICCALL",
                    "output": "0x000000000000000000000000d0086081cfe61484618f012139b1146dfdf63213",
                    "revert": false,
                    "revertMessage": "",
                    "selector": "0x0b0fe818",
                    "status": true,
                    "value": "0"
                },
                "nodeType": 0
            },
            "3": {
                "invocation": {
                    "address": "0x63696fc66795b51d02c1590b536484a41fbddf9a",
                    "callData": "0x0000000000000000000000006b0546167b6bc8b48d2b7f6ba028ab65e50cfde60000000000000000000000000000000000000000000000003a4965bf58a40000",
                    "decodedMethod": {
                        "callParams": [
                            {
                                "name": "to",
                                "type": "address",
                                "value": "0x6b0546167b6bc8b48d2b7f6ba028ab65e50cfde6"
                            },
                            {
                                "decimalAvailable": true,
                                "name": "value",
                                "type": "uint256",
                                "value": "4,200,000,000,000,000,000"
                            }
                        ],
                        "constructorArguments": "",
                        "name": "transfer",
                        "returnParams": [
                            {
                                "name": "",
                                "type": "bool",
                                "value": true
                            }
                        ],
                        "signature": "transfer(address,uint256)"
                    },
                    "errorInfo": "",
                    "fromAddress": "0x9164b7d3ab0b5e26cff7416f911d461c505f20f6",
                    "gasUsed": 29966,
                    "id": 3,
                    "methodDecoded": true,
                    "operation": "CALL",
                    "output": "0x0000000000000000000000000000000000000000000000000000000000000001",
                    "revert": false,
                    "revertMessage": "",
                    "selector": "0xa9059cbb",
                    "status": true,
                    "value": "0"
                },
                "nodeType": 0
            },
            "4": {
                "event": {
                    "contract": "0x63696fc66795b51d02c1590b536484a41fbddf9a",
                    "decodedLog": {
                        "name": "Transfer",
                        "params": [
                            {
                                "name": "from",
                                "type": "address",
                                "value": "0x9164b7d3ab0b5e26cff7416f911d461c505f20f6"
                            },
                            {
                                "name": "to",
                                "type": "address",
                                "value": "0x6b0546167b6bc8b48d2b7f6ba028ab65e50cfde6"
                            },
                            {
                                "decimalAvailable": true,
                                "name": "value",
                                "type": "uint256",
                                "value": "4,200,000,000,000,000,000"
                            }
                        ],
                        "signature": "Transfer(address,address,uint256)"
                    },
                    "id": 4,
                    "logData": "0x0000000000000000000000000000000000000000000000003a4965bf58a40000",
                    "logDecoded": true,
                    "operation": "EVENT",
                    "revert": false,
                    "status": true,
                    "topics": [
                        "0xddf252ad1be2c89b69c2b068fc378daa952ba7f163c4a11628f55a4df523b3ef",
                        "0x0000000000000000000000009164b7d3ab0b5e26cff7416f911d461c505f20f6",
                        "0x0000000000000000000000006b0546167b6bc8b48d2b7f6ba028ab65e50cfde6"
                    ]
                },
                "nodeType": 1
            },
            "5": {
                "event": {
                    "contract": "0x9164b7d3ab0b5e26cff7416f911d461c505f20f6",
                    "decodedLog": {
                        "name": "Claimed",
                        "params": [
                            {
                                "name": "account",
                                "type": "address",
                                "value": "0x6b0546167b6bc8b48d2b7f6ba028ab65e50cfde6"
                            }
                        ],
                        "signature": "Claimed(address)"
                    },
                    "id": 5,
                    "logData": "0x0000000000000000000000006b0546167b6bc8b48d2b7f6ba028ab65e50cfde6",
                    "logDecoded": true,
                    "operation": "EVENT",
                    "revert": false,
                    "status": true,
                    "topics": [
                        "0xb449c24d261a59627b537c8c41c57ab559f4205c56bea745ff61c5521bece214"
                    ]
                },
                "nodeType": 1
            }
        },
        "gasFlame": [
            {
                "children": [
                    {
                        "children": [
                            {
                                "children": [],
                                "depth": 0,
                                "name": "Initial Gas",
                                "value": 23252
                            },
                            {
                                "children": [
                                    {
                                        "children": [
                                            {
                                                "children": [],
                                                "depth": 2,
                                                "name": "ecrecover",
                                                "value": 3000
                                            },
                                            {
                                                "children": [],
                                                "depth": 2,
                                                "name": "transfer",
                                                "value": 29966
                                            }
                                        ],
                                        "depth": 1,
                                        "name": "claim",
                                        "value": 89358
                                    }
                                ],
                                "depth": 0,
                                "name": "Executed Gas",
                                "value": 94287
                            }
                        ],
                        "depth": -1,
                        "name": "Actual Gas Used",
                        "value": 117539
                    },
                    {
                        "children": [],
                        "depth": -1,
                        "name": "Refunded Gas",
                        "value": 0
                    }
                ],
                "depth": -2,
                "name": "Total Gas",
                "value": 117539
            }
        ],
        "isConfirmed": true,
        "mainTrace": [
            {
                "children": [
                    {
                        "children": [
                            {
                                "children": [
                                    {
                                        "children": [],
                                        "depth": 2,
                                        "id": 2,
                                        "order": 2
                                    },
                                    {
                                        "children": [
                                            {
                                                "children": [],
                                                "depth": 3,
                                                "id": 4,
                                                "order": 4
                                            }
                                        ],
                                        "depth": 2,
                                        "id": 3,
                                        "order": 3
                                    },
                                    {
                                        "children": [],
                                        "depth": 2,
                                        "id": 5,
                                        "order": 5
                                    }
                                ],
                                "depth": 1,
                                "id": 1,
                                "order": 1
                            }
                        ],
                        "depth": 0,
                        "id": 0,
                        "order": 0
                    }
                ],
                "depth": -1,
                "id": -1,
                "order": -1
            }
        ],
        "mainTraceNodeCount": 6,
        "parentIdMap": {
            "0": -1,
            "1": 0,
            "2": 1,
            "3": 1,
            "4": 3,
            "5": 1
        },
        "tidyTrace": [
            {
                "children": [
                    {
                        "children": [
                            {
                                "children": [
                                    {
                                        "children": [
                                            {
                                                "children": [],
                                                "depth": 3,
                                                "id": 4,
                                                "order": 4
                                            }
                                        ],
                                        "depth": 2,
                                        "id": 3,
                                        "order": 3
                                    },
                                    {
                                        "children": [],
                                        "depth": 2,
                                        "id": 5,
                                        "order": 5
                                    }
                                ],
                                "depth": 1,
                                "id": 1,
                                "order": 1
                            }
                        ],
                        "depth": 0,
                        "id": 0,
                        "order": 0
                    }
                ],
                "depth": -1,
                "id": -1,
                "order": -1
            }
        ],
        "tidyTraceNodeCount": 5
    },
    "state_change": {
        "stateChanges": [
            {
                "address": "0x63696fc66795b51d02c1590b536484a41fbddf9a",
                "erc": "ERC-20",
                "slots": [
                    {
                        "current": "0x0000000000000000000000000000000000000000000000003a4965bf58a40000",
                        "key": "0x4a3f61c4775d58af3e6aefb2f08e3d308a657a00b695324222ad55827c8c3b2b",
                        "prev": "0x0000000000000000000000000000000000000000000000000000000000000000"
                    },
                    {
                        "current": "0x000000000000000000000000000000000000000000adb34120dc5dda0b2c0000",
                        "key": "0xe92c6d008ed4ce8084cf9c7f0ef6ecc97cd59fc6bb3657fc294f01e937bd1b5c",
                        "prev": "0x000000000000000000000000000000000000000000adb3415b25c39963d00000"
                    }
                ],
                "storageVariables": [
                    {
                        "name": "_balances",
                        "type": "mapping(address => uint256)",
                        "value": {
                            "pairs": [
                                {
                                    "key": "0x6b0546167b6bc8b48d2b7f6ba028ab65e50cfde6",
                                    "value": {
                                        "current": "4200000000000000000",
                                        "prev": "0",
                                        "typeTag": 1
                                    }
                                },
                                {
                                    "key": "0x9164b7d3ab0b5e26cff7416f911d461c505f20f6",
                                    "value": {
                                        "current": "209990671800000000000000000",
                                        "prev": "209990676000000000000000000",
                                        "typeTag": 1
                                    }
                                }
                            ],
                            "typeTag": 4
                        }
                    }
                ]
            },
            {
                "address": "0x9164b7d3ab0b5e26cff7416f911d461c505f20f6",
                "erc": "",
                "slots": [
                    {
                        "current": "0x0000000000000000000000000000000000000000000000000000000000000001",
                        "key": "0x0b36bdc5e26299da033ec073ddb77eef720ac2d2d0e9915fab1f5ce9b4e829b6",
                        "prev": "0x0000000000000000000000000000000000000000000000000000000000000000"
                    },
                    {
                        "current": "0x0000000000000000000000000000000000000000000000000000000000000001",
                        "key": "0x9756a501b159c593d1a2f67b94d4ae89117f2131de8fb4c76cbd90d910cd51f6",
                        "prev": "0x0000000000000000000000000000000000000000000000000000000000000000"
                    }
                ],
                "storageVariables": [
                    {
                        "name": "userIdClaimedMap",
                        "type": "mapping(string => bool)",
                        "value": {
                            "pairs": [
                                {
                                    "key": "h5oF8TxVCjOyjAWS3sO2afGhY1R2",
                                    "value": {
                                        "current": "true",
                                        "prev": "false",
                                        "typeTag": 1
                                    }
                                }
                            ],
                            "typeTag": 4
                        }
                    },
                    {
                        "name": "claimedMap",
                        "type": "mapping(address => bool)",
                        "value": {
                            "pairs": [
                                {
                                    "key": "0x6b0546167b6bc8b48d2b7f6ba028ab65e50cfde6",
                                    "value": {
                                        "current": "true",
                                        "prev": "false",
                                        "typeTag": 1
                                    }
                                }
                            ],
                            "typeTag": 4
                        }
                    }
                ]
            }
        ]
    }
}