{
    "balance_change": {
        "balanceChanges": [
            {
                "account": "0x5f65f7b609678448494de4c87521cdf6cef1e932",
                "assets": [
                    {
                        "address": "0xe41d2489571d322189246dafa5ebde1f4699f498",
                        "amount": "114.680342",
                        "iconUrl": "https://assets.blocksec.com/icon/6c4cfed2c799afeb85b9e6ad087e66bdd588f8169e94dcf9e90f3048ceb6c6f3.png",
                        "isERC1155": false,
                        "isERC721": false,
                        "sign": false,
                        "value": "191.4873095"
                    }
                ]
            },
            {
                "account": "0xd538f5c8ec0d1517826bc7eca5fd12f434ffda1b",
                "assets": [
                    {
                        "address": "0xe41d2489571d322189246dafa5ebde1f4699f498",
                        "amount": "114.680342",
                        "iconUrl": "https://assets.blocksec.com/icon/6c4cfed2c799afeb85b9e6ad087e66bdd588f8169e94dcf9e90f3048ceb6c6f3.png",
                        "isERC1155": false,
                        "isERC721": false,
                        "sign": true,
                        "value": "191.4873095"
                    }
                ]
            }
        ]
    },
    "profile": {
        "basic_info": {
            "baseFee": "",
            "blockNumber": 12426013,
            "callData": "0xfa558b71000000000000000000000000e41d2489571d322189246dafa5ebde1f4699f498000000000000000000000000000000000000000000000000000000000000006000000000000000000000000000000000000000000000000000000000000000a00000000000000000000000000000000000000000000000000000000000000001000000000000000000000000d538f5c8ec0d1517826bc7eca5fd12f434ffda1b000000000000000000000000000000000000000000000000000000000000000100000000000000000000000000000000000000000000000637826b724e4f6000",
            "debugEnable": true,
            "errorInfo": "",
            "eventCount": 1,
            "feeRecipient": "0x3ecef08d0e2dad803847e052249bb4f8bff2d5bb",
            "formatValue": "0",
            "gasLimit": 351400,
            "gasPrice": "204",
            "gasUsed": 58895,
            "intTxnCount": 1,
            "internalRevert": false,
            "internalRevertMessage": "",
            "isContractCreation": false,
            "isFlashloan": false,
            "maxFee": "",
            "nonce": 1346827,
            "overwritedBlockNumber": -1,
            "priorityFee": "",
            "receiver": "0x5f65f7b609678448494de4c87521cdf6cef1e932",
            "revertMessage": "",
            "sender": "0xd24400ae8bfebb18ca49be86258a3c749cf46853",
            "simulationEnable": true,
            "sourceTxnHash": "0x1a91d2afa05b86ef1f12197b4061bc42ffa5b3fda6df2e40ee02f83771fbc12b",
            "status": true,
            "timestamp": "2021-05-13T12:25:34Z",
            "transactionFee": "0.01201458",
            "txnHash": "0x1a91d2afa05b86ef1f12197b4061bc42ffa5b3fda6df2e40ee02f83771fbc12b",
            "txnIndex": 91,
            "type": 0,
            "value": "0"
        },
        "fund_flow": [
            {
                "amount": "114.680342",
                "from": "0x5f65f7b609678448494de4c87521cdf6cef1e932",
                "id": 1,
                "isERC1155": false,
                "isERC721": false,
                "isReverted": false,
                "order": 1,
                "to": "0xd538f5c8ec0d1517826bc7eca5fd12f434ffda1b",
                "token": "0xe41d2489571d322189246dafa5ebde1f4699f498"
            }
        ],
        "token_infos": [
            {
                "address": "0xc02aaa39b223fe8d0a0e5c4f27ead9083c756cc2",
                "decimals": 18
            },
            {
                "address": "0xe41d2489571d322189246dafa5ebde1f4699f498",
                "decimals": 18
            },
            {
                "address": "0xeeeeeeeeeeeeeeeeeeeeeeeeeeeeeeeeeeeeeeee",
                "decimals": 18
            }
        ]
    },
    "address_label": {
        "labels": [
            {
                "address": "0x0000000000000000000000000000000000000003",
                "label": "Precompiled"
            },
            {
                "address": "0x0000000000000000000000000000000000000004",
                "label": "Precompiled"
            },
            {
                "address": "0xeeeeeeeeeeeeeeeeeeeeeeeeeeeeeeeeeeeeeeee",
                "label": "Ether"
            },
            {
                "address": "0xd24400ae8bfebb18ca49be86258a3c749cf46853",
                "label": "Gemini"
            },
            {
                "address": "0x5f65f7b609678448494de4c87521cdf6cef1e932",
                "label": "GEMINI"
            },
            {
                "address": "0xe41d2489571d322189246dafa5ebde1f4699f498",
                "label": "0x: ZRX Token"
            },
            {
                "address": "0x0000000000000000000000000000000000000001",
                "label": "Precompiled"
            },
            {
                "address": "0x0000000000000000000000000000000000000002",
                "label": "Precompiled"
            }
        ]
    },
    "trace": {
        "accountLabels": null,
        "dataMap": {
            "-1": {
                "invocation": {
                    "address": "0xd24400ae8bfebb18ca49be86258a3c749cf46853",
                    "callData": "",
                    "decodedMethod": null,
                    "errorInfo": "",
                    "fromAddress": "",
                    "gasUsed": 0,
                    "id": -1,
                    "methodDecoded": false,
                    "operation": "",
                    "output": "",
                    "revert": false,
                    "revertMessage": "",
                    "selector": "",
                    "status": false,
                    "value": ""
                },
                "nodeType": 0
            },
            "0": {
                "invocation": {
                    "address": "0x5f65f7b609678448494de4c87521cdf6cef1e932",
                    "callData": "0x000000000000000000000000e41d2489571d322189246dafa5ebde1f4699f498000000000000000000000000000000000000000000000000000000000000006000000000000000000000000000000000000000000000000000000000000000a00000000000000000000000000000000000000000000000000000000000000001000000000000000000000000d538f5c8ec0d1517826bc7eca5fd12f434ffda1b000000000000000000000000000000000000000000000000000000000000000100000000000000000000000000000000000000000000000637826b724e4f6000",
                    "decodedMethod": {
                        "callParams": [
                            {
                                "name": "recipient",
                                "type": "address",
                                "value": "0xe41d2489571d322189246dafa5ebde1f4699f498"
                            },
                            {
                                "name": "tokens",
                                "type": "address[]",
                                "value": [
                                    "0xd538f5c8ec0d1517826bc7eca5fd12f434ffda1b"
                                ]
                            },
                            {
                                "name": "amounts",
                                "type": "uint256[]",
                                "value": [
                                    "114,680,342,000,000,000,000"
                                ]
                            }
                        ],
                        "constructorArguments": "",
                        "name": "transferERC20",
                        "returnParams": [],
                        "signature": "transferERC20(address,address[],uint256[])"
                    },
                    "errorInfo": "",
                    "fromAddress": "0xd24400ae8bfebb18ca49be86258a3c749cf46853",
                    "gasUsed": 58895,
                    "id": 0,
                    "methodDecoded": true,
                    "operation": "CALL",
                    "output": "",
                    "revert": false,
                    "revertMessage": "",
                    "selector": "0xfa558b71",
                    "status": true,
                    "value": "0"
                },
                "nodeType": 0
            },
            "1": {
                "invocation": {
                    "address": "0xe41d2489571d322189246dafa5ebde1f4699f498",
                    "callData": "0x000000000000000000000000d538f5c8ec0d1517826bc7eca5fd12f434ffda1b00000000000000000000000000000000000000000000000637826b724e4f6000",
                    "decodedMethod": {
                        "callParams": [
                            {
                                "name": "_to",
                                "type": "address",
                                "value": "0xd538f5c8ec0d1517826bc7eca5fd12f434ffda1b"
                            },
                            {
                                "decimalAvailable": true,
                                "name": "_value",
                                "type": "uint256",
                                "value": "114,680,342,000,000,000,000"
                            }
                        ],
                        "constructorArguments": "",
                        "name": "transfer",
                        "returnParams": [
                            {
                                "name": "",
                                "type": "bool",
                                "value": true
                            }
                        ],
                        "signature": "transfer(address,uint256)"
                    },
                    "errorInfo": "",
                    "fromAddress": "0x5f65f7b609678448494de4c87521cdf6cef1e932",
                    "gasUsed": 30250,
                    "id": 1,
                    "methodDecoded": true,
                    "operation": "CALL",
                    "output": "0x0000000000000000000000000000000000000000000000000000000000000001",
                    "revert": false,
                    "revertMessage": "",
                    "selector": "0xa9059cbb",
                    "status": true,
                    "value": "0"
                },
                "nodeType": 0
            },
            "2": {
                "event": {
                    "contract": "0xe41d2489571d322189246dafa5ebde1f4699f498",
                    "decodedLog": {
                        "name": "Transfer",
                        "params": [
                            {
                                "name": "_from",
                                "type": "address",
                                "value": "0x5f65f7b609678448494de4c87521cdf6cef1e932"
                            },
                            {
                                "name": "_to",
                                "type": "address",
                                "value": "0xd538f5c8ec0d1517826bc7eca5fd12f434ffda1b"
                            },
                            {
                                "decimalAvailable": true,
                                "name": "_value",
                                "type": "uint256",
                                "value": "114,680,342,000,000,000,000"
                            }
                        ],
                        "signature": "Transfer(address,address,uint256)"
                    },
                    "id": 2,
                    "logData": "0x00000000000000000000000000000000000000000000000637826b724e4f6000",
                    "logDecoded": true,
                    "operation": "EVENT",
                    "revert": false,
                    "status": true,
                    "topics": [
                        "0xddf252ad1be2c89b69c2b068fc378daa952ba7f163c4a11628f55a4df523b3ef",
                        "0x0000000000000000000000005f65f7b609678448494de4c87521cdf6cef1e932",
                        "0x000000000000000000000000d538f5c8ec0d1517826bc7eca5fd12f434ffda1b"
                    ]
                },
                "nodeType": 1
            }
        },
        "gasFlame": [
            {
                "children": [
                    {
                        "children": [
                            {
                                "children": [],
                                "depth": 0,
                                "name": "Initial Gas",
                                "value": 22584
                            },
                            {
                                "children": [
                                    {
                                        "children": [],
                                        "depth": 1,
                                        "name": "transfer",
                                        "value": 30250
                                    }
                                ],
                                "depth": 0,
                                "name": "Executed Gas",
                                "value": 36311
                            }
                        ],
                        "depth": -1,
                        "name": "Actual Gas Used",
                        "value": 58895
                    },
                    {
                        "children": [],
                        "depth": -1,
                        "name": "Refunded Gas",
                        "value": 0
                    }
                ],
                "depth": -2,
                "name": "Total Gas",
                "value": 58895
            }
        ],
        "isConfirmed": true,
        "mainTrace": [
            {
                "children": [
                    {
                        "children": [
                            {
                                "children": [
                                    {
                                        "children": [],
                                        "depth": 2,
                                        "id": 2,
                                        "order": 2
                                    }
                                ],
                                "depth": 1,
                                "id": 1,
                                "order": 1
                            }
                        ],
                        "depth": 0,
                        "id": 0,
                        "order": 0
                    }
                ],
                "depth": -1,
                "id": -1,
                "order": -1
            }
        ],
        "mainTraceNodeCount": 3,
        "parentIdMap": {
            "0": -1,
            "1": 0,
            "2": 1
        },
        "tidyTrace": [
            {
                "children": [
                    {
                        "children": [
                            {
                                "children": [
                                    {
                                        "children": [],
                                        "depth": 2,
                                        "id": 2,
                                        "order": 2
                                    }
                                ],
                                "depth": 1,
                                "id": 1,
                                "order": 1
                            }
                        ],
                        "depth": 0,
                        "id": 0,
                        "order": 0
                    }
                ],
                "depth": -1,
                "id": -1,
                "order": -1
            }
        ],
        "tidyTraceNodeCount": 3
    },
    "state_change": {
        "stateChanges": [
            {
                "address": "0xe41d2489571d322189246dafa5ebde1f4699f498",
                "erc": "ERC-20",
                "slots": [
                    {
                        "current": "0x0000000000000000000000000000000000000000000646301e7b74d6b11ffe9a",
                        "key": "0xba03decd934aae936605e9d437c401439ec4cefbad5795e0965100f929fe339c",
                        "prev": "0x00000000000000000000000000000000000000000006463655fde048ff6f5e9a"
                    },
                    {
                        "current": "0x00000000000000000000000000000000000000000000000637826b724e4f6000",
                        "key": "0x3a935e81b1c17d500294cf73f1e0aaec453cf606d8887c58bd4eaa36a8a7829b",
                        "prev": "0x0000000000000000000000000000000000000000000000000000000000000000"
                    }
                ],
                "storageVariables": []
            }
        ]
    }
}