{
    "balance_change": {
        "balanceChanges": []
    },
    "profile": {
        "basic_info": {
            "baseFee": "",
            "blockNumber": 10571276,
            "callData": "0x39509351000000000000000000000000aa567ec215c286784f4349610da20b518b466198000000000000000000000000000000000000000000000036f5b37ec0c2cc4559",
            "debugEnable": true,
            "errorInfo": "",
            "eventCount": 1,
            "feeRecipient": "0xd224ca0c819e8e97ba0136b3b95ceff503b79f53",
            "formatValue": "0",
            "gasLimit": 45354,
            "gasPrice": "51",
            "gasUsed": 45354,
            "intTxnCount": 0,
            "internalRevert": false,
            "internalRevertMessage": "",
            "isContractCreation": false,
            "isFlashloan": false,
            "maxFee": "",
            "nonce": 462,
            "overwritedBlockNumber": -1,
            "priorityFee": "",
            "receiver": "0x171aabea00881d7f424a11d070dc98767f4f5ed6",
            "revertMessage": "",
            "sender": "0x000b79f52356189c80a9d3ada3911d4438218516",
            "simulationEnable": true,
            "sourceTxnHash": "0x1a08f34d1df22bc473269ac76b10d8072ea34d2826ba3e569d2981cd229a01a1",
            "status": true,
            "timestamp": "2020-08-01T03:02:50Z",
            "transactionFee": "0.002313054",
            "txnHash": "0x1a08f34d1df22bc473269ac76b10d8072ea34d2826ba3e569d2981cd229a01a1",
            "txnIndex": 78,
            "type": 0,
            "value": "0"
        },
        "fund_flow": [],
        "token_infos": [
            {
                "address": "0xc02aaa39b223fe8d0a0e5c4f27ead9083c756cc2",
                "decimals": 18
            },
            {
                "address": "0xeeeeeeeeeeeeeeeeeeeeeeeeeeeeeeeeeeeeeeee",
                "decimals": 18
            }
        ]
    },
    "address_label": {
        "labels": [
            {
                "address": "0x0000000000000000000000000000000000000001",
                "label": "Precompiled"
            },
            {
                "address": "0x0000000000000000000000000000000000000002",
                "label": "Precompiled"
            },
            {
                "address": "0x0000000000000000000000000000000000000003",
                "label": "Precompiled"
            },
            {
                "address": "0x0000000000000000000000000000000000000004",
                "label": "Precompiled"
            },
            {
                "address": "0xeeeeeeeeeeeeeeeeeeeeeeeeeeeeeeeeeeeeeeee",
                "label": "Ether"
            },
            {
                "address": "0xaa567ec215c286784f4349610da20b518b466198",
                "label": "TendiesFarmV2 (weebTEND-...)"
            },
            {
                "address": "0x171aabea00881d7f424a11d070dc98767f4f5ed6",
                "label": "weebTEND"
            }
        ]
    },
    "trace": {
        "accountLabels": null,
        "dataMap": {
            "-1": {
                "invocation": {
                    "address": "0x000b79f52356189c80a9d3ada3911d4438218516",
                    "callData": "",
                    "decodedMethod": null,
                    "errorInfo": "",
                    "fromAddress": "",
                    "gasUsed": 0,
                    "id": -1,
                    "methodDecoded": false,
                    "operation": "",
                    "output": "",
                    "revert": false,
                    "revertMessage": "",
                    "selector": "",
                    "status": false,
                    "value": ""
                },
                "nodeType": 0
            },
            "0": {
                "invocation": {
                    "address": "0x171aabea00881d7f424a11d070dc98767f4f5ed6",
                    "callData": "0x000000000000000000000000aa567ec215c286784f4349610da20b518b466198000000000000000000000000000000000000000000000036f5b37ec0c2cc4559",
                    "decodedMethod": {
                        "callParams": [
                            {
                                "name": "spender",
                                "type": "address",
                                "value": "0xaa567ec215c286784f4349610da20b518b466198"
                            },
                            {
                                "name": "addedValue",
                                "type": "uint256",
                                "value": "1,013,828,813,906,806,326,617"
                            }
                        ],
                        "constructorArguments": "",
                        "name": "increaseAllowance",
                        "returnParams": [
                            {
                                "name": "",
                                "type": "bool",
                                "value": true
                            }
                        ],
                        "signature": "increaseAllowance(address,uint256)"
                    },
                    "errorInfo": "",
                    "fromAddress": "0x000b79f52356189c80a9d3ada3911d4438218516",
                    "gasUsed": 45354,
                    "id": 0,
                    "methodDecoded": true,
                    "operation": "CALL",
                    "output": "0x0000000000000000000000000000000000000000000000000000000000000001",
                    "revert": false,
                    "revertMessage": "",
                    "selector": "0x39509351",
                    "status": true,
                    "value": "0"
                },
                "nodeType": 0
            },
            "1": {
                "event": {
                    "contract": "0x171aabea00881d7f424a11d070dc98767f4f5ed6",
                    "decodedLog": {
                        "name": "Approval",
                        "params": [
                            {
                                "name": "owner",
                                "type": "address",
                                "value": "0x000b79f52356189c80a9d3ada3911d4438218516"
                            },
                            {
                                "name": "spender",
                                "type": "address",
                                "value": "0xaa567ec215c286784f4349610da20b518b466198"
                            },
                            {
                                "decimalAvailable": true,
                                "name": "value",
                                "type": "uint256",
                                "value": "1,013,828,813,906,806,326,617"
                            }
                        ],
                        "signature": "Approval(address,address,uint256)"
                    },
                    "id": 1,
                    "logData": "0x000000000000000000000000000000000000000000000036f5b37ec0c2cc4559",
                    "logDecoded": true,
                    "operation": "EVENT",
                    "revert": false,
                    "status": true,
                    "topics": [
                        "0x8c5be1e5ebec7d5bd14f71427d1e84f3dd0314c0f7b2291e5b200ac8c7c3b925",
                        "0x000000000000000000000000000b79f52356189c80a9d3ada3911d4438218516",
                        "0x000000000000000000000000aa567ec215c286784f4349610da20b518b466198"
                    ]
                },
                "nodeType": 1
            }
        },
        "gasFlame": [
            {
                "children": [
                    {
                        "children": [
                            {
                                "children": [],
                                "depth": 0,
                                "name": "Initial Gas",
                                "value": 21668
                            },
                            {
                                "children": [],
                                "depth": 0,
                                "name": "Executed Gas",
                                "value": 23686
                            }
                        ],
                        "depth": -1,
                        "name": "Actual Gas Used",
                        "value": 45354
                    },
                    {
                        "children": [],
                        "depth": -1,
                        "name": "Refunded Gas",
                        "value": 0
                    }
                ],
                "depth": -2,
                "name": "Total Gas",
                "value": 45354
            }
        ],
        "isConfirmed": true,
        "mainTrace": [
            {
                "children": [
                    {
                        "children": [
                            {
                                "children": [],
                                "depth": 1,
                                "id": 1,
                                "order": 1
                            }
                        ],
                        "depth": 0,
                        "id": 0,
                        "order": 0
                    }
                ],
                "depth": -1,
                "id": -1,
                "order": -1
            }
        ],
        "mainTraceNodeCount": 2,
        "parentIdMap": {
            "0": -1,
            "1": 0
        },
        "tidyTrace": [
            {
                "children": [
                    {
                        "children": [
                            {
                                "children": [],
                                "depth": 1,
                                "id": 1,
                                "order": 1
                            }
                        ],
                        "depth": 0,
                        "id": 0,
                        "order": 0
                    }
                ],
                "depth": -1,
                "id": -1,
                "order": -1
            }
        ],
        "tidyTraceNodeCount": 2
    },
    "state_change": {
        "stateChanges": [
            {
                "address": "0x171aabea00881d7f424a11d070dc98767f4f5ed6",
                "erc": "ERC-20",
                "slots": [
                    {
                        "current": "0x000000000000000000000000000000000000000000000036f5b37ec0c2cc4559",
                        "key": "0x921ffc2432d8e1d8f1b11e9beac6a9660a97f41bf064b3d736c37efd9460f794",
                        "prev": "0x0000000000000000000000000000000000000000000000000000000000000000"
                    }
                ],
                "storageVariables": [
                    {
                        "name": "_allowances",
                        "type": "mapping(address => mapping(address => uint256))",
                        "value": {
                            "pairs": [
                                {
                                    "key": "0x000b79f52356189c80a9d3ada3911d4438218516",
                                    "value": {
                                        "pairs": [
                                            {
                                                "key": "0xaa567ec215c286784f4349610da20b518b466198",
                                                "value": {
                                                    "current": "1013828813906806326617",
                                                    "prev": "0",
                                                    "typeTag": 1
                                                }
                                            }
                                        ],
                                        "typeTag": 4
                                    }
                                }
                            ],
                            "typeTag": 4
                        }
                    }
                ]
            }
        ]
    }
}