{
    "balance_change": {
        "balanceChanges": [
            {
                "account": "0x57d935ba0d6e0c2767a4f044b5f4fecfc6a54a57",
                "assets": [
                    {
                        "address": "0xfe3b138879d6d0555be4132dcfe6e7424e257a2e",
                        "amount": "328.14431840024446426",
                        "iconUrl": "",
                        "isERC1155": false,
                        "isERC721": false,
                        "sign": true,
                        "value": "21.95685802"
                    }
                ]
            },
            {
                "account": "0xf266195e1b30b8f536834303c555bd6aaf063f04",
                "assets": [
                    {
                        "address": "0xfe3b138879d6d0555be4132dcfe6e7424e257a2e",
                        "amount": "328.14431840024446426",
                        "iconUrl": "",
                        "isERC1155": false,
                        "isERC721": false,
                        "sign": false,
                        "value": "21.95685802"
                    }
                ]
            }
        ]
    },
    "profile": {
        "basic_info": {
            "baseFee": "13.223504964",
            "blockNumber": 19724461,
            "callData": "0x2e7ba6ef0000000000000000000000000000000000000000000000000000000000006ffd00000000000000000000000057d935ba0d6e0c2767a4f044b5f4fecfc6a54a5700000000000000000000000000000000000000000000001abbd4c02de7e300000000000000000000000000000000000000000000000000000000000000000080000000000000000000000000000000000000000000000000000000000000001009418fa8717b7288a52337194186a06725f07d9ec1620852f1f12c4b1fd87e251e1bd224fcd4a806ab299b9ad40b789adb7feecd59cdf73ac5afd74f4ae3b12956c7c6f15efe28d3c0b2af82d1f2e59d79a5ce8d90849af18722560920d52454dd3f578dc279bc28dcc817e81f111f950fb924d3bc5d5a2cf0d8a54928f8745ac7753fb064acc6347258d0fdf065b88a09e6ae526eba2a3678356be3d932c70aa835ba49097544031e95a80e9effad616bb31d9f81bf6bcbce94928e0c156b0a16ccf36ae5c2f303e0763ece28bca7ac95d6be38da5a0dea9e96cc44f0638935181806279f241003734e72cb86a0565067e70050ec4f63f5005bed68fb69902c1e579cd98bfdcc067fa655bec6466a7048b2ba14f103b82cc74e7dc9813b9116317a87ec0622a56a7f49b5cae6bb9b5cb66fadfc876b8be1cf1991a7fe96495dbcf923794850a6ad78ab8377b975c288f8e4a2ce8a908c35881d13c75b14b87adcc590b6eb921c0dd6feb044a6e4e3349e19dd6e1cbbe7a212d4ac40a784ba42e1c14babe366de20b2b4a33ded12bf541bd203759864752b5e01080c258e26c14938e7e794b5d3bd6deef7453e70e88597a498028d61e62941195e8cbe8f95002c4ebb4eb0607a8aa2c1e9e5d670c0eb370eb712a7dd7e3bb54777b5979894a86e47d45952083640de45a94c89c764932641d8fa7e46339327523303ebb4ed25",
            "debugEnable": true,
            "errorInfo": "",
            "eventCount": 3,
            "feeRecipient": "0x4838b106fce9647bdf1e7877bf73ce8b0bad5f97",
            "formatValue": "0",
            "gasLimit": 190126,
            "gasPrice": "13.230963617",
            "gasUsed": 121421,
            "intTxnCount": 1,
            "internalRevert": false,
            "internalRevertMessage": "",
            "isContractCreation": false,
            "isFlashloan": false,
            "maxFee": "18.014864321",
            "nonce": 33,
            "overwritedBlockNumber": -1,
            "priorityFee": "0.007458653",
            "receiver": "0xf266195e1b30b8f536834303c555bd6aaf063f04",
            "revertMessage": "",
            "sender": "0x57d935ba0d6e0c2767a4f044b5f4fecfc6a54a57",
            "simulationEnable": true,
            "sourceTxnHash": "0x1a675eb2c984f4915c4b29b03f87aa117189216dd9d084ac4006904750bc6b16",
            "status": true,
            "timestamp": "2024-04-24T09:51:35Z",
            "transactionFee": "0.001606516833339757",
            "txnHash": "0x1a675eb2c984f4915c4b29b03f87aa117189216dd9d084ac4006904750bc6b16",
            "txnIndex": 80,
            "type": 2,
            "value": "0"
        },
        "fund_flow": [
            {
                "amount": "328.14431840024446426",
                "from": "0xf266195e1b30b8f536834303c555bd6aaf063f04",
                "id": 1,
                "isERC1155": false,
                "isERC721": false,
                "isReverted": false,
                "order": 1,
                "to": "0x57d935ba0d6e0c2767a4f044b5f4fecfc6a54a57",
                "token": "0xfe3b138879d6d0555be4132dcfe6e7424e257a2e"
            }
        ],
        "token_infos": [
            {
                "address": "0xc02aaa39b223fe8d0a0e5c4f27ead9083c756cc2",
                "decimals": 18
            },
            {
                "address": "0xfe3b138879d6d0555be4132dcfe6e7424e257a2e",
                "decimals": 18
            },
            {
                "address": "0xeeeeeeeeeeeeeeeeeeeeeeeeeeeeeeeeeeeeeeee",
                "decimals": 18
            }
        ]
    },
    "address_label": {
        "labels": [
            {
                "address": "0xf266195e1b30b8f536834303c555bd6aaf063f04",
                "label": "ContinuousVestingMerkle"
            },
            {
                "address": "0xfe3b138879d6d0555be4132dcfe6e7424e257a2e",
                "label": "Soft: SOFT Token"
            },
            {
                "address": "0x0000000000000000000000000000000000000001",
                "label": "Precompiled"
            },
            {
                "address": "0x0000000000000000000000000000000000000002",
                "label": "Precompiled"
            },
            {
                "address": "0x0000000000000000000000000000000000000003",
                "label": "Precompiled"
            },
            {
                "address": "0x0000000000000000000000000000000000000004",
                "label": "Precompiled"
            },
            {
                "address": "0xeeeeeeeeeeeeeeeeeeeeeeeeeeeeeeeeeeeeeeee",
                "label": "Ether"
            }
        ]
    },
    "trace": {
        "accountLabels": null,
        "dataMap": {
            "-1": {
                "invocation": {
                    "address": "0x57d935ba0d6e0c2767a4f044b5f4fecfc6a54a57",
                    "callData": "",
                    "decodedMethod": null,
                    "errorInfo": "",
                    "fromAddress": "",
                    "gasUsed": 0,
                    "id": -1,
                    "methodDecoded": false,
                    "operation": "",
                    "output": "",
                    "revert": false,
                    "revertMessage": "",
                    "selector": "",
                    "status": false,
                    "value": ""
                },
                "nodeType": 0
            },
            "0": {
                "invocation": {
                    "address": "0xf266195e1b30b8f536834303c555bd6aaf063f04",
                    "callData": "0x0000000000000000000000000000000000000000000000000000000000006ffd00000000000000000000000057d935ba0d6e0c2767a4f044b5f4fecfc6a54a5700000000000000000000000000000000000000000000001abbd4c02de7e300000000000000000000000000000000000000000000000000000000000000000080000000000000000000000000000000000000000000000000000000000000001009418fa8717b7288a52337194186a06725f07d9ec1620852f1f12c4b1fd87e251e1bd224fcd4a806ab299b9ad40b789adb7feecd59cdf73ac5afd74f4ae3b12956c7c6f15efe28d3c0b2af82d1f2e59d79a5ce8d90849af18722560920d52454dd3f578dc279bc28dcc817e81f111f950fb924d3bc5d5a2cf0d8a54928f8745ac7753fb064acc6347258d0fdf065b88a09e6ae526eba2a3678356be3d932c70aa835ba49097544031e95a80e9effad616bb31d9f81bf6bcbce94928e0c156b0a16ccf36ae5c2f303e0763ece28bca7ac95d6be38da5a0dea9e96cc44f0638935181806279f241003734e72cb86a0565067e70050ec4f63f5005bed68fb69902c1e579cd98bfdcc067fa655bec6466a7048b2ba14f103b82cc74e7dc9813b9116317a87ec0622a56a7f49b5cae6bb9b5cb66fadfc876b8be1cf1991a7fe96495dbcf923794850a6ad78ab8377b975c288f8e4a2ce8a908c35881d13c75b14b87adcc590b6eb921c0dd6feb044a6e4e3349e19dd6e1cbbe7a212d4ac40a784ba42e1c14babe366de20b2b4a33ded12bf541bd203759864752b5e01080c258e26c14938e7e794b5d3bd6deef7453e70e88597a498028d61e62941195e8cbe8f95002c4ebb4eb0607a8aa2c1e9e5d670c0eb370eb712a7dd7e3bb54777b5979894a86e47d45952083640de45a94c89c764932641d8fa7e46339327523303ebb4ed25",
                    "decodedMethod": {
                        "callParams": [
                            {
                                "name": "index",
                                "type": "uint256",
                                "value": "28,669"
                            },
                            {
                                "name": "beneficiary",
                                "type": "address",
                                "value": "0x57d935ba0d6e0c2767a4f044b5f4fecfc6a54a57"
                            },
                            {
                                "name": "amount",
                                "type": "uint256",
                                "value": "493,150,000,000,000,000,000"
                            },
                            {
                                "name": "merkleProof",
                                "type": "bytes32[]",
                                "value": [
                                    "0x09418fa8717b7288a52337194186a06725f07d9ec1620852f1f12c4b1fd87e25",
                                    "0x1e1bd224fcd4a806ab299b9ad40b789adb7feecd59cdf73ac5afd74f4ae3b129",
                                    "0x56c7c6f15efe28d3c0b2af82d1f2e59d79a5ce8d90849af18722560920d52454",
                                    "0xdd3f578dc279bc28dcc817e81f111f950fb924d3bc5d5a2cf0d8a54928f8745a",
                                    "0xc7753fb064acc6347258d0fdf065b88a09e6ae526eba2a3678356be3d932c70a",
                                    "0xa835ba49097544031e95a80e9effad616bb31d9f81bf6bcbce94928e0c156b0a",
                                    "0x16ccf36ae5c2f303e0763ece28bca7ac95d6be38da5a0dea9e96cc44f0638935",
                                    "0x181806279f241003734e72cb86a0565067e70050ec4f63f5005bed68fb69902c",
                                    "0x1e579cd98bfdcc067fa655bec6466a7048b2ba14f103b82cc74e7dc9813b9116",
                                    "0x317a87ec0622a56a7f49b5cae6bb9b5cb66fadfc876b8be1cf1991a7fe96495d",
                                    "0xbcf923794850a6ad78ab8377b975c288f8e4a2ce8a908c35881d13c75b14b87a",
                                    "0xdcc590b6eb921c0dd6feb044a6e4e3349e19dd6e1cbbe7a212d4ac40a784ba42",
                                    "0xe1c14babe366de20b2b4a33ded12bf541bd203759864752b5e01080c258e26c1",
                                    "0x4938e7e794b5d3bd6deef7453e70e88597a498028d61e62941195e8cbe8f9500",
                                    "0x2c4ebb4eb0607a8aa2c1e9e5d670c0eb370eb712a7dd7e3bb54777b5979894a8",
                                    "0x6e47d45952083640de45a94c89c764932641d8fa7e46339327523303ebb4ed25"
                                ]
                            }
                        ],
                        "constructorArguments": "",
                        "name": "claim",
                        "returnParams": [],
                        "signature": "claim(uint256,address,uint256,bytes32[])"
                    },
                    "errorInfo": "",
                    "fromAddress": "0x57d935ba0d6e0c2767a4f044b5f4fecfc6a54a57",
                    "gasUsed": 121421,
                    "id": 0,
                    "methodDecoded": true,
                    "operation": "CALL",
                    "output": "",
                    "revert": false,
                    "revertMessage": "",
                    "selector": "0x2e7ba6ef",
                    "status": true,
                    "value": "0"
                },
                "nodeType": 0
            },
            "1": {
                "event": {
                    "contract": "0xf266195e1b30b8f536834303c555bd6aaf063f04",
                    "decodedLog": {
                        "name": "InitializeDistributionRecord",
                        "params": [
                            {
                                "name": "beneficiary",
                                "type": "address",
                                "value": "0x57d935ba0d6e0c2767a4f044b5f4fecfc6a54a57"
                            },
                            {
                                "name": "amount",
                                "type": "uint256",
                                "value": "493,150,000,000,000,000,000"
                            }
                        ],
                        "signature": "InitializeDistributionRecord(address,uint256)"
                    },
                    "id": 1,
                    "logData": "0x00000000000000000000000000000000000000000000001abbd4c02de7e30000",
                    "logDecoded": true,
                    "operation": "EVENT",
                    "revert": false,
                    "status": true,
                    "topics": [
                        "0xdb598eb8e0a3d3d5c2e02e4cab1ee8b65bb20e48fc7b42f4c76272de4cdd2434",
                        "0x00000000000000000000000057d935ba0d6e0c2767a4f044b5f4fecfc6a54a57"
                    ]
                },
                "nodeType": 1
            },
            "2": {
                "invocation": {
                    "address": "0xfe3b138879d6d0555be4132dcfe6e7424e257a2e",
                    "callData": "0x00000000000000000000000057d935ba0d6e0c2767a4f044b5f4fecfc6a54a57000000000000000000000000000000000000000000000011c9eacf007d3fba84",
                    "decodedMethod": {
                        "callParams": [
                            {
                                "name": "to",
                                "type": "address",
                                "value": "0x57d935ba0d6e0c2767a4f044b5f4fecfc6a54a57"
                            },
                            {
                                "decimalAvailable": true,
                                "name": "amount",
                                "type": "uint256",
                                "value": "328,144,318,400,244,464,260"
                            }
                        ],
                        "constructorArguments": "",
                        "name": "transfer",
                        "returnParams": [
                            {
                                "name": "",
                                "type": "bool",
                                "value": true
                            }
                        ],
                        "signature": "transfer(address,uint256)"
                    },
                    "errorInfo": "",
                    "fromAddress": "0xf266195e1b30b8f536834303c555bd6aaf063f04",
                    "gasUsed": 34493,
                    "id": 2,
                    "methodDecoded": true,
                    "operation": "CALL",
                    "output": "0x0000000000000000000000000000000000000000000000000000000000000001",
                    "revert": false,
                    "revertMessage": "",
                    "selector": "0xa9059cbb",
                    "status": true,
                    "value": "0"
                },
                "nodeType": 0
            },
            "3": {
                "event": {
                    "contract": "0xfe3b138879d6d0555be4132dcfe6e7424e257a2e",
                    "decodedLog": {
                        "name": "Transfer",
                        "params": [
                            {
                                "name": "from",
                                "type": "address",
                                "value": "0xf266195e1b30b8f536834303c555bd6aaf063f04"
                            },
                            {
                                "name": "to",
                                "type": "address",
                                "value": "0x57d935ba0d6e0c2767a4f044b5f4fecfc6a54a57"
                            },
                            {
                                "decimalAvailable": true,
                                "name": "value",
                                "type": "uint256",
                                "value": "328,144,318,400,244,464,260"
                            }
                        ],
                        "signature": "Transfer(address,address,uint256)"
                    },
                    "id": 3,
                    "logData": "0x000000000000000000000000000000000000000000000011c9eacf007d3fba84",
                    "logDecoded": true,
                    "operation": "EVENT",
                    "revert": false,
                    "status": true,
                    "topics": [
                        "0xddf252ad1be2c89b69c2b068fc378daa952ba7f163c4a11628f55a4df523b3ef",
                        "0x000000000000000000000000f266195e1b30b8f536834303c555bd6aaf063f04",
                        "0x00000000000000000000000057d935ba0d6e0c2767a4f044b5f4fecfc6a54a57"
                    ]
                },
                "nodeType": 1
            },
            "4": {
                "event": {
                    "contract": "0xf266195e1b30b8f536834303c555bd6aaf063f04",
                    "decodedLog": {
                        "name": "Claim",
                        "params": [
                            {
                                "name": "beneficiary",
                                "type": "address",
                                "value": "0x57d935ba0d6e0c2767a4f044b5f4fecfc6a54a57"
                            },
                            {
                                "name": "amount",
                                "type": "uint256",
                                "value": "328,144,318,400,244,464,260"
                            }
                        ],
                        "signature": "Claim(address,uint256)"
                    },
                    "id": 4,
                    "logData": "0x000000000000000000000000000000000000000000000011c9eacf007d3fba84",
                    "logDecoded": true,
                    "operation": "EVENT",
                    "revert": false,
                    "status": true,
                    "topics": [
                        "0x47cee97cb7acd717b3c0aa1435d004cd5b3c8c57d70dbceb4e4458bbd60e39d4",
                        "0x00000000000000000000000057d935ba0d6e0c2767a4f044b5f4fecfc6a54a57"
                    ]
                },
                "nodeType": 1
            }
        },
        "gasFlame": [
            {
                "children": [
                    {
                        "children": [
                            {
                                "children": [],
                                "depth": 0,
                                "name": "Initial Gas",
                                "value": 30232
                            },
                            {
                                "children": [
                                    {
                                        "children": [],
                                        "depth": 1,
                                        "name": "transfer",
                                        "value": 34493
                                    }
                                ],
                                "depth": 0,
                                "name": "Executed Gas",
                                "value": 93989
                            }
                        ],
                        "depth": -1,
                        "name": "Actual Gas Used",
                        "value": 121421
                    },
                    {
                        "children": [],
                        "depth": -1,
                        "name": "Refunded Gas",
                        "value": 2800
                    }
                ],
                "depth": -2,
                "name": "Total Gas",
                "value": 124221
            }
        ],
        "isConfirmed": true,
        "mainTrace": [
            {
                "children": [
                    {
                        "children": [
                            {
                                "children": [],
                                "depth": 1,
                                "id": 1,
                                "order": 1
                            },
                            {
                                "children": [
                                    {
                                        "children": [],
                                        "depth": 2,
                                        "id": 3,
                                        "order": 3
                                    }
                                ],
                                "depth": 1,
                                "id": 2,
                                "order": 2
                            },
                            {
                                "children": [],
                                "depth": 1,
                                "id": 4,
                                "order": 4
                            }
                        ],
                        "depth": 0,
                        "id": 0,
                        "order": 0
                    }
                ],
                "depth": -1,
                "id": -1,
                "order": -1
            }
        ],
        "mainTraceNodeCount": 5,
        "parentIdMap": {
            "0": -1,
            "1": 0,
            "2": 0,
            "3": 2,
            "4": 0
        },
        "tidyTrace": [
            {
                "children": [
                    {
                        "children": [
                            {
                                "children": [],
                                "depth": 1,
                                "id": 1,
                                "order": 1
                            },
                            {
                                "children": [
                                    {
                                        "children": [],
                                        "depth": 2,
                                        "id": 3,
                                        "order": 3
                                    }
                                ],
                                "depth": 1,
                                "id": 2,
                                "order": 2
                            },
                            {
                                "children": [],
                                "depth": 1,
                                "id": 4,
                                "order": 4
                            }
                        ],
                        "depth": 0,
                        "id": 0,
                        "order": 0
                    }
                ],
                "depth": -1,
                "id": -1,
                "order": -1
            }
        ],
        "tidyTraceNodeCount": 5
    },
    "state_change": {
        "stateChanges": [
            {
                "address": "0xf266195e1b30b8f536834303c555bd6aaf063f04",
                "erc": "",
                "slots": [
                    {
                        "current": "0x0000000000000011c9eacf007d3fba840000000000001abbd4c02de7e3000001",
                        "key": "0x19ce4101aefddc624c83e1c188c731a61aa479fa3b52c48a8bcc384e71b4bc45",
                        "prev": "0x0000000000000000000000000000000000000000000000000000000000000000"
                    },
                    {
                        "current": "0x0000000000000000000000000000000000000000000191a6079687fa82f8c7ca",
                        "key": "0x0000000000000000000000000000000000000000000000000000000000000005",
                        "prev": "0x0000000000000000000000000000000000000000000191943dabb8fa05b90d46"
                    }
                ],
                "storageVariables": [
                    {
                        "name": "records",
                        "type": "mapping(address => struct DistributionRecord)",
                        "value": {
                            "pairs": [
                                {
                                    "key": "0x57d935ba0d6e0c2767a4f044b5f4fecfc6a54a57",
                                    "value": {
                                        "fields": [
                                            {
                                                "name": "initialized",
                                                "type": "bool",
                                                "value": {
                                                    "current": "true",
                                                    "prev": "false",
                                                    "typeTag": 1
                                                }
                                            },
                                            {
                                                "name": "total",
                                                "type": "uint120",
                                                "value": {
                                                    "current": "493150000000000000000",
                                                    "prev": "0",
                                                    "typeTag": 1
                                                }
                                            },
                                            {
                                                "name": "claimed",
                                                "type": "uint120",
                                                "value": {
                                                    "current": "328144318400244464260",
                                                    "prev": "0",
                                                    "typeTag": 1
                                                }
                                            }
                                        ],
                                        "typeTag": 3
                                    }
                                }
                            ],
                            "typeTag": 4
                        }
                    },
                    {
                        "name": "claimed",
                        "type": "uint256",
                        "value": {
                            "current": "1896731665920878297270218",
                            "prev": "1896403521602478052805958",
                            "typeTag": 1
                        }
                    }
                ]
            },
            {
                "address": "0xfe3b138879d6d0555be4132dcfe6e7424e257a2e",
                "erc": "ERC-20",
                "slots": [
                    {
                        "current": "0x00000000000000000000000000000000000000000011a257565eebeb32f13836",
                        "key": "0x9cd491cab775a5396204cfdf620aa381b05f2ed0f771de05a4741a65642a7c5f",
                        "prev": "0x00000000000000000000000000000000000000000011a2692049baebb030f2ba"
                    },
                    {
                        "current": "0x000000000000000000000000000000000000000000000011c9eacf007d3fba84",
                        "key": "0x216c092283279c329d857bddd02e4e0af82925d4bbc4b1a02ffccbc9e96ce31c",
                        "prev": "0x0000000000000000000000000000000000000000000000000000000000000000"
                    }
                ],
                "storageVariables": [
                    {
                        "name": "_balances",
                        "type": "mapping(address => uint256)",
                        "value": {
                            "pairs": [
                                {
                                    "key": "0x57d935ba0d6e0c2767a4f044b5f4fecfc6a54a57",
                                    "value": {
                                        "current": "328144318400244464260",
                                        "prev": "0",
                                        "typeTag": 1
                                    }
                                },
                                {
                                    "key": "0xf266195e1b30b8f536834303c555bd6aaf063f04",
                                    "value": {
                                        "current": "21318373394079121702729782",
                                        "prev": "21318701538397521947194042",
                                        "typeTag": 1
                                    }
                                }
                            ],
                            "typeTag": 4
                        }
                    }
                ]
            }
        ]
    }
}