{
    "balance_change": {
        "balanceChanges": [
            {
                "account": "0x235797d2d197343c954630bdfc60047aef0e6a49",
                "assets": [
                    {
                        "address": "0xba100000625a3754423978a60c9317c58a424e3d",
                        "amount": "4.4",
                        "iconUrl": "https://assets.blocksec.com/icon/c54e5d3686cfdcd5b83c30277395a4080808ff7cc373adffe8bd60843e2b8a99.png",
                        "isERC1155": false,
                        "isERC721": false,
                        "sign": false,
                        "value": ""
                    }
                ]
            },
            {
                "account": "0xf58e6752a111cd2c4991bb36fa579a187262bd11",
                "assets": [
                    {
                        "address": "0xba100000625a3754423978a60c9317c58a424e3d",
                        "amount": "4.4",
                        "iconUrl": "https://assets.blocksec.com/icon/c54e5d3686cfdcd5b83c30277395a4080808ff7cc373adffe8bd60843e2b8a99.png",
                        "isERC1155": false,
                        "isERC721": false,
                        "sign": true,
                        "value": ""
                    }
                ]
            }
        ]
    },
    "profile": {
        "basic_info": {
            "baseFee": "",
            "blockNumber": 11923755,
            "callData": "0xa9059cbb000000000000000000000000f58e6752a111cd2c4991bb36fa579a187262bd110000000000000000000000000000000000000000000000003d0ff0b013b80000",
            "debugEnable": true,
            "errorInfo": "",
            "eventCount": 1,
            "feeRecipient": "0x00192fb10df37c9fb26829eb2cc623cd1bf599e8",
            "formatValue": "0",
            "gasLimit": 68571,
            "gasPrice": "200",
            "gasUsed": 57143,
            "intTxnCount": 0,
            "internalRevert": false,
            "internalRevertMessage": "",
            "isContractCreation": false,
            "isFlashloan": false,
            "maxFee": "",
            "nonce": 17,
            "overwritedBlockNumber": -1,
            "priorityFee": "",
            "receiver": "0xba100000625a3754423978a60c9317c58a424e3d",
            "revertMessage": "",
            "sender": "0x235797d2d197343c954630bdfc60047aef0e6a49",
            "simulationEnable": true,
            "sourceTxnHash": "0x1a57847d6e34e2e5a8bb4efa9076b7464fb04921694b2082b64e0e03b43a2648",
            "status": true,
            "timestamp": "2021-02-25T02:59:40Z",
            "transactionFee": "0.0114286",
            "txnHash": "0x1a57847d6e34e2e5a8bb4efa9076b7464fb04921694b2082b64e0e03b43a2648",
            "txnIndex": 37,
            "type": 0,
            "value": "0"
        },
        "fund_flow": [
            {
                "amount": "4.4",
                "from": "0x235797d2d197343c954630bdfc60047aef0e6a49",
                "id": 1,
                "isERC1155": false,
                "isERC721": false,
                "isReverted": false,
                "order": 1,
                "to": "0xf58e6752a111cd2c4991bb36fa579a187262bd11",
                "token": "0xba100000625a3754423978a60c9317c58a424e3d"
            }
        ],
        "token_infos": [
            {
                "address": "0xba100000625a3754423978a60c9317c58a424e3d",
                "decimals": 18
            },
            {
                "address": "0xc02aaa39b223fe8d0a0e5c4f27ead9083c756cc2",
                "decimals": 18
            },
            {
                "address": "0xeeeeeeeeeeeeeeeeeeeeeeeeeeeeeeeeeeeeeeee",
                "decimals": 18
            }
        ]
    },
    "address_label": {
        "labels": [
            {
                "address": "0x0000000000000000000000000000000000000003",
                "label": "Precompiled"
            },
            {
                "address": "0x0000000000000000000000000000000000000004",
                "label": "Precompiled"
            },
            {
                "address": "0xeeeeeeeeeeeeeeeeeeeeeeeeeeeeeeeeeeeeeeee",
                "label": "Ether"
            },
            {
                "address": "0xba100000625a3754423978a60c9317c58a424e3d",
                "label": "Balancer: BAL Token"
            },
            {
                "address": "0xf58e6752a111cd2c4991bb36fa579a187262bd11",
                "label": "GEMINI"
            },
            {
                "address": "0x0000000000000000000000000000000000000001",
                "label": "Precompiled"
            },
            {
                "address": "0x0000000000000000000000000000000000000002",
                "label": "Precompiled"
            }
        ]
    },
    "trace": {
        "accountLabels": null,
        "dataMap": {
            "-1": {
                "invocation": {
                    "address": "0x235797d2d197343c954630bdfc60047aef0e6a49",
                    "callData": "",
                    "decodedMethod": null,
                    "errorInfo": "",
                    "fromAddress": "",
                    "gasUsed": 0,
                    "id": -1,
                    "methodDecoded": false,
                    "operation": "",
                    "output": "",
                    "revert": false,
                    "revertMessage": "",
                    "selector": "",
                    "status": false,
                    "value": ""
                },
                "nodeType": 0
            },
            "0": {
                "invocation": {
                    "address": "0xba100000625a3754423978a60c9317c58a424e3d",
                    "callData": "0x000000000000000000000000f58e6752a111cd2c4991bb36fa579a187262bd110000000000000000000000000000000000000000000000003d0ff0b013b80000",
                    "decodedMethod": {
                        "callParams": [
                            {
                                "name": "recipient",
                                "type": "address",
                                "value": "0xf58e6752a111cd2c4991bb36fa579a187262bd11"
                            },
                            {
                                "decimalAvailable": true,
                                "name": "amount",
                                "type": "uint256",
                                "value": "4,400,000,000,000,000,000"
                            }
                        ],
                        "constructorArguments": "",
                        "name": "transfer",
                        "returnParams": [
                            {
                                "name": "",
                                "type": "bool",
                                "value": true
                            }
                        ],
                        "signature": "transfer(address,uint256)"
                    },
                    "errorInfo": "",
                    "fromAddress": "0x235797d2d197343c954630bdfc60047aef0e6a49",
                    "gasUsed": 57143,
                    "id": 0,
                    "methodDecoded": true,
                    "operation": "CALL",
                    "output": "0x0000000000000000000000000000000000000000000000000000000000000001",
                    "revert": false,
                    "revertMessage": "",
                    "selector": "0xa9059cbb",
                    "status": true,
                    "value": "0"
                },
                "nodeType": 0
            },
            "1": {
                "event": {
                    "contract": "0xba100000625a3754423978a60c9317c58a424e3d",
                    "decodedLog": {
                        "name": "Transfer",
                        "params": [
                            {
                                "name": "from",
                                "type": "address",
                                "value": "0x235797d2d197343c954630bdfc60047aef0e6a49"
                            },
                            {
                                "name": "to",
                                "type": "address",
                                "value": "0xf58e6752a111cd2c4991bb36fa579a187262bd11"
                            },
                            {
                                "decimalAvailable": true,
                                "name": "value",
                                "type": "uint256",
                                "value": "4,400,000,000,000,000,000"
                            }
                        ],
                        "signature": "Transfer(address,address,uint256)"
                    },
                    "id": 1,
                    "logData": "0x0000000000000000000000000000000000000000000000003d0ff0b013b80000",
                    "logDecoded": true,
                    "operation": "EVENT",
                    "revert": false,
                    "status": true,
                    "topics": [
                        "0xddf252ad1be2c89b69c2b068fc378daa952ba7f163c4a11628f55a4df523b3ef",
                        "0x000000000000000000000000235797d2d197343c954630bdfc60047aef0e6a49",
                        "0x000000000000000000000000f58e6752a111cd2c4991bb36fa579a187262bd11"
                    ]
                },
                "nodeType": 1
            }
        },
        "gasFlame": [
            {
                "children": [
                    {
                        "children": [
                            {
                                "children": [],
                                "depth": 0,
                                "name": "Initial Gas",
                                "value": 21632
                            },
                            {
                                "children": [],
                                "depth": 0,
                                "name": "Executed Gas",
                                "value": 35511
                            }
                        ],
                        "depth": -1,
                        "name": "Actual Gas Used",
                        "value": 57143
                    },
                    {
                        "children": [],
                        "depth": -1,
                        "name": "Refunded Gas",
                        "value": 0
                    }
                ],
                "depth": -2,
                "name": "Total Gas",
                "value": 57143
            }
        ],
        "isConfirmed": true,
        "mainTrace": [
            {
                "children": [
                    {
                        "children": [
                            {
                                "children": [],
                                "depth": 1,
                                "id": 1,
                                "order": 1
                            }
                        ],
                        "depth": 0,
                        "id": 0,
                        "order": 0
                    }
                ],
                "depth": -1,
                "id": -1,
                "order": -1
            }
        ],
        "mainTraceNodeCount": 2,
        "parentIdMap": {
            "0": -1,
            "1": 0
        },
        "tidyTrace": [
            {
                "children": [
                    {
                        "children": [
                            {
                                "children": [],
                                "depth": 1,
                                "id": 1,
                                "order": 1
                            }
                        ],
                        "depth": 0,
                        "id": 0,
                        "order": 0
                    }
                ],
                "depth": -1,
                "id": -1,
                "order": -1
            }
        ],
        "tidyTraceNodeCount": 2
    },
    "state_change": {
        "stateChanges": [
            {
                "address": "0xba100000625a3754423978a60c9317c58a424e3d",
                "erc": "ERC-20",
                "slots": [
                    {
                        "current": "0x0000000000000000000000000000000000000000000000008feb39b5d076a800",
                        "key": "0xfbe93430bb9a64abf1a8a77c30b7db6d0cea993f1b7cd7158c5b831c530d7365",
                        "prev": "0x000000000000000000000000000000000000000000000000ccfb2a65e42ea800"
                    },
                    {
                        "current": "0x0000000000000000000000000000000000000000000000003d0ff0b013b80000",
                        "key": "0x01ee134c238839abe339a203a7b4c9e9a6eb639031a1866170befa18628792e5",
                        "prev": "0x0000000000000000000000000000000000000000000000000000000000000000"
                    }
                ],
                "storageVariables": [
                    {
                        "name": "_balances",
                        "type": "mapping(address => uint256)",
                        "value": {
                            "pairs": [
                                {
                                    "key": "0x235797d2d197343c954630bdfc60047aef0e6a49",
                                    "value": {
                                        "current": "10370446020000000000",
                                        "prev": "14770446020000000000",
                                        "typeTag": 1
                                    }
                                },
                                {
                                    "key": "0xf58e6752a111cd2c4991bb36fa579a187262bd11",
                                    "value": {
                                        "current": "4400000000000000000",
                                        "prev": "0",
                                        "typeTag": 1
                                    }
                                }
                            ],
                            "typeTag": 4
                        }
                    }
                ]
            }
        ]
    }
}