{
    "balance_change": {
        "balanceChanges": [
            {
                "account": "0x989dd6287a56843368839e9cef221139ddd56a44",
                "assets": [
                    {
                        "address": "0xeeeeeeeeeeeeeeeeeeeeeeeeeeeeeeeeeeeeeeee",
                        "amount": "0.204",
                        "iconUrl": "https://assets.blocksec.com/image/1663669189317-3.png",
                        "isERC1155": false,
                        "isERC721": false,
                        "sign": false,
                        "value": "259.5210180134203447"
                    },
                    {
                        "address": "0x9ae380f0272e2162340a5bb646c354271c0f5cfc",
                        "amount": "87.621583782674984684",
                        "iconUrl": "",
                        "isERC1155": false,
                        "isERC721": false,
                        "sign": true,
                        "value": "247.0080573"
                    }
                ]
            },
            {
                "account": "0x838af967537350d2c44abb8c010e49e32673ab94",
                "assets": [
                    {
                        "address": "0xeeeeeeeeeeeeeeeeeeeeeeeeeeeeeeeeeeeeeeee",
                        "amount": "0.204",
                        "iconUrl": "https://assets.blocksec.com/image/1663669189317-3.png",
                        "isERC1155": false,
                        "isERC721": false,
                        "sign": true,
                        "value": "259.5210180134203447"
                    },
                    {
                        "address": "0x9ae380f0272e2162340a5bb646c354271c0f5cfc",
                        "amount": "87.621583782674984684",
                        "iconUrl": "",
                        "isERC1155": false,
                        "isERC721": false,
                        "sign": false,
                        "value": "247.0080573"
                    }
                ]
            }
        ]
    },
    "profile": {
        "basic_info": {
            "baseFee": "9.560574325",
            "blockNumber": 16078872,
            "callData": "0x9db4f7aa000000000000000000000000eeeeeeeeeeeeeeeeeeeeeeeeeeeeeeeeeeeeeeee000000000000000000000000838af967537350d2c44abb8c010e49e32673ab940000000000000000000000009ae380f0272e2162340a5bb646c354271c0f5cfc00000000000000000000000000000000000000000000000000000000000000000000000000000000000000000000000000000000000000000000000000000000000000000000000000000000000000000000000000000000000000000000000000000000000000000000000000000000000000000000000000000000000000000000000000000000000000000000000000000000000000000000000000000000000000000000000000000000000000000000000000000000000000000000000000000000000000000000000000000000000000000000000000000000000000000000000000000000000000000000000000000000000000000000000000000001000000000000000000000000000000000000000000000000000000000000000300000000000000000000000000000000000000000000000000000000000000000000000000000000000000000000000000000000000000000000000000000000000000000000000000000000000000000000000000000000000000000000000000000000000000000000000000000000000000000000000000000000000000000000000000000000000000000000000000000000000000000000000000000000000000000000000000000000000000000000000000000000000000000000000000000000000000000000000000000000000000000000000000000000000000000000000000000000000000000000000000000000000000000000000000000000000000000000000000000000000000000000000000000000000000000000000000000000000000000000000000000000000000000000000002d4c0eb4e2e0000000000000000000000000000000000000000000000000004bec71ad857726cc30000000000000000000000000000000000000000000000000000000000000000000000000000000000000000000000000000000000000000000000000000000000000000000000000000000000000000000000000000000000000000000000000000000000000000000000000000000000000000000000000000000000000000",
            "debugEnable": true,
            "errorInfo": "",
            "eventCount": 3,
            "feeRecipient": "0x690b9a9e9aa1c9db991c7721a92d351db4fac990",
            "formatValue": "0.204",
            "gasLimit": 393088,
            "gasPrice": "11.560574325",
            "gasUsed": 262516,
            "intTxnCount": 9,
            "internalRevert": false,
            "internalRevertMessage": "",
            "isContractCreation": false,
            "isFlashloan": false,
            "maxFee": "14",
            "nonce": 0,
            "overwritedBlockNumber": -1,
            "priorityFee": "2",
            "receiver": "0x55b916ce078ea594c10a874ba67ecc3d62e29822",
            "revertMessage": "",
            "sender": "0x989dd6287a56843368839e9cef221139ddd56a44",
            "simulationEnable": true,
            "sourceTxnHash": "0x1aa4707d94c2925af6b83f957c31de1c72efb6159bad8a1efdb14285df5c70b9",
            "status": true,
            "timestamp": "2022-11-29T23:17:35Z",
            "transactionFee": "0.0030348357295017",
            "txnHash": "0x1aa4707d94c2925af6b83f957c31de1c72efb6159bad8a1efdb14285df5c70b9",
            "txnIndex": 43,
            "type": 2,
            "value": "204000000000000000"
        },
        "fund_flow": [
            {
                "amount": "0.204",
                "from": "0x989dd6287a56843368839e9cef221139ddd56a44",
                "id": 1,
                "isERC1155": false,
                "isERC721": false,
                "isReverted": false,
                "order": 1,
                "to": "0x55b916ce078ea594c10a874ba67ecc3d62e29822",
                "token": "0xeeeeeeeeeeeeeeeeeeeeeeeeeeeeeeeeeeeeeeee"
            },
            {
                "amount": "0.204",
                "from": "0x55b916ce078ea594c10a874ba67ecc3d62e29822",
                "id": 2,
                "isERC1155": false,
                "isERC721": false,
                "isReverted": false,
                "order": 2,
                "to": "0x838af967537350d2c44abb8c010e49e32673ab94",
                "token": "0xeeeeeeeeeeeeeeeeeeeeeeeeeeeeeeeeeeeeeeee"
            },
            {
                "amount": "87.621583782674984684",
                "from": "0x838af967537350d2c44abb8c010e49e32673ab94",
                "id": 3,
                "isERC1155": false,
                "isERC721": false,
                "isReverted": false,
                "order": 3,
                "to": "0x55b916ce078ea594c10a874ba67ecc3d62e29822",
                "token": "0x9ae380f0272e2162340a5bb646c354271c0f5cfc"
            },
            {
                "amount": "87.621583782674984684",
                "from": "0x55b916ce078ea594c10a874ba67ecc3d62e29822",
                "id": 4,
                "isERC1155": false,
                "isERC721": false,
                "isReverted": false,
                "order": 4,
                "to": "0x989dd6287a56843368839e9cef221139ddd56a44",
                "token": "0x9ae380f0272e2162340a5bb646c354271c0f5cfc"
            }
        ],
        "token_infos": [
            {
                "address": "0xc02aaa39b223fe8d0a0e5c4f27ead9083c756cc2",
                "decimals": 18
            },
            {
                "address": "0xeeeeeeeeeeeeeeeeeeeeeeeeeeeeeeeeeeeeeeee",
                "decimals": 18
            },
            {
                "address": "0x9ae380f0272e2162340a5bb646c354271c0f5cfc",
                "decimals": 18
            }
        ]
    },
    "address_label": {
        "labels": [
            {
                "address": "0x9ae380f0272e2162340a5bb646c354271c0f5cfc",
                "label": "Conic Finance: CNC Token"
            },
            {
                "address": "0xf9835375f6b268743ea0a54d742aa156947f8c06",
                "label": "Curve.fi Factory Crypto Pool: CNC/... (CNCETH-f)"
            },
            {
                "address": "0x0000000000000000000000000000000000000004",
                "label": "Precompiled"
            },
            {
                "address": "0xa85461afc2deec01bda23b5cd267d51f765fba10",
                "label": "0xa854_Vyper_contract"
            },
            {
                "address": "0x0000000000000000000000000000000000000000",
                "label": "Null Address"
            },
            {
                "address": "0x0000000000000000000000000000000000000003",
                "label": "Precompiled"
            },
            {
                "address": "0x838af967537350d2c44abb8c010e49e32673ab94",
                "label": "Curve.fi Factory Pool: CNC/ETH"
            },
            {
                "address": "0xc08550a4cc5333f40e593ecc4c4724808085d304",
                "label": "0xc085_Vyper_contract"
            },
            {
                "address": "0x0000000000000000000000000000000000000001",
                "label": "Precompiled"
            },
            {
                "address": "0x0000000000000000000000000000000000000002",
                "label": "Precompiled"
            },
            {
                "address": "0xeeeeeeeeeeeeeeeeeeeeeeeeeeeeeeeeeeeeeeee",
                "label": "Ether"
            },
            {
                "address": "0x55b916ce078ea594c10a874ba67ecc3d62e29822",
                "label": "0x55b9_Vyper_contract"
            }
        ]
    },
    "trace": {
        "accountLabels": null,
        "dataMap": {
            "-1": {
                "invocation": {
                    "address": "0x989dd6287a56843368839e9cef221139ddd56a44",
                    "callData": "",
                    "decodedMethod": null,
                    "errorInfo": "",
                    "fromAddress": "",
                    "gasUsed": 0,
                    "id": -1,
                    "methodDecoded": false,
                    "operation": "",
                    "output": "",
                    "revert": false,
                    "revertMessage": "",
                    "selector": "",
                    "status": false,
                    "value": ""
                },
                "nodeType": 0
            },
            "0": {
                "invocation": {
                    "address": "0x55b916ce078ea594c10a874ba67ecc3d62e29822",
                    "callData": "0x000000000000000000000000eeeeeeeeeeeeeeeeeeeeeeeeeeeeeeeeeeeeeeee000000000000000000000000838af967537350d2c44abb8c010e49e32673ab940000000000000000000000009ae380f0272e2162340a5bb646c354271c0f5cfc00000000000000000000000000000000000000000000000000000000000000000000000000000000000000000000000000000000000000000000000000000000000000000000000000000000000000000000000000000000000000000000000000000000000000000000000000000000000000000000000000000000000000000000000000000000000000000000000000000000000000000000000000000000000000000000000000000000000000000000000000000000000000000000000000000000000000000000000000000000000000000000000000000000000000000000000000000000000000000000000000000000000000000000000000000001000000000000000000000000000000000000000000000000000000000000000300000000000000000000000000000000000000000000000000000000000000000000000000000000000000000000000000000000000000000000000000000000000000000000000000000000000000000000000000000000000000000000000000000000000000000000000000000000000000000000000000000000000000000000000000000000000000000000000000000000000000000000000000000000000000000000000000000000000000000000000000000000000000000000000000000000000000000000000000000000000000000000000000000000000000000000000000000000000000000000000000000000000000000000000000000000000000000000000000000000000000000000000000000000000000000000000000000000000000000000000000000000000000000000000002d4c0eb4e2e0000000000000000000000000000000000000000000000000004bec71ad857726cc30000000000000000000000000000000000000000000000000000000000000000000000000000000000000000000000000000000000000000000000000000000000000000000000000000000000000000000000000000000000000000000000000000000000000000000000000000000000000000000000000000000000000000",
                    "decodedMethod": {
                        "callParams": [
                            {
                                "name": "_route",
                                "type": "address[9]",
                                "value": [
                                    "0xeeeeeeeeeeeeeeeeeeeeeeeeeeeeeeeeeeeeeeee",
                                    "0x838af967537350d2c44abb8c010e49e32673ab94",
                                    "0x9ae380f0272e2162340a5bb646c354271c0f5cfc",
                                    "0x0000000000000000000000000000000000000000",
                                    "0x0000000000000000000000000000000000000000",
                                    "0x0000000000000000000000000000000000000000",
                                    "0x0000000000000000000000000000000000000000",
                                    "0x0000000000000000000000000000000000000000",
                                    "0x0000000000000000000000000000000000000000"
                                ]
                            },
                            {
                                "name": "_swap_params",
                                "type": "uint256[3][4]",
                                "value": [
                                    [
                                        "0",
                                        "1",
                                        "3"
                                    ],
                                    [
                                        "0",
                                        "0",
                                        "0"
                                    ],
                                    [
                                        "0",
                                        "0",
                                        "0"
                                    ],
                                    [
                                        "0",
                                        "0",
                                        "0"
                                    ]
                                ]
                            },
                            {
                                "name": "_amount",
                                "type": "uint256",
                                "value": "204,000,000,000,000,000"
                            },
                            {
                                "name": "_expected",
                                "type": "uint256",
                                "value": "87,533,962,198,892,309,699"
                            },
                            {
                                "name": "_pools",
                                "type": "address[4]",
                                "value": [
                                    "0x0000000000000000000000000000000000000000",
                                    "0x0000000000000000000000000000000000000000",
                                    "0x0000000000000000000000000000000000000000",
                                    "0x0000000000000000000000000000000000000000"
                                ]
                            }
                        ],
                        "constructorArguments": "",
                        "name": "exchange_multiple",
                        "returnParams": [],
                        "signature": "exchange_multiple(address[9],uint256[3][4],uint256,uint256,address[4])"
                    },
                    "errorInfo": "",
                    "fromAddress": "0x989dd6287a56843368839e9cef221139ddd56a44",
                    "gasUsed": 262516,
                    "id": 0,
                    "methodDecoded": true,
                    "operation": "CALL",
                    "output": "0x000000000000000000000000000000000000000000000004bffe663617786eec",
                    "revert": false,
                    "revertMessage": "",
                    "selector": "0x9db4f7aa",
                    "status": true,
                    "value": "0.204"
                },
                "nodeType": 0
            },
            "1": {
                "invocation": {
                    "address": "0x838af967537350d2c44abb8c010e49e32673ab94",
                    "callData": "0x0000000000000000000000000000000000000000000000000000000000000000000000000000000000000000000000000000000000000000000000000000000100000000000000000000000000000000000000000000000002d4c0eb4e2e000000000000000000000000000000000000000000000000000000000000000000000000000000000000000000000000000000000000000000000000000000000001",
                    "decodedMethod": {
                        "callParams": [
                            {
                                "name": "i",
                                "type": "uint256",
                                "value": "0"
                            },
                            {
                                "name": "j",
                                "type": "uint256",
                                "value": "1"
                            },
                            {
                                "name": "dx",
                                "type": "uint256",
                                "value": "204,000,000,000,000,000"
                            },
                            {
                                "name": "min_dy",
                                "type": "uint256",
                                "value": "0"
                            },
                            {
                                "name": "use_eth",
                                "type": "bool",
                                "value": true
                            }
                        ],
                        "constructorArguments": "",
                        "name": "exchange",
                        "returnParams": [
                            {
                                "name": "",
                                "type": "uint256",
                                "value": "87,621,583,782,674,984,684"
                            }
                        ],
                        "signature": "exchange(uint256,uint256,uint256,uint256,bool)"
                    },
                    "errorInfo": "",
                    "fromAddress": "0x55b916ce078ea594c10a874ba67ecc3d62e29822",
                    "gasUsed": 236727,
                    "id": 1,
                    "methodDecoded": true,
                    "operation": "CALL",
                    "output": "0x000000000000000000000000000000000000000000000004bffe663617786eec",
                    "revert": false,
                    "revertMessage": "",
                    "selector": "0x394747c5",
                    "status": true,
                    "value": "0.204"
                },
                "nodeType": 0
            },
            "10": {
                "invocation": {
                    "address": "0x9ae380f0272e2162340a5bb646c354271c0f5cfc",
                    "callData": "0x000000000000000000000000989dd6287a56843368839e9cef221139ddd56a44000000000000000000000000000000000000000000000004bffe663617786eec",
                    "decodedMethod": {
                        "callParams": [
                            {
                                "name": "to",
                                "type": "address",
                                "value": "0x989dd6287a56843368839e9cef221139ddd56a44"
                            },
                            {
                                "decimalAvailable": true,
                                "name": "amount",
                                "type": "uint256",
                                "value": "87,621,583,782,674,984,684"
                            }
                        ],
                        "constructorArguments": "",
                        "name": "transfer",
                        "returnParams": [
                            {
                                "name": "",
                                "type": "bool",
                                "value": true
                            }
                        ],
                        "signature": "transfer(address,uint256)"
                    },
                    "errorInfo": "",
                    "fromAddress": "0x55b916ce078ea594c10a874ba67ecc3d62e29822",
                    "gasUsed": 25197,
                    "id": 10,
                    "methodDecoded": true,
                    "operation": "CALL",
                    "output": "0x0000000000000000000000000000000000000000000000000000000000000001",
                    "revert": false,
                    "revertMessage": "",
                    "selector": "0xa9059cbb",
                    "status": true,
                    "value": "0"
                },
                "nodeType": 0
            },
            "11": {
                "event": {
                    "contract": "0x9ae380f0272e2162340a5bb646c354271c0f5cfc",
                    "decodedLog": {
                        "name": "Transfer",
                        "params": [
                            {
                                "name": "from",
                                "type": "address",
                                "value": "0x55b916ce078ea594c10a874ba67ecc3d62e29822"
                            },
                            {
                                "name": "to",
                                "type": "address",
                                "value": "0x989dd6287a56843368839e9cef221139ddd56a44"
                            },
                            {
                                "decimalAvailable": true,
                                "name": "value",
                                "type": "uint256",
                                "value": "87,621,583,782,674,984,684"
                            }
                        ],
                        "signature": "Transfer(address,address,uint256)"
                    },
                    "id": 11,
                    "logData": "0x000000000000000000000000000000000000000000000004bffe663617786eec",
                    "logDecoded": true,
                    "operation": "EVENT",
                    "revert": false,
                    "status": true,
                    "topics": [
                        "0xddf252ad1be2c89b69c2b068fc378daa952ba7f163c4a11628f55a4df523b3ef",
                        "0x00000000000000000000000055b916ce078ea594c10a874ba67ecc3d62e29822",
                        "0x000000000000000000000000989dd6287a56843368839e9cef221139ddd56a44"
                    ]
                },
                "nodeType": 1
            },
            "12": {
                "invocation": {
                    "address": "0x0000000000000000000000000000000000000004",
                    "callData": "0x000000000000000000000000000000000000000000000000000000200000000000000000000000000000000000000000000000000000000000000001",
                    "decodedMethod": {
                        "callParams": [
                            {
                                "name": "data",
                                "type": "bytes",
                                "value": "0x00000000000000000000000000000000000000000000000000000000000000200000000000000000000000000000000000000000000000000000000000000001"
                            }
                        ],
                        "constructorArguments": "",
                        "name": "dataCopy()",
                        "returnParams": [
                            {
                                "name": "data",
                                "type": "bytes",
                                "value": "0x00000000000000000000000000000000000000000000000000000000000000200000000000000000000000000000000000000000000000000000000000000001"
                            }
                        ],
                        "signature": "dataCopy(bytes)"
                    },
                    "errorInfo": "",
                    "fromAddress": "0x55b916ce078ea594c10a874ba67ecc3d62e29822",
                    "gasUsed": 21,
                    "id": 12,
                    "methodDecoded": true,
                    "operation": "STATICCALL",
                    "output": "0x00000000000000000000000000000000000000000000000000000000000000200000000000000000000000000000000000000000000000000000000000000001",
                    "revert": false,
                    "revertMessage": "",
                    "selector": "0x00000000",
                    "status": true,
                    "value": "0"
                },
                "nodeType": 0
            },
            "2": {
                "invocation": {
                    "address": "0xa85461afc2deec01bda23b5cd267d51f765fba10",
                    "callData": "0x0000000000000000000000000000000000000000000000000000000000000000000000000000000000000000000000000000000000000000000000000000000100000000000000000000000000000000000000000000000002d4c0eb4e2e000000000000000000000000000000000000000000000000000000000000000000000000000000000000000000000000000000000000000000000000000000000001",
                    "decodedMethod": {
                        "callParams": [
                            {
                                "name": "i",
                                "type": "uint256",
                                "value": "0"
                            },
                            {
                                "name": "j",
                                "type": "uint256",
                                "value": "1"
                            },
                            {
                                "name": "dx",
                                "type": "uint256",
                                "value": "204,000,000,000,000,000"
                            },
                            {
                                "name": "min_dy",
                                "type": "uint256",
                                "value": "0"
                            },
                            {
                                "name": "use_eth",
                                "type": "bool",
                                "value": true
                            }
                        ],
                        "constructorArguments": "",
                        "name": "exchange",
                        "returnParams": [
                            {
                                "name": "",
                                "type": "uint256",
                                "value": "87,621,583,782,674,984,684"
                            }
                        ],
                        "signature": "exchange(uint256,uint256,uint256,uint256,bool)"
                    },
                    "errorInfo": "",
                    "fromAddress": "0x838af967537350d2c44abb8c010e49e32673ab94",
                    "gasUsed": 234031,
                    "id": 2,
                    "methodDecoded": true,
                    "operation": "DELEGATECALL",
                    "output": "0x000000000000000000000000000000000000000000000004bffe663617786eec",
                    "revert": false,
                    "revertMessage": "",
                    "selector": "0x394747c5",
                    "status": true,
                    "value": "0.204"
                },
                "nodeType": 0
            },
            "3": {
                "invocation": {
                    "address": "0x9ae380f0272e2162340a5bb646c354271c0f5cfc",
                    "callData": "0x00000000000000000000000055b916ce078ea594c10a874ba67ecc3d62e29822000000000000000000000000000000000000000000000004bffe663617786eec",
                    "decodedMethod": {
                        "callParams": [
                            {
                                "name": "to",
                                "type": "address",
                                "value": "0x55b916ce078ea594c10a874ba67ecc3d62e29822"
                            },
                            {
                                "decimalAvailable": true,
                                "name": "amount",
                                "type": "uint256",
                                "value": "87,621,583,782,674,984,684"
                            }
                        ],
                        "constructorArguments": "",
                        "name": "transfer",
                        "returnParams": [
                            {
                                "name": "",
                                "type": "bool",
                                "value": true
                            }
                        ],
                        "signature": "transfer(address,uint256)"
                    },
                    "errorInfo": "",
                    "fromAddress": "0x838af967537350d2c44abb8c010e49e32673ab94",
                    "gasUsed": 29997,
                    "id": 3,
                    "methodDecoded": true,
                    "operation": "CALL",
                    "output": "0x0000000000000000000000000000000000000000000000000000000000000001",
                    "revert": false,
                    "revertMessage": "",
                    "selector": "0xa9059cbb",
                    "status": true,
                    "value": "0"
                },
                "nodeType": 0
            },
            "4": {
                "event": {
                    "contract": "0x9ae380f0272e2162340a5bb646c354271c0f5cfc",
                    "decodedLog": {
                        "name": "Transfer",
                        "params": [
                            {
                                "name": "from",
                                "type": "address",
                                "value": "0x838af967537350d2c44abb8c010e49e32673ab94"
                            },
                            {
                                "name": "to",
                                "type": "address",
                                "value": "0x55b916ce078ea594c10a874ba67ecc3d62e29822"
                            },
                            {
                                "decimalAvailable": true,
                                "name": "value",
                                "type": "uint256",
                                "value": "87,621,583,782,674,984,684"
                            }
                        ],
                        "signature": "Transfer(address,address,uint256)"
                    },
                    "id": 4,
                    "logData": "0x000000000000000000000000000000000000000000000004bffe663617786eec",
                    "logDecoded": true,
                    "operation": "EVENT",
                    "revert": false,
                    "status": true,
                    "topics": [
                        "0xddf252ad1be2c89b69c2b068fc378daa952ba7f163c4a11628f55a4df523b3ef",
                        "0x000000000000000000000000838af967537350d2c44abb8c010e49e32673ab94",
                        "0x00000000000000000000000055b916ce078ea594c10a874ba67ecc3d62e29822"
                    ]
                },
                "nodeType": 1
            },
            "5": {
                "invocation": {
                    "address": "0x0000000000000000000000000000000000000004",
                    "callData": "0x000000000000000000000000000000000000000000000000000000200000000000000000000000000000000000000000000000000000000000000001",
                    "decodedMethod": {
                        "callParams": [
                            {
                                "name": "data",
                                "type": "bytes",
                                "value": "0x00000000000000000000000000000000000000000000000000000000000000200000000000000000000000000000000000000000000000000000000000000001"
                            }
                        ],
                        "constructorArguments": "",
                        "name": "dataCopy()",
                        "returnParams": [
                            {
                                "name": "data",
                                "type": "bytes",
                                "value": "0x00000000000000000000000000000000000000000000000000000000000000200000000000000000000000000000000000000000000000000000000000000001"
                            }
                        ],
                        "signature": "dataCopy(bytes)"
                    },
                    "errorInfo": "",
                    "fromAddress": "0x838af967537350d2c44abb8c010e49e32673ab94",
                    "gasUsed": 21,
                    "id": 5,
                    "methodDecoded": true,
                    "operation": "STATICCALL",
                    "output": "0x00000000000000000000000000000000000000000000000000000000000000200000000000000000000000000000000000000000000000000000000000000001",
                    "revert": false,
                    "revertMessage": "",
                    "selector": "0x00000000",
                    "status": true,
                    "value": "0"
                },
                "nodeType": 0
            },
            "6": {
                "invocation": {
                    "address": "0xf9835375f6b268743ea0a54d742aa156947f8c06",
                    "callData": "0x",
                    "decodedMethod": {
                        "callParams": [],
                        "constructorArguments": "",
                        "name": "totalSupply",
                        "returnParams": [
                            {
                                "name": "",
                                "type": "uint256",
                                "value": "12,024,082,218,586,077,956,543"
                            }
                        ],
                        "signature": "totalSupply()"
                    },
                    "errorInfo": "",
                    "fromAddress": "0x838af967537350d2c44abb8c010e49e32673ab94",
                    "gasUsed": 5279,
                    "id": 6,
                    "methodDecoded": true,
                    "operation": "STATICCALL",
                    "output": "0x00000000000000000000000000000000000000000000028bd3a95f7c71fc89bf",
                    "revert": false,
                    "revertMessage": "",
                    "selector": "0x18160ddd",
                    "status": true,
                    "value": "0"
                },
                "nodeType": 0
            },
            "7": {
                "invocation": {
                    "address": "0xc08550a4cc5333f40e593ecc4c4724808085d304",
                    "callData": "0x",
                    "decodedMethod": {
                        "callParams": [],
                        "constructorArguments": "",
                        "name": "totalSupply",
                        "returnParams": [
                            {
                                "name": "",
                                "type": "uint256",
                                "value": "12,024,082,218,586,077,956,543"
                            }
                        ],
                        "signature": "totalSupply()"
                    },
                    "errorInfo": "",
                    "fromAddress": "0xf9835375f6b268743ea0a54d742aa156947f8c06",
                    "gasUsed": 2613,
                    "id": 7,
                    "methodDecoded": true,
                    "operation": "DELEGATECALL",
                    "output": "0x00000000000000000000000000000000000000000000028bd3a95f7c71fc89bf",
                    "revert": false,
                    "revertMessage": "",
                    "selector": "0x18160ddd",
                    "status": true,
                    "value": "0"
                },
                "nodeType": 0
            },
            "8": {
                "event": {
                    "contract": "0x838af967537350d2c44abb8c010e49e32673ab94",
                    "decodedLog": {
                        "name": "TokenExchange",
                        "params": [
                            {
                                "name": "buyer",
                                "type": "address",
                                "value": "0x55b916ce078ea594c10a874ba67ecc3d62e29822"
                            },
                            {
                                "name": "sold_id",
                                "type": "uint256",
                                "value": "0"
                            },
                            {
                                "name": "tokens_sold",
                                "type": "uint256",
                                "value": "204,000,000,000,000,000"
                            },
                            {
                                "name": "bought_id",
                                "type": "uint256",
                                "value": "1"
                            },
                            {
                                "name": "tokens_bought",
                                "type": "uint256",
                                "value": "87,621,583,782,674,984,684"
                            }
                        ],
                        "signature": "TokenExchange(address,uint256,uint256,uint256,uint256)"
                    },
                    "id": 8,
                    "logData": "0x000000000000000000000000000000000000000000000000000000000000000000000000000000000000000000000000000000000000000002d4c0eb4e2e00000000000000000000000000000000000000000000000000000000000000000001000000000000000000000000000000000000000000000004bffe663617786eec",
                    "logDecoded": true,
                    "operation": "EVENT",
                    "revert": false,
                    "status": true,
                    "topics": [
                        "0xb2e76ae99761dc136e598d4a629bb347eccb9532a5f8bbd72e18467c3c34cc98",
                        "0x00000000000000000000000055b916ce078ea594c10a874ba67ecc3d62e29822"
                    ]
                },
                "nodeType": 1
            },
            "9": {
                "invocation": {
                    "address": "0x9ae380f0272e2162340a5bb646c354271c0f5cfc",
                    "callData": "0x00000000000000000000000055b916ce078ea594c10a874ba67ecc3d62e29822",
                    "decodedMethod": {
                        "callParams": [
                            {
                                "name": "account",
                                "type": "address",
                                "value": "0x55b916ce078ea594c10a874ba67ecc3d62e29822"
                            }
                        ],
                        "constructorArguments": "",
                        "name": "balanceOf",
                        "returnParams": [
                            {
                                "decimalAvailable": true,
                                "name": "",
                                "type": "uint256",
                                "value": "87,621,583,782,674,984,684"
                            }
                        ],
                        "signature": "balanceOf(address)"
                    },
                    "errorInfo": "",
                    "fromAddress": "0x55b916ce078ea594c10a874ba67ecc3d62e29822",
                    "gasUsed": 585,
                    "id": 9,
                    "methodDecoded": true,
                    "operation": "STATICCALL",
                    "output": "0x000000000000000000000000000000000000000000000004bffe663617786eec",
                    "revert": false,
                    "revertMessage": "",
                    "selector": "0x70a08231",
                    "status": true,
                    "value": "0"
                },
                "nodeType": 0
            }
        },
        "gasFlame": [
            {
                "children": [
                    {
                        "children": [
                            {
                                "children": [],
                                "depth": 0,
                                "name": "Initial Gas",
                                "value": 25444
                            },
                            {
                                "children": [
                                    {
                                        "children": [
                                            {
                                                "children": [
                                                    {
                                                        "children": [],
                                                        "depth": 3,
                                                        "name": "transfer",
                                                        "value": 29997
                                                    },
                                                    {
                                                        "children": [],
                                                        "depth": 3,
                                                        "name": "dataCopy()",
                                                        "value": 21
                                                    },
                                                    {
                                                        "children": [
                                                            {
                                                                "children": [],
                                                                "depth": 4,
                                                                "name": "totalSupply",
                                                                "value": 2613
                                                            }
                                                        ],
                                                        "depth": 3,
                                                        "name": "totalSupply",
                                                        "value": 5279
                                                    }
                                                ],
                                                "depth": 2,
                                                "name": "exchange",
                                                "value": 234031
                                            }
                                        ],
                                        "depth": 1,
                                        "name": "exchange",
                                        "value": 236727
                                    },
                                    {
                                        "children": [],
                                        "depth": 1,
                                        "name": "balanceOf",
                                        "value": 585
                                    },
                                    {
                                        "children": [],
                                        "depth": 1,
                                        "name": "transfer",
                                        "value": 25197
                                    },
                                    {
                                        "children": [],
                                        "depth": 1,
                                        "name": "dataCopy()",
                                        "value": 21
                                    }
                                ],
                                "depth": 0,
                                "name": "Executed Gas",
                                "value": 276872
                            }
                        ],
                        "depth": -1,
                        "name": "Actual Gas Used",
                        "value": 262516
                    },
                    {
                        "children": [],
                        "depth": -1,
                        "name": "Refunded Gas",
                        "value": 39800
                    }
                ],
                "depth": -2,
                "name": "Total Gas",
                "value": 302316
            }
        ],
        "isConfirmed": true,
        "mainTrace": [
            {
                "children": [
                    {
                        "children": [
                            {
                                "children": [
                                    {
                                        "children": [
                                            {
                                                "children": [
                                                    {
                                                        "children": [],
                                                        "depth": 4,
                                                        "id": 4,
                                                        "order": 4
                                                    }
                                                ],
                                                "depth": 3,
                                                "id": 3,
                                                "order": 3
                                            },
                                            {
                                                "children": [],
                                                "depth": 3,
                                                "id": 5,
                                                "order": 5
                                            },
                                            {
                                                "children": [
                                                    {
                                                        "children": [],
                                                        "depth": 4,
                                                        "id": 7,
                                                        "order": 7
                                                    }
                                                ],
                                                "depth": 3,
                                                "id": 6,
                                                "order": 6
                                            },
                                            {
                                                "children": [],
                                                "depth": 3,
                                                "id": 8,
                                                "order": 8
                                            }
                                        ],
                                        "depth": 2,
                                        "id": 2,
                                        "order": 2
                                    }
                                ],
                                "depth": 1,
                                "id": 1,
                                "order": 1
                            },
                            {
                                "children": [],
                                "depth": 1,
                                "id": 9,
                                "order": 9
                            },
                            {
                                "children": [
                                    {
                                        "children": [],
                                        "depth": 2,
                                        "id": 11,
                                        "order": 11
                                    }
                                ],
                                "depth": 1,
                                "id": 10,
                                "order": 10
                            },
                            {
                                "children": [],
                                "depth": 1,
                                "id": 12,
                                "order": 12
                            }
                        ],
                        "depth": 0,
                        "id": 0,
                        "order": 0
                    }
                ],
                "depth": -1,
                "id": -1,
                "order": -1
            }
        ],
        "mainTraceNodeCount": 13,
        "parentIdMap": {
            "0": -1,
            "1": 0,
            "10": 0,
            "11": 10,
            "12": 0,
            "2": 1,
            "3": 2,
            "4": 3,
            "5": 2,
            "6": 2,
            "7": 6,
            "8": 2,
            "9": 0
        },
        "tidyTrace": [
            {
                "children": [
                    {
                        "children": [
                            {
                                "children": [
                                    {
                                        "children": [
                                            {
                                                "children": [
                                                    {
                                                        "children": [],
                                                        "depth": 4,
                                                        "id": 4,
                                                        "order": 4
                                                    }
                                                ],
                                                "depth": 3,
                                                "id": 3,
                                                "order": 3
                                            },
                                            {
                                                "children": [],
                                                "depth": 3,
                                                "id": 8,
                                                "order": 8
                                            }
                                        ],
                                        "depth": 2,
                                        "id": 2,
                                        "order": 2
                                    }
                                ],
                                "depth": 1,
                                "id": 1,
                                "order": 1
                            },
                            {
                                "children": [
                                    {
                                        "children": [],
                                        "depth": 2,
                                        "id": 11,
                                        "order": 11
                                    }
                                ],
                                "depth": 1,
                                "id": 10,
                                "order": 10
                            }
                        ],
                        "depth": 0,
                        "id": 0,
                        "order": 0
                    }
                ],
                "depth": -1,
                "id": -1,
                "order": -1
            }
        ],
        "tidyTraceNodeCount": 8
    },
    "state_change": {
        "stateChanges": [
            {
                "address": "0x838af967537350d2c44abb8c010e49e32673ab94",
                "erc": "",
                "slots": [
                    {
                        "current": "0x000000000000000000000000000000000000000000000020602df43e1c4fff11",
                        "key": "0x000000000000000000000000000000000000000000000000000000000000001a",
                        "prev": "0x0000000000000000000000000000000000000000000000205d593352ce21ff11"
                    },
                    {
                        "current": "0x00000000000000000000000000000000000000000000000000083c0b69aa3a95",
                        "key": "0x0000000000000000000000000000000000000000000000000000000000000005",
                        "prev": "0x00000000000000000000000000000000000000000000000000083f05f19e41ed"
                    },
                    {
                        "current": "0x000000000000000000000000000000000000000000000000000000006386930f",
                        "key": "0x0000000000000000000000000000000000000000000000000000000000000007",
                        "prev": "0x000000000000000000000000000000000000000000000000000000006386915f"
                    },
                    {
                        "current": "0x00000000000000000000000000000000000000000000000000081eccfa9ab884",
                        "key": "0x0000000000000000000000000000000000000000000000000000000000000004",
                        "prev": "0x0000000000000000000000000000000000000000000000000008177d5ed6d800"
                    },
                    {
                        "current": "0x00000000000000000000000000000000000000000000003fa1dc19cacf05e966",
                        "key": "0x000000000000000000000000000000000000000000000000000000000000001c",
                        "prev": "0x00000000000000000000000000000000000000000000003f8577854c9a45a8b7"
                    },
                    {
                        "current": "0x0000000000000000000000000000000000000000000000000e2b2dedf7eabeb4",
                        "key": "0x0000000000000000000000000000000000000000000000000000000000000020",
                        "prev": "0x0000000000000000000000000000000000000000000000000e2b3dc4def0ff04"
                    },
                    {
                        "current": "0x00000000000000000000000000000000000000000000356c1d7e5eb8acd60fec",
                        "key": "0x000000000000000000000000000000000000000000000000000000000000001b",
                        "prev": "0x000000000000000000000000000000000000000000003570dd7cc4eec44e7ed8"
                    },
                    {
                        "current": "0x0000000000000000000000000000000000000000000000000008457ac94bccfb",
                        "key": "0x0000000000000000000000000000000000000000000000000000000000000006",
                        "prev": "0x000000000000000000000000000000000000000000000000000837712e1327d9"
                    },
                    {
                        "current": "0x0000000000000000000000000000000000000000000000000e7509e2332fd175",
                        "key": "0x000000000000000000000000000000000000000000000000000000000000001e",
                        "prev": "0x0000000000000000000000000000000000000000000000000e7509442ffaf139"
                    }
                ],
                "storageVariables": []
            },
            {
                "address": "0x9ae380f0272e2162340a5bb646c354271c0f5cfc",
                "erc": "ERC-20",
                "slots": [
                    {
                        "current": "0x00000000000000000000000000000000000000000000356c1d7e5eb8acd60fec",
                        "key": "0x59fe0d4d53e89a291e2f004db85afd955a957d3553be7611c3a98fe0d44bae94",
                        "prev": "0x000000000000000000000000000000000000000000003570dd7cc4eec44e7ed8"
                    },
                    {
                        "current": "0x000000000000000000000000000000000000000000000004bffe663617786eec",
                        "key": "0x290eefc7f1a43b49953aa75118b7ad7426ef8381604efd33abce5c82deda2907",
                        "prev": "0x0000000000000000000000000000000000000000000000000000000000000000"
                    }
                ],
                "storageVariables": [
                    {
                        "name": "_balances",
                        "type": "mapping(address => uint256)",
                        "value": {
                            "pairs": [
                                {
                                    "key": "0x838af967537350d2c44abb8c010e49e32673ab94",
                                    "value": {
                                        "current": "252279797192273260056556",
                                        "prev": "252367418776055935041240",
                                        "typeTag": 1
                                    }
                                },
                                {
                                    "key": "0x989dd6287a56843368839e9cef221139ddd56a44",
                                    "value": {
                                        "current": "87621583782674984684",
                                        "prev": "0",
                                        "typeTag": 1
                                    }
                                }
                            ],
                            "typeTag": 4
                        }
                    }
                ]
            }
        ]
    }
}