{
    "balance_change": {
        "balanceChanges": [
            {
                "account": "0xe9c69d5f9761ba965c82335e9a24f4cb4267fa4d",
                "assets": [
                    {
                        "address": "0xc011a73ee8576fb46f5e1c5751ca3b9fe0af2a6f",
                        "amount": "1",
                        "iconUrl": "https://assets.blocksec.com/icon/c1e3b6af03ce5f020e733ca697c33400586b436d22b539a9570605e485361831.png",
                        "isERC1155": false,
                        "isERC721": false,
                        "sign": false,
                        "value": "17.93"
                    }
                ]
            },
            {
                "account": "0x2b6ddabe8dc075331cb780b658a4ee68a41894bd",
                "assets": [
                    {
                        "address": "0xc011a73ee8576fb46f5e1c5751ca3b9fe0af2a6f",
                        "amount": "1",
                        "iconUrl": "https://assets.blocksec.com/icon/c1e3b6af03ce5f020e733ca697c33400586b436d22b539a9570605e485361831.png",
                        "isERC1155": false,
                        "isERC721": false,
                        "sign": true,
                        "value": "17.93"
                    }
                ]
            }
        ]
    },
    "profile": {
        "basic_info": {
            "baseFee": "",
            "blockNumber": 12340822,
            "callData": "0xa9059cbb0000000000000000000000002b6ddabe8dc075331cb780b658a4ee68a41894bd0000000000000000000000000000000000000000000000000de0b6b3a7640000",
            "debugEnable": true,
            "errorInfo": "",
            "eventCount": 1,
            "feeRecipient": "0xea674fdde714fd979de3edf0f56aa9716b898ec8",
            "formatValue": "0",
            "gasLimit": 121026,
            "gasPrice": "48.5",
            "gasUsed": 99976,
            "intTxnCount": 9,
            "internalRevert": false,
            "internalRevertMessage": "",
            "isContractCreation": false,
            "isFlashloan": false,
            "maxFee": "",
            "nonce": 5870,
            "overwritedBlockNumber": -1,
            "priorityFee": "",
            "receiver": "0xc011a73ee8576fb46f5e1c5751ca3b9fe0af2a6f",
            "revertMessage": "",
            "sender": "0xe9c69d5f9761ba965c82335e9a24f4cb4267fa4d",
            "simulationEnable": true,
            "sourceTxnHash": "0x1b7875a5739dba7f8a1bec2012121ddaa2be707561557a630b439846fe4cb0f7",
            "status": true,
            "timestamp": "2021-04-30T08:36:39Z",
            "transactionFee": "0.004848836",
            "txnHash": "0x1b7875a5739dba7f8a1bec2012121ddaa2be707561557a630b439846fe4cb0f7",
            "txnIndex": 48,
            "type": 0,
            "value": "0"
        },
        "fund_flow": [
            {
                "amount": "1",
                "from": "0xe9c69d5f9761ba965c82335e9a24f4cb4267fa4d",
                "id": 1,
                "isERC1155": false,
                "isERC721": false,
                "isReverted": false,
                "order": 1,
                "to": "0x2b6ddabe8dc075331cb780b658a4ee68a41894bd",
                "token": "0xc011a73ee8576fb46f5e1c5751ca3b9fe0af2a6f"
            }
        ],
        "token_infos": [
            {
                "address": "0xc011a73ee8576fb46f5e1c5751ca3b9fe0af2a6f",
                "decimals": 18
            },
            {
                "address": "0xc02aaa39b223fe8d0a0e5c4f27ead9083c756cc2",
                "decimals": 18
            },
            {
                "address": "0xeeeeeeeeeeeeeeeeeeeeeeeeeeeeeeeeeeeeeeee",
                "decimals": 18
            }
        ]
    },
    "address_label": {
        "labels": [
            {
                "address": "0x0000000000000000000000000000000000000001",
                "label": "Precompiled"
            },
            {
                "address": "0x0000000000000000000000000000000000000003",
                "label": "Precompiled"
            },
            {
                "address": "0x0000000000000000000000000000000000000004",
                "label": "Precompiled"
            },
            {
                "address": "0xc011a73ee8576fb46f5e1c5751ca3b9fe0af2a6f",
                "label": "Synthetix: Proxy SNX Token"
            },
            {
                "address": "0x5b1b5fea1b99d83ad479df0c222f0492385381dd",
                "label": "Synthetix: Token State Synthetix"
            },
            {
                "address": "0x4b9ca5607f1ff8019c1c6a3c2f0cc8de622d5b82",
                "label": "Synthetix: State"
            },
            {
                "address": "0x2b6ddabe8dc075331cb780b658a4ee68a41894bd",
                "label": "BINANCE"
            },
            {
                "address": "0xe9c69d5f9761ba965c82335e9a24f4cb4267fa4d",
                "label": "Celsius:fa4d"
            },
            {
                "address": "0xeeeeeeeeeeeeeeeeeeeeeeeeeeeeeeeeeeeeeeee",
                "label": "Ether"
            },
            {
                "address": "0x97767d7d04fd0db0a1a2478dcd4ba85290556b48",
                "label": "Synthetix: SNX Token"
            },
            {
                "address": "0x1c86b3cdf2a60ae3a574f7f71d44e2c50bddb87e",
                "label": "Synthetix: System Status"
            },
            {
                "address": "0x0000000000000000000000000000000000000002",
                "label": "Precompiled"
            }
        ]
    },
    "trace": {
        "accountLabels": null,
        "dataMap": {
            "-1": {
                "invocation": {
                    "address": "0xe9c69d5f9761ba965c82335e9a24f4cb4267fa4d",
                    "callData": "",
                    "decodedMethod": null,
                    "errorInfo": "",
                    "fromAddress": "",
                    "gasUsed": 0,
                    "id": -1,
                    "methodDecoded": false,
                    "operation": "",
                    "output": "",
                    "revert": false,
                    "revertMessage": "",
                    "selector": "",
                    "status": false,
                    "value": ""
                },
                "nodeType": 0
            },
            "0": {
                "invocation": {
                    "address": "0xc011a73ee8576fb46f5e1c5751ca3b9fe0af2a6f",
                    "callData": "0x0000000000000000000000002b6ddabe8dc075331cb780b658a4ee68a41894bd0000000000000000000000000000000000000000000000000de0b6b3a7640000",
                    "decodedMethod": {
                        "callParams": [
                            {
                                "name": "to",
                                "type": "address",
                                "value": "0x2b6ddabe8dc075331cb780b658a4ee68a41894bd"
                            },
                            {
                                "decimalAvailable": true,
                                "name": "value",
                                "type": "uint256",
                                "value": "1,000,000,000,000,000,000"
                            }
                        ],
                        "constructorArguments": "",
                        "name": "transfer",
                        "returnParams": [
                            {
                                "name": "",
                                "type": "bool",
                                "value": true
                            }
                        ],
                        "signature": "transfer(address,uint256)"
                    },
                    "errorInfo": "",
                    "fromAddress": "0xe9c69d5f9761ba965c82335e9a24f4cb4267fa4d",
                    "gasUsed": 99976,
                    "id": 0,
                    "methodDecoded": true,
                    "operation": "CALL",
                    "output": "0x0000000000000000000000000000000000000000000000000000000000000001",
                    "revert": false,
                    "revertMessage": "",
                    "selector": "0xa9059cbb",
                    "status": true,
                    "value": "0"
                },
                "nodeType": 0
            },
            "1": {
                "invocation": {
                    "address": "0x97767d7d04fd0db0a1a2478dcd4ba85290556b48",
                    "callData": "0x000000000000000000000000e9c69d5f9761ba965c82335e9a24f4cb4267fa4d",
                    "decodedMethod": {
                        "callParams": [
                            {
                                "name": "sender",
                                "type": "address",
                                "value": "0xe9c69d5f9761ba965c82335e9a24f4cb4267fa4d"
                            }
                        ],
                        "constructorArguments": "",
                        "name": "setMessageSender",
                        "returnParams": [],
                        "signature": "setMessageSender(address)"
                    },
                    "errorInfo": "",
                    "fromAddress": "0xc011a73ee8576fb46f5e1c5751ca3b9fe0af2a6f",
                    "gasUsed": 7748,
                    "id": 1,
                    "methodDecoded": true,
                    "operation": "CALL",
                    "output": "",
                    "revert": false,
                    "revertMessage": "",
                    "selector": "0xbc67f832",
                    "status": true,
                    "value": "0"
                },
                "nodeType": 0
            },
            "10": {
                "event": {
                    "contract": "0xc011a73ee8576fb46f5e1c5751ca3b9fe0af2a6f",
                    "decodedLog": {
                        "name": "Transfer",
                        "params": [
                            {
                                "name": "from",
                                "type": "address",
                                "value": "0xe9c69d5f9761ba965c82335e9a24f4cb4267fa4d"
                            },
                            {
                                "name": "to",
                                "type": "address",
                                "value": "0x2b6ddabe8dc075331cb780b658a4ee68a41894bd"
                            },
                            {
                                "decimalAvailable": true,
                                "name": "value",
                                "type": "uint256",
                                "value": "1,000,000,000,000,000,000"
                            }
                        ],
                        "signature": "Transfer(address,address,uint256)"
                    },
                    "id": 10,
                    "logData": "0x0000000000000000000000000000000000000000000000000de0b6b3a7640000",
                    "logDecoded": true,
                    "operation": "EVENT",
                    "revert": false,
                    "status": true,
                    "topics": [
                        "0xddf252ad1be2c89b69c2b068fc378daa952ba7f163c4a11628f55a4df523b3ef",
                        "0x000000000000000000000000e9c69d5f9761ba965c82335e9a24f4cb4267fa4d",
                        "0x0000000000000000000000002b6ddabe8dc075331cb780b658a4ee68a41894bd"
                    ]
                },
                "nodeType": 1
            },
            "2": {
                "invocation": {
                    "address": "0x97767d7d04fd0db0a1a2478dcd4ba85290556b48",
                    "callData": "0x0000000000000000000000002b6ddabe8dc075331cb780b658a4ee68a41894bd0000000000000000000000000000000000000000000000000de0b6b3a7640000",
                    "decodedMethod": {
                        "callParams": [
                            {
                                "name": "to",
                                "type": "address",
                                "value": "0x2b6ddabe8dc075331cb780b658a4ee68a41894bd"
                            },
                            {
                                "decimalAvailable": true,
                                "name": "value",
                                "type": "uint256",
                                "value": "1,000,000,000,000,000,000"
                            }
                        ],
                        "constructorArguments": "",
                        "name": "transfer",
                        "returnParams": [
                            {
                                "name": "",
                                "type": "bool",
                                "value": true
                            }
                        ],
                        "signature": "transfer(address,uint256)"
                    },
                    "errorInfo": "",
                    "fromAddress": "0xc011a73ee8576fb46f5e1c5751ca3b9fe0af2a6f",
                    "gasUsed": 64279,
                    "id": 2,
                    "methodDecoded": true,
                    "operation": "CALL",
                    "output": "0x0000000000000000000000000000000000000000000000000000000000000001",
                    "revert": false,
                    "revertMessage": "",
                    "selector": "0xa9059cbb",
                    "status": true,
                    "value": "0"
                },
                "nodeType": 0
            },
            "3": {
                "invocation": {
                    "address": "0x1c86b3cdf2a60ae3a574f7f71d44e2c50bddb87e",
                    "callData": "0x",
                    "decodedMethod": {
                        "callParams": [],
                        "constructorArguments": "",
                        "name": "requireSystemActive",
                        "returnParams": [],
                        "signature": "requireSystemActive()"
                    },
                    "errorInfo": "",
                    "fromAddress": "0x97767d7d04fd0db0a1a2478dcd4ba85290556b48",
                    "gasUsed": 2481,
                    "id": 3,
                    "methodDecoded": true,
                    "operation": "STATICCALL",
                    "output": "",
                    "revert": false,
                    "revertMessage": "",
                    "selector": "0x086dabd1",
                    "status": true,
                    "value": "0"
                },
                "nodeType": 0
            },
            "4": {
                "invocation": {
                    "address": "0x4b9ca5607f1ff8019c1c6a3c2f0cc8de622d5b82",
                    "callData": "0x000000000000000000000000e9c69d5f9761ba965c82335e9a24f4cb4267fa4d",
                    "decodedMethod": {
                        "callParams": [
                            {
                                "name": "",
                                "type": "address",
                                "value": "0xe9c69d5f9761ba965c82335e9a24f4cb4267fa4d"
                            }
                        ],
                        "constructorArguments": "",
                        "name": "issuanceData",
                        "returnParams": [
                            {
                                "name": "initialDebtOwnership",
                                "type": "uint256",
                                "value": "0"
                            },
                            {
                                "name": "debtEntryIndex",
                                "type": "uint256",
                                "value": "0"
                            }
                        ],
                        "signature": "issuanceData(address)"
                    },
                    "errorInfo": "",
                    "fromAddress": "0x97767d7d04fd0db0a1a2478dcd4ba85290556b48",
                    "gasUsed": 4875,
                    "id": 4,
                    "methodDecoded": true,
                    "operation": "STATICCALL",
                    "output": "0x00000000000000000000000000000000000000000000000000000000000000000000000000000000000000000000000000000000000000000000000000000000",
                    "revert": false,
                    "revertMessage": "",
                    "selector": "0x8b3f8088",
                    "status": true,
                    "value": "0"
                },
                "nodeType": 0
            },
            "5": {
                "invocation": {
                    "address": "0x5b1b5fea1b99d83ad479df0c222f0492385381dd",
                    "callData": "0x000000000000000000000000e9c69d5f9761ba965c82335e9a24f4cb4267fa4d",
                    "decodedMethod": {
                        "callParams": [
                            {
                                "name": "",
                                "type": "address",
                                "value": "0xe9c69d5f9761ba965c82335e9a24f4cb4267fa4d"
                            }
                        ],
                        "constructorArguments": "",
                        "name": "balanceOf",
                        "returnParams": [
                            {
                                "decimalAvailable": true,
                                "name": "",
                                "type": "uint256",
                                "value": "3,060,214,662,203,731,620,581"
                            }
                        ],
                        "signature": "balanceOf(address)"
                    },
                    "errorInfo": "",
                    "fromAddress": "0x97767d7d04fd0db0a1a2478dcd4ba85290556b48",
                    "gasUsed": 2486,
                    "id": 5,
                    "methodDecoded": true,
                    "operation": "STATICCALL",
                    "output": "0x0000000000000000000000000000000000000000000000a5e5027d8fe77032e5",
                    "revert": false,
                    "revertMessage": "",
                    "selector": "0x70a08231",
                    "status": true,
                    "value": "0"
                },
                "nodeType": 0
            },
            "6": {
                "invocation": {
                    "address": "0x5b1b5fea1b99d83ad479df0c222f0492385381dd",
                    "callData": "0x000000000000000000000000e9c69d5f9761ba965c82335e9a24f4cb4267fa4d0000000000000000000000000000000000000000000000a5d721c6dc400c32e5",
                    "decodedMethod": {
                        "callParams": [
                            {
                                "name": "account",
                                "type": "address",
                                "value": "0xe9c69d5f9761ba965c82335e9a24f4cb4267fa4d"
                            },
                            {
                                "name": "value",
                                "type": "uint256",
                                "value": "3,059,214,662,203,731,620,581"
                            }
                        ],
                        "constructorArguments": "",
                        "name": "setBalanceOf",
                        "returnParams": [],
                        "signature": "setBalanceOf(address,uint256)"
                    },
                    "errorInfo": "",
                    "fromAddress": "0x97767d7d04fd0db0a1a2478dcd4ba85290556b48",
                    "gasUsed": 5625,
                    "id": 6,
                    "methodDecoded": true,
                    "operation": "CALL",
                    "output": "",
                    "revert": false,
                    "revertMessage": "",
                    "selector": "0xb46310f6",
                    "status": true,
                    "value": "0"
                },
                "nodeType": 0
            },
            "7": {
                "invocation": {
                    "address": "0x5b1b5fea1b99d83ad479df0c222f0492385381dd",
                    "callData": "0x0000000000000000000000002b6ddabe8dc075331cb780b658a4ee68a41894bd",
                    "decodedMethod": {
                        "callParams": [
                            {
                                "name": "",
                                "type": "address",
                                "value": "0x2b6ddabe8dc075331cb780b658a4ee68a41894bd"
                            }
                        ],
                        "constructorArguments": "",
                        "name": "balanceOf",
                        "returnParams": [
                            {
                                "decimalAvailable": true,
                                "name": "",
                                "type": "uint256",
                                "value": "0"
                            }
                        ],
                        "signature": "balanceOf(address)"
                    },
                    "errorInfo": "",
                    "fromAddress": "0x97767d7d04fd0db0a1a2478dcd4ba85290556b48",
                    "gasUsed": 2486,
                    "id": 7,
                    "methodDecoded": true,
                    "operation": "STATICCALL",
                    "output": "0x0000000000000000000000000000000000000000000000000000000000000000",
                    "revert": false,
                    "revertMessage": "",
                    "selector": "0x70a08231",
                    "status": true,
                    "value": "0"
                },
                "nodeType": 0
            },
            "8": {
                "invocation": {
                    "address": "0x5b1b5fea1b99d83ad479df0c222f0492385381dd",
                    "callData": "0x0000000000000000000000002b6ddabe8dc075331cb780b658a4ee68a41894bd0000000000000000000000000000000000000000000000000de0b6b3a7640000",
                    "decodedMethod": {
                        "callParams": [
                            {
                                "name": "account",
                                "type": "address",
                                "value": "0x2b6ddabe8dc075331cb780b658a4ee68a41894bd"
                            },
                            {
                                "name": "value",
                                "type": "uint256",
                                "value": "1,000,000,000,000,000,000"
                            }
                        ],
                        "constructorArguments": "",
                        "name": "setBalanceOf",
                        "returnParams": [],
                        "signature": "setBalanceOf(address,uint256)"
                    },
                    "errorInfo": "",
                    "fromAddress": "0x97767d7d04fd0db0a1a2478dcd4ba85290556b48",
                    "gasUsed": 20725,
                    "id": 8,
                    "methodDecoded": true,
                    "operation": "CALL",
                    "output": "",
                    "revert": false,
                    "revertMessage": "",
                    "selector": "0xb46310f6",
                    "status": true,
                    "value": "0"
                },
                "nodeType": 0
            },
            "9": {
                "invocation": {
                    "address": "0xc011a73ee8576fb46f5e1c5751ca3b9fe0af2a6f",
                    "callData": "0x00000000000000000000000000000000000000000000000000000000000000c00000000000000000000000000000000000000000000000000000000000000003ddf252ad1be2c89b69c2b068fc378daa952ba7f163c4a11628f55a4df523b3ef000000000000000000000000e9c69d5f9761ba965c82335e9a24f4cb4267fa4d0000000000000000000000002b6ddabe8dc075331cb780b658a4ee68a41894bd000000000000000000000000000000000000000000000000000000000000000000000000000000000000000000000000000000000000000000000000000000200000000000000000000000000000000000000000000000000de0b6b3a7640000",
                    "decodedMethod": {
                        "callParams": [
                            {
                                "name": "callData",
                                "type": "bytes",
                                "value": "0x0000000000000000000000000000000000000000000000000de0b6b3a7640000"
                            },
                            {
                                "name": "numTopics",
                                "type": "uint256",
                                "value": "3"
                            },
                            {
                                "name": "topic1",
                                "type": "bytes32",
                                "value": "0xddf252ad1be2c89b69c2b068fc378daa952ba7f163c4a11628f55a4df523b3ef"
                            },
                            {
                                "name": "topic2",
                                "type": "bytes32",
                                "value": "0x000000000000000000000000e9c69d5f9761ba965c82335e9a24f4cb4267fa4d"
                            },
                            {
                                "name": "topic3",
                                "type": "bytes32",
                                "value": "0x0000000000000000000000002b6ddabe8dc075331cb780b658a4ee68a41894bd"
                            },
                            {
                                "name": "topic4",
                                "type": "bytes32",
                                "value": "0x0000000000000000000000000000000000000000000000000000000000000000"
                            }
                        ],
                        "constructorArguments": "",
                        "name": "_emit",
                        "returnParams": [],
                        "signature": "_emit(bytes,uint256,bytes32,bytes32,bytes32,bytes32)"
                    },
                    "errorInfo": "",
                    "fromAddress": "0x97767d7d04fd0db0a1a2478dcd4ba85290556b48",
                    "gasUsed": 2706,
                    "id": 9,
                    "methodDecoded": true,
                    "operation": "CALL",
                    "output": "",
                    "revert": false,
                    "revertMessage": "",
                    "selector": "0x907dff97",
                    "status": true,
                    "value": "0"
                },
                "nodeType": 0
            }
        },
        "gasFlame": [
            {
                "children": [
                    {
                        "children": [
                            {
                                "children": [],
                                "depth": 0,
                                "name": "Initial Gas",
                                "value": 21632
                            },
                            {
                                "children": [
                                    {
                                        "children": [],
                                        "depth": 1,
                                        "name": "setMessageSender",
                                        "value": 7748
                                    },
                                    {
                                        "children": [
                                            {
                                                "children": [],
                                                "depth": 2,
                                                "name": "requireSystemActive",
                                                "value": 2481
                                            },
                                            {
                                                "children": [],
                                                "depth": 2,
                                                "name": "issuanceData",
                                                "value": 4875
                                            },
                                            {
                                                "children": [],
                                                "depth": 2,
                                                "name": "balanceOf",
                                                "value": 2486
                                            },
                                            {
                                                "children": [],
                                                "depth": 2,
                                                "name": "setBalanceOf",
                                                "value": 5625
                                            },
                                            {
                                                "children": [],
                                                "depth": 2,
                                                "name": "balanceOf",
                                                "value": 2486
                                            },
                                            {
                                                "children": [],
                                                "depth": 2,
                                                "name": "setBalanceOf",
                                                "value": 20725
                                            },
                                            {
                                                "children": [],
                                                "depth": 2,
                                                "name": "_emit",
                                                "value": 2706
                                            }
                                        ],
                                        "depth": 1,
                                        "name": "transfer",
                                        "value": 64279
                                    }
                                ],
                                "depth": 0,
                                "name": "Executed Gas",
                                "value": 78344
                            }
                        ],
                        "depth": -1,
                        "name": "Actual Gas Used",
                        "value": 99976
                    },
                    {
                        "children": [],
                        "depth": -1,
                        "name": "Refunded Gas",
                        "value": 0
                    }
                ],
                "depth": -2,
                "name": "Total Gas",
                "value": 99976
            }
        ],
        "isConfirmed": true,
        "mainTrace": [
            {
                "children": [
                    {
                        "children": [
                            {
                                "children": [],
                                "depth": 1,
                                "id": 1,
                                "order": 1
                            },
                            {
                                "children": [
                                    {
                                        "children": [],
                                        "depth": 2,
                                        "id": 3,
                                        "order": 3
                                    },
                                    {
                                        "children": [],
                                        "depth": 2,
                                        "id": 4,
                                        "order": 4
                                    },
                                    {
                                        "children": [],
                                        "depth": 2,
                                        "id": 5,
                                        "order": 5
                                    },
                                    {
                                        "children": [],
                                        "depth": 2,
                                        "id": 6,
                                        "order": 6
                                    },
                                    {
                                        "children": [],
                                        "depth": 2,
                                        "id": 7,
                                        "order": 7
                                    },
                                    {
                                        "children": [],
                                        "depth": 2,
                                        "id": 8,
                                        "order": 8
                                    },
                                    {
                                        "children": [
                                            {
                                                "children": [],
                                                "depth": 3,
                                                "id": 10,
                                                "order": 10
                                            }
                                        ],
                                        "depth": 2,
                                        "id": 9,
                                        "order": 9
                                    }
                                ],
                                "depth": 1,
                                "id": 2,
                                "order": 2
                            }
                        ],
                        "depth": 0,
                        "id": 0,
                        "order": 0
                    }
                ],
                "depth": -1,
                "id": -1,
                "order": -1
            }
        ],
        "mainTraceNodeCount": 11,
        "parentIdMap": {
            "0": -1,
            "1": 0,
            "10": 9,
            "2": 0,
            "3": 2,
            "4": 2,
            "5": 2,
            "6": 2,
            "7": 2,
            "8": 2,
            "9": 2
        },
        "tidyTrace": [
            {
                "children": [
                    {
                        "children": [
                            {
                                "children": [],
                                "depth": 1,
                                "id": 1,
                                "order": 1
                            },
                            {
                                "children": [
                                    {
                                        "children": [],
                                        "depth": 2,
                                        "id": 6,
                                        "order": 6
                                    },
                                    {
                                        "children": [],
                                        "depth": 2,
                                        "id": 8,
                                        "order": 8
                                    },
                                    {
                                        "children": [
                                            {
                                                "children": [],
                                                "depth": 3,
                                                "id": 10,
                                                "order": 10
                                            }
                                        ],
                                        "depth": 2,
                                        "id": 9,
                                        "order": 9
                                    }
                                ],
                                "depth": 1,
                                "id": 2,
                                "order": 2
                            }
                        ],
                        "depth": 0,
                        "id": 0,
                        "order": 0
                    }
                ],
                "depth": -1,
                "id": -1,
                "order": -1
            }
        ],
        "tidyTraceNodeCount": 7
    },
    "state_change": {
        "stateChanges": [
            {
                "address": "0x5b1b5fea1b99d83ad479df0c222f0492385381dd",
                "erc": "",
                "slots": [
                    {
                        "current": "0x0000000000000000000000000000000000000000000000a5d721c6dc400c32e5",
                        "key": "0x6565fb3c54760677ebb69225bdcfb4c0cca59e5f47599b282f4aa8b19d1efc5a",
                        "prev": "0x0000000000000000000000000000000000000000000000a5e5027d8fe77032e5"
                    },
                    {
                        "current": "0x0000000000000000000000000000000000000000000000000de0b6b3a7640000",
                        "key": "0x2d4b7bd164173a23caa6897526815d1a47789cb765f19a3e2c375ae204dc5f7e",
                        "prev": "0x0000000000000000000000000000000000000000000000000000000000000000"
                    }
                ],
                "storageVariables": [
                    {
                        "name": "balanceOf",
                        "type": "mapping(address => uint256)",
                        "value": {
                            "pairs": [
                                {
                                    "key": "0x2b6ddabe8dc075331cb780b658a4ee68a41894bd",
                                    "value": {
                                        "current": "1000000000000000000",
                                        "prev": "0",
                                        "typeTag": 1
                                    }
                                },
                                {
                                    "key": "0xe9c69d5f9761ba965c82335e9a24f4cb4267fa4d",
                                    "value": {
                                        "current": "3059214662203731620581",
                                        "prev": "3060214662203731620581",
                                        "typeTag": 1
                                    }
                                }
                            ],
                            "typeTag": 4
                        }
                    }
                ]
            },
            {
                "address": "0x97767d7d04fd0db0a1a2478dcd4ba85290556b48",
                "erc": "ERC-20",
                "slots": [
                    {
                        "current": "0x000000000000000000000000e9c69d5f9761ba965c82335e9a24f4cb4267fa4d",
                        "key": "0x0000000000000000000000000000000000000000000000000000000000000004",
                        "prev": "0x000000000000000000000000468af9816ec3482a72b12df6e7bd81961cf29289"
                    }
                ],
                "storageVariables": [
                    {
                        "name": "messageSender",
                        "type": "address",
                        "value": {
                            "current": "0xe9c69d5f9761ba965c82335e9a24f4cb4267fa4d",
                            "prev": "0x468af9816ec3482a72b12df6e7bd81961cf29289",
                            "typeTag": 1
                        }
                    }
                ]
            }
        ]
    }
}