{
    "balance_change": {
        "balanceChanges": [
            {
                "account": "0x96b4c5d7249d912312cf273a3a195628588fb8d7",
                "assets": [
                    {
                        "address": "0xbb0329af456cb15a9e4b62dfc6fe6f987138f42c",
                        "amount": "2,500,000",
                        "iconUrl": "",
                        "isERC1155": false,
                        "isERC721": false,
                        "sign": true,
                        "value": ""
                    }
                ]
            },
            {
                "account": "0xbb0329af456cb15a9e4b62dfc6fe6f987138f42c",
                "assets": [
                    {
                        "address": "0xbb0329af456cb15a9e4b62dfc6fe6f987138f42c",
                        "amount": "3,750,000",
                        "iconUrl": "",
                        "isERC1155": false,
                        "isERC721": false,
                        "sign": false,
                        "value": ""
                    }
                ]
            },
            {
                "account": "0x480e5cc7f842f2ae233a6d259b99f46efbfde681",
                "assets": [
                    {
                        "address": "0xbb0329af456cb15a9e4b62dfc6fe6f987138f42c",
                        "amount": "1,250,000",
                        "iconUrl": "",
                        "isERC1155": false,
                        "isERC721": false,
                        "sign": true,
                        "value": ""
                    }
                ]
            }
        ]
    },
    "profile": {
        "basic_info": {
            "baseFee": "",
            "blockNumber": 8775542,
            "callData": "0x069f5bdd000000000000000000000000480e5cc7f842f2ae233a6d259b99f46efbfde681",
            "debugEnable": true,
            "errorInfo": "",
            "eventCount": 2,
            "feeRecipient": "0xb2930b35844a230f00e51431acae96fe543a0347",
            "formatValue": "0",
            "gasLimit": 61244,
            "gasPrice": "1.2",
            "gasUsed": 56244,
            "intTxnCount": 0,
            "internalRevert": false,
            "internalRevertMessage": "",
            "isContractCreation": false,
            "isFlashloan": false,
            "maxFee": "",
            "nonce": 25,
            "overwritedBlockNumber": -1,
            "priorityFee": "",
            "receiver": "0xbb0329af456cb15a9e4b62dfc6fe6f987138f42c",
            "revertMessage": "",
            "sender": "0x96b4c5d7249d912312cf273a3a195628588fb8d7",
            "simulationEnable": true,
            "sourceTxnHash": "0x1befd23f131205bd251a81a8e99fa87534e7fad10e443f8b92aeb0b2cc62e5dd",
            "status": true,
            "timestamp": "2019-10-20T04:35:20Z",
            "transactionFee": "0.0000674928",
            "txnHash": "0x1befd23f131205bd251a81a8e99fa87534e7fad10e443f8b92aeb0b2cc62e5dd",
            "txnIndex": 29,
            "type": 0,
            "value": "0"
        },
        "fund_flow": [
            {
                "amount": "1,250,000",
                "from": "0xbb0329af456cb15a9e4b62dfc6fe6f987138f42c",
                "id": 1,
                "isERC1155": false,
                "isERC721": false,
                "isReverted": false,
                "order": 1,
                "to": "0x480e5cc7f842f2ae233a6d259b99f46efbfde681",
                "token": "0xbb0329af456cb15a9e4b62dfc6fe6f987138f42c"
            },
            {
                "amount": "2,500,000",
                "from": "0xbb0329af456cb15a9e4b62dfc6fe6f987138f42c",
                "id": 2,
                "isERC1155": false,
                "isERC721": false,
                "isReverted": false,
                "order": 2,
                "to": "0x96b4c5d7249d912312cf273a3a195628588fb8d7",
                "token": "0xbb0329af456cb15a9e4b62dfc6fe6f987138f42c"
            }
        ],
        "token_infos": [
            {
                "address": "0xbb0329af456cb15a9e4b62dfc6fe6f987138f42c",
                "decimals": 0
            },
            {
                "address": "0xc02aaa39b223fe8d0a0e5c4f27ead9083c756cc2",
                "decimals": 18
            },
            {
                "address": "0xeeeeeeeeeeeeeeeeeeeeeeeeeeeeeeeeeeeeeeee",
                "decimals": 18
            }
        ]
    },
    "address_label": {
        "labels": [
            {
                "address": "0xeeeeeeeeeeeeeeeeeeeeeeeeeeeeeeeeeeeeeeee",
                "label": "Ether"
            },
            {
                "address": "0xbb0329af456cb15a9e4b62dfc6fe6f987138f42c",
                "label": "IBET"
            },
            {
                "address": "0x0000000000000000000000000000000000000001",
                "label": "Precompiled"
            },
            {
                "address": "0x0000000000000000000000000000000000000002",
                "label": "Precompiled"
            },
            {
                "address": "0x0000000000000000000000000000000000000003",
                "label": "Precompiled"
            },
            {
                "address": "0x0000000000000000000000000000000000000004",
                "label": "Precompiled"
            }
        ]
    },
    "trace": {
        "accountLabels": null,
        "dataMap": {
            "-1": {
                "invocation": {
                    "address": "0x96b4c5d7249d912312cf273a3a195628588fb8d7",
                    "callData": "",
                    "decodedMethod": null,
                    "errorInfo": "",
                    "fromAddress": "",
                    "gasUsed": 0,
                    "id": -1,
                    "methodDecoded": false,
                    "operation": "",
                    "output": "",
                    "revert": false,
                    "revertMessage": "",
                    "selector": "",
                    "status": false,
                    "value": ""
                },
                "nodeType": 0
            },
            "0": {
                "invocation": {
                    "address": "0xbb0329af456cb15a9e4b62dfc6fe6f987138f42c",
                    "callData": "0x000000000000000000000000480e5cc7f842f2ae233a6d259b99f46efbfde681",
                    "decodedMethod": {
                        "callParams": [
                            {
                                "name": "_refer",
                                "type": "address",
                                "value": "0x480e5cc7f842f2ae233a6d259b99f46efbfde681"
                            }
                        ],
                        "constructorArguments": "",
                        "name": "getAirdrop",
                        "returnParams": [
                            {
                                "name": "success",
                                "type": "bool",
                                "value": true
                            }
                        ],
                        "signature": "getAirdrop(address)"
                    },
                    "errorInfo": "",
                    "fromAddress": "0x96b4c5d7249d912312cf273a3a195628588fb8d7",
                    "gasUsed": 56244,
                    "id": 0,
                    "methodDecoded": true,
                    "operation": "CALL",
                    "output": "0x0000000000000000000000000000000000000000000000000000000000000001",
                    "revert": false,
                    "revertMessage": "",
                    "selector": "0x069f5bdd",
                    "status": true,
                    "value": "0"
                },
                "nodeType": 0
            },
            "1": {
                "event": {
                    "contract": "0xbb0329af456cb15a9e4b62dfc6fe6f987138f42c",
                    "decodedLog": {
                        "name": "Transfer",
                        "params": [
                            {
                                "name": "from",
                                "type": "address",
                                "value": "0xbb0329af456cb15a9e4b62dfc6fe6f987138f42c"
                            },
                            {
                                "name": "to",
                                "type": "address",
                                "value": "0x480e5cc7f842f2ae233a6d259b99f46efbfde681"
                            },
                            {
                                "decimalAvailable": true,
                                "name": "tokens",
                                "type": "uint256",
                                "value": "1,250,000"
                            }
                        ],
                        "signature": "Transfer(address,address,uint256)"
                    },
                    "id": 1,
                    "logData": "0x00000000000000000000000000000000000000000000000000000000001312d0",
                    "logDecoded": true,
                    "operation": "EVENT",
                    "revert": false,
                    "status": true,
                    "topics": [
                        "0xddf252ad1be2c89b69c2b068fc378daa952ba7f163c4a11628f55a4df523b3ef",
                        "0x000000000000000000000000bb0329af456cb15a9e4b62dfc6fe6f987138f42c",
                        "0x000000000000000000000000480e5cc7f842f2ae233a6d259b99f46efbfde681"
                    ]
                },
                "nodeType": 1
            },
            "2": {
                "event": {
                    "contract": "0xbb0329af456cb15a9e4b62dfc6fe6f987138f42c",
                    "decodedLog": {
                        "name": "Transfer",
                        "params": [
                            {
                                "name": "from",
                                "type": "address",
                                "value": "0xbb0329af456cb15a9e4b62dfc6fe6f987138f42c"
                            },
                            {
                                "name": "to",
                                "type": "address",
                                "value": "0x96b4c5d7249d912312cf273a3a195628588fb8d7"
                            },
                            {
                                "decimalAvailable": true,
                                "name": "tokens",
                                "type": "uint256",
                                "value": "2,500,000"
                            }
                        ],
                        "signature": "Transfer(address,address,uint256)"
                    },
                    "id": 2,
                    "logData": "0x00000000000000000000000000000000000000000000000000000000002625a0",
                    "logDecoded": true,
                    "operation": "EVENT",
                    "revert": false,
                    "status": true,
                    "topics": [
                        "0xddf252ad1be2c89b69c2b068fc378daa952ba7f163c4a11628f55a4df523b3ef",
                        "0x000000000000000000000000bb0329af456cb15a9e4b62dfc6fe6f987138f42c",
                        "0x00000000000000000000000096b4c5d7249d912312cf273a3a195628588fb8d7"
                    ]
                },
                "nodeType": 1
            }
        },
        "gasFlame": [
            {
                "children": [
                    {
                        "children": [
                            {
                                "children": [],
                                "depth": 0,
                                "name": "Initial Gas",
                                "value": 22680
                            },
                            {
                                "children": [],
                                "depth": 0,
                                "name": "Executed Gas",
                                "value": 33564
                            }
                        ],
                        "depth": -1,
                        "name": "Actual Gas Used",
                        "value": 56244
                    },
                    {
                        "children": [],
                        "depth": -1,
                        "name": "Refunded Gas",
                        "value": 0
                    }
                ],
                "depth": -2,
                "name": "Total Gas",
                "value": 56244
            }
        ],
        "isConfirmed": true,
        "mainTrace": [
            {
                "children": [
                    {
                        "children": [
                            {
                                "children": [],
                                "depth": 1,
                                "id": 1,
                                "order": 1
                            },
                            {
                                "children": [],
                                "depth": 1,
                                "id": 2,
                                "order": 2
                            }
                        ],
                        "depth": 0,
                        "id": 0,
                        "order": 0
                    }
                ],
                "depth": -1,
                "id": -1,
                "order": -1
            }
        ],
        "mainTraceNodeCount": 3,
        "parentIdMap": {
            "0": -1,
            "1": 0,
            "2": 0
        },
        "tidyTrace": [
            {
                "children": [
                    {
                        "children": [
                            {
                                "children": [],
                                "depth": 1,
                                "id": 1,
                                "order": 1
                            },
                            {
                                "children": [],
                                "depth": 1,
                                "id": 2,
                                "order": 2
                            }
                        ],
                        "depth": 0,
                        "id": 0,
                        "order": 0
                    }
                ],
                "depth": -1,
                "id": -1,
                "order": -1
            }
        ],
        "tidyTraceNodeCount": 3
    },
    "state_change": {
        "stateChanges": [
            {
                "address": "0xbb0329af456cb15a9e4b62dfc6fe6f987138f42c",
                "erc": "ERC-20",
                "slots": [
                    {
                        "current": "0x0000000000000000000000000000000000000000000000000000008f7e318d60",
                        "key": "0x1af08ab0b62f124286188fd9ba3aebdc2cf9d16e7c9a410a2b7dd0f45a93b7d1",
                        "prev": "0x0000000000000000000000000000000000000000000000000000008f7e6ac5d0"
                    },
                    {
                        "current": "0x00000000000000000000000000000000000000000000000000000001a2f236b0",
                        "key": "0x06686c156f4ad9113b7a9503150be89c13ebc301294802b49a3db1b21a5927a4",
                        "prev": "0x00000000000000000000000000000000000000000000000000000001a2df23e0"
                    },
                    {
                        "current": "0x0000000000000000000000000000000000000000000000000000000003dfd240",
                        "key": "0xc45db12f4c0109a7aaf1a265e6bf45284896ffe6e140df777b9ec7d8a470af44",
                        "prev": "0x0000000000000000000000000000000000000000000000000000000003b9aca0"
                    },
                    {
                        "current": "0x0000000000000000000000000000000000000000000000000000000000000952",
                        "key": "0x000000000000000000000000000000000000000000000000000000000000000b",
                        "prev": "0x0000000000000000000000000000000000000000000000000000000000000951"
                    }
                ],
                "storageVariables": [
                    {
                        "name": "balances",
                        "type": "mapping(address => uint256)",
                        "value": {
                            "pairs": [
                                {
                                    "key": "0x480e5cc7f842f2ae233a6d259b99f46efbfde681",
                                    "value": {
                                        "current": "7028750000",
                                        "prev": "7027500000",
                                        "typeTag": 1
                                    }
                                },
                                {
                                    "key": "0x96b4c5d7249d912312cf273a3a195628588fb8d7",
                                    "value": {
                                        "current": "65000000",
                                        "prev": "62500000",
                                        "typeTag": 1
                                    }
                                },
                                {
                                    "key": "0xbb0329af456cb15a9e4b62dfc6fe6f987138f42c",
                                    "value": {
                                        "current": "616297500000",
                                        "prev": "616301250000",
                                        "typeTag": 1
                                    }
                                }
                            ],
                            "typeTag": 4
                        }
                    },
                    {
                        "name": "aTot",
                        "type": "uint256",
                        "value": {
                            "current": "2386",
                            "prev": "2385",
                            "typeTag": 1
                        }
                    }
                ]
            }
        ]
    }
}