{
    "balance_change": {
        "balanceChanges": [
            {
                "account": "0xc400b9d93a23b0be5d41ab337ad605988aef8463",
                "assets": [
                    {
                        "address": "0xeeeeeeeeeeeeeeeeeeeeeeeeeeeeeeeeeeeeeeee",
                        "amount": "0.000000000000000001",
                        "iconUrl": "https://assets.blocksec.com/image/1663669189317-3.png",
                        "isERC1155": false,
                        "isERC721": false,
                        "sign": false,
                        "value": ""
                    }
                ]
            },
            {
                "account": "0xad62f56a03334b647e55dbdb5b8642c24605a801",
                "assets": [
                    {
                        "address": "0xeeeeeeeeeeeeeeeeeeeeeeeeeeeeeeeeeeeeeeee",
                        "amount": "0.000000000000000001",
                        "iconUrl": "https://assets.blocksec.com/image/1663669189317-3.png",
                        "isERC1155": false,
                        "isERC721": false,
                        "sign": true,
                        "value": ""
                    }
                ]
            },
            {
                "account": "0x49469866bbf8fd27dddc48a13b23fda2e98a52d1",
                "assets": [
                    {
                        "address": "0x225bc3affc1da39bd3cb2100c74a41c62310d1e1",
                        "amount": "75,076,000",
                        "iconUrl": "",
                        "isERC1155": false,
                        "isERC721": false,
                        "sign": false,
                        "value": ""
                    }
                ]
            },
            {
                "account": "0xef2a55ff8075fa6470ced793a8fbd1ba49ee05b2",
                "assets": [
                    {
                        "address": "0x225bc3affc1da39bd3cb2100c74a41c62310d1e1",
                        "amount": "75,076,000",
                        "iconUrl": "",
                        "isERC1155": false,
                        "isERC721": false,
                        "sign": true,
                        "value": ""
                    }
                ]
            }
        ]
    },
    "profile": {
        "basic_info": {
            "baseFee": "",
            "blockNumber": 1256603,
            "callData": "0x3ed4867900000000000000000000000049469866bbf8fd27dddc48a13b23fda2e98a52d10000000000000000000000000000000000000000000000000000000056fe5bc700000000000000000000000000000000000000000000000000000000000000c000000000000000000000000000000000000000000000000000000000000001a0000000000000000000000000ef2a55ff8075fa6470ced793a8fbd1ba49ee05b200000000000000000000000000000000000000000000000000000000047991a0000000000000000000000000000000000000000000000000000000000000000604c6ea0c53ab5c3d97a012fd9497c00fcc76abf255bb309527d78eafbdb401b556a4e46ffb41d5d47b0f47864f7e453237913f4b094e280c7b9a90edf4bcff3247468e31c7f67836c3fecbd2cbdf272d03d1b93bbdcde39172e7321d748f9a5249cbde55f25d6be727634eedc5478f2f0adb66494d0eff45db3e7d162b40be4ddcf04122020d62f186f548f74ffd256b0e0671a25382452ff40505edd57b3dcd7d82a540b41152ba8dc6ce5aa00a092a164397e609f4a6ec4bf2be744a687e310000000000000000000000000000000000000000000000000000000000000003000000000000000000000000000000000000000000000000000000000000001b000000000000000000000000000000000000000000000000000000000000001c000000000000000000000000000000000000000000000000000000000000001b",
            "debugEnable": true,
            "errorInfo": "",
            "eventCount": 4,
            "feeRecipient": "0x2a65aca4d5fc5b5c859090a6c34d164135398226",
            "formatValue": "0.000000000000000001",
            "gasLimit": 300000,
            "gasPrice": "20",
            "gasUsed": 85264,
            "intTxnCount": 12,
            "internalRevert": false,
            "internalRevertMessage": "",
            "isContractCreation": false,
            "isFlashloan": false,
            "maxFee": "",
            "nonce": 44048,
            "overwritedBlockNumber": -1,
            "priorityFee": "",
            "receiver": "0xad62f56a03334b647e55dbdb5b8642c24605a801",
            "revertMessage": "",
            "sender": "0xc400b9d93a23b0be5d41ab337ad605988aef8463",
            "simulationEnable": true,
            "sourceTxnHash": "0x1b29aef2513f952a52fd899670878481b82c2a78699fc4172d056ee8fcae8345",
            "status": true,
            "timestamp": "2016-04-01T11:30:28Z",
            "transactionFee": "0.00170528",
            "txnHash": "0x1b29aef2513f952a52fd899670878481b82c2a78699fc4172d056ee8fcae8345",
            "txnIndex": 0,
            "type": 0,
            "value": "1"
        },
        "fund_flow": [
            {
                "amount": "0.000000000000000001",
                "from": "0xc400b9d93a23b0be5d41ab337ad605988aef8463",
                "id": 1,
                "isERC1155": false,
                "isERC721": false,
                "isReverted": false,
                "order": 1,
                "to": "0xad62f56a03334b647e55dbdb5b8642c24605a801",
                "token": "0xeeeeeeeeeeeeeeeeeeeeeeeeeeeeeeeeeeeeeeee"
            },
            {
                "amount": "75,076,000",
                "from": "0x49469866bbf8fd27dddc48a13b23fda2e98a52d1",
                "id": 3,
                "isERC1155": false,
                "isERC721": false,
                "isReverted": false,
                "order": 2,
                "to": "0xef2a55ff8075fa6470ced793a8fbd1ba49ee05b2",
                "token": "0x225bc3affc1da39bd3cb2100c74a41c62310d1e1"
            }
        ],
        "token_infos": [
            {
                "address": "0x225bc3affc1da39bd3cb2100c74a41c62310d1e1",
                "decimals": 0
            },
            {
                "address": "0xc02aaa39b223fe8d0a0e5c4f27ead9083c756cc2",
                "decimals": 18
            },
            {
                "address": "0xeeeeeeeeeeeeeeeeeeeeeeeeeeeeeeeeeeeeeeee",
                "decimals": 18
            }
        ]
    },
    "address_label": {
        "labels": [
            {
                "address": "0x225bc3affc1da39bd3cb2100c74a41c62310d1e1",
                "label": "elcoin"
            },
            {
                "address": "0x276c5c6ca8507ed7bac085fc9b9521f4f54b58d3",
                "label": "ElcoinDb"
            },
            {
                "address": "0x0000000000000000000000000000000000000001",
                "label": "Precompiled"
            },
            {
                "address": "0x0000000000000000000000000000000000000002",
                "label": "Precompiled"
            },
            {
                "address": "0x0000000000000000000000000000000000000003",
                "label": "Precompiled"
            },
            {
                "address": "0x0000000000000000000000000000000000000004",
                "label": "Precompiled"
            },
            {
                "address": "0xeeeeeeeeeeeeeeeeeeeeeeeeeeeeeeeeeeeeeeee",
                "label": "Ether"
            }
        ]
    },
    "trace": {
        "accountLabels": null,
        "dataMap": {
            "-1": {
                "invocation": {
                    "address": "0xc400b9d93a23b0be5d41ab337ad605988aef8463",
                    "callData": "",
                    "decodedMethod": null,
                    "errorInfo": "",
                    "fromAddress": "",
                    "gasUsed": 0,
                    "id": -1,
                    "methodDecoded": false,
                    "operation": "",
                    "output": "",
                    "revert": false,
                    "revertMessage": "",
                    "selector": "",
                    "status": false,
                    "value": ""
                },
                "nodeType": 0
            },
            "0": {
                "invocation": {
                    "address": "0xad62f56a03334b647e55dbdb5b8642c24605a801",
                    "callData": "0x00000000000000000000000049469866bbf8fd27dddc48a13b23fda2e98a52d10000000000000000000000000000000000000000000000000000000056fe5bc700000000000000000000000000000000000000000000000000000000000000c000000000000000000000000000000000000000000000000000000000000001a0000000000000000000000000ef2a55ff8075fa6470ced793a8fbd1ba49ee05b200000000000000000000000000000000000000000000000000000000047991a0000000000000000000000000000000000000000000000000000000000000000604c6ea0c53ab5c3d97a012fd9497c00fcc76abf255bb309527d78eafbdb401b556a4e46ffb41d5d47b0f47864f7e453237913f4b094e280c7b9a90edf4bcff3247468e31c7f67836c3fecbd2cbdf272d03d1b93bbdcde39172e7321d748f9a5249cbde55f25d6be727634eedc5478f2f0adb66494d0eff45db3e7d162b40be4ddcf04122020d62f186f548f74ffd256b0e0671a25382452ff40505edd57b3dcd7d82a540b41152ba8dc6ce5aa00a092a164397e609f4a6ec4bf2be744a687e310000000000000000000000000000000000000000000000000000000000000003000000000000000000000000000000000000000000000000000000000000001b000000000000000000000000000000000000000000000000000000000000001c000000000000000000000000000000000000000000000000000000000000001b",
                    "decodedMethod": null,
                    "errorInfo": "",
                    "fromAddress": "0xc400b9d93a23b0be5d41ab337ad605988aef8463",
                    "gasUsed": 85264,
                    "id": 0,
                    "methodDecoded": false,
                    "operation": "CALL",
                    "output": "0x0000000000000000000000000000000000000000000000000000000000000001",
                    "revert": false,
                    "revertMessage": "",
                    "selector": "0x3ed48679",
                    "status": true,
                    "value": "0.000000000000000001"
                },
                "nodeType": 0
            },
            "1": {
                "invocation": {
                    "address": "0xce81bc335ec2818b5926299ab65b7f2a7d882208",
                    "callData": "0x61636365737331000000000000000000000000000000000000000000000000007369676e65720000000000000000000000000000000000000000000000000000000000000000000000000000c400b9d93a23b0be5d41ab337ad605988aef8463",
                    "decodedMethod": null,
                    "errorInfo": "",
                    "fromAddress": "0xad62f56a03334b647e55dbdb5b8642c24605a801",
                    "gasUsed": 2066,
                    "id": 1,
                    "methodDecoded": false,
                    "operation": "CALL",
                    "output": "0x0000000000000000000000000000000000000000000000000000000000000001",
                    "revert": false,
                    "revertMessage": "",
                    "selector": "0xa1add510",
                    "status": true,
                    "value": "0"
                },
                "nodeType": 0
            },
            "10": {
                "invocation": {
                    "address": "0x276c5c6ca8507ed7bac085fc9b9521f4f54b58d3",
                    "callData": "0x000000000000000000000000ef2a55ff8075fa6470ced793a8fbd1ba49ee05b20000000000000000000000000000000000000000000000000000000004786c5c00000000000000000000000000000000000000000000000000000000000000000000000000000000000000000000000000000000000000000000000000000000",
                    "decodedMethod": {
                        "callParams": [
                            {
                                "name": "addr",
                                "type": "address",
                                "value": "0xef2a55ff8075fa6470ced793a8fbd1ba49ee05b2"
                            },
                            {
                                "name": "amount",
                                "type": "uint256",
                                "value": "75,000,924"
                            },
                            {
                                "name": "hash",
                                "type": "bytes32",
                                "value": "0x0000000000000000000000000000000000000000000000000000000000000000"
                            },
                            {
                                "name": "time",
                                "type": "uint256",
                                "value": "0"
                            }
                        ],
                        "constructorArguments": "",
                        "name": "deposit",
                        "returnParams": [
                            {
                                "name": "res",
                                "type": "bool",
                                "value": true
                            }
                        ],
                        "signature": "deposit(address,uint256,bytes32,uint256)"
                    },
                    "errorInfo": "",
                    "fromAddress": "0x225bc3affc1da39bd3cb2100c74a41c62310d1e1",
                    "gasUsed": 8060,
                    "id": 10,
                    "methodDecoded": true,
                    "operation": "CALL",
                    "output": "0x0000000000000000000000000000000000000000000000000000000000000001",
                    "revert": false,
                    "revertMessage": "",
                    "selector": "0xec2ac54e",
                    "status": true,
                    "value": "0"
                },
                "nodeType": 0
            },
            "11": {
                "event": {
                    "contract": "0x276c5c6ca8507ed7bac085fc9b9521f4f54b58d3",
                    "decodedLog": {
                        "name": "Transaction",
                        "params": [
                            {
                                "name": "hash",
                                "type": "bytes32",
                                "value": "0x0000000000000000000000000000000000000000000000000000000000000000"
                            },
                            {
                                "name": "from",
                                "type": "address",
                                "value": "0x0000000000000000000000000000000000000000"
                            },
                            {
                                "name": "to",
                                "type": "address",
                                "value": "0xef2a55ff8075fa6470ced793a8fbd1ba49ee05b2"
                            },
                            {
                                "name": "time",
                                "type": "uint256",
                                "value": "0"
                            },
                            {
                                "name": "amount",
                                "type": "uint256",
                                "value": "75,000,924"
                            }
                        ],
                        "signature": "Transaction(bytes32,address,address,uint256,uint256)"
                    },
                    "id": 11,
                    "logData": "0x00000000000000000000000000000000000000000000000000000000000000000000000000000000000000000000000000000000000000000000000004786c5c",
                    "logDecoded": true,
                    "operation": "EVENT",
                    "revert": false,
                    "status": true,
                    "topics": [
                        "0xea0f544916910bb1ff33390cbe54a3f5d36d298328578399311cde3c9a750686",
                        "0x0000000000000000000000000000000000000000000000000000000000000000",
                        "0x0000000000000000000000000000000000000000000000000000000000000000",
                        "0x000000000000000000000000ef2a55ff8075fa6470ced793a8fbd1ba49ee05b2"
                    ]
                },
                "nodeType": 1
            },
            "12": {
                "event": {
                    "contract": "0x225bc3affc1da39bd3cb2100c74a41c62310d1e1",
                    "decodedLog": {
                        "name": "Transfer",
                        "params": [
                            {
                                "name": "from",
                                "type": "address",
                                "value": "0x49469866bbf8fd27dddc48a13b23fda2e98a52d1"
                            },
                            {
                                "name": "to",
                                "type": "address",
                                "value": "0xef2a55ff8075fa6470ced793a8fbd1ba49ee05b2"
                            },
                            {
                                "decimalAvailable": true,
                                "name": "value",
                                "type": "uint256",
                                "value": "75,076,000"
                            }
                        ],
                        "signature": "Transfer(address,address,uint256)"
                    },
                    "id": 12,
                    "logData": "0x00000000000000000000000000000000000000000000000000000000047991a0",
                    "logDecoded": true,
                    "operation": "EVENT",
                    "revert": false,
                    "status": true,
                    "topics": [
                        "0xddf252ad1be2c89b69c2b068fc378daa952ba7f163c4a11628f55a4df523b3ef",
                        "0x00000000000000000000000049469866bbf8fd27dddc48a13b23fda2e98a52d1",
                        "0x000000000000000000000000ef2a55ff8075fa6470ced793a8fbd1ba49ee05b2"
                    ]
                },
                "nodeType": 1
            },
            "13": {
                "invocation": {
                    "address": "0x276c5c6ca8507ed7bac085fc9b9521f4f54b58d3",
                    "callData": "0x000000000000000000000000b5606469f317018d21f504b6e1518e54b23fa761000000000000000000000000000000000000000000000000000000000001254400000000000000000000000000000000000000000000000000000000000000000000000000000000000000000000000000000000000000000000000000000000",
                    "decodedMethod": {
                        "callParams": [
                            {
                                "name": "addr",
                                "type": "address",
                                "value": "0xb5606469f317018d21f504b6e1518e54b23fa761"
                            },
                            {
                                "name": "amount",
                                "type": "uint256",
                                "value": "75,076"
                            },
                            {
                                "name": "hash",
                                "type": "bytes32",
                                "value": "0x0000000000000000000000000000000000000000000000000000000000000000"
                            },
                            {
                                "name": "time",
                                "type": "uint256",
                                "value": "0"
                            }
                        ],
                        "constructorArguments": "",
                        "name": "deposit",
                        "returnParams": [
                            {
                                "name": "res",
                                "type": "bool",
                                "value": true
                            }
                        ],
                        "signature": "deposit(address,uint256,bytes32,uint256)"
                    },
                    "errorInfo": "",
                    "fromAddress": "0x225bc3affc1da39bd3cb2100c74a41c62310d1e1",
                    "gasUsed": 8060,
                    "id": 13,
                    "methodDecoded": true,
                    "operation": "CALL",
                    "output": "0x0000000000000000000000000000000000000000000000000000000000000001",
                    "revert": false,
                    "revertMessage": "",
                    "selector": "0xec2ac54e",
                    "status": true,
                    "value": "0"
                },
                "nodeType": 0
            },
            "14": {
                "event": {
                    "contract": "0x276c5c6ca8507ed7bac085fc9b9521f4f54b58d3",
                    "decodedLog": {
                        "name": "Transaction",
                        "params": [
                            {
                                "name": "hash",
                                "type": "bytes32",
                                "value": "0x0000000000000000000000000000000000000000000000000000000000000000"
                            },
                            {
                                "name": "from",
                                "type": "address",
                                "value": "0x0000000000000000000000000000000000000000"
                            },
                            {
                                "name": "to",
                                "type": "address",
                                "value": "0xb5606469f317018d21f504b6e1518e54b23fa761"
                            },
                            {
                                "name": "time",
                                "type": "uint256",
                                "value": "0"
                            },
                            {
                                "name": "amount",
                                "type": "uint256",
                                "value": "75,076"
                            }
                        ],
                        "signature": "Transaction(bytes32,address,address,uint256,uint256)"
                    },
                    "id": 14,
                    "logData": "0x00000000000000000000000000000000000000000000000000000000000000000000000000000000000000000000000000000000000000000000000000012544",
                    "logDecoded": true,
                    "operation": "EVENT",
                    "revert": false,
                    "status": true,
                    "topics": [
                        "0xea0f544916910bb1ff33390cbe54a3f5d36d298328578399311cde3c9a750686",
                        "0x0000000000000000000000000000000000000000000000000000000000000000",
                        "0x0000000000000000000000000000000000000000000000000000000000000000",
                        "0x000000000000000000000000b5606469f317018d21f504b6e1518e54b23fa761"
                    ]
                },
                "nodeType": 1
            },
            "15": {
                "invocation": {
                    "address": "0xce81bc335ec2818b5926299ab65b7f2a7d882208",
                    "callData": "0x656c636f696e506f530000000000000000000000000000000000000000000000",
                    "decodedMethod": null,
                    "errorInfo": "",
                    "fromAddress": "0x225bc3affc1da39bd3cb2100c74a41c62310d1e1",
                    "gasUsed": 491,
                    "id": 15,
                    "methodDecoded": false,
                    "operation": "CALL",
                    "output": "0x0000000000000000000000000000000000000000000000000000000000000000",
                    "revert": false,
                    "revertMessage": "",
                    "selector": "0x2ade6c36",
                    "status": true,
                    "value": "0"
                },
                "nodeType": 0
            },
            "16": {
                "invocation": {
                    "address": "0xce81bc335ec2818b5926299ab65b7f2a7d882208",
                    "callData": "0x656c636f696e506f540000000000000000000000000000000000000000000000",
                    "decodedMethod": null,
                    "errorInfo": "",
                    "fromAddress": "0x225bc3affc1da39bd3cb2100c74a41c62310d1e1",
                    "gasUsed": 491,
                    "id": 16,
                    "methodDecoded": false,
                    "operation": "CALL",
                    "output": "0x0000000000000000000000000000000000000000000000000000000000000000",
                    "revert": false,
                    "revertMessage": "",
                    "selector": "0x2ade6c36",
                    "status": true,
                    "value": "0"
                },
                "nodeType": 0
            },
            "2": {
                "invocation": {
                    "address": "0xce81bc335ec2818b5926299ab65b7f2a7d882208",
                    "callData": "0x656c636f696e0000000000000000000000000000000000000000000000000000",
                    "decodedMethod": null,
                    "errorInfo": "",
                    "fromAddress": "0xad62f56a03334b647e55dbdb5b8642c24605a801",
                    "gasUsed": 736,
                    "id": 2,
                    "methodDecoded": false,
                    "operation": "CALL",
                    "output": "0x000000000000000000000000225bc3affc1da39bd3cb2100c74a41c62310d1e1",
                    "revert": false,
                    "revertMessage": "",
                    "selector": "0x2ade6c36",
                    "status": true,
                    "value": "0"
                },
                "nodeType": 0
            },
            "3": {
                "invocation": {
                    "address": "0x225bc3affc1da39bd3cb2100c74a41c62310d1e1",
                    "callData": "0x00000000000000000000000049469866bbf8fd27dddc48a13b23fda2e98a52d1000000000000000000000000ef2a55ff8075fa6470ced793a8fbd1ba49ee05b200000000000000000000000000000000000000000000000000000000047991a0",
                    "decodedMethod": {
                        "callParams": [
                            {
                                "name": "_from",
                                "type": "address",
                                "value": "0x49469866bbf8fd27dddc48a13b23fda2e98a52d1"
                            },
                            {
                                "name": "_to",
                                "type": "address",
                                "value": "0xef2a55ff8075fa6470ced793a8fbd1ba49ee05b2"
                            },
                            {
                                "name": "_value",
                                "type": "uint256",
                                "value": "75,076,000"
                            }
                        ],
                        "constructorArguments": "",
                        "name": "transferPool",
                        "returnParams": [
                            {
                                "name": "",
                                "type": "bool",
                                "value": true
                            }
                        ],
                        "signature": "transferPool(address,address,uint256)"
                    },
                    "errorInfo": "",
                    "fromAddress": "0xad62f56a03334b647e55dbdb5b8642c24605a801",
                    "gasUsed": 41252,
                    "id": 3,
                    "methodDecoded": true,
                    "operation": "CALL",
                    "output": "0x0000000000000000000000000000000000000000000000000000000000000001",
                    "revert": false,
                    "revertMessage": "",
                    "selector": "0xaa64c43b",
                    "status": true,
                    "value": "0"
                },
                "nodeType": 0
            },
            "4": {
                "invocation": {
                    "address": "0xce81bc335ec2818b5926299ab65b7f2a7d882208",
                    "callData": "0x656c636f696e0000000000000000000000000000000000000000000000000000706f6f6c00000000000000000000000000000000000000000000000000000000000000000000000000000000ad62f56a03334b647e55dbdb5b8642c24605a801",
                    "decodedMethod": null,
                    "errorInfo": "",
                    "fromAddress": "0x225bc3affc1da39bd3cb2100c74a41c62310d1e1",
                    "gasUsed": 2066,
                    "id": 4,
                    "methodDecoded": false,
                    "operation": "CALL",
                    "output": "0x0000000000000000000000000000000000000000000000000000000000000001",
                    "revert": false,
                    "revertMessage": "",
                    "selector": "0xa1add510",
                    "status": true,
                    "value": "0"
                },
                "nodeType": 0
            },
            "5": {
                "invocation": {
                    "address": "0xce81bc335ec2818b5926299ab65b7f2a7d882208",
                    "callData": "0x656c636f696e4462000000000000000000000000000000000000000000000000",
                    "decodedMethod": null,
                    "errorInfo": "",
                    "fromAddress": "0x225bc3affc1da39bd3cb2100c74a41c62310d1e1",
                    "gasUsed": 736,
                    "id": 5,
                    "methodDecoded": false,
                    "operation": "CALL",
                    "output": "0x000000000000000000000000276c5c6ca8507ed7bac085fc9b9521f4f54b58d3",
                    "revert": false,
                    "revertMessage": "",
                    "selector": "0x2ade6c36",
                    "status": true,
                    "value": "0"
                },
                "nodeType": 0
            },
            "6": {
                "invocation": {
                    "address": "0x276c5c6ca8507ed7bac085fc9b9521f4f54b58d3",
                    "callData": "0x00000000000000000000000049469866bbf8fd27dddc48a13b23fda2e98a52d1",
                    "decodedMethod": {
                        "callParams": [
                            {
                                "name": "addr",
                                "type": "address",
                                "value": "0x49469866bbf8fd27dddc48a13b23fda2e98a52d1"
                            }
                        ],
                        "constructorArguments": "",
                        "name": "getBalance",
                        "returnParams": [
                            {
                                "name": "balance",
                                "type": "uint256",
                                "value": "1,752,792,000"
                            }
                        ],
                        "signature": "getBalance(address)"
                    },
                    "errorInfo": "",
                    "fromAddress": "0x225bc3affc1da39bd3cb2100c74a41c62310d1e1",
                    "gasUsed": 479,
                    "id": 6,
                    "methodDecoded": true,
                    "operation": "CALL",
                    "output": "0x0000000000000000000000000000000000000000000000000000000068797bc0",
                    "revert": false,
                    "revertMessage": "",
                    "selector": "0xf8b2cb4f",
                    "status": true,
                    "value": "0"
                },
                "nodeType": 0
            },
            "7": {
                "invocation": {
                    "address": "0x276c5c6ca8507ed7bac085fc9b9521f4f54b58d3",
                    "callData": "0x00000000000000000000000049469866bbf8fd27dddc48a13b23fda2e98a52d100000000000000000000000000000000000000000000000000000000047991a000000000000000000000000000000000000000000000000000000000000000000000000000000000000000000000000000000000000000000000000000000000",
                    "decodedMethod": {
                        "callParams": [
                            {
                                "name": "addr",
                                "type": "address",
                                "value": "0x49469866bbf8fd27dddc48a13b23fda2e98a52d1"
                            },
                            {
                                "name": "amount",
                                "type": "uint256",
                                "value": "75,076,000"
                            },
                            {
                                "name": "hash",
                                "type": "bytes32",
                                "value": "0x0000000000000000000000000000000000000000000000000000000000000000"
                            },
                            {
                                "name": "time",
                                "type": "uint256",
                                "value": "0"
                            }
                        ],
                        "constructorArguments": "",
                        "name": "withdraw",
                        "returnParams": [
                            {
                                "name": "res",
                                "type": "bool",
                                "value": true
                            }
                        ],
                        "signature": "withdraw(address,uint256,bytes32,uint256)"
                    },
                    "errorInfo": "",
                    "fromAddress": "0x225bc3affc1da39bd3cb2100c74a41c62310d1e1",
                    "gasUsed": 14931,
                    "id": 7,
                    "methodDecoded": true,
                    "operation": "CALL",
                    "output": "0x0000000000000000000000000000000000000000000000000000000000000001",
                    "revert": false,
                    "revertMessage": "",
                    "selector": "0x07bc6fad",
                    "status": true,
                    "value": "0"
                },
                "nodeType": 0
            },
            "8": {
                "invocation": {
                    "address": "0x225bc3affc1da39bd3cb2100c74a41c62310d1e1",
                    "callData": "0x",
                    "decodedMethod": null,
                    "errorInfo": "insufficient balance for transfer",
                    "fromAddress": "0x276c5c6ca8507ed7bac085fc9b9521f4f54b58d3",
                    "gasUsed": 0,
                    "id": 8,
                    "methodDecoded": false,
                    "operation": "CALL",
                    "output": "",
                    "revert": false,
                    "revertMessage": "",
                    "selector": "fallback",
                    "status": false,
                    "value": "0.000000000075076"
                },
                "nodeType": 0
            },
            "9": {
                "event": {
                    "contract": "0x276c5c6ca8507ed7bac085fc9b9521f4f54b58d3",
                    "decodedLog": {
                        "name": "Transaction",
                        "params": [
                            {
                                "name": "hash",
                                "type": "bytes32",
                                "value": "0x0000000000000000000000000000000000000000000000000000000000000000"
                            },
                            {
                                "name": "from",
                                "type": "address",
                                "value": "0x49469866bbf8fd27dddc48a13b23fda2e98a52d1"
                            },
                            {
                                "name": "to",
                                "type": "address",
                                "value": "0x0000000000000000000000000000000000000000"
                            },
                            {
                                "name": "time",
                                "type": "uint256",
                                "value": "0"
                            },
                            {
                                "name": "amount",
                                "type": "uint256",
                                "value": "75,076,000"
                            }
                        ],
                        "signature": "Transaction(bytes32,address,address,uint256,uint256)"
                    },
                    "id": 9,
                    "logData": "0x000000000000000000000000000000000000000000000000000000000000000000000000000000000000000000000000000000000000000000000000047991a0",
                    "logDecoded": true,
                    "operation": "EVENT",
                    "revert": false,
                    "status": true,
                    "topics": [
                        "0xea0f544916910bb1ff33390cbe54a3f5d36d298328578399311cde3c9a750686",
                        "0x0000000000000000000000000000000000000000000000000000000000000000",
                        "0x00000000000000000000000049469866bbf8fd27dddc48a13b23fda2e98a52d1",
                        "0x0000000000000000000000000000000000000000000000000000000000000000"
                    ]
                },
                "nodeType": 1
            }
        },
        "gasFlame": [
            {
                "children": [
                    {
                        "children": [
                            {
                                "children": [],
                                "depth": 0,
                                "name": "Initial Gas",
                                "value": 39320
                            },
                            {
                                "children": [
                                    {
                                        "children": [],
                                        "depth": 1,
                                        "name": "0xa1add510",
                                        "value": 2066
                                    },
                                    {
                                        "children": [],
                                        "depth": 1,
                                        "name": "0x2ade6c36",
                                        "value": 736
                                    },
                                    {
                                        "children": [
                                            {
                                                "children": [],
                                                "depth": 2,
                                                "name": "0xa1add510",
                                                "value": 2066
                                            },
                                            {
                                                "children": [],
                                                "depth": 2,
                                                "name": "0x2ade6c36",
                                                "value": 736
                                            },
                                            {
                                                "children": [],
                                                "depth": 2,
                                                "name": "getBalance",
                                                "value": 479
                                            },
                                            {
                                                "children": [
                                                    {
                                                        "children": [],
                                                        "depth": 3,
                                                        "name": "fallback",
                                                        "value": 0
                                                    }
                                                ],
                                                "depth": 2,
                                                "name": "withdraw",
                                                "value": 14931
                                            },
                                            {
                                                "children": [],
                                                "depth": 2,
                                                "name": "deposit",
                                                "value": 8060
                                            },
                                            {
                                                "children": [],
                                                "depth": 2,
                                                "name": "deposit",
                                                "value": 8060
                                            },
                                            {
                                                "children": [],
                                                "depth": 2,
                                                "name": "0x2ade6c36",
                                                "value": 491
                                            },
                                            {
                                                "children": [],
                                                "depth": 2,
                                                "name": "0x2ade6c36",
                                                "value": 491
                                            }
                                        ],
                                        "depth": 1,
                                        "name": "transferPool",
                                        "value": 41252
                                    }
                                ],
                                "depth": 0,
                                "name": "Executed Gas",
                                "value": 45944
                            }
                        ],
                        "depth": -1,
                        "name": "Actual Gas Used",
                        "value": 85264
                    },
                    {
                        "children": [],
                        "depth": -1,
                        "name": "Refunded Gas",
                        "value": 0
                    }
                ],
                "depth": -2,
                "name": "Total Gas",
                "value": 85264
            }
        ],
        "isConfirmed": true,
        "mainTrace": [
            {
                "children": [
                    {
                        "children": [
                            {
                                "children": [],
                                "depth": 1,
                                "id": 1,
                                "order": 1
                            },
                            {
                                "children": [],
                                "depth": 1,
                                "id": 2,
                                "order": 2
                            },
                            {
                                "children": [
                                    {
                                        "children": [],
                                        "depth": 2,
                                        "id": 4,
                                        "order": 4
                                    },
                                    {
                                        "children": [],
                                        "depth": 2,
                                        "id": 5,
                                        "order": 5
                                    },
                                    {
                                        "children": [],
                                        "depth": 2,
                                        "id": 6,
                                        "order": 6
                                    },
                                    {
                                        "children": [
                                            {
                                                "children": [],
                                                "depth": 3,
                                                "id": 8,
                                                "order": 8
                                            },
                                            {
                                                "children": [],
                                                "depth": 3,
                                                "id": 9,
                                                "order": 9
                                            }
                                        ],
                                        "depth": 2,
                                        "id": 7,
                                        "order": 7
                                    },
                                    {
                                        "children": [
                                            {
                                                "children": [],
                                                "depth": 3,
                                                "id": 11,
                                                "order": 11
                                            }
                                        ],
                                        "depth": 2,
                                        "id": 10,
                                        "order": 10
                                    },
                                    {
                                        "children": [],
                                        "depth": 2,
                                        "id": 12,
                                        "order": 12
                                    },
                                    {
                                        "children": [
                                            {
                                                "children": [],
                                                "depth": 3,
                                                "id": 14,
                                                "order": 14
                                            }
                                        ],
                                        "depth": 2,
                                        "id": 13,
                                        "order": 13
                                    },
                                    {
                                        "children": [],
                                        "depth": 2,
                                        "id": 15,
                                        "order": 15
                                    },
                                    {
                                        "children": [],
                                        "depth": 2,
                                        "id": 16,
                                        "order": 16
                                    }
                                ],
                                "depth": 1,
                                "id": 3,
                                "order": 3
                            }
                        ],
                        "depth": 0,
                        "id": 0,
                        "order": 0
                    }
                ],
                "depth": -1,
                "id": -1,
                "order": -1
            }
        ],
        "mainTraceNodeCount": 17,
        "parentIdMap": {
            "0": -1,
            "1": 0,
            "10": 3,
            "11": 10,
            "12": 3,
            "13": 3,
            "14": 13,
            "15": 3,
            "16": 3,
            "2": 0,
            "3": 0,
            "4": 3,
            "5": 3,
            "6": 3,
            "7": 3,
            "8": 7,
            "9": 7
        },
        "tidyTrace": [
            {
                "children": [
                    {
                        "children": [
                            {
                                "children": [],
                                "depth": 1,
                                "id": 1,
                                "order": 1
                            },
                            {
                                "children": [],
                                "depth": 1,
                                "id": 2,
                                "order": 2
                            },
                            {
                                "children": [
                                    {
                                        "children": [],
                                        "depth": 2,
                                        "id": 4,
                                        "order": 4
                                    },
                                    {
                                        "children": [],
                                        "depth": 2,
                                        "id": 5,
                                        "order": 5
                                    },
                                    {
                                        "children": [],
                                        "depth": 2,
                                        "id": 6,
                                        "order": 6
                                    },
                                    {
                                        "children": [
                                            {
                                                "children": [],
                                                "depth": 3,
                                                "id": 8,
                                                "order": 8
                                            },
                                            {
                                                "children": [],
                                                "depth": 3,
                                                "id": 9,
                                                "order": 9
                                            }
                                        ],
                                        "depth": 2,
                                        "id": 7,
                                        "order": 7
                                    },
                                    {
                                        "children": [
                                            {
                                                "children": [],
                                                "depth": 3,
                                                "id": 11,
                                                "order": 11
                                            }
                                        ],
                                        "depth": 2,
                                        "id": 10,
                                        "order": 10
                                    },
                                    {
                                        "children": [],
                                        "depth": 2,
                                        "id": 12,
                                        "order": 12
                                    },
                                    {
                                        "children": [
                                            {
                                                "children": [],
                                                "depth": 3,
                                                "id": 14,
                                                "order": 14
                                            }
                                        ],
                                        "depth": 2,
                                        "id": 13,
                                        "order": 13
                                    },
                                    {
                                        "children": [],
                                        "depth": 2,
                                        "id": 15,
                                        "order": 15
                                    },
                                    {
                                        "children": [],
                                        "depth": 2,
                                        "id": 16,
                                        "order": 16
                                    }
                                ],
                                "depth": 1,
                                "id": 3,
                                "order": 3
                            }
                        ],
                        "depth": 0,
                        "id": 0,
                        "order": 0
                    }
                ],
                "depth": -1,
                "id": -1,
                "order": -1
            }
        ],
        "tidyTraceNodeCount": 17
    },
    "state_change": {
        "stateChanges": [
            {
                "address": "0x276c5c6ca8507ed7bac085fc9b9521f4f54b58d3",
                "erc": "",
                "slots": [
                    {
                        "current": "0x0000000000000000000000000000000000000000000000000000000063ffea20",
                        "key": "0x27cfa741bee449e51621bdbb437ce62bfe86d337c2f2c03d80dba70a6d1b3b7d",
                        "prev": "0x0000000000000000000000000000000000000000000000000000000068797bc0"
                    },
                    {
                        "current": "0x0000000000000000000000000000000000000000000000000000000008f0d8b8",
                        "key": "0xfe320b723ff5be1a76eb7ab9d9aa2015621687ff1c82f994ff6e60ba7743d7d6",
                        "prev": "0x0000000000000000000000000000000000000000000000000000000004786c5c"
                    },
                    {
                        "current": "0x00000000000000000000000000000000000000000000000000000007499d61c8",
                        "key": "0x5a4791f3aafbca9d8cdf391abee687ff557f9e4cf1b6d8e66a3c24f3546565e8",
                        "prev": "0x00000000000000000000000000000000000000000000000000000007499c3c84"
                    }
                ],
                "storageVariables": []
            }
        ]
    }
}