{
    "balance_change": {
        "balanceChanges": [
            {
                "account": "0xbbc86b5b063ae85edd9bcc60be49c5ebff6455ef",
                "assets": [
                    {
                        "address": "0x03cb0021808442ad5efb61197966aef72a1def96",
                        "amount": "1",
                        "iconUrl": "",
                        "isERC1155": false,
                        "isERC721": false,
                        "sign": false,
                        "value": ""
                    },
                    {
                        "address": "0x573aaaa81154cd24e96f0cb97fd86110b8f6767f",
                        "amount": "50",
                        "iconUrl": "",
                        "isERC1155": false,
                        "isERC721": false,
                        "sign": true,
                        "value": ""
                    }
                ]
            },
            {
                "account": "0xae9b8e05c22bae74d1e8db82c4af122b18050bd4",
                "assets": [
                    {
                        "address": "0x03cb0021808442ad5efb61197966aef72a1def96",
                        "amount": "0.91",
                        "iconUrl": "",
                        "isERC1155": false,
                        "isERC721": false,
                        "sign": true,
                        "value": ""
                    },
                    {
                        "address": "0x573aaaa81154cd24e96f0cb97fd86110b8f6767f",
                        "amount": "50",
                        "iconUrl": "",
                        "isERC1155": false,
                        "isERC721": false,
                        "sign": false,
                        "value": ""
                    }
                ]
            },
            {
                "account": "0x62a364f7cba3be8fc9dcfdde12cabec8244af381",
                "assets": [
                    {
                        "address": "0x03cb0021808442ad5efb61197966aef72a1def96",
                        "amount": "0.09",
                        "iconUrl": "",
                        "isERC1155": false,
                        "isERC721": false,
                        "sign": true,
                        "value": ""
                    }
                ]
            }
        ]
    },
    "profile": {
        "basic_info": {
            "baseFee": "",
            "blockNumber": 7319561,
            "callData": "0x29675f290000000000000000000000000000000000000000000000000de0b6b3a764000000000000000000000000000000000000000000000000000000000000000000080000000000000000000000000000000000000000000000000000000000000000000000000000000000000000000000000000000000000000000000000000000c",
            "debugEnable": true,
            "errorInfo": "",
            "eventCount": 3,
            "feeRecipient": "0x829bd824b016326a401d083b33d092293333a830",
            "formatValue": "0",
            "gasLimit": 1000000,
            "gasPrice": "30",
            "gasUsed": 482735,
            "intTxnCount": 4,
            "internalRevert": false,
            "internalRevertMessage": "",
            "isContractCreation": false,
            "isFlashloan": false,
            "maxFee": "",
            "nonce": 163,
            "overwritedBlockNumber": -1,
            "priorityFee": "",
            "receiver": "0xae9b8e05c22bae74d1e8db82c4af122b18050bd4",
            "revertMessage": "",
            "sender": "0xbbc86b5b063ae85edd9bcc60be49c5ebff6455ef",
            "simulationEnable": true,
            "sourceTxnHash": "0x1bedaf1baf3f2158bf19d5dbc3710bd273e9ab87517ea57ac214a085068ab903",
            "status": true,
            "timestamp": "2019-03-07T02:36:12Z",
            "transactionFee": "0.01448205",
            "txnHash": "0x1bedaf1baf3f2158bf19d5dbc3710bd273e9ab87517ea57ac214a085068ab903",
            "txnIndex": 13,
            "type": 0,
            "value": "0"
        },
        "fund_flow": [
            {
                "amount": "1",
                "from": "0xbbc86b5b063ae85edd9bcc60be49c5ebff6455ef",
                "id": 1,
                "isERC1155": false,
                "isERC721": false,
                "isReverted": false,
                "order": 1,
                "to": "0xae9b8e05c22bae74d1e8db82c4af122b18050bd4",
                "token": "0x03cb0021808442ad5efb61197966aef72a1def96"
            },
            {
                "amount": "50",
                "from": "0xae9b8e05c22bae74d1e8db82c4af122b18050bd4",
                "id": 2,
                "isERC1155": false,
                "isERC721": false,
                "isReverted": false,
                "order": 2,
                "to": "0xbbc86b5b063ae85edd9bcc60be49c5ebff6455ef",
                "token": "0x573aaaa81154cd24e96f0cb97fd86110b8f6767f"
            },
            {
                "amount": "0.09",
                "from": "0xae9b8e05c22bae74d1e8db82c4af122b18050bd4",
                "id": 3,
                "isERC1155": false,
                "isERC721": false,
                "isReverted": false,
                "order": 3,
                "to": "0x62a364f7cba3be8fc9dcfdde12cabec8244af381",
                "token": "0x03cb0021808442ad5efb61197966aef72a1def96"
            }
        ],
        "token_infos": [
            {
                "address": "0xeeeeeeeeeeeeeeeeeeeeeeeeeeeeeeeeeeeeeeee",
                "decimals": 18
            },
            {
                "address": "0x03cb0021808442ad5efb61197966aef72a1def96",
                "decimals": 18
            },
            {
                "address": "0x573aaaa81154cd24e96f0cb97fd86110b8f6767f",
                "decimals": 18
            },
            {
                "address": "0xc02aaa39b223fe8d0a0e5c4f27ead9083c756cc2",
                "decimals": 18
            }
        ]
    },
    "address_label": {
        "labels": [
            {
                "address": "0x573aaaa81154cd24e96f0cb97fd86110b8f6767f",
                "label": "Fus"
            },
            {
                "address": "0x0000000000000000000000000000000000000001",
                "label": "Precompiled"
            },
            {
                "address": "0x0000000000000000000000000000000000000002",
                "label": "Precompiled"
            },
            {
                "address": "0x0000000000000000000000000000000000000003",
                "label": "Precompiled"
            },
            {
                "address": "0x0000000000000000000000000000000000000004",
                "label": "Precompiled"
            },
            {
                "address": "0xeeeeeeeeeeeeeeeeeeeeeeeeeeeeeeeeeeeeeeee",
                "label": "Ether"
            },
            {
                "address": "0xae9b8e05c22bae74d1e8db82c4af122b18050bd4",
                "label": "Biigo2"
            },
            {
                "address": "0x03cb0021808442ad5efb61197966aef72a1def96",
                "label": "coToken (coToken)"
            }
        ]
    },
    "trace": {
        "accountLabels": null,
        "dataMap": {
            "-1": {
                "invocation": {
                    "address": "0xbbc86b5b063ae85edd9bcc60be49c5ebff6455ef",
                    "callData": "",
                    "decodedMethod": null,
                    "errorInfo": "",
                    "fromAddress": "",
                    "gasUsed": 0,
                    "id": -1,
                    "methodDecoded": false,
                    "operation": "",
                    "output": "",
                    "revert": false,
                    "revertMessage": "",
                    "selector": "",
                    "status": false,
                    "value": ""
                },
                "nodeType": 0
            },
            "0": {
                "invocation": {
                    "address": "0xae9b8e05c22bae74d1e8db82c4af122b18050bd4",
                    "callData": "0x0000000000000000000000000000000000000000000000000de0b6b3a764000000000000000000000000000000000000000000000000000000000000000000080000000000000000000000000000000000000000000000000000000000000000000000000000000000000000000000000000000000000000000000000000000c",
                    "decodedMethod": {
                        "callParams": [
                            {
                                "name": "tokenId",
                                "type": "uint256",
                                "value": "1,000,000,000,000,000,000"
                            },
                            {
                                "name": "price",
                                "type": "uint256",
                                "value": "8"
                            },
                            {
                                "name": "safe",
                                "type": "bool",
                                "value": false
                            },
                            {
                                "name": "hookCount",
                                "type": "uint256",
                                "value": "12"
                            }
                        ],
                        "constructorArguments": "",
                        "name": "buy",
                        "returnParams": [],
                        "signature": "buy(uint256,uint256,bool,uint256)"
                    },
                    "errorInfo": "",
                    "fromAddress": "0xbbc86b5b063ae85edd9bcc60be49c5ebff6455ef",
                    "gasUsed": 482735,
                    "id": 0,
                    "methodDecoded": true,
                    "operation": "CALL",
                    "output": "",
                    "revert": false,
                    "revertMessage": "",
                    "selector": "0x29675f29",
                    "status": true,
                    "value": "0"
                },
                "nodeType": 0
            },
            "1": {
                "invocation": {
                    "address": "0x03cb0021808442ad5efb61197966aef72a1def96",
                    "callData": "0x000000000000000000000000bbc86b5b063ae85edd9bcc60be49c5ebff6455ef0000000000000000000000000000000000000000000000000de0b6b3a7640000",
                    "decodedMethod": {
                        "callParams": [
                            {
                                "name": "_to",
                                "type": "address",
                                "value": "0xbbc86b5b063ae85edd9bcc60be49c5ebff6455ef"
                            },
                            {
                                "name": "_value",
                                "type": "uint256",
                                "value": "1,000,000,000,000,000,000"
                            }
                        ],
                        "constructorArguments": "",
                        "name": "deduct",
                        "returnParams": [
                            {
                                "name": "success",
                                "type": "bool",
                                "value": true
                            }
                        ],
                        "signature": "deduct(address,uint256)"
                    },
                    "errorInfo": "",
                    "fromAddress": "0xae9b8e05c22bae74d1e8db82c4af122b18050bd4",
                    "gasUsed": 14038,
                    "id": 1,
                    "methodDecoded": true,
                    "operation": "CALL",
                    "output": "0x0000000000000000000000000000000000000000000000000000000000000001",
                    "revert": false,
                    "revertMessage": "",
                    "selector": "0x47055321",
                    "status": true,
                    "value": "0"
                },
                "nodeType": 0
            },
            "2": {
                "event": {
                    "contract": "0x03cb0021808442ad5efb61197966aef72a1def96",
                    "decodedLog": {
                        "name": "Transfer",
                        "params": [
                            {
                                "name": "from",
                                "type": "address",
                                "value": "0xbbc86b5b063ae85edd9bcc60be49c5ebff6455ef"
                            },
                            {
                                "name": "to",
                                "type": "address",
                                "value": "0xae9b8e05c22bae74d1e8db82c4af122b18050bd4"
                            },
                            {
                                "decimalAvailable": true,
                                "name": "value",
                                "type": "uint256",
                                "value": "1,000,000,000,000,000,000"
                            }
                        ],
                        "signature": "Transfer(address,address,uint256)"
                    },
                    "id": 2,
                    "logData": "0x0000000000000000000000000000000000000000000000000de0b6b3a7640000",
                    "logDecoded": true,
                    "operation": "EVENT",
                    "revert": false,
                    "status": true,
                    "topics": [
                        "0xddf252ad1be2c89b69c2b068fc378daa952ba7f163c4a11628f55a4df523b3ef",
                        "0x000000000000000000000000bbc86b5b063ae85edd9bcc60be49c5ebff6455ef",
                        "0x000000000000000000000000ae9b8e05c22bae74d1e8db82c4af122b18050bd4"
                    ]
                },
                "nodeType": 1
            },
            "3": {
                "invocation": {
                    "address": "0x573aaaa81154cd24e96f0cb97fd86110b8f6767f",
                    "callData": "0x000000000000000000000000bbc86b5b063ae85edd9bcc60be49c5ebff6455ef000000000000000000000000000000000000000000000002b5e3af16b1880000",
                    "decodedMethod": {
                        "callParams": [
                            {
                                "name": "origin",
                                "type": "address",
                                "value": "0xbbc86b5b063ae85edd9bcc60be49c5ebff6455ef"
                            },
                            {
                                "name": "amount",
                                "type": "uint256",
                                "value": "50,000,000,000,000,000,000"
                            }
                        ],
                        "constructorArguments": "",
                        "name": "distribute",
                        "returnParams": [],
                        "signature": "distribute(address,uint256)"
                    },
                    "errorInfo": "",
                    "fromAddress": "0xae9b8e05c22bae74d1e8db82c4af122b18050bd4",
                    "gasUsed": 39154,
                    "id": 3,
                    "methodDecoded": true,
                    "operation": "CALL",
                    "output": "",
                    "revert": false,
                    "revertMessage": "",
                    "selector": "0xfb932108",
                    "status": true,
                    "value": "0"
                },
                "nodeType": 0
            },
            "4": {
                "event": {
                    "contract": "0x573aaaa81154cd24e96f0cb97fd86110b8f6767f",
                    "decodedLog": {
                        "name": "Transfer",
                        "params": [
                            {
                                "name": "from",
                                "type": "address",
                                "value": "0xae9b8e05c22bae74d1e8db82c4af122b18050bd4"
                            },
                            {
                                "name": "to",
                                "type": "address",
                                "value": "0xbbc86b5b063ae85edd9bcc60be49c5ebff6455ef"
                            },
                            {
                                "decimalAvailable": true,
                                "name": "value",
                                "type": "uint256",
                                "value": "50,000,000,000,000,000,000"
                            }
                        ],
                        "signature": "Transfer(address,address,uint256)"
                    },
                    "id": 4,
                    "logData": "0x000000000000000000000000000000000000000000000002b5e3af16b1880000",
                    "logDecoded": true,
                    "operation": "EVENT",
                    "revert": false,
                    "status": true,
                    "topics": [
                        "0xddf252ad1be2c89b69c2b068fc378daa952ba7f163c4a11628f55a4df523b3ef",
                        "0x000000000000000000000000ae9b8e05c22bae74d1e8db82c4af122b18050bd4",
                        "0x000000000000000000000000bbc86b5b063ae85edd9bcc60be49c5ebff6455ef"
                    ]
                },
                "nodeType": 1
            },
            "5": {
                "invocation": {
                    "address": "0x62a364f7cba3be8fc9dcfdde12cabec8244af381",
                    "callData": "0x12f3906ff42016878a2ddb052d22836da1ad419a15662b82341c42721c4dc11400000000000000000000000000000000000000000000000000d529ae9e860000000000000000000000000000000000000000000000000000006a94d74f430000",
                    "decodedMethod": null,
                    "errorInfo": "",
                    "fromAddress": "0xae9b8e05c22bae74d1e8db82c4af122b18050bd4",
                    "gasUsed": 33340,
                    "id": 5,
                    "methodDecoded": false,
                    "operation": "CALL",
                    "output": "",
                    "revert": false,
                    "revertMessage": "",
                    "selector": "0x7f2dc9b5",
                    "status": true,
                    "value": "0"
                },
                "nodeType": 0
            },
            "6": {
                "invocation": {
                    "address": "0x03cb0021808442ad5efb61197966aef72a1def96",
                    "callData": "0x000000000000000000000000ae9b8e05c22bae74d1e8db82c4af122b18050bd4000000000000000000000000000000000000000000000000013fbe85edc90000",
                    "decodedMethod": {
                        "callParams": [
                            {
                                "name": "_to",
                                "type": "address",
                                "value": "0xae9b8e05c22bae74d1e8db82c4af122b18050bd4"
                            },
                            {
                                "name": "_value",
                                "type": "uint256",
                                "value": "90,000,000,000,000,000"
                            }
                        ],
                        "constructorArguments": "",
                        "name": "deduct",
                        "returnParams": [
                            {
                                "name": "success",
                                "type": "bool",
                                "value": true
                            }
                        ],
                        "signature": "deduct(address,uint256)"
                    },
                    "errorInfo": "",
                    "fromAddress": "0x62a364f7cba3be8fc9dcfdde12cabec8244af381",
                    "gasUsed": 14038,
                    "id": 6,
                    "methodDecoded": true,
                    "operation": "CALL",
                    "output": "0x0000000000000000000000000000000000000000000000000000000000000001",
                    "revert": false,
                    "revertMessage": "",
                    "selector": "0x47055321",
                    "status": true,
                    "value": "0"
                },
                "nodeType": 0
            },
            "7": {
                "event": {
                    "contract": "0x03cb0021808442ad5efb61197966aef72a1def96",
                    "decodedLog": {
                        "name": "Transfer",
                        "params": [
                            {
                                "name": "from",
                                "type": "address",
                                "value": "0xae9b8e05c22bae74d1e8db82c4af122b18050bd4"
                            },
                            {
                                "name": "to",
                                "type": "address",
                                "value": "0x62a364f7cba3be8fc9dcfdde12cabec8244af381"
                            },
                            {
                                "decimalAvailable": true,
                                "name": "value",
                                "type": "uint256",
                                "value": "90,000,000,000,000,000"
                            }
                        ],
                        "signature": "Transfer(address,address,uint256)"
                    },
                    "id": 7,
                    "logData": "0x000000000000000000000000000000000000000000000000013fbe85edc90000",
                    "logDecoded": true,
                    "operation": "EVENT",
                    "revert": false,
                    "status": true,
                    "topics": [
                        "0xddf252ad1be2c89b69c2b068fc378daa952ba7f163c4a11628f55a4df523b3ef",
                        "0x000000000000000000000000ae9b8e05c22bae74d1e8db82c4af122b18050bd4",
                        "0x00000000000000000000000062a364f7cba3be8fc9dcfdde12cabec8244af381"
                    ]
                },
                "nodeType": 1
            }
        },
        "gasFlame": [
            {
                "children": [
                    {
                        "children": [
                            {
                                "children": [],
                                "depth": 0,
                                "name": "Initial Gas",
                                "value": 22296
                            },
                            {
                                "children": [
                                    {
                                        "children": [],
                                        "depth": 1,
                                        "name": "deduct",
                                        "value": 14038
                                    },
                                    {
                                        "children": [],
                                        "depth": 1,
                                        "name": "distribute",
                                        "value": 39154
                                    },
                                    {
                                        "children": [
                                            {
                                                "children": [],
                                                "depth": 2,
                                                "name": "deduct",
                                                "value": 14038
                                            }
                                        ],
                                        "depth": 1,
                                        "name": "0x7f2dc9b5",
                                        "value": 33340
                                    }
                                ],
                                "depth": 0,
                                "name": "Executed Gas",
                                "value": 460439
                            }
                        ],
                        "depth": -1,
                        "name": "Actual Gas Used",
                        "value": 482735
                    },
                    {
                        "children": [],
                        "depth": -1,
                        "name": "Refunded Gas",
                        "value": 0
                    }
                ],
                "depth": -2,
                "name": "Total Gas",
                "value": 482735
            }
        ],
        "isConfirmed": true,
        "mainTrace": [
            {
                "children": [
                    {
                        "children": [
                            {
                                "children": [
                                    {
                                        "children": [],
                                        "depth": 2,
                                        "id": 2,
                                        "order": 2
                                    }
                                ],
                                "depth": 1,
                                "id": 1,
                                "order": 1
                            },
                            {
                                "children": [
                                    {
                                        "children": [],
                                        "depth": 2,
                                        "id": 4,
                                        "order": 4
                                    }
                                ],
                                "depth": 1,
                                "id": 3,
                                "order": 3
                            },
                            {
                                "children": [
                                    {
                                        "children": [
                                            {
                                                "children": [],
                                                "depth": 3,
                                                "id": 7,
                                                "order": 7
                                            }
                                        ],
                                        "depth": 2,
                                        "id": 6,
                                        "order": 6
                                    }
                                ],
                                "depth": 1,
                                "id": 5,
                                "order": 5
                            }
                        ],
                        "depth": 0,
                        "id": 0,
                        "order": 0
                    }
                ],
                "depth": -1,
                "id": -1,
                "order": -1
            }
        ],
        "mainTraceNodeCount": 8,
        "parentIdMap": {
            "0": -1,
            "1": 0,
            "2": 1,
            "3": 0,
            "4": 3,
            "5": 0,
            "6": 5,
            "7": 6
        },
        "tidyTrace": [
            {
                "children": [
                    {
                        "children": [
                            {
                                "children": [
                                    {
                                        "children": [],
                                        "depth": 2,
                                        "id": 2,
                                        "order": 2
                                    }
                                ],
                                "depth": 1,
                                "id": 1,
                                "order": 1
                            },
                            {
                                "children": [
                                    {
                                        "children": [],
                                        "depth": 2,
                                        "id": 4,
                                        "order": 4
                                    }
                                ],
                                "depth": 1,
                                "id": 3,
                                "order": 3
                            },
                            {
                                "children": [
                                    {
                                        "children": [
                                            {
                                                "children": [],
                                                "depth": 3,
                                                "id": 7,
                                                "order": 7
                                            }
                                        ],
                                        "depth": 2,
                                        "id": 6,
                                        "order": 6
                                    }
                                ],
                                "depth": 1,
                                "id": 5,
                                "order": 5
                            }
                        ],
                        "depth": 0,
                        "id": 0,
                        "order": 0
                    }
                ],
                "depth": -1,
                "id": -1,
                "order": -1
            }
        ],
        "tidyTraceNodeCount": 8
    },
    "state_change": {
        "stateChanges": [
            {
                "address": "0x03cb0021808442ad5efb61197966aef72a1def96",
                "erc": "",
                "slots": [
                    {
                        "current": "0x0000000000000000000000000000000000000000000000000113eb0fe69855d7",
                        "key": "0xc5e0841e385dc83eec94ce1637fe3764df55f4d217f3a144ba416c7c32c50c18",
                        "prev": "0x0000000000000000000000000000000000000000000000000ef4a1c38dfc55d7"
                    },
                    {
                        "current": "0x000000000000000000000000000000000000000000000049d5bd92b6ee5d5c7a",
                        "key": "0x185346adec82a13a5fc08c7d533e8c80399779c28b22f298647f4f0c87c5c363",
                        "prev": "0x000000000000000000000000000000000000000000000049c91c9a8934c25c7a"
                    },
                    {
                        "current": "0x0000000000000000000000000000000000000000000000227ee052d858557170",
                        "key": "0x2ae1781e2b15e18335d21665ed35f55f4489bb9a28dc7e5c8dd1f7abd6dbaf1c",
                        "prev": "0x0000000000000000000000000000000000000000000000227da094526a8c7170"
                    }
                ],
                "storageVariables": []
            },
            {
                "address": "0x573aaaa81154cd24e96f0cb97fd86110b8f6767f",
                "erc": "",
                "slots": [
                    {
                        "current": "0x000000000000000000000000000000000000000000062e2a59a98c0c6f140001",
                        "key": "0xb168e0b9e09601c4f19c3c4777eb2b5ea2adc80e119631df9f581c5a8776bd3a",
                        "prev": "0x000000000000000000000000000000000000000000062e27a3c5dcf5bd8c0001"
                    },
                    {
                        "current": "0x0000000000000000000000000000000000000000001ae829fea67914b8ec0000",
                        "key": "0x185346adec82a13a5fc08c7d533e8c80399779c28b22f298647f4f0c87c5c363",
                        "prev": "0x0000000000000000000000000000000000000000001ae82cb48a282b6a740000"
                    },
                    {
                        "current": "0x00000000000000000000000000000000000000000000009db27c17751b540000",
                        "key": "0xc5e0841e385dc83eec94ce1637fe3764df55f4d217f3a144ba416c7c32c50c18",
                        "prev": "0x00000000000000000000000000000000000000000000009afc98685e69cc0000"
                    },
                    {
                        "current": "0x0000000000000000000000000000000000000000000a81d30d62d1d248c60000",
                        "key": "0x06f8c95004082a5edc664ebef019ecff95ff1fc5a6fe116c7c449d6a0bc7041c",
                        "prev": "0x0000000000000000000000000000000000000000000a81d0577f22bb973e0000"
                    },
                    {
                        "current": "0x00000000000000000000000000000000000000000009bd2cd5bd006440de0000",
                        "key": "0x8f9c7e241539d1f10aeabb946285fadf5c5f29fe9251e834bbb04d5956aa65a1",
                        "prev": "0x00000000000000000000000000000000000000000009bd2a1fd9514d8f560000"
                    }
                ],
                "storageVariables": []
            },
            {
                "address": "0x62a364f7cba3be8fc9dcfdde12cabec8244af381",
                "erc": "",
                "slots": [
                    {
                        "current": "0x00000000000000000000000000000000000000000000000001aa535d3d0c0000",
                        "key": "0xe6376d6aefda5d3fb2ae57837574da38868e4dee3ad35b64272d41811c7531ec",
                        "prev": "0x00000000000000000000000000000000000000000000000000d529ae9e860000"
                    },
                    {
                        "current": "0x00000000000000000000000000000000000000000000000000d529ae9e860000",
                        "key": "0xf2b7e3040267ffe35c5d71c41a5b727cc1efc5ef0e8fc6d3d99ddc8cd601e644",
                        "prev": "0x000000000000000000000000000000000000000000000000006a94d74f430000"
                    },
                    {
                        "current": "0x0000000000000000000000000000000000000000000000002b69e215edf58000",
                        "key": "0x2c0775a5a537b1cd7f27df9086e414e564528a5d469af91cc55156d3b43d322f",
                        "prev": "0x0000000000000000000000000000000000000000000000002a94b8674f6f8000"
                    }
                ],
                "storageVariables": []
            },
            {
                "address": "0xae9b8e05c22bae74d1e8db82c4af122b18050bd4",
                "erc": "",
                "slots": [
                    {
                        "current": "0x00000000000000000000000000000000000000000000000000160c0800000c3c",
                        "key": "0x71c4c5379765e29a12962cf280a2ee1e7c37fc7836df6063aadfd8f501cde9da",
                        "prev": "0x00000000000000000000000000000000000000000000000000150c0600000c3b"
                    },
                    {
                        "current": "0x000000000000000000000000000000640064080c000000005c80839c00000c3c",
                        "key": "0xff616a1bcc88af527e84f2c9cbe1c8b06b3dbf4c7f2dc82a0a3352408f6d2bd2",
                        "prev": "0x0000000000000000000000000000006401680a00000000005c6bc14c00000948"
                    },
                    {
                        "current": "0x0000006400c8006400000c3cbbc86b5b063ae85edd9bcc60be49c5ebff6455ef",
                        "key": "0x9a8de991efae81ea23a17cb5b1871949ed9b54fb9ffb861af31a3d442e7da252",
                        "prev": "0x000000010002000100000c3a482d2d5f0419dc136c826f904f986d9965015d75"
                    },
                    {
                        "current": "0x000000000000000000000000000000000000000200000000000000c800000c3c",
                        "key": "0x0000000000000000000000000000000000000000000000000000000000000018",
                        "prev": "0x0000000000000000000000000000000000000001000000000000006400000c3c"
                    },
                    {
                        "current": "0x0000000000000000000000000000000000000000000000029e931ffd5ae00000",
                        "key": "0xa587aed33943dfef8e80ea46f0f350587c91caad4fa5faac16cae25d08c159c1",
                        "prev": "0x00000000000000000000000000000000000000000000000290b26949b37c0000"
                    }
                ],
                "storageVariables": []
            }
        ]
    }
}