{
    "balance_change": {
        "balanceChanges": [
            {
                "account": "0xfad35430c2faf2ea55acf8755a879a26ab5fab36",
                "assets": [
                    {
                        "address": "0xd07dc4262bcdbf85190c01c996b4c06a461d2430",
                        "amount": "5",
                        "iconUrl": "",
                        "isERC1155": true,
                        "isERC721": false,
                        "sign": true,
                        "tokenID": "516246",
                        "value": ""
                    },
                    {
                        "address": "0xeeeeeeeeeeeeeeeeeeeeeeeeeeeeeeeeeeeeeeee",
                        "amount": "1.23",
                        "iconUrl": "https://assets.blocksec.com/image/1663669189317-3.png",
                        "isERC1155": false,
                        "isERC721": false,
                        "sign": false,
                        "value": "4825.61295"
                    }
                ]
            },
            {
                "account": "0xe627243104a101ca59a2c629adbcd63a782e837f",
                "assets": [
                    {
                        "address": "0xeeeeeeeeeeeeeeeeeeeeeeeeeeeeeeeeeeeeeeee",
                        "amount": "0.06",
                        "iconUrl": "https://assets.blocksec.com/image/1663669189317-3.png",
                        "isERC1155": false,
                        "isERC721": false,
                        "sign": true,
                        "value": "235.3957537"
                    }
                ]
            },
            {
                "account": "0xf012d5e006492fe59683abc97b313c3889217067",
                "assets": [
                    {
                        "address": "0xd07dc4262bcdbf85190c01c996b4c06a461d2430",
                        "amount": "5",
                        "iconUrl": "",
                        "isERC1155": true,
                        "isERC721": false,
                        "sign": false,
                        "tokenID": "516246",
                        "value": ""
                    },
                    {
                        "address": "0xeeeeeeeeeeeeeeeeeeeeeeeeeeeeeeeeeeeeeeee",
                        "amount": "1.17",
                        "iconUrl": "https://assets.blocksec.com/image/1663669189317-3.png",
                        "isERC1155": false,
                        "isERC721": false,
                        "sign": true,
                        "value": "4590.217196"
                    }
                ]
            }
        ]
    },
    "profile": {
        "basic_info": {
            "baseFee": "",
            "blockNumber": 12402703,
            "callData": "0x9cec6392000000000000000000000000f012d5e006492fe59683abc97b313c388921706770f3e5df0651e16513c6b1c9e8d5e87b062ad51c99d6cf7e5ada1135999727a4000000000000000000000000d07dc4262bcdbf85190c01c996b4c06a461d2430000000000000000000000000000000000000000000000000000000000007e09600000000000000000000000000000000000000000000000000000000000000020000000000000000000000000000000000000000000000000000000000000000000000000000000000000000000000000000000000000000000000000000000000000000000000000000000000000000000000000000000000000000000000000000000000000000000000000000000000000000000000000000000000000037000000000000000000000000000000000000000000000000b72fd2103b28000000000000000000000000000000000000000000000000000000000000000000fa000000000000000000000000000000000000000000000000000000000000001b5d4f7df9450d91394e7054f5c68c3d4f8253b9fb64b6d49626387d715c7363737502757cf95523279baa20c1ac2e148aa02ef82b3dc1a2cdf92df70bcb9435da00000000000000000000000000000000000000000000000000000000000000fa000000000000000000000000000000000000000000000000000000000000001c8feefe6774bee2ca1cb706adc1b6da470d72a3fd83b3ecdc90d7b6163f9496c4287cbb493ff6cb20a51cf51e2777fd576daf82bef48d02a0c1c91e10eb2ccb2e00000000000000000000000000000000000000000000000000000000000000050000000000000000000000000000000000000000000000000000000000000000",
            "debugEnable": true,
            "errorInfo": "",
            "eventCount": 2,
            "feeRecipient": "0xf541c3cd1d2df407fb9bb52b3489fc2aaeedd97e",
            "formatValue": "1.23",
            "gasLimit": 266839,
            "gasPrice": "83",
            "gasUsed": 266839,
            "intTxnCount": 12,
            "internalRevert": false,
            "internalRevertMessage": "",
            "isContractCreation": false,
            "isFlashloan": false,
            "maxFee": "",
            "nonce": 6,
            "overwritedBlockNumber": -1,
            "priorityFee": "",
            "receiver": "0xcd4ec7b66fbc029c116ba9ffb3e59351c20b5b06",
            "revertMessage": "",
            "sender": "0xfad35430c2faf2ea55acf8755a879a26ab5fab36",
            "simulationEnable": true,
            "sourceTxnHash": "0x1b6272473a93045d5281d2db6053b84d05a7f9ac62ae4573f6a6d39163ae7efe",
            "status": true,
            "timestamp": "2021-05-09T21:55:06Z",
            "transactionFee": "0.022147637",
            "txnHash": "0x1b6272473a93045d5281d2db6053b84d05a7f9ac62ae4573f6a6d39163ae7efe",
            "txnIndex": 79,
            "type": 0,
            "value": "1230000000000000000"
        },
        "fund_flow": [
            {
                "amount": "1.23",
                "from": "0xfad35430c2faf2ea55acf8755a879a26ab5fab36",
                "id": 1,
                "isERC1155": false,
                "isERC721": false,
                "isReverted": false,
                "order": 1,
                "to": "0xcd4ec7b66fbc029c116ba9ffb3e59351c20b5b06",
                "token": "0xeeeeeeeeeeeeeeeeeeeeeeeeeeeeeeeeeeeeeeee"
            },
            {
                "amount": "5",
                "from": "0xf012d5e006492fe59683abc97b313c3889217067",
                "id": 2,
                "isERC1155": true,
                "isERC721": false,
                "isReverted": false,
                "order": 2,
                "to": "0xfad35430c2faf2ea55acf8755a879a26ab5fab36",
                "token": "0xd07dc4262bcdbf85190c01c996b4c06a461d2430",
                "tokenID": "516246"
            },
            {
                "amount": "0.06",
                "from": "0xcd4ec7b66fbc029c116ba9ffb3e59351c20b5b06",
                "id": 3,
                "isERC1155": false,
                "isERC721": false,
                "isReverted": false,
                "order": 3,
                "to": "0xe627243104a101ca59a2c629adbcd63a782e837f",
                "token": "0xeeeeeeeeeeeeeeeeeeeeeeeeeeeeeeeeeeeeeeee"
            },
            {
                "amount": "1.17",
                "from": "0xcd4ec7b66fbc029c116ba9ffb3e59351c20b5b06",
                "id": 4,
                "isERC1155": false,
                "isERC721": false,
                "isReverted": false,
                "order": 4,
                "to": "0xf012d5e006492fe59683abc97b313c3889217067",
                "token": "0xeeeeeeeeeeeeeeeeeeeeeeeeeeeeeeeeeeeeeeee"
            }
        ],
        "token_infos": [
            {
                "address": "0xc02aaa39b223fe8d0a0e5c4f27ead9083c756cc2",
                "decimals": 18
            },
            {
                "address": "0xeeeeeeeeeeeeeeeeeeeeeeeeeeeeeeeeeeeeeeee",
                "decimals": 18
            }
        ]
    },
    "address_label": {
        "labels": [
            {
                "address": "0x0000000000000000000000000000000000000000",
                "label": "Null Address"
            },
            {
                "address": "0x0000000000000000000000000000000000000001",
                "label": "Precompiled"
            },
            {
                "address": "0x0000000000000000000000000000000000000003",
                "label": "Precompiled"
            },
            {
                "address": "0x0000000000000000000000000000000000000004",
                "label": "Precompiled"
            },
            {
                "address": "0xd07dc4262bcdbf85190c01c996b4c06a461d2430",
                "label": "Rarible: RARI Token 3"
            },
            {
                "address": "0xcd4ec7b66fbc029c116ba9ffb3e59351c20b5b06",
                "label": "Rarible: Exchange 1"
            },
            {
                "address": "0xed1f5f8724cc185d4e48a71a7fac64fa5216e4a8",
                "label": "ExchangeStateV1"
            },
            {
                "address": "0x0000000000000000000000000000000000000002",
                "label": "Precompiled"
            },
            {
                "address": "0xeeeeeeeeeeeeeeeeeeeeeeeeeeeeeeeeeeeeeeee",
                "label": "Ether"
            },
            {
                "address": "0x4fee7b061c97c9c496b01dbce9cdb10c02f0a0be",
                "label": "Rarible:Transfer Proxy"
            }
        ]
    },
    "trace": {
        "accountLabels": null,
        "dataMap": {
            "-1": {
                "invocation": {
                    "address": "0xfad35430c2faf2ea55acf8755a879a26ab5fab36",
                    "callData": "",
                    "decodedMethod": null,
                    "errorInfo": "",
                    "fromAddress": "",
                    "gasUsed": 0,
                    "id": -1,
                    "methodDecoded": false,
                    "operation": "",
                    "output": "",
                    "revert": false,
                    "revertMessage": "",
                    "selector": "",
                    "status": false,
                    "value": ""
                },
                "nodeType": 0
            },
            "0": {
                "invocation": {
                    "address": "0xcd4ec7b66fbc029c116ba9ffb3e59351c20b5b06",
                    "callData": "0x000000000000000000000000f012d5e006492fe59683abc97b313c388921706770f3e5df0651e16513c6b1c9e8d5e87b062ad51c99d6cf7e5ada1135999727a4000000000000000000000000d07dc4262bcdbf85190c01c996b4c06a461d2430000000000000000000000000000000000000000000000000000000000007e09600000000000000000000000000000000000000000000000000000000000000020000000000000000000000000000000000000000000000000000000000000000000000000000000000000000000000000000000000000000000000000000000000000000000000000000000000000000000000000000000000000000000000000000000000000000000000000000000000000000000000000000000000000037000000000000000000000000000000000000000000000000b72fd2103b28000000000000000000000000000000000000000000000000000000000000000000fa000000000000000000000000000000000000000000000000000000000000001b5d4f7df9450d91394e7054f5c68c3d4f8253b9fb64b6d49626387d715c7363737502757cf95523279baa20c1ac2e148aa02ef82b3dc1a2cdf92df70bcb9435da00000000000000000000000000000000000000000000000000000000000000fa000000000000000000000000000000000000000000000000000000000000001c8feefe6774bee2ca1cb706adc1b6da470d72a3fd83b3ecdc90d7b6163f9496c4287cbb493ff6cb20a51cf51e2777fd576daf82bef48d02a0c1c91e10eb2ccb2e00000000000000000000000000000000000000000000000000000000000000050000000000000000000000000000000000000000000000000000000000000000",
                    "decodedMethod": {
                        "callParams": [
                            {
                                "name": "order",
                                "type": "((address,uint256,(address,uint256,uint8),(address,uint256,uint8)),uint256,uint256,uint256)",
                                "value": [
                                    {
                                        "name": "key",
                                        "type": "(address,uint256,(address,uint256,uint8),(address,uint256,uint8))",
                                        "value": [
                                            {
                                                "name": "owner",
                                                "type": "address",
                                                "value": "0xf012d5e006492fe59683abc97b313c3889217067"
                                            },
                                            {
                                                "name": "salt",
                                                "type": "uint256",
                                                "value": "51,089,969,390,714,062,116,430,284,888,620,936,708,711,586,954,283,874,892,078,118,047,014,022,752,164"
                                            },
                                            {
                                                "name": "sellAsset",
                                                "type": "(address,uint256,uint8)",
                                                "value": [
                                                    {
                                                        "name": "token",
                                                        "type": "address",
                                                        "value": "0xd07dc4262bcdbf85190c01c996b4c06a461d2430"
                                                    },
                                                    {
                                                        "name": "tokenId",
                                                        "type": "uint256",
                                                        "value": "516,246"
                                                    },
                                                    {
                                                        "name": "assetType",
                                                        "type": "uint8",
                                                        "value": "2"
                                                    }
                                                ]
                                            },
                                            {
                                                "name": "buyAsset",
                                                "type": "(address,uint256,uint8)",
                                                "value": [
                                                    {
                                                        "name": "token",
                                                        "type": "address",
                                                        "value": "0x0000000000000000000000000000000000000000"
                                                    },
                                                    {
                                                        "name": "tokenId",
                                                        "type": "uint256",
                                                        "value": "0"
                                                    },
                                                    {
                                                        "name": "assetType",
                                                        "type": "uint8",
                                                        "value": "0"
                                                    }
                                                ]
                                            }
                                        ]
                                    },
                                    {
                                        "name": "selling",
                                        "type": "uint256",
                                        "value": "55"
                                    },
                                    {
                                        "name": "buying",
                                        "type": "uint256",
                                        "value": "13,200,000,000,000,000,000"
                                    },
                                    {
                                        "name": "sellerFee",
                                        "type": "uint256",
                                        "value": "250"
                                    }
                                ]
                            },
                            {
                                "name": "sig",
                                "type": "(uint8,bytes32,bytes32)",
                                "value": [
                                    {
                                        "name": "v",
                                        "type": "uint8",
                                        "value": "27"
                                    },
                                    {
                                        "name": "r",
                                        "type": "bytes32",
                                        "value": "0x5d4f7df9450d91394e7054f5c68c3d4f8253b9fb64b6d49626387d715c736373"
                                    },
                                    {
                                        "name": "s",
                                        "type": "bytes32",
                                        "value": "0x7502757cf95523279baa20c1ac2e148aa02ef82b3dc1a2cdf92df70bcb9435da"
                                    }
                                ]
                            },
                            {
                                "name": "buyerFee",
                                "type": "uint256",
                                "value": "250"
                            },
                            {
                                "name": "buyerFeeSig",
                                "type": "(uint8,bytes32,bytes32)",
                                "value": [
                                    {
                                        "name": "v",
                                        "type": "uint8",
                                        "value": "28"
                                    },
                                    {
                                        "name": "r",
                                        "type": "bytes32",
                                        "value": "0x8feefe6774bee2ca1cb706adc1b6da470d72a3fd83b3ecdc90d7b6163f9496c4"
                                    },
                                    {
                                        "name": "s",
                                        "type": "bytes32",
                                        "value": "0x287cbb493ff6cb20a51cf51e2777fd576daf82bef48d02a0c1c91e10eb2ccb2e"
                                    }
                                ]
                            },
                            {
                                "name": "amount",
                                "type": "uint256",
                                "value": "5"
                            },
                            {
                                "name": "buyer",
                                "type": "address",
                                "value": "0x0000000000000000000000000000000000000000"
                            }
                        ],
                        "constructorArguments": "",
                        "name": "exchange",
                        "returnParams": [],
                        "signature": "exchange(((address,uint256,(address,uint256,uint8),(address,uint256,uint8)),uint256,uint256,uint256),(uint8,bytes32,bytes32),uint256,(uint8,bytes32,bytes32),uint256,address)"
                    },
                    "errorInfo": "",
                    "fromAddress": "0xfad35430c2faf2ea55acf8755a879a26ab5fab36",
                    "gasUsed": 266839,
                    "id": 0,
                    "methodDecoded": true,
                    "operation": "CALL",
                    "output": "",
                    "revert": false,
                    "revertMessage": "",
                    "selector": "0x9cec6392",
                    "status": true,
                    "value": "1.23"
                },
                "nodeType": 0
            },
            "1": {
                "invocation": {
                    "address": "0x0000000000000000000000000000000000000001",
                    "callData": "0x33a193d39fb142a3bd583bd8ba178baf3d22858760f1abde62feb503000000000000000000000000000000000000000000000000000000000000001b5d4f7df9450d91394e7054f5c68c3d4f8253b9fb64b6d49626387d715c7363737502757cf95523279baa20c1ac2e148aa02ef82b3dc1a2cdf92df70bcb9435da",
                    "decodedMethod": {
                        "callParams": [
                            {
                                "name": "hash",
                                "type": "bytes32",
                                "value": "0x0c65df3b33a193d39fb142a3bd583bd8ba178baf3d22858760f1abde62feb503"
                            },
                            {
                                "name": "v",
                                "type": "uint256",
                                "value": "27"
                            },
                            {
                                "name": "r",
                                "type": "bytes32",
                                "value": "0x5d4f7df9450d91394e7054f5c68c3d4f8253b9fb64b6d49626387d715c736373"
                            },
                            {
                                "name": "s",
                                "type": "bytes32",
                                "value": "0x7502757cf95523279baa20c1ac2e148aa02ef82b3dc1a2cdf92df70bcb9435da"
                            }
                        ],
                        "constructorArguments": "",
                        "name": "ecrecover",
                        "returnParams": [
                            {
                                "name": "",
                                "type": "address",
                                "value": "0xf012d5e006492fe59683abc97b313c3889217067"
                            }
                        ],
                        "signature": "ecrecover(bytes32,uint256,bytes32,bytes32)"
                    },
                    "errorInfo": "",
                    "fromAddress": "0xcd4ec7b66fbc029c116ba9ffb3e59351c20b5b06",
                    "gasUsed": 3000,
                    "id": 1,
                    "methodDecoded": true,
                    "operation": "STATICCALL",
                    "output": "0x000000000000000000000000f012d5e006492fe59683abc97b313c3889217067",
                    "revert": false,
                    "revertMessage": "",
                    "selector": "0x0c65df3b",
                    "status": true,
                    "value": "0"
                },
                "nodeType": 0
            },
            "10": {
                "invocation": {
                    "address": "0xd07dc4262bcdbf85190c01c996b4c06a461d2430",
                    "callData": "0x000000000000000000000000000000000000000000000000000000000007e096",
                    "decodedMethod": {
                        "callParams": [
                            {
                                "name": "id",
                                "type": "uint256",
                                "value": "516,246"
                            }
                        ],
                        "constructorArguments": "",
                        "name": "getFeeRecipients",
                        "returnParams": [
                            {
                                "name": "",
                                "type": "address[]",
                                "value": [
                                    "0xf012d5e006492fe59683abc97b313c3889217067"
                                ]
                            }
                        ],
                        "signature": "getFeeRecipients(uint256)"
                    },
                    "errorInfo": "",
                    "fromAddress": "0xcd4ec7b66fbc029c116ba9ffb3e59351c20b5b06",
                    "gasUsed": 8067,
                    "id": 10,
                    "methodDecoded": true,
                    "operation": "STATICCALL",
                    "output": "0x00000000000000000000000000000000000000000000000000000000000000200000000000000000000000000000000000000000000000000000000000000001000000000000000000000000f012d5e006492fe59683abc97b313c3889217067",
                    "revert": false,
                    "revertMessage": "",
                    "selector": "0xb9c4d9fb",
                    "status": true,
                    "value": "0"
                },
                "nodeType": 0
            },
            "11": {
                "invocation": {
                    "address": "0xd07dc4262bcdbf85190c01c996b4c06a461d2430",
                    "callData": "0x000000000000000000000000000000000000000000000000000000000007e096",
                    "decodedMethod": {
                        "callParams": [
                            {
                                "name": "id",
                                "type": "uint256",
                                "value": "516,246"
                            }
                        ],
                        "constructorArguments": "",
                        "name": "getFeeBps",
                        "returnParams": [
                            {
                                "name": "",
                                "type": "uint256[]",
                                "value": [
                                    "1,000"
                                ]
                            }
                        ],
                        "signature": "getFeeBps(uint256)"
                    },
                    "errorInfo": "",
                    "fromAddress": "0xcd4ec7b66fbc029c116ba9ffb3e59351c20b5b06",
                    "gasUsed": 2024,
                    "id": 11,
                    "methodDecoded": true,
                    "operation": "STATICCALL",
                    "output": "0x0000000000000000000000000000000000000000000000000000000000000020000000000000000000000000000000000000000000000000000000000000000100000000000000000000000000000000000000000000000000000000000003e8",
                    "revert": false,
                    "revertMessage": "",
                    "selector": "0x0ebd4c7f",
                    "status": true,
                    "value": "0"
                },
                "nodeType": 0
            },
            "12": {
                "invocation": {
                    "address": "0xf012d5e006492fe59683abc97b313c3889217067",
                    "callData": "0x",
                    "decodedMethod": null,
                    "errorInfo": "",
                    "fromAddress": "0xcd4ec7b66fbc029c116ba9ffb3e59351c20b5b06",
                    "gasUsed": 0,
                    "id": 12,
                    "methodDecoded": false,
                    "operation": "CALL",
                    "output": "",
                    "revert": false,
                    "revertMessage": "",
                    "selector": "fallback",
                    "status": true,
                    "value": "0.12"
                },
                "nodeType": 0
            },
            "13": {
                "invocation": {
                    "address": "0xf012d5e006492fe59683abc97b313c3889217067",
                    "callData": "0x",
                    "decodedMethod": null,
                    "errorInfo": "",
                    "fromAddress": "0xcd4ec7b66fbc029c116ba9ffb3e59351c20b5b06",
                    "gasUsed": 0,
                    "id": 13,
                    "methodDecoded": false,
                    "operation": "CALL",
                    "output": "",
                    "revert": false,
                    "revertMessage": "",
                    "selector": "fallback",
                    "status": true,
                    "value": "1.05"
                },
                "nodeType": 0
            },
            "14": {
                "event": {
                    "contract": "0xcd4ec7b66fbc029c116ba9ffb3e59351c20b5b06",
                    "decodedLog": {
                        "name": "Buy",
                        "params": [
                            {
                                "name": "sellToken",
                                "type": "address",
                                "value": "0xd07dc4262bcdbf85190c01c996b4c06a461d2430"
                            },
                            {
                                "name": "sellTokenId",
                                "type": "uint256",
                                "value": "516,246"
                            },
                            {
                                "name": "sellValue",
                                "type": "uint256",
                                "value": "55"
                            },
                            {
                                "name": "owner",
                                "type": "address",
                                "value": "0xf012d5e006492fe59683abc97b313c3889217067"
                            },
                            {
                                "name": "buyToken",
                                "type": "address",
                                "value": "0x0000000000000000000000000000000000000000"
                            },
                            {
                                "name": "buyTokenId",
                                "type": "uint256",
                                "value": "0"
                            },
                            {
                                "name": "buyValue",
                                "type": "uint256",
                                "value": "13,200,000,000,000,000,000"
                            },
                            {
                                "name": "buyer",
                                "type": "address",
                                "value": "0xfad35430c2faf2ea55acf8755a879a26ab5fab36"
                            },
                            {
                                "name": "amount",
                                "type": "uint256",
                                "value": "5"
                            },
                            {
                                "name": "salt",
                                "type": "uint256",
                                "value": "51,089,969,390,714,062,116,430,284,888,620,936,708,711,586,954,283,874,892,078,118,047,014,022,752,164"
                            }
                        ],
                        "signature": "Buy(address,uint256,uint256,address,address,uint256,uint256,address,uint256,uint256)"
                    },
                    "id": 14,
                    "logData": "0x0000000000000000000000000000000000000000000000000000000000000037000000000000000000000000f012d5e006492fe59683abc97b313c388921706700000000000000000000000000000000000000000000000000000000000000000000000000000000000000000000000000000000000000000000000000000000000000000000000000000000000000000000000000000000b72fd2103b280000000000000000000000000000fad35430c2faf2ea55acf8755a879a26ab5fab36000000000000000000000000000000000000000000000000000000000000000570f3e5df0651e16513c6b1c9e8d5e87b062ad51c99d6cf7e5ada1135999727a4",
                    "logDecoded": true,
                    "operation": "EVENT",
                    "revert": false,
                    "status": true,
                    "topics": [
                        "0xdddcdb07e460849cf04a4445b7af9faf01b7f5c7ba75deaf969ac5ed830312c3",
                        "0x000000000000000000000000d07dc4262bcdbf85190c01c996b4c06a461d2430",
                        "0x000000000000000000000000000000000000000000000000000000000007e096"
                    ]
                },
                "nodeType": 1
            },
            "2": {
                "invocation": {
                    "address": "0x0000000000000000000000000000000000000001",
                    "callData": "0xe36b4438ae0e8615e8f479ec81efefbf2ddb721fdf0f68ea05248531000000000000000000000000000000000000000000000000000000000000001c8feefe6774bee2ca1cb706adc1b6da470d72a3fd83b3ecdc90d7b6163f9496c4287cbb493ff6cb20a51cf51e2777fd576daf82bef48d02a0c1c91e10eb2ccb2e",
                    "decodedMethod": {
                        "callParams": [
                            {
                                "name": "hash",
                                "type": "bytes32",
                                "value": "0x95b61f65e36b4438ae0e8615e8f479ec81efefbf2ddb721fdf0f68ea05248531"
                            },
                            {
                                "name": "v",
                                "type": "uint256",
                                "value": "28"
                            },
                            {
                                "name": "r",
                                "type": "bytes32",
                                "value": "0x8feefe6774bee2ca1cb706adc1b6da470d72a3fd83b3ecdc90d7b6163f9496c4"
                            },
                            {
                                "name": "s",
                                "type": "bytes32",
                                "value": "0x287cbb493ff6cb20a51cf51e2777fd576daf82bef48d02a0c1c91e10eb2ccb2e"
                            }
                        ],
                        "constructorArguments": "",
                        "name": "ecrecover",
                        "returnParams": [
                            {
                                "name": "",
                                "type": "address",
                                "value": "0xf03ba06dd459ae597357b491219fcb573f5fe683"
                            }
                        ],
                        "signature": "ecrecover(bytes32,uint256,bytes32,bytes32)"
                    },
                    "errorInfo": "",
                    "fromAddress": "0xcd4ec7b66fbc029c116ba9ffb3e59351c20b5b06",
                    "gasUsed": 3000,
                    "id": 2,
                    "methodDecoded": true,
                    "operation": "STATICCALL",
                    "output": "0x000000000000000000000000f03ba06dd459ae597357b491219fcb573f5fe683",
                    "revert": false,
                    "revertMessage": "",
                    "selector": "0x95b61f65",
                    "status": true,
                    "value": "0"
                },
                "nodeType": 0
            },
            "3": {
                "invocation": {
                    "address": "0xed1f5f8724cc185d4e48a71a7fac64fa5216e4a8",
                    "callData": "0x000000000000000000000000f012d5e006492fe59683abc97b313c388921706770f3e5df0651e16513c6b1c9e8d5e87b062ad51c99d6cf7e5ada1135999727a4000000000000000000000000d07dc4262bcdbf85190c01c996b4c06a461d2430000000000000000000000000000000000000000000000000000000000007e0960000000000000000000000000000000000000000000000000000000000000002000000000000000000000000000000000000000000000000000000000000000000000000000000000000000000000000000000000000000000000000000000000000000000000000000000000000000000000000000000000000000000000000",
                    "decodedMethod": {
                        "callParams": [
                            {
                                "name": "key",
                                "type": "(address,uint256,(address,uint256,uint8),(address,uint256,uint8))",
                                "value": [
                                    {
                                        "name": "owner",
                                        "type": "address",
                                        "value": "0xf012d5e006492fe59683abc97b313c3889217067"
                                    },
                                    {
                                        "name": "salt",
                                        "type": "uint256",
                                        "value": "51,089,969,390,714,062,116,430,284,888,620,936,708,711,586,954,283,874,892,078,118,047,014,022,752,164"
                                    },
                                    {
                                        "name": "sellAsset",
                                        "type": "(address,uint256,uint8)",
                                        "value": [
                                            {
                                                "name": "token",
                                                "type": "address",
                                                "value": "0xd07dc4262bcdbf85190c01c996b4c06a461d2430"
                                            },
                                            {
                                                "name": "tokenId",
                                                "type": "uint256",
                                                "value": "516,246"
                                            },
                                            {
                                                "name": "assetType",
                                                "type": "uint8",
                                                "value": "2"
                                            }
                                        ]
                                    },
                                    {
                                        "name": "buyAsset",
                                        "type": "(address,uint256,uint8)",
                                        "value": [
                                            {
                                                "name": "token",
                                                "type": "address",
                                                "value": "0x0000000000000000000000000000000000000000"
                                            },
                                            {
                                                "name": "tokenId",
                                                "type": "uint256",
                                                "value": "0"
                                            },
                                            {
                                                "name": "assetType",
                                                "type": "uint8",
                                                "value": "0"
                                            }
                                        ]
                                    }
                                ]
                            }
                        ],
                        "constructorArguments": "",
                        "name": "getCompleted",
                        "returnParams": [
                            {
                                "name": "",
                                "type": "uint256",
                                "value": "0"
                            }
                        ],
                        "signature": "getCompleted((address,uint256,(address,uint256,uint8),(address,uint256,uint8)))"
                    },
                    "errorInfo": "",
                    "fromAddress": "0xcd4ec7b66fbc029c116ba9ffb3e59351c20b5b06",
                    "gasUsed": 6060,
                    "id": 3,
                    "methodDecoded": true,
                    "operation": "STATICCALL",
                    "output": "0x0000000000000000000000000000000000000000000000000000000000000000",
                    "revert": false,
                    "revertMessage": "",
                    "selector": "0xfb0000c0",
                    "status": true,
                    "value": "0"
                },
                "nodeType": 0
            },
            "4": {
                "invocation": {
                    "address": "0xed1f5f8724cc185d4e48a71a7fac64fa5216e4a8",
                    "callData": "0x000000000000000000000000f012d5e006492fe59683abc97b313c388921706770f3e5df0651e16513c6b1c9e8d5e87b062ad51c99d6cf7e5ada1135999727a4000000000000000000000000d07dc4262bcdbf85190c01c996b4c06a461d2430000000000000000000000000000000000000000000000000000000000007e09600000000000000000000000000000000000000000000000000000000000000020000000000000000000000000000000000000000000000000000000000000000000000000000000000000000000000000000000000000000000000000000000000000000000000000000000000000000000000000000000000000000000000000000000000000000000000000000000000000000000000000000000000000005",
                    "decodedMethod": {
                        "callParams": [
                            {
                                "name": "key",
                                "type": "(address,uint256,(address,uint256,uint8),(address,uint256,uint8))",
                                "value": [
                                    {
                                        "name": "owner",
                                        "type": "address",
                                        "value": "0xf012d5e006492fe59683abc97b313c3889217067"
                                    },
                                    {
                                        "name": "salt",
                                        "type": "uint256",
                                        "value": "51,089,969,390,714,062,116,430,284,888,620,936,708,711,586,954,283,874,892,078,118,047,014,022,752,164"
                                    },
                                    {
                                        "name": "sellAsset",
                                        "type": "(address,uint256,uint8)",
                                        "value": [
                                            {
                                                "name": "token",
                                                "type": "address",
                                                "value": "0xd07dc4262bcdbf85190c01c996b4c06a461d2430"
                                            },
                                            {
                                                "name": "tokenId",
                                                "type": "uint256",
                                                "value": "516,246"
                                            },
                                            {
                                                "name": "assetType",
                                                "type": "uint8",
                                                "value": "2"
                                            }
                                        ]
                                    },
                                    {
                                        "name": "buyAsset",
                                        "type": "(address,uint256,uint8)",
                                        "value": [
                                            {
                                                "name": "token",
                                                "type": "address",
                                                "value": "0x0000000000000000000000000000000000000000"
                                            },
                                            {
                                                "name": "tokenId",
                                                "type": "uint256",
                                                "value": "0"
                                            },
                                            {
                                                "name": "assetType",
                                                "type": "uint8",
                                                "value": "0"
                                            }
                                        ]
                                    }
                                ]
                            },
                            {
                                "name": "newCompleted",
                                "type": "uint256",
                                "value": "5"
                            }
                        ],
                        "constructorArguments": "",
                        "name": "setCompleted",
                        "returnParams": [],
                        "signature": "setCompleted((address,uint256,(address,uint256,uint8),(address,uint256,uint8)),uint256)"
                    },
                    "errorInfo": "",
                    "fromAddress": "0xcd4ec7b66fbc029c116ba9ffb3e59351c20b5b06",
                    "gasUsed": 26210,
                    "id": 4,
                    "methodDecoded": true,
                    "operation": "CALL",
                    "output": "",
                    "revert": false,
                    "revertMessage": "",
                    "selector": "0x3a076e9a",
                    "status": true,
                    "value": "0"
                },
                "nodeType": 0
            },
            "5": {
                "invocation": {
                    "address": "0x4fee7b061c97c9c496b01dbce9cdb10c02f0a0be",
                    "callData": "0x000000000000000000000000d07dc4262bcdbf85190c01c996b4c06a461d2430000000000000000000000000f012d5e006492fe59683abc97b313c3889217067000000000000000000000000fad35430c2faf2ea55acf8755a879a26ab5fab36000000000000000000000000000000000000000000000000000000000007e096000000000000000000000000000000000000000000000000000000000000000500000000000000000000000000000000000000000000000000000000000000c00000000000000000000000000000000000000000000000000000000000000000",
                    "decodedMethod": {
                        "callParams": [
                            {
                                "name": "token",
                                "type": "address",
                                "value": "0xd07dc4262bcdbf85190c01c996b4c06a461d2430"
                            },
                            {
                                "name": "from",
                                "type": "address",
                                "value": "0xf012d5e006492fe59683abc97b313c3889217067"
                            },
                            {
                                "name": "to",
                                "type": "address",
                                "value": "0xfad35430c2faf2ea55acf8755a879a26ab5fab36"
                            },
                            {
                                "name": "id",
                                "type": "uint256",
                                "value": "516,246"
                            },
                            {
                                "name": "value",
                                "type": "uint256",
                                "value": "5"
                            },
                            {
                                "name": "data",
                                "type": "bytes",
                                "value": "0x"
                            }
                        ],
                        "constructorArguments": "",
                        "name": "erc1155safeTransferFrom",
                        "returnParams": [],
                        "signature": "erc1155safeTransferFrom(address,address,address,uint256,uint256,bytes)"
                    },
                    "errorInfo": "",
                    "fromAddress": "0xcd4ec7b66fbc029c116ba9ffb3e59351c20b5b06",
                    "gasUsed": 40330,
                    "id": 5,
                    "methodDecoded": true,
                    "operation": "CALL",
                    "output": "",
                    "revert": false,
                    "revertMessage": "",
                    "selector": "0x9c1c2ee9",
                    "status": true,
                    "value": "0"
                },
                "nodeType": 0
            },
            "6": {
                "invocation": {
                    "address": "0xd07dc4262bcdbf85190c01c996b4c06a461d2430",
                    "callData": "0x000000000000000000000000f012d5e006492fe59683abc97b313c3889217067000000000000000000000000fad35430c2faf2ea55acf8755a879a26ab5fab36000000000000000000000000000000000000000000000000000000000007e096000000000000000000000000000000000000000000000000000000000000000500000000000000000000000000000000000000000000000000000000000000a00000000000000000000000000000000000000000000000000000000000000000",
                    "decodedMethod": {
                        "callParams": [
                            {
                                "name": "_from",
                                "type": "address",
                                "value": "0xf012d5e006492fe59683abc97b313c3889217067"
                            },
                            {
                                "name": "_to",
                                "type": "address",
                                "value": "0xfad35430c2faf2ea55acf8755a879a26ab5fab36"
                            },
                            {
                                "name": "_id",
                                "type": "uint256",
                                "value": "516,246"
                            },
                            {
                                "name": "_value",
                                "type": "uint256",
                                "value": "5"
                            },
                            {
                                "name": "_data",
                                "type": "bytes",
                                "value": "0x"
                            }
                        ],
                        "constructorArguments": "",
                        "name": "safeTransferFrom",
                        "returnParams": [],
                        "signature": "safeTransferFrom(address,address,uint256,uint256,bytes)"
                    },
                    "errorInfo": "",
                    "fromAddress": "0x4fee7b061c97c9c496b01dbce9cdb10c02f0a0be",
                    "gasUsed": 34306,
                    "id": 6,
                    "methodDecoded": true,
                    "operation": "CALL",
                    "output": "",
                    "revert": false,
                    "revertMessage": "",
                    "selector": "0xf242432a",
                    "status": true,
                    "value": "0"
                },
                "nodeType": 0
            },
            "7": {
                "event": {
                    "contract": "0xd07dc4262bcdbf85190c01c996b4c06a461d2430",
                    "decodedLog": {
                        "name": "TransferSingle",
                        "params": [
                            {
                                "name": "_operator",
                                "type": "address",
                                "value": "0x4fee7b061c97c9c496b01dbce9cdb10c02f0a0be"
                            },
                            {
                                "name": "_from",
                                "type": "address",
                                "value": "0xf012d5e006492fe59683abc97b313c3889217067"
                            },
                            {
                                "name": "_to",
                                "type": "address",
                                "value": "0xfad35430c2faf2ea55acf8755a879a26ab5fab36"
                            },
                            {
                                "name": "_id",
                                "type": "uint256",
                                "value": "516,246"
                            },
                            {
                                "name": "_value",
                                "type": "uint256",
                                "value": "5"
                            }
                        ],
                        "signature": "TransferSingle(address,address,address,uint256,uint256)"
                    },
                    "id": 7,
                    "logData": "0x000000000000000000000000000000000000000000000000000000000007e0960000000000000000000000000000000000000000000000000000000000000005",
                    "logDecoded": true,
                    "operation": "EVENT",
                    "revert": false,
                    "status": true,
                    "topics": [
                        "0xc3d58168c5ae7397731d063d5bbf3d657854427343f4c083240f7aacaa2d0f62",
                        "0x0000000000000000000000004fee7b061c97c9c496b01dbce9cdb10c02f0a0be",
                        "0x000000000000000000000000f012d5e006492fe59683abc97b313c3889217067",
                        "0x000000000000000000000000fad35430c2faf2ea55acf8755a879a26ab5fab36"
                    ]
                },
                "nodeType": 1
            },
            "8": {
                "invocation": {
                    "address": "0xe627243104a101ca59a2c629adbcd63a782e837f",
                    "callData": "0x",
                    "decodedMethod": null,
                    "errorInfo": "",
                    "fromAddress": "0xcd4ec7b66fbc029c116ba9ffb3e59351c20b5b06",
                    "gasUsed": 0,
                    "id": 8,
                    "methodDecoded": false,
                    "operation": "CALL",
                    "output": "",
                    "revert": false,
                    "revertMessage": "",
                    "selector": "fallback",
                    "status": true,
                    "value": "0.06"
                },
                "nodeType": 0
            },
            "9": {
                "invocation": {
                    "address": "0xd07dc4262bcdbf85190c01c996b4c06a461d2430",
                    "callData": "0xb779958400000000000000000000000000000000000000000000000000000000",
                    "decodedMethod": {
                        "callParams": [
                            {
                                "name": "interfaceId",
                                "type": "bytes4",
                                "value": "0xb7799584"
                            }
                        ],
                        "constructorArguments": "",
                        "name": "supportsInterface",
                        "returnParams": [
                            {
                                "name": "",
                                "type": "bool",
                                "value": true
                            }
                        ],
                        "signature": "supportsInterface(bytes4)"
                    },
                    "errorInfo": "",
                    "fromAddress": "0xcd4ec7b66fbc029c116ba9ffb3e59351c20b5b06",
                    "gasUsed": 2797,
                    "id": 9,
                    "methodDecoded": true,
                    "operation": "STATICCALL",
                    "output": "0x0000000000000000000000000000000000000000000000000000000000000001",
                    "revert": false,
                    "revertMessage": "",
                    "selector": "0x01ffc9a7",
                    "status": true,
                    "value": "0"
                },
                "nodeType": 0
            }
        },
        "gasFlame": [
            {
                "children": [
                    {
                        "children": [
                            {
                                "children": [],
                                "depth": 0,
                                "name": "Initial Gas",
                                "value": 26216
                            },
                            {
                                "children": [
                                    {
                                        "children": [],
                                        "depth": 1,
                                        "name": "ecrecover",
                                        "value": 3000
                                    },
                                    {
                                        "children": [],
                                        "depth": 1,
                                        "name": "ecrecover",
                                        "value": 3000
                                    },
                                    {
                                        "children": [],
                                        "depth": 1,
                                        "name": "getCompleted",
                                        "value": 6060
                                    },
                                    {
                                        "children": [],
                                        "depth": 1,
                                        "name": "setCompleted",
                                        "value": 26210
                                    },
                                    {
                                        "children": [
                                            {
                                                "children": [],
                                                "depth": 2,
                                                "name": "safeTransferFrom",
                                                "value": 34306
                                            }
                                        ],
                                        "depth": 1,
                                        "name": "erc1155safeTransferFrom",
                                        "value": 40330
                                    },
                                    {
                                        "children": [],
                                        "depth": 1,
                                        "name": "fallback",
                                        "value": 0
                                    },
                                    {
                                        "children": [],
                                        "depth": 1,
                                        "name": "supportsInterface",
                                        "value": 2797
                                    },
                                    {
                                        "children": [],
                                        "depth": 1,
                                        "name": "getFeeRecipients",
                                        "value": 8067
                                    },
                                    {
                                        "children": [],
                                        "depth": 1,
                                        "name": "getFeeBps",
                                        "value": 2024
                                    },
                                    {
                                        "children": [],
                                        "depth": 1,
                                        "name": "fallback",
                                        "value": 0
                                    },
                                    {
                                        "children": [],
                                        "depth": 1,
                                        "name": "fallback",
                                        "value": 0
                                    }
                                ],
                                "depth": 0,
                                "name": "Executed Gas",
                                "value": 240623
                            }
                        ],
                        "depth": -1,
                        "name": "Actual Gas Used",
                        "value": 266839
                    },
                    {
                        "children": [],
                        "depth": -1,
                        "name": "Refunded Gas",
                        "value": 0
                    }
                ],
                "depth": -2,
                "name": "Total Gas",
                "value": 266839
            }
        ],
        "isConfirmed": true,
        "mainTrace": [
            {
                "children": [
                    {
                        "children": [
                            {
                                "children": [],
                                "depth": 1,
                                "id": 1,
                                "order": 1
                            },
                            {
                                "children": [],
                                "depth": 1,
                                "id": 2,
                                "order": 2
                            },
                            {
                                "children": [],
                                "depth": 1,
                                "id": 3,
                                "order": 3
                            },
                            {
                                "children": [],
                                "depth": 1,
                                "id": 4,
                                "order": 4
                            },
                            {
                                "children": [
                                    {
                                        "children": [
                                            {
                                                "children": [],
                                                "depth": 3,
                                                "id": 7,
                                                "order": 7
                                            }
                                        ],
                                        "depth": 2,
                                        "id": 6,
                                        "order": 6
                                    }
                                ],
                                "depth": 1,
                                "id": 5,
                                "order": 5
                            },
                            {
                                "children": [],
                                "depth": 1,
                                "id": 8,
                                "order": 8
                            },
                            {
                                "children": [],
                                "depth": 1,
                                "id": 9,
                                "order": 9
                            },
                            {
                                "children": [],
                                "depth": 1,
                                "id": 10,
                                "order": 10
                            },
                            {
                                "children": [],
                                "depth": 1,
                                "id": 11,
                                "order": 11
                            },
                            {
                                "children": [],
                                "depth": 1,
                                "id": 12,
                                "order": 12
                            },
                            {
                                "children": [],
                                "depth": 1,
                                "id": 13,
                                "order": 13
                            },
                            {
                                "children": [],
                                "depth": 1,
                                "id": 14,
                                "order": 14
                            }
                        ],
                        "depth": 0,
                        "id": 0,
                        "order": 0
                    }
                ],
                "depth": -1,
                "id": -1,
                "order": -1
            }
        ],
        "mainTraceNodeCount": 15,
        "parentIdMap": {
            "0": -1,
            "1": 0,
            "10": 0,
            "11": 0,
            "12": 0,
            "13": 0,
            "14": 0,
            "2": 0,
            "3": 0,
            "4": 0,
            "5": 0,
            "6": 5,
            "7": 6,
            "8": 0,
            "9": 0
        },
        "tidyTrace": [
            {
                "children": [
                    {
                        "children": [
                            {
                                "children": [],
                                "depth": 1,
                                "id": 4,
                                "order": 4
                            },
                            {
                                "children": [
                                    {
                                        "children": [
                                            {
                                                "children": [],
                                                "depth": 3,
                                                "id": 7,
                                                "order": 7
                                            }
                                        ],
                                        "depth": 2,
                                        "id": 6,
                                        "order": 6
                                    }
                                ],
                                "depth": 1,
                                "id": 5,
                                "order": 5
                            },
                            {
                                "children": [],
                                "depth": 1,
                                "id": 8,
                                "order": 8
                            },
                            {
                                "children": [],
                                "depth": 1,
                                "id": 12,
                                "order": 12
                            },
                            {
                                "children": [],
                                "depth": 1,
                                "id": 13,
                                "order": 13
                            },
                            {
                                "children": [],
                                "depth": 1,
                                "id": 14,
                                "order": 14
                            }
                        ],
                        "depth": 0,
                        "id": 0,
                        "order": 0
                    }
                ],
                "depth": -1,
                "id": -1,
                "order": -1
            }
        ],
        "tidyTraceNodeCount": 9
    },
    "state_change": {
        "stateChanges": [
            {
                "address": "0xd07dc4262bcdbf85190c01c996b4c06a461d2430",
                "erc": "ERC-1155",
                "slots": [
                    {
                        "current": "0x0000000000000000000000000000000000000000000000000000000000000032",
                        "key": "0xab1661beac8fcf22edde425fe046368521fa6c22543f5907f6e483334794aa8f",
                        "prev": "0x0000000000000000000000000000000000000000000000000000000000000037"
                    },
                    {
                        "current": "0x0000000000000000000000000000000000000000000000000000000000000005",
                        "key": "0xcf89a95c9095278c4b553b3d327465e5f792f75f6a3b4e1fdbc2021e6afd618c",
                        "prev": "0x0000000000000000000000000000000000000000000000000000000000000000"
                    }
                ],
                "storageVariables": [
                    {
                        "name": "balances",
                        "type": "mapping(uint256 => mapping(address => uint256))",
                        "value": {
                            "pairs": [
                                {
                                    "key": "516246",
                                    "value": {
                                        "pairs": [
                                            {
                                                "key": "0xf012d5e006492fe59683abc97b313c3889217067",
                                                "value": {
                                                    "current": "50",
                                                    "prev": "55",
                                                    "typeTag": 1
                                                }
                                            },
                                            {
                                                "key": "0xfad35430c2faf2ea55acf8755a879a26ab5fab36",
                                                "value": {
                                                    "current": "5",
                                                    "prev": "0",
                                                    "typeTag": 1
                                                }
                                            }
                                        ],
                                        "typeTag": 4
                                    }
                                }
                            ],
                            "typeTag": 4
                        }
                    }
                ]
            },
            {
                "address": "0xed1f5f8724cc185d4e48a71a7fac64fa5216e4a8",
                "erc": "",
                "slots": [
                    {
                        "current": "0x0000000000000000000000000000000000000000000000000000000000000005",
                        "key": "0xd92b21c21940c4bf06e2ae5b33c838eaae70e0e1021b4fd4d7f0ca3d2fac9734",
                        "prev": "0x0000000000000000000000000000000000000000000000000000000000000000"
                    }
                ],
                "storageVariables": [
                    {
                        "name": "completed",
                        "type": "mapping(bytes32 => uint256)",
                        "value": {
                            "pairs": [
                                {
                                    "key": "0xa8dc18a1bc7a7b5feb7b648d2db535f4cd9b74545046a6400ba8d4d89df33f42",
                                    "value": {
                                        "current": "5",
                                        "prev": "0",
                                        "typeTag": 1
                                    }
                                }
                            ],
                            "typeTag": 4
                        }
                    }
                ]
            }
        ]
    }
}