{
    "balance_change": {
        "balanceChanges": [
            {
                "account": "0x274f3c32c90517975e29dfc209a23f315c1e5fc7",
                "assets": [
                    {
                        "address": "0x0417912b3a7af768051765040a55bb0925d4ddcf",
                        "amount": "2,466",
                        "iconUrl": "",
                        "isERC1155": false,
                        "isERC721": false,
                        "sign": false,
                        "value": "103.5636158"
                    }
                ]
            },
            {
                "account": "0x5414ece6cc9a7d60a4626e6618ea5d2721d7a75e",
                "assets": [
                    {
                        "address": "0x0417912b3a7af768051765040a55bb0925d4ddcf",
                        "amount": "2.466",
                        "iconUrl": "",
                        "isERC1155": false,
                        "isERC721": false,
                        "sign": true,
                        "value": "0.10355674"
                    }
                ]
            },
            {
                "account": "0x9a54fe35d41bc7c8f7071abf0ccd952505e29ceb",
                "assets": [
                    {
                        "address": "0x0417912b3a7af768051765040a55bb0925d4ddcf",
                        "amount": "46.854",
                        "iconUrl": "",
                        "isERC1155": false,
                        "isERC721": false,
                        "sign": true,
                        "value": "1.96758067"
                    }
                ]
            },
            {
                "account": "0xa266582ae1f3e044cc0ac68ad99007485cc5cc45",
                "assets": [
                    {
                        "address": "0x0417912b3a7af768051765040a55bb0925d4ddcf",
                        "amount": "2,416.68",
                        "iconUrl": "",
                        "isERC1155": false,
                        "isERC721": false,
                        "sign": true,
                        "value": "101.4792733"
                    }
                ]
            }
        ]
    },
    "profile": {
        "basic_info": {
            "baseFee": "",
            "blockNumber": 11684691,
            "callData": "0xa9059cbb000000000000000000000000a266582ae1f3e044cc0ac68ad99007485cc5cc45000000000000000000000000000000000000000000000085ae9fee9271480000",
            "debugEnable": true,
            "errorInfo": "",
            "eventCount": 4,
            "feeRecipient": "0xd224ca0c819e8e97ba0136b3b95ceff503b79f53",
            "formatValue": "0",
            "gasLimit": 200000,
            "gasPrice": "151.5",
            "gasUsed": 92581,
            "intTxnCount": 3,
            "internalRevert": false,
            "internalRevertMessage": "",
            "isContractCreation": false,
            "isFlashloan": false,
            "maxFee": "",
            "nonce": 599511,
            "overwritedBlockNumber": -1,
            "priorityFee": "",
            "receiver": "0x0417912b3a7af768051765040a55bb0925d4ddcf",
            "revertMessage": "",
            "sender": "0x274f3c32c90517975e29dfc209a23f315c1e5fc7",
            "simulationEnable": true,
            "sourceTxnHash": "0x1b962b3c8d7aac7c0f8ee09cd9325a33f9f687b4ebc06be66e21d39fc737cc72",
            "status": true,
            "timestamp": "2021-01-19T08:36:10Z",
            "transactionFee": "0.0140260215",
            "txnHash": "0x1b962b3c8d7aac7c0f8ee09cd9325a33f9f687b4ebc06be66e21d39fc737cc72",
            "txnIndex": 7,
            "type": 0,
            "value": "0"
        },
        "fund_flow": [
            {
                "amount": "46.854",
                "from": "0x274f3c32c90517975e29dfc209a23f315c1e5fc7",
                "id": 1,
                "isERC1155": false,
                "isERC721": false,
                "isReverted": false,
                "order": 1,
                "to": "0x9a54fe35d41bc7c8f7071abf0ccd952505e29ceb",
                "token": "0x0417912b3a7af768051765040a55bb0925d4ddcf"
            },
            {
                "amount": "2.466",
                "from": "0x274f3c32c90517975e29dfc209a23f315c1e5fc7",
                "id": 2,
                "isERC1155": false,
                "isERC721": false,
                "isReverted": false,
                "order": 2,
                "to": "0x5414ece6cc9a7d60a4626e6618ea5d2721d7a75e",
                "token": "0x0417912b3a7af768051765040a55bb0925d4ddcf"
            },
            {
                "amount": "2,416.68",
                "from": "0x274f3c32c90517975e29dfc209a23f315c1e5fc7",
                "id": 3,
                "isERC1155": false,
                "isERC721": false,
                "isReverted": false,
                "order": 3,
                "to": "0xa266582ae1f3e044cc0ac68ad99007485cc5cc45",
                "token": "0x0417912b3a7af768051765040a55bb0925d4ddcf"
            }
        ],
        "token_infos": [
            {
                "address": "0x0417912b3a7af768051765040a55bb0925d4ddcf",
                "decimals": 18
            },
            {
                "address": "0xc02aaa39b223fe8d0a0e5c4f27ead9083c756cc2",
                "decimals": 18
            },
            {
                "address": "0xeeeeeeeeeeeeeeeeeeeeeeeeeeeeeeeeeeeeeeee",
                "decimals": 18
            }
        ]
    },
    "address_label": {
        "labels": [
            {
                "address": "0x0000000000000000000000000000000000000001",
                "label": "Precompiled"
            },
            {
                "address": "0x0000000000000000000000000000000000000004",
                "label": "Precompiled"
            },
            {
                "address": "0xeeeeeeeeeeeeeeeeeeeeeeeeeeeeeeeeeeeeeeee",
                "label": "Ether"
            },
            {
                "address": "0x0417912b3a7af768051765040a55bb0925d4ddcf",
                "label": "Liquidity Dividends Protocol: LID Token"
            },
            {
                "address": "0x274f3c32c90517975e29dfc209a23f315c1e5fc7",
                "label": "Hotbit"
            },
            {
                "address": "0xf4f70ee3d8562268c84d49939b6afc0d45b9692b",
                "label": "LidStaking"
            },
            {
                "address": "0x9a54fe35d41bc7c8f7071abf0ccd952505e29ceb",
                "label": "AdminUpgradeabilityProxy"
            },
            {
                "address": "0xb392b506552b4708bcc213be1793038008cfce74",
                "label": "LidToken"
            },
            {
                "address": "0x0000000000000000000000000000000000000002",
                "label": "Precompiled"
            },
            {
                "address": "0x0000000000000000000000000000000000000003",
                "label": "Precompiled"
            }
        ]
    },
    "trace": {
        "accountLabels": null,
        "dataMap": {
            "-1": {
                "invocation": {
                    "address": "0x274f3c32c90517975e29dfc209a23f315c1e5fc7",
                    "callData": "",
                    "decodedMethod": null,
                    "errorInfo": "",
                    "fromAddress": "",
                    "gasUsed": 0,
                    "id": -1,
                    "methodDecoded": false,
                    "operation": "",
                    "output": "",
                    "revert": false,
                    "revertMessage": "",
                    "selector": "",
                    "status": false,
                    "value": ""
                },
                "nodeType": 0
            },
            "0": {
                "invocation": {
                    "address": "0x0417912b3a7af768051765040a55bb0925d4ddcf",
                    "callData": "0x000000000000000000000000a266582ae1f3e044cc0ac68ad99007485cc5cc45000000000000000000000000000000000000000000000085ae9fee9271480000",
                    "decodedMethod": {
                        "callParams": [
                            {
                                "name": "recipient",
                                "type": "address",
                                "value": "0xa266582ae1f3e044cc0ac68ad99007485cc5cc45"
                            },
                            {
                                "decimalAvailable": true,
                                "name": "amount",
                                "type": "uint256",
                                "value": "2,466,000,000,000,000,000,000"
                            }
                        ],
                        "constructorArguments": "",
                        "name": "transfer",
                        "returnParams": [
                            {
                                "name": "",
                                "type": "bool",
                                "value": true
                            }
                        ],
                        "signature": "transfer(address,uint256)"
                    },
                    "errorInfo": "",
                    "fromAddress": "0x274f3c32c90517975e29dfc209a23f315c1e5fc7",
                    "gasUsed": 92581,
                    "id": 0,
                    "methodDecoded": true,
                    "operation": "CALL",
                    "output": "0x0000000000000000000000000000000000000000000000000000000000000001",
                    "revert": false,
                    "revertMessage": "",
                    "selector": "0xa9059cbb",
                    "status": true,
                    "value": "0"
                },
                "nodeType": 0
            },
            "1": {
                "invocation": {
                    "address": "0xb392b506552b4708bcc213be1793038008cfce74",
                    "callData": "0x000000000000000000000000a266582ae1f3e044cc0ac68ad99007485cc5cc45000000000000000000000000000000000000000000000085ae9fee9271480000",
                    "decodedMethod": {
                        "callParams": [
                            {
                                "name": "recipient",
                                "type": "address",
                                "value": "0xa266582ae1f3e044cc0ac68ad99007485cc5cc45"
                            },
                            {
                                "decimalAvailable": true,
                                "name": "amount",
                                "type": "uint256",
                                "value": "2,466,000,000,000,000,000,000"
                            }
                        ],
                        "constructorArguments": "",
                        "name": "transfer",
                        "returnParams": [
                            {
                                "name": "",
                                "type": "bool",
                                "value": true
                            }
                        ],
                        "signature": "transfer(address,uint256)"
                    },
                    "errorInfo": "",
                    "fromAddress": "0x0417912b3a7af768051765040a55bb0925d4ddcf",
                    "gasUsed": 68163,
                    "id": 1,
                    "methodDecoded": true,
                    "operation": "DELEGATECALL",
                    "output": "0x0000000000000000000000000000000000000000000000000000000000000001",
                    "revert": false,
                    "revertMessage": "",
                    "selector": "0xa9059cbb",
                    "status": true,
                    "value": "0"
                },
                "nodeType": 0
            },
            "2": {
                "event": {
                    "contract": "0x0417912b3a7af768051765040a55bb0925d4ddcf",
                    "decodedLog": {
                        "name": "Transfer",
                        "params": [
                            {
                                "name": "from",
                                "type": "address",
                                "value": "0x274f3c32c90517975e29dfc209a23f315c1e5fc7"
                            },
                            {
                                "name": "to",
                                "type": "address",
                                "value": "0x9a54fe35d41bc7c8f7071abf0ccd952505e29ceb"
                            },
                            {
                                "decimalAvailable": true,
                                "name": "value",
                                "type": "uint256",
                                "value": "46,854,000,000,000,000,000"
                            }
                        ],
                        "signature": "Transfer(address,address,uint256)"
                    },
                    "id": 2,
                    "logData": "0x0000000000000000000000000000000000000000000000028a3ad8c1c2270000",
                    "logDecoded": true,
                    "operation": "EVENT",
                    "revert": false,
                    "status": true,
                    "topics": [
                        "0xddf252ad1be2c89b69c2b068fc378daa952ba7f163c4a11628f55a4df523b3ef",
                        "0x000000000000000000000000274f3c32c90517975e29dfc209a23f315c1e5fc7",
                        "0x0000000000000000000000009a54fe35d41bc7c8f7071abf0ccd952505e29ceb"
                    ]
                },
                "nodeType": 1
            },
            "3": {
                "event": {
                    "contract": "0x0417912b3a7af768051765040a55bb0925d4ddcf",
                    "decodedLog": {
                        "name": "Transfer",
                        "params": [
                            {
                                "name": "from",
                                "type": "address",
                                "value": "0x274f3c32c90517975e29dfc209a23f315c1e5fc7"
                            },
                            {
                                "name": "to",
                                "type": "address",
                                "value": "0x5414ece6cc9a7d60a4626e6618ea5d2721d7a75e"
                            },
                            {
                                "decimalAvailable": true,
                                "name": "value",
                                "type": "uint256",
                                "value": "2,466,000,000,000,000,000"
                            }
                        ],
                        "signature": "Transfer(address,address,uint256)"
                    },
                    "id": 3,
                    "logData": "0x0000000000000000000000000000000000000000000000002238fdef401d0000",
                    "logDecoded": true,
                    "operation": "EVENT",
                    "revert": false,
                    "status": true,
                    "topics": [
                        "0xddf252ad1be2c89b69c2b068fc378daa952ba7f163c4a11628f55a4df523b3ef",
                        "0x000000000000000000000000274f3c32c90517975e29dfc209a23f315c1e5fc7",
                        "0x0000000000000000000000005414ece6cc9a7d60a4626e6618ea5d2721d7a75e"
                    ]
                },
                "nodeType": 1
            },
            "4": {
                "event": {
                    "contract": "0x0417912b3a7af768051765040a55bb0925d4ddcf",
                    "decodedLog": {
                        "name": "Transfer",
                        "params": [
                            {
                                "name": "from",
                                "type": "address",
                                "value": "0x274f3c32c90517975e29dfc209a23f315c1e5fc7"
                            },
                            {
                                "name": "to",
                                "type": "address",
                                "value": "0xa266582ae1f3e044cc0ac68ad99007485cc5cc45"
                            },
                            {
                                "decimalAvailable": true,
                                "name": "value",
                                "type": "uint256",
                                "value": "2,416,680,000,000,000,000,000"
                            }
                        ],
                        "signature": "Transfer(address,address,uint256)"
                    },
                    "id": 4,
                    "logData": "0x000000000000000000000000000000000000000000000083022c17e16f040000",
                    "logDecoded": true,
                    "operation": "EVENT",
                    "revert": false,
                    "status": true,
                    "topics": [
                        "0xddf252ad1be2c89b69c2b068fc378daa952ba7f163c4a11628f55a4df523b3ef",
                        "0x000000000000000000000000274f3c32c90517975e29dfc209a23f315c1e5fc7",
                        "0x000000000000000000000000a266582ae1f3e044cc0ac68ad99007485cc5cc45"
                    ]
                },
                "nodeType": 1
            },
            "5": {
                "invocation": {
                    "address": "0x9a54fe35d41bc7c8f7071abf0ccd952505e29ceb",
                    "callData": "0x0000000000000000000000000000000000000000000000028a3ad8c1c2270000",
                    "decodedMethod": {
                        "callParams": [
                            {
                                "name": "amount",
                                "type": "uint256",
                                "value": "46,854,000,000,000,000,000"
                            }
                        ],
                        "constructorArguments": "",
                        "name": "handleTaxDistribution",
                        "returnParams": [],
                        "signature": "handleTaxDistribution(uint256)"
                    },
                    "errorInfo": "",
                    "fromAddress": "0x0417912b3a7af768051765040a55bb0925d4ddcf",
                    "gasUsed": 19887,
                    "id": 5,
                    "methodDecoded": true,
                    "operation": "CALL",
                    "output": "",
                    "revert": false,
                    "revertMessage": "",
                    "selector": "0x8cb3c661",
                    "status": true,
                    "value": "0"
                },
                "nodeType": 0
            },
            "6": {
                "invocation": {
                    "address": "0xf4f70ee3d8562268c84d49939b6afc0d45b9692b",
                    "callData": "0x0000000000000000000000000000000000000000000000028a3ad8c1c2270000",
                    "decodedMethod": {
                        "callParams": [
                            {
                                "name": "amount",
                                "type": "uint256",
                                "value": "46,854,000,000,000,000,000"
                            }
                        ],
                        "constructorArguments": "",
                        "name": "handleTaxDistribution",
                        "returnParams": [],
                        "signature": "handleTaxDistribution(uint256)"
                    },
                    "errorInfo": "",
                    "fromAddress": "0x9a54fe35d41bc7c8f7071abf0ccd952505e29ceb",
                    "gasUsed": 17119,
                    "id": 6,
                    "methodDecoded": true,
                    "operation": "DELEGATECALL",
                    "output": "",
                    "revert": false,
                    "revertMessage": "",
                    "selector": "0x8cb3c661",
                    "status": true,
                    "value": "0"
                },
                "nodeType": 0
            },
            "7": {
                "event": {
                    "contract": "0x9a54fe35d41bc7c8f7071abf0ccd952505e29ceb",
                    "decodedLog": {
                        "name": "OnDistribute",
                        "params": [
                            {
                                "name": "sender",
                                "type": "address",
                                "value": "0x0417912b3a7af768051765040a55bb0925d4ddcf"
                            },
                            {
                                "name": "amountSent",
                                "type": "uint256",
                                "value": "46,854,000,000,000,000,000"
                            }
                        ],
                        "signature": "OnDistribute(address,uint256)"
                    },
                    "id": 7,
                    "logData": "0x0000000000000000000000000417912b3a7af768051765040a55bb0925d4ddcf0000000000000000000000000000000000000000000000028a3ad8c1c2270000",
                    "logDecoded": true,
                    "operation": "EVENT",
                    "revert": false,
                    "status": true,
                    "topics": [
                        "0x3b5b764958bcf10eae6e214b635b729c52c8a4962688629cf597c3167cca2022"
                    ]
                },
                "nodeType": 1
            }
        },
        "gasFlame": [
            {
                "children": [
                    {
                        "children": [
                            {
                                "children": [],
                                "depth": 0,
                                "name": "Initial Gas",
                                "value": 21644
                            },
                            {
                                "children": [
                                    {
                                        "children": [
                                            {
                                                "children": [
                                                    {
                                                        "children": [],
                                                        "depth": 3,
                                                        "name": "handleTaxDistribution",
                                                        "value": 17119
                                                    }
                                                ],
                                                "depth": 2,
                                                "name": "handleTaxDistribution",
                                                "value": 19887
                                            }
                                        ],
                                        "depth": 1,
                                        "name": "transfer",
                                        "value": 68163
                                    }
                                ],
                                "depth": 0,
                                "name": "Executed Gas",
                                "value": 70937
                            }
                        ],
                        "depth": -1,
                        "name": "Actual Gas Used",
                        "value": 92581
                    },
                    {
                        "children": [],
                        "depth": -1,
                        "name": "Refunded Gas",
                        "value": 0
                    }
                ],
                "depth": -2,
                "name": "Total Gas",
                "value": 92581
            }
        ],
        "isConfirmed": true,
        "mainTrace": [
            {
                "children": [
                    {
                        "children": [
                            {
                                "children": [
                                    {
                                        "children": [],
                                        "depth": 2,
                                        "id": 2,
                                        "order": 2
                                    },
                                    {
                                        "children": [],
                                        "depth": 2,
                                        "id": 3,
                                        "order": 3
                                    },
                                    {
                                        "children": [],
                                        "depth": 2,
                                        "id": 4,
                                        "order": 4
                                    },
                                    {
                                        "children": [
                                            {
                                                "children": [
                                                    {
                                                        "children": [],
                                                        "depth": 4,
                                                        "id": 7,
                                                        "order": 7
                                                    }
                                                ],
                                                "depth": 3,
                                                "id": 6,
                                                "order": 6
                                            }
                                        ],
                                        "depth": 2,
                                        "id": 5,
                                        "order": 5
                                    }
                                ],
                                "depth": 1,
                                "id": 1,
                                "order": 1
                            }
                        ],
                        "depth": 0,
                        "id": 0,
                        "order": 0
                    }
                ],
                "depth": -1,
                "id": -1,
                "order": -1
            }
        ],
        "mainTraceNodeCount": 8,
        "parentIdMap": {
            "0": -1,
            "1": 0,
            "2": 1,
            "3": 1,
            "4": 1,
            "5": 1,
            "6": 5,
            "7": 6
        },
        "tidyTrace": [
            {
                "children": [
                    {
                        "children": [
                            {
                                "children": [
                                    {
                                        "children": [],
                                        "depth": 2,
                                        "id": 2,
                                        "order": 2
                                    },
                                    {
                                        "children": [],
                                        "depth": 2,
                                        "id": 3,
                                        "order": 3
                                    },
                                    {
                                        "children": [],
                                        "depth": 2,
                                        "id": 4,
                                        "order": 4
                                    },
                                    {
                                        "children": [
                                            {
                                                "children": [
                                                    {
                                                        "children": [],
                                                        "depth": 4,
                                                        "id": 7,
                                                        "order": 7
                                                    }
                                                ],
                                                "depth": 3,
                                                "id": 6,
                                                "order": 6
                                            }
                                        ],
                                        "depth": 2,
                                        "id": 5,
                                        "order": 5
                                    }
                                ],
                                "depth": 1,
                                "id": 1,
                                "order": 1
                            }
                        ],
                        "depth": 0,
                        "id": 0,
                        "order": 0
                    }
                ],
                "depth": -1,
                "id": -1,
                "order": -1
            }
        ],
        "tidyTraceNodeCount": 8
    },
    "state_change": {
        "stateChanges": [
            {
                "address": "0x0417912b3a7af768051765040a55bb0925d4ddcf",
                "erc": "ERC-20",
                "slots": [
                    {
                        "current": "0x00000000000000000000000000000000000000000000b31c4256d5aeaf92516b",
                        "key": "0x2ddd04edc857247f835be8f1036c887479f4eadaf59dc5d761d474c94fb721f5",
                        "prev": "0x00000000000000000000000000000000000000000000b3a1f0f6c44120da516b"
                    },
                    {
                        "current": "0x0000000000000000000000000000000000000000000ebb9b2f505b03a6fd5004",
                        "key": "0xfb3d6d6b57bb9aa1b015eb3d7e24571c092906dd96d711772dbe3c5251b81a65",
                        "prev": "0x0000000000000000000000000000000000000000000ebb98a5158241e4d65004"
                    },
                    {
                        "current": "0x000000000000000000000000000000000000000000186806be3ae254b25b8f06",
                        "key": "0x4f5de6e2c3c768a511cad462d8b089e3e8d75540ce08b85ae05c9cc3113c7fae",
                        "prev": "0x0000000000000000000000000000000000000000001868069c01e465723e8f06"
                    },
                    {
                        "current": "0x000000000000000000000000000000000000000000000153bac39085029c0000",
                        "key": "0x0f466437a0b5824b9a3e8a86a08e81d4b0a1483a25887b1541f19de2cca3f219",
                        "prev": "0x0000000000000000000000000000000000000000000000d0b89778a393980000"
                    }
                ],
                "storageVariables": [
                    {
                        "name": "_balances",
                        "type": "mapping(address => uint256)",
                        "value": {
                            "pairs": [
                                {
                                    "key": "0x274f3c32c90517975e29dfc209a23f315c1e5fc7",
                                    "value": {
                                        "current": "845824889510731107684715",
                                        "prev": "848290889510731107684715",
                                        "typeTag": 1
                                    }
                                },
                                {
                                    "key": "0x5414ece6cc9a7d60a4626e6618ea5d2721d7a75e",
                                    "value": {
                                        "current": "29505470172951254805483270",
                                        "prev": "29505467706951254805483270",
                                        "typeTag": 1
                                    }
                                },
                                {
                                    "key": "0x9a54fe35d41bc7c8f7071abf0ccd952505e29ceb",
                                    "value": {
                                        "current": "17810906661557846245462020",
                                        "prev": "17810859807557846245462020",
                                        "typeTag": 1
                                    }
                                },
                                {
                                    "key": "0xa266582ae1f3e044cc0ac68ad99007485cc5cc45",
                                    "value": {
                                        "current": "6266904000000000000000",
                                        "prev": "3850224000000000000000",
                                        "typeTag": 1
                                    }
                                }
                            ],
                            "typeTag": 4
                        }
                    }
                ]
            },
            {
                "address": "0x9a54fe35d41bc7c8f7071abf0ccd952505e29ceb",
                "erc": "",
                "slots": [
                    {
                        "current": "0x00000000000000000000000000000000000000000008810b9c369a2c57feaca9",
                        "key": "0x000000000000000000000000000000000000000000000000000000000000006b",
                        "prev": "0x00000000000000000000000000000000000000000008810911fbc16a95d7aca9"
                    },
                    {
                        "current": "0x0000000000000000000000000000000000000000000000006afc6bb2799df8a9",
                        "key": "0x000000000000000000000000000000000000000000000000000000000000006e",
                        "prev": "0x0000000000000000000000000000000000000000000000006afc3c412939322e"
                    }
                ],
                "storageVariables": [
                    {
                        "name": "totalDistributions",
                        "type": "uint256",
                        "value": {
                            "current": "10280806003745862339964073",
                            "prev": "10280759149745862339964073",
                            "typeTag": 1
                        }
                    },
                    {
                        "name": "profitPerShare",
                        "type": "uint256",
                        "value": {
                            "current": "7709155076440193193",
                            "prev": "7709102912713601582",
                            "typeTag": 1
                        }
                    }
                ]
            }
        ]
    }
}