{
    "balance_change": {
        "balanceChanges": [
            {
                "account": "0x104835b6a3df3129467c18e18a1facf0d8540f83",
                "assets": [
                    {
                        "address": "0xc8527688fe5e3145cbead1f5eddae8eeab6d2a55",
                        "amount": "1",
                        "iconUrl": "",
                        "isERC1155": false,
                        "isERC721": true,
                        "sign": false,
                        "tokenID": "22",
                        "value": ""
                    }
                ]
            },
            {
                "account": "0xf6a61b0f715d777f17c754b0495d63a56dcb3fca",
                "assets": [
                    {
                        "address": "0xc8527688fe5e3145cbead1f5eddae8eeab6d2a55",
                        "amount": "1",
                        "iconUrl": "",
                        "isERC1155": false,
                        "isERC721": true,
                        "sign": true,
                        "tokenID": "22",
                        "value": ""
                    }
                ]
            }
        ]
    },
    "profile": {
        "basic_info": {
            "baseFee": "17.314600162",
            "blockNumber": 15618887,
            "callData": "0x42842e0e000000000000000000000000104835b6a3df3129467c18e18a1facf0d8540f83000000000000000000000000f6a61b0f715d777f17c754b0495d63a56dcb3fca0000000000000000000000000000000000000000000000000000000000000016",
            "debugEnable": true,
            "errorInfo": "",
            "eventCount": 2,
            "feeRecipient": "0x388c818ca8b9251b393131c08a736a67ccb19297",
            "formatValue": "0",
            "gasLimit": 61888,
            "gasPrice": "18.814600162",
            "gasUsed": 61339,
            "intTxnCount": 1,
            "internalRevert": false,
            "internalRevertMessage": "",
            "isContractCreation": false,
            "isFlashloan": false,
            "maxFee": "27.130868519",
            "nonce": 94,
            "overwritedBlockNumber": -1,
            "priorityFee": "1.5",
            "receiver": "0xc8527688fe5e3145cbead1f5eddae8eeab6d2a55",
            "revertMessage": "",
            "sender": "0x104835b6a3df3129467c18e18a1facf0d8540f83",
            "simulationEnable": true,
            "sourceTxnHash": "0x1b893bff10b787644c3a918cb7ea19f4bb516c49728c021ab1c6d21c68c7f105",
            "status": true,
            "timestamp": "2022-09-26T16:58:47Z",
            "transactionFee": "0.001154068759336918",
            "txnHash": "0x1b893bff10b787644c3a918cb7ea19f4bb516c49728c021ab1c6d21c68c7f105",
            "txnIndex": 195,
            "type": 2,
            "value": "0"
        },
        "fund_flow": [
            {
                "amount": "1",
                "from": "0x104835b6a3df3129467c18e18a1facf0d8540f83",
                "id": 1,
                "isERC1155": false,
                "isERC721": true,
                "isReverted": false,
                "order": 1,
                "to": "0xf6a61b0f715d777f17c754b0495d63a56dcb3fca",
                "token": "0xc8527688fe5e3145cbead1f5eddae8eeab6d2a55",
                "tokenID": "22"
            }
        ],
        "token_infos": [
            {
                "address": "0xc02aaa39b223fe8d0a0e5c4f27ead9083c756cc2",
                "decimals": 18
            },
            {
                "address": "0xeeeeeeeeeeeeeeeeeeeeeeeeeeeeeeeeeeeeeeee",
                "decimals": 18
            }
        ]
    },
    "address_label": {
        "labels": [
            {
                "address": "0x0000000000000000000000000000000000000002",
                "label": "Precompiled"
            },
            {
                "address": "0x0000000000000000000000000000000000000003",
                "label": "Precompiled"
            },
            {
                "address": "0x0000000000000000000000000000000000000004",
                "label": "Precompiled"
            },
            {
                "address": "0xeeeeeeeeeeeeeeeeeeeeeeeeeeeeeeeeeeeeeeee",
                "label": "Ether"
            },
            {
                "address": "0x388c818ca8b9251b393131c08a736a67ccb19297",
                "label": "LidoExecutionLayerRewardsVault"
            },
            {
                "address": "0x10c06f8b3695813276b4a921c06bb3b122aaf9d2",
                "label": "SignatureDrop"
            },
            {
                "address": "0x0000000000000000000000000000000000000001",
                "label": "Precompiled"
            }
        ]
    },
    "trace": {
        "accountLabels": null,
        "dataMap": {
            "-1": {
                "invocation": {
                    "address": "0x104835b6a3df3129467c18e18a1facf0d8540f83",
                    "callData": "",
                    "decodedMethod": null,
                    "errorInfo": "",
                    "fromAddress": "",
                    "gasUsed": 0,
                    "id": -1,
                    "methodDecoded": false,
                    "operation": "",
                    "output": "",
                    "revert": false,
                    "revertMessage": "",
                    "selector": "",
                    "status": false,
                    "value": ""
                },
                "nodeType": 0
            },
            "0": {
                "invocation": {
                    "address": "0xc8527688fe5e3145cbead1f5eddae8eeab6d2a55",
                    "callData": "0x000000000000000000000000104835b6a3df3129467c18e18a1facf0d8540f83000000000000000000000000f6a61b0f715d777f17c754b0495d63a56dcb3fca0000000000000000000000000000000000000000000000000000000000000016",
                    "decodedMethod": {
                        "callParams": [
                            {
                                "name": "from",
                                "type": "address",
                                "value": "0x104835b6a3df3129467c18e18a1facf0d8540f83"
                            },
                            {
                                "name": "to",
                                "type": "address",
                                "value": "0xf6a61b0f715d777f17c754b0495d63a56dcb3fca"
                            },
                            {
                                "name": "tokenId",
                                "type": "uint256",
                                "value": "22"
                            }
                        ],
                        "constructorArguments": "",
                        "name": "safeTransferFrom",
                        "returnParams": [],
                        "signature": "safeTransferFrom(address,address,uint256)"
                    },
                    "errorInfo": "",
                    "fromAddress": "0x104835b6a3df3129467c18e18a1facf0d8540f83",
                    "gasUsed": 61339,
                    "id": 0,
                    "methodDecoded": true,
                    "operation": "CALL",
                    "output": "",
                    "revert": false,
                    "revertMessage": "",
                    "selector": "0x42842e0e",
                    "status": true,
                    "value": "0"
                },
                "nodeType": 0
            },
            "1": {
                "invocation": {
                    "address": "0x10c06f8b3695813276b4a921c06bb3b122aaf9d2",
                    "callData": "0x000000000000000000000000104835b6a3df3129467c18e18a1facf0d8540f83000000000000000000000000f6a61b0f715d777f17c754b0495d63a56dcb3fca0000000000000000000000000000000000000000000000000000000000000016",
                    "decodedMethod": {
                        "callParams": [
                            {
                                "name": "from",
                                "type": "address",
                                "value": "0x104835b6a3df3129467c18e18a1facf0d8540f83"
                            },
                            {
                                "name": "to",
                                "type": "address",
                                "value": "0xf6a61b0f715d777f17c754b0495d63a56dcb3fca"
                            },
                            {
                                "name": "tokenId",
                                "type": "uint256",
                                "value": "22"
                            }
                        ],
                        "constructorArguments": "",
                        "name": "safeTransferFrom",
                        "returnParams": [],
                        "signature": "safeTransferFrom(address,address,uint256)"
                    },
                    "errorInfo": "",
                    "fromAddress": "0xc8527688fe5e3145cbead1f5eddae8eeab6d2a55",
                    "gasUsed": 36718,
                    "id": 1,
                    "methodDecoded": true,
                    "operation": "DELEGATECALL",
                    "output": "",
                    "revert": false,
                    "revertMessage": "",
                    "selector": "0x42842e0e",
                    "status": true,
                    "value": "0"
                },
                "nodeType": 0
            },
            "2": {
                "event": {
                    "contract": "0xc8527688fe5e3145cbead1f5eddae8eeab6d2a55",
                    "decodedLog": {
                        "name": "Approval",
                        "params": [
                            {
                                "name": "owner",
                                "type": "address",
                                "value": "0x104835b6a3df3129467c18e18a1facf0d8540f83"
                            },
                            {
                                "name": "approved",
                                "type": "address",
                                "value": "0x0000000000000000000000000000000000000000"
                            },
                            {
                                "decimalAvailable": true,
                                "name": "tokenId",
                                "type": "uint256",
                                "value": "22"
                            }
                        ],
                        "signature": "Approval(address,address,uint256)"
                    },
                    "id": 2,
                    "logData": "0x",
                    "logDecoded": true,
                    "operation": "EVENT",
                    "revert": false,
                    "status": true,
                    "topics": [
                        "0x8c5be1e5ebec7d5bd14f71427d1e84f3dd0314c0f7b2291e5b200ac8c7c3b925",
                        "0x000000000000000000000000104835b6a3df3129467c18e18a1facf0d8540f83",
                        "0x0000000000000000000000000000000000000000000000000000000000000000",
                        "0x0000000000000000000000000000000000000000000000000000000000000016"
                    ]
                },
                "nodeType": 1
            },
            "3": {
                "event": {
                    "contract": "0xc8527688fe5e3145cbead1f5eddae8eeab6d2a55",
                    "decodedLog": {
                        "name": "Transfer",
                        "params": [
                            {
                                "name": "from",
                                "type": "address",
                                "value": "0x104835b6a3df3129467c18e18a1facf0d8540f83"
                            },
                            {
                                "name": "to",
                                "type": "address",
                                "value": "0xf6a61b0f715d777f17c754b0495d63a56dcb3fca"
                            },
                            {
                                "decimalAvailable": true,
                                "name": "tokenId",
                                "type": "uint256",
                                "value": "22"
                            }
                        ],
                        "signature": "Transfer(address,address,uint256)"
                    },
                    "id": 3,
                    "logData": "0x",
                    "logDecoded": true,
                    "operation": "EVENT",
                    "revert": false,
                    "status": true,
                    "topics": [
                        "0xddf252ad1be2c89b69c2b068fc378daa952ba7f163c4a11628f55a4df523b3ef",
                        "0x000000000000000000000000104835b6a3df3129467c18e18a1facf0d8540f83",
                        "0x000000000000000000000000f6a61b0f715d777f17c754b0495d63a56dcb3fca",
                        "0x0000000000000000000000000000000000000000000000000000000000000016"
                    ]
                },
                "nodeType": 1
            }
        },
        "gasFlame": [
            {
                "children": [
                    {
                        "children": [
                            {
                                "children": [],
                                "depth": 0,
                                "name": "Initial Gas",
                                "value": 21940
                            },
                            {
                                "children": [
                                    {
                                        "children": [],
                                        "depth": 1,
                                        "name": "safeTransferFrom",
                                        "value": 36718
                                    }
                                ],
                                "depth": 0,
                                "name": "Executed Gas",
                                "value": 39399
                            }
                        ],
                        "depth": -1,
                        "name": "Actual Gas Used",
                        "value": 61339
                    },
                    {
                        "children": [],
                        "depth": -1,
                        "name": "Refunded Gas",
                        "value": 0
                    }
                ],
                "depth": -2,
                "name": "Total Gas",
                "value": 61339
            }
        ],
        "isConfirmed": true,
        "mainTrace": [
            {
                "children": [
                    {
                        "children": [
                            {
                                "children": [
                                    {
                                        "children": [],
                                        "depth": 2,
                                        "id": 2,
                                        "order": 2
                                    },
                                    {
                                        "children": [],
                                        "depth": 2,
                                        "id": 3,
                                        "order": 3
                                    }
                                ],
                                "depth": 1,
                                "id": 1,
                                "order": 1
                            }
                        ],
                        "depth": 0,
                        "id": 0,
                        "order": 0
                    }
                ],
                "depth": -1,
                "id": -1,
                "order": -1
            }
        ],
        "mainTraceNodeCount": 4,
        "parentIdMap": {
            "0": -1,
            "1": 0,
            "2": 1,
            "3": 1
        },
        "tidyTrace": [
            {
                "children": [
                    {
                        "children": [
                            {
                                "children": [
                                    {
                                        "children": [],
                                        "depth": 2,
                                        "id": 2,
                                        "order": 2
                                    },
                                    {
                                        "children": [],
                                        "depth": 2,
                                        "id": 3,
                                        "order": 3
                                    }
                                ],
                                "depth": 1,
                                "id": 1,
                                "order": 1
                            }
                        ],
                        "depth": 0,
                        "id": 0,
                        "order": 0
                    }
                ],
                "depth": -1,
                "id": -1,
                "order": -1
            }
        ],
        "tidyTraceNodeCount": 4
    },
    "state_change": {
        "stateChanges": [
            {
                "address": "0xc8527688fe5e3145cbead1f5eddae8eeab6d2a55",
                "erc": "ERC-721",
                "slots": [
                    {
                        "current": "0x00000000000000006331da47f6a61b0f715d777f17c754b0495d63a56dcb3fca",
                        "key": "0x4b8ccbed2024e736bb6a35e019e0afe07ff70a191e3dd6b23a0d03c9e8b3e63a",
                        "prev": "0x0000000000000000633012bf104835b6a3df3129467c18e18a1facf0d8540f83"
                    },
                    {
                        "current": "0x00000000000000000000000000000000000000000000001e0000000000000005",
                        "key": "0xe3485745a843e4e091c0a91022099bc6a8773d43c06d135a98219cb06d245e35",
                        "prev": "0x00000000000000000000000000000000000000000000001e0000000000000006"
                    },
                    {
                        "current": "0x0000000000000000000000000000000000000000000000000000000000000002",
                        "key": "0xa03e1eb9b6ac2998c472e2765d1ebf4da786592b8d767e887f44936bf5b6e410",
                        "prev": "0x0000000000000000000000000000000000000000000000000000000000000001"
                    }
                ],
                "storageVariables": [
                    {
                        "name": "_ownerships",
                        "type": "mapping(uint256 => struct IERC721AUpgradeable.TokenOwnership)",
                        "value": {
                            "pairs": [
                                {
                                    "key": "22",
                                    "value": {
                                        "fields": [
                                            {
                                                "name": "addr",
                                                "type": "address",
                                                "value": {
                                                    "current": "0xf6a61b0f715d777f17c754b0495d63a56dcb3fca",
                                                    "prev": "0x104835b6a3df3129467c18e18a1facf0d8540f83",
                                                    "typeTag": 1
                                                }
                                            },
                                            {
                                                "name": "startTimestamp",
                                                "type": "uint64",
                                                "value": {
                                                    "current": "1664211527",
                                                    "prev": "1664094911",
                                                    "typeTag": 1
                                                }
                                            },
                                            {
                                                "name": "burned",
                                                "type": "bool",
                                                "value": {
                                                    "current": "false",
                                                    "prev": "false",
                                                    "typeTag": 1
                                                }
                                            }
                                        ],
                                        "typeTag": 3
                                    }
                                }
                            ],
                            "typeTag": 4
                        }
                    },
                    {
                        "name": "_addressData",
                        "type": "mapping(address => struct IERC721AUpgradeable.AddressData)",
                        "value": {
                            "pairs": [
                                {
                                    "key": "0x104835b6a3df3129467c18e18a1facf0d8540f83",
                                    "value": {
                                        "fields": [
                                            {
                                                "name": "balance",
                                                "type": "uint64",
                                                "value": {
                                                    "current": "5",
                                                    "prev": "6",
                                                    "typeTag": 1
                                                }
                                            },
                                            {
                                                "name": "numberMinted",
                                                "type": "uint64",
                                                "value": {
                                                    "current": "30",
                                                    "prev": "30",
                                                    "typeTag": 1
                                                }
                                            },
                                            {
                                                "name": "numberBurned",
                                                "type": "uint64",
                                                "value": {
                                                    "current": "0",
                                                    "prev": "0",
                                                    "typeTag": 1
                                                }
                                            },
                                            {
                                                "name": "aux",
                                                "type": "uint64",
                                                "value": {
                                                    "current": "0",
                                                    "prev": "0",
                                                    "typeTag": 1
                                                }
                                            }
                                        ],
                                        "typeTag": 3
                                    }
                                },
                                {
                                    "key": "0xf6a61b0f715d777f17c754b0495d63a56dcb3fca",
                                    "value": {
                                        "fields": [
                                            {
                                                "name": "balance",
                                                "type": "uint64",
                                                "value": {
                                                    "current": "2",
                                                    "prev": "1",
                                                    "typeTag": 1
                                                }
                                            },
                                            {
                                                "name": "numberMinted",
                                                "type": "uint64",
                                                "value": {
                                                    "current": "0",
                                                    "prev": "0",
                                                    "typeTag": 1
                                                }
                                            },
                                            {
                                                "name": "numberBurned",
                                                "type": "uint64",
                                                "value": {
                                                    "current": "0",
                                                    "prev": "0",
                                                    "typeTag": 1
                                                }
                                            },
                                            {
                                                "name": "aux",
                                                "type": "uint64",
                                                "value": {
                                                    "current": "0",
                                                    "prev": "0",
                                                    "typeTag": 1
                                                }
                                            }
                                        ],
                                        "typeTag": 3
                                    }
                                }
                            ],
                            "typeTag": 4
                        }
                    }
                ]
            }
        ]
    }
}