{
    "balance_change": {
        "balanceChanges": [
            {
                "account": "0x1e2fbe6be9eb39fc894d38be976111f332172d83",
                "assets": [
                    {
                        "address": "0xeeeeeeeeeeeeeeeeeeeeeeeeeeeeeeeeeeeeeeee",
                        "amount": "0.535404873249453312",
                        "iconUrl": "https://assets.blocksec.com/image/1663669189317-3.png",
                        "isERC1155": false,
                        "isERC721": false,
                        "sign": false,
                        "value": ""
                    }
                ]
            },
            {
                "account": "0x7726764409f86cea7fca34cad8c7285b44c4e7e0",
                "assets": [
                    {
                        "address": "0xeeeeeeeeeeeeeeeeeeeeeeeeeeeeeeeeeeeeeeee",
                        "amount": "0.535404873249453312",
                        "iconUrl": "https://assets.blocksec.com/image/1663669189317-3.png",
                        "isERC1155": false,
                        "isERC721": false,
                        "sign": true,
                        "value": ""
                    }
                ]
            }
        ]
    },
    "profile": {
        "basic_info": {
            "baseFee": "",
            "blockNumber": 3928213,
            "callData": "0x38bbfa506cc723d0af0f3e90d432a867cb0978c364c33b964621bae644f6182739057031000000000000000000000000000000000000000000000000000000000000006000000000000000000000000000000000000000000000000000000000000000a00000000000000000000000000000000000000000000000000000000000000004313337330000000000000000000000000000000000000000000000000000000000000000000000000000000000000000000000000000000000000000000000221220c655669bb53c46a4e684ff83e67427324c1d579daa3b5384e7655e6343ae48c2000000000000000000000000000000000000000000000000000000000000",
            "debugEnable": true,
            "errorInfo": "",
            "eventCount": 2,
            "feeRecipient": "0xb2930b35844a230f00e51431acae96fe543a0347",
            "formatValue": "0",
            "gasLimit": 177300,
            "gasPrice": "20",
            "gasUsed": 96332,
            "intTxnCount": 3,
            "internalRevert": false,
            "internalRevertMessage": "",
            "isContractCreation": false,
            "isFlashloan": false,
            "maxFee": "",
            "nonce": 119789,
            "overwritedBlockNumber": -1,
            "priorityFee": "",
            "receiver": "0x1e2fbe6be9eb39fc894d38be976111f332172d83",
            "revertMessage": "",
            "sender": "0x26588a9301b0428d95e6fc3a5024fce8bec12d51",
            "simulationEnable": true,
            "sourceTxnHash": "0x1b007a66ec93d3ac0c99f43ab1def8c2ee6064c896a4d24b533c59b3799b533d",
            "status": true,
            "timestamp": "2017-06-25T14:21:14Z",
            "transactionFee": "0.00192664",
            "txnHash": "0x1b007a66ec93d3ac0c99f43ab1def8c2ee6064c896a4d24b533c59b3799b533d",
            "txnIndex": 34,
            "type": 0,
            "value": "0"
        },
        "fund_flow": [
            {
                "amount": "0.535404873249453312",
                "from": "0x1e2fbe6be9eb39fc894d38be976111f332172d83",
                "id": 1,
                "isERC1155": false,
                "isERC721": false,
                "isReverted": false,
                "order": 1,
                "to": "0x7726764409f86cea7fca34cad8c7285b44c4e7e0",
                "token": "0xeeeeeeeeeeeeeeeeeeeeeeeeeeeeeeeeeeeeeeee"
            }
        ],
        "token_infos": [
            {
                "address": "0xc02aaa39b223fe8d0a0e5c4f27ead9083c756cc2",
                "decimals": 18
            },
            {
                "address": "0xeeeeeeeeeeeeeeeeeeeeeeeeeeeeeeeeeeeeeeee",
                "decimals": 18
            }
        ]
    },
    "address_label": {
        "labels": [
            {
                "address": "0x0000000000000000000000000000000000000003",
                "label": "Precompiled"
            },
            {
                "address": "0x26588a9301b0428d95e6fc3a5024fce8bec12d51",
                "label": "0x2658_Oraclize"
            },
            {
                "address": "0x6f28b146804dba2d6f944c03528a8fdbc673df2c",
                "label": "0x6f28_Oraclize"
            },
            {
                "address": "0x0000000000000000000000000000000000000001",
                "label": "Precompiled"
            },
            {
                "address": "0x0000000000000000000000000000000000000002",
                "label": "Precompiled"
            },
            {
                "address": "0xeeeeeeeeeeeeeeeeeeeeeeeeeeeeeeeeeeeeeeee",
                "label": "Ether"
            },
            {
                "address": "0x1d3b2638a7cc9f2cb3d298a3da7a90b67e5506ed",
                "label": "OraclizeAddrResolver"
            },
            {
                "address": "0x1e2fbe6be9eb39fc894d38be976111f332172d83",
                "label": "Dice"
            },
            {
                "address": "0x0000000000000000000000000000000000000004",
                "label": "Precompiled"
            }
        ]
    },
    "trace": {
        "accountLabels": null,
        "dataMap": {
            "-1": {
                "invocation": {
                    "address": "0x26588a9301b0428d95e6fc3a5024fce8bec12d51",
                    "callData": "",
                    "decodedMethod": null,
                    "errorInfo": "",
                    "fromAddress": "",
                    "gasUsed": 0,
                    "id": -1,
                    "methodDecoded": false,
                    "operation": "",
                    "output": "",
                    "revert": false,
                    "revertMessage": "",
                    "selector": "",
                    "status": false,
                    "value": ""
                },
                "nodeType": 0
            },
            "0": {
                "invocation": {
                    "address": "0x1e2fbe6be9eb39fc894d38be976111f332172d83",
                    "callData": "0x6cc723d0af0f3e90d432a867cb0978c364c33b964621bae644f6182739057031000000000000000000000000000000000000000000000000000000000000006000000000000000000000000000000000000000000000000000000000000000a00000000000000000000000000000000000000000000000000000000000000004313337330000000000000000000000000000000000000000000000000000000000000000000000000000000000000000000000000000000000000000000000221220c655669bb53c46a4e684ff83e67427324c1d579daa3b5384e7655e6343ae48c2000000000000000000000000000000000000000000000000000000000000",
                    "decodedMethod": {
                        "callParams": [
                            {
                                "name": "myid",
                                "type": "bytes32",
                                "value": "0x6cc723d0af0f3e90d432a867cb0978c364c33b964621bae644f6182739057031"
                            },
                            {
                                "name": "result",
                                "type": "string",
                                "value": "1373"
                            },
                            {
                                "name": "proof",
                                "type": "bytes",
                                "value": "0x1220c655669bb53c46a4e684ff83e67427324c1d579daa3b5384e7655e6343ae48c2"
                            }
                        ],
                        "constructorArguments": "",
                        "name": "__callback",
                        "returnParams": [],
                        "signature": "__callback(bytes32,string,bytes)"
                    },
                    "errorInfo": "",
                    "fromAddress": "0x26588a9301b0428d95e6fc3a5024fce8bec12d51",
                    "gasUsed": 96332,
                    "id": 0,
                    "methodDecoded": true,
                    "operation": "CALL",
                    "output": "",
                    "revert": false,
                    "revertMessage": "",
                    "selector": "0x38bbfa50",
                    "status": true,
                    "value": "0"
                },
                "nodeType": 0
            },
            "1": {
                "invocation": {
                    "address": "0x1d3b2638a7cc9f2cb3d298a3da7a90b67e5506ed",
                    "callData": "0x",
                    "decodedMethod": {
                        "callParams": [],
                        "constructorArguments": "",
                        "name": "getAddress",
                        "returnParams": [
                            {
                                "name": "oaddr",
                                "type": "address",
                                "value": "0x6f28b146804dba2d6f944c03528a8fdbc673df2c"
                            }
                        ],
                        "signature": "getAddress()"
                    },
                    "errorInfo": "",
                    "fromAddress": "0x1e2fbe6be9eb39fc894d38be976111f332172d83",
                    "gasUsed": 418,
                    "id": 1,
                    "methodDecoded": true,
                    "operation": "CALL",
                    "output": "0x0000000000000000000000006f28b146804dba2d6f944c03528a8fdbc673df2c",
                    "revert": false,
                    "revertMessage": "",
                    "selector": "0x38cc4831",
                    "status": true,
                    "value": "0"
                },
                "nodeType": 0
            },
            "2": {
                "invocation": {
                    "address": "0x6f28b146804dba2d6f944c03528a8fdbc673df2c",
                    "callData": "0x",
                    "decodedMethod": {
                        "callParams": [],
                        "constructorArguments": "",
                        "name": "cbAddress",
                        "returnParams": [
                            {
                                "name": "_cbAddress",
                                "type": "address",
                                "value": "0x26588a9301b0428d95e6fc3a5024fce8bec12d51"
                            }
                        ],
                        "signature": "cbAddress()"
                    },
                    "errorInfo": "",
                    "fromAddress": "0x1e2fbe6be9eb39fc894d38be976111f332172d83",
                    "gasUsed": 1403,
                    "id": 2,
                    "methodDecoded": true,
                    "operation": "CALL",
                    "output": "0x00000000000000000000000026588a9301b0428d95e6fc3a5024fce8bec12d51",
                    "revert": false,
                    "revertMessage": "",
                    "selector": "0xc281d19e",
                    "status": true,
                    "value": "0"
                },
                "nodeType": 0
            },
            "3": {
                "event": {
                    "contract": "0x1e2fbe6be9eb39fc894d38be976111f332172d83",
                    "decodedLog": {
                        "name": "LOG_BetWon",
                        "params": [
                            {
                                "name": "playerAddress",
                                "type": "address",
                                "value": "0x7726764409f86cea7fca34cad8c7285b44c4e7e0"
                            },
                            {
                                "name": "numberRolled",
                                "type": "uint256",
                                "value": "1,373"
                            },
                            {
                                "name": "amountWon",
                                "type": "uint256",
                                "value": "535,404,873,249,453,312"
                            }
                        ],
                        "signature": "LOG_BetWon(address,uint256,uint256)"
                    },
                    "id": 3,
                    "logData": "0x0000000000000000000000007726764409f86cea7fca34cad8c7285b44c4e7e0000000000000000000000000000000000000000000000000000000000000055d000000000000000000000000000000000000000000000000076e23e5410bf500",
                    "logDecoded": true,
                    "operation": "EVENT",
                    "revert": false,
                    "status": true,
                    "topics": [
                        "0xa5acb022726d980b249ddc212f4992ad87f28c093550232fcc48bd8af803f2d5"
                    ]
                },
                "nodeType": 1
            },
            "4": {
                "invocation": {
                    "address": "0x7726764409f86cea7fca34cad8c7285b44c4e7e0",
                    "callData": "0x",
                    "decodedMethod": null,
                    "errorInfo": "",
                    "fromAddress": "0x1e2fbe6be9eb39fc894d38be976111f332172d83",
                    "gasUsed": 0,
                    "id": 4,
                    "methodDecoded": false,
                    "operation": "CALL",
                    "output": "",
                    "revert": false,
                    "revertMessage": "",
                    "selector": "fallback",
                    "status": true,
                    "value": "0.535404873249453312"
                },
                "nodeType": 0
            },
            "5": {
                "event": {
                    "contract": "0x1e2fbe6be9eb39fc894d38be976111f332172d83",
                    "decodedLog": {
                        "name": "LOG_SuccessfulSend",
                        "params": [
                            {
                                "name": "addr",
                                "type": "address",
                                "value": "0x7726764409f86cea7fca34cad8c7285b44c4e7e0"
                            },
                            {
                                "name": "amount",
                                "type": "uint256",
                                "value": "535,404,873,249,453,312"
                            }
                        ],
                        "signature": "LOG_SuccessfulSend(address,uint256)"
                    },
                    "id": 5,
                    "logData": "0x0000000000000000000000007726764409f86cea7fca34cad8c7285b44c4e7e0000000000000000000000000000000000000000000000000076e23e5410bf500",
                    "logDecoded": true,
                    "operation": "EVENT",
                    "revert": false,
                    "status": true,
                    "topics": [
                        "0xc7e416c5685d8971558840f05c5e63e02575b29997d8da6b9ba44dc10da6a370"
                    ]
                },
                "nodeType": 1
            }
        },
        "gasFlame": [
            {
                "children": [
                    {
                        "children": [
                            {
                                "children": [],
                                "depth": 0,
                                "name": "Initial Gas",
                                "value": 27032
                            },
                            {
                                "children": [
                                    {
                                        "children": [],
                                        "depth": 1,
                                        "name": "getAddress",
                                        "value": 418
                                    },
                                    {
                                        "children": [],
                                        "depth": 1,
                                        "name": "cbAddress",
                                        "value": 1403
                                    },
                                    {
                                        "children": [],
                                        "depth": 1,
                                        "name": "fallback",
                                        "value": 0
                                    }
                                ],
                                "depth": 0,
                                "name": "Executed Gas",
                                "value": 69300
                            }
                        ],
                        "depth": -1,
                        "name": "Actual Gas Used",
                        "value": 96332
                    },
                    {
                        "children": [],
                        "depth": -1,
                        "name": "Refunded Gas",
                        "value": 0
                    }
                ],
                "depth": -2,
                "name": "Total Gas",
                "value": 96332
            }
        ],
        "isConfirmed": true,
        "mainTrace": [
            {
                "children": [
                    {
                        "children": [
                            {
                                "children": [],
                                "depth": 1,
                                "id": 1,
                                "order": 1
                            },
                            {
                                "children": [],
                                "depth": 1,
                                "id": 2,
                                "order": 2
                            },
                            {
                                "children": [],
                                "depth": 1,
                                "id": 3,
                                "order": 3
                            },
                            {
                                "children": [],
                                "depth": 1,
                                "id": 4,
                                "order": 4
                            },
                            {
                                "children": [],
                                "depth": 1,
                                "id": 5,
                                "order": 5
                            }
                        ],
                        "depth": 0,
                        "id": 0,
                        "order": 0
                    }
                ],
                "depth": -1,
                "id": -1,
                "order": -1
            }
        ],
        "mainTraceNodeCount": 6,
        "parentIdMap": {
            "0": -1,
            "1": 0,
            "2": 0,
            "3": 0,
            "4": 0,
            "5": 0
        },
        "tidyTrace": [
            {
                "children": [
                    {
                        "children": [
                            {
                                "children": [],
                                "depth": 1,
                                "id": 1,
                                "order": 1
                            },
                            {
                                "children": [],
                                "depth": 1,
                                "id": 2,
                                "order": 2
                            },
                            {
                                "children": [],
                                "depth": 1,
                                "id": 3,
                                "order": 3
                            },
                            {
                                "children": [],
                                "depth": 1,
                                "id": 4,
                                "order": 4
                            },
                            {
                                "children": [],
                                "depth": 1,
                                "id": 5,
                                "order": 5
                            }
                        ],
                        "depth": 0,
                        "id": 0,
                        "order": 0
                    }
                ],
                "depth": -1,
                "id": -1,
                "order": -1
            }
        ],
        "tidyTraceNodeCount": 6
    },
    "state_change": {
        "stateChanges": [
            {
                "address": "0x1e2fbe6be9eb39fc894d38be976111f332172d83",
                "erc": "",
                "slots": [
                    {
                        "current": "0x000000000000000000000000000000000000000000000000000000000000055d",
                        "key": "0xcc02cb62ab8ae8e99a2b35c9584381c8bd65c963b2ed346da891e6885626b239",
                        "prev": "0x0000000000000000000000000000000000000000000000000000000000000000"
                    },
                    {
                        "current": "0x000000000000000000000000000000000000000000000007d484bebf73f19046",
                        "key": "0x000000000000000000000000000000000000000000000000000000000000000e",
                        "prev": "0x000000000000000000000000000000000000000000000007d01e327ddfd12b46"
                    }
                ],
                "storageVariables": []
            }
        ]
    }
}