{
    "balance_change": {
        "balanceChanges": [
            {
                "account": "0xb83533aafa27b03535296f385c600054e386f1c6",
                "assets": [
                    {
                        "address": "0x0cfda67b0067f1a99deb1cb80e0273a3f26d317c",
                        "amount": "2,853.043723440847566108",
                        "iconUrl": "",
                        "isERC1155": false,
                        "isERC721": false,
                        "sign": false,
                        "value": ""
                    }
                ]
            },
            {
                "account": "0x662f3179cb67db5c24c56eb0f8b4067bb3b3fa11",
                "assets": [
                    {
                        "address": "0x0cfda67b0067f1a99deb1cb80e0273a3f26d317c",
                        "amount": "2,853.043723440847566108",
                        "iconUrl": "",
                        "isERC1155": false,
                        "isERC721": false,
                        "sign": true,
                        "value": ""
                    }
                ]
            }
        ]
    },
    "profile": {
        "basic_info": {
            "baseFee": "",
            "blockNumber": 6252298,
            "callData": "0xa9059cbb000000000000000000000000662f3179cb67db5c24c56eb0f8b4067bb3b3fa1100000000000000000000000000000000000000000000009aa9ef76655d87b51c",
            "debugEnable": true,
            "errorInfo": "",
            "eventCount": 1,
            "feeRecipient": "0x5a0b54d5dc17e0aadc383d2db43b0a0d3e029c4c",
            "formatValue": "0",
            "gasLimit": 38000,
            "gasPrice": "2.1",
            "gasUsed": 22393,
            "intTxnCount": 0,
            "internalRevert": false,
            "internalRevertMessage": "",
            "isContractCreation": false,
            "isFlashloan": false,
            "maxFee": "",
            "nonce": 9,
            "overwritedBlockNumber": -1,
            "priorityFee": "",
            "receiver": "0x0cfda67b0067f1a99deb1cb80e0273a3f26d317c",
            "revertMessage": "",
            "sender": "0xb83533aafa27b03535296f385c600054e386f1c6",
            "simulationEnable": true,
            "sourceTxnHash": "0x1b3fa065932b090e005e6cf3fb1c328c9cbbe2235fe1c4be48c7f7f7fc3cf55b",
            "status": true,
            "timestamp": "2018-09-01T11:49:20Z",
            "transactionFee": "0.0000470253",
            "txnHash": "0x1b3fa065932b090e005e6cf3fb1c328c9cbbe2235fe1c4be48c7f7f7fc3cf55b",
            "txnIndex": 31,
            "type": 0,
            "value": "0"
        },
        "fund_flow": [
            {
                "amount": "2,853.043723440847566108",
                "from": "0xb83533aafa27b03535296f385c600054e386f1c6",
                "id": 1,
                "isERC1155": false,
                "isERC721": false,
                "isReverted": false,
                "order": 1,
                "to": "0x662f3179cb67db5c24c56eb0f8b4067bb3b3fa11",
                "token": "0x0cfda67b0067f1a99deb1cb80e0273a3f26d317c"
            }
        ],
        "token_infos": [
            {
                "address": "0x0cfda67b0067f1a99deb1cb80e0273a3f26d317c",
                "decimals": 18
            },
            {
                "address": "0xc02aaa39b223fe8d0a0e5c4f27ead9083c756cc2",
                "decimals": 18
            },
            {
                "address": "0xeeeeeeeeeeeeeeeeeeeeeeeeeeeeeeeeeeeeeeee",
                "decimals": 18
            }
        ]
    },
    "address_label": {
        "labels": [
            {
                "address": "0xeeeeeeeeeeeeeeeeeeeeeeeeeeeeeeeeeeeeeeee",
                "label": "Ether"
            },
            {
                "address": "0x0cfda67b0067f1a99deb1cb80e0273a3f26d317c",
                "label": "TrekChain (TREK)"
            },
            {
                "address": "0x0000000000000000000000000000000000000001",
                "label": "Precompiled"
            },
            {
                "address": "0x0000000000000000000000000000000000000002",
                "label": "Precompiled"
            },
            {
                "address": "0x0000000000000000000000000000000000000003",
                "label": "Precompiled"
            },
            {
                "address": "0x0000000000000000000000000000000000000004",
                "label": "Precompiled"
            }
        ]
    },
    "trace": {
        "accountLabels": null,
        "dataMap": {
            "-1": {
                "invocation": {
                    "address": "0xb83533aafa27b03535296f385c600054e386f1c6",
                    "callData": "",
                    "decodedMethod": null,
                    "errorInfo": "",
                    "fromAddress": "",
                    "gasUsed": 0,
                    "id": -1,
                    "methodDecoded": false,
                    "operation": "",
                    "output": "",
                    "revert": false,
                    "revertMessage": "",
                    "selector": "",
                    "status": false,
                    "value": ""
                },
                "nodeType": 0
            },
            "0": {
                "invocation": {
                    "address": "0x0cfda67b0067f1a99deb1cb80e0273a3f26d317c",
                    "callData": "0x000000000000000000000000662f3179cb67db5c24c56eb0f8b4067bb3b3fa1100000000000000000000000000000000000000000000009aa9ef76655d87b51c",
                    "decodedMethod": {
                        "callParams": [
                            {
                                "name": "_to",
                                "type": "address",
                                "value": "0x662f3179cb67db5c24c56eb0f8b4067bb3b3fa11"
                            },
                            {
                                "decimalAvailable": true,
                                "name": "_amount",
                                "type": "uint256",
                                "value": "2,853,043,723,440,847,566,108"
                            }
                        ],
                        "constructorArguments": "",
                        "name": "transfer",
                        "returnParams": [
                            {
                                "name": "success",
                                "type": "bool",
                                "value": true
                            }
                        ],
                        "signature": "transfer(address,uint256)"
                    },
                    "errorInfo": "",
                    "fromAddress": "0xb83533aafa27b03535296f385c600054e386f1c6",
                    "gasUsed": 22393,
                    "id": 0,
                    "methodDecoded": true,
                    "operation": "CALL",
                    "output": "0x0000000000000000000000000000000000000000000000000000000000000001",
                    "revert": false,
                    "revertMessage": "",
                    "selector": "0xa9059cbb",
                    "status": true,
                    "value": "0"
                },
                "nodeType": 0
            },
            "1": {
                "event": {
                    "contract": "0x0cfda67b0067f1a99deb1cb80e0273a3f26d317c",
                    "decodedLog": {
                        "name": "Transfer",
                        "params": [
                            {
                                "name": "_from",
                                "type": "address",
                                "value": "0xb83533aafa27b03535296f385c600054e386f1c6"
                            },
                            {
                                "name": "_to",
                                "type": "address",
                                "value": "0x662f3179cb67db5c24c56eb0f8b4067bb3b3fa11"
                            },
                            {
                                "decimalAvailable": true,
                                "name": "_value",
                                "type": "uint256",
                                "value": "2,853,043,723,440,847,566,108"
                            }
                        ],
                        "signature": "Transfer(address,address,uint256)"
                    },
                    "id": 1,
                    "logData": "0x00000000000000000000000000000000000000000000009aa9ef76655d87b51c",
                    "logDecoded": true,
                    "operation": "EVENT",
                    "revert": false,
                    "status": true,
                    "topics": [
                        "0xddf252ad1be2c89b69c2b068fc378daa952ba7f163c4a11628f55a4df523b3ef",
                        "0x000000000000000000000000b83533aafa27b03535296f385c600054e386f1c6",
                        "0x000000000000000000000000662f3179cb67db5c24c56eb0f8b4067bb3b3fa11"
                    ]
                },
                "nodeType": 1
            }
        },
        "gasFlame": [
            {
                "children": [
                    {
                        "children": [
                            {
                                "children": [],
                                "depth": 0,
                                "name": "Initial Gas",
                                "value": 23384
                            },
                            {
                                "children": [],
                                "depth": 0,
                                "name": "Executed Gas",
                                "value": 14009
                            }
                        ],
                        "depth": -1,
                        "name": "Actual Gas Used",
                        "value": 22393
                    },
                    {
                        "children": [],
                        "depth": -1,
                        "name": "Refunded Gas",
                        "value": 15000
                    }
                ],
                "depth": -2,
                "name": "Total Gas",
                "value": 37393
            }
        ],
        "isConfirmed": true,
        "mainTrace": [
            {
                "children": [
                    {
                        "children": [
                            {
                                "children": [],
                                "depth": 1,
                                "id": 1,
                                "order": 1
                            }
                        ],
                        "depth": 0,
                        "id": 0,
                        "order": 0
                    }
                ],
                "depth": -1,
                "id": -1,
                "order": -1
            }
        ],
        "mainTraceNodeCount": 2,
        "parentIdMap": {
            "0": -1,
            "1": 0
        },
        "tidyTrace": [
            {
                "children": [
                    {
                        "children": [
                            {
                                "children": [],
                                "depth": 1,
                                "id": 1,
                                "order": 1
                            }
                        ],
                        "depth": 0,
                        "id": 0,
                        "order": 0
                    }
                ],
                "depth": -1,
                "id": -1,
                "order": -1
            }
        ],
        "tidyTraceNodeCount": 2
    },
    "state_change": {
        "stateChanges": [
            {
                "address": "0x0cfda67b0067f1a99deb1cb80e0273a3f26d317c",
                "erc": "ERC-20",
                "slots": [
                    {
                        "current": "0x0000000000000000000000000000000000000000000000000000000000000000",
                        "key": "0x92c6d54c494b77fb5ef28186e2541fe217d7806f08fe9d78c7ef091b336d4f87",
                        "prev": "0x00000000000000000000000000000000000000000000009aa9ef76655d87b51c"
                    },
                    {
                        "current": "0x0000000000000000000000000000000000000000000667f26a51f634501f095b",
                        "key": "0xaa5b17cd447aaf9ca07e776ec12e81313886e7d99025481c36d39515a1746076",
                        "prev": "0x000000000000000000000000000000000000000000066757c0627fcef297543f"
                    }
                ],
                "storageVariables": [
                    {
                        "name": "balances",
                        "type": "mapping(address => uint256)",
                        "value": {
                            "pairs": [
                                {
                                    "key": "0x662f3179cb67db5c24c56eb0f8b4067bb3b3fa11",
                                    "value": {
                                        "current": "7744430438664331893606747",
                                        "prev": "7741577394940891046040639",
                                        "typeTag": 1
                                    }
                                },
                                {
                                    "key": "0xb83533aafa27b03535296f385c600054e386f1c6",
                                    "value": {
                                        "current": "0",
                                        "prev": "2853043723440847566108",
                                        "typeTag": 1
                                    }
                                }
                            ],
                            "typeTag": 4
                        }
                    }
                ]
            }
        ]
    }
}