{
    "balance_change": {
        "balanceChanges": [
            {
                "account": "0x4b552b84acc39002c100eb0cc3a042acb4b0b040",
                "assets": [
                    {
                        "address": "0xd4c46ca8cb577aac48f4c95b014b252d61548f1d",
                        "amount": "2",
                        "iconUrl": "",
                        "isERC1155": false,
                        "isERC721": false,
                        "sign": false,
                        "value": ""
                    }
                ]
            },
            {
                "account": "0xe5989f02603de03b558739b22b08410795c96d8f",
                "assets": [
                    {
                        "address": "0xd4c46ca8cb577aac48f4c95b014b252d61548f1d",
                        "amount": "2",
                        "iconUrl": "",
                        "isERC1155": false,
                        "isERC721": false,
                        "sign": true,
                        "value": ""
                    }
                ]
            }
        ]
    },
    "profile": {
        "basic_info": {
            "baseFee": "",
            "blockNumber": 7753407,
            "callData": "0xa9059cbb000000000000000000000000e5989f02603de03b558739b22b08410795c96d8f00000000000000000000000000000000000000000000000000000000001e8480",
            "debugEnable": true,
            "errorInfo": "",
            "eventCount": 1,
            "feeRecipient": "0xea674fdde714fd979de3edf0f56aa9716b898ec8",
            "formatValue": "0",
            "gasLimit": 90000,
            "gasPrice": "2",
            "gasUsed": 53143,
            "intTxnCount": 0,
            "internalRevert": false,
            "internalRevertMessage": "",
            "isContractCreation": false,
            "isFlashloan": false,
            "maxFee": "",
            "nonce": 491,
            "overwritedBlockNumber": -1,
            "priorityFee": "",
            "receiver": "0xd4c46ca8cb577aac48f4c95b014b252d61548f1d",
            "revertMessage": "",
            "sender": "0x4b552b84acc39002c100eb0cc3a042acb4b0b040",
            "simulationEnable": true,
            "sourceTxnHash": "0x1b1b3bf5ba9a2126243f65333d009675a1a4b6eef5d7bf2f41b0edd9f874084a",
            "status": true,
            "timestamp": "2019-05-13T17:45:57Z",
            "transactionFee": "0.000106286",
            "txnHash": "0x1b1b3bf5ba9a2126243f65333d009675a1a4b6eef5d7bf2f41b0edd9f874084a",
            "txnIndex": 79,
            "type": 0,
            "value": "0"
        },
        "fund_flow": [
            {
                "amount": "2",
                "from": "0x4b552b84acc39002c100eb0cc3a042acb4b0b040",
                "id": 1,
                "isERC1155": false,
                "isERC721": false,
                "isReverted": false,
                "order": 1,
                "to": "0xe5989f02603de03b558739b22b08410795c96d8f",
                "token": "0xd4c46ca8cb577aac48f4c95b014b252d61548f1d"
            }
        ],
        "token_infos": [
            {
                "address": "0xd4c46ca8cb577aac48f4c95b014b252d61548f1d",
                "decimals": 6
            },
            {
                "address": "0xeeeeeeeeeeeeeeeeeeeeeeeeeeeeeeeeeeeeeeee",
                "decimals": 18
            },
            {
                "address": "0xc02aaa39b223fe8d0a0e5c4f27ead9083c756cc2",
                "decimals": 18
            }
        ]
    },
    "address_label": {
        "labels": [
            {
                "address": "0xeeeeeeeeeeeeeeeeeeeeeeeeeeeeeeeeeeeeeeee",
                "label": "Ether"
            },
            {
                "address": "0xd4c46ca8cb577aac48f4c95b014b252d61548f1d",
                "label": "\u975e\u6d32\u8d44\u6e90\u94fe"
            },
            {
                "address": "0x0000000000000000000000000000000000000001",
                "label": "Precompiled"
            },
            {
                "address": "0x0000000000000000000000000000000000000002",
                "label": "Precompiled"
            },
            {
                "address": "0x0000000000000000000000000000000000000003",
                "label": "Precompiled"
            },
            {
                "address": "0x0000000000000000000000000000000000000004",
                "label": "Precompiled"
            }
        ]
    },
    "trace": {
        "accountLabels": null,
        "dataMap": {
            "-1": {
                "invocation": {
                    "address": "0x4b552b84acc39002c100eb0cc3a042acb4b0b040",
                    "callData": "",
                    "decodedMethod": null,
                    "errorInfo": "",
                    "fromAddress": "",
                    "gasUsed": 0,
                    "id": -1,
                    "methodDecoded": false,
                    "operation": "",
                    "output": "",
                    "revert": false,
                    "revertMessage": "",
                    "selector": "",
                    "status": false,
                    "value": ""
                },
                "nodeType": 0
            },
            "0": {
                "invocation": {
                    "address": "0xd4c46ca8cb577aac48f4c95b014b252d61548f1d",
                    "callData": "0x000000000000000000000000e5989f02603de03b558739b22b08410795c96d8f00000000000000000000000000000000000000000000000000000000001e8480",
                    "decodedMethod": {
                        "callParams": [
                            {
                                "name": "_to",
                                "type": "address",
                                "value": "0xe5989f02603de03b558739b22b08410795c96d8f"
                            },
                            {
                                "decimalAvailable": true,
                                "name": "_value",
                                "type": "uint256",
                                "value": "2,000,000"
                            }
                        ],
                        "constructorArguments": "",
                        "name": "transfer",
                        "returnParams": [],
                        "signature": "transfer(address,uint256)"
                    },
                    "errorInfo": "",
                    "fromAddress": "0x4b552b84acc39002c100eb0cc3a042acb4b0b040",
                    "gasUsed": 53143,
                    "id": 0,
                    "methodDecoded": true,
                    "operation": "CALL",
                    "output": "",
                    "revert": false,
                    "revertMessage": "",
                    "selector": "0xa9059cbb",
                    "status": true,
                    "value": "0"
                },
                "nodeType": 0
            },
            "1": {
                "event": {
                    "contract": "0xd4c46ca8cb577aac48f4c95b014b252d61548f1d",
                    "decodedLog": {
                        "name": "Transfer",
                        "params": [
                            {
                                "name": "from",
                                "type": "address",
                                "value": "0x4b552b84acc39002c100eb0cc3a042acb4b0b040"
                            },
                            {
                                "name": "to",
                                "type": "address",
                                "value": "0xe5989f02603de03b558739b22b08410795c96d8f"
                            },
                            {
                                "decimalAvailable": true,
                                "name": "value",
                                "type": "uint256",
                                "value": "2,000,000"
                            }
                        ],
                        "signature": "Transfer(address,address,uint256)"
                    },
                    "id": 1,
                    "logData": "0x00000000000000000000000000000000000000000000000000000000001e8480",
                    "logDecoded": true,
                    "operation": "EVENT",
                    "revert": false,
                    "status": true,
                    "topics": [
                        "0xddf252ad1be2c89b69c2b068fc378daa952ba7f163c4a11628f55a4df523b3ef",
                        "0x0000000000000000000000004b552b84acc39002c100eb0cc3a042acb4b0b040",
                        "0x000000000000000000000000e5989f02603de03b558739b22b08410795c96d8f"
                    ]
                },
                "nodeType": 1
            }
        },
        "gasFlame": [
            {
                "children": [
                    {
                        "children": [
                            {
                                "children": [],
                                "depth": 0,
                                "name": "Initial Gas",
                                "value": 23000
                            },
                            {
                                "children": [],
                                "depth": 0,
                                "name": "Executed Gas",
                                "value": 30143
                            }
                        ],
                        "depth": -1,
                        "name": "Actual Gas Used",
                        "value": 53143
                    },
                    {
                        "children": [],
                        "depth": -1,
                        "name": "Refunded Gas",
                        "value": 0
                    }
                ],
                "depth": -2,
                "name": "Total Gas",
                "value": 53143
            }
        ],
        "isConfirmed": true,
        "mainTrace": [
            {
                "children": [
                    {
                        "children": [
                            {
                                "children": [],
                                "depth": 1,
                                "id": 1,
                                "order": 1
                            }
                        ],
                        "depth": 0,
                        "id": 0,
                        "order": 0
                    }
                ],
                "depth": -1,
                "id": -1,
                "order": -1
            }
        ],
        "mainTraceNodeCount": 2,
        "parentIdMap": {
            "0": -1,
            "1": 0
        },
        "tidyTrace": [
            {
                "children": [
                    {
                        "children": [
                            {
                                "children": [],
                                "depth": 1,
                                "id": 1,
                                "order": 1
                            }
                        ],
                        "depth": 0,
                        "id": 0,
                        "order": 0
                    }
                ],
                "depth": -1,
                "id": -1,
                "order": -1
            }
        ],
        "tidyTraceNodeCount": 2
    },
    "state_change": {
        "stateChanges": [
            {
                "address": "0xd4c46ca8cb577aac48f4c95b014b252d61548f1d",
                "erc": "",
                "slots": [
                    {
                        "current": "0x000000000000000000000000000000000000000000000000000002428413fec0",
                        "key": "0xac4d30ea879de1febed70efb6a8608c38e8a9388f9213ce92d6a035e093082a3",
                        "prev": "0x0000000000000000000000000000000000000000000000000000024284328340"
                    },
                    {
                        "current": "0x00000000000000000000000000000000000000000000000000000000001e8480",
                        "key": "0xcc5a2bc1ba9a8dc500158010949c6e0b931df8b0f8c49dc33e772144c3bfd7bd",
                        "prev": "0x0000000000000000000000000000000000000000000000000000000000000000"
                    }
                ],
                "storageVariables": []
            }
        ]
    }
}