{
    "balance_change": {
        "balanceChanges": [
            {
                "account": "0x790aed8f0571d8bdb682a91b42b180ad4a56f264",
                "assets": [
                    {
                        "address": "0xbc4ca0eda7647a8ab7c2061c2e118a18a936f13d",
                        "amount": "1",
                        "iconUrl": "https://assets.blocksec.com/nft/icon/nft_bc38bc15-9fea-4103-ae45-0ee8387293bf.png",
                        "isERC1155": false,
                        "isERC721": true,
                        "sign": false,
                        "tokenID": "2051",
                        "value": ""
                    }
                ]
            },
            {
                "account": "0x5e13d49257f9e665c900eebd8d96042507709838",
                "assets": [
                    {
                        "address": "0xbc4ca0eda7647a8ab7c2061c2e118a18a936f13d",
                        "amount": "1",
                        "iconUrl": "https://assets.blocksec.com/nft/icon/nft_bc38bc15-9fea-4103-ae45-0ee8387293bf.png",
                        "isERC1155": false,
                        "isERC721": true,
                        "sign": true,
                        "tokenID": "2051",
                        "value": ""
                    }
                ]
            }
        ]
    },
    "profile": {
        "basic_info": {
            "baseFee": "9.441946276",
            "blockNumber": 15458694,
            "callData": "0x42842e0e000000000000000000000000790aed8f0571d8bdb682a91b42b180ad4a56f2640000000000000000000000005e13d49257f9e665c900eebd8d960425077098380000000000000000000000000000000000000000000000000000000000000803",
            "debugEnable": true,
            "errorInfo": "",
            "eventCount": 2,
            "feeRecipient": "0x52bc44d5378309ee2abf1539bf71de1b7d7be3b5",
            "formatValue": "0",
            "gasLimit": 127459,
            "gasPrice": "10.941946276",
            "gasUsed": 117859,
            "intTxnCount": 0,
            "internalRevert": false,
            "internalRevertMessage": "",
            "isContractCreation": false,
            "isFlashloan": false,
            "maxFee": "11.617121221",
            "nonce": 83,
            "overwritedBlockNumber": -1,
            "priorityFee": "1.5",
            "receiver": "0xbc4ca0eda7647a8ab7c2061c2e118a18a936f13d",
            "revertMessage": "",
            "sender": "0x790aed8f0571d8bdb682a91b42b180ad4a56f264",
            "simulationEnable": true,
            "sourceTxnHash": "0x1b12ecb960ad9045f171eb25ae83fe7aa42b2be840e1d0641c24ea69f43cfde0",
            "status": true,
            "timestamp": "2022-09-02T10:47:42Z",
            "transactionFee": "0.001289606846143084",
            "txnHash": "0x1b12ecb960ad9045f171eb25ae83fe7aa42b2be840e1d0641c24ea69f43cfde0",
            "txnIndex": 12,
            "type": 2,
            "value": "0"
        },
        "fund_flow": [
            {
                "amount": "1",
                "from": "0x790aed8f0571d8bdb682a91b42b180ad4a56f264",
                "id": 1,
                "isERC1155": false,
                "isERC721": true,
                "isReverted": false,
                "order": 1,
                "to": "0x5e13d49257f9e665c900eebd8d96042507709838",
                "token": "0xbc4ca0eda7647a8ab7c2061c2e118a18a936f13d",
                "tokenID": "2051"
            }
        ],
        "token_infos": [
            {
                "address": "0xc02aaa39b223fe8d0a0e5c4f27ead9083c756cc2",
                "decimals": 18
            },
            {
                "address": "0xeeeeeeeeeeeeeeeeeeeeeeeeeeeeeeeeeeeeeeee",
                "decimals": 18
            }
        ]
    },
    "address_label": {
        "labels": [
            {
                "address": "0xeeeeeeeeeeeeeeeeeeeeeeeeeeeeeeeeeeeeeeee",
                "label": "Ether"
            },
            {
                "address": "0xbc4ca0eda7647a8ab7c2061c2e118a18a936f13d",
                "label": "Bored Ape Yacht Club: BoredApeYachtClub Token (BAYC)"
            },
            {
                "address": "0x0000000000000000000000000000000000000001",
                "label": "Precompiled"
            },
            {
                "address": "0x0000000000000000000000000000000000000002",
                "label": "Precompiled"
            },
            {
                "address": "0x0000000000000000000000000000000000000003",
                "label": "Precompiled"
            },
            {
                "address": "0x0000000000000000000000000000000000000004",
                "label": "Precompiled"
            }
        ]
    },
    "trace": {
        "accountLabels": null,
        "dataMap": {
            "-1": {
                "invocation": {
                    "address": "0x790aed8f0571d8bdb682a91b42b180ad4a56f264",
                    "callData": "",
                    "decodedMethod": null,
                    "errorInfo": "",
                    "fromAddress": "",
                    "gasUsed": 0,
                    "id": -1,
                    "methodDecoded": false,
                    "operation": "",
                    "output": "",
                    "revert": false,
                    "revertMessage": "",
                    "selector": "",
                    "status": false,
                    "value": ""
                },
                "nodeType": 0
            },
            "0": {
                "invocation": {
                    "address": "0xbc4ca0eda7647a8ab7c2061c2e118a18a936f13d",
                    "callData": "0x000000000000000000000000790aed8f0571d8bdb682a91b42b180ad4a56f2640000000000000000000000005e13d49257f9e665c900eebd8d960425077098380000000000000000000000000000000000000000000000000000000000000803",
                    "decodedMethod": {
                        "callParams": [
                            {
                                "name": "from",
                                "type": "address",
                                "value": "0x790aed8f0571d8bdb682a91b42b180ad4a56f264"
                            },
                            {
                                "name": "to",
                                "type": "address",
                                "value": "0x5e13d49257f9e665c900eebd8d96042507709838"
                            },
                            {
                                "name": "tokenId",
                                "type": "uint256",
                                "value": "2,051"
                            }
                        ],
                        "constructorArguments": "",
                        "name": "safeTransferFrom",
                        "returnParams": [],
                        "signature": "safeTransferFrom(address,address,uint256)"
                    },
                    "errorInfo": "",
                    "fromAddress": "0x790aed8f0571d8bdb682a91b42b180ad4a56f264",
                    "gasUsed": 117859,
                    "id": 0,
                    "methodDecoded": true,
                    "operation": "CALL",
                    "output": "",
                    "revert": false,
                    "revertMessage": "",
                    "selector": "0x42842e0e",
                    "status": true,
                    "value": "0"
                },
                "nodeType": 0
            },
            "1": {
                "event": {
                    "contract": "0xbc4ca0eda7647a8ab7c2061c2e118a18a936f13d",
                    "decodedLog": {
                        "name": "Approval",
                        "params": [
                            {
                                "name": "owner",
                                "type": "address",
                                "value": "0x790aed8f0571d8bdb682a91b42b180ad4a56f264"
                            },
                            {
                                "name": "approved",
                                "type": "address",
                                "value": "0x0000000000000000000000000000000000000000"
                            },
                            {
                                "decimalAvailable": true,
                                "name": "tokenId",
                                "type": "uint256",
                                "value": "2,051"
                            }
                        ],
                        "signature": "Approval(address,address,uint256)"
                    },
                    "id": 1,
                    "logData": "0x",
                    "logDecoded": true,
                    "operation": "EVENT",
                    "revert": false,
                    "status": true,
                    "topics": [
                        "0x8c5be1e5ebec7d5bd14f71427d1e84f3dd0314c0f7b2291e5b200ac8c7c3b925",
                        "0x000000000000000000000000790aed8f0571d8bdb682a91b42b180ad4a56f264",
                        "0x0000000000000000000000000000000000000000000000000000000000000000",
                        "0x0000000000000000000000000000000000000000000000000000000000000803"
                    ]
                },
                "nodeType": 1
            },
            "2": {
                "event": {
                    "contract": "0xbc4ca0eda7647a8ab7c2061c2e118a18a936f13d",
                    "decodedLog": {
                        "name": "Transfer",
                        "params": [
                            {
                                "name": "from",
                                "type": "address",
                                "value": "0x790aed8f0571d8bdb682a91b42b180ad4a56f264"
                            },
                            {
                                "name": "to",
                                "type": "address",
                                "value": "0x5e13d49257f9e665c900eebd8d96042507709838"
                            },
                            {
                                "decimalAvailable": true,
                                "name": "tokenId",
                                "type": "uint256",
                                "value": "2,051"
                            }
                        ],
                        "signature": "Transfer(address,address,uint256)"
                    },
                    "id": 2,
                    "logData": "0x",
                    "logDecoded": true,
                    "operation": "EVENT",
                    "revert": false,
                    "status": true,
                    "topics": [
                        "0xddf252ad1be2c89b69c2b068fc378daa952ba7f163c4a11628f55a4df523b3ef",
                        "0x000000000000000000000000790aed8f0571d8bdb682a91b42b180ad4a56f264",
                        "0x0000000000000000000000005e13d49257f9e665c900eebd8d96042507709838",
                        "0x0000000000000000000000000000000000000000000000000000000000000803"
                    ]
                },
                "nodeType": 1
            }
        },
        "gasFlame": [
            {
                "children": [
                    {
                        "children": [
                            {
                                "children": [],
                                "depth": 0,
                                "name": "Initial Gas",
                                "value": 21940
                            },
                            {
                                "children": [],
                                "depth": 0,
                                "name": "Executed Gas",
                                "value": 105519
                            }
                        ],
                        "depth": -1,
                        "name": "Actual Gas Used",
                        "value": 117859
                    },
                    {
                        "children": [],
                        "depth": -1,
                        "name": "Refunded Gas",
                        "value": 9600
                    }
                ],
                "depth": -2,
                "name": "Total Gas",
                "value": 127459
            }
        ],
        "isConfirmed": true,
        "mainTrace": [
            {
                "children": [
                    {
                        "children": [
                            {
                                "children": [],
                                "depth": 1,
                                "id": 1,
                                "order": 1
                            },
                            {
                                "children": [],
                                "depth": 1,
                                "id": 2,
                                "order": 2
                            }
                        ],
                        "depth": 0,
                        "id": 0,
                        "order": 0
                    }
                ],
                "depth": -1,
                "id": -1,
                "order": -1
            }
        ],
        "mainTraceNodeCount": 3,
        "parentIdMap": {
            "0": -1,
            "1": 0,
            "2": 0
        },
        "tidyTrace": [
            {
                "children": [
                    {
                        "children": [
                            {
                                "children": [],
                                "depth": 1,
                                "id": 1,
                                "order": 1
                            },
                            {
                                "children": [],
                                "depth": 1,
                                "id": 2,
                                "order": 2
                            }
                        ],
                        "depth": 0,
                        "id": 0,
                        "order": 0
                    }
                ],
                "depth": -1,
                "id": -1,
                "order": -1
            }
        ],
        "tidyTraceNodeCount": 3
    },
    "state_change": {
        "stateChanges": [
            {
                "address": "0xbc4ca0eda7647a8ab7c2061c2e118a18a936f13d",
                "erc": "ERC-721",
                "slots": [
                    {
                        "current": "0x0000000000000000000000000000000000000000000000000000000000000000",
                        "key": "0x91f7b602c08df6642cd98a144d285c8f3abc857f85ff5a1429acd0cdfa52f4c9",
                        "prev": "0x0000000000000000000000000000000000000000000000000000000000000002"
                    },
                    {
                        "current": "0x0000000000000000000000000000000000000000000000000000000000000001",
                        "key": "0x2496b1411b20d3c71f10dbe516a7a21ea76323cd1790e1ccead349523dfb5ca6",
                        "prev": "0x0000000000000000000000000000000000000000000000000000000000000000"
                    },
                    {
                        "current": "0x0000000000000000000000000000000000000000000000000000000000000803",
                        "key": "0x5a50610e985a7d2de5413c80efc62d9f0dc4b64a9e4a0fa9e8384be3a2883c40",
                        "prev": "0x0000000000000000000000000000000000000000000000000000000000000000"
                    },
                    {
                        "current": "0x0000000000000000000000000000000000000000000000000000000000000001",
                        "key": "0xd827e6d89209bd5b97b86c4be054afe4dc403c4fefbf5764a6f8ae8a238230a2",
                        "prev": "0x0000000000000000000000000000000000000000000000000000000000000000"
                    },
                    {
                        "current": "0x0000000000000000000000005e13d49257f9e665c900eebd8d96042507709838",
                        "key": "0x405787fa12a823e0f2b7631cc41b3ba8828b3321ca811111fa75cd3aa3bb6ad5",
                        "prev": "0x000000000000000000000000790aed8f0571d8bdb682a91b42b180ad4a56f264"
                    },
                    {
                        "current": "0x0000000000000000000000000000000000000000000000000000000000000000",
                        "key": "0x10868443deb2f86647a87f8c248c8c83cea532586cc0aaf81d3a52803626f7c0",
                        "prev": "0x0000000000000000000000000000000000000000000000000000000000000803"
                    },
                    {
                        "current": "0x0000000000000000000000000000000000000000000000000000000000000001",
                        "key": "0xdbf19643ada4902442d997a8ee6d5a1862537eb7b0bc66cc3d2c9edd35b3ece7",
                        "prev": "0x0000000000000000000000000000000000000000000000000000000000000002"
                    }
                ],
                "storageVariables": [
                    {
                        "name": "_holderTokens",
                        "type": "mapping(address => struct EnumerableSet.UintSet)",
                        "value": {
                            "pairs": [
                                {
                                    "key": "0x5e13d49257f9e665c900eebd8d96042507709838",
                                    "value": {
                                        "fields": [
                                            {
                                                "name": "_inner",
                                                "type": "struct EnumerableSet.Set",
                                                "value": {
                                                    "fields": [
                                                        {
                                                            "name": "_values",
                                                            "type": "bytes32[]",
                                                            "value": {
                                                                "elemType": "bytes32",
                                                                "elems": [
                                                                    {
                                                                        "index": 0,
                                                                        "value": {
                                                                            "current": "0x0000000000000000000000000000000000000000000000000000000000000803",
                                                                            "prev": "0x0000000000000000000000000000000000000000000000000000000000000000",
                                                                            "typeTag": 1
                                                                        }
                                                                    }
                                                                ],
                                                                "typeTag": 2
                                                            }
                                                        },
                                                        {
                                                            "name": "_indexes",
                                                            "type": "mapping(bytes32 => uint256)",
                                                            "value": {
                                                                "pairs": [
                                                                    {
                                                                        "key": "0x0000000000000000000000000000000000000000000000000000000000000803",
                                                                        "value": {
                                                                            "current": "1",
                                                                            "prev": "0",
                                                                            "typeTag": 1
                                                                        }
                                                                    }
                                                                ],
                                                                "typeTag": 4
                                                            }
                                                        }
                                                    ],
                                                    "typeTag": 3
                                                }
                                            }
                                        ],
                                        "typeTag": 3
                                    }
                                },
                                {
                                    "key": "0x790aed8f0571d8bdb682a91b42b180ad4a56f264",
                                    "value": {
                                        "fields": [
                                            {
                                                "name": "_inner",
                                                "type": "struct EnumerableSet.Set",
                                                "value": {
                                                    "fields": [
                                                        {
                                                            "name": "_indexes",
                                                            "type": "mapping(bytes32 => uint256)",
                                                            "value": {
                                                                "pairs": [
                                                                    {
                                                                        "key": "0x0000000000000000000000000000000000000000000000000000000000000803",
                                                                        "value": {
                                                                            "current": "0",
                                                                            "prev": "2",
                                                                            "typeTag": 1
                                                                        }
                                                                    }
                                                                ],
                                                                "typeTag": 4
                                                            }
                                                        }
                                                    ],
                                                    "typeTag": 3
                                                }
                                            }
                                        ],
                                        "typeTag": 3
                                    }
                                }
                            ],
                            "typeTag": 4
                        }
                    },
                    {
                        "name": "_tokenOwners",
                        "type": "struct EnumerableMap.UintToAddressMap",
                        "value": {
                            "fields": [
                                {
                                    "name": "_inner",
                                    "type": "struct EnumerableMap.Map",
                                    "value": {
                                        "fields": [
                                            {
                                                "name": "_entries",
                                                "type": "struct EnumerableMap.MapEntry[]",
                                                "value": {
                                                    "elemType": "struct EnumerableMap.MapEntry",
                                                    "elems": [
                                                        {
                                                            "index": 2051,
                                                            "value": {
                                                                "fields": [
                                                                    {
                                                                        "name": "_value",
                                                                        "type": "bytes32",
                                                                        "value": {
                                                                            "current": "0x0000000000000000000000005e13d49257f9e665c900eebd8d96042507709838",
                                                                            "prev": "0x000000000000000000000000790aed8f0571d8bdb682a91b42b180ad4a56f264",
                                                                            "typeTag": 1
                                                                        }
                                                                    }
                                                                ],
                                                                "typeTag": 3
                                                            }
                                                        }
                                                    ],
                                                    "typeTag": 2
                                                }
                                            }
                                        ],
                                        "typeTag": 3
                                    }
                                }
                            ],
                            "typeTag": 3
                        }
                    }
                ]
            }
        ]
    }
}