{
    "balance_change": {
        "balanceChanges": [
            {
                "account": "0xf541b0f4fe67847cdcd8f75c7799388bebd320ad",
                "assets": [
                    {
                        "address": "0xeeeeeeeeeeeeeeeeeeeeeeeeeeeeeeeeeeeeeeee",
                        "amount": "0.27",
                        "iconUrl": "https://assets.blocksec.com/image/1663669189317-3.png",
                        "isERC1155": false,
                        "isERC721": false,
                        "sign": false,
                        "value": "344.93849999999998773"
                    },
                    {
                        "address": "0xc32cc5b70bee4bd54aa62b9aefb91346d18821c4",
                        "amount": "101.397759906345612215",
                        "iconUrl": "",
                        "isERC1155": false,
                        "isERC721": false,
                        "sign": true,
                        "value": "326.2453073"
                    }
                ]
            },
            {
                "account": "0x24d9f6a1575a1eb774e6d7f4281a4b7af5111b75",
                "assets": [
                    {
                        "address": "0xc02aaa39b223fe8d0a0e5c4f27ead9083c756cc2",
                        "amount": "0.2673",
                        "iconUrl": "https://assets.blocksec.com/icon/f1cb2d02c471d545bbc7722daf3277fd852d98e63d118771af7047bd8256c516.png",
                        "isERC1155": false,
                        "isERC721": false,
                        "sign": true,
                        "value": "341.48911499999998784"
                    },
                    {
                        "address": "0xc32cc5b70bee4bd54aa62b9aefb91346d18821c4",
                        "amount": "102.421979703379406277",
                        "iconUrl": "",
                        "isERC1155": false,
                        "isERC721": false,
                        "sign": false,
                        "value": "321.6469222"
                    }
                ]
            },
            {
                "account": "0x7cf441f0bcd44615365d39daba2db8ec1a86f340",
                "assets": [
                    {
                        "address": "0xeeeeeeeeeeeeeeeeeeeeeeeeeeeeeeeeeeeeeeee",
                        "amount": "0.0027",
                        "iconUrl": "https://assets.blocksec.com/image/1663669189317-3.png",
                        "isERC1155": false,
                        "isERC721": false,
                        "sign": true,
                        "value": "3.4493849999999998772"
                    }
                ]
            },
            {
                "account": "0xc02aaa39b223fe8d0a0e5c4f27ead9083c756cc2",
                "assets": [
                    {
                        "address": "0xeeeeeeeeeeeeeeeeeeeeeeeeeeeeeeeeeeeeeeee",
                        "amount": "0.2673",
                        "iconUrl": "https://assets.blocksec.com/image/1663669189317-3.png",
                        "isERC1155": false,
                        "isERC721": false,
                        "sign": true,
                        "value": "341.48911499999998784"
                    },
                    {
                        "address": "0xc02aaa39b223fe8d0a0e5c4f27ead9083c756cc2",
                        "amount": "0.2673",
                        "iconUrl": "https://assets.blocksec.com/icon/f1cb2d02c471d545bbc7722daf3277fd852d98e63d118771af7047bd8256c516.png",
                        "isERC1155": false,
                        "isERC721": false,
                        "sign": false,
                        "value": "341.48911499999998784"
                    }
                ]
            },
            {
                "account": "0xc32cc5b70bee4bd54aa62b9aefb91346d18821c4",
                "assets": [
                    {
                        "address": "0xc32cc5b70bee4bd54aa62b9aefb91346d18821c4",
                        "amount": "1.024219797033794062",
                        "iconUrl": "",
                        "isERC1155": false,
                        "isERC721": false,
                        "sign": true,
                        "value": "3.17731318"
                    }
                ]
            }
        ]
    },
    "profile": {
        "basic_info": {
            "baseFee": "11.041538477",
            "blockNumber": 16195638,
            "callData": "0x7ff36ab50000000000000000000000000000000000000000000000058bf30e452a8418f30000000000000000000000000000000000000000000000000000000000000080000000000000000000000000f541b0f4fe67847cdcd8f75c7799388bebd320ad00000000000000000000000000000000000000000000000000000000639c1efb0000000000000000000000000000000000000000000000000000000000000002000000000000000000000000c02aaa39b223fe8d0a0e5c4f27ead9083c756cc2000000000000000000000000c32cc5b70bee4bd54aa62b9aefb91346d18821c4",
            "debugEnable": true,
            "errorInfo": "",
            "eventCount": 6,
            "feeRecipient": "0xbaf6dc2e647aeb6f510f9e318856a1bcd66c5e19",
            "formatValue": "0.27",
            "gasLimit": 220390,
            "gasPrice": "13.041538477",
            "gasUsed": 160959,
            "intTxnCount": 8,
            "internalRevert": false,
            "internalRevertMessage": "",
            "isContractCreation": false,
            "isFlashloan": false,
            "maxFee": "23.076404336",
            "nonce": 175,
            "overwritedBlockNumber": -1,
            "priorityFee": "2",
            "receiver": "0x25553828f22bdd19a20e4f12f052903cb474a335",
            "revertMessage": "",
            "sender": "0xf541b0f4fe67847cdcd8f75c7799388bebd320ad",
            "simulationEnable": true,
            "sourceTxnHash": "0x1ba210aa8ce4457a44843ae924642b218c6fff075caafadba290a1811724d651",
            "status": true,
            "timestamp": "2022-12-16T07:02:47Z",
            "transactionFee": "0.002099152991719443",
            "txnHash": "0x1ba210aa8ce4457a44843ae924642b218c6fff075caafadba290a1811724d651",
            "txnIndex": 51,
            "type": 2,
            "value": "270000000000000000"
        },
        "fund_flow": [
            {
                "amount": "0.27",
                "from": "0xf541b0f4fe67847cdcd8f75c7799388bebd320ad",
                "id": 1,
                "isERC1155": false,
                "isERC721": false,
                "isReverted": false,
                "order": 1,
                "to": "0x25553828f22bdd19a20e4f12f052903cb474a335",
                "token": "0xeeeeeeeeeeeeeeeeeeeeeeeeeeeeeeeeeeeeeeee"
            },
            {
                "amount": "0.2673",
                "from": "0x25553828f22bdd19a20e4f12f052903cb474a335",
                "id": 2,
                "isERC1155": false,
                "isERC721": false,
                "isReverted": false,
                "order": 2,
                "to": "0xc02aaa39b223fe8d0a0e5c4f27ead9083c756cc2",
                "token": "0xeeeeeeeeeeeeeeeeeeeeeeeeeeeeeeeeeeeeeeee"
            },
            {
                "amount": "0.2673",
                "from": "0xc02aaa39b223fe8d0a0e5c4f27ead9083c756cc2",
                "id": 3,
                "isERC1155": false,
                "isERC721": false,
                "isReverted": false,
                "order": 3,
                "to": "0x25553828f22bdd19a20e4f12f052903cb474a335",
                "token": "0xc02aaa39b223fe8d0a0e5c4f27ead9083c756cc2"
            },
            {
                "amount": "0.2673",
                "from": "0x25553828f22bdd19a20e4f12f052903cb474a335",
                "id": 4,
                "isERC1155": false,
                "isERC721": false,
                "isReverted": false,
                "order": 4,
                "to": "0x24d9f6a1575a1eb774e6d7f4281a4b7af5111b75",
                "token": "0xc02aaa39b223fe8d0a0e5c4f27ead9083c756cc2"
            },
            {
                "amount": "1.024219797033794062",
                "from": "0x24d9f6a1575a1eb774e6d7f4281a4b7af5111b75",
                "id": 5,
                "isERC1155": false,
                "isERC721": false,
                "isReverted": false,
                "order": 5,
                "to": "0xc32cc5b70bee4bd54aa62b9aefb91346d18821c4",
                "token": "0xc32cc5b70bee4bd54aa62b9aefb91346d18821c4"
            },
            {
                "amount": "101.397759906345612215",
                "from": "0x24d9f6a1575a1eb774e6d7f4281a4b7af5111b75",
                "id": 6,
                "isERC1155": false,
                "isERC721": false,
                "isReverted": false,
                "order": 6,
                "to": "0xf541b0f4fe67847cdcd8f75c7799388bebd320ad",
                "token": "0xc32cc5b70bee4bd54aa62b9aefb91346d18821c4"
            },
            {
                "amount": "0.0027",
                "from": "0x25553828f22bdd19a20e4f12f052903cb474a335",
                "id": 7,
                "isERC1155": false,
                "isERC721": false,
                "isReverted": false,
                "order": 7,
                "to": "0x7cf441f0bcd44615365d39daba2db8ec1a86f340",
                "token": "0xeeeeeeeeeeeeeeeeeeeeeeeeeeeeeeeeeeeeeeee"
            }
        ],
        "token_infos": [
            {
                "address": "0xc02aaa39b223fe8d0a0e5c4f27ead9083c756cc2",
                "decimals": 18
            },
            {
                "address": "0xc32cc5b70bee4bd54aa62b9aefb91346d18821c4",
                "decimals": 18
            },
            {
                "address": "0xeeeeeeeeeeeeeeeeeeeeeeeeeeeeeeeeeeeeeeee",
                "decimals": 18
            }
        ]
    },
    "address_label": {
        "labels": [
            {
                "address": "0xc02aaa39b223fe8d0a0e5c4f27ead9083c756cc2",
                "label": "Wrapped Ether (WETH)"
            },
            {
                "address": "0x24d9f6a1575a1eb774e6d7f4281a4b7af5111b75",
                "label": "Uniswap V2: ITS 2"
            },
            {
                "address": "0xc32cc5b70bee4bd54aa62b9aefb91346d18821c4",
                "label": "IterationSyndicate: ITS Token"
            },
            {
                "address": "0x0000000000000000000000000000000000000001",
                "label": "Precompiled"
            },
            {
                "address": "0x0000000000000000000000000000000000000002",
                "label": "Precompiled"
            },
            {
                "address": "0x0000000000000000000000000000000000000003",
                "label": "Precompiled"
            },
            {
                "address": "0x0000000000000000000000000000000000000004",
                "label": "Precompiled"
            },
            {
                "address": "0xeeeeeeeeeeeeeeeeeeeeeeeeeeeeeeeeeeeeeeee",
                "label": "Ether"
            }
        ]
    },
    "trace": {
        "accountLabels": null,
        "dataMap": {
            "-1": {
                "invocation": {
                    "address": "0xf541b0f4fe67847cdcd8f75c7799388bebd320ad",
                    "callData": "",
                    "decodedMethod": null,
                    "errorInfo": "",
                    "fromAddress": "",
                    "gasUsed": 0,
                    "id": -1,
                    "methodDecoded": false,
                    "operation": "",
                    "output": "",
                    "revert": false,
                    "revertMessage": "",
                    "selector": "",
                    "status": false,
                    "value": ""
                },
                "nodeType": 0
            },
            "0": {
                "invocation": {
                    "address": "0x25553828f22bdd19a20e4f12f052903cb474a335",
                    "callData": "0x0000000000000000000000000000000000000000000000058bf30e452a8418f30000000000000000000000000000000000000000000000000000000000000080000000000000000000000000f541b0f4fe67847cdcd8f75c7799388bebd320ad00000000000000000000000000000000000000000000000000000000639c1efb0000000000000000000000000000000000000000000000000000000000000002000000000000000000000000c02aaa39b223fe8d0a0e5c4f27ead9083c756cc2000000000000000000000000c32cc5b70bee4bd54aa62b9aefb91346d18821c4",
                    "decodedMethod": {
                        "callParams": [
                            {
                                "name": "amountOutMin",
                                "type": "uint256",
                                "value": "102,318,140,049,389,263,091"
                            },
                            {
                                "name": "path",
                                "type": "address[]",
                                "value": [
                                    "0xc02aaa39b223fe8d0a0e5c4f27ead9083c756cc2",
                                    "0xc32cc5b70bee4bd54aa62b9aefb91346d18821c4"
                                ]
                            },
                            {
                                "name": "to",
                                "type": "address",
                                "value": "0xf541b0f4fe67847cdcd8f75c7799388bebd320ad"
                            },
                            {
                                "name": "deadline",
                                "type": "uint256",
                                "value": "1,671,175,931"
                            }
                        ],
                        "constructorArguments": "",
                        "name": "swapExactETHForTokens",
                        "returnParams": [
                            {
                                "name": "amounts",
                                "type": "uint256[]",
                                "value": [
                                    "267,300,000,000,000,000",
                                    "102,421,979,703,379,406,277"
                                ]
                            }
                        ],
                        "signature": "swapExactETHForTokens(uint256,address[],address,uint256)"
                    },
                    "errorInfo": "",
                    "fromAddress": "0xf541b0f4fe67847cdcd8f75c7799388bebd320ad",
                    "gasUsed": 160959,
                    "id": 0,
                    "methodDecoded": true,
                    "operation": "CALL",
                    "output": "0x0000000000000000000000000000000000000000000000000000000000000020000000000000000000000000000000000000000000000000000000000000000200000000000000000000000000000000000000000000000003b5a3ef0c7640000000000000000000000000000000000000000000000000058d63f7e2a432adc5",
                    "revert": false,
                    "revertMessage": "",
                    "selector": "0x7ff36ab5",
                    "status": true,
                    "value": "0.27"
                },
                "nodeType": 0
            },
            "1": {
                "invocation": {
                    "address": "0x24d9f6a1575a1eb774e6d7f4281a4b7af5111b75",
                    "callData": "0x",
                    "decodedMethod": {
                        "callParams": [],
                        "constructorArguments": "",
                        "name": "getReserves",
                        "returnParams": [
                            {
                                "name": "_reserve0",
                                "type": "uint112",
                                "value": "21,310,235,153,851,976,012"
                            },
                            {
                                "name": "_reserve1",
                                "type": "uint112",
                                "value": "8,292,485,895,363,826,540,278"
                            },
                            {
                                "name": "_blockTimestampLast",
                                "type": "uint32",
                                "value": "1,671,054,251"
                            }
                        ],
                        "signature": "getReserves()"
                    },
                    "errorInfo": "",
                    "fromAddress": "0x25553828f22bdd19a20e4f12f052903cb474a335",
                    "gasUsed": 2504,
                    "id": 1,
                    "methodDecoded": true,
                    "operation": "STATICCALL",
                    "output": "0x00000000000000000000000000000000000000000000000127bd29f74963894c0000000000000000000000000000000000000000000001c1895c125c31f3def600000000000000000000000000000000000000000000000000000000639a43ab",
                    "revert": false,
                    "revertMessage": "",
                    "selector": "0x0902f1ac",
                    "status": true,
                    "value": "0"
                },
                "nodeType": 0
            },
            "10": {
                "invocation": {
                    "address": "0xc02aaa39b223fe8d0a0e5c4f27ead9083c756cc2",
                    "callData": "0x00000000000000000000000024d9f6a1575a1eb774e6d7f4281a4b7af5111b75",
                    "decodedMethod": {
                        "callParams": [
                            {
                                "name": "",
                                "type": "address",
                                "value": "0x24d9f6a1575a1eb774e6d7f4281a4b7af5111b75"
                            }
                        ],
                        "constructorArguments": "",
                        "name": "balanceOf",
                        "returnParams": [
                            {
                                "decimalAvailable": true,
                                "name": "",
                                "type": "uint256",
                                "value": "21,577,535,153,851,976,012"
                            }
                        ],
                        "signature": "balanceOf(address)"
                    },
                    "errorInfo": "",
                    "fromAddress": "0x24d9f6a1575a1eb774e6d7f4281a4b7af5111b75",
                    "gasUsed": 534,
                    "id": 10,
                    "methodDecoded": true,
                    "operation": "STATICCALL",
                    "output": "0x0000000000000000000000000000000000000000000000012b72cde655d9c94c",
                    "revert": false,
                    "revertMessage": "",
                    "selector": "0x70a08231",
                    "status": true,
                    "value": "0"
                },
                "nodeType": 0
            },
            "11": {
                "invocation": {
                    "address": "0xc32cc5b70bee4bd54aa62b9aefb91346d18821c4",
                    "callData": "0x00000000000000000000000024d9f6a1575a1eb774e6d7f4281a4b7af5111b75",
                    "decodedMethod": {
                        "callParams": [
                            {
                                "name": "account",
                                "type": "address",
                                "value": "0x24d9f6a1575a1eb774e6d7f4281a4b7af5111b75"
                            }
                        ],
                        "constructorArguments": "",
                        "name": "balanceOf",
                        "returnParams": [
                            {
                                "decimalAvailable": true,
                                "name": "",
                                "type": "uint256",
                                "value": "8,190,063,915,660,447,134,001"
                            }
                        ],
                        "signature": "balanceOf(address)"
                    },
                    "errorInfo": "",
                    "fromAddress": "0x24d9f6a1575a1eb774e6d7f4281a4b7af5111b75",
                    "gasUsed": 512,
                    "id": 11,
                    "methodDecoded": true,
                    "operation": "STATICCALL",
                    "output": "0x0000000000000000000000000000000000000000000001bbfbf81a798dc13131",
                    "revert": false,
                    "revertMessage": "",
                    "selector": "0x70a08231",
                    "status": true,
                    "value": "0"
                },
                "nodeType": 0
            },
            "12": {
                "event": {
                    "contract": "0x24d9f6a1575a1eb774e6d7f4281a4b7af5111b75",
                    "decodedLog": {
                        "name": "Sync",
                        "params": [
                            {
                                "name": "reserve0",
                                "type": "uint112",
                                "value": "21,577,535,153,851,976,012"
                            },
                            {
                                "name": "reserve1",
                                "type": "uint112",
                                "value": "8,190,063,915,660,447,134,001"
                            }
                        ],
                        "signature": "Sync(uint112,uint112)"
                    },
                    "id": 12,
                    "logData": "0x0000000000000000000000000000000000000000000000012b72cde655d9c94c0000000000000000000000000000000000000000000001bbfbf81a798dc13131",
                    "logDecoded": true,
                    "operation": "EVENT",
                    "revert": false,
                    "status": true,
                    "topics": [
                        "0x1c411e9a96e071241c2f21f7726b17ae89e3cab4c78be50e062b03a9fffbbad1"
                    ]
                },
                "nodeType": 1
            },
            "13": {
                "event": {
                    "contract": "0x24d9f6a1575a1eb774e6d7f4281a4b7af5111b75",
                    "decodedLog": {
                        "name": "Swap",
                        "params": [
                            {
                                "name": "sender",
                                "type": "address",
                                "value": "0x25553828f22bdd19a20e4f12f052903cb474a335"
                            },
                            {
                                "name": "to",
                                "type": "address",
                                "value": "0xf541b0f4fe67847cdcd8f75c7799388bebd320ad"
                            },
                            {
                                "name": "amount0In",
                                "type": "uint256",
                                "value": "267,300,000,000,000,000"
                            },
                            {
                                "name": "amount1In",
                                "type": "uint256",
                                "value": "0"
                            },
                            {
                                "name": "amount0Out",
                                "type": "uint256",
                                "value": "0"
                            },
                            {
                                "name": "amount1Out",
                                "type": "uint256",
                                "value": "102,421,979,703,379,406,277"
                            }
                        ],
                        "signature": "Swap(address,uint256,uint256,uint256,uint256,address)"
                    },
                    "id": 13,
                    "logData": "0x00000000000000000000000000000000000000000000000003b5a3ef0c764000000000000000000000000000000000000000000000000000000000000000000000000000000000000000000000000000000000000000000000000000000000000000000000000000000000000000000000000000000000058d63f7e2a432adc5",
                    "logDecoded": true,
                    "operation": "EVENT",
                    "revert": false,
                    "status": true,
                    "topics": [
                        "0xd78ad95fa46c994b6551d0da85fc275fe613ce37657fb8d5e3d130840159d822",
                        "0x00000000000000000000000025553828f22bdd19a20e4f12f052903cb474a335",
                        "0x000000000000000000000000f541b0f4fe67847cdcd8f75c7799388bebd320ad"
                    ]
                },
                "nodeType": 1
            },
            "14": {
                "invocation": {
                    "address": "0x7cf441f0bcd44615365d39daba2db8ec1a86f340",
                    "callData": "0x",
                    "decodedMethod": null,
                    "errorInfo": "",
                    "fromAddress": "0x25553828f22bdd19a20e4f12f052903cb474a335",
                    "gasUsed": 0,
                    "id": 14,
                    "methodDecoded": false,
                    "operation": "CALL",
                    "output": "",
                    "revert": false,
                    "revertMessage": "",
                    "selector": "fallback",
                    "status": true,
                    "value": "0.0027"
                },
                "nodeType": 0
            },
            "2": {
                "invocation": {
                    "address": "0xc02aaa39b223fe8d0a0e5c4f27ead9083c756cc2",
                    "callData": "0x",
                    "decodedMethod": {
                        "callParams": [],
                        "constructorArguments": "",
                        "name": "deposit",
                        "returnParams": [],
                        "signature": "deposit()"
                    },
                    "errorInfo": "",
                    "fromAddress": "0x25553828f22bdd19a20e4f12f052903cb474a335",
                    "gasUsed": 23974,
                    "id": 2,
                    "methodDecoded": true,
                    "operation": "CALL",
                    "output": "",
                    "revert": false,
                    "revertMessage": "",
                    "selector": "0xd0e30db0",
                    "status": true,
                    "value": "0.2673"
                },
                "nodeType": 0
            },
            "3": {
                "event": {
                    "contract": "0xc02aaa39b223fe8d0a0e5c4f27ead9083c756cc2",
                    "decodedLog": {
                        "name": "Deposit",
                        "params": [
                            {
                                "name": "dst",
                                "type": "address",
                                "value": "0x25553828f22bdd19a20e4f12f052903cb474a335"
                            },
                            {
                                "name": "wad",
                                "type": "uint256",
                                "value": "267,300,000,000,000,000"
                            }
                        ],
                        "signature": "Deposit(address,uint256)"
                    },
                    "id": 3,
                    "logData": "0x00000000000000000000000000000000000000000000000003b5a3ef0c764000",
                    "logDecoded": true,
                    "operation": "EVENT",
                    "revert": false,
                    "status": true,
                    "topics": [
                        "0xe1fffcc4923d04b559f4d29a8bfc6cda04eb5b0d3c460751c2402c5c5cc9109c",
                        "0x00000000000000000000000025553828f22bdd19a20e4f12f052903cb474a335"
                    ]
                },
                "nodeType": 1
            },
            "4": {
                "invocation": {
                    "address": "0xc02aaa39b223fe8d0a0e5c4f27ead9083c756cc2",
                    "callData": "0x00000000000000000000000024d9f6a1575a1eb774e6d7f4281a4b7af5111b7500000000000000000000000000000000000000000000000003b5a3ef0c764000",
                    "decodedMethod": {
                        "callParams": [
                            {
                                "name": "dst",
                                "type": "address",
                                "value": "0x24d9f6a1575a1eb774e6d7f4281a4b7af5111b75"
                            },
                            {
                                "decimalAvailable": true,
                                "name": "wad",
                                "type": "uint256",
                                "value": "267,300,000,000,000,000"
                            }
                        ],
                        "constructorArguments": "",
                        "name": "transfer",
                        "returnParams": [
                            {
                                "name": "",
                                "type": "bool",
                                "value": true
                            }
                        ],
                        "signature": "transfer(address,uint256)"
                    },
                    "errorInfo": "",
                    "fromAddress": "0x25553828f22bdd19a20e4f12f052903cb474a335",
                    "gasUsed": 8062,
                    "id": 4,
                    "methodDecoded": true,
                    "operation": "CALL",
                    "output": "0x0000000000000000000000000000000000000000000000000000000000000001",
                    "revert": false,
                    "revertMessage": "",
                    "selector": "0xa9059cbb",
                    "status": true,
                    "value": "0"
                },
                "nodeType": 0
            },
            "5": {
                "event": {
                    "contract": "0xc02aaa39b223fe8d0a0e5c4f27ead9083c756cc2",
                    "decodedLog": {
                        "name": "Transfer",
                        "params": [
                            {
                                "name": "src",
                                "type": "address",
                                "value": "0x25553828f22bdd19a20e4f12f052903cb474a335"
                            },
                            {
                                "name": "dst",
                                "type": "address",
                                "value": "0x24d9f6a1575a1eb774e6d7f4281a4b7af5111b75"
                            },
                            {
                                "decimalAvailable": true,
                                "name": "wad",
                                "type": "uint256",
                                "value": "267,300,000,000,000,000"
                            }
                        ],
                        "signature": "Transfer(address,address,uint256)"
                    },
                    "id": 5,
                    "logData": "0x00000000000000000000000000000000000000000000000003b5a3ef0c764000",
                    "logDecoded": true,
                    "operation": "EVENT",
                    "revert": false,
                    "status": true,
                    "topics": [
                        "0xddf252ad1be2c89b69c2b068fc378daa952ba7f163c4a11628f55a4df523b3ef",
                        "0x00000000000000000000000025553828f22bdd19a20e4f12f052903cb474a335",
                        "0x00000000000000000000000024d9f6a1575a1eb774e6d7f4281a4b7af5111b75"
                    ]
                },
                "nodeType": 1
            },
            "6": {
                "invocation": {
                    "address": "0x24d9f6a1575a1eb774e6d7f4281a4b7af5111b75",
                    "callData": "0x00000000000000000000000000000000000000000000000000000000000000000000000000000000000000000000000000000000000000058d63f7e2a432adc5000000000000000000000000f541b0f4fe67847cdcd8f75c7799388bebd320ad00000000000000000000000000000000000000000000000000000000000000800000000000000000000000000000000000000000000000000000000000000000",
                    "decodedMethod": {
                        "callParams": [
                            {
                                "name": "amount0Out",
                                "type": "uint256",
                                "value": "0"
                            },
                            {
                                "name": "amount1Out",
                                "type": "uint256",
                                "value": "102,421,979,703,379,406,277"
                            },
                            {
                                "name": "to",
                                "type": "address",
                                "value": "0xf541b0f4fe67847cdcd8f75c7799388bebd320ad"
                            },
                            {
                                "name": "data",
                                "type": "bytes",
                                "value": "0x"
                            }
                        ],
                        "constructorArguments": "",
                        "name": "swap",
                        "returnParams": [],
                        "signature": "swap(uint256,uint256,address,bytes)"
                    },
                    "errorInfo": "",
                    "fromAddress": "0x25553828f22bdd19a20e4f12f052903cb474a335",
                    "gasUsed": 89023,
                    "id": 6,
                    "methodDecoded": true,
                    "operation": "CALL",
                    "output": "",
                    "revert": false,
                    "revertMessage": "",
                    "selector": "0x022c0d9f",
                    "status": true,
                    "value": "0"
                },
                "nodeType": 0
            },
            "7": {
                "invocation": {
                    "address": "0xc32cc5b70bee4bd54aa62b9aefb91346d18821c4",
                    "callData": "0x000000000000000000000000f541b0f4fe67847cdcd8f75c7799388bebd320ad0000000000000000000000000000000000000000000000058d63f7e2a432adc5",
                    "decodedMethod": {
                        "callParams": [
                            {
                                "name": "recipient",
                                "type": "address",
                                "value": "0xf541b0f4fe67847cdcd8f75c7799388bebd320ad"
                            },
                            {
                                "decimalAvailable": true,
                                "name": "amount",
                                "type": "uint256",
                                "value": "102,421,979,703,379,406,277"
                            }
                        ],
                        "constructorArguments": "",
                        "name": "transfer",
                        "returnParams": [
                            {
                                "name": "",
                                "type": "bool",
                                "value": true
                            }
                        ],
                        "signature": "transfer(address,uint256)"
                    },
                    "errorInfo": "",
                    "fromAddress": "0x24d9f6a1575a1eb774e6d7f4281a4b7af5111b75",
                    "gasUsed": 54154,
                    "id": 7,
                    "methodDecoded": true,
                    "operation": "CALL",
                    "output": "0x0000000000000000000000000000000000000000000000000000000000000001",
                    "revert": false,
                    "revertMessage": "",
                    "selector": "0xa9059cbb",
                    "status": true,
                    "value": "0"
                },
                "nodeType": 0
            },
            "8": {
                "event": {
                    "contract": "0xc32cc5b70bee4bd54aa62b9aefb91346d18821c4",
                    "decodedLog": {
                        "name": "Transfer",
                        "params": [
                            {
                                "name": "from",
                                "type": "address",
                                "value": "0x24d9f6a1575a1eb774e6d7f4281a4b7af5111b75"
                            },
                            {
                                "name": "to",
                                "type": "address",
                                "value": "0xc32cc5b70bee4bd54aa62b9aefb91346d18821c4"
                            },
                            {
                                "decimalAvailable": true,
                                "name": "value",
                                "type": "uint256",
                                "value": "1,024,219,797,033,794,062"
                            }
                        ],
                        "signature": "Transfer(address,address,uint256)"
                    },
                    "id": 8,
                    "logData": "0x0000000000000000000000000000000000000000000000000e36c27a961f3a0e",
                    "logDecoded": true,
                    "operation": "EVENT",
                    "revert": false,
                    "status": true,
                    "topics": [
                        "0xddf252ad1be2c89b69c2b068fc378daa952ba7f163c4a11628f55a4df523b3ef",
                        "0x00000000000000000000000024d9f6a1575a1eb774e6d7f4281a4b7af5111b75",
                        "0x000000000000000000000000c32cc5b70bee4bd54aa62b9aefb91346d18821c4"
                    ]
                },
                "nodeType": 1
            },
            "9": {
                "event": {
                    "contract": "0xc32cc5b70bee4bd54aa62b9aefb91346d18821c4",
                    "decodedLog": {
                        "name": "Transfer",
                        "params": [
                            {
                                "name": "from",
                                "type": "address",
                                "value": "0x24d9f6a1575a1eb774e6d7f4281a4b7af5111b75"
                            },
                            {
                                "name": "to",
                                "type": "address",
                                "value": "0xf541b0f4fe67847cdcd8f75c7799388bebd320ad"
                            },
                            {
                                "decimalAvailable": true,
                                "name": "value",
                                "type": "uint256",
                                "value": "101,397,759,906,345,612,215"
                            }
                        ],
                        "signature": "Transfer(address,address,uint256)"
                    },
                    "id": 9,
                    "logData": "0x0000000000000000000000000000000000000000000000057f2d35680e1373b7",
                    "logDecoded": true,
                    "operation": "EVENT",
                    "revert": false,
                    "status": true,
                    "topics": [
                        "0xddf252ad1be2c89b69c2b068fc378daa952ba7f163c4a11628f55a4df523b3ef",
                        "0x00000000000000000000000024d9f6a1575a1eb774e6d7f4281a4b7af5111b75",
                        "0x000000000000000000000000f541b0f4fe67847cdcd8f75c7799388bebd320ad"
                    ]
                },
                "nodeType": 1
            }
        },
        "gasFlame": [
            {
                "children": [
                    {
                        "children": [
                            {
                                "children": [],
                                "depth": 0,
                                "name": "Initial Gas",
                                "value": 22860
                            },
                            {
                                "children": [
                                    {
                                        "children": [],
                                        "depth": 1,
                                        "name": "getReserves",
                                        "value": 2504
                                    },
                                    {
                                        "children": [],
                                        "depth": 1,
                                        "name": "deposit",
                                        "value": 23974
                                    },
                                    {
                                        "children": [],
                                        "depth": 1,
                                        "name": "transfer",
                                        "value": 8062
                                    },
                                    {
                                        "children": [
                                            {
                                                "children": [],
                                                "depth": 2,
                                                "name": "transfer",
                                                "value": 54154
                                            },
                                            {
                                                "children": [],
                                                "depth": 2,
                                                "name": "balanceOf",
                                                "value": 534
                                            },
                                            {
                                                "children": [],
                                                "depth": 2,
                                                "name": "balanceOf",
                                                "value": 512
                                            }
                                        ],
                                        "depth": 1,
                                        "name": "swap",
                                        "value": 89023
                                    },
                                    {
                                        "children": [],
                                        "depth": 1,
                                        "name": "fallback",
                                        "value": 0
                                    }
                                ],
                                "depth": 0,
                                "name": "Executed Gas",
                                "value": 160799
                            }
                        ],
                        "depth": -1,
                        "name": "Actual Gas Used",
                        "value": 160959
                    },
                    {
                        "children": [],
                        "depth": -1,
                        "name": "Refunded Gas",
                        "value": 22700
                    }
                ],
                "depth": -2,
                "name": "Total Gas",
                "value": 183659
            }
        ],
        "isConfirmed": true,
        "mainTrace": [
            {
                "children": [
                    {
                        "children": [
                            {
                                "children": [],
                                "depth": 1,
                                "id": 1,
                                "order": 1
                            },
                            {
                                "children": [
                                    {
                                        "children": [],
                                        "depth": 2,
                                        "id": 3,
                                        "order": 3
                                    }
                                ],
                                "depth": 1,
                                "id": 2,
                                "order": 2
                            },
                            {
                                "children": [
                                    {
                                        "children": [],
                                        "depth": 2,
                                        "id": 5,
                                        "order": 5
                                    }
                                ],
                                "depth": 1,
                                "id": 4,
                                "order": 4
                            },
                            {
                                "children": [
                                    {
                                        "children": [
                                            {
                                                "children": [],
                                                "depth": 3,
                                                "id": 8,
                                                "order": 8
                                            },
                                            {
                                                "children": [],
                                                "depth": 3,
                                                "id": 9,
                                                "order": 9
                                            }
                                        ],
                                        "depth": 2,
                                        "id": 7,
                                        "order": 7
                                    },
                                    {
                                        "children": [],
                                        "depth": 2,
                                        "id": 10,
                                        "order": 10
                                    },
                                    {
                                        "children": [],
                                        "depth": 2,
                                        "id": 11,
                                        "order": 11
                                    },
                                    {
                                        "children": [],
                                        "depth": 2,
                                        "id": 12,
                                        "order": 12
                                    },
                                    {
                                        "children": [],
                                        "depth": 2,
                                        "id": 13,
                                        "order": 13
                                    }
                                ],
                                "depth": 1,
                                "id": 6,
                                "order": 6
                            },
                            {
                                "children": [],
                                "depth": 1,
                                "id": 14,
                                "order": 14
                            }
                        ],
                        "depth": 0,
                        "id": 0,
                        "order": 0
                    }
                ],
                "depth": -1,
                "id": -1,
                "order": -1
            }
        ],
        "mainTraceNodeCount": 15,
        "parentIdMap": {
            "0": -1,
            "1": 0,
            "10": 6,
            "11": 6,
            "12": 6,
            "13": 6,
            "14": 0,
            "2": 0,
            "3": 2,
            "4": 0,
            "5": 4,
            "6": 0,
            "7": 6,
            "8": 7,
            "9": 7
        },
        "tidyTrace": [
            {
                "children": [
                    {
                        "children": [
                            {
                                "children": [
                                    {
                                        "children": [],
                                        "depth": 2,
                                        "id": 3,
                                        "order": 3
                                    }
                                ],
                                "depth": 1,
                                "id": 2,
                                "order": 2
                            },
                            {
                                "children": [
                                    {
                                        "children": [],
                                        "depth": 2,
                                        "id": 5,
                                        "order": 5
                                    }
                                ],
                                "depth": 1,
                                "id": 4,
                                "order": 4
                            },
                            {
                                "children": [
                                    {
                                        "children": [
                                            {
                                                "children": [],
                                                "depth": 3,
                                                "id": 8,
                                                "order": 8
                                            },
                                            {
                                                "children": [],
                                                "depth": 3,
                                                "id": 9,
                                                "order": 9
                                            }
                                        ],
                                        "depth": 2,
                                        "id": 7,
                                        "order": 7
                                    },
                                    {
                                        "children": [],
                                        "depth": 2,
                                        "id": 12,
                                        "order": 12
                                    },
                                    {
                                        "children": [],
                                        "depth": 2,
                                        "id": 13,
                                        "order": 13
                                    }
                                ],
                                "depth": 1,
                                "id": 6,
                                "order": 6
                            },
                            {
                                "children": [],
                                "depth": 1,
                                "id": 14,
                                "order": 14
                            }
                        ],
                        "depth": 0,
                        "id": 0,
                        "order": 0
                    }
                ],
                "depth": -1,
                "id": -1,
                "order": -1
            }
        ],
        "tidyTraceNodeCount": 12
    },
    "state_change": {
        "stateChanges": [
            {
                "address": "0x24d9f6a1575a1eb774e6d7f4281a4b7af5111b75",
                "erc": "ERC-20",
                "slots": [
                    {
                        "current": "0x0000000000000000000000000002011604f6ae25ab98a2642669ca0d83cd98cd",
                        "key": "0x0000000000000000000000000000000000000000000000000000000000000009",
                        "prev": "0x0000000000000000000000000001fe4dff35c55666c9143f97fab3b58769b7b5"
                    },
                    {
                        "current": "0x000000000000000000000000000000100917b7b92a3c45c2d3271dd2c85242d7",
                        "key": "0x000000000000000000000000000000000000000000000000000000000000000a",
                        "prev": "0x0000000000000000000000000000001007e38df8415d8e8a9538ec9165490773"
                    },
                    {
                        "current": "0x639c18170000000001bbfbf81a798dc131310000000000012b72cde655d9c94c",
                        "key": "0x0000000000000000000000000000000000000000000000000000000000000008",
                        "prev": "0x639a43ab0000000001c1895c125c31f3def600000000000127bd29f74963894c"
                    }
                ],
                "storageVariables": [
                    {
                        "name": "reserve0",
                        "type": "uint112",
                        "value": {
                            "current": "21577535153851976012",
                            "prev": "21310235153851976012",
                            "typeTag": 1
                        }
                    },
                    {
                        "name": "reserve1",
                        "type": "uint112",
                        "value": {
                            "current": "8190063915660447134001",
                            "prev": "8292485895363826540278",
                            "typeTag": 1
                        }
                    },
                    {
                        "name": "blockTimestampLast",
                        "type": "uint32",
                        "value": {
                            "current": "1671174167",
                            "prev": "1671054251",
                            "typeTag": 1
                        }
                    },
                    {
                        "name": "price0CumulativeLast",
                        "type": "uint256",
                        "value": {
                            "current": "44696095492814401334654036198179120897431757",
                            "prev": "44453806799783776831814641126065780856305589",
                            "typeTag": 1
                        }
                    },
                    {
                        "name": "price1CumulativeLast",
                        "type": "uint256",
                        "value": {
                            "current": "5456604071876064728099018422618334315223",
                            "prev": "5455003997580965279691137734619775436659",
                            "typeTag": 1
                        }
                    }
                ]
            },
            {
                "address": "0x25553828f22bdd19a20e4f12f052903cb474a335",
                "erc": "",
                "slots": [
                    {
                        "current": "0x00000000000000000000000000000000000000000000071417ca9fb023564396",
                        "key": "0x0000000000000000000000000000000000000000000000000000000000000001",
                        "prev": "0x0000000000000000000000000000000000000000000007141414fbc116e00396"
                    }
                ],
                "storageVariables": []
            },
            {
                "address": "0xc02aaa39b223fe8d0a0e5c4f27ead9083c756cc2",
                "erc": "ERC-20",
                "slots": [
                    {
                        "current": "0x0000000000000000000000000000000000000000000000012b72cde655d9c94c",
                        "key": "0x7642aa2351adf2c6973aaa0275722b54df214c34b08b257529aa1026e67411e3",
                        "prev": "0x00000000000000000000000000000000000000000000000127bd29f74963894c"
                    }
                ],
                "storageVariables": [
                    {
                        "name": "balanceOf",
                        "type": "mapping(address => uint256)",
                        "value": {
                            "pairs": [
                                {
                                    "key": "0x24d9f6a1575a1eb774e6d7f4281a4b7af5111b75",
                                    "value": {
                                        "current": "21577535153851976012",
                                        "prev": "21310235153851976012",
                                        "typeTag": 1
                                    }
                                }
                            ],
                            "typeTag": 4
                        }
                    }
                ]
            },
            {
                "address": "0xc32cc5b70bee4bd54aa62b9aefb91346d18821c4",
                "erc": "ERC-20",
                "slots": [
                    {
                        "current": "0x0000000000000000000000000000000000000000000001bbfbf81a798dc13131",
                        "key": "0x1286f79080bfcad099b3fe49e739c0c6d30036c7759d51aebb1e00d8a1039712",
                        "prev": "0x0000000000000000000000000000000000000000000001c1895c125c31f3def6"
                    },
                    {
                        "current": "0x000000000000000000000000000000000000000000000006a18ac24ad1b0e3ff",
                        "key": "0xbed8e0cf4603924d956542e373e61315c1974d8d572c89a3c7d45a070c991101",
                        "prev": "0x0000000000000000000000000000000000000000000000069353ffd03b91a9f1"
                    },
                    {
                        "current": "0x0000000000000000000000000000000000000000000000057f2d35680e1373b7",
                        "key": "0x20cc018576588a801a0ed8d6dfd126eb775c3c1574b0c3078224ab9c921e2300",
                        "prev": "0x0000000000000000000000000000000000000000000000000000000000000000"
                    }
                ],
                "storageVariables": [
                    {
                        "name": "_balances",
                        "type": "mapping(address => uint256)",
                        "value": {
                            "pairs": [
                                {
                                    "key": "0x24d9f6a1575a1eb774e6d7f4281a4b7af5111b75",
                                    "value": {
                                        "current": "8190063915660447134001",
                                        "prev": "8292485895363826540278",
                                        "typeTag": 1
                                    }
                                },
                                {
                                    "key": "0xc32cc5b70bee4bd54aa62b9aefb91346d18821c4",
                                    "value": {
                                        "current": "122320794255751177215",
                                        "prev": "121296574458717383153",
                                        "typeTag": 1
                                    }
                                },
                                {
                                    "key": "0xf541b0f4fe67847cdcd8f75c7799388bebd320ad",
                                    "value": {
                                        "current": "101397759906345612215",
                                        "prev": "0",
                                        "typeTag": 1
                                    }
                                }
                            ],
                            "typeTag": 4
                        }
                    }
                ]
            }
        ]
    }
}