{
    "balance_change": {
        "balanceChanges": [
            {
                "account": "0x9023be7a9627741b77f7961bf59ff6cfb95db042",
                "assets": [
                    {
                        "address": "0xab95e915c123fded5bdfb6325e35ef5515f1ea69",
                        "amount": "1,500",
                        "iconUrl": "https://assets.blocksec.com/icon/d0327f0c30591d45d4db47962c4c751d79b3f590f8749e801ebecd81eed69678.png",
                        "isERC1155": false,
                        "isERC721": false,
                        "sign": false,
                        "value": ""
                    }
                ]
            },
            {
                "account": "0xe03c23519e18d64f144d2800e30e81b0065c48b5",
                "assets": [
                    {
                        "address": "0xab95e915c123fded5bdfb6325e35ef5515f1ea69",
                        "amount": "1,500",
                        "iconUrl": "https://assets.blocksec.com/icon/d0327f0c30591d45d4db47962c4c751d79b3f590f8749e801ebecd81eed69678.png",
                        "isERC1155": false,
                        "isERC721": false,
                        "sign": true,
                        "value": ""
                    }
                ]
            }
        ]
    },
    "profile": {
        "basic_info": {
            "baseFee": "",
            "blockNumber": 4495344,
            "callData": "0xc8fea2fb000000000000000000000000e03c23519e18d64f144d2800e30e81b0065c48b5000000000000000000000000ab95e915c123fded5bdfb6325e35ef5515f1ea6900000000000000000000000000000000000000000000005150ae84a8cdf00000",
            "debugEnable": true,
            "errorInfo": "",
            "eventCount": 1,
            "feeRecipient": "0x5a0b54d5dc17e0aadc383d2db43b0a0d3e029c4c",
            "formatValue": "0",
            "gasLimit": 90000,
            "gasPrice": "21",
            "gasUsed": 25131,
            "intTxnCount": 1,
            "internalRevert": false,
            "internalRevertMessage": "",
            "isContractCreation": false,
            "isFlashloan": false,
            "maxFee": "",
            "nonce": 25018,
            "overwritedBlockNumber": -1,
            "priorityFee": "",
            "receiver": "0x9023be7a9627741b77f7961bf59ff6cfb95db042",
            "revertMessage": "",
            "sender": "0x9862d074e33003726fa05c74f0142995f33a3250",
            "simulationEnable": true,
            "sourceTxnHash": "0x1b2f68e6ba08c2c6958d8b2cd6331078fb0a45993be2cef106f2b4727357c6a0",
            "status": true,
            "timestamp": "2017-11-05T13:43:39Z",
            "transactionFee": "0.000527751",
            "txnHash": "0x1b2f68e6ba08c2c6958d8b2cd6331078fb0a45993be2cef106f2b4727357c6a0",
            "txnIndex": 13,
            "type": 0,
            "value": "0"
        },
        "fund_flow": [
            {
                "amount": "1,500",
                "from": "0x9023be7a9627741b77f7961bf59ff6cfb95db042",
                "id": 1,
                "isERC1155": false,
                "isERC721": false,
                "isReverted": false,
                "order": 1,
                "to": "0xe03c23519e18d64f144d2800e30e81b0065c48b5",
                "token": "0xab95e915c123fded5bdfb6325e35ef5515f1ea69"
            }
        ],
        "token_infos": [
            {
                "address": "0xab95e915c123fded5bdfb6325e35ef5515f1ea69",
                "decimals": 18
            },
            {
                "address": "0xc02aaa39b223fe8d0a0e5c4f27ead9083c756cc2",
                "decimals": 18
            },
            {
                "address": "0xeeeeeeeeeeeeeeeeeeeeeeeeeeeeeeeeeeeeeeee",
                "decimals": 18
            }
        ]
    },
    "address_label": {
        "labels": [
            {
                "address": "0xe03c23519e18d64f144d2800e30e81b0065c48b5",
                "label": "Mercatox"
            },
            {
                "address": "0x0000000000000000000000000000000000000001",
                "label": "Precompiled"
            },
            {
                "address": "0x0000000000000000000000000000000000000002",
                "label": "Precompiled"
            },
            {
                "address": "0x0000000000000000000000000000000000000003",
                "label": "Precompiled"
            },
            {
                "address": "0x0000000000000000000000000000000000000004",
                "label": "Precompiled"
            },
            {
                "address": "0xeeeeeeeeeeeeeeeeeeeeeeeeeeeeeeeeeeeeeeee",
                "label": "Ether"
            },
            {
                "address": "0xab95e915c123fded5bdfb6325e35ef5515f1ea69",
                "label": "XenonToken"
            }
        ]
    },
    "trace": {
        "accountLabels": null,
        "dataMap": {
            "-1": {
                "invocation": {
                    "address": "0x9862d074e33003726fa05c74f0142995f33a3250",
                    "callData": "",
                    "decodedMethod": null,
                    "errorInfo": "",
                    "fromAddress": "",
                    "gasUsed": 0,
                    "id": -1,
                    "methodDecoded": false,
                    "operation": "",
                    "output": "",
                    "revert": false,
                    "revertMessage": "",
                    "selector": "",
                    "status": false,
                    "value": ""
                },
                "nodeType": 0
            },
            "0": {
                "invocation": {
                    "address": "0x9023be7a9627741b77f7961bf59ff6cfb95db042",
                    "callData": "0x000000000000000000000000e03c23519e18d64f144d2800e30e81b0065c48b5000000000000000000000000ab95e915c123fded5bdfb6325e35ef5515f1ea6900000000000000000000000000000000000000000000005150ae84a8cdf00000",
                    "decodedMethod": {
                        "callParams": [
                            {
                                "name": "_to",
                                "type": "address",
                                "value": "0xe03c23519e18d64f144d2800e30e81b0065c48b5"
                            },
                            {
                                "name": "_token",
                                "type": "address",
                                "value": "0xab95e915c123fded5bdfb6325e35ef5515f1ea69"
                            },
                            {
                                "name": "_amount",
                                "type": "uint256",
                                "value": "1,500,000,000,000,000,000,000"
                            }
                        ],
                        "constructorArguments": "",
                        "name": "collect",
                        "returnParams": [],
                        "signature": "collect(address,address,uint256)"
                    },
                    "errorInfo": "",
                    "fromAddress": "0x9862d074e33003726fa05c74f0142995f33a3250",
                    "gasUsed": 25131,
                    "id": 0,
                    "methodDecoded": true,
                    "operation": "CALL",
                    "output": "",
                    "revert": false,
                    "revertMessage": "",
                    "selector": "0xc8fea2fb",
                    "status": true,
                    "value": "0"
                },
                "nodeType": 0
            },
            "1": {
                "invocation": {
                    "address": "0xab95e915c123fded5bdfb6325e35ef5515f1ea69",
                    "callData": "0x000000000000000000000000e03c23519e18d64f144d2800e30e81b0065c48b500000000000000000000000000000000000000000000005150ae84a8cdf00000",
                    "decodedMethod": {
                        "callParams": [
                            {
                                "name": "_to",
                                "type": "address",
                                "value": "0xe03c23519e18d64f144d2800e30e81b0065c48b5"
                            },
                            {
                                "decimalAvailable": true,
                                "name": "_value",
                                "type": "uint256",
                                "value": "1,500,000,000,000,000,000,000"
                            }
                        ],
                        "constructorArguments": "",
                        "name": "transfer",
                        "returnParams": [
                            {
                                "name": "",
                                "type": "bool",
                                "value": true
                            }
                        ],
                        "signature": "transfer(address,uint256)"
                    },
                    "errorInfo": "",
                    "fromAddress": "0x9023be7a9627741b77f7961bf59ff6cfb95db042",
                    "gasUsed": 13381,
                    "id": 1,
                    "methodDecoded": true,
                    "operation": "CALL",
                    "output": "0x0000000000000000000000000000000000000000000000000000000000000001",
                    "revert": false,
                    "revertMessage": "",
                    "selector": "0xa9059cbb",
                    "status": true,
                    "value": "0"
                },
                "nodeType": 0
            },
            "2": {
                "event": {
                    "contract": "0xab95e915c123fded5bdfb6325e35ef5515f1ea69",
                    "decodedLog": {
                        "name": "Transfer",
                        "params": [
                            {
                                "name": "from",
                                "type": "address",
                                "value": "0x9023be7a9627741b77f7961bf59ff6cfb95db042"
                            },
                            {
                                "name": "to",
                                "type": "address",
                                "value": "0xe03c23519e18d64f144d2800e30e81b0065c48b5"
                            },
                            {
                                "decimalAvailable": true,
                                "name": "value",
                                "type": "uint256",
                                "value": "1,500,000,000,000,000,000,000"
                            }
                        ],
                        "signature": "Transfer(address,address,uint256)"
                    },
                    "id": 2,
                    "logData": "0x00000000000000000000000000000000000000000000005150ae84a8cdf00000",
                    "logDecoded": true,
                    "operation": "EVENT",
                    "revert": false,
                    "status": true,
                    "topics": [
                        "0xddf252ad1be2c89b69c2b068fc378daa952ba7f163c4a11628f55a4df523b3ef",
                        "0x0000000000000000000000009023be7a9627741b77f7961bf59ff6cfb95db042",
                        "0x000000000000000000000000e03c23519e18d64f144d2800e30e81b0065c48b5"
                    ]
                },
                "nodeType": 1
            }
        },
        "gasFlame": [
            {
                "children": [
                    {
                        "children": [
                            {
                                "children": [],
                                "depth": 0,
                                "name": "Initial Gas",
                                "value": 24600
                            },
                            {
                                "children": [
                                    {
                                        "children": [],
                                        "depth": 1,
                                        "name": "transfer",
                                        "value": 13381
                                    }
                                ],
                                "depth": 0,
                                "name": "Executed Gas",
                                "value": 15531
                            }
                        ],
                        "depth": -1,
                        "name": "Actual Gas Used",
                        "value": 25131
                    },
                    {
                        "children": [],
                        "depth": -1,
                        "name": "Refunded Gas",
                        "value": 15000
                    }
                ],
                "depth": -2,
                "name": "Total Gas",
                "value": 40131
            }
        ],
        "isConfirmed": true,
        "mainTrace": [
            {
                "children": [
                    {
                        "children": [
                            {
                                "children": [
                                    {
                                        "children": [],
                                        "depth": 2,
                                        "id": 2,
                                        "order": 2
                                    }
                                ],
                                "depth": 1,
                                "id": 1,
                                "order": 1
                            }
                        ],
                        "depth": 0,
                        "id": 0,
                        "order": 0
                    }
                ],
                "depth": -1,
                "id": -1,
                "order": -1
            }
        ],
        "mainTraceNodeCount": 3,
        "parentIdMap": {
            "0": -1,
            "1": 0,
            "2": 1
        },
        "tidyTrace": [
            {
                "children": [
                    {
                        "children": [
                            {
                                "children": [
                                    {
                                        "children": [],
                                        "depth": 2,
                                        "id": 2,
                                        "order": 2
                                    }
                                ],
                                "depth": 1,
                                "id": 1,
                                "order": 1
                            }
                        ],
                        "depth": 0,
                        "id": 0,
                        "order": 0
                    }
                ],
                "depth": -1,
                "id": -1,
                "order": -1
            }
        ],
        "tidyTraceNodeCount": 3
    },
    "state_change": {
        "stateChanges": [
            {
                "address": "0xab95e915c123fded5bdfb6325e35ef5515f1ea69",
                "erc": "ERC-20",
                "slots": [
                    {
                        "current": "0x00000000000000000000000000000000000000000000158b7ccf592d201c7d84",
                        "key": "0xe8e14a86b2b17555659106c9c557a99a85283450b47f4d1fedfb85d1445fb589",
                        "prev": "0x00000000000000000000000000000000000000000000153a2c20d484522c7d84"
                    },
                    {
                        "current": "0x0000000000000000000000000000000000000000000000000000000000000000",
                        "key": "0xff24b8f9b0a5040669580ad56cf7a9c925c022486f62ae832535ee5c24f2e82a",
                        "prev": "0x00000000000000000000000000000000000000000000005150ae84a8cdf00000"
                    }
                ],
                "storageVariables": [
                    {
                        "name": "balances",
                        "type": "mapping(address => uint256)",
                        "value": {
                            "pairs": [
                                {
                                    "key": "0x9023be7a9627741b77f7961bf59ff6cfb95db042",
                                    "value": {
                                        "current": "0",
                                        "prev": "1500000000000000000000",
                                        "typeTag": 1
                                    }
                                },
                                {
                                    "key": "0xe03c23519e18d64f144d2800e30e81b0065c48b5",
                                    "value": {
                                        "current": "101742787071539406470532",
                                        "prev": "100242787071539406470532",
                                        "typeTag": 1
                                    }
                                }
                            ],
                            "typeTag": 4
                        }
                    }
                ]
            }
        ]
    }
}