{
    "balance_change": {
        "balanceChanges": [
            {
                "account": "0x936b6685bc62b3c88e2893e09cf9aa7ba2cadfc0",
                "assets": [
                    {
                        "address": "0x28cb7e841ee97947a86b06fa4090c8451f64c0be",
                        "amount": "0.628242255181597664",
                        "iconUrl": "",
                        "isERC1155": false,
                        "isERC721": false,
                        "sign": false,
                        "value": "237.093277"
                    },
                    {
                        "address": "0x20945ca1df56d237fd40036d47e866c7dccd2114",
                        "amount": "418.713863053794336935",
                        "iconUrl": "",
                        "isERC1155": false,
                        "isERC721": false,
                        "sign": true,
                        "value": "234.7603775"
                    }
                ]
            },
            {
                "account": "0x1d6432aefeae2c0ff1393120541863822a4e6fa7",
                "assets": [
                    {
                        "address": "0x28cb7e841ee97947a86b06fa4090c8451f64c0be",
                        "amount": "0.628242255181597664",
                        "iconUrl": "",
                        "isERC1155": false,
                        "isERC721": false,
                        "sign": true,
                        "value": "237.093277"
                    },
                    {
                        "address": "0xc02aaa39b223fe8d0a0e5c4f27ead9083c756cc2",
                        "amount": "0.608347645196203573",
                        "iconUrl": "https://assets.blocksec.com/icon/f1cb2d02c471d545bbc7722daf3277fd852d98e63d118771af7047bd8256c516.png",
                        "isERC1155": false,
                        "isERC721": false,
                        "sign": false,
                        "value": "237.093277"
                    }
                ]
            },
            {
                "account": "0xed196f5f01e8c99ef4c6d77b83ccaf629032a8f2",
                "assets": [
                    {
                        "address": "0xc02aaa39b223fe8d0a0e5c4f27ead9083c756cc2",
                        "amount": "0.608347645196203573",
                        "iconUrl": "https://assets.blocksec.com/icon/f1cb2d02c471d545bbc7722daf3277fd852d98e63d118771af7047bd8256c516.png",
                        "isERC1155": false,
                        "isERC721": false,
                        "sign": true,
                        "value": "237.093277"
                    },
                    {
                        "address": "0x20945ca1df56d237fd40036d47e866c7dccd2114",
                        "amount": "418.713863053794336935",
                        "iconUrl": "",
                        "isERC1155": false,
                        "isERC721": false,
                        "sign": false,
                        "value": "234.7603775"
                    }
                ]
            }
        ]
    },
    "profile": {
        "basic_info": {
            "baseFee": "",
            "blockNumber": 11172733,
            "callData": "0x38ed173900000000000000000000000000000000000000000000000008b7f700a4fd4be0000000000000000000000000000000000000000000000015c1f38d2596b8683e00000000000000000000000000000000000000000000000000000000000000a0000000000000000000000000936b6685bc62b3c88e2893e09cf9aa7ba2cadfc0000000000000000000000000000000000000000000000000000000005f9efab8000000000000000000000000000000000000000000000000000000000000000300000000000000000000000028cb7e841ee97947a86b06fa4090c8451f64c0be000000000000000000000000c02aaa39b223fe8d0a0e5c4f27ead9083c756cc200000000000000000000000020945ca1df56d237fd40036d47e866c7dccd2114",
            "debugEnable": true,
            "errorInfo": "",
            "eventCount": 8,
            "feeRecipient": "0x5a0b54d5dc17e0aadc383d2db43b0a0d3e029c4c",
            "formatValue": "0",
            "gasLimit": 205280,
            "gasPrice": "16.7",
            "gasUsed": 188291,
            "intTxnCount": 11,
            "internalRevert": false,
            "internalRevertMessage": "",
            "isContractCreation": false,
            "isFlashloan": false,
            "maxFee": "",
            "nonce": 866,
            "overwritedBlockNumber": -1,
            "priorityFee": "",
            "receiver": "0x7a250d5630b4cf539739df2c5dacb4c659f2488d",
            "revertMessage": "",
            "sender": "0x936b6685bc62b3c88e2893e09cf9aa7ba2cadfc0",
            "simulationEnable": true,
            "sourceTxnHash": "0x1cd8a96626f77c740e4478baf97f333840ec51a92cc95d1d3399e97e8e495807",
            "status": true,
            "timestamp": "2020-11-01T18:09:38Z",
            "transactionFee": "0.0031444597",
            "txnHash": "0x1cd8a96626f77c740e4478baf97f333840ec51a92cc95d1d3399e97e8e495807",
            "txnIndex": 78,
            "type": 0,
            "value": "0"
        },
        "fund_flow": [
            {
                "amount": "0.628242255181597664",
                "from": "0x936b6685bc62b3c88e2893e09cf9aa7ba2cadfc0",
                "id": 1,
                "isERC1155": false,
                "isERC721": false,
                "isReverted": false,
                "order": 1,
                "to": "0x1d6432aefeae2c0ff1393120541863822a4e6fa7",
                "token": "0x28cb7e841ee97947a86b06fa4090c8451f64c0be"
            },
            {
                "amount": "0.608347645196203573",
                "from": "0x1d6432aefeae2c0ff1393120541863822a4e6fa7",
                "id": 2,
                "isERC1155": false,
                "isERC721": false,
                "isReverted": false,
                "order": 2,
                "to": "0xed196f5f01e8c99ef4c6d77b83ccaf629032a8f2",
                "token": "0xc02aaa39b223fe8d0a0e5c4f27ead9083c756cc2"
            },
            {
                "amount": "418.713863053794336935",
                "from": "0xed196f5f01e8c99ef4c6d77b83ccaf629032a8f2",
                "id": 3,
                "isERC1155": false,
                "isERC721": false,
                "isReverted": false,
                "order": 3,
                "to": "0x936b6685bc62b3c88e2893e09cf9aa7ba2cadfc0",
                "token": "0x20945ca1df56d237fd40036d47e866c7dccd2114"
            }
        ],
        "token_infos": [
            {
                "address": "0x20945ca1df56d237fd40036d47e866c7dccd2114",
                "decimals": 18
            },
            {
                "address": "0x28cb7e841ee97947a86b06fa4090c8451f64c0be",
                "decimals": 18
            },
            {
                "address": "0xc02aaa39b223fe8d0a0e5c4f27ead9083c756cc2",
                "decimals": 18
            },
            {
                "address": "0xeeeeeeeeeeeeeeeeeeeeeeeeeeeeeeeeeeeeeeee",
                "decimals": 18
            }
        ]
    },
    "address_label": {
        "labels": [
            {
                "address": "0x7a250d5630b4cf539739df2c5dacb4c659f2488d",
                "label": "Uniswap V2: Router 2"
            },
            {
                "address": "0xc02aaa39b223fe8d0a0e5c4f27ead9083c756cc2",
                "label": "Wrapped Ether (WETH)"
            },
            {
                "address": "0xed196f5f01e8c99ef4c6d77b83ccaf629032a8f2",
                "label": "Uniswap V2: Nsure 6"
            },
            {
                "address": "0x28cb7e841ee97947a86b06fa4090c8451f64c0be",
                "label": "Yflink: YFL Token"
            },
            {
                "address": "0x0000000000000000000000000000000000000001",
                "label": "Precompiled"
            },
            {
                "address": "0xeeeeeeeeeeeeeeeeeeeeeeeeeeeeeeeeeeeeeeee",
                "label": "Ether"
            },
            {
                "address": "0x20945ca1df56d237fd40036d47e866c7dccd2114",
                "label": "Nsure.network: NSURE Token"
            },
            {
                "address": "0x0000000000000000000000000000000000000002",
                "label": "Precompiled"
            },
            {
                "address": "0x0000000000000000000000000000000000000003",
                "label": "Precompiled"
            },
            {
                "address": "0x0000000000000000000000000000000000000004",
                "label": "Precompiled"
            },
            {
                "address": "0x1d6432aefeae2c0ff1393120541863822a4e6fa7",
                "label": "Uniswap V2: YFL"
            }
        ]
    },
    "trace": {
        "accountLabels": null,
        "dataMap": {
            "-1": {
                "invocation": {
                    "address": "0x936b6685bc62b3c88e2893e09cf9aa7ba2cadfc0",
                    "callData": "",
                    "decodedMethod": null,
                    "errorInfo": "",
                    "fromAddress": "",
                    "gasUsed": 0,
                    "id": -1,
                    "methodDecoded": false,
                    "operation": "",
                    "output": "",
                    "revert": false,
                    "revertMessage": "",
                    "selector": "",
                    "status": false,
                    "value": ""
                },
                "nodeType": 0
            },
            "0": {
                "invocation": {
                    "address": "0x7a250d5630b4cf539739df2c5dacb4c659f2488d",
                    "callData": "0x00000000000000000000000000000000000000000000000008b7f700a4fd4be0000000000000000000000000000000000000000000000015c1f38d2596b8683e00000000000000000000000000000000000000000000000000000000000000a0000000000000000000000000936b6685bc62b3c88e2893e09cf9aa7ba2cadfc0000000000000000000000000000000000000000000000000000000005f9efab8000000000000000000000000000000000000000000000000000000000000000300000000000000000000000028cb7e841ee97947a86b06fa4090c8451f64c0be000000000000000000000000c02aaa39b223fe8d0a0e5c4f27ead9083c756cc200000000000000000000000020945ca1df56d237fd40036d47e866c7dccd2114",
                    "decodedMethod": {
                        "callParams": [
                            {
                                "name": "amountIn",
                                "type": "uint256",
                                "value": "628,242,255,181,597,664"
                            },
                            {
                                "name": "amountOutMin",
                                "type": "uint256",
                                "value": "401,357,294,809,143,339,070"
                            },
                            {
                                "name": "path",
                                "type": "address[]",
                                "value": [
                                    "0x28cb7e841ee97947a86b06fa4090c8451f64c0be",
                                    "0xc02aaa39b223fe8d0a0e5c4f27ead9083c756cc2",
                                    "0x20945ca1df56d237fd40036d47e866c7dccd2114"
                                ]
                            },
                            {
                                "name": "to",
                                "type": "address",
                                "value": "0x936b6685bc62b3c88e2893e09cf9aa7ba2cadfc0"
                            },
                            {
                                "name": "deadline",
                                "type": "uint256",
                                "value": "1,604,254,392"
                            }
                        ],
                        "constructorArguments": "",
                        "name": "swapExactTokensForTokens",
                        "returnParams": [
                            {
                                "name": "amounts",
                                "type": "uint256[]",
                                "value": [
                                    "628,242,255,181,597,664",
                                    "608,347,645,196,203,573",
                                    "418,713,863,053,794,336,935"
                                ]
                            }
                        ],
                        "signature": "swapExactTokensForTokens(uint256,uint256,address[],address,uint256)"
                    },
                    "errorInfo": "",
                    "fromAddress": "0x936b6685bc62b3c88e2893e09cf9aa7ba2cadfc0",
                    "gasUsed": 188291,
                    "id": 0,
                    "methodDecoded": true,
                    "operation": "CALL",
                    "output": "0x0000000000000000000000000000000000000000000000000000000000000020000000000000000000000000000000000000000000000000000000000000000300000000000000000000000000000000000000000000000008b7f700a4fd4be0000000000000000000000000000000000000000000000000087148f5cbdd7635000000000000000000000000000000000000000000000016b2d278019cf7e0a7",
                    "revert": false,
                    "revertMessage": "",
                    "selector": "0x38ed1739",
                    "status": true,
                    "value": "0"
                },
                "nodeType": 0
            },
            "1": {
                "invocation": {
                    "address": "0x1d6432aefeae2c0ff1393120541863822a4e6fa7",
                    "callData": "0x",
                    "decodedMethod": {
                        "callParams": [],
                        "constructorArguments": "",
                        "name": "getReserves",
                        "returnParams": [
                            {
                                "name": "_reserve0",
                                "type": "uint112",
                                "value": "1,893,524,966,659,719,456,456"
                            },
                            {
                                "name": "_reserve1",
                                "type": "uint112",
                                "value": "1,839,688,110,126,323,112,013"
                            },
                            {
                                "name": "_blockTimestampLast",
                                "type": "uint32",
                                "value": "1,604,252,136"
                            }
                        ],
                        "signature": "getReserves()"
                    },
                    "errorInfo": "",
                    "fromAddress": "0x7a250d5630b4cf539739df2c5dacb4c659f2488d",
                    "gasUsed": 1204,
                    "id": 1,
                    "methodDecoded": true,
                    "operation": "STATICCALL",
                    "output": "0x000000000000000000000000000000000000000000000066a5f00cda0df466c8000000000000000000000000000000000000000000000063bacd1d131532984d000000000000000000000000000000000000000000000000000000005f9ef1e8",
                    "revert": false,
                    "revertMessage": "",
                    "selector": "0x0902f1ac",
                    "status": true,
                    "value": "0"
                },
                "nodeType": 0
            },
            "10": {
                "invocation": {
                    "address": "0xc02aaa39b223fe8d0a0e5c4f27ead9083c756cc2",
                    "callData": "0x0000000000000000000000001d6432aefeae2c0ff1393120541863822a4e6fa7",
                    "decodedMethod": {
                        "callParams": [
                            {
                                "name": "",
                                "type": "address",
                                "value": "0x1d6432aefeae2c0ff1393120541863822a4e6fa7"
                            }
                        ],
                        "constructorArguments": "",
                        "name": "balanceOf",
                        "returnParams": [
                            {
                                "decimalAvailable": true,
                                "name": "",
                                "type": "uint256",
                                "value": "1,839,079,762,481,126,908,440"
                            }
                        ],
                        "signature": "balanceOf(address)"
                    },
                    "errorInfo": "",
                    "fromAddress": "0x1d6432aefeae2c0ff1393120541863822a4e6fa7",
                    "gasUsed": 1234,
                    "id": 10,
                    "methodDecoded": true,
                    "operation": "STATICCALL",
                    "output": "0x000000000000000000000000000000000000000000000063b25bd41d49552218",
                    "revert": false,
                    "revertMessage": "",
                    "selector": "0x70a08231",
                    "status": true,
                    "value": "0"
                },
                "nodeType": 0
            },
            "11": {
                "event": {
                    "contract": "0x1d6432aefeae2c0ff1393120541863822a4e6fa7",
                    "decodedLog": {
                        "name": "Sync",
                        "params": [
                            {
                                "name": "reserve0",
                                "type": "uint112",
                                "value": "1,894,153,208,914,901,054,120"
                            },
                            {
                                "name": "reserve1",
                                "type": "uint112",
                                "value": "1,839,079,762,481,126,908,440"
                            }
                        ],
                        "signature": "Sync(uint112,uint112)"
                    },
                    "id": 11,
                    "logData": "0x000000000000000000000000000000000000000000000066aea803dab2f1b2a8000000000000000000000000000000000000000000000063b25bd41d49552218",
                    "logDecoded": true,
                    "operation": "EVENT",
                    "revert": false,
                    "status": true,
                    "topics": [
                        "0x1c411e9a96e071241c2f21f7726b17ae89e3cab4c78be50e062b03a9fffbbad1"
                    ]
                },
                "nodeType": 1
            },
            "12": {
                "event": {
                    "contract": "0x1d6432aefeae2c0ff1393120541863822a4e6fa7",
                    "decodedLog": {
                        "name": "Swap",
                        "params": [
                            {
                                "name": "sender",
                                "type": "address",
                                "value": "0x7a250d5630b4cf539739df2c5dacb4c659f2488d"
                            },
                            {
                                "name": "to",
                                "type": "address",
                                "value": "0xed196f5f01e8c99ef4c6d77b83ccaf629032a8f2"
                            },
                            {
                                "name": "amount0In",
                                "type": "uint256",
                                "value": "628,242,255,181,597,664"
                            },
                            {
                                "name": "amount1In",
                                "type": "uint256",
                                "value": "0"
                            },
                            {
                                "name": "amount0Out",
                                "type": "uint256",
                                "value": "0"
                            },
                            {
                                "name": "amount1Out",
                                "type": "uint256",
                                "value": "608,347,645,196,203,573"
                            }
                        ],
                        "signature": "Swap(address,uint256,uint256,uint256,uint256,address)"
                    },
                    "id": 12,
                    "logData": "0x00000000000000000000000000000000000000000000000008b7f700a4fd4be000000000000000000000000000000000000000000000000000000000000000000000000000000000000000000000000000000000000000000000000000000000000000000000000000000000000000000000000000000000087148f5cbdd7635",
                    "logDecoded": true,
                    "operation": "EVENT",
                    "revert": false,
                    "status": true,
                    "topics": [
                        "0xd78ad95fa46c994b6551d0da85fc275fe613ce37657fb8d5e3d130840159d822",
                        "0x0000000000000000000000007a250d5630b4cf539739df2c5dacb4c659f2488d",
                        "0x000000000000000000000000ed196f5f01e8c99ef4c6d77b83ccaf629032a8f2"
                    ]
                },
                "nodeType": 1
            },
            "13": {
                "invocation": {
                    "address": "0xed196f5f01e8c99ef4c6d77b83ccaf629032a8f2",
                    "callData": "0x000000000000000000000000000000000000000000000016b2d278019cf7e0a70000000000000000000000000000000000000000000000000000000000000000000000000000000000000000936b6685bc62b3c88e2893e09cf9aa7ba2cadfc000000000000000000000000000000000000000000000000000000000000000800000000000000000000000000000000000000000000000000000000000000000",
                    "decodedMethod": {
                        "callParams": [
                            {
                                "name": "amount0Out",
                                "type": "uint256",
                                "value": "418,713,863,053,794,336,935"
                            },
                            {
                                "name": "amount1Out",
                                "type": "uint256",
                                "value": "0"
                            },
                            {
                                "name": "to",
                                "type": "address",
                                "value": "0x936b6685bc62b3c88e2893e09cf9aa7ba2cadfc0"
                            },
                            {
                                "name": "data",
                                "type": "bytes",
                                "value": "0x"
                            }
                        ],
                        "constructorArguments": "",
                        "name": "swap",
                        "returnParams": [],
                        "signature": "swap(uint256,uint256,address,bytes)"
                    },
                    "errorInfo": "",
                    "fromAddress": "0x7a250d5630b4cf539739df2c5dacb4c659f2488d",
                    "gasUsed": 73249,
                    "id": 13,
                    "methodDecoded": true,
                    "operation": "CALL",
                    "output": "",
                    "revert": false,
                    "revertMessage": "",
                    "selector": "0x022c0d9f",
                    "status": true,
                    "value": "0"
                },
                "nodeType": 0
            },
            "14": {
                "invocation": {
                    "address": "0x20945ca1df56d237fd40036d47e866c7dccd2114",
                    "callData": "0x000000000000000000000000936b6685bc62b3c88e2893e09cf9aa7ba2cadfc0000000000000000000000000000000000000000000000016b2d278019cf7e0a7",
                    "decodedMethod": {
                        "callParams": [
                            {
                                "name": "recipient",
                                "type": "address",
                                "value": "0x936b6685bc62b3c88e2893e09cf9aa7ba2cadfc0"
                            },
                            {
                                "decimalAvailable": true,
                                "name": "amount",
                                "type": "uint256",
                                "value": "418,713,863,053,794,336,935"
                            }
                        ],
                        "constructorArguments": "",
                        "name": "transfer",
                        "returnParams": [
                            {
                                "name": "",
                                "type": "bool",
                                "value": true
                            }
                        ],
                        "signature": "transfer(address,uint256)"
                    },
                    "errorInfo": "",
                    "fromAddress": "0xed196f5f01e8c99ef4c6d77b83ccaf629032a8f2",
                    "gasUsed": 31625,
                    "id": 14,
                    "methodDecoded": true,
                    "operation": "CALL",
                    "output": "0x0000000000000000000000000000000000000000000000000000000000000001",
                    "revert": false,
                    "revertMessage": "",
                    "selector": "0xa9059cbb",
                    "status": true,
                    "value": "0"
                },
                "nodeType": 0
            },
            "15": {
                "event": {
                    "contract": "0x20945ca1df56d237fd40036d47e866c7dccd2114",
                    "decodedLog": {
                        "name": "Transfer",
                        "params": [
                            {
                                "name": "from",
                                "type": "address",
                                "value": "0xed196f5f01e8c99ef4c6d77b83ccaf629032a8f2"
                            },
                            {
                                "name": "to",
                                "type": "address",
                                "value": "0x936b6685bc62b3c88e2893e09cf9aa7ba2cadfc0"
                            },
                            {
                                "decimalAvailable": true,
                                "name": "value",
                                "type": "uint256",
                                "value": "418,713,863,053,794,336,935"
                            }
                        ],
                        "signature": "Transfer(address,address,uint256)"
                    },
                    "id": 15,
                    "logData": "0x000000000000000000000000000000000000000000000016b2d278019cf7e0a7",
                    "logDecoded": true,
                    "operation": "EVENT",
                    "revert": false,
                    "status": true,
                    "topics": [
                        "0xddf252ad1be2c89b69c2b068fc378daa952ba7f163c4a11628f55a4df523b3ef",
                        "0x000000000000000000000000ed196f5f01e8c99ef4c6d77b83ccaf629032a8f2",
                        "0x000000000000000000000000936b6685bc62b3c88e2893e09cf9aa7ba2cadfc0"
                    ]
                },
                "nodeType": 1
            },
            "16": {
                "invocation": {
                    "address": "0x20945ca1df56d237fd40036d47e866c7dccd2114",
                    "callData": "0x000000000000000000000000ed196f5f01e8c99ef4c6d77b83ccaf629032a8f2",
                    "decodedMethod": {
                        "callParams": [
                            {
                                "name": "account",
                                "type": "address",
                                "value": "0xed196f5f01e8c99ef4c6d77b83ccaf629032a8f2"
                            }
                        ],
                        "constructorArguments": "",
                        "name": "balanceOf",
                        "returnParams": [
                            {
                                "decimalAvailable": true,
                                "name": "",
                                "type": "uint256",
                                "value": "215,129,449,325,193,401,846,726"
                            }
                        ],
                        "signature": "balanceOf(address)"
                    },
                    "errorInfo": "",
                    "fromAddress": "0xed196f5f01e8c99ef4c6d77b83ccaf629032a8f2",
                    "gasUsed": 1367,
                    "id": 16,
                    "methodDecoded": true,
                    "operation": "STATICCALL",
                    "output": "0x000000000000000000000000000000000000000000002d8e30d954974f1dcbc6",
                    "revert": false,
                    "revertMessage": "",
                    "selector": "0x70a08231",
                    "status": true,
                    "value": "0"
                },
                "nodeType": 0
            },
            "17": {
                "invocation": {
                    "address": "0xc02aaa39b223fe8d0a0e5c4f27ead9083c756cc2",
                    "callData": "0x000000000000000000000000ed196f5f01e8c99ef4c6d77b83ccaf629032a8f2",
                    "decodedMethod": {
                        "callParams": [
                            {
                                "name": "",
                                "type": "address",
                                "value": "0xed196f5f01e8c99ef4c6d77b83ccaf629032a8f2"
                            }
                        ],
                        "constructorArguments": "",
                        "name": "balanceOf",
                        "returnParams": [
                            {
                                "decimalAvailable": true,
                                "name": "",
                                "type": "uint256",
                                "value": "312,231,355,481,566,423,019"
                            }
                        ],
                        "signature": "balanceOf(address)"
                    },
                    "errorInfo": "",
                    "fromAddress": "0xed196f5f01e8c99ef4c6d77b83ccaf629032a8f2",
                    "gasUsed": 1234,
                    "id": 17,
                    "methodDecoded": true,
                    "operation": "STATICCALL",
                    "output": "0x000000000000000000000000000000000000000000000010ed149b89b17b27eb",
                    "revert": false,
                    "revertMessage": "",
                    "selector": "0x70a08231",
                    "status": true,
                    "value": "0"
                },
                "nodeType": 0
            },
            "18": {
                "event": {
                    "contract": "0xed196f5f01e8c99ef4c6d77b83ccaf629032a8f2",
                    "decodedLog": {
                        "name": "Sync",
                        "params": [
                            {
                                "name": "reserve0",
                                "type": "uint112",
                                "value": "215,129,449,325,193,401,846,726"
                            },
                            {
                                "name": "reserve1",
                                "type": "uint112",
                                "value": "312,231,355,481,566,423,019"
                            }
                        ],
                        "signature": "Sync(uint112,uint112)"
                    },
                    "id": 18,
                    "logData": "0x000000000000000000000000000000000000000000002d8e30d954974f1dcbc6000000000000000000000000000000000000000000000010ed149b89b17b27eb",
                    "logDecoded": true,
                    "operation": "EVENT",
                    "revert": false,
                    "status": true,
                    "topics": [
                        "0x1c411e9a96e071241c2f21f7726b17ae89e3cab4c78be50e062b03a9fffbbad1"
                    ]
                },
                "nodeType": 1
            },
            "19": {
                "event": {
                    "contract": "0xed196f5f01e8c99ef4c6d77b83ccaf629032a8f2",
                    "decodedLog": {
                        "name": "Swap",
                        "params": [
                            {
                                "name": "sender",
                                "type": "address",
                                "value": "0x7a250d5630b4cf539739df2c5dacb4c659f2488d"
                            },
                            {
                                "name": "to",
                                "type": "address",
                                "value": "0x936b6685bc62b3c88e2893e09cf9aa7ba2cadfc0"
                            },
                            {
                                "name": "amount0In",
                                "type": "uint256",
                                "value": "0"
                            },
                            {
                                "name": "amount1In",
                                "type": "uint256",
                                "value": "608,347,645,196,203,573"
                            },
                            {
                                "name": "amount0Out",
                                "type": "uint256",
                                "value": "418,713,863,053,794,336,935"
                            },
                            {
                                "name": "amount1Out",
                                "type": "uint256",
                                "value": "0"
                            }
                        ],
                        "signature": "Swap(address,uint256,uint256,uint256,uint256,address)"
                    },
                    "id": 19,
                    "logData": "0x0000000000000000000000000000000000000000000000000000000000000000000000000000000000000000000000000000000000000000087148f5cbdd7635000000000000000000000000000000000000000000000016b2d278019cf7e0a70000000000000000000000000000000000000000000000000000000000000000",
                    "logDecoded": true,
                    "operation": "EVENT",
                    "revert": false,
                    "status": true,
                    "topics": [
                        "0xd78ad95fa46c994b6551d0da85fc275fe613ce37657fb8d5e3d130840159d822",
                        "0x0000000000000000000000007a250d5630b4cf539739df2c5dacb4c659f2488d",
                        "0x000000000000000000000000936b6685bc62b3c88e2893e09cf9aa7ba2cadfc0"
                    ]
                },
                "nodeType": 1
            },
            "2": {
                "invocation": {
                    "address": "0xed196f5f01e8c99ef4c6d77b83ccaf629032a8f2",
                    "callData": "0x",
                    "decodedMethod": {
                        "callParams": [],
                        "constructorArguments": "",
                        "name": "getReserves",
                        "returnParams": [
                            {
                                "name": "_reserve0",
                                "type": "uint112",
                                "value": "215,548,163,188,247,196,183,661"
                            },
                            {
                                "name": "_reserve1",
                                "type": "uint112",
                                "value": "311,623,007,836,370,219,446"
                            },
                            {
                                "name": "_blockTimestampLast",
                                "type": "uint32",
                                "value": "1,604,254,167"
                            }
                        ],
                        "signature": "getReserves()"
                    },
                    "errorInfo": "",
                    "fromAddress": "0x7a250d5630b4cf539739df2c5dacb4c659f2488d",
                    "gasUsed": 1204,
                    "id": 2,
                    "methodDecoded": true,
                    "operation": "STATICCALL",
                    "output": "0x000000000000000000000000000000000000000000002da4e3abcc98ec15ac6d000000000000000000000000000000000000000000000010e4a35293e59db1b6000000000000000000000000000000000000000000000000000000005f9ef9d7",
                    "revert": false,
                    "revertMessage": "",
                    "selector": "0x0902f1ac",
                    "status": true,
                    "value": "0"
                },
                "nodeType": 0
            },
            "3": {
                "invocation": {
                    "address": "0x28cb7e841ee97947a86b06fa4090c8451f64c0be",
                    "callData": "0x000000000000000000000000936b6685bc62b3c88e2893e09cf9aa7ba2cadfc00000000000000000000000001d6432aefeae2c0ff1393120541863822a4e6fa700000000000000000000000000000000000000000000000008b7f700a4fd4be0",
                    "decodedMethod": {
                        "callParams": [
                            {
                                "name": "sender",
                                "type": "address",
                                "value": "0x936b6685bc62b3c88e2893e09cf9aa7ba2cadfc0"
                            },
                            {
                                "name": "recipient",
                                "type": "address",
                                "value": "0x1d6432aefeae2c0ff1393120541863822a4e6fa7"
                            },
                            {
                                "decimalAvailable": true,
                                "name": "amount",
                                "type": "uint256",
                                "value": "628,242,255,181,597,664"
                            }
                        ],
                        "constructorArguments": "",
                        "name": "transferFrom",
                        "returnParams": [
                            {
                                "name": "",
                                "type": "bool",
                                "value": true
                            }
                        ],
                        "signature": "transferFrom(address,address,uint256)"
                    },
                    "errorInfo": "",
                    "fromAddress": "0x7a250d5630b4cf539739df2c5dacb4c659f2488d",
                    "gasUsed": 22837,
                    "id": 3,
                    "methodDecoded": true,
                    "operation": "CALL",
                    "output": "0x0000000000000000000000000000000000000000000000000000000000000001",
                    "revert": false,
                    "revertMessage": "",
                    "selector": "0x23b872dd",
                    "status": true,
                    "value": "0"
                },
                "nodeType": 0
            },
            "4": {
                "event": {
                    "contract": "0x28cb7e841ee97947a86b06fa4090c8451f64c0be",
                    "decodedLog": {
                        "name": "Transfer",
                        "params": [
                            {
                                "name": "from",
                                "type": "address",
                                "value": "0x936b6685bc62b3c88e2893e09cf9aa7ba2cadfc0"
                            },
                            {
                                "name": "to",
                                "type": "address",
                                "value": "0x1d6432aefeae2c0ff1393120541863822a4e6fa7"
                            },
                            {
                                "decimalAvailable": true,
                                "name": "value",
                                "type": "uint256",
                                "value": "628,242,255,181,597,664"
                            }
                        ],
                        "signature": "Transfer(address,address,uint256)"
                    },
                    "id": 4,
                    "logData": "0x00000000000000000000000000000000000000000000000008b7f700a4fd4be0",
                    "logDecoded": true,
                    "operation": "EVENT",
                    "revert": false,
                    "status": true,
                    "topics": [
                        "0xddf252ad1be2c89b69c2b068fc378daa952ba7f163c4a11628f55a4df523b3ef",
                        "0x000000000000000000000000936b6685bc62b3c88e2893e09cf9aa7ba2cadfc0",
                        "0x0000000000000000000000001d6432aefeae2c0ff1393120541863822a4e6fa7"
                    ]
                },
                "nodeType": 1
            },
            "5": {
                "event": {
                    "contract": "0x28cb7e841ee97947a86b06fa4090c8451f64c0be",
                    "decodedLog": {
                        "name": "Approval",
                        "params": [
                            {
                                "name": "owner",
                                "type": "address",
                                "value": "0x936b6685bc62b3c88e2893e09cf9aa7ba2cadfc0"
                            },
                            {
                                "name": "spender",
                                "type": "address",
                                "value": "0x7a250d5630b4cf539739df2c5dacb4c659f2488d"
                            },
                            {
                                "decimalAvailable": true,
                                "name": "value",
                                "type": "uint256",
                                "value": "115,792,089,237,316,195,423,570,985,008,687,907,853,269,984,665,640,564,039,359,209,835,995,892,508,090"
                            }
                        ],
                        "signature": "Approval(address,address,uint256)"
                    },
                    "id": 5,
                    "logData": "0xfffffffffffffffffffffffffffffffffffffffffffffffaaac8bbd997df65ba",
                    "logDecoded": true,
                    "operation": "EVENT",
                    "revert": false,
                    "status": true,
                    "topics": [
                        "0x8c5be1e5ebec7d5bd14f71427d1e84f3dd0314c0f7b2291e5b200ac8c7c3b925",
                        "0x000000000000000000000000936b6685bc62b3c88e2893e09cf9aa7ba2cadfc0",
                        "0x0000000000000000000000007a250d5630b4cf539739df2c5dacb4c659f2488d"
                    ]
                },
                "nodeType": 1
            },
            "6": {
                "invocation": {
                    "address": "0x1d6432aefeae2c0ff1393120541863822a4e6fa7",
                    "callData": "0x0000000000000000000000000000000000000000000000000000000000000000000000000000000000000000000000000000000000000000087148f5cbdd7635000000000000000000000000ed196f5f01e8c99ef4c6d77b83ccaf629032a8f200000000000000000000000000000000000000000000000000000000000000800000000000000000000000000000000000000000000000000000000000000000",
                    "decodedMethod": {
                        "callParams": [
                            {
                                "name": "amount0Out",
                                "type": "uint256",
                                "value": "0"
                            },
                            {
                                "name": "amount1Out",
                                "type": "uint256",
                                "value": "608,347,645,196,203,573"
                            },
                            {
                                "name": "to",
                                "type": "address",
                                "value": "0xed196f5f01e8c99ef4c6d77b83ccaf629032a8f2"
                            },
                            {
                                "name": "data",
                                "type": "bytes",
                                "value": "0x"
                            }
                        ],
                        "constructorArguments": "",
                        "name": "swap",
                        "returnParams": [],
                        "signature": "swap(uint256,uint256,address,bytes)"
                    },
                    "errorInfo": "",
                    "fromAddress": "0x7a250d5630b4cf539739df2c5dacb4c659f2488d",
                    "gasUsed": 56609,
                    "id": 6,
                    "methodDecoded": true,
                    "operation": "CALL",
                    "output": "",
                    "revert": false,
                    "revertMessage": "",
                    "selector": "0x022c0d9f",
                    "status": true,
                    "value": "0"
                },
                "nodeType": 0
            },
            "7": {
                "invocation": {
                    "address": "0xc02aaa39b223fe8d0a0e5c4f27ead9083c756cc2",
                    "callData": "0x000000000000000000000000ed196f5f01e8c99ef4c6d77b83ccaf629032a8f2000000000000000000000000000000000000000000000000087148f5cbdd7635",
                    "decodedMethod": {
                        "callParams": [
                            {
                                "name": "dst",
                                "type": "address",
                                "value": "0xed196f5f01e8c99ef4c6d77b83ccaf629032a8f2"
                            },
                            {
                                "decimalAvailable": true,
                                "name": "wad",
                                "type": "uint256",
                                "value": "608,347,645,196,203,573"
                            }
                        ],
                        "constructorArguments": "",
                        "name": "transfer",
                        "returnParams": [
                            {
                                "name": "",
                                "type": "bool",
                                "value": true
                            }
                        ],
                        "signature": "transfer(address,uint256)"
                    },
                    "errorInfo": "",
                    "fromAddress": "0x1d6432aefeae2c0ff1393120541863822a4e6fa7",
                    "gasUsed": 15162,
                    "id": 7,
                    "methodDecoded": true,
                    "operation": "CALL",
                    "output": "0x0000000000000000000000000000000000000000000000000000000000000001",
                    "revert": false,
                    "revertMessage": "",
                    "selector": "0xa9059cbb",
                    "status": true,
                    "value": "0"
                },
                "nodeType": 0
            },
            "8": {
                "event": {
                    "contract": "0xc02aaa39b223fe8d0a0e5c4f27ead9083c756cc2",
                    "decodedLog": {
                        "name": "Transfer",
                        "params": [
                            {
                                "name": "src",
                                "type": "address",
                                "value": "0x1d6432aefeae2c0ff1393120541863822a4e6fa7"
                            },
                            {
                                "name": "dst",
                                "type": "address",
                                "value": "0xed196f5f01e8c99ef4c6d77b83ccaf629032a8f2"
                            },
                            {
                                "decimalAvailable": true,
                                "name": "wad",
                                "type": "uint256",
                                "value": "608,347,645,196,203,573"
                            }
                        ],
                        "signature": "Transfer(address,address,uint256)"
                    },
                    "id": 8,
                    "logData": "0x000000000000000000000000000000000000000000000000087148f5cbdd7635",
                    "logDecoded": true,
                    "operation": "EVENT",
                    "revert": false,
                    "status": true,
                    "topics": [
                        "0xddf252ad1be2c89b69c2b068fc378daa952ba7f163c4a11628f55a4df523b3ef",
                        "0x0000000000000000000000001d6432aefeae2c0ff1393120541863822a4e6fa7",
                        "0x000000000000000000000000ed196f5f01e8c99ef4c6d77b83ccaf629032a8f2"
                    ]
                },
                "nodeType": 1
            },
            "9": {
                "invocation": {
                    "address": "0x28cb7e841ee97947a86b06fa4090c8451f64c0be",
                    "callData": "0x0000000000000000000000001d6432aefeae2c0ff1393120541863822a4e6fa7",
                    "decodedMethod": {
                        "callParams": [
                            {
                                "name": "account",
                                "type": "address",
                                "value": "0x1d6432aefeae2c0ff1393120541863822a4e6fa7"
                            }
                        ],
                        "constructorArguments": "",
                        "name": "balanceOf",
                        "returnParams": [
                            {
                                "decimalAvailable": true,
                                "name": "",
                                "type": "uint256",
                                "value": "1,894,153,208,914,901,054,120"
                            }
                        ],
                        "signature": "balanceOf(address)"
                    },
                    "errorInfo": "",
                    "fromAddress": "0x1d6432aefeae2c0ff1393120541863822a4e6fa7",
                    "gasUsed": 1190,
                    "id": 9,
                    "methodDecoded": true,
                    "operation": "STATICCALL",
                    "output": "0x000000000000000000000000000000000000000000000066aea803dab2f1b2a8",
                    "revert": false,
                    "revertMessage": "",
                    "selector": "0x70a08231",
                    "status": true,
                    "value": "0"
                },
                "nodeType": 0
            }
        },
        "gasFlame": [
            {
                "children": [
                    {
                        "children": [
                            {
                                "children": [],
                                "depth": 0,
                                "name": "Initial Gas",
                                "value": 23440
                            },
                            {
                                "children": [
                                    {
                                        "children": [],
                                        "depth": 1,
                                        "name": "getReserves",
                                        "value": 1204
                                    },
                                    {
                                        "children": [],
                                        "depth": 1,
                                        "name": "getReserves",
                                        "value": 1204
                                    },
                                    {
                                        "children": [],
                                        "depth": 1,
                                        "name": "transferFrom",
                                        "value": 22837
                                    },
                                    {
                                        "children": [
                                            {
                                                "children": [],
                                                "depth": 2,
                                                "name": "transfer",
                                                "value": 15162
                                            },
                                            {
                                                "children": [],
                                                "depth": 2,
                                                "name": "balanceOf",
                                                "value": 1190
                                            },
                                            {
                                                "children": [],
                                                "depth": 2,
                                                "name": "balanceOf",
                                                "value": 1234
                                            }
                                        ],
                                        "depth": 1,
                                        "name": "swap",
                                        "value": 56609
                                    },
                                    {
                                        "children": [
                                            {
                                                "children": [],
                                                "depth": 2,
                                                "name": "transfer",
                                                "value": 31625
                                            },
                                            {
                                                "children": [],
                                                "depth": 2,
                                                "name": "balanceOf",
                                                "value": 1367
                                            },
                                            {
                                                "children": [],
                                                "depth": 2,
                                                "name": "balanceOf",
                                                "value": 1234
                                            }
                                        ],
                                        "depth": 1,
                                        "name": "swap",
                                        "value": 73249
                                    }
                                ],
                                "depth": 0,
                                "name": "Executed Gas",
                                "value": 173251
                            }
                        ],
                        "depth": -1,
                        "name": "Actual Gas Used",
                        "value": 188291
                    },
                    {
                        "children": [],
                        "depth": -1,
                        "name": "Refunded Gas",
                        "value": 8400
                    }
                ],
                "depth": -2,
                "name": "Total Gas",
                "value": 196691
            }
        ],
        "isConfirmed": true,
        "mainTrace": [
            {
                "children": [
                    {
                        "children": [
                            {
                                "children": [],
                                "depth": 1,
                                "id": 1,
                                "order": 1
                            },
                            {
                                "children": [],
                                "depth": 1,
                                "id": 2,
                                "order": 2
                            },
                            {
                                "children": [
                                    {
                                        "children": [],
                                        "depth": 2,
                                        "id": 4,
                                        "order": 4
                                    },
                                    {
                                        "children": [],
                                        "depth": 2,
                                        "id": 5,
                                        "order": 5
                                    }
                                ],
                                "depth": 1,
                                "id": 3,
                                "order": 3
                            },
                            {
                                "children": [
                                    {
                                        "children": [
                                            {
                                                "children": [],
                                                "depth": 3,
                                                "id": 8,
                                                "order": 8
                                            }
                                        ],
                                        "depth": 2,
                                        "id": 7,
                                        "order": 7
                                    },
                                    {
                                        "children": [],
                                        "depth": 2,
                                        "id": 9,
                                        "order": 9
                                    },
                                    {
                                        "children": [],
                                        "depth": 2,
                                        "id": 10,
                                        "order": 10
                                    },
                                    {
                                        "children": [],
                                        "depth": 2,
                                        "id": 11,
                                        "order": 11
                                    },
                                    {
                                        "children": [],
                                        "depth": 2,
                                        "id": 12,
                                        "order": 12
                                    }
                                ],
                                "depth": 1,
                                "id": 6,
                                "order": 6
                            },
                            {
                                "children": [
                                    {
                                        "children": [
                                            {
                                                "children": [],
                                                "depth": 3,
                                                "id": 15,
                                                "order": 15
                                            }
                                        ],
                                        "depth": 2,
                                        "id": 14,
                                        "order": 14
                                    },
                                    {
                                        "children": [],
                                        "depth": 2,
                                        "id": 16,
                                        "order": 16
                                    },
                                    {
                                        "children": [],
                                        "depth": 2,
                                        "id": 17,
                                        "order": 17
                                    },
                                    {
                                        "children": [],
                                        "depth": 2,
                                        "id": 18,
                                        "order": 18
                                    },
                                    {
                                        "children": [],
                                        "depth": 2,
                                        "id": 19,
                                        "order": 19
                                    }
                                ],
                                "depth": 1,
                                "id": 13,
                                "order": 13
                            }
                        ],
                        "depth": 0,
                        "id": 0,
                        "order": 0
                    }
                ],
                "depth": -1,
                "id": -1,
                "order": -1
            }
        ],
        "mainTraceNodeCount": 20,
        "parentIdMap": {
            "0": -1,
            "1": 0,
            "10": 6,
            "11": 6,
            "12": 6,
            "13": 0,
            "14": 13,
            "15": 14,
            "16": 13,
            "17": 13,
            "18": 13,
            "19": 13,
            "2": 0,
            "3": 0,
            "4": 3,
            "5": 3,
            "6": 0,
            "7": 6,
            "8": 7,
            "9": 6
        },
        "tidyTrace": [
            {
                "children": [
                    {
                        "children": [
                            {
                                "children": [
                                    {
                                        "children": [],
                                        "depth": 2,
                                        "id": 4,
                                        "order": 4
                                    },
                                    {
                                        "children": [],
                                        "depth": 2,
                                        "id": 5,
                                        "order": 5
                                    }
                                ],
                                "depth": 1,
                                "id": 3,
                                "order": 3
                            },
                            {
                                "children": [
                                    {
                                        "children": [
                                            {
                                                "children": [],
                                                "depth": 3,
                                                "id": 8,
                                                "order": 8
                                            }
                                        ],
                                        "depth": 2,
                                        "id": 7,
                                        "order": 7
                                    },
                                    {
                                        "children": [],
                                        "depth": 2,
                                        "id": 11,
                                        "order": 11
                                    },
                                    {
                                        "children": [],
                                        "depth": 2,
                                        "id": 12,
                                        "order": 12
                                    }
                                ],
                                "depth": 1,
                                "id": 6,
                                "order": 6
                            },
                            {
                                "children": [
                                    {
                                        "children": [
                                            {
                                                "children": [],
                                                "depth": 3,
                                                "id": 15,
                                                "order": 15
                                            }
                                        ],
                                        "depth": 2,
                                        "id": 14,
                                        "order": 14
                                    },
                                    {
                                        "children": [],
                                        "depth": 2,
                                        "id": 18,
                                        "order": 18
                                    },
                                    {
                                        "children": [],
                                        "depth": 2,
                                        "id": 19,
                                        "order": 19
                                    }
                                ],
                                "depth": 1,
                                "id": 13,
                                "order": 13
                            }
                        ],
                        "depth": 0,
                        "id": 0,
                        "order": 0
                    }
                ],
                "depth": -1,
                "id": -1,
                "order": -1
            }
        ],
        "tidyTraceNodeCount": 14
    },
    "state_change": {
        "stateChanges": [
            {
                "address": "0x1d6432aefeae2c0ff1393120541863822a4e6fa7",
                "erc": "ERC-20",
                "slots": [
                    {
                        "current": "0x0000000000000000000000000000012ead3db02e795d9f8b801e943e740c4a49",
                        "key": "0x000000000000000000000000000000000000000000000000000000000000000a",
                        "prev": "0x0000000000000000000000000000012ea507ee4daf10d1a6a8bf7de25f5ca48d"
                    },
                    {
                        "current": "0x5f9ef9e2000000000063b25bd41d49552218000000000066aea803dab2f1b2a8",
                        "key": "0x0000000000000000000000000000000000000000000000000000000000000008",
                        "prev": "0x5f9ef1e8000000000063bacd1d131532984d000000000066a5f00cda0df466c8"
                    },
                    {
                        "current": "0x00000000000000000000000000000075876f09bcc9196ade675f65f6b297fee9",
                        "key": "0x0000000000000000000000000000000000000000000000000000000000000009",
                        "prev": "0x000000000000000000000000000000757faf18aa3e2836049bf7c09a488c7f7f"
                    }
                ],
                "storageVariables": [
                    {
                        "name": "price1CumulativeLast",
                        "type": "uint256",
                        "value": {
                            "current": "102995551556888723624506191665748104727113",
                            "prev": "102984638608874171221038337449978658333837",
                            "typeTag": 1
                        }
                    },
                    {
                        "name": "reserve0",
                        "type": "uint112",
                        "value": {
                            "current": "1894153208914901054120",
                            "prev": "1893524966659719456456",
                            "typeTag": 1
                        }
                    },
                    {
                        "name": "reserve1",
                        "type": "uint112",
                        "value": {
                            "current": "1839079762481126908440",
                            "prev": "1839688110126323112013",
                            "typeTag": 1
                        }
                    },
                    {
                        "name": "blockTimestampLast",
                        "type": "uint32",
                        "value": {
                            "current": "1604254178",
                            "prev": "1604252136",
                            "typeTag": 1
                        }
                    },
                    {
                        "name": "price0CumulativeLast",
                        "type": "uint256",
                        "value": {
                            "current": "39993059251630879434263393068366683438825",
                            "prev": "39982758037430582933708156662514205884287",
                            "typeTag": 1
                        }
                    }
                ]
            },
            {
                "address": "0x20945ca1df56d237fd40036d47e866c7dccd2114",
                "erc": "ERC-20",
                "slots": [
                    {
                        "current": "0x000000000000000000000000000000000000000000002d8e30d954974f1dcbc6",
                        "key": "0x1b64107f614185f3f43ffdd870242509b15807cef3429f03b51b732d8076f61f",
                        "prev": "0x000000000000000000000000000000000000000000002da4e3abcc98ec15ac6d"
                    },
                    {
                        "current": "0x000000000000000000000000000000000000000000000016b2d278019cf7e0a7",
                        "key": "0x3fe0d724dbdfbbb411bd24d13caa03740801e6c3edce629d8b0876b2d9ce572b",
                        "prev": "0x0000000000000000000000000000000000000000000000000000000000000000"
                    }
                ],
                "storageVariables": [
                    {
                        "name": "_balances",
                        "type": "mapping(address => uint256)",
                        "value": {
                            "pairs": [
                                {
                                    "key": "0x936b6685bc62b3c88e2893e09cf9aa7ba2cadfc0",
                                    "value": {
                                        "current": "418713863053794336935",
                                        "prev": "0",
                                        "typeTag": 1
                                    }
                                },
                                {
                                    "key": "0xed196f5f01e8c99ef4c6d77b83ccaf629032a8f2",
                                    "value": {
                                        "current": "215129449325193401846726",
                                        "prev": "215548163188247196183661",
                                        "typeTag": 1
                                    }
                                }
                            ],
                            "typeTag": 4
                        }
                    }
                ]
            },
            {
                "address": "0x28cb7e841ee97947a86b06fa4090c8451f64c0be",
                "erc": "ERC-20",
                "slots": [
                    {
                        "current": "0x000000000000000000000000000000000000000000000066aea803dab2f1b2a8",
                        "key": "0xef82aeb5cece7d78e3bbe6f60febfb97a20c1af6246bc6d9e099d972750606d9",
                        "prev": "0x000000000000000000000000000000000000000000000066a5f00cda0df466c8"
                    },
                    {
                        "current": "0xfffffffffffffffffffffffffffffffffffffffffffffffaaac8bbd997df65ba",
                        "key": "0x49b20a3af89c633a048b9065ba05e0f76bdc9d6c51b7de268e4817207d21a325",
                        "prev": "0xfffffffffffffffffffffffffffffffffffffffffffffffab380b2da3cdcb19a"
                    },
                    {
                        "current": "0x0000000000000000000000000000000000000000000000019274b259f6540000",
                        "key": "0x3fe0d724dbdfbbb411bd24d13caa03740801e6c3edce629d8b0876b2d9ce572b",
                        "prev": "0x0000000000000000000000000000000000000000000000019b2ca95a9b514be0"
                    }
                ],
                "storageVariables": [
                    {
                        "name": "_balances",
                        "type": "mapping(address => uint256)",
                        "value": {
                            "pairs": [
                                {
                                    "key": "0x1d6432aefeae2c0ff1393120541863822a4e6fa7",
                                    "value": {
                                        "current": "1894153208914901054120",
                                        "prev": "1893524966659719456456",
                                        "typeTag": 1
                                    }
                                },
                                {
                                    "key": "0x936b6685bc62b3c88e2893e09cf9aa7ba2cadfc0",
                                    "value": {
                                        "current": "29000000000000000000",
                                        "prev": "29628242255181597664",
                                        "typeTag": 1
                                    }
                                }
                            ],
                            "typeTag": 4
                        }
                    },
                    {
                        "name": "_allowances",
                        "type": "mapping(address => mapping(address => uint256))",
                        "value": {
                            "pairs": [
                                {
                                    "key": "0x936b6685bc62b3c88e2893e09cf9aa7ba2cadfc0",
                                    "value": {
                                        "pairs": [
                                            {
                                                "key": "0x7a250d5630b4cf539739df2c5dacb4c659f2488d",
                                                "value": {
                                                    "current": "115792089237316195423570985008687907853269984665640564039359209835995892508090",
                                                    "prev": "115792089237316195423570985008687907853269984665640564039359838078251074105754",
                                                    "typeTag": 1
                                                }
                                            }
                                        ],
                                        "typeTag": 4
                                    }
                                }
                            ],
                            "typeTag": 4
                        }
                    }
                ]
            },
            {
                "address": "0xc02aaa39b223fe8d0a0e5c4f27ead9083c756cc2",
                "erc": "ERC-20",
                "slots": [
                    {
                        "current": "0x000000000000000000000000000000000000000000000063b25bd41d49552218",
                        "key": "0xeda57f0e46e74183d8de0b1b1e7fbd258ad79beaa83fe940550f84ba13e6ec76",
                        "prev": "0x000000000000000000000000000000000000000000000063bacd1d131532984d"
                    },
                    {
                        "current": "0x000000000000000000000000000000000000000000000010ed149b89b17b27eb",
                        "key": "0xfa853a41abf27a3786cfea8f9d0d2593a4ac37cdaba16e9769f08f6fdf940c4d",
                        "prev": "0x000000000000000000000000000000000000000000000010e4a35293e59db1b6"
                    }
                ],
                "storageVariables": [
                    {
                        "name": "balanceOf",
                        "type": "mapping(address => uint256)",
                        "value": {
                            "pairs": [
                                {
                                    "key": "0x1d6432aefeae2c0ff1393120541863822a4e6fa7",
                                    "value": {
                                        "current": "1839079762481126908440",
                                        "prev": "1839688110126323112013",
                                        "typeTag": 1
                                    }
                                },
                                {
                                    "key": "0xed196f5f01e8c99ef4c6d77b83ccaf629032a8f2",
                                    "value": {
                                        "current": "312231355481566423019",
                                        "prev": "311623007836370219446",
                                        "typeTag": 1
                                    }
                                }
                            ],
                            "typeTag": 4
                        }
                    }
                ]
            },
            {
                "address": "0xed196f5f01e8c99ef4c6d77b83ccaf629032a8f2",
                "erc": "ERC-20",
                "slots": [
                    {
                        "current": "0x0000000000000000000000000000000001a42f35a04aa1ada91a368008fbf6ab",
                        "key": "0x0000000000000000000000000000000000000000000000000000000000000009",
                        "prev": "0x0000000000000000000000000000000001a42b2368f416bd8b161569813e0a70"
                    },
                    {
                        "current": "0x0000000000000000000000000000105c315ad3446ae7a5c60f67fe94ec7c1f2d",
                        "key": "0x000000000000000000000000000000000000000000000000000000000000000a",
                        "prev": "0x0000000000000000000000000000105c13a22d5cf008dc35fbc6219a78bb71cf"
                    },
                    {
                        "current": "0x5f9ef9e2000000000010ed149b89b17b27eb000000002d8e30d954974f1dcbc6",
                        "key": "0x0000000000000000000000000000000000000000000000000000000000000008",
                        "prev": "0x5f9ef9d7000000000010e4a35293e59db1b6000000002da4e3abcc98ec15ac6d"
                    }
                ],
                "storageVariables": [
                    {
                        "name": "price0CumulativeLast",
                        "type": "uint256",
                        "value": {
                            "current": "2181722202536438075044898421776053931",
                            "prev": "2181639629664798934988185257065187952",
                            "typeTag": 1
                        }
                    },
                    {
                        "name": "price1CumulativeLast",
                        "type": "uint256",
                        "value": {
                            "current": "1425168156428410040874093573316558527930157",
                            "prev": "1425128650068972991257591463960880422285775",
                            "typeTag": 1
                        }
                    },
                    {
                        "name": "reserve0",
                        "type": "uint112",
                        "value": {
                            "current": "215129449325193401846726",
                            "prev": "215548163188247196183661",
                            "typeTag": 1
                        }
                    },
                    {
                        "name": "reserve1",
                        "type": "uint112",
                        "value": {
                            "current": "312231355481566423019",
                            "prev": "311623007836370219446",
                            "typeTag": 1
                        }
                    },
                    {
                        "name": "blockTimestampLast",
                        "type": "uint32",
                        "value": {
                            "current": "1604254178",
                            "prev": "1604254167",
                            "typeTag": 1
                        }
                    }
                ]
            }
        ]
    }
}