{
    "balance_change": {
        "balanceChanges": []
    },
    "profile": {
        "basic_info": {
            "baseFee": "",
            "blockNumber": 7199738,
            "callData": "0x9f744745000000000000000000000000a26ec9ffe80d85073bdbdb3aa0298666a204629900000000000000000000000040b469b080c4b034091448d0e59880d823b2fc1800000000000000000000000040b469b080c4b034091448d0e59880d823b2fc1800000000000000000000000000000000000000000000000000000000000000000000000000000000000000000000000000000000000000000000000000000120d29ec6eaf2ac388f4334f0b9828cbd2b657b8c0301840e328a0c6e9e66758dc2f725c7e75537d703fab25b4ee57aa890272343e24665ced6d7127f58f621ac7300000000000000000000000000000000000000000000000000000000000001a000000000000000000000000000000000000000000000000000000000000002200000000000000000000000000000000000000000000000000000000000000041c6e1e1c716031cd5ef256dc53f86fd703f9b13328354a40345769cf1df149e1d47970a8ee6d8ace24ecff64a66c225fb2278ecaa55bf5ce82fb07a781f04d5b21b00000000000000000000000000000000000000000000000000000000000000000000000000000000000000000000000000000000000000000000000000004128b7542e8e019a6ff047826ab451b18b69e2a5536353782d2f72d1cb7aa3b644765ad6093c4436266f39071e9fec59bc12c8d44bac947f84726a4f98da2956d41b000000000000000000000000000000000000000000000000000000000000000000000000000000000000000000000000000000000000000000000000000041546937a673690a3b66443a6715529274dec0d14d6221551bf7d96704bfdc6aa26f9dbd72be2b45ff88507dfff8543c070a1953bcf554a3339f5bfdc2f5d392481b00000000000000000000000000000000000000000000000000000000000000",
            "debugEnable": true,
            "errorInfo": "",
            "eventCount": 1,
            "feeRecipient": "0xb2930b35844a230f00e51431acae96fe543a0347",
            "formatValue": "0",
            "gasLimit": 500000,
            "gasPrice": "1.2",
            "gasUsed": 109273,
            "intTxnCount": 4,
            "internalRevert": false,
            "internalRevertMessage": "",
            "isContractCreation": false,
            "isFlashloan": false,
            "maxFee": "",
            "nonce": 37401,
            "overwritedBlockNumber": -1,
            "priorityFee": "",
            "receiver": "0xceec7aaa57e3a77c73a9954b9b7d5b32ab688318",
            "revertMessage": "",
            "sender": "0xa83996cace93b2af6c54222a51da5dbda8526172",
            "simulationEnable": true,
            "sourceTxnHash": "0x1c93294090e934fbdc8d99ecfd77ab5405c30ed43d84d9ac49323c9d98833a9d",
            "status": true,
            "timestamp": "2019-02-09T21:30:19Z",
            "transactionFee": "0.0001311276",
            "txnHash": "0x1c93294090e934fbdc8d99ecfd77ab5405c30ed43d84d9ac49323c9d98833a9d",
            "txnIndex": 38,
            "type": 0,
            "value": "0"
        },
        "fund_flow": [],
        "token_infos": [
            {
                "address": "0xc02aaa39b223fe8d0a0e5c4f27ead9083c756cc2",
                "decimals": 18
            },
            {
                "address": "0xeeeeeeeeeeeeeeeeeeeeeeeeeeeeeeeeeeeeeeee",
                "decimals": 18
            }
        ]
    },
    "address_label": {
        "labels": [
            {
                "address": "0xeeeeeeeeeeeeeeeeeeeeeeeeeeeeeeeeeeeeeeee",
                "label": "Ether"
            },
            {
                "address": "0xceec7aaa57e3a77c73a9954b9b7d5b32ab688318",
                "label": "Bloom: Attestation Logic"
            },
            {
                "address": "0x0000000000000000000000000000000000000001",
                "label": "Precompiled"
            },
            {
                "address": "0x0000000000000000000000000000000000000002",
                "label": "Precompiled"
            },
            {
                "address": "0x0000000000000000000000000000000000000003",
                "label": "Precompiled"
            },
            {
                "address": "0x0000000000000000000000000000000000000004",
                "label": "Precompiled"
            }
        ]
    },
    "trace": {
        "accountLabels": null,
        "dataMap": {
            "-1": {
                "invocation": {
                    "address": "0xa83996cace93b2af6c54222a51da5dbda8526172",
                    "callData": "",
                    "decodedMethod": null,
                    "errorInfo": "",
                    "fromAddress": "",
                    "gasUsed": 0,
                    "id": -1,
                    "methodDecoded": false,
                    "operation": "",
                    "output": "",
                    "revert": false,
                    "revertMessage": "",
                    "selector": "",
                    "status": false,
                    "value": ""
                },
                "nodeType": 0
            },
            "0": {
                "invocation": {
                    "address": "0xceec7aaa57e3a77c73a9954b9b7d5b32ab688318",
                    "callData": "0x000000000000000000000000a26ec9ffe80d85073bdbdb3aa0298666a204629900000000000000000000000040b469b080c4b034091448d0e59880d823b2fc1800000000000000000000000040b469b080c4b034091448d0e59880d823b2fc1800000000000000000000000000000000000000000000000000000000000000000000000000000000000000000000000000000000000000000000000000000120d29ec6eaf2ac388f4334f0b9828cbd2b657b8c0301840e328a0c6e9e66758dc2f725c7e75537d703fab25b4ee57aa890272343e24665ced6d7127f58f621ac7300000000000000000000000000000000000000000000000000000000000001a000000000000000000000000000000000000000000000000000000000000002200000000000000000000000000000000000000000000000000000000000000041c6e1e1c716031cd5ef256dc53f86fd703f9b13328354a40345769cf1df149e1d47970a8ee6d8ace24ecff64a66c225fb2278ecaa55bf5ce82fb07a781f04d5b21b00000000000000000000000000000000000000000000000000000000000000000000000000000000000000000000000000000000000000000000000000004128b7542e8e019a6ff047826ab451b18b69e2a5536353782d2f72d1cb7aa3b644765ad6093c4436266f39071e9fec59bc12c8d44bac947f84726a4f98da2956d41b000000000000000000000000000000000000000000000000000000000000000000000000000000000000000000000000000000000000000000000000000041546937a673690a3b66443a6715529274dec0d14d6221551bf7d96704bfdc6aa26f9dbd72be2b45ff88507dfff8543c070a1953bcf554a3339f5bfdc2f5d392481b00000000000000000000000000000000000000000000000000000000000000",
                    "decodedMethod": {
                        "callParams": [
                            {
                                "name": "_subject",
                                "type": "address",
                                "value": "0xa26ec9ffe80d85073bdbdb3aa0298666a2046299"
                            },
                            {
                                "name": "_attester",
                                "type": "address",
                                "value": "0x40b469b080c4b034091448d0e59880d823b2fc18"
                            },
                            {
                                "name": "_requester",
                                "type": "address",
                                "value": "0x40b469b080c4b034091448d0e59880d823b2fc18"
                            },
                            {
                                "name": "_reward",
                                "type": "uint256",
                                "value": "0"
                            },
                            {
                                "name": "_requesterSig",
                                "type": "bytes",
                                "value": "0xc6e1e1c716031cd5ef256dc53f86fd703f9b13328354a40345769cf1df149e1d47970a8ee6d8ace24ecff64a66c225fb2278ecaa55bf5ce82fb07a781f04d5b21b"
                            },
                            {
                                "name": "_dataHash",
                                "type": "bytes32",
                                "value": "0xd29ec6eaf2ac388f4334f0b9828cbd2b657b8c0301840e328a0c6e9e66758dc2"
                            },
                            {
                                "name": "_requestNonce",
                                "type": "bytes32",
                                "value": "0xf725c7e75537d703fab25b4ee57aa890272343e24665ced6d7127f58f621ac73"
                            },
                            {
                                "name": "_subjectSig",
                                "type": "bytes",
                                "value": "0x28b7542e8e019a6ff047826ab451b18b69e2a5536353782d2f72d1cb7aa3b644765ad6093c4436266f39071e9fec59bc12c8d44bac947f84726a4f98da2956d41b"
                            },
                            {
                                "name": "_delegationSig",
                                "type": "bytes",
                                "value": "0x546937a673690a3b66443a6715529274dec0d14d6221551bf7d96704bfdc6aa26f9dbd72be2b45ff88507dfff8543c070a1953bcf554a3339f5bfdc2f5d392481b"
                            }
                        ],
                        "constructorArguments": "",
                        "name": "attestFor",
                        "returnParams": [],
                        "signature": "attestFor(address,address,address,uint256,bytes,bytes32,bytes32,bytes,bytes)"
                    },
                    "errorInfo": "",
                    "fromAddress": "0xa83996cace93b2af6c54222a51da5dbda8526172",
                    "gasUsed": 109273,
                    "id": 0,
                    "methodDecoded": true,
                    "operation": "CALL",
                    "output": "",
                    "revert": false,
                    "revertMessage": "",
                    "selector": "0x9f744745",
                    "status": true,
                    "value": "0"
                },
                "nodeType": 0
            },
            "1": {
                "invocation": {
                    "address": "0x7a75cb349d9a9d4c2d3eb8a22cb3090222d8557b",
                    "callData": "0xa8039fa6a419293ed7cc33eb43af82165fbbffca69d9ae6d01b00091a88330b800000000000000000000000000000000000000000000000000000000000000400000000000000000000000000000000000000000000000000000000000000041546937a673690a3b66443a6715529274dec0d14d6221551bf7d96704bfdc6aa26f9dbd72be2b45ff88507dfff8543c070a1953bcf554a3339f5bfdc2f5d392481b00000000000000000000000000000000000000000000000000000000000000",
                    "decodedMethod": {
                        "callParams": [
                            {
                                "name": "hash",
                                "type": "bytes32",
                                "value": "0xa8039fa6a419293ed7cc33eb43af82165fbbffca69d9ae6d01b00091a88330b8"
                            },
                            {
                                "name": "signature",
                                "type": "bytes",
                                "value": "0x546937a673690a3b66443a6715529274dec0d14d6221551bf7d96704bfdc6aa26f9dbd72be2b45ff88507dfff8543c070a1953bcf554a3339f5bfdc2f5d392481b"
                            }
                        ],
                        "constructorArguments": "",
                        "name": "recover",
                        "returnParams": [
                            {
                                "name": "",
                                "type": "address",
                                "value": "0x40b469b080c4b034091448d0e59880d823b2fc18"
                            }
                        ],
                        "signature": "recover(bytes32,bytes)"
                    },
                    "errorInfo": "",
                    "fromAddress": "0xceec7aaa57e3a77c73a9954b9b7d5b32ab688318",
                    "gasUsed": 4651,
                    "id": 1,
                    "methodDecoded": true,
                    "operation": "DELEGATECALL",
                    "output": "0x00000000000000000000000040b469b080c4b034091448d0e59880d823b2fc18",
                    "revert": false,
                    "revertMessage": "",
                    "selector": "0x19045a25",
                    "status": true,
                    "value": "0"
                },
                "nodeType": 0
            },
            "2": {
                "invocation": {
                    "address": "0x0000000000000000000000000000000000000001",
                    "callData": "0xa419293ed7cc33eb43af82165fbbffca69d9ae6d01b00091a88330b8000000000000000000000000000000000000000000000000000000000000001b546937a673690a3b66443a6715529274dec0d14d6221551bf7d96704bfdc6aa26f9dbd72be2b45ff88507dfff8543c070a1953bcf554a3339f5bfdc2f5d39248",
                    "decodedMethod": {
                        "callParams": [
                            {
                                "name": "hash",
                                "type": "bytes32",
                                "value": "0xa8039fa6a419293ed7cc33eb43af82165fbbffca69d9ae6d01b00091a88330b8"
                            },
                            {
                                "name": "v",
                                "type": "uint256",
                                "value": "27"
                            },
                            {
                                "name": "r",
                                "type": "bytes32",
                                "value": "0x546937a673690a3b66443a6715529274dec0d14d6221551bf7d96704bfdc6aa2"
                            },
                            {
                                "name": "s",
                                "type": "bytes32",
                                "value": "0x6f9dbd72be2b45ff88507dfff8543c070a1953bcf554a3339f5bfdc2f5d39248"
                            }
                        ],
                        "constructorArguments": "",
                        "name": "ecrecover",
                        "returnParams": [
                            {
                                "name": "",
                                "type": "address",
                                "value": "0x40b469b080c4b034091448d0e59880d823b2fc18"
                            }
                        ],
                        "signature": "ecrecover(bytes32,uint256,bytes32,bytes32)"
                    },
                    "errorInfo": "",
                    "fromAddress": "0xceec7aaa57e3a77c73a9954b9b7d5b32ab688318",
                    "gasUsed": 3000,
                    "id": 2,
                    "methodDecoded": true,
                    "operation": "CALL",
                    "output": "0x00000000000000000000000040b469b080c4b034091448d0e59880d823b2fc18",
                    "revert": false,
                    "revertMessage": "",
                    "selector": "0xa8039fa6",
                    "status": true,
                    "value": "0"
                },
                "nodeType": 0
            },
            "3": {
                "invocation": {
                    "address": "0x7a75cb349d9a9d4c2d3eb8a22cb3090222d8557b",
                    "callData": "0xcdd71d92c696a6497d84bfeecdceb38132ba1ac271b05d5644ca26f81eb624c00000000000000000000000000000000000000000000000000000000000000040000000000000000000000000000000000000000000000000000000000000004128b7542e8e019a6ff047826ab451b18b69e2a5536353782d2f72d1cb7aa3b644765ad6093c4436266f39071e9fec59bc12c8d44bac947f84726a4f98da2956d41b00000000000000000000000000000000000000000000000000000000000000",
                    "decodedMethod": {
                        "callParams": [
                            {
                                "name": "hash",
                                "type": "bytes32",
                                "value": "0xcdd71d92c696a6497d84bfeecdceb38132ba1ac271b05d5644ca26f81eb624c0"
                            },
                            {
                                "name": "signature",
                                "type": "bytes",
                                "value": "0x28b7542e8e019a6ff047826ab451b18b69e2a5536353782d2f72d1cb7aa3b644765ad6093c4436266f39071e9fec59bc12c8d44bac947f84726a4f98da2956d41b"
                            }
                        ],
                        "constructorArguments": "",
                        "name": "recover",
                        "returnParams": [
                            {
                                "name": "",
                                "type": "address",
                                "value": "0xa26ec9ffe80d85073bdbdb3aa0298666a2046299"
                            }
                        ],
                        "signature": "recover(bytes32,bytes)"
                    },
                    "errorInfo": "",
                    "fromAddress": "0xceec7aaa57e3a77c73a9954b9b7d5b32ab688318",
                    "gasUsed": 4651,
                    "id": 3,
                    "methodDecoded": true,
                    "operation": "DELEGATECALL",
                    "output": "0x000000000000000000000000a26ec9ffe80d85073bdbdb3aa0298666a2046299",
                    "revert": false,
                    "revertMessage": "",
                    "selector": "0x19045a25",
                    "status": true,
                    "value": "0"
                },
                "nodeType": 0
            },
            "4": {
                "invocation": {
                    "address": "0x0000000000000000000000000000000000000001",
                    "callData": "0xc696a6497d84bfeecdceb38132ba1ac271b05d5644ca26f81eb624c0000000000000000000000000000000000000000000000000000000000000001b28b7542e8e019a6ff047826ab451b18b69e2a5536353782d2f72d1cb7aa3b644765ad6093c4436266f39071e9fec59bc12c8d44bac947f84726a4f98da2956d4",
                    "decodedMethod": {
                        "callParams": [
                            {
                                "name": "hash",
                                "type": "bytes32",
                                "value": "0xcdd71d92c696a6497d84bfeecdceb38132ba1ac271b05d5644ca26f81eb624c0"
                            },
                            {
                                "name": "v",
                                "type": "uint256",
                                "value": "27"
                            },
                            {
                                "name": "r",
                                "type": "bytes32",
                                "value": "0x28b7542e8e019a6ff047826ab451b18b69e2a5536353782d2f72d1cb7aa3b644"
                            },
                            {
                                "name": "s",
                                "type": "bytes32",
                                "value": "0x765ad6093c4436266f39071e9fec59bc12c8d44bac947f84726a4f98da2956d4"
                            }
                        ],
                        "constructorArguments": "",
                        "name": "ecrecover",
                        "returnParams": [
                            {
                                "name": "",
                                "type": "address",
                                "value": "0xa26ec9ffe80d85073bdbdb3aa0298666a2046299"
                            }
                        ],
                        "signature": "ecrecover(bytes32,uint256,bytes32,bytes32)"
                    },
                    "errorInfo": "",
                    "fromAddress": "0xceec7aaa57e3a77c73a9954b9b7d5b32ab688318",
                    "gasUsed": 3000,
                    "id": 4,
                    "methodDecoded": true,
                    "operation": "CALL",
                    "output": "0x000000000000000000000000a26ec9ffe80d85073bdbdb3aa0298666a2046299",
                    "revert": false,
                    "revertMessage": "",
                    "selector": "0xcdd71d92",
                    "status": true,
                    "value": "0"
                },
                "nodeType": 0
            },
            "5": {
                "event": {
                    "contract": "0xceec7aaa57e3a77c73a9954b9b7d5b32ab688318",
                    "decodedLog": {
                        "name": "TraitAttested",
                        "params": [
                            {
                                "name": "subject",
                                "type": "address",
                                "value": "0xa26ec9ffe80d85073bdbdb3aa0298666a2046299"
                            },
                            {
                                "name": "attester",
                                "type": "address",
                                "value": "0x40b469b080c4b034091448d0e59880d823b2fc18"
                            },
                            {
                                "name": "requester",
                                "type": "address",
                                "value": "0x40b469b080c4b034091448d0e59880d823b2fc18"
                            },
                            {
                                "name": "dataHash",
                                "type": "bytes32",
                                "value": "0xd29ec6eaf2ac388f4334f0b9828cbd2b657b8c0301840e328a0c6e9e66758dc2"
                            }
                        ],
                        "signature": "TraitAttested(address,address,address,bytes32)"
                    },
                    "id": 5,
                    "logData": "0x000000000000000000000000a26ec9ffe80d85073bdbdb3aa0298666a204629900000000000000000000000040b469b080c4b034091448d0e59880d823b2fc1800000000000000000000000040b469b080c4b034091448d0e59880d823b2fc18d29ec6eaf2ac388f4334f0b9828cbd2b657b8c0301840e328a0c6e9e66758dc2",
                    "logDecoded": true,
                    "operation": "EVENT",
                    "revert": false,
                    "status": true,
                    "topics": [
                        "0x53931139c48182587fa8ce0ac76dd9cd86655899a636bffdce8138a0cdb2c1b5"
                    ]
                },
                "nodeType": 1
            }
        },
        "gasFlame": [
            {
                "children": [
                    {
                        "children": [
                            {
                                "children": [],
                                "depth": 0,
                                "name": "Initial Gas",
                                "value": 44952
                            },
                            {
                                "children": [
                                    {
                                        "children": [
                                            {
                                                "children": [],
                                                "depth": 2,
                                                "name": "ecrecover",
                                                "value": 3000
                                            }
                                        ],
                                        "depth": 1,
                                        "name": "recover",
                                        "value": 4651
                                    },
                                    {
                                        "children": [
                                            {
                                                "children": [],
                                                "depth": 2,
                                                "name": "ecrecover",
                                                "value": 3000
                                            }
                                        ],
                                        "depth": 1,
                                        "name": "recover",
                                        "value": 4651
                                    }
                                ],
                                "depth": 0,
                                "name": "Executed Gas",
                                "value": 64321
                            }
                        ],
                        "depth": -1,
                        "name": "Actual Gas Used",
                        "value": 109273
                    },
                    {
                        "children": [],
                        "depth": -1,
                        "name": "Refunded Gas",
                        "value": 0
                    }
                ],
                "depth": -2,
                "name": "Total Gas",
                "value": 109273
            }
        ],
        "isConfirmed": true,
        "mainTrace": [
            {
                "children": [
                    {
                        "children": [
                            {
                                "children": [
                                    {
                                        "children": [],
                                        "depth": 2,
                                        "id": 2,
                                        "order": 2
                                    }
                                ],
                                "depth": 1,
                                "id": 1,
                                "order": 1
                            },
                            {
                                "children": [
                                    {
                                        "children": [],
                                        "depth": 2,
                                        "id": 4,
                                        "order": 4
                                    }
                                ],
                                "depth": 1,
                                "id": 3,
                                "order": 3
                            },
                            {
                                "children": [],
                                "depth": 1,
                                "id": 5,
                                "order": 5
                            }
                        ],
                        "depth": 0,
                        "id": 0,
                        "order": 0
                    }
                ],
                "depth": -1,
                "id": -1,
                "order": -1
            }
        ],
        "mainTraceNodeCount": 6,
        "parentIdMap": {
            "0": -1,
            "1": 0,
            "2": 1,
            "3": 0,
            "4": 3,
            "5": 0
        },
        "tidyTrace": [
            {
                "children": [
                    {
                        "children": [
                            {
                                "children": [
                                    {
                                        "children": [],
                                        "depth": 2,
                                        "id": 2,
                                        "order": 2
                                    }
                                ],
                                "depth": 1,
                                "id": 1,
                                "order": 1
                            },
                            {
                                "children": [
                                    {
                                        "children": [],
                                        "depth": 2,
                                        "id": 4,
                                        "order": 4
                                    }
                                ],
                                "depth": 1,
                                "id": 3,
                                "order": 3
                            },
                            {
                                "children": [],
                                "depth": 1,
                                "id": 5,
                                "order": 5
                            }
                        ],
                        "depth": 0,
                        "id": 0,
                        "order": 0
                    }
                ],
                "depth": -1,
                "id": -1,
                "order": -1
            }
        ],
        "tidyTraceNodeCount": 6
    },
    "state_change": {
        "stateChanges": [
            {
                "address": "0xceec7aaa57e3a77c73a9954b9b7d5b32ab688318",
                "erc": "",
                "slots": [
                    {
                        "current": "0x0000000000000000000000000000000000000000000000000000000000000001",
                        "key": "0xaa945825ab75670bd4c15bfd0250b41696b1bb2656fc7684b9f936c1c0060710",
                        "prev": "0x0000000000000000000000000000000000000000000000000000000000000000"
                    },
                    {
                        "current": "0x0000000000000000000000000000000000000000000000000000000000000001",
                        "key": "0xf448cc2b0499cb99d7154c8bfe4b3be4328c09385846a8fb2372e9644fa43a47",
                        "prev": "0x0000000000000000000000000000000000000000000000000000000000000000"
                    }
                ],
                "storageVariables": [
                    {
                        "name": "usedSignatures",
                        "type": "mapping(bytes32 => bool)",
                        "value": {
                            "pairs": [
                                {
                                    "key": "0x13dbd5d409cc498651c61aa0119f50364fd40c6790f7966be6da2e489e32754e",
                                    "value": {
                                        "current": "true",
                                        "prev": "false",
                                        "typeTag": 1
                                    }
                                },
                                {
                                    "key": "0xcbe4f094d0a4bd4dd750d27e1ff23b0fa8c2a090ab5e6b60d413327c1909cff8",
                                    "value": {
                                        "current": "true",
                                        "prev": "false",
                                        "typeTag": 1
                                    }
                                }
                            ],
                            "typeTag": 4
                        }
                    }
                ]
            }
        ]
    }
}