{
    "balance_change": {
        "balanceChanges": [
            {
                "account": "0x8f28d3bd8c51f251fe3c422d203053234af40583",
                "assets": [
                    {
                        "address": "0xeeeeeeeeeeeeeeeeeeeeeeeeeeeeeeeeeeeeeeee",
                        "amount": "0.724373079646088727",
                        "iconUrl": "https://assets.blocksec.com/image/1663669189317-3.png",
                        "isERC1155": false,
                        "isERC721": false,
                        "sign": true,
                        "value": ""
                    },
                    {
                        "address": "0xa7de087329bfcda5639247f96140f9dabe3deed1",
                        "amount": "1,585.258494585560216552",
                        "iconUrl": "",
                        "isERC1155": false,
                        "isERC721": false,
                        "sign": false,
                        "value": ""
                    }
                ]
            },
            {
                "account": "0x6ae23c5edaad107026a3dabb74396e1ff4d5695d",
                "assets": [
                    {
                        "address": "0xeeeeeeeeeeeeeeeeeeeeeeeeeeeeeeeeeeeeeeee",
                        "amount": "0.724373079646088727",
                        "iconUrl": "https://assets.blocksec.com/image/1663669189317-3.png",
                        "isERC1155": false,
                        "isERC721": false,
                        "sign": false,
                        "value": ""
                    },
                    {
                        "address": "0xa7de087329bfcda5639247f96140f9dabe3deed1",
                        "amount": "1,569.405909639704614386",
                        "iconUrl": "",
                        "isERC1155": false,
                        "isERC721": false,
                        "sign": true,
                        "value": ""
                    }
                ]
            },
            {
                "account": "0x0000000000000000000000000000000000000000",
                "assets": [
                    {
                        "address": "0xa7de087329bfcda5639247f96140f9dabe3deed1",
                        "amount": "15.852584945855602166",
                        "iconUrl": "",
                        "isERC1155": false,
                        "isERC721": false,
                        "sign": true,
                        "value": ""
                    }
                ]
            }
        ]
    },
    "profile": {
        "basic_info": {
            "baseFee": "",
            "blockNumber": 10207794,
            "callData": "0x95e3c50b000000000000000000000000000000000000000000000055efe189c41ed1b3e80000000000000000000000000000000000000000000000000a009f6920acd06c000000000000000000000000000000000000000000000000000000005edaa94b",
            "debugEnable": true,
            "errorInfo": "",
            "eventCount": 3,
            "feeRecipient": "0x64dc5acba24d6f6eff6781ac4fecec79c091ad02",
            "formatValue": "0",
            "gasLimit": 85915,
            "gasPrice": "20",
            "gasUsed": 62263,
            "intTxnCount": 4,
            "internalRevert": false,
            "internalRevertMessage": "",
            "isContractCreation": false,
            "isFlashloan": false,
            "maxFee": "",
            "nonce": 22,
            "overwritedBlockNumber": -1,
            "priorityFee": "",
            "receiver": "0x6ae23c5edaad107026a3dabb74396e1ff4d5695d",
            "revertMessage": "",
            "sender": "0x8f28d3bd8c51f251fe3c422d203053234af40583",
            "simulationEnable": true,
            "sourceTxnHash": "0x1c23227cf7d0739121f9b81a60b7e5a1dca1082e84d52af278602958a60a35b2",
            "status": true,
            "timestamp": "2020-06-05T20:06:49Z",
            "transactionFee": "0.00124526",
            "txnHash": "0x1c23227cf7d0739121f9b81a60b7e5a1dca1082e84d52af278602958a60a35b2",
            "txnIndex": 25,
            "type": 0,
            "value": "0"
        },
        "fund_flow": [
            {
                "amount": "0.724373079646088727",
                "from": "0x6ae23c5edaad107026a3dabb74396e1ff4d5695d",
                "id": 1,
                "isERC1155": false,
                "isERC721": false,
                "isReverted": false,
                "order": 1,
                "to": "0x8f28d3bd8c51f251fe3c422d203053234af40583",
                "token": "0xeeeeeeeeeeeeeeeeeeeeeeeeeeeeeeeeeeeeeeee"
            },
            {
                "amount": "1,569.405909639704614386",
                "from": "0x8f28d3bd8c51f251fe3c422d203053234af40583",
                "id": 2,
                "isERC1155": false,
                "isERC721": false,
                "isReverted": false,
                "order": 2,
                "to": "0x6ae23c5edaad107026a3dabb74396e1ff4d5695d",
                "token": "0xa7de087329bfcda5639247f96140f9dabe3deed1"
            },
            {
                "amount": "15.852584945855602166",
                "from": "0x8f28d3bd8c51f251fe3c422d203053234af40583",
                "id": 3,
                "isERC1155": false,
                "isERC721": false,
                "isReverted": false,
                "order": 3,
                "to": "0x0000000000000000000000000000000000000000",
                "token": "0xa7de087329bfcda5639247f96140f9dabe3deed1"
            }
        ],
        "token_infos": [
            {
                "address": "0xa7de087329bfcda5639247f96140f9dabe3deed1",
                "decimals": 18
            },
            {
                "address": "0xc02aaa39b223fe8d0a0e5c4f27ead9083c756cc2",
                "decimals": 18
            },
            {
                "address": "0xeeeeeeeeeeeeeeeeeeeeeeeeeeeeeeeeeeeeeeee",
                "decimals": 18
            }
        ]
    },
    "address_label": {
        "labels": [
            {
                "address": "0xeeeeeeeeeeeeeeeeeeeeeeeeeeeeeeeeeeeeeeee",
                "label": "Ether"
            },
            {
                "address": "0x2157a7894439191e520825fe9399ab8655e0f708",
                "label": "Uniswap Exchange Template"
            },
            {
                "address": "0x6ae23c5edaad107026a3dabb74396e1ff4d5695d",
                "label": "Uniswap: STA 10"
            },
            {
                "address": "0xa7de087329bfcda5639247f96140f9dabe3deed1",
                "label": "Statera: STA Token"
            },
            {
                "address": "0x0000000000000000000000000000000000000001",
                "label": "Precompiled"
            },
            {
                "address": "0x0000000000000000000000000000000000000002",
                "label": "Precompiled"
            },
            {
                "address": "0x0000000000000000000000000000000000000003",
                "label": "Precompiled"
            },
            {
                "address": "0x0000000000000000000000000000000000000004",
                "label": "Precompiled"
            }
        ]
    },
    "trace": {
        "accountLabels": null,
        "dataMap": {
            "-1": {
                "invocation": {
                    "address": "0x8f28d3bd8c51f251fe3c422d203053234af40583",
                    "callData": "",
                    "decodedMethod": null,
                    "errorInfo": "",
                    "fromAddress": "",
                    "gasUsed": 0,
                    "id": -1,
                    "methodDecoded": false,
                    "operation": "",
                    "output": "",
                    "revert": false,
                    "revertMessage": "",
                    "selector": "",
                    "status": false,
                    "value": ""
                },
                "nodeType": 0
            },
            "0": {
                "invocation": {
                    "address": "0x6ae23c5edaad107026a3dabb74396e1ff4d5695d",
                    "callData": "0x000000000000000000000000000000000000000000000055efe189c41ed1b3e80000000000000000000000000000000000000000000000000a009f6920acd06c000000000000000000000000000000000000000000000000000000005edaa94b",
                    "decodedMethod": {
                        "callParams": [
                            {
                                "name": "tokens_sold",
                                "type": "uint256",
                                "value": "1,585,258,494,585,560,216,552"
                            },
                            {
                                "name": "min_eth",
                                "type": "uint256",
                                "value": "720,751,214,247,858,284"
                            },
                            {
                                "name": "deadline",
                                "type": "uint256",
                                "value": "1,591,388,491"
                            }
                        ],
                        "constructorArguments": "",
                        "name": "tokenToEthSwapInput",
                        "returnParams": [
                            {
                                "name": "out",
                                "type": "uint256",
                                "value": "724,373,079,646,088,727"
                            }
                        ],
                        "signature": "tokenToEthSwapInput(uint256,uint256,uint256)"
                    },
                    "errorInfo": "",
                    "fromAddress": "0x8f28d3bd8c51f251fe3c422d203053234af40583",
                    "gasUsed": 62263,
                    "id": 0,
                    "methodDecoded": true,
                    "operation": "CALL",
                    "output": "0x0000000000000000000000000000000000000000000000000a0d7d7a61292e171ed1b3e80000000000000000000000000000000000000000000000000a009f6920acd06c000000000000000000000000000000000000000000000000000000005edaa94b000000000000000000000000000000000000000000000000000000000000000000000000000000000000000000000000000000000000000000000000000000000000000000000000000000000000000000000000000000000000000000000000000000000000000000000000000000000000000000000000000000000000000000000000000000000000000000000000000000000000000000000000000000000000000000000000000000000000000000000000000000000000000000000000000000000000000000000000000000000000000000000000000000000000000000000000000000000000000000000000000000000000000000000000000000000000000000000000000000000000000000000000000000000000000000000000000000000000000000000000000000000000000000000000000000000000000000000000000000000000000000000000000000000000000000000000000000000000000000000000000000000000000000000000000000000000000000000000000000000000000000000000000000000000000000000000000000000000000000000000000000000000000000000000000000000000000000000000000000000000000000000000000000000000000000000000000000000000000000000000000000000000000000000000000000000000000000000000000000000000000000000000000000000000000000000000000000000000000000000000000000000000000000000000000000000000000000000000000000000000000000000000000000000000000000000000000000000000000000000000000000000000000000000000000000000000000000000000000000000000000000000000000000000000000000000000000000000000000000000000000000000000000000000000000000000000000000000000000000000000000000000000000000000000000000000000000000000000000000000000000000000000000000000000000000000000000000000000000000000000000000000000000000000000000000000000000000000000000000000000000000000000000000000000000000000000000000000000000000000000000000000000000000000000000000000000000000000000000000000000000000000000000000000000000000000000000000000000000000000000000000000000000000000000000000000000000000000000000000000000000000000000000000000000000000000000000000000000000000000000000000000000000000000000000000000000000000000000000000000000000000000000000000000000000000000000000000000000000000000000000000000000000000000000000000000000000000000000000000000000000000000000000000000000000000000000000000000000000000000000000000000000000000000000000000000000000000000000000000000000000000000000000000000000000000000000000000000000000000000000000000000000000000000000000000000000000000000000000000000000000000000000000000000000000000000000000000000000000000000000000000000000000000000000000000000000000000000000000000000000000000000000000000000000000000000000000000000000000000000000000000000000000000000000000000000000000000000000000000000000000000000000000000000000000000000000000000000000000000000000000000000000000000000000000000000000000000000000000000000000000000000000000000000000000000000000000000000000000000000000000000000000000000000000000000000000000000000000000000000000000000000000000000000000000000000000000000000000000000000000000000000000000000000000000000000000000000000000000000000000000000000000000000000000000000000000000000000000000000000000000000000000000000000000000000000000000000000000000000000000000000000000000000000000000000000000000000000000000000000000000000000000000000000000000000000000000000000000000000000000000000000000000000000000000000000000000000000000000000000000000000000000000000000000000000000000000000000000000000000000000000000000000000000000000000000000000000000000000000000000000000000000000000000000000000000000000000000000000000000000000000000000000000000000000000000000000000000000000000000000000000000000000000000000000000000000000000000000000000000000000000000000000000000000000000000000000000000000000000000000000000000000000000000000000000000000000000000000000000000000000000000000000000000000000000000000000000000000000000000000000000000000000000000000000000000000000000000000000000000000000000000000000000000000000000000000000000000000000000000000000000000000000000000000000000000000000000000000000000000000000000000000000000000000000000000000000000000000000000000000000000000000000000000000000000000000000000000000000000000000000000000000000000000000000000000000000000000000000000000000000000000000000000000000000000000000000000000000000000000000000000000000000000000000000000000000000000000000000000000000000000000000000000000000000000000000000000000000000000000000000000000000000000000000000000000000000000000000000000000000000000000000000000000000000000000000000000000000000000000000000000000000000000000000000000000000000000000000000000000000000000000000000000000000000000000000000000000000000000000000000000000000000000000000000000000000000000000000000000000000000000000000000000000000000000000000000000000000000000000000000000000000000000000000000000000000000000000000000000000000000000000000000000000000000000000000000000000000000000000000000000000000000000000000000000000000000000000000000000000000000000000000000000000000000000000000000000000000000000000000000000000000000000000000000000000000000000000000000000000000000000000000000000000000000000000000000000000000000000000000000000000000000000000000000000000000000000000000000000000000000000000000000000000000000000000000000000000000000000000000000000000000000000000000000000000000000000000000000000000000000000000000000000000000000000000000000000000000000000000000000000000000000000000000000000000000000000000000000000000000000000000000000000000000000000000000000000000000000000000000000000000000000000000000000000000000000000000000000000000000000000000000000000000000000000000000000000000000000000000000000000000000000000000000000000000000000000000000000000000000000000000000000000000000000000000000000000000000000000000000000000000000000000000000000000000000000000000000000000000000000000000000000000000000000000000000000000000000000000000000000000000000000000000000000000000000000000000000000000000000000000000000000000000000000000000000000000000000000000000000000000000000000000000000000000000000000000000000000000000000000000000000000000000000000000000000000000000000000000000000000000000000000000000000000000000000000000000000000000000000000000000000000000000000000000000000000000000000000000000000000000000000000000000000000000000000000000000000000000000000000000000000000000000000000000000000000000000000000000000000000000000000000000000000000000000000000000000000000000000000000000000000000000000000000000000000000000000000000000000000000000000000000000000000000000000000000000000000000000000000000000000000000000000000000000000000000000000000000000000000000000000000000000000000000000000000000000000000000000000000000000000000000000000000000000000000000000000000000000000000000000000000000000000000000000000000000000000000000000000000000000000000000000000000000000000000000000000000000000000000000000000000000000000000000000000000000000000000000000000000000000000000000000000000000000000000000000000000000000000000000000000000000000000000000000000000000000000000000000000000000000000000000000000000000000000000000000000000000000000000000000000000000000000000000000000000000000000000000000000000000000000000000000000000000000000000000000000000000000000000000000000000000000000000000000000000000000000000000000000000000000000000000000000000000000000000000000000000000000000000000000000000000000000000000000000000000000000000000000000000000000000000000000000000000000000000000000000000000000000000000000000000000000000000000000000000000000000000000000000000000000000000000000000000000000000000000000000000000000000000000000000000000000000000000000000000000000000000000000000000000000000000000000000000000000000000000000000000000000000000000000000000000000000000000000000000000000000000000000000000000000000000000000000000000000000000000000000000000000000000000000000000000000000000000000000000000000000000000000000000000000000000000000000000000000000000000000000000000000000000000000000000000000000000000000000000000000000000000000000000000000000000000000000000000000000000000000000000000000000000000000000000000000000000000000000000000000000000000000000000000000000000000000000000000000000000000000000000000000000000000000000000000000000000000000000000000000000000000000000000000000000000",
                    "revert": false,
                    "revertMessage": "",
                    "selector": "0x95e3c50b",
                    "status": true,
                    "value": "0"
                },
                "nodeType": 0
            },
            "1": {
                "invocation": {
                    "address": "0x2157a7894439191e520825fe9399ab8655e0f708",
                    "callData": "0x000000000000000000000000000000000000000000000055efe189c41ed1b3e80000000000000000000000000000000000000000000000000a009f6920acd06c000000000000000000000000000000000000000000000000000000005edaa94b",
                    "decodedMethod": {
                        "callParams": [
                            {
                                "name": "tokens_sold",
                                "type": "uint256",
                                "value": "1,585,258,494,585,560,216,552"
                            },
                            {
                                "name": "min_eth",
                                "type": "uint256",
                                "value": "720,751,214,247,858,284"
                            },
                            {
                                "name": "deadline",
                                "type": "uint256",
                                "value": "1,591,388,491"
                            }
                        ],
                        "constructorArguments": "",
                        "name": "tokenToEthSwapInput",
                        "returnParams": [
                            {
                                "name": "out",
                                "type": "uint256",
                                "value": "724,373,079,646,088,727"
                            }
                        ],
                        "signature": "tokenToEthSwapInput(uint256,uint256,uint256)"
                    },
                    "errorInfo": "",
                    "fromAddress": "0x6ae23c5edaad107026a3dabb74396e1ff4d5695d",
                    "gasUsed": 54399,
                    "id": 1,
                    "methodDecoded": true,
                    "operation": "DELEGATECALL",
                    "output": "0x0000000000000000000000000000000000000000000000000a0d7d7a61292e17",
                    "revert": false,
                    "revertMessage": "",
                    "selector": "0x95e3c50b",
                    "status": true,
                    "value": "0"
                },
                "nodeType": 0
            },
            "2": {
                "invocation": {
                    "address": "0xa7de087329bfcda5639247f96140f9dabe3deed1",
                    "callData": "0x0000000000000000000000006ae23c5edaad107026a3dabb74396e1ff4d5695d",
                    "decodedMethod": {
                        "callParams": [
                            {
                                "name": "owner",
                                "type": "address",
                                "value": "0x6ae23c5edaad107026a3dabb74396e1ff4d5695d"
                            }
                        ],
                        "constructorArguments": "",
                        "name": "balanceOf",
                        "returnParams": [
                            {
                                "decimalAvailable": true,
                                "name": "",
                                "type": "uint256",
                                "value": "1,180,119,907,469,175,669,052,332"
                            }
                        ],
                        "signature": "balanceOf(address)"
                    },
                    "errorInfo": "",
                    "fromAddress": "0x6ae23c5edaad107026a3dabb74396e1ff4d5695d",
                    "gasUsed": 1396,
                    "id": 2,
                    "methodDecoded": true,
                    "operation": "STATICCALL",
                    "output": "0x00000000000000000000000000000000000000000000f9e66da9e3f93d5ad3ac",
                    "revert": false,
                    "revertMessage": "",
                    "selector": "0x70a08231",
                    "status": true,
                    "value": "0"
                },
                "nodeType": 0
            },
            "3": {
                "invocation": {
                    "address": "0x8f28d3bd8c51f251fe3c422d203053234af40583",
                    "callData": "0x",
                    "decodedMethod": null,
                    "errorInfo": "",
                    "fromAddress": "0x6ae23c5edaad107026a3dabb74396e1ff4d5695d",
                    "gasUsed": 0,
                    "id": 3,
                    "methodDecoded": false,
                    "operation": "CALL",
                    "output": "",
                    "revert": false,
                    "revertMessage": "",
                    "selector": "fallback",
                    "status": true,
                    "value": "0.724373079646088727"
                },
                "nodeType": 0
            },
            "4": {
                "invocation": {
                    "address": "0xa7de087329bfcda5639247f96140f9dabe3deed1",
                    "callData": "0x0000000000000000000000008f28d3bd8c51f251fe3c422d203053234af405830000000000000000000000006ae23c5edaad107026a3dabb74396e1ff4d5695d000000000000000000000000000000000000000000000055efe189c41ed1b3e8",
                    "decodedMethod": {
                        "callParams": [
                            {
                                "name": "from",
                                "type": "address",
                                "value": "0x8f28d3bd8c51f251fe3c422d203053234af40583"
                            },
                            {
                                "name": "to",
                                "type": "address",
                                "value": "0x6ae23c5edaad107026a3dabb74396e1ff4d5695d"
                            },
                            {
                                "decimalAvailable": true,
                                "name": "value",
                                "type": "uint256",
                                "value": "1,585,258,494,585,560,216,552"
                            }
                        ],
                        "constructorArguments": "",
                        "name": "transferFrom",
                        "returnParams": [
                            {
                                "name": "",
                                "type": "bool",
                                "value": true
                            }
                        ],
                        "signature": "transferFrom(address,address,uint256)"
                    },
                    "errorInfo": "",
                    "fromAddress": "0x6ae23c5edaad107026a3dabb74396e1ff4d5695d",
                    "gasUsed": 33340,
                    "id": 4,
                    "methodDecoded": true,
                    "operation": "CALL",
                    "output": "0x0000000000000000000000000000000000000000000000000000000000000001",
                    "revert": false,
                    "revertMessage": "",
                    "selector": "0x23b872dd",
                    "status": true,
                    "value": "0"
                },
                "nodeType": 0
            },
            "5": {
                "event": {
                    "contract": "0xa7de087329bfcda5639247f96140f9dabe3deed1",
                    "decodedLog": {
                        "name": "Transfer",
                        "params": [
                            {
                                "name": "from",
                                "type": "address",
                                "value": "0x8f28d3bd8c51f251fe3c422d203053234af40583"
                            },
                            {
                                "name": "to",
                                "type": "address",
                                "value": "0x6ae23c5edaad107026a3dabb74396e1ff4d5695d"
                            },
                            {
                                "decimalAvailable": true,
                                "name": "value",
                                "type": "uint256",
                                "value": "1,569,405,909,639,704,614,386"
                            }
                        ],
                        "signature": "Transfer(address,address,uint256)"
                    },
                    "id": 5,
                    "logData": "0x00000000000000000000000000000000000000000000005513e1d7bf996415f2",
                    "logDecoded": true,
                    "operation": "EVENT",
                    "revert": false,
                    "status": true,
                    "topics": [
                        "0xddf252ad1be2c89b69c2b068fc378daa952ba7f163c4a11628f55a4df523b3ef",
                        "0x0000000000000000000000008f28d3bd8c51f251fe3c422d203053234af40583",
                        "0x0000000000000000000000006ae23c5edaad107026a3dabb74396e1ff4d5695d"
                    ]
                },
                "nodeType": 1
            },
            "6": {
                "event": {
                    "contract": "0xa7de087329bfcda5639247f96140f9dabe3deed1",
                    "decodedLog": {
                        "name": "Transfer",
                        "params": [
                            {
                                "name": "from",
                                "type": "address",
                                "value": "0x8f28d3bd8c51f251fe3c422d203053234af40583"
                            },
                            {
                                "name": "to",
                                "type": "address",
                                "value": "0x0000000000000000000000000000000000000000"
                            },
                            {
                                "decimalAvailable": true,
                                "name": "value",
                                "type": "uint256",
                                "value": "15,852,584,945,855,602,166"
                            }
                        ],
                        "signature": "Transfer(address,address,uint256)"
                    },
                    "id": 6,
                    "logData": "0x000000000000000000000000000000000000000000000000dbffb204856d9df6",
                    "logDecoded": true,
                    "operation": "EVENT",
                    "revert": false,
                    "status": true,
                    "topics": [
                        "0xddf252ad1be2c89b69c2b068fc378daa952ba7f163c4a11628f55a4df523b3ef",
                        "0x0000000000000000000000008f28d3bd8c51f251fe3c422d203053234af40583",
                        "0x0000000000000000000000000000000000000000000000000000000000000000"
                    ]
                },
                "nodeType": 1
            },
            "7": {
                "event": {
                    "contract": "0x6ae23c5edaad107026a3dabb74396e1ff4d5695d",
                    "decodedLog": {
                        "name": "EthPurchase",
                        "params": [
                            {
                                "name": "buyer",
                                "type": "address",
                                "value": "0x8f28d3bd8c51f251fe3c422d203053234af40583"
                            },
                            {
                                "name": "tokens_sold",
                                "type": "uint256",
                                "value": "1,585,258,494,585,560,216,552"
                            },
                            {
                                "name": "eth_bought",
                                "type": "uint256",
                                "value": "724,373,079,646,088,727"
                            }
                        ],
                        "signature": "EthPurchase(address,uint256,uint256)"
                    },
                    "id": 7,
                    "logData": "0x",
                    "logDecoded": true,
                    "operation": "EVENT",
                    "revert": false,
                    "status": true,
                    "topics": [
                        "0x7f4091b46c33e918a0f3aa42307641d17bb67029427a5369e54b353984238705",
                        "0x0000000000000000000000008f28d3bd8c51f251fe3c422d203053234af40583",
                        "0x000000000000000000000000000000000000000000000055efe189c41ed1b3e8",
                        "0x0000000000000000000000000000000000000000000000000a0d7d7a61292e17"
                    ]
                },
                "nodeType": 1
            }
        },
        "gasFlame": [
            {
                "children": [
                    {
                        "children": [
                            {
                                "children": [],
                                "depth": 0,
                                "name": "Initial Gas",
                                "value": 21688
                            },
                            {
                                "children": [
                                    {
                                        "children": [
                                            {
                                                "children": [],
                                                "depth": 2,
                                                "name": "balanceOf",
                                                "value": 1396
                                            },
                                            {
                                                "children": [],
                                                "depth": 2,
                                                "name": "fallback",
                                                "value": 0
                                            },
                                            {
                                                "children": [],
                                                "depth": 2,
                                                "name": "transferFrom",
                                                "value": 33340
                                            }
                                        ],
                                        "depth": 1,
                                        "name": "tokenToEthSwapInput",
                                        "value": 54399
                                    }
                                ],
                                "depth": 0,
                                "name": "Executed Gas",
                                "value": 55575
                            }
                        ],
                        "depth": -1,
                        "name": "Actual Gas Used",
                        "value": 62263
                    },
                    {
                        "children": [],
                        "depth": -1,
                        "name": "Refunded Gas",
                        "value": 15000
                    }
                ],
                "depth": -2,
                "name": "Total Gas",
                "value": 77263
            }
        ],
        "isConfirmed": true,
        "mainTrace": [
            {
                "children": [
                    {
                        "children": [
                            {
                                "children": [
                                    {
                                        "children": [],
                                        "depth": 2,
                                        "id": 2,
                                        "order": 2
                                    },
                                    {
                                        "children": [],
                                        "depth": 2,
                                        "id": 3,
                                        "order": 3
                                    },
                                    {
                                        "children": [
                                            {
                                                "children": [],
                                                "depth": 3,
                                                "id": 5,
                                                "order": 5
                                            },
                                            {
                                                "children": [],
                                                "depth": 3,
                                                "id": 6,
                                                "order": 6
                                            }
                                        ],
                                        "depth": 2,
                                        "id": 4,
                                        "order": 4
                                    },
                                    {
                                        "children": [],
                                        "depth": 2,
                                        "id": 7,
                                        "order": 7
                                    }
                                ],
                                "depth": 1,
                                "id": 1,
                                "order": 1
                            }
                        ],
                        "depth": 0,
                        "id": 0,
                        "order": 0
                    }
                ],
                "depth": -1,
                "id": -1,
                "order": -1
            }
        ],
        "mainTraceNodeCount": 8,
        "parentIdMap": {
            "0": -1,
            "1": 0,
            "2": 1,
            "3": 1,
            "4": 1,
            "5": 4,
            "6": 4,
            "7": 1
        },
        "tidyTrace": [
            {
                "children": [
                    {
                        "children": [
                            {
                                "children": [
                                    {
                                        "children": [],
                                        "depth": 2,
                                        "id": 3,
                                        "order": 3
                                    },
                                    {
                                        "children": [
                                            {
                                                "children": [],
                                                "depth": 3,
                                                "id": 5,
                                                "order": 5
                                            },
                                            {
                                                "children": [],
                                                "depth": 3,
                                                "id": 6,
                                                "order": 6
                                            }
                                        ],
                                        "depth": 2,
                                        "id": 4,
                                        "order": 4
                                    },
                                    {
                                        "children": [],
                                        "depth": 2,
                                        "id": 7,
                                        "order": 7
                                    }
                                ],
                                "depth": 1,
                                "id": 1,
                                "order": 1
                            }
                        ],
                        "depth": 0,
                        "id": 0,
                        "order": 0
                    }
                ],
                "depth": -1,
                "id": -1,
                "order": -1
            }
        ],
        "tidyTraceNodeCount": 7
    },
    "state_change": {
        "stateChanges": [
            {
                "address": "0xa7de087329bfcda5639247f96140f9dabe3deed1",
                "erc": "ERC-20",
                "slots": [
                    {
                        "current": "0x0000000000000000000000000000000000000000004e59ad3aabd6fa749505d2",
                        "key": "0x0000000000000000000000000000000000000000000000000000000000000005",
                        "prev": "0x0000000000000000000000000000000000000000004e59ae16ab88fefa02a3c8"
                    },
                    {
                        "current": "0xfffffffffffffffffffffffffffffffffffffffffffffd1b68ad15dc9c745ec4",
                        "key": "0xfb18ede472cb2753393fafb50dc09c1392cd6c615f42ca0c5d1d5b708b5ef10a",
                        "prev": "0xfffffffffffffffffffffffffffffffffffffffffffffd71588e9fa0bb4612ac"
                    },
                    {
                        "current": "0x0000000000000000000000000000000000000000000000000000000000000000",
                        "key": "0x3e7421f82adf160cbbc3ec80e0acf8dac36cf3b1afaef14e26be0ee4cea9da66",
                        "prev": "0x000000000000000000000000000000000000000000000055efe189c41ed1b3e8"
                    },
                    {
                        "current": "0x00000000000000000000000000000000000000000000fa3b818bbbb8d6bee99e",
                        "key": "0x2f2b1e4f4e53a553c3c2496b756f483d72798a3807fe877999a5e7d8460d9ae9",
                        "prev": "0x00000000000000000000000000000000000000000000f9e66da9e3f93d5ad3ac"
                    }
                ],
                "storageVariables": [
                    {
                        "name": "_totalSupply",
                        "type": "uint256",
                        "value": {
                            "current": "94719700061350272206964178",
                            "prev": "94719715913935218062566344",
                            "typeTag": 1
                        }
                    },
                    {
                        "name": "_allowed",
                        "type": "mapping(address => mapping(address => uint256))",
                        "value": {
                            "pairs": [
                                {
                                    "key": "0x8f28d3bd8c51f251fe3c422d203053234af40583",
                                    "value": {
                                        "pairs": [
                                            {
                                                "key": "0x6ae23c5edaad107026a3dabb74396e1ff4d5695d",
                                                "value": {
                                                    "current": "115792089237316195423570985008687907853269984665640564025796089358282529201860",
                                                    "prev": "115792089237316195423570985008687907853269984665640564027381347852868089418412",
                                                    "typeTag": 1
                                                }
                                            }
                                        ],
                                        "typeTag": 4
                                    }
                                }
                            ],
                            "typeTag": 4
                        }
                    },
                    {
                        "name": "_balances",
                        "type": "mapping(address => uint256)",
                        "value": {
                            "pairs": [
                                {
                                    "key": "0x6ae23c5edaad107026a3dabb74396e1ff4d5695d",
                                    "value": {
                                        "current": "1181689313378815373666718",
                                        "prev": "1180119907469175669052332",
                                        "typeTag": 1
                                    }
                                },
                                {
                                    "key": "0x8f28d3bd8c51f251fe3c422d203053234af40583",
                                    "value": {
                                        "current": "0",
                                        "prev": "1585258494585560216552",
                                        "typeTag": 1
                                    }
                                }
                            ],
                            "typeTag": 4
                        }
                    }
                ]
            }
        ]
    }
}