{
    "balance_change": {
        "balanceChanges": [
            {
                "account": "0x071747b3ce180342f3dd05af5ac5163faddeb0a5",
                "assets": [
                    {
                        "address": "0x9dffe202df7f82ba57a7f8d571628805eff7fed9",
                        "amount": "7,830",
                        "iconUrl": "",
                        "isERC1155": false,
                        "isERC721": false,
                        "sign": false,
                        "value": ""
                    }
                ]
            },
            {
                "account": "0x64a48c024e3e8fef936e0088f14f4c5b75afb928",
                "assets": [
                    {
                        "address": "0x9dffe202df7f82ba57a7f8d571628805eff7fed9",
                        "amount": "7,830",
                        "iconUrl": "",
                        "isERC1155": false,
                        "isERC721": false,
                        "sign": true,
                        "value": ""
                    }
                ]
            }
        ]
    },
    "profile": {
        "basic_info": {
            "baseFee": "",
            "blockNumber": 10752449,
            "callData": "0xa9059cbb00000000000000000000000064a48c024e3e8fef936e0088f14f4c5b75afb9280000000000000000000000000000000000000000000001a877141ae1cc980000",
            "debugEnable": true,
            "errorInfo": "",
            "eventCount": 1,
            "feeRecipient": "0x5a0b54d5dc17e0aadc383d2db43b0a0d3e029c4c",
            "formatValue": "0",
            "gasLimit": 70000,
            "gasPrice": "74.4",
            "gasUsed": 55588,
            "intTxnCount": 0,
            "internalRevert": false,
            "internalRevertMessage": "",
            "isContractCreation": false,
            "isFlashloan": false,
            "maxFee": "",
            "nonce": 135368,
            "overwritedBlockNumber": -1,
            "priorityFee": "",
            "receiver": "0x9dffe202df7f82ba57a7f8d571628805eff7fed9",
            "revertMessage": "",
            "sender": "0x071747b3ce180342f3dd05af5ac5163faddeb0a5",
            "simulationEnable": true,
            "sourceTxnHash": "0x1ca33cbaeb16146ddac5ffd6bfa74fed99842b3d105877898a781b47f7fef101",
            "status": true,
            "timestamp": "2020-08-29T00:31:50Z",
            "transactionFee": "0.0041357472",
            "txnHash": "0x1ca33cbaeb16146ddac5ffd6bfa74fed99842b3d105877898a781b47f7fef101",
            "txnIndex": 145,
            "type": 0,
            "value": "0"
        },
        "fund_flow": [
            {
                "amount": "7,830",
                "from": "0x071747b3ce180342f3dd05af5ac5163faddeb0a5",
                "id": 1,
                "isERC1155": false,
                "isERC721": false,
                "isReverted": false,
                "order": 1,
                "to": "0x64a48c024e3e8fef936e0088f14f4c5b75afb928",
                "token": "0x9dffe202df7f82ba57a7f8d571628805eff7fed9"
            }
        ],
        "token_infos": [
            {
                "address": "0xeeeeeeeeeeeeeeeeeeeeeeeeeeeeeeeeeeeeeeee",
                "decimals": 18
            },
            {
                "address": "0x9dffe202df7f82ba57a7f8d571628805eff7fed9",
                "decimals": 18
            },
            {
                "address": "0xc02aaa39b223fe8d0a0e5c4f27ead9083c756cc2",
                "decimals": 18
            }
        ]
    },
    "address_label": {
        "labels": [
            {
                "address": "0xeeeeeeeeeeeeeeeeeeeeeeeeeeeeeeeeeeeeeeee",
                "label": "Ether"
            },
            {
                "address": "0x9dffe202df7f82ba57a7f8d571628805eff7fed9",
                "label": "Green&nbsp;(China)&nbsp;ec... (GEC)"
            },
            {
                "address": "0x0000000000000000000000000000000000000001",
                "label": "Precompiled"
            },
            {
                "address": "0x0000000000000000000000000000000000000002",
                "label": "Precompiled"
            },
            {
                "address": "0x0000000000000000000000000000000000000003",
                "label": "Precompiled"
            },
            {
                "address": "0x0000000000000000000000000000000000000004",
                "label": "Precompiled"
            }
        ]
    },
    "trace": {
        "accountLabels": null,
        "dataMap": {
            "-1": {
                "invocation": {
                    "address": "0x071747b3ce180342f3dd05af5ac5163faddeb0a5",
                    "callData": "",
                    "decodedMethod": null,
                    "errorInfo": "",
                    "fromAddress": "",
                    "gasUsed": 0,
                    "id": -1,
                    "methodDecoded": false,
                    "operation": "",
                    "output": "",
                    "revert": false,
                    "revertMessage": "",
                    "selector": "",
                    "status": false,
                    "value": ""
                },
                "nodeType": 0
            },
            "0": {
                "invocation": {
                    "address": "0x9dffe202df7f82ba57a7f8d571628805eff7fed9",
                    "callData": "0x00000000000000000000000064a48c024e3e8fef936e0088f14f4c5b75afb9280000000000000000000000000000000000000000000001a877141ae1cc980000",
                    "decodedMethod": {
                        "callParams": [
                            {
                                "name": "_to",
                                "type": "address",
                                "value": "0x64a48c024e3e8fef936e0088f14f4c5b75afb928"
                            },
                            {
                                "decimalAvailable": true,
                                "name": "_value",
                                "type": "uint256",
                                "value": "7,830,000,000,000,000,000,000"
                            }
                        ],
                        "constructorArguments": "",
                        "name": "transfer",
                        "returnParams": [
                            {
                                "name": "success",
                                "type": "bool",
                                "value": true
                            }
                        ],
                        "signature": "transfer(address,uint256)"
                    },
                    "errorInfo": "",
                    "fromAddress": "0x071747b3ce180342f3dd05af5ac5163faddeb0a5",
                    "gasUsed": 55588,
                    "id": 0,
                    "methodDecoded": true,
                    "operation": "CALL",
                    "output": "0x0000000000000000000000000000000000000000000000000000000000000001",
                    "revert": false,
                    "revertMessage": "",
                    "selector": "0xa9059cbb",
                    "status": true,
                    "value": "0"
                },
                "nodeType": 0
            },
            "1": {
                "event": {
                    "contract": "0x9dffe202df7f82ba57a7f8d571628805eff7fed9",
                    "decodedLog": {
                        "name": "Transfer",
                        "params": [
                            {
                                "name": "from",
                                "type": "address",
                                "value": "0x071747b3ce180342f3dd05af5ac5163faddeb0a5"
                            },
                            {
                                "name": "to",
                                "type": "address",
                                "value": "0x64a48c024e3e8fef936e0088f14f4c5b75afb928"
                            },
                            {
                                "decimalAvailable": true,
                                "name": "value",
                                "type": "uint256",
                                "value": "7,830,000,000,000,000,000,000"
                            }
                        ],
                        "signature": "Transfer(address,address,uint256)"
                    },
                    "id": 1,
                    "logData": "0x0000000000000000000000000000000000000000000001a877141ae1cc980000",
                    "logDecoded": true,
                    "operation": "EVENT",
                    "revert": false,
                    "status": true,
                    "topics": [
                        "0xddf252ad1be2c89b69c2b068fc378daa952ba7f163c4a11628f55a4df523b3ef",
                        "0x000000000000000000000000071747b3ce180342f3dd05af5ac5163faddeb0a5",
                        "0x00000000000000000000000064a48c024e3e8fef936e0088f14f4c5b75afb928"
                    ]
                },
                "nodeType": 1
            }
        },
        "gasFlame": [
            {
                "children": [
                    {
                        "children": [
                            {
                                "children": [],
                                "depth": 0,
                                "name": "Initial Gas",
                                "value": 21644
                            },
                            {
                                "children": [],
                                "depth": 0,
                                "name": "Executed Gas",
                                "value": 33944
                            }
                        ],
                        "depth": -1,
                        "name": "Actual Gas Used",
                        "value": 55588
                    },
                    {
                        "children": [],
                        "depth": -1,
                        "name": "Refunded Gas",
                        "value": 0
                    }
                ],
                "depth": -2,
                "name": "Total Gas",
                "value": 55588
            }
        ],
        "isConfirmed": true,
        "mainTrace": [
            {
                "children": [
                    {
                        "children": [
                            {
                                "children": [],
                                "depth": 1,
                                "id": 1,
                                "order": 1
                            }
                        ],
                        "depth": 0,
                        "id": 0,
                        "order": 0
                    }
                ],
                "depth": -1,
                "id": -1,
                "order": -1
            }
        ],
        "mainTraceNodeCount": 2,
        "parentIdMap": {
            "0": -1,
            "1": 0
        },
        "tidyTrace": [
            {
                "children": [
                    {
                        "children": [
                            {
                                "children": [],
                                "depth": 1,
                                "id": 1,
                                "order": 1
                            }
                        ],
                        "depth": 0,
                        "id": 0,
                        "order": 0
                    }
                ],
                "depth": -1,
                "id": -1,
                "order": -1
            }
        ],
        "tidyTraceNodeCount": 2
    },
    "state_change": {
        "stateChanges": [
            {
                "address": "0x9dffe202df7f82ba57a7f8d571628805eff7fed9",
                "erc": "ERC-20",
                "slots": [
                    {
                        "current": "0x000000000000000000000000000000000000000000022d0711ced707a3265000",
                        "key": "0x0ca570cc2b68a3fec906a6998881d1017c31615bc9bf1fe36c14692ba5a27d8a",
                        "prev": "0x000000000000000000000000000000000000000000022eaf88e2f1e96fbe5000"
                    },
                    {
                        "current": "0x0000000000000000000000000000000000000000000001a877141ae1cc980000",
                        "key": "0xaa90069d32afe8dc8040a495790c0c56326908dab9c91ba721b1e4974b3b9e9d",
                        "prev": "0x0000000000000000000000000000000000000000000000000000000000000000"
                    }
                ],
                "storageVariables": [
                    {
                        "name": "balanceOf",
                        "type": "mapping(address => uint256)",
                        "value": {
                            "pairs": [
                                {
                                    "key": "0x071747b3ce180342f3dd05af5ac5163faddeb0a5",
                                    "value": {
                                        "current": "2630488541366280000000000",
                                        "prev": "2638318541366280000000000",
                                        "typeTag": 1
                                    }
                                },
                                {
                                    "key": "0x64a48c024e3e8fef936e0088f14f4c5b75afb928",
                                    "value": {
                                        "current": "7830000000000000000000",
                                        "prev": "0",
                                        "typeTag": 1
                                    }
                                }
                            ],
                            "typeTag": 4
                        }
                    }
                ]
            }
        ]
    }
}