{
    "balance_change": {
        "balanceChanges": [
            {
                "account": "0x4e0a22606a1abaa857ec4958ae9b0b38451dff4a",
                "assets": [
                    {
                        "address": "0xeeeeeeeeeeeeeeeeeeeeeeeeeeeeeeeeeeeeeeee",
                        "amount": "0.552298",
                        "iconUrl": "https://assets.blocksec.com/image/1663669189317-3.png",
                        "isERC1155": false,
                        "isERC721": false,
                        "sign": false,
                        "value": ""
                    }
                ]
            },
            {
                "account": "0x61752cd465b4d1d9b62a34a4812b99430b3af180",
                "assets": [
                    {
                        "address": "0xeeeeeeeeeeeeeeeeeeeeeeeeeeeeeeeeeeeeeeee",
                        "amount": "0.552298",
                        "iconUrl": "https://assets.blocksec.com/image/1663669189317-3.png",
                        "isERC1155": false,
                        "isERC721": false,
                        "sign": true,
                        "value": ""
                    }
                ]
            }
        ]
    },
    "profile": {
        "basic_info": {
            "baseFee": "",
            "blockNumber": 12284637,
            "callData": "0x3912521500000000000000000000000061752cd465b4d1d9b62a34a4812b99430b3af18000000000000000000000000000000000000000000000000007aa281ad428a00000000000000000000000000000000000000000000000000000000000000000c00000000000000000000000000000000000000000000000000000000060898d6b000000000000000000000000000000000000000000000000000000000000726000000000000000000000000000000000000000000000000000000000000000e0000000000000000000000000000000000000000000000000000000000000000000000000000000000000000000000000000000000000000000000000000000419e45b1f63885a412f0980a836113310c82d82e0a7c6c807280de27344779f7780ac3cd00c69bf28cc7f7641eeff1af863525738ca4d707598141da5b2fad04b91b00000000000000000000000000000000000000000000000000000000000000",
            "debugEnable": true,
            "errorInfo": "",
            "eventCount": 2,
            "feeRecipient": "0x829bd824b016326a401d083b33d092293333a830",
            "formatValue": "0",
            "gasLimit": 156119,
            "gasPrice": "250.7",
            "gasUsed": 86127,
            "intTxnCount": 2,
            "internalRevert": false,
            "internalRevertMessage": "",
            "isContractCreation": false,
            "isFlashloan": false,
            "maxFee": "",
            "nonce": 353691,
            "overwritedBlockNumber": -1,
            "priorityFee": "",
            "receiver": "0x4e0a22606a1abaa857ec4958ae9b0b38451dff4a",
            "revertMessage": "",
            "sender": "0x8c4b7870fc7dff2cb1e854858533ceddaf3eebf4",
            "simulationEnable": true,
            "sourceTxnHash": "0x1c6b0936975ac4677062e853892a3432460aa3a99877e905b749993a937b83e5",
            "status": true,
            "timestamp": "2021-04-21T16:29:38Z",
            "transactionFee": "0.0215920389",
            "txnHash": "0x1c6b0936975ac4677062e853892a3432460aa3a99877e905b749993a937b83e5",
            "txnIndex": 36,
            "type": 0,
            "value": "0"
        },
        "fund_flow": [
            {
                "amount": "0.552298",
                "from": "0x4e0a22606a1abaa857ec4958ae9b0b38451dff4a",
                "id": 1,
                "isERC1155": false,
                "isERC721": false,
                "isReverted": false,
                "order": 1,
                "to": "0x61752cd465b4d1d9b62a34a4812b99430b3af180",
                "token": "0xeeeeeeeeeeeeeeeeeeeeeeeeeeeeeeeeeeeeeeee"
            }
        ],
        "token_infos": [
            {
                "address": "0xc02aaa39b223fe8d0a0e5c4f27ead9083c756cc2",
                "decimals": 18
            },
            {
                "address": "0xeeeeeeeeeeeeeeeeeeeeeeeeeeeeeeeeeeeeeeee",
                "decimals": 18
            }
        ]
    },
    "address_label": {
        "labels": [
            {
                "address": "0xeeeeeeeeeeeeeeeeeeeeeeeeeeeeeeeeeeeeeeee",
                "label": "Ether"
            },
            {
                "address": "0x0000000000000000000000000000000000000001",
                "label": "Precompiled"
            },
            {
                "address": "0x0000000000000000000000000000000000000002",
                "label": "Precompiled"
            },
            {
                "address": "0x0000000000000000000000000000000000000003",
                "label": "Precompiled"
            },
            {
                "address": "0x0000000000000000000000000000000000000004",
                "label": "Precompiled"
            }
        ]
    },
    "trace": {
        "accountLabels": null,
        "dataMap": {
            "-1": {
                "invocation": {
                    "address": "0x8c4b7870fc7dff2cb1e854858533ceddaf3eebf4",
                    "callData": "",
                    "decodedMethod": null,
                    "errorInfo": "",
                    "fromAddress": "",
                    "gasUsed": 0,
                    "id": -1,
                    "methodDecoded": false,
                    "operation": "",
                    "output": "",
                    "revert": false,
                    "revertMessage": "",
                    "selector": "",
                    "status": false,
                    "value": ""
                },
                "nodeType": 0
            },
            "0": {
                "invocation": {
                    "address": "0x4e0a22606a1abaa857ec4958ae9b0b38451dff4a",
                    "callData": "0x00000000000000000000000061752cd465b4d1d9b62a34a4812b99430b3af18000000000000000000000000000000000000000000000000007aa281ad428a00000000000000000000000000000000000000000000000000000000000000000c00000000000000000000000000000000000000000000000000000000060898d6b000000000000000000000000000000000000000000000000000000000000726000000000000000000000000000000000000000000000000000000000000000e0000000000000000000000000000000000000000000000000000000000000000000000000000000000000000000000000000000000000000000000000000000419e45b1f63885a412f0980a836113310c82d82e0a7c6c807280de27344779f7780ac3cd00c69bf28cc7f7641eeff1af863525738ca4d707598141da5b2fad04b91b00000000000000000000000000000000000000000000000000000000000000",
                    "decodedMethod": {
                        "callParams": [
                            {
                                "name": "toAddress",
                                "type": "address",
                                "value": "0x61752cd465b4d1d9b62a34a4812b99430b3af180"
                            },
                            {
                                "name": "value",
                                "type": "uint256",
                                "value": "552,298,000,000,000,000"
                            },
                            {
                                "name": "data",
                                "type": "bytes",
                                "value": "0x"
                            },
                            {
                                "name": "expireTime",
                                "type": "uint256",
                                "value": "1,619,627,371"
                            },
                            {
                                "name": "sequenceId",
                                "type": "uint256",
                                "value": "29,280"
                            },
                            {
                                "name": "signature",
                                "type": "bytes",
                                "value": "0x9e45b1f63885a412f0980a836113310c82d82e0a7c6c807280de27344779f7780ac3cd00c69bf28cc7f7641eeff1af863525738ca4d707598141da5b2fad04b91b"
                            }
                        ],
                        "constructorArguments": "",
                        "name": "sendMultiSig",
                        "returnParams": [],
                        "signature": "sendMultiSig(address,uint256,bytes,uint256,uint256,bytes)"
                    },
                    "errorInfo": "",
                    "fromAddress": "0x8c4b7870fc7dff2cb1e854858533ceddaf3eebf4",
                    "gasUsed": 86127,
                    "id": 0,
                    "methodDecoded": true,
                    "operation": "CALL",
                    "output": "",
                    "revert": false,
                    "revertMessage": "",
                    "selector": "0x39125215",
                    "status": true,
                    "value": "0"
                },
                "nodeType": 0
            },
            "1": {
                "invocation": {
                    "address": "0x0000000000000000000000000000000000000001",
                    "callData": "0x370dbe66fe1cbf9471db5595a7da8e071bfca3d5050ccab211cedc94000000000000000000000000000000000000000000000000000000000000001b9e45b1f63885a412f0980a836113310c82d82e0a7c6c807280de27344779f7780ac3cd00c69bf28cc7f7641eeff1af863525738ca4d707598141da5b2fad04b9",
                    "decodedMethod": {
                        "callParams": [
                            {
                                "name": "hash",
                                "type": "bytes32",
                                "value": "0x8fb6d361370dbe66fe1cbf9471db5595a7da8e071bfca3d5050ccab211cedc94"
                            },
                            {
                                "name": "v",
                                "type": "uint256",
                                "value": "27"
                            },
                            {
                                "name": "r",
                                "type": "bytes32",
                                "value": "0x9e45b1f63885a412f0980a836113310c82d82e0a7c6c807280de27344779f778"
                            },
                            {
                                "name": "s",
                                "type": "bytes32",
                                "value": "0x0ac3cd00c69bf28cc7f7641eeff1af863525738ca4d707598141da5b2fad04b9"
                            }
                        ],
                        "constructorArguments": "",
                        "name": "ecrecover",
                        "returnParams": [
                            {
                                "name": "",
                                "type": "address",
                                "value": "0x7b28073a10868aadc26b6b1ebe2ca7319a5bbbb8"
                            }
                        ],
                        "signature": "ecrecover(bytes32,uint256,bytes32,bytes32)"
                    },
                    "errorInfo": "",
                    "fromAddress": "0x4e0a22606a1abaa857ec4958ae9b0b38451dff4a",
                    "gasUsed": 3000,
                    "id": 1,
                    "methodDecoded": true,
                    "operation": "CALL",
                    "output": "0x0000000000000000000000007b28073a10868aadc26b6b1ebe2ca7319a5bbbb8",
                    "revert": false,
                    "revertMessage": "",
                    "selector": "0x8fb6d361",
                    "status": true,
                    "value": "0"
                },
                "nodeType": 0
            },
            "2": {
                "invocation": {
                    "address": "0x61752cd465b4d1d9b62a34a4812b99430b3af180",
                    "callData": "0x",
                    "decodedMethod": null,
                    "errorInfo": "",
                    "fromAddress": "0x4e0a22606a1abaa857ec4958ae9b0b38451dff4a",
                    "gasUsed": 2083,
                    "id": 2,
                    "methodDecoded": false,
                    "operation": "CALL",
                    "output": "",
                    "revert": false,
                    "revertMessage": "",
                    "selector": "fallback",
                    "status": true,
                    "value": "0.552298"
                },
                "nodeType": 0
            },
            "3": {
                "event": {
                    "contract": "0x61752cd465b4d1d9b62a34a4812b99430b3af180",
                    "decodedLog": {
                        "name": "Deposited",
                        "params": [
                            {
                                "name": "from",
                                "type": "address",
                                "value": "0x4e0a22606a1abaa857ec4958ae9b0b38451dff4a"
                            },
                            {
                                "name": "value",
                                "type": "uint256",
                                "value": "552,298,000,000,000,000"
                            },
                            {
                                "name": "data",
                                "type": "bytes",
                                "value": "0x"
                            }
                        ],
                        "signature": "Deposited(address,uint256,bytes)"
                    },
                    "id": 3,
                    "logData": "0x0000000000000000000000004e0a22606a1abaa857ec4958ae9b0b38451dff4a00000000000000000000000000000000000000000000000007aa281ad428a00000000000000000000000000000000000000000000000000000000000000000600000000000000000000000000000000000000000000000000000000000000000",
                    "logDecoded": true,
                    "operation": "EVENT",
                    "revert": false,
                    "status": true,
                    "topics": [
                        "0x6e89d517057028190560dd200cf6bf792842861353d1173761dfa362e1c133f0"
                    ]
                },
                "nodeType": 1
            },
            "4": {
                "event": {
                    "contract": "0x4e0a22606a1abaa857ec4958ae9b0b38451dff4a",
                    "decodedLog": {
                        "name": "Transacted",
                        "params": [
                            {
                                "name": "msgSender",
                                "type": "address",
                                "value": "0x8c4b7870fc7dff2cb1e854858533ceddaf3eebf4"
                            },
                            {
                                "name": "otherSigner",
                                "type": "address",
                                "value": "0x7b28073a10868aadc26b6b1ebe2ca7319a5bbbb8"
                            },
                            {
                                "name": "operation",
                                "type": "bytes32",
                                "value": "0x8fb6d361370dbe66fe1cbf9471db5595a7da8e071bfca3d5050ccab211cedc94"
                            },
                            {
                                "name": "toAddress",
                                "type": "address",
                                "value": "0x61752cd465b4d1d9b62a34a4812b99430b3af180"
                            },
                            {
                                "name": "value",
                                "type": "uint256",
                                "value": "552,298,000,000,000,000"
                            },
                            {
                                "name": "data",
                                "type": "bytes",
                                "value": "0x"
                            }
                        ],
                        "signature": "Transacted(address,address,bytes32,address,uint256,bytes)"
                    },
                    "id": 4,
                    "logData": "0x0000000000000000000000008c4b7870fc7dff2cb1e854858533ceddaf3eebf40000000000000000000000007b28073a10868aadc26b6b1ebe2ca7319a5bbbb88fb6d361370dbe66fe1cbf9471db5595a7da8e071bfca3d5050ccab211cedc9400000000000000000000000061752cd465b4d1d9b62a34a4812b99430b3af18000000000000000000000000000000000000000000000000007aa281ad428a00000000000000000000000000000000000000000000000000000000000000000c00000000000000000000000000000000000000000000000000000000000000000",
                    "logDecoded": true,
                    "operation": "EVENT",
                    "revert": false,
                    "status": true,
                    "topics": [
                        "0x59bed9ab5d78073465dd642a9e3e76dfdb7d53bcae9d09df7d0b8f5234d5a806"
                    ]
                },
                "nodeType": 1
            }
        },
        "gasFlame": [
            {
                "children": [
                    {
                        "children": [
                            {
                                "children": [],
                                "depth": 0,
                                "name": "Initial Gas",
                                "value": 23672
                            },
                            {
                                "children": [
                                    {
                                        "children": [],
                                        "depth": 1,
                                        "name": "ecrecover",
                                        "value": 3000
                                    },
                                    {
                                        "children": [],
                                        "depth": 1,
                                        "name": "fallback",
                                        "value": 2083
                                    }
                                ],
                                "depth": 0,
                                "name": "Executed Gas",
                                "value": 62455
                            }
                        ],
                        "depth": -1,
                        "name": "Actual Gas Used",
                        "value": 86127
                    },
                    {
                        "children": [],
                        "depth": -1,
                        "name": "Refunded Gas",
                        "value": 0
                    }
                ],
                "depth": -2,
                "name": "Total Gas",
                "value": 86127
            }
        ],
        "isConfirmed": true,
        "mainTrace": [
            {
                "children": [
                    {
                        "children": [
                            {
                                "children": [],
                                "depth": 1,
                                "id": 1,
                                "order": 1
                            },
                            {
                                "children": [
                                    {
                                        "children": [],
                                        "depth": 2,
                                        "id": 3,
                                        "order": 3
                                    }
                                ],
                                "depth": 1,
                                "id": 2,
                                "order": 2
                            },
                            {
                                "children": [],
                                "depth": 1,
                                "id": 4,
                                "order": 4
                            }
                        ],
                        "depth": 0,
                        "id": 0,
                        "order": 0
                    }
                ],
                "depth": -1,
                "id": -1,
                "order": -1
            }
        ],
        "mainTraceNodeCount": 5,
        "parentIdMap": {
            "0": -1,
            "1": 0,
            "2": 0,
            "3": 2,
            "4": 0
        },
        "tidyTrace": [
            {
                "children": [
                    {
                        "children": [
                            {
                                "children": [],
                                "depth": 1,
                                "id": 1,
                                "order": 1
                            },
                            {
                                "children": [
                                    {
                                        "children": [],
                                        "depth": 2,
                                        "id": 3,
                                        "order": 3
                                    }
                                ],
                                "depth": 1,
                                "id": 2,
                                "order": 2
                            },
                            {
                                "children": [],
                                "depth": 1,
                                "id": 4,
                                "order": 4
                            }
                        ],
                        "depth": 0,
                        "id": 0,
                        "order": 0
                    }
                ],
                "depth": -1,
                "id": -1,
                "order": -1
            }
        ],
        "tidyTraceNodeCount": 5
    },
    "state_change": {
        "stateChanges": [
            {
                "address": "0x4e0a22606a1abaa857ec4958ae9b0b38451dff4a",
                "erc": "",
                "slots": [
                    {
                        "current": "0x0000000000000000000000000000000000000000000000000000000000007260",
                        "key": "0x000000000000000000000000000000000000000000000000000000000000000b",
                        "prev": "0x0000000000000000000000000000000000000000000000000000000000007256"
                    }
                ],
                "storageVariables": []
            }
        ]
    }
}