{
    "balance_change": {
        "balanceChanges": []
    },
    "profile": {
        "basic_info": {
            "baseFee": "13.803576563",
            "blockNumber": 17554684,
            "callData": "0x4ae25a86000000000000000000000000000000000000000000000000000000000000002000000000000000000000000000000000000000000000000000000000000000010000000000000000000000000000000042f8a32b7007d6c761ffff1e1b798c45",
            "debugEnable": true,
            "errorInfo": "",
            "eventCount": 1,
            "feeRecipient": "0x95222290dd7278aa3ddd389cc1e1d165cc4bafe5",
            "formatValue": "0",
            "gasLimit": 51333,
            "gasPrice": "13.903576563",
            "gasUsed": 50984,
            "intTxnCount": 1,
            "internalRevert": false,
            "internalRevertMessage": "",
            "isContractCreation": false,
            "isFlashloan": false,
            "maxFee": "18.834289219",
            "nonce": 4377,
            "overwritedBlockNumber": -1,
            "priorityFee": "0.1",
            "receiver": "0x29469395eaf6f95920e59f858042f0e28d98a20b",
            "revertMessage": "",
            "sender": "0x2177da04f9479496c2292d6344d306aa49beb34a",
            "simulationEnable": true,
            "sourceTxnHash": "0x1cd91fb05700065d349f6a8f23326b6b2f6cf6c874dd2907fa34d759fdb7de7b",
            "status": true,
            "timestamp": "2023-06-25T06:21:23Z",
            "transactionFee": "0.000708859947487992",
            "txnHash": "0x1cd91fb05700065d349f6a8f23326b6b2f6cf6c874dd2907fa34d759fdb7de7b",
            "txnIndex": 75,
            "type": 2,
            "value": "0"
        },
        "fund_flow": [],
        "token_infos": [
            {
                "address": "0xc02aaa39b223fe8d0a0e5c4f27ead9083c756cc2",
                "decimals": 18
            },
            {
                "address": "0xeeeeeeeeeeeeeeeeeeeeeeeeeeeeeeeeeeeeeeee",
                "decimals": 18
            }
        ]
    },
    "address_label": {
        "labels": [
            {
                "address": "0x0000000000000000000000000000000000000002",
                "label": "Precompiled"
            },
            {
                "address": "0x0000000000000000000000000000000000000003",
                "label": "Precompiled"
            },
            {
                "address": "0x0000000000000000000000000000000000000004",
                "label": "Precompiled"
            },
            {
                "address": "0xeeeeeeeeeeeeeeeeeeeeeeeeeeeeeeeeeeeeeeee",
                "label": "Ether"
            },
            {
                "address": "0x29469395eaf6f95920e59f858042f0e28d98a20b",
                "label": "Blur: Blend"
            },
            {
                "address": "0x13244ef110692c1d8256c8dd4aa0a09bb5af0156",
                "label": "Blend"
            },
            {
                "address": "0x0000000000000000000000000000000000000001",
                "label": "Precompiled"
            }
        ]
    },
    "trace": {
        "accountLabels": null,
        "dataMap": {
            "-1": {
                "invocation": {
                    "address": "0x2177da04f9479496c2292d6344d306aa49beb34a",
                    "callData": "",
                    "decodedMethod": null,
                    "errorInfo": "",
                    "fromAddress": "",
                    "gasUsed": 0,
                    "id": -1,
                    "methodDecoded": false,
                    "operation": "",
                    "output": "",
                    "revert": false,
                    "revertMessage": "",
                    "selector": "",
                    "status": false,
                    "value": ""
                },
                "nodeType": 0
            },
            "0": {
                "invocation": {
                    "address": "0x29469395eaf6f95920e59f858042f0e28d98a20b",
                    "callData": "0x000000000000000000000000000000000000000000000000000000000000002000000000000000000000000000000000000000000000000000000000000000010000000000000000000000000000000042f8a32b7007d6c761ffff1e1b798c45",
                    "decodedMethod": {
                        "callParams": [
                            {
                                "name": "salts",
                                "type": "uint256[]",
                                "value": [
                                    "89,020,046,816,969,266,044,291,447,111,689,014,341"
                                ]
                            }
                        ],
                        "constructorArguments": "",
                        "name": "cancelOffers",
                        "returnParams": [],
                        "signature": "cancelOffers(uint256[])"
                    },
                    "errorInfo": "",
                    "fromAddress": "0x2177da04f9479496c2292d6344d306aa49beb34a",
                    "gasUsed": 50984,
                    "id": 0,
                    "methodDecoded": true,
                    "operation": "CALL",
                    "output": "",
                    "revert": false,
                    "revertMessage": "",
                    "selector": "0x4ae25a86",
                    "status": true,
                    "value": "0"
                },
                "nodeType": 0
            },
            "1": {
                "invocation": {
                    "address": "0x13244ef110692c1d8256c8dd4aa0a09bb5af0156",
                    "callData": "0x000000000000000000000000000000000000000000000000000000000000002000000000000000000000000000000000000000000000000000000000000000010000000000000000000000000000000042f8a32b7007d6c761ffff1e1b798c45",
                    "decodedMethod": {
                        "callParams": [
                            {
                                "name": "salts",
                                "type": "uint256[]",
                                "value": [
                                    "89,020,046,816,969,266,044,291,447,111,689,014,341"
                                ]
                            }
                        ],
                        "constructorArguments": "",
                        "name": "cancelOffers",
                        "returnParams": [],
                        "signature": "cancelOffers(uint256[])"
                    },
                    "errorInfo": "",
                    "fromAddress": "0x29469395eaf6f95920e59f858042f0e28d98a20b",
                    "gasUsed": 24416,
                    "id": 1,
                    "methodDecoded": true,
                    "operation": "DELEGATECALL",
                    "output": "",
                    "revert": false,
                    "revertMessage": "",
                    "selector": "0x4ae25a86",
                    "status": true,
                    "value": "0"
                },
                "nodeType": 0
            },
            "2": {
                "event": {
                    "contract": "0x29469395eaf6f95920e59f858042f0e28d98a20b",
                    "decodedLog": {
                        "name": "OfferCancelled",
                        "params": [
                            {
                                "name": "user",
                                "type": "address",
                                "value": "0x2177da04f9479496c2292d6344d306aa49beb34a"
                            },
                            {
                                "name": "salt",
                                "type": "uint256",
                                "value": "89,020,046,816,969,266,044,291,447,111,689,014,341"
                            }
                        ],
                        "signature": "OfferCancelled(address,uint256)"
                    },
                    "id": 2,
                    "logData": "0x0000000000000000000000000000000042f8a32b7007d6c761ffff1e1b798c45",
                    "logDecoded": true,
                    "operation": "EVENT",
                    "revert": false,
                    "status": true,
                    "topics": [
                        "0x899cab278284ae4a91172caa0943607a0bcb19766254c3ebe1139be00650b102",
                        "0x0000000000000000000000002177da04f9479496c2292d6344d306aa49beb34a"
                    ]
                },
                "nodeType": 1
            }
        },
        "gasFlame": [
            {
                "children": [
                    {
                        "children": [
                            {
                                "children": [],
                                "depth": 0,
                                "name": "Initial Gas",
                                "value": 21664
                            },
                            {
                                "children": [
                                    {
                                        "children": [],
                                        "depth": 1,
                                        "name": "cancelOffers",
                                        "value": 24416
                                    }
                                ],
                                "depth": 0,
                                "name": "Executed Gas",
                                "value": 29320
                            }
                        ],
                        "depth": -1,
                        "name": "Actual Gas Used",
                        "value": 50984
                    },
                    {
                        "children": [],
                        "depth": -1,
                        "name": "Refunded Gas",
                        "value": 0
                    }
                ],
                "depth": -2,
                "name": "Total Gas",
                "value": 50984
            }
        ],
        "isConfirmed": true,
        "mainTrace": [
            {
                "children": [
                    {
                        "children": [
                            {
                                "children": [
                                    {
                                        "children": [],
                                        "depth": 2,
                                        "id": 2,
                                        "order": 2
                                    }
                                ],
                                "depth": 1,
                                "id": 1,
                                "order": 1
                            }
                        ],
                        "depth": 0,
                        "id": 0,
                        "order": 0
                    }
                ],
                "depth": -1,
                "id": -1,
                "order": -1
            }
        ],
        "mainTraceNodeCount": 3,
        "parentIdMap": {
            "0": -1,
            "1": 0,
            "2": 1
        },
        "tidyTrace": [
            {
                "children": [
                    {
                        "children": [
                            {
                                "children": [
                                    {
                                        "children": [],
                                        "depth": 2,
                                        "id": 2,
                                        "order": 2
                                    }
                                ],
                                "depth": 1,
                                "id": 1,
                                "order": 1
                            }
                        ],
                        "depth": 0,
                        "id": 0,
                        "order": 0
                    }
                ],
                "depth": -1,
                "id": -1,
                "order": -1
            }
        ],
        "tidyTraceNodeCount": 3
    },
    "state_change": {
        "stateChanges": [
            {
                "address": "0x29469395eaf6f95920e59f858042f0e28d98a20b",
                "erc": "",
                "slots": [
                    {
                        "current": "0x0000000000000000000000000000000000000000000000000000000000000001",
                        "key": "0x43e0da82f9531f0cb0e53de75dc9f65eab1fb375338762b20ac847a44b0b8999",
                        "prev": "0x0000000000000000000000000000000000000000000000000000000000000000"
                    }
                ],
                "storageVariables": [
                    {
                        "name": "cancelledOrFulfilled",
                        "type": "mapping(address => mapping(uint256 => uint256))",
                        "value": {
                            "pairs": [
                                {
                                    "key": "0x2177da04f9479496c2292d6344d306aa49beb34a",
                                    "value": {
                                        "pairs": [
                                            {
                                                "key": "89020046816969266044291447111689014341",
                                                "value": {
                                                    "current": "1",
                                                    "prev": "0",
                                                    "typeTag": 1
                                                }
                                            }
                                        ],
                                        "typeTag": 4
                                    }
                                }
                            ],
                            "typeTag": 4
                        }
                    }
                ]
            }
        ]
    }
}