{
    "balance_change": {
        "balanceChanges": [
            {
                "account": "0xa8424ee3952db383796fecd48f3e78b2e3dd3007",
                "assets": [
                    {
                        "address": "0xb17e7e102e219450c2413a668e8f7ccad52deb3a",
                        "amount": "136.26",
                        "iconUrl": "",
                        "isERC1155": false,
                        "isERC721": false,
                        "sign": false,
                        "value": ""
                    }
                ]
            },
            {
                "account": "0x9eface32c83842545c6f547825314a63e638f80c",
                "assets": [
                    {
                        "address": "0xb17e7e102e219450c2413a668e8f7ccad52deb3a",
                        "amount": "136.26",
                        "iconUrl": "",
                        "isERC1155": false,
                        "isERC721": false,
                        "sign": true,
                        "value": ""
                    }
                ]
            }
        ]
    },
    "profile": {
        "basic_info": {
            "baseFee": "",
            "blockNumber": 8422070,
            "callData": "0xa9059cbb0000000000000000000000009eface32c83842545c6f547825314a63e638f80c000000000000000000000000000000000000000000000000000000032c2c4280",
            "debugEnable": true,
            "errorInfo": "",
            "eventCount": 2,
            "feeRecipient": "0x2a5994b501e6a560e727b6c2de5d856396aadd38",
            "formatValue": "0",
            "gasLimit": 38097,
            "gasPrice": "6.999999523",
            "gasUsed": 38096,
            "intTxnCount": 0,
            "internalRevert": false,
            "internalRevertMessage": "",
            "isContractCreation": false,
            "isFlashloan": false,
            "maxFee": "",
            "nonce": 17743,
            "overwritedBlockNumber": -1,
            "priorityFee": "",
            "receiver": "0xb17e7e102e219450c2413a668e8f7ccad52deb3a",
            "revertMessage": "",
            "sender": "0xa8424ee3952db383796fecd48f3e78b2e3dd3007",
            "simulationEnable": true,
            "sourceTxnHash": "0x1dfda25850b06e1828307b009fc0e842f4b08cf540e0b13054e9916c2b07b3a1",
            "status": true,
            "timestamp": "2019-08-25T22:23:20Z",
            "transactionFee": "0.000266671981828208",
            "txnHash": "0x1dfda25850b06e1828307b009fc0e842f4b08cf540e0b13054e9916c2b07b3a1",
            "txnIndex": 33,
            "type": 0,
            "value": "0"
        },
        "fund_flow": [
            {
                "amount": "136.26",
                "from": "0xa8424ee3952db383796fecd48f3e78b2e3dd3007",
                "id": 1,
                "isERC1155": false,
                "isERC721": false,
                "isReverted": false,
                "order": 1,
                "to": "0x9eface32c83842545c6f547825314a63e638f80c",
                "token": "0xb17e7e102e219450c2413a668e8f7ccad52deb3a"
            }
        ],
        "token_infos": [
            {
                "address": "0xb17e7e102e219450c2413a668e8f7ccad52deb3a",
                "decimals": 8
            },
            {
                "address": "0xc02aaa39b223fe8d0a0e5c4f27ead9083c756cc2",
                "decimals": 18
            },
            {
                "address": "0xeeeeeeeeeeeeeeeeeeeeeeeeeeeeeeeeeeeeeeee",
                "decimals": 18
            }
        ]
    },
    "address_label": {
        "labels": [
            {
                "address": "0x0000000000000000000000000000000000000004",
                "label": "Precompiled"
            },
            {
                "address": "0xeeeeeeeeeeeeeeeeeeeeeeeeeeeeeeeeeeeeeeee",
                "label": "Ether"
            },
            {
                "address": "0xb17e7e102e219450c2413a668e8f7ccad52deb3a",
                "label": "Yun Planet (YUN3)"
            },
            {
                "address": "0x0000000000000000000000000000000000000001",
                "label": "Precompiled"
            },
            {
                "address": "0x0000000000000000000000000000000000000002",
                "label": "Precompiled"
            },
            {
                "address": "0x0000000000000000000000000000000000000003",
                "label": "Precompiled"
            }
        ]
    },
    "trace": {
        "accountLabels": null,
        "dataMap": {
            "-1": {
                "invocation": {
                    "address": "0xa8424ee3952db383796fecd48f3e78b2e3dd3007",
                    "callData": "",
                    "decodedMethod": null,
                    "errorInfo": "",
                    "fromAddress": "",
                    "gasUsed": 0,
                    "id": -1,
                    "methodDecoded": false,
                    "operation": "",
                    "output": "",
                    "revert": false,
                    "revertMessage": "",
                    "selector": "",
                    "status": false,
                    "value": ""
                },
                "nodeType": 0
            },
            "0": {
                "invocation": {
                    "address": "0xb17e7e102e219450c2413a668e8f7ccad52deb3a",
                    "callData": "0x0000000000000000000000009eface32c83842545c6f547825314a63e638f80c000000000000000000000000000000000000000000000000000000032c2c4280",
                    "decodedMethod": {
                        "callParams": [
                            {
                                "name": "_to",
                                "type": "address",
                                "value": "0x9eface32c83842545c6f547825314a63e638f80c"
                            },
                            {
                                "decimalAvailable": true,
                                "name": "_value",
                                "type": "uint256",
                                "value": "13,626,000,000"
                            }
                        ],
                        "constructorArguments": "",
                        "name": "transfer",
                        "returnParams": [],
                        "signature": "transfer(address,uint256)"
                    },
                    "errorInfo": "",
                    "fromAddress": "0xa8424ee3952db383796fecd48f3e78b2e3dd3007",
                    "gasUsed": 38096,
                    "id": 0,
                    "methodDecoded": true,
                    "operation": "CALL",
                    "output": "",
                    "revert": false,
                    "revertMessage": "",
                    "selector": "0xa9059cbb",
                    "status": true,
                    "value": "0"
                },
                "nodeType": 0
            },
            "1": {
                "event": {
                    "contract": "0xb17e7e102e219450c2413a668e8f7ccad52deb3a",
                    "decodedLog": {
                        "name": "Transfer",
                        "params": [
                            {
                                "name": "from",
                                "type": "address",
                                "value": "0xa8424ee3952db383796fecd48f3e78b2e3dd3007"
                            },
                            {
                                "name": "to",
                                "type": "address",
                                "value": "0x9eface32c83842545c6f547825314a63e638f80c"
                            },
                            {
                                "decimalAvailable": true,
                                "name": "value",
                                "type": "uint256",
                                "value": "13,626,000,000"
                            }
                        ],
                        "signature": "Transfer(address,address,uint256)"
                    },
                    "id": 1,
                    "logData": "0x000000000000000000000000000000000000000000000000000000032c2c4280",
                    "logDecoded": true,
                    "operation": "EVENT",
                    "revert": false,
                    "status": true,
                    "topics": [
                        "0xddf252ad1be2c89b69c2b068fc378daa952ba7f163c4a11628f55a4df523b3ef",
                        "0x000000000000000000000000a8424ee3952db383796fecd48f3e78b2e3dd3007",
                        "0x0000000000000000000000009eface32c83842545c6f547825314a63e638f80c"
                    ]
                },
                "nodeType": 1
            },
            "2": {
                "event": {
                    "contract": "0xb17e7e102e219450c2413a668e8f7ccad52deb3a",
                    "decodedLog": {
                        "name": "mylog",
                        "params": [
                            {
                                "name": "code",
                                "type": "uint256",
                                "value": "0"
                            }
                        ],
                        "signature": "mylog(uint256)"
                    },
                    "id": 2,
                    "logData": "0x0000000000000000000000000000000000000000000000000000000000000000",
                    "logDecoded": true,
                    "operation": "EVENT",
                    "revert": false,
                    "status": true,
                    "topics": [
                        "0x67631d1bdda6fede513a18dab2d7282eb1233c8a01cd01f9580aa9543dd82b32"
                    ]
                },
                "nodeType": 1
            }
        },
        "gasFlame": [
            {
                "children": [
                    {
                        "children": [
                            {
                                "children": [],
                                "depth": 0,
                                "name": "Initial Gas",
                                "value": 23128
                            },
                            {
                                "children": [],
                                "depth": 0,
                                "name": "Executed Gas",
                                "value": 14968
                            }
                        ],
                        "depth": -1,
                        "name": "Actual Gas Used",
                        "value": 38096
                    },
                    {
                        "children": [],
                        "depth": -1,
                        "name": "Refunded Gas",
                        "value": 0
                    }
                ],
                "depth": -2,
                "name": "Total Gas",
                "value": 38096
            }
        ],
        "isConfirmed": true,
        "mainTrace": [
            {
                "children": [
                    {
                        "children": [
                            {
                                "children": [],
                                "depth": 1,
                                "id": 1,
                                "order": 1
                            },
                            {
                                "children": [],
                                "depth": 1,
                                "id": 2,
                                "order": 2
                            }
                        ],
                        "depth": 0,
                        "id": 0,
                        "order": 0
                    }
                ],
                "depth": -1,
                "id": -1,
                "order": -1
            }
        ],
        "mainTraceNodeCount": 3,
        "parentIdMap": {
            "0": -1,
            "1": 0,
            "2": 0
        },
        "tidyTrace": [
            {
                "children": [
                    {
                        "children": [
                            {
                                "children": [],
                                "depth": 1,
                                "id": 1,
                                "order": 1
                            },
                            {
                                "children": [],
                                "depth": 1,
                                "id": 2,
                                "order": 2
                            }
                        ],
                        "depth": 0,
                        "id": 0,
                        "order": 0
                    }
                ],
                "depth": -1,
                "id": -1,
                "order": -1
            }
        ],
        "tidyTraceNodeCount": 3
    },
    "state_change": {
        "stateChanges": [
            {
                "address": "0xb17e7e102e219450c2413a668e8f7ccad52deb3a",
                "erc": "",
                "slots": [
                    {
                        "current": "0x000000000000000000000000000000000000000000000000000104debcee5f20",
                        "key": "0xdc3a1cee72eb231f10be990bacc96c166ef45ac4ed90b058073d79494c6caf2d",
                        "prev": "0x000000000000000000000000000000000000000000000000000104e1e91aa1a0"
                    },
                    {
                        "current": "0x0000000000000000000000000000000000000000000000000000000db25cc8c0",
                        "key": "0x6c55b3add622d3df7b6d84321b5c9c3e272fdfcec940363e3176fc78701972c9",
                        "prev": "0x0000000000000000000000000000000000000000000000000000000a86308640"
                    }
                ],
                "storageVariables": [
                    {
                        "name": "balanceOf",
                        "type": "mapping(address => uint256)",
                        "value": {
                            "pairs": [
                                {
                                    "key": "0x9eface32c83842545c6f547825314a63e638f80c",
                                    "value": {
                                        "current": "58827000000",
                                        "prev": "45201000000",
                                        "typeTag": 1
                                    }
                                },
                                {
                                    "key": "0xa8424ee3952db383796fecd48f3e78b2e3dd3007",
                                    "value": {
                                        "current": "286829675700000",
                                        "prev": "286843301700000",
                                        "typeTag": 1
                                    }
                                }
                            ],
                            "typeTag": 4
                        }
                    }
                ]
            }
        ]
    }
}