{
    "balance_change": {
        "balanceChanges": [
            {
                "account": "0x7fe2b88f2e4858de375832fbf54ac7cf1a78ca51",
                "assets": [
                    {
                        "address": "0xa74476443119a942de498590fe1f2454d7d4ac0d",
                        "amount": "12.44772392",
                        "iconUrl": "",
                        "isERC1155": false,
                        "isERC721": false,
                        "sign": false,
                        "value": ""
                    }
                ]
            },
            {
                "account": "0xfaeccb649e688ab611821cfabcae3883a5b9ff0a",
                "assets": [
                    {
                        "address": "0xa74476443119a942de498590fe1f2454d7d4ac0d",
                        "amount": "12.44772392",
                        "iconUrl": "",
                        "isERC1155": false,
                        "isERC721": false,
                        "sign": true,
                        "value": ""
                    }
                ]
            }
        ]
    },
    "profile": {
        "basic_info": {
            "baseFee": "",
            "blockNumber": 3809878,
            "callData": "0xa9059cbb000000000000000000000000faeccb649e688ab611821cfabcae3883a5b9ff0a000000000000000000000000000000000000000000000000acbf32f451bba000",
            "debugEnable": true,
            "errorInfo": "",
            "eventCount": 1,
            "feeRecipient": "0x4bb96091ee9d802ed039c4d1a5f6216f90f81b01",
            "formatValue": "0",
            "gasLimit": 360000,
            "gasPrice": "20",
            "gasUsed": 51784,
            "intTxnCount": 0,
            "internalRevert": false,
            "internalRevertMessage": "",
            "isContractCreation": false,
            "isFlashloan": false,
            "maxFee": "",
            "nonce": 30580,
            "overwritedBlockNumber": -1,
            "priorityFee": "",
            "receiver": "0xa74476443119a942de498590fe1f2454d7d4ac0d",
            "revertMessage": "",
            "sender": "0x7fe2b88f2e4858de375832fbf54ac7cf1a78ca51",
            "simulationEnable": true,
            "sourceTxnHash": "0x1d84e93709461e2d01f0e2cdf693b2d067d0ba543edb9ee67cb9bc3f7ec0ab48",
            "status": true,
            "timestamp": "2017-06-02T18:01:53Z",
            "transactionFee": "0.00103568",
            "txnHash": "0x1d84e93709461e2d01f0e2cdf693b2d067d0ba543edb9ee67cb9bc3f7ec0ab48",
            "txnIndex": 19,
            "type": 0,
            "value": "0"
        },
        "fund_flow": [
            {
                "amount": "12.44772392",
                "from": "0x7fe2b88f2e4858de375832fbf54ac7cf1a78ca51",
                "id": 1,
                "isERC1155": false,
                "isERC721": false,
                "isReverted": false,
                "order": 1,
                "to": "0xfaeccb649e688ab611821cfabcae3883a5b9ff0a",
                "token": "0xa74476443119a942de498590fe1f2454d7d4ac0d"
            }
        ],
        "token_infos": [
            {
                "address": "0xa74476443119a942de498590fe1f2454d7d4ac0d",
                "decimals": 18
            },
            {
                "address": "0xc02aaa39b223fe8d0a0e5c4f27ead9083c756cc2",
                "decimals": 18
            },
            {
                "address": "0xeeeeeeeeeeeeeeeeeeeeeeeeeeeeeeeeeeeeeeee",
                "decimals": 18
            }
        ]
    },
    "address_label": {
        "labels": [
            {
                "address": "0xeeeeeeeeeeeeeeeeeeeeeeeeeeeeeeeeeeeeeeee",
                "label": "Ether"
            },
            {
                "address": "0xa74476443119a942de498590fe1f2454d7d4ac0d",
                "label": "Golem Token"
            },
            {
                "address": "0x0000000000000000000000000000000000000001",
                "label": "Precompiled"
            },
            {
                "address": "0x0000000000000000000000000000000000000002",
                "label": "Precompiled"
            },
            {
                "address": "0x0000000000000000000000000000000000000003",
                "label": "Precompiled"
            },
            {
                "address": "0x0000000000000000000000000000000000000004",
                "label": "Precompiled"
            }
        ]
    },
    "trace": {
        "accountLabels": null,
        "dataMap": {
            "-1": {
                "invocation": {
                    "address": "0x7fe2b88f2e4858de375832fbf54ac7cf1a78ca51",
                    "callData": "",
                    "decodedMethod": null,
                    "errorInfo": "",
                    "fromAddress": "",
                    "gasUsed": 0,
                    "id": -1,
                    "methodDecoded": false,
                    "operation": "",
                    "output": "",
                    "revert": false,
                    "revertMessage": "",
                    "selector": "",
                    "status": false,
                    "value": ""
                },
                "nodeType": 0
            },
            "0": {
                "invocation": {
                    "address": "0xa74476443119a942de498590fe1f2454d7d4ac0d",
                    "callData": "0x000000000000000000000000faeccb649e688ab611821cfabcae3883a5b9ff0a000000000000000000000000000000000000000000000000acbf32f451bba000",
                    "decodedMethod": {
                        "callParams": [
                            {
                                "name": "_to",
                                "type": "address",
                                "value": "0xfaeccb649e688ab611821cfabcae3883a5b9ff0a"
                            },
                            {
                                "decimalAvailable": true,
                                "name": "_value",
                                "type": "uint256",
                                "value": "12,447,723,920,000,000,000"
                            }
                        ],
                        "constructorArguments": "",
                        "name": "transfer",
                        "returnParams": [
                            {
                                "name": "",
                                "type": "bool",
                                "value": true
                            }
                        ],
                        "signature": "transfer(address,uint256)"
                    },
                    "errorInfo": "",
                    "fromAddress": "0x7fe2b88f2e4858de375832fbf54ac7cf1a78ca51",
                    "gasUsed": 51784,
                    "id": 0,
                    "methodDecoded": true,
                    "operation": "CALL",
                    "output": "0x0000000000000000000000000000000000000000000000000000000000000001",
                    "revert": false,
                    "revertMessage": "",
                    "selector": "0xa9059cbb",
                    "status": true,
                    "value": "0"
                },
                "nodeType": 0
            },
            "1": {
                "event": {
                    "contract": "0xa74476443119a942de498590fe1f2454d7d4ac0d",
                    "decodedLog": {
                        "name": "Transfer",
                        "params": [
                            {
                                "name": "_from",
                                "type": "address",
                                "value": "0x7fe2b88f2e4858de375832fbf54ac7cf1a78ca51"
                            },
                            {
                                "name": "_to",
                                "type": "address",
                                "value": "0xfaeccb649e688ab611821cfabcae3883a5b9ff0a"
                            },
                            {
                                "decimalAvailable": true,
                                "name": "_value",
                                "type": "uint256",
                                "value": "12,447,723,920,000,000,000"
                            }
                        ],
                        "signature": "Transfer(address,address,uint256)"
                    },
                    "id": 1,
                    "logData": "0x000000000000000000000000000000000000000000000000acbf32f451bba000",
                    "logDecoded": true,
                    "operation": "EVENT",
                    "revert": false,
                    "status": true,
                    "topics": [
                        "0xddf252ad1be2c89b69c2b068fc378daa952ba7f163c4a11628f55a4df523b3ef",
                        "0x0000000000000000000000007fe2b88f2e4858de375832fbf54ac7cf1a78ca51",
                        "0x000000000000000000000000faeccb649e688ab611821cfabcae3883a5b9ff0a"
                    ]
                },
                "nodeType": 1
            }
        },
        "gasFlame": [
            {
                "children": [
                    {
                        "children": [
                            {
                                "children": [],
                                "depth": 0,
                                "name": "Initial Gas",
                                "value": 23256
                            },
                            {
                                "children": [],
                                "depth": 0,
                                "name": "Executed Gas",
                                "value": 28528
                            }
                        ],
                        "depth": -1,
                        "name": "Actual Gas Used",
                        "value": 51784
                    },
                    {
                        "children": [],
                        "depth": -1,
                        "name": "Refunded Gas",
                        "value": 0
                    }
                ],
                "depth": -2,
                "name": "Total Gas",
                "value": 51784
            }
        ],
        "isConfirmed": true,
        "mainTrace": [
            {
                "children": [
                    {
                        "children": [
                            {
                                "children": [],
                                "depth": 1,
                                "id": 1,
                                "order": 1
                            }
                        ],
                        "depth": 0,
                        "id": 0,
                        "order": 0
                    }
                ],
                "depth": -1,
                "id": -1,
                "order": -1
            }
        ],
        "mainTraceNodeCount": 2,
        "parentIdMap": {
            "0": -1,
            "1": 0
        },
        "tidyTrace": [
            {
                "children": [
                    {
                        "children": [
                            {
                                "children": [],
                                "depth": 1,
                                "id": 1,
                                "order": 1
                            }
                        ],
                        "depth": 0,
                        "id": 0,
                        "order": 0
                    }
                ],
                "depth": -1,
                "id": -1,
                "order": -1
            }
        ],
        "tidyTraceNodeCount": 2
    },
    "state_change": {
        "stateChanges": [
            {
                "address": "0xa74476443119a942de498590fe1f2454d7d4ac0d",
                "erc": "",
                "slots": [
                    {
                        "current": "0x000000000000000000000000000000000000000000000000acbf32f451bba000",
                        "key": "0x9a454f212bff61053e12345a25ec14a230a40886f7e82146de543a8d08aa51ac",
                        "prev": "0x0000000000000000000000000000000000000000000000000000000000000000"
                    },
                    {
                        "current": "0x00000000000000000000000000000000000000000000516dfb0a166d6f0fd7ae",
                        "key": "0x6eb536ba53ea0f68e4830bf82151ecd427d0af0be252e39810e10952bdf68afb",
                        "prev": "0x00000000000000000000000000000000000000000000516ea7c94961c0cb77ae"
                    }
                ],
                "storageVariables": []
            }
        ]
    }
}