{
    "balance_change": {
        "balanceChanges": [
            {
                "account": "0x99ba1b6a37773621f9ae869c86d75347827d6325",
                "assets": [
                    {
                        "address": "0x194524355f26af663468d4996f207a918c73e013",
                        "amount": "49,470",
                        "iconUrl": "",
                        "isERC1155": false,
                        "isERC721": false,
                        "sign": false,
                        "value": ""
                    }
                ]
            },
            {
                "account": "0x668af9b932d785e449a2f6fc6bc63d068dfac828",
                "assets": [
                    {
                        "address": "0x194524355f26af663468d4996f207a918c73e013",
                        "amount": "49,470",
                        "iconUrl": "",
                        "isERC1155": false,
                        "isERC721": false,
                        "sign": true,
                        "value": ""
                    }
                ]
            }
        ]
    },
    "profile": {
        "basic_info": {
            "baseFee": "",
            "blockNumber": 9569068,
            "callData": "0xa9059cbb000000000000000000000000668af9b932d785e449a2f6fc6bc63d068dfac8280000000000000000000000000000000000000000000000000000047fd02d7e00",
            "debugEnable": true,
            "errorInfo": "",
            "eventCount": 1,
            "feeRecipient": "0x5a0b54d5dc17e0aadc383d2db43b0a0d3e029c4c",
            "formatValue": "0",
            "gasLimit": 60883,
            "gasPrice": "5",
            "gasUsed": 37161,
            "intTxnCount": 0,
            "internalRevert": false,
            "internalRevertMessage": "",
            "isContractCreation": false,
            "isFlashloan": false,
            "maxFee": "",
            "nonce": 44,
            "overwritedBlockNumber": -1,
            "priorityFee": "",
            "receiver": "0x194524355f26af663468d4996f207a918c73e013",
            "revertMessage": "",
            "sender": "0x99ba1b6a37773621f9ae869c86d75347827d6325",
            "simulationEnable": true,
            "sourceTxnHash": "0x1df92479596dcdba8104a1e370212e3c95195f210d1db17f329e120857d24ed2",
            "status": true,
            "timestamp": "2020-02-28T01:12:15Z",
            "transactionFee": "0.000185805",
            "txnHash": "0x1df92479596dcdba8104a1e370212e3c95195f210d1db17f329e120857d24ed2",
            "txnIndex": 41,
            "type": 0,
            "value": "0"
        },
        "fund_flow": [
            {
                "amount": "49,470",
                "from": "0x99ba1b6a37773621f9ae869c86d75347827d6325",
                "id": 1,
                "isERC1155": false,
                "isERC721": false,
                "isReverted": false,
                "order": 1,
                "to": "0x668af9b932d785e449a2f6fc6bc63d068dfac828",
                "token": "0x194524355f26af663468d4996f207a918c73e013"
            }
        ],
        "token_infos": [
            {
                "address": "0x194524355f26af663468d4996f207a918c73e013",
                "decimals": 8
            },
            {
                "address": "0xc02aaa39b223fe8d0a0e5c4f27ead9083c756cc2",
                "decimals": 18
            },
            {
                "address": "0xeeeeeeeeeeeeeeeeeeeeeeeeeeeeeeeeeeeeeeee",
                "decimals": 18
            }
        ]
    },
    "address_label": {
        "labels": [
            {
                "address": "0xeeeeeeeeeeeeeeeeeeeeeeeeeeeeeeeeeeeeeeee",
                "label": "Ether"
            },
            {
                "address": "0x194524355f26af663468d4996f207a918c73e013",
                "label": "Dragonvein Coin (DVC)"
            },
            {
                "address": "0x0000000000000000000000000000000000000001",
                "label": "Precompiled"
            },
            {
                "address": "0x0000000000000000000000000000000000000002",
                "label": "Precompiled"
            },
            {
                "address": "0x0000000000000000000000000000000000000003",
                "label": "Precompiled"
            },
            {
                "address": "0x0000000000000000000000000000000000000004",
                "label": "Precompiled"
            }
        ]
    },
    "trace": {
        "accountLabels": null,
        "dataMap": {
            "-1": {
                "invocation": {
                    "address": "0x99ba1b6a37773621f9ae869c86d75347827d6325",
                    "callData": "",
                    "decodedMethod": null,
                    "errorInfo": "",
                    "fromAddress": "",
                    "gasUsed": 0,
                    "id": -1,
                    "methodDecoded": false,
                    "operation": "",
                    "output": "",
                    "revert": false,
                    "revertMessage": "",
                    "selector": "",
                    "status": false,
                    "value": ""
                },
                "nodeType": 0
            },
            "0": {
                "invocation": {
                    "address": "0x194524355f26af663468d4996f207a918c73e013",
                    "callData": "0x000000000000000000000000668af9b932d785e449a2f6fc6bc63d068dfac8280000000000000000000000000000000000000000000000000000047fd02d7e00",
                    "decodedMethod": {
                        "callParams": [
                            {
                                "name": "_to",
                                "type": "address",
                                "value": "0x668af9b932d785e449a2f6fc6bc63d068dfac828"
                            },
                            {
                                "decimalAvailable": true,
                                "name": "_value",
                                "type": "uint256",
                                "value": "4,947,000,000,000"
                            }
                        ],
                        "constructorArguments": "",
                        "name": "transfer",
                        "returnParams": [
                            {
                                "name": "",
                                "type": "bool",
                                "value": true
                            }
                        ],
                        "signature": "transfer(address,uint256)"
                    },
                    "errorInfo": "",
                    "fromAddress": "0x99ba1b6a37773621f9ae869c86d75347827d6325",
                    "gasUsed": 37161,
                    "id": 0,
                    "methodDecoded": true,
                    "operation": "CALL",
                    "output": "0x0000000000000000000000000000000000000000000000000000000000000001",
                    "revert": false,
                    "revertMessage": "",
                    "selector": "0xa9059cbb",
                    "status": true,
                    "value": "0"
                },
                "nodeType": 0
            },
            "1": {
                "event": {
                    "contract": "0x194524355f26af663468d4996f207a918c73e013",
                    "decodedLog": {
                        "name": "Transfer",
                        "params": [
                            {
                                "name": "from",
                                "type": "address",
                                "value": "0x99ba1b6a37773621f9ae869c86d75347827d6325"
                            },
                            {
                                "name": "to",
                                "type": "address",
                                "value": "0x668af9b932d785e449a2f6fc6bc63d068dfac828"
                            },
                            {
                                "decimalAvailable": true,
                                "name": "value",
                                "type": "uint256",
                                "value": "4,947,000,000,000"
                            }
                        ],
                        "signature": "Transfer(address,address,uint256)"
                    },
                    "id": 1,
                    "logData": "0x0000000000000000000000000000000000000000000000000000047fd02d7e00",
                    "logDecoded": true,
                    "operation": "EVENT",
                    "revert": false,
                    "status": true,
                    "topics": [
                        "0xddf252ad1be2c89b69c2b068fc378daa952ba7f163c4a11628f55a4df523b3ef",
                        "0x00000000000000000000000099ba1b6a37773621f9ae869c86d75347827d6325",
                        "0x000000000000000000000000668af9b932d785e449a2f6fc6bc63d068dfac828"
                    ]
                },
                "nodeType": 1
            }
        },
        "gasFlame": [
            {
                "children": [
                    {
                        "children": [
                            {
                                "children": [],
                                "depth": 0,
                                "name": "Initial Gas",
                                "value": 21620
                            },
                            {
                                "children": [],
                                "depth": 0,
                                "name": "Executed Gas",
                                "value": 15541
                            }
                        ],
                        "depth": -1,
                        "name": "Actual Gas Used",
                        "value": 37161
                    },
                    {
                        "children": [],
                        "depth": -1,
                        "name": "Refunded Gas",
                        "value": 0
                    }
                ],
                "depth": -2,
                "name": "Total Gas",
                "value": 37161
            }
        ],
        "isConfirmed": true,
        "mainTrace": [
            {
                "children": [
                    {
                        "children": [
                            {
                                "children": [],
                                "depth": 1,
                                "id": 1,
                                "order": 1
                            }
                        ],
                        "depth": 0,
                        "id": 0,
                        "order": 0
                    }
                ],
                "depth": -1,
                "id": -1,
                "order": -1
            }
        ],
        "mainTraceNodeCount": 2,
        "parentIdMap": {
            "0": -1,
            "1": 0
        },
        "tidyTrace": [
            {
                "children": [
                    {
                        "children": [
                            {
                                "children": [],
                                "depth": 1,
                                "id": 1,
                                "order": 1
                            }
                        ],
                        "depth": 0,
                        "id": 0,
                        "order": 0
                    }
                ],
                "depth": -1,
                "id": -1,
                "order": -1
            }
        ],
        "tidyTraceNodeCount": 2
    },
    "state_change": {
        "stateChanges": [
            {
                "address": "0x194524355f26af663468d4996f207a918c73e013",
                "erc": "ERC-20",
                "slots": [
                    {
                        "current": "0x000000000000000000000000000000000000000000000000000040e6f92f6323",
                        "key": "0xaaf4015ca35cf7e28fc9ff99722ef9279c31228305178e90bf2bd9b5288d7fda",
                        "prev": "0x00000000000000000000000000000000000000000000000000004566c95ce123"
                    },
                    {
                        "current": "0x00000000000000000000000000000000000000000000000000008aff710b0d8e",
                        "key": "0x237f8e8c173a93504a8b3e0da18093d3dc1aab8a57b74fdee0353be7d337d734",
                        "prev": "0x0000000000000000000000000000000000000000000000000000867fa0dd8f8e"
                    }
                ],
                "storageVariables": [
                    {
                        "name": "balances",
                        "type": "mapping(address => uint256)",
                        "value": {
                            "pairs": [
                                {
                                    "key": "0x668af9b932d785e449a2f6fc6bc63d068dfac828",
                                    "value": {
                                        "current": "152829717843342",
                                        "prev": "147882717843342",
                                        "typeTag": 1
                                    }
                                },
                                {
                                    "key": "0x99ba1b6a37773621f9ae869c86d75347827d6325",
                                    "value": {
                                        "current": "71360767288099",
                                        "prev": "76307767288099",
                                        "typeTag": 1
                                    }
                                }
                            ],
                            "typeTag": 4
                        }
                    }
                ]
            }
        ]
    }
}