{
    "balance_change": {
        "balanceChanges": [
            {
                "account": "0xc5ec7765481f90acbcc61de0bb5c7904f2e63077",
                "assets": [
                    {
                        "address": "0xeeeeeeeeeeeeeeeeeeeeeeeeeeeeeeeeeeeeeeee",
                        "amount": "0.0003145586",
                        "iconUrl": "https://assets.blocksec.com/image/1663669189317-3.png",
                        "isERC1155": false,
                        "isERC721": false,
                        "sign": false,
                        "value": "0.77269045831322005855"
                    },
                    {
                        "address": "0x7fc66500c84a76ad7e9c93437bfc5ac33e2ddae9",
                        "amount": "0.000000000000000001",
                        "iconUrl": "https://assets.blocksec.com/icon/62f48bc5d1faeb48ff872297b2d01aca7a06f6613f30d65440b9b7703425b7e3.png",
                        "isERC1155": false,
                        "isERC721": false,
                        "sign": false,
                        "value": "0.00000000000000012031000000000000227"
                    },
                    {
                        "address": "0xdac17f958d2ee523a2206206994597c13d831ec7",
                        "amount": "0.064181",
                        "iconUrl": "https://assets.blocksec.com/icon/fcea71f3193ce895be44bfdf941f7e4c9381dd587f273c2d1a27f1263d84e4ea.png",
                        "isERC1155": false,
                        "isERC721": false,
                        "sign": false,
                        "value": "0.064174581900000000705"
                    },
                    {
                        "address": "0xa0b86991c6218b36c1d19d4a2e9eb0ce3606eb48",
                        "amount": "0.042289",
                        "iconUrl": "https://assets.blocksec.com/icon/0347a86cc07dbd03fdc5db01a4e5ac7e1217f90e0b6e4bb0f75cbcca09160989.png",
                        "isERC1155": false,
                        "isERC721": false,
                        "sign": false,
                        "value": "0.042289"
                    }
                ]
            },
            {
                "account": "0x4e46e14a093b6140580e8256020cb6062fb574b2",
                "assets": [
                    {
                        "address": "0xeeeeeeeeeeeeeeeeeeeeeeeeeeeeeeeeeeeeeeee",
                        "amount": "0.00001789365",
                        "iconUrl": "https://assets.blocksec.com/image/1663669189317-3.png",
                        "isERC1155": false,
                        "isERC721": false,
                        "sign": true,
                        "value": "0.043954457514105003333"
                    },
                    {
                        "address": "0xdac17f958d2ee523a2206206994597c13d831ec7",
                        "amount": "0.011575",
                        "iconUrl": "https://assets.blocksec.com/icon/fcea71f3193ce895be44bfdf941f7e4c9381dd587f273c2d1a27f1263d84e4ea.png",
                        "isERC1155": false,
                        "isERC721": false,
                        "sign": true,
                        "value": "0.0115738425000000001274"
                    }
                ]
            },
            {
                "account": "0x557a73f963297dc392e7916c609628fb17a63607",
                "assets": [
                    {
                        "address": "0xeeeeeeeeeeeeeeeeeeeeeeeeeeeeeeeeeeeeeeee",
                        "amount": "0.000039",
                        "iconUrl": "https://assets.blocksec.com/image/1663669189317-3.png",
                        "isERC1155": false,
                        "isERC721": false,
                        "sign": true,
                        "value": "0.09580068030000000726"
                    },
                    {
                        "address": "0xa0b86991c6218b36c1d19d4a2e9eb0ce3606eb48",
                        "amount": "0.0105",
                        "iconUrl": "https://assets.blocksec.com/icon/0347a86cc07dbd03fdc5db01a4e5ac7e1217f90e0b6e4bb0f75cbcca09160989.png",
                        "isERC1155": false,
                        "isERC721": false,
                        "sign": true,
                        "value": "0.0105"
                    }
                ]
            },
            {
                "account": "0x65286d5c75efaf2d99a5121c9e6aa6d7a140dd95",
                "assets": [
                    {
                        "address": "0xeeeeeeeeeeeeeeeeeeeeeeeeeeeeeeeeeeeeeeee",
                        "amount": "0.000039",
                        "iconUrl": "https://assets.blocksec.com/image/1663669189317-3.png",
                        "isERC1155": false,
                        "isERC721": false,
                        "sign": true,
                        "value": "0.09580068030000000726"
                    },
                    {
                        "address": "0xdac17f958d2ee523a2206206994597c13d831ec7",
                        "amount": "0.01656",
                        "iconUrl": "https://assets.blocksec.com/icon/fcea71f3193ce895be44bfdf941f7e4c9381dd587f273c2d1a27f1263d84e4ea.png",
                        "isERC1155": false,
                        "isERC721": false,
                        "sign": true,
                        "value": "0.016558344000000000182"
                    }
                ]
            },
            {
                "account": "0x6e4a90b383e6bd8800b9d87a17760772a91dca54",
                "assets": [
                    {
                        "address": "0xeeeeeeeeeeeeeeeeeeeeeeeeeeeeeeeeeeeeeeee",
                        "amount": "0.000039",
                        "iconUrl": "https://assets.blocksec.com/image/1663669189317-3.png",
                        "isERC1155": false,
                        "isERC721": false,
                        "sign": true,
                        "value": "0.09580068030000000726"
                    }
                ]
            },
            {
                "account": "0x84b3f7a19b74f520c5d659cb45d43ad266e2da15",
                "assets": [
                    {
                        "address": "0x7fc66500c84a76ad7e9c93437bfc5ac33e2ddae9",
                        "amount": "0.000000000000000001",
                        "iconUrl": "https://assets.blocksec.com/icon/62f48bc5d1faeb48ff872297b2d01aca7a06f6613f30d65440b9b7703425b7e3.png",
                        "isERC1155": false,
                        "isERC721": false,
                        "sign": true,
                        "value": "0.00000000000000012031000000000000227"
                    },
                    {
                        "address": "0xeeeeeeeeeeeeeeeeeeeeeeeeeeeeeeeeeeeeeeee",
                        "amount": "0.00003381805",
                        "iconUrl": "https://assets.blocksec.com/image/1663669189317-3.png",
                        "isERC1155": false,
                        "isERC721": false,
                        "sign": true,
                        "value": "0.083071594779985006297"
                    }
                ]
            },
            {
                "account": "0x94840926ab05563dbe5de10cc2173e62b784dd72",
                "assets": [
                    {
                        "address": "0xeeeeeeeeeeeeeeeeeeeeeeeeeeeeeeeeeeeeeeee",
                        "amount": "0.000039",
                        "iconUrl": "https://assets.blocksec.com/image/1663669189317-3.png",
                        "isERC1155": false,
                        "isERC721": false,
                        "sign": true,
                        "value": "0.09580068030000000726"
                    },
                    {
                        "address": "0xa0b86991c6218b36c1d19d4a2e9eb0ce3606eb48",
                        "amount": "0.012789",
                        "iconUrl": "https://assets.blocksec.com/icon/0347a86cc07dbd03fdc5db01a4e5ac7e1217f90e0b6e4bb0f75cbcca09160989.png",
                        "isERC1155": false,
                        "isERC721": false,
                        "sign": true,
                        "value": "0.012789"
                    }
                ]
            },
            {
                "account": "0xc2841e2906d42b097e5f9ed19cca846a2a656f84",
                "assets": [
                    {
                        "address": "0xeeeeeeeeeeeeeeeeeeeeeeeeeeeeeeeeeeeeeeee",
                        "amount": "0.0000233481",
                        "iconUrl": "https://assets.blocksec.com/image/1663669189317-3.png",
                        "isERC1155": false,
                        "isERC721": false,
                        "sign": true,
                        "value": "0.05735291958237000435"
                    },
                    {
                        "address": "0xdac17f958d2ee523a2206206994597c13d831ec7",
                        "amount": "0.011",
                        "iconUrl": "https://assets.blocksec.com/icon/fcea71f3193ce895be44bfdf941f7e4c9381dd587f273c2d1a27f1263d84e4ea.png",
                        "isERC1155": false,
                        "isERC721": false,
                        "sign": true,
                        "value": "0.010998900000000000122"
                    }
                ]
            },
            {
                "account": "0xd00dc8b2d254b6077c29f5f8de6f007a2ddac499",
                "assets": [
                    {
                        "address": "0xeeeeeeeeeeeeeeeeeeeeeeeeeeeeeeeeeeeeeeee",
                        "amount": "0.0000338624",
                        "iconUrl": "https://assets.blocksec.com/image/1663669189317-3.png",
                        "isERC1155": false,
                        "isERC721": false,
                        "sign": true,
                        "value": "0.0831805373484800063"
                    },
                    {
                        "address": "0xdac17f958d2ee523a2206206994597c13d831ec7",
                        "amount": "0.013938",
                        "iconUrl": "https://assets.blocksec.com/icon/fcea71f3193ce895be44bfdf941f7e4c9381dd587f273c2d1a27f1263d84e4ea.png",
                        "isERC1155": false,
                        "isERC721": false,
                        "sign": true,
                        "value": "0.013936606200000000153"
                    }
                ]
            },
            {
                "account": "0xd3b8601394cbeecdec742a56e059d5eda8563514",
                "assets": [
                    {
                        "address": "0xdac17f958d2ee523a2206206994597c13d831ec7",
                        "amount": "0.011108",
                        "iconUrl": "https://assets.blocksec.com/icon/fcea71f3193ce895be44bfdf941f7e4c9381dd587f273c2d1a27f1263d84e4ea.png",
                        "isERC1155": false,
                        "isERC721": false,
                        "sign": true,
                        "value": "0.011106889200000000122"
                    },
                    {
                        "address": "0xeeeeeeeeeeeeeeeeeeeeeeeeeeeeeeeeeeeeeeee",
                        "amount": "0.000039",
                        "iconUrl": "https://assets.blocksec.com/image/1663669189317-3.png",
                        "isERC1155": false,
                        "isERC721": false,
                        "sign": true,
                        "value": "0.09580068030000000726"
                    }
                ]
            },
            {
                "account": "0xecf06e27be98c545f5ca8600957fd42ca3150e76",
                "assets": [
                    {
                        "address": "0xeeeeeeeeeeeeeeeeeeeeeeeeeeeeeeeeeeeeeeee",
                        "amount": "0.0000106364",
                        "iconUrl": "https://assets.blocksec.com/image/1663669189317-3.png",
                        "isERC1155": false,
                        "isERC721": false,
                        "sign": true,
                        "value": "0.026127547588280001982"
                    },
                    {
                        "address": "0xa0b86991c6218b36c1d19d4a2e9eb0ce3606eb48",
                        "amount": "0.019",
                        "iconUrl": "https://assets.blocksec.com/icon/0347a86cc07dbd03fdc5db01a4e5ac7e1217f90e0b6e4bb0f75cbcca09160989.png",
                        "isERC1155": false,
                        "isERC721": false,
                        "sign": true,
                        "value": "0.019"
                    }
                ]
            }
        ]
    },
    "profile": {
        "basic_info": {
            "baseFee": "0.571361644",
            "blockNumber": 20660468,
            "callData": "0x7170700500000000000000000000000000000000000000000000000000000000000000a00000000000000000000000000000000000000000000000000000000000000200000000000000000000000000000000000000000000000000000000000000036000000000000000000000000000000000000000000000000000000000000004a000000000000000000000000000000000000000000000000000000000000005e0000000000000000000000000000000000000000000000000000000000000000a00000000000000000000000084b3f7a19b74f520c5d659cb45d43ad266e2da15000000000000000000000000d3b8601394cbeecdec742a56e059d5eda856351400000000000000000000000094840926ab05563dbe5de10cc2173e62b784dd72000000000000000000000000557a73f963297dc392e7916c609628fb17a6360700000000000000000000000065286d5c75efaf2d99a5121c9e6aa6d7a140dd95000000000000000000000000d00dc8b2d254b6077c29f5f8de6f007a2ddac499000000000000000000000000c2841e2906d42b097e5f9ed19cca846a2a656f84000000000000000000000000ecf06e27be98c545f5ca8600957fd42ca3150e760000000000000000000000006e4a90b383e6bd8800b9d87a17760772a91dca540000000000000000000000004e46e14a093b6140580e8256020cb6062fb574b2000000000000000000000000000000000000000000000000000000000000000a00000000000000000000000000000000000000000000000000001ec1e0db7480000000000000000000000000000000000000000000000000000023786525700000000000000000000000000000000000000000000000000000002378652570000000000000000000000000000000000000000000000000000000237865257000000000000000000000000000000000000000000000000000000023786525700000000000000000000000000000000000000000000000000000001ecc3452c0000000000000000000000000000000000000000000000000000000153c2734e900000000000000000000000000000000000000000000000000000009ac7ad7fc0000000000000000000000000000000000000000000000000000002378652570000000000000000000000000000000000000000000000000000000104630a6e88000000000000000000000000000000000000000000000000000000000000000090000000000000000000000007fc66500c84a76ad7e9c93437bfc5ac33e2ddae9000000000000000000000000dac17f958d2ee523a2206206994597c13d831ec7000000000000000000000000a0b86991c6218b36c1d19d4a2e9eb0ce3606eb48000000000000000000000000a0b86991c6218b36c1d19d4a2e9eb0ce3606eb48000000000000000000000000dac17f958d2ee523a2206206994597c13d831ec7000000000000000000000000dac17f958d2ee523a2206206994597c13d831ec7000000000000000000000000dac17f958d2ee523a2206206994597c13d831ec7000000000000000000000000a0b86991c6218b36c1d19d4a2e9eb0ce3606eb48000000000000000000000000dac17f958d2ee523a2206206994597c13d831ec7000000000000000000000000000000000000000000000000000000000000000900000000000000000000000084b3f7a19b74f520c5d659cb45d43ad266e2da15000000000000000000000000d3b8601394cbeecdec742a56e059d5eda856351400000000000000000000000094840926ab05563dbe5de10cc2173e62b784dd72000000000000000000000000557a73f963297dc392e7916c609628fb17a6360700000000000000000000000065286d5c75efaf2d99a5121c9e6aa6d7a140dd95000000000000000000000000d00dc8b2d254b6077c29f5f8de6f007a2ddac499000000000000000000000000c2841e2906d42b097e5f9ed19cca846a2a656f84000000000000000000000000ecf06e27be98c545f5ca8600957fd42ca3150e760000000000000000000000004e46e14a093b6140580e8256020cb6062fb574b2000000000000000000000000000000000000000000000000000000000000000900000000000000000000000000000000000000000000000000000000000000010000000000000000000000000000000000000000000000000000000000002b6400000000000000000000000000000000000000000000000000000000000031f5000000000000000000000000000000000000000000000000000000000000290400000000000000000000000000000000000000000000000000000000000040b000000000000000000000000000000000000000000000000000000000000036720000000000000000000000000000000000000000000000000000000000002af80000000000000000000000000000000000000000000000000000000000004a380000000000000000000000000000000000000000000000000000000000002d37",
            "debugEnable": true,
            "errorInfo": "",
            "eventCount": 9,
            "feeRecipient": "0x388c818ca8b9251b393131c08a736a67ccb19297",
            "formatValue": "0.0003145586",
            "gasLimit": 2000000,
            "gasPrice": "0.6",
            "gasUsed": 556142,
            "intTxnCount": 23,
            "internalRevert": false,
            "internalRevertMessage": "",
            "isContractCreation": false,
            "isFlashloan": false,
            "maxFee": "",
            "nonce": 8731,
            "overwritedBlockNumber": -1,
            "priorityFee": "",
            "receiver": "0x06be1d61a6fbd6664d7e0174140441787a120f61",
            "revertMessage": "",
            "sender": "0xc5ec7765481f90acbcc61de0bb5c7904f2e63077",
            "simulationEnable": true,
            "sourceTxnHash": "0x1d7c2459677f8c59790eeeb414991fc214a4665edc3f9e148e5d42c68c72f8a9",
            "status": true,
            "timestamp": "2024-09-02T04:22:59Z",
            "transactionFee": "0.0003336852",
            "txnHash": "0x1d7c2459677f8c59790eeeb414991fc214a4665edc3f9e148e5d42c68c72f8a9",
            "txnIndex": 36,
            "type": 0,
            "value": "314558600000000"
        },
        "fund_flow": [
            {
                "amount": "0.0003145586",
                "from": "0xc5ec7765481f90acbcc61de0bb5c7904f2e63077",
                "id": 1,
                "isERC1155": false,
                "isERC721": false,
                "isReverted": false,
                "order": 1,
                "to": "0x06be1d61a6fbd6664d7e0174140441787a120f61",
                "token": "0xeeeeeeeeeeeeeeeeeeeeeeeeeeeeeeeeeeeeeeee"
            },
            {
                "amount": "0.00003381805",
                "from": "0x06be1d61a6fbd6664d7e0174140441787a120f61",
                "id": 2,
                "isERC1155": false,
                "isERC721": false,
                "isReverted": false,
                "order": 2,
                "to": "0x84b3f7a19b74f520c5d659cb45d43ad266e2da15",
                "token": "0xeeeeeeeeeeeeeeeeeeeeeeeeeeeeeeeeeeeeeeee"
            },
            {
                "amount": "0.000039",
                "from": "0x06be1d61a6fbd6664d7e0174140441787a120f61",
                "id": 3,
                "isERC1155": false,
                "isERC721": false,
                "isReverted": false,
                "order": 3,
                "to": "0xd3b8601394cbeecdec742a56e059d5eda8563514",
                "token": "0xeeeeeeeeeeeeeeeeeeeeeeeeeeeeeeeeeeeeeeee"
            },
            {
                "amount": "0.000039",
                "from": "0x06be1d61a6fbd6664d7e0174140441787a120f61",
                "id": 4,
                "isERC1155": false,
                "isERC721": false,
                "isReverted": false,
                "order": 4,
                "to": "0x94840926ab05563dbe5de10cc2173e62b784dd72",
                "token": "0xeeeeeeeeeeeeeeeeeeeeeeeeeeeeeeeeeeeeeeee"
            },
            {
                "amount": "0.000039",
                "from": "0x06be1d61a6fbd6664d7e0174140441787a120f61",
                "id": 5,
                "isERC1155": false,
                "isERC721": false,
                "isReverted": false,
                "order": 5,
                "to": "0x557a73f963297dc392e7916c609628fb17a63607",
                "token": "0xeeeeeeeeeeeeeeeeeeeeeeeeeeeeeeeeeeeeeeee"
            },
            {
                "amount": "0.000039",
                "from": "0x06be1d61a6fbd6664d7e0174140441787a120f61",
                "id": 6,
                "isERC1155": false,
                "isERC721": false,
                "isReverted": false,
                "order": 6,
                "to": "0x65286d5c75efaf2d99a5121c9e6aa6d7a140dd95",
                "token": "0xeeeeeeeeeeeeeeeeeeeeeeeeeeeeeeeeeeeeeeee"
            },
            {
                "amount": "0.0000338624",
                "from": "0x06be1d61a6fbd6664d7e0174140441787a120f61",
                "id": 7,
                "isERC1155": false,
                "isERC721": false,
                "isReverted": false,
                "order": 7,
                "to": "0xd00dc8b2d254b6077c29f5f8de6f007a2ddac499",
                "token": "0xeeeeeeeeeeeeeeeeeeeeeeeeeeeeeeeeeeeeeeee"
            },
            {
                "amount": "0.0000233481",
                "from": "0x06be1d61a6fbd6664d7e0174140441787a120f61",
                "id": 8,
                "isERC1155": false,
                "isERC721": false,
                "isReverted": false,
                "order": 8,
                "to": "0xc2841e2906d42b097e5f9ed19cca846a2a656f84",
                "token": "0xeeeeeeeeeeeeeeeeeeeeeeeeeeeeeeeeeeeeeeee"
            },
            {
                "amount": "0.0000106364",
                "from": "0x06be1d61a6fbd6664d7e0174140441787a120f61",
                "id": 9,
                "isERC1155": false,
                "isERC721": false,
                "isReverted": false,
                "order": 9,
                "to": "0xecf06e27be98c545f5ca8600957fd42ca3150e76",
                "token": "0xeeeeeeeeeeeeeeeeeeeeeeeeeeeeeeeeeeeeeeee"
            },
            {
                "amount": "0.000039",
                "from": "0x06be1d61a6fbd6664d7e0174140441787a120f61",
                "id": 10,
                "isERC1155": false,
                "isERC721": false,
                "isReverted": false,
                "order": 10,
                "to": "0x6e4a90b383e6bd8800b9d87a17760772a91dca54",
                "token": "0xeeeeeeeeeeeeeeeeeeeeeeeeeeeeeeeeeeeeeeee"
            },
            {
                "amount": "0.00001789365",
                "from": "0x06be1d61a6fbd6664d7e0174140441787a120f61",
                "id": 11,
                "isERC1155": false,
                "isERC721": false,
                "isReverted": false,
                "order": 11,
                "to": "0x4e46e14a093b6140580e8256020cb6062fb574b2",
                "token": "0xeeeeeeeeeeeeeeeeeeeeeeeeeeeeeeeeeeeeeeee"
            },
            {
                "amount": "0.000000000000000001",
                "from": "0xc5ec7765481f90acbcc61de0bb5c7904f2e63077",
                "id": 12,
                "isERC1155": false,
                "isERC721": false,
                "isReverted": false,
                "order": 12,
                "to": "0x84b3f7a19b74f520c5d659cb45d43ad266e2da15",
                "token": "0x7fc66500c84a76ad7e9c93437bfc5ac33e2ddae9"
            },
            {
                "amount": "0.011108",
                "from": "0xc5ec7765481f90acbcc61de0bb5c7904f2e63077",
                "id": 13,
                "isERC1155": false,
                "isERC721": false,
                "isReverted": false,
                "order": 13,
                "to": "0xd3b8601394cbeecdec742a56e059d5eda8563514",
                "token": "0xdac17f958d2ee523a2206206994597c13d831ec7"
            },
            {
                "amount": "0.012789",
                "from": "0xc5ec7765481f90acbcc61de0bb5c7904f2e63077",
                "id": 14,
                "isERC1155": false,
                "isERC721": false,
                "isReverted": false,
                "order": 14,
                "to": "0x94840926ab05563dbe5de10cc2173e62b784dd72",
                "token": "0xa0b86991c6218b36c1d19d4a2e9eb0ce3606eb48"
            },
            {
                "amount": "0.0105",
                "from": "0xc5ec7765481f90acbcc61de0bb5c7904f2e63077",
                "id": 15,
                "isERC1155": false,
                "isERC721": false,
                "isReverted": false,
                "order": 15,
                "to": "0x557a73f963297dc392e7916c609628fb17a63607",
                "token": "0xa0b86991c6218b36c1d19d4a2e9eb0ce3606eb48"
            },
            {
                "amount": "0.01656",
                "from": "0xc5ec7765481f90acbcc61de0bb5c7904f2e63077",
                "id": 16,
                "isERC1155": false,
                "isERC721": false,
                "isReverted": false,
                "order": 16,
                "to": "0x65286d5c75efaf2d99a5121c9e6aa6d7a140dd95",
                "token": "0xdac17f958d2ee523a2206206994597c13d831ec7"
            },
            {
                "amount": "0.013938",
                "from": "0xc5ec7765481f90acbcc61de0bb5c7904f2e63077",
                "id": 17,
                "isERC1155": false,
                "isERC721": false,
                "isReverted": false,
                "order": 17,
                "to": "0xd00dc8b2d254b6077c29f5f8de6f007a2ddac499",
                "token": "0xdac17f958d2ee523a2206206994597c13d831ec7"
            },
            {
                "amount": "0.011",
                "from": "0xc5ec7765481f90acbcc61de0bb5c7904f2e63077",
                "id": 18,
                "isERC1155": false,
                "isERC721": false,
                "isReverted": false,
                "order": 18,
                "to": "0xc2841e2906d42b097e5f9ed19cca846a2a656f84",
                "token": "0xdac17f958d2ee523a2206206994597c13d831ec7"
            },
            {
                "amount": "0.019",
                "from": "0xc5ec7765481f90acbcc61de0bb5c7904f2e63077",
                "id": 19,
                "isERC1155": false,
                "isERC721": false,
                "isReverted": false,
                "order": 19,
                "to": "0xecf06e27be98c545f5ca8600957fd42ca3150e76",
                "token": "0xa0b86991c6218b36c1d19d4a2e9eb0ce3606eb48"
            },
            {
                "amount": "0.011575",
                "from": "0xc5ec7765481f90acbcc61de0bb5c7904f2e63077",
                "id": 20,
                "isERC1155": false,
                "isERC721": false,
                "isReverted": false,
                "order": 20,
                "to": "0x4e46e14a093b6140580e8256020cb6062fb574b2",
                "token": "0xdac17f958d2ee523a2206206994597c13d831ec7"
            }
        ],
        "token_infos": [
            {
                "address": "0x7fc66500c84a76ad7e9c93437bfc5ac33e2ddae9",
                "decimals": 18
            },
            {
                "address": "0xa0b86991c6218b36c1d19d4a2e9eb0ce3606eb48",
                "decimals": 6
            },
            {
                "address": "0xc02aaa39b223fe8d0a0e5c4f27ead9083c756cc2",
                "decimals": 18
            },
            {
                "address": "0xdac17f958d2ee523a2206206994597c13d831ec7",
                "decimals": 6
            },
            {
                "address": "0xeeeeeeeeeeeeeeeeeeeeeeeeeeeeeeeeeeeeeeee",
                "decimals": 18
            }
        ]
    },
    "address_label": {
        "labels": [
            {
                "address": "0x06be1d61a6fbd6664d7e0174140441787a120f61",
                "label": "Fake_Phishing442817"
            },
            {
                "address": "0xdac17f958d2ee523a2206206994597c13d831ec7",
                "label": "Tether: USDT Stablecoin"
            },
            {
                "address": "0x7fc66500c84a76ad7e9c93437bfc5ac33e2ddae9",
                "label": "Aave: AAVE Token"
            },
            {
                "address": "0xa0b86991c6218b36c1d19d4a2e9eb0ce3606eb48",
                "label": "Circle: USDC Token"
            },
            {
                "address": "0x43506849d7c04f9138d1a2050bbf3a0c054402dd",
                "label": "FiatTokenV2_2"
            },
            {
                "address": "0x0000000000000000000000000000000000000003",
                "label": "Precompiled"
            },
            {
                "address": "0x0000000000000000000000000000000000000004",
                "label": "Precompiled"
            },
            {
                "address": "0xeeeeeeeeeeeeeeeeeeeeeeeeeeeeeeeeeeeeeeee",
                "label": "Ether"
            },
            {
                "address": "0x388c818ca8b9251b393131c08a736a67ccb19297",
                "label": "LidoExecutionLayerRewardsVault"
            },
            {
                "address": "0x5d4aa78b08bc7c530e21bf7447988b1be7991322",
                "label": "AaveTokenV3"
            },
            {
                "address": "0x0000000000000000000000000000000000000001",
                "label": "Precompiled"
            },
            {
                "address": "0x0000000000000000000000000000000000000002",
                "label": "Precompiled"
            }
        ]
    },
    "trace": {
        "accountLabels": null,
        "dataMap": {
            "-1": {
                "invocation": {
                    "address": "0xc5ec7765481f90acbcc61de0bb5c7904f2e63077",
                    "callData": "",
                    "decodedMethod": null,
                    "errorInfo": "",
                    "fromAddress": "",
                    "gasUsed": 0,
                    "id": -1,
                    "methodDecoded": false,
                    "operation": "",
                    "output": "",
                    "revert": false,
                    "revertMessage": "",
                    "selector": "",
                    "status": false,
                    "value": ""
                },
                "nodeType": 0
            },
            "0": {
                "invocation": {
                    "address": "0x06be1d61a6fbd6664d7e0174140441787a120f61",
                    "callData": "0x00000000000000000000000000000000000000000000000000000000000000a00000000000000000000000000000000000000000000000000000000000000200000000000000000000000000000000000000000000000000000000000000036000000000000000000000000000000000000000000000000000000000000004a000000000000000000000000000000000000000000000000000000000000005e0000000000000000000000000000000000000000000000000000000000000000a00000000000000000000000084b3f7a19b74f520c5d659cb45d43ad266e2da15000000000000000000000000d3b8601394cbeecdec742a56e059d5eda856351400000000000000000000000094840926ab05563dbe5de10cc2173e62b784dd72000000000000000000000000557a73f963297dc392e7916c609628fb17a6360700000000000000000000000065286d5c75efaf2d99a5121c9e6aa6d7a140dd95000000000000000000000000d00dc8b2d254b6077c29f5f8de6f007a2ddac499000000000000000000000000c2841e2906d42b097e5f9ed19cca846a2a656f84000000000000000000000000ecf06e27be98c545f5ca8600957fd42ca3150e760000000000000000000000006e4a90b383e6bd8800b9d87a17760772a91dca540000000000000000000000004e46e14a093b6140580e8256020cb6062fb574b2000000000000000000000000000000000000000000000000000000000000000a00000000000000000000000000000000000000000000000000001ec1e0db7480000000000000000000000000000000000000000000000000000023786525700000000000000000000000000000000000000000000000000000002378652570000000000000000000000000000000000000000000000000000000237865257000000000000000000000000000000000000000000000000000000023786525700000000000000000000000000000000000000000000000000000001ecc3452c0000000000000000000000000000000000000000000000000000000153c2734e900000000000000000000000000000000000000000000000000000009ac7ad7fc0000000000000000000000000000000000000000000000000000002378652570000000000000000000000000000000000000000000000000000000104630a6e88000000000000000000000000000000000000000000000000000000000000000090000000000000000000000007fc66500c84a76ad7e9c93437bfc5ac33e2ddae9000000000000000000000000dac17f958d2ee523a2206206994597c13d831ec7000000000000000000000000a0b86991c6218b36c1d19d4a2e9eb0ce3606eb48000000000000000000000000a0b86991c6218b36c1d19d4a2e9eb0ce3606eb48000000000000000000000000dac17f958d2ee523a2206206994597c13d831ec7000000000000000000000000dac17f958d2ee523a2206206994597c13d831ec7000000000000000000000000dac17f958d2ee523a2206206994597c13d831ec7000000000000000000000000a0b86991c6218b36c1d19d4a2e9eb0ce3606eb48000000000000000000000000dac17f958d2ee523a2206206994597c13d831ec7000000000000000000000000000000000000000000000000000000000000000900000000000000000000000084b3f7a19b74f520c5d659cb45d43ad266e2da15000000000000000000000000d3b8601394cbeecdec742a56e059d5eda856351400000000000000000000000094840926ab05563dbe5de10cc2173e62b784dd72000000000000000000000000557a73f963297dc392e7916c609628fb17a6360700000000000000000000000065286d5c75efaf2d99a5121c9e6aa6d7a140dd95000000000000000000000000d00dc8b2d254b6077c29f5f8de6f007a2ddac499000000000000000000000000c2841e2906d42b097e5f9ed19cca846a2a656f84000000000000000000000000ecf06e27be98c545f5ca8600957fd42ca3150e760000000000000000000000004e46e14a093b6140580e8256020cb6062fb574b2000000000000000000000000000000000000000000000000000000000000000900000000000000000000000000000000000000000000000000000000000000010000000000000000000000000000000000000000000000000000000000002b6400000000000000000000000000000000000000000000000000000000000031f5000000000000000000000000000000000000000000000000000000000000290400000000000000000000000000000000000000000000000000000000000040b000000000000000000000000000000000000000000000000000000000000036720000000000000000000000000000000000000000000000000000000000002af80000000000000000000000000000000000000000000000000000000000004a380000000000000000000000000000000000000000000000000000000000002d37",
                    "decodedMethod": null,
                    "errorInfo": "",
                    "fromAddress": "0xc5ec7765481f90acbcc61de0bb5c7904f2e63077",
                    "gasUsed": 556142,
                    "id": 0,
                    "methodDecoded": false,
                    "operation": "CALL",
                    "output": "",
                    "revert": false,
                    "revertMessage": "",
                    "selector": "0x71707005",
                    "status": true,
                    "value": "0.0003145586"
                },
                "nodeType": 0
            },
            "1": {
                "invocation": {
                    "address": "0x84b3f7a19b74f520c5d659cb45d43ad266e2da15",
                    "callData": "0x",
                    "decodedMethod": null,
                    "errorInfo": "",
                    "fromAddress": "0x06be1d61a6fbd6664d7e0174140441787a120f61",
                    "gasUsed": 0,
                    "id": 1,
                    "methodDecoded": false,
                    "operation": "CALL",
                    "output": "",
                    "revert": false,
                    "revertMessage": "",
                    "selector": "fallback",
                    "status": true,
                    "value": "0.00003381805"
                },
                "nodeType": 0
            },
            "10": {
                "invocation": {
                    "address": "0x4e46e14a093b6140580e8256020cb6062fb574b2",
                    "callData": "0x",
                    "decodedMethod": null,
                    "errorInfo": "",
                    "fromAddress": "0x06be1d61a6fbd6664d7e0174140441787a120f61",
                    "gasUsed": 0,
                    "id": 10,
                    "methodDecoded": false,
                    "operation": "CALL",
                    "output": "",
                    "revert": false,
                    "revertMessage": "",
                    "selector": "fallback",
                    "status": true,
                    "value": "0.00001789365"
                },
                "nodeType": 0
            },
            "11": {
                "invocation": {
                    "address": "0x7fc66500c84a76ad7e9c93437bfc5ac33e2ddae9",
                    "callData": "0x000000000000000000000000c5ec7765481f90acbcc61de0bb5c7904f2e6307700000000000000000000000084b3f7a19b74f520c5d659cb45d43ad266e2da150000000000000000000000000000000000000000000000000000000000000001",
                    "decodedMethod": {
                        "callParams": [
                            {
                                "name": "from",
                                "type": "address",
                                "value": "0xc5ec7765481f90acbcc61de0bb5c7904f2e63077"
                            },
                            {
                                "name": "to",
                                "type": "address",
                                "value": "0x84b3f7a19b74f520c5d659cb45d43ad266e2da15"
                            },
                            {
                                "decimalAvailable": true,
                                "name": "amount",
                                "type": "uint256",
                                "value": "1"
                            }
                        ],
                        "constructorArguments": "",
                        "name": "transferFrom",
                        "returnParams": [
                            {
                                "name": "",
                                "type": "bool",
                                "value": true
                            }
                        ],
                        "signature": "transferFrom(address,address,uint256)"
                    },
                    "errorInfo": "",
                    "fromAddress": "0x06be1d61a6fbd6664d7e0174140441787a120f61",
                    "gasUsed": 42187,
                    "id": 11,
                    "methodDecoded": true,
                    "operation": "CALL",
                    "output": "0x0000000000000000000000000000000000000000000000000000000000000001",
                    "revert": false,
                    "revertMessage": "",
                    "selector": "0x23b872dd",
                    "status": true,
                    "value": "0"
                },
                "nodeType": 0
            },
            "12": {
                "invocation": {
                    "address": "0x5d4aa78b08bc7c530e21bf7447988b1be7991322",
                    "callData": "0x000000000000000000000000c5ec7765481f90acbcc61de0bb5c7904f2e6307700000000000000000000000084b3f7a19b74f520c5d659cb45d43ad266e2da150000000000000000000000000000000000000000000000000000000000000001",
                    "decodedMethod": {
                        "callParams": [
                            {
                                "name": "from",
                                "type": "address",
                                "value": "0xc5ec7765481f90acbcc61de0bb5c7904f2e63077"
                            },
                            {
                                "name": "to",
                                "type": "address",
                                "value": "0x84b3f7a19b74f520c5d659cb45d43ad266e2da15"
                            },
                            {
                                "decimalAvailable": true,
                                "name": "amount",
                                "type": "uint256",
                                "value": "1"
                            }
                        ],
                        "constructorArguments": "",
                        "name": "transferFrom",
                        "returnParams": [
                            {
                                "name": "",
                                "type": "bool",
                                "value": true
                            }
                        ],
                        "signature": "transferFrom(address,address,uint256)"
                    },
                    "errorInfo": "",
                    "fromAddress": "0x7fc66500c84a76ad7e9c93437bfc5ac33e2ddae9",
                    "gasUsed": 34943,
                    "id": 12,
                    "methodDecoded": true,
                    "operation": "DELEGATECALL",
                    "output": "0x0000000000000000000000000000000000000000000000000000000000000001",
                    "revert": false,
                    "revertMessage": "",
                    "selector": "0x23b872dd",
                    "status": true,
                    "value": "0"
                },
                "nodeType": 0
            },
            "13": {
                "event": {
                    "contract": "0x7fc66500c84a76ad7e9c93437bfc5ac33e2ddae9",
                    "decodedLog": {
                        "name": "Transfer",
                        "params": [
                            {
                                "name": "from",
                                "type": "address",
                                "value": "0xc5ec7765481f90acbcc61de0bb5c7904f2e63077"
                            },
                            {
                                "name": "to",
                                "type": "address",
                                "value": "0x84b3f7a19b74f520c5d659cb45d43ad266e2da15"
                            },
                            {
                                "decimalAvailable": true,
                                "name": "value",
                                "type": "uint256",
                                "value": "1"
                            }
                        ],
                        "signature": "Transfer(address,address,uint256)"
                    },
                    "id": 13,
                    "logData": "0x0000000000000000000000000000000000000000000000000000000000000001",
                    "logDecoded": true,
                    "operation": "EVENT",
                    "revert": false,
                    "status": true,
                    "topics": [
                        "0xddf252ad1be2c89b69c2b068fc378daa952ba7f163c4a11628f55a4df523b3ef",
                        "0x000000000000000000000000c5ec7765481f90acbcc61de0bb5c7904f2e63077",
                        "0x00000000000000000000000084b3f7a19b74f520c5d659cb45d43ad266e2da15"
                    ]
                },
                "nodeType": 1
            },
            "14": {
                "invocation": {
                    "address": "0xdac17f958d2ee523a2206206994597c13d831ec7",
                    "callData": "0x000000000000000000000000c5ec7765481f90acbcc61de0bb5c7904f2e63077000000000000000000000000d3b8601394cbeecdec742a56e059d5eda85635140000000000000000000000000000000000000000000000000000000000002b64",
                    "decodedMethod": {
                        "callParams": [
                            {
                                "name": "_from",
                                "type": "address",
                                "value": "0xc5ec7765481f90acbcc61de0bb5c7904f2e63077"
                            },
                            {
                                "name": "_to",
                                "type": "address",
                                "value": "0xd3b8601394cbeecdec742a56e059d5eda8563514"
                            },
                            {
                                "decimalAvailable": true,
                                "name": "_value",
                                "type": "uint256",
                                "value": "11,108"
                            }
                        ],
                        "constructorArguments": "",
                        "name": "transferFrom",
                        "returnParams": [],
                        "signature": "transferFrom(address,address,uint256)"
                    },
                    "errorInfo": "",
                    "fromAddress": "0x06be1d61a6fbd6664d7e0174140441787a120f61",
                    "gasUsed": 43630,
                    "id": 14,
                    "methodDecoded": true,
                    "operation": "CALL",
                    "output": "",
                    "revert": false,
                    "revertMessage": "",
                    "selector": "0x23b872dd",
                    "status": true,
                    "value": "0"
                },
                "nodeType": 0
            },
            "15": {
                "event": {
                    "contract": "0xdac17f958d2ee523a2206206994597c13d831ec7",
                    "decodedLog": {
                        "name": "Transfer",
                        "params": [
                            {
                                "name": "from",
                                "type": "address",
                                "value": "0xc5ec7765481f90acbcc61de0bb5c7904f2e63077"
                            },
                            {
                                "name": "to",
                                "type": "address",
                                "value": "0xd3b8601394cbeecdec742a56e059d5eda8563514"
                            },
                            {
                                "decimalAvailable": true,
                                "name": "value",
                                "type": "uint256",
                                "value": "11,108"
                            }
                        ],
                        "signature": "Transfer(address,address,uint256)"
                    },
                    "id": 15,
                    "logData": "0x0000000000000000000000000000000000000000000000000000000000002b64",
                    "logDecoded": true,
                    "operation": "EVENT",
                    "revert": false,
                    "status": true,
                    "topics": [
                        "0xddf252ad1be2c89b69c2b068fc378daa952ba7f163c4a11628f55a4df523b3ef",
                        "0x000000000000000000000000c5ec7765481f90acbcc61de0bb5c7904f2e63077",
                        "0x000000000000000000000000d3b8601394cbeecdec742a56e059d5eda8563514"
                    ]
                },
                "nodeType": 1
            },
            "16": {
                "invocation": {
                    "address": "0xa0b86991c6218b36c1d19d4a2e9eb0ce3606eb48",
                    "callData": "0x000000000000000000000000c5ec7765481f90acbcc61de0bb5c7904f2e6307700000000000000000000000094840926ab05563dbe5de10cc2173e62b784dd7200000000000000000000000000000000000000000000000000000000000031f5",
                    "decodedMethod": {
                        "callParams": [
                            {
                                "name": "from",
                                "type": "address",
                                "value": "0xc5ec7765481f90acbcc61de0bb5c7904f2e63077"
                            },
                            {
                                "name": "to",
                                "type": "address",
                                "value": "0x94840926ab05563dbe5de10cc2173e62b784dd72"
                            },
                            {
                                "decimalAvailable": true,
                                "name": "value",
                                "type": "uint256",
                                "value": "12,789"
                            }
                        ],
                        "constructorArguments": "",
                        "name": "transferFrom",
                        "returnParams": [
                            {
                                "name": "",
                                "type": "bool",
                                "value": true
                            }
                        ],
                        "signature": "transferFrom(address,address,uint256)"
                    },
                    "errorInfo": "",
                    "fromAddress": "0x06be1d61a6fbd6664d7e0174140441787a120f61",
                    "gasUsed": 48549,
                    "id": 16,
                    "methodDecoded": true,
                    "operation": "CALL",
                    "output": "0x0000000000000000000000000000000000000000000000000000000000000001",
                    "revert": false,
                    "revertMessage": "",
                    "selector": "0x23b872dd",
                    "status": true,
                    "value": "0"
                },
                "nodeType": 0
            },
            "17": {
                "invocation": {
                    "address": "0x43506849d7c04f9138d1a2050bbf3a0c054402dd",
                    "callData": "0x000000000000000000000000c5ec7765481f90acbcc61de0bb5c7904f2e6307700000000000000000000000094840926ab05563dbe5de10cc2173e62b784dd7200000000000000000000000000000000000000000000000000000000000031f5",
                    "decodedMethod": {
                        "callParams": [
                            {
                                "name": "from",
                                "type": "address",
                                "value": "0xc5ec7765481f90acbcc61de0bb5c7904f2e63077"
                            },
                            {
                                "name": "to",
                                "type": "address",
                                "value": "0x94840926ab05563dbe5de10cc2173e62b784dd72"
                            },
                            {
                                "decimalAvailable": true,
                                "name": "value",
                                "type": "uint256",
                                "value": "12,789"
                            }
                        ],
                        "constructorArguments": "",
                        "name": "transferFrom",
                        "returnParams": [
                            {
                                "name": "",
                                "type": "bool",
                                "value": true
                            }
                        ],
                        "signature": "transferFrom(address,address,uint256)"
                    },
                    "errorInfo": "",
                    "fromAddress": "0xa0b86991c6218b36c1d19d4a2e9eb0ce3606eb48",
                    "gasUsed": 41254,
                    "id": 17,
                    "methodDecoded": true,
                    "operation": "DELEGATECALL",
                    "output": "0x0000000000000000000000000000000000000000000000000000000000000001",
                    "revert": false,
                    "revertMessage": "",
                    "selector": "0x23b872dd",
                    "status": true,
                    "value": "0"
                },
                "nodeType": 0
            },
            "18": {
                "event": {
                    "contract": "0xa0b86991c6218b36c1d19d4a2e9eb0ce3606eb48",
                    "decodedLog": {
                        "name": "Transfer",
                        "params": [
                            {
                                "name": "from",
                                "type": "address",
                                "value": "0xc5ec7765481f90acbcc61de0bb5c7904f2e63077"
                            },
                            {
                                "name": "to",
                                "type": "address",
                                "value": "0x94840926ab05563dbe5de10cc2173e62b784dd72"
                            },
                            {
                                "decimalAvailable": true,
                                "name": "value",
                                "type": "uint256",
                                "value": "12,789"
                            }
                        ],
                        "signature": "Transfer(address,address,uint256)"
                    },
                    "id": 18,
                    "logData": "0x00000000000000000000000000000000000000000000000000000000000031f5",
                    "logDecoded": true,
                    "operation": "EVENT",
                    "revert": false,
                    "status": true,
                    "topics": [
                        "0xddf252ad1be2c89b69c2b068fc378daa952ba7f163c4a11628f55a4df523b3ef",
                        "0x000000000000000000000000c5ec7765481f90acbcc61de0bb5c7904f2e63077",
                        "0x00000000000000000000000094840926ab05563dbe5de10cc2173e62b784dd72"
                    ]
                },
                "nodeType": 1
            },
            "19": {
                "invocation": {
                    "address": "0xa0b86991c6218b36c1d19d4a2e9eb0ce3606eb48",
                    "callData": "0x000000000000000000000000c5ec7765481f90acbcc61de0bb5c7904f2e63077000000000000000000000000557a73f963297dc392e7916c609628fb17a636070000000000000000000000000000000000000000000000000000000000002904",
                    "decodedMethod": {
                        "callParams": [
                            {
                                "name": "from",
                                "type": "address",
                                "value": "0xc5ec7765481f90acbcc61de0bb5c7904f2e63077"
                            },
                            {
                                "name": "to",
                                "type": "address",
                                "value": "0x557a73f963297dc392e7916c609628fb17a63607"
                            },
                            {
                                "decimalAvailable": true,
                                "name": "value",
                                "type": "uint256",
                                "value": "10,500"
                            }
                        ],
                        "constructorArguments": "",
                        "name": "transferFrom",
                        "returnParams": [
                            {
                                "name": "",
                                "type": "bool",
                                "value": true
                            }
                        ],
                        "signature": "transferFrom(address,address,uint256)"
                    },
                    "errorInfo": "",
                    "fromAddress": "0x06be1d61a6fbd6664d7e0174140441787a120f61",
                    "gasUsed": 28449,
                    "id": 19,
                    "methodDecoded": true,
                    "operation": "CALL",
                    "output": "0x0000000000000000000000000000000000000000000000000000000000000001",
                    "revert": false,
                    "revertMessage": "",
                    "selector": "0x23b872dd",
                    "status": true,
                    "value": "0"
                },
                "nodeType": 0
            },
            "2": {
                "invocation": {
                    "address": "0xd3b8601394cbeecdec742a56e059d5eda8563514",
                    "callData": "0x",
                    "decodedMethod": null,
                    "errorInfo": "",
                    "fromAddress": "0x06be1d61a6fbd6664d7e0174140441787a120f61",
                    "gasUsed": 0,
                    "id": 2,
                    "methodDecoded": false,
                    "operation": "CALL",
                    "output": "",
                    "revert": false,
                    "revertMessage": "",
                    "selector": "fallback",
                    "status": true,
                    "value": "0.000039"
                },
                "nodeType": 0
            },
            "20": {
                "invocation": {
                    "address": "0x43506849d7c04f9138d1a2050bbf3a0c054402dd",
                    "callData": "0x000000000000000000000000c5ec7765481f90acbcc61de0bb5c7904f2e63077000000000000000000000000557a73f963297dc392e7916c609628fb17a636070000000000000000000000000000000000000000000000000000000000002904",
                    "decodedMethod": {
                        "callParams": [
                            {
                                "name": "from",
                                "type": "address",
                                "value": "0xc5ec7765481f90acbcc61de0bb5c7904f2e63077"
                            },
                            {
                                "name": "to",
                                "type": "address",
                                "value": "0x557a73f963297dc392e7916c609628fb17a63607"
                            },
                            {
                                "decimalAvailable": true,
                                "name": "value",
                                "type": "uint256",
                                "value": "10,500"
                            }
                        ],
                        "constructorArguments": "",
                        "name": "transferFrom",
                        "returnParams": [
                            {
                                "name": "",
                                "type": "bool",
                                "value": true
                            }
                        ],
                        "signature": "transferFrom(address,address,uint256)"
                    },
                    "errorInfo": "",
                    "fromAddress": "0xa0b86991c6218b36c1d19d4a2e9eb0ce3606eb48",
                    "gasUsed": 27654,
                    "id": 20,
                    "methodDecoded": true,
                    "operation": "DELEGATECALL",
                    "output": "0x0000000000000000000000000000000000000000000000000000000000000001",
                    "revert": false,
                    "revertMessage": "",
                    "selector": "0x23b872dd",
                    "status": true,
                    "value": "0"
                },
                "nodeType": 0
            },
            "21": {
                "event": {
                    "contract": "0xa0b86991c6218b36c1d19d4a2e9eb0ce3606eb48",
                    "decodedLog": {
                        "name": "Transfer",
                        "params": [
                            {
                                "name": "from",
                                "type": "address",
                                "value": "0xc5ec7765481f90acbcc61de0bb5c7904f2e63077"
                            },
                            {
                                "name": "to",
                                "type": "address",
                                "value": "0x557a73f963297dc392e7916c609628fb17a63607"
                            },
                            {
                                "decimalAvailable": true,
                                "name": "value",
                                "type": "uint256",
                                "value": "10,500"
                            }
                        ],
                        "signature": "Transfer(address,address,uint256)"
                    },
                    "id": 21,
                    "logData": "0x0000000000000000000000000000000000000000000000000000000000002904",
                    "logDecoded": true,
                    "operation": "EVENT",
                    "revert": false,
                    "status": true,
                    "topics": [
                        "0xddf252ad1be2c89b69c2b068fc378daa952ba7f163c4a11628f55a4df523b3ef",
                        "0x000000000000000000000000c5ec7765481f90acbcc61de0bb5c7904f2e63077",
                        "0x000000000000000000000000557a73f963297dc392e7916c609628fb17a63607"
                    ]
                },
                "nodeType": 1
            },
            "22": {
                "invocation": {
                    "address": "0xdac17f958d2ee523a2206206994597c13d831ec7",
                    "callData": "0x000000000000000000000000c5ec7765481f90acbcc61de0bb5c7904f2e6307700000000000000000000000065286d5c75efaf2d99a5121c9e6aa6d7a140dd9500000000000000000000000000000000000000000000000000000000000040b0",
                    "decodedMethod": {
                        "callParams": [
                            {
                                "name": "_from",
                                "type": "address",
                                "value": "0xc5ec7765481f90acbcc61de0bb5c7904f2e63077"
                            },
                            {
                                "name": "_to",
                                "type": "address",
                                "value": "0x65286d5c75efaf2d99a5121c9e6aa6d7a140dd95"
                            },
                            {
                                "decimalAvailable": true,
                                "name": "_value",
                                "type": "uint256",
                                "value": "16,560"
                            }
                        ],
                        "constructorArguments": "",
                        "name": "transferFrom",
                        "returnParams": [],
                        "signature": "transferFrom(address,address,uint256)"
                    },
                    "errorInfo": "",
                    "fromAddress": "0x06be1d61a6fbd6664d7e0174140441787a120f61",
                    "gasUsed": 26830,
                    "id": 22,
                    "methodDecoded": true,
                    "operation": "CALL",
                    "output": "",
                    "revert": false,
                    "revertMessage": "",
                    "selector": "0x23b872dd",
                    "status": true,
                    "value": "0"
                },
                "nodeType": 0
            },
            "23": {
                "event": {
                    "contract": "0xdac17f958d2ee523a2206206994597c13d831ec7",
                    "decodedLog": {
                        "name": "Transfer",
                        "params": [
                            {
                                "name": "from",
                                "type": "address",
                                "value": "0xc5ec7765481f90acbcc61de0bb5c7904f2e63077"
                            },
                            {
                                "name": "to",
                                "type": "address",
                                "value": "0x65286d5c75efaf2d99a5121c9e6aa6d7a140dd95"
                            },
                            {
                                "decimalAvailable": true,
                                "name": "value",
                                "type": "uint256",
                                "value": "16,560"
                            }
                        ],
                        "signature": "Transfer(address,address,uint256)"
                    },
                    "id": 23,
                    "logData": "0x00000000000000000000000000000000000000000000000000000000000040b0",
                    "logDecoded": true,
                    "operation": "EVENT",
                    "revert": false,
                    "status": true,
                    "topics": [
                        "0xddf252ad1be2c89b69c2b068fc378daa952ba7f163c4a11628f55a4df523b3ef",
                        "0x000000000000000000000000c5ec7765481f90acbcc61de0bb5c7904f2e63077",
                        "0x00000000000000000000000065286d5c75efaf2d99a5121c9e6aa6d7a140dd95"
                    ]
                },
                "nodeType": 1
            },
            "24": {
                "invocation": {
                    "address": "0xdac17f958d2ee523a2206206994597c13d831ec7",
                    "callData": "0x000000000000000000000000c5ec7765481f90acbcc61de0bb5c7904f2e63077000000000000000000000000d00dc8b2d254b6077c29f5f8de6f007a2ddac4990000000000000000000000000000000000000000000000000000000000003672",
                    "decodedMethod": {
                        "callParams": [
                            {
                                "name": "_from",
                                "type": "address",
                                "value": "0xc5ec7765481f90acbcc61de0bb5c7904f2e63077"
                            },
                            {
                                "name": "_to",
                                "type": "address",
                                "value": "0xd00dc8b2d254b6077c29f5f8de6f007a2ddac499"
                            },
                            {
                                "decimalAvailable": true,
                                "name": "_value",
                                "type": "uint256",
                                "value": "13,938"
                            }
                        ],
                        "constructorArguments": "",
                        "name": "transferFrom",
                        "returnParams": [],
                        "signature": "transferFrom(address,address,uint256)"
                    },
                    "errorInfo": "",
                    "fromAddress": "0x06be1d61a6fbd6664d7e0174140441787a120f61",
                    "gasUsed": 26830,
                    "id": 24,
                    "methodDecoded": true,
                    "operation": "CALL",
                    "output": "",
                    "revert": false,
                    "revertMessage": "",
                    "selector": "0x23b872dd",
                    "status": true,
                    "value": "0"
                },
                "nodeType": 0
            },
            "25": {
                "event": {
                    "contract": "0xdac17f958d2ee523a2206206994597c13d831ec7",
                    "decodedLog": {
                        "name": "Transfer",
                        "params": [
                            {
                                "name": "from",
                                "type": "address",
                                "value": "0xc5ec7765481f90acbcc61de0bb5c7904f2e63077"
                            },
                            {
                                "name": "to",
                                "type": "address",
                                "value": "0xd00dc8b2d254b6077c29f5f8de6f007a2ddac499"
                            },
                            {
                                "decimalAvailable": true,
                                "name": "value",
                                "type": "uint256",
                                "value": "13,938"
                            }
                        ],
                        "signature": "Transfer(address,address,uint256)"
                    },
                    "id": 25,
                    "logData": "0x0000000000000000000000000000000000000000000000000000000000003672",
                    "logDecoded": true,
                    "operation": "EVENT",
                    "revert": false,
                    "status": true,
                    "topics": [
                        "0xddf252ad1be2c89b69c2b068fc378daa952ba7f163c4a11628f55a4df523b3ef",
                        "0x000000000000000000000000c5ec7765481f90acbcc61de0bb5c7904f2e63077",
                        "0x000000000000000000000000d00dc8b2d254b6077c29f5f8de6f007a2ddac499"
                    ]
                },
                "nodeType": 1
            },
            "26": {
                "invocation": {
                    "address": "0xdac17f958d2ee523a2206206994597c13d831ec7",
                    "callData": "0x000000000000000000000000c5ec7765481f90acbcc61de0bb5c7904f2e63077000000000000000000000000c2841e2906d42b097e5f9ed19cca846a2a656f840000000000000000000000000000000000000000000000000000000000002af8",
                    "decodedMethod": {
                        "callParams": [
                            {
                                "name": "_from",
                                "type": "address",
                                "value": "0xc5ec7765481f90acbcc61de0bb5c7904f2e63077"
                            },
                            {
                                "name": "_to",
                                "type": "address",
                                "value": "0xc2841e2906d42b097e5f9ed19cca846a2a656f84"
                            },
                            {
                                "decimalAvailable": true,
                                "name": "_value",
                                "type": "uint256",
                                "value": "11,000"
                            }
                        ],
                        "constructorArguments": "",
                        "name": "transferFrom",
                        "returnParams": [],
                        "signature": "transferFrom(address,address,uint256)"
                    },
                    "errorInfo": "",
                    "fromAddress": "0x06be1d61a6fbd6664d7e0174140441787a120f61",
                    "gasUsed": 26830,
                    "id": 26,
                    "methodDecoded": true,
                    "operation": "CALL",
                    "output": "",
                    "revert": false,
                    "revertMessage": "",
                    "selector": "0x23b872dd",
                    "status": true,
                    "value": "0"
                },
                "nodeType": 0
            },
            "27": {
                "event": {
                    "contract": "0xdac17f958d2ee523a2206206994597c13d831ec7",
                    "decodedLog": {
                        "name": "Transfer",
                        "params": [
                            {
                                "name": "from",
                                "type": "address",
                                "value": "0xc5ec7765481f90acbcc61de0bb5c7904f2e63077"
                            },
                            {
                                "name": "to",
                                "type": "address",
                                "value": "0xc2841e2906d42b097e5f9ed19cca846a2a656f84"
                            },
                            {
                                "decimalAvailable": true,
                                "name": "value",
                                "type": "uint256",
                                "value": "11,000"
                            }
                        ],
                        "signature": "Transfer(address,address,uint256)"
                    },
                    "id": 27,
                    "logData": "0x0000000000000000000000000000000000000000000000000000000000002af8",
                    "logDecoded": true,
                    "operation": "EVENT",
                    "revert": false,
                    "status": true,
                    "topics": [
                        "0xddf252ad1be2c89b69c2b068fc378daa952ba7f163c4a11628f55a4df523b3ef",
                        "0x000000000000000000000000c5ec7765481f90acbcc61de0bb5c7904f2e63077",
                        "0x000000000000000000000000c2841e2906d42b097e5f9ed19cca846a2a656f84"
                    ]
                },
                "nodeType": 1
            },
            "28": {
                "invocation": {
                    "address": "0xa0b86991c6218b36c1d19d4a2e9eb0ce3606eb48",
                    "callData": "0x000000000000000000000000c5ec7765481f90acbcc61de0bb5c7904f2e63077000000000000000000000000ecf06e27be98c545f5ca8600957fd42ca3150e760000000000000000000000000000000000000000000000000000000000004a38",
                    "decodedMethod": {
                        "callParams": [
                            {
                                "name": "from",
                                "type": "address",
                                "value": "0xc5ec7765481f90acbcc61de0bb5c7904f2e63077"
                            },
                            {
                                "name": "to",
                                "type": "address",
                                "value": "0xecf06e27be98c545f5ca8600957fd42ca3150e76"
                            },
                            {
                                "decimalAvailable": true,
                                "name": "value",
                                "type": "uint256",
                                "value": "19,000"
                            }
                        ],
                        "constructorArguments": "",
                        "name": "transferFrom",
                        "returnParams": [
                            {
                                "name": "",
                                "type": "bool",
                                "value": true
                            }
                        ],
                        "signature": "transferFrom(address,address,uint256)"
                    },
                    "errorInfo": "",
                    "fromAddress": "0x06be1d61a6fbd6664d7e0174140441787a120f61",
                    "gasUsed": 28449,
                    "id": 28,
                    "methodDecoded": true,
                    "operation": "CALL",
                    "output": "0x0000000000000000000000000000000000000000000000000000000000000001",
                    "revert": false,
                    "revertMessage": "",
                    "selector": "0x23b872dd",
                    "status": true,
                    "value": "0"
                },
                "nodeType": 0
            },
            "29": {
                "invocation": {
                    "address": "0x43506849d7c04f9138d1a2050bbf3a0c054402dd",
                    "callData": "0x000000000000000000000000c5ec7765481f90acbcc61de0bb5c7904f2e63077000000000000000000000000ecf06e27be98c545f5ca8600957fd42ca3150e760000000000000000000000000000000000000000000000000000000000004a38",
                    "decodedMethod": {
                        "callParams": [
                            {
                                "name": "from",
                                "type": "address",
                                "value": "0xc5ec7765481f90acbcc61de0bb5c7904f2e63077"
                            },
                            {
                                "name": "to",
                                "type": "address",
                                "value": "0xecf06e27be98c545f5ca8600957fd42ca3150e76"
                            },
                            {
                                "decimalAvailable": true,
                                "name": "value",
                                "type": "uint256",
                                "value": "19,000"
                            }
                        ],
                        "constructorArguments": "",
                        "name": "transferFrom",
                        "returnParams": [
                            {
                                "name": "",
                                "type": "bool",
                                "value": true
                            }
                        ],
                        "signature": "transferFrom(address,address,uint256)"
                    },
                    "errorInfo": "",
                    "fromAddress": "0xa0b86991c6218b36c1d19d4a2e9eb0ce3606eb48",
                    "gasUsed": 27654,
                    "id": 29,
                    "methodDecoded": true,
                    "operation": "DELEGATECALL",
                    "output": "0x0000000000000000000000000000000000000000000000000000000000000001",
                    "revert": false,
                    "revertMessage": "",
                    "selector": "0x23b872dd",
                    "status": true,
                    "value": "0"
                },
                "nodeType": 0
            },
            "3": {
                "invocation": {
                    "address": "0x94840926ab05563dbe5de10cc2173e62b784dd72",
                    "callData": "0x",
                    "decodedMethod": null,
                    "errorInfo": "",
                    "fromAddress": "0x06be1d61a6fbd6664d7e0174140441787a120f61",
                    "gasUsed": 0,
                    "id": 3,
                    "methodDecoded": false,
                    "operation": "CALL",
                    "output": "",
                    "revert": false,
                    "revertMessage": "",
                    "selector": "fallback",
                    "status": true,
                    "value": "0.000039"
                },
                "nodeType": 0
            },
            "30": {
                "event": {
                    "contract": "0xa0b86991c6218b36c1d19d4a2e9eb0ce3606eb48",
                    "decodedLog": {
                        "name": "Transfer",
                        "params": [
                            {
                                "name": "from",
                                "type": "address",
                                "value": "0xc5ec7765481f90acbcc61de0bb5c7904f2e63077"
                            },
                            {
                                "name": "to",
                                "type": "address",
                                "value": "0xecf06e27be98c545f5ca8600957fd42ca3150e76"
                            },
                            {
                                "decimalAvailable": true,
                                "name": "value",
                                "type": "uint256",
                                "value": "19,000"
                            }
                        ],
                        "signature": "Transfer(address,address,uint256)"
                    },
                    "id": 30,
                    "logData": "0x0000000000000000000000000000000000000000000000000000000000004a38",
                    "logDecoded": true,
                    "operation": "EVENT",
                    "revert": false,
                    "status": true,
                    "topics": [
                        "0xddf252ad1be2c89b69c2b068fc378daa952ba7f163c4a11628f55a4df523b3ef",
                        "0x000000000000000000000000c5ec7765481f90acbcc61de0bb5c7904f2e63077",
                        "0x000000000000000000000000ecf06e27be98c545f5ca8600957fd42ca3150e76"
                    ]
                },
                "nodeType": 1
            },
            "31": {
                "invocation": {
                    "address": "0xdac17f958d2ee523a2206206994597c13d831ec7",
                    "callData": "0x000000000000000000000000c5ec7765481f90acbcc61de0bb5c7904f2e630770000000000000000000000004e46e14a093b6140580e8256020cb6062fb574b20000000000000000000000000000000000000000000000000000000000002d37",
                    "decodedMethod": {
                        "callParams": [
                            {
                                "name": "_from",
                                "type": "address",
                                "value": "0xc5ec7765481f90acbcc61de0bb5c7904f2e63077"
                            },
                            {
                                "name": "_to",
                                "type": "address",
                                "value": "0x4e46e14a093b6140580e8256020cb6062fb574b2"
                            },
                            {
                                "decimalAvailable": true,
                                "name": "_value",
                                "type": "uint256",
                                "value": "11,575"
                            }
                        ],
                        "constructorArguments": "",
                        "name": "transferFrom",
                        "returnParams": [],
                        "signature": "transferFrom(address,address,uint256)"
                    },
                    "errorInfo": "",
                    "fromAddress": "0x06be1d61a6fbd6664d7e0174140441787a120f61",
                    "gasUsed": 26830,
                    "id": 31,
                    "methodDecoded": true,
                    "operation": "CALL",
                    "output": "",
                    "revert": false,
                    "revertMessage": "",
                    "selector": "0x23b872dd",
                    "status": true,
                    "value": "0"
                },
                "nodeType": 0
            },
            "32": {
                "event": {
                    "contract": "0xdac17f958d2ee523a2206206994597c13d831ec7",
                    "decodedLog": {
                        "name": "Transfer",
                        "params": [
                            {
                                "name": "from",
                                "type": "address",
                                "value": "0xc5ec7765481f90acbcc61de0bb5c7904f2e63077"
                            },
                            {
                                "name": "to",
                                "type": "address",
                                "value": "0x4e46e14a093b6140580e8256020cb6062fb574b2"
                            },
                            {
                                "decimalAvailable": true,
                                "name": "value",
                                "type": "uint256",
                                "value": "11,575"
                            }
                        ],
                        "signature": "Transfer(address,address,uint256)"
                    },
                    "id": 32,
                    "logData": "0x0000000000000000000000000000000000000000000000000000000000002d37",
                    "logDecoded": true,
                    "operation": "EVENT",
                    "revert": false,
                    "status": true,
                    "topics": [
                        "0xddf252ad1be2c89b69c2b068fc378daa952ba7f163c4a11628f55a4df523b3ef",
                        "0x000000000000000000000000c5ec7765481f90acbcc61de0bb5c7904f2e63077",
                        "0x0000000000000000000000004e46e14a093b6140580e8256020cb6062fb574b2"
                    ]
                },
                "nodeType": 1
            },
            "4": {
                "invocation": {
                    "address": "0x557a73f963297dc392e7916c609628fb17a63607",
                    "callData": "0x",
                    "decodedMethod": null,
                    "errorInfo": "",
                    "fromAddress": "0x06be1d61a6fbd6664d7e0174140441787a120f61",
                    "gasUsed": 0,
                    "id": 4,
                    "methodDecoded": false,
                    "operation": "CALL",
                    "output": "",
                    "revert": false,
                    "revertMessage": "",
                    "selector": "fallback",
                    "status": true,
                    "value": "0.000039"
                },
                "nodeType": 0
            },
            "5": {
                "invocation": {
                    "address": "0x65286d5c75efaf2d99a5121c9e6aa6d7a140dd95",
                    "callData": "0x",
                    "decodedMethod": null,
                    "errorInfo": "",
                    "fromAddress": "0x06be1d61a6fbd6664d7e0174140441787a120f61",
                    "gasUsed": 0,
                    "id": 5,
                    "methodDecoded": false,
                    "operation": "CALL",
                    "output": "",
                    "revert": false,
                    "revertMessage": "",
                    "selector": "fallback",
                    "status": true,
                    "value": "0.000039"
                },
                "nodeType": 0
            },
            "6": {
                "invocation": {
                    "address": "0xd00dc8b2d254b6077c29f5f8de6f007a2ddac499",
                    "callData": "0x",
                    "decodedMethod": null,
                    "errorInfo": "",
                    "fromAddress": "0x06be1d61a6fbd6664d7e0174140441787a120f61",
                    "gasUsed": 0,
                    "id": 6,
                    "methodDecoded": false,
                    "operation": "CALL",
                    "output": "",
                    "revert": false,
                    "revertMessage": "",
                    "selector": "fallback",
                    "status": true,
                    "value": "0.0000338624"
                },
                "nodeType": 0
            },
            "7": {
                "invocation": {
                    "address": "0xc2841e2906d42b097e5f9ed19cca846a2a656f84",
                    "callData": "0x",
                    "decodedMethod": null,
                    "errorInfo": "",
                    "fromAddress": "0x06be1d61a6fbd6664d7e0174140441787a120f61",
                    "gasUsed": 0,
                    "id": 7,
                    "methodDecoded": false,
                    "operation": "CALL",
                    "output": "",
                    "revert": false,
                    "revertMessage": "",
                    "selector": "fallback",
                    "status": true,
                    "value": "0.0000233481"
                },
                "nodeType": 0
            },
            "8": {
                "invocation": {
                    "address": "0xecf06e27be98c545f5ca8600957fd42ca3150e76",
                    "callData": "0x",
                    "decodedMethod": null,
                    "errorInfo": "",
                    "fromAddress": "0x06be1d61a6fbd6664d7e0174140441787a120f61",
                    "gasUsed": 0,
                    "id": 8,
                    "methodDecoded": false,
                    "operation": "CALL",
                    "output": "",
                    "revert": false,
                    "revertMessage": "",
                    "selector": "fallback",
                    "status": true,
                    "value": "0.0000106364"
                },
                "nodeType": 0
            },
            "9": {
                "invocation": {
                    "address": "0x6e4a90b383e6bd8800b9d87a17760772a91dca54",
                    "callData": "0x",
                    "decodedMethod": null,
                    "errorInfo": "",
                    "fromAddress": "0x06be1d61a6fbd6664d7e0174140441787a120f61",
                    "gasUsed": 0,
                    "id": 9,
                    "methodDecoded": false,
                    "operation": "CALL",
                    "output": "",
                    "revert": false,
                    "revertMessage": "",
                    "selector": "fallback",
                    "status": true,
                    "value": "0.000039"
                },
                "nodeType": 0
            }
        },
        "gasFlame": [
            {
                "children": [
                    {
                        "children": [
                            {
                                "children": [],
                                "depth": 0,
                                "name": "Initial Gas",
                                "value": 35992
                            },
                            {
                                "children": [
                                    {
                                        "children": [],
                                        "depth": 1,
                                        "name": "fallback",
                                        "value": 0
                                    },
                                    {
                                        "children": [],
                                        "depth": 1,
                                        "name": "fallback",
                                        "value": 0
                                    },
                                    {
                                        "children": [],
                                        "depth": 1,
                                        "name": "fallback",
                                        "value": 0
                                    },
                                    {
                                        "children": [],
                                        "depth": 1,
                                        "name": "fallback",
                                        "value": 0
                                    },
                                    {
                                        "children": [],
                                        "depth": 1,
                                        "name": "fallback",
                                        "value": 0
                                    },
                                    {
                                        "children": [],
                                        "depth": 1,
                                        "name": "fallback",
                                        "value": 0
                                    },
                                    {
                                        "children": [],
                                        "depth": 1,
                                        "name": "fallback",
                                        "value": 0
                                    },
                                    {
                                        "children": [],
                                        "depth": 1,
                                        "name": "fallback",
                                        "value": 0
                                    },
                                    {
                                        "children": [],
                                        "depth": 1,
                                        "name": "fallback",
                                        "value": 0
                                    },
                                    {
                                        "children": [],
                                        "depth": 1,
                                        "name": "fallback",
                                        "value": 0
                                    },
                                    {
                                        "children": [
                                            {
                                                "children": [],
                                                "depth": 2,
                                                "name": "transferFrom",
                                                "value": 34943
                                            }
                                        ],
                                        "depth": 1,
                                        "name": "transferFrom",
                                        "value": 42187
                                    },
                                    {
                                        "children": [],
                                        "depth": 1,
                                        "name": "transferFrom",
                                        "value": 43630
                                    },
                                    {
                                        "children": [
                                            {
                                                "children": [],
                                                "depth": 2,
                                                "name": "transferFrom",
                                                "value": 41254
                                            }
                                        ],
                                        "depth": 1,
                                        "name": "transferFrom",
                                        "value": 48549
                                    },
                                    {
                                        "children": [
                                            {
                                                "children": [],
                                                "depth": 2,
                                                "name": "transferFrom",
                                                "value": 27654
                                            }
                                        ],
                                        "depth": 1,
                                        "name": "transferFrom",
                                        "value": 28449
                                    },
                                    {
                                        "children": [],
                                        "depth": 1,
                                        "name": "transferFrom",
                                        "value": 26830
                                    },
                                    {
                                        "children": [],
                                        "depth": 1,
                                        "name": "transferFrom",
                                        "value": 26830
                                    },
                                    {
                                        "children": [],
                                        "depth": 1,
                                        "name": "transferFrom",
                                        "value": 26830
                                    },
                                    {
                                        "children": [
                                            {
                                                "children": [],
                                                "depth": 2,
                                                "name": "transferFrom",
                                                "value": 27654
                                            }
                                        ],
                                        "depth": 1,
                                        "name": "transferFrom",
                                        "value": 28449
                                    },
                                    {
                                        "children": [],
                                        "depth": 1,
                                        "name": "transferFrom",
                                        "value": 26830
                                    }
                                ],
                                "depth": 0,
                                "name": "Executed Gas",
                                "value": 520150
                            }
                        ],
                        "depth": -1,
                        "name": "Actual Gas Used",
                        "value": 556142
                    },
                    {
                        "children": [],
                        "depth": -1,
                        "name": "Refunded Gas",
                        "value": 0
                    }
                ],
                "depth": -2,
                "name": "Total Gas",
                "value": 556142
            }
        ],
        "isConfirmed": true,
        "mainTrace": [
            {
                "children": [
                    {
                        "children": [
                            {
                                "children": [],
                                "depth": 1,
                                "id": 1,
                                "order": 1
                            },
                            {
                                "children": [],
                                "depth": 1,
                                "id": 2,
                                "order": 2
                            },
                            {
                                "children": [],
                                "depth": 1,
                                "id": 3,
                                "order": 3
                            },
                            {
                                "children": [],
                                "depth": 1,
                                "id": 4,
                                "order": 4
                            },
                            {
                                "children": [],
                                "depth": 1,
                                "id": 5,
                                "order": 5
                            },
                            {
                                "children": [],
                                "depth": 1,
                                "id": 6,
                                "order": 6
                            },
                            {
                                "children": [],
                                "depth": 1,
                                "id": 7,
                                "order": 7
                            },
                            {
                                "children": [],
                                "depth": 1,
                                "id": 8,
                                "order": 8
                            },
                            {
                                "children": [],
                                "depth": 1,
                                "id": 9,
                                "order": 9
                            },
                            {
                                "children": [],
                                "depth": 1,
                                "id": 10,
                                "order": 10
                            },
                            {
                                "children": [
                                    {
                                        "children": [
                                            {
                                                "children": [],
                                                "depth": 3,
                                                "id": 13,
                                                "order": 13
                                            }
                                        ],
                                        "depth": 2,
                                        "id": 12,
                                        "order": 12
                                    }
                                ],
                                "depth": 1,
                                "id": 11,
                                "order": 11
                            },
                            {
                                "children": [
                                    {
                                        "children": [],
                                        "depth": 2,
                                        "id": 15,
                                        "order": 15
                                    }
                                ],
                                "depth": 1,
                                "id": 14,
                                "order": 14
                            },
                            {
                                "children": [
                                    {
                                        "children": [
                                            {
                                                "children": [],
                                                "depth": 3,
                                                "id": 18,
                                                "order": 18
                                            }
                                        ],
                                        "depth": 2,
                                        "id": 17,
                                        "order": 17
                                    }
                                ],
                                "depth": 1,
                                "id": 16,
                                "order": 16
                            },
                            {
                                "children": [
                                    {
                                        "children": [
                                            {
                                                "children": [],
                                                "depth": 3,
                                                "id": 21,
                                                "order": 21
                                            }
                                        ],
                                        "depth": 2,
                                        "id": 20,
                                        "order": 20
                                    }
                                ],
                                "depth": 1,
                                "id": 19,
                                "order": 19
                            },
                            {
                                "children": [
                                    {
                                        "children": [],
                                        "depth": 2,
                                        "id": 23,
                                        "order": 23
                                    }
                                ],
                                "depth": 1,
                                "id": 22,
                                "order": 22
                            },
                            {
                                "children": [
                                    {
                                        "children": [],
                                        "depth": 2,
                                        "id": 25,
                                        "order": 25
                                    }
                                ],
                                "depth": 1,
                                "id": 24,
                                "order": 24
                            },
                            {
                                "children": [
                                    {
                                        "children": [],
                                        "depth": 2,
                                        "id": 27,
                                        "order": 27
                                    }
                                ],
                                "depth": 1,
                                "id": 26,
                                "order": 26
                            },
                            {
                                "children": [
                                    {
                                        "children": [
                                            {
                                                "children": [],
                                                "depth": 3,
                                                "id": 30,
                                                "order": 30
                                            }
                                        ],
                                        "depth": 2,
                                        "id": 29,
                                        "order": 29
                                    }
                                ],
                                "depth": 1,
                                "id": 28,
                                "order": 28
                            },
                            {
                                "children": [
                                    {
                                        "children": [],
                                        "depth": 2,
                                        "id": 32,
                                        "order": 32
                                    }
                                ],
                                "depth": 1,
                                "id": 31,
                                "order": 31
                            }
                        ],
                        "depth": 0,
                        "id": 0,
                        "order": 0
                    }
                ],
                "depth": -1,
                "id": -1,
                "order": -1
            }
        ],
        "mainTraceNodeCount": 33,
        "parentIdMap": {
            "0": -1,
            "1": 0,
            "10": 0,
            "11": 0,
            "12": 11,
            "13": 12,
            "14": 0,
            "15": 14,
            "16": 0,
            "17": 16,
            "18": 17,
            "19": 0,
            "2": 0,
            "20": 19,
            "21": 20,
            "22": 0,
            "23": 22,
            "24": 0,
            "25": 24,
            "26": 0,
            "27": 26,
            "28": 0,
            "29": 28,
            "3": 0,
            "30": 29,
            "31": 0,
            "32": 31,
            "4": 0,
            "5": 0,
            "6": 0,
            "7": 0,
            "8": 0,
            "9": 0
        },
        "tidyTrace": [
            {
                "children": [
                    {
                        "children": [
                            {
                                "children": [],
                                "depth": 1,
                                "id": 1,
                                "order": 1
                            },
                            {
                                "children": [],
                                "depth": 1,
                                "id": 2,
                                "order": 2
                            },
                            {
                                "children": [],
                                "depth": 1,
                                "id": 3,
                                "order": 3
                            },
                            {
                                "children": [],
                                "depth": 1,
                                "id": 4,
                                "order": 4
                            },
                            {
                                "children": [],
                                "depth": 1,
                                "id": 5,
                                "order": 5
                            },
                            {
                                "children": [],
                                "depth": 1,
                                "id": 6,
                                "order": 6
                            },
                            {
                                "children": [],
                                "depth": 1,
                                "id": 7,
                                "order": 7
                            },
                            {
                                "children": [],
                                "depth": 1,
                                "id": 8,
                                "order": 8
                            },
                            {
                                "children": [],
                                "depth": 1,
                                "id": 9,
                                "order": 9
                            },
                            {
                                "children": [],
                                "depth": 1,
                                "id": 10,
                                "order": 10
                            },
                            {
                                "children": [
                                    {
                                        "children": [
                                            {
                                                "children": [],
                                                "depth": 3,
                                                "id": 13,
                                                "order": 13
                                            }
                                        ],
                                        "depth": 2,
                                        "id": 12,
                                        "order": 12
                                    }
                                ],
                                "depth": 1,
                                "id": 11,
                                "order": 11
                            },
                            {
                                "children": [
                                    {
                                        "children": [],
                                        "depth": 2,
                                        "id": 15,
                                        "order": 15
                                    }
                                ],
                                "depth": 1,
                                "id": 14,
                                "order": 14
                            },
                            {
                                "children": [
                                    {
                                        "children": [
                                            {
                                                "children": [],
                                                "depth": 3,
                                                "id": 18,
                                                "order": 18
                                            }
                                        ],
                                        "depth": 2,
                                        "id": 17,
                                        "order": 17
                                    }
                                ],
                                "depth": 1,
                                "id": 16,
                                "order": 16
                            },
                            {
                                "children": [
                                    {
                                        "children": [
                                            {
                                                "children": [],
                                                "depth": 3,
                                                "id": 21,
                                                "order": 21
                                            }
                                        ],
                                        "depth": 2,
                                        "id": 20,
                                        "order": 20
                                    }
                                ],
                                "depth": 1,
                                "id": 19,
                                "order": 19
                            },
                            {
                                "children": [
                                    {
                                        "children": [],
                                        "depth": 2,
                                        "id": 23,
                                        "order": 23
                                    }
                                ],
                                "depth": 1,
                                "id": 22,
                                "order": 22
                            },
                            {
                                "children": [
                                    {
                                        "children": [],
                                        "depth": 2,
                                        "id": 25,
                                        "order": 25
                                    }
                                ],
                                "depth": 1,
                                "id": 24,
                                "order": 24
                            },
                            {
                                "children": [
                                    {
                                        "children": [],
                                        "depth": 2,
                                        "id": 27,
                                        "order": 27
                                    }
                                ],
                                "depth": 1,
                                "id": 26,
                                "order": 26
                            },
                            {
                                "children": [
                                    {
                                        "children": [
                                            {
                                                "children": [],
                                                "depth": 3,
                                                "id": 30,
                                                "order": 30
                                            }
                                        ],
                                        "depth": 2,
                                        "id": 29,
                                        "order": 29
                                    }
                                ],
                                "depth": 1,
                                "id": 28,
                                "order": 28
                            },
                            {
                                "children": [
                                    {
                                        "children": [],
                                        "depth": 2,
                                        "id": 32,
                                        "order": 32
                                    }
                                ],
                                "depth": 1,
                                "id": 31,
                                "order": 31
                            }
                        ],
                        "depth": 0,
                        "id": 0,
                        "order": 0
                    }
                ],
                "depth": -1,
                "id": -1,
                "order": -1
            }
        ],
        "tidyTraceNodeCount": 33
    },
    "state_change": {
        "stateChanges": [
            {
                "address": "0x7fc66500c84a76ad7e9c93437bfc5ac33e2ddae9",
                "erc": "ERC-20",
                "slots": [
                    {
                        "current": "0x0000000000000000000000000000000000000000000000000429d069189dff83",
                        "key": "0xdd9d3cc474994fd79331b6b1542ef6017d78391451fb7e890af9bd79465e7909",
                        "prev": "0x0000000000000000000000000000000000000000000000000429d069189dff84"
                    },
                    {
                        "current": "0x0000000000000000000000000000000000000000000000000000000000000001",
                        "key": "0x583ed44042f1d108c2289af5ee1c6c386c470a7b1d520ec025d25adeed945776",
                        "prev": "0x0000000000000000000000000000000000000000000000000000000000000000"
                    }
                ],
                "storageVariables": [
                    {
                        "name": "_balances",
                        "type": "mapping(address => struct BaseAaveToken.DelegationAwareBalance)",
                        "value": {
                            "pairs": [
                                {
                                    "key": "0x84b3f7a19b74f520c5d659cb45d43ad266e2da15",
                                    "value": {
                                        "fields": [
                                            {
                                                "name": "balance",
                                                "type": "uint104",
                                                "value": {
                                                    "current": "1",
                                                    "prev": "0",
                                                    "typeTag": 1
                                                }
                                            },
                                            {
                                                "name": "delegatedPropositionBalance",
                                                "type": "uint72",
                                                "value": {
                                                    "current": "0",
                                                    "prev": "0",
                                                    "typeTag": 1
                                                }
                                            },
                                            {
                                                "name": "delegatedVotingBalance",
                                                "type": "uint72",
                                                "value": {
                                                    "current": "0",
                                                    "prev": "0",
                                                    "typeTag": 1
                                                }
                                            },
                                            {
                                                "name": "delegationMode",
                                                "type": "enum DelegationMode",
                                                "value": {
                                                    "current": "0",
                                                    "prev": "0",
                                                    "typeTag": 1
                                                }
                                            }
                                        ],
                                        "typeTag": 3
                                    }
                                },
                                {
                                    "key": "0xc5ec7765481f90acbcc61de0bb5c7904f2e63077",
                                    "value": {
                                        "fields": [
                                            {
                                                "name": "balance",
                                                "type": "uint104",
                                                "value": {
                                                    "current": "299999999999999875",
                                                    "prev": "299999999999999876",
                                                    "typeTag": 1
                                                }
                                            },
                                            {
                                                "name": "delegatedPropositionBalance",
                                                "type": "uint72",
                                                "value": {
                                                    "current": "0",
                                                    "prev": "0",
                                                    "typeTag": 1
                                                }
                                            },
                                            {
                                                "name": "delegatedVotingBalance",
                                                "type": "uint72",
                                                "value": {
                                                    "current": "0",
                                                    "prev": "0",
                                                    "typeTag": 1
                                                }
                                            },
                                            {
                                                "name": "delegationMode",
                                                "type": "enum DelegationMode",
                                                "value": {
                                                    "current": "0",
                                                    "prev": "0",
                                                    "typeTag": 1
                                                }
                                            }
                                        ],
                                        "typeTag": 3
                                    }
                                }
                            ],
                            "typeTag": 4
                        }
                    }
                ]
            },
            {
                "address": "0xa0b86991c6218b36c1d19d4a2e9eb0ce3606eb48",
                "erc": "ERC-20",
                "slots": [
                    {
                        "current": "0x0000000000000000000000000000000000000000000000000000000000002904",
                        "key": "0x0965761cfcab2082959e0efe4b442284f36d0806dba1d26d24f600624c35a5a8",
                        "prev": "0x0000000000000000000000000000000000000000000000000000000000000000"
                    },
                    {
                        "current": "0x0000000000000000000000000000000000000000000000000000000000004a38",
                        "key": "0x3608c5655ec8634fdefbbac77a19984d64ac6d00fd5a161621c1f9a207b3e87c",
                        "prev": "0x0000000000000000000000000000000000000000000000000000000000000000"
                    },
                    {
                        "current": "0x00000000000000000000000000000000000000000000000000000000000031f5",
                        "key": "0x26d3ddbf5d03da79fc88a7e9bfdfe336559462f03ece4cb0b2cd90464884023e",
                        "prev": "0x0000000000000000000000000000000000000000000000000000000000000000"
                    },
                    {
                        "current": "0xfffffffffffffffffffffffffffffffffffffffffffffffffffffffffb19b35c",
                        "key": "0x6e4a93b3d9967be99aa5b95ddd695cf8a382b77edadbfba89886a5d7c9c17eb4",
                        "prev": "0xfffffffffffffffffffffffffffffffffffffffffffffffffffffffffb1a588d"
                    },
                    {
                        "current": "0x00000000000000000000000000000000000000000000000000000000040a84dd",
                        "key": "0x4830b0b62f51a11f475ebec05e704606570212483dc3f8c44d8ab0925178a33d",
                        "prev": "0x00000000000000000000000000000000000000000000000000000000040b2a0e"
                    }
                ],
                "storageVariables": [
                    {
                        "name": "balanceAndBlacklistStates",
                        "type": "mapping(address => uint256)",
                        "value": {
                            "pairs": [
                                {
                                    "key": "0x557a73f963297dc392e7916c609628fb17a63607",
                                    "value": {
                                        "current": "10500",
                                        "prev": "0",
                                        "typeTag": 1
                                    }
                                },
                                {
                                    "key": "0x94840926ab05563dbe5de10cc2173e62b784dd72",
                                    "value": {
                                        "current": "12789",
                                        "prev": "0",
                                        "typeTag": 1
                                    }
                                },
                                {
                                    "key": "0xc5ec7765481f90acbcc61de0bb5c7904f2e63077",
                                    "value": {
                                        "current": "67798237",
                                        "prev": "67840526",
                                        "typeTag": 1
                                    }
                                },
                                {
                                    "key": "0xecf06e27be98c545f5ca8600957fd42ca3150e76",
                                    "value": {
                                        "current": "19000",
                                        "prev": "0",
                                        "typeTag": 1
                                    }
                                }
                            ],
                            "typeTag": 4
                        }
                    },
                    {
                        "name": "allowed",
                        "type": "mapping(address => mapping(address => uint256))",
                        "value": {
                            "pairs": [
                                {
                                    "key": "0xc5ec7765481f90acbcc61de0bb5c7904f2e63077",
                                    "value": {
                                        "pairs": [
                                            {
                                                "key": "0x06be1d61a6fbd6664d7e0174140441787a120f61",
                                                "value": {
                                                    "current": "115792089237316195423570985008687907853269984665640564039457584007913047438172",
                                                    "prev": "115792089237316195423570985008687907853269984665640564039457584007913047480461",
                                                    "typeTag": 1
                                                }
                                            }
                                        ],
                                        "typeTag": 4
                                    }
                                }
                            ],
                            "typeTag": 4
                        }
                    }
                ]
            },
            {
                "address": "0xdac17f958d2ee523a2206206994597c13d831ec7",
                "erc": "ERC-20",
                "slots": [
                    {
                        "current": "0x0000000000000000000000000000000000000000000000000000000003c64b6d",
                        "key": "0x3031bff4600a349daad9b6bd6213c4a6e995321c5b048f73d95379bbb0045f45",
                        "prev": "0x0000000000000000000000000000000000000000000000000000000003c74622"
                    },
                    {
                        "current": "0x0000000000000000000000000000000000000000000000000000000000002b64",
                        "key": "0x06e60377d2f8bfabd6d7902b97e835b4d38516601d6709f12fc70240792895ee",
                        "prev": "0x0000000000000000000000000000000000000000000000000000000000000000"
                    },
                    {
                        "current": "0x00000000000000000000000000000000000000000000000000000000000040b0",
                        "key": "0x362cdd317cdec63360b7f264a01389e75dfcebeacc3836aba7c5bb75822a914b",
                        "prev": "0x0000000000000000000000000000000000000000000000000000000000000000"
                    },
                    {
                        "current": "0x0000000000000000000000000000000000000000000000000000000000003672",
                        "key": "0xeca9713efcec529d5cdbd889d3f475274a7df9125d99cb53f98ce4a9c695678d",
                        "prev": "0x0000000000000000000000000000000000000000000000000000000000000000"
                    },
                    {
                        "current": "0x0000000000000000000000000000000000000000000000000000000000002af8",
                        "key": "0xa611af2dde32171a0385493d421c8acad72783a946abe49a04f6923107b6ac4e",
                        "prev": "0x0000000000000000000000000000000000000000000000000000000000000000"
                    },
                    {
                        "current": "0x0000000000000000000000000000000000000000000000000000000000002d37",
                        "key": "0x75e34c1b10bbf28a8b234ab24803e1013d68b72600eafbfd6f77b030d6c4eb13",
                        "prev": "0x0000000000000000000000000000000000000000000000000000000000000000"
                    }
                ],
                "storageVariables": [
                    {
                        "name": "balances",
                        "type": "mapping(address => uint256)",
                        "value": {
                            "pairs": [
                                {
                                    "key": "0x4e46e14a093b6140580e8256020cb6062fb574b2",
                                    "value": {
                                        "current": "11575",
                                        "prev": "0",
                                        "typeTag": 1
                                    }
                                },
                                {
                                    "key": "0x65286d5c75efaf2d99a5121c9e6aa6d7a140dd95",
                                    "value": {
                                        "current": "16560",
                                        "prev": "0",
                                        "typeTag": 1
                                    }
                                },
                                {
                                    "key": "0xc2841e2906d42b097e5f9ed19cca846a2a656f84",
                                    "value": {
                                        "current": "11000",
                                        "prev": "0",
                                        "typeTag": 1
                                    }
                                },
                                {
                                    "key": "0xc5ec7765481f90acbcc61de0bb5c7904f2e63077",
                                    "value": {
                                        "current": "63327085",
                                        "prev": "63391266",
                                        "typeTag": 1
                                    }
                                },
                                {
                                    "key": "0xd00dc8b2d254b6077c29f5f8de6f007a2ddac499",
                                    "value": {
                                        "current": "13938",
                                        "prev": "0",
                                        "typeTag": 1
                                    }
                                },
                                {
                                    "key": "0xd3b8601394cbeecdec742a56e059d5eda8563514",
                                    "value": {
                                        "current": "11108",
                                        "prev": "0",
                                        "typeTag": 1
                                    }
                                }
                            ],
                            "typeTag": 4
                        }
                    }
                ]
            }
        ]
    }
}