{
    "balance_change": {
        "balanceChanges": [
            {
                "account": "0x2c65dba0b5ed7ed82b70ce086f4f206625e0fdc4",
                "assets": [
                    {
                        "address": "0x653430560be843c4a3d143d0110e896c2ab8ac0d",
                        "amount": "2,120.590981",
                        "iconUrl": "",
                        "isERC1155": false,
                        "isERC721": false,
                        "sign": false,
                        "value": "3760.240292"
                    }
                ]
            },
            {
                "account": "0x00d6fba9d6625be34041c56cb852392c3e0fe266",
                "assets": [
                    {
                        "address": "0x653430560be843c4a3d143d0110e896c2ab8ac0d",
                        "amount": "2,120.590981",
                        "iconUrl": "",
                        "isERC1155": false,
                        "isERC721": false,
                        "sign": true,
                        "value": "3760.240292"
                    }
                ]
            }
        ]
    },
    "profile": {
        "basic_info": {
            "baseFee": "52.798801859",
            "blockNumber": 13433947,
            "callData": "0xa9059cbb00000000000000000000000000d6fba9d6625be34041c56cb852392c3e0fe266000000000000000000000000000000000000000000000001264a869e54057400",
            "debugEnable": true,
            "errorInfo": "",
            "eventCount": 1,
            "feeRecipient": "0xbbbbbbbb49459e69878219f906e73aa325ff2f0c",
            "formatValue": "0",
            "gasLimit": 70422,
            "gasPrice": "70.002552065",
            "gasUsed": 52165,
            "intTxnCount": 0,
            "internalRevert": false,
            "internalRevertMessage": "",
            "isContractCreation": false,
            "isFlashloan": false,
            "maxFee": "",
            "nonce": 280477,
            "overwritedBlockNumber": -1,
            "priorityFee": "",
            "receiver": "0x653430560be843c4a3d143d0110e896c2ab8ac0d",
            "revertMessage": "",
            "sender": "0x2c65dba0b5ed7ed82b70ce086f4f206625e0fdc4",
            "simulationEnable": true,
            "sourceTxnHash": "0x1d43d2ed66c1c79c5c481fe73e06a9809db230f78083e456fbfba130063bc951",
            "status": true,
            "timestamp": "2021-10-17T06:53:28Z",
            "transactionFee": "0.003651683128470725",
            "txnHash": "0x1d43d2ed66c1c79c5c481fe73e06a9809db230f78083e456fbfba130063bc951",
            "txnIndex": 71,
            "type": 0,
            "value": "0"
        },
        "fund_flow": [
            {
                "amount": "2,120.590981",
                "from": "0x2c65dba0b5ed7ed82b70ce086f4f206625e0fdc4",
                "id": 1,
                "isERC1155": false,
                "isERC721": false,
                "isReverted": false,
                "order": 1,
                "to": "0x00d6fba9d6625be34041c56cb852392c3e0fe266",
                "token": "0x653430560be843c4a3d143d0110e896c2ab8ac0d"
            }
        ],
        "token_infos": [
            {
                "address": "0x653430560be843c4a3d143d0110e896c2ab8ac0d",
                "decimals": 16
            },
            {
                "address": "0xc02aaa39b223fe8d0a0e5c4f27ead9083c756cc2",
                "decimals": 18
            },
            {
                "address": "0xeeeeeeeeeeeeeeeeeeeeeeeeeeeeeeeeeeeeeeee",
                "decimals": 18
            }
        ]
    },
    "address_label": {
        "labels": [
            {
                "address": "0x0000000000000000000000000000000000000004",
                "label": "Precompiled"
            },
            {
                "address": "0xeeeeeeeeeeeeeeeeeeeeeeeeeeeeeeeeeeeeeeee",
                "label": "Ether"
            },
            {
                "address": "0x00d6fba9d6625be34041c56cb852392c3e0fe266",
                "label": "HOO.COM"
            },
            {
                "address": "0x653430560be843c4a3d143d0110e896c2ab8ac0d",
                "label": "Molecular Future: MOF Token"
            },
            {
                "address": "0x0000000000000000000000000000000000000001",
                "label": "Precompiled"
            },
            {
                "address": "0x0000000000000000000000000000000000000002",
                "label": "Precompiled"
            },
            {
                "address": "0x0000000000000000000000000000000000000003",
                "label": "Precompiled"
            }
        ]
    },
    "trace": {
        "accountLabels": null,
        "dataMap": {
            "-1": {
                "invocation": {
                    "address": "0x2c65dba0b5ed7ed82b70ce086f4f206625e0fdc4",
                    "callData": "",
                    "decodedMethod": null,
                    "errorInfo": "",
                    "fromAddress": "",
                    "gasUsed": 0,
                    "id": -1,
                    "methodDecoded": false,
                    "operation": "",
                    "output": "",
                    "revert": false,
                    "revertMessage": "",
                    "selector": "",
                    "status": false,
                    "value": ""
                },
                "nodeType": 0
            },
            "0": {
                "invocation": {
                    "address": "0x653430560be843c4a3d143d0110e896c2ab8ac0d",
                    "callData": "0x00000000000000000000000000d6fba9d6625be34041c56cb852392c3e0fe266000000000000000000000000000000000000000000000001264a869e54057400",
                    "decodedMethod": {
                        "callParams": [
                            {
                                "name": "_to",
                                "type": "address",
                                "value": "0x00d6fba9d6625be34041c56cb852392c3e0fe266"
                            },
                            {
                                "decimalAvailable": true,
                                "name": "_value",
                                "type": "uint256",
                                "value": "21,205,909,810,000,000,000"
                            }
                        ],
                        "constructorArguments": "",
                        "name": "transfer",
                        "returnParams": [
                            {
                                "name": "success",
                                "type": "bool",
                                "value": true
                            }
                        ],
                        "signature": "transfer(address,uint256)"
                    },
                    "errorInfo": "",
                    "fromAddress": "0x2c65dba0b5ed7ed82b70ce086f4f206625e0fdc4",
                    "gasUsed": 52165,
                    "id": 0,
                    "methodDecoded": true,
                    "operation": "CALL",
                    "output": "0x0000000000000000000000000000000000000000000000000000000000000001",
                    "revert": false,
                    "revertMessage": "",
                    "selector": "0xa9059cbb",
                    "status": true,
                    "value": "0"
                },
                "nodeType": 0
            },
            "1": {
                "event": {
                    "contract": "0x653430560be843c4a3d143d0110e896c2ab8ac0d",
                    "decodedLog": {
                        "name": "Transfer",
                        "params": [
                            {
                                "name": "_from",
                                "type": "address",
                                "value": "0x2c65dba0b5ed7ed82b70ce086f4f206625e0fdc4"
                            },
                            {
                                "name": "_to",
                                "type": "address",
                                "value": "0x00d6fba9d6625be34041c56cb852392c3e0fe266"
                            },
                            {
                                "decimalAvailable": true,
                                "name": "_value",
                                "type": "uint256",
                                "value": "21,205,909,810,000,000,000"
                            }
                        ],
                        "signature": "Transfer(address,address,uint256)"
                    },
                    "id": 1,
                    "logData": "0x000000000000000000000000000000000000000000000001264a869e54057400",
                    "logDecoded": true,
                    "operation": "EVENT",
                    "revert": false,
                    "status": true,
                    "topics": [
                        "0xddf252ad1be2c89b69c2b068fc378daa952ba7f163c4a11628f55a4df523b3ef",
                        "0x0000000000000000000000002c65dba0b5ed7ed82b70ce086f4f206625e0fdc4",
                        "0x00000000000000000000000000d6fba9d6625be34041c56cb852392c3e0fe266"
                    ]
                },
                "nodeType": 1
            }
        },
        "gasFlame": [
            {
                "children": [
                    {
                        "children": [
                            {
                                "children": [],
                                "depth": 0,
                                "name": "Initial Gas",
                                "value": 21644
                            },
                            {
                                "children": [],
                                "depth": 0,
                                "name": "Executed Gas",
                                "value": 30521
                            }
                        ],
                        "depth": -1,
                        "name": "Actual Gas Used",
                        "value": 52165
                    },
                    {
                        "children": [],
                        "depth": -1,
                        "name": "Refunded Gas",
                        "value": 0
                    }
                ],
                "depth": -2,
                "name": "Total Gas",
                "value": 52165
            }
        ],
        "isConfirmed": true,
        "mainTrace": [
            {
                "children": [
                    {
                        "children": [
                            {
                                "children": [],
                                "depth": 1,
                                "id": 1,
                                "order": 1
                            }
                        ],
                        "depth": 0,
                        "id": 0,
                        "order": 0
                    }
                ],
                "depth": -1,
                "id": -1,
                "order": -1
            }
        ],
        "mainTraceNodeCount": 2,
        "parentIdMap": {
            "0": -1,
            "1": 0
        },
        "tidyTrace": [
            {
                "children": [
                    {
                        "children": [
                            {
                                "children": [],
                                "depth": 1,
                                "id": 1,
                                "order": 1
                            }
                        ],
                        "depth": 0,
                        "id": 0,
                        "order": 0
                    }
                ],
                "depth": -1,
                "id": -1,
                "order": -1
            }
        ],
        "tidyTraceNodeCount": 2
    },
    "state_change": {
        "stateChanges": [
            {
                "address": "0x653430560be843c4a3d143d0110e896c2ab8ac0d",
                "erc": "ERC-20",
                "slots": [
                    {
                        "current": "0x000000000000000000000000000000000000000000000001264a869e54057400",
                        "key": "0x990b0662b7b5d4dfdf2da5edfceba4ea524f2e5e898399460c434909da5cb001",
                        "prev": "0x0000000000000000000000000000000000000000000000000000000000000000"
                    },
                    {
                        "current": "0x0000000000000000000000000000000000000000000001265d652ddae1f06d00",
                        "key": "0xa0536cb1b355360f847926e124bb4118bd67ad81717c40747f679e4cb71e4dcb",
                        "prev": "0x00000000000000000000000000000000000000000000012783afb47935f5e100"
                    }
                ],
                "storageVariables": [
                    {
                        "name": "balanceOf",
                        "type": "mapping(address => uint256)",
                        "value": {
                            "pairs": [
                                {
                                    "key": "0x00d6fba9d6625be34041c56cb852392c3e0fe266",
                                    "value": {
                                        "current": "21205909810000000000",
                                        "prev": "0",
                                        "typeTag": 1
                                    }
                                },
                                {
                                    "key": "0x2c65dba0b5ed7ed82b70ce086f4f206625e0fdc4",
                                    "value": {
                                        "current": "5430072593306900000000",
                                        "prev": "5451278503116900000000",
                                        "typeTag": 1
                                    }
                                }
                            ],
                            "typeTag": 4
                        }
                    }
                ]
            }
        ]
    }
}