{
    "balance_change": {
        "balanceChanges": [
            {
                "account": "0x428fbc55e3bc28da5dacd48ce424415ec4e792b2",
                "assets": [
                    {
                        "address": "0xcfb152e5b93fc2c9906d4ff41fc8407dfa5e8851",
                        "amount": "9,000",
                        "iconUrl": "",
                        "isERC1155": false,
                        "isERC721": false,
                        "sign": false,
                        "value": ""
                    }
                ]
            },
            {
                "account": "0x2872835efa2e5509a9565b416aa894a0771e71dd",
                "assets": [
                    {
                        "address": "0xcfb152e5b93fc2c9906d4ff41fc8407dfa5e8851",
                        "amount": "9,000",
                        "iconUrl": "",
                        "isERC1155": false,
                        "isERC721": false,
                        "sign": true,
                        "value": ""
                    }
                ]
            }
        ]
    },
    "profile": {
        "basic_info": {
            "baseFee": "",
            "blockNumber": 12832357,
            "callData": "0xa9059cbb0000000000000000000000002872835efa2e5509a9565b416aa894a0771e71dd0000000000000000000000000000000000000000000001e7e4171bf4d3a00000",
            "debugEnable": true,
            "errorInfo": "",
            "eventCount": 1,
            "feeRecipient": "0xea674fdde714fd979de3edf0f56aa9716b898ec8",
            "formatValue": "0",
            "gasLimit": 60000,
            "gasPrice": "45",
            "gasUsed": 35188,
            "intTxnCount": 0,
            "internalRevert": false,
            "internalRevertMessage": "",
            "isContractCreation": false,
            "isFlashloan": false,
            "maxFee": "",
            "nonce": 13,
            "overwritedBlockNumber": -1,
            "priorityFee": "",
            "receiver": "0xcfb152e5b93fc2c9906d4ff41fc8407dfa5e8851",
            "revertMessage": "",
            "sender": "0x428fbc55e3bc28da5dacd48ce424415ec4e792b2",
            "simulationEnable": true,
            "sourceTxnHash": "0x1df253a5a36ba85f11b03793772176d1ef3f93ddbb82f0b5f6dc1bd3aeeff224",
            "status": true,
            "timestamp": "2021-07-15T15:37:17Z",
            "transactionFee": "0.00158346",
            "txnHash": "0x1df253a5a36ba85f11b03793772176d1ef3f93ddbb82f0b5f6dc1bd3aeeff224",
            "txnIndex": 63,
            "type": 0,
            "value": "0"
        },
        "fund_flow": [
            {
                "amount": "9,000",
                "from": "0x428fbc55e3bc28da5dacd48ce424415ec4e792b2",
                "id": 1,
                "isERC1155": false,
                "isERC721": false,
                "isReverted": false,
                "order": 1,
                "to": "0x2872835efa2e5509a9565b416aa894a0771e71dd",
                "token": "0xcfb152e5b93fc2c9906d4ff41fc8407dfa5e8851"
            }
        ],
        "token_infos": [
            {
                "address": "0xc02aaa39b223fe8d0a0e5c4f27ead9083c756cc2",
                "decimals": 18
            },
            {
                "address": "0xcfb152e5b93fc2c9906d4ff41fc8407dfa5e8851",
                "decimals": 18
            },
            {
                "address": "0xeeeeeeeeeeeeeeeeeeeeeeeeeeeeeeeeeeeeeeee",
                "decimals": 18
            }
        ]
    },
    "address_label": {
        "labels": [
            {
                "address": "0xcfb152e5b93fc2c9906d4ff41fc8407dfa5e8851",
                "label": "NTON: NTON Token"
            },
            {
                "address": "0x0000000000000000000000000000000000000001",
                "label": "Precompiled"
            },
            {
                "address": "0x0000000000000000000000000000000000000002",
                "label": "Precompiled"
            },
            {
                "address": "0x0000000000000000000000000000000000000003",
                "label": "Precompiled"
            },
            {
                "address": "0x0000000000000000000000000000000000000004",
                "label": "Precompiled"
            },
            {
                "address": "0xeeeeeeeeeeeeeeeeeeeeeeeeeeeeeeeeeeeeeeee",
                "label": "Ether"
            }
        ]
    },
    "trace": {
        "accountLabels": null,
        "dataMap": {
            "-1": {
                "invocation": {
                    "address": "0x428fbc55e3bc28da5dacd48ce424415ec4e792b2",
                    "callData": "",
                    "decodedMethod": null,
                    "errorInfo": "",
                    "fromAddress": "",
                    "gasUsed": 0,
                    "id": -1,
                    "methodDecoded": false,
                    "operation": "",
                    "output": "",
                    "revert": false,
                    "revertMessage": "",
                    "selector": "",
                    "status": false,
                    "value": ""
                },
                "nodeType": 0
            },
            "0": {
                "invocation": {
                    "address": "0xcfb152e5b93fc2c9906d4ff41fc8407dfa5e8851",
                    "callData": "0x0000000000000000000000002872835efa2e5509a9565b416aa894a0771e71dd0000000000000000000000000000000000000000000001e7e4171bf4d3a00000",
                    "decodedMethod": {
                        "callParams": [
                            {
                                "name": "to",
                                "type": "address",
                                "value": "0x2872835efa2e5509a9565b416aa894a0771e71dd"
                            },
                            {
                                "decimalAvailable": true,
                                "name": "value",
                                "type": "uint256",
                                "value": "9,000,000,000,000,000,000,000"
                            }
                        ],
                        "constructorArguments": "",
                        "name": "transfer",
                        "returnParams": [
                            {
                                "name": "",
                                "type": "bool",
                                "value": true
                            }
                        ],
                        "signature": "transfer(address,uint256)"
                    },
                    "errorInfo": "",
                    "fromAddress": "0x428fbc55e3bc28da5dacd48ce424415ec4e792b2",
                    "gasUsed": 35188,
                    "id": 0,
                    "methodDecoded": true,
                    "operation": "CALL",
                    "output": "0x0000000000000000000000000000000000000000000000000000000000000001",
                    "revert": false,
                    "revertMessage": "",
                    "selector": "0xa9059cbb",
                    "status": true,
                    "value": "0"
                },
                "nodeType": 0
            },
            "1": {
                "event": {
                    "contract": "0xcfb152e5b93fc2c9906d4ff41fc8407dfa5e8851",
                    "decodedLog": {
                        "name": "Transfer",
                        "params": [
                            {
                                "name": "from",
                                "type": "address",
                                "value": "0x428fbc55e3bc28da5dacd48ce424415ec4e792b2"
                            },
                            {
                                "name": "to",
                                "type": "address",
                                "value": "0x2872835efa2e5509a9565b416aa894a0771e71dd"
                            },
                            {
                                "decimalAvailable": true,
                                "name": "value",
                                "type": "uint256",
                                "value": "9,000,000,000,000,000,000,000"
                            }
                        ],
                        "signature": "Transfer(address,address,uint256)"
                    },
                    "id": 1,
                    "logData": "0x0000000000000000000000000000000000000000000001e7e4171bf4d3a00000",
                    "logDecoded": true,
                    "operation": "EVENT",
                    "revert": false,
                    "status": true,
                    "topics": [
                        "0xddf252ad1be2c89b69c2b068fc378daa952ba7f163c4a11628f55a4df523b3ef",
                        "0x000000000000000000000000428fbc55e3bc28da5dacd48ce424415ec4e792b2",
                        "0x0000000000000000000000002872835efa2e5509a9565b416aa894a0771e71dd"
                    ]
                },
                "nodeType": 1
            }
        },
        "gasFlame": [
            {
                "children": [
                    {
                        "children": [
                            {
                                "children": [],
                                "depth": 0,
                                "name": "Initial Gas",
                                "value": 21656
                            },
                            {
                                "children": [],
                                "depth": 0,
                                "name": "Executed Gas",
                                "value": 13532
                            }
                        ],
                        "depth": -1,
                        "name": "Actual Gas Used",
                        "value": 35188
                    },
                    {
                        "children": [],
                        "depth": -1,
                        "name": "Refunded Gas",
                        "value": 0
                    }
                ],
                "depth": -2,
                "name": "Total Gas",
                "value": 35188
            }
        ],
        "isConfirmed": true,
        "mainTrace": [
            {
                "children": [
                    {
                        "children": [
                            {
                                "children": [],
                                "depth": 1,
                                "id": 1,
                                "order": 1
                            }
                        ],
                        "depth": 0,
                        "id": 0,
                        "order": 0
                    }
                ],
                "depth": -1,
                "id": -1,
                "order": -1
            }
        ],
        "mainTraceNodeCount": 2,
        "parentIdMap": {
            "0": -1,
            "1": 0
        },
        "tidyTrace": [
            {
                "children": [
                    {
                        "children": [
                            {
                                "children": [],
                                "depth": 1,
                                "id": 1,
                                "order": 1
                            }
                        ],
                        "depth": 0,
                        "id": 0,
                        "order": 0
                    }
                ],
                "depth": -1,
                "id": -1,
                "order": -1
            }
        ],
        "tidyTraceNodeCount": 2
    },
    "state_change": {
        "stateChanges": [
            {
                "address": "0xcfb152e5b93fc2c9906d4ff41fc8407dfa5e8851",
                "erc": "",
                "slots": [
                    {
                        "current": "0x00000000000000000000000000000000000000000014bed2d26218edb53c0000",
                        "key": "0x1732655371efafd9015cddf6e26a1b55372f9515d89b6b19b541739ab4a550bd",
                        "prev": "0x00000000000000000000000000000000000000000014bceaee4afcf8e19c0000"
                    },
                    {
                        "current": "0x0000000000000000000000000000000000000000000000046285c605a4d1a400",
                        "key": "0xf6459448da72460873b35ae72d84df59927b270b3bcc20741ab24887ac83788d",
                        "prev": "0x0000000000000000000000000000000000000000000001ec469ce1fa7871a400"
                    }
                ],
                "storageVariables": [
                    {
                        "name": "_balances",
                        "type": "mapping(address => uint256)",
                        "value": {
                            "pairs": [
                                {
                                    "key": "0x2872835efa2e5509a9565b416aa894a0771e71dd",
                                    "value": {
                                        "current": "25079655000000000000000000",
                                        "prev": "25070655000000000000000000",
                                        "typeTag": 1
                                    }
                                },
                                {
                                    "key": "0x428fbc55e3bc28da5dacd48ce424415ec4e792b2",
                                    "value": {
                                        "current": "80886274410000000000",
                                        "prev": "9080886274410000000000",
                                        "typeTag": 1
                                    }
                                }
                            ],
                            "typeTag": 4
                        }
                    }
                ]
            }
        ]
    }
}