{
    "balance_change": {
        "balanceChanges": []
    },
    "profile": {
        "basic_info": {
            "baseFee": "69.135093481",
            "blockNumber": 14157761,
            "callData": "0xa8a41c700000000000000000000000007be8076f4ea4a4ad08075c2508e481d6c946d12b000000000000000000000000114fc8386fdc28bc6bc00a7b0f5c5e40142edb5e00000000000000000000000000000000000000000000000000000000000000000000000000000000000000005b3256965e7c3cf26e11fcaf296dfc8807c010730000000000000000000000008ff1523091c9517bc328223d50b52ef4502003390000000000000000000000000000000000000000000000000000000000000000000000000000000000000000000000000000000000000000000000000000000000000000000000000000000000000000000000000000000000000000000003e80000000000000000000000000000000000000000000000000000000000000000000000000000000000000000000000000000000000000000000000000000000000000000000000000000000000000000000000000000000000000000000000000000000000000000000000000000000000000000000000003d56fe94f33a000000000000000000000000000000000000000000000000000000000000000000000000000000000000000000000000000000000000000000000000000061f9c79800000000000000000000000000000000000000000000000000000000621502317b0165df7ea8262a7ff88c09176591c80f02bbb3089a00affe09b31b813bbdde0000000000000000000000000000000000000000000000000000000000000001000000000000000000000000000000000000000000000000000000000000000100000000000000000000000000000000000000000000000000000000000000000000000000000000000000000000000000000000000000000000000000000000000000000000000000000000000000000000000000000000000000000000034000000000000000000000000000000000000000000000000000000000000003e00000000000000000000000000000000000000000000000000000000000000480000000000000000000000000000000000000000000000000000000000000001c18c5a57ac58a1b6a9a130503a01c26ba0309e2748bb2e02e045ad3c11f23f52117eb576ebd83048ef0c373ef9ce0dd45f5d520692f6d3cf8763f2ce7c895f117000000000000000000000000000000000000000000000000000000000000006423b872dd000000000000000000000000114fc8386fdc28bc6bc00a7b0f5c5e40142edb5e000000000000000000000000000000000000000000000000000000000000000000000000000000000000000000000000000000000000000000000000000020de000000000000000000000000000000000000000000000000000000000000000000000000000000000000000000000000000000000000000000000064000000000000000000000000000000000000000000000000000000000000000000000000ffffffffffffffffffffffffffffffffffffffffffffffffffffffffffffffff0000000000000000000000000000000000000000000000000000000000000000000000000000000000000000000000000000000000000000000000000000000000000000000000000000000000000000000000000000000000000000",
            "debugEnable": true,
            "errorInfo": "",
            "eventCount": 1,
            "feeRecipient": "0xea674fdde714fd979de3edf0f56aa9716b898ec8",
            "formatValue": "0",
            "gasLimit": 74962,
            "gasPrice": "70.635093481",
            "gasUsed": 74962,
            "intTxnCount": 1,
            "internalRevert": false,
            "internalRevertMessage": "",
            "isContractCreation": false,
            "isFlashloan": false,
            "maxFee": "72",
            "nonce": 441,
            "overwritedBlockNumber": -1,
            "priorityFee": "1.5",
            "receiver": "0x7be8076f4ea4a4ad08075c2508e481d6c946d12b",
            "revertMessage": "",
            "sender": "0x114fc8386fdc28bc6bc00a7b0f5c5e40142edb5e",
            "simulationEnable": true,
            "sourceTxnHash": "0x1d2288cdae4e4418f03cca05b2a208884e4306d1497bc33ce05816811f125c60",
            "status": true,
            "timestamp": "2022-02-07T08:00:39Z",
            "transactionFee": "0.005294947877522722",
            "txnHash": "0x1d2288cdae4e4418f03cca05b2a208884e4306d1497bc33ce05816811f125c60",
            "txnIndex": 51,
            "type": 2,
            "value": "0"
        },
        "fund_flow": [],
        "token_infos": [
            {
                "address": "0xc02aaa39b223fe8d0a0e5c4f27ead9083c756cc2",
                "decimals": 18
            },
            {
                "address": "0xeeeeeeeeeeeeeeeeeeeeeeeeeeeeeeeeeeeeeeee",
                "decimals": 18
            }
        ]
    },
    "address_label": {
        "labels": [
            {
                "address": "0x7be8076f4ea4a4ad08075c2508e481d6c946d12b",
                "label": "OpenSea: Wyvern Exchange v1"
            },
            {
                "address": "0x0000000000000000000000000000000000000000",
                "label": "Null Address"
            },
            {
                "address": "0x0000000000000000000000000000000000000003",
                "label": "Precompiled"
            },
            {
                "address": "0x0000000000000000000000000000000000000004",
                "label": "Precompiled"
            },
            {
                "address": "0xeeeeeeeeeeeeeeeeeeeeeeeeeeeeeeeeeeeeeeee",
                "label": "Ether"
            },
            {
                "address": "0x5b3256965e7c3cf26e11fcaf296dfc8807c01073",
                "label": "OpenSea: Wallet"
            },
            {
                "address": "0x8ff1523091c9517bc328223d50b52ef450200339",
                "label": "RugGenesis NFT: \u273aRUGNFT Token"
            },
            {
                "address": "0x0000000000000000000000000000000000000001",
                "label": "Precompiled"
            },
            {
                "address": "0x0000000000000000000000000000000000000002",
                "label": "Precompiled"
            }
        ]
    },
    "trace": {
        "accountLabels": null,
        "dataMap": {
            "-1": {
                "invocation": {
                    "address": "0x114fc8386fdc28bc6bc00a7b0f5c5e40142edb5e",
                    "callData": "",
                    "decodedMethod": null,
                    "errorInfo": "",
                    "fromAddress": "",
                    "gasUsed": 0,
                    "id": -1,
                    "methodDecoded": false,
                    "operation": "",
                    "output": "",
                    "revert": false,
                    "revertMessage": "",
                    "selector": "",
                    "status": false,
                    "value": ""
                },
                "nodeType": 0
            },
            "0": {
                "invocation": {
                    "address": "0x7be8076f4ea4a4ad08075c2508e481d6c946d12b",
                    "callData": "0x0000000000000000000000007be8076f4ea4a4ad08075c2508e481d6c946d12b000000000000000000000000114fc8386fdc28bc6bc00a7b0f5c5e40142edb5e00000000000000000000000000000000000000000000000000000000000000000000000000000000000000005b3256965e7c3cf26e11fcaf296dfc8807c010730000000000000000000000008ff1523091c9517bc328223d50b52ef4502003390000000000000000000000000000000000000000000000000000000000000000000000000000000000000000000000000000000000000000000000000000000000000000000000000000000000000000000000000000000000000000000003e80000000000000000000000000000000000000000000000000000000000000000000000000000000000000000000000000000000000000000000000000000000000000000000000000000000000000000000000000000000000000000000000000000000000000000000000000000000000000000000000003d56fe94f33a000000000000000000000000000000000000000000000000000000000000000000000000000000000000000000000000000000000000000000000000000061f9c79800000000000000000000000000000000000000000000000000000000621502317b0165df7ea8262a7ff88c09176591c80f02bbb3089a00affe09b31b813bbdde0000000000000000000000000000000000000000000000000000000000000001000000000000000000000000000000000000000000000000000000000000000100000000000000000000000000000000000000000000000000000000000000000000000000000000000000000000000000000000000000000000000000000000000000000000000000000000000000000000000000000000000000000000034000000000000000000000000000000000000000000000000000000000000003e00000000000000000000000000000000000000000000000000000000000000480000000000000000000000000000000000000000000000000000000000000001c18c5a57ac58a1b6a9a130503a01c26ba0309e2748bb2e02e045ad3c11f23f52117eb576ebd83048ef0c373ef9ce0dd45f5d520692f6d3cf8763f2ce7c895f117000000000000000000000000000000000000000000000000000000000000006423b872dd000000000000000000000000114fc8386fdc28bc6bc00a7b0f5c5e40142edb5e000000000000000000000000000000000000000000000000000000000000000000000000000000000000000000000000000000000000000000000000000020de000000000000000000000000000000000000000000000000000000000000000000000000000000000000000000000000000000000000000000000064000000000000000000000000000000000000000000000000000000000000000000000000ffffffffffffffffffffffffffffffffffffffffffffffffffffffffffffffff0000000000000000000000000000000000000000000000000000000000000000000000000000000000000000000000000000000000000000000000000000000000000000000000000000000000000000000000000000000000000000",
                    "decodedMethod": {
                        "callParams": [
                            {
                                "name": "addrs",
                                "type": "address[7]",
                                "value": [
                                    "0x7be8076f4ea4a4ad08075c2508e481d6c946d12b",
                                    "0x114fc8386fdc28bc6bc00a7b0f5c5e40142edb5e",
                                    "0x0000000000000000000000000000000000000000",
                                    "0x5b3256965e7c3cf26e11fcaf296dfc8807c01073",
                                    "0x8ff1523091c9517bc328223d50b52ef450200339",
                                    "0x0000000000000000000000000000000000000000",
                                    "0x0000000000000000000000000000000000000000"
                                ]
                            },
                            {
                                "name": "uints",
                                "type": "uint256[9]",
                                "value": [
                                    "1,000",
                                    "0",
                                    "0",
                                    "0",
                                    "4,420,000,000,000,000,000",
                                    "0",
                                    "1,643,759,512",
                                    "1,645,543,985",
                                    "55,636,950,324,594,198,047,851,148,040,988,134,374,691,842,369,028,232,862,649,840,408,031,869,517,278"
                                ]
                            },
                            {
                                "name": "feeMethod",
                                "type": "uint8",
                                "value": "1"
                            },
                            {
                                "name": "side",
                                "type": "uint8",
                                "value": "1"
                            },
                            {
                                "name": "saleKind",
                                "type": "uint8",
                                "value": "0"
                            },
                            {
                                "name": "howToCall",
                                "type": "uint8",
                                "value": "0"
                            },
                            {
                                "name": "calldata",
                                "type": "bytes",
                                "value": "0x23b872dd000000000000000000000000114fc8386fdc28bc6bc00a7b0f5c5e40142edb5e000000000000000000000000000000000000000000000000000000000000000000000000000000000000000000000000000000000000000000000000000020de"
                            },
                            {
                                "name": "replacementPattern",
                                "type": "bytes",
                                "value": "0x000000000000000000000000000000000000000000000000000000000000000000000000ffffffffffffffffffffffffffffffffffffffffffffffffffffffffffffffff0000000000000000000000000000000000000000000000000000000000000000"
                            },
                            {
                                "name": "staticExtradata",
                                "type": "bytes",
                                "value": "0x"
                            },
                            {
                                "name": "v",
                                "type": "uint8",
                                "value": "28"
                            },
                            {
                                "name": "r",
                                "type": "bytes32",
                                "value": "0x18c5a57ac58a1b6a9a130503a01c26ba0309e2748bb2e02e045ad3c11f23f521"
                            },
                            {
                                "name": "s",
                                "type": "bytes32",
                                "value": "0x17eb576ebd83048ef0c373ef9ce0dd45f5d520692f6d3cf8763f2ce7c895f117"
                            }
                        ],
                        "constructorArguments": "",
                        "name": "cancelOrder_",
                        "returnParams": [],
                        "signature": "cancelOrder_(address[7],uint256[9],uint8,uint8,uint8,uint8,bytes,bytes,bytes,uint8,bytes32,bytes32)"
                    },
                    "errorInfo": "",
                    "fromAddress": "0x114fc8386fdc28bc6bc00a7b0f5c5e40142edb5e",
                    "gasUsed": 74962,
                    "id": 0,
                    "methodDecoded": true,
                    "operation": "CALL",
                    "output": "",
                    "revert": false,
                    "revertMessage": "",
                    "selector": "0xa8a41c70",
                    "status": true,
                    "value": "0"
                },
                "nodeType": 0
            },
            "1": {
                "invocation": {
                    "address": "0x0000000000000000000000000000000000000001",
                    "callData": "0xf0e0073a02cd841297f02eef9a5127a1ee5f5e85e7bb96dfef1c6bba000000000000000000000000000000000000000000000000000000000000001c18c5a57ac58a1b6a9a130503a01c26ba0309e2748bb2e02e045ad3c11f23f52117eb576ebd83048ef0c373ef9ce0dd45f5d520692f6d3cf8763f2ce7c895f117",
                    "decodedMethod": {
                        "callParams": [
                            {
                                "name": "hash",
                                "type": "bytes32",
                                "value": "0xc7378653f0e0073a02cd841297f02eef9a5127a1ee5f5e85e7bb96dfef1c6bba"
                            },
                            {
                                "name": "v",
                                "type": "uint256",
                                "value": "28"
                            },
                            {
                                "name": "r",
                                "type": "bytes32",
                                "value": "0x18c5a57ac58a1b6a9a130503a01c26ba0309e2748bb2e02e045ad3c11f23f521"
                            },
                            {
                                "name": "s",
                                "type": "bytes32",
                                "value": "0x17eb576ebd83048ef0c373ef9ce0dd45f5d520692f6d3cf8763f2ce7c895f117"
                            }
                        ],
                        "constructorArguments": "",
                        "name": "ecrecover",
                        "returnParams": [
                            {
                                "name": "",
                                "type": "address",
                                "value": "0x114fc8386fdc28bc6bc00a7b0f5c5e40142edb5e"
                            }
                        ],
                        "signature": "ecrecover(bytes32,uint256,bytes32,bytes32)"
                    },
                    "errorInfo": "",
                    "fromAddress": "0x7be8076f4ea4a4ad08075c2508e481d6c946d12b",
                    "gasUsed": 3000,
                    "id": 1,
                    "methodDecoded": true,
                    "operation": "CALL",
                    "output": "0x000000000000000000000000114fc8386fdc28bc6bc00a7b0f5c5e40142edb5e",
                    "revert": false,
                    "revertMessage": "",
                    "selector": "0xc7378653",
                    "status": true,
                    "value": "0"
                },
                "nodeType": 0
            },
            "2": {
                "event": {
                    "contract": "0x7be8076f4ea4a4ad08075c2508e481d6c946d12b",
                    "decodedLog": {
                        "name": "OrderCancelled",
                        "params": [
                            {
                                "name": "hash",
                                "type": "bytes32",
                                "value": "0xc7378653f0e0073a02cd841297f02eef9a5127a1ee5f5e85e7bb96dfef1c6bba"
                            }
                        ],
                        "signature": "OrderCancelled(bytes32)"
                    },
                    "id": 2,
                    "logData": "0x",
                    "logDecoded": true,
                    "operation": "EVENT",
                    "revert": false,
                    "status": true,
                    "topics": [
                        "0x5152abf959f6564662358c2e52b702259b78bac5ee7842a0f01937e670efcc7d",
                        "0xc7378653f0e0073a02cd841297f02eef9a5127a1ee5f5e85e7bb96dfef1c6bba"
                    ]
                },
                "nodeType": 1
            }
        },
        "gasFlame": [
            {
                "children": [
                    {
                        "children": [
                            {
                                "children": [],
                                "depth": 0,
                                "name": "Initial Gas",
                                "value": 28920
                            },
                            {
                                "children": [
                                    {
                                        "children": [],
                                        "depth": 1,
                                        "name": "ecrecover",
                                        "value": 3000
                                    }
                                ],
                                "depth": 0,
                                "name": "Executed Gas",
                                "value": 46042
                            }
                        ],
                        "depth": -1,
                        "name": "Actual Gas Used",
                        "value": 74962
                    },
                    {
                        "children": [],
                        "depth": -1,
                        "name": "Refunded Gas",
                        "value": 0
                    }
                ],
                "depth": -2,
                "name": "Total Gas",
                "value": 74962
            }
        ],
        "isConfirmed": true,
        "mainTrace": [
            {
                "children": [
                    {
                        "children": [
                            {
                                "children": [],
                                "depth": 1,
                                "id": 1,
                                "order": 1
                            },
                            {
                                "children": [],
                                "depth": 1,
                                "id": 2,
                                "order": 2
                            }
                        ],
                        "depth": 0,
                        "id": 0,
                        "order": 0
                    }
                ],
                "depth": -1,
                "id": -1,
                "order": -1
            }
        ],
        "mainTraceNodeCount": 3,
        "parentIdMap": {
            "0": -1,
            "1": 0,
            "2": 0
        },
        "tidyTrace": [
            {
                "children": [
                    {
                        "children": [
                            {
                                "children": [],
                                "depth": 1,
                                "id": 1,
                                "order": 1
                            },
                            {
                                "children": [],
                                "depth": 1,
                                "id": 2,
                                "order": 2
                            }
                        ],
                        "depth": 0,
                        "id": 0,
                        "order": 0
                    }
                ],
                "depth": -1,
                "id": -1,
                "order": -1
            }
        ],
        "tidyTraceNodeCount": 3
    },
    "state_change": {
        "stateChanges": [
            {
                "address": "0x7be8076f4ea4a4ad08075c2508e481d6c946d12b",
                "erc": "",
                "slots": [
                    {
                        "current": "0x0000000000000000000000000000000000000000000000000000000000000001",
                        "key": "0x4e7ed1297b892f20774f83c83a87d16142c63ac8985b63d776c8e96bc6c836b2",
                        "prev": "0x0000000000000000000000000000000000000000000000000000000000000000"
                    }
                ],
                "storageVariables": [
                    {
                        "name": "cancelledOrFinalized",
                        "type": "mapping(bytes32 => bool)",
                        "value": {
                            "pairs": [
                                {
                                    "key": "0xc7378653f0e0073a02cd841297f02eef9a5127a1ee5f5e85e7bb96dfef1c6bba",
                                    "value": {
                                        "current": "true",
                                        "prev": "false",
                                        "typeTag": 1
                                    }
                                }
                            ],
                            "typeTag": 4
                        }
                    }
                ]
            }
        ]
    }
}