{
    "balance_change": {
        "balanceChanges": []
    },
    "profile": {
        "basic_info": {
            "baseFee": "107.469638764",
            "blockNumber": 17235886,
            "callData": "0xc98075390000000000000000000000000000000000000000000000000000000000000080000000000000000000000000000000000000000000000000000000000000032000000000000000000000000000000000000000000000000000000000000004000101000001010000000000000000000000000000000000000000000000000000000000000000000000000000000000000000000000000000000000000000028000000000000000000000008f50d0303efb1d12bc7c03d2b10dc41600009c6a01070d0104060e020300050f09080c0b0a000000000000000000000000000000000000000000000000000000000000000000000000000000000000000000000060000000000000000000000000000000000000000000000000000000000000001000000000000000000000000000000000000000000000000000000000226ee193000000000000000000000000000000000000000000000000000000002270810000000000000000000000000000000000000000000000000000000000227081000000000000000000000000000000000000000000000000000000000022708100000000000000000000000000000000000000000000000000000000002270810000000000000000000000000000000000000000000000000000000000227081000000000000000000000000000000000000000000000000000000000022711ed00000000000000000000000000000000000000000000000000000000022711ed00000000000000000000000000000000000000000000000000000000022711ed0000000000000000000000000000000000000000000000000000000002277861100000000000000000000000000000000000000000000000000000000227dc85300000000000000000000000000000000000000000000000000000000227ded53000000000000000000000000000000000000000000000000000000002284e498000000000000000000000000000000000000000000000000000000002285c01a00000000000000000000000000000000000000000000000000000000228d40a400000000000000000000000000000000000000000000000000000000228d40a400000000000000000000000000000000000000000000000000000000000000063d4c884b87fd602a38ea3f237ce962dd7260b88ce82bc7176767ba137a860c28222fe23544690154fc059ab548740514e31db585fdcf0c71031d92757866862f95293fdab90dfb6ea088f74cf0a95b68d88a2538b1032d91832ff49bdcd3b1c443dc932a0e33e80c824489c2c3c765bcafe246e69ac4c6fd5d4fc7959b42f7472b495c3e24c29dc983ca46f2b5d1d6052ef942d476942a66e8daf84149c6040afaab5a9d7e1f00ec26667d3a02b526adb7d336c37d3d7dce5d6e77d5148cd11b0000000000000000000000000000000000000000000000000000000000000006748b512570cf3994547be1ca1c313ce76964627ff9a129363c64cf77276bd4b40b529d0bfa55c0981c4cda3a9373e0e214bbe68a36ee0e340d4d6a6986d0fbb6345765120d66302da8d1a7d693d2ca09bf2e2c3c0ede76b1017c0467f2ab128a2b17dec3b3d0a6996f8e2700ed144d5bd62b4f8383846e9268d49b61f87d182f775079136711cfe39ea9277991bf001349426ae714375ce60332f2bf7195da2c245c83b69f6dba6e05fb7bb34a3a799eff57a3b177d6eb8e6880f1292e6d20e7",
            "debugEnable": true,
            "errorInfo": "",
            "eventCount": 3,
            "feeRecipient": "0x95222290dd7278aa3ddd389cc1e1d165cc4bafe5",
            "formatValue": "0",
            "gasLimit": 740000,
            "gasPrice": "109.469638764",
            "gasUsed": 176407,
            "intTxnCount": 6,
            "internalRevert": false,
            "internalRevertMessage": "",
            "isContractCreation": false,
            "isFlashloan": false,
            "maxFee": "177.107067644",
            "nonce": 27285,
            "overwritedBlockNumber": -1,
            "priorityFee": "2",
            "receiver": "0xc29d104a418a08407f9f2cdb614c1cdcf82986e0",
            "revertMessage": "",
            "sender": "0x686bec83b59f8b23a6129f03550a3aad245a543c",
            "simulationEnable": true,
            "sourceTxnHash": "0x1ee33c4599ed26806700b73934fa5b25c543f8c972ab637bd99a30a0340edf7b",
            "status": true,
            "timestamp": "2023-05-11T08:21:11Z",
            "transactionFee": "0.019311210565440948",
            "txnHash": "0x1ee33c4599ed26806700b73934fa5b25c543f8c972ab637bd99a30a0340edf7b",
            "txnIndex": 71,
            "type": 2,
            "value": "0"
        },
        "fund_flow": [],
        "token_infos": [
            {
                "address": "0xc02aaa39b223fe8d0a0e5c4f27ead9083c756cc2",
                "decimals": 18
            },
            {
                "address": "0xeeeeeeeeeeeeeeeeeeeeeeeeeeeeeeeeeeeeeeee",
                "decimals": 18
            }
        ]
    },
    "address_label": {
        "labels": [
            {
                "address": "0xeeeeeeeeeeeeeeeeeeeeeeeeeeeeeeeeeeeeeeee",
                "label": "Ether"
            },
            {
                "address": "0xc29d104a418a08407f9f2cdb614c1cdcf82986e0",
                "label": "AccessControlledOffchainAggregator"
            },
            {
                "address": "0x0000000000000000000000000000000000000001",
                "label": "Precompiled"
            },
            {
                "address": "0x0000000000000000000000000000000000000002",
                "label": "Precompiled"
            },
            {
                "address": "0x0000000000000000000000000000000000000003",
                "label": "Precompiled"
            },
            {
                "address": "0x0000000000000000000000000000000000000004",
                "label": "Precompiled"
            }
        ]
    },
    "trace": {
        "accountLabels": null,
        "dataMap": {
            "-1": {
                "invocation": {
                    "address": "0x686bec83b59f8b23a6129f03550a3aad245a543c",
                    "callData": "",
                    "decodedMethod": null,
                    "errorInfo": "",
                    "fromAddress": "",
                    "gasUsed": 0,
                    "id": -1,
                    "methodDecoded": false,
                    "operation": "",
                    "output": "",
                    "revert": false,
                    "revertMessage": "",
                    "selector": "",
                    "status": false,
                    "value": ""
                },
                "nodeType": 0
            },
            "0": {
                "invocation": {
                    "address": "0xc29d104a418a08407f9f2cdb614c1cdcf82986e0",
                    "callData": "0x0000000000000000000000000000000000000000000000000000000000000080000000000000000000000000000000000000000000000000000000000000032000000000000000000000000000000000000000000000000000000000000004000101000001010000000000000000000000000000000000000000000000000000000000000000000000000000000000000000000000000000000000000000028000000000000000000000008f50d0303efb1d12bc7c03d2b10dc41600009c6a01070d0104060e020300050f09080c0b0a000000000000000000000000000000000000000000000000000000000000000000000000000000000000000000000060000000000000000000000000000000000000000000000000000000000000001000000000000000000000000000000000000000000000000000000000226ee193000000000000000000000000000000000000000000000000000000002270810000000000000000000000000000000000000000000000000000000000227081000000000000000000000000000000000000000000000000000000000022708100000000000000000000000000000000000000000000000000000000002270810000000000000000000000000000000000000000000000000000000000227081000000000000000000000000000000000000000000000000000000000022711ed00000000000000000000000000000000000000000000000000000000022711ed00000000000000000000000000000000000000000000000000000000022711ed0000000000000000000000000000000000000000000000000000000002277861100000000000000000000000000000000000000000000000000000000227dc85300000000000000000000000000000000000000000000000000000000227ded53000000000000000000000000000000000000000000000000000000002284e498000000000000000000000000000000000000000000000000000000002285c01a00000000000000000000000000000000000000000000000000000000228d40a400000000000000000000000000000000000000000000000000000000228d40a400000000000000000000000000000000000000000000000000000000000000063d4c884b87fd602a38ea3f237ce962dd7260b88ce82bc7176767ba137a860c28222fe23544690154fc059ab548740514e31db585fdcf0c71031d92757866862f95293fdab90dfb6ea088f74cf0a95b68d88a2538b1032d91832ff49bdcd3b1c443dc932a0e33e80c824489c2c3c765bcafe246e69ac4c6fd5d4fc7959b42f7472b495c3e24c29dc983ca46f2b5d1d6052ef942d476942a66e8daf84149c6040afaab5a9d7e1f00ec26667d3a02b526adb7d336c37d3d7dce5d6e77d5148cd11b0000000000000000000000000000000000000000000000000000000000000006748b512570cf3994547be1ca1c313ce76964627ff9a129363c64cf77276bd4b40b529d0bfa55c0981c4cda3a9373e0e214bbe68a36ee0e340d4d6a6986d0fbb6345765120d66302da8d1a7d693d2ca09bf2e2c3c0ede76b1017c0467f2ab128a2b17dec3b3d0a6996f8e2700ed144d5bd62b4f8383846e9268d49b61f87d182f775079136711cfe39ea9277991bf001349426ae714375ce60332f2bf7195da2c245c83b69f6dba6e05fb7bb34a3a799eff57a3b177d6eb8e6880f1292e6d20e7",
                    "decodedMethod": {
                        "callParams": [
                            {
                                "name": "_report",
                                "type": "bytes",
                                "value": "0x00000000000000000000008f50d0303efb1d12bc7c03d2b10dc41600009c6a01070d0104060e020300050f09080c0b0a000000000000000000000000000000000000000000000000000000000000000000000000000000000000000000000060000000000000000000000000000000000000000000000000000000000000001000000000000000000000000000000000000000000000000000000000226ee193000000000000000000000000000000000000000000000000000000002270810000000000000000000000000000000000000000000000000000000000227081000000000000000000000000000000000000000000000000000000000022708100000000000000000000000000000000000000000000000000000000002270810000000000000000000000000000000000000000000000000000000000227081000000000000000000000000000000000000000000000000000000000022711ed00000000000000000000000000000000000000000000000000000000022711ed00000000000000000000000000000000000000000000000000000000022711ed0000000000000000000000000000000000000000000000000000000002277861100000000000000000000000000000000000000000000000000000000227dc85300000000000000000000000000000000000000000000000000000000227ded53000000000000000000000000000000000000000000000000000000002284e498000000000000000000000000000000000000000000000000000000002285c01a00000000000000000000000000000000000000000000000000000000228d40a400000000000000000000000000000000000000000000000000000000228d40a4"
                            },
                            {
                                "name": "_rs",
                                "type": "bytes32[]",
                                "value": [
                                    "0x3d4c884b87fd602a38ea3f237ce962dd7260b88ce82bc7176767ba137a860c28",
                                    "0x222fe23544690154fc059ab548740514e31db585fdcf0c71031d92757866862f",
                                    "0x95293fdab90dfb6ea088f74cf0a95b68d88a2538b1032d91832ff49bdcd3b1c4",
                                    "0x43dc932a0e33e80c824489c2c3c765bcafe246e69ac4c6fd5d4fc7959b42f747",
                                    "0x2b495c3e24c29dc983ca46f2b5d1d6052ef942d476942a66e8daf84149c6040a",
                                    "0xfaab5a9d7e1f00ec26667d3a02b526adb7d336c37d3d7dce5d6e77d5148cd11b"
                                ]
                            },
                            {
                                "name": "_ss",
                                "type": "bytes32[]",
                                "value": [
                                    "0x748b512570cf3994547be1ca1c313ce76964627ff9a129363c64cf77276bd4b4",
                                    "0x0b529d0bfa55c0981c4cda3a9373e0e214bbe68a36ee0e340d4d6a6986d0fbb6",
                                    "0x345765120d66302da8d1a7d693d2ca09bf2e2c3c0ede76b1017c0467f2ab128a",
                                    "0x2b17dec3b3d0a6996f8e2700ed144d5bd62b4f8383846e9268d49b61f87d182f",
                                    "0x775079136711cfe39ea9277991bf001349426ae714375ce60332f2bf7195da2c",
                                    "0x245c83b69f6dba6e05fb7bb34a3a799eff57a3b177d6eb8e6880f1292e6d20e7"
                                ]
                            },
                            {
                                "name": "_rawVs",
                                "type": "bytes32",
                                "value": "0x0101000001010000000000000000000000000000000000000000000000000000"
                            }
                        ],
                        "constructorArguments": "",
                        "name": "transmit",
                        "returnParams": [],
                        "signature": "transmit(bytes,bytes32[],bytes32[],bytes32)"
                    },
                    "errorInfo": "",
                    "fromAddress": "0x686bec83b59f8b23a6129f03550a3aad245a543c",
                    "gasUsed": 176407,
                    "id": 0,
                    "methodDecoded": true,
                    "operation": "CALL",
                    "output": "",
                    "revert": false,
                    "revertMessage": "",
                    "selector": "0xc9807539",
                    "status": true,
                    "value": "0"
                },
                "nodeType": 0
            },
            "1": {
                "invocation": {
                    "address": "0x0000000000000000000000000000000000000001",
                    "callData": "0x36989f25586ebdc547716475ac05080626444d2df002cf4e5e123293000000000000000000000000000000000000000000000000000000000000001c3d4c884b87fd602a38ea3f237ce962dd7260b88ce82bc7176767ba137a860c28748b512570cf3994547be1ca1c313ce76964627ff9a129363c64cf77276bd4b4",
                    "decodedMethod": {
                        "callParams": [
                            {
                                "name": "hash",
                                "type": "bytes32",
                                "value": "0xa67f5d9636989f25586ebdc547716475ac05080626444d2df002cf4e5e123293"
                            },
                            {
                                "name": "v",
                                "type": "uint256",
                                "value": "28"
                            },
                            {
                                "name": "r",
                                "type": "bytes32",
                                "value": "0x3d4c884b87fd602a38ea3f237ce962dd7260b88ce82bc7176767ba137a860c28"
                            },
                            {
                                "name": "s",
                                "type": "bytes32",
                                "value": "0x748b512570cf3994547be1ca1c313ce76964627ff9a129363c64cf77276bd4b4"
                            }
                        ],
                        "constructorArguments": "",
                        "name": "ecrecover",
                        "returnParams": [
                            {
                                "name": "",
                                "type": "address",
                                "value": "0xaf447da1e8c277c41983b1732becf39129be5ca6"
                            }
                        ],
                        "signature": "ecrecover(bytes32,uint256,bytes32,bytes32)"
                    },
                    "errorInfo": "",
                    "fromAddress": "0xc29d104a418a08407f9f2cdb614c1cdcf82986e0",
                    "gasUsed": 3000,
                    "id": 1,
                    "methodDecoded": true,
                    "operation": "STATICCALL",
                    "output": "0x000000000000000000000000af447da1e8c277c41983b1732becf39129be5ca6",
                    "revert": false,
                    "revertMessage": "",
                    "selector": "0xa67f5d96",
                    "status": true,
                    "value": "0"
                },
                "nodeType": 0
            },
            "2": {
                "invocation": {
                    "address": "0x0000000000000000000000000000000000000001",
                    "callData": "0x36989f25586ebdc547716475ac05080626444d2df002cf4e5e123293000000000000000000000000000000000000000000000000000000000000001c222fe23544690154fc059ab548740514e31db585fdcf0c71031d92757866862f0b529d0bfa55c0981c4cda3a9373e0e214bbe68a36ee0e340d4d6a6986d0fbb6",
                    "decodedMethod": {
                        "callParams": [
                            {
                                "name": "hash",
                                "type": "bytes32",
                                "value": "0xa67f5d9636989f25586ebdc547716475ac05080626444d2df002cf4e5e123293"
                            },
                            {
                                "name": "v",
                                "type": "uint256",
                                "value": "28"
                            },
                            {
                                "name": "r",
                                "type": "bytes32",
                                "value": "0x222fe23544690154fc059ab548740514e31db585fdcf0c71031d92757866862f"
                            },
                            {
                                "name": "s",
                                "type": "bytes32",
                                "value": "0x0b529d0bfa55c0981c4cda3a9373e0e214bbe68a36ee0e340d4d6a6986d0fbb6"
                            }
                        ],
                        "constructorArguments": "",
                        "name": "ecrecover",
                        "returnParams": [
                            {
                                "name": "",
                                "type": "address",
                                "value": "0x080d263faa8cbd848f0b9b24b40e1f23ea06b3a3"
                            }
                        ],
                        "signature": "ecrecover(bytes32,uint256,bytes32,bytes32)"
                    },
                    "errorInfo": "",
                    "fromAddress": "0xc29d104a418a08407f9f2cdb614c1cdcf82986e0",
                    "gasUsed": 3000,
                    "id": 2,
                    "methodDecoded": true,
                    "operation": "STATICCALL",
                    "output": "0x000000000000000000000000080d263faa8cbd848f0b9b24b40e1f23ea06b3a3",
                    "revert": false,
                    "revertMessage": "",
                    "selector": "0xa67f5d96",
                    "status": true,
                    "value": "0"
                },
                "nodeType": 0
            },
            "3": {
                "invocation": {
                    "address": "0x0000000000000000000000000000000000000001",
                    "callData": "0x36989f25586ebdc547716475ac05080626444d2df002cf4e5e123293000000000000000000000000000000000000000000000000000000000000001b95293fdab90dfb6ea088f74cf0a95b68d88a2538b1032d91832ff49bdcd3b1c4345765120d66302da8d1a7d693d2ca09bf2e2c3c0ede76b1017c0467f2ab128a",
                    "decodedMethod": {
                        "callParams": [
                            {
                                "name": "hash",
                                "type": "bytes32",
                                "value": "0xa67f5d9636989f25586ebdc547716475ac05080626444d2df002cf4e5e123293"
                            },
                            {
                                "name": "v",
                                "type": "uint256",
                                "value": "27"
                            },
                            {
                                "name": "r",
                                "type": "bytes32",
                                "value": "0x95293fdab90dfb6ea088f74cf0a95b68d88a2538b1032d91832ff49bdcd3b1c4"
                            },
                            {
                                "name": "s",
                                "type": "bytes32",
                                "value": "0x345765120d66302da8d1a7d693d2ca09bf2e2c3c0ede76b1017c0467f2ab128a"
                            }
                        ],
                        "constructorArguments": "",
                        "name": "ecrecover",
                        "returnParams": [
                            {
                                "name": "",
                                "type": "address",
                                "value": "0xbe15b23e9f03e3bb44c5e35549354649fb25b87b"
                            }
                        ],
                        "signature": "ecrecover(bytes32,uint256,bytes32,bytes32)"
                    },
                    "errorInfo": "",
                    "fromAddress": "0xc29d104a418a08407f9f2cdb614c1cdcf82986e0",
                    "gasUsed": 3000,
                    "id": 3,
                    "methodDecoded": true,
                    "operation": "STATICCALL",
                    "output": "0x000000000000000000000000be15b23e9f03e3bb44c5e35549354649fb25b87b",
                    "revert": false,
                    "revertMessage": "",
                    "selector": "0xa67f5d96",
                    "status": true,
                    "value": "0"
                },
                "nodeType": 0
            },
            "4": {
                "invocation": {
                    "address": "0x0000000000000000000000000000000000000001",
                    "callData": "0x36989f25586ebdc547716475ac05080626444d2df002cf4e5e123293000000000000000000000000000000000000000000000000000000000000001b43dc932a0e33e80c824489c2c3c765bcafe246e69ac4c6fd5d4fc7959b42f7472b17dec3b3d0a6996f8e2700ed144d5bd62b4f8383846e9268d49b61f87d182f",
                    "decodedMethod": {
                        "callParams": [
                            {
                                "name": "hash",
                                "type": "bytes32",
                                "value": "0xa67f5d9636989f25586ebdc547716475ac05080626444d2df002cf4e5e123293"
                            },
                            {
                                "name": "v",
                                "type": "uint256",
                                "value": "27"
                            },
                            {
                                "name": "r",
                                "type": "bytes32",
                                "value": "0x43dc932a0e33e80c824489c2c3c765bcafe246e69ac4c6fd5d4fc7959b42f747"
                            },
                            {
                                "name": "s",
                                "type": "bytes32",
                                "value": "0x2b17dec3b3d0a6996f8e2700ed144d5bd62b4f8383846e9268d49b61f87d182f"
                            }
                        ],
                        "constructorArguments": "",
                        "name": "ecrecover",
                        "returnParams": [
                            {
                                "name": "",
                                "type": "address",
                                "value": "0x5007b477f939646b4e4416afcef6b00567f5f078"
                            }
                        ],
                        "signature": "ecrecover(bytes32,uint256,bytes32,bytes32)"
                    },
                    "errorInfo": "",
                    "fromAddress": "0xc29d104a418a08407f9f2cdb614c1cdcf82986e0",
                    "gasUsed": 3000,
                    "id": 4,
                    "methodDecoded": true,
                    "operation": "STATICCALL",
                    "output": "0x0000000000000000000000005007b477f939646b4e4416afcef6b00567f5f078",
                    "revert": false,
                    "revertMessage": "",
                    "selector": "0xa67f5d96",
                    "status": true,
                    "value": "0"
                },
                "nodeType": 0
            },
            "5": {
                "invocation": {
                    "address": "0x0000000000000000000000000000000000000001",
                    "callData": "0x36989f25586ebdc547716475ac05080626444d2df002cf4e5e123293000000000000000000000000000000000000000000000000000000000000001c2b495c3e24c29dc983ca46f2b5d1d6052ef942d476942a66e8daf84149c6040a775079136711cfe39ea9277991bf001349426ae714375ce60332f2bf7195da2c",
                    "decodedMethod": {
                        "callParams": [
                            {
                                "name": "hash",
                                "type": "bytes32",
                                "value": "0xa67f5d9636989f25586ebdc547716475ac05080626444d2df002cf4e5e123293"
                            },
                            {
                                "name": "v",
                                "type": "uint256",
                                "value": "28"
                            },
                            {
                                "name": "r",
                                "type": "bytes32",
                                "value": "0x2b495c3e24c29dc983ca46f2b5d1d6052ef942d476942a66e8daf84149c6040a"
                            },
                            {
                                "name": "s",
                                "type": "bytes32",
                                "value": "0x775079136711cfe39ea9277991bf001349426ae714375ce60332f2bf7195da2c"
                            }
                        ],
                        "constructorArguments": "",
                        "name": "ecrecover",
                        "returnParams": [
                            {
                                "name": "",
                                "type": "address",
                                "value": "0x656fc633eb33cf5dad0bcea0e42cde85fb7a4ab8"
                            }
                        ],
                        "signature": "ecrecover(bytes32,uint256,bytes32,bytes32)"
                    },
                    "errorInfo": "",
                    "fromAddress": "0xc29d104a418a08407f9f2cdb614c1cdcf82986e0",
                    "gasUsed": 3000,
                    "id": 5,
                    "methodDecoded": true,
                    "operation": "STATICCALL",
                    "output": "0x000000000000000000000000656fc633eb33cf5dad0bcea0e42cde85fb7a4ab8",
                    "revert": false,
                    "revertMessage": "",
                    "selector": "0xa67f5d96",
                    "status": true,
                    "value": "0"
                },
                "nodeType": 0
            },
            "6": {
                "invocation": {
                    "address": "0x0000000000000000000000000000000000000001",
                    "callData": "0x36989f25586ebdc547716475ac05080626444d2df002cf4e5e123293000000000000000000000000000000000000000000000000000000000000001cfaab5a9d7e1f00ec26667d3a02b526adb7d336c37d3d7dce5d6e77d5148cd11b245c83b69f6dba6e05fb7bb34a3a799eff57a3b177d6eb8e6880f1292e6d20e7",
                    "decodedMethod": {
                        "callParams": [
                            {
                                "name": "hash",
                                "type": "bytes32",
                                "value": "0xa67f5d9636989f25586ebdc547716475ac05080626444d2df002cf4e5e123293"
                            },
                            {
                                "name": "v",
                                "type": "uint256",
                                "value": "28"
                            },
                            {
                                "name": "r",
                                "type": "bytes32",
                                "value": "0xfaab5a9d7e1f00ec26667d3a02b526adb7d336c37d3d7dce5d6e77d5148cd11b"
                            },
                            {
                                "name": "s",
                                "type": "bytes32",
                                "value": "0x245c83b69f6dba6e05fb7bb34a3a799eff57a3b177d6eb8e6880f1292e6d20e7"
                            }
                        ],
                        "constructorArguments": "",
                        "name": "ecrecover",
                        "returnParams": [
                            {
                                "name": "",
                                "type": "address",
                                "value": "0x076b12d219a32613cd370ea9649a860114d3015e"
                            }
                        ],
                        "signature": "ecrecover(bytes32,uint256,bytes32,bytes32)"
                    },
                    "errorInfo": "",
                    "fromAddress": "0xc29d104a418a08407f9f2cdb614c1cdcf82986e0",
                    "gasUsed": 3000,
                    "id": 6,
                    "methodDecoded": true,
                    "operation": "STATICCALL",
                    "output": "0x000000000000000000000000076b12d219a32613cd370ea9649a860114d3015e",
                    "revert": false,
                    "revertMessage": "",
                    "selector": "0xa67f5d96",
                    "status": true,
                    "value": "0"
                },
                "nodeType": 0
            },
            "7": {
                "event": {
                    "contract": "0xc29d104a418a08407f9f2cdb614c1cdcf82986e0",
                    "decodedLog": {
                        "name": "NewTransmission",
                        "params": [
                            {
                                "name": "aggregatorRoundId",
                                "type": "uint32",
                                "value": "3,746"
                            },
                            {
                                "name": "answer",
                                "type": "int192",
                                "value": "577,838,800"
                            },
                            {
                                "name": "transmitter",
                                "type": "address",
                                "value": "0x686bec83b59f8b23a6129f03550a3aad245a543c"
                            },
                            {
                                "name": "observations",
                                "type": "int192[]",
                                "value": [
                                    "577,692,051",
                                    "577,798,400",
                                    "577,798,400",
                                    "577,798,400",
                                    "577,798,400",
                                    "577,798,400",
                                    "577,838,800",
                                    "577,838,800",
                                    "577,838,800",
                                    "578,258,449",
                                    "578,668,627",
                                    "578,678,099",
                                    "579,134,616",
                                    "579,190,810",
                                    "579,682,468",
                                    "579,682,468"
                                ]
                            },
                            {
                                "name": "observers",
                                "type": "bytes",
                                "value": "0x070d0104060e020300050f09080c0b0a"
                            },
                            {
                                "name": "rawReportContext",
                                "type": "bytes32",
                                "value": "0x00000000000000000000008f50d0303efb1d12bc7c03d2b10dc41600009c6a01"
                            }
                        ],
                        "signature": "NewTransmission(uint32,int192,address,int192[],bytes,bytes32)"
                    },
                    "id": 7,
                    "logData": "0x0000000000000000000000000000000000000000000000000000000022711ed0000000000000000000000000686bec83b59f8b23a6129f03550a3aad245a543c00000000000000000000000000000000000000000000000000000000000000a000000000000000000000000000000000000000000000000000000000000002c000000000000000000000008f50d0303efb1d12bc7c03d2b10dc41600009c6a01000000000000000000000000000000000000000000000000000000000000001000000000000000000000000000000000000000000000000000000000226ee193000000000000000000000000000000000000000000000000000000002270810000000000000000000000000000000000000000000000000000000000227081000000000000000000000000000000000000000000000000000000000022708100000000000000000000000000000000000000000000000000000000002270810000000000000000000000000000000000000000000000000000000000227081000000000000000000000000000000000000000000000000000000000022711ed00000000000000000000000000000000000000000000000000000000022711ed00000000000000000000000000000000000000000000000000000000022711ed0000000000000000000000000000000000000000000000000000000002277861100000000000000000000000000000000000000000000000000000000227dc85300000000000000000000000000000000000000000000000000000000227ded53000000000000000000000000000000000000000000000000000000002284e498000000000000000000000000000000000000000000000000000000002285c01a00000000000000000000000000000000000000000000000000000000228d40a400000000000000000000000000000000000000000000000000000000228d40a40000000000000000000000000000000000000000000000000000000000000010070d0104060e020300050f09080c0b0a00000000000000000000000000000000",
                    "logDecoded": true,
                    "operation": "EVENT",
                    "revert": false,
                    "status": true,
                    "topics": [
                        "0xf6a97944f31ea060dfde0566e4167c1a1082551e64b60ecb14d599a9d023d451",
                        "0x0000000000000000000000000000000000000000000000000000000000000ea2"
                    ]
                },
                "nodeType": 1
            },
            "8": {
                "event": {
                    "contract": "0xc29d104a418a08407f9f2cdb614c1cdcf82986e0",
                    "decodedLog": {
                        "name": "NewRound",
                        "params": [
                            {
                                "name": "roundId",
                                "type": "uint256",
                                "value": "3,746"
                            },
                            {
                                "name": "startedBy",
                                "type": "address",
                                "value": "0x0000000000000000000000000000000000000000"
                            },
                            {
                                "name": "startedAt",
                                "type": "uint256",
                                "value": "1,683,793,271"
                            }
                        ],
                        "signature": "NewRound(uint256,address,uint256)"
                    },
                    "id": 8,
                    "logData": "0x00000000000000000000000000000000000000000000000000000000645ca577",
                    "logDecoded": true,
                    "operation": "EVENT",
                    "revert": false,
                    "status": true,
                    "topics": [
                        "0x0109fc6f55cf40689f02fbaad7af7fe7bbac8a3d2186600afc7d3e10cac60271",
                        "0x0000000000000000000000000000000000000000000000000000000000000ea2",
                        "0x0000000000000000000000000000000000000000000000000000000000000000"
                    ]
                },
                "nodeType": 1
            },
            "9": {
                "event": {
                    "contract": "0xc29d104a418a08407f9f2cdb614c1cdcf82986e0",
                    "decodedLog": {
                        "name": "AnswerUpdated",
                        "params": [
                            {
                                "name": "current",
                                "type": "int256",
                                "value": "577,838,800"
                            },
                            {
                                "name": "roundId",
                                "type": "uint256",
                                "value": "3,746"
                            },
                            {
                                "name": "updatedAt",
                                "type": "uint256",
                                "value": "1,683,793,271"
                            }
                        ],
                        "signature": "AnswerUpdated(int256,uint256,uint256)"
                    },
                    "id": 9,
                    "logData": "0x00000000000000000000000000000000000000000000000000000000645ca577",
                    "logDecoded": true,
                    "operation": "EVENT",
                    "revert": false,
                    "status": true,
                    "topics": [
                        "0x0559884fd3a460db3073b7fc896cc77986f16e378210ded43186175bf646fc5f",
                        "0x0000000000000000000000000000000000000000000000000000000022711ed0",
                        "0x0000000000000000000000000000000000000000000000000000000000000ea2"
                    ]
                },
                "nodeType": 1
            }
        },
        "gasFlame": [
            {
                "children": [
                    {
                        "children": [
                            {
                                "children": [],
                                "depth": 0,
                                "name": "Initial Gas",
                                "value": 31912
                            },
                            {
                                "children": [
                                    {
                                        "children": [],
                                        "depth": 1,
                                        "name": "ecrecover",
                                        "value": 3000
                                    },
                                    {
                                        "children": [],
                                        "depth": 1,
                                        "name": "ecrecover",
                                        "value": 3000
                                    },
                                    {
                                        "children": [],
                                        "depth": 1,
                                        "name": "ecrecover",
                                        "value": 3000
                                    },
                                    {
                                        "children": [],
                                        "depth": 1,
                                        "name": "ecrecover",
                                        "value": 3000
                                    },
                                    {
                                        "children": [],
                                        "depth": 1,
                                        "name": "ecrecover",
                                        "value": 3000
                                    },
                                    {
                                        "children": [],
                                        "depth": 1,
                                        "name": "ecrecover",
                                        "value": 3000
                                    }
                                ],
                                "depth": 0,
                                "name": "Executed Gas",
                                "value": 144495
                            }
                        ],
                        "depth": -1,
                        "name": "Actual Gas Used",
                        "value": 176407
                    },
                    {
                        "children": [],
                        "depth": -1,
                        "name": "Refunded Gas",
                        "value": 0
                    }
                ],
                "depth": -2,
                "name": "Total Gas",
                "value": 176407
            }
        ],
        "isConfirmed": true,
        "mainTrace": [
            {
                "children": [
                    {
                        "children": [
                            {
                                "children": [],
                                "depth": 1,
                                "id": 1,
                                "order": 1
                            },
                            {
                                "children": [],
                                "depth": 1,
                                "id": 2,
                                "order": 2
                            },
                            {
                                "children": [],
                                "depth": 1,
                                "id": 3,
                                "order": 3
                            },
                            {
                                "children": [],
                                "depth": 1,
                                "id": 4,
                                "order": 4
                            },
                            {
                                "children": [],
                                "depth": 1,
                                "id": 5,
                                "order": 5
                            },
                            {
                                "children": [],
                                "depth": 1,
                                "id": 6,
                                "order": 6
                            },
                            {
                                "children": [],
                                "depth": 1,
                                "id": 7,
                                "order": 7
                            },
                            {
                                "children": [],
                                "depth": 1,
                                "id": 8,
                                "order": 8
                            },
                            {
                                "children": [],
                                "depth": 1,
                                "id": 9,
                                "order": 9
                            }
                        ],
                        "depth": 0,
                        "id": 0,
                        "order": 0
                    }
                ],
                "depth": -1,
                "id": -1,
                "order": -1
            }
        ],
        "mainTraceNodeCount": 10,
        "parentIdMap": {
            "0": -1,
            "1": 0,
            "2": 0,
            "3": 0,
            "4": 0,
            "5": 0,
            "6": 0,
            "7": 0,
            "8": 0,
            "9": 0
        },
        "tidyTrace": [
            {
                "children": [
                    {
                        "children": [
                            {
                                "children": [],
                                "depth": 1,
                                "id": 7,
                                "order": 7
                            },
                            {
                                "children": [],
                                "depth": 1,
                                "id": 8,
                                "order": 8
                            },
                            {
                                "children": [],
                                "depth": 1,
                                "id": 9,
                                "order": 9
                            }
                        ],
                        "depth": 0,
                        "id": 0,
                        "order": 0
                    }
                ],
                "depth": -1,
                "id": -1,
                "order": -1
            }
        ],
        "tidyTraceNodeCount": 4
    },
    "state_change": {
        "stateChanges": [
            {
                "address": "0xc29d104a418a08407f9f2cdb614c1cdcf82986e0",
                "erc": "",
                "slots": [
                    {
                        "current": "0x00000000645ca577000000000000000000000000000000000000000022711ed0",
                        "key": "0xf0f817fdd99b85e82a8e30c082d278aaeacfc2d0327ee5b63442602daad3637d",
                        "prev": "0x0000000000000000000000000000000000000000000000000000000000000000"
                    },
                    {
                        "current": "0x00000000000000000ea20500009c6a018f50d0303efb1d12bc7c03d2b10dc416",
                        "key": "0x000000000000000000000000000000000000000000000000000000000000002b",
                        "prev": "0x00000000000000000ea10500009b60058f50d0303efb1d12bc7c03d2b10dc416"
                    },
                    {
                        "current": "0x000b000b000b000b000b000b000b000b000b000b000b000b000b000b000b000b",
                        "key": "0x0000000000000000000000000000000000000000000000000000000000000005",
                        "prev": "0x000a000a000a000a000a000a000a000a000a000a000a000a000a000a000a000a"
                    },
                    {
                        "current": "0x0000000000000000000000000000000000000000000000007fe37f6e2ba3dc81",
                        "key": "0x000000000000000000000000000000000000000000000000000000000000000b",
                        "prev": "0x0000000000000000000000000000000000000000000000002f854f492679c661"
                    }
                ],
                "storageVariables": [
                    {
                        "name": "s_hotVars",
                        "type": "struct OffchainAggregator.HotVars",
                        "value": {
                            "fields": [
                                {
                                    "name": "latestConfigDigest",
                                    "type": "bytes16",
                                    "value": {
                                        "current": "0x8f50d0303efb1d12bc7c03d2b10dc416",
                                        "prev": "0x8f50d0303efb1d12bc7c03d2b10dc416",
                                        "typeTag": 1
                                    }
                                },
                                {
                                    "name": "latestEpochAndRound",
                                    "type": "uint40",
                                    "value": {
                                        "current": "10250753",
                                        "prev": "10182661",
                                        "typeTag": 1
                                    }
                                },
                                {
                                    "name": "threshold",
                                    "type": "uint8",
                                    "value": {
                                        "current": "5",
                                        "prev": "5",
                                        "typeTag": 1
                                    }
                                },
                                {
                                    "name": "latestAggregatorRoundId",
                                    "type": "uint32",
                                    "value": {
                                        "current": "3746",
                                        "prev": "3745",
                                        "typeTag": 1
                                    }
                                }
                            ],
                            "typeTag": 3
                        }
                    },
                    {
                        "name": "s_oracleObservationsCounts",
                        "type": "uint16[31]",
                        "value": {
                            "elemType": "uint16",
                            "elems": [
                                {
                                    "index": 0,
                                    "value": {
                                        "current": "11",
                                        "prev": "10",
                                        "typeTag": 1
                                    }
                                },
                                {
                                    "index": 1,
                                    "value": {
                                        "current": "11",
                                        "prev": "10",
                                        "typeTag": 1
                                    }
                                },
                                {
                                    "index": 2,
                                    "value": {
                                        "current": "11",
                                        "prev": "10",
                                        "typeTag": 1
                                    }
                                },
                                {
                                    "index": 3,
                                    "value": {
                                        "current": "11",
                                        "prev": "10",
                                        "typeTag": 1
                                    }
                                },
                                {
                                    "index": 4,
                                    "value": {
                                        "current": "11",
                                        "prev": "10",
                                        "typeTag": 1
                                    }
                                },
                                {
                                    "index": 5,
                                    "value": {
                                        "current": "11",
                                        "prev": "10",
                                        "typeTag": 1
                                    }
                                },
                                {
                                    "index": 6,
                                    "value": {
                                        "current": "11",
                                        "prev": "10",
                                        "typeTag": 1
                                    }
                                },
                                {
                                    "index": 7,
                                    "value": {
                                        "current": "11",
                                        "prev": "10",
                                        "typeTag": 1
                                    }
                                },
                                {
                                    "index": 8,
                                    "value": {
                                        "current": "11",
                                        "prev": "10",
                                        "typeTag": 1
                                    }
                                },
                                {
                                    "index": 9,
                                    "value": {
                                        "current": "11",
                                        "prev": "10",
                                        "typeTag": 1
                                    }
                                },
                                {
                                    "index": 10,
                                    "value": {
                                        "current": "11",
                                        "prev": "10",
                                        "typeTag": 1
                                    }
                                },
                                {
                                    "index": 11,
                                    "value": {
                                        "current": "11",
                                        "prev": "10",
                                        "typeTag": 1
                                    }
                                },
                                {
                                    "index": 12,
                                    "value": {
                                        "current": "11",
                                        "prev": "10",
                                        "typeTag": 1
                                    }
                                },
                                {
                                    "index": 13,
                                    "value": {
                                        "current": "11",
                                        "prev": "10",
                                        "typeTag": 1
                                    }
                                },
                                {
                                    "index": 14,
                                    "value": {
                                        "current": "11",
                                        "prev": "10",
                                        "typeTag": 1
                                    }
                                }
                            ],
                            "typeTag": 2
                        }
                    },
                    {
                        "name": "s_transmissions",
                        "type": "mapping(uint32 => struct OffchainAggregator.Transmission)",
                        "value": {
                            "pairs": [
                                {
                                    "key": "3746",
                                    "value": {
                                        "fields": [
                                            {
                                                "name": "answer",
                                                "type": "int192",
                                                "value": {
                                                    "current": "577838800",
                                                    "prev": "0",
                                                    "typeTag": 1
                                                }
                                            },
                                            {
                                                "name": "timestamp",
                                                "type": "uint64",
                                                "value": {
                                                    "current": "1683793271",
                                                    "prev": "0",
                                                    "typeTag": 1
                                                }
                                            }
                                        ],
                                        "typeTag": 3
                                    }
                                }
                            ],
                            "typeTag": 4
                        }
                    }
                ]
            }
        ]
    }
}