{
    "balance_change": {
        "balanceChanges": [
            {
                "account": "0xcbcd8b7bb8e024b8c238f30e6c70bce8be64dc94",
                "assets": [
                    {
                        "address": "0xcb37b0027858796ce60ecce4b54c45afdff02aca",
                        "amount": "6.637467811381689414",
                        "iconUrl": "",
                        "isERC1155": false,
                        "isERC721": false,
                        "sign": false,
                        "value": "547.5476888"
                    },
                    {
                        "address": "0x298d492e8c1d909d3f63bc4a36c66c64acb3d695",
                        "amount": "0.131034868056660444",
                        "iconUrl": "https://assets.blocksec.com/icon/e671a0d5571b57532a8202c67ceae0e15ef687197ee6459da9f1536552c7a3c8.png",
                        "isERC1155": false,
                        "isERC721": false,
                        "sign": true,
                        "value": "0.05555027"
                    }
                ]
            },
            {
                "account": "0x75b8c48bdb04d426aed57b36bb835ad2dc321c30",
                "assets": [
                    {
                        "address": "0xcb37b0027858796ce60ecce4b54c45afdff02aca",
                        "amount": "6.637467811381689414",
                        "iconUrl": "",
                        "isERC1155": false,
                        "isERC721": false,
                        "sign": true,
                        "value": "547.5476888"
                    },
                    {
                        "address": "0x298d492e8c1d909d3f63bc4a36c66c64acb3d695",
                        "amount": "0.1311007147240256",
                        "iconUrl": "https://assets.blocksec.com/icon/e671a0d5571b57532a8202c67ceae0e15ef687197ee6459da9f1536552c7a3c8.png",
                        "isERC1155": false,
                        "isERC721": false,
                        "sign": false,
                        "value": "0.05557818"
                    }
                ]
            },
            {
                "account": "0x0000000000000000000000000000000000000000",
                "assets": [
                    {
                        "address": "0x298d492e8c1d909d3f63bc4a36c66c64acb3d695",
                        "amount": "0.000065846667365156",
                        "iconUrl": "https://assets.blocksec.com/icon/e671a0d5571b57532a8202c67ceae0e15ef687197ee6459da9f1536552c7a3c8.png",
                        "isERC1155": false,
                        "isERC721": false,
                        "sign": true,
                        "value": "0.00002791"
                    }
                ]
            }
        ]
    },
    "profile": {
        "basic_info": {
            "baseFee": "38.325797988",
            "blockNumber": 13339470,
            "callData": "0xe2bbb15800000000000000000000000000000000000000000000000000000000000000000000000000000000000000000000000000000000000000005c1d05cec17ebc46",
            "debugEnable": true,
            "errorInfo": "",
            "eventCount": 4,
            "feeRecipient": "0xea674fdde714fd979de3edf0f56aa9716b898ec8",
            "formatValue": "0",
            "gasLimit": 372438,
            "gasPrice": "43.169314121",
            "gasUsed": 243492,
            "intTxnCount": 10,
            "internalRevert": false,
            "internalRevertMessage": "",
            "isContractCreation": false,
            "isFlashloan": false,
            "maxFee": "43.169314121",
            "nonce": 238,
            "overwritedBlockNumber": -1,
            "priorityFee": "43.169314121",
            "receiver": "0x75b8c48bdb04d426aed57b36bb835ad2dc321c30",
            "revertMessage": "",
            "sender": "0xcbcd8b7bb8e024b8c238f30e6c70bce8be64dc94",
            "simulationEnable": true,
            "sourceTxnHash": "0x1e89caa6f88ee8aacd050daef292cb9300be0004fc0865585a7b8be85169ad54",
            "status": true,
            "timestamp": "2021-10-02T10:58:19Z",
            "transactionFee": "0.010511382633950532",
            "txnHash": "0x1e89caa6f88ee8aacd050daef292cb9300be0004fc0865585a7b8be85169ad54",
            "txnIndex": 10,
            "type": 2,
            "value": "0"
        },
        "fund_flow": [
            {
                "amount": "6.637467811381689414",
                "from": "0xcbcd8b7bb8e024b8c238f30e6c70bce8be64dc94",
                "id": 1,
                "isERC1155": false,
                "isERC721": false,
                "isReverted": false,
                "order": 1,
                "to": "0x75b8c48bdb04d426aed57b36bb835ad2dc321c30",
                "token": "0xcb37b0027858796ce60ecce4b54c45afdff02aca"
            },
            {
                "amount": "0.000592620006286404",
                "from": "0x75b8c48bdb04d426aed57b36bb835ad2dc321c30",
                "id": 2,
                "isERC1155": false,
                "isERC721": false,
                "isReverted": false,
                "order": 2,
                "to": "0x75b8c48bdb04d426aed57b36bb835ad2dc321c30",
                "token": "0x298d492e8c1d909d3f63bc4a36c66c64acb3d695"
            },
            {
                "amount": "0.000065846667365156",
                "from": "0x75b8c48bdb04d426aed57b36bb835ad2dc321c30",
                "id": 3,
                "isERC1155": false,
                "isERC721": false,
                "isReverted": false,
                "order": 3,
                "to": "0x0000000000000000000000000000000000000000",
                "token": "0x298d492e8c1d909d3f63bc4a36c66c64acb3d695"
            },
            {
                "amount": "0.131034868056660444",
                "from": "0x75b8c48bdb04d426aed57b36bb835ad2dc321c30",
                "id": 4,
                "isERC1155": false,
                "isERC721": false,
                "isReverted": false,
                "order": 4,
                "to": "0xcbcd8b7bb8e024b8c238f30e6c70bce8be64dc94",
                "token": "0x298d492e8c1d909d3f63bc4a36c66c64acb3d695"
            }
        ],
        "token_infos": [
            {
                "address": "0x298d492e8c1d909d3f63bc4a36c66c64acb3d695",
                "decimals": 18
            },
            {
                "address": "0xc02aaa39b223fe8d0a0e5c4f27ead9083c756cc2",
                "decimals": 18
            },
            {
                "address": "0xcb37b0027858796ce60ecce4b54c45afdff02aca",
                "decimals": 18
            },
            {
                "address": "0xeeeeeeeeeeeeeeeeeeeeeeeeeeeeeeeeeeeeeeee",
                "decimals": 18
            }
        ]
    },
    "address_label": {
        "labels": [
            {
                "address": "0xeeeeeeeeeeeeeeeeeeeeeeeeeeeeeeeeeeeeeeee",
                "label": "Ether"
            },
            {
                "address": "0x3041cbd36888becc7bbcbc0045e3b1f144466f5f",
                "label": "Uniswap V2 (UNI-V2)"
            },
            {
                "address": "0xdaef1026b0c63eed3b2b86af396d724ddb9dcd18",
                "label": "Uniswap V2: XIV 2"
            },
            {
                "address": "0x0000000000000000000000000000000000000001",
                "label": "Precompiled"
            },
            {
                "address": "0x0000000000000000000000000000000000000002",
                "label": "Precompiled"
            },
            {
                "address": "0x0000000000000000000000000000000000000004",
                "label": "Precompiled"
            },
            {
                "address": "0xcb37b0027858796ce60ecce4b54c45afdff02aca",
                "label": "Uniswap V2: PBR 6"
            },
            {
                "address": "0x298d492e8c1d909d3f63bc4a36c66c64acb3d695",
                "label": "PolkaBridge: PBR Token"
            },
            {
                "address": "0x75b8c48bdb04d426aed57b36bb835ad2dc321c30",
                "label": "PolkaBridgeMasterFarm"
            },
            {
                "address": "0x0000000000000000000000000000000000000003",
                "label": "Precompiled"
            }
        ]
    },
    "trace": {
        "accountLabels": null,
        "dataMap": {
            "-1": {
                "invocation": {
                    "address": "0xcbcd8b7bb8e024b8c238f30e6c70bce8be64dc94",
                    "callData": "",
                    "decodedMethod": null,
                    "errorInfo": "",
                    "fromAddress": "",
                    "gasUsed": 0,
                    "id": -1,
                    "methodDecoded": false,
                    "operation": "",
                    "output": "",
                    "revert": false,
                    "revertMessage": "",
                    "selector": "",
                    "status": false,
                    "value": ""
                },
                "nodeType": 0
            },
            "0": {
                "invocation": {
                    "address": "0x75b8c48bdb04d426aed57b36bb835ad2dc321c30",
                    "callData": "0x00000000000000000000000000000000000000000000000000000000000000000000000000000000000000000000000000000000000000005c1d05cec17ebc46",
                    "decodedMethod": {
                        "callParams": [
                            {
                                "name": "_pid",
                                "type": "uint256",
                                "value": "0"
                            },
                            {
                                "name": "_amount",
                                "type": "uint256",
                                "value": "6,637,467,811,381,689,414"
                            }
                        ],
                        "constructorArguments": "",
                        "name": "deposit",
                        "returnParams": [],
                        "signature": "deposit(uint256,uint256)"
                    },
                    "errorInfo": "",
                    "fromAddress": "0xcbcd8b7bb8e024b8c238f30e6c70bce8be64dc94",
                    "gasUsed": 243492,
                    "id": 0,
                    "methodDecoded": true,
                    "operation": "CALL",
                    "output": "",
                    "revert": false,
                    "revertMessage": "",
                    "selector": "0xe2bbb158",
                    "status": true,
                    "value": "0"
                },
                "nodeType": 0
            },
            "1": {
                "invocation": {
                    "address": "0xcb37b0027858796ce60ecce4b54c45afdff02aca",
                    "callData": "0x000000000000000000000000cbcd8b7bb8e024b8c238f30e6c70bce8be64dc9400000000000000000000000075b8c48bdb04d426aed57b36bb835ad2dc321c300000000000000000000000000000000000000000000000005c1d05cec17ebc46",
                    "decodedMethod": {
                        "callParams": [
                            {
                                "name": "from",
                                "type": "address",
                                "value": "0xcbcd8b7bb8e024b8c238f30e6c70bce8be64dc94"
                            },
                            {
                                "name": "to",
                                "type": "address",
                                "value": "0x75b8c48bdb04d426aed57b36bb835ad2dc321c30"
                            },
                            {
                                "decimalAvailable": true,
                                "name": "value",
                                "type": "uint256",
                                "value": "6,637,467,811,381,689,414"
                            }
                        ],
                        "constructorArguments": "",
                        "name": "transferFrom",
                        "returnParams": [
                            {
                                "name": "",
                                "type": "bool",
                                "value": true
                            }
                        ],
                        "signature": "transferFrom(address,address,uint256)"
                    },
                    "errorInfo": "",
                    "fromAddress": "0x75b8c48bdb04d426aed57b36bb835ad2dc321c30",
                    "gasUsed": 18349,
                    "id": 1,
                    "methodDecoded": true,
                    "operation": "CALL",
                    "output": "0x0000000000000000000000000000000000000000000000000000000000000001",
                    "revert": false,
                    "revertMessage": "",
                    "selector": "0x23b872dd",
                    "status": true,
                    "value": "0"
                },
                "nodeType": 0
            },
            "10": {
                "invocation": {
                    "address": "0x298d492e8c1d909d3f63bc4a36c66c64acb3d695",
                    "callData": "0x00000000000000000000000075b8c48bdb04d426aed57b36bb835ad2dc321c30",
                    "decodedMethod": {
                        "callParams": [
                            {
                                "name": "account",
                                "type": "address",
                                "value": "0x75b8c48bdb04d426aed57b36bb835ad2dc321c30"
                            }
                        ],
                        "constructorArguments": "",
                        "name": "balanceOf",
                        "returnParams": [
                            {
                                "decimalAvailable": true,
                                "name": "",
                                "type": "uint256",
                                "value": "335,969,776,908,048,141,613,568"
                            }
                        ],
                        "signature": "balanceOf(address)"
                    },
                    "errorInfo": "",
                    "fromAddress": "0x75b8c48bdb04d426aed57b36bb835ad2dc321c30",
                    "gasUsed": 519,
                    "id": 10,
                    "methodDecoded": true,
                    "operation": "STATICCALL",
                    "output": "0x000000000000000000000000000000000000000000004724f54615b3d5837a00",
                    "revert": false,
                    "revertMessage": "",
                    "selector": "0x70a08231",
                    "status": true,
                    "value": "0"
                },
                "nodeType": 0
            },
            "11": {
                "invocation": {
                    "address": "0x298d492e8c1d909d3f63bc4a36c66c64acb3d695",
                    "callData": "0x000000000000000000000000cbcd8b7bb8e024b8c238f30e6c70bce8be64dc9400000000000000000000000000000000000000000000000001d3de63e3e30944",
                    "decodedMethod": {
                        "callParams": [
                            {
                                "name": "recipient",
                                "type": "address",
                                "value": "0xcbcd8b7bb8e024b8c238f30e6c70bce8be64dc94"
                            },
                            {
                                "decimalAvailable": true,
                                "name": "amount",
                                "type": "uint256",
                                "value": "131,693,334,730,312,004"
                            }
                        ],
                        "constructorArguments": "",
                        "name": "transfer",
                        "returnParams": [
                            {
                                "name": "",
                                "type": "bool",
                                "value": true
                            }
                        ],
                        "signature": "transfer(address,uint256)"
                    },
                    "errorInfo": "",
                    "fromAddress": "0x75b8c48bdb04d426aed57b36bb835ad2dc321c30",
                    "gasUsed": 55019,
                    "id": 11,
                    "methodDecoded": true,
                    "operation": "CALL",
                    "output": "0x0000000000000000000000000000000000000000000000000000000000000001",
                    "revert": false,
                    "revertMessage": "",
                    "selector": "0xa9059cbb",
                    "status": true,
                    "value": "0"
                },
                "nodeType": 0
            },
            "12": {
                "event": {
                    "contract": "0x298d492e8c1d909d3f63bc4a36c66c64acb3d695",
                    "decodedLog": {
                        "name": "Transfer",
                        "params": [
                            {
                                "name": "from",
                                "type": "address",
                                "value": "0x75b8c48bdb04d426aed57b36bb835ad2dc321c30"
                            },
                            {
                                "name": "to",
                                "type": "address",
                                "value": "0x75b8c48bdb04d426aed57b36bb835ad2dc321c30"
                            },
                            {
                                "decimalAvailable": true,
                                "name": "value",
                                "type": "uint256",
                                "value": "592,620,006,286,404"
                            }
                        ],
                        "signature": "Transfer(address,address,uint256)"
                    },
                    "id": 12,
                    "logData": "0x00000000000000000000000000000000000000000000000000021afc18f62444",
                    "logDecoded": true,
                    "operation": "EVENT",
                    "revert": false,
                    "status": true,
                    "topics": [
                        "0xddf252ad1be2c89b69c2b068fc378daa952ba7f163c4a11628f55a4df523b3ef",
                        "0x00000000000000000000000075b8c48bdb04d426aed57b36bb835ad2dc321c30",
                        "0x00000000000000000000000075b8c48bdb04d426aed57b36bb835ad2dc321c30"
                    ]
                },
                "nodeType": 1
            },
            "13": {
                "event": {
                    "contract": "0x298d492e8c1d909d3f63bc4a36c66c64acb3d695",
                    "decodedLog": {
                        "name": "Transfer",
                        "params": [
                            {
                                "name": "from",
                                "type": "address",
                                "value": "0x75b8c48bdb04d426aed57b36bb835ad2dc321c30"
                            },
                            {
                                "name": "to",
                                "type": "address",
                                "value": "0x0000000000000000000000000000000000000000"
                            },
                            {
                                "decimalAvailable": true,
                                "name": "value",
                                "type": "uint256",
                                "value": "65,846,667,365,156"
                            }
                        ],
                        "signature": "Transfer(address,address,uint256)"
                    },
                    "id": 13,
                    "logData": "0x00000000000000000000000000000000000000000000000000003be31f37cb24",
                    "logDecoded": true,
                    "operation": "EVENT",
                    "revert": false,
                    "status": true,
                    "topics": [
                        "0xddf252ad1be2c89b69c2b068fc378daa952ba7f163c4a11628f55a4df523b3ef",
                        "0x00000000000000000000000075b8c48bdb04d426aed57b36bb835ad2dc321c30",
                        "0x0000000000000000000000000000000000000000000000000000000000000000"
                    ]
                },
                "nodeType": 1
            },
            "14": {
                "event": {
                    "contract": "0x298d492e8c1d909d3f63bc4a36c66c64acb3d695",
                    "decodedLog": {
                        "name": "Transfer",
                        "params": [
                            {
                                "name": "from",
                                "type": "address",
                                "value": "0x75b8c48bdb04d426aed57b36bb835ad2dc321c30"
                            },
                            {
                                "name": "to",
                                "type": "address",
                                "value": "0xcbcd8b7bb8e024b8c238f30e6c70bce8be64dc94"
                            },
                            {
                                "decimalAvailable": true,
                                "name": "value",
                                "type": "uint256",
                                "value": "131,034,868,056,660,444"
                            }
                        ],
                        "signature": "Transfer(address,address,uint256)"
                    },
                    "id": 14,
                    "logData": "0x00000000000000000000000000000000000000000000000001d18784abb519dc",
                    "logDecoded": true,
                    "operation": "EVENT",
                    "revert": false,
                    "status": true,
                    "topics": [
                        "0xddf252ad1be2c89b69c2b068fc378daa952ba7f163c4a11628f55a4df523b3ef",
                        "0x00000000000000000000000075b8c48bdb04d426aed57b36bb835ad2dc321c30",
                        "0x000000000000000000000000cbcd8b7bb8e024b8c238f30e6c70bce8be64dc94"
                    ]
                },
                "nodeType": 1
            },
            "2": {
                "event": {
                    "contract": "0xcb37b0027858796ce60ecce4b54c45afdff02aca",
                    "decodedLog": {
                        "name": "Transfer",
                        "params": [
                            {
                                "name": "from",
                                "type": "address",
                                "value": "0xcbcd8b7bb8e024b8c238f30e6c70bce8be64dc94"
                            },
                            {
                                "name": "to",
                                "type": "address",
                                "value": "0x75b8c48bdb04d426aed57b36bb835ad2dc321c30"
                            },
                            {
                                "decimalAvailable": true,
                                "name": "value",
                                "type": "uint256",
                                "value": "6,637,467,811,381,689,414"
                            }
                        ],
                        "signature": "Transfer(address,address,uint256)"
                    },
                    "id": 2,
                    "logData": "0x0000000000000000000000000000000000000000000000005c1d05cec17ebc46",
                    "logDecoded": true,
                    "operation": "EVENT",
                    "revert": false,
                    "status": true,
                    "topics": [
                        "0xddf252ad1be2c89b69c2b068fc378daa952ba7f163c4a11628f55a4df523b3ef",
                        "0x000000000000000000000000cbcd8b7bb8e024b8c238f30e6c70bce8be64dc94",
                        "0x00000000000000000000000075b8c48bdb04d426aed57b36bb835ad2dc321c30"
                    ]
                },
                "nodeType": 1
            },
            "3": {
                "invocation": {
                    "address": "0x298d492e8c1d909d3f63bc4a36c66c64acb3d695",
                    "callData": "0x00000000000000000000000075b8c48bdb04d426aed57b36bb835ad2dc321c30",
                    "decodedMethod": {
                        "callParams": [
                            {
                                "name": "account",
                                "type": "address",
                                "value": "0x75b8c48bdb04d426aed57b36bb835ad2dc321c30"
                            }
                        ],
                        "constructorArguments": "",
                        "name": "balanceOf",
                        "returnParams": [
                            {
                                "decimalAvailable": true,
                                "name": "",
                                "type": "uint256",
                                "value": "335,969,776,908,048,141,613,568"
                            }
                        ],
                        "signature": "balanceOf(address)"
                    },
                    "errorInfo": "",
                    "fromAddress": "0x75b8c48bdb04d426aed57b36bb835ad2dc321c30",
                    "gasUsed": 2519,
                    "id": 3,
                    "methodDecoded": true,
                    "operation": "STATICCALL",
                    "output": "0x000000000000000000000000000000000000000000004724f54615b3d5837a00",
                    "revert": false,
                    "revertMessage": "",
                    "selector": "0x70a08231",
                    "status": true,
                    "value": "0"
                },
                "nodeType": 0
            },
            "4": {
                "invocation": {
                    "address": "0xcb37b0027858796ce60ecce4b54c45afdff02aca",
                    "callData": "0x00000000000000000000000075b8c48bdb04d426aed57b36bb835ad2dc321c30",
                    "decodedMethod": {
                        "callParams": [
                            {
                                "name": "",
                                "type": "address",
                                "value": "0x75b8c48bdb04d426aed57b36bb835ad2dc321c30"
                            }
                        ],
                        "constructorArguments": "",
                        "name": "balanceOf",
                        "returnParams": [
                            {
                                "decimalAvailable": true,
                                "name": "",
                                "type": "uint256",
                                "value": "6,743,371,178,461,844,326,249"
                            }
                        ],
                        "signature": "balanceOf(address)"
                    },
                    "errorInfo": "",
                    "fromAddress": "0x75b8c48bdb04d426aed57b36bb835ad2dc321c30",
                    "gasUsed": 480,
                    "id": 4,
                    "methodDecoded": true,
                    "operation": "STATICCALL",
                    "output": "0x00000000000000000000000000000000000000000000016d8f1306e6397dc769",
                    "revert": false,
                    "revertMessage": "",
                    "selector": "0x70a08231",
                    "status": true,
                    "value": "0"
                },
                "nodeType": 0
            },
            "5": {
                "invocation": {
                    "address": "0x298d492e8c1d909d3f63bc4a36c66c64acb3d695",
                    "callData": "0x00000000000000000000000075b8c48bdb04d426aed57b36bb835ad2dc321c30",
                    "decodedMethod": {
                        "callParams": [
                            {
                                "name": "account",
                                "type": "address",
                                "value": "0x75b8c48bdb04d426aed57b36bb835ad2dc321c30"
                            }
                        ],
                        "constructorArguments": "",
                        "name": "balanceOf",
                        "returnParams": [
                            {
                                "decimalAvailable": true,
                                "name": "",
                                "type": "uint256",
                                "value": "335,969,776,908,048,141,613,568"
                            }
                        ],
                        "signature": "balanceOf(address)"
                    },
                    "errorInfo": "",
                    "fromAddress": "0x75b8c48bdb04d426aed57b36bb835ad2dc321c30",
                    "gasUsed": 519,
                    "id": 5,
                    "methodDecoded": true,
                    "operation": "STATICCALL",
                    "output": "0x000000000000000000000000000000000000000000004724f54615b3d5837a00",
                    "revert": false,
                    "revertMessage": "",
                    "selector": "0x70a08231",
                    "status": true,
                    "value": "0"
                },
                "nodeType": 0
            },
            "6": {
                "invocation": {
                    "address": "0xdaef1026b0c63eed3b2b86af396d724ddb9dcd18",
                    "callData": "0x00000000000000000000000075b8c48bdb04d426aed57b36bb835ad2dc321c30",
                    "decodedMethod": {
                        "callParams": [
                            {
                                "name": "",
                                "type": "address",
                                "value": "0x75b8c48bdb04d426aed57b36bb835ad2dc321c30"
                            }
                        ],
                        "constructorArguments": "",
                        "name": "balanceOf",
                        "returnParams": [
                            {
                                "decimalAvailable": true,
                                "name": "",
                                "type": "uint256",
                                "value": "37,660,450,069,305,431,812"
                            }
                        ],
                        "signature": "balanceOf(address)"
                    },
                    "errorInfo": "",
                    "fromAddress": "0x75b8c48bdb04d426aed57b36bb835ad2dc321c30",
                    "gasUsed": 2480,
                    "id": 6,
                    "methodDecoded": true,
                    "operation": "STATICCALL",
                    "output": "0x0000000000000000000000000000000000000000000000020aa4cbcdee491704",
                    "revert": false,
                    "revertMessage": "",
                    "selector": "0x70a08231",
                    "status": true,
                    "value": "0"
                },
                "nodeType": 0
            },
            "7": {
                "invocation": {
                    "address": "0x298d492e8c1d909d3f63bc4a36c66c64acb3d695",
                    "callData": "0x00000000000000000000000075b8c48bdb04d426aed57b36bb835ad2dc321c30",
                    "decodedMethod": {
                        "callParams": [
                            {
                                "name": "account",
                                "type": "address",
                                "value": "0x75b8c48bdb04d426aed57b36bb835ad2dc321c30"
                            }
                        ],
                        "constructorArguments": "",
                        "name": "balanceOf",
                        "returnParams": [
                            {
                                "decimalAvailable": true,
                                "name": "",
                                "type": "uint256",
                                "value": "335,969,776,908,048,141,613,568"
                            }
                        ],
                        "signature": "balanceOf(address)"
                    },
                    "errorInfo": "",
                    "fromAddress": "0x75b8c48bdb04d426aed57b36bb835ad2dc321c30",
                    "gasUsed": 519,
                    "id": 7,
                    "methodDecoded": true,
                    "operation": "STATICCALL",
                    "output": "0x000000000000000000000000000000000000000000004724f54615b3d5837a00",
                    "revert": false,
                    "revertMessage": "",
                    "selector": "0x70a08231",
                    "status": true,
                    "value": "0"
                },
                "nodeType": 0
            },
            "8": {
                "invocation": {
                    "address": "0x3041cbd36888becc7bbcbc0045e3b1f144466f5f",
                    "callData": "0x00000000000000000000000075b8c48bdb04d426aed57b36bb835ad2dc321c30",
                    "decodedMethod": {
                        "callParams": [
                            {
                                "name": "",
                                "type": "address",
                                "value": "0x75b8c48bdb04d426aed57b36bb835ad2dc321c30"
                            }
                        ],
                        "constructorArguments": "",
                        "name": "balanceOf",
                        "returnParams": [
                            {
                                "decimalAvailable": true,
                                "name": "",
                                "type": "uint256",
                                "value": "7,877,608,893"
                            }
                        ],
                        "signature": "balanceOf(address)"
                    },
                    "errorInfo": "",
                    "fromAddress": "0x75b8c48bdb04d426aed57b36bb835ad2dc321c30",
                    "gasUsed": 2480,
                    "id": 8,
                    "methodDecoded": true,
                    "operation": "STATICCALL",
                    "output": "0x00000000000000000000000000000000000000000000000000000001d58ac5bd",
                    "revert": false,
                    "revertMessage": "",
                    "selector": "0x70a08231",
                    "status": true,
                    "value": "0"
                },
                "nodeType": 0
            },
            "9": {
                "invocation": {
                    "address": "0xcb37b0027858796ce60ecce4b54c45afdff02aca",
                    "callData": "0x00000000000000000000000075b8c48bdb04d426aed57b36bb835ad2dc321c30",
                    "decodedMethod": {
                        "callParams": [
                            {
                                "name": "",
                                "type": "address",
                                "value": "0x75b8c48bdb04d426aed57b36bb835ad2dc321c30"
                            }
                        ],
                        "constructorArguments": "",
                        "name": "balanceOf",
                        "returnParams": [
                            {
                                "decimalAvailable": true,
                                "name": "",
                                "type": "uint256",
                                "value": "6,743,371,178,461,844,326,249"
                            }
                        ],
                        "signature": "balanceOf(address)"
                    },
                    "errorInfo": "",
                    "fromAddress": "0x75b8c48bdb04d426aed57b36bb835ad2dc321c30",
                    "gasUsed": 480,
                    "id": 9,
                    "methodDecoded": true,
                    "operation": "STATICCALL",
                    "output": "0x00000000000000000000000000000000000000000000016d8f1306e6397dc769",
                    "revert": false,
                    "revertMessage": "",
                    "selector": "0x70a08231",
                    "status": true,
                    "value": "0"
                },
                "nodeType": 0
            }
        },
        "gasFlame": [
            {
                "children": [
                    {
                        "children": [
                            {
                                "children": [],
                                "depth": 0,
                                "name": "Initial Gas",
                                "value": 21416
                            },
                            {
                                "children": [
                                    {
                                        "children": [],
                                        "depth": 1,
                                        "name": "transferFrom",
                                        "value": 18349
                                    },
                                    {
                                        "children": [],
                                        "depth": 1,
                                        "name": "balanceOf",
                                        "value": 2519
                                    },
                                    {
                                        "children": [],
                                        "depth": 1,
                                        "name": "balanceOf",
                                        "value": 480
                                    },
                                    {
                                        "children": [],
                                        "depth": 1,
                                        "name": "balanceOf",
                                        "value": 519
                                    },
                                    {
                                        "children": [],
                                        "depth": 1,
                                        "name": "balanceOf",
                                        "value": 2480
                                    },
                                    {
                                        "children": [],
                                        "depth": 1,
                                        "name": "balanceOf",
                                        "value": 519
                                    },
                                    {
                                        "children": [],
                                        "depth": 1,
                                        "name": "balanceOf",
                                        "value": 2480
                                    },
                                    {
                                        "children": [],
                                        "depth": 1,
                                        "name": "balanceOf",
                                        "value": 480
                                    },
                                    {
                                        "children": [],
                                        "depth": 1,
                                        "name": "balanceOf",
                                        "value": 519
                                    },
                                    {
                                        "children": [],
                                        "depth": 1,
                                        "name": "transfer",
                                        "value": 55019
                                    }
                                ],
                                "depth": 0,
                                "name": "Executed Gas",
                                "value": 226876
                            }
                        ],
                        "depth": -1,
                        "name": "Actual Gas Used",
                        "value": 243492
                    },
                    {
                        "children": [],
                        "depth": -1,
                        "name": "Refunded Gas",
                        "value": 4800
                    }
                ],
                "depth": -2,
                "name": "Total Gas",
                "value": 248292
            }
        ],
        "isConfirmed": true,
        "mainTrace": [
            {
                "children": [
                    {
                        "children": [
                            {
                                "children": [
                                    {
                                        "children": [],
                                        "depth": 2,
                                        "id": 2,
                                        "order": 2
                                    }
                                ],
                                "depth": 1,
                                "id": 1,
                                "order": 1
                            },
                            {
                                "children": [],
                                "depth": 1,
                                "id": 3,
                                "order": 3
                            },
                            {
                                "children": [],
                                "depth": 1,
                                "id": 4,
                                "order": 4
                            },
                            {
                                "children": [],
                                "depth": 1,
                                "id": 5,
                                "order": 5
                            },
                            {
                                "children": [],
                                "depth": 1,
                                "id": 6,
                                "order": 6
                            },
                            {
                                "children": [],
                                "depth": 1,
                                "id": 7,
                                "order": 7
                            },
                            {
                                "children": [],
                                "depth": 1,
                                "id": 8,
                                "order": 8
                            },
                            {
                                "children": [],
                                "depth": 1,
                                "id": 9,
                                "order": 9
                            },
                            {
                                "children": [],
                                "depth": 1,
                                "id": 10,
                                "order": 10
                            },
                            {
                                "children": [
                                    {
                                        "children": [],
                                        "depth": 2,
                                        "id": 12,
                                        "order": 12
                                    },
                                    {
                                        "children": [],
                                        "depth": 2,
                                        "id": 13,
                                        "order": 13
                                    },
                                    {
                                        "children": [],
                                        "depth": 2,
                                        "id": 14,
                                        "order": 14
                                    }
                                ],
                                "depth": 1,
                                "id": 11,
                                "order": 11
                            }
                        ],
                        "depth": 0,
                        "id": 0,
                        "order": 0
                    }
                ],
                "depth": -1,
                "id": -1,
                "order": -1
            }
        ],
        "mainTraceNodeCount": 15,
        "parentIdMap": {
            "0": -1,
            "1": 0,
            "10": 0,
            "11": 0,
            "12": 11,
            "13": 11,
            "14": 11,
            "2": 1,
            "3": 0,
            "4": 0,
            "5": 0,
            "6": 0,
            "7": 0,
            "8": 0,
            "9": 0
        },
        "tidyTrace": [
            {
                "children": [
                    {
                        "children": [
                            {
                                "children": [
                                    {
                                        "children": [],
                                        "depth": 2,
                                        "id": 2,
                                        "order": 2
                                    }
                                ],
                                "depth": 1,
                                "id": 1,
                                "order": 1
                            },
                            {
                                "children": [
                                    {
                                        "children": [],
                                        "depth": 2,
                                        "id": 12,
                                        "order": 12
                                    },
                                    {
                                        "children": [],
                                        "depth": 2,
                                        "id": 13,
                                        "order": 13
                                    },
                                    {
                                        "children": [],
                                        "depth": 2,
                                        "id": 14,
                                        "order": 14
                                    }
                                ],
                                "depth": 1,
                                "id": 11,
                                "order": 11
                            }
                        ],
                        "depth": 0,
                        "id": 0,
                        "order": 0
                    }
                ],
                "depth": -1,
                "id": -1,
                "order": -1
            }
        ],
        "tidyTraceNodeCount": 7
    },
    "state_change": {
        "stateChanges": [
            {
                "address": "0x298d492e8c1d909d3f63bc4a36c66c64acb3d695",
                "erc": "ERC-20",
                "slots": [
                    {
                        "current": "0x000000000000000000000000000000000000000000004724f374524c0a969500",
                        "key": "0x40a0b1e3c04f048f08b37631a4dc4f9c8a67461cfea8ea8a272ad82fa8319c83",
                        "prev": "0x000000000000000000000000000000000000000000004724f54615b3d5837a00"
                    },
                    {
                        "current": "0x000000000000000000000000000000000000000000471adfa6aa8d1c6cbc8806",
                        "key": "0x0000000000000000000000000000000000000000000000000000000000000003",
                        "prev": "0x000000000000000000000000000000000000000000471adfa6aac8ff8bf4532a"
                    },
                    {
                        "current": "0x00000000000000000000000000000000000000000000000001d18784abb519dc",
                        "key": "0x807286bd4a0b641f57a6c66aa0e0de4e2b17ef894ade4787749e01f66c943476",
                        "prev": "0x0000000000000000000000000000000000000000000000000000000000000000"
                    }
                ],
                "storageVariables": [
                    {
                        "name": "_balances",
                        "type": "mapping(address => uint256)",
                        "value": {
                            "pairs": [
                                {
                                    "key": "0x75b8c48bdb04d426aed57b36bb835ad2dc321c30",
                                    "value": {
                                        "current": "335969645807333417587968",
                                        "prev": "335969776908048141613568",
                                        "typeTag": 1
                                    }
                                },
                                {
                                    "key": "0xcbcd8b7bb8e024b8c238f30e6c70bce8be64dc94",
                                    "value": {
                                        "current": "131034868056660444",
                                        "prev": "0",
                                        "typeTag": 1
                                    }
                                }
                            ],
                            "typeTag": 4
                        }
                    },
                    {
                        "name": "_totalSupply",
                        "type": "uint256",
                        "value": {
                            "current": "85960640354688228969449478",
                            "prev": "85960640354754075636814634",
                            "typeTag": 1
                        }
                    }
                ]
            },
            {
                "address": "0x75b8c48bdb04d426aed57b36bb835ad2dc321c30",
                "erc": "",
                "slots": [
                    {
                        "current": "0x00000000000000000000000000000000000000000000016d8f1306e6397dc769",
                        "key": "0x8a35acfbc15ff81a39ae7d344fd709f28e8600b4aa8c65c6b64bfe7fe36bd1a1",
                        "prev": "0x00000000000000000000000000000000000000000000016d32f6011777ff0b23"
                    },
                    {
                        "current": "0x000000000000000000000000000000000000001505e88d14d4c96114010ad64f",
                        "key": "0x8a35acfbc15ff81a39ae7d344fd709f28e8600b4aa8c65c6b64bfe7fe36bd1ba",
                        "prev": "0x000000000000000000000000000000000000001505da82683b0765e0d111a596"
                    },
                    {
                        "current": "0x00000000000000000000000000000000000000000000007ea0436c368c1a59a8",
                        "key": "0x62508ddc1c9c781671815d4ca9cadac6f990fba341cf54c6ceef7a91095e72f9",
                        "prev": "0x00000000000000000000000000000000000000000000007e9e6f8dd2a8375064"
                    },
                    {
                        "current": "0x0000000000000000000000000000000000000000000000075fa376cadfa15e35",
                        "key": "0x8a35acfbc15ff81a39ae7d344fd709f28e8600b4aa8c65c6b64bfe7fe36bd1a2",
                        "prev": "0x0000000000000000000000000000000000000000000000075f9335dc92ab0fc7"
                    },
                    {
                        "current": "0x0000000000000000000000000000000000000000000000000000000000cb8b4e",
                        "key": "0x8a35acfbc15ff81a39ae7d344fd709f28e8600b4aa8c65c6b64bfe7fe36bd1a0",
                        "prev": "0x0000000000000000000000000000000000000000000000000000000000cb8b1f"
                    },
                    {
                        "current": "0x0000000000000000000000000000000000000000000000000000000000cb8b4e",
                        "key": "0x8a35acfbc15ff81a39ae7d344fd709f28e8600b4aa8c65c6b64bfe7fe36bd1b8",
                        "prev": "0x0000000000000000000000000000000000000000000000000000000000cb8b1f"
                    },
                    {
                        "current": "0x0000000000000000000000000000000000000000000000000000000000cb8b4e",
                        "key": "0x62508ddc1c9c781671815d4ca9cadac6f990fba341cf54c6ceef7a91095e72f8",
                        "prev": "0x0000000000000000000000000000000000000000000000000000000000cb8b1f"
                    },
                    {
                        "current": "0x000000000000000000000000000000000000000000000001eb9796f036f061b6",
                        "key": "0x62508ddc1c9c781671815d4ca9cadac6f990fba341cf54c6ceef7a91095e72f6",
                        "prev": "0x0000000000000000000000000000000000000000000000018f7a91217571a570"
                    },
                    {
                        "current": "0x000000000000000000000000000000000000000000007edfe42773402dc0d3c5",
                        "key": "0x8a35acfbc15ff81a39ae7d344fd709f28e8600b4aa8c65c6b64bfe7fe36bd1a5",
                        "prev": "0x000000000000000000000000000000000000000000007edfe25394dc49ddca81"
                    },
                    {
                        "current": "0x0000000000000000000000000000000000000000000045e31f3d460af0cf4538",
                        "key": "0x8a35acfbc15ff81a39ae7d344fd709f28e8600b4aa8c65c6b64bfe7fe36bd19f",
                        "prev": "0x0000000000000000000000000000000000000000000045e17558b93a6d39750c"
                    },
                    {
                        "current": "0x000000000000000000000000000000000000000000000004c57e00a9269201da",
                        "key": "0x8a35acfbc15ff81a39ae7d344fd709f28e8600b4aa8c65c6b64bfe7fe36bd1ae",
                        "prev": "0x000000000000000000000000000000000000000000000004c570c96dee24e127"
                    },
                    {
                        "current": "0x00000000000000000000000000000000000000000000010531b866bdfcf8a88f",
                        "key": "0x62508ddc1c9c781671815d4ca9cadac6f990fba341cf54c6ceef7a91095e72f7",
                        "prev": "0x0000000000000000000000000000000000000000000000d43ec0b1dd8ee277c5"
                    },
                    {
                        "current": "0x0000000000000000000000000000000000000000000000000000000000cb8b4e",
                        "key": "0x8a35acfbc15ff81a39ae7d344fd709f28e8600b4aa8c65c6b64bfe7fe36bd1ac",
                        "prev": "0x0000000000000000000000000000000000000000000000000000000000cb8b1f"
                    },
                    {
                        "current": "0x0000000000000000000000000000000000000000000000b031dd424a7f5a6d07",
                        "key": "0x8a35acfbc15ff81a39ae7d344fd709f28e8600b4aa8c65c6b64bfe7fe36bd1ab",
                        "prev": "0x0000000000000000000000000000000000000000000000b02feb8c46c4b37a01"
                    },
                    {
                        "current": "0x0000000000000000000000000000000000000000000000917b5ed7241e1e59da",
                        "key": "0x8a35acfbc15ff81a39ae7d344fd709f28e8600b4aa8c65c6b64bfe7fe36bd1b7",
                        "prev": "0x0000000000000000000000000000000000000000000000917983c0ac31c4cef7"
                    }
                ],
                "storageVariables": [
                    {
                        "name": "userInfo",
                        "type": "mapping(uint256 => mapping(address => struct PolkaBridgeMasterFarm.UserInfo))",
                        "value": {
                            "pairs": [
                                {
                                    "key": "0",
                                    "value": {
                                        "pairs": [
                                            {
                                                "key": "0xcbcd8b7bb8e024b8c238f30e6c70bce8be64dc94",
                                                "value": {
                                                    "fields": [
                                                        {
                                                            "name": "amountLP",
                                                            "type": "uint256",
                                                            "value": {
                                                                "current": "35422947352563966390",
                                                                "prev": "28785479541182276976",
                                                                "typeTag": 1
                                                            }
                                                        },
                                                        {
                                                            "name": "rewardDebt",
                                                            "type": "uint256",
                                                            "value": {
                                                                "current": "4818182929707945207951",
                                                                "prev": "3915231553217448015813",
                                                                "typeTag": 1
                                                            }
                                                        },
                                                        {
                                                            "name": "rewardDebtAtBlock",
                                                            "type": "uint256",
                                                            "value": {
                                                                "current": "13339470",
                                                                "prev": "13339423",
                                                                "typeTag": 1
                                                            }
                                                        },
                                                        {
                                                            "name": "rewardClaimed",
                                                            "type": "uint256",
                                                            "value": {
                                                                "current": "2335837946138446158248",
                                                                "prev": "2335706252803715846244",
                                                                "typeTag": 1
                                                            }
                                                        }
                                                    ],
                                                    "typeTag": 3
                                                }
                                            }
                                        ],
                                        "typeTag": 4
                                    }
                                }
                            ],
                            "typeTag": 4
                        }
                    },
                    {
                        "name": "poolInfo",
                        "type": "struct PolkaBridgeMasterFarm.PoolInfo[]",
                        "value": {
                            "elemType": "struct PolkaBridgeMasterFarm.PoolInfo",
                            "elems": [
                                {
                                    "index": 0,
                                    "value": {
                                        "fields": [
                                            {
                                                "name": "lastPoolReward",
                                                "type": "uint256",
                                                "value": {
                                                    "current": "330032949255139146810680",
                                                    "prev": "330002260446551148688652",
                                                    "typeTag": 1
                                                }
                                            },
                                            {
                                                "name": "lastRewardBlock",
                                                "type": "uint256",
                                                "value": {
                                                    "current": "13339470",
                                                    "prev": "13339423",
                                                    "typeTag": 1
                                                }
                                            },
                                            {
                                                "name": "lastLPBalance",
                                                "type": "uint256",
                                                "value": {
                                                    "current": "6743371178461844326249",
                                                    "prev": "6736733710650462636835",
                                                    "typeTag": 1
                                                }
                                            },
                                            {
                                                "name": "accPBRPerShare",
                                                "type": "uint256",
                                                "value": {
                                                    "current": "136018690984481218101",
                                                    "prev": "136014115992616243143",
                                                    "typeTag": 1
                                                }
                                            },
                                            {
                                                "name": "totalRewardClaimed",
                                                "type": "uint256",
                                                "value": {
                                                    "current": "599148241005696748934085",
                                                    "prev": "599148109312362018622081",
                                                    "typeTag": 1
                                                }
                                            }
                                        ],
                                        "typeTag": 3
                                    }
                                },
                                {
                                    "index": 1,
                                    "value": {
                                        "fields": [
                                            {
                                                "name": "lastPoolReward",
                                                "type": "uint256",
                                                "value": {
                                                    "current": "3250220057938324253959",
                                                    "prev": "3250079964747766397441",
                                                    "typeTag": 1
                                                }
                                            },
                                            {
                                                "name": "lastRewardBlock",
                                                "type": "uint256",
                                                "value": {
                                                    "current": "13339470",
                                                    "prev": "13339423",
                                                    "typeTag": 1
                                                }
                                            },
                                            {
                                                "name": "accPBRPerShare",
                                                "type": "uint256",
                                                "value": {
                                                    "current": "88017788893872128474",
                                                    "prev": "88014068991685615911",
                                                    "typeTag": 1
                                                }
                                            }
                                        ],
                                        "typeTag": 3
                                    }
                                },
                                {
                                    "index": 2,
                                    "value": {
                                        "fields": [
                                            {
                                                "name": "lastPoolReward",
                                                "type": "uint256",
                                                "value": {
                                                    "current": "2683667669952485022170",
                                                    "prev": "2683533944634225250039",
                                                    "typeTag": 1
                                                }
                                            },
                                            {
                                                "name": "lastRewardBlock",
                                                "type": "uint256",
                                                "value": {
                                                    "current": "13339470",
                                                    "prev": "13339423",
                                                    "typeTag": 1
                                                }
                                            },
                                            {
                                                "name": "accPBRPerShare",
                                                "type": "uint256",
                                                "value": {
                                                    "current": "1665619974876750268015649150543",
                                                    "prev": "1665602999507691441077133354390",
                                                    "typeTag": 1
                                                }
                                            }
                                        ],
                                        "typeTag": 3
                                    }
                                }
                            ],
                            "typeTag": 2
                        }
                    }
                ]
            },
            {
                "address": "0xcb37b0027858796ce60ecce4b54c45afdff02aca",
                "erc": "ERC-20",
                "slots": [
                    {
                        "current": "0x00000000000000000000000000000002f050fe9246259d14065ba7c5290f9e4a",
                        "key": "0x10e0d22a5023522a60bccdd5a450777d779151bfab1fb75f2daa58890ba5f4a3",
                        "prev": "0x00000000000000000000000000000002f050fe9246259d146278ad93ea8e5a90"
                    },
                    {
                        "current": "0x0000000000000000000000000000000000000000000000000000000000000000",
                        "key": "0x1bd973e058b61d02f46a4814f94df50253da36521f0c9419e7f8f678458aab0e",
                        "prev": "0x0000000000000000000000000000000000000000000000005c1d05cec17ebc46"
                    },
                    {
                        "current": "0x00000000000000000000000000000000000000000000016d8f1306e6397dc769",
                        "key": "0xc8e951bffd6dc529a1c94222d2d92d86f059f625734b0a3798804e491f9dc9b8",
                        "prev": "0x00000000000000000000000000000000000000000000016d32f6011777ff0b23"
                    }
                ],
                "storageVariables": [
                    {
                        "name": "balanceOf",
                        "type": "mapping(address => uint256)",
                        "value": {
                            "pairs": [
                                {
                                    "key": "0x75b8c48bdb04d426aed57b36bb835ad2dc321c30",
                                    "value": {
                                        "current": "6743371178461844326249",
                                        "prev": "6736733710650462636835",
                                        "typeTag": 1
                                    }
                                },
                                {
                                    "key": "0xcbcd8b7bb8e024b8c238f30e6c70bce8be64dc94",
                                    "value": {
                                        "current": "0",
                                        "prev": "6637467811381689414",
                                        "typeTag": 1
                                    }
                                }
                            ],
                            "typeTag": 4
                        }
                    },
                    {
                        "name": "allowance",
                        "type": "mapping(address => mapping(address => uint256))",
                        "value": {
                            "pairs": [
                                {
                                    "key": "0xcbcd8b7bb8e024b8c238f30e6c70bce8be64dc94",
                                    "value": {
                                        "pairs": [
                                            {
                                                "key": "0x75b8c48bdb04d426aed57b36bb835ad2dc321c30",
                                                "value": {
                                                    "current": "999999999899999999964577052647436033610",
                                                    "prev": "999999999899999999971214520458817723024",
                                                    "typeTag": 1
                                                }
                                            }
                                        ],
                                        "typeTag": 4
                                    }
                                }
                            ],
                            "typeTag": 4
                        }
                    }
                ]
            }
        ]
    }
}