{
    "balance_change": {
        "balanceChanges": [
            {
                "account": "0x8a91c9a16cd62693649d80afa85a09dbbdcb8508",
                "assets": [
                    {
                        "address": "0x8e870d67f660d95d5be530380d0ec0bd388289e1",
                        "amount": "50",
                        "iconUrl": "https://assets.blocksec.com/icon/df4a16322c8ca2faeeb21a6d029f24de2efeb58e57edadd9ecbfa6a35afa986d.png",
                        "isERC1155": false,
                        "isERC721": false,
                        "sign": true,
                        "value": ""
                    }
                ]
            },
            {
                "account": "0x045ff712c85456c5651503477db6640158af1829",
                "assets": [
                    {
                        "address": "0x8e870d67f660d95d5be530380d0ec0bd388289e1",
                        "amount": "50",
                        "iconUrl": "https://assets.blocksec.com/icon/df4a16322c8ca2faeeb21a6d029f24de2efeb58e57edadd9ecbfa6a35afa986d.png",
                        "isERC1155": false,
                        "isERC721": false,
                        "sign": false,
                        "value": ""
                    }
                ]
            }
        ]
    },
    "profile": {
        "basic_info": {
            "baseFee": "",
            "blockNumber": 9960093,
            "callData": "0xae8123ba00000000000000000000000000000000000000000000000000000004c67452c4",
            "debugEnable": true,
            "errorInfo": "",
            "eventCount": 3,
            "feeRecipient": "0x52bc44d5378309ee2abf1539bf71de1b7d7be3b5",
            "formatValue": "0",
            "gasLimit": 478354,
            "gasPrice": "5.500000144",
            "gasUsed": 269735,
            "intTxnCount": 5,
            "internalRevert": false,
            "internalRevertMessage": "",
            "isContractCreation": false,
            "isFlashloan": false,
            "maxFee": "",
            "nonce": 337439,
            "overwritedBlockNumber": -1,
            "priorityFee": "",
            "receiver": "0x8a91c9a16cd62693649d80afa85a09dbbdcb8508",
            "revertMessage": "",
            "sender": "0xbe65072aae7ca8d43615d4caaeed8764f5208e61",
            "simulationEnable": true,
            "sourceTxnHash": "0x1e8d653098f1353eadc5dd003c692f47018ba389044fc0c644f3a59c523cc2c6",
            "status": true,
            "timestamp": "2020-04-28T09:14:37Z",
            "transactionFee": "0.00148354253884184",
            "txnHash": "0x1e8d653098f1353eadc5dd003c692f47018ba389044fc0c644f3a59c523cc2c6",
            "txnIndex": 30,
            "type": 0,
            "value": "0"
        },
        "fund_flow": [
            {
                "amount": "50",
                "from": "0x045ff712c85456c5651503477db6640158af1829",
                "id": 1,
                "isERC1155": false,
                "isERC721": false,
                "isReverted": false,
                "order": 1,
                "to": "0x8a91c9a16cd62693649d80afa85a09dbbdcb8508",
                "token": "0x8e870d67f660d95d5be530380d0ec0bd388289e1"
            }
        ],
        "token_infos": [
            {
                "address": "0x8e870d67f660d95d5be530380d0ec0bd388289e1",
                "decimals": 18
            },
            {
                "address": "0xc02aaa39b223fe8d0a0e5c4f27ead9083c756cc2",
                "decimals": 18
            },
            {
                "address": "0xeeeeeeeeeeeeeeeeeeeeeeeeeeeeeeeeeeeeeeee",
                "decimals": 18
            }
        ]
    },
    "address_label": {
        "labels": [
            {
                "address": "0x0000000000000000000000000000000000000003",
                "label": "Precompiled"
            },
            {
                "address": "0x0000000000000000000000000000000000000004",
                "label": "Precompiled"
            },
            {
                "address": "0xeeeeeeeeeeeeeeeeeeeeeeeeeeeeeeeeeeeeeeee",
                "label": "Ether"
            },
            {
                "address": "0x8a91c9a16cd62693649d80afa85a09dbbdcb8508",
                "label": "MMM BSC"
            },
            {
                "address": "0x8e870d67f660d95d5be530380d0ec0bd388289e1",
                "label": "Paxos: USDP Token"
            },
            {
                "address": "0x86eee0422322710866af89e9cae3f7383d55310a",
                "label": "Paxos Standard (PAX)"
            },
            {
                "address": "0x0000000000000000000000000000000000000001",
                "label": "Precompiled"
            },
            {
                "address": "0x0000000000000000000000000000000000000002",
                "label": "Precompiled"
            }
        ]
    },
    "trace": {
        "accountLabels": null,
        "dataMap": {
            "-1": {
                "invocation": {
                    "address": "0xbe65072aae7ca8d43615d4caaeed8764f5208e61",
                    "callData": "",
                    "decodedMethod": null,
                    "errorInfo": "",
                    "fromAddress": "",
                    "gasUsed": 0,
                    "id": -1,
                    "methodDecoded": false,
                    "operation": "",
                    "output": "",
                    "revert": false,
                    "revertMessage": "",
                    "selector": "",
                    "status": false,
                    "value": ""
                },
                "nodeType": 0
            },
            "0": {
                "invocation": {
                    "address": "0x8a91c9a16cd62693649d80afa85a09dbbdcb8508",
                    "callData": "0x00000000000000000000000000000000000000000000000000000004c67452c4",
                    "decodedMethod": null,
                    "errorInfo": "",
                    "fromAddress": "0xbe65072aae7ca8d43615d4caaeed8764f5208e61",
                    "gasUsed": 269735,
                    "id": 0,
                    "methodDecoded": false,
                    "operation": "CALL",
                    "output": "",
                    "revert": false,
                    "revertMessage": "",
                    "selector": "0xae8123ba",
                    "status": true,
                    "value": "0"
                },
                "nodeType": 0
            },
            "1": {
                "invocation": {
                    "address": "0x8e870d67f660d95d5be530380d0ec0bd388289e1",
                    "callData": "0x000000000000000000000000045ff712c85456c5651503477db6640158af1829",
                    "decodedMethod": {
                        "callParams": [
                            {
                                "name": "_addr",
                                "type": "address",
                                "value": "0x045ff712c85456c5651503477db6640158af1829"
                            }
                        ],
                        "constructorArguments": "",
                        "name": "balanceOf",
                        "returnParams": [
                            {
                                "decimalAvailable": true,
                                "name": "",
                                "type": "uint256",
                                "value": "50,000,000,000,000,000,000"
                            }
                        ],
                        "signature": "balanceOf(address)"
                    },
                    "errorInfo": "",
                    "fromAddress": "0x8a91c9a16cd62693649d80afa85a09dbbdcb8508",
                    "gasUsed": 4337,
                    "id": 1,
                    "methodDecoded": true,
                    "operation": "CALL",
                    "output": "0x000000000000000000000000000000000000000000000002b5e3af16b1880000",
                    "revert": false,
                    "revertMessage": "",
                    "selector": "0x70a08231",
                    "status": true,
                    "value": "0"
                },
                "nodeType": 0
            },
            "2": {
                "invocation": {
                    "address": "0x86eee0422322710866af89e9cae3f7383d55310a",
                    "callData": "0x000000000000000000000000045ff712c85456c5651503477db6640158af1829",
                    "decodedMethod": {
                        "callParams": [
                            {
                                "name": "_addr",
                                "type": "address",
                                "value": "0x045ff712c85456c5651503477db6640158af1829"
                            }
                        ],
                        "constructorArguments": "",
                        "name": "balanceOf",
                        "returnParams": [
                            {
                                "decimalAvailable": true,
                                "name": "",
                                "type": "uint256",
                                "value": "50,000,000,000,000,000,000"
                            }
                        ],
                        "signature": "balanceOf(address)"
                    },
                    "errorInfo": "",
                    "fromAddress": "0x8e870d67f660d95d5be530380d0ec0bd388289e1",
                    "gasUsed": 1558,
                    "id": 2,
                    "methodDecoded": true,
                    "operation": "DELEGATECALL",
                    "output": "0x000000000000000000000000000000000000000000000002b5e3af16b1880000",
                    "revert": false,
                    "revertMessage": "",
                    "selector": "0x70a08231",
                    "status": true,
                    "value": "0"
                },
                "nodeType": 0
            },
            "3": {
                "invocation": {
                    "address": "0x8e870d67f660d95d5be530380d0ec0bd388289e1",
                    "callData": "0x000000000000000000000000045ff712c85456c5651503477db6640158af18290000000000000000000000008a91c9a16cd62693649d80afa85a09dbbdcb8508000000000000000000000000000000000000000000000002b5e3af16b1880000",
                    "decodedMethod": {
                        "callParams": [
                            {
                                "name": "_from",
                                "type": "address",
                                "value": "0x045ff712c85456c5651503477db6640158af1829"
                            },
                            {
                                "name": "_to",
                                "type": "address",
                                "value": "0x8a91c9a16cd62693649d80afa85a09dbbdcb8508"
                            },
                            {
                                "decimalAvailable": true,
                                "name": "_value",
                                "type": "uint256",
                                "value": "50,000,000,000,000,000,000"
                            }
                        ],
                        "constructorArguments": "",
                        "name": "transferFrom",
                        "returnParams": [
                            {
                                "name": "",
                                "type": "bool",
                                "value": true
                            }
                        ],
                        "signature": "transferFrom(address,address,uint256)"
                    },
                    "errorInfo": "",
                    "fromAddress": "0x8a91c9a16cd62693649d80afa85a09dbbdcb8508",
                    "gasUsed": 29542,
                    "id": 3,
                    "methodDecoded": true,
                    "operation": "CALL",
                    "output": "0x0000000000000000000000000000000000000000000000000000000000000001",
                    "revert": false,
                    "revertMessage": "",
                    "selector": "0x23b872dd",
                    "status": true,
                    "value": "0"
                },
                "nodeType": 0
            },
            "4": {
                "invocation": {
                    "address": "0x86eee0422322710866af89e9cae3f7383d55310a",
                    "callData": "0x000000000000000000000000045ff712c85456c5651503477db6640158af18290000000000000000000000008a91c9a16cd62693649d80afa85a09dbbdcb8508000000000000000000000000000000000000000000000002b5e3af16b1880000",
                    "decodedMethod": {
                        "callParams": [
                            {
                                "name": "_from",
                                "type": "address",
                                "value": "0x045ff712c85456c5651503477db6640158af1829"
                            },
                            {
                                "name": "_to",
                                "type": "address",
                                "value": "0x8a91c9a16cd62693649d80afa85a09dbbdcb8508"
                            },
                            {
                                "decimalAvailable": true,
                                "name": "_value",
                                "type": "uint256",
                                "value": "50,000,000,000,000,000,000"
                            }
                        ],
                        "constructorArguments": "",
                        "name": "transferFrom",
                        "returnParams": [
                            {
                                "name": "",
                                "type": "bool",
                                "value": true
                            }
                        ],
                        "signature": "transferFrom(address,address,uint256)"
                    },
                    "errorInfo": "",
                    "fromAddress": "0x8e870d67f660d95d5be530380d0ec0bd388289e1",
                    "gasUsed": 26754,
                    "id": 4,
                    "methodDecoded": true,
                    "operation": "DELEGATECALL",
                    "output": "0x0000000000000000000000000000000000000000000000000000000000000001",
                    "revert": false,
                    "revertMessage": "",
                    "selector": "0x23b872dd",
                    "status": true,
                    "value": "0"
                },
                "nodeType": 0
            },
            "5": {
                "event": {
                    "contract": "0x8e870d67f660d95d5be530380d0ec0bd388289e1",
                    "decodedLog": {
                        "name": "Transfer",
                        "params": [
                            {
                                "name": "from",
                                "type": "address",
                                "value": "0x045ff712c85456c5651503477db6640158af1829"
                            },
                            {
                                "name": "to",
                                "type": "address",
                                "value": "0x8a91c9a16cd62693649d80afa85a09dbbdcb8508"
                            },
                            {
                                "decimalAvailable": true,
                                "name": "value",
                                "type": "uint256",
                                "value": "50,000,000,000,000,000,000"
                            }
                        ],
                        "signature": "Transfer(address,address,uint256)"
                    },
                    "id": 5,
                    "logData": "0x000000000000000000000000000000000000000000000002b5e3af16b1880000",
                    "logDecoded": true,
                    "operation": "EVENT",
                    "revert": false,
                    "status": true,
                    "topics": [
                        "0xddf252ad1be2c89b69c2b068fc378daa952ba7f163c4a11628f55a4df523b3ef",
                        "0x000000000000000000000000045ff712c85456c5651503477db6640158af1829",
                        "0x0000000000000000000000008a91c9a16cd62693649d80afa85a09dbbdcb8508"
                    ]
                },
                "nodeType": 1
            },
            "6": {
                "event": {
                    "contract": "0x8a91c9a16cd62693649d80afa85a09dbbdcb8508",
                    "decodedLog": null,
                    "id": 6,
                    "logData": "0x00000000000000000000000000000000000000000000000000000000000000010000000000000000000000004c423d95777535454ba618ee164759a2d8895bcd000000000000000000000000000000000000000000000000000000000000000200000000000000000000000000000000000000000000000000000004c67452c4000000000000000000000000000000000000000000000002b5e3af16b1880000000000000000000000000000000000000000000000000000000000005ea7f3fd",
                    "logDecoded": false,
                    "operation": "EVENT",
                    "revert": false,
                    "status": true,
                    "topics": [
                        "0x3be1a4b332d68eecc10d6ef2956ae149fa02f86910a3591609219ea1adbdd94f"
                    ]
                },
                "nodeType": 1
            },
            "7": {
                "event": {
                    "contract": "0x8a91c9a16cd62693649d80afa85a09dbbdcb8508",
                    "decodedLog": null,
                    "id": 7,
                    "logData": "0x00000000000000000000000000000000000000000000000000000000000000010000000000000000000000004c423d95777535454ba618ee164759a2d8895bcd000000000000000000000000000000000000000000000002b5e3af16b188000000000000000000000000000000000000000000000000000000000004c67452c4000000000000000000000000045ff712c85456c5651503477db6640158af1829000000000000000000000000000000000000000000000000000000005ea7f3fd000000000000000000000000000000000000000000000002b5e3af16b1880000",
                    "logDecoded": false,
                    "operation": "EVENT",
                    "revert": false,
                    "status": true,
                    "topics": [
                        "0x06643dfdd56984ca5faeeeb2c91ee2b0b2e5098540d72d659dbe01a8f52a3a1d"
                    ]
                },
                "nodeType": 1
            },
            "8": {
                "invocation": {
                    "address": "0x1149cd70ae511fc600fb7143ac2f037ac5a4c748",
                    "callData": "0x00000000000000000000000000000000000000000000000000000004c67452c40000000000000000000000004c423d95777535454ba618ee164759a2d8895bcd0000000000000000000000000000000000000000000000056bc75e2d6310000000000000000000000000000000000000000000000000000000000000000000010000000000000000000000000000000000000000000000000000000000000000",
                    "decodedMethod": null,
                    "errorInfo": "",
                    "fromAddress": "0x8a91c9a16cd62693649d80afa85a09dbbdcb8508",
                    "gasUsed": 73845,
                    "id": 8,
                    "methodDecoded": false,
                    "operation": "CALL",
                    "output": "",
                    "revert": false,
                    "revertMessage": "",
                    "selector": "0xf1cdf662",
                    "status": true,
                    "value": "0"
                },
                "nodeType": 0
            }
        },
        "gasFlame": [
            {
                "children": [
                    {
                        "children": [
                            {
                                "children": [],
                                "depth": 0,
                                "name": "Initial Gas",
                                "value": 21252
                            },
                            {
                                "children": [
                                    {
                                        "children": [
                                            {
                                                "children": [],
                                                "depth": 2,
                                                "name": "balanceOf",
                                                "value": 1558
                                            }
                                        ],
                                        "depth": 1,
                                        "name": "balanceOf",
                                        "value": 4337
                                    },
                                    {
                                        "children": [
                                            {
                                                "children": [],
                                                "depth": 2,
                                                "name": "transferFrom",
                                                "value": 26754
                                            }
                                        ],
                                        "depth": 1,
                                        "name": "transferFrom",
                                        "value": 29542
                                    },
                                    {
                                        "children": [],
                                        "depth": 1,
                                        "name": "0xf1cdf662",
                                        "value": 73845
                                    }
                                ],
                                "depth": 0,
                                "name": "Executed Gas",
                                "value": 263483
                            }
                        ],
                        "depth": -1,
                        "name": "Actual Gas Used",
                        "value": 269735
                    },
                    {
                        "children": [],
                        "depth": -1,
                        "name": "Refunded Gas",
                        "value": 15000
                    }
                ],
                "depth": -2,
                "name": "Total Gas",
                "value": 284735
            }
        ],
        "isConfirmed": true,
        "mainTrace": [
            {
                "children": [
                    {
                        "children": [
                            {
                                "children": [
                                    {
                                        "children": [],
                                        "depth": 2,
                                        "id": 2,
                                        "order": 2
                                    }
                                ],
                                "depth": 1,
                                "id": 1,
                                "order": 1
                            },
                            {
                                "children": [
                                    {
                                        "children": [
                                            {
                                                "children": [],
                                                "depth": 3,
                                                "id": 5,
                                                "order": 5
                                            }
                                        ],
                                        "depth": 2,
                                        "id": 4,
                                        "order": 4
                                    }
                                ],
                                "depth": 1,
                                "id": 3,
                                "order": 3
                            },
                            {
                                "children": [],
                                "depth": 1,
                                "id": 6,
                                "order": 6
                            },
                            {
                                "children": [],
                                "depth": 1,
                                "id": 7,
                                "order": 7
                            },
                            {
                                "children": [],
                                "depth": 1,
                                "id": 8,
                                "order": 8
                            }
                        ],
                        "depth": 0,
                        "id": 0,
                        "order": 0
                    }
                ],
                "depth": -1,
                "id": -1,
                "order": -1
            }
        ],
        "mainTraceNodeCount": 9,
        "parentIdMap": {
            "0": -1,
            "1": 0,
            "2": 1,
            "3": 0,
            "4": 3,
            "5": 4,
            "6": 0,
            "7": 0,
            "8": 0
        },
        "tidyTrace": [
            {
                "children": [
                    {
                        "children": [
                            {
                                "children": [
                                    {
                                        "children": [],
                                        "depth": 2,
                                        "id": 2,
                                        "order": 2
                                    }
                                ],
                                "depth": 1,
                                "id": 1,
                                "order": 1
                            },
                            {
                                "children": [
                                    {
                                        "children": [
                                            {
                                                "children": [],
                                                "depth": 3,
                                                "id": 5,
                                                "order": 5
                                            }
                                        ],
                                        "depth": 2,
                                        "id": 4,
                                        "order": 4
                                    }
                                ],
                                "depth": 1,
                                "id": 3,
                                "order": 3
                            },
                            {
                                "children": [],
                                "depth": 1,
                                "id": 6,
                                "order": 6
                            },
                            {
                                "children": [],
                                "depth": 1,
                                "id": 7,
                                "order": 7
                            },
                            {
                                "children": [],
                                "depth": 1,
                                "id": 8,
                                "order": 8
                            }
                        ],
                        "depth": 0,
                        "id": 0,
                        "order": 0
                    }
                ],
                "depth": -1,
                "id": -1,
                "order": -1
            }
        ],
        "tidyTraceNodeCount": 9
    },
    "state_change": {
        "stateChanges": [
            {
                "address": "0x1149cd70ae511fc600fb7143ac2f037ac5a4c748",
                "erc": "",
                "slots": [
                    {
                        "current": "0x0000000000000000000000000000000000000000000000000000000000000004",
                        "key": "0x50c014032304cb933409708f2fc4b246b5797ae784f955f8f40988d39130871b",
                        "prev": "0x0000000000000000000000000000000000000000000000000000000000000003"
                    },
                    {
                        "current": "0x00000000000000000000000000000000000000000000000000000004c67452c4",
                        "key": "0x130aa8233fa6bfd350e80f7826012860e1e25881d260bc453c81f0dfcd7e831d",
                        "prev": "0x0000000000000000000000000000000000000000000000000000000000000000"
                    },
                    {
                        "current": "0x0000000000000000000000004c423d95777535454ba618ee164759a2d8895bcd",
                        "key": "0x85d33d23aa50c38c1931df5b68a7430cdf3ee36c27b043737af8c1d84e0f4f31",
                        "prev": "0x0000000000000000000000000000000000000000000000000000000000000000"
                    },
                    {
                        "current": "0x0000000000000000000000000000000000000000000000056bc75e2d63100000",
                        "key": "0x85d33d23aa50c38c1931df5b68a7430cdf3ee36c27b043737af8c1d84e0f4f32",
                        "prev": "0x0000000000000000000000000000000000000000000000000000000000000000"
                    }
                ],
                "storageVariables": []
            },
            {
                "address": "0x8a91c9a16cd62693649d80afa85a09dbbdcb8508",
                "erc": "",
                "slots": [
                    {
                        "current": "0x00000000000000000000000000000000000000000000000000000004c67452c4",
                        "key": "0x1b6847dc741a1b0cd08d278845f9d819d87b734759afb55fe2de5cb82a9bc3d2",
                        "prev": "0x0000000000000000000000000000000000000000000000000000000000000000"
                    },
                    {
                        "current": "0x00000000000000000000000000000000000000000000000000000004c67452c4",
                        "key": "0xed65b032d5a5fa3a5b6544566ee46a0f6b8fe8b1375ec878dc3be6580b0a0846",
                        "prev": "0x0000000000000000000000000000000000000000000000000000000000000000"
                    },
                    {
                        "current": "0x000000000000000000000000000000000000000000000000000000005ea7f3fd",
                        "key": "0x39f199200330e78cd3aabff8c25bbc0e5a782802a801a43d54c71b81b22f548b",
                        "prev": "0x0000000000000000000000000000000000000000000000000000000000000000"
                    },
                    {
                        "current": "0x00000000000000000000000000000000000000000000000ad78ebc5ac6200000",
                        "key": "0xc32d32a62a4c10f2032031c0f25c92407e811e3aea526f8f2f1a1c9b2d6c8d8e",
                        "prev": "0x0000000000000000000000000000000000000000000000056bc75e2d63100000"
                    },
                    {
                        "current": "0x000000000000000000000000000000000000000000000002b5e3af16b1880000",
                        "key": "0x39f199200330e78cd3aabff8c25bbc0e5a782802a801a43d54c71b81b22f5489",
                        "prev": "0x0000000000000000000000000000000000000000000000000000000000000000"
                    },
                    {
                        "current": "0x000000000000000000000000000000000000000000000000000000000000dd61",
                        "key": "0x0000000000000000000000000000000000000000000000000000000000000010",
                        "prev": "0x000000000000000000000000000000000000000000000000000000000000dd60"
                    },
                    {
                        "current": "0x0000000000000000000000000000000000000000000163edfa14bcfdb0380000",
                        "key": "0x0000000000000000000000000000000000000000000000000000000000000015",
                        "prev": "0x0000000000000000000000000000000000000000000163eb44310de6feb00000"
                    },
                    {
                        "current": "0x0000000000000000000000000000000000000000000000000000000000000004",
                        "key": "0x60035ef9feaf64776abea140c723e97d2e345c98b0277abe5ff452f0f733e1eb",
                        "prev": "0x0000000000000000000000000000000000000000000000000000000000000003"
                    },
                    {
                        "current": "0x00000000000000000000000000000000000000000000000000000000000283b2",
                        "key": "0xbbc70db1b6c7afd11e79c0fb0051300458f1a3acb8ee9789d9b6b26c61ad9bc7",
                        "prev": "0x00000000000000000000000000000000000000000000000000000000000283b1"
                    }
                ],
                "storageVariables": []
            },
            {
                "address": "0x8e870d67f660d95d5be530380d0ec0bd388289e1",
                "erc": "ERC-20",
                "slots": [
                    {
                        "current": "0x0000000000000000000000000000000000000000000000000000000000000000",
                        "key": "0x705fab19abdbe3726531b348c2e2628276a834709c21f64dee739d65efad831d",
                        "prev": "0x000000000000000000000000000000000000000000000002b5e3af16b1880000"
                    },
                    {
                        "current": "0x00000000000000000000000000000000000000000005aa389dded5cbd7decb60",
                        "key": "0xc41369a8315e4f894b3fc477f2c97907ac449c5925ec3e23848005e7123f385a",
                        "prev": "0x00000000000000000000000000000000000000000005aa35e7fb26b52656cb60"
                    },
                    {
                        "current": "0xfffffffffffffffffffffffffffffffffffffffffffffffd4a1c50e94e77ffff",
                        "key": "0x699bdd24862e13e6ca0225e7f8959fd71130663361c8b9898494819fcefb4cd1",
                        "prev": "0xffffffffffffffffffffffffffffffffffffffffffffffffffffffffffffffff"
                    }
                ],
                "storageVariables": [
                    {
                        "name": "balances",
                        "type": "mapping(address => uint256)",
                        "value": {
                            "pairs": [
                                {
                                    "key": "0x045ff712c85456c5651503477db6640158af1829",
                                    "value": {
                                        "current": "0",
                                        "prev": "50000000000000000000",
                                        "typeTag": 1
                                    }
                                },
                                {
                                    "key": "0x8a91c9a16cd62693649d80afa85a09dbbdcb8508",
                                    "value": {
                                        "current": "6848475793593893555981152",
                                        "prev": "6848425793593893555981152",
                                        "typeTag": 1
                                    }
                                }
                            ],
                            "typeTag": 4
                        }
                    },
                    {
                        "name": "allowed",
                        "type": "mapping(address => mapping(address => uint256))",
                        "value": {
                            "pairs": [
                                {
                                    "key": "0x045ff712c85456c5651503477db6640158af1829",
                                    "value": {
                                        "pairs": [
                                            {
                                                "key": "0x8a91c9a16cd62693649d80afa85a09dbbdcb8508",
                                                "value": {
                                                    "current": "115792089237316195423570985008687907853269984665640564039407584007913129639935",
                                                    "prev": "115792089237316195423570985008687907853269984665640564039457584007913129639935",
                                                    "typeTag": 1
                                                }
                                            }
                                        ],
                                        "typeTag": 4
                                    }
                                }
                            ],
                            "typeTag": 4
                        }
                    }
                ]
            }
        ]
    }
}