{
    "balance_change": {
        "balanceChanges": [
            {
                "account": "0x6701872a1f7e55dbbadbdf1eaa13cf971a296d8e",
                "assets": [
                    {
                        "address": "0xeeeeeeeeeeeeeeeeeeeeeeeeeeeeeeeeeeeeeeee",
                        "amount": "0.15",
                        "iconUrl": "https://assets.blocksec.com/image/1663669189317-3.png",
                        "isERC1155": false,
                        "isERC721": false,
                        "sign": false,
                        "value": ""
                    },
                    {
                        "address": "0xf793a77e32a0e5c0cd28383e1e04bbc66ee52438",
                        "amount": "1",
                        "iconUrl": "",
                        "isERC1155": false,
                        "isERC721": true,
                        "sign": true,
                        "tokenID": "8194",
                        "value": ""
                    }
                ]
            },
            {
                "account": "0x5b3256965e7c3cf26e11fcaf296dfc8807c01073",
                "assets": [
                    {
                        "address": "0xeeeeeeeeeeeeeeeeeeeeeeeeeeeeeeeeeeeeeeee",
                        "amount": "0.00975",
                        "iconUrl": "https://assets.blocksec.com/image/1663669189317-3.png",
                        "isERC1155": false,
                        "isERC721": false,
                        "sign": true,
                        "value": ""
                    }
                ]
            },
            {
                "account": "0xd030484c3ad531ff2a0978a1017b4e9786ecf415",
                "assets": [
                    {
                        "address": "0xeeeeeeeeeeeeeeeeeeeeeeeeeeeeeeeeeeeeeeee",
                        "amount": "0.14025",
                        "iconUrl": "https://assets.blocksec.com/image/1663669189317-3.png",
                        "isERC1155": false,
                        "isERC721": false,
                        "sign": true,
                        "value": ""
                    },
                    {
                        "address": "0xf793a77e32a0e5c0cd28383e1e04bbc66ee52438",
                        "amount": "1",
                        "iconUrl": "",
                        "isERC1155": false,
                        "isERC721": true,
                        "sign": false,
                        "tokenID": "8194",
                        "value": ""
                    }
                ]
            }
        ]
    },
    "profile": {
        "basic_info": {
            "baseFee": "59.974284",
            "blockNumber": 13877436,
            "callData": "0xab834bab0000000000000000000000007be8076f4ea4a4ad08075c2508e481d6c946d12b0000000000000000000000006701872a1f7e55dbbadbdf1eaa13cf971a296d8e000000000000000000000000d030484c3ad531ff2a0978a1017b4e9786ecf4150000000000000000000000000000000000000000000000000000000000000000000000000000000000000000f793a77e32a0e5c0cd28383e1e04bbc66ee52438000000000000000000000000000000000000000000000000000000000000000000000000000000000000000000000000000000000000000000000000000000000000000000000000000000007be8076f4ea4a4ad08075c2508e481d6c946d12b000000000000000000000000d030484c3ad531ff2a0978a1017b4e9786ecf41500000000000000000000000000000000000000000000000000000000000000000000000000000000000000005b3256965e7c3cf26e11fcaf296dfc8807c01073000000000000000000000000f793a77e32a0e5c0cd28383e1e04bbc66ee5243800000000000000000000000000000000000000000000000000000000000000000000000000000000000000000000000000000000000000000000000000000000000000000000000000000000000000000000000000000000000000000000028a0000000000000000000000000000000000000000000000000000000000000000000000000000000000000000000000000000000000000000000000000000000000000000000000000000000000000000000000000000000000000000000000000000000000000000000000000000000000000000000000000214e8348c4f000000000000000000000000000000000000000000000000000000000000000000000000000000000000000000000000000000000000000000000000000061c7af5100000000000000000000000000000000000000000000000000000000000000003b3e41f02439978c5afe52f065d002abf0f8cb5f8a2faf2c7098eb75cced7fbf000000000000000000000000000000000000000000000000000000000000028a0000000000000000000000000000000000000000000000000000000000000000000000000000000000000000000000000000000000000000000000000000000000000000000000000000000000000000000000000000000000000000000000000000000000000000000000000000000000000000000000000214e8348c4f000000000000000000000000000000000000000000000000000000000000000000000000000000000000000000000000000000000000000000000000000061c7ad5b0000000000000000000000000000000000000000000000000000000062b790aa497b1be3e7e4a5f071f72aa507c5b3d0fceab72f95d2e895f113c0897d2281e60000000000000000000000000000000000000000000000000000000000000001000000000000000000000000000000000000000000000000000000000000000000000000000000000000000000000000000000000000000000000000000000000000000000000000000000000000000000000000000000000000000000000000000000000000000000000000000000000000000000000000000000000000000100000000000000000000000000000000000000000000000000000000000000010000000000000000000000000000000000000000000000000000000000000000000000000000000000000000000000000000000000000000000000000000000000000000000000000000000000000000000000000000000000000000000006a0000000000000000000000000000000000000000000000000000000000000074000000000000000000000000000000000000000000000000000000000000007e0000000000000000000000000000000000000000000000000000000000000088000000000000000000000000000000000000000000000000000000000000009200000000000000000000000000000000000000000000000000000000000000940000000000000000000000000000000000000000000000000000000000000001b000000000000000000000000000000000000000000000000000000000000001b8131b83007988f247baa7bd6dc5fb4c411579f634325c93ee661fd43b0fce8606ded84ba29efb14e65fbbe40344918c1c48f0208d9d912dbc0c17d13713136868131b83007988f247baa7bd6dc5fb4c411579f634325c93ee661fd43b0fce8606ded84ba29efb14e65fbbe40344918c1c48f0208d9d912dbc0c17d13713136860000000000000000000000000000000000000000000000000000000000000000000000000000000000000000000000000000000000000000000000000000006423b872dd00000000000000000000000000000000000000000000000000000000000000000000000000000000000000006701872a1f7e55dbbadbdf1eaa13cf971a296d8e000000000000000000000000000000000000000000000000000000000000200200000000000000000000000000000000000000000000000000000000000000000000000000000000000000000000000000000000000000000000006423b872dd000000000000000000000000d030484c3ad531ff2a0978a1017b4e9786ecf4150000000000000000000000000000000000000000000000000000000000000000000000000000000000000000000000000000000000000000000000000000200200000000000000000000000000000000000000000000000000000000000000000000000000000000000000000000000000000000000000000000006400000000ffffffffffffffffffffffffffffffffffffffffffffffffffffffffffffffff00000000000000000000000000000000000000000000000000000000000000000000000000000000000000000000000000000000000000000000000000000000000000000000000000000000000000000000000000000000000000000000000000000000000000000000000000000000000000000000000000000064000000000000000000000000000000000000000000000000000000000000000000000000ffffffffffffffffffffffffffffffffffffffffffffffffffffffffffffffff00000000000000000000000000000000000000000000000000000000000000000000000000000000000000000000000000000000000000000000000000000000000000000000000000000000000000000000000000000000000000000000000000000000000000000000000000000000000000000000000000000000",
            "debugEnable": true,
            "errorInfo": "",
            "eventCount": 3,
            "feeRecipient": "0xea674fdde714fd979de3edf0f56aa9716b898ec8",
            "formatValue": "0.15",
            "gasLimit": 292036,
            "gasPrice": "67.1",
            "gasUsed": 214902,
            "intTxnCount": 10,
            "internalRevert": false,
            "internalRevertMessage": "",
            "isContractCreation": false,
            "isFlashloan": false,
            "maxFee": "",
            "nonce": 56,
            "overwritedBlockNumber": -1,
            "priorityFee": "",
            "receiver": "0x7be8076f4ea4a4ad08075c2508e481d6c946d12b",
            "revertMessage": "",
            "sender": "0x6701872a1f7e55dbbadbdf1eaa13cf971a296d8e",
            "simulationEnable": true,
            "sourceTxnHash": "0x1ee42f1316366d774482cba3a841f936895f7bc6dd9ef9f1fb9328b494d015ac",
            "status": true,
            "timestamp": "2021-12-25T23:56:36Z",
            "transactionFee": "0.0144199242",
            "txnHash": "0x1ee42f1316366d774482cba3a841f936895f7bc6dd9ef9f1fb9328b494d015ac",
            "txnIndex": 42,
            "type": 0,
            "value": "150000000000000000"
        },
        "fund_flow": [
            {
                "amount": "0.15",
                "from": "0x6701872a1f7e55dbbadbdf1eaa13cf971a296d8e",
                "id": 1,
                "isERC1155": false,
                "isERC721": false,
                "isReverted": false,
                "order": 1,
                "to": "0x7be8076f4ea4a4ad08075c2508e481d6c946d12b",
                "token": "0xeeeeeeeeeeeeeeeeeeeeeeeeeeeeeeeeeeeeeeee"
            },
            {
                "amount": "0.00975",
                "from": "0x7be8076f4ea4a4ad08075c2508e481d6c946d12b",
                "id": 2,
                "isERC1155": false,
                "isERC721": false,
                "isReverted": false,
                "order": 2,
                "to": "0x5b3256965e7c3cf26e11fcaf296dfc8807c01073",
                "token": "0xeeeeeeeeeeeeeeeeeeeeeeeeeeeeeeeeeeeeeeee"
            },
            {
                "amount": "0.14025",
                "from": "0x7be8076f4ea4a4ad08075c2508e481d6c946d12b",
                "id": 3,
                "isERC1155": false,
                "isERC721": false,
                "isReverted": false,
                "order": 3,
                "to": "0xd030484c3ad531ff2a0978a1017b4e9786ecf415",
                "token": "0xeeeeeeeeeeeeeeeeeeeeeeeeeeeeeeeeeeeeeeee"
            },
            {
                "amount": "1",
                "from": "0xd030484c3ad531ff2a0978a1017b4e9786ecf415",
                "id": 4,
                "isERC1155": false,
                "isERC721": true,
                "isReverted": false,
                "order": 4,
                "to": "0x6701872a1f7e55dbbadbdf1eaa13cf971a296d8e",
                "token": "0xf793a77e32a0e5c0cd28383e1e04bbc66ee52438",
                "tokenID": "8194"
            }
        ],
        "token_infos": [
            {
                "address": "0xc02aaa39b223fe8d0a0e5c4f27ead9083c756cc2",
                "decimals": 18
            },
            {
                "address": "0xeeeeeeeeeeeeeeeeeeeeeeeeeeeeeeeeeeeeeeee",
                "decimals": 18
            }
        ]
    },
    "address_label": {
        "labels": [
            {
                "address": "0x0000000000000000000000000000000000000004",
                "label": "Precompiled"
            },
            {
                "address": "0xeeeeeeeeeeeeeeeeeeeeeeeeeeeeeeeeeeeeeeee",
                "label": "Ether"
            },
            {
                "address": "0x5b3256965e7c3cf26e11fcaf296dfc8807c01073",
                "label": "OpenSea: Wallet"
            },
            {
                "address": "0xf9e266af4bca5890e2781812cc6a6e89495a79f2",
                "label": "AuthenticatedProxy"
            },
            {
                "address": "0x9ded5dfb175f439848fa5c9448985d360957f457",
                "label": "OwnableDelegateProxy"
            },
            {
                "address": "0x0000000000000000000000000000000000000001",
                "label": "Precompiled"
            },
            {
                "address": "0x0000000000000000000000000000000000000002",
                "label": "Precompiled"
            },
            {
                "address": "0x0000000000000000000000000000000000000003",
                "label": "Precompiled"
            },
            {
                "address": "0xa5409ec958c83c3f309868babaca7c86dcb077c1",
                "label": "OpenSea: Registry"
            },
            {
                "address": "0x7be8076f4ea4a4ad08075c2508e481d6c946d12b",
                "label": "OpenSea: Wyvern Exchange v1"
            },
            {
                "address": "0xf793a77e32a0e5c0cd28383e1e04bbc66ee52438",
                "label": "Apocalyptic Apes: AAPES Token"
            },
            {
                "address": "0x0000000000000000000000000000000000000000",
                "label": "Null Address"
            }
        ]
    },
    "trace": {
        "accountLabels": null,
        "dataMap": {
            "-1": {
                "invocation": {
                    "address": "0x6701872a1f7e55dbbadbdf1eaa13cf971a296d8e",
                    "callData": "",
                    "decodedMethod": null,
                    "errorInfo": "",
                    "fromAddress": "",
                    "gasUsed": 0,
                    "id": -1,
                    "methodDecoded": false,
                    "operation": "",
                    "output": "",
                    "revert": false,
                    "revertMessage": "",
                    "selector": "",
                    "status": false,
                    "value": ""
                },
                "nodeType": 0
            },
            "0": {
                "invocation": {
                    "address": "0x7be8076f4ea4a4ad08075c2508e481d6c946d12b",
                    "callData": "0x0000000000000000000000007be8076f4ea4a4ad08075c2508e481d6c946d12b0000000000000000000000006701872a1f7e55dbbadbdf1eaa13cf971a296d8e000000000000000000000000d030484c3ad531ff2a0978a1017b4e9786ecf4150000000000000000000000000000000000000000000000000000000000000000000000000000000000000000f793a77e32a0e5c0cd28383e1e04bbc66ee52438000000000000000000000000000000000000000000000000000000000000000000000000000000000000000000000000000000000000000000000000000000000000000000000000000000007be8076f4ea4a4ad08075c2508e481d6c946d12b000000000000000000000000d030484c3ad531ff2a0978a1017b4e9786ecf41500000000000000000000000000000000000000000000000000000000000000000000000000000000000000005b3256965e7c3cf26e11fcaf296dfc8807c01073000000000000000000000000f793a77e32a0e5c0cd28383e1e04bbc66ee5243800000000000000000000000000000000000000000000000000000000000000000000000000000000000000000000000000000000000000000000000000000000000000000000000000000000000000000000000000000000000000000000028a0000000000000000000000000000000000000000000000000000000000000000000000000000000000000000000000000000000000000000000000000000000000000000000000000000000000000000000000000000000000000000000000000000000000000000000000000000000000000000000000000214e8348c4f000000000000000000000000000000000000000000000000000000000000000000000000000000000000000000000000000000000000000000000000000061c7af5100000000000000000000000000000000000000000000000000000000000000003b3e41f02439978c5afe52f065d002abf0f8cb5f8a2faf2c7098eb75cced7fbf000000000000000000000000000000000000000000000000000000000000028a0000000000000000000000000000000000000000000000000000000000000000000000000000000000000000000000000000000000000000000000000000000000000000000000000000000000000000000000000000000000000000000000000000000000000000000000000000000000000000000000000214e8348c4f000000000000000000000000000000000000000000000000000000000000000000000000000000000000000000000000000000000000000000000000000061c7ad5b0000000000000000000000000000000000000000000000000000000062b790aa497b1be3e7e4a5f071f72aa507c5b3d0fceab72f95d2e895f113c0897d2281e60000000000000000000000000000000000000000000000000000000000000001000000000000000000000000000000000000000000000000000000000000000000000000000000000000000000000000000000000000000000000000000000000000000000000000000000000000000000000000000000000000000000000000000000000000000000000000000000000000000000000000000000000000000100000000000000000000000000000000000000000000000000000000000000010000000000000000000000000000000000000000000000000000000000000000000000000000000000000000000000000000000000000000000000000000000000000000000000000000000000000000000000000000000000000000000006a0000000000000000000000000000000000000000000000000000000000000074000000000000000000000000000000000000000000000000000000000000007e0000000000000000000000000000000000000000000000000000000000000088000000000000000000000000000000000000000000000000000000000000009200000000000000000000000000000000000000000000000000000000000000940000000000000000000000000000000000000000000000000000000000000001b000000000000000000000000000000000000000000000000000000000000001b8131b83007988f247baa7bd6dc5fb4c411579f634325c93ee661fd43b0fce8606ded84ba29efb14e65fbbe40344918c1c48f0208d9d912dbc0c17d13713136868131b83007988f247baa7bd6dc5fb4c411579f634325c93ee661fd43b0fce8606ded84ba29efb14e65fbbe40344918c1c48f0208d9d912dbc0c17d13713136860000000000000000000000000000000000000000000000000000000000000000000000000000000000000000000000000000000000000000000000000000006423b872dd00000000000000000000000000000000000000000000000000000000000000000000000000000000000000006701872a1f7e55dbbadbdf1eaa13cf971a296d8e000000000000000000000000000000000000000000000000000000000000200200000000000000000000000000000000000000000000000000000000000000000000000000000000000000000000000000000000000000000000006423b872dd000000000000000000000000d030484c3ad531ff2a0978a1017b4e9786ecf4150000000000000000000000000000000000000000000000000000000000000000000000000000000000000000000000000000000000000000000000000000200200000000000000000000000000000000000000000000000000000000000000000000000000000000000000000000000000000000000000000000006400000000ffffffffffffffffffffffffffffffffffffffffffffffffffffffffffffffff00000000000000000000000000000000000000000000000000000000000000000000000000000000000000000000000000000000000000000000000000000000000000000000000000000000000000000000000000000000000000000000000000000000000000000000000000000000000000000000000000000064000000000000000000000000000000000000000000000000000000000000000000000000ffffffffffffffffffffffffffffffffffffffffffffffffffffffffffffffff00000000000000000000000000000000000000000000000000000000000000000000000000000000000000000000000000000000000000000000000000000000000000000000000000000000000000000000000000000000000000000000000000000000000000000000000000000000000000000000000000000000",
                    "decodedMethod": {
                        "callParams": [
                            {
                                "name": "addrs",
                                "type": "address[14]",
                                "value": [
                                    "0x7be8076f4ea4a4ad08075c2508e481d6c946d12b",
                                    "0x6701872a1f7e55dbbadbdf1eaa13cf971a296d8e",
                                    "0xd030484c3ad531ff2a0978a1017b4e9786ecf415",
                                    "0x0000000000000000000000000000000000000000",
                                    "0xf793a77e32a0e5c0cd28383e1e04bbc66ee52438",
                                    "0x0000000000000000000000000000000000000000",
                                    "0x0000000000000000000000000000000000000000",
                                    "0x7be8076f4ea4a4ad08075c2508e481d6c946d12b",
                                    "0xd030484c3ad531ff2a0978a1017b4e9786ecf415",
                                    "0x0000000000000000000000000000000000000000",
                                    "0x5b3256965e7c3cf26e11fcaf296dfc8807c01073",
                                    "0xf793a77e32a0e5c0cd28383e1e04bbc66ee52438",
                                    "0x0000000000000000000000000000000000000000",
                                    "0x0000000000000000000000000000000000000000"
                                ]
                            },
                            {
                                "name": "uints",
                                "type": "uint256[18]",
                                "value": [
                                    "650",
                                    "0",
                                    "0",
                                    "0",
                                    "150,000,000,000,000,000",
                                    "0",
                                    "1,640,476,497",
                                    "0",
                                    "26,796,457,672,143,652,713,939,988,821,116,578,790,136,315,428,674,666,257,583,569,179,435,988,778,943",
                                    "650",
                                    "0",
                                    "0",
                                    "0",
                                    "150,000,000,000,000,000",
                                    "0",
                                    "1,640,475,995",
                                    "1,656,197,290",
                                    "33,236,352,627,026,644,201,489,067,305,171,882,620,086,447,504,687,760,398,973,870,312,010,562,044,390"
                                ]
                            },
                            {
                                "name": "feeMethodsSidesKindsHowToCalls",
                                "type": "uint8[8]",
                                "value": [
                                    "1",
                                    "0",
                                    "0",
                                    "0",
                                    "1",
                                    "1",
                                    "0",
                                    "0"
                                ]
                            },
                            {
                                "name": "calldataBuy",
                                "type": "bytes",
                                "value": "0x23b872dd00000000000000000000000000000000000000000000000000000000000000000000000000000000000000006701872a1f7e55dbbadbdf1eaa13cf971a296d8e0000000000000000000000000000000000000000000000000000000000002002"
                            },
                            {
                                "name": "calldataSell",
                                "type": "bytes",
                                "value": "0x23b872dd000000000000000000000000d030484c3ad531ff2a0978a1017b4e9786ecf41500000000000000000000000000000000000000000000000000000000000000000000000000000000000000000000000000000000000000000000000000002002"
                            },
                            {
                                "name": "replacementPatternBuy",
                                "type": "bytes",
                                "value": "0x00000000ffffffffffffffffffffffffffffffffffffffffffffffffffffffffffffffff00000000000000000000000000000000000000000000000000000000000000000000000000000000000000000000000000000000000000000000000000000000"
                            },
                            {
                                "name": "replacementPatternSell",
                                "type": "bytes",
                                "value": "0x000000000000000000000000000000000000000000000000000000000000000000000000ffffffffffffffffffffffffffffffffffffffffffffffffffffffffffffffff0000000000000000000000000000000000000000000000000000000000000000"
                            },
                            {
                                "name": "staticExtradataBuy",
                                "type": "bytes",
                                "value": "0x"
                            },
                            {
                                "name": "staticExtradataSell",
                                "type": "bytes",
                                "value": "0x"
                            },
                            {
                                "name": "vs",
                                "type": "uint8[2]",
                                "value": [
                                    "27",
                                    "27"
                                ]
                            },
                            {
                                "name": "rssMetadata",
                                "type": "bytes32[5]",
                                "value": [
                                    "0x8131b83007988f247baa7bd6dc5fb4c411579f634325c93ee661fd43b0fce860",
                                    "0x6ded84ba29efb14e65fbbe40344918c1c48f0208d9d912dbc0c17d1371313686",
                                    "0x8131b83007988f247baa7bd6dc5fb4c411579f634325c93ee661fd43b0fce860",
                                    "0x6ded84ba29efb14e65fbbe40344918c1c48f0208d9d912dbc0c17d1371313686",
                                    "0x0000000000000000000000000000000000000000000000000000000000000000"
                                ]
                            }
                        ],
                        "constructorArguments": "",
                        "name": "atomicMatch_",
                        "returnParams": [],
                        "signature": "atomicMatch_(address[14],uint256[18],uint8[8],bytes,bytes,bytes,bytes,bytes,bytes,uint8[2],bytes32[5])"
                    },
                    "errorInfo": "",
                    "fromAddress": "0x6701872a1f7e55dbbadbdf1eaa13cf971a296d8e",
                    "gasUsed": 214902,
                    "id": 0,
                    "methodDecoded": true,
                    "operation": "CALL",
                    "output": "",
                    "revert": false,
                    "revertMessage": "",
                    "selector": "0xab834bab",
                    "status": true,
                    "value": "0.15"
                },
                "nodeType": 0
            },
            "1": {
                "invocation": {
                    "address": "0x0000000000000000000000000000000000000001",
                    "callData": "0x881641694658ece2880fcc87454b628c8ad464fbe462bb671d96b4d2000000000000000000000000000000000000000000000000000000000000001b8131b83007988f247baa7bd6dc5fb4c411579f634325c93ee661fd43b0fce8606ded84ba29efb14e65fbbe40344918c1c48f0208d9d912dbc0c17d1371313686",
                    "decodedMethod": {
                        "callParams": [
                            {
                                "name": "hash",
                                "type": "bytes32",
                                "value": "0x21a3b822881641694658ece2880fcc87454b628c8ad464fbe462bb671d96b4d2"
                            },
                            {
                                "name": "v",
                                "type": "uint256",
                                "value": "27"
                            },
                            {
                                "name": "r",
                                "type": "bytes32",
                                "value": "0x8131b83007988f247baa7bd6dc5fb4c411579f634325c93ee661fd43b0fce860"
                            },
                            {
                                "name": "s",
                                "type": "bytes32",
                                "value": "0x6ded84ba29efb14e65fbbe40344918c1c48f0208d9d912dbc0c17d1371313686"
                            }
                        ],
                        "constructorArguments": "",
                        "name": "ecrecover",
                        "returnParams": [
                            {
                                "name": "",
                                "type": "address",
                                "value": "0xd030484c3ad531ff2a0978a1017b4e9786ecf415"
                            }
                        ],
                        "signature": "ecrecover(bytes32,uint256,bytes32,bytes32)"
                    },
                    "errorInfo": "",
                    "fromAddress": "0x7be8076f4ea4a4ad08075c2508e481d6c946d12b",
                    "gasUsed": 3000,
                    "id": 1,
                    "methodDecoded": true,
                    "operation": "CALL",
                    "output": "0x000000000000000000000000d030484c3ad531ff2a0978a1017b4e9786ecf415",
                    "revert": false,
                    "revertMessage": "",
                    "selector": "0x21a3b822",
                    "status": true,
                    "value": "0"
                },
                "nodeType": 0
            },
            "10": {
                "invocation": {
                    "address": "0xf793a77e32a0e5c0cd28383e1e04bbc66ee52438",
                    "callData": "0x000000000000000000000000d030484c3ad531ff2a0978a1017b4e9786ecf4150000000000000000000000006701872a1f7e55dbbadbdf1eaa13cf971a296d8e000000000000000000000000000000000000000000000000000000000000200200000000000000000000000000000000000000000000000000000000",
                    "decodedMethod": {
                        "callParams": [
                            {
                                "name": "from",
                                "type": "address",
                                "value": "0xd030484c3ad531ff2a0978a1017b4e9786ecf415"
                            },
                            {
                                "name": "to",
                                "type": "address",
                                "value": "0x6701872a1f7e55dbbadbdf1eaa13cf971a296d8e"
                            },
                            {
                                "decimalAvailable": true,
                                "name": "tokenId",
                                "type": "uint256",
                                "value": "8,194"
                            }
                        ],
                        "constructorArguments": "",
                        "name": "transferFrom",
                        "returnParams": [],
                        "signature": "transferFrom(address,address,uint256)"
                    },
                    "errorInfo": "",
                    "fromAddress": "0x9ded5dfb175f439848fa5c9448985d360957f457",
                    "gasUsed": 69755,
                    "id": 10,
                    "methodDecoded": true,
                    "operation": "CALL",
                    "output": "",
                    "revert": false,
                    "revertMessage": "",
                    "selector": "0x23b872dd",
                    "status": true,
                    "value": "0"
                },
                "nodeType": 0
            },
            "11": {
                "event": {
                    "contract": "0xf793a77e32a0e5c0cd28383e1e04bbc66ee52438",
                    "decodedLog": {
                        "name": "Approval",
                        "params": [
                            {
                                "name": "owner",
                                "type": "address",
                                "value": "0xd030484c3ad531ff2a0978a1017b4e9786ecf415"
                            },
                            {
                                "name": "approved",
                                "type": "address",
                                "value": "0x0000000000000000000000000000000000000000"
                            },
                            {
                                "decimalAvailable": true,
                                "name": "tokenId",
                                "type": "uint256",
                                "value": "8,194"
                            }
                        ],
                        "signature": "Approval(address,address,uint256)"
                    },
                    "id": 11,
                    "logData": "0x",
                    "logDecoded": true,
                    "operation": "EVENT",
                    "revert": false,
                    "status": true,
                    "topics": [
                        "0x8c5be1e5ebec7d5bd14f71427d1e84f3dd0314c0f7b2291e5b200ac8c7c3b925",
                        "0x000000000000000000000000d030484c3ad531ff2a0978a1017b4e9786ecf415",
                        "0x0000000000000000000000000000000000000000000000000000000000000000",
                        "0x0000000000000000000000000000000000000000000000000000000000002002"
                    ]
                },
                "nodeType": 1
            },
            "12": {
                "event": {
                    "contract": "0xf793a77e32a0e5c0cd28383e1e04bbc66ee52438",
                    "decodedLog": {
                        "name": "Transfer",
                        "params": [
                            {
                                "name": "from",
                                "type": "address",
                                "value": "0xd030484c3ad531ff2a0978a1017b4e9786ecf415"
                            },
                            {
                                "name": "to",
                                "type": "address",
                                "value": "0x6701872a1f7e55dbbadbdf1eaa13cf971a296d8e"
                            },
                            {
                                "decimalAvailable": true,
                                "name": "tokenId",
                                "type": "uint256",
                                "value": "8,194"
                            }
                        ],
                        "signature": "Transfer(address,address,uint256)"
                    },
                    "id": 12,
                    "logData": "0x",
                    "logDecoded": true,
                    "operation": "EVENT",
                    "revert": false,
                    "status": true,
                    "topics": [
                        "0xddf252ad1be2c89b69c2b068fc378daa952ba7f163c4a11628f55a4df523b3ef",
                        "0x000000000000000000000000d030484c3ad531ff2a0978a1017b4e9786ecf415",
                        "0x0000000000000000000000006701872a1f7e55dbbadbdf1eaa13cf971a296d8e",
                        "0x0000000000000000000000000000000000000000000000000000000000002002"
                    ]
                },
                "nodeType": 1
            },
            "13": {
                "event": {
                    "contract": "0x7be8076f4ea4a4ad08075c2508e481d6c946d12b",
                    "decodedLog": {
                        "name": "OrdersMatched",
                        "params": [
                            {
                                "name": "maker",
                                "type": "address",
                                "value": "0xd030484c3ad531ff2a0978a1017b4e9786ecf415"
                            },
                            {
                                "name": "taker",
                                "type": "address",
                                "value": "0x6701872a1f7e55dbbadbdf1eaa13cf971a296d8e"
                            },
                            {
                                "name": "metadata",
                                "type": "bytes32",
                                "value": "0x0000000000000000000000000000000000000000000000000000000000000000"
                            },
                            {
                                "name": "buyHash",
                                "type": "bytes32",
                                "value": "0x0000000000000000000000000000000000000000000000000000000000000000"
                            },
                            {
                                "name": "sellHash",
                                "type": "bytes32",
                                "value": "0x21a3b822881641694658ece2880fcc87454b628c8ad464fbe462bb671d96b4d2"
                            },
                            {
                                "name": "price",
                                "type": "uint256",
                                "value": "150,000,000,000,000,000"
                            }
                        ],
                        "signature": "OrdersMatched(bytes32,bytes32,address,address,uint256,bytes32)"
                    },
                    "id": 13,
                    "logData": "0x000000000000000000000000000000000000000000000000000000000000000021a3b822881641694658ece2880fcc87454b628c8ad464fbe462bb671d96b4d20000000000000000000000000000000000000000000000000214e8348c4f0000",
                    "logDecoded": true,
                    "operation": "EVENT",
                    "revert": false,
                    "status": true,
                    "topics": [
                        "0xc4109843e0b7d514e4c093114b863f8e7d8d9a458c372cd51bfe526b588006c9",
                        "0x000000000000000000000000d030484c3ad531ff2a0978a1017b4e9786ecf415",
                        "0x0000000000000000000000006701872a1f7e55dbbadbdf1eaa13cf971a296d8e",
                        "0x0000000000000000000000000000000000000000000000000000000000000000"
                    ]
                },
                "nodeType": 1
            },
            "2": {
                "invocation": {
                    "address": "0xa5409ec958c83c3f309868babaca7c86dcb077c1",
                    "callData": "0x000000000000000000000000d030484c3ad531ff2a0978a1017b4e9786ecf415",
                    "decodedMethod": {
                        "callParams": [
                            {
                                "name": "",
                                "type": "address",
                                "value": "0xd030484c3ad531ff2a0978a1017b4e9786ecf415"
                            }
                        ],
                        "constructorArguments": "",
                        "name": "proxies",
                        "returnParams": [
                            {
                                "name": "",
                                "type": "address",
                                "value": "0x9ded5dfb175f439848fa5c9448985d360957f457"
                            }
                        ],
                        "signature": "proxies(address)"
                    },
                    "errorInfo": "",
                    "fromAddress": "0x7be8076f4ea4a4ad08075c2508e481d6c946d12b",
                    "gasUsed": 2782,
                    "id": 2,
                    "methodDecoded": true,
                    "operation": "CALL",
                    "output": "0x0000000000000000000000009ded5dfb175f439848fa5c9448985d360957f457",
                    "revert": false,
                    "revertMessage": "",
                    "selector": "0xc4552791",
                    "status": true,
                    "value": "0"
                },
                "nodeType": 0
            },
            "3": {
                "invocation": {
                    "address": "0xa5409ec958c83c3f309868babaca7c86dcb077c1",
                    "callData": "0x",
                    "decodedMethod": {
                        "callParams": [],
                        "constructorArguments": "",
                        "name": "delegateProxyImplementation",
                        "returnParams": [
                            {
                                "name": "",
                                "type": "address",
                                "value": "0xf9e266af4bca5890e2781812cc6a6e89495a79f2"
                            }
                        ],
                        "signature": "delegateProxyImplementation()"
                    },
                    "errorInfo": "",
                    "fromAddress": "0x7be8076f4ea4a4ad08075c2508e481d6c946d12b",
                    "gasUsed": 2613,
                    "id": 3,
                    "methodDecoded": true,
                    "operation": "CALL",
                    "output": "0x000000000000000000000000f9e266af4bca5890e2781812cc6a6e89495a79f2",
                    "revert": false,
                    "revertMessage": "",
                    "selector": "0x97204d8e",
                    "status": true,
                    "value": "0"
                },
                "nodeType": 0
            },
            "4": {
                "invocation": {
                    "address": "0x9ded5dfb175f439848fa5c9448985d360957f457",
                    "callData": "0x",
                    "decodedMethod": {
                        "callParams": [],
                        "constructorArguments": "",
                        "name": "implementation",
                        "returnParams": [
                            {
                                "name": "",
                                "type": "address",
                                "value": "0xf9e266af4bca5890e2781812cc6a6e89495a79f2"
                            }
                        ],
                        "signature": "implementation()"
                    },
                    "errorInfo": "",
                    "fromAddress": "0x7be8076f4ea4a4ad08075c2508e481d6c946d12b",
                    "gasUsed": 2525,
                    "id": 4,
                    "methodDecoded": true,
                    "operation": "CALL",
                    "output": "0x000000000000000000000000f9e266af4bca5890e2781812cc6a6e89495a79f2",
                    "revert": false,
                    "revertMessage": "",
                    "selector": "0x5c60da1b",
                    "status": true,
                    "value": "0"
                },
                "nodeType": 0
            },
            "5": {
                "invocation": {
                    "address": "0x5b3256965e7c3cf26e11fcaf296dfc8807c01073",
                    "callData": "0x",
                    "decodedMethod": null,
                    "errorInfo": "",
                    "fromAddress": "0x7be8076f4ea4a4ad08075c2508e481d6c946d12b",
                    "gasUsed": 0,
                    "id": 5,
                    "methodDecoded": false,
                    "operation": "CALL",
                    "output": "",
                    "revert": false,
                    "revertMessage": "",
                    "selector": "fallback",
                    "status": true,
                    "value": "0.00975"
                },
                "nodeType": 0
            },
            "6": {
                "invocation": {
                    "address": "0xd030484c3ad531ff2a0978a1017b4e9786ecf415",
                    "callData": "0x",
                    "decodedMethod": null,
                    "errorInfo": "",
                    "fromAddress": "0x7be8076f4ea4a4ad08075c2508e481d6c946d12b",
                    "gasUsed": 0,
                    "id": 6,
                    "methodDecoded": false,
                    "operation": "CALL",
                    "output": "",
                    "revert": false,
                    "revertMessage": "",
                    "selector": "fallback",
                    "status": true,
                    "value": "0.14025"
                },
                "nodeType": 0
            },
            "7": {
                "invocation": {
                    "address": "0x9ded5dfb175f439848fa5c9448985d360957f457",
                    "callData": "0x000000000000000000000000f793a77e32a0e5c0cd28383e1e04bbc66ee5243800000000000000000000000000000000000000000000000000000000000000000000000000000000000000000000000000000000000000000000000000000060000000000000000000000000000000000000000000000000000000000000006423b872dd000000000000000000000000d030484c3ad531ff2a0978a1017b4e9786ecf4150000000000000000000000006701872a1f7e55dbbadbdf1eaa13cf971a296d8e000000000000000000000000000000000000000000000000000000000000200200000000000000000000000000000000000000000000000000000000",
                    "decodedMethod": {
                        "callParams": [
                            {
                                "name": "dest",
                                "type": "address",
                                "value": "0xf793a77e32a0e5c0cd28383e1e04bbc66ee52438"
                            },
                            {
                                "name": "howToCall",
                                "type": "uint8",
                                "value": "0"
                            },
                            {
                                "name": "calldata",
                                "type": "bytes",
                                "value": "0x23b872dd000000000000000000000000d030484c3ad531ff2a0978a1017b4e9786ecf4150000000000000000000000006701872a1f7e55dbbadbdf1eaa13cf971a296d8e0000000000000000000000000000000000000000000000000000000000002002"
                            }
                        ],
                        "constructorArguments": "",
                        "name": "proxy",
                        "returnParams": [
                            {
                                "name": "result",
                                "type": "bool",
                                "value": true
                            }
                        ],
                        "signature": "proxy(address,uint8,bytes)"
                    },
                    "errorInfo": "",
                    "fromAddress": "0x7be8076f4ea4a4ad08075c2508e481d6c946d12b",
                    "gasUsed": 81912,
                    "id": 7,
                    "methodDecoded": true,
                    "operation": "CALL",
                    "output": "0x0000000000000000000000000000000000000000000000000000000000000001",
                    "revert": false,
                    "revertMessage": "",
                    "selector": "0x1b0f7ba9",
                    "status": true,
                    "value": "0"
                },
                "nodeType": 0
            },
            "8": {
                "invocation": {
                    "address": "0xf9e266af4bca5890e2781812cc6a6e89495a79f2",
                    "callData": "0x000000000000000000000000f793a77e32a0e5c0cd28383e1e04bbc66ee5243800000000000000000000000000000000000000000000000000000000000000000000000000000000000000000000000000000000000000000000000000000060000000000000000000000000000000000000000000000000000000000000006423b872dd000000000000000000000000d030484c3ad531ff2a0978a1017b4e9786ecf4150000000000000000000000006701872a1f7e55dbbadbdf1eaa13cf971a296d8e000000000000000000000000000000000000000000000000000000000000200200000000000000000000000000000000000000000000000000000000",
                    "decodedMethod": {
                        "callParams": [
                            {
                                "name": "dest",
                                "type": "address",
                                "value": "0xf793a77e32a0e5c0cd28383e1e04bbc66ee52438"
                            },
                            {
                                "name": "howToCall",
                                "type": "uint8",
                                "value": "0"
                            },
                            {
                                "name": "calldata",
                                "type": "bytes",
                                "value": "0x23b872dd000000000000000000000000d030484c3ad531ff2a0978a1017b4e9786ecf4150000000000000000000000006701872a1f7e55dbbadbdf1eaa13cf971a296d8e0000000000000000000000000000000000000000000000000000000000002002"
                            }
                        ],
                        "constructorArguments": "",
                        "name": "proxy",
                        "returnParams": [
                            {
                                "name": "result",
                                "type": "bool",
                                "value": true
                            }
                        ],
                        "signature": "proxy(address,uint8,bytes)"
                    },
                    "errorInfo": "",
                    "fromAddress": "0x9ded5dfb175f439848fa5c9448985d360957f457",
                    "gasUsed": 78652,
                    "id": 8,
                    "methodDecoded": true,
                    "operation": "DELEGATECALL",
                    "output": "0x0000000000000000000000000000000000000000000000000000000000000001",
                    "revert": false,
                    "revertMessage": "",
                    "selector": "0x1b0f7ba9",
                    "status": true,
                    "value": "0"
                },
                "nodeType": 0
            },
            "9": {
                "invocation": {
                    "address": "0xa5409ec958c83c3f309868babaca7c86dcb077c1",
                    "callData": "0x0000000000000000000000007be8076f4ea4a4ad08075c2508e481d6c946d12b",
                    "decodedMethod": {
                        "callParams": [
                            {
                                "name": "",
                                "type": "address",
                                "value": "0x7be8076f4ea4a4ad08075c2508e481d6c946d12b"
                            }
                        ],
                        "constructorArguments": "",
                        "name": "contracts",
                        "returnParams": [
                            {
                                "name": "",
                                "type": "bool",
                                "value": true
                            }
                        ],
                        "signature": "contracts(address)"
                    },
                    "errorInfo": "",
                    "fromAddress": "0x9ded5dfb175f439848fa5c9448985d360957f457",
                    "gasUsed": 2553,
                    "id": 9,
                    "methodDecoded": true,
                    "operation": "CALL",
                    "output": "0x0000000000000000000000000000000000000000000000000000000000000001",
                    "revert": false,
                    "revertMessage": "",
                    "selector": "0x69dc9ff3",
                    "status": true,
                    "value": "0"
                },
                "nodeType": 0
            }
        },
        "gasFlame": [
            {
                "children": [
                    {
                        "children": [
                            {
                                "children": [],
                                "depth": 0,
                                "name": "Initial Gas",
                                "value": 36868
                            },
                            {
                                "children": [
                                    {
                                        "children": [],
                                        "depth": 1,
                                        "name": "ecrecover",
                                        "value": 3000
                                    },
                                    {
                                        "children": [],
                                        "depth": 1,
                                        "name": "proxies",
                                        "value": 2782
                                    },
                                    {
                                        "children": [],
                                        "depth": 1,
                                        "name": "delegateProxyImplementation",
                                        "value": 2613
                                    },
                                    {
                                        "children": [],
                                        "depth": 1,
                                        "name": "implementation",
                                        "value": 2525
                                    },
                                    {
                                        "children": [],
                                        "depth": 1,
                                        "name": "fallback",
                                        "value": 0
                                    },
                                    {
                                        "children": [],
                                        "depth": 1,
                                        "name": "fallback",
                                        "value": 0
                                    },
                                    {
                                        "children": [
                                            {
                                                "children": [
                                                    {
                                                        "children": [],
                                                        "depth": 3,
                                                        "name": "contracts",
                                                        "value": 2553
                                                    },
                                                    {
                                                        "children": [],
                                                        "depth": 3,
                                                        "name": "transferFrom",
                                                        "value": 69755
                                                    }
                                                ],
                                                "depth": 2,
                                                "name": "proxy",
                                                "value": 78652
                                            }
                                        ],
                                        "depth": 1,
                                        "name": "proxy",
                                        "value": 81912
                                    }
                                ],
                                "depth": 0,
                                "name": "Executed Gas",
                                "value": 185634
                            }
                        ],
                        "depth": -1,
                        "name": "Actual Gas Used",
                        "value": 214902
                    },
                    {
                        "children": [],
                        "depth": -1,
                        "name": "Refunded Gas",
                        "value": 7600
                    }
                ],
                "depth": -2,
                "name": "Total Gas",
                "value": 222502
            }
        ],
        "isConfirmed": true,
        "mainTrace": [
            {
                "children": [
                    {
                        "children": [
                            {
                                "children": [],
                                "depth": 1,
                                "id": 1,
                                "order": 1
                            },
                            {
                                "children": [],
                                "depth": 1,
                                "id": 2,
                                "order": 2
                            },
                            {
                                "children": [],
                                "depth": 1,
                                "id": 3,
                                "order": 3
                            },
                            {
                                "children": [],
                                "depth": 1,
                                "id": 4,
                                "order": 4
                            },
                            {
                                "children": [],
                                "depth": 1,
                                "id": 5,
                                "order": 5
                            },
                            {
                                "children": [],
                                "depth": 1,
                                "id": 6,
                                "order": 6
                            },
                            {
                                "children": [
                                    {
                                        "children": [
                                            {
                                                "children": [],
                                                "depth": 3,
                                                "id": 9,
                                                "order": 9
                                            },
                                            {
                                                "children": [
                                                    {
                                                        "children": [],
                                                        "depth": 4,
                                                        "id": 11,
                                                        "order": 11
                                                    },
                                                    {
                                                        "children": [],
                                                        "depth": 4,
                                                        "id": 12,
                                                        "order": 12
                                                    }
                                                ],
                                                "depth": 3,
                                                "id": 10,
                                                "order": 10
                                            }
                                        ],
                                        "depth": 2,
                                        "id": 8,
                                        "order": 8
                                    }
                                ],
                                "depth": 1,
                                "id": 7,
                                "order": 7
                            },
                            {
                                "children": [],
                                "depth": 1,
                                "id": 13,
                                "order": 13
                            }
                        ],
                        "depth": 0,
                        "id": 0,
                        "order": 0
                    }
                ],
                "depth": -1,
                "id": -1,
                "order": -1
            }
        ],
        "mainTraceNodeCount": 14,
        "parentIdMap": {
            "0": -1,
            "1": 0,
            "10": 8,
            "11": 10,
            "12": 10,
            "13": 0,
            "2": 0,
            "3": 0,
            "4": 0,
            "5": 0,
            "6": 0,
            "7": 0,
            "8": 7,
            "9": 8
        },
        "tidyTrace": [
            {
                "children": [
                    {
                        "children": [
                            {
                                "children": [],
                                "depth": 1,
                                "id": 1,
                                "order": 1
                            },
                            {
                                "children": [],
                                "depth": 1,
                                "id": 2,
                                "order": 2
                            },
                            {
                                "children": [],
                                "depth": 1,
                                "id": 3,
                                "order": 3
                            },
                            {
                                "children": [],
                                "depth": 1,
                                "id": 4,
                                "order": 4
                            },
                            {
                                "children": [],
                                "depth": 1,
                                "id": 5,
                                "order": 5
                            },
                            {
                                "children": [],
                                "depth": 1,
                                "id": 6,
                                "order": 6
                            },
                            {
                                "children": [
                                    {
                                        "children": [
                                            {
                                                "children": [],
                                                "depth": 3,
                                                "id": 9,
                                                "order": 9
                                            },
                                            {
                                                "children": [
                                                    {
                                                        "children": [],
                                                        "depth": 4,
                                                        "id": 11,
                                                        "order": 11
                                                    },
                                                    {
                                                        "children": [],
                                                        "depth": 4,
                                                        "id": 12,
                                                        "order": 12
                                                    }
                                                ],
                                                "depth": 3,
                                                "id": 10,
                                                "order": 10
                                            }
                                        ],
                                        "depth": 2,
                                        "id": 8,
                                        "order": 8
                                    }
                                ],
                                "depth": 1,
                                "id": 7,
                                "order": 7
                            },
                            {
                                "children": [],
                                "depth": 1,
                                "id": 13,
                                "order": 13
                            }
                        ],
                        "depth": 0,
                        "id": 0,
                        "order": 0
                    }
                ],
                "depth": -1,
                "id": -1,
                "order": -1
            }
        ],
        "tidyTraceNodeCount": 14
    },
    "state_change": {
        "stateChanges": [
            {
                "address": "0x7be8076f4ea4a4ad08075c2508e481d6c946d12b",
                "erc": "",
                "slots": [
                    {
                        "current": "0x0000000000000000000000000000000000000000000000000000000000000001",
                        "key": "0x4b020458afb1fe88464d310d39e38fc56736a5e696a8dc5d4d61c8ae8f183fec",
                        "prev": "0x0000000000000000000000000000000000000000000000000000000000000000"
                    }
                ],
                "storageVariables": [
                    {
                        "name": "cancelledOrFinalized",
                        "type": "mapping(bytes32 => bool)",
                        "value": {
                            "pairs": [
                                {
                                    "key": "0x21a3b822881641694658ece2880fcc87454b628c8ad464fbe462bb671d96b4d2",
                                    "value": {
                                        "current": "true",
                                        "prev": "false",
                                        "typeTag": 1
                                    }
                                }
                            ],
                            "typeTag": 4
                        }
                    }
                ]
            },
            {
                "address": "0xf793a77e32a0e5c0cd28383e1e04bbc66ee52438",
                "erc": "ERC-721",
                "slots": [
                    {
                        "current": "0x000000000000000000000000000000000000000000000000000000000000201f",
                        "key": "0x14a7343b5011a4c5814fcb777b0596066ef30ea6dd35e5c6a3718ad1a61952ab",
                        "prev": "0x0000000000000000000000000000000000000000000000000000000000002002"
                    },
                    {
                        "current": "0x000000000000000000000000000000000000000000000000000000000000000b",
                        "key": "0xdf59b38195b315f5b3bfb5461bf3e075dc0f6f4282d9a1cdda58a223fcf1bb56",
                        "prev": "0x0000000000000000000000000000000000000000000000000000000000000011"
                    },
                    {
                        "current": "0x0000000000000000000000000000000000000000000000000000000000000001",
                        "key": "0xa1f1c6a4725cf03a19d9e3726731655bdfdc5f2a4e6b06925f558eb9e1cdfd87",
                        "prev": "0x000000000000000000000000000000000000000000000000000000000000000b"
                    },
                    {
                        "current": "0x0000000000000000000000000000000000000000000000000000000000000000",
                        "key": "0xcaefed9b2fbadefe9e25c4658f9e66813c09e38a06456228cb1fa409fa01a78d",
                        "prev": "0x000000000000000000000000000000000000000000000000000000000000201f"
                    },
                    {
                        "current": "0x0000000000000000000000000000000000000000000000000000000000002002",
                        "key": "0x26aec9c72dd8740992f96cf71379c4a52465e61550d2e0babb83a98957522cfd",
                        "prev": "0x0000000000000000000000000000000000000000000000000000000000000000"
                    },
                    {
                        "current": "0x0000000000000000000000000000000000000000000000000000000000000011",
                        "key": "0xabf86833d930d361b81b29110efab5dd51c3843a4f9d9712ff2bbd7f9c59bb66",
                        "prev": "0x0000000000000000000000000000000000000000000000000000000000000012"
                    },
                    {
                        "current": "0x0000000000000000000000000000000000000000000000000000000000000002",
                        "key": "0x6e08fe44e565a04dfbbdfeec5ef7f9aec65335b517161022a84dc748bc8a839e",
                        "prev": "0x0000000000000000000000000000000000000000000000000000000000000001"
                    },
                    {
                        "current": "0x0000000000000000000000006701872a1f7e55dbbadbdf1eaa13cf971a296d8e",
                        "key": "0x1f9729ee23aa4d7ef6d077d595d71f719f14754de290da9ab2f5fb29c19f6f98",
                        "prev": "0x000000000000000000000000d030484c3ad531ff2a0978a1017b4e9786ecf415"
                    }
                ],
                "storageVariables": [
                    {
                        "name": "_owners",
                        "type": "mapping(uint256 => address)",
                        "value": {
                            "pairs": [
                                {
                                    "key": "8194",
                                    "value": {
                                        "current": "0x6701872a1f7e55dbbadbdf1eaa13cf971a296d8e",
                                        "prev": "0xd030484c3ad531ff2a0978a1017b4e9786ecf415",
                                        "typeTag": 1
                                    }
                                }
                            ],
                            "typeTag": 4
                        }
                    },
                    {
                        "name": "_ownedTokensIndex",
                        "type": "mapping(uint256 => uint256)",
                        "value": {
                            "pairs": [
                                {
                                    "key": "8194",
                                    "value": {
                                        "current": "1",
                                        "prev": "11",
                                        "typeTag": 1
                                    }
                                },
                                {
                                    "key": "8223",
                                    "value": {
                                        "current": "11",
                                        "prev": "17",
                                        "typeTag": 1
                                    }
                                }
                            ],
                            "typeTag": 4
                        }
                    },
                    {
                        "name": "_ownedTokens",
                        "type": "mapping(address => mapping(uint256 => uint256))",
                        "value": {
                            "pairs": [
                                {
                                    "key": "0x6701872a1f7e55dbbadbdf1eaa13cf971a296d8e",
                                    "value": {
                                        "pairs": [
                                            {
                                                "key": "1",
                                                "value": {
                                                    "current": "8194",
                                                    "prev": "0",
                                                    "typeTag": 1
                                                }
                                            }
                                        ],
                                        "typeTag": 4
                                    }
                                },
                                {
                                    "key": "0xd030484c3ad531ff2a0978a1017b4e9786ecf415",
                                    "value": {
                                        "pairs": [
                                            {
                                                "key": "11",
                                                "value": {
                                                    "current": "8223",
                                                    "prev": "8194",
                                                    "typeTag": 1
                                                }
                                            },
                                            {
                                                "key": "17",
                                                "value": {
                                                    "current": "0",
                                                    "prev": "8223",
                                                    "typeTag": 1
                                                }
                                            }
                                        ],
                                        "typeTag": 4
                                    }
                                }
                            ],
                            "typeTag": 4
                        }
                    },
                    {
                        "name": "_balances",
                        "type": "mapping(address => uint256)",
                        "value": {
                            "pairs": [
                                {
                                    "key": "0x6701872a1f7e55dbbadbdf1eaa13cf971a296d8e",
                                    "value": {
                                        "current": "2",
                                        "prev": "1",
                                        "typeTag": 1
                                    }
                                },
                                {
                                    "key": "0xd030484c3ad531ff2a0978a1017b4e9786ecf415",
                                    "value": {
                                        "current": "17",
                                        "prev": "18",
                                        "typeTag": 1
                                    }
                                }
                            ],
                            "typeTag": 4
                        }
                    }
                ]
            }
        ]
    }
}