{
    "balance_change": {
        "balanceChanges": [
            {
                "account": "0xe4172c37a25c13eecc5c4ea619cabc8da4a9bc53",
                "assets": [
                    {
                        "address": "0xf5b0a3efb8e8e4c201e2a935f110eaaf3ffecb8d",
                        "amount": "256,936",
                        "iconUrl": "",
                        "isERC1155": false,
                        "isERC721": false,
                        "sign": false,
                        "value": ""
                    }
                ]
            },
            {
                "account": "0xf4985070ce32b6b1994329df787d1acc9a2dd9e2",
                "assets": [
                    {
                        "address": "0xf5b0a3efb8e8e4c201e2a935f110eaaf3ffecb8d",
                        "amount": "256,936",
                        "iconUrl": "",
                        "isERC1155": false,
                        "isERC721": false,
                        "sign": true,
                        "value": ""
                    }
                ]
            }
        ]
    },
    "profile": {
        "basic_info": {
            "baseFee": "",
            "blockNumber": 12179405,
            "callData": "0x961c9ae4000000000000000000000000f5b0a3efb8e8e4c201e2a935f110eaaf3ffecb8d000000000000000000000000000000000000000000000000000000000003eba800000000000000000000000000000000000000000000000002ea11e32ad500000000000000000000000000000000000000000000000000000214e8348c4f0000000000000000000000000000000000000000000000000000000000000003f480",
            "debugEnable": true,
            "errorInfo": "",
            "eventCount": 3,
            "feeRecipient": "0x06b8c5883ec71bc3f4b332081519f23834c8706e",
            "formatValue": "0",
            "gasLimit": 240063,
            "gasPrice": "97",
            "gasUsed": 175063,
            "intTxnCount": 4,
            "internalRevert": false,
            "internalRevertMessage": "",
            "isContractCreation": false,
            "isFlashloan": false,
            "maxFee": "",
            "nonce": 236,
            "overwritedBlockNumber": -1,
            "priorityFee": "",
            "receiver": "0xf4985070ce32b6b1994329df787d1acc9a2dd9e2",
            "revertMessage": "",
            "sender": "0xe4172c37a25c13eecc5c4ea619cabc8da4a9bc53",
            "simulationEnable": true,
            "sourceTxnHash": "0x1e97b07ef35133084d07dee6a518bf98188a3cd5a208e0a67646c803c428c096",
            "status": true,
            "timestamp": "2021-04-05T11:28:10Z",
            "transactionFee": "0.016981111",
            "txnHash": "0x1e97b07ef35133084d07dee6a518bf98188a3cd5a208e0a67646c803c428c096",
            "txnIndex": 154,
            "type": 0,
            "value": "0"
        },
        "fund_flow": [
            {
                "amount": "256,936",
                "from": "0xe4172c37a25c13eecc5c4ea619cabc8da4a9bc53",
                "id": 1,
                "isERC1155": false,
                "isERC721": false,
                "isReverted": false,
                "order": 1,
                "to": "0xf4985070ce32b6b1994329df787d1acc9a2dd9e2",
                "token": "0xf5b0a3efb8e8e4c201e2a935f110eaaf3ffecb8d"
            }
        ],
        "token_infos": [
            {
                "address": "0xc02aaa39b223fe8d0a0e5c4f27ead9083c756cc2",
                "decimals": 18
            },
            {
                "address": "0xf5b0a3efb8e8e4c201e2a935f110eaaf3ffecb8d",
                "decimals": -1
            },
            {
                "address": "0xeeeeeeeeeeeeeeeeeeeeeeeeeeeeeeeeeeeeeeee",
                "decimals": 18
            }
        ]
    },
    "address_label": {
        "labels": [
            {
                "address": "0xeeeeeeeeeeeeeeeeeeeeeeeeeeeeeeeeeeeeeeee",
                "label": "Ether"
            },
            {
                "address": "0xf4985070ce32b6b1994329df787d1acc9a2dd9e2",
                "label": "Axie Infinity: Axie Clock Auction"
            },
            {
                "address": "0xf5b0a3efb8e8e4c201e2a935f110eaaf3ffecb8d",
                "label": "Axie Infinity: AXIE Token"
            },
            {
                "address": "0x0000000000000000000000000000000000000001",
                "label": "Precompiled"
            },
            {
                "address": "0x0000000000000000000000000000000000000002",
                "label": "Precompiled"
            },
            {
                "address": "0x0000000000000000000000000000000000000003",
                "label": "Precompiled"
            },
            {
                "address": "0x0000000000000000000000000000000000000004",
                "label": "Precompiled"
            }
        ]
    },
    "trace": {
        "accountLabels": null,
        "dataMap": {
            "-1": {
                "invocation": {
                    "address": "0xe4172c37a25c13eecc5c4ea619cabc8da4a9bc53",
                    "callData": "",
                    "decodedMethod": null,
                    "errorInfo": "",
                    "fromAddress": "",
                    "gasUsed": 0,
                    "id": -1,
                    "methodDecoded": false,
                    "operation": "",
                    "output": "",
                    "revert": false,
                    "revertMessage": "",
                    "selector": "",
                    "status": false,
                    "value": ""
                },
                "nodeType": 0
            },
            "0": {
                "invocation": {
                    "address": "0xf4985070ce32b6b1994329df787d1acc9a2dd9e2",
                    "callData": "0x000000000000000000000000f5b0a3efb8e8e4c201e2a935f110eaaf3ffecb8d000000000000000000000000000000000000000000000000000000000003eba800000000000000000000000000000000000000000000000002ea11e32ad500000000000000000000000000000000000000000000000000000214e8348c4f0000000000000000000000000000000000000000000000000000000000000003f480",
                    "decodedMethod": {
                        "callParams": [
                            {
                                "name": "_nftAddress",
                                "type": "address",
                                "value": "0xf5b0a3efb8e8e4c201e2a935f110eaaf3ffecb8d"
                            },
                            {
                                "name": "_tokenId",
                                "type": "uint256",
                                "value": "256,936"
                            },
                            {
                                "name": "_startingPrice",
                                "type": "uint256",
                                "value": "210,000,000,000,000,000"
                            },
                            {
                                "name": "_endingPrice",
                                "type": "uint256",
                                "value": "150,000,000,000,000,000"
                            },
                            {
                                "name": "_duration",
                                "type": "uint256",
                                "value": "259,200"
                            }
                        ],
                        "constructorArguments": "",
                        "name": "createAuction",
                        "returnParams": [],
                        "signature": "createAuction(address,uint256,uint256,uint256,uint256)"
                    },
                    "errorInfo": "",
                    "fromAddress": "0xe4172c37a25c13eecc5c4ea619cabc8da4a9bc53",
                    "gasUsed": 175063,
                    "id": 0,
                    "methodDecoded": true,
                    "operation": "CALL",
                    "output": "",
                    "revert": false,
                    "revertMessage": "",
                    "selector": "0x961c9ae4",
                    "status": true,
                    "value": "0"
                },
                "nodeType": 0
            },
            "1": {
                "invocation": {
                    "address": "0xf5b0a3efb8e8e4c201e2a935f110eaaf3ffecb8d",
                    "callData": "0x000000000000000000000000000000000000000000000000000000000003eba8",
                    "decodedMethod": {
                        "callParams": [
                            {
                                "name": "_tokenId",
                                "type": "uint256",
                                "value": "256,936"
                            }
                        ],
                        "constructorArguments": "",
                        "name": "ownerOf",
                        "returnParams": [
                            {
                                "name": "",
                                "type": "address",
                                "value": "0xe4172c37a25c13eecc5c4ea619cabc8da4a9bc53"
                            }
                        ],
                        "signature": "ownerOf(uint256)"
                    },
                    "errorInfo": "",
                    "fromAddress": "0xf4985070ce32b6b1994329df787d1acc9a2dd9e2",
                    "gasUsed": 2807,
                    "id": 1,
                    "methodDecoded": true,
                    "operation": "CALL",
                    "output": "0x000000000000000000000000e4172c37a25c13eecc5c4ea619cabc8da4a9bc53",
                    "revert": false,
                    "revertMessage": "",
                    "selector": "0x6352211e",
                    "status": true,
                    "value": "0"
                },
                "nodeType": 0
            },
            "2": {
                "invocation": {
                    "address": "0xf5b0a3efb8e8e4c201e2a935f110eaaf3ffecb8d",
                    "callData": "0x000000000000000000000000e4172c37a25c13eecc5c4ea619cabc8da4a9bc53000000000000000000000000f4985070ce32b6b1994329df787d1acc9a2dd9e2000000000000000000000000000000000000000000000000000000000003eba8",
                    "decodedMethod": {
                        "callParams": [
                            {
                                "name": "_from",
                                "type": "address",
                                "value": "0xe4172c37a25c13eecc5c4ea619cabc8da4a9bc53"
                            },
                            {
                                "name": "_to",
                                "type": "address",
                                "value": "0xf4985070ce32b6b1994329df787d1acc9a2dd9e2"
                            },
                            {
                                "decimalAvailable": true,
                                "name": "_tokenId",
                                "type": "uint256",
                                "value": "256,936"
                            }
                        ],
                        "constructorArguments": "",
                        "name": "transferFrom",
                        "returnParams": [],
                        "signature": "transferFrom(address,address,uint256)"
                    },
                    "errorInfo": "",
                    "fromAddress": "0xf4985070ce32b6b1994329df787d1acc9a2dd9e2",
                    "gasUsed": 89602,
                    "id": 2,
                    "methodDecoded": true,
                    "operation": "CALL",
                    "output": "",
                    "revert": false,
                    "revertMessage": "",
                    "selector": "0x23b872dd",
                    "status": true,
                    "value": "0"
                },
                "nodeType": 0
            },
            "3": {
                "invocation": {
                    "address": "0xe8bd438d0383cf4d19641eaa4793eddc6cebeaf1",
                    "callData": "0x000000000000000000000000e4172c37a25c13eecc5c4ea619cabc8da4a9bc53000000000000000000000000f4985070ce32b6b1994329df787d1acc9a2dd9e2000000000000000000000000000000000000000000000000000000000003eba8",
                    "decodedMethod": {
                        "callParams": [
                            {
                                "name": "",
                                "type": "address",
                                "value": "0xe4172c37a25c13eecc5c4ea619cabc8da4a9bc53"
                            },
                            {
                                "name": "",
                                "type": "address",
                                "value": "0xf4985070ce32b6b1994329df787d1acc9a2dd9e2"
                            },
                            {
                                "name": "",
                                "type": "uint256",
                                "value": "256,936"
                            }
                        ],
                        "constructorArguments": "",
                        "name": "isTransferAllowed",
                        "returnParams": [
                            {
                                "name": "",
                                "type": "bool",
                                "value": true
                            }
                        ],
                        "signature": "isTransferAllowed(address,address,uint256)"
                    },
                    "errorInfo": "",
                    "fromAddress": "0xf5b0a3efb8e8e4c201e2a935f110eaaf3ffecb8d",
                    "gasUsed": 4758,
                    "id": 3,
                    "methodDecoded": true,
                    "operation": "CALL",
                    "output": "0x0000000000000000000000000000000000000000000000000000000000000001",
                    "revert": false,
                    "revertMessage": "",
                    "selector": "0xf7ebc39a",
                    "status": true,
                    "value": "0"
                },
                "nodeType": 0
            },
            "4": {
                "invocation": {
                    "address": "0xf5b0a3efb8e8e4c201e2a935f110eaaf3ffecb8d",
                    "callData": "0x",
                    "decodedMethod": {
                        "callParams": [],
                        "constructorArguments": "",
                        "name": "paused",
                        "returnParams": [
                            {
                                "name": "",
                                "type": "bool",
                                "value": false
                            }
                        ],
                        "signature": "paused()"
                    },
                    "errorInfo": "",
                    "fromAddress": "0xe8bd438d0383cf4d19641eaa4793eddc6cebeaf1",
                    "gasUsed": 1628,
                    "id": 4,
                    "methodDecoded": true,
                    "operation": "CALL",
                    "output": "0x0000000000000000000000000000000000000000000000000000000000000000",
                    "revert": false,
                    "revertMessage": "",
                    "selector": "0x5c975abb",
                    "status": true,
                    "value": "0"
                },
                "nodeType": 0
            },
            "5": {
                "event": {
                    "contract": "0xf5b0a3efb8e8e4c201e2a935f110eaaf3ffecb8d",
                    "decodedLog": {
                        "name": "Approval",
                        "params": [
                            {
                                "name": "_owner",
                                "type": "address",
                                "value": "0xe4172c37a25c13eecc5c4ea619cabc8da4a9bc53"
                            },
                            {
                                "name": "_approved",
                                "type": "address",
                                "value": "0x0000000000000000000000000000000000000000"
                            },
                            {
                                "decimalAvailable": true,
                                "name": "_tokenId",
                                "type": "uint256",
                                "value": "256,936"
                            }
                        ],
                        "signature": "Approval(address,address,uint256)"
                    },
                    "id": 5,
                    "logData": "0x000000000000000000000000000000000000000000000000000000000003eba8",
                    "logDecoded": true,
                    "operation": "EVENT",
                    "revert": false,
                    "status": true,
                    "topics": [
                        "0x8c5be1e5ebec7d5bd14f71427d1e84f3dd0314c0f7b2291e5b200ac8c7c3b925",
                        "0x000000000000000000000000e4172c37a25c13eecc5c4ea619cabc8da4a9bc53",
                        "0x0000000000000000000000000000000000000000000000000000000000000000"
                    ]
                },
                "nodeType": 1
            },
            "6": {
                "event": {
                    "contract": "0xf5b0a3efb8e8e4c201e2a935f110eaaf3ffecb8d",
                    "decodedLog": {
                        "name": "Transfer",
                        "params": [
                            {
                                "name": "_from",
                                "type": "address",
                                "value": "0xe4172c37a25c13eecc5c4ea619cabc8da4a9bc53"
                            },
                            {
                                "name": "_to",
                                "type": "address",
                                "value": "0xf4985070ce32b6b1994329df787d1acc9a2dd9e2"
                            },
                            {
                                "decimalAvailable": true,
                                "name": "_tokenId",
                                "type": "uint256",
                                "value": "256,936"
                            }
                        ],
                        "signature": "Transfer(address,address,uint256)"
                    },
                    "id": 6,
                    "logData": "0x000000000000000000000000000000000000000000000000000000000003eba8",
                    "logDecoded": true,
                    "operation": "EVENT",
                    "revert": false,
                    "status": true,
                    "topics": [
                        "0xddf252ad1be2c89b69c2b068fc378daa952ba7f163c4a11628f55a4df523b3ef",
                        "0x000000000000000000000000e4172c37a25c13eecc5c4ea619cabc8da4a9bc53",
                        "0x000000000000000000000000f4985070ce32b6b1994329df787d1acc9a2dd9e2"
                    ]
                },
                "nodeType": 1
            },
            "7": {
                "event": {
                    "contract": "0xf4985070ce32b6b1994329df787d1acc9a2dd9e2",
                    "decodedLog": {
                        "name": "AuctionCreated",
                        "params": [
                            {
                                "name": "_nftAddress",
                                "type": "address",
                                "value": "0xf5b0a3efb8e8e4c201e2a935f110eaaf3ffecb8d"
                            },
                            {
                                "name": "_tokenId",
                                "type": "uint256",
                                "value": "256,936"
                            },
                            {
                                "name": "_startingPrice",
                                "type": "uint256",
                                "value": "210,000,000,000,000,000"
                            },
                            {
                                "name": "_endingPrice",
                                "type": "uint256",
                                "value": "150,000,000,000,000,000"
                            },
                            {
                                "name": "_duration",
                                "type": "uint256",
                                "value": "259,200"
                            },
                            {
                                "name": "_seller",
                                "type": "address",
                                "value": "0xe4172c37a25c13eecc5c4ea619cabc8da4a9bc53"
                            }
                        ],
                        "signature": "AuctionCreated(address,uint256,uint256,uint256,uint256,address)"
                    },
                    "id": 7,
                    "logData": "0x00000000000000000000000000000000000000000000000002ea11e32ad500000000000000000000000000000000000000000000000000000214e8348c4f0000000000000000000000000000000000000000000000000000000000000003f480000000000000000000000000e4172c37a25c13eecc5c4ea619cabc8da4a9bc53",
                    "logDecoded": true,
                    "operation": "EVENT",
                    "revert": false,
                    "status": true,
                    "topics": [
                        "0xebc6e332a2c695c53d77b2922a18bcf3ab024549f5f2bfa67e0875ec29d59d46",
                        "0x000000000000000000000000f5b0a3efb8e8e4c201e2a935f110eaaf3ffecb8d",
                        "0x000000000000000000000000000000000000000000000000000000000003eba8"
                    ]
                },
                "nodeType": 1
            }
        },
        "gasFlame": [
            {
                "children": [
                    {
                        "children": [
                            {
                                "children": [],
                                "depth": 0,
                                "name": "Initial Gas",
                                "value": 22160
                            },
                            {
                                "children": [
                                    {
                                        "children": [],
                                        "depth": 1,
                                        "name": "ownerOf",
                                        "value": 2807
                                    },
                                    {
                                        "children": [
                                            {
                                                "children": [
                                                    {
                                                        "children": [],
                                                        "depth": 3,
                                                        "name": "paused",
                                                        "value": 1628
                                                    }
                                                ],
                                                "depth": 2,
                                                "name": "isTransferAllowed",
                                                "value": 4758
                                            }
                                        ],
                                        "depth": 1,
                                        "name": "transferFrom",
                                        "value": 89602
                                    }
                                ],
                                "depth": 0,
                                "name": "Executed Gas",
                                "value": 167903
                            }
                        ],
                        "depth": -1,
                        "name": "Actual Gas Used",
                        "value": 175063
                    },
                    {
                        "children": [],
                        "depth": -1,
                        "name": "Refunded Gas",
                        "value": 15000
                    }
                ],
                "depth": -2,
                "name": "Total Gas",
                "value": 190063
            }
        ],
        "isConfirmed": true,
        "mainTrace": [
            {
                "children": [
                    {
                        "children": [
                            {
                                "children": [],
                                "depth": 1,
                                "id": 1,
                                "order": 1
                            },
                            {
                                "children": [
                                    {
                                        "children": [
                                            {
                                                "children": [],
                                                "depth": 3,
                                                "id": 4,
                                                "order": 4
                                            }
                                        ],
                                        "depth": 2,
                                        "id": 3,
                                        "order": 3
                                    },
                                    {
                                        "children": [],
                                        "depth": 2,
                                        "id": 5,
                                        "order": 5
                                    },
                                    {
                                        "children": [],
                                        "depth": 2,
                                        "id": 6,
                                        "order": 6
                                    }
                                ],
                                "depth": 1,
                                "id": 2,
                                "order": 2
                            },
                            {
                                "children": [],
                                "depth": 1,
                                "id": 7,
                                "order": 7
                            }
                        ],
                        "depth": 0,
                        "id": 0,
                        "order": 0
                    }
                ],
                "depth": -1,
                "id": -1,
                "order": -1
            }
        ],
        "mainTraceNodeCount": 8,
        "parentIdMap": {
            "0": -1,
            "1": 0,
            "2": 0,
            "3": 2,
            "4": 3,
            "5": 2,
            "6": 2,
            "7": 0
        },
        "tidyTrace": [
            {
                "children": [
                    {
                        "children": [
                            {
                                "children": [],
                                "depth": 1,
                                "id": 1,
                                "order": 1
                            },
                            {
                                "children": [
                                    {
                                        "children": [
                                            {
                                                "children": [],
                                                "depth": 3,
                                                "id": 4,
                                                "order": 4
                                            }
                                        ],
                                        "depth": 2,
                                        "id": 3,
                                        "order": 3
                                    },
                                    {
                                        "children": [],
                                        "depth": 2,
                                        "id": 5,
                                        "order": 5
                                    },
                                    {
                                        "children": [],
                                        "depth": 2,
                                        "id": 6,
                                        "order": 6
                                    }
                                ],
                                "depth": 1,
                                "id": 2,
                                "order": 2
                            },
                            {
                                "children": [],
                                "depth": 1,
                                "id": 7,
                                "order": 7
                            }
                        ],
                        "depth": 0,
                        "id": 0,
                        "order": 0
                    }
                ],
                "depth": -1,
                "id": -1,
                "order": -1
            }
        ],
        "tidyTraceNodeCount": 8
    },
    "state_change": {
        "stateChanges": [
            {
                "address": "0xf4985070ce32b6b1994329df787d1acc9a2dd9e2",
                "erc": "",
                "slots": [
                    {
                        "current": "0x000000000000000000000000e4172c37a25c13eecc5c4ea619cabc8da4a9bc53",
                        "key": "0x0139ceafbd3b344cf09102d6d167edffda03a99facdd7d7d39208f261c4569d0",
                        "prev": "0x0000000000000000000000000000000000000000000000000000000000000000"
                    },
                    {
                        "current": "0x00000000000000000214e8348c4f0000000000000000000002ea11e32ad50000",
                        "key": "0x0139ceafbd3b344cf09102d6d167edffda03a99facdd7d7d39208f261c4569d1",
                        "prev": "0x0000000000000000000000000000000000000000000000000000000000000000"
                    },
                    {
                        "current": "0x0000000000000000000000000000000000000000606af44a000000000003f480",
                        "key": "0x0139ceafbd3b344cf09102d6d167edffda03a99facdd7d7d39208f261c4569d2",
                        "prev": "0x0000000000000000000000000000000000000000000000000000000000000000"
                    }
                ],
                "storageVariables": [
                    {
                        "name": "auctions",
                        "type": "mapping(address => mapping(uint256 => struct AxieClockAuction.Auction))",
                        "value": {
                            "pairs": [
                                {
                                    "key": "0xf5b0a3efb8e8e4c201e2a935f110eaaf3ffecb8d",
                                    "value": {
                                        "pairs": [
                                            {
                                                "key": "256936",
                                                "value": {
                                                    "fields": [
                                                        {
                                                            "name": "seller",
                                                            "type": "address",
                                                            "value": {
                                                                "current": "0xe4172c37a25c13eecc5c4ea619cabc8da4a9bc53",
                                                                "prev": "0x0000000000000000000000000000000000000000",
                                                                "typeTag": 1
                                                            }
                                                        },
                                                        {
                                                            "name": "startingPrice",
                                                            "type": "uint128",
                                                            "value": {
                                                                "current": "210000000000000000",
                                                                "prev": "0",
                                                                "typeTag": 1
                                                            }
                                                        },
                                                        {
                                                            "name": "endingPrice",
                                                            "type": "uint128",
                                                            "value": {
                                                                "current": "150000000000000000",
                                                                "prev": "0",
                                                                "typeTag": 1
                                                            }
                                                        },
                                                        {
                                                            "name": "duration",
                                                            "type": "uint64",
                                                            "value": {
                                                                "current": "259200",
                                                                "prev": "0",
                                                                "typeTag": 1
                                                            }
                                                        },
                                                        {
                                                            "name": "startedAt",
                                                            "type": "uint64",
                                                            "value": {
                                                                "current": "1617622090",
                                                                "prev": "0",
                                                                "typeTag": 1
                                                            }
                                                        }
                                                    ],
                                                    "typeTag": 3
                                                }
                                            }
                                        ],
                                        "typeTag": 4
                                    }
                                }
                            ],
                            "typeTag": 4
                        }
                    }
                ]
            },
            {
                "address": "0xf5b0a3efb8e8e4c201e2a935f110eaaf3ffecb8d",
                "erc": "ERC-721",
                "slots": [
                    {
                        "current": "0x00000000000000000000000000000000000000000000000000000000000033f9",
                        "key": "0xda6130b50a42de694f5ea1ae82c75586f0831f0f41b8349336a692d06cf359d7",
                        "prev": "0x00000000000000000000000000000000000000000000000000000000000033f8"
                    },
                    {
                        "current": "0x000000000000000000000000000000000000000000000000000000000003eba8",
                        "key": "0xf977cc87cb9530b700142d22309e54b5022847fb0e1975303101c38e16b0f697",
                        "prev": "0x0000000000000000000000000000000000000000000000000000000000000000"
                    },
                    {
                        "current": "0x000000000000000000000000f4985070ce32b6b1994329df787d1acc9a2dd9e2",
                        "key": "0x0d99653a5d1263a13538f76d74f07e119dc5e3e1a88283f0b0b7bc4242aa60e8",
                        "prev": "0x000000000000000000000000e4172c37a25c13eecc5c4ea619cabc8da4a9bc53"
                    },
                    {
                        "current": "0x000000000000000000000000000000000000000000000000000000000004006c",
                        "key": "0x4bc453c5e8a5e739a8f9054a78f8c63ec558ab23336f7f2b5d68d83817af360d",
                        "prev": "0x000000000000000000000000000000000000000000000000000000000003eba8"
                    },
                    {
                        "current": "0x0000000000000000000000000000000000000000000000000000000000000004",
                        "key": "0xc1ccbc43495100dc28e89c6ef1382af7555fffc433ca2851425837468193e993",
                        "prev": "0x0000000000000000000000000000000000000000000000000000000000000006"
                    },
                    {
                        "current": "0x0000000000000000000000000000000000000000000000000000000000000000",
                        "key": "0x4bc453c5e8a5e739a8f9054a78f8c63ec558ab23336f7f2b5d68d83817af360f",
                        "prev": "0x000000000000000000000000000000000000000000000000000000000004006c"
                    },
                    {
                        "current": "0x0000000000000000000000000000000000000000000000000000000000000006",
                        "key": "0x6c7320f0b2598374ee1bc292c56b8a58996ab56f8b42a39ba9f0df3ef8e5b288",
                        "prev": "0x0000000000000000000000000000000000000000000000000000000000000007"
                    },
                    {
                        "current": "0x00000000000000000000000000000000000000000000000000000000000033f8",
                        "key": "0xa0f2f003aa24ef269a89a6ebbc2bb362dec719527e7229616b6fab26617a8b33",
                        "prev": "0x0000000000000000000000000000000000000000000000000000000000000004"
                    }
                ],
                "storageVariables": [
                    {
                        "name": "_tokenOwner",
                        "type": "mapping(uint256 => address)",
                        "value": {
                            "pairs": [
                                {
                                    "key": "256936",
                                    "value": {
                                        "current": "0xf4985070ce32b6b1994329df787d1acc9a2dd9e2",
                                        "prev": "0xe4172c37a25c13eecc5c4ea619cabc8da4a9bc53",
                                        "typeTag": 1
                                    }
                                }
                            ],
                            "typeTag": 4
                        }
                    },
                    {
                        "name": "_ownedTokenIndex",
                        "type": "mapping(uint256 => uint256)",
                        "value": {
                            "pairs": [
                                {
                                    "key": "256936",
                                    "value": {
                                        "current": "13304",
                                        "prev": "4",
                                        "typeTag": 1
                                    }
                                },
                                {
                                    "key": "262252",
                                    "value": {
                                        "current": "4",
                                        "prev": "6",
                                        "typeTag": 1
                                    }
                                }
                            ],
                            "typeTag": 4
                        }
                    },
                    {
                        "name": "_ownedTokens",
                        "type": "mapping(address => uint256[])",
                        "value": {
                            "pairs": [
                                {
                                    "key": "0xe4172c37a25c13eecc5c4ea619cabc8da4a9bc53",
                                    "value": {
                                        "elemType": "uint256",
                                        "elems": [
                                            {
                                                "index": 4,
                                                "value": {
                                                    "current": "262252",
                                                    "prev": "256936",
                                                    "typeTag": 1
                                                }
                                            }
                                        ],
                                        "typeTag": 2
                                    }
                                },
                                {
                                    "key": "0xf4985070ce32b6b1994329df787d1acc9a2dd9e2",
                                    "value": {
                                        "elemType": "uint256",
                                        "elems": [
                                            {
                                                "index": 13304,
                                                "value": {
                                                    "current": "256936",
                                                    "prev": "0",
                                                    "typeTag": 1
                                                }
                                            }
                                        ],
                                        "typeTag": 2
                                    }
                                }
                            ],
                            "typeTag": 4
                        }
                    }
                ]
            }
        ]
    }
}