{
    "balance_change": {
        "balanceChanges": [
            {
                "account": "0x1877a3cbb7f9c3f4e678414362afb13f5c98fbba",
                "assets": [
                    {
                        "address": "0x354074fa53a199e73042e9726031cffc6c20d61b",
                        "amount": "4,010",
                        "iconUrl": "",
                        "isERC1155": false,
                        "isERC721": false,
                        "sign": false,
                        "value": ""
                    }
                ]
            },
            {
                "account": "0x17e91f4debea7b811123410fd1b283fe82eddb66",
                "assets": [
                    {
                        "address": "0x354074fa53a199e73042e9726031cffc6c20d61b",
                        "amount": "4,010",
                        "iconUrl": "",
                        "isERC1155": false,
                        "isERC721": false,
                        "sign": true,
                        "value": ""
                    }
                ]
            }
        ]
    },
    "profile": {
        "basic_info": {
            "baseFee": "",
            "blockNumber": 8468250,
            "callData": "0xa9059cbb00000000000000000000000017e91f4debea7b811123410fd1b283fe82eddb660000000000000000000000000000000000000000000000d961edda1c04680000",
            "debugEnable": true,
            "errorInfo": "",
            "eventCount": 1,
            "feeRecipient": "0xea674fdde714fd979de3edf0f56aa9716b898ec8",
            "formatValue": "0",
            "gasLimit": 120000,
            "gasPrice": "10",
            "gasUsed": 22884,
            "intTxnCount": 0,
            "internalRevert": false,
            "internalRevertMessage": "",
            "isContractCreation": false,
            "isFlashloan": false,
            "maxFee": "",
            "nonce": 0,
            "overwritedBlockNumber": -1,
            "priorityFee": "",
            "receiver": "0x354074fa53a199e73042e9726031cffc6c20d61b",
            "revertMessage": "",
            "sender": "0x1877a3cbb7f9c3f4e678414362afb13f5c98fbba",
            "simulationEnable": true,
            "sourceTxnHash": "0x1e7090429471a6ca43c0253fbe75b903ee48cf7cfe431084a4f718dddf68b8c5",
            "status": true,
            "timestamp": "2019-09-02T02:48:29Z",
            "transactionFee": "0.00022884",
            "txnHash": "0x1e7090429471a6ca43c0253fbe75b903ee48cf7cfe431084a4f718dddf68b8c5",
            "txnIndex": 178,
            "type": 0,
            "value": "0"
        },
        "fund_flow": [
            {
                "amount": "4,010",
                "from": "0x1877a3cbb7f9c3f4e678414362afb13f5c98fbba",
                "id": 1,
                "isERC1155": false,
                "isERC721": false,
                "isReverted": false,
                "order": 1,
                "to": "0x17e91f4debea7b811123410fd1b283fe82eddb66",
                "token": "0x354074fa53a199e73042e9726031cffc6c20d61b"
            }
        ],
        "token_infos": [
            {
                "address": "0x354074fa53a199e73042e9726031cffc6c20d61b",
                "decimals": 18
            },
            {
                "address": "0xc02aaa39b223fe8d0a0e5c4f27ead9083c756cc2",
                "decimals": 18
            },
            {
                "address": "0xeeeeeeeeeeeeeeeeeeeeeeeeeeeeeeeeeeeeeeee",
                "decimals": 18
            }
        ]
    },
    "address_label": {
        "labels": [
            {
                "address": "0x354074fa53a199e73042e9726031cffc6c20d61b",
                "label": "MYC"
            },
            {
                "address": "0x0000000000000000000000000000000000000001",
                "label": "Precompiled"
            },
            {
                "address": "0x0000000000000000000000000000000000000002",
                "label": "Precompiled"
            },
            {
                "address": "0x0000000000000000000000000000000000000003",
                "label": "Precompiled"
            },
            {
                "address": "0x0000000000000000000000000000000000000004",
                "label": "Precompiled"
            },
            {
                "address": "0xeeeeeeeeeeeeeeeeeeeeeeeeeeeeeeeeeeeeeeee",
                "label": "Ether"
            }
        ]
    },
    "trace": {
        "accountLabels": null,
        "dataMap": {
            "-1": {
                "invocation": {
                    "address": "0x1877a3cbb7f9c3f4e678414362afb13f5c98fbba",
                    "callData": "",
                    "decodedMethod": null,
                    "errorInfo": "",
                    "fromAddress": "",
                    "gasUsed": 0,
                    "id": -1,
                    "methodDecoded": false,
                    "operation": "",
                    "output": "",
                    "revert": false,
                    "revertMessage": "",
                    "selector": "",
                    "status": false,
                    "value": ""
                },
                "nodeType": 0
            },
            "0": {
                "invocation": {
                    "address": "0x354074fa53a199e73042e9726031cffc6c20d61b",
                    "callData": "0x00000000000000000000000017e91f4debea7b811123410fd1b283fe82eddb660000000000000000000000000000000000000000000000d961edda1c04680000",
                    "decodedMethod": {
                        "callParams": [
                            {
                                "name": "_to",
                                "type": "address",
                                "value": "0x17e91f4debea7b811123410fd1b283fe82eddb66"
                            },
                            {
                                "decimalAvailable": true,
                                "name": "_value",
                                "type": "uint256",
                                "value": "4,010,000,000,000,000,000,000"
                            }
                        ],
                        "constructorArguments": "",
                        "name": "transfer",
                        "returnParams": [],
                        "signature": "transfer(address,uint256)"
                    },
                    "errorInfo": "",
                    "fromAddress": "0x1877a3cbb7f9c3f4e678414362afb13f5c98fbba",
                    "gasUsed": 22884,
                    "id": 0,
                    "methodDecoded": true,
                    "operation": "CALL",
                    "output": "",
                    "revert": false,
                    "revertMessage": "",
                    "selector": "0xa9059cbb",
                    "status": true,
                    "value": "0"
                },
                "nodeType": 0
            },
            "1": {
                "event": {
                    "contract": "0x354074fa53a199e73042e9726031cffc6c20d61b",
                    "decodedLog": {
                        "name": "Transfer",
                        "params": [
                            {
                                "name": "from",
                                "type": "address",
                                "value": "0x1877a3cbb7f9c3f4e678414362afb13f5c98fbba"
                            },
                            {
                                "name": "to",
                                "type": "address",
                                "value": "0x17e91f4debea7b811123410fd1b283fe82eddb66"
                            },
                            {
                                "decimalAvailable": true,
                                "name": "value",
                                "type": "uint256",
                                "value": "4,010,000,000,000,000,000,000"
                            }
                        ],
                        "signature": "Transfer(address,address,uint256)"
                    },
                    "id": 1,
                    "logData": "0x0000000000000000000000000000000000000000000000d961edda1c04680000",
                    "logDecoded": true,
                    "operation": "EVENT",
                    "revert": false,
                    "status": true,
                    "topics": [
                        "0xddf252ad1be2c89b69c2b068fc378daa952ba7f163c4a11628f55a4df523b3ef",
                        "0x0000000000000000000000001877a3cbb7f9c3f4e678414362afb13f5c98fbba",
                        "0x00000000000000000000000017e91f4debea7b811123410fd1b283fe82eddb66"
                    ]
                },
                "nodeType": 1
            }
        },
        "gasFlame": [
            {
                "children": [
                    {
                        "children": [
                            {
                                "children": [],
                                "depth": 0,
                                "name": "Initial Gas",
                                "value": 23256
                            },
                            {
                                "children": [],
                                "depth": 0,
                                "name": "Executed Gas",
                                "value": 14628
                            }
                        ],
                        "depth": -1,
                        "name": "Actual Gas Used",
                        "value": 22884
                    },
                    {
                        "children": [],
                        "depth": -1,
                        "name": "Refunded Gas",
                        "value": 15000
                    }
                ],
                "depth": -2,
                "name": "Total Gas",
                "value": 37884
            }
        ],
        "isConfirmed": true,
        "mainTrace": [
            {
                "children": [
                    {
                        "children": [
                            {
                                "children": [],
                                "depth": 1,
                                "id": 1,
                                "order": 1
                            }
                        ],
                        "depth": 0,
                        "id": 0,
                        "order": 0
                    }
                ],
                "depth": -1,
                "id": -1,
                "order": -1
            }
        ],
        "mainTraceNodeCount": 2,
        "parentIdMap": {
            "0": -1,
            "1": 0
        },
        "tidyTrace": [
            {
                "children": [
                    {
                        "children": [
                            {
                                "children": [],
                                "depth": 1,
                                "id": 1,
                                "order": 1
                            }
                        ],
                        "depth": 0,
                        "id": 0,
                        "order": 0
                    }
                ],
                "depth": -1,
                "id": -1,
                "order": -1
            }
        ],
        "tidyTraceNodeCount": 2
    },
    "state_change": {
        "stateChanges": [
            {
                "address": "0x354074fa53a199e73042e9726031cffc6c20d61b",
                "erc": "",
                "slots": [
                    {
                        "current": "0x00000000000000000000000000000000000000000008e29fb800ec330bde5800",
                        "key": "0x17274f0448216c14829fa324e93b2c316dc35e9220f97fdff2b10a6a9537fa23",
                        "prev": "0x00000000000000000000000000000000000000000008e1c65613121707765800"
                    },
                    {
                        "current": "0x0000000000000000000000000000000000000000000000000000000000000000",
                        "key": "0x2d0d55af8c94652e57ec2a3a0c5cb197b71986d86bfbbcce79de9e8681a54f6c",
                        "prev": "0x0000000000000000000000000000000000000000000000d961edda1c04680000"
                    }
                ],
                "storageVariables": [
                    {
                        "name": "balanceOf",
                        "type": "mapping(address => uint256)",
                        "value": {
                            "pairs": [
                                {
                                    "key": "0x17e91f4debea7b811123410fd1b283fe82eddb66",
                                    "value": {
                                        "current": "10741607673210300000000000",
                                        "prev": "10737597673210300000000000",
                                        "typeTag": 1
                                    }
                                },
                                {
                                    "key": "0x1877a3cbb7f9c3f4e678414362afb13f5c98fbba",
                                    "value": {
                                        "current": "0",
                                        "prev": "4010000000000000000000",
                                        "typeTag": 1
                                    }
                                }
                            ],
                            "typeTag": 4
                        }
                    }
                ]
            }
        ]
    }
}