{
    "balance_change": {
        "balanceChanges": [
            {
                "account": "0xc8422cefd499e453039290fa7133a396ed641381",
                "assets": [
                    {
                        "address": "0xf0d33beda4d734c72684b5f9abbebf715d0a7935",
                        "amount": "7,500",
                        "iconUrl": "",
                        "isERC1155": false,
                        "isERC721": false,
                        "sign": false,
                        "value": "74.61445678"
                    }
                ]
            },
            {
                "account": "0xb267deaace0b8c5fcb2bb04801a364e7af7da3f4",
                "assets": [
                    {
                        "address": "0xf0d33beda4d734c72684b5f9abbebf715d0a7935",
                        "amount": "7,500",
                        "iconUrl": "",
                        "isERC1155": false,
                        "isERC721": false,
                        "sign": true,
                        "value": "74.61445678"
                    }
                ]
            }
        ]
    },
    "profile": {
        "basic_info": {
            "baseFee": "12.601288725",
            "blockNumber": 16167296,
            "callData": "0x8dbdbe6d000000000000000000000000000000000000000000000000000000000000000100000000000000000000000000000000000000000000000000000001bf08eb00000000000000000000000000c8422cefd499e453039290fa7133a396ed641381",
            "debugEnable": true,
            "errorInfo": "",
            "eventCount": 4,
            "feeRecipient": "0x690b9a9e9aa1c9db991c7721a92d351db4fac990",
            "formatValue": "0",
            "gasLimit": 98153,
            "gasPrice": "13.68412389",
            "gasUsed": 93167,
            "intTxnCount": 1,
            "internalRevert": false,
            "internalRevertMessage": "",
            "isContractCreation": false,
            "isFlashloan": false,
            "maxFee": "13.68412389",
            "nonce": 149,
            "overwritedBlockNumber": -1,
            "priorityFee": "13.68412389",
            "receiver": "0xb267deaace0b8c5fcb2bb04801a364e7af7da3f4",
            "revertMessage": "",
            "sender": "0xc8422cefd499e453039290fa7133a396ed641381",
            "simulationEnable": true,
            "sourceTxnHash": "0x1edcea812da05d8a4fc4d3da4811af41803e61edfa28b1df82dedc9a0d84fe4f",
            "status": true,
            "timestamp": "2022-12-12T07:59:59Z",
            "transactionFee": "0.00127490877045963",
            "txnHash": "0x1edcea812da05d8a4fc4d3da4811af41803e61edfa28b1df82dedc9a0d84fe4f",
            "txnIndex": 70,
            "type": 2,
            "value": "0"
        },
        "fund_flow": [
            {
                "amount": "7,500",
                "from": "0xc8422cefd499e453039290fa7133a396ed641381",
                "id": 1,
                "isERC1155": false,
                "isERC721": false,
                "isReverted": false,
                "order": 1,
                "to": "0xb267deaace0b8c5fcb2bb04801a364e7af7da3f4",
                "token": "0xf0d33beda4d734c72684b5f9abbebf715d0a7935"
            }
        ],
        "token_infos": [
            {
                "address": "0xc02aaa39b223fe8d0a0e5c4f27ead9083c756cc2",
                "decimals": 18
            },
            {
                "address": "0xf0d33beda4d734c72684b5f9abbebf715d0a7935",
                "decimals": 6
            },
            {
                "address": "0xeeeeeeeeeeeeeeeeeeeeeeeeeeeeeeeeeeeeeeee",
                "decimals": 18
            }
        ]
    },
    "address_label": {
        "labels": [
            {
                "address": "0xeeeeeeeeeeeeeeeeeeeeeeeeeeeeeeeeeeeeeeee",
                "label": "Ether"
            },
            {
                "address": "0xb267deaace0b8c5fcb2bb04801a364e7af7da3f4",
                "label": "SDAOTokenStaking"
            },
            {
                "address": "0xf0d33beda4d734c72684b5f9abbebf715d0a7935",
                "label": "NuNet: NTX Token"
            },
            {
                "address": "0x0000000000000000000000000000000000000001",
                "label": "Precompiled"
            },
            {
                "address": "0x0000000000000000000000000000000000000002",
                "label": "Precompiled"
            },
            {
                "address": "0x0000000000000000000000000000000000000003",
                "label": "Precompiled"
            },
            {
                "address": "0x0000000000000000000000000000000000000004",
                "label": "Precompiled"
            }
        ]
    },
    "trace": {
        "accountLabels": null,
        "dataMap": {
            "-1": {
                "invocation": {
                    "address": "0xc8422cefd499e453039290fa7133a396ed641381",
                    "callData": "",
                    "decodedMethod": null,
                    "errorInfo": "",
                    "fromAddress": "",
                    "gasUsed": 0,
                    "id": -1,
                    "methodDecoded": false,
                    "operation": "",
                    "output": "",
                    "revert": false,
                    "revertMessage": "",
                    "selector": "",
                    "status": false,
                    "value": ""
                },
                "nodeType": 0
            },
            "0": {
                "invocation": {
                    "address": "0xb267deaace0b8c5fcb2bb04801a364e7af7da3f4",
                    "callData": "0x000000000000000000000000000000000000000000000000000000000000000100000000000000000000000000000000000000000000000000000001bf08eb00000000000000000000000000c8422cefd499e453039290fa7133a396ed641381",
                    "decodedMethod": {
                        "callParams": [
                            {
                                "name": "_pid",
                                "type": "uint256",
                                "value": "1"
                            },
                            {
                                "name": "_amount",
                                "type": "uint256",
                                "value": "7,500,000,000"
                            },
                            {
                                "name": "_to",
                                "type": "address",
                                "value": "0xc8422cefd499e453039290fa7133a396ed641381"
                            }
                        ],
                        "constructorArguments": "",
                        "name": "deposit",
                        "returnParams": [],
                        "signature": "deposit(uint256,uint256,address)"
                    },
                    "errorInfo": "",
                    "fromAddress": "0xc8422cefd499e453039290fa7133a396ed641381",
                    "gasUsed": 93167,
                    "id": 0,
                    "methodDecoded": true,
                    "operation": "CALL",
                    "output": "",
                    "revert": false,
                    "revertMessage": "",
                    "selector": "0x8dbdbe6d",
                    "status": true,
                    "value": "0"
                },
                "nodeType": 0
            },
            "1": {
                "event": {
                    "contract": "0xb267deaace0b8c5fcb2bb04801a364e7af7da3f4",
                    "decodedLog": {
                        "name": "LogUpdatePool",
                        "params": [
                            {
                                "name": "pid",
                                "type": "uint256",
                                "value": "1"
                            },
                            {
                                "name": "lastRewardBlock",
                                "type": "uint256",
                                "value": "16,167,296"
                            },
                            {
                                "name": "lpSupply",
                                "type": "uint256",
                                "value": "71,389,509,899,433"
                            },
                            {
                                "name": "accRewardsPerShare",
                                "type": "uint256",
                                "value": "252,097,794,800,897,095"
                            }
                        ],
                        "signature": "LogUpdatePool(uint256,uint256,uint256,uint256)"
                    },
                    "id": 1,
                    "logData": "0x0000000000000000000000000000000000000000000000000000000000f6b180000000000000000000000000000000000000000000000000000040edaa60d4a9000000000000000000000000000000000000000000000000037fa19bd3c44c47",
                    "logDecoded": true,
                    "operation": "EVENT",
                    "revert": false,
                    "status": true,
                    "topics": [
                        "0xcb7325664a4a3b7c7223eefc492a97ca4fdf94d46884621e5a8fae5a04b2b9d2",
                        "0x0000000000000000000000000000000000000000000000000000000000000001"
                    ]
                },
                "nodeType": 1
            },
            "2": {
                "invocation": {
                    "address": "0xf0d33beda4d734c72684b5f9abbebf715d0a7935",
                    "callData": "0x000000000000000000000000c8422cefd499e453039290fa7133a396ed641381000000000000000000000000b267deaace0b8c5fcb2bb04801a364e7af7da3f400000000000000000000000000000000000000000000000000000001bf08eb00",
                    "decodedMethod": {
                        "callParams": [
                            {
                                "name": "sender",
                                "type": "address",
                                "value": "0xc8422cefd499e453039290fa7133a396ed641381"
                            },
                            {
                                "name": "recipient",
                                "type": "address",
                                "value": "0xb267deaace0b8c5fcb2bb04801a364e7af7da3f4"
                            },
                            {
                                "decimalAvailable": true,
                                "name": "amount",
                                "type": "uint256",
                                "value": "7,500,000,000"
                            }
                        ],
                        "constructorArguments": "",
                        "name": "transferFrom",
                        "returnParams": [
                            {
                                "name": "",
                                "type": "bool",
                                "value": true
                            }
                        ],
                        "signature": "transferFrom(address,address,uint256)"
                    },
                    "errorInfo": "",
                    "fromAddress": "0xb267deaace0b8c5fcb2bb04801a364e7af7da3f4",
                    "gasUsed": 22671,
                    "id": 2,
                    "methodDecoded": true,
                    "operation": "CALL",
                    "output": "0x0000000000000000000000000000000000000000000000000000000000000001",
                    "revert": false,
                    "revertMessage": "",
                    "selector": "0x23b872dd",
                    "status": true,
                    "value": "0"
                },
                "nodeType": 0
            },
            "3": {
                "event": {
                    "contract": "0xf0d33beda4d734c72684b5f9abbebf715d0a7935",
                    "decodedLog": {
                        "name": "Transfer",
                        "params": [
                            {
                                "name": "from",
                                "type": "address",
                                "value": "0xc8422cefd499e453039290fa7133a396ed641381"
                            },
                            {
                                "name": "to",
                                "type": "address",
                                "value": "0xb267deaace0b8c5fcb2bb04801a364e7af7da3f4"
                            },
                            {
                                "decimalAvailable": true,
                                "name": "value",
                                "type": "uint256",
                                "value": "7,500,000,000"
                            }
                        ],
                        "signature": "Transfer(address,address,uint256)"
                    },
                    "id": 3,
                    "logData": "0x00000000000000000000000000000000000000000000000000000001bf08eb00",
                    "logDecoded": true,
                    "operation": "EVENT",
                    "revert": false,
                    "status": true,
                    "topics": [
                        "0xddf252ad1be2c89b69c2b068fc378daa952ba7f163c4a11628f55a4df523b3ef",
                        "0x000000000000000000000000c8422cefd499e453039290fa7133a396ed641381",
                        "0x000000000000000000000000b267deaace0b8c5fcb2bb04801a364e7af7da3f4"
                    ]
                },
                "nodeType": 1
            },
            "4": {
                "event": {
                    "contract": "0xf0d33beda4d734c72684b5f9abbebf715d0a7935",
                    "decodedLog": {
                        "name": "Approval",
                        "params": [
                            {
                                "name": "owner",
                                "type": "address",
                                "value": "0xc8422cefd499e453039290fa7133a396ed641381"
                            },
                            {
                                "name": "spender",
                                "type": "address",
                                "value": "0xb267deaace0b8c5fcb2bb04801a364e7af7da3f4"
                            },
                            {
                                "decimalAvailable": true,
                                "name": "value",
                                "type": "uint256",
                                "value": "115,792,089,237,316,195,423,570,985,008,687,907,853,269,984,665,640,564,039,457,584,007,843,029,639,935"
                            }
                        ],
                        "signature": "Approval(address,address,uint256)"
                    },
                    "id": 4,
                    "logData": "0xffffffffffffffffffffffffffffffffffffffffffffffffffffffefadb6e2ff",
                    "logDecoded": true,
                    "operation": "EVENT",
                    "revert": false,
                    "status": true,
                    "topics": [
                        "0x8c5be1e5ebec7d5bd14f71427d1e84f3dd0314c0f7b2291e5b200ac8c7c3b925",
                        "0x000000000000000000000000c8422cefd499e453039290fa7133a396ed641381",
                        "0x000000000000000000000000b267deaace0b8c5fcb2bb04801a364e7af7da3f4"
                    ]
                },
                "nodeType": 1
            },
            "5": {
                "event": {
                    "contract": "0xb267deaace0b8c5fcb2bb04801a364e7af7da3f4",
                    "decodedLog": {
                        "name": "Deposit",
                        "params": [
                            {
                                "name": "user",
                                "type": "address",
                                "value": "0xc8422cefd499e453039290fa7133a396ed641381"
                            },
                            {
                                "name": "pid",
                                "type": "uint256",
                                "value": "1"
                            },
                            {
                                "name": "to",
                                "type": "address",
                                "value": "0xc8422cefd499e453039290fa7133a396ed641381"
                            },
                            {
                                "name": "amount",
                                "type": "uint256",
                                "value": "7,500,000,000"
                            }
                        ],
                        "signature": "Deposit(address,uint256,uint256,address)"
                    },
                    "id": 5,
                    "logData": "0x00000000000000000000000000000000000000000000000000000001bf08eb00",
                    "logDecoded": true,
                    "operation": "EVENT",
                    "revert": false,
                    "status": true,
                    "topics": [
                        "0x02d7e648dd130fc184d383e55bb126ac4c9c60e8f94bf05acdf557ba2d540b47",
                        "0x000000000000000000000000c8422cefd499e453039290fa7133a396ed641381",
                        "0x0000000000000000000000000000000000000000000000000000000000000001",
                        "0x000000000000000000000000c8422cefd499e453039290fa7133a396ed641381"
                    ]
                },
                "nodeType": 1
            }
        },
        "gasFlame": [
            {
                "children": [
                    {
                        "children": [
                            {
                                "children": [],
                                "depth": 0,
                                "name": "Initial Gas",
                                "value": 21748
                            },
                            {
                                "children": [
                                    {
                                        "children": [],
                                        "depth": 1,
                                        "name": "transferFrom",
                                        "value": 22671
                                    }
                                ],
                                "depth": 0,
                                "name": "Executed Gas",
                                "value": 74219
                            }
                        ],
                        "depth": -1,
                        "name": "Actual Gas Used",
                        "value": 93167
                    },
                    {
                        "children": [],
                        "depth": -1,
                        "name": "Refunded Gas",
                        "value": 2800
                    }
                ],
                "depth": -2,
                "name": "Total Gas",
                "value": 95967
            }
        ],
        "isConfirmed": true,
        "mainTrace": [
            {
                "children": [
                    {
                        "children": [
                            {
                                "children": [],
                                "depth": 1,
                                "id": 1,
                                "order": 1
                            },
                            {
                                "children": [
                                    {
                                        "children": [],
                                        "depth": 2,
                                        "id": 3,
                                        "order": 3
                                    },
                                    {
                                        "children": [],
                                        "depth": 2,
                                        "id": 4,
                                        "order": 4
                                    }
                                ],
                                "depth": 1,
                                "id": 2,
                                "order": 2
                            },
                            {
                                "children": [],
                                "depth": 1,
                                "id": 5,
                                "order": 5
                            }
                        ],
                        "depth": 0,
                        "id": 0,
                        "order": 0
                    }
                ],
                "depth": -1,
                "id": -1,
                "order": -1
            }
        ],
        "mainTraceNodeCount": 6,
        "parentIdMap": {
            "0": -1,
            "1": 0,
            "2": 0,
            "3": 2,
            "4": 2,
            "5": 0
        },
        "tidyTrace": [
            {
                "children": [
                    {
                        "children": [
                            {
                                "children": [],
                                "depth": 1,
                                "id": 1,
                                "order": 1
                            },
                            {
                                "children": [
                                    {
                                        "children": [],
                                        "depth": 2,
                                        "id": 3,
                                        "order": 3
                                    },
                                    {
                                        "children": [],
                                        "depth": 2,
                                        "id": 4,
                                        "order": 4
                                    }
                                ],
                                "depth": 1,
                                "id": 2,
                                "order": 2
                            },
                            {
                                "children": [],
                                "depth": 1,
                                "id": 5,
                                "order": 5
                            }
                        ],
                        "depth": 0,
                        "id": 0,
                        "order": 0
                    }
                ],
                "depth": -1,
                "id": -1,
                "order": -1
            }
        ],
        "tidyTraceNodeCount": 6
    },
    "state_change": {
        "stateChanges": [
            {
                "address": "0xb267deaace0b8c5fcb2bb04801a364e7af7da3f4",
                "erc": "",
                "slots": [
                    {
                        "current": "0x000000000000000000000000000000000000000000000000037fa19bd3c44c47",
                        "key": "0x405787fa12a823e0f2b7631cc41b3ba8828b3321ca811111fa75cd3aa3bb5ad5",
                        "prev": "0x000000000000000000000000000000000000000000000000037fa157380e1f00"
                    },
                    {
                        "current": "0x0000000000000000000000000000000000000000000000000000000000f6b180",
                        "key": "0x405787fa12a823e0f2b7631cc41b3ba8828b3321ca811111fa75cd3aa3bb5ad6",
                        "prev": "0x0000000000000000000000000000000000000000000000000000000000f6b176"
                    },
                    {
                        "current": "0x0000000000000000000000000000000000000000000000000000001052491d00",
                        "key": "0x9854324e797f1c403de99bf65b8ad53ad0277a15070486f25ec74c9d50b056a1",
                        "prev": "0x0000000000000000000000000000000000000000000000000000000e93403200"
                    },
                    {
                        "current": "0x000000000000000000000000000000000000000000000000000000041d55e269",
                        "key": "0x9854324e797f1c403de99bf65b8ad53ad0277a15070486f25ec74c9d50b056a2",
                        "prev": "0x00000000000000000000000000000000000000000000000000000003aca394d4"
                    },
                    {
                        "current": "0x000000000000000000000000000000000000000000000000000040ef6969bfa9",
                        "key": "0x405787fa12a823e0f2b7631cc41b3ba8828b3321ca811111fa75cd3aa3bb5ad4",
                        "prev": "0x000000000000000000000000000000000000000000000000000040edaa60d4a9"
                    }
                ],
                "storageVariables": [
                    {
                        "name": "poolInfo",
                        "type": "struct SDAOTokenStaking.PoolInfo[]",
                        "value": {
                            "elemType": "struct SDAOTokenStaking.PoolInfo",
                            "elems": [
                                {
                                    "index": 1,
                                    "value": {
                                        "fields": [
                                            {
                                                "name": "lpSupply",
                                                "type": "uint256",
                                                "value": {
                                                    "current": "71397009899433",
                                                    "prev": "71389509899433",
                                                    "typeTag": 1
                                                }
                                            },
                                            {
                                                "name": "accRewardsPerShare",
                                                "type": "uint256",
                                                "value": {
                                                    "current": "252097794800897095",
                                                    "prev": "252097500130713344",
                                                    "typeTag": 1
                                                }
                                            },
                                            {
                                                "name": "lastRewardBlock",
                                                "type": "uint256",
                                                "value": {
                                                    "current": "16167296",
                                                    "prev": "16167286",
                                                    "typeTag": 1
                                                }
                                            }
                                        ],
                                        "typeTag": 3
                                    }
                                }
                            ],
                            "typeTag": 2
                        }
                    },
                    {
                        "name": "userInfo",
                        "type": "mapping(uint256 => mapping(address => struct SDAOTokenStaking.UserInfo))",
                        "value": {
                            "pairs": [
                                {
                                    "key": "1",
                                    "value": {
                                        "pairs": [
                                            {
                                                "key": "0xc8422cefd499e453039290fa7133a396ed641381",
                                                "value": {
                                                    "fields": [
                                                        {
                                                            "name": "amount",
                                                            "type": "uint256",
                                                            "value": {
                                                                "current": "70100000000",
                                                                "prev": "62600000000",
                                                                "typeTag": 1
                                                            }
                                                        },
                                                        {
                                                            "name": "rewardDebt",
                                                            "type": "int256",
                                                            "value": {
                                                                "current": "17672036969",
                                                                "prev": "15781303508",
                                                                "typeTag": 1
                                                            }
                                                        }
                                                    ],
                                                    "typeTag": 3
                                                }
                                            }
                                        ],
                                        "typeTag": 4
                                    }
                                }
                            ],
                            "typeTag": 4
                        }
                    }
                ]
            },
            {
                "address": "0xf0d33beda4d734c72684b5f9abbebf715d0a7935",
                "erc": "ERC-20",
                "slots": [
                    {
                        "current": "0xffffffffffffffffffffffffffffffffffffffffffffffffffffffefadb6e2ff",
                        "key": "0x761204b824fd1b4ec16d85e1ba6a0c10b0b9189eb2ce2fc4f5e192049fecb76b",
                        "prev": "0xfffffffffffffffffffffffffffffffffffffffffffffffffffffff16cbfcdff"
                    },
                    {
                        "current": "0x000000000000000000000000000000000000000000000000000000000d3034f2",
                        "key": "0x8246ba8cb807985dd71159d0f8dbec12a778f1c0936a8dc30ac347e181193801",
                        "prev": "0x00000000000000000000000000000000000000000000000000000001cc391ff2"
                    },
                    {
                        "current": "0x0000000000000000000000000000000000000000000000000000429b72e46dad",
                        "key": "0x5871cfc1654228e19db6f075430fc0d5ff69ba574969ff97524d0fbc1263a769",
                        "prev": "0x00000000000000000000000000000000000000000000000000004299b3db82ad"
                    }
                ],
                "storageVariables": [
                    {
                        "name": "_allowances",
                        "type": "mapping(address => mapping(address => uint256))",
                        "value": {
                            "pairs": [
                                {
                                    "key": "0xc8422cefd499e453039290fa7133a396ed641381",
                                    "value": {
                                        "pairs": [
                                            {
                                                "key": "0xb267deaace0b8c5fcb2bb04801a364e7af7da3f4",
                                                "value": {
                                                    "current": "115792089237316195423570985008687907853269984665640564039457584007843029639935",
                                                    "prev": "115792089237316195423570985008687907853269984665640564039457584007850529639935",
                                                    "typeTag": 1
                                                }
                                            }
                                        ],
                                        "typeTag": 4
                                    }
                                }
                            ],
                            "typeTag": 4
                        }
                    },
                    {
                        "name": "_balances",
                        "type": "mapping(address => uint256)",
                        "value": {
                            "pairs": [
                                {
                                    "key": "0xb267deaace0b8c5fcb2bb04801a364e7af7da3f4",
                                    "value": {
                                        "current": "73235414937005",
                                        "prev": "73227914937005",
                                        "typeTag": 1
                                    }
                                },
                                {
                                    "key": "0xc8422cefd499e453039290fa7133a396ed641381",
                                    "value": {
                                        "current": "221263090",
                                        "prev": "7721263090",
                                        "typeTag": 1
                                    }
                                }
                            ],
                            "typeTag": 4
                        }
                    }
                ]
            }
        ]
    }
}