{
    "balance_change": {
        "balanceChanges": [
            {
                "account": "0x7fc402e0315d00325877397f088072ed14288210",
                "assets": [
                    {
                        "address": "0x4f8b986ecffe7bed5dbeb2b49310fb00ca85a539",
                        "amount": "31.093273884195113771",
                        "iconUrl": "",
                        "isERC1155": false,
                        "isERC721": false,
                        "sign": false,
                        "value": "493.3041874"
                    },
                    {
                        "address": "0xeeeeeeeeeeeeeeeeeeeeeeeeeeeeeeeeeeeeeeee",
                        "amount": "0.310040369630187577",
                        "iconUrl": "https://assets.blocksec.com/image/1663669189317-3.png",
                        "isERC1155": false,
                        "isERC721": false,
                        "sign": true,
                        "value": "486.2983197176"
                    }
                ]
            },
            {
                "account": "0x00000047bb99ea4d791bb749d970de71ee0b1a34",
                "assets": [
                    {
                        "address": "0x4f8b986ecffe7bed5dbeb2b49310fb00ca85a539",
                        "amount": "0.093279821652585341",
                        "iconUrl": "",
                        "isERC1155": false,
                        "isERC721": false,
                        "sign": true,
                        "value": "1.47744979"
                    }
                ]
            },
            {
                "account": "0x0d4a11d5eeaac28ec3f61d100daf4d40471f1852",
                "assets": [
                    {
                        "address": "0xdac17f958d2ee523a2206206994597c13d831ec7",
                        "amount": "486.586454",
                        "iconUrl": "https://assets.blocksec.com/icon/fcea71f3193ce895be44bfdf941f7e4c9381dd587f273c2d1a27f1263d84e4ea.png",
                        "isERC1155": false,
                        "isERC721": false,
                        "sign": true,
                        "value": "486.586454"
                    },
                    {
                        "address": "0xc02aaa39b223fe8d0a0e5c4f27ead9083c756cc2",
                        "amount": "0.310040369630187577",
                        "iconUrl": "https://assets.blocksec.com/icon/f1cb2d02c471d545bbc7722daf3277fd852d98e63d118771af7047bd8256c516.png",
                        "isERC1155": false,
                        "isERC721": false,
                        "sign": false,
                        "value": "486.2983197176"
                    }
                ]
            },
            {
                "account": "0x7c30ffc4fea98deb6aad172d6e3d673c962c13f5",
                "assets": [
                    {
                        "address": "0x4f8b986ecffe7bed5dbeb2b49310fb00ca85a539",
                        "amount": "30.99999406254252843",
                        "iconUrl": "",
                        "isERC1155": false,
                        "isERC721": false,
                        "sign": true,
                        "value": "490.1954992"
                    },
                    {
                        "address": "0xdac17f958d2ee523a2206206994597c13d831ec7",
                        "amount": "486.586454",
                        "iconUrl": "https://assets.blocksec.com/icon/fcea71f3193ce895be44bfdf941f7e4c9381dd587f273c2d1a27f1263d84e4ea.png",
                        "isERC1155": false,
                        "isERC721": false,
                        "sign": false,
                        "value": "486.586454"
                    }
                ]
            },
            {
                "account": "0xc02aaa39b223fe8d0a0e5c4f27ead9083c756cc2",
                "assets": [
                    {
                        "address": "0xeeeeeeeeeeeeeeeeeeeeeeeeeeeeeeeeeeeeeeee",
                        "amount": "0.310040369630187577",
                        "iconUrl": "https://assets.blocksec.com/image/1663669189317-3.png",
                        "isERC1155": false,
                        "isERC721": false,
                        "sign": false,
                        "value": "486.2983197176"
                    },
                    {
                        "address": "0xc02aaa39b223fe8d0a0e5c4f27ead9083c756cc2",
                        "amount": "0.310040369630187577",
                        "iconUrl": "https://assets.blocksec.com/icon/f1cb2d02c471d545bbc7722daf3277fd852d98e63d118771af7047bd8256c516.png",
                        "isERC1155": false,
                        "isERC721": false,
                        "sign": true,
                        "value": "486.2983197176"
                    }
                ]
            }
        ]
    },
    "profile": {
        "basic_info": {
            "baseFee": "16.01794703",
            "blockNumber": 18386047,
            "callData": "0x0dc4bdae00000000000000000000000000000000000000000000000000000000000000400000000000000000000000000000000000000000000000000000000065317da70000000000000000000000007fc402e0315d00325877397f088072ed14288210000000000000000000000000c02aaa39b223fe8d0a0e5c4f27ead9083c756cc20000000000000000000000007a250d5630b4cf539739df2c5dacb4c659f2488d000000000000000000000000000000000000000000000001af817fdbc3614b2b00000000000000000000000000000000000000000000000004214f5dc55e16d8000000000000000000000000000000000000000000000000014b6580ea506b7d000000000000000000000000000000000000000000000000000000000000014000000000000000000000000000000000000000000000000000000000000001c00000000000000000000000000000000000000000000000000000000000000220000000000000000000000000000000000000000000000000000000000000024000000000000000000000000000000000000000000000000000000000000000030000000000000000000000004f8b986ecffe7bed5dbeb2b49310fb00ca85a539000000000000000000000000dac17f958d2ee523a2206206994597c13d831ec7000000000000000000000000000000000000000000000000000000000000000000000000000000000000000000000000000000000000000000000000000000020000000000000000000000007c30ffc4fea98deb6aad172d6e3d673c962c13f50000000000000000000000000d4a11d5eeaac28ec3f61d100daf4d40471f185200000000000000000000000000000000000000000000000000000000000000000000000000000000000000000000000000000000000000000000000000000003696f730000000000000000000000000000000000000000000000000000000000",
            "debugEnable": true,
            "errorInfo": "",
            "eventCount": 11,
            "feeRecipient": "0x95222290dd7278aa3ddd389cc1e1d165cc4bafe5",
            "formatValue": "0",
            "gasLimit": 315235,
            "gasPrice": "17.85",
            "gasUsed": 192047,
            "intTxnCount": 18,
            "internalRevert": false,
            "internalRevertMessage": "",
            "isContractCreation": false,
            "isFlashloan": false,
            "maxFee": "",
            "nonce": 30,
            "overwritedBlockNumber": -1,
            "priorityFee": "",
            "receiver": "0x00000047bb99ea4d791bb749d970de71ee0b1a34",
            "revertMessage": "",
            "sender": "0x7fc402e0315d00325877397f088072ed14288210",
            "simulationEnable": true,
            "sourceTxnHash": "0x1e0f883ed02fad2b5a982ed4278c2b6bf77f486c91150c211ba63fe0e00c6fa9",
            "status": true,
            "timestamp": "2023-10-19T18:04:11Z",
            "transactionFee": "0.00342803895",
            "txnHash": "0x1e0f883ed02fad2b5a982ed4278c2b6bf77f486c91150c211ba63fe0e00c6fa9",
            "txnIndex": 64,
            "type": 0,
            "value": "0"
        },
        "fund_flow": [
            {
                "amount": "31.093273884195113771",
                "from": "0x7fc402e0315d00325877397f088072ed14288210",
                "id": 1,
                "isERC1155": false,
                "isERC721": false,
                "isReverted": false,
                "order": 1,
                "to": "0x00000047bb99ea4d791bb749d970de71ee0b1a34",
                "token": "0x4f8b986ecffe7bed5dbeb2b49310fb00ca85a539"
            },
            {
                "amount": "30.99999406254252843",
                "from": "0x00000047bb99ea4d791bb749d970de71ee0b1a34",
                "id": 2,
                "isERC1155": false,
                "isERC721": false,
                "isReverted": false,
                "order": 2,
                "to": "0x7c30ffc4fea98deb6aad172d6e3d673c962c13f5",
                "token": "0x4f8b986ecffe7bed5dbeb2b49310fb00ca85a539"
            },
            {
                "amount": "486.586454",
                "from": "0x7c30ffc4fea98deb6aad172d6e3d673c962c13f5",
                "id": 3,
                "isERC1155": false,
                "isERC721": false,
                "isReverted": false,
                "order": 3,
                "to": "0x0d4a11d5eeaac28ec3f61d100daf4d40471f1852",
                "token": "0xdac17f958d2ee523a2206206994597c13d831ec7"
            },
            {
                "amount": "0.310040369630187577",
                "from": "0x0d4a11d5eeaac28ec3f61d100daf4d40471f1852",
                "id": 4,
                "isERC1155": false,
                "isERC721": false,
                "isReverted": false,
                "order": 4,
                "to": "0x00000047bb99ea4d791bb749d970de71ee0b1a34",
                "token": "0xc02aaa39b223fe8d0a0e5c4f27ead9083c756cc2"
            },
            {
                "amount": "0.310040369630187577",
                "from": "0xc02aaa39b223fe8d0a0e5c4f27ead9083c756cc2",
                "id": 5,
                "isERC1155": false,
                "isERC721": false,
                "isReverted": false,
                "order": 5,
                "to": "0x00000047bb99ea4d791bb749d970de71ee0b1a34",
                "token": "0xeeeeeeeeeeeeeeeeeeeeeeeeeeeeeeeeeeeeeeee"
            },
            {
                "amount": "0.310040369630187577",
                "from": "0x00000047bb99ea4d791bb749d970de71ee0b1a34",
                "id": 6,
                "isERC1155": false,
                "isERC721": false,
                "isReverted": false,
                "order": 6,
                "to": "0xc02aaa39b223fe8d0a0e5c4f27ead9083c756cc2",
                "token": "0xc02aaa39b223fe8d0a0e5c4f27ead9083c756cc2"
            },
            {
                "amount": "0.310040369630187577",
                "from": "0x00000047bb99ea4d791bb749d970de71ee0b1a34",
                "id": 7,
                "isERC1155": false,
                "isERC721": false,
                "isReverted": false,
                "order": 7,
                "to": "0x7fc402e0315d00325877397f088072ed14288210",
                "token": "0xeeeeeeeeeeeeeeeeeeeeeeeeeeeeeeeeeeeeeeee"
            }
        ],
        "token_infos": [
            {
                "address": "0xc02aaa39b223fe8d0a0e5c4f27ead9083c756cc2",
                "decimals": 18
            },
            {
                "address": "0xdac17f958d2ee523a2206206994597c13d831ec7",
                "decimals": 6
            },
            {
                "address": "0xeeeeeeeeeeeeeeeeeeeeeeeeeeeeeeeeeeeeeeee",
                "decimals": 18
            },
            {
                "address": "0x4f8b986ecffe7bed5dbeb2b49310fb00ca85a539",
                "decimals": 18
            }
        ]
    },
    "address_label": {
        "labels": [
            {
                "address": "0x0000000000000000000000000000000000000002",
                "label": "Precompiled"
            },
            {
                "address": "0x0000000000000000000000000000000000000004",
                "label": "Precompiled"
            },
            {
                "address": "0xeeeeeeeeeeeeeeeeeeeeeeeeeeeeeeeeeeeeeeee",
                "label": "Ether"
            },
            {
                "address": "0x7a250d5630b4cf539739df2c5dacb4c659f2488d",
                "label": "Uniswap V2: Router 2"
            },
            {
                "address": "0xc02aaa39b223fe8d0a0e5c4f27ead9083c756cc2",
                "label": "Wrapped Ether (WETH)"
            },
            {
                "address": "0x0d4a11d5eeaac28ec3f61d100daf4d40471f1852",
                "label": "Uniswap V2: USDT"
            },
            {
                "address": "0x4f8b986ecffe7bed5dbeb2b49310fb00ca85a539",
                "label": "$Rekt: Old $REKT Token"
            },
            {
                "address": "0x00000047bb99ea4d791bb749d970de71ee0b1a34",
                "label": "TransitSwap v5: Router"
            },
            {
                "address": "0x0000000000000000000000000000000000000003",
                "label": "Precompiled"
            },
            {
                "address": "0xdac17f958d2ee523a2206206994597c13d831ec7",
                "label": "Tether: USDT Stablecoin"
            },
            {
                "address": "0x0000000000000000000000000000000000000000",
                "label": "Null Address"
            },
            {
                "address": "0x0000000000000000000000000000000000000001",
                "label": "Precompiled"
            },
            {
                "address": "0x7c30ffc4fea98deb6aad172d6e3d673c962c13f5",
                "label": "Uniswap V2: $REKT-USDT 5"
            }
        ]
    },
    "trace": {
        "accountLabels": null,
        "dataMap": {
            "-1": {
                "invocation": {
                    "address": "0x7fc402e0315d00325877397f088072ed14288210",
                    "callData": "",
                    "decodedMethod": null,
                    "errorInfo": "",
                    "fromAddress": "",
                    "gasUsed": 0,
                    "id": -1,
                    "methodDecoded": false,
                    "operation": "",
                    "output": "",
                    "revert": false,
                    "revertMessage": "",
                    "selector": "",
                    "status": false,
                    "value": ""
                },
                "nodeType": 0
            },
            "0": {
                "invocation": {
                    "address": "0x00000047bb99ea4d791bb749d970de71ee0b1a34",
                    "callData": "0x00000000000000000000000000000000000000000000000000000000000000400000000000000000000000000000000000000000000000000000000065317da70000000000000000000000007fc402e0315d00325877397f088072ed14288210000000000000000000000000c02aaa39b223fe8d0a0e5c4f27ead9083c756cc20000000000000000000000007a250d5630b4cf539739df2c5dacb4c659f2488d000000000000000000000000000000000000000000000001af817fdbc3614b2b00000000000000000000000000000000000000000000000004214f5dc55e16d8000000000000000000000000000000000000000000000000014b6580ea506b7d000000000000000000000000000000000000000000000000000000000000014000000000000000000000000000000000000000000000000000000000000001c00000000000000000000000000000000000000000000000000000000000000220000000000000000000000000000000000000000000000000000000000000024000000000000000000000000000000000000000000000000000000000000000030000000000000000000000004f8b986ecffe7bed5dbeb2b49310fb00ca85a539000000000000000000000000dac17f958d2ee523a2206206994597c13d831ec7000000000000000000000000000000000000000000000000000000000000000000000000000000000000000000000000000000000000000000000000000000020000000000000000000000007c30ffc4fea98deb6aad172d6e3d673c962c13f50000000000000000000000000d4a11d5eeaac28ec3f61d100daf4d40471f185200000000000000000000000000000000000000000000000000000000000000000000000000000000000000000000000000000000000000000000000000000003696f730000000000000000000000000000000000000000000000000000000000",
                    "decodedMethod": {
                        "callParams": [
                            {
                                "name": "exactInput",
                                "type": "(address,address,uint256,uint256,uint256,uint256,address[],address[],bytes,string)",
                                "value": [
                                    {
                                        "name": "dstReceiver",
                                        "type": "address",
                                        "value": "0x7fc402e0315d00325877397f088072ed14288210"
                                    },
                                    {
                                        "name": "wrappedToken",
                                        "type": "address",
                                        "value": "0xc02aaa39b223fe8d0a0e5c4f27ead9083c756cc2"
                                    },
                                    {
                                        "name": "router",
                                        "type": "uint256",
                                        "value": "697,323,163,401,596,485,410,334,513,241,460,920,685,086,001,293"
                                    },
                                    {
                                        "name": "amount",
                                        "type": "uint256",
                                        "value": "31,093,273,884,195,113,771"
                                    },
                                    {
                                        "name": "minReturnAmount",
                                        "type": "uint256",
                                        "value": "297,606,314,544,994,008"
                                    },
                                    {
                                        "name": "fee",
                                        "type": "uint256",
                                        "value": "93,279,821,652,585,341"
                                    },
                                    {
                                        "name": "path",
                                        "type": "address[]",
                                        "value": [
                                            "0x4f8b986ecffe7bed5dbeb2b49310fb00ca85a539",
                                            "0xdac17f958d2ee523a2206206994597c13d831ec7",
                                            "0x0000000000000000000000000000000000000000"
                                        ]
                                    },
                                    {
                                        "name": "pool",
                                        "type": "address[]",
                                        "value": [
                                            "0x7c30ffc4fea98deb6aad172d6e3d673c962c13f5",
                                            "0x0d4a11d5eeaac28ec3f61d100daf4d40471f1852"
                                        ]
                                    },
                                    {
                                        "name": "signature",
                                        "type": "bytes",
                                        "value": "0x"
                                    },
                                    {
                                        "name": "channel",
                                        "type": "string",
                                        "value": "ios"
                                    }
                                ]
                            },
                            {
                                "name": "deadline",
                                "type": "uint256",
                                "value": "1,697,742,247"
                            }
                        ],
                        "constructorArguments": "",
                        "name": "exactInputV2Swap",
                        "returnParams": [
                            {
                                "name": "returnAmount",
                                "type": "uint256",
                                "value": "310,040,369,630,187,577"
                            }
                        ],
                        "signature": "exactInputV2Swap((address,address,uint256,uint256,uint256,uint256,address[],address[],bytes,string),uint256)"
                    },
                    "errorInfo": "",
                    "fromAddress": "0x7fc402e0315d00325877397f088072ed14288210",
                    "gasUsed": 192047,
                    "id": 0,
                    "methodDecoded": true,
                    "operation": "CALL",
                    "output": "0x000000000000000000000000000000000000000000000000044d7c12d1d69039",
                    "revert": false,
                    "revertMessage": "",
                    "selector": "0x0dc4bdae",
                    "status": true,
                    "value": "0"
                },
                "nodeType": 0
            },
            "1": {
                "invocation": {
                    "address": "0x4f8b986ecffe7bed5dbeb2b49310fb00ca85a539",
                    "callData": "0x0000000000000000000000007fc402e0315d00325877397f088072ed1428821000000000000000000000000000000047bb99ea4d791bb749d970de71ee0b1a34000000000000000000000000000000000000000000000001af817fdbc3614b2b",
                    "decodedMethod": {
                        "callParams": [
                            {
                                "name": "from",
                                "type": "address",
                                "value": "0x7fc402e0315d00325877397f088072ed14288210"
                            },
                            {
                                "name": "to",
                                "type": "address",
                                "value": "0x00000047bb99ea4d791bb749d970de71ee0b1a34"
                            },
                            {
                                "decimalAvailable": true,
                                "name": "amount",
                                "type": "uint256",
                                "value": "31,093,273,884,195,113,771"
                            }
                        ],
                        "constructorArguments": "",
                        "name": "transferFrom",
                        "returnParams": [
                            {
                                "name": "",
                                "type": "bool",
                                "value": true
                            }
                        ],
                        "signature": "transferFrom(address,address,uint256)"
                    },
                    "errorInfo": "",
                    "fromAddress": "0x00000047bb99ea4d791bb749d970de71ee0b1a34",
                    "gasUsed": 15221,
                    "id": 1,
                    "methodDecoded": true,
                    "operation": "CALL",
                    "output": "0x0000000000000000000000000000000000000000000000000000000000000001",
                    "revert": false,
                    "revertMessage": "",
                    "selector": "0x23b872dd",
                    "status": true,
                    "value": "0"
                },
                "nodeType": 0
            },
            "10": {
                "invocation": {
                    "address": "0xdac17f958d2ee523a2206206994597c13d831ec7",
                    "callData": "0x0000000000000000000000000d4a11d5eeaac28ec3f61d100daf4d40471f1852000000000000000000000000000000000000000000000000000000001d00b856",
                    "decodedMethod": {
                        "callParams": [
                            {
                                "name": "_to",
                                "type": "address",
                                "value": "0x0d4a11d5eeaac28ec3f61d100daf4d40471f1852"
                            },
                            {
                                "decimalAvailable": true,
                                "name": "_value",
                                "type": "uint256",
                                "value": "486,586,454"
                            }
                        ],
                        "constructorArguments": "",
                        "name": "transfer",
                        "returnParams": [],
                        "signature": "transfer(address,uint256)"
                    },
                    "errorInfo": "",
                    "fromAddress": "0x7c30ffc4fea98deb6aad172d6e3d673c962c13f5",
                    "gasUsed": 24501,
                    "id": 10,
                    "methodDecoded": true,
                    "operation": "CALL",
                    "output": "",
                    "revert": false,
                    "revertMessage": "",
                    "selector": "0xa9059cbb",
                    "status": true,
                    "value": "0"
                },
                "nodeType": 0
            },
            "11": {
                "event": {
                    "contract": "0xdac17f958d2ee523a2206206994597c13d831ec7",
                    "decodedLog": {
                        "name": "Transfer",
                        "params": [
                            {
                                "name": "from",
                                "type": "address",
                                "value": "0x7c30ffc4fea98deb6aad172d6e3d673c962c13f5"
                            },
                            {
                                "name": "to",
                                "type": "address",
                                "value": "0x0d4a11d5eeaac28ec3f61d100daf4d40471f1852"
                            },
                            {
                                "decimalAvailable": true,
                                "name": "value",
                                "type": "uint256",
                                "value": "486,586,454"
                            }
                        ],
                        "signature": "Transfer(address,address,uint256)"
                    },
                    "id": 11,
                    "logData": "0x000000000000000000000000000000000000000000000000000000001d00b856",
                    "logDecoded": true,
                    "operation": "EVENT",
                    "revert": false,
                    "status": true,
                    "topics": [
                        "0xddf252ad1be2c89b69c2b068fc378daa952ba7f163c4a11628f55a4df523b3ef",
                        "0x0000000000000000000000007c30ffc4fea98deb6aad172d6e3d673c962c13f5",
                        "0x0000000000000000000000000d4a11d5eeaac28ec3f61d100daf4d40471f1852"
                    ]
                },
                "nodeType": 1
            },
            "12": {
                "invocation": {
                    "address": "0x4f8b986ecffe7bed5dbeb2b49310fb00ca85a539",
                    "callData": "0x0000000000000000000000007c30ffc4fea98deb6aad172d6e3d673c962c13f5",
                    "decodedMethod": {
                        "callParams": [
                            {
                                "name": "account",
                                "type": "address",
                                "value": "0x7c30ffc4fea98deb6aad172d6e3d673c962c13f5"
                            }
                        ],
                        "constructorArguments": "",
                        "name": "balanceOf",
                        "returnParams": [
                            {
                                "decimalAvailable": true,
                                "name": "",
                                "type": "uint256",
                                "value": "18,843,270,894,681,274,275,783"
                            }
                        ],
                        "signature": "balanceOf(address)"
                    },
                    "errorInfo": "",
                    "fromAddress": "0x7c30ffc4fea98deb6aad172d6e3d673c962c13f5",
                    "gasUsed": 629,
                    "id": 12,
                    "methodDecoded": true,
                    "operation": "STATICCALL",
                    "output": "0x0000000000000000000000000000000000000000000003fd7eea42c8de7157c7",
                    "revert": false,
                    "revertMessage": "",
                    "selector": "0x70a08231",
                    "status": true,
                    "value": "0"
                },
                "nodeType": 0
            },
            "13": {
                "invocation": {
                    "address": "0xdac17f958d2ee523a2206206994597c13d831ec7",
                    "callData": "0x0000000000000000000000007c30ffc4fea98deb6aad172d6e3d673c962c13f5",
                    "decodedMethod": {
                        "callParams": [
                            {
                                "name": "who",
                                "type": "address",
                                "value": "0x7c30ffc4fea98deb6aad172d6e3d673c962c13f5"
                            }
                        ],
                        "constructorArguments": "",
                        "name": "balanceOf",
                        "returnParams": [
                            {
                                "decimalAvailable": true,
                                "name": "",
                                "type": "uint256",
                                "value": "296,172,321,681"
                            }
                        ],
                        "signature": "balanceOf(address)"
                    },
                    "errorInfo": "",
                    "fromAddress": "0x7c30ffc4fea98deb6aad172d6e3d673c962c13f5",
                    "gasUsed": 1031,
                    "id": 13,
                    "methodDecoded": true,
                    "operation": "STATICCALL",
                    "output": "0x00000000000000000000000000000000000000000000000000000044f53efb91",
                    "revert": false,
                    "revertMessage": "",
                    "selector": "0x70a08231",
                    "status": true,
                    "value": "0"
                },
                "nodeType": 0
            },
            "14": {
                "event": {
                    "contract": "0x7c30ffc4fea98deb6aad172d6e3d673c962c13f5",
                    "decodedLog": {
                        "name": "Sync",
                        "params": [
                            {
                                "name": "reserve0",
                                "type": "uint112",
                                "value": "18,843,270,894,681,274,275,783"
                            },
                            {
                                "name": "reserve1",
                                "type": "uint112",
                                "value": "296,172,321,681"
                            }
                        ],
                        "signature": "Sync(uint112,uint112)"
                    },
                    "id": 14,
                    "logData": "0x0000000000000000000000000000000000000000000003fd7eea42c8de7157c700000000000000000000000000000000000000000000000000000044f53efb91",
                    "logDecoded": true,
                    "operation": "EVENT",
                    "revert": false,
                    "status": true,
                    "topics": [
                        "0x1c411e9a96e071241c2f21f7726b17ae89e3cab4c78be50e062b03a9fffbbad1"
                    ]
                },
                "nodeType": 1
            },
            "15": {
                "event": {
                    "contract": "0x7c30ffc4fea98deb6aad172d6e3d673c962c13f5",
                    "decodedLog": {
                        "name": "Swap",
                        "params": [
                            {
                                "name": "sender",
                                "type": "address",
                                "value": "0x00000047bb99ea4d791bb749d970de71ee0b1a34"
                            },
                            {
                                "name": "to",
                                "type": "address",
                                "value": "0x0d4a11d5eeaac28ec3f61d100daf4d40471f1852"
                            },
                            {
                                "name": "amount0In",
                                "type": "uint256",
                                "value": "30,999,994,062,542,528,430"
                            },
                            {
                                "name": "amount1In",
                                "type": "uint256",
                                "value": "0"
                            },
                            {
                                "name": "amount0Out",
                                "type": "uint256",
                                "value": "0"
                            },
                            {
                                "name": "amount1Out",
                                "type": "uint256",
                                "value": "486,586,454"
                            }
                        ],
                        "signature": "Swap(address,uint256,uint256,uint256,uint256,address)"
                    },
                    "id": 15,
                    "logData": "0x000000000000000000000000000000000000000000000001ae361a5ad910dfae00000000000000000000000000000000000000000000000000000000000000000000000000000000000000000000000000000000000000000000000000000000000000000000000000000000000000000000000000000000000000001d00b856",
                    "logDecoded": true,
                    "operation": "EVENT",
                    "revert": false,
                    "status": true,
                    "topics": [
                        "0xd78ad95fa46c994b6551d0da85fc275fe613ce37657fb8d5e3d130840159d822",
                        "0x00000000000000000000000000000047bb99ea4d791bb749d970de71ee0b1a34",
                        "0x0000000000000000000000000d4a11d5eeaac28ec3f61d100daf4d40471f1852"
                    ]
                },
                "nodeType": 1
            },
            "16": {
                "invocation": {
                    "address": "0x0d4a11d5eeaac28ec3f61d100daf4d40471f1852",
                    "callData": "0x000000000000000000000000000000000000000000000000044d7c12d1d69039000000000000000000000000000000000000000000000000000000000000000000000000000000000000000000000047bb99ea4d791bb749d970de71ee0b1a3400000000000000000000000000000000000000000000000000000000000000800000000000000000000000000000000000000000000000000000000000000000",
                    "decodedMethod": {
                        "callParams": [
                            {
                                "name": "amount0Out",
                                "type": "uint256",
                                "value": "310,040,369,630,187,577"
                            },
                            {
                                "name": "amount1Out",
                                "type": "uint256",
                                "value": "0"
                            },
                            {
                                "name": "to",
                                "type": "address",
                                "value": "0x00000047bb99ea4d791bb749d970de71ee0b1a34"
                            },
                            {
                                "name": "data",
                                "type": "bytes",
                                "value": "0x"
                            }
                        ],
                        "constructorArguments": "",
                        "name": "swap",
                        "returnParams": [],
                        "signature": "swap(uint256,uint256,address,bytes)"
                    },
                    "errorInfo": "",
                    "fromAddress": "0x00000047bb99ea4d791bb749d970de71ee0b1a34",
                    "gasUsed": 33334,
                    "id": 16,
                    "methodDecoded": true,
                    "operation": "CALL",
                    "output": "",
                    "revert": false,
                    "revertMessage": "",
                    "selector": "0x022c0d9f",
                    "status": true,
                    "value": "0"
                },
                "nodeType": 0
            },
            "17": {
                "invocation": {
                    "address": "0xc02aaa39b223fe8d0a0e5c4f27ead9083c756cc2",
                    "callData": "0x00000000000000000000000000000047bb99ea4d791bb749d970de71ee0b1a34000000000000000000000000000000000000000000000000044d7c12d1d69039",
                    "decodedMethod": {
                        "callParams": [
                            {
                                "name": "dst",
                                "type": "address",
                                "value": "0x00000047bb99ea4d791bb749d970de71ee0b1a34"
                            },
                            {
                                "decimalAvailable": true,
                                "name": "wad",
                                "type": "uint256",
                                "value": "310,040,369,630,187,577"
                            }
                        ],
                        "constructorArguments": "",
                        "name": "transfer",
                        "returnParams": [
                            {
                                "name": "",
                                "type": "bool",
                                "value": true
                            }
                        ],
                        "signature": "transfer(address,uint256)"
                    },
                    "errorInfo": "",
                    "fromAddress": "0x0d4a11d5eeaac28ec3f61d100daf4d40471f1852",
                    "gasUsed": 10862,
                    "id": 17,
                    "methodDecoded": true,
                    "operation": "CALL",
                    "output": "0x0000000000000000000000000000000000000000000000000000000000000001",
                    "revert": false,
                    "revertMessage": "",
                    "selector": "0xa9059cbb",
                    "status": true,
                    "value": "0"
                },
                "nodeType": 0
            },
            "18": {
                "event": {
                    "contract": "0xc02aaa39b223fe8d0a0e5c4f27ead9083c756cc2",
                    "decodedLog": {
                        "name": "Transfer",
                        "params": [
                            {
                                "name": "src",
                                "type": "address",
                                "value": "0x0d4a11d5eeaac28ec3f61d100daf4d40471f1852"
                            },
                            {
                                "name": "dst",
                                "type": "address",
                                "value": "0x00000047bb99ea4d791bb749d970de71ee0b1a34"
                            },
                            {
                                "decimalAvailable": true,
                                "name": "wad",
                                "type": "uint256",
                                "value": "310,040,369,630,187,577"
                            }
                        ],
                        "signature": "Transfer(address,address,uint256)"
                    },
                    "id": 18,
                    "logData": "0x000000000000000000000000000000000000000000000000044d7c12d1d69039",
                    "logDecoded": true,
                    "operation": "EVENT",
                    "revert": false,
                    "status": true,
                    "topics": [
                        "0xddf252ad1be2c89b69c2b068fc378daa952ba7f163c4a11628f55a4df523b3ef",
                        "0x0000000000000000000000000d4a11d5eeaac28ec3f61d100daf4d40471f1852",
                        "0x00000000000000000000000000000047bb99ea4d791bb749d970de71ee0b1a34"
                    ]
                },
                "nodeType": 1
            },
            "19": {
                "invocation": {
                    "address": "0xc02aaa39b223fe8d0a0e5c4f27ead9083c756cc2",
                    "callData": "0x0000000000000000000000000d4a11d5eeaac28ec3f61d100daf4d40471f1852",
                    "decodedMethod": {
                        "callParams": [
                            {
                                "name": "",
                                "type": "address",
                                "value": "0x0d4a11d5eeaac28ec3f61d100daf4d40471f1852"
                            }
                        ],
                        "constructorArguments": "",
                        "name": "balanceOf",
                        "returnParams": [
                            {
                                "decimalAvailable": true,
                                "name": "",
                                "type": "uint256",
                                "value": "21,529,020,577,680,095,427,707"
                            }
                        ],
                        "signature": "balanceOf(address)"
                    },
                    "errorInfo": "",
                    "fromAddress": "0x0d4a11d5eeaac28ec3f61d100daf4d40471f1852",
                    "gasUsed": 534,
                    "id": 19,
                    "methodDecoded": true,
                    "operation": "STATICCALL",
                    "output": "0x00000000000000000000000000000000000000000000048f172de5c2a927bc7b",
                    "revert": false,
                    "revertMessage": "",
                    "selector": "0x70a08231",
                    "status": true,
                    "value": "0"
                },
                "nodeType": 0
            },
            "2": {
                "event": {
                    "contract": "0x4f8b986ecffe7bed5dbeb2b49310fb00ca85a539",
                    "decodedLog": {
                        "name": "Transfer",
                        "params": [
                            {
                                "name": "from",
                                "type": "address",
                                "value": "0x7fc402e0315d00325877397f088072ed14288210"
                            },
                            {
                                "name": "to",
                                "type": "address",
                                "value": "0x00000047bb99ea4d791bb749d970de71ee0b1a34"
                            },
                            {
                                "decimalAvailable": true,
                                "name": "value",
                                "type": "uint256",
                                "value": "31,093,273,884,195,113,771"
                            }
                        ],
                        "signature": "Transfer(address,address,uint256)"
                    },
                    "id": 2,
                    "logData": "0x000000000000000000000000000000000000000000000001af817fdbc3614b2b",
                    "logDecoded": true,
                    "operation": "EVENT",
                    "revert": false,
                    "status": true,
                    "topics": [
                        "0xddf252ad1be2c89b69c2b068fc378daa952ba7f163c4a11628f55a4df523b3ef",
                        "0x0000000000000000000000007fc402e0315d00325877397f088072ed14288210",
                        "0x00000000000000000000000000000047bb99ea4d791bb749d970de71ee0b1a34"
                    ]
                },
                "nodeType": 1
            },
            "20": {
                "invocation": {
                    "address": "0xdac17f958d2ee523a2206206994597c13d831ec7",
                    "callData": "0x0000000000000000000000000d4a11d5eeaac28ec3f61d100daf4d40471f1852",
                    "decodedMethod": {
                        "callParams": [
                            {
                                "name": "who",
                                "type": "address",
                                "value": "0x0d4a11d5eeaac28ec3f61d100daf4d40471f1852"
                            }
                        ],
                        "constructorArguments": "",
                        "name": "balanceOf",
                        "returnParams": [
                            {
                                "decimalAvailable": true,
                                "name": "",
                                "type": "uint256",
                                "value": "33,687,398,404,103"
                            }
                        ],
                        "signature": "balanceOf(address)"
                    },
                    "errorInfo": "",
                    "fromAddress": "0x0d4a11d5eeaac28ec3f61d100daf4d40471f1852",
                    "gasUsed": 1031,
                    "id": 20,
                    "methodDecoded": true,
                    "operation": "STATICCALL",
                    "output": "0x00000000000000000000000000000000000000000000000000001ea3756a5007",
                    "revert": false,
                    "revertMessage": "",
                    "selector": "0x70a08231",
                    "status": true,
                    "value": "0"
                },
                "nodeType": 0
            },
            "21": {
                "event": {
                    "contract": "0x0d4a11d5eeaac28ec3f61d100daf4d40471f1852",
                    "decodedLog": {
                        "name": "Sync",
                        "params": [
                            {
                                "name": "reserve0",
                                "type": "uint112",
                                "value": "21,529,020,577,680,095,427,707"
                            },
                            {
                                "name": "reserve1",
                                "type": "uint112",
                                "value": "33,687,398,404,103"
                            }
                        ],
                        "signature": "Sync(uint112,uint112)"
                    },
                    "id": 21,
                    "logData": "0x00000000000000000000000000000000000000000000048f172de5c2a927bc7b00000000000000000000000000000000000000000000000000001ea3756a5007",
                    "logDecoded": true,
                    "operation": "EVENT",
                    "revert": false,
                    "status": true,
                    "topics": [
                        "0x1c411e9a96e071241c2f21f7726b17ae89e3cab4c78be50e062b03a9fffbbad1"
                    ]
                },
                "nodeType": 1
            },
            "22": {
                "event": {
                    "contract": "0x0d4a11d5eeaac28ec3f61d100daf4d40471f1852",
                    "decodedLog": {
                        "name": "Swap",
                        "params": [
                            {
                                "name": "sender",
                                "type": "address",
                                "value": "0x00000047bb99ea4d791bb749d970de71ee0b1a34"
                            },
                            {
                                "name": "to",
                                "type": "address",
                                "value": "0x00000047bb99ea4d791bb749d970de71ee0b1a34"
                            },
                            {
                                "name": "amount0In",
                                "type": "uint256",
                                "value": "0"
                            },
                            {
                                "name": "amount1In",
                                "type": "uint256",
                                "value": "486,586,454"
                            },
                            {
                                "name": "amount0Out",
                                "type": "uint256",
                                "value": "310,040,369,630,187,577"
                            },
                            {
                                "name": "amount1Out",
                                "type": "uint256",
                                "value": "0"
                            }
                        ],
                        "signature": "Swap(address,uint256,uint256,uint256,uint256,address)"
                    },
                    "id": 22,
                    "logData": "0x0000000000000000000000000000000000000000000000000000000000000000000000000000000000000000000000000000000000000000000000001d00b856000000000000000000000000000000000000000000000000044d7c12d1d690390000000000000000000000000000000000000000000000000000000000000000",
                    "logDecoded": true,
                    "operation": "EVENT",
                    "revert": false,
                    "status": true,
                    "topics": [
                        "0xd78ad95fa46c994b6551d0da85fc275fe613ce37657fb8d5e3d130840159d822",
                        "0x00000000000000000000000000000047bb99ea4d791bb749d970de71ee0b1a34",
                        "0x00000000000000000000000000000047bb99ea4d791bb749d970de71ee0b1a34"
                    ]
                },
                "nodeType": 1
            },
            "23": {
                "invocation": {
                    "address": "0xc02aaa39b223fe8d0a0e5c4f27ead9083c756cc2",
                    "callData": "0x00000000000000000000000000000047bb99ea4d791bb749d970de71ee0b1a34",
                    "decodedMethod": {
                        "callParams": [
                            {
                                "name": "",
                                "type": "address",
                                "value": "0x00000047bb99ea4d791bb749d970de71ee0b1a34"
                            }
                        ],
                        "constructorArguments": "",
                        "name": "balanceOf",
                        "returnParams": [
                            {
                                "decimalAvailable": true,
                                "name": "",
                                "type": "uint256",
                                "value": "368,278,037,001,694,488"
                            }
                        ],
                        "signature": "balanceOf(address)"
                    },
                    "errorInfo": "",
                    "fromAddress": "0x00000047bb99ea4d791bb749d970de71ee0b1a34",
                    "gasUsed": 534,
                    "id": 23,
                    "methodDecoded": true,
                    "operation": "STATICCALL",
                    "output": "0x000000000000000000000000000000000000000000000000051c62ec66106d18",
                    "revert": false,
                    "revertMessage": "",
                    "selector": "0x70a08231",
                    "status": true,
                    "value": "0"
                },
                "nodeType": 0
            },
            "24": {
                "invocation": {
                    "address": "0xc02aaa39b223fe8d0a0e5c4f27ead9083c756cc2",
                    "callData": "0x000000000000000000000000000000000000000000000000044d7c12d1d69039",
                    "decodedMethod": {
                        "callParams": [
                            {
                                "name": "wad",
                                "type": "uint256",
                                "value": "310,040,369,630,187,577"
                            }
                        ],
                        "constructorArguments": "",
                        "name": "withdraw",
                        "returnParams": [],
                        "signature": "withdraw(uint256)"
                    },
                    "errorInfo": "",
                    "fromAddress": "0x00000047bb99ea4d791bb749d970de71ee0b1a34",
                    "gasUsed": 10524,
                    "id": 24,
                    "methodDecoded": true,
                    "operation": "CALL",
                    "output": "",
                    "revert": false,
                    "revertMessage": "",
                    "selector": "0x2e1a7d4d",
                    "status": true,
                    "value": "0"
                },
                "nodeType": 0
            },
            "25": {
                "invocation": {
                    "address": "0x00000047bb99ea4d791bb749d970de71ee0b1a34",
                    "callData": "0x",
                    "decodedMethod": null,
                    "errorInfo": "",
                    "fromAddress": "0xc02aaa39b223fe8d0a0e5c4f27ead9083c756cc2",
                    "gasUsed": 1384,
                    "id": 25,
                    "methodDecoded": false,
                    "operation": "CALL",
                    "output": "",
                    "revert": false,
                    "revertMessage": "",
                    "selector": "fallback",
                    "status": true,
                    "value": "0.310040369630187577"
                },
                "nodeType": 0
            },
            "26": {
                "event": {
                    "contract": "0x00000047bb99ea4d791bb749d970de71ee0b1a34",
                    "decodedLog": {
                        "name": "Receipt",
                        "params": [
                            {
                                "name": "from",
                                "type": "address",
                                "value": "0xc02aaa39b223fe8d0a0e5c4f27ead9083c756cc2"
                            },
                            {
                                "name": "amount",
                                "type": "uint256",
                                "value": "310,040,369,630,187,577"
                            }
                        ],
                        "signature": "Receipt(address,uint256)"
                    },
                    "id": 26,
                    "logData": "0x000000000000000000000000c02aaa39b223fe8d0a0e5c4f27ead9083c756cc2000000000000000000000000000000000000000000000000044d7c12d1d69039",
                    "logDecoded": true,
                    "operation": "EVENT",
                    "revert": false,
                    "status": true,
                    "topics": [
                        "0x7784f8d436dc514f0690e472c7e2d7f660a73e504c69b2350f6be5a5f02432ef"
                    ]
                },
                "nodeType": 1
            },
            "27": {
                "event": {
                    "contract": "0xc02aaa39b223fe8d0a0e5c4f27ead9083c756cc2",
                    "decodedLog": {
                        "name": "Withdrawal",
                        "params": [
                            {
                                "name": "src",
                                "type": "address",
                                "value": "0x00000047bb99ea4d791bb749d970de71ee0b1a34"
                            },
                            {
                                "name": "wad",
                                "type": "uint256",
                                "value": "310,040,369,630,187,577"
                            }
                        ],
                        "signature": "Withdrawal(address,uint256)"
                    },
                    "id": 27,
                    "logData": "0x000000000000000000000000000000000000000000000000044d7c12d1d69039",
                    "logDecoded": true,
                    "operation": "EVENT",
                    "revert": false,
                    "status": true,
                    "topics": [
                        "0x7fcf532c15f0a6db0bd6d0e038bea71d30d808c7d98cb3bf7268a95bf5081b65",
                        "0x00000000000000000000000000000047bb99ea4d791bb749d970de71ee0b1a34"
                    ]
                },
                "nodeType": 1
            },
            "28": {
                "invocation": {
                    "address": "0x7fc402e0315d00325877397f088072ed14288210",
                    "callData": "0x",
                    "decodedMethod": null,
                    "errorInfo": "",
                    "fromAddress": "0x00000047bb99ea4d791bb749d970de71ee0b1a34",
                    "gasUsed": 0,
                    "id": 28,
                    "methodDecoded": false,
                    "operation": "CALL",
                    "output": "",
                    "revert": false,
                    "revertMessage": "",
                    "selector": "fallback",
                    "status": true,
                    "value": "0.310040369630187577"
                },
                "nodeType": 0
            },
            "29": {
                "event": {
                    "contract": "0x00000047bb99ea4d791bb749d970de71ee0b1a34",
                    "decodedLog": {
                        "name": "TransitSwapped",
                        "params": [
                            {
                                "name": "srcToken",
                                "type": "address",
                                "value": "0x4f8b986ecffe7bed5dbeb2b49310fb00ca85a539"
                            },
                            {
                                "name": "dstToken",
                                "type": "address",
                                "value": "0x0000000000000000000000000000000000000000"
                            },
                            {
                                "name": "dstReceiver",
                                "type": "address",
                                "value": "0x7fc402e0315d00325877397f088072ed14288210"
                            },
                            {
                                "name": "amount",
                                "type": "uint256",
                                "value": "31,093,273,884,195,113,771"
                            },
                            {
                                "name": "returnAmount",
                                "type": "uint256",
                                "value": "310,040,369,630,187,577"
                            },
                            {
                                "name": "toChainID",
                                "type": "uint256",
                                "value": "0"
                            },
                            {
                                "name": "channel",
                                "type": "string",
                                "value": "ios"
                            }
                        ],
                        "signature": "TransitSwapped(address,address,address,uint256,uint256,uint256,string)"
                    },
                    "id": 29,
                    "logData": "0x000000000000000000000000000000000000000000000001af817fdbc3614b2b000000000000000000000000000000000000000000000000044d7c12d1d69039000000000000000000000000000000000000000000000000000000000000000000000000000000000000000000000000000000000000000000000000000000800000000000000000000000000000000000000000000000000000000000000003696f730000000000000000000000000000000000000000000000000000000000",
                    "logDecoded": true,
                    "operation": "EVENT",
                    "revert": false,
                    "status": true,
                    "topics": [
                        "0x2251435bd151cd72851a82be055bf6d1c3d7f34d08d56493dddf874229b8e897",
                        "0x0000000000000000000000004f8b986ecffe7bed5dbeb2b49310fb00ca85a539",
                        "0x0000000000000000000000000000000000000000000000000000000000000000",
                        "0x0000000000000000000000007fc402e0315d00325877397f088072ed14288210"
                    ]
                },
                "nodeType": 1
            },
            "3": {
                "invocation": {
                    "address": "0xc02aaa39b223fe8d0a0e5c4f27ead9083c756cc2",
                    "callData": "0x00000000000000000000000000000047bb99ea4d791bb749d970de71ee0b1a34",
                    "decodedMethod": {
                        "callParams": [
                            {
                                "name": "",
                                "type": "address",
                                "value": "0x00000047bb99ea4d791bb749d970de71ee0b1a34"
                            }
                        ],
                        "constructorArguments": "",
                        "name": "balanceOf",
                        "returnParams": [
                            {
                                "decimalAvailable": true,
                                "name": "",
                                "type": "uint256",
                                "value": "58,237,667,371,506,911"
                            }
                        ],
                        "signature": "balanceOf(address)"
                    },
                    "errorInfo": "",
                    "fromAddress": "0x00000047bb99ea4d791bb749d970de71ee0b1a34",
                    "gasUsed": 2534,
                    "id": 3,
                    "methodDecoded": true,
                    "operation": "STATICCALL",
                    "output": "0x00000000000000000000000000000000000000000000000000cee6d99439dcdf",
                    "revert": false,
                    "revertMessage": "",
                    "selector": "0x70a08231",
                    "status": true,
                    "value": "0"
                },
                "nodeType": 0
            },
            "4": {
                "invocation": {
                    "address": "0x4f8b986ecffe7bed5dbeb2b49310fb00ca85a539",
                    "callData": "0x0000000000000000000000007c30ffc4fea98deb6aad172d6e3d673c962c13f5000000000000000000000000000000000000000000000001ae361a5ad910dfae",
                    "decodedMethod": {
                        "callParams": [
                            {
                                "name": "to",
                                "type": "address",
                                "value": "0x7c30ffc4fea98deb6aad172d6e3d673c962c13f5"
                            },
                            {
                                "decimalAvailable": true,
                                "name": "amount",
                                "type": "uint256",
                                "value": "30,999,994,062,542,528,430"
                            }
                        ],
                        "constructorArguments": "",
                        "name": "transfer",
                        "returnParams": [
                            {
                                "name": "",
                                "type": "bool",
                                "value": true
                            }
                        ],
                        "signature": "transfer(address,uint256)"
                    },
                    "errorInfo": "",
                    "fromAddress": "0x00000047bb99ea4d791bb749d970de71ee0b1a34",
                    "gasUsed": 7894,
                    "id": 4,
                    "methodDecoded": true,
                    "operation": "CALL",
                    "output": "0x0000000000000000000000000000000000000000000000000000000000000001",
                    "revert": false,
                    "revertMessage": "",
                    "selector": "0xa9059cbb",
                    "status": true,
                    "value": "0"
                },
                "nodeType": 0
            },
            "5": {
                "event": {
                    "contract": "0x4f8b986ecffe7bed5dbeb2b49310fb00ca85a539",
                    "decodedLog": {
                        "name": "Transfer",
                        "params": [
                            {
                                "name": "from",
                                "type": "address",
                                "value": "0x00000047bb99ea4d791bb749d970de71ee0b1a34"
                            },
                            {
                                "name": "to",
                                "type": "address",
                                "value": "0x7c30ffc4fea98deb6aad172d6e3d673c962c13f5"
                            },
                            {
                                "decimalAvailable": true,
                                "name": "value",
                                "type": "uint256",
                                "value": "30,999,994,062,542,528,430"
                            }
                        ],
                        "signature": "Transfer(address,address,uint256)"
                    },
                    "id": 5,
                    "logData": "0x000000000000000000000000000000000000000000000001ae361a5ad910dfae",
                    "logDecoded": true,
                    "operation": "EVENT",
                    "revert": false,
                    "status": true,
                    "topics": [
                        "0xddf252ad1be2c89b69c2b068fc378daa952ba7f163c4a11628f55a4df523b3ef",
                        "0x00000000000000000000000000000047bb99ea4d791bb749d970de71ee0b1a34",
                        "0x0000000000000000000000007c30ffc4fea98deb6aad172d6e3d673c962c13f5"
                    ]
                },
                "nodeType": 1
            },
            "6": {
                "invocation": {
                    "address": "0x7a250d5630b4cf539739df2c5dacb4c659f2488d",
                    "callData": "0x000000000000000000000000000000000000000000000001ae361a5ad910dfae000000000000000000000000000000000000000000000000000000000000004000000000000000000000000000000000000000000000000000000000000000030000000000000000000000004f8b986ecffe7bed5dbeb2b49310fb00ca85a539000000000000000000000000dac17f958d2ee523a2206206994597c13d831ec7000000000000000000000000c02aaa39b223fe8d0a0e5c4f27ead9083c756cc2",
                    "decodedMethod": {
                        "callParams": [
                            {
                                "name": "amountIn",
                                "type": "uint256",
                                "value": "30,999,994,062,542,528,430"
                            },
                            {
                                "name": "path",
                                "type": "address[]",
                                "value": [
                                    "0x4f8b986ecffe7bed5dbeb2b49310fb00ca85a539",
                                    "0xdac17f958d2ee523a2206206994597c13d831ec7",
                                    "0xc02aaa39b223fe8d0a0e5c4f27ead9083c756cc2"
                                ]
                            }
                        ],
                        "constructorArguments": "",
                        "name": "getAmountsOut",
                        "returnParams": [
                            {
                                "name": "amounts",
                                "type": "uint256[]",
                                "value": [
                                    "30,999,994,062,542,528,430",
                                    "486,586,454",
                                    "310,040,369,630,187,577"
                                ]
                            }
                        ],
                        "signature": "getAmountsOut(uint256,address[])"
                    },
                    "errorInfo": "",
                    "fromAddress": "0x00000047bb99ea4d791bb749d970de71ee0b1a34",
                    "gasUsed": 16007,
                    "id": 6,
                    "methodDecoded": true,
                    "operation": "STATICCALL",
                    "output": "0x00000000000000000000000000000000000000000000000000000000000000200000000000000000000000000000000000000000000000000000000000000003000000000000000000000000000000000000000000000001ae361a5ad910dfae000000000000000000000000000000000000000000000000000000001d00b856000000000000000000000000000000000000000000000000044d7c12d1d69039",
                    "revert": false,
                    "revertMessage": "",
                    "selector": "0xd06ca61f",
                    "status": true,
                    "value": "0"
                },
                "nodeType": 0
            },
            "7": {
                "invocation": {
                    "address": "0x7c30ffc4fea98deb6aad172d6e3d673c962c13f5",
                    "callData": "0x",
                    "decodedMethod": {
                        "callParams": [],
                        "constructorArguments": "",
                        "name": "getReserves",
                        "returnParams": [
                            {
                                "name": "_reserve0",
                                "type": "uint112",
                                "value": "18,812,270,900,618,731,747,353"
                            },
                            {
                                "name": "_reserve1",
                                "type": "uint112",
                                "value": "296,658,908,135"
                            },
                            {
                                "name": "_blockTimestampLast",
                                "type": "uint32",
                                "value": "1,697,738,651"
                            }
                        ],
                        "signature": "getReserves()"
                    },
                    "errorInfo": "",
                    "fromAddress": "0x7a250d5630b4cf539739df2c5dacb4c659f2488d",
                    "gasUsed": 2504,
                    "id": 7,
                    "methodDecoded": true,
                    "operation": "STATICCALL",
                    "output": "0x0000000000000000000000000000000000000000000003fbd0b4286e0560781900000000000000000000000000000000000000000000000000000045123fb3e70000000000000000000000000000000000000000000000000000000065316f9b",
                    "revert": false,
                    "revertMessage": "",
                    "selector": "0x0902f1ac",
                    "status": true,
                    "value": "0"
                },
                "nodeType": 0
            },
            "8": {
                "invocation": {
                    "address": "0x0d4a11d5eeaac28ec3f61d100daf4d40471f1852",
                    "callData": "0x",
                    "decodedMethod": {
                        "callParams": [],
                        "constructorArguments": "",
                        "name": "getReserves",
                        "returnParams": [
                            {
                                "name": "_reserve0",
                                "type": "uint112",
                                "value": "21,529,330,618,049,725,615,284"
                            },
                            {
                                "name": "_reserve1",
                                "type": "uint112",
                                "value": "33,686,911,817,649"
                            },
                            {
                                "name": "_blockTimestampLast",
                                "type": "uint32",
                                "value": "1,697,738,651"
                            }
                        ],
                        "signature": "getReserves()"
                    },
                    "errorInfo": "",
                    "fromAddress": "0x7a250d5630b4cf539739df2c5dacb4c659f2488d",
                    "gasUsed": 2504,
                    "id": 8,
                    "methodDecoded": true,
                    "operation": "STATICCALL",
                    "output": "0x00000000000000000000000000000000000000000000048f1b7b61d57afe4cb400000000000000000000000000000000000000000000000000001ea3586997b10000000000000000000000000000000000000000000000000000000065316f9b",
                    "revert": false,
                    "revertMessage": "",
                    "selector": "0x0902f1ac",
                    "status": true,
                    "value": "0"
                },
                "nodeType": 0
            },
            "9": {
                "invocation": {
                    "address": "0x7c30ffc4fea98deb6aad172d6e3d673c962c13f5",
                    "callData": "0x0000000000000000000000000000000000000000000000000000000000000000000000000000000000000000000000000000000000000000000000001d00b8560000000000000000000000000d4a11d5eeaac28ec3f61d100daf4d40471f185200000000000000000000000000000000000000000000000000000000000000800000000000000000000000000000000000000000000000000000000000000000",
                    "decodedMethod": {
                        "callParams": [
                            {
                                "name": "amount0Out",
                                "type": "uint256",
                                "value": "0"
                            },
                            {
                                "name": "amount1Out",
                                "type": "uint256",
                                "value": "486,586,454"
                            },
                            {
                                "name": "to",
                                "type": "address",
                                "value": "0x0d4a11d5eeaac28ec3f61d100daf4d40471f1852"
                            },
                            {
                                "name": "data",
                                "type": "bytes",
                                "value": "0x"
                            }
                        ],
                        "constructorArguments": "",
                        "name": "swap",
                        "returnParams": [],
                        "signature": "swap(uint256,uint256,address,bytes)"
                    },
                    "errorInfo": "",
                    "fromAddress": "0x00000047bb99ea4d791bb749d970de71ee0b1a34",
                    "gasUsed": 49441,
                    "id": 9,
                    "methodDecoded": true,
                    "operation": "CALL",
                    "output": "",
                    "revert": false,
                    "revertMessage": "",
                    "selector": "0x022c0d9f",
                    "status": true,
                    "value": "0"
                },
                "nodeType": 0
            }
        },
        "gasFlame": [
            {
                "children": [
                    {
                        "children": [
                            {
                                "children": [],
                                "depth": 0,
                                "name": "Initial Gas",
                                "value": 26064
                            },
                            {
                                "children": [
                                    {
                                        "children": [],
                                        "depth": 1,
                                        "name": "transferFrom",
                                        "value": 15221
                                    },
                                    {
                                        "children": [],
                                        "depth": 1,
                                        "name": "balanceOf",
                                        "value": 2534
                                    },
                                    {
                                        "children": [],
                                        "depth": 1,
                                        "name": "transfer",
                                        "value": 7894
                                    },
                                    {
                                        "children": [
                                            {
                                                "children": [],
                                                "depth": 2,
                                                "name": "getReserves",
                                                "value": 2504
                                            },
                                            {
                                                "children": [],
                                                "depth": 2,
                                                "name": "getReserves",
                                                "value": 2504
                                            }
                                        ],
                                        "depth": 1,
                                        "name": "getAmountsOut",
                                        "value": 16007
                                    },
                                    {
                                        "children": [
                                            {
                                                "children": [],
                                                "depth": 2,
                                                "name": "transfer",
                                                "value": 24501
                                            },
                                            {
                                                "children": [],
                                                "depth": 2,
                                                "name": "balanceOf",
                                                "value": 629
                                            },
                                            {
                                                "children": [],
                                                "depth": 2,
                                                "name": "balanceOf",
                                                "value": 1031
                                            }
                                        ],
                                        "depth": 1,
                                        "name": "swap",
                                        "value": 49441
                                    },
                                    {
                                        "children": [
                                            {
                                                "children": [],
                                                "depth": 2,
                                                "name": "transfer",
                                                "value": 10862
                                            },
                                            {
                                                "children": [],
                                                "depth": 2,
                                                "name": "balanceOf",
                                                "value": 534
                                            },
                                            {
                                                "children": [],
                                                "depth": 2,
                                                "name": "balanceOf",
                                                "value": 1031
                                            }
                                        ],
                                        "depth": 1,
                                        "name": "swap",
                                        "value": 33334
                                    },
                                    {
                                        "children": [],
                                        "depth": 1,
                                        "name": "balanceOf",
                                        "value": 534
                                    },
                                    {
                                        "children": [
                                            {
                                                "children": [],
                                                "depth": 2,
                                                "name": "fallback",
                                                "value": 1384
                                            }
                                        ],
                                        "depth": 1,
                                        "name": "withdraw",
                                        "value": 10524
                                    },
                                    {
                                        "children": [],
                                        "depth": 1,
                                        "name": "fallback",
                                        "value": 0
                                    }
                                ],
                                "depth": 0,
                                "name": "Executed Gas",
                                "value": 181983
                            }
                        ],
                        "depth": -1,
                        "name": "Actual Gas Used",
                        "value": 192047
                    },
                    {
                        "children": [],
                        "depth": -1,
                        "name": "Refunded Gas",
                        "value": 16000
                    }
                ],
                "depth": -2,
                "name": "Total Gas",
                "value": 208047
            }
        ],
        "isConfirmed": true,
        "mainTrace": [
            {
                "children": [
                    {
                        "children": [
                            {
                                "children": [
                                    {
                                        "children": [],
                                        "depth": 2,
                                        "id": 2,
                                        "order": 2
                                    }
                                ],
                                "depth": 1,
                                "id": 1,
                                "order": 1
                            },
                            {
                                "children": [],
                                "depth": 1,
                                "id": 3,
                                "order": 3
                            },
                            {
                                "children": [
                                    {
                                        "children": [],
                                        "depth": 2,
                                        "id": 5,
                                        "order": 5
                                    }
                                ],
                                "depth": 1,
                                "id": 4,
                                "order": 4
                            },
                            {
                                "children": [
                                    {
                                        "children": [],
                                        "depth": 2,
                                        "id": 7,
                                        "order": 7
                                    },
                                    {
                                        "children": [],
                                        "depth": 2,
                                        "id": 8,
                                        "order": 8
                                    }
                                ],
                                "depth": 1,
                                "id": 6,
                                "order": 6
                            },
                            {
                                "children": [
                                    {
                                        "children": [
                                            {
                                                "children": [],
                                                "depth": 3,
                                                "id": 11,
                                                "order": 11
                                            }
                                        ],
                                        "depth": 2,
                                        "id": 10,
                                        "order": 10
                                    },
                                    {
                                        "children": [],
                                        "depth": 2,
                                        "id": 12,
                                        "order": 12
                                    },
                                    {
                                        "children": [],
                                        "depth": 2,
                                        "id": 13,
                                        "order": 13
                                    },
                                    {
                                        "children": [],
                                        "depth": 2,
                                        "id": 14,
                                        "order": 14
                                    },
                                    {
                                        "children": [],
                                        "depth": 2,
                                        "id": 15,
                                        "order": 15
                                    }
                                ],
                                "depth": 1,
                                "id": 9,
                                "order": 9
                            },
                            {
                                "children": [
                                    {
                                        "children": [
                                            {
                                                "children": [],
                                                "depth": 3,
                                                "id": 18,
                                                "order": 18
                                            }
                                        ],
                                        "depth": 2,
                                        "id": 17,
                                        "order": 17
                                    },
                                    {
                                        "children": [],
                                        "depth": 2,
                                        "id": 19,
                                        "order": 19
                                    },
                                    {
                                        "children": [],
                                        "depth": 2,
                                        "id": 20,
                                        "order": 20
                                    },
                                    {
                                        "children": [],
                                        "depth": 2,
                                        "id": 21,
                                        "order": 21
                                    },
                                    {
                                        "children": [],
                                        "depth": 2,
                                        "id": 22,
                                        "order": 22
                                    }
                                ],
                                "depth": 1,
                                "id": 16,
                                "order": 16
                            },
                            {
                                "children": [],
                                "depth": 1,
                                "id": 23,
                                "order": 23
                            },
                            {
                                "children": [
                                    {
                                        "children": [
                                            {
                                                "children": [],
                                                "depth": 3,
                                                "id": 26,
                                                "order": 26
                                            }
                                        ],
                                        "depth": 2,
                                        "id": 25,
                                        "order": 25
                                    },
                                    {
                                        "children": [],
                                        "depth": 2,
                                        "id": 27,
                                        "order": 27
                                    }
                                ],
                                "depth": 1,
                                "id": 24,
                                "order": 24
                            },
                            {
                                "children": [],
                                "depth": 1,
                                "id": 28,
                                "order": 28
                            },
                            {
                                "children": [],
                                "depth": 1,
                                "id": 29,
                                "order": 29
                            }
                        ],
                        "depth": 0,
                        "id": 0,
                        "order": 0
                    }
                ],
                "depth": -1,
                "id": -1,
                "order": -1
            }
        ],
        "mainTraceNodeCount": 30,
        "parentIdMap": {
            "0": -1,
            "1": 0,
            "10": 9,
            "11": 10,
            "12": 9,
            "13": 9,
            "14": 9,
            "15": 9,
            "16": 0,
            "17": 16,
            "18": 17,
            "19": 16,
            "2": 1,
            "20": 16,
            "21": 16,
            "22": 16,
            "23": 0,
            "24": 0,
            "25": 24,
            "26": 25,
            "27": 24,
            "28": 0,
            "29": 0,
            "3": 0,
            "4": 0,
            "5": 4,
            "6": 0,
            "7": 6,
            "8": 6,
            "9": 0
        },
        "tidyTrace": [
            {
                "children": [
                    {
                        "children": [
                            {
                                "children": [
                                    {
                                        "children": [],
                                        "depth": 2,
                                        "id": 2,
                                        "order": 2
                                    }
                                ],
                                "depth": 1,
                                "id": 1,
                                "order": 1
                            },
                            {
                                "children": [
                                    {
                                        "children": [],
                                        "depth": 2,
                                        "id": 5,
                                        "order": 5
                                    }
                                ],
                                "depth": 1,
                                "id": 4,
                                "order": 4
                            },
                            {
                                "children": [
                                    {
                                        "children": [
                                            {
                                                "children": [],
                                                "depth": 3,
                                                "id": 11,
                                                "order": 11
                                            }
                                        ],
                                        "depth": 2,
                                        "id": 10,
                                        "order": 10
                                    },
                                    {
                                        "children": [],
                                        "depth": 2,
                                        "id": 14,
                                        "order": 14
                                    },
                                    {
                                        "children": [],
                                        "depth": 2,
                                        "id": 15,
                                        "order": 15
                                    }
                                ],
                                "depth": 1,
                                "id": 9,
                                "order": 9
                            },
                            {
                                "children": [
                                    {
                                        "children": [
                                            {
                                                "children": [],
                                                "depth": 3,
                                                "id": 18,
                                                "order": 18
                                            }
                                        ],
                                        "depth": 2,
                                        "id": 17,
                                        "order": 17
                                    },
                                    {
                                        "children": [],
                                        "depth": 2,
                                        "id": 21,
                                        "order": 21
                                    },
                                    {
                                        "children": [],
                                        "depth": 2,
                                        "id": 22,
                                        "order": 22
                                    }
                                ],
                                "depth": 1,
                                "id": 16,
                                "order": 16
                            },
                            {
                                "children": [
                                    {
                                        "children": [
                                            {
                                                "children": [],
                                                "depth": 3,
                                                "id": 26,
                                                "order": 26
                                            }
                                        ],
                                        "depth": 2,
                                        "id": 25,
                                        "order": 25
                                    },
                                    {
                                        "children": [],
                                        "depth": 2,
                                        "id": 27,
                                        "order": 27
                                    }
                                ],
                                "depth": 1,
                                "id": 24,
                                "order": 24
                            },
                            {
                                "children": [],
                                "depth": 1,
                                "id": 28,
                                "order": 28
                            },
                            {
                                "children": [],
                                "depth": 1,
                                "id": 29,
                                "order": 29
                            }
                        ],
                        "depth": 0,
                        "id": 0,
                        "order": 0
                    }
                ],
                "depth": -1,
                "id": -1,
                "order": -1
            }
        ],
        "tidyTraceNodeCount": 21
    },
    "state_change": {
        "stateChanges": [
            {
                "address": "0x0d4a11d5eeaac28ec3f61d100daf4d40471f1852",
                "erc": "ERC-20",
                "slots": [
                    {
                        "current": "0x65316f9b00000000000000001ea3756a500700000000048f172de5c2a927bc7b",
                        "key": "0x0000000000000000000000000000000000000000000000000000000000000008",
                        "prev": "0x65316f9b00000000000000001ea3586997b100000000048f1b7b61d57afe4cb4"
                    }
                ],
                "storageVariables": [
                    {
                        "name": "reserve0",
                        "type": "uint112",
                        "value": {
                            "current": "21529020577680095427707",
                            "prev": "21529330618049725615284",
                            "typeTag": 1
                        }
                    },
                    {
                        "name": "reserve1",
                        "type": "uint112",
                        "value": {
                            "current": "33687398404103",
                            "prev": "33686911817649",
                            "typeTag": 1
                        }
                    },
                    {
                        "name": "blockTimestampLast",
                        "type": "uint32",
                        "value": {
                            "current": "1697738651",
                            "prev": "1697738651",
                            "typeTag": 1
                        }
                    }
                ]
            },
            {
                "address": "0x4f8b986ecffe7bed5dbeb2b49310fb00ca85a539",
                "erc": "ERC-20",
                "slots": [
                    {
                        "current": "0x0000000000000000000000000000000000000000000003fd7eea42c8de7157c7",
                        "key": "0xb559555e8c87d69be0679b1db0562190c7857a8bd1cb5908abcc5565fdcb70ef",
                        "prev": "0x0000000000000000000000000000000000000000000003fbd0b4286e05607819"
                    },
                    {
                        "current": "0x00000000000000000000000000000000000000000000000039edaa205650d884",
                        "key": "0xf95d26d537ff30446767d372682a1ef057c7589db57a93f3ba52607999c00dce",
                        "prev": "0x00000000000000000000000000000000000000000000000038a2449f6c006d07"
                    },
                    {
                        "current": "0x0000000000000000000000000000000000000000000000000000000000000000",
                        "key": "0x78a51eb720408e487d43258de2238ce7d3825a32d63909491ef1ec47b7e28daf",
                        "prev": "0x000000000000000000000000000000000000000000000001af817fdbc3614b2b"
                    }
                ],
                "storageVariables": [
                    {
                        "name": "_balances",
                        "type": "mapping(address => uint256)",
                        "value": {
                            "pairs": [
                                {
                                    "key": "0x00000047bb99ea4d791bb749d970de71ee0b1a34",
                                    "value": {
                                        "current": "4174179485506132100",
                                        "prev": "4080899663853546759",
                                        "typeTag": 1
                                    }
                                },
                                {
                                    "key": "0x7c30ffc4fea98deb6aad172d6e3d673c962c13f5",
                                    "value": {
                                        "current": "18843270894681274275783",
                                        "prev": "18812270900618731747353",
                                        "typeTag": 1
                                    }
                                },
                                {
                                    "key": "0x7fc402e0315d00325877397f088072ed14288210",
                                    "value": {
                                        "current": "0",
                                        "prev": "31093273884195113771",
                                        "typeTag": 1
                                    }
                                }
                            ],
                            "typeTag": 4
                        }
                    }
                ]
            },
            {
                "address": "0x7c30ffc4fea98deb6aad172d6e3d673c962c13f5",
                "erc": "ERC-20",
                "slots": [
                    {
                        "current": "0x65316f9b00000000000000000044f53efb910000000003fd7eea42c8de7157c7",
                        "key": "0x0000000000000000000000000000000000000000000000000000000000000008",
                        "prev": "0x65316f9b00000000000000000045123fb3e70000000003fbd0b4286e05607819"
                    }
                ],
                "storageVariables": [
                    {
                        "name": "reserve0",
                        "type": "uint112",
                        "value": {
                            "current": "18843270894681274275783",
                            "prev": "18812270900618731747353",
                            "typeTag": 1
                        }
                    },
                    {
                        "name": "reserve1",
                        "type": "uint112",
                        "value": {
                            "current": "296172321681",
                            "prev": "296658908135",
                            "typeTag": 1
                        }
                    },
                    {
                        "name": "blockTimestampLast",
                        "type": "uint32",
                        "value": {
                            "current": "1697738651",
                            "prev": "1697738651",
                            "typeTag": 1
                        }
                    }
                ]
            },
            {
                "address": "0xc02aaa39b223fe8d0a0e5c4f27ead9083c756cc2",
                "erc": "ERC-20",
                "slots": [
                    {
                        "current": "0x00000000000000000000000000000000000000000000048f172de5c2a927bc7b",
                        "key": "0xaced72359d8708e95d2112ba70e71fa267967a5588d15e7c78c1904e0debe410",
                        "prev": "0x00000000000000000000000000000000000000000000048f1b7b61d57afe4cb4"
                    }
                ],
                "storageVariables": [
                    {
                        "name": "balanceOf",
                        "type": "mapping(address => uint256)",
                        "value": {
                            "pairs": [
                                {
                                    "key": "0x0d4a11d5eeaac28ec3f61d100daf4d40471f1852",
                                    "value": {
                                        "current": "21529020577680095427707",
                                        "prev": "21529330618049725615284",
                                        "typeTag": 1
                                    }
                                }
                            ],
                            "typeTag": 4
                        }
                    }
                ]
            },
            {
                "address": "0xdac17f958d2ee523a2206206994597c13d831ec7",
                "erc": "ERC-20",
                "slots": [
                    {
                        "current": "0x00000000000000000000000000000000000000000000000000000044f53efb91",
                        "key": "0xe8948cfa4fcd5b390ae68eb8dfdf190127ebfc3012f23166e4d0ea2b0f613c90",
                        "prev": "0x00000000000000000000000000000000000000000000000000000045123fb3e7"
                    },
                    {
                        "current": "0x00000000000000000000000000000000000000000000000000001ea3756a5007",
                        "key": "0x45b1147656da4d940c556082f0e09e91e3d046c1c84468f8ead64d8fdc1c749a",
                        "prev": "0x00000000000000000000000000000000000000000000000000001ea3586997b1"
                    }
                ],
                "storageVariables": [
                    {
                        "name": "balances",
                        "type": "mapping(address => uint256)",
                        "value": {
                            "pairs": [
                                {
                                    "key": "0x0d4a11d5eeaac28ec3f61d100daf4d40471f1852",
                                    "value": {
                                        "current": "33687398404103",
                                        "prev": "33686911817649",
                                        "typeTag": 1
                                    }
                                },
                                {
                                    "key": "0x7c30ffc4fea98deb6aad172d6e3d673c962c13f5",
                                    "value": {
                                        "current": "296172321681",
                                        "prev": "296658908135",
                                        "typeTag": 1
                                    }
                                }
                            ],
                            "typeTag": 4
                        }
                    }
                ]
            }
        ]
    }
}