{
    "balance_change": {
        "balanceChanges": [
            {
                "account": "0xeca2e2d894d19778939bd4dfc34d2a3c45e96456",
                "assets": [
                    {
                        "address": "0xeeeeeeeeeeeeeeeeeeeeeeeeeeeeeeeeeeeeeeee",
                        "amount": "0.000000000000059399",
                        "iconUrl": "https://assets.blocksec.com/image/1663669189317-3.png",
                        "isERC1155": false,
                        "isERC721": false,
                        "sign": false,
                        "value": ""
                    }
                ]
            },
            {
                "account": "0x4cb18386e5d1f34dc6eea834bf3534a970a3f8e7",
                "assets": [
                    {
                        "address": "0xeeeeeeeeeeeeeeeeeeeeeeeeeeeeeeeeeeeeeeee",
                        "amount": "0.000000000000059399",
                        "iconUrl": "https://assets.blocksec.com/image/1663669189317-3.png",
                        "isERC1155": false,
                        "isERC721": false,
                        "sign": true,
                        "value": ""
                    }
                ]
            },
            {
                "account": "0x151ccb92bc1ed5c6d0f9adb5cec4763ceb66ac7f",
                "assets": [
                    {
                        "address": "0xaa6e8127831c9de45ae56bb1b0d4d4da6e5665bd",
                        "amount": "87.413378975906241261",
                        "iconUrl": "",
                        "isERC1155": false,
                        "isERC721": false,
                        "sign": false,
                        "value": "6935.693098"
                    },
                    {
                        "address": "0xc02aaa39b223fe8d0a0e5c4f27ead9083c756cc2",
                        "amount": "2.305039027513774956",
                        "iconUrl": "https://assets.blocksec.com/icon/f1cb2d02c471d545bbc7722daf3277fd852d98e63d118771af7047bd8256c516.png",
                        "isERC1155": false,
                        "isERC721": false,
                        "sign": true,
                        "value": "6989.180247"
                    }
                ]
            },
            {
                "account": "0x56178a0d5f301baf6cf3e1cd53d9863437345bf9",
                "assets": [
                    {
                        "address": "0xaa6e8127831c9de45ae56bb1b0d4d4da6e5665bd",
                        "amount": "87.413378975906241261",
                        "iconUrl": "",
                        "isERC1155": false,
                        "isERC721": false,
                        "sign": true,
                        "value": "6935.693098"
                    },
                    {
                        "address": "0xc02aaa39b223fe8d0a0e5c4f27ead9083c756cc2",
                        "amount": "2.305039027513774956",
                        "iconUrl": "https://assets.blocksec.com/icon/f1cb2d02c471d545bbc7722daf3277fd852d98e63d118771af7047bd8256c516.png",
                        "isERC1155": false,
                        "isERC721": false,
                        "sign": false,
                        "value": "6989.180247"
                    }
                ]
            }
        ]
    },
    "profile": {
        "basic_info": {
            "baseFee": "51.361608816",
            "blockNumber": 14445649,
            "callData": "0x1cff79cd000000000000000000000000cd442c217a1c8334972cb98ef0ab6c765402c07f00000000000000000000000000000000000000000000000000000000000000400000000000000000000000000000000000000000000000000000000000000164482c2f010000000000000000000000000000000000000000000000000000000000000bb8000000000000000000000000aa6e8127831c9de45ae56bb1b0d4d4da6e5665bd000000000000000000000000c02aaa39b223fe8d0a0e5c4f27ead9083c756cc200000000000000000000000056178a0d5f301baf6cf3e1cd53d9863437345bf90000000000000000000000000000000000000000000000001ffd24c86c5ed36c00000000000000000000000000000000000000000015e594889dc77ef34e9e0000000000000000000000000000000000000000002996c3a88954538cc5ef0772000000000000000000000000000000000000000000000000005dfcaf0552d14200000000000000000000000000000000000000000000000000000000623bb4260000000000000000000000000000000000000000000000000000000000000000000000000000000000000000151ccb92bc1ed5c6d0f9adb5cec4763ceb66ac7f00000000000000000000000000000000000000000000000000000000",
            "debugEnable": true,
            "errorInfo": "",
            "eventCount": 3,
            "feeRecipient": "0x829bd824b016326a401d083b33d092293333a830",
            "formatValue": "0.000000000000059399",
            "gasLimit": 900000,
            "gasPrice": "52.861608817",
            "gasUsed": 109657,
            "intTxnCount": 8,
            "internalRevert": false,
            "internalRevertMessage": "",
            "isContractCreation": false,
            "isFlashloan": false,
            "maxFee": "63.13393058",
            "nonce": 33529,
            "overwritedBlockNumber": -1,
            "priorityFee": "1.500000001",
            "receiver": "0x4cb18386e5d1f34dc6eea834bf3534a970a3f8e7",
            "revertMessage": "",
            "sender": "0xeca2e2d894d19778939bd4dfc34d2a3c45e96456",
            "simulationEnable": true,
            "sourceTxnHash": "0x1ecac860a161ac9f900bc0688f43653702954739e123479a571a9f038bfbd7de",
            "status": true,
            "timestamp": "2022-03-23T23:57:19Z",
            "transactionFee": "0.005796645438045769",
            "txnHash": "0x1ecac860a161ac9f900bc0688f43653702954739e123479a571a9f038bfbd7de",
            "txnIndex": 1,
            "type": 2,
            "value": "59399"
        },
        "fund_flow": [
            {
                "amount": "0.000000000000059399",
                "from": "0xeca2e2d894d19778939bd4dfc34d2a3c45e96456",
                "id": 1,
                "isERC1155": false,
                "isERC721": false,
                "isReverted": false,
                "order": 1,
                "to": "0x4cb18386e5d1f34dc6eea834bf3534a970a3f8e7",
                "token": "0xeeeeeeeeeeeeeeeeeeeeeeeeeeeeeeeeeeeeeeee"
            },
            {
                "amount": "87.413378975906241261",
                "from": "0x151ccb92bc1ed5c6d0f9adb5cec4763ceb66ac7f",
                "id": 2,
                "isERC1155": false,
                "isERC721": false,
                "isReverted": false,
                "order": 2,
                "to": "0x56178a0d5f301baf6cf3e1cd53d9863437345bf9",
                "token": "0xaa6e8127831c9de45ae56bb1b0d4d4da6e5665bd"
            },
            {
                "amount": "2.305039027513774956",
                "from": "0x56178a0d5f301baf6cf3e1cd53d9863437345bf9",
                "id": 3,
                "isERC1155": false,
                "isERC721": false,
                "isReverted": false,
                "order": 3,
                "to": "0x151ccb92bc1ed5c6d0f9adb5cec4763ceb66ac7f",
                "token": "0xc02aaa39b223fe8d0a0e5c4f27ead9083c756cc2"
            }
        ],
        "token_infos": [
            {
                "address": "0xaa6e8127831c9de45ae56bb1b0d4d4da6e5665bd",
                "decimals": 18
            },
            {
                "address": "0xc02aaa39b223fe8d0a0e5c4f27ead9083c756cc2",
                "decimals": 18
            },
            {
                "address": "0xeeeeeeeeeeeeeeeeeeeeeeeeeeeeeeeeeeeeeeee",
                "decimals": 18
            }
        ]
    },
    "address_label": {
        "labels": [
            {
                "address": "0x4cb18386e5d1f34dc6eea834bf3534a970a3f8e7",
                "label": "MEV Bot: 0x4Cb...8e7"
            },
            {
                "address": "0xc02aaa39b223fe8d0a0e5c4f27ead9083c756cc2",
                "label": "Wrapped Ether (WETH)"
            },
            {
                "address": "0x151ccb92bc1ed5c6d0f9adb5cec4763ceb66ac7f",
                "label": "Uniswap V3: ETH2x-FLI"
            },
            {
                "address": "0x0000000000000000000000000000000000000004",
                "label": "Precompiled"
            },
            {
                "address": "0x0000000000000000000000000000000000000003",
                "label": "Precompiled"
            },
            {
                "address": "0xeeeeeeeeeeeeeeeeeeeeeeeeeeeeeeeeeeeeeeee",
                "label": "Ether"
            },
            {
                "address": "0xaa6e8127831c9de45ae56bb1b0d4d4da6e5665bd",
                "label": "Index Protocol: ETH 2x Flexible Leverage Index"
            },
            {
                "address": "0x0000000000000000000000000000000000000001",
                "label": "Precompiled"
            },
            {
                "address": "0x0000000000000000000000000000000000000002",
                "label": "Precompiled"
            }
        ]
    },
    "trace": {
        "accountLabels": null,
        "dataMap": {
            "-1": {
                "invocation": {
                    "address": "0xeca2e2d894d19778939bd4dfc34d2a3c45e96456",
                    "callData": "",
                    "decodedMethod": null,
                    "errorInfo": "",
                    "fromAddress": "",
                    "gasUsed": 0,
                    "id": -1,
                    "methodDecoded": false,
                    "operation": "",
                    "output": "",
                    "revert": false,
                    "revertMessage": "",
                    "selector": "",
                    "status": false,
                    "value": ""
                },
                "nodeType": 0
            },
            "0": {
                "invocation": {
                    "address": "0x4cb18386e5d1f34dc6eea834bf3534a970a3f8e7",
                    "callData": "0x000000000000000000000000cd442c217a1c8334972cb98ef0ab6c765402c07f00000000000000000000000000000000000000000000000000000000000000400000000000000000000000000000000000000000000000000000000000000164482c2f010000000000000000000000000000000000000000000000000000000000000bb8000000000000000000000000aa6e8127831c9de45ae56bb1b0d4d4da6e5665bd000000000000000000000000c02aaa39b223fe8d0a0e5c4f27ead9083c756cc200000000000000000000000056178a0d5f301baf6cf3e1cd53d9863437345bf90000000000000000000000000000000000000000000000001ffd24c86c5ed36c00000000000000000000000000000000000000000015e594889dc77ef34e9e0000000000000000000000000000000000000000002996c3a88954538cc5ef0772000000000000000000000000000000000000000000000000005dfcaf0552d14200000000000000000000000000000000000000000000000000000000623bb4260000000000000000000000000000000000000000000000000000000000000000000000000000000000000000151ccb92bc1ed5c6d0f9adb5cec4763ceb66ac7f00000000000000000000000000000000000000000000000000000000",
                    "decodedMethod": {
                        "callParams": [
                            {
                                "name": "_target",
                                "type": "address",
                                "value": "0xcd442c217a1c8334972cb98ef0ab6c765402c07f"
                            },
                            {
                                "name": "_data",
                                "type": "bytes",
                                "value": "0x482c2f010000000000000000000000000000000000000000000000000000000000000bb8000000000000000000000000aa6e8127831c9de45ae56bb1b0d4d4da6e5665bd000000000000000000000000c02aaa39b223fe8d0a0e5c4f27ead9083c756cc200000000000000000000000056178a0d5f301baf6cf3e1cd53d9863437345bf90000000000000000000000000000000000000000000000001ffd24c86c5ed36c00000000000000000000000000000000000000000015e594889dc77ef34e9e0000000000000000000000000000000000000000002996c3a88954538cc5ef0772000000000000000000000000000000000000000000000000005dfcaf0552d14200000000000000000000000000000000000000000000000000000000623bb4260000000000000000000000000000000000000000000000000000000000000000000000000000000000000000151ccb92bc1ed5c6d0f9adb5cec4763ceb66ac7f"
                            }
                        ],
                        "constructorArguments": "",
                        "name": "execute",
                        "returnParams": [],
                        "signature": "execute(address,bytes)"
                    },
                    "errorInfo": "",
                    "fromAddress": "0xeca2e2d894d19778939bd4dfc34d2a3c45e96456",
                    "gasUsed": 109657,
                    "id": 0,
                    "methodDecoded": true,
                    "operation": "CALL",
                    "output": "",
                    "revert": false,
                    "revertMessage": "",
                    "selector": "0x1cff79cd",
                    "status": true,
                    "value": "0.000000000000059399"
                },
                "nodeType": 0
            },
            "1": {
                "invocation": {
                    "address": "0xcd442c217a1c8334972cb98ef0ab6c765402c07f",
                    "callData": "0x0000000000000000000000000000000000000000000000000000000000000bb8000000000000000000000000aa6e8127831c9de45ae56bb1b0d4d4da6e5665bd000000000000000000000000c02aaa39b223fe8d0a0e5c4f27ead9083c756cc200000000000000000000000056178a0d5f301baf6cf3e1cd53d9863437345bf90000000000000000000000000000000000000000000000001ffd24c86c5ed36c00000000000000000000000000000000000000000015e594889dc77ef34e9e0000000000000000000000000000000000000000002996c3a88954538cc5ef0772000000000000000000000000000000000000000000000000005dfcaf0552d14200000000000000000000000000000000000000000000000000000000623bb4260000000000000000000000000000000000000000000000000000000000000000000000000000000000000000151ccb92bc1ed5c6d0f9adb5cec4763ceb66ac7f",
                    "decodedMethod": null,
                    "errorInfo": "",
                    "fromAddress": "0x4cb18386e5d1f34dc6eea834bf3534a970a3f8e7",
                    "gasUsed": 79249,
                    "id": 1,
                    "methodDecoded": false,
                    "operation": "DELEGATECALL",
                    "output": "0x0000000000000000000000000000000000000000000000001ffd24c86c5ed36c000000000000000000000000000000000000000000000000001fb7b94fe47150",
                    "revert": false,
                    "revertMessage": "",
                    "selector": "0x482c2f01",
                    "status": true,
                    "value": "0.000000000000059399"
                },
                "nodeType": 0
            },
            "10": {
                "invocation": {
                    "address": "0xc02aaa39b223fe8d0a0e5c4f27ead9083c756cc2",
                    "callData": "0x000000000000000000000000151ccb92bc1ed5c6d0f9adb5cec4763ceb66ac7f",
                    "decodedMethod": {
                        "callParams": [
                            {
                                "name": "",
                                "type": "address",
                                "value": "0x151ccb92bc1ed5c6d0f9adb5cec4763ceb66ac7f"
                            }
                        ],
                        "constructorArguments": "",
                        "name": "balanceOf",
                        "returnParams": [
                            {
                                "decimalAvailable": true,
                                "name": "",
                                "type": "uint256",
                                "value": "1,471,974,953,543,219,636,418"
                            }
                        ],
                        "signature": "balanceOf(address)"
                    },
                    "errorInfo": "",
                    "fromAddress": "0x151ccb92bc1ed5c6d0f9adb5cec4763ceb66ac7f",
                    "gasUsed": 534,
                    "id": 10,
                    "methodDecoded": true,
                    "operation": "STATICCALL",
                    "output": "0x00000000000000000000000000000000000000000000004fcbc18d63d7b968c2",
                    "revert": false,
                    "revertMessage": "",
                    "selector": "0x70a08231",
                    "status": true,
                    "value": "0"
                },
                "nodeType": 0
            },
            "11": {
                "event": {
                    "contract": "0x151ccb92bc1ed5c6d0f9adb5cec4763ceb66ac7f",
                    "decodedLog": {
                        "name": "Swap",
                        "params": [
                            {
                                "name": "sender",
                                "type": "address",
                                "value": "0x4cb18386e5d1f34dc6eea834bf3534a970a3f8e7"
                            },
                            {
                                "name": "recipient",
                                "type": "address",
                                "value": "0x56178a0d5f301baf6cf3e1cd53d9863437345bf9"
                            },
                            {
                                "name": "amount0",
                                "type": "int256",
                                "value": "-87,413,378,975,906,241,261"
                            },
                            {
                                "name": "amount1",
                                "type": "int256",
                                "value": "2,305,039,027,513,774,956"
                            },
                            {
                                "name": "sqrtPriceX96",
                                "type": "uint160",
                                "value": "12,847,021,864,654,139,868,469,079,782"
                            },
                            {
                                "name": "liquidity",
                                "type": "uint128",
                                "value": "122,555,109,386,137,925,904,276"
                            },
                            {
                                "name": "tick",
                                "type": "int24",
                                "value": "-36,387"
                            }
                        ],
                        "signature": "Swap(address,address,int256,int256,uint160,uint128,int24)"
                    },
                    "id": 11,
                    "logData": "0xfffffffffffffffffffffffffffffffffffffffffffffffb42e54af5148265130000000000000000000000000000000000000000000000001ffd24c86c5ed36c00000000000000000000000000000000000000002982ceb2c805e16161252ee60000000000000000000000000000000000000000000019f3b9cd85e4e478e794ffffffffffffffffffffffffffffffffffffffffffffffffffffffffffff71dd",
                    "logDecoded": true,
                    "operation": "EVENT",
                    "revert": false,
                    "status": true,
                    "topics": [
                        "0xc42079f94a6350d7e6235f29174924f928cc2ac818eb64fed8004e115fbcca67",
                        "0x0000000000000000000000004cb18386e5d1f34dc6eea834bf3534a970a3f8e7",
                        "0x00000000000000000000000056178a0d5f301baf6cf3e1cd53d9863437345bf9"
                    ]
                },
                "nodeType": 1
            },
            "2": {
                "invocation": {
                    "address": "0xc02aaa39b223fe8d0a0e5c4f27ead9083c756cc2",
                    "callData": "0x00000000000000000000000056178a0d5f301baf6cf3e1cd53d9863437345bf9",
                    "decodedMethod": {
                        "callParams": [
                            {
                                "name": "",
                                "type": "address",
                                "value": "0x56178a0d5f301baf6cf3e1cd53d9863437345bf9"
                            }
                        ],
                        "constructorArguments": "",
                        "name": "balanceOf",
                        "returnParams": [
                            {
                                "decimalAvailable": true,
                                "name": "",
                                "type": "uint256",
                                "value": "7,618,526,849,128,185,561,021"
                            }
                        ],
                        "signature": "balanceOf(address)"
                    },
                    "errorInfo": "",
                    "fromAddress": "0x4cb18386e5d1f34dc6eea834bf3534a970a3f8e7",
                    "gasUsed": 2534,
                    "id": 2,
                    "methodDecoded": true,
                    "operation": "CALL",
                    "output": "0x00000000000000000000000000000000000000000000019d004c8c98cd817fbd",
                    "revert": false,
                    "revertMessage": "",
                    "selector": "0x70a08231",
                    "status": true,
                    "value": "0"
                },
                "nodeType": 0
            },
            "3": {
                "invocation": {
                    "address": "0x151ccb92bc1ed5c6d0f9adb5cec4763ceb66ac7f",
                    "callData": "0x00000000000000000000000056178a0d5f301baf6cf3e1cd53d9863437345bf900000000000000000000000000000000000000000000000000000000000000000000000000000000000000000000000000000000000000001ffd24c86c5ed36c00000000000000000000000000000000000000002996c3a88954538cc5ef077200000000000000000000000000000000000000000000000000000000000000a00000000000000000000000000000000000000000000000000000000000000060e5e51df99c767c841f65beae4e5ee69cc4d9d3fcabc19ae252fb0f1621e810f600000000000000000000000056178a0d5f301baf6cf3e1cd53d9863437345bf9000000000000000000000000c02aaa39b223fe8d0a0e5c4f27ead9083c756cc2",
                    "decodedMethod": {
                        "callParams": [
                            {
                                "name": "recipient",
                                "type": "address",
                                "value": "0x56178a0d5f301baf6cf3e1cd53d9863437345bf9"
                            },
                            {
                                "name": "zeroForOne",
                                "type": "bool",
                                "value": false
                            },
                            {
                                "name": "amountSpecified",
                                "type": "int256",
                                "value": "2,305,039,027,513,774,956"
                            },
                            {
                                "name": "sqrtPriceLimitX96",
                                "type": "uint160",
                                "value": "12,871,148,246,030,132,303,264,417,650"
                            },
                            {
                                "name": "data",
                                "type": "bytes",
                                "value": "0xe5e51df99c767c841f65beae4e5ee69cc4d9d3fcabc19ae252fb0f1621e810f600000000000000000000000056178a0d5f301baf6cf3e1cd53d9863437345bf9000000000000000000000000c02aaa39b223fe8d0a0e5c4f27ead9083c756cc2"
                            }
                        ],
                        "constructorArguments": "",
                        "name": "swap",
                        "returnParams": [
                            {
                                "name": "amount0",
                                "type": "int256",
                                "value": "-87,413,378,975,906,241,261"
                            },
                            {
                                "name": "amount1",
                                "type": "int256",
                                "value": "2,305,039,027,513,774,956"
                            }
                        ],
                        "signature": "swap(address,bool,int256,uint160,bytes)"
                    },
                    "errorInfo": "",
                    "fromAddress": "0x4cb18386e5d1f34dc6eea834bf3534a970a3f8e7",
                    "gasUsed": 70080,
                    "id": 3,
                    "methodDecoded": true,
                    "operation": "CALL",
                    "output": "0xfffffffffffffffffffffffffffffffffffffffffffffffb42e54af5148265130000000000000000000000000000000000000000000000001ffd24c86c5ed36c",
                    "revert": false,
                    "revertMessage": "",
                    "selector": "0x128acb08",
                    "status": true,
                    "value": "0"
                },
                "nodeType": 0
            },
            "4": {
                "invocation": {
                    "address": "0xaa6e8127831c9de45ae56bb1b0d4d4da6e5665bd",
                    "callData": "0x00000000000000000000000056178a0d5f301baf6cf3e1cd53d9863437345bf9000000000000000000000000000000000000000000000004bd1ab50aeb7d9aed",
                    "decodedMethod": {
                        "callParams": [
                            {
                                "name": "recipient",
                                "type": "address",
                                "value": "0x56178a0d5f301baf6cf3e1cd53d9863437345bf9"
                            },
                            {
                                "decimalAvailable": true,
                                "name": "amount",
                                "type": "uint256",
                                "value": "87,413,378,975,906,241,261"
                            }
                        ],
                        "constructorArguments": "",
                        "name": "transfer",
                        "returnParams": [
                            {
                                "name": "",
                                "type": "bool",
                                "value": true
                            }
                        ],
                        "signature": "transfer(address,uint256)"
                    },
                    "errorInfo": "",
                    "fromAddress": "0x151ccb92bc1ed5c6d0f9adb5cec4763ceb66ac7f",
                    "gasUsed": 13194,
                    "id": 4,
                    "methodDecoded": true,
                    "operation": "CALL",
                    "output": "0x0000000000000000000000000000000000000000000000000000000000000001",
                    "revert": false,
                    "revertMessage": "",
                    "selector": "0xa9059cbb",
                    "status": true,
                    "value": "0"
                },
                "nodeType": 0
            },
            "5": {
                "event": {
                    "contract": "0xaa6e8127831c9de45ae56bb1b0d4d4da6e5665bd",
                    "decodedLog": {
                        "name": "Transfer",
                        "params": [
                            {
                                "name": "from",
                                "type": "address",
                                "value": "0x151ccb92bc1ed5c6d0f9adb5cec4763ceb66ac7f"
                            },
                            {
                                "name": "to",
                                "type": "address",
                                "value": "0x56178a0d5f301baf6cf3e1cd53d9863437345bf9"
                            },
                            {
                                "decimalAvailable": true,
                                "name": "value",
                                "type": "uint256",
                                "value": "87,413,378,975,906,241,261"
                            }
                        ],
                        "signature": "Transfer(address,address,uint256)"
                    },
                    "id": 5,
                    "logData": "0x000000000000000000000000000000000000000000000004bd1ab50aeb7d9aed",
                    "logDecoded": true,
                    "operation": "EVENT",
                    "revert": false,
                    "status": true,
                    "topics": [
                        "0xddf252ad1be2c89b69c2b068fc378daa952ba7f163c4a11628f55a4df523b3ef",
                        "0x000000000000000000000000151ccb92bc1ed5c6d0f9adb5cec4763ceb66ac7f",
                        "0x00000000000000000000000056178a0d5f301baf6cf3e1cd53d9863437345bf9"
                    ]
                },
                "nodeType": 1
            },
            "6": {
                "invocation": {
                    "address": "0xc02aaa39b223fe8d0a0e5c4f27ead9083c756cc2",
                    "callData": "0x000000000000000000000000151ccb92bc1ed5c6d0f9adb5cec4763ceb66ac7f",
                    "decodedMethod": {
                        "callParams": [
                            {
                                "name": "",
                                "type": "address",
                                "value": "0x151ccb92bc1ed5c6d0f9adb5cec4763ceb66ac7f"
                            }
                        ],
                        "constructorArguments": "",
                        "name": "balanceOf",
                        "returnParams": [
                            {
                                "decimalAvailable": true,
                                "name": "",
                                "type": "uint256",
                                "value": "1,469,669,914,515,705,861,462"
                            }
                        ],
                        "signature": "balanceOf(address)"
                    },
                    "errorInfo": "",
                    "fromAddress": "0x151ccb92bc1ed5c6d0f9adb5cec4763ceb66ac7f",
                    "gasUsed": 2534,
                    "id": 6,
                    "methodDecoded": true,
                    "operation": "STATICCALL",
                    "output": "0x00000000000000000000000000000000000000000000004fabc4689b6b5a9556",
                    "revert": false,
                    "revertMessage": "",
                    "selector": "0x70a08231",
                    "status": true,
                    "value": "0"
                },
                "nodeType": 0
            },
            "7": {
                "invocation": {
                    "address": "0x4cb18386e5d1f34dc6eea834bf3534a970a3f8e7",
                    "callData": "0xfffffffffffffffffffffffffffffffffffffffffffffffb42e54af5148265130000000000000000000000000000000000000000000000001ffd24c86c5ed36c00000000000000000000000000000000000000000000000000000000000000600000000000000000000000000000000000000000000000000000000000000060e5e51df99c767c841f65beae4e5ee69cc4d9d3fcabc19ae252fb0f1621e810f600000000000000000000000056178a0d5f301baf6cf3e1cd53d9863437345bf9000000000000000000000000c02aaa39b223fe8d0a0e5c4f27ead9083c756cc2",
                    "decodedMethod": {
                        "callParams": [
                            {
                                "name": "amount0Delta",
                                "type": "int256",
                                "value": "-87,413,378,975,906,241,261"
                            },
                            {
                                "name": "amount1Delta",
                                "type": "int256",
                                "value": "2,305,039,027,513,774,956"
                            },
                            {
                                "name": "data",
                                "type": "bytes",
                                "value": "0xe5e51df99c767c841f65beae4e5ee69cc4d9d3fcabc19ae252fb0f1621e810f600000000000000000000000056178a0d5f301baf6cf3e1cd53d9863437345bf9000000000000000000000000c02aaa39b223fe8d0a0e5c4f27ead9083c756cc2"
                            }
                        ],
                        "constructorArguments": "",
                        "name": "uniswapV3SwapCallback",
                        "returnParams": [],
                        "signature": "uniswapV3SwapCallback(int256,int256,bytes)"
                    },
                    "errorInfo": "",
                    "fromAddress": "0x151ccb92bc1ed5c6d0f9adb5cec4763ceb66ac7f",
                    "gasUsed": 11602,
                    "id": 7,
                    "methodDecoded": true,
                    "operation": "CALL",
                    "output": "",
                    "revert": false,
                    "revertMessage": "",
                    "selector": "0xfa461e33",
                    "status": true,
                    "value": "0"
                },
                "nodeType": 0
            },
            "8": {
                "invocation": {
                    "address": "0xc02aaa39b223fe8d0a0e5c4f27ead9083c756cc2",
                    "callData": "0x00000000000000000000000056178a0d5f301baf6cf3e1cd53d9863437345bf9000000000000000000000000151ccb92bc1ed5c6d0f9adb5cec4763ceb66ac7f0000000000000000000000000000000000000000000000001ffd24c86c5ed36c",
                    "decodedMethod": {
                        "callParams": [
                            {
                                "name": "src",
                                "type": "address",
                                "value": "0x56178a0d5f301baf6cf3e1cd53d9863437345bf9"
                            },
                            {
                                "name": "dst",
                                "type": "address",
                                "value": "0x151ccb92bc1ed5c6d0f9adb5cec4763ceb66ac7f"
                            },
                            {
                                "decimalAvailable": true,
                                "name": "wad",
                                "type": "uint256",
                                "value": "2,305,039,027,513,774,956"
                            }
                        ],
                        "constructorArguments": "",
                        "name": "transferFrom",
                        "returnParams": [
                            {
                                "name": "",
                                "type": "bool",
                                "value": true
                            }
                        ],
                        "signature": "transferFrom(address,address,uint256)"
                    },
                    "errorInfo": "",
                    "fromAddress": "0x4cb18386e5d1f34dc6eea834bf3534a970a3f8e7",
                    "gasUsed": 11025,
                    "id": 8,
                    "methodDecoded": true,
                    "operation": "CALL",
                    "output": "0x0000000000000000000000000000000000000000000000000000000000000001",
                    "revert": false,
                    "revertMessage": "",
                    "selector": "0x23b872dd",
                    "status": true,
                    "value": "0"
                },
                "nodeType": 0
            },
            "9": {
                "event": {
                    "contract": "0xc02aaa39b223fe8d0a0e5c4f27ead9083c756cc2",
                    "decodedLog": {
                        "name": "Transfer",
                        "params": [
                            {
                                "name": "src",
                                "type": "address",
                                "value": "0x56178a0d5f301baf6cf3e1cd53d9863437345bf9"
                            },
                            {
                                "name": "dst",
                                "type": "address",
                                "value": "0x151ccb92bc1ed5c6d0f9adb5cec4763ceb66ac7f"
                            },
                            {
                                "decimalAvailable": true,
                                "name": "wad",
                                "type": "uint256",
                                "value": "2,305,039,027,513,774,956"
                            }
                        ],
                        "signature": "Transfer(address,address,uint256)"
                    },
                    "id": 9,
                    "logData": "0x0000000000000000000000000000000000000000000000001ffd24c86c5ed36c",
                    "logDecoded": true,
                    "operation": "EVENT",
                    "revert": false,
                    "status": true,
                    "topics": [
                        "0xddf252ad1be2c89b69c2b068fc378daa952ba7f163c4a11628f55a4df523b3ef",
                        "0x00000000000000000000000056178a0d5f301baf6cf3e1cd53d9863437345bf9",
                        "0x000000000000000000000000151ccb92bc1ed5c6d0f9adb5cec4763ceb66ac7f"
                    ]
                },
                "nodeType": 1
            }
        },
        "gasFlame": [
            {
                "children": [
                    {
                        "children": [
                            {
                                "children": [],
                                "depth": 0,
                                "name": "Initial Gas",
                                "value": 24784
                            },
                            {
                                "children": [
                                    {
                                        "children": [
                                            {
                                                "children": [],
                                                "depth": 2,
                                                "name": "balanceOf",
                                                "value": 2534
                                            },
                                            {
                                                "children": [
                                                    {
                                                        "children": [],
                                                        "depth": 3,
                                                        "name": "transfer",
                                                        "value": 13194
                                                    },
                                                    {
                                                        "children": [],
                                                        "depth": 3,
                                                        "name": "balanceOf",
                                                        "value": 2534
                                                    },
                                                    {
                                                        "children": [
                                                            {
                                                                "children": [],
                                                                "depth": 4,
                                                                "name": "transferFrom",
                                                                "value": 11025
                                                            }
                                                        ],
                                                        "depth": 3,
                                                        "name": "uniswapV3SwapCallback",
                                                        "value": 11602
                                                    },
                                                    {
                                                        "children": [],
                                                        "depth": 3,
                                                        "name": "balanceOf",
                                                        "value": 534
                                                    }
                                                ],
                                                "depth": 2,
                                                "name": "swap",
                                                "value": 70080
                                            }
                                        ],
                                        "depth": 1,
                                        "name": "0x482c2f01",
                                        "value": 79249
                                    }
                                ],
                                "depth": 0,
                                "name": "Executed Gas",
                                "value": 84873
                            }
                        ],
                        "depth": -1,
                        "name": "Actual Gas Used",
                        "value": 109657
                    },
                    {
                        "children": [],
                        "depth": -1,
                        "name": "Refunded Gas",
                        "value": 0
                    }
                ],
                "depth": -2,
                "name": "Total Gas",
                "value": 109657
            }
        ],
        "isConfirmed": true,
        "mainTrace": [
            {
                "children": [
                    {
                        "children": [
                            {
                                "children": [
                                    {
                                        "children": [],
                                        "depth": 2,
                                        "id": 2,
                                        "order": 2
                                    },
                                    {
                                        "children": [
                                            {
                                                "children": [
                                                    {
                                                        "children": [],
                                                        "depth": 4,
                                                        "id": 5,
                                                        "order": 5
                                                    }
                                                ],
                                                "depth": 3,
                                                "id": 4,
                                                "order": 4
                                            },
                                            {
                                                "children": [],
                                                "depth": 3,
                                                "id": 6,
                                                "order": 6
                                            },
                                            {
                                                "children": [
                                                    {
                                                        "children": [
                                                            {
                                                                "children": [],
                                                                "depth": 5,
                                                                "id": 9,
                                                                "order": 9
                                                            }
                                                        ],
                                                        "depth": 4,
                                                        "id": 8,
                                                        "order": 8
                                                    }
                                                ],
                                                "depth": 3,
                                                "id": 7,
                                                "order": 7
                                            },
                                            {
                                                "children": [],
                                                "depth": 3,
                                                "id": 10,
                                                "order": 10
                                            },
                                            {
                                                "children": [],
                                                "depth": 3,
                                                "id": 11,
                                                "order": 11
                                            }
                                        ],
                                        "depth": 2,
                                        "id": 3,
                                        "order": 3
                                    }
                                ],
                                "depth": 1,
                                "id": 1,
                                "order": 1
                            }
                        ],
                        "depth": 0,
                        "id": 0,
                        "order": 0
                    }
                ],
                "depth": -1,
                "id": -1,
                "order": -1
            }
        ],
        "mainTraceNodeCount": 12,
        "parentIdMap": {
            "0": -1,
            "1": 0,
            "10": 3,
            "11": 3,
            "2": 1,
            "3": 1,
            "4": 3,
            "5": 4,
            "6": 3,
            "7": 3,
            "8": 7,
            "9": 8
        },
        "tidyTrace": [
            {
                "children": [
                    {
                        "children": [
                            {
                                "children": [
                                    {
                                        "children": [],
                                        "depth": 2,
                                        "id": 2,
                                        "order": 2
                                    },
                                    {
                                        "children": [
                                            {
                                                "children": [
                                                    {
                                                        "children": [],
                                                        "depth": 4,
                                                        "id": 5,
                                                        "order": 5
                                                    }
                                                ],
                                                "depth": 3,
                                                "id": 4,
                                                "order": 4
                                            },
                                            {
                                                "children": [
                                                    {
                                                        "children": [
                                                            {
                                                                "children": [],
                                                                "depth": 5,
                                                                "id": 9,
                                                                "order": 9
                                                            }
                                                        ],
                                                        "depth": 4,
                                                        "id": 8,
                                                        "order": 8
                                                    }
                                                ],
                                                "depth": 3,
                                                "id": 7,
                                                "order": 7
                                            },
                                            {
                                                "children": [],
                                                "depth": 3,
                                                "id": 11,
                                                "order": 11
                                            }
                                        ],
                                        "depth": 2,
                                        "id": 3,
                                        "order": 3
                                    }
                                ],
                                "depth": 1,
                                "id": 1,
                                "order": 1
                            }
                        ],
                        "depth": 0,
                        "id": 0,
                        "order": 0
                    }
                ],
                "depth": -1,
                "id": -1,
                "order": -1
            }
        ],
        "tidyTraceNodeCount": 10
    },
    "state_change": {
        "stateChanges": [
            {
                "address": "0x151ccb92bc1ed5c6d0f9adb5cec4763ceb66ac7f",
                "erc": "",
                "slots": [
                    {
                        "current": "0x00000000000000000000000000000000048856b2467b1732e870cc31a6f6bea4",
                        "key": "0x0000000000000000000000000000000000000000000000000000000000000002",
                        "prev": "0x00000000000000000000000000000000048855bfef07c49e954b23d6d96d52b5"
                    },
                    {
                        "current": "0x000100009600960040ff71dd00000000000000002982ceb2c805e16161252ee6",
                        "key": "0x0000000000000000000000000000000000000000000000000000000000000000",
                        "prev": "0x00010000960096003fff71db00000000000000002981941896a5ad7ec79efe55"
                    },
                    {
                        "current": "0x010000000000000000000052df44ee0f8dece65975ffff2eb45dcc1f623bb3df",
                        "key": "0x0000000000000000000000000000000000000000000000000000000000000048",
                        "prev": "0x010000000000000000000052d2a82a7ca0be4275dcffff2f6717de46623a730f"
                    }
                ],
                "storageVariables": []
            },
            {
                "address": "0xaa6e8127831c9de45ae56bb1b0d4d4da6e5665bd",
                "erc": "ERC-20",
                "slots": [
                    {
                        "current": "0x00000000000000000000000000000000000000000000297696347fb680c157b8",
                        "key": "0xba33e9b8db02508f048aa1db6e9c0afddb03933b0bff1a3c90d6bafefde1d9e3",
                        "prev": "0x00000000000000000000000000000000000000000000297b534f34c16c3ef2a5"
                    },
                    {
                        "current": "0x0000000000000000000000000000000000000000000002b1208005b6661852a9",
                        "key": "0xf7c84b5d1f3a0563cd20b346c00dcaaaf749870e80d340ce8dc6213863709a60",
                        "prev": "0x0000000000000000000000000000000000000000000002ac636550ab7a9ab7bc"
                    }
                ],
                "storageVariables": [
                    {
                        "name": "_balances",
                        "type": "mapping(address => uint256)",
                        "value": {
                            "pairs": [
                                {
                                    "key": "0x151ccb92bc1ed5c6d0f9adb5cec4763ceb66ac7f",
                                    "value": {
                                        "current": "195804565014579479926712",
                                        "prev": "195891978393555386167973",
                                        "typeTag": 1
                                    }
                                },
                                {
                                    "key": "0x56178a0d5f301baf6cf3e1cd53d9863437345bf9",
                                    "value": {
                                        "current": "12712148544873068778153",
                                        "prev": "12624735165897162536892",
                                        "typeTag": 1
                                    }
                                }
                            ],
                            "typeTag": 4
                        }
                    }
                ]
            },
            {
                "address": "0xc02aaa39b223fe8d0a0e5c4f27ead9083c756cc2",
                "erc": "ERC-20",
                "slots": [
                    {
                        "current": "0x00000000000000000000000000000000000000000000019ce04f67d06122ac51",
                        "key": "0x30bd84b96629f958113934633d3bd1b64c3d259a85c57ceac65da8c5ec9bf3a7",
                        "prev": "0x00000000000000000000000000000000000000000000019d004c8c98cd817fbd"
                    },
                    {
                        "current": "0x00000000000000000000000000000000000000000000004fcbc18d63d7b968c2",
                        "key": "0xc52f396c407e484c805c250341c5b6182c11dea9069b8555d0a5c7093be785b9",
                        "prev": "0x00000000000000000000000000000000000000000000004fabc4689b6b5a9556"
                    }
                ],
                "storageVariables": [
                    {
                        "name": "balanceOf",
                        "type": "mapping(address => uint256)",
                        "value": {
                            "pairs": [
                                {
                                    "key": "0x151ccb92bc1ed5c6d0f9adb5cec4763ceb66ac7f",
                                    "value": {
                                        "current": "1471974953543219636418",
                                        "prev": "1469669914515705861462",
                                        "typeTag": 1
                                    }
                                },
                                {
                                    "key": "0x56178a0d5f301baf6cf3e1cd53d9863437345bf9",
                                    "value": {
                                        "current": "7616221810100671786065",
                                        "prev": "7618526849128185561021",
                                        "typeTag": 1
                                    }
                                }
                            ],
                            "typeTag": 4
                        }
                    }
                ]
            }
        ]
    }
}