{
    "balance_change": {
        "balanceChanges": [
            {
                "account": "0xcd4c75f0fb2be3ecf0ad384a48a2b761b2a5c0d1",
                "assets": [
                    {
                        "address": "0xeeeeeeeeeeeeeeeeeeeeeeeeeeeeeeeeeeeeeeee",
                        "amount": "0.33",
                        "iconUrl": "https://assets.blocksec.com/image/1663669189317-3.png",
                        "isERC1155": false,
                        "isERC721": false,
                        "sign": false,
                        "value": "596.3383625100000109"
                    },
                    {
                        "address": "0xe9fca552b9eb110c2d170962af740725f71f5644",
                        "amount": "1",
                        "iconUrl": "",
                        "isERC1155": false,
                        "isERC721": true,
                        "sign": true,
                        "tokenID": "4289",
                        "value": ""
                    }
                ]
            },
            {
                "account": "0x19776383961f72fd00f159f5db5cf48dbfa89546",
                "assets": [
                    {
                        "address": "0xeeeeeeeeeeeeeeeeeeeeeeeeeeeeeeeeeeeeeeee",
                        "amount": "0.02475",
                        "iconUrl": "https://assets.blocksec.com/image/1663669189317-3.png",
                        "isERC1155": false,
                        "isERC721": false,
                        "sign": true,
                        "value": "44.725377188250000814"
                    }
                ]
            },
            {
                "account": "0x24b1edfd5fe28e4a50b0d0bc248d1d84fd91d62a",
                "assets": [
                    {
                        "address": "0xe9fca552b9eb110c2d170962af740725f71f5644",
                        "amount": "1",
                        "iconUrl": "",
                        "isERC1155": false,
                        "isERC721": true,
                        "sign": false,
                        "tokenID": "4289",
                        "value": ""
                    },
                    {
                        "address": "0xeeeeeeeeeeeeeeeeeeeeeeeeeeeeeeeeeeeeeeee",
                        "amount": "0.297",
                        "iconUrl": "https://assets.blocksec.com/image/1663669189317-3.png",
                        "isERC1155": false,
                        "isERC721": false,
                        "sign": true,
                        "value": "536.70452625900000976"
                    }
                ]
            },
            {
                "account": "0x8de9c5a032463c561423387a9648c5c7bcc5bc90",
                "assets": [
                    {
                        "address": "0xeeeeeeeeeeeeeeeeeeeeeeeeeeeeeeeeeeeeeeee",
                        "amount": "0.00825",
                        "iconUrl": "https://assets.blocksec.com/image/1663669189317-3.png",
                        "isERC1155": false,
                        "isERC721": false,
                        "sign": true,
                        "value": "14.908459062750000271"
                    }
                ]
            }
        ]
    },
    "profile": {
        "basic_info": {
            "baseFee": "32.305291987",
            "blockNumber": 15010210,
            "callData": "0xfb0f3ee1000000000000000000000000000000000000000000000000000000000000002000000000000000000000000000000000000000000000000000000000000000000000000000000000000000000000000000000000000000000000000000000000000000000000000000000000000000000000000000000000041f27ed2a4a800000000000000000000000000024b1edfd5fe28e4a50b0d0bc248d1d84fd91d62a000000000000000000000000004c00500000ad104d7dbd00e3ae0a5c00560c00000000000000000000000000e9fca552b9eb110c2d170962af740725f71f564400000000000000000000000000000000000000000000000000000000000010c1000000000000000000000000000000000000000000000000000000000000000100000000000000000000000000000000000000000000000000000000000000020000000000000000000000000000000000000000000000000000000062b39f840000000000000000000000000000000000000000000000000000000062db2c8400000000000000000000000000000000000000000000000000000000000000000000000000000000000000000000000000000000000000000099ea3d982f32b60000007b02230091a7ed01230072f7006a004d60a8d4e71d599b8104250f00000000007b02230091a7ed01230072f7006a004d60a8d4e71d599b8104250f00000000000000000000000000000000000000000000000000000000000000000002000000000000000000000000000000000000000000000000000000000000024000000000000000000000000000000000000000000000000000000000000002e00000000000000000000000000000000000000000000000000000000000000002000000000000000000000000000000000000000000000000001d4f54cf65a0000000000000000000000000008de9c5a032463c561423387a9648c5c7bcc5bc900000000000000000000000000000000000000000000000000057edfe6e30e00000000000000000000000000019776383961f72fd00f159f5db5cf48dbfa895460000000000000000000000000000000000000000000000000000000000000041580446b4f478565cdc48017cea0ce6e51d19c9e8986bdea6e0e148e9af889d0c2b4726ec0cea4c84b8c92ab60e0ca4f45fe895ad521578ccf74e16f76602a6481c00000000000000000000000000000000000000000000000000000000000000",
            "debugEnable": true,
            "errorInfo": "",
            "eventCount": 2,
            "feeRecipient": "0x1ad91ee08f21be3de0ba2ba6918e714da6b45836",
            "formatValue": "0.33",
            "gasLimit": 142829,
            "gasPrice": "34.805291987",
            "gasUsed": 137858,
            "intTxnCount": 7,
            "internalRevert": false,
            "internalRevertMessage": "",
            "isContractCreation": false,
            "isFlashloan": false,
            "maxFee": "75.172012912",
            "nonce": 300,
            "overwritedBlockNumber": -1,
            "priorityFee": "2.5",
            "receiver": "0x00000000006c3852cbef3e08e8df289169ede581",
            "revertMessage": "",
            "sender": "0xcd4c75f0fb2be3ecf0ad384a48a2b761b2a5c0d1",
            "simulationEnable": true,
            "sourceTxnHash": "0x1e065b179a193e052293808f0501ac32d71e6f9623256aa3609e652407e146ec",
            "status": true,
            "timestamp": "2022-06-22T23:59:57Z",
            "transactionFee": "0.004798187942743846",
            "txnHash": "0x1e065b179a193e052293808f0501ac32d71e6f9623256aa3609e652407e146ec",
            "txnIndex": 285,
            "type": 2,
            "value": "330000000000000000"
        },
        "fund_flow": [
            {
                "amount": "0.33",
                "from": "0xcd4c75f0fb2be3ecf0ad384a48a2b761b2a5c0d1",
                "id": 1,
                "isERC1155": false,
                "isERC721": false,
                "isReverted": false,
                "order": 1,
                "to": "0x00000000006c3852cbef3e08e8df289169ede581",
                "token": "0xeeeeeeeeeeeeeeeeeeeeeeeeeeeeeeeeeeeeeeee"
            },
            {
                "amount": "1",
                "from": "0x24b1edfd5fe28e4a50b0d0bc248d1d84fd91d62a",
                "id": 2,
                "isERC1155": false,
                "isERC721": true,
                "isReverted": false,
                "order": 2,
                "to": "0xcd4c75f0fb2be3ecf0ad384a48a2b761b2a5c0d1",
                "token": "0xe9fca552b9eb110c2d170962af740725f71f5644",
                "tokenID": "4289"
            },
            {
                "amount": "0.00825",
                "from": "0x00000000006c3852cbef3e08e8df289169ede581",
                "id": 3,
                "isERC1155": false,
                "isERC721": false,
                "isReverted": false,
                "order": 3,
                "to": "0x8de9c5a032463c561423387a9648c5c7bcc5bc90",
                "token": "0xeeeeeeeeeeeeeeeeeeeeeeeeeeeeeeeeeeeeeeee"
            },
            {
                "amount": "0.02475",
                "from": "0x00000000006c3852cbef3e08e8df289169ede581",
                "id": 4,
                "isERC1155": false,
                "isERC721": false,
                "isReverted": false,
                "order": 4,
                "to": "0x19776383961f72fd00f159f5db5cf48dbfa89546",
                "token": "0xeeeeeeeeeeeeeeeeeeeeeeeeeeeeeeeeeeeeeeee"
            },
            {
                "amount": "0.297",
                "from": "0x00000000006c3852cbef3e08e8df289169ede581",
                "id": 5,
                "isERC1155": false,
                "isERC721": false,
                "isReverted": false,
                "order": 5,
                "to": "0x24b1edfd5fe28e4a50b0d0bc248d1d84fd91d62a",
                "token": "0xeeeeeeeeeeeeeeeeeeeeeeeeeeeeeeeeeeeeeeee"
            }
        ],
        "token_infos": [
            {
                "address": "0xc02aaa39b223fe8d0a0e5c4f27ead9083c756cc2",
                "decimals": 18
            },
            {
                "address": "0xeeeeeeeeeeeeeeeeeeeeeeeeeeeeeeeeeeeeeeee",
                "decimals": 18
            }
        ]
    },
    "address_label": {
        "labels": [
            {
                "address": "0x0000000000000000000000000000000000000000",
                "label": "Null Address"
            },
            {
                "address": "0x0000000000000000000000000000000000000003",
                "label": "Precompiled"
            },
            {
                "address": "0x1e0049783f008a0085193e00003d00cd54003c71",
                "label": "OpenSea: Conduit"
            },
            {
                "address": "0x8de9c5a032463c561423387a9648c5c7bcc5bc90",
                "label": "OpenSea: Fees"
            },
            {
                "address": "0x004c00500000ad104d7dbd00e3ae0a5c00560c00",
                "label": "OpenSea: Pausable Zone"
            },
            {
                "address": "0xe9fca552b9eb110c2d170962af740725f71f5644",
                "label": "Night Card: NC Token"
            },
            {
                "address": "0x00000000006c3852cbef3e08e8df289169ede581",
                "label": "Seaport 1.1"
            },
            {
                "address": "0x0000000000000000000000000000000000000001",
                "label": "Precompiled"
            },
            {
                "address": "0x0000000000000000000000000000000000000002",
                "label": "Precompiled"
            },
            {
                "address": "0x0000000000000000000000000000000000000004",
                "label": "Precompiled"
            },
            {
                "address": "0xeeeeeeeeeeeeeeeeeeeeeeeeeeeeeeeeeeeeeeee",
                "label": "Ether"
            }
        ]
    },
    "trace": {
        "accountLabels": null,
        "dataMap": {
            "-1": {
                "invocation": {
                    "address": "0xcd4c75f0fb2be3ecf0ad384a48a2b761b2a5c0d1",
                    "callData": "",
                    "decodedMethod": null,
                    "errorInfo": "",
                    "fromAddress": "",
                    "gasUsed": 0,
                    "id": -1,
                    "methodDecoded": false,
                    "operation": "",
                    "output": "",
                    "revert": false,
                    "revertMessage": "",
                    "selector": "",
                    "status": false,
                    "value": ""
                },
                "nodeType": 0
            },
            "0": {
                "invocation": {
                    "address": "0x00000000006c3852cbef3e08e8df289169ede581",
                    "callData": "0x000000000000000000000000000000000000000000000000000000000000002000000000000000000000000000000000000000000000000000000000000000000000000000000000000000000000000000000000000000000000000000000000000000000000000000000000000000000000000000000000041f27ed2a4a800000000000000000000000000024b1edfd5fe28e4a50b0d0bc248d1d84fd91d62a000000000000000000000000004c00500000ad104d7dbd00e3ae0a5c00560c00000000000000000000000000e9fca552b9eb110c2d170962af740725f71f564400000000000000000000000000000000000000000000000000000000000010c1000000000000000000000000000000000000000000000000000000000000000100000000000000000000000000000000000000000000000000000000000000020000000000000000000000000000000000000000000000000000000062b39f840000000000000000000000000000000000000000000000000000000062db2c8400000000000000000000000000000000000000000000000000000000000000000000000000000000000000000000000000000000000000000099ea3d982f32b60000007b02230091a7ed01230072f7006a004d60a8d4e71d599b8104250f00000000007b02230091a7ed01230072f7006a004d60a8d4e71d599b8104250f00000000000000000000000000000000000000000000000000000000000000000002000000000000000000000000000000000000000000000000000000000000024000000000000000000000000000000000000000000000000000000000000002e00000000000000000000000000000000000000000000000000000000000000002000000000000000000000000000000000000000000000000001d4f54cf65a0000000000000000000000000008de9c5a032463c561423387a9648c5c7bcc5bc900000000000000000000000000000000000000000000000000057edfe6e30e00000000000000000000000000019776383961f72fd00f159f5db5cf48dbfa895460000000000000000000000000000000000000000000000000000000000000041580446b4f478565cdc48017cea0ce6e51d19c9e8986bdea6e0e148e9af889d0c2b4726ec0cea4c84b8c92ab60e0ca4f45fe895ad521578ccf74e16f76602a6481c00000000000000000000000000000000000000000000000000000000000000",
                    "decodedMethod": {
                        "callParams": [
                            {
                                "name": "parameters",
                                "type": "(address,uint256,uint256,address,address,address,uint256,uint256,uint8,uint256,uint256,bytes32,uint256,bytes32,bytes32,uint256,(uint256,address)[],bytes)",
                                "value": [
                                    {
                                        "name": "considerationToken",
                                        "type": "address",
                                        "value": "0x0000000000000000000000000000000000000000"
                                    },
                                    {
                                        "name": "considerationIdentifier",
                                        "type": "uint256",
                                        "value": "0"
                                    },
                                    {
                                        "name": "considerationAmount",
                                        "type": "uint256",
                                        "value": "297,000,000,000,000,000"
                                    },
                                    {
                                        "name": "offerer",
                                        "type": "address",
                                        "value": "0x24b1edfd5fe28e4a50b0d0bc248d1d84fd91d62a"
                                    },
                                    {
                                        "name": "zone",
                                        "type": "address",
                                        "value": "0x004c00500000ad104d7dbd00e3ae0a5c00560c00"
                                    },
                                    {
                                        "name": "offerToken",
                                        "type": "address",
                                        "value": "0xe9fca552b9eb110c2d170962af740725f71f5644"
                                    },
                                    {
                                        "name": "offerIdentifier",
                                        "type": "uint256",
                                        "value": "4,289"
                                    },
                                    {
                                        "name": "offerAmount",
                                        "type": "uint256",
                                        "value": "1"
                                    },
                                    {
                                        "name": "basicOrderType",
                                        "type": "uint8",
                                        "value": "2"
                                    },
                                    {
                                        "name": "startTime",
                                        "type": "uint256",
                                        "value": "1,655,938,948"
                                    },
                                    {
                                        "name": "endTime",
                                        "type": "uint256",
                                        "value": "1,658,530,948"
                                    },
                                    {
                                        "name": "zoneHash",
                                        "type": "bytes32",
                                        "value": "0x0000000000000000000000000000000000000000000000000000000000000000"
                                    },
                                    {
                                        "name": "salt",
                                        "type": "uint256",
                                        "value": "43,323,221,703,865,014"
                                    },
                                    {
                                        "name": "offererConduitKey",
                                        "type": "bytes32",
                                        "value": "0x0000007b02230091a7ed01230072f7006a004d60a8d4e71d599b8104250f0000"
                                    },
                                    {
                                        "name": "fulfillerConduitKey",
                                        "type": "bytes32",
                                        "value": "0x0000007b02230091a7ed01230072f7006a004d60a8d4e71d599b8104250f0000"
                                    },
                                    {
                                        "name": "totalOriginalAdditionalRecipients",
                                        "type": "uint256",
                                        "value": "2"
                                    },
                                    {
                                        "name": "additionalRecipients",
                                        "type": "(uint256,address)[]",
                                        "value": [
                                            [
                                                {
                                                    "name": "amount",
                                                    "type": "uint256",
                                                    "value": "8,250,000,000,000,000"
                                                },
                                                {
                                                    "name": "recipient",
                                                    "type": "address",
                                                    "value": "0x8de9c5a032463c561423387a9648c5c7bcc5bc90"
                                                }
                                            ],
                                            [
                                                {
                                                    "name": "amount",
                                                    "type": "uint256",
                                                    "value": "24,750,000,000,000,000"
                                                },
                                                {
                                                    "name": "recipient",
                                                    "type": "address",
                                                    "value": "0x19776383961f72fd00f159f5db5cf48dbfa89546"
                                                }
                                            ]
                                        ]
                                    },
                                    {
                                        "name": "signature",
                                        "type": "bytes",
                                        "value": "0x580446b4f478565cdc48017cea0ce6e51d19c9e8986bdea6e0e148e9af889d0c2b4726ec0cea4c84b8c92ab60e0ca4f45fe895ad521578ccf74e16f76602a6481c"
                                    }
                                ]
                            }
                        ],
                        "constructorArguments": "",
                        "name": "fulfillBasicOrder",
                        "returnParams": [
                            {
                                "name": "fulfilled",
                                "type": "bool",
                                "value": true
                            }
                        ],
                        "signature": "fulfillBasicOrder((address,uint256,uint256,address,address,address,uint256,uint256,uint8,uint256,uint256,bytes32,uint256,bytes32,bytes32,uint256,(uint256,address)[],bytes))"
                    },
                    "errorInfo": "",
                    "fromAddress": "0xcd4c75f0fb2be3ecf0ad384a48a2b761b2a5c0d1",
                    "gasUsed": 137858,
                    "id": 0,
                    "methodDecoded": true,
                    "operation": "CALL",
                    "output": "0x0000000000000000000000000000000000000000000000000000000000000001",
                    "revert": false,
                    "revertMessage": "",
                    "selector": "0xfb0f3ee1",
                    "status": true,
                    "value": "0.33"
                },
                "nodeType": 0
            },
            "1": {
                "event": {
                    "contract": "0x00000000006c3852cbef3e08e8df289169ede581",
                    "decodedLog": {
                        "name": "OrderFulfilled",
                        "params": [
                            {
                                "name": "offerer",
                                "type": "address",
                                "value": "0x24b1edfd5fe28e4a50b0d0bc248d1d84fd91d62a"
                            },
                            {
                                "name": "zone",
                                "type": "address",
                                "value": "0x004c00500000ad104d7dbd00e3ae0a5c00560c00"
                            },
                            {
                                "name": "orderHash",
                                "type": "bytes32",
                                "value": "0x03610d07be8763912aa8afbdfc90d8a751756d9db32a2901cf4d8c8664edac91"
                            },
                            {
                                "name": "recipient",
                                "type": "address",
                                "value": "0xcd4c75f0fb2be3ecf0ad384a48a2b761b2a5c0d1"
                            },
                            {
                                "name": "offer",
                                "type": "(uint8,address,uint256,uint256)[]",
                                "value": [
                                    [
                                        {
                                            "name": "itemType",
                                            "type": "uint8",
                                            "value": "2"
                                        },
                                        {
                                            "name": "token",
                                            "type": "address",
                                            "value": "0xe9fca552b9eb110c2d170962af740725f71f5644"
                                        },
                                        {
                                            "name": "identifier",
                                            "type": "uint256",
                                            "value": "4,289"
                                        },
                                        {
                                            "name": "amount",
                                            "type": "uint256",
                                            "value": "1"
                                        }
                                    ]
                                ]
                            },
                            {
                                "name": "consideration",
                                "type": "(uint8,address,uint256,uint256,address)[]",
                                "value": [
                                    [
                                        {
                                            "name": "itemType",
                                            "type": "uint8",
                                            "value": "0"
                                        },
                                        {
                                            "name": "token",
                                            "type": "address",
                                            "value": "0x0000000000000000000000000000000000000000"
                                        },
                                        {
                                            "name": "identifier",
                                            "type": "uint256",
                                            "value": "0"
                                        },
                                        {
                                            "name": "amount",
                                            "type": "uint256",
                                            "value": "297,000,000,000,000,000"
                                        },
                                        {
                                            "name": "recipient",
                                            "type": "address",
                                            "value": "0x24b1edfd5fe28e4a50b0d0bc248d1d84fd91d62a"
                                        }
                                    ],
                                    [
                                        {
                                            "name": "itemType",
                                            "type": "uint8",
                                            "value": "0"
                                        },
                                        {
                                            "name": "token",
                                            "type": "address",
                                            "value": "0x0000000000000000000000000000000000000000"
                                        },
                                        {
                                            "name": "identifier",
                                            "type": "uint256",
                                            "value": "0"
                                        },
                                        {
                                            "name": "amount",
                                            "type": "uint256",
                                            "value": "8,250,000,000,000,000"
                                        },
                                        {
                                            "name": "recipient",
                                            "type": "address",
                                            "value": "0x8de9c5a032463c561423387a9648c5c7bcc5bc90"
                                        }
                                    ],
                                    [
                                        {
                                            "name": "itemType",
                                            "type": "uint8",
                                            "value": "0"
                                        },
                                        {
                                            "name": "token",
                                            "type": "address",
                                            "value": "0x0000000000000000000000000000000000000000"
                                        },
                                        {
                                            "name": "identifier",
                                            "type": "uint256",
                                            "value": "0"
                                        },
                                        {
                                            "name": "amount",
                                            "type": "uint256",
                                            "value": "24,750,000,000,000,000"
                                        },
                                        {
                                            "name": "recipient",
                                            "type": "address",
                                            "value": "0x19776383961f72fd00f159f5db5cf48dbfa89546"
                                        }
                                    ]
                                ]
                            }
                        ],
                        "signature": "OrderFulfilled(bytes32,address,address,address,(uint8,address,uint256,uint256)[],(uint8,address,uint256,uint256,address)[])"
                    },
                    "id": 1,
                    "logData": "0x03610d07be8763912aa8afbdfc90d8a751756d9db32a2901cf4d8c8664edac91000000000000000000000000cd4c75f0fb2be3ecf0ad384a48a2b761b2a5c0d10000000000000000000000000000000000000000000000000000000000000080000000000000000000000000000000000000000000000000000000000000012000000000000000000000000000000000000000000000000000000000000000010000000000000000000000000000000000000000000000000000000000000002000000000000000000000000e9fca552b9eb110c2d170962af740725f71f564400000000000000000000000000000000000000000000000000000000000010c100000000000000000000000000000000000000000000000000000000000000010000000000000000000000000000000000000000000000000000000000000003000000000000000000000000000000000000000000000000000000000000000000000000000000000000000000000000000000000000000000000000000000000000000000000000000000000000000000000000000000000000000000000000000000000000000000000000000000000000000000000000041f27ed2a4a800000000000000000000000000024b1edfd5fe28e4a50b0d0bc248d1d84fd91d62a000000000000000000000000000000000000000000000000000000000000000000000000000000000000000000000000000000000000000000000000000000000000000000000000000000000000000000000000000000000000000000000000000000000000000000000000000000000000000000000000001d4f54cf65a0000000000000000000000000008de9c5a032463c561423387a9648c5c7bcc5bc900000000000000000000000000000000000000000000000000000000000000000000000000000000000000000000000000000000000000000000000000000000000000000000000000000000000000000000000000000000000000000000000000000000000000000000000000000000000000000000000000057edfe6e30e00000000000000000000000000019776383961f72fd00f159f5db5cf48dbfa89546",
                    "logDecoded": true,
                    "operation": "EVENT",
                    "revert": false,
                    "status": true,
                    "topics": [
                        "0x9d9af8e38d66c62e2c12f0225249fd9d721c54b83f48d9352c97c6cacdcb6f31",
                        "0x00000000000000000000000024b1edfd5fe28e4a50b0d0bc248d1d84fd91d62a",
                        "0x000000000000000000000000004c00500000ad104d7dbd00e3ae0a5c00560c00"
                    ]
                },
                "nodeType": 1
            },
            "2": {
                "invocation": {
                    "address": "0x004c00500000ad104d7dbd00e3ae0a5c00560c00",
                    "callData": "0x03610d07be8763912aa8afbdfc90d8a751756d9db32a2901cf4d8c8664edac91000000000000000000000000cd4c75f0fb2be3ecf0ad384a48a2b761b2a5c0d100000000000000000000000024b1edfd5fe28e4a50b0d0bc248d1d84fd91d62a0000000000000000000000000000000000000000000000000000000000000000",
                    "decodedMethod": {
                        "callParams": [
                            {
                                "name": "orderHash",
                                "type": "bytes32",
                                "value": "0x03610d07be8763912aa8afbdfc90d8a751756d9db32a2901cf4d8c8664edac91"
                            },
                            {
                                "name": "caller",
                                "type": "address",
                                "value": "0xcd4c75f0fb2be3ecf0ad384a48a2b761b2a5c0d1"
                            },
                            {
                                "name": "offerer",
                                "type": "address",
                                "value": "0x24b1edfd5fe28e4a50b0d0bc248d1d84fd91d62a"
                            },
                            {
                                "name": "zoneHash",
                                "type": "bytes32",
                                "value": "0x0000000000000000000000000000000000000000000000000000000000000000"
                            }
                        ],
                        "constructorArguments": "",
                        "name": "isValidOrder",
                        "returnParams": [
                            {
                                "name": "validOrderMagicValue",
                                "type": "bytes4",
                                "value": "0x0e1d31dc"
                            }
                        ],
                        "signature": "isValidOrder(bytes32,address,address,bytes32)"
                    },
                    "errorInfo": "",
                    "fromAddress": "0x00000000006c3852cbef3e08e8df289169ede581",
                    "gasUsed": 257,
                    "id": 2,
                    "methodDecoded": true,
                    "operation": "STATICCALL",
                    "output": "0x0e1d31dc00000000000000000000000000000000000000000000000000000000",
                    "revert": false,
                    "revertMessage": "",
                    "selector": "0x0e1d31dc",
                    "status": true,
                    "value": "0"
                },
                "nodeType": 0
            },
            "3": {
                "invocation": {
                    "address": "0x0000000000000000000000000000000000000001",
                    "callData": "0x80b5b98516a5f052d26d0e54787db3812995154add41d83f1d95efe3000000000000000000000000000000000000000000000000000000000000001c580446b4f478565cdc48017cea0ce6e51d19c9e8986bdea6e0e148e9af889d0c2b4726ec0cea4c84b8c92ab60e0ca4f45fe895ad521578ccf74e16f76602a648",
                    "decodedMethod": {
                        "callParams": [
                            {
                                "name": "hash",
                                "type": "bytes32",
                                "value": "0xb080838880b5b98516a5f052d26d0e54787db3812995154add41d83f1d95efe3"
                            },
                            {
                                "name": "v",
                                "type": "uint256",
                                "value": "28"
                            },
                            {
                                "name": "r",
                                "type": "bytes32",
                                "value": "0x580446b4f478565cdc48017cea0ce6e51d19c9e8986bdea6e0e148e9af889d0c"
                            },
                            {
                                "name": "s",
                                "type": "bytes32",
                                "value": "0x2b4726ec0cea4c84b8c92ab60e0ca4f45fe895ad521578ccf74e16f76602a648"
                            }
                        ],
                        "constructorArguments": "",
                        "name": "ecrecover",
                        "returnParams": [
                            {
                                "name": "",
                                "type": "address",
                                "value": "0x24b1edfd5fe28e4a50b0d0bc248d1d84fd91d62a"
                            }
                        ],
                        "signature": "ecrecover(bytes32,uint256,bytes32,bytes32)"
                    },
                    "errorInfo": "",
                    "fromAddress": "0x00000000006c3852cbef3e08e8df289169ede581",
                    "gasUsed": 3000,
                    "id": 3,
                    "methodDecoded": true,
                    "operation": "STATICCALL",
                    "output": "0x00000000000000000000000024b1edfd5fe28e4a50b0d0bc248d1d84fd91d62a",
                    "revert": false,
                    "revertMessage": "",
                    "selector": "0xb0808388",
                    "status": true,
                    "value": "0"
                },
                "nodeType": 0
            },
            "4": {
                "invocation": {
                    "address": "0x1e0049783f008a0085193e00003d00cd54003c71",
                    "callData": "0x000000000000000000000000000000000000000000000000000000000000002000000000000000000000000000000000000000000000000000000000000000010000000000000000000000000000000000000000000000000000000000000002000000000000000000000000e9fca552b9eb110c2d170962af740725f71f564400000000000000000000000024b1edfd5fe28e4a50b0d0bc248d1d84fd91d62a000000000000000000000000cd4c75f0fb2be3ecf0ad384a48a2b761b2a5c0d100000000000000000000000000000000000000000000000000000000000010c10000000000000000000000000000000000000000000000000000000000000001",
                    "decodedMethod": {
                        "callParams": [
                            {
                                "name": "transfers",
                                "type": "(uint8,address,address,address,uint256,uint256)[]",
                                "value": [
                                    [
                                        {
                                            "name": "itemType",
                                            "type": "uint8",
                                            "value": "2"
                                        },
                                        {
                                            "name": "token",
                                            "type": "address",
                                            "value": "0xe9fca552b9eb110c2d170962af740725f71f5644"
                                        },
                                        {
                                            "name": "from",
                                            "type": "address",
                                            "value": "0x24b1edfd5fe28e4a50b0d0bc248d1d84fd91d62a"
                                        },
                                        {
                                            "name": "to",
                                            "type": "address",
                                            "value": "0xcd4c75f0fb2be3ecf0ad384a48a2b761b2a5c0d1"
                                        },
                                        {
                                            "name": "identifier",
                                            "type": "uint256",
                                            "value": "4,289"
                                        },
                                        {
                                            "name": "amount",
                                            "type": "uint256",
                                            "value": "1"
                                        }
                                    ]
                                ]
                            }
                        ],
                        "constructorArguments": "",
                        "name": "execute",
                        "returnParams": [
                            {
                                "name": "magicValue",
                                "type": "bytes4",
                                "value": "0x4ce34aa2"
                            }
                        ],
                        "signature": "execute((uint8,address,address,address,uint256,uint256)[])"
                    },
                    "errorInfo": "",
                    "fromAddress": "0x00000000006c3852cbef3e08e8df289169ede581",
                    "gasUsed": 31881,
                    "id": 4,
                    "methodDecoded": true,
                    "operation": "CALL",
                    "output": "0x4ce34aa200000000000000000000000000000000000000000000000000000000",
                    "revert": false,
                    "revertMessage": "",
                    "selector": "0x4ce34aa2",
                    "status": true,
                    "value": "0"
                },
                "nodeType": 0
            },
            "5": {
                "invocation": {
                    "address": "0xe9fca552b9eb110c2d170962af740725f71f5644",
                    "callData": "0x00000000000000000000000024b1edfd5fe28e4a50b0d0bc248d1d84fd91d62a000000000000000000000000cd4c75f0fb2be3ecf0ad384a48a2b761b2a5c0d100000000000000000000000000000000000000000000000000000000000010c1",
                    "decodedMethod": {
                        "callParams": [
                            {
                                "name": "from",
                                "type": "address",
                                "value": "0x24b1edfd5fe28e4a50b0d0bc248d1d84fd91d62a"
                            },
                            {
                                "name": "to",
                                "type": "address",
                                "value": "0xcd4c75f0fb2be3ecf0ad384a48a2b761b2a5c0d1"
                            },
                            {
                                "decimalAvailable": true,
                                "name": "tokenId",
                                "type": "uint256",
                                "value": "4,289"
                            }
                        ],
                        "constructorArguments": "",
                        "name": "transferFrom",
                        "returnParams": [],
                        "signature": "transferFrom(address,address,uint256)"
                    },
                    "errorInfo": "",
                    "fromAddress": "0x1e0049783f008a0085193e00003d00cd54003c71",
                    "gasUsed": 25765,
                    "id": 5,
                    "methodDecoded": true,
                    "operation": "CALL",
                    "output": "",
                    "revert": false,
                    "revertMessage": "",
                    "selector": "0x23b872dd",
                    "status": true,
                    "value": "0"
                },
                "nodeType": 0
            },
            "6": {
                "event": {
                    "contract": "0xe9fca552b9eb110c2d170962af740725f71f5644",
                    "decodedLog": {
                        "name": "Transfer",
                        "params": [
                            {
                                "name": "from",
                                "type": "address",
                                "value": "0x24b1edfd5fe28e4a50b0d0bc248d1d84fd91d62a"
                            },
                            {
                                "name": "to",
                                "type": "address",
                                "value": "0xcd4c75f0fb2be3ecf0ad384a48a2b761b2a5c0d1"
                            },
                            {
                                "decimalAvailable": true,
                                "name": "tokenId",
                                "type": "uint256",
                                "value": "4,289"
                            }
                        ],
                        "signature": "Transfer(address,address,uint256)"
                    },
                    "id": 6,
                    "logData": "0x",
                    "logDecoded": true,
                    "operation": "EVENT",
                    "revert": false,
                    "status": true,
                    "topics": [
                        "0xddf252ad1be2c89b69c2b068fc378daa952ba7f163c4a11628f55a4df523b3ef",
                        "0x00000000000000000000000024b1edfd5fe28e4a50b0d0bc248d1d84fd91d62a",
                        "0x000000000000000000000000cd4c75f0fb2be3ecf0ad384a48a2b761b2a5c0d1",
                        "0x00000000000000000000000000000000000000000000000000000000000010c1"
                    ]
                },
                "nodeType": 1
            },
            "7": {
                "invocation": {
                    "address": "0x8de9c5a032463c561423387a9648c5c7bcc5bc90",
                    "callData": "0x",
                    "decodedMethod": null,
                    "errorInfo": "",
                    "fromAddress": "0x00000000006c3852cbef3e08e8df289169ede581",
                    "gasUsed": 0,
                    "id": 7,
                    "methodDecoded": false,
                    "operation": "CALL",
                    "output": "",
                    "revert": false,
                    "revertMessage": "",
                    "selector": "fallback",
                    "status": true,
                    "value": "0.00825"
                },
                "nodeType": 0
            },
            "8": {
                "invocation": {
                    "address": "0x19776383961f72fd00f159f5db5cf48dbfa89546",
                    "callData": "0x",
                    "decodedMethod": null,
                    "errorInfo": "",
                    "fromAddress": "0x00000000006c3852cbef3e08e8df289169ede581",
                    "gasUsed": 0,
                    "id": 8,
                    "methodDecoded": false,
                    "operation": "CALL",
                    "output": "",
                    "revert": false,
                    "revertMessage": "",
                    "selector": "fallback",
                    "status": true,
                    "value": "0.02475"
                },
                "nodeType": 0
            },
            "9": {
                "invocation": {
                    "address": "0x24b1edfd5fe28e4a50b0d0bc248d1d84fd91d62a",
                    "callData": "0x",
                    "decodedMethod": null,
                    "errorInfo": "",
                    "fromAddress": "0x00000000006c3852cbef3e08e8df289169ede581",
                    "gasUsed": 0,
                    "id": 9,
                    "methodDecoded": false,
                    "operation": "CALL",
                    "output": "",
                    "revert": false,
                    "revertMessage": "",
                    "selector": "fallback",
                    "status": true,
                    "value": "0.297"
                },
                "nodeType": 0
            }
        },
        "gasFlame": [
            {
                "children": [
                    {
                        "children": [
                            {
                                "children": [],
                                "depth": 0,
                                "name": "Initial Gas",
                                "value": 27636
                            },
                            {
                                "children": [
                                    {
                                        "children": [],
                                        "depth": 1,
                                        "name": "isValidOrder",
                                        "value": 257
                                    },
                                    {
                                        "children": [],
                                        "depth": 1,
                                        "name": "ecrecover",
                                        "value": 3000
                                    },
                                    {
                                        "children": [
                                            {
                                                "children": [],
                                                "depth": 2,
                                                "name": "transferFrom",
                                                "value": 25765
                                            }
                                        ],
                                        "depth": 1,
                                        "name": "execute",
                                        "value": 31881
                                    },
                                    {
                                        "children": [],
                                        "depth": 1,
                                        "name": "fallback",
                                        "value": 0
                                    },
                                    {
                                        "children": [],
                                        "depth": 1,
                                        "name": "fallback",
                                        "value": 0
                                    },
                                    {
                                        "children": [],
                                        "depth": 1,
                                        "name": "fallback",
                                        "value": 0
                                    }
                                ],
                                "depth": 0,
                                "name": "Executed Gas",
                                "value": 113022
                            }
                        ],
                        "depth": -1,
                        "name": "Actual Gas Used",
                        "value": 137858
                    },
                    {
                        "children": [],
                        "depth": -1,
                        "name": "Refunded Gas",
                        "value": 2800
                    }
                ],
                "depth": -2,
                "name": "Total Gas",
                "value": 140658
            }
        ],
        "isConfirmed": true,
        "mainTrace": [
            {
                "children": [
                    {
                        "children": [
                            {
                                "children": [],
                                "depth": 1,
                                "id": 1,
                                "order": 1
                            },
                            {
                                "children": [],
                                "depth": 1,
                                "id": 2,
                                "order": 2
                            },
                            {
                                "children": [],
                                "depth": 1,
                                "id": 3,
                                "order": 3
                            },
                            {
                                "children": [
                                    {
                                        "children": [
                                            {
                                                "children": [],
                                                "depth": 3,
                                                "id": 6,
                                                "order": 6
                                            }
                                        ],
                                        "depth": 2,
                                        "id": 5,
                                        "order": 5
                                    }
                                ],
                                "depth": 1,
                                "id": 4,
                                "order": 4
                            },
                            {
                                "children": [],
                                "depth": 1,
                                "id": 7,
                                "order": 7
                            },
                            {
                                "children": [],
                                "depth": 1,
                                "id": 8,
                                "order": 8
                            },
                            {
                                "children": [],
                                "depth": 1,
                                "id": 9,
                                "order": 9
                            }
                        ],
                        "depth": 0,
                        "id": 0,
                        "order": 0
                    }
                ],
                "depth": -1,
                "id": -1,
                "order": -1
            }
        ],
        "mainTraceNodeCount": 10,
        "parentIdMap": {
            "0": -1,
            "1": 0,
            "2": 0,
            "3": 0,
            "4": 0,
            "5": 4,
            "6": 5,
            "7": 0,
            "8": 0,
            "9": 0
        },
        "tidyTrace": [
            {
                "children": [
                    {
                        "children": [
                            {
                                "children": [],
                                "depth": 1,
                                "id": 1,
                                "order": 1
                            },
                            {
                                "children": [
                                    {
                                        "children": [
                                            {
                                                "children": [],
                                                "depth": 3,
                                                "id": 6,
                                                "order": 6
                                            }
                                        ],
                                        "depth": 2,
                                        "id": 5,
                                        "order": 5
                                    }
                                ],
                                "depth": 1,
                                "id": 4,
                                "order": 4
                            },
                            {
                                "children": [],
                                "depth": 1,
                                "id": 7,
                                "order": 7
                            },
                            {
                                "children": [],
                                "depth": 1,
                                "id": 8,
                                "order": 8
                            },
                            {
                                "children": [],
                                "depth": 1,
                                "id": 9,
                                "order": 9
                            }
                        ],
                        "depth": 0,
                        "id": 0,
                        "order": 0
                    }
                ],
                "depth": -1,
                "id": -1,
                "order": -1
            }
        ],
        "tidyTraceNodeCount": 8
    },
    "state_change": {
        "stateChanges": [
            {
                "address": "0x00000000006c3852cbef3e08e8df289169ede581",
                "erc": "",
                "slots": [
                    {
                        "current": "0x0000000000000000000000000000010000000000000000000000000000010001",
                        "key": "0x8e58876919a4050069424aa78ee54b9e63a5b22b8d48f4b6ed870dc48a601d27",
                        "prev": "0x0000000000000000000000000000000000000000000000000000000000000000"
                    }
                ],
                "storageVariables": [
                    {
                        "name": "_orderStatus",
                        "type": "mapping(bytes32 => struct OrderStatus)",
                        "value": {
                            "pairs": [
                                {
                                    "key": "0x03610d07be8763912aa8afbdfc90d8a751756d9db32a2901cf4d8c8664edac91",
                                    "value": {
                                        "fields": [
                                            {
                                                "name": "isValidated",
                                                "type": "bool",
                                                "value": {
                                                    "current": "true",
                                                    "prev": "false",
                                                    "typeTag": 1
                                                }
                                            },
                                            {
                                                "name": "isCancelled",
                                                "type": "bool",
                                                "value": {
                                                    "current": "false",
                                                    "prev": "false",
                                                    "typeTag": 1
                                                }
                                            },
                                            {
                                                "name": "numerator",
                                                "type": "uint120",
                                                "value": {
                                                    "current": "1",
                                                    "prev": "0",
                                                    "typeTag": 1
                                                }
                                            },
                                            {
                                                "name": "denominator",
                                                "type": "uint120",
                                                "value": {
                                                    "current": "1",
                                                    "prev": "0",
                                                    "typeTag": 1
                                                }
                                            }
                                        ],
                                        "typeTag": 3
                                    }
                                }
                            ],
                            "typeTag": 4
                        }
                    }
                ]
            },
            {
                "address": "0xe9fca552b9eb110c2d170962af740725f71f5644",
                "erc": "ERC-721",
                "slots": [
                    {
                        "current": "0x000000000000000000000000000000000000000000000000000000000000003f",
                        "key": "0x2a374e201bd4c2f2f3da6a0566f5660e05fdd372c691f5e06e16d12c8c8da883",
                        "prev": "0x0000000000000000000000000000000000000000000000000000000000000040"
                    },
                    {
                        "current": "0x0000000000000000000000000000000000000000000000000000000000000004",
                        "key": "0x39410f4fe9a44086ebdd0375ac59f36b63e4654ace573c6b921ad3617b228993",
                        "prev": "0x0000000000000000000000000000000000000000000000000000000000000003"
                    },
                    {
                        "current": "0x000000020000000062b3acfdcd4c75f0fb2be3ecf0ad384a48a2b761b2a5c0d1",
                        "key": "0x92fe4e9c26e8df5e496315870964d6f6586de7e1ad4569f66a6e26aefbe93a6f",
                        "prev": "0x000000020000000062a686c024b1edfd5fe28e4a50b0d0bc248d1d84fd91d62a"
                    }
                ],
                "storageVariables": [
                    {
                        "name": "_packedAddressData",
                        "type": "mapping(address => uint256)",
                        "value": {
                            "pairs": [
                                {
                                    "key": "0x24b1edfd5fe28e4a50b0d0bc248d1d84fd91d62a",
                                    "value": {
                                        "current": "63",
                                        "prev": "64",
                                        "typeTag": 1
                                    }
                                },
                                {
                                    "key": "0xcd4c75f0fb2be3ecf0ad384a48a2b761b2a5c0d1",
                                    "value": {
                                        "current": "4",
                                        "prev": "3",
                                        "typeTag": 1
                                    }
                                }
                            ],
                            "typeTag": 4
                        }
                    },
                    {
                        "name": "_packedOwnerships",
                        "type": "mapping(uint256 => uint256)",
                        "value": {
                            "pairs": [
                                {
                                    "key": "4289",
                                    "value": {
                                        "current": "53919893336721442115047238473376827768781917741653227368365292896465",
                                        "prev": "53919893336720182654818200499158139496588595172522842857456134116906",
                                        "typeTag": 1
                                    }
                                }
                            ],
                            "typeTag": 4
                        }
                    }
                ]
            }
        ]
    }
}