{
    "balance_change": {
        "balanceChanges": [
            {
                "account": "0x8d3191d58676171cd61aad0385e73f2bc81cf8de",
                "assets": [
                    {
                        "address": "0x4ff7c227e1e7bd59351de8635381c379750a8040",
                        "amount": "1,585.063704847531974445",
                        "iconUrl": "",
                        "isERC1155": false,
                        "isERC721": false,
                        "sign": true,
                        "value": "4065.400863"
                    }
                ]
            },
            {
                "account": "0xede1537412e59c80c4f4af670202462585fb0897",
                "assets": [
                    {
                        "address": "0x4ff7c227e1e7bd59351de8635381c379750a8040",
                        "amount": "1,408.138704847531974445",
                        "iconUrl": "",
                        "isERC1155": false,
                        "isERC721": false,
                        "sign": false,
                        "value": "3832.526586"
                    }
                ]
            },
            {
                "account": "0x0000000000000000000000000000000000000000",
                "assets": [
                    {
                        "address": "0x4ff7c227e1e7bd59351de8635381c379750a8040",
                        "amount": "194.6175",
                        "iconUrl": "",
                        "isERC1155": false,
                        "isERC721": false,
                        "sign": false,
                        "value": "482.0956558"
                    }
                ]
            },
            {
                "account": "0x85a37d5698ecd55b43a434eeb5e1d89b0057b631",
                "assets": [
                    {
                        "address": "0x4ff7c227e1e7bd59351de8635381c379750a8040",
                        "amount": "17.6925",
                        "iconUrl": "",
                        "isERC1155": false,
                        "isERC721": false,
                        "sign": true,
                        "value": "49.55522671"
                    }
                ]
            }
        ]
    },
    "profile": {
        "basic_info": {
            "baseFee": "",
            "blockNumber": 12200348,
            "callData": "0xe2bbb15800000000000000000000000000000000000000000000000000000000000000040000000000000000000000000000000000000000000000000000000000000000",
            "debugEnable": true,
            "errorInfo": "",
            "eventCount": 4,
            "feeRecipient": "0xb3b7874f13387d44a3398d298b075b7a3505d8d4",
            "formatValue": "0",
            "gasLimit": 161257,
            "gasPrice": "136",
            "gasUsed": 107505,
            "intTxnCount": 5,
            "internalRevert": false,
            "internalRevertMessage": "",
            "isContractCreation": false,
            "isFlashloan": false,
            "maxFee": "",
            "nonce": 84,
            "overwritedBlockNumber": -1,
            "priorityFee": "",
            "receiver": "0xede1537412e59c80c4f4af670202462585fb0897",
            "revertMessage": "",
            "sender": "0x8d3191d58676171cd61aad0385e73f2bc81cf8de",
            "simulationEnable": true,
            "sourceTxnHash": "0x1fa98964826784442e1a1eb425b9fa3d1dd50e36b9f7fd11c63e1384546adee0",
            "status": true,
            "timestamp": "2021-04-08T16:49:47Z",
            "transactionFee": "0.01462068",
            "txnHash": "0x1fa98964826784442e1a1eb425b9fa3d1dd50e36b9f7fd11c63e1384546adee0",
            "txnIndex": 122,
            "type": 0,
            "value": "0"
        },
        "fund_flow": [
            {
                "amount": "17.6925",
                "from": "0x0000000000000000000000000000000000000000",
                "id": 1,
                "isERC1155": false,
                "isERC721": false,
                "isReverted": false,
                "order": 1,
                "to": "0x85a37d5698ecd55b43a434eeb5e1d89b0057b631",
                "token": "0x4ff7c227e1e7bd59351de8635381c379750a8040"
            },
            {
                "amount": "176.925",
                "from": "0x0000000000000000000000000000000000000000",
                "id": 2,
                "isERC1155": false,
                "isERC721": false,
                "isReverted": false,
                "order": 2,
                "to": "0xede1537412e59c80c4f4af670202462585fb0897",
                "token": "0x4ff7c227e1e7bd59351de8635381c379750a8040"
            },
            {
                "amount": "1,585.063704847531974445",
                "from": "0xede1537412e59c80c4f4af670202462585fb0897",
                "id": 3,
                "isERC1155": false,
                "isERC721": false,
                "isReverted": false,
                "order": 3,
                "to": "0x8d3191d58676171cd61aad0385e73f2bc81cf8de",
                "token": "0x4ff7c227e1e7bd59351de8635381c379750a8040"
            }
        ],
        "token_infos": [
            {
                "address": "0x4ff7c227e1e7bd59351de8635381c379750a8040",
                "decimals": 18
            },
            {
                "address": "0xc02aaa39b223fe8d0a0e5c4f27ead9083c756cc2",
                "decimals": 18
            },
            {
                "address": "0xeeeeeeeeeeeeeeeeeeeeeeeeeeeeeeeeeeeeeeee",
                "decimals": 18
            }
        ]
    },
    "address_label": {
        "labels": [
            {
                "address": "0x0000000000000000000000000000000000000001",
                "label": "Precompiled"
            },
            {
                "address": "0x0000000000000000000000000000000000000002",
                "label": "Precompiled"
            },
            {
                "address": "0x0000000000000000000000000000000000000003",
                "label": "Precompiled"
            },
            {
                "address": "0x0000000000000000000000000000000000000004",
                "label": "Precompiled"
            },
            {
                "address": "0xeeeeeeeeeeeeeeeeeeeeeeeeeeeeeeeeeeeeeeee",
                "label": "Ether"
            },
            {
                "address": "0xd3d2e2692501a5c9ca623199d38826e513033a17",
                "label": "Uniswap V2: UNI 6"
            },
            {
                "address": "0x4ff7c227e1e7bd59351de8635381c379750a8040",
                "label": "Supreme Finance: Old HYPE Token"
            },
            {
                "address": "0xede1537412e59c80c4f4af670202462585fb0897",
                "label": "HYPEAdmin"
            }
        ]
    },
    "trace": {
        "accountLabels": null,
        "dataMap": {
            "-1": {
                "invocation": {
                    "address": "0x8d3191d58676171cd61aad0385e73f2bc81cf8de",
                    "callData": "",
                    "decodedMethod": null,
                    "errorInfo": "",
                    "fromAddress": "",
                    "gasUsed": 0,
                    "id": -1,
                    "methodDecoded": false,
                    "operation": "",
                    "output": "",
                    "revert": false,
                    "revertMessage": "",
                    "selector": "",
                    "status": false,
                    "value": ""
                },
                "nodeType": 0
            },
            "0": {
                "invocation": {
                    "address": "0xede1537412e59c80c4f4af670202462585fb0897",
                    "callData": "0x00000000000000000000000000000000000000000000000000000000000000040000000000000000000000000000000000000000000000000000000000000000",
                    "decodedMethod": {
                        "callParams": [
                            {
                                "name": "_pid",
                                "type": "uint256",
                                "value": "4"
                            },
                            {
                                "name": "_amount",
                                "type": "uint256",
                                "value": "0"
                            }
                        ],
                        "constructorArguments": "",
                        "name": "deposit",
                        "returnParams": [],
                        "signature": "deposit(uint256,uint256)"
                    },
                    "errorInfo": "",
                    "fromAddress": "0x8d3191d58676171cd61aad0385e73f2bc81cf8de",
                    "gasUsed": 107505,
                    "id": 0,
                    "methodDecoded": true,
                    "operation": "CALL",
                    "output": "",
                    "revert": false,
                    "revertMessage": "",
                    "selector": "0xe2bbb158",
                    "status": true,
                    "value": "0"
                },
                "nodeType": 0
            },
            "1": {
                "invocation": {
                    "address": "0xd3d2e2692501a5c9ca623199d38826e513033a17",
                    "callData": "0x000000000000000000000000ede1537412e59c80c4f4af670202462585fb0897",
                    "decodedMethod": {
                        "callParams": [
                            {
                                "name": "",
                                "type": "address",
                                "value": "0xede1537412e59c80c4f4af670202462585fb0897"
                            }
                        ],
                        "constructorArguments": "",
                        "name": "balanceOf",
                        "returnParams": [
                            {
                                "decimalAvailable": true,
                                "name": "",
                                "type": "uint256",
                                "value": "64,385,525,185,229,563,254"
                            }
                        ],
                        "signature": "balanceOf(address)"
                    },
                    "errorInfo": "",
                    "fromAddress": "0xede1537412e59c80c4f4af670202462585fb0897",
                    "gasUsed": 1180,
                    "id": 1,
                    "methodDecoded": true,
                    "operation": "STATICCALL",
                    "output": "0x0000000000000000000000000000000000000000000000037d875606de932576",
                    "revert": false,
                    "revertMessage": "",
                    "selector": "0x70a08231",
                    "status": true,
                    "value": "0"
                },
                "nodeType": 0
            },
            "2": {
                "invocation": {
                    "address": "0x4ff7c227e1e7bd59351de8635381c379750a8040",
                    "callData": "0x00000000000000000000000085a37d5698ecd55b43a434eeb5e1d89b0057b631000000000000000000000000000000000000000000000000f5886302d8994000",
                    "decodedMethod": {
                        "callParams": [
                            {
                                "name": "_to",
                                "type": "address",
                                "value": "0x85a37d5698ecd55b43a434eeb5e1d89b0057b631"
                            },
                            {
                                "name": "_amount",
                                "type": "uint256",
                                "value": "17,692,500,000,000,000,000"
                            }
                        ],
                        "constructorArguments": "",
                        "name": "mint",
                        "returnParams": [],
                        "signature": "mint(address,uint256)"
                    },
                    "errorInfo": "",
                    "fromAddress": "0xede1537412e59c80c4f4af670202462585fb0897",
                    "gasUsed": 15996,
                    "id": 2,
                    "methodDecoded": true,
                    "operation": "CALL",
                    "output": "",
                    "revert": false,
                    "revertMessage": "",
                    "selector": "0x40c10f19",
                    "status": true,
                    "value": "0"
                },
                "nodeType": 0
            },
            "3": {
                "event": {
                    "contract": "0x4ff7c227e1e7bd59351de8635381c379750a8040",
                    "decodedLog": {
                        "name": "Transfer",
                        "params": [
                            {
                                "name": "from",
                                "type": "address",
                                "value": "0x0000000000000000000000000000000000000000"
                            },
                            {
                                "name": "to",
                                "type": "address",
                                "value": "0x85a37d5698ecd55b43a434eeb5e1d89b0057b631"
                            },
                            {
                                "decimalAvailable": true,
                                "name": "value",
                                "type": "uint256",
                                "value": "17,692,500,000,000,000,000"
                            }
                        ],
                        "signature": "Transfer(address,address,uint256)"
                    },
                    "id": 3,
                    "logData": "0x000000000000000000000000000000000000000000000000f5886302d8994000",
                    "logDecoded": true,
                    "operation": "EVENT",
                    "revert": false,
                    "status": true,
                    "topics": [
                        "0xddf252ad1be2c89b69c2b068fc378daa952ba7f163c4a11628f55a4df523b3ef",
                        "0x0000000000000000000000000000000000000000000000000000000000000000",
                        "0x00000000000000000000000085a37d5698ecd55b43a434eeb5e1d89b0057b631"
                    ]
                },
                "nodeType": 1
            },
            "4": {
                "invocation": {
                    "address": "0x4ff7c227e1e7bd59351de8635381c379750a8040",
                    "callData": "0x000000000000000000000000ede1537412e59c80c4f4af670202462585fb08970000000000000000000000000000000000000000000000099753de1c75fc8000",
                    "decodedMethod": {
                        "callParams": [
                            {
                                "name": "_to",
                                "type": "address",
                                "value": "0xede1537412e59c80c4f4af670202462585fb0897"
                            },
                            {
                                "name": "_amount",
                                "type": "uint256",
                                "value": "176,925,000,000,000,000,000"
                            }
                        ],
                        "constructorArguments": "",
                        "name": "mint",
                        "returnParams": [],
                        "signature": "mint(address,uint256)"
                    },
                    "errorInfo": "",
                    "fromAddress": "0xede1537412e59c80c4f4af670202462585fb0897",
                    "gasUsed": 11796,
                    "id": 4,
                    "methodDecoded": true,
                    "operation": "CALL",
                    "output": "",
                    "revert": false,
                    "revertMessage": "",
                    "selector": "0x40c10f19",
                    "status": true,
                    "value": "0"
                },
                "nodeType": 0
            },
            "5": {
                "event": {
                    "contract": "0x4ff7c227e1e7bd59351de8635381c379750a8040",
                    "decodedLog": {
                        "name": "Transfer",
                        "params": [
                            {
                                "name": "from",
                                "type": "address",
                                "value": "0x0000000000000000000000000000000000000000"
                            },
                            {
                                "name": "to",
                                "type": "address",
                                "value": "0xede1537412e59c80c4f4af670202462585fb0897"
                            },
                            {
                                "decimalAvailable": true,
                                "name": "value",
                                "type": "uint256",
                                "value": "176,925,000,000,000,000,000"
                            }
                        ],
                        "signature": "Transfer(address,address,uint256)"
                    },
                    "id": 5,
                    "logData": "0x0000000000000000000000000000000000000000000000099753de1c75fc8000",
                    "logDecoded": true,
                    "operation": "EVENT",
                    "revert": false,
                    "status": true,
                    "topics": [
                        "0xddf252ad1be2c89b69c2b068fc378daa952ba7f163c4a11628f55a4df523b3ef",
                        "0x0000000000000000000000000000000000000000000000000000000000000000",
                        "0x000000000000000000000000ede1537412e59c80c4f4af670202462585fb0897"
                    ]
                },
                "nodeType": 1
            },
            "6": {
                "invocation": {
                    "address": "0x4ff7c227e1e7bd59351de8635381c379750a8040",
                    "callData": "0x000000000000000000000000ede1537412e59c80c4f4af670202462585fb0897",
                    "decodedMethod": {
                        "callParams": [
                            {
                                "name": "account",
                                "type": "address",
                                "value": "0xede1537412e59c80c4f4af670202462585fb0897"
                            }
                        ],
                        "constructorArguments": "",
                        "name": "balanceOf",
                        "returnParams": [
                            {
                                "decimalAvailable": true,
                                "name": "",
                                "type": "uint256",
                                "value": "125,653,509,385,046,072,223,395"
                            }
                        ],
                        "signature": "balanceOf(address)"
                    },
                    "errorInfo": "",
                    "fromAddress": "0xede1537412e59c80c4f4af670202462585fb0897",
                    "gasUsed": 1210,
                    "id": 6,
                    "methodDecoded": true,
                    "operation": "STATICCALL",
                    "output": "0x000000000000000000000000000000000000000000001a9bb0bd94dfd33be6a3",
                    "revert": false,
                    "revertMessage": "",
                    "selector": "0x70a08231",
                    "status": true,
                    "value": "0"
                },
                "nodeType": 0
            },
            "7": {
                "invocation": {
                    "address": "0x4ff7c227e1e7bd59351de8635381c379750a8040",
                    "callData": "0x0000000000000000000000008d3191d58676171cd61aad0385e73f2bc81cf8de000000000000000000000000000000000000000000000055ed2d818809c11f2d",
                    "decodedMethod": {
                        "callParams": [
                            {
                                "name": "recipient",
                                "type": "address",
                                "value": "0x8d3191d58676171cd61aad0385e73f2bc81cf8de"
                            },
                            {
                                "decimalAvailable": true,
                                "name": "amount",
                                "type": "uint256",
                                "value": "1,585,063,704,847,531,974,445"
                            }
                        ],
                        "constructorArguments": "",
                        "name": "transfer",
                        "returnParams": [
                            {
                                "name": "",
                                "type": "bool",
                                "value": true
                            }
                        ],
                        "signature": "transfer(address,uint256)"
                    },
                    "errorInfo": "",
                    "fromAddress": "0xede1537412e59c80c4f4af670202462585fb0897",
                    "gasUsed": 10253,
                    "id": 7,
                    "methodDecoded": true,
                    "operation": "CALL",
                    "output": "0x0000000000000000000000000000000000000000000000000000000000000001",
                    "revert": false,
                    "revertMessage": "",
                    "selector": "0xa9059cbb",
                    "status": true,
                    "value": "0"
                },
                "nodeType": 0
            },
            "8": {
                "event": {
                    "contract": "0x4ff7c227e1e7bd59351de8635381c379750a8040",
                    "decodedLog": {
                        "name": "Transfer",
                        "params": [
                            {
                                "name": "from",
                                "type": "address",
                                "value": "0xede1537412e59c80c4f4af670202462585fb0897"
                            },
                            {
                                "name": "to",
                                "type": "address",
                                "value": "0x8d3191d58676171cd61aad0385e73f2bc81cf8de"
                            },
                            {
                                "decimalAvailable": true,
                                "name": "value",
                                "type": "uint256",
                                "value": "1,585,063,704,847,531,974,445"
                            }
                        ],
                        "signature": "Transfer(address,address,uint256)"
                    },
                    "id": 8,
                    "logData": "0x000000000000000000000000000000000000000000000055ed2d818809c11f2d",
                    "logDecoded": true,
                    "operation": "EVENT",
                    "revert": false,
                    "status": true,
                    "topics": [
                        "0xddf252ad1be2c89b69c2b068fc378daa952ba7f163c4a11628f55a4df523b3ef",
                        "0x000000000000000000000000ede1537412e59c80c4f4af670202462585fb0897",
                        "0x0000000000000000000000008d3191d58676171cd61aad0385e73f2bc81cf8de"
                    ]
                },
                "nodeType": 1
            },
            "9": {
                "event": {
                    "contract": "0xede1537412e59c80c4f4af670202462585fb0897",
                    "decodedLog": {
                        "name": "Deposit",
                        "params": [
                            {
                                "name": "user",
                                "type": "address",
                                "value": "0x8d3191d58676171cd61aad0385e73f2bc81cf8de"
                            },
                            {
                                "name": "pid",
                                "type": "uint256",
                                "value": "4"
                            },
                            {
                                "name": "amount",
                                "type": "uint256",
                                "value": "0"
                            }
                        ],
                        "signature": "Deposit(address,uint256,uint256)"
                    },
                    "id": 9,
                    "logData": "0x0000000000000000000000000000000000000000000000000000000000000000",
                    "logDecoded": true,
                    "operation": "EVENT",
                    "revert": false,
                    "status": true,
                    "topics": [
                        "0x90890809c654f11d6e72a28fa60149770a0d11ec6c92319d6ceb2bb0a4ea1a15",
                        "0x0000000000000000000000008d3191d58676171cd61aad0385e73f2bc81cf8de",
                        "0x0000000000000000000000000000000000000000000000000000000000000004"
                    ]
                },
                "nodeType": 1
            }
        },
        "gasFlame": [
            {
                "children": [
                    {
                        "children": [
                            {
                                "children": [],
                                "depth": 0,
                                "name": "Initial Gas",
                                "value": 21332
                            },
                            {
                                "children": [
                                    {
                                        "children": [],
                                        "depth": 1,
                                        "name": "balanceOf",
                                        "value": 1180
                                    },
                                    {
                                        "children": [],
                                        "depth": 1,
                                        "name": "mint",
                                        "value": 15996
                                    },
                                    {
                                        "children": [],
                                        "depth": 1,
                                        "name": "mint",
                                        "value": 11796
                                    },
                                    {
                                        "children": [],
                                        "depth": 1,
                                        "name": "balanceOf",
                                        "value": 1210
                                    },
                                    {
                                        "children": [],
                                        "depth": 1,
                                        "name": "transfer",
                                        "value": 10253
                                    }
                                ],
                                "depth": 0,
                                "name": "Executed Gas",
                                "value": 86173
                            }
                        ],
                        "depth": -1,
                        "name": "Actual Gas Used",
                        "value": 107505
                    },
                    {
                        "children": [],
                        "depth": -1,
                        "name": "Refunded Gas",
                        "value": 0
                    }
                ],
                "depth": -2,
                "name": "Total Gas",
                "value": 107505
            }
        ],
        "isConfirmed": true,
        "mainTrace": [
            {
                "children": [
                    {
                        "children": [
                            {
                                "children": [],
                                "depth": 1,
                                "id": 1,
                                "order": 1
                            },
                            {
                                "children": [
                                    {
                                        "children": [],
                                        "depth": 2,
                                        "id": 3,
                                        "order": 3
                                    }
                                ],
                                "depth": 1,
                                "id": 2,
                                "order": 2
                            },
                            {
                                "children": [
                                    {
                                        "children": [],
                                        "depth": 2,
                                        "id": 5,
                                        "order": 5
                                    }
                                ],
                                "depth": 1,
                                "id": 4,
                                "order": 4
                            },
                            {
                                "children": [],
                                "depth": 1,
                                "id": 6,
                                "order": 6
                            },
                            {
                                "children": [
                                    {
                                        "children": [],
                                        "depth": 2,
                                        "id": 8,
                                        "order": 8
                                    }
                                ],
                                "depth": 1,
                                "id": 7,
                                "order": 7
                            },
                            {
                                "children": [],
                                "depth": 1,
                                "id": 9,
                                "order": 9
                            }
                        ],
                        "depth": 0,
                        "id": 0,
                        "order": 0
                    }
                ],
                "depth": -1,
                "id": -1,
                "order": -1
            }
        ],
        "mainTraceNodeCount": 10,
        "parentIdMap": {
            "0": -1,
            "1": 0,
            "2": 0,
            "3": 2,
            "4": 0,
            "5": 4,
            "6": 0,
            "7": 0,
            "8": 7,
            "9": 0
        },
        "tidyTrace": [
            {
                "children": [
                    {
                        "children": [
                            {
                                "children": [
                                    {
                                        "children": [],
                                        "depth": 2,
                                        "id": 3,
                                        "order": 3
                                    }
                                ],
                                "depth": 1,
                                "id": 2,
                                "order": 2
                            },
                            {
                                "children": [
                                    {
                                        "children": [],
                                        "depth": 2,
                                        "id": 5,
                                        "order": 5
                                    }
                                ],
                                "depth": 1,
                                "id": 4,
                                "order": 4
                            },
                            {
                                "children": [
                                    {
                                        "children": [],
                                        "depth": 2,
                                        "id": 8,
                                        "order": 8
                                    }
                                ],
                                "depth": 1,
                                "id": 7,
                                "order": 7
                            },
                            {
                                "children": [],
                                "depth": 1,
                                "id": 9,
                                "order": 9
                            }
                        ],
                        "depth": 0,
                        "id": 0,
                        "order": 0
                    }
                ],
                "depth": -1,
                "id": -1,
                "order": -1
            }
        ],
        "tidyTraceNodeCount": 8
    },
    "state_change": {
        "stateChanges": [
            {
                "address": "0x4ff7c227e1e7bd59351de8635381c379750a8040",
                "erc": "ERC-20",
                "slots": [
                    {
                        "current": "0x00000000000000000000000000000000000000000014828605f7dabe0ca0753d",
                        "key": "0xd7bda9db0a8771c1e6df15db99f65dc53ab112f22cc5232974f9b4af04888d1c",
                        "prev": "0x00000000000000000000000000000000000000000014823018ca593602df5610"
                    },
                    {
                        "current": "0x0000000000000000000000000000000000000000002988fce834718af8bfc000",
                        "key": "0x0000000000000000000000000000000000000000000000000000000000000002",
                        "prev": "0x0000000000000000000000000000000000000000002988f25b58306baa2a0000"
                    },
                    {
                        "current": "0x0000000000000000000000000000000000000000000004190b12f27769574000",
                        "key": "0xfeaafafadad6b6bd14b42cb4a5c62280baad10a7dec1818f8cc8fa2f46067a4e",
                        "prev": "0x000000000000000000000000000000000000000000000418158a8f7490be0000"
                    },
                    {
                        "current": "0x000000000000000000000000000000000000000000001a45c3901357c97ac776",
                        "key": "0x85d30c1b3aff1fe83580b2c9c5165c3f2ec2e1e184f92a46be9dcd433cfa1389",
                        "prev": "0x000000000000000000000000000000000000000000001a921969b6c35d3f66a3"
                    }
                ],
                "storageVariables": [
                    {
                        "name": "_balances",
                        "type": "mapping(address => uint256)",
                        "value": {
                            "pairs": [
                                {
                                    "key": "0x85a37d5698ecd55b43a434eeb5e1d89b0057b631",
                                    "value": {
                                        "current": "19351432500000000000000",
                                        "prev": "19333740000000000000000",
                                        "typeTag": 1
                                    }
                                },
                                {
                                    "key": "0x8d3191d58676171cd61aad0385e73f2bc81cf8de",
                                    "value": {
                                        "current": "24794896328824313679476029",
                                        "prev": "24793311265119466147501584",
                                        "typeTag": 1
                                    }
                                },
                                {
                                    "key": "0xede1537412e59c80c4f4af670202462585fb0897",
                                    "value": {
                                        "current": "124068445680198540248950",
                                        "prev": "125476584385046072223395",
                                        "typeTag": 1
                                    }
                                }
                            ],
                            "typeTag": 4
                        }
                    },
                    {
                        "name": "_totalSupply",
                        "type": "uint256",
                        "value": {
                            "current": "50212865757500000000000000",
                            "prev": "50212671140000000000000000",
                            "typeTag": 1
                        }
                    }
                ]
            },
            {
                "address": "0xede1537412e59c80c4f4af670202462585fb0897",
                "erc": "",
                "slots": [
                    {
                        "current": "0x0000000000000000000000000000000000000000000000000000000000ba299c",
                        "key": "0xa66cc928b5edb82af9bd49922954155ab7b0942694bea4ce44661d9a8736c69a",
                        "prev": "0x0000000000000000000000000000000000000000000000000000000000ba2065"
                    },
                    {
                        "current": "0x0000000000000000000000000000000000000000000000000001cc464aa434a3",
                        "key": "0xa66cc928b5edb82af9bd49922954155ab7b0942694bea4ce44661d9a8736c69b",
                        "prev": "0x0000000000000000000000000000000000000000000000000001c9c67f061ac1"
                    },
                    {
                        "current": "0x000000000000000000000000000000000000000000000069c1e6e4b52aee7f9d",
                        "key": "0xa8d722e8a31f7a4a8a5611661e980d3da4cfb132ccd4b17bdd5585f86c3c8530",
                        "prev": "0x000000000000000000000000000000000000000000000013d4b9632d212d6070"
                    }
                ],
                "storageVariables": [
                    {
                        "name": "poolInfo",
                        "type": "struct HYPEAdmin.PoolInfo[]",
                        "value": {
                            "elemType": "struct HYPEAdmin.PoolInfo",
                            "elems": [
                                {
                                    "index": 4,
                                    "value": {
                                        "fields": [
                                            {
                                                "name": "lastRewardBlock",
                                                "type": "uint256",
                                                "value": {
                                                    "current": "12200348",
                                                    "prev": "12197989",
                                                    "typeTag": 1
                                                }
                                            },
                                            {
                                                "name": "accHYPEPerShare",
                                                "type": "uint256",
                                                "value": {
                                                    "current": "506077248763043",
                                                    "prev": "503329348524737",
                                                    "typeTag": 1
                                                }
                                            }
                                        ],
                                        "typeTag": 3
                                    }
                                }
                            ],
                            "typeTag": 2
                        }
                    },
                    {
                        "name": "userInfo",
                        "type": "mapping(uint256 => mapping(address => struct HYPEAdmin.UserInfo))",
                        "value": {
                            "pairs": [
                                {
                                    "key": "4",
                                    "value": {
                                        "pairs": [
                                            {
                                                "key": "0x8d3191d58676171cd61aad0385e73f2bc81cf8de",
                                                "value": {
                                                    "fields": [
                                                        {
                                                            "name": "rewardDebt",
                                                            "type": "uint256",
                                                            "value": {
                                                                "current": "1950880234100226949021",
                                                                "prev": "365816529252694974576",
                                                                "typeTag": 1
                                                            }
                                                        }
                                                    ],
                                                    "typeTag": 3
                                                }
                                            }
                                        ],
                                        "typeTag": 4
                                    }
                                }
                            ],
                            "typeTag": 4
                        }
                    }
                ]
            }
        ]
    }
}