{
    "balance_change": {
        "balanceChanges": []
    },
    "profile": {
        "basic_info": {
            "baseFee": "",
            "blockNumber": 6746794,
            "callData": "0x095bcdb600000000000000000000000048ba859448962f446d5f4f688912e42d924881a3708000000000007b00000000000000000000000000000000000000000000000e0000000000000000000000000000000000000000000000000000000000000001",
            "debugEnable": true,
            "errorInfo": "",
            "eventCount": 1,
            "feeRecipient": "0x41c74604182a1531534e6d553b49b1d78e6fa9a2",
            "formatValue": "0",
            "gasLimit": 49891,
            "gasPrice": "5",
            "gasUsed": 49556,
            "intTxnCount": 2,
            "internalRevert": false,
            "internalRevertMessage": "",
            "isContractCreation": false,
            "isFlashloan": false,
            "maxFee": "",
            "nonce": 69,
            "overwritedBlockNumber": -1,
            "priorityFee": "",
            "receiver": "0x8562c38485b1e8ccd82e44f89823da76c98eb0ab",
            "revertMessage": "",
            "sender": "0x9be8f1f797038515d7e3882618ccbc088b45ecad",
            "simulationEnable": true,
            "sourceTxnHash": "0x1f0f36c6092a80d489e6de95b84873d5d67e4aa45dfadc640536cfef7c881bfd",
            "status": true,
            "timestamp": "2018-11-21T17:18:59Z",
            "transactionFee": "0.00024778",
            "txnHash": "0x1f0f36c6092a80d489e6de95b84873d5d67e4aa45dfadc640536cfef7c881bfd",
            "txnIndex": 10,
            "type": 0,
            "value": "0"
        },
        "fund_flow": [],
        "token_infos": [
            {
                "address": "0xeeeeeeeeeeeeeeeeeeeeeeeeeeeeeeeeeeeeeeee",
                "decimals": 18
            },
            {
                "address": "0xc02aaa39b223fe8d0a0e5c4f27ead9083c756cc2",
                "decimals": 18
            }
        ]
    },
    "address_label": {
        "labels": [
            {
                "address": "0x0000000000000000000000000000000000000001",
                "label": "Precompiled"
            },
            {
                "address": "0x0000000000000000000000000000000000000002",
                "label": "Precompiled"
            },
            {
                "address": "0x0000000000000000000000000000000000000003",
                "label": "Precompiled"
            },
            {
                "address": "0x0000000000000000000000000000000000000004",
                "label": "Precompiled"
            },
            {
                "address": "0xeeeeeeeeeeeeeeeeeeeeeeeeeeeeeeeeeeeeeeee",
                "label": "Ether"
            }
        ]
    },
    "trace": {
        "accountLabels": null,
        "dataMap": {
            "-1": {
                "invocation": {
                    "address": "0x9be8f1f797038515d7e3882618ccbc088b45ecad",
                    "callData": "",
                    "decodedMethod": null,
                    "errorInfo": "",
                    "fromAddress": "",
                    "gasUsed": 0,
                    "id": -1,
                    "methodDecoded": false,
                    "operation": "",
                    "output": "",
                    "revert": false,
                    "revertMessage": "",
                    "selector": "",
                    "status": false,
                    "value": ""
                },
                "nodeType": 0
            },
            "0": {
                "invocation": {
                    "address": "0x8562c38485b1e8ccd82e44f89823da76c98eb0ab",
                    "callData": "0x00000000000000000000000048ba859448962f446d5f4f688912e42d924881a3708000000000007b00000000000000000000000000000000000000000000000e0000000000000000000000000000000000000000000000000000000000000001",
                    "decodedMethod": {
                        "callParams": [
                            {
                                "name": "_to",
                                "type": "address",
                                "value": "0x48ba859448962f446d5f4f688912e42d924881a3"
                            },
                            {
                                "name": "_tokenId",
                                "type": "uint256",
                                "value": "50,885,195,465,617,469,464,082,481,473,957,787,207,633,635,284,560,795,174,491,978,266,303,694,635,022"
                            },
                            {
                                "name": "_salePrice",
                                "type": "uint256",
                                "value": "1"
                            }
                        ],
                        "constructorArguments": "",
                        "name": "transfer",
                        "returnParams": [],
                        "signature": "transfer(address,uint256,uint256)"
                    },
                    "errorInfo": "",
                    "fromAddress": "0x9be8f1f797038515d7e3882618ccbc088b45ecad",
                    "gasUsed": 49556,
                    "id": 0,
                    "methodDecoded": true,
                    "operation": "CALL",
                    "output": "",
                    "revert": false,
                    "revertMessage": "",
                    "selector": "0x095bcdb6",
                    "status": true,
                    "value": "0"
                },
                "nodeType": 0
            },
            "1": {
                "invocation": {
                    "address": "0xe23e75c8ca2a1e6c24fbb509a9379b68c5a267a8",
                    "callData": "0x0000000000000000000000004e643a25a64952895f553f20252861258727174e00000000000000000000000048ba859448962f446d5f4f688912e42d924881a3708000000000007b00000000000000000000000000000000000000000000000e0000000000000000000000000000000000000000000000000000000000000001",
                    "decodedMethod": null,
                    "errorInfo": "",
                    "fromAddress": "0x8562c38485b1e8ccd82e44f89823da76c98eb0ab",
                    "gasUsed": 24038,
                    "id": 1,
                    "methodDecoded": false,
                    "operation": "DELEGATECALL",
                    "output": "",
                    "revert": false,
                    "revertMessage": "",
                    "selector": "0x313144f7",
                    "status": true,
                    "value": "0"
                },
                "nodeType": 0
            },
            "2": {
                "invocation": {
                    "address": "0x4e643a25a64952895f553f20252861258727174e",
                    "callData": "0x708000000000007b00000000000000000000000000000000000000000000000e0000000000000000000000009be8f1f797038515d7e3882618ccbc088b45ecad00000000000000000000000048ba859448962f446d5f4f688912e42d924881a3",
                    "decodedMethod": null,
                    "errorInfo": "",
                    "fromAddress": "0x8562c38485b1e8ccd82e44f89823da76c98eb0ab",
                    "gasUsed": 19308,
                    "id": 2,
                    "methodDecoded": false,
                    "operation": "CALL",
                    "output": "",
                    "revert": false,
                    "revertMessage": "",
                    "selector": "0x95760fb9",
                    "status": true,
                    "value": "0"
                },
                "nodeType": 0
            },
            "3": {
                "event": {
                    "contract": "0x8562c38485b1e8ccd82e44f89823da76c98eb0ab",
                    "decodedLog": {
                        "name": "Transfer",
                        "params": [
                            {
                                "name": "tranche",
                                "type": "uint256",
                                "value": "50,885,195,465,617,469,464,082,481,473,957,787,207,633,635,284,560,795,174,491,978,266,303,694,635,022"
                            },
                            {
                                "name": "from",
                                "type": "address",
                                "value": "0x9be8f1f797038515d7e3882618ccbc088b45ecad"
                            },
                            {
                                "name": "to",
                                "type": "address",
                                "value": "0x48ba859448962f446d5f4f688912e42d924881a3"
                            },
                            {
                                "name": "amount",
                                "type": "uint256",
                                "value": "1"
                            }
                        ],
                        "signature": "Transfer(uint256,address,address,uint256)"
                    },
                    "id": 3,
                    "logData": "0x0000000000000000000000000000000000000000000000000000000000000001",
                    "logDecoded": true,
                    "operation": "EVENT",
                    "revert": false,
                    "status": true,
                    "topics": [
                        "0xf2dbd98d79f00f7aff338b824931d607bfcc63d47307162470f25a055102d3b0",
                        "0x708000000000007b00000000000000000000000000000000000000000000000e",
                        "0x0000000000000000000000009be8f1f797038515d7e3882618ccbc088b45ecad",
                        "0x00000000000000000000000048ba859448962f446d5f4f688912e42d924881a3"
                    ]
                },
                "nodeType": 1
            }
        },
        "gasFlame": [
            {
                "children": [
                    {
                        "children": [
                            {
                                "children": [],
                                "depth": 0,
                                "name": "Initial Gas",
                                "value": 23256
                            },
                            {
                                "children": [
                                    {
                                        "children": [
                                            {
                                                "children": [],
                                                "depth": 2,
                                                "name": "0x95760fb9",
                                                "value": 19308
                                            }
                                        ],
                                        "depth": 1,
                                        "name": "0x313144f7",
                                        "value": 24038
                                    }
                                ],
                                "depth": 0,
                                "name": "Executed Gas",
                                "value": 26300
                            }
                        ],
                        "depth": -1,
                        "name": "Actual Gas Used",
                        "value": 49556
                    },
                    {
                        "children": [],
                        "depth": -1,
                        "name": "Refunded Gas",
                        "value": 0
                    }
                ],
                "depth": -2,
                "name": "Total Gas",
                "value": 49556
            }
        ],
        "isConfirmed": true,
        "mainTrace": [
            {
                "children": [
                    {
                        "children": [
                            {
                                "children": [
                                    {
                                        "children": [],
                                        "depth": 2,
                                        "id": 2,
                                        "order": 2
                                    },
                                    {
                                        "children": [],
                                        "depth": 2,
                                        "id": 3,
                                        "order": 3
                                    }
                                ],
                                "depth": 1,
                                "id": 1,
                                "order": 1
                            }
                        ],
                        "depth": 0,
                        "id": 0,
                        "order": 0
                    }
                ],
                "depth": -1,
                "id": -1,
                "order": -1
            }
        ],
        "mainTraceNodeCount": 4,
        "parentIdMap": {
            "0": -1,
            "1": 0,
            "2": 1,
            "3": 1
        },
        "tidyTrace": [
            {
                "children": [
                    {
                        "children": [
                            {
                                "children": [
                                    {
                                        "children": [],
                                        "depth": 2,
                                        "id": 2,
                                        "order": 2
                                    },
                                    {
                                        "children": [],
                                        "depth": 2,
                                        "id": 3,
                                        "order": 3
                                    }
                                ],
                                "depth": 1,
                                "id": 1,
                                "order": 1
                            }
                        ],
                        "depth": 0,
                        "id": 0,
                        "order": 0
                    }
                ],
                "depth": -1,
                "id": -1,
                "order": -1
            }
        ],
        "tidyTraceNodeCount": 4
    },
    "state_change": {
        "stateChanges": [
            {
                "address": "0x4e643a25a64952895f553f20252861258727174e",
                "erc": "",
                "slots": [
                    {
                        "current": "0x0000000000000000000000000000000000000000000000000000000000000044",
                        "key": "0x434bbd2e59bf11dc0acd7120f80576b2529852f3a5613954a8946176a1fd786e",
                        "prev": "0x0000000000000000000000000000000000000000000000000000000000000045"
                    },
                    {
                        "current": "0x000000000000000000000000000000000000000000000000000000000000000e",
                        "key": "0x61703c54df60254ff02ab897ce29c960adb87390e934f30d58fca9b715a2e442",
                        "prev": "0x000000000000000000000000000000000000000000000000000000000000000d"
                    },
                    {
                        "current": "0x00000000000000000000000048ba859448962f446d5f4f688912e42d924881a3",
                        "key": "0xf6f63aa810e35f4aa0b96b6e1ef21c0388ec0f7e0473f00c2bba4a5286cd4901",
                        "prev": "0x0000000000000000000000009be8f1f797038515d7e3882618ccbc088b45ecad"
                    }
                ],
                "storageVariables": []
            }
        ]
    }
}