{
    "balance_change": {
        "balanceChanges": [
            {
                "account": "0x3b9f91d968a5fb014eff74cdb6e6334ae7dbcc16",
                "assets": [
                    {
                        "address": "0x29cbd0510eec0327992cd6006e63f9fa8e7f33b7",
                        "amount": "623,608.62",
                        "iconUrl": "https://assets.blocksec.com/icon/82734b59c7731db99c8ab722c69927b0fb36fbf49810ec67609e9fa6dc539d8c.png",
                        "isERC1155": false,
                        "isERC721": false,
                        "sign": false,
                        "value": "124.72172400000000598"
                    }
                ]
            },
            {
                "account": "0xf16e9b0d03470827a95cdfd0cb8a8a3b46969b91",
                "assets": [
                    {
                        "address": "0x29cbd0510eec0327992cd6006e63f9fa8e7f33b7",
                        "amount": "623,608.62",
                        "iconUrl": "https://assets.blocksec.com/icon/82734b59c7731db99c8ab722c69927b0fb36fbf49810ec67609e9fa6dc539d8c.png",
                        "isERC1155": false,
                        "isERC721": false,
                        "sign": true,
                        "value": "124.72172400000000598"
                    }
                ]
            }
        ]
    },
    "profile": {
        "basic_info": {
            "baseFee": "12.294580884",
            "blockNumber": 17568810,
            "callData": "0xa9059cbb000000000000000000000000f16e9b0d03470827a95cdfd0cb8a8a3b46969b9100000000000000000000000000000000000000000000840de41a7ded659e0000",
            "debugEnable": true,
            "errorInfo": "",
            "eventCount": 1,
            "feeRecipient": "0x95222290dd7278aa3ddd389cc1e1d165cc4bafe5",
            "formatValue": "0",
            "gasLimit": 100000,
            "gasPrice": "12.915686919",
            "gasUsed": 29985,
            "intTxnCount": 0,
            "internalRevert": false,
            "internalRevertMessage": "",
            "isContractCreation": false,
            "isFlashloan": false,
            "maxFee": "12.915686919",
            "nonce": 619,
            "overwritedBlockNumber": -1,
            "priorityFee": "1",
            "receiver": "0x29cbd0510eec0327992cd6006e63f9fa8e7f33b7",
            "revertMessage": "",
            "sender": "0x3b9f91d968a5fb014eff74cdb6e6334ae7dbcc16",
            "simulationEnable": true,
            "sourceTxnHash": "0x1f9fe8a43dce7da37d9d3c898d9f8cb550b13859c9487b78ed48a176c1836ea8",
            "status": true,
            "timestamp": "2023-06-27T06:03:11Z",
            "transactionFee": "0.000387276872266215",
            "txnHash": "0x1f9fe8a43dce7da37d9d3c898d9f8cb550b13859c9487b78ed48a176c1836ea8",
            "txnIndex": 143,
            "type": 2,
            "value": "0"
        },
        "fund_flow": [
            {
                "amount": "623,608.62",
                "from": "0x3b9f91d968a5fb014eff74cdb6e6334ae7dbcc16",
                "id": 1,
                "isERC1155": false,
                "isERC721": false,
                "isReverted": false,
                "order": 1,
                "to": "0xf16e9b0d03470827a95cdfd0cb8a8a3b46969b91",
                "token": "0x29cbd0510eec0327992cd6006e63f9fa8e7f33b7"
            }
        ],
        "token_infos": [
            {
                "address": "0x29cbd0510eec0327992cd6006e63f9fa8e7f33b7",
                "decimals": 18
            },
            {
                "address": "0xc02aaa39b223fe8d0a0e5c4f27ead9083c756cc2",
                "decimals": 18
            },
            {
                "address": "0xeeeeeeeeeeeeeeeeeeeeeeeeeeeeeeeeeeeeeeee",
                "decimals": 18
            }
        ]
    },
    "address_label": {
        "labels": [
            {
                "address": "0xf16e9b0d03470827a95cdfd0cb8a8a3b46969b91",
                "label": "KuCoin 9"
            },
            {
                "address": "0x3b9f91d968a5fb014eff74cdb6e6334ae7dbcc16",
                "label": "KUCOIN"
            },
            {
                "address": "0x0000000000000000000000000000000000000001",
                "label": "Precompiled"
            },
            {
                "address": "0x0000000000000000000000000000000000000002",
                "label": "Precompiled"
            },
            {
                "address": "0x0000000000000000000000000000000000000003",
                "label": "Precompiled"
            },
            {
                "address": "0x0000000000000000000000000000000000000004",
                "label": "Precompiled"
            },
            {
                "address": "0xeeeeeeeeeeeeeeeeeeeeeeeeeeeeeeeeeeeeeeee",
                "label": "Ether"
            },
            {
                "address": "0x29cbd0510eec0327992cd6006e63f9fa8e7f33b7",
                "label": "Tidal Finance: TIDAL Token"
            }
        ]
    },
    "trace": {
        "accountLabels": null,
        "dataMap": {
            "-1": {
                "invocation": {
                    "address": "0x3b9f91d968a5fb014eff74cdb6e6334ae7dbcc16",
                    "callData": "",
                    "decodedMethod": null,
                    "errorInfo": "",
                    "fromAddress": "",
                    "gasUsed": 0,
                    "id": -1,
                    "methodDecoded": false,
                    "operation": "",
                    "output": "",
                    "revert": false,
                    "revertMessage": "",
                    "selector": "",
                    "status": false,
                    "value": ""
                },
                "nodeType": 0
            },
            "0": {
                "invocation": {
                    "address": "0x29cbd0510eec0327992cd6006e63f9fa8e7f33b7",
                    "callData": "0x000000000000000000000000f16e9b0d03470827a95cdfd0cb8a8a3b46969b9100000000000000000000000000000000000000000000840de41a7ded659e0000",
                    "decodedMethod": {
                        "callParams": [
                            {
                                "name": "recipient",
                                "type": "address",
                                "value": "0xf16e9b0d03470827a95cdfd0cb8a8a3b46969b91"
                            },
                            {
                                "decimalAvailable": true,
                                "name": "amount",
                                "type": "uint256",
                                "value": "623,608,620,000,000,000,000,000"
                            }
                        ],
                        "constructorArguments": "",
                        "name": "transfer",
                        "returnParams": [
                            {
                                "name": "",
                                "type": "bool",
                                "value": true
                            }
                        ],
                        "signature": "transfer(address,uint256)"
                    },
                    "errorInfo": "",
                    "fromAddress": "0x3b9f91d968a5fb014eff74cdb6e6334ae7dbcc16",
                    "gasUsed": 29985,
                    "id": 0,
                    "methodDecoded": true,
                    "operation": "CALL",
                    "output": "0x0000000000000000000000000000000000000000000000000000000000000001",
                    "revert": false,
                    "revertMessage": "",
                    "selector": "0xa9059cbb",
                    "status": true,
                    "value": "0"
                },
                "nodeType": 0
            },
            "1": {
                "event": {
                    "contract": "0x29cbd0510eec0327992cd6006e63f9fa8e7f33b7",
                    "decodedLog": {
                        "name": "Transfer",
                        "params": [
                            {
                                "name": "from",
                                "type": "address",
                                "value": "0x3b9f91d968a5fb014eff74cdb6e6334ae7dbcc16"
                            },
                            {
                                "name": "to",
                                "type": "address",
                                "value": "0xf16e9b0d03470827a95cdfd0cb8a8a3b46969b91"
                            },
                            {
                                "decimalAvailable": true,
                                "name": "value",
                                "type": "uint256",
                                "value": "623,608,620,000,000,000,000,000"
                            }
                        ],
                        "signature": "Transfer(address,address,uint256)"
                    },
                    "id": 1,
                    "logData": "0x00000000000000000000000000000000000000000000840de41a7ded659e0000",
                    "logDecoded": true,
                    "operation": "EVENT",
                    "revert": false,
                    "status": true,
                    "topics": [
                        "0xddf252ad1be2c89b69c2b068fc378daa952ba7f163c4a11628f55a4df523b3ef",
                        "0x0000000000000000000000003b9f91d968a5fb014eff74cdb6e6334ae7dbcc16",
                        "0x000000000000000000000000f16e9b0d03470827a95cdfd0cb8a8a3b46969b91"
                    ]
                },
                "nodeType": 1
            }
        },
        "gasFlame": [
            {
                "children": [
                    {
                        "children": [
                            {
                                "children": [],
                                "depth": 0,
                                "name": "Initial Gas",
                                "value": 21656
                            },
                            {
                                "children": [],
                                "depth": 0,
                                "name": "Executed Gas",
                                "value": 13129
                            }
                        ],
                        "depth": -1,
                        "name": "Actual Gas Used",
                        "value": 29985
                    },
                    {
                        "children": [],
                        "depth": -1,
                        "name": "Refunded Gas",
                        "value": 4800
                    }
                ],
                "depth": -2,
                "name": "Total Gas",
                "value": 34785
            }
        ],
        "isConfirmed": true,
        "mainTrace": [
            {
                "children": [
                    {
                        "children": [
                            {
                                "children": [],
                                "depth": 1,
                                "id": 1,
                                "order": 1
                            }
                        ],
                        "depth": 0,
                        "id": 0,
                        "order": 0
                    }
                ],
                "depth": -1,
                "id": -1,
                "order": -1
            }
        ],
        "mainTraceNodeCount": 2,
        "parentIdMap": {
            "0": -1,
            "1": 0
        },
        "tidyTrace": [
            {
                "children": [
                    {
                        "children": [
                            {
                                "children": [],
                                "depth": 1,
                                "id": 1,
                                "order": 1
                            }
                        ],
                        "depth": 0,
                        "id": 0,
                        "order": 0
                    }
                ],
                "depth": -1,
                "id": -1,
                "order": -1
            }
        ],
        "tidyTraceNodeCount": 2
    },
    "state_change": {
        "stateChanges": [
            {
                "address": "0x29cbd0510eec0327992cd6006e63f9fa8e7f33b7",
                "erc": "ERC-20",
                "slots": [
                    {
                        "current": "0x000000000000000000000000000000000000000001ecb8605207362ed8e23b09",
                        "key": "0xe22997ad676795e3318786248f6e5790f07b3bc90ff54b119652dd6b4e49e832",
                        "prev": "0x000000000000000000000000000000000000000001ec34526decb84173443b09"
                    },
                    {
                        "current": "0x0000000000000000000000000000000000000000000000000000000000000000",
                        "key": "0x3363aff9f5271b43c7273f201c801e4ee616869b6b2bdc69645cc0eb3b100fb0",
                        "prev": "0x00000000000000000000000000000000000000000000840de41a7ded659e0000"
                    }
                ],
                "storageVariables": [
                    {
                        "name": "_balances",
                        "type": "mapping(address => uint256)",
                        "value": {
                            "pairs": [
                                {
                                    "key": "0x3b9f91d968a5fb014eff74cdb6e6334ae7dbcc16",
                                    "value": {
                                        "current": "0",
                                        "prev": "623608620000000000000000",
                                        "typeTag": 1
                                    }
                                },
                                {
                                    "key": "0xf16e9b0d03470827a95cdfd0cb8a8a3b46969b91",
                                    "value": {
                                        "current": "595662195481429255573879561",
                                        "prev": "595038586861429255573879561",
                                        "typeTag": 1
                                    }
                                }
                            ],
                            "typeTag": 4
                        }
                    }
                ]
            }
        ]
    }
}