{
    "balance_change": {
        "balanceChanges": [
            {
                "account": "0xd53becd80d06bac7b16f6c81297879343a9aa6ee",
                "assets": [
                    {
                        "address": "0xeeeeeeeeeeeeeeeeeeeeeeeeeeeeeeeeeeeeeeee",
                        "amount": "0.205",
                        "iconUrl": "https://assets.blocksec.com/image/1663669189317-3.png",
                        "isERC1155": false,
                        "isERC721": false,
                        "sign": false,
                        "value": "754.4837947749999853"
                    },
                    {
                        "address": "0xbaeec315f9d7f8db2645edfd5633360f152279bc",
                        "amount": "1",
                        "iconUrl": "",
                        "isERC1155": false,
                        "isERC721": true,
                        "sign": true,
                        "tokenID": "4572",
                        "value": ""
                    }
                ]
            },
            {
                "account": "0x5b3256965e7c3cf26e11fcaf296dfc8807c01073",
                "assets": [
                    {
                        "address": "0xeeeeeeeeeeeeeeeeeeeeeeeeeeeeeeeeeeeeeeee",
                        "amount": "0.015375",
                        "iconUrl": "https://assets.blocksec.com/image/1663669189317-3.png",
                        "isERC1155": false,
                        "isERC721": false,
                        "sign": true,
                        "value": "56.586284608124998895"
                    }
                ]
            },
            {
                "account": "0xeea357ce1a449c6e67c86d4d3cd3691b41d68f35",
                "assets": [
                    {
                        "address": "0xeeeeeeeeeeeeeeeeeeeeeeeeeeeeeeeeeeeeeeee",
                        "amount": "0.189625",
                        "iconUrl": "https://assets.blocksec.com/image/1663669189317-3.png",
                        "isERC1155": false,
                        "isERC721": false,
                        "sign": true,
                        "value": "697.8975101668749864"
                    },
                    {
                        "address": "0xbaeec315f9d7f8db2645edfd5633360f152279bc",
                        "amount": "1",
                        "iconUrl": "",
                        "isERC1155": false,
                        "isERC721": true,
                        "sign": false,
                        "tokenID": "4572",
                        "value": ""
                    }
                ]
            }
        ]
    },
    "profile": {
        "basic_info": {
            "baseFee": "75.73433556",
            "blockNumber": 14033150,
            "callData": "0xab834bab0000000000000000000000007be8076f4ea4a4ad08075c2508e481d6c946d12b000000000000000000000000d53becd80d06bac7b16f6c81297879343a9aa6ee000000000000000000000000eea357ce1a449c6e67c86d4d3cd3691b41d68f350000000000000000000000000000000000000000000000000000000000000000000000000000000000000000baeec315f9d7f8db2645edfd5633360f152279bc000000000000000000000000000000000000000000000000000000000000000000000000000000000000000000000000000000000000000000000000000000000000000000000000000000007be8076f4ea4a4ad08075c2508e481d6c946d12b000000000000000000000000eea357ce1a449c6e67c86d4d3cd3691b41d68f3500000000000000000000000000000000000000000000000000000000000000000000000000000000000000005b3256965e7c3cf26e11fcaf296dfc8807c01073000000000000000000000000baeec315f9d7f8db2645edfd5633360f152279bc0000000000000000000000000000000000000000000000000000000000000000000000000000000000000000000000000000000000000000000000000000000000000000000000000000000000000000000000000000000000000000000002ee00000000000000000000000000000000000000000000000000000000000000000000000000000000000000000000000000000000000000000000000000000000000000000000000000000000000000000000000000000000000000000000000000000000000000000000000000000000000000000000000002d84e69f2f4800000000000000000000000000000000000000000000000000000000000000000000000000000000000000000000000000000000000000000000000000061e76c220000000000000000000000000000000000000000000000000000000000000000279eea802d85bab185fc89680012a4c19da2a6b87aafd6e55bf4daa63daa279c00000000000000000000000000000000000000000000000000000000000002ee00000000000000000000000000000000000000000000000000000000000000000000000000000000000000000000000000000000000000000000000000000000000000000000000000000000000000000000000000000000000000000000000000000000000000000000000000000000000000000000000002d84e69f2f4800000000000000000000000000000000000000000000000000000000000000000000000000000000000000000000000000000000000000000000000000061e759c20000000000000000000000000000000000000000000000000000000061e8ab9e183e63bb616ca45b94076162716cc213a73e642f7b1ae514a0e02563339912b50000000000000000000000000000000000000000000000000000000000000001000000000000000000000000000000000000000000000000000000000000000000000000000000000000000000000000000000000000000000000000000000000000000000000000000000000000000000000000000000000000000000000000000000000000000000000000000000000000000000000000000000000000000100000000000000000000000000000000000000000000000000000000000000010000000000000000000000000000000000000000000000000000000000000000000000000000000000000000000000000000000000000000000000000000000000000000000000000000000000000000000000000000000000000000000006a0000000000000000000000000000000000000000000000000000000000000074000000000000000000000000000000000000000000000000000000000000007e0000000000000000000000000000000000000000000000000000000000000088000000000000000000000000000000000000000000000000000000000000009200000000000000000000000000000000000000000000000000000000000000940000000000000000000000000000000000000000000000000000000000000001b000000000000000000000000000000000000000000000000000000000000001bfbf6e59e5cd22b37d482e48551d044aa9c3ddb6a854a3928be2663e512ac89937bb4f8234c5fba197c49ad927ab2c07e2406b016422da528963f24cf452b83fdfbf6e59e5cd22b37d482e48551d044aa9c3ddb6a854a3928be2663e512ac89937bb4f8234c5fba197c49ad927ab2c07e2406b016422da528963f24cf452b83fd0000000000000000000000000000000000000000000000000000000000000000000000000000000000000000000000000000000000000000000000000000006423b872dd0000000000000000000000000000000000000000000000000000000000000000000000000000000000000000d53becd80d06bac7b16f6c81297879343a9aa6ee00000000000000000000000000000000000000000000000000000000000011dc00000000000000000000000000000000000000000000000000000000000000000000000000000000000000000000000000000000000000000000006423b872dd000000000000000000000000eea357ce1a449c6e67c86d4d3cd3691b41d68f35000000000000000000000000000000000000000000000000000000000000000000000000000000000000000000000000000000000000000000000000000011dc00000000000000000000000000000000000000000000000000000000000000000000000000000000000000000000000000000000000000000000006400000000ffffffffffffffffffffffffffffffffffffffffffffffffffffffffffffffff00000000000000000000000000000000000000000000000000000000000000000000000000000000000000000000000000000000000000000000000000000000000000000000000000000000000000000000000000000000000000000000000000000000000000000000000000000000000000000000000000000064000000000000000000000000000000000000000000000000000000000000000000000000ffffffffffffffffffffffffffffffffffffffffffffffffffffffffffffffff00000000000000000000000000000000000000000000000000000000000000000000000000000000000000000000000000000000000000000000000000000000000000000000000000000000000000000000000000000000000000000000000000000000000000000000000000000000000000000000000000000000",
            "debugEnable": true,
            "errorInfo": "",
            "eventCount": 3,
            "feeRecipient": "0xea674fdde714fd979de3edf0f56aa9716b898ec8",
            "formatValue": "0.205",
            "gasLimit": 259193,
            "gasPrice": "77.23433556",
            "gasUsed": 189638,
            "intTxnCount": 10,
            "internalRevert": false,
            "internalRevertMessage": "",
            "isContractCreation": false,
            "isFlashloan": false,
            "maxFee": "82.822461365",
            "nonce": 9,
            "overwritedBlockNumber": -1,
            "priorityFee": "1.5",
            "receiver": "0x7be8076f4ea4a4ad08075c2508e481d6c946d12b",
            "revertMessage": "",
            "sender": "0xd53becd80d06bac7b16f6c81297879343a9aa6ee",
            "simulationEnable": true,
            "sourceTxnHash": "0x1f792b3ebdef4d631be68692171a5ddc834c501805a2873d1ee9699cc133958d",
            "status": true,
            "timestamp": "2022-01-19T01:51:45Z",
            "transactionFee": "0.01464656492692728",
            "txnHash": "0x1f792b3ebdef4d631be68692171a5ddc834c501805a2873d1ee9699cc133958d",
            "txnIndex": 246,
            "type": 2,
            "value": "205000000000000000"
        },
        "fund_flow": [
            {
                "amount": "0.205",
                "from": "0xd53becd80d06bac7b16f6c81297879343a9aa6ee",
                "id": 1,
                "isERC1155": false,
                "isERC721": false,
                "isReverted": false,
                "order": 1,
                "to": "0x7be8076f4ea4a4ad08075c2508e481d6c946d12b",
                "token": "0xeeeeeeeeeeeeeeeeeeeeeeeeeeeeeeeeeeeeeeee"
            },
            {
                "amount": "0.015375",
                "from": "0x7be8076f4ea4a4ad08075c2508e481d6c946d12b",
                "id": 2,
                "isERC1155": false,
                "isERC721": false,
                "isReverted": false,
                "order": 2,
                "to": "0x5b3256965e7c3cf26e11fcaf296dfc8807c01073",
                "token": "0xeeeeeeeeeeeeeeeeeeeeeeeeeeeeeeeeeeeeeeee"
            },
            {
                "amount": "0.189625",
                "from": "0x7be8076f4ea4a4ad08075c2508e481d6c946d12b",
                "id": 3,
                "isERC1155": false,
                "isERC721": false,
                "isReverted": false,
                "order": 3,
                "to": "0xeea357ce1a449c6e67c86d4d3cd3691b41d68f35",
                "token": "0xeeeeeeeeeeeeeeeeeeeeeeeeeeeeeeeeeeeeeeee"
            },
            {
                "amount": "1",
                "from": "0xeea357ce1a449c6e67c86d4d3cd3691b41d68f35",
                "id": 4,
                "isERC1155": false,
                "isERC721": true,
                "isReverted": false,
                "order": 4,
                "to": "0xd53becd80d06bac7b16f6c81297879343a9aa6ee",
                "token": "0xbaeec315f9d7f8db2645edfd5633360f152279bc",
                "tokenID": "4572"
            }
        ],
        "token_infos": [
            {
                "address": "0xc02aaa39b223fe8d0a0e5c4f27ead9083c756cc2",
                "decimals": 18
            },
            {
                "address": "0xeeeeeeeeeeeeeeeeeeeeeeeeeeeeeeeeeeeeeeee",
                "decimals": 18
            }
        ]
    },
    "address_label": {
        "labels": [
            {
                "address": "0xeeeeeeeeeeeeeeeeeeeeeeeeeeeeeeeeeeeeeeee",
                "label": "Ether"
            },
            {
                "address": "0x7be8076f4ea4a4ad08075c2508e481d6c946d12b",
                "label": "OpenSea: Wyvern Exchange v1"
            },
            {
                "address": "0xf9e266af4bca5890e2781812cc6a6e89495a79f2",
                "label": "AuthenticatedProxy"
            },
            {
                "address": "0x2ef9668a9ae891169768d4b358b55227f13b94bd",
                "label": "OwnableDelegateProxy"
            },
            {
                "address": "0x0000000000000000000000000000000000000001",
                "label": "Precompiled"
            },
            {
                "address": "0x0000000000000000000000000000000000000002",
                "label": "Precompiled"
            },
            {
                "address": "0x0000000000000000000000000000000000000003",
                "label": "Precompiled"
            },
            {
                "address": "0xa5409ec958c83c3f309868babaca7c86dcb077c1",
                "label": "OpenSea: Registry"
            },
            {
                "address": "0x5b3256965e7c3cf26e11fcaf296dfc8807c01073",
                "label": "OpenSea: Wallet"
            },
            {
                "address": "0x0000000000000000000000000000000000000000",
                "label": "Null Address"
            },
            {
                "address": "0xbaeec315f9d7f8db2645edfd5633360f152279bc",
                "label": "Rengoku (REN)"
            },
            {
                "address": "0x0000000000000000000000000000000000000004",
                "label": "Precompiled"
            }
        ]
    },
    "trace": {
        "accountLabels": null,
        "dataMap": {
            "-1": {
                "invocation": {
                    "address": "0xd53becd80d06bac7b16f6c81297879343a9aa6ee",
                    "callData": "",
                    "decodedMethod": null,
                    "errorInfo": "",
                    "fromAddress": "",
                    "gasUsed": 0,
                    "id": -1,
                    "methodDecoded": false,
                    "operation": "",
                    "output": "",
                    "revert": false,
                    "revertMessage": "",
                    "selector": "",
                    "status": false,
                    "value": ""
                },
                "nodeType": 0
            },
            "0": {
                "invocation": {
                    "address": "0x7be8076f4ea4a4ad08075c2508e481d6c946d12b",
                    "callData": "0x0000000000000000000000007be8076f4ea4a4ad08075c2508e481d6c946d12b000000000000000000000000d53becd80d06bac7b16f6c81297879343a9aa6ee000000000000000000000000eea357ce1a449c6e67c86d4d3cd3691b41d68f350000000000000000000000000000000000000000000000000000000000000000000000000000000000000000baeec315f9d7f8db2645edfd5633360f152279bc000000000000000000000000000000000000000000000000000000000000000000000000000000000000000000000000000000000000000000000000000000000000000000000000000000007be8076f4ea4a4ad08075c2508e481d6c946d12b000000000000000000000000eea357ce1a449c6e67c86d4d3cd3691b41d68f3500000000000000000000000000000000000000000000000000000000000000000000000000000000000000005b3256965e7c3cf26e11fcaf296dfc8807c01073000000000000000000000000baeec315f9d7f8db2645edfd5633360f152279bc0000000000000000000000000000000000000000000000000000000000000000000000000000000000000000000000000000000000000000000000000000000000000000000000000000000000000000000000000000000000000000000002ee00000000000000000000000000000000000000000000000000000000000000000000000000000000000000000000000000000000000000000000000000000000000000000000000000000000000000000000000000000000000000000000000000000000000000000000000000000000000000000000000002d84e69f2f4800000000000000000000000000000000000000000000000000000000000000000000000000000000000000000000000000000000000000000000000000061e76c220000000000000000000000000000000000000000000000000000000000000000279eea802d85bab185fc89680012a4c19da2a6b87aafd6e55bf4daa63daa279c00000000000000000000000000000000000000000000000000000000000002ee00000000000000000000000000000000000000000000000000000000000000000000000000000000000000000000000000000000000000000000000000000000000000000000000000000000000000000000000000000000000000000000000000000000000000000000000000000000000000000000000002d84e69f2f4800000000000000000000000000000000000000000000000000000000000000000000000000000000000000000000000000000000000000000000000000061e759c20000000000000000000000000000000000000000000000000000000061e8ab9e183e63bb616ca45b94076162716cc213a73e642f7b1ae514a0e02563339912b50000000000000000000000000000000000000000000000000000000000000001000000000000000000000000000000000000000000000000000000000000000000000000000000000000000000000000000000000000000000000000000000000000000000000000000000000000000000000000000000000000000000000000000000000000000000000000000000000000000000000000000000000000000100000000000000000000000000000000000000000000000000000000000000010000000000000000000000000000000000000000000000000000000000000000000000000000000000000000000000000000000000000000000000000000000000000000000000000000000000000000000000000000000000000000000006a0000000000000000000000000000000000000000000000000000000000000074000000000000000000000000000000000000000000000000000000000000007e0000000000000000000000000000000000000000000000000000000000000088000000000000000000000000000000000000000000000000000000000000009200000000000000000000000000000000000000000000000000000000000000940000000000000000000000000000000000000000000000000000000000000001b000000000000000000000000000000000000000000000000000000000000001bfbf6e59e5cd22b37d482e48551d044aa9c3ddb6a854a3928be2663e512ac89937bb4f8234c5fba197c49ad927ab2c07e2406b016422da528963f24cf452b83fdfbf6e59e5cd22b37d482e48551d044aa9c3ddb6a854a3928be2663e512ac89937bb4f8234c5fba197c49ad927ab2c07e2406b016422da528963f24cf452b83fd0000000000000000000000000000000000000000000000000000000000000000000000000000000000000000000000000000000000000000000000000000006423b872dd0000000000000000000000000000000000000000000000000000000000000000000000000000000000000000d53becd80d06bac7b16f6c81297879343a9aa6ee00000000000000000000000000000000000000000000000000000000000011dc00000000000000000000000000000000000000000000000000000000000000000000000000000000000000000000000000000000000000000000006423b872dd000000000000000000000000eea357ce1a449c6e67c86d4d3cd3691b41d68f35000000000000000000000000000000000000000000000000000000000000000000000000000000000000000000000000000000000000000000000000000011dc00000000000000000000000000000000000000000000000000000000000000000000000000000000000000000000000000000000000000000000006400000000ffffffffffffffffffffffffffffffffffffffffffffffffffffffffffffffff00000000000000000000000000000000000000000000000000000000000000000000000000000000000000000000000000000000000000000000000000000000000000000000000000000000000000000000000000000000000000000000000000000000000000000000000000000000000000000000000000000064000000000000000000000000000000000000000000000000000000000000000000000000ffffffffffffffffffffffffffffffffffffffffffffffffffffffffffffffff00000000000000000000000000000000000000000000000000000000000000000000000000000000000000000000000000000000000000000000000000000000000000000000000000000000000000000000000000000000000000000000000000000000000000000000000000000000000000000000000000000000",
                    "decodedMethod": {
                        "callParams": [
                            {
                                "name": "addrs",
                                "type": "address[14]",
                                "value": [
                                    "0x7be8076f4ea4a4ad08075c2508e481d6c946d12b",
                                    "0xd53becd80d06bac7b16f6c81297879343a9aa6ee",
                                    "0xeea357ce1a449c6e67c86d4d3cd3691b41d68f35",
                                    "0x0000000000000000000000000000000000000000",
                                    "0xbaeec315f9d7f8db2645edfd5633360f152279bc",
                                    "0x0000000000000000000000000000000000000000",
                                    "0x0000000000000000000000000000000000000000",
                                    "0x7be8076f4ea4a4ad08075c2508e481d6c946d12b",
                                    "0xeea357ce1a449c6e67c86d4d3cd3691b41d68f35",
                                    "0x0000000000000000000000000000000000000000",
                                    "0x5b3256965e7c3cf26e11fcaf296dfc8807c01073",
                                    "0xbaeec315f9d7f8db2645edfd5633360f152279bc",
                                    "0x0000000000000000000000000000000000000000",
                                    "0x0000000000000000000000000000000000000000"
                                ]
                            },
                            {
                                "name": "uints",
                                "type": "uint256[18]",
                                "value": [
                                    "750",
                                    "0",
                                    "0",
                                    "0",
                                    "205,000,000,000,000,000",
                                    "0",
                                    "1,642,556,450",
                                    "0",
                                    "17,920,981,395,294,762,414,266,538,266,239,353,282,619,299,866,643,013,838,338,838,930,559,242,741,660",
                                    "750",
                                    "0",
                                    "0",
                                    "0",
                                    "205,000,000,000,000,000",
                                    "0",
                                    "1,642,551,746",
                                    "1,642,638,238",
                                    "10,965,741,208,672,997,199,961,434,344,055,023,897,934,679,846,282,753,440,414,483,853,493,105,398,453"
                                ]
                            },
                            {
                                "name": "feeMethodsSidesKindsHowToCalls",
                                "type": "uint8[8]",
                                "value": [
                                    "1",
                                    "0",
                                    "0",
                                    "0",
                                    "1",
                                    "1",
                                    "0",
                                    "0"
                                ]
                            },
                            {
                                "name": "calldataBuy",
                                "type": "bytes",
                                "value": "0x23b872dd0000000000000000000000000000000000000000000000000000000000000000000000000000000000000000d53becd80d06bac7b16f6c81297879343a9aa6ee00000000000000000000000000000000000000000000000000000000000011dc"
                            },
                            {
                                "name": "calldataSell",
                                "type": "bytes",
                                "value": "0x23b872dd000000000000000000000000eea357ce1a449c6e67c86d4d3cd3691b41d68f35000000000000000000000000000000000000000000000000000000000000000000000000000000000000000000000000000000000000000000000000000011dc"
                            },
                            {
                                "name": "replacementPatternBuy",
                                "type": "bytes",
                                "value": "0x00000000ffffffffffffffffffffffffffffffffffffffffffffffffffffffffffffffff00000000000000000000000000000000000000000000000000000000000000000000000000000000000000000000000000000000000000000000000000000000"
                            },
                            {
                                "name": "replacementPatternSell",
                                "type": "bytes",
                                "value": "0x000000000000000000000000000000000000000000000000000000000000000000000000ffffffffffffffffffffffffffffffffffffffffffffffffffffffffffffffff0000000000000000000000000000000000000000000000000000000000000000"
                            },
                            {
                                "name": "staticExtradataBuy",
                                "type": "bytes",
                                "value": "0x"
                            },
                            {
                                "name": "staticExtradataSell",
                                "type": "bytes",
                                "value": "0x"
                            },
                            {
                                "name": "vs",
                                "type": "uint8[2]",
                                "value": [
                                    "27",
                                    "27"
                                ]
                            },
                            {
                                "name": "rssMetadata",
                                "type": "bytes32[5]",
                                "value": [
                                    "0xfbf6e59e5cd22b37d482e48551d044aa9c3ddb6a854a3928be2663e512ac8993",
                                    "0x7bb4f8234c5fba197c49ad927ab2c07e2406b016422da528963f24cf452b83fd",
                                    "0xfbf6e59e5cd22b37d482e48551d044aa9c3ddb6a854a3928be2663e512ac8993",
                                    "0x7bb4f8234c5fba197c49ad927ab2c07e2406b016422da528963f24cf452b83fd",
                                    "0x0000000000000000000000000000000000000000000000000000000000000000"
                                ]
                            }
                        ],
                        "constructorArguments": "",
                        "name": "atomicMatch_",
                        "returnParams": [],
                        "signature": "atomicMatch_(address[14],uint256[18],uint8[8],bytes,bytes,bytes,bytes,bytes,bytes,uint8[2],bytes32[5])"
                    },
                    "errorInfo": "",
                    "fromAddress": "0xd53becd80d06bac7b16f6c81297879343a9aa6ee",
                    "gasUsed": 189638,
                    "id": 0,
                    "methodDecoded": true,
                    "operation": "CALL",
                    "output": "",
                    "revert": false,
                    "revertMessage": "",
                    "selector": "0xab834bab",
                    "status": true,
                    "value": "0.205"
                },
                "nodeType": 0
            },
            "1": {
                "invocation": {
                    "address": "0x0000000000000000000000000000000000000001",
                    "callData": "0x7f188f1efb57ae655731fbb1ea4f3fbebfe9e3dd9f9129bad929e784000000000000000000000000000000000000000000000000000000000000001bfbf6e59e5cd22b37d482e48551d044aa9c3ddb6a854a3928be2663e512ac89937bb4f8234c5fba197c49ad927ab2c07e2406b016422da528963f24cf452b83fd",
                    "decodedMethod": {
                        "callParams": [
                            {
                                "name": "hash",
                                "type": "bytes32",
                                "value": "0xa47e68437f188f1efb57ae655731fbb1ea4f3fbebfe9e3dd9f9129bad929e784"
                            },
                            {
                                "name": "v",
                                "type": "uint256",
                                "value": "27"
                            },
                            {
                                "name": "r",
                                "type": "bytes32",
                                "value": "0xfbf6e59e5cd22b37d482e48551d044aa9c3ddb6a854a3928be2663e512ac8993"
                            },
                            {
                                "name": "s",
                                "type": "bytes32",
                                "value": "0x7bb4f8234c5fba197c49ad927ab2c07e2406b016422da528963f24cf452b83fd"
                            }
                        ],
                        "constructorArguments": "",
                        "name": "ecrecover",
                        "returnParams": [
                            {
                                "name": "",
                                "type": "address",
                                "value": "0xeea357ce1a449c6e67c86d4d3cd3691b41d68f35"
                            }
                        ],
                        "signature": "ecrecover(bytes32,uint256,bytes32,bytes32)"
                    },
                    "errorInfo": "",
                    "fromAddress": "0x7be8076f4ea4a4ad08075c2508e481d6c946d12b",
                    "gasUsed": 3000,
                    "id": 1,
                    "methodDecoded": true,
                    "operation": "CALL",
                    "output": "0x000000000000000000000000eea357ce1a449c6e67c86d4d3cd3691b41d68f35",
                    "revert": false,
                    "revertMessage": "",
                    "selector": "0xa47e6843",
                    "status": true,
                    "value": "0"
                },
                "nodeType": 0
            },
            "10": {
                "invocation": {
                    "address": "0xbaeec315f9d7f8db2645edfd5633360f152279bc",
                    "callData": "0x000000000000000000000000eea357ce1a449c6e67c86d4d3cd3691b41d68f35000000000000000000000000d53becd80d06bac7b16f6c81297879343a9aa6ee00000000000000000000000000000000000000000000000000000000000011dc00000000000000000000000000000000000000000000000000000000",
                    "decodedMethod": {
                        "callParams": [
                            {
                                "name": "from",
                                "type": "address",
                                "value": "0xeea357ce1a449c6e67c86d4d3cd3691b41d68f35"
                            },
                            {
                                "name": "to",
                                "type": "address",
                                "value": "0xd53becd80d06bac7b16f6c81297879343a9aa6ee"
                            },
                            {
                                "decimalAvailable": true,
                                "name": "tokenId",
                                "type": "uint256",
                                "value": "4,572"
                            }
                        ],
                        "constructorArguments": "",
                        "name": "transferFrom",
                        "returnParams": [],
                        "signature": "transferFrom(address,address,uint256)"
                    },
                    "errorInfo": "",
                    "fromAddress": "0x2ef9668a9ae891169768d4b358b55227f13b94bd",
                    "gasUsed": 44479,
                    "id": 10,
                    "methodDecoded": true,
                    "operation": "CALL",
                    "output": "",
                    "revert": false,
                    "revertMessage": "",
                    "selector": "0x23b872dd",
                    "status": true,
                    "value": "0"
                },
                "nodeType": 0
            },
            "11": {
                "event": {
                    "contract": "0xbaeec315f9d7f8db2645edfd5633360f152279bc",
                    "decodedLog": {
                        "name": "Approval",
                        "params": [
                            {
                                "name": "owner",
                                "type": "address",
                                "value": "0xeea357ce1a449c6e67c86d4d3cd3691b41d68f35"
                            },
                            {
                                "name": "approved",
                                "type": "address",
                                "value": "0x0000000000000000000000000000000000000000"
                            },
                            {
                                "decimalAvailable": true,
                                "name": "tokenId",
                                "type": "uint256",
                                "value": "4,572"
                            }
                        ],
                        "signature": "Approval(address,address,uint256)"
                    },
                    "id": 11,
                    "logData": "0x",
                    "logDecoded": true,
                    "operation": "EVENT",
                    "revert": false,
                    "status": true,
                    "topics": [
                        "0x8c5be1e5ebec7d5bd14f71427d1e84f3dd0314c0f7b2291e5b200ac8c7c3b925",
                        "0x000000000000000000000000eea357ce1a449c6e67c86d4d3cd3691b41d68f35",
                        "0x0000000000000000000000000000000000000000000000000000000000000000",
                        "0x00000000000000000000000000000000000000000000000000000000000011dc"
                    ]
                },
                "nodeType": 1
            },
            "12": {
                "event": {
                    "contract": "0xbaeec315f9d7f8db2645edfd5633360f152279bc",
                    "decodedLog": {
                        "name": "Transfer",
                        "params": [
                            {
                                "name": "from",
                                "type": "address",
                                "value": "0xeea357ce1a449c6e67c86d4d3cd3691b41d68f35"
                            },
                            {
                                "name": "to",
                                "type": "address",
                                "value": "0xd53becd80d06bac7b16f6c81297879343a9aa6ee"
                            },
                            {
                                "decimalAvailable": true,
                                "name": "tokenId",
                                "type": "uint256",
                                "value": "4,572"
                            }
                        ],
                        "signature": "Transfer(address,address,uint256)"
                    },
                    "id": 12,
                    "logData": "0x",
                    "logDecoded": true,
                    "operation": "EVENT",
                    "revert": false,
                    "status": true,
                    "topics": [
                        "0xddf252ad1be2c89b69c2b068fc378daa952ba7f163c4a11628f55a4df523b3ef",
                        "0x000000000000000000000000eea357ce1a449c6e67c86d4d3cd3691b41d68f35",
                        "0x000000000000000000000000d53becd80d06bac7b16f6c81297879343a9aa6ee",
                        "0x00000000000000000000000000000000000000000000000000000000000011dc"
                    ]
                },
                "nodeType": 1
            },
            "13": {
                "event": {
                    "contract": "0x7be8076f4ea4a4ad08075c2508e481d6c946d12b",
                    "decodedLog": {
                        "name": "OrdersMatched",
                        "params": [
                            {
                                "name": "maker",
                                "type": "address",
                                "value": "0xeea357ce1a449c6e67c86d4d3cd3691b41d68f35"
                            },
                            {
                                "name": "taker",
                                "type": "address",
                                "value": "0xd53becd80d06bac7b16f6c81297879343a9aa6ee"
                            },
                            {
                                "name": "metadata",
                                "type": "bytes32",
                                "value": "0x0000000000000000000000000000000000000000000000000000000000000000"
                            },
                            {
                                "name": "buyHash",
                                "type": "bytes32",
                                "value": "0x0000000000000000000000000000000000000000000000000000000000000000"
                            },
                            {
                                "name": "sellHash",
                                "type": "bytes32",
                                "value": "0xa47e68437f188f1efb57ae655731fbb1ea4f3fbebfe9e3dd9f9129bad929e784"
                            },
                            {
                                "name": "price",
                                "type": "uint256",
                                "value": "205,000,000,000,000,000"
                            }
                        ],
                        "signature": "OrdersMatched(bytes32,bytes32,address,address,uint256,bytes32)"
                    },
                    "id": 13,
                    "logData": "0x0000000000000000000000000000000000000000000000000000000000000000a47e68437f188f1efb57ae655731fbb1ea4f3fbebfe9e3dd9f9129bad929e78400000000000000000000000000000000000000000000000002d84e69f2f48000",
                    "logDecoded": true,
                    "operation": "EVENT",
                    "revert": false,
                    "status": true,
                    "topics": [
                        "0xc4109843e0b7d514e4c093114b863f8e7d8d9a458c372cd51bfe526b588006c9",
                        "0x000000000000000000000000eea357ce1a449c6e67c86d4d3cd3691b41d68f35",
                        "0x000000000000000000000000d53becd80d06bac7b16f6c81297879343a9aa6ee",
                        "0x0000000000000000000000000000000000000000000000000000000000000000"
                    ]
                },
                "nodeType": 1
            },
            "2": {
                "invocation": {
                    "address": "0xa5409ec958c83c3f309868babaca7c86dcb077c1",
                    "callData": "0x000000000000000000000000eea357ce1a449c6e67c86d4d3cd3691b41d68f35",
                    "decodedMethod": {
                        "callParams": [
                            {
                                "name": "",
                                "type": "address",
                                "value": "0xeea357ce1a449c6e67c86d4d3cd3691b41d68f35"
                            }
                        ],
                        "constructorArguments": "",
                        "name": "proxies",
                        "returnParams": [
                            {
                                "name": "",
                                "type": "address",
                                "value": "0x2ef9668a9ae891169768d4b358b55227f13b94bd"
                            }
                        ],
                        "signature": "proxies(address)"
                    },
                    "errorInfo": "",
                    "fromAddress": "0x7be8076f4ea4a4ad08075c2508e481d6c946d12b",
                    "gasUsed": 2782,
                    "id": 2,
                    "methodDecoded": true,
                    "operation": "CALL",
                    "output": "0x0000000000000000000000002ef9668a9ae891169768d4b358b55227f13b94bd",
                    "revert": false,
                    "revertMessage": "",
                    "selector": "0xc4552791",
                    "status": true,
                    "value": "0"
                },
                "nodeType": 0
            },
            "3": {
                "invocation": {
                    "address": "0xa5409ec958c83c3f309868babaca7c86dcb077c1",
                    "callData": "0x",
                    "decodedMethod": {
                        "callParams": [],
                        "constructorArguments": "",
                        "name": "delegateProxyImplementation",
                        "returnParams": [
                            {
                                "name": "",
                                "type": "address",
                                "value": "0xf9e266af4bca5890e2781812cc6a6e89495a79f2"
                            }
                        ],
                        "signature": "delegateProxyImplementation()"
                    },
                    "errorInfo": "",
                    "fromAddress": "0x7be8076f4ea4a4ad08075c2508e481d6c946d12b",
                    "gasUsed": 2613,
                    "id": 3,
                    "methodDecoded": true,
                    "operation": "CALL",
                    "output": "0x000000000000000000000000f9e266af4bca5890e2781812cc6a6e89495a79f2",
                    "revert": false,
                    "revertMessage": "",
                    "selector": "0x97204d8e",
                    "status": true,
                    "value": "0"
                },
                "nodeType": 0
            },
            "4": {
                "invocation": {
                    "address": "0x2ef9668a9ae891169768d4b358b55227f13b94bd",
                    "callData": "0x",
                    "decodedMethod": {
                        "callParams": [],
                        "constructorArguments": "",
                        "name": "implementation",
                        "returnParams": [
                            {
                                "name": "",
                                "type": "address",
                                "value": "0xf9e266af4bca5890e2781812cc6a6e89495a79f2"
                            }
                        ],
                        "signature": "implementation()"
                    },
                    "errorInfo": "",
                    "fromAddress": "0x7be8076f4ea4a4ad08075c2508e481d6c946d12b",
                    "gasUsed": 2525,
                    "id": 4,
                    "methodDecoded": true,
                    "operation": "CALL",
                    "output": "0x000000000000000000000000f9e266af4bca5890e2781812cc6a6e89495a79f2",
                    "revert": false,
                    "revertMessage": "",
                    "selector": "0x5c60da1b",
                    "status": true,
                    "value": "0"
                },
                "nodeType": 0
            },
            "5": {
                "invocation": {
                    "address": "0x5b3256965e7c3cf26e11fcaf296dfc8807c01073",
                    "callData": "0x",
                    "decodedMethod": null,
                    "errorInfo": "",
                    "fromAddress": "0x7be8076f4ea4a4ad08075c2508e481d6c946d12b",
                    "gasUsed": 0,
                    "id": 5,
                    "methodDecoded": false,
                    "operation": "CALL",
                    "output": "",
                    "revert": false,
                    "revertMessage": "",
                    "selector": "fallback",
                    "status": true,
                    "value": "0.015375"
                },
                "nodeType": 0
            },
            "6": {
                "invocation": {
                    "address": "0xeea357ce1a449c6e67c86d4d3cd3691b41d68f35",
                    "callData": "0x",
                    "decodedMethod": null,
                    "errorInfo": "",
                    "fromAddress": "0x7be8076f4ea4a4ad08075c2508e481d6c946d12b",
                    "gasUsed": 0,
                    "id": 6,
                    "methodDecoded": false,
                    "operation": "CALL",
                    "output": "",
                    "revert": false,
                    "revertMessage": "",
                    "selector": "fallback",
                    "status": true,
                    "value": "0.189625"
                },
                "nodeType": 0
            },
            "7": {
                "invocation": {
                    "address": "0x2ef9668a9ae891169768d4b358b55227f13b94bd",
                    "callData": "0x000000000000000000000000baeec315f9d7f8db2645edfd5633360f152279bc00000000000000000000000000000000000000000000000000000000000000000000000000000000000000000000000000000000000000000000000000000060000000000000000000000000000000000000000000000000000000000000006423b872dd000000000000000000000000eea357ce1a449c6e67c86d4d3cd3691b41d68f35000000000000000000000000d53becd80d06bac7b16f6c81297879343a9aa6ee00000000000000000000000000000000000000000000000000000000000011dc00000000000000000000000000000000000000000000000000000000",
                    "decodedMethod": {
                        "callParams": [
                            {
                                "name": "dest",
                                "type": "address",
                                "value": "0xbaeec315f9d7f8db2645edfd5633360f152279bc"
                            },
                            {
                                "name": "howToCall",
                                "type": "uint8",
                                "value": "0"
                            },
                            {
                                "name": "calldata",
                                "type": "bytes",
                                "value": "0x23b872dd000000000000000000000000eea357ce1a449c6e67c86d4d3cd3691b41d68f35000000000000000000000000d53becd80d06bac7b16f6c81297879343a9aa6ee00000000000000000000000000000000000000000000000000000000000011dc"
                            }
                        ],
                        "constructorArguments": "",
                        "name": "proxy",
                        "returnParams": [
                            {
                                "name": "result",
                                "type": "bool",
                                "value": true
                            }
                        ],
                        "signature": "proxy(address,uint8,bytes)"
                    },
                    "errorInfo": "",
                    "fromAddress": "0x7be8076f4ea4a4ad08075c2508e481d6c946d12b",
                    "gasUsed": 56636,
                    "id": 7,
                    "methodDecoded": true,
                    "operation": "CALL",
                    "output": "0x0000000000000000000000000000000000000000000000000000000000000001",
                    "revert": false,
                    "revertMessage": "",
                    "selector": "0x1b0f7ba9",
                    "status": true,
                    "value": "0"
                },
                "nodeType": 0
            },
            "8": {
                "invocation": {
                    "address": "0xf9e266af4bca5890e2781812cc6a6e89495a79f2",
                    "callData": "0x000000000000000000000000baeec315f9d7f8db2645edfd5633360f152279bc00000000000000000000000000000000000000000000000000000000000000000000000000000000000000000000000000000000000000000000000000000060000000000000000000000000000000000000000000000000000000000000006423b872dd000000000000000000000000eea357ce1a449c6e67c86d4d3cd3691b41d68f35000000000000000000000000d53becd80d06bac7b16f6c81297879343a9aa6ee00000000000000000000000000000000000000000000000000000000000011dc00000000000000000000000000000000000000000000000000000000",
                    "decodedMethod": {
                        "callParams": [
                            {
                                "name": "dest",
                                "type": "address",
                                "value": "0xbaeec315f9d7f8db2645edfd5633360f152279bc"
                            },
                            {
                                "name": "howToCall",
                                "type": "uint8",
                                "value": "0"
                            },
                            {
                                "name": "calldata",
                                "type": "bytes",
                                "value": "0x23b872dd000000000000000000000000eea357ce1a449c6e67c86d4d3cd3691b41d68f35000000000000000000000000d53becd80d06bac7b16f6c81297879343a9aa6ee00000000000000000000000000000000000000000000000000000000000011dc"
                            }
                        ],
                        "constructorArguments": "",
                        "name": "proxy",
                        "returnParams": [
                            {
                                "name": "result",
                                "type": "bool",
                                "value": true
                            }
                        ],
                        "signature": "proxy(address,uint8,bytes)"
                    },
                    "errorInfo": "",
                    "fromAddress": "0x2ef9668a9ae891169768d4b358b55227f13b94bd",
                    "gasUsed": 53376,
                    "id": 8,
                    "methodDecoded": true,
                    "operation": "DELEGATECALL",
                    "output": "0x0000000000000000000000000000000000000000000000000000000000000001",
                    "revert": false,
                    "revertMessage": "",
                    "selector": "0x1b0f7ba9",
                    "status": true,
                    "value": "0"
                },
                "nodeType": 0
            },
            "9": {
                "invocation": {
                    "address": "0xa5409ec958c83c3f309868babaca7c86dcb077c1",
                    "callData": "0x0000000000000000000000007be8076f4ea4a4ad08075c2508e481d6c946d12b",
                    "decodedMethod": {
                        "callParams": [
                            {
                                "name": "",
                                "type": "address",
                                "value": "0x7be8076f4ea4a4ad08075c2508e481d6c946d12b"
                            }
                        ],
                        "constructorArguments": "",
                        "name": "contracts",
                        "returnParams": [
                            {
                                "name": "",
                                "type": "bool",
                                "value": true
                            }
                        ],
                        "signature": "contracts(address)"
                    },
                    "errorInfo": "",
                    "fromAddress": "0x2ef9668a9ae891169768d4b358b55227f13b94bd",
                    "gasUsed": 2553,
                    "id": 9,
                    "methodDecoded": true,
                    "operation": "CALL",
                    "output": "0x0000000000000000000000000000000000000000000000000000000000000001",
                    "revert": false,
                    "revertMessage": "",
                    "selector": "0x69dc9ff3",
                    "status": true,
                    "value": "0"
                },
                "nodeType": 0
            }
        },
        "gasFlame": [
            {
                "children": [
                    {
                        "children": [
                            {
                                "children": [],
                                "depth": 0,
                                "name": "Initial Gas",
                                "value": 36880
                            },
                            {
                                "children": [
                                    {
                                        "children": [],
                                        "depth": 1,
                                        "name": "ecrecover",
                                        "value": 3000
                                    },
                                    {
                                        "children": [],
                                        "depth": 1,
                                        "name": "proxies",
                                        "value": 2782
                                    },
                                    {
                                        "children": [],
                                        "depth": 1,
                                        "name": "delegateProxyImplementation",
                                        "value": 2613
                                    },
                                    {
                                        "children": [],
                                        "depth": 1,
                                        "name": "implementation",
                                        "value": 2525
                                    },
                                    {
                                        "children": [],
                                        "depth": 1,
                                        "name": "fallback",
                                        "value": 0
                                    },
                                    {
                                        "children": [],
                                        "depth": 1,
                                        "name": "fallback",
                                        "value": 0
                                    },
                                    {
                                        "children": [
                                            {
                                                "children": [
                                                    {
                                                        "children": [],
                                                        "depth": 3,
                                                        "name": "contracts",
                                                        "value": 2553
                                                    },
                                                    {
                                                        "children": [],
                                                        "depth": 3,
                                                        "name": "transferFrom",
                                                        "value": 44479
                                                    }
                                                ],
                                                "depth": 2,
                                                "name": "proxy",
                                                "value": 53376
                                            }
                                        ],
                                        "depth": 1,
                                        "name": "proxy",
                                        "value": 56636
                                    }
                                ],
                                "depth": 0,
                                "name": "Executed Gas",
                                "value": 160358
                            }
                        ],
                        "depth": -1,
                        "name": "Actual Gas Used",
                        "value": 189638
                    },
                    {
                        "children": [],
                        "depth": -1,
                        "name": "Refunded Gas",
                        "value": 7600
                    }
                ],
                "depth": -2,
                "name": "Total Gas",
                "value": 197238
            }
        ],
        "isConfirmed": true,
        "mainTrace": [
            {
                "children": [
                    {
                        "children": [
                            {
                                "children": [],
                                "depth": 1,
                                "id": 1,
                                "order": 1
                            },
                            {
                                "children": [],
                                "depth": 1,
                                "id": 2,
                                "order": 2
                            },
                            {
                                "children": [],
                                "depth": 1,
                                "id": 3,
                                "order": 3
                            },
                            {
                                "children": [],
                                "depth": 1,
                                "id": 4,
                                "order": 4
                            },
                            {
                                "children": [],
                                "depth": 1,
                                "id": 5,
                                "order": 5
                            },
                            {
                                "children": [],
                                "depth": 1,
                                "id": 6,
                                "order": 6
                            },
                            {
                                "children": [
                                    {
                                        "children": [
                                            {
                                                "children": [],
                                                "depth": 3,
                                                "id": 9,
                                                "order": 9
                                            },
                                            {
                                                "children": [
                                                    {
                                                        "children": [],
                                                        "depth": 4,
                                                        "id": 11,
                                                        "order": 11
                                                    },
                                                    {
                                                        "children": [],
                                                        "depth": 4,
                                                        "id": 12,
                                                        "order": 12
                                                    }
                                                ],
                                                "depth": 3,
                                                "id": 10,
                                                "order": 10
                                            }
                                        ],
                                        "depth": 2,
                                        "id": 8,
                                        "order": 8
                                    }
                                ],
                                "depth": 1,
                                "id": 7,
                                "order": 7
                            },
                            {
                                "children": [],
                                "depth": 1,
                                "id": 13,
                                "order": 13
                            }
                        ],
                        "depth": 0,
                        "id": 0,
                        "order": 0
                    }
                ],
                "depth": -1,
                "id": -1,
                "order": -1
            }
        ],
        "mainTraceNodeCount": 14,
        "parentIdMap": {
            "0": -1,
            "1": 0,
            "10": 8,
            "11": 10,
            "12": 10,
            "13": 0,
            "2": 0,
            "3": 0,
            "4": 0,
            "5": 0,
            "6": 0,
            "7": 0,
            "8": 7,
            "9": 8
        },
        "tidyTrace": [
            {
                "children": [
                    {
                        "children": [
                            {
                                "children": [],
                                "depth": 1,
                                "id": 1,
                                "order": 1
                            },
                            {
                                "children": [],
                                "depth": 1,
                                "id": 2,
                                "order": 2
                            },
                            {
                                "children": [],
                                "depth": 1,
                                "id": 3,
                                "order": 3
                            },
                            {
                                "children": [],
                                "depth": 1,
                                "id": 4,
                                "order": 4
                            },
                            {
                                "children": [],
                                "depth": 1,
                                "id": 5,
                                "order": 5
                            },
                            {
                                "children": [],
                                "depth": 1,
                                "id": 6,
                                "order": 6
                            },
                            {
                                "children": [
                                    {
                                        "children": [
                                            {
                                                "children": [],
                                                "depth": 3,
                                                "id": 9,
                                                "order": 9
                                            },
                                            {
                                                "children": [
                                                    {
                                                        "children": [],
                                                        "depth": 4,
                                                        "id": 11,
                                                        "order": 11
                                                    },
                                                    {
                                                        "children": [],
                                                        "depth": 4,
                                                        "id": 12,
                                                        "order": 12
                                                    }
                                                ],
                                                "depth": 3,
                                                "id": 10,
                                                "order": 10
                                            }
                                        ],
                                        "depth": 2,
                                        "id": 8,
                                        "order": 8
                                    }
                                ],
                                "depth": 1,
                                "id": 7,
                                "order": 7
                            },
                            {
                                "children": [],
                                "depth": 1,
                                "id": 13,
                                "order": 13
                            }
                        ],
                        "depth": 0,
                        "id": 0,
                        "order": 0
                    }
                ],
                "depth": -1,
                "id": -1,
                "order": -1
            }
        ],
        "tidyTraceNodeCount": 14
    },
    "state_change": {
        "stateChanges": [
            {
                "address": "0x7be8076f4ea4a4ad08075c2508e481d6c946d12b",
                "erc": "",
                "slots": [
                    {
                        "current": "0x0000000000000000000000000000000000000000000000000000000000000001",
                        "key": "0x446504da50401618189d8460c50915c863201d0515891b570fbd66a5309c4c53",
                        "prev": "0x0000000000000000000000000000000000000000000000000000000000000000"
                    }
                ],
                "storageVariables": [
                    {
                        "name": "cancelledOrFinalized",
                        "type": "mapping(bytes32 => bool)",
                        "value": {
                            "pairs": [
                                {
                                    "key": "0xa47e68437f188f1efb57ae655731fbb1ea4f3fbebfe9e3dd9f9129bad929e784",
                                    "value": {
                                        "current": "true",
                                        "prev": "false",
                                        "typeTag": 1
                                    }
                                }
                            ],
                            "typeTag": 4
                        }
                    }
                ]
            },
            {
                "address": "0xbaeec315f9d7f8db2645edfd5633360f152279bc",
                "erc": "ERC-721",
                "slots": [
                    {
                        "current": "0x000000000000000000000000d53becd80d06bac7b16f6c81297879343a9aa6ee",
                        "key": "0x4c26e806ae0aa580c1e750e0617012e5bb2b37872a141bb271a55c874f783e44",
                        "prev": "0x000000000000000000000000eea357ce1a449c6e67c86d4d3cd3691b41d68f35"
                    },
                    {
                        "current": "0x0000000000000000000000000000000000000000000000000000000000000000",
                        "key": "0x1c50743860b7886e4f2547608897604938615eeb357b9ac47ed27e17fcdb74b7",
                        "prev": "0x0000000000000000000000000000000000000000000000000000000000000001"
                    },
                    {
                        "current": "0x0000000000000000000000000000000000000000000000000000000000000001",
                        "key": "0xfdb6f47b5e476a38fb56c3c3b2414a58ca2d9935d35027878713da3750cf8955",
                        "prev": "0x0000000000000000000000000000000000000000000000000000000000000000"
                    }
                ],
                "storageVariables": [
                    {
                        "name": "_owners",
                        "type": "mapping(uint256 => address)",
                        "value": {
                            "pairs": [
                                {
                                    "key": "4572",
                                    "value": {
                                        "current": "0xd53becd80d06bac7b16f6c81297879343a9aa6ee",
                                        "prev": "0xeea357ce1a449c6e67c86d4d3cd3691b41d68f35",
                                        "typeTag": 1
                                    }
                                }
                            ],
                            "typeTag": 4
                        }
                    },
                    {
                        "name": "_balances",
                        "type": "mapping(address => uint256)",
                        "value": {
                            "pairs": [
                                {
                                    "key": "0xd53becd80d06bac7b16f6c81297879343a9aa6ee",
                                    "value": {
                                        "current": "1",
                                        "prev": "0",
                                        "typeTag": 1
                                    }
                                },
                                {
                                    "key": "0xeea357ce1a449c6e67c86d4d3cd3691b41d68f35",
                                    "value": {
                                        "current": "0",
                                        "prev": "1",
                                        "typeTag": 1
                                    }
                                }
                            ],
                            "typeTag": 4
                        }
                    }
                ]
            }
        ]
    }
}