{
    "balance_change": {
        "balanceChanges": [
            {
                "account": "0x0000000000000000000000000000000000000000",
                "assets": [
                    {
                        "address": "0x54fec6309b53a31e65593f196b4c58f7a704a361",
                        "amount": "1",
                        "iconUrl": "https://assets.blocksec.com/nft/icon/nft_3d04392b-87b0-4d3d-a7cb-abb1622d82cf.png",
                        "isERC1155": false,
                        "isERC721": true,
                        "sign": false,
                        "tokenID": "3337",
                        "value": ""
                    }
                ]
            },
            {
                "account": "0x54fec6309b53a31e65593f196b4c58f7a704a361",
                "assets": [
                    {
                        "address": "0x54fec6309b53a31e65593f196b4c58f7a704a361",
                        "amount": "1",
                        "iconUrl": "https://assets.blocksec.com/nft/icon/nft_3d04392b-87b0-4d3d-a7cb-abb1622d82cf.png",
                        "isERC1155": false,
                        "isERC721": true,
                        "sign": true,
                        "tokenID": "3337",
                        "value": ""
                    }
                ]
            }
        ]
    },
    "profile": {
        "basic_info": {
            "baseFee": "11.235431974",
            "blockNumber": 16095720,
            "callData": "0xfa07ce1d0000000000000000000000004839a9410e351a9312d95a01c1b47dd02a627e9e",
            "debugEnable": true,
            "errorInfo": "",
            "eventCount": 1,
            "feeRecipient": "0x388c818ca8b9251b393131c08a736a67ccb19297",
            "formatValue": "0",
            "gasLimit": 329244,
            "gasPrice": "12.735431974",
            "gasUsed": 329244,
            "intTxnCount": 16,
            "internalRevert": false,
            "internalRevertMessage": "",
            "isContractCreation": false,
            "isFlashloan": false,
            "maxFee": "15.692085524",
            "nonce": 241,
            "overwritedBlockNumber": -1,
            "priorityFee": "1.5",
            "receiver": "0x54fec6309b53a31e65593f196b4c58f7a704a361",
            "revertMessage": "",
            "sender": "0x4839a9410e351a9312d95a01c1b47dd02a627e9e",
            "simulationEnable": true,
            "sourceTxnHash": "0x1f838856c03a59821a566a7e06e5ef17d1bb7a203c36c00250053044f2485c55",
            "status": true,
            "timestamp": "2022-12-02T07:46:47Z",
            "transactionFee": "0.004193064564847656",
            "txnHash": "0x1f838856c03a59821a566a7e06e5ef17d1bb7a203c36c00250053044f2485c55",
            "txnIndex": 91,
            "type": 2,
            "value": "0"
        },
        "fund_flow": [
            {
                "amount": "1",
                "from": "0x0000000000000000000000000000000000000000",
                "id": 1,
                "isERC1155": false,
                "isERC721": true,
                "isReverted": false,
                "order": 1,
                "to": "0x54fec6309b53a31e65593f196b4c58f7a704a361",
                "token": "0x54fec6309b53a31e65593f196b4c58f7a704a361",
                "tokenID": "3337"
            }
        ],
        "token_infos": [
            {
                "address": "0xc02aaa39b223fe8d0a0e5c4f27ead9083c756cc2",
                "decimals": 18
            },
            {
                "address": "0xeeeeeeeeeeeeeeeeeeeeeeeeeeeeeeeeeeeeeeee",
                "decimals": 18
            }
        ]
    },
    "address_label": {
        "labels": [
            {
                "address": "0x0000000000000000000000000000000000000002",
                "label": "Precompiled"
            },
            {
                "address": "0x0000000000000000000000000000000000000003",
                "label": "Precompiled"
            },
            {
                "address": "0x70c7af7a78b5453e4a09376eb2b506ce4e4140e5",
                "label": "Staking"
            },
            {
                "address": "0x12787526c03d626aac88e6edc4d0fb930d86c631",
                "label": "Supreme Kong: SPK Token"
            },
            {
                "address": "0x0000000000000000000000000000000000000000",
                "label": "Null Address"
            },
            {
                "address": "0x388c818ca8b9251b393131c08a736a67ccb19297",
                "label": "LidoExecutionLayerRewardsVault"
            },
            {
                "address": "0xf59afe732b2793d541780fd02945228db1fad8ed",
                "label": "Banana"
            },
            {
                "address": "0x0000000000000000000000000000000000000001",
                "label": "Precompiled"
            },
            {
                "address": "0x0000000000000000000000000000000000000004",
                "label": "Precompiled"
            },
            {
                "address": "0xeeeeeeeeeeeeeeeeeeeeeeeeeeeeeeeeeeeeeeee",
                "label": "Ether"
            },
            {
                "address": "0x54fec6309b53a31e65593f196b4c58f7a704a361",
                "label": "Supreme Kong 2 (SPK2)"
            },
            {
                "address": "0x8ace1ec951bc29b98440d1bbca64e6010c9e9e17",
                "label": "MutantBanana"
            }
        ]
    },
    "trace": {
        "accountLabels": null,
        "dataMap": {
            "-1": {
                "invocation": {
                    "address": "0x4839a9410e351a9312d95a01c1b47dd02a627e9e",
                    "callData": "",
                    "decodedMethod": null,
                    "errorInfo": "",
                    "fromAddress": "",
                    "gasUsed": 0,
                    "id": -1,
                    "methodDecoded": false,
                    "operation": "",
                    "output": "",
                    "revert": false,
                    "revertMessage": "",
                    "selector": "",
                    "status": false,
                    "value": ""
                },
                "nodeType": 0
            },
            "0": {
                "invocation": {
                    "address": "0x54fec6309b53a31e65593f196b4c58f7a704a361",
                    "callData": "0x0000000000000000000000004839a9410e351a9312d95a01c1b47dd02a627e9e",
                    "decodedMethod": {
                        "callParams": [
                            {
                                "name": "to",
                                "type": "address",
                                "value": "0x4839a9410e351a9312d95a01c1b47dd02a627e9e"
                            }
                        ],
                        "constructorArguments": "",
                        "name": "freeMint",
                        "returnParams": [],
                        "signature": "freeMint(address)"
                    },
                    "errorInfo": "",
                    "fromAddress": "0x4839a9410e351a9312d95a01c1b47dd02a627e9e",
                    "gasUsed": 329244,
                    "id": 0,
                    "methodDecoded": true,
                    "operation": "CALL",
                    "output": "",
                    "revert": false,
                    "revertMessage": "",
                    "selector": "0xfa07ce1d",
                    "status": true,
                    "value": "0"
                },
                "nodeType": 0
            },
            "1": {
                "invocation": {
                    "address": "0x70c7af7a78b5453e4a09376eb2b506ce4e4140e5",
                    "callData": "0x0000000000000000000000004839a9410e351a9312d95a01c1b47dd02a627e9e0000000000000000000000000000000000000000000000000000000000000000",
                    "decodedMethod": {
                        "callParams": [
                            {
                                "name": "_owner",
                                "type": "address",
                                "value": "0x4839a9410e351a9312d95a01c1b47dd02a627e9e"
                            },
                            {
                                "name": "_poolId",
                                "type": "uint256",
                                "value": "0"
                            }
                        ],
                        "constructorArguments": "",
                        "name": "stakedNfts",
                        "returnParams": [
                            {
                                "name": "",
                                "type": "uint256[]",
                                "value": [
                                    "1,963"
                                ]
                            }
                        ],
                        "signature": "stakedNfts(address,uint256)"
                    },
                    "errorInfo": "",
                    "fromAddress": "0x54fec6309b53a31e65593f196b4c58f7a704a361",
                    "gasUsed": 8472,
                    "id": 1,
                    "methodDecoded": true,
                    "operation": "STATICCALL",
                    "output": "0x0000000000000000000000000000000000000000000000000000000000000020000000000000000000000000000000000000000000000000000000000000000100000000000000000000000000000000000000000000000000000000000007ab",
                    "revert": false,
                    "revertMessage": "",
                    "selector": "0x94b6e751",
                    "status": true,
                    "value": "0"
                },
                "nodeType": 0
            },
            "10": {
                "invocation": {
                    "address": "0x12787526c03d626aac88e6edc4d0fb930d86c631",
                    "callData": "0x0000000000000000000000004839a9410e351a9312d95a01c1b47dd02a627e9e",
                    "decodedMethod": {
                        "callParams": [
                            {
                                "name": "owner",
                                "type": "address",
                                "value": "0x4839a9410e351a9312d95a01c1b47dd02a627e9e"
                            }
                        ],
                        "constructorArguments": "",
                        "name": "balanceOf",
                        "returnParams": [
                            {
                                "decimalAvailable": true,
                                "name": "",
                                "type": "uint256",
                                "value": "0"
                            }
                        ],
                        "signature": "balanceOf(address)"
                    },
                    "errorInfo": "",
                    "fromAddress": "0x54fec6309b53a31e65593f196b4c58f7a704a361",
                    "gasUsed": 701,
                    "id": 10,
                    "methodDecoded": true,
                    "operation": "STATICCALL",
                    "output": "0x0000000000000000000000000000000000000000000000000000000000000000",
                    "revert": false,
                    "revertMessage": "",
                    "selector": "0x70a08231",
                    "status": true,
                    "value": "0"
                },
                "nodeType": 0
            },
            "11": {
                "invocation": {
                    "address": "0x12787526c03d626aac88e6edc4d0fb930d86c631",
                    "callData": "0x0000000000000000000000004839a9410e351a9312d95a01c1b47dd02a627e9e",
                    "decodedMethod": {
                        "callParams": [
                            {
                                "name": "owner",
                                "type": "address",
                                "value": "0x4839a9410e351a9312d95a01c1b47dd02a627e9e"
                            }
                        ],
                        "constructorArguments": "",
                        "name": "balanceOf",
                        "returnParams": [
                            {
                                "decimalAvailable": true,
                                "name": "",
                                "type": "uint256",
                                "value": "0"
                            }
                        ],
                        "signature": "balanceOf(address)"
                    },
                    "errorInfo": "",
                    "fromAddress": "0x54fec6309b53a31e65593f196b4c58f7a704a361",
                    "gasUsed": 701,
                    "id": 11,
                    "methodDecoded": true,
                    "operation": "STATICCALL",
                    "output": "0x0000000000000000000000000000000000000000000000000000000000000000",
                    "revert": false,
                    "revertMessage": "",
                    "selector": "0x70a08231",
                    "status": true,
                    "value": "0"
                },
                "nodeType": 0
            },
            "12": {
                "invocation": {
                    "address": "0xf59afe732b2793d541780fd02945228db1fad8ed",
                    "callData": "0x0000000000000000000000004839a9410e351a9312d95a01c1b47dd02a627e9e",
                    "decodedMethod": {
                        "callParams": [
                            {
                                "name": "owner",
                                "type": "address",
                                "value": "0x4839a9410e351a9312d95a01c1b47dd02a627e9e"
                            }
                        ],
                        "constructorArguments": "",
                        "name": "balanceOf",
                        "returnParams": [
                            {
                                "decimalAvailable": true,
                                "name": "",
                                "type": "uint256",
                                "value": "0"
                            }
                        ],
                        "signature": "balanceOf(address)"
                    },
                    "errorInfo": "",
                    "fromAddress": "0x54fec6309b53a31e65593f196b4c58f7a704a361",
                    "gasUsed": 698,
                    "id": 12,
                    "methodDecoded": true,
                    "operation": "STATICCALL",
                    "output": "0x0000000000000000000000000000000000000000000000000000000000000000",
                    "revert": false,
                    "revertMessage": "",
                    "selector": "0x70a08231",
                    "status": true,
                    "value": "0"
                },
                "nodeType": 0
            },
            "13": {
                "invocation": {
                    "address": "0xf59afe732b2793d541780fd02945228db1fad8ed",
                    "callData": "0x0000000000000000000000004839a9410e351a9312d95a01c1b47dd02a627e9e",
                    "decodedMethod": {
                        "callParams": [
                            {
                                "name": "owner",
                                "type": "address",
                                "value": "0x4839a9410e351a9312d95a01c1b47dd02a627e9e"
                            }
                        ],
                        "constructorArguments": "",
                        "name": "balanceOf",
                        "returnParams": [
                            {
                                "decimalAvailable": true,
                                "name": "",
                                "type": "uint256",
                                "value": "0"
                            }
                        ],
                        "signature": "balanceOf(address)"
                    },
                    "errorInfo": "",
                    "fromAddress": "0x54fec6309b53a31e65593f196b4c58f7a704a361",
                    "gasUsed": 698,
                    "id": 13,
                    "methodDecoded": true,
                    "operation": "STATICCALL",
                    "output": "0x0000000000000000000000000000000000000000000000000000000000000000",
                    "revert": false,
                    "revertMessage": "",
                    "selector": "0x70a08231",
                    "status": true,
                    "value": "0"
                },
                "nodeType": 0
            },
            "14": {
                "invocation": {
                    "address": "0x8ace1ec951bc29b98440d1bbca64e6010c9e9e17",
                    "callData": "0x0000000000000000000000004839a9410e351a9312d95a01c1b47dd02a627e9e",
                    "decodedMethod": {
                        "callParams": [
                            {
                                "name": "owner",
                                "type": "address",
                                "value": "0x4839a9410e351a9312d95a01c1b47dd02a627e9e"
                            }
                        ],
                        "constructorArguments": "",
                        "name": "balanceOf",
                        "returnParams": [
                            {
                                "decimalAvailable": true,
                                "name": "",
                                "type": "uint256",
                                "value": "0"
                            }
                        ],
                        "signature": "balanceOf(address)"
                    },
                    "errorInfo": "",
                    "fromAddress": "0x54fec6309b53a31e65593f196b4c58f7a704a361",
                    "gasUsed": 647,
                    "id": 14,
                    "methodDecoded": true,
                    "operation": "STATICCALL",
                    "output": "0x0000000000000000000000000000000000000000000000000000000000000000",
                    "revert": false,
                    "revertMessage": "",
                    "selector": "0x70a08231",
                    "status": true,
                    "value": "0"
                },
                "nodeType": 0
            },
            "15": {
                "invocation": {
                    "address": "0x8ace1ec951bc29b98440d1bbca64e6010c9e9e17",
                    "callData": "0x0000000000000000000000004839a9410e351a9312d95a01c1b47dd02a627e9e",
                    "decodedMethod": {
                        "callParams": [
                            {
                                "name": "owner",
                                "type": "address",
                                "value": "0x4839a9410e351a9312d95a01c1b47dd02a627e9e"
                            }
                        ],
                        "constructorArguments": "",
                        "name": "balanceOf",
                        "returnParams": [
                            {
                                "decimalAvailable": true,
                                "name": "",
                                "type": "uint256",
                                "value": "0"
                            }
                        ],
                        "signature": "balanceOf(address)"
                    },
                    "errorInfo": "",
                    "fromAddress": "0x54fec6309b53a31e65593f196b4c58f7a704a361",
                    "gasUsed": 647,
                    "id": 15,
                    "methodDecoded": true,
                    "operation": "STATICCALL",
                    "output": "0x0000000000000000000000000000000000000000000000000000000000000000",
                    "revert": false,
                    "revertMessage": "",
                    "selector": "0x70a08231",
                    "status": true,
                    "value": "0"
                },
                "nodeType": 0
            },
            "16": {
                "event": {
                    "contract": "0x54fec6309b53a31e65593f196b4c58f7a704a361",
                    "decodedLog": {
                        "name": "Transfer",
                        "params": [
                            {
                                "name": "from",
                                "type": "address",
                                "value": "0x0000000000000000000000000000000000000000"
                            },
                            {
                                "name": "to",
                                "type": "address",
                                "value": "0x54fec6309b53a31e65593f196b4c58f7a704a361"
                            },
                            {
                                "decimalAvailable": true,
                                "name": "tokenId",
                                "type": "uint256",
                                "value": "3,337"
                            }
                        ],
                        "signature": "Transfer(address,address,uint256)"
                    },
                    "id": 16,
                    "logData": "0x",
                    "logDecoded": true,
                    "operation": "EVENT",
                    "revert": false,
                    "status": true,
                    "topics": [
                        "0xddf252ad1be2c89b69c2b068fc378daa952ba7f163c4a11628f55a4df523b3ef",
                        "0x0000000000000000000000000000000000000000000000000000000000000000",
                        "0x00000000000000000000000054fec6309b53a31e65593f196b4c58f7a704a361",
                        "0x0000000000000000000000000000000000000000000000000000000000000d09"
                    ]
                },
                "nodeType": 1
            },
            "17": {
                "invocation": {
                    "address": "0x54fec6309b53a31e65593f196b4c58f7a704a361",
                    "callData": "0x0000000000000000000000004839a9410e351a9312d95a01c1b47dd02a627e9e00000000000000000000000000000000000000000000000000000000000000000000000000000000000000000000000000000000000000000000000000000d0900000000000000000000000000000000000000000000000000000000000000800000000000000000000000000000000000000000000000000000000000000000",
                    "decodedMethod": {
                        "callParams": [
                            {
                                "name": "",
                                "type": "address",
                                "value": "0x4839a9410e351a9312d95a01c1b47dd02a627e9e"
                            },
                            {
                                "name": "",
                                "type": "address",
                                "value": "0x0000000000000000000000000000000000000000"
                            },
                            {
                                "name": "",
                                "type": "uint256",
                                "value": "3,337"
                            },
                            {
                                "name": "",
                                "type": "bytes",
                                "value": "0x"
                            }
                        ],
                        "constructorArguments": "",
                        "name": "onERC721Received",
                        "returnParams": [
                            {
                                "name": "",
                                "type": "bytes4",
                                "value": "0x150b7a02"
                            }
                        ],
                        "signature": "onERC721Received(address,address,uint256,bytes)"
                    },
                    "errorInfo": "",
                    "fromAddress": "0x54fec6309b53a31e65593f196b4c58f7a704a361",
                    "gasUsed": 1088,
                    "id": 17,
                    "methodDecoded": true,
                    "operation": "CALL",
                    "output": "0x150b7a0200000000000000000000000000000000000000000000000000000000",
                    "revert": false,
                    "revertMessage": "",
                    "selector": "0x150b7a02",
                    "status": true,
                    "value": "0"
                },
                "nodeType": 0
            },
            "2": {
                "invocation": {
                    "address": "0x70c7af7a78b5453e4a09376eb2b506ce4e4140e5",
                    "callData": "0x0000000000000000000000004839a9410e351a9312d95a01c1b47dd02a627e9e0000000000000000000000000000000000000000000000000000000000000001",
                    "decodedMethod": {
                        "callParams": [
                            {
                                "name": "_owner",
                                "type": "address",
                                "value": "0x4839a9410e351a9312d95a01c1b47dd02a627e9e"
                            },
                            {
                                "name": "_poolId",
                                "type": "uint256",
                                "value": "1"
                            }
                        ],
                        "constructorArguments": "",
                        "name": "stakedNfts",
                        "returnParams": [
                            {
                                "name": "",
                                "type": "uint256[]",
                                "value": [
                                    "1,937",
                                    "2,054"
                                ]
                            }
                        ],
                        "signature": "stakedNfts(address,uint256)"
                    },
                    "errorInfo": "",
                    "fromAddress": "0x54fec6309b53a31e65593f196b4c58f7a704a361",
                    "gasUsed": 9464,
                    "id": 2,
                    "methodDecoded": true,
                    "operation": "STATICCALL",
                    "output": "0x0000000000000000000000000000000000000000000000000000000000000020000000000000000000000000000000000000000000000000000000000000000200000000000000000000000000000000000000000000000000000000000007910000000000000000000000000000000000000000000000000000000000000806",
                    "revert": false,
                    "revertMessage": "",
                    "selector": "0x94b6e751",
                    "status": true,
                    "value": "0"
                },
                "nodeType": 0
            },
            "3": {
                "invocation": {
                    "address": "0x70c7af7a78b5453e4a09376eb2b506ce4e4140e5",
                    "callData": "0x0000000000000000000000004839a9410e351a9312d95a01c1b47dd02a627e9e0000000000000000000000000000000000000000000000000000000000000002",
                    "decodedMethod": {
                        "callParams": [
                            {
                                "name": "_owner",
                                "type": "address",
                                "value": "0x4839a9410e351a9312d95a01c1b47dd02a627e9e"
                            },
                            {
                                "name": "_poolId",
                                "type": "uint256",
                                "value": "2"
                            }
                        ],
                        "constructorArguments": "",
                        "name": "stakedNfts",
                        "returnParams": [
                            {
                                "name": "",
                                "type": "uint256[]",
                                "value": []
                            }
                        ],
                        "signature": "stakedNfts(address,uint256)"
                    },
                    "errorInfo": "",
                    "fromAddress": "0x54fec6309b53a31e65593f196b4c58f7a704a361",
                    "gasUsed": 3441,
                    "id": 3,
                    "methodDecoded": true,
                    "operation": "STATICCALL",
                    "output": "0x00000000000000000000000000000000000000000000000000000000000000200000000000000000000000000000000000000000000000000000000000000000",
                    "revert": false,
                    "revertMessage": "",
                    "selector": "0x94b6e751",
                    "status": true,
                    "value": "0"
                },
                "nodeType": 0
            },
            "4": {
                "invocation": {
                    "address": "0x12787526c03d626aac88e6edc4d0fb930d86c631",
                    "callData": "0x0000000000000000000000004839a9410e351a9312d95a01c1b47dd02a627e9e",
                    "decodedMethod": {
                        "callParams": [
                            {
                                "name": "owner",
                                "type": "address",
                                "value": "0x4839a9410e351a9312d95a01c1b47dd02a627e9e"
                            }
                        ],
                        "constructorArguments": "",
                        "name": "balanceOf",
                        "returnParams": [
                            {
                                "decimalAvailable": true,
                                "name": "",
                                "type": "uint256",
                                "value": "0"
                            }
                        ],
                        "signature": "balanceOf(address)"
                    },
                    "errorInfo": "",
                    "fromAddress": "0x54fec6309b53a31e65593f196b4c58f7a704a361",
                    "gasUsed": 2701,
                    "id": 4,
                    "methodDecoded": true,
                    "operation": "STATICCALL",
                    "output": "0x0000000000000000000000000000000000000000000000000000000000000000",
                    "revert": false,
                    "revertMessage": "",
                    "selector": "0x70a08231",
                    "status": true,
                    "value": "0"
                },
                "nodeType": 0
            },
            "5": {
                "invocation": {
                    "address": "0xf59afe732b2793d541780fd02945228db1fad8ed",
                    "callData": "0x0000000000000000000000004839a9410e351a9312d95a01c1b47dd02a627e9e",
                    "decodedMethod": {
                        "callParams": [
                            {
                                "name": "owner",
                                "type": "address",
                                "value": "0x4839a9410e351a9312d95a01c1b47dd02a627e9e"
                            }
                        ],
                        "constructorArguments": "",
                        "name": "balanceOf",
                        "returnParams": [
                            {
                                "decimalAvailable": true,
                                "name": "",
                                "type": "uint256",
                                "value": "0"
                            }
                        ],
                        "signature": "balanceOf(address)"
                    },
                    "errorInfo": "",
                    "fromAddress": "0x54fec6309b53a31e65593f196b4c58f7a704a361",
                    "gasUsed": 2698,
                    "id": 5,
                    "methodDecoded": true,
                    "operation": "STATICCALL",
                    "output": "0x0000000000000000000000000000000000000000000000000000000000000000",
                    "revert": false,
                    "revertMessage": "",
                    "selector": "0x70a08231",
                    "status": true,
                    "value": "0"
                },
                "nodeType": 0
            },
            "6": {
                "invocation": {
                    "address": "0x8ace1ec951bc29b98440d1bbca64e6010c9e9e17",
                    "callData": "0x0000000000000000000000004839a9410e351a9312d95a01c1b47dd02a627e9e",
                    "decodedMethod": {
                        "callParams": [
                            {
                                "name": "owner",
                                "type": "address",
                                "value": "0x4839a9410e351a9312d95a01c1b47dd02a627e9e"
                            }
                        ],
                        "constructorArguments": "",
                        "name": "balanceOf",
                        "returnParams": [
                            {
                                "decimalAvailable": true,
                                "name": "",
                                "type": "uint256",
                                "value": "0"
                            }
                        ],
                        "signature": "balanceOf(address)"
                    },
                    "errorInfo": "",
                    "fromAddress": "0x54fec6309b53a31e65593f196b4c58f7a704a361",
                    "gasUsed": 2647,
                    "id": 6,
                    "methodDecoded": true,
                    "operation": "STATICCALL",
                    "output": "0x0000000000000000000000000000000000000000000000000000000000000000",
                    "revert": false,
                    "revertMessage": "",
                    "selector": "0x70a08231",
                    "status": true,
                    "value": "0"
                },
                "nodeType": 0
            },
            "7": {
                "invocation": {
                    "address": "0x12787526c03d626aac88e6edc4d0fb930d86c631",
                    "callData": "0x0000000000000000000000004839a9410e351a9312d95a01c1b47dd02a627e9e",
                    "decodedMethod": {
                        "callParams": [
                            {
                                "name": "owner",
                                "type": "address",
                                "value": "0x4839a9410e351a9312d95a01c1b47dd02a627e9e"
                            }
                        ],
                        "constructorArguments": "",
                        "name": "balanceOf",
                        "returnParams": [
                            {
                                "decimalAvailable": true,
                                "name": "",
                                "type": "uint256",
                                "value": "0"
                            }
                        ],
                        "signature": "balanceOf(address)"
                    },
                    "errorInfo": "",
                    "fromAddress": "0x54fec6309b53a31e65593f196b4c58f7a704a361",
                    "gasUsed": 701,
                    "id": 7,
                    "methodDecoded": true,
                    "operation": "STATICCALL",
                    "output": "0x0000000000000000000000000000000000000000000000000000000000000000",
                    "revert": false,
                    "revertMessage": "",
                    "selector": "0x70a08231",
                    "status": true,
                    "value": "0"
                },
                "nodeType": 0
            },
            "8": {
                "invocation": {
                    "address": "0xf59afe732b2793d541780fd02945228db1fad8ed",
                    "callData": "0x0000000000000000000000004839a9410e351a9312d95a01c1b47dd02a627e9e",
                    "decodedMethod": {
                        "callParams": [
                            {
                                "name": "owner",
                                "type": "address",
                                "value": "0x4839a9410e351a9312d95a01c1b47dd02a627e9e"
                            }
                        ],
                        "constructorArguments": "",
                        "name": "balanceOf",
                        "returnParams": [
                            {
                                "decimalAvailable": true,
                                "name": "",
                                "type": "uint256",
                                "value": "0"
                            }
                        ],
                        "signature": "balanceOf(address)"
                    },
                    "errorInfo": "",
                    "fromAddress": "0x54fec6309b53a31e65593f196b4c58f7a704a361",
                    "gasUsed": 698,
                    "id": 8,
                    "methodDecoded": true,
                    "operation": "STATICCALL",
                    "output": "0x0000000000000000000000000000000000000000000000000000000000000000",
                    "revert": false,
                    "revertMessage": "",
                    "selector": "0x70a08231",
                    "status": true,
                    "value": "0"
                },
                "nodeType": 0
            },
            "9": {
                "invocation": {
                    "address": "0x8ace1ec951bc29b98440d1bbca64e6010c9e9e17",
                    "callData": "0x0000000000000000000000004839a9410e351a9312d95a01c1b47dd02a627e9e",
                    "decodedMethod": {
                        "callParams": [
                            {
                                "name": "owner",
                                "type": "address",
                                "value": "0x4839a9410e351a9312d95a01c1b47dd02a627e9e"
                            }
                        ],
                        "constructorArguments": "",
                        "name": "balanceOf",
                        "returnParams": [
                            {
                                "decimalAvailable": true,
                                "name": "",
                                "type": "uint256",
                                "value": "0"
                            }
                        ],
                        "signature": "balanceOf(address)"
                    },
                    "errorInfo": "",
                    "fromAddress": "0x54fec6309b53a31e65593f196b4c58f7a704a361",
                    "gasUsed": 647,
                    "id": 9,
                    "methodDecoded": true,
                    "operation": "STATICCALL",
                    "output": "0x0000000000000000000000000000000000000000000000000000000000000000",
                    "revert": false,
                    "revertMessage": "",
                    "selector": "0x70a08231",
                    "status": true,
                    "value": "0"
                },
                "nodeType": 0
            }
        },
        "gasFlame": [
            {
                "children": [
                    {
                        "children": [
                            {
                                "children": [],
                                "depth": 0,
                                "name": "Initial Gas",
                                "value": 21432
                            },
                            {
                                "children": [
                                    {
                                        "children": [],
                                        "depth": 1,
                                        "name": "stakedNfts",
                                        "value": 8472
                                    },
                                    {
                                        "children": [],
                                        "depth": 1,
                                        "name": "stakedNfts",
                                        "value": 9464
                                    },
                                    {
                                        "children": [],
                                        "depth": 1,
                                        "name": "stakedNfts",
                                        "value": 3441
                                    },
                                    {
                                        "children": [],
                                        "depth": 1,
                                        "name": "balanceOf",
                                        "value": 2701
                                    },
                                    {
                                        "children": [],
                                        "depth": 1,
                                        "name": "balanceOf",
                                        "value": 2698
                                    },
                                    {
                                        "children": [],
                                        "depth": 1,
                                        "name": "balanceOf",
                                        "value": 2647
                                    },
                                    {
                                        "children": [],
                                        "depth": 1,
                                        "name": "balanceOf",
                                        "value": 701
                                    },
                                    {
                                        "children": [],
                                        "depth": 1,
                                        "name": "balanceOf",
                                        "value": 698
                                    },
                                    {
                                        "children": [],
                                        "depth": 1,
                                        "name": "balanceOf",
                                        "value": 647
                                    },
                                    {
                                        "children": [],
                                        "depth": 1,
                                        "name": "balanceOf",
                                        "value": 701
                                    },
                                    {
                                        "children": [],
                                        "depth": 1,
                                        "name": "balanceOf",
                                        "value": 701
                                    },
                                    {
                                        "children": [],
                                        "depth": 1,
                                        "name": "balanceOf",
                                        "value": 698
                                    },
                                    {
                                        "children": [],
                                        "depth": 1,
                                        "name": "balanceOf",
                                        "value": 698
                                    },
                                    {
                                        "children": [],
                                        "depth": 1,
                                        "name": "balanceOf",
                                        "value": 647
                                    },
                                    {
                                        "children": [],
                                        "depth": 1,
                                        "name": "balanceOf",
                                        "value": 647
                                    },
                                    {
                                        "children": [],
                                        "depth": 1,
                                        "name": "onERC721Received",
                                        "value": 1088
                                    }
                                ],
                                "depth": 0,
                                "name": "Executed Gas",
                                "value": 307812
                            }
                        ],
                        "depth": -1,
                        "name": "Actual Gas Used",
                        "value": 329244
                    },
                    {
                        "children": [],
                        "depth": -1,
                        "name": "Refunded Gas",
                        "value": 0
                    }
                ],
                "depth": -2,
                "name": "Total Gas",
                "value": 329244
            }
        ],
        "isConfirmed": true,
        "mainTrace": [
            {
                "children": [
                    {
                        "children": [
                            {
                                "children": [],
                                "depth": 1,
                                "id": 1,
                                "order": 1
                            },
                            {
                                "children": [],
                                "depth": 1,
                                "id": 2,
                                "order": 2
                            },
                            {
                                "children": [],
                                "depth": 1,
                                "id": 3,
                                "order": 3
                            },
                            {
                                "children": [],
                                "depth": 1,
                                "id": 4,
                                "order": 4
                            },
                            {
                                "children": [],
                                "depth": 1,
                                "id": 5,
                                "order": 5
                            },
                            {
                                "children": [],
                                "depth": 1,
                                "id": 6,
                                "order": 6
                            },
                            {
                                "children": [],
                                "depth": 1,
                                "id": 7,
                                "order": 7
                            },
                            {
                                "children": [],
                                "depth": 1,
                                "id": 8,
                                "order": 8
                            },
                            {
                                "children": [],
                                "depth": 1,
                                "id": 9,
                                "order": 9
                            },
                            {
                                "children": [],
                                "depth": 1,
                                "id": 10,
                                "order": 10
                            },
                            {
                                "children": [],
                                "depth": 1,
                                "id": 11,
                                "order": 11
                            },
                            {
                                "children": [],
                                "depth": 1,
                                "id": 12,
                                "order": 12
                            },
                            {
                                "children": [],
                                "depth": 1,
                                "id": 13,
                                "order": 13
                            },
                            {
                                "children": [],
                                "depth": 1,
                                "id": 14,
                                "order": 14
                            },
                            {
                                "children": [],
                                "depth": 1,
                                "id": 15,
                                "order": 15
                            },
                            {
                                "children": [],
                                "depth": 1,
                                "id": 16,
                                "order": 16
                            },
                            {
                                "children": [],
                                "depth": 1,
                                "id": 17,
                                "order": 17
                            }
                        ],
                        "depth": 0,
                        "id": 0,
                        "order": 0
                    }
                ],
                "depth": -1,
                "id": -1,
                "order": -1
            }
        ],
        "mainTraceNodeCount": 18,
        "parentIdMap": {
            "0": -1,
            "1": 0,
            "10": 0,
            "11": 0,
            "12": 0,
            "13": 0,
            "14": 0,
            "15": 0,
            "16": 0,
            "17": 0,
            "2": 0,
            "3": 0,
            "4": 0,
            "5": 0,
            "6": 0,
            "7": 0,
            "8": 0,
            "9": 0
        },
        "tidyTrace": [
            {
                "children": [
                    {
                        "children": [
                            {
                                "children": [],
                                "depth": 1,
                                "id": 16,
                                "order": 16
                            },
                            {
                                "children": [],
                                "depth": 1,
                                "id": 17,
                                "order": 17
                            }
                        ],
                        "depth": 0,
                        "id": 0,
                        "order": 0
                    }
                ],
                "depth": -1,
                "id": -1,
                "order": -1
            }
        ],
        "tidyTraceNodeCount": 3
    },
    "state_change": {
        "stateChanges": [
            {
                "address": "0x54fec6309b53a31e65593f196b4c58f7a704a361",
                "erc": "ERC-721",
                "slots": [
                    {
                        "current": "0x000000000000000000000000000000000000000000000000000000006392e7e7",
                        "key": "0xbd28e3c7b041339c8a86d57bad9edf0099c62d1c7a5752dc97b23dca77850696",
                        "prev": "0x0000000000000000000000000000000000000000000000000000000000000000"
                    },
                    {
                        "current": "0x000000000000000000000000000000000000000000000000000000006389ad67",
                        "key": "0xbd28e3c7b041339c8a86d57bad9edf0099c62d1c7a5752dc97b23dca77850695",
                        "prev": "0x0000000000000000000000000000000000000000000000000000000000000000"
                    },
                    {
                        "current": "0x0000000000000000000000004839a9410e351a9312d95a01c1b47dd02a627e9e",
                        "key": "0x415c7f808e891e99b745abbae3d952bc3a84c52c3794ce7e7371912cbf5c0046",
                        "prev": "0x0000000000000000000000000000000000000000000000000000000000000000"
                    },
                    {
                        "current": "0x0000000000000000000000000000000000000000000000000000000000000d09",
                        "key": "0x500b61221051546bea6dfa75921674137f233596defe9c4368db8f1fd1cfcd71",
                        "prev": "0x0000000000000000000000000000000000000000000000000000000000000000"
                    },
                    {
                        "current": "0x0000000000000000000000000000074200000000000000000000000000000742",
                        "key": "0xa94cda8c2ee7372476e973e1e1026b1c6b8c20b3d6aca1caada27f869d8ee211",
                        "prev": "0x0000000000000000000000000000074100000000000000000000000000000741"
                    },
                    {
                        "current": "0x0000000000000000000000000000000000000000000000000000000000000001",
                        "key": "0x322600ed5c5b18d9c8c944b2758e45917db084f2aa0539de89da8d1ef4420077",
                        "prev": "0x0000000000000000000000000000000000000000000000000000000000000000"
                    },
                    {
                        "current": "0x0000000000000000000000000000000000000000000000000000000000000001",
                        "key": "0x975e63487e651f2a09af8e9ef4a18fce7692a5d9989178a7c00f8fad726a7d76",
                        "prev": "0x0000000000000000000000000000000000000000000000000000000000000000"
                    },
                    {
                        "current": "0x0000000000000000000000000000000000000000000000000000000000000001",
                        "key": "0xfe40bc926072e44000d3c9e3a06a44ee5aac640db1a8e1db177fdb9065ffb3a7",
                        "prev": "0x0000000000000000000000000000000000000000000000000000000000000000"
                    },
                    {
                        "current": "0x0000000000000000000000000000000000000000000000000000000000000001",
                        "key": "0xfe40bc926072e44000d3c9e3a06a44ee5aac640db1a8e1db177fdb9065ffb3a5",
                        "prev": "0x0000000000000000000000000000000000000000000000000000000000000000"
                    },
                    {
                        "current": "0x00000000000000006389ad6754fec6309b53a31e65593f196b4c58f7a704a361",
                        "key": "0xec02586529326b5927f72ae2600d9393281b3d70a1a6045f96ad439fac4c70f0",
                        "prev": "0x0000000000000000000000000000000000000000000000000000000000000000"
                    },
                    {
                        "current": "0x0000000000000000000000000000000000000000000000000000000000000001",
                        "key": "0x49dbd93733fbc1f9e0e608dcb0c4b936a7836796a696959e32794286facdaa5a",
                        "prev": "0x0000000000000000000000000000000000000000000000000000000000000000"
                    },
                    {
                        "current": "0x0000000000000000000000000000000000000000000000000000000000000d0a",
                        "key": "0x0000000000000000000000000000000000000000000000000000000000000000",
                        "prev": "0x0000000000000000000000000000000000000000000000000000000000000d09"
                    }
                ],
                "storageVariables": [
                    {
                        "name": "Stakers",
                        "type": "mapping(address => struct SupremeKongGen2.Staker)",
                        "value": {
                            "pairs": [
                                {
                                    "key": "0x4839a9410e351a9312d95a01c1b47dd02a627e9e",
                                    "value": {
                                        "fields": [
                                            {
                                                "name": "tokenIds",
                                                "type": "struct EnumerableSet.UintSet",
                                                "value": {
                                                    "fields": [
                                                        {
                                                            "name": "_inner",
                                                            "type": "struct EnumerableSet.Set",
                                                            "value": {
                                                                "fields": [
                                                                    {
                                                                        "name": "_values",
                                                                        "type": "bytes32[]",
                                                                        "value": {
                                                                            "elemType": "bytes32",
                                                                            "elems": [
                                                                                {
                                                                                    "index": 0,
                                                                                    "value": {
                                                                                        "current": "0x0000000000000000000000000000000000000000000000000000000000000d09",
                                                                                        "prev": "0x0000000000000000000000000000000000000000000000000000000000000000",
                                                                                        "typeTag": 1
                                                                                    }
                                                                                }
                                                                            ],
                                                                            "typeTag": 2
                                                                        }
                                                                    },
                                                                    {
                                                                        "name": "_indexes",
                                                                        "type": "mapping(bytes32 => uint256)",
                                                                        "value": {
                                                                            "pairs": [
                                                                                {
                                                                                    "key": "0x0000000000000000000000000000000000000000000000000000000000000d09",
                                                                                    "value": {
                                                                                        "current": "1",
                                                                                        "prev": "0",
                                                                                        "typeTag": 1
                                                                                    }
                                                                                }
                                                                            ],
                                                                            "typeTag": 4
                                                                        }
                                                                    }
                                                                ],
                                                                "typeTag": 3
                                                            }
                                                        }
                                                    ],
                                                    "typeTag": 3
                                                }
                                            },
                                            {
                                                "name": "amount",
                                                "type": "uint256",
                                                "value": {
                                                    "current": "1",
                                                    "prev": "0",
                                                    "typeTag": 1
                                                }
                                            }
                                        ],
                                        "typeTag": 3
                                    }
                                }
                            ],
                            "typeTag": 4
                        }
                    },
                    {
                        "name": "_redeemedKongIds",
                        "type": "mapping(uint256 => bool)",
                        "value": {
                            "pairs": [
                                {
                                    "key": "1963",
                                    "value": {
                                        "current": "true",
                                        "prev": "false",
                                        "typeTag": 1
                                    }
                                }
                            ],
                            "typeTag": 4
                        }
                    },
                    {
                        "name": "_ownerships",
                        "type": "mapping(uint256 => struct ERC721A.TokenOwnership)",
                        "value": {
                            "pairs": [
                                {
                                    "key": "3337",
                                    "value": {
                                        "fields": [
                                            {
                                                "name": "addr",
                                                "type": "address",
                                                "value": {
                                                    "current": "0x54fec6309b53a31e65593f196b4c58f7a704a361",
                                                    "prev": "0x0000000000000000000000000000000000000000",
                                                    "typeTag": 1
                                                }
                                            },
                                            {
                                                "name": "startTimestamp",
                                                "type": "uint64",
                                                "value": {
                                                    "current": "1669967207",
                                                    "prev": "0",
                                                    "typeTag": 1
                                                }
                                            }
                                        ],
                                        "typeTag": 3
                                    }
                                }
                            ],
                            "typeTag": 4
                        }
                    },
                    {
                        "name": "_redeemedBananaIds",
                        "type": "mapping(uint256 => bool)",
                        "value": {
                            "pairs": [
                                {
                                    "key": "1937",
                                    "value": {
                                        "current": "true",
                                        "prev": "false",
                                        "typeTag": 1
                                    }
                                }
                            ],
                            "typeTag": 4
                        }
                    },
                    {
                        "name": "StakerAddresses",
                        "type": "mapping(uint256 => address)",
                        "value": {
                            "pairs": [
                                {
                                    "key": "3337",
                                    "value": {
                                        "current": "0x4839a9410e351a9312d95a01c1b47dd02a627e9e",
                                        "prev": "0x0000000000000000000000000000000000000000",
                                        "typeTag": 1
                                    }
                                }
                            ],
                            "typeTag": 4
                        }
                    },
                    {
                        "name": "_addressData",
                        "type": "mapping(address => struct ERC721A.AddressData)",
                        "value": {
                            "pairs": [
                                {
                                    "key": "0x54fec6309b53a31e65593f196b4c58f7a704a361",
                                    "value": {
                                        "fields": [
                                            {
                                                "name": "balance",
                                                "type": "uint128",
                                                "value": {
                                                    "current": "1858",
                                                    "prev": "1857",
                                                    "typeTag": 1
                                                }
                                            },
                                            {
                                                "name": "numberMinted",
                                                "type": "uint128",
                                                "value": {
                                                    "current": "1858",
                                                    "prev": "1857",
                                                    "typeTag": 1
                                                }
                                            }
                                        ],
                                        "typeTag": 3
                                    }
                                }
                            ],
                            "typeTag": 4
                        }
                    },
                    {
                        "name": "currentIndex",
                        "type": "uint256",
                        "value": {
                            "current": "3338",
                            "prev": "3337",
                            "typeTag": 1
                        }
                    },
                    {
                        "name": "StakedNfts",
                        "type": "mapping(uint256 => struct SupremeKongGen2.StakedNft)",
                        "value": {
                            "pairs": [
                                {
                                    "key": "3337",
                                    "value": {
                                        "fields": [
                                            {
                                                "name": "stakedTime",
                                                "type": "uint256",
                                                "value": {
                                                    "current": "1669967207",
                                                    "prev": "0",
                                                    "typeTag": 1
                                                }
                                            },
                                            {
                                                "name": "lockedTime",
                                                "type": "uint256",
                                                "value": {
                                                    "current": "1670572007",
                                                    "prev": "0",
                                                    "typeTag": 1
                                                }
                                            }
                                        ],
                                        "typeTag": 3
                                    }
                                }
                            ],
                            "typeTag": 4
                        }
                    }
                ]
            }
        ]
    }
}