{
    "balance_change": {
        "balanceChanges": [
            {
                "account": "0xd84b4436b6aba0fa348c5cf35b4682448e94724a",
                "assets": [
                    {
                        "address": "0x37fc4b48ce93469dbea9918468993c735049642a",
                        "amount": "76,581.16789162",
                        "iconUrl": "",
                        "isERC1155": false,
                        "isERC721": false,
                        "sign": false,
                        "value": "284.5261673"
                    }
                ]
            },
            {
                "account": "0x57efeb13caec60f468f0ed85fe5331038789f937",
                "assets": [
                    {
                        "address": "0x37fc4b48ce93469dbea9918468993c735049642a",
                        "amount": "76,581.16789162",
                        "iconUrl": "",
                        "isERC1155": false,
                        "isERC721": false,
                        "sign": true,
                        "value": "284.5261673"
                    }
                ]
            }
        ]
    },
    "profile": {
        "basic_info": {
            "baseFee": "1.058717996",
            "blockNumber": 20453811,
            "callData": "0xa9059cbb00000000000000000000000057efeb13caec60f468f0ed85fe5331038789f9370000000000000000000000000000000000000000000010377932b502f0516800",
            "debugEnable": true,
            "errorInfo": "",
            "eventCount": 1,
            "feeRecipient": "0x95222290dd7278aa3ddd389cc1e1d165cc4bafe5",
            "formatValue": "0",
            "gasLimit": 207128,
            "gasPrice": "2",
            "gasUsed": 54624,
            "intTxnCount": 0,
            "internalRevert": false,
            "internalRevertMessage": "",
            "isContractCreation": false,
            "isFlashloan": false,
            "maxFee": "",
            "nonce": 34699,
            "overwritedBlockNumber": -1,
            "priorityFee": "",
            "receiver": "0x37fc4b48ce93469dbea9918468993c735049642a",
            "revertMessage": "",
            "sender": "0xd84b4436b6aba0fa348c5cf35b4682448e94724a",
            "simulationEnable": true,
            "sourceTxnHash": "0x1fb3dfc621191860a50cec04fe2284c233d7983a9d2c7c4cd6c433a8059c6d48",
            "status": true,
            "timestamp": "2024-08-04T07:51:47Z",
            "transactionFee": "0.000109248",
            "txnHash": "0x1fb3dfc621191860a50cec04fe2284c233d7983a9d2c7c4cd6c433a8059c6d48",
            "txnIndex": 51,
            "type": 0,
            "value": "0"
        },
        "fund_flow": [
            {
                "amount": "76,581.16789162",
                "from": "0xd84b4436b6aba0fa348c5cf35b4682448e94724a",
                "id": 1,
                "isERC1155": false,
                "isERC721": false,
                "isReverted": false,
                "order": 1,
                "to": "0x57efeb13caec60f468f0ed85fe5331038789f937",
                "token": "0x37fc4b48ce93469dbea9918468993c735049642a"
            }
        ],
        "token_infos": [
            {
                "address": "0x37fc4b48ce93469dbea9918468993c735049642a",
                "decimals": 18
            },
            {
                "address": "0xc02aaa39b223fe8d0a0e5c4f27ead9083c756cc2",
                "decimals": 18
            },
            {
                "address": "0xeeeeeeeeeeeeeeeeeeeeeeeeeeeeeeeeeeeeeeee",
                "decimals": 18
            }
        ]
    },
    "address_label": {
        "labels": [
            {
                "address": "0xd84b4436b6aba0fa348c5cf35b4682448e94724a",
                "label": "Coins.ph: Hot Wallet"
            },
            {
                "address": "0x0000000000000000000000000000000000000001",
                "label": "Precompiled"
            },
            {
                "address": "0x0000000000000000000000000000000000000002",
                "label": "Precompiled"
            },
            {
                "address": "0x0000000000000000000000000000000000000003",
                "label": "Precompiled"
            },
            {
                "address": "0x0000000000000000000000000000000000000004",
                "label": "Precompiled"
            },
            {
                "address": "0xeeeeeeeeeeeeeeeeeeeeeeeeeeeeeeeeeeeeeeee",
                "label": "Ether"
            },
            {
                "address": "0x37fc4b48ce93469dbea9918468993c735049642a",
                "label": "CropBytes: CBX Token"
            }
        ]
    },
    "trace": {
        "accountLabels": null,
        "dataMap": {
            "-1": {
                "invocation": {
                    "address": "0xd84b4436b6aba0fa348c5cf35b4682448e94724a",
                    "callData": "",
                    "decodedMethod": null,
                    "errorInfo": "",
                    "fromAddress": "",
                    "gasUsed": 0,
                    "id": -1,
                    "methodDecoded": false,
                    "operation": "",
                    "output": "",
                    "revert": false,
                    "revertMessage": "",
                    "selector": "",
                    "status": false,
                    "value": ""
                },
                "nodeType": 0
            },
            "0": {
                "invocation": {
                    "address": "0x37fc4b48ce93469dbea9918468993c735049642a",
                    "callData": "0x00000000000000000000000057efeb13caec60f468f0ed85fe5331038789f9370000000000000000000000000000000000000000000010377932b502f0516800",
                    "decodedMethod": {
                        "callParams": [
                            {
                                "name": "recipient",
                                "type": "address",
                                "value": "0x57efeb13caec60f468f0ed85fe5331038789f937"
                            },
                            {
                                "decimalAvailable": true,
                                "name": "amount",
                                "type": "uint256",
                                "value": "76,581,167,891,620,000,000,000"
                            }
                        ],
                        "constructorArguments": "",
                        "name": "transfer",
                        "returnParams": [
                            {
                                "name": "",
                                "type": "bool",
                                "value": true
                            }
                        ],
                        "signature": "transfer(address,uint256)"
                    },
                    "errorInfo": "",
                    "fromAddress": "0xd84b4436b6aba0fa348c5cf35b4682448e94724a",
                    "gasUsed": 54624,
                    "id": 0,
                    "methodDecoded": true,
                    "operation": "CALL",
                    "output": "0x0000000000000000000000000000000000000000000000000000000000000001",
                    "revert": false,
                    "revertMessage": "",
                    "selector": "0xa9059cbb",
                    "status": true,
                    "value": "0"
                },
                "nodeType": 0
            },
            "1": {
                "event": {
                    "contract": "0x37fc4b48ce93469dbea9918468993c735049642a",
                    "decodedLog": {
                        "name": "Transfer",
                        "params": [
                            {
                                "name": "from",
                                "type": "address",
                                "value": "0xd84b4436b6aba0fa348c5cf35b4682448e94724a"
                            },
                            {
                                "name": "to",
                                "type": "address",
                                "value": "0x57efeb13caec60f468f0ed85fe5331038789f937"
                            },
                            {
                                "decimalAvailable": true,
                                "name": "value",
                                "type": "uint256",
                                "value": "76,581,167,891,620,000,000,000"
                            }
                        ],
                        "signature": "Transfer(address,address,uint256)"
                    },
                    "id": 1,
                    "logData": "0x0000000000000000000000000000000000000000000010377932b502f0516800",
                    "logDecoded": true,
                    "operation": "EVENT",
                    "revert": false,
                    "status": true,
                    "topics": [
                        "0xddf252ad1be2c89b69c2b068fc378daa952ba7f163c4a11628f55a4df523b3ef",
                        "0x000000000000000000000000d84b4436b6aba0fa348c5cf35b4682448e94724a",
                        "0x00000000000000000000000057efeb13caec60f468f0ed85fe5331038789f937"
                    ]
                },
                "nodeType": 1
            }
        },
        "gasFlame": [
            {
                "children": [
                    {
                        "children": [
                            {
                                "children": [],
                                "depth": 0,
                                "name": "Initial Gas",
                                "value": 21668
                            },
                            {
                                "children": [],
                                "depth": 0,
                                "name": "Executed Gas",
                                "value": 32956
                            }
                        ],
                        "depth": -1,
                        "name": "Actual Gas Used",
                        "value": 54624
                    },
                    {
                        "children": [],
                        "depth": -1,
                        "name": "Refunded Gas",
                        "value": 0
                    }
                ],
                "depth": -2,
                "name": "Total Gas",
                "value": 54624
            }
        ],
        "isConfirmed": true,
        "mainTrace": [
            {
                "children": [
                    {
                        "children": [
                            {
                                "children": [],
                                "depth": 1,
                                "id": 1,
                                "order": 1
                            }
                        ],
                        "depth": 0,
                        "id": 0,
                        "order": 0
                    }
                ],
                "depth": -1,
                "id": -1,
                "order": -1
            }
        ],
        "mainTraceNodeCount": 2,
        "parentIdMap": {
            "0": -1,
            "1": 0
        },
        "tidyTrace": [
            {
                "children": [
                    {
                        "children": [
                            {
                                "children": [],
                                "depth": 1,
                                "id": 1,
                                "order": 1
                            }
                        ],
                        "depth": 0,
                        "id": 0,
                        "order": 0
                    }
                ],
                "depth": -1,
                "id": -1,
                "order": -1
            }
        ],
        "tidyTraceNodeCount": 2
    },
    "state_change": {
        "stateChanges": [
            {
                "address": "0x37fc4b48ce93469dbea9918468993c735049642a",
                "erc": "ERC-20",
                "slots": [
                    {
                        "current": "0x000000000000000000000000000000000000000000008363c3dc577d99936c00",
                        "key": "0xa2282abce31204da6f930f31255ec6f25dd6ddb531c99838d821bceed19e5b52",
                        "prev": "0x00000000000000000000000000000000000000000000939b3d0f0c8089e4d400"
                    },
                    {
                        "current": "0x0000000000000000000000000000000000000000000010377932b502f0516800",
                        "key": "0x5a1e905f4dd4d52825e0c8f34edf8660313355eb5999429e4689557613d53911",
                        "prev": "0x0000000000000000000000000000000000000000000000000000000000000000"
                    }
                ],
                "storageVariables": [
                    {
                        "name": "_balances",
                        "type": "mapping(address => uint256)",
                        "value": {
                            "pairs": [
                                {
                                    "key": "0x57efeb13caec60f468f0ed85fe5331038789f937",
                                    "value": {
                                        "current": "76581167891620000000000",
                                        "prev": "0",
                                        "typeTag": 1
                                    }
                                },
                                {
                                    "key": "0xd84b4436b6aba0fa348c5cf35b4682448e94724a",
                                    "value": {
                                        "current": "620470350170750000000000",
                                        "prev": "697051518062370000000000",
                                        "typeTag": 1
                                    }
                                }
                            ],
                            "typeTag": 4
                        }
                    }
                ]
            }
        ]
    }
}