{
    "balance_change": {
        "balanceChanges": [
            {
                "account": "0xa910f92acdaf488fa6ef02174fb86208ad7722ba",
                "assets": [
                    {
                        "address": "0x27c1ba4f85b8dc1c150157816623a6ce80b7f187",
                        "amount": "1,994,666",
                        "iconUrl": "",
                        "isERC1155": false,
                        "isERC721": false,
                        "sign": true,
                        "value": ""
                    }
                ]
            },
            {
                "account": "0xcf46e61c891dd651e1527efffa538ede96d420ad",
                "assets": [
                    {
                        "address": "0x27c1ba4f85b8dc1c150157816623a6ce80b7f187",
                        "amount": "1,994,666",
                        "iconUrl": "",
                        "isERC1155": false,
                        "isERC721": false,
                        "sign": false,
                        "value": ""
                    }
                ]
            }
        ]
    },
    "profile": {
        "basic_info": {
            "baseFee": "33.523428612",
            "blockNumber": 14717028,
            "callData": "0x8568523a00000000000000000000000027c1ba4f85b8dc1c150157816623a6ce80b7f18700000000000000000000000000000000000000000001a6630f7ed69984680000",
            "debugEnable": true,
            "errorInfo": "",
            "eventCount": 1,
            "feeRecipient": "0x646db8ffc21e7ddc2b6327448dd9fa560df41087",
            "formatValue": "0",
            "gasLimit": 120000,
            "gasPrice": "39.723965582",
            "gasUsed": 48274,
            "intTxnCount": 3,
            "internalRevert": false,
            "internalRevertMessage": "",
            "isContractCreation": false,
            "isFlashloan": false,
            "maxFee": "",
            "nonce": 820388,
            "overwritedBlockNumber": -1,
            "priorityFee": "",
            "receiver": "0xcf46e61c891dd651e1527efffa538ede96d420ad",
            "revertMessage": "",
            "sender": "0xa910f92acdaf488fa6ef02174fb86208ad7722ba",
            "simulationEnable": true,
            "sourceTxnHash": "0x1ff9ac57d973c346cb6f031e21ab6bcd0ee4c19e098be71b81a0a2ff67df4bac",
            "status": true,
            "timestamp": "2022-05-05T11:34:52Z",
            "transactionFee": "0.001917634714505468",
            "txnHash": "0x1ff9ac57d973c346cb6f031e21ab6bcd0ee4c19e098be71b81a0a2ff67df4bac",
            "txnIndex": 7,
            "type": 0,
            "value": "0"
        },
        "fund_flow": [
            {
                "amount": "1,994,666",
                "from": "0xcf46e61c891dd651e1527efffa538ede96d420ad",
                "id": 1,
                "isERC1155": false,
                "isERC721": false,
                "isReverted": false,
                "order": 1,
                "to": "0xa910f92acdaf488fa6ef02174fb86208ad7722ba",
                "token": "0x27c1ba4f85b8dc1c150157816623a6ce80b7f187"
            }
        ],
        "token_infos": [
            {
                "address": "0x27c1ba4f85b8dc1c150157816623a6ce80b7f187",
                "decimals": 18
            },
            {
                "address": "0xc02aaa39b223fe8d0a0e5c4f27ead9083c756cc2",
                "decimals": 18
            },
            {
                "address": "0xeeeeeeeeeeeeeeeeeeeeeeeeeeeeeeeeeeeeeeee",
                "decimals": 18
            }
        ]
    },
    "address_label": {
        "labels": [
            {
                "address": "0xa910f92acdaf488fa6ef02174fb86208ad7722ba",
                "label": "Poloniex 4"
            },
            {
                "address": "0x27c1ba4f85b8dc1c150157816623a6ce80b7f187",
                "label": "FTX: XRPBULL Token"
            },
            {
                "address": "0x2c36170fd467bf64283b76cdda5ddf2e5de82a62",
                "label": "Blacklist"
            },
            {
                "address": "0x0000000000000000000000000000000000000001",
                "label": "Precompiled"
            },
            {
                "address": "0x0000000000000000000000000000000000000002",
                "label": "Precompiled"
            },
            {
                "address": "0x0000000000000000000000000000000000000003",
                "label": "Precompiled"
            },
            {
                "address": "0x0000000000000000000000000000000000000004",
                "label": "Precompiled"
            },
            {
                "address": "0xeeeeeeeeeeeeeeeeeeeeeeeeeeeeeeeeeeeeeeee",
                "label": "Ether"
            }
        ]
    },
    "trace": {
        "accountLabels": null,
        "dataMap": {
            "-1": {
                "invocation": {
                    "address": "0xa910f92acdaf488fa6ef02174fb86208ad7722ba",
                    "callData": "",
                    "decodedMethod": null,
                    "errorInfo": "",
                    "fromAddress": "",
                    "gasUsed": 0,
                    "id": -1,
                    "methodDecoded": false,
                    "operation": "",
                    "output": "",
                    "revert": false,
                    "revertMessage": "",
                    "selector": "",
                    "status": false,
                    "value": ""
                },
                "nodeType": 0
            },
            "0": {
                "invocation": {
                    "address": "0xcf46e61c891dd651e1527efffa538ede96d420ad",
                    "callData": "0x00000000000000000000000027c1ba4f85b8dc1c150157816623a6ce80b7f18700000000000000000000000000000000000000000001a6630f7ed69984680000",
                    "decodedMethod": {
                        "callParams": [
                            {
                                "name": "to",
                                "type": "address",
                                "value": "0x27c1ba4f85b8dc1c150157816623a6ce80b7f187"
                            },
                            {
                                "name": "tokenId",
                                "type": "uint256",
                                "value": "1,994,666,000,000,000,000,000,000"
                            }
                        ],
                        "constructorArguments": "",
                        "name": "transferToOwner",
                        "returnParams": [],
                        "signature": "transferToOwner(address,uint256)"
                    },
                    "errorInfo": "",
                    "fromAddress": "0xa910f92acdaf488fa6ef02174fb86208ad7722ba",
                    "gasUsed": 48274,
                    "id": 0,
                    "methodDecoded": true,
                    "operation": "CALL",
                    "output": "",
                    "revert": false,
                    "revertMessage": "",
                    "selector": "0x8568523a",
                    "status": true,
                    "value": "0"
                },
                "nodeType": 0
            },
            "1": {
                "invocation": {
                    "address": "0x27c1ba4f85b8dc1c150157816623a6ce80b7f187",
                    "callData": "0x000000000000000000000000a910f92acdaf488fa6ef02174fb86208ad7722ba00000000000000000000000000000000000000000001a6630f7ed69984680000",
                    "decodedMethod": {
                        "callParams": [
                            {
                                "name": "to",
                                "type": "address",
                                "value": "0xa910f92acdaf488fa6ef02174fb86208ad7722ba"
                            },
                            {
                                "decimalAvailable": true,
                                "name": "value",
                                "type": "uint256",
                                "value": "1,994,666,000,000,000,000,000,000"
                            }
                        ],
                        "constructorArguments": "",
                        "name": "transfer",
                        "returnParams": [
                            {
                                "name": "",
                                "type": "bool",
                                "value": true
                            }
                        ],
                        "signature": "transfer(address,uint256)"
                    },
                    "errorInfo": "",
                    "fromAddress": "0xcf46e61c891dd651e1527efffa538ede96d420ad",
                    "gasUsed": 25920,
                    "id": 1,
                    "methodDecoded": true,
                    "operation": "CALL",
                    "output": "0x0000000000000000000000000000000000000000000000000000000000000001",
                    "revert": false,
                    "revertMessage": "",
                    "selector": "0xa9059cbb",
                    "status": true,
                    "value": "0"
                },
                "nodeType": 0
            },
            "2": {
                "invocation": {
                    "address": "0x2c36170fd467bf64283b76cdda5ddf2e5de82a62",
                    "callData": "0x000000000000000000000000cf46e61c891dd651e1527efffa538ede96d420ad",
                    "decodedMethod": {
                        "callParams": [
                            {
                                "name": "account",
                                "type": "address",
                                "value": "0xcf46e61c891dd651e1527efffa538ede96d420ad"
                            }
                        ],
                        "constructorArguments": "",
                        "name": "isWhitelisted",
                        "returnParams": [
                            {
                                "name": "",
                                "type": "bool",
                                "value": true
                            }
                        ],
                        "signature": "isWhitelisted(address)"
                    },
                    "errorInfo": "",
                    "fromAddress": "0x27c1ba4f85b8dc1c150157816623a6ce80b7f187",
                    "gasUsed": 2575,
                    "id": 2,
                    "methodDecoded": true,
                    "operation": "STATICCALL",
                    "output": "0x0000000000000000000000000000000000000000000000000000000000000001",
                    "revert": false,
                    "revertMessage": "",
                    "selector": "0x3af32abf",
                    "status": true,
                    "value": "0"
                },
                "nodeType": 0
            },
            "3": {
                "invocation": {
                    "address": "0x2c36170fd467bf64283b76cdda5ddf2e5de82a62",
                    "callData": "0x000000000000000000000000a910f92acdaf488fa6ef02174fb86208ad7722ba",
                    "decodedMethod": {
                        "callParams": [
                            {
                                "name": "account",
                                "type": "address",
                                "value": "0xa910f92acdaf488fa6ef02174fb86208ad7722ba"
                            }
                        ],
                        "constructorArguments": "",
                        "name": "isWhitelisted",
                        "returnParams": [
                            {
                                "name": "",
                                "type": "bool",
                                "value": true
                            }
                        ],
                        "signature": "isWhitelisted(address)"
                    },
                    "errorInfo": "",
                    "fromAddress": "0x27c1ba4f85b8dc1c150157816623a6ce80b7f187",
                    "gasUsed": 2575,
                    "id": 3,
                    "methodDecoded": true,
                    "operation": "STATICCALL",
                    "output": "0x0000000000000000000000000000000000000000000000000000000000000001",
                    "revert": false,
                    "revertMessage": "",
                    "selector": "0x3af32abf",
                    "status": true,
                    "value": "0"
                },
                "nodeType": 0
            },
            "4": {
                "event": {
                    "contract": "0x27c1ba4f85b8dc1c150157816623a6ce80b7f187",
                    "decodedLog": {
                        "name": "Transfer",
                        "params": [
                            {
                                "name": "from",
                                "type": "address",
                                "value": "0xcf46e61c891dd651e1527efffa538ede96d420ad"
                            },
                            {
                                "name": "to",
                                "type": "address",
                                "value": "0xa910f92acdaf488fa6ef02174fb86208ad7722ba"
                            },
                            {
                                "decimalAvailable": true,
                                "name": "value",
                                "type": "uint256",
                                "value": "1,994,666,000,000,000,000,000,000"
                            }
                        ],
                        "signature": "Transfer(address,address,uint256)"
                    },
                    "id": 4,
                    "logData": "0x00000000000000000000000000000000000000000001a6630f7ed69984680000",
                    "logDecoded": true,
                    "operation": "EVENT",
                    "revert": false,
                    "status": true,
                    "topics": [
                        "0xddf252ad1be2c89b69c2b068fc378daa952ba7f163c4a11628f55a4df523b3ef",
                        "0x000000000000000000000000cf46e61c891dd651e1527efffa538ede96d420ad",
                        "0x000000000000000000000000a910f92acdaf488fa6ef02174fb86208ad7722ba"
                    ]
                },
                "nodeType": 1
            }
        },
        "gasFlame": [
            {
                "children": [
                    {
                        "children": [
                            {
                                "children": [],
                                "depth": 0,
                                "name": "Initial Gas",
                                "value": 21668
                            },
                            {
                                "children": [
                                    {
                                        "children": [
                                            {
                                                "children": [],
                                                "depth": 2,
                                                "name": "isWhitelisted",
                                                "value": 2575
                                            },
                                            {
                                                "children": [],
                                                "depth": 2,
                                                "name": "isWhitelisted",
                                                "value": 2575
                                            }
                                        ],
                                        "depth": 1,
                                        "name": "transfer",
                                        "value": 25920
                                    }
                                ],
                                "depth": 0,
                                "name": "Executed Gas",
                                "value": 31406
                            }
                        ],
                        "depth": -1,
                        "name": "Actual Gas Used",
                        "value": 48274
                    },
                    {
                        "children": [],
                        "depth": -1,
                        "name": "Refunded Gas",
                        "value": 4800
                    }
                ],
                "depth": -2,
                "name": "Total Gas",
                "value": 53074
            }
        ],
        "isConfirmed": true,
        "mainTrace": [
            {
                "children": [
                    {
                        "children": [
                            {
                                "children": [
                                    {
                                        "children": [],
                                        "depth": 2,
                                        "id": 2,
                                        "order": 2
                                    },
                                    {
                                        "children": [],
                                        "depth": 2,
                                        "id": 3,
                                        "order": 3
                                    },
                                    {
                                        "children": [],
                                        "depth": 2,
                                        "id": 4,
                                        "order": 4
                                    }
                                ],
                                "depth": 1,
                                "id": 1,
                                "order": 1
                            }
                        ],
                        "depth": 0,
                        "id": 0,
                        "order": 0
                    }
                ],
                "depth": -1,
                "id": -1,
                "order": -1
            }
        ],
        "mainTraceNodeCount": 5,
        "parentIdMap": {
            "0": -1,
            "1": 0,
            "2": 1,
            "3": 1,
            "4": 1
        },
        "tidyTrace": [
            {
                "children": [
                    {
                        "children": [
                            {
                                "children": [
                                    {
                                        "children": [],
                                        "depth": 2,
                                        "id": 4,
                                        "order": 4
                                    }
                                ],
                                "depth": 1,
                                "id": 1,
                                "order": 1
                            }
                        ],
                        "depth": 0,
                        "id": 0,
                        "order": 0
                    }
                ],
                "depth": -1,
                "id": -1,
                "order": -1
            }
        ],
        "tidyTraceNodeCount": 3
    },
    "state_change": {
        "stateChanges": [
            {
                "address": "0x27c1ba4f85b8dc1c150157816623a6ce80b7f187",
                "erc": "ERC-20",
                "slots": [
                    {
                        "current": "0x0000000000000000000000000000000000000000000000000000000000000000",
                        "key": "0xd3f7f9291ee1cb3d5e9bdbafd57f69cfcf14a30055100a0aa6af85097f7ddbc1",
                        "prev": "0x00000000000000000000000000000000000000000001a6630f7ed69984680000"
                    },
                    {
                        "current": "0x0000000000000000000000000000000000000000104b7e70d05e53aafbcc6000",
                        "key": "0x1daf25189211a8e77b89779b80fa8ceea6e1632281b9a16d945355f224613e14",
                        "prev": "0x00000000000000000000000000000000000000001049d80dc0df7d1177646000"
                    }
                ],
                "storageVariables": [
                    {
                        "name": "_balances",
                        "type": "mapping(address => uint256)",
                        "value": {
                            "pairs": [
                                {
                                    "key": "0xa910f92acdaf488fa6ef02174fb86208ad7722ba",
                                    "value": {
                                        "current": "5043026692839326320000000000",
                                        "prev": "5041032026839326320000000000",
                                        "typeTag": 1
                                    }
                                },
                                {
                                    "key": "0xcf46e61c891dd651e1527efffa538ede96d420ad",
                                    "value": {
                                        "current": "0",
                                        "prev": "1994666000000000000000000",
                                        "typeTag": 1
                                    }
                                }
                            ],
                            "typeTag": 4
                        }
                    }
                ]
            }
        ]
    }
}