{
    "balance_change": {
        "balanceChanges": [
            {
                "account": "0x3ea7c15f8e60a043a0874fb93bdf6d8a8e75d783",
                "assets": [
                    {
                        "address": "0xeeeeeeeeeeeeeeeeeeeeeeeeeeeeeeeeeeeeeeee",
                        "amount": "0.004",
                        "iconUrl": "https://assets.blocksec.com/image/1663669189317-3.png",
                        "isERC1155": false,
                        "isERC721": false,
                        "sign": true,
                        "value": ""
                    }
                ]
            },
            {
                "account": "0x1ebbdd65f6cabe4db12d1440148856a949adb7e7",
                "assets": [
                    {
                        "address": "0xeeeeeeeeeeeeeeeeeeeeeeeeeeeeeeeeeeeeeeee",
                        "amount": "0.004",
                        "iconUrl": "https://assets.blocksec.com/image/1663669189317-3.png",
                        "isERC1155": false,
                        "isERC721": false,
                        "sign": false,
                        "value": ""
                    }
                ]
            }
        ]
    },
    "profile": {
        "basic_info": {
            "baseFee": "",
            "blockNumber": 5406415,
            "callData": "0x47872b428c02ed5920aacac7395fffe5796bbcc2d5b8efb77bd5c046073b71ebf344020d0000000000000000000000000000000000000000000000000023a23b5b18e000d7cffee7a77e6c8525bdb1d84432ed402fb77dc30b955c880d1af612fc8ae363",
            "debugEnable": true,
            "errorInfo": "",
            "eventCount": 1,
            "feeRecipient": "0xea674fdde714fd979de3edf0f56aa9716b898ec8",
            "formatValue": "0",
            "gasLimit": 500000,
            "gasPrice": "5",
            "gasUsed": 87879,
            "intTxnCount": 4,
            "internalRevert": false,
            "internalRevertMessage": "",
            "isContractCreation": false,
            "isFlashloan": false,
            "maxFee": "",
            "nonce": 463,
            "overwritedBlockNumber": -1,
            "priorityFee": "",
            "receiver": "0x6090a6e47849629b7245dfa1ca21d94cd15878ef",
            "revertMessage": "",
            "sender": "0x3ea7c15f8e60a043a0874fb93bdf6d8a8e75d783",
            "simulationEnable": true,
            "sourceTxnHash": "0x203451b5db895c1a73f061b08d9da5cd212b5d4b1bc0710c27e4a8e340a9ccdd",
            "status": true,
            "timestamp": "2018-04-09T01:14:40Z",
            "transactionFee": "0.000439395",
            "txnHash": "0x203451b5db895c1a73f061b08d9da5cd212b5d4b1bc0710c27e4a8e340a9ccdd",
            "txnIndex": 7,
            "type": 0,
            "value": "0"
        },
        "fund_flow": [
            {
                "amount": "0.004",
                "from": "0x1ebbdd65f6cabe4db12d1440148856a949adb7e7",
                "id": 1,
                "isERC1155": false,
                "isERC721": false,
                "isReverted": false,
                "order": 1,
                "to": "0x3ea7c15f8e60a043a0874fb93bdf6d8a8e75d783",
                "token": "0xeeeeeeeeeeeeeeeeeeeeeeeeeeeeeeeeeeeeeeee"
            }
        ],
        "token_infos": [
            {
                "address": "0xeeeeeeeeeeeeeeeeeeeeeeeeeeeeeeeeeeeeeeee",
                "decimals": 18
            },
            {
                "address": "0xc02aaa39b223fe8d0a0e5c4f27ead9083c756cc2",
                "decimals": 18
            }
        ]
    },
    "address_label": {
        "labels": [
            {
                "address": "0x0000000000000000000000000000000000000001",
                "label": "Precompiled"
            },
            {
                "address": "0x0000000000000000000000000000000000000002",
                "label": "Precompiled"
            },
            {
                "address": "0x0000000000000000000000000000000000000003",
                "label": "Precompiled"
            },
            {
                "address": "0x0000000000000000000000000000000000000004",
                "label": "Precompiled"
            },
            {
                "address": "0xeeeeeeeeeeeeeeeeeeeeeeeeeeeeeeeeeeeeeeee",
                "label": "Ether"
            },
            {
                "address": "0x6090a6e47849629b7245dfa1ca21d94cd15878ef",
                "label": "ENS: Old Registrar"
            },
            {
                "address": "0x1ebbdd65f6cabe4db12d1440148856a949adb7e7",
                "label": "Deed"
            }
        ]
    },
    "trace": {
        "accountLabels": null,
        "dataMap": {
            "-1": {
                "invocation": {
                    "address": "0x3ea7c15f8e60a043a0874fb93bdf6d8a8e75d783",
                    "callData": "",
                    "decodedMethod": null,
                    "errorInfo": "",
                    "fromAddress": "",
                    "gasUsed": 0,
                    "id": -1,
                    "methodDecoded": false,
                    "operation": "",
                    "output": "",
                    "revert": false,
                    "revertMessage": "",
                    "selector": "",
                    "status": false,
                    "value": ""
                },
                "nodeType": 0
            },
            "0": {
                "invocation": {
                    "address": "0x6090a6e47849629b7245dfa1ca21d94cd15878ef",
                    "callData": "0x8c02ed5920aacac7395fffe5796bbcc2d5b8efb77bd5c046073b71ebf344020d0000000000000000000000000000000000000000000000000023a23b5b18e000d7cffee7a77e6c8525bdb1d84432ed402fb77dc30b955c880d1af612fc8ae363",
                    "decodedMethod": {
                        "callParams": [
                            {
                                "name": "_hash",
                                "type": "bytes32",
                                "value": "0x8c02ed5920aacac7395fffe5796bbcc2d5b8efb77bd5c046073b71ebf344020d"
                            },
                            {
                                "name": "_value",
                                "type": "uint256",
                                "value": "10,030,000,000,000,000"
                            },
                            {
                                "name": "_salt",
                                "type": "bytes32",
                                "value": "0xd7cffee7a77e6c8525bdb1d84432ed402fb77dc30b955c880d1af612fc8ae363"
                            }
                        ],
                        "constructorArguments": "",
                        "name": "unsealBid",
                        "returnParams": [],
                        "signature": "unsealBid(bytes32,uint256,bytes32)"
                    },
                    "errorInfo": "",
                    "fromAddress": "0x3ea7c15f8e60a043a0874fb93bdf6d8a8e75d783",
                    "gasUsed": 87879,
                    "id": 0,
                    "methodDecoded": true,
                    "operation": "CALL",
                    "output": "",
                    "revert": false,
                    "revertMessage": "",
                    "selector": "0x47872b42",
                    "status": true,
                    "value": "0"
                },
                "nodeType": 0
            },
            "1": {
                "invocation": {
                    "address": "0x1ebbdd65f6cabe4db12d1440148856a949adb7e7",
                    "callData": "0x",
                    "decodedMethod": {
                        "callParams": [],
                        "constructorArguments": "",
                        "name": "value",
                        "returnParams": [
                            {
                                "name": "",
                                "type": "uint256",
                                "value": "14,030,000,000,000,000"
                            }
                        ],
                        "signature": "value()"
                    },
                    "errorInfo": "",
                    "fromAddress": "0x6090a6e47849629b7245dfa1ca21d94cd15878ef",
                    "gasUsed": 524,
                    "id": 1,
                    "methodDecoded": true,
                    "operation": "CALL",
                    "output": "0x0000000000000000000000000000000000000000000000000031d835ee32e000",
                    "revert": false,
                    "revertMessage": "",
                    "selector": "0x3fa4f245",
                    "status": true,
                    "value": "0"
                },
                "nodeType": 0
            },
            "2": {
                "invocation": {
                    "address": "0x1ebbdd65f6cabe4db12d1440148856a949adb7e7",
                    "callData": "0x0000000000000000000000000000000000000000000000000023a23b5b18e0000000000000000000000000000000000000000000000000000000000000000001",
                    "decodedMethod": {
                        "callParams": [
                            {
                                "name": "newValue",
                                "type": "uint256",
                                "value": "10,030,000,000,000,000"
                            },
                            {
                                "name": "throwOnFailure",
                                "type": "bool",
                                "value": true
                            }
                        ],
                        "constructorArguments": "",
                        "name": "setBalance",
                        "returnParams": [],
                        "signature": "setBalance(uint256,bool)"
                    },
                    "errorInfo": "",
                    "fromAddress": "0x6090a6e47849629b7245dfa1ca21d94cd15878ef",
                    "gasUsed": 14333,
                    "id": 2,
                    "methodDecoded": true,
                    "operation": "CALL",
                    "output": "",
                    "revert": false,
                    "revertMessage": "",
                    "selector": "0xb0c80972",
                    "status": true,
                    "value": "0"
                },
                "nodeType": 0
            },
            "3": {
                "invocation": {
                    "address": "0x3ea7c15f8e60a043a0874fb93bdf6d8a8e75d783",
                    "callData": "0x",
                    "decodedMethod": null,
                    "errorInfo": "",
                    "fromAddress": "0x1ebbdd65f6cabe4db12d1440148856a949adb7e7",
                    "gasUsed": 0,
                    "id": 3,
                    "methodDecoded": false,
                    "operation": "CALL",
                    "output": "",
                    "revert": false,
                    "revertMessage": "",
                    "selector": "fallback",
                    "status": true,
                    "value": "0.004"
                },
                "nodeType": 0
            },
            "4": {
                "invocation": {
                    "address": "0x1ebbdd65f6cabe4db12d1440148856a949adb7e7",
                    "callData": "0x",
                    "decodedMethod": {
                        "callParams": [],
                        "constructorArguments": "",
                        "name": "creationDate",
                        "returnParams": [
                            {
                                "name": "",
                                "type": "uint256",
                                "value": "1,522,933,391"
                            }
                        ],
                        "signature": "creationDate()"
                    },
                    "errorInfo": "",
                    "fromAddress": "0x6090a6e47849629b7245dfa1ca21d94cd15878ef",
                    "gasUsed": 436,
                    "id": 4,
                    "methodDecoded": true,
                    "operation": "CALL",
                    "output": "0x000000000000000000000000000000000000000000000000000000005ac61e8f",
                    "revert": false,
                    "revertMessage": "",
                    "selector": "0x05b34410",
                    "status": true,
                    "value": "0"
                },
                "nodeType": 0
            },
            "5": {
                "event": {
                    "contract": "0x6090a6e47849629b7245dfa1ca21d94cd15878ef",
                    "decodedLog": {
                        "name": "BidRevealed",
                        "params": [
                            {
                                "name": "hash",
                                "type": "bytes32",
                                "value": "0x8c02ed5920aacac7395fffe5796bbcc2d5b8efb77bd5c046073b71ebf344020d"
                            },
                            {
                                "name": "owner",
                                "type": "address",
                                "value": "0x3ea7c15f8e60a043a0874fb93bdf6d8a8e75d783"
                            },
                            {
                                "name": "value",
                                "type": "uint256",
                                "value": "10,030,000,000,000,000"
                            },
                            {
                                "name": "status",
                                "type": "uint8",
                                "value": "2"
                            }
                        ],
                        "signature": "BidRevealed(bytes32,address,uint256,uint8)"
                    },
                    "id": 5,
                    "logData": "0x0000000000000000000000000000000000000000000000000023a23b5b18e0000000000000000000000000000000000000000000000000000000000000000002",
                    "logDecoded": true,
                    "operation": "EVENT",
                    "revert": false,
                    "status": true,
                    "topics": [
                        "0x7b6c4b278d165a6b33958f8ea5dfb00c8c9d4d0acf1985bef5d10786898bc3e7",
                        "0x8c02ed5920aacac7395fffe5796bbcc2d5b8efb77bd5c046073b71ebf344020d",
                        "0x0000000000000000000000003ea7c15f8e60a043a0874fb93bdf6d8a8e75d783"
                    ]
                },
                "nodeType": 1
            }
        },
        "gasFlame": [
            {
                "children": [
                    {
                        "children": [
                            {
                                "children": [],
                                "depth": 0,
                                "name": "Initial Gas",
                                "value": 26136
                            },
                            {
                                "children": [
                                    {
                                        "children": [],
                                        "depth": 1,
                                        "name": "value",
                                        "value": 524
                                    },
                                    {
                                        "children": [
                                            {
                                                "children": [],
                                                "depth": 2,
                                                "name": "fallback",
                                                "value": 0
                                            }
                                        ],
                                        "depth": 1,
                                        "name": "setBalance",
                                        "value": 14333
                                    },
                                    {
                                        "children": [],
                                        "depth": 1,
                                        "name": "creationDate",
                                        "value": 436
                                    }
                                ],
                                "depth": 0,
                                "name": "Executed Gas",
                                "value": 76743
                            }
                        ],
                        "depth": -1,
                        "name": "Actual Gas Used",
                        "value": 87879
                    },
                    {
                        "children": [],
                        "depth": -1,
                        "name": "Refunded Gas",
                        "value": 15000
                    }
                ],
                "depth": -2,
                "name": "Total Gas",
                "value": 102879
            }
        ],
        "isConfirmed": true,
        "mainTrace": [
            {
                "children": [
                    {
                        "children": [
                            {
                                "children": [],
                                "depth": 1,
                                "id": 1,
                                "order": 1
                            },
                            {
                                "children": [
                                    {
                                        "children": [],
                                        "depth": 2,
                                        "id": 3,
                                        "order": 3
                                    }
                                ],
                                "depth": 1,
                                "id": 2,
                                "order": 2
                            },
                            {
                                "children": [],
                                "depth": 1,
                                "id": 4,
                                "order": 4
                            },
                            {
                                "children": [],
                                "depth": 1,
                                "id": 5,
                                "order": 5
                            }
                        ],
                        "depth": 0,
                        "id": 0,
                        "order": 0
                    }
                ],
                "depth": -1,
                "id": -1,
                "order": -1
            }
        ],
        "mainTraceNodeCount": 6,
        "parentIdMap": {
            "0": -1,
            "1": 0,
            "2": 0,
            "3": 2,
            "4": 0,
            "5": 0
        },
        "tidyTrace": [
            {
                "children": [
                    {
                        "children": [
                            {
                                "children": [],
                                "depth": 1,
                                "id": 1,
                                "order": 1
                            },
                            {
                                "children": [
                                    {
                                        "children": [],
                                        "depth": 2,
                                        "id": 3,
                                        "order": 3
                                    }
                                ],
                                "depth": 1,
                                "id": 2,
                                "order": 2
                            },
                            {
                                "children": [],
                                "depth": 1,
                                "id": 4,
                                "order": 4
                            },
                            {
                                "children": [],
                                "depth": 1,
                                "id": 5,
                                "order": 5
                            }
                        ],
                        "depth": 0,
                        "id": 0,
                        "order": 0
                    }
                ],
                "depth": -1,
                "id": -1,
                "order": -1
            }
        ],
        "tidyTraceNodeCount": 6
    },
    "state_change": {
        "stateChanges": [
            {
                "address": "0x1ebbdd65f6cabe4db12d1440148856a949adb7e7",
                "erc": "",
                "slots": [
                    {
                        "current": "0x0000000000000000000000000000000000000000000000000023a23b5b18e000",
                        "key": "0x0000000000000000000000000000000000000000000000000000000000000004",
                        "prev": "0x0000000000000000000000000000000000000000000000000031d835ee32e000"
                    }
                ],
                "storageVariables": []
            },
            {
                "address": "0x6090a6e47849629b7245dfa1ca21d94cd15878ef",
                "erc": "",
                "slots": [
                    {
                        "current": "0x0000000000000000000000000000000000000000000000000000000000000000",
                        "key": "0xdbad00c1a38144c5c9c0c4b7dd61fc8bcd385716862933cf82002690e0789bb1",
                        "prev": "0x0000000000000000000000001ebbdd65f6cabe4db12d1440148856a949adb7e7"
                    },
                    {
                        "current": "0x0000000000000000000000000000000000000000000000000023a23b5b18e000",
                        "key": "0xaab29c32c8baadd94a93b3a4d840fefe0120483fe2085e080d91aad92499b298",
                        "prev": "0x0000000000000000000000000000000000000000000000000000000000000000"
                    },
                    {
                        "current": "0x0000000000000000000000001ebbdd65f6cabe4db12d1440148856a949adb7e7",
                        "key": "0xaab29c32c8baadd94a93b3a4d840fefe0120483fe2085e080d91aad92499b295",
                        "prev": "0x0000000000000000000000000000000000000000000000000000000000000000"
                    }
                ],
                "storageVariables": []
            }
        ]
    }
}