{
    "balance_change": {
        "balanceChanges": [
            {
                "account": "0xf5bdd30c3892c2454d2b1d9794221997a56049de",
                "assets": [
                    {
                        "address": "0x5ca9a71b1d01849c0a95490cc00559717fcf0d1d",
                        "amount": "10,000",
                        "iconUrl": "",
                        "isERC1155": false,
                        "isERC721": false,
                        "sign": false,
                        "value": ""
                    }
                ]
            },
            {
                "account": "0x23cb7fad46cdcdbab60a1f5bb582252284f83ab8",
                "assets": [
                    {
                        "address": "0x5ca9a71b1d01849c0a95490cc00559717fcf0d1d",
                        "amount": "10,000",
                        "iconUrl": "",
                        "isERC1155": false,
                        "isERC721": false,
                        "sign": true,
                        "value": ""
                    }
                ]
            }
        ]
    },
    "profile": {
        "basic_info": {
            "baseFee": "",
            "blockNumber": 5527952,
            "callData": "0xa9059cbb00000000000000000000000023cb7fad46cdcdbab60a1f5bb582252284f83ab800000000000000000000000000000000000000000000021e19e0c9bab2400000",
            "debugEnable": true,
            "errorInfo": "",
            "eventCount": 1,
            "feeRecipient": "0xea674fdde714fd979de3edf0f56aa9716b898ec8",
            "formatValue": "0",
            "gasLimit": 37356,
            "gasPrice": "10",
            "gasUsed": 37356,
            "intTxnCount": 0,
            "internalRevert": false,
            "internalRevertMessage": "",
            "isContractCreation": false,
            "isFlashloan": false,
            "maxFee": "",
            "nonce": 17,
            "overwritedBlockNumber": -1,
            "priorityFee": "",
            "receiver": "0x5ca9a71b1d01849c0a95490cc00559717fcf0d1d",
            "revertMessage": "",
            "sender": "0xf5bdd30c3892c2454d2b1d9794221997a56049de",
            "simulationEnable": true,
            "sourceTxnHash": "0x2056ce99328c27161068fe71aad07d1204440fde5e9d86aea4857fcd5844886c",
            "status": true,
            "timestamp": "2018-04-29T19:06:59Z",
            "transactionFee": "0.00037356",
            "txnHash": "0x2056ce99328c27161068fe71aad07d1204440fde5e9d86aea4857fcd5844886c",
            "txnIndex": 118,
            "type": 0,
            "value": "0"
        },
        "fund_flow": [
            {
                "amount": "10,000",
                "from": "0xf5bdd30c3892c2454d2b1d9794221997a56049de",
                "id": 1,
                "isERC1155": false,
                "isERC721": false,
                "isReverted": false,
                "order": 1,
                "to": "0x23cb7fad46cdcdbab60a1f5bb582252284f83ab8",
                "token": "0x5ca9a71b1d01849c0a95490cc00559717fcf0d1d"
            }
        ],
        "token_infos": [
            {
                "address": "0x5ca9a71b1d01849c0a95490cc00559717fcf0d1d",
                "decimals": 18
            },
            {
                "address": "0xc02aaa39b223fe8d0a0e5c4f27ead9083c756cc2",
                "decimals": 18
            },
            {
                "address": "0xeeeeeeeeeeeeeeeeeeeeeeeeeeeeeeeeeeeeeeee",
                "decimals": 18
            }
        ]
    },
    "address_label": {
        "labels": [
            {
                "address": "0x0000000000000000000000000000000000000003",
                "label": "Precompiled"
            },
            {
                "address": "0x0000000000000000000000000000000000000004",
                "label": "Precompiled"
            },
            {
                "address": "0xeeeeeeeeeeeeeeeeeeeeeeeeeeeeeeeeeeeeeeee",
                "label": "Ether"
            },
            {
                "address": "0x23cb7fad46cdcdbab60a1f5bb582252284f83ab8",
                "label": "LIQUI.IO"
            },
            {
                "address": "0x5ca9a71b1d01849c0a95490cc00559717fcf0d1d",
                "label": "Aeternity: Old Token"
            },
            {
                "address": "0x0000000000000000000000000000000000000001",
                "label": "Precompiled"
            },
            {
                "address": "0x0000000000000000000000000000000000000002",
                "label": "Precompiled"
            }
        ]
    },
    "trace": {
        "accountLabels": null,
        "dataMap": {
            "-1": {
                "invocation": {
                    "address": "0xf5bdd30c3892c2454d2b1d9794221997a56049de",
                    "callData": "",
                    "decodedMethod": null,
                    "errorInfo": "",
                    "fromAddress": "",
                    "gasUsed": 0,
                    "id": -1,
                    "methodDecoded": false,
                    "operation": "",
                    "output": "",
                    "revert": false,
                    "revertMessage": "",
                    "selector": "",
                    "status": false,
                    "value": ""
                },
                "nodeType": 0
            },
            "0": {
                "invocation": {
                    "address": "0x5ca9a71b1d01849c0a95490cc00559717fcf0d1d",
                    "callData": "0x00000000000000000000000023cb7fad46cdcdbab60a1f5bb582252284f83ab800000000000000000000000000000000000000000000021e19e0c9bab2400000",
                    "decodedMethod": {
                        "callParams": [
                            {
                                "name": "_to",
                                "type": "address",
                                "value": "0x23cb7fad46cdcdbab60a1f5bb582252284f83ab8"
                            },
                            {
                                "decimalAvailable": true,
                                "name": "_value",
                                "type": "uint256",
                                "value": "10,000,000,000,000,000,000,000"
                            }
                        ],
                        "constructorArguments": "",
                        "name": "transfer",
                        "returnParams": [
                            {
                                "name": "success",
                                "type": "bool",
                                "value": true
                            }
                        ],
                        "signature": "transfer(address,uint256)"
                    },
                    "errorInfo": "",
                    "fromAddress": "0xf5bdd30c3892c2454d2b1d9794221997a56049de",
                    "gasUsed": 37356,
                    "id": 0,
                    "methodDecoded": true,
                    "operation": "CALL",
                    "output": "0x0000000000000000000000000000000000000000000000000000000000000001",
                    "revert": false,
                    "revertMessage": "",
                    "selector": "0xa9059cbb",
                    "status": true,
                    "value": "0"
                },
                "nodeType": 0
            },
            "1": {
                "event": {
                    "contract": "0x5ca9a71b1d01849c0a95490cc00559717fcf0d1d",
                    "decodedLog": {
                        "name": "Transfer",
                        "params": [
                            {
                                "name": "_from",
                                "type": "address",
                                "value": "0xf5bdd30c3892c2454d2b1d9794221997a56049de"
                            },
                            {
                                "name": "_to",
                                "type": "address",
                                "value": "0x23cb7fad46cdcdbab60a1f5bb582252284f83ab8"
                            },
                            {
                                "decimalAvailable": true,
                                "name": "_value",
                                "type": "uint256",
                                "value": "10,000,000,000,000,000,000,000"
                            }
                        ],
                        "signature": "Transfer(address,address,uint256)"
                    },
                    "id": 1,
                    "logData": "0x00000000000000000000000000000000000000000000021e19e0c9bab2400000",
                    "logDecoded": true,
                    "operation": "EVENT",
                    "revert": false,
                    "status": true,
                    "topics": [
                        "0xddf252ad1be2c89b69c2b068fc378daa952ba7f163c4a11628f55a4df523b3ef",
                        "0x000000000000000000000000f5bdd30c3892c2454d2b1d9794221997a56049de",
                        "0x00000000000000000000000023cb7fad46cdcdbab60a1f5bb582252284f83ab8"
                    ]
                },
                "nodeType": 1
            }
        },
        "gasFlame": [
            {
                "children": [
                    {
                        "children": [
                            {
                                "children": [],
                                "depth": 0,
                                "name": "Initial Gas",
                                "value": 23320
                            },
                            {
                                "children": [],
                                "depth": 0,
                                "name": "Executed Gas",
                                "value": 14036
                            }
                        ],
                        "depth": -1,
                        "name": "Actual Gas Used",
                        "value": 37356
                    },
                    {
                        "children": [],
                        "depth": -1,
                        "name": "Refunded Gas",
                        "value": 0
                    }
                ],
                "depth": -2,
                "name": "Total Gas",
                "value": 37356
            }
        ],
        "isConfirmed": true,
        "mainTrace": [
            {
                "children": [
                    {
                        "children": [
                            {
                                "children": [],
                                "depth": 1,
                                "id": 1,
                                "order": 1
                            }
                        ],
                        "depth": 0,
                        "id": 0,
                        "order": 0
                    }
                ],
                "depth": -1,
                "id": -1,
                "order": -1
            }
        ],
        "mainTraceNodeCount": 2,
        "parentIdMap": {
            "0": -1,
            "1": 0
        },
        "tidyTrace": [
            {
                "children": [
                    {
                        "children": [
                            {
                                "children": [],
                                "depth": 1,
                                "id": 1,
                                "order": 1
                            }
                        ],
                        "depth": 0,
                        "id": 0,
                        "order": 0
                    }
                ],
                "depth": -1,
                "id": -1,
                "order": -1
            }
        ],
        "tidyTraceNodeCount": 2
    },
    "state_change": {
        "stateChanges": [
            {
                "address": "0x5ca9a71b1d01849c0a95490cc00559717fcf0d1d",
                "erc": "ERC-20",
                "slots": [
                    {
                        "current": "0x0000000000000000000000000000000000000000000000dc0c5828a6f230e000",
                        "key": "0x3aa837e584efb702b25462250d21288637710c698b8ab51f591c033b9bd2c071",
                        "prev": "0x0000000000000000000000000000000000000000000002fa2638f261a470e000"
                    },
                    {
                        "current": "0x0000000000000000000000000000000000000000000002a5a058fc295ed00000",
                        "key": "0x5c910530181283059952ba227709cdb7dc4b7467bac0aeb19f1b39d3c9d93c2d",
                        "prev": "0x0000000000000000000000000000000000000000000000878678326eac900000"
                    }
                ],
                "storageVariables": [
                    {
                        "name": "balances",
                        "type": "mapping(address => uint256)",
                        "value": {
                            "pairs": [
                                {
                                    "key": "0x23cb7fad46cdcdbab60a1f5bb582252284f83ab8",
                                    "value": {
                                        "current": "12500000000000000000000",
                                        "prev": "2500000000000000000000",
                                        "typeTag": 1
                                    }
                                },
                                {
                                    "key": "0xf5bdd30c3892c2454d2b1d9794221997a56049de",
                                    "value": {
                                        "current": "4059173201840000000000",
                                        "prev": "14059173201840000000000",
                                        "typeTag": 1
                                    }
                                }
                            ],
                            "typeTag": 4
                        }
                    }
                ]
            }
        ]
    }
}