{
    "balance_change": {
        "balanceChanges": []
    },
    "profile": {
        "basic_info": {
            "baseFee": "",
            "blockNumber": 4522264,
            "callData": "0x278b8c0e0000000000000000000000000000000000000000000000000000000000000000000000000000000000000000000000000000000000000000506bf8e324be7000000000000000000000000000255aa6df07540cb5d3d297f0d0d4d84cb52bc8e600000000000000000000000000000000000000000000003635c9adc5dea00000000000000000000000000000000000000000000000000000000000000045016a00000000000000000000000000000000000000000000000000000000e94650fd000000000000000000000000000000000000000000000000000000000000001cb615ae44d391577b2edb38f2c5d66802e9d88be9b193ab75205617b38ba694f3343488fbc2d56d3863be215a0497a3b17c6481de5bfdee2c2b9b4c41a5eb74c5",
            "debugEnable": true,
            "errorInfo": "",
            "eventCount": 1,
            "feeRecipient": "0xb2930b35844a230f00e51431acae96fe543a0347",
            "formatValue": "0",
            "gasLimit": 250000,
            "gasPrice": "1",
            "gasUsed": 59354,
            "intTxnCount": 2,
            "internalRevert": false,
            "internalRevertMessage": "",
            "isContractCreation": false,
            "isFlashloan": false,
            "maxFee": "",
            "nonce": 2750,
            "overwritedBlockNumber": -1,
            "priorityFee": "",
            "receiver": "0x8d12a197cb00d4747a1fe03395095ce2a5cc6819",
            "revertMessage": "",
            "sender": "0xed7f4d43a68a1353004159aa48fcf79e23b5b75f",
            "simulationEnable": true,
            "sourceTxnHash": "0x208d9b013934d897b43f565a920805aab7c54030777f20f84f2a98d0b4f4c6d7",
            "status": true,
            "timestamp": "2017-11-09T21:43:12Z",
            "transactionFee": "0.000059354",
            "txnHash": "0x208d9b013934d897b43f565a920805aab7c54030777f20f84f2a98d0b4f4c6d7",
            "txnIndex": 38,
            "type": 0,
            "value": "0"
        },
        "fund_flow": [],
        "token_infos": [
            {
                "address": "0xc02aaa39b223fe8d0a0e5c4f27ead9083c756cc2",
                "decimals": 18
            },
            {
                "address": "0xeeeeeeeeeeeeeeeeeeeeeeeeeeeeeeeeeeeeeeee",
                "decimals": 18
            }
        ]
    },
    "address_label": {
        "labels": [
            {
                "address": "0x0000000000000000000000000000000000000002",
                "label": "Precompiled"
            },
            {
                "address": "0x0000000000000000000000000000000000000000",
                "label": "Null Address"
            },
            {
                "address": "0x0000000000000000000000000000000000000001",
                "label": "Precompiled"
            },
            {
                "address": "0x0000000000000000000000000000000000000003",
                "label": "Precompiled"
            },
            {
                "address": "0x0000000000000000000000000000000000000004",
                "label": "Precompiled"
            },
            {
                "address": "0xeeeeeeeeeeeeeeeeeeeeeeeeeeeeeeeeeeeeeeee",
                "label": "Ether"
            },
            {
                "address": "0x8d12a197cb00d4747a1fe03395095ce2a5cc6819",
                "label": "EtherDelta"
            },
            {
                "address": "0x255aa6df07540cb5d3d297f0d0d4d84cb52bc8e6",
                "label": "Raiden Token"
            }
        ]
    },
    "trace": {
        "accountLabels": null,
        "dataMap": {
            "-1": {
                "invocation": {
                    "address": "0xed7f4d43a68a1353004159aa48fcf79e23b5b75f",
                    "callData": "",
                    "decodedMethod": null,
                    "errorInfo": "",
                    "fromAddress": "",
                    "gasUsed": 0,
                    "id": -1,
                    "methodDecoded": false,
                    "operation": "",
                    "output": "",
                    "revert": false,
                    "revertMessage": "",
                    "selector": "",
                    "status": false,
                    "value": ""
                },
                "nodeType": 0
            },
            "0": {
                "invocation": {
                    "address": "0x8d12a197cb00d4747a1fe03395095ce2a5cc6819",
                    "callData": "0x0000000000000000000000000000000000000000000000000000000000000000000000000000000000000000000000000000000000000000506bf8e324be7000000000000000000000000000255aa6df07540cb5d3d297f0d0d4d84cb52bc8e600000000000000000000000000000000000000000000003635c9adc5dea00000000000000000000000000000000000000000000000000000000000000045016a00000000000000000000000000000000000000000000000000000000e94650fd000000000000000000000000000000000000000000000000000000000000001cb615ae44d391577b2edb38f2c5d66802e9d88be9b193ab75205617b38ba694f3343488fbc2d56d3863be215a0497a3b17c6481de5bfdee2c2b9b4c41a5eb74c5",
                    "decodedMethod": {
                        "callParams": [
                            {
                                "name": "tokenGet",
                                "type": "address",
                                "value": "0x0000000000000000000000000000000000000000"
                            },
                            {
                                "name": "amountGet",
                                "type": "uint256",
                                "value": "5,794,999,000,000,000,000"
                            },
                            {
                                "name": "tokenGive",
                                "type": "address",
                                "value": "0x255aa6df07540cb5d3d297f0d0d4d84cb52bc8e6"
                            },
                            {
                                "name": "amountGive",
                                "type": "uint256",
                                "value": "1,000,000,000,000,000,000,000"
                            },
                            {
                                "name": "expires",
                                "type": "uint256",
                                "value": "4,522,346"
                            },
                            {
                                "name": "nonce",
                                "type": "uint256",
                                "value": "3,913,699,581"
                            },
                            {
                                "name": "v",
                                "type": "uint8",
                                "value": "28"
                            },
                            {
                                "name": "r",
                                "type": "bytes32",
                                "value": "0xb615ae44d391577b2edb38f2c5d66802e9d88be9b193ab75205617b38ba694f3"
                            },
                            {
                                "name": "s",
                                "type": "bytes32",
                                "value": "0x343488fbc2d56d3863be215a0497a3b17c6481de5bfdee2c2b9b4c41a5eb74c5"
                            }
                        ],
                        "constructorArguments": "",
                        "name": "cancelOrder",
                        "returnParams": [],
                        "signature": "cancelOrder(address,uint256,address,uint256,uint256,uint256,uint8,bytes32,bytes32)"
                    },
                    "errorInfo": "",
                    "fromAddress": "0xed7f4d43a68a1353004159aa48fcf79e23b5b75f",
                    "gasUsed": 59354,
                    "id": 0,
                    "methodDecoded": true,
                    "operation": "CALL",
                    "output": "",
                    "revert": false,
                    "revertMessage": "",
                    "selector": "0x278b8c0e",
                    "status": true,
                    "value": "0"
                },
                "nodeType": 0
            },
            "1": {
                "invocation": {
                    "address": "0x0000000000000000000000000000000000000002",
                    "callData": "0xcb00d4747a1fe03395095ce2a5cc68190000000000000000000000000000000000000000000000000000000000000000000000000000000000000000506bf8e324be7000255aa6df07540cb5d3d297f0d0d4d84cb52bc8e600000000000000000000000000000000000000000000003635c9adc5dea00000000000000000000000000000000000000000000000000000000000000045016a00000000000000000000000000000000000000000000000000000000e94650fd",
                    "decodedMethod": {
                        "callParams": [
                            {
                                "name": "data",
                                "type": "bytes",
                                "value": "0x8d12a197cb00d4747a1fe03395095ce2a5cc68190000000000000000000000000000000000000000000000000000000000000000000000000000000000000000506bf8e324be7000255aa6df07540cb5d3d297f0d0d4d84cb52bc8e600000000000000000000000000000000000000000000003635c9adc5dea00000000000000000000000000000000000000000000000000000000000000045016a00000000000000000000000000000000000000000000000000000000e94650fd"
                            }
                        ],
                        "constructorArguments": "",
                        "name": "sha256hash",
                        "returnParams": [
                            {
                                "name": "hash",
                                "type": "bytes32",
                                "value": "0x8a45a4453eba146b08f185291ca60f2f0f0bf15cb92976c1737964d49fc4371a"
                            }
                        ],
                        "signature": "sha256hash(bytes)"
                    },
                    "errorInfo": "",
                    "fromAddress": "0x8d12a197cb00d4747a1fe03395095ce2a5cc6819",
                    "gasUsed": 132,
                    "id": 1,
                    "methodDecoded": true,
                    "operation": "CALL",
                    "output": "0x8a45a4453eba146b08f185291ca60f2f0f0bf15cb92976c1737964d49fc4371a",
                    "revert": false,
                    "revertMessage": "",
                    "selector": "0x8d12a197",
                    "status": true,
                    "value": "0"
                },
                "nodeType": 0
            },
            "2": {
                "invocation": {
                    "address": "0x0000000000000000000000000000000000000001",
                    "callData": "0x5cd92fb83e64087f701a44ec1a88a722f10233a360fa81773b6a7882000000000000000000000000000000000000000000000000000000000000001cb615ae44d391577b2edb38f2c5d66802e9d88be9b193ab75205617b38ba694f3343488fbc2d56d3863be215a0497a3b17c6481de5bfdee2c2b9b4c41a5eb74c5",
                    "decodedMethod": {
                        "callParams": [
                            {
                                "name": "hash",
                                "type": "bytes32",
                                "value": "0x2420f6495cd92fb83e64087f701a44ec1a88a722f10233a360fa81773b6a7882"
                            },
                            {
                                "name": "v",
                                "type": "uint256",
                                "value": "28"
                            },
                            {
                                "name": "r",
                                "type": "bytes32",
                                "value": "0xb615ae44d391577b2edb38f2c5d66802e9d88be9b193ab75205617b38ba694f3"
                            },
                            {
                                "name": "s",
                                "type": "bytes32",
                                "value": "0x343488fbc2d56d3863be215a0497a3b17c6481de5bfdee2c2b9b4c41a5eb74c5"
                            }
                        ],
                        "constructorArguments": "",
                        "name": "ecrecover",
                        "returnParams": [
                            {
                                "name": "",
                                "type": "address",
                                "value": "0xed7f4d43a68a1353004159aa48fcf79e23b5b75f"
                            }
                        ],
                        "signature": "ecrecover(bytes32,uint256,bytes32,bytes32)"
                    },
                    "errorInfo": "",
                    "fromAddress": "0x8d12a197cb00d4747a1fe03395095ce2a5cc6819",
                    "gasUsed": 3000,
                    "id": 2,
                    "methodDecoded": true,
                    "operation": "CALL",
                    "output": "0x000000000000000000000000ed7f4d43a68a1353004159aa48fcf79e23b5b75f",
                    "revert": false,
                    "revertMessage": "",
                    "selector": "0x2420f649",
                    "status": true,
                    "value": "0"
                },
                "nodeType": 0
            },
            "3": {
                "event": {
                    "contract": "0x8d12a197cb00d4747a1fe03395095ce2a5cc6819",
                    "decodedLog": {
                        "name": "Cancel",
                        "params": [
                            {
                                "name": "tokenGet",
                                "type": "address",
                                "value": "0x0000000000000000000000000000000000000000"
                            },
                            {
                                "name": "amountGet",
                                "type": "uint256",
                                "value": "5,794,999,000,000,000,000"
                            },
                            {
                                "name": "tokenGive",
                                "type": "address",
                                "value": "0x255aa6df07540cb5d3d297f0d0d4d84cb52bc8e6"
                            },
                            {
                                "name": "amountGive",
                                "type": "uint256",
                                "value": "1,000,000,000,000,000,000,000"
                            },
                            {
                                "name": "expires",
                                "type": "uint256",
                                "value": "4,522,346"
                            },
                            {
                                "name": "nonce",
                                "type": "uint256",
                                "value": "3,913,699,581"
                            },
                            {
                                "name": "user",
                                "type": "address",
                                "value": "0xed7f4d43a68a1353004159aa48fcf79e23b5b75f"
                            },
                            {
                                "name": "v",
                                "type": "uint8",
                                "value": "28"
                            },
                            {
                                "name": "r",
                                "type": "bytes32",
                                "value": "0xb615ae44d391577b2edb38f2c5d66802e9d88be9b193ab75205617b38ba694f3"
                            },
                            {
                                "name": "s",
                                "type": "bytes32",
                                "value": "0x343488fbc2d56d3863be215a0497a3b17c6481de5bfdee2c2b9b4c41a5eb74c5"
                            }
                        ],
                        "signature": "Cancel(address,uint256,address,uint256,uint256,uint256,address,uint8,bytes32,bytes32)"
                    },
                    "id": 3,
                    "logData": "0x0000000000000000000000000000000000000000000000000000000000000000000000000000000000000000000000000000000000000000506bf8e324be7000000000000000000000000000255aa6df07540cb5d3d297f0d0d4d84cb52bc8e600000000000000000000000000000000000000000000003635c9adc5dea00000000000000000000000000000000000000000000000000000000000000045016a00000000000000000000000000000000000000000000000000000000e94650fd000000000000000000000000ed7f4d43a68a1353004159aa48fcf79e23b5b75f000000000000000000000000000000000000000000000000000000000000001cb615ae44d391577b2edb38f2c5d66802e9d88be9b193ab75205617b38ba694f3343488fbc2d56d3863be215a0497a3b17c6481de5bfdee2c2b9b4c41a5eb74c5",
                    "logDecoded": true,
                    "operation": "EVENT",
                    "revert": false,
                    "status": true,
                    "topics": [
                        "0x1e0b760c386003e9cb9bcf4fcf3997886042859d9b6ed6320e804597fcdb28b0"
                    ]
                },
                "nodeType": 1
            }
        },
        "gasFlame": [
            {
                "children": [
                    {
                        "children": [
                            {
                                "children": [],
                                "depth": 0,
                                "name": "Initial Gas",
                                "value": 29208
                            },
                            {
                                "children": [
                                    {
                                        "children": [],
                                        "depth": 1,
                                        "name": "sha256hash",
                                        "value": 132
                                    },
                                    {
                                        "children": [],
                                        "depth": 1,
                                        "name": "ecrecover",
                                        "value": 3000
                                    }
                                ],
                                "depth": 0,
                                "name": "Executed Gas",
                                "value": 30146
                            }
                        ],
                        "depth": -1,
                        "name": "Actual Gas Used",
                        "value": 59354
                    },
                    {
                        "children": [],
                        "depth": -1,
                        "name": "Refunded Gas",
                        "value": 0
                    }
                ],
                "depth": -2,
                "name": "Total Gas",
                "value": 59354
            }
        ],
        "isConfirmed": true,
        "mainTrace": [
            {
                "children": [
                    {
                        "children": [
                            {
                                "children": [],
                                "depth": 1,
                                "id": 1,
                                "order": 1
                            },
                            {
                                "children": [],
                                "depth": 1,
                                "id": 2,
                                "order": 2
                            },
                            {
                                "children": [],
                                "depth": 1,
                                "id": 3,
                                "order": 3
                            }
                        ],
                        "depth": 0,
                        "id": 0,
                        "order": 0
                    }
                ],
                "depth": -1,
                "id": -1,
                "order": -1
            }
        ],
        "mainTraceNodeCount": 4,
        "parentIdMap": {
            "0": -1,
            "1": 0,
            "2": 0,
            "3": 0
        },
        "tidyTrace": [
            {
                "children": [
                    {
                        "children": [
                            {
                                "children": [],
                                "depth": 1,
                                "id": 1,
                                "order": 1
                            },
                            {
                                "children": [],
                                "depth": 1,
                                "id": 2,
                                "order": 2
                            },
                            {
                                "children": [],
                                "depth": 1,
                                "id": 3,
                                "order": 3
                            }
                        ],
                        "depth": 0,
                        "id": 0,
                        "order": 0
                    }
                ],
                "depth": -1,
                "id": -1,
                "order": -1
            }
        ],
        "tidyTraceNodeCount": 4
    },
    "state_change": {
        "stateChanges": [
            {
                "address": "0x8d12a197cb00d4747a1fe03395095ce2a5cc6819",
                "erc": "",
                "slots": [
                    {
                        "current": "0x000000000000000000000000000000000000000000000000506bf8e324be7000",
                        "key": "0xc324201e526eb1f2b1a9def0d3a11ef54ea14fbf33c3320cb7b000dae885cb36",
                        "prev": "0x0000000000000000000000000000000000000000000000000000000000000000"
                    }
                ],
                "storageVariables": []
            }
        ]
    }
}