{
    "balance_change": {
        "balanceChanges": [
            {
                "account": "0x3417daa47dc74596fde80559dadd5f7bac7b992e",
                "assets": [
                    {
                        "address": "0x3819f64f282bf135d62168c1e513280daf905e06",
                        "amount": "63,000,000",
                        "iconUrl": "",
                        "isERC1155": false,
                        "isERC721": false,
                        "sign": false,
                        "value": "180.9036418"
                    }
                ]
            },
            {
                "account": "0x0000000000000000000000000000000000000000",
                "assets": [
                    {
                        "address": "0x3819f64f282bf135d62168c1e513280daf905e06",
                        "amount": "54,500,000",
                        "iconUrl": "",
                        "isERC1155": false,
                        "isERC721": false,
                        "sign": true,
                        "value": "156.5030807"
                    }
                ]
            },
            {
                "account": "0x7a48a425fc359b0e17d19916298ca93608cac82a",
                "assets": [
                    {
                        "address": "0x3819f64f282bf135d62168c1e513280daf905e06",
                        "amount": "8,500,000",
                        "iconUrl": "",
                        "isERC1155": false,
                        "isERC721": false,
                        "sign": true,
                        "value": "24.41470921"
                    }
                ]
            }
        ]
    },
    "profile": {
        "basic_info": {
            "baseFee": "14.960461433",
            "blockNumber": 15971177,
            "callData": "0x61c2acc300000000000000000000000000000000000000000000000000000000000005ba00000000000000000000000000000000000000000000000000dfd22a8cd98000",
            "debugEnable": true,
            "errorInfo": "",
            "eventCount": 3,
            "feeRecipient": "0x690b9a9e9aa1c9db991c7721a92d351db4fac990",
            "formatValue": "0",
            "gasLimit": 70164,
            "gasPrice": "16.460461433",
            "gasUsed": 70063,
            "intTxnCount": 2,
            "internalRevert": false,
            "internalRevertMessage": "",
            "isContractCreation": false,
            "isFlashloan": false,
            "maxFee": "21.378758784",
            "nonce": 748,
            "overwritedBlockNumber": -1,
            "priorityFee": "1.5",
            "receiver": "0x3819f64f282bf135d62168c1e513280daf905e06",
            "revertMessage": "",
            "sender": "0x3417daa47dc74596fde80559dadd5f7bac7b992e",
            "simulationEnable": true,
            "sourceTxnHash": "0x201ec2b9a536a981a394d4473fea0dda785a24cd2d921fd40773f2accb1a92d2",
            "status": true,
            "timestamp": "2022-11-14T22:11:11Z",
            "transactionFee": "0.001153269309380279",
            "txnHash": "0x201ec2b9a536a981a394d4473fea0dda785a24cd2d921fd40773f2accb1a92d2",
            "txnIndex": 26,
            "type": 2,
            "value": "0"
        },
        "fund_flow": [
            {
                "amount": "8,500,000",
                "from": "0x0000000000000000000000000000000000000000",
                "id": 1,
                "isERC1155": false,
                "isERC721": false,
                "isReverted": false,
                "order": 1,
                "to": "0x7a48a425fc359b0e17d19916298ca93608cac82a",
                "token": "0x3819f64f282bf135d62168c1e513280daf905e06"
            },
            {
                "amount": "63,000,000",
                "from": "0x3417daa47dc74596fde80559dadd5f7bac7b992e",
                "id": 2,
                "isERC1155": false,
                "isERC721": false,
                "isReverted": false,
                "order": 2,
                "to": "0x0000000000000000000000000000000000000000",
                "token": "0x3819f64f282bf135d62168c1e513280daf905e06"
            }
        ],
        "token_infos": [
            {
                "address": "0xeeeeeeeeeeeeeeeeeeeeeeeeeeeeeeeeeeeeeeee",
                "decimals": 18
            },
            {
                "address": "0x3819f64f282bf135d62168c1e513280daf905e06",
                "decimals": 9
            },
            {
                "address": "0xc02aaa39b223fe8d0a0e5c4f27ead9083c756cc2",
                "decimals": 18
            }
        ]
    },
    "address_label": {
        "labels": [
            {
                "address": "0xeeeeeeeeeeeeeeeeeeeeeeeeeeeeeeeeeeeeeeee",
                "label": "Ether"
            },
            {
                "address": "0x3819f64f282bf135d62168c1e513280daf905e06",
                "label": "Hedron: HDRN Token"
            },
            {
                "address": "0x64de999ce2fcbcf4f37ab16341de78ddf8722ad2",
                "label": "HEXStakeInstance"
            },
            {
                "address": "0x0000000000000000000000000000000000000001",
                "label": "Precompiled"
            },
            {
                "address": "0x0000000000000000000000000000000000000002",
                "label": "Precompiled"
            },
            {
                "address": "0x0000000000000000000000000000000000000003",
                "label": "Precompiled"
            },
            {
                "address": "0x0000000000000000000000000000000000000004",
                "label": "Precompiled"
            }
        ]
    },
    "trace": {
        "accountLabels": null,
        "dataMap": {
            "-1": {
                "invocation": {
                    "address": "0x3417daa47dc74596fde80559dadd5f7bac7b992e",
                    "callData": "",
                    "decodedMethod": null,
                    "errorInfo": "",
                    "fromAddress": "",
                    "gasUsed": 0,
                    "id": -1,
                    "methodDecoded": false,
                    "operation": "",
                    "output": "",
                    "revert": false,
                    "revertMessage": "",
                    "selector": "",
                    "status": false,
                    "value": ""
                },
                "nodeType": 0
            },
            "0": {
                "invocation": {
                    "address": "0x3819f64f282bf135d62168c1e513280daf905e06",
                    "callData": "0x00000000000000000000000000000000000000000000000000000000000005ba00000000000000000000000000000000000000000000000000dfd22a8cd98000",
                    "decodedMethod": {
                        "callParams": [
                            {
                                "name": "liquidationId",
                                "type": "uint256",
                                "value": "1,466"
                            },
                            {
                                "name": "liquidationBid",
                                "type": "uint256",
                                "value": "63,000,000,000,000,000"
                            }
                        ],
                        "constructorArguments": "",
                        "name": "loanLiquidateBid",
                        "returnParams": [
                            {
                                "name": "",
                                "type": "uint256",
                                "value": "1,668,464,507"
                            }
                        ],
                        "signature": "loanLiquidateBid(uint256,uint256)"
                    },
                    "errorInfo": "",
                    "fromAddress": "0x3417daa47dc74596fde80559dadd5f7bac7b992e",
                    "gasUsed": 70063,
                    "id": 0,
                    "methodDecoded": true,
                    "operation": "CALL",
                    "output": "0x000000000000000000000000000000000000000000000000000000006372bf7b",
                    "revert": false,
                    "revertMessage": "",
                    "selector": "0x61c2acc3",
                    "status": true,
                    "value": "0"
                },
                "nodeType": 0
            },
            "1": {
                "event": {
                    "contract": "0x3819f64f282bf135d62168c1e513280daf905e06",
                    "decodedLog": {
                        "name": "Transfer",
                        "params": [
                            {
                                "name": "from",
                                "type": "address",
                                "value": "0x0000000000000000000000000000000000000000"
                            },
                            {
                                "name": "to",
                                "type": "address",
                                "value": "0x7a48a425fc359b0e17d19916298ca93608cac82a"
                            },
                            {
                                "decimalAvailable": true,
                                "name": "value",
                                "type": "uint256",
                                "value": "8,500,000,000,000,000"
                            }
                        ],
                        "signature": "Transfer(address,address,uint256)"
                    },
                    "id": 1,
                    "logData": "0x000000000000000000000000000000000000000000000000001e32b478974000",
                    "logDecoded": true,
                    "operation": "EVENT",
                    "revert": false,
                    "status": true,
                    "topics": [
                        "0xddf252ad1be2c89b69c2b068fc378daa952ba7f163c4a11628f55a4df523b3ef",
                        "0x0000000000000000000000000000000000000000000000000000000000000000",
                        "0x0000000000000000000000007a48a425fc359b0e17d19916298ca93608cac82a"
                    ]
                },
                "nodeType": 1
            },
            "2": {
                "invocation": {
                    "address": "0x38dd47ef3801e8052f813f2f6c00fbeffa8d618a",
                    "callData": "0x",
                    "decodedMethod": {
                        "callParams": [],
                        "constructorArguments": "",
                        "name": "share",
                        "returnParams": [
                            {
                                "name": "stake",
                                "type": "(uint40,uint72,uint16,uint16)",
                                "value": [
                                    {
                                        "name": "stakeId",
                                        "type": "uint40",
                                        "value": "676,672"
                                    },
                                    {
                                        "name": "stakeShares",
                                        "type": "uint72",
                                        "value": "1,294,450,988,598"
                                    },
                                    {
                                        "name": "lockedDay",
                                        "type": "uint16",
                                        "value": "987"
                                    },
                                    {
                                        "name": "stakedDays",
                                        "type": "uint16",
                                        "value": "5,555"
                                    }
                                ]
                            },
                            {
                                "name": "mintedDays",
                                "type": "uint16",
                                "value": "0"
                            },
                            {
                                "name": "launchBonus",
                                "type": "uint8",
                                "value": "0"
                            },
                            {
                                "name": "loanStart",
                                "type": "uint16",
                                "value": "0"
                            },
                            {
                                "name": "loanedDays",
                                "type": "uint16",
                                "value": "0"
                            },
                            {
                                "name": "interestRate",
                                "type": "uint32",
                                "value": "0"
                            },
                            {
                                "name": "paymentsMade",
                                "type": "uint8",
                                "value": "0"
                            },
                            {
                                "name": "isLoaned",
                                "type": "bool",
                                "value": false
                            }
                        ],
                        "signature": "share()"
                    },
                    "errorInfo": "",
                    "fromAddress": "0x3819f64f282bf135d62168c1e513280daf905e06",
                    "gasUsed": 7762,
                    "id": 2,
                    "methodDecoded": true,
                    "operation": "STATICCALL",
                    "output": "0x00000000000000000000000000000000000000000000000000000000000a53400000000000000000000000000000000000000000000000000000012d634a963600000000000000000000000000000000000000000000000000000000000003db00000000000000000000000000000000000000000000000000000000000015b30000000000000000000000000000000000000000000000000000000000000000000000000000000000000000000000000000000000000000000000000000000000000000000000000000000000000000000000000000000000000000000000000000000000000000000000000000000000000000000000000000000000000000000000000000000000000000000000000000000000000000000000000000000000000000000000000000000000000000000000000000000000000000000000000000000000000000000000000000000000000000000000000000000000000000",
                    "revert": false,
                    "revertMessage": "",
                    "selector": "0xa8d5fd65",
                    "status": true,
                    "value": "0"
                },
                "nodeType": 0
            },
            "3": {
                "invocation": {
                    "address": "0x64de999ce2fcbcf4f37ab16341de78ddf8722ad2",
                    "callData": "0x",
                    "decodedMethod": {
                        "callParams": [],
                        "constructorArguments": "",
                        "name": "share",
                        "returnParams": [
                            {
                                "name": "stake",
                                "type": "(uint40,uint72,uint16,uint16)",
                                "value": [
                                    {
                                        "name": "stakeId",
                                        "type": "uint40",
                                        "value": "676,672"
                                    },
                                    {
                                        "name": "stakeShares",
                                        "type": "uint72",
                                        "value": "1,294,450,988,598"
                                    },
                                    {
                                        "name": "lockedDay",
                                        "type": "uint16",
                                        "value": "987"
                                    },
                                    {
                                        "name": "stakedDays",
                                        "type": "uint16",
                                        "value": "5,555"
                                    }
                                ]
                            },
                            {
                                "name": "mintedDays",
                                "type": "uint16",
                                "value": "0"
                            },
                            {
                                "name": "launchBonus",
                                "type": "uint8",
                                "value": "0"
                            },
                            {
                                "name": "loanStart",
                                "type": "uint16",
                                "value": "0"
                            },
                            {
                                "name": "loanedDays",
                                "type": "uint16",
                                "value": "0"
                            },
                            {
                                "name": "interestRate",
                                "type": "uint32",
                                "value": "0"
                            },
                            {
                                "name": "paymentsMade",
                                "type": "uint8",
                                "value": "0"
                            },
                            {
                                "name": "isLoaned",
                                "type": "bool",
                                "value": false
                            }
                        ],
                        "signature": "share()"
                    },
                    "errorInfo": "",
                    "fromAddress": "0x38dd47ef3801e8052f813f2f6c00fbeffa8d618a",
                    "gasUsed": 5036,
                    "id": 3,
                    "methodDecoded": true,
                    "operation": "DELEGATECALL",
                    "output": "0x00000000000000000000000000000000000000000000000000000000000a53400000000000000000000000000000000000000000000000000000012d634a963600000000000000000000000000000000000000000000000000000000000003db00000000000000000000000000000000000000000000000000000000000015b30000000000000000000000000000000000000000000000000000000000000000000000000000000000000000000000000000000000000000000000000000000000000000000000000000000000000000000000000000000000000000000000000000000000000000000000000000000000000000000000000000000000000000000000000000000000000000000000000000000000000000000000000000000000000000000000000000000000000000000000000000000000000000000000000000000000000000000000000000000000000000000000000000000000000000",
                    "revert": false,
                    "revertMessage": "",
                    "selector": "0xa8d5fd65",
                    "status": true,
                    "value": "0"
                },
                "nodeType": 0
            },
            "4": {
                "event": {
                    "contract": "0x3819f64f282bf135d62168c1e513280daf905e06",
                    "decodedLog": {
                        "name": "LoanLiquidateBid",
                        "params": [
                            {
                                "name": "bidder",
                                "type": "address",
                                "value": "0x3417daa47dc74596fde80559dadd5f7bac7b992e"
                            },
                            {
                                "name": "stakeId",
                                "type": "uint40",
                                "value": "676,672"
                            },
                            {
                                "name": "liquidationId",
                                "type": "uint40",
                                "value": "1,466"
                            },
                            {
                                "name": "data",
                                "type": "uint256",
                                "value": "69,269,232,549,888,000,001,668,463,871"
                            }
                        ],
                        "signature": "LoanLiquidateBid(uint256,address,uint40,uint40)"
                    },
                    "id": 4,
                    "logData": "0x0000000000000000000000000000000000000000dfd22a8cd98000006372bcff",
                    "logDecoded": true,
                    "operation": "EVENT",
                    "revert": false,
                    "status": true,
                    "topics": [
                        "0xe8a39971ed535d13041f79f54ea41f45a2435bc8e608d91068e374606bce9eb8",
                        "0x0000000000000000000000003417daa47dc74596fde80559dadd5f7bac7b992e",
                        "0x00000000000000000000000000000000000000000000000000000000000a5340",
                        "0x00000000000000000000000000000000000000000000000000000000000005ba"
                    ]
                },
                "nodeType": 1
            },
            "5": {
                "event": {
                    "contract": "0x3819f64f282bf135d62168c1e513280daf905e06",
                    "decodedLog": {
                        "name": "Transfer",
                        "params": [
                            {
                                "name": "from",
                                "type": "address",
                                "value": "0x3417daa47dc74596fde80559dadd5f7bac7b992e"
                            },
                            {
                                "name": "to",
                                "type": "address",
                                "value": "0x0000000000000000000000000000000000000000"
                            },
                            {
                                "decimalAvailable": true,
                                "name": "value",
                                "type": "uint256",
                                "value": "63,000,000,000,000,000"
                            }
                        ],
                        "signature": "Transfer(address,address,uint256)"
                    },
                    "id": 5,
                    "logData": "0x00000000000000000000000000000000000000000000000000dfd22a8cd98000",
                    "logDecoded": true,
                    "operation": "EVENT",
                    "revert": false,
                    "status": true,
                    "topics": [
                        "0xddf252ad1be2c89b69c2b068fc378daa952ba7f163c4a11628f55a4df523b3ef",
                        "0x0000000000000000000000003417daa47dc74596fde80559dadd5f7bac7b992e",
                        "0x0000000000000000000000000000000000000000000000000000000000000000"
                    ]
                },
                "nodeType": 1
            }
        },
        "gasFlame": [
            {
                "children": [
                    {
                        "children": [
                            {
                                "children": [],
                                "depth": 0,
                                "name": "Initial Gas",
                                "value": 21416
                            },
                            {
                                "children": [
                                    {
                                        "children": [
                                            {
                                                "children": [],
                                                "depth": 2,
                                                "name": "share",
                                                "value": 5036
                                            }
                                        ],
                                        "depth": 1,
                                        "name": "share",
                                        "value": 7762
                                    }
                                ],
                                "depth": 0,
                                "name": "Executed Gas",
                                "value": 48647
                            }
                        ],
                        "depth": -1,
                        "name": "Actual Gas Used",
                        "value": 70063
                    },
                    {
                        "children": [],
                        "depth": -1,
                        "name": "Refunded Gas",
                        "value": 0
                    }
                ],
                "depth": -2,
                "name": "Total Gas",
                "value": 70063
            }
        ],
        "isConfirmed": true,
        "mainTrace": [
            {
                "children": [
                    {
                        "children": [
                            {
                                "children": [],
                                "depth": 1,
                                "id": 1,
                                "order": 1
                            },
                            {
                                "children": [
                                    {
                                        "children": [],
                                        "depth": 2,
                                        "id": 3,
                                        "order": 3
                                    }
                                ],
                                "depth": 1,
                                "id": 2,
                                "order": 2
                            },
                            {
                                "children": [],
                                "depth": 1,
                                "id": 4,
                                "order": 4
                            },
                            {
                                "children": [],
                                "depth": 1,
                                "id": 5,
                                "order": 5
                            }
                        ],
                        "depth": 0,
                        "id": 0,
                        "order": 0
                    }
                ],
                "depth": -1,
                "id": -1,
                "order": -1
            }
        ],
        "mainTraceNodeCount": 6,
        "parentIdMap": {
            "0": -1,
            "1": 0,
            "2": 0,
            "3": 2,
            "4": 0,
            "5": 0
        },
        "tidyTrace": [
            {
                "children": [
                    {
                        "children": [
                            {
                                "children": [],
                                "depth": 1,
                                "id": 1,
                                "order": 1
                            },
                            {
                                "children": [],
                                "depth": 1,
                                "id": 4,
                                "order": 4
                            },
                            {
                                "children": [],
                                "depth": 1,
                                "id": 5,
                                "order": 5
                            }
                        ],
                        "depth": 0,
                        "id": 0,
                        "order": 0
                    }
                ],
                "depth": -1,
                "id": -1,
                "order": -1
            }
        ],
        "tidyTraceNodeCount": 4
    },
    "state_change": {
        "stateChanges": [
            {
                "address": "0x3819f64f282bf135d62168c1e513280daf905e06",
                "erc": "ERC-20",
                "slots": [
                    {
                        "current": "0x0000000000000000000000000000000000000000000017b926e3c2e84c92d94f",
                        "key": "0x0000000000000000000000000000000000000000000000000000000000000002",
                        "prev": "0x0000000000000000000000000000000000000000000017b927a5625e60d5194f"
                    },
                    {
                        "current": "0x000000000000000000000000000000000000000000000000077c010593317add",
                        "key": "0x4a18d79f59601c7fd73be70ce928860ed6d578cb7d12f590fbb8952a99f9e856",
                        "prev": "0x000000000000000000000000000000000000000000000000075dce511a9a3add"
                    },
                    {
                        "current": "0x0000000000dfd22a8cd9800038dd47ef3801e8052f813f2f6c00fbeffa8d618a",
                        "key": "0xe30158fbb5be451f852aeb532b5361a02e61ccdad0d372af7bd059814a99b0d7",
                        "prev": "0x00000000001e32b47897400038dd47ef3801e8052f813f2f6c00fbeffa8d618a"
                    },
                    {
                        "current": "0x0100000000000000000000003417daa47dc74596fde80559dadd5f7bac7b992e",
                        "key": "0xe30158fbb5be451f852aeb532b5361a02e61ccdad0d372af7bd059814a99b0d8",
                        "prev": "0x0100000000000000000000007a48a425fc359b0e17d19916298ca93608cac82a"
                    },
                    {
                        "current": "0x00000000000000000000000000000000000000000000000014d70ba249e2208a",
                        "key": "0x7646692b6842fef6454c9e5db6382b635c0be891fbeb3d45035311e246958928",
                        "prev": "0x00000000000000000000000000000000000000000000000015b6ddccd6bba08a"
                    }
                ],
                "storageVariables": [
                    {
                        "name": "_totalSupply",
                        "type": "uint256",
                        "value": {
                            "current": "112029879057334234437967",
                            "prev": "112029933557334234437967",
                            "typeTag": 1
                        }
                    },
                    {
                        "name": "_balances",
                        "type": "mapping(address => uint256)",
                        "value": {
                            "pairs": [
                                {
                                    "key": "0x3417daa47dc74596fde80559dadd5f7bac7b992e",
                                    "value": {
                                        "current": "1501681792403513482",
                                        "prev": "1564681792403513482",
                                        "typeTag": 1
                                    }
                                },
                                {
                                    "key": "0x7a48a425fc359b0e17d19916298ca93608cac82a",
                                    "value": {
                                        "current": "539307178833574621",
                                        "prev": "530807178833574621",
                                        "typeTag": 1
                                    }
                                }
                            ],
                            "typeTag": 4
                        }
                    },
                    {
                        "name": "liquidationList",
                        "type": "mapping(uint256 => struct Hedron.LiquidationStore)",
                        "value": {
                            "pairs": [
                                {
                                    "key": "1466",
                                    "value": {
                                        "fields": [
                                            {
                                                "name": "hsiAddress",
                                                "type": "address",
                                                "value": {
                                                    "current": "0x38dd47ef3801e8052f813f2f6c00fbeffa8d618a",
                                                    "prev": "0x38dd47ef3801e8052f813f2f6c00fbeffa8d618a",
                                                    "typeTag": 1
                                                }
                                            },
                                            {
                                                "name": "bidAmount",
                                                "type": "uint96",
                                                "value": {
                                                    "current": "63000000000000000",
                                                    "prev": "8500000000000000",
                                                    "typeTag": 1
                                                }
                                            },
                                            {
                                                "name": "liquidator",
                                                "type": "address",
                                                "value": {
                                                    "current": "0x3417daa47dc74596fde80559dadd5f7bac7b992e",
                                                    "prev": "0x7a48a425fc359b0e17d19916298ca93608cac82a",
                                                    "typeTag": 1
                                                }
                                            },
                                            {
                                                "name": "endOffset",
                                                "type": "uint88",
                                                "value": {
                                                    "current": "0",
                                                    "prev": "0",
                                                    "typeTag": 1
                                                }
                                            },
                                            {
                                                "name": "isActive",
                                                "type": "bool",
                                                "value": {
                                                    "current": "true",
                                                    "prev": "true",
                                                    "typeTag": 1
                                                }
                                            }
                                        ],
                                        "typeTag": 3
                                    }
                                }
                            ],
                            "typeTag": 4
                        }
                    }
                ]
            }
        ]
    }
}