{
    "balance_change": {
        "balanceChanges": [
            {
                "account": "0x70de1983f4cb94479f09c7e707ba64a4e060eacd",
                "assets": [
                    {
                        "address": "0x7ea2df0f49d1cf7cb3a328f0038822b08aeb0ac1",
                        "amount": "0.32",
                        "iconUrl": "",
                        "isERC1155": false,
                        "isERC721": false,
                        "sign": false,
                        "value": ""
                    }
                ]
            },
            {
                "account": "0x7ea2df0f49d1cf7cb3a328f0038822b08aeb0ac1",
                "assets": [
                    {
                        "address": "0x7ea2df0f49d1cf7cb3a328f0038822b08aeb0ac1",
                        "amount": "0.32",
                        "iconUrl": "",
                        "isERC1155": false,
                        "isERC721": false,
                        "sign": true,
                        "value": ""
                    },
                    {
                        "address": "0xeeeeeeeeeeeeeeeeeeeeeeeeeeeeeeeeeeeeeeee",
                        "amount": "0.32",
                        "iconUrl": "https://assets.blocksec.com/image/1663669189317-3.png",
                        "isERC1155": false,
                        "isERC721": false,
                        "sign": false,
                        "value": ""
                    }
                ]
            },
            {
                "account": "0xfc49e81376d7f5ff6c1aa517fddbd3cbdacffe7d",
                "assets": [
                    {
                        "address": "0xeeeeeeeeeeeeeeeeeeeeeeeeeeeeeeeeeeeeeeee",
                        "amount": "0.32",
                        "iconUrl": "https://assets.blocksec.com/image/1663669189317-3.png",
                        "isERC1155": false,
                        "isERC721": false,
                        "sign": true,
                        "value": ""
                    }
                ]
            }
        ]
    },
    "profile": {
        "basic_info": {
            "baseFee": "",
            "blockNumber": 4446982,
            "callData": "0x3a15021a0000000000000000000000007ea2df0f49d1cf7cb3a328f0038822b08aeb0ac100000000000000000000000000000000000000000000000000000000000000000000000000000000000000000000000000000000000000000000000000000180119c4fb6527155422bb4cedd79135996bd2feba48124acdde1b30c3fade363850000000000000000000000000000000000000000000000000000015f643120160000000000000000000000000000000000000000000000000000000000000003000000000000000000000000000000000000000000000000000000000000001c000000000000000000000000000000000000000000000000000000000000001c7b6c1fc900b700ae6ba9b540de1d68535f2b79bc1aa7656588c29987f7ad72cad38cd4e56703a089e0d26da6a4c89da218e29d394159d847589bcd1b160102847b6ef78a17723227b3af9559c4933fe54a044aeb3e7405cc0cc26045d4c998bf409b80ba379093d805c4905aeea91be4cdad6cda4c2d61957eea8c9e3c4c62740000000000000000000000000000000000000000000000000000000000000044a9059cbb000000000000000000000000fc49e81376d7f5ff6c1aa517fddbd3cbdacffe7d0000000000000000000000000000000000000000000000000470de4df820000000000000000000000000000000000000000000000000000000000000",
            "debugEnable": true,
            "errorInfo": "",
            "eventCount": 4,
            "feeRecipient": "0xea674fdde714fd979de3edf0f56aa9716b898ec8",
            "formatValue": "0",
            "gasLimit": 500000,
            "gasPrice": "10.000000001",
            "gasUsed": 166053,
            "intTxnCount": 17,
            "internalRevert": true,
            "internalRevertMessage": "",
            "isContractCreation": false,
            "isFlashloan": false,
            "maxFee": "",
            "nonce": 89195,
            "overwritedBlockNumber": -1,
            "priorityFee": "",
            "receiver": "0xa51a578c5f9cb286b5dca810be802c6025ebb35f",
            "revertMessage": "",
            "sender": "0xde48a49359d9f0c8609221f77f382e1472ddbab7",
            "simulationEnable": true,
            "sourceTxnHash": "0x216807e3a5fe0474a7300bf188d4b5e2674e39abfa8093ae9fb16ba2a3eb6929",
            "status": true,
            "timestamp": "2017-10-28T18:14:25Z",
            "transactionFee": "0.001660530000166053",
            "txnHash": "0x216807e3a5fe0474a7300bf188d4b5e2674e39abfa8093ae9fb16ba2a3eb6929",
            "txnIndex": 5,
            "type": 0,
            "value": "0"
        },
        "fund_flow": [
            {
                "amount": "0.32",
                "from": "0x70de1983f4cb94479f09c7e707ba64a4e060eacd",
                "id": 1,
                "isERC1155": false,
                "isERC721": false,
                "isReverted": false,
                "order": 1,
                "to": "0x7ea2df0f49d1cf7cb3a328f0038822b08aeb0ac1",
                "token": "0x7ea2df0f49d1cf7cb3a328f0038822b08aeb0ac1"
            },
            {
                "amount": "0.32",
                "from": "0x7ea2df0f49d1cf7cb3a328f0038822b08aeb0ac1",
                "id": 2,
                "isERC1155": false,
                "isERC721": false,
                "isReverted": false,
                "order": 2,
                "to": "0xfc49e81376d7f5ff6c1aa517fddbd3cbdacffe7d",
                "token": "0xeeeeeeeeeeeeeeeeeeeeeeeeeeeeeeeeeeeeeeee"
            }
        ],
        "token_infos": [
            {
                "address": "0x7ea2df0f49d1cf7cb3a328f0038822b08aeb0ac1",
                "decimals": 18
            },
            {
                "address": "0xc02aaa39b223fe8d0a0e5c4f27ead9083c756cc2",
                "decimals": 18
            },
            {
                "address": "0xeeeeeeeeeeeeeeeeeeeeeeeeeeeeeeeeeeeeeeee",
                "decimals": 18
            }
        ]
    },
    "address_label": {
        "labels": [
            {
                "address": "0x0000000000000000000000000000000000000004",
                "label": "Precompiled"
            },
            {
                "address": "0x331d077518216c07c87f4f18ba64cd384c411f84",
                "label": "EToken2"
            },
            {
                "address": "0xeeeeeeeeeeeeeeeeeeeeeeeeeeeeeeeeeeeeeeee",
                "label": "Ether"
            },
            {
                "address": "0x7ea2df0f49d1cf7cb3a328f0038822b08aeb0ac1",
                "label": "EtherToken (ETH)"
            },
            {
                "address": "0x60bf91ac87fee5a78c28f7b67701fbcfa79c18ec",
                "label": "historyEToken"
            },
            {
                "address": "0x0000000000000000000000000000000000000003",
                "label": "Precompiled"
            },
            {
                "address": "0x4e8703a59fec01a97d4d2d76271e4f086dbb52fc",
                "label": "MultiAssetEmitter"
            },
            {
                "address": "0x0000000000000000000000000000000000000001",
                "label": "Precompiled"
            },
            {
                "address": "0x0000000000000000000000000000000000000002",
                "label": "Precompiled"
            }
        ]
    },
    "trace": {
        "accountLabels": null,
        "dataMap": {
            "-1": {
                "invocation": {
                    "address": "0xde48a49359d9f0c8609221f77f382e1472ddbab7",
                    "callData": "",
                    "decodedMethod": null,
                    "errorInfo": "",
                    "fromAddress": "",
                    "gasUsed": 0,
                    "id": -1,
                    "methodDecoded": false,
                    "operation": "",
                    "output": "",
                    "revert": false,
                    "revertMessage": "",
                    "selector": "",
                    "status": false,
                    "value": ""
                },
                "nodeType": 0
            },
            "0": {
                "invocation": {
                    "address": "0xa51a578c5f9cb286b5dca810be802c6025ebb35f",
                    "callData": "0x0000000000000000000000007ea2df0f49d1cf7cb3a328f0038822b08aeb0ac100000000000000000000000000000000000000000000000000000000000000000000000000000000000000000000000000000000000000000000000000000180119c4fb6527155422bb4cedd79135996bd2feba48124acdde1b30c3fade363850000000000000000000000000000000000000000000000000000015f643120160000000000000000000000000000000000000000000000000000000000000003000000000000000000000000000000000000000000000000000000000000001c000000000000000000000000000000000000000000000000000000000000001c7b6c1fc900b700ae6ba9b540de1d68535f2b79bc1aa7656588c29987f7ad72cad38cd4e56703a089e0d26da6a4c89da218e29d394159d847589bcd1b160102847b6ef78a17723227b3af9559c4933fe54a044aeb3e7405cc0cc26045d4c998bf409b80ba379093d805c4905aeea91be4cdad6cda4c2d61957eea8c9e3c4c62740000000000000000000000000000000000000000000000000000000000000044a9059cbb000000000000000000000000fc49e81376d7f5ff6c1aa517fddbd3cbdacffe7d0000000000000000000000000000000000000000000000000470de4df820000000000000000000000000000000000000000000000000000000000000",
                    "decodedMethod": null,
                    "errorInfo": "",
                    "fromAddress": "0xde48a49359d9f0c8609221f77f382e1472ddbab7",
                    "gasUsed": 166053,
                    "id": 0,
                    "methodDecoded": false,
                    "operation": "CALL",
                    "output": "0x0000000000000000000000000000000000000000000000000000000000000001",
                    "revert": false,
                    "revertMessage": "",
                    "selector": "0x3a15021a",
                    "status": true,
                    "value": "0"
                },
                "nodeType": 0
            },
            "1": {
                "invocation": {
                    "address": "0xc3b2ae46792547a96b9f84405e36d0e07edcd05c",
                    "callData": "0x0000000000000000000000007ea2df0f49d1cf7cb3a328f0038822b08aeb0ac100000000000000000000000000000000000000000000000000000000000000000000000000000000000000000000000000000000000000000000000000000180119c4fb6527155422bb4cedd79135996bd2feba48124acdde1b30c3fade363850000000000000000000000000000000000000000000000000000015f643120160000000000000000000000000000000000000000000000000000000000000003000000000000000000000000000000000000000000000000000000000000001c000000000000000000000000000000000000000000000000000000000000001c7b6c1fc900b700ae6ba9b540de1d68535f2b79bc1aa7656588c29987f7ad72cad38cd4e56703a089e0d26da6a4c89da218e29d394159d847589bcd1b160102847b6ef78a17723227b3af9559c4933fe54a044aeb3e7405cc0cc26045d4c998bf409b80ba379093d805c4905aeea91be4cdad6cda4c2d61957eea8c9e3c4c62740000000000000000000000000000000000000000000000000000000000000044a9059cbb000000000000000000000000fc49e81376d7f5ff6c1aa517fddbd3cbdacffe7d0000000000000000000000000000000000000000000000000470de4df820000000000000000000000000000000000000000000000000000000000000",
                    "decodedMethod": null,
                    "errorInfo": "",
                    "fromAddress": "0xa51a578c5f9cb286b5dca810be802c6025ebb35f",
                    "gasUsed": 127708,
                    "id": 1,
                    "methodDecoded": false,
                    "operation": "DELEGATECALL",
                    "output": "0x0000000000000000000000000000000000000000000000000000000000000001",
                    "revert": false,
                    "revertMessage": "",
                    "selector": "0x3a15021a",
                    "status": true,
                    "value": "0"
                },
                "nodeType": 0
            },
            "10": {
                "invocation": {
                    "address": "0x70de1983f4cb94479f09c7e707ba64a4e060eacd",
                    "callData": "0x0000000000000000000000007ea2df0f49d1cf7cb3a328f0038822b08aeb0ac10000000000000000000000000000000000000000000000000000000000000000000000000000000000000000000000000000000000000000000000000000008000000000000000000000000000000000000000000000000000000000000000000000000000000000000000000000000000000000000000000000000000000044a9059cbb000000000000000000000000fc49e81376d7f5ff6c1aa517fddbd3cbdacffe7d0000000000000000000000000000000000000000000000000470de4df820000000000000000000000000000000000000000000000000000000000000",
                    "decodedMethod": null,
                    "errorInfo": "",
                    "fromAddress": "0xa51a578c5f9cb286b5dca810be802c6025ebb35f",
                    "gasUsed": 71392,
                    "id": 10,
                    "methodDecoded": false,
                    "operation": "CALL",
                    "output": "0x0000000000000000000000000000000000000000000000000000000000000001",
                    "revert": false,
                    "revertMessage": "",
                    "selector": "0xe04f31e9",
                    "status": true,
                    "value": "0"
                },
                "nodeType": 0
            },
            "11": {
                "invocation": {
                    "address": "0x072461a5e18f444b1cf2e8dde6dfb1af39197316",
                    "callData": "0x0000000000000000000000007ea2df0f49d1cf7cb3a328f0038822b08aeb0ac10000000000000000000000000000000000000000000000000000000000000000000000000000000000000000000000000000000000000000000000000000008000000000000000000000000000000000000000000000000000000000000000000000000000000000000000000000000000000000000000000000000000000044a9059cbb000000000000000000000000fc49e81376d7f5ff6c1aa517fddbd3cbdacffe7d0000000000000000000000000000000000000000000000000470de4df820000000000000000000000000000000000000000000000000000000000000",
                    "decodedMethod": null,
                    "errorInfo": "",
                    "fromAddress": "0x70de1983f4cb94479f09c7e707ba64a4e060eacd",
                    "gasUsed": 70495,
                    "id": 11,
                    "methodDecoded": false,
                    "operation": "DELEGATECALL",
                    "output": "0x0000000000000000000000000000000000000000000000000000000000000001",
                    "revert": false,
                    "revertMessage": "",
                    "selector": "0xe04f31e9",
                    "status": true,
                    "value": "0"
                },
                "nodeType": 0
            },
            "12": {
                "invocation": {
                    "address": "0x7ea2df0f49d1cf7cb3a328f0038822b08aeb0ac1",
                    "callData": "0x000000000000000000000000fc49e81376d7f5ff6c1aa517fddbd3cbdacffe7d0000000000000000000000000000000000000000000000000470de4df8200000",
                    "decodedMethod": {
                        "callParams": [
                            {
                                "name": "recipient",
                                "type": "address",
                                "value": "0xfc49e81376d7f5ff6c1aa517fddbd3cbdacffe7d"
                            },
                            {
                                "decimalAvailable": true,
                                "name": "amount",
                                "type": "uint256",
                                "value": "320,000,000,000,000,000"
                            }
                        ],
                        "constructorArguments": "",
                        "name": "transfer",
                        "returnParams": [
                            {
                                "name": "",
                                "type": "bool",
                                "value": true
                            }
                        ],
                        "signature": "transfer(address,uint256)"
                    },
                    "errorInfo": "",
                    "fromAddress": "0x70de1983f4cb94479f09c7e707ba64a4e060eacd",
                    "gasUsed": 68907,
                    "id": 12,
                    "methodDecoded": true,
                    "operation": "CALL",
                    "output": "0x0000000000000000000000000000000000000000000000000000000000000001",
                    "revert": false,
                    "revertMessage": "",
                    "selector": "0xa9059cbb",
                    "status": true,
                    "value": "0"
                },
                "nodeType": 0
            },
            "13": {
                "invocation": {
                    "address": "0x331d077518216c07c87f4f18ba64cd384c411f84",
                    "callData": "0x00000000000000000000000070de1983f4cb94479f09c7e707ba64a4e060eacd0000000000000000000000007ea2df0f49d1cf7cb3a328f0038822b08aeb0ac10000000000000000000000000000000000000000000000000470de4df8200000455448000000000000000000000000000000000000000000000000000000000000000000000000000000000000000000000000000000000000000000000000c000000000000000000000000070de1983f4cb94479f09c7e707ba64a4e060eacd0000000000000000000000000000000000000000000000000000000000000000",
                    "decodedMethod": {
                        "callParams": [
                            {
                                "name": "_from",
                                "type": "address",
                                "value": "0x70de1983f4cb94479f09c7e707ba64a4e060eacd"
                            },
                            {
                                "name": "_to",
                                "type": "address",
                                "value": "0x7ea2df0f49d1cf7cb3a328f0038822b08aeb0ac1"
                            },
                            {
                                "name": "_value",
                                "type": "uint256",
                                "value": "320,000,000,000,000,000"
                            },
                            {
                                "name": "_symbol",
                                "type": "bytes32",
                                "value": "0x4554480000000000000000000000000000000000000000000000000000000000"
                            },
                            {
                                "name": "_reference",
                                "type": "string",
                                "value": ""
                            },
                            {
                                "name": "_sender",
                                "type": "address",
                                "value": "0x70de1983f4cb94479f09c7e707ba64a4e060eacd"
                            }
                        ],
                        "constructorArguments": "",
                        "name": "proxyTransferFromWithReference",
                        "returnParams": [
                            {
                                "name": "",
                                "type": "bool",
                                "value": true
                            }
                        ],
                        "signature": "proxyTransferFromWithReference(address,address,uint256,bytes32,string,address)"
                    },
                    "errorInfo": "",
                    "fromAddress": "0x7ea2df0f49d1cf7cb3a328f0038822b08aeb0ac1",
                    "gasUsed": 31433,
                    "id": 13,
                    "methodDecoded": true,
                    "operation": "CALL",
                    "output": "0x0000000000000000000000000000000000000000000000000000000000000001",
                    "revert": false,
                    "revertMessage": "",
                    "selector": "0x161ff662",
                    "status": true,
                    "value": "0"
                },
                "nodeType": 0
            },
            "14": {
                "invocation": {
                    "address": "0x60bf91ac87fee5a78c28f7b67701fbcfa79c18ec",
                    "callData": "0x00000000000000000000000070de1983f4cb94479f09c7e707ba64a4e060eacd0000000000000000000000007ea2df0f49d1cf7cb3a328f0038822b08aeb0ac145544800000000000000000000000000000000000000000000000000000000000000000000000000000000000000000000000000000000000470de4df820000000000000000000000000000000000000000000000000000000000000000000a00000000000000000000000000000000000000000000000000000000000000000",
                    "decodedMethod": {
                        "callParams": [
                            {
                                "name": "_from",
                                "type": "address",
                                "value": "0x70de1983f4cb94479f09c7e707ba64a4e060eacd"
                            },
                            {
                                "name": "_to",
                                "type": "address",
                                "value": "0x7ea2df0f49d1cf7cb3a328f0038822b08aeb0ac1"
                            },
                            {
                                "name": "_symbol",
                                "type": "bytes32",
                                "value": "0x4554480000000000000000000000000000000000000000000000000000000000"
                            },
                            {
                                "name": "_value",
                                "type": "uint256",
                                "value": "320,000,000,000,000,000"
                            },
                            {
                                "name": "_reference",
                                "type": "string",
                                "value": ""
                            }
                        ],
                        "constructorArguments": "",
                        "name": "emitTransfer",
                        "returnParams": [],
                        "signature": "emitTransfer(address,address,bytes32,uint256,string)"
                    },
                    "errorInfo": "",
                    "fromAddress": "0x331d077518216c07c87f4f18ba64cd384c411f84",
                    "gasUsed": 8102,
                    "id": 14,
                    "methodDecoded": true,
                    "operation": "CALL",
                    "output": "",
                    "revert": false,
                    "revertMessage": "",
                    "selector": "0x515c1457",
                    "status": true,
                    "value": "0"
                },
                "nodeType": 0
            },
            "15": {
                "invocation": {
                    "address": "0x4e8703a59fec01a97d4d2d76271e4f086dbb52fc",
                    "callData": "0x00000000000000000000000070de1983f4cb94479f09c7e707ba64a4e060eacd0000000000000000000000007ea2df0f49d1cf7cb3a328f0038822b08aeb0ac145544800000000000000000000000000000000000000000000000000000000000000000000000000000000000000000000000000000000000470de4df820000000000000000000000000000000000000000000000000000000000000000000a00000000000000000000000000000000000000000000000000000000000000000",
                    "decodedMethod": {
                        "callParams": [
                            {
                                "name": "_from",
                                "type": "address",
                                "value": "0x70de1983f4cb94479f09c7e707ba64a4e060eacd"
                            },
                            {
                                "name": "_to",
                                "type": "address",
                                "value": "0x7ea2df0f49d1cf7cb3a328f0038822b08aeb0ac1"
                            },
                            {
                                "name": "_symbol",
                                "type": "bytes32",
                                "value": "0x4554480000000000000000000000000000000000000000000000000000000000"
                            },
                            {
                                "name": "_value",
                                "type": "uint256",
                                "value": "320,000,000,000,000,000"
                            },
                            {
                                "name": "_reference",
                                "type": "string",
                                "value": ""
                            }
                        ],
                        "constructorArguments": "",
                        "name": "emitTransfer",
                        "returnParams": [],
                        "signature": "emitTransfer(address,address,bytes32,uint256,string)"
                    },
                    "errorInfo": "",
                    "fromAddress": "0x60bf91ac87fee5a78c28f7b67701fbcfa79c18ec",
                    "gasUsed": 5948,
                    "id": 15,
                    "methodDecoded": true,
                    "operation": "DELEGATECALL",
                    "output": "",
                    "revert": false,
                    "revertMessage": "",
                    "selector": "0x515c1457",
                    "status": true,
                    "value": "0"
                },
                "nodeType": 0
            },
            "16": {
                "invocation": {
                    "address": "0x60bf91ac87fee5a78c28f7b67701fbcfa79c18ec",
                    "callData": "0x000000000000000000000000331d077518216c07c87f4f18ba64cd384c411f84",
                    "decodedMethod": {
                        "callParams": [
                            {
                                "name": "",
                                "type": "address",
                                "value": "0x331d077518216c07c87f4f18ba64cd384c411f84"
                            }
                        ],
                        "constructorArguments": "",
                        "name": "versions",
                        "returnParams": [
                            {
                                "name": "",
                                "type": "uint256",
                                "value": "2"
                            }
                        ],
                        "signature": "versions(address)"
                    },
                    "errorInfo": "",
                    "fromAddress": "0x60bf91ac87fee5a78c28f7b67701fbcfa79c18ec",
                    "gasUsed": 559,
                    "id": 16,
                    "methodDecoded": true,
                    "operation": "CALL",
                    "output": "0x0000000000000000000000000000000000000000000000000000000000000002",
                    "revert": false,
                    "revertMessage": "",
                    "selector": "0x488725a0",
                    "status": true,
                    "value": "0"
                },
                "nodeType": 0
            },
            "17": {
                "invocation": {
                    "address": "0x0000000000000000000000000000000000000004",
                    "callData": "0x",
                    "decodedMethod": {
                        "callParams": [
                            {
                                "name": "data",
                                "type": "bytes",
                                "value": "0x"
                            }
                        ],
                        "constructorArguments": "",
                        "name": "dataCopy()",
                        "returnParams": [
                            {
                                "name": "data",
                                "type": "bytes",
                                "value": "0x"
                            }
                        ],
                        "signature": "dataCopy(bytes)"
                    },
                    "errorInfo": "out of gas",
                    "fromAddress": "0x60bf91ac87fee5a78c28f7b67701fbcfa79c18ec",
                    "gasUsed": 3,
                    "id": 17,
                    "methodDecoded": true,
                    "operation": "CALL",
                    "output": "",
                    "revert": true,
                    "revertMessage": "",
                    "selector": "0x",
                    "status": false,
                    "value": "0"
                },
                "nodeType": 0
            },
            "18": {
                "event": {
                    "contract": "0x60bf91ac87fee5a78c28f7b67701fbcfa79c18ec",
                    "decodedLog": {
                        "name": "Transfer",
                        "params": [
                            {
                                "name": "from",
                                "type": "address",
                                "value": "0x70de1983f4cb94479f09c7e707ba64a4e060eacd"
                            },
                            {
                                "name": "to",
                                "type": "address",
                                "value": "0x7ea2df0f49d1cf7cb3a328f0038822b08aeb0ac1"
                            },
                            {
                                "name": "symbol",
                                "type": "bytes32",
                                "value": "0x4554480000000000000000000000000000000000000000000000000000000000"
                            },
                            {
                                "name": "value",
                                "type": "uint256",
                                "value": "320,000,000,000,000,000"
                            },
                            {
                                "name": "reference",
                                "type": "string",
                                "value": ""
                            },
                            {
                                "name": "version",
                                "type": "uint256",
                                "value": "2"
                            }
                        ],
                        "signature": "Transfer(address,address,bytes32,uint256,string,uint256)"
                    },
                    "id": 18,
                    "logData": "0x0000000000000000000000000000000000000000000000000470de4df8200000000000000000000000000000000000000000000000000000000000000000006000000000000000000000000000000000000000000000000000000000000000020000000000000000000000000000000000000000000000000000000000000000",
                    "logDecoded": true,
                    "operation": "EVENT",
                    "revert": false,
                    "status": true,
                    "topics": [
                        "0x940c4b3549ef0aaff95807dc27f62d88ca15532d1bf535d7d63800f40395d16c",
                        "0x00000000000000000000000070de1983f4cb94479f09c7e707ba64a4e060eacd",
                        "0x0000000000000000000000007ea2df0f49d1cf7cb3a328f0038822b08aeb0ac1",
                        "0x4554480000000000000000000000000000000000000000000000000000000000"
                    ]
                },
                "nodeType": 1
            },
            "19": {
                "invocation": {
                    "address": "0x7ea2df0f49d1cf7cb3a328f0038822b08aeb0ac1",
                    "callData": "0x00000000000000000000000070de1983f4cb94479f09c7e707ba64a4e060eacd0000000000000000000000007ea2df0f49d1cf7cb3a328f0038822b08aeb0ac10000000000000000000000000000000000000000000000000470de4df8200000",
                    "decodedMethod": {
                        "callParams": [
                            {
                                "name": "from",
                                "type": "address",
                                "value": "0x70de1983f4cb94479f09c7e707ba64a4e060eacd"
                            },
                            {
                                "name": "to",
                                "type": "address",
                                "value": "0x7ea2df0f49d1cf7cb3a328f0038822b08aeb0ac1"
                            },
                            {
                                "name": "amount",
                                "type": "uint256",
                                "value": "320,000,000,000,000,000"
                            }
                        ],
                        "constructorArguments": "",
                        "name": "emitTransfer",
                        "returnParams": [],
                        "signature": "emitTransfer(address,address,uint256)"
                    },
                    "errorInfo": "",
                    "fromAddress": "0x331d077518216c07c87f4f18ba64cd384c411f84",
                    "gasUsed": 2731,
                    "id": 19,
                    "methodDecoded": true,
                    "operation": "CALL",
                    "output": "",
                    "revert": false,
                    "revertMessage": "",
                    "selector": "0x23de6651",
                    "status": true,
                    "value": "0"
                },
                "nodeType": 0
            },
            "2": {
                "invocation": {
                    "address": "0xe6a4f92579facb4026096f017243ee839ff72fd1",
                    "callData": "0x119c4fb6527155422bb4cedd79135996bd2feba48124acdde1b30c3fade36385000000000000000000000000a51a578c5f9cb286b5dca810be802c6025ebb35f0000000000000000000000000000000000000000000000000000015f64312016000000000000000000000000000000000000000000000000000000000000001c7b6c1fc900b700ae6ba9b540de1d68535f2b79bc1aa7656588c29987f7ad72ca7b6ef78a17723227b3af9559c4933fe54a044aeb3e7405cc0cc26045d4c998bf",
                    "decodedMethod": null,
                    "errorInfo": "",
                    "fromAddress": "0xa51a578c5f9cb286b5dca810be802c6025ebb35f",
                    "gasUsed": 25951,
                    "id": 2,
                    "methodDecoded": false,
                    "operation": "CALL",
                    "output": "0x0000000000000000000000000000000000000000000000000000000000000001",
                    "revert": false,
                    "revertMessage": "",
                    "selector": "0x4a96712e",
                    "status": true,
                    "value": "0"
                },
                "nodeType": 0
            },
            "20": {
                "event": {
                    "contract": "0x7ea2df0f49d1cf7cb3a328f0038822b08aeb0ac1",
                    "decodedLog": {
                        "name": "Transfer",
                        "params": [
                            {
                                "name": "from",
                                "type": "address",
                                "value": "0x70de1983f4cb94479f09c7e707ba64a4e060eacd"
                            },
                            {
                                "name": "to",
                                "type": "address",
                                "value": "0x7ea2df0f49d1cf7cb3a328f0038822b08aeb0ac1"
                            },
                            {
                                "decimalAvailable": true,
                                "name": "value",
                                "type": "uint256",
                                "value": "320,000,000,000,000,000"
                            }
                        ],
                        "signature": "Transfer(address,address,uint256)"
                    },
                    "id": 20,
                    "logData": "0x0000000000000000000000000000000000000000000000000470de4df8200000",
                    "logDecoded": true,
                    "operation": "EVENT",
                    "revert": false,
                    "status": true,
                    "topics": [
                        "0xddf252ad1be2c89b69c2b068fc378daa952ba7f163c4a11628f55a4df523b3ef",
                        "0x00000000000000000000000070de1983f4cb94479f09c7e707ba64a4e060eacd",
                        "0x0000000000000000000000007ea2df0f49d1cf7cb3a328f0038822b08aeb0ac1"
                    ]
                },
                "nodeType": 1
            },
            "21": {
                "invocation": {
                    "address": "0xfc49e81376d7f5ff6c1aa517fddbd3cbdacffe7d",
                    "callData": "0x",
                    "decodedMethod": null,
                    "errorInfo": "",
                    "fromAddress": "0x7ea2df0f49d1cf7cb3a328f0038822b08aeb0ac1",
                    "gasUsed": 0,
                    "id": 21,
                    "methodDecoded": false,
                    "operation": "CALL",
                    "output": "",
                    "revert": false,
                    "revertMessage": "",
                    "selector": "fallback",
                    "status": true,
                    "value": "0.32"
                },
                "nodeType": 0
            },
            "3": {
                "invocation": {
                    "address": "0x0000000000000000000000000000000000000001",
                    "callData": "0xce679380303e5c77cc0ce2d661d77b1f56d4d9a25f4174ed2c085b0e000000000000000000000000000000000000000000000000000000000000001c7b6c1fc900b700ae6ba9b540de1d68535f2b79bc1aa7656588c29987f7ad72ca7b6ef78a17723227b3af9559c4933fe54a044aeb3e7405cc0cc26045d4c998bf",
                    "decodedMethod": {
                        "callParams": [
                            {
                                "name": "hash",
                                "type": "bytes32",
                                "value": "0x90f83bd0ce679380303e5c77cc0ce2d661d77b1f56d4d9a25f4174ed2c085b0e"
                            },
                            {
                                "name": "v",
                                "type": "uint256",
                                "value": "28"
                            },
                            {
                                "name": "r",
                                "type": "bytes32",
                                "value": "0x7b6c1fc900b700ae6ba9b540de1d68535f2b79bc1aa7656588c29987f7ad72ca"
                            },
                            {
                                "name": "s",
                                "type": "bytes32",
                                "value": "0x7b6ef78a17723227b3af9559c4933fe54a044aeb3e7405cc0cc26045d4c998bf"
                            }
                        ],
                        "constructorArguments": "",
                        "name": "ecrecover",
                        "returnParams": [
                            {
                                "name": "",
                                "type": "address",
                                "value": "0x809f68410036cec2315e16591e100f23482ed471"
                            }
                        ],
                        "signature": "ecrecover(bytes32,uint256,bytes32,bytes32)"
                    },
                    "errorInfo": "",
                    "fromAddress": "0xe6a4f92579facb4026096f017243ee839ff72fd1",
                    "gasUsed": 3000,
                    "id": 3,
                    "methodDecoded": true,
                    "operation": "CALL",
                    "output": "0x000000000000000000000000809f68410036cec2315e16591e100f23482ed471",
                    "revert": false,
                    "revertMessage": "",
                    "selector": "0x90f83bd0",
                    "status": true,
                    "value": "0"
                },
                "nodeType": 0
            },
            "4": {
                "event": {
                    "contract": "0xe6a4f92579facb4026096f017243ee839ff72fd1",
                    "decodedLog": null,
                    "id": 4,
                    "logData": "0x0000000000000000000000000000000000000000000000000000000000000001",
                    "logDecoded": false,
                    "operation": "EVENT",
                    "revert": false,
                    "status": true,
                    "topics": [
                        "0xbece3b94153cfdfde83f63717f4c52898bbccf2b65d21fb90aced281cf9bb79b",
                        "0x119c4fb6527155422bb4cedd79135996bd2feba48124acdde1b30c3fade36385",
                        "0x000000000000000000000000a51a578c5f9cb286b5dca810be802c6025ebb35f",
                        "0x000000000000000000000000809f68410036cec2315e16591e100f23482ed471"
                    ]
                },
                "nodeType": 1
            },
            "5": {
                "invocation": {
                    "address": "0x0000000000000000000000000000000000000001",
                    "callData": "0xa2cf6acb0f4fc5e55e02d55868ffb1127951db8f1a550b3e0e950a6d000000000000000000000000000000000000000000000000000000000000001cd38cd4e56703a089e0d26da6a4c89da218e29d394159d847589bcd1b16010284409b80ba379093d805c4905aeea91be4cdad6cda4c2d61957eea8c9e3c4c6274",
                    "decodedMethod": {
                        "callParams": [
                            {
                                "name": "hash",
                                "type": "bytes32",
                                "value": "0xf3df26aea2cf6acb0f4fc5e55e02d55868ffb1127951db8f1a550b3e0e950a6d"
                            },
                            {
                                "name": "v",
                                "type": "uint256",
                                "value": "28"
                            },
                            {
                                "name": "r",
                                "type": "bytes32",
                                "value": "0xd38cd4e56703a089e0d26da6a4c89da218e29d394159d847589bcd1b16010284"
                            },
                            {
                                "name": "s",
                                "type": "bytes32",
                                "value": "0x409b80ba379093d805c4905aeea91be4cdad6cda4c2d61957eea8c9e3c4c6274"
                            }
                        ],
                        "constructorArguments": "",
                        "name": "ecrecover",
                        "returnParams": [
                            {
                                "name": "",
                                "type": "address",
                                "value": "0xf00a5c37dfc79cf674ee36b81054ea180de7d177"
                            }
                        ],
                        "signature": "ecrecover(bytes32,uint256,bytes32,bytes32)"
                    },
                    "errorInfo": "",
                    "fromAddress": "0xa51a578c5f9cb286b5dca810be802c6025ebb35f",
                    "gasUsed": 3000,
                    "id": 5,
                    "methodDecoded": true,
                    "operation": "CALL",
                    "output": "0x000000000000000000000000f00a5c37dfc79cf674ee36b81054ea180de7d177",
                    "revert": false,
                    "revertMessage": "",
                    "selector": "0xf3df26ae",
                    "status": true,
                    "value": "0"
                },
                "nodeType": 0
            },
            "6": {
                "invocation": {
                    "address": "0xa51a578c5f9cb286b5dca810be802c6025ebb35f",
                    "callData": "0x0000000000000000000000007ea2df0f49d1cf7cb3a328f0038822b08aeb0ac1000000000000000000000000000000000000000000000000000000000000000000000000000000000000000000000000000000000000000000000000000000600000000000000000000000000000000000000000000000000000000000000044a9059cbb000000000000000000000000fc49e81376d7f5ff6c1aa517fddbd3cbdacffe7d0000000000000000000000000000000000000000000000000470de4df820000000000000000000000000000000000000000000000000000000000000",
                    "decodedMethod": null,
                    "errorInfo": "",
                    "fromAddress": "0xa51a578c5f9cb286b5dca810be802c6025ebb35f",
                    "gasUsed": 86359,
                    "id": 6,
                    "methodDecoded": false,
                    "operation": "CALL",
                    "output": "0x0000000000000000000000000000000000000000000000000000000000000001",
                    "revert": false,
                    "revertMessage": "",
                    "selector": "0xd7f31eb9",
                    "status": true,
                    "value": "0"
                },
                "nodeType": 0
            },
            "7": {
                "invocation": {
                    "address": "0xc3b2ae46792547a96b9f84405e36d0e07edcd05c",
                    "callData": "0x0000000000000000000000007ea2df0f49d1cf7cb3a328f0038822b08aeb0ac1000000000000000000000000000000000000000000000000000000000000000000000000000000000000000000000000000000000000000000000000000000600000000000000000000000000000000000000000000000000000000000000044a9059cbb000000000000000000000000fc49e81376d7f5ff6c1aa517fddbd3cbdacffe7d0000000000000000000000000000000000000000000000000470de4df820000000000000000000000000000000000000000000000000000000000000",
                    "decodedMethod": null,
                    "errorInfo": "",
                    "fromAddress": "0xa51a578c5f9cb286b5dca810be802c6025ebb35f",
                    "gasUsed": 85468,
                    "id": 7,
                    "methodDecoded": false,
                    "operation": "DELEGATECALL",
                    "output": "0x0000000000000000000000000000000000000000000000000000000000000001",
                    "revert": false,
                    "revertMessage": "",
                    "selector": "0xd7f31eb9",
                    "status": true,
                    "value": "0"
                },
                "nodeType": 0
            },
            "8": {
                "invocation": {
                    "address": "0xe6a4f92579facb4026096f017243ee839ff72fd1",
                    "callData": "0x119c4fb6527155422bb4cedd79135996bd2feba48124acdde1b30c3fade363850000000000000000000000000000000000000000000000000000000000000001",
                    "decodedMethod": null,
                    "errorInfo": "",
                    "fromAddress": "0xa51a578c5f9cb286b5dca810be802c6025ebb35f",
                    "gasUsed": 7917,
                    "id": 8,
                    "methodDecoded": false,
                    "operation": "CALL",
                    "output": "0x0000000000000000000000000000000000000000000000000000000000000001",
                    "revert": false,
                    "revertMessage": "",
                    "selector": "0x809b296d",
                    "status": true,
                    "value": "0"
                },
                "nodeType": 0
            },
            "9": {
                "event": {
                    "contract": "0xe6a4f92579facb4026096f017243ee839ff72fd1",
                    "decodedLog": null,
                    "id": 9,
                    "logData": "0x",
                    "logDecoded": false,
                    "operation": "EVENT",
                    "revert": false,
                    "status": true,
                    "topics": [
                        "0x09d6352b0004296b0ec18337a5141424a870015111bb3443b4c6858277ba1bb7",
                        "0x119c4fb6527155422bb4cedd79135996bd2feba48124acdde1b30c3fade36385",
                        "0x000000000000000000000000a51a578c5f9cb286b5dca810be802c6025ebb35f"
                    ]
                },
                "nodeType": 1
            }
        },
        "gasFlame": [
            {
                "children": [
                    {
                        "children": [
                            {
                                "children": [],
                                "depth": 0,
                                "name": "Initial Gas",
                                "value": 37400
                            },
                            {
                                "children": [
                                    {
                                        "children": [
                                            {
                                                "children": [
                                                    {
                                                        "children": [],
                                                        "depth": 3,
                                                        "name": "ecrecover",
                                                        "value": 3000
                                                    }
                                                ],
                                                "depth": 2,
                                                "name": "0x4a96712e",
                                                "value": 25951
                                            },
                                            {
                                                "children": [],
                                                "depth": 2,
                                                "name": "ecrecover",
                                                "value": 3000
                                            },
                                            {
                                                "children": [
                                                    {
                                                        "children": [
                                                            {
                                                                "children": [],
                                                                "depth": 4,
                                                                "name": "0x809b296d",
                                                                "value": 7917
                                                            },
                                                            {
                                                                "children": [
                                                                    {
                                                                        "children": [
                                                                            {
                                                                                "children": [
                                                                                    {
                                                                                        "children": [
                                                                                            {
                                                                                                "children": [
                                                                                                    {
                                                                                                        "children": [
                                                                                                            {
                                                                                                                "children": [],
                                                                                                                "depth": 10,
                                                                                                                "name": "versions",
                                                                                                                "value": 559
                                                                                                            },
                                                                                                            {
                                                                                                                "children": [],
                                                                                                                "depth": 10,
                                                                                                                "name": "dataCopy()",
                                                                                                                "value": 3
                                                                                                            }
                                                                                                        ],
                                                                                                        "depth": 9,
                                                                                                        "name": "emitTransfer",
                                                                                                        "value": 5948
                                                                                                    }
                                                                                                ],
                                                                                                "depth": 8,
                                                                                                "name": "emitTransfer",
                                                                                                "value": 8102
                                                                                            },
                                                                                            {
                                                                                                "children": [],
                                                                                                "depth": 8,
                                                                                                "name": "emitTransfer",
                                                                                                "value": 2731
                                                                                            }
                                                                                        ],
                                                                                        "depth": 7,
                                                                                        "name": "proxyTransferFromWithReference",
                                                                                        "value": 31433
                                                                                    },
                                                                                    {
                                                                                        "children": [],
                                                                                        "depth": 7,
                                                                                        "name": "fallback",
                                                                                        "value": 0
                                                                                    }
                                                                                ],
                                                                                "depth": 6,
                                                                                "name": "transfer",
                                                                                "value": 68907
                                                                            }
                                                                        ],
                                                                        "depth": 5,
                                                                        "name": "0xe04f31e9",
                                                                        "value": 70495
                                                                    }
                                                                ],
                                                                "depth": 4,
                                                                "name": "0xe04f31e9",
                                                                "value": 71392
                                                            }
                                                        ],
                                                        "depth": 3,
                                                        "name": "0xd7f31eb9",
                                                        "value": 85468
                                                    }
                                                ],
                                                "depth": 2,
                                                "name": "0xd7f31eb9",
                                                "value": 86359
                                            }
                                        ],
                                        "depth": 1,
                                        "name": "0x3a15021a",
                                        "value": 127708
                                    }
                                ],
                                "depth": 0,
                                "name": "Executed Gas",
                                "value": 128653
                            }
                        ],
                        "depth": -1,
                        "name": "Actual Gas Used",
                        "value": 166053
                    },
                    {
                        "children": [],
                        "depth": -1,
                        "name": "Refunded Gas",
                        "value": 0
                    }
                ],
                "depth": -2,
                "name": "Total Gas",
                "value": 166053
            }
        ],
        "isConfirmed": true,
        "mainTrace": [
            {
                "children": [
                    {
                        "children": [
                            {
                                "children": [
                                    {
                                        "children": [
                                            {
                                                "children": [],
                                                "depth": 3,
                                                "id": 3,
                                                "order": 3
                                            },
                                            {
                                                "children": [],
                                                "depth": 3,
                                                "id": 4,
                                                "order": 4
                                            }
                                        ],
                                        "depth": 2,
                                        "id": 2,
                                        "order": 2
                                    },
                                    {
                                        "children": [],
                                        "depth": 2,
                                        "id": 5,
                                        "order": 5
                                    },
                                    {
                                        "children": [
                                            {
                                                "children": [
                                                    {
                                                        "children": [
                                                            {
                                                                "children": [],
                                                                "depth": 5,
                                                                "id": 9,
                                                                "order": 9
                                                            }
                                                        ],
                                                        "depth": 4,
                                                        "id": 8,
                                                        "order": 8
                                                    },
                                                    {
                                                        "children": [
                                                            {
                                                                "children": [
                                                                    {
                                                                        "children": [
                                                                            {
                                                                                "children": [
                                                                                    {
                                                                                        "children": [
                                                                                            {
                                                                                                "children": [
                                                                                                    {
                                                                                                        "children": [],
                                                                                                        "depth": 10,
                                                                                                        "id": 16,
                                                                                                        "order": 16
                                                                                                    },
                                                                                                    {
                                                                                                        "children": [],
                                                                                                        "depth": 10,
                                                                                                        "id": 17,
                                                                                                        "order": 17
                                                                                                    },
                                                                                                    {
                                                                                                        "children": [],
                                                                                                        "depth": 10,
                                                                                                        "id": 18,
                                                                                                        "order": 18
                                                                                                    }
                                                                                                ],
                                                                                                "depth": 9,
                                                                                                "id": 15,
                                                                                                "order": 15
                                                                                            }
                                                                                        ],
                                                                                        "depth": 8,
                                                                                        "id": 14,
                                                                                        "order": 14
                                                                                    },
                                                                                    {
                                                                                        "children": [
                                                                                            {
                                                                                                "children": [],
                                                                                                "depth": 9,
                                                                                                "id": 20,
                                                                                                "order": 20
                                                                                            }
                                                                                        ],
                                                                                        "depth": 8,
                                                                                        "id": 19,
                                                                                        "order": 19
                                                                                    }
                                                                                ],
                                                                                "depth": 7,
                                                                                "id": 13,
                                                                                "order": 13
                                                                            },
                                                                            {
                                                                                "children": [],
                                                                                "depth": 7,
                                                                                "id": 21,
                                                                                "order": 21
                                                                            }
                                                                        ],
                                                                        "depth": 6,
                                                                        "id": 12,
                                                                        "order": 12
                                                                    }
                                                                ],
                                                                "depth": 5,
                                                                "id": 11,
                                                                "order": 11
                                                            }
                                                        ],
                                                        "depth": 4,
                                                        "id": 10,
                                                        "order": 10
                                                    }
                                                ],
                                                "depth": 3,
                                                "id": 7,
                                                "order": 7
                                            }
                                        ],
                                        "depth": 2,
                                        "id": 6,
                                        "order": 6
                                    }
                                ],
                                "depth": 1,
                                "id": 1,
                                "order": 1
                            }
                        ],
                        "depth": 0,
                        "id": 0,
                        "order": 0
                    }
                ],
                "depth": -1,
                "id": -1,
                "order": -1
            }
        ],
        "mainTraceNodeCount": 22,
        "parentIdMap": {
            "0": -1,
            "1": 0,
            "10": 7,
            "11": 10,
            "12": 11,
            "13": 12,
            "14": 13,
            "15": 14,
            "16": 15,
            "17": 15,
            "18": 15,
            "19": 13,
            "2": 1,
            "20": 19,
            "21": 12,
            "3": 2,
            "4": 2,
            "5": 1,
            "6": 1,
            "7": 6,
            "8": 7,
            "9": 8
        },
        "tidyTrace": [
            {
                "children": [
                    {
                        "children": [
                            {
                                "children": [
                                    {
                                        "children": [
                                            {
                                                "children": [],
                                                "depth": 3,
                                                "id": 3,
                                                "order": 3
                                            },
                                            {
                                                "children": [],
                                                "depth": 3,
                                                "id": 4,
                                                "order": 4
                                            }
                                        ],
                                        "depth": 2,
                                        "id": 2,
                                        "order": 2
                                    },
                                    {
                                        "children": [],
                                        "depth": 2,
                                        "id": 5,
                                        "order": 5
                                    },
                                    {
                                        "children": [
                                            {
                                                "children": [
                                                    {
                                                        "children": [
                                                            {
                                                                "children": [],
                                                                "depth": 5,
                                                                "id": 9,
                                                                "order": 9
                                                            }
                                                        ],
                                                        "depth": 4,
                                                        "id": 8,
                                                        "order": 8
                                                    },
                                                    {
                                                        "children": [
                                                            {
                                                                "children": [
                                                                    {
                                                                        "children": [
                                                                            {
                                                                                "children": [
                                                                                    {
                                                                                        "children": [
                                                                                            {
                                                                                                "children": [
                                                                                                    {
                                                                                                        "children": [],
                                                                                                        "depth": 10,
                                                                                                        "id": 16,
                                                                                                        "order": 16
                                                                                                    },
                                                                                                    {
                                                                                                        "children": [],
                                                                                                        "depth": 10,
                                                                                                        "id": 17,
                                                                                                        "order": 17
                                                                                                    },
                                                                                                    {
                                                                                                        "children": [],
                                                                                                        "depth": 10,
                                                                                                        "id": 18,
                                                                                                        "order": 18
                                                                                                    }
                                                                                                ],
                                                                                                "depth": 9,
                                                                                                "id": 15,
                                                                                                "order": 15
                                                                                            }
                                                                                        ],
                                                                                        "depth": 8,
                                                                                        "id": 14,
                                                                                        "order": 14
                                                                                    },
                                                                                    {
                                                                                        "children": [
                                                                                            {
                                                                                                "children": [],
                                                                                                "depth": 9,
                                                                                                "id": 20,
                                                                                                "order": 20
                                                                                            }
                                                                                        ],
                                                                                        "depth": 8,
                                                                                        "id": 19,
                                                                                        "order": 19
                                                                                    }
                                                                                ],
                                                                                "depth": 7,
                                                                                "id": 13,
                                                                                "order": 13
                                                                            },
                                                                            {
                                                                                "children": [],
                                                                                "depth": 7,
                                                                                "id": 21,
                                                                                "order": 21
                                                                            }
                                                                        ],
                                                                        "depth": 6,
                                                                        "id": 12,
                                                                        "order": 12
                                                                    }
                                                                ],
                                                                "depth": 5,
                                                                "id": 11,
                                                                "order": 11
                                                            }
                                                        ],
                                                        "depth": 4,
                                                        "id": 10,
                                                        "order": 10
                                                    }
                                                ],
                                                "depth": 3,
                                                "id": 7,
                                                "order": 7
                                            }
                                        ],
                                        "depth": 2,
                                        "id": 6,
                                        "order": 6
                                    }
                                ],
                                "depth": 1,
                                "id": 1,
                                "order": 1
                            }
                        ],
                        "depth": 0,
                        "id": 0,
                        "order": 0
                    }
                ],
                "depth": -1,
                "id": -1,
                "order": -1
            }
        ],
        "tidyTraceNodeCount": 22
    },
    "state_change": {
        "stateChanges": [
            {
                "address": "0x331d077518216c07c87f4f18ba64cd384c411f84",
                "erc": "",
                "slots": [
                    {
                        "current": "0x000000000000000000000000000000000000000000000000002386f26fc10000",
                        "key": "0xe4a70dd9c7a8377baa53393da8d112b40b2e526e55f24f20c17ed7c5462ffecb",
                        "prev": "0x0000000000000000000000000000000000000000000000000494654067e10000"
                    },
                    {
                        "current": "0x00000000000000000000000000000000000000000000036a1918d9c4b8dfb1a4",
                        "key": "0x31f5ae365629c0994618283e6d1f9222c09e229a0a032708cac43a2ab6791a4c",
                        "prev": "0x00000000000000000000000000000000000000000000036a14a7fb76c0bfb1a4"
                    }
                ],
                "storageVariables": []
            },
            {
                "address": "0xa51a578c5f9cb286b5dca810be802c6025ebb35f",
                "erc": "",
                "slots": [
                    {
                        "current": "0x0000000000000000000000000000000000000000000000000000000000000003",
                        "key": "0x0000000000000000000000000000000000000000000000000000000000000003",
                        "prev": "0x0000000000000000000000000000000000000000000000000000000000000002"
                    }
                ],
                "storageVariables": []
            },
            {
                "address": "0xe6a4f92579facb4026096f017243ee839ff72fd1",
                "erc": "",
                "slots": [
                    {
                        "current": "0x0000000000000000000000000000000000000000000000000000015f64312016",
                        "key": "0x17b448e930dac7539e3d07977379afcc25a8d3564dfab22502c3642f423fe889",
                        "prev": "0x0000000000000000000000000000000000000000000000000000015e8714d8e9"
                    }
                ],
                "storageVariables": []
            }
        ]
    }
}