{
    "balance_change": {
        "balanceChanges": []
    },
    "profile": {
        "basic_info": {
            "baseFee": "142.684582669",
            "blockNumber": 13372816,
            "callData": "0xc18a84bc00000000000000000000000013bc6368b9e15e4d041de5b54a8a808953ba349600000000000000000000000000000000000000000000000000000000000000400000000000000000000000000000000000000000000000000000000000000144883df23000000000000000000000000000000000000000000000000000000000000000e0000000000000000000000000c02aaa39b223fe8d0a0e5c4f27ead9083c756cc20000000000000000000000000000000000000000000000006a181fe0f89b2b180000000000000000000000000000000000000000035f30582d57d9c4891cd80000000000000000000000000000000000000000000000000000000000615f1ead0000000000000000000000002f62f2b4c5fcd7570a709dec05d68ea19c82a9ec00000000000000000000000000000000000000000000000ce0fad2cab312d11c000000000000000000000000000000000000000000000000000000000000002bc02aaa39b223fe8d0a0e5c4f27ead9083c756cc2000bb895ad61b0a150d79219dcf64e1e6cc01f0b64c4ce00000000000000000000000000000000000000000000000000000000000000000000000000000000000000000000000000",
            "debugEnable": true,
            "errorInfo": "",
            "eventCount": 2,
            "feeRecipient": "0x1ad91ee08f21be3de0ba2ba6918e714da6b45836",
            "formatValue": "0",
            "gasLimit": 800000,
            "gasPrice": "300",
            "gasUsed": 66406,
            "intTxnCount": 3,
            "internalRevert": false,
            "internalRevertMessage": "",
            "isContractCreation": false,
            "isFlashloan": false,
            "maxFee": "",
            "nonce": 7799,
            "overwritedBlockNumber": -1,
            "priorityFee": "",
            "receiver": "0x4d246be90c2f36730bb853ad41d0a189061192d3",
            "revertMessage": "",
            "sender": "0x00074d4af4cf40579a557eb546ee655048a91296",
            "simulationEnable": true,
            "sourceTxnHash": "0x217bd2267622fbc317d36db125f89ca97c88c6809e5421e7ac4b6105a4035117",
            "status": true,
            "timestamp": "2021-10-07T16:15:05Z",
            "transactionFee": "0.0199218",
            "txnHash": "0x217bd2267622fbc317d36db125f89ca97c88c6809e5421e7ac4b6105a4035117",
            "txnIndex": 14,
            "type": 0,
            "value": "0"
        },
        "fund_flow": [
            {
                "amount": "0",
                "from": "0x4d246be90c2f36730bb853ad41d0a189061192d3",
                "id": 1,
                "isERC1155": false,
                "isERC721": false,
                "isReverted": false,
                "order": 1,
                "to": "0x0000000000000000000000000000000000000000",
                "token": "0x0000000000004946c0e9f43f4dee607b0ef1fa1c"
            }
        ],
        "token_infos": [
            {
                "address": "0x0000000000004946c0e9f43f4dee607b0ef1fa1c",
                "decimals": 0
            },
            {
                "address": "0xc02aaa39b223fe8d0a0e5c4f27ead9083c756cc2",
                "decimals": 18
            },
            {
                "address": "0xeeeeeeeeeeeeeeeeeeeeeeeeeeeeeeeeeeeeeeee",
                "decimals": 18
            }
        ]
    },
    "address_label": {
        "labels": [
            {
                "address": "0xc02aaa39b223fe8d0a0e5c4f27ead9083c756cc2",
                "label": "Wrapped Ether (WETH)"
            },
            {
                "address": "0x2f62f2b4c5fcd7570a709dec05d68ea19c82a9ec",
                "label": "Uniswap V3: SHIB"
            },
            {
                "address": "0x0000000000000000000000000000000000000001",
                "label": "Precompiled"
            },
            {
                "address": "0x0000000000000000000000000000000000000004",
                "label": "Precompiled"
            },
            {
                "address": "0xeeeeeeeeeeeeeeeeeeeeeeeeeeeeeeeeeeeeeeee",
                "label": "Ether"
            },
            {
                "address": "0x4d246be90c2f36730bb853ad41d0a189061192d3",
                "label": "MEV Bot: 0x4d2...2d3"
            },
            {
                "address": "0x0000000000004946c0e9f43f4dee607b0ef1fa1c",
                "label": "1inch: CHI Token"
            },
            {
                "address": "0x0000000000000000000000000000000000000002",
                "label": "Precompiled"
            },
            {
                "address": "0x0000000000000000000000000000000000000003",
                "label": "Precompiled"
            }
        ]
    },
    "trace": {
        "accountLabels": null,
        "dataMap": {
            "-1": {
                "invocation": {
                    "address": "0x00074d4af4cf40579a557eb546ee655048a91296",
                    "callData": "",
                    "decodedMethod": null,
                    "errorInfo": "",
                    "fromAddress": "",
                    "gasUsed": 0,
                    "id": -1,
                    "methodDecoded": false,
                    "operation": "",
                    "output": "",
                    "revert": false,
                    "revertMessage": "",
                    "selector": "",
                    "status": false,
                    "value": ""
                },
                "nodeType": 0
            },
            "0": {
                "invocation": {
                    "address": "0x4d246be90c2f36730bb853ad41d0a189061192d3",
                    "callData": "0x00000000000000000000000013bc6368b9e15e4d041de5b54a8a808953ba349600000000000000000000000000000000000000000000000000000000000000400000000000000000000000000000000000000000000000000000000000000144883df23000000000000000000000000000000000000000000000000000000000000000e0000000000000000000000000c02aaa39b223fe8d0a0e5c4f27ead9083c756cc20000000000000000000000000000000000000000000000006a181fe0f89b2b180000000000000000000000000000000000000000035f30582d57d9c4891cd80000000000000000000000000000000000000000000000000000000000615f1ead0000000000000000000000002f62f2b4c5fcd7570a709dec05d68ea19c82a9ec00000000000000000000000000000000000000000000000ce0fad2cab312d11c000000000000000000000000000000000000000000000000000000000000002bc02aaa39b223fe8d0a0e5c4f27ead9083c756cc2000bb895ad61b0a150d79219dcf64e1e6cc01f0b64c4ce00000000000000000000000000000000000000000000000000000000000000000000000000000000000000000000000000",
                    "decodedMethod": null,
                    "errorInfo": "",
                    "fromAddress": "0x00074d4af4cf40579a557eb546ee655048a91296",
                    "gasUsed": 66406,
                    "id": 0,
                    "methodDecoded": false,
                    "operation": "CALL",
                    "output": "",
                    "revert": false,
                    "revertMessage": "",
                    "selector": "0xc18a84bc",
                    "status": true,
                    "value": "0"
                },
                "nodeType": 0
            },
            "1": {
                "invocation": {
                    "address": "0x13bc6368b9e15e4d041de5b54a8a808953ba3496",
                    "callData": "0x00000000000000000000000000000000000000000000000000000000000000e0000000000000000000000000c02aaa39b223fe8d0a0e5c4f27ead9083c756cc20000000000000000000000000000000000000000000000006a181fe0f89b2b180000000000000000000000000000000000000000035f30582d57d9c4891cd80000000000000000000000000000000000000000000000000000000000615f1ead0000000000000000000000002f62f2b4c5fcd7570a709dec05d68ea19c82a9ec00000000000000000000000000000000000000000000000ce0fad2cab312d11c000000000000000000000000000000000000000000000000000000000000002bc02aaa39b223fe8d0a0e5c4f27ead9083c756cc2000bb895ad61b0a150d79219dcf64e1e6cc01f0b64c4ce000000000000000000000000000000000000000000",
                    "decodedMethod": null,
                    "errorInfo": "",
                    "fromAddress": "0x4d246be90c2f36730bb853ad41d0a189061192d3",
                    "gasUsed": 21962,
                    "id": 1,
                    "methodDecoded": false,
                    "operation": "DELEGATECALL",
                    "output": "",
                    "revert": false,
                    "revertMessage": "",
                    "selector": "0x883df230",
                    "status": true,
                    "value": "0"
                },
                "nodeType": 0
            },
            "2": {
                "invocation": {
                    "address": "0xc02aaa39b223fe8d0a0e5c4f27ead9083c756cc2",
                    "callData": "0x0000000000000000000000002f62f2b4c5fcd7570a709dec05d68ea19c82a9ec",
                    "decodedMethod": {
                        "callParams": [
                            {
                                "name": "",
                                "type": "address",
                                "value": "0x2f62f2b4c5fcd7570a709dec05d68ea19c82a9ec"
                            }
                        ],
                        "constructorArguments": "",
                        "name": "balanceOf",
                        "returnParams": [
                            {
                                "decimalAvailable": true,
                                "name": "",
                                "type": "uint256",
                                "value": "247,204,635,195,043,845,589"
                            }
                        ],
                        "signature": "balanceOf(address)"
                    },
                    "errorInfo": "",
                    "fromAddress": "0x4d246be90c2f36730bb853ad41d0a189061192d3",
                    "gasUsed": 2534,
                    "id": 2,
                    "methodDecoded": true,
                    "operation": "CALL",
                    "output": "0x00000000000000000000000000000000000000000000000d66a749f6ae9d95d5",
                    "revert": false,
                    "revertMessage": "",
                    "selector": "0x70a08231",
                    "status": true,
                    "value": "0"
                },
                "nodeType": 0
            },
            "3": {
                "invocation": {
                    "address": "0x0000000000004946c0e9f43f4dee607b0ef1fa1c",
                    "callData": "0x0000000000000000000000004d246be90c2f36730bb853ad41d0a189061192d30000000000000000000000000000000000000000000000000000000000000002",
                    "decodedMethod": {
                        "callParams": [
                            {
                                "name": "from",
                                "type": "address",
                                "value": "0x4d246be90c2f36730bb853ad41d0a189061192d3"
                            },
                            {
                                "name": "value",
                                "type": "uint256",
                                "value": "2"
                            }
                        ],
                        "constructorArguments": "",
                        "name": "freeFromUpTo",
                        "returnParams": [
                            {
                                "name": "",
                                "type": "uint256",
                                "value": "0"
                            }
                        ],
                        "signature": "freeFromUpTo(address,uint256)"
                    },
                    "errorInfo": "",
                    "fromAddress": "0x4d246be90c2f36730bb853ad41d0a189061192d3",
                    "gasUsed": 12273,
                    "id": 3,
                    "methodDecoded": true,
                    "operation": "CALL",
                    "output": "0x0000000000000000000000000000000000000000000000000000000000000000",
                    "revert": false,
                    "revertMessage": "",
                    "selector": "0x079d229f",
                    "status": true,
                    "value": "0"
                },
                "nodeType": 0
            },
            "4": {
                "event": {
                    "contract": "0x0000000000004946c0e9f43f4dee607b0ef1fa1c",
                    "decodedLog": {
                        "name": "Transfer",
                        "params": [
                            {
                                "name": "from",
                                "type": "address",
                                "value": "0x4d246be90c2f36730bb853ad41d0a189061192d3"
                            },
                            {
                                "name": "to",
                                "type": "address",
                                "value": "0x0000000000000000000000000000000000000000"
                            },
                            {
                                "decimalAvailable": true,
                                "name": "value",
                                "type": "uint256",
                                "value": "0"
                            }
                        ],
                        "signature": "Transfer(address,address,uint256)"
                    },
                    "id": 4,
                    "logData": "0x0000000000000000000000000000000000000000000000000000000000000000",
                    "logDecoded": true,
                    "operation": "EVENT",
                    "revert": false,
                    "status": true,
                    "topics": [
                        "0xddf252ad1be2c89b69c2b068fc378daa952ba7f163c4a11628f55a4df523b3ef",
                        "0x0000000000000000000000004d246be90c2f36730bb853ad41d0a189061192d3",
                        "0x0000000000000000000000000000000000000000000000000000000000000000"
                    ]
                },
                "nodeType": 1
            },
            "5": {
                "event": {
                    "contract": "0x0000000000004946c0e9f43f4dee607b0ef1fa1c",
                    "decodedLog": {
                        "name": "Approval",
                        "params": [
                            {
                                "name": "owner",
                                "type": "address",
                                "value": "0x4d246be90c2f36730bb853ad41d0a189061192d3"
                            },
                            {
                                "name": "spender",
                                "type": "address",
                                "value": "0x4d246be90c2f36730bb853ad41d0a189061192d3"
                            },
                            {
                                "decimalAvailable": true,
                                "name": "value",
                                "type": "uint256",
                                "value": "115,792,089,237,316,195,423,570,985,008,687,907,853,269,984,665,640,564,039,457,584,007,913,129,044,396"
                            }
                        ],
                        "signature": "Approval(address,address,uint256)"
                    },
                    "id": 5,
                    "logData": "0xfffffffffffffffffffffffffffffffffffffffffffffffffffffffffff6e9ac",
                    "logDecoded": true,
                    "operation": "EVENT",
                    "revert": false,
                    "status": true,
                    "topics": [
                        "0x8c5be1e5ebec7d5bd14f71427d1e84f3dd0314c0f7b2291e5b200ac8c7c3b925",
                        "0x0000000000000000000000004d246be90c2f36730bb853ad41d0a189061192d3",
                        "0x0000000000000000000000004d246be90c2f36730bb853ad41d0a189061192d3"
                    ]
                },
                "nodeType": 1
            }
        },
        "gasFlame": [
            {
                "children": [
                    {
                        "children": [
                            {
                                "children": [],
                                "depth": 0,
                                "name": "Initial Gas",
                                "value": 24572
                            },
                            {
                                "children": [
                                    {
                                        "children": [
                                            {
                                                "children": [],
                                                "depth": 2,
                                                "name": "balanceOf",
                                                "value": 2534
                                            },
                                            {
                                                "children": [],
                                                "depth": 2,
                                                "name": "freeFromUpTo",
                                                "value": 12273
                                            }
                                        ],
                                        "depth": 1,
                                        "name": "0x883df230",
                                        "value": 21962
                                    }
                                ],
                                "depth": 0,
                                "name": "Executed Gas",
                                "value": 41834
                            }
                        ],
                        "depth": -1,
                        "name": "Actual Gas Used",
                        "value": 66406
                    },
                    {
                        "children": [],
                        "depth": -1,
                        "name": "Refunded Gas",
                        "value": 0
                    }
                ],
                "depth": -2,
                "name": "Total Gas",
                "value": 66406
            }
        ],
        "isConfirmed": true,
        "mainTrace": [
            {
                "children": [
                    {
                        "children": [
                            {
                                "children": [
                                    {
                                        "children": [],
                                        "depth": 2,
                                        "id": 2,
                                        "order": 2
                                    },
                                    {
                                        "children": [
                                            {
                                                "children": [],
                                                "depth": 3,
                                                "id": 4,
                                                "order": 4
                                            },
                                            {
                                                "children": [],
                                                "depth": 3,
                                                "id": 5,
                                                "order": 5
                                            }
                                        ],
                                        "depth": 2,
                                        "id": 3,
                                        "order": 3
                                    }
                                ],
                                "depth": 1,
                                "id": 1,
                                "order": 1
                            }
                        ],
                        "depth": 0,
                        "id": 0,
                        "order": 0
                    }
                ],
                "depth": -1,
                "id": -1,
                "order": -1
            }
        ],
        "mainTraceNodeCount": 6,
        "parentIdMap": {
            "0": -1,
            "1": 0,
            "2": 1,
            "3": 1,
            "4": 3,
            "5": 3
        },
        "tidyTrace": [
            {
                "children": [
                    {
                        "children": [
                            {
                                "children": [
                                    {
                                        "children": [],
                                        "depth": 2,
                                        "id": 2,
                                        "order": 2
                                    },
                                    {
                                        "children": [
                                            {
                                                "children": [],
                                                "depth": 3,
                                                "id": 4,
                                                "order": 4
                                            },
                                            {
                                                "children": [],
                                                "depth": 3,
                                                "id": 5,
                                                "order": 5
                                            }
                                        ],
                                        "depth": 2,
                                        "id": 3,
                                        "order": 3
                                    }
                                ],
                                "depth": 1,
                                "id": 1,
                                "order": 1
                            }
                        ],
                        "depth": 0,
                        "id": 0,
                        "order": 0
                    }
                ],
                "depth": -1,
                "id": -1,
                "order": -1
            }
        ],
        "tidyTraceNodeCount": 6
    },
    "state_change": {
        "stateChanges": []
    }
}