{
    "balance_change": {
        "balanceChanges": []
    },
    "profile": {
        "basic_info": {
            "baseFee": "2.011174188",
            "blockNumber": 20157837,
            "callData": "0x604acd235ec29c0d70afec86746c12f0a0a86bcd0ce19ac0a47acd4125dde5443f266b6b",
            "debugEnable": true,
            "errorInfo": "",
            "eventCount": 0,
            "feeRecipient": "0x1f9090aae28b8a3dceadf281b0f12828e676c326",
            "formatValue": "0",
            "gasLimit": 29471,
            "gasPrice": "3.511174188",
            "gasUsed": 29123,
            "intTxnCount": 0,
            "internalRevert": false,
            "internalRevertMessage": "",
            "isContractCreation": false,
            "isFlashloan": false,
            "maxFee": "5.478286172",
            "nonce": 207,
            "overwritedBlockNumber": -1,
            "priorityFee": "1.5",
            "receiver": "0x9d732afa9f6726efdf2c071fb0ffa4efd8ce505f",
            "revertMessage": "",
            "sender": "0x28c1b66de284bf689dc677fbc0dfc67400f96f19",
            "simulationEnable": true,
            "sourceTxnHash": "0x21d213645afc8e37107a045d4c8fa9576fa6df49e1546b6f1f3b0c5fdf589f4a",
            "status": true,
            "timestamp": "2024-06-24T00:02:23Z",
            "transactionFee": "0.000102255925877124",
            "txnHash": "0x21d213645afc8e37107a045d4c8fa9576fa6df49e1546b6f1f3b0c5fdf589f4a",
            "txnIndex": 91,
            "type": 2,
            "value": "0"
        },
        "fund_flow": [],
        "token_infos": [
            {
                "address": "0xc02aaa39b223fe8d0a0e5c4f27ead9083c756cc2",
                "decimals": 18
            },
            {
                "address": "0xeeeeeeeeeeeeeeeeeeeeeeeeeeeeeeeeeeeeeeee",
                "decimals": 18
            }
        ]
    },
    "address_label": {
        "labels": [
            {
                "address": "0xeeeeeeeeeeeeeeeeeeeeeeeeeeeeeeeeeeeeeeee",
                "label": "Ether"
            },
            {
                "address": "0x9d732afa9f6726efdf2c071fb0ffa4efd8ce505f",
                "label": "DUELStaking"
            },
            {
                "address": "0x0000000000000000000000000000000000000001",
                "label": "Precompiled"
            },
            {
                "address": "0x0000000000000000000000000000000000000002",
                "label": "Precompiled"
            },
            {
                "address": "0x0000000000000000000000000000000000000003",
                "label": "Precompiled"
            },
            {
                "address": "0x0000000000000000000000000000000000000004",
                "label": "Precompiled"
            }
        ]
    },
    "trace": {
        "accountLabels": null,
        "dataMap": {
            "-1": {
                "invocation": {
                    "address": "0x28c1b66de284bf689dc677fbc0dfc67400f96f19",
                    "callData": "",
                    "decodedMethod": null,
                    "errorInfo": "",
                    "fromAddress": "",
                    "gasUsed": 0,
                    "id": -1,
                    "methodDecoded": false,
                    "operation": "",
                    "output": "",
                    "revert": false,
                    "revertMessage": "",
                    "selector": "",
                    "status": false,
                    "value": ""
                },
                "nodeType": 0
            },
            "0": {
                "invocation": {
                    "address": "0x9d732afa9f6726efdf2c071fb0ffa4efd8ce505f",
                    "callData": "0x5ec29c0d70afec86746c12f0a0a86bcd0ce19ac0a47acd4125dde5443f266b6b",
                    "decodedMethod": {
                        "callParams": [
                            {
                                "name": "newCheckpoint",
                                "type": "bytes32",
                                "value": "0x5ec29c0d70afec86746c12f0a0a86bcd0ce19ac0a47acd4125dde5443f266b6b"
                            }
                        ],
                        "constructorArguments": "",
                        "name": "updateStakeCheckpoint",
                        "returnParams": [],
                        "signature": "updateStakeCheckpoint(bytes32)"
                    },
                    "errorInfo": "",
                    "fromAddress": "0x28c1b66de284bf689dc677fbc0dfc67400f96f19",
                    "gasUsed": 29123,
                    "id": 0,
                    "methodDecoded": true,
                    "operation": "CALL",
                    "output": "",
                    "revert": false,
                    "revertMessage": "",
                    "selector": "0x604acd23",
                    "status": true,
                    "value": "0"
                },
                "nodeType": 0
            }
        },
        "gasFlame": [
            {
                "children": [
                    {
                        "children": [
                            {
                                "children": [],
                                "depth": 0,
                                "name": "Initial Gas",
                                "value": 21576
                            },
                            {
                                "children": [],
                                "depth": 0,
                                "name": "Executed Gas",
                                "value": 7547
                            }
                        ],
                        "depth": -1,
                        "name": "Actual Gas Used",
                        "value": 29123
                    },
                    {
                        "children": [],
                        "depth": -1,
                        "name": "Refunded Gas",
                        "value": 0
                    }
                ],
                "depth": -2,
                "name": "Total Gas",
                "value": 29123
            }
        ],
        "isConfirmed": true,
        "mainTrace": [
            {
                "children": [
                    {
                        "children": [],
                        "depth": 0,
                        "id": 0,
                        "order": 0
                    }
                ],
                "depth": -1,
                "id": -1,
                "order": -1
            }
        ],
        "mainTraceNodeCount": 1,
        "parentIdMap": {
            "0": -1
        },
        "tidyTrace": [
            {
                "children": [
                    {
                        "children": [],
                        "depth": 0,
                        "id": 0,
                        "order": 0
                    }
                ],
                "depth": -1,
                "id": -1,
                "order": -1
            }
        ],
        "tidyTraceNodeCount": 1
    },
    "state_change": {
        "stateChanges": [
            {
                "address": "0x9d732afa9f6726efdf2c071fb0ffa4efd8ce505f",
                "erc": "",
                "slots": [
                    {
                        "current": "0x5ec29c0d70afec86746c12f0a0a86bcd0ce19ac0a47acd4125dde5443f266b6b",
                        "key": "0x0000000000000000000000000000000000000000000000000000000000000008",
                        "prev": "0x0db1f4c3483e84aba2e1c8690cdb3272b5afbe61031f8b82a303a24640af4fef"
                    }
                ],
                "storageVariables": [
                    {
                        "name": "currentCheckpoint",
                        "type": "bytes32",
                        "value": {
                            "current": "0x5ec29c0d70afec86746c12f0a0a86bcd0ce19ac0a47acd4125dde5443f266b6b",
                            "prev": "0x0db1f4c3483e84aba2e1c8690cdb3272b5afbe61031f8b82a303a24640af4fef",
                            "typeTag": 1
                        }
                    }
                ]
            }
        ]
    }
}