{
    "balance_change": {
        "balanceChanges": [
            {
                "account": "0x0000000000000000000000000000000000000000",
                "assets": [
                    {
                        "address": "0xa11e6e8c80a6f3432c24bcfeb209eb649110ba96",
                        "amount": "1",
                        "iconUrl": "",
                        "isERC1155": false,
                        "isERC721": true,
                        "sign": false,
                        "tokenID": "717",
                        "value": ""
                    },
                    {
                        "address": "0xa11e6e8c80a6f3432c24bcfeb209eb649110ba96",
                        "amount": "1",
                        "iconUrl": "",
                        "isERC1155": false,
                        "isERC721": true,
                        "sign": false,
                        "tokenID": "718",
                        "value": ""
                    }
                ]
            },
            {
                "account": "0x431a1e426bbc69b3a7c0dcbecd51aae1deb7f9b7",
                "assets": [
                    {
                        "address": "0xa11e6e8c80a6f3432c24bcfeb209eb649110ba96",
                        "amount": "1",
                        "iconUrl": "",
                        "isERC1155": false,
                        "isERC721": true,
                        "sign": true,
                        "tokenID": "717",
                        "value": ""
                    },
                    {
                        "address": "0xa11e6e8c80a6f3432c24bcfeb209eb649110ba96",
                        "amount": "1",
                        "iconUrl": "",
                        "isERC1155": false,
                        "isERC721": true,
                        "sign": true,
                        "tokenID": "718",
                        "value": ""
                    }
                ]
            }
        ]
    },
    "profile": {
        "basic_info": {
            "baseFee": "17.050029784",
            "blockNumber": 15412059,
            "callData": "0xba41b0c60000000000000000000000000000000000000000000000000000000000000002000000000000000000000000000000000000000000000000000000000000004000000000000000000000000000000000000000000000000000000000000000092f2a92a410c9aa89c855c7f253498001feb52170ee1160053a150ec37bbcaa956c318d97954d2bb9fbde7ca849412f7776fa8b808fbef65fc405d0d9df3a0093a886b63dc760581117d10a89633d0756daa9031cac487319fea7fdaf9f6d0dc3e8f564f5aaed127420e096692c61061d8e2c32bb7792e49a15b539e877b6d0f3d365b31043130d108095ba8ca1ff0f51b1d50fc50af48e065e75cf6c9cc3e89c8ccc8937caef00a5bca776d3fd3e3be43ea3c039251984b12a8d2840448e5adf356c8f235d69c332856bd8c143c2f442a6c6cd08ff87439e2a5acc1c251ee81ad4ce5006fad89f9059379415cf2afb957cf461067becf2b96d1e82d54690678fa648b6039d81d35ad48083b9cb448f6ac1eacf1ecf52c0a7eaa2bf9287c0f6ce",
            "debugEnable": true,
            "errorInfo": "",
            "eventCount": 2,
            "feeRecipient": "0xf3a71cc1be5ce833c471e3f25aa391f9cd56e1aa",
            "formatValue": "0",
            "gasLimit": 88932,
            "gasPrice": "18.550029784",
            "gasUsed": 88932,
            "intTxnCount": 0,
            "internalRevert": false,
            "internalRevertMessage": "",
            "isContractCreation": false,
            "isFlashloan": false,
            "maxFee": "24.511771658",
            "nonce": 32,
            "overwritedBlockNumber": -1,
            "priorityFee": "1.5",
            "receiver": "0xa11e6e8c80a6f3432c24bcfeb209eb649110ba96",
            "revertMessage": "",
            "sender": "0x431a1e426bbc69b3a7c0dcbecd51aae1deb7f9b7",
            "simulationEnable": true,
            "sourceTxnHash": "0x21eb5154085609980fe2272f92b7db602aa000e6944ec16a9dc79328b8a752e9",
            "status": true,
            "timestamp": "2022-08-25T23:47:24Z",
            "transactionFee": "0.001649691248750688",
            "txnHash": "0x21eb5154085609980fe2272f92b7db602aa000e6944ec16a9dc79328b8a752e9",
            "txnIndex": 114,
            "type": 2,
            "value": "0"
        },
        "fund_flow": [
            {
                "amount": "1",
                "from": "0x0000000000000000000000000000000000000000",
                "id": 1,
                "isERC1155": false,
                "isERC721": true,
                "isReverted": false,
                "order": 1,
                "to": "0x431a1e426bbc69b3a7c0dcbecd51aae1deb7f9b7",
                "token": "0xa11e6e8c80a6f3432c24bcfeb209eb649110ba96",
                "tokenID": "717"
            },
            {
                "amount": "1",
                "from": "0x0000000000000000000000000000000000000000",
                "id": 2,
                "isERC1155": false,
                "isERC721": true,
                "isReverted": false,
                "order": 2,
                "to": "0x431a1e426bbc69b3a7c0dcbecd51aae1deb7f9b7",
                "token": "0xa11e6e8c80a6f3432c24bcfeb209eb649110ba96",
                "tokenID": "718"
            }
        ],
        "token_infos": [
            {
                "address": "0xc02aaa39b223fe8d0a0e5c4f27ead9083c756cc2",
                "decimals": 18
            },
            {
                "address": "0xeeeeeeeeeeeeeeeeeeeeeeeeeeeeeeeeeeeeeeee",
                "decimals": 18
            }
        ]
    },
    "address_label": {
        "labels": [
            {
                "address": "0xeeeeeeeeeeeeeeeeeeeeeeeeeeeeeeeeeeeeeeee",
                "label": "Ether"
            },
            {
                "address": "0xa11e6e8c80a6f3432c24bcfeb209eb649110ba96",
                "label": "PuffyPlanet"
            },
            {
                "address": "0x0000000000000000000000000000000000000001",
                "label": "Precompiled"
            },
            {
                "address": "0x0000000000000000000000000000000000000002",
                "label": "Precompiled"
            },
            {
                "address": "0x0000000000000000000000000000000000000003",
                "label": "Precompiled"
            },
            {
                "address": "0x0000000000000000000000000000000000000004",
                "label": "Precompiled"
            }
        ]
    },
    "trace": {
        "accountLabels": null,
        "dataMap": {
            "-1": {
                "invocation": {
                    "address": "0x431a1e426bbc69b3a7c0dcbecd51aae1deb7f9b7",
                    "callData": "",
                    "decodedMethod": null,
                    "errorInfo": "",
                    "fromAddress": "",
                    "gasUsed": 0,
                    "id": -1,
                    "methodDecoded": false,
                    "operation": "",
                    "output": "",
                    "revert": false,
                    "revertMessage": "",
                    "selector": "",
                    "status": false,
                    "value": ""
                },
                "nodeType": 0
            },
            "0": {
                "invocation": {
                    "address": "0xa11e6e8c80a6f3432c24bcfeb209eb649110ba96",
                    "callData": "0x0000000000000000000000000000000000000000000000000000000000000002000000000000000000000000000000000000000000000000000000000000004000000000000000000000000000000000000000000000000000000000000000092f2a92a410c9aa89c855c7f253498001feb52170ee1160053a150ec37bbcaa956c318d97954d2bb9fbde7ca849412f7776fa8b808fbef65fc405d0d9df3a0093a886b63dc760581117d10a89633d0756daa9031cac487319fea7fdaf9f6d0dc3e8f564f5aaed127420e096692c61061d8e2c32bb7792e49a15b539e877b6d0f3d365b31043130d108095ba8ca1ff0f51b1d50fc50af48e065e75cf6c9cc3e89c8ccc8937caef00a5bca776d3fd3e3be43ea3c039251984b12a8d2840448e5adf356c8f235d69c332856bd8c143c2f442a6c6cd08ff87439e2a5acc1c251ee81ad4ce5006fad89f9059379415cf2afb957cf461067becf2b96d1e82d54690678fa648b6039d81d35ad48083b9cb448f6ac1eacf1ecf52c0a7eaa2bf9287c0f6ce",
                    "decodedMethod": {
                        "callParams": [
                            {
                                "name": "_mintAmount",
                                "type": "uint256",
                                "value": "2"
                            },
                            {
                                "name": "_merkleProof",
                                "type": "bytes32[]",
                                "value": [
                                    "0x2f2a92a410c9aa89c855c7f253498001feb52170ee1160053a150ec37bbcaa95",
                                    "0x6c318d97954d2bb9fbde7ca849412f7776fa8b808fbef65fc405d0d9df3a0093",
                                    "0xa886b63dc760581117d10a89633d0756daa9031cac487319fea7fdaf9f6d0dc3",
                                    "0xe8f564f5aaed127420e096692c61061d8e2c32bb7792e49a15b539e877b6d0f3",
                                    "0xd365b31043130d108095ba8ca1ff0f51b1d50fc50af48e065e75cf6c9cc3e89c",
                                    "0x8ccc8937caef00a5bca776d3fd3e3be43ea3c039251984b12a8d2840448e5adf",
                                    "0x356c8f235d69c332856bd8c143c2f442a6c6cd08ff87439e2a5acc1c251ee81a",
                                    "0xd4ce5006fad89f9059379415cf2afb957cf461067becf2b96d1e82d54690678f",
                                    "0xa648b6039d81d35ad48083b9cb448f6ac1eacf1ecf52c0a7eaa2bf9287c0f6ce"
                                ]
                            }
                        ],
                        "constructorArguments": "",
                        "name": "mint",
                        "returnParams": [],
                        "signature": "mint(uint256,bytes32[])"
                    },
                    "errorInfo": "",
                    "fromAddress": "0x431a1e426bbc69b3a7c0dcbecd51aae1deb7f9b7",
                    "gasUsed": 88932,
                    "id": 0,
                    "methodDecoded": true,
                    "operation": "CALL",
                    "output": "",
                    "revert": false,
                    "revertMessage": "",
                    "selector": "0xba41b0c6",
                    "status": true,
                    "value": "0"
                },
                "nodeType": 0
            },
            "1": {
                "event": {
                    "contract": "0xa11e6e8c80a6f3432c24bcfeb209eb649110ba96",
                    "decodedLog": {
                        "name": "Transfer",
                        "params": [
                            {
                                "name": "from",
                                "type": "address",
                                "value": "0x0000000000000000000000000000000000000000"
                            },
                            {
                                "name": "to",
                                "type": "address",
                                "value": "0x431a1e426bbc69b3a7c0dcbecd51aae1deb7f9b7"
                            },
                            {
                                "decimalAvailable": true,
                                "name": "tokenId",
                                "type": "uint256",
                                "value": "717"
                            }
                        ],
                        "signature": "Transfer(address,address,uint256)"
                    },
                    "id": 1,
                    "logData": "0x",
                    "logDecoded": true,
                    "operation": "EVENT",
                    "revert": false,
                    "status": true,
                    "topics": [
                        "0xddf252ad1be2c89b69c2b068fc378daa952ba7f163c4a11628f55a4df523b3ef",
                        "0x0000000000000000000000000000000000000000000000000000000000000000",
                        "0x000000000000000000000000431a1e426bbc69b3a7c0dcbecd51aae1deb7f9b7",
                        "0x00000000000000000000000000000000000000000000000000000000000002cd"
                    ]
                },
                "nodeType": 1
            },
            "2": {
                "event": {
                    "contract": "0xa11e6e8c80a6f3432c24bcfeb209eb649110ba96",
                    "decodedLog": {
                        "name": "Transfer",
                        "params": [
                            {
                                "name": "from",
                                "type": "address",
                                "value": "0x0000000000000000000000000000000000000000"
                            },
                            {
                                "name": "to",
                                "type": "address",
                                "value": "0x431a1e426bbc69b3a7c0dcbecd51aae1deb7f9b7"
                            },
                            {
                                "decimalAvailable": true,
                                "name": "tokenId",
                                "type": "uint256",
                                "value": "718"
                            }
                        ],
                        "signature": "Transfer(address,address,uint256)"
                    },
                    "id": 2,
                    "logData": "0x",
                    "logDecoded": true,
                    "operation": "EVENT",
                    "revert": false,
                    "status": true,
                    "topics": [
                        "0xddf252ad1be2c89b69c2b068fc378daa952ba7f163c4a11628f55a4df523b3ef",
                        "0x0000000000000000000000000000000000000000000000000000000000000000",
                        "0x000000000000000000000000431a1e426bbc69b3a7c0dcbecd51aae1deb7f9b7",
                        "0x00000000000000000000000000000000000000000000000000000000000002ce"
                    ]
                },
                "nodeType": 1
            }
        },
        "gasFlame": [
            {
                "children": [
                    {
                        "children": [
                            {
                                "children": [],
                                "depth": 0,
                                "name": "Initial Gas",
                                "value": 26068
                            },
                            {
                                "children": [],
                                "depth": 0,
                                "name": "Executed Gas",
                                "value": 62864
                            }
                        ],
                        "depth": -1,
                        "name": "Actual Gas Used",
                        "value": 88932
                    },
                    {
                        "children": [],
                        "depth": -1,
                        "name": "Refunded Gas",
                        "value": 0
                    }
                ],
                "depth": -2,
                "name": "Total Gas",
                "value": 88932
            }
        ],
        "isConfirmed": true,
        "mainTrace": [
            {
                "children": [
                    {
                        "children": [
                            {
                                "children": [],
                                "depth": 1,
                                "id": 1,
                                "order": 1
                            },
                            {
                                "children": [],
                                "depth": 1,
                                "id": 2,
                                "order": 2
                            }
                        ],
                        "depth": 0,
                        "id": 0,
                        "order": 0
                    }
                ],
                "depth": -1,
                "id": -1,
                "order": -1
            }
        ],
        "mainTraceNodeCount": 3,
        "parentIdMap": {
            "0": -1,
            "1": 0,
            "2": 0
        },
        "tidyTrace": [
            {
                "children": [
                    {
                        "children": [
                            {
                                "children": [],
                                "depth": 1,
                                "id": 1,
                                "order": 1
                            },
                            {
                                "children": [],
                                "depth": 1,
                                "id": 2,
                                "order": 2
                            }
                        ],
                        "depth": 0,
                        "id": 0,
                        "order": 0
                    }
                ],
                "depth": -1,
                "id": -1,
                "order": -1
            }
        ],
        "tidyTraceNodeCount": 3
    },
    "state_change": {
        "stateChanges": [
            {
                "address": "0xa11e6e8c80a6f3432c24bcfeb209eb649110ba96",
                "erc": "ERC-721",
                "slots": [
                    {
                        "current": "0x00000000000000000000000000000000000000000000000000000000000002cf",
                        "key": "0x0000000000000000000000000000000000000000000000000000000000000000",
                        "prev": "0x00000000000000000000000000000000000000000000000000000000000002cd"
                    },
                    {
                        "current": "0x00000000000000000000000000000000000000000000000000000000000002cd",
                        "key": "0x000000000000000000000000000000000000000000000000000000000000001e",
                        "prev": "0x00000000000000000000000000000000000000000000000000000000000002cb"
                    },
                    {
                        "current": "0x00000000000000000000000000000000000000000000000000000000000002ce",
                        "key": "0x000000000000000000000000000000000000000000000000000000000000001d",
                        "prev": "0x00000000000000000000000000000000000000000000000000000000000002cc"
                    },
                    {
                        "current": "0x00000000000000000000000000000000000000000000000c0000000000000002",
                        "key": "0x4230c08ea780f51af122dd71b21c17983a6b7575772ed2b833fc8024fce996f3",
                        "prev": "0x00000000000000000000000000000000000000000000000a0000000000000000"
                    },
                    {
                        "current": "0x000000000000000063080a0c431a1e426bbc69b3a7c0dcbecd51aae1deb7f9b7",
                        "key": "0x97ab3bfb426318f2192a6b8e4cdfc18b2d7d9b387b5b31be3ecce210bc1c40f3",
                        "prev": "0x0000000000000000000000000000000000000000000000000000000000000000"
                    }
                ],
                "storageVariables": [
                    {
                        "name": "mintedTokens",
                        "type": "uint256",
                        "value": {
                            "current": "718",
                            "prev": "716",
                            "typeTag": 1
                        }
                    },
                    {
                        "name": "_packedAddressData",
                        "type": "mapping(address => uint256)",
                        "value": {
                            "pairs": [
                                {
                                    "key": "0x431a1e426bbc69b3a7c0dcbecd51aae1deb7f9b7",
                                    "value": {
                                        "current": "221360928884514619394",
                                        "prev": "184467440737095516160",
                                        "typeTag": 1
                                    }
                                }
                            ],
                            "typeTag": 4
                        }
                    },
                    {
                        "name": "_packedOwnerships",
                        "type": "mapping(uint256 => uint256)",
                        "value": {
                            "pairs": [
                                {
                                    "key": "717",
                                    "value": {
                                        "current": "2428242943867296948141885389556850375822496481793671690679",
                                        "prev": "0",
                                        "typeTag": 1
                                    }
                                }
                            ],
                            "typeTag": 4
                        }
                    },
                    {
                        "name": "_currentIndex",
                        "type": "uint256",
                        "value": {
                            "current": "719",
                            "prev": "717",
                            "typeTag": 1
                        }
                    },
                    {
                        "name": "freeMintedTokens",
                        "type": "uint256",
                        "value": {
                            "current": "717",
                            "prev": "715",
                            "typeTag": 1
                        }
                    }
                ]
            }
        ]
    }
}