{
    "balance_change": {
        "balanceChanges": [
            {
                "account": "0xe232101ca1a10f0336fb1371d33ddd0fd3dd1363",
                "assets": [
                    {
                        "address": "0xf2dcee9b0ced48b4efd0d9cf9bb29519bba89ec7",
                        "amount": "53,130.513728457957309381",
                        "iconUrl": "",
                        "isERC1155": false,
                        "isERC721": false,
                        "sign": true,
                        "value": "110.2897427"
                    },
                    {
                        "address": "0xc02aaa39b223fe8d0a0e5c4f27ead9083c756cc2",
                        "amount": "0.07",
                        "iconUrl": "https://assets.blocksec.com/icon/f1cb2d02c471d545bbc7722daf3277fd852d98e63d118771af7047bd8256c516.png",
                        "isERC1155": false,
                        "isERC721": false,
                        "sign": false,
                        "value": "119.76230000000000701"
                    }
                ]
            },
            {
                "account": "0x1a2db8088442093140f04728e62c2337016ff3b8",
                "assets": [
                    {
                        "address": "0xc02aaa39b223fe8d0a0e5c4f27ead9083c756cc2",
                        "amount": "0.07",
                        "iconUrl": "https://assets.blocksec.com/icon/f1cb2d02c471d545bbc7722daf3277fd852d98e63d118771af7047bd8256c516.png",
                        "isERC1155": false,
                        "isERC721": false,
                        "sign": true,
                        "value": "119.76230000000000701"
                    },
                    {
                        "address": "0xf2dcee9b0ced48b4efd0d9cf9bb29519bba89ec7",
                        "amount": "55,926.856556271534009874",
                        "iconUrl": "",
                        "isERC1155": false,
                        "isERC721": false,
                        "sign": false,
                        "value": "113.631797"
                    }
                ]
            },
            {
                "account": "0xf2dcee9b0ced48b4efd0d9cf9bb29519bba89ec7",
                "assets": [
                    {
                        "address": "0xf2dcee9b0ced48b4efd0d9cf9bb29519bba89ec7",
                        "amount": "2,796.342827813576700493",
                        "iconUrl": "",
                        "isERC1155": false,
                        "isERC721": false,
                        "sign": true,
                        "value": "5.61664036"
                    }
                ]
            }
        ]
    },
    "profile": {
        "basic_info": {
            "baseFee": "26.02541837",
            "blockNumber": 16828960,
            "callData": "0x5c11d79500000000000000000000000000000000000000000000000000f8b0a10e4700000000000000000000000000000000000000000000000009f1106bf5942374bbcf00000000000000000000000000000000000000000000000000000000000000a0000000000000000000000000e232101ca1a10f0336fb1371d33ddd0fd3dd1363000000000000000000000000000000000000000000000000000000006410ec630000000000000000000000000000000000000000000000000000000000000002000000000000000000000000c02aaa39b223fe8d0a0e5c4f27ead9083c756cc2000000000000000000000000f2dcee9b0ced48b4efd0d9cf9bb29519bba89ec7",
            "debugEnable": true,
            "errorInfo": "",
            "eventCount": 5,
            "feeRecipient": "0x1f9090aae28b8a3dceadf281b0f12828e676c326",
            "formatValue": "0",
            "gasLimit": 143829,
            "gasPrice": "52.749147188",
            "gasUsed": 116146,
            "intTxnCount": 9,
            "internalRevert": false,
            "internalRevertMessage": "",
            "isContractCreation": false,
            "isFlashloan": false,
            "maxFee": "110.06",
            "nonce": 184,
            "overwritedBlockNumber": -1,
            "priorityFee": "26.723728818",
            "receiver": "0x7a250d5630b4cf539739df2c5dacb4c659f2488d",
            "revertMessage": "",
            "sender": "0xe232101ca1a10f0336fb1371d33ddd0fd3dd1363",
            "simulationEnable": true,
            "sourceTxnHash": "0x21c388469fcba951278b38de4f9e89137d9bc3fc4c49bf2311ec4fd70bf6c4e2",
            "status": true,
            "timestamp": "2023-03-14T21:48:23Z",
            "transactionFee": "0.006126602449297448",
            "txnHash": "0x21c388469fcba951278b38de4f9e89137d9bc3fc4c49bf2311ec4fd70bf6c4e2",
            "txnIndex": 4,
            "type": 2,
            "value": "0"
        },
        "fund_flow": [
            {
                "amount": "0.07",
                "from": "0xe232101ca1a10f0336fb1371d33ddd0fd3dd1363",
                "id": 1,
                "isERC1155": false,
                "isERC721": false,
                "isReverted": false,
                "order": 1,
                "to": "0x1a2db8088442093140f04728e62c2337016ff3b8",
                "token": "0xc02aaa39b223fe8d0a0e5c4f27ead9083c756cc2"
            },
            {
                "amount": "2,796.342827813576700493",
                "from": "0x1a2db8088442093140f04728e62c2337016ff3b8",
                "id": 2,
                "isERC1155": false,
                "isERC721": false,
                "isReverted": false,
                "order": 2,
                "to": "0xf2dcee9b0ced48b4efd0d9cf9bb29519bba89ec7",
                "token": "0xf2dcee9b0ced48b4efd0d9cf9bb29519bba89ec7"
            },
            {
                "amount": "53,130.513728457957309381",
                "from": "0x1a2db8088442093140f04728e62c2337016ff3b8",
                "id": 3,
                "isERC1155": false,
                "isERC721": false,
                "isReverted": false,
                "order": 3,
                "to": "0xe232101ca1a10f0336fb1371d33ddd0fd3dd1363",
                "token": "0xf2dcee9b0ced48b4efd0d9cf9bb29519bba89ec7"
            }
        ],
        "token_infos": [
            {
                "address": "0xc02aaa39b223fe8d0a0e5c4f27ead9083c756cc2",
                "decimals": 18
            },
            {
                "address": "0xf2dcee9b0ced48b4efd0d9cf9bb29519bba89ec7",
                "decimals": 18
            },
            {
                "address": "0xeeeeeeeeeeeeeeeeeeeeeeeeeeeeeeeeeeeeeeee",
                "decimals": 18
            }
        ]
    },
    "address_label": {
        "labels": [
            {
                "address": "0xf2dcee9b0ced48b4efd0d9cf9bb29519bba89ec7",
                "label": "Degenews (DN)"
            },
            {
                "address": "0x0000000000000000000000000000000000000003",
                "label": "Precompiled"
            },
            {
                "address": "0xeeeeeeeeeeeeeeeeeeeeeeeeeeeeeeeeeeeeeeee",
                "label": "Ether"
            },
            {
                "address": "0x1a2db8088442093140f04728e62c2337016ff3b8",
                "label": "Uniswap V2: DN 8"
            },
            {
                "address": "0x7a250d5630b4cf539739df2c5dacb4c659f2488d",
                "label": "Uniswap V2: Router 2"
            },
            {
                "address": "0xc02aaa39b223fe8d0a0e5c4f27ead9083c756cc2",
                "label": "Wrapped Ether (WETH)"
            },
            {
                "address": "0x0000000000000000000000000000000000000001",
                "label": "Precompiled"
            },
            {
                "address": "0x0000000000000000000000000000000000000002",
                "label": "Precompiled"
            },
            {
                "address": "0x0000000000000000000000000000000000000004",
                "label": "Precompiled"
            }
        ]
    },
    "trace": {
        "accountLabels": null,
        "dataMap": {
            "-1": {
                "invocation": {
                    "address": "0xe232101ca1a10f0336fb1371d33ddd0fd3dd1363",
                    "callData": "",
                    "decodedMethod": null,
                    "errorInfo": "",
                    "fromAddress": "",
                    "gasUsed": 0,
                    "id": -1,
                    "methodDecoded": false,
                    "operation": "",
                    "output": "",
                    "revert": false,
                    "revertMessage": "",
                    "selector": "",
                    "status": false,
                    "value": ""
                },
                "nodeType": 0
            },
            "0": {
                "invocation": {
                    "address": "0x7a250d5630b4cf539739df2c5dacb4c659f2488d",
                    "callData": "0x00000000000000000000000000000000000000000000000000f8b0a10e4700000000000000000000000000000000000000000000000009f1106bf5942374bbcf00000000000000000000000000000000000000000000000000000000000000a0000000000000000000000000e232101ca1a10f0336fb1371d33ddd0fd3dd1363000000000000000000000000000000000000000000000000000000006410ec630000000000000000000000000000000000000000000000000000000000000002000000000000000000000000c02aaa39b223fe8d0a0e5c4f27ead9083c756cc2000000000000000000000000f2dcee9b0ced48b4efd0d9cf9bb29519bba89ec7",
                    "decodedMethod": {
                        "callParams": [
                            {
                                "name": "amountIn",
                                "type": "uint256",
                                "value": "70,000,000,000,000,000"
                            },
                            {
                                "name": "amountOutMin",
                                "type": "uint256",
                                "value": "46,948,146,976,934,522,567,631"
                            },
                            {
                                "name": "path",
                                "type": "address[]",
                                "value": [
                                    "0xc02aaa39b223fe8d0a0e5c4f27ead9083c756cc2",
                                    "0xf2dcee9b0ced48b4efd0d9cf9bb29519bba89ec7"
                                ]
                            },
                            {
                                "name": "to",
                                "type": "address",
                                "value": "0xe232101ca1a10f0336fb1371d33ddd0fd3dd1363"
                            },
                            {
                                "name": "deadline",
                                "type": "uint256",
                                "value": "1,678,830,691"
                            }
                        ],
                        "constructorArguments": "",
                        "name": "swapExactTokensForTokensSupportingFeeOnTransferTokens",
                        "returnParams": [],
                        "signature": "swapExactTokensForTokensSupportingFeeOnTransferTokens(uint256,uint256,address[],address,uint256)"
                    },
                    "errorInfo": "",
                    "fromAddress": "0xe232101ca1a10f0336fb1371d33ddd0fd3dd1363",
                    "gasUsed": 116146,
                    "id": 0,
                    "methodDecoded": true,
                    "operation": "CALL",
                    "output": "",
                    "revert": false,
                    "revertMessage": "",
                    "selector": "0x5c11d795",
                    "status": true,
                    "value": "0"
                },
                "nodeType": 0
            },
            "1": {
                "invocation": {
                    "address": "0xc02aaa39b223fe8d0a0e5c4f27ead9083c756cc2",
                    "callData": "0x000000000000000000000000e232101ca1a10f0336fb1371d33ddd0fd3dd13630000000000000000000000001a2db8088442093140f04728e62c2337016ff3b800000000000000000000000000000000000000000000000000f8b0a10e470000",
                    "decodedMethod": {
                        "callParams": [
                            {
                                "name": "src",
                                "type": "address",
                                "value": "0xe232101ca1a10f0336fb1371d33ddd0fd3dd1363"
                            },
                            {
                                "name": "dst",
                                "type": "address",
                                "value": "0x1a2db8088442093140f04728e62c2337016ff3b8"
                            },
                            {
                                "decimalAvailable": true,
                                "name": "wad",
                                "type": "uint256",
                                "value": "70,000,000,000,000,000"
                            }
                        ],
                        "constructorArguments": "",
                        "name": "transferFrom",
                        "returnParams": [
                            {
                                "name": "",
                                "type": "bool",
                                "value": true
                            }
                        ],
                        "signature": "transferFrom(address,address,uint256)"
                    },
                    "errorInfo": "",
                    "fromAddress": "0x7a250d5630b4cf539739df2c5dacb4c659f2488d",
                    "gasUsed": 15025,
                    "id": 1,
                    "methodDecoded": true,
                    "operation": "CALL",
                    "output": "0x0000000000000000000000000000000000000000000000000000000000000001",
                    "revert": false,
                    "revertMessage": "",
                    "selector": "0x23b872dd",
                    "status": true,
                    "value": "0"
                },
                "nodeType": 0
            },
            "10": {
                "invocation": {
                    "address": "0xc02aaa39b223fe8d0a0e5c4f27ead9083c756cc2",
                    "callData": "0x0000000000000000000000001a2db8088442093140f04728e62c2337016ff3b8",
                    "decodedMethod": {
                        "callParams": [
                            {
                                "name": "",
                                "type": "address",
                                "value": "0x1a2db8088442093140f04728e62c2337016ff3b8"
                            }
                        ],
                        "constructorArguments": "",
                        "name": "balanceOf",
                        "returnParams": [
                            {
                                "decimalAvailable": true,
                                "name": "",
                                "type": "uint256",
                                "value": "6,270,000,000,000,000,000"
                            }
                        ],
                        "signature": "balanceOf(address)"
                    },
                    "errorInfo": "",
                    "fromAddress": "0x1a2db8088442093140f04728e62c2337016ff3b8",
                    "gasUsed": 534,
                    "id": 10,
                    "methodDecoded": true,
                    "operation": "STATICCALL",
                    "output": "0x000000000000000000000000000000000000000000000000570383c7b5b30000",
                    "revert": false,
                    "revertMessage": "",
                    "selector": "0x70a08231",
                    "status": true,
                    "value": "0"
                },
                "nodeType": 0
            },
            "11": {
                "invocation": {
                    "address": "0xf2dcee9b0ced48b4efd0d9cf9bb29519bba89ec7",
                    "callData": "0x0000000000000000000000001a2db8088442093140f04728e62c2337016ff3b8",
                    "decodedMethod": {
                        "callParams": [
                            {
                                "name": "account",
                                "type": "address",
                                "value": "0x1a2db8088442093140f04728e62c2337016ff3b8"
                            }
                        ],
                        "constructorArguments": "",
                        "name": "balanceOf",
                        "returnParams": [
                            {
                                "decimalAvailable": true,
                                "name": "",
                                "type": "uint256",
                                "value": "4,968,426,861,282,182,416,696,105"
                            }
                        ],
                        "signature": "balanceOf(address)"
                    },
                    "errorInfo": "",
                    "fromAddress": "0x1a2db8088442093140f04728e62c2337016ff3b8",
                    "gasUsed": 576,
                    "id": 11,
                    "methodDecoded": true,
                    "operation": "STATICCALL",
                    "output": "0x000000000000000000000000000000000000000000041c1af5b83271c3ba0329",
                    "revert": false,
                    "revertMessage": "",
                    "selector": "0x70a08231",
                    "status": true,
                    "value": "0"
                },
                "nodeType": 0
            },
            "12": {
                "event": {
                    "contract": "0x1a2db8088442093140f04728e62c2337016ff3b8",
                    "decodedLog": {
                        "name": "Sync",
                        "params": [
                            {
                                "name": "reserve0",
                                "type": "uint112",
                                "value": "6,270,000,000,000,000,000"
                            },
                            {
                                "name": "reserve1",
                                "type": "uint112",
                                "value": "4,968,426,861,282,182,416,696,105"
                            }
                        ],
                        "signature": "Sync(uint112,uint112)"
                    },
                    "id": 12,
                    "logData": "0x000000000000000000000000000000000000000000000000570383c7b5b30000000000000000000000000000000000000000000000041c1af5b83271c3ba0329",
                    "logDecoded": true,
                    "operation": "EVENT",
                    "revert": false,
                    "status": true,
                    "topics": [
                        "0x1c411e9a96e071241c2f21f7726b17ae89e3cab4c78be50e062b03a9fffbbad1"
                    ]
                },
                "nodeType": 1
            },
            "13": {
                "event": {
                    "contract": "0x1a2db8088442093140f04728e62c2337016ff3b8",
                    "decodedLog": {
                        "name": "Swap",
                        "params": [
                            {
                                "name": "sender",
                                "type": "address",
                                "value": "0x7a250d5630b4cf539739df2c5dacb4c659f2488d"
                            },
                            {
                                "name": "to",
                                "type": "address",
                                "value": "0xe232101ca1a10f0336fb1371d33ddd0fd3dd1363"
                            },
                            {
                                "name": "amount0In",
                                "type": "uint256",
                                "value": "70,000,000,000,000,000"
                            },
                            {
                                "name": "amount1In",
                                "type": "uint256",
                                "value": "0"
                            },
                            {
                                "name": "amount0Out",
                                "type": "uint256",
                                "value": "0"
                            },
                            {
                                "name": "amount1Out",
                                "type": "uint256",
                                "value": "55,926,856,556,271,534,009,874"
                            }
                        ],
                        "signature": "Swap(address,uint256,uint256,uint256,uint256,address)"
                    },
                    "id": 13,
                    "logData": "0x00000000000000000000000000000000000000000000000000f8b0a10e47000000000000000000000000000000000000000000000000000000000000000000000000000000000000000000000000000000000000000000000000000000000000000000000000000000000000000000000000000000000bd7cd0c4cbe5702ee12",
                    "logDecoded": true,
                    "operation": "EVENT",
                    "revert": false,
                    "status": true,
                    "topics": [
                        "0xd78ad95fa46c994b6551d0da85fc275fe613ce37657fb8d5e3d130840159d822",
                        "0x0000000000000000000000007a250d5630b4cf539739df2c5dacb4c659f2488d",
                        "0x000000000000000000000000e232101ca1a10f0336fb1371d33ddd0fd3dd1363"
                    ]
                },
                "nodeType": 1
            },
            "14": {
                "invocation": {
                    "address": "0xf2dcee9b0ced48b4efd0d9cf9bb29519bba89ec7",
                    "callData": "0x000000000000000000000000e232101ca1a10f0336fb1371d33ddd0fd3dd1363",
                    "decodedMethod": {
                        "callParams": [
                            {
                                "name": "account",
                                "type": "address",
                                "value": "0xe232101ca1a10f0336fb1371d33ddd0fd3dd1363"
                            }
                        ],
                        "constructorArguments": "",
                        "name": "balanceOf",
                        "returnParams": [
                            {
                                "decimalAvailable": true,
                                "name": "",
                                "type": "uint256",
                                "value": "281,761,049,188,126,528,378,281"
                            }
                        ],
                        "signature": "balanceOf(address)"
                    },
                    "errorInfo": "",
                    "fromAddress": "0x7a250d5630b4cf539739df2c5dacb4c659f2488d",
                    "gasUsed": 576,
                    "id": 14,
                    "methodDecoded": true,
                    "operation": "STATICCALL",
                    "output": "0x000000000000000000000000000000000000000000003baa4c0d9a951ec815a9",
                    "revert": false,
                    "revertMessage": "",
                    "selector": "0x70a08231",
                    "status": true,
                    "value": "0"
                },
                "nodeType": 0
            },
            "2": {
                "event": {
                    "contract": "0xc02aaa39b223fe8d0a0e5c4f27ead9083c756cc2",
                    "decodedLog": {
                        "name": "Transfer",
                        "params": [
                            {
                                "name": "src",
                                "type": "address",
                                "value": "0xe232101ca1a10f0336fb1371d33ddd0fd3dd1363"
                            },
                            {
                                "name": "dst",
                                "type": "address",
                                "value": "0x1a2db8088442093140f04728e62c2337016ff3b8"
                            },
                            {
                                "decimalAvailable": true,
                                "name": "wad",
                                "type": "uint256",
                                "value": "70,000,000,000,000,000"
                            }
                        ],
                        "signature": "Transfer(address,address,uint256)"
                    },
                    "id": 2,
                    "logData": "0x00000000000000000000000000000000000000000000000000f8b0a10e470000",
                    "logDecoded": true,
                    "operation": "EVENT",
                    "revert": false,
                    "status": true,
                    "topics": [
                        "0xddf252ad1be2c89b69c2b068fc378daa952ba7f163c4a11628f55a4df523b3ef",
                        "0x000000000000000000000000e232101ca1a10f0336fb1371d33ddd0fd3dd1363",
                        "0x0000000000000000000000001a2db8088442093140f04728e62c2337016ff3b8"
                    ]
                },
                "nodeType": 1
            },
            "3": {
                "invocation": {
                    "address": "0xf2dcee9b0ced48b4efd0d9cf9bb29519bba89ec7",
                    "callData": "0x000000000000000000000000e232101ca1a10f0336fb1371d33ddd0fd3dd1363",
                    "decodedMethod": {
                        "callParams": [
                            {
                                "name": "account",
                                "type": "address",
                                "value": "0xe232101ca1a10f0336fb1371d33ddd0fd3dd1363"
                            }
                        ],
                        "constructorArguments": "",
                        "name": "balanceOf",
                        "returnParams": [
                            {
                                "decimalAvailable": true,
                                "name": "",
                                "type": "uint256",
                                "value": "228,630,535,459,668,571,068,900"
                            }
                        ],
                        "signature": "balanceOf(address)"
                    },
                    "errorInfo": "",
                    "fromAddress": "0x7a250d5630b4cf539739df2c5dacb4c659f2488d",
                    "gasUsed": 2576,
                    "id": 3,
                    "methodDecoded": true,
                    "operation": "STATICCALL",
                    "output": "0x00000000000000000000000000000000000000000000306a160eb8137f5219e4",
                    "revert": false,
                    "revertMessage": "",
                    "selector": "0x70a08231",
                    "status": true,
                    "value": "0"
                },
                "nodeType": 0
            },
            "4": {
                "invocation": {
                    "address": "0x1a2db8088442093140f04728e62c2337016ff3b8",
                    "callData": "0x",
                    "decodedMethod": {
                        "callParams": [],
                        "constructorArguments": "",
                        "name": "getReserves",
                        "returnParams": [
                            {
                                "name": "_reserve0",
                                "type": "uint112",
                                "value": "6,200,000,000,000,000,000"
                            },
                            {
                                "name": "_reserve1",
                                "type": "uint112",
                                "value": "5,024,353,717,838,453,950,705,979"
                            },
                            {
                                "name": "_blockTimestampLast",
                                "type": "uint32",
                                "value": "1,678,830,491"
                            }
                        ],
                        "signature": "getReserves()"
                    },
                    "errorInfo": "",
                    "fromAddress": "0x7a250d5630b4cf539739df2c5dacb4c659f2488d",
                    "gasUsed": 2504,
                    "id": 4,
                    "methodDecoded": true,
                    "operation": "STATICCALL",
                    "output": "0x000000000000000000000000000000000000000000000000560ad326a76c00000000000000000000000000000000000000000000000427f2c2c47f301abcf13b000000000000000000000000000000000000000000000000000000006410eb9b",
                    "revert": false,
                    "revertMessage": "",
                    "selector": "0x0902f1ac",
                    "status": true,
                    "value": "0"
                },
                "nodeType": 0
            },
            "5": {
                "invocation": {
                    "address": "0xc02aaa39b223fe8d0a0e5c4f27ead9083c756cc2",
                    "callData": "0x0000000000000000000000001a2db8088442093140f04728e62c2337016ff3b8",
                    "decodedMethod": {
                        "callParams": [
                            {
                                "name": "",
                                "type": "address",
                                "value": "0x1a2db8088442093140f04728e62c2337016ff3b8"
                            }
                        ],
                        "constructorArguments": "",
                        "name": "balanceOf",
                        "returnParams": [
                            {
                                "decimalAvailable": true,
                                "name": "",
                                "type": "uint256",
                                "value": "6,270,000,000,000,000,000"
                            }
                        ],
                        "signature": "balanceOf(address)"
                    },
                    "errorInfo": "",
                    "fromAddress": "0x7a250d5630b4cf539739df2c5dacb4c659f2488d",
                    "gasUsed": 534,
                    "id": 5,
                    "methodDecoded": true,
                    "operation": "STATICCALL",
                    "output": "0x000000000000000000000000000000000000000000000000570383c7b5b30000",
                    "revert": false,
                    "revertMessage": "",
                    "selector": "0x70a08231",
                    "status": true,
                    "value": "0"
                },
                "nodeType": 0
            },
            "6": {
                "invocation": {
                    "address": "0x1a2db8088442093140f04728e62c2337016ff3b8",
                    "callData": "0x0000000000000000000000000000000000000000000000000000000000000000000000000000000000000000000000000000000000000bd7cd0c4cbe5702ee12000000000000000000000000e232101ca1a10f0336fb1371d33ddd0fd3dd136300000000000000000000000000000000000000000000000000000000000000800000000000000000000000000000000000000000000000000000000000000000",
                    "decodedMethod": {
                        "callParams": [
                            {
                                "name": "amount0Out",
                                "type": "uint256",
                                "value": "0"
                            },
                            {
                                "name": "amount1Out",
                                "type": "uint256",
                                "value": "55,926,856,556,271,534,009,874"
                            },
                            {
                                "name": "to",
                                "type": "address",
                                "value": "0xe232101ca1a10f0336fb1371d33ddd0fd3dd1363"
                            },
                            {
                                "name": "data",
                                "type": "bytes",
                                "value": "0x"
                            }
                        ],
                        "constructorArguments": "",
                        "name": "swap",
                        "returnParams": [],
                        "signature": "swap(uint256,uint256,address,bytes)"
                    },
                    "errorInfo": "",
                    "fromAddress": "0x7a250d5630b4cf539739df2c5dacb4c659f2488d",
                    "gasUsed": 60029,
                    "id": 6,
                    "methodDecoded": true,
                    "operation": "CALL",
                    "output": "",
                    "revert": false,
                    "revertMessage": "",
                    "selector": "0x022c0d9f",
                    "status": true,
                    "value": "0"
                },
                "nodeType": 0
            },
            "7": {
                "invocation": {
                    "address": "0xf2dcee9b0ced48b4efd0d9cf9bb29519bba89ec7",
                    "callData": "0x000000000000000000000000e232101ca1a10f0336fb1371d33ddd0fd3dd1363000000000000000000000000000000000000000000000bd7cd0c4cbe5702ee12",
                    "decodedMethod": {
                        "callParams": [
                            {
                                "name": "to",
                                "type": "address",
                                "value": "0xe232101ca1a10f0336fb1371d33ddd0fd3dd1363"
                            },
                            {
                                "decimalAvailable": true,
                                "name": "amount",
                                "type": "uint256",
                                "value": "55,926,856,556,271,534,009,874"
                            }
                        ],
                        "constructorArguments": "",
                        "name": "transfer",
                        "returnParams": [
                            {
                                "name": "",
                                "type": "bool",
                                "value": true
                            }
                        ],
                        "signature": "transfer(address,uint256)"
                    },
                    "errorInfo": "",
                    "fromAddress": "0x1a2db8088442093140f04728e62c2337016ff3b8",
                    "gasUsed": 27596,
                    "id": 7,
                    "methodDecoded": true,
                    "operation": "CALL",
                    "output": "0x0000000000000000000000000000000000000000000000000000000000000001",
                    "revert": false,
                    "revertMessage": "",
                    "selector": "0xa9059cbb",
                    "status": true,
                    "value": "0"
                },
                "nodeType": 0
            },
            "8": {
                "event": {
                    "contract": "0xf2dcee9b0ced48b4efd0d9cf9bb29519bba89ec7",
                    "decodedLog": {
                        "name": "Transfer",
                        "params": [
                            {
                                "name": "from",
                                "type": "address",
                                "value": "0x1a2db8088442093140f04728e62c2337016ff3b8"
                            },
                            {
                                "name": "to",
                                "type": "address",
                                "value": "0xf2dcee9b0ced48b4efd0d9cf9bb29519bba89ec7"
                            },
                            {
                                "decimalAvailable": true,
                                "name": "value",
                                "type": "uint256",
                                "value": "2,796,342,827,813,576,700,493"
                            }
                        ],
                        "signature": "Transfer(address,address,uint256)"
                    },
                    "id": 8,
                    "logData": "0x000000000000000000000000000000000000000000000097970d6a3cb78cf24d",
                    "logDecoded": true,
                    "operation": "EVENT",
                    "revert": false,
                    "status": true,
                    "topics": [
                        "0xddf252ad1be2c89b69c2b068fc378daa952ba7f163c4a11628f55a4df523b3ef",
                        "0x0000000000000000000000001a2db8088442093140f04728e62c2337016ff3b8",
                        "0x000000000000000000000000f2dcee9b0ced48b4efd0d9cf9bb29519bba89ec7"
                    ]
                },
                "nodeType": 1
            },
            "9": {
                "event": {
                    "contract": "0xf2dcee9b0ced48b4efd0d9cf9bb29519bba89ec7",
                    "decodedLog": {
                        "name": "Transfer",
                        "params": [
                            {
                                "name": "from",
                                "type": "address",
                                "value": "0x1a2db8088442093140f04728e62c2337016ff3b8"
                            },
                            {
                                "name": "to",
                                "type": "address",
                                "value": "0xe232101ca1a10f0336fb1371d33ddd0fd3dd1363"
                            },
                            {
                                "decimalAvailable": true,
                                "name": "value",
                                "type": "uint256",
                                "value": "53,130,513,728,457,957,309,381"
                            }
                        ],
                        "signature": "Transfer(address,address,uint256)"
                    },
                    "id": 9,
                    "logData": "0x000000000000000000000000000000000000000000000b4035fee2819f75fbc5",
                    "logDecoded": true,
                    "operation": "EVENT",
                    "revert": false,
                    "status": true,
                    "topics": [
                        "0xddf252ad1be2c89b69c2b068fc378daa952ba7f163c4a11628f55a4df523b3ef",
                        "0x0000000000000000000000001a2db8088442093140f04728e62c2337016ff3b8",
                        "0x000000000000000000000000e232101ca1a10f0336fb1371d33ddd0fd3dd1363"
                    ]
                },
                "nodeType": 1
            }
        },
        "gasFlame": [
            {
                "children": [
                    {
                        "children": [
                            {
                                "children": [],
                                "depth": 0,
                                "name": "Initial Gas",
                                "value": 23060
                            },
                            {
                                "children": [
                                    {
                                        "children": [],
                                        "depth": 1,
                                        "name": "transferFrom",
                                        "value": 15025
                                    },
                                    {
                                        "children": [],
                                        "depth": 1,
                                        "name": "balanceOf",
                                        "value": 2576
                                    },
                                    {
                                        "children": [],
                                        "depth": 1,
                                        "name": "getReserves",
                                        "value": 2504
                                    },
                                    {
                                        "children": [],
                                        "depth": 1,
                                        "name": "balanceOf",
                                        "value": 534
                                    },
                                    {
                                        "children": [
                                            {
                                                "children": [],
                                                "depth": 2,
                                                "name": "transfer",
                                                "value": 27596
                                            },
                                            {
                                                "children": [],
                                                "depth": 2,
                                                "name": "balanceOf",
                                                "value": 534
                                            },
                                            {
                                                "children": [],
                                                "depth": 2,
                                                "name": "balanceOf",
                                                "value": 576
                                            }
                                        ],
                                        "depth": 1,
                                        "name": "swap",
                                        "value": 60029
                                    },
                                    {
                                        "children": [],
                                        "depth": 1,
                                        "name": "balanceOf",
                                        "value": 576
                                    }
                                ],
                                "depth": 0,
                                "name": "Executed Gas",
                                "value": 95886
                            }
                        ],
                        "depth": -1,
                        "name": "Actual Gas Used",
                        "value": 116146
                    },
                    {
                        "children": [],
                        "depth": -1,
                        "name": "Refunded Gas",
                        "value": 2800
                    }
                ],
                "depth": -2,
                "name": "Total Gas",
                "value": 118946
            }
        ],
        "isConfirmed": true,
        "mainTrace": [
            {
                "children": [
                    {
                        "children": [
                            {
                                "children": [
                                    {
                                        "children": [],
                                        "depth": 2,
                                        "id": 2,
                                        "order": 2
                                    }
                                ],
                                "depth": 1,
                                "id": 1,
                                "order": 1
                            },
                            {
                                "children": [],
                                "depth": 1,
                                "id": 3,
                                "order": 3
                            },
                            {
                                "children": [],
                                "depth": 1,
                                "id": 4,
                                "order": 4
                            },
                            {
                                "children": [],
                                "depth": 1,
                                "id": 5,
                                "order": 5
                            },
                            {
                                "children": [
                                    {
                                        "children": [
                                            {
                                                "children": [],
                                                "depth": 3,
                                                "id": 8,
                                                "order": 8
                                            },
                                            {
                                                "children": [],
                                                "depth": 3,
                                                "id": 9,
                                                "order": 9
                                            }
                                        ],
                                        "depth": 2,
                                        "id": 7,
                                        "order": 7
                                    },
                                    {
                                        "children": [],
                                        "depth": 2,
                                        "id": 10,
                                        "order": 10
                                    },
                                    {
                                        "children": [],
                                        "depth": 2,
                                        "id": 11,
                                        "order": 11
                                    },
                                    {
                                        "children": [],
                                        "depth": 2,
                                        "id": 12,
                                        "order": 12
                                    },
                                    {
                                        "children": [],
                                        "depth": 2,
                                        "id": 13,
                                        "order": 13
                                    }
                                ],
                                "depth": 1,
                                "id": 6,
                                "order": 6
                            },
                            {
                                "children": [],
                                "depth": 1,
                                "id": 14,
                                "order": 14
                            }
                        ],
                        "depth": 0,
                        "id": 0,
                        "order": 0
                    }
                ],
                "depth": -1,
                "id": -1,
                "order": -1
            }
        ],
        "mainTraceNodeCount": 15,
        "parentIdMap": {
            "0": -1,
            "1": 0,
            "10": 6,
            "11": 6,
            "12": 6,
            "13": 6,
            "14": 0,
            "2": 1,
            "3": 0,
            "4": 0,
            "5": 0,
            "6": 0,
            "7": 6,
            "8": 7,
            "9": 7
        },
        "tidyTrace": [
            {
                "children": [
                    {
                        "children": [
                            {
                                "children": [
                                    {
                                        "children": [],
                                        "depth": 2,
                                        "id": 2,
                                        "order": 2
                                    }
                                ],
                                "depth": 1,
                                "id": 1,
                                "order": 1
                            },
                            {
                                "children": [
                                    {
                                        "children": [
                                            {
                                                "children": [],
                                                "depth": 3,
                                                "id": 8,
                                                "order": 8
                                            },
                                            {
                                                "children": [],
                                                "depth": 3,
                                                "id": 9,
                                                "order": 9
                                            }
                                        ],
                                        "depth": 2,
                                        "id": 7,
                                        "order": 7
                                    },
                                    {
                                        "children": [],
                                        "depth": 2,
                                        "id": 12,
                                        "order": 12
                                    },
                                    {
                                        "children": [],
                                        "depth": 2,
                                        "id": 13,
                                        "order": 13
                                    }
                                ],
                                "depth": 1,
                                "id": 6,
                                "order": 6
                            }
                        ],
                        "depth": 0,
                        "id": 0,
                        "order": 0
                    }
                ],
                "depth": -1,
                "id": -1,
                "order": -1
            }
        ],
        "tidyTraceNodeCount": 9
    },
    "state_change": {
        "stateChanges": [
            {
                "address": "0x1a2db8088442093140f04728e62c2337016ff3b8",
                "erc": "ERC-20",
                "slots": [
                    {
                        "current": "0x000000000000000000000000000000000000000dc209d41f5c9756518369cdac",
                        "key": "0x000000000000000000000000000000000000000000000000000000000000000a",
                        "prev": "0x000000000000000000000000000000000000000cc99a7dc5f9fb84588ff404b4"
                    },
                    {
                        "current": "0x6410eba7000000041c1af5b83271c3ba0329000000000000570383c7b5b30000",
                        "key": "0x0000000000000000000000000000000000000000000000000000000000000008",
                        "prev": "0x6410eb9b0000000427f2c2c47f301abcf13b000000000000560ad326a76c0000"
                    },
                    {
                        "current": "0x00000000000000000000000000000dc56e9dfb0e12d0785902808143cd17f6c0",
                        "key": "0x0000000000000000000000000000000000000000000000000000000000000009",
                        "prev": "0x00000000000000000000000000000d310c1265d4473606a4593c28f29faf2378"
                    }
                ],
                "storageVariables": [
                    {
                        "name": "price1CumulativeLast",
                        "type": "uint256",
                        "value": {
                            "current": "1090018086643369194642102406572",
                            "prev": "1013131205669315140706052080820",
                            "typeTag": 1
                        }
                    },
                    {
                        "name": "reserve0",
                        "type": "uint112",
                        "value": {
                            "current": "6270000000000000000",
                            "prev": "6200000000000000000",
                            "typeTag": 1
                        }
                    },
                    {
                        "name": "reserve1",
                        "type": "uint112",
                        "value": {
                            "current": "4968426861282182416696105",
                            "prev": "5024353717838453950705979",
                            "typeTag": 1
                        }
                    },
                    {
                        "name": "blockTimestampLast",
                        "type": "uint32",
                        "value": {
                            "current": "1678830503",
                            "prev": "1678830491",
                            "typeTag": 1
                        }
                    },
                    {
                        "name": "price0CumulativeLast",
                        "type": "uint256",
                        "value": {
                            "current": "1199642378758451041969194748905743418128064",
                            "prev": "1149149599354643842904088430593793873355640",
                            "typeTag": 1
                        }
                    }
                ]
            },
            {
                "address": "0xc02aaa39b223fe8d0a0e5c4f27ead9083c756cc2",
                "erc": "ERC-20",
                "slots": [
                    {
                        "current": "0x0000000000000000000000000000000000000000000000000e2ab22e1649a895",
                        "key": "0xec0768917ea64cf268673926013aa13982cf7c86f5e4ea22550d9990b317b240",
                        "prev": "0x0000000000000000000000000000000000000000000000000f2362cf2490a895"
                    },
                    {
                        "current": "0x000000000000000000000000000000000000000000000000570383c7b5b30000",
                        "key": "0xf0fd19ed161e599b3877968a482ff1c389ab8101a85fb8829a7eaa9a2d8de8c1",
                        "prev": "0x000000000000000000000000000000000000000000000000560ad326a76c0000"
                    }
                ],
                "storageVariables": [
                    {
                        "name": "balanceOf",
                        "type": "mapping(address => uint256)",
                        "value": {
                            "pairs": [
                                {
                                    "key": "0x1a2db8088442093140f04728e62c2337016ff3b8",
                                    "value": {
                                        "current": "6270000000000000000",
                                        "prev": "6200000000000000000",
                                        "typeTag": 1
                                    }
                                },
                                {
                                    "key": "0xe232101ca1a10f0336fb1371d33ddd0fd3dd1363",
                                    "value": {
                                        "current": "1020824176565004437",
                                        "prev": "1090824176565004437",
                                        "typeTag": 1
                                    }
                                }
                            ],
                            "typeTag": 4
                        }
                    }
                ]
            },
            {
                "address": "0xf2dcee9b0ced48b4efd0d9cf9bb29519bba89ec7",
                "erc": "ERC-20",
                "slots": [
                    {
                        "current": "0x000000000000000000000000000000000000000000001dbec2415171deabb303",
                        "key": "0x69404d2273ca829956da6c17f6ce0d5e130ed1b28c7a4efbb78033f56c606d71",
                        "prev": "0x000000000000000000000000000000000000000000001d272b33e735271ec0b6"
                    },
                    {
                        "current": "0x000000000000000000000000000000000000000000003baa4c0d9a951ec815a9",
                        "key": "0x73aa7435b007edfc2325fe629c34e12d6306b668da59c23e1e72e85db5c35a38",
                        "prev": "0x00000000000000000000000000000000000000000000306a160eb8137f5219e4"
                    },
                    {
                        "current": "0x000000000000000000000000000000000000000000041c1af5b83271c3ba0329",
                        "key": "0x07c20948f1f6c01147141c5c4b76a2b4e5bceda4e1951b77fa7d133010ee8ce0",
                        "prev": "0x0000000000000000000000000000000000000000000427f2c2c47f301abcf13b"
                    }
                ],
                "storageVariables": [
                    {
                        "name": "_balances",
                        "type": "mapping(address => uint256)",
                        "value": {
                            "pairs": [
                                {
                                    "key": "0x1a2db8088442093140f04728e62c2337016ff3b8",
                                    "value": {
                                        "current": "4968426861282182416696105",
                                        "prev": "5024353717838453950705979",
                                        "typeTag": 1
                                    }
                                },
                                {
                                    "key": "0xe232101ca1a10f0336fb1371d33ddd0fd3dd1363",
                                    "value": {
                                        "current": "281761049188126528378281",
                                        "prev": "228630535459668571068900",
                                        "typeTag": 1
                                    }
                                },
                                {
                                    "key": "0xf2dcee9b0ced48b4efd0d9cf9bb29519bba89ec7",
                                    "value": {
                                        "current": "140467506935890879165187",
                                        "prev": "137671164108077302464694",
                                        "typeTag": 1
                                    }
                                }
                            ],
                            "typeTag": 4
                        }
                    }
                ]
            }
        ]
    }
}