{
    "balance_change": {
        "balanceChanges": [
            {
                "account": "0x0000000000000000000000000000000000000000",
                "assets": [
                    {
                        "address": "0xf4d2888d29d722226fafa5d9b24f9164c092421e",
                        "amount": "12,300",
                        "iconUrl": "",
                        "isERC1155": false,
                        "isERC721": false,
                        "sign": false,
                        "value": "1606.334609"
                    }
                ]
            },
            {
                "account": "0x271d7fe32f94ecc5bc1486037268a8a519ec1fa7",
                "assets": [
                    {
                        "address": "0xc02aaa39b223fe8d0a0e5c4f27ead9083c756cc2",
                        "amount": "0.041736003055492861",
                        "iconUrl": "https://assets.blocksec.com/icon/f1cb2d02c471d545bbc7722daf3277fd852d98e63d118771af7047bd8256c516.png",
                        "isERC1155": false,
                        "isERC721": false,
                        "sign": true,
                        "value": "50.39330217473580266"
                    },
                    {
                        "address": "0xf4d2888d29d722226fafa5d9b24f9164c092421e",
                        "amount": "7,183.022721962921189943",
                        "iconUrl": "",
                        "isERC1155": false,
                        "isERC721": false,
                        "sign": true,
                        "value": "938.6897494"
                    },
                    {
                        "address": "0xeeeeeeeeeeeeeeeeeeeeeeeeeeeeeeeeeeeeeeee",
                        "amount": "0.010411593126158997",
                        "iconUrl": "https://assets.blocksec.com/image/1663669189317-3.png",
                        "isERC1155": false,
                        "isERC721": false,
                        "sign": false,
                        "value": "12.571269892955900663"
                    }
                ]
            },
            {
                "account": "0x465a790b428268196865a3ae2648481ad7e0d3b1",
                "assets": [
                    {
                        "address": "0xf4d2888d29d722226fafa5d9b24f9164c092421e",
                        "amount": "4,277.147721962921189944",
                        "iconUrl": "",
                        "isERC1155": false,
                        "isERC721": false,
                        "sign": false,
                        "value": "559.1526771"
                    }
                ]
            },
            {
                "account": "0x482579f93dc13e6b434e38b5a0447ca543d88a46",
                "assets": [
                    {
                        "address": "0xeeeeeeeeeeeeeeeeeeeeeeeeeeeeeeeeeeeeeeee",
                        "amount": "0.010411593126158997",
                        "iconUrl": "https://assets.blocksec.com/image/1663669189317-3.png",
                        "isERC1155": false,
                        "isERC721": false,
                        "sign": true,
                        "value": "12.571269892955900663"
                    }
                ]
            },
            {
                "account": "0xbcd7254a1d759efa08ec7c3291b2e85c5dcc12ce",
                "assets": [
                    {
                        "address": "0xc02aaa39b223fe8d0a0e5c4f27ead9083c756cc2",
                        "amount": "0.041736003055492861",
                        "iconUrl": "https://assets.blocksec.com/icon/f1cb2d02c471d545bbc7722daf3277fd852d98e63d118771af7047bd8256c516.png",
                        "isERC1155": false,
                        "isERC721": false,
                        "sign": false,
                        "value": "50.39330217473580266"
                    }
                ]
            },
            {
                "account": "0xfec3069df398faaf689c559151e41fa8036c8203",
                "assets": [
                    {
                        "address": "0xf4d2888d29d722226fafa5d9b24f9164c092421e",
                        "amount": "9,394.125",
                        "iconUrl": "",
                        "isERC1155": false,
                        "isERC721": false,
                        "sign": true,
                        "value": "1227.293567"
                    }
                ]
            }
        ]
    },
    "profile": {
        "basic_info": {
            "baseFee": "32.698109649",
            "blockNumber": 15990536,
            "callData": "0xe0724b6e000000000000000000000000271d7fe32f94ecc5bc1486037268a8a519ec1fa7000000000000000000000000000000000000000000000000000000000000010000000000000000000000000000f3ff0300000000000000000000000063764e3700000000000000000000000000000000000000000000000000000000000002800000000000000000000000000000000000000000000000000000000937bf7580000000000000000000000000000000000000000000000000000000000004e6af0000000000000000000000000000000000000000000000000000000000000000000000000000000000000000482579f93dc13e6b434e38b5a0447ca543d88a460000000000000000000000000000000000000000000000000000000000000144f143ddba000000000000000000000000271d7fe32f94ecc5bc1486037268a8a519ec1fa7000000000000000000000000000000000000000000000000000000000000004000000000000000000000000000000000000000000000000000000000000000010000000000000000000000000000000000000000000000000000000000000020000000000000000000000000bcd7254a1d759efa08ec7c3291b2e85c5dcc12ce0000000000000000000000000000000000000000000000000000000000000000000000000000000000000000000000000000000000000000000000000000006000000000000000000000000000000000000000000000000000000000000000241c1c6fe50000000000000000000000000000000000000000000000000000000000000001000000000000000000000000000000000000000000000000000000000000000000000000000000000000000000000000000000000000000000000000000000000000000000000000000000000000000000000000000000828274555ab482b0791b23a92448fa93b888567191b42effbae42d5c46356e610b41ba287ba17924ac90f34ebf109324eb3b72d16b27ae07d59a14274aadc76d111b3f85dca8b4b3a578018a7bb3abc11b8278cc7704895ced9ec5fbb836355dcb2c3ff0eb263bf020d2345e5bb09843b29afc998b8f4fdfde01428f7c38a70848061b000000000000000000000000000000000000000000000000000000000000",
            "debugEnable": true,
            "errorInfo": "",
            "eventCount": 12,
            "feeRecipient": "0x473780deaf4a2ac070bbba936b0cdefe7f267dfc",
            "formatValue": "0",
            "gasLimit": 391199,
            "gasPrice": "33.322109649",
            "gasUsed": 276409,
            "intTxnCount": 21,
            "internalRevert": false,
            "internalRevertMessage": "",
            "isContractCreation": false,
            "isFlashloan": false,
            "maxFee": "34.775",
            "nonce": 307861,
            "overwritedBlockNumber": -1,
            "priorityFee": "0.624",
            "receiver": "0x9d58779365b067d5d3fcc6e92d237acd06f1e6a1",
            "revertMessage": "",
            "sender": "0xf27696c8bca7d54d696189085ae1283f59342fa6",
            "simulationEnable": true,
            "sourceTxnHash": "0x216c2557b91a97f4c964f9b23f28f047b7d7a1778fba4670ff79f51b5e89d075",
            "status": true,
            "timestamp": "2022-11-17T15:08:23Z",
            "transactionFee": "0.009210531005970441",
            "txnHash": "0x216c2557b91a97f4c964f9b23f28f047b7d7a1778fba4670ff79f51b5e89d075",
            "txnIndex": 124,
            "type": 2,
            "value": "0"
        },
        "fund_flow": [
            {
                "amount": "2,905.875",
                "from": "0x0000000000000000000000000000000000000000",
                "id": 1,
                "isERC1155": false,
                "isERC721": false,
                "isReverted": false,
                "order": 1,
                "to": "0x465a790b428268196865a3ae2648481ad7e0d3b1",
                "token": "0xf4d2888d29d722226fafa5d9b24f9164c092421e"
            },
            {
                "amount": "9,394.125",
                "from": "0x0000000000000000000000000000000000000000",
                "id": 2,
                "isERC1155": false,
                "isERC721": false,
                "isReverted": false,
                "order": 2,
                "to": "0xfec3069df398faaf689c559151e41fa8036c8203",
                "token": "0xf4d2888d29d722226fafa5d9b24f9164c092421e"
            },
            {
                "amount": "7,183.022721962921189943",
                "from": "0x465a790b428268196865a3ae2648481ad7e0d3b1",
                "id": 3,
                "isERC1155": false,
                "isERC721": false,
                "isReverted": false,
                "order": 3,
                "to": "0xbcd7254a1d759efa08ec7c3291b2e85c5dcc12ce",
                "token": "0xf4d2888d29d722226fafa5d9b24f9164c092421e"
            },
            {
                "amount": "0.041736003055492861",
                "from": "0xbcd7254a1d759efa08ec7c3291b2e85c5dcc12ce",
                "id": 4,
                "isERC1155": false,
                "isERC721": false,
                "isReverted": false,
                "order": 4,
                "to": "0x271d7fe32f94ecc5bc1486037268a8a519ec1fa7",
                "token": "0xc02aaa39b223fe8d0a0e5c4f27ead9083c756cc2"
            },
            {
                "amount": "7,183.022721962921189943",
                "from": "0xbcd7254a1d759efa08ec7c3291b2e85c5dcc12ce",
                "id": 5,
                "isERC1155": false,
                "isERC721": false,
                "isReverted": false,
                "order": 5,
                "to": "0x271d7fe32f94ecc5bc1486037268a8a519ec1fa7",
                "token": "0xf4d2888d29d722226fafa5d9b24f9164c092421e"
            },
            {
                "amount": "0.010411593126158997",
                "from": "0x271d7fe32f94ecc5bc1486037268a8a519ec1fa7",
                "id": 6,
                "isERC1155": false,
                "isERC721": false,
                "isReverted": false,
                "order": 6,
                "to": "0x482579f93dc13e6b434e38b5a0447ca543d88a46",
                "token": "0xeeeeeeeeeeeeeeeeeeeeeeeeeeeeeeeeeeeeeeee"
            }
        ],
        "token_infos": [
            {
                "address": "0xc02aaa39b223fe8d0a0e5c4f27ead9083c756cc2",
                "decimals": 18
            },
            {
                "address": "0xf4d2888d29d722226fafa5d9b24f9164c092421e",
                "decimals": 18
            },
            {
                "address": "0xeeeeeeeeeeeeeeeeeeeeeeeeeeeeeeeeeeeeeeee",
                "decimals": 18
            }
        ]
    },
    "address_label": {
        "labels": [
            {
                "address": "0x465a790b428268196865a3ae2648481ad7e0d3b1",
                "label": "LooksRare: Token Distributor"
            },
            {
                "address": "0xab00ea153c43575184ff11dd5e713c96be005573",
                "label": "Argent: Base Wallet"
            },
            {
                "address": "0xc02aaa39b223fe8d0a0e5c4f27ead9083c756cc2",
                "label": "Wrapped Ether (WETH)"
            },
            {
                "address": "0x9d58779365b067d5d3fcc6e92d237acd06f1e6a1",
                "label": "Argent: Argent Module"
            },
            {
                "address": "0xbcd7254a1d759efa08ec7c3291b2e85c5dcc12ce",
                "label": "LooksRare: Fee Sharing"
            },
            {
                "address": "0x0000000000000000000000000000000000000001",
                "label": "Precompiled"
            },
            {
                "address": "0x0000000000000000000000000000000000000002",
                "label": "Precompiled"
            },
            {
                "address": "0xf27696c8bca7d54d696189085ae1283f59342fa6",
                "label": "Argent: Relayer 3"
            },
            {
                "address": "0x0000000000000000000000000000000000000004",
                "label": "Precompiled"
            },
            {
                "address": "0xeeeeeeeeeeeeeeeeeeeeeeeeeeeeeeeeeeeeeeee",
                "label": "Ether"
            },
            {
                "address": "0xfec3069df398faaf689c559151e41fa8036c8203",
                "label": "LooksRare: Token Splitter"
            },
            {
                "address": "0x0000000000000000000000000000000000000000",
                "label": "Null Address"
            },
            {
                "address": "0xf4d2888d29d722226fafa5d9b24f9164c092421e",
                "label": "LooksRare: LOOKS Token"
            },
            {
                "address": "0x271d7fe32f94ecc5bc1486037268a8a519ec1fa7",
                "label": "Proxy"
            },
            {
                "address": "0x0000000000000000000000000000000000000003",
                "label": "Precompiled"
            }
        ]
    },
    "trace": {
        "accountLabels": null,
        "dataMap": {
            "-1": {
                "invocation": {
                    "address": "0xf27696c8bca7d54d696189085ae1283f59342fa6",
                    "callData": "",
                    "decodedMethod": null,
                    "errorInfo": "",
                    "fromAddress": "",
                    "gasUsed": 0,
                    "id": -1,
                    "methodDecoded": false,
                    "operation": "",
                    "output": "",
                    "revert": false,
                    "revertMessage": "",
                    "selector": "",
                    "status": false,
                    "value": ""
                },
                "nodeType": 0
            },
            "0": {
                "invocation": {
                    "address": "0x9d58779365b067d5d3fcc6e92d237acd06f1e6a1",
                    "callData": "0x000000000000000000000000271d7fe32f94ecc5bc1486037268a8a519ec1fa7000000000000000000000000000000000000000000000000000000000000010000000000000000000000000000f3ff0300000000000000000000000063764e3700000000000000000000000000000000000000000000000000000000000002800000000000000000000000000000000000000000000000000000000937bf7580000000000000000000000000000000000000000000000000000000000004e6af0000000000000000000000000000000000000000000000000000000000000000000000000000000000000000482579f93dc13e6b434e38b5a0447ca543d88a460000000000000000000000000000000000000000000000000000000000000144f143ddba000000000000000000000000271d7fe32f94ecc5bc1486037268a8a519ec1fa7000000000000000000000000000000000000000000000000000000000000004000000000000000000000000000000000000000000000000000000000000000010000000000000000000000000000000000000000000000000000000000000020000000000000000000000000bcd7254a1d759efa08ec7c3291b2e85c5dcc12ce0000000000000000000000000000000000000000000000000000000000000000000000000000000000000000000000000000000000000000000000000000006000000000000000000000000000000000000000000000000000000000000000241c1c6fe50000000000000000000000000000000000000000000000000000000000000001000000000000000000000000000000000000000000000000000000000000000000000000000000000000000000000000000000000000000000000000000000000000000000000000000000000000000000000000000000828274555ab482b0791b23a92448fa93b888567191b42effbae42d5c46356e610b41ba287ba17924ac90f34ebf109324eb3b72d16b27ae07d59a14274aadc76d111b3f85dca8b4b3a578018a7bb3abc11b8278cc7704895ced9ec5fbb836355dcb2c3ff0eb263bf020d2345e5bb09843b29afc998b8f4fdfde01428f7c38a70848061b000000000000000000000000000000000000000000000000000000000000",
                    "decodedMethod": {
                        "callParams": [
                            {
                                "name": "_wallet",
                                "type": "address",
                                "value": "0x271d7fe32f94ecc5bc1486037268a8a519ec1fa7"
                            },
                            {
                                "name": "_data",
                                "type": "bytes",
                                "value": "0xf143ddba000000000000000000000000271d7fe32f94ecc5bc1486037268a8a519ec1fa7000000000000000000000000000000000000000000000000000000000000004000000000000000000000000000000000000000000000000000000000000000010000000000000000000000000000000000000000000000000000000000000020000000000000000000000000bcd7254a1d759efa08ec7c3291b2e85c5dcc12ce0000000000000000000000000000000000000000000000000000000000000000000000000000000000000000000000000000000000000000000000000000006000000000000000000000000000000000000000000000000000000000000000241c1c6fe5000000000000000000000000000000000000000000000000000000000000000100000000000000000000000000000000000000000000000000000000"
                            },
                            {
                                "name": "_nonce",
                                "type": "uint256",
                                "value": "5,441,295,737,002,641,049,103,459,024,750,519,971,770,420,791"
                            },
                            {
                                "name": "_signatures",
                                "type": "bytes",
                                "value": "0x8274555ab482b0791b23a92448fa93b888567191b42effbae42d5c46356e610b41ba287ba17924ac90f34ebf109324eb3b72d16b27ae07d59a14274aadc76d111b3f85dca8b4b3a578018a7bb3abc11b8278cc7704895ced9ec5fbb836355dcb2c3ff0eb263bf020d2345e5bb09843b29afc998b8f4fdfde01428f7c38a70848061b"
                            },
                            {
                                "name": "_gasPrice",
                                "type": "uint256",
                                "value": "39,590,000,000"
                            },
                            {
                                "name": "_gasLimit",
                                "type": "uint256",
                                "value": "321,199"
                            },
                            {
                                "name": "_refundToken",
                                "type": "address",
                                "value": "0x0000000000000000000000000000000000000000"
                            },
                            {
                                "name": "_refundAddress",
                                "type": "address",
                                "value": "0x482579f93dc13e6b434e38b5a0447ca543d88a46"
                            }
                        ],
                        "constructorArguments": "",
                        "name": "execute",
                        "returnParams": [
                            {
                                "name": "",
                                "type": "bool",
                                "value": true
                            }
                        ],
                        "signature": "execute(address,bytes,uint256,bytes,uint256,uint256,address,address)"
                    },
                    "errorInfo": "",
                    "fromAddress": "0xf27696c8bca7d54d696189085ae1283f59342fa6",
                    "gasUsed": 276409,
                    "id": 0,
                    "methodDecoded": true,
                    "operation": "CALL",
                    "output": "0x0000000000000000000000000000000000000000000000000000000000000001",
                    "revert": false,
                    "revertMessage": "",
                    "selector": "0xe0724b6e",
                    "status": true,
                    "value": "0"
                },
                "nodeType": 0
            },
            "1": {
                "invocation": {
                    "address": "0x44da3a8051ba88eab0440db3779cab9d679ae76f",
                    "callData": "0x000000000000000000000000271d7fe32f94ecc5bc1486037268a8a519ec1fa7",
                    "decodedMethod": {
                        "callParams": [
                            {
                                "name": "_wallet",
                                "type": "address",
                                "value": "0x271d7fe32f94ecc5bc1486037268a8a519ec1fa7"
                            }
                        ],
                        "constructorArguments": "",
                        "name": "guardianCount",
                        "returnParams": [
                            {
                                "name": "_count",
                                "type": "uint256",
                                "value": "1"
                            }
                        ],
                        "signature": "guardianCount(address)"
                    },
                    "errorInfo": "",
                    "fromAddress": "0x9d58779365b067d5d3fcc6e92d237acd06f1e6a1",
                    "gasUsed": 2553,
                    "id": 1,
                    "methodDecoded": true,
                    "operation": "STATICCALL",
                    "output": "0x0000000000000000000000000000000000000000000000000000000000000001",
                    "revert": false,
                    "revertMessage": "",
                    "selector": "0x5040fb76",
                    "status": true,
                    "value": "0"
                },
                "nodeType": 0
            },
            "10": {
                "invocation": {
                    "address": "0xbcd7254a1d759efa08ec7c3291b2e85c5dcc12ce",
                    "callData": "0x0000000000000000000000000000000000000000000000000000000000000001",
                    "decodedMethod": {
                        "callParams": [
                            {
                                "name": "claimRewardToken",
                                "type": "bool",
                                "value": true
                            }
                        ],
                        "constructorArguments": "",
                        "name": "withdrawAll",
                        "returnParams": [],
                        "signature": "withdrawAll(bool)"
                    },
                    "errorInfo": "",
                    "fromAddress": "0x271d7fe32f94ecc5bc1486037268a8a519ec1fa7",
                    "gasUsed": 189519,
                    "id": 10,
                    "methodDecoded": true,
                    "operation": "CALL",
                    "output": "",
                    "revert": false,
                    "revertMessage": "",
                    "selector": "0x1c1c6fe5",
                    "status": true,
                    "value": "0"
                },
                "nodeType": 0
            },
            "11": {
                "invocation": {
                    "address": "0x465a790b428268196865a3ae2648481ad7e0d3b1",
                    "callData": "0x",
                    "decodedMethod": {
                        "callParams": [],
                        "constructorArguments": "",
                        "name": "harvestAndCompound",
                        "returnParams": [],
                        "signature": "harvestAndCompound()"
                    },
                    "errorInfo": "",
                    "fromAddress": "0xbcd7254a1d759efa08ec7c3291b2e85c5dcc12ce",
                    "gasUsed": 67560,
                    "id": 11,
                    "methodDecoded": true,
                    "operation": "CALL",
                    "output": "",
                    "revert": false,
                    "revertMessage": "",
                    "selector": "0x2a4e051b",
                    "status": true,
                    "value": "0"
                },
                "nodeType": 0
            },
            "12": {
                "invocation": {
                    "address": "0xf4d2888d29d722226fafa5d9b24f9164c092421e",
                    "callData": "0x000000000000000000000000465a790b428268196865a3ae2648481ad7e0d3b100000000000000000000000000000000000000000000009d871ddc83b03b8000",
                    "decodedMethod": {
                        "callParams": [
                            {
                                "name": "account",
                                "type": "address",
                                "value": "0x465a790b428268196865a3ae2648481ad7e0d3b1"
                            },
                            {
                                "name": "amount",
                                "type": "uint256",
                                "value": "2,905,875,000,000,000,000,000"
                            }
                        ],
                        "constructorArguments": "",
                        "name": "mint",
                        "returnParams": [
                            {
                                "name": "status",
                                "type": "bool",
                                "value": true
                            }
                        ],
                        "signature": "mint(address,uint256)"
                    },
                    "errorInfo": "",
                    "fromAddress": "0x465a790b428268196865a3ae2648481ad7e0d3b1",
                    "gasUsed": 14981,
                    "id": 12,
                    "methodDecoded": true,
                    "operation": "CALL",
                    "output": "0x0000000000000000000000000000000000000000000000000000000000000001",
                    "revert": false,
                    "revertMessage": "",
                    "selector": "0x40c10f19",
                    "status": true,
                    "value": "0"
                },
                "nodeType": 0
            },
            "13": {
                "event": {
                    "contract": "0xf4d2888d29d722226fafa5d9b24f9164c092421e",
                    "decodedLog": {
                        "name": "Transfer",
                        "params": [
                            {
                                "name": "from",
                                "type": "address",
                                "value": "0x0000000000000000000000000000000000000000"
                            },
                            {
                                "name": "to",
                                "type": "address",
                                "value": "0x465a790b428268196865a3ae2648481ad7e0d3b1"
                            },
                            {
                                "decimalAvailable": true,
                                "name": "value",
                                "type": "uint256",
                                "value": "2,905,875,000,000,000,000,000"
                            }
                        ],
                        "signature": "Transfer(address,address,uint256)"
                    },
                    "id": 13,
                    "logData": "0x00000000000000000000000000000000000000000000009d871ddc83b03b8000",
                    "logDecoded": true,
                    "operation": "EVENT",
                    "revert": false,
                    "status": true,
                    "topics": [
                        "0xddf252ad1be2c89b69c2b068fc378daa952ba7f163c4a11628f55a4df523b3ef",
                        "0x0000000000000000000000000000000000000000000000000000000000000000",
                        "0x000000000000000000000000465a790b428268196865a3ae2648481ad7e0d3b1"
                    ]
                },
                "nodeType": 1
            },
            "14": {
                "invocation": {
                    "address": "0xf4d2888d29d722226fafa5d9b24f9164c092421e",
                    "callData": "0x000000000000000000000000fec3069df398faaf689c559151e41fa8036c82030000000000000000000000000000000000000000000001fd41ac634ae8748000",
                    "decodedMethod": {
                        "callParams": [
                            {
                                "name": "account",
                                "type": "address",
                                "value": "0xfec3069df398faaf689c559151e41fa8036c8203"
                            },
                            {
                                "name": "amount",
                                "type": "uint256",
                                "value": "9,394,125,000,000,000,000,000"
                            }
                        ],
                        "constructorArguments": "",
                        "name": "mint",
                        "returnParams": [
                            {
                                "name": "status",
                                "type": "bool",
                                "value": true
                            }
                        ],
                        "signature": "mint(address,uint256)"
                    },
                    "errorInfo": "",
                    "fromAddress": "0x465a790b428268196865a3ae2648481ad7e0d3b1",
                    "gasUsed": 8181,
                    "id": 14,
                    "methodDecoded": true,
                    "operation": "CALL",
                    "output": "0x0000000000000000000000000000000000000000000000000000000000000001",
                    "revert": false,
                    "revertMessage": "",
                    "selector": "0x40c10f19",
                    "status": true,
                    "value": "0"
                },
                "nodeType": 0
            },
            "15": {
                "event": {
                    "contract": "0xf4d2888d29d722226fafa5d9b24f9164c092421e",
                    "decodedLog": {
                        "name": "Transfer",
                        "params": [
                            {
                                "name": "from",
                                "type": "address",
                                "value": "0x0000000000000000000000000000000000000000"
                            },
                            {
                                "name": "to",
                                "type": "address",
                                "value": "0xfec3069df398faaf689c559151e41fa8036c8203"
                            },
                            {
                                "decimalAvailable": true,
                                "name": "value",
                                "type": "uint256",
                                "value": "9,394,125,000,000,000,000,000"
                            }
                        ],
                        "signature": "Transfer(address,address,uint256)"
                    },
                    "id": 15,
                    "logData": "0x0000000000000000000000000000000000000000000001fd41ac634ae8748000",
                    "logDecoded": true,
                    "operation": "EVENT",
                    "revert": false,
                    "status": true,
                    "topics": [
                        "0xddf252ad1be2c89b69c2b068fc378daa952ba7f163c4a11628f55a4df523b3ef",
                        "0x0000000000000000000000000000000000000000000000000000000000000000",
                        "0x000000000000000000000000fec3069df398faaf689c559151e41fa8036c8203"
                    ]
                },
                "nodeType": 1
            },
            "16": {
                "event": {
                    "contract": "0x465a790b428268196865a3ae2648481ad7e0d3b1",
                    "decodedLog": {
                        "name": "Compound",
                        "params": [
                            {
                                "name": "user",
                                "type": "address",
                                "value": "0xbcd7254a1d759efa08ec7c3291b2e85c5dcc12ce"
                            },
                            {
                                "name": "harvestedAmount",
                                "type": "uint256",
                                "value": "2,905,874,447,498,568,188,191"
                            }
                        ],
                        "signature": "Compound(address,uint256)"
                    },
                    "id": 16,
                    "logData": "0x00000000000000000000000000000000000000000000009d871be6046ca6c11f",
                    "logDecoded": true,
                    "operation": "EVENT",
                    "revert": false,
                    "status": true,
                    "topics": [
                        "0x169f1815ebdea059aac3bb00ec9a9594c7a5ffcb64a17e8392b5d84909a14556",
                        "0x000000000000000000000000bcd7254a1d759efa08ec7c3291b2e85c5dcc12ce"
                    ]
                },
                "nodeType": 1
            },
            "17": {
                "invocation": {
                    "address": "0x465a790b428268196865a3ae2648481ad7e0d3b1",
                    "callData": "0x000000000000000000000000bcd7254a1d759efa08ec7c3291b2e85c5dcc12ce",
                    "decodedMethod": {
                        "callParams": [
                            {
                                "name": "",
                                "type": "address",
                                "value": "0xbcd7254a1d759efa08ec7c3291b2e85c5dcc12ce"
                            }
                        ],
                        "constructorArguments": "",
                        "name": "userInfo",
                        "returnParams": [
                            {
                                "name": "amount",
                                "type": "uint256",
                                "value": "542,679,655,540,735,094,598,813,757"
                            },
                            {
                                "name": "rewardDebt",
                                "type": "uint256",
                                "value": "332,186,024,155,262,243,535,195,352"
                            }
                        ],
                        "signature": "userInfo(address)"
                    },
                    "errorInfo": "",
                    "fromAddress": "0xbcd7254a1d759efa08ec7c3291b2e85c5dcc12ce",
                    "gasUsed": 679,
                    "id": 17,
                    "methodDecoded": true,
                    "operation": "STATICCALL",
                    "output": "0x000000000000000000000000000000000000000001c0e4e313365049c062483d00000000000000000000000000000000000000000112c72073f2c0f856920cd8",
                    "revert": false,
                    "revertMessage": "",
                    "selector": "0x1959a002",
                    "status": true,
                    "value": "0"
                },
                "nodeType": 0
            },
            "18": {
                "invocation": {
                    "address": "0x465a790b428268196865a3ae2648481ad7e0d3b1",
                    "callData": "0x00000000000000000000000000000000000000000000018564771456ff606237",
                    "decodedMethod": {
                        "callParams": [
                            {
                                "name": "amount",
                                "type": "uint256",
                                "value": "7,183,022,721,962,921,189,943"
                            }
                        ],
                        "constructorArguments": "",
                        "name": "withdraw",
                        "returnParams": [],
                        "signature": "withdraw(uint256)"
                    },
                    "errorInfo": "",
                    "fromAddress": "0xbcd7254a1d759efa08ec7c3291b2e85c5dcc12ce",
                    "gasUsed": 16827,
                    "id": 18,
                    "methodDecoded": true,
                    "operation": "CALL",
                    "output": "",
                    "revert": false,
                    "revertMessage": "",
                    "selector": "0x2e1a7d4d",
                    "status": true,
                    "value": "0"
                },
                "nodeType": 0
            },
            "19": {
                "invocation": {
                    "address": "0xf4d2888d29d722226fafa5d9b24f9164c092421e",
                    "callData": "0x000000000000000000000000bcd7254a1d759efa08ec7c3291b2e85c5dcc12ce00000000000000000000000000000000000000000000018564771456ff606237",
                    "decodedMethod": {
                        "callParams": [
                            {
                                "name": "recipient",
                                "type": "address",
                                "value": "0xbcd7254a1d759efa08ec7c3291b2e85c5dcc12ce"
                            },
                            {
                                "decimalAvailable": true,
                                "name": "amount",
                                "type": "uint256",
                                "value": "7,183,022,721,962,921,189,943"
                            }
                        ],
                        "constructorArguments": "",
                        "name": "transfer",
                        "returnParams": [
                            {
                                "name": "",
                                "type": "bool",
                                "value": true
                            }
                        ],
                        "signature": "transfer(address,uint256)"
                    },
                    "errorInfo": "",
                    "fromAddress": "0x465a790b428268196865a3ae2648481ad7e0d3b1",
                    "gasUsed": 7926,
                    "id": 19,
                    "methodDecoded": true,
                    "operation": "CALL",
                    "output": "0x0000000000000000000000000000000000000000000000000000000000000001",
                    "revert": false,
                    "revertMessage": "",
                    "selector": "0xa9059cbb",
                    "status": true,
                    "value": "0"
                },
                "nodeType": 0
            },
            "2": {
                "invocation": {
                    "address": "0x44da3a8051ba88eab0440db3779cab9d679ae76f",
                    "callData": "0x000000000000000000000000271d7fe32f94ecc5bc1486037268a8a519ec1fa7",
                    "decodedMethod": {
                        "callParams": [
                            {
                                "name": "_wallet",
                                "type": "address",
                                "value": "0x271d7fe32f94ecc5bc1486037268a8a519ec1fa7"
                            }
                        ],
                        "constructorArguments": "",
                        "name": "getGuardians",
                        "returnParams": [
                            {
                                "name": "_guardians",
                                "type": "address[]",
                                "value": [
                                    "0x96d1a661a30ef6c6097a398bff5138ebe91cdaf2"
                                ]
                            }
                        ],
                        "signature": "getGuardians(address)"
                    },
                    "errorInfo": "",
                    "fromAddress": "0x9d58779365b067d5d3fcc6e92d237acd06f1e6a1",
                    "gasUsed": 3858,
                    "id": 2,
                    "methodDecoded": true,
                    "operation": "STATICCALL",
                    "output": "0x0000000000000000000000000000000000000000000000000000000000000020000000000000000000000000000000000000000000000000000000000000000100000000000000000000000096d1a661a30ef6c6097a398bff5138ebe91cdaf2",
                    "revert": false,
                    "revertMessage": "",
                    "selector": "0xf18858ab",
                    "status": true,
                    "value": "0"
                },
                "nodeType": 0
            },
            "20": {
                "event": {
                    "contract": "0xf4d2888d29d722226fafa5d9b24f9164c092421e",
                    "decodedLog": {
                        "name": "Transfer",
                        "params": [
                            {
                                "name": "from",
                                "type": "address",
                                "value": "0x465a790b428268196865a3ae2648481ad7e0d3b1"
                            },
                            {
                                "name": "to",
                                "type": "address",
                                "value": "0xbcd7254a1d759efa08ec7c3291b2e85c5dcc12ce"
                            },
                            {
                                "decimalAvailable": true,
                                "name": "value",
                                "type": "uint256",
                                "value": "7,183,022,721,962,921,189,943"
                            }
                        ],
                        "signature": "Transfer(address,address,uint256)"
                    },
                    "id": 20,
                    "logData": "0x00000000000000000000000000000000000000000000018564771456ff606237",
                    "logDecoded": true,
                    "operation": "EVENT",
                    "revert": false,
                    "status": true,
                    "topics": [
                        "0xddf252ad1be2c89b69c2b068fc378daa952ba7f163c4a11628f55a4df523b3ef",
                        "0x000000000000000000000000465a790b428268196865a3ae2648481ad7e0d3b1",
                        "0x000000000000000000000000bcd7254a1d759efa08ec7c3291b2e85c5dcc12ce"
                    ]
                },
                "nodeType": 1
            },
            "21": {
                "event": {
                    "contract": "0x465a790b428268196865a3ae2648481ad7e0d3b1",
                    "decodedLog": {
                        "name": "Withdraw",
                        "params": [
                            {
                                "name": "user",
                                "type": "address",
                                "value": "0xbcd7254a1d759efa08ec7c3291b2e85c5dcc12ce"
                            },
                            {
                                "name": "amount",
                                "type": "uint256",
                                "value": "7,183,022,721,962,921,189,943"
                            },
                            {
                                "name": "harvestedAmount",
                                "type": "uint256",
                                "value": "0"
                            }
                        ],
                        "signature": "Withdraw(address,uint256,uint256)"
                    },
                    "id": 21,
                    "logData": "0x00000000000000000000000000000000000000000000018564771456ff6062370000000000000000000000000000000000000000000000000000000000000000",
                    "logDecoded": true,
                    "operation": "EVENT",
                    "revert": false,
                    "status": true,
                    "topics": [
                        "0xf279e6a1f5e320cca91135676d9cb6e44ca8a08c0b88342bcdb1144f6511b568",
                        "0x000000000000000000000000bcd7254a1d759efa08ec7c3291b2e85c5dcc12ce"
                    ]
                },
                "nodeType": 1
            },
            "22": {
                "invocation": {
                    "address": "0xc02aaa39b223fe8d0a0e5c4f27ead9083c756cc2",
                    "callData": "0x000000000000000000000000271d7fe32f94ecc5bc1486037268a8a519ec1fa7000000000000000000000000000000000000000000000000009446ac74779efd",
                    "decodedMethod": {
                        "callParams": [
                            {
                                "name": "dst",
                                "type": "address",
                                "value": "0x271d7fe32f94ecc5bc1486037268a8a519ec1fa7"
                            },
                            {
                                "decimalAvailable": true,
                                "name": "wad",
                                "type": "uint256",
                                "value": "41,736,003,055,492,861"
                            }
                        ],
                        "constructorArguments": "",
                        "name": "transfer",
                        "returnParams": [
                            {
                                "name": "",
                                "type": "bool",
                                "value": true
                            }
                        ],
                        "signature": "transfer(address,uint256)"
                    },
                    "errorInfo": "",
                    "fromAddress": "0xbcd7254a1d759efa08ec7c3291b2e85c5dcc12ce",
                    "gasUsed": 12862,
                    "id": 22,
                    "methodDecoded": true,
                    "operation": "CALL",
                    "output": "0x0000000000000000000000000000000000000000000000000000000000000001",
                    "revert": false,
                    "revertMessage": "",
                    "selector": "0xa9059cbb",
                    "status": true,
                    "value": "0"
                },
                "nodeType": 0
            },
            "23": {
                "event": {
                    "contract": "0xc02aaa39b223fe8d0a0e5c4f27ead9083c756cc2",
                    "decodedLog": {
                        "name": "Transfer",
                        "params": [
                            {
                                "name": "src",
                                "type": "address",
                                "value": "0xbcd7254a1d759efa08ec7c3291b2e85c5dcc12ce"
                            },
                            {
                                "name": "dst",
                                "type": "address",
                                "value": "0x271d7fe32f94ecc5bc1486037268a8a519ec1fa7"
                            },
                            {
                                "decimalAvailable": true,
                                "name": "wad",
                                "type": "uint256",
                                "value": "41,736,003,055,492,861"
                            }
                        ],
                        "signature": "Transfer(address,address,uint256)"
                    },
                    "id": 23,
                    "logData": "0x000000000000000000000000000000000000000000000000009446ac74779efd",
                    "logDecoded": true,
                    "operation": "EVENT",
                    "revert": false,
                    "status": true,
                    "topics": [
                        "0xddf252ad1be2c89b69c2b068fc378daa952ba7f163c4a11628f55a4df523b3ef",
                        "0x000000000000000000000000bcd7254a1d759efa08ec7c3291b2e85c5dcc12ce",
                        "0x000000000000000000000000271d7fe32f94ecc5bc1486037268a8a519ec1fa7"
                    ]
                },
                "nodeType": 1
            },
            "24": {
                "invocation": {
                    "address": "0xf4d2888d29d722226fafa5d9b24f9164c092421e",
                    "callData": "0x000000000000000000000000271d7fe32f94ecc5bc1486037268a8a519ec1fa700000000000000000000000000000000000000000000018564771456ff606237",
                    "decodedMethod": {
                        "callParams": [
                            {
                                "name": "recipient",
                                "type": "address",
                                "value": "0x271d7fe32f94ecc5bc1486037268a8a519ec1fa7"
                            },
                            {
                                "decimalAvailable": true,
                                "name": "amount",
                                "type": "uint256",
                                "value": "7,183,022,721,962,921,189,943"
                            }
                        ],
                        "constructorArguments": "",
                        "name": "transfer",
                        "returnParams": [
                            {
                                "name": "",
                                "type": "bool",
                                "value": true
                            }
                        ],
                        "signature": "transfer(address,uint256)"
                    },
                    "errorInfo": "",
                    "fromAddress": "0xbcd7254a1d759efa08ec7c3291b2e85c5dcc12ce",
                    "gasUsed": 25026,
                    "id": 24,
                    "methodDecoded": true,
                    "operation": "CALL",
                    "output": "0x0000000000000000000000000000000000000000000000000000000000000001",
                    "revert": false,
                    "revertMessage": "",
                    "selector": "0xa9059cbb",
                    "status": true,
                    "value": "0"
                },
                "nodeType": 0
            },
            "25": {
                "event": {
                    "contract": "0xf4d2888d29d722226fafa5d9b24f9164c092421e",
                    "decodedLog": {
                        "name": "Transfer",
                        "params": [
                            {
                                "name": "from",
                                "type": "address",
                                "value": "0xbcd7254a1d759efa08ec7c3291b2e85c5dcc12ce"
                            },
                            {
                                "name": "to",
                                "type": "address",
                                "value": "0x271d7fe32f94ecc5bc1486037268a8a519ec1fa7"
                            },
                            {
                                "decimalAvailable": true,
                                "name": "value",
                                "type": "uint256",
                                "value": "7,183,022,721,962,921,189,943"
                            }
                        ],
                        "signature": "Transfer(address,address,uint256)"
                    },
                    "id": 25,
                    "logData": "0x00000000000000000000000000000000000000000000018564771456ff606237",
                    "logDecoded": true,
                    "operation": "EVENT",
                    "revert": false,
                    "status": true,
                    "topics": [
                        "0xddf252ad1be2c89b69c2b068fc378daa952ba7f163c4a11628f55a4df523b3ef",
                        "0x000000000000000000000000bcd7254a1d759efa08ec7c3291b2e85c5dcc12ce",
                        "0x000000000000000000000000271d7fe32f94ecc5bc1486037268a8a519ec1fa7"
                    ]
                },
                "nodeType": 1
            },
            "26": {
                "event": {
                    "contract": "0xbcd7254a1d759efa08ec7c3291b2e85c5dcc12ce",
                    "decodedLog": {
                        "name": "Withdraw",
                        "params": [
                            {
                                "name": "user",
                                "type": "address",
                                "value": "0x271d7fe32f94ecc5bc1486037268a8a519ec1fa7"
                            },
                            {
                                "name": "amount",
                                "type": "uint256",
                                "value": "7,183,022,721,962,921,189,943"
                            },
                            {
                                "name": "harvestedAmount",
                                "type": "uint256",
                                "value": "41,736,003,055,492,861"
                            }
                        ],
                        "signature": "Withdraw(address,uint256,uint256)"
                    },
                    "id": 26,
                    "logData": "0x00000000000000000000000000000000000000000000018564771456ff606237000000000000000000000000000000000000000000000000009446ac74779efd",
                    "logDecoded": true,
                    "operation": "EVENT",
                    "revert": false,
                    "status": true,
                    "topics": [
                        "0xf279e6a1f5e320cca91135676d9cb6e44ca8a08c0b88342bcdb1144f6511b568",
                        "0x000000000000000000000000271d7fe32f94ecc5bc1486037268a8a519ec1fa7"
                    ]
                },
                "nodeType": 1
            },
            "27": {
                "event": {
                    "contract": "0x271d7fe32f94ecc5bc1486037268a8a519ec1fa7",
                    "decodedLog": {
                        "name": "Invoked",
                        "params": [
                            {
                                "name": "module",
                                "type": "address",
                                "value": "0x9d58779365b067d5d3fcc6e92d237acd06f1e6a1"
                            },
                            {
                                "name": "target",
                                "type": "address",
                                "value": "0xbcd7254a1d759efa08ec7c3291b2e85c5dcc12ce"
                            },
                            {
                                "name": "value",
                                "type": "uint256",
                                "value": "0"
                            },
                            {
                                "name": "data",
                                "type": "bytes",
                                "value": "0x1c1c6fe50000000000000000000000000000000000000000000000000000000000000001"
                            }
                        ],
                        "signature": "Invoked(address,address,uint256,bytes)"
                    },
                    "id": 27,
                    "logData": "0x000000000000000000000000000000000000000000000000000000000000002000000000000000000000000000000000000000000000000000000000000000241c1c6fe5000000000000000000000000000000000000000000000000000000000000000100000000000000000000000000000000000000000000000000000000",
                    "logDecoded": true,
                    "operation": "EVENT",
                    "revert": false,
                    "status": true,
                    "topics": [
                        "0x7d2476ab50663f025cff0be85655bcf355f62768615c0c478f3cd5293f807365",
                        "0x0000000000000000000000009d58779365b067d5d3fcc6e92d237acd06f1e6a1",
                        "0x000000000000000000000000bcd7254a1d759efa08ec7c3291b2e85c5dcc12ce",
                        "0x0000000000000000000000000000000000000000000000000000000000000000"
                    ]
                },
                "nodeType": 1
            },
            "28": {
                "invocation": {
                    "address": "0x271d7fe32f94ecc5bc1486037268a8a519ec1fa7",
                    "callData": "0x000000000000000000000000482579f93dc13e6b434e38b5a0447ca543d88a460000000000000000000000000000000000000000000000000024fd49edd4a29500000000000000000000000000000000000000000000000000000000000000600000000000000000000000000000000000000000000000000000000000000000",
                    "decodedMethod": {
                        "callParams": [
                            {
                                "name": "_target",
                                "type": "address",
                                "value": "0x482579f93dc13e6b434e38b5a0447ca543d88a46"
                            },
                            {
                                "name": "_value",
                                "type": "uint256",
                                "value": "10,411,593,126,158,997"
                            },
                            {
                                "name": "_data",
                                "type": "bytes",
                                "value": "0x"
                            }
                        ],
                        "constructorArguments": "",
                        "name": "invoke",
                        "returnParams": [
                            {
                                "name": "_result",
                                "type": "bytes",
                                "value": "0x"
                            }
                        ],
                        "signature": "invoke(address,uint256,bytes)"
                    },
                    "errorInfo": "",
                    "fromAddress": "0x9d58779365b067d5d3fcc6e92d237acd06f1e6a1",
                    "gasUsed": 13350,
                    "id": 28,
                    "methodDecoded": true,
                    "operation": "CALL",
                    "output": "0x00000000000000000000000000000000000000000000000000000000000000200000000000000000000000000000000000000000000000000000000000000000",
                    "revert": false,
                    "revertMessage": "",
                    "selector": "0x8f6f0332",
                    "status": true,
                    "value": "0"
                },
                "nodeType": 0
            },
            "29": {
                "invocation": {
                    "address": "0xab00ea153c43575184ff11dd5e713c96be005573",
                    "callData": "0x000000000000000000000000482579f93dc13e6b434e38b5a0447ca543d88a460000000000000000000000000000000000000000000000000024fd49edd4a29500000000000000000000000000000000000000000000000000000000000000600000000000000000000000000000000000000000000000000000000000000000",
                    "decodedMethod": {
                        "callParams": [
                            {
                                "name": "_target",
                                "type": "address",
                                "value": "0x482579f93dc13e6b434e38b5a0447ca543d88a46"
                            },
                            {
                                "name": "_value",
                                "type": "uint256",
                                "value": "10,411,593,126,158,997"
                            },
                            {
                                "name": "_data",
                                "type": "bytes",
                                "value": "0x"
                            }
                        ],
                        "constructorArguments": "",
                        "name": "invoke",
                        "returnParams": [
                            {
                                "name": "_result",
                                "type": "bytes",
                                "value": "0x"
                            }
                        ],
                        "signature": "invoke(address,uint256,bytes)"
                    },
                    "errorInfo": "",
                    "fromAddress": "0x271d7fe32f94ecc5bc1486037268a8a519ec1fa7",
                    "gasUsed": 13070,
                    "id": 29,
                    "methodDecoded": true,
                    "operation": "DELEGATECALL",
                    "output": "0x00000000000000000000000000000000000000000000000000000000000000200000000000000000000000000000000000000000000000000000000000000000",
                    "revert": false,
                    "revertMessage": "",
                    "selector": "0x8f6f0332",
                    "status": true,
                    "value": "0"
                },
                "nodeType": 0
            },
            "3": {
                "invocation": {
                    "address": "0x0000000000000000000000000000000000000001",
                    "callData": "0xd07dd69043a7bfbeeb95079fe469268a6243dd294ea485a149b46832000000000000000000000000000000000000000000000000000000000000001b8274555ab482b0791b23a92448fa93b888567191b42effbae42d5c46356e610b41ba287ba17924ac90f34ebf109324eb3b72d16b27ae07d59a14274aadc76d11",
                    "decodedMethod": {
                        "callParams": [
                            {
                                "name": "hash",
                                "type": "bytes32",
                                "value": "0x987a802fd07dd69043a7bfbeeb95079fe469268a6243dd294ea485a149b46832"
                            },
                            {
                                "name": "v",
                                "type": "uint256",
                                "value": "27"
                            },
                            {
                                "name": "r",
                                "type": "bytes32",
                                "value": "0x8274555ab482b0791b23a92448fa93b888567191b42effbae42d5c46356e610b"
                            },
                            {
                                "name": "s",
                                "type": "bytes32",
                                "value": "0x41ba287ba17924ac90f34ebf109324eb3b72d16b27ae07d59a14274aadc76d11"
                            }
                        ],
                        "constructorArguments": "",
                        "name": "ecrecover",
                        "returnParams": [
                            {
                                "name": "",
                                "type": "address",
                                "value": "0xa8d090d9501152def28854f7aa0357887f00ed7a"
                            }
                        ],
                        "signature": "ecrecover(bytes32,uint256,bytes32,bytes32)"
                    },
                    "errorInfo": "",
                    "fromAddress": "0x9d58779365b067d5d3fcc6e92d237acd06f1e6a1",
                    "gasUsed": 3000,
                    "id": 3,
                    "methodDecoded": true,
                    "operation": "STATICCALL",
                    "output": "0x000000000000000000000000a8d090d9501152def28854f7aa0357887f00ed7a",
                    "revert": false,
                    "revertMessage": "",
                    "selector": "0x987a802f",
                    "status": true,
                    "value": "0"
                },
                "nodeType": 0
            },
            "30": {
                "invocation": {
                    "address": "0x482579f93dc13e6b434e38b5a0447ca543d88a46",
                    "callData": "0x",
                    "decodedMethod": null,
                    "errorInfo": "",
                    "fromAddress": "0x271d7fe32f94ecc5bc1486037268a8a519ec1fa7",
                    "gasUsed": 0,
                    "id": 30,
                    "methodDecoded": false,
                    "operation": "CALL",
                    "output": "",
                    "revert": false,
                    "revertMessage": "",
                    "selector": "fallback",
                    "status": true,
                    "value": "0.010411593126158997"
                },
                "nodeType": 0
            },
            "31": {
                "event": {
                    "contract": "0x271d7fe32f94ecc5bc1486037268a8a519ec1fa7",
                    "decodedLog": {
                        "name": "Invoked",
                        "params": [
                            {
                                "name": "module",
                                "type": "address",
                                "value": "0x9d58779365b067d5d3fcc6e92d237acd06f1e6a1"
                            },
                            {
                                "name": "target",
                                "type": "address",
                                "value": "0x482579f93dc13e6b434e38b5a0447ca543d88a46"
                            },
                            {
                                "name": "value",
                                "type": "uint256",
                                "value": "10,411,593,126,158,997"
                            },
                            {
                                "name": "data",
                                "type": "bytes",
                                "value": "0x"
                            }
                        ],
                        "signature": "Invoked(address,address,uint256,bytes)"
                    },
                    "id": 31,
                    "logData": "0x00000000000000000000000000000000000000000000000000000000000000200000000000000000000000000000000000000000000000000000000000000000",
                    "logDecoded": true,
                    "operation": "EVENT",
                    "revert": false,
                    "status": true,
                    "topics": [
                        "0x7d2476ab50663f025cff0be85655bcf355f62768615c0c478f3cd5293f807365",
                        "0x0000000000000000000000009d58779365b067d5d3fcc6e92d237acd06f1e6a1",
                        "0x000000000000000000000000482579f93dc13e6b434e38b5a0447ca543d88a46",
                        "0x0000000000000000000000000000000000000000000000000024fd49edd4a295"
                    ]
                },
                "nodeType": 1
            },
            "32": {
                "event": {
                    "contract": "0x9d58779365b067d5d3fcc6e92d237acd06f1e6a1",
                    "decodedLog": {
                        "name": "Refund",
                        "params": [
                            {
                                "name": "wallet",
                                "type": "address",
                                "value": "0x271d7fe32f94ecc5bc1486037268a8a519ec1fa7"
                            },
                            {
                                "name": "refundAddress",
                                "type": "address",
                                "value": "0x482579f93dc13e6b434e38b5a0447ca543d88a46"
                            },
                            {
                                "name": "refundToken",
                                "type": "address",
                                "value": "0x0000000000000000000000000000000000000000"
                            },
                            {
                                "name": "refundAmount",
                                "type": "uint256",
                                "value": "10,411,593,126,158,997"
                            }
                        ],
                        "signature": "Refund(address,address,address,uint256)"
                    },
                    "id": 32,
                    "logData": "0x00000000000000000000000000000000000000000000000000000000000000000000000000000000000000000000000000000000000000000024fd49edd4a295",
                    "logDecoded": true,
                    "operation": "EVENT",
                    "revert": false,
                    "status": true,
                    "topics": [
                        "0x22edd2bbb0b0afbdcf90d91da8a5e2100f8d8f67cdc766dee1742e9a36d6add3",
                        "0x000000000000000000000000271d7fe32f94ecc5bc1486037268a8a519ec1fa7",
                        "0x000000000000000000000000482579f93dc13e6b434e38b5a0447ca543d88a46"
                    ]
                },
                "nodeType": 1
            },
            "33": {
                "event": {
                    "contract": "0x9d58779365b067d5d3fcc6e92d237acd06f1e6a1",
                    "decodedLog": {
                        "name": "TransactionExecuted",
                        "params": [
                            {
                                "name": "wallet",
                                "type": "address",
                                "value": "0x271d7fe32f94ecc5bc1486037268a8a519ec1fa7"
                            },
                            {
                                "name": "success",
                                "type": "bool",
                                "value": true
                            },
                            {
                                "name": "returnData",
                                "type": "bytes",
                                "value": "0x0000000000000000000000000000000000000000000000000000000000000020000000000000000000000000000000000000000000000000000000000000000100000000000000000000000000000000000000000000000000000000000000200000000000000000000000000000000000000000000000000000000000000000"
                            },
                            {
                                "name": "signedHash",
                                "type": "bytes32",
                                "value": "0x987a802fd07dd69043a7bfbeeb95079fe469268a6243dd294ea485a149b46832"
                            }
                        ],
                        "signature": "TransactionExecuted(address,bool,bytes,bytes32)"
                    },
                    "id": 33,
                    "logData": "0x0000000000000000000000000000000000000000000000000000000000000040987a802fd07dd69043a7bfbeeb95079fe469268a6243dd294ea485a149b4683200000000000000000000000000000000000000000000000000000000000000800000000000000000000000000000000000000000000000000000000000000020000000000000000000000000000000000000000000000000000000000000000100000000000000000000000000000000000000000000000000000000000000200000000000000000000000000000000000000000000000000000000000000000",
                    "logDecoded": true,
                    "operation": "EVENT",
                    "revert": false,
                    "status": true,
                    "topics": [
                        "0x7da4525a280527268ba2e963ee6c1b18f43c9507bcb1d2560f652ab17c76e90a",
                        "0x000000000000000000000000271d7fe32f94ecc5bc1486037268a8a519ec1fa7",
                        "0x0000000000000000000000000000000000000000000000000000000000000001"
                    ]
                },
                "nodeType": 1
            },
            "4": {
                "invocation": {
                    "address": "0x271d7fe32f94ecc5bc1486037268a8a519ec1fa7",
                    "callData": "0x",
                    "decodedMethod": {
                        "callParams": [],
                        "constructorArguments": "",
                        "name": "owner",
                        "returnParams": [
                            {
                                "name": "",
                                "type": "address",
                                "value": "0xa8d090d9501152def28854f7aa0357887f00ed7a"
                            }
                        ],
                        "signature": "owner()"
                    },
                    "errorInfo": "",
                    "fromAddress": "0x9d58779365b067d5d3fcc6e92d237acd06f1e6a1",
                    "gasUsed": 5130,
                    "id": 4,
                    "methodDecoded": true,
                    "operation": "STATICCALL",
                    "output": "0x000000000000000000000000a8d090d9501152def28854f7aa0357887f00ed7a",
                    "revert": false,
                    "revertMessage": "",
                    "selector": "0x8da5cb5b",
                    "status": true,
                    "value": "0"
                },
                "nodeType": 0
            },
            "5": {
                "invocation": {
                    "address": "0xab00ea153c43575184ff11dd5e713c96be005573",
                    "callData": "0x",
                    "decodedMethod": {
                        "callParams": [],
                        "constructorArguments": "",
                        "name": "owner",
                        "returnParams": [
                            {
                                "name": "",
                                "type": "address",
                                "value": "0xa8d090d9501152def28854f7aa0357887f00ed7a"
                            }
                        ],
                        "signature": "owner()"
                    },
                    "errorInfo": "",
                    "fromAddress": "0x271d7fe32f94ecc5bc1486037268a8a519ec1fa7",
                    "gasUsed": 2371,
                    "id": 5,
                    "methodDecoded": true,
                    "operation": "DELEGATECALL",
                    "output": "0x000000000000000000000000a8d090d9501152def28854f7aa0357887f00ed7a",
                    "revert": false,
                    "revertMessage": "",
                    "selector": "0x8da5cb5b",
                    "status": true,
                    "value": "0"
                },
                "nodeType": 0
            },
            "6": {
                "invocation": {
                    "address": "0x0000000000000000000000000000000000000001",
                    "callData": "0xd07dd69043a7bfbeeb95079fe469268a6243dd294ea485a149b46832000000000000000000000000000000000000000000000000000000000000001b3f85dca8b4b3a578018a7bb3abc11b8278cc7704895ced9ec5fbb836355dcb2c3ff0eb263bf020d2345e5bb09843b29afc998b8f4fdfde01428f7c38a7084806",
                    "decodedMethod": {
                        "callParams": [
                            {
                                "name": "hash",
                                "type": "bytes32",
                                "value": "0x987a802fd07dd69043a7bfbeeb95079fe469268a6243dd294ea485a149b46832"
                            },
                            {
                                "name": "v",
                                "type": "uint256",
                                "value": "27"
                            },
                            {
                                "name": "r",
                                "type": "bytes32",
                                "value": "0x3f85dca8b4b3a578018a7bb3abc11b8278cc7704895ced9ec5fbb836355dcb2c"
                            },
                            {
                                "name": "s",
                                "type": "bytes32",
                                "value": "0x3ff0eb263bf020d2345e5bb09843b29afc998b8f4fdfde01428f7c38a7084806"
                            }
                        ],
                        "constructorArguments": "",
                        "name": "ecrecover",
                        "returnParams": [
                            {
                                "name": "",
                                "type": "address",
                                "value": "0x96d1a661a30ef6c6097a398bff5138ebe91cdaf2"
                            }
                        ],
                        "signature": "ecrecover(bytes32,uint256,bytes32,bytes32)"
                    },
                    "errorInfo": "",
                    "fromAddress": "0x9d58779365b067d5d3fcc6e92d237acd06f1e6a1",
                    "gasUsed": 3000,
                    "id": 6,
                    "methodDecoded": true,
                    "operation": "STATICCALL",
                    "output": "0x00000000000000000000000096d1a661a30ef6c6097a398bff5138ebe91cdaf2",
                    "revert": false,
                    "revertMessage": "",
                    "selector": "0x987a802f",
                    "status": true,
                    "value": "0"
                },
                "nodeType": 0
            },
            "7": {
                "invocation": {
                    "address": "0x9d58779365b067d5d3fcc6e92d237acd06f1e6a1",
                    "callData": "0x000000000000000000000000271d7fe32f94ecc5bc1486037268a8a519ec1fa7000000000000000000000000000000000000000000000000000000000000004000000000000000000000000000000000000000000000000000000000000000010000000000000000000000000000000000000000000000000000000000000020000000000000000000000000bcd7254a1d759efa08ec7c3291b2e85c5dcc12ce0000000000000000000000000000000000000000000000000000000000000000000000000000000000000000000000000000000000000000000000000000006000000000000000000000000000000000000000000000000000000000000000241c1c6fe5000000000000000000000000000000000000000000000000000000000000000100000000000000000000000000000000000000000000000000000000",
                    "decodedMethod": {
                        "callParams": [
                            {
                                "name": "_wallet",
                                "type": "address",
                                "value": "0x271d7fe32f94ecc5bc1486037268a8a519ec1fa7"
                            },
                            {
                                "name": "_transactions",
                                "type": "(address,uint256,bytes)[]",
                                "value": [
                                    [
                                        {
                                            "name": "to",
                                            "type": "address",
                                            "value": "0xbcd7254a1d759efa08ec7c3291b2e85c5dcc12ce"
                                        },
                                        {
                                            "name": "value",
                                            "type": "uint256",
                                            "value": "0"
                                        },
                                        {
                                            "name": "data",
                                            "type": "bytes",
                                            "value": "0x1c1c6fe50000000000000000000000000000000000000000000000000000000000000001"
                                        }
                                    ]
                                ]
                            }
                        ],
                        "constructorArguments": "",
                        "name": "multiCallWithGuardians",
                        "returnParams": [
                            {
                                "name": "",
                                "type": "bytes[]",
                                "value": [
                                    "0x"
                                ]
                            }
                        ],
                        "signature": "multiCallWithGuardians(address,(address,uint256,bytes)[])"
                    },
                    "errorInfo": "",
                    "fromAddress": "0x9d58779365b067d5d3fcc6e92d237acd06f1e6a1",
                    "gasUsed": 203817,
                    "id": 7,
                    "methodDecoded": true,
                    "operation": "CALL",
                    "output": "0x0000000000000000000000000000000000000000000000000000000000000020000000000000000000000000000000000000000000000000000000000000000100000000000000000000000000000000000000000000000000000000000000200000000000000000000000000000000000000000000000000000000000000000",
                    "revert": false,
                    "revertMessage": "",
                    "selector": "0xf143ddba",
                    "status": true,
                    "value": "0"
                },
                "nodeType": 0
            },
            "8": {
                "invocation": {
                    "address": "0x271d7fe32f94ecc5bc1486037268a8a519ec1fa7",
                    "callData": "0x000000000000000000000000bcd7254a1d759efa08ec7c3291b2e85c5dcc12ce0000000000000000000000000000000000000000000000000000000000000000000000000000000000000000000000000000000000000000000000000000006000000000000000000000000000000000000000000000000000000000000000241c1c6fe5000000000000000000000000000000000000000000000000000000000000000100000000000000000000000000000000000000000000000000000000",
                    "decodedMethod": {
                        "callParams": [
                            {
                                "name": "_target",
                                "type": "address",
                                "value": "0xbcd7254a1d759efa08ec7c3291b2e85c5dcc12ce"
                            },
                            {
                                "name": "_value",
                                "type": "uint256",
                                "value": "0"
                            },
                            {
                                "name": "_data",
                                "type": "bytes",
                                "value": "0x1c1c6fe50000000000000000000000000000000000000000000000000000000000000001"
                            }
                        ],
                        "constructorArguments": "",
                        "name": "invoke",
                        "returnParams": [
                            {
                                "name": "_result",
                                "type": "bytes",
                                "value": "0x"
                            }
                        ],
                        "signature": "invoke(address,uint256,bytes)"
                    },
                    "errorInfo": "",
                    "fromAddress": "0x9d58779365b067d5d3fcc6e92d237acd06f1e6a1",
                    "gasUsed": 198711,
                    "id": 8,
                    "methodDecoded": true,
                    "operation": "CALL",
                    "output": "0x00000000000000000000000000000000000000000000000000000000000000200000000000000000000000000000000000000000000000000000000000000000",
                    "revert": false,
                    "revertMessage": "",
                    "selector": "0x8f6f0332",
                    "status": true,
                    "value": "0"
                },
                "nodeType": 0
            },
            "9": {
                "invocation": {
                    "address": "0xab00ea153c43575184ff11dd5e713c96be005573",
                    "callData": "0x000000000000000000000000bcd7254a1d759efa08ec7c3291b2e85c5dcc12ce0000000000000000000000000000000000000000000000000000000000000000000000000000000000000000000000000000000000000000000000000000006000000000000000000000000000000000000000000000000000000000000000241c1c6fe5000000000000000000000000000000000000000000000000000000000000000100000000000000000000000000000000000000000000000000000000",
                    "decodedMethod": {
                        "callParams": [
                            {
                                "name": "_target",
                                "type": "address",
                                "value": "0xbcd7254a1d759efa08ec7c3291b2e85c5dcc12ce"
                            },
                            {
                                "name": "_value",
                                "type": "uint256",
                                "value": "0"
                            },
                            {
                                "name": "_data",
                                "type": "bytes",
                                "value": "0x1c1c6fe50000000000000000000000000000000000000000000000000000000000000001"
                            }
                        ],
                        "constructorArguments": "",
                        "name": "invoke",
                        "returnParams": [
                            {
                                "name": "_result",
                                "type": "bytes",
                                "value": "0x"
                            }
                        ],
                        "signature": "invoke(address,uint256,bytes)"
                    },
                    "errorInfo": "",
                    "fromAddress": "0x271d7fe32f94ecc5bc1486037268a8a519ec1fa7",
                    "gasUsed": 198419,
                    "id": 9,
                    "methodDecoded": true,
                    "operation": "DELEGATECALL",
                    "output": "0x00000000000000000000000000000000000000000000000000000000000000200000000000000000000000000000000000000000000000000000000000000000",
                    "revert": false,
                    "revertMessage": "",
                    "selector": "0x8f6f0332",
                    "status": true,
                    "value": "0"
                },
                "nodeType": 0
            }
        },
        "gasFlame": [
            {
                "children": [
                    {
                        "children": [
                            {
                                "children": [],
                                "depth": 0,
                                "name": "Initial Gas",
                                "value": 27332
                            },
                            {
                                "children": [
                                    {
                                        "children": [],
                                        "depth": 1,
                                        "name": "guardianCount",
                                        "value": 2553
                                    },
                                    {
                                        "children": [],
                                        "depth": 1,
                                        "name": "getGuardians",
                                        "value": 3858
                                    },
                                    {
                                        "children": [],
                                        "depth": 1,
                                        "name": "ecrecover",
                                        "value": 3000
                                    },
                                    {
                                        "children": [
                                            {
                                                "children": [],
                                                "depth": 2,
                                                "name": "owner",
                                                "value": 2371
                                            }
                                        ],
                                        "depth": 1,
                                        "name": "owner",
                                        "value": 5130
                                    },
                                    {
                                        "children": [],
                                        "depth": 1,
                                        "name": "ecrecover",
                                        "value": 3000
                                    },
                                    {
                                        "children": [
                                            {
                                                "children": [
                                                    {
                                                        "children": [
                                                            {
                                                                "children": [
                                                                    {
                                                                        "children": [
                                                                            {
                                                                                "children": [],
                                                                                "depth": 6,
                                                                                "name": "mint",
                                                                                "value": 14981
                                                                            },
                                                                            {
                                                                                "children": [],
                                                                                "depth": 6,
                                                                                "name": "mint",
                                                                                "value": 8181
                                                                            }
                                                                        ],
                                                                        "depth": 5,
                                                                        "name": "harvestAndCompound",
                                                                        "value": 67560
                                                                    },
                                                                    {
                                                                        "children": [],
                                                                        "depth": 5,
                                                                        "name": "userInfo",
                                                                        "value": 679
                                                                    },
                                                                    {
                                                                        "children": [
                                                                            {
                                                                                "children": [],
                                                                                "depth": 6,
                                                                                "name": "transfer",
                                                                                "value": 7926
                                                                            }
                                                                        ],
                                                                        "depth": 5,
                                                                        "name": "withdraw",
                                                                        "value": 16827
                                                                    },
                                                                    {
                                                                        "children": [],
                                                                        "depth": 5,
                                                                        "name": "transfer",
                                                                        "value": 12862
                                                                    },
                                                                    {
                                                                        "children": [],
                                                                        "depth": 5,
                                                                        "name": "transfer",
                                                                        "value": 25026
                                                                    }
                                                                ],
                                                                "depth": 4,
                                                                "name": "withdrawAll",
                                                                "value": 189519
                                                            }
                                                        ],
                                                        "depth": 3,
                                                        "name": "invoke",
                                                        "value": 198419
                                                    }
                                                ],
                                                "depth": 2,
                                                "name": "invoke",
                                                "value": 198711
                                            }
                                        ],
                                        "depth": 1,
                                        "name": "multiCallWithGuardians",
                                        "value": 203817
                                    },
                                    {
                                        "children": [
                                            {
                                                "children": [
                                                    {
                                                        "children": [],
                                                        "depth": 3,
                                                        "name": "fallback",
                                                        "value": 0
                                                    }
                                                ],
                                                "depth": 2,
                                                "name": "invoke",
                                                "value": 13070
                                            }
                                        ],
                                        "depth": 1,
                                        "name": "invoke",
                                        "value": 13350
                                    }
                                ],
                                "depth": 0,
                                "name": "Executed Gas",
                                "value": 284977
                            }
                        ],
                        "depth": -1,
                        "name": "Actual Gas Used",
                        "value": 276409
                    },
                    {
                        "children": [],
                        "depth": -1,
                        "name": "Refunded Gas",
                        "value": 35900
                    }
                ],
                "depth": -2,
                "name": "Total Gas",
                "value": 312309
            }
        ],
        "isConfirmed": true,
        "mainTrace": [
            {
                "children": [
                    {
                        "children": [
                            {
                                "children": [],
                                "depth": 1,
                                "id": 1,
                                "order": 1
                            },
                            {
                                "children": [],
                                "depth": 1,
                                "id": 2,
                                "order": 2
                            },
                            {
                                "children": [],
                                "depth": 1,
                                "id": 3,
                                "order": 3
                            },
                            {
                                "children": [
                                    {
                                        "children": [],
                                        "depth": 2,
                                        "id": 5,
                                        "order": 5
                                    }
                                ],
                                "depth": 1,
                                "id": 4,
                                "order": 4
                            },
                            {
                                "children": [],
                                "depth": 1,
                                "id": 6,
                                "order": 6
                            },
                            {
                                "children": [
                                    {
                                        "children": [
                                            {
                                                "children": [
                                                    {
                                                        "children": [
                                                            {
                                                                "children": [
                                                                    {
                                                                        "children": [
                                                                            {
                                                                                "children": [],
                                                                                "depth": 7,
                                                                                "id": 13,
                                                                                "order": 13
                                                                            }
                                                                        ],
                                                                        "depth": 6,
                                                                        "id": 12,
                                                                        "order": 12
                                                                    },
                                                                    {
                                                                        "children": [
                                                                            {
                                                                                "children": [],
                                                                                "depth": 7,
                                                                                "id": 15,
                                                                                "order": 15
                                                                            }
                                                                        ],
                                                                        "depth": 6,
                                                                        "id": 14,
                                                                        "order": 14
                                                                    },
                                                                    {
                                                                        "children": [],
                                                                        "depth": 6,
                                                                        "id": 16,
                                                                        "order": 16
                                                                    }
                                                                ],
                                                                "depth": 5,
                                                                "id": 11,
                                                                "order": 11
                                                            },
                                                            {
                                                                "children": [],
                                                                "depth": 5,
                                                                "id": 17,
                                                                "order": 17
                                                            },
                                                            {
                                                                "children": [
                                                                    {
                                                                        "children": [
                                                                            {
                                                                                "children": [],
                                                                                "depth": 7,
                                                                                "id": 20,
                                                                                "order": 20
                                                                            }
                                                                        ],
                                                                        "depth": 6,
                                                                        "id": 19,
                                                                        "order": 19
                                                                    },
                                                                    {
                                                                        "children": [],
                                                                        "depth": 6,
                                                                        "id": 21,
                                                                        "order": 21
                                                                    }
                                                                ],
                                                                "depth": 5,
                                                                "id": 18,
                                                                "order": 18
                                                            },
                                                            {
                                                                "children": [
                                                                    {
                                                                        "children": [],
                                                                        "depth": 6,
                                                                        "id": 23,
                                                                        "order": 23
                                                                    }
                                                                ],
                                                                "depth": 5,
                                                                "id": 22,
                                                                "order": 22
                                                            },
                                                            {
                                                                "children": [
                                                                    {
                                                                        "children": [],
                                                                        "depth": 6,
                                                                        "id": 25,
                                                                        "order": 25
                                                                    }
                                                                ],
                                                                "depth": 5,
                                                                "id": 24,
                                                                "order": 24
                                                            },
                                                            {
                                                                "children": [],
                                                                "depth": 5,
                                                                "id": 26,
                                                                "order": 26
                                                            }
                                                        ],
                                                        "depth": 4,
                                                        "id": 10,
                                                        "order": 10
                                                    },
                                                    {
                                                        "children": [],
                                                        "depth": 4,
                                                        "id": 27,
                                                        "order": 27
                                                    }
                                                ],
                                                "depth": 3,
                                                "id": 9,
                                                "order": 9
                                            }
                                        ],
                                        "depth": 2,
                                        "id": 8,
                                        "order": 8
                                    }
                                ],
                                "depth": 1,
                                "id": 7,
                                "order": 7
                            },
                            {
                                "children": [
                                    {
                                        "children": [
                                            {
                                                "children": [],
                                                "depth": 3,
                                                "id": 30,
                                                "order": 30
                                            },
                                            {
                                                "children": [],
                                                "depth": 3,
                                                "id": 31,
                                                "order": 31
                                            }
                                        ],
                                        "depth": 2,
                                        "id": 29,
                                        "order": 29
                                    }
                                ],
                                "depth": 1,
                                "id": 28,
                                "order": 28
                            },
                            {
                                "children": [],
                                "depth": 1,
                                "id": 32,
                                "order": 32
                            },
                            {
                                "children": [],
                                "depth": 1,
                                "id": 33,
                                "order": 33
                            }
                        ],
                        "depth": 0,
                        "id": 0,
                        "order": 0
                    }
                ],
                "depth": -1,
                "id": -1,
                "order": -1
            }
        ],
        "mainTraceNodeCount": 34,
        "parentIdMap": {
            "0": -1,
            "1": 0,
            "10": 9,
            "11": 10,
            "12": 11,
            "13": 12,
            "14": 11,
            "15": 14,
            "16": 11,
            "17": 10,
            "18": 10,
            "19": 18,
            "2": 0,
            "20": 19,
            "21": 18,
            "22": 10,
            "23": 22,
            "24": 10,
            "25": 24,
            "26": 10,
            "27": 9,
            "28": 0,
            "29": 28,
            "3": 0,
            "30": 29,
            "31": 29,
            "32": 0,
            "33": 0,
            "4": 0,
            "5": 4,
            "6": 0,
            "7": 0,
            "8": 7,
            "9": 8
        },
        "tidyTrace": [
            {
                "children": [
                    {
                        "children": [
                            {
                                "children": [
                                    {
                                        "children": [
                                            {
                                                "children": [
                                                    {
                                                        "children": [
                                                            {
                                                                "children": [
                                                                    {
                                                                        "children": [
                                                                            {
                                                                                "children": [],
                                                                                "depth": 7,
                                                                                "id": 13,
                                                                                "order": 13
                                                                            }
                                                                        ],
                                                                        "depth": 6,
                                                                        "id": 12,
                                                                        "order": 12
                                                                    },
                                                                    {
                                                                        "children": [
                                                                            {
                                                                                "children": [],
                                                                                "depth": 7,
                                                                                "id": 15,
                                                                                "order": 15
                                                                            }
                                                                        ],
                                                                        "depth": 6,
                                                                        "id": 14,
                                                                        "order": 14
                                                                    },
                                                                    {
                                                                        "children": [],
                                                                        "depth": 6,
                                                                        "id": 16,
                                                                        "order": 16
                                                                    }
                                                                ],
                                                                "depth": 5,
                                                                "id": 11,
                                                                "order": 11
                                                            },
                                                            {
                                                                "children": [
                                                                    {
                                                                        "children": [
                                                                            {
                                                                                "children": [],
                                                                                "depth": 7,
                                                                                "id": 20,
                                                                                "order": 20
                                                                            }
                                                                        ],
                                                                        "depth": 6,
                                                                        "id": 19,
                                                                        "order": 19
                                                                    },
                                                                    {
                                                                        "children": [],
                                                                        "depth": 6,
                                                                        "id": 21,
                                                                        "order": 21
                                                                    }
                                                                ],
                                                                "depth": 5,
                                                                "id": 18,
                                                                "order": 18
                                                            },
                                                            {
                                                                "children": [
                                                                    {
                                                                        "children": [],
                                                                        "depth": 6,
                                                                        "id": 23,
                                                                        "order": 23
                                                                    }
                                                                ],
                                                                "depth": 5,
                                                                "id": 22,
                                                                "order": 22
                                                            },
                                                            {
                                                                "children": [
                                                                    {
                                                                        "children": [],
                                                                        "depth": 6,
                                                                        "id": 25,
                                                                        "order": 25
                                                                    }
                                                                ],
                                                                "depth": 5,
                                                                "id": 24,
                                                                "order": 24
                                                            },
                                                            {
                                                                "children": [],
                                                                "depth": 5,
                                                                "id": 26,
                                                                "order": 26
                                                            }
                                                        ],
                                                        "depth": 4,
                                                        "id": 10,
                                                        "order": 10
                                                    },
                                                    {
                                                        "children": [],
                                                        "depth": 4,
                                                        "id": 27,
                                                        "order": 27
                                                    }
                                                ],
                                                "depth": 3,
                                                "id": 9,
                                                "order": 9
                                            }
                                        ],
                                        "depth": 2,
                                        "id": 8,
                                        "order": 8
                                    }
                                ],
                                "depth": 1,
                                "id": 7,
                                "order": 7
                            },
                            {
                                "children": [
                                    {
                                        "children": [
                                            {
                                                "children": [],
                                                "depth": 3,
                                                "id": 30,
                                                "order": 30
                                            },
                                            {
                                                "children": [],
                                                "depth": 3,
                                                "id": 31,
                                                "order": 31
                                            }
                                        ],
                                        "depth": 2,
                                        "id": 29,
                                        "order": 29
                                    }
                                ],
                                "depth": 1,
                                "id": 28,
                                "order": 28
                            },
                            {
                                "children": [],
                                "depth": 1,
                                "id": 32,
                                "order": 32
                            },
                            {
                                "children": [],
                                "depth": 1,
                                "id": 33,
                                "order": 33
                            }
                        ],
                        "depth": 0,
                        "id": 0,
                        "order": 0
                    }
                ],
                "depth": -1,
                "id": -1,
                "order": -1
            }
        ],
        "tidyTraceNodeCount": 27
    },
    "state_change": {
        "stateChanges": [
            {
                "address": "0x465a790b428268196865a3ae2648481ad7e0d3b1",
                "erc": "",
                "slots": [
                    {
                        "current": "0x000000000000000000000000000000000000000001c0e36064a2eb097289e606",
                        "key": "0x0000000000000000000000000000000000000000000000000000000000000007",
                        "prev": "0x000000000000000000000000000000000000000001c0e44841fe195c0543871e"
                    },
                    {
                        "current": "0x0000000000000000000000000000000000000000000000000000008e854cc4b0",
                        "key": "0x0000000000000000000000000000000000000000000000000000000000000001",
                        "prev": "0x0000000000000000000000000000000000000000000000000000008e84fb0fde"
                    },
                    {
                        "current": "0x00000000000000000000000000000000000000000112c63218eb16c8a11b28ea",
                        "key": "0x14d86d882020e7696234d76dd350cf0e83b51cfee9349fc784bcfe552a0ff998",
                        "prev": "0x00000000000000000000000000000000000000000112c6227fbd0d268facd929"
                    },
                    {
                        "current": "0x0000000000000000000000000000000000000000000000000000000000f3ff08",
                        "key": "0x0000000000000000000000000000000000000000000000000000000000000004",
                        "prev": "0x0000000000000000000000000000000000000000000000000000000000f3feb6"
                    },
                    {
                        "current": "0x000000000000000000000000000000000000000001c0e35daebf3bf2c101e606",
                        "key": "0x14d86d882020e7696234d76dd350cf0e83b51cfee9349fc784bcfe552a0ff997",
                        "prev": "0x000000000000000000000000000000000000000001c0e4458c1a6a4553bb871e"
                    }
                ],
                "storageVariables": [
                    {
                        "name": "lastRewardBlock",
                        "type": "uint256",
                        "value": {
                            "current": "15990536",
                            "prev": "15990454",
                            "typeTag": 1
                        }
                    },
                    {
                        "name": "userInfo",
                        "type": "mapping(address => struct TokenDistributor.UserInfo)",
                        "value": {
                            "pairs": [
                                {
                                    "key": "0xbcd7254a1d759efa08ec7c3291b2e85c5dcc12ce",
                                    "value": {
                                        "fields": [
                                            {
                                                "name": "amount",
                                                "type": "uint256",
                                                "value": {
                                                    "current": "542672472518013131677623814",
                                                    "prev": "542676749666287596030625566",
                                                    "typeTag": 1
                                                }
                                            },
                                            {
                                                "name": "rewardDebt",
                                                "type": "uint256",
                                                "value": {
                                                    "current": "332181627270774196488841450",
                                                    "prev": "332181339531842762432108841",
                                                    "typeTag": 1
                                                }
                                            }
                                        ],
                                        "typeTag": 3
                                    }
                                }
                            ],
                            "typeTag": 4
                        }
                    },
                    {
                        "name": "totalAmountStaked",
                        "type": "uint256",
                        "value": {
                            "current": "542672522518013131677623814",
                            "prev": "542676799666287596030625566",
                            "typeTag": 1
                        }
                    },
                    {
                        "name": "accTokenPerShare",
                        "type": "uint256",
                        "value": {
                            "current": "612121756848",
                            "prev": "612116402142",
                            "typeTag": 1
                        }
                    }
                ]
            },
            {
                "address": "0x9d58779365b067d5d3fcc6e92d237acd06f1e6a1",
                "erc": "",
                "slots": [
                    {
                        "current": "0x0000000000000000000000000000000000000000000000000000000000000001",
                        "key": "0x8e4639da3cca0bdd4369b4eaab9362895cde802b7a2cf866cebf3b5811d86f69",
                        "prev": "0x0000000000000000000000000000000000000000000000000000000000000000"
                    }
                ],
                "storageVariables": [
                    {
                        "name": "relayer",
                        "type": "mapping(address => struct RelayerManager.RelayerConfig)",
                        "value": {
                            "pairs": [
                                {
                                    "key": "0x271d7fe32f94ecc5bc1486037268a8a519ec1fa7",
                                    "value": {
                                        "fields": [
                                            {
                                                "name": "executedTx",
                                                "type": "mapping(bytes32 => bool)",
                                                "value": {
                                                    "pairs": [
                                                        {
                                                            "key": "0x987a802fd07dd69043a7bfbeeb95079fe469268a6243dd294ea485a149b46832",
                                                            "value": {
                                                                "current": "true",
                                                                "prev": "false",
                                                                "typeTag": 1
                                                            }
                                                        }
                                                    ],
                                                    "typeTag": 4
                                                }
                                            }
                                        ],
                                        "typeTag": 3
                                    }
                                }
                            ],
                            "typeTag": 4
                        }
                    }
                ]
            },
            {
                "address": "0xbcd7254a1d759efa08ec7c3291b2e85c5dcc12ce",
                "erc": "",
                "slots": [
                    {
                        "current": "0x000000000000000000000000000000000000000000000000000356f261d933dc",
                        "key": "0x60519a9ac8cc31b877ea7891c37aada202d57abc1586a8ea7ec47177c2a83837",
                        "prev": "0x00000000000000000000000000000000000000000000000000034d334e42fec7"
                    },
                    {
                        "current": "0x0000000000000000000000000000000000000000000000000000000000000000",
                        "key": "0x60519a9ac8cc31b877ea7891c37aada202d57abc1586a8ea7ec47177c2a83836",
                        "prev": "0x0000000000000000000000000000000000000000000000d320f6a41f88164faa"
                    },
                    {
                        "current": "0x000000000000000000000000000000000000000000f3632a39f73f7d7ce02d7a",
                        "key": "0x0000000000000000000000000000000000000000000000000000000000000007",
                        "prev": "0x000000000000000000000000000000000000000000f363fd5aede39d04f67d24"
                    }
                ],
                "storageVariables": [
                    {
                        "name": "userInfo",
                        "type": "mapping(address => struct FeeSharingSystem.UserInfo)",
                        "value": {
                            "pairs": [
                                {
                                    "key": "0x271d7fe32f94ecc5bc1486037268a8a519ec1fa7",
                                    "value": {
                                        "fields": [
                                            {
                                                "name": "shares",
                                                "type": "uint256",
                                                "value": {
                                                    "current": "0",
                                                    "prev": "3894638265861534011306",
                                                    "typeTag": 1
                                                }
                                            },
                                            {
                                                "name": "userRewardPerTokenPaid",
                                                "type": "uint256",
                                                "value": {
                                                    "current": "940023953830876",
                                                    "prev": "929307681816263",
                                                    "typeTag": 1
                                                }
                                            }
                                        ],
                                        "typeTag": 3
                                    }
                                }
                            ],
                            "typeTag": 4
                        }
                    },
                    {
                        "name": "totalShares",
                        "type": "uint256",
                        "value": {
                            "current": "294237267388287067738877306",
                            "prev": "294241162026552929272888612",
                            "typeTag": 1
                        }
                    }
                ]
            },
            {
                "address": "0xc02aaa39b223fe8d0a0e5c4f27ead9083c756cc2",
                "erc": "ERC-20",
                "slots": [
                    {
                        "current": "0x00000000000000000000000000000000000000000000019bebf353cc549e6810",
                        "key": "0xf7362064b6db789c967bf07b3e9393df17240956020e5e348a63d22774f5c36f",
                        "prev": "0x00000000000000000000000000000000000000000000019bec879a78c916070d"
                    },
                    {
                        "current": "0x00000000000000000000000000000000000000000000000032ceac8b4e7f3f0e",
                        "key": "0x233b95078c7aebc03772072cb918e03a47594223721b3d557bbef1bd6930c920",
                        "prev": "0x000000000000000000000000000000000000000000000000323a65deda07a011"
                    }
                ],
                "storageVariables": [
                    {
                        "name": "balanceOf",
                        "type": "mapping(address => uint256)",
                        "value": {
                            "pairs": [
                                {
                                    "key": "0x271d7fe32f94ecc5bc1486037268a8a519ec1fa7",
                                    "value": {
                                        "current": "3661053261416185614",
                                        "prev": "3619317258360692753",
                                        "typeTag": 1
                                    }
                                },
                                {
                                    "key": "0xbcd7254a1d759efa08ec7c3291b2e85c5dcc12ce",
                                    "value": {
                                        "current": "7598613839449937569808",
                                        "prev": "7598655575452993062669",
                                        "typeTag": 1
                                    }
                                }
                            ],
                            "typeTag": 4
                        }
                    }
                ]
            },
            {
                "address": "0xf4d2888d29d722226fafa5d9b24f9164c092421e",
                "erc": "ERC-20",
                "slots": [
                    {
                        "current": "0x000000000000000000000000000000000000000001c0e3630844f8d46fe2f05d",
                        "key": "0xf9db3ec2cc649b37899e1cf8e82e082e6efc86880c0e0b9ef0761d4d2c4c2550",
                        "prev": "0x000000000000000000000000000000000000000001c0e44ae59e30a7bf07d294"
                    },
                    {
                        "current": "0x00000000000000000000000000000000000000000000a9be7cd682b649454000",
                        "key": "0x12bb8a29ddc78a92a9e173ed7ebcebf61f67802276dc0e4e233c9e6b55872ab2",
                        "prev": "0x00000000000000000000000000000000000000000000a7c13b2a1f6b60d0c000"
                    },
                    {
                        "current": "0x00000000000000000000000000000000000000000000018564771456ff606237",
                        "key": "0x82b4a6ada3eaaca3a41a13fbe4b203c1e658a05502f8f906d1efa2c54a7ff4a2",
                        "prev": "0x0000000000000000000000000000000000000000000000000000000000000000"
                    },
                    {
                        "current": "0x00000000000000000000000000000000000000000277691e526fa2d46a600000",
                        "key": "0x0000000000000000000000000000000000000000000000000000000000000002",
                        "prev": "0x00000000000000000000000000000000000000000277668389a56305d1b00000"
                    }
                ],
                "storageVariables": [
                    {
                        "name": "_balances",
                        "type": "mapping(address => uint256)",
                        "value": {
                            "pairs": [
                                {
                                    "key": "0x271d7fe32f94ecc5bc1486037268a8a519ec1fa7",
                                    "value": {
                                        "current": "7183022721962921189943",
                                        "prev": "0",
                                        "typeTag": 1
                                    }
                                },
                                {
                                    "key": "0x465a790b428268196865a3ae2648481ad7e0d3b1",
                                    "value": {
                                        "current": "542672571202503218991132765",
                                        "prev": "542676848350225181912322708",
                                        "typeTag": 1
                                    }
                                },
                                {
                                    "key": "0xfec3069df398faaf689c559151e41fa8036c8203",
                                    "value": {
                                        "current": "801593812500000000000000",
                                        "prev": "792199687500000000000000",
                                        "typeTag": 1
                                    }
                                }
                            ],
                            "typeTag": 4
                        }
                    },
                    {
                        "name": "_totalSupply",
                        "type": "uint256",
                        "value": {
                            "current": "763328600000000000000000000",
                            "prev": "763316300000000000000000000",
                            "typeTag": 1
                        }
                    }
                ]
            }
        ]
    }
}