{
    "balance_change": {
        "balanceChanges": [
            {
                "account": "0x0aef7b88bf3bb98c1bb9c77d8780249f877e4aec",
                "assets": [
                    {
                        "address": "0xd9e24d0f97ab29d23734d5122f87e333a371321b",
                        "amount": "18.721",
                        "iconUrl": "",
                        "isERC1155": false,
                        "isERC721": false,
                        "sign": false,
                        "value": ""
                    }
                ]
            },
            {
                "account": "0x1037832a2a8ef43e3b3fd66479dee8c97c59890a",
                "assets": [
                    {
                        "address": "0xd9e24d0f97ab29d23734d5122f87e333a371321b",
                        "amount": "18.721",
                        "iconUrl": "",
                        "isERC1155": false,
                        "isERC721": false,
                        "sign": true,
                        "value": ""
                    }
                ]
            }
        ]
    },
    "profile": {
        "basic_info": {
            "baseFee": "",
            "blockNumber": 9025229,
            "callData": "0xa9059cbb0000000000000000000000001037832a2a8ef43e3b3fd66479dee8c97c59890a00000000000000000000000000000000000000000000000103ce5a4fd8168000",
            "debugEnable": true,
            "errorInfo": "",
            "eventCount": 1,
            "feeRecipient": "0x829bd824b016326a401d083b33d092293333a830",
            "formatValue": "0",
            "gasLimit": 60000,
            "gasPrice": "10",
            "gasUsed": 36372,
            "intTxnCount": 0,
            "internalRevert": false,
            "internalRevertMessage": "",
            "isContractCreation": false,
            "isFlashloan": false,
            "maxFee": "",
            "nonce": 20055,
            "overwritedBlockNumber": -1,
            "priorityFee": "",
            "receiver": "0xd9e24d0f97ab29d23734d5122f87e333a371321b",
            "revertMessage": "",
            "sender": "0x0aef7b88bf3bb98c1bb9c77d8780249f877e4aec",
            "simulationEnable": true,
            "sourceTxnHash": "0x2287e8fcd4108d1a57f1b137dede0d90dd58aa81973efd4347d17211ccc8b290",
            "status": true,
            "timestamp": "2019-11-30T06:02:36Z",
            "transactionFee": "0.00036372",
            "txnHash": "0x2287e8fcd4108d1a57f1b137dede0d90dd58aa81973efd4347d17211ccc8b290",
            "txnIndex": 12,
            "type": 0,
            "value": "0"
        },
        "fund_flow": [
            {
                "amount": "18.721",
                "from": "0x0aef7b88bf3bb98c1bb9c77d8780249f877e4aec",
                "id": 1,
                "isERC1155": false,
                "isERC721": false,
                "isReverted": false,
                "order": 1,
                "to": "0x1037832a2a8ef43e3b3fd66479dee8c97c59890a",
                "token": "0xd9e24d0f97ab29d23734d5122f87e333a371321b"
            }
        ],
        "token_infos": [
            {
                "address": "0xc02aaa39b223fe8d0a0e5c4f27ead9083c756cc2",
                "decimals": 18
            },
            {
                "address": "0xd9e24d0f97ab29d23734d5122f87e333a371321b",
                "decimals": 18
            },
            {
                "address": "0xeeeeeeeeeeeeeeeeeeeeeeeeeeeeeeeeeeeeeeee",
                "decimals": 18
            }
        ]
    },
    "address_label": {
        "labels": [
            {
                "address": "0xeeeeeeeeeeeeeeeeeeeeeeeeeeeeeeeeeeeeeeee",
                "label": "Ether"
            },
            {
                "address": "0xd9e24d0f97ab29d23734d5122f87e333a371321b",
                "label": "Karl Benz (KAR)"
            },
            {
                "address": "0x0000000000000000000000000000000000000001",
                "label": "Precompiled"
            },
            {
                "address": "0x0000000000000000000000000000000000000002",
                "label": "Precompiled"
            },
            {
                "address": "0x0000000000000000000000000000000000000003",
                "label": "Precompiled"
            },
            {
                "address": "0x0000000000000000000000000000000000000004",
                "label": "Precompiled"
            }
        ]
    },
    "trace": {
        "accountLabels": null,
        "dataMap": {
            "-1": {
                "invocation": {
                    "address": "0x0aef7b88bf3bb98c1bb9c77d8780249f877e4aec",
                    "callData": "",
                    "decodedMethod": null,
                    "errorInfo": "",
                    "fromAddress": "",
                    "gasUsed": 0,
                    "id": -1,
                    "methodDecoded": false,
                    "operation": "",
                    "output": "",
                    "revert": false,
                    "revertMessage": "",
                    "selector": "",
                    "status": false,
                    "value": ""
                },
                "nodeType": 0
            },
            "0": {
                "invocation": {
                    "address": "0xd9e24d0f97ab29d23734d5122f87e333a371321b",
                    "callData": "0x0000000000000000000000001037832a2a8ef43e3b3fd66479dee8c97c59890a00000000000000000000000000000000000000000000000103ce5a4fd8168000",
                    "decodedMethod": {
                        "callParams": [
                            {
                                "name": "to",
                                "type": "address",
                                "value": "0x1037832a2a8ef43e3b3fd66479dee8c97c59890a"
                            },
                            {
                                "decimalAvailable": true,
                                "name": "value",
                                "type": "uint256",
                                "value": "18,721,000,000,000,000,000"
                            }
                        ],
                        "constructorArguments": "",
                        "name": "transfer",
                        "returnParams": [
                            {
                                "name": "success",
                                "type": "bool",
                                "value": true
                            }
                        ],
                        "signature": "transfer(address,uint256)"
                    },
                    "errorInfo": "",
                    "fromAddress": "0x0aef7b88bf3bb98c1bb9c77d8780249f877e4aec",
                    "gasUsed": 36372,
                    "id": 0,
                    "methodDecoded": true,
                    "operation": "CALL",
                    "output": "0x0000000000000000000000000000000000000000000000000000000000000001",
                    "revert": false,
                    "revertMessage": "",
                    "selector": "0xa9059cbb",
                    "status": true,
                    "value": "0"
                },
                "nodeType": 0
            },
            "1": {
                "event": {
                    "contract": "0xd9e24d0f97ab29d23734d5122f87e333a371321b",
                    "decodedLog": {
                        "name": "Transfer",
                        "params": [
                            {
                                "name": "from",
                                "type": "address",
                                "value": "0x0aef7b88bf3bb98c1bb9c77d8780249f877e4aec"
                            },
                            {
                                "name": "to",
                                "type": "address",
                                "value": "0x1037832a2a8ef43e3b3fd66479dee8c97c59890a"
                            },
                            {
                                "decimalAvailable": true,
                                "name": "value",
                                "type": "uint256",
                                "value": "18,721,000,000,000,000,000"
                            }
                        ],
                        "signature": "Transfer(address,address,uint256)"
                    },
                    "id": 1,
                    "logData": "0x00000000000000000000000000000000000000000000000103ce5a4fd8168000",
                    "logDecoded": true,
                    "operation": "EVENT",
                    "revert": false,
                    "status": true,
                    "topics": [
                        "0xddf252ad1be2c89b69c2b068fc378daa952ba7f163c4a11628f55a4df523b3ef",
                        "0x0000000000000000000000000aef7b88bf3bb98c1bb9c77d8780249f877e4aec",
                        "0x0000000000000000000000001037832a2a8ef43e3b3fd66479dee8c97c59890a"
                    ]
                },
                "nodeType": 1
            }
        },
        "gasFlame": [
            {
                "children": [
                    {
                        "children": [
                            {
                                "children": [],
                                "depth": 0,
                                "name": "Initial Gas",
                                "value": 23320
                            },
                            {
                                "children": [],
                                "depth": 0,
                                "name": "Executed Gas",
                                "value": 13052
                            }
                        ],
                        "depth": -1,
                        "name": "Actual Gas Used",
                        "value": 36372
                    },
                    {
                        "children": [],
                        "depth": -1,
                        "name": "Refunded Gas",
                        "value": 0
                    }
                ],
                "depth": -2,
                "name": "Total Gas",
                "value": 36372
            }
        ],
        "isConfirmed": true,
        "mainTrace": [
            {
                "children": [
                    {
                        "children": [
                            {
                                "children": [],
                                "depth": 1,
                                "id": 1,
                                "order": 1
                            }
                        ],
                        "depth": 0,
                        "id": 0,
                        "order": 0
                    }
                ],
                "depth": -1,
                "id": -1,
                "order": -1
            }
        ],
        "mainTraceNodeCount": 2,
        "parentIdMap": {
            "0": -1,
            "1": 0
        },
        "tidyTrace": [
            {
                "children": [
                    {
                        "children": [
                            {
                                "children": [],
                                "depth": 1,
                                "id": 1,
                                "order": 1
                            }
                        ],
                        "depth": 0,
                        "id": 0,
                        "order": 0
                    }
                ],
                "depth": -1,
                "id": -1,
                "order": -1
            }
        ],
        "tidyTraceNodeCount": 2
    },
    "state_change": {
        "stateChanges": [
            {
                "address": "0xd9e24d0f97ab29d23734d5122f87e333a371321b",
                "erc": "ERC-20",
                "slots": [
                    {
                        "current": "0x0000000000000000000000000000000000000000000044ac8e17d2eb57d14000",
                        "key": "0xb127fe7b50da956662e70e5d8127777c002103dcdc554bdc0ed3401e32796d68",
                        "prev": "0x0000000000000000000000000000000000000000000044ad91e62d3b2fe7c000"
                    },
                    {
                        "current": "0x000000000000000000000000000000000000000000000003392fe8764d808000",
                        "key": "0x195c2ef5e7e87e9579b18f7644541f64b3424dd13aae2bf4f08b11e37a4ce377",
                        "prev": "0x00000000000000000000000000000000000000000000000235618e26756a0000"
                    }
                ],
                "storageVariables": [
                    {
                        "name": "balanceOf",
                        "type": "mapping(address => uint256)",
                        "value": {
                            "pairs": [
                                {
                                    "key": "0x0aef7b88bf3bb98c1bb9c77d8780249f877e4aec",
                                    "value": {
                                        "current": "324303999700000000000000",
                                        "prev": "324322720700000000000000",
                                        "typeTag": 1
                                    }
                                },
                                {
                                    "key": "0x1037832a2a8ef43e3b3fd66479dee8c97c59890a",
                                    "value": {
                                        "current": "59461000000000000000",
                                        "prev": "40740000000000000000",
                                        "typeTag": 1
                                    }
                                }
                            ],
                            "typeTag": 4
                        }
                    }
                ]
            }
        ]
    }
}