{
    "balance_change": {
        "balanceChanges": [
            {
                "account": "0x0ba005d3fb0b59fe653a499cdc2863a22170db13",
                "assets": [
                    {
                        "address": "0xa393473d64d2f9f026b60b6df7859a689715d092",
                        "amount": "0.15404748",
                        "iconUrl": "",
                        "isERC1155": false,
                        "isERC721": false,
                        "sign": true,
                        "value": "0.0236629"
                    }
                ]
            },
            {
                "account": "0x4fe4d2c4831bc05eaf0aa6902bec193942db3ad4",
                "assets": [
                    {
                        "address": "0xa393473d64d2f9f026b60b6df7859a689715d092",
                        "amount": "0.15404748",
                        "iconUrl": "",
                        "isERC1155": false,
                        "isERC721": false,
                        "sign": false,
                        "value": "0.0236629"
                    }
                ]
            }
        ]
    },
    "profile": {
        "basic_info": {
            "baseFee": "72.805558918",
            "blockNumber": 19334968,
            "callData": "0xae0b51df00000000000000000000000000000000000000000000000000000000000000060000000000000000000000000000000000000000000000000000000000eb0ecc0000000000000000000000000000000000000000000000000000000000000060000000000000000000000000000000000000000000000000000000000000000a2e561b4f58a5f20f1f69439018c8149d50c6ca5265c05896f2e281815293a256a63aad1309fc88de8cc59f43ffab4e84fcb82a7069cc8926d3d17494f115c090c6f6c4f90249d17e9bcfe1cc000d9c16439aac01cdd75390027d2f0a0cb6869e0dd9a753588122bfff68a91c6473c5f49f4d41761e6f9cdecf69c1f698968471297a2552be0862cc8f53c186c8e07d83a4e166b8d3ad2ebe3147f0ebff2f7ec8e2cef628c1b0d1c1315a0f96a81a5447756dbc5ce352f75d36b6b9a6c901c594437391f5ea016eee4e94fcb6b1e8dcb6666cad3d3236daaf32a18855fb7e2e4c4a07d6d342fffe370a52278e234037d30f765c0b4a41bac7bd8732567b57db4dad741491fb23a049a47d021b691ce333fff991abbe1db2a7ebc97bc9c7d7e17b9617b656ce0e78d3cfd52b48c44509f79e7b815307f01f68afdc3ec3acb90daf",
            "debugEnable": true,
            "errorInfo": "",
            "eventCount": 2,
            "feeRecipient": "0x95222290dd7278aa3ddd389cc1e1d165cc4bafe5",
            "formatValue": "0",
            "gasLimit": 133852,
            "gasPrice": "75",
            "gasUsed": 128438,
            "intTxnCount": 4,
            "internalRevert": false,
            "internalRevertMessage": "",
            "isContractCreation": false,
            "isFlashloan": false,
            "maxFee": "75",
            "nonce": 3,
            "overwritedBlockNumber": -1,
            "priorityFee": "75",
            "receiver": "0x4fe4d2c4831bc05eaf0aa6902bec193942db3ad4",
            "revertMessage": "",
            "sender": "0x0ba005d3fb0b59fe653a499cdc2863a22170db13",
            "simulationEnable": true,
            "sourceTxnHash": "0x22863b3412007c9d6d9e16509d57aa34306c07503d89a6a7ce2daea271751f87",
            "status": true,
            "timestamp": "2024-02-29T18:30:59Z",
            "transactionFee": "0.00963285",
            "txnHash": "0x22863b3412007c9d6d9e16509d57aa34306c07503d89a6a7ce2daea271751f87",
            "txnIndex": 131,
            "type": 2,
            "value": "0"
        },
        "fund_flow": [
            {
                "amount": "0.15404748",
                "from": "0x4fe4d2c4831bc05eaf0aa6902bec193942db3ad4",
                "id": 1,
                "isERC1155": false,
                "isERC721": false,
                "isReverted": false,
                "order": 1,
                "to": "0x0ba005d3fb0b59fe653a499cdc2863a22170db13",
                "token": "0xa393473d64d2f9f026b60b6df7859a689715d092"
            }
        ],
        "token_infos": [
            {
                "address": "0xc02aaa39b223fe8d0a0e5c4f27ead9083c756cc2",
                "decimals": 18
            },
            {
                "address": "0xeeeeeeeeeeeeeeeeeeeeeeeeeeeeeeeeeeeeeeee",
                "decimals": 18
            },
            {
                "address": "0xa393473d64d2f9f026b60b6df7859a689715d092",
                "decimals": 8
            }
        ]
    },
    "address_label": {
        "labels": [
            {
                "address": "0xeeeeeeeeeeeeeeeeeeeeeeeeeeeeeeeeeeeeeeee",
                "label": "Ether"
            },
            {
                "address": "0x0000000000000000000000000000000000000002",
                "label": "Precompiled"
            },
            {
                "address": "0x4fe4d2c4831bc05eaf0aa6902bec193942db3ad4",
                "label": "LatticeAirdropsDistributor"
            },
            {
                "address": "0xa393473d64d2f9f026b60b6df7859a689715d092",
                "label": "Lattice: LTX Token"
            },
            {
                "address": "0x0000000000000000000000000000000000000001",
                "label": "Precompiled"
            },
            {
                "address": "0x0000000000000000000000000000000000000003",
                "label": "Precompiled"
            },
            {
                "address": "0x0000000000000000000000000000000000000004",
                "label": "Precompiled"
            }
        ]
    },
    "trace": {
        "accountLabels": null,
        "dataMap": {
            "-1": {
                "invocation": {
                    "address": "0x0ba005d3fb0b59fe653a499cdc2863a22170db13",
                    "callData": "",
                    "decodedMethod": null,
                    "errorInfo": "",
                    "fromAddress": "",
                    "gasUsed": 0,
                    "id": -1,
                    "methodDecoded": false,
                    "operation": "",
                    "output": "",
                    "revert": false,
                    "revertMessage": "",
                    "selector": "",
                    "status": false,
                    "value": ""
                },
                "nodeType": 0
            },
            "0": {
                "invocation": {
                    "address": "0x4fe4d2c4831bc05eaf0aa6902bec193942db3ad4",
                    "callData": "0x00000000000000000000000000000000000000000000000000000000000000060000000000000000000000000000000000000000000000000000000000eb0ecc0000000000000000000000000000000000000000000000000000000000000060000000000000000000000000000000000000000000000000000000000000000a2e561b4f58a5f20f1f69439018c8149d50c6ca5265c05896f2e281815293a256a63aad1309fc88de8cc59f43ffab4e84fcb82a7069cc8926d3d17494f115c090c6f6c4f90249d17e9bcfe1cc000d9c16439aac01cdd75390027d2f0a0cb6869e0dd9a753588122bfff68a91c6473c5f49f4d41761e6f9cdecf69c1f698968471297a2552be0862cc8f53c186c8e07d83a4e166b8d3ad2ebe3147f0ebff2f7ec8e2cef628c1b0d1c1315a0f96a81a5447756dbc5ce352f75d36b6b9a6c901c594437391f5ea016eee4e94fcb6b1e8dcb6666cad3d3236daaf32a18855fb7e2e4c4a07d6d342fffe370a52278e234037d30f765c0b4a41bac7bd8732567b57db4dad741491fb23a049a47d021b691ce333fff991abbe1db2a7ebc97bc9c7d7e17b9617b656ce0e78d3cfd52b48c44509f79e7b815307f01f68afdc3ec3acb90daf",
                    "decodedMethod": {
                        "callParams": [
                            {
                                "name": "airdropId",
                                "type": "uint256",
                                "value": "6"
                            },
                            {
                                "name": "totalAmount",
                                "type": "uint256",
                                "value": "15,404,748"
                            },
                            {
                                "name": "merkleProof",
                                "type": "bytes32[]",
                                "value": [
                                    "0x2e561b4f58a5f20f1f69439018c8149d50c6ca5265c05896f2e281815293a256",
                                    "0xa63aad1309fc88de8cc59f43ffab4e84fcb82a7069cc8926d3d17494f115c090",
                                    "0xc6f6c4f90249d17e9bcfe1cc000d9c16439aac01cdd75390027d2f0a0cb6869e",
                                    "0x0dd9a753588122bfff68a91c6473c5f49f4d41761e6f9cdecf69c1f698968471",
                                    "0x297a2552be0862cc8f53c186c8e07d83a4e166b8d3ad2ebe3147f0ebff2f7ec8",
                                    "0xe2cef628c1b0d1c1315a0f96a81a5447756dbc5ce352f75d36b6b9a6c901c594",
                                    "0x437391f5ea016eee4e94fcb6b1e8dcb6666cad3d3236daaf32a18855fb7e2e4c",
                                    "0x4a07d6d342fffe370a52278e234037d30f765c0b4a41bac7bd8732567b57db4d",
                                    "0xad741491fb23a049a47d021b691ce333fff991abbe1db2a7ebc97bc9c7d7e17b",
                                    "0x9617b656ce0e78d3cfd52b48c44509f79e7b815307f01f68afdc3ec3acb90daf"
                                ]
                            }
                        ],
                        "constructorArguments": "",
                        "name": "claim",
                        "returnParams": [],
                        "signature": "claim(uint256,uint256,bytes32[])"
                    },
                    "errorInfo": "",
                    "fromAddress": "0x0ba005d3fb0b59fe653a499cdc2863a22170db13",
                    "gasUsed": 128438,
                    "id": 0,
                    "methodDecoded": true,
                    "operation": "CALL",
                    "output": "",
                    "revert": false,
                    "revertMessage": "",
                    "selector": "0xae0b51df",
                    "status": true,
                    "value": "0"
                },
                "nodeType": 0
            },
            "1": {
                "invocation": {
                    "address": "0x4fe4d2c4831bc05eaf0aa6902bec193942db3ad4",
                    "callData": "0x00000000000000000000000000000000000000000000000000000000000000060000000000000000000000000ba005d3fb0b59fe653a499cdc2863a22170db130000000000000000000000000000000000000000000000000000000000eb0eccd2ffab26d8d3580631c1df7b2e929f7f13c720a153fdb27ff4fd422a58c6ed2000000000000000000000000000000000000000000000000000000000000000a0000000000000000000000000000000000000000000000000000000000000000a2e561b4f58a5f20f1f69439018c8149d50c6ca5265c05896f2e281815293a256a63aad1309fc88de8cc59f43ffab4e84fcb82a7069cc8926d3d17494f115c090c6f6c4f90249d17e9bcfe1cc000d9c16439aac01cdd75390027d2f0a0cb6869e0dd9a753588122bfff68a91c6473c5f49f4d41761e6f9cdecf69c1f698968471297a2552be0862cc8f53c186c8e07d83a4e166b8d3ad2ebe3147f0ebff2f7ec8e2cef628c1b0d1c1315a0f96a81a5447756dbc5ce352f75d36b6b9a6c901c594437391f5ea016eee4e94fcb6b1e8dcb6666cad3d3236daaf32a18855fb7e2e4c4a07d6d342fffe370a52278e234037d30f765c0b4a41bac7bd8732567b57db4dad741491fb23a049a47d021b691ce333fff991abbe1db2a7ebc97bc9c7d7e17b9617b656ce0e78d3cfd52b48c44509f79e7b815307f01f68afdc3ec3acb90daf",
                    "decodedMethod": {
                        "callParams": [
                            {
                                "name": "airdropId",
                                "type": "uint256",
                                "value": "6"
                            },
                            {
                                "name": "claimingUser",
                                "type": "address",
                                "value": "0x0ba005d3fb0b59fe653a499cdc2863a22170db13"
                            },
                            {
                                "name": "totalAmount",
                                "type": "uint256",
                                "value": "15,404,748"
                            },
                            {
                                "name": "merkleRoot",
                                "type": "bytes32",
                                "value": "0xd2ffab26d8d3580631c1df7b2e929f7f13c720a153fdb27ff4fd422a58c6ed20"
                            },
                            {
                                "name": "merkleProof",
                                "type": "bytes32[]",
                                "value": [
                                    "0x2e561b4f58a5f20f1f69439018c8149d50c6ca5265c05896f2e281815293a256",
                                    "0xa63aad1309fc88de8cc59f43ffab4e84fcb82a7069cc8926d3d17494f115c090",
                                    "0xc6f6c4f90249d17e9bcfe1cc000d9c16439aac01cdd75390027d2f0a0cb6869e",
                                    "0x0dd9a753588122bfff68a91c6473c5f49f4d41761e6f9cdecf69c1f698968471",
                                    "0x297a2552be0862cc8f53c186c8e07d83a4e166b8d3ad2ebe3147f0ebff2f7ec8",
                                    "0xe2cef628c1b0d1c1315a0f96a81a5447756dbc5ce352f75d36b6b9a6c901c594",
                                    "0x437391f5ea016eee4e94fcb6b1e8dcb6666cad3d3236daaf32a18855fb7e2e4c",
                                    "0x4a07d6d342fffe370a52278e234037d30f765c0b4a41bac7bd8732567b57db4d",
                                    "0xad741491fb23a049a47d021b691ce333fff991abbe1db2a7ebc97bc9c7d7e17b",
                                    "0x9617b656ce0e78d3cfd52b48c44509f79e7b815307f01f68afdc3ec3acb90daf"
                                ]
                            }
                        ],
                        "constructorArguments": "",
                        "name": "verifyClaim",
                        "returnParams": [
                            {
                                "name": "",
                                "type": "bool",
                                "value": true
                            }
                        ],
                        "signature": "verifyClaim(uint256,address,uint256,bytes32,bytes32[])"
                    },
                    "errorInfo": "",
                    "fromAddress": "0x4fe4d2c4831bc05eaf0aa6902bec193942db3ad4",
                    "gasUsed": 13365,
                    "id": 1,
                    "methodDecoded": true,
                    "operation": "STATICCALL",
                    "output": "0x0000000000000000000000000000000000000000000000000000000000000001",
                    "revert": false,
                    "revertMessage": "",
                    "selector": "0x43356f40",
                    "status": true,
                    "value": "0"
                },
                "nodeType": 0
            },
            "2": {
                "invocation": {
                    "address": "0x0000000000000000000000000000000000000002",
                    "callData": "0x000000000000000000000000000000000000000000000000000000060ba005d3fb0b59fe653a499cdc2863a22170db130000000000000000000000000000000000000000000000000000000000eb0ecc",
                    "decodedMethod": {
                        "callParams": [
                            {
                                "name": "data",
                                "type": "bytes",
                                "value": "0x00000000000000000000000000000000000000000000000000000000000000060ba005d3fb0b59fe653a499cdc2863a22170db130000000000000000000000000000000000000000000000000000000000eb0ecc"
                            }
                        ],
                        "constructorArguments": "",
                        "name": "sha256hash",
                        "returnParams": [
                            {
                                "name": "hash",
                                "type": "bytes32",
                                "value": "0x2de48168d10614e4c5001bce12afbcf197f3122023be1511fe3565ba26daa39b"
                            }
                        ],
                        "signature": "sha256hash(bytes)"
                    },
                    "errorInfo": "",
                    "fromAddress": "0x4fe4d2c4831bc05eaf0aa6902bec193942db3ad4",
                    "gasUsed": 96,
                    "id": 2,
                    "methodDecoded": true,
                    "operation": "STATICCALL",
                    "output": "0x2de48168d10614e4c5001bce12afbcf197f3122023be1511fe3565ba26daa39b",
                    "revert": false,
                    "revertMessage": "",
                    "selector": "0x00000000",
                    "status": true,
                    "value": "0"
                },
                "nodeType": 0
            },
            "3": {
                "invocation": {
                    "address": "0x4fe4d2c4831bc05eaf0aa6902bec193942db3ad4",
                    "callData": "0x00000000000000000000000000000000000000000000000000000000000000060000000000000000000000000ba005d3fb0b59fe653a499cdc2863a22170db130000000000000000000000000000000000000000000000000000000000eb0ecc0000000000000000000000000000000000000000000000000000000000000001",
                    "decodedMethod": {
                        "callParams": [
                            {
                                "name": "airdropId",
                                "type": "uint256",
                                "value": "6"
                            },
                            {
                                "name": "claimingUser",
                                "type": "address",
                                "value": "0x0ba005d3fb0b59fe653a499cdc2863a22170db13"
                            },
                            {
                                "name": "totalAmount",
                                "type": "uint256",
                                "value": "15,404,748"
                            },
                            {
                                "name": "discountClaimedAmount",
                                "type": "bool",
                                "value": true
                            }
                        ],
                        "constructorArguments": "",
                        "name": "amountAvailableToClaim",
                        "returnParams": [
                            {
                                "name": "",
                                "type": "uint256",
                                "value": "15,404,748"
                            }
                        ],
                        "signature": "amountAvailableToClaim(uint256,address,uint256,bool)"
                    },
                    "errorInfo": "",
                    "fromAddress": "0x4fe4d2c4831bc05eaf0aa6902bec193942db3ad4",
                    "gasUsed": 5252,
                    "id": 3,
                    "methodDecoded": true,
                    "operation": "STATICCALL",
                    "output": "0x0000000000000000000000000000000000000000000000000000000000eb0ecc",
                    "revert": false,
                    "revertMessage": "",
                    "selector": "0xd713d884",
                    "status": true,
                    "value": "0"
                },
                "nodeType": 0
            },
            "4": {
                "invocation": {
                    "address": "0xa393473d64d2f9f026b60b6df7859a689715d092",
                    "callData": "0x0000000000000000000000000ba005d3fb0b59fe653a499cdc2863a22170db130000000000000000000000000000000000000000000000000000000000eb0ecc",
                    "decodedMethod": {
                        "callParams": [
                            {
                                "name": "recipient",
                                "type": "address",
                                "value": "0x0ba005d3fb0b59fe653a499cdc2863a22170db13"
                            },
                            {
                                "decimalAvailable": true,
                                "name": "amount",
                                "type": "uint256",
                                "value": "15,404,748"
                            }
                        ],
                        "constructorArguments": "",
                        "name": "transfer",
                        "returnParams": [
                            {
                                "name": "",
                                "type": "bool",
                                "value": true
                            }
                        ],
                        "signature": "transfer(address,uint256)"
                    },
                    "errorInfo": "",
                    "fromAddress": "0x4fe4d2c4831bc05eaf0aa6902bec193942db3ad4",
                    "gasUsed": 30409,
                    "id": 4,
                    "methodDecoded": true,
                    "operation": "CALL",
                    "output": "0x0000000000000000000000000000000000000000000000000000000000000001",
                    "revert": false,
                    "revertMessage": "",
                    "selector": "0xa9059cbb",
                    "status": true,
                    "value": "0"
                },
                "nodeType": 0
            },
            "5": {
                "event": {
                    "contract": "0xa393473d64d2f9f026b60b6df7859a689715d092",
                    "decodedLog": {
                        "name": "Transfer",
                        "params": [
                            {
                                "name": "from",
                                "type": "address",
                                "value": "0x4fe4d2c4831bc05eaf0aa6902bec193942db3ad4"
                            },
                            {
                                "name": "to",
                                "type": "address",
                                "value": "0x0ba005d3fb0b59fe653a499cdc2863a22170db13"
                            },
                            {
                                "decimalAvailable": true,
                                "name": "value",
                                "type": "uint256",
                                "value": "15,404,748"
                            }
                        ],
                        "signature": "Transfer(address,address,uint256)"
                    },
                    "id": 5,
                    "logData": "0x0000000000000000000000000000000000000000000000000000000000eb0ecc",
                    "logDecoded": true,
                    "operation": "EVENT",
                    "revert": false,
                    "status": true,
                    "topics": [
                        "0xddf252ad1be2c89b69c2b068fc378daa952ba7f163c4a11628f55a4df523b3ef",
                        "0x0000000000000000000000004fe4d2c4831bc05eaf0aa6902bec193942db3ad4",
                        "0x0000000000000000000000000ba005d3fb0b59fe653a499cdc2863a22170db13"
                    ]
                },
                "nodeType": 1
            },
            "6": {
                "event": {
                    "contract": "0x4fe4d2c4831bc05eaf0aa6902bec193942db3ad4",
                    "decodedLog": {
                        "name": "AirdropClaimed",
                        "params": [
                            {
                                "name": "user",
                                "type": "address",
                                "value": "0x0ba005d3fb0b59fe653a499cdc2863a22170db13"
                            },
                            {
                                "name": "totalAmount",
                                "type": "uint256",
                                "value": "15,404,748"
                            },
                            {
                                "name": "totalAmountClaimed",
                                "type": "uint256",
                                "value": "15,404,748"
                            }
                        ],
                        "signature": "AirdropClaimed(address,uint256,uint256)"
                    },
                    "id": 6,
                    "logData": "0x0000000000000000000000000000000000000000000000000000000000eb0ecc0000000000000000000000000000000000000000000000000000000000eb0ecc",
                    "logDecoded": true,
                    "operation": "EVENT",
                    "revert": false,
                    "status": true,
                    "topics": [
                        "0xd0755a9ef5a74f50d34b3503bb5b65ad71a112c001b76dfa6412c9aa4a1f43b0",
                        "0x0000000000000000000000000ba005d3fb0b59fe653a499cdc2863a22170db13"
                    ]
                },
                "nodeType": 1
            }
        },
        "gasFlame": [
            {
                "children": [
                    {
                        "children": [
                            {
                                "children": [],
                                "depth": 0,
                                "name": "Initial Gas",
                                "value": 26756
                            },
                            {
                                "children": [
                                    {
                                        "children": [
                                            {
                                                "children": [],
                                                "depth": 2,
                                                "name": "sha256hash",
                                                "value": 96
                                            }
                                        ],
                                        "depth": 1,
                                        "name": "verifyClaim",
                                        "value": 13365
                                    },
                                    {
                                        "children": [],
                                        "depth": 1,
                                        "name": "amountAvailableToClaim",
                                        "value": 5252
                                    },
                                    {
                                        "children": [],
                                        "depth": 1,
                                        "name": "transfer",
                                        "value": 30409
                                    }
                                ],
                                "depth": 0,
                                "name": "Executed Gas",
                                "value": 104482
                            }
                        ],
                        "depth": -1,
                        "name": "Actual Gas Used",
                        "value": 128438
                    },
                    {
                        "children": [],
                        "depth": -1,
                        "name": "Refunded Gas",
                        "value": 2800
                    }
                ],
                "depth": -2,
                "name": "Total Gas",
                "value": 131238
            }
        ],
        "isConfirmed": true,
        "mainTrace": [
            {
                "children": [
                    {
                        "children": [
                            {
                                "children": [
                                    {
                                        "children": [],
                                        "depth": 2,
                                        "id": 2,
                                        "order": 2
                                    }
                                ],
                                "depth": 1,
                                "id": 1,
                                "order": 1
                            },
                            {
                                "children": [],
                                "depth": 1,
                                "id": 3,
                                "order": 3
                            },
                            {
                                "children": [
                                    {
                                        "children": [],
                                        "depth": 2,
                                        "id": 5,
                                        "order": 5
                                    }
                                ],
                                "depth": 1,
                                "id": 4,
                                "order": 4
                            },
                            {
                                "children": [],
                                "depth": 1,
                                "id": 6,
                                "order": 6
                            }
                        ],
                        "depth": 0,
                        "id": 0,
                        "order": 0
                    }
                ],
                "depth": -1,
                "id": -1,
                "order": -1
            }
        ],
        "mainTraceNodeCount": 7,
        "parentIdMap": {
            "0": -1,
            "1": 0,
            "2": 1,
            "3": 0,
            "4": 0,
            "5": 4,
            "6": 0
        },
        "tidyTrace": [
            {
                "children": [
                    {
                        "children": [
                            {
                                "children": [
                                    {
                                        "children": [],
                                        "depth": 2,
                                        "id": 5,
                                        "order": 5
                                    }
                                ],
                                "depth": 1,
                                "id": 4,
                                "order": 4
                            },
                            {
                                "children": [],
                                "depth": 1,
                                "id": 6,
                                "order": 6
                            }
                        ],
                        "depth": 0,
                        "id": 0,
                        "order": 0
                    }
                ],
                "depth": -1,
                "id": -1,
                "order": -1
            }
        ],
        "tidyTraceNodeCount": 4
    },
    "state_change": {
        "stateChanges": [
            {
                "address": "0x4fe4d2c4831bc05eaf0aa6902bec193942db3ad4",
                "erc": "",
                "slots": [
                    {
                        "current": "0x00000000000000000000000000000000000000000000000000003939c33ef7b7",
                        "key": "0xc69056f16cbaa3c616b828e333ab7d3a32310765507f8f58359e99ebb7a885f5",
                        "prev": "0x00000000000000000000000000000000000000000000000000003939c253e8eb"
                    },
                    {
                        "current": "0x0000000000000000000000000000000000000000000000000000000000eb0ecc",
                        "key": "0xab2e8939dab7aea0744ab28a7e56da5097b7e7e1dba444652540758bde09b471",
                        "prev": "0x0000000000000000000000000000000000000000000000000000000000000000"
                    }
                ],
                "storageVariables": [
                    {
                        "name": "_airdrops",
                        "type": "mapping(uint256 => struct LatticeAirdropsDistributor.Airdrop)",
                        "value": {
                            "pairs": [
                                {
                                    "key": "6",
                                    "value": {
                                        "fields": [
                                            {
                                                "name": "amountClaimed",
                                                "type": "uint256",
                                                "value": {
                                                    "current": "62920251602871",
                                                    "prev": "62920236198123",
                                                    "typeTag": 1
                                                }
                                            }
                                        ],
                                        "typeTag": 3
                                    }
                                }
                            ],
                            "typeTag": 4
                        }
                    },
                    {
                        "name": "_claimedAmounts",
                        "type": "mapping(uint256 => mapping(address => uint256))",
                        "value": {
                            "pairs": [
                                {
                                    "key": "6",
                                    "value": {
                                        "pairs": [
                                            {
                                                "key": "0x0ba005d3fb0b59fe653a499cdc2863a22170db13",
                                                "value": {
                                                    "current": "15404748",
                                                    "prev": "0",
                                                    "typeTag": 1
                                                }
                                            }
                                        ],
                                        "typeTag": 4
                                    }
                                }
                            ],
                            "typeTag": 4
                        }
                    }
                ]
            },
            {
                "address": "0xa393473d64d2f9f026b60b6df7859a689715d092",
                "erc": "ERC-20",
                "slots": [
                    {
                        "current": "0x000000000000000000000000000000000000000000000000000019bba4e80695",
                        "key": "0x065cb44cc8474566db5746aa5243d11efc66e7cfc1dacb8555db1d807e91b44c",
                        "prev": "0x000000000000000000000000000000000000000000000000000019bba5d31561"
                    },
                    {
                        "current": "0x0000000000000000000000000000000000000000000000000000000000eb0ecc",
                        "key": "0xc4ac5020a5c1dddbc2d282c7264ebd920adace056400675fa39cce92048af0ee",
                        "prev": "0x0000000000000000000000000000000000000000000000000000000000000000"
                    }
                ],
                "storageVariables": [
                    {
                        "name": "_balances",
                        "type": "mapping(address => uint256)",
                        "value": {
                            "pairs": [
                                {
                                    "key": "0x0ba005d3fb0b59fe653a499cdc2863a22170db13",
                                    "value": {
                                        "current": "15404748",
                                        "prev": "0",
                                        "typeTag": 1
                                    }
                                },
                                {
                                    "key": "0x4fe4d2c4831bc05eaf0aa6902bec193942db3ad4",
                                    "value": {
                                        "current": "28293716248213",
                                        "prev": "28293731652961",
                                        "typeTag": 1
                                    }
                                }
                            ],
                            "typeTag": 4
                        }
                    }
                ]
            }
        ]
    }
}