{
    "balance_change": {
        "balanceChanges": [
            {
                "account": "0xcf77d03c82d81384609ce6218bfafee0fd3a772a",
                "assets": [
                    {
                        "address": "0x138c2f1123cf3f82e4596d097c118eac6684940b",
                        "amount": "61,269.57413",
                        "iconUrl": "",
                        "isERC1155": false,
                        "isERC721": false,
                        "sign": false,
                        "value": "1099.794752"
                    }
                ]
            },
            {
                "account": "0x2f14ba6619fb955ddc43f1f98afe3114085576e1",
                "assets": [
                    {
                        "address": "0x138c2f1123cf3f82e4596d097c118eac6684940b",
                        "amount": "61,269.57413",
                        "iconUrl": "",
                        "isERC1155": false,
                        "isERC721": false,
                        "sign": true,
                        "value": "1099.794752"
                    }
                ]
            }
        ]
    },
    "profile": {
        "basic_info": {
            "baseFee": "11.102930868",
            "blockNumber": 15509408,
            "callData": "0xa9059cbb0000000000000000000000002f14ba6619fb955ddc43f1f98afe3114085576e1000000000000000000000000000000000000000000000cf96e261b1e61192000",
            "debugEnable": true,
            "errorInfo": "",
            "eventCount": 1,
            "feeRecipient": "0x1ad91ee08f21be3de0ba2ba6918e714da6b45836",
            "formatValue": "0",
            "gasLimit": 165304,
            "gasPrice": "12.602930868",
            "gasUsed": 102809,
            "intTxnCount": 0,
            "internalRevert": false,
            "internalRevertMessage": "",
            "isContractCreation": false,
            "isFlashloan": false,
            "maxFee": "16.368330288",
            "nonce": 381,
            "overwritedBlockNumber": -1,
            "priorityFee": "1.5",
            "receiver": "0x138c2f1123cf3f82e4596d097c118eac6684940b",
            "revertMessage": "",
            "sender": "0xcf77d03c82d81384609ce6218bfafee0fd3a772a",
            "simulationEnable": true,
            "sourceTxnHash": "0x221690c5c8a1285ea70a26b0e835b5304b1dc79718facf794e0c90f84142b044",
            "status": true,
            "timestamp": "2022-09-10T14:59:45Z",
            "transactionFee": "0.001295694719608212",
            "txnHash": "0x221690c5c8a1285ea70a26b0e835b5304b1dc79718facf794e0c90f84142b044",
            "txnIndex": 112,
            "type": 2,
            "value": "0"
        },
        "fund_flow": [
            {
                "amount": "61,269.57413",
                "from": "0xcf77d03c82d81384609ce6218bfafee0fd3a772a",
                "id": 1,
                "isERC1155": false,
                "isERC721": false,
                "isReverted": false,
                "order": 1,
                "to": "0x2f14ba6619fb955ddc43f1f98afe3114085576e1",
                "token": "0x138c2f1123cf3f82e4596d097c118eac6684940b"
            }
        ],
        "token_infos": [
            {
                "address": "0x138c2f1123cf3f82e4596d097c118eac6684940b",
                "decimals": 18
            },
            {
                "address": "0xc02aaa39b223fe8d0a0e5c4f27ead9083c756cc2",
                "decimals": 18
            },
            {
                "address": "0xeeeeeeeeeeeeeeeeeeeeeeeeeeeeeeeeeeeeeeee",
                "decimals": 18
            }
        ]
    },
    "address_label": {
        "labels": [
            {
                "address": "0xeeeeeeeeeeeeeeeeeeeeeeeeeeeeeeeeeeeeeeee",
                "label": "Ether"
            },
            {
                "address": "0x138c2f1123cf3f82e4596d097c118eac6684940b",
                "label": "Alpha Coin: ALPHA Token"
            },
            {
                "address": "0x0000000000000000000000000000000000000001",
                "label": "Precompiled"
            },
            {
                "address": "0x0000000000000000000000000000000000000002",
                "label": "Precompiled"
            },
            {
                "address": "0x0000000000000000000000000000000000000003",
                "label": "Precompiled"
            },
            {
                "address": "0x0000000000000000000000000000000000000004",
                "label": "Precompiled"
            }
        ]
    },
    "trace": {
        "accountLabels": null,
        "dataMap": {
            "-1": {
                "invocation": {
                    "address": "0xcf77d03c82d81384609ce6218bfafee0fd3a772a",
                    "callData": "",
                    "decodedMethod": null,
                    "errorInfo": "",
                    "fromAddress": "",
                    "gasUsed": 0,
                    "id": -1,
                    "methodDecoded": false,
                    "operation": "",
                    "output": "",
                    "revert": false,
                    "revertMessage": "",
                    "selector": "",
                    "status": false,
                    "value": ""
                },
                "nodeType": 0
            },
            "0": {
                "invocation": {
                    "address": "0x138c2f1123cf3f82e4596d097c118eac6684940b",
                    "callData": "0x0000000000000000000000002f14ba6619fb955ddc43f1f98afe3114085576e1000000000000000000000000000000000000000000000cf96e261b1e61192000",
                    "decodedMethod": {
                        "callParams": [
                            {
                                "name": "recipient",
                                "type": "address",
                                "value": "0x2f14ba6619fb955ddc43f1f98afe3114085576e1"
                            },
                            {
                                "decimalAvailable": true,
                                "name": "amount",
                                "type": "uint256",
                                "value": "61,269,574,130,000,000,000,000"
                            }
                        ],
                        "constructorArguments": "",
                        "name": "transfer",
                        "returnParams": [
                            {
                                "name": "",
                                "type": "bool",
                                "value": true
                            }
                        ],
                        "signature": "transfer(address,uint256)"
                    },
                    "errorInfo": "",
                    "fromAddress": "0xcf77d03c82d81384609ce6218bfafee0fd3a772a",
                    "gasUsed": 102809,
                    "id": 0,
                    "methodDecoded": true,
                    "operation": "CALL",
                    "output": "0x0000000000000000000000000000000000000000000000000000000000000001",
                    "revert": false,
                    "revertMessage": "",
                    "selector": "0xa9059cbb",
                    "status": true,
                    "value": "0"
                },
                "nodeType": 0
            },
            "1": {
                "event": {
                    "contract": "0x138c2f1123cf3f82e4596d097c118eac6684940b",
                    "decodedLog": {
                        "name": "Transfer",
                        "params": [
                            {
                                "name": "from",
                                "type": "address",
                                "value": "0xcf77d03c82d81384609ce6218bfafee0fd3a772a"
                            },
                            {
                                "name": "to",
                                "type": "address",
                                "value": "0x2f14ba6619fb955ddc43f1f98afe3114085576e1"
                            },
                            {
                                "decimalAvailable": true,
                                "name": "value",
                                "type": "uint256",
                                "value": "61,269,574,130,000,000,000,000"
                            }
                        ],
                        "signature": "Transfer(address,address,uint256)"
                    },
                    "id": 1,
                    "logData": "0x000000000000000000000000000000000000000000000cf96e261b1e61192000",
                    "logDecoded": true,
                    "operation": "EVENT",
                    "revert": false,
                    "status": true,
                    "topics": [
                        "0xddf252ad1be2c89b69c2b068fc378daa952ba7f163c4a11628f55a4df523b3ef",
                        "0x000000000000000000000000cf77d03c82d81384609ce6218bfafee0fd3a772a",
                        "0x0000000000000000000000002f14ba6619fb955ddc43f1f98afe3114085576e1"
                    ]
                },
                "nodeType": 1
            }
        },
        "gasFlame": [
            {
                "children": [
                    {
                        "children": [
                            {
                                "children": [],
                                "depth": 0,
                                "name": "Initial Gas",
                                "value": 21668
                            },
                            {
                                "children": [],
                                "depth": 0,
                                "name": "Executed Gas",
                                "value": 86741
                            }
                        ],
                        "depth": -1,
                        "name": "Actual Gas Used",
                        "value": 102809
                    },
                    {
                        "children": [],
                        "depth": -1,
                        "name": "Refunded Gas",
                        "value": 5600
                    }
                ],
                "depth": -2,
                "name": "Total Gas",
                "value": 108409
            }
        ],
        "isConfirmed": true,
        "mainTrace": [
            {
                "children": [
                    {
                        "children": [
                            {
                                "children": [],
                                "depth": 1,
                                "id": 1,
                                "order": 1
                            }
                        ],
                        "depth": 0,
                        "id": 0,
                        "order": 0
                    }
                ],
                "depth": -1,
                "id": -1,
                "order": -1
            }
        ],
        "mainTraceNodeCount": 2,
        "parentIdMap": {
            "0": -1,
            "1": 0
        },
        "tidyTrace": [
            {
                "children": [
                    {
                        "children": [
                            {
                                "children": [],
                                "depth": 1,
                                "id": 1,
                                "order": 1
                            }
                        ],
                        "depth": 0,
                        "id": 0,
                        "order": 0
                    }
                ],
                "depth": -1,
                "id": -1,
                "order": -1
            }
        ],
        "tidyTraceNodeCount": 2
    },
    "state_change": {
        "stateChanges": [
            {
                "address": "0x138c2f1123cf3f82e4596d097c118eac6684940b",
                "erc": "ERC-20",
                "slots": [
                    {
                        "current": "0x00330debecd9a801021bf275198f2ac213d0bf694c0dfaf149af2a6553c29476",
                        "key": "0x7a6ecd4c2cb1c74ac804ae30d4a912c3d4b2ac4482e610529a5f4865a69c9c5b",
                        "prev": "0x003370b4858ebe87ee7603b642e7bee5e8735413dd068cf087803363e06cb476"
                    },
                    {
                        "current": "0x0001bb8a77bd4cb7f46e5978075e295cc5d57e38beade14d2b42a8115363b37d",
                        "key": "0xcec7503945d660c570bc0102c06fef5d6b828589c797f695c8cdd6c682a3691c",
                        "prev": "0x000158c1df08363108144836de059538f132e98e2db54f4ded719f12c6b9937d"
                    }
                ],
                "storageVariables": [
                    {
                        "name": "_rOwned",
                        "type": "mapping(address => uint256)",
                        "value": {
                            "pairs": [
                                {
                                    "key": "0x2f14ba6619fb955ddc43f1f98afe3114085576e1",
                                    "value": {
                                        "current": "3061206714304367432270695122106614835302551495455591566848349940922692477",
                                        "prev": "2379427501021847649730059136506185244724434349901683035167579940922692477",
                                        "typeTag": 1
                                    }
                                },
                                {
                                    "key": "0xcf77d03c82d81384609ce6218bfafee0fd3a772a",
                                    "value": {
                                        "current": "90205283536912086472761962985141943538843074313395111743155343724655055990",
                                        "prev": "90887062750194606255302598970742373129421191458949020274836113724655055990",
                                        "typeTag": 1
                                    }
                                }
                            ],
                            "typeTag": 4
                        }
                    }
                ]
            }
        ]
    }
}