{
    "balance_change": {
        "balanceChanges": [
            {
                "account": "0x9455bf5a3f314f2bf79542779a9232e8fafd9905",
                "assets": [
                    {
                        "address": "0xf629cbd94d3791c9250152bd8dfbdf380e2a3b9c",
                        "amount": "165.03562644",
                        "iconUrl": "https://assets.blocksec.com/icon/4e91198d1517bc4aa7bfb253e3110967513d2a17a9e3cad8d288a4806c405653.png",
                        "isERC1155": false,
                        "isERC721": false,
                        "sign": false,
                        "value": "69.658720999616824524"
                    }
                ]
            },
            {
                "account": "0x09363887a4096b142f3f6b58a7eed2f1a0ff7343",
                "assets": [
                    {
                        "address": "0xf629cbd94d3791c9250152bd8dfbdf380e2a3b9c",
                        "amount": "165.03562644",
                        "iconUrl": "https://assets.blocksec.com/icon/4e91198d1517bc4aa7bfb253e3110967513d2a17a9e3cad8d288a4806c405653.png",
                        "isERC1155": false,
                        "isERC721": false,
                        "sign": true,
                        "value": "69.658720999616824524"
                    }
                ]
            }
        ]
    },
    "profile": {
        "basic_info": {
            "baseFee": "12.399594843",
            "blockNumber": 16860485,
            "callData": "0xa9059cbb00000000000000000000000009363887a4096b142f3f6b58a7eed2f1a0ff7343000000000000000000000000000000000000000000000008f25453d9d843d000",
            "debugEnable": true,
            "errorInfo": "",
            "eventCount": 1,
            "feeRecipient": "0x1f9090aae28b8a3dceadf281b0f12828e676c326",
            "formatValue": "0",
            "gasLimit": 300000,
            "gasPrice": "14.400594843",
            "gasUsed": 30324,
            "intTxnCount": 0,
            "internalRevert": false,
            "internalRevertMessage": "",
            "isContractCreation": false,
            "isFlashloan": false,
            "maxFee": "35",
            "nonce": 1,
            "overwritedBlockNumber": -1,
            "priorityFee": "2.001",
            "receiver": "0xf629cbd94d3791c9250152bd8dfbdf380e2a3b9c",
            "revertMessage": "",
            "sender": "0x9455bf5a3f314f2bf79542779a9232e8fafd9905",
            "simulationEnable": true,
            "sourceTxnHash": "0x22bc409d3a43af050ee8622191ab39e74d0175c285cbb7c38225ea4338b44244",
            "status": true,
            "timestamp": "2023-03-19T08:09:11Z",
            "transactionFee": "0.000436683638019132",
            "txnHash": "0x22bc409d3a43af050ee8622191ab39e74d0175c285cbb7c38225ea4338b44244",
            "txnIndex": 50,
            "type": 2,
            "value": "0"
        },
        "fund_flow": [
            {
                "amount": "165.03562644",
                "from": "0x9455bf5a3f314f2bf79542779a9232e8fafd9905",
                "id": 1,
                "isERC1155": false,
                "isERC721": false,
                "isReverted": false,
                "order": 1,
                "to": "0x09363887a4096b142f3f6b58a7eed2f1a0ff7343",
                "token": "0xf629cbd94d3791c9250152bd8dfbdf380e2a3b9c"
            }
        ],
        "token_infos": [
            {
                "address": "0xc02aaa39b223fe8d0a0e5c4f27ead9083c756cc2",
                "decimals": 18
            },
            {
                "address": "0xf629cbd94d3791c9250152bd8dfbdf380e2a3b9c",
                "decimals": 18
            },
            {
                "address": "0xeeeeeeeeeeeeeeeeeeeeeeeeeeeeeeeeeeeeeeee",
                "decimals": 18
            }
        ]
    },
    "address_label": {
        "labels": [
            {
                "address": "0x0000000000000000000000000000000000000001",
                "label": "Precompiled"
            },
            {
                "address": "0x0000000000000000000000000000000000000002",
                "label": "Precompiled"
            },
            {
                "address": "0x0000000000000000000000000000000000000003",
                "label": "Precompiled"
            },
            {
                "address": "0x0000000000000000000000000000000000000004",
                "label": "Precompiled"
            },
            {
                "address": "0xeeeeeeeeeeeeeeeeeeeeeeeeeeeeeeeeeeeeeeee",
                "label": "Ether"
            },
            {
                "address": "0x09363887a4096b142f3f6b58a7eed2f1a0ff7343",
                "label": "CoinSpot 13"
            },
            {
                "address": "0xf629cbd94d3791c9250152bd8dfbdf380e2a3b9c",
                "label": "Enjin: ENJ Token"
            }
        ]
    },
    "trace": {
        "accountLabels": null,
        "dataMap": {
            "-1": {
                "invocation": {
                    "address": "0x9455bf5a3f314f2bf79542779a9232e8fafd9905",
                    "callData": "",
                    "decodedMethod": null,
                    "errorInfo": "",
                    "fromAddress": "",
                    "gasUsed": 0,
                    "id": -1,
                    "methodDecoded": false,
                    "operation": "",
                    "output": "",
                    "revert": false,
                    "revertMessage": "",
                    "selector": "",
                    "status": false,
                    "value": ""
                },
                "nodeType": 0
            },
            "0": {
                "invocation": {
                    "address": "0xf629cbd94d3791c9250152bd8dfbdf380e2a3b9c",
                    "callData": "0x00000000000000000000000009363887a4096b142f3f6b58a7eed2f1a0ff7343000000000000000000000000000000000000000000000008f25453d9d843d000",
                    "decodedMethod": {
                        "callParams": [
                            {
                                "name": "_to",
                                "type": "address",
                                "value": "0x09363887a4096b142f3f6b58a7eed2f1a0ff7343"
                            },
                            {
                                "decimalAvailable": true,
                                "name": "_value",
                                "type": "uint256",
                                "value": "165,035,626,440,000,000,000"
                            }
                        ],
                        "constructorArguments": "",
                        "name": "transfer",
                        "returnParams": [
                            {
                                "name": "success",
                                "type": "bool",
                                "value": true
                            }
                        ],
                        "signature": "transfer(address,uint256)"
                    },
                    "errorInfo": "",
                    "fromAddress": "0x9455bf5a3f314f2bf79542779a9232e8fafd9905",
                    "gasUsed": 30324,
                    "id": 0,
                    "methodDecoded": true,
                    "operation": "CALL",
                    "output": "0x0000000000000000000000000000000000000000000000000000000000000001",
                    "revert": false,
                    "revertMessage": "",
                    "selector": "0xa9059cbb",
                    "status": true,
                    "value": "0"
                },
                "nodeType": 0
            },
            "1": {
                "event": {
                    "contract": "0xf629cbd94d3791c9250152bd8dfbdf380e2a3b9c",
                    "decodedLog": {
                        "name": "Transfer",
                        "params": [
                            {
                                "name": "_from",
                                "type": "address",
                                "value": "0x9455bf5a3f314f2bf79542779a9232e8fafd9905"
                            },
                            {
                                "name": "_to",
                                "type": "address",
                                "value": "0x09363887a4096b142f3f6b58a7eed2f1a0ff7343"
                            },
                            {
                                "decimalAvailable": true,
                                "name": "_value",
                                "type": "uint256",
                                "value": "165,035,626,440,000,000,000"
                            }
                        ],
                        "signature": "Transfer(address,address,uint256)"
                    },
                    "id": 1,
                    "logData": "0x000000000000000000000000000000000000000000000008f25453d9d843d000",
                    "logDecoded": true,
                    "operation": "EVENT",
                    "revert": false,
                    "status": true,
                    "topics": [
                        "0xddf252ad1be2c89b69c2b068fc378daa952ba7f163c4a11628f55a4df523b3ef",
                        "0x0000000000000000000000009455bf5a3f314f2bf79542779a9232e8fafd9905",
                        "0x00000000000000000000000009363887a4096b142f3f6b58a7eed2f1a0ff7343"
                    ]
                },
                "nodeType": 1
            }
        },
        "gasFlame": [
            {
                "children": [
                    {
                        "children": [
                            {
                                "children": [],
                                "depth": 0,
                                "name": "Initial Gas",
                                "value": 21656
                            },
                            {
                                "children": [],
                                "depth": 0,
                                "name": "Executed Gas",
                                "value": 13468
                            }
                        ],
                        "depth": -1,
                        "name": "Actual Gas Used",
                        "value": 30324
                    },
                    {
                        "children": [],
                        "depth": -1,
                        "name": "Refunded Gas",
                        "value": 4800
                    }
                ],
                "depth": -2,
                "name": "Total Gas",
                "value": 35124
            }
        ],
        "isConfirmed": true,
        "mainTrace": [
            {
                "children": [
                    {
                        "children": [
                            {
                                "children": [],
                                "depth": 1,
                                "id": 1,
                                "order": 1
                            }
                        ],
                        "depth": 0,
                        "id": 0,
                        "order": 0
                    }
                ],
                "depth": -1,
                "id": -1,
                "order": -1
            }
        ],
        "mainTraceNodeCount": 2,
        "parentIdMap": {
            "0": -1,
            "1": 0
        },
        "tidyTrace": [
            {
                "children": [
                    {
                        "children": [
                            {
                                "children": [],
                                "depth": 1,
                                "id": 1,
                                "order": 1
                            }
                        ],
                        "depth": 0,
                        "id": 0,
                        "order": 0
                    }
                ],
                "depth": -1,
                "id": -1,
                "order": -1
            }
        ],
        "tidyTraceNodeCount": 2
    },
    "state_change": {
        "stateChanges": [
            {
                "address": "0xf629cbd94d3791c9250152bd8dfbdf380e2a3b9c",
                "erc": "ERC-20",
                "slots": [
                    {
                        "current": "0x0000000000000000000000000000000000000000000000000000000000000000",
                        "key": "0x66f7da8e7122ff621f43a298f6b9924d7de1855131901b777f9c9263b32e0cf1",
                        "prev": "0x000000000000000000000000000000000000000000000008f25453d9d843d000"
                    },
                    {
                        "current": "0x00000000000000000000000000000000000000000000799df37416d965a36245",
                        "key": "0x9a10f7c9cf6799585b6a6de8d7a2778428fa28847211467a08b3dfcae9161687",
                        "prev": "0x000000000000000000000000000000000000000000007995011fc2ff8d5f9245"
                    }
                ],
                "storageVariables": [
                    {
                        "name": "balanceOf",
                        "type": "mapping(address => uint256)",
                        "value": {
                            "pairs": [
                                {
                                    "key": "0x09363887a4096b142f3f6b58a7eed2f1a0ff7343",
                                    "value": {
                                        "current": "574320025918370954306117",
                                        "prev": "574154990291930954306117",
                                        "typeTag": 1
                                    }
                                },
                                {
                                    "key": "0x9455bf5a3f314f2bf79542779a9232e8fafd9905",
                                    "value": {
                                        "current": "0",
                                        "prev": "165035626440000000000",
                                        "typeTag": 1
                                    }
                                }
                            ],
                            "typeTag": 4
                        }
                    }
                ]
            }
        ]
    }
}