{
    "balance_change": {
        "balanceChanges": [
            {
                "account": "0x077d904661fe4bef5f2e892c6924309c002a244c",
                "assets": [
                    {
                        "address": "0xe6d48bf4ee912235398b96e16db6f310c21e82cb",
                        "amount": "1",
                        "iconUrl": "https://assets.blocksec.com/nft/icon/nft_7df00b26-794c-4a00-9756-4dd94ff86b22.png",
                        "isERC1155": false,
                        "isERC721": true,
                        "sign": false,
                        "tokenID": "4572",
                        "value": ""
                    }
                ]
            },
            {
                "account": "0xcbe7fb7d79a8c74ae4990f6f6cd08938f3e84c8b",
                "assets": [
                    {
                        "address": "0xe6d48bf4ee912235398b96e16db6f310c21e82cb",
                        "amount": "1",
                        "iconUrl": "https://assets.blocksec.com/nft/icon/nft_7df00b26-794c-4a00-9756-4dd94ff86b22.png",
                        "isERC1155": false,
                        "isERC721": true,
                        "sign": true,
                        "tokenID": "4572",
                        "value": ""
                    }
                ]
            }
        ]
    },
    "profile": {
        "basic_info": {
            "baseFee": "12.829732277",
            "blockNumber": 16867460,
            "callData": "0xb88d4fde000000000000000000000000077d904661fe4bef5f2e892c6924309c002a244c000000000000000000000000cbe7fb7d79a8c74ae4990f6f6cd08938f3e84c8b00000000000000000000000000000000000000000000000000000000000011dc000000000000000000000000000000000000000000000000000000000000008000000000000000000000000000000000000000000000000000000000000000043078303000000000000000000000000000000000000000000000000000000000",
            "debugEnable": true,
            "errorInfo": "",
            "eventCount": 2,
            "feeRecipient": "0x690b9a9e9aa1c9db991c7721a92d351db4fac990",
            "formatValue": "0",
            "gasLimit": 63311,
            "gasPrice": "13.169732277",
            "gasUsed": 47959,
            "intTxnCount": 0,
            "internalRevert": false,
            "internalRevertMessage": "",
            "isContractCreation": false,
            "isFlashloan": false,
            "maxFee": "25.73005565",
            "nonce": 5,
            "overwritedBlockNumber": -1,
            "priorityFee": "0.34",
            "receiver": "0xe6d48bf4ee912235398b96e16db6f310c21e82cb",
            "revertMessage": "",
            "sender": "0x077d904661fe4bef5f2e892c6924309c002a244c",
            "simulationEnable": true,
            "sourceTxnHash": "0x22aea5a9f7b11f68d5e98a77f0453d84451af6cfa973e85b28abb22b9b6910b6",
            "status": true,
            "timestamp": "2023-03-20T07:40:59Z",
            "transactionFee": "0.000631607190272643",
            "txnHash": "0x22aea5a9f7b11f68d5e98a77f0453d84451af6cfa973e85b28abb22b9b6910b6",
            "txnIndex": 140,
            "type": 2,
            "value": "0"
        },
        "fund_flow": [
            {
                "amount": "1",
                "from": "0x077d904661fe4bef5f2e892c6924309c002a244c",
                "id": 1,
                "isERC1155": false,
                "isERC721": true,
                "isReverted": false,
                "order": 1,
                "to": "0xcbe7fb7d79a8c74ae4990f6f6cd08938f3e84c8b",
                "token": "0xe6d48bf4ee912235398b96e16db6f310c21e82cb",
                "tokenID": "4572"
            }
        ],
        "token_infos": [
            {
                "address": "0xeeeeeeeeeeeeeeeeeeeeeeeeeeeeeeeeeeeeeeee",
                "decimals": 18
            },
            {
                "address": "0xc02aaa39b223fe8d0a0e5c4f27ead9083c756cc2",
                "decimals": 18
            }
        ]
    },
    "address_label": {
        "labels": [
            {
                "address": "0x0000000000000000000000000000000000000002",
                "label": "Precompiled"
            },
            {
                "address": "0x0000000000000000000000000000000000000003",
                "label": "Precompiled"
            },
            {
                "address": "0x0000000000000000000000000000000000000004",
                "label": "Precompiled"
            },
            {
                "address": "0xeeeeeeeeeeeeeeeeeeeeeeeeeeeeeeeeeeeeeeee",
                "label": "Ether"
            },
            {
                "address": "0xe6d48bf4ee912235398b96e16db6f310c21e82cb",
                "label": "God Hates NFTees: GHN Token"
            },
            {
                "address": "0x0000000000000000000000000000000000000001",
                "label": "Precompiled"
            }
        ]
    },
    "trace": {
        "accountLabels": null,
        "dataMap": {
            "-1": {
                "invocation": {
                    "address": "0x077d904661fe4bef5f2e892c6924309c002a244c",
                    "callData": "",
                    "decodedMethod": null,
                    "errorInfo": "",
                    "fromAddress": "",
                    "gasUsed": 0,
                    "id": -1,
                    "methodDecoded": false,
                    "operation": "",
                    "output": "",
                    "revert": false,
                    "revertMessage": "",
                    "selector": "",
                    "status": false,
                    "value": ""
                },
                "nodeType": 0
            },
            "0": {
                "invocation": {
                    "address": "0xe6d48bf4ee912235398b96e16db6f310c21e82cb",
                    "callData": "0x000000000000000000000000077d904661fe4bef5f2e892c6924309c002a244c000000000000000000000000cbe7fb7d79a8c74ae4990f6f6cd08938f3e84c8b00000000000000000000000000000000000000000000000000000000000011dc000000000000000000000000000000000000000000000000000000000000008000000000000000000000000000000000000000000000000000000000000000043078303000000000000000000000000000000000000000000000000000000000",
                    "decodedMethod": {
                        "callParams": [
                            {
                                "name": "from",
                                "type": "address",
                                "value": "0x077d904661fe4bef5f2e892c6924309c002a244c"
                            },
                            {
                                "name": "to",
                                "type": "address",
                                "value": "0xcbe7fb7d79a8c74ae4990f6f6cd08938f3e84c8b"
                            },
                            {
                                "name": "tokenId",
                                "type": "uint256",
                                "value": "4,572"
                            },
                            {
                                "name": "_data",
                                "type": "bytes",
                                "value": "0x30783030"
                            }
                        ],
                        "constructorArguments": "",
                        "name": "safeTransferFrom",
                        "returnParams": [],
                        "signature": "safeTransferFrom(address,address,uint256,bytes)"
                    },
                    "errorInfo": "",
                    "fromAddress": "0x077d904661fe4bef5f2e892c6924309c002a244c",
                    "gasUsed": 47959,
                    "id": 0,
                    "methodDecoded": true,
                    "operation": "CALL",
                    "output": "",
                    "revert": false,
                    "revertMessage": "",
                    "selector": "0xb88d4fde",
                    "status": true,
                    "value": "0"
                },
                "nodeType": 0
            },
            "1": {
                "event": {
                    "contract": "0xe6d48bf4ee912235398b96e16db6f310c21e82cb",
                    "decodedLog": {
                        "name": "Approval",
                        "params": [
                            {
                                "name": "owner",
                                "type": "address",
                                "value": "0x077d904661fe4bef5f2e892c6924309c002a244c"
                            },
                            {
                                "name": "approved",
                                "type": "address",
                                "value": "0x0000000000000000000000000000000000000000"
                            },
                            {
                                "decimalAvailable": true,
                                "name": "tokenId",
                                "type": "uint256",
                                "value": "4,572"
                            }
                        ],
                        "signature": "Approval(address,address,uint256)"
                    },
                    "id": 1,
                    "logData": "0x",
                    "logDecoded": true,
                    "operation": "EVENT",
                    "revert": false,
                    "status": true,
                    "topics": [
                        "0x8c5be1e5ebec7d5bd14f71427d1e84f3dd0314c0f7b2291e5b200ac8c7c3b925",
                        "0x000000000000000000000000077d904661fe4bef5f2e892c6924309c002a244c",
                        "0x0000000000000000000000000000000000000000000000000000000000000000",
                        "0x00000000000000000000000000000000000000000000000000000000000011dc"
                    ]
                },
                "nodeType": 1
            },
            "2": {
                "event": {
                    "contract": "0xe6d48bf4ee912235398b96e16db6f310c21e82cb",
                    "decodedLog": {
                        "name": "Transfer",
                        "params": [
                            {
                                "name": "from",
                                "type": "address",
                                "value": "0x077d904661fe4bef5f2e892c6924309c002a244c"
                            },
                            {
                                "name": "to",
                                "type": "address",
                                "value": "0xcbe7fb7d79a8c74ae4990f6f6cd08938f3e84c8b"
                            },
                            {
                                "decimalAvailable": true,
                                "name": "tokenId",
                                "type": "uint256",
                                "value": "4,572"
                            }
                        ],
                        "signature": "Transfer(address,address,uint256)"
                    },
                    "id": 2,
                    "logData": "0x",
                    "logDecoded": true,
                    "operation": "EVENT",
                    "revert": false,
                    "status": true,
                    "topics": [
                        "0xddf252ad1be2c89b69c2b068fc378daa952ba7f163c4a11628f55a4df523b3ef",
                        "0x000000000000000000000000077d904661fe4bef5f2e892c6924309c002a244c",
                        "0x000000000000000000000000cbe7fb7d79a8c74ae4990f6f6cd08938f3e84c8b",
                        "0x00000000000000000000000000000000000000000000000000000000000011dc"
                    ]
                },
                "nodeType": 1
            }
        },
        "gasFlame": [
            {
                "children": [
                    {
                        "children": [
                            {
                                "children": [],
                                "depth": 0,
                                "name": "Initial Gas",
                                "value": 22396
                            },
                            {
                                "children": [],
                                "depth": 0,
                                "name": "Executed Gas",
                                "value": 30363
                            }
                        ],
                        "depth": -1,
                        "name": "Actual Gas Used",
                        "value": 47959
                    },
                    {
                        "children": [],
                        "depth": -1,
                        "name": "Refunded Gas",
                        "value": 4800
                    }
                ],
                "depth": -2,
                "name": "Total Gas",
                "value": 52759
            }
        ],
        "isConfirmed": true,
        "mainTrace": [
            {
                "children": [
                    {
                        "children": [
                            {
                                "children": [],
                                "depth": 1,
                                "id": 1,
                                "order": 1
                            },
                            {
                                "children": [],
                                "depth": 1,
                                "id": 2,
                                "order": 2
                            }
                        ],
                        "depth": 0,
                        "id": 0,
                        "order": 0
                    }
                ],
                "depth": -1,
                "id": -1,
                "order": -1
            }
        ],
        "mainTraceNodeCount": 3,
        "parentIdMap": {
            "0": -1,
            "1": 0,
            "2": 0
        },
        "tidyTrace": [
            {
                "children": [
                    {
                        "children": [
                            {
                                "children": [],
                                "depth": 1,
                                "id": 1,
                                "order": 1
                            },
                            {
                                "children": [],
                                "depth": 1,
                                "id": 2,
                                "order": 2
                            }
                        ],
                        "depth": 0,
                        "id": 0,
                        "order": 0
                    }
                ],
                "depth": -1,
                "id": -1,
                "order": -1
            }
        ],
        "tidyTraceNodeCount": 3
    },
    "state_change": {
        "stateChanges": [
            {
                "address": "0xe6d48bf4ee912235398b96e16db6f310c21e82cb",
                "erc": "ERC-721",
                "slots": [
                    {
                        "current": "0x000000000000000064180e0bcbe7fb7d79a8c74ae4990f6f6cd08938f3e84c8b",
                        "key": "0xb2197c6f9b1cfe464f7a1aafbddbe875a9e913226d55d7ea88122206fc2b8e80",
                        "prev": "0x000000000000000063ac35a7077d904661fe4bef5f2e892c6924309c002a244c"
                    },
                    {
                        "current": "0x0000000000000000000000000000000000000000000000000000000000000000",
                        "key": "0xd0c82f74d316d2c723fd3619c6458d110b11c5b63384c0c05d21f77501a7c98f",
                        "prev": "0x0000000000000000000000000000000000000000000000000000000000000001"
                    },
                    {
                        "current": "0x0000000000000000000000000000000000000000000000000000000000000002",
                        "key": "0xb10d99d65909b7c78e6cb2f902b070aa0bd99ea1a6b713903867bf112b6e58fc",
                        "prev": "0x0000000000000000000000000000000000000000000000000000000000000001"
                    }
                ],
                "storageVariables": [
                    {
                        "name": "_ownerships",
                        "type": "mapping(uint256 => struct IERC721A.TokenOwnership)",
                        "value": {
                            "pairs": [
                                {
                                    "key": "4572",
                                    "value": {
                                        "fields": [
                                            {
                                                "name": "addr",
                                                "type": "address",
                                                "value": {
                                                    "current": "0xcbe7fb7d79a8c74ae4990f6f6cd08938f3e84c8b",
                                                    "prev": "0x077d904661fe4bef5f2e892c6924309c002a244c",
                                                    "typeTag": 1
                                                }
                                            },
                                            {
                                                "name": "startTimestamp",
                                                "type": "uint64",
                                                "value": {
                                                    "current": "1679298059",
                                                    "prev": "1672230311",
                                                    "typeTag": 1
                                                }
                                            },
                                            {
                                                "name": "burned",
                                                "type": "bool",
                                                "value": {
                                                    "current": "false",
                                                    "prev": "false",
                                                    "typeTag": 1
                                                }
                                            }
                                        ],
                                        "typeTag": 3
                                    }
                                }
                            ],
                            "typeTag": 4
                        }
                    },
                    {
                        "name": "_addressData",
                        "type": "mapping(address => struct IERC721A.AddressData)",
                        "value": {
                            "pairs": [
                                {
                                    "key": "0x077d904661fe4bef5f2e892c6924309c002a244c",
                                    "value": {
                                        "fields": [
                                            {
                                                "name": "balance",
                                                "type": "uint64",
                                                "value": {
                                                    "current": "0",
                                                    "prev": "1",
                                                    "typeTag": 1
                                                }
                                            },
                                            {
                                                "name": "numberMinted",
                                                "type": "uint64",
                                                "value": {
                                                    "current": "0",
                                                    "prev": "0",
                                                    "typeTag": 1
                                                }
                                            },
                                            {
                                                "name": "numberBurned",
                                                "type": "uint64",
                                                "value": {
                                                    "current": "0",
                                                    "prev": "0",
                                                    "typeTag": 1
                                                }
                                            },
                                            {
                                                "name": "aux",
                                                "type": "uint64",
                                                "value": {
                                                    "current": "0",
                                                    "prev": "0",
                                                    "typeTag": 1
                                                }
                                            }
                                        ],
                                        "typeTag": 3
                                    }
                                },
                                {
                                    "key": "0xcbe7fb7d79a8c74ae4990f6f6cd08938f3e84c8b",
                                    "value": {
                                        "fields": [
                                            {
                                                "name": "balance",
                                                "type": "uint64",
                                                "value": {
                                                    "current": "2",
                                                    "prev": "1",
                                                    "typeTag": 1
                                                }
                                            },
                                            {
                                                "name": "numberMinted",
                                                "type": "uint64",
                                                "value": {
                                                    "current": "0",
                                                    "prev": "0",
                                                    "typeTag": 1
                                                }
                                            },
                                            {
                                                "name": "numberBurned",
                                                "type": "uint64",
                                                "value": {
                                                    "current": "0",
                                                    "prev": "0",
                                                    "typeTag": 1
                                                }
                                            },
                                            {
                                                "name": "aux",
                                                "type": "uint64",
                                                "value": {
                                                    "current": "0",
                                                    "prev": "0",
                                                    "typeTag": 1
                                                }
                                            }
                                        ],
                                        "typeTag": 3
                                    }
                                }
                            ],
                            "typeTag": 4
                        }
                    }
                ]
            }
        ]
    }
}