{
    "balance_change": {
        "balanceChanges": []
    },
    "profile": {
        "basic_info": {
            "baseFee": "25.297898013",
            "blockNumber": 15124384,
            "callData": "0xa22cb465000000000000000000000000bd3041cdc089cddcc609ceb1b149d55dae7491c50000000000000000000000000000000000000000000000000000000000000001",
            "debugEnable": true,
            "errorInfo": "",
            "eventCount": 1,
            "feeRecipient": "0x7f101fe45e6649a6fb8f3f8b43ed03d353f2b90c",
            "formatValue": "0",
            "gasLimit": 69279,
            "gasPrice": "27.797898013",
            "gasUsed": 26286,
            "intTxnCount": 0,
            "internalRevert": false,
            "internalRevertMessage": "",
            "isContractCreation": false,
            "isFlashloan": false,
            "maxFee": "60.491849286",
            "nonce": 889,
            "overwritedBlockNumber": -1,
            "priorityFee": "2.5",
            "receiver": "0x78a5e2b8c280fa5580fbe1e1ed546183f959d305",
            "revertMessage": "",
            "sender": "0x0694c48e8a50ffd2b6cdfc0002f04a18fab19801",
            "simulationEnable": true,
            "sourceTxnHash": "0x228925d77c01e3878ba90f430dc633d3978b0d84498813fd624ed3d603af7ffb",
            "status": true,
            "timestamp": "2022-07-11T23:42:07Z",
            "transactionFee": "0.000730695547169718",
            "txnHash": "0x228925d77c01e3878ba90f430dc633d3978b0d84498813fd624ed3d603af7ffb",
            "txnIndex": 56,
            "type": 2,
            "value": "0"
        },
        "fund_flow": [],
        "token_infos": [
            {
                "address": "0xeeeeeeeeeeeeeeeeeeeeeeeeeeeeeeeeeeeeeeee",
                "decimals": 18
            },
            {
                "address": "0xc02aaa39b223fe8d0a0e5c4f27ead9083c756cc2",
                "decimals": 18
            }
        ]
    },
    "address_label": {
        "labels": [
            {
                "address": "0xbd3041cdc089cddcc609ceb1b149d55dae7491c5",
                "label": "AlphaLocker"
            },
            {
                "address": "0x78a5e2b8c280fa5580fbe1e1ed546183f959d305",
                "label": "AlphaSharks: ALPHASHARKS Token"
            },
            {
                "address": "0x0000000000000000000000000000000000000001",
                "label": "Precompiled"
            },
            {
                "address": "0x0000000000000000000000000000000000000002",
                "label": "Precompiled"
            },
            {
                "address": "0x0000000000000000000000000000000000000003",
                "label": "Precompiled"
            },
            {
                "address": "0x0000000000000000000000000000000000000004",
                "label": "Precompiled"
            },
            {
                "address": "0xeeeeeeeeeeeeeeeeeeeeeeeeeeeeeeeeeeeeeeee",
                "label": "Ether"
            }
        ]
    },
    "trace": {
        "accountLabels": null,
        "dataMap": {
            "-1": {
                "invocation": {
                    "address": "0x0694c48e8a50ffd2b6cdfc0002f04a18fab19801",
                    "callData": "",
                    "decodedMethod": null,
                    "errorInfo": "",
                    "fromAddress": "",
                    "gasUsed": 0,
                    "id": -1,
                    "methodDecoded": false,
                    "operation": "",
                    "output": "",
                    "revert": false,
                    "revertMessage": "",
                    "selector": "",
                    "status": false,
                    "value": ""
                },
                "nodeType": 0
            },
            "0": {
                "invocation": {
                    "address": "0x78a5e2b8c280fa5580fbe1e1ed546183f959d305",
                    "callData": "0x000000000000000000000000bd3041cdc089cddcc609ceb1b149d55dae7491c50000000000000000000000000000000000000000000000000000000000000001",
                    "decodedMethod": {
                        "callParams": [
                            {
                                "name": "operator",
                                "type": "address",
                                "value": "0xbd3041cdc089cddcc609ceb1b149d55dae7491c5"
                            },
                            {
                                "name": "approved",
                                "type": "bool",
                                "value": true
                            }
                        ],
                        "constructorArguments": "",
                        "name": "setApprovalForAll",
                        "returnParams": [],
                        "signature": "setApprovalForAll(address,bool)"
                    },
                    "errorInfo": "",
                    "fromAddress": "0x0694c48e8a50ffd2b6cdfc0002f04a18fab19801",
                    "gasUsed": 26286,
                    "id": 0,
                    "methodDecoded": true,
                    "operation": "CALL",
                    "output": "",
                    "revert": false,
                    "revertMessage": "",
                    "selector": "0xa22cb465",
                    "status": true,
                    "value": "0"
                },
                "nodeType": 0
            },
            "1": {
                "event": {
                    "contract": "0x78a5e2b8c280fa5580fbe1e1ed546183f959d305",
                    "decodedLog": {
                        "name": "ApprovalForAll",
                        "params": [
                            {
                                "name": "owner",
                                "type": "address",
                                "value": "0x0694c48e8a50ffd2b6cdfc0002f04a18fab19801"
                            },
                            {
                                "name": "operator",
                                "type": "address",
                                "value": "0xbd3041cdc089cddcc609ceb1b149d55dae7491c5"
                            },
                            {
                                "name": "approved",
                                "type": "bool",
                                "value": true
                            }
                        ],
                        "signature": "ApprovalForAll(address,address,bool)"
                    },
                    "id": 1,
                    "logData": "0x0000000000000000000000000000000000000000000000000000000000000001",
                    "logDecoded": true,
                    "operation": "EVENT",
                    "revert": false,
                    "status": true,
                    "topics": [
                        "0x17307eab39ab6107e8899845ad3d59bd9653f200f220920489ca2b5937696c31",
                        "0x0000000000000000000000000694c48e8a50ffd2b6cdfc0002f04a18fab19801",
                        "0x000000000000000000000000bd3041cdc089cddcc609ceb1b149d55dae7491c5"
                    ]
                },
                "nodeType": 1
            }
        },
        "gasFlame": [
            {
                "children": [
                    {
                        "children": [
                            {
                                "children": [],
                                "depth": 0,
                                "name": "Initial Gas",
                                "value": 21572
                            },
                            {
                                "children": [],
                                "depth": 0,
                                "name": "Executed Gas",
                                "value": 4714
                            }
                        ],
                        "depth": -1,
                        "name": "Actual Gas Used",
                        "value": 26286
                    },
                    {
                        "children": [],
                        "depth": -1,
                        "name": "Refunded Gas",
                        "value": 0
                    }
                ],
                "depth": -2,
                "name": "Total Gas",
                "value": 26286
            }
        ],
        "isConfirmed": true,
        "mainTrace": [
            {
                "children": [
                    {
                        "children": [
                            {
                                "children": [],
                                "depth": 1,
                                "id": 1,
                                "order": 1
                            }
                        ],
                        "depth": 0,
                        "id": 0,
                        "order": 0
                    }
                ],
                "depth": -1,
                "id": -1,
                "order": -1
            }
        ],
        "mainTraceNodeCount": 2,
        "parentIdMap": {
            "0": -1,
            "1": 0
        },
        "tidyTrace": [
            {
                "children": [
                    {
                        "children": [
                            {
                                "children": [],
                                "depth": 1,
                                "id": 1,
                                "order": 1
                            }
                        ],
                        "depth": 0,
                        "id": 0,
                        "order": 0
                    }
                ],
                "depth": -1,
                "id": -1,
                "order": -1
            }
        ],
        "tidyTraceNodeCount": 2
    },
    "state_change": {
        "stateChanges": []
    }
}