{
    "balance_change": {
        "balanceChanges": [
            {
                "account": "0xfeae825c384cd9bae12284c76bf50891f3a0fc13",
                "assets": [
                    {
                        "address": "0xeeeeeeeeeeeeeeeeeeeeeeeeeeeeeeeeeeeeeeee",
                        "amount": "0.16",
                        "iconUrl": "https://assets.blocksec.com/image/1663669189317-3.png",
                        "isERC1155": false,
                        "isERC721": false,
                        "sign": false,
                        "value": "470.56382144000002882"
                    },
                    {
                        "address": "0xca95777971c7c438eecbd8bfc23249fbee99e716",
                        "amount": "1",
                        "iconUrl": "",
                        "isERC1155": false,
                        "isERC721": true,
                        "sign": true,
                        "tokenID": "3432",
                        "value": ""
                    }
                ]
            },
            {
                "account": "0xca95777971c7c438eecbd8bfc23249fbee99e716",
                "assets": [
                    {
                        "address": "0xeeeeeeeeeeeeeeeeeeeeeeeeeeeeeeeeeeeeeeee",
                        "amount": "0.16",
                        "iconUrl": "https://assets.blocksec.com/image/1663669189317-3.png",
                        "isERC1155": false,
                        "isERC721": false,
                        "sign": true,
                        "value": "470.56382144000002882"
                    }
                ]
            },
            {
                "account": "0x0000000000000000000000000000000000000000",
                "assets": [
                    {
                        "address": "0xca95777971c7c438eecbd8bfc23249fbee99e716",
                        "amount": "1",
                        "iconUrl": "",
                        "isERC1155": false,
                        "isERC721": true,
                        "sign": false,
                        "tokenID": "3432",
                        "value": ""
                    }
                ]
            }
        ]
    },
    "profile": {
        "basic_info": {
            "baseFee": "110.039398045",
            "blockNumber": 14489388,
            "callData": "0x09686f84000000000000000000000000000000000000000000000000000000000000000100000000000000000000000000000000000000000000000000000000000000010000000000000000000000000000000000000000000000000000000000000060000000000000000000000000000000000000000000000000000000000000000dab989c6c5515d71390d026a618af6be0eaedecbe3f6408a0682e1be02f2bfd89de63050a33d23cc549d302bacbc7ce63b145b5dd34fbc941d86d9d8a22043f0929667384d5d346f615f239f215d74f9e11ea792e3345c4bd1f2bc85767d1fd7ec3f71d223af2cdf71b07aa89e17b802af73dc03c6e2c35b00331670347471e5490d2915a58efe5d4db3f9e51b8b56b11462193d21ffcc74c9bbd63476462b4109070366d5b9e82c913b1553642fe04f153cebe1f25c4af7493a349a00f632e051aedb4c302b43c260343f8e47e3968535088b870ac3b03a52b084cb54ddd56bfeacb9fec3e052681521ba567fe2842ebacbc11b7dfab2f4d6f63a5e314c46f40cbc774ba253526bcdb3ddda6a40cad70b8fc1d484ef90cf2274443821e81c299bf6f0bfad4ca410b8ddd8ce759f126ca44e866ec803ac691a89001de410855b78e79a80879e3e744e8e846c24408cb35fdaa484e1c17f555c67ce3b199bd01a9a275074302e503954fc909560d2f77d4f5aff7fb2af44f098ed57e6b0fcf0c5a4c69767f7e2609198331b098fbd08db9e9127fc11e2118f80b4fec3b607674dd",
            "debugEnable": true,
            "errorInfo": "",
            "eventCount": 1,
            "feeRecipient": "0xc365c3315cf926351ccaf13fa7d19c8c4058c8e1",
            "formatValue": "0.16",
            "gasLimit": 120505,
            "gasPrice": "111.539398045",
            "gasUsed": 120505,
            "intTxnCount": 0,
            "internalRevert": false,
            "internalRevertMessage": "",
            "isContractCreation": false,
            "isFlashloan": false,
            "maxFee": "112.832892564",
            "nonce": 14,
            "overwritedBlockNumber": -1,
            "priorityFee": "1.5",
            "receiver": "0xca95777971c7c438eecbd8bfc23249fbee99e716",
            "revertMessage": "",
            "sender": "0xfeae825c384cd9bae12284c76bf50891f3a0fc13",
            "simulationEnable": true,
            "sourceTxnHash": "0x22aec4985b5340550c8ba1578489093d540127018dfec462187283602e224a87",
            "status": true,
            "timestamp": "2022-03-30T19:24:23Z",
            "transactionFee": "0.013441055161412725",
            "txnHash": "0x22aec4985b5340550c8ba1578489093d540127018dfec462187283602e224a87",
            "txnIndex": 277,
            "type": 2,
            "value": "160000000000000000"
        },
        "fund_flow": [
            {
                "amount": "0.16",
                "from": "0xfeae825c384cd9bae12284c76bf50891f3a0fc13",
                "id": 1,
                "isERC1155": false,
                "isERC721": false,
                "isReverted": false,
                "order": 1,
                "to": "0xca95777971c7c438eecbd8bfc23249fbee99e716",
                "token": "0xeeeeeeeeeeeeeeeeeeeeeeeeeeeeeeeeeeeeeeee"
            },
            {
                "amount": "1",
                "from": "0x0000000000000000000000000000000000000000",
                "id": 2,
                "isERC1155": false,
                "isERC721": true,
                "isReverted": false,
                "order": 2,
                "to": "0xfeae825c384cd9bae12284c76bf50891f3a0fc13",
                "token": "0xca95777971c7c438eecbd8bfc23249fbee99e716",
                "tokenID": "3432"
            }
        ],
        "token_infos": [
            {
                "address": "0xc02aaa39b223fe8d0a0e5c4f27ead9083c756cc2",
                "decimals": 18
            },
            {
                "address": "0xeeeeeeeeeeeeeeeeeeeeeeeeeeeeeeeeeeeeeeee",
                "decimals": 18
            }
        ]
    },
    "address_label": {
        "labels": [
            {
                "address": "0xca95777971c7c438eecbd8bfc23249fbee99e716",
                "label": "Mutant Shiba Club: MSC Token"
            },
            {
                "address": "0x0000000000000000000000000000000000000001",
                "label": "Precompiled"
            },
            {
                "address": "0x0000000000000000000000000000000000000002",
                "label": "Precompiled"
            },
            {
                "address": "0x0000000000000000000000000000000000000003",
                "label": "Precompiled"
            },
            {
                "address": "0x0000000000000000000000000000000000000004",
                "label": "Precompiled"
            },
            {
                "address": "0xeeeeeeeeeeeeeeeeeeeeeeeeeeeeeeeeeeeeeeee",
                "label": "Ether"
            }
        ]
    },
    "trace": {
        "accountLabels": null,
        "dataMap": {
            "-1": {
                "invocation": {
                    "address": "0xfeae825c384cd9bae12284c76bf50891f3a0fc13",
                    "callData": "",
                    "decodedMethod": null,
                    "errorInfo": "",
                    "fromAddress": "",
                    "gasUsed": 0,
                    "id": -1,
                    "methodDecoded": false,
                    "operation": "",
                    "output": "",
                    "revert": false,
                    "revertMessage": "",
                    "selector": "",
                    "status": false,
                    "value": ""
                },
                "nodeType": 0
            },
            "0": {
                "invocation": {
                    "address": "0xca95777971c7c438eecbd8bfc23249fbee99e716",
                    "callData": "0x000000000000000000000000000000000000000000000000000000000000000100000000000000000000000000000000000000000000000000000000000000010000000000000000000000000000000000000000000000000000000000000060000000000000000000000000000000000000000000000000000000000000000dab989c6c5515d71390d026a618af6be0eaedecbe3f6408a0682e1be02f2bfd89de63050a33d23cc549d302bacbc7ce63b145b5dd34fbc941d86d9d8a22043f0929667384d5d346f615f239f215d74f9e11ea792e3345c4bd1f2bc85767d1fd7ec3f71d223af2cdf71b07aa89e17b802af73dc03c6e2c35b00331670347471e5490d2915a58efe5d4db3f9e51b8b56b11462193d21ffcc74c9bbd63476462b4109070366d5b9e82c913b1553642fe04f153cebe1f25c4af7493a349a00f632e051aedb4c302b43c260343f8e47e3968535088b870ac3b03a52b084cb54ddd56bfeacb9fec3e052681521ba567fe2842ebacbc11b7dfab2f4d6f63a5e314c46f40cbc774ba253526bcdb3ddda6a40cad70b8fc1d484ef90cf2274443821e81c299bf6f0bfad4ca410b8ddd8ce759f126ca44e866ec803ac691a89001de410855b78e79a80879e3e744e8e846c24408cb35fdaa484e1c17f555c67ce3b199bd01a9a275074302e503954fc909560d2f77d4f5aff7fb2af44f098ed57e6b0fcf0c5a4c69767f7e2609198331b098fbd08db9e9127fc11e2118f80b4fec3b607674dd",
                    "decodedMethod": {
                        "callParams": [
                            {
                                "name": "_quantity",
                                "type": "uint256",
                                "value": "1"
                            },
                            {
                                "name": "_maxAmount",
                                "type": "uint256",
                                "value": "1"
                            },
                            {
                                "name": "_proof",
                                "type": "bytes32[]",
                                "value": [
                                    "0xab989c6c5515d71390d026a618af6be0eaedecbe3f6408a0682e1be02f2bfd89",
                                    "0xde63050a33d23cc549d302bacbc7ce63b145b5dd34fbc941d86d9d8a22043f09",
                                    "0x29667384d5d346f615f239f215d74f9e11ea792e3345c4bd1f2bc85767d1fd7e",
                                    "0xc3f71d223af2cdf71b07aa89e17b802af73dc03c6e2c35b00331670347471e54",
                                    "0x90d2915a58efe5d4db3f9e51b8b56b11462193d21ffcc74c9bbd63476462b410",
                                    "0x9070366d5b9e82c913b1553642fe04f153cebe1f25c4af7493a349a00f632e05",
                                    "0x1aedb4c302b43c260343f8e47e3968535088b870ac3b03a52b084cb54ddd56bf",
                                    "0xeacb9fec3e052681521ba567fe2842ebacbc11b7dfab2f4d6f63a5e314c46f40",
                                    "0xcbc774ba253526bcdb3ddda6a40cad70b8fc1d484ef90cf2274443821e81c299",
                                    "0xbf6f0bfad4ca410b8ddd8ce759f126ca44e866ec803ac691a89001de410855b7",
                                    "0x8e79a80879e3e744e8e846c24408cb35fdaa484e1c17f555c67ce3b199bd01a9",
                                    "0xa275074302e503954fc909560d2f77d4f5aff7fb2af44f098ed57e6b0fcf0c5a",
                                    "0x4c69767f7e2609198331b098fbd08db9e9127fc11e2118f80b4fec3b607674dd"
                                ]
                            }
                        ],
                        "constructorArguments": "",
                        "name": "preSaleMint",
                        "returnParams": [],
                        "signature": "preSaleMint(uint256,uint256,bytes32[])"
                    },
                    "errorInfo": "",
                    "fromAddress": "0xfeae825c384cd9bae12284c76bf50891f3a0fc13",
                    "gasUsed": 120505,
                    "id": 0,
                    "methodDecoded": true,
                    "operation": "CALL",
                    "output": "",
                    "revert": false,
                    "revertMessage": "",
                    "selector": "0x09686f84",
                    "status": true,
                    "value": "0.16"
                },
                "nodeType": 0
            },
            "1": {
                "event": {
                    "contract": "0xca95777971c7c438eecbd8bfc23249fbee99e716",
                    "decodedLog": {
                        "name": "Transfer",
                        "params": [
                            {
                                "name": "from",
                                "type": "address",
                                "value": "0x0000000000000000000000000000000000000000"
                            },
                            {
                                "name": "to",
                                "type": "address",
                                "value": "0xfeae825c384cd9bae12284c76bf50891f3a0fc13"
                            },
                            {
                                "decimalAvailable": true,
                                "name": "tokenId",
                                "type": "uint256",
                                "value": "3,432"
                            }
                        ],
                        "signature": "Transfer(address,address,uint256)"
                    },
                    "id": 1,
                    "logData": "0x",
                    "logDecoded": true,
                    "operation": "EVENT",
                    "revert": false,
                    "status": true,
                    "topics": [
                        "0xddf252ad1be2c89b69c2b068fc378daa952ba7f163c4a11628f55a4df523b3ef",
                        "0x0000000000000000000000000000000000000000000000000000000000000000",
                        "0x000000000000000000000000feae825c384cd9bae12284c76bf50891f3a0fc13",
                        "0x0000000000000000000000000000000000000000000000000000000000000d68"
                    ]
                },
                "nodeType": 1
            }
        },
        "gasFlame": [
            {
                "children": [
                    {
                        "children": [
                            {
                                "children": [],
                                "depth": 0,
                                "name": "Initial Gas",
                                "value": 28280
                            },
                            {
                                "children": [],
                                "depth": 0,
                                "name": "Executed Gas",
                                "value": 92225
                            }
                        ],
                        "depth": -1,
                        "name": "Actual Gas Used",
                        "value": 120505
                    },
                    {
                        "children": [],
                        "depth": -1,
                        "name": "Refunded Gas",
                        "value": 0
                    }
                ],
                "depth": -2,
                "name": "Total Gas",
                "value": 120505
            }
        ],
        "isConfirmed": true,
        "mainTrace": [
            {
                "children": [
                    {
                        "children": [
                            {
                                "children": [],
                                "depth": 1,
                                "id": 1,
                                "order": 1
                            }
                        ],
                        "depth": 0,
                        "id": 0,
                        "order": 0
                    }
                ],
                "depth": -1,
                "id": -1,
                "order": -1
            }
        ],
        "mainTraceNodeCount": 2,
        "parentIdMap": {
            "0": -1,
            "1": 0
        },
        "tidyTrace": [
            {
                "children": [
                    {
                        "children": [
                            {
                                "children": [],
                                "depth": 1,
                                "id": 1,
                                "order": 1
                            }
                        ],
                        "depth": 0,
                        "id": 0,
                        "order": 0
                    }
                ],
                "depth": -1,
                "id": -1,
                "order": -1
            }
        ],
        "tidyTraceNodeCount": 2
    },
    "state_change": {
        "stateChanges": [
            {
                "address": "0xca95777971c7c438eecbd8bfc23249fbee99e716",
                "erc": "ERC-721",
                "slots": [
                    {
                        "current": "0x00000000000000006244ae67feae825c384cd9bae12284c76bf50891f3a0fc13",
                        "key": "0xe2973fc9d5290dafab2aec8f2e59c7187ae308e45181b6567fd339d5bb32ddfc",
                        "prev": "0x0000000000000000000000000000000000000000000000000000000000000000"
                    },
                    {
                        "current": "0x0000000000000000000000000000000000000000000000000000000000000d69",
                        "key": "0x0000000000000000000000000000000000000000000000000000000000000000",
                        "prev": "0x0000000000000000000000000000000000000000000000000000000000000d68"
                    },
                    {
                        "current": "0x0000000000000000000000000000000000000000000000000000000000000001",
                        "key": "0xa9e35db43169f27b811e3cd6d8fa836e996230d0d2b7304dc8e7843a642b521b",
                        "prev": "0x0000000000000000000000000000000000000000000000000000000000000000"
                    },
                    {
                        "current": "0x0000000000000000000000000000000000000000000000010000000000000001",
                        "key": "0xe56daf181c679ee0478c5e3866c40a017fad1d208f93720408b671229659e147",
                        "prev": "0x0000000000000000000000000000000000000000000000000000000000000000"
                    }
                ],
                "storageVariables": [
                    {
                        "name": "_ownerships",
                        "type": "mapping(uint256 => struct ERC721A.TokenOwnership)",
                        "value": {
                            "pairs": [
                                {
                                    "key": "3432",
                                    "value": {
                                        "fields": [
                                            {
                                                "name": "addr",
                                                "type": "address",
                                                "value": {
                                                    "current": "0xfeae825c384cd9bae12284c76bf50891f3a0fc13",
                                                    "prev": "0x0000000000000000000000000000000000000000",
                                                    "typeTag": 1
                                                }
                                            },
                                            {
                                                "name": "startTimestamp",
                                                "type": "uint64",
                                                "value": {
                                                    "current": "1648668263",
                                                    "prev": "0",
                                                    "typeTag": 1
                                                }
                                            },
                                            {
                                                "name": "burned",
                                                "type": "bool",
                                                "value": {
                                                    "current": "false",
                                                    "prev": "false",
                                                    "typeTag": 1
                                                }
                                            }
                                        ],
                                        "typeTag": 3
                                    }
                                }
                            ],
                            "typeTag": 4
                        }
                    },
                    {
                        "name": "_currentIndex",
                        "type": "uint256",
                        "value": {
                            "current": "3433",
                            "prev": "3432",
                            "typeTag": 1
                        }
                    },
                    {
                        "name": "preSaleMinted",
                        "type": "mapping(address => uint256)",
                        "value": {
                            "pairs": [
                                {
                                    "key": "0xfeae825c384cd9bae12284c76bf50891f3a0fc13",
                                    "value": {
                                        "current": "1",
                                        "prev": "0",
                                        "typeTag": 1
                                    }
                                }
                            ],
                            "typeTag": 4
                        }
                    },
                    {
                        "name": "_addressData",
                        "type": "mapping(address => struct ERC721A.AddressData)",
                        "value": {
                            "pairs": [
                                {
                                    "key": "0xfeae825c384cd9bae12284c76bf50891f3a0fc13",
                                    "value": {
                                        "fields": [
                                            {
                                                "name": "balance",
                                                "type": "uint64",
                                                "value": {
                                                    "current": "1",
                                                    "prev": "0",
                                                    "typeTag": 1
                                                }
                                            },
                                            {
                                                "name": "numberMinted",
                                                "type": "uint64",
                                                "value": {
                                                    "current": "1",
                                                    "prev": "0",
                                                    "typeTag": 1
                                                }
                                            },
                                            {
                                                "name": "numberBurned",
                                                "type": "uint64",
                                                "value": {
                                                    "current": "0",
                                                    "prev": "0",
                                                    "typeTag": 1
                                                }
                                            },
                                            {
                                                "name": "aux",
                                                "type": "uint64",
                                                "value": {
                                                    "current": "0",
                                                    "prev": "0",
                                                    "typeTag": 1
                                                }
                                            }
                                        ],
                                        "typeTag": 3
                                    }
                                }
                            ],
                            "typeTag": 4
                        }
                    }
                ]
            }
        ]
    }
}