{
    "balance_change": {
        "balanceChanges": [
            {
                "account": "0x2836bd0371f7c7d585b7b22b2675374e7f5acfc0",
                "assets": [
                    {
                        "address": "0xf629cbd94d3791c9250152bd8dfbdf380e2a3b9c",
                        "amount": "0.4",
                        "iconUrl": "https://assets.blocksec.com/icon/4e91198d1517bc4aa7bfb253e3110967513d2a17a9e3cad8d288a4806c405653.png",
                        "isERC1155": false,
                        "isERC721": false,
                        "sign": false,
                        "value": ""
                    }
                ]
            },
            {
                "account": "0x0000000000000000000000000000000000000000",
                "assets": [
                    {
                        "address": "0xfaafdc07907ff5120a76b34b731b278c38d6043c",
                        "amount": "1",
                        "iconUrl": "",
                        "isERC1155": true,
                        "isERC721": false,
                        "sign": false,
                        "tokenID": "36185027886661324138791745890284321510260449326374154587434530376592708861952",
                        "value": ""
                    }
                ]
            },
            {
                "account": "0x03f8cc83390edac838fedb69d149e104990ebb9c",
                "assets": [
                    {
                        "address": "0xfaafdc07907ff5120a76b34b731b278c38d6043c",
                        "amount": "1",
                        "iconUrl": "",
                        "isERC1155": true,
                        "isERC721": false,
                        "sign": true,
                        "tokenID": "36185027886661324138791745890284321510260449326374154587434530376592708861952",
                        "value": ""
                    }
                ]
            },
            {
                "account": "0x4e643a25a64952895f553f20252861258727174e",
                "assets": [
                    {
                        "address": "0xf629cbd94d3791c9250152bd8dfbdf380e2a3b9c",
                        "amount": "0.4",
                        "iconUrl": "https://assets.blocksec.com/icon/4e91198d1517bc4aa7bfb253e3110967513d2a17a9e3cad8d288a4806c405653.png",
                        "isERC1155": false,
                        "isERC721": false,
                        "sign": true,
                        "value": ""
                    }
                ]
            }
        ]
    },
    "profile": {
        "basic_info": {
            "baseFee": "",
            "blockNumber": 8389961,
            "callData": "0x3d7d20a45000000000000822000000000000000000000000000000000000000000000000000000000000000000000000000000000000000000000000000000000000006000000000000000000000000000000000000000000000000000000000000000a0000000000000000000000000000000000000000000000000000000000000000100000000000000000000000003f8cc83390edac838fedb69d149e104990ebb9c00000000000000000000000000000000000000000000000000000000000000010000000000000000000000000000000000000000000000000000000000000001",
            "debugEnable": true,
            "errorInfo": "",
            "eventCount": 2,
            "feeRecipient": "0xd224ca0c819e8e97ba0136b3b95ceff503b79f53",
            "formatValue": "0",
            "gasLimit": 191529,
            "gasPrice": "3",
            "gasUsed": 138696,
            "intTxnCount": 15,
            "internalRevert": false,
            "internalRevertMessage": "",
            "isContractCreation": false,
            "isFlashloan": false,
            "maxFee": "",
            "nonce": 2529,
            "overwritedBlockNumber": -1,
            "priorityFee": "",
            "receiver": "0xfaafdc07907ff5120a76b34b731b278c38d6043c",
            "revertMessage": "",
            "sender": "0x2836bd0371f7c7d585b7b22b2675374e7f5acfc0",
            "simulationEnable": true,
            "sourceTxnHash": "0x2237d091cf36a0b45b1b1243426dc999e0a5aaf83d57c00ac8efe8d8ad923616",
            "status": true,
            "timestamp": "2019-08-20T22:33:11Z",
            "transactionFee": "0.000416088",
            "txnHash": "0x2237d091cf36a0b45b1b1243426dc999e0a5aaf83d57c00ac8efe8d8ad923616",
            "txnIndex": 19,
            "type": 0,
            "value": "0"
        },
        "fund_flow": [
            {
                "amount": "0.4",
                "from": "0x2836bd0371f7c7d585b7b22b2675374e7f5acfc0",
                "id": 1,
                "isERC1155": false,
                "isERC721": false,
                "isReverted": false,
                "order": 1,
                "to": "0x4e643a25a64952895f553f20252861258727174e",
                "token": "0xf629cbd94d3791c9250152bd8dfbdf380e2a3b9c"
            },
            {
                "amount": "1",
                "from": "0x0000000000000000000000000000000000000000",
                "id": 2,
                "isERC1155": true,
                "isERC721": false,
                "isReverted": false,
                "order": 2,
                "to": "0x03f8cc83390edac838fedb69d149e104990ebb9c",
                "token": "0xfaafdc07907ff5120a76b34b731b278c38d6043c",
                "tokenID": "36185027886661324138791745890284321510260449326374154587434530376592708861952"
            }
        ],
        "token_infos": [
            {
                "address": "0xc02aaa39b223fe8d0a0e5c4f27ead9083c756cc2",
                "decimals": 18
            },
            {
                "address": "0xf629cbd94d3791c9250152bd8dfbdf380e2a3b9c",
                "decimals": 18
            },
            {
                "address": "0xeeeeeeeeeeeeeeeeeeeeeeeeeeeeeeeeeeeeeeee",
                "decimals": 18
            }
        ]
    },
    "address_label": {
        "labels": [
            {
                "address": "0x0000000000000000000000000000000000000001",
                "label": "Precompiled"
            },
            {
                "address": "0x0000000000000000000000000000000000000002",
                "label": "Precompiled"
            },
            {
                "address": "0x0000000000000000000000000000000000000003",
                "label": "Precompiled"
            },
            {
                "address": "0x0000000000000000000000000000000000000004",
                "label": "Precompiled"
            },
            {
                "address": "0xeeeeeeeeeeeeeeeeeeeeeeeeeeeeeeeeeeeeeeee",
                "label": "Ether"
            },
            {
                "address": "0xfaafdc07907ff5120a76b34b731b278c38d6043c",
                "label": "Enjin: X Token"
            },
            {
                "address": "0xf629cbd94d3791c9250152bd8dfbdf380e2a3b9c",
                "label": "Enjin: ENJ Token"
            }
        ]
    },
    "trace": {
        "accountLabels": null,
        "dataMap": {
            "-1": {
                "invocation": {
                    "address": "0x2836bd0371f7c7d585b7b22b2675374e7f5acfc0",
                    "callData": "",
                    "decodedMethod": null,
                    "errorInfo": "",
                    "fromAddress": "",
                    "gasUsed": 0,
                    "id": -1,
                    "methodDecoded": false,
                    "operation": "",
                    "output": "",
                    "revert": false,
                    "revertMessage": "",
                    "selector": "",
                    "status": false,
                    "value": ""
                },
                "nodeType": 0
            },
            "0": {
                "invocation": {
                    "address": "0xfaafdc07907ff5120a76b34b731b278c38d6043c",
                    "callData": "0x5000000000000822000000000000000000000000000000000000000000000000000000000000000000000000000000000000000000000000000000000000006000000000000000000000000000000000000000000000000000000000000000a0000000000000000000000000000000000000000000000000000000000000000100000000000000000000000003f8cc83390edac838fedb69d149e104990ebb9c00000000000000000000000000000000000000000000000000000000000000010000000000000000000000000000000000000000000000000000000000000001",
                    "decodedMethod": {
                        "callParams": [
                            {
                                "name": "_id",
                                "type": "uint256",
                                "value": "36,185,027,886,661,324,138,791,745,890,284,321,510,260,449,326,374,154,587,434,530,376,592,708,861,952"
                            },
                            {
                                "name": "_to",
                                "type": "address[]",
                                "value": [
                                    "0x03f8cc83390edac838fedb69d149e104990ebb9c"
                                ]
                            },
                            {
                                "name": "_quantities",
                                "type": "uint256[]",
                                "value": [
                                    "1"
                                ]
                            }
                        ],
                        "constructorArguments": "",
                        "name": "mintFungibles",
                        "returnParams": [],
                        "signature": "mintFungibles(uint256,address[],uint256[])"
                    },
                    "errorInfo": "",
                    "fromAddress": "0x2836bd0371f7c7d585b7b22b2675374e7f5acfc0",
                    "gasUsed": 138696,
                    "id": 0,
                    "methodDecoded": true,
                    "operation": "CALL",
                    "output": "",
                    "revert": false,
                    "revertMessage": "",
                    "selector": "0x3d7d20a4",
                    "status": true,
                    "value": "0"
                },
                "nodeType": 0
            },
            "1": {
                "invocation": {
                    "address": "0x0b0f98a0604ca29aca925663c8169ccd58d672f4",
                    "callData": "0x5000000000000822000000000000000000000000000000000000000000000000000000000000000000000000000000000000000000000000000000000000006000000000000000000000000000000000000000000000000000000000000000a0000000000000000000000000000000000000000000000000000000000000000100000000000000000000000003f8cc83390edac838fedb69d149e104990ebb9c00000000000000000000000000000000000000000000000000000000000000010000000000000000000000000000000000000000000000000000000000000001",
                    "decodedMethod": {
                        "callParams": [
                            {
                                "name": "_id",
                                "type": "uint256",
                                "value": "36,185,027,886,661,324,138,791,745,890,284,321,510,260,449,326,374,154,587,434,530,376,592,708,861,952"
                            },
                            {
                                "name": "_to",
                                "type": "address[]",
                                "value": [
                                    "0x03f8cc83390edac838fedb69d149e104990ebb9c"
                                ]
                            },
                            {
                                "name": "_quantities",
                                "type": "uint256[]",
                                "value": [
                                    "1"
                                ]
                            }
                        ],
                        "constructorArguments": "",
                        "name": "mintFungibles",
                        "returnParams": [],
                        "signature": "mintFungibles(uint256,address[],uint256[])"
                    },
                    "errorInfo": "",
                    "fromAddress": "0xfaafdc07907ff5120a76b34b731b278c38d6043c",
                    "gasUsed": 113398,
                    "id": 1,
                    "methodDecoded": true,
                    "operation": "DELEGATECALL",
                    "output": "",
                    "revert": false,
                    "revertMessage": "",
                    "selector": "0x3d7d20a4",
                    "status": true,
                    "value": "0"
                },
                "nodeType": 0
            },
            "10": {
                "invocation": {
                    "address": "0x4e643a25a64952895f553f20252861258727174e",
                    "callData": "0x50000000000008220000000000000000000000000000000000000000000000000000000000000000000000000000000000000000000000000000000000000000",
                    "decodedMethod": null,
                    "errorInfo": "",
                    "fromAddress": "0xfaafdc07907ff5120a76b34b731b278c38d6043c",
                    "gasUsed": 6856,
                    "id": 10,
                    "methodDecoded": false,
                    "operation": "CALL",
                    "output": "",
                    "revert": false,
                    "revertMessage": "",
                    "selector": "0x7e686648",
                    "status": true,
                    "value": "0"
                },
                "nodeType": 0
            },
            "11": {
                "invocation": {
                    "address": "0x4e643a25a64952895f553f20252861258727174e",
                    "callData": "0x50000000000008220000000000000000000000000000000000000000000000000000000000000000000000000000000000000000000000000000000000000001",
                    "decodedMethod": null,
                    "errorInfo": "",
                    "fromAddress": "0xfaafdc07907ff5120a76b34b731b278c38d6043c",
                    "gasUsed": 8545,
                    "id": 11,
                    "methodDecoded": false,
                    "operation": "CALL",
                    "output": "0x0000000000000000000000000000000000000000000000000000000000000000",
                    "revert": false,
                    "revertMessage": "",
                    "selector": "0xee6ab318",
                    "status": true,
                    "value": "0"
                },
                "nodeType": 0
            },
            "12": {
                "invocation": {
                    "address": "0x4e643a25a64952895f553f20252861258727174e",
                    "callData": "0x5000000000000822000000000000000000000000000000000000000000000000",
                    "decodedMethod": {
                        "callParams": [
                            {
                                "name": "tokenID",
                                "type": "uint256",
                                "value": "36,185,027,886,661,324,138,791,745,890,284,321,510,260,449,326,374,154,587,434,530,376,592,708,861,952"
                            }
                        ],
                        "constructorArguments": "",
                        "name": "getMeltValue",
                        "returnParams": [
                            {
                                "name": "value",
                                "type": "uint256",
                                "value": "400,000,000,000,000,000"
                            }
                        ],
                        "signature": "getMeltValue(uint256)"
                    },
                    "errorInfo": "",
                    "fromAddress": "0xfaafdc07907ff5120a76b34b731b278c38d6043c",
                    "gasUsed": 1962,
                    "id": 12,
                    "methodDecoded": true,
                    "operation": "STATICCALL",
                    "output": "0x000000000000000000000000000000000000000000000000058d15e176280000",
                    "revert": false,
                    "revertMessage": "",
                    "selector": "0x874047a8",
                    "status": true,
                    "value": "0"
                },
                "nodeType": 0
            },
            "13": {
                "invocation": {
                    "address": "0x4e643a25a64952895f553f20252861258727174e",
                    "callData": "0x",
                    "decodedMethod": null,
                    "errorInfo": "",
                    "fromAddress": "0xfaafdc07907ff5120a76b34b731b278c38d6043c",
                    "gasUsed": 3397,
                    "id": 13,
                    "methodDecoded": false,
                    "operation": "STATICCALL",
                    "output": "0x000000000000000000000000f629cbd94d3791c9250152bd8dfbdf380e2a3b9c",
                    "revert": false,
                    "revertMessage": "",
                    "selector": "0xfed57875",
                    "status": true,
                    "value": "0"
                },
                "nodeType": 0
            },
            "14": {
                "invocation": {
                    "address": "0xf629cbd94d3791c9250152bd8dfbdf380e2a3b9c",
                    "callData": "0x0000000000000000000000002836bd0371f7c7d585b7b22b2675374e7f5acfc00000000000000000000000004e643a25a64952895f553f20252861258727174e000000000000000000000000000000000000000000000000058d15e176280000",
                    "decodedMethod": {
                        "callParams": [
                            {
                                "name": "_from",
                                "type": "address",
                                "value": "0x2836bd0371f7c7d585b7b22b2675374e7f5acfc0"
                            },
                            {
                                "name": "_to",
                                "type": "address",
                                "value": "0x4e643a25a64952895f553f20252861258727174e"
                            },
                            {
                                "decimalAvailable": true,
                                "name": "_value",
                                "type": "uint256",
                                "value": "400,000,000,000,000,000"
                            }
                        ],
                        "constructorArguments": "",
                        "name": "transferFrom",
                        "returnParams": [
                            {
                                "name": "success",
                                "type": "bool",
                                "value": true
                            }
                        ],
                        "signature": "transferFrom(address,address,uint256)"
                    },
                    "errorInfo": "",
                    "fromAddress": "0xfaafdc07907ff5120a76b34b731b278c38d6043c",
                    "gasUsed": 19237,
                    "id": 14,
                    "methodDecoded": true,
                    "operation": "CALL",
                    "output": "0x0000000000000000000000000000000000000000000000000000000000000001",
                    "revert": false,
                    "revertMessage": "",
                    "selector": "0x23b872dd",
                    "status": true,
                    "value": "0"
                },
                "nodeType": 0
            },
            "15": {
                "event": {
                    "contract": "0xf629cbd94d3791c9250152bd8dfbdf380e2a3b9c",
                    "decodedLog": {
                        "name": "Transfer",
                        "params": [
                            {
                                "name": "_from",
                                "type": "address",
                                "value": "0x2836bd0371f7c7d585b7b22b2675374e7f5acfc0"
                            },
                            {
                                "name": "_to",
                                "type": "address",
                                "value": "0x4e643a25a64952895f553f20252861258727174e"
                            },
                            {
                                "decimalAvailable": true,
                                "name": "_value",
                                "type": "uint256",
                                "value": "400,000,000,000,000,000"
                            }
                        ],
                        "signature": "Transfer(address,address,uint256)"
                    },
                    "id": 15,
                    "logData": "0x000000000000000000000000000000000000000000000000058d15e176280000",
                    "logDecoded": true,
                    "operation": "EVENT",
                    "revert": false,
                    "status": true,
                    "topics": [
                        "0xddf252ad1be2c89b69c2b068fc378daa952ba7f163c4a11628f55a4df523b3ef",
                        "0x0000000000000000000000002836bd0371f7c7d585b7b22b2675374e7f5acfc0",
                        "0x0000000000000000000000004e643a25a64952895f553f20252861258727174e"
                    ]
                },
                "nodeType": 1
            },
            "16": {
                "invocation": {
                    "address": "0x4e643a25a64952895f553f20252861258727174e",
                    "callData": "0x500000000000082200000000000000000000000000000000000000000000000000000000000000000000000003f8cc83390edac838fedb69d149e104990ebb9c0000000000000000000000000000000000000000000000000000000000000001",
                    "decodedMethod": {
                        "callParams": [
                            {
                                "name": "typeId",
                                "type": "uint256",
                                "value": "36,185,027,886,661,324,138,791,745,890,284,321,510,260,449,326,374,154,587,434,530,376,592,708,861,952"
                            },
                            {
                                "name": "account",
                                "type": "address",
                                "value": "0x03f8cc83390edac838fedb69d149e104990ebb9c"
                            },
                            {
                                "name": "amount",
                                "type": "uint256",
                                "value": "1"
                            }
                        ],
                        "constructorArguments": "",
                        "name": "mintFungible",
                        "returnParams": [],
                        "signature": "mintFungible(uint256,address,uint256)"
                    },
                    "errorInfo": "",
                    "fromAddress": "0xfaafdc07907ff5120a76b34b731b278c38d6043c",
                    "gasUsed": 24041,
                    "id": 16,
                    "methodDecoded": true,
                    "operation": "CALL",
                    "output": "",
                    "revert": false,
                    "revertMessage": "",
                    "selector": "0xf807393a",
                    "status": true,
                    "value": "0"
                },
                "nodeType": 0
            },
            "17": {
                "event": {
                    "contract": "0xfaafdc07907ff5120a76b34b731b278c38d6043c",
                    "decodedLog": {
                        "name": "TransferSingle",
                        "params": [
                            {
                                "name": "operator",
                                "type": "address",
                                "value": "0x2836bd0371f7c7d585b7b22b2675374e7f5acfc0"
                            },
                            {
                                "name": "from",
                                "type": "address",
                                "value": "0x0000000000000000000000000000000000000000"
                            },
                            {
                                "name": "to",
                                "type": "address",
                                "value": "0x03f8cc83390edac838fedb69d149e104990ebb9c"
                            },
                            {
                                "name": "id",
                                "type": "uint256",
                                "value": "36,185,027,886,661,324,138,791,745,890,284,321,510,260,449,326,374,154,587,434,530,376,592,708,861,952"
                            },
                            {
                                "name": "value",
                                "type": "uint256",
                                "value": "1"
                            }
                        ],
                        "signature": "TransferSingle(address,address,address,uint256,uint256)"
                    },
                    "id": 17,
                    "logData": "0x50000000000008220000000000000000000000000000000000000000000000000000000000000000000000000000000000000000000000000000000000000001",
                    "logDecoded": true,
                    "operation": "EVENT",
                    "revert": false,
                    "status": true,
                    "topics": [
                        "0xc3d58168c5ae7397731d063d5bbf3d657854427343f4c083240f7aacaa2d0f62",
                        "0x0000000000000000000000002836bd0371f7c7d585b7b22b2675374e7f5acfc0",
                        "0x0000000000000000000000000000000000000000000000000000000000000000",
                        "0x00000000000000000000000003f8cc83390edac838fedb69d149e104990ebb9c"
                    ]
                },
                "nodeType": 1
            },
            "2": {
                "invocation": {
                    "address": "0x4e643a25a64952895f553f20252861258727174e",
                    "callData": "0x5000000000000822000000000000000000000000000000000000000000000000",
                    "decodedMethod": {
                        "callParams": [
                            {
                                "name": "tokenId",
                                "type": "uint256",
                                "value": "36,185,027,886,661,324,138,791,745,890,284,321,510,260,449,326,374,154,587,434,530,376,592,708,861,952"
                            }
                        ],
                        "constructorArguments": "",
                        "name": "getCreator",
                        "returnParams": [
                            {
                                "name": "",
                                "type": "address",
                                "value": "0x2836bd0371f7c7d585b7b22b2675374e7f5acfc0"
                            }
                        ],
                        "signature": "getCreator(uint256)"
                    },
                    "errorInfo": "",
                    "fromAddress": "0xfaafdc07907ff5120a76b34b731b278c38d6043c",
                    "gasUsed": 2897,
                    "id": 2,
                    "methodDecoded": true,
                    "operation": "STATICCALL",
                    "output": "0x0000000000000000000000002836bd0371f7c7d585b7b22b2675374e7f5acfc0",
                    "revert": false,
                    "revertMessage": "",
                    "selector": "0xd48e638a",
                    "status": true,
                    "value": "0"
                },
                "nodeType": 0
            },
            "3": {
                "invocation": {
                    "address": "0xf537d041158cad4e5ca0b89273204a751c8a1717",
                    "callData": "0x0000000000000000000000004e643a25a64952895f553f20252861258727174e5000000000000822000000000000000000000000000000000000000000000000000000000000000000000000000000000000000000000000000000000000008000000000000000000000000000000000000000000000000000000000000000c0000000000000000000000000000000000000000000000000000000000000000100000000000000000000000003f8cc83390edac838fedb69d149e104990ebb9c00000000000000000000000000000000000000000000000000000000000000010000000000000000000000000000000000000000000000000000000000000001",
                    "decodedMethod": null,
                    "errorInfo": "",
                    "fromAddress": "0xfaafdc07907ff5120a76b34b731b278c38d6043c",
                    "gasUsed": 105883,
                    "id": 3,
                    "methodDecoded": false,
                    "operation": "DELEGATECALL",
                    "output": "",
                    "revert": false,
                    "revertMessage": "",
                    "selector": "0x54c11483",
                    "status": true,
                    "value": "0"
                },
                "nodeType": 0
            },
            "4": {
                "invocation": {
                    "address": "0x4e643a25a64952895f553f20252861258727174e",
                    "callData": "0x5000000000000822000000000000000000000000000000000000000000000000",
                    "decodedMethod": null,
                    "errorInfo": "",
                    "fromAddress": "0xfaafdc07907ff5120a76b34b731b278c38d6043c",
                    "gasUsed": 2523,
                    "id": 4,
                    "methodDecoded": false,
                    "operation": "STATICCALL",
                    "output": "0x00000000000000000000000065ec007fe2f77f35fcce615b274c6312bb1eb3d9",
                    "revert": false,
                    "revertMessage": "",
                    "selector": "0xbc7a17c5",
                    "status": true,
                    "value": "0"
                },
                "nodeType": 0
            },
            "5": {
                "invocation": {
                    "address": "0x4e643a25a64952895f553f20252861258727174e",
                    "callData": "0x5000000000000822000000000000000000000000000000000000000000000000",
                    "decodedMethod": {
                        "callParams": [
                            {
                                "name": "NFTID",
                                "type": "uint256",
                                "value": "36,185,027,886,661,324,138,791,745,890,284,321,510,260,449,326,374,154,587,434,530,376,592,708,861,952"
                            }
                        ],
                        "constructorArguments": "",
                        "name": "getCreatedTime",
                        "returnParams": [
                            {
                                "name": "",
                                "type": "uint256",
                                "value": "1,563,194,400"
                            }
                        ],
                        "signature": "getCreatedTime(uint256)"
                    },
                    "errorInfo": "",
                    "fromAddress": "0xfaafdc07907ff5120a76b34b731b278c38d6043c",
                    "gasUsed": 3418,
                    "id": 5,
                    "methodDecoded": true,
                    "operation": "STATICCALL",
                    "output": "0x000000000000000000000000000000000000000000000000000000005d2c7420",
                    "revert": false,
                    "revertMessage": "",
                    "selector": "0xf521a982",
                    "status": true,
                    "value": "0"
                },
                "nodeType": 0
            },
            "6": {
                "invocation": {
                    "address": "0x65ec007fe2f77f35fcce615b274c6312bb1eb3d9",
                    "callData": "0x5000000000000822000000000000000000000000000000000000000000000000000000000000000000000000000000000000000000000000000000005d2c7420",
                    "decodedMethod": null,
                    "errorInfo": "",
                    "fromAddress": "0xfaafdc07907ff5120a76b34b731b278c38d6043c",
                    "gasUsed": 481,
                    "id": 6,
                    "methodDecoded": false,
                    "operation": "STATICCALL",
                    "output": "0x00000000000000000000000000000000ffffffffffffffffffffffffffffffff",
                    "revert": false,
                    "revertMessage": "",
                    "selector": "0x4ccf9e93",
                    "status": true,
                    "value": "0"
                },
                "nodeType": 0
            },
            "7": {
                "invocation": {
                    "address": "0x4e643a25a64952895f553f20252861258727174e",
                    "callData": "0x5000000000000822000000000000000000000000000000000000000000000000",
                    "decodedMethod": {
                        "callParams": [
                            {
                                "name": "id",
                                "type": "uint256",
                                "value": "36,185,027,886,661,324,138,791,745,890,284,321,510,260,449,326,374,154,587,434,530,376,592,708,861,952"
                            }
                        ],
                        "constructorArguments": "",
                        "name": "getTotalSupply",
                        "returnParams": [
                            {
                                "name": "",
                                "type": "uint256",
                                "value": "31"
                            }
                        ],
                        "signature": "getTotalSupply(uint256)"
                    },
                    "errorInfo": "",
                    "fromAddress": "0xfaafdc07907ff5120a76b34b731b278c38d6043c",
                    "gasUsed": 2138,
                    "id": 7,
                    "methodDecoded": true,
                    "operation": "STATICCALL",
                    "output": "0x000000000000000000000000000000000000000000000000000000000000001f",
                    "revert": false,
                    "revertMessage": "",
                    "selector": "0x92ab723e",
                    "status": true,
                    "value": "0"
                },
                "nodeType": 0
            },
            "8": {
                "invocation": {
                    "address": "0x4e643a25a64952895f553f20252861258727174e",
                    "callData": "0x5000000000000822000000000000000000000000000000000000000000000000",
                    "decodedMethod": null,
                    "errorInfo": "",
                    "fromAddress": "0xfaafdc07907ff5120a76b34b731b278c38d6043c",
                    "gasUsed": 896,
                    "id": 8,
                    "methodDecoded": false,
                    "operation": "STATICCALL",
                    "output": "0x0000000000000000000000000000000000000000000000000000000000000000",
                    "revert": false,
                    "revertMessage": "",
                    "selector": "0x2df3f42a",
                    "status": true,
                    "value": "0"
                },
                "nodeType": 0
            },
            "9": {
                "invocation": {
                    "address": "0x4e643a25a64952895f553f20252861258727174e",
                    "callData": "0x50000000000008220000000000000000000000000000000000000000000000000000000000000000000000000000000000000000000000000000000000000020",
                    "decodedMethod": {
                        "callParams": [
                            {
                                "name": "tokenId",
                                "type": "uint256",
                                "value": "36,185,027,886,661,324,138,791,745,890,284,321,510,260,449,326,374,154,587,434,530,376,592,708,861,952"
                            },
                            {
                                "name": "setTotalSupply",
                                "type": "uint256",
                                "value": "32"
                            }
                        ],
                        "constructorArguments": "",
                        "name": "setTotalSupply",
                        "returnParams": [],
                        "signature": "setTotalSupply(uint256,uint256)"
                    },
                    "errorInfo": "",
                    "fromAddress": "0xfaafdc07907ff5120a76b34b731b278c38d6043c",
                    "gasUsed": 7675,
                    "id": 9,
                    "methodDecoded": true,
                    "operation": "CALL",
                    "output": "",
                    "revert": false,
                    "revertMessage": "",
                    "selector": "0xb0a4d7d3",
                    "status": true,
                    "value": "0"
                },
                "nodeType": 0
            }
        },
        "gasFlame": [
            {
                "children": [
                    {
                        "children": [
                            {
                                "children": [],
                                "depth": 0,
                                "name": "Initial Gas",
                                "value": 23960
                            },
                            {
                                "children": [
                                    {
                                        "children": [
                                            {
                                                "children": [],
                                                "depth": 2,
                                                "name": "getCreator",
                                                "value": 2897
                                            },
                                            {
                                                "children": [
                                                    {
                                                        "children": [],
                                                        "depth": 3,
                                                        "name": "0xbc7a17c5",
                                                        "value": 2523
                                                    },
                                                    {
                                                        "children": [],
                                                        "depth": 3,
                                                        "name": "getCreatedTime",
                                                        "value": 3418
                                                    },
                                                    {
                                                        "children": [],
                                                        "depth": 3,
                                                        "name": "0x4ccf9e93",
                                                        "value": 481
                                                    },
                                                    {
                                                        "children": [],
                                                        "depth": 3,
                                                        "name": "getTotalSupply",
                                                        "value": 2138
                                                    },
                                                    {
                                                        "children": [],
                                                        "depth": 3,
                                                        "name": "0x2df3f42a",
                                                        "value": 896
                                                    },
                                                    {
                                                        "children": [],
                                                        "depth": 3,
                                                        "name": "setTotalSupply",
                                                        "value": 7675
                                                    },
                                                    {
                                                        "children": [],
                                                        "depth": 3,
                                                        "name": "0x7e686648",
                                                        "value": 6856
                                                    },
                                                    {
                                                        "children": [],
                                                        "depth": 3,
                                                        "name": "0xee6ab318",
                                                        "value": 8545
                                                    },
                                                    {
                                                        "children": [],
                                                        "depth": 3,
                                                        "name": "getMeltValue",
                                                        "value": 1962
                                                    },
                                                    {
                                                        "children": [],
                                                        "depth": 3,
                                                        "name": "0xfed57875",
                                                        "value": 3397
                                                    },
                                                    {
                                                        "children": [],
                                                        "depth": 3,
                                                        "name": "transferFrom",
                                                        "value": 19237
                                                    },
                                                    {
                                                        "children": [],
                                                        "depth": 3,
                                                        "name": "mintFungible",
                                                        "value": 24041
                                                    }
                                                ],
                                                "depth": 2,
                                                "name": "0x54c11483",
                                                "value": 105883
                                            }
                                        ],
                                        "depth": 1,
                                        "name": "mintFungibles",
                                        "value": 113398
                                    }
                                ],
                                "depth": 0,
                                "name": "Executed Gas",
                                "value": 114736
                            }
                        ],
                        "depth": -1,
                        "name": "Actual Gas Used",
                        "value": 138696
                    },
                    {
                        "children": [],
                        "depth": -1,
                        "name": "Refunded Gas",
                        "value": 0
                    }
                ],
                "depth": -2,
                "name": "Total Gas",
                "value": 138696
            }
        ],
        "isConfirmed": true,
        "mainTrace": [
            {
                "children": [
                    {
                        "children": [
                            {
                                "children": [
                                    {
                                        "children": [],
                                        "depth": 2,
                                        "id": 2,
                                        "order": 2
                                    },
                                    {
                                        "children": [
                                            {
                                                "children": [],
                                                "depth": 3,
                                                "id": 4,
                                                "order": 4
                                            },
                                            {
                                                "children": [],
                                                "depth": 3,
                                                "id": 5,
                                                "order": 5
                                            },
                                            {
                                                "children": [],
                                                "depth": 3,
                                                "id": 6,
                                                "order": 6
                                            },
                                            {
                                                "children": [],
                                                "depth": 3,
                                                "id": 7,
                                                "order": 7
                                            },
                                            {
                                                "children": [],
                                                "depth": 3,
                                                "id": 8,
                                                "order": 8
                                            },
                                            {
                                                "children": [],
                                                "depth": 3,
                                                "id": 9,
                                                "order": 9
                                            },
                                            {
                                                "children": [],
                                                "depth": 3,
                                                "id": 10,
                                                "order": 10
                                            },
                                            {
                                                "children": [],
                                                "depth": 3,
                                                "id": 11,
                                                "order": 11
                                            },
                                            {
                                                "children": [],
                                                "depth": 3,
                                                "id": 12,
                                                "order": 12
                                            },
                                            {
                                                "children": [],
                                                "depth": 3,
                                                "id": 13,
                                                "order": 13
                                            },
                                            {
                                                "children": [
                                                    {
                                                        "children": [],
                                                        "depth": 4,
                                                        "id": 15,
                                                        "order": 15
                                                    }
                                                ],
                                                "depth": 3,
                                                "id": 14,
                                                "order": 14
                                            },
                                            {
                                                "children": [],
                                                "depth": 3,
                                                "id": 16,
                                                "order": 16
                                            },
                                            {
                                                "children": [],
                                                "depth": 3,
                                                "id": 17,
                                                "order": 17
                                            }
                                        ],
                                        "depth": 2,
                                        "id": 3,
                                        "order": 3
                                    }
                                ],
                                "depth": 1,
                                "id": 1,
                                "order": 1
                            }
                        ],
                        "depth": 0,
                        "id": 0,
                        "order": 0
                    }
                ],
                "depth": -1,
                "id": -1,
                "order": -1
            }
        ],
        "mainTraceNodeCount": 18,
        "parentIdMap": {
            "0": -1,
            "1": 0,
            "10": 3,
            "11": 3,
            "12": 3,
            "13": 3,
            "14": 3,
            "15": 14,
            "16": 3,
            "17": 3,
            "2": 1,
            "3": 1,
            "4": 3,
            "5": 3,
            "6": 3,
            "7": 3,
            "8": 3,
            "9": 3
        },
        "tidyTrace": [
            {
                "children": [
                    {
                        "children": [
                            {
                                "children": [
                                    {
                                        "children": [
                                            {
                                                "children": [],
                                                "depth": 3,
                                                "id": 9,
                                                "order": 9
                                            },
                                            {
                                                "children": [],
                                                "depth": 3,
                                                "id": 10,
                                                "order": 10
                                            },
                                            {
                                                "children": [],
                                                "depth": 3,
                                                "id": 11,
                                                "order": 11
                                            },
                                            {
                                                "children": [
                                                    {
                                                        "children": [],
                                                        "depth": 4,
                                                        "id": 15,
                                                        "order": 15
                                                    }
                                                ],
                                                "depth": 3,
                                                "id": 14,
                                                "order": 14
                                            },
                                            {
                                                "children": [],
                                                "depth": 3,
                                                "id": 16,
                                                "order": 16
                                            },
                                            {
                                                "children": [],
                                                "depth": 3,
                                                "id": 17,
                                                "order": 17
                                            }
                                        ],
                                        "depth": 2,
                                        "id": 3,
                                        "order": 3
                                    }
                                ],
                                "depth": 1,
                                "id": 1,
                                "order": 1
                            }
                        ],
                        "depth": 0,
                        "id": 0,
                        "order": 0
                    }
                ],
                "depth": -1,
                "id": -1,
                "order": -1
            }
        ],
        "tidyTraceNodeCount": 10
    },
    "state_change": {
        "stateChanges": [
            {
                "address": "0x4e643a25a64952895f553f20252861258727174e",
                "erc": "",
                "slots": [
                    {
                        "current": "0x000000058d15e17628000000000000000000020000000000000020018d8a7850",
                        "key": "0xf9c2b87c6c162f9508a8e2f11f40db32ec379fc1053e483284ac9330422a4724",
                        "prev": "0x000000058d15e1762800000000000000000002000000000000001f018d8a7850"
                    },
                    {
                        "current": "0x0000000000000000000000000000000000000000000000000000000000000001",
                        "key": "0x1ebcf6ea9eb89ce724a2d118e08d9583e62591522fe90cde5736e3326c58ed22",
                        "prev": "0x0000000000000000000000000000000000000000000000000000000000000000"
                    }
                ],
                "storageVariables": []
            },
            {
                "address": "0xf629cbd94d3791c9250152bd8dfbdf380e2a3b9c",
                "erc": "ERC-20",
                "slots": [
                    {
                        "current": "0xfffffffffffffffffffffffffffffffffffffffffffffe1df384d80dc03934ff",
                        "key": "0xf012cefd8eedf3d866125d2201ddb4fc97fe6c1136a99a5ddaba8c4a81b6c7d0",
                        "prev": "0xfffffffffffffffffffffffffffffffffffffffffffffe1df911edef366134ff"
                    },
                    {
                        "current": "0x000000000000000000000000000000000000000000000ee327f93effb86b21ea",
                        "key": "0x344bf75d2f627fb82ef2551a6145b44e8b03b73b80fda69d5f24c027f30de403",
                        "prev": "0x000000000000000000000000000000000000000000000ee32d8654e12e9321ea"
                    },
                    {
                        "current": "0x00000000000000000000000000000000000000000008c3ac17798660c63c0165",
                        "key": "0xf7ec85381a8ec3370bb0a93ab9741d1c1b428b8880a8c09760a078514162083d",
                        "prev": "0x00000000000000000000000000000000000000000008c3ac11ec707f50140165"
                    }
                ],
                "storageVariables": [
                    {
                        "name": "allowance",
                        "type": "mapping(address => mapping(address => uint256))",
                        "value": {
                            "pairs": [
                                {
                                    "key": "0x2836bd0371f7c7d585b7b22b2675374e7f5acfc0",
                                    "value": {
                                        "pairs": [
                                            {
                                                "key": "0xfaafdc07907ff5120a76b34b731b278c38d6043c",
                                                "value": {
                                                    "current": "115792089237316195423570985008687907853269984665640564030565354007913129653503",
                                                    "prev": "115792089237316195423570985008687907853269984665640564030565754007913129653503",
                                                    "typeTag": 1
                                                }
                                            }
                                        ],
                                        "typeTag": 4
                                    }
                                }
                            ],
                            "typeTag": 4
                        }
                    },
                    {
                        "name": "balanceOf",
                        "type": "mapping(address => uint256)",
                        "value": {
                            "pairs": [
                                {
                                    "key": "0x2836bd0371f7c7d585b7b22b2675374e7f5acfc0",
                                    "value": {
                                        "current": "70303422067611812962794",
                                        "prev": "70303822067611812962794",
                                        "typeTag": 1
                                    }
                                },
                                {
                                    "key": "0x4e643a25a64952895f553f20252861258727174e",
                                    "value": {
                                        "current": "10595442552588177512333669",
                                        "prev": "10595442152588177512333669",
                                        "typeTag": 1
                                    }
                                }
                            ],
                            "typeTag": 4
                        }
                    }
                ]
            }
        ]
    }
}