{
    "balance_change": {
        "balanceChanges": [
            {
                "account": "0x769c72349aa599e7f63102cd3e4576fd8f306697",
                "assets": [
                    {
                        "address": "0x1776e1f26f98b1a5df9cd347953a26dd3cb46671",
                        "amount": "0.1907843",
                        "iconUrl": "https://assets.blocksec.com/icon/e994479c0503113a9ee7bfc586c080c5c9b07aa1649a265110aeb6db8bde96df.png",
                        "isERC1155": false,
                        "isERC721": false,
                        "sign": false,
                        "value": ""
                    }
                ]
            },
            {
                "account": "0x0000000000000000000000000000000000002c0f",
                "assets": [
                    {
                        "address": "0x1776e1f26f98b1a5df9cd347953a26dd3cb46671",
                        "amount": "0.1907843",
                        "iconUrl": "https://assets.blocksec.com/icon/e994479c0503113a9ee7bfc586c080c5c9b07aa1649a265110aeb6db8bde96df.png",
                        "isERC1155": false,
                        "isERC721": false,
                        "sign": true,
                        "value": ""
                    }
                ]
            }
        ]
    },
    "profile": {
        "basic_info": {
            "baseFee": "",
            "blockNumber": 3904417,
            "callData": "0xa9059cbb0000000000000000000000000000000000000000000000000000000000002c0f00000000000000000000000000000000000000000000000002a5cd4f5e38b800",
            "debugEnable": true,
            "errorInfo": "",
            "eventCount": 1,
            "feeRecipient": "0x9435d50503aee35c8757ae4933f7a0ab56597805",
            "formatValue": "0",
            "gasLimit": 200000,
            "gasPrice": "60",
            "gasUsed": 51874,
            "intTxnCount": 0,
            "internalRevert": false,
            "internalRevertMessage": "",
            "isContractCreation": false,
            "isFlashloan": false,
            "maxFee": "",
            "nonce": 1725,
            "overwritedBlockNumber": -1,
            "priorityFee": "",
            "receiver": "0x1776e1f26f98b1a5df9cd347953a26dd3cb46671",
            "revertMessage": "",
            "sender": "0x769c72349aa599e7f63102cd3e4576fd8f306697",
            "simulationEnable": true,
            "sourceTxnHash": "0x2224c0d68ed7e2e46e42eb369cd37e13efdca6a9b82cea48b1cceccdd73ccf20",
            "status": true,
            "timestamp": "2017-06-20T18:26:46Z",
            "transactionFee": "0.00311244",
            "txnHash": "0x2224c0d68ed7e2e46e42eb369cd37e13efdca6a9b82cea48b1cceccdd73ccf20",
            "txnIndex": 12,
            "type": 0,
            "value": "0"
        },
        "fund_flow": [
            {
                "amount": "0.1907843",
                "from": "0x769c72349aa599e7f63102cd3e4576fd8f306697",
                "id": 1,
                "isERC1155": false,
                "isERC721": false,
                "isReverted": false,
                "order": 1,
                "to": "0x0000000000000000000000000000000000002c0f",
                "token": "0x1776e1f26f98b1a5df9cd347953a26dd3cb46671"
            }
        ],
        "token_infos": [
            {
                "address": "0x1776e1f26f98b1a5df9cd347953a26dd3cb46671",
                "decimals": 18
            },
            {
                "address": "0xc02aaa39b223fe8d0a0e5c4f27ead9083c756cc2",
                "decimals": 18
            },
            {
                "address": "0xeeeeeeeeeeeeeeeeeeeeeeeeeeeeeeeeeeeeeeee",
                "decimals": 18
            }
        ]
    },
    "address_label": {
        "labels": [
            {
                "address": "0x1776e1f26f98b1a5df9cd347953a26dd3cb46671",
                "label": "Numeraire: NMR Token"
            },
            {
                "address": "0x0000000000000000000000000000000000000001",
                "label": "Precompiled"
            },
            {
                "address": "0x0000000000000000000000000000000000000002",
                "label": "Precompiled"
            },
            {
                "address": "0x0000000000000000000000000000000000000003",
                "label": "Precompiled"
            },
            {
                "address": "0x0000000000000000000000000000000000000004",
                "label": "Precompiled"
            },
            {
                "address": "0xeeeeeeeeeeeeeeeeeeeeeeeeeeeeeeeeeeeeeeee",
                "label": "Ether"
            }
        ]
    },
    "trace": {
        "accountLabels": null,
        "dataMap": {
            "-1": {
                "invocation": {
                    "address": "0x769c72349aa599e7f63102cd3e4576fd8f306697",
                    "callData": "",
                    "decodedMethod": null,
                    "errorInfo": "",
                    "fromAddress": "",
                    "gasUsed": 0,
                    "id": -1,
                    "methodDecoded": false,
                    "operation": "",
                    "output": "",
                    "revert": false,
                    "revertMessage": "",
                    "selector": "",
                    "status": false,
                    "value": ""
                },
                "nodeType": 0
            },
            "0": {
                "invocation": {
                    "address": "0x1776e1f26f98b1a5df9cd347953a26dd3cb46671",
                    "callData": "0x0000000000000000000000000000000000000000000000000000000000002c0f00000000000000000000000000000000000000000000000002a5cd4f5e38b800",
                    "decodedMethod": {
                        "callParams": [
                            {
                                "name": "_to",
                                "type": "address",
                                "value": "0x0000000000000000000000000000000000002c0f"
                            },
                            {
                                "decimalAvailable": true,
                                "name": "_value",
                                "type": "uint256",
                                "value": "190,784,300,000,000,000"
                            }
                        ],
                        "constructorArguments": "",
                        "name": "transfer",
                        "returnParams": [
                            {
                                "name": "ok",
                                "type": "bool",
                                "value": true
                            }
                        ],
                        "signature": "transfer(address,uint256)"
                    },
                    "errorInfo": "",
                    "fromAddress": "0x769c72349aa599e7f63102cd3e4576fd8f306697",
                    "gasUsed": 51874,
                    "id": 0,
                    "methodDecoded": true,
                    "operation": "CALL",
                    "output": "0x0000000000000000000000000000000000000000000000000000000000000001",
                    "revert": false,
                    "revertMessage": "",
                    "selector": "0xa9059cbb",
                    "status": true,
                    "value": "0"
                },
                "nodeType": 0
            },
            "1": {
                "event": {
                    "contract": "0x1776e1f26f98b1a5df9cd347953a26dd3cb46671",
                    "decodedLog": {
                        "name": "Transfer",
                        "params": [
                            {
                                "name": "from",
                                "type": "address",
                                "value": "0x769c72349aa599e7f63102cd3e4576fd8f306697"
                            },
                            {
                                "name": "to",
                                "type": "address",
                                "value": "0x0000000000000000000000000000000000002c0f"
                            },
                            {
                                "decimalAvailable": true,
                                "name": "value",
                                "type": "uint256",
                                "value": "190,784,300,000,000,000"
                            }
                        ],
                        "signature": "Transfer(address,address,uint256)"
                    },
                    "id": 1,
                    "logData": "0x00000000000000000000000000000000000000000000000002a5cd4f5e38b800",
                    "logDecoded": true,
                    "operation": "EVENT",
                    "revert": false,
                    "status": true,
                    "topics": [
                        "0xddf252ad1be2c89b69c2b068fc378daa952ba7f163c4a11628f55a4df523b3ef",
                        "0x000000000000000000000000769c72349aa599e7f63102cd3e4576fd8f306697",
                        "0x0000000000000000000000000000000000000000000000000000000000002c0f"
                    ]
                },
                "nodeType": 1
            }
        },
        "gasFlame": [
            {
                "children": [
                    {
                        "children": [
                            {
                                "children": [],
                                "depth": 0,
                                "name": "Initial Gas",
                                "value": 22104
                            },
                            {
                                "children": [],
                                "depth": 0,
                                "name": "Executed Gas",
                                "value": 29770
                            }
                        ],
                        "depth": -1,
                        "name": "Actual Gas Used",
                        "value": 51874
                    },
                    {
                        "children": [],
                        "depth": -1,
                        "name": "Refunded Gas",
                        "value": 0
                    }
                ],
                "depth": -2,
                "name": "Total Gas",
                "value": 51874
            }
        ],
        "isConfirmed": true,
        "mainTrace": [
            {
                "children": [
                    {
                        "children": [
                            {
                                "children": [],
                                "depth": 1,
                                "id": 1,
                                "order": 1
                            }
                        ],
                        "depth": 0,
                        "id": 0,
                        "order": 0
                    }
                ],
                "depth": -1,
                "id": -1,
                "order": -1
            }
        ],
        "mainTraceNodeCount": 2,
        "parentIdMap": {
            "0": -1,
            "1": 0
        },
        "tidyTrace": [
            {
                "children": [
                    {
                        "children": [
                            {
                                "children": [],
                                "depth": 1,
                                "id": 1,
                                "order": 1
                            }
                        ],
                        "depth": 0,
                        "id": 0,
                        "order": 0
                    }
                ],
                "depth": -1,
                "id": -1,
                "order": -1
            }
        ],
        "tidyTraceNodeCount": 2
    },
    "state_change": {
        "stateChanges": [
            {
                "address": "0x1776e1f26f98b1a5df9cd347953a26dd3cb46671",
                "erc": "ERC-20",
                "slots": [
                    {
                        "current": "0x000000000000000000000000000000000000000000002ffff49eaca8f7323c00",
                        "key": "0xa89d2f82bc83d5288059363a9dbab6cdd75f7e79af4b8412c066fb83cfbeb6ed",
                        "prev": "0x000000000000000000000000000000000000000000002ffff74479f8556af400"
                    },
                    {
                        "current": "0x00000000000000000000000000000000000000000000000002a5cd4f5e38b800",
                        "key": "0x13439e0a3e3788225be9282f9aece0760c09426595b4f95142078ac848a647c5",
                        "prev": "0x0000000000000000000000000000000000000000000000000000000000000000"
                    }
                ],
                "storageVariables": []
            }
        ]
    }
}