{
    "balance_change": {
        "balanceChanges": []
    },
    "profile": {
        "basic_info": {
            "baseFee": "",
            "blockNumber": 1204670,
            "callData": "0x75090ebf000000000000000000000000000000000000000000000000000000000048264c00000000000000000000000000000000000000000000000000000000001e848000000000000000000000000000000000000000000000000000000000000000000000000000000000000000000000000000000000000000000000000000000000",
            "debugEnable": true,
            "errorInfo": "",
            "eventCount": 1,
            "feeRecipient": "0xf8b483dba2c3b7176a3da549ad41a48bb3121069",
            "formatValue": "0",
            "gasLimit": 200000,
            "gasPrice": "50",
            "gasUsed": 104928,
            "intTxnCount": 0,
            "internalRevert": false,
            "internalRevertMessage": "",
            "isContractCreation": false,
            "isFlashloan": false,
            "maxFee": "",
            "nonce": 1771,
            "overwritedBlockNumber": -1,
            "priorityFee": "",
            "receiver": "0x3589d05a1ec4af9f65b0e5554e645707775ee43c",
            "revertMessage": "",
            "sender": "0xfc6d284942ac65b21758c40ef87a59ba8be98237",
            "simulationEnable": true,
            "sourceTxnHash": "0x22ba582a7122b4e505d86379a43b007109021a773176efeadfd7ace5995dce53",
            "status": true,
            "timestamp": "2016-03-23T21:22:43Z",
            "transactionFee": "0.0052464",
            "txnHash": "0x22ba582a7122b4e505d86379a43b007109021a773176efeadfd7ace5995dce53",
            "txnIndex": 3,
            "type": 0,
            "value": "0"
        },
        "fund_flow": [],
        "token_infos": [
            {
                "address": "0xc02aaa39b223fe8d0a0e5c4f27ead9083c756cc2",
                "decimals": 18
            },
            {
                "address": "0xeeeeeeeeeeeeeeeeeeeeeeeeeeeeeeeeeeeeeeee",
                "decimals": 18
            }
        ]
    },
    "address_label": {
        "labels": [
            {
                "address": "0xeeeeeeeeeeeeeeeeeeeeeeeeeeeeeeeeeeeeeeee",
                "label": "Ether"
            },
            {
                "address": "0x0000000000000000000000000000000000000000",
                "label": "Null Address"
            },
            {
                "address": "0x0000000000000000000000000000000000000001",
                "label": "Precompiled"
            },
            {
                "address": "0x0000000000000000000000000000000000000002",
                "label": "Precompiled"
            },
            {
                "address": "0x0000000000000000000000000000000000000003",
                "label": "Precompiled"
            },
            {
                "address": "0x0000000000000000000000000000000000000004",
                "label": "Precompiled"
            }
        ]
    },
    "trace": {
        "accountLabels": null,
        "dataMap": {
            "-1": {
                "invocation": {
                    "address": "0xfc6d284942ac65b21758c40ef87a59ba8be98237",
                    "callData": "",
                    "decodedMethod": null,
                    "errorInfo": "",
                    "fromAddress": "",
                    "gasUsed": 0,
                    "id": -1,
                    "methodDecoded": false,
                    "operation": "",
                    "output": "",
                    "revert": false,
                    "revertMessage": "",
                    "selector": "",
                    "status": false,
                    "value": ""
                },
                "nodeType": 0
            },
            "0": {
                "invocation": {
                    "address": "0x3589d05a1ec4af9f65b0e5554e645707775ee43c",
                    "callData": "0x000000000000000000000000000000000000000000000000000000000048264c00000000000000000000000000000000000000000000000000000000001e848000000000000000000000000000000000000000000000000000000000000000000000000000000000000000000000000000000000000000000000000000000000",
                    "decodedMethod": {
                        "callParams": [
                            {
                                "name": "domain",
                                "type": "uint256",
                                "value": "4,728,396"
                            },
                            {
                                "name": "expires",
                                "type": "uint256",
                                "value": "2,000,000"
                            },
                            {
                                "name": "price",
                                "type": "uint256",
                                "value": "0"
                            },
                            {
                                "name": "transfer",
                                "type": "address",
                                "value": "0x0000000000000000000000000000000000000000"
                            }
                        ],
                        "constructorArguments": "",
                        "name": "changeDomain",
                        "returnParams": [],
                        "signature": "changeDomain(uint256,uint256,uint256,address)"
                    },
                    "errorInfo": "",
                    "fromAddress": "0xfc6d284942ac65b21758c40ef87a59ba8be98237",
                    "gasUsed": 104928,
                    "id": 0,
                    "methodDecoded": true,
                    "operation": "CALL",
                    "output": "",
                    "revert": false,
                    "revertMessage": "",
                    "selector": "0x75090ebf",
                    "status": true,
                    "value": "0"
                },
                "nodeType": 0
            },
            "1": {
                "event": {
                    "contract": "0x3589d05a1ec4af9f65b0e5554e645707775ee43c",
                    "decodedLog": {
                        "name": "DomainChanged",
                        "params": [
                            {
                                "name": "sender",
                                "type": "address",
                                "value": "0xfc6d284942ac65b21758c40ef87a59ba8be98237"
                            },
                            {
                                "name": "domain",
                                "type": "uint256",
                                "value": "4,728,396"
                            },
                            {
                                "name": "id",
                                "type": "uint256",
                                "value": "0"
                            }
                        ],
                        "signature": "DomainChanged(address,uint256,uint256)"
                    },
                    "id": 1,
                    "logData": "0x000000000000000000000000000000000000000000000000000000000048264c0000000000000000000000000000000000000000000000000000000000000000",
                    "logDecoded": true,
                    "operation": "EVENT",
                    "revert": false,
                    "status": true,
                    "topics": [
                        "0xf10cb5dcb691bb26c2685b3fd72f4ca4008c33eafd1ee88c27210ef1db722459",
                        "0x000000000000000000000000fc6d284942ac65b21758c40ef87a59ba8be98237"
                    ]
                },
                "nodeType": 1
            }
        },
        "gasFlame": [
            {
                "children": [
                    {
                        "children": [
                            {
                                "children": [],
                                "depth": 0,
                                "name": "Initial Gas",
                                "value": 22168
                            },
                            {
                                "children": [],
                                "depth": 0,
                                "name": "Executed Gas",
                                "value": 82760
                            }
                        ],
                        "depth": -1,
                        "name": "Actual Gas Used",
                        "value": 104928
                    },
                    {
                        "children": [],
                        "depth": -1,
                        "name": "Refunded Gas",
                        "value": 0
                    }
                ],
                "depth": -2,
                "name": "Total Gas",
                "value": 104928
            }
        ],
        "isConfirmed": true,
        "mainTrace": [
            {
                "children": [
                    {
                        "children": [
                            {
                                "children": [],
                                "depth": 1,
                                "id": 1,
                                "order": 1
                            }
                        ],
                        "depth": 0,
                        "id": 0,
                        "order": 0
                    }
                ],
                "depth": -1,
                "id": -1,
                "order": -1
            }
        ],
        "mainTraceNodeCount": 2,
        "parentIdMap": {
            "0": -1,
            "1": 0
        },
        "tidyTrace": [
            {
                "children": [
                    {
                        "children": [
                            {
                                "children": [],
                                "depth": 1,
                                "id": 1,
                                "order": 1
                            }
                        ],
                        "depth": 0,
                        "id": 0,
                        "order": 0
                    }
                ],
                "depth": -1,
                "id": -1,
                "order": -1
            }
        ],
        "tidyTraceNodeCount": 2
    },
    "state_change": {
        "stateChanges": [
            {
                "address": "0x3589d05a1ec4af9f65b0e5554e645707775ee43c",
                "erc": "",
                "slots": [
                    {
                        "current": "0x000000000000000000000000000000000000000000000000000000000000717c",
                        "key": "0x0000000000000000000000000000000000000000000000000000000000000000",
                        "prev": "0x000000000000000000000000000000000000000000000000000000000000717b"
                    },
                    {
                        "current": "0x000000000000000000000000fc6d284942ac65b21758c40ef87a59ba8be98237",
                        "key": "0x16ded58dd2c0e01fb1be859d59e4989c558206ecf0fe9d8c418fabaad9d174fb",
                        "prev": "0x0000000000000000000000000000000000000000000000000000000000000000"
                    },
                    {
                        "current": "0x000000000000000000000000000000000000000000000000000000000030e63e",
                        "key": "0x16ded58dd2c0e01fb1be859d59e4989c558206ecf0fe9d8c418fabaad9d174fc",
                        "prev": "0x0000000000000000000000000000000000000000000000000000000000000000"
                    },
                    {
                        "current": "0x000000000000000000000000000000000000000000000000000000000048264b",
                        "key": "0x16ded58dd2c0e01fb1be859d59e4989c558206ecf0fe9d8c418fabaad9d174ff",
                        "prev": "0x0000000000000000000000000000000000000000000000000000000000000000"
                    },
                    {
                        "current": "0x000000000000000000000000000000000000000000000000000000000048264c",
                        "key": "0x0000000000000000000000000000000000000000000000000000000000000001",
                        "prev": "0x000000000000000000000000000000000000000000000000000000000048264b"
                    }
                ],
                "storageVariables": []
            }
        ]
    }
}