{
    "balance_change": {
        "balanceChanges": [
            {
                "account": "0x7a5dab390f4661d763eb093bcfe94faad993adb7",
                "assets": [
                    {
                        "address": "0xd26114cd6ee289accf82350c8d8487fedb8a0c07",
                        "amount": "2,999",
                        "iconUrl": "https://assets.blocksec.com/icon/33337523e3649cd91abcb0cac0df074ff9512695abafe3958d0a610195d87716.png",
                        "isERC1155": false,
                        "isERC721": false,
                        "sign": false,
                        "value": ""
                    }
                ]
            },
            {
                "account": "0xf545111f268da07439550344d668ab272986778f",
                "assets": [
                    {
                        "address": "0xd26114cd6ee289accf82350c8d8487fedb8a0c07",
                        "amount": "2,999",
                        "iconUrl": "https://assets.blocksec.com/icon/33337523e3649cd91abcb0cac0df074ff9512695abafe3958d0a610195d87716.png",
                        "isERC1155": false,
                        "isERC721": false,
                        "sign": true,
                        "value": ""
                    }
                ]
            }
        ]
    },
    "profile": {
        "basic_info": {
            "baseFee": "",
            "blockNumber": 6261426,
            "callData": "0xa9059cbb000000000000000000000000f545111f268da07439550344d668ab272986778f0000000000000000000000000000000000000000000000a2937c529df47c0000",
            "debugEnable": true,
            "errorInfo": "",
            "eventCount": 1,
            "feeRecipient": "0xea674fdde714fd979de3edf0f56aa9716b898ec8",
            "formatValue": "0",
            "gasLimit": 110000,
            "gasPrice": "60",
            "gasUsed": 22158,
            "intTxnCount": 0,
            "internalRevert": false,
            "internalRevertMessage": "",
            "isContractCreation": false,
            "isFlashloan": false,
            "maxFee": "",
            "nonce": 57,
            "overwritedBlockNumber": -1,
            "priorityFee": "",
            "receiver": "0xd26114cd6ee289accf82350c8d8487fedb8a0c07",
            "revertMessage": "",
            "sender": "0x7a5dab390f4661d763eb093bcfe94faad993adb7",
            "simulationEnable": true,
            "sourceTxnHash": "0x22ef0ae79ae643fb2fea935b4823fe5ed6cb9786123464a18d4a35db077d8bfb",
            "status": true,
            "timestamp": "2018-09-03T00:30:09Z",
            "transactionFee": "0.00132948",
            "txnHash": "0x22ef0ae79ae643fb2fea935b4823fe5ed6cb9786123464a18d4a35db077d8bfb",
            "txnIndex": 2,
            "type": 0,
            "value": "0"
        },
        "fund_flow": [
            {
                "amount": "2,999",
                "from": "0x7a5dab390f4661d763eb093bcfe94faad993adb7",
                "id": 1,
                "isERC1155": false,
                "isERC721": false,
                "isReverted": false,
                "order": 1,
                "to": "0xf545111f268da07439550344d668ab272986778f",
                "token": "0xd26114cd6ee289accf82350c8d8487fedb8a0c07"
            }
        ],
        "token_infos": [
            {
                "address": "0xc02aaa39b223fe8d0a0e5c4f27ead9083c756cc2",
                "decimals": 18
            },
            {
                "address": "0xd26114cd6ee289accf82350c8d8487fedb8a0c07",
                "decimals": 18
            },
            {
                "address": "0xeeeeeeeeeeeeeeeeeeeeeeeeeeeeeeeeeeeeeeee",
                "decimals": 18
            }
        ]
    },
    "address_label": {
        "labels": [
            {
                "address": "0x0000000000000000000000000000000000000003",
                "label": "Precompiled"
            },
            {
                "address": "0x0000000000000000000000000000000000000004",
                "label": "Precompiled"
            },
            {
                "address": "0xeeeeeeeeeeeeeeeeeeeeeeeeeeeeeeeeeeeeeeee",
                "label": "Ether"
            },
            {
                "address": "0xd26114cd6ee289accf82350c8d8487fedb8a0c07",
                "label": "OMG Network: OMG Token"
            },
            {
                "address": "0x0000000000000000000000000000000000000001",
                "label": "Precompiled"
            },
            {
                "address": "0x0000000000000000000000000000000000000002",
                "label": "Precompiled"
            }
        ]
    },
    "trace": {
        "accountLabels": null,
        "dataMap": {
            "-1": {
                "invocation": {
                    "address": "0x7a5dab390f4661d763eb093bcfe94faad993adb7",
                    "callData": "",
                    "decodedMethod": null,
                    "errorInfo": "",
                    "fromAddress": "",
                    "gasUsed": 0,
                    "id": -1,
                    "methodDecoded": false,
                    "operation": "",
                    "output": "",
                    "revert": false,
                    "revertMessage": "",
                    "selector": "",
                    "status": false,
                    "value": ""
                },
                "nodeType": 0
            },
            "0": {
                "invocation": {
                    "address": "0xd26114cd6ee289accf82350c8d8487fedb8a0c07",
                    "callData": "0x000000000000000000000000f545111f268da07439550344d668ab272986778f0000000000000000000000000000000000000000000000a2937c529df47c0000",
                    "decodedMethod": {
                        "callParams": [
                            {
                                "name": "_to",
                                "type": "address",
                                "value": "0xf545111f268da07439550344d668ab272986778f"
                            },
                            {
                                "decimalAvailable": true,
                                "name": "_value",
                                "type": "uint256",
                                "value": "2,999,000,000,000,000,000,000"
                            }
                        ],
                        "constructorArguments": "",
                        "name": "transfer",
                        "returnParams": [],
                        "signature": "transfer(address,uint256)"
                    },
                    "errorInfo": "",
                    "fromAddress": "0x7a5dab390f4661d763eb093bcfe94faad993adb7",
                    "gasUsed": 22158,
                    "id": 0,
                    "methodDecoded": true,
                    "operation": "CALL",
                    "output": "",
                    "revert": false,
                    "revertMessage": "",
                    "selector": "0xa9059cbb",
                    "status": true,
                    "value": "0"
                },
                "nodeType": 0
            },
            "1": {
                "event": {
                    "contract": "0xd26114cd6ee289accf82350c8d8487fedb8a0c07",
                    "decodedLog": {
                        "name": "Transfer",
                        "params": [
                            {
                                "name": "from",
                                "type": "address",
                                "value": "0x7a5dab390f4661d763eb093bcfe94faad993adb7"
                            },
                            {
                                "name": "to",
                                "type": "address",
                                "value": "0xf545111f268da07439550344d668ab272986778f"
                            },
                            {
                                "decimalAvailable": true,
                                "name": "value",
                                "type": "uint256",
                                "value": "2,999,000,000,000,000,000,000"
                            }
                        ],
                        "signature": "Transfer(address,address,uint256)"
                    },
                    "id": 1,
                    "logData": "0x0000000000000000000000000000000000000000000000a2937c529df47c0000",
                    "logDecoded": true,
                    "operation": "EVENT",
                    "revert": false,
                    "status": true,
                    "topics": [
                        "0xddf252ad1be2c89b69c2b068fc378daa952ba7f163c4a11628f55a4df523b3ef",
                        "0x0000000000000000000000007a5dab390f4661d763eb093bcfe94faad993adb7",
                        "0x000000000000000000000000f545111f268da07439550344d668ab272986778f"
                    ]
                },
                "nodeType": 1
            }
        },
        "gasFlame": [
            {
                "children": [
                    {
                        "children": [
                            {
                                "children": [],
                                "depth": 0,
                                "name": "Initial Gas",
                                "value": 23256
                            },
                            {
                                "children": [],
                                "depth": 0,
                                "name": "Executed Gas",
                                "value": 13902
                            }
                        ],
                        "depth": -1,
                        "name": "Actual Gas Used",
                        "value": 22158
                    },
                    {
                        "children": [],
                        "depth": -1,
                        "name": "Refunded Gas",
                        "value": 15000
                    }
                ],
                "depth": -2,
                "name": "Total Gas",
                "value": 37158
            }
        ],
        "isConfirmed": true,
        "mainTrace": [
            {
                "children": [
                    {
                        "children": [
                            {
                                "children": [],
                                "depth": 1,
                                "id": 1,
                                "order": 1
                            }
                        ],
                        "depth": 0,
                        "id": 0,
                        "order": 0
                    }
                ],
                "depth": -1,
                "id": -1,
                "order": -1
            }
        ],
        "mainTraceNodeCount": 2,
        "parentIdMap": {
            "0": -1,
            "1": 0
        },
        "tidyTrace": [
            {
                "children": [
                    {
                        "children": [
                            {
                                "children": [],
                                "depth": 1,
                                "id": 1,
                                "order": 1
                            }
                        ],
                        "depth": 0,
                        "id": 0,
                        "order": 0
                    }
                ],
                "depth": -1,
                "id": -1,
                "order": -1
            }
        ],
        "tidyTraceNodeCount": 2
    },
    "state_change": {
        "stateChanges": [
            {
                "address": "0xd26114cd6ee289accf82350c8d8487fedb8a0c07",
                "erc": "ERC-20",
                "slots": [
                    {
                        "current": "0x0000000000000000000000000000000000000000000000000000000000000000",
                        "key": "0x547a14dfcc4aa93445760b2cdb34691e61590a27b20a2d0dfefcadbc25ffd609",
                        "prev": "0x0000000000000000000000000000000000000000000000a2937c529df47c0000"
                    },
                    {
                        "current": "0x0000000000000000000000000000000000000000000010bbad00e62ab8c09908",
                        "key": "0xf9cced1a46206788626f532bd080109601a750f295fe8d30e647df9bfbfc72a9",
                        "prev": "0x0000000000000000000000000000000000000000000010191984938cc4449908"
                    }
                ],
                "storageVariables": []
            }
        ]
    }
}