{
    "balance_change": {
        "balanceChanges": [
            {
                "account": "0x1006c02024ddc3b0884a65c029df6580b01abce7",
                "assets": [
                    {
                        "address": "0xeeeeeeeeeeeeeeeeeeeeeeeeeeeeeeeeeeeeeeee",
                        "amount": "0.03",
                        "iconUrl": "https://assets.blocksec.com/image/1663669189317-3.png",
                        "isERC1155": false,
                        "isERC721": false,
                        "sign": false,
                        "value": "50.96743568999999752"
                    },
                    {
                        "address": "0x32f2a60942e7563cfc42766018641c6c6b10830e",
                        "amount": "1",
                        "iconUrl": "",
                        "isERC1155": false,
                        "isERC721": true,
                        "sign": true,
                        "tokenID": "3029",
                        "value": ""
                    }
                ]
            },
            {
                "account": "0x0000a26b00c1f0df003000390027140000faa719",
                "assets": [
                    {
                        "address": "0xeeeeeeeeeeeeeeeeeeeeeeeeeeeeeeeeeeeeeeee",
                        "amount": "0.00075",
                        "iconUrl": "https://assets.blocksec.com/image/1663669189317-3.png",
                        "isERC1155": false,
                        "isERC721": false,
                        "sign": true,
                        "value": "1.274185892249999938"
                    }
                ]
            },
            {
                "account": "0x9a86c0b064171007716bbd6af96676935799a63e",
                "assets": [
                    {
                        "address": "0xeeeeeeeeeeeeeeeeeeeeeeeeeeeeeeeeeeeeeeee",
                        "amount": "0.00165",
                        "iconUrl": "https://assets.blocksec.com/image/1663669189317-3.png",
                        "isERC1155": false,
                        "isERC721": false,
                        "sign": true,
                        "value": "2.8032089629499998636"
                    }
                ]
            },
            {
                "account": "0x9fb7563a1969f034e8feb83e499c967d31538e86",
                "assets": [
                    {
                        "address": "0x32f2a60942e7563cfc42766018641c6c6b10830e",
                        "amount": "1",
                        "iconUrl": "",
                        "isERC1155": false,
                        "isERC721": true,
                        "sign": false,
                        "tokenID": "3029",
                        "value": ""
                    },
                    {
                        "address": "0xeeeeeeeeeeeeeeeeeeeeeeeeeeeeeeeeeeeeeeee",
                        "amount": "0.0276",
                        "iconUrl": "https://assets.blocksec.com/image/1663669189317-3.png",
                        "isERC1155": false,
                        "isERC721": false,
                        "sign": true,
                        "value": "46.89004083479999772"
                    }
                ]
            }
        ]
    },
    "profile": {
        "basic_info": {
            "baseFee": "8.156882444",
            "blockNumber": 15432331,
            "callData": "0xfb0f3ee100000000000000000000000000000000000000000000000000000000000000200000000000000000000000000000000000000000000000000000000000000000000000000000000000000000000000000000000000000000000000000000000000000000000000000000000000000000000000000000000000620e0dc3cd00000000000000000000000000009fb7563a1969f034e8feb83e499c967d31538e86000000000000000000000000004c00500000ad104d7dbd00e3ae0a5c00560c0000000000000000000000000032f2a60942e7563cfc42766018641c6c6b10830e0000000000000000000000000000000000000000000000000000000000000bd50000000000000000000000000000000000000000000000000000000000000001000000000000000000000000000000000000000000000000000000000000000200000000000000000000000000000000000000000000000000000000630a52040000000000000000000000000000000000000000000000000000000063333084000000000000000000000000000000000000000000000000000000000000000000000000000000000000000000000000000000000000000000393b70bedce1500000007b02230091a7ed01230072f7006a004d60a8d4e71d599b8104250f000000000000000000000000000000000000000000000000000000000000000000000000000000000000000000000000000000000000000000000000000000000002000000000000000000000000000000000000000000000000000000000000024000000000000000000000000000000000000000000000000000000000000002e000000000000000000000000000000000000000000000000000000000000000020000000000000000000000000000000000000000000000000002aa1efb94e0000000000000000000000000000000a26b00c1f0df003000390027140000faa7190000000000000000000000000000000000000000000000000005dcaa8fe120000000000000000000000000009a86c0b064171007716bbd6af96676935799a63e000000000000000000000000000000000000000000000000000000000000004104b3975330f7fdfddafea625992af233ba51b9ca6337b40ac3768ddecc04b6f564fd896e1130aa3b094501bbd73180d65aa8e04a3da10a80097f5c99b021aeba1b00000000000000000000000000000000000000000000000000000000000000",
            "debugEnable": true,
            "errorInfo": "",
            "eventCount": 3,
            "feeRecipient": "0xc730b028da66ebb14f20e67c68dd809fbc49890d",
            "formatValue": "0.03",
            "gasLimit": 190376,
            "gasPrice": "9.656882444",
            "gasUsed": 175805,
            "intTxnCount": 7,
            "internalRevert": false,
            "internalRevertMessage": "",
            "isContractCreation": false,
            "isFlashloan": false,
            "maxFee": "14.106504883",
            "nonce": 268,
            "overwritedBlockNumber": -1,
            "priorityFee": "1.5",
            "receiver": "0x00000000006c3852cbef3e08e8df289169ede581",
            "revertMessage": "",
            "sender": "0x1006c02024ddc3b0884a65c029df6580b01abce7",
            "simulationEnable": true,
            "sourceTxnHash": "0x226e320f461426ea2587a1647a21329d49a8c31de0ac28871b6fe6f0080f0cde",
            "status": true,
            "timestamp": "2022-08-29T05:38:19Z",
            "transactionFee": "0.00169772821806742",
            "txnHash": "0x226e320f461426ea2587a1647a21329d49a8c31de0ac28871b6fe6f0080f0cde",
            "txnIndex": 193,
            "type": 2,
            "value": "30000000000000000"
        },
        "fund_flow": [
            {
                "amount": "0.03",
                "from": "0x1006c02024ddc3b0884a65c029df6580b01abce7",
                "id": 1,
                "isERC1155": false,
                "isERC721": false,
                "isReverted": false,
                "order": 1,
                "to": "0x00000000006c3852cbef3e08e8df289169ede581",
                "token": "0xeeeeeeeeeeeeeeeeeeeeeeeeeeeeeeeeeeeeeeee"
            },
            {
                "amount": "1",
                "from": "0x9fb7563a1969f034e8feb83e499c967d31538e86",
                "id": 2,
                "isERC1155": false,
                "isERC721": true,
                "isReverted": false,
                "order": 2,
                "to": "0x1006c02024ddc3b0884a65c029df6580b01abce7",
                "token": "0x32f2a60942e7563cfc42766018641c6c6b10830e",
                "tokenID": "3029"
            },
            {
                "amount": "0.00075",
                "from": "0x00000000006c3852cbef3e08e8df289169ede581",
                "id": 3,
                "isERC1155": false,
                "isERC721": false,
                "isReverted": false,
                "order": 3,
                "to": "0x0000a26b00c1f0df003000390027140000faa719",
                "token": "0xeeeeeeeeeeeeeeeeeeeeeeeeeeeeeeeeeeeeeeee"
            },
            {
                "amount": "0.00165",
                "from": "0x00000000006c3852cbef3e08e8df289169ede581",
                "id": 4,
                "isERC1155": false,
                "isERC721": false,
                "isReverted": false,
                "order": 4,
                "to": "0x9a86c0b064171007716bbd6af96676935799a63e",
                "token": "0xeeeeeeeeeeeeeeeeeeeeeeeeeeeeeeeeeeeeeeee"
            },
            {
                "amount": "0.0276",
                "from": "0x00000000006c3852cbef3e08e8df289169ede581",
                "id": 5,
                "isERC1155": false,
                "isERC721": false,
                "isReverted": false,
                "order": 5,
                "to": "0x9fb7563a1969f034e8feb83e499c967d31538e86",
                "token": "0xeeeeeeeeeeeeeeeeeeeeeeeeeeeeeeeeeeeeeeee"
            }
        ],
        "token_infos": [
            {
                "address": "0xc02aaa39b223fe8d0a0e5c4f27ead9083c756cc2",
                "decimals": 18
            },
            {
                "address": "0xeeeeeeeeeeeeeeeeeeeeeeeeeeeeeeeeeeeeeeee",
                "decimals": 18
            }
        ]
    },
    "address_label": {
        "labels": [
            {
                "address": "0x0000000000000000000000000000000000000003",
                "label": "Precompiled"
            },
            {
                "address": "0x0000000000000000000000000000000000000004",
                "label": "Precompiled"
            },
            {
                "address": "0x0000a26b00c1f0df003000390027140000faa719",
                "label": "OpenSea: Fees 3"
            },
            {
                "address": "0x00000000006c3852cbef3e08e8df289169ede581",
                "label": "Seaport 1.1"
            },
            {
                "address": "0x0000000000000000000000000000000000000001",
                "label": "Precompiled"
            },
            {
                "address": "0x0000000000000000000000000000000000000002",
                "label": "Precompiled"
            },
            {
                "address": "0x004c00500000ad104d7dbd00e3ae0a5c00560c00",
                "label": "OpenSea: Pausable Zone"
            },
            {
                "address": "0xeeeeeeeeeeeeeeeeeeeeeeeeeeeeeeeeeeeeeeee",
                "label": "Ether"
            },
            {
                "address": "0x32f2a60942e7563cfc42766018641c6c6b10830e",
                "label": "Karafuru x HYPEBEAST x atmos: KARA-3D Token"
            },
            {
                "address": "0x1e0049783f008a0085193e00003d00cd54003c71",
                "label": "OpenSea: Conduit"
            },
            {
                "address": "0x0000000000000000000000000000000000000000",
                "label": "Null Address"
            }
        ]
    },
    "trace": {
        "accountLabels": null,
        "dataMap": {
            "-1": {
                "invocation": {
                    "address": "0x1006c02024ddc3b0884a65c029df6580b01abce7",
                    "callData": "",
                    "decodedMethod": null,
                    "errorInfo": "",
                    "fromAddress": "",
                    "gasUsed": 0,
                    "id": -1,
                    "methodDecoded": false,
                    "operation": "",
                    "output": "",
                    "revert": false,
                    "revertMessage": "",
                    "selector": "",
                    "status": false,
                    "value": ""
                },
                "nodeType": 0
            },
            "0": {
                "invocation": {
                    "address": "0x00000000006c3852cbef3e08e8df289169ede581",
                    "callData": "0x00000000000000000000000000000000000000000000000000000000000000200000000000000000000000000000000000000000000000000000000000000000000000000000000000000000000000000000000000000000000000000000000000000000000000000000000000000000000000000000000000620e0dc3cd00000000000000000000000000009fb7563a1969f034e8feb83e499c967d31538e86000000000000000000000000004c00500000ad104d7dbd00e3ae0a5c00560c0000000000000000000000000032f2a60942e7563cfc42766018641c6c6b10830e0000000000000000000000000000000000000000000000000000000000000bd50000000000000000000000000000000000000000000000000000000000000001000000000000000000000000000000000000000000000000000000000000000200000000000000000000000000000000000000000000000000000000630a52040000000000000000000000000000000000000000000000000000000063333084000000000000000000000000000000000000000000000000000000000000000000000000000000000000000000000000000000000000000000393b70bedce1500000007b02230091a7ed01230072f7006a004d60a8d4e71d599b8104250f000000000000000000000000000000000000000000000000000000000000000000000000000000000000000000000000000000000000000000000000000000000002000000000000000000000000000000000000000000000000000000000000024000000000000000000000000000000000000000000000000000000000000002e000000000000000000000000000000000000000000000000000000000000000020000000000000000000000000000000000000000000000000002aa1efb94e0000000000000000000000000000000a26b00c1f0df003000390027140000faa7190000000000000000000000000000000000000000000000000005dcaa8fe120000000000000000000000000009a86c0b064171007716bbd6af96676935799a63e000000000000000000000000000000000000000000000000000000000000004104b3975330f7fdfddafea625992af233ba51b9ca6337b40ac3768ddecc04b6f564fd896e1130aa3b094501bbd73180d65aa8e04a3da10a80097f5c99b021aeba1b00000000000000000000000000000000000000000000000000000000000000",
                    "decodedMethod": {
                        "callParams": [
                            {
                                "name": "parameters",
                                "type": "(address,uint256,uint256,address,address,address,uint256,uint256,uint8,uint256,uint256,bytes32,uint256,bytes32,bytes32,uint256,(uint256,address)[],bytes)",
                                "value": [
                                    {
                                        "name": "considerationToken",
                                        "type": "address",
                                        "value": "0x0000000000000000000000000000000000000000"
                                    },
                                    {
                                        "name": "considerationIdentifier",
                                        "type": "uint256",
                                        "value": "0"
                                    },
                                    {
                                        "name": "considerationAmount",
                                        "type": "uint256",
                                        "value": "27,600,000,000,000,000"
                                    },
                                    {
                                        "name": "offerer",
                                        "type": "address",
                                        "value": "0x9fb7563a1969f034e8feb83e499c967d31538e86"
                                    },
                                    {
                                        "name": "zone",
                                        "type": "address",
                                        "value": "0x004c00500000ad104d7dbd00e3ae0a5c00560c00"
                                    },
                                    {
                                        "name": "offerToken",
                                        "type": "address",
                                        "value": "0x32f2a60942e7563cfc42766018641c6c6b10830e"
                                    },
                                    {
                                        "name": "offerIdentifier",
                                        "type": "uint256",
                                        "value": "3,029"
                                    },
                                    {
                                        "name": "offerAmount",
                                        "type": "uint256",
                                        "value": "1"
                                    },
                                    {
                                        "name": "basicOrderType",
                                        "type": "uint8",
                                        "value": "2"
                                    },
                                    {
                                        "name": "startTime",
                                        "type": "uint256",
                                        "value": "1,661,620,740"
                                    },
                                    {
                                        "name": "endTime",
                                        "type": "uint256",
                                        "value": "1,664,299,140"
                                    },
                                    {
                                        "name": "zoneHash",
                                        "type": "bytes32",
                                        "value": "0x0000000000000000000000000000000000000000000000000000000000000000"
                                    },
                                    {
                                        "name": "salt",
                                        "type": "uint256",
                                        "value": "16,109,429,097,029,968"
                                    },
                                    {
                                        "name": "offererConduitKey",
                                        "type": "bytes32",
                                        "value": "0x0000007b02230091a7ed01230072f7006a004d60a8d4e71d599b8104250f0000"
                                    },
                                    {
                                        "name": "fulfillerConduitKey",
                                        "type": "bytes32",
                                        "value": "0x0000000000000000000000000000000000000000000000000000000000000000"
                                    },
                                    {
                                        "name": "totalOriginalAdditionalRecipients",
                                        "type": "uint256",
                                        "value": "2"
                                    },
                                    {
                                        "name": "additionalRecipients",
                                        "type": "(uint256,address)[]",
                                        "value": [
                                            [
                                                {
                                                    "name": "amount",
                                                    "type": "uint256",
                                                    "value": "750,000,000,000,000"
                                                },
                                                {
                                                    "name": "recipient",
                                                    "type": "address",
                                                    "value": "0x0000a26b00c1f0df003000390027140000faa719"
                                                }
                                            ],
                                            [
                                                {
                                                    "name": "amount",
                                                    "type": "uint256",
                                                    "value": "1,650,000,000,000,000"
                                                },
                                                {
                                                    "name": "recipient",
                                                    "type": "address",
                                                    "value": "0x9a86c0b064171007716bbd6af96676935799a63e"
                                                }
                                            ]
                                        ]
                                    },
                                    {
                                        "name": "signature",
                                        "type": "bytes",
                                        "value": "0x04b3975330f7fdfddafea625992af233ba51b9ca6337b40ac3768ddecc04b6f564fd896e1130aa3b094501bbd73180d65aa8e04a3da10a80097f5c99b021aeba1b"
                                    }
                                ]
                            }
                        ],
                        "constructorArguments": "",
                        "name": "fulfillBasicOrder",
                        "returnParams": [
                            {
                                "name": "fulfilled",
                                "type": "bool",
                                "value": true
                            }
                        ],
                        "signature": "fulfillBasicOrder((address,uint256,uint256,address,address,address,uint256,uint256,uint8,uint256,uint256,bytes32,uint256,bytes32,bytes32,uint256,(uint256,address)[],bytes))"
                    },
                    "errorInfo": "",
                    "fromAddress": "0x1006c02024ddc3b0884a65c029df6580b01abce7",
                    "gasUsed": 175805,
                    "id": 0,
                    "methodDecoded": true,
                    "operation": "CALL",
                    "output": "0x0000000000000000000000000000000000000000000000000000000000000001",
                    "revert": false,
                    "revertMessage": "",
                    "selector": "0xfb0f3ee1",
                    "status": true,
                    "value": "0.03"
                },
                "nodeType": 0
            },
            "1": {
                "event": {
                    "contract": "0x00000000006c3852cbef3e08e8df289169ede581",
                    "decodedLog": {
                        "name": "OrderFulfilled",
                        "params": [
                            {
                                "name": "offerer",
                                "type": "address",
                                "value": "0x9fb7563a1969f034e8feb83e499c967d31538e86"
                            },
                            {
                                "name": "zone",
                                "type": "address",
                                "value": "0x004c00500000ad104d7dbd00e3ae0a5c00560c00"
                            },
                            {
                                "name": "orderHash",
                                "type": "bytes32",
                                "value": "0xa6e7c27f59b1318d96563f0918f58f3ca2440590afb50dd5a0758041f2dfbeb1"
                            },
                            {
                                "name": "recipient",
                                "type": "address",
                                "value": "0x1006c02024ddc3b0884a65c029df6580b01abce7"
                            },
                            {
                                "name": "offer",
                                "type": "(uint8,address,uint256,uint256)[]",
                                "value": [
                                    [
                                        {
                                            "name": "itemType",
                                            "type": "uint8",
                                            "value": "2"
                                        },
                                        {
                                            "name": "token",
                                            "type": "address",
                                            "value": "0x32f2a60942e7563cfc42766018641c6c6b10830e"
                                        },
                                        {
                                            "name": "identifier",
                                            "type": "uint256",
                                            "value": "3,029"
                                        },
                                        {
                                            "name": "amount",
                                            "type": "uint256",
                                            "value": "1"
                                        }
                                    ]
                                ]
                            },
                            {
                                "name": "consideration",
                                "type": "(uint8,address,uint256,uint256,address)[]",
                                "value": [
                                    [
                                        {
                                            "name": "itemType",
                                            "type": "uint8",
                                            "value": "0"
                                        },
                                        {
                                            "name": "token",
                                            "type": "address",
                                            "value": "0x0000000000000000000000000000000000000000"
                                        },
                                        {
                                            "name": "identifier",
                                            "type": "uint256",
                                            "value": "0"
                                        },
                                        {
                                            "name": "amount",
                                            "type": "uint256",
                                            "value": "27,600,000,000,000,000"
                                        },
                                        {
                                            "name": "recipient",
                                            "type": "address",
                                            "value": "0x9fb7563a1969f034e8feb83e499c967d31538e86"
                                        }
                                    ],
                                    [
                                        {
                                            "name": "itemType",
                                            "type": "uint8",
                                            "value": "0"
                                        },
                                        {
                                            "name": "token",
                                            "type": "address",
                                            "value": "0x0000000000000000000000000000000000000000"
                                        },
                                        {
                                            "name": "identifier",
                                            "type": "uint256",
                                            "value": "0"
                                        },
                                        {
                                            "name": "amount",
                                            "type": "uint256",
                                            "value": "750,000,000,000,000"
                                        },
                                        {
                                            "name": "recipient",
                                            "type": "address",
                                            "value": "0x0000a26b00c1f0df003000390027140000faa719"
                                        }
                                    ],
                                    [
                                        {
                                            "name": "itemType",
                                            "type": "uint8",
                                            "value": "0"
                                        },
                                        {
                                            "name": "token",
                                            "type": "address",
                                            "value": "0x0000000000000000000000000000000000000000"
                                        },
                                        {
                                            "name": "identifier",
                                            "type": "uint256",
                                            "value": "0"
                                        },
                                        {
                                            "name": "amount",
                                            "type": "uint256",
                                            "value": "1,650,000,000,000,000"
                                        },
                                        {
                                            "name": "recipient",
                                            "type": "address",
                                            "value": "0x9a86c0b064171007716bbd6af96676935799a63e"
                                        }
                                    ]
                                ]
                            }
                        ],
                        "signature": "OrderFulfilled(bytes32,address,address,address,(uint8,address,uint256,uint256)[],(uint8,address,uint256,uint256,address)[])"
                    },
                    "id": 1,
                    "logData": "0xa6e7c27f59b1318d96563f0918f58f3ca2440590afb50dd5a0758041f2dfbeb10000000000000000000000001006c02024ddc3b0884a65c029df6580b01abce7000000000000000000000000000000000000000000000000000000000000008000000000000000000000000000000000000000000000000000000000000001200000000000000000000000000000000000000000000000000000000000000001000000000000000000000000000000000000000000000000000000000000000200000000000000000000000032f2a60942e7563cfc42766018641c6c6b10830e0000000000000000000000000000000000000000000000000000000000000bd50000000000000000000000000000000000000000000000000000000000000001000000000000000000000000000000000000000000000000000000000000000300000000000000000000000000000000000000000000000000000000000000000000000000000000000000000000000000000000000000000000000000000000000000000000000000000000000000000000000000000000000000000000000000000000000000000000000000000000000000000000000000620e0dc3cd00000000000000000000000000009fb7563a1969f034e8feb83e499c967d31538e860000000000000000000000000000000000000000000000000000000000000000000000000000000000000000000000000000000000000000000000000000000000000000000000000000000000000000000000000000000000000000000000000000000000000000000000000000000000000000000000000002aa1efb94e0000000000000000000000000000000a26b00c1f0df003000390027140000faa7190000000000000000000000000000000000000000000000000000000000000000000000000000000000000000000000000000000000000000000000000000000000000000000000000000000000000000000000000000000000000000000000000000000000000000000000000000000000000000000000000005dcaa8fe120000000000000000000000000009a86c0b064171007716bbd6af96676935799a63e",
                    "logDecoded": true,
                    "operation": "EVENT",
                    "revert": false,
                    "status": true,
                    "topics": [
                        "0x9d9af8e38d66c62e2c12f0225249fd9d721c54b83f48d9352c97c6cacdcb6f31",
                        "0x0000000000000000000000009fb7563a1969f034e8feb83e499c967d31538e86",
                        "0x000000000000000000000000004c00500000ad104d7dbd00e3ae0a5c00560c00"
                    ]
                },
                "nodeType": 1
            },
            "10": {
                "invocation": {
                    "address": "0x9fb7563a1969f034e8feb83e499c967d31538e86",
                    "callData": "0x",
                    "decodedMethod": null,
                    "errorInfo": "",
                    "fromAddress": "0x00000000006c3852cbef3e08e8df289169ede581",
                    "gasUsed": 0,
                    "id": 10,
                    "methodDecoded": false,
                    "operation": "CALL",
                    "output": "",
                    "revert": false,
                    "revertMessage": "",
                    "selector": "fallback",
                    "status": true,
                    "value": "0.0276"
                },
                "nodeType": 0
            },
            "2": {
                "invocation": {
                    "address": "0x004c00500000ad104d7dbd00e3ae0a5c00560c00",
                    "callData": "0xa6e7c27f59b1318d96563f0918f58f3ca2440590afb50dd5a0758041f2dfbeb10000000000000000000000001006c02024ddc3b0884a65c029df6580b01abce70000000000000000000000009fb7563a1969f034e8feb83e499c967d31538e860000000000000000000000000000000000000000000000000000000000000000",
                    "decodedMethod": {
                        "callParams": [
                            {
                                "name": "orderHash",
                                "type": "bytes32",
                                "value": "0xa6e7c27f59b1318d96563f0918f58f3ca2440590afb50dd5a0758041f2dfbeb1"
                            },
                            {
                                "name": "caller",
                                "type": "address",
                                "value": "0x1006c02024ddc3b0884a65c029df6580b01abce7"
                            },
                            {
                                "name": "offerer",
                                "type": "address",
                                "value": "0x9fb7563a1969f034e8feb83e499c967d31538e86"
                            },
                            {
                                "name": "zoneHash",
                                "type": "bytes32",
                                "value": "0x0000000000000000000000000000000000000000000000000000000000000000"
                            }
                        ],
                        "constructorArguments": "",
                        "name": "isValidOrder",
                        "returnParams": [
                            {
                                "name": "validOrderMagicValue",
                                "type": "bytes4",
                                "value": "0x0e1d31dc"
                            }
                        ],
                        "signature": "isValidOrder(bytes32,address,address,bytes32)"
                    },
                    "errorInfo": "",
                    "fromAddress": "0x00000000006c3852cbef3e08e8df289169ede581",
                    "gasUsed": 257,
                    "id": 2,
                    "methodDecoded": true,
                    "operation": "STATICCALL",
                    "output": "0x0e1d31dc00000000000000000000000000000000000000000000000000000000",
                    "revert": false,
                    "revertMessage": "",
                    "selector": "0x0e1d31dc",
                    "status": true,
                    "value": "0"
                },
                "nodeType": 0
            },
            "3": {
                "invocation": {
                    "address": "0x0000000000000000000000000000000000000001",
                    "callData": "0xac3b6ce7c3e913dd4d7a4cf9634159dccbe337765e89fbec6448b4d1000000000000000000000000000000000000000000000000000000000000001b04b3975330f7fdfddafea625992af233ba51b9ca6337b40ac3768ddecc04b6f564fd896e1130aa3b094501bbd73180d65aa8e04a3da10a80097f5c99b021aeba",
                    "decodedMethod": {
                        "callParams": [
                            {
                                "name": "hash",
                                "type": "bytes32",
                                "value": "0xf4c9a28bac3b6ce7c3e913dd4d7a4cf9634159dccbe337765e89fbec6448b4d1"
                            },
                            {
                                "name": "v",
                                "type": "uint256",
                                "value": "27"
                            },
                            {
                                "name": "r",
                                "type": "bytes32",
                                "value": "0x04b3975330f7fdfddafea625992af233ba51b9ca6337b40ac3768ddecc04b6f5"
                            },
                            {
                                "name": "s",
                                "type": "bytes32",
                                "value": "0x64fd896e1130aa3b094501bbd73180d65aa8e04a3da10a80097f5c99b021aeba"
                            }
                        ],
                        "constructorArguments": "",
                        "name": "ecrecover",
                        "returnParams": [
                            {
                                "name": "",
                                "type": "address",
                                "value": "0x9fb7563a1969f034e8feb83e499c967d31538e86"
                            }
                        ],
                        "signature": "ecrecover(bytes32,uint256,bytes32,bytes32)"
                    },
                    "errorInfo": "",
                    "fromAddress": "0x00000000006c3852cbef3e08e8df289169ede581",
                    "gasUsed": 3000,
                    "id": 3,
                    "methodDecoded": true,
                    "operation": "STATICCALL",
                    "output": "0x0000000000000000000000009fb7563a1969f034e8feb83e499c967d31538e86",
                    "revert": false,
                    "revertMessage": "",
                    "selector": "0xf4c9a28b",
                    "status": true,
                    "value": "0"
                },
                "nodeType": 0
            },
            "4": {
                "invocation": {
                    "address": "0x1e0049783f008a0085193e00003d00cd54003c71",
                    "callData": "0x00000000000000000000000000000000000000000000000000000000000000200000000000000000000000000000000000000000000000000000000000000001000000000000000000000000000000000000000000000000000000000000000200000000000000000000000032f2a60942e7563cfc42766018641c6c6b10830e0000000000000000000000009fb7563a1969f034e8feb83e499c967d31538e860000000000000000000000001006c02024ddc3b0884a65c029df6580b01abce70000000000000000000000000000000000000000000000000000000000000bd50000000000000000000000000000000000000000000000000000000000000001",
                    "decodedMethod": {
                        "callParams": [
                            {
                                "name": "transfers",
                                "type": "(uint8,address,address,address,uint256,uint256)[]",
                                "value": [
                                    [
                                        {
                                            "name": "itemType",
                                            "type": "uint8",
                                            "value": "2"
                                        },
                                        {
                                            "name": "token",
                                            "type": "address",
                                            "value": "0x32f2a60942e7563cfc42766018641c6c6b10830e"
                                        },
                                        {
                                            "name": "from",
                                            "type": "address",
                                            "value": "0x9fb7563a1969f034e8feb83e499c967d31538e86"
                                        },
                                        {
                                            "name": "to",
                                            "type": "address",
                                            "value": "0x1006c02024ddc3b0884a65c029df6580b01abce7"
                                        },
                                        {
                                            "name": "identifier",
                                            "type": "uint256",
                                            "value": "3,029"
                                        },
                                        {
                                            "name": "amount",
                                            "type": "uint256",
                                            "value": "1"
                                        }
                                    ]
                                ]
                            }
                        ],
                        "constructorArguments": "",
                        "name": "execute",
                        "returnParams": [
                            {
                                "name": "magicValue",
                                "type": "bytes4",
                                "value": "0x4ce34aa2"
                            }
                        ],
                        "signature": "execute((uint8,address,address,address,uint256,uint256)[])"
                    },
                    "errorInfo": "",
                    "fromAddress": "0x00000000006c3852cbef3e08e8df289169ede581",
                    "gasUsed": 79727,
                    "id": 4,
                    "methodDecoded": true,
                    "operation": "CALL",
                    "output": "0x4ce34aa200000000000000000000000000000000000000000000000000000000",
                    "revert": false,
                    "revertMessage": "",
                    "selector": "0x4ce34aa2",
                    "status": true,
                    "value": "0"
                },
                "nodeType": 0
            },
            "5": {
                "invocation": {
                    "address": "0x32f2a60942e7563cfc42766018641c6c6b10830e",
                    "callData": "0x0000000000000000000000009fb7563a1969f034e8feb83e499c967d31538e860000000000000000000000001006c02024ddc3b0884a65c029df6580b01abce70000000000000000000000000000000000000000000000000000000000000bd5",
                    "decodedMethod": {
                        "callParams": [
                            {
                                "name": "from",
                                "type": "address",
                                "value": "0x9fb7563a1969f034e8feb83e499c967d31538e86"
                            },
                            {
                                "name": "to",
                                "type": "address",
                                "value": "0x1006c02024ddc3b0884a65c029df6580b01abce7"
                            },
                            {
                                "decimalAvailable": true,
                                "name": "tokenId",
                                "type": "uint256",
                                "value": "3,029"
                            }
                        ],
                        "constructorArguments": "",
                        "name": "transferFrom",
                        "returnParams": [],
                        "signature": "transferFrom(address,address,uint256)"
                    },
                    "errorInfo": "",
                    "fromAddress": "0x1e0049783f008a0085193e00003d00cd54003c71",
                    "gasUsed": 73611,
                    "id": 5,
                    "methodDecoded": true,
                    "operation": "CALL",
                    "output": "",
                    "revert": false,
                    "revertMessage": "",
                    "selector": "0x23b872dd",
                    "status": true,
                    "value": "0"
                },
                "nodeType": 0
            },
            "6": {
                "event": {
                    "contract": "0x32f2a60942e7563cfc42766018641c6c6b10830e",
                    "decodedLog": {
                        "name": "Approval",
                        "params": [
                            {
                                "name": "owner",
                                "type": "address",
                                "value": "0x9fb7563a1969f034e8feb83e499c967d31538e86"
                            },
                            {
                                "name": "approved",
                                "type": "address",
                                "value": "0x0000000000000000000000000000000000000000"
                            },
                            {
                                "decimalAvailable": true,
                                "name": "tokenId",
                                "type": "uint256",
                                "value": "3,029"
                            }
                        ],
                        "signature": "Approval(address,address,uint256)"
                    },
                    "id": 6,
                    "logData": "0x",
                    "logDecoded": true,
                    "operation": "EVENT",
                    "revert": false,
                    "status": true,
                    "topics": [
                        "0x8c5be1e5ebec7d5bd14f71427d1e84f3dd0314c0f7b2291e5b200ac8c7c3b925",
                        "0x0000000000000000000000009fb7563a1969f034e8feb83e499c967d31538e86",
                        "0x0000000000000000000000000000000000000000000000000000000000000000",
                        "0x0000000000000000000000000000000000000000000000000000000000000bd5"
                    ]
                },
                "nodeType": 1
            },
            "7": {
                "event": {
                    "contract": "0x32f2a60942e7563cfc42766018641c6c6b10830e",
                    "decodedLog": {
                        "name": "Transfer",
                        "params": [
                            {
                                "name": "from",
                                "type": "address",
                                "value": "0x9fb7563a1969f034e8feb83e499c967d31538e86"
                            },
                            {
                                "name": "to",
                                "type": "address",
                                "value": "0x1006c02024ddc3b0884a65c029df6580b01abce7"
                            },
                            {
                                "decimalAvailable": true,
                                "name": "tokenId",
                                "type": "uint256",
                                "value": "3,029"
                            }
                        ],
                        "signature": "Transfer(address,address,uint256)"
                    },
                    "id": 7,
                    "logData": "0x",
                    "logDecoded": true,
                    "operation": "EVENT",
                    "revert": false,
                    "status": true,
                    "topics": [
                        "0xddf252ad1be2c89b69c2b068fc378daa952ba7f163c4a11628f55a4df523b3ef",
                        "0x0000000000000000000000009fb7563a1969f034e8feb83e499c967d31538e86",
                        "0x0000000000000000000000001006c02024ddc3b0884a65c029df6580b01abce7",
                        "0x0000000000000000000000000000000000000000000000000000000000000bd5"
                    ]
                },
                "nodeType": 1
            },
            "8": {
                "invocation": {
                    "address": "0x0000a26b00c1f0df003000390027140000faa719",
                    "callData": "0x",
                    "decodedMethod": null,
                    "errorInfo": "",
                    "fromAddress": "0x00000000006c3852cbef3e08e8df289169ede581",
                    "gasUsed": 85,
                    "id": 8,
                    "methodDecoded": false,
                    "operation": "CALL",
                    "output": "",
                    "revert": false,
                    "revertMessage": "",
                    "selector": "fallback",
                    "status": true,
                    "value": "0.00075"
                },
                "nodeType": 0
            },
            "9": {
                "invocation": {
                    "address": "0x9a86c0b064171007716bbd6af96676935799a63e",
                    "callData": "0x",
                    "decodedMethod": null,
                    "errorInfo": "",
                    "fromAddress": "0x00000000006c3852cbef3e08e8df289169ede581",
                    "gasUsed": 0,
                    "id": 9,
                    "methodDecoded": false,
                    "operation": "CALL",
                    "output": "",
                    "revert": false,
                    "revertMessage": "",
                    "selector": "fallback",
                    "status": true,
                    "value": "0.00165"
                },
                "nodeType": 0
            }
        },
        "gasFlame": [
            {
                "children": [
                    {
                        "children": [
                            {
                                "children": [],
                                "depth": 0,
                                "name": "Initial Gas",
                                "value": 27252
                            },
                            {
                                "children": [
                                    {
                                        "children": [],
                                        "depth": 1,
                                        "name": "isValidOrder",
                                        "value": 257
                                    },
                                    {
                                        "children": [],
                                        "depth": 1,
                                        "name": "ecrecover",
                                        "value": 3000
                                    },
                                    {
                                        "children": [
                                            {
                                                "children": [],
                                                "depth": 2,
                                                "name": "transferFrom",
                                                "value": 73611
                                            }
                                        ],
                                        "depth": 1,
                                        "name": "execute",
                                        "value": 79727
                                    },
                                    {
                                        "children": [],
                                        "depth": 1,
                                        "name": "fallback",
                                        "value": 85
                                    },
                                    {
                                        "children": [],
                                        "depth": 1,
                                        "name": "fallback",
                                        "value": 0
                                    },
                                    {
                                        "children": [],
                                        "depth": 1,
                                        "name": "fallback",
                                        "value": 0
                                    }
                                ],
                                "depth": 0,
                                "name": "Executed Gas",
                                "value": 160953
                            }
                        ],
                        "depth": -1,
                        "name": "Actual Gas Used",
                        "value": 175805
                    },
                    {
                        "children": [],
                        "depth": -1,
                        "name": "Refunded Gas",
                        "value": 12400
                    }
                ],
                "depth": -2,
                "name": "Total Gas",
                "value": 188205
            }
        ],
        "isConfirmed": true,
        "mainTrace": [
            {
                "children": [
                    {
                        "children": [
                            {
                                "children": [],
                                "depth": 1,
                                "id": 1,
                                "order": 1
                            },
                            {
                                "children": [],
                                "depth": 1,
                                "id": 2,
                                "order": 2
                            },
                            {
                                "children": [],
                                "depth": 1,
                                "id": 3,
                                "order": 3
                            },
                            {
                                "children": [
                                    {
                                        "children": [
                                            {
                                                "children": [],
                                                "depth": 3,
                                                "id": 6,
                                                "order": 6
                                            },
                                            {
                                                "children": [],
                                                "depth": 3,
                                                "id": 7,
                                                "order": 7
                                            }
                                        ],
                                        "depth": 2,
                                        "id": 5,
                                        "order": 5
                                    }
                                ],
                                "depth": 1,
                                "id": 4,
                                "order": 4
                            },
                            {
                                "children": [],
                                "depth": 1,
                                "id": 8,
                                "order": 8
                            },
                            {
                                "children": [],
                                "depth": 1,
                                "id": 9,
                                "order": 9
                            },
                            {
                                "children": [],
                                "depth": 1,
                                "id": 10,
                                "order": 10
                            }
                        ],
                        "depth": 0,
                        "id": 0,
                        "order": 0
                    }
                ],
                "depth": -1,
                "id": -1,
                "order": -1
            }
        ],
        "mainTraceNodeCount": 11,
        "parentIdMap": {
            "0": -1,
            "1": 0,
            "10": 0,
            "2": 0,
            "3": 0,
            "4": 0,
            "5": 4,
            "6": 5,
            "7": 5,
            "8": 0,
            "9": 0
        },
        "tidyTrace": [
            {
                "children": [
                    {
                        "children": [
                            {
                                "children": [],
                                "depth": 1,
                                "id": 1,
                                "order": 1
                            },
                            {
                                "children": [
                                    {
                                        "children": [
                                            {
                                                "children": [],
                                                "depth": 3,
                                                "id": 6,
                                                "order": 6
                                            },
                                            {
                                                "children": [],
                                                "depth": 3,
                                                "id": 7,
                                                "order": 7
                                            }
                                        ],
                                        "depth": 2,
                                        "id": 5,
                                        "order": 5
                                    }
                                ],
                                "depth": 1,
                                "id": 4,
                                "order": 4
                            },
                            {
                                "children": [],
                                "depth": 1,
                                "id": 8,
                                "order": 8
                            },
                            {
                                "children": [],
                                "depth": 1,
                                "id": 9,
                                "order": 9
                            },
                            {
                                "children": [],
                                "depth": 1,
                                "id": 10,
                                "order": 10
                            }
                        ],
                        "depth": 0,
                        "id": 0,
                        "order": 0
                    }
                ],
                "depth": -1,
                "id": -1,
                "order": -1
            }
        ],
        "tidyTraceNodeCount": 9
    },
    "state_change": {
        "stateChanges": [
            {
                "address": "0x00000000006c3852cbef3e08e8df289169ede581",
                "erc": "",
                "slots": [
                    {
                        "current": "0x0000000000000000000000000000010000000000000000000000000000010001",
                        "key": "0x38405d3682aa3753d3aedb55a9b3823deb249d299aafcdab9214d489fbfa4584",
                        "prev": "0x0000000000000000000000000000000000000000000000000000000000000000"
                    }
                ],
                "storageVariables": [
                    {
                        "name": "_orderStatus",
                        "type": "mapping(bytes32 => struct OrderStatus)",
                        "value": {
                            "pairs": [
                                {
                                    "key": "0xa6e7c27f59b1318d96563f0918f58f3ca2440590afb50dd5a0758041f2dfbeb1",
                                    "value": {
                                        "fields": [
                                            {
                                                "name": "isValidated",
                                                "type": "bool",
                                                "value": {
                                                    "current": "true",
                                                    "prev": "false",
                                                    "typeTag": 1
                                                }
                                            },
                                            {
                                                "name": "isCancelled",
                                                "type": "bool",
                                                "value": {
                                                    "current": "false",
                                                    "prev": "false",
                                                    "typeTag": 1
                                                }
                                            },
                                            {
                                                "name": "numerator",
                                                "type": "uint120",
                                                "value": {
                                                    "current": "1",
                                                    "prev": "0",
                                                    "typeTag": 1
                                                }
                                            },
                                            {
                                                "name": "denominator",
                                                "type": "uint120",
                                                "value": {
                                                    "current": "1",
                                                    "prev": "0",
                                                    "typeTag": 1
                                                }
                                            }
                                        ],
                                        "typeTag": 3
                                    }
                                }
                            ],
                            "typeTag": 4
                        }
                    }
                ]
            },
            {
                "address": "0x32f2a60942e7563cfc42766018641c6c6b10830e",
                "erc": "ERC-721",
                "slots": [
                    {
                        "current": "0x0000000000000000000000000000000000000000000000000000000000000000",
                        "key": "0xe6b030f237b720fafa85874fa5861c5cdad64435075df3ed1c347340e6444e91",
                        "prev": "0x0000000000000000000000000000000000000000000000000000000000000bd5"
                    },
                    {
                        "current": "0x0000000000000000000000000000000000000000000000000000000000000bd5",
                        "key": "0xeeefb09416ac8fb944aa08a8a1dbd8095be87fbfa0274559a6988ae8dc4c8e9d",
                        "prev": "0x0000000000000000000000000000000000000000000000000000000000000000"
                    },
                    {
                        "current": "0x0000000000000000000000000000000000000000000000000000000000000000",
                        "key": "0xf25432ea137f879a7691af0838a4388e8d8ff7ce53ecf160b4cbb6b85c961694",
                        "prev": "0x0000000000000000000000000000000000000000000000000000000000000001"
                    },
                    {
                        "current": "0x0000000000000000000000000000000000000000000000000000000000000001",
                        "key": "0xcbbbb08218a05685d7937c5193188c74a205e1e60daf88ba9539d1cba07ad990",
                        "prev": "0x0000000000000000000000000000000000000000000000000000000000000000"
                    },
                    {
                        "current": "0x0000000000000000000000001006c02024ddc3b0884a65c029df6580b01abce7",
                        "key": "0x10fe615194007326bf84e86191eb7883e251f56054215b20aefd1b80d5dd1731",
                        "prev": "0x0000000000000000000000009fb7563a1969f034e8feb83e499c967d31538e86"
                    }
                ],
                "storageVariables": [
                    {
                        "name": "_ownedTokens",
                        "type": "mapping(address => mapping(uint256 => uint256))",
                        "value": {
                            "pairs": [
                                {
                                    "key": "0x1006c02024ddc3b0884a65c029df6580b01abce7",
                                    "value": {
                                        "pairs": [
                                            {
                                                "key": "0",
                                                "value": {
                                                    "current": "3029",
                                                    "prev": "0",
                                                    "typeTag": 1
                                                }
                                            }
                                        ],
                                        "typeTag": 4
                                    }
                                },
                                {
                                    "key": "0x9fb7563a1969f034e8feb83e499c967d31538e86",
                                    "value": {
                                        "pairs": [
                                            {
                                                "key": "0",
                                                "value": {
                                                    "current": "0",
                                                    "prev": "3029",
                                                    "typeTag": 1
                                                }
                                            }
                                        ],
                                        "typeTag": 4
                                    }
                                }
                            ],
                            "typeTag": 4
                        }
                    },
                    {
                        "name": "_balances",
                        "type": "mapping(address => uint256)",
                        "value": {
                            "pairs": [
                                {
                                    "key": "0x1006c02024ddc3b0884a65c029df6580b01abce7",
                                    "value": {
                                        "current": "1",
                                        "prev": "0",
                                        "typeTag": 1
                                    }
                                },
                                {
                                    "key": "0x9fb7563a1969f034e8feb83e499c967d31538e86",
                                    "value": {
                                        "current": "0",
                                        "prev": "1",
                                        "typeTag": 1
                                    }
                                }
                            ],
                            "typeTag": 4
                        }
                    },
                    {
                        "name": "_owners",
                        "type": "mapping(uint256 => address)",
                        "value": {
                            "pairs": [
                                {
                                    "key": "3029",
                                    "value": {
                                        "current": "0x1006c02024ddc3b0884a65c029df6580b01abce7",
                                        "prev": "0x9fb7563a1969f034e8feb83e499c967d31538e86",
                                        "typeTag": 1
                                    }
                                }
                            ],
                            "typeTag": 4
                        }
                    }
                ]
            }
        ]
    }
}