{
    "balance_change": {
        "balanceChanges": []
    },
    "profile": {
        "basic_info": {
            "baseFee": "57.201970473",
            "blockNumber": 19170383,
            "callData": "0x538f9406000000000000000000000000000000000000000000000000000000000000004000000000000000000000000000000000000000000000000000000000000007e0000000000000000000000000000000000000000000000000000000000000003c02f45bd6fa48b40943a4c87f988e1ce360667e9d449b7397f435f5a0f1701b470453109920bd5c060f01f73ffeb38d96530dc7aa64d705210e0d9cc6a82ab66e008449f78273d9ed6975c41e69b97e2e6094f9085e7eab07492b80981bddf02c04e2f073f5d3b979854f63bf1f7ce79375e183585d8c5317f829a6033c37b9200000000000000000000000000000000000000000000000000000000000073d44000000000000000000000000000000000000000000000000000000000000001f000000000000000000000000000000000000000000000000000000000000003f00000000000000000000000000000000000000000000000000000000000000000000000000000000000000000000000000000000000000000000000000000010000000000000000000000000000000000000000000000000000000000000000000000000000000000000000000000000000000000000000000000000000000000000000000000000000000000000000000000000000000000000000000000000052918fee9e169d773425b682752304e181f58444bef4a0e9572781d1796045902705737cd248ac819034b5de474c8f0368224f72a0fda9e031499d519992d9e000000000000000000000000000000000000000020659d027ffffffff4e42e52009cb661971d610f486c52ae21706a9d6571bdaa8f479e490199e1acd9f261d402893294412a4c8f915f75892b395ebbf6859ec246ec365c3b1f56f47c3a0a5d00000000000000000000000000000000000000001ff4f3f77ffffffeeedc996007142c42d3a238bd6b7bf1420e44f6f118e962aa74f0e736706bcb348afdc74f02705737cd248ac819034b5de474c8f0368224f72a0fda9e031499d519992d9e00000000000000000000000000000000000000002065738c7fffffffbe324c0007da96a2b15dd81bb14f4ddf41240f64e698bb1ae82d8a9fc32b2e6f3ad070cf02705737cd248ac819034b5de474c8f0368224f72a0fda9e031499d519992d9e000000000000000000000000000000000000000001047de77fffffff8bc55c8007a82a3d3403487befe34cf42d558e1a98d5dfe860ef1daa82c4469457efc3c90400730871c6bbf99ffa8a62570cebd6b76a4ba608633b643a8fe1fb999e2d4200000000000000000000000000000000000000001d40d5397fffffffffffffff01ce3f7d7d5bfe071c91e31ac77dd26916cd38a8aa9a096782f17187185ec3c402705737cd248ac819034b5de474c8f0368224f72a0fda9e031499d519992d9e0000000000000000000000000000000000000000140064937fffffff39a948b904989429f41488800f54239d4f3c42687a23a2e241a4eb7b51fb3aaa2c308028016807a4e2986bc9d4c2c6a2fff6b2c6f351989c0f7a6d2164377848aac7c5d50000000000000000000000000000000000000000203497117ffffffddc6ab9c003ca1e0c24c9e84331eb30f4a7c469a45ea79059d16d01c43bfdc854d7c4d471003252dec1ad51e115659dcfab7cbf9489e2ab1d7a81b747ec1a9e5daa0261dd00000000000000000000000000000000000000002077f838800002f4b318740001cf9bf85c28ee6382ff44ff09ef8ae1a657a38005407cd0a153e8069e7bbd5802705737cd248ac819034b5de474c8f0368224f72a0fda9e031499d519992d9e00000000000000000000000000000000000000001a73fd0e7fffffffc51476d6060bb33caddc25e5f1b2f3e8807fa353e5da427deeaa58316ff89a7f43346c58003252dec1ad51e115659dcfab7cbf9489e2ab1d7a81b747ec1a9e5daa0261dd00000000000000000000000000000000000000001b10339d8000043aa99924000586e9bd830b91cfc5c4f191e460d010fe770de98ac903b87d75019963d62cb6016807a4e2986bc9d4c2c6a2fff6b2c6f351989c0f7a6d2164377848aac7c5d5000000000000000000000000000000000000000002b5f0db7fffff6a28a35b6002bc07c4b0fdc9c268e15fecc441fb8c4c6be4ca727486e2a690ce5470328cce02705737cd248ac819034b5de474c8f0368224f72a0fda9e031499d519992d9e00000000000000000000000000000000000000002077fdea800000001443fd00072ecfac36374313aa467a4985e5673db2e04a0b870b71a919720bd57195370c02705737cd248ac819034b5de474c8f0368224f72a0fda9e031499d519992d9e0000000000000000000000000000000000000000144073867fffffffff0dfee00050170373639aa6ab2e1fdcdb88caaf6a3b62660197acecf3e91bf6ce0bf44e003252dec1ad51e115659dcfab7cbf9489e2ab1d7a81b747ec1a9e5daa0261dd00000000000000000000000000000000000000001fbce4dd7fffdb81c70be90000b1c51f7e51240aeea737e83c7164102a46a40176a5d0a520d35332d244a5af02705737cd248ac819034b5de474c8f0368224f72a0fda9e031499d519992d9e000000000000000000000000000000000000000002070fe17fffffffffb3b4c0033a01f1bf14a394355ca75a7cdb2311ee32e071d3a07001947e2fb323bef36902705737cd248ac819034b5de474c8f0368224f72a0fda9e031499d519992d9e00000000000000000000000000000000000000001cc2ad79800000001a39de00000000000000000000000000000000000000000000000000000000000000000200000000000000000000000000000000000000000000000000000000000055260000000000000000000000000000000000000000000000000000000000005525",
            "debugEnable": true,
            "errorInfo": "",
            "eventCount": 14,
            "feeRecipient": "0x2b5c491a49e842c894e964e1a8e3f2485d095a88",
            "formatValue": "0",
            "gasLimit": 3000000,
            "gasPrice": "57.6",
            "gasUsed": 413868,
            "intTxnCount": 7,
            "internalRevert": false,
            "internalRevertMessage": "",
            "isContractCreation": false,
            "isFlashloan": false,
            "maxFee": "",
            "nonce": 45378,
            "overwritedBlockNumber": -1,
            "priorityFee": "",
            "receiver": "0x5fdcca53617f4d2b9134b29090c87d01058e27e9",
            "revertMessage": "",
            "sender": "0x9b7f7d0d23d4cace5a3157752d0d4e4bf25e927e",
            "simulationEnable": true,
            "sourceTxnHash": "0x22274c356266238851df64feccc7da458aba2e419b8a59e4c7f64bfdbd82ff50",
            "status": true,
            "timestamp": "2024-02-06T16:28:47Z",
            "transactionFee": "0.0238387968",
            "txnHash": "0x22274c356266238851df64feccc7da458aba2e419b8a59e4c7f64bfdbd82ff50",
            "txnIndex": 68,
            "type": 0,
            "value": "0"
        },
        "fund_flow": [],
        "token_infos": [
            {
                "address": "0xc02aaa39b223fe8d0a0e5c4f27ead9083c756cc2",
                "decimals": 18
            },
            {
                "address": "0xeeeeeeeeeeeeeeeeeeeeeeeeeeeeeeeeeeeeeeee",
                "decimals": 18
            }
        ]
    },
    "address_label": {
        "labels": [
            {
                "address": "0xb8563ad5af1f79dd04937be8b572318c8e6f43ac",
                "label": "StarkExchange"
            },
            {
                "address": "0x0000000000000000000000000000000000000004",
                "label": "Precompiled"
            },
            {
                "address": "0x16ba0f221664a5189cf2c1a7af0d3abfc70aa295",
                "label": "ImmutableX: Committee"
            },
            {
                "address": "0xd4c4044aca68ebbcb81b13cc2699e1bca2d3f458",
                "label": "CallProxy"
            },
            {
                "address": "0x6cb3ee90c50a38a0e4662bb7e7e6e40b91361bf6",
                "label": "GpsStatementVerifier"
            },
            {
                "address": "0x47312450b3ac8b5b8e247a6bb6d523e7605bdb60",
                "label": "Starkware: SHARP Verifier"
            },
            {
                "address": "0x0000000000000000000000000000000000000001",
                "label": "Precompiled"
            },
            {
                "address": "0x0000000000000000000000000000000000000002",
                "label": "Precompiled"
            },
            {
                "address": "0x0000000000000000000000000000000000000003",
                "label": "Precompiled"
            },
            {
                "address": "0xeeeeeeeeeeeeeeeeeeeeeeeeeeeeeeeeeeeeeeee",
                "label": "Ether"
            },
            {
                "address": "0x86d8f977c9cec503ad4e6805802cef62cde13773",
                "label": "StarkExState"
            },
            {
                "address": "0x5fdcca53617f4d2b9134b29090c87d01058e27e9",
                "label": "Immutable X: Bridge"
            },
            {
                "address": "0x6e3abce72a3cd5edc05e59283c733fd4bf8b3bae",
                "label": "GpsFactRegistryAdapter"
            }
        ]
    },
    "trace": {
        "accountLabels": null,
        "dataMap": {
            "-1": {
                "invocation": {
                    "address": "0x9b7f7d0d23d4cace5a3157752d0d4e4bf25e927e",
                    "callData": "",
                    "decodedMethod": null,
                    "errorInfo": "",
                    "fromAddress": "",
                    "gasUsed": 0,
                    "id": -1,
                    "methodDecoded": false,
                    "operation": "",
                    "output": "",
                    "revert": false,
                    "revertMessage": "",
                    "selector": "",
                    "status": false,
                    "value": ""
                },
                "nodeType": 0
            },
            "0": {
                "invocation": {
                    "address": "0x5fdcca53617f4d2b9134b29090c87d01058e27e9",
                    "callData": "0x000000000000000000000000000000000000000000000000000000000000004000000000000000000000000000000000000000000000000000000000000007e0000000000000000000000000000000000000000000000000000000000000003c02f45bd6fa48b40943a4c87f988e1ce360667e9d449b7397f435f5a0f1701b470453109920bd5c060f01f73ffeb38d96530dc7aa64d705210e0d9cc6a82ab66e008449f78273d9ed6975c41e69b97e2e6094f9085e7eab07492b80981bddf02c04e2f073f5d3b979854f63bf1f7ce79375e183585d8c5317f829a6033c37b9200000000000000000000000000000000000000000000000000000000000073d44000000000000000000000000000000000000000000000000000000000000001f000000000000000000000000000000000000000000000000000000000000003f00000000000000000000000000000000000000000000000000000000000000000000000000000000000000000000000000000000000000000000000000000010000000000000000000000000000000000000000000000000000000000000000000000000000000000000000000000000000000000000000000000000000000000000000000000000000000000000000000000000000000000000000000000000052918fee9e169d773425b682752304e181f58444bef4a0e9572781d1796045902705737cd248ac819034b5de474c8f0368224f72a0fda9e031499d519992d9e000000000000000000000000000000000000000020659d027ffffffff4e42e52009cb661971d610f486c52ae21706a9d6571bdaa8f479e490199e1acd9f261d402893294412a4c8f915f75892b395ebbf6859ec246ec365c3b1f56f47c3a0a5d00000000000000000000000000000000000000001ff4f3f77ffffffeeedc996007142c42d3a238bd6b7bf1420e44f6f118e962aa74f0e736706bcb348afdc74f02705737cd248ac819034b5de474c8f0368224f72a0fda9e031499d519992d9e00000000000000000000000000000000000000002065738c7fffffffbe324c0007da96a2b15dd81bb14f4ddf41240f64e698bb1ae82d8a9fc32b2e6f3ad070cf02705737cd248ac819034b5de474c8f0368224f72a0fda9e031499d519992d9e000000000000000000000000000000000000000001047de77fffffff8bc55c8007a82a3d3403487befe34cf42d558e1a98d5dfe860ef1daa82c4469457efc3c90400730871c6bbf99ffa8a62570cebd6b76a4ba608633b643a8fe1fb999e2d4200000000000000000000000000000000000000001d40d5397fffffffffffffff01ce3f7d7d5bfe071c91e31ac77dd26916cd38a8aa9a096782f17187185ec3c402705737cd248ac819034b5de474c8f0368224f72a0fda9e031499d519992d9e0000000000000000000000000000000000000000140064937fffffff39a948b904989429f41488800f54239d4f3c42687a23a2e241a4eb7b51fb3aaa2c308028016807a4e2986bc9d4c2c6a2fff6b2c6f351989c0f7a6d2164377848aac7c5d50000000000000000000000000000000000000000203497117ffffffddc6ab9c003ca1e0c24c9e84331eb30f4a7c469a45ea79059d16d01c43bfdc854d7c4d471003252dec1ad51e115659dcfab7cbf9489e2ab1d7a81b747ec1a9e5daa0261dd00000000000000000000000000000000000000002077f838800002f4b318740001cf9bf85c28ee6382ff44ff09ef8ae1a657a38005407cd0a153e8069e7bbd5802705737cd248ac819034b5de474c8f0368224f72a0fda9e031499d519992d9e00000000000000000000000000000000000000001a73fd0e7fffffffc51476d6060bb33caddc25e5f1b2f3e8807fa353e5da427deeaa58316ff89a7f43346c58003252dec1ad51e115659dcfab7cbf9489e2ab1d7a81b747ec1a9e5daa0261dd00000000000000000000000000000000000000001b10339d8000043aa99924000586e9bd830b91cfc5c4f191e460d010fe770de98ac903b87d75019963d62cb6016807a4e2986bc9d4c2c6a2fff6b2c6f351989c0f7a6d2164377848aac7c5d5000000000000000000000000000000000000000002b5f0db7fffff6a28a35b6002bc07c4b0fdc9c268e15fecc441fb8c4c6be4ca727486e2a690ce5470328cce02705737cd248ac819034b5de474c8f0368224f72a0fda9e031499d519992d9e00000000000000000000000000000000000000002077fdea800000001443fd00072ecfac36374313aa467a4985e5673db2e04a0b870b71a919720bd57195370c02705737cd248ac819034b5de474c8f0368224f72a0fda9e031499d519992d9e0000000000000000000000000000000000000000144073867fffffffff0dfee00050170373639aa6ab2e1fdcdb88caaf6a3b62660197acecf3e91bf6ce0bf44e003252dec1ad51e115659dcfab7cbf9489e2ab1d7a81b747ec1a9e5daa0261dd00000000000000000000000000000000000000001fbce4dd7fffdb81c70be90000b1c51f7e51240aeea737e83c7164102a46a40176a5d0a520d35332d244a5af02705737cd248ac819034b5de474c8f0368224f72a0fda9e031499d519992d9e000000000000000000000000000000000000000002070fe17fffffffffb3b4c0033a01f1bf14a394355ca75a7cdb2311ee32e071d3a07001947e2fb323bef36902705737cd248ac819034b5de474c8f0368224f72a0fda9e031499d519992d9e00000000000000000000000000000000000000001cc2ad79800000001a39de00000000000000000000000000000000000000000000000000000000000000000200000000000000000000000000000000000000000000000000000000000055260000000000000000000000000000000000000000000000000000000000005525",
                    "decodedMethod": {
                        "callParams": [
                            {
                                "name": "publicInput",
                                "type": "uint256[]",
                                "value": [
                                    "1,336,370,235,676,584,570,878,124,466,521,946,343,097,141,759,347,147,855,194,831,417,750,060,014,407",
                                    "1,956,014,256,970,951,475,975,124,290,699,489,293,436,997,025,517,143,599,397,601,834,046,623,233,646",
                                    "233,734,312,879,145,597,619,513,981,055,230,148,886,151,301,136,181,338,697,382,932,567,191,056,428",
                                    "2,210,218,376,378,686,740,143,139,386,064,978,972,994,358,832,122,710,842,609,702,108,906,927,929,632",
                                    "474,436",
                                    "31",
                                    "63",
                                    "0",
                                    "16",
                                    "0",
                                    "0",
                                    "0",
                                    "2,334,177,486,941,515,800,193,752,459,307,440,051,714,235,164,052,989,076,493,196,382,262,282,028,121",
                                    "1,103,114,524,755,001,640,548,555,873,671,808,205,895,038,091,681,120,606,634,696,969,331,999,845,790",
                                    "10,026,363,279,718,790,464,224,374,354",
                                    "276,886,890,969,612,470,551,710,848,744,386,009,547,989,872,926,721,377,545,900,211,964,044,534,228",
                                    "1,147,032,829,293,317,481,173,155,891,309,375,254,605,214,077,236,177,772,270,270,553,197,624,560,221",
                                    "9,890,165,305,072,162,211,414,972,768",
                                    "3,201,832,359,861,798,876,129,094,068,911,576,001,547,029,890,241,204,386,432,538,860,517,767,104,335",
                                    "1,103,114,524,755,001,640,548,555,873,671,808,205,895,038,091,681,120,606,634,696,969,331,999,845,790",
                                    "10,026,167,485,977,192,110,125,894,656",
                                    "3,552,402,248,346,812,044,173,460,013,152,794,821,302,059,778,592,212,414,453,652,564,908,501,397,711",
                                    "1,103,114,524,755,001,640,548,555,873,671,808,205,895,038,091,681,120,606,634,696,969,331,999,845,790",
                                    "314,915,279,331,415,352,886,516,864",
                                    "3,463,311,770,346,534,958,539,061,569,173,444,612,150,682,168,327,564,685,639,147,986,155,247,485,897",
                                    "1,810,045,322,824,563,304,003,606,007,880,300,963,203,344,480,141,093,681,797,229,854,653,748,751,682",
                                    "9,053,443,462,022,978,732,929,581,055",
                                    "816,721,537,142,674,653,768,257,087,343,071,255,194,634,255,902,235,496,918,757,135,215,365,112,772",
                                    "1,103,114,524,755,001,640,548,555,873,671,808,205,895,038,091,681,120,606,634,696,969,331,999,845,790",
                                    "6,190,175,153,969,939,207,848,282,297",
                                    "2,078,834,737,701,164,365,540,188,579,124,433,709,662,791,789,719,159,139,100,355,354,088,143,093,800",
                                    "636,117,700,839,179,604,858,620,718,832,286,872,417,390,350,654,465,827,892,936,533,551,518,041,557",
                                    "9,967,097,857,059,937,513,435,216,320",
                                    "1,714,049,032,619,098,857,906,636,184,587,178,671,534,852,833,207,468,557,694,829,507,561,681,900,657",
                                    "88,914,301,944,088,089,141,574,999,348,394,996,493,546,404,963,067,902,156,417,732,601,144,566,237",
                                    "10,048,554,675,945,978,157,585,691,648",
                                    "819,126,657,448,486,890,322,907,574,263,090,636,209,699,012,782,218,806,390,914,568,935,421,230,424",
                                    "1,103,114,524,755,001,640,548,555,873,671,808,205,895,038,091,681,120,606,634,696,969,331,999,845,790",
                                    "8,186,831,750,808,609,229,974,566,614",
                                    "2,734,549,457,714,626,207,225,137,427,584,812,452,142,250,407,130,902,340,663,006,241,009,406,602,328",
                                    "88,914,301,944,088,089,141,574,999,348,394,996,493,546,404,963,067,902,156,417,732,601,144,566,237",
                                    "8,375,681,824,342,973,533,524,665,344",
                                    "2,499,934,965,726,027,391,203,567,106,119,760,158,198,232,395,598,351,561,460,719,200,680,317,168,822",
                                    "636,117,700,839,179,604,858,620,718,832,286,872,417,390,350,654,465,827,892,936,533,551,518,041,557",
                                    "838,923,010,009,150,268,605,946,720",
                                    "1,236,846,560,358,209,037,973,143,099,906,268,320,226,747,041,803,906,353,541,267,218,682,994,658,510",
                                    "1,103,114,524,755,001,640,548,555,873,671,808,205,895,038,091,681,120,606,634,696,969,331,999,845,790",
                                    "10,048,581,571,298,834,376,451,947,776",
                                    "3,248,898,209,376,880,020,442,435,765,237,844,928,390,954,192,016,370,305,373,479,412,079,812,491,020",
                                    "1,103,114,524,755,001,640,548,555,873,671,808,205,895,038,091,681,120,606,634,696,969,331,999,845,790",
                                    "6,267,617,002,114,845,564,795,223,776",
                                    "141,506,598,379,975,225,118,500,107,690,394,998,014,374,580,706,435,890,584,192,308,172,523,566,158",
                                    "88,914,301,944,088,089,141,574,999,348,394,996,493,546,404,963,067,902,156,417,732,601,144,566,237",
                                    "9,822,394,144,061,113,896,547,379,456",
                                    "314,092,423,557,166,584,988,531,922,203,463,726,663,063,534,087,450,163,181,257,979,793,498,219,951",
                                    "1,103,114,524,755,001,640,548,555,873,671,808,205,895,038,091,681,120,606,634,696,969,331,999,845,790",
                                    "627,507,495,618,024,207,849,600,192",
                                    "1,459,429,094,723,577,122,805,512,109,657,134,381,019,995,109,703,194,830,872,960,209,658,459,386,729",
                                    "1,103,114,524,755,001,640,548,555,873,671,808,205,895,038,091,681,120,606,634,696,969,331,999,845,790",
                                    "8,900,931,094,683,841,388,959,358,464"
                                ]
                            },
                            {
                                "name": "applicationData",
                                "type": "uint256[]",
                                "value": [
                                    "21,798",
                                    "21,797"
                                ]
                            }
                        ],
                        "constructorArguments": "",
                        "name": "updateState",
                        "returnParams": [],
                        "signature": "updateState(uint256[],uint256[])"
                    },
                    "errorInfo": "",
                    "fromAddress": "0x9b7f7d0d23d4cace5a3157752d0d4e4bf25e927e",
                    "gasUsed": 413868,
                    "id": 0,
                    "methodDecoded": true,
                    "operation": "CALL",
                    "output": "",
                    "revert": false,
                    "revertMessage": "",
                    "selector": "0x538f9406",
                    "status": true,
                    "value": "0"
                },
                "nodeType": 0
            },
            "1": {
                "invocation": {
                    "address": "0xb8563ad5af1f79dd04937be8b572318c8e6f43ac",
                    "callData": "0x000000000000000000000000000000000000000000000000000000000000004000000000000000000000000000000000000000000000000000000000000007e0000000000000000000000000000000000000000000000000000000000000003c02f45bd6fa48b40943a4c87f988e1ce360667e9d449b7397f435f5a0f1701b470453109920bd5c060f01f73ffeb38d96530dc7aa64d705210e0d9cc6a82ab66e008449f78273d9ed6975c41e69b97e2e6094f9085e7eab07492b80981bddf02c04e2f073f5d3b979854f63bf1f7ce79375e183585d8c5317f829a6033c37b9200000000000000000000000000000000000000000000000000000000000073d44000000000000000000000000000000000000000000000000000000000000001f000000000000000000000000000000000000000000000000000000000000003f00000000000000000000000000000000000000000000000000000000000000000000000000000000000000000000000000000000000000000000000000000010000000000000000000000000000000000000000000000000000000000000000000000000000000000000000000000000000000000000000000000000000000000000000000000000000000000000000000000000000000000000000000000000052918fee9e169d773425b682752304e181f58444bef4a0e9572781d1796045902705737cd248ac819034b5de474c8f0368224f72a0fda9e031499d519992d9e000000000000000000000000000000000000000020659d027ffffffff4e42e52009cb661971d610f486c52ae21706a9d6571bdaa8f479e490199e1acd9f261d402893294412a4c8f915f75892b395ebbf6859ec246ec365c3b1f56f47c3a0a5d00000000000000000000000000000000000000001ff4f3f77ffffffeeedc996007142c42d3a238bd6b7bf1420e44f6f118e962aa74f0e736706bcb348afdc74f02705737cd248ac819034b5de474c8f0368224f72a0fda9e031499d519992d9e00000000000000000000000000000000000000002065738c7fffffffbe324c0007da96a2b15dd81bb14f4ddf41240f64e698bb1ae82d8a9fc32b2e6f3ad070cf02705737cd248ac819034b5de474c8f0368224f72a0fda9e031499d519992d9e000000000000000000000000000000000000000001047de77fffffff8bc55c8007a82a3d3403487befe34cf42d558e1a98d5dfe860ef1daa82c4469457efc3c90400730871c6bbf99ffa8a62570cebd6b76a4ba608633b643a8fe1fb999e2d4200000000000000000000000000000000000000001d40d5397fffffffffffffff01ce3f7d7d5bfe071c91e31ac77dd26916cd38a8aa9a096782f17187185ec3c402705737cd248ac819034b5de474c8f0368224f72a0fda9e031499d519992d9e0000000000000000000000000000000000000000140064937fffffff39a948b904989429f41488800f54239d4f3c42687a23a2e241a4eb7b51fb3aaa2c308028016807a4e2986bc9d4c2c6a2fff6b2c6f351989c0f7a6d2164377848aac7c5d50000000000000000000000000000000000000000203497117ffffffddc6ab9c003ca1e0c24c9e84331eb30f4a7c469a45ea79059d16d01c43bfdc854d7c4d471003252dec1ad51e115659dcfab7cbf9489e2ab1d7a81b747ec1a9e5daa0261dd00000000000000000000000000000000000000002077f838800002f4b318740001cf9bf85c28ee6382ff44ff09ef8ae1a657a38005407cd0a153e8069e7bbd5802705737cd248ac819034b5de474c8f0368224f72a0fda9e031499d519992d9e00000000000000000000000000000000000000001a73fd0e7fffffffc51476d6060bb33caddc25e5f1b2f3e8807fa353e5da427deeaa58316ff89a7f43346c58003252dec1ad51e115659dcfab7cbf9489e2ab1d7a81b747ec1a9e5daa0261dd00000000000000000000000000000000000000001b10339d8000043aa99924000586e9bd830b91cfc5c4f191e460d010fe770de98ac903b87d75019963d62cb6016807a4e2986bc9d4c2c6a2fff6b2c6f351989c0f7a6d2164377848aac7c5d5000000000000000000000000000000000000000002b5f0db7fffff6a28a35b6002bc07c4b0fdc9c268e15fecc441fb8c4c6be4ca727486e2a690ce5470328cce02705737cd248ac819034b5de474c8f0368224f72a0fda9e031499d519992d9e00000000000000000000000000000000000000002077fdea800000001443fd00072ecfac36374313aa467a4985e5673db2e04a0b870b71a919720bd57195370c02705737cd248ac819034b5de474c8f0368224f72a0fda9e031499d519992d9e0000000000000000000000000000000000000000144073867fffffffff0dfee00050170373639aa6ab2e1fdcdb88caaf6a3b62660197acecf3e91bf6ce0bf44e003252dec1ad51e115659dcfab7cbf9489e2ab1d7a81b747ec1a9e5daa0261dd00000000000000000000000000000000000000001fbce4dd7fffdb81c70be90000b1c51f7e51240aeea737e83c7164102a46a40176a5d0a520d35332d244a5af02705737cd248ac819034b5de474c8f0368224f72a0fda9e031499d519992d9e000000000000000000000000000000000000000002070fe17fffffffffb3b4c0033a01f1bf14a394355ca75a7cdb2311ee32e071d3a07001947e2fb323bef36902705737cd248ac819034b5de474c8f0368224f72a0fda9e031499d519992d9e00000000000000000000000000000000000000001cc2ad79800000001a39de00000000000000000000000000000000000000000000000000000000000000000200000000000000000000000000000000000000000000000000000000000055260000000000000000000000000000000000000000000000000000000000005525",
                    "decodedMethod": {
                        "callParams": [
                            {
                                "name": "publicInput",
                                "type": "uint256[]",
                                "value": [
                                    "1,336,370,235,676,584,570,878,124,466,521,946,343,097,141,759,347,147,855,194,831,417,750,060,014,407",
                                    "1,956,014,256,970,951,475,975,124,290,699,489,293,436,997,025,517,143,599,397,601,834,046,623,233,646",
                                    "233,734,312,879,145,597,619,513,981,055,230,148,886,151,301,136,181,338,697,382,932,567,191,056,428",
                                    "2,210,218,376,378,686,740,143,139,386,064,978,972,994,358,832,122,710,842,609,702,108,906,927,929,632",
                                    "474,436",
                                    "31",
                                    "63",
                                    "0",
                                    "16",
                                    "0",
                                    "0",
                                    "0",
                                    "2,334,177,486,941,515,800,193,752,459,307,440,051,714,235,164,052,989,076,493,196,382,262,282,028,121",
                                    "1,103,114,524,755,001,640,548,555,873,671,808,205,895,038,091,681,120,606,634,696,969,331,999,845,790",
                                    "10,026,363,279,718,790,464,224,374,354",
                                    "276,886,890,969,612,470,551,710,848,744,386,009,547,989,872,926,721,377,545,900,211,964,044,534,228",
                                    "1,147,032,829,293,317,481,173,155,891,309,375,254,605,214,077,236,177,772,270,270,553,197,624,560,221",
                                    "9,890,165,305,072,162,211,414,972,768",
                                    "3,201,832,359,861,798,876,129,094,068,911,576,001,547,029,890,241,204,386,432,538,860,517,767,104,335",
                                    "1,103,114,524,755,001,640,548,555,873,671,808,205,895,038,091,681,120,606,634,696,969,331,999,845,790",
                                    "10,026,167,485,977,192,110,125,894,656",
                                    "3,552,402,248,346,812,044,173,460,013,152,794,821,302,059,778,592,212,414,453,652,564,908,501,397,711",
                                    "1,103,114,524,755,001,640,548,555,873,671,808,205,895,038,091,681,120,606,634,696,969,331,999,845,790",
                                    "314,915,279,331,415,352,886,516,864",
                                    "3,463,311,770,346,534,958,539,061,569,173,444,612,150,682,168,327,564,685,639,147,986,155,247,485,897",
                                    "1,810,045,322,824,563,304,003,606,007,880,300,963,203,344,480,141,093,681,797,229,854,653,748,751,682",
                                    "9,053,443,462,022,978,732,929,581,055",
                                    "816,721,537,142,674,653,768,257,087,343,071,255,194,634,255,902,235,496,918,757,135,215,365,112,772",
                                    "1,103,114,524,755,001,640,548,555,873,671,808,205,895,038,091,681,120,606,634,696,969,331,999,845,790",
                                    "6,190,175,153,969,939,207,848,282,297",
                                    "2,078,834,737,701,164,365,540,188,579,124,433,709,662,791,789,719,159,139,100,355,354,088,143,093,800",
                                    "636,117,700,839,179,604,858,620,718,832,286,872,417,390,350,654,465,827,892,936,533,551,518,041,557",
                                    "9,967,097,857,059,937,513,435,216,320",
                                    "1,714,049,032,619,098,857,906,636,184,587,178,671,534,852,833,207,468,557,694,829,507,561,681,900,657",
                                    "88,914,301,944,088,089,141,574,999,348,394,996,493,546,404,963,067,902,156,417,732,601,144,566,237",
                                    "10,048,554,675,945,978,157,585,691,648",
                                    "819,126,657,448,486,890,322,907,574,263,090,636,209,699,012,782,218,806,390,914,568,935,421,230,424",
                                    "1,103,114,524,755,001,640,548,555,873,671,808,205,895,038,091,681,120,606,634,696,969,331,999,845,790",
                                    "8,186,831,750,808,609,229,974,566,614",
                                    "2,734,549,457,714,626,207,225,137,427,584,812,452,142,250,407,130,902,340,663,006,241,009,406,602,328",
                                    "88,914,301,944,088,089,141,574,999,348,394,996,493,546,404,963,067,902,156,417,732,601,144,566,237",
                                    "8,375,681,824,342,973,533,524,665,344",
                                    "2,499,934,965,726,027,391,203,567,106,119,760,158,198,232,395,598,351,561,460,719,200,680,317,168,822",
                                    "636,117,700,839,179,604,858,620,718,832,286,872,417,390,350,654,465,827,892,936,533,551,518,041,557",
                                    "838,923,010,009,150,268,605,946,720",
                                    "1,236,846,560,358,209,037,973,143,099,906,268,320,226,747,041,803,906,353,541,267,218,682,994,658,510",
                                    "1,103,114,524,755,001,640,548,555,873,671,808,205,895,038,091,681,120,606,634,696,969,331,999,845,790",
                                    "10,048,581,571,298,834,376,451,947,776",
                                    "3,248,898,209,376,880,020,442,435,765,237,844,928,390,954,192,016,370,305,373,479,412,079,812,491,020",
                                    "1,103,114,524,755,001,640,548,555,873,671,808,205,895,038,091,681,120,606,634,696,969,331,999,845,790",
                                    "6,267,617,002,114,845,564,795,223,776",
                                    "141,506,598,379,975,225,118,500,107,690,394,998,014,374,580,706,435,890,584,192,308,172,523,566,158",
                                    "88,914,301,944,088,089,141,574,999,348,394,996,493,546,404,963,067,902,156,417,732,601,144,566,237",
                                    "9,822,394,144,061,113,896,547,379,456",
                                    "314,092,423,557,166,584,988,531,922,203,463,726,663,063,534,087,450,163,181,257,979,793,498,219,951",
                                    "1,103,114,524,755,001,640,548,555,873,671,808,205,895,038,091,681,120,606,634,696,969,331,999,845,790",
                                    "627,507,495,618,024,207,849,600,192",
                                    "1,459,429,094,723,577,122,805,512,109,657,134,381,019,995,109,703,194,830,872,960,209,658,459,386,729",
                                    "1,103,114,524,755,001,640,548,555,873,671,808,205,895,038,091,681,120,606,634,696,969,331,999,845,790",
                                    "8,900,931,094,683,841,388,959,358,464"
                                ]
                            },
                            {
                                "name": "applicationData",
                                "type": "uint256[]",
                                "value": [
                                    "21,798",
                                    "21,797"
                                ]
                            }
                        ],
                        "constructorArguments": "",
                        "name": "updateState",
                        "returnParams": [],
                        "signature": "updateState(uint256[],uint256[])"
                    },
                    "errorInfo": "",
                    "fromAddress": "0x5fdcca53617f4d2b9134b29090c87d01058e27e9",
                    "gasUsed": 382056,
                    "id": 1,
                    "methodDecoded": true,
                    "operation": "DELEGATECALL",
                    "output": "",
                    "revert": false,
                    "revertMessage": "",
                    "selector": "0x538f9406",
                    "status": true,
                    "value": "0"
                },
                "nodeType": 0
            },
            "10": {
                "event": {
                    "contract": "0x5fdcca53617f4d2b9134b29090c87d01058e27e9",
                    "decodedLog": {
                        "name": "LogWithdrawalAllowed",
                        "params": [
                            {
                                "name": "ownerKey",
                                "type": "uint256",
                                "value": "2,334,177,486,941,515,800,193,752,459,307,440,051,714,235,164,052,989,076,493,196,382,262,282,028,121"
                            },
                            {
                                "name": "assetType",
                                "type": "uint256",
                                "value": "1,103,114,524,755,001,640,548,555,873,671,808,205,895,038,091,681,120,606,634,696,969,331,999,845,790"
                            },
                            {
                                "name": "nonQuantizedAmount",
                                "type": "uint256",
                                "value": "18,637,252,600,000,000"
                            },
                            {
                                "name": "quantizedAmount",
                                "type": "uint256",
                                "value": "186,372,526"
                            }
                        ],
                        "signature": "LogWithdrawalAllowed(uint256,uint256,uint256,uint256)"
                    },
                    "id": 10,
                    "logData": "0x052918fee9e169d773425b682752304e181f58444bef4a0e9572781d1796045902705737cd248ac819034b5de474c8f0368224f72a0fda9e031499d519992d9e0000000000000000000000000000000000000000000000000042367b84cfee00000000000000000000000000000000000000000000000000000000000b1bd1ae",
                    "logDecoded": true,
                    "operation": "EVENT",
                    "revert": false,
                    "status": true,
                    "topics": [
                        "0x03c10a82c955f7bcd0c934147fb39cafca947a4294425b1751d884c8ac954287"
                    ]
                },
                "nodeType": 1
            },
            "11": {
                "event": {
                    "contract": "0x5fdcca53617f4d2b9134b29090c87d01058e27e9",
                    "decodedLog": {
                        "name": "LogWithdrawalAllowed",
                        "params": [
                            {
                                "name": "ownerKey",
                                "type": "uint256",
                                "value": "276,886,890,969,612,470,551,710,848,744,386,009,547,989,872,926,721,377,545,900,211,964,044,534,228"
                            },
                            {
                                "name": "assetType",
                                "type": "uint256",
                                "value": "1,147,032,829,293,317,481,173,155,891,309,375,254,605,214,077,236,177,772,270,270,553,197,624,560,221"
                            },
                            {
                                "name": "nonQuantizedAmount",
                                "type": "uint256",
                                "value": "4,582,500,000"
                            },
                            {
                                "name": "quantizedAmount",
                                "type": "uint256",
                                "value": "4,582,500,000"
                            }
                        ],
                        "signature": "LogWithdrawalAllowed(uint256,uint256,uint256,uint256)"
                    },
                    "id": 11,
                    "logData": "0x009cb661971d610f486c52ae21706a9d6571bdaa8f479e490199e1acd9f261d402893294412a4c8f915f75892b395ebbf6859ec246ec365c3b1f56f47c3a0a5d00000000000000000000000000000000000000000000000000000001112366a000000000000000000000000000000000000000000000000000000001112366a0",
                    "logDecoded": true,
                    "operation": "EVENT",
                    "revert": false,
                    "status": true,
                    "topics": [
                        "0x03c10a82c955f7bcd0c934147fb39cafca947a4294425b1751d884c8ac954287"
                    ]
                },
                "nodeType": 1
            },
            "12": {
                "event": {
                    "contract": "0x5fdcca53617f4d2b9134b29090c87d01058e27e9",
                    "decodedLog": {
                        "name": "LogWithdrawalAllowed",
                        "params": [
                            {
                                "name": "ownerKey",
                                "type": "uint256",
                                "value": "3,201,832,359,861,798,876,129,094,068,911,576,001,547,029,890,241,204,386,432,538,860,517,767,104,335"
                            },
                            {
                                "name": "assetType",
                                "type": "uint256",
                                "value": "1,103,114,524,755,001,640,548,555,873,671,808,205,895,038,091,681,120,606,634,696,969,331,999,845,790"
                            },
                            {
                                "name": "nonQuantizedAmount",
                                "type": "uint256",
                                "value": "110,400,000,000,000,000"
                            },
                            {
                                "name": "quantizedAmount",
                                "type": "uint256",
                                "value": "1,104,000,000"
                            }
                        ],
                        "signature": "LogWithdrawalAllowed(uint256,uint256,uint256,uint256)"
                    },
                    "id": 12,
                    "logData": "0x07142c42d3a238bd6b7bf1420e44f6f118e962aa74f0e736706bcb348afdc74f02705737cd248ac819034b5de474c8f0368224f72a0fda9e031499d519992d9e000000000000000000000000000000000000000000000000018838370f3400000000000000000000000000000000000000000000000000000000000041cdb400",
                    "logDecoded": true,
                    "operation": "EVENT",
                    "revert": false,
                    "status": true,
                    "topics": [
                        "0x03c10a82c955f7bcd0c934147fb39cafca947a4294425b1751d884c8ac954287"
                    ]
                },
                "nodeType": 1
            },
            "13": {
                "event": {
                    "contract": "0x5fdcca53617f4d2b9134b29090c87d01058e27e9",
                    "decodedLog": {
                        "name": "LogWithdrawalAllowed",
                        "params": [
                            {
                                "name": "ownerKey",
                                "type": "uint256",
                                "value": "3,552,402,248,346,812,044,173,460,013,152,794,821,302,059,778,592,212,414,453,652,564,908,501,397,711"
                            },
                            {
                                "name": "assetType",
                                "type": "uint256",
                                "value": "1,103,114,524,755,001,640,548,555,873,671,808,205,895,038,091,681,120,606,634,696,969,331,999,845,790"
                            },
                            {
                                "name": "nonQuantizedAmount",
                                "type": "uint256",
                                "value": "195,000,000,000,000,000"
                            },
                            {
                                "name": "quantizedAmount",
                                "type": "uint256",
                                "value": "1,950,000,000"
                            }
                        ],
                        "signature": "LogWithdrawalAllowed(uint256,uint256,uint256,uint256)"
                    },
                    "id": 13,
                    "logData": "0x07da96a2b15dd81bb14f4ddf41240f64e698bb1ae82d8a9fc32b2e6f3ad070cf02705737cd248ac819034b5de474c8f0368224f72a0fda9e031499d519992d9e00000000000000000000000000000000000000000000000002b4c7778333800000000000000000000000000000000000000000000000000000000000743aa380",
                    "logDecoded": true,
                    "operation": "EVENT",
                    "revert": false,
                    "status": true,
                    "topics": [
                        "0x03c10a82c955f7bcd0c934147fb39cafca947a4294425b1751d884c8ac954287"
                    ]
                },
                "nodeType": 1
            },
            "14": {
                "event": {
                    "contract": "0x5fdcca53617f4d2b9134b29090c87d01058e27e9",
                    "decodedLog": {
                        "name": "LogMintableWithdrawalAllowed",
                        "params": [
                            {
                                "name": "ownerKey",
                                "type": "uint256",
                                "value": "3,463,311,770,346,534,958,539,061,569,173,444,612,150,682,168,327,564,685,639,147,986,155,247,485,897"
                            },
                            {
                                "name": "assetId",
                                "type": "uint256",
                                "value": "1,810,045,322,824,563,304,003,606,007,880,300,963,203,344,480,141,093,681,797,229,854,653,748,751,682"
                            },
                            {
                                "name": "quantizedAmount",
                                "type": "uint256",
                                "value": "1"
                            }
                        ],
                        "signature": "LogMintableWithdrawalAllowed(uint256,uint256,uint256)"
                    },
                    "id": 14,
                    "logData": "0x07a82a3d3403487befe34cf42d558e1a98d5dfe860ef1daa82c4469457efc3c90400730871c6bbf99ffa8a62570cebd6b76a4ba608633b643a8fe1fb999e2d420000000000000000000000000000000000000000000000000000000000000001",
                    "logDecoded": true,
                    "operation": "EVENT",
                    "revert": false,
                    "status": true,
                    "topics": [
                        "0x2acce0cedb29dc4927e6c891b57ef5bc8858eea4bf52787ea94873aebd4aeca0"
                    ]
                },
                "nodeType": 1
            },
            "15": {
                "event": {
                    "contract": "0x5fdcca53617f4d2b9134b29090c87d01058e27e9",
                    "decodedLog": {
                        "name": "LogWithdrawalAllowed",
                        "params": [
                            {
                                "name": "ownerKey",
                                "type": "uint256",
                                "value": "816,721,537,142,674,653,768,257,087,343,071,255,194,634,255,902,235,496,918,757,135,215,365,112,772"
                            },
                            {
                                "name": "assetType",
                                "type": "uint256",
                                "value": "1,103,114,524,755,001,640,548,555,873,671,808,205,895,038,091,681,120,606,634,696,969,331,999,845,790"
                            },
                            {
                                "name": "nonQuantizedAmount",
                                "type": "uint256",
                                "value": "332,757,178,300,000,000"
                            },
                            {
                                "name": "quantizedAmount",
                                "type": "uint256",
                                "value": "3,327,571,783"
                            }
                        ],
                        "signature": "LogWithdrawalAllowed(uint256,uint256,uint256,uint256)"
                    },
                    "id": 15,
                    "logData": "0x01ce3f7d7d5bfe071c91e31ac77dd26916cd38a8aa9a096782f17187185ec3c402705737cd248ac819034b5de474c8f0368224f72a0fda9e031499d519992d9e000000000000000000000000000000000000000000000000049e30e40108670000000000000000000000000000000000000000000000000000000000c656b747",
                    "logDecoded": true,
                    "operation": "EVENT",
                    "revert": false,
                    "status": true,
                    "topics": [
                        "0x03c10a82c955f7bcd0c934147fb39cafca947a4294425b1751d884c8ac954287"
                    ]
                },
                "nodeType": 1
            },
            "16": {
                "event": {
                    "contract": "0x5fdcca53617f4d2b9134b29090c87d01058e27e9",
                    "decodedLog": {
                        "name": "LogWithdrawalAllowed",
                        "params": [
                            {
                                "name": "ownerKey",
                                "type": "uint256",
                                "value": "2,078,834,737,701,164,365,540,188,579,124,433,709,662,791,789,719,159,139,100,355,354,088,143,093,800"
                            },
                            {
                                "name": "assetType",
                                "type": "uint256",
                                "value": "636,117,700,839,179,604,858,620,718,832,286,872,417,390,350,654,465,827,892,936,533,551,518,041,557"
                            },
                            {
                                "name": "nonQuantizedAmount",
                                "type": "uint256",
                                "value": "918,692,000,000,000,000"
                            },
                            {
                                "name": "quantizedAmount",
                                "type": "uint256",
                                "value": "9,186,920,000"
                            }
                        ],
                        "signature": "LogWithdrawalAllowed(uint256,uint256,uint256,uint256)"
                    },
                    "id": 16,
                    "logData": "0x04989429f41488800f54239d4f3c42687a23a2e241a4eb7b51fb3aaa2c308028016807a4e2986bc9d4c2c6a2fff6b2c6f351989c0f7a6d2164377848aac7c5d50000000000000000000000000000000000000000000000000cbfd981adfe40000000000000000000000000000000000000000000000000000000000223954640",
                    "logDecoded": true,
                    "operation": "EVENT",
                    "revert": false,
                    "status": true,
                    "topics": [
                        "0x03c10a82c955f7bcd0c934147fb39cafca947a4294425b1751d884c8ac954287"
                    ]
                },
                "nodeType": 1
            },
            "17": {
                "event": {
                    "contract": "0x5fdcca53617f4d2b9134b29090c87d01058e27e9",
                    "decodedLog": {
                        "name": "LogWithdrawalAllowed",
                        "params": [
                            {
                                "name": "ownerKey",
                                "type": "uint256",
                                "value": "819,126,657,448,486,890,322,907,574,263,090,636,209,699,012,782,218,806,390,914,568,935,421,230,424"
                            },
                            {
                                "name": "assetType",
                                "type": "uint256",
                                "value": "1,103,114,524,755,001,640,548,555,873,671,808,205,895,038,091,681,120,606,634,696,969,331,999,845,790"
                            },
                            {
                                "name": "nonQuantizedAmount",
                                "type": "uint256",
                                "value": "98,851,460,200,000,000"
                            },
                            {
                                "name": "quantizedAmount",
                                "type": "uint256",
                                "value": "988,514,602"
                            }
                        ],
                        "signature": "LogWithdrawalAllowed(uint256,uint256,uint256,uint256)"
                    },
                    "id": 17,
                    "logData": "0x01cf9bf85c28ee6382ff44ff09ef8ae1a657a38005407cd0a153e8069e7bbd5802705737cd248ac819034b5de474c8f0368224f72a0fda9e031499d519992d9e000000000000000000000000000000000000000000000000015f30e11abfea00000000000000000000000000000000000000000000000000000000003aeb892a",
                    "logDecoded": true,
                    "operation": "EVENT",
                    "revert": false,
                    "status": true,
                    "topics": [
                        "0x03c10a82c955f7bcd0c934147fb39cafca947a4294425b1751d884c8ac954287"
                    ]
                },
                "nodeType": 1
            },
            "18": {
                "event": {
                    "contract": "0x5fdcca53617f4d2b9134b29090c87d01058e27e9",
                    "decodedLog": {
                        "name": "LogWithdrawalAllowed",
                        "params": [
                            {
                                "name": "ownerKey",
                                "type": "uint256",
                                "value": "2,499,934,965,726,027,391,203,567,106,119,760,158,198,232,395,598,351,561,460,719,200,680,317,168,822"
                            },
                            {
                                "name": "assetType",
                                "type": "uint256",
                                "value": "636,117,700,839,179,604,858,620,718,832,286,872,417,390,350,654,465,827,892,936,533,551,518,041,557"
                            },
                            {
                                "name": "nonQuantizedAmount",
                                "type": "uint256",
                                "value": "64,356,330,000,000,000,000"
                            },
                            {
                                "name": "quantizedAmount",
                                "type": "uint256",
                                "value": "643,563,300,000"
                            }
                        ],
                        "signature": "LogWithdrawalAllowed(uint256,uint256,uint256,uint256)"
                    },
                    "id": 18,
                    "logData": "0x0586e9bd830b91cfc5c4f191e460d010fe770de98ac903b87d75019963d62cb6016807a4e2986bc9d4c2c6a2fff6b2c6f351989c0f7a6d2164377848aac7c5d50000000000000000000000000000000000000000000000037d1f9d2919d0a00000000000000000000000000000000000000000000000000000000095d75ca4a0",
                    "logDecoded": true,
                    "operation": "EVENT",
                    "revert": false,
                    "status": true,
                    "topics": [
                        "0x03c10a82c955f7bcd0c934147fb39cafca947a4294425b1751d884c8ac954287"
                    ]
                },
                "nodeType": 1
            },
            "19": {
                "event": {
                    "contract": "0x5fdcca53617f4d2b9134b29090c87d01058e27e9",
                    "decodedLog": {
                        "name": "LogWithdrawalAllowed",
                        "params": [
                            {
                                "name": "ownerKey",
                                "type": "uint256",
                                "value": "3,248,898,209,376,880,020,442,435,765,237,844,928,390,954,192,016,370,305,373,479,412,079,812,491,020"
                            },
                            {
                                "name": "assetType",
                                "type": "uint256",
                                "value": "1,103,114,524,755,001,640,548,555,873,671,808,205,895,038,091,681,120,606,634,696,969,331,999,845,790"
                            },
                            {
                                "name": "nonQuantizedAmount",
                                "type": "uint256",
                                "value": "1,586,000,000,000,000"
                            },
                            {
                                "name": "quantizedAmount",
                                "type": "uint256",
                                "value": "15,860,000"
                            }
                        ],
                        "signature": "LogWithdrawalAllowed(uint256,uint256,uint256,uint256)"
                    },
                    "id": 19,
                    "logData": "0x072ecfac36374313aa467a4985e5673db2e04a0b870b71a919720bd57195370c02705737cd248ac819034b5de474c8f0368224f72a0fda9e031499d519992d9e0000000000000000000000000000000000000000000000000005a275669d20000000000000000000000000000000000000000000000000000000000000f20120",
                    "logDecoded": true,
                    "operation": "EVENT",
                    "revert": false,
                    "status": true,
                    "topics": [
                        "0x03c10a82c955f7bcd0c934147fb39cafca947a4294425b1751d884c8ac954287"
                    ]
                },
                "nodeType": 1
            },
            "2": {
                "invocation": {
                    "address": "0x86d8f977c9cec503ad4e6805802cef62cde13773",
                    "callData": "0x000000000000000000000000000000000000000000000000000000000000004000000000000000000000000000000000000000000000000000000000000007e0000000000000000000000000000000000000000000000000000000000000003c02f45bd6fa48b40943a4c87f988e1ce360667e9d449b7397f435f5a0f1701b470453109920bd5c060f01f73ffeb38d96530dc7aa64d705210e0d9cc6a82ab66e008449f78273d9ed6975c41e69b97e2e6094f9085e7eab07492b80981bddf02c04e2f073f5d3b979854f63bf1f7ce79375e183585d8c5317f829a6033c37b9200000000000000000000000000000000000000000000000000000000000073d44000000000000000000000000000000000000000000000000000000000000001f000000000000000000000000000000000000000000000000000000000000003f00000000000000000000000000000000000000000000000000000000000000000000000000000000000000000000000000000000000000000000000000000010000000000000000000000000000000000000000000000000000000000000000000000000000000000000000000000000000000000000000000000000000000000000000000000000000000000000000000000000000000000000000000000000052918fee9e169d773425b682752304e181f58444bef4a0e9572781d1796045902705737cd248ac819034b5de474c8f0368224f72a0fda9e031499d519992d9e000000000000000000000000000000000000000020659d027ffffffff4e42e52009cb661971d610f486c52ae21706a9d6571bdaa8f479e490199e1acd9f261d402893294412a4c8f915f75892b395ebbf6859ec246ec365c3b1f56f47c3a0a5d00000000000000000000000000000000000000001ff4f3f77ffffffeeedc996007142c42d3a238bd6b7bf1420e44f6f118e962aa74f0e736706bcb348afdc74f02705737cd248ac819034b5de474c8f0368224f72a0fda9e031499d519992d9e00000000000000000000000000000000000000002065738c7fffffffbe324c0007da96a2b15dd81bb14f4ddf41240f64e698bb1ae82d8a9fc32b2e6f3ad070cf02705737cd248ac819034b5de474c8f0368224f72a0fda9e031499d519992d9e000000000000000000000000000000000000000001047de77fffffff8bc55c8007a82a3d3403487befe34cf42d558e1a98d5dfe860ef1daa82c4469457efc3c90400730871c6bbf99ffa8a62570cebd6b76a4ba608633b643a8fe1fb999e2d4200000000000000000000000000000000000000001d40d5397fffffffffffffff01ce3f7d7d5bfe071c91e31ac77dd26916cd38a8aa9a096782f17187185ec3c402705737cd248ac819034b5de474c8f0368224f72a0fda9e031499d519992d9e0000000000000000000000000000000000000000140064937fffffff39a948b904989429f41488800f54239d4f3c42687a23a2e241a4eb7b51fb3aaa2c308028016807a4e2986bc9d4c2c6a2fff6b2c6f351989c0f7a6d2164377848aac7c5d50000000000000000000000000000000000000000203497117ffffffddc6ab9c003ca1e0c24c9e84331eb30f4a7c469a45ea79059d16d01c43bfdc854d7c4d471003252dec1ad51e115659dcfab7cbf9489e2ab1d7a81b747ec1a9e5daa0261dd00000000000000000000000000000000000000002077f838800002f4b318740001cf9bf85c28ee6382ff44ff09ef8ae1a657a38005407cd0a153e8069e7bbd5802705737cd248ac819034b5de474c8f0368224f72a0fda9e031499d519992d9e00000000000000000000000000000000000000001a73fd0e7fffffffc51476d6060bb33caddc25e5f1b2f3e8807fa353e5da427deeaa58316ff89a7f43346c58003252dec1ad51e115659dcfab7cbf9489e2ab1d7a81b747ec1a9e5daa0261dd00000000000000000000000000000000000000001b10339d8000043aa99924000586e9bd830b91cfc5c4f191e460d010fe770de98ac903b87d75019963d62cb6016807a4e2986bc9d4c2c6a2fff6b2c6f351989c0f7a6d2164377848aac7c5d5000000000000000000000000000000000000000002b5f0db7fffff6a28a35b6002bc07c4b0fdc9c268e15fecc441fb8c4c6be4ca727486e2a690ce5470328cce02705737cd248ac819034b5de474c8f0368224f72a0fda9e031499d519992d9e00000000000000000000000000000000000000002077fdea800000001443fd00072ecfac36374313aa467a4985e5673db2e04a0b870b71a919720bd57195370c02705737cd248ac819034b5de474c8f0368224f72a0fda9e031499d519992d9e0000000000000000000000000000000000000000144073867fffffffff0dfee00050170373639aa6ab2e1fdcdb88caaf6a3b62660197acecf3e91bf6ce0bf44e003252dec1ad51e115659dcfab7cbf9489e2ab1d7a81b747ec1a9e5daa0261dd00000000000000000000000000000000000000001fbce4dd7fffdb81c70be90000b1c51f7e51240aeea737e83c7164102a46a40176a5d0a520d35332d244a5af02705737cd248ac819034b5de474c8f0368224f72a0fda9e031499d519992d9e000000000000000000000000000000000000000002070fe17fffffffffb3b4c0033a01f1bf14a394355ca75a7cdb2311ee32e071d3a07001947e2fb323bef36902705737cd248ac819034b5de474c8f0368224f72a0fda9e031499d519992d9e00000000000000000000000000000000000000001cc2ad79800000001a39de00000000000000000000000000000000000000000000000000000000000000000200000000000000000000000000000000000000000000000000000000000055260000000000000000000000000000000000000000000000000000000000005525",
                    "decodedMethod": {
                        "callParams": [
                            {
                                "name": "publicInput",
                                "type": "uint256[]",
                                "value": [
                                    "1,336,370,235,676,584,570,878,124,466,521,946,343,097,141,759,347,147,855,194,831,417,750,060,014,407",
                                    "1,956,014,256,970,951,475,975,124,290,699,489,293,436,997,025,517,143,599,397,601,834,046,623,233,646",
                                    "233,734,312,879,145,597,619,513,981,055,230,148,886,151,301,136,181,338,697,382,932,567,191,056,428",
                                    "2,210,218,376,378,686,740,143,139,386,064,978,972,994,358,832,122,710,842,609,702,108,906,927,929,632",
                                    "474,436",
                                    "31",
                                    "63",
                                    "0",
                                    "16",
                                    "0",
                                    "0",
                                    "0",
                                    "2,334,177,486,941,515,800,193,752,459,307,440,051,714,235,164,052,989,076,493,196,382,262,282,028,121",
                                    "1,103,114,524,755,001,640,548,555,873,671,808,205,895,038,091,681,120,606,634,696,969,331,999,845,790",
                                    "10,026,363,279,718,790,464,224,374,354",
                                    "276,886,890,969,612,470,551,710,848,744,386,009,547,989,872,926,721,377,545,900,211,964,044,534,228",
                                    "1,147,032,829,293,317,481,173,155,891,309,375,254,605,214,077,236,177,772,270,270,553,197,624,560,221",
                                    "9,890,165,305,072,162,211,414,972,768",
                                    "3,201,832,359,861,798,876,129,094,068,911,576,001,547,029,890,241,204,386,432,538,860,517,767,104,335",
                                    "1,103,114,524,755,001,640,548,555,873,671,808,205,895,038,091,681,120,606,634,696,969,331,999,845,790",
                                    "10,026,167,485,977,192,110,125,894,656",
                                    "3,552,402,248,346,812,044,173,460,013,152,794,821,302,059,778,592,212,414,453,652,564,908,501,397,711",
                                    "1,103,114,524,755,001,640,548,555,873,671,808,205,895,038,091,681,120,606,634,696,969,331,999,845,790",
                                    "314,915,279,331,415,352,886,516,864",
                                    "3,463,311,770,346,534,958,539,061,569,173,444,612,150,682,168,327,564,685,639,147,986,155,247,485,897",
                                    "1,810,045,322,824,563,304,003,606,007,880,300,963,203,344,480,141,093,681,797,229,854,653,748,751,682",
                                    "9,053,443,462,022,978,732,929,581,055",
                                    "816,721,537,142,674,653,768,257,087,343,071,255,194,634,255,902,235,496,918,757,135,215,365,112,772",
                                    "1,103,114,524,755,001,640,548,555,873,671,808,205,895,038,091,681,120,606,634,696,969,331,999,845,790",
                                    "6,190,175,153,969,939,207,848,282,297",
                                    "2,078,834,737,701,164,365,540,188,579,124,433,709,662,791,789,719,159,139,100,355,354,088,143,093,800",
                                    "636,117,700,839,179,604,858,620,718,832,286,872,417,390,350,654,465,827,892,936,533,551,518,041,557",
                                    "9,967,097,857,059,937,513,435,216,320",
                                    "1,714,049,032,619,098,857,906,636,184,587,178,671,534,852,833,207,468,557,694,829,507,561,681,900,657",
                                    "88,914,301,944,088,089,141,574,999,348,394,996,493,546,404,963,067,902,156,417,732,601,144,566,237",
                                    "10,048,554,675,945,978,157,585,691,648",
                                    "819,126,657,448,486,890,322,907,574,263,090,636,209,699,012,782,218,806,390,914,568,935,421,230,424",
                                    "1,103,114,524,755,001,640,548,555,873,671,808,205,895,038,091,681,120,606,634,696,969,331,999,845,790",
                                    "8,186,831,750,808,609,229,974,566,614",
                                    "2,734,549,457,714,626,207,225,137,427,584,812,452,142,250,407,130,902,340,663,006,241,009,406,602,328",
                                    "88,914,301,944,088,089,141,574,999,348,394,996,493,546,404,963,067,902,156,417,732,601,144,566,237",
                                    "8,375,681,824,342,973,533,524,665,344",
                                    "2,499,934,965,726,027,391,203,567,106,119,760,158,198,232,395,598,351,561,460,719,200,680,317,168,822",
                                    "636,117,700,839,179,604,858,620,718,832,286,872,417,390,350,654,465,827,892,936,533,551,518,041,557",
                                    "838,923,010,009,150,268,605,946,720",
                                    "1,236,846,560,358,209,037,973,143,099,906,268,320,226,747,041,803,906,353,541,267,218,682,994,658,510",
                                    "1,103,114,524,755,001,640,548,555,873,671,808,205,895,038,091,681,120,606,634,696,969,331,999,845,790",
                                    "10,048,581,571,298,834,376,451,947,776",
                                    "3,248,898,209,376,880,020,442,435,765,237,844,928,390,954,192,016,370,305,373,479,412,079,812,491,020",
                                    "1,103,114,524,755,001,640,548,555,873,671,808,205,895,038,091,681,120,606,634,696,969,331,999,845,790",
                                    "6,267,617,002,114,845,564,795,223,776",
                                    "141,506,598,379,975,225,118,500,107,690,394,998,014,374,580,706,435,890,584,192,308,172,523,566,158",
                                    "88,914,301,944,088,089,141,574,999,348,394,996,493,546,404,963,067,902,156,417,732,601,144,566,237",
                                    "9,822,394,144,061,113,896,547,379,456",
                                    "314,092,423,557,166,584,988,531,922,203,463,726,663,063,534,087,450,163,181,257,979,793,498,219,951",
                                    "1,103,114,524,755,001,640,548,555,873,671,808,205,895,038,091,681,120,606,634,696,969,331,999,845,790",
                                    "627,507,495,618,024,207,849,600,192",
                                    "1,459,429,094,723,577,122,805,512,109,657,134,381,019,995,109,703,194,830,872,960,209,658,459,386,729",
                                    "1,103,114,524,755,001,640,548,555,873,671,808,205,895,038,091,681,120,606,634,696,969,331,999,845,790",
                                    "8,900,931,094,683,841,388,959,358,464"
                                ]
                            },
                            {
                                "name": "applicationData",
                                "type": "uint256[]",
                                "value": [
                                    "21,798",
                                    "21,797"
                                ]
                            }
                        ],
                        "constructorArguments": "",
                        "name": "updateState",
                        "returnParams": [],
                        "signature": "updateState(uint256[],uint256[])"
                    },
                    "errorInfo": "",
                    "fromAddress": "0x5fdcca53617f4d2b9134b29090c87d01058e27e9",
                    "gasUsed": 376195,
                    "id": 2,
                    "methodDecoded": true,
                    "operation": "DELEGATECALL",
                    "output": "",
                    "revert": false,
                    "revertMessage": "",
                    "selector": "0x538f9406",
                    "status": true,
                    "value": "0"
                },
                "nodeType": 0
            },
            "20": {
                "event": {
                    "contract": "0x5fdcca53617f4d2b9134b29090c87d01058e27e9",
                    "decodedLog": {
                        "name": "LogWithdrawalAllowed",
                        "params": [
                            {
                                "name": "ownerKey",
                                "type": "uint256",
                                "value": "141,506,598,379,975,225,118,500,107,690,394,998,014,374,580,706,435,890,584,192,308,172,523,566,158"
                            },
                            {
                                "name": "assetType",
                                "type": "uint256",
                                "value": "88,914,301,944,088,089,141,574,999,348,394,996,493,546,404,963,067,902,156,417,732,601,144,566,237"
                            },
                            {
                                "name": "nonQuantizedAmount",
                                "type": "uint256",
                                "value": "4,012,454,000,000,000,000,000"
                            },
                            {
                                "name": "quantizedAmount",
                                "type": "uint256",
                                "value": "40,124,540,000,000"
                            }
                        ],
                        "signature": "LogWithdrawalAllowed(uint256,uint256,uint256,uint256)"
                    },
                    "id": 20,
                    "logData": "0x0050170373639aa6ab2e1fdcdb88caaf6a3b62660197acecf3e91bf6ce0bf44e003252dec1ad51e115659dcfab7cbf9489e2ab1d7a81b747ec1a9e5daa0261dd0000000000000000000000000000000000000000000000d983fc361b8b3700000000000000000000000000000000000000000000000000000000247e38f41700",
                    "logDecoded": true,
                    "operation": "EVENT",
                    "revert": false,
                    "status": true,
                    "topics": [
                        "0x03c10a82c955f7bcd0c934147fb39cafca947a4294425b1751d884c8ac954287"
                    ]
                },
                "nodeType": 1
            },
            "21": {
                "event": {
                    "contract": "0x5fdcca53617f4d2b9134b29090c87d01058e27e9",
                    "decodedLog": {
                        "name": "LogWithdrawalAllowed",
                        "params": [
                            {
                                "name": "ownerKey",
                                "type": "uint256",
                                "value": "314,092,423,557,166,584,988,531,922,203,463,726,663,063,534,087,450,163,181,257,979,793,498,219,951"
                            },
                            {
                                "name": "assetType",
                                "type": "uint256",
                                "value": "1,103,114,524,755,001,640,548,555,873,671,808,205,895,038,091,681,120,606,634,696,969,331,999,845,790"
                            },
                            {
                                "name": "nonQuantizedAmount",
                                "type": "uint256",
                                "value": "500,000,000,000,000"
                            },
                            {
                                "name": "quantizedAmount",
                                "type": "uint256",
                                "value": "5,000,000"
                            }
                        ],
                        "signature": "LogWithdrawalAllowed(uint256,uint256,uint256,uint256)"
                    },
                    "id": 21,
                    "logData": "0x00b1c51f7e51240aeea737e83c7164102a46a40176a5d0a520d35332d244a5af02705737cd248ac819034b5de474c8f0368224f72a0fda9e031499d519992d9e0000000000000000000000000000000000000000000000000001c6bf5263400000000000000000000000000000000000000000000000000000000000004c4b40",
                    "logDecoded": true,
                    "operation": "EVENT",
                    "revert": false,
                    "status": true,
                    "topics": [
                        "0x03c10a82c955f7bcd0c934147fb39cafca947a4294425b1751d884c8ac954287"
                    ]
                },
                "nodeType": 1
            },
            "3": {
                "event": {
                    "contract": "0x5fdcca53617f4d2b9134b29090c87d01058e27e9",
                    "decodedLog": {
                        "name": "LogStateTransitionFact",
                        "params": [
                            {
                                "name": "stateTransitionFact",
                                "type": "bytes32",
                                "value": "0x5fdb0a596888580e38d7c91419f21bd3f4ef63fcbab3f177cbec61a2e6967c45"
                            }
                        ],
                        "signature": "LogStateTransitionFact(bytes32)"
                    },
                    "id": 3,
                    "logData": "0x5fdb0a596888580e38d7c91419f21bd3f4ef63fcbab3f177cbec61a2e6967c45",
                    "logDecoded": true,
                    "operation": "EVENT",
                    "revert": false,
                    "status": true,
                    "topics": [
                        "0x9866f8ddfe70bb512b2f2b28b49d4017c43f7ba775f1a20c61c13eea8cdac111"
                    ]
                },
                "nodeType": 1
            },
            "4": {
                "invocation": {
                    "address": "0x6e3abce72a3cd5edc05e59283c733fd4bf8b3bae",
                    "callData": "0x5fdb0a596888580e38d7c91419f21bd3f4ef63fcbab3f177cbec61a2e6967c45",
                    "decodedMethod": {
                        "callParams": [
                            {
                                "name": "fact",
                                "type": "bytes32",
                                "value": "0x5fdb0a596888580e38d7c91419f21bd3f4ef63fcbab3f177cbec61a2e6967c45"
                            }
                        ],
                        "constructorArguments": "",
                        "name": "isValid",
                        "returnParams": [
                            {
                                "name": "",
                                "type": "bool",
                                "value": true
                            }
                        ],
                        "signature": "isValid(bytes32)"
                    },
                    "errorInfo": "",
                    "fromAddress": "0x5fdcca53617f4d2b9134b29090c87d01058e27e9",
                    "gasUsed": 20538,
                    "id": 4,
                    "methodDecoded": true,
                    "operation": "STATICCALL",
                    "output": "0x0000000000000000000000000000000000000000000000000000000000000001",
                    "revert": false,
                    "revertMessage": "",
                    "selector": "0x6a938567",
                    "status": true,
                    "value": "0"
                },
                "nodeType": 0
            },
            "5": {
                "invocation": {
                    "address": "0x47312450b3ac8b5b8e247a6bb6d523e7605bdb60",
                    "callData": "0xaf20ac22946f33e58513e8e30b9684c52fc9b6e1dbbfa72af07157da913d304c",
                    "decodedMethod": {
                        "callParams": [
                            {
                                "name": "fact",
                                "type": "bytes32",
                                "value": "0xaf20ac22946f33e58513e8e30b9684c52fc9b6e1dbbfa72af07157da913d304c"
                            }
                        ],
                        "constructorArguments": "",
                        "name": "isValid",
                        "returnParams": [
                            {
                                "name": "",
                                "type": "bool",
                                "value": true
                            }
                        ],
                        "signature": "isValid(bytes32)"
                    },
                    "errorInfo": "",
                    "fromAddress": "0x6e3abce72a3cd5edc05e59283c733fd4bf8b3bae",
                    "gasUsed": 12994,
                    "id": 5,
                    "methodDecoded": true,
                    "operation": "STATICCALL",
                    "output": "0x0000000000000000000000000000000000000000000000000000000000000001",
                    "revert": false,
                    "revertMessage": "",
                    "selector": "0x6a938567",
                    "status": true,
                    "value": "0"
                },
                "nodeType": 0
            },
            "6": {
                "invocation": {
                    "address": "0xd4c4044aca68ebbcb81b13cc2699e1bca2d3f458",
                    "callData": "0xaf20ac22946f33e58513e8e30b9684c52fc9b6e1dbbfa72af07157da913d304c",
                    "decodedMethod": {
                        "callParams": [
                            {
                                "name": "fact",
                                "type": "bytes32",
                                "value": "0xaf20ac22946f33e58513e8e30b9684c52fc9b6e1dbbfa72af07157da913d304c"
                            }
                        ],
                        "constructorArguments": "",
                        "name": "isValid",
                        "returnParams": [
                            {
                                "name": "",
                                "type": "bool",
                                "value": true
                            }
                        ],
                        "signature": "isValid(bytes32)"
                    },
                    "errorInfo": "",
                    "fromAddress": "0x47312450b3ac8b5b8e247a6bb6d523e7605bdb60",
                    "gasUsed": 7886,
                    "id": 6,
                    "methodDecoded": true,
                    "operation": "DELEGATECALL",
                    "output": "0x0000000000000000000000000000000000000000000000000000000000000001",
                    "revert": false,
                    "revertMessage": "",
                    "selector": "0x6a938567",
                    "status": true,
                    "value": "0"
                },
                "nodeType": 0
            },
            "7": {
                "invocation": {
                    "address": "0x6cb3ee90c50a38a0e4662bb7e7e6e40b91361bf6",
                    "callData": "0xaf20ac22946f33e58513e8e30b9684c52fc9b6e1dbbfa72af07157da913d304c",
                    "decodedMethod": {
                        "callParams": [
                            {
                                "name": "fact",
                                "type": "bytes32",
                                "value": "0xaf20ac22946f33e58513e8e30b9684c52fc9b6e1dbbfa72af07157da913d304c"
                            }
                        ],
                        "constructorArguments": "",
                        "name": "isValid",
                        "returnParams": [
                            {
                                "name": "",
                                "type": "bool",
                                "value": true
                            }
                        ],
                        "signature": "isValid(bytes32)"
                    },
                    "errorInfo": "",
                    "fromAddress": "0x47312450b3ac8b5b8e247a6bb6d523e7605bdb60",
                    "gasUsed": 2528,
                    "id": 7,
                    "methodDecoded": true,
                    "operation": "STATICCALL",
                    "output": "0x0000000000000000000000000000000000000000000000000000000000000001",
                    "revert": false,
                    "revertMessage": "",
                    "selector": "0x6a938567",
                    "status": true,
                    "value": "0"
                },
                "nodeType": 0
            },
            "8": {
                "invocation": {
                    "address": "0x16ba0f221664a5189cf2c1a7af0d3abfc70aa295",
                    "callData": "0x83b10187da492ff7bc909c572e8e4b6b009addf322e5d61615e7e93be7bf02b7",
                    "decodedMethod": {
                        "callParams": [
                            {
                                "name": "fact",
                                "type": "bytes32",
                                "value": "0x83b10187da492ff7bc909c572e8e4b6b009addf322e5d61615e7e93be7bf02b7"
                            }
                        ],
                        "constructorArguments": "",
                        "name": "isValid",
                        "returnParams": [
                            {
                                "name": "",
                                "type": "bool",
                                "value": true
                            }
                        ],
                        "signature": "isValid(bytes32)"
                    },
                    "errorInfo": "",
                    "fromAddress": "0x5fdcca53617f4d2b9134b29090c87d01058e27e9",
                    "gasUsed": 2461,
                    "id": 8,
                    "methodDecoded": true,
                    "operation": "STATICCALL",
                    "output": "0x0000000000000000000000000000000000000000000000000000000000000001",
                    "revert": false,
                    "revertMessage": "",
                    "selector": "0x6a938567",
                    "status": true,
                    "value": "0"
                },
                "nodeType": 0
            },
            "9": {
                "event": {
                    "contract": "0x5fdcca53617f4d2b9134b29090c87d01058e27e9",
                    "decodedLog": {
                        "name": "LogRootUpdate",
                        "params": [
                            {
                                "name": "sequenceNumber",
                                "type": "uint256",
                                "value": "21,621"
                            },
                            {
                                "name": "batchId",
                                "type": "uint256",
                                "value": "21,798"
                            },
                            {
                                "name": "vaultRoot",
                                "type": "uint256",
                                "value": "1,956,014,256,970,951,475,975,124,290,699,489,293,436,997,025,517,143,599,397,601,834,046,623,233,646"
                            },
                            {
                                "name": "orderRoot",
                                "type": "uint256",
                                "value": "2,210,218,376,378,686,740,143,139,386,064,978,972,994,358,832,122,710,842,609,702,108,906,927,929,632"
                            }
                        ],
                        "signature": "LogRootUpdate(uint256,uint256,uint256,uint256)"
                    },
                    "id": 9,
                    "logData": "0x000000000000000000000000000000000000000000000000000000000000547500000000000000000000000000000000000000000000000000000000000055260453109920bd5c060f01f73ffeb38d96530dc7aa64d705210e0d9cc6a82ab66e04e2f073f5d3b979854f63bf1f7ce79375e183585d8c5317f829a6033c37b920",
                    "logDecoded": true,
                    "operation": "EVENT",
                    "revert": false,
                    "status": true,
                    "topics": [
                        "0xd606ef105963a7e789d927c1d21df5111915b832996b92648138f59eb9763a20"
                    ]
                },
                "nodeType": 1
            }
        },
        "gasFlame": [
            {
                "children": [
                    {
                        "children": [
                            {
                                "children": [],
                                "depth": 0,
                                "name": "Initial Gas",
                                "value": 45544
                            },
                            {
                                "children": [
                                    {
                                        "children": [
                                            {
                                                "children": [
                                                    {
                                                        "children": [
                                                            {
                                                                "children": [
                                                                    {
                                                                        "children": [
                                                                            {
                                                                                "children": [],
                                                                                "depth": 6,
                                                                                "name": "isValid",
                                                                                "value": 2528
                                                                            }
                                                                        ],
                                                                        "depth": 5,
                                                                        "name": "isValid",
                                                                        "value": 7886
                                                                    }
                                                                ],
                                                                "depth": 4,
                                                                "name": "isValid",
                                                                "value": 12994
                                                            }
                                                        ],
                                                        "depth": 3,
                                                        "name": "isValid",
                                                        "value": 20538
                                                    },
                                                    {
                                                        "children": [],
                                                        "depth": 3,
                                                        "name": "isValid",
                                                        "value": 2461
                                                    }
                                                ],
                                                "depth": 2,
                                                "name": "updateState",
                                                "value": 376195
                                            }
                                        ],
                                        "depth": 1,
                                        "name": "updateState",
                                        "value": 382056
                                    }
                                ],
                                "depth": 0,
                                "name": "Executed Gas",
                                "value": 387524
                            }
                        ],
                        "depth": -1,
                        "name": "Actual Gas Used",
                        "value": 413868
                    },
                    {
                        "children": [],
                        "depth": -1,
                        "name": "Refunded Gas",
                        "value": 19200
                    }
                ],
                "depth": -2,
                "name": "Total Gas",
                "value": 433068
            }
        ],
        "isConfirmed": true,
        "mainTrace": [
            {
                "children": [
                    {
                        "children": [
                            {
                                "children": [
                                    {
                                        "children": [
                                            {
                                                "children": [],
                                                "depth": 3,
                                                "id": 3,
                                                "order": 3
                                            },
                                            {
                                                "children": [
                                                    {
                                                        "children": [
                                                            {
                                                                "children": [
                                                                    {
                                                                        "children": [],
                                                                        "depth": 6,
                                                                        "id": 7,
                                                                        "order": 7
                                                                    }
                                                                ],
                                                                "depth": 5,
                                                                "id": 6,
                                                                "order": 6
                                                            }
                                                        ],
                                                        "depth": 4,
                                                        "id": 5,
                                                        "order": 5
                                                    }
                                                ],
                                                "depth": 3,
                                                "id": 4,
                                                "order": 4
                                            },
                                            {
                                                "children": [],
                                                "depth": 3,
                                                "id": 8,
                                                "order": 8
                                            },
                                            {
                                                "children": [],
                                                "depth": 3,
                                                "id": 9,
                                                "order": 9
                                            },
                                            {
                                                "children": [],
                                                "depth": 3,
                                                "id": 10,
                                                "order": 10
                                            },
                                            {
                                                "children": [],
                                                "depth": 3,
                                                "id": 11,
                                                "order": 11
                                            },
                                            {
                                                "children": [],
                                                "depth": 3,
                                                "id": 12,
                                                "order": 12
                                            },
                                            {
                                                "children": [],
                                                "depth": 3,
                                                "id": 13,
                                                "order": 13
                                            },
                                            {
                                                "children": [],
                                                "depth": 3,
                                                "id": 14,
                                                "order": 14
                                            },
                                            {
                                                "children": [],
                                                "depth": 3,
                                                "id": 15,
                                                "order": 15
                                            },
                                            {
                                                "children": [],
                                                "depth": 3,
                                                "id": 16,
                                                "order": 16
                                            },
                                            {
                                                "children": [],
                                                "depth": 3,
                                                "id": 17,
                                                "order": 17
                                            },
                                            {
                                                "children": [],
                                                "depth": 3,
                                                "id": 18,
                                                "order": 18
                                            },
                                            {
                                                "children": [],
                                                "depth": 3,
                                                "id": 19,
                                                "order": 19
                                            },
                                            {
                                                "children": [],
                                                "depth": 3,
                                                "id": 20,
                                                "order": 20
                                            },
                                            {
                                                "children": [],
                                                "depth": 3,
                                                "id": 21,
                                                "order": 21
                                            }
                                        ],
                                        "depth": 2,
                                        "id": 2,
                                        "order": 2
                                    }
                                ],
                                "depth": 1,
                                "id": 1,
                                "order": 1
                            }
                        ],
                        "depth": 0,
                        "id": 0,
                        "order": 0
                    }
                ],
                "depth": -1,
                "id": -1,
                "order": -1
            }
        ],
        "mainTraceNodeCount": 22,
        "parentIdMap": {
            "0": -1,
            "1": 0,
            "10": 2,
            "11": 2,
            "12": 2,
            "13": 2,
            "14": 2,
            "15": 2,
            "16": 2,
            "17": 2,
            "18": 2,
            "19": 2,
            "2": 1,
            "20": 2,
            "21": 2,
            "3": 2,
            "4": 2,
            "5": 4,
            "6": 5,
            "7": 6,
            "8": 2,
            "9": 2
        },
        "tidyTrace": [
            {
                "children": [
                    {
                        "children": [
                            {
                                "children": [
                                    {
                                        "children": [
                                            {
                                                "children": [],
                                                "depth": 3,
                                                "id": 3,
                                                "order": 3
                                            },
                                            {
                                                "children": [],
                                                "depth": 3,
                                                "id": 9,
                                                "order": 9
                                            },
                                            {
                                                "children": [],
                                                "depth": 3,
                                                "id": 10,
                                                "order": 10
                                            },
                                            {
                                                "children": [],
                                                "depth": 3,
                                                "id": 11,
                                                "order": 11
                                            },
                                            {
                                                "children": [],
                                                "depth": 3,
                                                "id": 12,
                                                "order": 12
                                            },
                                            {
                                                "children": [],
                                                "depth": 3,
                                                "id": 13,
                                                "order": 13
                                            },
                                            {
                                                "children": [],
                                                "depth": 3,
                                                "id": 14,
                                                "order": 14
                                            },
                                            {
                                                "children": [],
                                                "depth": 3,
                                                "id": 15,
                                                "order": 15
                                            },
                                            {
                                                "children": [],
                                                "depth": 3,
                                                "id": 16,
                                                "order": 16
                                            },
                                            {
                                                "children": [],
                                                "depth": 3,
                                                "id": 17,
                                                "order": 17
                                            },
                                            {
                                                "children": [],
                                                "depth": 3,
                                                "id": 18,
                                                "order": 18
                                            },
                                            {
                                                "children": [],
                                                "depth": 3,
                                                "id": 19,
                                                "order": 19
                                            },
                                            {
                                                "children": [],
                                                "depth": 3,
                                                "id": 20,
                                                "order": 20
                                            },
                                            {
                                                "children": [],
                                                "depth": 3,
                                                "id": 21,
                                                "order": 21
                                            }
                                        ],
                                        "depth": 2,
                                        "id": 2,
                                        "order": 2
                                    }
                                ],
                                "depth": 1,
                                "id": 1,
                                "order": 1
                            }
                        ],
                        "depth": 0,
                        "id": 0,
                        "order": 0
                    }
                ],
                "depth": -1,
                "id": -1,
                "order": -1
            }
        ],
        "tidyTraceNodeCount": 17
    },
    "state_change": {
        "stateChanges": [
            {
                "address": "0x5fdcca53617f4d2b9134b29090c87d01058e27e9",
                "erc": "",
                "slots": [
                    {
                        "current": "0x0000000000000000000000000000000000000000000000000000000000005475",
                        "key": "0x000000000000000000000000000000000000000000000000000000000000000c",
                        "prev": "0x0000000000000000000000000000000000000000000000000000000000005474"
                    },
                    {
                        "current": "0x00000000000000000000000000000000000000000000000000000001112366a0",
                        "key": "0xd0a709755b233d2aa180edd68eb45c7acae7fbfb1871de63d922d10230ab356f",
                        "prev": "0x0000000000000000000000000000000000000000000000000000000000000000"
                    },
                    {
                        "current": "0x000000000000000000000000000000000000000000000000000000003aeb892a",
                        "key": "0xd891a02790296fa6fa1e171e7ec2112455d1b3f798dd43d26eb3f339441ef6ce",
                        "prev": "0x0000000000000000000000000000000000000000000000000000000000000000"
                    },
                    {
                        "current": "0x0000000000000000000000000000000000000000000000000000000000000000",
                        "key": "0x1a736c2fc173359ab85d235d09a451166445a06a9e8324fc1917fe7b86bca400",
                        "prev": "0x000000000000000000000000000000000000000000000000000000001a39de00"
                    },
                    {
                        "current": "0x0453109920bd5c060f01f73ffeb38d96530dc7aa64d705210e0d9cc6a82ab66e",
                        "key": "0x000000000000000000000000000000000000000000000000000000000000000d",
                        "prev": "0x02f45bd6fa48b40943a4c87f988e1ce360667e9d449b7397f435f5a0f1701b47"
                    },
                    {
                        "current": "0x0000000000000000000000000000000000000000000000000000000000f20120",
                        "key": "0xc4b04d57e79c59ef37bacca9cf6b84e8a71534e67d07cee771fed5bbdcc79dea",
                        "prev": "0x0000000000000000000000000000000000000000000000000000000000000000"
                    },
                    {
                        "current": "0x0000000000000000000000000000000000000000000000000000000000000000",
                        "key": "0x647a86e862c43da80b25a7060147cd23cb3151a625261b5d72c0335bf3bf0a38",
                        "prev": "0x0000000000000000000000000000000000000000000000000000043aa9992400"
                    },
                    {
                        "current": "0x0000000000000000000000000000000000000000000000000000001127740940",
                        "key": "0x67a894d93897371f85fdf13808a1908b656c80d19d2e687fb38fedf484a234f3",
                        "prev": "0x0000000000000000000000000000000000000000000000000000000f03dec300"
                    },
                    {
                        "current": "0x04e2f073f5d3b979854f63bf1f7ce79375e183585d8c5317f829a6033c37b920",
                        "key": "0x000000000000000000000000000000000000000000000000000000000000000f",
                        "prev": "0x008449f78273d9ed6975c41e69b97e2e6094f9085e7eab07492b80981bddf02c"
                    },
                    {
                        "current": "0x000000000000000000000000000000000000000000000000000000000b1bd1ae",
                        "key": "0xb228e13b3a835634326be1949efea6ccefc5459296e45c98acbb0d7c2d691c29",
                        "prev": "0x0000000000000000000000000000000000000000000000000000000000000000"
                    },
                    {
                        "current": "0x00000000000000000000000000000000000000000000000000000000743aa380",
                        "key": "0xdcca140278ec9eac45401a5f454facf8ca008e45c00586dee970092a06b7d6a7",
                        "prev": "0x0000000000000000000000000000000000000000000000000000000000000000"
                    },
                    {
                        "current": "0x000000000000000000000000000000000000000000000000000000caf84e6100",
                        "key": "0xf49f487279d7f01b38e78254293f16bfaebda7e887e1df8bae2b09c21ced1a89",
                        "prev": "0x0000000000000000000000000000000000000000000000000000003520f1bc60"
                    },
                    {
                        "current": "0x00000000000000000000000000000000000000000000000000000000e8590ed9",
                        "key": "0xdf0d6915a38fd39abd14d83268ac2ac0992e509e77b7415843177f7333995546",
                        "prev": "0x00000000000000000000000000000000000000000000000000000000e80cc399"
                    },
                    {
                        "current": "0x0000000000000000000000000000000000000000000000000000000000000001",
                        "key": "0xbaebb8158468b542bb167d7c3b9432f3392b83c688f89dabcf1aba1ed156772e",
                        "prev": "0x0000000000000000000000000000000000000000000000000000000000000000"
                    },
                    {
                        "current": "0x0000000000000000000000000000000000000000000000000000000000000000",
                        "key": "0x02f4e007186519ecb352b028b812fc7c74bf151c30b9f25fd415614f7b500d35",
                        "prev": "0x000000000000000000000000000000000000000000000000000002f4b3187400"
                    },
                    {
                        "current": "0x0000000000000000000000000000000000000000000000000000000041cdb400",
                        "key": "0x05c2a9d885a611e7f7618d02dcca9fc8e68bbd7af53170b8d2f9b0e4c281a4a9",
                        "prev": "0x0000000000000000000000000000000000000000000000000000000000000000"
                    },
                    {
                        "current": "0x0000000000000000000000000000000000000000000000000000247e38f41700",
                        "key": "0xe0f828281a38c39554966c4f4c796ee76c0ca1f0c75e87c6cab549edb617d3f5",
                        "prev": "0x0000000000000000000000000000000000000000000000000000000000000000"
                    },
                    {
                        "current": "0x00000000000000000000000000000000000000000000000000000000c656b747",
                        "key": "0x06bc4ae3b3fca991af378684f3f978d67d3165c6db3ca12d008bcc742a8adf34",
                        "prev": "0x0000000000000000000000000000000000000000000000000000000000000000"
                    },
                    {
                        "current": "0x0000000000000000000000000000000000000000000000000000000000000000",
                        "key": "0x7907f9a4ef45163421c0f83296f4c41cd984619184c8557abeefa76a12f317ac",
                        "prev": "0x000000000000000000000000000000000000000000000000000000001443fd00"
                    },
                    {
                        "current": "0x0000000000000000000000000000000000000000000000000000000000005526",
                        "key": "0x000000000000000000000000000000000000000000000000000000000000001d",
                        "prev": "0x0000000000000000000000000000000000000000000000000000000000005525"
                    }
                ],
                "storageVariables": [
                    {
                        "name": "sequenceNumber",
                        "type": "uint256",
                        "value": {
                            "current": "21621",
                            "prev": "21620",
                            "typeTag": 1
                        }
                    },
                    {
                        "name": "orderRoot",
                        "type": "uint256",
                        "value": {
                            "current": "2210218376378686740143139386064978972994358832122710842609702108906927929632",
                            "prev": "233734312879145597619513981055230148886151301136181338697382932567191056428",
                            "typeTag": 1
                        }
                    },
                    {
                        "name": "pendingWithdrawals",
                        "type": "mapping(uint256 => mapping(uint256 => uint256))",
                        "value": {
                            "pairs": [
                                {
                                    "key": "141506598379975225118500107690394998014374580706435890584192308172523566158",
                                    "value": {
                                        "pairs": [
                                            {
                                                "key": "88914301944088089141574999348394996493546404963067902156417732601144566237",
                                                "value": {
                                                    "current": "40124540000000",
                                                    "prev": "0",
                                                    "typeTag": 1
                                                }
                                            }
                                        ],
                                        "typeTag": 4
                                    }
                                },
                                {
                                    "key": "2078834737701164365540188579124433709662791789719159139100355354088143093800",
                                    "value": {
                                        "pairs": [
                                            {
                                                "key": "636117700839179604858620718832286872417390350654465827892936533551518041557",
                                                "value": {
                                                    "current": "73676360000",
                                                    "prev": "64489440000",
                                                    "typeTag": 1
                                                }
                                            }
                                        ],
                                        "typeTag": 4
                                    }
                                },
                                {
                                    "key": "2334177486941515800193752459307440051714235164052989076493196382262282028121",
                                    "value": {
                                        "pairs": [
                                            {
                                                "key": "1103114524755001640548555873671808205895038091681120606634696969331999845790",
                                                "value": {
                                                    "current": "186372526",
                                                    "prev": "0",
                                                    "typeTag": 1
                                                }
                                            }
                                        ],
                                        "typeTag": 4
                                    }
                                },
                                {
                                    "key": "2499934965726027391203567106119760158198232395598351561460719200680317168822",
                                    "value": {
                                        "pairs": [
                                            {
                                                "key": "636117700839179604858620718832286872417390350654465827892936533551518041557",
                                                "value": {
                                                    "current": "871749280000",
                                                    "prev": "228185980000",
                                                    "typeTag": 1
                                                }
                                            }
                                        ],
                                        "typeTag": 4
                                    }
                                },
                                {
                                    "key": "276886890969612470551710848744386009547989872926721377545900211964044534228",
                                    "value": {
                                        "pairs": [
                                            {
                                                "key": "1147032829293317481173155891309375254605214077236177772270270553197624560221",
                                                "value": {
                                                    "current": "4582500000",
                                                    "prev": "0",
                                                    "typeTag": 1
                                                }
                                            }
                                        ],
                                        "typeTag": 4
                                    }
                                },
                                {
                                    "key": "314092423557166584988531922203463726663063534087450163181257979793498219951",
                                    "value": {
                                        "pairs": [
                                            {
                                                "key": "1103114524755001640548555873671808205895038091681120606634696969331999845790",
                                                "value": {
                                                    "current": "3898150617",
                                                    "prev": "3893150617",
                                                    "typeTag": 1
                                                }
                                            }
                                        ],
                                        "typeTag": 4
                                    }
                                },
                                {
                                    "key": "3201832359861798876129094068911576001547029890241204386432538860517767104335",
                                    "value": {
                                        "pairs": [
                                            {
                                                "key": "1103114524755001640548555873671808205895038091681120606634696969331999845790",
                                                "value": {
                                                    "current": "1104000000",
                                                    "prev": "0",
                                                    "typeTag": 1
                                                }
                                            }
                                        ],
                                        "typeTag": 4
                                    }
                                },
                                {
                                    "key": "3248898209376880020442435765237844928390954192016370305373479412079812491020",
                                    "value": {
                                        "pairs": [
                                            {
                                                "key": "1103114524755001640548555873671808205895038091681120606634696969331999845790",
                                                "value": {
                                                    "current": "15860000",
                                                    "prev": "0",
                                                    "typeTag": 1
                                                }
                                            }
                                        ],
                                        "typeTag": 4
                                    }
                                },
                                {
                                    "key": "3463311770346534958539061569173444612150682168327564685639147986155247485897",
                                    "value": {
                                        "pairs": [
                                            {
                                                "key": "1810045322824563304003606007880300963203344480141093681797229854653748751682",
                                                "value": {
                                                    "current": "1",
                                                    "prev": "0",
                                                    "typeTag": 1
                                                }
                                            }
                                        ],
                                        "typeTag": 4
                                    }
                                },
                                {
                                    "key": "3552402248346812044173460013152794821302059778592212414453652564908501397711",
                                    "value": {
                                        "pairs": [
                                            {
                                                "key": "1103114524755001640548555873671808205895038091681120606634696969331999845790",
                                                "value": {
                                                    "current": "1950000000",
                                                    "prev": "0",
                                                    "typeTag": 1
                                                }
                                            }
                                        ],
                                        "typeTag": 4
                                    }
                                },
                                {
                                    "key": "816721537142674653768257087343071255194634255902235496918757135215365112772",
                                    "value": {
                                        "pairs": [
                                            {
                                                "key": "1103114524755001640548555873671808205895038091681120606634696969331999845790",
                                                "value": {
                                                    "current": "3327571783",
                                                    "prev": "0",
                                                    "typeTag": 1
                                                }
                                            }
                                        ],
                                        "typeTag": 4
                                    }
                                },
                                {
                                    "key": "819126657448486890322907574263090636209699012782218806390914568935421230424",
                                    "value": {
                                        "pairs": [
                                            {
                                                "key": "1103114524755001640548555873671808205895038091681120606634696969331999845790",
                                                "value": {
                                                    "current": "988514602",
                                                    "prev": "0",
                                                    "typeTag": 1
                                                }
                                            }
                                        ],
                                        "typeTag": 4
                                    }
                                }
                            ],
                            "typeTag": 4
                        }
                    },
                    {
                        "name": "pendingDeposits",
                        "type": "mapping(uint256 => mapping(uint256 => mapping(uint256 => uint256)))",
                        "value": {
                            "pairs": [
                                {
                                    "key": "1236846560358209037973143099906268320226747041803906353541267218682994658510",
                                    "value": {
                                        "pairs": [
                                            {
                                                "key": "1103114524755001640548555873671808205895038091681120606634696969331999845790",
                                                "value": {
                                                    "pairs": [
                                                        {
                                                            "key": "544734698",
                                                            "value": {
                                                                "current": "0",
                                                                "prev": "340000000",
                                                                "typeTag": 1
                                                            }
                                                        }
                                                    ],
                                                    "typeTag": 4
                                                }
                                            }
                                        ],
                                        "typeTag": 4
                                    }
                                },
                                {
                                    "key": "1459429094723577122805512109657134381019995109703194830872960209658459386729",
                                    "value": {
                                        "pairs": [
                                            {
                                                "key": "1103114524755001640548555873671808205895038091681120606634696969331999845790",
                                                "value": {
                                                    "pairs": [
                                                        {
                                                            "key": "482520441",
                                                            "value": {
                                                                "current": "0",
                                                                "prev": "440000000",
                                                                "typeTag": 1
                                                            }
                                                        }
                                                    ],
                                                    "typeTag": 4
                                                }
                                            }
                                        ],
                                        "typeTag": 4
                                    }
                                },
                                {
                                    "key": "1714049032619098857906636184587178671534852833207468557694829507561681900657",
                                    "value": {
                                        "pairs": [
                                            {
                                                "key": "88914301944088089141574999348394996493546404963067902156417732601144566237",
                                                "value": {
                                                    "pairs": [
                                                        {
                                                            "key": "544733240",
                                                            "value": {
                                                                "current": "0",
                                                                "prev": "3250000000000",
                                                                "typeTag": 1
                                                            }
                                                        }
                                                    ],
                                                    "typeTag": 4
                                                }
                                            }
                                        ],
                                        "typeTag": 4
                                    }
                                },
                                {
                                    "key": "2734549457714626207225137427584812452142250407130902340663006241009406602328",
                                    "value": {
                                        "pairs": [
                                            {
                                                "key": "88914301944088089141574999348394996493546404963067902156417732601144566237",
                                                "value": {
                                                    "pairs": [
                                                        {
                                                            "key": "454046621",
                                                            "value": {
                                                                "current": "0",
                                                                "prev": "4650000000000",
                                                                "typeTag": 1
                                                            }
                                                        }
                                                    ],
                                                    "typeTag": 4
                                                }
                                            }
                                        ],
                                        "typeTag": 4
                                    }
                                }
                            ],
                            "typeTag": 4
                        }
                    },
                    {
                        "name": "vaultRoot",
                        "type": "uint256",
                        "value": {
                            "current": "1956014256970951475975124290699489293436997025517143599397601834046623233646",
                            "prev": "1336370235676584570878124466521946343097141759347147855194831417750060014407",
                            "typeTag": 1
                        }
                    },
                    {
                        "name": "lastBatchId",
                        "type": "uint256",
                        "value": {
                            "current": "21798",
                            "prev": "21797",
                            "typeTag": 1
                        }
                    }
                ]
            }
        ]
    }
}