{
    "balance_change": {
        "balanceChanges": [
            {
                "account": "0x9dc021f18f0989de48d44247ab6968adcfd09f26",
                "assets": [
                    {
                        "address": "0xeeeeeeeeeeeeeeeeeeeeeeeeeeeeeeeeeeeeeeee",
                        "amount": "1,377",
                        "iconUrl": "https://assets.blocksec.com/image/1663669189317-3.png",
                        "isERC1155": false,
                        "isERC721": false,
                        "sign": false,
                        "value": ""
                    }
                ]
            },
            {
                "account": "0x4a1e69aece0e4a033f962be6dd07c61ce1e5dc29",
                "assets": [
                    {
                        "address": "0xeeeeeeeeeeeeeeeeeeeeeeeeeeeeeeeeeeeeeeee",
                        "amount": "1,377",
                        "iconUrl": "https://assets.blocksec.com/image/1663669189317-3.png",
                        "isERC1155": false,
                        "isERC721": false,
                        "sign": true,
                        "value": ""
                    }
                ]
            }
        ]
    },
    "profile": {
        "basic_info": {
            "baseFee": "",
            "blockNumber": 1372422,
            "callData": "0x797af62783e8d8319413e324ee6f7611d997ff31193465672f6bc5514e95d9858b7efc17",
            "debugEnable": true,
            "errorInfo": "",
            "eventCount": 2,
            "feeRecipient": "0xf3b9d2c81f2b24b0fa0acaaa865b7d9ced5fc2fb",
            "formatValue": "0",
            "gasLimit": 200000,
            "gasPrice": "20",
            "gasUsed": 36194,
            "intTxnCount": 1,
            "internalRevert": false,
            "internalRevertMessage": "",
            "isContractCreation": false,
            "isFlashloan": false,
            "maxFee": "",
            "nonce": 30,
            "overwritedBlockNumber": -1,
            "priorityFee": "",
            "receiver": "0x9dc021f18f0989de48d44247ab6968adcfd09f26",
            "revertMessage": "",
            "sender": "0x60fbb881b53cc4317f3f6c9577f550277c8cc894",
            "simulationEnable": true,
            "sourceTxnHash": "0x2252e40f01c8f59fa2317a6828fad0fe14225c5c1c45872dce09dcf8a55b792c",
            "status": true,
            "timestamp": "2016-04-20T17:15:50Z",
            "transactionFee": "0.00072388",
            "txnHash": "0x2252e40f01c8f59fa2317a6828fad0fe14225c5c1c45872dce09dcf8a55b792c",
            "txnIndex": 0,
            "type": 0,
            "value": "0"
        },
        "fund_flow": [
            {
                "amount": "1,377",
                "from": "0x9dc021f18f0989de48d44247ab6968adcfd09f26",
                "id": 1,
                "isERC1155": false,
                "isERC721": false,
                "isReverted": false,
                "order": 1,
                "to": "0x4a1e69aece0e4a033f962be6dd07c61ce1e5dc29",
                "token": "0xeeeeeeeeeeeeeeeeeeeeeeeeeeeeeeeeeeeeeeee"
            }
        ],
        "token_infos": [
            {
                "address": "0xc02aaa39b223fe8d0a0e5c4f27ead9083c756cc2",
                "decimals": 18
            },
            {
                "address": "0xeeeeeeeeeeeeeeeeeeeeeeeeeeeeeeeeeeeeeeee",
                "decimals": 18
            }
        ]
    },
    "address_label": {
        "labels": [
            {
                "address": "0x9dc021f18f0989de48d44247ab6968adcfd09f26",
                "label": "Wallet"
            },
            {
                "address": "0x0000000000000000000000000000000000000001",
                "label": "Precompiled"
            },
            {
                "address": "0x0000000000000000000000000000000000000002",
                "label": "Precompiled"
            },
            {
                "address": "0x0000000000000000000000000000000000000003",
                "label": "Precompiled"
            },
            {
                "address": "0x0000000000000000000000000000000000000004",
                "label": "Precompiled"
            },
            {
                "address": "0xeeeeeeeeeeeeeeeeeeeeeeeeeeeeeeeeeeeeeeee",
                "label": "Ether"
            }
        ]
    },
    "trace": {
        "accountLabels": null,
        "dataMap": {
            "-1": {
                "invocation": {
                    "address": "0x60fbb881b53cc4317f3f6c9577f550277c8cc894",
                    "callData": "",
                    "decodedMethod": null,
                    "errorInfo": "",
                    "fromAddress": "",
                    "gasUsed": 0,
                    "id": -1,
                    "methodDecoded": false,
                    "operation": "",
                    "output": "",
                    "revert": false,
                    "revertMessage": "",
                    "selector": "",
                    "status": false,
                    "value": ""
                },
                "nodeType": 0
            },
            "0": {
                "invocation": {
                    "address": "0x9dc021f18f0989de48d44247ab6968adcfd09f26",
                    "callData": "0x83e8d8319413e324ee6f7611d997ff31193465672f6bc5514e95d9858b7efc17",
                    "decodedMethod": {
                        "callParams": [
                            {
                                "name": "_h",
                                "type": "bytes32",
                                "value": "0x83e8d8319413e324ee6f7611d997ff31193465672f6bc5514e95d9858b7efc17"
                            }
                        ],
                        "constructorArguments": "",
                        "name": "confirm",
                        "returnParams": [
                            {
                                "name": "",
                                "type": "bool",
                                "value": true
                            }
                        ],
                        "signature": "confirm(bytes32)"
                    },
                    "errorInfo": "",
                    "fromAddress": "0x60fbb881b53cc4317f3f6c9577f550277c8cc894",
                    "gasUsed": 36194,
                    "id": 0,
                    "methodDecoded": true,
                    "operation": "CALL",
                    "output": "0x0000000000000000000000000000000000000000000000000000000000000001",
                    "revert": false,
                    "revertMessage": "",
                    "selector": "0x797af627",
                    "status": true,
                    "value": "0"
                },
                "nodeType": 0
            },
            "1": {
                "event": {
                    "contract": "0x9dc021f18f0989de48d44247ab6968adcfd09f26",
                    "decodedLog": {
                        "name": "Confirmation",
                        "params": [
                            {
                                "name": "owner",
                                "type": "address",
                                "value": "0x60fbb881b53cc4317f3f6c9577f550277c8cc894"
                            },
                            {
                                "name": "operation",
                                "type": "bytes32",
                                "value": "0x83e8d8319413e324ee6f7611d997ff31193465672f6bc5514e95d9858b7efc17"
                            }
                        ],
                        "signature": "Confirmation(address,bytes32)"
                    },
                    "id": 1,
                    "logData": "0x00000000000000000000000060fbb881b53cc4317f3f6c9577f550277c8cc89483e8d8319413e324ee6f7611d997ff31193465672f6bc5514e95d9858b7efc17",
                    "logDecoded": true,
                    "operation": "EVENT",
                    "revert": false,
                    "status": true,
                    "topics": [
                        "0xe1c52dc63b719ade82e8bea94cc41a0d5d28e4aaf536adb5e9cccc9ff8c1aeda"
                    ]
                },
                "nodeType": 1
            },
            "2": {
                "invocation": {
                    "address": "0x4a1e69aece0e4a033f962be6dd07c61ce1e5dc29",
                    "callData": "0x",
                    "decodedMethod": null,
                    "errorInfo": "",
                    "fromAddress": "0x9dc021f18f0989de48d44247ab6968adcfd09f26",
                    "gasUsed": 0,
                    "id": 2,
                    "methodDecoded": false,
                    "operation": "CALL",
                    "output": "",
                    "revert": false,
                    "revertMessage": "",
                    "selector": "fallback",
                    "status": true,
                    "value": "1377"
                },
                "nodeType": 0
            },
            "3": {
                "event": {
                    "contract": "0x9dc021f18f0989de48d44247ab6968adcfd09f26",
                    "decodedLog": {
                        "name": "MultiTransact",
                        "params": [
                            {
                                "name": "owner",
                                "type": "address",
                                "value": "0x60fbb881b53cc4317f3f6c9577f550277c8cc894"
                            },
                            {
                                "name": "operation",
                                "type": "bytes32",
                                "value": "0x83e8d8319413e324ee6f7611d997ff31193465672f6bc5514e95d9858b7efc17"
                            },
                            {
                                "name": "value",
                                "type": "uint256",
                                "value": "1,377,000,000,000,000,000,000"
                            },
                            {
                                "name": "to",
                                "type": "address",
                                "value": "0x4a1e69aece0e4a033f962be6dd07c61ce1e5dc29"
                            },
                            {
                                "name": "data",
                                "type": "bytes",
                                "value": "0x"
                            }
                        ],
                        "signature": "MultiTransact(address,bytes32,uint256,address,bytes)"
                    },
                    "id": 3,
                    "logData": "0x00000000000000000000000060fbb881b53cc4317f3f6c9577f550277c8cc89483e8d8319413e324ee6f7611d997ff31193465672f6bc5514e95d9858b7efc1700000000000000000000000000000000000000000000004aa5b6bc5760e400000000000000000000000000004a1e69aece0e4a033f962be6dd07c61ce1e5dc2900000000000000000000000000000000000000000000000000000000000000a00000000000000000000000000000000000000000000000000000000000000000",
                    "logDecoded": true,
                    "operation": "EVENT",
                    "revert": false,
                    "status": true,
                    "topics": [
                        "0xe7c957c06e9a662c1a6c77366179f5b702b97651dc28eee7d5bf1dff6e40bb4a"
                    ]
                },
                "nodeType": 1
            }
        },
        "gasFlame": [
            {
                "children": [
                    {
                        "children": [
                            {
                                "children": [],
                                "depth": 0,
                                "name": "Initial Gas",
                                "value": 23448
                            },
                            {
                                "children": [
                                    {
                                        "children": [],
                                        "depth": 1,
                                        "name": "fallback",
                                        "value": 0
                                    }
                                ],
                                "depth": 0,
                                "name": "Executed Gas",
                                "value": 48940
                            }
                        ],
                        "depth": -1,
                        "name": "Actual Gas Used",
                        "value": 36194
                    },
                    {
                        "children": [],
                        "depth": -1,
                        "name": "Refunded Gas",
                        "value": 36194
                    }
                ],
                "depth": -2,
                "name": "Total Gas",
                "value": 72388
            }
        ],
        "isConfirmed": true,
        "mainTrace": [
            {
                "children": [
                    {
                        "children": [
                            {
                                "children": [],
                                "depth": 1,
                                "id": 1,
                                "order": 1
                            },
                            {
                                "children": [],
                                "depth": 1,
                                "id": 2,
                                "order": 2
                            },
                            {
                                "children": [],
                                "depth": 1,
                                "id": 3,
                                "order": 3
                            }
                        ],
                        "depth": 0,
                        "id": 0,
                        "order": 0
                    }
                ],
                "depth": -1,
                "id": -1,
                "order": -1
            }
        ],
        "mainTraceNodeCount": 4,
        "parentIdMap": {
            "0": -1,
            "1": 0,
            "2": 0,
            "3": 0
        },
        "tidyTrace": [
            {
                "children": [
                    {
                        "children": [
                            {
                                "children": [],
                                "depth": 1,
                                "id": 1,
                                "order": 1
                            },
                            {
                                "children": [],
                                "depth": 1,
                                "id": 2,
                                "order": 2
                            },
                            {
                                "children": [],
                                "depth": 1,
                                "id": 3,
                                "order": 3
                            }
                        ],
                        "depth": 0,
                        "id": 0,
                        "order": 0
                    }
                ],
                "depth": -1,
                "id": -1,
                "order": -1
            }
        ],
        "tidyTraceNodeCount": 4
    },
    "state_change": {
        "stateChanges": [
            {
                "address": "0x9dc021f18f0989de48d44247ab6968adcfd09f26",
                "erc": "",
                "slots": [
                    {
                        "current": "0x0000000000000000000000000000000000000000000000000000000000000000",
                        "key": "0x4c0be60200faa20559308cb7b5a1bb3255c16cb1cab91f525b5ae7a03d02faca",
                        "prev": "0x83e8d8319413e324ee6f7611d997ff31193465672f6bc5514e95d9858b7efc17"
                    },
                    {
                        "current": "0x0000000000000000000000000000000000000000000000000000000000000000",
                        "key": "0x1867e490dccbb145d833613c58d6991692a9d24e82a20d03b5189371c17dca96",
                        "prev": "0x0000000000000000000000000000000000000000000000000000000000000001"
                    },
                    {
                        "current": "0x0000000000000000000000000000000000000000000000000000000000000000",
                        "key": "0x1867e490dccbb145d833613c58d6991692a9d24e82a20d03b5189371c17dca97",
                        "prev": "0x0000000000000000000000000000000000000000000000000000000000000004"
                    },
                    {
                        "current": "0x0000000000000000000000000000000000000000000000000000000000000000",
                        "key": "0x1867e490dccbb145d833613c58d6991692a9d24e82a20d03b5189371c17dca98",
                        "prev": "0x000000000000000000000000000000000000000000000000000000000000000c"
                    },
                    {
                        "current": "0x0000000000000000000000000000000000000000000000000000000000000000",
                        "key": "0xe99107579fa360e5f1f6d5d8641dc502b45f9080fe4d24187a1a9f38e5662f02",
                        "prev": "0x0000000000000000000000004a1e69aece0e4a033f962be6dd07c61ce1e5dc29"
                    },
                    {
                        "current": "0x0000000000000000000000000000000000000000000000000000000000000000",
                        "key": "0xe99107579fa360e5f1f6d5d8641dc502b45f9080fe4d24187a1a9f38e5662f03",
                        "prev": "0x00000000000000000000000000000000000000000000004aa5b6bc5760e40000"
                    }
                ],
                "storageVariables": []
            }
        ]
    }
}