{
    "balance_change": {
        "balanceChanges": []
    },
    "profile": {
        "basic_info": {
            "baseFee": "",
            "blockNumber": 12276395,
            "callData": "0x7ff36ab50000000000000000000000000000000000000000000000130d80e5724c13f3f00000000000000000000000000000000000000000000000000000000000000080000000000000000000000000804838671658772e41ef79ccf5804e2e22f3ddb200000000000000000000000000000000000000000000000000000000607ead6b0000000000000000000000000000000000000000000000000000000000000002000000000000000000000000c02aaa39b223fe8d0a0e5c4f27ead9083c756cc2000000000000000000000000236d53148f83706c3d670064809577385f923a75",
            "debugEnable": true,
            "errorInfo": "execution reverted",
            "eventCount": 0,
            "feeRecipient": "0x1ca43b645886c98d7eb7d27ec16ea59f509cbe1a",
            "formatValue": "0.01",
            "gasLimit": 188716,
            "gasPrice": "234",
            "gasUsed": 31453,
            "intTxnCount": 1,
            "internalRevert": true,
            "internalRevertMessage": "",
            "isContractCreation": false,
            "isFlashloan": false,
            "maxFee": "",
            "nonce": 22,
            "overwritedBlockNumber": -1,
            "priorityFee": "",
            "receiver": "0x7a250d5630b4cf539739df2c5dacb4c659f2488d",
            "revertMessage": "+UniswapV2Router: INSUFFICIENT_OUTPUT_AMOUNT",
            "sender": "0x804838671658772e41ef79ccf5804e2e22f3ddb2",
            "simulationEnable": true,
            "sourceTxnHash": "0x228d01ca6ea6ac26eb051be0373cddf2f7bd3dca4d52fc85f19897a57cd9bf91",
            "status": false,
            "timestamp": "2021-04-20T10:12:47Z",
            "transactionFee": "0.007360002",
            "txnHash": "0x228d01ca6ea6ac26eb051be0373cddf2f7bd3dca4d52fc85f19897a57cd9bf91",
            "txnIndex": 71,
            "type": 0,
            "value": "10000000000000000"
        },
        "fund_flow": [],
        "token_infos": [
            {
                "address": "0xc02aaa39b223fe8d0a0e5c4f27ead9083c756cc2",
                "decimals": 18
            },
            {
                "address": "0xeeeeeeeeeeeeeeeeeeeeeeeeeeeeeeeeeeeeeeee",
                "decimals": 18
            }
        ]
    },
    "address_label": {
        "labels": [
            {
                "address": "0x236d53148f83706c3d670064809577385f923a75",
                "label": "Siberian Husky: SHUSKY Token"
            },
            {
                "address": "0xf9446f3fca6db27aacfb15479ab11469fd7fe292",
                "label": "Uniswap V2: SHUSKY"
            },
            {
                "address": "0x0000000000000000000000000000000000000001",
                "label": "Precompiled"
            },
            {
                "address": "0x0000000000000000000000000000000000000002",
                "label": "Precompiled"
            },
            {
                "address": "0x0000000000000000000000000000000000000003",
                "label": "Precompiled"
            },
            {
                "address": "0x0000000000000000000000000000000000000004",
                "label": "Precompiled"
            },
            {
                "address": "0xeeeeeeeeeeeeeeeeeeeeeeeeeeeeeeeeeeeeeeee",
                "label": "Ether"
            },
            {
                "address": "0x7a250d5630b4cf539739df2c5dacb4c659f2488d",
                "label": "Uniswap V2: Router 2"
            },
            {
                "address": "0xc02aaa39b223fe8d0a0e5c4f27ead9083c756cc2",
                "label": "Wrapped Ether (WETH)"
            }
        ]
    },
    "trace": {
        "accountLabels": null,
        "dataMap": {
            "-1": {
                "invocation": {
                    "address": "0x804838671658772e41ef79ccf5804e2e22f3ddb2",
                    "callData": "",
                    "decodedMethod": null,
                    "errorInfo": "",
                    "fromAddress": "",
                    "gasUsed": 0,
                    "id": -1,
                    "methodDecoded": false,
                    "operation": "",
                    "output": "",
                    "revert": false,
                    "revertMessage": "",
                    "selector": "",
                    "status": false,
                    "value": ""
                },
                "nodeType": 0
            },
            "0": {
                "invocation": {
                    "address": "0x7a250d5630b4cf539739df2c5dacb4c659f2488d",
                    "callData": "0x0000000000000000000000000000000000000000000000130d80e5724c13f3f00000000000000000000000000000000000000000000000000000000000000080000000000000000000000000804838671658772e41ef79ccf5804e2e22f3ddb200000000000000000000000000000000000000000000000000000000607ead6b0000000000000000000000000000000000000000000000000000000000000002000000000000000000000000c02aaa39b223fe8d0a0e5c4f27ead9083c756cc2000000000000000000000000236d53148f83706c3d670064809577385f923a75",
                    "decodedMethod": {
                        "callParams": [
                            {
                                "name": "amountOutMin",
                                "type": "uint256",
                                "value": "351,461,167,199,058,916,336"
                            },
                            {
                                "name": "path",
                                "type": "address[]",
                                "value": [
                                    "0xc02aaa39b223fe8d0a0e5c4f27ead9083c756cc2",
                                    "0x236d53148f83706c3d670064809577385f923a75"
                                ]
                            },
                            {
                                "name": "to",
                                "type": "address",
                                "value": "0x804838671658772e41ef79ccf5804e2e22f3ddb2"
                            },
                            {
                                "name": "deadline",
                                "type": "uint256",
                                "value": "1,618,914,667"
                            }
                        ],
                        "constructorArguments": "",
                        "name": "swapExactETHForTokens",
                        "returnParams": [],
                        "signature": "swapExactETHForTokens(uint256,address[],address,uint256)"
                    },
                    "errorInfo": "execution reverted",
                    "fromAddress": "0x804838671658772e41ef79ccf5804e2e22f3ddb2",
                    "gasUsed": 31453,
                    "id": 0,
                    "methodDecoded": true,
                    "operation": "CALL",
                    "output": "0x08c379a00000000000000000000000000000000000000000000000000000000000000020000000000000000000000000000000000000000000000000000000000000002b556e69737761705632526f757465723a20494e53554646494349454e545f4f55545055545f414d4f554e54000000000000000000000000000000000000000000",
                    "revert": true,
                    "revertMessage": "+UniswapV2Router: INSUFFICIENT_OUTPUT_AMOUNT",
                    "selector": "0x7ff36ab5",
                    "status": false,
                    "value": "0.01"
                },
                "nodeType": 0
            },
            "1": {
                "invocation": {
                    "address": "0xf9446f3fca6db27aacfb15479ab11469fd7fe292",
                    "callData": "0x",
                    "decodedMethod": {
                        "callParams": [],
                        "constructorArguments": "",
                        "name": "getReserves",
                        "returnParams": [
                            {
                                "name": "_reserve0",
                                "type": "uint112",
                                "value": "1,343,017,349,034,340,255,987,590"
                            },
                            {
                                "name": "_reserve1",
                                "type": "uint112",
                                "value": "41,293,848,481,766,390,295"
                            },
                            {
                                "name": "_blockTimestampLast",
                                "type": "uint32",
                                "value": "1,618,913,553"
                            }
                        ],
                        "signature": "getReserves()"
                    },
                    "errorInfo": "",
                    "fromAddress": "0x7a250d5630b4cf539739df2c5dacb4c659f2488d",
                    "gasUsed": 2504,
                    "id": 1,
                    "methodDecoded": true,
                    "operation": "STATICCALL",
                    "output": "0x000000000000000000000000000000000000000000011c651dcac7db2062f7860000000000000000000000000000000000000000000000023d113868f47d3a1700000000000000000000000000000000000000000000000000000000607ea911",
                    "revert": true,
                    "revertMessage": "",
                    "selector": "0x0902f1ac",
                    "status": true,
                    "value": "0"
                },
                "nodeType": 0
            }
        },
        "gasFlame": [
            {
                "children": [
                    {
                        "children": [
                            {
                                "children": [],
                                "depth": 0,
                                "name": "Initial Gas",
                                "value": 22848
                            },
                            {
                                "children": [
                                    {
                                        "children": [],
                                        "depth": 1,
                                        "name": "getReserves",
                                        "value": 2504
                                    }
                                ],
                                "depth": 0,
                                "name": "Executed Gas",
                                "value": 8605
                            }
                        ],
                        "depth": -1,
                        "name": "Actual Gas Used",
                        "value": 31453
                    },
                    {
                        "children": [],
                        "depth": -1,
                        "name": "Refunded Gas",
                        "value": 0
                    }
                ],
                "depth": -2,
                "name": "Total Gas",
                "value": 31453
            }
        ],
        "isConfirmed": true,
        "mainTrace": [
            {
                "children": [
                    {
                        "children": [
                            {
                                "children": [],
                                "depth": 1,
                                "id": 1,
                                "order": 1
                            }
                        ],
                        "depth": 0,
                        "id": 0,
                        "order": 0
                    }
                ],
                "depth": -1,
                "id": -1,
                "order": -1
            }
        ],
        "mainTraceNodeCount": 2,
        "parentIdMap": {
            "0": -1,
            "1": 0
        },
        "tidyTrace": [
            {
                "children": [
                    {
                        "children": [],
                        "depth": 0,
                        "id": 0,
                        "order": 0
                    }
                ],
                "depth": -1,
                "id": -1,
                "order": -1
            }
        ],
        "tidyTraceNodeCount": 1
    },
    "state_change": {
        "stateChanges": []
    }
}