{
    "balance_change": {
        "balanceChanges": [
            {
                "account": "0xf7621050f3d67fbfa5be8f9143353b27a9654e74",
                "assets": [
                    {
                        "address": "0x977b0584b50cdd64e2f8185b682a1f256448c7c8",
                        "amount": "30",
                        "iconUrl": "",
                        "isERC1155": false,
                        "isERC721": false,
                        "sign": false,
                        "value": ""
                    }
                ]
            },
            {
                "account": "0x35b702e85b38f2c60da10f79f188a47c915b88bf",
                "assets": [
                    {
                        "address": "0x977b0584b50cdd64e2f8185b682a1f256448c7c8",
                        "amount": "30",
                        "iconUrl": "",
                        "isERC1155": false,
                        "isERC721": false,
                        "sign": true,
                        "value": ""
                    }
                ]
            }
        ]
    },
    "profile": {
        "basic_info": {
            "baseFee": "",
            "blockNumber": 5609422,
            "callData": "0xa9059cbb00000000000000000000000035b702e85b38f2c60da10f79f188a47c915b88bf000000000000000000000000000000000000000000000001a055690d9db80000",
            "debugEnable": true,
            "errorInfo": "",
            "eventCount": 1,
            "feeRecipient": "0xb2930b35844a230f00e51431acae96fe543a0347",
            "formatValue": "0",
            "gasLimit": 60000,
            "gasPrice": "9.44375",
            "gasUsed": 51547,
            "intTxnCount": 0,
            "internalRevert": false,
            "internalRevertMessage": "",
            "isContractCreation": false,
            "isFlashloan": false,
            "maxFee": "",
            "nonce": 96,
            "overwritedBlockNumber": -1,
            "priorityFee": "",
            "receiver": "0x977b0584b50cdd64e2f8185b682a1f256448c7c8",
            "revertMessage": "",
            "sender": "0xf7621050f3d67fbfa5be8f9143353b27a9654e74",
            "simulationEnable": true,
            "sourceTxnHash": "0x22439293cc52e3c3d860a484ff4a39383f5461a91a8c8a9d27e6cf729db02a7e",
            "status": true,
            "timestamp": "2018-05-14T00:39:58Z",
            "transactionFee": "0.00048679698125",
            "txnHash": "0x22439293cc52e3c3d860a484ff4a39383f5461a91a8c8a9d27e6cf729db02a7e",
            "txnIndex": 13,
            "type": 0,
            "value": "0"
        },
        "fund_flow": [
            {
                "amount": "30",
                "from": "0xf7621050f3d67fbfa5be8f9143353b27a9654e74",
                "id": 1,
                "isERC1155": false,
                "isERC721": false,
                "isReverted": false,
                "order": 1,
                "to": "0x35b702e85b38f2c60da10f79f188a47c915b88bf",
                "token": "0x977b0584b50cdd64e2f8185b682a1f256448c7c8"
            }
        ],
        "token_infos": [
            {
                "address": "0x977b0584b50cdd64e2f8185b682a1f256448c7c8",
                "decimals": 18
            },
            {
                "address": "0xc02aaa39b223fe8d0a0e5c4f27ead9083c756cc2",
                "decimals": 18
            },
            {
                "address": "0xeeeeeeeeeeeeeeeeeeeeeeeeeeeeeeeeeeeeeeee",
                "decimals": 18
            }
        ]
    },
    "address_label": {
        "labels": [
            {
                "address": "0x977b0584b50cdd64e2f8185b682a1f256448c7c8",
                "label": "CGW (CGW)"
            },
            {
                "address": "0x0000000000000000000000000000000000000001",
                "label": "Precompiled"
            },
            {
                "address": "0x0000000000000000000000000000000000000002",
                "label": "Precompiled"
            },
            {
                "address": "0x0000000000000000000000000000000000000003",
                "label": "Precompiled"
            },
            {
                "address": "0x0000000000000000000000000000000000000004",
                "label": "Precompiled"
            },
            {
                "address": "0xeeeeeeeeeeeeeeeeeeeeeeeeeeeeeeeeeeeeeeee",
                "label": "Ether"
            }
        ]
    },
    "trace": {
        "accountLabels": null,
        "dataMap": {
            "-1": {
                "invocation": {
                    "address": "0xf7621050f3d67fbfa5be8f9143353b27a9654e74",
                    "callData": "",
                    "decodedMethod": null,
                    "errorInfo": "",
                    "fromAddress": "",
                    "gasUsed": 0,
                    "id": -1,
                    "methodDecoded": false,
                    "operation": "",
                    "output": "",
                    "revert": false,
                    "revertMessage": "",
                    "selector": "",
                    "status": false,
                    "value": ""
                },
                "nodeType": 0
            },
            "0": {
                "invocation": {
                    "address": "0x977b0584b50cdd64e2f8185b682a1f256448c7c8",
                    "callData": "0x00000000000000000000000035b702e85b38f2c60da10f79f188a47c915b88bf000000000000000000000000000000000000000000000001a055690d9db80000",
                    "decodedMethod": {
                        "callParams": [
                            {
                                "name": "_recipient",
                                "type": "address",
                                "value": "0x35b702e85b38f2c60da10f79f188a47c915b88bf"
                            },
                            {
                                "decimalAvailable": true,
                                "name": "_value",
                                "type": "uint256",
                                "value": "30,000,000,000,000,000,000"
                            }
                        ],
                        "constructorArguments": "",
                        "name": "transfer",
                        "returnParams": [],
                        "signature": "transfer(address,uint256)"
                    },
                    "errorInfo": "",
                    "fromAddress": "0xf7621050f3d67fbfa5be8f9143353b27a9654e74",
                    "gasUsed": 51547,
                    "id": 0,
                    "methodDecoded": true,
                    "operation": "CALL",
                    "output": "",
                    "revert": false,
                    "revertMessage": "",
                    "selector": "0xa9059cbb",
                    "status": true,
                    "value": "0"
                },
                "nodeType": 0
            },
            "1": {
                "event": {
                    "contract": "0x977b0584b50cdd64e2f8185b682a1f256448c7c8",
                    "decodedLog": {
                        "name": "Transfer",
                        "params": [
                            {
                                "name": "_from",
                                "type": "address",
                                "value": "0xf7621050f3d67fbfa5be8f9143353b27a9654e74"
                            },
                            {
                                "name": "_to",
                                "type": "address",
                                "value": "0x35b702e85b38f2c60da10f79f188a47c915b88bf"
                            },
                            {
                                "decimalAvailable": true,
                                "name": "_value",
                                "type": "uint256",
                                "value": "30,000,000,000,000,000,000"
                            }
                        ],
                        "signature": "Transfer(address,address,uint256)"
                    },
                    "id": 1,
                    "logData": "0x000000000000000000000000000000000000000000000001a055690d9db80000",
                    "logDecoded": true,
                    "operation": "EVENT",
                    "revert": false,
                    "status": true,
                    "topics": [
                        "0xddf252ad1be2c89b69c2b068fc378daa952ba7f163c4a11628f55a4df523b3ef",
                        "0x000000000000000000000000f7621050f3d67fbfa5be8f9143353b27a9654e74",
                        "0x00000000000000000000000035b702e85b38f2c60da10f79f188a47c915b88bf"
                    ]
                },
                "nodeType": 1
            }
        },
        "gasFlame": [
            {
                "children": [
                    {
                        "children": [
                            {
                                "children": [],
                                "depth": 0,
                                "name": "Initial Gas",
                                "value": 23256
                            },
                            {
                                "children": [],
                                "depth": 0,
                                "name": "Executed Gas",
                                "value": 28291
                            }
                        ],
                        "depth": -1,
                        "name": "Actual Gas Used",
                        "value": 51547
                    },
                    {
                        "children": [],
                        "depth": -1,
                        "name": "Refunded Gas",
                        "value": 0
                    }
                ],
                "depth": -2,
                "name": "Total Gas",
                "value": 51547
            }
        ],
        "isConfirmed": true,
        "mainTrace": [
            {
                "children": [
                    {
                        "children": [
                            {
                                "children": [],
                                "depth": 1,
                                "id": 1,
                                "order": 1
                            }
                        ],
                        "depth": 0,
                        "id": 0,
                        "order": 0
                    }
                ],
                "depth": -1,
                "id": -1,
                "order": -1
            }
        ],
        "mainTraceNodeCount": 2,
        "parentIdMap": {
            "0": -1,
            "1": 0
        },
        "tidyTrace": [
            {
                "children": [
                    {
                        "children": [
                            {
                                "children": [],
                                "depth": 1,
                                "id": 1,
                                "order": 1
                            }
                        ],
                        "depth": 0,
                        "id": 0,
                        "order": 0
                    }
                ],
                "depth": -1,
                "id": -1,
                "order": -1
            }
        ],
        "tidyTraceNodeCount": 2
    },
    "state_change": {
        "stateChanges": [
            {
                "address": "0x977b0584b50cdd64e2f8185b682a1f256448c7c8",
                "erc": "ERC-20",
                "slots": [
                    {
                        "current": "0x00000000000000000000000000000000000000000000039f438f79d370a40000",
                        "key": "0x06c4a1ea81ccedfbe65682ef44b381d41c0c449cb01d00725a797b2b2963ff2f",
                        "prev": "0x0000000000000000000000000000000000000000000003a0e3e4e2e10e5c0000"
                    },
                    {
                        "current": "0x000000000000000000000000000000000000000000000001a055690d9db80000",
                        "key": "0xab9f788a377db7bc6f7bb08524832ace92fbec8c57ad813d37be0dec702d0eb9",
                        "prev": "0x0000000000000000000000000000000000000000000000000000000000000000"
                    }
                ],
                "storageVariables": [
                    {
                        "name": "balances",
                        "type": "mapping(address => uint256)",
                        "value": {
                            "pairs": [
                                {
                                    "key": "0x35b702e85b38f2c60da10f79f188a47c915b88bf",
                                    "value": {
                                        "current": "30000000000000000000",
                                        "prev": "0",
                                        "typeTag": 1
                                    }
                                },
                                {
                                    "key": "0xf7621050f3d67fbfa5be8f9143353b27a9654e74",
                                    "value": {
                                        "current": "17105000000000000000000",
                                        "prev": "17135000000000000000000",
                                        "typeTag": 1
                                    }
                                }
                            ],
                            "typeTag": 4
                        }
                    }
                ]
            }
        ]
    }
}