{
    "balance_change": {
        "balanceChanges": [
            {
                "account": "0xcceed0b7185fbe7f69c083a6c0f6ff5910548d75",
                "assets": [
                    {
                        "address": "0xeeeeeeeeeeeeeeeeeeeeeeeeeeeeeeeeeeeeeeee",
                        "amount": "0.000000000000000001",
                        "iconUrl": "https://assets.blocksec.com/image/1663669189317-3.png",
                        "isERC1155": false,
                        "isERC721": false,
                        "sign": false,
                        "value": ""
                    }
                ]
            },
            {
                "account": "0xebe0da78ecb266c7ea605dc889c64849f860383f",
                "assets": [
                    {
                        "address": "0xeeeeeeeeeeeeeeeeeeeeeeeeeeeeeeeeeeeeeeee",
                        "amount": "0.000000000000000001",
                        "iconUrl": "https://assets.blocksec.com/image/1663669189317-3.png",
                        "isERC1155": false,
                        "isERC721": false,
                        "sign": true,
                        "value": ""
                    }
                ]
            }
        ]
    },
    "profile": {
        "basic_info": {
            "baseFee": "",
            "blockNumber": 7463913,
            "callData": "0xca722cdc000000000000f5abc8fbc164196de86a7d4961e60215d02d13f649f31d158265d6e3e5ed9a9b6f4f1e8562e11662ec4b141152885add27e91b5826d5c85be002",
            "debugEnable": true,
            "errorInfo": "",
            "eventCount": 1,
            "feeRecipient": "0x5a0b54d5dc17e0aadc383d2db43b0a0d3e029c4c",
            "formatValue": "0",
            "gasLimit": 60000,
            "gasPrice": "11",
            "gasUsed": 49266,
            "intTxnCount": 1,
            "internalRevert": false,
            "internalRevertMessage": "",
            "isContractCreation": false,
            "isFlashloan": false,
            "maxFee": "",
            "nonce": 11031,
            "overwritedBlockNumber": -1,
            "priorityFee": "",
            "receiver": "0xcceed0b7185fbe7f69c083a6c0f6ff5910548d75",
            "revertMessage": "",
            "sender": "0x4ad7e79d88650b01eea2b1f069f01ee9db343d5c",
            "simulationEnable": true,
            "sourceTxnHash": "0x23234b0c29ec1037abe38c0963523f7864ea0f91255c32bad69fe61941126b98",
            "status": true,
            "timestamp": "2019-03-29T14:27:00Z",
            "transactionFee": "0.000541926",
            "txnHash": "0x23234b0c29ec1037abe38c0963523f7864ea0f91255c32bad69fe61941126b98",
            "txnIndex": 34,
            "type": 0,
            "value": "0"
        },
        "fund_flow": [
            {
                "amount": "0.000000000000000001",
                "from": "0xcceed0b7185fbe7f69c083a6c0f6ff5910548d75",
                "id": 1,
                "isERC1155": false,
                "isERC721": false,
                "isReverted": false,
                "order": 1,
                "to": "0xebe0da78ecb266c7ea605dc889c64849f860383f",
                "token": "0xeeeeeeeeeeeeeeeeeeeeeeeeeeeeeeeeeeeeeeee"
            }
        ],
        "token_infos": [
            {
                "address": "0xc02aaa39b223fe8d0a0e5c4f27ead9083c756cc2",
                "decimals": 18
            },
            {
                "address": "0xeeeeeeeeeeeeeeeeeeeeeeeeeeeeeeeeeeeeeeee",
                "decimals": 18
            }
        ]
    },
    "address_label": {
        "labels": [
            {
                "address": "0xcceed0b7185fbe7f69c083a6c0f6ff5910548d75",
                "label": "Game365"
            },
            {
                "address": "0x0000000000000000000000000000000000000001",
                "label": "Precompiled"
            },
            {
                "address": "0x0000000000000000000000000000000000000002",
                "label": "Precompiled"
            },
            {
                "address": "0x0000000000000000000000000000000000000003",
                "label": "Precompiled"
            },
            {
                "address": "0x0000000000000000000000000000000000000004",
                "label": "Precompiled"
            },
            {
                "address": "0xeeeeeeeeeeeeeeeeeeeeeeeeeeeeeeeeeeeeeeee",
                "label": "Ether"
            }
        ]
    },
    "trace": {
        "accountLabels": null,
        "dataMap": {
            "-1": {
                "invocation": {
                    "address": "0x4ad7e79d88650b01eea2b1f069f01ee9db343d5c",
                    "callData": "",
                    "decodedMethod": null,
                    "errorInfo": "",
                    "fromAddress": "",
                    "gasUsed": 0,
                    "id": -1,
                    "methodDecoded": false,
                    "operation": "",
                    "output": "",
                    "revert": false,
                    "revertMessage": "",
                    "selector": "",
                    "status": false,
                    "value": ""
                },
                "nodeType": 0
            },
            "0": {
                "invocation": {
                    "address": "0xcceed0b7185fbe7f69c083a6c0f6ff5910548d75",
                    "callData": "0x000000000000f5abc8fbc164196de86a7d4961e60215d02d13f649f31d158265d6e3e5ed9a9b6f4f1e8562e11662ec4b141152885add27e91b5826d5c85be002",
                    "decodedMethod": {
                        "callParams": [
                            {
                                "name": "reveal",
                                "type": "uint256",
                                "value": "394,778,133,339,314,476,333,149,970,533,848,032,280,007,541,352,549,015,459,562,085"
                            },
                            {
                                "name": "blockHash",
                                "type": "bytes32",
                                "value": "0xd6e3e5ed9a9b6f4f1e8562e11662ec4b141152885add27e91b5826d5c85be002"
                            }
                        ],
                        "constructorArguments": "",
                        "name": "settleBet",
                        "returnParams": [],
                        "signature": "settleBet(uint256,bytes32)"
                    },
                    "errorInfo": "",
                    "fromAddress": "0x4ad7e79d88650b01eea2b1f069f01ee9db343d5c",
                    "gasUsed": 49266,
                    "id": 0,
                    "methodDecoded": true,
                    "operation": "CALL",
                    "output": "",
                    "revert": false,
                    "revertMessage": "",
                    "selector": "0xca722cdc",
                    "status": true,
                    "value": "0"
                },
                "nodeType": 0
            },
            "1": {
                "invocation": {
                    "address": "0xebe0da78ecb266c7ea605dc889c64849f860383f",
                    "callData": "0x",
                    "decodedMethod": null,
                    "errorInfo": "",
                    "fromAddress": "0xcceed0b7185fbe7f69c083a6c0f6ff5910548d75",
                    "gasUsed": 0,
                    "id": 1,
                    "methodDecoded": false,
                    "operation": "CALL",
                    "output": "",
                    "revert": false,
                    "revertMessage": "",
                    "selector": "fallback",
                    "status": true,
                    "value": "0.000000000000000001"
                },
                "nodeType": 0
            },
            "2": {
                "event": {
                    "contract": "0xcceed0b7185fbe7f69c083a6c0f6ff5910548d75",
                    "decodedLog": {
                        "name": "Payment",
                        "params": [
                            {
                                "name": "commit",
                                "type": "uint256",
                                "value": "71,067,252,210,367,714,662,183,115,733,521,626,815,378,610,630,982,157,333,597,164,407,062,149,475,410"
                            },
                            {
                                "name": "beneficiary",
                                "type": "address",
                                "value": "0xebe0da78ecb266c7ea605dc889c64849f860383f"
                            },
                            {
                                "name": "amount",
                                "type": "uint256",
                                "value": "0"
                            },
                            {
                                "name": "jackpotAmount",
                                "type": "uint256",
                                "value": "0"
                            }
                        ],
                        "signature": "Payment(uint256,address,uint256,uint256)"
                    },
                    "id": 2,
                    "logData": "0x00000000000000000000000000000000000000000000000000000000000000000000000000000000000000000000000000000000000000000000000000000000",
                    "logDecoded": true,
                    "operation": "EVENT",
                    "revert": false,
                    "status": true,
                    "topics": [
                        "0x18cd56b3b5d7c0d015402709124a50282389601c018b30730138c1fd30b249e1",
                        "0x9d1ea3aa1c8b601a2205733270d93c195ddb72f657f3d7e210689d7d39502c52",
                        "0x000000000000000000000000ebe0da78ecb266c7ea605dc889c64849f860383f"
                    ]
                },
                "nodeType": 1
            }
        },
        "gasFlame": [
            {
                "children": [
                    {
                        "children": [
                            {
                                "children": [],
                                "depth": 0,
                                "name": "Initial Gas",
                                "value": 25240
                            },
                            {
                                "children": [
                                    {
                                        "children": [],
                                        "depth": 1,
                                        "name": "fallback",
                                        "value": 0
                                    }
                                ],
                                "depth": 0,
                                "name": "Executed Gas",
                                "value": 24026
                            }
                        ],
                        "depth": -1,
                        "name": "Actual Gas Used",
                        "value": 49266
                    },
                    {
                        "children": [],
                        "depth": -1,
                        "name": "Refunded Gas",
                        "value": 0
                    }
                ],
                "depth": -2,
                "name": "Total Gas",
                "value": 49266
            }
        ],
        "isConfirmed": true,
        "mainTrace": [
            {
                "children": [
                    {
                        "children": [
                            {
                                "children": [],
                                "depth": 1,
                                "id": 1,
                                "order": 1
                            },
                            {
                                "children": [],
                                "depth": 1,
                                "id": 2,
                                "order": 2
                            }
                        ],
                        "depth": 0,
                        "id": 0,
                        "order": 0
                    }
                ],
                "depth": -1,
                "id": -1,
                "order": -1
            }
        ],
        "mainTraceNodeCount": 3,
        "parentIdMap": {
            "0": -1,
            "1": 0,
            "2": 0
        },
        "tidyTrace": [
            {
                "children": [
                    {
                        "children": [
                            {
                                "children": [],
                                "depth": 1,
                                "id": 1,
                                "order": 1
                            },
                            {
                                "children": [],
                                "depth": 1,
                                "id": 2,
                                "order": 2
                            }
                        ],
                        "depth": 0,
                        "id": 0,
                        "order": 0
                    }
                ],
                "depth": -1,
                "id": -1,
                "order": -1
            }
        ],
        "tidyTraceNodeCount": 3
    },
    "state_change": {
        "stateChanges": [
            {
                "address": "0xcceed0b7185fbe7f69c083a6c0f6ff5910548d75",
                "erc": "",
                "slots": [
                    {
                        "current": "0x00000000098c6318c6000071e3e50f2400000000000000000000000000000000",
                        "key": "0xb344addb13ee7c3ca186649399817d72f5e4b2867d6b5192c1bc9302a9ed427c",
                        "prev": "0x00000000098c6318c6000071e3e50f240000000000000000002386f26fc10000"
                    },
                    {
                        "current": "0x000000000000000000000000000000000000000000000000013935d3b59c74ef",
                        "key": "0x0000000000000000000000000000000000000000000000000000000000000005",
                        "prev": "0x000000000000000000000000000000000000000000000000018beadd17fb74ef"
                    }
                ],
                "storageVariables": [
                    {
                        "name": "bets",
                        "type": "mapping(uint256 => struct Game365Meta.Bet)",
                        "value": {
                            "pairs": [
                                {
                                    "key": "71067252210367714662183115733521626815378610630982157333597164407062149475410",
                                    "value": {
                                        "fields": [
                                            {
                                                "name": "amount",
                                                "type": "uint128",
                                                "value": {
                                                    "current": "0",
                                                    "prev": "10000000000000000",
                                                    "typeTag": 1
                                                }
                                            },
                                            {
                                                "name": "modulo",
                                                "type": "uint8",
                                                "value": {
                                                    "current": "36",
                                                    "prev": "36",
                                                    "typeTag": 1
                                                }
                                            },
                                            {
                                                "name": "rollUnder",
                                                "type": "uint8",
                                                "value": {
                                                    "current": "15",
                                                    "prev": "15",
                                                    "typeTag": 1
                                                }
                                            },
                                            {
                                                "name": "placeBlockNumber",
                                                "type": "uint40",
                                                "value": {
                                                    "current": "7463909",
                                                    "prev": "7463909",
                                                    "typeTag": 1
                                                }
                                            },
                                            {
                                                "name": "mask",
                                                "type": "uint40",
                                                "value": {
                                                    "current": "41010010310",
                                                    "prev": "41010010310",
                                                    "typeTag": 1
                                                }
                                            }
                                        ],
                                        "typeTag": 3
                                    }
                                }
                            ],
                            "typeTag": 4
                        }
                    },
                    {
                        "name": "lockedInBets_",
                        "type": "uint256",
                        "value": {
                            "current": "88160851111736559",
                            "prev": "111440851111736559",
                            "typeTag": 1
                        }
                    }
                ]
            }
        ]
    }
}