{
    "balance_change": {
        "balanceChanges": [
            {
                "account": "0x6d27d82d7d6f0ae00ba6cdfe53aa9d0097952222",
                "assets": [
                    {
                        "address": "0x3f17dd476faf0a4855572f0b6ed5115d9bba22ad",
                        "amount": "0.16",
                        "iconUrl": "",
                        "isERC1155": false,
                        "isERC721": false,
                        "sign": true,
                        "value": ""
                    }
                ]
            },
            {
                "account": "0xd077c09a7e65c4cca490a776d5e395fb4fe7179a",
                "assets": [
                    {
                        "address": "0x3f17dd476faf0a4855572f0b6ed5115d9bba22ad",
                        "amount": "16.16",
                        "iconUrl": "",
                        "isERC1155": false,
                        "isERC721": false,
                        "sign": false,
                        "value": ""
                    }
                ]
            },
            {
                "account": "0x0695bfb2eceec20d0562d7e4c013fd56bc1da0b5",
                "assets": [
                    {
                        "address": "0x3f17dd476faf0a4855572f0b6ed5115d9bba22ad",
                        "amount": "16",
                        "iconUrl": "",
                        "isERC1155": false,
                        "isERC721": false,
                        "sign": true,
                        "value": ""
                    }
                ]
            }
        ]
    },
    "profile": {
        "basic_info": {
            "baseFee": "",
            "blockNumber": 7060964,
            "callData": "0x60909c5100000000000000000000000019380cbcc15b56b4faee6712becc214614001c180000000000000000000000000695bfb2eceec20d0562d7e4c013fd56bc1da0b50000000000000000000000000000000000000000000000000000000000000000000000000000000000000000000000000000000000000000000000000000000000000000000000000000000000000000000000000000000000000000000000a00000000000000000000000000000000000000000000000000000000000000041de4c90c9218c48131407605a6e0866b77199d1227d0d72e67ca35429aad6c5023ccf0392b0ab3411361d448bdaa73f6a9f9e4c240d0bcc6ac7fc5e1add3bd8691c00000000000000000000000000000000000000000000000000000000000000",
            "debugEnable": true,
            "errorInfo": "",
            "eventCount": 3,
            "feeRecipient": "0x52bc44d5378309ee2abf1539bf71de1b7d7be3b5",
            "formatValue": "0",
            "gasLimit": 1700000,
            "gasPrice": "14",
            "gasUsed": 99068,
            "intTxnCount": 10,
            "internalRevert": false,
            "internalRevertMessage": "",
            "isContractCreation": false,
            "isFlashloan": false,
            "maxFee": "",
            "nonce": 68121,
            "overwritedBlockNumber": -1,
            "priorityFee": "",
            "receiver": "0xd077c09a7e65c4cca490a776d5e395fb4fe7179a",
            "revertMessage": "",
            "sender": "0x6d27d82d7d6f0ae00ba6cdfe53aa9d0097952222",
            "simulationEnable": true,
            "sourceTxnHash": "0x234985bf38a413686331f3cb6261777ac003318b55aac4f9014d8ff8182e4d47",
            "status": true,
            "timestamp": "2019-01-13T20:20:33Z",
            "transactionFee": "0.001386952",
            "txnHash": "0x234985bf38a413686331f3cb6261777ac003318b55aac4f9014d8ff8182e4d47",
            "txnIndex": 7,
            "type": 0,
            "value": "0"
        },
        "fund_flow": [
            {
                "amount": "0.16",
                "from": "0xd077c09a7e65c4cca490a776d5e395fb4fe7179a",
                "id": 1,
                "isERC1155": false,
                "isERC721": false,
                "isReverted": false,
                "order": 1,
                "to": "0x6d27d82d7d6f0ae00ba6cdfe53aa9d0097952222",
                "token": "0x3f17dd476faf0a4855572f0b6ed5115d9bba22ad"
            },
            {
                "amount": "16",
                "from": "0xd077c09a7e65c4cca490a776d5e395fb4fe7179a",
                "id": 2,
                "isERC1155": false,
                "isERC721": false,
                "isReverted": false,
                "order": 2,
                "to": "0x0695bfb2eceec20d0562d7e4c013fd56bc1da0b5",
                "token": "0x3f17dd476faf0a4855572f0b6ed5115d9bba22ad"
            }
        ],
        "token_infos": [
            {
                "address": "0x3f17dd476faf0a4855572f0b6ed5115d9bba22ad",
                "decimals": 9
            },
            {
                "address": "0xc02aaa39b223fe8d0a0e5c4f27ead9083c756cc2",
                "decimals": 18
            },
            {
                "address": "0xeeeeeeeeeeeeeeeeeeeeeeeeeeeeeeeeeeeeeeee",
                "decimals": 18
            }
        ]
    },
    "address_label": {
        "labels": [
            {
                "address": "0xeeeeeeeeeeeeeeeeeeeeeeeeeeeeeeeeeeeeeeee",
                "label": "Ether"
            },
            {
                "address": "0x3f17dd476faf0a4855572f0b6ed5115d9bba22ad",
                "label": "Wibson Token"
            },
            {
                "address": "0xd077c09a7e65c4cca490a776d5e395fb4fe7179a",
                "label": "DataExchange"
            },
            {
                "address": "0x0000000000000000000000000000000000000001",
                "label": "Precompiled"
            },
            {
                "address": "0x0000000000000000000000000000000000000002",
                "label": "Precompiled"
            },
            {
                "address": "0x0000000000000000000000000000000000000003",
                "label": "Precompiled"
            },
            {
                "address": "0x0000000000000000000000000000000000000004",
                "label": "Precompiled"
            }
        ]
    },
    "trace": {
        "accountLabels": null,
        "dataMap": {
            "-1": {
                "invocation": {
                    "address": "0x6d27d82d7d6f0ae00ba6cdfe53aa9d0097952222",
                    "callData": "",
                    "decodedMethod": null,
                    "errorInfo": "",
                    "fromAddress": "",
                    "gasUsed": 0,
                    "id": -1,
                    "methodDecoded": false,
                    "operation": "",
                    "output": "",
                    "revert": false,
                    "revertMessage": "",
                    "selector": "",
                    "status": false,
                    "value": ""
                },
                "nodeType": 0
            },
            "0": {
                "invocation": {
                    "address": "0xd077c09a7e65c4cca490a776d5e395fb4fe7179a",
                    "callData": "0x00000000000000000000000019380cbcc15b56b4faee6712becc214614001c180000000000000000000000000695bfb2eceec20d0562d7e4c013fd56bc1da0b50000000000000000000000000000000000000000000000000000000000000000000000000000000000000000000000000000000000000000000000000000000000000000000000000000000000000000000000000000000000000000000000a00000000000000000000000000000000000000000000000000000000000000041de4c90c9218c48131407605a6e0866b77199d1227d0d72e67ca35429aad6c5023ccf0392b0ab3411361d448bdaa73f6a9f9e4c240d0bcc6ac7fc5e1add3bd8691c00000000000000000000000000000000000000000000000000000000000000",
                    "decodedMethod": {
                        "callParams": [
                            {
                                "name": "orderAddr",
                                "type": "address",
                                "value": "0x19380cbcc15b56b4faee6712becc214614001c18"
                            },
                            {
                                "name": "seller",
                                "type": "address",
                                "value": "0x0695bfb2eceec20d0562d7e4c013fd56bc1da0b5"
                            },
                            {
                                "name": "wasAudited",
                                "type": "bool",
                                "value": false
                            },
                            {
                                "name": "isDataValid",
                                "type": "bool",
                                "value": false
                            },
                            {
                                "name": "notarySignature",
                                "type": "bytes",
                                "value": "0xde4c90c9218c48131407605a6e0866b77199d1227d0d72e67ca35429aad6c5023ccf0392b0ab3411361d448bdaa73f6a9f9e4c240d0bcc6ac7fc5e1add3bd8691c"
                            }
                        ],
                        "constructorArguments": "",
                        "name": "closeDataResponse",
                        "returnParams": [
                            {
                                "name": "",
                                "type": "bool",
                                "value": true
                            }
                        ],
                        "signature": "closeDataResponse(address,address,bool,bool,bytes)"
                    },
                    "errorInfo": "",
                    "fromAddress": "0x6d27d82d7d6f0ae00ba6cdfe53aa9d0097952222",
                    "gasUsed": 99068,
                    "id": 0,
                    "methodDecoded": true,
                    "operation": "CALL",
                    "output": "0x0000000000000000000000000000000000000000000000000000000000000001",
                    "revert": false,
                    "revertMessage": "",
                    "selector": "0x60909c51",
                    "status": true,
                    "value": "0"
                },
                "nodeType": 0
            },
            "1": {
                "invocation": {
                    "address": "0x19380cbcc15b56b4faee6712becc214614001c18",
                    "callData": "0x",
                    "decodedMethod": {
                        "callParams": [],
                        "constructorArguments": "",
                        "name": "buyer",
                        "returnParams": [
                            {
                                "name": "",
                                "type": "address",
                                "value": "0x6d27d82d7d6f0ae00ba6cdfe53aa9d0097952222"
                            }
                        ],
                        "signature": "buyer()"
                    },
                    "errorInfo": "",
                    "fromAddress": "0xd077c09a7e65c4cca490a776d5e395fb4fe7179a",
                    "gasUsed": 735,
                    "id": 1,
                    "methodDecoded": true,
                    "operation": "CALL",
                    "output": "0x0000000000000000000000006d27d82d7d6f0ae00ba6cdfe53aa9d0097952222",
                    "revert": false,
                    "revertMessage": "",
                    "selector": "0x7150d8ae",
                    "status": true,
                    "value": "0"
                },
                "nodeType": 0
            },
            "10": {
                "event": {
                    "contract": "0x3f17dd476faf0a4855572f0b6ed5115d9bba22ad",
                    "decodedLog": {
                        "name": "Transfer",
                        "params": [
                            {
                                "name": "from",
                                "type": "address",
                                "value": "0xd077c09a7e65c4cca490a776d5e395fb4fe7179a"
                            },
                            {
                                "name": "to",
                                "type": "address",
                                "value": "0x6d27d82d7d6f0ae00ba6cdfe53aa9d0097952222"
                            },
                            {
                                "decimalAvailable": true,
                                "name": "value",
                                "type": "uint256",
                                "value": "160,000,000"
                            }
                        ],
                        "signature": "Transfer(address,address,uint256)"
                    },
                    "id": 10,
                    "logData": "0x0000000000000000000000000000000000000000000000000000000009896800",
                    "logDecoded": true,
                    "operation": "EVENT",
                    "revert": false,
                    "status": true,
                    "topics": [
                        "0xddf252ad1be2c89b69c2b068fc378daa952ba7f163c4a11628f55a4df523b3ef",
                        "0x000000000000000000000000d077c09a7e65c4cca490a776d5e395fb4fe7179a",
                        "0x0000000000000000000000006d27d82d7d6f0ae00ba6cdfe53aa9d0097952222"
                    ]
                },
                "nodeType": 1
            },
            "11": {
                "invocation": {
                    "address": "0x3f17dd476faf0a4855572f0b6ed5115d9bba22ad",
                    "callData": "0x0000000000000000000000000695bfb2eceec20d0562d7e4c013fd56bc1da0b500000000000000000000000000000000000000000000000000000003b9aca000",
                    "decodedMethod": {
                        "callParams": [
                            {
                                "name": "_to",
                                "type": "address",
                                "value": "0x0695bfb2eceec20d0562d7e4c013fd56bc1da0b5"
                            },
                            {
                                "decimalAvailable": true,
                                "name": "_value",
                                "type": "uint256",
                                "value": "16,000,000,000"
                            }
                        ],
                        "constructorArguments": "",
                        "name": "transfer",
                        "returnParams": [
                            {
                                "name": "",
                                "type": "bool",
                                "value": true
                            }
                        ],
                        "signature": "transfer(address,uint256)"
                    },
                    "errorInfo": "",
                    "fromAddress": "0xd077c09a7e65c4cca490a776d5e395fb4fe7179a",
                    "gasUsed": 13705,
                    "id": 11,
                    "methodDecoded": true,
                    "operation": "CALL",
                    "output": "0x0000000000000000000000000000000000000000000000000000000000000001",
                    "revert": false,
                    "revertMessage": "",
                    "selector": "0xa9059cbb",
                    "status": true,
                    "value": "0"
                },
                "nodeType": 0
            },
            "12": {
                "event": {
                    "contract": "0x3f17dd476faf0a4855572f0b6ed5115d9bba22ad",
                    "decodedLog": {
                        "name": "Transfer",
                        "params": [
                            {
                                "name": "from",
                                "type": "address",
                                "value": "0xd077c09a7e65c4cca490a776d5e395fb4fe7179a"
                            },
                            {
                                "name": "to",
                                "type": "address",
                                "value": "0x0695bfb2eceec20d0562d7e4c013fd56bc1da0b5"
                            },
                            {
                                "decimalAvailable": true,
                                "name": "value",
                                "type": "uint256",
                                "value": "16,000,000,000"
                            }
                        ],
                        "signature": "Transfer(address,address,uint256)"
                    },
                    "id": 12,
                    "logData": "0x00000000000000000000000000000000000000000000000000000003b9aca000",
                    "logDecoded": true,
                    "operation": "EVENT",
                    "revert": false,
                    "status": true,
                    "topics": [
                        "0xddf252ad1be2c89b69c2b068fc378daa952ba7f163c4a11628f55a4df523b3ef",
                        "0x000000000000000000000000d077c09a7e65c4cca490a776d5e395fb4fe7179a",
                        "0x0000000000000000000000000695bfb2eceec20d0562d7e4c013fd56bc1da0b5"
                    ]
                },
                "nodeType": 1
            },
            "13": {
                "event": {
                    "contract": "0xd077c09a7e65c4cca490a776d5e395fb4fe7179a",
                    "decodedLog": {
                        "name": "TransactionCompleted",
                        "params": [
                            {
                                "name": "orderAddr",
                                "type": "address",
                                "value": "0x19380cbcc15b56b4faee6712becc214614001c18"
                            },
                            {
                                "name": "seller",
                                "type": "address",
                                "value": "0x0695bfb2eceec20d0562d7e4c013fd56bc1da0b5"
                            }
                        ],
                        "signature": "TransactionCompleted(address,address)"
                    },
                    "id": 13,
                    "logData": "0x",
                    "logDecoded": true,
                    "operation": "EVENT",
                    "revert": false,
                    "status": true,
                    "topics": [
                        "0xcc3f610635149ab98af5df8f627c661ab8d314e273ae1ab29a88bac48d90b68e",
                        "0x00000000000000000000000019380cbcc15b56b4faee6712becc214614001c18",
                        "0x0000000000000000000000000695bfb2eceec20d0562d7e4c013fd56bc1da0b5"
                    ]
                },
                "nodeType": 1
            },
            "2": {
                "invocation": {
                    "address": "0x19380cbcc15b56b4faee6712becc214614001c18",
                    "callData": "0x0000000000000000000000000695bfb2eceec20d0562d7e4c013fd56bc1da0b5",
                    "decodedMethod": null,
                    "errorInfo": "",
                    "fromAddress": "0xd077c09a7e65c4cca490a776d5e395fb4fe7179a",
                    "gasUsed": 1190,
                    "id": 2,
                    "methodDecoded": false,
                    "operation": "CALL",
                    "output": "0x0000000000000000000000000000000000000000000000000000000000000001",
                    "revert": false,
                    "revertMessage": "",
                    "selector": "0xc081efc1",
                    "status": true,
                    "value": "0"
                },
                "nodeType": 0
            },
            "3": {
                "invocation": {
                    "address": "0x19380cbcc15b56b4faee6712becc214614001c18",
                    "callData": "0x0000000000000000000000000695bfb2eceec20d0562d7e4c013fd56bc1da0b5",
                    "decodedMethod": null,
                    "errorInfo": "",
                    "fromAddress": "0xd077c09a7e65c4cca490a776d5e395fb4fe7179a",
                    "gasUsed": 3160,
                    "id": 3,
                    "methodDecoded": false,
                    "operation": "CALL",
                    "output": "0x00000000000000000000000060f36e8863d93440ec6c584567cbea3ce76d0232",
                    "revert": false,
                    "revertMessage": "",
                    "selector": "0x4372df99",
                    "status": true,
                    "value": "0"
                },
                "nodeType": 0
            },
            "4": {
                "invocation": {
                    "address": "0x48819464877341cb7e0bbd91e0c268016ae5e6ad",
                    "callData": "0x00000000000000000000000019380cbcc15b56b4faee6712becc214614001c180000000000000000000000000695bfb2eceec20d0562d7e4c013fd56bc1da0b500000000000000000000000060f36e8863d93440ec6c584567cbea3ce76d02320000000000000000000000000000000000000000000000000000000000000000000000000000000000000000000000000000000000000000000000000000000000000000000000000000000000000000000000000000000000000000000000c00000000000000000000000000000000000000000000000000000000000000041de4c90c9218c48131407605a6e0866b77199d1227d0d72e67ca35429aad6c5023ccf0392b0ab3411361d448bdaa73f6a9f9e4c240d0bcc6ac7fc5e1add3bd8691c00000000000000000000000000000000000000000000000000000000000000",
                    "decodedMethod": null,
                    "errorInfo": "",
                    "fromAddress": "0xd077c09a7e65c4cca490a776d5e395fb4fe7179a",
                    "gasUsed": 6110,
                    "id": 4,
                    "methodDecoded": false,
                    "operation": "DELEGATECALL",
                    "output": "0x0000000000000000000000000000000000000000000000000000000000000001",
                    "revert": false,
                    "revertMessage": "",
                    "selector": "0x6c7e0236",
                    "status": true,
                    "value": "0"
                },
                "nodeType": 0
            },
            "5": {
                "invocation": {
                    "address": "0x0000000000000000000000000000000000000001",
                    "callData": "0x095017b5c72aa78e527403cc723bf992e0cc43aeff65cc92a7fd629d000000000000000000000000000000000000000000000000000000000000001cde4c90c9218c48131407605a6e0866b77199d1227d0d72e67ca35429aad6c5023ccf0392b0ab3411361d448bdaa73f6a9f9e4c240d0bcc6ac7fc5e1add3bd869",
                    "decodedMethod": {
                        "callParams": [
                            {
                                "name": "hash",
                                "type": "bytes32",
                                "value": "0x57e70217095017b5c72aa78e527403cc723bf992e0cc43aeff65cc92a7fd629d"
                            },
                            {
                                "name": "v",
                                "type": "uint256",
                                "value": "28"
                            },
                            {
                                "name": "r",
                                "type": "bytes32",
                                "value": "0xde4c90c9218c48131407605a6e0866b77199d1227d0d72e67ca35429aad6c502"
                            },
                            {
                                "name": "s",
                                "type": "bytes32",
                                "value": "0x3ccf0392b0ab3411361d448bdaa73f6a9f9e4c240d0bcc6ac7fc5e1add3bd869"
                            }
                        ],
                        "constructorArguments": "",
                        "name": "ecrecover",
                        "returnParams": [
                            {
                                "name": "",
                                "type": "address",
                                "value": "0x60f36e8863d93440ec6c584567cbea3ce76d0232"
                            }
                        ],
                        "signature": "ecrecover(bytes32,uint256,bytes32,bytes32)"
                    },
                    "errorInfo": "",
                    "fromAddress": "0xd077c09a7e65c4cca490a776d5e395fb4fe7179a",
                    "gasUsed": 3000,
                    "id": 5,
                    "methodDecoded": true,
                    "operation": "CALL",
                    "output": "0x00000000000000000000000060f36e8863d93440ec6c584567cbea3ce76d0232",
                    "revert": false,
                    "revertMessage": "",
                    "selector": "0x57e70217",
                    "status": true,
                    "value": "0"
                },
                "nodeType": 0
            },
            "6": {
                "invocation": {
                    "address": "0x19380cbcc15b56b4faee6712becc214614001c18",
                    "callData": "0x0000000000000000000000000695bfb2eceec20d0562d7e4c013fd56bc1da0b50000000000000000000000000000000000000000000000000000000000000001",
                    "decodedMethod": null,
                    "errorInfo": "",
                    "fromAddress": "0xd077c09a7e65c4cca490a776d5e395fb4fe7179a",
                    "gasUsed": 13441,
                    "id": 6,
                    "methodDecoded": false,
                    "operation": "CALL",
                    "output": "0x0000000000000000000000000000000000000000000000000000000000000001",
                    "revert": false,
                    "revertMessage": "",
                    "selector": "0x96661b04",
                    "status": true,
                    "value": "0"
                },
                "nodeType": 0
            },
            "7": {
                "invocation": {
                    "address": "0x19380cbcc15b56b4faee6712becc214614001c18",
                    "callData": "0x",
                    "decodedMethod": {
                        "callParams": [],
                        "constructorArguments": "",
                        "name": "price",
                        "returnParams": [
                            {
                                "name": "",
                                "type": "uint256",
                                "value": "16,000,000,000"
                            }
                        ],
                        "signature": "price()"
                    },
                    "errorInfo": "",
                    "fromAddress": "0xd077c09a7e65c4cca490a776d5e395fb4fe7179a",
                    "gasUsed": 692,
                    "id": 7,
                    "methodDecoded": true,
                    "operation": "CALL",
                    "output": "0x00000000000000000000000000000000000000000000000000000003b9aca000",
                    "revert": false,
                    "revertMessage": "",
                    "selector": "0xa035b1fe",
                    "status": true,
                    "value": "0"
                },
                "nodeType": 0
            },
            "8": {
                "invocation": {
                    "address": "0x19380cbcc15b56b4faee6712becc214614001c18",
                    "callData": "0x00000000000000000000000060f36e8863d93440ec6c584567cbea3ce76d0232",
                    "decodedMethod": null,
                    "errorInfo": "",
                    "fromAddress": "0xd077c09a7e65c4cca490a776d5e395fb4fe7179a",
                    "gasUsed": 3493,
                    "id": 8,
                    "methodDecoded": false,
                    "operation": "CALL",
                    "output": "0x00000000000000000000000060f36e8863d93440ec6c584567cbea3ce76d02320000000000000000000000000000000000000000000000000000000000000064000000000000000000000000000000000000000000000000000000000989680000000000000000000000000000000000000000000000000000000000000000a0000000000000000000000000000000000000000000000000000000005c2ffe1d00000000000000000000000000000000000000000000000000000000000000012e00000000000000000000000000000000000000000000000000000000000000",
                    "revert": false,
                    "revertMessage": "",
                    "selector": "0x43ca78a2",
                    "status": true,
                    "value": "0"
                },
                "nodeType": 0
            },
            "9": {
                "invocation": {
                    "address": "0x3f17dd476faf0a4855572f0b6ed5115d9bba22ad",
                    "callData": "0x0000000000000000000000006d27d82d7d6f0ae00ba6cdfe53aa9d00979522220000000000000000000000000000000000000000000000000000000009896800",
                    "decodedMethod": {
                        "callParams": [
                            {
                                "name": "_to",
                                "type": "address",
                                "value": "0x6d27d82d7d6f0ae00ba6cdfe53aa9d0097952222"
                            },
                            {
                                "decimalAvailable": true,
                                "name": "_value",
                                "type": "uint256",
                                "value": "160,000,000"
                            }
                        ],
                        "constructorArguments": "",
                        "name": "transfer",
                        "returnParams": [
                            {
                                "name": "",
                                "type": "bool",
                                "value": true
                            }
                        ],
                        "signature": "transfer(address,uint256)"
                    },
                    "errorInfo": "",
                    "fromAddress": "0xd077c09a7e65c4cca490a776d5e395fb4fe7179a",
                    "gasUsed": 13705,
                    "id": 9,
                    "methodDecoded": true,
                    "operation": "CALL",
                    "output": "0x0000000000000000000000000000000000000000000000000000000000000001",
                    "revert": false,
                    "revertMessage": "",
                    "selector": "0xa9059cbb",
                    "status": true,
                    "value": "0"
                },
                "nodeType": 0
            }
        },
        "gasFlame": [
            {
                "children": [
                    {
                        "children": [
                            {
                                "children": [],
                                "depth": 0,
                                "name": "Initial Gas",
                                "value": 29208
                            },
                            {
                                "children": [
                                    {
                                        "children": [],
                                        "depth": 1,
                                        "name": "buyer",
                                        "value": 735
                                    },
                                    {
                                        "children": [],
                                        "depth": 1,
                                        "name": "0xc081efc1",
                                        "value": 1190
                                    },
                                    {
                                        "children": [],
                                        "depth": 1,
                                        "name": "0x4372df99",
                                        "value": 3160
                                    },
                                    {
                                        "children": [
                                            {
                                                "children": [],
                                                "depth": 2,
                                                "name": "ecrecover",
                                                "value": 3000
                                            }
                                        ],
                                        "depth": 1,
                                        "name": "0x6c7e0236",
                                        "value": 6110
                                    },
                                    {
                                        "children": [],
                                        "depth": 1,
                                        "name": "0x96661b04",
                                        "value": 13441
                                    },
                                    {
                                        "children": [],
                                        "depth": 1,
                                        "name": "price",
                                        "value": 692
                                    },
                                    {
                                        "children": [],
                                        "depth": 1,
                                        "name": "0x43ca78a2",
                                        "value": 3493
                                    },
                                    {
                                        "children": [],
                                        "depth": 1,
                                        "name": "transfer",
                                        "value": 13705
                                    },
                                    {
                                        "children": [],
                                        "depth": 1,
                                        "name": "transfer",
                                        "value": 13705
                                    }
                                ],
                                "depth": 0,
                                "name": "Executed Gas",
                                "value": 84860
                            }
                        ],
                        "depth": -1,
                        "name": "Actual Gas Used",
                        "value": 99068
                    },
                    {
                        "children": [],
                        "depth": -1,
                        "name": "Refunded Gas",
                        "value": 15000
                    }
                ],
                "depth": -2,
                "name": "Total Gas",
                "value": 114068
            }
        ],
        "isConfirmed": true,
        "mainTrace": [
            {
                "children": [
                    {
                        "children": [
                            {
                                "children": [],
                                "depth": 1,
                                "id": 1,
                                "order": 1
                            },
                            {
                                "children": [],
                                "depth": 1,
                                "id": 2,
                                "order": 2
                            },
                            {
                                "children": [],
                                "depth": 1,
                                "id": 3,
                                "order": 3
                            },
                            {
                                "children": [
                                    {
                                        "children": [],
                                        "depth": 2,
                                        "id": 5,
                                        "order": 5
                                    }
                                ],
                                "depth": 1,
                                "id": 4,
                                "order": 4
                            },
                            {
                                "children": [],
                                "depth": 1,
                                "id": 6,
                                "order": 6
                            },
                            {
                                "children": [],
                                "depth": 1,
                                "id": 7,
                                "order": 7
                            },
                            {
                                "children": [],
                                "depth": 1,
                                "id": 8,
                                "order": 8
                            },
                            {
                                "children": [
                                    {
                                        "children": [],
                                        "depth": 2,
                                        "id": 10,
                                        "order": 10
                                    }
                                ],
                                "depth": 1,
                                "id": 9,
                                "order": 9
                            },
                            {
                                "children": [
                                    {
                                        "children": [],
                                        "depth": 2,
                                        "id": 12,
                                        "order": 12
                                    }
                                ],
                                "depth": 1,
                                "id": 11,
                                "order": 11
                            },
                            {
                                "children": [],
                                "depth": 1,
                                "id": 13,
                                "order": 13
                            }
                        ],
                        "depth": 0,
                        "id": 0,
                        "order": 0
                    }
                ],
                "depth": -1,
                "id": -1,
                "order": -1
            }
        ],
        "mainTraceNodeCount": 14,
        "parentIdMap": {
            "0": -1,
            "1": 0,
            "10": 9,
            "11": 0,
            "12": 11,
            "13": 0,
            "2": 0,
            "3": 0,
            "4": 0,
            "5": 4,
            "6": 0,
            "7": 0,
            "8": 0,
            "9": 0
        },
        "tidyTrace": [
            {
                "children": [
                    {
                        "children": [
                            {
                                "children": [],
                                "depth": 1,
                                "id": 1,
                                "order": 1
                            },
                            {
                                "children": [],
                                "depth": 1,
                                "id": 2,
                                "order": 2
                            },
                            {
                                "children": [],
                                "depth": 1,
                                "id": 3,
                                "order": 3
                            },
                            {
                                "children": [
                                    {
                                        "children": [],
                                        "depth": 2,
                                        "id": 5,
                                        "order": 5
                                    }
                                ],
                                "depth": 1,
                                "id": 4,
                                "order": 4
                            },
                            {
                                "children": [],
                                "depth": 1,
                                "id": 6,
                                "order": 6
                            },
                            {
                                "children": [],
                                "depth": 1,
                                "id": 7,
                                "order": 7
                            },
                            {
                                "children": [],
                                "depth": 1,
                                "id": 8,
                                "order": 8
                            },
                            {
                                "children": [
                                    {
                                        "children": [],
                                        "depth": 2,
                                        "id": 10,
                                        "order": 10
                                    }
                                ],
                                "depth": 1,
                                "id": 9,
                                "order": 9
                            },
                            {
                                "children": [
                                    {
                                        "children": [],
                                        "depth": 2,
                                        "id": 12,
                                        "order": 12
                                    }
                                ],
                                "depth": 1,
                                "id": 11,
                                "order": 11
                            },
                            {
                                "children": [],
                                "depth": 1,
                                "id": 13,
                                "order": 13
                            }
                        ],
                        "depth": 0,
                        "id": 0,
                        "order": 0
                    }
                ],
                "depth": -1,
                "id": -1,
                "order": -1
            }
        ],
        "tidyTraceNodeCount": 14
    },
    "state_change": {
        "stateChanges": [
            {
                "address": "0x19380cbcc15b56b4faee6712becc214614001c18",
                "erc": "",
                "slots": [
                    {
                        "current": "0x0000000000000000000000000000000000000000000000025c3b9d915c3b9d74",
                        "key": "0xeb3cf9fda68517cb3e5db70f851ba08d7883bc355b6803673ef83a010f8c1a1d",
                        "prev": "0x000000000000000000000000000000000000000000000000000000005c3b9d74"
                    }
                ],
                "storageVariables": []
            },
            {
                "address": "0x3f17dd476faf0a4855572f0b6ed5115d9bba22ad",
                "erc": "ERC-20",
                "slots": [
                    {
                        "current": "0x00000000000000000000000000000000000000000000000000007e7cebf8de00",
                        "key": "0x9cd51e1474ee3ed0da6445db060855428418d512b956fa2b210306929d9370f0",
                        "prev": "0x00000000000000000000000000000000000000000000000000007e7ce26f7600"
                    },
                    {
                        "current": "0x000000000000000000000000000000000000000000000000000000248dede200",
                        "key": "0x0df7d819f06b00316e2fbf6d9a3ee99558a4082d5aa50aa259ed4840a0ccb538",
                        "prev": "0x00000000000000000000000000000000000000000000000000000020d4414200"
                    },
                    {
                        "current": "0x0000000000000000000000000000000000000000000000000000019d81d96000",
                        "key": "0xcd033b39fa1c35330feaed8bfe082617543fe525467ada266856aa0a4f16723f",
                        "prev": "0x000000000000000000000000000000000000000000000000000001a1450f6800"
                    }
                ],
                "storageVariables": [
                    {
                        "name": "balances",
                        "type": "mapping(address => uint256)",
                        "value": {
                            "pairs": [
                                {
                                    "key": "0x0695bfb2eceec20d0562d7e4c013fd56bc1da0b5",
                                    "value": {
                                        "current": "157000000000",
                                        "prev": "141000000000",
                                        "typeTag": 1
                                    }
                                },
                                {
                                    "key": "0x6d27d82d7d6f0ae00ba6cdfe53aa9d0097952222",
                                    "value": {
                                        "current": "139075000000000",
                                        "prev": "139074840000000",
                                        "typeTag": 1
                                    }
                                },
                                {
                                    "key": "0xd077c09a7e65c4cca490a776d5e395fb4fe7179a",
                                    "value": {
                                        "current": "1776000000000",
                                        "prev": "1792160000000",
                                        "typeTag": 1
                                    }
                                }
                            ],
                            "typeTag": 4
                        }
                    }
                ]
            },
            {
                "address": "0xd077c09a7e65c4cca490a776d5e395fb4fe7179a",
                "erc": "",
                "slots": [
                    {
                        "current": "0x0000000000000000000000000000000000000000000000000000000000000000",
                        "key": "0x566c3b159382bc190143f52bd3732a21e26e5f7e79f3dc4f7b68c0728bcf0c75",
                        "prev": "0x00000000000000000000000000000000000000000000000000000003c3360800"
                    }
                ],
                "storageVariables": [
                    {
                        "name": "buyerBalance",
                        "type": "mapping(address => mapping(address => mapping(address => uint256)))",
                        "value": {
                            "pairs": [
                                {
                                    "key": "0x6d27d82d7d6f0ae00ba6cdfe53aa9d0097952222",
                                    "value": {
                                        "pairs": [
                                            {
                                                "key": "0x19380cbcc15b56b4faee6712becc214614001c18",
                                                "value": {
                                                    "pairs": [
                                                        {
                                                            "key": "0x0695bfb2eceec20d0562d7e4c013fd56bc1da0b5",
                                                            "value": {
                                                                "current": "0",
                                                                "prev": "16160000000",
                                                                "typeTag": 1
                                                            }
                                                        }
                                                    ],
                                                    "typeTag": 4
                                                }
                                            }
                                        ],
                                        "typeTag": 4
                                    }
                                }
                            ],
                            "typeTag": 4
                        }
                    }
                ]
            }
        ]
    }
}