{
    "balance_change": {
        "balanceChanges": [
            {
                "account": "0x0008d343091ef8bd3efa730f6aae5a26a285c7a2",
                "assets": [
                    {
                        "address": "0xbfde6246df72d3ca86419628cac46a9d2b60393c",
                        "amount": "1",
                        "iconUrl": "",
                        "isERC1155": false,
                        "isERC721": true,
                        "sign": true,
                        "tokenID": "23475",
                        "value": ""
                    },
                    {
                        "address": "0x95daaab98046846bf4b2853e23cba236fa394a31",
                        "amount": "7.5",
                        "iconUrl": "",
                        "isERC1155": false,
                        "isERC721": false,
                        "sign": false,
                        "value": ""
                    }
                ]
            },
            {
                "account": "0x0000000000000000000000000000000000000000",
                "assets": [
                    {
                        "address": "0xbfde6246df72d3ca86419628cac46a9d2b60393c",
                        "amount": "1",
                        "iconUrl": "",
                        "isERC1155": false,
                        "isERC721": true,
                        "sign": false,
                        "tokenID": "23475",
                        "value": ""
                    }
                ]
            },
            {
                "account": "0xe0a66218c40230967d4240d25f6220a28e52c7ff",
                "assets": [
                    {
                        "address": "0x95daaab98046846bf4b2853e23cba236fa394a31",
                        "amount": "7.5",
                        "iconUrl": "",
                        "isERC1155": false,
                        "isERC721": false,
                        "sign": true,
                        "value": ""
                    }
                ]
            }
        ]
    },
    "profile": {
        "basic_info": {
            "baseFee": "",
            "blockNumber": 7147055,
            "callData": "0xf8788382000000000000000000000000000000000000000000000000000000002cb41780000000000000000000000000000000000000000000000000000000000000000400000000000000000000000000000000000000000000000000000000000001200000000000000000000000000000000000000000000000000000000000000002000000000000000000000000000000000000000000000000000000000000773100000000000000000000000000000000000000000000000000000000000000000000000000000000000000000000000000000000000000000000000000000000000000000000000000000000000000000000000000000000000000000000000000000000000000000000000000000000000000000000000000000000000000000000000000000000000000000000000000000000000000000000000000000000",
            "debugEnable": true,
            "errorInfo": "",
            "eventCount": 3,
            "feeRecipient": "0xb2930b35844a230f00e51431acae96fe543a0347",
            "formatValue": "0",
            "gasLimit": 387382,
            "gasPrice": "1.3",
            "gasUsed": 243255,
            "intTxnCount": 6,
            "internalRevert": false,
            "internalRevertMessage": "",
            "isContractCreation": false,
            "isFlashloan": false,
            "maxFee": "",
            "nonce": 3735,
            "overwritedBlockNumber": -1,
            "priorityFee": "",
            "receiver": "0x95daaab98046846bf4b2853e23cba236fa394a31",
            "revertMessage": "",
            "sender": "0x0008d343091ef8bd3efa730f6aae5a26a285c7a2",
            "simulationEnable": true,
            "sourceTxnHash": "0x239ca7db005a892abe9100f3c2b8940396f59a8c6f98bf65e1eb7914dbbca4d4",
            "status": true,
            "timestamp": "2019-01-30T03:48:17Z",
            "transactionFee": "0.0003162315",
            "txnHash": "0x239ca7db005a892abe9100f3c2b8940396f59a8c6f98bf65e1eb7914dbbca4d4",
            "txnIndex": 22,
            "type": 0,
            "value": "0"
        },
        "fund_flow": [
            {
                "amount": "1",
                "from": "0x0000000000000000000000000000000000000000",
                "id": 1,
                "isERC1155": false,
                "isERC721": true,
                "isReverted": false,
                "order": 1,
                "to": "0x0008d343091ef8bd3efa730f6aae5a26a285c7a2",
                "token": "0xbfde6246df72d3ca86419628cac46a9d2b60393c",
                "tokenID": "23475"
            },
            {
                "amount": "7.5",
                "from": "0x0008d343091ef8bd3efa730f6aae5a26a285c7a2",
                "id": 2,
                "isERC1155": false,
                "isERC721": false,
                "isReverted": false,
                "order": 2,
                "to": "0xe0a66218c40230967d4240d25f6220a28e52c7ff",
                "token": "0x95daaab98046846bf4b2853e23cba236fa394a31"
            }
        ],
        "token_infos": [
            {
                "address": "0x95daaab98046846bf4b2853e23cba236fa394a31",
                "decimals": 8
            },
            {
                "address": "0xc02aaa39b223fe8d0a0e5c4f27ead9083c756cc2",
                "decimals": 18
            },
            {
                "address": "0xeeeeeeeeeeeeeeeeeeeeeeeeeeeeeeeeeeeeeeee",
                "decimals": 18
            }
        ]
    },
    "address_label": {
        "labels": [
            {
                "address": "0x95daaab98046846bf4b2853e23cba236fa394a31",
                "label": "EtheremonToken: Old EMONT Token"
            },
            {
                "address": "0xbfde6246df72d3ca86419628cac46a9d2b60393c",
                "label": "Etheremon Adventure Token"
            },
            {
                "address": "0xf3bb445b935a9ea1bf4f126d0c0c4bf51c902b00",
                "label": "EtheremonAdventureData"
            },
            {
                "address": "0xfc5e6cad30632d79abbb2dbf22a87f0753b0ddc4",
                "label": "EtheremonPayment"
            },
            {
                "address": "0x0000000000000000000000000000000000000002",
                "label": "Precompiled"
            },
            {
                "address": "0x0000000000000000000000000000000000000003",
                "label": "Precompiled"
            },
            {
                "address": "0xeeeeeeeeeeeeeeeeeeeeeeeeeeeeeeeeeeeeeeee",
                "label": "Ether"
            },
            {
                "address": "0xcdf7cfc9f7c129a0d7aec376bc205ab87fc878e1",
                "label": "Etheremon: Adventure 2"
            },
            {
                "address": "0xffdd88294a1ac94e059a7b26ae343f3e87727450",
                "label": "EtheremonAdventureSetting"
            },
            {
                "address": "0x0000000000000000000000000000000000000001",
                "label": "Precompiled"
            },
            {
                "address": "0x0000000000000000000000000000000000000004",
                "label": "Precompiled"
            }
        ]
    },
    "trace": {
        "accountLabels": null,
        "dataMap": {
            "-1": {
                "invocation": {
                    "address": "0x0008d343091ef8bd3efa730f6aae5a26a285c7a2",
                    "callData": "",
                    "decodedMethod": null,
                    "errorInfo": "",
                    "fromAddress": "",
                    "gasUsed": 0,
                    "id": -1,
                    "methodDecoded": false,
                    "operation": "",
                    "output": "",
                    "revert": false,
                    "revertMessage": "",
                    "selector": "",
                    "status": false,
                    "value": ""
                },
                "nodeType": 0
            },
            "0": {
                "invocation": {
                    "address": "0x95daaab98046846bf4b2853e23cba236fa394a31",
                    "callData": "0x000000000000000000000000000000000000000000000000000000002cb41780000000000000000000000000000000000000000000000000000000000000000400000000000000000000000000000000000000000000000000000000000001200000000000000000000000000000000000000000000000000000000000000002000000000000000000000000000000000000000000000000000000000000773100000000000000000000000000000000000000000000000000000000000000000000000000000000000000000000000000000000000000000000000000000000000000000000000000000000000000000000000000000000000000000000000000000000000000000000000000000000000000000000000000000000000000000000000000000000000000000000000000000000000000000000000000000000",
                    "decodedMethod": {
                        "callParams": [
                            {
                                "name": "_tokens",
                                "type": "uint256",
                                "value": "750,000,000"
                            },
                            {
                                "name": "_type",
                                "type": "uint32",
                                "value": "4"
                            },
                            {
                                "name": "_text",
                                "type": "string",
                                "value": ""
                            },
                            {
                                "name": "_param1",
                                "type": "uint64",
                                "value": "2"
                            },
                            {
                                "name": "_param2",
                                "type": "uint64",
                                "value": "30,513"
                            },
                            {
                                "name": "_param3",
                                "type": "uint64",
                                "value": "0"
                            },
                            {
                                "name": "_param4",
                                "type": "uint64",
                                "value": "0"
                            },
                            {
                                "name": "_param5",
                                "type": "uint64",
                                "value": "0"
                            },
                            {
                                "name": "_param6",
                                "type": "uint64",
                                "value": "0"
                            }
                        ],
                        "constructorArguments": "",
                        "name": "payService",
                        "returnParams": [],
                        "signature": "payService(uint256,uint32,string,uint64,uint64,uint64,uint64,uint64,uint64)"
                    },
                    "errorInfo": "",
                    "fromAddress": "0x0008d343091ef8bd3efa730f6aae5a26a285c7a2",
                    "gasUsed": 243255,
                    "id": 0,
                    "methodDecoded": true,
                    "operation": "CALL",
                    "output": "",
                    "revert": false,
                    "revertMessage": "",
                    "selector": "0xf8788382",
                    "status": true,
                    "value": "0"
                },
                "nodeType": 0
            },
            "1": {
                "invocation": {
                    "address": "0xfc5e6cad30632d79abbb2dbf22a87f0753b0ddc4",
                    "callData": "0x0000000000000000000000000008d343091ef8bd3efa730f6aae5a26a285c7a2000000000000000000000000000000000000000000000000000000002cb41780000000000000000000000000000000000000000000000000000000000000000400000000000000000000000000000000000000000000000000000000000001400000000000000000000000000000000000000000000000000000000000000002000000000000000000000000000000000000000000000000000000000000773100000000000000000000000000000000000000000000000000000000000000000000000000000000000000000000000000000000000000000000000000000000000000000000000000000000000000000000000000000000000000000000000000000000000000000000000000000000000000000000000000000000000000000000000000000000000000000000000000000000000000000000000000000000",
                    "decodedMethod": {
                        "callParams": [
                            {
                                "name": "_trainer",
                                "type": "address",
                                "value": "0x0008d343091ef8bd3efa730f6aae5a26a285c7a2"
                            },
                            {
                                "name": "_tokens",
                                "type": "uint256",
                                "value": "750,000,000"
                            },
                            {
                                "name": "_type",
                                "type": "uint32",
                                "value": "4"
                            },
                            {
                                "name": "_text",
                                "type": "string",
                                "value": ""
                            },
                            {
                                "name": "_param1",
                                "type": "uint64",
                                "value": "2"
                            },
                            {
                                "name": "_param2",
                                "type": "uint64",
                                "value": "30,513"
                            },
                            {
                                "name": "_param3",
                                "type": "uint64",
                                "value": "0"
                            },
                            {
                                "name": "_param4",
                                "type": "uint64",
                                "value": "0"
                            },
                            {
                                "name": "_param5",
                                "type": "uint64",
                                "value": "0"
                            },
                            {
                                "name": "_param6",
                                "type": "uint64",
                                "value": "0"
                            }
                        ],
                        "constructorArguments": "",
                        "name": "payService",
                        "returnParams": [
                            {
                                "name": "result",
                                "type": "uint256",
                                "value": "750,000,000"
                            }
                        ],
                        "signature": "payService(address,uint256,uint32,string,uint64,uint64,uint64,uint64,uint64,uint64)"
                    },
                    "errorInfo": "",
                    "fromAddress": "0x95daaab98046846bf4b2853e23cba236fa394a31",
                    "gasUsed": 216255,
                    "id": 1,
                    "methodDecoded": true,
                    "operation": "CALL",
                    "output": "0x000000000000000000000000000000000000000000000000000000002cb41780",
                    "revert": false,
                    "revertMessage": "",
                    "selector": "0x30a95aa7",
                    "status": true,
                    "value": "0"
                },
                "nodeType": 0
            },
            "2": {
                "invocation": {
                    "address": "0xcdf7cfc9f7c129a0d7aec376bc205ab87fc878e1",
                    "callData": "0x0000000000000000000000000008d343091ef8bd3efa730f6aae5a26a285c7a2000000000000000000000000000000000000000000000000000000002cb417800000000000000000000000000000000000000000000000000000000000000002000000000000000000000000000000000000000000000000000000000000773100000000000000000000000000000000000000000000000000000000000000000000000000000000000000000000000000000000000000000000000000000000",
                    "decodedMethod": {
                        "callParams": [
                            {
                                "name": "_player",
                                "type": "address",
                                "value": "0x0008d343091ef8bd3efa730f6aae5a26a285c7a2"
                            },
                            {
                                "name": "_token",
                                "type": "uint256",
                                "value": "750,000,000"
                            },
                            {
                                "name": "_param1",
                                "type": "uint256",
                                "value": "2"
                            },
                            {
                                "name": "_param2",
                                "type": "uint256",
                                "value": "30,513"
                            },
                            {
                                "name": "_param3",
                                "type": "uint64",
                                "value": "0"
                            },
                            {
                                "name": "_param4",
                                "type": "uint64",
                                "value": "0"
                            }
                        ],
                        "constructorArguments": "",
                        "name": "adventureByToken",
                        "returnParams": [],
                        "signature": "adventureByToken(address,uint256,uint256,uint256,uint64,uint64)"
                    },
                    "errorInfo": "",
                    "fromAddress": "0xfc5e6cad30632d79abbb2dbf22a87f0753b0ddc4",
                    "gasUsed": 212465,
                    "id": 2,
                    "methodDecoded": true,
                    "operation": "CALL",
                    "output": "",
                    "revert": false,
                    "revertMessage": "",
                    "selector": "0xfba70381",
                    "status": true,
                    "value": "0"
                },
                "nodeType": 0
            },
            "3": {
                "invocation": {
                    "address": "0xf3bb445b935a9ea1bf4f126d0c0c4bf51c902b00",
                    "callData": "0x0000000000000000000000000000000000000000000000000000000000007731",
                    "decodedMethod": {
                        "callParams": [
                            {
                                "name": "_exploreId",
                                "type": "uint256",
                                "value": "30,513"
                            }
                        ],
                        "constructorArguments": "",
                        "name": "getExploreData",
                        "returnParams": [
                            {
                                "name": "_sender",
                                "type": "address",
                                "value": "0x0008d343091ef8bd3efa730f6aae5a26a285c7a2"
                            },
                            {
                                "name": "_typeId",
                                "type": "uint256",
                                "value": "0"
                            },
                            {
                                "name": "_monsterId",
                                "type": "uint256",
                                "value": "37,594"
                            },
                            {
                                "name": "_siteId",
                                "type": "uint256",
                                "value": "10"
                            },
                            {
                                "name": "_itemSeed",
                                "type": "uint256",
                                "value": "0"
                            },
                            {
                                "name": "_startAt",
                                "type": "uint256",
                                "value": "7,146,960"
                            }
                        ],
                        "signature": "getExploreData(uint256)"
                    },
                    "errorInfo": "",
                    "fromAddress": "0xcdf7cfc9f7c129a0d7aec376bc205ab87fc878e1",
                    "gasUsed": 1837,
                    "id": 3,
                    "methodDecoded": true,
                    "operation": "CALL",
                    "output": "0x0000000000000000000000000008d343091ef8bd3efa730f6aae5a26a285c7a2000000000000000000000000000000000000000000000000000000000000000000000000000000000000000000000000000000000000000000000000000092da000000000000000000000000000000000000000000000000000000000000000a000000000000000000000000000000000000000000000000000000000000000000000000000000000000000000000000000000000000000000000000006d0dd0",
                    "revert": false,
                    "revertMessage": "",
                    "selector": "0x40ef78a7",
                    "status": true,
                    "value": "0"
                },
                "nodeType": 0
            },
            "4": {
                "invocation": {
                    "address": "0xffdd88294a1ac94e059a7b26ae343f3e87727450",
                    "callData": "0x000000000000000000000000000000000000000000000000000000000000000a0000000000000000000000000000000000000000000000000000000000003cac",
                    "decodedMethod": {
                        "callParams": [
                            {
                                "name": "_siteId",
                                "type": "uint256",
                                "value": "10"
                            },
                            {
                                "name": "_seed",
                                "type": "uint256",
                                "value": "15,532"
                            }
                        ],
                        "constructorArguments": "",
                        "name": "getSiteItem",
                        "returnParams": [
                            {
                                "name": "_monsterClassId",
                                "type": "uint256",
                                "value": "0"
                            },
                            {
                                "name": "_tokenClassId",
                                "type": "uint256",
                                "value": "201"
                            },
                            {
                                "name": "_value",
                                "type": "uint256",
                                "value": "200"
                            }
                        ],
                        "signature": "getSiteItem(uint256,uint256)"
                    },
                    "errorInfo": "",
                    "fromAddress": "0xcdf7cfc9f7c129a0d7aec376bc205ab87fc878e1",
                    "gasUsed": 2744,
                    "id": 4,
                    "methodDecoded": true,
                    "operation": "CALL",
                    "output": "0x000000000000000000000000000000000000000000000000000000000000000000000000000000000000000000000000000000000000000000000000000000c900000000000000000000000000000000000000000000000000000000000000c8",
                    "revert": false,
                    "revertMessage": "",
                    "selector": "0x99f1718a",
                    "status": true,
                    "value": "0"
                },
                "nodeType": 0
            },
            "5": {
                "invocation": {
                    "address": "0xf3bb445b935a9ea1bf4f126d0c0c4bf51c902b00",
                    "callData": "0x00000000000000000000000000000000000000000000000000000000000077310000000000000000000000000000000000000000000000000000000000003cac",
                    "decodedMethod": {
                        "callParams": [
                            {
                                "name": "_exploreId",
                                "type": "uint256",
                                "value": "30,513"
                            },
                            {
                                "name": "_itemSeed",
                                "type": "uint256",
                                "value": "15,532"
                            }
                        ],
                        "constructorArguments": "",
                        "name": "removePendingExplore",
                        "returnParams": [],
                        "signature": "removePendingExplore(uint256,uint256)"
                    },
                    "errorInfo": "",
                    "fromAddress": "0xcdf7cfc9f7c129a0d7aec376bc205ab87fc878e1",
                    "gasUsed": 27179,
                    "id": 5,
                    "methodDecoded": true,
                    "operation": "CALL",
                    "output": "",
                    "revert": false,
                    "revertMessage": "",
                    "selector": "0xd9d1f5d9",
                    "status": true,
                    "value": "0"
                },
                "nodeType": 0
            },
            "6": {
                "invocation": {
                    "address": "0xbfde6246df72d3ca86419628cac46a9d2b60393c",
                    "callData": "0x00000000000000000000000000000000000000000000000000000000000000c900000000000000000000000000000000000000000000000000000000000000c80000000000000000000000000008d343091ef8bd3efa730f6aae5a26a285c7a2",
                    "decodedMethod": {
                        "callParams": [
                            {
                                "name": "_classId",
                                "type": "uint256",
                                "value": "201"
                            },
                            {
                                "name": "_value",
                                "type": "uint256",
                                "value": "200"
                            },
                            {
                                "name": "_owner",
                                "type": "address",
                                "value": "0x0008d343091ef8bd3efa730f6aae5a26a285c7a2"
                            }
                        ],
                        "constructorArguments": "",
                        "name": "spawnItem",
                        "returnParams": [
                            {
                                "name": "",
                                "type": "uint256",
                                "value": "23,475"
                            }
                        ],
                        "signature": "spawnItem(uint256,uint256,address)"
                    },
                    "errorInfo": "",
                    "fromAddress": "0xcdf7cfc9f7c129a0d7aec376bc205ab87fc878e1",
                    "gasUsed": 167118,
                    "id": 6,
                    "methodDecoded": true,
                    "operation": "CALL",
                    "output": "0x0000000000000000000000000000000000000000000000000000000000005bb3",
                    "revert": false,
                    "revertMessage": "",
                    "selector": "0xd3392545",
                    "status": true,
                    "value": "0"
                },
                "nodeType": 0
            },
            "7": {
                "event": {
                    "contract": "0xbfde6246df72d3ca86419628cac46a9d2b60393c",
                    "decodedLog": {
                        "name": "Transfer",
                        "params": [
                            {
                                "name": "_from",
                                "type": "address",
                                "value": "0x0000000000000000000000000000000000000000"
                            },
                            {
                                "name": "_to",
                                "type": "address",
                                "value": "0x0008d343091ef8bd3efa730f6aae5a26a285c7a2"
                            },
                            {
                                "decimalAvailable": true,
                                "name": "_tokenId",
                                "type": "uint256",
                                "value": "23,475"
                            }
                        ],
                        "signature": "Transfer(address,address,uint256)"
                    },
                    "id": 7,
                    "logData": "0x",
                    "logDecoded": true,
                    "operation": "EVENT",
                    "revert": false,
                    "status": true,
                    "topics": [
                        "0xddf252ad1be2c89b69c2b068fc378daa952ba7f163c4a11628f55a4df523b3ef",
                        "0x0000000000000000000000000000000000000000000000000000000000000000",
                        "0x0000000000000000000000000008d343091ef8bd3efa730f6aae5a26a285c7a2",
                        "0x0000000000000000000000000000000000000000000000000000000000005bb3"
                    ]
                },
                "nodeType": 1
            },
            "8": {
                "event": {
                    "contract": "0xcdf7cfc9f7c129a0d7aec376bc205ab87fc878e1",
                    "decodedLog": {
                        "name": "ClaimExplore",
                        "params": [
                            {
                                "name": "from",
                                "type": "address",
                                "value": "0x0008d343091ef8bd3efa730f6aae5a26a285c7a2"
                            },
                            {
                                "name": "exploreId",
                                "type": "uint256",
                                "value": "30,513"
                            },
                            {
                                "name": "itemType",
                                "type": "uint256",
                                "value": "1"
                            },
                            {
                                "name": "itemClass",
                                "type": "uint256",
                                "value": "201"
                            },
                            {
                                "name": "itemId",
                                "type": "uint256",
                                "value": "23,475"
                            }
                        ],
                        "signature": "ClaimExplore(address,uint256,uint256,uint256,uint256)"
                    },
                    "id": 8,
                    "logData": "0x0000000000000000000000000000000000000000000000000000000000007731000000000000000000000000000000000000000000000000000000000000000100000000000000000000000000000000000000000000000000000000000000c90000000000000000000000000000000000000000000000000000000000005bb3",
                    "logDecoded": true,
                    "operation": "EVENT",
                    "revert": false,
                    "status": true,
                    "topics": [
                        "0x6149ca12dd2214b111395003fbe0292f95cb44225bc42332215b440c26edcd2a",
                        "0x0000000000000000000000000008d343091ef8bd3efa730f6aae5a26a285c7a2"
                    ]
                },
                "nodeType": 1
            },
            "9": {
                "event": {
                    "contract": "0x95daaab98046846bf4b2853e23cba236fa394a31",
                    "decodedLog": {
                        "name": "Transfer",
                        "params": [
                            {
                                "name": "from",
                                "type": "address",
                                "value": "0x0008d343091ef8bd3efa730f6aae5a26a285c7a2"
                            },
                            {
                                "name": "to",
                                "type": "address",
                                "value": "0xe0a66218c40230967d4240d25f6220a28e52c7ff"
                            },
                            {
                                "decimalAvailable": true,
                                "name": "value",
                                "type": "uint256",
                                "value": "750,000,000"
                            }
                        ],
                        "signature": "Transfer(address,address,uint256)"
                    },
                    "id": 9,
                    "logData": "0x000000000000000000000000000000000000000000000000000000002cb41780",
                    "logDecoded": true,
                    "operation": "EVENT",
                    "revert": false,
                    "status": true,
                    "topics": [
                        "0xddf252ad1be2c89b69c2b068fc378daa952ba7f163c4a11628f55a4df523b3ef",
                        "0x0000000000000000000000000008d343091ef8bd3efa730f6aae5a26a285c7a2",
                        "0x000000000000000000000000e0a66218c40230967d4240d25f6220a28e52c7ff"
                    ]
                },
                "nodeType": 1
            }
        },
        "gasFlame": [
            {
                "children": [
                    {
                        "children": [
                            {
                                "children": [],
                                "depth": 0,
                                "name": "Initial Gas",
                                "value": 23192
                            },
                            {
                                "children": [
                                    {
                                        "children": [
                                            {
                                                "children": [
                                                    {
                                                        "children": [],
                                                        "depth": 3,
                                                        "name": "getExploreData",
                                                        "value": 1837
                                                    },
                                                    {
                                                        "children": [],
                                                        "depth": 3,
                                                        "name": "getSiteItem",
                                                        "value": 2744
                                                    },
                                                    {
                                                        "children": [],
                                                        "depth": 3,
                                                        "name": "removePendingExplore",
                                                        "value": 27179
                                                    },
                                                    {
                                                        "children": [],
                                                        "depth": 3,
                                                        "name": "spawnItem",
                                                        "value": 167118
                                                    }
                                                ],
                                                "depth": 2,
                                                "name": "adventureByToken",
                                                "value": 212465
                                            }
                                        ],
                                        "depth": 1,
                                        "name": "payService",
                                        "value": 216255
                                    }
                                ],
                                "depth": 0,
                                "name": "Executed Gas",
                                "value": 235063
                            }
                        ],
                        "depth": -1,
                        "name": "Actual Gas Used",
                        "value": 243255
                    },
                    {
                        "children": [],
                        "depth": -1,
                        "name": "Refunded Gas",
                        "value": 15000
                    }
                ],
                "depth": -2,
                "name": "Total Gas",
                "value": 258255
            }
        ],
        "isConfirmed": true,
        "mainTrace": [
            {
                "children": [
                    {
                        "children": [
                            {
                                "children": [
                                    {
                                        "children": [
                                            {
                                                "children": [],
                                                "depth": 3,
                                                "id": 3,
                                                "order": 3
                                            },
                                            {
                                                "children": [],
                                                "depth": 3,
                                                "id": 4,
                                                "order": 4
                                            },
                                            {
                                                "children": [],
                                                "depth": 3,
                                                "id": 5,
                                                "order": 5
                                            },
                                            {
                                                "children": [
                                                    {
                                                        "children": [],
                                                        "depth": 4,
                                                        "id": 7,
                                                        "order": 7
                                                    }
                                                ],
                                                "depth": 3,
                                                "id": 6,
                                                "order": 6
                                            },
                                            {
                                                "children": [],
                                                "depth": 3,
                                                "id": 8,
                                                "order": 8
                                            }
                                        ],
                                        "depth": 2,
                                        "id": 2,
                                        "order": 2
                                    }
                                ],
                                "depth": 1,
                                "id": 1,
                                "order": 1
                            },
                            {
                                "children": [],
                                "depth": 1,
                                "id": 9,
                                "order": 9
                            }
                        ],
                        "depth": 0,
                        "id": 0,
                        "order": 0
                    }
                ],
                "depth": -1,
                "id": -1,
                "order": -1
            }
        ],
        "mainTraceNodeCount": 10,
        "parentIdMap": {
            "0": -1,
            "1": 0,
            "2": 1,
            "3": 2,
            "4": 2,
            "5": 2,
            "6": 2,
            "7": 6,
            "8": 2,
            "9": 0
        },
        "tidyTrace": [
            {
                "children": [
                    {
                        "children": [
                            {
                                "children": [
                                    {
                                        "children": [
                                            {
                                                "children": [],
                                                "depth": 3,
                                                "id": 3,
                                                "order": 3
                                            },
                                            {
                                                "children": [],
                                                "depth": 3,
                                                "id": 4,
                                                "order": 4
                                            },
                                            {
                                                "children": [],
                                                "depth": 3,
                                                "id": 5,
                                                "order": 5
                                            },
                                            {
                                                "children": [
                                                    {
                                                        "children": [],
                                                        "depth": 4,
                                                        "id": 7,
                                                        "order": 7
                                                    }
                                                ],
                                                "depth": 3,
                                                "id": 6,
                                                "order": 6
                                            },
                                            {
                                                "children": [],
                                                "depth": 3,
                                                "id": 8,
                                                "order": 8
                                            }
                                        ],
                                        "depth": 2,
                                        "id": 2,
                                        "order": 2
                                    }
                                ],
                                "depth": 1,
                                "id": 1,
                                "order": 1
                            },
                            {
                                "children": [],
                                "depth": 1,
                                "id": 9,
                                "order": 9
                            }
                        ],
                        "depth": 0,
                        "id": 0,
                        "order": 0
                    }
                ],
                "depth": -1,
                "id": -1,
                "order": -1
            }
        ],
        "tidyTraceNodeCount": 10
    },
    "state_change": {
        "stateChanges": [
            {
                "address": "0x95daaab98046846bf4b2853e23cba236fa394a31",
                "erc": "",
                "slots": [
                    {
                        "current": "0x00000000000000000000000000000000000000000000000000000051bf30d700",
                        "key": "0xe7f66c8abc1273673c2eee487246698ec81fa3c0646ffd7a19e1fc2382dcd500",
                        "prev": "0x00000000000000000000000000000000000000000000000000000051ebe4ee80"
                    },
                    {
                        "current": "0x0000000000000000000000000000000000000000000000000004cc96a25d09d8",
                        "key": "0x0349c8d259bbb0a655f72166eac48747dec080355a61f69fa200cd95c64f93ea",
                        "prev": "0x0000000000000000000000000000000000000000000000000004cc9675a8f258"
                    }
                ],
                "storageVariables": [
                    {
                        "name": "balanceOf",
                        "type": "mapping(address => uint256)",
                        "value": {
                            "pairs": [
                                {
                                    "key": "0x0008d343091ef8bd3efa730f6aae5a26a285c7a2",
                                    "value": {
                                        "current": "351100000000",
                                        "prev": "351850000000",
                                        "typeTag": 1
                                    }
                                },
                                {
                                    "key": "0xe0a66218c40230967d4240d25f6220a28e52c7ff",
                                    "value": {
                                        "current": "1350847248009688",
                                        "prev": "1350846498009688",
                                        "typeTag": 1
                                    }
                                }
                            ],
                            "typeTag": 4
                        }
                    }
                ]
            },
            {
                "address": "0xbfde6246df72d3ca86419628cac46a9d2b60393c",
                "erc": "ERC-721",
                "slots": [
                    {
                        "current": "0x0000000000000000000000000000000000000000000000000000000000003e1e",
                        "key": "0x0000000000000000000000000000000000000000000000000000000000000005",
                        "prev": "0x0000000000000000000000000000000000000000000000000000000000003e1d"
                    },
                    {
                        "current": "0x0000000000000000000000000000000000000000000000000000000000005bb3",
                        "key": "0x000000000000000000000000000000000000000000000000000000000000000f",
                        "prev": "0x0000000000000000000000000000000000000000000000000000000000005bb2"
                    },
                    {
                        "current": "0x0000000000000000000000000000000000000000000000000000000000003e1d",
                        "key": "0xb2fac6b9e959708aefbdd4840befad9344dabe67e51ad744824a93ada2abb724",
                        "prev": "0x0000000000000000000000000000000000000000000000000000000000000000"
                    },
                    {
                        "current": "0x0000000000000000000000000008d343091ef8bd3efa730f6aae5a26a285c7a2",
                        "key": "0x1af22fb40472962974e82e44e448ab9fd11645d19f7aa1f1959cd6fe77369b37",
                        "prev": "0x0000000000000000000000000000000000000000000000000000000000000000"
                    },
                    {
                        "current": "0x0000000000000000000000000000000000000000000000000000000000000108",
                        "key": "0xe3deb2ce130eea25b93dd9de02e75ab55624c323a1cc54ae080416e47b239165",
                        "prev": "0x0000000000000000000000000000000000000000000000000000000000000107"
                    },
                    {
                        "current": "0x0000000000000000000000000000000000000000000000000000000000000107",
                        "key": "0xecd4ac0235e4493668fa1efa032351301c93c157afcab0eef96408466a7265e5",
                        "prev": "0x0000000000000000000000000000000000000000000000000000000000000000"
                    },
                    {
                        "current": "0x0000000000000000000000000000000000000000000000000000000000005bb3",
                        "key": "0x036b6384b5eca791c62761152d0c79bb0604c104a5fb6f4eb0703f3154bb7bcd",
                        "prev": "0x0000000000000000000000000000000000000000000000000000000000000000"
                    },
                    {
                        "current": "0x00000000000000000000000000000000000000000000000000000000000000c9",
                        "key": "0x1ccae5855841d2d754549c712d566bc7cc8823caf410a325e9d8c5b6e0e6bd34",
                        "prev": "0x0000000000000000000000000000000000000000000000000000000000000000"
                    },
                    {
                        "current": "0x0000000000000000000000000000000000000000000000000000000000005bb3",
                        "key": "0xb1271eb02e83a09a850faa7093df962f5e051052b7b9097382ab50733d91548f",
                        "prev": "0x0000000000000000000000000000000000000000000000000000000000000000"
                    },
                    {
                        "current": "0x0000000000000000000000000000000000000000000000000000000000000108",
                        "key": "0x7df206e81ffeb553c4459e53d7819c493f146af9ebd413103904f49b14793045",
                        "prev": "0x0000000000000000000000000000000000000000000000000000000000000107"
                    },
                    {
                        "current": "0x00000000000000000000000000000000000000000000000000000000000000c8",
                        "key": "0x1ccae5855841d2d754549c712d566bc7cc8823caf410a325e9d8c5b6e0e6bd35",
                        "prev": "0x0000000000000000000000000000000000000000000000000000000000000000"
                    }
                ],
                "storageVariables": [
                    {
                        "name": "tokens",
                        "type": "uint256[]",
                        "value": {
                            "elemType": "uint256",
                            "elems": [
                                {
                                    "index": 15901,
                                    "value": {
                                        "current": "23475",
                                        "prev": "0",
                                        "typeTag": 1
                                    }
                                }
                            ],
                            "typeTag": 2
                        }
                    },
                    {
                        "name": "totalItem",
                        "type": "uint256",
                        "value": {
                            "current": "23475",
                            "prev": "23474",
                            "typeTag": 1
                        }
                    },
                    {
                        "name": "idToIndex",
                        "type": "mapping(uint256 => uint256)",
                        "value": {
                            "pairs": [
                                {
                                    "key": "23475",
                                    "value": {
                                        "current": "15901",
                                        "prev": "0",
                                        "typeTag": 1
                                    }
                                }
                            ],
                            "typeTag": 4
                        }
                    },
                    {
                        "name": "idToOwner",
                        "type": "mapping(uint256 => address)",
                        "value": {
                            "pairs": [
                                {
                                    "key": "23475",
                                    "value": {
                                        "current": "0x0008d343091ef8bd3efa730f6aae5a26a285c7a2",
                                        "prev": "0x0000000000000000000000000000000000000000",
                                        "typeTag": 1
                                    }
                                }
                            ],
                            "typeTag": 4
                        }
                    },
                    {
                        "name": "idToOwnerIndex",
                        "type": "mapping(uint256 => uint256)",
                        "value": {
                            "pairs": [
                                {
                                    "key": "23475",
                                    "value": {
                                        "current": "263",
                                        "prev": "0",
                                        "typeTag": 1
                                    }
                                }
                            ],
                            "typeTag": 4
                        }
                    },
                    {
                        "name": "items",
                        "type": "mapping(uint256 => struct EtheremonAdventureItem.Item)",
                        "value": {
                            "pairs": [
                                {
                                    "key": "23475",
                                    "value": {
                                        "fields": [
                                            {
                                                "name": "classId",
                                                "type": "uint256",
                                                "value": {
                                                    "current": "201",
                                                    "prev": "0",
                                                    "typeTag": 1
                                                }
                                            },
                                            {
                                                "name": "value",
                                                "type": "uint256",
                                                "value": {
                                                    "current": "200",
                                                    "prev": "0",
                                                    "typeTag": 1
                                                }
                                            }
                                        ],
                                        "typeTag": 3
                                    }
                                }
                            ],
                            "typeTag": 4
                        }
                    },
                    {
                        "name": "ownerToNFTokenCount",
                        "type": "mapping(address => uint256)",
                        "value": {
                            "pairs": [
                                {
                                    "key": "0x0008d343091ef8bd3efa730f6aae5a26a285c7a2",
                                    "value": {
                                        "current": "264",
                                        "prev": "263",
                                        "typeTag": 1
                                    }
                                }
                            ],
                            "typeTag": 4
                        }
                    },
                    {
                        "name": "ownerToIds",
                        "type": "mapping(address => uint256[])",
                        "value": {
                            "pairs": [
                                {
                                    "key": "0x0008d343091ef8bd3efa730f6aae5a26a285c7a2",
                                    "value": {
                                        "elemType": "uint256",
                                        "elems": [
                                            {
                                                "index": 263,
                                                "value": {
                                                    "current": "23475",
                                                    "prev": "0",
                                                    "typeTag": 1
                                                }
                                            }
                                        ],
                                        "typeTag": 2
                                    }
                                }
                            ],
                            "typeTag": 4
                        }
                    }
                ]
            },
            {
                "address": "0xf3bb445b935a9ea1bf4f126d0c0c4bf51c902b00",
                "erc": "",
                "slots": [
                    {
                        "current": "0x0000000000000000000000000000000000000000000000000000000000000000",
                        "key": "0x6ed1b6876a939e26fc041ff3cac78a1e38a5ea30b9ce2b4de1849f0be9eec3cd",
                        "prev": "0x0000000000000000000000000000000000000000000000000000000000007731"
                    },
                    {
                        "current": "0x0000000000000000000000000000000000000000000000000000000000003cac",
                        "key": "0x7a9c49f968fbbcda8e6aedbeb26d3bddabdfa74a8c8ab04843593c0896d4daa1",
                        "prev": "0x0000000000000000000000000000000000000000000000000000000000000000"
                    }
                ],
                "storageVariables": [
                    {
                        "name": "exploreData",
                        "type": "mapping(uint256 => struct EtheremonAdventureData.ExploreData)",
                        "value": {
                            "pairs": [
                                {
                                    "key": "30513",
                                    "value": {
                                        "fields": [
                                            {
                                                "name": "itemSeed",
                                                "type": "uint256",
                                                "value": {
                                                    "current": "15532",
                                                    "prev": "0",
                                                    "typeTag": 1
                                                }
                                            }
                                        ],
                                        "typeTag": 3
                                    }
                                }
                            ],
                            "typeTag": 4
                        }
                    },
                    {
                        "name": "explorePending",
                        "type": "mapping(address => uint256)",
                        "value": {
                            "pairs": [
                                {
                                    "key": "0x0008d343091ef8bd3efa730f6aae5a26a285c7a2",
                                    "value": {
                                        "current": "0",
                                        "prev": "30513",
                                        "typeTag": 1
                                    }
                                }
                            ],
                            "typeTag": 4
                        }
                    }
                ]
            }
        ]
    }
}