{
    "balance_change": {
        "balanceChanges": [
            {
                "account": "0x14a8489a69ea53d1b90ba7cec4bfdfd31483d377",
                "assets": [
                    {
                        "address": "0xaaaebe6fe48e54f431b0c390cfaf0b017d09d42d",
                        "amount": "52,274.1484",
                        "iconUrl": "https://assets.blocksec.com/icon/b35e0a0388a29aa4ea2998efee66fc15d468cdee6031804a09570153163f1eb9.png",
                        "isERC1155": false,
                        "isERC721": false,
                        "sign": false,
                        "value": "27632.114844239997845"
                    }
                ]
            },
            {
                "account": "0xf89d7b9c864f589bbf53a82105107622b35eaa40",
                "assets": [
                    {
                        "address": "0xaaaebe6fe48e54f431b0c390cfaf0b017d09d42d",
                        "amount": "52,274.1484",
                        "iconUrl": "https://assets.blocksec.com/icon/b35e0a0388a29aa4ea2998efee66fc15d468cdee6031804a09570153163f1eb9.png",
                        "isERC1155": false,
                        "isERC721": false,
                        "sign": true,
                        "value": "27632.114844239997845"
                    }
                ]
            }
        ]
    },
    "profile": {
        "basic_info": {
            "baseFee": "10.519993174",
            "blockNumber": 16093073,
            "callData": "0xa9059cbb000000000000000000000000f89d7b9c864f589bbf53a82105107622b35eaa40000000000000000000000000000000000000000000000000000000001f2866ec",
            "debugEnable": true,
            "errorInfo": "",
            "eventCount": 1,
            "feeRecipient": "0xffee087852cb4898e6c3532e776e68bc68b1143b",
            "formatValue": "0",
            "gasLimit": 90000,
            "gasPrice": "12.519993174",
            "gasUsed": 32402,
            "intTxnCount": 0,
            "internalRevert": false,
            "internalRevertMessage": "",
            "isContractCreation": false,
            "isFlashloan": false,
            "maxFee": "200",
            "nonce": 3667,
            "overwritedBlockNumber": -1,
            "priorityFee": "2",
            "receiver": "0xaaaebe6fe48e54f431b0c390cfaf0b017d09d42d",
            "revertMessage": "",
            "sender": "0x14a8489a69ea53d1b90ba7cec4bfdfd31483d377",
            "simulationEnable": true,
            "sourceTxnHash": "0x2375a78640edcef8b8a63faf80b9db0ee106f8e12c74c8fdd62649d8f402a702",
            "status": true,
            "timestamp": "2022-12-01T22:55:11Z",
            "transactionFee": "0.000405672818823948",
            "txnHash": "0x2375a78640edcef8b8a63faf80b9db0ee106f8e12c74c8fdd62649d8f402a702",
            "txnIndex": 38,
            "type": 2,
            "value": "0"
        },
        "fund_flow": [
            {
                "amount": "52,274.1484",
                "from": "0x14a8489a69ea53d1b90ba7cec4bfdfd31483d377",
                "id": 1,
                "isERC1155": false,
                "isERC721": false,
                "isReverted": false,
                "order": 1,
                "to": "0xf89d7b9c864f589bbf53a82105107622b35eaa40",
                "token": "0xaaaebe6fe48e54f431b0c390cfaf0b017d09d42d"
            }
        ],
        "token_infos": [
            {
                "address": "0xaaaebe6fe48e54f431b0c390cfaf0b017d09d42d",
                "decimals": 4
            },
            {
                "address": "0xc02aaa39b223fe8d0a0e5c4f27ead9083c756cc2",
                "decimals": 18
            },
            {
                "address": "0xeeeeeeeeeeeeeeeeeeeeeeeeeeeeeeeeeeeeeeee",
                "decimals": 18
            }
        ]
    },
    "address_label": {
        "labels": [
            {
                "address": "0x0000000000000000000000000000000000000002",
                "label": "Precompiled"
            },
            {
                "address": "0x0000000000000000000000000000000000000003",
                "label": "Precompiled"
            },
            {
                "address": "0x0000000000000000000000000000000000000004",
                "label": "Precompiled"
            },
            {
                "address": "0xeeeeeeeeeeeeeeeeeeeeeeeeeeeeeeeeeeeeeeee",
                "label": "Ether"
            },
            {
                "address": "0xaaaebe6fe48e54f431b0c390cfaf0b017d09d42d",
                "label": "Celsius Network: CEL Token"
            },
            {
                "address": "0xf89d7b9c864f589bbf53a82105107622b35eaa40",
                "label": "Bybit: Hot Wallet"
            },
            {
                "address": "0xffee087852cb4898e6c3532e776e68bc68b1143b",
                "label": "ERC1967ProxyWithReceive"
            },
            {
                "address": "0x0000000000000000000000000000000000000001",
                "label": "Precompiled"
            }
        ]
    },
    "trace": {
        "accountLabels": null,
        "dataMap": {
            "-1": {
                "invocation": {
                    "address": "0x14a8489a69ea53d1b90ba7cec4bfdfd31483d377",
                    "callData": "",
                    "decodedMethod": null,
                    "errorInfo": "",
                    "fromAddress": "",
                    "gasUsed": 0,
                    "id": -1,
                    "methodDecoded": false,
                    "operation": "",
                    "output": "",
                    "revert": false,
                    "revertMessage": "",
                    "selector": "",
                    "status": false,
                    "value": ""
                },
                "nodeType": 0
            },
            "0": {
                "invocation": {
                    "address": "0xaaaebe6fe48e54f431b0c390cfaf0b017d09d42d",
                    "callData": "0x000000000000000000000000f89d7b9c864f589bbf53a82105107622b35eaa40000000000000000000000000000000000000000000000000000000001f2866ec",
                    "decodedMethod": {
                        "callParams": [
                            {
                                "name": "_to",
                                "type": "address",
                                "value": "0xf89d7b9c864f589bbf53a82105107622b35eaa40"
                            },
                            {
                                "decimalAvailable": true,
                                "name": "_value",
                                "type": "uint256",
                                "value": "522,741,484"
                            }
                        ],
                        "constructorArguments": "",
                        "name": "transfer",
                        "returnParams": [
                            {
                                "name": "success",
                                "type": "bool",
                                "value": true
                            }
                        ],
                        "signature": "transfer(address,uint256)"
                    },
                    "errorInfo": "",
                    "fromAddress": "0x14a8489a69ea53d1b90ba7cec4bfdfd31483d377",
                    "gasUsed": 32402,
                    "id": 0,
                    "methodDecoded": true,
                    "operation": "CALL",
                    "output": "0x0000000000000000000000000000000000000000000000000000000000000001",
                    "revert": false,
                    "revertMessage": "",
                    "selector": "0xa9059cbb",
                    "status": true,
                    "value": "0"
                },
                "nodeType": 0
            },
            "1": {
                "event": {
                    "contract": "0xaaaebe6fe48e54f431b0c390cfaf0b017d09d42d",
                    "decodedLog": {
                        "name": "Transfer",
                        "params": [
                            {
                                "name": "_from",
                                "type": "address",
                                "value": "0x14a8489a69ea53d1b90ba7cec4bfdfd31483d377"
                            },
                            {
                                "name": "_to",
                                "type": "address",
                                "value": "0xf89d7b9c864f589bbf53a82105107622b35eaa40"
                            },
                            {
                                "decimalAvailable": true,
                                "name": "_value",
                                "type": "uint256",
                                "value": "522,741,484"
                            }
                        ],
                        "signature": "Transfer(address,address,uint256)"
                    },
                    "id": 1,
                    "logData": "0x000000000000000000000000000000000000000000000000000000001f2866ec",
                    "logDecoded": true,
                    "operation": "EVENT",
                    "revert": false,
                    "status": true,
                    "topics": [
                        "0xddf252ad1be2c89b69c2b068fc378daa952ba7f163c4a11628f55a4df523b3ef",
                        "0x00000000000000000000000014a8489a69ea53d1b90ba7cec4bfdfd31483d377",
                        "0x000000000000000000000000f89d7b9c864f589bbf53a82105107622b35eaa40"
                    ]
                },
                "nodeType": 1
            }
        },
        "gasFlame": [
            {
                "children": [
                    {
                        "children": [
                            {
                                "children": [],
                                "depth": 0,
                                "name": "Initial Gas",
                                "value": 21608
                            },
                            {
                                "children": [],
                                "depth": 0,
                                "name": "Executed Gas",
                                "value": 15594
                            }
                        ],
                        "depth": -1,
                        "name": "Actual Gas Used",
                        "value": 32402
                    },
                    {
                        "children": [],
                        "depth": -1,
                        "name": "Refunded Gas",
                        "value": 4800
                    }
                ],
                "depth": -2,
                "name": "Total Gas",
                "value": 37202
            }
        ],
        "isConfirmed": true,
        "mainTrace": [
            {
                "children": [
                    {
                        "children": [
                            {
                                "children": [],
                                "depth": 1,
                                "id": 1,
                                "order": 1
                            }
                        ],
                        "depth": 0,
                        "id": 0,
                        "order": 0
                    }
                ],
                "depth": -1,
                "id": -1,
                "order": -1
            }
        ],
        "mainTraceNodeCount": 2,
        "parentIdMap": {
            "0": -1,
            "1": 0
        },
        "tidyTrace": [
            {
                "children": [
                    {
                        "children": [
                            {
                                "children": [],
                                "depth": 1,
                                "id": 1,
                                "order": 1
                            }
                        ],
                        "depth": 0,
                        "id": 0,
                        "order": 0
                    }
                ],
                "depth": -1,
                "id": -1,
                "order": -1
            }
        ],
        "tidyTraceNodeCount": 2
    },
    "state_change": {
        "stateChanges": [
            {
                "address": "0xaaaebe6fe48e54f431b0c390cfaf0b017d09d42d",
                "erc": "ERC-20",
                "slots": [
                    {
                        "current": "0x0000000000000000000000000000000000000000000000000000000000000000",
                        "key": "0x36ec70a29af7296c3b82310c92223275790efc0f9d9cad737e2cce275f9b9ed1",
                        "prev": "0x000000000000000000000000000000000000000000000000000000001f2866ec"
                    },
                    {
                        "current": "0x0000000000000000000000000000000000000000000000000000000119e377c8",
                        "key": "0x164c0d431a999b5e9f4dfeeb03c48841235e3d171aa85ecb5a0f46085a773b96",
                        "prev": "0x00000000000000000000000000000000000000000000000000000000fabb10dc"
                    }
                ],
                "storageVariables": [
                    {
                        "name": "accounts",
                        "type": "mapping(address => uint256)",
                        "value": {
                            "pairs": [
                                {
                                    "key": "0x14a8489a69ea53d1b90ba7cec4bfdfd31483d377",
                                    "value": {
                                        "current": "0",
                                        "prev": "522741484",
                                        "typeTag": 1
                                    }
                                },
                                {
                                    "key": "0xf89d7b9c864f589bbf53a82105107622b35eaa40",
                                    "value": {
                                        "current": "4729305032",
                                        "prev": "4206563548",
                                        "typeTag": 1
                                    }
                                }
                            ],
                            "typeTag": 4
                        }
                    }
                ]
            }
        ]
    }
}