{
    "balance_change": {
        "balanceChanges": [
            {
                "account": "0x2b3f4443e09834a30dfa2b6e2893a80b87d1a100",
                "assets": [
                    {
                        "address": "0x8971f9fd7196e5cee2c1032b50f656855af7dd26",
                        "amount": "10,000",
                        "iconUrl": "https://assets.blocksec.com/icon/29f3265b2d0e13db60fa97039d9e45fe85188e768407b0a2712abf1c39825af4.png",
                        "isERC1155": false,
                        "isERC721": false,
                        "sign": false,
                        "value": ""
                    }
                ]
            },
            {
                "account": "0x57e7911a66a5c60c976221dc1e07bbee18a49857",
                "assets": [
                    {
                        "address": "0x8971f9fd7196e5cee2c1032b50f656855af7dd26",
                        "amount": "10,000",
                        "iconUrl": "https://assets.blocksec.com/icon/29f3265b2d0e13db60fa97039d9e45fe85188e768407b0a2712abf1c39825af4.png",
                        "isERC1155": false,
                        "isERC721": false,
                        "sign": true,
                        "value": ""
                    }
                ]
            }
        ]
    },
    "profile": {
        "basic_info": {
            "baseFee": "",
            "blockNumber": 8026338,
            "callData": "0xa9059cbb00000000000000000000000057e7911a66a5c60c976221dc1e07bbee18a4985700000000000000000000000000000000000000000000021e19e0c9bab2400000",
            "debugEnable": true,
            "errorInfo": "",
            "eventCount": 1,
            "feeRecipient": "0x829bd824b016326a401d083b33d092293333a830",
            "formatValue": "0",
            "gasLimit": 60000,
            "gasPrice": "20",
            "gasUsed": 37395,
            "intTxnCount": 0,
            "internalRevert": false,
            "internalRevertMessage": "",
            "isContractCreation": false,
            "isFlashloan": false,
            "maxFee": "",
            "nonce": 176,
            "overwritedBlockNumber": -1,
            "priorityFee": "",
            "receiver": "0x8971f9fd7196e5cee2c1032b50f656855af7dd26",
            "revertMessage": "",
            "sender": "0x2b3f4443e09834a30dfa2b6e2893a80b87d1a100",
            "simulationEnable": true,
            "sourceTxnHash": "0x23a4a5e725d4459f60f850d55c1685b99e37674ef1215917d1d0c5e912bb7608",
            "status": true,
            "timestamp": "2019-06-25T09:32:13Z",
            "transactionFee": "0.0007479",
            "txnHash": "0x23a4a5e725d4459f60f850d55c1685b99e37674ef1215917d1d0c5e912bb7608",
            "txnIndex": 207,
            "type": 0,
            "value": "0"
        },
        "fund_flow": [
            {
                "amount": "10,000",
                "from": "0x2b3f4443e09834a30dfa2b6e2893a80b87d1a100",
                "id": 1,
                "isERC1155": false,
                "isERC721": false,
                "isReverted": false,
                "order": 1,
                "to": "0x57e7911a66a5c60c976221dc1e07bbee18a49857",
                "token": "0x8971f9fd7196e5cee2c1032b50f656855af7dd26"
            }
        ],
        "token_infos": [
            {
                "address": "0xeeeeeeeeeeeeeeeeeeeeeeeeeeeeeeeeeeeeeeee",
                "decimals": 18
            },
            {
                "address": "0x8971f9fd7196e5cee2c1032b50f656855af7dd26",
                "decimals": 18
            },
            {
                "address": "0xc02aaa39b223fe8d0a0e5c4f27ead9083c756cc2",
                "decimals": 18
            }
        ]
    },
    "address_label": {
        "labels": [
            {
                "address": "0x57e7911a66a5c60c976221dc1e07bbee18a49857",
                "label": "OKEX"
            },
            {
                "address": "0x8971f9fd7196e5cee2c1032b50f656855af7dd26",
                "label": "Lambda: LAMB Token"
            },
            {
                "address": "0x0000000000000000000000000000000000000001",
                "label": "Precompiled"
            },
            {
                "address": "0x0000000000000000000000000000000000000002",
                "label": "Precompiled"
            },
            {
                "address": "0x0000000000000000000000000000000000000003",
                "label": "Precompiled"
            },
            {
                "address": "0x0000000000000000000000000000000000000004",
                "label": "Precompiled"
            },
            {
                "address": "0xeeeeeeeeeeeeeeeeeeeeeeeeeeeeeeeeeeeeeeee",
                "label": "Ether"
            }
        ]
    },
    "trace": {
        "accountLabels": null,
        "dataMap": {
            "-1": {
                "invocation": {
                    "address": "0x2b3f4443e09834a30dfa2b6e2893a80b87d1a100",
                    "callData": "",
                    "decodedMethod": null,
                    "errorInfo": "",
                    "fromAddress": "",
                    "gasUsed": 0,
                    "id": -1,
                    "methodDecoded": false,
                    "operation": "",
                    "output": "",
                    "revert": false,
                    "revertMessage": "",
                    "selector": "",
                    "status": false,
                    "value": ""
                },
                "nodeType": 0
            },
            "0": {
                "invocation": {
                    "address": "0x8971f9fd7196e5cee2c1032b50f656855af7dd26",
                    "callData": "0x00000000000000000000000057e7911a66a5c60c976221dc1e07bbee18a4985700000000000000000000000000000000000000000000021e19e0c9bab2400000",
                    "decodedMethod": {
                        "callParams": [
                            {
                                "name": "_to",
                                "type": "address",
                                "value": "0x57e7911a66a5c60c976221dc1e07bbee18a49857"
                            },
                            {
                                "decimalAvailable": true,
                                "name": "_value",
                                "type": "uint256",
                                "value": "10,000,000,000,000,000,000,000"
                            }
                        ],
                        "constructorArguments": "",
                        "name": "transfer",
                        "returnParams": [
                            {
                                "name": "",
                                "type": "bool",
                                "value": true
                            }
                        ],
                        "signature": "transfer(address,uint256)"
                    },
                    "errorInfo": "",
                    "fromAddress": "0x2b3f4443e09834a30dfa2b6e2893a80b87d1a100",
                    "gasUsed": 37395,
                    "id": 0,
                    "methodDecoded": true,
                    "operation": "CALL",
                    "output": "0x0000000000000000000000000000000000000000000000000000000000000001",
                    "revert": false,
                    "revertMessage": "",
                    "selector": "0xa9059cbb",
                    "status": true,
                    "value": "0"
                },
                "nodeType": 0
            },
            "1": {
                "event": {
                    "contract": "0x8971f9fd7196e5cee2c1032b50f656855af7dd26",
                    "decodedLog": {
                        "name": "Transfer",
                        "params": [
                            {
                                "name": "from",
                                "type": "address",
                                "value": "0x2b3f4443e09834a30dfa2b6e2893a80b87d1a100"
                            },
                            {
                                "name": "to",
                                "type": "address",
                                "value": "0x57e7911a66a5c60c976221dc1e07bbee18a49857"
                            },
                            {
                                "decimalAvailable": true,
                                "name": "value",
                                "type": "uint256",
                                "value": "10,000,000,000,000,000,000,000"
                            }
                        ],
                        "signature": "Transfer(address,address,uint256)"
                    },
                    "id": 1,
                    "logData": "0x00000000000000000000000000000000000000000000021e19e0c9bab2400000",
                    "logDecoded": true,
                    "operation": "EVENT",
                    "revert": false,
                    "status": true,
                    "topics": [
                        "0xddf252ad1be2c89b69c2b068fc378daa952ba7f163c4a11628f55a4df523b3ef",
                        "0x0000000000000000000000002b3f4443e09834a30dfa2b6e2893a80b87d1a100",
                        "0x00000000000000000000000057e7911a66a5c60c976221dc1e07bbee18a49857"
                    ]
                },
                "nodeType": 1
            }
        },
        "gasFlame": [
            {
                "children": [
                    {
                        "children": [
                            {
                                "children": [],
                                "depth": 0,
                                "name": "Initial Gas",
                                "value": 23320
                            },
                            {
                                "children": [],
                                "depth": 0,
                                "name": "Executed Gas",
                                "value": 29075
                            }
                        ],
                        "depth": -1,
                        "name": "Actual Gas Used",
                        "value": 37395
                    },
                    {
                        "children": [],
                        "depth": -1,
                        "name": "Refunded Gas",
                        "value": 15000
                    }
                ],
                "depth": -2,
                "name": "Total Gas",
                "value": 52395
            }
        ],
        "isConfirmed": true,
        "mainTrace": [
            {
                "children": [
                    {
                        "children": [
                            {
                                "children": [],
                                "depth": 1,
                                "id": 1,
                                "order": 1
                            }
                        ],
                        "depth": 0,
                        "id": 0,
                        "order": 0
                    }
                ],
                "depth": -1,
                "id": -1,
                "order": -1
            }
        ],
        "mainTraceNodeCount": 2,
        "parentIdMap": {
            "0": -1,
            "1": 0
        },
        "tidyTrace": [
            {
                "children": [
                    {
                        "children": [
                            {
                                "children": [],
                                "depth": 1,
                                "id": 1,
                                "order": 1
                            }
                        ],
                        "depth": 0,
                        "id": 0,
                        "order": 0
                    }
                ],
                "depth": -1,
                "id": -1,
                "order": -1
            }
        ],
        "tidyTraceNodeCount": 2
    },
    "state_change": {
        "stateChanges": [
            {
                "address": "0x8971f9fd7196e5cee2c1032b50f656855af7dd26",
                "erc": "",
                "slots": [
                    {
                        "current": "0x0000000000000000000000000000000000000000000000000000000000000000",
                        "key": "0xf3b12dc20032769aaf2fad63830b07b6e27927b8fb308b13a21d605d315155d5",
                        "prev": "0x00000000000000000000000000000000000000000000021e19e0c9bab2400000"
                    },
                    {
                        "current": "0x00000000000000000000000000000000000000000000021e19e0c9bab2400000",
                        "key": "0xe1a1e237560b9b30bb7f46b5cb9e4f2a5d9e8717bea13c1c6822ac796efc114a",
                        "prev": "0x0000000000000000000000000000000000000000000000000000000000000000"
                    }
                ],
                "storageVariables": [
                    {
                        "name": "balances",
                        "type": "mapping(address => uint256)",
                        "value": {
                            "pairs": [
                                {
                                    "key": "0x2b3f4443e09834a30dfa2b6e2893a80b87d1a100",
                                    "value": {
                                        "current": "0",
                                        "prev": "10000000000000000000000",
                                        "typeTag": 1
                                    }
                                },
                                {
                                    "key": "0x57e7911a66a5c60c976221dc1e07bbee18a49857",
                                    "value": {
                                        "current": "10000000000000000000000",
                                        "prev": "0",
                                        "typeTag": 1
                                    }
                                }
                            ],
                            "typeTag": 4
                        }
                    }
                ]
            }
        ]
    }
}