{
    "balance_change": {
        "balanceChanges": [
            {
                "account": "0x2256d1c1d55ffc2e5dd80a87f40c14ff196d630e",
                "assets": [
                    {
                        "address": "0xe6b75a1960f91bfa7010dec8543685ead67f8cff",
                        "amount": "208",
                        "iconUrl": "",
                        "isERC1155": false,
                        "isERC721": false,
                        "sign": false,
                        "value": ""
                    }
                ]
            },
            {
                "account": "0x49a863696da86424507d72b8498b802b0bfe1810",
                "assets": [
                    {
                        "address": "0xe6b75a1960f91bfa7010dec8543685ead67f8cff",
                        "amount": "208",
                        "iconUrl": "",
                        "isERC1155": false,
                        "isERC721": false,
                        "sign": true,
                        "value": ""
                    }
                ]
            }
        ]
    },
    "profile": {
        "basic_info": {
            "baseFee": "",
            "blockNumber": 7698964,
            "callData": "0xa9059cbb00000000000000000000000049a863696da86424507d72b8498b802b0bfe181000000000000000000000000000000000000000000000000b469471f801400000",
            "debugEnable": true,
            "errorInfo": "",
            "eventCount": 1,
            "feeRecipient": "0xea674fdde714fd979de3edf0f56aa9716b898ec8",
            "formatValue": "0",
            "gasLimit": 210000,
            "gasPrice": "20",
            "gasUsed": 37976,
            "intTxnCount": 0,
            "internalRevert": false,
            "internalRevertMessage": "",
            "isContractCreation": false,
            "isFlashloan": false,
            "maxFee": "",
            "nonce": 17334,
            "overwritedBlockNumber": -1,
            "priorityFee": "",
            "receiver": "0xe6b75a1960f91bfa7010dec8543685ead67f8cff",
            "revertMessage": "",
            "sender": "0x2256d1c1d55ffc2e5dd80a87f40c14ff196d630e",
            "simulationEnable": true,
            "sourceTxnHash": "0x233397bbeaffd2ab4212f899da3e64d589fc7af866cb339984a261c907f4b26f",
            "status": true,
            "timestamp": "2019-05-05T05:09:46Z",
            "transactionFee": "0.00075952",
            "txnHash": "0x233397bbeaffd2ab4212f899da3e64d589fc7af866cb339984a261c907f4b26f",
            "txnIndex": 30,
            "type": 0,
            "value": "0"
        },
        "fund_flow": [
            {
                "amount": "208",
                "from": "0x2256d1c1d55ffc2e5dd80a87f40c14ff196d630e",
                "id": 1,
                "isERC1155": false,
                "isERC721": false,
                "isReverted": false,
                "order": 1,
                "to": "0x49a863696da86424507d72b8498b802b0bfe1810",
                "token": "0xe6b75a1960f91bfa7010dec8543685ead67f8cff"
            }
        ],
        "token_infos": [
            {
                "address": "0xc02aaa39b223fe8d0a0e5c4f27ead9083c756cc2",
                "decimals": 18
            },
            {
                "address": "0xe6b75a1960f91bfa7010dec8543685ead67f8cff",
                "decimals": 18
            },
            {
                "address": "0xeeeeeeeeeeeeeeeeeeeeeeeeeeeeeeeeeeeeeeee",
                "decimals": 18
            }
        ]
    },
    "address_label": {
        "labels": [
            {
                "address": "0xeeeeeeeeeeeeeeeeeeeeeeeeeeeeeeeeeeeeeeee",
                "label": "Ether"
            },
            {
                "address": "0xe6b75a1960f91bfa7010dec8543685ead67f8cff",
                "label": "Sea Cucumber Chain (SCC)"
            },
            {
                "address": "0x0000000000000000000000000000000000000001",
                "label": "Precompiled"
            },
            {
                "address": "0x0000000000000000000000000000000000000002",
                "label": "Precompiled"
            },
            {
                "address": "0x0000000000000000000000000000000000000003",
                "label": "Precompiled"
            },
            {
                "address": "0x0000000000000000000000000000000000000004",
                "label": "Precompiled"
            }
        ]
    },
    "trace": {
        "accountLabels": null,
        "dataMap": {
            "-1": {
                "invocation": {
                    "address": "0x2256d1c1d55ffc2e5dd80a87f40c14ff196d630e",
                    "callData": "",
                    "decodedMethod": null,
                    "errorInfo": "",
                    "fromAddress": "",
                    "gasUsed": 0,
                    "id": -1,
                    "methodDecoded": false,
                    "operation": "",
                    "output": "",
                    "revert": false,
                    "revertMessage": "",
                    "selector": "",
                    "status": false,
                    "value": ""
                },
                "nodeType": 0
            },
            "0": {
                "invocation": {
                    "address": "0xe6b75a1960f91bfa7010dec8543685ead67f8cff",
                    "callData": "0x00000000000000000000000049a863696da86424507d72b8498b802b0bfe181000000000000000000000000000000000000000000000000b469471f801400000",
                    "decodedMethod": {
                        "callParams": [
                            {
                                "name": "_to",
                                "type": "address",
                                "value": "0x49a863696da86424507d72b8498b802b0bfe1810"
                            },
                            {
                                "decimalAvailable": true,
                                "name": "_value",
                                "type": "uint256",
                                "value": "208,000,000,000,000,000,000"
                            }
                        ],
                        "constructorArguments": "",
                        "name": "transfer",
                        "returnParams": [
                            {
                                "name": "",
                                "type": "bool",
                                "value": true
                            }
                        ],
                        "signature": "transfer(address,uint256)"
                    },
                    "errorInfo": "",
                    "fromAddress": "0x2256d1c1d55ffc2e5dd80a87f40c14ff196d630e",
                    "gasUsed": 37976,
                    "id": 0,
                    "methodDecoded": true,
                    "operation": "CALL",
                    "output": "0x0000000000000000000000000000000000000000000000000000000000000001",
                    "revert": false,
                    "revertMessage": "",
                    "selector": "0xa9059cbb",
                    "status": true,
                    "value": "0"
                },
                "nodeType": 0
            },
            "1": {
                "event": {
                    "contract": "0xe6b75a1960f91bfa7010dec8543685ead67f8cff",
                    "decodedLog": {
                        "name": "Transfer",
                        "params": [
                            {
                                "name": "from",
                                "type": "address",
                                "value": "0x2256d1c1d55ffc2e5dd80a87f40c14ff196d630e"
                            },
                            {
                                "name": "to",
                                "type": "address",
                                "value": "0x49a863696da86424507d72b8498b802b0bfe1810"
                            },
                            {
                                "decimalAvailable": true,
                                "name": "value",
                                "type": "uint256",
                                "value": "208,000,000,000,000,000,000"
                            }
                        ],
                        "signature": "Transfer(address,address,uint256)"
                    },
                    "id": 1,
                    "logData": "0x00000000000000000000000000000000000000000000000b469471f801400000",
                    "logDecoded": true,
                    "operation": "EVENT",
                    "revert": false,
                    "status": true,
                    "topics": [
                        "0xddf252ad1be2c89b69c2b068fc378daa952ba7f163c4a11628f55a4df523b3ef",
                        "0x0000000000000000000000002256d1c1d55ffc2e5dd80a87f40c14ff196d630e",
                        "0x00000000000000000000000049a863696da86424507d72b8498b802b0bfe1810"
                    ]
                },
                "nodeType": 1
            }
        },
        "gasFlame": [
            {
                "children": [
                    {
                        "children": [
                            {
                                "children": [],
                                "depth": 0,
                                "name": "Initial Gas",
                                "value": 23256
                            },
                            {
                                "children": [],
                                "depth": 0,
                                "name": "Executed Gas",
                                "value": 14720
                            }
                        ],
                        "depth": -1,
                        "name": "Actual Gas Used",
                        "value": 37976
                    },
                    {
                        "children": [],
                        "depth": -1,
                        "name": "Refunded Gas",
                        "value": 0
                    }
                ],
                "depth": -2,
                "name": "Total Gas",
                "value": 37976
            }
        ],
        "isConfirmed": true,
        "mainTrace": [
            {
                "children": [
                    {
                        "children": [
                            {
                                "children": [],
                                "depth": 1,
                                "id": 1,
                                "order": 1
                            }
                        ],
                        "depth": 0,
                        "id": 0,
                        "order": 0
                    }
                ],
                "depth": -1,
                "id": -1,
                "order": -1
            }
        ],
        "mainTraceNodeCount": 2,
        "parentIdMap": {
            "0": -1,
            "1": 0
        },
        "tidyTrace": [
            {
                "children": [
                    {
                        "children": [
                            {
                                "children": [],
                                "depth": 1,
                                "id": 1,
                                "order": 1
                            }
                        ],
                        "depth": 0,
                        "id": 0,
                        "order": 0
                    }
                ],
                "depth": -1,
                "id": -1,
                "order": -1
            }
        ],
        "tidyTraceNodeCount": 2
    },
    "state_change": {
        "stateChanges": [
            {
                "address": "0xe6b75a1960f91bfa7010dec8543685ead67f8cff",
                "erc": "ERC-20",
                "slots": [
                    {
                        "current": "0x000000000000000000000000000000000000000000019d86475476ebb5227d00",
                        "key": "0x6b6cde38b8383dcc07622350d79a01ddf1f740667d5b27a6aa683891a11d4a86",
                        "prev": "0x000000000000000000000000000000000000000000019d918de8e8e3b6627d00"
                    },
                    {
                        "current": "0x0000000000000000000000000000000000000000000000cd82aff523b3a9d4f0",
                        "key": "0x710de3d2afe392959f503f6ebba6930ddfbbef1f1a9c5c58ce6d42a8bf77eedb",
                        "prev": "0x0000000000000000000000000000000000000000000000c23c1b832bb269d4f0"
                    }
                ],
                "storageVariables": [
                    {
                        "name": "balances",
                        "type": "mapping(address => uint256)",
                        "value": {
                            "pairs": [
                                {
                                    "key": "0x2256d1c1d55ffc2e5dd80a87f40c14ff196d630e",
                                    "value": {
                                        "current": "1952814360994870018080000",
                                        "prev": "1953022360994870018080000",
                                        "typeTag": 1
                                    }
                                },
                                {
                                    "key": "0x49a863696da86424507d72b8498b802b0bfe1810",
                                    "value": {
                                        "current": "3790999549989999990000",
                                        "prev": "3582999549989999990000",
                                        "typeTag": 1
                                    }
                                }
                            ],
                            "typeTag": 4
                        }
                    }
                ]
            }
        ]
    }
}