{
    "balance_change": {
        "balanceChanges": []
    },
    "profile": {
        "basic_info": {
            "baseFee": "28.702562026",
            "blockNumber": 13042248,
            "callData": "0xb16eb35100000000000000000000000000000000000000000000000000000000000000c000000000000000000000000000000000000000000000000000000000000001a00000000000000000000000000000000000000000000000000000000000001dba0000000000000000000000000000000000000000000000000000000000000a9b0000000000000000000000000000000000000000000000000000000000000280000000000000000000000000000000000000000000000000000000000000048000000000000000000000000000000000000000000000000000000000000000060000000000000000000000003472a5a71965499acd81997a54bba8d852c6e53d0000000000000000000000002b5455aac8d64c14786c3a29858e43b5945819c000000000000000000000000053c8e199eb2cb7c01543c137078a038937a68e400000000000000000000000008798249c2e607446efb7ad49ec89dd1865ff427200000000000000000000000020c36f062a31865bed8a5b1e512d9a1a20aa333a000000000000000000000000798d1be841a82a273720ce31c822c61a67a601c300000000000000000000000000000000000000000000000000000000000000060000000000000000000000000000000000000000000000032a0c6d9bff9897cf000000000000000000000000000000000000000000000003d4229957a1d31c8000000000000000000000000000000000000000000000000190aad842236f0f000000000000000000000000000000000000000000000000009cf15752c74cb0000000000000000000000000000000000000000000000000064520bf89785b7d2000000daa62eba66617a4cbc4c28c4332824fd403438629fe881b10a08c6b4f85000000000000000000000000000000000000000000000000000000000000000f02fbcddbe332ba611168b141b2f86caf8b6500ff65dfd609c0746d564237ba80914b08f5ba1993b8e5bb85b1a69ea30ee29ce7d7b58002a0ef35d8b6cf40458200bb227d2f5583b0b3d184447439219b1e7a09c8583e2be1e063b1611b1163edfd24d0560fd7e0dd0de73d9d8a976e6fe2f585080361dc747a4765d0a600506aad23987f1d93ef4178e1eb2c98c54fad00f43b979968ad040af4f7031093a2a996abee74236d8b2338cc8771425e74893f7299f76b329497e5185ede35daa630f4f453065b394268f216eda3935cef55d8c7e1c0f4210557a49de6bb38730b4c812c3c0c44af4f139cb9b6fd98ec0137fe9f61dab0c42241c8930d5d44149097422aabe8fdf51dd6d1a65bc3d9037249ce17345a063039318d4a3717f81b0897c7577ffdb9721ce09cf5fbde1659a7724932f802f4d4e0405fd500ad9dcd7f7093a683dff6f7a9c5d979a4f8882d1adc034852296baab7aa93e8e958ea2a28a11180be4a2c3397473032e94b400dd07e67e64b2c170d83758eb3eb651b7700dcb767b4a48660fa60d93c464d93f34f901dd0b1397c4705435f60386eed00db7cca922f9758a874d2ed59a9a27dc43f6439e743a5b64a6ca656daf61be13f9c18d4dc7f8d454b38f99be175720c9ee32c7e7883d7ff54000b19dd69eead8e480e0000000000000000000000000000000000000000000000000000000000000006000000000000000000000000000000000000000000000001685db20b3c70e5d6000000000000000000000000000000000000000000000003d4229957a1d31c8000000000000000000000000000000000000000000000000190aad842236f0f00000000000000000000000000000000000000000000000000000000000000000000000000000000000000000000000000000000000000000000000000000000000000000000000000000000000000000000000000000000000000000000000000",
            "debugEnable": true,
            "errorInfo": "execution reverted",
            "eventCount": 0,
            "feeRecipient": "0x52bc44d5378309ee2abf1539bf71de1b7d7be3b5",
            "formatValue": "0",
            "gasLimit": 395538,
            "gasPrice": "29.1",
            "gasUsed": 48264,
            "intTxnCount": 1,
            "internalRevert": true,
            "internalRevertMessage": "",
            "isContractCreation": false,
            "isFlashloan": false,
            "maxFee": "29.1",
            "nonce": 830,
            "overwritedBlockNumber": -1,
            "priorityFee": "1.01",
            "receiver": "0x660802fc641b154aba66a62137e71f331b6d787a",
            "revertMessage": "Invalid cycle",
            "sender": "0x0e41c9b548cf0545377aeeb693a6006172f1af81",
            "simulationEnable": true,
            "sourceTxnHash": "0x2317a4bc496ba1a743da06172e2a26f4a13fb50e6c8c99748ce5c02d9abd9f89",
            "status": false,
            "timestamp": "2021-08-17T10:47:35Z",
            "transactionFee": "0.0014044824",
            "txnHash": "0x2317a4bc496ba1a743da06172e2a26f4a13fb50e6c8c99748ce5c02d9abd9f89",
            "txnIndex": 169,
            "type": 2,
            "value": "0"
        },
        "fund_flow": [],
        "token_infos": [
            {
                "address": "0xc02aaa39b223fe8d0a0e5c4f27ead9083c756cc2",
                "decimals": 18
            },
            {
                "address": "0xeeeeeeeeeeeeeeeeeeeeeeeeeeeeeeeeeeeeeeee",
                "decimals": 18
            }
        ]
    },
    "address_label": {
        "labels": [
            {
                "address": "0x798d1be841a82a273720ce31c822c61a67a601c3",
                "label": "Badger: DIGG Token"
            },
            {
                "address": "0x2b5455aac8d64c14786c3a29858e43b5945819c0",
                "label": "Badger Sett Convex CRV (bcvxCRV)"
            },
            {
                "address": "0x53c8e199eb2cb7c01543c137078a038937a68e40",
                "label": "Badger Sett Convex Token (bCVX)"
            },
            {
                "address": "0x0000000000000000000000000000000000000002",
                "label": "Precompiled"
            },
            {
                "address": "0x8798249c2e607446efb7ad49ec89dd1865ff4272",
                "label": "SushiSwap: xSUSHI Token"
            },
            {
                "address": "0x0000000000000000000000000000000000000004",
                "label": "Precompiled"
            },
            {
                "address": "0xeeeeeeeeeeeeeeeeeeeeeeeeeeeeeeeeeeeeeeee",
                "label": "Ether"
            },
            {
                "address": "0x660802fc641b154aba66a62137e71f331b6d787a",
                "label": "Badger: badgerTree"
            },
            {
                "address": "0xbe82a3259ce427b8bcb54b938b486dc2af509cc3",
                "label": "BadgerTreeV2"
            },
            {
                "address": "0x20c36f062a31865bed8a5b1e512d9a1a20aa333a",
                "label": "DefiDollar DAO (DFD)"
            },
            {
                "address": "0x0000000000000000000000000000000000000001",
                "label": "Precompiled"
            },
            {
                "address": "0x3472a5a71965499acd81997a54bba8d852c6e53d",
                "label": "Badger: BADGER Token"
            },
            {
                "address": "0x0000000000000000000000000000000000000003",
                "label": "Precompiled"
            }
        ]
    },
    "trace": {
        "accountLabels": null,
        "dataMap": {
            "-1": {
                "invocation": {
                    "address": "0x0e41c9b548cf0545377aeeb693a6006172f1af81",
                    "callData": "",
                    "decodedMethod": null,
                    "errorInfo": "",
                    "fromAddress": "",
                    "gasUsed": 0,
                    "id": -1,
                    "methodDecoded": false,
                    "operation": "",
                    "output": "",
                    "revert": false,
                    "revertMessage": "",
                    "selector": "",
                    "status": false,
                    "value": ""
                },
                "nodeType": 0
            },
            "0": {
                "invocation": {
                    "address": "0x660802fc641b154aba66a62137e71f331b6d787a",
                    "callData": "0x00000000000000000000000000000000000000000000000000000000000000c000000000000000000000000000000000000000000000000000000000000001a00000000000000000000000000000000000000000000000000000000000001dba0000000000000000000000000000000000000000000000000000000000000a9b0000000000000000000000000000000000000000000000000000000000000280000000000000000000000000000000000000000000000000000000000000048000000000000000000000000000000000000000000000000000000000000000060000000000000000000000003472a5a71965499acd81997a54bba8d852c6e53d0000000000000000000000002b5455aac8d64c14786c3a29858e43b5945819c000000000000000000000000053c8e199eb2cb7c01543c137078a038937a68e400000000000000000000000008798249c2e607446efb7ad49ec89dd1865ff427200000000000000000000000020c36f062a31865bed8a5b1e512d9a1a20aa333a000000000000000000000000798d1be841a82a273720ce31c822c61a67a601c300000000000000000000000000000000000000000000000000000000000000060000000000000000000000000000000000000000000000032a0c6d9bff9897cf000000000000000000000000000000000000000000000003d4229957a1d31c8000000000000000000000000000000000000000000000000190aad842236f0f000000000000000000000000000000000000000000000000009cf15752c74cb0000000000000000000000000000000000000000000000000064520bf89785b7d2000000daa62eba66617a4cbc4c28c4332824fd403438629fe881b10a08c6b4f85000000000000000000000000000000000000000000000000000000000000000f02fbcddbe332ba611168b141b2f86caf8b6500ff65dfd609c0746d564237ba80914b08f5ba1993b8e5bb85b1a69ea30ee29ce7d7b58002a0ef35d8b6cf40458200bb227d2f5583b0b3d184447439219b1e7a09c8583e2be1e063b1611b1163edfd24d0560fd7e0dd0de73d9d8a976e6fe2f585080361dc747a4765d0a600506aad23987f1d93ef4178e1eb2c98c54fad00f43b979968ad040af4f7031093a2a996abee74236d8b2338cc8771425e74893f7299f76b329497e5185ede35daa630f4f453065b394268f216eda3935cef55d8c7e1c0f4210557a49de6bb38730b4c812c3c0c44af4f139cb9b6fd98ec0137fe9f61dab0c42241c8930d5d44149097422aabe8fdf51dd6d1a65bc3d9037249ce17345a063039318d4a3717f81b0897c7577ffdb9721ce09cf5fbde1659a7724932f802f4d4e0405fd500ad9dcd7f7093a683dff6f7a9c5d979a4f8882d1adc034852296baab7aa93e8e958ea2a28a11180be4a2c3397473032e94b400dd07e67e64b2c170d83758eb3eb651b7700dcb767b4a48660fa60d93c464d93f34f901dd0b1397c4705435f60386eed00db7cca922f9758a874d2ed59a9a27dc43f6439e743a5b64a6ca656daf61be13f9c18d4dc7f8d454b38f99be175720c9ee32c7e7883d7ff54000b19dd69eead8e480e0000000000000000000000000000000000000000000000000000000000000006000000000000000000000000000000000000000000000001685db20b3c70e5d6000000000000000000000000000000000000000000000003d4229957a1d31c8000000000000000000000000000000000000000000000000190aad842236f0f00000000000000000000000000000000000000000000000000000000000000000000000000000000000000000000000000000000000000000000000000000000000000000000000000000000000000000000000000000000000000000000000000",
                    "decodedMethod": {
                        "callParams": [
                            {
                                "name": "tokens",
                                "type": "address[]",
                                "value": [
                                    "0x3472a5a71965499acd81997a54bba8d852c6e53d",
                                    "0x2b5455aac8d64c14786c3a29858e43b5945819c0",
                                    "0x53c8e199eb2cb7c01543c137078a038937a68e40",
                                    "0x8798249c2e607446efb7ad49ec89dd1865ff4272",
                                    "0x20c36f062a31865bed8a5b1e512d9a1a20aa333a",
                                    "0x798d1be841a82a273720ce31c822c61a67a601c3"
                                ]
                            },
                            {
                                "name": "cumulativeAmounts",
                                "type": "uint256[]",
                                "value": [
                                    "58,370,149,387,217,704,911",
                                    "70,626,180,908,033,711,232",
                                    "28,871,126,139,785,907,968",
                                    "11,308,916,152,346,652,672",
                                    "115,661,656,227,279,764,768",
                                    "94,316,310,987,061,758,693,575,633,127,781,572,871,892,317,631,393,718,985,781,848,054,648,709"
                                ]
                            },
                            {
                                "name": "index",
                                "type": "uint256",
                                "value": "7,610"
                            },
                            {
                                "name": "cycle",
                                "type": "uint256",
                                "value": "2,715"
                            },
                            {
                                "name": "merkleProof",
                                "type": "bytes32[]",
                                "value": [
                                    "0x02fbcddbe332ba611168b141b2f86caf8b6500ff65dfd609c0746d564237ba80",
                                    "0x914b08f5ba1993b8e5bb85b1a69ea30ee29ce7d7b58002a0ef35d8b6cf404582",
                                    "0x00bb227d2f5583b0b3d184447439219b1e7a09c8583e2be1e063b1611b1163ed",
                                    "0xfd24d0560fd7e0dd0de73d9d8a976e6fe2f585080361dc747a4765d0a600506a",
                                    "0xad23987f1d93ef4178e1eb2c98c54fad00f43b979968ad040af4f7031093a2a9",
                                    "0x96abee74236d8b2338cc8771425e74893f7299f76b329497e5185ede35daa630",
                                    "0xf4f453065b394268f216eda3935cef55d8c7e1c0f4210557a49de6bb38730b4c",
                                    "0x812c3c0c44af4f139cb9b6fd98ec0137fe9f61dab0c42241c8930d5d44149097",
                                    "0x422aabe8fdf51dd6d1a65bc3d9037249ce17345a063039318d4a3717f81b0897",
                                    "0xc7577ffdb9721ce09cf5fbde1659a7724932f802f4d4e0405fd500ad9dcd7f70",
                                    "0x93a683dff6f7a9c5d979a4f8882d1adc034852296baab7aa93e8e958ea2a28a1",
                                    "0x1180be4a2c3397473032e94b400dd07e67e64b2c170d83758eb3eb651b7700dc",
                                    "0xb767b4a48660fa60d93c464d93f34f901dd0b1397c4705435f60386eed00db7c",
                                    "0xca922f9758a874d2ed59a9a27dc43f6439e743a5b64a6ca656daf61be13f9c18",
                                    "0xd4dc7f8d454b38f99be175720c9ee32c7e7883d7ff54000b19dd69eead8e480e"
                                ]
                            },
                            {
                                "name": "amountsToClaim",
                                "type": "uint256[]",
                                "value": [
                                    "25,967,106,787,816,564,182",
                                    "70,626,180,908,033,711,232",
                                    "28,871,126,139,785,907,968",
                                    "0",
                                    "0",
                                    "0"
                                ]
                            }
                        ],
                        "constructorArguments": "",
                        "name": "claim",
                        "returnParams": [],
                        "signature": "claim(address[],uint256[],uint256,uint256,bytes32[],uint256[])"
                    },
                    "errorInfo": "execution reverted",
                    "fromAddress": "0x0e41c9b548cf0545377aeeb693a6006172f1af81",
                    "gasUsed": 48264,
                    "id": 0,
                    "methodDecoded": true,
                    "operation": "CALL",
                    "output": "0x08c379a00000000000000000000000000000000000000000000000000000000000000020000000000000000000000000000000000000000000000000000000000000000d496e76616c6964206379636c6500000000000000000000000000000000000000",
                    "revert": true,
                    "revertMessage": "Invalid cycle",
                    "selector": "0xb16eb351",
                    "status": false,
                    "value": "0"
                },
                "nodeType": 0
            },
            "1": {
                "invocation": {
                    "address": "0xbe82a3259ce427b8bcb54b938b486dc2af509cc3",
                    "callData": "0x00000000000000000000000000000000000000000000000000000000000000c000000000000000000000000000000000000000000000000000000000000001a00000000000000000000000000000000000000000000000000000000000001dba0000000000000000000000000000000000000000000000000000000000000a9b0000000000000000000000000000000000000000000000000000000000000280000000000000000000000000000000000000000000000000000000000000048000000000000000000000000000000000000000000000000000000000000000060000000000000000000000003472a5a71965499acd81997a54bba8d852c6e53d0000000000000000000000002b5455aac8d64c14786c3a29858e43b5945819c000000000000000000000000053c8e199eb2cb7c01543c137078a038937a68e400000000000000000000000008798249c2e607446efb7ad49ec89dd1865ff427200000000000000000000000020c36f062a31865bed8a5b1e512d9a1a20aa333a000000000000000000000000798d1be841a82a273720ce31c822c61a67a601c300000000000000000000000000000000000000000000000000000000000000060000000000000000000000000000000000000000000000032a0c6d9bff9897cf000000000000000000000000000000000000000000000003d4229957a1d31c8000000000000000000000000000000000000000000000000190aad842236f0f000000000000000000000000000000000000000000000000009cf15752c74cb0000000000000000000000000000000000000000000000000064520bf89785b7d2000000daa62eba66617a4cbc4c28c4332824fd403438629fe881b10a08c6b4f85000000000000000000000000000000000000000000000000000000000000000f02fbcddbe332ba611168b141b2f86caf8b6500ff65dfd609c0746d564237ba80914b08f5ba1993b8e5bb85b1a69ea30ee29ce7d7b58002a0ef35d8b6cf40458200bb227d2f5583b0b3d184447439219b1e7a09c8583e2be1e063b1611b1163edfd24d0560fd7e0dd0de73d9d8a976e6fe2f585080361dc747a4765d0a600506aad23987f1d93ef4178e1eb2c98c54fad00f43b979968ad040af4f7031093a2a996abee74236d8b2338cc8771425e74893f7299f76b329497e5185ede35daa630f4f453065b394268f216eda3935cef55d8c7e1c0f4210557a49de6bb38730b4c812c3c0c44af4f139cb9b6fd98ec0137fe9f61dab0c42241c8930d5d44149097422aabe8fdf51dd6d1a65bc3d9037249ce17345a063039318d4a3717f81b0897c7577ffdb9721ce09cf5fbde1659a7724932f802f4d4e0405fd500ad9dcd7f7093a683dff6f7a9c5d979a4f8882d1adc034852296baab7aa93e8e958ea2a28a11180be4a2c3397473032e94b400dd07e67e64b2c170d83758eb3eb651b7700dcb767b4a48660fa60d93c464d93f34f901dd0b1397c4705435f60386eed00db7cca922f9758a874d2ed59a9a27dc43f6439e743a5b64a6ca656daf61be13f9c18d4dc7f8d454b38f99be175720c9ee32c7e7883d7ff54000b19dd69eead8e480e0000000000000000000000000000000000000000000000000000000000000006000000000000000000000000000000000000000000000001685db20b3c70e5d6000000000000000000000000000000000000000000000003d4229957a1d31c8000000000000000000000000000000000000000000000000190aad842236f0f00000000000000000000000000000000000000000000000000000000000000000000000000000000000000000000000000000000000000000000000000000000000000000000000000000000000000000000000000000000000000000000000000",
                    "decodedMethod": {
                        "callParams": [
                            {
                                "name": "tokens",
                                "type": "address[]",
                                "value": [
                                    "0x3472a5a71965499acd81997a54bba8d852c6e53d",
                                    "0x2b5455aac8d64c14786c3a29858e43b5945819c0",
                                    "0x53c8e199eb2cb7c01543c137078a038937a68e40",
                                    "0x8798249c2e607446efb7ad49ec89dd1865ff4272",
                                    "0x20c36f062a31865bed8a5b1e512d9a1a20aa333a",
                                    "0x798d1be841a82a273720ce31c822c61a67a601c3"
                                ]
                            },
                            {
                                "name": "cumulativeAmounts",
                                "type": "uint256[]",
                                "value": [
                                    "58,370,149,387,217,704,911",
                                    "70,626,180,908,033,711,232",
                                    "28,871,126,139,785,907,968",
                                    "11,308,916,152,346,652,672",
                                    "115,661,656,227,279,764,768",
                                    "94,316,310,987,061,758,693,575,633,127,781,572,871,892,317,631,393,718,985,781,848,054,648,709"
                                ]
                            },
                            {
                                "name": "index",
                                "type": "uint256",
                                "value": "7,610"
                            },
                            {
                                "name": "cycle",
                                "type": "uint256",
                                "value": "2,715"
                            },
                            {
                                "name": "merkleProof",
                                "type": "bytes32[]",
                                "value": [
                                    "0x02fbcddbe332ba611168b141b2f86caf8b6500ff65dfd609c0746d564237ba80",
                                    "0x914b08f5ba1993b8e5bb85b1a69ea30ee29ce7d7b58002a0ef35d8b6cf404582",
                                    "0x00bb227d2f5583b0b3d184447439219b1e7a09c8583e2be1e063b1611b1163ed",
                                    "0xfd24d0560fd7e0dd0de73d9d8a976e6fe2f585080361dc747a4765d0a600506a",
                                    "0xad23987f1d93ef4178e1eb2c98c54fad00f43b979968ad040af4f7031093a2a9",
                                    "0x96abee74236d8b2338cc8771425e74893f7299f76b329497e5185ede35daa630",
                                    "0xf4f453065b394268f216eda3935cef55d8c7e1c0f4210557a49de6bb38730b4c",
                                    "0x812c3c0c44af4f139cb9b6fd98ec0137fe9f61dab0c42241c8930d5d44149097",
                                    "0x422aabe8fdf51dd6d1a65bc3d9037249ce17345a063039318d4a3717f81b0897",
                                    "0xc7577ffdb9721ce09cf5fbde1659a7724932f802f4d4e0405fd500ad9dcd7f70",
                                    "0x93a683dff6f7a9c5d979a4f8882d1adc034852296baab7aa93e8e958ea2a28a1",
                                    "0x1180be4a2c3397473032e94b400dd07e67e64b2c170d83758eb3eb651b7700dc",
                                    "0xb767b4a48660fa60d93c464d93f34f901dd0b1397c4705435f60386eed00db7c",
                                    "0xca922f9758a874d2ed59a9a27dc43f6439e743a5b64a6ca656daf61be13f9c18",
                                    "0xd4dc7f8d454b38f99be175720c9ee32c7e7883d7ff54000b19dd69eead8e480e"
                                ]
                            },
                            {
                                "name": "amountsToClaim",
                                "type": "uint256[]",
                                "value": [
                                    "25,967,106,787,816,564,182",
                                    "70,626,180,908,033,711,232",
                                    "28,871,126,139,785,907,968",
                                    "0",
                                    "0",
                                    "0"
                                ]
                            }
                        ],
                        "constructorArguments": "",
                        "name": "claim",
                        "returnParams": [],
                        "signature": "claim(address[],uint256[],uint256,uint256,bytes32[],uint256[])"
                    },
                    "errorInfo": "execution reverted",
                    "fromAddress": "0x660802fc641b154aba66a62137e71f331b6d787a",
                    "gasUsed": 5698,
                    "id": 1,
                    "methodDecoded": true,
                    "operation": "DELEGATECALL",
                    "output": "0x08c379a00000000000000000000000000000000000000000000000000000000000000020000000000000000000000000000000000000000000000000000000000000000d496e76616c6964206379636c6500000000000000000000000000000000000000",
                    "revert": true,
                    "revertMessage": "Invalid cycle",
                    "selector": "0xb16eb351",
                    "status": false,
                    "value": "0"
                },
                "nodeType": 0
            }
        },
        "gasFlame": [
            {
                "children": [
                    {
                        "children": [
                            {
                                "children": [],
                                "depth": 0,
                                "name": "Initial Gas",
                                "value": 35028
                            },
                            {
                                "children": [
                                    {
                                        "children": [],
                                        "depth": 1,
                                        "name": "claim",
                                        "value": 5698
                                    }
                                ],
                                "depth": 0,
                                "name": "Executed Gas",
                                "value": 13236
                            }
                        ],
                        "depth": -1,
                        "name": "Actual Gas Used",
                        "value": 48264
                    },
                    {
                        "children": [],
                        "depth": -1,
                        "name": "Refunded Gas",
                        "value": 0
                    }
                ],
                "depth": -2,
                "name": "Total Gas",
                "value": 48264
            }
        ],
        "isConfirmed": true,
        "mainTrace": [
            {
                "children": [
                    {
                        "children": [
                            {
                                "children": [],
                                "depth": 1,
                                "id": 1,
                                "order": 1
                            }
                        ],
                        "depth": 0,
                        "id": 0,
                        "order": 0
                    }
                ],
                "depth": -1,
                "id": -1,
                "order": -1
            }
        ],
        "mainTraceNodeCount": 2,
        "parentIdMap": {
            "0": -1,
            "1": 0
        },
        "tidyTrace": [
            {
                "children": [
                    {
                        "children": [
                            {
                                "children": [],
                                "depth": 1,
                                "id": 1,
                                "order": 1
                            }
                        ],
                        "depth": 0,
                        "id": 0,
                        "order": 0
                    }
                ],
                "depth": -1,
                "id": -1,
                "order": -1
            }
        ],
        "tidyTraceNodeCount": 2
    },
    "state_change": {
        "stateChanges": []
    }
}