{
    "balance_change": {
        "balanceChanges": [
            {
                "account": "0xba2bdef55e002be35bb1be787c0c9e95781e0ca6",
                "assets": [
                    {
                        "address": "0x2daee1aa61d60a252dc80564499a69802853583a",
                        "amount": "176,207",
                        "iconUrl": "",
                        "isERC1155": false,
                        "isERC721": false,
                        "sign": false,
                        "value": ""
                    },
                    {
                        "address": "0xeeeeeeeeeeeeeeeeeeeeeeeeeeeeeeeeeeeeeeee",
                        "amount": "0.864167724342682316",
                        "iconUrl": "https://assets.blocksec.com/image/1663669189317-3.png",
                        "isERC1155": false,
                        "isERC721": false,
                        "sign": true,
                        "value": ""
                    }
                ]
            },
            {
                "account": "0xa00655976c5c9a1ed58b3707b190867069babee5",
                "assets": [
                    {
                        "address": "0x2daee1aa61d60a252dc80564499a69802853583a",
                        "amount": "176,207",
                        "iconUrl": "",
                        "isERC1155": false,
                        "isERC721": false,
                        "sign": true,
                        "value": ""
                    },
                    {
                        "address": "0x1f573d6fb3f13d689ff844b4ce37794d79a7ff1c",
                        "amount": "221.659706350248673191",
                        "iconUrl": "https://assets.blocksec.com/icon/2134050168d6c4780030be02f0a6ca44fe9e3462a2cefed4fac3abde8839c5b0.png",
                        "isERC1155": false,
                        "isERC721": false,
                        "sign": false,
                        "value": ""
                    }
                ]
            },
            {
                "account": "0x1f573d6fb3f13d689ff844b4ce37794d79a7ff1c",
                "assets": [
                    {
                        "address": "0x1f573d6fb3f13d689ff844b4ce37794d79a7ff1c",
                        "amount": "221.659706350248673191",
                        "iconUrl": "https://assets.blocksec.com/icon/2134050168d6c4780030be02f0a6ca44fe9e3462a2cefed4fac3abde8839c5b0.png",
                        "isERC1155": false,
                        "isERC721": false,
                        "sign": true,
                        "value": ""
                    }
                ]
            },
            {
                "account": "0xc0829421c1d260bd3cb3e0f06cfe2d52db2ce315",
                "assets": [
                    {
                        "address": "0xc0829421c1d260bd3cb3e0f06cfe2d52db2ce315",
                        "amount": "0.864167724342682316",
                        "iconUrl": "",
                        "isERC1155": false,
                        "isERC721": false,
                        "sign": true,
                        "value": ""
                    },
                    {
                        "address": "0xeeeeeeeeeeeeeeeeeeeeeeeeeeeeeeeeeeeeeeee",
                        "amount": "0.864167724342682316",
                        "iconUrl": "https://assets.blocksec.com/image/1663669189317-3.png",
                        "isERC1155": false,
                        "isERC721": false,
                        "sign": false,
                        "value": ""
                    }
                ]
            },
            {
                "account": "0xcbc6a023eb975a1e2630223a7959988948e664f3",
                "assets": [
                    {
                        "address": "0xc0829421c1d260bd3cb3e0f06cfe2d52db2ce315",
                        "amount": "0.864167724342682316",
                        "iconUrl": "",
                        "isERC1155": false,
                        "isERC721": false,
                        "sign": false,
                        "value": ""
                    }
                ]
            }
        ]
    },
    "profile": {
        "basic_info": {
            "baseFee": "",
            "blockNumber": 7308078,
            "callData": "0x2274256400000000000000000000000000000000000000000000000000000000000000e00000000000000000000000000000000000000000000000000000000069070df00000000000000000000000000000000000000000000000000bc27fc4ef98c20c00000000000000000000000000000000000000000000000000000000006f8ee2000000000000000000000000000000000000000000000000000000000000001ce771a9a3997a05a677da5fb109cdd4ff3f54524886eb0fc09b02db05185f2c7904a51db88b692295f590f9ebeb0b671f2fe32a70287ce37c80ed6199e5d86cf900000000000000000000000000000000000000000000000000000000000000050000000000000000000000002daee1aa61d60a252dc80564499a69802853583a0000000000000000000000001d75ebc72f4805e9c9918b36a8969b2e3847c9fb0000000000000000000000001f573d6fb3f13d689ff844b4ce37794d79a7ff1c0000000000000000000000001f573d6fb3f13d689ff844b4ce37794d79a7ff1c000000000000000000000000c0829421c1d260bd3cb3e0f06cfe2d52db2ce315",
            "debugEnable": true,
            "errorInfo": "",
            "eventCount": 14,
            "feeRecipient": "0x829bd824b016326a401d083b33d092293333a830",
            "formatValue": "0",
            "gasLimit": 550000,
            "gasPrice": "7",
            "gasUsed": 280958,
            "intTxnCount": 41,
            "internalRevert": false,
            "internalRevertMessage": "",
            "isContractCreation": false,
            "isFlashloan": false,
            "maxFee": "",
            "nonce": 4796,
            "overwritedBlockNumber": -1,
            "priorityFee": "",
            "receiver": "0xa00655976c5c9a1ed58b3707b190867069babee5",
            "revertMessage": "",
            "sender": "0xba2bdef55e002be35bb1be787c0c9e95781e0ca6",
            "simulationEnable": true,
            "sourceTxnHash": "0x2322d0681ed18ba72284a51a3ee60546a3c04b2ee57ee755001d149692dcfac2",
            "status": true,
            "timestamp": "2019-03-05T07:40:15Z",
            "transactionFee": "0.001966706",
            "txnHash": "0x2322d0681ed18ba72284a51a3ee60546a3c04b2ee57ee755001d149692dcfac2",
            "txnIndex": 79,
            "type": 0,
            "value": "0"
        },
        "fund_flow": [
            {
                "amount": "176,207",
                "from": "0xba2bdef55e002be35bb1be787c0c9e95781e0ca6",
                "id": 1,
                "isERC1155": false,
                "isERC721": false,
                "isReverted": false,
                "order": 1,
                "to": "0x6690819cb98c1211a8e38790d6cd48316ed518db",
                "token": "0x2daee1aa61d60a252dc80564499a69802853583a"
            },
            {
                "amount": "176,207",
                "from": "0x6690819cb98c1211a8e38790d6cd48316ed518db",
                "id": 2,
                "isERC1155": false,
                "isERC721": false,
                "isReverted": false,
                "order": 2,
                "to": "0xa00655976c5c9a1ed58b3707b190867069babee5",
                "token": "0x2daee1aa61d60a252dc80564499a69802853583a"
            },
            {
                "amount": "221.659706350248673191",
                "from": "0xa00655976c5c9a1ed58b3707b190867069babee5",
                "id": 3,
                "isERC1155": false,
                "isERC721": false,
                "isReverted": false,
                "order": 3,
                "to": "0x6690819cb98c1211a8e38790d6cd48316ed518db",
                "token": "0x1f573d6fb3f13d689ff844b4ce37794d79a7ff1c"
            },
            {
                "amount": "221.659706350248673191",
                "from": "0x6690819cb98c1211a8e38790d6cd48316ed518db",
                "id": 4,
                "isERC1155": false,
                "isERC721": false,
                "isReverted": false,
                "order": 4,
                "to": "0x1f573d6fb3f13d689ff844b4ce37794d79a7ff1c",
                "token": "0x1f573d6fb3f13d689ff844b4ce37794d79a7ff1c"
            },
            {
                "amount": "0.864167724342682316",
                "from": "0xcbc6a023eb975a1e2630223a7959988948e664f3",
                "id": 5,
                "isERC1155": false,
                "isERC721": false,
                "isReverted": false,
                "order": 5,
                "to": "0x6690819cb98c1211a8e38790d6cd48316ed518db",
                "token": "0xc0829421c1d260bd3cb3e0f06cfe2d52db2ce315"
            },
            {
                "amount": "0.864167724342682316",
                "from": "0xc0829421c1d260bd3cb3e0f06cfe2d52db2ce315",
                "id": 6,
                "isERC1155": false,
                "isERC721": false,
                "isReverted": false,
                "order": 6,
                "to": "0xba2bdef55e002be35bb1be787c0c9e95781e0ca6",
                "token": "0xeeeeeeeeeeeeeeeeeeeeeeeeeeeeeeeeeeeeeeee"
            },
            {
                "amount": "0.864167724342682316",
                "from": "0x6690819cb98c1211a8e38790d6cd48316ed518db",
                "id": 7,
                "isERC1155": false,
                "isERC721": false,
                "isReverted": false,
                "order": 7,
                "to": "0xc0829421c1d260bd3cb3e0f06cfe2d52db2ce315",
                "token": "0xc0829421c1d260bd3cb3e0f06cfe2d52db2ce315"
            }
        ],
        "token_infos": [
            {
                "address": "0x1f573d6fb3f13d689ff844b4ce37794d79a7ff1c",
                "decimals": 18
            },
            {
                "address": "0x2daee1aa61d60a252dc80564499a69802853583a",
                "decimals": 4
            },
            {
                "address": "0xc02aaa39b223fe8d0a0e5c4f27ead9083c756cc2",
                "decimals": 18
            },
            {
                "address": "0xc0829421c1d260bd3cb3e0f06cfe2d52db2ce315",
                "decimals": 18
            },
            {
                "address": "0xeeeeeeeeeeeeeeeeeeeeeeeeeeeeeeeeeeeeeeee",
                "decimals": 18
            }
        ]
    },
    "address_label": {
        "labels": [
            {
                "address": "0x6690819cb98c1211a8e38790d6cd48316ed518db",
                "label": "BancorNetwork"
            },
            {
                "address": "0x0000000000000000000000000000000000000001",
                "label": "Precompiled"
            },
            {
                "address": "0x0000000000000000000000000000000000000004",
                "label": "Precompiled"
            },
            {
                "address": "0xeeeeeeeeeeeeeeeeeeeeeeeeeeeeeeeeeeeeeeee",
                "label": "Ether"
            },
            {
                "address": "0xcbc6a023eb975a1e2630223a7959988948e664f3",
                "label": "BancorConverter"
            },
            {
                "address": "0x563172281800b139f69fb038cc2c08cad56ce699",
                "label": "ContractFeatures"
            },
            {
                "address": "0x2daee1aa61d60a252dc80564499a69802853583a",
                "label": "AuthorshipToken"
            },
            {
                "address": "0xa00655976c5c9a1ed58b3707b190867069babee5",
                "label": "Bancor: Converter 10"
            },
            {
                "address": "0x0000000000000000000000000000000000000000",
                "label": "Null Address"
            },
            {
                "address": "0xffd2de852b694f88656e91d9defa6b425c454742",
                "label": "BancorFormula"
            },
            {
                "address": "0x7148b1c9154bcf273a2c7d7b90e3edc6fee395e6",
                "label": "ContractRegistry"
            },
            {
                "address": "0x0000000000000000000000000000000000000002",
                "label": "Precompiled"
            },
            {
                "address": "0x0000000000000000000000000000000000000003",
                "label": "Precompiled"
            },
            {
                "address": "0x1f573d6fb3f13d689ff844b4ce37794d79a7ff1c",
                "label": "Bancor: BNT Token"
            },
            {
                "address": "0xc0829421c1d260bd3cb3e0f06cfe2d52db2ce315",
                "label": "Bancor: ETH Token"
            },
            {
                "address": "0x52ae12abe5d8bd778bd5397f99ca900624cfadd4",
                "label": "Bancor: Contract Registry"
            },
            {
                "address": "0x1d75ebc72f4805e9c9918b36a8969b2e3847c9fb",
                "label": "SmartToken"
            }
        ]
    },
    "trace": {
        "accountLabels": null,
        "dataMap": {
            "-1": {
                "invocation": {
                    "address": "0xba2bdef55e002be35bb1be787c0c9e95781e0ca6",
                    "callData": "",
                    "decodedMethod": null,
                    "errorInfo": "",
                    "fromAddress": "",
                    "gasUsed": 0,
                    "id": -1,
                    "methodDecoded": false,
                    "operation": "",
                    "output": "",
                    "revert": false,
                    "revertMessage": "",
                    "selector": "",
                    "status": false,
                    "value": ""
                },
                "nodeType": 0
            },
            "0": {
                "invocation": {
                    "address": "0xa00655976c5c9a1ed58b3707b190867069babee5",
                    "callData": "0x00000000000000000000000000000000000000000000000000000000000000e00000000000000000000000000000000000000000000000000000000069070df00000000000000000000000000000000000000000000000000bc27fc4ef98c20c00000000000000000000000000000000000000000000000000000000006f8ee2000000000000000000000000000000000000000000000000000000000000001ce771a9a3997a05a677da5fb109cdd4ff3f54524886eb0fc09b02db05185f2c7904a51db88b692295f590f9ebeb0b671f2fe32a70287ce37c80ed6199e5d86cf900000000000000000000000000000000000000000000000000000000000000050000000000000000000000002daee1aa61d60a252dc80564499a69802853583a0000000000000000000000001d75ebc72f4805e9c9918b36a8969b2e3847c9fb0000000000000000000000001f573d6fb3f13d689ff844b4ce37794d79a7ff1c0000000000000000000000001f573d6fb3f13d689ff844b4ce37794d79a7ff1c000000000000000000000000c0829421c1d260bd3cb3e0f06cfe2d52db2ce315",
                    "decodedMethod": {
                        "callParams": [
                            {
                                "name": "_path",
                                "type": "address[]",
                                "value": [
                                    "0x2daee1aa61d60a252dc80564499a69802853583a",
                                    "0x1d75ebc72f4805e9c9918b36a8969b2e3847c9fb",
                                    "0x1f573d6fb3f13d689ff844b4ce37794d79a7ff1c",
                                    "0x1f573d6fb3f13d689ff844b4ce37794d79a7ff1c",
                                    "0xc0829421c1d260bd3cb3e0f06cfe2d52db2ce315"
                                ]
                            },
                            {
                                "name": "_amount",
                                "type": "uint256",
                                "value": "1,762,070,000"
                            },
                            {
                                "name": "_minReturn",
                                "type": "uint256",
                                "value": "847,380,163,709,157,900"
                            },
                            {
                                "name": "_block",
                                "type": "uint256",
                                "value": "7,311,074"
                            },
                            {
                                "name": "_v",
                                "type": "uint8",
                                "value": "28"
                            },
                            {
                                "name": "_r",
                                "type": "bytes32",
                                "value": "0xe771a9a3997a05a677da5fb109cdd4ff3f54524886eb0fc09b02db05185f2c79"
                            },
                            {
                                "name": "_s",
                                "type": "bytes32",
                                "value": "0x04a51db88b692295f590f9ebeb0b671f2fe32a70287ce37c80ed6199e5d86cf9"
                            }
                        ],
                        "constructorArguments": "",
                        "name": "quickConvertPrioritized",
                        "returnParams": [
                            {
                                "name": "",
                                "type": "uint256",
                                "value": "864,167,724,342,682,316"
                            }
                        ],
                        "signature": "quickConvertPrioritized(address[],uint256,uint256,uint256,uint8,bytes32,bytes32)"
                    },
                    "errorInfo": "",
                    "fromAddress": "0xba2bdef55e002be35bb1be787c0c9e95781e0ca6",
                    "gasUsed": 280958,
                    "id": 0,
                    "methodDecoded": true,
                    "operation": "CALL",
                    "output": "0x0000000000000000000000000000000000000000000000000bfe23f77bcda2cc",
                    "revert": false,
                    "revertMessage": "",
                    "selector": "0x22742564",
                    "status": true,
                    "value": "0"
                },
                "nodeType": 0
            },
            "1": {
                "invocation": {
                    "address": "0x7148b1c9154bcf273a2c7d7b90e3edc6fee395e6",
                    "callData": "0x42616e636f724e6574776f726b00000000000000000000000000000000000000",
                    "decodedMethod": {
                        "callParams": [
                            {
                                "name": "_contractName",
                                "type": "bytes32",
                                "value": "0x42616e636f724e6574776f726b00000000000000000000000000000000000000"
                            }
                        ],
                        "constructorArguments": "",
                        "name": "addressOf",
                        "returnParams": [
                            {
                                "name": "",
                                "type": "address",
                                "value": "0x6690819cb98c1211a8e38790d6cd48316ed518db"
                            }
                        ],
                        "signature": "addressOf(bytes32)"
                    },
                    "errorInfo": "",
                    "fromAddress": "0xa00655976c5c9a1ed58b3707b190867069babee5",
                    "gasUsed": 763,
                    "id": 1,
                    "methodDecoded": true,
                    "operation": "CALL",
                    "output": "0x0000000000000000000000006690819cb98c1211a8e38790d6cd48316ed518db",
                    "revert": false,
                    "revertMessage": "",
                    "selector": "0xbb34534c",
                    "status": true,
                    "value": "0"
                },
                "nodeType": 0
            },
            "10": {
                "invocation": {
                    "address": "0x2daee1aa61d60a252dc80564499a69802853583a",
                    "callData": "0x0000000000000000000000006690819cb98c1211a8e38790d6cd48316ed518db000000000000000000000000a00655976c5c9a1ed58b3707b190867069babee5",
                    "decodedMethod": {
                        "callParams": [
                            {
                                "name": "_owner",
                                "type": "address",
                                "value": "0x6690819cb98c1211a8e38790d6cd48316ed518db"
                            },
                            {
                                "name": "_spender",
                                "type": "address",
                                "value": "0xa00655976c5c9a1ed58b3707b190867069babee5"
                            }
                        ],
                        "constructorArguments": "",
                        "name": "allowance",
                        "returnParams": [
                            {
                                "decimalAvailable": true,
                                "name": "remaining",
                                "type": "uint256",
                                "value": "0"
                            }
                        ],
                        "signature": "allowance(address,address)"
                    },
                    "errorInfo": "",
                    "fromAddress": "0x6690819cb98c1211a8e38790d6cd48316ed518db",
                    "gasUsed": 897,
                    "id": 10,
                    "methodDecoded": true,
                    "operation": "CALL",
                    "output": "0x0000000000000000000000000000000000000000000000000000000000000000",
                    "revert": false,
                    "revertMessage": "",
                    "selector": "0xdd62ed3e",
                    "status": true,
                    "value": "0"
                },
                "nodeType": 0
            },
            "11": {
                "invocation": {
                    "address": "0x2daee1aa61d60a252dc80564499a69802853583a",
                    "callData": "0x0000000000000000000000006690819cb98c1211a8e38790d6cd48316ed518db000000000000000000000000a00655976c5c9a1ed58b3707b190867069babee5",
                    "decodedMethod": {
                        "callParams": [
                            {
                                "name": "_owner",
                                "type": "address",
                                "value": "0x6690819cb98c1211a8e38790d6cd48316ed518db"
                            },
                            {
                                "name": "_spender",
                                "type": "address",
                                "value": "0xa00655976c5c9a1ed58b3707b190867069babee5"
                            }
                        ],
                        "constructorArguments": "",
                        "name": "allowance",
                        "returnParams": [
                            {
                                "decimalAvailable": true,
                                "name": "remaining",
                                "type": "uint256",
                                "value": "0"
                            }
                        ],
                        "signature": "allowance(address,address)"
                    },
                    "errorInfo": "",
                    "fromAddress": "0x6690819cb98c1211a8e38790d6cd48316ed518db",
                    "gasUsed": 897,
                    "id": 11,
                    "methodDecoded": true,
                    "operation": "CALL",
                    "output": "0x0000000000000000000000000000000000000000000000000000000000000000",
                    "revert": false,
                    "revertMessage": "",
                    "selector": "0xdd62ed3e",
                    "status": true,
                    "value": "0"
                },
                "nodeType": 0
            },
            "12": {
                "invocation": {
                    "address": "0x2daee1aa61d60a252dc80564499a69802853583a",
                    "callData": "0x000000000000000000000000a00655976c5c9a1ed58b3707b190867069babee50000000000000000000000000000000000000000000000000000000069070df0",
                    "decodedMethod": {
                        "callParams": [
                            {
                                "name": "_spender",
                                "type": "address",
                                "value": "0xa00655976c5c9a1ed58b3707b190867069babee5"
                            },
                            {
                                "decimalAvailable": true,
                                "name": "_amount",
                                "type": "uint256",
                                "value": "1,762,070,000"
                            }
                        ],
                        "constructorArguments": "",
                        "name": "approve",
                        "returnParams": [
                            {
                                "name": "success",
                                "type": "bool",
                                "value": true
                            }
                        ],
                        "signature": "approve(address,uint256)"
                    },
                    "errorInfo": "",
                    "fromAddress": "0x6690819cb98c1211a8e38790d6cd48316ed518db",
                    "gasUsed": 22356,
                    "id": 12,
                    "methodDecoded": true,
                    "operation": "CALL",
                    "output": "0x0000000000000000000000000000000000000000000000000000000000000001",
                    "revert": false,
                    "revertMessage": "",
                    "selector": "0x095ea7b3",
                    "status": true,
                    "value": "0"
                },
                "nodeType": 0
            },
            "13": {
                "event": {
                    "contract": "0x2daee1aa61d60a252dc80564499a69802853583a",
                    "decodedLog": {
                        "name": "Approval",
                        "params": [
                            {
                                "name": "_owner",
                                "type": "address",
                                "value": "0x6690819cb98c1211a8e38790d6cd48316ed518db"
                            },
                            {
                                "name": "_spender",
                                "type": "address",
                                "value": "0xa00655976c5c9a1ed58b3707b190867069babee5"
                            },
                            {
                                "decimalAvailable": true,
                                "name": "_value",
                                "type": "uint256",
                                "value": "1,762,070,000"
                            }
                        ],
                        "signature": "Approval(address,address,uint256)"
                    },
                    "id": 13,
                    "logData": "0x0000000000000000000000000000000000000000000000000000000069070df0",
                    "logDecoded": true,
                    "operation": "EVENT",
                    "revert": false,
                    "status": true,
                    "topics": [
                        "0x8c5be1e5ebec7d5bd14f71427d1e84f3dd0314c0f7b2291e5b200ac8c7c3b925",
                        "0x0000000000000000000000006690819cb98c1211a8e38790d6cd48316ed518db",
                        "0x000000000000000000000000a00655976c5c9a1ed58b3707b190867069babee5"
                    ]
                },
                "nodeType": 1
            },
            "14": {
                "invocation": {
                    "address": "0xa00655976c5c9a1ed58b3707b190867069babee5",
                    "callData": "0x0000000000000000000000002daee1aa61d60a252dc80564499a69802853583a0000000000000000000000001f573d6fb3f13d689ff844b4ce37794d79a7ff1c0000000000000000000000000000000000000000000000000000000069070df00000000000000000000000000000000000000000000000000000000000000001",
                    "decodedMethod": {
                        "callParams": [
                            {
                                "name": "_fromToken",
                                "type": "address",
                                "value": "0x2daee1aa61d60a252dc80564499a69802853583a"
                            },
                            {
                                "name": "_toToken",
                                "type": "address",
                                "value": "0x1f573d6fb3f13d689ff844b4ce37794d79a7ff1c"
                            },
                            {
                                "name": "_amount",
                                "type": "uint256",
                                "value": "1,762,070,000"
                            },
                            {
                                "name": "_minReturn",
                                "type": "uint256",
                                "value": "1"
                            }
                        ],
                        "constructorArguments": "",
                        "name": "change",
                        "returnParams": [
                            {
                                "name": "",
                                "type": "uint256",
                                "value": "221,659,706,350,248,673,191"
                            }
                        ],
                        "signature": "change(address,address,uint256,uint256)"
                    },
                    "errorInfo": "",
                    "fromAddress": "0x6690819cb98c1211a8e38790d6cd48316ed518db",
                    "gasUsed": 98864,
                    "id": 14,
                    "methodDecoded": true,
                    "operation": "CALL",
                    "output": "0x00000000000000000000000000000000000000000000000c04257885a7f83fa7",
                    "revert": false,
                    "revertMessage": "",
                    "selector": "0x5e5144eb",
                    "status": true,
                    "value": "0"
                },
                "nodeType": 0
            },
            "15": {
                "invocation": {
                    "address": "0x7148b1c9154bcf273a2c7d7b90e3edc6fee395e6",
                    "callData": "0x42616e636f724e6574776f726b00000000000000000000000000000000000000",
                    "decodedMethod": {
                        "callParams": [
                            {
                                "name": "_contractName",
                                "type": "bytes32",
                                "value": "0x42616e636f724e6574776f726b00000000000000000000000000000000000000"
                            }
                        ],
                        "constructorArguments": "",
                        "name": "addressOf",
                        "returnParams": [
                            {
                                "name": "",
                                "type": "address",
                                "value": "0x6690819cb98c1211a8e38790d6cd48316ed518db"
                            }
                        ],
                        "signature": "addressOf(bytes32)"
                    },
                    "errorInfo": "",
                    "fromAddress": "0xa00655976c5c9a1ed58b3707b190867069babee5",
                    "gasUsed": 763,
                    "id": 15,
                    "methodDecoded": true,
                    "operation": "CALL",
                    "output": "0x0000000000000000000000006690819cb98c1211a8e38790d6cd48316ed518db",
                    "revert": false,
                    "revertMessage": "",
                    "selector": "0xbb34534c",
                    "status": true,
                    "value": "0"
                },
                "nodeType": 0
            },
            "16": {
                "invocation": {
                    "address": "0x1d75ebc72f4805e9c9918b36a8969b2e3847c9fb",
                    "callData": "0x",
                    "decodedMethod": {
                        "callParams": [],
                        "constructorArguments": "",
                        "name": "owner",
                        "returnParams": [
                            {
                                "name": "",
                                "type": "address",
                                "value": "0xa00655976c5c9a1ed58b3707b190867069babee5"
                            }
                        ],
                        "signature": "owner()"
                    },
                    "errorInfo": "",
                    "fromAddress": "0xa00655976c5c9a1ed58b3707b190867069babee5",
                    "gasUsed": 790,
                    "id": 16,
                    "methodDecoded": true,
                    "operation": "CALL",
                    "output": "0x000000000000000000000000a00655976c5c9a1ed58b3707b190867069babee5",
                    "revert": false,
                    "revertMessage": "",
                    "selector": "0x8da5cb5b",
                    "status": true,
                    "value": "0"
                },
                "nodeType": 0
            },
            "17": {
                "invocation": {
                    "address": "0x2daee1aa61d60a252dc80564499a69802853583a",
                    "callData": "0x000000000000000000000000a00655976c5c9a1ed58b3707b190867069babee5",
                    "decodedMethod": {
                        "callParams": [
                            {
                                "name": "_owner",
                                "type": "address",
                                "value": "0xa00655976c5c9a1ed58b3707b190867069babee5"
                            }
                        ],
                        "constructorArguments": "",
                        "name": "balanceOf",
                        "returnParams": [
                            {
                                "decimalAvailable": true,
                                "name": "balance",
                                "type": "uint256",
                                "value": "11,445,791,566"
                            }
                        ],
                        "signature": "balanceOf(address)"
                    },
                    "errorInfo": "",
                    "fromAddress": "0xa00655976c5c9a1ed58b3707b190867069babee5",
                    "gasUsed": 714,
                    "id": 17,
                    "methodDecoded": true,
                    "operation": "CALL",
                    "output": "0x00000000000000000000000000000000000000000000000000000002aa38eb4e",
                    "revert": false,
                    "revertMessage": "",
                    "selector": "0x70a08231",
                    "status": true,
                    "value": "0"
                },
                "nodeType": 0
            },
            "18": {
                "invocation": {
                    "address": "0x1f573d6fb3f13d689ff844b4ce37794d79a7ff1c",
                    "callData": "0x000000000000000000000000a00655976c5c9a1ed58b3707b190867069babee5",
                    "decodedMethod": {
                        "callParams": [
                            {
                                "name": "",
                                "type": "address",
                                "value": "0xa00655976c5c9a1ed58b3707b190867069babee5"
                            }
                        ],
                        "constructorArguments": "",
                        "name": "balanceOf",
                        "returnParams": [
                            {
                                "decimalAvailable": true,
                                "name": "",
                                "type": "uint256",
                                "value": "1,664,811,734,121,897,304,979"
                            }
                        ],
                        "signature": "balanceOf(address)"
                    },
                    "errorInfo": "",
                    "fromAddress": "0xa00655976c5c9a1ed58b3707b190867069babee5",
                    "gasUsed": 718,
                    "id": 18,
                    "methodDecoded": true,
                    "operation": "CALL",
                    "output": "0x00000000000000000000000000000000000000000000005a3fe76ba21dc0a393",
                    "revert": false,
                    "revertMessage": "",
                    "selector": "0x70a08231",
                    "status": true,
                    "value": "0"
                },
                "nodeType": 0
            },
            "19": {
                "invocation": {
                    "address": "0x7148b1c9154bcf273a2c7d7b90e3edc6fee395e6",
                    "callData": "0x42616e636f72466f726d756c6100000000000000000000000000000000000000",
                    "decodedMethod": {
                        "callParams": [
                            {
                                "name": "_contractName",
                                "type": "bytes32",
                                "value": "0x42616e636f72466f726d756c6100000000000000000000000000000000000000"
                            }
                        ],
                        "constructorArguments": "",
                        "name": "addressOf",
                        "returnParams": [
                            {
                                "name": "",
                                "type": "address",
                                "value": "0xffd2de852b694f88656e91d9defa6b425c454742"
                            }
                        ],
                        "signature": "addressOf(bytes32)"
                    },
                    "errorInfo": "",
                    "fromAddress": "0xa00655976c5c9a1ed58b3707b190867069babee5",
                    "gasUsed": 763,
                    "id": 19,
                    "methodDecoded": true,
                    "operation": "CALL",
                    "output": "0x000000000000000000000000ffd2de852b694f88656e91d9defa6b425c454742",
                    "revert": false,
                    "revertMessage": "",
                    "selector": "0xbb34534c",
                    "status": true,
                    "value": "0"
                },
                "nodeType": 0
            },
            "2": {
                "invocation": {
                    "address": "0x2daee1aa61d60a252dc80564499a69802853583a",
                    "callData": "0x000000000000000000000000ba2bdef55e002be35bb1be787c0c9e95781e0ca60000000000000000000000006690819cb98c1211a8e38790d6cd48316ed518db0000000000000000000000000000000000000000000000000000000069070df0",
                    "decodedMethod": {
                        "callParams": [
                            {
                                "name": "_from",
                                "type": "address",
                                "value": "0xba2bdef55e002be35bb1be787c0c9e95781e0ca6"
                            },
                            {
                                "name": "_to",
                                "type": "address",
                                "value": "0x6690819cb98c1211a8e38790d6cd48316ed518db"
                            },
                            {
                                "decimalAvailable": true,
                                "name": "_amount",
                                "type": "uint256",
                                "value": "1,762,070,000"
                            }
                        ],
                        "constructorArguments": "",
                        "name": "transferFrom",
                        "returnParams": [
                            {
                                "name": "success",
                                "type": "bool",
                                "value": true
                            }
                        ],
                        "signature": "transferFrom(address,address,uint256)"
                    },
                    "errorInfo": "",
                    "fromAddress": "0xa00655976c5c9a1ed58b3707b190867069babee5",
                    "gasUsed": 34430,
                    "id": 2,
                    "methodDecoded": true,
                    "operation": "CALL",
                    "output": "0x0000000000000000000000000000000000000000000000000000000000000001",
                    "revert": false,
                    "revertMessage": "",
                    "selector": "0x23b872dd",
                    "status": true,
                    "value": "0"
                },
                "nodeType": 0
            },
            "20": {
                "invocation": {
                    "address": "0xffd2de852b694f88656e91d9defa6b425c454742",
                    "callData": "0x00000000000000000000000000000000000000000000000000000002aa38eb4e000000000000000000000000000000000000000000000000000000000007a12000000000000000000000000000000000000000000000005a3fe76ba21dc0a393000000000000000000000000000000000000000000000000000000000007a1200000000000000000000000000000000000000000000000000000000069070df0",
                    "decodedMethod": {
                        "callParams": [
                            {
                                "name": "_fromConnectorBalance",
                                "type": "uint256",
                                "value": "11,445,791,566"
                            },
                            {
                                "name": "_fromConnectorWeight",
                                "type": "uint32",
                                "value": "500,000"
                            },
                            {
                                "name": "_toConnectorBalance",
                                "type": "uint256",
                                "value": "1,664,811,734,121,897,304,979"
                            },
                            {
                                "name": "_toConnectorWeight",
                                "type": "uint32",
                                "value": "500,000"
                            },
                            {
                                "name": "_amount",
                                "type": "uint256",
                                "value": "1,762,070,000"
                            }
                        ],
                        "constructorArguments": "",
                        "name": "calculateCrossConnectorReturn",
                        "returnParams": [
                            {
                                "name": "",
                                "type": "uint256",
                                "value": "222,103,691,629,816,676,728"
                            }
                        ],
                        "signature": "calculateCrossConnectorReturn(uint256,uint32,uint256,uint32,uint256)"
                    },
                    "errorInfo": "",
                    "fromAddress": "0xa00655976c5c9a1ed58b3707b190867069babee5",
                    "gasUsed": 842,
                    "id": 20,
                    "methodDecoded": true,
                    "operation": "CALL",
                    "output": "0x00000000000000000000000000000000000000000000000c0a4ed2c8121f8178",
                    "revert": false,
                    "revertMessage": "",
                    "selector": "0x65098bb3",
                    "status": true,
                    "value": "0"
                },
                "nodeType": 0
            },
            "21": {
                "invocation": {
                    "address": "0x1f573d6fb3f13d689ff844b4ce37794d79a7ff1c",
                    "callData": "0x000000000000000000000000a00655976c5c9a1ed58b3707b190867069babee5",
                    "decodedMethod": {
                        "callParams": [
                            {
                                "name": "",
                                "type": "address",
                                "value": "0xa00655976c5c9a1ed58b3707b190867069babee5"
                            }
                        ],
                        "constructorArguments": "",
                        "name": "balanceOf",
                        "returnParams": [
                            {
                                "decimalAvailable": true,
                                "name": "",
                                "type": "uint256",
                                "value": "1,664,811,734,121,897,304,979"
                            }
                        ],
                        "signature": "balanceOf(address)"
                    },
                    "errorInfo": "",
                    "fromAddress": "0xa00655976c5c9a1ed58b3707b190867069babee5",
                    "gasUsed": 718,
                    "id": 21,
                    "methodDecoded": true,
                    "operation": "CALL",
                    "output": "0x00000000000000000000000000000000000000000000005a3fe76ba21dc0a393",
                    "revert": false,
                    "revertMessage": "",
                    "selector": "0x70a08231",
                    "status": true,
                    "value": "0"
                },
                "nodeType": 0
            },
            "22": {
                "invocation": {
                    "address": "0x2daee1aa61d60a252dc80564499a69802853583a",
                    "callData": "0x0000000000000000000000006690819cb98c1211a8e38790d6cd48316ed518db000000000000000000000000a00655976c5c9a1ed58b3707b190867069babee50000000000000000000000000000000000000000000000000000000069070df0",
                    "decodedMethod": {
                        "callParams": [
                            {
                                "name": "_from",
                                "type": "address",
                                "value": "0x6690819cb98c1211a8e38790d6cd48316ed518db"
                            },
                            {
                                "name": "_to",
                                "type": "address",
                                "value": "0xa00655976c5c9a1ed58b3707b190867069babee5"
                            },
                            {
                                "decimalAvailable": true,
                                "name": "_amount",
                                "type": "uint256",
                                "value": "1,762,070,000"
                            }
                        ],
                        "constructorArguments": "",
                        "name": "transferFrom",
                        "returnParams": [
                            {
                                "name": "success",
                                "type": "bool",
                                "value": true
                            }
                        ],
                        "signature": "transferFrom(address,address,uint256)"
                    },
                    "errorInfo": "",
                    "fromAddress": "0xa00655976c5c9a1ed58b3707b190867069babee5",
                    "gasUsed": 19430,
                    "id": 22,
                    "methodDecoded": true,
                    "operation": "CALL",
                    "output": "0x0000000000000000000000000000000000000000000000000000000000000001",
                    "revert": false,
                    "revertMessage": "",
                    "selector": "0x23b872dd",
                    "status": true,
                    "value": "0"
                },
                "nodeType": 0
            },
            "23": {
                "event": {
                    "contract": "0x2daee1aa61d60a252dc80564499a69802853583a",
                    "decodedLog": {
                        "name": "Transfer",
                        "params": [
                            {
                                "name": "_from",
                                "type": "address",
                                "value": "0x6690819cb98c1211a8e38790d6cd48316ed518db"
                            },
                            {
                                "name": "_to",
                                "type": "address",
                                "value": "0xa00655976c5c9a1ed58b3707b190867069babee5"
                            },
                            {
                                "decimalAvailable": true,
                                "name": "_value",
                                "type": "uint256",
                                "value": "1,762,070,000"
                            }
                        ],
                        "signature": "Transfer(address,address,uint256)"
                    },
                    "id": 23,
                    "logData": "0x0000000000000000000000000000000000000000000000000000000069070df0",
                    "logDecoded": true,
                    "operation": "EVENT",
                    "revert": false,
                    "status": true,
                    "topics": [
                        "0xddf252ad1be2c89b69c2b068fc378daa952ba7f163c4a11628f55a4df523b3ef",
                        "0x0000000000000000000000006690819cb98c1211a8e38790d6cd48316ed518db",
                        "0x000000000000000000000000a00655976c5c9a1ed58b3707b190867069babee5"
                    ]
                },
                "nodeType": 1
            },
            "24": {
                "invocation": {
                    "address": "0x1f573d6fb3f13d689ff844b4ce37794d79a7ff1c",
                    "callData": "0x0000000000000000000000006690819cb98c1211a8e38790d6cd48316ed518db00000000000000000000000000000000000000000000000c04257885a7f83fa7",
                    "decodedMethod": {
                        "callParams": [
                            {
                                "name": "_to",
                                "type": "address",
                                "value": "0x6690819cb98c1211a8e38790d6cd48316ed518db"
                            },
                            {
                                "decimalAvailable": true,
                                "name": "_value",
                                "type": "uint256",
                                "value": "221,659,706,350,248,673,191"
                            }
                        ],
                        "constructorArguments": "",
                        "name": "transfer",
                        "returnParams": [
                            {
                                "name": "success",
                                "type": "bool",
                                "value": true
                            }
                        ],
                        "signature": "transfer(address,uint256)"
                    },
                    "errorInfo": "",
                    "fromAddress": "0xa00655976c5c9a1ed58b3707b190867069babee5",
                    "gasUsed": 29152,
                    "id": 24,
                    "methodDecoded": true,
                    "operation": "CALL",
                    "output": "0x0000000000000000000000000000000000000000000000000000000000000001",
                    "revert": false,
                    "revertMessage": "",
                    "selector": "0xa9059cbb",
                    "status": true,
                    "value": "0"
                },
                "nodeType": 0
            },
            "25": {
                "event": {
                    "contract": "0x1f573d6fb3f13d689ff844b4ce37794d79a7ff1c",
                    "decodedLog": {
                        "name": "Transfer",
                        "params": [
                            {
                                "name": "_from",
                                "type": "address",
                                "value": "0xa00655976c5c9a1ed58b3707b190867069babee5"
                            },
                            {
                                "name": "_to",
                                "type": "address",
                                "value": "0x6690819cb98c1211a8e38790d6cd48316ed518db"
                            },
                            {
                                "decimalAvailable": true,
                                "name": "_value",
                                "type": "uint256",
                                "value": "221,659,706,350,248,673,191"
                            }
                        ],
                        "signature": "Transfer(address,address,uint256)"
                    },
                    "id": 25,
                    "logData": "0x00000000000000000000000000000000000000000000000c04257885a7f83fa7",
                    "logDecoded": true,
                    "operation": "EVENT",
                    "revert": false,
                    "status": true,
                    "topics": [
                        "0xddf252ad1be2c89b69c2b068fc378daa952ba7f163c4a11628f55a4df523b3ef",
                        "0x000000000000000000000000a00655976c5c9a1ed58b3707b190867069babee5",
                        "0x0000000000000000000000006690819cb98c1211a8e38790d6cd48316ed518db"
                    ]
                },
                "nodeType": 1
            },
            "26": {
                "event": {
                    "contract": "0xa00655976c5c9a1ed58b3707b190867069babee5",
                    "decodedLog": {
                        "name": "Conversion",
                        "params": [
                            {
                                "name": "_fromToken",
                                "type": "address",
                                "value": "0x2daee1aa61d60a252dc80564499a69802853583a"
                            },
                            {
                                "name": "_toToken",
                                "type": "address",
                                "value": "0x1f573d6fb3f13d689ff844b4ce37794d79a7ff1c"
                            },
                            {
                                "name": "_trader",
                                "type": "address",
                                "value": "0x6690819cb98c1211a8e38790d6cd48316ed518db"
                            },
                            {
                                "name": "_amount",
                                "type": "uint256",
                                "value": "1,762,070,000"
                            },
                            {
                                "name": "_return",
                                "type": "uint256",
                                "value": "221,659,706,350,248,673,191"
                            },
                            {
                                "name": "_conversionFee",
                                "type": "int256",
                                "value": "443,097,752,994,147,098"
                            }
                        ],
                        "signature": "Conversion(address,address,address,uint256,uint256,int256)"
                    },
                    "id": 26,
                    "logData": "0x0000000000000000000000000000000000000000000000000000000069070df000000000000000000000000000000000000000000000000c04257885a7f83fa70000000000000000000000000000000000000000000000000626330f07fd6b1a",
                    "logDecoded": true,
                    "operation": "EVENT",
                    "revert": false,
                    "status": true,
                    "topics": [
                        "0x276856b36cbc45526a0ba64f44611557a2a8b68662c5388e9fe6d72e86e1c8cb",
                        "0x0000000000000000000000002daee1aa61d60a252dc80564499a69802853583a",
                        "0x0000000000000000000000001f573d6fb3f13d689ff844b4ce37794d79a7ff1c",
                        "0x0000000000000000000000006690819cb98c1211a8e38790d6cd48316ed518db"
                    ]
                },
                "nodeType": 1
            },
            "27": {
                "invocation": {
                    "address": "0x1d75ebc72f4805e9c9918b36a8969b2e3847c9fb",
                    "callData": "0x",
                    "decodedMethod": {
                        "callParams": [],
                        "constructorArguments": "",
                        "name": "totalSupply",
                        "returnParams": [
                            {
                                "name": "",
                                "type": "uint256",
                                "value": "63,946,729,661,304,114,088,795"
                            }
                        ],
                        "signature": "totalSupply()"
                    },
                    "errorInfo": "",
                    "fromAddress": "0xa00655976c5c9a1ed58b3707b190867069babee5",
                    "gasUsed": 439,
                    "id": 27,
                    "methodDecoded": true,
                    "operation": "CALL",
                    "output": "0x000000000000000000000000000000000000000000000d8a8f252ea96ef98b5b",
                    "revert": false,
                    "revertMessage": "",
                    "selector": "0x18160ddd",
                    "status": true,
                    "value": "0"
                },
                "nodeType": 0
            },
            "28": {
                "invocation": {
                    "address": "0x2daee1aa61d60a252dc80564499a69802853583a",
                    "callData": "0x000000000000000000000000a00655976c5c9a1ed58b3707b190867069babee5",
                    "decodedMethod": {
                        "callParams": [
                            {
                                "name": "_owner",
                                "type": "address",
                                "value": "0xa00655976c5c9a1ed58b3707b190867069babee5"
                            }
                        ],
                        "constructorArguments": "",
                        "name": "balanceOf",
                        "returnParams": [
                            {
                                "decimalAvailable": true,
                                "name": "balance",
                                "type": "uint256",
                                "value": "13,207,861,566"
                            }
                        ],
                        "signature": "balanceOf(address)"
                    },
                    "errorInfo": "",
                    "fromAddress": "0xa00655976c5c9a1ed58b3707b190867069babee5",
                    "gasUsed": 714,
                    "id": 28,
                    "methodDecoded": true,
                    "operation": "CALL",
                    "output": "0x00000000000000000000000000000000000000000000000000000003133ff93e",
                    "revert": false,
                    "revertMessage": "",
                    "selector": "0x70a08231",
                    "status": true,
                    "value": "0"
                },
                "nodeType": 0
            },
            "29": {
                "event": {
                    "contract": "0xa00655976c5c9a1ed58b3707b190867069babee5",
                    "decodedLog": {
                        "name": "PriceDataUpdate",
                        "params": [
                            {
                                "name": "_connectorToken",
                                "type": "address",
                                "value": "0x2daee1aa61d60a252dc80564499a69802853583a"
                            },
                            {
                                "name": "_tokenSupply",
                                "type": "uint256",
                                "value": "63,946,729,661,304,114,088,795"
                            },
                            {
                                "name": "_connectorBalance",
                                "type": "uint256",
                                "value": "13,207,861,566"
                            },
                            {
                                "name": "_connectorWeight",
                                "type": "uint32",
                                "value": "500,000"
                            }
                        ],
                        "signature": "PriceDataUpdate(address,uint256,uint256,uint32)"
                    },
                    "id": 29,
                    "logData": "0x000000000000000000000000000000000000000000000d8a8f252ea96ef98b5b00000000000000000000000000000000000000000000000000000003133ff93e000000000000000000000000000000000000000000000000000000000007a120",
                    "logDecoded": true,
                    "operation": "EVENT",
                    "revert": false,
                    "status": true,
                    "topics": [
                        "0x8a6a7f53b3c8fa1dc4b83e3f1be668c1b251ff8d44cdcb83eb3acec3fec6a788",
                        "0x0000000000000000000000002daee1aa61d60a252dc80564499a69802853583a"
                    ]
                },
                "nodeType": 1
            },
            "3": {
                "event": {
                    "contract": "0x2daee1aa61d60a252dc80564499a69802853583a",
                    "decodedLog": {
                        "name": "Transfer",
                        "params": [
                            {
                                "name": "_from",
                                "type": "address",
                                "value": "0xba2bdef55e002be35bb1be787c0c9e95781e0ca6"
                            },
                            {
                                "name": "_to",
                                "type": "address",
                                "value": "0x6690819cb98c1211a8e38790d6cd48316ed518db"
                            },
                            {
                                "decimalAvailable": true,
                                "name": "_value",
                                "type": "uint256",
                                "value": "1,762,070,000"
                            }
                        ],
                        "signature": "Transfer(address,address,uint256)"
                    },
                    "id": 3,
                    "logData": "0x0000000000000000000000000000000000000000000000000000000069070df0",
                    "logDecoded": true,
                    "operation": "EVENT",
                    "revert": false,
                    "status": true,
                    "topics": [
                        "0xddf252ad1be2c89b69c2b068fc378daa952ba7f163c4a11628f55a4df523b3ef",
                        "0x000000000000000000000000ba2bdef55e002be35bb1be787c0c9e95781e0ca6",
                        "0x0000000000000000000000006690819cb98c1211a8e38790d6cd48316ed518db"
                    ]
                },
                "nodeType": 1
            },
            "30": {
                "invocation": {
                    "address": "0x1d75ebc72f4805e9c9918b36a8969b2e3847c9fb",
                    "callData": "0x",
                    "decodedMethod": {
                        "callParams": [],
                        "constructorArguments": "",
                        "name": "totalSupply",
                        "returnParams": [
                            {
                                "name": "",
                                "type": "uint256",
                                "value": "63,946,729,661,304,114,088,795"
                            }
                        ],
                        "signature": "totalSupply()"
                    },
                    "errorInfo": "",
                    "fromAddress": "0xa00655976c5c9a1ed58b3707b190867069babee5",
                    "gasUsed": 439,
                    "id": 30,
                    "methodDecoded": true,
                    "operation": "CALL",
                    "output": "0x000000000000000000000000000000000000000000000d8a8f252ea96ef98b5b",
                    "revert": false,
                    "revertMessage": "",
                    "selector": "0x18160ddd",
                    "status": true,
                    "value": "0"
                },
                "nodeType": 0
            },
            "31": {
                "invocation": {
                    "address": "0x1f573d6fb3f13d689ff844b4ce37794d79a7ff1c",
                    "callData": "0x000000000000000000000000a00655976c5c9a1ed58b3707b190867069babee5",
                    "decodedMethod": {
                        "callParams": [
                            {
                                "name": "",
                                "type": "address",
                                "value": "0xa00655976c5c9a1ed58b3707b190867069babee5"
                            }
                        ],
                        "constructorArguments": "",
                        "name": "balanceOf",
                        "returnParams": [
                            {
                                "decimalAvailable": true,
                                "name": "",
                                "type": "uint256",
                                "value": "1,443,152,027,771,648,631,788"
                            }
                        ],
                        "signature": "balanceOf(address)"
                    },
                    "errorInfo": "",
                    "fromAddress": "0xa00655976c5c9a1ed58b3707b190867069babee5",
                    "gasUsed": 718,
                    "id": 31,
                    "methodDecoded": true,
                    "operation": "CALL",
                    "output": "0x00000000000000000000000000000000000000000000004e3bc1f31c75c863ec",
                    "revert": false,
                    "revertMessage": "",
                    "selector": "0x70a08231",
                    "status": true,
                    "value": "0"
                },
                "nodeType": 0
            },
            "32": {
                "event": {
                    "contract": "0xa00655976c5c9a1ed58b3707b190867069babee5",
                    "decodedLog": {
                        "name": "PriceDataUpdate",
                        "params": [
                            {
                                "name": "_connectorToken",
                                "type": "address",
                                "value": "0x1f573d6fb3f13d689ff844b4ce37794d79a7ff1c"
                            },
                            {
                                "name": "_tokenSupply",
                                "type": "uint256",
                                "value": "63,946,729,661,304,114,088,795"
                            },
                            {
                                "name": "_connectorBalance",
                                "type": "uint256",
                                "value": "1,443,152,027,771,648,631,788"
                            },
                            {
                                "name": "_connectorWeight",
                                "type": "uint32",
                                "value": "500,000"
                            }
                        ],
                        "signature": "PriceDataUpdate(address,uint256,uint256,uint32)"
                    },
                    "id": 32,
                    "logData": "0x000000000000000000000000000000000000000000000d8a8f252ea96ef98b5b00000000000000000000000000000000000000000000004e3bc1f31c75c863ec000000000000000000000000000000000000000000000000000000000007a120",
                    "logDecoded": true,
                    "operation": "EVENT",
                    "revert": false,
                    "status": true,
                    "topics": [
                        "0x8a6a7f53b3c8fa1dc4b83e3f1be668c1b251ff8d44cdcb83eb3acec3fec6a788",
                        "0x0000000000000000000000001f573d6fb3f13d689ff844b4ce37794d79a7ff1c"
                    ]
                },
                "nodeType": 1
            },
            "33": {
                "invocation": {
                    "address": "0x1f573d6fb3f13d689ff844b4ce37794d79a7ff1c",
                    "callData": "0x",
                    "decodedMethod": {
                        "callParams": [],
                        "constructorArguments": "",
                        "name": "owner",
                        "returnParams": [
                            {
                                "name": "",
                                "type": "address",
                                "value": "0xcbc6a023eb975a1e2630223a7959988948e664f3"
                            }
                        ],
                        "signature": "owner()"
                    },
                    "errorInfo": "",
                    "fromAddress": "0x6690819cb98c1211a8e38790d6cd48316ed518db",
                    "gasUsed": 790,
                    "id": 33,
                    "methodDecoded": true,
                    "operation": "CALL",
                    "output": "0x000000000000000000000000cbc6a023eb975a1e2630223a7959988948e664f3",
                    "revert": false,
                    "revertMessage": "",
                    "selector": "0x8da5cb5b",
                    "status": true,
                    "value": "0"
                },
                "nodeType": 0
            },
            "34": {
                "invocation": {
                    "address": "0x563172281800b139f69fb038cc2c08cad56ce699",
                    "callData": "0x000000000000000000000000cbc6a023eb975a1e2630223a7959988948e664f30000000000000000000000000000000000000000000000000000000000000001",
                    "decodedMethod": {
                        "callParams": [
                            {
                                "name": "_contract",
                                "type": "address",
                                "value": "0xcbc6a023eb975a1e2630223a7959988948e664f3"
                            },
                            {
                                "name": "_features",
                                "type": "uint256",
                                "value": "1"
                            }
                        ],
                        "constructorArguments": "",
                        "name": "isSupported",
                        "returnParams": [
                            {
                                "name": "",
                                "type": "bool",
                                "value": true
                            }
                        ],
                        "signature": "isSupported(address,uint256)"
                    },
                    "errorInfo": "",
                    "fromAddress": "0x6690819cb98c1211a8e38790d6cd48316ed518db",
                    "gasUsed": 512,
                    "id": 34,
                    "methodDecoded": true,
                    "operation": "CALL",
                    "output": "0x0000000000000000000000000000000000000000000000000000000000000001",
                    "revert": false,
                    "revertMessage": "",
                    "selector": "0xa5fbf287",
                    "status": true,
                    "value": "0"
                },
                "nodeType": 0
            },
            "35": {
                "invocation": {
                    "address": "0xcbc6a023eb975a1e2630223a7959988948e664f3",
                    "callData": "0x",
                    "decodedMethod": {
                        "callParams": [],
                        "constructorArguments": "",
                        "name": "conversionWhitelist",
                        "returnParams": [
                            {
                                "name": "",
                                "type": "address",
                                "value": "0x0000000000000000000000000000000000000000"
                            }
                        ],
                        "signature": "conversionWhitelist()"
                    },
                    "errorInfo": "",
                    "fromAddress": "0x6690819cb98c1211a8e38790d6cd48316ed518db",
                    "gasUsed": 1700,
                    "id": 35,
                    "methodDecoded": true,
                    "operation": "CALL",
                    "output": "0x0000000000000000000000000000000000000000000000000000000000000000",
                    "revert": false,
                    "revertMessage": "",
                    "selector": "0xc45d3d92",
                    "status": true,
                    "value": "0"
                },
                "nodeType": 0
            },
            "36": {
                "invocation": {
                    "address": "0xcbc6a023eb975a1e2630223a7959988948e664f3",
                    "callData": "0x0000000000000000000000001f573d6fb3f13d689ff844b4ce37794d79a7ff1c000000000000000000000000c0829421c1d260bd3cb3e0f06cfe2d52db2ce31500000000000000000000000000000000000000000000000c04257885a7f83fa70000000000000000000000000000000000000000000000000bc27fc4ef98c20c",
                    "decodedMethod": {
                        "callParams": [
                            {
                                "name": "_fromToken",
                                "type": "address",
                                "value": "0x1f573d6fb3f13d689ff844b4ce37794d79a7ff1c"
                            },
                            {
                                "name": "_toToken",
                                "type": "address",
                                "value": "0xc0829421c1d260bd3cb3e0f06cfe2d52db2ce315"
                            },
                            {
                                "name": "_amount",
                                "type": "uint256",
                                "value": "221,659,706,350,248,673,191"
                            },
                            {
                                "name": "_minReturn",
                                "type": "uint256",
                                "value": "847,380,163,709,157,900"
                            }
                        ],
                        "constructorArguments": "",
                        "name": "change",
                        "returnParams": [
                            {
                                "name": "",
                                "type": "uint256",
                                "value": "864,167,724,342,682,316"
                            }
                        ],
                        "signature": "change(address,address,uint256,uint256)"
                    },
                    "errorInfo": "",
                    "fromAddress": "0x6690819cb98c1211a8e38790d6cd48316ed518db",
                    "gasUsed": 89281,
                    "id": 36,
                    "methodDecoded": true,
                    "operation": "CALL",
                    "output": "0x0000000000000000000000000000000000000000000000000bfe23f77bcda2cc",
                    "revert": false,
                    "revertMessage": "",
                    "selector": "0x5e5144eb",
                    "status": true,
                    "value": "0"
                },
                "nodeType": 0
            },
            "37": {
                "invocation": {
                    "address": "0x52ae12abe5d8bd778bd5397f99ca900624cfadd4",
                    "callData": "0x42616e636f724e6574776f726b00000000000000000000000000000000000000",
                    "decodedMethod": {
                        "callParams": [
                            {
                                "name": "_contractName",
                                "type": "bytes32",
                                "value": "0x42616e636f724e6574776f726b00000000000000000000000000000000000000"
                            }
                        ],
                        "constructorArguments": "",
                        "name": "addressOf",
                        "returnParams": [
                            {
                                "name": "",
                                "type": "address",
                                "value": "0x6690819cb98c1211a8e38790d6cd48316ed518db"
                            }
                        ],
                        "signature": "addressOf(bytes32)"
                    },
                    "errorInfo": "",
                    "fromAddress": "0xcbc6a023eb975a1e2630223a7959988948e664f3",
                    "gasUsed": 961,
                    "id": 37,
                    "methodDecoded": true,
                    "operation": "CALL",
                    "output": "0x0000000000000000000000006690819cb98c1211a8e38790d6cd48316ed518db",
                    "revert": false,
                    "revertMessage": "",
                    "selector": "0xbb34534c",
                    "status": true,
                    "value": "0"
                },
                "nodeType": 0
            },
            "38": {
                "invocation": {
                    "address": "0x1f573d6fb3f13d689ff844b4ce37794d79a7ff1c",
                    "callData": "0x0000000000000000000000006690819cb98c1211a8e38790d6cd48316ed518db",
                    "decodedMethod": {
                        "callParams": [
                            {
                                "name": "",
                                "type": "address",
                                "value": "0x6690819cb98c1211a8e38790d6cd48316ed518db"
                            }
                        ],
                        "constructorArguments": "",
                        "name": "balanceOf",
                        "returnParams": [
                            {
                                "decimalAvailable": true,
                                "name": "",
                                "type": "uint256",
                                "value": "221,659,706,350,248,673,191"
                            }
                        ],
                        "signature": "balanceOf(address)"
                    },
                    "errorInfo": "",
                    "fromAddress": "0xcbc6a023eb975a1e2630223a7959988948e664f3",
                    "gasUsed": 718,
                    "id": 38,
                    "methodDecoded": true,
                    "operation": "CALL",
                    "output": "0x00000000000000000000000000000000000000000000000c04257885a7f83fa7",
                    "revert": false,
                    "revertMessage": "",
                    "selector": "0x70a08231",
                    "status": true,
                    "value": "0"
                },
                "nodeType": 0
            },
            "39": {
                "invocation": {
                    "address": "0x1f573d6fb3f13d689ff844b4ce37794d79a7ff1c",
                    "callData": "0x",
                    "decodedMethod": {
                        "callParams": [],
                        "constructorArguments": "",
                        "name": "owner",
                        "returnParams": [
                            {
                                "name": "",
                                "type": "address",
                                "value": "0xcbc6a023eb975a1e2630223a7959988948e664f3"
                            }
                        ],
                        "signature": "owner()"
                    },
                    "errorInfo": "",
                    "fromAddress": "0xcbc6a023eb975a1e2630223a7959988948e664f3",
                    "gasUsed": 790,
                    "id": 39,
                    "methodDecoded": true,
                    "operation": "CALL",
                    "output": "0x000000000000000000000000cbc6a023eb975a1e2630223a7959988948e664f3",
                    "revert": false,
                    "revertMessage": "",
                    "selector": "0x8da5cb5b",
                    "status": true,
                    "value": "0"
                },
                "nodeType": 0
            },
            "4": {
                "invocation": {
                    "address": "0x6690819cb98c1211a8e38790d6cd48316ed518db",
                    "callData": "0x00000000000000000000000000000000000000000000000000000000000001000000000000000000000000000000000000000000000000000000000069070df00000000000000000000000000000000000000000000000000bc27fc4ef98c20c000000000000000000000000ba2bdef55e002be35bb1be787c0c9e95781e0ca600000000000000000000000000000000000000000000000000000000006f8ee2000000000000000000000000000000000000000000000000000000000000001ce771a9a3997a05a677da5fb109cdd4ff3f54524886eb0fc09b02db05185f2c7904a51db88b692295f590f9ebeb0b671f2fe32a70287ce37c80ed6199e5d86cf900000000000000000000000000000000000000000000000000000000000000050000000000000000000000002daee1aa61d60a252dc80564499a69802853583a0000000000000000000000001d75ebc72f4805e9c9918b36a8969b2e3847c9fb0000000000000000000000001f573d6fb3f13d689ff844b4ce37794d79a7ff1c0000000000000000000000001f573d6fb3f13d689ff844b4ce37794d79a7ff1c000000000000000000000000c0829421c1d260bd3cb3e0f06cfe2d52db2ce315",
                    "decodedMethod": {
                        "callParams": [
                            {
                                "name": "_path",
                                "type": "address[]",
                                "value": [
                                    "0x2daee1aa61d60a252dc80564499a69802853583a",
                                    "0x1d75ebc72f4805e9c9918b36a8969b2e3847c9fb",
                                    "0x1f573d6fb3f13d689ff844b4ce37794d79a7ff1c",
                                    "0x1f573d6fb3f13d689ff844b4ce37794d79a7ff1c",
                                    "0xc0829421c1d260bd3cb3e0f06cfe2d52db2ce315"
                                ]
                            },
                            {
                                "name": "_amount",
                                "type": "uint256",
                                "value": "1,762,070,000"
                            },
                            {
                                "name": "_minReturn",
                                "type": "uint256",
                                "value": "847,380,163,709,157,900"
                            },
                            {
                                "name": "_for",
                                "type": "address",
                                "value": "0xba2bdef55e002be35bb1be787c0c9e95781e0ca6"
                            },
                            {
                                "name": "_block",
                                "type": "uint256",
                                "value": "7,311,074"
                            },
                            {
                                "name": "_v",
                                "type": "uint8",
                                "value": "28"
                            },
                            {
                                "name": "_r",
                                "type": "bytes32",
                                "value": "0xe771a9a3997a05a677da5fb109cdd4ff3f54524886eb0fc09b02db05185f2c79"
                            },
                            {
                                "name": "_s",
                                "type": "bytes32",
                                "value": "0x04a51db88b692295f590f9ebeb0b671f2fe32a70287ce37c80ed6199e5d86cf9"
                            }
                        ],
                        "constructorArguments": "",
                        "name": "convertForPrioritized2",
                        "returnParams": [
                            {
                                "name": "",
                                "type": "uint256",
                                "value": "864,167,724,342,682,316"
                            }
                        ],
                        "signature": "convertForPrioritized2(address[],uint256,uint256,address,uint256,uint8,bytes32,bytes32)"
                    },
                    "errorInfo": "",
                    "fromAddress": "0xa00655976c5c9a1ed58b3707b190867069babee5",
                    "gasUsed": 293816,
                    "id": 4,
                    "methodDecoded": true,
                    "operation": "CALL",
                    "output": "0x0000000000000000000000000000000000000000000000000bfe23f77bcda2cc",
                    "revert": false,
                    "revertMessage": "",
                    "selector": "0x6b08f2ef",
                    "status": true,
                    "value": "0"
                },
                "nodeType": 0
            },
            "40": {
                "invocation": {
                    "address": "0x1f573d6fb3f13d689ff844b4ce37794d79a7ff1c",
                    "callData": "0x",
                    "decodedMethod": {
                        "callParams": [],
                        "constructorArguments": "",
                        "name": "totalSupply",
                        "returnParams": [
                            {
                                "name": "",
                                "type": "uint256",
                                "value": "74,014,880,084,474,814,858,007,271"
                            }
                        ],
                        "signature": "totalSupply()"
                    },
                    "errorInfo": "",
                    "fromAddress": "0xcbc6a023eb975a1e2630223a7959988948e664f3",
                    "gasUsed": 439,
                    "id": 40,
                    "methodDecoded": true,
                    "operation": "CALL",
                    "output": "0x0000000000000000000000000000000000000000003d3942b06ee477a29412e7",
                    "revert": false,
                    "revertMessage": "",
                    "selector": "0x18160ddd",
                    "status": true,
                    "value": "0"
                },
                "nodeType": 0
            },
            "41": {
                "invocation": {
                    "address": "0x52ae12abe5d8bd778bd5397f99ca900624cfadd4",
                    "callData": "0x42616e636f72466f726d756c6100000000000000000000000000000000000000",
                    "decodedMethod": {
                        "callParams": [
                            {
                                "name": "_contractName",
                                "type": "bytes32",
                                "value": "0x42616e636f72466f726d756c6100000000000000000000000000000000000000"
                            }
                        ],
                        "constructorArguments": "",
                        "name": "addressOf",
                        "returnParams": [
                            {
                                "name": "",
                                "type": "address",
                                "value": "0xffd2de852b694f88656e91d9defa6b425c454742"
                            }
                        ],
                        "signature": "addressOf(bytes32)"
                    },
                    "errorInfo": "",
                    "fromAddress": "0xcbc6a023eb975a1e2630223a7959988948e664f3",
                    "gasUsed": 961,
                    "id": 41,
                    "methodDecoded": true,
                    "operation": "CALL",
                    "output": "0x000000000000000000000000ffd2de852b694f88656e91d9defa6b425c454742",
                    "revert": false,
                    "revertMessage": "",
                    "selector": "0xbb34534c",
                    "status": true,
                    "value": "0"
                },
                "nodeType": 0
            },
            "42": {
                "invocation": {
                    "address": "0xffd2de852b694f88656e91d9defa6b425c454742",
                    "callData": "0x0000000000000000000000000000000000000000003d3942b06ee477a29412e700000000000000000000000000000000000000000000061c497e1d17413e826c00000000000000000000000000000000000000000000000000000000000186a000000000000000000000000000000000000000000000000c04257885a7f83fa7",
                    "decodedMethod": {
                        "callParams": [
                            {
                                "name": "_supply",
                                "type": "uint256",
                                "value": "74,014,880,084,474,814,858,007,271"
                            },
                            {
                                "name": "_connectorBalance",
                                "type": "uint256",
                                "value": "28,856,003,433,479,289,078,380"
                            },
                            {
                                "name": "_connectorWeight",
                                "type": "uint32",
                                "value": "100,000"
                            },
                            {
                                "name": "_sellAmount",
                                "type": "uint256",
                                "value": "221,659,706,350,248,673,191"
                            }
                        ],
                        "constructorArguments": "",
                        "name": "calculateSaleReturn",
                        "returnParams": [
                            {
                                "name": "",
                                "type": "uint256",
                                "value": "864,167,724,342,682,316"
                            }
                        ],
                        "signature": "calculateSaleReturn(uint256,uint256,uint32,uint256)"
                    },
                    "errorInfo": "",
                    "fromAddress": "0xcbc6a023eb975a1e2630223a7959988948e664f3",
                    "gasUsed": 3369,
                    "id": 42,
                    "methodDecoded": true,
                    "operation": "CALL",
                    "output": "0x0000000000000000000000000000000000000000000000000bfe23f77bcda2cc",
                    "revert": false,
                    "revertMessage": "",
                    "selector": "0x49f9b0f7",
                    "status": true,
                    "value": "0"
                },
                "nodeType": 0
            },
            "43": {
                "invocation": {
                    "address": "0x1f573d6fb3f13d689ff844b4ce37794d79a7ff1c",
                    "callData": "0x",
                    "decodedMethod": {
                        "callParams": [],
                        "constructorArguments": "",
                        "name": "totalSupply",
                        "returnParams": [
                            {
                                "name": "",
                                "type": "uint256",
                                "value": "74,014,880,084,474,814,858,007,271"
                            }
                        ],
                        "signature": "totalSupply()"
                    },
                    "errorInfo": "",
                    "fromAddress": "0xcbc6a023eb975a1e2630223a7959988948e664f3",
                    "gasUsed": 439,
                    "id": 43,
                    "methodDecoded": true,
                    "operation": "CALL",
                    "output": "0x0000000000000000000000000000000000000000003d3942b06ee477a29412e7",
                    "revert": false,
                    "revertMessage": "",
                    "selector": "0x18160ddd",
                    "status": true,
                    "value": "0"
                },
                "nodeType": 0
            },
            "44": {
                "invocation": {
                    "address": "0x1f573d6fb3f13d689ff844b4ce37794d79a7ff1c",
                    "callData": "0x0000000000000000000000006690819cb98c1211a8e38790d6cd48316ed518db00000000000000000000000000000000000000000000000c04257885a7f83fa7",
                    "decodedMethod": {
                        "callParams": [
                            {
                                "name": "_from",
                                "type": "address",
                                "value": "0x6690819cb98c1211a8e38790d6cd48316ed518db"
                            },
                            {
                                "name": "_amount",
                                "type": "uint256",
                                "value": "221,659,706,350,248,673,191"
                            }
                        ],
                        "constructorArguments": "",
                        "name": "destroy",
                        "returnParams": [],
                        "signature": "destroy(address,uint256)"
                    },
                    "errorInfo": "",
                    "fromAddress": "0xcbc6a023eb975a1e2630223a7959988948e664f3",
                    "gasUsed": 14683,
                    "id": 44,
                    "methodDecoded": true,
                    "operation": "CALL",
                    "output": "",
                    "revert": false,
                    "revertMessage": "",
                    "selector": "0xa24835d1",
                    "status": true,
                    "value": "0"
                },
                "nodeType": 0
            },
            "45": {
                "event": {
                    "contract": "0x1f573d6fb3f13d689ff844b4ce37794d79a7ff1c",
                    "decodedLog": {
                        "name": "Transfer",
                        "params": [
                            {
                                "name": "_from",
                                "type": "address",
                                "value": "0x6690819cb98c1211a8e38790d6cd48316ed518db"
                            },
                            {
                                "name": "_to",
                                "type": "address",
                                "value": "0x1f573d6fb3f13d689ff844b4ce37794d79a7ff1c"
                            },
                            {
                                "decimalAvailable": true,
                                "name": "_value",
                                "type": "uint256",
                                "value": "221,659,706,350,248,673,191"
                            }
                        ],
                        "signature": "Transfer(address,address,uint256)"
                    },
                    "id": 45,
                    "logData": "0x00000000000000000000000000000000000000000000000c04257885a7f83fa7",
                    "logDecoded": true,
                    "operation": "EVENT",
                    "revert": false,
                    "status": true,
                    "topics": [
                        "0xddf252ad1be2c89b69c2b068fc378daa952ba7f163c4a11628f55a4df523b3ef",
                        "0x0000000000000000000000006690819cb98c1211a8e38790d6cd48316ed518db",
                        "0x0000000000000000000000001f573d6fb3f13d689ff844b4ce37794d79a7ff1c"
                    ]
                },
                "nodeType": 1
            },
            "46": {
                "event": {
                    "contract": "0x1f573d6fb3f13d689ff844b4ce37794d79a7ff1c",
                    "decodedLog": {
                        "name": "Destruction",
                        "params": [
                            {
                                "name": "_amount",
                                "type": "uint256",
                                "value": "221,659,706,350,248,673,191"
                            }
                        ],
                        "signature": "Destruction(uint256)"
                    },
                    "id": 46,
                    "logData": "0x00000000000000000000000000000000000000000000000c04257885a7f83fa7",
                    "logDecoded": true,
                    "operation": "EVENT",
                    "revert": false,
                    "status": true,
                    "topics": [
                        "0x9a1b418bc061a5d80270261562e6986a35d995f8051145f277be16103abd3453"
                    ]
                },
                "nodeType": 1
            },
            "47": {
                "invocation": {
                    "address": "0xc0829421c1d260bd3cb3e0f06cfe2d52db2ce315",
                    "callData": "0x0000000000000000000000006690819cb98c1211a8e38790d6cd48316ed518db0000000000000000000000000000000000000000000000000bfe23f77bcda2cc",
                    "decodedMethod": {
                        "callParams": [
                            {
                                "name": "_to",
                                "type": "address",
                                "value": "0x6690819cb98c1211a8e38790d6cd48316ed518db"
                            },
                            {
                                "decimalAvailable": true,
                                "name": "_value",
                                "type": "uint256",
                                "value": "864,167,724,342,682,316"
                            }
                        ],
                        "constructorArguments": "",
                        "name": "transfer",
                        "returnParams": [
                            {
                                "name": "success",
                                "type": "bool",
                                "value": true
                            }
                        ],
                        "signature": "transfer(address,uint256)"
                    },
                    "errorInfo": "",
                    "fromAddress": "0xcbc6a023eb975a1e2630223a7959988948e664f3",
                    "gasUsed": 28881,
                    "id": 47,
                    "methodDecoded": true,
                    "operation": "CALL",
                    "output": "0x0000000000000000000000000000000000000000000000000000000000000001",
                    "revert": false,
                    "revertMessage": "",
                    "selector": "0xa9059cbb",
                    "status": true,
                    "value": "0"
                },
                "nodeType": 0
            },
            "48": {
                "event": {
                    "contract": "0xc0829421c1d260bd3cb3e0f06cfe2d52db2ce315",
                    "decodedLog": {
                        "name": "Transfer",
                        "params": [
                            {
                                "name": "_from",
                                "type": "address",
                                "value": "0xcbc6a023eb975a1e2630223a7959988948e664f3"
                            },
                            {
                                "name": "_to",
                                "type": "address",
                                "value": "0x6690819cb98c1211a8e38790d6cd48316ed518db"
                            },
                            {
                                "decimalAvailable": true,
                                "name": "_value",
                                "type": "uint256",
                                "value": "864,167,724,342,682,316"
                            }
                        ],
                        "signature": "Transfer(address,address,uint256)"
                    },
                    "id": 48,
                    "logData": "0x0000000000000000000000000000000000000000000000000bfe23f77bcda2cc",
                    "logDecoded": true,
                    "operation": "EVENT",
                    "revert": false,
                    "status": true,
                    "topics": [
                        "0xddf252ad1be2c89b69c2b068fc378daa952ba7f163c4a11628f55a4df523b3ef",
                        "0x000000000000000000000000cbc6a023eb975a1e2630223a7959988948e664f3",
                        "0x0000000000000000000000006690819cb98c1211a8e38790d6cd48316ed518db"
                    ]
                },
                "nodeType": 1
            },
            "49": {
                "event": {
                    "contract": "0xcbc6a023eb975a1e2630223a7959988948e664f3",
                    "decodedLog": {
                        "name": "Conversion",
                        "params": [
                            {
                                "name": "_fromToken",
                                "type": "address",
                                "value": "0x1f573d6fb3f13d689ff844b4ce37794d79a7ff1c"
                            },
                            {
                                "name": "_toToken",
                                "type": "address",
                                "value": "0xc0829421c1d260bd3cb3e0f06cfe2d52db2ce315"
                            },
                            {
                                "name": "_trader",
                                "type": "address",
                                "value": "0x6690819cb98c1211a8e38790d6cd48316ed518db"
                            },
                            {
                                "name": "_amount",
                                "type": "uint256",
                                "value": "221,659,706,350,248,673,191"
                            },
                            {
                                "name": "_return",
                                "type": "uint256",
                                "value": "864,167,724,342,682,316"
                            },
                            {
                                "name": "_conversionFee",
                                "type": "int256",
                                "value": "0"
                            }
                        ],
                        "signature": "Conversion(address,address,address,uint256,uint256,int256)"
                    },
                    "id": 49,
                    "logData": "0x00000000000000000000000000000000000000000000000c04257885a7f83fa70000000000000000000000000000000000000000000000000bfe23f77bcda2cc0000000000000000000000000000000000000000000000000000000000000000",
                    "logDecoded": true,
                    "operation": "EVENT",
                    "revert": false,
                    "status": true,
                    "topics": [
                        "0x276856b36cbc45526a0ba64f44611557a2a8b68662c5388e9fe6d72e86e1c8cb",
                        "0x0000000000000000000000001f573d6fb3f13d689ff844b4ce37794d79a7ff1c",
                        "0x000000000000000000000000c0829421c1d260bd3cb3e0f06cfe2d52db2ce315",
                        "0x0000000000000000000000006690819cb98c1211a8e38790d6cd48316ed518db"
                    ]
                },
                "nodeType": 1
            },
            "5": {
                "invocation": {
                    "address": "0x0000000000000000000000000000000000000001",
                    "callData": "0x613e98d2d55d63bf5834d8452047ca8eed6b52e962d59a46449bcbcc000000000000000000000000000000000000000000000000000000000000001ce771a9a3997a05a677da5fb109cdd4ff3f54524886eb0fc09b02db05185f2c7904a51db88b692295f590f9ebeb0b671f2fe32a70287ce37c80ed6199e5d86cf9",
                    "decodedMethod": {
                        "callParams": [
                            {
                                "name": "hash",
                                "type": "bytes32",
                                "value": "0xf45194ed613e98d2d55d63bf5834d8452047ca8eed6b52e962d59a46449bcbcc"
                            },
                            {
                                "name": "v",
                                "type": "uint256",
                                "value": "28"
                            },
                            {
                                "name": "r",
                                "type": "bytes32",
                                "value": "0xe771a9a3997a05a677da5fb109cdd4ff3f54524886eb0fc09b02db05185f2c79"
                            },
                            {
                                "name": "s",
                                "type": "bytes32",
                                "value": "0x04a51db88b692295f590f9ebeb0b671f2fe32a70287ce37c80ed6199e5d86cf9"
                            }
                        ],
                        "constructorArguments": "",
                        "name": "ecrecover",
                        "returnParams": [
                            {
                                "name": "",
                                "type": "address",
                                "value": "0xfa4f37689d8da18349d1990878a59882b21ab736"
                            }
                        ],
                        "signature": "ecrecover(bytes32,uint256,bytes32,bytes32)"
                    },
                    "errorInfo": "",
                    "fromAddress": "0x6690819cb98c1211a8e38790d6cd48316ed518db",
                    "gasUsed": 3000,
                    "id": 5,
                    "methodDecoded": true,
                    "operation": "CALL",
                    "output": "0x000000000000000000000000fa4f37689d8da18349d1990878a59882b21ab736",
                    "revert": false,
                    "revertMessage": "",
                    "selector": "0xf45194ed",
                    "status": true,
                    "value": "0"
                },
                "nodeType": 0
            },
            "50": {
                "invocation": {
                    "address": "0x1f573d6fb3f13d689ff844b4ce37794d79a7ff1c",
                    "callData": "0x",
                    "decodedMethod": {
                        "callParams": [],
                        "constructorArguments": "",
                        "name": "totalSupply",
                        "returnParams": [
                            {
                                "name": "",
                                "type": "uint256",
                                "value": "74,014,658,424,768,464,609,334,080"
                            }
                        ],
                        "signature": "totalSupply()"
                    },
                    "errorInfo": "",
                    "fromAddress": "0xcbc6a023eb975a1e2630223a7959988948e664f3",
                    "gasUsed": 439,
                    "id": 50,
                    "methodDecoded": true,
                    "operation": "CALL",
                    "output": "0x0000000000000000000000000000000000000000003d3936ac496bf1fa9bd340",
                    "revert": false,
                    "revertMessage": "",
                    "selector": "0x18160ddd",
                    "status": true,
                    "value": "0"
                },
                "nodeType": 0
            },
            "51": {
                "event": {
                    "contract": "0xcbc6a023eb975a1e2630223a7959988948e664f3",
                    "decodedLog": {
                        "name": "PriceDataUpdate",
                        "params": [
                            {
                                "name": "_connectorToken",
                                "type": "address",
                                "value": "0xc0829421c1d260bd3cb3e0f06cfe2d52db2ce315"
                            },
                            {
                                "name": "_tokenSupply",
                                "type": "uint256",
                                "value": "74,014,658,424,768,464,609,334,080"
                            },
                            {
                                "name": "_connectorBalance",
                                "type": "uint256",
                                "value": "28,855,139,265,754,946,396,064"
                            },
                            {
                                "name": "_connectorWeight",
                                "type": "uint32",
                                "value": "100,000"
                            }
                        ],
                        "signature": "PriceDataUpdate(address,uint256,uint256,uint32)"
                    },
                    "id": 51,
                    "logData": "0x0000000000000000000000000000000000000000003d3936ac496bf1fa9bd34000000000000000000000000000000000000000000000061c3d7ff91fc570dfa000000000000000000000000000000000000000000000000000000000000186a0",
                    "logDecoded": true,
                    "operation": "EVENT",
                    "revert": false,
                    "status": true,
                    "topics": [
                        "0x8a6a7f53b3c8fa1dc4b83e3f1be668c1b251ff8d44cdcb83eb3acec3fec6a788",
                        "0x000000000000000000000000c0829421c1d260bd3cb3e0f06cfe2d52db2ce315"
                    ]
                },
                "nodeType": 1
            },
            "52": {
                "invocation": {
                    "address": "0xc0829421c1d260bd3cb3e0f06cfe2d52db2ce315",
                    "callData": "0x000000000000000000000000ba2bdef55e002be35bb1be787c0c9e95781e0ca60000000000000000000000000000000000000000000000000bfe23f77bcda2cc",
                    "decodedMethod": {
                        "callParams": [
                            {
                                "name": "_to",
                                "type": "address",
                                "value": "0xba2bdef55e002be35bb1be787c0c9e95781e0ca6"
                            },
                            {
                                "name": "_amount",
                                "type": "uint256",
                                "value": "864,167,724,342,682,316"
                            }
                        ],
                        "constructorArguments": "",
                        "name": "withdrawTo",
                        "returnParams": [],
                        "signature": "withdrawTo(address,uint256)"
                    },
                    "errorInfo": "",
                    "fromAddress": "0x6690819cb98c1211a8e38790d6cd48316ed518db",
                    "gasUsed": 21932,
                    "id": 52,
                    "methodDecoded": true,
                    "operation": "CALL",
                    "output": "",
                    "revert": false,
                    "revertMessage": "",
                    "selector": "0x205c2878",
                    "status": true,
                    "value": "0"
                },
                "nodeType": 0
            },
            "53": {
                "invocation": {
                    "address": "0xba2bdef55e002be35bb1be787c0c9e95781e0ca6",
                    "callData": "0x",
                    "decodedMethod": null,
                    "errorInfo": "",
                    "fromAddress": "0xc0829421c1d260bd3cb3e0f06cfe2d52db2ce315",
                    "gasUsed": 0,
                    "id": 53,
                    "methodDecoded": false,
                    "operation": "CALL",
                    "output": "",
                    "revert": false,
                    "revertMessage": "",
                    "selector": "fallback",
                    "status": true,
                    "value": "0.864167724342682316"
                },
                "nodeType": 0
            },
            "54": {
                "event": {
                    "contract": "0xc0829421c1d260bd3cb3e0f06cfe2d52db2ce315",
                    "decodedLog": {
                        "name": "Transfer",
                        "params": [
                            {
                                "name": "_from",
                                "type": "address",
                                "value": "0x6690819cb98c1211a8e38790d6cd48316ed518db"
                            },
                            {
                                "name": "_to",
                                "type": "address",
                                "value": "0xc0829421c1d260bd3cb3e0f06cfe2d52db2ce315"
                            },
                            {
                                "decimalAvailable": true,
                                "name": "_value",
                                "type": "uint256",
                                "value": "864,167,724,342,682,316"
                            }
                        ],
                        "signature": "Transfer(address,address,uint256)"
                    },
                    "id": 54,
                    "logData": "0x0000000000000000000000000000000000000000000000000bfe23f77bcda2cc",
                    "logDecoded": true,
                    "operation": "EVENT",
                    "revert": false,
                    "status": true,
                    "topics": [
                        "0xddf252ad1be2c89b69c2b068fc378daa952ba7f163c4a11628f55a4df523b3ef",
                        "0x0000000000000000000000006690819cb98c1211a8e38790d6cd48316ed518db",
                        "0x000000000000000000000000c0829421c1d260bd3cb3e0f06cfe2d52db2ce315"
                    ]
                },
                "nodeType": 1
            },
            "55": {
                "event": {
                    "contract": "0xc0829421c1d260bd3cb3e0f06cfe2d52db2ce315",
                    "decodedLog": {
                        "name": "Destruction",
                        "params": [
                            {
                                "name": "_amount",
                                "type": "uint256",
                                "value": "864,167,724,342,682,316"
                            }
                        ],
                        "signature": "Destruction(uint256)"
                    },
                    "id": 55,
                    "logData": "0x0000000000000000000000000000000000000000000000000bfe23f77bcda2cc",
                    "logDecoded": true,
                    "operation": "EVENT",
                    "revert": false,
                    "status": true,
                    "topics": [
                        "0x9a1b418bc061a5d80270261562e6986a35d995f8051145f277be16103abd3453"
                    ]
                },
                "nodeType": 1
            },
            "6": {
                "invocation": {
                    "address": "0x52ae12abe5d8bd778bd5397f99ca900624cfadd4",
                    "callData": "0x436f6e7472616374466561747572657300000000000000000000000000000000",
                    "decodedMethod": {
                        "callParams": [
                            {
                                "name": "_contractName",
                                "type": "bytes32",
                                "value": "0x436f6e7472616374466561747572657300000000000000000000000000000000"
                            }
                        ],
                        "constructorArguments": "",
                        "name": "addressOf",
                        "returnParams": [
                            {
                                "name": "",
                                "type": "address",
                                "value": "0x563172281800b139f69fb038cc2c08cad56ce699"
                            }
                        ],
                        "signature": "addressOf(bytes32)"
                    },
                    "errorInfo": "",
                    "fromAddress": "0x6690819cb98c1211a8e38790d6cd48316ed518db",
                    "gasUsed": 961,
                    "id": 6,
                    "methodDecoded": true,
                    "operation": "CALL",
                    "output": "0x000000000000000000000000563172281800b139f69fb038cc2c08cad56ce699",
                    "revert": false,
                    "revertMessage": "",
                    "selector": "0xbb34534c",
                    "status": true,
                    "value": "0"
                },
                "nodeType": 0
            },
            "7": {
                "invocation": {
                    "address": "0x1d75ebc72f4805e9c9918b36a8969b2e3847c9fb",
                    "callData": "0x",
                    "decodedMethod": {
                        "callParams": [],
                        "constructorArguments": "",
                        "name": "owner",
                        "returnParams": [
                            {
                                "name": "",
                                "type": "address",
                                "value": "0xa00655976c5c9a1ed58b3707b190867069babee5"
                            }
                        ],
                        "signature": "owner()"
                    },
                    "errorInfo": "",
                    "fromAddress": "0x6690819cb98c1211a8e38790d6cd48316ed518db",
                    "gasUsed": 790,
                    "id": 7,
                    "methodDecoded": true,
                    "operation": "CALL",
                    "output": "0x000000000000000000000000a00655976c5c9a1ed58b3707b190867069babee5",
                    "revert": false,
                    "revertMessage": "",
                    "selector": "0x8da5cb5b",
                    "status": true,
                    "value": "0"
                },
                "nodeType": 0
            },
            "8": {
                "invocation": {
                    "address": "0x563172281800b139f69fb038cc2c08cad56ce699",
                    "callData": "0x000000000000000000000000a00655976c5c9a1ed58b3707b190867069babee50000000000000000000000000000000000000000000000000000000000000001",
                    "decodedMethod": {
                        "callParams": [
                            {
                                "name": "_contract",
                                "type": "address",
                                "value": "0xa00655976c5c9a1ed58b3707b190867069babee5"
                            },
                            {
                                "name": "_features",
                                "type": "uint256",
                                "value": "1"
                            }
                        ],
                        "constructorArguments": "",
                        "name": "isSupported",
                        "returnParams": [
                            {
                                "name": "",
                                "type": "bool",
                                "value": true
                            }
                        ],
                        "signature": "isSupported(address,uint256)"
                    },
                    "errorInfo": "",
                    "fromAddress": "0x6690819cb98c1211a8e38790d6cd48316ed518db",
                    "gasUsed": 512,
                    "id": 8,
                    "methodDecoded": true,
                    "operation": "CALL",
                    "output": "0x0000000000000000000000000000000000000000000000000000000000000001",
                    "revert": false,
                    "revertMessage": "",
                    "selector": "0xa5fbf287",
                    "status": true,
                    "value": "0"
                },
                "nodeType": 0
            },
            "9": {
                "invocation": {
                    "address": "0xa00655976c5c9a1ed58b3707b190867069babee5",
                    "callData": "0x",
                    "decodedMethod": {
                        "callParams": [],
                        "constructorArguments": "",
                        "name": "conversionWhitelist",
                        "returnParams": [
                            {
                                "name": "",
                                "type": "address",
                                "value": "0x0000000000000000000000000000000000000000"
                            }
                        ],
                        "signature": "conversionWhitelist()"
                    },
                    "errorInfo": "",
                    "fromAddress": "0x6690819cb98c1211a8e38790d6cd48316ed518db",
                    "gasUsed": 1502,
                    "id": 9,
                    "methodDecoded": true,
                    "operation": "CALL",
                    "output": "0x0000000000000000000000000000000000000000000000000000000000000000",
                    "revert": false,
                    "revertMessage": "",
                    "selector": "0xc45d3d92",
                    "status": true,
                    "value": "0"
                },
                "nodeType": 0
            }
        },
        "gasFlame": [
            {
                "children": [
                    {
                        "children": [
                            {
                                "children": [],
                                "depth": 0,
                                "name": "Initial Gas",
                                "value": 34584
                            },
                            {
                                "children": [
                                    {
                                        "children": [],
                                        "depth": 1,
                                        "name": "addressOf",
                                        "value": 763
                                    },
                                    {
                                        "children": [],
                                        "depth": 1,
                                        "name": "transferFrom",
                                        "value": 34430
                                    },
                                    {
                                        "children": [
                                            {
                                                "children": [],
                                                "depth": 2,
                                                "name": "ecrecover",
                                                "value": 3000
                                            },
                                            {
                                                "children": [],
                                                "depth": 2,
                                                "name": "addressOf",
                                                "value": 961
                                            },
                                            {
                                                "children": [],
                                                "depth": 2,
                                                "name": "owner",
                                                "value": 790
                                            },
                                            {
                                                "children": [],
                                                "depth": 2,
                                                "name": "isSupported",
                                                "value": 512
                                            },
                                            {
                                                "children": [],
                                                "depth": 2,
                                                "name": "conversionWhitelist",
                                                "value": 1502
                                            },
                                            {
                                                "children": [],
                                                "depth": 2,
                                                "name": "allowance",
                                                "value": 897
                                            },
                                            {
                                                "children": [],
                                                "depth": 2,
                                                "name": "allowance",
                                                "value": 897
                                            },
                                            {
                                                "children": [],
                                                "depth": 2,
                                                "name": "approve",
                                                "value": 22356
                                            },
                                            {
                                                "children": [
                                                    {
                                                        "children": [],
                                                        "depth": 3,
                                                        "name": "addressOf",
                                                        "value": 763
                                                    },
                                                    {
                                                        "children": [],
                                                        "depth": 3,
                                                        "name": "owner",
                                                        "value": 790
                                                    },
                                                    {
                                                        "children": [],
                                                        "depth": 3,
                                                        "name": "balanceOf",
                                                        "value": 714
                                                    },
                                                    {
                                                        "children": [],
                                                        "depth": 3,
                                                        "name": "balanceOf",
                                                        "value": 718
                                                    },
                                                    {
                                                        "children": [],
                                                        "depth": 3,
                                                        "name": "addressOf",
                                                        "value": 763
                                                    },
                                                    {
                                                        "children": [],
                                                        "depth": 3,
                                                        "name": "calculateCrossConnectorReturn",
                                                        "value": 842
                                                    },
                                                    {
                                                        "children": [],
                                                        "depth": 3,
                                                        "name": "balanceOf",
                                                        "value": 718
                                                    },
                                                    {
                                                        "children": [],
                                                        "depth": 3,
                                                        "name": "transferFrom",
                                                        "value": 19430
                                                    },
                                                    {
                                                        "children": [],
                                                        "depth": 3,
                                                        "name": "transfer",
                                                        "value": 29152
                                                    },
                                                    {
                                                        "children": [],
                                                        "depth": 3,
                                                        "name": "totalSupply",
                                                        "value": 439
                                                    },
                                                    {
                                                        "children": [],
                                                        "depth": 3,
                                                        "name": "balanceOf",
                                                        "value": 714
                                                    },
                                                    {
                                                        "children": [],
                                                        "depth": 3,
                                                        "name": "totalSupply",
                                                        "value": 439
                                                    },
                                                    {
                                                        "children": [],
                                                        "depth": 3,
                                                        "name": "balanceOf",
                                                        "value": 718
                                                    }
                                                ],
                                                "depth": 2,
                                                "name": "change",
                                                "value": 98864
                                            },
                                            {
                                                "children": [],
                                                "depth": 2,
                                                "name": "owner",
                                                "value": 790
                                            },
                                            {
                                                "children": [],
                                                "depth": 2,
                                                "name": "isSupported",
                                                "value": 512
                                            },
                                            {
                                                "children": [],
                                                "depth": 2,
                                                "name": "conversionWhitelist",
                                                "value": 1700
                                            },
                                            {
                                                "children": [
                                                    {
                                                        "children": [],
                                                        "depth": 3,
                                                        "name": "addressOf",
                                                        "value": 961
                                                    },
                                                    {
                                                        "children": [],
                                                        "depth": 3,
                                                        "name": "balanceOf",
                                                        "value": 718
                                                    },
                                                    {
                                                        "children": [],
                                                        "depth": 3,
                                                        "name": "owner",
                                                        "value": 790
                                                    },
                                                    {
                                                        "children": [],
                                                        "depth": 3,
                                                        "name": "totalSupply",
                                                        "value": 439
                                                    },
                                                    {
                                                        "children": [],
                                                        "depth": 3,
                                                        "name": "addressOf",
                                                        "value": 961
                                                    },
                                                    {
                                                        "children": [],
                                                        "depth": 3,
                                                        "name": "calculateSaleReturn",
                                                        "value": 3369
                                                    },
                                                    {
                                                        "children": [],
                                                        "depth": 3,
                                                        "name": "totalSupply",
                                                        "value": 439
                                                    },
                                                    {
                                                        "children": [],
                                                        "depth": 3,
                                                        "name": "destroy",
                                                        "value": 14683
                                                    },
                                                    {
                                                        "children": [],
                                                        "depth": 3,
                                                        "name": "transfer",
                                                        "value": 28881
                                                    },
                                                    {
                                                        "children": [],
                                                        "depth": 3,
                                                        "name": "totalSupply",
                                                        "value": 439
                                                    }
                                                ],
                                                "depth": 2,
                                                "name": "change",
                                                "value": 89281
                                            },
                                            {
                                                "children": [
                                                    {
                                                        "children": [],
                                                        "depth": 3,
                                                        "name": "fallback",
                                                        "value": 0
                                                    }
                                                ],
                                                "depth": 2,
                                                "name": "withdrawTo",
                                                "value": 21932
                                            }
                                        ],
                                        "depth": 1,
                                        "name": "convertForPrioritized2",
                                        "value": 293816
                                    }
                                ],
                                "depth": 0,
                                "name": "Executed Gas",
                                "value": 336374
                            }
                        ],
                        "depth": -1,
                        "name": "Actual Gas Used",
                        "value": 280958
                    },
                    {
                        "children": [],
                        "depth": -1,
                        "name": "Refunded Gas",
                        "value": 90000
                    }
                ],
                "depth": -2,
                "name": "Total Gas",
                "value": 370958
            }
        ],
        "isConfirmed": true,
        "mainTrace": [
            {
                "children": [
                    {
                        "children": [
                            {
                                "children": [],
                                "depth": 1,
                                "id": 1,
                                "order": 1
                            },
                            {
                                "children": [
                                    {
                                        "children": [],
                                        "depth": 2,
                                        "id": 3,
                                        "order": 3
                                    }
                                ],
                                "depth": 1,
                                "id": 2,
                                "order": 2
                            },
                            {
                                "children": [
                                    {
                                        "children": [],
                                        "depth": 2,
                                        "id": 5,
                                        "order": 5
                                    },
                                    {
                                        "children": [],
                                        "depth": 2,
                                        "id": 6,
                                        "order": 6
                                    },
                                    {
                                        "children": [],
                                        "depth": 2,
                                        "id": 7,
                                        "order": 7
                                    },
                                    {
                                        "children": [],
                                        "depth": 2,
                                        "id": 8,
                                        "order": 8
                                    },
                                    {
                                        "children": [],
                                        "depth": 2,
                                        "id": 9,
                                        "order": 9
                                    },
                                    {
                                        "children": [],
                                        "depth": 2,
                                        "id": 10,
                                        "order": 10
                                    },
                                    {
                                        "children": [],
                                        "depth": 2,
                                        "id": 11,
                                        "order": 11
                                    },
                                    {
                                        "children": [
                                            {
                                                "children": [],
                                                "depth": 3,
                                                "id": 13,
                                                "order": 13
                                            }
                                        ],
                                        "depth": 2,
                                        "id": 12,
                                        "order": 12
                                    },
                                    {
                                        "children": [
                                            {
                                                "children": [],
                                                "depth": 3,
                                                "id": 15,
                                                "order": 15
                                            },
                                            {
                                                "children": [],
                                                "depth": 3,
                                                "id": 16,
                                                "order": 16
                                            },
                                            {
                                                "children": [],
                                                "depth": 3,
                                                "id": 17,
                                                "order": 17
                                            },
                                            {
                                                "children": [],
                                                "depth": 3,
                                                "id": 18,
                                                "order": 18
                                            },
                                            {
                                                "children": [],
                                                "depth": 3,
                                                "id": 19,
                                                "order": 19
                                            },
                                            {
                                                "children": [],
                                                "depth": 3,
                                                "id": 20,
                                                "order": 20
                                            },
                                            {
                                                "children": [],
                                                "depth": 3,
                                                "id": 21,
                                                "order": 21
                                            },
                                            {
                                                "children": [
                                                    {
                                                        "children": [],
                                                        "depth": 4,
                                                        "id": 23,
                                                        "order": 23
                                                    }
                                                ],
                                                "depth": 3,
                                                "id": 22,
                                                "order": 22
                                            },
                                            {
                                                "children": [
                                                    {
                                                        "children": [],
                                                        "depth": 4,
                                                        "id": 25,
                                                        "order": 25
                                                    }
                                                ],
                                                "depth": 3,
                                                "id": 24,
                                                "order": 24
                                            },
                                            {
                                                "children": [],
                                                "depth": 3,
                                                "id": 26,
                                                "order": 26
                                            },
                                            {
                                                "children": [],
                                                "depth": 3,
                                                "id": 27,
                                                "order": 27
                                            },
                                            {
                                                "children": [],
                                                "depth": 3,
                                                "id": 28,
                                                "order": 28
                                            },
                                            {
                                                "children": [],
                                                "depth": 3,
                                                "id": 29,
                                                "order": 29
                                            },
                                            {
                                                "children": [],
                                                "depth": 3,
                                                "id": 30,
                                                "order": 30
                                            },
                                            {
                                                "children": [],
                                                "depth": 3,
                                                "id": 31,
                                                "order": 31
                                            },
                                            {
                                                "children": [],
                                                "depth": 3,
                                                "id": 32,
                                                "order": 32
                                            }
                                        ],
                                        "depth": 2,
                                        "id": 14,
                                        "order": 14
                                    },
                                    {
                                        "children": [],
                                        "depth": 2,
                                        "id": 33,
                                        "order": 33
                                    },
                                    {
                                        "children": [],
                                        "depth": 2,
                                        "id": 34,
                                        "order": 34
                                    },
                                    {
                                        "children": [],
                                        "depth": 2,
                                        "id": 35,
                                        "order": 35
                                    },
                                    {
                                        "children": [
                                            {
                                                "children": [],
                                                "depth": 3,
                                                "id": 37,
                                                "order": 37
                                            },
                                            {
                                                "children": [],
                                                "depth": 3,
                                                "id": 38,
                                                "order": 38
                                            },
                                            {
                                                "children": [],
                                                "depth": 3,
                                                "id": 39,
                                                "order": 39
                                            },
                                            {
                                                "children": [],
                                                "depth": 3,
                                                "id": 40,
                                                "order": 40
                                            },
                                            {
                                                "children": [],
                                                "depth": 3,
                                                "id": 41,
                                                "order": 41
                                            },
                                            {
                                                "children": [],
                                                "depth": 3,
                                                "id": 42,
                                                "order": 42
                                            },
                                            {
                                                "children": [],
                                                "depth": 3,
                                                "id": 43,
                                                "order": 43
                                            },
                                            {
                                                "children": [
                                                    {
                                                        "children": [],
                                                        "depth": 4,
                                                        "id": 45,
                                                        "order": 45
                                                    },
                                                    {
                                                        "children": [],
                                                        "depth": 4,
                                                        "id": 46,
                                                        "order": 46
                                                    }
                                                ],
                                                "depth": 3,
                                                "id": 44,
                                                "order": 44
                                            },
                                            {
                                                "children": [
                                                    {
                                                        "children": [],
                                                        "depth": 4,
                                                        "id": 48,
                                                        "order": 48
                                                    }
                                                ],
                                                "depth": 3,
                                                "id": 47,
                                                "order": 47
                                            },
                                            {
                                                "children": [],
                                                "depth": 3,
                                                "id": 49,
                                                "order": 49
                                            },
                                            {
                                                "children": [],
                                                "depth": 3,
                                                "id": 50,
                                                "order": 50
                                            },
                                            {
                                                "children": [],
                                                "depth": 3,
                                                "id": 51,
                                                "order": 51
                                            }
                                        ],
                                        "depth": 2,
                                        "id": 36,
                                        "order": 36
                                    },
                                    {
                                        "children": [
                                            {
                                                "children": [],
                                                "depth": 3,
                                                "id": 53,
                                                "order": 53
                                            },
                                            {
                                                "children": [],
                                                "depth": 3,
                                                "id": 54,
                                                "order": 54
                                            },
                                            {
                                                "children": [],
                                                "depth": 3,
                                                "id": 55,
                                                "order": 55
                                            }
                                        ],
                                        "depth": 2,
                                        "id": 52,
                                        "order": 52
                                    }
                                ],
                                "depth": 1,
                                "id": 4,
                                "order": 4
                            }
                        ],
                        "depth": 0,
                        "id": 0,
                        "order": 0
                    }
                ],
                "depth": -1,
                "id": -1,
                "order": -1
            }
        ],
        "mainTraceNodeCount": 56,
        "parentIdMap": {
            "0": -1,
            "1": 0,
            "10": 4,
            "11": 4,
            "12": 4,
            "13": 12,
            "14": 4,
            "15": 14,
            "16": 14,
            "17": 14,
            "18": 14,
            "19": 14,
            "2": 0,
            "20": 14,
            "21": 14,
            "22": 14,
            "23": 22,
            "24": 14,
            "25": 24,
            "26": 14,
            "27": 14,
            "28": 14,
            "29": 14,
            "3": 2,
            "30": 14,
            "31": 14,
            "32": 14,
            "33": 4,
            "34": 4,
            "35": 4,
            "36": 4,
            "37": 36,
            "38": 36,
            "39": 36,
            "4": 0,
            "40": 36,
            "41": 36,
            "42": 36,
            "43": 36,
            "44": 36,
            "45": 44,
            "46": 44,
            "47": 36,
            "48": 47,
            "49": 36,
            "5": 4,
            "50": 36,
            "51": 36,
            "52": 4,
            "53": 52,
            "54": 52,
            "55": 52,
            "6": 4,
            "7": 4,
            "8": 4,
            "9": 4
        },
        "tidyTrace": [
            {
                "children": [
                    {
                        "children": [
                            {
                                "children": [],
                                "depth": 1,
                                "id": 1,
                                "order": 1
                            },
                            {
                                "children": [
                                    {
                                        "children": [],
                                        "depth": 2,
                                        "id": 3,
                                        "order": 3
                                    }
                                ],
                                "depth": 1,
                                "id": 2,
                                "order": 2
                            },
                            {
                                "children": [
                                    {
                                        "children": [],
                                        "depth": 2,
                                        "id": 5,
                                        "order": 5
                                    },
                                    {
                                        "children": [],
                                        "depth": 2,
                                        "id": 6,
                                        "order": 6
                                    },
                                    {
                                        "children": [],
                                        "depth": 2,
                                        "id": 7,
                                        "order": 7
                                    },
                                    {
                                        "children": [],
                                        "depth": 2,
                                        "id": 8,
                                        "order": 8
                                    },
                                    {
                                        "children": [],
                                        "depth": 2,
                                        "id": 9,
                                        "order": 9
                                    },
                                    {
                                        "children": [],
                                        "depth": 2,
                                        "id": 10,
                                        "order": 10
                                    },
                                    {
                                        "children": [],
                                        "depth": 2,
                                        "id": 11,
                                        "order": 11
                                    },
                                    {
                                        "children": [
                                            {
                                                "children": [],
                                                "depth": 3,
                                                "id": 13,
                                                "order": 13
                                            }
                                        ],
                                        "depth": 2,
                                        "id": 12,
                                        "order": 12
                                    },
                                    {
                                        "children": [
                                            {
                                                "children": [],
                                                "depth": 3,
                                                "id": 15,
                                                "order": 15
                                            },
                                            {
                                                "children": [],
                                                "depth": 3,
                                                "id": 16,
                                                "order": 16
                                            },
                                            {
                                                "children": [],
                                                "depth": 3,
                                                "id": 17,
                                                "order": 17
                                            },
                                            {
                                                "children": [],
                                                "depth": 3,
                                                "id": 18,
                                                "order": 18
                                            },
                                            {
                                                "children": [],
                                                "depth": 3,
                                                "id": 19,
                                                "order": 19
                                            },
                                            {
                                                "children": [],
                                                "depth": 3,
                                                "id": 20,
                                                "order": 20
                                            },
                                            {
                                                "children": [],
                                                "depth": 3,
                                                "id": 21,
                                                "order": 21
                                            },
                                            {
                                                "children": [
                                                    {
                                                        "children": [],
                                                        "depth": 4,
                                                        "id": 23,
                                                        "order": 23
                                                    }
                                                ],
                                                "depth": 3,
                                                "id": 22,
                                                "order": 22
                                            },
                                            {
                                                "children": [
                                                    {
                                                        "children": [],
                                                        "depth": 4,
                                                        "id": 25,
                                                        "order": 25
                                                    }
                                                ],
                                                "depth": 3,
                                                "id": 24,
                                                "order": 24
                                            },
                                            {
                                                "children": [],
                                                "depth": 3,
                                                "id": 26,
                                                "order": 26
                                            },
                                            {
                                                "children": [],
                                                "depth": 3,
                                                "id": 27,
                                                "order": 27
                                            },
                                            {
                                                "children": [],
                                                "depth": 3,
                                                "id": 28,
                                                "order": 28
                                            },
                                            {
                                                "children": [],
                                                "depth": 3,
                                                "id": 29,
                                                "order": 29
                                            },
                                            {
                                                "children": [],
                                                "depth": 3,
                                                "id": 30,
                                                "order": 30
                                            },
                                            {
                                                "children": [],
                                                "depth": 3,
                                                "id": 31,
                                                "order": 31
                                            },
                                            {
                                                "children": [],
                                                "depth": 3,
                                                "id": 32,
                                                "order": 32
                                            }
                                        ],
                                        "depth": 2,
                                        "id": 14,
                                        "order": 14
                                    },
                                    {
                                        "children": [],
                                        "depth": 2,
                                        "id": 33,
                                        "order": 33
                                    },
                                    {
                                        "children": [],
                                        "depth": 2,
                                        "id": 34,
                                        "order": 34
                                    },
                                    {
                                        "children": [],
                                        "depth": 2,
                                        "id": 35,
                                        "order": 35
                                    },
                                    {
                                        "children": [
                                            {
                                                "children": [],
                                                "depth": 3,
                                                "id": 37,
                                                "order": 37
                                            },
                                            {
                                                "children": [],
                                                "depth": 3,
                                                "id": 38,
                                                "order": 38
                                            },
                                            {
                                                "children": [],
                                                "depth": 3,
                                                "id": 39,
                                                "order": 39
                                            },
                                            {
                                                "children": [],
                                                "depth": 3,
                                                "id": 40,
                                                "order": 40
                                            },
                                            {
                                                "children": [],
                                                "depth": 3,
                                                "id": 41,
                                                "order": 41
                                            },
                                            {
                                                "children": [],
                                                "depth": 3,
                                                "id": 42,
                                                "order": 42
                                            },
                                            {
                                                "children": [],
                                                "depth": 3,
                                                "id": 43,
                                                "order": 43
                                            },
                                            {
                                                "children": [
                                                    {
                                                        "children": [],
                                                        "depth": 4,
                                                        "id": 45,
                                                        "order": 45
                                                    },
                                                    {
                                                        "children": [],
                                                        "depth": 4,
                                                        "id": 46,
                                                        "order": 46
                                                    }
                                                ],
                                                "depth": 3,
                                                "id": 44,
                                                "order": 44
                                            },
                                            {
                                                "children": [
                                                    {
                                                        "children": [],
                                                        "depth": 4,
                                                        "id": 48,
                                                        "order": 48
                                                    }
                                                ],
                                                "depth": 3,
                                                "id": 47,
                                                "order": 47
                                            },
                                            {
                                                "children": [],
                                                "depth": 3,
                                                "id": 49,
                                                "order": 49
                                            },
                                            {
                                                "children": [],
                                                "depth": 3,
                                                "id": 50,
                                                "order": 50
                                            },
                                            {
                                                "children": [],
                                                "depth": 3,
                                                "id": 51,
                                                "order": 51
                                            }
                                        ],
                                        "depth": 2,
                                        "id": 36,
                                        "order": 36
                                    },
                                    {
                                        "children": [
                                            {
                                                "children": [],
                                                "depth": 3,
                                                "id": 53,
                                                "order": 53
                                            },
                                            {
                                                "children": [],
                                                "depth": 3,
                                                "id": 54,
                                                "order": 54
                                            },
                                            {
                                                "children": [],
                                                "depth": 3,
                                                "id": 55,
                                                "order": 55
                                            }
                                        ],
                                        "depth": 2,
                                        "id": 52,
                                        "order": 52
                                    }
                                ],
                                "depth": 1,
                                "id": 4,
                                "order": 4
                            }
                        ],
                        "depth": 0,
                        "id": 0,
                        "order": 0
                    }
                ],
                "depth": -1,
                "id": -1,
                "order": -1
            }
        ],
        "tidyTraceNodeCount": 56
    },
    "state_change": {
        "stateChanges": [
            {
                "address": "0x1f573d6fb3f13d689ff844b4ce37794d79a7ff1c",
                "erc": "ERC-20",
                "slots": [
                    {
                        "current": "0x00000000000000000000000000000000000000000000004e3bc1f31c75c863ec",
                        "key": "0xb2ba18621a39012b6bb2260c78c0141a07de855f2785607de36d07d604b033c6",
                        "prev": "0x00000000000000000000000000000000000000000000005a3fe76ba21dc0a393"
                    },
                    {
                        "current": "0x0000000000000000000000000000000000000000003d3936ac496bf1fa9bd340",
                        "key": "0x0000000000000000000000000000000000000000000000000000000000000004",
                        "prev": "0x0000000000000000000000000000000000000000003d3942b06ee477a29412e7"
                    }
                ],
                "storageVariables": []
            },
            {
                "address": "0x2daee1aa61d60a252dc80564499a69802853583a",
                "erc": "ERC-20",
                "slots": [
                    {
                        "current": "0x00000000000000000000000000000000000000000000000000000003133ff93e",
                        "key": "0x0736bc74a75820324280575aacff0a72225f48fea3ca144bfecc1cbfc488f611",
                        "prev": "0x00000000000000000000000000000000000000000000000000000002aa38eb4e"
                    },
                    {
                        "current": "0x0000000000000000000000000000000000000000000000000000000000000000",
                        "key": "0x29909f57f1f3ad9026167f11b0a5aedebafc637ff693d522e6d23d3b31385acb",
                        "prev": "0x0000000000000000000000000000000000000000000000000000000069070df0"
                    },
                    {
                        "current": "0x0000000000000000000000000000000000000000000000000000000000000000",
                        "key": "0x870fbdd487066c8753c4e58377459ba0d4ddefefe6ef22dbc3882ec09299c627",
                        "prev": "0x0000000000000000000000000000000000000000000000000000000069070df0"
                    }
                ],
                "storageVariables": []
            },
            {
                "address": "0x6690819cb98c1211a8e38790d6cd48316ed518db",
                "erc": "",
                "slots": [
                    {
                        "current": "0x0000000000000000000000000000000000000000000000000000000000000001",
                        "key": "0x1605d7fe980f0cae4127ba7a7c2c21e89293f14a3a71ddd393e48de0ec451f78",
                        "prev": "0x0000000000000000000000000000000000000000000000000000000000000000"
                    }
                ],
                "storageVariables": [
                    {
                        "name": "conversionHashes",
                        "type": "mapping(bytes32 => bool)",
                        "value": {
                            "pairs": [
                                {
                                    "key": "0xafe38d83474d8534f47017a81c1751ed48388f43e2e42f1708d3e20cfa822131",
                                    "value": {
                                        "current": "true",
                                        "prev": "false",
                                        "typeTag": 1
                                    }
                                }
                            ],
                            "typeTag": 4
                        }
                    }
                ]
            },
            {
                "address": "0xc0829421c1d260bd3cb3e0f06cfe2d52db2ce315",
                "erc": "ERC-20",
                "slots": [
                    {
                        "current": "0x000000000000000000000000000000000000000000000195baf3955642934832",
                        "key": "0x0000000000000000000000000000000000000000000000000000000000000006",
                        "prev": "0x000000000000000000000000000000000000000000000195c6f1b94dbe60eafe"
                    },
                    {
                        "current": "0x00000000000000000000000000000000000000000000019189ea0eef9a6dadbc",
                        "key": "0x4fabf48b5e198dfdfe0e923ed267f2424cba4774d846f2f0517d43cc270f2a1c",
                        "prev": "0x00000000000000000000000000000000000000000000019195e832e7163b5088"
                    }
                ],
                "storageVariables": [
                    {
                        "name": "totalSupply",
                        "type": "uint256",
                        "value": {
                            "current": "7484402624960480364594",
                            "prev": "7485266792684823046910",
                            "typeTag": 1
                        }
                    },
                    {
                        "name": "balanceOf",
                        "type": "mapping(address => uint256)",
                        "value": {
                            "pairs": [
                                {
                                    "key": "0xcbc6a023eb975a1e2630223a7959988948e664f3",
                                    "value": {
                                        "current": "7407082145507527470524",
                                        "prev": "7407946313231870152840",
                                        "typeTag": 1
                                    }
                                }
                            ],
                            "typeTag": 4
                        }
                    }
                ]
            },
            {
                "address": "0xcbc6a023eb975a1e2630223a7959988948e664f3",
                "erc": "",
                "slots": [
                    {
                        "current": "0x00000000000000000000000000000000000000000000061c3d7ff91fc570dfa0",
                        "key": "0xd9020607a90cb4aa719b9936b936498bb3cea74c64b4ead47332f8d76e185300",
                        "prev": "0x00000000000000000000000000000000000000000000061c497e1d17413e826c"
                    }
                ],
                "storageVariables": [
                    {
                        "name": "connectors",
                        "type": "mapping(address => struct BancorConverter.Connector)",
                        "value": {
                            "pairs": [
                                {
                                    "key": "0xc0829421c1d260bd3cb3e0f06cfe2d52db2ce315",
                                    "value": {
                                        "fields": [
                                            {
                                                "name": "virtualBalance",
                                                "type": "uint256",
                                                "value": {
                                                    "current": "28855139265754946396064",
                                                    "prev": "28856003433479289078380",
                                                    "typeTag": 1
                                                }
                                            }
                                        ],
                                        "typeTag": 3
                                    }
                                }
                            ],
                            "typeTag": 4
                        }
                    }
                ]
            }
        ]
    }
}