{
    "balance_change": {
        "balanceChanges": [
            {
                "account": "0x7532a7dd84e061be8d0a853a6eed621619d34aa6",
                "assets": [
                    {
                        "address": "0xdac17f958d2ee523a2206206994597c13d831ec7",
                        "amount": "80",
                        "iconUrl": "https://assets.blocksec.com/icon/fcea71f3193ce895be44bfdf941f7e4c9381dd587f273c2d1a27f1263d84e4ea.png",
                        "isERC1155": false,
                        "isERC721": false,
                        "sign": false,
                        "value": "80.0036552"
                    },
                    {
                        "address": "0x91e2bdbfbd03be4db28944e4a45e3eeb636f781c",
                        "amount": "1",
                        "iconUrl": "",
                        "isERC1155": false,
                        "isERC721": true,
                        "sign": true,
                        "tokenID": "1901650",
                        "value": ""
                    }
                ]
            },
            {
                "account": "0x0000000000000000000000000000000000000000",
                "assets": [
                    {
                        "address": "0x91e2bdbfbd03be4db28944e4a45e3eeb636f781c",
                        "amount": "1",
                        "iconUrl": "",
                        "isERC1155": false,
                        "isERC721": true,
                        "sign": false,
                        "tokenID": "1901650",
                        "value": ""
                    }
                ]
            },
            {
                "account": "0x2ba04bca9c2ff9af75c1d75e4338c91980eb3c88",
                "assets": [
                    {
                        "address": "0xdac17f958d2ee523a2206206994597c13d831ec7",
                        "amount": "80",
                        "iconUrl": "https://assets.blocksec.com/icon/fcea71f3193ce895be44bfdf941f7e4c9381dd587f273c2d1a27f1263d84e4ea.png",
                        "isERC1155": false,
                        "isERC721": false,
                        "sign": true,
                        "value": "80.0036552"
                    }
                ]
            }
        ]
    },
    "profile": {
        "basic_info": {
            "baseFee": "17.240395764",
            "blockNumber": 15541191,
            "callData": "0x0fdb3ec300000000000000000000000000000000000000000000000000000000000000e00000000000000000000000000000000000000000000000000000000000000000000000000000000000000000000000000000000000000000000000000000016000000000000000000000000000000000000000000000000000000000000001a000000000000000000000000000000000000000000000000000000000000000020000000000000000000000000000000000000000000000000000000004c4b4000000000000000000000000000000000000000000000000000000000000000000000000000000000000000000000000000000000000000000000000000000004131c657ed031b2557865c63b984d4e263afef5cc3224a3b7fe7f8c5cc1fea896619eb3a74492626368d3e06ca3dfb29b437a68985de5d757e3ae92f40322366c91c00000000000000000000000000000000000000000000000000000000000000000000000000000000000000000000000000000000000000000000000000000100000000000000000000000000000000000000000000000000000000001d0452000000000000000000000000000000000000000000000000000000000000000100000000000000000000000000000000000000000000000000000000000000010000000000000000000000000000000000000000000000000000000000000001",
            "debugEnable": true,
            "errorInfo": "",
            "eventCount": 3,
            "feeRecipient": "0xb64a30399f7f6b0c154c2e7af0a3ec7b0a5b131a",
            "formatValue": "0",
            "gasLimit": 177832,
            "gasPrice": "19.740395764",
            "gasUsed": 112433,
            "intTxnCount": 3,
            "internalRevert": false,
            "internalRevertMessage": "",
            "isContractCreation": false,
            "isFlashloan": false,
            "maxFee": "45.112588846",
            "nonce": 32,
            "overwritedBlockNumber": -1,
            "priorityFee": "2.5",
            "receiver": "0x91e2bdbfbd03be4db28944e4a45e3eeb636f781c",
            "revertMessage": "",
            "sender": "0x7532a7dd84e061be8d0a853a6eed621619d34aa6",
            "simulationEnable": true,
            "sourceTxnHash": "0x2352719c94c6d7bfeaeaef790c5fa3a5e0b80bc49dd0dbc2e1d5d9395203803d",
            "status": true,
            "timestamp": "2022-09-15T19:32:59Z",
            "transactionFee": "0.002219471916933812",
            "txnHash": "0x2352719c94c6d7bfeaeaef790c5fa3a5e0b80bc49dd0dbc2e1d5d9395203803d",
            "txnIndex": 75,
            "type": 2,
            "value": "0"
        },
        "fund_flow": [
            {
                "amount": "80",
                "from": "0x7532a7dd84e061be8d0a853a6eed621619d34aa6",
                "id": 1,
                "isERC1155": false,
                "isERC721": false,
                "isReverted": false,
                "order": 1,
                "to": "0x2ba04bca9c2ff9af75c1d75e4338c91980eb3c88",
                "token": "0xdac17f958d2ee523a2206206994597c13d831ec7"
            },
            {
                "amount": "1",
                "from": "0x0000000000000000000000000000000000000000",
                "id": 2,
                "isERC1155": false,
                "isERC721": true,
                "isReverted": false,
                "order": 2,
                "to": "0x7532a7dd84e061be8d0a853a6eed621619d34aa6",
                "token": "0x91e2bdbfbd03be4db28944e4a45e3eeb636f781c",
                "tokenID": "1901650"
            }
        ],
        "token_infos": [
            {
                "address": "0xc02aaa39b223fe8d0a0e5c4f27ead9083c756cc2",
                "decimals": 18
            },
            {
                "address": "0xdac17f958d2ee523a2206206994597c13d831ec7",
                "decimals": 6
            },
            {
                "address": "0xeeeeeeeeeeeeeeeeeeeeeeeeeeeeeeeeeeeeeeee",
                "decimals": 18
            }
        ]
    },
    "address_label": {
        "labels": [
            {
                "address": "0x91e2bdbfbd03be4db28944e4a45e3eeb636f781c",
                "label": "TransparentUpgradeableProxy_91e2_781c"
            },
            {
                "address": "0x3eb9d4f9848b759d2ab5947ce84cda3fa75f3cca",
                "label": "NemoLand"
            },
            {
                "address": "0x0000000000000000000000000000000000000001",
                "label": "Precompiled"
            },
            {
                "address": "0x0000000000000000000000000000000000000002",
                "label": "Precompiled"
            },
            {
                "address": "0x0000000000000000000000000000000000000003",
                "label": "Precompiled"
            },
            {
                "address": "0x0000000000000000000000000000000000000004",
                "label": "Precompiled"
            },
            {
                "address": "0xeeeeeeeeeeeeeeeeeeeeeeeeeeeeeeeeeeeeeeee",
                "label": "Ether"
            },
            {
                "address": "0xdac17f958d2ee523a2206206994597c13d831ec7",
                "label": "Tether: USDT Stablecoin"
            }
        ]
    },
    "trace": {
        "accountLabels": null,
        "dataMap": {
            "-1": {
                "invocation": {
                    "address": "0x7532a7dd84e061be8d0a853a6eed621619d34aa6",
                    "callData": "",
                    "decodedMethod": null,
                    "errorInfo": "",
                    "fromAddress": "",
                    "gasUsed": 0,
                    "id": -1,
                    "methodDecoded": false,
                    "operation": "",
                    "output": "",
                    "revert": false,
                    "revertMessage": "",
                    "selector": "",
                    "status": false,
                    "value": ""
                },
                "nodeType": 0
            },
            "0": {
                "invocation": {
                    "address": "0x91e2bdbfbd03be4db28944e4a45e3eeb636f781c",
                    "callData": "0x00000000000000000000000000000000000000000000000000000000000000e00000000000000000000000000000000000000000000000000000000000000000000000000000000000000000000000000000000000000000000000000000016000000000000000000000000000000000000000000000000000000000000001a000000000000000000000000000000000000000000000000000000000000000020000000000000000000000000000000000000000000000000000000004c4b4000000000000000000000000000000000000000000000000000000000000000000000000000000000000000000000000000000000000000000000000000000004131c657ed031b2557865c63b984d4e263afef5cc3224a3b7fe7f8c5cc1fea896619eb3a74492626368d3e06ca3dfb29b437a68985de5d757e3ae92f40322366c91c00000000000000000000000000000000000000000000000000000000000000000000000000000000000000000000000000000000000000000000000000000100000000000000000000000000000000000000000000000000000000001d0452000000000000000000000000000000000000000000000000000000000000000100000000000000000000000000000000000000000000000000000000000000010000000000000000000000000000000000000000000000000000000000000001",
                    "decodedMethod": {
                        "callParams": [
                            {
                                "name": "_signature",
                                "type": "bytes",
                                "value": "0x31c657ed031b2557865c63b984d4e263afef5cc3224a3b7fe7f8c5cc1fea896619eb3a74492626368d3e06ca3dfb29b437a68985de5d757e3ae92f40322366c91c"
                            },
                            {
                                "name": "state",
                                "type": "uint256",
                                "value": "0"
                            },
                            {
                                "name": "lands",
                                "type": "uint256[]",
                                "value": [
                                    "1,901,650"
                                ]
                            },
                            {
                                "name": "_zoneId",
                                "type": "uint256[2][]",
                                "value": [
                                    [
                                        "1",
                                        "1"
                                    ]
                                ]
                            },
                            {
                                "name": "currencyType",
                                "type": "uint256",
                                "value": "2"
                            },
                            {
                                "name": "_amount",
                                "type": "uint256",
                                "value": "80,000,000"
                            },
                            {
                                "name": "referral",
                                "type": "uint256",
                                "value": "0"
                            }
                        ],
                        "constructorArguments": "",
                        "name": "mintLand",
                        "returnParams": [],
                        "signature": "mintLand(bytes,uint256,uint256[],uint256[2][],uint256,uint256,uint256)"
                    },
                    "errorInfo": "",
                    "fromAddress": "0x7532a7dd84e061be8d0a853a6eed621619d34aa6",
                    "gasUsed": 112433,
                    "id": 0,
                    "methodDecoded": true,
                    "operation": "CALL",
                    "output": "",
                    "revert": false,
                    "revertMessage": "",
                    "selector": "0x0fdb3ec3",
                    "status": true,
                    "value": "0"
                },
                "nodeType": 0
            },
            "1": {
                "invocation": {
                    "address": "0x3eb9d4f9848b759d2ab5947ce84cda3fa75f3cca",
                    "callData": "0x00000000000000000000000000000000000000000000000000000000000000e00000000000000000000000000000000000000000000000000000000000000000000000000000000000000000000000000000000000000000000000000000016000000000000000000000000000000000000000000000000000000000000001a000000000000000000000000000000000000000000000000000000000000000020000000000000000000000000000000000000000000000000000000004c4b4000000000000000000000000000000000000000000000000000000000000000000000000000000000000000000000000000000000000000000000000000000004131c657ed031b2557865c63b984d4e263afef5cc3224a3b7fe7f8c5cc1fea896619eb3a74492626368d3e06ca3dfb29b437a68985de5d757e3ae92f40322366c91c00000000000000000000000000000000000000000000000000000000000000000000000000000000000000000000000000000000000000000000000000000100000000000000000000000000000000000000000000000000000000001d0452000000000000000000000000000000000000000000000000000000000000000100000000000000000000000000000000000000000000000000000000000000010000000000000000000000000000000000000000000000000000000000000001",
                    "decodedMethod": {
                        "callParams": [
                            {
                                "name": "_signature",
                                "type": "bytes",
                                "value": "0x31c657ed031b2557865c63b984d4e263afef5cc3224a3b7fe7f8c5cc1fea896619eb3a74492626368d3e06ca3dfb29b437a68985de5d757e3ae92f40322366c91c"
                            },
                            {
                                "name": "state",
                                "type": "uint256",
                                "value": "0"
                            },
                            {
                                "name": "lands",
                                "type": "uint256[]",
                                "value": [
                                    "1,901,650"
                                ]
                            },
                            {
                                "name": "_zoneId",
                                "type": "uint256[2][]",
                                "value": [
                                    [
                                        "1",
                                        "1"
                                    ]
                                ]
                            },
                            {
                                "name": "currencyType",
                                "type": "uint256",
                                "value": "2"
                            },
                            {
                                "name": "_amount",
                                "type": "uint256",
                                "value": "80,000,000"
                            },
                            {
                                "name": "referral",
                                "type": "uint256",
                                "value": "0"
                            }
                        ],
                        "constructorArguments": "",
                        "name": "mintLand",
                        "returnParams": [],
                        "signature": "mintLand(bytes,uint256,uint256[],uint256[2][],uint256,uint256,uint256)"
                    },
                    "errorInfo": "",
                    "fromAddress": "0x91e2bdbfbd03be4db28944e4a45e3eeb636f781c",
                    "gasUsed": 85722,
                    "id": 1,
                    "methodDecoded": true,
                    "operation": "DELEGATECALL",
                    "output": "",
                    "revert": false,
                    "revertMessage": "",
                    "selector": "0x0fdb3ec3",
                    "status": true,
                    "value": "0"
                },
                "nodeType": 0
            },
            "2": {
                "invocation": {
                    "address": "0x0000000000000000000000000000000000000001",
                    "callData": "0xd63bbc0403abb8f4cacb31597ebe5f08d60bee4af47384335e3fb2a6000000000000000000000000000000000000000000000000000000000000001c31c657ed031b2557865c63b984d4e263afef5cc3224a3b7fe7f8c5cc1fea896619eb3a74492626368d3e06ca3dfb29b437a68985de5d757e3ae92f40322366c9",
                    "decodedMethod": {
                        "callParams": [
                            {
                                "name": "hash",
                                "type": "bytes32",
                                "value": "0x18933984d63bbc0403abb8f4cacb31597ebe5f08d60bee4af47384335e3fb2a6"
                            },
                            {
                                "name": "v",
                                "type": "uint256",
                                "value": "28"
                            },
                            {
                                "name": "r",
                                "type": "bytes32",
                                "value": "0x31c657ed031b2557865c63b984d4e263afef5cc3224a3b7fe7f8c5cc1fea8966"
                            },
                            {
                                "name": "s",
                                "type": "bytes32",
                                "value": "0x19eb3a74492626368d3e06ca3dfb29b437a68985de5d757e3ae92f40322366c9"
                            }
                        ],
                        "constructorArguments": "",
                        "name": "ecrecover",
                        "returnParams": [
                            {
                                "name": "",
                                "type": "address",
                                "value": "0x35db783ec42609842c62fe1667dbe15628ae8a6f"
                            }
                        ],
                        "signature": "ecrecover(bytes32,uint256,bytes32,bytes32)"
                    },
                    "errorInfo": "",
                    "fromAddress": "0x91e2bdbfbd03be4db28944e4a45e3eeb636f781c",
                    "gasUsed": 3000,
                    "id": 2,
                    "methodDecoded": true,
                    "operation": "STATICCALL",
                    "output": "0x00000000000000000000000035db783ec42609842c62fe1667dbe15628ae8a6f",
                    "revert": false,
                    "revertMessage": "",
                    "selector": "0x18933984",
                    "status": true,
                    "value": "0"
                },
                "nodeType": 0
            },
            "3": {
                "invocation": {
                    "address": "0xdac17f958d2ee523a2206206994597c13d831ec7",
                    "callData": "0x0000000000000000000000007532a7dd84e061be8d0a853a6eed621619d34aa60000000000000000000000002ba04bca9c2ff9af75c1d75e4338c91980eb3c880000000000000000000000000000000000000000000000000000000004c4b400",
                    "decodedMethod": {
                        "callParams": [
                            {
                                "name": "_from",
                                "type": "address",
                                "value": "0x7532a7dd84e061be8d0a853a6eed621619d34aa6"
                            },
                            {
                                "name": "_to",
                                "type": "address",
                                "value": "0x2ba04bca9c2ff9af75c1d75e4338c91980eb3c88"
                            },
                            {
                                "decimalAvailable": true,
                                "name": "_value",
                                "type": "uint256",
                                "value": "80,000,000"
                            }
                        ],
                        "constructorArguments": "",
                        "name": "transferFrom",
                        "returnParams": [],
                        "signature": "transferFrom(address,address,uint256)"
                    },
                    "errorInfo": "",
                    "fromAddress": "0x91e2bdbfbd03be4db28944e4a45e3eeb636f781c",
                    "gasUsed": 29724,
                    "id": 3,
                    "methodDecoded": true,
                    "operation": "CALL",
                    "output": "",
                    "revert": false,
                    "revertMessage": "",
                    "selector": "0x23b872dd",
                    "status": true,
                    "value": "0"
                },
                "nodeType": 0
            },
            "4": {
                "event": {
                    "contract": "0xdac17f958d2ee523a2206206994597c13d831ec7",
                    "decodedLog": {
                        "name": "Transfer",
                        "params": [
                            {
                                "name": "from",
                                "type": "address",
                                "value": "0x7532a7dd84e061be8d0a853a6eed621619d34aa6"
                            },
                            {
                                "name": "to",
                                "type": "address",
                                "value": "0x2ba04bca9c2ff9af75c1d75e4338c91980eb3c88"
                            },
                            {
                                "decimalAvailable": true,
                                "name": "value",
                                "type": "uint256",
                                "value": "80,000,000"
                            }
                        ],
                        "signature": "Transfer(address,address,uint256)"
                    },
                    "id": 4,
                    "logData": "0x0000000000000000000000000000000000000000000000000000000004c4b400",
                    "logDecoded": true,
                    "operation": "EVENT",
                    "revert": false,
                    "status": true,
                    "topics": [
                        "0xddf252ad1be2c89b69c2b068fc378daa952ba7f163c4a11628f55a4df523b3ef",
                        "0x0000000000000000000000007532a7dd84e061be8d0a853a6eed621619d34aa6",
                        "0x0000000000000000000000002ba04bca9c2ff9af75c1d75e4338c91980eb3c88"
                    ]
                },
                "nodeType": 1
            },
            "5": {
                "event": {
                    "contract": "0x91e2bdbfbd03be4db28944e4a45e3eeb636f781c",
                    "decodedLog": {
                        "name": "Transfer",
                        "params": [
                            {
                                "name": "from",
                                "type": "address",
                                "value": "0x0000000000000000000000000000000000000000"
                            },
                            {
                                "name": "to",
                                "type": "address",
                                "value": "0x7532a7dd84e061be8d0a853a6eed621619d34aa6"
                            },
                            {
                                "decimalAvailable": true,
                                "name": "tokenId",
                                "type": "uint256",
                                "value": "1,901,650"
                            }
                        ],
                        "signature": "Transfer(address,address,uint256)"
                    },
                    "id": 5,
                    "logData": "0x",
                    "logDecoded": true,
                    "operation": "EVENT",
                    "revert": false,
                    "status": true,
                    "topics": [
                        "0xddf252ad1be2c89b69c2b068fc378daa952ba7f163c4a11628f55a4df523b3ef",
                        "0x0000000000000000000000000000000000000000000000000000000000000000",
                        "0x0000000000000000000000007532a7dd84e061be8d0a853a6eed621619d34aa6",
                        "0x00000000000000000000000000000000000000000000000000000000001d0452"
                    ]
                },
                "nodeType": 1
            },
            "6": {
                "event": {
                    "contract": "0x91e2bdbfbd03be4db28944e4a45e3eeb636f781c",
                    "decodedLog": {
                        "name": "LandMint",
                        "params": [
                            {
                                "name": "state",
                                "type": "uint256",
                                "value": "0"
                            },
                            {
                                "name": "land",
                                "type": "uint256",
                                "value": "1,901,650"
                            },
                            {
                                "name": "referral",
                                "type": "uint256",
                                "value": "0"
                            },
                            {
                                "name": "currencyType",
                                "type": "uint256",
                                "value": "2"
                            }
                        ],
                        "signature": "LandMint(uint256,uint256,uint256,uint256)"
                    },
                    "id": 6,
                    "logData": "0x0000000000000000000000000000000000000000000000000000000000000002",
                    "logDecoded": true,
                    "operation": "EVENT",
                    "revert": false,
                    "status": true,
                    "topics": [
                        "0xf8bab0e28af5e14c2723b88a039fe9842952c4ea3586b76948266973351b95c5",
                        "0x0000000000000000000000000000000000000000000000000000000000000000",
                        "0x00000000000000000000000000000000000000000000000000000000001d0452",
                        "0x0000000000000000000000000000000000000000000000000000000000000000"
                    ]
                },
                "nodeType": 1
            }
        },
        "gasFlame": [
            {
                "children": [
                    {
                        "children": [
                            {
                                "children": [],
                                "depth": 0,
                                "name": "Initial Gas",
                                "value": 24096
                            },
                            {
                                "children": [
                                    {
                                        "children": [
                                            {
                                                "children": [],
                                                "depth": 2,
                                                "name": "ecrecover",
                                                "value": 3000
                                            },
                                            {
                                                "children": [],
                                                "depth": 2,
                                                "name": "transferFrom",
                                                "value": 29724
                                            }
                                        ],
                                        "depth": 1,
                                        "name": "mintLand",
                                        "value": 85722
                                    }
                                ],
                                "depth": 0,
                                "name": "Executed Gas",
                                "value": 93137
                            }
                        ],
                        "depth": -1,
                        "name": "Actual Gas Used",
                        "value": 112433
                    },
                    {
                        "children": [],
                        "depth": -1,
                        "name": "Refunded Gas",
                        "value": 4800
                    }
                ],
                "depth": -2,
                "name": "Total Gas",
                "value": 117233
            }
        ],
        "isConfirmed": true,
        "mainTrace": [
            {
                "children": [
                    {
                        "children": [
                            {
                                "children": [
                                    {
                                        "children": [],
                                        "depth": 2,
                                        "id": 2,
                                        "order": 2
                                    },
                                    {
                                        "children": [
                                            {
                                                "children": [],
                                                "depth": 3,
                                                "id": 4,
                                                "order": 4
                                            }
                                        ],
                                        "depth": 2,
                                        "id": 3,
                                        "order": 3
                                    },
                                    {
                                        "children": [],
                                        "depth": 2,
                                        "id": 5,
                                        "order": 5
                                    },
                                    {
                                        "children": [],
                                        "depth": 2,
                                        "id": 6,
                                        "order": 6
                                    }
                                ],
                                "depth": 1,
                                "id": 1,
                                "order": 1
                            }
                        ],
                        "depth": 0,
                        "id": 0,
                        "order": 0
                    }
                ],
                "depth": -1,
                "id": -1,
                "order": -1
            }
        ],
        "mainTraceNodeCount": 7,
        "parentIdMap": {
            "0": -1,
            "1": 0,
            "2": 1,
            "3": 1,
            "4": 3,
            "5": 1,
            "6": 1
        },
        "tidyTrace": [
            {
                "children": [
                    {
                        "children": [
                            {
                                "children": [
                                    {
                                        "children": [
                                            {
                                                "children": [],
                                                "depth": 3,
                                                "id": 4,
                                                "order": 4
                                            }
                                        ],
                                        "depth": 2,
                                        "id": 3,
                                        "order": 3
                                    },
                                    {
                                        "children": [],
                                        "depth": 2,
                                        "id": 5,
                                        "order": 5
                                    },
                                    {
                                        "children": [],
                                        "depth": 2,
                                        "id": 6,
                                        "order": 6
                                    }
                                ],
                                "depth": 1,
                                "id": 1,
                                "order": 1
                            }
                        ],
                        "depth": 0,
                        "id": 0,
                        "order": 0
                    }
                ],
                "depth": -1,
                "id": -1,
                "order": -1
            }
        ],
        "tidyTraceNodeCount": 6
    },
    "state_change": {
        "stateChanges": [
            {
                "address": "0x91e2bdbfbd03be4db28944e4a45e3eeb636f781c",
                "erc": "ERC-721",
                "slots": [
                    {
                        "current": "0x000000000000000000000000000000000000000000000000000000000000000e",
                        "key": "0x6801cb7d88296a9c0a5330979fdde6183e173fa29726a3966243e65a83feb180",
                        "prev": "0x000000000000000000000000000000000000000000000000000000000000000d"
                    },
                    {
                        "current": "0x0000000000000000000000007532a7dd84e061be8d0a853a6eed621619d34aa6",
                        "key": "0xd94da382b2117568bb516a3f2890b534d1e5832e292cf63d6476b15b85e84b7b",
                        "prev": "0x0000000000000000000000000000000000000000000000000000000000000000"
                    }
                ],
                "storageVariables": [
                    {
                        "name": "_balances",
                        "type": "mapping(address => uint256)",
                        "value": {
                            "pairs": [
                                {
                                    "key": "0x7532a7dd84e061be8d0a853a6eed621619d34aa6",
                                    "value": {
                                        "current": "14",
                                        "prev": "13",
                                        "typeTag": 1
                                    }
                                }
                            ],
                            "typeTag": 4
                        }
                    },
                    {
                        "name": "_owners",
                        "type": "mapping(uint256 => address)",
                        "value": {
                            "pairs": [
                                {
                                    "key": "1901650",
                                    "value": {
                                        "current": "0x7532a7dd84e061be8d0a853a6eed621619d34aa6",
                                        "prev": "0x0000000000000000000000000000000000000000",
                                        "typeTag": 1
                                    }
                                }
                            ],
                            "typeTag": 4
                        }
                    }
                ]
            },
            {
                "address": "0xdac17f958d2ee523a2206206994597c13d831ec7",
                "erc": "ERC-20",
                "slots": [
                    {
                        "current": "0x0000000000000000000000000000000000000000000000000000000036e55840",
                        "key": "0x13ad47145ca9b1ff26a8f5f9a9f8dd0c8480102449e00e19c24c6c0d3e670fa7",
                        "prev": "0x000000000000000000000000000000000000000000000000000000003baa0c40"
                    },
                    {
                        "current": "0x0000000000000000000000000000000000000000000000000000000703054c90",
                        "key": "0xc1b3b872769b82ec0686ea2cef958a080f9ceafcc1829135319b55ac18f41aad",
                        "prev": "0x00000000000000000000000000000000000000000000000000000006fe409890"
                    },
                    {
                        "current": "0x0000000000000000000000000000000000000000000000000000000000000000",
                        "key": "0xff33861cb6a126741eb42bbc8d1e2a096b5ddd80cb931d781fbae101362a103b",
                        "prev": "0x0000000000000000000000000000000000000000000000000000000004c4b400"
                    }
                ],
                "storageVariables": [
                    {
                        "name": "balances",
                        "type": "mapping(address => uint256)",
                        "value": {
                            "pairs": [
                                {
                                    "key": "0x2ba04bca9c2ff9af75c1d75e4338c91980eb3c88",
                                    "value": {
                                        "current": "30115450000",
                                        "prev": "30035450000",
                                        "typeTag": 1
                                    }
                                },
                                {
                                    "key": "0x7532a7dd84e061be8d0a853a6eed621619d34aa6",
                                    "value": {
                                        "current": "921000000",
                                        "prev": "1001000000",
                                        "typeTag": 1
                                    }
                                }
                            ],
                            "typeTag": 4
                        }
                    },
                    {
                        "name": "allowed",
                        "type": "mapping(address => mapping(address => uint256))",
                        "value": {
                            "pairs": [
                                {
                                    "key": "0x7532a7dd84e061be8d0a853a6eed621619d34aa6",
                                    "value": {
                                        "pairs": [
                                            {
                                                "key": "0x91e2bdbfbd03be4db28944e4a45e3eeb636f781c",
                                                "value": {
                                                    "current": "0",
                                                    "prev": "80000000",
                                                    "typeTag": 1
                                                }
                                            }
                                        ],
                                        "typeTag": 4
                                    }
                                }
                            ],
                            "typeTag": 4
                        }
                    }
                ]
            }
        ]
    }
}