{
    "balance_change": {
        "balanceChanges": [
            {
                "account": "0x00d6f689297e0aba9396985b8d324dd723212022",
                "assets": [
                    {
                        "address": "0x24a77c1f17c547105e14813e517be06b0040aa76",
                        "amount": "306.69",
                        "iconUrl": "",
                        "isERC1155": false,
                        "isERC721": false,
                        "sign": false,
                        "value": ""
                    }
                ]
            },
            {
                "account": "0xc3ce837823dbc543303c88eac388ab9b345d3728",
                "assets": [
                    {
                        "address": "0x24a77c1f17c547105e14813e517be06b0040aa76",
                        "amount": "306.69",
                        "iconUrl": "",
                        "isERC1155": false,
                        "isERC721": false,
                        "sign": true,
                        "value": ""
                    }
                ]
            }
        ]
    },
    "profile": {
        "basic_info": {
            "baseFee": "",
            "blockNumber": 4426759,
            "callData": "0xa9059cbb000000000000000000000000c3ce837823dbc543303c88eac388ab9b345d3728000000000000000000000000000000000000000000000010a02dc216348d0000",
            "debugEnable": true,
            "errorInfo": "",
            "eventCount": 1,
            "feeRecipient": "0xea674fdde714fd979de3edf0f56aa9716b898ec8",
            "formatValue": "0",
            "gasLimit": 61813,
            "gasPrice": "8",
            "gasUsed": 51511,
            "intTxnCount": 0,
            "internalRevert": false,
            "internalRevertMessage": "",
            "isContractCreation": false,
            "isFlashloan": false,
            "maxFee": "",
            "nonce": 226,
            "overwritedBlockNumber": -1,
            "priorityFee": "",
            "receiver": "0x24a77c1f17c547105e14813e517be06b0040aa76",
            "revertMessage": "",
            "sender": "0x00d6f689297e0aba9396985b8d324dd723212022",
            "simulationEnable": true,
            "sourceTxnHash": "0x24d1e836d9b251022cc431fe8cc145cff346a7fb8d8a808968b4e8aacdfda404",
            "status": true,
            "timestamp": "2017-10-25T12:11:38Z",
            "transactionFee": "0.000412088",
            "txnHash": "0x24d1e836d9b251022cc431fe8cc145cff346a7fb8d8a808968b4e8aacdfda404",
            "txnIndex": 10,
            "type": 0,
            "value": "0"
        },
        "fund_flow": [
            {
                "amount": "306.69",
                "from": "0x00d6f689297e0aba9396985b8d324dd723212022",
                "id": 1,
                "isERC1155": false,
                "isERC721": false,
                "isReverted": false,
                "order": 1,
                "to": "0xc3ce837823dbc543303c88eac388ab9b345d3728",
                "token": "0x24a77c1f17c547105e14813e517be06b0040aa76"
            }
        ],
        "token_infos": [
            {
                "address": "0x24a77c1f17c547105e14813e517be06b0040aa76",
                "decimals": 18
            },
            {
                "address": "0xc02aaa39b223fe8d0a0e5c4f27ead9083c756cc2",
                "decimals": 18
            },
            {
                "address": "0xeeeeeeeeeeeeeeeeeeeeeeeeeeeeeeeeeeeeeeee",
                "decimals": 18
            }
        ]
    },
    "address_label": {
        "labels": [
            {
                "address": "0xeeeeeeeeeeeeeeeeeeeeeeeeeeeeeeeeeeeeeeee",
                "label": "Ether"
            },
            {
                "address": "0x24a77c1f17c547105e14813e517be06b0040aa76",
                "label": "Live Stars Token (LIVE)"
            },
            {
                "address": "0x0000000000000000000000000000000000000001",
                "label": "Precompiled"
            },
            {
                "address": "0x0000000000000000000000000000000000000002",
                "label": "Precompiled"
            },
            {
                "address": "0x0000000000000000000000000000000000000003",
                "label": "Precompiled"
            },
            {
                "address": "0x0000000000000000000000000000000000000004",
                "label": "Precompiled"
            }
        ]
    },
    "trace": {
        "accountLabels": null,
        "dataMap": {
            "-1": {
                "invocation": {
                    "address": "0x00d6f689297e0aba9396985b8d324dd723212022",
                    "callData": "",
                    "decodedMethod": null,
                    "errorInfo": "",
                    "fromAddress": "",
                    "gasUsed": 0,
                    "id": -1,
                    "methodDecoded": false,
                    "operation": "",
                    "output": "",
                    "revert": false,
                    "revertMessage": "",
                    "selector": "",
                    "status": false,
                    "value": ""
                },
                "nodeType": 0
            },
            "0": {
                "invocation": {
                    "address": "0x24a77c1f17c547105e14813e517be06b0040aa76",
                    "callData": "0x000000000000000000000000c3ce837823dbc543303c88eac388ab9b345d3728000000000000000000000000000000000000000000000010a02dc216348d0000",
                    "decodedMethod": {
                        "callParams": [
                            {
                                "name": "_to",
                                "type": "address",
                                "value": "0xc3ce837823dbc543303c88eac388ab9b345d3728"
                            },
                            {
                                "decimalAvailable": true,
                                "name": "_value",
                                "type": "uint256",
                                "value": "306,690,000,000,000,000,000"
                            }
                        ],
                        "constructorArguments": "",
                        "name": "transfer",
                        "returnParams": [],
                        "signature": "transfer(address,uint256)"
                    },
                    "errorInfo": "",
                    "fromAddress": "0x00d6f689297e0aba9396985b8d324dd723212022",
                    "gasUsed": 51511,
                    "id": 0,
                    "methodDecoded": true,
                    "operation": "CALL",
                    "output": "",
                    "revert": false,
                    "revertMessage": "",
                    "selector": "0xa9059cbb",
                    "status": true,
                    "value": "0"
                },
                "nodeType": 0
            },
            "1": {
                "event": {
                    "contract": "0x24a77c1f17c547105e14813e517be06b0040aa76",
                    "decodedLog": {
                        "name": "Transfer",
                        "params": [
                            {
                                "name": "_from",
                                "type": "address",
                                "value": "0x00d6f689297e0aba9396985b8d324dd723212022"
                            },
                            {
                                "name": "_to",
                                "type": "address",
                                "value": "0xc3ce837823dbc543303c88eac388ab9b345d3728"
                            },
                            {
                                "decimalAvailable": true,
                                "name": "_value",
                                "type": "uint256",
                                "value": "306,690,000,000,000,000,000"
                            }
                        ],
                        "signature": "Transfer(address,address,uint256)"
                    },
                    "id": 1,
                    "logData": "0x000000000000000000000000000000000000000000000010a02dc216348d0000",
                    "logDecoded": true,
                    "operation": "EVENT",
                    "revert": false,
                    "status": true,
                    "topics": [
                        "0xddf252ad1be2c89b69c2b068fc378daa952ba7f163c4a11628f55a4df523b3ef",
                        "0x00000000000000000000000000d6f689297e0aba9396985b8d324dd723212022",
                        "0x000000000000000000000000c3ce837823dbc543303c88eac388ab9b345d3728"
                    ]
                },
                "nodeType": 1
            }
        },
        "gasFlame": [
            {
                "children": [
                    {
                        "children": [
                            {
                                "children": [],
                                "depth": 0,
                                "name": "Initial Gas",
                                "value": 23256
                            },
                            {
                                "children": [],
                                "depth": 0,
                                "name": "Executed Gas",
                                "value": 28255
                            }
                        ],
                        "depth": -1,
                        "name": "Actual Gas Used",
                        "value": 51511
                    },
                    {
                        "children": [],
                        "depth": -1,
                        "name": "Refunded Gas",
                        "value": 0
                    }
                ],
                "depth": -2,
                "name": "Total Gas",
                "value": 51511
            }
        ],
        "isConfirmed": true,
        "mainTrace": [
            {
                "children": [
                    {
                        "children": [
                            {
                                "children": [],
                                "depth": 1,
                                "id": 1,
                                "order": 1
                            }
                        ],
                        "depth": 0,
                        "id": 0,
                        "order": 0
                    }
                ],
                "depth": -1,
                "id": -1,
                "order": -1
            }
        ],
        "mainTraceNodeCount": 2,
        "parentIdMap": {
            "0": -1,
            "1": 0
        },
        "tidyTrace": [
            {
                "children": [
                    {
                        "children": [
                            {
                                "children": [],
                                "depth": 1,
                                "id": 1,
                                "order": 1
                            }
                        ],
                        "depth": 0,
                        "id": 0,
                        "order": 0
                    }
                ],
                "depth": -1,
                "id": -1,
                "order": -1
            }
        ],
        "tidyTraceNodeCount": 2
    },
    "state_change": {
        "stateChanges": [
            {
                "address": "0x24a77c1f17c547105e14813e517be06b0040aa76",
                "erc": "ERC-20",
                "slots": [
                    {
                        "current": "0x00000000000000000000000000000000000000000094d8fccdc4e5bade830000",
                        "key": "0x0a33830fc30ae343985bd6dcdb004dc44f1398e85dcb2ac3177d753d3fa55991",
                        "prev": "0x00000000000000000000000000000000000000000094d90d6df2a7d113100000"
                    },
                    {
                        "current": "0x000000000000000000000000000000000000000000000010a02dc216348d0000",
                        "key": "0x38c411d42a870b03d81070aee57a01b772487b119acf86e9a7cda936a11b636a",
                        "prev": "0x0000000000000000000000000000000000000000000000000000000000000000"
                    }
                ],
                "storageVariables": [
                    {
                        "name": "balances",
                        "type": "mapping(address => uint256)",
                        "value": {
                            "pairs": [
                                {
                                    "key": "0x00d6f689297e0aba9396985b8d324dd723212022",
                                    "value": {
                                        "current": "179945715870000000000000000",
                                        "prev": "179946022560000000000000000",
                                        "typeTag": 1
                                    }
                                },
                                {
                                    "key": "0xc3ce837823dbc543303c88eac388ab9b345d3728",
                                    "value": {
                                        "current": "306690000000000000000",
                                        "prev": "0",
                                        "typeTag": 1
                                    }
                                }
                            ],
                            "typeTag": 4
                        }
                    }
                ]
            }
        ]
    }
}