{
    "balance_change": {
        "balanceChanges": [
            {
                "account": "0x69ea822243c963f6f818e8c664c4fe9544270822",
                "assets": [
                    {
                        "address": "0xe474c6f011d3b0a9b63c2f85392c85f9bc4ef03f",
                        "amount": "39.39",
                        "iconUrl": "",
                        "isERC1155": false,
                        "isERC721": false,
                        "sign": false,
                        "value": ""
                    }
                ]
            },
            {
                "account": "0xe927ad7bc54c4e49483b35bbb603d82eabea53c0",
                "assets": [
                    {
                        "address": "0xe474c6f011d3b0a9b63c2f85392c85f9bc4ef03f",
                        "amount": "39.39",
                        "iconUrl": "",
                        "isERC1155": false,
                        "isERC721": false,
                        "sign": true,
                        "value": ""
                    }
                ]
            }
        ]
    },
    "profile": {
        "basic_info": {
            "baseFee": "",
            "blockNumber": 8069829,
            "callData": "0xa9059cbb000000000000000000000000e927ad7bc54c4e49483b35bbb603d82eabea53c000000000000000000000000000000000000000000000000222a5644d86a30000",
            "debugEnable": true,
            "errorInfo": "",
            "eventCount": 1,
            "feeRecipient": "0x829bd824b016326a401d083b33d092293333a830",
            "formatValue": "0",
            "gasLimit": 60000,
            "gasPrice": "3.5641",
            "gasUsed": 21563,
            "intTxnCount": 0,
            "internalRevert": false,
            "internalRevertMessage": "",
            "isContractCreation": false,
            "isFlashloan": false,
            "maxFee": "",
            "nonce": 8,
            "overwritedBlockNumber": -1,
            "priorityFee": "",
            "receiver": "0xe474c6f011d3b0a9b63c2f85392c85f9bc4ef03f",
            "revertMessage": "",
            "sender": "0x69ea822243c963f6f818e8c664c4fe9544270822",
            "simulationEnable": true,
            "sourceTxnHash": "0x242a11d22979b64ea1dc118f1f482268996910d09a2bed4b39bdb3f697897550",
            "status": true,
            "timestamp": "2019-07-02T04:04:15Z",
            "transactionFee": "0.0000768526883",
            "txnHash": "0x242a11d22979b64ea1dc118f1f482268996910d09a2bed4b39bdb3f697897550",
            "txnIndex": 6,
            "type": 0,
            "value": "0"
        },
        "fund_flow": [
            {
                "amount": "39.39",
                "from": "0x69ea822243c963f6f818e8c664c4fe9544270822",
                "id": 1,
                "isERC1155": false,
                "isERC721": false,
                "isReverted": false,
                "order": 1,
                "to": "0xe927ad7bc54c4e49483b35bbb603d82eabea53c0",
                "token": "0xe474c6f011d3b0a9b63c2f85392c85f9bc4ef03f"
            }
        ],
        "token_infos": [
            {
                "address": "0xe474c6f011d3b0a9b63c2f85392c85f9bc4ef03f",
                "decimals": 18
            },
            {
                "address": "0xeeeeeeeeeeeeeeeeeeeeeeeeeeeeeeeeeeeeeeee",
                "decimals": 18
            },
            {
                "address": "0xc02aaa39b223fe8d0a0e5c4f27ead9083c756cc2",
                "decimals": 18
            }
        ]
    },
    "address_label": {
        "labels": [
            {
                "address": "0x0000000000000000000000000000000000000004",
                "label": "Precompiled"
            },
            {
                "address": "0xeeeeeeeeeeeeeeeeeeeeeeeeeeeeeeeeeeeeeeee",
                "label": "Ether"
            },
            {
                "address": "0xe474c6f011d3b0a9b63c2f85392c85f9bc4ef03f",
                "label": "POC Big Gold Hammer (POCBGH)"
            },
            {
                "address": "0x0000000000000000000000000000000000000001",
                "label": "Precompiled"
            },
            {
                "address": "0x0000000000000000000000000000000000000002",
                "label": "Precompiled"
            },
            {
                "address": "0x0000000000000000000000000000000000000003",
                "label": "Precompiled"
            }
        ]
    },
    "trace": {
        "accountLabels": null,
        "dataMap": {
            "-1": {
                "invocation": {
                    "address": "0x69ea822243c963f6f818e8c664c4fe9544270822",
                    "callData": "",
                    "decodedMethod": null,
                    "errorInfo": "",
                    "fromAddress": "",
                    "gasUsed": 0,
                    "id": -1,
                    "methodDecoded": false,
                    "operation": "",
                    "output": "",
                    "revert": false,
                    "revertMessage": "",
                    "selector": "",
                    "status": false,
                    "value": ""
                },
                "nodeType": 0
            },
            "0": {
                "invocation": {
                    "address": "0xe474c6f011d3b0a9b63c2f85392c85f9bc4ef03f",
                    "callData": "0x000000000000000000000000e927ad7bc54c4e49483b35bbb603d82eabea53c000000000000000000000000000000000000000000000000222a5644d86a30000",
                    "decodedMethod": {
                        "callParams": [
                            {
                                "name": "to",
                                "type": "address",
                                "value": "0xe927ad7bc54c4e49483b35bbb603d82eabea53c0"
                            },
                            {
                                "decimalAvailable": true,
                                "name": "tokens",
                                "type": "uint256",
                                "value": "39,390,000,000,000,000,000"
                            }
                        ],
                        "constructorArguments": "",
                        "name": "transfer",
                        "returnParams": [
                            {
                                "name": "success",
                                "type": "bool",
                                "value": true
                            }
                        ],
                        "signature": "transfer(address,uint256)"
                    },
                    "errorInfo": "",
                    "fromAddress": "0x69ea822243c963f6f818e8c664c4fe9544270822",
                    "gasUsed": 21563,
                    "id": 0,
                    "methodDecoded": true,
                    "operation": "CALL",
                    "output": "0x0000000000000000000000000000000000000000000000000000000000000001",
                    "revert": false,
                    "revertMessage": "",
                    "selector": "0xa9059cbb",
                    "status": true,
                    "value": "0"
                },
                "nodeType": 0
            },
            "1": {
                "event": {
                    "contract": "0xe474c6f011d3b0a9b63c2f85392c85f9bc4ef03f",
                    "decodedLog": {
                        "name": "Transfer",
                        "params": [
                            {
                                "name": "from",
                                "type": "address",
                                "value": "0x69ea822243c963f6f818e8c664c4fe9544270822"
                            },
                            {
                                "name": "to",
                                "type": "address",
                                "value": "0xe927ad7bc54c4e49483b35bbb603d82eabea53c0"
                            },
                            {
                                "decimalAvailable": true,
                                "name": "tokens",
                                "type": "uint256",
                                "value": "39,390,000,000,000,000,000"
                            }
                        ],
                        "signature": "Transfer(address,address,uint256)"
                    },
                    "id": 1,
                    "logData": "0x00000000000000000000000000000000000000000000000222a5644d86a30000",
                    "logDecoded": true,
                    "operation": "EVENT",
                    "revert": false,
                    "status": true,
                    "topics": [
                        "0xddf252ad1be2c89b69c2b068fc378daa952ba7f163c4a11628f55a4df523b3ef",
                        "0x00000000000000000000000069ea822243c963f6f818e8c664c4fe9544270822",
                        "0x000000000000000000000000e927ad7bc54c4e49483b35bbb603d82eabea53c0"
                    ]
                },
                "nodeType": 1
            }
        },
        "gasFlame": [
            {
                "children": [
                    {
                        "children": [
                            {
                                "children": [],
                                "depth": 0,
                                "name": "Initial Gas",
                                "value": 23256
                            },
                            {
                                "children": [],
                                "depth": 0,
                                "name": "Executed Gas",
                                "value": 13307
                            }
                        ],
                        "depth": -1,
                        "name": "Actual Gas Used",
                        "value": 21563
                    },
                    {
                        "children": [],
                        "depth": -1,
                        "name": "Refunded Gas",
                        "value": 15000
                    }
                ],
                "depth": -2,
                "name": "Total Gas",
                "value": 36563
            }
        ],
        "isConfirmed": true,
        "mainTrace": [
            {
                "children": [
                    {
                        "children": [
                            {
                                "children": [],
                                "depth": 1,
                                "id": 1,
                                "order": 1
                            }
                        ],
                        "depth": 0,
                        "id": 0,
                        "order": 0
                    }
                ],
                "depth": -1,
                "id": -1,
                "order": -1
            }
        ],
        "mainTraceNodeCount": 2,
        "parentIdMap": {
            "0": -1,
            "1": 0
        },
        "tidyTrace": [
            {
                "children": [
                    {
                        "children": [
                            {
                                "children": [],
                                "depth": 1,
                                "id": 1,
                                "order": 1
                            }
                        ],
                        "depth": 0,
                        "id": 0,
                        "order": 0
                    }
                ],
                "depth": -1,
                "id": -1,
                "order": -1
            }
        ],
        "tidyTraceNodeCount": 2
    },
    "state_change": {
        "stateChanges": [
            {
                "address": "0xe474c6f011d3b0a9b63c2f85392c85f9bc4ef03f",
                "erc": "ERC-20",
                "slots": [
                    {
                        "current": "0x0000000000000000000000000000000000000000000000000000000000000000",
                        "key": "0x4fcc5abe1806adf3dc80dd86860f6390c1b00b1e315b961ef367dd07e09babf0",
                        "prev": "0x00000000000000000000000000000000000000000000000222a5644d86a30000"
                    },
                    {
                        "current": "0x00000000000000000000000000000000000000000000000bd66405f917fa8000",
                        "key": "0x27bcd8cce962bea3f053bd4884bca66a3e7e83865a6fc96a2a476d9bf3c84b3c",
                        "prev": "0x000000000000000000000000000000000000000000000009b3bea1ab91578000"
                    }
                ],
                "storageVariables": [
                    {
                        "name": "balances",
                        "type": "mapping(address => uint256)",
                        "value": {
                            "pairs": [
                                {
                                    "key": "0x69ea822243c963f6f818e8c664c4fe9544270822",
                                    "value": {
                                        "current": "0",
                                        "prev": "39390000000000000000",
                                        "typeTag": 1
                                    }
                                },
                                {
                                    "key": "0xe927ad7bc54c4e49483b35bbb603d82eabea53c0",
                                    "value": {
                                        "current": "218362664000000000000",
                                        "prev": "178972664000000000000",
                                        "typeTag": 1
                                    }
                                }
                            ],
                            "typeTag": 4
                        }
                    }
                ]
            }
        ]
    }
}