{
    "balance_change": {
        "balanceChanges": [
            {
                "account": "0x3a6fc95934628c162fd3db72e0f97f663d1dd07b",
                "assets": [
                    {
                        "address": "0x48783486ddd7fa85eca6b0c4ae8920bc25dfbcd7",
                        "amount": "413",
                        "iconUrl": "",
                        "isERC1155": false,
                        "isERC721": false,
                        "sign": false,
                        "value": "4.33731007"
                    }
                ]
            },
            {
                "account": "0x0116e0f4e82e65b219ba2b53a622847af97ddcb7",
                "assets": [
                    {
                        "address": "0x48783486ddd7fa85eca6b0c4ae8920bc25dfbcd7",
                        "amount": "413",
                        "iconUrl": "",
                        "isERC1155": false,
                        "isERC721": false,
                        "sign": true,
                        "value": "4.33731007"
                    }
                ]
            }
        ]
    },
    "profile": {
        "basic_info": {
            "baseFee": "",
            "blockNumber": 12339427,
            "callData": "0xa9059cbb0000000000000000000000000116e0f4e82e65b219ba2b53a622847af97ddcb7000000000000000000000000000000000000000000000000000000000000019d",
            "debugEnable": true,
            "errorInfo": "",
            "eventCount": 1,
            "feeRecipient": "0x8595dd9e0438640b5e1254f9df579ac12a86865f",
            "formatValue": "0",
            "gasLimit": 200000,
            "gasPrice": "57",
            "gasUsed": 22152,
            "intTxnCount": 0,
            "internalRevert": false,
            "internalRevertMessage": "",
            "isContractCreation": false,
            "isFlashloan": false,
            "maxFee": "",
            "nonce": 6,
            "overwritedBlockNumber": -1,
            "priorityFee": "",
            "receiver": "0x48783486ddd7fa85eca6b0c4ae8920bc25dfbcd7",
            "revertMessage": "",
            "sender": "0x3a6fc95934628c162fd3db72e0f97f663d1dd07b",
            "simulationEnable": true,
            "sourceTxnHash": "0x24abf6d6dacb52cf82993a0430e7fdfe2428a92ce5513246d9b0d01938ad0c3f",
            "status": true,
            "timestamp": "2021-04-30T03:25:29Z",
            "transactionFee": "0.001262664",
            "txnHash": "0x24abf6d6dacb52cf82993a0430e7fdfe2428a92ce5513246d9b0d01938ad0c3f",
            "txnIndex": 32,
            "type": 0,
            "value": "0"
        },
        "fund_flow": [
            {
                "amount": "413",
                "from": "0x3a6fc95934628c162fd3db72e0f97f663d1dd07b",
                "id": 1,
                "isERC1155": false,
                "isERC721": false,
                "isReverted": false,
                "order": 1,
                "to": "0x0116e0f4e82e65b219ba2b53a622847af97ddcb7",
                "token": "0x48783486ddd7fa85eca6b0c4ae8920bc25dfbcd7"
            }
        ],
        "token_infos": [
            {
                "address": "0x48783486ddd7fa85eca6b0c4ae8920bc25dfbcd7",
                "decimals": 0
            },
            {
                "address": "0xc02aaa39b223fe8d0a0e5c4f27ead9083c756cc2",
                "decimals": 18
            },
            {
                "address": "0xeeeeeeeeeeeeeeeeeeeeeeeeeeeeeeeeeeeeeeee",
                "decimals": 18
            }
        ]
    },
    "address_label": {
        "labels": [
            {
                "address": "0x0000000000000000000000000000000000000002",
                "label": "Precompiled"
            },
            {
                "address": "0x0000000000000000000000000000000000000003",
                "label": "Precompiled"
            },
            {
                "address": "0x0000000000000000000000000000000000000004",
                "label": "Precompiled"
            },
            {
                "address": "0xeeeeeeeeeeeeeeeeeeeeeeeeeeeeeeeeeeeeeeee",
                "label": "Ether"
            },
            {
                "address": "0x48783486ddd7fa85eca6b0c4ae8920bc25dfbcd7",
                "label": "GoMoney2: Old GOM2 Token"
            },
            {
                "address": "0x0000000000000000000000000000000000000001",
                "label": "Precompiled"
            }
        ]
    },
    "trace": {
        "accountLabels": null,
        "dataMap": {
            "-1": {
                "invocation": {
                    "address": "0x3a6fc95934628c162fd3db72e0f97f663d1dd07b",
                    "callData": "",
                    "decodedMethod": null,
                    "errorInfo": "",
                    "fromAddress": "",
                    "gasUsed": 0,
                    "id": -1,
                    "methodDecoded": false,
                    "operation": "",
                    "output": "",
                    "revert": false,
                    "revertMessage": "",
                    "selector": "",
                    "status": false,
                    "value": ""
                },
                "nodeType": 0
            },
            "0": {
                "invocation": {
                    "address": "0x48783486ddd7fa85eca6b0c4ae8920bc25dfbcd7",
                    "callData": "0x0000000000000000000000000116e0f4e82e65b219ba2b53a622847af97ddcb7000000000000000000000000000000000000000000000000000000000000019d",
                    "decodedMethod": {
                        "callParams": [
                            {
                                "name": "_to",
                                "type": "address",
                                "value": "0x0116e0f4e82e65b219ba2b53a622847af97ddcb7"
                            },
                            {
                                "decimalAvailable": true,
                                "name": "_value",
                                "type": "uint256",
                                "value": "413"
                            }
                        ],
                        "constructorArguments": "",
                        "name": "transfer",
                        "returnParams": [
                            {
                                "name": "",
                                "type": "bool",
                                "value": true
                            }
                        ],
                        "signature": "transfer(address,uint256)"
                    },
                    "errorInfo": "",
                    "fromAddress": "0x3a6fc95934628c162fd3db72e0f97f663d1dd07b",
                    "gasUsed": 22152,
                    "id": 0,
                    "methodDecoded": true,
                    "operation": "CALL",
                    "output": "0x0000000000000000000000000000000000000000000000000000000000000001",
                    "revert": false,
                    "revertMessage": "",
                    "selector": "0xa9059cbb",
                    "status": true,
                    "value": "0"
                },
                "nodeType": 0
            },
            "1": {
                "event": {
                    "contract": "0x48783486ddd7fa85eca6b0c4ae8920bc25dfbcd7",
                    "decodedLog": {
                        "name": "Transfer",
                        "params": [
                            {
                                "name": "from",
                                "type": "address",
                                "value": "0x3a6fc95934628c162fd3db72e0f97f663d1dd07b"
                            },
                            {
                                "name": "to",
                                "type": "address",
                                "value": "0x0116e0f4e82e65b219ba2b53a622847af97ddcb7"
                            },
                            {
                                "decimalAvailable": true,
                                "name": "value",
                                "type": "uint256",
                                "value": "413"
                            }
                        ],
                        "signature": "Transfer(address,address,uint256)"
                    },
                    "id": 1,
                    "logData": "0x000000000000000000000000000000000000000000000000000000000000019d",
                    "logDecoded": true,
                    "operation": "EVENT",
                    "revert": false,
                    "status": true,
                    "topics": [
                        "0xddf252ad1be2c89b69c2b068fc378daa952ba7f163c4a11628f55a4df523b3ef",
                        "0x0000000000000000000000003a6fc95934628c162fd3db72e0f97f663d1dd07b",
                        "0x0000000000000000000000000116e0f4e82e65b219ba2b53a622847af97ddcb7"
                    ]
                },
                "nodeType": 1
            }
        },
        "gasFlame": [
            {
                "children": [
                    {
                        "children": [
                            {
                                "children": [],
                                "depth": 0,
                                "name": "Initial Gas",
                                "value": 21584
                            },
                            {
                                "children": [],
                                "depth": 0,
                                "name": "Executed Gas",
                                "value": 15568
                            }
                        ],
                        "depth": -1,
                        "name": "Actual Gas Used",
                        "value": 22152
                    },
                    {
                        "children": [],
                        "depth": -1,
                        "name": "Refunded Gas",
                        "value": 15000
                    }
                ],
                "depth": -2,
                "name": "Total Gas",
                "value": 37152
            }
        ],
        "isConfirmed": true,
        "mainTrace": [
            {
                "children": [
                    {
                        "children": [
                            {
                                "children": [],
                                "depth": 1,
                                "id": 1,
                                "order": 1
                            }
                        ],
                        "depth": 0,
                        "id": 0,
                        "order": 0
                    }
                ],
                "depth": -1,
                "id": -1,
                "order": -1
            }
        ],
        "mainTraceNodeCount": 2,
        "parentIdMap": {
            "0": -1,
            "1": 0
        },
        "tidyTrace": [
            {
                "children": [
                    {
                        "children": [
                            {
                                "children": [],
                                "depth": 1,
                                "id": 1,
                                "order": 1
                            }
                        ],
                        "depth": 0,
                        "id": 0,
                        "order": 0
                    }
                ],
                "depth": -1,
                "id": -1,
                "order": -1
            }
        ],
        "tidyTraceNodeCount": 2
    },
    "state_change": {
        "stateChanges": [
            {
                "address": "0x48783486ddd7fa85eca6b0c4ae8920bc25dfbcd7",
                "erc": "ERC-20",
                "slots": [
                    {
                        "current": "0x0000000000000000000000000000000000000000000000000000000000000000",
                        "key": "0x53dd508f68d046221d49f7857ead26024c46f83df95bddb7aa1bf6589dc5ebfc",
                        "prev": "0x000000000000000000000000000000000000000000000000000000000000019d"
                    },
                    {
                        "current": "0x000000000000000000000000000000000000000000000000000000000190ebf4",
                        "key": "0x0ab4748e585c0180c4362fd1e834b0ddeac263a13bcd93ea3aa8bcf5397617bf",
                        "prev": "0x000000000000000000000000000000000000000000000000000000000190ea57"
                    }
                ],
                "storageVariables": [
                    {
                        "name": "balances",
                        "type": "mapping(address => uint256)",
                        "value": {
                            "pairs": [
                                {
                                    "key": "0x0116e0f4e82e65b219ba2b53a622847af97ddcb7",
                                    "value": {
                                        "current": "26274804",
                                        "prev": "26274391",
                                        "typeTag": 1
                                    }
                                },
                                {
                                    "key": "0x3a6fc95934628c162fd3db72e0f97f663d1dd07b",
                                    "value": {
                                        "current": "0",
                                        "prev": "413",
                                        "typeTag": 1
                                    }
                                }
                            ],
                            "typeTag": 4
                        }
                    }
                ]
            }
        ]
    }
}