{
    "balance_change": {
        "balanceChanges": [
            {
                "account": "0x0536806df512d6cdde913cf95c9886f65b1d3462",
                "assets": [
                    {
                        "address": "0xa74476443119a942de498590fe1f2454d7d4ac0d",
                        "amount": "99.99",
                        "iconUrl": "",
                        "isERC1155": false,
                        "isERC721": false,
                        "sign": false,
                        "value": ""
                    }
                ]
            },
            {
                "account": "0x11fba3fda4672dce4392f14f93bb4719bf367e38",
                "assets": [
                    {
                        "address": "0xa74476443119a942de498590fe1f2454d7d4ac0d",
                        "amount": "99.99",
                        "iconUrl": "",
                        "isERC1155": false,
                        "isERC721": false,
                        "sign": true,
                        "value": ""
                    }
                ]
            }
        ]
    },
    "profile": {
        "basic_info": {
            "baseFee": "",
            "blockNumber": 3619422,
            "callData": "0xa9059cbb00000000000000000000000011fba3fda4672dce4392f14f93bb4719bf367e380000000000000000000000000000000000000000000000056ba3d73af34f0000",
            "debugEnable": true,
            "errorInfo": "",
            "eventCount": 1,
            "feeRecipient": "0x4bb96091ee9d802ed039c4d1a5f6216f90f81b01",
            "formatValue": "0",
            "gasLimit": 90000,
            "gasPrice": "30",
            "gasUsed": 51784,
            "intTxnCount": 0,
            "internalRevert": false,
            "internalRevertMessage": "",
            "isContractCreation": false,
            "isFlashloan": false,
            "maxFee": "",
            "nonce": 21920,
            "overwritedBlockNumber": -1,
            "priorityFee": "",
            "receiver": "0xa74476443119a942de498590fe1f2454d7d4ac0d",
            "revertMessage": "",
            "sender": "0x0536806df512d6cdde913cf95c9886f65b1d3462",
            "simulationEnable": true,
            "sourceTxnHash": "0x24b945cfd4602e4b1ce1b7a5eb73c1555846ac26d4e7c9cda42e1b578c617a42",
            "status": true,
            "timestamp": "2017-04-29T06:44:54Z",
            "transactionFee": "0.00155352",
            "txnHash": "0x24b945cfd4602e4b1ce1b7a5eb73c1555846ac26d4e7c9cda42e1b578c617a42",
            "txnIndex": 1,
            "type": 0,
            "value": "0"
        },
        "fund_flow": [
            {
                "amount": "99.99",
                "from": "0x0536806df512d6cdde913cf95c9886f65b1d3462",
                "id": 1,
                "isERC1155": false,
                "isERC721": false,
                "isReverted": false,
                "order": 1,
                "to": "0x11fba3fda4672dce4392f14f93bb4719bf367e38",
                "token": "0xa74476443119a942de498590fe1f2454d7d4ac0d"
            }
        ],
        "token_infos": [
            {
                "address": "0xc02aaa39b223fe8d0a0e5c4f27ead9083c756cc2",
                "decimals": 18
            },
            {
                "address": "0xeeeeeeeeeeeeeeeeeeeeeeeeeeeeeeeeeeeeeeee",
                "decimals": 18
            },
            {
                "address": "0xa74476443119a942de498590fe1f2454d7d4ac0d",
                "decimals": 18
            }
        ]
    },
    "address_label": {
        "labels": [
            {
                "address": "0xeeeeeeeeeeeeeeeeeeeeeeeeeeeeeeeeeeeeeeee",
                "label": "Ether"
            },
            {
                "address": "0x0536806df512d6cdde913cf95c9886f65b1d3462",
                "label": "Poloniex: GNT"
            },
            {
                "address": "0xa74476443119a942de498590fe1f2454d7d4ac0d",
                "label": "Golem Token"
            },
            {
                "address": "0x0000000000000000000000000000000000000001",
                "label": "Precompiled"
            },
            {
                "address": "0x0000000000000000000000000000000000000002",
                "label": "Precompiled"
            },
            {
                "address": "0x0000000000000000000000000000000000000003",
                "label": "Precompiled"
            },
            {
                "address": "0x0000000000000000000000000000000000000004",
                "label": "Precompiled"
            }
        ]
    },
    "trace": {
        "accountLabels": null,
        "dataMap": {
            "-1": {
                "invocation": {
                    "address": "0x0536806df512d6cdde913cf95c9886f65b1d3462",
                    "callData": "",
                    "decodedMethod": null,
                    "errorInfo": "",
                    "fromAddress": "",
                    "gasUsed": 0,
                    "id": -1,
                    "methodDecoded": false,
                    "operation": "",
                    "output": "",
                    "revert": false,
                    "revertMessage": "",
                    "selector": "",
                    "status": false,
                    "value": ""
                },
                "nodeType": 0
            },
            "0": {
                "invocation": {
                    "address": "0xa74476443119a942de498590fe1f2454d7d4ac0d",
                    "callData": "0x00000000000000000000000011fba3fda4672dce4392f14f93bb4719bf367e380000000000000000000000000000000000000000000000056ba3d73af34f0000",
                    "decodedMethod": {
                        "callParams": [
                            {
                                "name": "_to",
                                "type": "address",
                                "value": "0x11fba3fda4672dce4392f14f93bb4719bf367e38"
                            },
                            {
                                "decimalAvailable": true,
                                "name": "_value",
                                "type": "uint256",
                                "value": "99,990,000,000,000,000,000"
                            }
                        ],
                        "constructorArguments": "",
                        "name": "transfer",
                        "returnParams": [
                            {
                                "name": "",
                                "type": "bool",
                                "value": true
                            }
                        ],
                        "signature": "transfer(address,uint256)"
                    },
                    "errorInfo": "",
                    "fromAddress": "0x0536806df512d6cdde913cf95c9886f65b1d3462",
                    "gasUsed": 51784,
                    "id": 0,
                    "methodDecoded": true,
                    "operation": "CALL",
                    "output": "0x0000000000000000000000000000000000000000000000000000000000000001",
                    "revert": false,
                    "revertMessage": "",
                    "selector": "0xa9059cbb",
                    "status": true,
                    "value": "0"
                },
                "nodeType": 0
            },
            "1": {
                "event": {
                    "contract": "0xa74476443119a942de498590fe1f2454d7d4ac0d",
                    "decodedLog": {
                        "name": "Transfer",
                        "params": [
                            {
                                "name": "_from",
                                "type": "address",
                                "value": "0x0536806df512d6cdde913cf95c9886f65b1d3462"
                            },
                            {
                                "name": "_to",
                                "type": "address",
                                "value": "0x11fba3fda4672dce4392f14f93bb4719bf367e38"
                            },
                            {
                                "decimalAvailable": true,
                                "name": "_value",
                                "type": "uint256",
                                "value": "99,990,000,000,000,000,000"
                            }
                        ],
                        "signature": "Transfer(address,address,uint256)"
                    },
                    "id": 1,
                    "logData": "0x0000000000000000000000000000000000000000000000056ba3d73af34f0000",
                    "logDecoded": true,
                    "operation": "EVENT",
                    "revert": false,
                    "status": true,
                    "topics": [
                        "0xddf252ad1be2c89b69c2b068fc378daa952ba7f163c4a11628f55a4df523b3ef",
                        "0x0000000000000000000000000536806df512d6cdde913cf95c9886f65b1d3462",
                        "0x00000000000000000000000011fba3fda4672dce4392f14f93bb4719bf367e38"
                    ]
                },
                "nodeType": 1
            }
        },
        "gasFlame": [
            {
                "children": [
                    {
                        "children": [
                            {
                                "children": [],
                                "depth": 0,
                                "name": "Initial Gas",
                                "value": 23256
                            },
                            {
                                "children": [],
                                "depth": 0,
                                "name": "Executed Gas",
                                "value": 28528
                            }
                        ],
                        "depth": -1,
                        "name": "Actual Gas Used",
                        "value": 51784
                    },
                    {
                        "children": [],
                        "depth": -1,
                        "name": "Refunded Gas",
                        "value": 0
                    }
                ],
                "depth": -2,
                "name": "Total Gas",
                "value": 51784
            }
        ],
        "isConfirmed": true,
        "mainTrace": [
            {
                "children": [
                    {
                        "children": [
                            {
                                "children": [],
                                "depth": 1,
                                "id": 1,
                                "order": 1
                            }
                        ],
                        "depth": 0,
                        "id": 0,
                        "order": 0
                    }
                ],
                "depth": -1,
                "id": -1,
                "order": -1
            }
        ],
        "mainTraceNodeCount": 2,
        "parentIdMap": {
            "0": -1,
            "1": 0
        },
        "tidyTrace": [
            {
                "children": [
                    {
                        "children": [
                            {
                                "children": [],
                                "depth": 1,
                                "id": 1,
                                "order": 1
                            }
                        ],
                        "depth": 0,
                        "id": 0,
                        "order": 0
                    }
                ],
                "depth": -1,
                "id": -1,
                "order": -1
            }
        ],
        "tidyTraceNodeCount": 2
    },
    "state_change": {
        "stateChanges": [
            {
                "address": "0xa74476443119a942de498590fe1f2454d7d4ac0d",
                "erc": "",
                "slots": [
                    {
                        "current": "0x000000000000000000000000000000000000000000302cca13a7766afcfa570d",
                        "key": "0x90f7c6f35264a4491ff3c63cdcd90fc0236881fe103c14feca404eb3a0d47153",
                        "prev": "0x000000000000000000000000000000000000000000302ccf7f4b4da5f049570d"
                    },
                    {
                        "current": "0x0000000000000000000000000000000000000000000000056ba3d73af34f0000",
                        "key": "0xa1677339c630010ddd9d04bce9d4a8e9ff135c1d9567f8e0e4079c2107141c71",
                        "prev": "0x0000000000000000000000000000000000000000000000000000000000000000"
                    }
                ],
                "storageVariables": []
            }
        ]
    }
}