{
    "balance_change": {
        "balanceChanges": []
    },
    "profile": {
        "basic_info": {
            "baseFee": "83.643377953",
            "blockNumber": 13239449,
            "callData": "0xc116954800000000000000000000000079ef838b973a9b549b4c8a199ff52573769df53c000000000000000000000000645ba45dbe3c6942c812a46f9ee8115c89b524ec000000000000000000000000000000000000000000000000000000000000012000000000000000000000000000ca04980000000000000000000000006143c45900000000000000000000000000000000000000000000000000000000000001a0000000000000000000000000000000000000000000000000000000000000000000000000000000000000000000000000000000000000000000000000000000000000000000000000000000000000000000000000000000000000000000000000000000000000000000000000000000000000000000000000000000000000000000000000000000000000000000000000000000000000000000000000000000445a1db8c400000000000000000000000079ef838b973a9b549b4c8a199ff52573769df53c0000000000000000000000008c887cab3b980d826f1e5a996545f51390dc912f0000000000000000000000000000000000000000000000000000000000000000000000000000000000000000000000000000000000000000000000415eb0773af926a4c8324dedbcf35d1fad731063a509fbe826e60b1278f6d51c014503cc18d87fb63408e1bc22ef2f75b571d51169ebaf306cb6714ad3dbfa75321c00000000000000000000000000000000000000000000000000000000000000",
            "debugEnable": true,
            "errorInfo": "",
            "eventCount": 7,
            "feeRecipient": "0x52bc44d5378309ee2abf1539bf71de1b7d7be3b5",
            "formatValue": "0",
            "gasLimit": 475184,
            "gasPrice": "85.814",
            "gasUsed": 181749,
            "intTxnCount": 24,
            "internalRevert": false,
            "internalRevertMessage": "",
            "isContractCreation": false,
            "isFlashloan": false,
            "maxFee": "",
            "nonce": 227606,
            "overwritedBlockNumber": -1,
            "priorityFee": "",
            "receiver": "0x10a0847c2d170008ddca7c3a688124f493630032",
            "revertMessage": "",
            "sender": "0xf27696c8bca7d54d696189085ae1283f59342fa6",
            "simulationEnable": true,
            "sourceTxnHash": "0x2413be3879c6e6aa416b28827eb4958ecc29f189e3f6536eda0d6de152e0ad5c",
            "status": true,
            "timestamp": "2021-09-16T22:25:08Z",
            "transactionFee": "0.015596608686",
            "txnHash": "0x2413be3879c6e6aa416b28827eb4958ecc29f189e3f6536eda0d6de152e0ad5c",
            "txnIndex": 97,
            "type": 0,
            "value": "0"
        },
        "fund_flow": [],
        "token_infos": [
            {
                "address": "0xc02aaa39b223fe8d0a0e5c4f27ead9083c756cc2",
                "decimals": 18
            },
            {
                "address": "0xeeeeeeeeeeeeeeeeeeeeeeeeeeeeeeeeeeeeeeee",
                "decimals": 18
            }
        ]
    },
    "address_label": {
        "labels": [
            {
                "address": "0x9d58779365b067d5d3fcc6e92d237acd06f1e6a1",
                "label": "Argent: Argent Module"
            },
            {
                "address": "0x0000000000000000000000000000000000000000",
                "label": "Null Address"
            },
            {
                "address": "0x0000000000000000000000000000000000000002",
                "label": "Precompiled"
            },
            {
                "address": "0x8c887cab3b980d826f1e5a996545f51390dc912f",
                "label": "SimpleUpgrader"
            },
            {
                "address": "0x0000000000000000000000000000000000000001",
                "label": "Precompiled"
            },
            {
                "address": "0x0000000000000000000000000000000000000003",
                "label": "Precompiled"
            },
            {
                "address": "0xeeeeeeeeeeeeeeeeeeeeeeeeeeeeeeeeeeeeeeee",
                "label": "Ether"
            },
            {
                "address": "0x10a0847c2d170008ddca7c3a688124f493630032",
                "label": "Argent: Relayer Manager"
            },
            {
                "address": "0xf27696c8bca7d54d696189085ae1283f59342fa6",
                "label": "Argent: Relayer 3"
            },
            {
                "address": "0xf657bb6bc979bf34d49e38afba34d5fd2a45b0ca",
                "label": "LockStorage"
            },
            {
                "address": "0xc17d432bd8e8850fd7b32b0270f5afac65db0105",
                "label": "ModuleRegistry"
            },
            {
                "address": "0x645ba45dbe3c6942c812a46f9ee8115c89b524ec",
                "label": "VersionManager"
            },
            {
                "address": "0xb1dd690cc9af7bb1a906a9b5a94f94191cc553ce",
                "label": "BaseWallet"
            },
            {
                "address": "0x79ef838b973a9b549b4c8a199ff52573769df53c",
                "label": "Proxy"
            },
            {
                "address": "0x0000000000000000000000000000000000000004",
                "label": "Precompiled"
            }
        ]
    },
    "trace": {
        "accountLabels": null,
        "dataMap": {
            "-1": {
                "invocation": {
                    "address": "0xf27696c8bca7d54d696189085ae1283f59342fa6",
                    "callData": "",
                    "decodedMethod": null,
                    "errorInfo": "",
                    "fromAddress": "",
                    "gasUsed": 0,
                    "id": -1,
                    "methodDecoded": false,
                    "operation": "",
                    "output": "",
                    "revert": false,
                    "revertMessage": "",
                    "selector": "",
                    "status": false,
                    "value": ""
                },
                "nodeType": 0
            },
            "0": {
                "invocation": {
                    "address": "0x10a0847c2d170008ddca7c3a688124f493630032",
                    "callData": "0x00000000000000000000000079ef838b973a9b549b4c8a199ff52573769df53c000000000000000000000000645ba45dbe3c6942c812a46f9ee8115c89b524ec000000000000000000000000000000000000000000000000000000000000012000000000000000000000000000ca04980000000000000000000000006143c45900000000000000000000000000000000000000000000000000000000000001a0000000000000000000000000000000000000000000000000000000000000000000000000000000000000000000000000000000000000000000000000000000000000000000000000000000000000000000000000000000000000000000000000000000000000000000000000000000000000000000000000000000000000000000000000000000000000000000000000000000000000000000000000000000445a1db8c400000000000000000000000079ef838b973a9b549b4c8a199ff52573769df53c0000000000000000000000008c887cab3b980d826f1e5a996545f51390dc912f0000000000000000000000000000000000000000000000000000000000000000000000000000000000000000000000000000000000000000000000415eb0773af926a4c8324dedbcf35d1fad731063a509fbe826e60b1278f6d51c014503cc18d87fb63408e1bc22ef2f75b571d51169ebaf306cb6714ad3dbfa75321c00000000000000000000000000000000000000000000000000000000000000",
                    "decodedMethod": {
                        "callParams": [
                            {
                                "name": "_wallet",
                                "type": "address",
                                "value": "0x79ef838b973a9b549b4c8a199ff52573769df53c"
                            },
                            {
                                "name": "_feature",
                                "type": "address",
                                "value": "0x645ba45dbe3c6942c812a46f9ee8115c89b524ec"
                            },
                            {
                                "name": "_data",
                                "type": "bytes",
                                "value": "0x5a1db8c400000000000000000000000079ef838b973a9b549b4c8a199ff52573769df53c0000000000000000000000008c887cab3b980d826f1e5a996545f51390dc912f"
                            },
                            {
                                "name": "_nonce",
                                "type": "uint256",
                                "value": "4,505,150,702,166,684,898,223,248,019,613,308,785,256,547,417"
                            },
                            {
                                "name": "_signatures",
                                "type": "bytes",
                                "value": "0x5eb0773af926a4c8324dedbcf35d1fad731063a509fbe826e60b1278f6d51c014503cc18d87fb63408e1bc22ef2f75b571d51169ebaf306cb6714ad3dbfa75321c"
                            },
                            {
                                "name": "_gasPrice",
                                "type": "uint256",
                                "value": "0"
                            },
                            {
                                "name": "_gasLimit",
                                "type": "uint256",
                                "value": "0"
                            },
                            {
                                "name": "_refundToken",
                                "type": "address",
                                "value": "0x0000000000000000000000000000000000000000"
                            },
                            {
                                "name": "_refundAddress",
                                "type": "address",
                                "value": "0x0000000000000000000000000000000000000000"
                            }
                        ],
                        "constructorArguments": "",
                        "name": "execute",
                        "returnParams": [
                            {
                                "name": "",
                                "type": "bool",
                                "value": true
                            }
                        ],
                        "signature": "execute(address,address,bytes,uint256,bytes,uint256,uint256,address,address)"
                    },
                    "errorInfo": "",
                    "fromAddress": "0xf27696c8bca7d54d696189085ae1283f59342fa6",
                    "gasUsed": 181749,
                    "id": 0,
                    "methodDecoded": true,
                    "operation": "CALL",
                    "output": "0x0000000000000000000000000000000000000000000000000000000000000001",
                    "revert": false,
                    "revertMessage": "",
                    "selector": "0xc1169548",
                    "status": true,
                    "value": "0"
                },
                "nodeType": 0
            },
            "1": {
                "invocation": {
                    "address": "0x645ba45dbe3c6942c812a46f9ee8115c89b524ec",
                    "callData": "0x00000000000000000000000079ef838b973a9b549b4c8a199ff52573769df53c000000000000000000000000645ba45dbe3c6942c812a46f9ee8115c89b524ec",
                    "decodedMethod": {
                        "callParams": [
                            {
                                "name": "_wallet",
                                "type": "address",
                                "value": "0x79ef838b973a9b549b4c8a199ff52573769df53c"
                            },
                            {
                                "name": "_feature",
                                "type": "address",
                                "value": "0x645ba45dbe3c6942c812a46f9ee8115c89b524ec"
                            }
                        ],
                        "constructorArguments": "",
                        "name": "isFeatureAuthorised",
                        "returnParams": [
                            {
                                "name": "",
                                "type": "bool",
                                "value": true
                            }
                        ],
                        "signature": "isFeatureAuthorised(address,address)"
                    },
                    "errorInfo": "",
                    "fromAddress": "0x10a0847c2d170008ddca7c3a688124f493630032",
                    "gasUsed": 5112,
                    "id": 1,
                    "methodDecoded": true,
                    "operation": "STATICCALL",
                    "output": "0x0000000000000000000000000000000000000000000000000000000000000001",
                    "revert": false,
                    "revertMessage": "",
                    "selector": "0x5a51fd43",
                    "status": true,
                    "value": "0"
                },
                "nodeType": 0
            },
            "10": {
                "invocation": {
                    "address": "0x79ef838b973a9b549b4c8a199ff52573769df53c",
                    "callData": "0x0000000000000000000000008c887cab3b980d826f1e5a996545f51390dc912f0000000000000000000000000000000000000000000000000000000000000001",
                    "decodedMethod": {
                        "callParams": [
                            {
                                "name": "_module",
                                "type": "address",
                                "value": "0x8c887cab3b980d826f1e5a996545f51390dc912f"
                            },
                            {
                                "name": "_value",
                                "type": "bool",
                                "value": true
                            }
                        ],
                        "constructorArguments": "",
                        "name": "authoriseModule",
                        "returnParams": [],
                        "signature": "authoriseModule(address,bool)"
                    },
                    "errorInfo": "",
                    "fromAddress": "0x645ba45dbe3c6942c812a46f9ee8115c89b524ec",
                    "gasUsed": 105756,
                    "id": 10,
                    "methodDecoded": true,
                    "operation": "CALL",
                    "output": "",
                    "revert": false,
                    "revertMessage": "",
                    "selector": "0x1f17732d",
                    "status": true,
                    "value": "0"
                },
                "nodeType": 0
            },
            "11": {
                "invocation": {
                    "address": "0xb1dd690cc9af7bb1a906a9b5a94f94191cc553ce",
                    "callData": "0x0000000000000000000000008c887cab3b980d826f1e5a996545f51390dc912f0000000000000000000000000000000000000000000000000000000000000001",
                    "decodedMethod": {
                        "callParams": [
                            {
                                "name": "_module",
                                "type": "address",
                                "value": "0x8c887cab3b980d826f1e5a996545f51390dc912f"
                            },
                            {
                                "name": "_value",
                                "type": "bool",
                                "value": true
                            }
                        ],
                        "constructorArguments": "",
                        "name": "authoriseModule",
                        "returnParams": [],
                        "signature": "authoriseModule(address,bool)"
                    },
                    "errorInfo": "",
                    "fromAddress": "0x79ef838b973a9b549b4c8a199ff52573769df53c",
                    "gasUsed": 105419,
                    "id": 11,
                    "methodDecoded": true,
                    "operation": "DELEGATECALL",
                    "output": "",
                    "revert": false,
                    "revertMessage": "",
                    "selector": "0x1f17732d",
                    "status": true,
                    "value": "0"
                },
                "nodeType": 0
            },
            "12": {
                "invocation": {
                    "address": "0x8c887cab3b980d826f1e5a996545f51390dc912f",
                    "callData": "0x00000000000000000000000079ef838b973a9b549b4c8a199ff52573769df53c",
                    "decodedMethod": {
                        "callParams": [
                            {
                                "name": "_wallet",
                                "type": "address",
                                "value": "0x79ef838b973a9b549b4c8a199ff52573769df53c"
                            }
                        ],
                        "constructorArguments": "",
                        "name": "init",
                        "returnParams": [],
                        "signature": "init(address)"
                    },
                    "errorInfo": "",
                    "fromAddress": "0x79ef838b973a9b549b4c8a199ff52573769df53c",
                    "gasUsed": 70938,
                    "id": 12,
                    "methodDecoded": true,
                    "operation": "CALL",
                    "output": "",
                    "revert": false,
                    "revertMessage": "",
                    "selector": "0x19ab453c",
                    "status": true,
                    "value": "0"
                },
                "nodeType": 0
            },
            "13": {
                "invocation": {
                    "address": "0xc17d432bd8e8850fd7b32b0270f5afac65db0105",
                    "callData": "0x000000000000000000000000000000000000000000000000000000000000002000000000000000000000000000000000000000000000000000000000000000010000000000000000000000009d58779365b067d5d3fcc6e92d237acd06f1e6a1",
                    "decodedMethod": {
                        "callParams": [
                            {
                                "name": "_modules",
                                "type": "address[]",
                                "value": [
                                    "0x9d58779365b067d5d3fcc6e92d237acd06f1e6a1"
                                ]
                            }
                        ],
                        "constructorArguments": "",
                        "name": "isRegisteredModule",
                        "returnParams": [
                            {
                                "name": "",
                                "type": "bool",
                                "value": true
                            }
                        ],
                        "signature": "isRegisteredModule(address[])"
                    },
                    "errorInfo": "",
                    "fromAddress": "0x8c887cab3b980d826f1e5a996545f51390dc912f",
                    "gasUsed": 2763,
                    "id": 13,
                    "methodDecoded": true,
                    "operation": "STATICCALL",
                    "output": "0x0000000000000000000000000000000000000000000000000000000000000001",
                    "revert": false,
                    "revertMessage": "",
                    "selector": "0x6bb18a54",
                    "status": true,
                    "value": "0"
                },
                "nodeType": 0
            },
            "14": {
                "invocation": {
                    "address": "0x79ef838b973a9b549b4c8a199ff52573769df53c",
                    "callData": "0x0000000000000000000000009d58779365b067d5d3fcc6e92d237acd06f1e6a10000000000000000000000000000000000000000000000000000000000000001",
                    "decodedMethod": {
                        "callParams": [
                            {
                                "name": "_module",
                                "type": "address",
                                "value": "0x9d58779365b067d5d3fcc6e92d237acd06f1e6a1"
                            },
                            {
                                "name": "_value",
                                "type": "bool",
                                "value": true
                            }
                        ],
                        "constructorArguments": "",
                        "name": "authoriseModule",
                        "returnParams": [],
                        "signature": "authoriseModule(address,bool)"
                    },
                    "errorInfo": "",
                    "fromAddress": "0x8c887cab3b980d826f1e5a996545f51390dc912f",
                    "gasUsed": 44929,
                    "id": 14,
                    "methodDecoded": true,
                    "operation": "CALL",
                    "output": "",
                    "revert": false,
                    "revertMessage": "",
                    "selector": "0x1f17732d",
                    "status": true,
                    "value": "0"
                },
                "nodeType": 0
            },
            "15": {
                "invocation": {
                    "address": "0xb1dd690cc9af7bb1a906a9b5a94f94191cc553ce",
                    "callData": "0x0000000000000000000000009d58779365b067d5d3fcc6e92d237acd06f1e6a10000000000000000000000000000000000000000000000000000000000000001",
                    "decodedMethod": {
                        "callParams": [
                            {
                                "name": "_module",
                                "type": "address",
                                "value": "0x9d58779365b067d5d3fcc6e92d237acd06f1e6a1"
                            },
                            {
                                "name": "_value",
                                "type": "bool",
                                "value": true
                            }
                        ],
                        "constructorArguments": "",
                        "name": "authoriseModule",
                        "returnParams": [],
                        "signature": "authoriseModule(address,bool)"
                    },
                    "errorInfo": "",
                    "fromAddress": "0x79ef838b973a9b549b4c8a199ff52573769df53c",
                    "gasUsed": 44592,
                    "id": 15,
                    "methodDecoded": true,
                    "operation": "DELEGATECALL",
                    "output": "",
                    "revert": false,
                    "revertMessage": "",
                    "selector": "0x1f17732d",
                    "status": true,
                    "value": "0"
                },
                "nodeType": 0
            },
            "16": {
                "invocation": {
                    "address": "0x9d58779365b067d5d3fcc6e92d237acd06f1e6a1",
                    "callData": "0x00000000000000000000000079ef838b973a9b549b4c8a199ff52573769df53c",
                    "decodedMethod": {
                        "callParams": [
                            {
                                "name": "_wallet",
                                "type": "address",
                                "value": "0x79ef838b973a9b549b4c8a199ff52573769df53c"
                            }
                        ],
                        "constructorArguments": "",
                        "name": "init",
                        "returnParams": [],
                        "signature": "init(address)"
                    },
                    "errorInfo": "",
                    "fromAddress": "0x79ef838b973a9b549b4c8a199ff52573769df53c",
                    "gasUsed": 16911,
                    "id": 16,
                    "methodDecoded": true,
                    "operation": "CALL",
                    "output": "",
                    "revert": false,
                    "revertMessage": "",
                    "selector": "0x19ab453c",
                    "status": true,
                    "value": "0"
                },
                "nodeType": 0
            },
            "17": {
                "invocation": {
                    "address": "0x79ef838b973a9b549b4c8a199ff52573769df53c",
                    "callData": "0x0000000000000000000000009d58779365b067d5d3fcc6e92d237acd06f1e6a11626ba7e00000000000000000000000000000000000000000000000000000000",
                    "decodedMethod": {
                        "callParams": [
                            {
                                "name": "_module",
                                "type": "address",
                                "value": "0x9d58779365b067d5d3fcc6e92d237acd06f1e6a1"
                            },
                            {
                                "name": "_method",
                                "type": "bytes4",
                                "value": "0x1626ba7e"
                            }
                        ],
                        "constructorArguments": "",
                        "name": "enableStaticCall",
                        "returnParams": [],
                        "signature": "enableStaticCall(address,bytes4)"
                    },
                    "errorInfo": "",
                    "fromAddress": "0x9d58779365b067d5d3fcc6e92d237acd06f1e6a1",
                    "gasUsed": 7760,
                    "id": 17,
                    "methodDecoded": true,
                    "operation": "CALL",
                    "output": "",
                    "revert": false,
                    "revertMessage": "",
                    "selector": "0x13da30b2",
                    "status": true,
                    "value": "0"
                },
                "nodeType": 0
            },
            "18": {
                "invocation": {
                    "address": "0xb1dd690cc9af7bb1a906a9b5a94f94191cc553ce",
                    "callData": "0x0000000000000000000000009d58779365b067d5d3fcc6e92d237acd06f1e6a11626ba7e00000000000000000000000000000000000000000000000000000000",
                    "decodedMethod": {
                        "callParams": [
                            {
                                "name": "_module",
                                "type": "address",
                                "value": "0x9d58779365b067d5d3fcc6e92d237acd06f1e6a1"
                            },
                            {
                                "name": "_method",
                                "type": "bytes4",
                                "value": "0x1626ba7e"
                            }
                        ],
                        "constructorArguments": "",
                        "name": "enableStaticCall",
                        "returnParams": [],
                        "signature": "enableStaticCall(address,bytes4)"
                    },
                    "errorInfo": "",
                    "fromAddress": "0x79ef838b973a9b549b4c8a199ff52573769df53c",
                    "gasUsed": 7423,
                    "id": 18,
                    "methodDecoded": true,
                    "operation": "DELEGATECALL",
                    "output": "",
                    "revert": false,
                    "revertMessage": "",
                    "selector": "0x13da30b2",
                    "status": true,
                    "value": "0"
                },
                "nodeType": 0
            },
            "19": {
                "event": {
                    "contract": "0x79ef838b973a9b549b4c8a199ff52573769df53c",
                    "decodedLog": {
                        "name": "EnabledStaticCall",
                        "params": [
                            {
                                "name": "module",
                                "type": "address",
                                "value": "0x9d58779365b067d5d3fcc6e92d237acd06f1e6a1"
                            },
                            {
                                "name": "method",
                                "type": "bytes4",
                                "value": "0x1626ba7e"
                            }
                        ],
                        "signature": "EnabledStaticCall(address,bytes4)"
                    },
                    "id": 19,
                    "logData": "0x",
                    "logDecoded": true,
                    "operation": "EVENT",
                    "revert": false,
                    "status": true,
                    "topics": [
                        "0xd04b9de96b5ba21173fd97c509db394c9e07a59ffb10c26da7f6ce38a8102fcb",
                        "0x0000000000000000000000009d58779365b067d5d3fcc6e92d237acd06f1e6a1",
                        "0x1626ba7e00000000000000000000000000000000000000000000000000000000"
                    ]
                },
                "nodeType": 1
            },
            "2": {
                "invocation": {
                    "address": "0x645ba45dbe3c6942c812a46f9ee8115c89b524ec",
                    "callData": "0x00000000000000000000000079ef838b973a9b549b4c8a199ff52573769df53c000000000000000000000000000000000000000000000000000000000000004000000000000000000000000000000000000000000000000000000000000000445a1db8c400000000000000000000000079ef838b973a9b549b4c8a199ff52573769df53c0000000000000000000000008c887cab3b980d826f1e5a996545f51390dc912f00000000000000000000000000000000000000000000000000000000",
                    "decodedMethod": {
                        "callParams": [
                            {
                                "name": "",
                                "type": "address",
                                "value": "0x79ef838b973a9b549b4c8a199ff52573769df53c"
                            },
                            {
                                "name": "_data",
                                "type": "bytes",
                                "value": "0x5a1db8c400000000000000000000000079ef838b973a9b549b4c8a199ff52573769df53c0000000000000000000000008c887cab3b980d826f1e5a996545f51390dc912f"
                            }
                        ],
                        "constructorArguments": "",
                        "name": "getRequiredSignatures",
                        "returnParams": [
                            {
                                "name": "",
                                "type": "uint256",
                                "value": "1"
                            },
                            {
                                "name": "",
                                "type": "uint8",
                                "value": "1"
                            }
                        ],
                        "signature": "getRequiredSignatures(address,bytes)"
                    },
                    "errorInfo": "",
                    "fromAddress": "0x10a0847c2d170008ddca7c3a688124f493630032",
                    "gasUsed": 1080,
                    "id": 2,
                    "methodDecoded": true,
                    "operation": "STATICCALL",
                    "output": "0x00000000000000000000000000000000000000000000000000000000000000010000000000000000000000000000000000000000000000000000000000000001",
                    "revert": false,
                    "revertMessage": "",
                    "selector": "0x3b73d67f",
                    "status": true,
                    "value": "0"
                },
                "nodeType": 0
            },
            "20": {
                "invocation": {
                    "address": "0x79ef838b973a9b549b4c8a199ff52573769df53c",
                    "callData": "0x0000000000000000000000009d58779365b067d5d3fcc6e92d237acd06f1e6a1150b7a0200000000000000000000000000000000000000000000000000000000",
                    "decodedMethod": {
                        "callParams": [
                            {
                                "name": "_module",
                                "type": "address",
                                "value": "0x9d58779365b067d5d3fcc6e92d237acd06f1e6a1"
                            },
                            {
                                "name": "_method",
                                "type": "bytes4",
                                "value": "0x150b7a02"
                            }
                        ],
                        "constructorArguments": "",
                        "name": "enableStaticCall",
                        "returnParams": [],
                        "signature": "enableStaticCall(address,bytes4)"
                    },
                    "errorInfo": "",
                    "fromAddress": "0x9d58779365b067d5d3fcc6e92d237acd06f1e6a1",
                    "gasUsed": 7760,
                    "id": 20,
                    "methodDecoded": true,
                    "operation": "CALL",
                    "output": "",
                    "revert": false,
                    "revertMessage": "",
                    "selector": "0x13da30b2",
                    "status": true,
                    "value": "0"
                },
                "nodeType": 0
            },
            "21": {
                "invocation": {
                    "address": "0xb1dd690cc9af7bb1a906a9b5a94f94191cc553ce",
                    "callData": "0x0000000000000000000000009d58779365b067d5d3fcc6e92d237acd06f1e6a1150b7a0200000000000000000000000000000000000000000000000000000000",
                    "decodedMethod": {
                        "callParams": [
                            {
                                "name": "_module",
                                "type": "address",
                                "value": "0x9d58779365b067d5d3fcc6e92d237acd06f1e6a1"
                            },
                            {
                                "name": "_method",
                                "type": "bytes4",
                                "value": "0x150b7a02"
                            }
                        ],
                        "constructorArguments": "",
                        "name": "enableStaticCall",
                        "returnParams": [],
                        "signature": "enableStaticCall(address,bytes4)"
                    },
                    "errorInfo": "",
                    "fromAddress": "0x79ef838b973a9b549b4c8a199ff52573769df53c",
                    "gasUsed": 7423,
                    "id": 21,
                    "methodDecoded": true,
                    "operation": "DELEGATECALL",
                    "output": "",
                    "revert": false,
                    "revertMessage": "",
                    "selector": "0x13da30b2",
                    "status": true,
                    "value": "0"
                },
                "nodeType": 0
            },
            "22": {
                "event": {
                    "contract": "0x79ef838b973a9b549b4c8a199ff52573769df53c",
                    "decodedLog": {
                        "name": "EnabledStaticCall",
                        "params": [
                            {
                                "name": "module",
                                "type": "address",
                                "value": "0x9d58779365b067d5d3fcc6e92d237acd06f1e6a1"
                            },
                            {
                                "name": "method",
                                "type": "bytes4",
                                "value": "0x150b7a02"
                            }
                        ],
                        "signature": "EnabledStaticCall(address,bytes4)"
                    },
                    "id": 22,
                    "logData": "0x",
                    "logDecoded": true,
                    "operation": "EVENT",
                    "revert": false,
                    "status": true,
                    "topics": [
                        "0xd04b9de96b5ba21173fd97c509db394c9e07a59ffb10c26da7f6ce38a8102fcb",
                        "0x0000000000000000000000009d58779365b067d5d3fcc6e92d237acd06f1e6a1",
                        "0x150b7a0200000000000000000000000000000000000000000000000000000000"
                    ]
                },
                "nodeType": 1
            },
            "23": {
                "event": {
                    "contract": "0x79ef838b973a9b549b4c8a199ff52573769df53c",
                    "decodedLog": {
                        "name": "AuthorisedModule",
                        "params": [
                            {
                                "name": "module",
                                "type": "address",
                                "value": "0x9d58779365b067d5d3fcc6e92d237acd06f1e6a1"
                            },
                            {
                                "name": "value",
                                "type": "bool",
                                "value": true
                            }
                        ],
                        "signature": "AuthorisedModule(address,bool)"
                    },
                    "id": 23,
                    "logData": "0x0000000000000000000000000000000000000000000000000000000000000001",
                    "logDecoded": true,
                    "operation": "EVENT",
                    "revert": false,
                    "status": true,
                    "topics": [
                        "0x8da3ff870ae294081392139550e167f1f31f277f22015ee22fbffdbd7758f4e1",
                        "0x0000000000000000000000009d58779365b067d5d3fcc6e92d237acd06f1e6a1"
                    ]
                },
                "nodeType": 1
            },
            "24": {
                "invocation": {
                    "address": "0x79ef838b973a9b549b4c8a199ff52573769df53c",
                    "callData": "0x000000000000000000000000645ba45dbe3c6942c812a46f9ee8115c89b524ec0000000000000000000000000000000000000000000000000000000000000000",
                    "decodedMethod": {
                        "callParams": [
                            {
                                "name": "_module",
                                "type": "address",
                                "value": "0x645ba45dbe3c6942c812a46f9ee8115c89b524ec"
                            },
                            {
                                "name": "_value",
                                "type": "bool",
                                "value": false
                            }
                        ],
                        "constructorArguments": "",
                        "name": "authoriseModule",
                        "returnParams": [],
                        "signature": "authoriseModule(address,bool)"
                    },
                    "errorInfo": "",
                    "fromAddress": "0x8c887cab3b980d826f1e5a996545f51390dc912f",
                    "gasUsed": 6054,
                    "id": 24,
                    "methodDecoded": true,
                    "operation": "CALL",
                    "output": "",
                    "revert": false,
                    "revertMessage": "",
                    "selector": "0x1f17732d",
                    "status": true,
                    "value": "0"
                },
                "nodeType": 0
            },
            "25": {
                "invocation": {
                    "address": "0xb1dd690cc9af7bb1a906a9b5a94f94191cc553ce",
                    "callData": "0x000000000000000000000000645ba45dbe3c6942c812a46f9ee8115c89b524ec0000000000000000000000000000000000000000000000000000000000000000",
                    "decodedMethod": {
                        "callParams": [
                            {
                                "name": "_module",
                                "type": "address",
                                "value": "0x645ba45dbe3c6942c812a46f9ee8115c89b524ec"
                            },
                            {
                                "name": "_value",
                                "type": "bool",
                                "value": false
                            }
                        ],
                        "constructorArguments": "",
                        "name": "authoriseModule",
                        "returnParams": [],
                        "signature": "authoriseModule(address,bool)"
                    },
                    "errorInfo": "",
                    "fromAddress": "0x79ef838b973a9b549b4c8a199ff52573769df53c",
                    "gasUsed": 5717,
                    "id": 25,
                    "methodDecoded": true,
                    "operation": "DELEGATECALL",
                    "output": "",
                    "revert": false,
                    "revertMessage": "",
                    "selector": "0x1f17732d",
                    "status": true,
                    "value": "0"
                },
                "nodeType": 0
            },
            "26": {
                "event": {
                    "contract": "0x79ef838b973a9b549b4c8a199ff52573769df53c",
                    "decodedLog": {
                        "name": "AuthorisedModule",
                        "params": [
                            {
                                "name": "module",
                                "type": "address",
                                "value": "0x645ba45dbe3c6942c812a46f9ee8115c89b524ec"
                            },
                            {
                                "name": "value",
                                "type": "bool",
                                "value": false
                            }
                        ],
                        "signature": "AuthorisedModule(address,bool)"
                    },
                    "id": 26,
                    "logData": "0x0000000000000000000000000000000000000000000000000000000000000000",
                    "logDecoded": true,
                    "operation": "EVENT",
                    "revert": false,
                    "status": true,
                    "topics": [
                        "0x8da3ff870ae294081392139550e167f1f31f277f22015ee22fbffdbd7758f4e1",
                        "0x000000000000000000000000645ba45dbe3c6942c812a46f9ee8115c89b524ec"
                    ]
                },
                "nodeType": 1
            },
            "27": {
                "invocation": {
                    "address": "0x79ef838b973a9b549b4c8a199ff52573769df53c",
                    "callData": "0x0000000000000000000000008c887cab3b980d826f1e5a996545f51390dc912f0000000000000000000000000000000000000000000000000000000000000000",
                    "decodedMethod": {
                        "callParams": [
                            {
                                "name": "_module",
                                "type": "address",
                                "value": "0x8c887cab3b980d826f1e5a996545f51390dc912f"
                            },
                            {
                                "name": "_value",
                                "type": "bool",
                                "value": false
                            }
                        ],
                        "constructorArguments": "",
                        "name": "authoriseModule",
                        "returnParams": [],
                        "signature": "authoriseModule(address,bool)"
                    },
                    "errorInfo": "",
                    "fromAddress": "0x8c887cab3b980d826f1e5a996545f51390dc912f",
                    "gasUsed": 3254,
                    "id": 27,
                    "methodDecoded": true,
                    "operation": "CALL",
                    "output": "",
                    "revert": false,
                    "revertMessage": "",
                    "selector": "0x1f17732d",
                    "status": true,
                    "value": "0"
                },
                "nodeType": 0
            },
            "28": {
                "invocation": {
                    "address": "0xb1dd690cc9af7bb1a906a9b5a94f94191cc553ce",
                    "callData": "0x0000000000000000000000008c887cab3b980d826f1e5a996545f51390dc912f0000000000000000000000000000000000000000000000000000000000000000",
                    "decodedMethod": {
                        "callParams": [
                            {
                                "name": "_module",
                                "type": "address",
                                "value": "0x8c887cab3b980d826f1e5a996545f51390dc912f"
                            },
                            {
                                "name": "_value",
                                "type": "bool",
                                "value": false
                            }
                        ],
                        "constructorArguments": "",
                        "name": "authoriseModule",
                        "returnParams": [],
                        "signature": "authoriseModule(address,bool)"
                    },
                    "errorInfo": "",
                    "fromAddress": "0x79ef838b973a9b549b4c8a199ff52573769df53c",
                    "gasUsed": 2917,
                    "id": 28,
                    "methodDecoded": true,
                    "operation": "DELEGATECALL",
                    "output": "",
                    "revert": false,
                    "revertMessage": "",
                    "selector": "0x1f17732d",
                    "status": true,
                    "value": "0"
                },
                "nodeType": 0
            },
            "29": {
                "event": {
                    "contract": "0x79ef838b973a9b549b4c8a199ff52573769df53c",
                    "decodedLog": {
                        "name": "AuthorisedModule",
                        "params": [
                            {
                                "name": "module",
                                "type": "address",
                                "value": "0x8c887cab3b980d826f1e5a996545f51390dc912f"
                            },
                            {
                                "name": "value",
                                "type": "bool",
                                "value": false
                            }
                        ],
                        "signature": "AuthorisedModule(address,bool)"
                    },
                    "id": 29,
                    "logData": "0x0000000000000000000000000000000000000000000000000000000000000000",
                    "logDecoded": true,
                    "operation": "EVENT",
                    "revert": false,
                    "status": true,
                    "topics": [
                        "0x8da3ff870ae294081392139550e167f1f31f277f22015ee22fbffdbd7758f4e1",
                        "0x0000000000000000000000008c887cab3b980d826f1e5a996545f51390dc912f"
                    ]
                },
                "nodeType": 1
            },
            "3": {
                "invocation": {
                    "address": "0x0000000000000000000000000000000000000001",
                    "callData": "0x22886333740fc2caf866a9abdb5aeb13a7217b1af3a35b1e36b10bbd000000000000000000000000000000000000000000000000000000000000001c5eb0773af926a4c8324dedbcf35d1fad731063a509fbe826e60b1278f6d51c014503cc18d87fb63408e1bc22ef2f75b571d51169ebaf306cb6714ad3dbfa7532",
                    "decodedMethod": {
                        "callParams": [
                            {
                                "name": "hash",
                                "type": "bytes32",
                                "value": "0xf4fb959722886333740fc2caf866a9abdb5aeb13a7217b1af3a35b1e36b10bbd"
                            },
                            {
                                "name": "v",
                                "type": "uint256",
                                "value": "28"
                            },
                            {
                                "name": "r",
                                "type": "bytes32",
                                "value": "0x5eb0773af926a4c8324dedbcf35d1fad731063a509fbe826e60b1278f6d51c01"
                            },
                            {
                                "name": "s",
                                "type": "bytes32",
                                "value": "0x4503cc18d87fb63408e1bc22ef2f75b571d51169ebaf306cb6714ad3dbfa7532"
                            }
                        ],
                        "constructorArguments": "",
                        "name": "ecrecover",
                        "returnParams": [
                            {
                                "name": "",
                                "type": "address",
                                "value": "0xdfb4d2e9d1bd438ae58e60fa0685c8df420b1bf6"
                            }
                        ],
                        "signature": "ecrecover(bytes32,uint256,bytes32,bytes32)"
                    },
                    "errorInfo": "",
                    "fromAddress": "0x10a0847c2d170008ddca7c3a688124f493630032",
                    "gasUsed": 3000,
                    "id": 3,
                    "methodDecoded": true,
                    "operation": "STATICCALL",
                    "output": "0x000000000000000000000000dfb4d2e9d1bd438ae58e60fa0685c8df420b1bf6",
                    "revert": false,
                    "revertMessage": "",
                    "selector": "0xf4fb9597",
                    "status": true,
                    "value": "0"
                },
                "nodeType": 0
            },
            "30": {
                "event": {
                    "contract": "0x79ef838b973a9b549b4c8a199ff52573769df53c",
                    "decodedLog": {
                        "name": "AuthorisedModule",
                        "params": [
                            {
                                "name": "module",
                                "type": "address",
                                "value": "0x8c887cab3b980d826f1e5a996545f51390dc912f"
                            },
                            {
                                "name": "value",
                                "type": "bool",
                                "value": true
                            }
                        ],
                        "signature": "AuthorisedModule(address,bool)"
                    },
                    "id": 30,
                    "logData": "0x0000000000000000000000000000000000000000000000000000000000000001",
                    "logDecoded": true,
                    "operation": "EVENT",
                    "revert": false,
                    "status": true,
                    "topics": [
                        "0x8da3ff870ae294081392139550e167f1f31f277f22015ee22fbffdbd7758f4e1",
                        "0x0000000000000000000000008c887cab3b980d826f1e5a996545f51390dc912f"
                    ]
                },
                "nodeType": 1
            },
            "31": {
                "event": {
                    "contract": "0x10a0847c2d170008ddca7c3a688124f493630032",
                    "decodedLog": {
                        "name": "TransactionExecuted",
                        "params": [
                            {
                                "name": "wallet",
                                "type": "address",
                                "value": "0x79ef838b973a9b549b4c8a199ff52573769df53c"
                            },
                            {
                                "name": "success",
                                "type": "bool",
                                "value": true
                            },
                            {
                                "name": "returnData",
                                "type": "bytes",
                                "value": "0x"
                            },
                            {
                                "name": "signedHash",
                                "type": "bytes32",
                                "value": "0xf4fb959722886333740fc2caf866a9abdb5aeb13a7217b1af3a35b1e36b10bbd"
                            }
                        ],
                        "signature": "TransactionExecuted(address,bool,bytes,bytes32)"
                    },
                    "id": 31,
                    "logData": "0x0000000000000000000000000000000000000000000000000000000000000040f4fb959722886333740fc2caf866a9abdb5aeb13a7217b1af3a35b1e36b10bbd0000000000000000000000000000000000000000000000000000000000000000",
                    "logDecoded": true,
                    "operation": "EVENT",
                    "revert": false,
                    "status": true,
                    "topics": [
                        "0x7da4525a280527268ba2e963ee6c1b18f43c9507bcb1d2560f652ab17c76e90a",
                        "0x00000000000000000000000079ef838b973a9b549b4c8a199ff52573769df53c",
                        "0x0000000000000000000000000000000000000000000000000000000000000001"
                    ]
                },
                "nodeType": 1
            },
            "4": {
                "invocation": {
                    "address": "0x79ef838b973a9b549b4c8a199ff52573769df53c",
                    "callData": "0x",
                    "decodedMethod": {
                        "callParams": [],
                        "constructorArguments": "",
                        "name": "owner",
                        "returnParams": [
                            {
                                "name": "",
                                "type": "address",
                                "value": "0xdfb4d2e9d1bd438ae58e60fa0685c8df420b1bf6"
                            }
                        ],
                        "signature": "owner()"
                    },
                    "errorInfo": "",
                    "fromAddress": "0x10a0847c2d170008ddca7c3a688124f493630032",
                    "gasUsed": 7403,
                    "id": 4,
                    "methodDecoded": true,
                    "operation": "STATICCALL",
                    "output": "0x000000000000000000000000dfb4d2e9d1bd438ae58e60fa0685c8df420b1bf6",
                    "revert": false,
                    "revertMessage": "",
                    "selector": "0x8da5cb5b",
                    "status": true,
                    "value": "0"
                },
                "nodeType": 0
            },
            "5": {
                "invocation": {
                    "address": "0xb1dd690cc9af7bb1a906a9b5a94f94191cc553ce",
                    "callData": "0x",
                    "decodedMethod": {
                        "callParams": [],
                        "constructorArguments": "",
                        "name": "owner",
                        "returnParams": [
                            {
                                "name": "",
                                "type": "address",
                                "value": "0xdfb4d2e9d1bd438ae58e60fa0685c8df420b1bf6"
                            }
                        ],
                        "signature": "owner()"
                    },
                    "errorInfo": "",
                    "fromAddress": "0x79ef838b973a9b549b4c8a199ff52573769df53c",
                    "gasUsed": 2569,
                    "id": 5,
                    "methodDecoded": true,
                    "operation": "DELEGATECALL",
                    "output": "0x000000000000000000000000dfb4d2e9d1bd438ae58e60fa0685c8df420b1bf6",
                    "revert": false,
                    "revertMessage": "",
                    "selector": "0x8da5cb5b",
                    "status": true,
                    "value": "0"
                },
                "nodeType": 0
            },
            "6": {
                "invocation": {
                    "address": "0x645ba45dbe3c6942c812a46f9ee8115c89b524ec",
                    "callData": "0x00000000000000000000000079ef838b973a9b549b4c8a199ff52573769df53c0000000000000000000000008c887cab3b980d826f1e5a996545f51390dc912f",
                    "decodedMethod": {
                        "callParams": [
                            {
                                "name": "_wallet",
                                "type": "address",
                                "value": "0x79ef838b973a9b549b4c8a199ff52573769df53c"
                            },
                            {
                                "name": "_module",
                                "type": "address",
                                "value": "0x8c887cab3b980d826f1e5a996545f51390dc912f"
                            }
                        ],
                        "constructorArguments": "",
                        "name": "addModule",
                        "returnParams": [],
                        "signature": "addModule(address,address)"
                    },
                    "errorInfo": "",
                    "fromAddress": "0x10a0847c2d170008ddca7c3a688124f493630032",
                    "gasUsed": 127938,
                    "id": 6,
                    "methodDecoded": true,
                    "operation": "CALL",
                    "output": "",
                    "revert": false,
                    "revertMessage": "",
                    "selector": "0x5a1db8c4",
                    "status": true,
                    "value": "0"
                },
                "nodeType": 0
            },
            "7": {
                "invocation": {
                    "address": "0x645ba45dbe3c6942c812a46f9ee8115c89b524ec",
                    "callData": "0x00000000000000000000000079ef838b973a9b549b4c8a199ff52573769df53c00000000000000000000000010a0847c2d170008ddca7c3a688124f493630032",
                    "decodedMethod": {
                        "callParams": [
                            {
                                "name": "_wallet",
                                "type": "address",
                                "value": "0x79ef838b973a9b549b4c8a199ff52573769df53c"
                            },
                            {
                                "name": "_feature",
                                "type": "address",
                                "value": "0x10a0847c2d170008ddca7c3a688124f493630032"
                            }
                        ],
                        "constructorArguments": "",
                        "name": "isFeatureAuthorised",
                        "returnParams": [
                            {
                                "name": "",
                                "type": "bool",
                                "value": true
                            }
                        ],
                        "signature": "isFeatureAuthorised(address,address)"
                    },
                    "errorInfo": "",
                    "fromAddress": "0x645ba45dbe3c6942c812a46f9ee8115c89b524ec",
                    "gasUsed": 3084,
                    "id": 7,
                    "methodDecoded": true,
                    "operation": "STATICCALL",
                    "output": "0x0000000000000000000000000000000000000000000000000000000000000001",
                    "revert": false,
                    "revertMessage": "",
                    "selector": "0x5a51fd43",
                    "status": true,
                    "value": "0"
                },
                "nodeType": 0
            },
            "8": {
                "invocation": {
                    "address": "0xf657bb6bc979bf34d49e38afba34d5fd2a45b0ca",
                    "callData": "0x00000000000000000000000079ef838b973a9b549b4c8a199ff52573769df53c",
                    "decodedMethod": {
                        "callParams": [
                            {
                                "name": "_wallet",
                                "type": "address",
                                "value": "0x79ef838b973a9b549b4c8a199ff52573769df53c"
                            }
                        ],
                        "constructorArguments": "",
                        "name": "isLocked",
                        "returnParams": [
                            {
                                "name": "",
                                "type": "bool",
                                "value": false
                            }
                        ],
                        "signature": "isLocked(address)"
                    },
                    "errorInfo": "",
                    "fromAddress": "0x645ba45dbe3c6942c812a46f9ee8115c89b524ec",
                    "gasUsed": 2434,
                    "id": 8,
                    "methodDecoded": true,
                    "operation": "STATICCALL",
                    "output": "0x0000000000000000000000000000000000000000000000000000000000000000",
                    "revert": false,
                    "revertMessage": "",
                    "selector": "0x4a4fbeec",
                    "status": true,
                    "value": "0"
                },
                "nodeType": 0
            },
            "9": {
                "invocation": {
                    "address": "0xc17d432bd8e8850fd7b32b0270f5afac65db0105",
                    "callData": "0x0000000000000000000000008c887cab3b980d826f1e5a996545f51390dc912f",
                    "decodedMethod": {
                        "callParams": [
                            {
                                "name": "_module",
                                "type": "address",
                                "value": "0x8c887cab3b980d826f1e5a996545f51390dc912f"
                            }
                        ],
                        "constructorArguments": "",
                        "name": "isRegisteredModule",
                        "returnParams": [
                            {
                                "name": "",
                                "type": "bool",
                                "value": true
                            }
                        ],
                        "signature": "isRegisteredModule(address)"
                    },
                    "errorInfo": "",
                    "fromAddress": "0x645ba45dbe3c6942c812a46f9ee8115c89b524ec",
                    "gasUsed": 2518,
                    "id": 9,
                    "methodDecoded": true,
                    "operation": "STATICCALL",
                    "output": "0x0000000000000000000000000000000000000000000000000000000000000001",
                    "revert": false,
                    "revertMessage": "",
                    "selector": "0x0bcd4ebb",
                    "status": true,
                    "value": "0"
                },
                "nodeType": 0
            }
        },
        "gasFlame": [
            {
                "children": [
                    {
                        "children": [
                            {
                                "children": [],
                                "depth": 0,
                                "name": "Initial Gas",
                                "value": 25184
                            },
                            {
                                "children": [
                                    {
                                        "children": [],
                                        "depth": 1,
                                        "name": "isFeatureAuthorised",
                                        "value": 5112
                                    },
                                    {
                                        "children": [],
                                        "depth": 1,
                                        "name": "getRequiredSignatures",
                                        "value": 1080
                                    },
                                    {
                                        "children": [],
                                        "depth": 1,
                                        "name": "ecrecover",
                                        "value": 3000
                                    },
                                    {
                                        "children": [
                                            {
                                                "children": [],
                                                "depth": 2,
                                                "name": "owner",
                                                "value": 2569
                                            }
                                        ],
                                        "depth": 1,
                                        "name": "owner",
                                        "value": 7403
                                    },
                                    {
                                        "children": [
                                            {
                                                "children": [],
                                                "depth": 2,
                                                "name": "isFeatureAuthorised",
                                                "value": 3084
                                            },
                                            {
                                                "children": [],
                                                "depth": 2,
                                                "name": "isLocked",
                                                "value": 2434
                                            },
                                            {
                                                "children": [],
                                                "depth": 2,
                                                "name": "isRegisteredModule",
                                                "value": 2518
                                            },
                                            {
                                                "children": [
                                                    {
                                                        "children": [
                                                            {
                                                                "children": [
                                                                    {
                                                                        "children": [],
                                                                        "depth": 5,
                                                                        "name": "isRegisteredModule",
                                                                        "value": 2763
                                                                    },
                                                                    {
                                                                        "children": [
                                                                            {
                                                                                "children": [
                                                                                    {
                                                                                        "children": [
                                                                                            {
                                                                                                "children": [
                                                                                                    {
                                                                                                        "children": [],
                                                                                                        "depth": 9,
                                                                                                        "name": "enableStaticCall",
                                                                                                        "value": 7423
                                                                                                    }
                                                                                                ],
                                                                                                "depth": 8,
                                                                                                "name": "enableStaticCall",
                                                                                                "value": 7760
                                                                                            },
                                                                                            {
                                                                                                "children": [
                                                                                                    {
                                                                                                        "children": [],
                                                                                                        "depth": 9,
                                                                                                        "name": "enableStaticCall",
                                                                                                        "value": 7423
                                                                                                    }
                                                                                                ],
                                                                                                "depth": 8,
                                                                                                "name": "enableStaticCall",
                                                                                                "value": 7760
                                                                                            }
                                                                                        ],
                                                                                        "depth": 7,
                                                                                        "name": "init",
                                                                                        "value": 16911
                                                                                    }
                                                                                ],
                                                                                "depth": 6,
                                                                                "name": "authoriseModule",
                                                                                "value": 44592
                                                                            }
                                                                        ],
                                                                        "depth": 5,
                                                                        "name": "authoriseModule",
                                                                        "value": 44929
                                                                    },
                                                                    {
                                                                        "children": [
                                                                            {
                                                                                "children": [],
                                                                                "depth": 6,
                                                                                "name": "authoriseModule",
                                                                                "value": 5717
                                                                            }
                                                                        ],
                                                                        "depth": 5,
                                                                        "name": "authoriseModule",
                                                                        "value": 6054
                                                                    },
                                                                    {
                                                                        "children": [
                                                                            {
                                                                                "children": [],
                                                                                "depth": 6,
                                                                                "name": "authoriseModule",
                                                                                "value": 2917
                                                                            }
                                                                        ],
                                                                        "depth": 5,
                                                                        "name": "authoriseModule",
                                                                        "value": 3254
                                                                    }
                                                                ],
                                                                "depth": 4,
                                                                "name": "init",
                                                                "value": 70938
                                                            }
                                                        ],
                                                        "depth": 3,
                                                        "name": "authoriseModule",
                                                        "value": 105419
                                                    }
                                                ],
                                                "depth": 2,
                                                "name": "authoriseModule",
                                                "value": 105756
                                            }
                                        ],
                                        "depth": 1,
                                        "name": "addModule",
                                        "value": 127938
                                    }
                                ],
                                "depth": 0,
                                "name": "Executed Gas",
                                "value": 184065
                            }
                        ],
                        "depth": -1,
                        "name": "Actual Gas Used",
                        "value": 181749
                    },
                    {
                        "children": [],
                        "depth": -1,
                        "name": "Refunded Gas",
                        "value": 27500
                    }
                ],
                "depth": -2,
                "name": "Total Gas",
                "value": 209249
            }
        ],
        "isConfirmed": true,
        "mainTrace": [
            {
                "children": [
                    {
                        "children": [
                            {
                                "children": [],
                                "depth": 1,
                                "id": 1,
                                "order": 1
                            },
                            {
                                "children": [],
                                "depth": 1,
                                "id": 2,
                                "order": 2
                            },
                            {
                                "children": [],
                                "depth": 1,
                                "id": 3,
                                "order": 3
                            },
                            {
                                "children": [
                                    {
                                        "children": [],
                                        "depth": 2,
                                        "id": 5,
                                        "order": 5
                                    }
                                ],
                                "depth": 1,
                                "id": 4,
                                "order": 4
                            },
                            {
                                "children": [
                                    {
                                        "children": [],
                                        "depth": 2,
                                        "id": 7,
                                        "order": 7
                                    },
                                    {
                                        "children": [],
                                        "depth": 2,
                                        "id": 8,
                                        "order": 8
                                    },
                                    {
                                        "children": [],
                                        "depth": 2,
                                        "id": 9,
                                        "order": 9
                                    },
                                    {
                                        "children": [
                                            {
                                                "children": [
                                                    {
                                                        "children": [
                                                            {
                                                                "children": [],
                                                                "depth": 5,
                                                                "id": 13,
                                                                "order": 13
                                                            },
                                                            {
                                                                "children": [
                                                                    {
                                                                        "children": [
                                                                            {
                                                                                "children": [
                                                                                    {
                                                                                        "children": [
                                                                                            {
                                                                                                "children": [
                                                                                                    {
                                                                                                        "children": [],
                                                                                                        "depth": 10,
                                                                                                        "id": 19,
                                                                                                        "order": 19
                                                                                                    }
                                                                                                ],
                                                                                                "depth": 9,
                                                                                                "id": 18,
                                                                                                "order": 18
                                                                                            }
                                                                                        ],
                                                                                        "depth": 8,
                                                                                        "id": 17,
                                                                                        "order": 17
                                                                                    },
                                                                                    {
                                                                                        "children": [
                                                                                            {
                                                                                                "children": [
                                                                                                    {
                                                                                                        "children": [],
                                                                                                        "depth": 10,
                                                                                                        "id": 22,
                                                                                                        "order": 22
                                                                                                    }
                                                                                                ],
                                                                                                "depth": 9,
                                                                                                "id": 21,
                                                                                                "order": 21
                                                                                            }
                                                                                        ],
                                                                                        "depth": 8,
                                                                                        "id": 20,
                                                                                        "order": 20
                                                                                    }
                                                                                ],
                                                                                "depth": 7,
                                                                                "id": 16,
                                                                                "order": 16
                                                                            },
                                                                            {
                                                                                "children": [],
                                                                                "depth": 7,
                                                                                "id": 23,
                                                                                "order": 23
                                                                            }
                                                                        ],
                                                                        "depth": 6,
                                                                        "id": 15,
                                                                        "order": 15
                                                                    }
                                                                ],
                                                                "depth": 5,
                                                                "id": 14,
                                                                "order": 14
                                                            },
                                                            {
                                                                "children": [
                                                                    {
                                                                        "children": [
                                                                            {
                                                                                "children": [],
                                                                                "depth": 7,
                                                                                "id": 26,
                                                                                "order": 26
                                                                            }
                                                                        ],
                                                                        "depth": 6,
                                                                        "id": 25,
                                                                        "order": 25
                                                                    }
                                                                ],
                                                                "depth": 5,
                                                                "id": 24,
                                                                "order": 24
                                                            },
                                                            {
                                                                "children": [
                                                                    {
                                                                        "children": [
                                                                            {
                                                                                "children": [],
                                                                                "depth": 7,
                                                                                "id": 29,
                                                                                "order": 29
                                                                            }
                                                                        ],
                                                                        "depth": 6,
                                                                        "id": 28,
                                                                        "order": 28
                                                                    }
                                                                ],
                                                                "depth": 5,
                                                                "id": 27,
                                                                "order": 27
                                                            }
                                                        ],
                                                        "depth": 4,
                                                        "id": 12,
                                                        "order": 12
                                                    },
                                                    {
                                                        "children": [],
                                                        "depth": 4,
                                                        "id": 30,
                                                        "order": 30
                                                    }
                                                ],
                                                "depth": 3,
                                                "id": 11,
                                                "order": 11
                                            }
                                        ],
                                        "depth": 2,
                                        "id": 10,
                                        "order": 10
                                    }
                                ],
                                "depth": 1,
                                "id": 6,
                                "order": 6
                            },
                            {
                                "children": [],
                                "depth": 1,
                                "id": 31,
                                "order": 31
                            }
                        ],
                        "depth": 0,
                        "id": 0,
                        "order": 0
                    }
                ],
                "depth": -1,
                "id": -1,
                "order": -1
            }
        ],
        "mainTraceNodeCount": 32,
        "parentIdMap": {
            "0": -1,
            "1": 0,
            "10": 6,
            "11": 10,
            "12": 11,
            "13": 12,
            "14": 12,
            "15": 14,
            "16": 15,
            "17": 16,
            "18": 17,
            "19": 18,
            "2": 0,
            "20": 16,
            "21": 20,
            "22": 21,
            "23": 15,
            "24": 12,
            "25": 24,
            "26": 25,
            "27": 12,
            "28": 27,
            "29": 28,
            "3": 0,
            "30": 11,
            "31": 0,
            "4": 0,
            "5": 4,
            "6": 0,
            "7": 6,
            "8": 6,
            "9": 6
        },
        "tidyTrace": [
            {
                "children": [
                    {
                        "children": [
                            {
                                "children": [
                                    {
                                        "children": [
                                            {
                                                "children": [
                                                    {
                                                        "children": [
                                                            {
                                                                "children": [
                                                                    {
                                                                        "children": [
                                                                            {
                                                                                "children": [
                                                                                    {
                                                                                        "children": [
                                                                                            {
                                                                                                "children": [
                                                                                                    {
                                                                                                        "children": [],
                                                                                                        "depth": 10,
                                                                                                        "id": 19,
                                                                                                        "order": 19
                                                                                                    }
                                                                                                ],
                                                                                                "depth": 9,
                                                                                                "id": 18,
                                                                                                "order": 18
                                                                                            }
                                                                                        ],
                                                                                        "depth": 8,
                                                                                        "id": 17,
                                                                                        "order": 17
                                                                                    },
                                                                                    {
                                                                                        "children": [
                                                                                            {
                                                                                                "children": [
                                                                                                    {
                                                                                                        "children": [],
                                                                                                        "depth": 10,
                                                                                                        "id": 22,
                                                                                                        "order": 22
                                                                                                    }
                                                                                                ],
                                                                                                "depth": 9,
                                                                                                "id": 21,
                                                                                                "order": 21
                                                                                            }
                                                                                        ],
                                                                                        "depth": 8,
                                                                                        "id": 20,
                                                                                        "order": 20
                                                                                    }
                                                                                ],
                                                                                "depth": 7,
                                                                                "id": 16,
                                                                                "order": 16
                                                                            },
                                                                            {
                                                                                "children": [],
                                                                                "depth": 7,
                                                                                "id": 23,
                                                                                "order": 23
                                                                            }
                                                                        ],
                                                                        "depth": 6,
                                                                        "id": 15,
                                                                        "order": 15
                                                                    }
                                                                ],
                                                                "depth": 5,
                                                                "id": 14,
                                                                "order": 14
                                                            },
                                                            {
                                                                "children": [
                                                                    {
                                                                        "children": [
                                                                            {
                                                                                "children": [],
                                                                                "depth": 7,
                                                                                "id": 26,
                                                                                "order": 26
                                                                            }
                                                                        ],
                                                                        "depth": 6,
                                                                        "id": 25,
                                                                        "order": 25
                                                                    }
                                                                ],
                                                                "depth": 5,
                                                                "id": 24,
                                                                "order": 24
                                                            },
                                                            {
                                                                "children": [
                                                                    {
                                                                        "children": [
                                                                            {
                                                                                "children": [],
                                                                                "depth": 7,
                                                                                "id": 29,
                                                                                "order": 29
                                                                            }
                                                                        ],
                                                                        "depth": 6,
                                                                        "id": 28,
                                                                        "order": 28
                                                                    }
                                                                ],
                                                                "depth": 5,
                                                                "id": 27,
                                                                "order": 27
                                                            }
                                                        ],
                                                        "depth": 4,
                                                        "id": 12,
                                                        "order": 12
                                                    },
                                                    {
                                                        "children": [],
                                                        "depth": 4,
                                                        "id": 30,
                                                        "order": 30
                                                    }
                                                ],
                                                "depth": 3,
                                                "id": 11,
                                                "order": 11
                                            }
                                        ],
                                        "depth": 2,
                                        "id": 10,
                                        "order": 10
                                    }
                                ],
                                "depth": 1,
                                "id": 6,
                                "order": 6
                            },
                            {
                                "children": [],
                                "depth": 1,
                                "id": 31,
                                "order": 31
                            }
                        ],
                        "depth": 0,
                        "id": 0,
                        "order": 0
                    }
                ],
                "depth": -1,
                "id": -1,
                "order": -1
            }
        ],
        "tidyTraceNodeCount": 23
    },
    "state_change": {
        "stateChanges": [
            {
                "address": "0x10a0847c2d170008ddca7c3a688124f493630032",
                "erc": "",
                "slots": [
                    {
                        "current": "0x00000000000000000000000000ca04980000000000000000000000006143c459",
                        "key": "0x9e433dc58a03f56b042b5d74dddce6a4c175fde21bdc9b10454f9a8906702113",
                        "prev": "0x0000000000000000000000000000000000000000000000000000000000000000"
                    }
                ],
                "storageVariables": [
                    {
                        "name": "relayer",
                        "type": "mapping(address => struct RelayerManager.RelayerConfig)",
                        "value": {
                            "pairs": [
                                {
                                    "key": "0x79ef838b973a9b549b4c8a199ff52573769df53c",
                                    "value": {
                                        "fields": [
                                            {
                                                "name": "nonce",
                                                "type": "uint256",
                                                "value": {
                                                    "current": "4505150702166684898223248019613308785256547417",
                                                    "prev": "0",
                                                    "typeTag": 1
                                                }
                                            }
                                        ],
                                        "typeTag": 3
                                    }
                                }
                            ],
                            "typeTag": 4
                        }
                    }
                ]
            },
            {
                "address": "0x79ef838b973a9b549b4c8a199ff52573769df53c",
                "erc": "",
                "slots": [
                    {
                        "current": "0x0000000000000000000000000000000000000000000000000000000000000001",
                        "key": "0x2cd9ebfee75ba0e3d169914b2954f9962ae90490305e992b3d8c182e9022e4c5",
                        "prev": "0x0000000000000000000000000000000000000000000000000000000000000000"
                    },
                    {
                        "current": "0x0000000000000000000000009d58779365b067d5d3fcc6e92d237acd06f1e6a1",
                        "key": "0x7eea42db5736d0f8fad714413161b5b2b3ed2c35e208b0159b4bd318cf8b5931",
                        "prev": "0x000000000000000000000000645ba45dbe3c6942c812a46f9ee8115c89b524ec"
                    },
                    {
                        "current": "0x0000000000000000000000009d58779365b067d5d3fcc6e92d237acd06f1e6a1",
                        "key": "0xbea1dcaccafcebbcde58b17d9f8aa280f9cf1df9a8810bf569a4327fda0f9930",
                        "prev": "0x000000000000000000000000645ba45dbe3c6942c812a46f9ee8115c89b524ec"
                    },
                    {
                        "current": "0x0000000000000000000000000000000000000000000000000000000000000000",
                        "key": "0xba24e6197380b925458eea3aa7d30b5f68c2444462471f1fbd3fbf69e9cfd043",
                        "prev": "0x0000000000000000000000000000000000000000000000000000000000000001"
                    }
                ],
                "storageVariables": [
                    {
                        "name": "enabled",
                        "type": "mapping(bytes4 => address)",
                        "value": {
                            "pairs": [
                                {
                                    "key": "0x150b7a02",
                                    "value": {
                                        "current": "0x9d58779365b067d5d3fcc6e92d237acd06f1e6a1",
                                        "prev": "0x645ba45dbe3c6942c812a46f9ee8115c89b524ec",
                                        "typeTag": 1
                                    }
                                },
                                {
                                    "key": "0x1626ba7e",
                                    "value": {
                                        "current": "0x9d58779365b067d5d3fcc6e92d237acd06f1e6a1",
                                        "prev": "0x645ba45dbe3c6942c812a46f9ee8115c89b524ec",
                                        "typeTag": 1
                                    }
                                }
                            ],
                            "typeTag": 4
                        }
                    },
                    {
                        "name": "authorised",
                        "type": "mapping(address => bool)",
                        "value": {
                            "pairs": [
                                {
                                    "key": "0x645ba45dbe3c6942c812a46f9ee8115c89b524ec",
                                    "value": {
                                        "current": "false",
                                        "prev": "true",
                                        "typeTag": 1
                                    }
                                },
                                {
                                    "key": "0x9d58779365b067d5d3fcc6e92d237acd06f1e6a1",
                                    "value": {
                                        "current": "true",
                                        "prev": "false",
                                        "typeTag": 1
                                    }
                                }
                            ],
                            "typeTag": 4
                        }
                    }
                ]
            }
        ]
    }
}