{
    "balance_change": {
        "balanceChanges": [
            {
                "account": "0xf9c58aef59f89cbe8948c82435a7542b3b2b67c5",
                "assets": [
                    {
                        "address": "0x403963f87d6822cbf2ab3b6e1ec5e9d6550daba9",
                        "amount": "3,265,970,000,000,000,000,000,000",
                        "iconUrl": "",
                        "isERC1155": false,
                        "isERC721": false,
                        "sign": false,
                        "value": ""
                    },
                    {
                        "address": "0xdac17f958d2ee523a2206206994597c13d831ec7",
                        "amount": "536.509717",
                        "iconUrl": "https://assets.blocksec.com/icon/fcea71f3193ce895be44bfdf941f7e4c9381dd587f273c2d1a27f1263d84e4ea.png",
                        "isERC1155": false,
                        "isERC721": false,
                        "sign": true,
                        "value": "536.24146214150002954"
                    }
                ]
            },
            {
                "account": "0x0d4a11d5eeaac28ec3f61d100daf4d40471f1852",
                "assets": [
                    {
                        "address": "0xc02aaa39b223fe8d0a0e5c4f27ead9083c756cc2",
                        "amount": "0.224858782289126655",
                        "iconUrl": "https://assets.blocksec.com/icon/f1cb2d02c471d545bbc7722daf3277fd852d98e63d118771af7047bd8256c516.png",
                        "isERC1155": false,
                        "isERC721": false,
                        "sign": true,
                        "value": "538.56534067385208936"
                    },
                    {
                        "address": "0xdac17f958d2ee523a2206206994597c13d831ec7",
                        "amount": "536.509717",
                        "iconUrl": "https://assets.blocksec.com/icon/fcea71f3193ce895be44bfdf941f7e4c9381dd587f273c2d1a27f1263d84e4ea.png",
                        "isERC1155": false,
                        "isERC721": false,
                        "sign": false,
                        "value": "536.24146214150002954"
                    }
                ]
            },
            {
                "account": "0x41398e8dffd25738c1b990caba4359eda981eb8c",
                "assets": [
                    {
                        "address": "0xeeeeeeeeeeeeeeeeeeeeeeeeeeeeeeeeeeeeeeee",
                        "amount": "0.000233194559338605",
                        "iconUrl": "https://assets.blocksec.com/image/1663669189317-3.png",
                        "isERC1155": false,
                        "isERC721": false,
                        "sign": true,
                        "value": "0.55853058523253108894"
                    }
                ]
            },
            {
                "account": "0x4950c153f472e56a79d1e49717db409007c00527",
                "assets": [
                    {
                        "address": "0x403963f87d6822cbf2ab3b6e1ec5e9d6550daba9",
                        "amount": "3,265,970,000,000,000,000,000,000",
                        "iconUrl": "",
                        "isERC1155": false,
                        "isERC721": false,
                        "sign": true,
                        "value": ""
                    },
                    {
                        "address": "0xc02aaa39b223fe8d0a0e5c4f27ead9083c756cc2",
                        "amount": "0.227190727882512709",
                        "iconUrl": "https://assets.blocksec.com/icon/f1cb2d02c471d545bbc7722daf3277fd852d98e63d118771af7047bd8256c516.png",
                        "isERC1155": false,
                        "isERC721": false,
                        "sign": false,
                        "value": "544.1506465429432892"
                    }
                ]
            },
            {
                "account": "0x940fb21c8d673e9afc69af643e5820cb4026c7fa",
                "assets": [
                    {
                        "address": "0xeeeeeeeeeeeeeeeeeeeeeeeeeeeeeeeeeeeeeeee",
                        "amount": "0.000233194559338605",
                        "iconUrl": "https://assets.blocksec.com/image/1663669189317-3.png",
                        "isERC1155": false,
                        "isERC721": false,
                        "sign": true,
                        "value": "0.55853058523253108894"
                    }
                ]
            },
            {
                "account": "0xaa7577a7a27aa7fcf6d0ec481b87df3ad0f6a88e",
                "assets": [
                    {
                        "address": "0xeeeeeeeeeeeeeeeeeeeeeeeeeeeeeeeeeeeeeeee",
                        "amount": "0.001865556474708844",
                        "iconUrl": "https://assets.blocksec.com/image/1663669189317-3.png",
                        "isERC1155": false,
                        "isERC721": false,
                        "sign": true,
                        "value": "4.4682446832973249117"
                    }
                ]
            },
            {
                "account": "0xc02aaa39b223fe8d0a0e5c4f27ead9083c756cc2",
                "assets": [
                    {
                        "address": "0xeeeeeeeeeeeeeeeeeeeeeeeeeeeeeeeeeeeeeeee",
                        "amount": "0.002331945593386054",
                        "iconUrl": "https://assets.blocksec.com/image/1663669189317-3.png",
                        "isERC1155": false,
                        "isERC721": false,
                        "sign": false,
                        "value": "5.58530585232531089"
                    },
                    {
                        "address": "0xc02aaa39b223fe8d0a0e5c4f27ead9083c756cc2",
                        "amount": "0.002331945593386054",
                        "iconUrl": "https://assets.blocksec.com/icon/f1cb2d02c471d545bbc7722daf3277fd852d98e63d118771af7047bd8256c516.png",
                        "isERC1155": false,
                        "isERC721": false,
                        "sign": true,
                        "value": "5.58530585232531089"
                    }
                ]
            }
        ]
    },
    "profile": {
        "basic_info": {
            "baseFee": "2.760208534",
            "blockNumber": 20684203,
            "callData": "0x5c11d79500000000000000000000000000000000000000000002b39896a58d5497880000000000000000000000000000000000000000000000000000000000001fd5281400000000000000000000000000000000000000000000000000000000000000a0000000000000000000000000f9c58aef59f89cbe8948c82435a7542b3b2b67c50000000000000000000000000000000000000000000000000000000066d9a2430000000000000000000000000000000000000000000000000000000000000003000000000000000000000000403963f87d6822cbf2ab3b6e1ec5e9d6550daba9000000000000000000000000c02aaa39b223fe8d0a0e5c4f27ead9083c756cc2000000000000000000000000dac17f958d2ee523a2206206994597c13d831ec7",
            "debugEnable": true,
            "errorInfo": "",
            "eventCount": 17,
            "feeRecipient": "0x95222290dd7278aa3ddd389cc1e1d165cc4bafe5",
            "formatValue": "0",
            "gasLimit": 487334,
            "gasPrice": "3.727363259",
            "gasUsed": 323854,
            "intTxnCount": 41,
            "internalRevert": false,
            "internalRevertMessage": "",
            "isContractCreation": false,
            "isFlashloan": false,
            "maxFee": "4.177675301",
            "nonce": 7318,
            "overwritedBlockNumber": -1,
            "priorityFee": "0.967154725",
            "receiver": "0x7a250d5630b4cf539739df2c5dacb4c659f2488d",
            "revertMessage": "",
            "sender": "0xf9c58aef59f89cbe8948c82435a7542b3b2b67c5",
            "simulationEnable": true,
            "sourceTxnHash": "0x24ec65748361a1c8542a039e07e56e6283e6f3667587c7afba202475cf2a52d2",
            "status": true,
            "timestamp": "2024-09-05T11:51:47Z",
            "transactionFee": "0.001207121500880186",
            "txnHash": "0x24ec65748361a1c8542a039e07e56e6283e6f3667587c7afba202475cf2a52d2",
            "txnIndex": 16,
            "type": 2,
            "value": "0"
        },
        "fund_flow": [
            {
                "amount": "32,659,700,000,000,000,000,000",
                "from": "0xf9c58aef59f89cbe8948c82435a7542b3b2b67c5",
                "id": 1,
                "isERC1155": false,
                "isERC721": false,
                "isReverted": false,
                "order": 1,
                "to": "0x403963f87d6822cbf2ab3b6e1ec5e9d6550daba9",
                "token": "0x403963f87d6822cbf2ab3b6e1ec5e9d6550daba9"
            },
            {
                "amount": "32,659,700,000,000,000,000,000",
                "from": "0x403963f87d6822cbf2ab3b6e1ec5e9d6550daba9",
                "id": 2,
                "isERC1155": false,
                "isERC721": false,
                "isReverted": false,
                "order": 2,
                "to": "0x4950c153f472e56a79d1e49717db409007c00527",
                "token": "0x403963f87d6822cbf2ab3b6e1ec5e9d6550daba9"
            },
            {
                "amount": "0.002331945593386054",
                "from": "0x4950c153f472e56a79d1e49717db409007c00527",
                "id": 3,
                "isERC1155": false,
                "isERC721": false,
                "isReverted": false,
                "order": 3,
                "to": "0x7a250d5630b4cf539739df2c5dacb4c659f2488d",
                "token": "0xc02aaa39b223fe8d0a0e5c4f27ead9083c756cc2"
            },
            {
                "amount": "0.002331945593386054",
                "from": "0xc02aaa39b223fe8d0a0e5c4f27ead9083c756cc2",
                "id": 4,
                "isERC1155": false,
                "isERC721": false,
                "isReverted": false,
                "order": 4,
                "to": "0x7a250d5630b4cf539739df2c5dacb4c659f2488d",
                "token": "0xeeeeeeeeeeeeeeeeeeeeeeeeeeeeeeeeeeeeeeee"
            },
            {
                "amount": "0.002331945593386054",
                "from": "0x7a250d5630b4cf539739df2c5dacb4c659f2488d",
                "id": 5,
                "isERC1155": false,
                "isERC721": false,
                "isReverted": false,
                "order": 5,
                "to": "0xc02aaa39b223fe8d0a0e5c4f27ead9083c756cc2",
                "token": "0xc02aaa39b223fe8d0a0e5c4f27ead9083c756cc2"
            },
            {
                "amount": "0.002331945593386054",
                "from": "0x7a250d5630b4cf539739df2c5dacb4c659f2488d",
                "id": 6,
                "isERC1155": false,
                "isERC721": false,
                "isReverted": false,
                "order": 6,
                "to": "0x403963f87d6822cbf2ab3b6e1ec5e9d6550daba9",
                "token": "0xeeeeeeeeeeeeeeeeeeeeeeeeeeeeeeeeeeeeeeee"
            },
            {
                "amount": "3,233,310,300,000,000,000,000,000",
                "from": "0xf9c58aef59f89cbe8948c82435a7542b3b2b67c5",
                "id": 7,
                "isERC1155": false,
                "isERC721": false,
                "isReverted": false,
                "order": 7,
                "to": "0x4950c153f472e56a79d1e49717db409007c00527",
                "token": "0x403963f87d6822cbf2ab3b6e1ec5e9d6550daba9"
            },
            {
                "amount": "0.002331945593386054",
                "from": "0x403963f87d6822cbf2ab3b6e1ec5e9d6550daba9",
                "id": 8,
                "isERC1155": false,
                "isERC721": false,
                "isReverted": false,
                "order": 8,
                "to": "0x9a67f5e015f838b911f2d13566e4be05c5ba777f",
                "token": "0xeeeeeeeeeeeeeeeeeeeeeeeeeeeeeeeeeeeeeeee"
            },
            {
                "amount": "0.001865556474708844",
                "from": "0x9a67f5e015f838b911f2d13566e4be05c5ba777f",
                "id": 9,
                "isERC1155": false,
                "isERC721": false,
                "isReverted": false,
                "order": 9,
                "to": "0xaa7577a7a27aa7fcf6d0ec481b87df3ad0f6a88e",
                "token": "0xeeeeeeeeeeeeeeeeeeeeeeeeeeeeeeeeeeeeeeee"
            },
            {
                "amount": "0.000233194559338605",
                "from": "0x9a67f5e015f838b911f2d13566e4be05c5ba777f",
                "id": 10,
                "isERC1155": false,
                "isERC721": false,
                "isReverted": false,
                "order": 10,
                "to": "0x41398e8dffd25738c1b990caba4359eda981eb8c",
                "token": "0xeeeeeeeeeeeeeeeeeeeeeeeeeeeeeeeeeeeeeeee"
            },
            {
                "amount": "0.000233194559338605",
                "from": "0x9a67f5e015f838b911f2d13566e4be05c5ba777f",
                "id": 11,
                "isERC1155": false,
                "isERC721": false,
                "isReverted": false,
                "order": 11,
                "to": "0x940fb21c8d673e9afc69af643e5820cb4026c7fa",
                "token": "0xeeeeeeeeeeeeeeeeeeeeeeeeeeeeeeeeeeeeeeee"
            },
            {
                "amount": "0.224858782289126655",
                "from": "0x4950c153f472e56a79d1e49717db409007c00527",
                "id": 12,
                "isERC1155": false,
                "isERC721": false,
                "isReverted": false,
                "order": 12,
                "to": "0x0d4a11d5eeaac28ec3f61d100daf4d40471f1852",
                "token": "0xc02aaa39b223fe8d0a0e5c4f27ead9083c756cc2"
            },
            {
                "amount": "536.509717",
                "from": "0x0d4a11d5eeaac28ec3f61d100daf4d40471f1852",
                "id": 13,
                "isERC1155": false,
                "isERC721": false,
                "isReverted": false,
                "order": 13,
                "to": "0xf9c58aef59f89cbe8948c82435a7542b3b2b67c5",
                "token": "0xdac17f958d2ee523a2206206994597c13d831ec7"
            }
        ],
        "token_infos": [
            {
                "address": "0x403963f87d6822cbf2ab3b6e1ec5e9d6550daba9",
                "decimals": 0
            },
            {
                "address": "0xc02aaa39b223fe8d0a0e5c4f27ead9083c756cc2",
                "decimals": 18
            },
            {
                "address": "0xdac17f958d2ee523a2206206994597c13d831ec7",
                "decimals": 6
            },
            {
                "address": "0xeeeeeeeeeeeeeeeeeeeeeeeeeeeeeeeeeeeeeeee",
                "decimals": 18
            }
        ]
    },
    "address_label": {
        "labels": [
            {
                "address": "0x7af9ac1fdb60caf6510af1944f8b4b21f0fe9244",
                "label": "TokenLogic"
            },
            {
                "address": "0x0000000000000000000000000000000000000003",
                "label": "Precompiled"
            },
            {
                "address": "0xdac17f958d2ee523a2206206994597c13d831ec7",
                "label": "Tether: USDT Stablecoin"
            },
            {
                "address": "0xc02aaa39b223fe8d0a0e5c4f27ead9083c756cc2",
                "label": "Wrapped Ether (WETH)"
            },
            {
                "address": "0xd9db270c1b5e3bd161e8c8503c55ceabee709552",
                "label": "Safe: Singleton 1.3.0"
            },
            {
                "address": "0x4950c153f472e56a79d1e49717db409007c00527",
                "label": "UNI-V2"
            },
            {
                "address": "0x0000000000000000000000000000000000000001",
                "label": "Precompiled"
            },
            {
                "address": "0x41398e8dffd25738c1b990caba4359eda981eb8c",
                "label": "GnosisSafeProxy"
            },
            {
                "address": "0x9a67f5e015f838b911f2d13566e4be05c5ba777f",
                "label": "TokenFactory"
            },
            {
                "address": "0x403963f87d6822cbf2ab3b6e1ec5e9d6550daba9",
                "label": "TokenProxy"
            },
            {
                "address": "0x940fb21c8d673e9afc69af643e5820cb4026c7fa",
                "label": "TokenStaking"
            },
            {
                "address": "0x0000000000000000000000000000000000000002",
                "label": "Precompiled"
            },
            {
                "address": "0x0d4a11d5eeaac28ec3f61d100daf4d40471f1852",
                "label": "Uniswap V2: USDT"
            },
            {
                "address": "0x7a250d5630b4cf539739df2c5dacb4c659f2488d",
                "label": "Uniswap V2: Router 2"
            },
            {
                "address": "0x0000000000000000000000000000000000000004",
                "label": "Precompiled"
            },
            {
                "address": "0xeeeeeeeeeeeeeeeeeeeeeeeeeeeeeeeeeeeeeeee",
                "label": "Ether"
            }
        ]
    },
    "trace": {
        "accountLabels": null,
        "dataMap": {
            "-1": {
                "invocation": {
                    "address": "0xf9c58aef59f89cbe8948c82435a7542b3b2b67c5",
                    "callData": "",
                    "decodedMethod": null,
                    "errorInfo": "",
                    "fromAddress": "",
                    "gasUsed": 0,
                    "id": -1,
                    "methodDecoded": false,
                    "operation": "",
                    "output": "",
                    "revert": false,
                    "revertMessage": "",
                    "selector": "",
                    "status": false,
                    "value": ""
                },
                "nodeType": 0
            },
            "0": {
                "invocation": {
                    "address": "0x7a250d5630b4cf539739df2c5dacb4c659f2488d",
                    "callData": "0x00000000000000000000000000000000000000000002b39896a58d5497880000000000000000000000000000000000000000000000000000000000001fd5281400000000000000000000000000000000000000000000000000000000000000a0000000000000000000000000f9c58aef59f89cbe8948c82435a7542b3b2b67c50000000000000000000000000000000000000000000000000000000066d9a2430000000000000000000000000000000000000000000000000000000000000003000000000000000000000000403963f87d6822cbf2ab3b6e1ec5e9d6550daba9000000000000000000000000c02aaa39b223fe8d0a0e5c4f27ead9083c756cc2000000000000000000000000dac17f958d2ee523a2206206994597c13d831ec7",
                    "decodedMethod": {
                        "callParams": [
                            {
                                "name": "amountIn",
                                "type": "uint256",
                                "value": "3,265,970,000,000,000,000,000,000"
                            },
                            {
                                "name": "amountOutMin",
                                "type": "uint256",
                                "value": "534,063,124"
                            },
                            {
                                "name": "path",
                                "type": "address[]",
                                "value": [
                                    "0x403963f87d6822cbf2ab3b6e1ec5e9d6550daba9",
                                    "0xc02aaa39b223fe8d0a0e5c4f27ead9083c756cc2",
                                    "0xdac17f958d2ee523a2206206994597c13d831ec7"
                                ]
                            },
                            {
                                "name": "to",
                                "type": "address",
                                "value": "0xf9c58aef59f89cbe8948c82435a7542b3b2b67c5"
                            },
                            {
                                "name": "deadline",
                                "type": "uint256",
                                "value": "1,725,538,883"
                            }
                        ],
                        "constructorArguments": "",
                        "name": "swapExactTokensForTokensSupportingFeeOnTransferTokens",
                        "returnParams": [],
                        "signature": "swapExactTokensForTokensSupportingFeeOnTransferTokens(uint256,uint256,address[],address,uint256)"
                    },
                    "errorInfo": "",
                    "fromAddress": "0xf9c58aef59f89cbe8948c82435a7542b3b2b67c5",
                    "gasUsed": 323854,
                    "id": 0,
                    "methodDecoded": true,
                    "operation": "CALL",
                    "output": "",
                    "revert": false,
                    "revertMessage": "",
                    "selector": "0x5c11d795",
                    "status": true,
                    "value": "0"
                },
                "nodeType": 0
            },
            "1": {
                "invocation": {
                    "address": "0x403963f87d6822cbf2ab3b6e1ec5e9d6550daba9",
                    "callData": "0x000000000000000000000000f9c58aef59f89cbe8948c82435a7542b3b2b67c50000000000000000000000004950c153f472e56a79d1e49717db409007c0052700000000000000000000000000000000000000000002b39896a58d5497880000",
                    "decodedMethod": {
                        "callParams": [
                            {
                                "name": "sender",
                                "type": "address",
                                "value": "0xf9c58aef59f89cbe8948c82435a7542b3b2b67c5"
                            },
                            {
                                "name": "recipient",
                                "type": "address",
                                "value": "0x4950c153f472e56a79d1e49717db409007c00527"
                            },
                            {
                                "decimalAvailable": true,
                                "name": "amount",
                                "type": "uint256",
                                "value": "3,265,970,000,000,000,000,000,000"
                            }
                        ],
                        "constructorArguments": "",
                        "name": "transferFrom",
                        "returnParams": [
                            {
                                "name": "",
                                "type": "bool",
                                "value": true
                            }
                        ],
                        "signature": "transferFrom(address,address,uint256)"
                    },
                    "errorInfo": "",
                    "fromAddress": "0x7a250d5630b4cf539739df2c5dacb4c659f2488d",
                    "gasUsed": 277173,
                    "id": 1,
                    "methodDecoded": true,
                    "operation": "CALL",
                    "output": "0x0000000000000000000000000000000000000000000000000000000000000001",
                    "revert": false,
                    "revertMessage": "",
                    "selector": "0x23b872dd",
                    "status": true,
                    "value": "0"
                },
                "nodeType": 0
            },
            "10": {
                "invocation": {
                    "address": "0x4950c153f472e56a79d1e49717db409007c00527",
                    "callData": "0x",
                    "decodedMethod": {
                        "callParams": [],
                        "constructorArguments": "",
                        "name": "getReserves",
                        "returnParams": [
                            {
                                "name": "_reserve0",
                                "type": "uint112",
                                "value": "121,955,609,163,429,600,330,750,046"
                            },
                            {
                                "name": "_reserve1",
                                "type": "uint112",
                                "value": "8,736,325,036,768,479,393"
                            },
                            {
                                "name": "_blockTimestampLast",
                                "type": "uint32",
                                "value": "1,725,537,035"
                            }
                        ],
                        "signature": "getReserves()"
                    },
                    "errorInfo": "",
                    "fromAddress": "0x7a250d5630b4cf539739df2c5dacb4c659f2488d",
                    "gasUsed": 2504,
                    "id": 10,
                    "methodDecoded": true,
                    "operation": "STATICCALL",
                    "output": "0x00000000000000000000000000000000000000000064e11ad1f15d32d643985e000000000000000000000000000000000000000000000000793da9557aefc8a10000000000000000000000000000000000000000000000000000000066d99b0b",
                    "revert": false,
                    "revertMessage": "",
                    "selector": "0x0902f1ac",
                    "status": true,
                    "value": "0"
                },
                "nodeType": 0
            },
            "11": {
                "invocation": {
                    "address": "0x403963f87d6822cbf2ab3b6e1ec5e9d6550daba9",
                    "callData": "0x0000000000000000000000004950c153f472e56a79d1e49717db409007c00527",
                    "decodedMethod": {
                        "callParams": [
                            {
                                "name": "account",
                                "type": "address",
                                "value": "0x4950c153f472e56a79d1e49717db409007c00527"
                            }
                        ],
                        "constructorArguments": "",
                        "name": "balanceOf",
                        "returnParams": [
                            {
                                "decimalAvailable": true,
                                "name": "",
                                "type": "uint256",
                                "value": "121,988,268,863,429,600,330,750,046"
                            }
                        ],
                        "signature": "balanceOf(address)"
                    },
                    "errorInfo": "",
                    "fromAddress": "0x7a250d5630b4cf539739df2c5dacb4c659f2488d",
                    "gasUsed": 954,
                    "id": 11,
                    "methodDecoded": true,
                    "operation": "STATICCALL",
                    "output": "0x00000000000000000000000000000000000000000064e8054e544cb11f75985e",
                    "revert": false,
                    "revertMessage": "",
                    "selector": "0x70a08231",
                    "status": true,
                    "value": "0"
                },
                "nodeType": 0
            },
            "12": {
                "invocation": {
                    "address": "0x7af9ac1fdb60caf6510af1944f8b4b21f0fe9244",
                    "callData": "0x0000000000000000000000004950c153f472e56a79d1e49717db409007c00527",
                    "decodedMethod": {
                        "callParams": [
                            {
                                "name": "account",
                                "type": "address",
                                "value": "0x4950c153f472e56a79d1e49717db409007c00527"
                            }
                        ],
                        "constructorArguments": "",
                        "name": "balanceOf",
                        "returnParams": [
                            {
                                "decimalAvailable": true,
                                "name": "",
                                "type": "uint256",
                                "value": "121,988,268,863,429,600,330,750,046"
                            }
                        ],
                        "signature": "balanceOf(address)"
                    },
                    "errorInfo": "",
                    "fromAddress": "0x403963f87d6822cbf2ab3b6e1ec5e9d6550daba9",
                    "gasUsed": 667,
                    "id": 12,
                    "methodDecoded": true,
                    "operation": "DELEGATECALL",
                    "output": "0x00000000000000000000000000000000000000000064e8054e544cb11f75985e",
                    "revert": false,
                    "revertMessage": "",
                    "selector": "0x70a08231",
                    "status": true,
                    "value": "0"
                },
                "nodeType": 0
            },
            "13": {
                "invocation": {
                    "address": "0x4950c153f472e56a79d1e49717db409007c00527",
                    "callData": "0x0000000000000000000000000000000000000000000000000000000000000000000000000000000000000000000000000000000000000000000848e464bab4460000000000000000000000007a250d5630b4cf539739df2c5dacb4c659f2488d00000000000000000000000000000000000000000000000000000000000000800000000000000000000000000000000000000000000000000000000000000000",
                    "decodedMethod": {
                        "callParams": [
                            {
                                "name": "amount0Out",
                                "type": "uint256",
                                "value": "0"
                            },
                            {
                                "name": "amount1Out",
                                "type": "uint256",
                                "value": "2,331,945,593,386,054"
                            },
                            {
                                "name": "to",
                                "type": "address",
                                "value": "0x7a250d5630b4cf539739df2c5dacb4c659f2488d"
                            },
                            {
                                "name": "data",
                                "type": "bytes",
                                "value": "0x"
                            }
                        ],
                        "constructorArguments": "",
                        "name": "swap",
                        "returnParams": [],
                        "signature": "swap(uint256,uint256,address,bytes)"
                    },
                    "errorInfo": "",
                    "fromAddress": "0x7a250d5630b4cf539739df2c5dacb4c659f2488d",
                    "gasUsed": 65273,
                    "id": 13,
                    "methodDecoded": true,
                    "operation": "CALL",
                    "output": "",
                    "revert": false,
                    "revertMessage": "",
                    "selector": "0x022c0d9f",
                    "status": true,
                    "value": "0"
                },
                "nodeType": 0
            },
            "14": {
                "invocation": {
                    "address": "0xc02aaa39b223fe8d0a0e5c4f27ead9083c756cc2",
                    "callData": "0x0000000000000000000000007a250d5630b4cf539739df2c5dacb4c659f2488d000000000000000000000000000000000000000000000000000848e464bab446",
                    "decodedMethod": {
                        "callParams": [
                            {
                                "name": "dst",
                                "type": "address",
                                "value": "0x7a250d5630b4cf539739df2c5dacb4c659f2488d"
                            },
                            {
                                "decimalAvailable": true,
                                "name": "wad",
                                "type": "uint256",
                                "value": "2,331,945,593,386,054"
                            }
                        ],
                        "constructorArguments": "",
                        "name": "transfer",
                        "returnParams": [
                            {
                                "name": "",
                                "type": "bool",
                                "value": true
                            }
                        ],
                        "signature": "transfer(address,uint256)"
                    },
                    "errorInfo": "",
                    "fromAddress": "0x4950c153f472e56a79d1e49717db409007c00527",
                    "gasUsed": 29962,
                    "id": 14,
                    "methodDecoded": true,
                    "operation": "CALL",
                    "output": "0x0000000000000000000000000000000000000000000000000000000000000001",
                    "revert": false,
                    "revertMessage": "",
                    "selector": "0xa9059cbb",
                    "status": true,
                    "value": "0"
                },
                "nodeType": 0
            },
            "15": {
                "event": {
                    "contract": "0xc02aaa39b223fe8d0a0e5c4f27ead9083c756cc2",
                    "decodedLog": {
                        "name": "Transfer",
                        "params": [
                            {
                                "name": "src",
                                "type": "address",
                                "value": "0x4950c153f472e56a79d1e49717db409007c00527"
                            },
                            {
                                "name": "dst",
                                "type": "address",
                                "value": "0x7a250d5630b4cf539739df2c5dacb4c659f2488d"
                            },
                            {
                                "decimalAvailable": true,
                                "name": "wad",
                                "type": "uint256",
                                "value": "2,331,945,593,386,054"
                            }
                        ],
                        "signature": "Transfer(address,address,uint256)"
                    },
                    "id": 15,
                    "logData": "0x000000000000000000000000000000000000000000000000000848e464bab446",
                    "logDecoded": true,
                    "operation": "EVENT",
                    "revert": false,
                    "status": true,
                    "topics": [
                        "0xddf252ad1be2c89b69c2b068fc378daa952ba7f163c4a11628f55a4df523b3ef",
                        "0x0000000000000000000000004950c153f472e56a79d1e49717db409007c00527",
                        "0x0000000000000000000000007a250d5630b4cf539739df2c5dacb4c659f2488d"
                    ]
                },
                "nodeType": 1
            },
            "16": {
                "invocation": {
                    "address": "0x403963f87d6822cbf2ab3b6e1ec5e9d6550daba9",
                    "callData": "0x0000000000000000000000004950c153f472e56a79d1e49717db409007c00527",
                    "decodedMethod": {
                        "callParams": [
                            {
                                "name": "account",
                                "type": "address",
                                "value": "0x4950c153f472e56a79d1e49717db409007c00527"
                            }
                        ],
                        "constructorArguments": "",
                        "name": "balanceOf",
                        "returnParams": [
                            {
                                "decimalAvailable": true,
                                "name": "",
                                "type": "uint256",
                                "value": "121,988,268,863,429,600,330,750,046"
                            }
                        ],
                        "signature": "balanceOf(address)"
                    },
                    "errorInfo": "",
                    "fromAddress": "0x4950c153f472e56a79d1e49717db409007c00527",
                    "gasUsed": 954,
                    "id": 16,
                    "methodDecoded": true,
                    "operation": "STATICCALL",
                    "output": "0x00000000000000000000000000000000000000000064e8054e544cb11f75985e",
                    "revert": false,
                    "revertMessage": "",
                    "selector": "0x70a08231",
                    "status": true,
                    "value": "0"
                },
                "nodeType": 0
            },
            "17": {
                "invocation": {
                    "address": "0x7af9ac1fdb60caf6510af1944f8b4b21f0fe9244",
                    "callData": "0x0000000000000000000000004950c153f472e56a79d1e49717db409007c00527",
                    "decodedMethod": {
                        "callParams": [
                            {
                                "name": "account",
                                "type": "address",
                                "value": "0x4950c153f472e56a79d1e49717db409007c00527"
                            }
                        ],
                        "constructorArguments": "",
                        "name": "balanceOf",
                        "returnParams": [
                            {
                                "decimalAvailable": true,
                                "name": "",
                                "type": "uint256",
                                "value": "121,988,268,863,429,600,330,750,046"
                            }
                        ],
                        "signature": "balanceOf(address)"
                    },
                    "errorInfo": "",
                    "fromAddress": "0x403963f87d6822cbf2ab3b6e1ec5e9d6550daba9",
                    "gasUsed": 667,
                    "id": 17,
                    "methodDecoded": true,
                    "operation": "DELEGATECALL",
                    "output": "0x00000000000000000000000000000000000000000064e8054e544cb11f75985e",
                    "revert": false,
                    "revertMessage": "",
                    "selector": "0x70a08231",
                    "status": true,
                    "value": "0"
                },
                "nodeType": 0
            },
            "18": {
                "invocation": {
                    "address": "0xc02aaa39b223fe8d0a0e5c4f27ead9083c756cc2",
                    "callData": "0x0000000000000000000000004950c153f472e56a79d1e49717db409007c00527",
                    "decodedMethod": {
                        "callParams": [
                            {
                                "name": "",
                                "type": "address",
                                "value": "0x4950c153f472e56a79d1e49717db409007c00527"
                            }
                        ],
                        "constructorArguments": "",
                        "name": "balanceOf",
                        "returnParams": [
                            {
                                "decimalAvailable": true,
                                "name": "",
                                "type": "uint256",
                                "value": "8,733,993,091,175,093,339"
                            }
                        ],
                        "signature": "balanceOf(address)"
                    },
                    "errorInfo": "",
                    "fromAddress": "0x4950c153f472e56a79d1e49717db409007c00527",
                    "gasUsed": 534,
                    "id": 18,
                    "methodDecoded": true,
                    "operation": "STATICCALL",
                    "output": "0x000000000000000000000000000000000000000000000000793560711635145b",
                    "revert": false,
                    "revertMessage": "",
                    "selector": "0x70a08231",
                    "status": true,
                    "value": "0"
                },
                "nodeType": 0
            },
            "19": {
                "event": {
                    "contract": "0x4950c153f472e56a79d1e49717db409007c00527",
                    "decodedLog": {
                        "name": "Sync",
                        "params": [
                            {
                                "name": "reserve0",
                                "type": "uint112",
                                "value": "121,988,268,863,429,600,330,750,046"
                            },
                            {
                                "name": "reserve1",
                                "type": "uint112",
                                "value": "8,733,993,091,175,093,339"
                            }
                        ],
                        "signature": "Sync(uint112,uint112)"
                    },
                    "id": 19,
                    "logData": "0x00000000000000000000000000000000000000000064e8054e544cb11f75985e000000000000000000000000000000000000000000000000793560711635145b",
                    "logDecoded": true,
                    "operation": "EVENT",
                    "revert": false,
                    "status": true,
                    "topics": [
                        "0x1c411e9a96e071241c2f21f7726b17ae89e3cab4c78be50e062b03a9fffbbad1"
                    ]
                },
                "nodeType": 1
            },
            "2": {
                "invocation": {
                    "address": "0x7af9ac1fdb60caf6510af1944f8b4b21f0fe9244",
                    "callData": "0x000000000000000000000000f9c58aef59f89cbe8948c82435a7542b3b2b67c50000000000000000000000004950c153f472e56a79d1e49717db409007c0052700000000000000000000000000000000000000000002b39896a58d5497880000",
                    "decodedMethod": {
                        "callParams": [
                            {
                                "name": "sender",
                                "type": "address",
                                "value": "0xf9c58aef59f89cbe8948c82435a7542b3b2b67c5"
                            },
                            {
                                "name": "recipient",
                                "type": "address",
                                "value": "0x4950c153f472e56a79d1e49717db409007c00527"
                            },
                            {
                                "decimalAvailable": true,
                                "name": "amount",
                                "type": "uint256",
                                "value": "3,265,970,000,000,000,000,000,000"
                            }
                        ],
                        "constructorArguments": "",
                        "name": "transferFrom",
                        "returnParams": [
                            {
                                "name": "",
                                "type": "bool",
                                "value": true
                            }
                        ],
                        "signature": "transferFrom(address,address,uint256)"
                    },
                    "errorInfo": "",
                    "fromAddress": "0x403963f87d6822cbf2ab3b6e1ec5e9d6550daba9",
                    "gasUsed": 274377,
                    "id": 2,
                    "methodDecoded": true,
                    "operation": "DELEGATECALL",
                    "output": "0x0000000000000000000000000000000000000000000000000000000000000001",
                    "revert": false,
                    "revertMessage": "",
                    "selector": "0x23b872dd",
                    "status": true,
                    "value": "0"
                },
                "nodeType": 0
            },
            "20": {
                "event": {
                    "contract": "0x4950c153f472e56a79d1e49717db409007c00527",
                    "decodedLog": {
                        "name": "Swap",
                        "params": [
                            {
                                "name": "sender",
                                "type": "address",
                                "value": "0x7a250d5630b4cf539739df2c5dacb4c659f2488d"
                            },
                            {
                                "name": "to",
                                "type": "address",
                                "value": "0x7a250d5630b4cf539739df2c5dacb4c659f2488d"
                            },
                            {
                                "name": "amount0In",
                                "type": "uint256",
                                "value": "32,659,700,000,000,000,000,000"
                            },
                            {
                                "name": "amount1In",
                                "type": "uint256",
                                "value": "0"
                            },
                            {
                                "name": "amount0Out",
                                "type": "uint256",
                                "value": "0"
                            },
                            {
                                "name": "amount1Out",
                                "type": "uint256",
                                "value": "2,331,945,593,386,054"
                            }
                        ],
                        "signature": "Swap(address,uint256,uint256,uint256,uint256,address)"
                    },
                    "id": 20,
                    "logData": "0x0000000000000000000000000000000000000000000006ea7c62ef7e4932000000000000000000000000000000000000000000000000000000000000000000000000000000000000000000000000000000000000000000000000000000000000000000000000000000000000000000000000000000000000000848e464bab446",
                    "logDecoded": true,
                    "operation": "EVENT",
                    "revert": false,
                    "status": true,
                    "topics": [
                        "0xd78ad95fa46c994b6551d0da85fc275fe613ce37657fb8d5e3d130840159d822",
                        "0x0000000000000000000000007a250d5630b4cf539739df2c5dacb4c659f2488d",
                        "0x0000000000000000000000007a250d5630b4cf539739df2c5dacb4c659f2488d"
                    ]
                },
                "nodeType": 1
            },
            "21": {
                "invocation": {
                    "address": "0xc02aaa39b223fe8d0a0e5c4f27ead9083c756cc2",
                    "callData": "0x0000000000000000000000007a250d5630b4cf539739df2c5dacb4c659f2488d",
                    "decodedMethod": {
                        "callParams": [
                            {
                                "name": "",
                                "type": "address",
                                "value": "0x7a250d5630b4cf539739df2c5dacb4c659f2488d"
                            }
                        ],
                        "constructorArguments": "",
                        "name": "balanceOf",
                        "returnParams": [
                            {
                                "decimalAvailable": true,
                                "name": "",
                                "type": "uint256",
                                "value": "2,331,945,593,386,054"
                            }
                        ],
                        "signature": "balanceOf(address)"
                    },
                    "errorInfo": "",
                    "fromAddress": "0x7a250d5630b4cf539739df2c5dacb4c659f2488d",
                    "gasUsed": 534,
                    "id": 21,
                    "methodDecoded": true,
                    "operation": "STATICCALL",
                    "output": "0x000000000000000000000000000000000000000000000000000848e464bab446",
                    "revert": false,
                    "revertMessage": "",
                    "selector": "0x70a08231",
                    "status": true,
                    "value": "0"
                },
                "nodeType": 0
            },
            "22": {
                "invocation": {
                    "address": "0xc02aaa39b223fe8d0a0e5c4f27ead9083c756cc2",
                    "callData": "0x000000000000000000000000000000000000000000000000000848e464bab446",
                    "decodedMethod": {
                        "callParams": [
                            {
                                "name": "wad",
                                "type": "uint256",
                                "value": "2,331,945,593,386,054"
                            }
                        ],
                        "constructorArguments": "",
                        "name": "withdraw",
                        "returnParams": [],
                        "signature": "withdraw(uint256)"
                    },
                    "errorInfo": "",
                    "fromAddress": "0x7a250d5630b4cf539739df2c5dacb4c659f2488d",
                    "gasUsed": 9223,
                    "id": 22,
                    "methodDecoded": true,
                    "operation": "CALL",
                    "output": "",
                    "revert": false,
                    "revertMessage": "",
                    "selector": "0x2e1a7d4d",
                    "status": true,
                    "value": "0"
                },
                "nodeType": 0
            },
            "23": {
                "invocation": {
                    "address": "0x7a250d5630b4cf539739df2c5dacb4c659f2488d",
                    "callData": "0x",
                    "decodedMethod": null,
                    "errorInfo": "",
                    "fromAddress": "0xc02aaa39b223fe8d0a0e5c4f27ead9083c756cc2",
                    "gasUsed": 83,
                    "id": 23,
                    "methodDecoded": false,
                    "operation": "CALL",
                    "output": "",
                    "revert": false,
                    "revertMessage": "",
                    "selector": "fallback",
                    "status": true,
                    "value": "0.002331945593386054"
                },
                "nodeType": 0
            },
            "24": {
                "event": {
                    "contract": "0xc02aaa39b223fe8d0a0e5c4f27ead9083c756cc2",
                    "decodedLog": {
                        "name": "Withdrawal",
                        "params": [
                            {
                                "name": "src",
                                "type": "address",
                                "value": "0x7a250d5630b4cf539739df2c5dacb4c659f2488d"
                            },
                            {
                                "name": "wad",
                                "type": "uint256",
                                "value": "2,331,945,593,386,054"
                            }
                        ],
                        "signature": "Withdrawal(address,uint256)"
                    },
                    "id": 24,
                    "logData": "0x000000000000000000000000000000000000000000000000000848e464bab446",
                    "logDecoded": true,
                    "operation": "EVENT",
                    "revert": false,
                    "status": true,
                    "topics": [
                        "0x7fcf532c15f0a6db0bd6d0e038bea71d30d808c7d98cb3bf7268a95bf5081b65",
                        "0x0000000000000000000000007a250d5630b4cf539739df2c5dacb4c659f2488d"
                    ]
                },
                "nodeType": 1
            },
            "25": {
                "invocation": {
                    "address": "0x403963f87d6822cbf2ab3b6e1ec5e9d6550daba9",
                    "callData": "0x",
                    "decodedMethod": null,
                    "errorInfo": "",
                    "fromAddress": "0x7a250d5630b4cf539739df2c5dacb4c659f2488d",
                    "gasUsed": 268,
                    "id": 25,
                    "methodDecoded": false,
                    "operation": "CALL",
                    "output": "",
                    "revert": false,
                    "revertMessage": "",
                    "selector": "fallback",
                    "status": true,
                    "value": "0.002331945593386054"
                },
                "nodeType": 0
            },
            "26": {
                "invocation": {
                    "address": "0x7af9ac1fdb60caf6510af1944f8b4b21f0fe9244",
                    "callData": "0x",
                    "decodedMethod": null,
                    "errorInfo": "",
                    "fromAddress": "0x403963f87d6822cbf2ab3b6e1ec5e9d6550daba9",
                    "gasUsed": 55,
                    "id": 26,
                    "methodDecoded": false,
                    "operation": "DELEGATECALL",
                    "output": "",
                    "revert": false,
                    "revertMessage": "",
                    "selector": "fallback",
                    "status": true,
                    "value": "0.002331945593386054"
                },
                "nodeType": 0
            },
            "27": {
                "event": {
                    "contract": "0x403963f87d6822cbf2ab3b6e1ec5e9d6550daba9",
                    "decodedLog": {
                        "name": "Transfer",
                        "params": [
                            {
                                "name": "from",
                                "type": "address",
                                "value": "0xf9c58aef59f89cbe8948c82435a7542b3b2b67c5"
                            },
                            {
                                "name": "to",
                                "type": "address",
                                "value": "0x4950c153f472e56a79d1e49717db409007c00527"
                            },
                            {
                                "decimalAvailable": true,
                                "name": "value",
                                "type": "uint256",
                                "value": "3,233,310,300,000,000,000,000,000"
                            }
                        ],
                        "signature": "Transfer(address,address,uint256)"
                    },
                    "id": 27,
                    "logData": "0x00000000000000000000000000000000000000000002acae1a429dd64e560000",
                    "logDecoded": true,
                    "operation": "EVENT",
                    "revert": false,
                    "status": true,
                    "topics": [
                        "0xddf252ad1be2c89b69c2b068fc378daa952ba7f163c4a11628f55a4df523b3ef",
                        "0x000000000000000000000000f9c58aef59f89cbe8948c82435a7542b3b2b67c5",
                        "0x0000000000000000000000004950c153f472e56a79d1e49717db409007c00527"
                    ]
                },
                "nodeType": 1
            },
            "28": {
                "invocation": {
                    "address": "0x9a67f5e015f838b911f2d13566e4be05c5ba777f",
                    "callData": "0x",
                    "decodedMethod": null,
                    "errorInfo": "",
                    "fromAddress": "0x403963f87d6822cbf2ab3b6e1ec5e9d6550daba9",
                    "gasUsed": 62540,
                    "id": 28,
                    "methodDecoded": false,
                    "operation": "CALL",
                    "output": "",
                    "revert": false,
                    "revertMessage": "",
                    "selector": "fallback",
                    "status": true,
                    "value": "0.002331945593386054"
                },
                "nodeType": 0
            },
            "29": {
                "invocation": {
                    "address": "0x403963f87d6822cbf2ab3b6e1ec5e9d6550daba9",
                    "callData": "0x",
                    "decodedMethod": {
                        "callParams": [],
                        "constructorArguments": "",
                        "name": "deployer",
                        "returnParams": [
                            {
                                "name": "",
                                "type": "address",
                                "value": "0xaa7577a7a27aa7fcf6d0ec481b87df3ad0f6a88e"
                            }
                        ],
                        "signature": "deployer()"
                    },
                    "errorInfo": "",
                    "fromAddress": "0x9a67f5e015f838b911f2d13566e4be05c5ba777f",
                    "gasUsed": 2709,
                    "id": 29,
                    "methodDecoded": true,
                    "operation": "STATICCALL",
                    "output": "0x000000000000000000000000aa7577a7a27aa7fcf6d0ec481b87df3ad0f6a88e",
                    "revert": false,
                    "revertMessage": "",
                    "selector": "0xd5f39488",
                    "status": true,
                    "value": "0"
                },
                "nodeType": 0
            },
            "3": {
                "event": {
                    "contract": "0x403963f87d6822cbf2ab3b6e1ec5e9d6550daba9",
                    "decodedLog": {
                        "name": "Transfer",
                        "params": [
                            {
                                "name": "from",
                                "type": "address",
                                "value": "0xf9c58aef59f89cbe8948c82435a7542b3b2b67c5"
                            },
                            {
                                "name": "to",
                                "type": "address",
                                "value": "0x403963f87d6822cbf2ab3b6e1ec5e9d6550daba9"
                            },
                            {
                                "decimalAvailable": true,
                                "name": "value",
                                "type": "uint256",
                                "value": "32,659,700,000,000,000,000,000"
                            }
                        ],
                        "signature": "Transfer(address,address,uint256)"
                    },
                    "id": 3,
                    "logData": "0x0000000000000000000000000000000000000000000006ea7c62ef7e49320000",
                    "logDecoded": true,
                    "operation": "EVENT",
                    "revert": false,
                    "status": true,
                    "topics": [
                        "0xddf252ad1be2c89b69c2b068fc378daa952ba7f163c4a11628f55a4df523b3ef",
                        "0x000000000000000000000000f9c58aef59f89cbe8948c82435a7542b3b2b67c5",
                        "0x000000000000000000000000403963f87d6822cbf2ab3b6e1ec5e9d6550daba9"
                    ]
                },
                "nodeType": 1
            },
            "30": {
                "invocation": {
                    "address": "0x7af9ac1fdb60caf6510af1944f8b4b21f0fe9244",
                    "callData": "0x",
                    "decodedMethod": {
                        "callParams": [],
                        "constructorArguments": "",
                        "name": "deployer",
                        "returnParams": [
                            {
                                "name": "",
                                "type": "address",
                                "value": "0xaa7577a7a27aa7fcf6d0ec481b87df3ad0f6a88e"
                            }
                        ],
                        "signature": "deployer()"
                    },
                    "errorInfo": "",
                    "fromAddress": "0x403963f87d6822cbf2ab3b6e1ec5e9d6550daba9",
                    "gasUsed": 2425,
                    "id": 30,
                    "methodDecoded": true,
                    "operation": "DELEGATECALL",
                    "output": "0x000000000000000000000000aa7577a7a27aa7fcf6d0ec481b87df3ad0f6a88e",
                    "revert": false,
                    "revertMessage": "",
                    "selector": "0xd5f39488",
                    "status": true,
                    "value": "0"
                },
                "nodeType": 0
            },
            "31": {
                "invocation": {
                    "address": "0xaa7577a7a27aa7fcf6d0ec481b87df3ad0f6a88e",
                    "callData": "0x",
                    "decodedMethod": null,
                    "errorInfo": "",
                    "fromAddress": "0x9a67f5e015f838b911f2d13566e4be05c5ba777f",
                    "gasUsed": 0,
                    "id": 31,
                    "methodDecoded": false,
                    "operation": "CALL",
                    "output": "",
                    "revert": false,
                    "revertMessage": "",
                    "selector": "fallback",
                    "status": true,
                    "value": "0.001865556474708844"
                },
                "nodeType": 0
            },
            "32": {
                "invocation": {
                    "address": "0x41398e8dffd25738c1b990caba4359eda981eb8c",
                    "callData": "0x",
                    "decodedMethod": null,
                    "errorInfo": "",
                    "fromAddress": "0x9a67f5e015f838b911f2d13566e4be05c5ba777f",
                    "gasUsed": 6329,
                    "id": 32,
                    "methodDecoded": false,
                    "operation": "CALL",
                    "output": "",
                    "revert": false,
                    "revertMessage": "",
                    "selector": "fallback",
                    "status": true,
                    "value": "0.000233194559338605"
                },
                "nodeType": 0
            },
            "33": {
                "invocation": {
                    "address": "0xd9db270c1b5e3bd161e8c8503c55ceabee709552",
                    "callData": "0x",
                    "decodedMethod": null,
                    "errorInfo": "",
                    "fromAddress": "0x41398e8dffd25738c1b990caba4359eda981eb8c",
                    "gasUsed": 1504,
                    "id": 33,
                    "methodDecoded": false,
                    "operation": "DELEGATECALL",
                    "output": "",
                    "revert": false,
                    "revertMessage": "",
                    "selector": "fallback",
                    "status": true,
                    "value": "0.000233194559338605"
                },
                "nodeType": 0
            },
            "34": {
                "event": {
                    "contract": "0x41398e8dffd25738c1b990caba4359eda981eb8c",
                    "decodedLog": {
                        "name": "SafeReceived",
                        "params": [
                            {
                                "name": "sender",
                                "type": "address",
                                "value": "0x9a67f5e015f838b911f2d13566e4be05c5ba777f"
                            },
                            {
                                "name": "value",
                                "type": "uint256",
                                "value": "233,194,559,338,605"
                            }
                        ],
                        "signature": "SafeReceived(address,uint256)"
                    },
                    "id": 34,
                    "logData": "0x0000000000000000000000000000000000000000000000000000d416d6df786d",
                    "logDecoded": true,
                    "operation": "EVENT",
                    "revert": false,
                    "status": true,
                    "topics": [
                        "0x3d0ce9bfc3ed7d6862dbb28b2dea94561fe714a1b4d019aa8af39730d1ad7c3d",
                        "0x0000000000000000000000009a67f5e015f838b911f2d13566e4be05c5ba777f"
                    ]
                },
                "nodeType": 1
            },
            "35": {
                "invocation": {
                    "address": "0x940fb21c8d673e9afc69af643e5820cb4026c7fa",
                    "callData": "0x",
                    "decodedMethod": null,
                    "errorInfo": "",
                    "fromAddress": "0x9a67f5e015f838b911f2d13566e4be05c5ba777f",
                    "gasUsed": 9849,
                    "id": 35,
                    "methodDecoded": false,
                    "operation": "CALL",
                    "output": "",
                    "revert": false,
                    "revertMessage": "",
                    "selector": "fallback",
                    "status": true,
                    "value": "0.000233194559338605"
                },
                "nodeType": 0
            },
            "36": {
                "event": {
                    "contract": "0x403963f87d6822cbf2ab3b6e1ec5e9d6550daba9",
                    "decodedLog": {
                        "name": "Approval",
                        "params": [
                            {
                                "name": "owner",
                                "type": "address",
                                "value": "0xf9c58aef59f89cbe8948c82435a7542b3b2b67c5"
                            },
                            {
                                "name": "spender",
                                "type": "address",
                                "value": "0x7a250d5630b4cf539739df2c5dacb4c659f2488d"
                            },
                            {
                                "decimalAvailable": true,
                                "name": "value",
                                "type": "uint256",
                                "value": "115,792,089,237,316,195,423,570,985,008,687,907,853,269,984,665,640,553,756,853,723,231,330,446,112,511"
                            }
                        ],
                        "signature": "Approval(address,address,uint256)"
                    },
                    "id": 36,
                    "logData": "0xfffffffffffffffffffffffffffffffffffffffffff77e92ed8221d7676076ff",
                    "logDecoded": true,
                    "operation": "EVENT",
                    "revert": false,
                    "status": true,
                    "topics": [
                        "0x8c5be1e5ebec7d5bd14f71427d1e84f3dd0314c0f7b2291e5b200ac8c7c3b925",
                        "0x000000000000000000000000f9c58aef59f89cbe8948c82435a7542b3b2b67c5",
                        "0x0000000000000000000000007a250d5630b4cf539739df2c5dacb4c659f2488d"
                    ]
                },
                "nodeType": 1
            },
            "37": {
                "invocation": {
                    "address": "0xdac17f958d2ee523a2206206994597c13d831ec7",
                    "callData": "0x000000000000000000000000f9c58aef59f89cbe8948c82435a7542b3b2b67c5",
                    "decodedMethod": {
                        "callParams": [
                            {
                                "name": "who",
                                "type": "address",
                                "value": "0xf9c58aef59f89cbe8948c82435a7542b3b2b67c5"
                            }
                        ],
                        "constructorArguments": "",
                        "name": "balanceOf",
                        "returnParams": [
                            {
                                "decimalAvailable": true,
                                "name": "",
                                "type": "uint256",
                                "value": "1,500,762,330"
                            }
                        ],
                        "signature": "balanceOf(address)"
                    },
                    "errorInfo": "",
                    "fromAddress": "0x7a250d5630b4cf539739df2c5dacb4c659f2488d",
                    "gasUsed": 5031,
                    "id": 37,
                    "methodDecoded": true,
                    "operation": "STATICCALL",
                    "output": "0x000000000000000000000000000000000000000000000000000000005973d0da",
                    "revert": false,
                    "revertMessage": "",
                    "selector": "0x70a08231",
                    "status": true,
                    "value": "0"
                },
                "nodeType": 0
            },
            "38": {
                "invocation": {
                    "address": "0x4950c153f472e56a79d1e49717db409007c00527",
                    "callData": "0x",
                    "decodedMethod": {
                        "callParams": [],
                        "constructorArguments": "",
                        "name": "getReserves",
                        "returnParams": [
                            {
                                "name": "_reserve0",
                                "type": "uint112",
                                "value": "121,988,268,863,429,600,330,750,046"
                            },
                            {
                                "name": "_reserve1",
                                "type": "uint112",
                                "value": "8,733,993,091,175,093,339"
                            },
                            {
                                "name": "_blockTimestampLast",
                                "type": "uint32",
                                "value": "1,725,537,107"
                            }
                        ],
                        "signature": "getReserves()"
                    },
                    "errorInfo": "",
                    "fromAddress": "0x7a250d5630b4cf539739df2c5dacb4c659f2488d",
                    "gasUsed": 504,
                    "id": 38,
                    "methodDecoded": true,
                    "operation": "STATICCALL",
                    "output": "0x00000000000000000000000000000000000000000064e8054e544cb11f75985e000000000000000000000000000000000000000000000000793560711635145b0000000000000000000000000000000000000000000000000000000066d99b53",
                    "revert": false,
                    "revertMessage": "",
                    "selector": "0x0902f1ac",
                    "status": true,
                    "value": "0"
                },
                "nodeType": 0
            },
            "39": {
                "invocation": {
                    "address": "0x403963f87d6822cbf2ab3b6e1ec5e9d6550daba9",
                    "callData": "0x0000000000000000000000004950c153f472e56a79d1e49717db409007c00527",
                    "decodedMethod": {
                        "callParams": [
                            {
                                "name": "account",
                                "type": "address",
                                "value": "0x4950c153f472e56a79d1e49717db409007c00527"
                            }
                        ],
                        "constructorArguments": "",
                        "name": "balanceOf",
                        "returnParams": [
                            {
                                "decimalAvailable": true,
                                "name": "",
                                "type": "uint256",
                                "value": "125,221,579,163,429,600,330,750,046"
                            }
                        ],
                        "signature": "balanceOf(address)"
                    },
                    "errorInfo": "",
                    "fromAddress": "0x7a250d5630b4cf539739df2c5dacb4c659f2488d",
                    "gasUsed": 954,
                    "id": 39,
                    "methodDecoded": true,
                    "operation": "STATICCALL",
                    "output": "0x0000000000000000000000000000000000000000006794b36896ea876dcb985e",
                    "revert": false,
                    "revertMessage": "",
                    "selector": "0x70a08231",
                    "status": true,
                    "value": "0"
                },
                "nodeType": 0
            },
            "4": {
                "event": {
                    "contract": "0x403963f87d6822cbf2ab3b6e1ec5e9d6550daba9",
                    "decodedLog": {
                        "name": "Approval",
                        "params": [
                            {
                                "name": "owner",
                                "type": "address",
                                "value": "0x403963f87d6822cbf2ab3b6e1ec5e9d6550daba9"
                            },
                            {
                                "name": "spender",
                                "type": "address",
                                "value": "0x7a250d5630b4cf539739df2c5dacb4c659f2488d"
                            },
                            {
                                "decimalAvailable": true,
                                "name": "value",
                                "type": "uint256",
                                "value": "32,659,700,000,000,000,000,000"
                            }
                        ],
                        "signature": "Approval(address,address,uint256)"
                    },
                    "id": 4,
                    "logData": "0x0000000000000000000000000000000000000000000006ea7c62ef7e49320000",
                    "logDecoded": true,
                    "operation": "EVENT",
                    "revert": false,
                    "status": true,
                    "topics": [
                        "0x8c5be1e5ebec7d5bd14f71427d1e84f3dd0314c0f7b2291e5b200ac8c7c3b925",
                        "0x000000000000000000000000403963f87d6822cbf2ab3b6e1ec5e9d6550daba9",
                        "0x0000000000000000000000007a250d5630b4cf539739df2c5dacb4c659f2488d"
                    ]
                },
                "nodeType": 1
            },
            "40": {
                "invocation": {
                    "address": "0x7af9ac1fdb60caf6510af1944f8b4b21f0fe9244",
                    "callData": "0x0000000000000000000000004950c153f472e56a79d1e49717db409007c00527",
                    "decodedMethod": {
                        "callParams": [
                            {
                                "name": "account",
                                "type": "address",
                                "value": "0x4950c153f472e56a79d1e49717db409007c00527"
                            }
                        ],
                        "constructorArguments": "",
                        "name": "balanceOf",
                        "returnParams": [
                            {
                                "decimalAvailable": true,
                                "name": "",
                                "type": "uint256",
                                "value": "125,221,579,163,429,600,330,750,046"
                            }
                        ],
                        "signature": "balanceOf(address)"
                    },
                    "errorInfo": "",
                    "fromAddress": "0x403963f87d6822cbf2ab3b6e1ec5e9d6550daba9",
                    "gasUsed": 667,
                    "id": 40,
                    "methodDecoded": true,
                    "operation": "DELEGATECALL",
                    "output": "0x0000000000000000000000000000000000000000006794b36896ea876dcb985e",
                    "revert": false,
                    "revertMessage": "",
                    "selector": "0x70a08231",
                    "status": true,
                    "value": "0"
                },
                "nodeType": 0
            },
            "41": {
                "invocation": {
                    "address": "0x4950c153f472e56a79d1e49717db409007c00527",
                    "callData": "0x0000000000000000000000000000000000000000000000000000000000000000000000000000000000000000000000000000000000000000031edbdf02f864ff0000000000000000000000000d4a11d5eeaac28ec3f61d100daf4d40471f185200000000000000000000000000000000000000000000000000000000000000800000000000000000000000000000000000000000000000000000000000000000",
                    "decodedMethod": {
                        "callParams": [
                            {
                                "name": "amount0Out",
                                "type": "uint256",
                                "value": "0"
                            },
                            {
                                "name": "amount1Out",
                                "type": "uint256",
                                "value": "224,858,782,289,126,655"
                            },
                            {
                                "name": "to",
                                "type": "address",
                                "value": "0x0d4a11d5eeaac28ec3f61d100daf4d40471f1852"
                            },
                            {
                                "name": "data",
                                "type": "bytes",
                                "value": "0x"
                            }
                        ],
                        "constructorArguments": "",
                        "name": "swap",
                        "returnParams": [],
                        "signature": "swap(uint256,uint256,address,bytes)"
                    },
                    "errorInfo": "",
                    "fromAddress": "0x7a250d5630b4cf539739df2c5dacb4c659f2488d",
                    "gasUsed": 21657,
                    "id": 41,
                    "methodDecoded": true,
                    "operation": "CALL",
                    "output": "",
                    "revert": false,
                    "revertMessage": "",
                    "selector": "0x022c0d9f",
                    "status": true,
                    "value": "0"
                },
                "nodeType": 0
            },
            "42": {
                "invocation": {
                    "address": "0xc02aaa39b223fe8d0a0e5c4f27ead9083c756cc2",
                    "callData": "0x0000000000000000000000000d4a11d5eeaac28ec3f61d100daf4d40471f1852000000000000000000000000000000000000000000000000031edbdf02f864ff",
                    "decodedMethod": {
                        "callParams": [
                            {
                                "name": "dst",
                                "type": "address",
                                "value": "0x0d4a11d5eeaac28ec3f61d100daf4d40471f1852"
                            },
                            {
                                "decimalAvailable": true,
                                "name": "wad",
                                "type": "uint256",
                                "value": "224,858,782,289,126,655"
                            }
                        ],
                        "constructorArguments": "",
                        "name": "transfer",
                        "returnParams": [
                            {
                                "name": "",
                                "type": "bool",
                                "value": true
                            }
                        ],
                        "signature": "transfer(address,uint256)"
                    },
                    "errorInfo": "",
                    "fromAddress": "0x4950c153f472e56a79d1e49717db409007c00527",
                    "gasUsed": 8062,
                    "id": 42,
                    "methodDecoded": true,
                    "operation": "CALL",
                    "output": "0x0000000000000000000000000000000000000000000000000000000000000001",
                    "revert": false,
                    "revertMessage": "",
                    "selector": "0xa9059cbb",
                    "status": true,
                    "value": "0"
                },
                "nodeType": 0
            },
            "43": {
                "event": {
                    "contract": "0xc02aaa39b223fe8d0a0e5c4f27ead9083c756cc2",
                    "decodedLog": {
                        "name": "Transfer",
                        "params": [
                            {
                                "name": "src",
                                "type": "address",
                                "value": "0x4950c153f472e56a79d1e49717db409007c00527"
                            },
                            {
                                "name": "dst",
                                "type": "address",
                                "value": "0x0d4a11d5eeaac28ec3f61d100daf4d40471f1852"
                            },
                            {
                                "decimalAvailable": true,
                                "name": "wad",
                                "type": "uint256",
                                "value": "224,858,782,289,126,655"
                            }
                        ],
                        "signature": "Transfer(address,address,uint256)"
                    },
                    "id": 43,
                    "logData": "0x000000000000000000000000000000000000000000000000031edbdf02f864ff",
                    "logDecoded": true,
                    "operation": "EVENT",
                    "revert": false,
                    "status": true,
                    "topics": [
                        "0xddf252ad1be2c89b69c2b068fc378daa952ba7f163c4a11628f55a4df523b3ef",
                        "0x0000000000000000000000004950c153f472e56a79d1e49717db409007c00527",
                        "0x0000000000000000000000000d4a11d5eeaac28ec3f61d100daf4d40471f1852"
                    ]
                },
                "nodeType": 1
            },
            "44": {
                "invocation": {
                    "address": "0x403963f87d6822cbf2ab3b6e1ec5e9d6550daba9",
                    "callData": "0x0000000000000000000000004950c153f472e56a79d1e49717db409007c00527",
                    "decodedMethod": {
                        "callParams": [
                            {
                                "name": "account",
                                "type": "address",
                                "value": "0x4950c153f472e56a79d1e49717db409007c00527"
                            }
                        ],
                        "constructorArguments": "",
                        "name": "balanceOf",
                        "returnParams": [
                            {
                                "decimalAvailable": true,
                                "name": "",
                                "type": "uint256",
                                "value": "125,221,579,163,429,600,330,750,046"
                            }
                        ],
                        "signature": "balanceOf(address)"
                    },
                    "errorInfo": "",
                    "fromAddress": "0x4950c153f472e56a79d1e49717db409007c00527",
                    "gasUsed": 954,
                    "id": 44,
                    "methodDecoded": true,
                    "operation": "STATICCALL",
                    "output": "0x0000000000000000000000000000000000000000006794b36896ea876dcb985e",
                    "revert": false,
                    "revertMessage": "",
                    "selector": "0x70a08231",
                    "status": true,
                    "value": "0"
                },
                "nodeType": 0
            },
            "45": {
                "invocation": {
                    "address": "0x7af9ac1fdb60caf6510af1944f8b4b21f0fe9244",
                    "callData": "0x0000000000000000000000004950c153f472e56a79d1e49717db409007c00527",
                    "decodedMethod": {
                        "callParams": [
                            {
                                "name": "account",
                                "type": "address",
                                "value": "0x4950c153f472e56a79d1e49717db409007c00527"
                            }
                        ],
                        "constructorArguments": "",
                        "name": "balanceOf",
                        "returnParams": [
                            {
                                "decimalAvailable": true,
                                "name": "",
                                "type": "uint256",
                                "value": "125,221,579,163,429,600,330,750,046"
                            }
                        ],
                        "signature": "balanceOf(address)"
                    },
                    "errorInfo": "",
                    "fromAddress": "0x403963f87d6822cbf2ab3b6e1ec5e9d6550daba9",
                    "gasUsed": 667,
                    "id": 45,
                    "methodDecoded": true,
                    "operation": "DELEGATECALL",
                    "output": "0x0000000000000000000000000000000000000000006794b36896ea876dcb985e",
                    "revert": false,
                    "revertMessage": "",
                    "selector": "0x70a08231",
                    "status": true,
                    "value": "0"
                },
                "nodeType": 0
            },
            "46": {
                "invocation": {
                    "address": "0xc02aaa39b223fe8d0a0e5c4f27ead9083c756cc2",
                    "callData": "0x0000000000000000000000004950c153f472e56a79d1e49717db409007c00527",
                    "decodedMethod": {
                        "callParams": [
                            {
                                "name": "",
                                "type": "address",
                                "value": "0x4950c153f472e56a79d1e49717db409007c00527"
                            }
                        ],
                        "constructorArguments": "",
                        "name": "balanceOf",
                        "returnParams": [
                            {
                                "decimalAvailable": true,
                                "name": "",
                                "type": "uint256",
                                "value": "8,509,134,308,885,966,684"
                            }
                        ],
                        "signature": "balanceOf(address)"
                    },
                    "errorInfo": "",
                    "fromAddress": "0x4950c153f472e56a79d1e49717db409007c00527",
                    "gasUsed": 534,
                    "id": 46,
                    "methodDecoded": true,
                    "operation": "STATICCALL",
                    "output": "0x00000000000000000000000000000000000000000000000076168492133caf5c",
                    "revert": false,
                    "revertMessage": "",
                    "selector": "0x70a08231",
                    "status": true,
                    "value": "0"
                },
                "nodeType": 0
            },
            "47": {
                "event": {
                    "contract": "0x4950c153f472e56a79d1e49717db409007c00527",
                    "decodedLog": {
                        "name": "Sync",
                        "params": [
                            {
                                "name": "reserve0",
                                "type": "uint112",
                                "value": "125,221,579,163,429,600,330,750,046"
                            },
                            {
                                "name": "reserve1",
                                "type": "uint112",
                                "value": "8,509,134,308,885,966,684"
                            }
                        ],
                        "signature": "Sync(uint112,uint112)"
                    },
                    "id": 47,
                    "logData": "0x0000000000000000000000000000000000000000006794b36896ea876dcb985e00000000000000000000000000000000000000000000000076168492133caf5c",
                    "logDecoded": true,
                    "operation": "EVENT",
                    "revert": false,
                    "status": true,
                    "topics": [
                        "0x1c411e9a96e071241c2f21f7726b17ae89e3cab4c78be50e062b03a9fffbbad1"
                    ]
                },
                "nodeType": 1
            },
            "48": {
                "event": {
                    "contract": "0x4950c153f472e56a79d1e49717db409007c00527",
                    "decodedLog": {
                        "name": "Swap",
                        "params": [
                            {
                                "name": "sender",
                                "type": "address",
                                "value": "0x7a250d5630b4cf539739df2c5dacb4c659f2488d"
                            },
                            {
                                "name": "to",
                                "type": "address",
                                "value": "0x0d4a11d5eeaac28ec3f61d100daf4d40471f1852"
                            },
                            {
                                "name": "amount0In",
                                "type": "uint256",
                                "value": "3,233,310,300,000,000,000,000,000"
                            },
                            {
                                "name": "amount1In",
                                "type": "uint256",
                                "value": "0"
                            },
                            {
                                "name": "amount0Out",
                                "type": "uint256",
                                "value": "0"
                            },
                            {
                                "name": "amount1Out",
                                "type": "uint256",
                                "value": "224,858,782,289,126,655"
                            }
                        ],
                        "signature": "Swap(address,uint256,uint256,uint256,uint256,address)"
                    },
                    "id": 48,
                    "logData": "0x00000000000000000000000000000000000000000002acae1a429dd64e56000000000000000000000000000000000000000000000000000000000000000000000000000000000000000000000000000000000000000000000000000000000000000000000000000000000000000000000000000000000000031edbdf02f864ff",
                    "logDecoded": true,
                    "operation": "EVENT",
                    "revert": false,
                    "status": true,
                    "topics": [
                        "0xd78ad95fa46c994b6551d0da85fc275fe613ce37657fb8d5e3d130840159d822",
                        "0x0000000000000000000000007a250d5630b4cf539739df2c5dacb4c659f2488d",
                        "0x0000000000000000000000000d4a11d5eeaac28ec3f61d100daf4d40471f1852"
                    ]
                },
                "nodeType": 1
            },
            "49": {
                "invocation": {
                    "address": "0x0d4a11d5eeaac28ec3f61d100daf4d40471f1852",
                    "callData": "0x",
                    "decodedMethod": {
                        "callParams": [],
                        "constructorArguments": "",
                        "name": "getReserves",
                        "returnParams": [
                            {
                                "name": "_reserve0",
                                "type": "uint112",
                                "value": "23,891,911,550,543,221,295,808"
                            },
                            {
                                "name": "_reserve1",
                                "type": "uint112",
                                "value": "57,177,814,681,927"
                            },
                            {
                                "name": "_blockTimestampLast",
                                "type": "uint32",
                                "value": "1,725,537,083"
                            }
                        ],
                        "signature": "getReserves()"
                    },
                    "errorInfo": "",
                    "fromAddress": "0x7a250d5630b4cf539739df2c5dacb4c659f2488d",
                    "gasUsed": 2504,
                    "id": 49,
                    "methodDecoded": true,
                    "operation": "STATICCALL",
                    "output": "0x00000000000000000000000000000000000000000000050f2ee0fa724cf10ac000000000000000000000000000000000000000000000000000003400bf5549470000000000000000000000000000000000000000000000000000000066d99b3b",
                    "revert": false,
                    "revertMessage": "",
                    "selector": "0x0902f1ac",
                    "status": true,
                    "value": "0"
                },
                "nodeType": 0
            },
            "5": {
                "invocation": {
                    "address": "0x7a250d5630b4cf539739df2c5dacb4c659f2488d",
                    "callData": "0x0000000000000000000000000000000000000000000006ea7c62ef7e49320000000000000000000000000000000000000000000000000000000000000000000000000000000000000000000000000000000000000000000000000000000000a0000000000000000000000000403963f87d6822cbf2ab3b6e1ec5e9d6550daba90000000000000000000000000000000000000000000000000000000066d99b530000000000000000000000000000000000000000000000000000000000000002000000000000000000000000403963f87d6822cbf2ab3b6e1ec5e9d6550daba9000000000000000000000000c02aaa39b223fe8d0a0e5c4f27ead9083c756cc2",
                    "decodedMethod": {
                        "callParams": [
                            {
                                "name": "amountIn",
                                "type": "uint256",
                                "value": "32,659,700,000,000,000,000,000"
                            },
                            {
                                "name": "amountOutMin",
                                "type": "uint256",
                                "value": "0"
                            },
                            {
                                "name": "path",
                                "type": "address[]",
                                "value": [
                                    "0x403963f87d6822cbf2ab3b6e1ec5e9d6550daba9",
                                    "0xc02aaa39b223fe8d0a0e5c4f27ead9083c756cc2"
                                ]
                            },
                            {
                                "name": "to",
                                "type": "address",
                                "value": "0x403963f87d6822cbf2ab3b6e1ec5e9d6550daba9"
                            },
                            {
                                "name": "deadline",
                                "type": "uint256",
                                "value": "1,725,537,107"
                            }
                        ],
                        "constructorArguments": "",
                        "name": "swapExactTokensForETHSupportingFeeOnTransferTokens",
                        "returnParams": [],
                        "signature": "swapExactTokensForETHSupportingFeeOnTransferTokens(uint256,uint256,address[],address,uint256)"
                    },
                    "errorInfo": "",
                    "fromAddress": "0x403963f87d6822cbf2ab3b6e1ec5e9d6550daba9",
                    "gasUsed": 106523,
                    "id": 5,
                    "methodDecoded": true,
                    "operation": "CALL",
                    "output": "",
                    "revert": false,
                    "revertMessage": "",
                    "selector": "0x791ac947",
                    "status": true,
                    "value": "0"
                },
                "nodeType": 0
            },
            "50": {
                "invocation": {
                    "address": "0xc02aaa39b223fe8d0a0e5c4f27ead9083c756cc2",
                    "callData": "0x0000000000000000000000000d4a11d5eeaac28ec3f61d100daf4d40471f1852",
                    "decodedMethod": {
                        "callParams": [
                            {
                                "name": "",
                                "type": "address",
                                "value": "0x0d4a11d5eeaac28ec3f61d100daf4d40471f1852"
                            }
                        ],
                        "constructorArguments": "",
                        "name": "balanceOf",
                        "returnParams": [
                            {
                                "decimalAvailable": true,
                                "name": "",
                                "type": "uint256",
                                "value": "23,892,136,409,325,510,422,463"
                            }
                        ],
                        "signature": "balanceOf(address)"
                    },
                    "errorInfo": "",
                    "fromAddress": "0x7a250d5630b4cf539739df2c5dacb4c659f2488d",
                    "gasUsed": 534,
                    "id": 50,
                    "methodDecoded": true,
                    "operation": "STATICCALL",
                    "output": "0x00000000000000000000000000000000000000000000050f31ffd6514fe96fbf",
                    "revert": false,
                    "revertMessage": "",
                    "selector": "0x70a08231",
                    "status": true,
                    "value": "0"
                },
                "nodeType": 0
            },
            "51": {
                "invocation": {
                    "address": "0x0d4a11d5eeaac28ec3f61d100daf4d40471f1852",
                    "callData": "0x0000000000000000000000000000000000000000000000000000000000000000000000000000000000000000000000000000000000000000000000001ffa7d15000000000000000000000000f9c58aef59f89cbe8948c82435a7542b3b2b67c500000000000000000000000000000000000000000000000000000000000000800000000000000000000000000000000000000000000000000000000000000000",
                    "decodedMethod": {
                        "callParams": [
                            {
                                "name": "amount0Out",
                                "type": "uint256",
                                "value": "0"
                            },
                            {
                                "name": "amount1Out",
                                "type": "uint256",
                                "value": "536,509,717"
                            },
                            {
                                "name": "to",
                                "type": "address",
                                "value": "0xf9c58aef59f89cbe8948c82435a7542b3b2b67c5"
                            },
                            {
                                "name": "data",
                                "type": "bytes",
                                "value": "0x"
                            }
                        ],
                        "constructorArguments": "",
                        "name": "swap",
                        "returnParams": [],
                        "signature": "swap(uint256,uint256,address,bytes)"
                    },
                    "errorInfo": "",
                    "fromAddress": "0x7a250d5630b4cf539739df2c5dacb4c659f2488d",
                    "gasUsed": 53262,
                    "id": 51,
                    "methodDecoded": true,
                    "operation": "CALL",
                    "output": "",
                    "revert": false,
                    "revertMessage": "",
                    "selector": "0x022c0d9f",
                    "status": true,
                    "value": "0"
                },
                "nodeType": 0
            },
            "52": {
                "invocation": {
                    "address": "0xdac17f958d2ee523a2206206994597c13d831ec7",
                    "callData": "0x000000000000000000000000f9c58aef59f89cbe8948c82435a7542b3b2b67c5000000000000000000000000000000000000000000000000000000001ffa7d15",
                    "decodedMethod": {
                        "callParams": [
                            {
                                "name": "_to",
                                "type": "address",
                                "value": "0xf9c58aef59f89cbe8948c82435a7542b3b2b67c5"
                            },
                            {
                                "decimalAvailable": true,
                                "name": "_value",
                                "type": "uint256",
                                "value": "536,509,717"
                            }
                        ],
                        "constructorArguments": "",
                        "name": "transfer",
                        "returnParams": [],
                        "signature": "transfer(address,uint256)"
                    },
                    "errorInfo": "",
                    "fromAddress": "0x0d4a11d5eeaac28ec3f61d100daf4d40471f1852",
                    "gasUsed": 20501,
                    "id": 52,
                    "methodDecoded": true,
                    "operation": "CALL",
                    "output": "",
                    "revert": false,
                    "revertMessage": "",
                    "selector": "0xa9059cbb",
                    "status": true,
                    "value": "0"
                },
                "nodeType": 0
            },
            "53": {
                "event": {
                    "contract": "0xdac17f958d2ee523a2206206994597c13d831ec7",
                    "decodedLog": {
                        "name": "Transfer",
                        "params": [
                            {
                                "name": "from",
                                "type": "address",
                                "value": "0x0d4a11d5eeaac28ec3f61d100daf4d40471f1852"
                            },
                            {
                                "name": "to",
                                "type": "address",
                                "value": "0xf9c58aef59f89cbe8948c82435a7542b3b2b67c5"
                            },
                            {
                                "decimalAvailable": true,
                                "name": "value",
                                "type": "uint256",
                                "value": "536,509,717"
                            }
                        ],
                        "signature": "Transfer(address,address,uint256)"
                    },
                    "id": 53,
                    "logData": "0x000000000000000000000000000000000000000000000000000000001ffa7d15",
                    "logDecoded": true,
                    "operation": "EVENT",
                    "revert": false,
                    "status": true,
                    "topics": [
                        "0xddf252ad1be2c89b69c2b068fc378daa952ba7f163c4a11628f55a4df523b3ef",
                        "0x0000000000000000000000000d4a11d5eeaac28ec3f61d100daf4d40471f1852",
                        "0x000000000000000000000000f9c58aef59f89cbe8948c82435a7542b3b2b67c5"
                    ]
                },
                "nodeType": 1
            },
            "54": {
                "invocation": {
                    "address": "0xc02aaa39b223fe8d0a0e5c4f27ead9083c756cc2",
                    "callData": "0x0000000000000000000000000d4a11d5eeaac28ec3f61d100daf4d40471f1852",
                    "decodedMethod": {
                        "callParams": [
                            {
                                "name": "",
                                "type": "address",
                                "value": "0x0d4a11d5eeaac28ec3f61d100daf4d40471f1852"
                            }
                        ],
                        "constructorArguments": "",
                        "name": "balanceOf",
                        "returnParams": [
                            {
                                "decimalAvailable": true,
                                "name": "",
                                "type": "uint256",
                                "value": "23,892,136,409,325,510,422,463"
                            }
                        ],
                        "signature": "balanceOf(address)"
                    },
                    "errorInfo": "",
                    "fromAddress": "0x0d4a11d5eeaac28ec3f61d100daf4d40471f1852",
                    "gasUsed": 534,
                    "id": 54,
                    "methodDecoded": true,
                    "operation": "STATICCALL",
                    "output": "0x00000000000000000000000000000000000000000000050f31ffd6514fe96fbf",
                    "revert": false,
                    "revertMessage": "",
                    "selector": "0x70a08231",
                    "status": true,
                    "value": "0"
                },
                "nodeType": 0
            },
            "55": {
                "invocation": {
                    "address": "0xdac17f958d2ee523a2206206994597c13d831ec7",
                    "callData": "0x0000000000000000000000000d4a11d5eeaac28ec3f61d100daf4d40471f1852",
                    "decodedMethod": {
                        "callParams": [
                            {
                                "name": "who",
                                "type": "address",
                                "value": "0x0d4a11d5eeaac28ec3f61d100daf4d40471f1852"
                            }
                        ],
                        "constructorArguments": "",
                        "name": "balanceOf",
                        "returnParams": [
                            {
                                "decimalAvailable": true,
                                "name": "",
                                "type": "uint256",
                                "value": "57,177,278,172,210"
                            }
                        ],
                        "signature": "balanceOf(address)"
                    },
                    "errorInfo": "",
                    "fromAddress": "0x0d4a11d5eeaac28ec3f61d100daf4d40471f1852",
                    "gasUsed": 1031,
                    "id": 55,
                    "methodDecoded": true,
                    "operation": "STATICCALL",
                    "output": "0x000000000000000000000000000000000000000000000000000034009f5acc32",
                    "revert": false,
                    "revertMessage": "",
                    "selector": "0x70a08231",
                    "status": true,
                    "value": "0"
                },
                "nodeType": 0
            },
            "56": {
                "event": {
                    "contract": "0x0d4a11d5eeaac28ec3f61d100daf4d40471f1852",
                    "decodedLog": {
                        "name": "Sync",
                        "params": [
                            {
                                "name": "reserve0",
                                "type": "uint112",
                                "value": "23,892,136,409,325,510,422,463"
                            },
                            {
                                "name": "reserve1",
                                "type": "uint112",
                                "value": "57,177,278,172,210"
                            }
                        ],
                        "signature": "Sync(uint112,uint112)"
                    },
                    "id": 56,
                    "logData": "0x00000000000000000000000000000000000000000000050f31ffd6514fe96fbf000000000000000000000000000000000000000000000000000034009f5acc32",
                    "logDecoded": true,
                    "operation": "EVENT",
                    "revert": false,
                    "status": true,
                    "topics": [
                        "0x1c411e9a96e071241c2f21f7726b17ae89e3cab4c78be50e062b03a9fffbbad1"
                    ]
                },
                "nodeType": 1
            },
            "57": {
                "event": {
                    "contract": "0x0d4a11d5eeaac28ec3f61d100daf4d40471f1852",
                    "decodedLog": {
                        "name": "Swap",
                        "params": [
                            {
                                "name": "sender",
                                "type": "address",
                                "value": "0x7a250d5630b4cf539739df2c5dacb4c659f2488d"
                            },
                            {
                                "name": "to",
                                "type": "address",
                                "value": "0xf9c58aef59f89cbe8948c82435a7542b3b2b67c5"
                            },
                            {
                                "name": "amount0In",
                                "type": "uint256",
                                "value": "224,858,782,289,126,655"
                            },
                            {
                                "name": "amount1In",
                                "type": "uint256",
                                "value": "0"
                            },
                            {
                                "name": "amount0Out",
                                "type": "uint256",
                                "value": "0"
                            },
                            {
                                "name": "amount1Out",
                                "type": "uint256",
                                "value": "536,509,717"
                            }
                        ],
                        "signature": "Swap(address,uint256,uint256,uint256,uint256,address)"
                    },
                    "id": 57,
                    "logData": "0x000000000000000000000000000000000000000000000000031edbdf02f864ff00000000000000000000000000000000000000000000000000000000000000000000000000000000000000000000000000000000000000000000000000000000000000000000000000000000000000000000000000000000000000001ffa7d15",
                    "logDecoded": true,
                    "operation": "EVENT",
                    "revert": false,
                    "status": true,
                    "topics": [
                        "0xd78ad95fa46c994b6551d0da85fc275fe613ce37657fb8d5e3d130840159d822",
                        "0x0000000000000000000000007a250d5630b4cf539739df2c5dacb4c659f2488d",
                        "0x000000000000000000000000f9c58aef59f89cbe8948c82435a7542b3b2b67c5"
                    ]
                },
                "nodeType": 1
            },
            "58": {
                "invocation": {
                    "address": "0xdac17f958d2ee523a2206206994597c13d831ec7",
                    "callData": "0x000000000000000000000000f9c58aef59f89cbe8948c82435a7542b3b2b67c5",
                    "decodedMethod": {
                        "callParams": [
                            {
                                "name": "who",
                                "type": "address",
                                "value": "0xf9c58aef59f89cbe8948c82435a7542b3b2b67c5"
                            }
                        ],
                        "constructorArguments": "",
                        "name": "balanceOf",
                        "returnParams": [
                            {
                                "decimalAvailable": true,
                                "name": "",
                                "type": "uint256",
                                "value": "2,037,272,047"
                            }
                        ],
                        "signature": "balanceOf(address)"
                    },
                    "errorInfo": "",
                    "fromAddress": "0x7a250d5630b4cf539739df2c5dacb4c659f2488d",
                    "gasUsed": 1031,
                    "id": 58,
                    "methodDecoded": true,
                    "operation": "STATICCALL",
                    "output": "0x00000000000000000000000000000000000000000000000000000000796e4def",
                    "revert": false,
                    "revertMessage": "",
                    "selector": "0x70a08231",
                    "status": true,
                    "value": "0"
                },
                "nodeType": 0
            },
            "6": {
                "invocation": {
                    "address": "0x403963f87d6822cbf2ab3b6e1ec5e9d6550daba9",
                    "callData": "0x000000000000000000000000403963f87d6822cbf2ab3b6e1ec5e9d6550daba90000000000000000000000004950c153f472e56a79d1e49717db409007c005270000000000000000000000000000000000000000000006ea7c62ef7e49320000",
                    "decodedMethod": {
                        "callParams": [
                            {
                                "name": "sender",
                                "type": "address",
                                "value": "0x403963f87d6822cbf2ab3b6e1ec5e9d6550daba9"
                            },
                            {
                                "name": "recipient",
                                "type": "address",
                                "value": "0x4950c153f472e56a79d1e49717db409007c00527"
                            },
                            {
                                "decimalAvailable": true,
                                "name": "amount",
                                "type": "uint256",
                                "value": "32,659,700,000,000,000,000,000"
                            }
                        ],
                        "constructorArguments": "",
                        "name": "transferFrom",
                        "returnParams": [
                            {
                                "name": "",
                                "type": "bool",
                                "value": true
                            }
                        ],
                        "signature": "transferFrom(address,address,uint256)"
                    },
                    "errorInfo": "",
                    "fromAddress": "0x7a250d5630b4cf539739df2c5dacb4c659f2488d",
                    "gasUsed": 11130,
                    "id": 6,
                    "methodDecoded": true,
                    "operation": "CALL",
                    "output": "0x0000000000000000000000000000000000000000000000000000000000000001",
                    "revert": false,
                    "revertMessage": "",
                    "selector": "0x23b872dd",
                    "status": true,
                    "value": "0"
                },
                "nodeType": 0
            },
            "7": {
                "invocation": {
                    "address": "0x7af9ac1fdb60caf6510af1944f8b4b21f0fe9244",
                    "callData": "0x000000000000000000000000403963f87d6822cbf2ab3b6e1ec5e9d6550daba90000000000000000000000004950c153f472e56a79d1e49717db409007c005270000000000000000000000000000000000000000000006ea7c62ef7e49320000",
                    "decodedMethod": {
                        "callParams": [
                            {
                                "name": "sender",
                                "type": "address",
                                "value": "0x403963f87d6822cbf2ab3b6e1ec5e9d6550daba9"
                            },
                            {
                                "name": "recipient",
                                "type": "address",
                                "value": "0x4950c153f472e56a79d1e49717db409007c00527"
                            },
                            {
                                "decimalAvailable": true,
                                "name": "amount",
                                "type": "uint256",
                                "value": "32,659,700,000,000,000,000,000"
                            }
                        ],
                        "constructorArguments": "",
                        "name": "transferFrom",
                        "returnParams": [
                            {
                                "name": "",
                                "type": "bool",
                                "value": true
                            }
                        ],
                        "signature": "transferFrom(address,address,uint256)"
                    },
                    "errorInfo": "",
                    "fromAddress": "0x403963f87d6822cbf2ab3b6e1ec5e9d6550daba9",
                    "gasUsed": 10834,
                    "id": 7,
                    "methodDecoded": true,
                    "operation": "DELEGATECALL",
                    "output": "0x0000000000000000000000000000000000000000000000000000000000000001",
                    "revert": false,
                    "revertMessage": "",
                    "selector": "0x23b872dd",
                    "status": true,
                    "value": "0"
                },
                "nodeType": 0
            },
            "8": {
                "event": {
                    "contract": "0x403963f87d6822cbf2ab3b6e1ec5e9d6550daba9",
                    "decodedLog": {
                        "name": "Transfer",
                        "params": [
                            {
                                "name": "from",
                                "type": "address",
                                "value": "0x403963f87d6822cbf2ab3b6e1ec5e9d6550daba9"
                            },
                            {
                                "name": "to",
                                "type": "address",
                                "value": "0x4950c153f472e56a79d1e49717db409007c00527"
                            },
                            {
                                "decimalAvailable": true,
                                "name": "value",
                                "type": "uint256",
                                "value": "32,659,700,000,000,000,000,000"
                            }
                        ],
                        "signature": "Transfer(address,address,uint256)"
                    },
                    "id": 8,
                    "logData": "0x0000000000000000000000000000000000000000000006ea7c62ef7e49320000",
                    "logDecoded": true,
                    "operation": "EVENT",
                    "revert": false,
                    "status": true,
                    "topics": [
                        "0xddf252ad1be2c89b69c2b068fc378daa952ba7f163c4a11628f55a4df523b3ef",
                        "0x000000000000000000000000403963f87d6822cbf2ab3b6e1ec5e9d6550daba9",
                        "0x0000000000000000000000004950c153f472e56a79d1e49717db409007c00527"
                    ]
                },
                "nodeType": 1
            },
            "9": {
                "event": {
                    "contract": "0x403963f87d6822cbf2ab3b6e1ec5e9d6550daba9",
                    "decodedLog": {
                        "name": "Approval",
                        "params": [
                            {
                                "name": "owner",
                                "type": "address",
                                "value": "0x403963f87d6822cbf2ab3b6e1ec5e9d6550daba9"
                            },
                            {
                                "name": "spender",
                                "type": "address",
                                "value": "0x7a250d5630b4cf539739df2c5dacb4c659f2488d"
                            },
                            {
                                "decimalAvailable": true,
                                "name": "value",
                                "type": "uint256",
                                "value": "0"
                            }
                        ],
                        "signature": "Approval(address,address,uint256)"
                    },
                    "id": 9,
                    "logData": "0x0000000000000000000000000000000000000000000000000000000000000000",
                    "logDecoded": true,
                    "operation": "EVENT",
                    "revert": false,
                    "status": true,
                    "topics": [
                        "0x8c5be1e5ebec7d5bd14f71427d1e84f3dd0314c0f7b2291e5b200ac8c7c3b925",
                        "0x000000000000000000000000403963f87d6822cbf2ab3b6e1ec5e9d6550daba9",
                        "0x0000000000000000000000007a250d5630b4cf539739df2c5dacb4c659f2488d"
                    ]
                },
                "nodeType": 1
            }
        },
        "gasFlame": [
            {
                "children": [
                    {
                        "children": [
                            {
                                "children": [],
                                "depth": 0,
                                "name": "Initial Gas",
                                "value": 23404
                            },
                            {
                                "children": [
                                    {
                                        "children": [
                                            {
                                                "children": [
                                                    {
                                                        "children": [
                                                            {
                                                                "children": [
                                                                    {
                                                                        "children": [],
                                                                        "depth": 5,
                                                                        "name": "transferFrom",
                                                                        "value": 10834
                                                                    }
                                                                ],
                                                                "depth": 4,
                                                                "name": "transferFrom",
                                                                "value": 11130
                                                            },
                                                            {
                                                                "children": [],
                                                                "depth": 4,
                                                                "name": "getReserves",
                                                                "value": 2504
                                                            },
                                                            {
                                                                "children": [
                                                                    {
                                                                        "children": [],
                                                                        "depth": 5,
                                                                        "name": "balanceOf",
                                                                        "value": 667
                                                                    }
                                                                ],
                                                                "depth": 4,
                                                                "name": "balanceOf",
                                                                "value": 954
                                                            },
                                                            {
                                                                "children": [
                                                                    {
                                                                        "children": [],
                                                                        "depth": 5,
                                                                        "name": "transfer",
                                                                        "value": 29962
                                                                    },
                                                                    {
                                                                        "children": [
                                                                            {
                                                                                "children": [],
                                                                                "depth": 6,
                                                                                "name": "balanceOf",
                                                                                "value": 667
                                                                            }
                                                                        ],
                                                                        "depth": 5,
                                                                        "name": "balanceOf",
                                                                        "value": 954
                                                                    },
                                                                    {
                                                                        "children": [],
                                                                        "depth": 5,
                                                                        "name": "balanceOf",
                                                                        "value": 534
                                                                    }
                                                                ],
                                                                "depth": 4,
                                                                "name": "swap",
                                                                "value": 65273
                                                            },
                                                            {
                                                                "children": [],
                                                                "depth": 4,
                                                                "name": "balanceOf",
                                                                "value": 534
                                                            },
                                                            {
                                                                "children": [
                                                                    {
                                                                        "children": [],
                                                                        "depth": 5,
                                                                        "name": "fallback",
                                                                        "value": 83
                                                                    }
                                                                ],
                                                                "depth": 4,
                                                                "name": "withdraw",
                                                                "value": 9223
                                                            },
                                                            {
                                                                "children": [
                                                                    {
                                                                        "children": [],
                                                                        "depth": 5,
                                                                        "name": "fallback",
                                                                        "value": 55
                                                                    }
                                                                ],
                                                                "depth": 4,
                                                                "name": "fallback",
                                                                "value": 268
                                                            }
                                                        ],
                                                        "depth": 3,
                                                        "name": "swapExactTokensForETHSupportingFeeOnTransferTokens",
                                                        "value": 106523
                                                    },
                                                    {
                                                        "children": [
                                                            {
                                                                "children": [
                                                                    {
                                                                        "children": [],
                                                                        "depth": 5,
                                                                        "name": "deployer",
                                                                        "value": 2425
                                                                    }
                                                                ],
                                                                "depth": 4,
                                                                "name": "deployer",
                                                                "value": 2709
                                                            },
                                                            {
                                                                "children": [],
                                                                "depth": 4,
                                                                "name": "fallback",
                                                                "value": 0
                                                            },
                                                            {
                                                                "children": [
                                                                    {
                                                                        "children": [],
                                                                        "depth": 5,
                                                                        "name": "fallback",
                                                                        "value": 1504
                                                                    }
                                                                ],
                                                                "depth": 4,
                                                                "name": "fallback",
                                                                "value": 6329
                                                            },
                                                            {
                                                                "children": [],
                                                                "depth": 4,
                                                                "name": "fallback",
                                                                "value": 9849
                                                            }
                                                        ],
                                                        "depth": 3,
                                                        "name": "fallback",
                                                        "value": 62540
                                                    }
                                                ],
                                                "depth": 2,
                                                "name": "transferFrom",
                                                "value": 274377
                                            }
                                        ],
                                        "depth": 1,
                                        "name": "transferFrom",
                                        "value": 277173
                                    },
                                    {
                                        "children": [],
                                        "depth": 1,
                                        "name": "balanceOf",
                                        "value": 5031
                                    },
                                    {
                                        "children": [],
                                        "depth": 1,
                                        "name": "getReserves",
                                        "value": 504
                                    },
                                    {
                                        "children": [
                                            {
                                                "children": [],
                                                "depth": 2,
                                                "name": "balanceOf",
                                                "value": 667
                                            }
                                        ],
                                        "depth": 1,
                                        "name": "balanceOf",
                                        "value": 954
                                    },
                                    {
                                        "children": [
                                            {
                                                "children": [],
                                                "depth": 2,
                                                "name": "transfer",
                                                "value": 8062
                                            },
                                            {
                                                "children": [
                                                    {
                                                        "children": [],
                                                        "depth": 3,
                                                        "name": "balanceOf",
                                                        "value": 667
                                                    }
                                                ],
                                                "depth": 2,
                                                "name": "balanceOf",
                                                "value": 954
                                            },
                                            {
                                                "children": [],
                                                "depth": 2,
                                                "name": "balanceOf",
                                                "value": 534
                                            }
                                        ],
                                        "depth": 1,
                                        "name": "swap",
                                        "value": 21657
                                    },
                                    {
                                        "children": [],
                                        "depth": 1,
                                        "name": "getReserves",
                                        "value": 2504
                                    },
                                    {
                                        "children": [],
                                        "depth": 1,
                                        "name": "balanceOf",
                                        "value": 534
                                    },
                                    {
                                        "children": [
                                            {
                                                "children": [],
                                                "depth": 2,
                                                "name": "transfer",
                                                "value": 20501
                                            },
                                            {
                                                "children": [],
                                                "depth": 2,
                                                "name": "balanceOf",
                                                "value": 534
                                            },
                                            {
                                                "children": [],
                                                "depth": 2,
                                                "name": "balanceOf",
                                                "value": 1031
                                            }
                                        ],
                                        "depth": 1,
                                        "name": "swap",
                                        "value": 53262
                                    },
                                    {
                                        "children": [],
                                        "depth": 1,
                                        "name": "balanceOf",
                                        "value": 1031
                                    }
                                ],
                                "depth": 0,
                                "name": "Executed Gas",
                                "value": 381413
                            }
                        ],
                        "depth": -1,
                        "name": "Actual Gas Used",
                        "value": 323854
                    },
                    {
                        "children": [],
                        "depth": -1,
                        "name": "Refunded Gas",
                        "value": 80963
                    }
                ],
                "depth": -2,
                "name": "Total Gas",
                "value": 404817
            }
        ],
        "isConfirmed": true,
        "mainTrace": [
            {
                "children": [
                    {
                        "children": [
                            {
                                "children": [
                                    {
                                        "children": [
                                            {
                                                "children": [],
                                                "depth": 3,
                                                "id": 3,
                                                "order": 3
                                            },
                                            {
                                                "children": [],
                                                "depth": 3,
                                                "id": 4,
                                                "order": 4
                                            },
                                            {
                                                "children": [
                                                    {
                                                        "children": [
                                                            {
                                                                "children": [
                                                                    {
                                                                        "children": [],
                                                                        "depth": 6,
                                                                        "id": 8,
                                                                        "order": 8
                                                                    },
                                                                    {
                                                                        "children": [],
                                                                        "depth": 6,
                                                                        "id": 9,
                                                                        "order": 9
                                                                    }
                                                                ],
                                                                "depth": 5,
                                                                "id": 7,
                                                                "order": 7
                                                            }
                                                        ],
                                                        "depth": 4,
                                                        "id": 6,
                                                        "order": 6
                                                    },
                                                    {
                                                        "children": [],
                                                        "depth": 4,
                                                        "id": 10,
                                                        "order": 10
                                                    },
                                                    {
                                                        "children": [
                                                            {
                                                                "children": [],
                                                                "depth": 5,
                                                                "id": 12,
                                                                "order": 12
                                                            }
                                                        ],
                                                        "depth": 4,
                                                        "id": 11,
                                                        "order": 11
                                                    },
                                                    {
                                                        "children": [
                                                            {
                                                                "children": [
                                                                    {
                                                                        "children": [],
                                                                        "depth": 6,
                                                                        "id": 15,
                                                                        "order": 15
                                                                    }
                                                                ],
                                                                "depth": 5,
                                                                "id": 14,
                                                                "order": 14
                                                            },
                                                            {
                                                                "children": [
                                                                    {
                                                                        "children": [],
                                                                        "depth": 6,
                                                                        "id": 17,
                                                                        "order": 17
                                                                    }
                                                                ],
                                                                "depth": 5,
                                                                "id": 16,
                                                                "order": 16
                                                            },
                                                            {
                                                                "children": [],
                                                                "depth": 5,
                                                                "id": 18,
                                                                "order": 18
                                                            },
                                                            {
                                                                "children": [],
                                                                "depth": 5,
                                                                "id": 19,
                                                                "order": 19
                                                            },
                                                            {
                                                                "children": [],
                                                                "depth": 5,
                                                                "id": 20,
                                                                "order": 20
                                                            }
                                                        ],
                                                        "depth": 4,
                                                        "id": 13,
                                                        "order": 13
                                                    },
                                                    {
                                                        "children": [],
                                                        "depth": 4,
                                                        "id": 21,
                                                        "order": 21
                                                    },
                                                    {
                                                        "children": [
                                                            {
                                                                "children": [],
                                                                "depth": 5,
                                                                "id": 23,
                                                                "order": 23
                                                            },
                                                            {
                                                                "children": [],
                                                                "depth": 5,
                                                                "id": 24,
                                                                "order": 24
                                                            }
                                                        ],
                                                        "depth": 4,
                                                        "id": 22,
                                                        "order": 22
                                                    },
                                                    {
                                                        "children": [
                                                            {
                                                                "children": [],
                                                                "depth": 5,
                                                                "id": 26,
                                                                "order": 26
                                                            }
                                                        ],
                                                        "depth": 4,
                                                        "id": 25,
                                                        "order": 25
                                                    }
                                                ],
                                                "depth": 3,
                                                "id": 5,
                                                "order": 5
                                            },
                                            {
                                                "children": [],
                                                "depth": 3,
                                                "id": 27,
                                                "order": 27
                                            },
                                            {
                                                "children": [
                                                    {
                                                        "children": [
                                                            {
                                                                "children": [],
                                                                "depth": 5,
                                                                "id": 30,
                                                                "order": 30
                                                            }
                                                        ],
                                                        "depth": 4,
                                                        "id": 29,
                                                        "order": 29
                                                    },
                                                    {
                                                        "children": [],
                                                        "depth": 4,
                                                        "id": 31,
                                                        "order": 31
                                                    },
                                                    {
                                                        "children": [
                                                            {
                                                                "children": [
                                                                    {
                                                                        "children": [],
                                                                        "depth": 6,
                                                                        "id": 34,
                                                                        "order": 34
                                                                    }
                                                                ],
                                                                "depth": 5,
                                                                "id": 33,
                                                                "order": 33
                                                            }
                                                        ],
                                                        "depth": 4,
                                                        "id": 32,
                                                        "order": 32
                                                    },
                                                    {
                                                        "children": [],
                                                        "depth": 4,
                                                        "id": 35,
                                                        "order": 35
                                                    }
                                                ],
                                                "depth": 3,
                                                "id": 28,
                                                "order": 28
                                            },
                                            {
                                                "children": [],
                                                "depth": 3,
                                                "id": 36,
                                                "order": 36
                                            }
                                        ],
                                        "depth": 2,
                                        "id": 2,
                                        "order": 2
                                    }
                                ],
                                "depth": 1,
                                "id": 1,
                                "order": 1
                            },
                            {
                                "children": [],
                                "depth": 1,
                                "id": 37,
                                "order": 37
                            },
                            {
                                "children": [],
                                "depth": 1,
                                "id": 38,
                                "order": 38
                            },
                            {
                                "children": [
                                    {
                                        "children": [],
                                        "depth": 2,
                                        "id": 40,
                                        "order": 40
                                    }
                                ],
                                "depth": 1,
                                "id": 39,
                                "order": 39
                            },
                            {
                                "children": [
                                    {
                                        "children": [
                                            {
                                                "children": [],
                                                "depth": 3,
                                                "id": 43,
                                                "order": 43
                                            }
                                        ],
                                        "depth": 2,
                                        "id": 42,
                                        "order": 42
                                    },
                                    {
                                        "children": [
                                            {
                                                "children": [],
                                                "depth": 3,
                                                "id": 45,
                                                "order": 45
                                            }
                                        ],
                                        "depth": 2,
                                        "id": 44,
                                        "order": 44
                                    },
                                    {
                                        "children": [],
                                        "depth": 2,
                                        "id": 46,
                                        "order": 46
                                    },
                                    {
                                        "children": [],
                                        "depth": 2,
                                        "id": 47,
                                        "order": 47
                                    },
                                    {
                                        "children": [],
                                        "depth": 2,
                                        "id": 48,
                                        "order": 48
                                    }
                                ],
                                "depth": 1,
                                "id": 41,
                                "order": 41
                            },
                            {
                                "children": [],
                                "depth": 1,
                                "id": 49,
                                "order": 49
                            },
                            {
                                "children": [],
                                "depth": 1,
                                "id": 50,
                                "order": 50
                            },
                            {
                                "children": [
                                    {
                                        "children": [
                                            {
                                                "children": [],
                                                "depth": 3,
                                                "id": 53,
                                                "order": 53
                                            }
                                        ],
                                        "depth": 2,
                                        "id": 52,
                                        "order": 52
                                    },
                                    {
                                        "children": [],
                                        "depth": 2,
                                        "id": 54,
                                        "order": 54
                                    },
                                    {
                                        "children": [],
                                        "depth": 2,
                                        "id": 55,
                                        "order": 55
                                    },
                                    {
                                        "children": [],
                                        "depth": 2,
                                        "id": 56,
                                        "order": 56
                                    },
                                    {
                                        "children": [],
                                        "depth": 2,
                                        "id": 57,
                                        "order": 57
                                    }
                                ],
                                "depth": 1,
                                "id": 51,
                                "order": 51
                            },
                            {
                                "children": [],
                                "depth": 1,
                                "id": 58,
                                "order": 58
                            }
                        ],
                        "depth": 0,
                        "id": 0,
                        "order": 0
                    }
                ],
                "depth": -1,
                "id": -1,
                "order": -1
            }
        ],
        "mainTraceNodeCount": 59,
        "parentIdMap": {
            "0": -1,
            "1": 0,
            "10": 5,
            "11": 5,
            "12": 11,
            "13": 5,
            "14": 13,
            "15": 14,
            "16": 13,
            "17": 16,
            "18": 13,
            "19": 13,
            "2": 1,
            "20": 13,
            "21": 5,
            "22": 5,
            "23": 22,
            "24": 22,
            "25": 5,
            "26": 25,
            "27": 2,
            "28": 2,
            "29": 28,
            "3": 2,
            "30": 29,
            "31": 28,
            "32": 28,
            "33": 32,
            "34": 33,
            "35": 28,
            "36": 2,
            "37": 0,
            "38": 0,
            "39": 0,
            "4": 2,
            "40": 39,
            "41": 0,
            "42": 41,
            "43": 42,
            "44": 41,
            "45": 44,
            "46": 41,
            "47": 41,
            "48": 41,
            "49": 0,
            "5": 2,
            "50": 0,
            "51": 0,
            "52": 51,
            "53": 52,
            "54": 51,
            "55": 51,
            "56": 51,
            "57": 51,
            "58": 0,
            "6": 5,
            "7": 6,
            "8": 7,
            "9": 7
        },
        "tidyTrace": [
            {
                "children": [
                    {
                        "children": [
                            {
                                "children": [
                                    {
                                        "children": [
                                            {
                                                "children": [],
                                                "depth": 3,
                                                "id": 3,
                                                "order": 3
                                            },
                                            {
                                                "children": [],
                                                "depth": 3,
                                                "id": 4,
                                                "order": 4
                                            },
                                            {
                                                "children": [
                                                    {
                                                        "children": [
                                                            {
                                                                "children": [
                                                                    {
                                                                        "children": [],
                                                                        "depth": 6,
                                                                        "id": 8,
                                                                        "order": 8
                                                                    },
                                                                    {
                                                                        "children": [],
                                                                        "depth": 6,
                                                                        "id": 9,
                                                                        "order": 9
                                                                    }
                                                                ],
                                                                "depth": 5,
                                                                "id": 7,
                                                                "order": 7
                                                            }
                                                        ],
                                                        "depth": 4,
                                                        "id": 6,
                                                        "order": 6
                                                    },
                                                    {
                                                        "children": [
                                                            {
                                                                "children": [
                                                                    {
                                                                        "children": [],
                                                                        "depth": 6,
                                                                        "id": 15,
                                                                        "order": 15
                                                                    }
                                                                ],
                                                                "depth": 5,
                                                                "id": 14,
                                                                "order": 14
                                                            },
                                                            {
                                                                "children": [],
                                                                "depth": 5,
                                                                "id": 19,
                                                                "order": 19
                                                            },
                                                            {
                                                                "children": [],
                                                                "depth": 5,
                                                                "id": 20,
                                                                "order": 20
                                                            }
                                                        ],
                                                        "depth": 4,
                                                        "id": 13,
                                                        "order": 13
                                                    },
                                                    {
                                                        "children": [
                                                            {
                                                                "children": [],
                                                                "depth": 5,
                                                                "id": 23,
                                                                "order": 23
                                                            },
                                                            {
                                                                "children": [],
                                                                "depth": 5,
                                                                "id": 24,
                                                                "order": 24
                                                            }
                                                        ],
                                                        "depth": 4,
                                                        "id": 22,
                                                        "order": 22
                                                    },
                                                    {
                                                        "children": [
                                                            {
                                                                "children": [],
                                                                "depth": 5,
                                                                "id": 26,
                                                                "order": 26
                                                            }
                                                        ],
                                                        "depth": 4,
                                                        "id": 25,
                                                        "order": 25
                                                    }
                                                ],
                                                "depth": 3,
                                                "id": 5,
                                                "order": 5
                                            },
                                            {
                                                "children": [],
                                                "depth": 3,
                                                "id": 27,
                                                "order": 27
                                            },
                                            {
                                                "children": [
                                                    {
                                                        "children": [],
                                                        "depth": 4,
                                                        "id": 31,
                                                        "order": 31
                                                    },
                                                    {
                                                        "children": [
                                                            {
                                                                "children": [
                                                                    {
                                                                        "children": [],
                                                                        "depth": 6,
                                                                        "id": 34,
                                                                        "order": 34
                                                                    }
                                                                ],
                                                                "depth": 5,
                                                                "id": 33,
                                                                "order": 33
                                                            }
                                                        ],
                                                        "depth": 4,
                                                        "id": 32,
                                                        "order": 32
                                                    },
                                                    {
                                                        "children": [],
                                                        "depth": 4,
                                                        "id": 35,
                                                        "order": 35
                                                    }
                                                ],
                                                "depth": 3,
                                                "id": 28,
                                                "order": 28
                                            },
                                            {
                                                "children": [],
                                                "depth": 3,
                                                "id": 36,
                                                "order": 36
                                            }
                                        ],
                                        "depth": 2,
                                        "id": 2,
                                        "order": 2
                                    }
                                ],
                                "depth": 1,
                                "id": 1,
                                "order": 1
                            },
                            {
                                "children": [
                                    {
                                        "children": [
                                            {
                                                "children": [],
                                                "depth": 3,
                                                "id": 43,
                                                "order": 43
                                            }
                                        ],
                                        "depth": 2,
                                        "id": 42,
                                        "order": 42
                                    },
                                    {
                                        "children": [],
                                        "depth": 2,
                                        "id": 47,
                                        "order": 47
                                    },
                                    {
                                        "children": [],
                                        "depth": 2,
                                        "id": 48,
                                        "order": 48
                                    }
                                ],
                                "depth": 1,
                                "id": 41,
                                "order": 41
                            },
                            {
                                "children": [
                                    {
                                        "children": [
                                            {
                                                "children": [],
                                                "depth": 3,
                                                "id": 53,
                                                "order": 53
                                            }
                                        ],
                                        "depth": 2,
                                        "id": 52,
                                        "order": 52
                                    },
                                    {
                                        "children": [],
                                        "depth": 2,
                                        "id": 56,
                                        "order": 56
                                    },
                                    {
                                        "children": [],
                                        "depth": 2,
                                        "id": 57,
                                        "order": 57
                                    }
                                ],
                                "depth": 1,
                                "id": 51,
                                "order": 51
                            }
                        ],
                        "depth": 0,
                        "id": 0,
                        "order": 0
                    }
                ],
                "depth": -1,
                "id": -1,
                "order": -1
            }
        ],
        "tidyTraceNodeCount": 38
    },
    "state_change": {
        "stateChanges": [
            {
                "address": "0x0d4a11d5eeaac28ec3f61d100daf4d40471f1852",
                "erc": "ERC-20",
                "slots": [
                    {
                        "current": "0x00000000000000000000000000000000000047c90c40ccdaf6d71dc749ac7230",
                        "key": "0x0000000000000000000000000000000000000000000000000000000000000009",
                        "prev": "0x00000000000000000000000000000000000047c90b4a1cc41eb3fba3712aed90"
                    },
                    {
                        "current": "0x0000000000000000000001961d8abfb22ac315e8218ff228df6d3db0fc65dfd3",
                        "key": "0x000000000000000000000000000000000000000000000000000000000000000a",
                        "prev": "0x0000000000000000000001961d8869f3e4289bfe644d743c237b74b70898888b"
                    },
                    {
                        "current": "0x66d99b53000000000000000034009f5acc3200000000050f31ffd6514fe96fbf",
                        "key": "0x0000000000000000000000000000000000000000000000000000000000000008",
                        "prev": "0x66d99b3b00000000000000003400bf55494700000000050f2ee0fa724cf10ac0"
                    }
                ],
                "storageVariables": [
                    {
                        "name": "price0CumulativeLast",
                        "type": "uint256",
                        "value": {
                            "current": "1455979734683407982865120454537776",
                            "prev": "1455979436456098453982190580198800",
                            "typeTag": 1
                        }
                    },
                    {
                        "name": "price1CumulativeLast",
                        "type": "uint256",
                        "value": {
                            "current": "593538319690611588159058794349361054053236193222611",
                            "prev": "593538267619829389137101782823994989911487507105931",
                            "typeTag": 1
                        }
                    },
                    {
                        "name": "reserve0",
                        "type": "uint112",
                        "value": {
                            "current": "23892136409325510422463",
                            "prev": "23891911550543221295808",
                            "typeTag": 1
                        }
                    },
                    {
                        "name": "reserve1",
                        "type": "uint112",
                        "value": {
                            "current": "57177278172210",
                            "prev": "57177814681927",
                            "typeTag": 1
                        }
                    },
                    {
                        "name": "blockTimestampLast",
                        "type": "uint32",
                        "value": {
                            "current": "1725537107",
                            "prev": "1725537083",
                            "typeTag": 1
                        }
                    }
                ]
            },
            {
                "address": "0x403963f87d6822cbf2ab3b6e1ec5e9d6550daba9",
                "erc": "ERC-20",
                "slots": [
                    {
                        "current": "0x0000000000000000000000000000000000000000006794b36896ea876dcb985e",
                        "key": "0xee5736f08a976b6697010160584d7e178ac6c7170b280832ec62668e46879667",
                        "prev": "0x00000000000000000000000000000000000000000064e11ad1f15d32d643985e"
                    },
                    {
                        "current": "0xfffffffffffffffffffffffffffffffffffffffffff77e92ed8221d7676076ff",
                        "key": "0xe8a1a0f8e38e7ee11a62cc613c620156493ed4595ad6ab871a88560e98015491",
                        "prev": "0xfffffffffffffffffffffffffffffffffffffffffffa322b8427af2bfee876ff"
                    },
                    {
                        "current": "0x00000000000000000000000000000000000000000005e6729883d929487a0575",
                        "key": "0x45ce4b0de221078fdfdaf1ad997be247ff5262b4a3440a3c5cbf429fc1a58a56",
                        "prev": "0x000000000000000000000000000000000000000000089a0b2f29667de0020575"
                    }
                ],
                "storageVariables": [
                    {
                        "name": "_balances",
                        "type": "mapping(address => uint256)",
                        "value": {
                            "pairs": [
                                {
                                    "key": "0x4950c153f472e56a79d1e49717db409007c00527",
                                    "value": {
                                        "current": "125221579163429600330750046",
                                        "prev": "121955609163429600330750046",
                                        "typeTag": 1
                                    }
                                },
                                {
                                    "key": "0xf9c58aef59f89cbe8948c82435a7542b3b2b67c5",
                                    "value": {
                                        "current": "7132887307823854208550261",
                                        "prev": "10398857307823854208550261",
                                        "typeTag": 1
                                    }
                                }
                            ],
                            "typeTag": 4
                        }
                    },
                    {
                        "name": "_allowances",
                        "type": "mapping(address => mapping(address => uint256))",
                        "value": {
                            "pairs": [
                                {
                                    "key": "0xf9c58aef59f89cbe8948c82435a7542b3b2b67c5",
                                    "value": {
                                        "pairs": [
                                            {
                                                "key": "0x7a250d5630b4cf539739df2c5dacb4c659f2488d",
                                                "value": {
                                                    "current": "115792089237316195423570985008687907853269984665640553756853723231330446112511",
                                                    "prev": "115792089237316195423570985008687907853269984665640557022823723231330446112511",
                                                    "typeTag": 1
                                                }
                                            }
                                        ],
                                        "typeTag": 4
                                    }
                                }
                            ],
                            "typeTag": 4
                        }
                    }
                ]
            },
            {
                "address": "0x4950c153f472e56a79d1e49717db409007c00527",
                "erc": "ERC-20",
                "slots": [
                    {
                        "current": "0x000000000000000000000000000000000000017ae77dde9506e0e6050d5fd6a0",
                        "key": "0x0000000000000000000000000000000000000000000000000000000000000009",
                        "prev": "0x000000000000000000000000000000000000017a90f58ac43864c91f9884e9e8"
                    },
                    {
                        "current": "0x000000000000000000000000004ce628270086469b55f622f4afa91aae795164",
                        "key": "0x000000000000000000000000000000000000000000000000000000000000000a",
                        "prev": "0x000000000000000000000000004caa3fad4d974f6a27c92d52eceb0b0407345c"
                    },
                    {
                        "current": "0x66d99b5300000000000076168492133caf5c0000006794b36896ea876dcb985e",
                        "key": "0x0000000000000000000000000000000000000000000000000000000000000008",
                        "prev": "0x66d99b0b000000000000793da9557aefc8a100000064e11ad1f15d32d643985e"
                    }
                ],
                "storageVariables": [
                    {
                        "name": "price1CumulativeLast",
                        "type": "uint256",
                        "value": {
                            "current": "1714906123989924325568058550131381657434411364",
                            "prev": "1709687391845161684435965792878626975596885084",
                            "typeTag": 1
                        }
                    },
                    {
                        "name": "reserve0",
                        "type": "uint112",
                        "value": {
                            "current": "125221579163429600330750046",
                            "prev": "121955609163429600330750046",
                            "typeTag": 1
                        }
                    },
                    {
                        "name": "reserve1",
                        "type": "uint112",
                        "value": {
                            "current": "8509134308885966684",
                            "prev": "8736325036768479393",
                            "typeTag": 1
                        }
                    },
                    {
                        "name": "blockTimestampLast",
                        "type": "uint32",
                        "value": {
                            "current": "1725537107",
                            "prev": "1725537035",
                            "typeTag": 1
                        }
                    },
                    {
                        "name": "price0CumulativeLast",
                        "type": "uint256",
                        "value": {
                            "current": "30019888634502521862794220918432",
                            "prev": "29993108113938198952763231365608",
                            "typeTag": 1
                        }
                    }
                ]
            },
            {
                "address": "0x940fb21c8d673e9afc69af643e5820cb4026c7fa",
                "erc": "",
                "slots": [
                    {
                        "current": "0x0000000000000000000000000000000000000000000000015b608499029aa228",
                        "key": "0x0000000000000000000000000000000000000000000000000000000000000002",
                        "prev": "0x0000000000000000000000000000000000000000000000015b5fb0822bbb29bb"
                    }
                ],
                "storageVariables": [
                    {
                        "name": "totalRewards",
                        "type": "uint256",
                        "value": {
                            "current": "25031152521633767976",
                            "prev": "25030919327074429371",
                            "typeTag": 1
                        }
                    }
                ]
            },
            {
                "address": "0x9a67f5e015f838b911f2d13566e4be05c5ba777f",
                "erc": "",
                "slots": [
                    {
                        "current": "0x0000000000000000000000000000000000000000000000044af825fa012f335a",
                        "key": "0x9b253fbb41bccf834a1a0ef927e4e39e711fd3f908f612cf5093104ed04ca30f",
                        "prev": "0x0000000000000000000000000000000000000000000000044aefdd159c747f14"
                    }
                ],
                "storageVariables": [
                    {
                        "name": "childTokens",
                        "type": "mapping(address => struct TokenFactory.TokenInfo)",
                        "value": {
                            "pairs": [
                                {
                                    "key": "0x403963f87d6822cbf2ab3b6e1ec5e9d6550daba9",
                                    "value": {
                                        "fields": [
                                            {
                                                "name": "feesReceived",
                                                "type": "uint256",
                                                "value": {
                                                    "current": "79189085803561038682",
                                                    "prev": "79186753857967652628",
                                                    "typeTag": 1
                                                }
                                            }
                                        ],
                                        "typeTag": 3
                                    }
                                }
                            ],
                            "typeTag": 4
                        }
                    }
                ]
            },
            {
                "address": "0xc02aaa39b223fe8d0a0e5c4f27ead9083c756cc2",
                "erc": "ERC-20",
                "slots": [
                    {
                        "current": "0x00000000000000000000000000000000000000000000000076168492133caf5c",
                        "key": "0xd64b0e1afb523d0ee4be5fa87cd4e081a165341459f9c8ec9fc000b7c8e707bd",
                        "prev": "0x000000000000000000000000000000000000000000000000793da9557aefc8a1"
                    },
                    {
                        "current": "0x00000000000000000000000000000000000000000000050f31ffd6514fe96fbf",
                        "key": "0xaced72359d8708e95d2112ba70e71fa267967a5588d15e7c78c1904e0debe410",
                        "prev": "0x00000000000000000000000000000000000000000000050f2ee0fa724cf10ac0"
                    }
                ],
                "storageVariables": [
                    {
                        "name": "balanceOf",
                        "type": "mapping(address => uint256)",
                        "value": {
                            "pairs": [
                                {
                                    "key": "0x0d4a11d5eeaac28ec3f61d100daf4d40471f1852",
                                    "value": {
                                        "current": "23892136409325510422463",
                                        "prev": "23891911550543221295808",
                                        "typeTag": 1
                                    }
                                },
                                {
                                    "key": "0x4950c153f472e56a79d1e49717db409007c00527",
                                    "value": {
                                        "current": "8509134308885966684",
                                        "prev": "8736325036768479393",
                                        "typeTag": 1
                                    }
                                }
                            ],
                            "typeTag": 4
                        }
                    }
                ]
            },
            {
                "address": "0xdac17f958d2ee523a2206206994597c13d831ec7",
                "erc": "ERC-20",
                "slots": [
                    {
                        "current": "0x000000000000000000000000000000000000000000000000000034009f5acc32",
                        "key": "0x45b1147656da4d940c556082f0e09e91e3d046c1c84468f8ead64d8fdc1c749a",
                        "prev": "0x00000000000000000000000000000000000000000000000000003400bf554947"
                    },
                    {
                        "current": "0x00000000000000000000000000000000000000000000000000000000796e4def",
                        "key": "0x45b5b430b819333c0ddb7504a4593e36259b8269eacf3f1f54d4b3a533af2cdc",
                        "prev": "0x000000000000000000000000000000000000000000000000000000005973d0da"
                    }
                ],
                "storageVariables": [
                    {
                        "name": "balances",
                        "type": "mapping(address => uint256)",
                        "value": {
                            "pairs": [
                                {
                                    "key": "0x0d4a11d5eeaac28ec3f61d100daf4d40471f1852",
                                    "value": {
                                        "current": "57177278172210",
                                        "prev": "57177814681927",
                                        "typeTag": 1
                                    }
                                },
                                {
                                    "key": "0xf9c58aef59f89cbe8948c82435a7542b3b2b67c5",
                                    "value": {
                                        "current": "2037272047",
                                        "prev": "1500762330",
                                        "typeTag": 1
                                    }
                                }
                            ],
                            "typeTag": 4
                        }
                    }
                ]
            }
        ]
    }
}