{
    "balance_change": {
        "balanceChanges": [
            {
                "account": "0x4e5b2e1dc63f6b91cb6cd759936495434c7e972f",
                "assets": [
                    {
                        "address": "0xdac17f958d2ee523a2206206994597c13d831ec7",
                        "amount": "5,075.212",
                        "iconUrl": "https://assets.blocksec.com/icon/fcea71f3193ce895be44bfdf941f7e4c9381dd587f273c2d1a27f1263d84e4ea.png",
                        "isERC1155": false,
                        "isERC721": false,
                        "sign": false,
                        "value": "5074.196957600000112"
                    }
                ]
            },
            {
                "account": "0xf8956f7c427ea6f2dc4b022e6b4a6b6efebcc4be",
                "assets": [
                    {
                        "address": "0xdac17f958d2ee523a2206206994597c13d831ec7",
                        "amount": "5,075.212",
                        "iconUrl": "https://assets.blocksec.com/icon/fcea71f3193ce895be44bfdf941f7e4c9381dd587f273c2d1a27f1263d84e4ea.png",
                        "isERC1155": false,
                        "isERC721": false,
                        "sign": true,
                        "value": "5074.196957600000112"
                    }
                ]
            }
        ]
    },
    "profile": {
        "basic_info": {
            "baseFee": "16.882217441",
            "blockNumber": 18468362,
            "callData": "0xa9059cbb000000000000000000000000f8956f7c427ea6f2dc4b022e6b4a6b6efebcc4be000000000000000000000000000000000000000000000000000000012e8196e0",
            "debugEnable": true,
            "errorInfo": "",
            "eventCount": 1,
            "feeRecipient": "0x95222290dd7278aa3ddd389cc1e1d165cc4bafe5",
            "formatValue": "0",
            "gasLimit": 90000,
            "gasPrice": "19",
            "gasUsed": 46121,
            "intTxnCount": 0,
            "internalRevert": false,
            "internalRevertMessage": "",
            "isContractCreation": false,
            "isFlashloan": false,
            "maxFee": "",
            "nonce": 533211,
            "overwritedBlockNumber": -1,
            "priorityFee": "",
            "receiver": "0xdac17f958d2ee523a2206206994597c13d831ec7",
            "revertMessage": "",
            "sender": "0x4e5b2e1dc63f6b91cb6cd759936495434c7e972f",
            "simulationEnable": true,
            "sourceTxnHash": "0x2599641ac104d57157e1463bab41bd37f80722bf14157b445ade4faad2a012ed",
            "status": true,
            "timestamp": "2023-10-31T06:35:59Z",
            "transactionFee": "0.000876299",
            "txnHash": "0x2599641ac104d57157e1463bab41bd37f80722bf14157b445ade4faad2a012ed",
            "txnIndex": 81,
            "type": 0,
            "value": "0"
        },
        "fund_flow": [
            {
                "amount": "5,075.212",
                "from": "0x4e5b2e1dc63f6b91cb6cd759936495434c7e972f",
                "id": 1,
                "isERC1155": false,
                "isERC721": false,
                "isReverted": false,
                "order": 1,
                "to": "0xf8956f7c427ea6f2dc4b022e6b4a6b6efebcc4be",
                "token": "0xdac17f958d2ee523a2206206994597c13d831ec7"
            }
        ],
        "token_infos": [
            {
                "address": "0xc02aaa39b223fe8d0a0e5c4f27ead9083c756cc2",
                "decimals": 18
            },
            {
                "address": "0xdac17f958d2ee523a2206206994597c13d831ec7",
                "decimals": 6
            },
            {
                "address": "0xeeeeeeeeeeeeeeeeeeeeeeeeeeeeeeeeeeeeeeee",
                "decimals": 18
            }
        ]
    },
    "address_label": {
        "labels": [
            {
                "address": "0x4e5b2e1dc63f6b91cb6cd759936495434c7e972f",
                "label": "FixedFloat"
            },
            {
                "address": "0x0000000000000000000000000000000000000001",
                "label": "Precompiled"
            },
            {
                "address": "0x0000000000000000000000000000000000000002",
                "label": "Precompiled"
            },
            {
                "address": "0x0000000000000000000000000000000000000003",
                "label": "Precompiled"
            },
            {
                "address": "0x0000000000000000000000000000000000000004",
                "label": "Precompiled"
            },
            {
                "address": "0xeeeeeeeeeeeeeeeeeeeeeeeeeeeeeeeeeeeeeeee",
                "label": "Ether"
            },
            {
                "address": "0xdac17f958d2ee523a2206206994597c13d831ec7",
                "label": "Tether: USDT Stablecoin"
            }
        ]
    },
    "trace": {
        "accountLabels": null,
        "dataMap": {
            "-1": {
                "invocation": {
                    "address": "0x4e5b2e1dc63f6b91cb6cd759936495434c7e972f",
                    "callData": "",
                    "decodedMethod": null,
                    "errorInfo": "",
                    "fromAddress": "",
                    "gasUsed": 0,
                    "id": -1,
                    "methodDecoded": false,
                    "operation": "",
                    "output": "",
                    "revert": false,
                    "revertMessage": "",
                    "selector": "",
                    "status": false,
                    "value": ""
                },
                "nodeType": 0
            },
            "0": {
                "invocation": {
                    "address": "0xdac17f958d2ee523a2206206994597c13d831ec7",
                    "callData": "0x000000000000000000000000f8956f7c427ea6f2dc4b022e6b4a6b6efebcc4be000000000000000000000000000000000000000000000000000000012e8196e0",
                    "decodedMethod": {
                        "callParams": [
                            {
                                "name": "_to",
                                "type": "address",
                                "value": "0xf8956f7c427ea6f2dc4b022e6b4a6b6efebcc4be"
                            },
                            {
                                "decimalAvailable": true,
                                "name": "_value",
                                "type": "uint256",
                                "value": "5,075,212,000"
                            }
                        ],
                        "constructorArguments": "",
                        "name": "transfer",
                        "returnParams": [],
                        "signature": "transfer(address,uint256)"
                    },
                    "errorInfo": "",
                    "fromAddress": "0x4e5b2e1dc63f6b91cb6cd759936495434c7e972f",
                    "gasUsed": 46121,
                    "id": 0,
                    "methodDecoded": true,
                    "operation": "CALL",
                    "output": "",
                    "revert": false,
                    "revertMessage": "",
                    "selector": "0xa9059cbb",
                    "status": true,
                    "value": "0"
                },
                "nodeType": 0
            },
            "1": {
                "event": {
                    "contract": "0xdac17f958d2ee523a2206206994597c13d831ec7",
                    "decodedLog": {
                        "name": "Transfer",
                        "params": [
                            {
                                "name": "from",
                                "type": "address",
                                "value": "0x4e5b2e1dc63f6b91cb6cd759936495434c7e972f"
                            },
                            {
                                "name": "to",
                                "type": "address",
                                "value": "0xf8956f7c427ea6f2dc4b022e6b4a6b6efebcc4be"
                            },
                            {
                                "decimalAvailable": true,
                                "name": "value",
                                "type": "uint256",
                                "value": "5,075,212,000"
                            }
                        ],
                        "signature": "Transfer(address,address,uint256)"
                    },
                    "id": 1,
                    "logData": "0x000000000000000000000000000000000000000000000000000000012e8196e0",
                    "logDecoded": true,
                    "operation": "EVENT",
                    "revert": false,
                    "status": true,
                    "topics": [
                        "0xddf252ad1be2c89b69c2b068fc378daa952ba7f163c4a11628f55a4df523b3ef",
                        "0x0000000000000000000000004e5b2e1dc63f6b91cb6cd759936495434c7e972f",
                        "0x000000000000000000000000f8956f7c427ea6f2dc4b022e6b4a6b6efebcc4be"
                    ]
                },
                "nodeType": 1
            }
        },
        "gasFlame": [
            {
                "children": [
                    {
                        "children": [
                            {
                                "children": [],
                                "depth": 0,
                                "name": "Initial Gas",
                                "value": 21620
                            },
                            {
                                "children": [],
                                "depth": 0,
                                "name": "Executed Gas",
                                "value": 24501
                            }
                        ],
                        "depth": -1,
                        "name": "Actual Gas Used",
                        "value": 46121
                    },
                    {
                        "children": [],
                        "depth": -1,
                        "name": "Refunded Gas",
                        "value": 0
                    }
                ],
                "depth": -2,
                "name": "Total Gas",
                "value": 46121
            }
        ],
        "isConfirmed": true,
        "mainTrace": [
            {
                "children": [
                    {
                        "children": [
                            {
                                "children": [],
                                "depth": 1,
                                "id": 1,
                                "order": 1
                            }
                        ],
                        "depth": 0,
                        "id": 0,
                        "order": 0
                    }
                ],
                "depth": -1,
                "id": -1,
                "order": -1
            }
        ],
        "mainTraceNodeCount": 2,
        "parentIdMap": {
            "0": -1,
            "1": 0
        },
        "tidyTrace": [
            {
                "children": [
                    {
                        "children": [
                            {
                                "children": [],
                                "depth": 1,
                                "id": 1,
                                "order": 1
                            }
                        ],
                        "depth": 0,
                        "id": 0,
                        "order": 0
                    }
                ],
                "depth": -1,
                "id": -1,
                "order": -1
            }
        ],
        "tidyTraceNodeCount": 2
    },
    "state_change": {
        "stateChanges": [
            {
                "address": "0xdac17f958d2ee523a2206206994597c13d831ec7",
                "erc": "ERC-20",
                "slots": [
                    {
                        "current": "0x00000000000000000000000000000000000000000000000000000187e04bc096",
                        "key": "0xdb41496b85648170305c887edec0726954da1ed6a9925f5a52712893832c0429",
                        "prev": "0x000000000000000000000000000000000000000000000000000001890ecd5776"
                    },
                    {
                        "current": "0x00000000000000000000000000000000000000000000000000000375e7e196b0",
                        "key": "0x5e57169e2b91e5504df620202ae89bc07358cc5490c45d12466b0f6b7e7e9077",
                        "prev": "0x00000000000000000000000000000000000000000000000000000374b95fffd0"
                    }
                ],
                "storageVariables": [
                    {
                        "name": "balances",
                        "type": "mapping(address => uint256)",
                        "value": {
                            "pairs": [
                                {
                                    "key": "0x4e5b2e1dc63f6b91cb6cd759936495434c7e972f",
                                    "value": {
                                        "current": "1683095273622",
                                        "prev": "1688170485622",
                                        "typeTag": 1
                                    }
                                },
                                {
                                    "key": "0xf8956f7c427ea6f2dc4b022e6b4a6b6efebcc4be",
                                    "value": {
                                        "current": "3804936378032",
                                        "prev": "3799861166032",
                                        "typeTag": 1
                                    }
                                }
                            ],
                            "typeTag": 4
                        }
                    }
                ]
            }
        ]
    }
}