{
    "balance_change": {
        "balanceChanges": [
            {
                "account": "0x8a91c9a16cd62693649d80afa85a09dbbdcb8508",
                "assets": [
                    {
                        "address": "0x8e870d67f660d95d5be530380d0ec0bd388289e1",
                        "amount": "10",
                        "iconUrl": "https://assets.blocksec.com/icon/df4a16322c8ca2faeeb21a6d029f24de2efeb58e57edadd9ecbfa6a35afa986d.png",
                        "isERC1155": false,
                        "isERC721": false,
                        "sign": true,
                        "value": ""
                    }
                ]
            },
            {
                "account": "0x30add85a77bb1c89cc7ec52fe65e0191b3a428aa",
                "assets": [
                    {
                        "address": "0x8e870d67f660d95d5be530380d0ec0bd388289e1",
                        "amount": "10",
                        "iconUrl": "https://assets.blocksec.com/icon/df4a16322c8ca2faeeb21a6d029f24de2efeb58e57edadd9ecbfa6a35afa986d.png",
                        "isERC1155": false,
                        "isERC721": false,
                        "sign": false,
                        "value": ""
                    }
                ]
            }
        ]
    },
    "profile": {
        "basic_info": {
            "baseFee": "",
            "blockNumber": 9791580,
            "callData": "0xae8123ba00000000000000000000000000000000000000000000000000000004c671d6ca",
            "debugEnable": true,
            "errorInfo": "",
            "eventCount": 5,
            "feeRecipient": "0xc4aeb20798368c48b27280847e187bb332b9bc77",
            "formatValue": "0",
            "gasLimit": 635218,
            "gasPrice": "5",
            "gasUsed": 348106,
            "intTxnCount": 5,
            "internalRevert": false,
            "internalRevertMessage": "",
            "isContractCreation": false,
            "isFlashloan": false,
            "maxFee": "",
            "nonce": 475473,
            "overwritedBlockNumber": -1,
            "priorityFee": "",
            "receiver": "0x8a91c9a16cd62693649d80afa85a09dbbdcb8508",
            "revertMessage": "",
            "sender": "0x7dbc5395d1cb5f829bc8eca20f16bed7bceca504",
            "simulationEnable": true,
            "sourceTxnHash": "0x2580e0f0b0093dffb5324ccc373982a5f8892b35b30556d393d136824075f554",
            "status": true,
            "timestamp": "2020-04-02T08:48:35Z",
            "transactionFee": "0.00174053",
            "txnHash": "0x2580e0f0b0093dffb5324ccc373982a5f8892b35b30556d393d136824075f554",
            "txnIndex": 66,
            "type": 0,
            "value": "0"
        },
        "fund_flow": [
            {
                "amount": "10",
                "from": "0x30add85a77bb1c89cc7ec52fe65e0191b3a428aa",
                "id": 1,
                "isERC1155": false,
                "isERC721": false,
                "isReverted": false,
                "order": 1,
                "to": "0x8a91c9a16cd62693649d80afa85a09dbbdcb8508",
                "token": "0x8e870d67f660d95d5be530380d0ec0bd388289e1"
            }
        ],
        "token_infos": [
            {
                "address": "0x8e870d67f660d95d5be530380d0ec0bd388289e1",
                "decimals": 18
            },
            {
                "address": "0xc02aaa39b223fe8d0a0e5c4f27ead9083c756cc2",
                "decimals": 18
            },
            {
                "address": "0xeeeeeeeeeeeeeeeeeeeeeeeeeeeeeeeeeeeeeeee",
                "decimals": 18
            }
        ]
    },
    "address_label": {
        "labels": [
            {
                "address": "0x0000000000000000000000000000000000000001",
                "label": "Precompiled"
            },
            {
                "address": "0x0000000000000000000000000000000000000002",
                "label": "Precompiled"
            },
            {
                "address": "0x0000000000000000000000000000000000000003",
                "label": "Precompiled"
            },
            {
                "address": "0x0000000000000000000000000000000000000004",
                "label": "Precompiled"
            },
            {
                "address": "0xeeeeeeeeeeeeeeeeeeeeeeeeeeeeeeeeeeeeeeee",
                "label": "Ether"
            },
            {
                "address": "0x8a91c9a16cd62693649d80afa85a09dbbdcb8508",
                "label": "MMM BSC"
            },
            {
                "address": "0x8e870d67f660d95d5be530380d0ec0bd388289e1",
                "label": "Paxos: USDP Token"
            },
            {
                "address": "0x86eee0422322710866af89e9cae3f7383d55310a",
                "label": "Paxos Standard (PAX)"
            }
        ]
    },
    "trace": {
        "accountLabels": null,
        "dataMap": {
            "-1": {
                "invocation": {
                    "address": "0x7dbc5395d1cb5f829bc8eca20f16bed7bceca504",
                    "callData": "",
                    "decodedMethod": null,
                    "errorInfo": "",
                    "fromAddress": "",
                    "gasUsed": 0,
                    "id": -1,
                    "methodDecoded": false,
                    "operation": "",
                    "output": "",
                    "revert": false,
                    "revertMessage": "",
                    "selector": "",
                    "status": false,
                    "value": ""
                },
                "nodeType": 0
            },
            "0": {
                "invocation": {
                    "address": "0x8a91c9a16cd62693649d80afa85a09dbbdcb8508",
                    "callData": "0x00000000000000000000000000000000000000000000000000000004c671d6ca",
                    "decodedMethod": null,
                    "errorInfo": "",
                    "fromAddress": "0x7dbc5395d1cb5f829bc8eca20f16bed7bceca504",
                    "gasUsed": 348106,
                    "id": 0,
                    "methodDecoded": false,
                    "operation": "CALL",
                    "output": "",
                    "revert": false,
                    "revertMessage": "",
                    "selector": "0xae8123ba",
                    "status": true,
                    "value": "0"
                },
                "nodeType": 0
            },
            "1": {
                "invocation": {
                    "address": "0x8e870d67f660d95d5be530380d0ec0bd388289e1",
                    "callData": "0x00000000000000000000000030add85a77bb1c89cc7ec52fe65e0191b3a428aa",
                    "decodedMethod": {
                        "callParams": [
                            {
                                "name": "_addr",
                                "type": "address",
                                "value": "0x30add85a77bb1c89cc7ec52fe65e0191b3a428aa"
                            }
                        ],
                        "constructorArguments": "",
                        "name": "balanceOf",
                        "returnParams": [
                            {
                                "decimalAvailable": true,
                                "name": "",
                                "type": "uint256",
                                "value": "10,000,000,000,000,000,000"
                            }
                        ],
                        "signature": "balanceOf(address)"
                    },
                    "errorInfo": "",
                    "fromAddress": "0x8a91c9a16cd62693649d80afa85a09dbbdcb8508",
                    "gasUsed": 4337,
                    "id": 1,
                    "methodDecoded": true,
                    "operation": "CALL",
                    "output": "0x0000000000000000000000000000000000000000000000008ac7230489e80000",
                    "revert": false,
                    "revertMessage": "",
                    "selector": "0x70a08231",
                    "status": true,
                    "value": "0"
                },
                "nodeType": 0
            },
            "10": {
                "event": {
                    "contract": "0x8a91c9a16cd62693649d80afa85a09dbbdcb8508",
                    "decodedLog": null,
                    "id": 10,
                    "logData": "0x00000000000000000000000000000000000000000000000000000000000000010000000000000000000000000ed0217c6afeb1cf38baef64b5fd9568af8fc66f000000000000000000000000892a8841b2a1a91ef4c47ca7819ad5aa2920f32600000000000000000000000000000000000000000000000000000004c671d6ca0000000000000000000000000000000000000000000000000de0b6b3a7640000",
                    "logDecoded": false,
                    "operation": "EVENT",
                    "revert": false,
                    "status": true,
                    "topics": [
                        "0x41b5ac8f5f04421570dcbd7e1e97b87b67783216df5576369737efd836d35427"
                    ]
                },
                "nodeType": 1
            },
            "2": {
                "invocation": {
                    "address": "0x86eee0422322710866af89e9cae3f7383d55310a",
                    "callData": "0x00000000000000000000000030add85a77bb1c89cc7ec52fe65e0191b3a428aa",
                    "decodedMethod": {
                        "callParams": [
                            {
                                "name": "_addr",
                                "type": "address",
                                "value": "0x30add85a77bb1c89cc7ec52fe65e0191b3a428aa"
                            }
                        ],
                        "constructorArguments": "",
                        "name": "balanceOf",
                        "returnParams": [
                            {
                                "decimalAvailable": true,
                                "name": "",
                                "type": "uint256",
                                "value": "10,000,000,000,000,000,000"
                            }
                        ],
                        "signature": "balanceOf(address)"
                    },
                    "errorInfo": "",
                    "fromAddress": "0x8e870d67f660d95d5be530380d0ec0bd388289e1",
                    "gasUsed": 1558,
                    "id": 2,
                    "methodDecoded": true,
                    "operation": "DELEGATECALL",
                    "output": "0x0000000000000000000000000000000000000000000000008ac7230489e80000",
                    "revert": false,
                    "revertMessage": "",
                    "selector": "0x70a08231",
                    "status": true,
                    "value": "0"
                },
                "nodeType": 0
            },
            "3": {
                "invocation": {
                    "address": "0x8e870d67f660d95d5be530380d0ec0bd388289e1",
                    "callData": "0x00000000000000000000000030add85a77bb1c89cc7ec52fe65e0191b3a428aa0000000000000000000000008a91c9a16cd62693649d80afa85a09dbbdcb85080000000000000000000000000000000000000000000000008ac7230489e80000",
                    "decodedMethod": {
                        "callParams": [
                            {
                                "name": "_from",
                                "type": "address",
                                "value": "0x30add85a77bb1c89cc7ec52fe65e0191b3a428aa"
                            },
                            {
                                "name": "_to",
                                "type": "address",
                                "value": "0x8a91c9a16cd62693649d80afa85a09dbbdcb8508"
                            },
                            {
                                "decimalAvailable": true,
                                "name": "_value",
                                "type": "uint256",
                                "value": "10,000,000,000,000,000,000"
                            }
                        ],
                        "constructorArguments": "",
                        "name": "transferFrom",
                        "returnParams": [
                            {
                                "name": "",
                                "type": "bool",
                                "value": true
                            }
                        ],
                        "signature": "transferFrom(address,address,uint256)"
                    },
                    "errorInfo": "",
                    "fromAddress": "0x8a91c9a16cd62693649d80afa85a09dbbdcb8508",
                    "gasUsed": 29542,
                    "id": 3,
                    "methodDecoded": true,
                    "operation": "CALL",
                    "output": "0x0000000000000000000000000000000000000000000000000000000000000001",
                    "revert": false,
                    "revertMessage": "",
                    "selector": "0x23b872dd",
                    "status": true,
                    "value": "0"
                },
                "nodeType": 0
            },
            "4": {
                "invocation": {
                    "address": "0x86eee0422322710866af89e9cae3f7383d55310a",
                    "callData": "0x00000000000000000000000030add85a77bb1c89cc7ec52fe65e0191b3a428aa0000000000000000000000008a91c9a16cd62693649d80afa85a09dbbdcb85080000000000000000000000000000000000000000000000008ac7230489e80000",
                    "decodedMethod": {
                        "callParams": [
                            {
                                "name": "_from",
                                "type": "address",
                                "value": "0x30add85a77bb1c89cc7ec52fe65e0191b3a428aa"
                            },
                            {
                                "name": "_to",
                                "type": "address",
                                "value": "0x8a91c9a16cd62693649d80afa85a09dbbdcb8508"
                            },
                            {
                                "decimalAvailable": true,
                                "name": "_value",
                                "type": "uint256",
                                "value": "10,000,000,000,000,000,000"
                            }
                        ],
                        "constructorArguments": "",
                        "name": "transferFrom",
                        "returnParams": [
                            {
                                "name": "",
                                "type": "bool",
                                "value": true
                            }
                        ],
                        "signature": "transferFrom(address,address,uint256)"
                    },
                    "errorInfo": "",
                    "fromAddress": "0x8e870d67f660d95d5be530380d0ec0bd388289e1",
                    "gasUsed": 26754,
                    "id": 4,
                    "methodDecoded": true,
                    "operation": "DELEGATECALL",
                    "output": "0x0000000000000000000000000000000000000000000000000000000000000001",
                    "revert": false,
                    "revertMessage": "",
                    "selector": "0x23b872dd",
                    "status": true,
                    "value": "0"
                },
                "nodeType": 0
            },
            "5": {
                "event": {
                    "contract": "0x8e870d67f660d95d5be530380d0ec0bd388289e1",
                    "decodedLog": {
                        "name": "Transfer",
                        "params": [
                            {
                                "name": "from",
                                "type": "address",
                                "value": "0x30add85a77bb1c89cc7ec52fe65e0191b3a428aa"
                            },
                            {
                                "name": "to",
                                "type": "address",
                                "value": "0x8a91c9a16cd62693649d80afa85a09dbbdcb8508"
                            },
                            {
                                "decimalAvailable": true,
                                "name": "value",
                                "type": "uint256",
                                "value": "10,000,000,000,000,000,000"
                            }
                        ],
                        "signature": "Transfer(address,address,uint256)"
                    },
                    "id": 5,
                    "logData": "0x0000000000000000000000000000000000000000000000008ac7230489e80000",
                    "logDecoded": true,
                    "operation": "EVENT",
                    "revert": false,
                    "status": true,
                    "topics": [
                        "0xddf252ad1be2c89b69c2b068fc378daa952ba7f163c4a11628f55a4df523b3ef",
                        "0x00000000000000000000000030add85a77bb1c89cc7ec52fe65e0191b3a428aa",
                        "0x0000000000000000000000008a91c9a16cd62693649d80afa85a09dbbdcb8508"
                    ]
                },
                "nodeType": 1
            },
            "6": {
                "event": {
                    "contract": "0x8a91c9a16cd62693649d80afa85a09dbbdcb8508",
                    "decodedLog": null,
                    "id": 6,
                    "logData": "0x00000000000000000000000000000000000000000000000000000000000000010000000000000000000000000ed0217c6afeb1cf38baef64b5fd9568af8fc66f000000000000000000000000000000000000000000000000000000000000000200000000000000000000000000000000000000000000000000000004c671d6ca0000000000000000000000000000000000000000000000008ac7230489e80000000000000000000000000000000000000000000000000000000000005e85a6e3",
                    "logDecoded": false,
                    "operation": "EVENT",
                    "revert": false,
                    "status": true,
                    "topics": [
                        "0x3be1a4b332d68eecc10d6ef2956ae149fa02f86910a3591609219ea1adbdd94f"
                    ]
                },
                "nodeType": 1
            },
            "7": {
                "event": {
                    "contract": "0x8a91c9a16cd62693649d80afa85a09dbbdcb8508",
                    "decodedLog": null,
                    "id": 7,
                    "logData": "0x00000000000000000000000000000000000000000000000000000000000000010000000000000000000000000ed0217c6afeb1cf38baef64b5fd9568af8fc66f0000000000000000000000000000000000000000000000008ac7230489e8000000000000000000000000000000000000000000000000000000000004c671d6ca00000000000000000000000030add85a77bb1c89cc7ec52fe65e0191b3a428aa000000000000000000000000000000000000000000000000000000005e85a6e30000000000000000000000000000000000000000000000008ac7230489e80000",
                    "logDecoded": false,
                    "operation": "EVENT",
                    "revert": false,
                    "status": true,
                    "topics": [
                        "0x06643dfdd56984ca5faeeeb2c91ee2b0b2e5098540d72d659dbe01a8f52a3a1d"
                    ]
                },
                "nodeType": 1
            },
            "8": {
                "invocation": {
                    "address": "0x1149cd70ae511fc600fb7143ac2f037ac5a4c748",
                    "callData": "0x00000000000000000000000000000000000000000000000000000004c671d6ca0000000000000000000000000ed0217c6afeb1cf38baef64b5fd9568af8fc66f000000000000000000000000000000000000000000000000000000005e996d63000000000000000000000000000000000000000000000001158e460913d000000000000000000000000000000000000000000000000000003d0ff0b013b80000000000000000000000000000000000000000000000000000000000000000000000000000000000000000000000000000000000000000000000000000000000010000000000000000000000000000000000000000000000000000000000000000",
                    "decodedMethod": null,
                    "errorInfo": "",
                    "fromAddress": "0x8a91c9a16cd62693649d80afa85a09dbbdcb8508",
                    "gasUsed": 168987,
                    "id": 8,
                    "methodDecoded": false,
                    "operation": "CALL",
                    "output": "",
                    "revert": false,
                    "revertMessage": "",
                    "selector": "0xa48c6adc",
                    "status": true,
                    "value": "0"
                },
                "nodeType": 0
            },
            "9": {
                "event": {
                    "contract": "0x8a91c9a16cd62693649d80afa85a09dbbdcb8508",
                    "decodedLog": null,
                    "id": 9,
                    "logData": "0x00000000000000000000000000000000000000000000000000000000000000010000000000000000000000000ed0217c6afeb1cf38baef64b5fd9568af8fc66f00000000000000000000000000000000000000000000000000000004c671d6ca000000000000000000000000000000000000000000000001158e460913d000000000000000000000000000000000000000000000000000003d0ff0b013b800000000000000000000000000000000000000000000000000000000000000000000",
                    "logDecoded": false,
                    "operation": "EVENT",
                    "revert": false,
                    "status": true,
                    "topics": [
                        "0xe8aa8dab07d35abe61934013c0b8976558890a41aaa594d4309a948acb73ebd7"
                    ]
                },
                "nodeType": 1
            }
        },
        "gasFlame": [
            {
                "children": [
                    {
                        "children": [
                            {
                                "children": [],
                                "depth": 0,
                                "name": "Initial Gas",
                                "value": 21252
                            },
                            {
                                "children": [
                                    {
                                        "children": [
                                            {
                                                "children": [],
                                                "depth": 2,
                                                "name": "balanceOf",
                                                "value": 1558
                                            }
                                        ],
                                        "depth": 1,
                                        "name": "balanceOf",
                                        "value": 4337
                                    },
                                    {
                                        "children": [
                                            {
                                                "children": [],
                                                "depth": 2,
                                                "name": "transferFrom",
                                                "value": 26754
                                            }
                                        ],
                                        "depth": 1,
                                        "name": "transferFrom",
                                        "value": 29542
                                    },
                                    {
                                        "children": [],
                                        "depth": 1,
                                        "name": "0xa48c6adc",
                                        "value": 168987
                                    }
                                ],
                                "depth": 0,
                                "name": "Executed Gas",
                                "value": 356854
                            }
                        ],
                        "depth": -1,
                        "name": "Actual Gas Used",
                        "value": 348106
                    },
                    {
                        "children": [],
                        "depth": -1,
                        "name": "Refunded Gas",
                        "value": 30000
                    }
                ],
                "depth": -2,
                "name": "Total Gas",
                "value": 378106
            }
        ],
        "isConfirmed": true,
        "mainTrace": [
            {
                "children": [
                    {
                        "children": [
                            {
                                "children": [
                                    {
                                        "children": [],
                                        "depth": 2,
                                        "id": 2,
                                        "order": 2
                                    }
                                ],
                                "depth": 1,
                                "id": 1,
                                "order": 1
                            },
                            {
                                "children": [
                                    {
                                        "children": [
                                            {
                                                "children": [],
                                                "depth": 3,
                                                "id": 5,
                                                "order": 5
                                            }
                                        ],
                                        "depth": 2,
                                        "id": 4,
                                        "order": 4
                                    }
                                ],
                                "depth": 1,
                                "id": 3,
                                "order": 3
                            },
                            {
                                "children": [],
                                "depth": 1,
                                "id": 6,
                                "order": 6
                            },
                            {
                                "children": [],
                                "depth": 1,
                                "id": 7,
                                "order": 7
                            },
                            {
                                "children": [],
                                "depth": 1,
                                "id": 8,
                                "order": 8
                            },
                            {
                                "children": [],
                                "depth": 1,
                                "id": 9,
                                "order": 9
                            },
                            {
                                "children": [],
                                "depth": 1,
                                "id": 10,
                                "order": 10
                            }
                        ],
                        "depth": 0,
                        "id": 0,
                        "order": 0
                    }
                ],
                "depth": -1,
                "id": -1,
                "order": -1
            }
        ],
        "mainTraceNodeCount": 11,
        "parentIdMap": {
            "0": -1,
            "1": 0,
            "10": 0,
            "2": 1,
            "3": 0,
            "4": 3,
            "5": 4,
            "6": 0,
            "7": 0,
            "8": 0,
            "9": 0
        },
        "tidyTrace": [
            {
                "children": [
                    {
                        "children": [
                            {
                                "children": [
                                    {
                                        "children": [],
                                        "depth": 2,
                                        "id": 2,
                                        "order": 2
                                    }
                                ],
                                "depth": 1,
                                "id": 1,
                                "order": 1
                            },
                            {
                                "children": [
                                    {
                                        "children": [
                                            {
                                                "children": [],
                                                "depth": 3,
                                                "id": 5,
                                                "order": 5
                                            }
                                        ],
                                        "depth": 2,
                                        "id": 4,
                                        "order": 4
                                    }
                                ],
                                "depth": 1,
                                "id": 3,
                                "order": 3
                            },
                            {
                                "children": [],
                                "depth": 1,
                                "id": 6,
                                "order": 6
                            },
                            {
                                "children": [],
                                "depth": 1,
                                "id": 7,
                                "order": 7
                            },
                            {
                                "children": [],
                                "depth": 1,
                                "id": 8,
                                "order": 8
                            },
                            {
                                "children": [],
                                "depth": 1,
                                "id": 9,
                                "order": 9
                            },
                            {
                                "children": [],
                                "depth": 1,
                                "id": 10,
                                "order": 10
                            }
                        ],
                        "depth": 0,
                        "id": 0,
                        "order": 0
                    }
                ],
                "depth": -1,
                "id": -1,
                "order": -1
            }
        ],
        "tidyTraceNodeCount": 11
    },
    "state_change": {
        "stateChanges": [
            {
                "address": "0x1149cd70ae511fc600fb7143ac2f037ac5a4c748",
                "erc": "",
                "slots": [
                    {
                        "current": "0x0000000000000000000000000000000000000000000000003d0ff0b013b80000",
                        "key": "0x20d125dcd5f27b3af60353e4ad7d22901a03213b500b637eb2eb986ddf8187e8",
                        "prev": "0x0000000000000000000000000000000000000000000000000000000000000000"
                    },
                    {
                        "current": "0x0000000000000000000000000000000000000000000000000000000000000001",
                        "key": "0x20d125dcd5f27b3af60353e4ad7d22901a03213b500b637eb2eb986ddf8187e9",
                        "prev": "0x0000000000000000000000000000000000000000000000000000000000000000"
                    },
                    {
                        "current": "0x0000000000000000000000000000000000000000000000000000000000000001",
                        "key": "0x20d125dcd5f27b3af60353e4ad7d22901a03213b500b637eb2eb986ddf8187ea",
                        "prev": "0x0000000000000000000000000000000000000000000000000000000000000000"
                    },
                    {
                        "current": "0x0000000000000000000000000ed0217c6afeb1cf38baef64b5fd9568af8fc66f",
                        "key": "0x20d125dcd5f27b3af60353e4ad7d22901a03213b500b637eb2eb986ddf8187e1",
                        "prev": "0x0000000000000000000000000000000000000000000000000000000000000000"
                    },
                    {
                        "current": "0x000000000000000000000000000000000000000000000000000000005e996d63",
                        "key": "0x20d125dcd5f27b3af60353e4ad7d22901a03213b500b637eb2eb986ddf8187e2",
                        "prev": "0x0000000000000000000000000000000000000000000000000000000000000000"
                    },
                    {
                        "current": "0x000000000000000000000000000000000000000000000001158e460913d00000",
                        "key": "0x20d125dcd5f27b3af60353e4ad7d22901a03213b500b637eb2eb986ddf8187e3",
                        "prev": "0x0000000000000000000000000000000000000000000000000000000000000000"
                    },
                    {
                        "current": "0x0000000000000000000000000000000000000000000000003d0ff0b013b80000",
                        "key": "0x20d125dcd5f27b3af60353e4ad7d22901a03213b500b637eb2eb986ddf8187e5",
                        "prev": "0x0000000000000000000000000000000000000000000000000000000000000000"
                    },
                    {
                        "current": "0x000000000000000000000000000000000000000000000001158e460913d00000",
                        "key": "0x20d125dcd5f27b3af60353e4ad7d22901a03213b500b637eb2eb986ddf8187e6",
                        "prev": "0x0000000000000000000000000000000000000000000000000000000000000000"
                    }
                ],
                "storageVariables": []
            },
            {
                "address": "0x8a91c9a16cd62693649d80afa85a09dbbdcb8508",
                "erc": "",
                "slots": [
                    {
                        "current": "0x000000000000000000000000000000000000000000000000000000005e85a6e3",
                        "key": "0x718517667484d714f4d6618be45310ba33a9bf5d1f015a88ce63112b87edc5ea",
                        "prev": "0x0000000000000000000000000000000000000000000000000000000000000000"
                    },
                    {
                        "current": "0x0000000000000000000000000000000000000000000000000000000000018a5d",
                        "key": "0xbbc70db1b6c7afd11e79c0fb0051300458f1a3acb8ee9789d9b6b26c61ad9bc7",
                        "prev": "0x0000000000000000000000000000000000000000000000000000000000018a5c"
                    },
                    {
                        "current": "0x000000000000000000000000000000000000000000000002e6762e8b7b660000",
                        "key": "0x3e3ea2701456464dd294dac474165924884500e87dfd797609a297251329400b",
                        "prev": "0x000000000000000000000000000000000000000000000002d89577d7d4020000"
                    },
                    {
                        "current": "0x0000000000000000000000000000000000000000000000008ac7230489e80000",
                        "key": "0x718517667484d714f4d6618be45310ba33a9bf5d1f015a88ce63112b87edc5e8",
                        "prev": "0x0000000000000000000000000000000000000000000000000000000000000000"
                    },
                    {
                        "current": "0x00000000000000000000000000000000000000000000000000000004c671d6ca",
                        "key": "0xed65b032d5a5fa3a5b6544566ee46a0f6b8fe8b1375ec878dc3be6580b090ef1",
                        "prev": "0x0000000000000000000000000000000000000000000000000000000000000000"
                    },
                    {
                        "current": "0x0000000000000000000000000000000000000000000000000000000000000000",
                        "key": "0x67a869428723977950bbfe48a1487b4b7559581fe6a2121053f7c819b545732f",
                        "prev": "0x0000000000000000000000000000000000000000000000000000000000000001"
                    }
                ],
                "storageVariables": []
            },
            {
                "address": "0x8e870d67f660d95d5be530380d0ec0bd388289e1",
                "erc": "ERC-20",
                "slots": [
                    {
                        "current": "0x0000000000000000000000000000000000000000000000000000000000000000",
                        "key": "0x13c5725eacff03f6cc21eef8d7acae2f64e6cbedcd1d753778c6908bef99f8f3",
                        "prev": "0x0000000000000000000000000000000000000000000000008ac7230489e80000"
                    },
                    {
                        "current": "0x0000000000000000000000000000000000000000000390279073d3e743298540",
                        "key": "0xc41369a8315e4f894b3fc477f2c97907ac449c5925ec3e23848005e7123f385a",
                        "prev": "0x00000000000000000000000000000000000000000003902705acb0e2b9418540"
                    },
                    {
                        "current": "0xffffffffffffffffffffffffffffffffffffffffffffffff7538dcfb7617ffff",
                        "key": "0x444b5cbdea3c8fb3708ac7d1ebcc664b64a10e166edd147cef976d45787e0cfc",
                        "prev": "0xffffffffffffffffffffffffffffffffffffffffffffffffffffffffffffffff"
                    }
                ],
                "storageVariables": [
                    {
                        "name": "balances",
                        "type": "mapping(address => uint256)",
                        "value": {
                            "pairs": [
                                {
                                    "key": "0x30add85a77bb1c89cc7ec52fe65e0191b3a428aa",
                                    "value": {
                                        "current": "0",
                                        "prev": "10000000000000000000",
                                        "typeTag": 1
                                    }
                                },
                                {
                                    "key": "0x8a91c9a16cd62693649d80afa85a09dbbdcb8508",
                                    "value": {
                                        "current": "4307528064292145108452672",
                                        "prev": "4307518064292145108452672",
                                        "typeTag": 1
                                    }
                                }
                            ],
                            "typeTag": 4
                        }
                    },
                    {
                        "name": "allowed",
                        "type": "mapping(address => mapping(address => uint256))",
                        "value": {
                            "pairs": [
                                {
                                    "key": "0x30add85a77bb1c89cc7ec52fe65e0191b3a428aa",
                                    "value": {
                                        "pairs": [
                                            {
                                                "key": "0x8a91c9a16cd62693649d80afa85a09dbbdcb8508",
                                                "value": {
                                                    "current": "115792089237316195423570985008687907853269984665640564039447584007913129639935",
                                                    "prev": "115792089237316195423570985008687907853269984665640564039457584007913129639935",
                                                    "typeTag": 1
                                                }
                                            }
                                        ],
                                        "typeTag": 4
                                    }
                                }
                            ],
                            "typeTag": 4
                        }
                    }
                ]
            }
        ]
    }
}