{
    "balance_change": {
        "balanceChanges": [
            {
                "account": "0x90f19809e3a26b3b499e11d233b533303e3915ec",
                "assets": [
                    {
                        "address": "0x495f947276749ce646f68ac8c248420045cb7b5e",
                        "amount": "1",
                        "iconUrl": "",
                        "isERC1155": true,
                        "isERC721": false,
                        "sign": false,
                        "tokenID": "65559909670658888177098525177731587779120201311964747134486134391319931388004",
                        "value": ""
                    }
                ]
            },
            {
                "account": "0x12ea19217c65f36385bb030d00525c1034e2f0af",
                "assets": [
                    {
                        "address": "0x495f947276749ce646f68ac8c248420045cb7b5e",
                        "amount": "1",
                        "iconUrl": "",
                        "isERC1155": true,
                        "isERC721": false,
                        "sign": true,
                        "tokenID": "65559909670658888177098525177731587779120201311964747134486134391319931388004",
                        "value": ""
                    }
                ]
            }
        ]
    },
    "profile": {
        "basic_info": {
            "baseFee": "36.76470525",
            "blockNumber": 14506197,
            "callData": "0xf242432a00000000000000000000000090f19809e3a26b3b499e11d233b533303e3915ec00000000000000000000000012ea19217c65f36385bb030d00525c1034e2f0af90f19809e3a26b3b499e11d233b533303e3915ec000000000000170000000064000000000000000000000000000000000000000000000000000000000000000100000000000000000000000000000000000000000000000000000000000000a000000000000000000000000000000000000000000000000000000000000000000000000000000000000000000000000000000000000000000000000000000000",
            "debugEnable": true,
            "errorInfo": "",
            "eventCount": 1,
            "feeRecipient": "0xea674fdde714fd979de3edf0f56aa9716b898ec8",
            "formatValue": "0",
            "gasLimit": 90908,
            "gasPrice": "38.26470525",
            "gasUsed": 65016,
            "intTxnCount": 0,
            "internalRevert": false,
            "internalRevertMessage": "",
            "isContractCreation": false,
            "isFlashloan": false,
            "maxFee": "39.037911913",
            "nonce": 14,
            "overwritedBlockNumber": -1,
            "priorityFee": "1.5",
            "receiver": "0x495f947276749ce646f68ac8c248420045cb7b5e",
            "revertMessage": "",
            "sender": "0x90f19809e3a26b3b499e11d233b533303e3915ec",
            "simulationEnable": true,
            "sourceTxnHash": "0x254772178eb732e42aef2a2d76fabac12fdda8fd1f828c8239407528fe873a36",
            "status": true,
            "timestamp": "2022-04-02T10:29:13Z",
            "transactionFee": "0.002487818076534",
            "txnHash": "0x254772178eb732e42aef2a2d76fabac12fdda8fd1f828c8239407528fe873a36",
            "txnIndex": 170,
            "type": 2,
            "value": "0"
        },
        "fund_flow": [
            {
                "amount": "1",
                "from": "0x90f19809e3a26b3b499e11d233b533303e3915ec",
                "id": 1,
                "isERC1155": true,
                "isERC721": false,
                "isReverted": false,
                "order": 1,
                "to": "0x12ea19217c65f36385bb030d00525c1034e2f0af",
                "token": "0x495f947276749ce646f68ac8c248420045cb7b5e",
                "tokenID": "65559909670658888177098525177731587779120201311964747134486134391319931388004"
            }
        ],
        "token_infos": [
            {
                "address": "0xc02aaa39b223fe8d0a0e5c4f27ead9083c756cc2",
                "decimals": 18
            },
            {
                "address": "0xeeeeeeeeeeeeeeeeeeeeeeeeeeeeeeeeeeeeeeee",
                "decimals": 18
            }
        ]
    },
    "address_label": {
        "labels": [
            {
                "address": "0x0000000000000000000000000000000000000002",
                "label": "Precompiled"
            },
            {
                "address": "0x0000000000000000000000000000000000000003",
                "label": "Precompiled"
            },
            {
                "address": "0x0000000000000000000000000000000000000004",
                "label": "Precompiled"
            },
            {
                "address": "0xeeeeeeeeeeeeeeeeeeeeeeeeeeeeeeeeeeeeeeee",
                "label": "Ether"
            },
            {
                "address": "0x495f947276749ce646f68ac8c248420045cb7b5e",
                "label": "OpenSea: OPENSTORE Token"
            },
            {
                "address": "0x12ea19217c65f36385bb030d00525c1034e2f0af",
                "label": "RTFKT: Deployer 2"
            },
            {
                "address": "0x0000000000000000000000000000000000000001",
                "label": "Precompiled"
            }
        ]
    },
    "trace": {
        "accountLabels": null,
        "dataMap": {
            "-1": {
                "invocation": {
                    "address": "0x90f19809e3a26b3b499e11d233b533303e3915ec",
                    "callData": "",
                    "decodedMethod": null,
                    "errorInfo": "",
                    "fromAddress": "",
                    "gasUsed": 0,
                    "id": -1,
                    "methodDecoded": false,
                    "operation": "",
                    "output": "",
                    "revert": false,
                    "revertMessage": "",
                    "selector": "",
                    "status": false,
                    "value": ""
                },
                "nodeType": 0
            },
            "0": {
                "invocation": {
                    "address": "0x495f947276749ce646f68ac8c248420045cb7b5e",
                    "callData": "0x00000000000000000000000090f19809e3a26b3b499e11d233b533303e3915ec00000000000000000000000012ea19217c65f36385bb030d00525c1034e2f0af90f19809e3a26b3b499e11d233b533303e3915ec000000000000170000000064000000000000000000000000000000000000000000000000000000000000000100000000000000000000000000000000000000000000000000000000000000a000000000000000000000000000000000000000000000000000000000000000000000000000000000000000000000000000000000000000000000000000000000",
                    "decodedMethod": {
                        "callParams": [
                            {
                                "name": "from",
                                "type": "address",
                                "value": "0x90f19809e3a26b3b499e11d233b533303e3915ec"
                            },
                            {
                                "name": "to",
                                "type": "address",
                                "value": "0x12ea19217c65f36385bb030d00525c1034e2f0af"
                            },
                            {
                                "name": "id",
                                "type": "uint256",
                                "value": "65,559,909,670,658,888,177,098,525,177,731,587,779,120,201,311,964,747,134,486,134,391,319,931,388,004"
                            },
                            {
                                "name": "amount",
                                "type": "uint256",
                                "value": "1"
                            },
                            {
                                "name": "data",
                                "type": "bytes",
                                "value": "0x"
                            }
                        ],
                        "constructorArguments": "",
                        "name": "safeTransferFrom",
                        "returnParams": [],
                        "signature": "safeTransferFrom(address,address,uint256,uint256,bytes)"
                    },
                    "errorInfo": "",
                    "fromAddress": "0x90f19809e3a26b3b499e11d233b533303e3915ec",
                    "gasUsed": 65016,
                    "id": 0,
                    "methodDecoded": true,
                    "operation": "CALL",
                    "output": "",
                    "revert": false,
                    "revertMessage": "",
                    "selector": "0xf242432a",
                    "status": true,
                    "value": "0"
                },
                "nodeType": 0
            },
            "1": {
                "event": {
                    "contract": "0x495f947276749ce646f68ac8c248420045cb7b5e",
                    "decodedLog": {
                        "name": "TransferSingle",
                        "params": [
                            {
                                "name": "operator",
                                "type": "address",
                                "value": "0x90f19809e3a26b3b499e11d233b533303e3915ec"
                            },
                            {
                                "name": "from",
                                "type": "address",
                                "value": "0x90f19809e3a26b3b499e11d233b533303e3915ec"
                            },
                            {
                                "name": "to",
                                "type": "address",
                                "value": "0x12ea19217c65f36385bb030d00525c1034e2f0af"
                            },
                            {
                                "name": "id",
                                "type": "uint256",
                                "value": "65,559,909,670,658,888,177,098,525,177,731,587,779,120,201,311,964,747,134,486,134,391,319,931,388,004"
                            },
                            {
                                "name": "value",
                                "type": "uint256",
                                "value": "1"
                            }
                        ],
                        "signature": "TransferSingle(address,address,address,uint256,uint256)"
                    },
                    "id": 1,
                    "logData": "0x90f19809e3a26b3b499e11d233b533303e3915ec0000000000001700000000640000000000000000000000000000000000000000000000000000000000000001",
                    "logDecoded": true,
                    "operation": "EVENT",
                    "revert": false,
                    "status": true,
                    "topics": [
                        "0xc3d58168c5ae7397731d063d5bbf3d657854427343f4c083240f7aacaa2d0f62",
                        "0x00000000000000000000000090f19809e3a26b3b499e11d233b533303e3915ec",
                        "0x00000000000000000000000090f19809e3a26b3b499e11d233b533303e3915ec",
                        "0x00000000000000000000000012ea19217c65f36385bb030d00525c1034e2f0af"
                    ]
                },
                "nodeType": 1
            }
        },
        "gasFlame": [
            {
                "children": [
                    {
                        "children": [
                            {
                                "children": [],
                                "depth": 0,
                                "name": "Initial Gas",
                                "value": 22716
                            },
                            {
                                "children": [],
                                "depth": 0,
                                "name": "Executed Gas",
                                "value": 45100
                            }
                        ],
                        "depth": -1,
                        "name": "Actual Gas Used",
                        "value": 65016
                    },
                    {
                        "children": [],
                        "depth": -1,
                        "name": "Refunded Gas",
                        "value": 2800
                    }
                ],
                "depth": -2,
                "name": "Total Gas",
                "value": 67816
            }
        ],
        "isConfirmed": true,
        "mainTrace": [
            {
                "children": [
                    {
                        "children": [
                            {
                                "children": [],
                                "depth": 1,
                                "id": 1,
                                "order": 1
                            }
                        ],
                        "depth": 0,
                        "id": 0,
                        "order": 0
                    }
                ],
                "depth": -1,
                "id": -1,
                "order": -1
            }
        ],
        "mainTraceNodeCount": 2,
        "parentIdMap": {
            "0": -1,
            "1": 0
        },
        "tidyTrace": [
            {
                "children": [
                    {
                        "children": [
                            {
                                "children": [],
                                "depth": 1,
                                "id": 1,
                                "order": 1
                            }
                        ],
                        "depth": 0,
                        "id": 0,
                        "order": 0
                    }
                ],
                "depth": -1,
                "id": -1,
                "order": -1
            }
        ],
        "tidyTraceNodeCount": 2
    },
    "state_change": {
        "stateChanges": [
            {
                "address": "0x495f947276749ce646f68ac8c248420045cb7b5e",
                "erc": "",
                "slots": [
                    {
                        "current": "0x0000000000000000000000000000000000000000000000000000000000000001",
                        "key": "0xbd154b9cc78f4bf073bf1244304904074912b67a28cf2d6917348cfed359a22d",
                        "prev": "0x0000000000000000000000000000000000000000000000000000000000000000"
                    },
                    {
                        "current": "0x0000000000000000000000000000000000000000000000000000000000000004",
                        "key": "0xe4b0df4584445196a8c26ffc63eae3bd3ccaca175d8c1b14e51d5081924797ba",
                        "prev": "0x0000000000000000000000000000000000000000000000000000000000000003"
                    }
                ],
                "storageVariables": []
            }
        ]
    }
}