{
    "balance_change": {
        "balanceChanges": [
            {
                "account": "0xb058d1d35e19e27ba112bcbafa2d294a870c4846",
                "assets": [
                    {
                        "address": "0x2655b8a7357f4bb4a8cb2170e196096ac8f0cdf9",
                        "amount": "35,644,974,224,795,931",
                        "iconUrl": "",
                        "isERC1155": false,
                        "isERC721": false,
                        "sign": true,
                        "value": ""
                    },
                    {
                        "address": "0x967da4048cd07ab37855c090aaf366e4ce1b9f48",
                        "amount": "731.261498439837307167",
                        "iconUrl": "https://assets.blocksec.com/icon/d04f3c1fedb0e68f6cad4aa54211b27acced2b1974dd8e4a30988d3bae166079.png",
                        "isERC1155": false,
                        "isERC721": false,
                        "sign": false,
                        "value": "303.4040288"
                    }
                ]
            },
            {
                "account": "0x2655b8a7357f4bb4a8cb2170e196096ac8f0cdf9",
                "assets": [
                    {
                        "address": "0x967da4048cd07ab37855c090aaf366e4ce1b9f48",
                        "amount": "731.261498439837307167",
                        "iconUrl": "https://assets.blocksec.com/icon/d04f3c1fedb0e68f6cad4aa54211b27acced2b1974dd8e4a30988d3bae166079.png",
                        "isERC1155": false,
                        "isERC721": false,
                        "sign": true,
                        "value": "303.4040288"
                    }
                ]
            },
            {
                "account": "0x0000000000000000000000000000000000000000",
                "assets": [
                    {
                        "address": "0x2655b8a7357f4bb4a8cb2170e196096ac8f0cdf9",
                        "amount": "35,644,974,224,795,931",
                        "iconUrl": "",
                        "isERC1155": false,
                        "isERC721": false,
                        "sign": false,
                        "value": ""
                    }
                ]
            }
        ]
    },
    "profile": {
        "basic_info": {
            "baseFee": "",
            "blockNumber": 11168020,
            "callData": "0x5db34277000000000000000000000000967da4048cd07ab37855c090aaf366e4ce1b9f48000000000000000000000000000000000000000000000027a44aba710a5e511f0000000000000000000000000000000000000000000000000000000000000000",
            "debugEnable": true,
            "errorInfo": "",
            "eventCount": 6,
            "feeRecipient": "0x00192fb10df37c9fb26829eb2cc623cd1bf599e8",
            "formatValue": "0",
            "gasLimit": 128515,
            "gasPrice": "25.25",
            "gasUsed": 72057,
            "intTxnCount": 2,
            "internalRevert": false,
            "internalRevertMessage": "",
            "isContractCreation": false,
            "isFlashloan": false,
            "maxFee": "",
            "nonce": 9,
            "overwritedBlockNumber": -1,
            "priorityFee": "",
            "receiver": "0x2655b8a7357f4bb4a8cb2170e196096ac8f0cdf9",
            "revertMessage": "",
            "sender": "0xb058d1d35e19e27ba112bcbafa2d294a870c4846",
            "simulationEnable": true,
            "sourceTxnHash": "0x25d0d4e99b0c232ec9141ea163ffd62f5bdd050c3f027fd4adfd95331e54a0b8",
            "status": true,
            "timestamp": "2020-11-01T00:47:05Z",
            "transactionFee": "0.00181943925",
            "txnHash": "0x25d0d4e99b0c232ec9141ea163ffd62f5bdd050c3f027fd4adfd95331e54a0b8",
            "txnIndex": 140,
            "type": 0,
            "value": "0"
        },
        "fund_flow": [
            {
                "amount": "35,644,974,224,795,931",
                "from": "0x0000000000000000000000000000000000000000",
                "id": 1,
                "isERC1155": false,
                "isERC721": false,
                "isReverted": false,
                "order": 1,
                "to": "0x2655b8a7357f4bb4a8cb2170e196096ac8f0cdf9",
                "token": "0x2655b8a7357f4bb4a8cb2170e196096ac8f0cdf9"
            },
            {
                "amount": "35,644,974,224,795,931",
                "from": "0x2655b8a7357f4bb4a8cb2170e196096ac8f0cdf9",
                "id": 2,
                "isERC1155": false,
                "isERC721": false,
                "isReverted": false,
                "order": 2,
                "to": "0xb058d1d35e19e27ba112bcbafa2d294a870c4846",
                "token": "0x2655b8a7357f4bb4a8cb2170e196096ac8f0cdf9"
            },
            {
                "amount": "731.261498439837307167",
                "from": "0xb058d1d35e19e27ba112bcbafa2d294a870c4846",
                "id": 3,
                "isERC1155": false,
                "isERC721": false,
                "isReverted": false,
                "order": 3,
                "to": "0x2655b8a7357f4bb4a8cb2170e196096ac8f0cdf9",
                "token": "0x967da4048cd07ab37855c090aaf366e4ce1b9f48"
            }
        ],
        "token_infos": [
            {
                "address": "0x2655b8a7357f4bb4a8cb2170e196096ac8f0cdf9",
                "decimals": 0
            },
            {
                "address": "0x967da4048cd07ab37855c090aaf366e4ce1b9f48",
                "decimals": 18
            },
            {
                "address": "0xc02aaa39b223fe8d0a0e5c4f27ead9083c756cc2",
                "decimals": 18
            },
            {
                "address": "0xeeeeeeeeeeeeeeeeeeeeeeeeeeeeeeeeeeeeeeee",
                "decimals": 18
            }
        ]
    },
    "address_label": {
        "labels": [
            {
                "address": "0x0000000000000000000000000000000000000001",
                "label": "Precompiled"
            },
            {
                "address": "0x0000000000000000000000000000000000000002",
                "label": "Precompiled"
            },
            {
                "address": "0x0000000000000000000000000000000000000003",
                "label": "Precompiled"
            },
            {
                "address": "0x0000000000000000000000000000000000000004",
                "label": "Precompiled"
            },
            {
                "address": "0xeeeeeeeeeeeeeeeeeeeeeeeeeeeeeeeeeeeeeeee",
                "label": "Ether"
            },
            {
                "address": "0x2655b8a7357f4bb4a8cb2170e196096ac8f0cdf9",
                "label": "BPool"
            },
            {
                "address": "0xee8ac082aeb41b0f5a41aae8c4110744d4e3b45a",
                "label": "Balancer Pool Token (BPT)"
            },
            {
                "address": "0x967da4048cd07ab37855c090aaf366e4ce1b9f48",
                "label": "Ocean Protocol: OCEAN Token"
            }
        ]
    },
    "trace": {
        "accountLabels": null,
        "dataMap": {
            "-1": {
                "invocation": {
                    "address": "0xb058d1d35e19e27ba112bcbafa2d294a870c4846",
                    "callData": "",
                    "decodedMethod": null,
                    "errorInfo": "",
                    "fromAddress": "",
                    "gasUsed": 0,
                    "id": -1,
                    "methodDecoded": false,
                    "operation": "",
                    "output": "",
                    "revert": false,
                    "revertMessage": "",
                    "selector": "",
                    "status": false,
                    "value": ""
                },
                "nodeType": 0
            },
            "0": {
                "invocation": {
                    "address": "0x2655b8a7357f4bb4a8cb2170e196096ac8f0cdf9",
                    "callData": "0x000000000000000000000000967da4048cd07ab37855c090aaf366e4ce1b9f48000000000000000000000000000000000000000000000027a44aba710a5e511f0000000000000000000000000000000000000000000000000000000000000000",
                    "decodedMethod": {
                        "callParams": [
                            {
                                "name": "tokenIn",
                                "type": "address",
                                "value": "0x967da4048cd07ab37855c090aaf366e4ce1b9f48"
                            },
                            {
                                "name": "tokenAmountIn",
                                "type": "uint256",
                                "value": "731,261,498,439,837,307,167"
                            },
                            {
                                "name": "minPoolAmountOut",
                                "type": "uint256",
                                "value": "0"
                            }
                        ],
                        "constructorArguments": "",
                        "name": "joinswapExternAmountIn",
                        "returnParams": [
                            {
                                "name": "poolAmountOut",
                                "type": "uint256",
                                "value": "35,644,974,224,795,931"
                            }
                        ],
                        "signature": "joinswapExternAmountIn(address,uint256,uint256)"
                    },
                    "errorInfo": "",
                    "fromAddress": "0xb058d1d35e19e27ba112bcbafa2d294a870c4846",
                    "gasUsed": 72057,
                    "id": 0,
                    "methodDecoded": true,
                    "operation": "CALL",
                    "output": "0x000000000000000000000000000000000000000000000000007ea2ea4ab2691b",
                    "revert": false,
                    "revertMessage": "",
                    "selector": "0x5db34277",
                    "status": true,
                    "value": "0"
                },
                "nodeType": 0
            },
            "1": {
                "invocation": {
                    "address": "0xee8ac082aeb41b0f5a41aae8c4110744d4e3b45a",
                    "callData": "0x000000000000000000000000967da4048cd07ab37855c090aaf366e4ce1b9f48000000000000000000000000000000000000000000000027a44aba710a5e511f0000000000000000000000000000000000000000000000000000000000000000",
                    "decodedMethod": {
                        "callParams": [
                            {
                                "name": "tokenIn",
                                "type": "address",
                                "value": "0x967da4048cd07ab37855c090aaf366e4ce1b9f48"
                            },
                            {
                                "name": "tokenAmountIn",
                                "type": "uint256",
                                "value": "731,261,498,439,837,307,167"
                            },
                            {
                                "name": "minPoolAmountOut",
                                "type": "uint256",
                                "value": "0"
                            }
                        ],
                        "constructorArguments": "",
                        "name": "joinswapExternAmountIn",
                        "returnParams": [
                            {
                                "name": "poolAmountOut",
                                "type": "uint256",
                                "value": "35,644,974,224,795,931"
                            }
                        ],
                        "signature": "joinswapExternAmountIn(address,uint256,uint256)"
                    },
                    "errorInfo": "",
                    "fromAddress": "0x2655b8a7357f4bb4a8cb2170e196096ac8f0cdf9",
                    "gasUsed": 102877,
                    "id": 1,
                    "methodDecoded": true,
                    "operation": "DELEGATECALL",
                    "output": "0x000000000000000000000000000000000000000000000000007ea2ea4ab2691b",
                    "revert": false,
                    "revertMessage": "",
                    "selector": "0x5db34277",
                    "status": true,
                    "value": "0"
                },
                "nodeType": 0
            },
            "2": {
                "event": {
                    "contract": "0x2655b8a7357f4bb4a8cb2170e196096ac8f0cdf9",
                    "decodedLog": null,
                    "id": 2,
                    "logData": "0x000000000000000000000000000000000000000000000000000000000000002000000000000000000000000000000000000000000000000000000000000000645db34277000000000000000000000000967da4048cd07ab37855c090aaf366e4ce1b9f48000000000000000000000000000000000000000000000027a44aba710a5e511f000000000000000000000000000000000000000000000000000000000000000000000000000000000000000000000000000000000000000000000000",
                    "logDecoded": false,
                    "operation": "EVENT",
                    "revert": false,
                    "status": true,
                    "topics": [
                        "0x5db3427700000000000000000000000000000000000000000000000000000000",
                        "0x000000000000000000000000b058d1d35e19e27ba112bcbafa2d294a870c4846"
                    ]
                },
                "nodeType": 1
            },
            "3": {
                "event": {
                    "contract": "0x2655b8a7357f4bb4a8cb2170e196096ac8f0cdf9",
                    "decodedLog": {
                        "name": "LOG_JOIN",
                        "params": [
                            {
                                "name": "caller",
                                "type": "address",
                                "value": "0xb058d1d35e19e27ba112bcbafa2d294a870c4846"
                            },
                            {
                                "name": "tokenIn",
                                "type": "address",
                                "value": "0x967da4048cd07ab37855c090aaf366e4ce1b9f48"
                            },
                            {
                                "name": "tokenAmountIn",
                                "type": "uint256",
                                "value": "731,261,498,439,837,307,167"
                            }
                        ],
                        "signature": "LOG_JOIN(address,address,uint256)"
                    },
                    "id": 3,
                    "logData": "0x000000000000000000000000000000000000000000000027a44aba710a5e511f",
                    "logDecoded": true,
                    "operation": "EVENT",
                    "revert": false,
                    "status": true,
                    "topics": [
                        "0x63982df10efd8dfaaaa0fcc7f50b2d93b7cba26ccc48adee2873220d485dc39a",
                        "0x000000000000000000000000b058d1d35e19e27ba112bcbafa2d294a870c4846",
                        "0x000000000000000000000000967da4048cd07ab37855c090aaf366e4ce1b9f48"
                    ]
                },
                "nodeType": 1
            },
            "4": {
                "event": {
                    "contract": "0x2655b8a7357f4bb4a8cb2170e196096ac8f0cdf9",
                    "decodedLog": {
                        "name": "Transfer",
                        "params": [
                            {
                                "name": "from",
                                "type": "address",
                                "value": "0x0000000000000000000000000000000000000000"
                            },
                            {
                                "name": "to",
                                "type": "address",
                                "value": "0x2655b8a7357f4bb4a8cb2170e196096ac8f0cdf9"
                            },
                            {
                                "decimalAvailable": true,
                                "name": "value",
                                "type": "uint256",
                                "value": "35,644,974,224,795,931"
                            }
                        ],
                        "signature": "Transfer(address,address,uint256)"
                    },
                    "id": 4,
                    "logData": "0x000000000000000000000000000000000000000000000000007ea2ea4ab2691b",
                    "logDecoded": true,
                    "operation": "EVENT",
                    "revert": false,
                    "status": true,
                    "topics": [
                        "0xddf252ad1be2c89b69c2b068fc378daa952ba7f163c4a11628f55a4df523b3ef",
                        "0x0000000000000000000000000000000000000000000000000000000000000000",
                        "0x0000000000000000000000002655b8a7357f4bb4a8cb2170e196096ac8f0cdf9"
                    ]
                },
                "nodeType": 1
            },
            "5": {
                "event": {
                    "contract": "0x2655b8a7357f4bb4a8cb2170e196096ac8f0cdf9",
                    "decodedLog": {
                        "name": "Transfer",
                        "params": [
                            {
                                "name": "from",
                                "type": "address",
                                "value": "0x2655b8a7357f4bb4a8cb2170e196096ac8f0cdf9"
                            },
                            {
                                "name": "to",
                                "type": "address",
                                "value": "0xb058d1d35e19e27ba112bcbafa2d294a870c4846"
                            },
                            {
                                "decimalAvailable": true,
                                "name": "value",
                                "type": "uint256",
                                "value": "35,644,974,224,795,931"
                            }
                        ],
                        "signature": "Transfer(address,address,uint256)"
                    },
                    "id": 5,
                    "logData": "0x000000000000000000000000000000000000000000000000007ea2ea4ab2691b",
                    "logDecoded": true,
                    "operation": "EVENT",
                    "revert": false,
                    "status": true,
                    "topics": [
                        "0xddf252ad1be2c89b69c2b068fc378daa952ba7f163c4a11628f55a4df523b3ef",
                        "0x0000000000000000000000002655b8a7357f4bb4a8cb2170e196096ac8f0cdf9",
                        "0x000000000000000000000000b058d1d35e19e27ba112bcbafa2d294a870c4846"
                    ]
                },
                "nodeType": 1
            },
            "6": {
                "invocation": {
                    "address": "0x967da4048cd07ab37855c090aaf366e4ce1b9f48",
                    "callData": "0x000000000000000000000000b058d1d35e19e27ba112bcbafa2d294a870c48460000000000000000000000002655b8a7357f4bb4a8cb2170e196096ac8f0cdf9000000000000000000000000000000000000000000000027a44aba710a5e511f",
                    "decodedMethod": {
                        "callParams": [
                            {
                                "name": "_from",
                                "type": "address",
                                "value": "0xb058d1d35e19e27ba112bcbafa2d294a870c4846"
                            },
                            {
                                "name": "_to",
                                "type": "address",
                                "value": "0x2655b8a7357f4bb4a8cb2170e196096ac8f0cdf9"
                            },
                            {
                                "decimalAvailable": true,
                                "name": "_value",
                                "type": "uint256",
                                "value": "731,261,498,439,837,307,167"
                            }
                        ],
                        "constructorArguments": "",
                        "name": "transferFrom",
                        "returnParams": [
                            {
                                "name": "",
                                "type": "bool",
                                "value": true
                            }
                        ],
                        "signature": "transferFrom(address,address,uint256)"
                    },
                    "errorInfo": "",
                    "fromAddress": "0x2655b8a7357f4bb4a8cb2170e196096ac8f0cdf9",
                    "gasUsed": 26895,
                    "id": 6,
                    "methodDecoded": true,
                    "operation": "CALL",
                    "output": "0x0000000000000000000000000000000000000000000000000000000000000001",
                    "revert": false,
                    "revertMessage": "",
                    "selector": "0x23b872dd",
                    "status": true,
                    "value": "0"
                },
                "nodeType": 0
            },
            "7": {
                "event": {
                    "contract": "0x967da4048cd07ab37855c090aaf366e4ce1b9f48",
                    "decodedLog": {
                        "name": "Transfer",
                        "params": [
                            {
                                "name": "from",
                                "type": "address",
                                "value": "0xb058d1d35e19e27ba112bcbafa2d294a870c4846"
                            },
                            {
                                "name": "to",
                                "type": "address",
                                "value": "0x2655b8a7357f4bb4a8cb2170e196096ac8f0cdf9"
                            },
                            {
                                "decimalAvailable": true,
                                "name": "value",
                                "type": "uint256",
                                "value": "731,261,498,439,837,307,167"
                            }
                        ],
                        "signature": "Transfer(address,address,uint256)"
                    },
                    "id": 7,
                    "logData": "0x000000000000000000000000000000000000000000000027a44aba710a5e511f",
                    "logDecoded": true,
                    "operation": "EVENT",
                    "revert": false,
                    "status": true,
                    "topics": [
                        "0xddf252ad1be2c89b69c2b068fc378daa952ba7f163c4a11628f55a4df523b3ef",
                        "0x000000000000000000000000b058d1d35e19e27ba112bcbafa2d294a870c4846",
                        "0x0000000000000000000000002655b8a7357f4bb4a8cb2170e196096ac8f0cdf9"
                    ]
                },
                "nodeType": 1
            },
            "8": {
                "event": {
                    "contract": "0x967da4048cd07ab37855c090aaf366e4ce1b9f48",
                    "decodedLog": {
                        "name": "Approval",
                        "params": [
                            {
                                "name": "owner",
                                "type": "address",
                                "value": "0xb058d1d35e19e27ba112bcbafa2d294a870c4846"
                            },
                            {
                                "name": "spender",
                                "type": "address",
                                "value": "0x2655b8a7357f4bb4a8cb2170e196096ac8f0cdf9"
                            },
                            {
                                "decimalAvailable": true,
                                "name": "value",
                                "type": "uint256",
                                "value": "0"
                            }
                        ],
                        "signature": "Approval(address,address,uint256)"
                    },
                    "id": 8,
                    "logData": "0x0000000000000000000000000000000000000000000000000000000000000000",
                    "logDecoded": true,
                    "operation": "EVENT",
                    "revert": false,
                    "status": true,
                    "topics": [
                        "0x8c5be1e5ebec7d5bd14f71427d1e84f3dd0314c0f7b2291e5b200ac8c7c3b925",
                        "0x000000000000000000000000b058d1d35e19e27ba112bcbafa2d294a870c4846",
                        "0x0000000000000000000000002655b8a7357f4bb4a8cb2170e196096ac8f0cdf9"
                    ]
                },
                "nodeType": 1
            }
        },
        "gasFlame": [
            {
                "children": [
                    {
                        "children": [
                            {
                                "children": [],
                                "depth": 0,
                                "name": "Initial Gas",
                                "value": 21796
                            },
                            {
                                "children": [
                                    {
                                        "children": [
                                            {
                                                "children": [],
                                                "depth": 2,
                                                "name": "transferFrom",
                                                "value": 26895
                                            }
                                        ],
                                        "depth": 1,
                                        "name": "joinswapExternAmountIn",
                                        "value": 102877
                                    }
                                ],
                                "depth": 0,
                                "name": "Executed Gas",
                                "value": 103661
                            }
                        ],
                        "depth": -1,
                        "name": "Actual Gas Used",
                        "value": 72057
                    },
                    {
                        "children": [],
                        "depth": -1,
                        "name": "Refunded Gas",
                        "value": 53400
                    }
                ],
                "depth": -2,
                "name": "Total Gas",
                "value": 125457
            }
        ],
        "isConfirmed": true,
        "mainTrace": [
            {
                "children": [
                    {
                        "children": [
                            {
                                "children": [
                                    {
                                        "children": [],
                                        "depth": 2,
                                        "id": 2,
                                        "order": 2
                                    },
                                    {
                                        "children": [],
                                        "depth": 2,
                                        "id": 3,
                                        "order": 3
                                    },
                                    {
                                        "children": [],
                                        "depth": 2,
                                        "id": 4,
                                        "order": 4
                                    },
                                    {
                                        "children": [],
                                        "depth": 2,
                                        "id": 5,
                                        "order": 5
                                    },
                                    {
                                        "children": [
                                            {
                                                "children": [],
                                                "depth": 3,
                                                "id": 7,
                                                "order": 7
                                            },
                                            {
                                                "children": [],
                                                "depth": 3,
                                                "id": 8,
                                                "order": 8
                                            }
                                        ],
                                        "depth": 2,
                                        "id": 6,
                                        "order": 6
                                    }
                                ],
                                "depth": 1,
                                "id": 1,
                                "order": 1
                            }
                        ],
                        "depth": 0,
                        "id": 0,
                        "order": 0
                    }
                ],
                "depth": -1,
                "id": -1,
                "order": -1
            }
        ],
        "mainTraceNodeCount": 9,
        "parentIdMap": {
            "0": -1,
            "1": 0,
            "2": 1,
            "3": 1,
            "4": 1,
            "5": 1,
            "6": 1,
            "7": 6,
            "8": 6
        },
        "tidyTrace": [
            {
                "children": [
                    {
                        "children": [
                            {
                                "children": [
                                    {
                                        "children": [],
                                        "depth": 2,
                                        "id": 2,
                                        "order": 2
                                    },
                                    {
                                        "children": [],
                                        "depth": 2,
                                        "id": 3,
                                        "order": 3
                                    },
                                    {
                                        "children": [],
                                        "depth": 2,
                                        "id": 4,
                                        "order": 4
                                    },
                                    {
                                        "children": [],
                                        "depth": 2,
                                        "id": 5,
                                        "order": 5
                                    },
                                    {
                                        "children": [
                                            {
                                                "children": [],
                                                "depth": 3,
                                                "id": 7,
                                                "order": 7
                                            },
                                            {
                                                "children": [],
                                                "depth": 3,
                                                "id": 8,
                                                "order": 8
                                            }
                                        ],
                                        "depth": 2,
                                        "id": 6,
                                        "order": 6
                                    }
                                ],
                                "depth": 1,
                                "id": 1,
                                "order": 1
                            }
                        ],
                        "depth": 0,
                        "id": 0,
                        "order": 0
                    }
                ],
                "depth": -1,
                "id": -1,
                "order": -1
            }
        ],
        "tidyTraceNodeCount": 9
    },
    "state_change": {
        "stateChanges": [
            {
                "address": "0x2655b8a7357f4bb4a8cb2170e196096ac8f0cdf9",
                "erc": "ERC-20",
                "slots": [
                    {
                        "current": "0x000000000000000000000000000000000000000000000000007ea2ea4ab4d0e1",
                        "key": "0xe38a4d1ff791ba1e47851d0e8a5cd54b7cbfb4839abf7ca085ff705d415b8e11",
                        "prev": "0x00000000000000000000000000000000000000000000000000000000000267c6"
                    },
                    {
                        "current": "0x000000000000000000000000000000000000000000004799329caf195f2e119c",
                        "key": "0xd486693a56c790a930b2fcdded8359ca94dda75799dd9e88dc9acd0026a76497",
                        "prev": "0x0000000000000000000000000000000000000000000047718e51f4a854cfc07d"
                    },
                    {
                        "current": "0x000000000000000000000000000000000000000000000008ef0dfe9033e6694f",
                        "key": "0x0000000000000000000000000000000000000000000000000000000000000002",
                        "prev": "0x000000000000000000000000000000000000000000000008ee8f5ba5e9340034"
                    }
                ],
                "storageVariables": [
                    {
                        "name": "_balance",
                        "type": "mapping(address => uint256)",
                        "value": {
                            "pairs": [
                                {
                                    "key": "0xb058d1d35e19e27ba112bcbafa2d294a870c4846",
                                    "value": {
                                        "current": "35644974224953569",
                                        "prev": "157638",
                                        "typeTag": 1
                                    }
                                }
                            ],
                            "typeTag": 4
                        }
                    },
                    {
                        "name": "_records",
                        "type": "mapping(address => struct BPool.Record)",
                        "value": {
                            "pairs": [
                                {
                                    "key": "0x967da4048cd07ab37855c090aaf366e4ce1b9f48",
                                    "value": {
                                        "fields": [
                                            {
                                                "name": "balance",
                                                "type": "uint256",
                                                "value": {
                                                    "current": "338114019109344140726684",
                                                    "prev": "337382757610904303419517",
                                                    "typeTag": 1
                                                }
                                            }
                                        ],
                                        "typeTag": 3
                                    }
                                }
                            ],
                            "typeTag": 4
                        }
                    },
                    {
                        "name": "_totalSupply",
                        "type": "uint256",
                        "value": {
                            "current": "164799656634737912143",
                            "prev": "164764011660513116212",
                            "typeTag": 1
                        }
                    }
                ]
            },
            {
                "address": "0x967da4048cd07ab37855c090aaf366e4ce1b9f48",
                "erc": "ERC-20",
                "slots": [
                    {
                        "current": "0x0000000000000000000000000000000000000000000000000000000000000000",
                        "key": "0x6c03c6664cbc879de782f0d2c6ecf88dbf60016c8bb530246aeb46fd7b4a63fa",
                        "prev": "0x000000000000000000000000000000000000000000000027a44aba710a5e511f"
                    },
                    {
                        "current": "0x00000000000000000000000000000000000000000000479b8c36d26bc45d119c",
                        "key": "0x2dc0e18d1b091252cba997be1ebd66cb043fb3a7b3221899aec003eb1dcd2f84",
                        "prev": "0x000000000000000000000000000000000000000000004773e7ec17fab9fec07d"
                    },
                    {
                        "current": "0x0000000000000000000000000000000000000000000000000000000000000000",
                        "key": "0x6242399b6e7ee1c28ea790082ba8657b83e5fc68764a86af0b1dc910a1bf60e0",
                        "prev": "0x000000000000000000000000000000000000000000000027a44aba710a5e511f"
                    }
                ],
                "storageVariables": [
                    {
                        "name": "_balances",
                        "type": "mapping(address => uint256)",
                        "value": {
                            "pairs": [
                                {
                                    "key": "0x2655b8a7357f4bb4a8cb2170e196096ac8f0cdf9",
                                    "value": {
                                        "current": "338157369109344140726684",
                                        "prev": "337426107610904303419517",
                                        "typeTag": 1
                                    }
                                },
                                {
                                    "key": "0xb058d1d35e19e27ba112bcbafa2d294a870c4846",
                                    "value": {
                                        "current": "0",
                                        "prev": "731261498439837307167",
                                        "typeTag": 1
                                    }
                                }
                            ],
                            "typeTag": 4
                        }
                    },
                    {
                        "name": "_allowed",
                        "type": "mapping(address => mapping(address => uint256))",
                        "value": {
                            "pairs": [
                                {
                                    "key": "0xb058d1d35e19e27ba112bcbafa2d294a870c4846",
                                    "value": {
                                        "pairs": [
                                            {
                                                "key": "0x2655b8a7357f4bb4a8cb2170e196096ac8f0cdf9",
                                                "value": {
                                                    "current": "0",
                                                    "prev": "731261498439837307167",
                                                    "typeTag": 1
                                                }
                                            }
                                        ],
                                        "typeTag": 4
                                    }
                                }
                            ],
                            "typeTag": 4
                        }
                    }
                ]
            }
        ]
    }
}