{
    "balance_change": {
        "balanceChanges": []
    },
    "profile": {
        "basic_info": {
            "baseFee": "",
            "blockNumber": 7760684,
            "callData": "0x751c4d7000000000000000000000000061293cb09dee99357c2e5688e1c8208feca4c60d000000000000000000000000000000000000000000000003cb71f51fc5580000",
            "debugEnable": true,
            "errorInfo": "",
            "eventCount": 1,
            "feeRecipient": "0x2a5994b501e6a560e727b6c2de5d856396aadd38",
            "formatValue": "0",
            "gasLimit": 157476,
            "gasPrice": "2.2",
            "gasUsed": 37492,
            "intTxnCount": 0,
            "internalRevert": false,
            "internalRevertMessage": "",
            "isContractCreation": false,
            "isFlashloan": false,
            "maxFee": "",
            "nonce": 226703,
            "overwritedBlockNumber": -1,
            "priorityFee": "",
            "receiver": "0xb363a3c584b1f379c79fbf09df015da5529d4dac",
            "revertMessage": "",
            "sender": "0x5a9e54056ea941b6a85e44d0c11b5c51028810d7",
            "simulationEnable": true,
            "sourceTxnHash": "0x269a4b4c75af76978c87b0d70eda60915198e560604d341455233792605e6002",
            "status": true,
            "timestamp": "2019-05-14T20:41:42Z",
            "transactionFee": "0.0000824824",
            "txnHash": "0x269a4b4c75af76978c87b0d70eda60915198e560604d341455233792605e6002",
            "txnIndex": 71,
            "type": 0,
            "value": "0"
        },
        "fund_flow": [],
        "token_infos": [
            {
                "address": "0xc02aaa39b223fe8d0a0e5c4f27ead9083c756cc2",
                "decimals": 18
            },
            {
                "address": "0xeeeeeeeeeeeeeeeeeeeeeeeeeeeeeeeeeeeeeeee",
                "decimals": 18
            }
        ]
    },
    "address_label": {
        "labels": [
            {
                "address": "0xeeeeeeeeeeeeeeeeeeeeeeeeeeeeeeeeeeeeeeee",
                "label": "Ether"
            },
            {
                "address": "0xb363a3c584b1f379c79fbf09df015da5529d4dac",
                "label": "MiracleTele (TELE)"
            },
            {
                "address": "0x0000000000000000000000000000000000000001",
                "label": "Precompiled"
            },
            {
                "address": "0x0000000000000000000000000000000000000002",
                "label": "Precompiled"
            },
            {
                "address": "0x0000000000000000000000000000000000000003",
                "label": "Precompiled"
            },
            {
                "address": "0x0000000000000000000000000000000000000004",
                "label": "Precompiled"
            }
        ]
    },
    "trace": {
        "accountLabels": null,
        "dataMap": {
            "-1": {
                "invocation": {
                    "address": "0x5a9e54056ea941b6a85e44d0c11b5c51028810d7",
                    "callData": "",
                    "decodedMethod": null,
                    "errorInfo": "",
                    "fromAddress": "",
                    "gasUsed": 0,
                    "id": -1,
                    "methodDecoded": false,
                    "operation": "",
                    "output": "",
                    "revert": false,
                    "revertMessage": "",
                    "selector": "",
                    "status": false,
                    "value": ""
                },
                "nodeType": 0
            },
            "0": {
                "invocation": {
                    "address": "0xb363a3c584b1f379c79fbf09df015da5529d4dac",
                    "callData": "0x00000000000000000000000061293cb09dee99357c2e5688e1c8208feca4c60d000000000000000000000000000000000000000000000003cb71f51fc5580000",
                    "decodedMethod": {
                        "callParams": [
                            {
                                "name": "_from",
                                "type": "address",
                                "value": "0x61293cb09dee99357c2e5688e1c8208feca4c60d"
                            },
                            {
                                "name": "_value",
                                "type": "uint256",
                                "value": "70,000,000,000,000,000,000"
                            }
                        ],
                        "constructorArguments": "",
                        "name": "contributeDelegated",
                        "returnParams": [],
                        "signature": "contributeDelegated(address,uint256)"
                    },
                    "errorInfo": "",
                    "fromAddress": "0x5a9e54056ea941b6a85e44d0c11b5c51028810d7",
                    "gasUsed": 37492,
                    "id": 0,
                    "methodDecoded": true,
                    "operation": "CALL",
                    "output": "",
                    "revert": false,
                    "revertMessage": "",
                    "selector": "0x751c4d70",
                    "status": true,
                    "value": "0"
                },
                "nodeType": 0
            },
            "1": {
                "event": {
                    "contract": "0xb363a3c584b1f379c79fbf09df015da5529d4dac",
                    "decodedLog": {
                        "name": "Contribute",
                        "params": [
                            {
                                "name": "from",
                                "type": "address",
                                "value": "0x61293cb09dee99357c2e5688e1c8208feca4c60d"
                            },
                            {
                                "name": "value",
                                "type": "uint256",
                                "value": "70,000,000,000,000,000,000"
                            }
                        ],
                        "signature": "Contribute(address,uint256)"
                    },
                    "id": 1,
                    "logData": "0x",
                    "logDecoded": true,
                    "operation": "EVENT",
                    "revert": false,
                    "status": true,
                    "topics": [
                        "0x906faaf913a60f38b5e8f2d6f5b163239bac2d994fa1a5d21751a51587a94057",
                        "0x00000000000000000000000061293cb09dee99357c2e5688e1c8208feca4c60d",
                        "0x000000000000000000000000000000000000000000000003cb71f51fc5580000"
                    ]
                },
                "nodeType": 1
            }
        },
        "gasFlame": [
            {
                "children": [
                    {
                        "children": [
                            {
                                "children": [],
                                "depth": 0,
                                "name": "Initial Gas",
                                "value": 23256
                            },
                            {
                                "children": [],
                                "depth": 0,
                                "name": "Executed Gas",
                                "value": 29236
                            }
                        ],
                        "depth": -1,
                        "name": "Actual Gas Used",
                        "value": 37492
                    },
                    {
                        "children": [],
                        "depth": -1,
                        "name": "Refunded Gas",
                        "value": 15000
                    }
                ],
                "depth": -2,
                "name": "Total Gas",
                "value": 52492
            }
        ],
        "isConfirmed": true,
        "mainTrace": [
            {
                "children": [
                    {
                        "children": [
                            {
                                "children": [],
                                "depth": 1,
                                "id": 1,
                                "order": 1
                            }
                        ],
                        "depth": 0,
                        "id": 0,
                        "order": 0
                    }
                ],
                "depth": -1,
                "id": -1,
                "order": -1
            }
        ],
        "mainTraceNodeCount": 2,
        "parentIdMap": {
            "0": -1,
            "1": 0
        },
        "tidyTrace": [
            {
                "children": [
                    {
                        "children": [
                            {
                                "children": [],
                                "depth": 1,
                                "id": 1,
                                "order": 1
                            }
                        ],
                        "depth": 0,
                        "id": 0,
                        "order": 0
                    }
                ],
                "depth": -1,
                "id": -1,
                "order": -1
            }
        ],
        "tidyTraceNodeCount": 2
    },
    "state_change": {
        "stateChanges": [
            {
                "address": "0xb363a3c584b1f379c79fbf09df015da5529d4dac",
                "erc": "ERC-20",
                "slots": [
                    {
                        "current": "0x0000000000000000000000000000000000000000000000000000000000000000",
                        "key": "0xaa9d75c91996941d8625d67d6e8ece90fd9cda4d7581cdb94095bdebb6ef620b",
                        "prev": "0x000000000000000000000000000000000000000000000003cb71f51fc5580000"
                    },
                    {
                        "current": "0x000000000000000000000000000000000000000000000003cb71f51fc5580000",
                        "key": "0xddc56a43041185a98ed4056c66a7a272a3b43d524a1fa32e0297a072b97bf2fe",
                        "prev": "0x0000000000000000000000000000000000000000000000000000000000000000"
                    }
                ],
                "storageVariables": [
                    {
                        "name": "contributions",
                        "type": "mapping(address => uint256)",
                        "value": {
                            "pairs": [
                                {
                                    "key": "0x61293cb09dee99357c2e5688e1c8208feca4c60d",
                                    "value": {
                                        "current": "70000000000000000000",
                                        "prev": "0",
                                        "typeTag": 1
                                    }
                                }
                            ],
                            "typeTag": 4
                        }
                    },
                    {
                        "name": "balances",
                        "type": "mapping(address => uint256)",
                        "value": {
                            "pairs": [
                                {
                                    "key": "0x61293cb09dee99357c2e5688e1c8208feca4c60d",
                                    "value": {
                                        "current": "0",
                                        "prev": "70000000000000000000",
                                        "typeTag": 1
                                    }
                                }
                            ],
                            "typeTag": 4
                        }
                    }
                ]
            }
        ]
    }
}