{
    "balance_change": {
        "balanceChanges": [
            {
                "account": "0x1f380f109bf4176abd3670222d3c7ea6aa924d88",
                "assets": [
                    {
                        "address": "0xeeeeeeeeeeeeeeeeeeeeeeeeeeeeeeeeeeeeeeee",
                        "amount": "0.00598",
                        "iconUrl": "https://assets.blocksec.com/image/1663669189317-3.png",
                        "isERC1155": false,
                        "isERC721": false,
                        "sign": false,
                        "value": "14.74709678"
                    },
                    {
                        "address": "0x990f341946a3fdb507ae7e52d17851b87168017c",
                        "amount": "10",
                        "iconUrl": "",
                        "isERC1155": false,
                        "isERC721": false,
                        "sign": false,
                        "value": "1380.308094"
                    }
                ]
            },
            {
                "account": "0x4b5057b2c87ec9e7c047fb00c0e406dff2fdacad",
                "assets": [
                    {
                        "address": "0xeeeeeeeeeeeeeeeeeeeeeeeeeeeeeeeeeeeeeeee",
                        "amount": "0.00598",
                        "iconUrl": "https://assets.blocksec.com/image/1663669189317-3.png",
                        "isERC1155": false,
                        "isERC721": false,
                        "sign": true,
                        "value": "14.74709678"
                    },
                    {
                        "address": "0x990f341946a3fdb507ae7e52d17851b87168017c",
                        "amount": "10",
                        "iconUrl": "",
                        "isERC1155": false,
                        "isERC721": false,
                        "sign": true,
                        "value": "1380.308094"
                    }
                ]
            }
        ]
    },
    "profile": {
        "basic_info": {
            "baseFee": "",
            "blockNumber": 12613796,
            "callData": "0x05eec2890000000000000000000000000000000000000000000000000000000000000001",
            "debugEnable": true,
            "errorInfo": "",
            "eventCount": 4,
            "feeRecipient": "0x5a0b54d5dc17e0aadc383d2db43b0a0d3e029c4c",
            "formatValue": "0.00598",
            "gasLimit": 223248,
            "gasPrice": "20",
            "gasUsed": 129192,
            "intTxnCount": 4,
            "internalRevert": false,
            "internalRevertMessage": "",
            "isContractCreation": false,
            "isFlashloan": false,
            "maxFee": "",
            "nonce": 30,
            "overwritedBlockNumber": -1,
            "priorityFee": "",
            "receiver": "0xfbddadd80fe7bda00b901fbaf73803f2238ae655",
            "revertMessage": "",
            "sender": "0x1f380f109bf4176abd3670222d3c7ea6aa924d88",
            "simulationEnable": true,
            "sourceTxnHash": "0x26bfecc6fd1ce75b12257cff0c8b2d7e963d91bab68051d5dd8bf0f4b21211db",
            "status": true,
            "timestamp": "2021-06-11T14:26:36Z",
            "transactionFee": "0.00258384",
            "txnHash": "0x26bfecc6fd1ce75b12257cff0c8b2d7e963d91bab68051d5dd8bf0f4b21211db",
            "txnIndex": 44,
            "type": 0,
            "value": "5980000000000000"
        },
        "fund_flow": [
            {
                "amount": "0.00598",
                "from": "0x1f380f109bf4176abd3670222d3c7ea6aa924d88",
                "id": 1,
                "isERC1155": false,
                "isERC721": false,
                "isReverted": false,
                "order": 1,
                "to": "0xfbddadd80fe7bda00b901fbaf73803f2238ae655",
                "token": "0xeeeeeeeeeeeeeeeeeeeeeeeeeeeeeeeeeeeeeeee"
            },
            {
                "amount": "0.00598",
                "from": "0xfbddadd80fe7bda00b901fbaf73803f2238ae655",
                "id": 2,
                "isERC1155": false,
                "isERC721": false,
                "isReverted": false,
                "order": 2,
                "to": "0x4b5057b2c87ec9e7c047fb00c0e406dff2fdacad",
                "token": "0xeeeeeeeeeeeeeeeeeeeeeeeeeeeeeeeeeeeeeeee"
            },
            {
                "amount": "10",
                "from": "0x1f380f109bf4176abd3670222d3c7ea6aa924d88",
                "id": 3,
                "isERC1155": false,
                "isERC721": false,
                "isReverted": false,
                "order": 3,
                "to": "0xfbddadd80fe7bda00b901fbaf73803f2238ae655",
                "token": "0x990f341946a3fdb507ae7e52d17851b87168017c"
            },
            {
                "amount": "10",
                "from": "0xfbddadd80fe7bda00b901fbaf73803f2238ae655",
                "id": 4,
                "isERC1155": false,
                "isERC721": false,
                "isReverted": false,
                "order": 4,
                "to": "0x4b5057b2c87ec9e7c047fb00c0e406dff2fdacad",
                "token": "0x990f341946a3fdb507ae7e52d17851b87168017c"
            }
        ],
        "token_infos": [
            {
                "address": "0x990f341946a3fdb507ae7e52d17851b87168017c",
                "decimals": 18
            },
            {
                "address": "0xc02aaa39b223fe8d0a0e5c4f27ead9083c756cc2",
                "decimals": 18
            },
            {
                "address": "0xeeeeeeeeeeeeeeeeeeeeeeeeeeeeeeeeeeeeeeee",
                "decimals": 18
            }
        ]
    },
    "address_label": {
        "labels": [
            {
                "address": "0x990f341946a3fdb507ae7e52d17851b87168017c",
                "label": "StrongBlock: STRONG Token"
            },
            {
                "address": "0x013c66b6734f6af43b9ee2e8a8bc5138f9ae5557",
                "label": "ServiceV14"
            },
            {
                "address": "0xfbddadd80fe7bda00b901fbaf73803f2238ae655",
                "label": "StrongBlock: Service"
            },
            {
                "address": "0x0000000000000000000000000000000000000001",
                "label": "Precompiled"
            },
            {
                "address": "0x0000000000000000000000000000000000000002",
                "label": "Precompiled"
            },
            {
                "address": "0x0000000000000000000000000000000000000003",
                "label": "Precompiled"
            },
            {
                "address": "0x0000000000000000000000000000000000000004",
                "label": "Precompiled"
            },
            {
                "address": "0xeeeeeeeeeeeeeeeeeeeeeeeeeeeeeeeeeeeeeeee",
                "label": "Ether"
            }
        ]
    },
    "trace": {
        "accountLabels": null,
        "dataMap": {
            "-1": {
                "invocation": {
                    "address": "0x1f380f109bf4176abd3670222d3c7ea6aa924d88",
                    "callData": "",
                    "decodedMethod": null,
                    "errorInfo": "",
                    "fromAddress": "",
                    "gasUsed": 0,
                    "id": -1,
                    "methodDecoded": false,
                    "operation": "",
                    "output": "",
                    "revert": false,
                    "revertMessage": "",
                    "selector": "",
                    "status": false,
                    "value": ""
                },
                "nodeType": 0
            },
            "0": {
                "invocation": {
                    "address": "0xfbddadd80fe7bda00b901fbaf73803f2238ae655",
                    "callData": "0x0000000000000000000000000000000000000000000000000000000000000001",
                    "decodedMethod": {
                        "callParams": [
                            {
                                "name": "isNaaS",
                                "type": "bool",
                                "value": true
                            }
                        ],
                        "constructorArguments": "",
                        "name": "requestAccess",
                        "returnParams": [],
                        "signature": "requestAccess(bool)"
                    },
                    "errorInfo": "",
                    "fromAddress": "0x1f380f109bf4176abd3670222d3c7ea6aa924d88",
                    "gasUsed": 129192,
                    "id": 0,
                    "methodDecoded": true,
                    "operation": "CALL",
                    "output": "",
                    "revert": false,
                    "revertMessage": "",
                    "selector": "0x05eec289",
                    "status": true,
                    "value": "0.00598"
                },
                "nodeType": 0
            },
            "1": {
                "invocation": {
                    "address": "0x013c66b6734f6af43b9ee2e8a8bc5138f9ae5557",
                    "callData": "0x0000000000000000000000000000000000000000000000000000000000000001",
                    "decodedMethod": {
                        "callParams": [
                            {
                                "name": "isNaaS",
                                "type": "bool",
                                "value": true
                            }
                        ],
                        "constructorArguments": "",
                        "name": "requestAccess",
                        "returnParams": [],
                        "signature": "requestAccess(bool)"
                    },
                    "errorInfo": "",
                    "fromAddress": "0xfbddadd80fe7bda00b901fbaf73803f2238ae655",
                    "gasUsed": 118515,
                    "id": 1,
                    "methodDecoded": true,
                    "operation": "DELEGATECALL",
                    "output": "",
                    "revert": false,
                    "revertMessage": "",
                    "selector": "0x05eec289",
                    "status": true,
                    "value": "0.00598"
                },
                "nodeType": 0
            },
            "2": {
                "invocation": {
                    "address": "0x4b5057b2c87ec9e7c047fb00c0e406dff2fdacad",
                    "callData": "0x",
                    "decodedMethod": null,
                    "errorInfo": "",
                    "fromAddress": "0xfbddadd80fe7bda00b901fbaf73803f2238ae655",
                    "gasUsed": 0,
                    "id": 2,
                    "methodDecoded": false,
                    "operation": "CALL",
                    "output": "",
                    "revert": false,
                    "revertMessage": "",
                    "selector": "fallback",
                    "status": true,
                    "value": "0.00598"
                },
                "nodeType": 0
            },
            "3": {
                "invocation": {
                    "address": "0x990f341946a3fdb507ae7e52d17851b87168017c",
                    "callData": "0x0000000000000000000000001f380f109bf4176abd3670222d3c7ea6aa924d88000000000000000000000000fbddadd80fe7bda00b901fbaf73803f2238ae6550000000000000000000000000000000000000000000000008ac7230489e80000",
                    "decodedMethod": {
                        "callParams": [
                            {
                                "name": "sender",
                                "type": "address",
                                "value": "0x1f380f109bf4176abd3670222d3c7ea6aa924d88"
                            },
                            {
                                "name": "recipient",
                                "type": "address",
                                "value": "0xfbddadd80fe7bda00b901fbaf73803f2238ae655"
                            },
                            {
                                "decimalAvailable": true,
                                "name": "amount",
                                "type": "uint256",
                                "value": "10,000,000,000,000,000,000"
                            }
                        ],
                        "constructorArguments": "",
                        "name": "transferFrom",
                        "returnParams": [
                            {
                                "name": "",
                                "type": "bool",
                                "value": true
                            }
                        ],
                        "signature": "transferFrom(address,address,uint256)"
                    },
                    "errorInfo": "",
                    "fromAddress": "0xfbddadd80fe7bda00b901fbaf73803f2238ae655",
                    "gasUsed": 20682,
                    "id": 3,
                    "methodDecoded": true,
                    "operation": "CALL",
                    "output": "0x0000000000000000000000000000000000000000000000000000000000000001",
                    "revert": false,
                    "revertMessage": "",
                    "selector": "0x23b872dd",
                    "status": true,
                    "value": "0"
                },
                "nodeType": 0
            },
            "4": {
                "event": {
                    "contract": "0x990f341946a3fdb507ae7e52d17851b87168017c",
                    "decodedLog": {
                        "name": "Transfer",
                        "params": [
                            {
                                "name": "from",
                                "type": "address",
                                "value": "0x1f380f109bf4176abd3670222d3c7ea6aa924d88"
                            },
                            {
                                "name": "to",
                                "type": "address",
                                "value": "0xfbddadd80fe7bda00b901fbaf73803f2238ae655"
                            },
                            {
                                "decimalAvailable": true,
                                "name": "value",
                                "type": "uint256",
                                "value": "10,000,000,000,000,000,000"
                            }
                        ],
                        "signature": "Transfer(address,address,uint256)"
                    },
                    "id": 4,
                    "logData": "0x0000000000000000000000000000000000000000000000008ac7230489e80000",
                    "logDecoded": true,
                    "operation": "EVENT",
                    "revert": false,
                    "status": true,
                    "topics": [
                        "0xddf252ad1be2c89b69c2b068fc378daa952ba7f163c4a11628f55a4df523b3ef",
                        "0x0000000000000000000000001f380f109bf4176abd3670222d3c7ea6aa924d88",
                        "0x000000000000000000000000fbddadd80fe7bda00b901fbaf73803f2238ae655"
                    ]
                },
                "nodeType": 1
            },
            "5": {
                "event": {
                    "contract": "0x990f341946a3fdb507ae7e52d17851b87168017c",
                    "decodedLog": {
                        "name": "Approval",
                        "params": [
                            {
                                "name": "owner",
                                "type": "address",
                                "value": "0x1f380f109bf4176abd3670222d3c7ea6aa924d88"
                            },
                            {
                                "name": "spender",
                                "type": "address",
                                "value": "0xfbddadd80fe7bda00b901fbaf73803f2238ae655"
                            },
                            {
                                "decimalAvailable": true,
                                "name": "value",
                                "type": "uint256",
                                "value": "0"
                            }
                        ],
                        "signature": "Approval(address,address,uint256)"
                    },
                    "id": 5,
                    "logData": "0x0000000000000000000000000000000000000000000000000000000000000000",
                    "logDecoded": true,
                    "operation": "EVENT",
                    "revert": false,
                    "status": true,
                    "topics": [
                        "0x8c5be1e5ebec7d5bd14f71427d1e84f3dd0314c0f7b2291e5b200ac8c7c3b925",
                        "0x0000000000000000000000001f380f109bf4176abd3670222d3c7ea6aa924d88",
                        "0x000000000000000000000000fbddadd80fe7bda00b901fbaf73803f2238ae655"
                    ]
                },
                "nodeType": 1
            },
            "6": {
                "invocation": {
                    "address": "0x990f341946a3fdb507ae7e52d17851b87168017c",
                    "callData": "0x0000000000000000000000004b5057b2c87ec9e7c047fb00c0e406dff2fdacad0000000000000000000000000000000000000000000000008ac7230489e80000",
                    "decodedMethod": {
                        "callParams": [
                            {
                                "name": "recipient",
                                "type": "address",
                                "value": "0x4b5057b2c87ec9e7c047fb00c0e406dff2fdacad"
                            },
                            {
                                "decimalAvailable": true,
                                "name": "amount",
                                "type": "uint256",
                                "value": "10,000,000,000,000,000,000"
                            }
                        ],
                        "constructorArguments": "",
                        "name": "transfer",
                        "returnParams": [
                            {
                                "name": "",
                                "type": "bool",
                                "value": true
                            }
                        ],
                        "signature": "transfer(address,uint256)"
                    },
                    "errorInfo": "",
                    "fromAddress": "0xfbddadd80fe7bda00b901fbaf73803f2238ae655",
                    "gasUsed": 8329,
                    "id": 6,
                    "methodDecoded": true,
                    "operation": "CALL",
                    "output": "0x0000000000000000000000000000000000000000000000000000000000000001",
                    "revert": false,
                    "revertMessage": "",
                    "selector": "0xa9059cbb",
                    "status": true,
                    "value": "0"
                },
                "nodeType": 0
            },
            "7": {
                "event": {
                    "contract": "0x990f341946a3fdb507ae7e52d17851b87168017c",
                    "decodedLog": {
                        "name": "Transfer",
                        "params": [
                            {
                                "name": "from",
                                "type": "address",
                                "value": "0xfbddadd80fe7bda00b901fbaf73803f2238ae655"
                            },
                            {
                                "name": "to",
                                "type": "address",
                                "value": "0x4b5057b2c87ec9e7c047fb00c0e406dff2fdacad"
                            },
                            {
                                "decimalAvailable": true,
                                "name": "value",
                                "type": "uint256",
                                "value": "10,000,000,000,000,000,000"
                            }
                        ],
                        "signature": "Transfer(address,address,uint256)"
                    },
                    "id": 7,
                    "logData": "0x0000000000000000000000000000000000000000000000008ac7230489e80000",
                    "logDecoded": true,
                    "operation": "EVENT",
                    "revert": false,
                    "status": true,
                    "topics": [
                        "0xddf252ad1be2c89b69c2b068fc378daa952ba7f163c4a11628f55a4df523b3ef",
                        "0x000000000000000000000000fbddadd80fe7bda00b901fbaf73803f2238ae655",
                        "0x0000000000000000000000004b5057b2c87ec9e7c047fb00c0e406dff2fdacad"
                    ]
                },
                "nodeType": 1
            },
            "8": {
                "event": {
                    "contract": "0xfbddadd80fe7bda00b901fbaf73803f2238ae655",
                    "decodedLog": {
                        "name": "Paid",
                        "params": [
                            {
                                "name": "entity",
                                "type": "address",
                                "value": "0x1f380f109bf4176abd3670222d3c7ea6aa924d88"
                            },
                            {
                                "name": "nodeId",
                                "type": "uint128",
                                "value": "7"
                            },
                            {
                                "name": "isBYON",
                                "type": "bool",
                                "value": false
                            },
                            {
                                "name": "isRenewal",
                                "type": "bool",
                                "value": false
                            },
                            {
                                "name": "upToBlockNumber",
                                "type": "uint256",
                                "value": "12,811,844"
                            }
                        ],
                        "signature": "Paid(address,uint128,bool,bool,uint256)"
                    },
                    "id": 8,
                    "logData": "0x0000000000000000000000000000000000000000000000000000000000000007000000000000000000000000000000000000000000000000000000000000000000000000000000000000000000000000000000000000000000000000000000000000000000000000000000000000000000000000000000000000000000c37e44",
                    "logDecoded": true,
                    "operation": "EVENT",
                    "revert": false,
                    "status": true,
                    "topics": [
                        "0x39b0a0620bb668047ab7248973ddfd93d53dff1d4952bd2d56bbf5934edc1fd0",
                        "0x0000000000000000000000001f380f109bf4176abd3670222d3c7ea6aa924d88"
                    ]
                },
                "nodeType": 1
            }
        },
        "gasFlame": [
            {
                "children": [
                    {
                        "children": [
                            {
                                "children": [],
                                "depth": 0,
                                "name": "Initial Gas",
                                "value": 21204
                            },
                            {
                                "children": [
                                    {
                                        "children": [
                                            {
                                                "children": [],
                                                "depth": 2,
                                                "name": "fallback",
                                                "value": 0
                                            },
                                            {
                                                "children": [],
                                                "depth": 2,
                                                "name": "transferFrom",
                                                "value": 20682
                                            },
                                            {
                                                "children": [],
                                                "depth": 2,
                                                "name": "transfer",
                                                "value": 8329
                                            }
                                        ],
                                        "depth": 1,
                                        "name": "requestAccess",
                                        "value": 118515
                                    }
                                ],
                                "depth": 0,
                                "name": "Executed Gas",
                                "value": 125788
                            }
                        ],
                        "depth": -1,
                        "name": "Actual Gas Used",
                        "value": 129192
                    },
                    {
                        "children": [],
                        "depth": -1,
                        "name": "Refunded Gas",
                        "value": 17800
                    }
                ],
                "depth": -2,
                "name": "Total Gas",
                "value": 146992
            }
        ],
        "isConfirmed": true,
        "mainTrace": [
            {
                "children": [
                    {
                        "children": [
                            {
                                "children": [
                                    {
                                        "children": [],
                                        "depth": 2,
                                        "id": 2,
                                        "order": 2
                                    },
                                    {
                                        "children": [
                                            {
                                                "children": [],
                                                "depth": 3,
                                                "id": 4,
                                                "order": 4
                                            },
                                            {
                                                "children": [],
                                                "depth": 3,
                                                "id": 5,
                                                "order": 5
                                            }
                                        ],
                                        "depth": 2,
                                        "id": 3,
                                        "order": 3
                                    },
                                    {
                                        "children": [
                                            {
                                                "children": [],
                                                "depth": 3,
                                                "id": 7,
                                                "order": 7
                                            }
                                        ],
                                        "depth": 2,
                                        "id": 6,
                                        "order": 6
                                    },
                                    {
                                        "children": [],
                                        "depth": 2,
                                        "id": 8,
                                        "order": 8
                                    }
                                ],
                                "depth": 1,
                                "id": 1,
                                "order": 1
                            }
                        ],
                        "depth": 0,
                        "id": 0,
                        "order": 0
                    }
                ],
                "depth": -1,
                "id": -1,
                "order": -1
            }
        ],
        "mainTraceNodeCount": 9,
        "parentIdMap": {
            "0": -1,
            "1": 0,
            "2": 1,
            "3": 1,
            "4": 3,
            "5": 3,
            "6": 1,
            "7": 6,
            "8": 1
        },
        "tidyTrace": [
            {
                "children": [
                    {
                        "children": [
                            {
                                "children": [
                                    {
                                        "children": [],
                                        "depth": 2,
                                        "id": 2,
                                        "order": 2
                                    },
                                    {
                                        "children": [
                                            {
                                                "children": [],
                                                "depth": 3,
                                                "id": 4,
                                                "order": 4
                                            },
                                            {
                                                "children": [],
                                                "depth": 3,
                                                "id": 5,
                                                "order": 5
                                            }
                                        ],
                                        "depth": 2,
                                        "id": 3,
                                        "order": 3
                                    },
                                    {
                                        "children": [
                                            {
                                                "children": [],
                                                "depth": 3,
                                                "id": 7,
                                                "order": 7
                                            }
                                        ],
                                        "depth": 2,
                                        "id": 6,
                                        "order": 6
                                    },
                                    {
                                        "children": [],
                                        "depth": 2,
                                        "id": 8,
                                        "order": 8
                                    }
                                ],
                                "depth": 1,
                                "id": 1,
                                "order": 1
                            }
                        ],
                        "depth": 0,
                        "id": 0,
                        "order": 0
                    }
                ],
                "depth": -1,
                "id": -1,
                "order": -1
            }
        ],
        "tidyTraceNodeCount": 9
    },
    "state_change": {
        "stateChanges": [
            {
                "address": "0x990f341946a3fdb507ae7e52d17851b87168017c",
                "erc": "ERC-20",
                "slots": [
                    {
                        "current": "0x000000000000000000000000000000000000000000000005486b79d468ae4fd3",
                        "key": "0x9abadcb66f99434742c6b645dc17e741cf605a9dde866b5790a265f4ec3abf6b",
                        "prev": "0x000000000000000000000000000000000000000000000005d3329cd8f2964fd3"
                    },
                    {
                        "current": "0x0000000000000000000000000000000000000000000000000000000000000000",
                        "key": "0xf62ed4157fd92c3303ec38f1149c717381aafef628e62a05e2d454caa0b4df59",
                        "prev": "0x0000000000000000000000000000000000000000000000008ac7230489e80000"
                    },
                    {
                        "current": "0x0000000000000000000000000000000000000000000001dae16bd387e5e00000",
                        "key": "0x22f3bb6e20228ff9506aa44e728a5be8a0649cc4d1d1527f930e3f6e6229c633",
                        "prev": "0x0000000000000000000000000000000000000000000001da56a4b0835bf80000"
                    }
                ],
                "storageVariables": [
                    {
                        "name": "_balances",
                        "type": "mapping(address => uint256)",
                        "value": {
                            "pairs": [
                                {
                                    "key": "0x1f380f109bf4176abd3670222d3c7ea6aa924d88",
                                    "value": {
                                        "current": "97452118914982891475",
                                        "prev": "107452118914982891475",
                                        "typeTag": 1
                                    }
                                },
                                {
                                    "key": "0x4b5057b2c87ec9e7c047fb00c0e406dff2fdacad",
                                    "value": {
                                        "current": "8760000000000000000000",
                                        "prev": "8750000000000000000000",
                                        "typeTag": 1
                                    }
                                }
                            ],
                            "typeTag": 4
                        }
                    },
                    {
                        "name": "_allowances",
                        "type": "mapping(address => mapping(address => uint256))",
                        "value": {
                            "pairs": [
                                {
                                    "key": "0x1f380f109bf4176abd3670222d3c7ea6aa924d88",
                                    "value": {
                                        "pairs": [
                                            {
                                                "key": "0xfbddadd80fe7bda00b901fbaf73803f2238ae655",
                                                "value": {
                                                    "current": "0",
                                                    "prev": "10000000000000000000",
                                                    "typeTag": 1
                                                }
                                            }
                                        ],
                                        "typeTag": 4
                                    }
                                }
                            ],
                            "typeTag": 4
                        }
                    }
                ]
            },
            {
                "address": "0xfbddadd80fe7bda00b901fbaf73803f2238ae655",
                "erc": "",
                "slots": [
                    {
                        "current": "0x0000000000000000000000000000000000000000000000000000000000008bd3",
                        "key": "0x000000000000000000000000000000000000000000000000000000000000001c",
                        "prev": "0x0000000000000000000000000000000000000000000000000000000000008bd2"
                    },
                    {
                        "current": "0x0000000000000000000000000000000000000000000000000000000000c078a4",
                        "key": "0xe6a056705824539a6c6f4d8090d8dfb6f1a58f5a4ea054450c418bc917167bb7",
                        "prev": "0x0000000000000000000000000000000000000000000000000000000000000000"
                    },
                    {
                        "current": "0x0000000000000000000000000000000000000000000000000000000000c078a4",
                        "key": "0xfe7bff188f4412a73d246a3a76ceee7e60934e3632df296cf002af691a24113e",
                        "prev": "0x0000000000000000000000000000000000000000000000000000000000000000"
                    },
                    {
                        "current": "0x0000000000000000000000000000000000000000000000000000000000000007",
                        "key": "0xc87511d1c825a98ecb53c4ae6cfd68fdb57d8eddb2b5f114fb0c3f1bae6969f3",
                        "prev": "0x0000000000000000000000000000000000000000000000000000000000000006"
                    }
                ],
                "storageVariables": [
                    {
                        "name": "activeEntities",
                        "type": "uint256",
                        "value": {
                            "current": "35795",
                            "prev": "35794",
                            "typeTag": 1
                        }
                    },
                    {
                        "name": "entityNodePaidOnBlock",
                        "type": "mapping(bytes => uint256)",
                        "value": {
                            "pairs": [
                                {
                                    "key": "0x1f380f109bf4176abd3670222d3c7ea6aa924d8800000000000000000000000000000007",
                                    "value": {
                                        "current": "12613796",
                                        "prev": "0",
                                        "typeTag": 1
                                    }
                                }
                            ],
                            "typeTag": 4
                        }
                    },
                    {
                        "name": "entityNodeClaimedOnBlock",
                        "type": "mapping(bytes => uint256)",
                        "value": {
                            "pairs": [
                                {
                                    "key": "0x1f380f109bf4176abd3670222d3c7ea6aa924d8800000000000000000000000000000007",
                                    "value": {
                                        "current": "12613796",
                                        "prev": "0",
                                        "typeTag": 1
                                    }
                                }
                            ],
                            "typeTag": 4
                        }
                    },
                    {
                        "name": "entityNodeCount",
                        "type": "mapping(address => uint128)",
                        "value": {
                            "pairs": [
                                {
                                    "key": "0x1f380f109bf4176abd3670222d3c7ea6aa924d88",
                                    "value": {
                                        "current": "7",
                                        "prev": "6",
                                        "typeTag": 1
                                    }
                                }
                            ],
                            "typeTag": 4
                        }
                    }
                ]
            }
        ]
    }
}