{
    "balance_change": {
        "balanceChanges": [
            {
                "account": "0x3b6a1a58f14f21994251039e85159a89bf90a295",
                "assets": [
                    {
                        "address": "0x54f0e3b0d7ccbb65e56d166350aa86f7e71ce20b",
                        "amount": "2,942.82759999999967232",
                        "iconUrl": "",
                        "isERC1155": false,
                        "isERC721": false,
                        "sign": false,
                        "value": ""
                    }
                ]
            },
            {
                "account": "0x259fbb154734cfcc93671c7875eb454b22772bdf",
                "assets": [
                    {
                        "address": "0x54f0e3b0d7ccbb65e56d166350aa86f7e71ce20b",
                        "amount": "2,942.82759999999967232",
                        "iconUrl": "",
                        "isERC1155": false,
                        "isERC721": false,
                        "sign": true,
                        "value": ""
                    }
                ]
            }
        ]
    },
    "profile": {
        "basic_info": {
            "baseFee": "",
            "blockNumber": 7086291,
            "callData": "0xa9059cbb000000000000000000000000259fbb154734cfcc93671c7875eb454b22772bdf00000000000000000000000000000000000000000000009f87efde6e5f500000",
            "debugEnable": true,
            "errorInfo": "",
            "eventCount": 1,
            "feeRecipient": "0x52e44f279f4203dcf680395379e5f9990a69f13c",
            "formatValue": "0",
            "gasLimit": 60000,
            "gasPrice": "17",
            "gasUsed": 39380,
            "intTxnCount": 0,
            "internalRevert": false,
            "internalRevertMessage": "",
            "isContractCreation": false,
            "isFlashloan": false,
            "maxFee": "",
            "nonce": 6566,
            "overwritedBlockNumber": -1,
            "priorityFee": "",
            "receiver": "0x54f0e3b0d7ccbb65e56d166350aa86f7e71ce20b",
            "revertMessage": "",
            "sender": "0x3b6a1a58f14f21994251039e85159a89bf90a295",
            "simulationEnable": true,
            "sourceTxnHash": "0x26279d16652cb6684890cd9180d0cb5f2753753c4259c7aa8bfde4e89b1f9d01",
            "status": true,
            "timestamp": "2019-01-18T08:52:31Z",
            "transactionFee": "0.00066946",
            "txnHash": "0x26279d16652cb6684890cd9180d0cb5f2753753c4259c7aa8bfde4e89b1f9d01",
            "txnIndex": 7,
            "type": 0,
            "value": "0"
        },
        "fund_flow": [
            {
                "amount": "2,942.82759999999967232",
                "from": "0x3b6a1a58f14f21994251039e85159a89bf90a295",
                "id": 1,
                "isERC1155": false,
                "isERC721": false,
                "isReverted": false,
                "order": 1,
                "to": "0x259fbb154734cfcc93671c7875eb454b22772bdf",
                "token": "0x54f0e3b0d7ccbb65e56d166350aa86f7e71ce20b"
            }
        ],
        "token_infos": [
            {
                "address": "0xeeeeeeeeeeeeeeeeeeeeeeeeeeeeeeeeeeeeeeee",
                "decimals": 18
            },
            {
                "address": "0x54f0e3b0d7ccbb65e56d166350aa86f7e71ce20b",
                "decimals": 18
            },
            {
                "address": "0xc02aaa39b223fe8d0a0e5c4f27ead9083c756cc2",
                "decimals": 18
            }
        ]
    },
    "address_label": {
        "labels": [
            {
                "address": "0x0000000000000000000000000000000000000002",
                "label": "Precompiled"
            },
            {
                "address": "0x0000000000000000000000000000000000000003",
                "label": "Precompiled"
            },
            {
                "address": "0x0000000000000000000000000000000000000004",
                "label": "Precompiled"
            },
            {
                "address": "0xeeeeeeeeeeeeeeeeeeeeeeeeeeeeeeeeeeeeeeee",
                "label": "Ether"
            },
            {
                "address": "0x54f0e3b0d7ccbb65e56d166350aa86f7e71ce20b",
                "label": "Veen Token"
            },
            {
                "address": "0x0000000000000000000000000000000000000001",
                "label": "Precompiled"
            }
        ]
    },
    "trace": {
        "accountLabels": null,
        "dataMap": {
            "-1": {
                "invocation": {
                    "address": "0x3b6a1a58f14f21994251039e85159a89bf90a295",
                    "callData": "",
                    "decodedMethod": null,
                    "errorInfo": "",
                    "fromAddress": "",
                    "gasUsed": 0,
                    "id": -1,
                    "methodDecoded": false,
                    "operation": "",
                    "output": "",
                    "revert": false,
                    "revertMessage": "",
                    "selector": "",
                    "status": false,
                    "value": ""
                },
                "nodeType": 0
            },
            "0": {
                "invocation": {
                    "address": "0x54f0e3b0d7ccbb65e56d166350aa86f7e71ce20b",
                    "callData": "0x000000000000000000000000259fbb154734cfcc93671c7875eb454b22772bdf00000000000000000000000000000000000000000000009f87efde6e5f500000",
                    "decodedMethod": {
                        "callParams": [
                            {
                                "name": "to",
                                "type": "address",
                                "value": "0x259fbb154734cfcc93671c7875eb454b22772bdf"
                            },
                            {
                                "decimalAvailable": true,
                                "name": "tokens",
                                "type": "uint256",
                                "value": "2,942,827,599,999,999,672,320"
                            }
                        ],
                        "constructorArguments": "",
                        "name": "transfer",
                        "returnParams": [
                            {
                                "name": "success",
                                "type": "bool",
                                "value": true
                            }
                        ],
                        "signature": "transfer(address,uint256)"
                    },
                    "errorInfo": "",
                    "fromAddress": "0x3b6a1a58f14f21994251039e85159a89bf90a295",
                    "gasUsed": 39380,
                    "id": 0,
                    "methodDecoded": true,
                    "operation": "CALL",
                    "output": "0x0000000000000000000000000000000000000000000000000000000000000001",
                    "revert": false,
                    "revertMessage": "",
                    "selector": "0xa9059cbb",
                    "status": true,
                    "value": "0"
                },
                "nodeType": 0
            },
            "1": {
                "event": {
                    "contract": "0x54f0e3b0d7ccbb65e56d166350aa86f7e71ce20b",
                    "decodedLog": {
                        "name": "Transfer",
                        "params": [
                            {
                                "name": "from",
                                "type": "address",
                                "value": "0x3b6a1a58f14f21994251039e85159a89bf90a295"
                            },
                            {
                                "name": "to",
                                "type": "address",
                                "value": "0x259fbb154734cfcc93671c7875eb454b22772bdf"
                            },
                            {
                                "decimalAvailable": true,
                                "name": "value",
                                "type": "uint256",
                                "value": "2,942,827,599,999,999,672,320"
                            }
                        ],
                        "signature": "Transfer(address,address,uint256)"
                    },
                    "id": 1,
                    "logData": "0x00000000000000000000000000000000000000000000009f87efde6e5f500000",
                    "logDecoded": true,
                    "operation": "EVENT",
                    "revert": false,
                    "status": true,
                    "topics": [
                        "0xddf252ad1be2c89b69c2b068fc378daa952ba7f163c4a11628f55a4df523b3ef",
                        "0x0000000000000000000000003b6a1a58f14f21994251039e85159a89bf90a295",
                        "0x000000000000000000000000259fbb154734cfcc93671c7875eb454b22772bdf"
                    ]
                },
                "nodeType": 1
            }
        },
        "gasFlame": [
            {
                "children": [
                    {
                        "children": [
                            {
                                "children": [],
                                "depth": 0,
                                "name": "Initial Gas",
                                "value": 23256
                            },
                            {
                                "children": [],
                                "depth": 0,
                                "name": "Executed Gas",
                                "value": 16124
                            }
                        ],
                        "depth": -1,
                        "name": "Actual Gas Used",
                        "value": 39380
                    },
                    {
                        "children": [],
                        "depth": -1,
                        "name": "Refunded Gas",
                        "value": 0
                    }
                ],
                "depth": -2,
                "name": "Total Gas",
                "value": 39380
            }
        ],
        "isConfirmed": true,
        "mainTrace": [
            {
                "children": [
                    {
                        "children": [
                            {
                                "children": [],
                                "depth": 1,
                                "id": 1,
                                "order": 1
                            }
                        ],
                        "depth": 0,
                        "id": 0,
                        "order": 0
                    }
                ],
                "depth": -1,
                "id": -1,
                "order": -1
            }
        ],
        "mainTraceNodeCount": 2,
        "parentIdMap": {
            "0": -1,
            "1": 0
        },
        "tidyTrace": [
            {
                "children": [
                    {
                        "children": [
                            {
                                "children": [],
                                "depth": 1,
                                "id": 1,
                                "order": 1
                            }
                        ],
                        "depth": 0,
                        "id": 0,
                        "order": 0
                    }
                ],
                "depth": -1,
                "id": -1,
                "order": -1
            }
        ],
        "tidyTraceNodeCount": 2
    },
    "state_change": {
        "stateChanges": [
            {
                "address": "0x54f0e3b0d7ccbb65e56d166350aa86f7e71ce20b",
                "erc": "ERC-20",
                "slots": [
                    {
                        "current": "0x0000000000000000000000000000000000000000000000f816d685b38b280000",
                        "key": "0x534d7451a3afed98fc2d773ef9d1a587158552b1379a7989e754f749cd12ffb4",
                        "prev": "0x0000000000000000000000000000000000000000000000588ee6a7452bd80000"
                    },
                    {
                        "current": "0x0000000000000000000000000000000000000000000468338f7b7d6e166aec00",
                        "key": "0x1caa49980f414a61124730200c6abeca6a835a2ed46c9329979a033cb89d88b0",
                        "prev": "0x0000000000000000000000000000000000000000000468d3176b5bdc75baec00"
                    }
                ],
                "storageVariables": [
                    {
                        "name": "_balances",
                        "type": "mapping(address => uint256)",
                        "value": {
                            "pairs": [
                                {
                                    "key": "0x259fbb154734cfcc93671c7875eb454b22772bdf",
                                    "value": {
                                        "current": "4576438179999999590400",
                                        "prev": "1633610579999999918080",
                                        "typeTag": 1
                                    }
                                },
                                {
                                    "key": "0x3b6a1a58f14f21994251039e85159a89bf90a295",
                                    "value": {
                                        "current": "5327780515620000323267584",
                                        "prev": "5330723343220000322939904",
                                        "typeTag": 1
                                    }
                                }
                            ],
                            "typeTag": 4
                        }
                    }
                ]
            }
        ]
    }
}