{
    "balance_change": {
        "balanceChanges": []
    },
    "profile": {
        "basic_info": {
            "baseFee": "",
            "blockNumber": 9866274,
            "callData": "0x71b773440000000000000000000000000000000000000000000000000000000000000040000000000000000000000000000000000000000000000000000000005e949ea900000000000000000000000000000000000000000000000000000000000000417b4a74927e4658221b9a86bcb94b39438631a4349687f590cb8c2157a884ee144f0f57a39e127150fabc79c4b2ce344ee1143147eca3368000a4f27c6115768b0000000000000000000000000000000000000000000000000000000000000000",
            "debugEnable": true,
            "errorInfo": "",
            "eventCount": 1,
            "feeRecipient": "0x5a0b54d5dc17e0aadc383d2db43b0a0d3e029c4c",
            "formatValue": "0",
            "gasLimit": 54947,
            "gasPrice": "1",
            "gasUsed": 39248,
            "intTxnCount": 1,
            "internalRevert": false,
            "internalRevertMessage": "",
            "isContractCreation": false,
            "isFlashloan": false,
            "maxFee": "",
            "nonce": 237,
            "overwritedBlockNumber": -1,
            "priorityFee": "",
            "receiver": "0x5e07b6f1b98a11f7e04e7ffa8707b63f1c177753",
            "revertMessage": "",
            "sender": "0x3ac4d925e68c00be698d668c57cf246c8f8bc08f",
            "simulationEnable": true,
            "sourceTxnHash": "0x26ead51d242be07536c0f9c889eb5f35c64535b0638a0bf3447903dbbc84d5c2",
            "status": true,
            "timestamp": "2020-04-13T20:50:40Z",
            "transactionFee": "0.000039248",
            "txnHash": "0x26ead51d242be07536c0f9c889eb5f35c64535b0638a0bf3447903dbbc84d5c2",
            "txnIndex": 20,
            "type": 0,
            "value": "0"
        },
        "fund_flow": [],
        "token_infos": [
            {
                "address": "0xc02aaa39b223fe8d0a0e5c4f27ead9083c756cc2",
                "decimals": 18
            },
            {
                "address": "0xeeeeeeeeeeeeeeeeeeeeeeeeeeeeeeeeeeeeeeee",
                "decimals": 18
            }
        ]
    },
    "address_label": {
        "labels": [
            {
                "address": "0x5e07b6f1b98a11f7e04e7ffa8707b63f1c177753",
                "label": "MCH: Daily Action 3"
            },
            {
                "address": "0x0000000000000000000000000000000000000001",
                "label": "Precompiled"
            },
            {
                "address": "0x0000000000000000000000000000000000000002",
                "label": "Precompiled"
            },
            {
                "address": "0x0000000000000000000000000000000000000003",
                "label": "Precompiled"
            },
            {
                "address": "0x0000000000000000000000000000000000000004",
                "label": "Precompiled"
            },
            {
                "address": "0xeeeeeeeeeeeeeeeeeeeeeeeeeeeeeeeeeeeeeeee",
                "label": "Ether"
            }
        ]
    },
    "trace": {
        "accountLabels": null,
        "dataMap": {
            "-1": {
                "invocation": {
                    "address": "0x3ac4d925e68c00be698d668c57cf246c8f8bc08f",
                    "callData": "",
                    "decodedMethod": null,
                    "errorInfo": "",
                    "fromAddress": "",
                    "gasUsed": 0,
                    "id": -1,
                    "methodDecoded": false,
                    "operation": "",
                    "output": "",
                    "revert": false,
                    "revertMessage": "",
                    "selector": "",
                    "status": false,
                    "value": ""
                },
                "nodeType": 0
            },
            "0": {
                "invocation": {
                    "address": "0x5e07b6f1b98a11f7e04e7ffa8707b63f1c177753",
                    "callData": "0x0000000000000000000000000000000000000000000000000000000000000040000000000000000000000000000000000000000000000000000000005e949ea900000000000000000000000000000000000000000000000000000000000000417b4a74927e4658221b9a86bcb94b39438631a4349687f590cb8c2157a884ee144f0f57a39e127150fabc79c4b2ce344ee1143147eca3368000a4f27c6115768b0000000000000000000000000000000000000000000000000000000000000000",
                    "decodedMethod": {
                        "callParams": [
                            {
                                "name": "_signature",
                                "type": "bytes",
                                "value": "0x7b4a74927e4658221b9a86bcb94b39438631a4349687f590cb8c2157a884ee144f0f57a39e127150fabc79c4b2ce344ee1143147eca3368000a4f27c6115768b00"
                            },
                            {
                                "name": "_time",
                                "type": "int64",
                                "value": "1,586,798,249"
                            }
                        ],
                        "constructorArguments": "",
                        "name": "requestDailyActionReward",
                        "returnParams": [],
                        "signature": "requestDailyActionReward(bytes,int64)"
                    },
                    "errorInfo": "",
                    "fromAddress": "0x3ac4d925e68c00be698d668c57cf246c8f8bc08f",
                    "gasUsed": 39248,
                    "id": 0,
                    "methodDecoded": true,
                    "operation": "CALL",
                    "output": "",
                    "revert": false,
                    "revertMessage": "",
                    "selector": "0x71b77344",
                    "status": true,
                    "value": "0"
                },
                "nodeType": 0
            },
            "1": {
                "invocation": {
                    "address": "0x0000000000000000000000000000000000000001",
                    "callData": "0x2c1aa48b60afeef2e0345d29e01a1a6bd2346de0b4c6cd23c4dd2256000000000000000000000000000000000000000000000000000000000000001b7b4a74927e4658221b9a86bcb94b39438631a4349687f590cb8c2157a884ee144f0f57a39e127150fabc79c4b2ce344ee1143147eca3368000a4f27c6115768b",
                    "decodedMethod": {
                        "callParams": [
                            {
                                "name": "hash",
                                "type": "bytes32",
                                "value": "0x5acb07032c1aa48b60afeef2e0345d29e01a1a6bd2346de0b4c6cd23c4dd2256"
                            },
                            {
                                "name": "v",
                                "type": "uint256",
                                "value": "27"
                            },
                            {
                                "name": "r",
                                "type": "bytes32",
                                "value": "0x7b4a74927e4658221b9a86bcb94b39438631a4349687f590cb8c2157a884ee14"
                            },
                            {
                                "name": "s",
                                "type": "bytes32",
                                "value": "0x4f0f57a39e127150fabc79c4b2ce344ee1143147eca3368000a4f27c6115768b"
                            }
                        ],
                        "constructorArguments": "",
                        "name": "ecrecover",
                        "returnParams": [
                            {
                                "name": "",
                                "type": "address",
                                "value": "0x984e7b0f2cb06b847dd465eec65a3a41c1e27c06"
                            }
                        ],
                        "signature": "ecrecover(bytes32,uint256,bytes32,bytes32)"
                    },
                    "errorInfo": "",
                    "fromAddress": "0x5e07b6f1b98a11f7e04e7ffa8707b63f1c177753",
                    "gasUsed": 3000,
                    "id": 1,
                    "methodDecoded": true,
                    "operation": "STATICCALL",
                    "output": "0x000000000000000000000000984e7b0f2cb06b847dd465eec65a3a41c1e27c06",
                    "revert": false,
                    "revertMessage": "",
                    "selector": "0x5acb0703",
                    "status": true,
                    "value": "0"
                },
                "nodeType": 0
            },
            "2": {
                "event": {
                    "contract": "0x5e07b6f1b98a11f7e04e7ffa8707b63f1c177753",
                    "decodedLog": {
                        "name": "Action",
                        "params": [
                            {
                                "name": "user",
                                "type": "address",
                                "value": "0x3ac4d925e68c00be698d668c57cf246c8f8bc08f"
                            },
                            {
                                "name": "at",
                                "type": "int64",
                                "value": "1,586,798,249"
                            }
                        ],
                        "signature": "Action(address,int64)"
                    },
                    "id": 2,
                    "logData": "0x000000000000000000000000000000000000000000000000000000005e949ea9",
                    "logDecoded": true,
                    "operation": "EVENT",
                    "revert": false,
                    "status": true,
                    "topics": [
                        "0x708861da4aa6afa7c59ec1b6595bfacef3b852515c06faafba359c70bc640e8c",
                        "0x0000000000000000000000003ac4d925e68c00be698d668c57cf246c8f8bc08f"
                    ]
                },
                "nodeType": 1
            }
        },
        "gasFlame": [
            {
                "children": [
                    {
                        "children": [
                            {
                                "children": [],
                                "depth": 0,
                                "name": "Initial Gas",
                                "value": 22660
                            },
                            {
                                "children": [
                                    {
                                        "children": [],
                                        "depth": 1,
                                        "name": "ecrecover",
                                        "value": 3000
                                    }
                                ],
                                "depth": 0,
                                "name": "Executed Gas",
                                "value": 16588
                            }
                        ],
                        "depth": -1,
                        "name": "Actual Gas Used",
                        "value": 39248
                    },
                    {
                        "children": [],
                        "depth": -1,
                        "name": "Refunded Gas",
                        "value": 0
                    }
                ],
                "depth": -2,
                "name": "Total Gas",
                "value": 39248
            }
        ],
        "isConfirmed": true,
        "mainTrace": [
            {
                "children": [
                    {
                        "children": [
                            {
                                "children": [],
                                "depth": 1,
                                "id": 1,
                                "order": 1
                            },
                            {
                                "children": [],
                                "depth": 1,
                                "id": 2,
                                "order": 2
                            }
                        ],
                        "depth": 0,
                        "id": 0,
                        "order": 0
                    }
                ],
                "depth": -1,
                "id": -1,
                "order": -1
            }
        ],
        "mainTraceNodeCount": 3,
        "parentIdMap": {
            "0": -1,
            "1": 0,
            "2": 0
        },
        "tidyTrace": [
            {
                "children": [
                    {
                        "children": [
                            {
                                "children": [],
                                "depth": 1,
                                "id": 2,
                                "order": 2
                            }
                        ],
                        "depth": 0,
                        "id": 0,
                        "order": 0
                    }
                ],
                "depth": -1,
                "id": -1,
                "order": -1
            }
        ],
        "tidyTraceNodeCount": 2
    },
    "state_change": {
        "stateChanges": [
            {
                "address": "0x5e07b6f1b98a11f7e04e7ffa8707b63f1c177753",
                "erc": "",
                "slots": [
                    {
                        "current": "0x00000000000000000000000000000000000000000000000000000000000047bd",
                        "key": "0x6c61fa2beb8353c028531718c63aa9331d23b58419c49ef3dbd7f48b16dedb8d",
                        "prev": "0x00000000000000000000000000000000000000000000000000000000000047bc"
                    }
                ],
                "storageVariables": [
                    {
                        "name": "lastActionDate",
                        "type": "mapping(address => int64)",
                        "value": {
                            "pairs": [
                                {
                                    "key": "0x3ac4d925e68c00be698d668c57cf246c8f8bc08f",
                                    "value": {
                                        "current": "18365",
                                        "prev": "18364",
                                        "typeTag": 1
                                    }
                                }
                            ],
                            "typeTag": 4
                        }
                    }
                ]
            }
        ]
    }
}